{
  "_format": "hh-sol-artifact-1",
  "contractName": "SeigToken",
  "sourceName": "contracts/stake/tokens/SeigToken.sol",
  "abi": [
    {
      "anonymous": false,
      "inputs": [
        {
          "indexed": true,
          "internalType": "address",
          "name": "owner",
          "type": "address"
        },
        {
          "indexed": true,
          "internalType": "address",
          "name": "spender",
          "type": "address"
        },
        {
          "indexed": false,
          "internalType": "uint256",
          "name": "value",
          "type": "uint256"
        }
      ],
      "name": "Approval",
      "type": "event"
    },
    {
      "anonymous": false,
      "inputs": [
        {
          "indexed": true,
          "internalType": "address",
          "name": "previousOwner",
          "type": "address"
        },
        {
          "indexed": true,
          "internalType": "address",
          "name": "newOwner",
          "type": "address"
        }
      ],
      "name": "OwnershipTransferred",
      "type": "event"
    },
    {
      "anonymous": false,
      "inputs": [
        {
          "indexed": true,
          "internalType": "address",
          "name": "from",
          "type": "address"
        },
        {
          "indexed": true,
          "internalType": "address",
          "name": "to",
          "type": "address"
        },
        {
          "indexed": false,
          "internalType": "uint256",
          "name": "value",
          "type": "uint256"
        }
      ],
      "name": "Transfer",
      "type": "event"
    },
    {
      "constant": true,
      "inputs": [
        {
          "internalType": "address",
          "name": "owner",
          "type": "address"
        },
        {
          "internalType": "address",
          "name": "spender",
          "type": "address"
        }
      ],
      "name": "allowance",
      "outputs": [
        {
          "internalType": "uint256",
          "name": "",
          "type": "uint256"
        }
      ],
      "payable": false,
      "stateMutability": "view",
      "type": "function"
    },
    {
      "constant": false,
      "inputs": [
        {
          "internalType": "address",
          "name": "spender",
          "type": "address"
        },
        {
          "internalType": "uint256",
          "name": "amount",
          "type": "uint256"
        }
      ],
      "name": "approve",
      "outputs": [
        {
          "internalType": "bool",
          "name": "",
          "type": "bool"
        }
      ],
      "payable": false,
      "stateMutability": "nonpayable",
      "type": "function"
    },
    {
      "constant": false,
      "inputs": [
        {
          "internalType": "address",
          "name": "spender",
          "type": "address"
        },
        {
          "internalType": "uint256",
          "name": "amount",
          "type": "uint256"
        },
        {
          "internalType": "bytes",
          "name": "data",
          "type": "bytes"
        }
      ],
      "name": "approveAndCall",
      "outputs": [
        {
          "internalType": "bool",
          "name": "",
          "type": "bool"
        }
      ],
      "payable": false,
      "stateMutability": "nonpayable",
      "type": "function"
    },
    {
      "constant": true,
      "inputs": [
        {
          "internalType": "address",
          "name": "account",
          "type": "address"
        }
      ],
      "name": "balanceOf",
      "outputs": [
        {
          "internalType": "uint256",
          "name": "",
          "type": "uint256"
        }
      ],
      "payable": false,
      "stateMutability": "view",
      "type": "function"
    },
    {
      "constant": true,
      "inputs": [],
      "name": "callbackEnabled",
      "outputs": [
        {
          "internalType": "bool",
          "name": "",
          "type": "bool"
        }
      ],
      "payable": false,
      "stateMutability": "view",
      "type": "function"
    },
    {
      "constant": false,
      "inputs": [
        {
          "internalType": "address",
          "name": "spender",
          "type": "address"
        },
        {
          "internalType": "uint256",
          "name": "subtractedValue",
          "type": "uint256"
        }
      ],
      "name": "decreaseAllowance",
      "outputs": [
        {
          "internalType": "bool",
          "name": "",
          "type": "bool"
        }
      ],
      "payable": false,
      "stateMutability": "nonpayable",
      "type": "function"
    },
    {
      "constant": false,
      "inputs": [
        {
          "internalType": "bool",
          "name": "_callbackEnabled",
          "type": "bool"
        }
      ],
      "name": "enableCallback",
      "outputs": [],
      "payable": false,
      "stateMutability": "nonpayable",
      "type": "function"
    },
    {
      "constant": false,
      "inputs": [
        {
          "internalType": "address",
          "name": "spender",
          "type": "address"
        },
        {
          "internalType": "uint256",
          "name": "addedValue",
          "type": "uint256"
        }
      ],
      "name": "increaseAllowance",
      "outputs": [
        {
          "internalType": "bool",
          "name": "",
          "type": "bool"
        }
      ],
      "payable": false,
      "stateMutability": "nonpayable",
      "type": "function"
    },
    {
      "constant": true,
      "inputs": [],
      "name": "isOwner",
      "outputs": [
        {
          "internalType": "bool",
          "name": "",
          "type": "bool"
        }
      ],
      "payable": false,
      "stateMutability": "view",
      "type": "function"
    },
    {
      "constant": true,
      "inputs": [],
      "name": "owner",
      "outputs": [
        {
          "internalType": "address",
          "name": "",
          "type": "address"
        }
      ],
      "payable": false,
      "stateMutability": "view",
      "type": "function"
    },
    {
      "constant": false,
      "inputs": [
        {
          "internalType": "address",
          "name": "target",
          "type": "address"
        }
      ],
      "name": "renounceMinter",
      "outputs": [],
      "payable": false,
      "stateMutability": "nonpayable",
      "type": "function"
    },
    {
      "constant": false,
      "inputs": [
        {
          "internalType": "address",
          "name": "target",
          "type": "address"
        }
      ],
      "name": "renounceOwnership",
      "outputs": [],
      "payable": false,
      "stateMutability": "nonpayable",
      "type": "function"
    },
    {
      "constant": false,
      "inputs": [],
      "name": "renounceOwnership",
      "outputs": [],
      "payable": false,
      "stateMutability": "nonpayable",
      "type": "function"
    },
    {
      "constant": false,
      "inputs": [
        {
          "internalType": "address",
          "name": "target",
          "type": "address"
        }
      ],
      "name": "renouncePauser",
      "outputs": [],
      "payable": false,
      "stateMutability": "nonpayable",
      "type": "function"
    },
    {
      "constant": true,
      "inputs": [],
      "name": "seigManager",
      "outputs": [
        {
          "internalType": "contract SeigManagerI",
          "name": "",
          "type": "address"
        }
      ],
      "payable": false,
      "stateMutability": "view",
      "type": "function"
    },
    {
      "constant": false,
      "inputs": [
        {
          "internalType": "contract SeigManagerI",
          "name": "_seigManager",
          "type": "address"
        }
      ],
      "name": "setSeigManager",
      "outputs": [],
      "payable": false,
      "stateMutability": "nonpayable",
      "type": "function"
    },
    {
      "constant": true,
      "inputs": [],
      "name": "totalSupply",
      "outputs": [
        {
          "internalType": "uint256",
          "name": "",
          "type": "uint256"
        }
      ],
      "payable": false,
      "stateMutability": "view",
      "type": "function"
    },
    {
      "constant": false,
      "inputs": [
        {
          "internalType": "address",
          "name": "recipient",
          "type": "address"
        },
        {
          "internalType": "uint256",
          "name": "amount",
          "type": "uint256"
        }
      ],
      "name": "transfer",
      "outputs": [
        {
          "internalType": "bool",
          "name": "",
          "type": "bool"
        }
      ],
      "payable": false,
      "stateMutability": "nonpayable",
      "type": "function"
    },
    {
      "constant": false,
      "inputs": [
        {
          "internalType": "address",
          "name": "sender",
          "type": "address"
        },
        {
          "internalType": "address",
          "name": "recipient",
          "type": "address"
        },
        {
          "internalType": "uint256",
          "name": "amount",
          "type": "uint256"
        }
      ],
      "name": "transferFrom",
      "outputs": [
        {
          "internalType": "bool",
          "name": "",
          "type": "bool"
        }
      ],
      "payable": false,
      "stateMutability": "nonpayable",
      "type": "function"
    },
    {
      "constant": false,
      "inputs": [
        {
          "internalType": "address",
          "name": "target",
          "type": "address"
        },
        {
          "internalType": "address",
          "name": "newOwner",
          "type": "address"
        }
      ],
      "name": "transferOwnership",
      "outputs": [],
      "payable": false,
      "stateMutability": "nonpayable",
      "type": "function"
    },
    {
      "constant": false,
      "inputs": [
        {
          "internalType": "address",
          "name": "newOwner",
          "type": "address"
        }
      ],
      "name": "transferOwnership",
      "outputs": [],
      "payable": false,
      "stateMutability": "nonpayable",
      "type": "function"
    }
  ],
  "bytecode": "0x608060405260006100176001600160e01b0361006a16565b600380546001600160a01b0319166001600160a01b038316908117909155604051919250906000907f8be0079c531659141344cd1fd0a4f28419497f9722a3daafe3b4186f6b6457e0908290a35061006e565b3390565b61174f8061007d6000396000f3fe608060405234801561001057600080fd5b50600436106101775760003560e01c80636fb7f558116100d85780638f32d59b1161008c578063cae9ca5111610066578063cae9ca51146103e1578063dd62ed3e1461049c578063f2fde38b146104ca57610177565b80638f32d59b14610381578063a457c2d714610389578063a9059cbb146103b557610177565b8063715018a6116100bd578063715018a61461034b5780637657f20a146103535780638da5cb5b1461037957610177565b80636fb7f5581461030157806370a082311461032557610177565b8063395093511161012f5780635f112c68116101145780635f112c68146102a557806363380113146102cb5780636d435421146102d357610177565b8063395093511461025357806341eb24bb1461027f57610177565b806323b872dd1161016057806323b872dd146101d65780633113ed5c1461020c57806338bf3cfa1461022d57610177565b8063095ea7b31461017c57806318160ddd146101bc575b600080fd5b6101a86004803603604081101561019257600080fd5b506001600160a01b0381351690602001356104f0565b604080519115158252519081900360200190f35b6101c461050d565b60408051918252519081900360200190f35b6101a8600480360360608110156101ec57600080fd5b506001600160a01b03813581169160208101359091169060400135610513565b61022b6004803603602081101561022257600080fd5b50351515610528565b005b61022b6004803603602081101561024357600080fd5b50356001600160a01b03166105ba565b6101a86004803603604081101561026957600080fd5b506001600160a01b038135169060200135610669565b61022b6004803603602081101561029557600080fd5b50356001600160a01b03166106c2565b61022b600480360360208110156102bb57600080fd5b50356001600160a01b0316610756565b6101a86107ea565b61022b600480360360408110156102e957600080fd5b506001600160a01b03813581169160200135166107fa565b6103096108c7565b604080516001600160a01b039092168252519081900360200190f35b6101c46004803603602081101561033b57600080fd5b50356001600160a01b03166108d6565b61022b6108f1565b61022b6004803603602081101561036957600080fd5b50356001600160a01b03166109a1565b610309610a29565b6101a8610a38565b6101a86004803603604081101561039f57600080fd5b506001600160a01b038135169060200135610a5e565b6101a8600480360360408110156103cb57600080fd5b506001600160a01b038135169060200135610acc565b6101a8600480360360608110156103f757600080fd5b6001600160a01b038235169160208101359181019060608101604082013564010000000081111561042757600080fd5b82018360208201111561043957600080fd5b8035906020019184600183028401116401000000008311171561045b57600080fd5b91908080601f016020809104026020016040519081016040528093929190818152602001838380828437600092019190915250929550610ae0945050505050565b6101c4600480360360408110156104b257600080fd5b506001600160a01b0381358116916020013516610b0b565b61022b600480360360208110156104e057600080fd5b50356001600160a01b0316610b36565b60006105046104fd610b9b565b8484610b9f565b50600192915050565b60025490565b6000610520848484610c8b565b949350505050565b610530610a38565b610581576040805162461bcd60e51b815260206004820181905260248201527f4f776e61626c653a2063616c6c6572206973206e6f7420746865206f776e6572604482015290519081900360640190fd5b60048054911515600160a01b027fffffffffffffffffffffff00ffffffffffffffffffffffffffffffffffffffff909216919091179055565b6105c2610a38565b610613576040805162461bcd60e51b815260206004820181905260248201527f4f776e61626c653a2063616c6c6572206973206e6f7420746865206f776e6572604482015290519081900360640190fd5b806001600160a01b031663715018a66040518163ffffffff1660e01b8152600401600060405180830381600087803b15801561064e57600080fd5b505af1158015610662573d6000803e3d6000fd5b5050505050565b6000610504610676610b9b565b846106bd8560016000610687610b9b565b6001600160a01b03908116825260208083019390935260409182016000908120918c16815292529020549063ffffffff610d0916565b610b9f565b6106ca610a38565b61071b576040805162461bcd60e51b815260206004820181905260248201527f4f776e61626c653a2063616c6c6572206973206e6f7420746865206f776e6572604482015290519081900360640190fd5b806001600160a01b0316636ef8d66d6040518163ffffffff1660e01b8152600401600060405180830381600087803b15801561064e57600080fd5b61075e610a38565b6107af576040805162461bcd60e51b815260206004820181905260248201527f4f776e61626c653a2063616c6c6572206973206e6f7420746865206f776e6572604482015290519081900360640190fd5b806001600160a01b031663986502756040518163ffffffff1660e01b8152600401600060405180830381600087803b15801561064e57600080fd5b600454600160a01b900460ff1681565b610802610a38565b610853576040805162461bcd60e51b815260206004820181905260248201527f4f776e61626c653a2063616c6c6572206973206e6f7420746865206f776e6572604482015290519081900360640190fd5b816001600160a01b031663f2fde38b826040518263ffffffff1660e01b815260040180826001600160a01b03166001600160a01b03168152602001915050600060405180830381600087803b1580156108ab57600080fd5b505af11580156108bf573d6000803e3d6000fd5b505050505050565b6004546001600160a01b031681565b6001600160a01b031660009081526020819052604090205490565b6108f9610a38565b61094a576040805162461bcd60e51b815260206004820181905260248201527f4f776e61626c653a2063616c6c6572206973206e6f7420746865206f776e6572604482015290519081900360640190fd5b6003546040516000916001600160a01b0316907f8be0079c531659141344cd1fd0a4f28419497f9722a3daafe3b4186f6b6457e0908390a36003805473ffffffffffffffffffffffffffffffffffffffff19169055565b6109a9610a38565b6109fa576040805162461bcd60e51b815260206004820181905260248201527f4f776e61626c653a2063616c6c6572206973206e6f7420746865206f776e6572604482015290519081900360640190fd5b6004805473ffffffffffffffffffffffffffffffffffffffff19166001600160a01b0392909216919091179055565b6003546001600160a01b031690565b6003546000906001600160a01b0316610a4f610b9b565b6001600160a01b031614905090565b6000610504610a6b610b9b565b846106bd856040518060600160405280602581526020016116f66025913960016000610a95610b9b565b6001600160a01b03908116825260208083019390935260409182016000908120918d1681529252902054919063ffffffff610d6a16565b6000610504610ad9610b9b565b8484610e01565b6000610aec84846104f0565b610af557600080fd5b610b0133858585610ee9565b5060019392505050565b6001600160a01b03918216600090815260016020908152604080832093909416825291909152205490565b610b3e610a38565b610b8f576040805162461bcd60e51b815260206004820181905260248201527f4f776e61626c653a2063616c6c6572206973206e6f7420746865206f776e6572604482015290519081900360640190fd5b610b98816111a1565b50565b3390565b6001600160a01b038316610be45760405162461bcd60e51b81526004018080602001828103825260248152602001806116aa6024913960400191505060405180910390fd5b6001600160a01b038216610c295760405162461bcd60e51b81526004018080602001828103825260228152602001806115e46022913960400191505060405180910390fd5b6001600160a01b03808416600081815260016020908152604080832094871680845294825291829020859055815185815291517f8c5be1e5ebec7d5bd14f71427d1e84f3dd0314c0f7b2291e5b200ac8c7c3b9259281900390910190a3505050565b6000610c98848484610e01565b610b0184610ca4610b9b565b6106bd8560405180606001604052806028815260200161165d602891396001600160a01b038a16600090815260016020526040812090610ce2610b9b565b6001600160a01b03168152602081019190915260400160002054919063ffffffff610d6a16565b600082820183811015610d63576040805162461bcd60e51b815260206004820152601b60248201527f536166654d6174683a206164646974696f6e206f766572666c6f770000000000604482015290519081900360640190fd5b9392505050565b60008184841115610df95760405162461bcd60e51b81526004018080602001828103825283818151815260200191508051906020019080838360005b83811015610dbe578181015183820152602001610da6565b50505050905090810190601f168015610deb5780820380516001836020036101000a031916815260200191505b509250505060405180910390fd5b505050900390565b610e0c83838361124f565b600454600160a01b900460ff168015610e2f57506004546001600160a01b031615155b15610ee45760048054604080517f4a3931490000000000000000000000000000000000000000000000000000000081526001600160a01b038781169482019490945285841660248201526044810185905290519290911691634a393149916064808201926020929091908290030181600087803b158015610eaf57600080fd5b505af1158015610ec3573d6000803e3d6000fd5b505050506040513d6020811015610ed957600080fd5b5051610ee457600080fd5b505050565b7f4273ca1600000000000000000000000000000000000000000000000000000000610f1484826113ab565b610f4f5760405162461bcd60e51b81526004018080602001828103825260318152602001806116066031913960400191505060405180910390fd5b60006060856001600160a01b0316838888888860405160240180856001600160a01b03166001600160a01b03168152602001846001600160a01b03166001600160a01b0316815260200183815260200180602001828103825283818151815260200191508051906020019080838360005b83811015610fd8578181015183820152602001610fc0565b50505050905090810190601f1680156110055780820380516001836020036101000a031916815260200191505b5060408051601f198184030181529181526020820180517bffffffffffffffffffffffffffffffffffffffffffffffffffffffff167fffffffff00000000000000000000000000000000000000000000000000000000909a16999099178952518151919890975087965094509250829150849050835b6020831061109a5780518252601f19909201916020918201910161107b565b6001836020036101000a0380198251168184511680821785525050505050509050019150506000604051808303816000865af19150503d80600081146110fc576040519150601f19603f3d011682016040523d82523d6000602084013e611101565b606091505b50915091508181906111545760405162461bcd60e51b8152602060048201818152835160248401528351909283926044909101919085019080838360008315610dbe578181015183820152602001610da6565b5060208101519150816111985760405162461bcd60e51b81526004018080602001828103825260288152602001806116ce6028913960400191505060405180910390fd5b50505050505050565b6001600160a01b0381166111e65760405162461bcd60e51b81526004018080602001828103825260268152602001806115be6026913960400191505060405180910390fd5b6003546040516001600160a01b038084169216907f8be0079c531659141344cd1fd0a4f28419497f9722a3daafe3b4186f6b6457e090600090a36003805473ffffffffffffffffffffffffffffffffffffffff19166001600160a01b0392909216919091179055565b6001600160a01b0383166112945760405162461bcd60e51b81526004018080602001828103825260258152602001806116856025913960400191505060405180910390fd5b6001600160a01b0382166112d95760405162461bcd60e51b815260040180806020018281038252602381526020018061159b6023913960400191505060405180910390fd5b61131c81604051806060016040528060268152602001611637602691396001600160a01b038616600090815260208190526040902054919063ffffffff610d6a16565b6001600160a01b038085166000908152602081905260408082209390935590841681522054611351908263ffffffff610d0916565b6001600160a01b038084166000818152602081815260409182902094909455805185815290519193928716927fddf252ad1be2c89b69c2b068fc378daa952ba7f163c4a11628f55a4df523b3ef92918290030190a3505050565b60006113b6836113c7565b8015610d635750610d638383611413565b60006113da826301ffc9a760e01b611413565b801561140d575061140b827fffffffff00000000000000000000000000000000000000000000000000000000611413565b155b92915050565b60008060006114228585611439565b915091508180156114305750805b95945050505050565b604080517fffffffff00000000000000000000000000000000000000000000000000000000831660248083019190915282518083039091018152604490910182526020810180517bffffffffffffffffffffffffffffffffffffffffffffffffffffffff166301ffc9a760e01b1781529151815160009384939284926060926001600160a01b038a169261753092879282918083835b602083106114ee5780518252601f1990920191602091820191016114cf565b6001836020036101000a0380198251168184511680821785525050505050509050019150506000604051808303818686fa925050503d806000811461154f576040519150601f19603f3d011682016040523d82523d6000602084013e611554565b606091505b50915091506020815110156115725760008094509450505050611593565b8181806020019051602081101561158857600080fd5b505190955093505050505b925092905056fe45524332303a207472616e7366657220746f20746865207a65726f20616464726573734f776e61626c653a206e6577206f776e657220697320746865207a65726f206164647265737345524332303a20617070726f766520746f20746865207a65726f206164647265737345524332304f6e417070726f76653a207370656e64657220646f65736e277420737570706f7274206f6e417070726f766545524332303a207472616e7366657220616d6f756e7420657863656564732062616c616e636545524332303a207472616e7366657220616d6f756e74206578636565647320616c6c6f77616e636545524332303a207472616e736665722066726f6d20746865207a65726f206164647265737345524332303a20617070726f76652066726f6d20746865207a65726f206164647265737345524332304f6e417070726f76653a206661696c656420746f2063616c6c206f6e417070726f766545524332303a2064656372656173656420616c6c6f77616e63652062656c6f77207a65726fa265627a7a72315820bca8d04ea38455951bea11323551a67d0b853315c33d1b17a693faf7b848769b64736f6c634300050c0032",
  "linkReferences": {},
  "deployedLinkReferences": {}
}