{
  "_format": "hh-sol-artifact-1",
  "contractName": "VaultWhitelistStorage",
  "sourceName": "contracts/vaults/VaultWhitelistStorage.sol",
  "abi": [
    {
      "inputs": [],
      "name": "allocatedAmountForRound",
      "outputs": [
        {
          "internalType": "uint256",
          "name": "",
          "type": "uint256"
        }
      ],
      "stateMutability": "view",
      "type": "function"
    },
    {
      "inputs": [],
      "name": "lastClaimedRound",
      "outputs": [
        {
          "internalType": "uint256",
          "name": "",
          "type": "uint256"
        }
      ],
      "stateMutability": "view",
      "type": "function"
    }
  ],
  "bytecode": "0x6080604052348015600f57600080fd5b50608f8061001e6000396000f3fe6080604052348015600f57600080fd5b506004361060325760003560e01c80633e59df351460375780634117cfb7146051575b600080fd5b603f60015481565b60405190815260200160405180910390f35b603f6000548156fea2646970667358221220f2f78522b4d75ae6b1a3d4c1772bc3fb9a31da4c96112e45a54d6cdf99c26ea664736f6c63430008040033",
  "linkReferences": {},
  "deployedLinkReferences": {}
}