{
  "_format": "hh-sol-artifact-1",
  "contractName": "Data",
  "sourceName": "contracts/lib/Data.sol",
  "abi": [
    {
      "constant": true,
      "inputs": [],
      "name": "APPLY_IN_CHILDCHAIN_SIGNATURE",
      "outputs": [
        {
          "internalType": "bytes4",
          "name": "",
          "type": "bytes4"
        }
      ],
      "payable": false,
      "stateMutability": "view",
      "type": "function"
    },
    {
      "constant": true,
      "inputs": [],
      "name": "APPLY_IN_ROOTCHAIN_SIGNATURE",
      "outputs": [
        {
          "internalType": "bytes4",
          "name": "",
          "type": "bytes4"
        }
      ],
      "payable": false,
      "stateMutability": "view",
      "type": "function"
    },
    {
      "constant": true,
      "inputs": [],
      "name": "NA",
      "outputs": [
        {
          "internalType": "address",
          "name": "",
          "type": "address"
        }
      ],
      "payable": false,
      "stateMutability": "view",
      "type": "function"
    },
    {
      "constant": true,
      "inputs": [],
      "name": "NA_TX_GAS_LIMIT",
      "outputs": [
        {
          "internalType": "uint256",
          "name": "",
          "type": "uint256"
        }
      ],
      "payable": false,
      "stateMutability": "view",
      "type": "function"
    },
    {
      "constant": true,
      "inputs": [],
      "name": "NA_TX_GAS_PRICE",
      "outputs": [
        {
          "internalType": "uint256",
          "name": "",
          "type": "uint256"
        }
      ],
      "payable": false,
      "stateMutability": "view",
      "type": "function"
    }
  ],
  "bytecode": "0x610204610026600b82828239805160001a60731461001957fe5b30600052607381538281f3fe73000000000000000000000000000000000000000030146080604052600436106100715760003560e01c8063a7b6ae281161005a578063a7b6ae2814610098578063a89ca766146100d5578063ab73ff05146100dd57610071565b80631927ac581461007657806390e84f5614610090575b600080fd5b61007e61010e565b60408051918252519081900360200190f35b61007e610116565b6100a061011d565b604080517fffffffff000000000000000000000000000000000000000000000000000000009092168252519081900360200190f35b6100a0610138565b6100e5610153565b6040805173ffffffffffffffffffffffffffffffffffffffff9092168252519081900360200190f35b633b9aca0081565b620186a081565b60405180603b6101958239603b019050604051809103902081565b60405180603c6101598239603c019050604051809103902081565b60008156fe6170706c7952657175657374496e4368696c64436861696e28626f6f6c2c75696e743235362c616464726573732c627974657333322c6279746573296170706c7952657175657374496e526f6f74436861696e28626f6f6c2c75696e743235362c616464726573732c627974657333322c627974657329a265627a7a7231582005ead7a4685fbf4b4e9d6d26d1fd82642677ed2a1881c4d23be9b3db5c7d8ec564736f6c634300050c0032",
  "linkReferences": {},
  "deployedLinkReferences": {}
}