{
  "_format": "hh-sol-artifact-1",
  "contractName": "WTON",
  "sourceName": "contracts/stake/tokens/WTON.sol",
  "abi": [
    {
      "inputs": [
        {
          "internalType": "contract ERC20Mintable",
          "name": "_ton",
          "type": "address"
        }
      ],
      "payable": false,
      "stateMutability": "nonpayable",
      "type": "constructor"
    },
    {
      "anonymous": false,
      "inputs": [
        {
          "indexed": true,
          "internalType": "address",
          "name": "owner",
          "type": "address"
        },
        {
          "indexed": true,
          "internalType": "address",
          "name": "spender",
          "type": "address"
        },
        {
          "indexed": false,
          "internalType": "uint256",
          "name": "value",
          "type": "uint256"
        }
      ],
      "name": "Approval",
      "type": "event"
    },
    {
      "anonymous": false,
      "inputs": [
        {
          "indexed": true,
          "internalType": "address",
          "name": "account",
          "type": "address"
        }
      ],
      "name": "MinterAdded",
      "type": "event"
    },
    {
      "anonymous": false,
      "inputs": [
        {
          "indexed": true,
          "internalType": "address",
          "name": "account",
          "type": "address"
        }
      ],
      "name": "MinterRemoved",
      "type": "event"
    },
    {
      "anonymous": false,
      "inputs": [
        {
          "indexed": true,
          "internalType": "address",
          "name": "previousOwner",
          "type": "address"
        },
        {
          "indexed": true,
          "internalType": "address",
          "name": "newOwner",
          "type": "address"
        }
      ],
      "name": "OwnershipTransferred",
      "type": "event"
    },
    {
      "anonymous": false,
      "inputs": [
        {
          "indexed": true,
          "internalType": "address",
          "name": "from",
          "type": "address"
        },
        {
          "indexed": true,
          "internalType": "address",
          "name": "to",
          "type": "address"
        },
        {
          "indexed": false,
          "internalType": "uint256",
          "name": "value",
          "type": "uint256"
        }
      ],
      "name": "Transfer",
      "type": "event"
    },
    {
      "constant": false,
      "inputs": [
        {
          "internalType": "address",
          "name": "account",
          "type": "address"
        }
      ],
      "name": "addMinter",
      "outputs": [],
      "payable": false,
      "stateMutability": "nonpayable",
      "type": "function"
    },
    {
      "constant": true,
      "inputs": [
        {
          "internalType": "address",
          "name": "owner",
          "type": "address"
        },
        {
          "internalType": "address",
          "name": "spender",
          "type": "address"
        }
      ],
      "name": "allowance",
      "outputs": [
        {
          "internalType": "uint256",
          "name": "",
          "type": "uint256"
        }
      ],
      "payable": false,
      "stateMutability": "view",
      "type": "function"
    },
    {
      "constant": false,
      "inputs": [
        {
          "internalType": "address",
          "name": "spender",
          "type": "address"
        },
        {
          "internalType": "uint256",
          "name": "amount",
          "type": "uint256"
        }
      ],
      "name": "approve",
      "outputs": [
        {
          "internalType": "bool",
          "name": "",
          "type": "bool"
        }
      ],
      "payable": false,
      "stateMutability": "nonpayable",
      "type": "function"
    },
    {
      "constant": false,
      "inputs": [
        {
          "internalType": "address",
          "name": "spender",
          "type": "address"
        },
        {
          "internalType": "uint256",
          "name": "amount",
          "type": "uint256"
        },
        {
          "internalType": "bytes",
          "name": "data",
          "type": "bytes"
        }
      ],
      "name": "approveAndCall",
      "outputs": [
        {
          "internalType": "bool",
          "name": "",
          "type": "bool"
        }
      ],
      "payable": false,
      "stateMutability": "nonpayable",
      "type": "function"
    },
    {
      "constant": true,
      "inputs": [
        {
          "internalType": "address",
          "name": "account",
          "type": "address"
        }
      ],
      "name": "balanceOf",
      "outputs": [
        {
          "internalType": "uint256",
          "name": "",
          "type": "uint256"
        }
      ],
      "payable": false,
      "stateMutability": "view",
      "type": "function"
    },
    {
      "constant": false,
      "inputs": [
        {
          "internalType": "uint256",
          "name": "amount",
          "type": "uint256"
        }
      ],
      "name": "burn",
      "outputs": [],
      "payable": false,
      "stateMutability": "nonpayable",
      "type": "function"
    },
    {
      "constant": false,
      "inputs": [
        {
          "internalType": "address",
          "name": "account",
          "type": "address"
        },
        {
          "internalType": "uint256",
          "name": "amount",
          "type": "uint256"
        }
      ],
      "name": "burnFrom",
      "outputs": [],
      "payable": false,
      "stateMutability": "nonpayable",
      "type": "function"
    },
    {
      "constant": true,
      "inputs": [],
      "name": "callbackEnabled",
      "outputs": [
        {
          "internalType": "bool",
          "name": "",
          "type": "bool"
        }
      ],
      "payable": false,
      "stateMutability": "view",
      "type": "function"
    },
    {
      "constant": true,
      "inputs": [],
      "name": "decimals",
      "outputs": [
        {
          "internalType": "uint8",
          "name": "",
          "type": "uint8"
        }
      ],
      "payable": false,
      "stateMutability": "view",
      "type": "function"
    },
    {
      "constant": false,
      "inputs": [
        {
          "internalType": "address",
          "name": "spender",
          "type": "address"
        },
        {
          "internalType": "uint256",
          "name": "subtractedValue",
          "type": "uint256"
        }
      ],
      "name": "decreaseAllowance",
      "outputs": [
        {
          "internalType": "bool",
          "name": "",
          "type": "bool"
        }
      ],
      "payable": false,
      "stateMutability": "nonpayable",
      "type": "function"
    },
    {
      "constant": false,
      "inputs": [
        {
          "internalType": "bool",
          "name": "_callbackEnabled",
          "type": "bool"
        }
      ],
      "name": "enableCallback",
      "outputs": [],
      "payable": false,
      "stateMutability": "nonpayable",
      "type": "function"
    },
    {
      "constant": false,
      "inputs": [
        {
          "internalType": "address",
          "name": "spender",
          "type": "address"
        },
        {
          "internalType": "uint256",
          "name": "addedValue",
          "type": "uint256"
        }
      ],
      "name": "increaseAllowance",
      "outputs": [
        {
          "internalType": "bool",
          "name": "",
          "type": "bool"
        }
      ],
      "payable": false,
      "stateMutability": "nonpayable",
      "type": "function"
    },
    {
      "constant": true,
      "inputs": [
        {
          "internalType": "address",
          "name": "account",
          "type": "address"
        }
      ],
      "name": "isMinter",
      "outputs": [
        {
          "internalType": "bool",
          "name": "",
          "type": "bool"
        }
      ],
      "payable": false,
      "stateMutability": "view",
      "type": "function"
    },
    {
      "constant": true,
      "inputs": [],
      "name": "isOwner",
      "outputs": [
        {
          "internalType": "bool",
          "name": "",
          "type": "bool"
        }
      ],
      "payable": false,
      "stateMutability": "view",
      "type": "function"
    },
    {
      "constant": false,
      "inputs": [
        {
          "internalType": "address",
          "name": "account",
          "type": "address"
        },
        {
          "internalType": "uint256",
          "name": "amount",
          "type": "uint256"
        }
      ],
      "name": "mint",
      "outputs": [
        {
          "internalType": "bool",
          "name": "",
          "type": "bool"
        }
      ],
      "payable": false,
      "stateMutability": "nonpayable",
      "type": "function"
    },
    {
      "constant": true,
      "inputs": [],
      "name": "name",
      "outputs": [
        {
          "internalType": "string",
          "name": "",
          "type": "string"
        }
      ],
      "payable": false,
      "stateMutability": "view",
      "type": "function"
    },
    {
      "constant": false,
      "inputs": [
        {
          "internalType": "address",
          "name": "owner",
          "type": "address"
        },
        {
          "internalType": "address",
          "name": "spender",
          "type": "address"
        },
        {
          "internalType": "uint256",
          "name": "tonAmount",
          "type": "uint256"
        },
        {
          "internalType": "bytes",
          "name": "data",
          "type": "bytes"
        }
      ],
      "name": "onApprove",
      "outputs": [
        {
          "internalType": "bool",
          "name": "",
          "type": "bool"
        }
      ],
      "payable": false,
      "stateMutability": "nonpayable",
      "type": "function"
    },
    {
      "constant": true,
      "inputs": [],
      "name": "owner",
      "outputs": [
        {
          "internalType": "address",
          "name": "",
          "type": "address"
        }
      ],
      "payable": false,
      "stateMutability": "view",
      "type": "function"
    },
    {
      "constant": false,
      "inputs": [
        {
          "internalType": "address",
          "name": "target",
          "type": "address"
        }
      ],
      "name": "renounceMinter",
      "outputs": [],
      "payable": false,
      "stateMutability": "nonpayable",
      "type": "function"
    },
    {
      "constant": false,
      "inputs": [],
      "name": "renounceMinter",
      "outputs": [],
      "payable": false,
      "stateMutability": "nonpayable",
      "type": "function"
    },
    {
      "constant": false,
      "inputs": [
        {
          "internalType": "address",
          "name": "target",
          "type": "address"
        }
      ],
      "name": "renounceOwnership",
      "outputs": [],
      "payable": false,
      "stateMutability": "nonpayable",
      "type": "function"
    },
    {
      "constant": false,
      "inputs": [],
      "name": "renounceOwnership",
      "outputs": [],
      "payable": false,
      "stateMutability": "nonpayable",
      "type": "function"
    },
    {
      "constant": false,
      "inputs": [
        {
          "internalType": "address",
          "name": "target",
          "type": "address"
        }
      ],
      "name": "renouncePauser",
      "outputs": [],
      "payable": false,
      "stateMutability": "nonpayable",
      "type": "function"
    },
    {
      "constant": false,
      "inputs": [],
      "name": "renounceTonMinter",
      "outputs": [],
      "payable": false,
      "stateMutability": "nonpayable",
      "type": "function"
    },
    {
      "constant": true,
      "inputs": [],
      "name": "seigManager",
      "outputs": [
        {
          "internalType": "contract SeigManagerI",
          "name": "",
          "type": "address"
        }
      ],
      "payable": false,
      "stateMutability": "view",
      "type": "function"
    },
    {
      "constant": false,
      "inputs": [
        {
          "internalType": "contract SeigManagerI",
          "name": "_seigManager",
          "type": "address"
        }
      ],
      "name": "setSeigManager",
      "outputs": [],
      "payable": false,
      "stateMutability": "nonpayable",
      "type": "function"
    },
    {
      "constant": true,
      "inputs": [
        {
          "internalType": "bytes4",
          "name": "interfaceId",
          "type": "bytes4"
        }
      ],
      "name": "supportsInterface",
      "outputs": [
        {
          "internalType": "bool",
          "name": "",
          "type": "bool"
        }
      ],
      "payable": false,
      "stateMutability": "view",
      "type": "function"
    },
    {
      "constant": false,
      "inputs": [
        {
          "internalType": "uint256",
          "name": "tonAmount",
          "type": "uint256"
        }
      ],
      "name": "swapFromTON",
      "outputs": [
        {
          "internalType": "bool",
          "name": "",
          "type": "bool"
        }
      ],
      "payable": false,
      "stateMutability": "nonpayable",
      "type": "function"
    },
    {
      "constant": false,
      "inputs": [
        {
          "internalType": "address",
          "name": "to",
          "type": "address"
        },
        {
          "internalType": "uint256",
          "name": "tonAmount",
          "type": "uint256"
        }
      ],
      "name": "swapFromTONAndTransfer",
      "outputs": [
        {
          "internalType": "bool",
          "name": "",
          "type": "bool"
        }
      ],
      "payable": false,
      "stateMutability": "nonpayable",
      "type": "function"
    },
    {
      "constant": false,
      "inputs": [
        {
          "internalType": "uint256",
          "name": "wtonAmount",
          "type": "uint256"
        }
      ],
      "name": "swapToTON",
      "outputs": [
        {
          "internalType": "bool",
          "name": "",
          "type": "bool"
        }
      ],
      "payable": false,
      "stateMutability": "nonpayable",
      "type": "function"
    },
    {
      "constant": false,
      "inputs": [
        {
          "internalType": "address",
          "name": "to",
          "type": "address"
        },
        {
          "internalType": "uint256",
          "name": "wtonAmount",
          "type": "uint256"
        }
      ],
      "name": "swapToTONAndTransfer",
      "outputs": [
        {
          "internalType": "bool",
          "name": "",
          "type": "bool"
        }
      ],
      "payable": false,
      "stateMutability": "nonpayable",
      "type": "function"
    },
    {
      "constant": true,
      "inputs": [],
      "name": "symbol",
      "outputs": [
        {
          "internalType": "string",
          "name": "",
          "type": "string"
        }
      ],
      "payable": false,
      "stateMutability": "view",
      "type": "function"
    },
    {
      "constant": true,
      "inputs": [],
      "name": "ton",
      "outputs": [
        {
          "internalType": "contract ERC20Mintable",
          "name": "",
          "type": "address"
        }
      ],
      "payable": false,
      "stateMutability": "view",
      "type": "function"
    },
    {
      "constant": true,
      "inputs": [],
      "name": "totalSupply",
      "outputs": [
        {
          "internalType": "uint256",
          "name": "",
          "type": "uint256"
        }
      ],
      "payable": false,
      "stateMutability": "view",
      "type": "function"
    },
    {
      "constant": false,
      "inputs": [
        {
          "internalType": "address",
          "name": "recipient",
          "type": "address"
        },
        {
          "internalType": "uint256",
          "name": "amount",
          "type": "uint256"
        }
      ],
      "name": "transfer",
      "outputs": [
        {
          "internalType": "bool",
          "name": "",
          "type": "bool"
        }
      ],
      "payable": false,
      "stateMutability": "nonpayable",
      "type": "function"
    },
    {
      "constant": false,
      "inputs": [
        {
          "internalType": "address",
          "name": "sender",
          "type": "address"
        },
        {
          "internalType": "address",
          "name": "recipient",
          "type": "address"
        },
        {
          "internalType": "uint256",
          "name": "amount",
          "type": "uint256"
        }
      ],
      "name": "transferFrom",
      "outputs": [
        {
          "internalType": "bool",
          "name": "",
          "type": "bool"
        }
      ],
      "payable": false,
      "stateMutability": "nonpayable",
      "type": "function"
    },
    {
      "constant": false,
      "inputs": [
        {
          "internalType": "address",
          "name": "target",
          "type": "address"
        },
        {
          "internalType": "address",
          "name": "newOwner",
          "type": "address"
        }
      ],
      "name": "transferOwnership",
      "outputs": [],
      "payable": false,
      "stateMutability": "nonpayable",
      "type": "function"
    },
    {
      "constant": false,
      "inputs": [
        {
          "internalType": "address",
          "name": "newOwner",
          "type": "address"
        }
      ],
      "name": "transferOwnership",
      "outputs": [],
      "payable": false,
      "stateMutability": "nonpayable",
      "type": "function"
    }
  ],
  "bytecode": "0x60806040523480156200001157600080fd5b506040516200325938038062003259833981810160405260208110156200003757600080fd5b5051604080518082018252600b81527f5772617070656420544f4e0000000000000000000000000000000000000000006020828101919091528251808401909352600483527f57544f4e00000000000000000000000000000000000000000000000000000000908301526000805460ff1916600117905590601b620000d7620000c86001600160e01b03620002dc16565b6001600160e01b03620002e116565b6000620000ec6001600160e01b03620002dc16565b600580546001600160a01b0319166001600160a01b038316908117909155604051919250906000907f8be0079c531659141344cd1fd0a4f28419497f9722a3daafe3b4186f6b6457e0908290a35082516200014f9060069060208601906200052c565b508151620001659060079060208501906200052c565b506008805460ff191660ff9290921691909117905550620001a890507f01ffc9a70000000000000000000000000000000000000000000000000000000062000333565b620001dc7f4273ca16000000000000000000000000000000000000000000000000000000006001600160e01b036200033316565b806001600160a01b031663313ce5676040518163ffffffff1660e01b815260040160206040518083038186803b1580156200021657600080fd5b505afa1580156200022b573d6000803e3d6000fd5b505050506040513d60208110156200024257600080fd5b505160ff16601214620002b657604080517f08c379a000000000000000000000000000000000000000000000000000000000815260206004820181905260248201527f57544f4e3a20646563696d616c73206f6620544f4e206d757374206265203138604482015290519081900360640190fd5b600a80546001600160a01b0319166001600160a01b0392909216919091179055620005ce565b335b90565b620002fc8160046200040260201b620023031790919060201c565b6040516001600160a01b038216907f6ae172837ea30b801fbfcdd4108aa1d5bf8ff775444fd70256b44e6bf3dfc3f690600090a250565b7fffffffff000000000000000000000000000000000000000000000000000000008082161415620003c557604080517f08c379a000000000000000000000000000000000000000000000000000000000815260206004820152601c60248201527f4552433136353a20696e76616c696420696e7465726661636520696400000000604482015290519081900360640190fd5b7fffffffff00000000000000000000000000000000000000000000000000000000166000908152600960205260409020805460ff19166001179055565b6200041782826001600160e01b03620004a916565b156200048457604080517f08c379a000000000000000000000000000000000000000000000000000000000815260206004820152601f60248201527f526f6c65733a206163636f756e7420616c72656164792068617320726f6c6500604482015290519081900360640190fd5b6001600160a01b0316600090815260209190915260409020805460ff19166001179055565b60006001600160a01b0382166200050c576040517f08c379a0000000000000000000000000000000000000000000000000000000008152600401808060200182810382526022815260200180620032376022913960400191505060405180910390fd5b506001600160a01b03166000908152602091909152604090205460ff1690565b828054600181600116156101000203166002900490600052602060002090601f016020900481019282601f106200056f57805160ff19168380011785556200059f565b828001600101855582156200059f579182015b828111156200059f57825182559160200191906001019062000582565b50620005ad929150620005b1565b5090565b620002de91905b80821115620005ad5760008155600101620005b8565b612c5980620005de6000396000f3fe608060405234801561001057600080fd5b50600436106102925760003560e01c806370a0823111610160578063a457c2d7116100d8578063dd62ed3e1161008c578063e3b99e8511610071578063e3b99e8514610861578063f2fde38b1461088d578063f53fe70f146108b357610292565b8063dd62ed3e14610816578063e34869d71461084457610292565b8063aa271e1a116100bd578063aa271e1a1461072d578063cae9ca5114610753578063cc48b9471461080e57610292565b8063a457c2d7146106d5578063a9059cbb1461070157610292565b80638da5cb5b1161012f57806395d89b411161011457806395d89b411461069f578063983b2d56146106a757806398650275146106cd57610292565b80638da5cb5b1461068f5780638f32d59b1461069757610292565b806370a082311461060f578063715018a6146106355780637657f20a1461063d57806379cc67901461066357610292565b8063395093511161020e578063588420b7116101c257806363380113116101a757806363380113146105b55780636d435421146105bd5780636fb7f558146105eb57610292565b8063588420b7146105635780635f112c681461058f57610292565b806341eb24bb116101f357806341eb24bb146104905780634273ca16146104b657806342966c681461054657610292565b8063395093511461043857806340c10f191461046457610292565b806318160ddd116102655780633113ed5c1161024a5780633113ed5c146103d5578063313ce567146103f457806338bf3cfa1461041257610292565b806318160ddd1461038557806323b872dd1461039f57610292565b806301ffc9a71461029757806305eeb9f7146102d257806306fdde03146102dc578063095ea7b314610359575b600080fd5b6102be600480360360208110156102ad57600080fd5b50356001600160e01b0319166108d0565b604080519115158252519081900360200190f35b6102da6108ef565b005b6102e46109b2565b6040805160208082528351818301528351919283929083019185019080838360005b8381101561031e578181015183820152602001610306565b50505050905090810190601f16801561034b5780820380516001836020036101000a031916815260200191505b509250505060405180910390f35b6102be6004803603604081101561036f57600080fd5b506001600160a01b038135169060200135610a48565b61038d610a65565b60408051918252519081900360200190f35b6102be600480360360608110156103b557600080fd5b506001600160a01b03813581169160208101359091169060400135610a6b565b6102da600480360360208110156103eb57600080fd5b50351515610a80565b6103fc610b12565b6040805160ff9092168252519081900360200190f35b6102da6004803603602081101561042857600080fd5b50356001600160a01b0316610b1b565b6102be6004803603604081101561044e57600080fd5b506001600160a01b038135169060200135610bca565b6102be6004803603604081101561047a57600080fd5b506001600160a01b038135169060200135610c23565b6102da600480360360208110156104a657600080fd5b50356001600160a01b0316610c7a565b6102be600480360360808110156104cc57600080fd5b6001600160a01b0382358116926020810135909116916040820135919081019060808101606082013564010000000081111561050757600080fd5b82018360208201111561051957600080fd5b8035906020019184600183028401116401000000008311171561053b57600080fd5b509092509050610d0e565b6102da6004803603602081101561055c57600080fd5b5035610ded565b6102be6004803603604081101561057957600080fd5b506001600160a01b038135169060200135610e01565b6102da600480360360208110156105a557600080fd5b50356001600160a01b0316610e83565b6102be610f17565b6102da600480360360408110156105d357600080fd5b506001600160a01b0381358116916020013516610f27565b6105f3610ff4565b604080516001600160a01b039092168252519081900360200190f35b61038d6004803603602081101561062557600080fd5b50356001600160a01b0316611008565b6102da611023565b6102da6004803603602081101561065357600080fd5b50356001600160a01b03166110d3565b6102da6004803603604081101561067957600080fd5b506001600160a01b03813516906020013561116b565b6105f3611196565b6102be6111a5565b6102e46111cb565b6102da600480360360208110156106bd57600080fd5b50356001600160a01b031661122c565b6102da61127b565b6102be600480360360408110156106eb57600080fd5b506001600160a01b03813516906020013561128d565b6102be6004803603604081101561071757600080fd5b506001600160a01b0381351690602001356112fb565b6102be6004803603602081101561074357600080fd5b50356001600160a01b031661130f565b6102be6004803603606081101561076957600080fd5b6001600160a01b038235169160208101359181019060608101604082013564010000000081111561079957600080fd5b8201836020820111156107ab57600080fd5b803590602001918460018302840111640100000000831117156107cd57600080fd5b91908080601f016020809104026020016040519081016040528093929190818152602001838380828437600092019190915250929550611328945050505050565b6105f3611353565b61038d6004803603604081101561082c57600080fd5b506001600160a01b0381358116916020013516611362565b6102be6004803603602081101561085a57600080fd5b503561138d565b6102be6004803603604081101561087757600080fd5b506001600160a01b03813516906020013561140e565b6102da600480360360208110156108a357600080fd5b50356001600160a01b031661147b565b6102be600480360360208110156108c957600080fd5b50356114dd565b6001600160e01b03191660009081526009602052604090205460ff1690565b6108f76111a5565b610948576040805162461bcd60e51b815260206004820181905260248201527f4f776e61626c653a2063616c6c6572206973206e6f7420746865206f776e6572604482015290519081900360640190fd5b600a60009054906101000a90046001600160a01b03166001600160a01b031663986502756040518163ffffffff1660e01b8152600401600060405180830381600087803b15801561099857600080fd5b505af11580156109ac573d6000803e3d6000fd5b50505050565b60068054604080516020601f6002600019610100600188161502019095169490940493840181900481028201810190925282815260609390929091830182828015610a3e5780601f10610a1357610100808354040283529160200191610a3e565b820191906000526020600020905b815481529060010190602001808311610a2157829003601f168201915b5050505050905090565b6000610a5c610a5561154a565b848461154e565b50600192915050565b60035490565b6000610a7884848461163a565b949350505050565b610a886111a5565b610ad9576040805162461bcd60e51b815260206004820181905260248201527f4f776e61626c653a2063616c6c6572206973206e6f7420746865206f776e6572604482015290519081900360640190fd5b60088054911515600160a81b027fffffffffffffffffffff00ffffffffffffffffffffffffffffffffffffffffff909216919091179055565b60085460ff1690565b610b236111a5565b610b74576040805162461bcd60e51b815260206004820181905260248201527f4f776e61626c653a2063616c6c6572206973206e6f7420746865206f776e6572604482015290519081900360640190fd5b806001600160a01b031663715018a66040518163ffffffff1660e01b8152600401600060405180830381600087803b158015610baf57600080fd5b505af1158015610bc3573d6000803e3d6000fd5b5050505050565b6000610a5c610bd761154a565b84610c1e8560026000610be861154a565b6001600160a01b03908116825260208083019390935260409182016000908120918c16815292529020549063ffffffff6116b816565b61154e565b6000610c35610c3061154a565b61130f565b610c705760405162461bcd60e51b8152600401808060200182810382526030815260200180612a5f6030913960400191505060405180910390fd5b610a5c8383611719565b610c826111a5565b610cd3576040805162461bcd60e51b815260206004820181905260248201527f4f776e61626c653a2063616c6c6572206973206e6f7420746865206f776e6572604482015290519081900360640190fd5b806001600160a01b0316636ef8d66d6040518163ffffffff1660e01b8152600401600060405180830381600087803b158015610baf57600080fd5b600a546000906001600160a01b03163314610d5a5760405162461bcd60e51b8152600401808060200182810382526026815260200180612bb06026913960400191505060405180910390fd5b610d658687866117eb565b506000610d718561181d565b9050600080610db586868080601f01602080910402602001604051908101604052809392919081815260200183838082843760009201919091525061182692505050565b91509150610dc489838561154e565b6060610dcf82611848565b9050610ddd8a848684611872565b5060019998505050505050505050565b610dfe610df861154a565b82611b3a565b50565b6000805460ff16610e59576040805162461bcd60e51b815260206004820152601f60248201527f5265656e7472616e637947756172643a207265656e7472616e742063616c6c00604482015290519081900360640190fd5b6000805460ff19169055610e6e3384846117eb565b90506000805460ff1916600117905592915050565b610e8b6111a5565b610edc576040805162461bcd60e51b815260206004820181905260248201527f4f776e61626c653a2063616c6c6572206973206e6f7420746865206f776e6572604482015290519081900360640190fd5b806001600160a01b031663986502756040518163ffffffff1660e01b8152600401600060405180830381600087803b158015610baf57600080fd5b600854600160a81b900460ff1681565b610f2f6111a5565b610f80576040805162461bcd60e51b815260206004820181905260248201527f4f776e61626c653a2063616c6c6572206973206e6f7420746865206f776e6572604482015290519081900360640190fd5b816001600160a01b031663f2fde38b826040518263ffffffff1660e01b815260040180826001600160a01b03166001600160a01b03168152602001915050600060405180830381600087803b158015610fd857600080fd5b505af1158015610fec573d6000803e3d6000fd5b505050505050565b60085461010090046001600160a01b031681565b6001600160a01b031660009081526001602052604090205490565b61102b6111a5565b61107c576040805162461bcd60e51b815260206004820181905260248201527f4f776e61626c653a2063616c6c6572206973206e6f7420746865206f776e6572604482015290519081900360640190fd5b6005546040516000916001600160a01b0316907f8be0079c531659141344cd1fd0a4f28419497f9722a3daafe3b4186f6b6457e0908390a36005805473ffffffffffffffffffffffffffffffffffffffff19169055565b6110db6111a5565b61112c576040805162461bcd60e51b815260206004820181905260248201527f4f776e61626c653a2063616c6c6572206973206e6f7420746865206f776e6572604482015290519081900360640190fd5b600880546001600160a01b03909216610100027fffffffffffffffffffffff0000000000000000000000000000000000000000ff909216919091179055565b6111743361130f565b15611188576111838282611b3a565b611192565b6111928282611bd5565b5050565b6005546001600160a01b031690565b6005546000906001600160a01b03166111bc61154a565b6001600160a01b031614905090565b60078054604080516020601f6002600019610100600188161502019095169490940493840181900481028201810190925282815260609390929091830182828015610a3e5780601f10610a1357610100808354040283529160200191610a3e565b611237610c3061154a565b6112725760405162461bcd60e51b8152600401808060200182810382526030815260200180612a5f6030913960400191505060405180910390fd5b610dfe81611bdf565b61128b61128661154a565b611c27565b565b6000610a5c61129a61154a565b84610c1e85604051806060016040528060258152602001612c0060259139600260006112c461154a565b6001600160a01b03908116825260208083019390935260409182016000908120918d1681529252902054919063ffffffff611c6f16565b6000610a5c61130861154a565b8484611cc9565b600061132260048363ffffffff611d9f16565b92915050565b60006113348484610a48565b61133d57600080fd5b61134933858585611872565b5060019392505050565b600a546001600160a01b031681565b6001600160a01b03918216600090815260026020908152604080832093909416825291909152205490565b6000805460ff166113e5576040805162461bcd60e51b815260206004820152601f60248201527f5265656e7472616e637947756172643a207265656e7472616e742063616c6c00604482015290519081900360640190fd5b6000805460ff191690556113fa3380846117eb565b90506000805460ff19166001179055919050565b6000805460ff16611466576040805162461bcd60e51b815260206004820152601f60248201527f5265656e7472616e637947756172643a207265656e7472616e742063616c6c00604482015290519081900360640190fd5b6000805460ff19169055610e6e833384611e06565b6114836111a5565b6114d4576040805162461bcd60e51b815260206004820181905260248201527f4f776e61626c653a2063616c6c6572206973206e6f7420746865206f776e6572604482015290519081900360640190fd5b610dfe81611f84565b6000805460ff16611535576040805162461bcd60e51b815260206004820152601f60248201527f5265656e7472616e637947756172643a207265656e7472616e742063616c6c00604482015290519081900360640190fd5b6000805460ff191690556113fa338084611e06565b3390565b6001600160a01b0383166115935760405162461bcd60e51b8152600401808060200182810382526024815260200180612b646024913960400191505060405180910390fd5b6001600160a01b0382166115d85760405162461bcd60e51b81526004018080602001828103825260228152602001806129e66022913960400191505060405180910390fd5b6001600160a01b03808416600081815260026020908152604080832094871680845294825291829020859055815185815291517f8c5be1e5ebec7d5bd14f71427d1e84f3dd0314c0f7b2291e5b200ac8c7c3b9259281900390910190a3505050565b6000611647848484611cc9565b6113498461165361154a565b610c1e85604051806060016040528060288152602001612ab0602891396001600160a01b038a1660009081526002602052604081209061169161154a565b6001600160a01b03168152602081019190915260400160002054919063ffffffff611c6f16565b600082820183811015611712576040805162461bcd60e51b815260206004820152601b60248201527f536166654d6174683a206164646974696f6e206f766572666c6f770000000000604482015290519081900360640190fd5b9392505050565b6117238282612032565b600854600160a81b900460ff16801561174b575060085461010090046001600160a01b031615155b156111925760085460408051634a39314960e01b81526000600482018190526001600160a01b03868116602484015260448301869052925161010090940490921692634a39314992606480840193602093929083900390910190829087803b1580156117b657600080fd5b505af11580156117ca573d6000803e3d6000fd5b505050506040513d60208110156117e057600080fd5b505161119257600080fd5b60006117ff836117fa8461181d565b611719565b600a54611349906001600160a01b031685308563ffffffff61212416565b633b9aca000290565b600080825160401461183757600080fd5b505060208101516040909101519091565b60408051602080825281830190925260609160208201818038833950505060208101929092525090565b7f4273ca160000000000000000000000000000000000000000000000000000000061189d8482612197565b6118d85760405162461bcd60e51b8152600401808060200182810382526031815260200180612a086031913960400191505060405180910390fd5b60006060856001600160a01b0316838888888860405160240180856001600160a01b03166001600160a01b03168152602001846001600160a01b03166001600160a01b0316815260200183815260200180602001828103825283818151815260200191508051906020019080838360005b83811015611961578181015183820152602001611949565b50505050905090810190601f16801561198e5780820380516001836020036101000a031916815260200191505b5060408051601f198184030181529181526020820180516001600160e01b03166001600160e01b0319909a16999099178952518151919890975087965094509250829150849050835b602083106119f65780518252601f1990920191602091820191016119d7565b6001836020036101000a0380198251168184511680821785525050505050509050019150506000604051808303816000865af19150503d8060008114611a58576040519150601f19603f3d011682016040523d82523d6000602084013e611a5d565b606091505b5091509150818190611aed5760405162461bcd60e51b81526004018080602001828103825283818151815260200191508051906020019080838360005b83811015611ab2578181015183820152602001611a9a565b50505050905090810190601f168015611adf5780820380516001836020036101000a031916815260200191505b509250505060405180910390fd5b506020810151915081611b315760405162461bcd60e51b8152600401808060200182810382526028815260200180612b886028913960400191505060405180910390fd5b50505050505050565b611b4482826121b3565b600854600160a81b900460ff168015611b6c575060085461010090046001600160a01b031615155b156111925760085460408051634a39314960e01b81526001600160a01b0385811660048301526000602483018190526044830186905292516101009094041692634a39314992606480840193602093929083900390910190829087803b1580156117b657600080fd5b61119282826122af565b611bf060048263ffffffff61230316565b6040516001600160a01b038216907f6ae172837ea30b801fbfcdd4108aa1d5bf8ff775444fd70256b44e6bf3dfc3f690600090a250565b611c3860048263ffffffff61238416565b6040516001600160a01b038216907fe94479a9f7e1952cc78f2d6baab678adc1b772d936c6583def489e524cb6669290600090a250565b60008184841115611cc15760405162461bcd60e51b8152602060048201818152835160248401528351909283926044909101919085019080838360008315611ab2578181015183820152602001611a9a565b505050900390565b611cd48383836123eb565b600854600160a81b900460ff168015611cfc575060085461010090046001600160a01b031615155b15611d9a5760085460408051634a39314960e01b81526001600160a01b038681166004830152858116602483015260448201859052915161010090930490911691634a393149916064808201926020929091908290030181600087803b158015611d6557600080fd5b505af1158015611d79573d6000803e3d6000fd5b505050506040513d6020811015611d8f57600080fd5b5051611d9a57600080fd5b505050565b60006001600160a01b038216611de65760405162461bcd60e51b8152600401808060200182810382526022815260200180612ad86022913960400191505060405180910390fd5b506001600160a01b03166000908152602091909152604090205460ff1690565b6000611e128383611b3a565b6000611e1d83612549565b600a54604080517f70a0823100000000000000000000000000000000000000000000000000000000815230600482015290519293506000926001600160a01b03909216916370a0823191602480820192602092909190829003018186803b158015611e8757600080fd5b505afa158015611e9b573d6000803e3d6000fd5b505050506040513d6020811015611eb157600080fd5b5051905081811015611f5b57600a546001600160a01b03166340c10f1930611edf858563ffffffff61255316565b6040518363ffffffff1660e01b815260040180836001600160a01b03166001600160a01b0316815260200182815260200192505050602060405180830381600087803b158015611f2e57600080fd5b505af1158015611f42573d6000803e3d6000fd5b505050506040513d6020811015611f5857600080fd5b50505b600a54611f78906001600160a01b0316878463ffffffff61259516565b50600195945050505050565b6001600160a01b038116611fc95760405162461bcd60e51b81526004018080602001828103825260268152602001806129c06026913960400191505060405180910390fd5b6005546040516001600160a01b038084169216907f8be0079c531659141344cd1fd0a4f28419497f9722a3daafe3b4186f6b6457e090600090a36005805473ffffffffffffffffffffffffffffffffffffffff19166001600160a01b0392909216919091179055565b6001600160a01b03821661208d576040805162461bcd60e51b815260206004820152601f60248201527f45524332303a206d696e7420746f20746865207a65726f206164647265737300604482015290519081900360640190fd5b6003546120a0908263ffffffff6116b816565b6003556001600160a01b0382166000908152600160205260409020546120cc908263ffffffff6116b816565b6001600160a01b03831660008181526001602090815260408083209490945583518581529351929391927fddf252ad1be2c89b69c2b068fc378daa952ba7f163c4a11628f55a4df523b3ef9281900390910190a35050565b604080516001600160a01b0385811660248301528416604482015260648082018490528251808303909101815260849091019091526020810180516001600160e01b03167f23b872dd000000000000000000000000000000000000000000000000000000001790526109ac9085906125fc565b60006121a2836127b4565b8015611712575061171283836127e7565b6001600160a01b0382166121f85760405162461bcd60e51b8152600401808060200182810382526021815260200180612b1e6021913960400191505060405180910390fd5b61223b8160405180606001604052806022815260200161299e602291396001600160a01b038516600090815260016020526040902054919063ffffffff611c6f16565b6001600160a01b038316600090815260016020526040902055600354612267908263ffffffff61255316565b6003556040805182815290516000916001600160a01b038516917fddf252ad1be2c89b69c2b068fc378daa952ba7f163c4a11628f55a4df523b3ef9181900360200190a35050565b6122b98282611b3a565b611192826122c561154a565b610c1e84604051806060016040528060248152602001612afa602491396001600160a01b03881660009081526002602052604081209061169161154a565b61230d8282611d9f565b1561235f576040805162461bcd60e51b815260206004820152601f60248201527f526f6c65733a206163636f756e7420616c72656164792068617320726f6c6500604482015290519081900360640190fd5b6001600160a01b0316600090815260209190915260409020805460ff19166001179055565b61238e8282611d9f565b6123c95760405162461bcd60e51b8152600401808060200182810382526021815260200180612a8f6021913960400191505060405180910390fd5b6001600160a01b0316600090815260209190915260409020805460ff19169055565b6001600160a01b0383166124305760405162461bcd60e51b8152600401808060200182810382526025815260200180612b3f6025913960400191505060405180910390fd5b6001600160a01b0382166124755760405162461bcd60e51b815260040180806020018281038252602381526020018061297b6023913960400191505060405180910390fd5b6124b881604051806060016040528060268152602001612a39602691396001600160a01b038616600090815260016020526040902054919063ffffffff611c6f16565b6001600160a01b0380851660009081526001602052604080822093909355908416815220546124ed908263ffffffff6116b816565b6001600160a01b0380841660008181526001602090815260409182902094909455805185815290519193928716927fddf252ad1be2c89b69c2b068fc378daa952ba7f163c4a11628f55a4df523b3ef92918290030190a3505050565b633b9aca00900490565b600061171283836040518060400160405280601e81526020017f536166654d6174683a207375627472616374696f6e206f766572666c6f770000815250611c6f565b604080516001600160a01b038416602482015260448082018490528251808303909101815260649091019091526020810180516001600160e01b03167fa9059cbb00000000000000000000000000000000000000000000000000000000179052611d9a9084905b61260e826001600160a01b031661280d565b61265f576040805162461bcd60e51b815260206004820152601f60248201527f5361666545524332303a2063616c6c20746f206e6f6e2d636f6e747261637400604482015290519081900360640190fd5b60006060836001600160a01b0316836040518082805190602001908083835b6020831061269d5780518252601f19909201916020918201910161267e565b6001836020036101000a0380198251168184511680821785525050505050509050019150506000604051808303816000865af19150503d80600081146126ff576040519150601f19603f3d011682016040523d82523d6000602084013e612704565b606091505b50915091508161275b576040805162461bcd60e51b815260206004820181905260248201527f5361666545524332303a206c6f772d6c6576656c2063616c6c206661696c6564604482015290519081900360640190fd5b8051156109ac5780806020019051602081101561277757600080fd5b50516109ac5760405162461bcd60e51b815260040180806020018281038252602a815260200180612bd6602a913960400191505060405180910390fd5b60006127c7826301ffc9a760e01b6127e7565b801561132257506127e0826001600160e01b03196127e7565b1592915050565b60008060006127f68585612846565b915091508180156128045750805b95945050505050565b6000813f7fc5d2460186f7233c927e7db2dcc703c0e500b653ca82273b7bfad8045d85a470818114801590610a78575050151592915050565b604080516001600160e01b0319831660248083019190915282518083039091018152604490910182526020810180516001600160e01b03166301ffc9a760e01b1781529151815160009384939284926060926001600160a01b038a169261753092879282918083835b602083106128ce5780518252601f1990920191602091820191016128af565b6001836020036101000a0380198251168184511680821785525050505050509050019150506000604051808303818686fa925050503d806000811461292f576040519150601f19603f3d011682016040523d82523d6000602084013e612934565b606091505b50915091506020815110156129525760008094509450505050612973565b8181806020019051602081101561296857600080fd5b505190955093505050505b925092905056fe45524332303a207472616e7366657220746f20746865207a65726f206164647265737345524332303a206275726e20616d6f756e7420657863656564732062616c616e63654f776e61626c653a206e6577206f776e657220697320746865207a65726f206164647265737345524332303a20617070726f766520746f20746865207a65726f206164647265737345524332304f6e417070726f76653a207370656e64657220646f65736e277420737570706f7274206f6e417070726f766545524332303a207472616e7366657220616d6f756e7420657863656564732062616c616e63654d696e746572526f6c653a2063616c6c657220646f6573206e6f74206861766520746865204d696e74657220726f6c65526f6c65733a206163636f756e7420646f6573206e6f74206861766520726f6c6545524332303a207472616e7366657220616d6f756e74206578636565647320616c6c6f77616e6365526f6c65733a206163636f756e7420697320746865207a65726f206164647265737345524332303a206275726e20616d6f756e74206578636565647320616c6c6f77616e636545524332303a206275726e2066726f6d20746865207a65726f206164647265737345524332303a207472616e736665722066726f6d20746865207a65726f206164647265737345524332303a20617070726f76652066726f6d20746865207a65726f206164647265737345524332304f6e417070726f76653a206661696c656420746f2063616c6c206f6e417070726f766557544f4e3a206f6e6c792061636365707420544f4e20617070726f76652063616c6c6261636b5361666545524332303a204552433230206f7065726174696f6e20646964206e6f74207375636365656445524332303a2064656372656173656420616c6c6f77616e63652062656c6f77207a65726fa265627a7a7231582033d4ced792dca2789c81af5c5107b3d02451c0e0fb929a14b0993217bf26113c64736f6c634300050c0032526f6c65733a206163636f756e7420697320746865207a65726f2061646472657373",
  "linkReferences": {},
  "deployedLinkReferences": {}
}