{
  "_format": "hh-sol-artifact-1",
  "contractName": "StakeDefiFactory",
  "sourceName": "contracts/factory/StakeDefiFactory.sol",
  "abi": [
    {
      "inputs": [
        {
          "internalType": "address",
          "name": "_stakeDefiLogic",
          "type": "address"
        }
      ],
      "stateMutability": "nonpayable",
      "type": "constructor"
    },
    {
      "inputs": [],
      "name": "ADMIN_ROLE",
      "outputs": [
        {
          "internalType": "bytes32",
          "name": "",
          "type": "bytes32"
        }
      ],
      "stateMutability": "view",
      "type": "function"
    },
    {
      "inputs": [],
      "name": "BURNER_ROLE",
      "outputs": [
        {
          "internalType": "bytes32",
          "name": "",
          "type": "bytes32"
        }
      ],
      "stateMutability": "view",
      "type": "function"
    },
    {
      "inputs": [],
      "name": "MINTER_ROLE",
      "outputs": [
        {
          "internalType": "bytes32",
          "name": "",
          "type": "bytes32"
        }
      ],
      "stateMutability": "view",
      "type": "function"
    },
    {
      "inputs": [
        {
          "internalType": "address[4]",
          "name": "_addr",
          "type": "address[4]"
        },
        {
          "internalType": "address",
          "name": "_registry",
          "type": "address"
        },
        {
          "internalType": "uint256[3]",
          "name": "_intdata",
          "type": "uint256[3]"
        },
        {
          "internalType": "address",
          "name": "owner",
          "type": "address"
        }
      ],
      "name": "create",
      "outputs": [
        {
          "internalType": "address",
          "name": "",
          "type": "address"
        }
      ],
      "stateMutability": "nonpayable",
      "type": "function"
    },
    {
      "inputs": [],
      "name": "stakeDefiLogic",
      "outputs": [
        {
          "internalType": "address",
          "name": "",
          "type": "address"
        }
      ],
      "stateMutability": "view",
      "type": "function"
    }
  ],
  "bytecode": "0x608060405234801561001057600080fd5b50604051612fda380380612fda8339818101604052602081101561003357600080fd5b8101908080519060200190929190505050600073ffffffffffffffffffffffffffffffffffffffff168173ffffffffffffffffffffffffffffffffffffffff1614156100e7576040517f08c379a000000000000000000000000000000000000000000000000000000000815260040180806020018281038252601c8152602001807f5374616b6544656669466163746f72793a206c6f676963207a65726f0000000081525060200191505060405180910390fd5b806000806101000a81548173ffffffffffffffffffffffffffffffffffffffff021916908373ffffffffffffffffffffffffffffffffffffffff16021790555050612ea3806101376000396000f3fe608060405234801561001057600080fd5b50600436106100575760003560e01c8063282c51f31461005c57806375b238fc1461007a578063b9eb37e414610098578063ba3d3045146100cc578063d53913931461016f575b600080fd5b61006461018d565b6040518082815260200191505060405180910390f35b6100826101b1565b6040518082815260200191505060405180910390f35b6100a06101d5565b604051808273ffffffffffffffffffffffffffffffffffffffff16815260200191505060405180910390f35b61014360048036036101208110156100e357600080fd5b8101908080608001909192919290803573ffffffffffffffffffffffffffffffffffffffff16906020019092919080606001909192919290803573ffffffffffffffffffffffffffffffffffffffff1690602001909291905050506101f9565b604051808273ffffffffffffffffffffffffffffffffffffffff16815260200191505060405180910390f35b610177610530565b6040518082815260200191505060405180910390f35b7f9667e80708b6eeeb0053fa0cca44e028ff548e2a9f029edfeac87c118b08b7c881565b7fdf8b4c520ffe197c5343c6f5aec59570151ef9a492f2c624fd45ddde6135ec4281565b60008054906101000a900473ffffffffffffffffffffffffffffffffffffffff1681565b60008060008054906101000a900473ffffffffffffffffffffffffffffffffffffffff1660405161022990610554565b808273ffffffffffffffffffffffffffffffffffffffff168152602001915050604051809103906000f080158015610265573d6000803e3d6000fd5b509050600073ffffffffffffffffffffffffffffffffffffffff168173ffffffffffffffffffffffffffffffffffffffff16141561030b576040517f08c379a000000000000000000000000000000000000000000000000000000000815260040180806020018281038252601c8152602001807f5374616b6544656669466163746f72793a2070726f7879207a65726f0000000081525060200191505060405180910390fd5b8073ffffffffffffffffffffffffffffffffffffffff1663e7bf950c8787876040518463ffffffff1660e01b81526004018084600460200280828437600081840152601f19601f8201169050808301925050508373ffffffffffffffffffffffffffffffffffffffff16815260200182600360200280828437600081840152601f19601f8201169050808301925050509350505050600060405180830381600087803b1580156103ba57600080fd5b505af11580156103ce573d6000803e3d6000fd5b505050508073ffffffffffffffffffffffffffffffffffffffff16632f2ff15d7fdf8b4c520ffe197c5343c6f5aec59570151ef9a492f2c624fd45ddde6135ec42856040518363ffffffff1660e01b8152600401808381526020018273ffffffffffffffffffffffffffffffffffffffff16815260200192505050600060405180830381600087803b15801561046357600080fd5b505af1158015610477573d6000803e3d6000fd5b505050508073ffffffffffffffffffffffffffffffffffffffff1663d547741f7fdf8b4c520ffe197c5343c6f5aec59570151ef9a492f2c624fd45ddde6135ec42306040518363ffffffff1660e01b8152600401808381526020018273ffffffffffffffffffffffffffffffffffffffff16815260200192505050600060405180830381600087803b15801561050c57600080fd5b505af1158015610520573d6000803e3d6000fd5b5050505080915050949350505050565b7ff0887ba65ee2024ea881d91b74c2450ef19e1557f03bed3ea9f16b037cbe2dc981565b61290c806105628339019056fe60806040523480156200001157600080fd5b506040516200290c3803806200290c833981810160405260208110156200003757600080fd5b810190808051906020019092919050505060017f360894a13ba1a3210667c828492db98dca3e2076cc3735a920a3ca505d382bbd60001c0360001b7f360894a13ba1a3210667c828492db98dca3e2076cc3735a920a3ca505d382bbc60001b146200009e57fe5b600073ffffffffffffffffffffffffffffffffffffffff168173ffffffffffffffffffffffffffffffffffffffff16141562000142576040517f08c379a000000000000000000000000000000000000000000000000000000000815260040180806020018281038252601d8152602001807f5374616b654465666950726f78793a206c6f676963206973207a65726f00000081525060200191505060405180910390fd5b6200015381620001f060201b60201c565b620001857fdf8b4c520ffe197c5343c6f5aec59570151ef9a492f2c624fd45ddde6135ec42806200028c60201b60201c565b620001b77fdf8b4c520ffe197c5343c6f5aec59570151ef9a492f2c624fd45ddde6135ec4233620002f060201b60201c565b620001e97fdf8b4c520ffe197c5343c6f5aec59570151ef9a492f2c624fd45ddde6135ec4230620002f060201b60201c565b506200049a565b62000206816200030660201b62001d8c1760201c565b6200025d576040517f08c379a0000000000000000000000000000000000000000000000000000000008152600401808060200182810382526046815260200180620028c66046913960600191505060405180910390fd5b60007f360894a13ba1a3210667c828492db98dca3e2076cc3735a920a3ca505d382bbc60001b90508181555050565b80600d600084815260200190815260200160002060020154837fbd79b86ffe0ab8e8776151514217cd7cacd52c909f66475c3af44e129f0b00ff60405160405180910390a480600d6000848152602001908152602001600020600201819055505050565b6200030282826200031960201b60201c565b5050565b600080823b905060008111915050919050565b6200034881600d6000858152602001908152602001600020600001620003bd60201b62001d9f1790919060201c565b15620003b9576200035e620003f560201b60201c565b73ffffffffffffffffffffffffffffffffffffffff168173ffffffffffffffffffffffffffffffffffffffff16837f2f8788117e7eff1d82e926ec794901d17c78024a50270940304540a733656f0d60405160405180910390a45b5050565b6000620003ed836000018373ffffffffffffffffffffffffffffffffffffffff1660001b620003fd60201b60201c565b905092915050565b600033905090565b60006200041183836200047760201b60201c565b6200046c57826000018290806001815401808255809150506001900390600052602060002001600090919091909150558260000180549050836001016000848152602001908152602001600020819055506001905062000471565b600090505b92915050565b600080836001016000848152602001908152602001600020541415905092915050565b61241c80620004aa6000396000f3fe6080604052600436106101c85760003560e01c806375b238fc116100f8578063acc3a93911610090578063acc3a93914610906578063b2d4d6a314610997578063ca15c873146109c2578063d539139314610a11578063d547741f14610a3c578063dac3fc3f14610a97578063e7bf950c14610b28578063fbfa77cf14610bfc578063fc0c546a14610c3d576101d7565b806375b238fc146106585780637cb00d251461068357806386989038146106c05780639010d07c146106eb57806391d148541461075a5780639a88be2f146107cb5780639d84ca351461086d578063a1f5f50e146108ae578063a217fddf146108db576101d7565b80633659cfe61161016b5780633659cfe61461041f57806343b0934a1461047057806348cd4cb1146104b1578063567e98f9146104dc5780635c60da1b1461050757806363a8fd8914610548578063683048351461057557806370480275146105b657806375829def14610607576101d7565b8063083c6323146101e15780631785f53c1461020c578063200272751461025d578063248a9ca31461028857806324d7806c146102d7578063282c51f31461033e5780632f2ff15d1461036957806336568abe146103c4576101d7565b366101d7576101d5610c7e565b005b6101df610c7e565b005b3480156101ed57600080fd5b506101f6610d4f565b6040518082815260200191505060405180910390f35b34801561021857600080fd5b5061025b6004803603602081101561022f57600080fd5b81019080803573ffffffffffffffffffffffffffffffffffffffff169060200190929190505050610d55565b005b34801561026957600080fd5b50610272610de0565b6040518082815260200191505060405180910390f35b34801561029457600080fd5b506102c1600480360360208110156102ab57600080fd5b8101908080359060200190929190505050610de6565b6040518082815260200191505060405180910390f35b3480156102e357600080fd5b50610326600480360360208110156102fa57600080fd5b81019080803573ffffffffffffffffffffffffffffffffffffffff169060200190929190505050610e06565b60405180821515815260200191505060405180910390f35b34801561034a57600080fd5b50610353610e39565b6040518082815260200191505060405180910390f35b34801561037557600080fd5b506103c26004803603604081101561038c57600080fd5b8101908080359060200190929190803573ffffffffffffffffffffffffffffffffffffffff169060200190929190505050610e5d565b005b3480156103d057600080fd5b5061041d600480360360408110156103e757600080fd5b8101908080359060200190929190803573ffffffffffffffffffffffffffffffffffffffff169060200190929190505050610ee7565b005b34801561042b57600080fd5b5061046e6004803603602081101561044257600080fd5b81019080803573ffffffffffffffffffffffffffffffffffffffff169060200190929190505050610f80565b005b34801561047c57600080fd5b50610485611179565b604051808273ffffffffffffffffffffffffffffffffffffffff16815260200191505060405180910390f35b3480156104bd57600080fd5b506104c661119f565b6040518082815260200191505060405180910390f35b3480156104e857600080fd5b506104f16111a5565b6040518082815260200191505060405180910390f35b34801561051357600080fd5b5061051c6111ab565b604051808273ffffffffffffffffffffffffffffffffffffffff16815260200191505060405180910390f35b34801561055457600080fd5b5061055d6111ba565b60405180821515815260200191505060405180910390f35b34801561058157600080fd5b5061058a6111cd565b604051808273ffffffffffffffffffffffffffffffffffffffff16815260200191505060405180910390f35b3480156105c257600080fd5b50610605600480360360208110156105d957600080fd5b81019080803573ffffffffffffffffffffffffffffffffffffffff1690602001909291905050506111f3565b005b34801561061357600080fd5b506106566004803603602081101561062a57600080fd5b81019080803573ffffffffffffffffffffffffffffffffffffffff16906020019092919050505061127e565b005b34801561066457600080fd5b5061066d611478565b6040518082815260200191505060405180910390f35b34801561068f57600080fd5b506106be600480360360208110156106a657600080fd5b8101908080351515906020019092919050505061149c565b005b3480156106cc57600080fd5b506106d5611517565b6040518082815260200191505060405180910390f35b3480156106f757600080fd5b5061072e6004803603604081101561070e57600080fd5b81019080803590602001909291908035906020019092919050505061151d565b604051808273ffffffffffffffffffffffffffffffffffffffff16815260200191505060405180910390f35b34801561076657600080fd5b506107b36004803603604081101561077d57600080fd5b8101908080359060200190929190803573ffffffffffffffffffffffffffffffffffffffff16906020019092919050505061154f565b60405180821515815260200191505060405180910390f35b3480156107d757600080fd5b506107e0611581565b604051808773ffffffffffffffffffffffffffffffffffffffff1681526020018673ffffffffffffffffffffffffffffffffffffffff16815260200185600360200280838360005b83811015610843578082015181840152602081019050610828565b50505050905001848152602001838152602001828152602001965050505050505060405180910390f35b34801561087957600080fd5b50610882611615565b604051808273ffffffffffffffffffffffffffffffffffffffff16815260200191505060405180910390f35b3480156108ba57600080fd5b506108c361163b565b60405180821515815260200191505060405180910390f35b3480156108e757600080fd5b506108f061164e565b6040518082815260200191505060405180910390f35b34801561091257600080fd5b506109556004803603602081101561092957600080fd5b81019080803573ffffffffffffffffffffffffffffffffffffffff169060200190929190505050611655565b60405180888152602001878152602001868152602001858152602001848152602001838152602001821515815260200197505050505050505060405180910390f35b3480156109a357600080fd5b506109ac6116a4565b6040518082815260200191505060405180910390f35b3480156109ce57600080fd5b506109fb600480360360208110156109e557600080fd5b81019080803590602001909291905050506116aa565b6040518082815260200191505060405180910390f35b348015610a1d57600080fd5b50610a266116d1565b6040518082815260200191505060405180910390f35b348015610a4857600080fd5b50610a9560048036036040811015610a5f57600080fd5b8101908080359060200190929190803573ffffffffffffffffffffffffffffffffffffffff1690602001909291905050506116f5565b005b348015610aa357600080fd5b50610ae660048036036020811015610aba57600080fd5b81019080803573ffffffffffffffffffffffffffffffffffffffff16906020019092919050505061177f565b60405180888152602001878152602001868152602001858152602001848152602001838152602001821515815260200197505050505050505060405180910390f35b348015610b3457600080fd5b50610bfa6004803603610100811015610b4c57600080fd5b8101908080608001906004806020026040519081016040528092919082600460200280828437600081840152601f19601f8201169050808301925050505050509192919290803573ffffffffffffffffffffffffffffffffffffffff16906020019092919080606001906003806020026040519081016040528092919082600360200280828437600081840152601f19601f8201169050808301925050505050509192919290505050611985565b005b348015610c0857600080fd5b50610c11611d42565b604051808273ffffffffffffffffffffffffffffffffffffffff16815260200191505060405180910390f35b348015610c4957600080fd5b50610c52611d68565b604051808273ffffffffffffffffffffffffffffffffffffffff16815260200191505060405180910390f35b6000610c88611dcf565b9050600073ffffffffffffffffffffffffffffffffffffffff168173ffffffffffffffffffffffffffffffffffffffff1614158015610cd45750600c60009054906101000a900460ff16155b610d29576040517f08c379a000000000000000000000000000000000000000000000000000000000815260040180806020018281038252602e815260200180612344602e913960400191505060405180910390fd5b3660008037600080366000845af43d6000803e8060008114610d4a573d6000f35b3d6000fd5b60065481565b610d5e33610e06565b610db3576040517f08c379a00000000000000000000000000000000000000000000000000000000081526004018080602001828103825260228152602001806122cf6022913960400191505060405180910390fd5b610ddd7fdf8b4c520ffe197c5343c6f5aec59570151ef9a492f2c624fd45ddde6135ec4282610ee7565b50565b60045481565b6000600d6000838152602001908152602001600020600201549050919050565b6000610e327fdf8b4c520ffe197c5343c6f5aec59570151ef9a492f2c624fd45ddde6135ec428361154f565b9050919050565b7f9667e80708b6eeeb0053fa0cca44e028ff548e2a9f029edfeac87c118b08b7c881565b610e84600d600084815260200190815260200160002060020154610e7f611e00565b61154f565b610ed9576040517f08c379a000000000000000000000000000000000000000000000000000000000815260040180806020018281038252602f8152602001806122a0602f913960400191505060405180910390fd5b610ee38282611e08565b5050565b610eef611e00565b73ffffffffffffffffffffffffffffffffffffffff168173ffffffffffffffffffffffffffffffffffffffff1614610f72576040517f08c379a000000000000000000000000000000000000000000000000000000000815260040180806020018281038252602f8152602001806123b8602f913960400191505060405180910390fd5b610f7c8282611e9c565b5050565b610f8933610e06565b610fde576040517f08c379a00000000000000000000000000000000000000000000000000000000081526004018080602001828103825260228152602001806122cf6022913960400191505060405180910390fd5b600073ffffffffffffffffffffffffffffffffffffffff168173ffffffffffffffffffffffffffffffffffffffff161415611081576040517f08c379a000000000000000000000000000000000000000000000000000000000815260040180806020018281038252601d8152602001807f5374616b654465666950726f78793a20696e707574206973207a65726f00000081525060200191505060405180910390fd5b8073ffffffffffffffffffffffffffffffffffffffff166110a0611dcf565b73ffffffffffffffffffffffffffffffffffffffff16141561112a576040517f08c379a00000000000000000000000000000000000000000000000000000000081526004018080602001828103825260048152602001807f73616d650000000000000000000000000000000000000000000000000000000081525060200191505060405180910390fd5b61113381611f30565b8073ffffffffffffffffffffffffffffffffffffffff167fbc7cd75a20ee27fd9adebab32041f755214dbc6bffa90cc0225b39da2e5c2d3b60405160405180910390a250565b600260009054906101000a900473ffffffffffffffffffffffffffffffffffffffff1681565b60055481565b60085481565b60006111b5611dcf565b905090565b600c60009054906101000a900460ff1681565b600160009054906101000a900473ffffffffffffffffffffffffffffffffffffffff1681565b6111fc33610e06565b611251576040517f08c379a00000000000000000000000000000000000000000000000000000000081526004018080602001828103825260228152602001806122cf6022913960400191505060405180910390fd5b61127b7fdf8b4c520ffe197c5343c6f5aec59570151ef9a492f2c624fd45ddde6135ec4282610e5d565b50565b61128733610e06565b6112dc576040517f08c379a00000000000000000000000000000000000000000000000000000000081526004018080602001828103825260228152602001806122cf6022913960400191505060405180910390fd5b600073ffffffffffffffffffffffffffffffffffffffff168173ffffffffffffffffffffffffffffffffffffffff16141561137f576040517f08c379a00000000000000000000000000000000000000000000000000000000081526004018080602001828103825260188152602001807f41636365737369626c653a207a65726f2061646472657373000000000000000081525060200191505060405180910390fd5b8073ffffffffffffffffffffffffffffffffffffffff163373ffffffffffffffffffffffffffffffffffffffff161415611421576040517f08c379a00000000000000000000000000000000000000000000000000000000081526004018080602001828103825260168152602001807f41636365737369626c653a2073616d652061646d696e0000000000000000000081525060200191505060405180910390fd5b61144b7fdf8b4c520ffe197c5343c6f5aec59570151ef9a492f2c624fd45ddde6135ec4282610e5d565b6114757fdf8b4c520ffe197c5343c6f5aec59570151ef9a492f2c624fd45ddde6135ec4233610ee7565b50565b7fdf8b4c520ffe197c5343c6f5aec59570151ef9a492f2c624fd45ddde6135ec4281565b6114a533610e06565b6114fa576040517f08c379a00000000000000000000000000000000000000000000000000000000081526004018080602001828103825260228152602001806122cf6022913960400191505060405180910390fd5b80600c60006101000a81548160ff02191690831515021790555050565b600a5481565b600061154782600d6000868152602001908152602001600020600001611fbd90919063ffffffff16565b905092915050565b600061157982600d6000868152602001908152602001600020600001611fd790919063ffffffff16565b905092915050565b60008061158c61225b565b6000806000600260009054906101000a900473ffffffffffffffffffffffffffffffffffffffff16600360009054906101000a900473ffffffffffffffffffffffffffffffffffffffff16604051806060016040528060045481526020016005548152602001600654815250600754600854600a54955095509550955095509550909192939495565b600c60019054906101000a900473ffffffffffffffffffffffffffffffffffffffff1681565b600c60159054906101000a900460ff1681565b6000801b81565b60096020528060005260406000206000915090508060000154908060010154908060020154908060030154908060040154908060050154908060060160009054906101000a900460ff16905087565b60075481565b60006116ca600d6000848152602001908152602001600020600001612007565b9050919050565b7ff0887ba65ee2024ea881d91b74c2450ef19e1557f03bed3ea9f16b037cbe2dc981565b61171c600d600084815260200190815260200160002060020154611717611e00565b61154f565b611771576040517f08c379a00000000000000000000000000000000000000000000000000000000081526004018080602001828103825260308152602001806123146030913960400191505060405180910390fd5b61177b8282611e9c565b5050565b6000806000806000806000600960008973ffffffffffffffffffffffffffffffffffffffff1673ffffffffffffffffffffffffffffffffffffffff16815260200190815260200160002060000154600960008a73ffffffffffffffffffffffffffffffffffffffff1673ffffffffffffffffffffffffffffffffffffffff16815260200190815260200160002060010154600960008b73ffffffffffffffffffffffffffffffffffffffff1673ffffffffffffffffffffffffffffffffffffffff16815260200190815260200160002060020154600960008c73ffffffffffffffffffffffffffffffffffffffff1673ffffffffffffffffffffffffffffffffffffffff16815260200190815260200160002060030154600960008d73ffffffffffffffffffffffffffffffffffffffff1673ffffffffffffffffffffffffffffffffffffffff16815260200190815260200160002060040154600960008e73ffffffffffffffffffffffffffffffffffffffff1673ffffffffffffffffffffffffffffffffffffffff16815260200190815260200160002060050154600960008f73ffffffffffffffffffffffffffffffffffffffff1673ffffffffffffffffffffffffffffffffffffffff16815260200190815260200160002060060160009054906101000a900460ff169650965096509650965096509650919395979092949650565b61198e33610e06565b6119e3576040517f08c379a00000000000000000000000000000000000000000000000000000000081526004018080602001828103825260228152602001806122cf6022913960400191505060405180910390fd5b600073ffffffffffffffffffffffffffffffffffffffff1660008054906101000a900473ffffffffffffffffffffffffffffffffffffffff1673ffffffffffffffffffffffffffffffffffffffff1614611a88576040517f08c379a00000000000000000000000000000000000000000000000000000000081526004018080602001828103825260238152602001806122f16023913960400191505060405180910390fd5b600073ffffffffffffffffffffffffffffffffffffffff1683600260048110611aad57fe5b602002015173ffffffffffffffffffffffffffffffffffffffff1614158015611af7575080600160038110611ade57fe5b602002015181600060038110611af057fe5b6020020151105b611b69576040517f08c379a000000000000000000000000000000000000000000000000000000000815260040180806020018281038252601c8152602001807f5374616b654465666950726f78793a20736574496e6974206661696c0000000081525060200191505060405180910390fd5b82600060048110611b7657fe5b60200201516000806101000a81548173ffffffffffffffffffffffffffffffffffffffff021916908373ffffffffffffffffffffffffffffffffffffffff16021790555082600160048110611bc757fe5b6020020151600260006101000a81548173ffffffffffffffffffffffffffffffffffffffff021916908373ffffffffffffffffffffffffffffffffffffffff16021790555082600260048110611c1957fe5b6020020151600360006101000a81548173ffffffffffffffffffffffffffffffffffffffff021916908373ffffffffffffffffffffffffffffffffffffffff16021790555082600360048110611c6b57fe5b6020020151600c60016101000a81548173ffffffffffffffffffffffffffffffffffffffff021916908373ffffffffffffffffffffffffffffffffffffffff16021790555081600160006101000a81548173ffffffffffffffffffffffffffffffffffffffff021916908373ffffffffffffffffffffffffffffffffffffffff16021790555080600060038110611cfe57fe5b602002015160048190555080600160038110611d1657fe5b602002015160058190555080600260038110611d2e57fe5b602002015160055401600681905550505050565b600360009054906101000a900473ffffffffffffffffffffffffffffffffffffffff1681565b60008054906101000a900473ffffffffffffffffffffffffffffffffffffffff1681565b600080823b905060008111915050919050565b6000611dc7836000018373ffffffffffffffffffffffffffffffffffffffff1660001b61201c565b905092915050565b6000807f360894a13ba1a3210667c828492db98dca3e2076cc3735a920a3ca505d382bbc60001b9050805491505090565b600033905090565b611e3081600d6000858152602001908152602001600020600001611d9f90919063ffffffff16565b15611e9857611e3d611e00565b73ffffffffffffffffffffffffffffffffffffffff168173ffffffffffffffffffffffffffffffffffffffff16837f2f8788117e7eff1d82e926ec794901d17c78024a50270940304540a733656f0d60405160405180910390a45b5050565b611ec481600d600085815260200190815260200160002060000161208c90919063ffffffff16565b15611f2c57611ed1611e00565b73ffffffffffffffffffffffffffffffffffffffff168173ffffffffffffffffffffffffffffffffffffffff16837ff6391f5c32d9c69d2a47ea670b442974b53935d1edc7fd64eb21e047a839171b60405160405180910390a45b5050565b611f3981611d8c565b611f8e576040517f08c379a00000000000000000000000000000000000000000000000000000000081526004018080602001828103825260468152602001806123726046913960600191505060405180910390fd5b60007f360894a13ba1a3210667c828492db98dca3e2076cc3735a920a3ca505d382bbc60001b90508181555050565b6000611fcc83600001836120bc565b60001c905092915050565b6000611fff836000018373ffffffffffffffffffffffffffffffffffffffff1660001b61213f565b905092915050565b600061201582600001612162565b9050919050565b6000612028838361213f565b612081578260000182908060018154018082558091505060019003906000526020600020016000909190919091505582600001805490508360010160008481526020019081526020016000208190555060019050612086565b600090505b92915050565b60006120b4836000018373ffffffffffffffffffffffffffffffffffffffff1660001b612173565b905092915050565b60008183600001805490501161211d576040517f08c379a000000000000000000000000000000000000000000000000000000000815260040180806020018281038252602281526020018061227e6022913960400191505060405180910390fd5b82600001828154811061212c57fe5b9060005260206000200154905092915050565b600080836001016000848152602001908152602001600020541415905092915050565b600081600001805490509050919050565b6000808360010160008481526020019081526020016000205490506000811461224f57600060018203905060006001866000018054905003905060008660000182815481106121be57fe5b90600052602060002001549050808760000184815481106121db57fe5b906000526020600020018190555060018301876001016000838152602001908152602001600020819055508660000180548061221357fe5b60019003818190600052602060002001600090559055866001016000878152602001908152602001600020600090556001945050505050612255565b60009150505b92915050565b604051806060016040528060039060208202803683378082019150509050509056fe456e756d657261626c655365743a20696e646578206f7574206f6620626f756e6473416363657373436f6e74726f6c3a2073656e646572206d75737420626520616e2061646d696e20746f206772616e7441636365737369626c653a2043616c6c6572206973206e6f7420616e2061646d696e5374616b654465666950726f78793a20616c726561647920696e697469616c697a6564416363657373436f6e74726f6c3a2073656e646572206d75737420626520616e2061646d696e20746f207265766f6b655374616b654465666950726f78793a20696d706c206973207a65726f204f522070726f78792069732066616c736550726f7879426173653a2043616e6e6f742073657420612070726f787920696d706c656d656e746174696f6e20746f2061206e6f6e2d636f6e74726163742061646472657373416363657373436f6e74726f6c3a2063616e206f6e6c792072656e6f756e636520726f6c657320666f722073656c66a2646970667358221220c47a90d74151a9db0afc1db70f2791a3ee3e5d706a32d36cdf2b6ffb5dbe58f664736f6c6343000706003350726f7879426173653a2043616e6e6f742073657420612070726f787920696d706c656d656e746174696f6e20746f2061206e6f6e2d636f6e74726163742061646472657373a26469706673582212201e7401823e2c20ff8f70320bd2878698d221a54df2a515a35b4c9532fc0d681364736f6c63430007060033",
  "linkReferences": {},
  "deployedLinkReferences": {}
}