{
  "_format": "hh-sol-artifact-1",
  "contractName": "StakeTONStorage",
  "sourceName": "contracts/stake/StakeTONStorage.sol",
  "abi": [
    {
      "inputs": [],
      "name": "defiAddr",
      "outputs": [
        {
          "internalType": "address",
          "name": "",
          "type": "address"
        }
      ],
      "stateMutability": "view",
      "type": "function"
    },
    {
      "inputs": [],
      "name": "defiStatus",
      "outputs": [
        {
          "internalType": "uint256",
          "name": "",
          "type": "uint256"
        }
      ],
      "stateMutability": "view",
      "type": "function"
    },
    {
      "inputs": [],
      "name": "depositManager",
      "outputs": [
        {
          "internalType": "address",
          "name": "",
          "type": "address"
        }
      ],
      "stateMutability": "view",
      "type": "function"
    },
    {
      "inputs": [],
      "name": "endBlock",
      "outputs": [
        {
          "internalType": "uint256",
          "name": "",
          "type": "uint256"
        }
      ],
      "stateMutability": "view",
      "type": "function"
    },
    {
      "inputs": [],
      "name": "finalBalanceTON",
      "outputs": [
        {
          "internalType": "uint256",
          "name": "",
          "type": "uint256"
        }
      ],
      "stateMutability": "view",
      "type": "function"
    },
    {
      "inputs": [],
      "name": "finalBalanceWTON",
      "outputs": [
        {
          "internalType": "uint256",
          "name": "",
          "type": "uint256"
        }
      ],
      "stateMutability": "view",
      "type": "function"
    },
    {
      "inputs": [],
      "name": "fromTokamak",
      "outputs": [
        {
          "internalType": "uint256",
          "name": "",
          "type": "uint256"
        }
      ],
      "stateMutability": "view",
      "type": "function"
    },
    {
      "inputs": [
        {
          "internalType": "address",
          "name": "user",
          "type": "address"
        }
      ],
      "name": "getUserStaked",
      "outputs": [
        {
          "internalType": "uint256",
          "name": "amount",
          "type": "uint256"
        },
        {
          "internalType": "uint256",
          "name": "claimedBlock",
          "type": "uint256"
        },
        {
          "internalType": "uint256",
          "name": "claimedAmount",
          "type": "uint256"
        },
        {
          "internalType": "uint256",
          "name": "releasedBlock",
          "type": "uint256"
        },
        {
          "internalType": "uint256",
          "name": "releasedAmount",
          "type": "uint256"
        },
        {
          "internalType": "uint256",
          "name": "releasedTOSAmount",
          "type": "uint256"
        },
        {
          "internalType": "bool",
          "name": "released",
          "type": "bool"
        }
      ],
      "stateMutability": "view",
      "type": "function"
    },
    {
      "inputs": [],
      "name": "infos",
      "outputs": [
        {
          "internalType": "address",
          "name": "",
          "type": "address"
        },
        {
          "internalType": "address",
          "name": "",
          "type": "address"
        },
        {
          "internalType": "uint256[3]",
          "name": "",
          "type": "uint256[3]"
        },
        {
          "internalType": "uint256",
          "name": "",
          "type": "uint256"
        },
        {
          "internalType": "uint256",
          "name": "",
          "type": "uint256"
        },
        {
          "internalType": "uint256",
          "name": "",
          "type": "uint256"
        }
      ],
      "stateMutability": "view",
      "type": "function"
    },
    {
      "inputs": [],
      "name": "migratedL2",
      "outputs": [
        {
          "internalType": "bool",
          "name": "",
          "type": "bool"
        }
      ],
      "stateMutability": "view",
      "type": "function"
    },
    {
      "inputs": [],
      "name": "pauseProxy",
      "outputs": [
        {
          "internalType": "bool",
          "name": "",
          "type": "bool"
        }
      ],
      "stateMutability": "view",
      "type": "function"
    },
    {
      "inputs": [],
      "name": "paytoken",
      "outputs": [
        {
          "internalType": "address",
          "name": "",
          "type": "address"
        }
      ],
      "stateMutability": "view",
      "type": "function"
    },
    {
      "inputs": [],
      "name": "requestNum",
      "outputs": [
        {
          "internalType": "uint256",
          "name": "",
          "type": "uint256"
        }
      ],
      "stateMutability": "view",
      "type": "function"
    },
    {
      "inputs": [],
      "name": "rewardClaimedTotal",
      "outputs": [
        {
          "internalType": "uint256",
          "name": "",
          "type": "uint256"
        }
      ],
      "stateMutability": "view",
      "type": "function"
    },
    {
      "inputs": [],
      "name": "saleStartBlock",
      "outputs": [
        {
          "internalType": "uint256",
          "name": "",
          "type": "uint256"
        }
      ],
      "stateMutability": "view",
      "type": "function"
    },
    {
      "inputs": [],
      "name": "seigManager",
      "outputs": [
        {
          "internalType": "address",
          "name": "",
          "type": "address"
        }
      ],
      "stateMutability": "view",
      "type": "function"
    },
    {
      "inputs": [],
      "name": "stakeRegistry",
      "outputs": [
        {
          "internalType": "address",
          "name": "",
          "type": "address"
        }
      ],
      "stateMutability": "view",
      "type": "function"
    },
    {
      "inputs": [],
      "name": "startBlock",
      "outputs": [
        {
          "internalType": "uint256",
          "name": "",
          "type": "uint256"
        }
      ],
      "stateMutability": "view",
      "type": "function"
    },
    {
      "inputs": [],
      "name": "swapProxy",
      "outputs": [
        {
          "internalType": "address",
          "name": "",
          "type": "address"
        }
      ],
      "stateMutability": "view",
      "type": "function"
    },
    {
      "inputs": [],
      "name": "swappedAmountTOS",
      "outputs": [
        {
          "internalType": "uint256",
          "name": "",
          "type": "uint256"
        }
      ],
      "stateMutability": "view",
      "type": "function"
    },
    {
      "inputs": [],
      "name": "toTokamak",
      "outputs": [
        {
          "internalType": "uint256",
          "name": "",
          "type": "uint256"
        }
      ],
      "stateMutability": "view",
      "type": "function"
    },
    {
      "inputs": [],
      "name": "toUniswapWTON",
      "outputs": [
        {
          "internalType": "uint256",
          "name": "",
          "type": "uint256"
        }
      ],
      "stateMutability": "view",
      "type": "function"
    },
    {
      "inputs": [],
      "name": "tokamakLayer2",
      "outputs": [
        {
          "internalType": "address",
          "name": "",
          "type": "address"
        }
      ],
      "stateMutability": "view",
      "type": "function"
    },
    {
      "inputs": [],
      "name": "token",
      "outputs": [
        {
          "internalType": "address",
          "name": "",
          "type": "address"
        }
      ],
      "stateMutability": "view",
      "type": "function"
    },
    {
      "inputs": [],
      "name": "ton",
      "outputs": [
        {
          "internalType": "address",
          "name": "",
          "type": "address"
        }
      ],
      "stateMutability": "view",
      "type": "function"
    },
    {
      "inputs": [],
      "name": "totalStakedAmount",
      "outputs": [
        {
          "internalType": "uint256",
          "name": "",
          "type": "uint256"
        }
      ],
      "stateMutability": "view",
      "type": "function"
    },
    {
      "inputs": [],
      "name": "totalStakers",
      "outputs": [
        {
          "internalType": "uint256",
          "name": "",
          "type": "uint256"
        }
      ],
      "stateMutability": "view",
      "type": "function"
    },
    {
      "inputs": [
        {
          "internalType": "address",
          "name": "",
          "type": "address"
        }
      ],
      "name": "userStaked",
      "outputs": [
        {
          "internalType": "uint256",
          "name": "amount",
          "type": "uint256"
        },
        {
          "internalType": "uint256",
          "name": "claimedBlock",
          "type": "uint256"
        },
        {
          "internalType": "uint256",
          "name": "claimedAmount",
          "type": "uint256"
        },
        {
          "internalType": "uint256",
          "name": "releasedBlock",
          "type": "uint256"
        },
        {
          "internalType": "uint256",
          "name": "releasedAmount",
          "type": "uint256"
        },
        {
          "internalType": "uint256",
          "name": "releasedTOSAmount",
          "type": "uint256"
        },
        {
          "internalType": "bool",
          "name": "released",
          "type": "bool"
        }
      ],
      "stateMutability": "view",
      "type": "function"
    },
    {
      "inputs": [],
      "name": "vault",
      "outputs": [
        {
          "internalType": "address",
          "name": "",
          "type": "address"
        }
      ],
      "stateMutability": "view",
      "type": "function"
    },
    {
      "inputs": [],
      "name": "withdrawFlag",
      "outputs": [
        {
          "internalType": "bool",
          "name": "",
          "type": "bool"
        }
      ],
      "stateMutability": "view",
      "type": "function"
    },
    {
      "inputs": [],
      "name": "wton",
      "outputs": [
        {
          "internalType": "address",
          "name": "",
          "type": "address"
        }
      ],
      "stateMutability": "view",
      "type": "function"
    }
  ],
  "bytecode": "0x608060405234801561001057600080fd5b50610cf5806100206000396000f3fe608060405234801561001057600080fd5b50600436106101a55760003560e01c806386989038116100ef578063cc48b94711610092578063cc48b947146105ef578063dac3fc3f14610623578063e09974b9146106a7578063e58e2747146106c5578063e6a7bc87146106e3578063fbfa77cf14610701578063fc0c546a14610735578063fd7fa46014610769576101a5565b806386989038146103de5780638d62d949146103fc57806392ea3b4c146104305780639a88be2f146104645780639d84ca35146104f9578063a1f5f50e1461052d578063acc3a9391461054d578063b2d4d6a3146105d1576101a5565b8063567e98f911610157578063567e98f91461029257806363a8fd89146102b057806368304835146102d05780636c7ac9d8146103045780636e7cf534146103385780636ec4be90146103585780636fb7f5581461038c57806372285326146103c0576101a5565b806305871b78146101aa578063083c6323146101c85780630ac8e0f3146101e65780630ea3d9c914610204578063200272751461022257806343b0934a1461024057806348cd4cb114610274575b600080fd5b6101b2610787565b6040518082815260200191505060405180910390f35b6101d061078d565b6040518082815260200191505060405180910390f35b6101ee610793565b6040518082815260200191505060405180910390f35b61020c610799565b6040518082815260200191505060405180910390f35b61022a61079f565b6040518082815260200191505060405180910390f35b6102486107a5565b604051808273ffffffffffffffffffffffffffffffffffffffff16815260200191505060405180910390f35b61027c6107cb565b6040518082815260200191505060405180910390f35b61029a6107d1565b6040518082815260200191505060405180910390f35b6102b86107d7565b60405180821515815260200191505060405180910390f35b6102d86107ea565b604051808273ffffffffffffffffffffffffffffffffffffffff16815260200191505060405180910390f35b61030c610810565b604051808273ffffffffffffffffffffffffffffffffffffffff16815260200191505060405180910390f35b610340610836565b60405180821515815260200191505060405180910390f35b610360610849565b604051808273ffffffffffffffffffffffffffffffffffffffff16815260200191505060405180910390f35b61039461086f565b604051808273ffffffffffffffffffffffffffffffffffffffff16815260200191505060405180910390f35b6103c8610895565b6040518082815260200191505060405180910390f35b6103e661089b565b6040518082815260200191505060405180910390f35b6104046108a1565b604051808273ffffffffffffffffffffffffffffffffffffffff16815260200191505060405180910390f35b6104386108c7565b604051808273ffffffffffffffffffffffffffffffffffffffff16815260200191505060405180910390f35b61046c6108ed565b604051808773ffffffffffffffffffffffffffffffffffffffff1681526020018673ffffffffffffffffffffffffffffffffffffffff16815260200185600360200280838360005b838110156104cf5780820151818401526020810190506104b4565b50505050905001848152602001838152602001828152602001965050505050505060405180910390f35b610501610981565b604051808273ffffffffffffffffffffffffffffffffffffffff16815260200191505060405180910390f35b6105356109a7565b60405180821515815260200191505060405180910390f35b61058f6004803603602081101561056357600080fd5b81019080803573ffffffffffffffffffffffffffffffffffffffff1690602001909291905050506109ba565b60405180888152602001878152602001868152602001858152602001848152602001838152602001821515815260200197505050505050505060405180910390f35b6105d9610a09565b6040518082815260200191505060405180910390f35b6105f7610a0f565b604051808273ffffffffffffffffffffffffffffffffffffffff16815260200191505060405180910390f35b6106656004803603602081101561063957600080fd5b81019080803573ffffffffffffffffffffffffffffffffffffffff169060200190929190505050610a35565b60405180888152602001878152602001868152602001858152602001848152602001838152602001821515815260200197505050505050505060405180910390f35b6106af610c3b565b6040518082815260200191505060405180910390f35b6106cd610c41565b6040518082815260200191505060405180910390f35b6106eb610c47565b6040518082815260200191505060405180910390f35b610709610c4d565b604051808273ffffffffffffffffffffffffffffffffffffffff16815260200191505060405180910390f35b61073d610c73565b604051808273ffffffffffffffffffffffffffffffffffffffff16815260200191505060405180910390f35b610771610c97565b6040518082815260200191505060405180910390f35b60155481565b60065481565b60145481565b60165481565b60045481565b600260009054906101000a900473ffffffffffffffffffffffffffffffffffffffff1681565b60055481565b60085481565b600c60009054906101000a900460ff1681565b600160009054906101000a900473ffffffffffffffffffffffffffffffffffffffff1681565b601060009054906101000a900473ffffffffffffffffffffffffffffffffffffffff1681565b601b60009054906101000a900460ff1681565b601160009054906101000a900473ffffffffffffffffffffffffffffffffffffffff1681565b600f60009054906101000a900473ffffffffffffffffffffffffffffffffffffffff1681565b60195481565b600a5481565b600e60009054906101000a900473ffffffffffffffffffffffffffffffffffffffff1681565b601260009054906101000a900473ffffffffffffffffffffffffffffffffffffffff1681565b6000806108f8610c9d565b6000806000600260009054906101000a900473ffffffffffffffffffffffffffffffffffffffff16600360009054906101000a900473ffffffffffffffffffffffffffffffffffffffff16604051806060016040528060045481526020016005548152602001600654815250600754600854600a54955095509550955095509550909192939495565b600c60019054906101000a900473ffffffffffffffffffffffffffffffffffffffff1681565b600c60159054906101000a900460ff1681565b60096020528060005260406000206000915090508060000154908060010154908060020154908060030154908060040154908060050154908060060160009054906101000a900460ff16905087565b60075481565b600d60009054906101000a900473ffffffffffffffffffffffffffffffffffffffff1681565b6000806000806000806000600960008973ffffffffffffffffffffffffffffffffffffffff1673ffffffffffffffffffffffffffffffffffffffff16815260200190815260200160002060000154600960008a73ffffffffffffffffffffffffffffffffffffffff1673ffffffffffffffffffffffffffffffffffffffff16815260200190815260200160002060010154600960008b73ffffffffffffffffffffffffffffffffffffffff1673ffffffffffffffffffffffffffffffffffffffff16815260200190815260200160002060020154600960008c73ffffffffffffffffffffffffffffffffffffffff1673ffffffffffffffffffffffffffffffffffffffff16815260200190815260200160002060030154600960008d73ffffffffffffffffffffffffffffffffffffffff1673ffffffffffffffffffffffffffffffffffffffff16815260200190815260200160002060040154600960008e73ffffffffffffffffffffffffffffffffffffffff1673ffffffffffffffffffffffffffffffffffffffff16815260200190815260200160002060050154600960008f73ffffffffffffffffffffffffffffffffffffffff1673ffffffffffffffffffffffffffffffffffffffff16815260200190815260200160002060060160009054906101000a900460ff169650965096509650965096509650919395979092949650565b601a5481565b60175481565b60185481565b600360009054906101000a900473ffffffffffffffffffffffffffffffffffffffff1681565b60008054906101000a900473ffffffffffffffffffffffffffffffffffffffff1681565b60135481565b604051806060016040528060039060208202803683378082019150509050509056fea2646970667358221220a39fee8f295dde888d11fcf62834b47c002c717a248dcd0949f8dbc306535e2864736f6c63430007060033",
  "linkReferences": {},
  "deployedLinkReferences": {}
}