{
  "contractName": "Base64Test",
  "abi": [
    {
      "inputs": [
        {
          "internalType": "bytes",
          "name": "data",
          "type": "bytes"
        }
      ],
      "name": "encode",
      "outputs": [
        {
          "internalType": "string",
          "name": "",
          "type": "string"
        }
      ],
      "stateMutability": "pure",
      "type": "function"
    },
    {
      "inputs": [
        {
          "internalType": "bytes",
          "name": "data",
          "type": "bytes"
        }
      ],
      "name": "getGasCostOfEncode",
      "outputs": [
        {
          "internalType": "uint256",
          "name": "",
          "type": "uint256"
        }
      ],
      "stateMutability": "view",
      "type": "function"
    }
  ],
  "bytecode": "0x608060405234801561001057600080fd5b506103fa806100206000396000f3fe608060405234801561001057600080fd5b50600436106100365760003560e01c806312496a1b1461003b57806374b86d1e14610154575b600080fd5b6100df6004803603602081101561005157600080fd5b810190602081018135600160201b81111561006b57600080fd5b82018360208201111561007d57600080fd5b803590602001918460018302840111600160201b8311171561009e57600080fd5b91908080601f01602080910402602001604051908101604052809392919081815260200183838082843760009201919091525092955061020a945050505050565b6040805160208082528351818301528351919283929083019185019080838360005b83811015610119578181015183820152602001610101565b50505050905090810190601f1680156101465780820380516001836020036101000a031916815260200191505b509250505060405180910390f35b6101f86004803603602081101561016a57600080fd5b810190602081018135600160201b81111561018457600080fd5b82018360208201111561019657600080fd5b803590602001918460018302840111600160201b831117156101b757600080fd5b91908080601f01602080910402602001604051908101604052809392919081815260200183838082843760009201919091525092955061021d945050505050565b60408051918252519081900360200190f35b606061021582610236565b90505b919050565b6000805a905061022c83610236565b505a900392915050565b60608151600014156102575750604080516020810190915260008152610218565b60006040518060600160405280604081526020016103856040913990506000600384516002018161028457fe5b04600402905060008160200167ffffffffffffffff811180156102a657600080fd5b506040519080825280601f01601f1916602001820160405280156102d1576020820181803683370190505b509050818152600183018586518101602084015b8183101561033f5760039283018051603f601282901c811687015160f890811b8552600c83901c8216880151811b6001860152600683901c8216880151811b60028601529116860151901b938201939093526004016102e5565b600389510660018114610359576002811461036a57610376565b613d3d60f01b600119830152610376565b603d60f81b6000198301525b50939897505050505050505056fe4142434445464748494a4b4c4d4e4f505152535455565758595a6162636465666768696a6b6c6d6e6f707172737475767778797a303132333435363738392b2fa2646970667358221220979a8350cb2db582be1d9a85c8fe59e31f18feb052c101f53c1e59cedbebdeef64736f6c63430007060033",
  "immutableReferences": {},
  "source": "// SPDX-License-Identifier: UNLICENSED\npragma solidity =0.7.6;\n\nimport 'base64-sol/base64.sol';\n\ncontract Base64Test {\n    function encode(bytes memory data) external pure returns (string memory) {\n        return Base64.encode(data);\n    }\n\n    function getGasCostOfEncode(bytes memory data) external view returns (uint256) {\n        uint256 gasBefore = gasleft();\n        Base64.encode(data);\n        return gasBefore - gasleft();\n    }\n}\n",
  "sourcePath": "/Users/zena/ico2.0/ico20-contracts/uniswap-v3-periphery/contracts/test/Base64Test.sol",
  "compiler": {
    "name": "solc",
    "version": "0.7.6+commit.7338295f.Emscripten.clang"
  },
  "schemaVersion": "3.3.4",
  "updatedAt": "2021-07-12T13:31:40.136Z",
  "devdoc": {
    "kind": "dev",
    "methods": {},
    "version": 1
  },
  "userdoc": {
    "kind": "user",
    "methods": {},
    "version": 1
  }
}