{
  "contractName": "NFTDescriptorTest",
  "abi": [
    {
      "inputs": [
        {
          "components": [
            {
              "internalType": "uint256",
              "name": "tokenId",
              "type": "uint256"
            },
            {
              "internalType": "address",
              "name": "quoteTokenAddress",
              "type": "address"
            },
            {
              "internalType": "address",
              "name": "baseTokenAddress",
              "type": "address"
            },
            {
              "internalType": "string",
              "name": "quoteTokenSymbol",
              "type": "string"
            },
            {
              "internalType": "string",
              "name": "baseTokenSymbol",
              "type": "string"
            },
            {
              "internalType": "uint8",
              "name": "quoteTokenDecimals",
              "type": "uint8"
            },
            {
              "internalType": "uint8",
              "name": "baseTokenDecimals",
              "type": "uint8"
            },
            {
              "internalType": "bool",
              "name": "flipRatio",
              "type": "bool"
            },
            {
              "internalType": "int24",
              "name": "tickLower",
              "type": "int24"
            },
            {
              "internalType": "int24",
              "name": "tickUpper",
              "type": "int24"
            },
            {
              "internalType": "int24",
              "name": "tickCurrent",
              "type": "int24"
            },
            {
              "internalType": "int24",
              "name": "tickSpacing",
              "type": "int24"
            },
            {
              "internalType": "uint24",
              "name": "fee",
              "type": "uint24"
            },
            {
              "internalType": "address",
              "name": "poolAddress",
              "type": "address"
            }
          ],
          "internalType": "struct NFTDescriptor.ConstructTokenURIParams",
          "name": "params",
          "type": "tuple"
        }
      ],
      "name": "constructTokenURI",
      "outputs": [
        {
          "internalType": "string",
          "name": "",
          "type": "string"
        }
      ],
      "stateMutability": "pure",
      "type": "function"
    },
    {
      "inputs": [
        {
          "components": [
            {
              "internalType": "uint256",
              "name": "tokenId",
              "type": "uint256"
            },
            {
              "internalType": "address",
              "name": "quoteTokenAddress",
              "type": "address"
            },
            {
              "internalType": "address",
              "name": "baseTokenAddress",
              "type": "address"
            },
            {
              "internalType": "string",
              "name": "quoteTokenSymbol",
              "type": "string"
            },
            {
              "internalType": "string",
              "name": "baseTokenSymbol",
              "type": "string"
            },
            {
              "internalType": "uint8",
              "name": "quoteTokenDecimals",
              "type": "uint8"
            },
            {
              "internalType": "uint8",
              "name": "baseTokenDecimals",
              "type": "uint8"
            },
            {
              "internalType": "bool",
              "name": "flipRatio",
              "type": "bool"
            },
            {
              "internalType": "int24",
              "name": "tickLower",
              "type": "int24"
            },
            {
              "internalType": "int24",
              "name": "tickUpper",
              "type": "int24"
            },
            {
              "internalType": "int24",
              "name": "tickCurrent",
              "type": "int24"
            },
            {
              "internalType": "int24",
              "name": "tickSpacing",
              "type": "int24"
            },
            {
              "internalType": "uint24",
              "name": "fee",
              "type": "uint24"
            },
            {
              "internalType": "address",
              "name": "poolAddress",
              "type": "address"
            }
          ],
          "internalType": "struct NFTDescriptor.ConstructTokenURIParams",
          "name": "params",
          "type": "tuple"
        }
      ],
      "name": "getGasCostOfConstructTokenURI",
      "outputs": [
        {
          "internalType": "uint256",
          "name": "",
          "type": "uint256"
        }
      ],
      "stateMutability": "view",
      "type": "function"
    },
    {
      "inputs": [
        {
          "internalType": "int24",
          "name": "tick",
          "type": "int24"
        },
        {
          "internalType": "int24",
          "name": "tickSpacing",
          "type": "int24"
        },
        {
          "internalType": "uint8",
          "name": "token0Decimals",
          "type": "uint8"
        },
        {
          "internalType": "uint8",
          "name": "token1Decimals",
          "type": "uint8"
        },
        {
          "internalType": "bool",
          "name": "flipRatio",
          "type": "bool"
        }
      ],
      "name": "tickToDecimalString",
      "outputs": [
        {
          "internalType": "string",
          "name": "",
          "type": "string"
        }
      ],
      "stateMutability": "pure",
      "type": "function"
    },
    {
      "inputs": [
        {
          "internalType": "uint160",
          "name": "sqrtRatioX96",
          "type": "uint160"
        },
        {
          "internalType": "uint8",
          "name": "token0Decimals",
          "type": "uint8"
        },
        {
          "internalType": "uint8",
          "name": "token1Decimals",
          "type": "uint8"
        }
      ],
      "name": "fixedPointToDecimalString",
      "outputs": [
        {
          "internalType": "string",
          "name": "",
          "type": "string"
        }
      ],
      "stateMutability": "pure",
      "type": "function"
    },
    {
      "inputs": [
        {
          "internalType": "uint24",
          "name": "fee",
          "type": "uint24"
        }
      ],
      "name": "feeToPercentString",
      "outputs": [
        {
          "internalType": "string",
          "name": "",
          "type": "string"
        }
      ],
      "stateMutability": "pure",
      "type": "function"
    },
    {
      "inputs": [
        {
          "internalType": "address",
          "name": "_address",
          "type": "address"
        }
      ],
      "name": "addressToString",
      "outputs": [
        {
          "internalType": "string",
          "name": "",
          "type": "string"
        }
      ],
      "stateMutability": "pure",
      "type": "function"
    },
    {
      "inputs": [
        {
          "components": [
            {
              "internalType": "uint256",
              "name": "tokenId",
              "type": "uint256"
            },
            {
              "internalType": "address",
              "name": "quoteTokenAddress",
              "type": "address"
            },
            {
              "internalType": "address",
              "name": "baseTokenAddress",
              "type": "address"
            },
            {
              "internalType": "string",
              "name": "quoteTokenSymbol",
              "type": "string"
            },
            {
              "internalType": "string",
              "name": "baseTokenSymbol",
              "type": "string"
            },
            {
              "internalType": "uint8",
              "name": "quoteTokenDecimals",
              "type": "uint8"
            },
            {
              "internalType": "uint8",
              "name": "baseTokenDecimals",
              "type": "uint8"
            },
            {
              "internalType": "bool",
              "name": "flipRatio",
              "type": "bool"
            },
            {
              "internalType": "int24",
              "name": "tickLower",
              "type": "int24"
            },
            {
              "internalType": "int24",
              "name": "tickUpper",
              "type": "int24"
            },
            {
              "internalType": "int24",
              "name": "tickCurrent",
              "type": "int24"
            },
            {
              "internalType": "int24",
              "name": "tickSpacing",
              "type": "int24"
            },
            {
              "internalType": "uint24",
              "name": "fee",
              "type": "uint24"
            },
            {
              "internalType": "address",
              "name": "poolAddress",
              "type": "address"
            }
          ],
          "internalType": "struct NFTDescriptor.ConstructTokenURIParams",
          "name": "params",
          "type": "tuple"
        }
      ],
      "name": "generateSVGImage",
      "outputs": [
        {
          "internalType": "string",
          "name": "",
          "type": "string"
        }
      ],
      "stateMutability": "pure",
      "type": "function"
    },
    {
      "inputs": [
        {
          "internalType": "address",
          "name": "token",
          "type": "address"
        },
        {
          "internalType": "uint256",
          "name": "offset",
          "type": "uint256"
        }
      ],
      "name": "tokenToColorHex",
      "outputs": [
        {
          "internalType": "string",
          "name": "",
          "type": "string"
        }
      ],
      "stateMutability": "pure",
      "type": "function"
    },
    {
      "inputs": [
        {
          "internalType": "address",
          "name": "token",
          "type": "address"
        },
        {
          "internalType": "uint256",
          "name": "offset",
          "type": "uint256"
        }
      ],
      "name": "sliceTokenHex",
      "outputs": [
        {
          "internalType": "uint256",
          "name": "",
          "type": "uint256"
        }
      ],
      "stateMutability": "pure",
      "type": "function"
    },
    {
      "inputs": [
        {
          "internalType": "int24",
          "name": "tickLower",
          "type": "int24"
        },
        {
          "internalType": "int24",
          "name": "tickUpper",
          "type": "int24"
        }
      ],
      "name": "rangeLocation",
      "outputs": [
        {
          "internalType": "string",
          "name": "",
          "type": "string"
        },
        {
          "internalType": "string",
          "name": "",
          "type": "string"
        }
      ],
      "stateMutability": "pure",
      "type": "function"
    },
    {
      "inputs": [
        {
          "internalType": "uint256",
          "name": "tokenId",
          "type": "uint256"
        },
        {
          "internalType": "address",
          "name": "poolAddress",
          "type": "address"
        }
      ],
      "name": "isRare",
      "outputs": [
        {
          "internalType": "bool",
          "name": "",
          "type": "bool"
        }
      ],
      "stateMutability": "pure",
      "type": "function"
    }
  ],
  "bytecode": "0x608060405234801561001057600080fd5b50615a6f806100206000396000f3fe608060405234801561001057600080fd5b50600436106100a95760003560e01c8063d5c0bdd811610071578063d5c0bdd81461013e578063d6986d4514610151578063e1649fcf14610164578063e738690614610177578063ea4d3bcd14610197578063f93a7911146101aa576100a9565b80632fa2af10146100ae5780633a0cdee2146100d85780635e57966d146100f8578063854924ab1461010b5780639288c2181461012b575b600080fd5b6100c16100bc366004613ad7565b6101bd565b6040516100cf929190613ea3565b60405180910390f35b6100eb6100e6366004613aac565b6101d6565b6040516100cf9190613e90565b6100eb610106366004613a90565b6101f4565b61011e610119366004613bd6565b610207565b6040516100cf9190614061565b6100eb610139366004613b09565b6102a3565b6100eb61014c366004613d78565b6102be565b61011e61015f366004613aac565b6102d5565b6100eb610172366004613c0e565b6102ea565b61018a610185366004613dd6565b6102f5565b6040516100cf9190613e85565b6100eb6101a5366004613dbc565b610301565b6100eb6101b8366004613bd6565b61030c565b6060806101ca848461039a565b915091505b9250929050565b60606101eb836001600160a01b0316836106a6565b90505b92915050565b60606101ff826106b5565b90505b919050565b6000805a60405163c49917d760e01b815290915073__NFTDescriptor_________________________9063c49917d790610245908690600401613ec8565b60006040518083038186803b15801561025d57600080fd5b505af4158015610271573d6000803e3d6000fd5b505050506040513d6000823e601f3d908101601f191682016040526102999190810190613b6d565b505a900392915050565b60606102b286868686866106cb565b90505b95945050505050565b60606102cb8484846107e0565b90505b9392505050565b60006101eb836001600160a01b0316836109a6565b60606101ff826109ad565b60006101eb8383610be8565b60606101ff82610c4b565b60405163c49917d760e01b815260609073__NFTDescriptor_________________________9063c49917d790610346908590600401613ec8565b60006040518083038186803b15801561035e57600080fd5b505af4158015610372573d6000803e3d6000fd5b505050506040513d6000823e601f3d908101601f191682016040526101ff9190810190613b6d565b60608060006002858501810b0590506201e847198160020b12156103f657604051806040016040528060018152602001600760fb1b815250604051806040016040528060018152602001603760f81b81525092509250506101cf565b620124f7198160020b121561044657604051806040016040528060018152602001600760fb1b8152506040518060400160405280600481526020016331302e3560e01b81525092509250506101cf565b6161a7198160020b121561049657604051806040016040528060018152602001600760fb1b8152506040518060400160405280600581526020016431342e323560d81b81525092509250506101cf565b611387198160020b12156104e45760405180604001604052806002815260200161031360f41b81525060405180604001604052806002815260200161062760f31b81525092509250506101cf565b60008160020b12156105305760405180604001604052806002815260200161313160f01b81525060405180604001604052806002815260200161323160f01b81525092509250506101cf565b6113888160020b121561057d5760405180604001604052806002815260200161313360f01b81525060405180604001604052806002815260200161323360f01b81525092509250506101cf565b6161a88160020b12156105ca5760405180604001604052806002815260200161313560f01b81525060405180604001604052806002815260200161323560f01b81525092509250506101cf565b620124f88160020b12156106185760405180604001604052806002815260200161062760f31b81525060405180604001604052806002815260200161191b60f11b81525092509250506101cf565b6201e8488160020b12156106665760405180604001604052806002815260200161323160f01b81525060405180604001604052806002815260200161323760f01b81525092509250506101cf565b604051806040016040528060028152602001610c8d60f21b81525060405180604001604052806002815260200161323760f01b81525092509250506101cf565b60606101eb83831c6003610e8b565b60606101ff6001600160a01b0383166014610f44565b606084600281900b620d89e719816106df57fe5b050260020b8660020b1415610739578115610715576040518060400160405280600381526020016209a82b60eb1b815250610732565b6040518060400160405280600381526020016226a4a760e91b8152505b90506102b5565b84600281900b620d89e88161074a57fe5b050260020b8660020b14156107a0578115610780576040518060400160405280600381526020016226a4a760e91b815250610732565b5060408051808201909152600381526209a82b60eb1b60208201526102b5565b60006107ab876110a2565b905082156107cd576107ca600160c01b6001600160a01b0383166113ca565b90505b6107d88186866107e0565b9150506102b5565b606060006107ef858585611431565b905060006108028283600160401b611533565b9050600160601b8210801561083a576108338272047bf19673df52e37f2410011d100000000000600160801b611533565b915061084f565b61084c82620186a0600160801b611533565b91505b8160005b811561086757600101600a82049150610853565b6000190160008061087886846115e2565b915091508015610889576001909201915b6108916139aa565b8515610904576108b06108a8602b60ff871661164e565b6007906116ab565b60ff9081166020830152600260808301526108dc906001906108d690602b90881661164e565b906116ab565b60ff90811660a083015260208201516108f79116600161164e565b60ff16604082015261097b565b60098460ff161061094d5761091d60ff8516600461164e565b60ff16602082018190526005608083015261093990600161164e565b60ff1660a08201526004604082015261097b565b60066020820152600560408201819052610972906001906108d69060ff88169061164e565b60ff1660608201525b82815285151560c0820152600060e082015261099681611705565b9c9b505050505050505050505050565b1c60ff1690565b60606000604051806102a001604052806109ca85602001516106b5565b81526020016109dc85604001516106b5565b8152602001846101a001516001600160a01b031681526020018460600151815260200184608001518152602001610a17856101800151610c4b565b815260200184610100015160020b815260200184610120015160020b815260200184610160015160020b8152602001610a60856101000151866101200151876101400151611914565b60000b815260200184600001518152602001610a8a85602001516001600160a01b031660886106a6565b8152602001610aa785604001516001600160a01b031660886106a6565b8152602001610ac485602001516001600160a01b031660006106a6565b8152602001610ae185604001516001600160a01b031660006106a6565b8152602001610b14610b0686602001516001600160a01b03166010886000015161194b565b600060ff601061011261196b565b8152602001610b47610b3986604001516001600160a01b03166010886000015161194b565b600060ff60646101e461196b565b8152602001610b6c610b0686602001516001600160a01b03166020886000015161194b565b8152602001610b91610b3986604001516001600160a01b03166020886000015161194b565b8152602001610bb6610b0686602001516001600160a01b03166030886000015161194b565b8152602001610bdb610b3986604001516001600160a01b03166030886000015161194b565b905290506102ce816119a9565b6040805160208082018590526bffffffffffffffffffffffff19606085901b16828401528251603481840301815260549092019092528051910120600090610c2f84611c21565b60020260010160ff1660001981610c4257fe5b04119392505050565b606062ffffff8216610c765750604080518082019091526002815261302560f01b6020820152610202565b816000805b62ffffff831615610cc65760ff811615610c9757600101610cb0565b600a62ffffff84160662ffffff16600014610cb0576001015b600190910190600a62ffffff8416049250610c7b565b610cce6139aa565b600060058410610dbd5760006004610ce98660ff871661164e565b1015610cf6576001610cf9565b60005b60ff9081169150610d0d908516600161164e565b610d1886600561164e565b10610d4457610d3f610d2e60ff8616600161164e565b610d3987600561164e565b9061164e565b610d47565b60005b60ff851660808501819052909250610d6690600190610d3990856116ab565b60ff90811660a08501526080840151610d879183916108d69116600161164e565b60ff9081166040850152610daf9082906108d690610da890881660016116ab565b85906116ab565b60ff16602084015250610e2d565b610dc860058561164e565b600260808401819052909150610de690600190610d399084906116ab565b60ff90811660a0840152610e0890610e0190851660026116ab565b82906116ab565b60ff1660208301819052610e1d90600261164e565b60ff166040830152600160c08301525b610e4c610e3d8560ff861661164e565b62ffffff891690600a0a6113ca565b8252600160e083015260048411610e64576000610e6f565b610e6f84600461164e565b60ff166060830152610e8082611705565b979650505050505050565b60606000826002026001600160401b0381118015610ea857600080fd5b506040519080825280601f01601f191660200182016040528015610ed3576020820181803683370190505b5080519091505b8015610f3c576f181899199a1a9b1b9c1cb0b131b232b360811b85600f1660108110610f0257fe5b1a60f81b826001830381518110610f1557fe5b60200101906001600160f81b031916908160001a90535060049490941c9360001901610eda565b509392505050565b60606000826002026002016001600160401b0381118015610f6457600080fd5b506040519080825280601f01601f191660200182016040528015610f8f576020820181803683370190505b509050600360fc1b81600081518110610fa457fe5b60200101906001600160f81b031916908160001a905350600f60fb1b81600181518110610fcd57fe5b60200101906001600160f81b031916908160001a905350600160028402015b600181111561104e576f181899199a1a9b1b9c1cb0b131b232b360811b85600f166010811061101757fe5b1a60f81b82828151811061102757fe5b60200101906001600160f81b031916908160001a90535060049490941c9360001901610fec565b5083156101eb576040805162461bcd60e51b815260206004820181905260248201527f537472696e67733a20686578206c656e67746820696e73756666696369656e74604482015290519081900360640190fd5b60008060008360020b126110b9578260020b6110c1565b8260020b6000035b9050620d89e88111156110ff576040805162461bcd60e51b81526020600482015260016024820152601560fa1b604482015290519081900360640190fd5b60006001821661111357600160801b611125565b6ffffcb933bd6fad37aa2d162d1a5940015b6001600160881b03169050600282161561114f576ffff97272373d413259a46990580e213a0260801c5b600482161561116e576ffff2e50f5f656932ef12357cf3c7fdcc0260801c5b600882161561118d576fffe5caca7e10e4e61c3624eaa0941cd00260801c5b60108216156111ac576fffcb9843d60f6159c9db58835c9266440260801c5b60208216156111cb576fff973b41fa98c081472e6896dfb254c00260801c5b60408216156111ea576fff2ea16466c96a3843ec78b326b528610260801c5b6080821615611209576ffe5dee046a99a2a811c461f1969c30530260801c5b610100821615611229576ffcbe86c7900a88aedcffc83b479aa3a40260801c5b610200821615611249576ff987a7253ac413176f2b074cf7815e540260801c5b610400821615611269576ff3392b0822b70005940c7a398e4b70f30260801c5b610800821615611289576fe7159475a2c29b7443b29c7fa6e889d90260801c5b6110008216156112a9576fd097f3bdfd2022b8845ad8f792aa58250260801c5b6120008216156112c9576fa9f746462d870fdf8a65dc1f90e061e50260801c5b6140008216156112e9576f70d869a156d2a1b890bb3df62baf32f70260801c5b618000821615611309576f31be135f97d08fd981231505542fcfa60260801c5b6201000082161561132a576f09aa508b5b7a84e1c677de54f3e99bc90260801c5b6202000082161561134a576e5d6af8dedb81196699c329225ee6040260801c5b62040000821615611369576d2216e584f5fa1ea926041bedfe980260801c5b62080000821615611386576b048a170391f7dc42444e8fa20260801c5b60008460020b13156113a157806000198161139d57fe5b0490505b6401000000008106156113b55760016113b8565b60005b60ff16602082901c0192505050919050565b6000808211611420576040805162461bcd60e51b815260206004820152601a60248201527f536166654d6174683a206469766973696f6e206279207a65726f000000000000604482015290519081900360640190fd5b81838161142957fe5b049392505050565b60008061144c61144760ff868116908616611cbc565b611d21565b905060008111801561145f575060128111155b15611520578260ff168460ff1611156114c9576114936114808260026113ca565b6001600160a01b03871690600a0a611d38565b915060028106600114156114c4576114c1827003298b075b4b6a5240945790619b37fd4a600160801b611533565b91505b61151b565b6114ea6114d78260026113ca565b6001600160a01b03871690600a0a6113ca565b9150600281066001141561151b5761151882600160801b7003298b075b4b6a5240945790619b37fd4a611533565b91505b610f3c565b50506001600160a01b0390921692915050565b6000808060001985870986860292508281109083900303905080611569576000841161155e57600080fd5b5082900490506102ce565b80841161157557600080fd5b6000848688096000868103871696879004966002600389028118808a02820302808a02820302808a02820302808a02820302808a02820302808a02909103029181900381900460010186841190950394909402919094039290920491909117919091029150509392505050565b600080600060058460ff16111561160a576116078560ff600419870116600a0a6113ca565b94505b60006004600a870611905061162086600a6113ca565b9550801561162f578560010195505b85620186a0141561164557600a86049550600191505b50939492505050565b6000828211156116a5576040805162461bcd60e51b815260206004820152601e60248201527f536166654d6174683a207375627472616374696f6e206f766572666c6f770000604482015290519081900360640190fd5b50900390565b6000828201838110156101eb576040805162461bcd60e51b815260206004820152601b60248201527f536166654d6174683a206164646974696f6e206f766572666c6f770000000000604482015290519081900360640190fd5b60606000826020015160ff166001600160401b038111801561172657600080fd5b506040519080825280601f01601f191660200182016040528015611751576020820181803683370190505b5090508260e001511561178b57602560f81b8160018351038151811061177357fe5b60200101906001600160f81b031916908160001a9053505b8260c00151156117e857600360fc1b816000815181106117a757fe5b60200101906001600160f81b031916908160001a905350601760f91b816001815181106117d057fe5b60200101906001600160f81b031916908160001a9053505b608083015160ff165b60a08401516118049060ff1660016116ab565b81101561183b57603060f81b82828151811061181c57fe5b60200101906001600160f81b031916908160001a9053506001016117f1565b505b8251156101ff576000836060015160ff161180156118685750826060015160ff16836040015160ff16145b156118ab5760408301805160ff600019820181169092528251601760f91b9284921690811061189357fe5b60200101906001600160f81b031916908160001a9053505b82516118bd90603090600a90066116ab565b60f81b818460400180518091906001900360ff1660ff1681525060ff16815181106118e457fe5b60200101906001600160f81b031916908160001a905350600a836000018181518161190b57fe5b0490525061183d565b60008360020b8260020b121561192d57506000196102ce565b8260020b8260020b1315611943575060016102ce565b5060006102ce565b600060ff8261195a86866109a6565b028161196257fe5b06949350505050565b60606102b26119a4846108d6611981888a61164e565b61199e61198e888a61164e565b6119988d8d61164e565b90611d38565b906113ca565b611d91565b60606119b482611e6b565b6119d083600001518460200151856060015186608001516124ca565b6119e7846060015185608001518660a001516127f5565b611a058560c001518660e00151876101000151886101200151612945565b611a25611a16876101400151611d91565b8760c001518860e00151612c28565b611a388761014001518860400151613040565b6040516020018087805190602001908083835b60208310611a6a5780518252601f199092019160209182019101611a4b565b51815160209384036101000a600019018019909216911617905289519190930192890191508083835b60208310611ab25780518252601f199092019160209182019101611a93565b51815160209384036101000a600019018019909216911617905288519190930192880191508083835b60208310611afa5780518252601f199092019160209182019101611adb565b51815160209384036101000a600019018019909216911617905287519190930192870191508083835b60208310611b425780518252601f199092019160209182019101611b23565b51815160209384036101000a600019018019909216911617905286519190930192860191508083835b60208310611b8a5780518252601f199092019160209182019101611b6b565b51815160209384036101000a600019018019909216911617905285519190930192850191508083835b60208310611bd25780518252601f199092019160209182019101611bb3565b5181516020939093036101000a6000190180199091169216919091179052651e17b9bb339f60d11b92019182525060408051808303601919018152600690920190529998505050505050505050565b6000808211611c2f57600080fd5b600160801b8210611c4257608091821c91015b600160401b8210611c5557604091821c91015b6401000000008210611c6957602091821c91015b620100008210611c7b57601091821c91015b6101008210611c8c57600891821c91015b60108210611c9c57600491821c91015b60048210611cac57600291821c91015b6002821061020257600101919050565b6000818303818312801590611cd15750838113155b80611ce65750600083128015611ce657508381135b6101eb5760405162461bcd60e51b81526004018080602001828103825260248152602001806157da6024913960400191505060405180910390fd5b600080821215611d3457816000036101ff565b5090565b600082611d47575060006101ee565b82820282848281611d5457fe5b04146101eb5760405162461bcd60e51b8152600401808060200182810382526021815260200180614ef36021913960400191505060405180910390fd5b606081611db657506040805180820190915260018152600360fc1b6020820152610202565b8160005b8115611dce57600101600a82049150611dba565b6000816001600160401b0381118015611de657600080fd5b506040519080825280601f01601f191660200182016040528015611e11576020820181803683370190505b50859350905060001982015b8315611e6257600a840660300160f81b82828060019003935081518110611e4057fe5b60200101906001600160f81b031916908160001a905350600a84049350611e1d565b50949350505050565b6060611f008261016001516040516020018080614aad6081913960810182805190602001908083835b60208310611eb35780518252601f199092019160209182019101611e94565b6001836020036101000a038019825116818451168082178552505050505050905001806813979f1e17b9bb339f60b91b8152506009019150506040516020818303038152906040526130b8565b612062836101e0015184610200015185610180015160405160200180806145ea6063913960630184805190602001908083835b60208310611f525780518252601f199092019160209182019101611f33565b51815160209384036101000a600019018019909216911617905265272063793d2760d01b919093019081528551600690910192860191508083835b60208310611fac5780518252601f199092019160209182019101611f8d565b51815160209384036101000a6000190180199092169116179052722720723d273132307078272066696c6c3d272360681b919093019081528451601390910192850191508083835b602083106120135780518252601f199092019160209182019101611ff4565b6001836020036101000a038019825116818451168082178552505050505050905001806813979f1e17b9bb339f60b91b81525060090193505050506040516020818303038152906040526130b8565b6120b3846102200151856102400151866101a0015160405160200180806145ea60639139606301848051906020019080838360208310611f525780518252601f199092019160209182019101611f33565b6121c8856102600151866102800151876101c0015160405160200180806145ea6063913960630184805190602001908083835b602083106121055780518252601f1990920191602091820191016120e6565b51815160209384036101000a600019018019909216911617905265272063793d2760d01b919093019081528551600690910192860191508083835b6020831061215f5780518252601f199092019160209182019101612140565b51815160001960209485036101000a01908116901991909116179052722720723d273130307078272066696c6c3d272360681b9390910192835284516013909301929085019150808383602083106120135780518252601f199092019160209182019101611ff4565b6101608601516040516020018060566143658239605601602c614d148239651e3232b3399f60d11b602c820152603201604b614a628239604b0186805190602001908083835b6020831061222d5780518252601f19909201916020918201910161220e565b6001836020036101000a0380198251168184511680821785525050505050509050018061559a603e9139603e0185805190602001908083835b602083106122855780518252601f199092019160209182019101612266565b6001836020036101000a03801982511681845116808217855250505050505090500180614b2e603e9139603e0184805190602001908083835b602083106122dd5780518252601f1990920191602091820191016122be565b5181516020939093036101000a6000190180199091169216919091179052631110179f60e11b920191825250600401603b61425d8239603b0183805190602001908083835b602083106123415780518252601f199092019160209182019101612322565b6001836020036101000a038019825116818451168082178552505050505050905001806146aa60999139609901607f61514b8239607f016088615512823960880160416147438239604101605d6156d28239605d0160726151f7823960720160496141c6823960490160be6149a4823960be0160716144768239607101607561508e82396075016066614784823960660160a4614d40823960a40160856155d882397f3c6720636c69702d706174683d2275726c2823636f726e65727329223e00000060858201526b1e3932b1ba103334b6361e9160a11b60a2820152825160ae9091019060208401908083835b6020831061244e5780518252601f19909201916020918201910161242f565b6001836020036101000a038019825116818451168082178552505050505050905001806147ea60319139603101604e61420f8239604e01605d61464d8239605d016041614c9382396041016052614b6c8239605201607561565d8239607501955050505050506040516020818303038152906040529050919050565b60608382858488878a8960405160200180806157b560259139602501607d6149278239607d0189805190602001908083835b6020831061251b5780518252601f1990920191602091820191016124fc565b51815160209384036101000a600019018019909216911617905264010714051160dd1b919093019081528a516005909101928b0191508083835b602083106125745780518252601f199092019160209182019101612555565b6001836020036101000a0380198251168184511680821785525050505050509050018061481b60799139607901608661572f823960860187805190602001908083835b602083106125d65780518252601f1990920191602091820191016125b7565b51815160209384036101000a600019018019909216911617905264010714051160dd1b919093019081528851600590910192890191508083835b6020831061262f5780518252601f199092019160209182019101612610565b6001836020036101000a038019825116818451168082178552505050505050905001806143f160859139608501607b6153808239607b0185805190602001908083835b602083106126915780518252601f199092019160209182019101612672565b51815160209384036101000a600019018019909216911617905264010714051160dd1b919093019081528651600590910192870191508083835b602083106126ea5780518252601f1990920191602091820191016126cb565b6001836020036101000a0380198251168184511680821785525050505050509050018061453b605d9139605d0160a3614feb823960a30183805190602001908083835b6020831061274c5780518252601f19909201916020918201910161272d565b51815160209384036101000a600019018019909216911617905264010714051160dd1b919093019081528451600590910192850191508083835b602083106127a55780518252601f199092019160209182019101612786565b6001836020036101000a0380198251168184511680821785525050505050509050018061413b608b9139608b01985050505050505050506040516020818303038152906040529050949350505050565b6060838383604051602001808061429860cd913960cd0184805190602001908083835b602083106128375780518252601f199092019160209182019101612818565b6001836020036101000a03801982511681845116808217855250505050505090500180602f60f81b81525060010183805190602001908083835b602083106128905780518252601f199092019160209182019101612871565b6001836020036101000a0380198251168184511680821785525050505050509050018061595e6077913960770182805190602001908083835b602083106128e85780518252601f1990920191602091820191016128c9565b5181516020939093036101000a60001901801990911692169190911790526a1e17ba32bc3a1f1e17b39f60a91b920191825250600b0160736157fe8239607301935050505060405160208183030381529060405290509392505050565b606060008260000b6001146129ac578260000b600019146129835760405180604001604052806005815260200164236e6f6e6560d81b8152506129a7565b6040518060400160405280600a81526020016911b330b23296b237bbb760b11b8152505b6129ce565b60405180604001604052806008815260200167023666164652d75760c41b8152505b905060006129dd878787613205565b9050818183836129ec88613439565b60405160200180806c078ce40dac2e6d67a44eae4d85609b1b815250600d0186805190602001908083835b60208310612a365780518252601f199092019160209182019101612a17565b5181516020939093036101000a600019018019909116921691909117905261149160f11b9201918252506002016077614de4823960770185805190602001908083835b60208310612a985780518252601f199092019160209182019101612a79565b6001836020036101000a038019825116818451168082178552505050505050905001806144e76054913960540180700785ece7c78ce40dac2e6d67a44eae4d85607b1b81525060110184805190602001908083835b60208310612b0c5780518252601f199092019160209182019101612aed565b5181516020939093036101000a600019018019909116921691909117905261149160f11b9201918252506002016029614e5b82396029016045614eae823960450180681e3830ba3410321e9160b91b81525060090183805190602001908083835b60208310612b8c5780518252601f199092019160209182019101612b6d565b6001836020036101000a038019825116818451168082178552505050505050905001806151036048913960480182805190602001908083835b60208310612be45780518252601f199092019160209182019101612bc5565b6001836020036101000a0380198251168184511680821785525050505050509050019550505050505060405160208183030381529060405292505050949350505050565b60606000612c35846138a0565b90506000612c42846138a0565b865183518251929350600490910191600a9182019101600080612c658a8a61039a565b91509150612c7885600401600702611d91565b8b612c8886600401600702611d91565b89612c9887600401600702611d91565b8a878760405160200180806151ca602d9139602d01806c1e3932b1ba103bb4b23a341e9160991b815250600d0189805190602001908083835b60208310612cf05780518252601f199092019160209182019101612cd1565b6001836020036101000a03801982511681845116808217855250505050505090500180614bbe603d9139603d01608d6158718239608d0188805190602001908083835b60208310612d525780518252601f199092019160209182019101612d33565b5181516020939093036101000a60001901801990911692169190911790526a1e17ba32bc3a1f1e17b39f60a91b920191825250600b01602d615a0d8239602d01806c1e3932b1ba103bb4b23a341e9160991b815250600d0187805190602001908083835b60208310612dd55780518252601f199092019160209182019101612db6565b6001836020036101000a03801982511681845116808217855250505050505090500180614bbe603d9139603d016093614894823960930186805190602001908083835b60208310612e375780518252601f199092019160209182019101612e18565b5181516020939093036101000a60001901801990911692169190911790526a1e17ba32bc3a1f1e17b39f60a91b920191825250600b01602d6145988239602d01806c1e3932b1ba103bb4b23a341e9160991b815250600d0185805190602001908083835b60208310612eba5780518252601f199092019160209182019101612e9b565b6001836020036101000a03801982511681845116808217855250505050505090500180614bbe603d9139603d0160936153fb823960930184805190602001908083835b60208310612f1c5780518252601f199092019160209182019101612efd565b6001836020036101000a038019825116818451168082178552505050505050905001806159d56038913960380160606158fe82396060016064614f87823960640160256145c5823960250183805190602001908083835b60208310612f925780518252601f199092019160209182019101612f73565b51815160209384036101000a6000190180199092169116179052630383c16160e51b919093019081528451600490910192850191508083835b60208310612fea5780518252601f199092019160209182019101612fcb565b6001836020036101000a038019825116818451168082178552505050505050905001806143bb60369139603601985050505050505050506040516020818303038152906040529750505050505050509392505050565b606061304c8383610be8565b156130a25760405160200180608d6152f38239608d016073614f1482396073016071614c228239607101608a6152698239608a01608461548e8239608401905060405160208183030381529060405290506101ee565b5060408051602081019091526000815292915050565b60608151600014156130d95750604080516020810190915260008152610202565b6000604051806060016040528060408152602001614cd46040913990506000600384516002018161310657fe5b0460040290506000816020016001600160401b038111801561312757600080fd5b506040519080825280601f01601f191660200182016040528015613152576020820181803683370190505b509050818152600183018586518101602084015b818310156131c05760039283018051603f601282901c811687015160f890811b8552600c83901c8216880151811b6001860152600683901c8216880151811b60028601529116860151901b93820193909352600401613166565b6003895106600181146131da57600281146131eb576131f7565b613d3d60f01b6001198301526131f7565b603d60f81b6000198301525b509398975050505050505050565b606060008260020b85850360020b8161321a57fe5b05905060048160020b13613265576040518060400160405280601a81526020017f4d312031433431203431203130352031303520313435203134350000000000008152509150610f3c565b60088160020b136132a957604051806040016040528060198152602001784d31203143333320343920393720313133203134352031343560381b8152509150610f3c565b60108160020b136132ed57604051806040016040528060198152602001784d31203143333320353720383920313133203134352031343560381b8152509150610f3c565b60208160020b1361333157604051806040016040528060198152602001784d31203143323520363520383120313231203134352031343560381b8152509150610f3c565b60408160020b1361337557604051806040016040528060198152602001784d31203143313720373320373320313239203134352031343560381b8152509150610f3c565b60808160020b136133b857604051806040016040528060188152602001774d312031433920383120363520313337203134352031343560401b8152509150610f3c565b6101008160020b13613401576040518060400160405280601a81526020017f4d31203143312038392035372e352031343520313435203134350000000000008152509150610f3c565b50506040805180820190915260188152774d312031433120393720343920313435203134352031343560401b60208201529392505050565b6040805180820182526002815261373360f01b6020808301919091528251808401845260038082526203139360ec1b82840152845180860186528181526232313760e81b818501528551808701909652908552620ccccd60ea1b928501929092526060939091906001600087900b14806134b757508560000b600019145b156136ae578560000b600019146134ce57816134d0565b835b8660000b600019146134e257816134e4565b835b8760000b600019146134f657836134f8565b855b8860000b6000191461350a578361350c565b855b60405160200180806b1e31b4b931b6329031bc1e9160a11b815250600c0185805190602001908083835b602083106135555780518252601f199092019160209182019101613536565b51815160209384036101000a600019018019909216911617905267383c111031bc9e9160c11b919093019081528651600890910192870191508083835b602083106135b15780518252601f199092019160209182019101613592565b6001836020036101000a03801982511681845116808217855250505050505090500180614bfb6027913960270183805190602001908083835b602083106136095780518252601f1990920191602091820191016135ea565b51815160209384036101000a600019018019909216911617905267383c111031bc9e9160c11b919093019081528451600890910192850191508083835b602083106136655780518252601f199092019160209182019101613646565b6001836020036101000a03801982511681845116808217855250505050505090500180614e84602a9139602a019450505050506040516020818303038152906040529450613897565b8383838360405160200180806b1e31b4b931b6329031bc1e9160a11b815250600c0185805190602001908083835b602083106136fb5780518252601f1990920191602091820191016136dc565b51815160209384036101000a600019018019909216911617905267383c111031bc9e9160c11b919093019081528651600890910192870191508083835b602083106137575780518252601f199092019160209182019101613738565b51815160209384036101000a60001901801990921691161790527a383c1110391e911a383c11103334b6361e913bb434ba329110179f60291b919093019081526b1e31b4b931b6329031bc1e9160a11b601b8201528551602790910192860191508083835b602083106137db5780518252601f1990920191602091820191016137bc565b51815160209384036101000a600019018019909216911617905267383c111031bc9e9160c11b919093019081528451600890910192850191508083835b602083106138375780518252601f199092019160209182019101613818565b6001836020036101000a038019825116818451168082178552505050505050905001807a383c1110391e911a383c11103334b6361e913bb434ba329110179f60291b815250601b0194505050505060405160208183030381529060405294505b50505050919050565b6060600060405180602001604052806000815250905060008360020b12156138e65782600019029250604051806040016040528060018152602001602d60f81b81525090505b806138f38460020b611d91565b6040516020018083805190602001908083835b602083106139255780518252601f199092019160209182019101613906565b51815160209384036101000a600019018019909216911617905285519190930192850191508083835b6020831061396d5780518252601f19909201916020918201910161394e565b6001836020036101000a03801982511681845116808217855250505050505090500192505050604051602081830303815290604052915050919050565b6040805161010081018252600080825260208201819052918101829052606081018290526080810182905260a0810182905260c0810182905260e081019190915290565b803561020281614122565b8035801515811461020257600080fd5b8035600281900b811461020257600080fd5b600082601f830112613a2b578081fd5b8135613a3e613a398261408d565b61406a565b818152846020838601011115613a52578283fd5b816020850160208301379081016020019190915292915050565b803562ffffff8116811461020257600080fd5b803560ff8116811461020257600080fd5b600060208284031215613aa1578081fd5b81356101eb81614122565b60008060408385031215613abe578081fd5b8235613ac981614122565b946020939093013593505050565b60008060408385031215613ae9578182fd5b613af283613a09565b9150613b0060208401613a09565b90509250929050565b600080600080600060a08688031215613b20578081fd5b613b2986613a09565b9450613b3760208701613a09565b9350613b4560408701613a7f565b9250613b5360608701613a7f565b9150613b61608087016139f9565b90509295509295909350565b600060208284031215613b7e578081fd5b81516001600160401b03811115613b93578182fd5b8201601f81018413613ba3578182fd5b8051613bb1613a398261408d565b818152856020838501011115613bc5578384fd5b6102b58260208301602086016140f2565b600060208284031215613be7578081fd5b81356001600160401b03811115613bfc578182fd5b82016101c081850312156101eb578182fd5b600060208284031215613c1f578081fd5b81356001600160401b0380821115613c35578283fd5b81840191506101c0808387031215613c4b578384fd5b613c548161406a565b905082358152613c66602084016139ee565b6020820152613c77604084016139ee565b6040820152606083013582811115613c8d578485fd5b613c9987828601613a1b565b606083015250608083013582811115613cb0578485fd5b613cbc87828601613a1b565b608083015250613cce60a08401613a7f565b60a0820152613cdf60c08401613a7f565b60c0820152613cf060e084016139f9565b60e08201526101009150613d05828401613a09565b828201526101209150613d19828401613a09565b828201526101409150613d2d828401613a09565b828201526101609150613d41828401613a09565b828201526101809150613d55828401613a6c565b828201526101a09150613d698284016139ee565b91810191909152949350505050565b600080600060608486031215613d8c578283fd5b8335613d9781614122565b9250613da560208501613a7f565b9150613db360408501613a7f565b90509250925092565b600060208284031215613dcd578081fd5b6101eb82613a6c565b60008060408385031215613de8578182fd5b823591506020830135613dfa81614122565b809150509250929050565b6001600160a01b03169052565b15159052565b60020b9052565b60008284528282602086013780602084860101526020601f19601f85011685010190509392505050565b60008151808452613e618160208601602086016140f2565b601f01601f19169290920160200192915050565b62ffffff169052565b60ff169052565b901515815260200190565b6000602082526101eb6020830184613e49565b600060408252613eb66040830185613e49565b82810360208401526102b58185613e49565b60006020825282356020830152613ee1602084016139ee565b613eee6040840182613e05565b50613efb604084016139ee565b613f086060840182613e05565b50613f1660608401846140ae565b6101c0806080860152613f2e6101e086018385613e1f565b9250613f3d60808701876140ae565b868503601f190160a08801529250613f56848483613e1f565b935050613f6560a08701613a7f565b9150613f7460c0860183613e7e565b613f8060c08701613a7f565b9150613f8f60e0860183613e7e565b613f9b60e087016139f9565b9150610100613fac81870184613e12565b613fb7818801613a09565b925050610120613fc981870184613e18565b613fd4818801613a09565b925050610140613fe681870184613e18565b613ff1818801613a09565b92505061016061400381870184613e18565b61400e818801613a09565b92505061018061402081870184613e18565b61402b818801613a6c565b9250506101a061403d81870184613e75565b6140488188016139ee565b92505061405781860183613e05565b5090949350505050565b90815260200190565b6040518181016001600160401b038111828210171561408557fe5b604052919050565b60006001600160401b038211156140a057fe5b50601f01601f191660200190565b6000808335601e198436030181126140c4578283fd5b83016020810192503590506001600160401b038111156140e357600080fd5b8036038313156101cf57600080fd5b60005b8381101561410d5781810151838201526020016140f5565b8381111561411c576000848401525b50505050565b6001600160a01b038116811461413757600080fd5b5056fe203c616e696d6174652061646469746976653d2273756d22206174747269627574654e616d653d2273746172744f6666736574222066726f6d3d2230252220746f3d22313030252220626567696e3d22307322206475723d223330732220726570656174436f756e743d22696e646566696e69746522202f3e3c2f74657874506174683e3c2f746578743e3c73746f70206f66667365743d222e39222073746f702d636f6c6f723d227768697465222073746f702d6f7061636974793d223022202f3e3c2f6c696e6561724772616469656e743e3c72656374207374796c653d2266696c7465723a2075726c28236631292220783d223070782220793d22307078222077696474683d22323930707822206865696768743d22353030707822202f3e3c6665496d61676520726573756c743d2270332220786c696e6b3a687265663d22646174613a696d6167652f7376672b786d6c3b6261736536342c3c67206d61736b3d2275726c2823666164652d73796d626f6c29223e3c726563742066696c6c3d226e6f6e652220783d223070782220793d22307078222077696474683d22323930707822206865696768743d22323030707822202f3e203c7465787420793d22373070782220783d2233327078222066696c6c3d2277686974652220666f6e742d66616d696c793d2227436f7572696572204e6577272c206d6f6e6f73706163652220666f6e742d7765696768743d223230302220666f6e742d73697a653d2233367078223e3c7376672077696474683d2232393022206865696768743d22353030222076696577426f783d2230203020323930203530302220786d6c6e733d22687474703a2f2f7777772e77332e6f72672f323030302f7376672270782c2030707829222063783d22307078222063793d223070782220723d22347078222066696c6c3d227768697465222f3e3c2f673e203c616e696d6174652061646469746976653d2273756d22206174747269627574654e616d653d2273746172744f6666736574222066726f6d3d2230252220746f3d22313030252220626567696e3d22307322206475723d223330732220726570656174436f756e743d22696e646566696e69746522202f3e203c2f74657874506174683e3c6d61736b2069643d22666164652d757022206d61736b436f6e74656e74556e6974733d226f626a656374426f756e64696e67426f78223e3c726563742077696474683d223122206865696768743d2231222066696c6c3d2275726c2823677261642d75702922202f3e3c2f6d61736b3e22207374726f6b653d227267626128302c302c302c302e332922207374726f6b652d77696474683d2233327078222066696c6c3d226e6f6e6522207374726f6b652d6c696e656361703d22726f756e6422202f3e203c616e696d6174652061646469746976653d2273756d22206174747269627574654e616d653d2273746172744f6666736574222066726f6d3d2230252220746f3d22313030252220626567696e3d22307322206475723d2233307322203c67207374796c653d227472616e73666f726d3a7472616e736c61746528323970782c20343434707829223e3c636972636c65207374796c653d227472616e73666f726d3a7472616e736c6174653364283c7376672077696474683d2732393027206865696768743d27353030272076696577426f783d2730203020323930203530302720786d6c6e733d27687474703a2f2f7777772e77332e6f72672f323030302f737667273e3c636972636c652063783d27203c67207374796c653d2266696c7465723a75726c2823746f702d726567696f6e2d626c7572293b207472616e73666f726d3a7363616c6528312e35293b207472616e73666f726d2d6f726967696e3a63656e74657220746f703b223e22202f3e3c6665426c656e64206d6f64653d226f7665726c61792220696e3d2270302220696e323d22703122202f3e3c6665426c656e64206d6f64653d226578636c7573696f6e2220696e323d22703222202f3e3c6665426c656e64206d6f64653d226f7665726c61792220696e323d2270332220726573756c743d22626c656e644f757422202f3e3c6665476175737369616e426c7572203c706174682069643d226d696e696d61702220643d224d3233342034343443323334203435372e393439203234322e323120343633203235332034363322202f3e3c6d61736b2069643d226e6f6e6522206d61736b436f6e74656e74556e6974733d226f626a656374426f756e64696e67426f78223e3c726563742077696474683d223122206865696768743d2231222066696c6c3d22776869746522202f3e3c2f6d61736b3e2220783d223070782220793d22307078222077696474683d22323930707822206865696768743d22353030707822202f3e203c616e696d6174652061646469746976653d2273756d22206174747269627574654e616d653d2273746172744f6666736574222066726f6d3d2230252220746f3d22313030252220626567696e3d22307322206475723d223330732220726570656174436f756e743d22696e646566696e69746522202f3e3c7465787420783d22313270782220793d22313770782220666f6e742d66616d696c793d2227436f7572696572204e6577272c206d6f6e6f73706163652220666f6e742d73697a653d2231327078222066696c6c3d227768697465223e3c747370616e2066696c6c3d2272676261283235352c3235352c3235352c302e3629223e4d696e205469636b3a203c2f747370616e3e3c74657874506174682073746172744f66667365743d222d31303025222066696c6c3d2277686974652220666f6e742d66616d696c793d2227436f7572696572204e6577272c206d6f6e6f73706163652220666f6e742d73697a653d22313070782220786c696e6b3a687265663d2223746578742d706174682d61223e3c6c696e6561724772616469656e742069643d22677261642d646f776e222078313d2230222078323d2231222079313d2230222079323d2231223e3c73746f70206f66667365743d22302e30222073746f702d636f6c6f723d227768697465222073746f702d6f7061636974793d223122202f3e3c73746f70206f66667365743d22302e39222073746f702d636f6c6f723d227768697465222073746f702d6f7061636974793d223022202f3e3c2f6c696e6561724772616469656e743e3c66696c7465722069643d226631223e3c6665496d61676520726573756c743d2270302220786c696e6b3a687265663d22646174613a696d6167652f7376672b786d6c3b6261736536342c3c7376672077696474683d2732393027206865696768743d27353030272076696577426f783d2730203020323930203530302720786d6c6e733d27687474703a2f2f7777772e77332e6f72672f323030302f737667273e3c726563742077696474683d27323930707827206865696768743d273530307078272066696c6c3d2723222f3e3c6665496d61676520726573756c743d2270322220786c696e6b3a687265663d22646174613a696d6167652f7376672b786d6c3b6261736536342c3c656c6c697073652063783d22353025222063793d22307078222072783d223138307078222072793d223132307078222066696c6c3d222330303022206f7061636974793d22302e383522202f3e3c2f673e707822206865696768743d2232367078222072783d22387078222072793d22387078222066696c6c3d227267626128302c302c302c302e362922202f3e70782220723d22347078222066696c6c3d22776869746522202f3e3c636972636c652063783d2231312e333437384c32342031324c31342e343334312031322e363532324c32322e333932332031384c31332e373831392031332e373831394c31382032322e333932334c31322e363532322031342e343334314c31322032344c31312e333437382031342e343334314c362032322e33393c726563742066696c6c3d226e6f6e652220783d223070782220793d22307078222077696474683d22323930707822206865696768743d22353030707822202f3e4142434445464748494a4b4c4d4e4f505152535455565758595a6162636465666768696a6b6c6d6e6f707172737475767778797a303132333435363738392b2f20786d6c6e733a786c696e6b3d27687474703a2f2f7777772e77332e6f72672f313939392f786c696e6b273e3c6c696e6561724772616469656e742069643d22677261642d73796d626f6c223e3c73746f70206f66667365743d22302e37222073746f702d636f6c6f723d227768697465222073746f702d6f7061636974793d223122202f3e3c73746f70206f66667365743d222e3935222073746f702d636f6c6f723d227768697465222073746f702d6f7061636974793d223022202f3e3c2f6c696e6561724772616469656e743e207374796c653d227472616e73666f726d3a7472616e736c61746528373270782c313839707829223e3c7265637420783d222d313670782220793d222d31367078222077696474683d22313830707822206865696768743d223138307078222066696c6c3d226e6f6e6522202f3e3c7061746820643d22207374796c653d227472616e73666f726d3a7472616e736c61746528373270782c313839707829223e70782220723d2232347078222066696c6c3d226e6f6e6522207374726f6b653d22776869746522202f3e3c7265637420783d222d313670782220793d222d31367078222077696474683d22313830707822206865696768743d223138307078222066696c6c3d226e6f6e6522202f3e536166654d6174683a206d756c7469706c69636174696f6e206f766572666c6f773c673e3c70617468207374796c653d227472616e73666f726d3a7472616e736c617465283670782c367078292220643d224d313220304c31322e3635323220392e35363538374c313820312e363037374c31332e373831392031302e323138314c32322e3339323320364c31342e34333431203c70617468207374726f6b652d6c696e656361703d22726f756e642220643d224d38203943382e30303030342032322e393439342031362e32303939203238203237203238222066696c6c3d226e6f6e6522207374726f6b653d22776869746522202f3e20726570656174436f756e743d22696e646566696e69746522202f3e3c2f74657874506174683e3c74657874506174682073746172744f66667365743d222d353025222066696c6c3d2277686974652220666f6e742d66616d696c793d2227436f7572696572204e6577272c206d6f6e6f73706163652220666f6e742d73697a653d22313070782220786c696e6b3a687265663d2223746578742d706174682d61223e3c6d61736b2069643d22666164652d646f776e22206d61736b436f6e74656e74556e6974733d226f626a656374426f756e64696e67426f78223e3c726563742077696474683d223122206865696768743d2231222066696c6c3d2275726c2823677261642d646f776e2922202f3e3c2f6d61736b3e22207374726f6b653d2272676261283235352c3235352c3235352c3129222066696c6c3d226e6f6e6522207374726f6b652d6c696e656361703d22726f756e6422202f3e3c2f673e696e3d22626c656e644f75742220737464446576696174696f6e3d22343222202f3e3c2f66696c7465723e203c636c6970506174682069643d22636f726e657273223e3c726563742077696474683d2232393022206865696768743d22353030222072783d223432222072793d22343222202f3e3c2f636c6970506174683e203c67207374796c653d227472616e73666f726d3a7472616e736c61746528323970782c20333834707829223e3c6c696e6561724772616469656e742069643d22677261642d7570222078313d2231222078323d2230222079313d2231222079323d2230223e3c73746f70206f66667365743d22302e30222073746f702d636f6c6f723d227768697465222073746f702d6f7061636974793d223122202f3e32334c31302e323138312031332e373831394c312e363037372031384c392e35363538372031322e363532324c302031324c392e35363538372031312e333437384c312e3630373720364c31302e323138312031302e323138314c3620312e363037374c31312e3334373820392e35363538374c313220305a222066696c6c3d22776869746522202f3e3c67207374796c653d227472616e73666f726d3a7472616e736c6174652832323670782c20333932707829223e3c726563742077696474683d223336707822206865696768743d2233367078222072783d22387078222072793d22387078222066696c6c3d226e6f6e6522207374726f6b653d2272676261283235352c3235352c3235352c302e322922202f3e3c74657874506174682073746172744f66667365743d22353025222066696c6c3d2277686974652220666f6e742d66616d696c793d2227436f7572696572204e6577272c206d6f6e6f73706163652220666f6e742d73697a653d22313070782220786c696e6b3a687265663d2223746578742d706174682d61223e3c7465787420783d22313270782220793d22313770782220666f6e742d66616d696c793d2227436f7572696572204e6577272c206d6f6e6f73706163652220666f6e742d73697a653d2231327078222066696c6c3d227768697465223e3c747370616e2066696c6c3d2272676261283235352c3235352c3235352c302e3629223e4d6178205469636b3a203c2f747370616e3e3c616e696d6174655472616e73666f726d206174747269627574654e616d653d227472616e73666f726d2220747970653d22726f74617465222066726f6d3d22302031382031382220746f3d2233363020313820313822206475723d223130732220726570656174436f756e743d22696e646566696e697465222f3e3c2f673e3c2f673e3c706174682069643d22746578742d706174682d612220643d224d34302031322048323530204132382032382030203020312032373820343020563436302041323820323820302030203120323530203438382048343020413238203238203020302031203132203436302056343020413238203238203020302031203430203132207a22202f3e222f3e3c6665496d61676520726573756c743d2270312220786c696e6b3a687265663d22646174613a696d6167652f7376672b786d6c3b6261736536342c3c6d61736b2069643d22666164652d73796d626f6c22206d61736b436f6e74656e74556e6974733d227573657253706163654f6e557365223e3c726563742077696474683d22323930707822206865696768743d223230307078222066696c6c3d2275726c2823677261642d73796d626f6c2922202f3e3c2f6d61736b3e3c2f646566733e3c7265637420783d22302220793d2230222077696474683d2232393022206865696768743d22353030222072783d223432222072793d223432222066696c6c3d227267626128302c302c302c302922207374726f6b653d2272676261283235352c3235352c3235352c302e322922202f3e3c2f673e3c66696c7465722069643d22746f702d726567696f6e2d626c7572223e3c6665476175737369616e426c757220696e3d22536f75726365477261706869632220737464446576696174696f6e3d22323422202f3e3c2f66696c7465723e3c2f74657874506174683e203c74657874506174682073746172744f66667365743d223025222066696c6c3d2277686974652220666f6e742d66616d696c793d2227436f7572696572204e6577272c206d6f6e6f73706163652220666f6e742d73697a653d22313070782220786c696e6b3a687265663d2223746578742d706174682d61223e3c7465787420746578742d72656e646572696e673d226f7074696d697a655370656564223e5369676e6564536166654d6174683a207375627472616374696f6e206f766572666c6f773c7265637420783d2231362220793d223136222077696474683d2232353822206865696768743d22343638222072783d223236222072793d223236222066696c6c3d227267626128302c302c302c302922207374726f6b653d2272676261283235352c3235352c3235352c302e322922202f3e3c7465787420783d22313270782220793d22313770782220666f6e742d66616d696c793d2227436f7572696572204e6577272c206d6f6e6f73706163652220666f6e742d73697a653d2231327078222066696c6c3d227768697465223e3c747370616e2066696c6c3d2272676261283235352c3235352c3235352c302e3629223e49443a203c2f747370616e3e3c726563742077696474683d223336707822206865696768743d2233367078222072783d22387078222072793d22387078222066696c6c3d226e6f6e6522207374726f6b653d2272676261283235352c3235352c3235352c302e322922202f3e3c2f746578743e3c7465787420793d2231313570782220783d2233327078222066696c6c3d2277686974652220666f6e742d66616d696c793d2227436f7572696572204e6577272c206d6f6e6f73706163652220666f6e742d7765696768743d223230302220666f6e742d73697a653d2233367078223e3c2f746578743e3c2f673e3c67207374796c653d227472616e73666f726d3a7472616e736c6174652832323670782c20343333707829223e203c67207374796c653d227472616e73666f726d3a7472616e736c61746528323970782c20343134707829223ea2646970667358221220e99be626eba28afb246ec77359423d1174e753bb2f037a483e7519dc0c77700c64736f6c63430007060033",
  "immutableReferences": {},
  "source": "// SPDX-License-Identifier: UNLICENSED\npragma solidity =0.7.6;\npragma abicoder v2;\n\nimport '../libraries/NFTDescriptor.sol';\nimport '../libraries/NFTSVG.sol';\nimport '../libraries/HexStrings.sol';\n\ncontract NFTDescriptorTest {\n    using HexStrings for uint256;\n\n    function constructTokenURI(NFTDescriptor.ConstructTokenURIParams calldata params)\n        public\n        pure\n        returns (string memory)\n    {\n        return NFTDescriptor.constructTokenURI(params);\n    }\n\n    function getGasCostOfConstructTokenURI(NFTDescriptor.ConstructTokenURIParams calldata params)\n        public\n        view\n        returns (uint256)\n    {\n        uint256 gasBefore = gasleft();\n        NFTDescriptor.constructTokenURI(params);\n        return gasBefore - gasleft();\n    }\n\n    function tickToDecimalString(\n        int24 tick,\n        int24 tickSpacing,\n        uint8 token0Decimals,\n        uint8 token1Decimals,\n        bool flipRatio\n    ) public pure returns (string memory) {\n        return NFTDescriptor.tickToDecimalString(tick, tickSpacing, token0Decimals, token1Decimals, flipRatio);\n    }\n\n    function fixedPointToDecimalString(\n        uint160 sqrtRatioX96,\n        uint8 token0Decimals,\n        uint8 token1Decimals\n    ) public pure returns (string memory) {\n        return NFTDescriptor.fixedPointToDecimalString(sqrtRatioX96, token0Decimals, token1Decimals);\n    }\n\n    function feeToPercentString(uint24 fee) public pure returns (string memory) {\n        return NFTDescriptor.feeToPercentString(fee);\n    }\n\n    function addressToString(address _address) public pure returns (string memory) {\n        return NFTDescriptor.addressToString(_address);\n    }\n\n    function generateSVGImage(NFTDescriptor.ConstructTokenURIParams memory params) public pure returns (string memory) {\n        return NFTDescriptor.generateSVGImage(params);\n    }\n\n    function tokenToColorHex(address token, uint256 offset) public pure returns (string memory) {\n        return NFTDescriptor.tokenToColorHex(uint256(token), offset);\n    }\n\n    function sliceTokenHex(address token, uint256 offset) public pure returns (uint256) {\n        return NFTDescriptor.sliceTokenHex(uint256(token), offset);\n    }\n\n    function rangeLocation(int24 tickLower, int24 tickUpper) public pure returns (string memory, string memory) {\n        return NFTSVG.rangeLocation(tickLower, tickUpper);\n    }\n\n    function isRare(uint256 tokenId, address poolAddress) public pure returns (bool) {\n        return NFTSVG.isRare(tokenId, poolAddress);\n    }\n}\n",
  "sourcePath": "/Users/zena/ico2.0/ico20-contracts/uniswap-v3-periphery/contracts/test/NFTDescriptorTest.sol",
  "compiler": {
    "name": "solc",
    "version": "0.7.6+commit.7338295f.Emscripten.clang"
  },
  "schemaVersion": "3.3.4",
  "updatedAt": "2021-07-12T13:31:40.155Z",
  "devdoc": {
    "kind": "dev",
    "methods": {},
    "version": 1
  },
  "userdoc": {
    "kind": "user",
    "methods": {},
    "version": 1
  }
}