{
  "contractName": "OracleTest",
  "abi": [
    {
      "inputs": [
        {
          "internalType": "address",
          "name": "pool",
          "type": "address"
        },
        {
          "internalType": "uint32",
          "name": "period",
          "type": "uint32"
        }
      ],
      "name": "consult",
      "outputs": [
        {
          "internalType": "int24",
          "name": "timeWeightedAverageTick",
          "type": "int24"
        }
      ],
      "stateMutability": "view",
      "type": "function"
    },
    {
      "inputs": [
        {
          "internalType": "int24",
          "name": "tick",
          "type": "int24"
        },
        {
          "internalType": "uint128",
          "name": "baseAmount",
          "type": "uint128"
        },
        {
          "internalType": "address",
          "name": "baseToken",
          "type": "address"
        },
        {
          "internalType": "address",
          "name": "quoteToken",
          "type": "address"
        }
      ],
      "name": "getQuoteAtTick",
      "outputs": [
        {
          "internalType": "uint256",
          "name": "quoteAmount",
          "type": "uint256"
        }
      ],
      "stateMutability": "pure",
      "type": "function"
    },
    {
      "inputs": [
        {
          "internalType": "address",
          "name": "pool",
          "type": "address"
        },
        {
          "internalType": "uint32",
          "name": "period",
          "type": "uint32"
        }
      ],
      "name": "getGasCostOfConsult",
      "outputs": [
        {
          "internalType": "uint256",
          "name": "",
          "type": "uint256"
        }
      ],
      "stateMutability": "view",
      "type": "function"
    },
    {
      "inputs": [
        {
          "internalType": "int24",
          "name": "tick",
          "type": "int24"
        },
        {
          "internalType": "uint128",
          "name": "baseAmount",
          "type": "uint128"
        },
        {
          "internalType": "address",
          "name": "baseToken",
          "type": "address"
        },
        {
          "internalType": "address",
          "name": "quoteToken",
          "type": "address"
        }
      ],
      "name": "getGasCostOfGetQuoteAtTick",
      "outputs": [
        {
          "internalType": "uint256",
          "name": "",
          "type": "uint256"
        }
      ],
      "stateMutability": "view",
      "type": "function"
    }
  ],
  "bytecode": "0x608060405234801561001057600080fd5b506109c8806100206000396000f3fe608060405234801561001057600080fd5b506004361061004c5760003560e01c806343c57a27146100515780636a816ff9146100a957806382413489146100ef578063bbe8f41914610138575b600080fd5b6100976004803603608081101561006757600080fd5b50803560020b906001600160801b03602082013516906001600160a01b036040820135811691606001351661016a565b60408051918252519081900360200190f35b610097600480360360808110156100bf57600080fd5b50803560020b906001600160801b03602082013516906001600160a01b0360408201358116916060013516610181565b6101216004803603604081101561010557600080fd5b5080356001600160a01b0316906020013563ffffffff166101a0565b6040805160029290920b8252519081900360200190f35b6100976004803603604081101561014e57600080fd5b5080356001600160a01b0316906020013563ffffffff166101b3565b6000610178858585856101ce565b95945050505050565b6000805a9050610193868686866101ce565b505a900395945050505050565b60006101ac83836102c0565b9392505050565b6000805a90506101c384846102c0565b505a90039392505050565b6000806101da866105bc565b90506001600160801b036001600160a01b03821611610249576001600160a01b038082168002908481169086161061022957610224600160c01b876001600160801b0316836108e3565b610241565b61024181876001600160801b0316600160c01b6108e3565b9250506102b7565b60006102636001600160a01b03831680600160401b6108e3565b9050836001600160a01b0316856001600160a01b03161061029b57610296600160801b876001600160801b0316836108e3565b6102b3565b6102b381876001600160801b0316600160801b6108e3565b9250505b50949350505050565b600063ffffffff82166102ff576040805162461bcd60e51b8152602060048201526002602482015261042560f41b604482015290519081900360640190fd5b604080516002808252606082018352600092602083019080368337019050509050828160008151811061032e57fe5b602002602001019063ffffffff16908163ffffffff168152505060008160018151811061035757fe5b63ffffffff90921660209283029190910182015260405163883bdbfd60e01b8152600481018281528351602483015283516000936001600160a01b0389169363883bdbfd938793909283926044019185820191028083838b5b838110156103c85781810151838201526020016103b0565b505050509050019250505060006040518083038186803b1580156103eb57600080fd5b505afa1580156103ff573d6000803e3d6000fd5b505050506040513d6000823e601f3d908101601f19168201604090815281101561042857600080fd5b8101908080516040519392919084600160201b82111561044757600080fd5b90830190602082018581111561045c57600080fd5b82518660208202830111600160201b8211171561047857600080fd5b82525081516020918201928201910280838360005b838110156104a557818101518382015260200161048d565b5050505090500160405260200180516040519392919084600160201b8211156104cd57600080fd5b9083019060208201858111156104e257600080fd5b82518660208202830111600160201b821117156104fe57600080fd5b82525081516020918201928201910280838360005b8381101561052b578181015183820152602001610513565b5050505090500160405250505050905060008160008151811061054a57fe5b60200260200101518260018151811061055f57fe5b60200260200101510390508463ffffffff168160060b8161057c57fe5b05935060008160060b1280156105a657508463ffffffff168160060b8161059f57fe5b0760060b15155b156105b357600019909301925b50505092915050565b60008060008360020b126105d3578260020b6105db565b8260020b6000035b9050620d89e8811115610619576040805162461bcd60e51b81526020600482015260016024820152601560fa1b604482015290519081900360640190fd5b60006001821661062d57600160801b61063f565b6ffffcb933bd6fad37aa2d162d1a5940015b6001600160881b031690506002821615610669576ffff97272373d413259a46990580e213a0260801c5b6004821615610688576ffff2e50f5f656932ef12357cf3c7fdcc0260801c5b60088216156106a7576fffe5caca7e10e4e61c3624eaa0941cd00260801c5b60108216156106c6576fffcb9843d60f6159c9db58835c9266440260801c5b60208216156106e5576fff973b41fa98c081472e6896dfb254c00260801c5b6040821615610704576fff2ea16466c96a3843ec78b326b528610260801c5b6080821615610723576ffe5dee046a99a2a811c461f1969c30530260801c5b610100821615610743576ffcbe86c7900a88aedcffc83b479aa3a40260801c5b610200821615610763576ff987a7253ac413176f2b074cf7815e540260801c5b610400821615610783576ff3392b0822b70005940c7a398e4b70f30260801c5b6108008216156107a3576fe7159475a2c29b7443b29c7fa6e889d90260801c5b6110008216156107c3576fd097f3bdfd2022b8845ad8f792aa58250260801c5b6120008216156107e3576fa9f746462d870fdf8a65dc1f90e061e50260801c5b614000821615610803576f70d869a156d2a1b890bb3df62baf32f70260801c5b618000821615610823576f31be135f97d08fd981231505542fcfa60260801c5b62010000821615610844576f09aa508b5b7a84e1c677de54f3e99bc90260801c5b62020000821615610864576e5d6af8dedb81196699c329225ee6040260801c5b62040000821615610883576d2216e584f5fa1ea926041bedfe980260801c5b620800008216156108a0576b048a170391f7dc42444e8fa20260801c5b60008460020b13156108bb5780600019816108b757fe5b0490505b600160201b8106156108ce5760016108d1565b60005b60ff16602082901c0192505050919050565b6000808060001985870986860292508281109083900303905080610919576000841161090e57600080fd5b5082900490506101ac565b80841161092557600080fd5b6000848688096000868103871696879004966002600389028118808a02820302808a02820302808a02820302808a02820302808a02820302808a0290910302918190038190046001018684119095039490940291909403929092049190911791909102915050939250505056fea26469706673582212207e776f09f08aa3919395b08e88f2588c7a0cf92c0eabcac9b60895d862f2c5ec64736f6c63430007060033",
  "immutableReferences": {},
  "source": "// SPDX-License-Identifier: UNLICENSED\npragma solidity =0.7.6;\n\nimport '../libraries/OracleLibrary.sol';\n\ncontract OracleTest {\n    function consult(address pool, uint32 period) public view returns (int24 timeWeightedAverageTick) {\n        timeWeightedAverageTick = OracleLibrary.consult(pool, period);\n    }\n\n    function getQuoteAtTick(\n        int24 tick,\n        uint128 baseAmount,\n        address baseToken,\n        address quoteToken\n    ) public pure returns (uint256 quoteAmount) {\n        quoteAmount = OracleLibrary.getQuoteAtTick(tick, baseAmount, baseToken, quoteToken);\n    }\n\n    // For gas snapshot test\n    function getGasCostOfConsult(address pool, uint32 period) public view returns (uint256) {\n        uint256 gasBefore = gasleft();\n        OracleLibrary.consult(pool, period);\n        return gasBefore - gasleft();\n    }\n\n    function getGasCostOfGetQuoteAtTick(\n        int24 tick,\n        uint128 baseAmount,\n        address baseToken,\n        address quoteToken\n    ) public view returns (uint256) {\n        uint256 gasBefore = gasleft();\n        OracleLibrary.getQuoteAtTick(tick, baseAmount, baseToken, quoteToken);\n        return gasBefore - gasleft();\n    }\n}\n",
  "sourcePath": "/Users/zena/ico2.0/ico20-contracts/uniswap-v3-periphery/contracts/test/OracleTest.sol",
  "compiler": {
    "name": "solc",
    "version": "0.7.6+commit.7338295f.Emscripten.clang"
  },
  "schemaVersion": "3.3.4",
  "updatedAt": "2021-07-12T13:31:40.161Z",
  "devdoc": {
    "kind": "dev",
    "methods": {},
    "version": 1
  },
  "userdoc": {
    "kind": "user",
    "methods": {},
    "version": 1
  }
}