{
  "contractName": "TestERC20PermitAllowed",
  "abi": [
    {
      "inputs": [
        {
          "internalType": "uint256",
          "name": "amountToMint",
          "type": "uint256"
        }
      ],
      "stateMutability": "nonpayable",
      "type": "constructor"
    },
    {
      "anonymous": false,
      "inputs": [
        {
          "indexed": true,
          "internalType": "address",
          "name": "owner",
          "type": "address"
        },
        {
          "indexed": true,
          "internalType": "address",
          "name": "spender",
          "type": "address"
        },
        {
          "indexed": false,
          "internalType": "uint256",
          "name": "value",
          "type": "uint256"
        }
      ],
      "name": "Approval",
      "type": "event"
    },
    {
      "anonymous": false,
      "inputs": [
        {
          "indexed": true,
          "internalType": "address",
          "name": "from",
          "type": "address"
        },
        {
          "indexed": true,
          "internalType": "address",
          "name": "to",
          "type": "address"
        },
        {
          "indexed": false,
          "internalType": "uint256",
          "name": "value",
          "type": "uint256"
        }
      ],
      "name": "Transfer",
      "type": "event"
    },
    {
      "inputs": [],
      "name": "DOMAIN_SEPARATOR",
      "outputs": [
        {
          "internalType": "bytes32",
          "name": "",
          "type": "bytes32"
        }
      ],
      "stateMutability": "view",
      "type": "function"
    },
    {
      "inputs": [
        {
          "internalType": "address",
          "name": "owner",
          "type": "address"
        },
        {
          "internalType": "address",
          "name": "spender",
          "type": "address"
        }
      ],
      "name": "allowance",
      "outputs": [
        {
          "internalType": "uint256",
          "name": "",
          "type": "uint256"
        }
      ],
      "stateMutability": "view",
      "type": "function"
    },
    {
      "inputs": [
        {
          "internalType": "address",
          "name": "spender",
          "type": "address"
        },
        {
          "internalType": "uint256",
          "name": "amount",
          "type": "uint256"
        }
      ],
      "name": "approve",
      "outputs": [
        {
          "internalType": "bool",
          "name": "",
          "type": "bool"
        }
      ],
      "stateMutability": "nonpayable",
      "type": "function"
    },
    {
      "inputs": [
        {
          "internalType": "address",
          "name": "account",
          "type": "address"
        }
      ],
      "name": "balanceOf",
      "outputs": [
        {
          "internalType": "uint256",
          "name": "",
          "type": "uint256"
        }
      ],
      "stateMutability": "view",
      "type": "function"
    },
    {
      "inputs": [],
      "name": "decimals",
      "outputs": [
        {
          "internalType": "uint8",
          "name": "",
          "type": "uint8"
        }
      ],
      "stateMutability": "view",
      "type": "function"
    },
    {
      "inputs": [
        {
          "internalType": "address",
          "name": "spender",
          "type": "address"
        },
        {
          "internalType": "uint256",
          "name": "subtractedValue",
          "type": "uint256"
        }
      ],
      "name": "decreaseAllowance",
      "outputs": [
        {
          "internalType": "bool",
          "name": "",
          "type": "bool"
        }
      ],
      "stateMutability": "nonpayable",
      "type": "function"
    },
    {
      "inputs": [
        {
          "internalType": "address",
          "name": "spender",
          "type": "address"
        },
        {
          "internalType": "uint256",
          "name": "addedValue",
          "type": "uint256"
        }
      ],
      "name": "increaseAllowance",
      "outputs": [
        {
          "internalType": "bool",
          "name": "",
          "type": "bool"
        }
      ],
      "stateMutability": "nonpayable",
      "type": "function"
    },
    {
      "inputs": [],
      "name": "name",
      "outputs": [
        {
          "internalType": "string",
          "name": "",
          "type": "string"
        }
      ],
      "stateMutability": "view",
      "type": "function"
    },
    {
      "inputs": [
        {
          "internalType": "address",
          "name": "owner",
          "type": "address"
        }
      ],
      "name": "nonces",
      "outputs": [
        {
          "internalType": "uint256",
          "name": "",
          "type": "uint256"
        }
      ],
      "stateMutability": "view",
      "type": "function"
    },
    {
      "inputs": [],
      "name": "symbol",
      "outputs": [
        {
          "internalType": "string",
          "name": "",
          "type": "string"
        }
      ],
      "stateMutability": "view",
      "type": "function"
    },
    {
      "inputs": [],
      "name": "totalSupply",
      "outputs": [
        {
          "internalType": "uint256",
          "name": "",
          "type": "uint256"
        }
      ],
      "stateMutability": "view",
      "type": "function"
    },
    {
      "inputs": [
        {
          "internalType": "address",
          "name": "recipient",
          "type": "address"
        },
        {
          "internalType": "uint256",
          "name": "amount",
          "type": "uint256"
        }
      ],
      "name": "transfer",
      "outputs": [
        {
          "internalType": "bool",
          "name": "",
          "type": "bool"
        }
      ],
      "stateMutability": "nonpayable",
      "type": "function"
    },
    {
      "inputs": [
        {
          "internalType": "address",
          "name": "sender",
          "type": "address"
        },
        {
          "internalType": "address",
          "name": "recipient",
          "type": "address"
        },
        {
          "internalType": "uint256",
          "name": "amount",
          "type": "uint256"
        }
      ],
      "name": "transferFrom",
      "outputs": [
        {
          "internalType": "bool",
          "name": "",
          "type": "bool"
        }
      ],
      "stateMutability": "nonpayable",
      "type": "function"
    },
    {
      "inputs": [
        {
          "internalType": "address",
          "name": "holder",
          "type": "address"
        },
        {
          "internalType": "address",
          "name": "spender",
          "type": "address"
        },
        {
          "internalType": "uint256",
          "name": "nonce",
          "type": "uint256"
        },
        {
          "internalType": "uint256",
          "name": "expiry",
          "type": "uint256"
        },
        {
          "internalType": "bool",
          "name": "allowed",
          "type": "bool"
        },
        {
          "internalType": "uint8",
          "name": "v",
          "type": "uint8"
        },
        {
          "internalType": "bytes32",
          "name": "r",
          "type": "bytes32"
        },
        {
          "internalType": "bytes32",
          "name": "s",
          "type": "bytes32"
        }
      ],
      "name": "permit",
      "outputs": [],
      "stateMutability": "nonpayable",
      "type": "function"
    },
    {
      "inputs": [
        {
          "internalType": "address",
          "name": "owner",
          "type": "address"
        },
        {
          "internalType": "address",
          "name": "spender",
          "type": "address"
        },
        {
          "internalType": "uint256",
          "name": "value",
          "type": "uint256"
        },
        {
          "internalType": "uint256",
          "name": "deadline",
          "type": "uint256"
        },
        {
          "internalType": "uint8",
          "name": "v",
          "type": "uint8"
        },
        {
          "internalType": "bytes32",
          "name": "r",
          "type": "bytes32"
        },
        {
          "internalType": "bytes32",
          "name": "s",
          "type": "bytes32"
        }
      ],
      "name": "permit",
      "outputs": [],
      "stateMutability": "nonpayable",
      "type": "function"
    }
  ],
  "bytecode": "0x6101406040527f6e71edae12b1b97f4d1f60370fef10105fa2faae0126114a169c64845d6126c9610120523480156200003757600080fd5b506040516200157c3803806200157c833981810160405260208110156200005d57600080fd5b5051604080518082018252600a808252690546573742045524332360b41b60208381018290528451808601865260018152603160f81b818301528551808701875293845283820192835285518087019096526004865263151154d560e21b9186019190915282518695859492939091620000da916003916200035a565b508051620000f09060049060208401906200035a565b50506005805460ff1916601217905550815160208084019190912082519183019190912060c082905260e08190527f8b73c3c69bb8fe3d512ecc4cf759cc79239f7b179b0ffacaa9a75d522b39400f620001496200017c565b60a0526200015981848462000180565b608052610100525062000174935033925084915050620001e4565b505062000406565b4690565b60008383836200018f6200017c565b3060405160200180868152602001858152602001848152602001838152602001826001600160a01b03168152602001955050505050506040516020818303038152906040528051906020012090509392505050565b6001600160a01b03821662000240576040805162461bcd60e51b815260206004820152601f60248201527f45524332303a206d696e7420746f20746865207a65726f206164647265737300604482015290519081900360640190fd5b6200024e60008383620002f3565b6200026a81600254620002f860201b620009461790919060201c565b6002556001600160a01b038216600090815260208181526040909120546200029d91839062000946620002f8821b17901c565b6001600160a01b0383166000818152602081815260408083209490945583518581529351929391927fddf252ad1be2c89b69c2b068fc378daa952ba7f163c4a11628f55a4df523b3ef9281900390910190a35050565b505050565b60008282018381101562000353576040805162461bcd60e51b815260206004820152601b60248201527f536166654d6174683a206164646974696f6e206f766572666c6f770000000000604482015290519081900360640190fd5b9392505050565b828054600181600116156101000203166002900490600052602060002090601f016020900481019282620003925760008555620003dd565b82601f10620003ad57805160ff1916838001178555620003dd565b82800160010185558215620003dd579182015b82811115620003dd578251825591602001919060010190620003c0565b50620003eb929150620003ef565b5090565b5b80821115620003eb5760008155600101620003f0565b60805160a05160c05160e051610100516101205161112c62000450600039806107d3525080610ce6525080610d28525080610d07525080610c8d525080610cbd525061112c6000f3fe608060405234801561001057600080fd5b50600436106100d55760003560e01c806370a082311161008757806370a08231146102395780637ecebe001461025f5780638fcbaf0c1461028557806395d89b41146102e1578063a457c2d7146102e9578063a9059cbb14610315578063d505accf14610341578063dd62ed3e14610392576100d5565b806306fdde03146100da578063095ea7b31461015757806318160ddd1461019757806323b872dd146101b1578063313ce567146101e75780633644e51514610205578063395093511461020d575b600080fd5b6100e26103c0565b6040805160208082528351818301528351919283929083019185019080838360005b8381101561011c578181015183820152602001610104565b50505050905090810190601f1680156101495780820380516001836020036101000a031916815260200191505b509250505060405180910390f35b6101836004803603604081101561016d57600080fd5b506001600160a01b038135169060200135610457565b604080519115158252519081900360200190f35b61019f610474565b60408051918252519081900360200190f35b610183600480360360608110156101c757600080fd5b506001600160a01b0381358116916020810135909116906040013561047a565b6101ef610501565b6040805160ff9092168252519081900360200190f35b61019f61050a565b6101836004803603604081101561022357600080fd5b506001600160a01b038135169060200135610519565b61019f6004803603602081101561024f57600080fd5b50356001600160a01b0316610567565b61019f6004803603602081101561027557600080fd5b50356001600160a01b0316610582565b6102df600480360361010081101561029c57600080fd5b506001600160a01b038135811691602081013590911690604081013590606081013590608081013515159060ff60a0820135169060c08101359060e001356105a9565b005b6100e2610687565b610183600480360360408110156102ff57600080fd5b506001600160a01b0381351690602001356106e8565b6101836004803603604081101561032b57600080fd5b506001600160a01b038135169060200135610750565b6102df600480360360e081101561035757600080fd5b506001600160a01b03813581169160208101359091169060408101359060608101359060ff6080820135169060a08101359060c00135610764565b61019f600480360360408110156103a857600080fd5b506001600160a01b038135811691602001351661091b565b60038054604080516020601f600260001961010060018816150201909516949094049384018190048102820181019092528281526060939092909183018282801561044c5780601f106104215761010080835404028352916020019161044c565b820191906000526020600020905b81548152906001019060200180831161042f57829003601f168201915b505050505090505b90565b600061046b6104646109a7565b84846109ab565b50600192915050565b60025490565b6000610487848484610a97565b6104f7846104936109a7565b6104f285604051806060016040528060288152602001611061602891396001600160a01b038a166000908152600160205260408120906104d16109a7565b6001600160a01b031681526020810191909152604001600020549190610bf2565b6109ab565b5060019392505050565b60055460ff1690565b6000610514610c89565b905090565b600061046b6105266109a7565b846104f285600160006105376109a7565b6001600160a01b03908116825260208083019390935260409182016000908120918c168152925290205490610946565b6001600160a01b031660009081526020819052604090205490565b6001600160a01b03811660009081526006602052604081206105a390610d53565b92915050565b85306001600160a01b0316637ecebe008a6040518263ffffffff1660e01b815260040180826001600160a01b0316815260200191505060206040518083038186803b1580156105f757600080fd5b505afa15801561060b573d6000803e3d6000fd5b505050506040513d602081101561062157600080fd5b50511461065f5760405162461bcd60e51b815260040180806020018281038252602b815260200180610faa602b913960400191505060405180910390fd5b61067d888886610670576000610674565b6000195b88878787610764565b5050505050505050565b60048054604080516020601f600260001961010060018816150201909516949094049384018190048102820181019092528281526060939092909183018282801561044c5780601f106104215761010080835404028352916020019161044c565b600061046b6106f56109a7565b846104f2856040518060600160405280602581526020016110d2602591396001600061071f6109a7565b6001600160a01b03908116825260208083019390935260409182016000908120918d16815292529020549190610bf2565b600061046b61075d6109a7565b8484610a97565b834211156107b9576040805162461bcd60e51b815260206004820152601d60248201527f45524332305065726d69743a206578706972656420646561646c696e65000000604482015290519081900360640190fd5b6001600160a01b03871660009081526006602052604081207f00000000000000000000000000000000000000000000000000000000000000009089908990899061080290610d53565b8960405160200180878152602001866001600160a01b03168152602001856001600160a01b031681526020018481526020018381526020018281526020019650505050505050604051602081830303815290604052805190602001209050600061086b82610d57565b9050600061087b82878787610da3565b9050896001600160a01b0316816001600160a01b0316146108e3576040805162461bcd60e51b815260206004820152601e60248201527f45524332305065726d69743a20696e76616c6964207369676e61747572650000604482015290519081900360640190fd5b6001600160a01b038a16600090815260066020526040902061090490610f12565b61090f8a8a8a6109ab565b50505050505050505050565b6001600160a01b03918216600090815260016020908152604080832093909416825291909152205490565b6000828201838110156109a0576040805162461bcd60e51b815260206004820152601b60248201527f536166654d6174683a206164646974696f6e206f766572666c6f770000000000604482015290519081900360640190fd5b9392505050565b3390565b6001600160a01b0383166109f05760405162461bcd60e51b81526004018080602001828103825260248152602001806110ae6024913960400191505060405180910390fd5b6001600160a01b038216610a355760405162461bcd60e51b8152600401808060200182810382526022815260200180610fd56022913960400191505060405180910390fd5b6001600160a01b03808416600081815260016020908152604080832094871680845294825291829020859055815185815291517f8c5be1e5ebec7d5bd14f71427d1e84f3dd0314c0f7b2291e5b200ac8c7c3b9259281900390910190a3505050565b6001600160a01b038316610adc5760405162461bcd60e51b81526004018080602001828103825260258152602001806110896025913960400191505060405180910390fd5b6001600160a01b038216610b215760405162461bcd60e51b8152600401808060200182810382526023815260200180610f876023913960400191505060405180910390fd5b610b2c838383610f1b565b610b6981604051806060016040528060268152602001610ff7602691396001600160a01b0386166000908152602081905260409020549190610bf2565b6001600160a01b038085166000908152602081905260408082209390935590841681522054610b989082610946565b6001600160a01b038084166000818152602081815260409182902094909455805185815290519193928716927fddf252ad1be2c89b69c2b068fc378daa952ba7f163c4a11628f55a4df523b3ef92918290030190a3505050565b60008184841115610c815760405162461bcd60e51b81526004018080602001828103825283818151815260200191508051906020019080838360005b83811015610c46578181015183820152602001610c2e565b50505050905090810190601f168015610c735780820380516001836020036101000a031916815260200191505b509250505060405180910390fd5b505050900390565b60007f0000000000000000000000000000000000000000000000000000000000000000610cb4610f20565b1415610ce157507f0000000000000000000000000000000000000000000000000000000000000000610454565b610d4c7f00000000000000000000000000000000000000000000000000000000000000007f00000000000000000000000000000000000000000000000000000000000000007f0000000000000000000000000000000000000000000000000000000000000000610f24565b9050610454565b5490565b6000610d61610c89565b82604051602001808061190160f01b81525060020183815260200182815260200192505050604051602081830303815290604052805190602001209050919050565b60006fa2a8918ca85bafe22016d0b997e4df60600160ff1b03821115610dfa5760405162461bcd60e51b815260040180806020018281038252602281526020018061101d6022913960400191505060405180910390fd5b8360ff16601b1480610e0f57508360ff16601c145b610e4a5760405162461bcd60e51b815260040180806020018281038252602281526020018061103f6022913960400191505060405180910390fd5b600060018686868660405160008152602001604052604051808581526020018460ff1681526020018381526020018281526020019450505050506020604051602081039080840390855afa158015610ea6573d6000803e3d6000fd5b5050604051601f1901519150506001600160a01b038116610f09576040805162461bcd60e51b815260206004820152601860248201527745434453413a20696e76616c6964207369676e617475726560401b604482015290519081900360640190fd5b95945050505050565b80546001019055565b505050565b4690565b6000838383610f31610f20565b3060405160200180868152602001858152602001848152602001838152602001826001600160a01b0316815260200195505050505050604051602081830303815290604052805190602001209050939250505056fe45524332303a207472616e7366657220746f20746865207a65726f20616464726573735465737445524332305065726d6974416c6c6f7765643a3a7065726d69743a2077726f6e67206e6f6e636545524332303a20617070726f766520746f20746865207a65726f206164647265737345524332303a207472616e7366657220616d6f756e7420657863656564732062616c616e636545434453413a20696e76616c6964207369676e6174757265202773272076616c756545434453413a20696e76616c6964207369676e6174757265202776272076616c756545524332303a207472616e7366657220616d6f756e74206578636565647320616c6c6f77616e636545524332303a207472616e736665722066726f6d20746865207a65726f206164647265737345524332303a20617070726f76652066726f6d20746865207a65726f206164647265737345524332303a2064656372656173656420616c6c6f77616e63652062656c6f77207a65726fa2646970667358221220ffe4cbe7bb508676373c15a680c12b966ce083e5f3324af7830a90dc61cab87a64736f6c63430007060033",
  "immutableReferences": {
    "11865": [
      {
        "length": 32,
        "start": 3261
      }
    ],
    "11867": [
      {
        "length": 32,
        "start": 3213
      }
    ],
    "11869": [
      {
        "length": 32,
        "start": 3335
      }
    ],
    "11871": [
      {
        "length": 32,
        "start": 3368
      }
    ],
    "11873": [
      {
        "length": 32,
        "start": 3302
      }
    ],
    "12035": [
      {
        "length": 32,
        "start": 2003
      }
    ]
  },
  "source": "// SPDX-License-Identifier: UNLICENSED\npragma solidity =0.7.6;\n\nimport './TestERC20.sol';\nimport '../interfaces/external/IERC20PermitAllowed.sol';\n\n// has a fake permit that just uses the other signature type for type(uint256).max\ncontract TestERC20PermitAllowed is TestERC20, IERC20PermitAllowed {\n    constructor(uint256 amountToMint) TestERC20(amountToMint) {}\n\n    function permit(\n        address holder,\n        address spender,\n        uint256 nonce,\n        uint256 expiry,\n        bool allowed,\n        uint8 v,\n        bytes32 r,\n        bytes32 s\n    ) external override {\n        require(this.nonces(holder) == nonce, 'TestERC20PermitAllowed::permit: wrong nonce');\n        permit(holder, spender, allowed ? type(uint256).max : 0, expiry, v, r, s);\n    }\n}\n",
  "sourcePath": "/Users/zena/ico2.0/ico20-contracts/uniswap-v3-periphery/contracts/test/TestERC20PermitAllowed.sol",
  "compiler": {
    "name": "solc",
    "version": "0.7.6+commit.7338295f.Emscripten.clang"
  },
  "schemaVersion": "3.3.4",
  "updatedAt": "2021-07-12T13:31:40.170Z",
  "devdoc": {
    "kind": "dev",
    "methods": {
      "DOMAIN_SEPARATOR()": {
        "details": "See {IERC20Permit-DOMAIN_SEPARATOR}."
      },
      "allowance(address,address)": {
        "details": "See {IERC20-allowance}."
      },
      "approve(address,uint256)": {
        "details": "See {IERC20-approve}. Requirements: - `spender` cannot be the zero address."
      },
      "balanceOf(address)": {
        "details": "See {IERC20-balanceOf}."
      },
      "decimals()": {
        "details": "Returns the number of decimals used to get its user representation. For example, if `decimals` equals `2`, a balance of `505` tokens should be displayed to a user as `5,05` (`505 / 10 ** 2`). Tokens usually opt for a value of 18, imitating the relationship between Ether and Wei. This is the value {ERC20} uses, unless {_setupDecimals} is called. NOTE: This information is only used for _display_ purposes: it in no way affects any of the arithmetic of the contract, including {IERC20-balanceOf} and {IERC20-transfer}."
      },
      "decreaseAllowance(address,uint256)": {
        "details": "Atomically decreases the allowance granted to `spender` by the caller. This is an alternative to {approve} that can be used as a mitigation for problems described in {IERC20-approve}. Emits an {Approval} event indicating the updated allowance. Requirements: - `spender` cannot be the zero address. - `spender` must have allowance for the caller of at least `subtractedValue`."
      },
      "increaseAllowance(address,uint256)": {
        "details": "Atomically increases the allowance granted to `spender` by the caller. This is an alternative to {approve} that can be used as a mitigation for problems described in {IERC20-approve}. Emits an {Approval} event indicating the updated allowance. Requirements: - `spender` cannot be the zero address."
      },
      "name()": {
        "details": "Returns the name of the token."
      },
      "nonces(address)": {
        "details": "See {IERC20Permit-nonces}."
      },
      "permit(address,address,uint256,uint256,bool,uint8,bytes32,bytes32)": {
        "details": "This is the permit interface used by DAI and CHAI",
        "params": {
          "allowed": "Boolean that sets approval amount, true for type(uint256).max and false for 0",
          "expiry": "The timestamp at which the permit is no longer valid",
          "holder": "The address of the token holder, the token owner",
          "nonce": "The holder's nonce, increases at each call to permit",
          "r": "Must produce valid secp256k1 signature from the holder along with `v` and `s`",
          "s": "Must produce valid secp256k1 signature from the holder along with `r` and `v`",
          "spender": "The address of the token spender",
          "v": "Must produce valid secp256k1 signature from the holder along with `r` and `s`"
        }
      },
      "permit(address,address,uint256,uint256,uint8,bytes32,bytes32)": {
        "details": "See {IERC20Permit-permit}."
      },
      "symbol()": {
        "details": "Returns the symbol of the token, usually a shorter version of the name."
      },
      "totalSupply()": {
        "details": "See {IERC20-totalSupply}."
      },
      "transfer(address,uint256)": {
        "details": "See {IERC20-transfer}. Requirements: - `recipient` cannot be the zero address. - the caller must have a balance of at least `amount`."
      },
      "transferFrom(address,address,uint256)": {
        "details": "See {IERC20-transferFrom}. Emits an {Approval} event indicating the updated allowance. This is not required by the EIP. See the note at the beginning of {ERC20}. Requirements: - `sender` and `recipient` cannot be the zero address. - `sender` must have a balance of at least `amount`. - the caller must have allowance for ``sender``'s tokens of at least `amount`."
      }
    },
    "version": 1
  },
  "userdoc": {
    "kind": "user",
    "methods": {
      "permit(address,address,uint256,uint256,bool,uint8,bytes32,bytes32)": {
        "notice": "Approve the spender to spend some tokens via the holder signature"
      }
    },
    "version": 1
  }
}