{
  "contractName": "TestMulticall",
  "abi": [
    {
      "inputs": [
        {
          "internalType": "bytes[]",
          "name": "data",
          "type": "bytes[]"
        }
      ],
      "name": "multicall",
      "outputs": [
        {
          "internalType": "bytes[]",
          "name": "results",
          "type": "bytes[]"
        }
      ],
      "stateMutability": "payable",
      "type": "function"
    },
    {
      "inputs": [],
      "name": "paid",
      "outputs": [
        {
          "internalType": "uint256",
          "name": "",
          "type": "uint256"
        }
      ],
      "stateMutability": "view",
      "type": "function"
    },
    {
      "inputs": [
        {
          "internalType": "string",
          "name": "error",
          "type": "string"
        }
      ],
      "name": "functionThatRevertsWithError",
      "outputs": [],
      "stateMutability": "pure",
      "type": "function"
    },
    {
      "inputs": [
        {
          "internalType": "uint256",
          "name": "a",
          "type": "uint256"
        },
        {
          "internalType": "uint256",
          "name": "b",
          "type": "uint256"
        }
      ],
      "name": "functionThatReturnsTuple",
      "outputs": [
        {
          "components": [
            {
              "internalType": "uint256",
              "name": "a",
              "type": "uint256"
            },
            {
              "internalType": "uint256",
              "name": "b",
              "type": "uint256"
            }
          ],
          "internalType": "struct TestMulticall.Tuple",
          "name": "tuple",
          "type": "tuple"
        }
      ],
      "stateMutability": "pure",
      "type": "function"
    },
    {
      "inputs": [],
      "name": "pays",
      "outputs": [],
      "stateMutability": "payable",
      "type": "function"
    },
    {
      "inputs": [],
      "name": "returnSender",
      "outputs": [
        {
          "internalType": "address",
          "name": "",
          "type": "address"
        }
      ],
      "stateMutability": "view",
      "type": "function"
    }
  ],
  "bytecode": "0x608060405234801561001057600080fd5b50610627806100206000396000f3fe6080604052600436106100555760003560e01c8063295b4e171461005a57806334621235146100855780633b16a6a3146100a75780635170a9d0146100d4578063ac9650d8146100f6578063f3e2229714610116575b600080fd5b34801561006657600080fd5b5061006f61011e565b60405161007c9190610529565b60405180910390f35b34801561009157600080fd5b506100a56100a036600461033d565b610124565b005b3480156100b357600080fd5b506100c76100c2366004610427565b610147565b60405161007c9190610512565b3480156100e057600080fd5b506100e9610168565b60405161007c9190610484565b6101096101043660046102cf565b61016c565b60405161007c9190610498565b6100a56102ab565b60005481565b8060405162461bcd60e51b815260040161013e91906104f8565b60405180910390fd5b61014f6102b5565b5060408051808201909152908152602081019190915290565b3390565b6060816001600160401b038111801561018457600080fd5b506040519080825280602002602001820160405280156101b857816020015b60608152602001906001900390816101a35790505b50905060005b828110156102a457600080308686858181106101d657fe5b90506020028101906101e89190610532565b6040516101f6929190610474565b600060405180830381855af49150503d8060008114610231576040519150601f19603f3d011682016040523d82523d6000602084013e610236565b606091505b5091509150816102825760448151101561024f57600080fd5b6004810190508080602001905181019061026991906103b5565b60405162461bcd60e51b815260040161013e91906104f8565b8084848151811061028f57fe5b602090810291909101015250506001016101be565b5092915050565b6000805434019055565b604051806040016040528060008152602001600081525090565b600080602083850312156102e1578182fd5b82356001600160401b03808211156102f7578384fd5b818501915085601f83011261030a578384fd5b813581811115610318578485fd5b866020808302850101111561032b578485fd5b60209290920196919550909350505050565b60006020828403121561034e578081fd5b81356001600160401b03811115610363578182fd5b8201601f81018413610373578182fd5b8035610386610381826105a0565b61057d565b81815285602083850101111561039a578384fd5b81602084016020830137908101602001929092525092915050565b6000602082840312156103c6578081fd5b81516001600160401b038111156103db578182fd5b8201601f810184136103eb578182fd5b80516103f9610381826105a0565b81815285602083850101111561040d578384fd5b61041e8260208301602086016105c1565b95945050505050565b60008060408385031215610439578182fd5b50508035926020909101359150565b600081518084526104608160208601602086016105c1565b601f01601f19169290920160200192915050565b6000828483379101908152919050565b6001600160a01b0391909116815260200190565b6000602080830181845280855180835260408601915060408482028701019250838701855b828110156104eb57603f198886030184526104d9858351610448565b945092850192908501906001016104bd565b5092979650505050505050565b60006020825261050b6020830184610448565b9392505050565b815181526020918201519181019190915260400190565b90815260200190565b6000808335601e19843603018112610548578283fd5b8301803591506001600160401b03821115610561578283fd5b60200191503681900382131561057657600080fd5b9250929050565b6040518181016001600160401b038111828210171561059857fe5b604052919050565b60006001600160401b038211156105b357fe5b50601f01601f191660200190565b60005b838110156105dc5781810151838201526020016105c4565b838111156105eb576000848401525b5050505056fea264697066735822122082dd6c76f078b263bde5ca564907142762f046f28a837adbdf8f6aa70ab0452c64736f6c63430007060033",
  "immutableReferences": {},
  "source": "// SPDX-License-Identifier: UNLICENSED\npragma solidity =0.7.6;\npragma abicoder v2;\n\nimport '../base/Multicall.sol';\n\ncontract TestMulticall is Multicall {\n    function functionThatRevertsWithError(string memory error) external pure {\n        revert(error);\n    }\n\n    struct Tuple {\n        uint256 a;\n        uint256 b;\n    }\n\n    function functionThatReturnsTuple(uint256 a, uint256 b) external pure returns (Tuple memory tuple) {\n        tuple = Tuple({b: a, a: b});\n    }\n\n    uint256 public paid;\n\n    function pays() external payable {\n        paid += msg.value;\n    }\n\n    function returnSender() external view returns (address) {\n        return msg.sender;\n    }\n}\n",
  "sourcePath": "/Users/zena/ico2.0/ico20-contracts/uniswap-v3-periphery/contracts/test/TestMulticall.sol",
  "compiler": {
    "name": "solc",
    "version": "0.7.6+commit.7338295f.Emscripten.clang"
  },
  "schemaVersion": "3.3.4",
  "updatedAt": "2021-07-12T13:31:40.171Z",
  "devdoc": {
    "kind": "dev",
    "methods": {
      "multicall(bytes[])": {
        "details": "The `msg.value` should not be trusted for any method callable from multicall.",
        "params": {
          "data": "The encoded function data for each of the calls to make to this contract"
        },
        "returns": {
          "results": "The results from each of the calls passed in via data"
        }
      }
    },
    "version": 1
  },
  "userdoc": {
    "kind": "user",
    "methods": {
      "multicall(bytes[])": {
        "notice": "Call multiple functions in the current contract and return the data from all of them if they all succeed"
      }
    },
    "version": 1
  }
}