{
  "_format": "hh-sol-artifact-1",
  "contractName": "Layer2Storage",
  "sourceName": "contracts/Layer2Storage.sol",
  "abi": [
    {
      "constant": true,
      "inputs": [],
      "name": "COST_ERO",
      "outputs": [
        {
          "internalType": "uint256",
          "name": "",
          "type": "uint256"
        }
      ],
      "payable": false,
      "stateMutability": "view",
      "type": "function"
    },
    {
      "constant": true,
      "inputs": [],
      "name": "COST_ERU",
      "outputs": [
        {
          "internalType": "uint256",
          "name": "",
          "type": "uint256"
        }
      ],
      "payable": false,
      "stateMutability": "view",
      "type": "function"
    },
    {
      "constant": true,
      "inputs": [],
      "name": "COST_NRB",
      "outputs": [
        {
          "internalType": "uint256",
          "name": "",
          "type": "uint256"
        }
      ],
      "payable": false,
      "stateMutability": "view",
      "type": "function"
    },
    {
      "constant": true,
      "inputs": [],
      "name": "COST_ORB",
      "outputs": [
        {
          "internalType": "uint256",
          "name": "",
          "type": "uint256"
        }
      ],
      "payable": false,
      "stateMutability": "view",
      "type": "function"
    },
    {
      "constant": true,
      "inputs": [],
      "name": "COST_URB",
      "outputs": [
        {
          "internalType": "uint256",
          "name": "",
          "type": "uint256"
        }
      ],
      "payable": false,
      "stateMutability": "view",
      "type": "function"
    },
    {
      "constant": true,
      "inputs": [],
      "name": "COST_URB_PREPARE",
      "outputs": [
        {
          "internalType": "uint256",
          "name": "",
          "type": "uint256"
        }
      ],
      "payable": false,
      "stateMutability": "view",
      "type": "function"
    },
    {
      "constant": true,
      "inputs": [],
      "name": "CP_COMPUTATION",
      "outputs": [
        {
          "internalType": "uint256",
          "name": "",
          "type": "uint256"
        }
      ],
      "payable": false,
      "stateMutability": "view",
      "type": "function"
    },
    {
      "constant": true,
      "inputs": [],
      "name": "CP_EXIT",
      "outputs": [
        {
          "internalType": "uint256",
          "name": "",
          "type": "uint256"
        }
      ],
      "payable": false,
      "stateMutability": "view",
      "type": "function"
    },
    {
      "constant": true,
      "inputs": [],
      "name": "CP_WITHHOLDING",
      "outputs": [
        {
          "internalType": "uint256",
          "name": "",
          "type": "uint256"
        }
      ],
      "payable": false,
      "stateMutability": "view",
      "type": "function"
    },
    {
      "constant": true,
      "inputs": [],
      "name": "EROIdToFinalize",
      "outputs": [
        {
          "internalType": "uint256",
          "name": "",
          "type": "uint256"
        }
      ],
      "payable": false,
      "stateMutability": "view",
      "type": "function"
    },
    {
      "constant": true,
      "inputs": [
        {
          "internalType": "uint256",
          "name": "",
          "type": "uint256"
        }
      ],
      "name": "EROs",
      "outputs": [
        {
          "internalType": "uint64",
          "name": "timestamp",
          "type": "uint64"
        },
        {
          "internalType": "bool",
          "name": "isExit",
          "type": "bool"
        },
        {
          "internalType": "bool",
          "name": "isTransfer",
          "type": "bool"
        },
        {
          "internalType": "bool",
          "name": "finalized",
          "type": "bool"
        },
        {
          "internalType": "bool",
          "name": "challenged",
          "type": "bool"
        },
        {
          "internalType": "uint128",
          "name": "value",
          "type": "uint128"
        },
        {
          "internalType": "address payable",
          "name": "requestor",
          "type": "address"
        },
        {
          "internalType": "address",
          "name": "to",
          "type": "address"
        },
        {
          "internalType": "bytes32",
          "name": "trieKey",
          "type": "bytes32"
        },
        {
          "internalType": "bytes32",
          "name": "hash",
          "type": "bytes32"
        },
        {
          "internalType": "bytes",
          "name": "trieValue",
          "type": "bytes"
        }
      ],
      "payable": false,
      "stateMutability": "view",
      "type": "function"
    },
    {
      "constant": true,
      "inputs": [],
      "name": "ERUIdToFinalize",
      "outputs": [
        {
          "internalType": "uint256",
          "name": "",
          "type": "uint256"
        }
      ],
      "payable": false,
      "stateMutability": "view",
      "type": "function"
    },
    {
      "constant": true,
      "inputs": [
        {
          "internalType": "uint256",
          "name": "",
          "type": "uint256"
        }
      ],
      "name": "ERUs",
      "outputs": [
        {
          "internalType": "uint64",
          "name": "timestamp",
          "type": "uint64"
        },
        {
          "internalType": "bool",
          "name": "isExit",
          "type": "bool"
        },
        {
          "internalType": "bool",
          "name": "isTransfer",
          "type": "bool"
        },
        {
          "internalType": "bool",
          "name": "finalized",
          "type": "bool"
        },
        {
          "internalType": "bool",
          "name": "challenged",
          "type": "bool"
        },
        {
          "internalType": "uint128",
          "name": "value",
          "type": "uint128"
        },
        {
          "internalType": "address payable",
          "name": "requestor",
          "type": "address"
        },
        {
          "internalType": "address",
          "name": "to",
          "type": "address"
        },
        {
          "internalType": "bytes32",
          "name": "trieKey",
          "type": "bytes32"
        },
        {
          "internalType": "bytes32",
          "name": "hash",
          "type": "bytes32"
        },
        {
          "internalType": "bytes",
          "name": "trieValue",
          "type": "bytes"
        }
      ],
      "payable": false,
      "stateMutability": "view",
      "type": "function"
    },
    {
      "constant": true,
      "inputs": [],
      "name": "NRELength",
      "outputs": [
        {
          "internalType": "uint256",
          "name": "",
          "type": "uint256"
        }
      ],
      "payable": false,
      "stateMutability": "view",
      "type": "function"
    },
    {
      "constant": true,
      "inputs": [],
      "name": "NULL_ADDRESS",
      "outputs": [
        {
          "internalType": "address",
          "name": "",
          "type": "address"
        }
      ],
      "payable": false,
      "stateMutability": "view",
      "type": "function"
    },
    {
      "constant": true,
      "inputs": [
        {
          "internalType": "uint256",
          "name": "",
          "type": "uint256"
        }
      ],
      "name": "ORBs",
      "outputs": [
        {
          "internalType": "bool",
          "name": "submitted",
          "type": "bool"
        },
        {
          "internalType": "uint64",
          "name": "numEnter",
          "type": "uint64"
        },
        {
          "internalType": "uint64",
          "name": "epochNumber",
          "type": "uint64"
        },
        {
          "internalType": "uint64",
          "name": "requestStart",
          "type": "uint64"
        },
        {
          "internalType": "uint64",
          "name": "requestEnd",
          "type": "uint64"
        },
        {
          "internalType": "address",
          "name": "trie",
          "type": "address"
        }
      ],
      "payable": false,
      "stateMutability": "view",
      "type": "function"
    },
    {
      "constant": true,
      "inputs": [],
      "name": "PREPARE_TIMEOUT",
      "outputs": [
        {
          "internalType": "uint256",
          "name": "",
          "type": "uint256"
        }
      ],
      "payable": false,
      "stateMutability": "view",
      "type": "function"
    },
    {
      "constant": true,
      "inputs": [],
      "name": "REQUEST_GAS",
      "outputs": [
        {
          "internalType": "uint256",
          "name": "",
          "type": "uint256"
        }
      ],
      "payable": false,
      "stateMutability": "view",
      "type": "function"
    },
    {
      "constant": true,
      "inputs": [
        {
          "internalType": "uint256",
          "name": "",
          "type": "uint256"
        }
      ],
      "name": "URBs",
      "outputs": [
        {
          "internalType": "bool",
          "name": "submitted",
          "type": "bool"
        },
        {
          "internalType": "uint64",
          "name": "numEnter",
          "type": "uint64"
        },
        {
          "internalType": "uint64",
          "name": "epochNumber",
          "type": "uint64"
        },
        {
          "internalType": "uint64",
          "name": "requestStart",
          "type": "uint64"
        },
        {
          "internalType": "uint64",
          "name": "requestEnd",
          "type": "uint64"
        },
        {
          "internalType": "address",
          "name": "trie",
          "type": "address"
        }
      ],
      "payable": false,
      "stateMutability": "view",
      "type": "function"
    },
    {
      "constant": true,
      "inputs": [],
      "name": "currentFork",
      "outputs": [
        {
          "internalType": "uint256",
          "name": "",
          "type": "uint256"
        }
      ],
      "payable": false,
      "stateMutability": "view",
      "type": "function"
    },
    {
      "constant": true,
      "inputs": [],
      "name": "development",
      "outputs": [
        {
          "internalType": "bool",
          "name": "",
          "type": "bool"
        }
      ],
      "payable": false,
      "stateMutability": "view",
      "type": "function"
    },
    {
      "constant": true,
      "inputs": [],
      "name": "epochHandler",
      "outputs": [
        {
          "internalType": "address",
          "name": "",
          "type": "address"
        }
      ],
      "payable": false,
      "stateMutability": "view",
      "type": "function"
    },
    {
      "constant": true,
      "inputs": [],
      "name": "etherToken",
      "outputs": [
        {
          "internalType": "address",
          "name": "",
          "type": "address"
        }
      ],
      "payable": false,
      "stateMutability": "view",
      "type": "function"
    },
    {
      "constant": true,
      "inputs": [
        {
          "internalType": "uint256",
          "name": "",
          "type": "uint256"
        }
      ],
      "name": "firstFilledORENumber",
      "outputs": [
        {
          "internalType": "uint256",
          "name": "",
          "type": "uint256"
        }
      ],
      "payable": false,
      "stateMutability": "view",
      "type": "function"
    },
    {
      "constant": true,
      "inputs": [
        {
          "internalType": "uint256",
          "name": "",
          "type": "uint256"
        }
      ],
      "name": "firstNonEmptyRequestEpoch",
      "outputs": [
        {
          "internalType": "uint256",
          "name": "",
          "type": "uint256"
        }
      ],
      "payable": false,
      "stateMutability": "view",
      "type": "function"
    },
    {
      "constant": true,
      "inputs": [
        {
          "internalType": "uint256",
          "name": "",
          "type": "uint256"
        }
      ],
      "name": "forks",
      "outputs": [
        {
          "internalType": "uint64",
          "name": "forkedBlock",
          "type": "uint64"
        },
        {
          "internalType": "uint64",
          "name": "firstEpoch",
          "type": "uint64"
        },
        {
          "internalType": "uint64",
          "name": "lastEpoch",
          "type": "uint64"
        },
        {
          "internalType": "uint64",
          "name": "firstBlock",
          "type": "uint64"
        },
        {
          "internalType": "uint64",
          "name": "lastBlock",
          "type": "uint64"
        },
        {
          "internalType": "uint64",
          "name": "lastFinalizedEpoch",
          "type": "uint64"
        },
        {
          "internalType": "uint64",
          "name": "lastFinalizedBlock",
          "type": "uint64"
        },
        {
          "internalType": "uint64",
          "name": "timestamp",
          "type": "uint64"
        },
        {
          "internalType": "uint64",
          "name": "firstEnterEpoch",
          "type": "uint64"
        },
        {
          "internalType": "uint64",
          "name": "lastEnterEpoch",
          "type": "uint64"
        },
        {
          "internalType": "uint64",
          "name": "nextBlockToRebase",
          "type": "uint64"
        },
        {
          "internalType": "bool",
          "name": "rebased",
          "type": "bool"
        }
      ],
      "payable": false,
      "stateMutability": "view",
      "type": "function"
    },
    {
      "constant": true,
      "inputs": [],
      "name": "isLayer2",
      "outputs": [
        {
          "internalType": "bool",
          "name": "",
          "type": "bool"
        }
      ],
      "payable": false,
      "stateMutability": "view",
      "type": "function"
    },
    {
      "constant": true,
      "inputs": [],
      "name": "lastAppliedBlockNumber",
      "outputs": [
        {
          "internalType": "uint256",
          "name": "",
          "type": "uint256"
        }
      ],
      "payable": false,
      "stateMutability": "view",
      "type": "function"
    },
    {
      "constant": true,
      "inputs": [],
      "name": "lastAppliedEpochNumber",
      "outputs": [
        {
          "internalType": "uint256",
          "name": "",
          "type": "uint256"
        }
      ],
      "payable": false,
      "stateMutability": "view",
      "type": "function"
    },
    {
      "constant": true,
      "inputs": [],
      "name": "lastAppliedForkNumber",
      "outputs": [
        {
          "internalType": "uint256",
          "name": "",
          "type": "uint256"
        }
      ],
      "payable": false,
      "stateMutability": "view",
      "type": "function"
    },
    {
      "constant": true,
      "inputs": [
        {
          "internalType": "uint256",
          "name": "",
          "type": "uint256"
        }
      ],
      "name": "lastNonEmptyRequestEpoch",
      "outputs": [
        {
          "internalType": "uint256",
          "name": "",
          "type": "uint256"
        }
      ],
      "payable": false,
      "stateMutability": "view",
      "type": "function"
    },
    {
      "constant": true,
      "inputs": [],
      "name": "numEnterForORB",
      "outputs": [
        {
          "internalType": "uint256",
          "name": "",
          "type": "uint256"
        }
      ],
      "payable": false,
      "stateMutability": "view",
      "type": "function"
    },
    {
      "constant": true,
      "inputs": [],
      "name": "operator",
      "outputs": [
        {
          "internalType": "address",
          "name": "",
          "type": "address"
        }
      ],
      "payable": false,
      "stateMutability": "view",
      "type": "function"
    },
    {
      "constant": true,
      "inputs": [
        {
          "internalType": "address",
          "name": "",
          "type": "address"
        }
      ],
      "name": "requestableContracts",
      "outputs": [
        {
          "internalType": "address",
          "name": "",
          "type": "address"
        }
      ],
      "payable": false,
      "stateMutability": "view",
      "type": "function"
    },
    {
      "constant": true,
      "inputs": [],
      "name": "seigManager",
      "outputs": [
        {
          "internalType": "address",
          "name": "",
          "type": "address"
        }
      ],
      "payable": false,
      "stateMutability": "view",
      "type": "function"
    },
    {
      "constant": true,
      "inputs": [],
      "name": "submitHandler",
      "outputs": [
        {
          "internalType": "address",
          "name": "",
          "type": "address"
        }
      ],
      "payable": false,
      "stateMutability": "view",
      "type": "function"
    }
  ],
  "bytecode": "0x608060405234801561001057600080fd5b506109dc806100206000396000f3fe608060405234801561001057600080fd5b506004361061025c5760003560e01c8063b17fa6e911610145578063ca6f6380116100bd578063e259faf71161008c578063ea7f22a811610071578063ea7f22a8146105de578063f4f31de4146105fb578063fb788a27146106185761025c565b8063e259faf7146105ce578063e7b88b80146105d65761025c565b8063ca6f638014610583578063d691acd814610261578063da0185f8146105a0578063de0ce17d146105c65761025c565b8063b8066bcb11610114578063c2bc88fa116100f9578063c2bc88fa1461056b578063c54626cc14610573578063c8ad329f1461057b5761025c565b8063b8066bcb146104fa578063c0e86064146105025761025c565b8063b17fa6e9146103bc578063b2ae9ba814610261578063b443f3cc146103c4578063b6715647146104dd5761025c565b80636fb7f558116101d8578063882eed2c116101a75780638eb288ca1161018c5780638eb288ca146103ac57806394be3aa514610261578063ab96da2d146103b45761025c565b8063882eed2c146103a45780638b5172d0146102615761025c565b80636fb7f5581461035b57806372ecb9a8146103635780637b929c27146103805780638155717d1461039c5761025c565b8063192adc5b1161022f5780632dc6bb7b116102145780632dc6bb7b1461029b5780634ba3a126146102a3578063570ca735146103375761025c565b8063192adc5b1461026157806323691566146102935761025c565b8063033cfbed1461026157806308c4fff01461027b578063164bc2ae14610283578063183d2d1c1461028b575b600080fd5b610269610620565b60408051918252519081900360200190f35b610269610625565b61026961062a565b610269610630565b610269610636565b61026961063c565b6102c0600480360360208110156102b957600080fd5b5035610642565b6040805167ffffffffffffffff9d8e1681529b8d1660208d0152998c168b8b0152978b1660608b0152958a1660808a015293891660a089015291881660c0880152871660e0870152861661010086015285166101208501529093166101408301529115156101608201529051908190036101800190f35b61033f6106e1565b604080516001600160a01b039092168252519081900360200190f35b61033f6106f5565b6102696004803603602081101561037957600080fd5b5035610704565b610388610716565b604080519115158252519081900360200190f35b61026961071f565b610388610724565b610269610729565b610269610730565b610269610736565b6103e1600480360360208110156103da57600080fd5b503561073b565b6040805167ffffffffffffffff8d1681528b15156020808301919091528b151592820192909252891515606082015288151560808201526fffffffffffffffffffffffffffffffff881660a08201526001600160a01b0380881660c0830152861660e082015261010081018590526101208101849052610160610140820181815284519183019190915283519192909161018084019185019080838360005b83811015610498578181015183820152602001610480565b50505050905090810190601f1680156104c55780820380516001836020036101000a031916815260200191505b509c5050505050505050505050505060405180910390f35b610269600480360360208110156104f357600080fd5b5035610889565b61033f61089b565b61051f6004803603602081101561051857600080fd5b50356108aa565b60408051961515875267ffffffffffffffff958616602088015293851686850152918416606086015290921660808401526001600160a01b0390911660a0830152519081900360c00190f35b61026961092b565b610269610930565b610269610936565b6102696004803603602081101561059957600080fd5b503561093c565b61033f600480360360208110156105b657600080fd5b50356001600160a01b031661094e565b61033f610620565b61033f610969565b61033f610978565b61051f600480360360208110156105f457600080fd5b5035610987565b6103e16004803603602081101561061157600080fd5b5035610994565b6102696109a1565b600081565b600f81565b60105481565b60065481565b600d5481565b60135481565b60086020526000908152604090208054600182015460029092015467ffffffffffffffff8083169368010000000000000000808504831694700100000000000000000000000000000000808204851695780100000000000000000000000000000000000000000000000092839004861695858116958581048216958482048316959182900483169484841694918204841693908204169160ff9104168c565b60005461010090046001600160a01b031681565b6004546001600160a01b031681565b60076020526000908152604090205481565b60005460ff1681565b600a81565b600181565b620186a081565b60055481565b601481565b6009818154811061074857fe5b6000918252602091829020600691909102018054600180830154600280850154600386015460048701546005880180546040805161010099831615999099026000190190911695909504601f81018b90048b0288018b0190955284875267ffffffffffffffff88169a5068010000000000000000880460ff9081169a69010000000000000000008a0482169a6a01000000000000000000008b0483169a6b0100000000000000000000008104909316996c010000000000000000000000009093046fffffffffffffffffffffffffffffffff16986001600160a01b039081169897169690939183018282801561087f5780601f106108545761010080835404028352916020019161087f565b820191906000526020600020905b81548152906001019060200180831161086257829003601f168201915b505050505090508b565b600e6020526000908152604090205481565b6003546001600160a01b031681565b600c81815481106108b757fe5b60009182526020909120600290910201805460019091015460ff8216925067ffffffffffffffff610100830481169269010000000000000000008104821692710100000000000000000000000000000000009091048216918116906001600160a01b03680100000000000000009091041686565b603c81565b60145481565b60115481565b600f6020526000908152604090205481565b6015602052600090815260409020546001600160a01b031681565b6002546001600160a01b031681565b6001546001600160a01b031681565b600b81815481106108b757fe5b600a818154811061074857fe5b6012548156fea265627a7a7231582080cdfcaecac0ee2dc4dca61e4e1ad4b06819bcd8032954cb4a664b9f50abecd464736f6c634300050c0032",
  "linkReferences": {},
  "deployedLinkReferences": {}
}