{
  "_format": "hh-sol-artifact-1",
  "contractName": "Layer2",
  "sourceName": "contracts/Layer2.sol",
  "abi": [
    {
      "inputs": [
        {
          "internalType": "address",
          "name": "_epochHandler",
          "type": "address"
        },
        {
          "internalType": "address",
          "name": "_submitHandler",
          "type": "address"
        },
        {
          "internalType": "address",
          "name": "_etherToken",
          "type": "address"
        },
        {
          "internalType": "bool",
          "name": "_development",
          "type": "bool"
        },
        {
          "internalType": "uint256",
          "name": "_NRELength",
          "type": "uint256"
        },
        {
          "internalType": "bytes32",
          "name": "_statesRoot",
          "type": "bytes32"
        },
        {
          "internalType": "bytes32",
          "name": "_transactionsRoot",
          "type": "bytes32"
        },
        {
          "internalType": "bytes32",
          "name": "_receiptsRoot",
          "type": "bytes32"
        }
      ],
      "payable": false,
      "stateMutability": "nonpayable",
      "type": "constructor"
    },
    {
      "anonymous": false,
      "inputs": [
        {
          "indexed": false,
          "internalType": "uint256",
          "name": "forkNumber",
          "type": "uint256"
        },
        {
          "indexed": false,
          "internalType": "uint256",
          "name": "blockNumber",
          "type": "uint256"
        }
      ],
      "name": "BlockFinalized",
      "type": "event"
    },
    {
      "anonymous": false,
      "inputs": [
        {
          "indexed": false,
          "internalType": "uint256",
          "name": "fork",
          "type": "uint256"
        },
        {
          "indexed": false,
          "internalType": "uint256",
          "name": "epochNumber",
          "type": "uint256"
        },
        {
          "indexed": false,
          "internalType": "uint256",
          "name": "blockNumber",
          "type": "uint256"
        },
        {
          "indexed": false,
          "internalType": "bool",
          "name": "isRequest",
          "type": "bool"
        },
        {
          "indexed": false,
          "internalType": "bool",
          "name": "userActivated",
          "type": "bool"
        }
      ],
      "name": "BlockSubmitted",
      "type": "event"
    },
    {
      "anonymous": false,
      "inputs": [
        {
          "indexed": false,
          "internalType": "uint256",
          "name": "requestId",
          "type": "uint256"
        },
        {
          "indexed": false,
          "internalType": "address",
          "name": "requestor",
          "type": "address"
        },
        {
          "indexed": false,
          "internalType": "address",
          "name": "to",
          "type": "address"
        },
        {
          "indexed": false,
          "internalType": "bytes",
          "name": "trieKey",
          "type": "bytes"
        },
        {
          "indexed": false,
          "internalType": "bytes32",
          "name": "trieValue",
          "type": "bytes32"
        }
      ],
      "name": "ERUCreated",
      "type": "event"
    },
    {
      "anonymous": false,
      "inputs": [
        {
          "indexed": false,
          "internalType": "uint256",
          "name": "forkNumber",
          "type": "uint256"
        },
        {
          "indexed": false,
          "internalType": "uint256",
          "name": "epochNumber",
          "type": "uint256"
        }
      ],
      "name": "EpochFilled",
      "type": "event"
    },
    {
      "anonymous": false,
      "inputs": [
        {
          "indexed": false,
          "internalType": "uint256",
          "name": "forkNumber",
          "type": "uint256"
        },
        {
          "indexed": false,
          "internalType": "uint256",
          "name": "epochNumber",
          "type": "uint256"
        }
      ],
      "name": "EpochFilling",
      "type": "event"
    },
    {
      "anonymous": false,
      "inputs": [
        {
          "indexed": false,
          "internalType": "uint256",
          "name": "forkNumber",
          "type": "uint256"
        },
        {
          "indexed": false,
          "internalType": "uint256",
          "name": "epochNumber",
          "type": "uint256"
        },
        {
          "indexed": false,
          "internalType": "uint256",
          "name": "startBlockNumber",
          "type": "uint256"
        },
        {
          "indexed": false,
          "internalType": "uint256",
          "name": "endBlockNumber",
          "type": "uint256"
        }
      ],
      "name": "EpochFinalized",
      "type": "event"
    },
    {
      "anonymous": false,
      "inputs": [
        {
          "indexed": false,
          "internalType": "uint256",
          "name": "forkNumber",
          "type": "uint256"
        },
        {
          "indexed": false,
          "internalType": "uint256",
          "name": "epochNumber",
          "type": "uint256"
        },
        {
          "indexed": false,
          "internalType": "uint256",
          "name": "startBlockNumber",
          "type": "uint256"
        },
        {
          "indexed": false,
          "internalType": "uint256",
          "name": "endBlockNumber",
          "type": "uint256"
        },
        {
          "indexed": false,
          "internalType": "uint256",
          "name": "requestStart",
          "type": "uint256"
        },
        {
          "indexed": false,
          "internalType": "uint256",
          "name": "requestEnd",
          "type": "uint256"
        },
        {
          "indexed": false,
          "internalType": "bool",
          "name": "epochIsEmpty",
          "type": "bool"
        },
        {
          "indexed": false,
          "internalType": "bool",
          "name": "isRequest",
          "type": "bool"
        },
        {
          "indexed": false,
          "internalType": "bool",
          "name": "userActivated",
          "type": "bool"
        },
        {
          "indexed": false,
          "internalType": "bool",
          "name": "rebase",
          "type": "bool"
        }
      ],
      "name": "EpochPrepared",
      "type": "event"
    },
    {
      "anonymous": false,
      "inputs": [
        {
          "indexed": false,
          "internalType": "uint256",
          "name": "forkNumber",
          "type": "uint256"
        },
        {
          "indexed": false,
          "internalType": "uint256",
          "name": "epochNumber",
          "type": "uint256"
        },
        {
          "indexed": false,
          "internalType": "uint256",
          "name": "startBlockNumber",
          "type": "uint256"
        },
        {
          "indexed": false,
          "internalType": "uint256",
          "name": "endBlockNumber",
          "type": "uint256"
        },
        {
          "indexed": false,
          "internalType": "uint256",
          "name": "requestStart",
          "type": "uint256"
        },
        {
          "indexed": false,
          "internalType": "uint256",
          "name": "requestEnd",
          "type": "uint256"
        },
        {
          "indexed": false,
          "internalType": "bool",
          "name": "epochIsEmpty",
          "type": "bool"
        },
        {
          "indexed": false,
          "internalType": "bool",
          "name": "isRequest",
          "type": "bool"
        },
        {
          "indexed": false,
          "internalType": "bool",
          "name": "userActivated",
          "type": "bool"
        }
      ],
      "name": "EpochRebased",
      "type": "event"
    },
    {
      "anonymous": false,
      "inputs": [
        {
          "indexed": false,
          "internalType": "uint256",
          "name": "newFork",
          "type": "uint256"
        },
        {
          "indexed": false,
          "internalType": "uint256",
          "name": "epochNumber",
          "type": "uint256"
        },
        {
          "indexed": false,
          "internalType": "uint256",
          "name": "forkedBlockNumber",
          "type": "uint256"
        }
      ],
      "name": "Forked",
      "type": "event"
    },
    {
      "anonymous": false,
      "inputs": [
        {
          "indexed": true,
          "internalType": "address",
          "name": "account",
          "type": "address"
        }
      ],
      "name": "MapperAdded",
      "type": "event"
    },
    {
      "anonymous": false,
      "inputs": [
        {
          "indexed": true,
          "internalType": "address",
          "name": "account",
          "type": "address"
        }
      ],
      "name": "MapperRemoved",
      "type": "event"
    },
    {
      "anonymous": false,
      "inputs": [
        {
          "indexed": false,
          "internalType": "address",
          "name": "_newOperator",
          "type": "address"
        }
      ],
      "name": "OperatorChanged",
      "type": "event"
    },
    {
      "anonymous": false,
      "inputs": [
        {
          "indexed": false,
          "internalType": "uint256",
          "name": "requestId",
          "type": "uint256"
        },
        {
          "indexed": false,
          "internalType": "bool",
          "name": "userActivated",
          "type": "bool"
        }
      ],
      "name": "RequestApplied",
      "type": "event"
    },
    {
      "anonymous": false,
      "inputs": [
        {
          "indexed": false,
          "internalType": "uint256",
          "name": "requestId",
          "type": "uint256"
        },
        {
          "indexed": false,
          "internalType": "bool",
          "name": "userActivated",
          "type": "bool"
        }
      ],
      "name": "RequestChallenged",
      "type": "event"
    },
    {
      "anonymous": false,
      "inputs": [
        {
          "indexed": false,
          "internalType": "uint256",
          "name": "requestId",
          "type": "uint256"
        },
        {
          "indexed": false,
          "internalType": "address",
          "name": "requestor",
          "type": "address"
        },
        {
          "indexed": false,
          "internalType": "address",
          "name": "to",
          "type": "address"
        },
        {
          "indexed": false,
          "internalType": "uint256",
          "name": "weiAmount",
          "type": "uint256"
        },
        {
          "indexed": false,
          "internalType": "bytes32",
          "name": "trieKey",
          "type": "bytes32"
        },
        {
          "indexed": false,
          "internalType": "bytes",
          "name": "trieValue",
          "type": "bytes"
        },
        {
          "indexed": false,
          "internalType": "bool",
          "name": "isExit",
          "type": "bool"
        },
        {
          "indexed": false,
          "internalType": "bool",
          "name": "userActivated",
          "type": "bool"
        }
      ],
      "name": "RequestCreated",
      "type": "event"
    },
    {
      "anonymous": false,
      "inputs": [
        {
          "indexed": false,
          "internalType": "uint256",
          "name": "requestId",
          "type": "uint256"
        },
        {
          "indexed": false,
          "internalType": "bool",
          "name": "userActivated",
          "type": "bool"
        }
      ],
      "name": "RequestFinalized",
      "type": "event"
    },
    {
      "anonymous": false,
      "inputs": [
        {
          "indexed": false,
          "internalType": "address",
          "name": "contractInRootchain",
          "type": "address"
        },
        {
          "indexed": false,
          "internalType": "address",
          "name": "contractInChildchain",
          "type": "address"
        }
      ],
      "name": "RequestableContractMapped",
      "type": "event"
    },
    {
      "anonymous": false,
      "inputs": [
        {
          "indexed": false,
          "internalType": "bool",
          "name": "userActivated",
          "type": "bool"
        }
      ],
      "name": "SessionTimeout",
      "type": "event"
    },
    {
      "anonymous": false,
      "inputs": [
        {
          "indexed": true,
          "internalType": "address",
          "name": "account",
          "type": "address"
        }
      ],
      "name": "SubmitterAdded",
      "type": "event"
    },
    {
      "anonymous": false,
      "inputs": [
        {
          "indexed": true,
          "internalType": "address",
          "name": "account",
          "type": "address"
        }
      ],
      "name": "SubmitterRemoved",
      "type": "event"
    },
    {
      "constant": true,
      "inputs": [],
      "name": "COST_ERO",
      "outputs": [
        {
          "internalType": "uint256",
          "name": "",
          "type": "uint256"
        }
      ],
      "payable": false,
      "stateMutability": "view",
      "type": "function"
    },
    {
      "constant": true,
      "inputs": [],
      "name": "COST_ERU",
      "outputs": [
        {
          "internalType": "uint256",
          "name": "",
          "type": "uint256"
        }
      ],
      "payable": false,
      "stateMutability": "view",
      "type": "function"
    },
    {
      "constant": true,
      "inputs": [],
      "name": "COST_NRB",
      "outputs": [
        {
          "internalType": "uint256",
          "name": "",
          "type": "uint256"
        }
      ],
      "payable": false,
      "stateMutability": "view",
      "type": "function"
    },
    {
      "constant": true,
      "inputs": [],
      "name": "COST_ORB",
      "outputs": [
        {
          "internalType": "uint256",
          "name": "",
          "type": "uint256"
        }
      ],
      "payable": false,
      "stateMutability": "view",
      "type": "function"
    },
    {
      "constant": true,
      "inputs": [],
      "name": "COST_URB",
      "outputs": [
        {
          "internalType": "uint256",
          "name": "",
          "type": "uint256"
        }
      ],
      "payable": false,
      "stateMutability": "view",
      "type": "function"
    },
    {
      "constant": true,
      "inputs": [],
      "name": "COST_URB_PREPARE",
      "outputs": [
        {
          "internalType": "uint256",
          "name": "",
          "type": "uint256"
        }
      ],
      "payable": false,
      "stateMutability": "view",
      "type": "function"
    },
    {
      "constant": true,
      "inputs": [],
      "name": "CP_COMPUTATION",
      "outputs": [
        {
          "internalType": "uint256",
          "name": "",
          "type": "uint256"
        }
      ],
      "payable": false,
      "stateMutability": "view",
      "type": "function"
    },
    {
      "constant": true,
      "inputs": [],
      "name": "CP_EXIT",
      "outputs": [
        {
          "internalType": "uint256",
          "name": "",
          "type": "uint256"
        }
      ],
      "payable": false,
      "stateMutability": "view",
      "type": "function"
    },
    {
      "constant": true,
      "inputs": [],
      "name": "CP_WITHHOLDING",
      "outputs": [
        {
          "internalType": "uint256",
          "name": "",
          "type": "uint256"
        }
      ],
      "payable": false,
      "stateMutability": "view",
      "type": "function"
    },
    {
      "constant": true,
      "inputs": [],
      "name": "EROIdToFinalize",
      "outputs": [
        {
          "internalType": "uint256",
          "name": "",
          "type": "uint256"
        }
      ],
      "payable": false,
      "stateMutability": "view",
      "type": "function"
    },
    {
      "constant": true,
      "inputs": [
        {
          "internalType": "uint256",
          "name": "",
          "type": "uint256"
        }
      ],
      "name": "EROs",
      "outputs": [
        {
          "internalType": "uint64",
          "name": "timestamp",
          "type": "uint64"
        },
        {
          "internalType": "bool",
          "name": "isExit",
          "type": "bool"
        },
        {
          "internalType": "bool",
          "name": "isTransfer",
          "type": "bool"
        },
        {
          "internalType": "bool",
          "name": "finalized",
          "type": "bool"
        },
        {
          "internalType": "bool",
          "name": "challenged",
          "type": "bool"
        },
        {
          "internalType": "uint128",
          "name": "value",
          "type": "uint128"
        },
        {
          "internalType": "address payable",
          "name": "requestor",
          "type": "address"
        },
        {
          "internalType": "address",
          "name": "to",
          "type": "address"
        },
        {
          "internalType": "bytes32",
          "name": "trieKey",
          "type": "bytes32"
        },
        {
          "internalType": "bytes32",
          "name": "hash",
          "type": "bytes32"
        },
        {
          "internalType": "bytes",
          "name": "trieValue",
          "type": "bytes"
        }
      ],
      "payable": false,
      "stateMutability": "view",
      "type": "function"
    },
    {
      "constant": true,
      "inputs": [],
      "name": "ERUIdToFinalize",
      "outputs": [
        {
          "internalType": "uint256",
          "name": "",
          "type": "uint256"
        }
      ],
      "payable": false,
      "stateMutability": "view",
      "type": "function"
    },
    {
      "constant": true,
      "inputs": [
        {
          "internalType": "uint256",
          "name": "",
          "type": "uint256"
        }
      ],
      "name": "ERUs",
      "outputs": [
        {
          "internalType": "uint64",
          "name": "timestamp",
          "type": "uint64"
        },
        {
          "internalType": "bool",
          "name": "isExit",
          "type": "bool"
        },
        {
          "internalType": "bool",
          "name": "isTransfer",
          "type": "bool"
        },
        {
          "internalType": "bool",
          "name": "finalized",
          "type": "bool"
        },
        {
          "internalType": "bool",
          "name": "challenged",
          "type": "bool"
        },
        {
          "internalType": "uint128",
          "name": "value",
          "type": "uint128"
        },
        {
          "internalType": "address payable",
          "name": "requestor",
          "type": "address"
        },
        {
          "internalType": "address",
          "name": "to",
          "type": "address"
        },
        {
          "internalType": "bytes32",
          "name": "trieKey",
          "type": "bytes32"
        },
        {
          "internalType": "bytes32",
          "name": "hash",
          "type": "bytes32"
        },
        {
          "internalType": "bytes",
          "name": "trieValue",
          "type": "bytes"
        }
      ],
      "payable": false,
      "stateMutability": "view",
      "type": "function"
    },
    {
      "constant": true,
      "inputs": [],
      "name": "MAX_REQUESTS",
      "outputs": [
        {
          "internalType": "uint256",
          "name": "maxRequests",
          "type": "uint256"
        }
      ],
      "payable": false,
      "stateMutability": "pure",
      "type": "function"
    },
    {
      "constant": true,
      "inputs": [],
      "name": "NRELength",
      "outputs": [
        {
          "internalType": "uint256",
          "name": "",
          "type": "uint256"
        }
      ],
      "payable": false,
      "stateMutability": "view",
      "type": "function"
    },
    {
      "constant": true,
      "inputs": [],
      "name": "NULL_ADDRESS",
      "outputs": [
        {
          "internalType": "address",
          "name": "",
          "type": "address"
        }
      ],
      "payable": false,
      "stateMutability": "view",
      "type": "function"
    },
    {
      "constant": true,
      "inputs": [
        {
          "internalType": "uint256",
          "name": "",
          "type": "uint256"
        }
      ],
      "name": "ORBs",
      "outputs": [
        {
          "internalType": "bool",
          "name": "submitted",
          "type": "bool"
        },
        {
          "internalType": "uint64",
          "name": "numEnter",
          "type": "uint64"
        },
        {
          "internalType": "uint64",
          "name": "epochNumber",
          "type": "uint64"
        },
        {
          "internalType": "uint64",
          "name": "requestStart",
          "type": "uint64"
        },
        {
          "internalType": "uint64",
          "name": "requestEnd",
          "type": "uint64"
        },
        {
          "internalType": "address",
          "name": "trie",
          "type": "address"
        }
      ],
      "payable": false,
      "stateMutability": "view",
      "type": "function"
    },
    {
      "constant": true,
      "inputs": [],
      "name": "PREPARE_TIMEOUT",
      "outputs": [
        {
          "internalType": "uint256",
          "name": "",
          "type": "uint256"
        }
      ],
      "payable": false,
      "stateMutability": "view",
      "type": "function"
    },
    {
      "constant": true,
      "inputs": [],
      "name": "REQUEST_GAS",
      "outputs": [
        {
          "internalType": "uint256",
          "name": "",
          "type": "uint256"
        }
      ],
      "payable": false,
      "stateMutability": "view",
      "type": "function"
    },
    {
      "constant": true,
      "inputs": [
        {
          "internalType": "uint256",
          "name": "",
          "type": "uint256"
        }
      ],
      "name": "URBs",
      "outputs": [
        {
          "internalType": "bool",
          "name": "submitted",
          "type": "bool"
        },
        {
          "internalType": "uint64",
          "name": "numEnter",
          "type": "uint64"
        },
        {
          "internalType": "uint64",
          "name": "epochNumber",
          "type": "uint64"
        },
        {
          "internalType": "uint64",
          "name": "requestStart",
          "type": "uint64"
        },
        {
          "internalType": "uint64",
          "name": "requestEnd",
          "type": "uint64"
        },
        {
          "internalType": "address",
          "name": "trie",
          "type": "address"
        }
      ],
      "payable": false,
      "stateMutability": "view",
      "type": "function"
    },
    {
      "constant": false,
      "inputs": [
        {
          "internalType": "address",
          "name": "account",
          "type": "address"
        }
      ],
      "name": "addMapper",
      "outputs": [],
      "payable": false,
      "stateMutability": "nonpayable",
      "type": "function"
    },
    {
      "constant": false,
      "inputs": [
        {
          "internalType": "address",
          "name": "account",
          "type": "address"
        }
      ],
      "name": "addSubmitter",
      "outputs": [],
      "payable": false,
      "stateMutability": "nonpayable",
      "type": "function"
    },
    {
      "constant": false,
      "inputs": [
        {
          "internalType": "uint256",
          "name": "_forkNumber",
          "type": "uint256"
        },
        {
          "internalType": "uint256",
          "name": "_blockNumber",
          "type": "uint256"
        },
        {
          "internalType": "uint256",
          "name": "_index",
          "type": "uint256"
        },
        {
          "internalType": "bytes",
          "name": "_receiptData",
          "type": "bytes"
        },
        {
          "internalType": "bytes",
          "name": "_proof",
          "type": "bytes"
        }
      ],
      "name": "challengeExit",
      "outputs": [],
      "payable": false,
      "stateMutability": "nonpayable",
      "type": "function"
    },
    {
      "constant": false,
      "inputs": [
        {
          "internalType": "uint256",
          "name": "_blockNumber",
          "type": "uint256"
        },
        {
          "internalType": "bytes",
          "name": "_key",
          "type": "bytes"
        },
        {
          "internalType": "bytes",
          "name": "_txByte",
          "type": "bytes"
        },
        {
          "internalType": "uint256",
          "name": "_branchMask",
          "type": "uint256"
        },
        {
          "internalType": "bytes32[]",
          "name": "_siblings",
          "type": "bytes32[]"
        }
      ],
      "name": "challengeNullAddress",
      "outputs": [],
      "payable": false,
      "stateMutability": "nonpayable",
      "type": "function"
    },
    {
      "constant": false,
      "inputs": [
        {
          "internalType": "address",
          "name": "_operator",
          "type": "address"
        }
      ],
      "name": "changeOperator",
      "outputs": [],
      "payable": false,
      "stateMutability": "nonpayable",
      "type": "function"
    },
    {
      "constant": true,
      "inputs": [],
      "name": "currentFork",
      "outputs": [
        {
          "internalType": "uint256",
          "name": "",
          "type": "uint256"
        }
      ],
      "payable": false,
      "stateMutability": "view",
      "type": "function"
    },
    {
      "constant": true,
      "inputs": [],
      "name": "development",
      "outputs": [
        {
          "internalType": "bool",
          "name": "",
          "type": "bool"
        }
      ],
      "payable": false,
      "stateMutability": "view",
      "type": "function"
    },
    {
      "constant": true,
      "inputs": [],
      "name": "epochHandler",
      "outputs": [
        {
          "internalType": "address",
          "name": "",
          "type": "address"
        }
      ],
      "payable": false,
      "stateMutability": "view",
      "type": "function"
    },
    {
      "constant": true,
      "inputs": [],
      "name": "etherToken",
      "outputs": [
        {
          "internalType": "address",
          "name": "",
          "type": "address"
        }
      ],
      "payable": false,
      "stateMutability": "view",
      "type": "function"
    },
    {
      "constant": false,
      "inputs": [],
      "name": "finalizeBlock",
      "outputs": [
        {
          "internalType": "bool",
          "name": "success",
          "type": "bool"
        }
      ],
      "payable": false,
      "stateMutability": "nonpayable",
      "type": "function"
    },
    {
      "constant": false,
      "inputs": [],
      "name": "finalizeRequest",
      "outputs": [
        {
          "internalType": "bool",
          "name": "success",
          "type": "bool"
        }
      ],
      "payable": false,
      "stateMutability": "nonpayable",
      "type": "function"
    },
    {
      "constant": false,
      "inputs": [
        {
          "internalType": "uint256",
          "name": "n",
          "type": "uint256"
        }
      ],
      "name": "finalizeRequests",
      "outputs": [
        {
          "internalType": "bool",
          "name": "success",
          "type": "bool"
        }
      ],
      "payable": false,
      "stateMutability": "nonpayable",
      "type": "function"
    },
    {
      "constant": true,
      "inputs": [
        {
          "internalType": "uint256",
          "name": "",
          "type": "uint256"
        }
      ],
      "name": "firstFilledORENumber",
      "outputs": [
        {
          "internalType": "uint256",
          "name": "",
          "type": "uint256"
        }
      ],
      "payable": false,
      "stateMutability": "view",
      "type": "function"
    },
    {
      "constant": true,
      "inputs": [
        {
          "internalType": "uint256",
          "name": "",
          "type": "uint256"
        }
      ],
      "name": "firstNonEmptyRequestEpoch",
      "outputs": [
        {
          "internalType": "uint256",
          "name": "",
          "type": "uint256"
        }
      ],
      "payable": false,
      "stateMutability": "view",
      "type": "function"
    },
    {
      "constant": true,
      "inputs": [
        {
          "internalType": "uint256",
          "name": "_forkNumber",
          "type": "uint256"
        }
      ],
      "name": "forked",
      "outputs": [
        {
          "internalType": "bool",
          "name": "result",
          "type": "bool"
        }
      ],
      "payable": false,
      "stateMutability": "view",
      "type": "function"
    },
    {
      "constant": true,
      "inputs": [
        {
          "internalType": "uint256",
          "name": "",
          "type": "uint256"
        }
      ],
      "name": "forks",
      "outputs": [
        {
          "internalType": "uint64",
          "name": "forkedBlock",
          "type": "uint64"
        },
        {
          "internalType": "uint64",
          "name": "firstEpoch",
          "type": "uint64"
        },
        {
          "internalType": "uint64",
          "name": "lastEpoch",
          "type": "uint64"
        },
        {
          "internalType": "uint64",
          "name": "firstBlock",
          "type": "uint64"
        },
        {
          "internalType": "uint64",
          "name": "lastBlock",
          "type": "uint64"
        },
        {
          "internalType": "uint64",
          "name": "lastFinalizedEpoch",
          "type": "uint64"
        },
        {
          "internalType": "uint64",
          "name": "lastFinalizedBlock",
          "type": "uint64"
        },
        {
          "internalType": "uint64",
          "name": "timestamp",
          "type": "uint64"
        },
        {
          "internalType": "uint64",
          "name": "firstEnterEpoch",
          "type": "uint64"
        },
        {
          "internalType": "uint64",
          "name": "lastEnterEpoch",
          "type": "uint64"
        },
        {
          "internalType": "uint64",
          "name": "nextBlockToRebase",
          "type": "uint64"
        },
        {
          "internalType": "bool",
          "name": "rebased",
          "type": "bool"
        }
      ],
      "payable": false,
      "stateMutability": "view",
      "type": "function"
    },
    {
      "constant": true,
      "inputs": [
        {
          "internalType": "uint256",
          "name": "forkNumber",
          "type": "uint256"
        },
        {
          "internalType": "uint256",
          "name": "blockNumber",
          "type": "uint256"
        }
      ],
      "name": "getBlock",
      "outputs": [
        {
          "components": [
            {
              "internalType": "uint64",
              "name": "epochNumber",
              "type": "uint64"
            },
            {
              "internalType": "uint64",
              "name": "requestBlockId",
              "type": "uint64"
            },
            {
              "internalType": "uint64",
              "name": "timestamp",
              "type": "uint64"
            },
            {
              "internalType": "uint64",
              "name": "finalizedAt",
              "type": "uint64"
            },
            {
              "internalType": "uint64",
              "name": "referenceBlock",
              "type": "uint64"
            },
            {
              "internalType": "bytes32",
              "name": "statesRoot",
              "type": "bytes32"
            },
            {
              "internalType": "bytes32",
              "name": "transactionsRoot",
              "type": "bytes32"
            },
            {
              "internalType": "bytes32",
              "name": "receiptsRoot",
              "type": "bytes32"
            },
            {
              "internalType": "bool",
              "name": "isRequest",
              "type": "bool"
            },
            {
              "internalType": "bool",
              "name": "userActivated",
              "type": "bool"
            },
            {
              "internalType": "bool",
              "name": "challenged",
              "type": "bool"
            },
            {
              "internalType": "bool",
              "name": "challenging",
              "type": "bool"
            },
            {
              "internalType": "bool",
              "name": "finalized",
              "type": "bool"
            }
          ],
          "internalType": "struct Data.PlasmaBlock",
          "name": "",
          "type": "tuple"
        }
      ],
      "payable": false,
      "stateMutability": "view",
      "type": "function"
    },
    {
      "constant": true,
      "inputs": [
        {
          "internalType": "uint256",
          "name": "forkNumber",
          "type": "uint256"
        },
        {
          "internalType": "uint256",
          "name": "blockNumber",
          "type": "uint256"
        }
      ],
      "name": "getBlockFinalizedAt",
      "outputs": [
        {
          "internalType": "uint256",
          "name": "",
          "type": "uint256"
        }
      ],
      "payable": false,
      "stateMutability": "view",
      "type": "function"
    },
    {
      "constant": true,
      "inputs": [
        {
          "internalType": "uint256",
          "name": "_requestId",
          "type": "uint256"
        }
      ],
      "name": "getEROBytes",
      "outputs": [
        {
          "internalType": "bytes",
          "name": "out",
          "type": "bytes"
        }
      ],
      "payable": false,
      "stateMutability": "view",
      "type": "function"
    },
    {
      "constant": true,
      "inputs": [
        {
          "internalType": "uint256",
          "name": "forkNumber",
          "type": "uint256"
        },
        {
          "internalType": "uint256",
          "name": "epochNumber",
          "type": "uint256"
        }
      ],
      "name": "getEpoch",
      "outputs": [
        {
          "components": [
            {
              "internalType": "uint64",
              "name": "startBlockNumber",
              "type": "uint64"
            },
            {
              "internalType": "uint64",
              "name": "endBlockNumber",
              "type": "uint64"
            },
            {
              "internalType": "uint64",
              "name": "timestamp",
              "type": "uint64"
            },
            {
              "internalType": "bool",
              "name": "isEmpty",
              "type": "bool"
            },
            {
              "internalType": "bool",
              "name": "initialized",
              "type": "bool"
            },
            {
              "internalType": "bool",
              "name": "isRequest",
              "type": "bool"
            },
            {
              "internalType": "bool",
              "name": "userActivated",
              "type": "bool"
            },
            {
              "internalType": "bool",
              "name": "rebase",
              "type": "bool"
            },
            {
              "components": [
                {
                  "internalType": "uint64",
                  "name": "requestStart",
                  "type": "uint64"
                },
                {
                  "internalType": "uint64",
                  "name": "requestEnd",
                  "type": "uint64"
                },
                {
                  "internalType": "uint64",
                  "name": "firstRequestBlockId",
                  "type": "uint64"
                },
                {
                  "internalType": "uint64",
                  "name": "numEnter",
                  "type": "uint64"
                },
                {
                  "internalType": "uint64",
                  "name": "nextEnterEpoch",
                  "type": "uint64"
                },
                {
                  "internalType": "uint64",
                  "name": "nextEpoch",
                  "type": "uint64"
                }
              ],
              "internalType": "struct Data.RequestEpochMeta",
              "name": "RE",
              "type": "tuple"
            },
            {
              "components": [
                {
                  "internalType": "bytes32",
                  "name": "epochStateRoot",
                  "type": "bytes32"
                },
                {
                  "internalType": "bytes32",
                  "name": "epochTransactionsRoot",
                  "type": "bytes32"
                },
                {
                  "internalType": "bytes32",
                  "name": "epochReceiptsRoot",
                  "type": "bytes32"
                },
                {
                  "internalType": "uint64",
                  "name": "submittedAt",
                  "type": "uint64"
                },
                {
                  "internalType": "uint64",
                  "name": "finalizedAt",
                  "type": "uint64"
                },
                {
                  "internalType": "bool",
                  "name": "finalized",
                  "type": "bool"
                },
                {
                  "internalType": "bool",
                  "name": "challenging",
                  "type": "bool"
                },
                {
                  "internalType": "bool",
                  "name": "challenged",
                  "type": "bool"
                }
              ],
              "internalType": "struct Data.NonRequestEpochMeta",
              "name": "NRE",
              "type": "tuple"
            }
          ],
          "internalType": "struct Data.Epoch",
          "name": "epoch",
          "type": "tuple"
        }
      ],
      "payable": false,
      "stateMutability": "view",
      "type": "function"
    },
    {
      "constant": true,
      "inputs": [],
      "name": "getLastEpoch",
      "outputs": [
        {
          "components": [
            {
              "internalType": "uint64",
              "name": "startBlockNumber",
              "type": "uint64"
            },
            {
              "internalType": "uint64",
              "name": "endBlockNumber",
              "type": "uint64"
            },
            {
              "internalType": "uint64",
              "name": "timestamp",
              "type": "uint64"
            },
            {
              "internalType": "bool",
              "name": "isEmpty",
              "type": "bool"
            },
            {
              "internalType": "bool",
              "name": "initialized",
              "type": "bool"
            },
            {
              "internalType": "bool",
              "name": "isRequest",
              "type": "bool"
            },
            {
              "internalType": "bool",
              "name": "userActivated",
              "type": "bool"
            },
            {
              "internalType": "bool",
              "name": "rebase",
              "type": "bool"
            },
            {
              "components": [
                {
                  "internalType": "uint64",
                  "name": "requestStart",
                  "type": "uint64"
                },
                {
                  "internalType": "uint64",
                  "name": "requestEnd",
                  "type": "uint64"
                },
                {
                  "internalType": "uint64",
                  "name": "firstRequestBlockId",
                  "type": "uint64"
                },
                {
                  "internalType": "uint64",
                  "name": "numEnter",
                  "type": "uint64"
                },
                {
                  "internalType": "uint64",
                  "name": "nextEnterEpoch",
                  "type": "uint64"
                },
                {
                  "internalType": "uint64",
                  "name": "nextEpoch",
                  "type": "uint64"
                }
              ],
              "internalType": "struct Data.RequestEpochMeta",
              "name": "RE",
              "type": "tuple"
            },
            {
              "components": [
                {
                  "internalType": "bytes32",
                  "name": "epochStateRoot",
                  "type": "bytes32"
                },
                {
                  "internalType": "bytes32",
                  "name": "epochTransactionsRoot",
                  "type": "bytes32"
                },
                {
                  "internalType": "bytes32",
                  "name": "epochReceiptsRoot",
                  "type": "bytes32"
                },
                {
                  "internalType": "uint64",
                  "name": "submittedAt",
                  "type": "uint64"
                },
                {
                  "internalType": "uint64",
                  "name": "finalizedAt",
                  "type": "uint64"
                },
                {
                  "internalType": "bool",
                  "name": "finalized",
                  "type": "bool"
                },
                {
                  "internalType": "bool",
                  "name": "challenging",
                  "type": "bool"
                },
                {
                  "internalType": "bool",
                  "name": "challenged",
                  "type": "bool"
                }
              ],
              "internalType": "struct Data.NonRequestEpochMeta",
              "name": "NRE",
              "type": "tuple"
            }
          ],
          "internalType": "struct Data.Epoch",
          "name": "",
          "type": "tuple"
        }
      ],
      "payable": false,
      "stateMutability": "view",
      "type": "function"
    },
    {
      "constant": true,
      "inputs": [
        {
          "internalType": "uint256",
          "name": "forkNumber",
          "type": "uint256"
        }
      ],
      "name": "getLastFinalizedBlock",
      "outputs": [
        {
          "internalType": "uint256",
          "name": "",
          "type": "uint256"
        }
      ],
      "payable": false,
      "stateMutability": "view",
      "type": "function"
    },
    {
      "constant": true,
      "inputs": [
        {
          "internalType": "uint256",
          "name": "forkNumber",
          "type": "uint256"
        }
      ],
      "name": "getLastFinalizedEpoch",
      "outputs": [
        {
          "internalType": "uint256",
          "name": "",
          "type": "uint256"
        }
      ],
      "payable": false,
      "stateMutability": "view",
      "type": "function"
    },
    {
      "constant": true,
      "inputs": [],
      "name": "getNumEROs",
      "outputs": [
        {
          "internalType": "uint256",
          "name": "",
          "type": "uint256"
        }
      ],
      "payable": false,
      "stateMutability": "view",
      "type": "function"
    },
    {
      "constant": true,
      "inputs": [],
      "name": "getNumORBs",
      "outputs": [
        {
          "internalType": "uint256",
          "name": "",
          "type": "uint256"
        }
      ],
      "payable": false,
      "stateMutability": "view",
      "type": "function"
    },
    {
      "constant": true,
      "inputs": [
        {
          "internalType": "uint256",
          "name": "_requestId",
          "type": "uint256"
        },
        {
          "internalType": "bool",
          "name": "_userActivated",
          "type": "bool"
        }
      ],
      "name": "getRequestFinalized",
      "outputs": [
        {
          "internalType": "bool",
          "name": "finalized",
          "type": "bool"
        }
      ],
      "payable": false,
      "stateMutability": "view",
      "type": "function"
    },
    {
      "constant": true,
      "inputs": [],
      "name": "isLayer2",
      "outputs": [
        {
          "internalType": "bool",
          "name": "",
          "type": "bool"
        }
      ],
      "payable": false,
      "stateMutability": "view",
      "type": "function"
    },
    {
      "constant": true,
      "inputs": [
        {
          "internalType": "address",
          "name": "account",
          "type": "address"
        }
      ],
      "name": "isMapper",
      "outputs": [
        {
          "internalType": "bool",
          "name": "",
          "type": "bool"
        }
      ],
      "payable": false,
      "stateMutability": "view",
      "type": "function"
    },
    {
      "constant": true,
      "inputs": [
        {
          "internalType": "address",
          "name": "account",
          "type": "address"
        }
      ],
      "name": "isSubmitter",
      "outputs": [
        {
          "internalType": "bool",
          "name": "",
          "type": "bool"
        }
      ],
      "payable": false,
      "stateMutability": "view",
      "type": "function"
    },
    {
      "constant": true,
      "inputs": [],
      "name": "lastAppliedBlockNumber",
      "outputs": [
        {
          "internalType": "uint256",
          "name": "",
          "type": "uint256"
        }
      ],
      "payable": false,
      "stateMutability": "view",
      "type": "function"
    },
    {
      "constant": true,
      "inputs": [],
      "name": "lastAppliedEpochNumber",
      "outputs": [
        {
          "internalType": "uint256",
          "name": "",
          "type": "uint256"
        }
      ],
      "payable": false,
      "stateMutability": "view",
      "type": "function"
    },
    {
      "constant": true,
      "inputs": [],
      "name": "lastAppliedForkNumber",
      "outputs": [
        {
          "internalType": "uint256",
          "name": "",
          "type": "uint256"
        }
      ],
      "payable": false,
      "stateMutability": "view",
      "type": "function"
    },
    {
      "constant": true,
      "inputs": [
        {
          "internalType": "uint256",
          "name": "forkNumber",
          "type": "uint256"
        }
      ],
      "name": "lastBlock",
      "outputs": [
        {
          "internalType": "uint256",
          "name": "lastBlock",
          "type": "uint256"
        }
      ],
      "payable": false,
      "stateMutability": "view",
      "type": "function"
    },
    {
      "constant": true,
      "inputs": [
        {
          "internalType": "uint256",
          "name": "forkNumber",
          "type": "uint256"
        }
      ],
      "name": "lastEpoch",
      "outputs": [
        {
          "internalType": "uint256",
          "name": "lastBlock",
          "type": "uint256"
        }
      ],
      "payable": false,
      "stateMutability": "view",
      "type": "function"
    },
    {
      "constant": true,
      "inputs": [
        {
          "internalType": "uint256",
          "name": "",
          "type": "uint256"
        }
      ],
      "name": "lastNonEmptyRequestEpoch",
      "outputs": [
        {
          "internalType": "uint256",
          "name": "",
          "type": "uint256"
        }
      ],
      "payable": false,
      "stateMutability": "view",
      "type": "function"
    },
    {
      "constant": false,
      "inputs": [
        {
          "internalType": "address",
          "name": "_to",
          "type": "address"
        },
        {
          "internalType": "bytes32",
          "name": "_trieKey",
          "type": "bytes32"
        },
        {
          "internalType": "bytes",
          "name": "_trieValue",
          "type": "bytes"
        }
      ],
      "name": "makeERU",
      "outputs": [
        {
          "internalType": "bool",
          "name": "success",
          "type": "bool"
        }
      ],
      "payable": true,
      "stateMutability": "payable",
      "type": "function"
    },
    {
      "constant": false,
      "inputs": [
        {
          "internalType": "address",
          "name": "_layer2",
          "type": "address"
        },
        {
          "internalType": "address",
          "name": "_childchain",
          "type": "address"
        }
      ],
      "name": "mapRequestableContractByOperator",
      "outputs": [
        {
          "internalType": "bool",
          "name": "success",
          "type": "bool"
        }
      ],
      "payable": false,
      "stateMutability": "nonpayable",
      "type": "function"
    },
    {
      "constant": true,
      "inputs": [],
      "name": "numEnterForORB",
      "outputs": [
        {
          "internalType": "uint256",
          "name": "",
          "type": "uint256"
        }
      ],
      "payable": false,
      "stateMutability": "view",
      "type": "function"
    },
    {
      "constant": true,
      "inputs": [],
      "name": "operator",
      "outputs": [
        {
          "internalType": "address",
          "name": "",
          "type": "address"
        }
      ],
      "payable": false,
      "stateMutability": "view",
      "type": "function"
    },
    {
      "constant": false,
      "inputs": [],
      "name": "prepareToSubmitURB",
      "outputs": [],
      "payable": true,
      "stateMutability": "payable",
      "type": "function"
    },
    {
      "constant": false,
      "inputs": [],
      "name": "renounceMapper",
      "outputs": [],
      "payable": false,
      "stateMutability": "nonpayable",
      "type": "function"
    },
    {
      "constant": false,
      "inputs": [],
      "name": "renounceSubmitter",
      "outputs": [],
      "payable": false,
      "stateMutability": "nonpayable",
      "type": "function"
    },
    {
      "constant": true,
      "inputs": [
        {
          "internalType": "address",
          "name": "",
          "type": "address"
        }
      ],
      "name": "requestableContracts",
      "outputs": [
        {
          "internalType": "address",
          "name": "",
          "type": "address"
        }
      ],
      "payable": false,
      "stateMutability": "view",
      "type": "function"
    },
    {
      "constant": true,
      "inputs": [],
      "name": "seigManager",
      "outputs": [
        {
          "internalType": "address",
          "name": "",
          "type": "address"
        }
      ],
      "payable": false,
      "stateMutability": "view",
      "type": "function"
    },
    {
      "constant": false,
      "inputs": [
        {
          "internalType": "address",
          "name": "account",
          "type": "address"
        }
      ],
      "name": "setSeigManager",
      "outputs": [],
      "payable": false,
      "stateMutability": "nonpayable",
      "type": "function"
    },
    {
      "constant": false,
      "inputs": [
        {
          "internalType": "address",
          "name": "_to",
          "type": "address"
        },
        {
          "internalType": "bytes32",
          "name": "_trieKey",
          "type": "bytes32"
        },
        {
          "internalType": "bytes",
          "name": "_trieValue",
          "type": "bytes"
        }
      ],
      "name": "startEnter",
      "outputs": [
        {
          "internalType": "bool",
          "name": "success",
          "type": "bool"
        }
      ],
      "payable": true,
      "stateMutability": "payable",
      "type": "function"
    },
    {
      "constant": false,
      "inputs": [
        {
          "internalType": "address",
          "name": "_to",
          "type": "address"
        },
        {
          "internalType": "bytes32",
          "name": "_trieKey",
          "type": "bytes32"
        },
        {
          "internalType": "bytes",
          "name": "_trieValue",
          "type": "bytes"
        }
      ],
      "name": "startExit",
      "outputs": [
        {
          "internalType": "bool",
          "name": "success",
          "type": "bool"
        }
      ],
      "payable": true,
      "stateMutability": "payable",
      "type": "function"
    },
    {
      "constant": true,
      "inputs": [],
      "name": "submitHandler",
      "outputs": [
        {
          "internalType": "address",
          "name": "",
          "type": "address"
        }
      ],
      "payable": false,
      "stateMutability": "view",
      "type": "function"
    },
    {
      "constant": false,
      "inputs": [
        {
          "internalType": "uint256",
          "name": "_pos1",
          "type": "uint256"
        },
        {
          "internalType": "uint256",
          "name": "_pos2",
          "type": "uint256"
        },
        {
          "internalType": "bytes32",
          "name": "_epochStateRoot",
          "type": "bytes32"
        },
        {
          "internalType": "bytes32",
          "name": "_epochTransactionsRoot",
          "type": "bytes32"
        },
        {
          "internalType": "bytes32",
          "name": "_epochReceiptsRoot",
          "type": "bytes32"
        }
      ],
      "name": "submitNRE",
      "outputs": [
        {
          "internalType": "bool",
          "name": "success",
          "type": "bool"
        }
      ],
      "payable": true,
      "stateMutability": "payable",
      "type": "function"
    },
    {
      "constant": false,
      "inputs": [
        {
          "internalType": "uint256",
          "name": "_pos",
          "type": "uint256"
        },
        {
          "internalType": "bytes32",
          "name": "_statesRoot",
          "type": "bytes32"
        },
        {
          "internalType": "bytes32",
          "name": "_transactionsRoot",
          "type": "bytes32"
        },
        {
          "internalType": "bytes32",
          "name": "_receiptsRoot",
          "type": "bytes32"
        }
      ],
      "name": "submitORB",
      "outputs": [
        {
          "internalType": "bool",
          "name": "success",
          "type": "bool"
        }
      ],
      "payable": true,
      "stateMutability": "payable",
      "type": "function"
    },
    {
      "constant": false,
      "inputs": [
        {
          "internalType": "uint256",
          "name": "_pos",
          "type": "uint256"
        },
        {
          "internalType": "bytes32",
          "name": "_statesRoot",
          "type": "bytes32"
        },
        {
          "internalType": "bytes32",
          "name": "_transactionsRoot",
          "type": "bytes32"
        },
        {
          "internalType": "bytes32",
          "name": "_receiptsRoot",
          "type": "bytes32"
        }
      ],
      "name": "submitURB",
      "outputs": [
        {
          "internalType": "bool",
          "name": "success",
          "type": "bool"
        }
      ],
      "payable": true,
      "stateMutability": "payable",
      "type": "function"
    }
  ],
  "bytecode": "0x60806040523480156200001157600080fd5b50604051620061fc380380620061fc83398101604081905262000034916200063e565b62000048336001600160e01b036200026316565b6200005c336001600160e01b03620002b516565b6200007b886001600160a01b03166200030760201b620036ab1760201c565b6200008557600080fd5b620000a4876001600160a01b03166200030760201b620036ab1760201c565b620000ae57600080fd5b620000cd866001600160a01b03166200030760201b620036ab1760201c565b620000d757600080fd5b600180546001600160a01b03199081166001600160a01b038b8116919091179092556002805482168a8416178155600380549092169289169290921781556000805460ff191688151517610100600160a81b031916610100330217815560058790556006548152600860209081526040808320838052600480820184528285208088018b90558087018a90559081018890559481019092528083208054790100000000000000000000000000000000000000000000000000600160801b600160c01b0319909116700100000000000000000000000000000000426001600160401b0316021760ff60c81b191617905593825292812080547a010000000000000000000000000000000000000000000000000000780100000000000000000000000000000000000000000000000060ff60c01b199092169190911760ff60d01b19161790556200022a90839083906200030d565b620002408260006001600160e01b03620003f316565b620002536001600160e01b03620004c916565b50505050505050505050620008b8565b6200027e8160166200059860201b6200397a1790919060201c565b6040516001600160a01b038216907fa199526a01dbcba68aa3ab9d7d06c6692c83fb1a8bcf2184e6d94ad34f5aaf9590600090a250565b620002d08160176200059860201b6200397a1790919060201c565b6040516001600160a01b038216907fb079bc2cbde1f186e0b351d4a87c4597e3ed098f571548617449e73506428d8b90600090a250565b3b151590565b60058201805464010000000060ff60201b1990911617905581546001600160c01b03167801000000000000000000000000000000000000000000000000426001600160401b0390811691909102919091178355600184018054600160801b600160c01b03191670010000000000000000000000000000000084841602178082558454600160401b600160801b0319909116921668010000000000000000029190911790556006546040517ffb96205e4b3633fd57aa805b26b51ecf528714a10241a4af015929dce86768d991620003e6918490620007ad565b60405180910390a1505050565b6000818152600383016020526040908190206006808201805470010000000000000000000000000000000060ff60801b199091168117600160401b600160801b031990811668010000000000000000426001600160401b03908116820292909217909455855460018a018054600160801b600160c01b0319169186900483169094021790911681881684021790915591548354945193947f70801d4d63b3da6c19ba7349911f45bed5a99ccdfb51b8138c105872529bebd594620003e6949293889383811693919091041690620007cc565b5050565b6001546040516000916060916001600160a01b0390911690620004ec90620007a0565b60408051918290038220600483526024830182526020830180516001600160e01b03167fffffffff00000000000000000000000000000000000000000000000000000000909216919091179052516200054691906200078b565b600060405180830381855af49150503d806000811462000583576040519150601f19603f3d011682016040523d82523d6000602084013e62000588565b606091505b509150915081620004c557600080fd5b620005ad82826001600160e01b03620005dd16565b15620005b857600080fd5b6001600160a01b0316600090815260209190915260409020805460ff19166001179055565b60006001600160a01b038216620005f357600080fd5b506001600160a01b03811660009081526020839052604090205460ff165b92915050565b8051620006118162000888565b80516200061181620008a2565b80516200061181620008ad565b600080600080600080600080610100898b0312156200065c57600080fd5b60006200066a8b8b62000617565b98505060206200067d8b828c0162000617565b9750506040620006908b828c0162000617565b9650506060620006a38b828c0162000624565b9550506080620006b68b828c0162000631565b94505060a0620006c98b828c0162000631565b93505060c0620006dc8b828c0162000631565b92505060e0620006ef8b828c0162000631565b9150509295985092959890939650565b60006200070c8262000812565b62000718818562000816565b93506200072a81856020860162000855565b9290920192915050565b600062000743600c8362000816565b7f707265706172654e5245282900000000000000000000000000000000000000008152600c0192915050565b6200077a816200082d565b82525050565b6200077a8162000848565b6000620007998284620006ff565b9392505050565b6000620006118262000734565b60408101620007bd82856200076f565b6200079960208301846200076f565b60808101620007dc82876200076f565b620007eb60208301866200076f565b620007fa604083018562000780565b62000809606083018462000780565b95945050505050565b5190565b919050565b6000620006118262000830565b151590565b90565b6001600160a01b031690565b6001600160401b031690565b600062000611826200083c565b60005b838110156200087257818101518382015260200162000858565b8381111562000882576000848401525b50505050565b62000893816200081b565b81146200089f57600080fd5b50565b620008938162000828565b62000893816200082d565b61593480620008c86000396000f3fe6080604052600436106104805760003560e01c80638b5172d01161025e578063c8ad329f11610143578063e259faf7116100bb578063ea0c73f61161008a578063f28a7afa1161006f578063f28a7afa14610b5a578063f4f31de414610b7a578063fb788a2714610b9a57610480565b8063ea0c73f614610b25578063ea7f22a814610b3a57610480565b8063e259faf714610ae0578063e6925d0814610af5578063e7b88b8014610afd578063e7f9650514610b1257610480565b8063d1723a9611610112578063d691acd8116100f7578063d691acd8146104bb578063da0185f814610aab578063de0ce17d14610acb57610480565b8063d1723a9614610a5e578063d636857e14610a8b57610480565b8063c8ad329f146109e9578063ca6f6380146109fe578063cb5d742f14610a1e578063ce8a2bc214610a3e57610480565b8063b2ae9ba8116101d6578063b8066bcb116101a5578063c0e860641161018a578063c0e860641461098d578063c2bc88fa146109bf578063c54626cc146109d457610480565b8063b8066bcb14610958578063c0c49c2a1461096d57610480565b8063b2ae9ba8146104bb578063b443f3cc146108ec578063b540adba14610923578063b67156471461093857610480565b806399bd36001161022d578063a926fdbc11610212578063a926fdbc146108a2578063ab96da2d146108c2578063b17fa6e9146108d757610480565b806399bd36001461087a578063a820c0671461088f57610480565b80638b5172d0146104bb5780638eb288ca14610850578063935212221461086557806394be3aa5146104bb57610480565b8063404f7d66116103845780636fb7f558116102fc57806378fe705f116102cb57806380e3e81d116102b057806380e3e81d146108065780638155717d14610826578063882eed2c1461083b57610480565b806378fe705f146107de5780637b929c27146107f157610480565b80636fb7f5581461077457806372ecb9a81461078957806375395a58146107a95780637657f20a146107be57610480565b8063570ca735116103535780635e0ca71b116103385780635e0ca71b1461072c5780636299fb24146107415780636f3e4b901461076157610480565b8063570ca735146106ea5780635b8846821461070c57610480565b8063404f7d66146106455780634a44bdb8146106655780634ba3a1261461069257806354768571146106ca57610480565b8063183d2d1c116104175780632aa196c8116103e65780632dc6bb7b116103cb5780632dc6bb7b146106065780633565fb0d1461061b578063398bac631461063057610480565b80632aa196c8146105c65780632b25a38b146105d957610480565b8063183d2d1c1461057c578063192adc5b146104bb5780631ec2042b1461059157806323691566146105b157610480565b806308c4fff01161045357806308c4fff0146105125780630eaf45a81461052757806311e4c91414610547578063164bc2ae1461056757610480565b8063019dc09914610485578063033cfbed146104bb57806306394c9b146104d0578063072900f9146104f2575b600080fd5b34801561049157600080fd5b506104a56104a0366004614b08565b610baf565b6040516104b291906154d2565b60405180910390f35b3480156104c757600080fd5b506104a5610bd7565b3480156104dc57600080fd5b506104f06104eb366004614a26565b610bdc565b005b3480156104fe57600080fd5b506104f061050d366004614a26565b610c7f565b34801561051e57600080fd5b506104a5610ca7565b61053a610535366004614cae565b610cac565b6040516104b291906153c7565b34801561055357600080fd5b506104a5610562366004614b08565b610ced565b34801561057357600080fd5b506104a5610d0f565b34801561058857600080fd5b506104a5610d15565b34801561059d57600080fd5b506104a56105ac366004614b08565b610d1b565b3480156105bd57600080fd5b506104a5610d39565b61053a6105d4366004614a86565b610d3f565b3480156105e557600080fd5b506105f96105f4366004614c7e565b610e01565b6040516104b291906154b4565b34801561061257600080fd5b506104a5611169565b34801561062757600080fd5b506104f061116f565b34801561063c57600080fd5b506105f961117a565b34801561065157600080fd5b506104f0610660366004614d23565b611515565b34801561067157600080fd5b50610685610680366004614c7e565b6117a1565b6040516104b291906154c3565b34801561069e57600080fd5b506106b26106ad366004614b08565b611891565b6040516104b29c9b9a99989796959493929190615720565b3480156106d657600080fd5b5061053a6106e5366004614b08565b611908565b3480156106f657600080fd5b506106ff611936565b6040516104b2919061539e565b34801561071857600080fd5b506104a5610727366004614c7e565b61194a565b34801561073857600080fd5b506104f061197b565b34801561074d57600080fd5b506104f061075c366004614bb7565b611984565b61053a61076f366004614b56565b6119e7565b34801561078057600080fd5b506106ff6119ef565b34801561079557600080fd5b506104a56107a4366004614b08565b6119fe565b3480156107b557600080fd5b5061053a611a10565b3480156107ca57600080fd5b506104f06107d9366004614a26565b611a29565b61053a6107ec366004614a86565b611a89565b3480156107fd57600080fd5b5061053a611af7565b34801561081257600080fd5b506104f0610821366004614a26565b611b00565b34801561083257600080fd5b506104a5611b25565b34801561084757600080fd5b5061053a611b2a565b34801561085c57600080fd5b506104a5611b2f565b34801561087157600080fd5b506104a5611b36565b34801561088657600080fd5b5061053a611b45565b61053a61089d366004614b56565b6123f3565b3480156108ae57600080fd5b5061053a6108bd366004614a26565b612432565b3480156108ce57600080fd5b506104a5612445565b3480156108e357600080fd5b506104a561244b565b3480156108f857600080fd5b5061090c610907366004614b08565b612450565b6040516104b29b9a99989796959493929190615676565b34801561092f57600080fd5b506104a5612571565b34801561094457600080fd5b506104a5610953366004614b08565b612577565b34801561096457600080fd5b506106ff612589565b34801561097957600080fd5b5061053a610988366004614a26565b612598565b34801561099957600080fd5b506109ad6109a8366004614b08565b6125ab565b6040516104b29695949392919061541c565b3480156109cb57600080fd5b506104a5612612565b3480156109e057600080fd5b506104a5612617565b3480156109f557600080fd5b506104a561261d565b348015610a0a57600080fd5b506104a5610a19366004614b08565b612623565b348015610a2a57600080fd5b5061053a610a39366004614a4c565b612635565b348015610a4a57600080fd5b5061053a610a59366004614b08565b612708565b348015610a6a57600080fd5b50610a7e610a79366004614b08565b612710565b6040516104b29190615493565b348015610a9757600080fd5b506104a5610aa6366004614b08565b6128b9565b348015610ab757600080fd5b506106ff610ac6366004614a26565b6128de565b348015610ad757600080fd5b506106ff610bd7565b348015610aec57600080fd5b506106ff6128f9565b6104f0612908565b348015610b0957600080fd5b506106ff61290f565b61053a610b20366004614a86565b61291e565b348015610b3157600080fd5b506104a561297a565b348015610b4657600080fd5b506109ad610b55366004614b08565b612980565b348015610b6657600080fd5b5061053a610b75366004614b26565b61298d565b348015610b8657600080fd5b5061090c610b95366004614b08565b6129d6565b348015610ba657600080fd5b506104a56129e3565b600081815260086020526040902060010154600160401b90046001600160401b03165b919050565b600081565b60005461010090046001600160a01b0316331480610c0457506004546001600160a01b031633145b610c0d57600080fd5b600080547fffffffffffffffffffffff0000000000000000000000000000000000000000ff166101006001600160a01b038416021790556040517f4721129e0e676ed6a92909bb24e853ccdd63ad72280cc2e974e38e480e0e6e5490610c7490839061539e565b60405180910390a150565b60005461010090046001600160a01b03163314610c9b57600080fd5b610ca4816129e9565b50565b600f81565b6000610cb733612432565b610cc057600080fd5b6000805460ff16610cd557610cd3612a31565b505b610ce28787878787612ba7565b979650505050505050565b600090815260086020526040902054600160801b90046001600160401b031690565b60105481565b60065481565b6000908152600860205260409020600101546001600160401b031690565b600d5481565b60008034610d556009600b888489898880612c9b565b600d805460010190556006546000908152600860205260408082209051929450917f6940a01870e576ceb735867e13863646d517ce10e66c0133186a4ebdfe9388c291610da491869190615594565b60405180910390a17f879922cf5fcada9ebaf8bd7424dc62877f4b220cae07fb6695cc1e8f94c52b4d833389858a8a600080604051610dea98979695949392919061555e565b60405180910390a1600193505050505b9392505050565b610e096144e3565b600860008481526020019081526020016000206003016000838152602001908152602001600020604051806101400160405290816000820160009054906101000a90046001600160401b03166001600160401b03166001600160401b031681526020016000820160089054906101000a90046001600160401b03166001600160401b03166001600160401b031681526020016000820160109054906101000a90046001600160401b03166001600160401b03166001600160401b031681526020016000820160189054906101000a900460ff161515151581526020016000820160199054906101000a900460ff1615151515815260200160008201601a9054906101000a900460ff1615151515815260200160008201601b9054906101000a900460ff1615151515815260200160008201601c9054906101000a900460ff16151515158152602001600182016040518060c00160405290816000820160009054906101000a90046001600160401b03166001600160401b03166001600160401b031681526020016000820160089054906101000a90046001600160401b03166001600160401b03166001600160401b031681526020016000820160109054906101000a90046001600160401b03166001600160401b03166001600160401b031681526020016000820160189054906101000a90046001600160401b03166001600160401b03166001600160401b031681526020016001820160009054906101000a90046001600160401b03166001600160401b03166001600160401b031681526020016001820160089054906101000a90046001600160401b03166001600160401b03166001600160401b031681525050815260200160038201604051806101000160405290816000820154815260200160018201548152602001600282015481526020016003820160009054906101000a90046001600160401b03166001600160401b03166001600160401b031681526020016003820160089054906101000a90046001600160401b03166001600160401b03166001600160401b031681526020016003820160109054906101000a900460ff161515151581526020016003820160119054906101000a900460ff161515151581526020016003820160129054906101000a900460ff1615151515815250508152505090505b92915050565b60135481565b611178336132ea565b565b6111826144e3565b600860006006548152602001908152602001600020600301600060086000600654815260200190815260200160002060000160109054906101000a90046001600160401b03166001600160401b03168152602001908152602001600020604051806101400160405290816000820160009054906101000a90046001600160401b03166001600160401b03166001600160401b031681526020016000820160089054906101000a90046001600160401b03166001600160401b03166001600160401b031681526020016000820160109054906101000a90046001600160401b03166001600160401b03166001600160401b031681526020016000820160189054906101000a900460ff161515151581526020016000820160199054906101000a900460ff1615151515815260200160008201601a9054906101000a900460ff1615151515815260200160008201601b9054906101000a900460ff1615151515815260200160008201601c9054906101000a900460ff16151515158152602001600182016040518060c00160405290816000820160009054906101000a90046001600160401b03166001600160401b03166001600160401b031681526020016000820160089054906101000a90046001600160401b03166001600160401b03166001600160401b031681526020016000820160109054906101000a90046001600160401b03166001600160401b03166001600160401b031681526020016000820160189054906101000a90046001600160401b03166001600160401b03166001600160401b031681526020016001820160009054906101000a90046001600160401b03166001600160401b03166001600160401b031681526020016001820160089054906101000a90046001600160401b03166001600160401b03166001600160401b031681525050815260200160038201604051806101000160405290816000820154815260200160018201548152602001600282015481526020016003820160009054906101000a90046001600160401b03166001600160401b03166001600160401b031681526020016003820160089054906101000a90046001600160401b03166001600160401b03166001600160401b031681526020016003820160109054906101000a900460ff161515151581526020016003820160119054906101000a900460ff161515151581526020016003820160129054906101000a900460ff1615151515815250508152505090505b90565b600087815260086020908152604080832089845260048101909252909120600581015460ff1661154457600080fd5b6005810154640100000000900460ff1661155d57600080fd5b6005810154600090610100900460ff1680156116695761163683600c8560000160089054906101000a90046001600160401b03166001600160401b0316815481106115a457fe5b9060005260206000209060020201600a8c8c8c8080601f016020809104026020016040519081016040528093929190818152602001838380828437600081840152601f19601f820116905080830192505050505050508b8b8080601f01602080910402602001604051908101604052809392919081815260200183838082843760009201919091525061333292505050565b60405190925033906108fc9060009081818181818888f19350505050158015611663573d6000803e3d6000fd5b5061175b565b61172c83600b8560000160089054906101000a90046001600160401b03166001600160401b03168154811061169a57fe5b906000526020600020906002020160098c8c8c8080601f016020809104026020016040519081016040528093929190818152602001838380828437600081840152601f19601f820116905080830192505050505050508b8b8080601f01602080910402602001604051908101604052809392919081815260200183838082843760009201919091525061333292505050565b60405190925033906108fc9060009081818181818888f19350505050158015611759573d6000803e3d6000fd5b505b7fc8135db115644ed4ae193313c4c801235ef740d2a57a8d5e6fe26ab66635698a828260405161178c929190615594565b60405180910390a15050505050505050505050565b6117a9614543565b506000918252600860209081526040808420928452600492830182529283902083516101a08101855281546001600160401b038082168352600160401b8204811694830194909452600160801b8104841695820195909552600160c01b9094048216606085015260018101549091166080840152600281015460a0840152600381015460c08401529081015460e08301526005015460ff80821615156101008085019190915282048116151561012084015262010000820481161515610140840152630100000082048116151561016084015264010000000090910416151561018082015290565b6008602052600090815260409020805460018201546002909201546001600160401b0380831693600160401b808504831694600160801b808204851695600160c01b92839004861695858116958581048216958482048316959182900483169484841694918204841693908204169160ff9104168c565b6000805b8281101561192d5761191c611b45565b61192557600080fd5b60010161190c565b50600192915050565b60005461010090046001600160a01b031681565b600091825260086020908152604080842092845260049092019052902054600160c01b90046001600160401b031690565b61117833613445565b60065460009081526008602090815260408083208b845260048101909252909120600581015460ff16156119b757600080fd5b8054426001600160401b03600160801b90920491909116600f01116119db57600080fd5b50505050505050505050565b600080610480565b6004546001600160a01b031681565b60076020526000908152604090205481565b6000611a1a612a31565b611a2357600080fd5b50600190565b60005461010090046001600160a01b0316331480611a5157506004546001600160a01b031633145b611a5a57600080fd5b6004805473ffffffffffffffffffffffffffffffffffffffff19166001600160a01b0392909216919091179055565b6000806000611aa2600a600c8860008989600180612c9b565b90507f879922cf5fcada9ebaf8bd7424dc62877f4b220cae07fb6695cc1e8f94c52b4d81338860008989600180604051611ae39897969594939291906154e0565b60405180910390a150600195945050505050565b60005460ff1681565b60005461010090046001600160a01b03163314611b1c57600080fd5b610ca48161348d565b600a81565b600181565b620186a081565b6000611b406134d5565b905090565b60105460009081526008602052604081206011546001820154601254849392916001600160401b03161015611b7957600080fd5b601254600090815260048301602090815260408083208484526003860190925290912083546001600160401b031615801590611bc3575083546012546001600160401b0390911611155b15611c2e5750506010805460010190819055600090815260086020908152604080832080546001600160401b03600160401b82048116808752600384018652848720600160c01b90930490911660128190556011829055865260048301909452919093209294509092505b600582015460ff16611cc05782611c58576010546000908152600f60205260409020549250611c7f565b600092835260038401602052604090922060020154600160401b90046001600160401b0316915b82611c8957600080fd5b50506000818152600383016020908152604080832080546001600160401b0316601281905584526004860190925290912090611ce0565b5080546001600160401b0316600081815260038501602052604090209092505b60118390558054600160c01b900460ff1615611cfb57600080fd5b8054600160d01b900460ff16611d1057600080fd5b600582015460ff16611d2157600080fd5b6005820154640100000000900460ff16611d3a57600080fd5b8154426001600160401b03600160c01b90920491909116600a011115611d5f57600080fd5b6005820154610100900460ff16156120da57601454600a549095508510611d8557600080fd5b6000600a8681548110611d9457fe5b906000526020600020906006020190506000600c8460000160089054906101000a90046001600160401b03166001600160401b031681548110611dd357fe5b600091825260209091206002909102018054909150600160881b90046001600160401b03168710801590611e14575060018101546001600160401b03168711155b611e1d57600080fd5b60018101546001600160401b0316871415611e785785546001600160401b031615801590611e5f575085546012546000196001600160401b0392831601909116145b15611e6e576010805460010190555b6012805460010190555b600187016014558154600160401b900460ff168015611ea057508154600160581b900460ff16155b1561207757604080516101608101825283546001600160401b0381168252600160401b810460ff9081161515602080850191909152600160481b83048216151584860152600160501b8304821615156060850152600160581b830490911615156080840152600160601b9091046001600160801b031660a08301526001808601546001600160a01b0390811660c085015260028088015490911660e085015260038701546101008086019190915260048801546101208601526005880180548751948116159092026000190190911691909104601f8101849004840283018401909552848252612001948c9493889361014086019390929091830182828015611fea5780601f10611fbf57610100808354040283529160200191611fea565b820191906000526020600020905b815481529060010190602001808311611fcd57829003601f168201915b5050505050815250506134da90919063ffffffff16565b5060018201546040516001600160a01b03909116906108fc9060009081818181818888f1935050505015801561203b573d6000803e3d6000fd5b507f6940a01870e576ceb735867e13863646d517ce10e66c0133186a4ebdfe9388c287600160405161206e929190615594565b60405180910390a15b81546aff000000000000000000001916600160501b1782556040517f134017cf3262b18f892ee95dde3b0aec9a80cc70a7c96f09c64bd237aceb0473906120c2908990600190615594565b60405180910390a16001975050505050505050611512565b60135460095490955085106120ee57600080fd5b8154600b8054600092600160401b90046001600160401b031690811061211057fe5b600091825260209091206002909102018054909150600160881b90046001600160401b03168610801590612151575060018101546001600160401b03168611155b61215a57600080fd5b60018101546001600160401b03168614156121b55784546001600160401b03161580159061219c575084546012546000196001600160401b0392831601909116145b156121ab576010805460010190555b6012805460010190555b6000600987815481106121c457fe5b600091825260209091206001890160135560069091020180546aff000000000000000000001916600160501b17808255909150600160401b900460ff16801561221657508054600160581b900460ff16155b156123ab57604080516101608101825282546001600160401b0381168252600160401b810460ff9081161515602080850191909152600160481b83048216151584860152600160501b8304821615156060850152600160581b830490911615156080840152600160601b9091046001600160801b031660a08301526001808501546001600160a01b0390811660c085015260028087015490911660e085015260038601546101008086019190915260048701546101208601526005870180548751948116159092026000190190911691909104601f8101849004840283018401909552848252612335948c9493879361014086019390929091830182828015611fea5780601f10611fbf57610100808354040283529160200191611fea565b5060018101546040516001600160a01b03909116906108fc9060009081818181818888f1935050505015801561236f573d6000803e3d6000fd5b507f6940a01870e576ceb735867e13863646d517ce10e66c0133186a4ebdfe9388c28760006040516123a2929190615594565b60405180910390a15b7f134017cf3262b18f892ee95dde3b0aec9a80cc70a7c96f09c64bd237aceb04738760006040516123dd929190615594565b60405180910390a1600197505050505050505090565b60006123fe33612432565b61240757600080fd5b6000805460ff1661241c5761241a612a31565b505b61242886868686613587565b9695505050505050565b600061116360178363ffffffff61367616565b60055481565b601481565b6009818154811061245d57fe5b6000918252602091829020600691909102018054600180830154600280850154600386015460048701546005880180546040805161010099831615999099026000190190911695909504601f81018b90048b0288018b019095528487526001600160401b0388169a50600160401b880460ff9081169a600160481b8a0482169a600160501b8b0483169a600160581b810490931699600160601b9093046001600160801b0316986001600160a01b03908116989716969093918301828280156125675780601f1061253c57610100808354040283529160200191612567565b820191906000526020600020905b81548152906001019060200180831161254a57829003601f168201915b505050505090508b565b60095490565b600e6020526000908152604090205481565b6003546001600160a01b031681565b600061116360168363ffffffff61367616565b600c81815481106125b857fe5b60009182526020909120600290910201805460019091015460ff821692506001600160401b036101008304811692600160481b8104821692600160881b9091048216918116906001600160a01b03600160401b9091041686565b603c81565b60145481565b60115481565b600f6020526000908152604090205481565b600061264033612598565b61264957600080fd5b61265b836001600160a01b03166136ab565b61266457600080fd5b6001600160a01b03838116600090815260156020526040902054161561268957600080fd5b6001600160a01b0383811660009081526015602052604090819020805473ffffffffffffffffffffffffffffffffffffffff191692851692909217909155517fc5ec2ed49686197edd2ed642c7e6096893cc81e6658cde2527030316037715d0906126f790859085906153ac565b60405180910390a150600192915050565b600654141590565b606060006009838154811061272157fe5b600091825260208083206002600690930201828101546001600160a01b039081168086526015845260408087205481516101608101835285546001600160401b038116825260ff600160401b820481161515838a0152600160481b82048116151583860152600160501b8204811615156060840152600160581b820416151560808301526001600160801b03600160601b9091041660a0820152600180870154861660c083015260e082019490945260038601546101008281019190915260048701546101208301526005870180548551601f60001998831615909402979097011699909904908101889004880285018801909352828452949850610dfa976128b4978c9791966128a796939093169492938b93610140860193909291908301828280156128905780601f1061286557610100808354040283529160200191612890565b820191906000526020600020905b81548152906001019060200180831161287357829003601f168201915b5050505050815250506136b190919063ffffffff16565b919063ffffffff61377f16565b6137d7565b600090815260086020526040902060010154600160801b90046001600160401b031690565b6015602052600090815260409020546001600160a01b031681565b6002546001600160a01b031681565b6000610480565b6001546001600160a01b031681565b60008060006129386009600b886000898960016000612c9b565b90507f879922cf5fcada9ebaf8bd7424dc62877f4b220cae07fb6695cc1e8f94c52b4d8133886000898960016000604051611ae39897969594939291906154e0565b600b5490565b600b81815481106125b857fe5b600081156129a757600a83815481106129a257fe5b506000525b600983815481106129b457fe5b6000918252602090912060069091020154600160501b900460ff169392505050565b600a818154811061245d57fe5b60125481565b6129fa60178263ffffffff61397a16565b6040516001600160a01b038216907fb079bc2cbde1f186e0b351d4a87c4597e3ed098f571548617449e73506428d8b90600090a250565b600654600090815260086020526040812080546001600160401b031615612a5c576000915050611512565b8054600180830154600092612a8e926001600160401b03600160c01b909204821692600160801b9004821601166139b3565b60018301549091506001600160401b0316811115612ab157600092505050611512565b6000818152600483016020526040902060058101546301000000900460ff1615612ae15760009350505050611512565b600581015460ff1615612b31578054426001600160401b03600160801b90920491909116600f011115612b1a5760009350505050611512565b612b258382846139ca565b60019350505050611512565b6001808401546001600160401b03600160401b9091048116909101165b6000818152600385016020526040902054600160d01b900460ff1615612b7657600101612b4e565b612b808482613ab4565b15612b9c57612b8f8482613b93565b6001945050505050611512565b600094505050505090565b60025460405160009182916060916001600160a01b031690612bc890615372565b60405180910390208989898989604051602401612be99594939291906155ff565b60408051601f198184030181529181526020820180517bffffffffffffffffffffffffffffffffffffffffffffffffffffffff166001600160e01b0319909416939093179092529051612c3c9190615366565b600060405180830381855af49150503d8060008114612c77576040519150601f19603f3d011682016040523d82523d6000602084013e612c7c565b606091505b509150915081612c8b57600080fd5b6001925050505b95945050505050565b600061040084511115612cad57600080fd5b6003546001600160a01b03888116911614808015612cc9575083155b80612ced57506001600160a01b038881166000908152601560205260409020541615155b612cf657600080fd5b8954612d058b600183016145af565b915060008a8381548110612d1557fe5b6000918252602091829020600691909102016001810180543373ffffffffffffffffffffffffffffffffffffffff19918216179091556002820180549091166001600160a01b038d16179055805467ffffffffffffffff1916426001600160401b03161768ff00000000000000001916600160401b881515021769ff0000000000000000001916600160481b85151502177fffffffff00000000000000000000000000000000ffffffffffffffffffffffff16600160601b6001600160801b038c1602178155600381018990558751909250612df9916005840191908901906145e0565b5084612f2257604080516101608101825282546001600160401b0381168252600160401b810460ff9081161515602080850191909152600160481b83048216151584860152600160501b8304821615156060850152600160581b830490911615156080840152600160601b9091046001600160801b031660a08301526001808501546001600160a01b0390811660c085015260028087015490911660e085015260038601546101008086019190915260048701546101208601526005870180548751948116159092026000190190911691909104601f8101849004840283018401909552848252612f1994889493879361014086019390929091830182828015611fea5780601f10611fbf57610100808354040283529160200191611fea565b612f2257600080fd5b895460009015612f37578a5460001901612f46565b8a54612f468c6001830161465e565b905060008b8281548110612f5657fe5b60009182526020909120600290910201805490915060ff1680612f9e5750612f7c6134d5565b81546001808401546001600160401b03600160881b9093048316908316030116145b1561301557805460ff1916600190811782558c548d91612fc1908390830161465e565b81548110612fcb57fe5b6000918252602090912060029091020180547fffffffffffffff0000000000000000ffffffffffffffffffffffffffffffffff16600160881b6001600160401b0388160217815590505b61301e81610ca4565b60018101805467ffffffffffffffff19166001600160401b0387161790558661306c5780546001600160401b0361010080830482166001019091160268ffffffffffffffff00199091161781555b838015613077575086155b156131ae57604080516101608101825284546001600160401b0381168252600160401b810460ff9081161515602080850191909152600160481b83048216151584860152600160501b8304821615156060850152600160581b830490911615156080840152600160601b9091046001600160801b031660a08301526001808701546001600160a01b0390811660c085015260028089015490911660e085015260038801546101008086019190915260048901546101208601526005890180548751948116159092026000190190911691909104601f81018490048402830184019095528482526131a994889461319a94339491938793610140860193928301828280156128905780601f1061286557610100808354040283529160200191612890565b8391908863ffffffff613c8716565b6132da565b6001600160a01b038b81166000908152601560209081526040918290205482516101608101845287546001600160401b0381168252600160401b810460ff908116151583860152600160481b82048116151583870152600160501b8204811615156060840152600160581b82041615156080830152600160601b90046001600160801b031660a0820152600180890154861660c08301526002808a0154871660e084015260038a01546101008085019190915260048b015461012085015260058b0180548851948116159092026000190190911691909104601f81018690048602830186019096528582526132da968a9661319a9695909116948793610140860193909290918301828280156128905780601f1061286557610100808354040283529160200191612890565b5050505098975050505050505050565b6132fb60168263ffffffff613ca916565b6040516001600160a01b038216907ff012269e1b6bb33c7800e7e54167ddd74f0ae7244108030b6876821d3779822f90600090a250565b845460018601546001600160401b03600160881b90920482168501911681111561335b57600080fd5b600085828154811061336957fe5b6000918252602090912089546006909202019150426001600160401b03600160c01b90920491909116600a011161339f57600080fd5b6005880154640100000000900460ff166133b857600080fd5b8054600160581b900460ff16156133ce57600080fd5b8054600160501b900460ff16156133e457600080fd5b835160208501206133f485613cde565b156133fe57600080fd5b60005460ff166134215761341881878b6004015487613d1b565b61342157600080fd5b5080546bff00000000000000000000001916600160581b1790559695505050505050565b61345660178263ffffffff613ca916565b6040516001600160a01b038216907ff84a004e1673d2f349a7c93c72b3794b8eba6d2f9338044d8c8cd260e51a57a190600090a250565b61349e60168263ffffffff61397a16565b6040516001600160a01b038216907fa199526a01dbcba68aa3ab9d7d06c6692c83fb1a8bcf2184e6d94ad34f5aaf9590600090a250565b601490565b600062019a285a116134eb57600080fd5b8260e001516001600160a01b031663a9f793088460200151848660c001518761010001518861014001516040518663ffffffff1660e01b81526004016135359594939291906153d5565b602060405180830381600087803b15801561354f57600080fd5b505af1158015613563573d6000803e3d6000fd5b505050506040513d601f19601f82011682018060405250610dfa9190810190614aea565b60025460405160009182916060916001600160a01b0316906135a890615388565b6040518091039020888888886040516024016135c794939291906155af565b60408051601f198184030181529181526020820180517bffffffffffffffffffffffffffffffffffffffffffffffffffffffff166001600160e01b031990941693909317909252905161361a9190615366565b600060405180830381855af49150503d8060008114613655576040519150601f19603f3d011682016040523d82523d6000602084013e61365a565b606091505b50915091508161366957600080fd5b5060019695505050505050565b60006001600160a01b03821661368b57600080fd5b506001600160a01b03166000908152602091909152604090205460ff1690565b3b151590565b6136b961468a565b6020808401805115159183019190915260408085015115159083015260c0808501516001600160a01b031690830152511580156136f7575082604001515b156137415760c08301516001600160a01b031660e082015261014083015160208101516001600160801b03811661372d57600080fd5b6001600160801b031660a083015250611163565b6001600160a01b03821660e082015260a0808401516001600160801b0316908201526101008084015190820152610140808401519082015292915050565b6137876146e8565b633b9aca006020820152620186a0604082015260e08401516001600160a01b0316606082015260a08401516001600160801b031660808201526137cb848484613de6565b60a08201529392505050565b6040805160098082526101408201909252606091829190816020015b60608152602001906001900390816137f3575050835190915061381e906001600160401b0316613ebc565b8160008151811061382b57fe5b60200260200101819052506138438360200151613ebc565b8160018151811061385057fe5b602002602001018190525061387183604001516001600160401b0316613ebc565b8160028151811061387e57fe5b602002602001018190525061389f83606001516001600160a01b0316613ecf565b816003815181106138ac57fe5b60200260200101819052506138c48360800151613ebc565b816004815181106138d157fe5b60200260200101819052506138e98360a00151613eff565b816005815181106138f657fe5b602002602001018190525061390e8360c00151613ebc565b8160068151811061391b57fe5b60200260200101819052506139338360e00151613ebc565b8160078151811061394057fe5b6020026020010181905250613959836101000151613ebc565b8160088151811061396657fe5b6020026020010181905250610dfa81613f6d565b6139848282613676565b1561398e57600080fd5b6001600160a01b0316600090815260209190915260409020805460ff19166001179055565b6000818310156139c35781610dfa565b5090919050565b60058201805464010000000064ff0000000019909116179055815477ffffffffffffffffffffffffffffffffffffffffffffffff16600160c01b426001600160401b03908116919091029190911783556001840180547fffffffffffffffff0000000000000000ffffffffffffffffffffffffffffffff16600160801b848416021780825584546fffffffffffffffff0000000000000000199091169216600160401b029190911790556006546040517ffb96205e4b3633fd57aa805b26b51ecf528714a10241a4af015929dce86768d991613aa79184906155e4565b60405180910390a1505050565b8154600090600160801b90046001600160401b0316821115613ad857506000611163565b600082815260038401602052604090208054790100000000000000000000000000000000000000000000000000900460ff16613b18576000915050611163565b8054600160d01b900460ff1615613b33576000915050611163565b6006810154600160881b900460ff1680613b67575060068101547201000000000000000000000000000000000000900460ff165b15613b76576000915050611163565b60060154426001600160401b039091166014011115905092915050565b60008181526003830160205260409081902060068082018054600160801b7fffffffffffffffffffffffffffffff00ffffffffffffffffffffffffffffffff90911681176fffffffffffffffff000000000000000019908116600160401b426001600160401b03908116820292909217909455855460018a0180547fffffffffffffffff0000000000000000ffffffffffffffffffffffffffffffff169186900483169094021790911681881684021790915591548354945193947f70801d4d63b3da6c19ba7349911f45bed5a99ccdfb51b8138c105872529bebd594613aa7949293889383811693919091041690615641565b613c9b613c968383600061377f565b613fca565b836004018190555050505050565b613cb38282613676565b613cbc57600080fd5b6001600160a01b0316600090815260209190915260409020805460ff19169055565b60006060613cfc6004613cf085613fe6565b9063ffffffff61400916565b9050610dfa81600081518110613d0e57fe5b6020026020010151614096565b60006020825181613d2857fe5b0615613d3357600080fd5b60006020835181613d4057fe5b04905060108110613d5057600080fd5b60008660205b836020028111613dd85785810151925060028806613d9e578183604051602001613d81929190615324565b604051602081830303815290604052805190602001209150613dca565b8282604051602001613db1929190615324565b6040516020818303038152906040528051906020012091505b600288049750602001613d56565b509094149695505050505050565b606083604001518015613dfb57508360200151155b15613e0557610dfa565b600082613e2557604051613e189061537d565b6040518091039020613e3a565b604051613e3190615393565b60405180910390205b9050808560200151613e4d576000613e50565b60015b60ff1660001b858760c001516001600160a01b0316886101000151896101400151604051602001613e8595949392919061546b565b60408051601f1981840301815290829052613ea3929160200161534a565b6040516020818303038152906040529150509392505050565b6060611163613eca836140ba565b613eff565b60408051741400000000000000000000000000000000000000008318601482015260348101909152606090610dfa815b606081516001148015613f495750607f60f81b82600081518110613f1f57fe5b01602001517fff000000000000000000000000000000000000000000000000000000000000001611155b15613f55575080610bd2565b611163613f678351608060ff166141cb565b836142ae565b604080516000808252602082019092526060915b8351811015613fb157613fa782858381518110613f9a57fe5b60200260200101516142ae565b9150600101613f81565b50610dfa613fc4825160c060ff166141cb565b826142ae565b60006060613fd7836137d7565b80516020909101209392505050565b613fee61474f565b50805160408051808201909152602092830181529182015290565b60608160405190808252806020026020018201604052801561404557816020015b61403261474f565b81526020019060019003908161402a5790505b509050614050614769565b61405984614393565b905060005b8381101561408e5761406f826143b8565b83828151811061407b57fe5b602090810291909101015260010161405e565b505092915050565b60008060006140a4846143ea565b90516020919091036101000a9004949350505050565b6040805160208082528183019092526060916000918391602082018180388339019050509050836020820152600091505b602082101561413c5780828151811061410057fe5b01602001517fff0000000000000000000000000000000000000000000000000000000000000016156141315761413c565b6001909101906140eb565b6060826020036040519080825280601f01601f19166020018201604052801561416c576020820181803883390190505b50905060005b81518110156141c257825160018501948491811061418c57fe5b602001015160f81c60f81b8282815181106141a357fe5b60200101906001600160f81b031916908160001a905350600101614172565b50949350505050565b6060600160401b8310614213576040517f08c379a000000000000000000000000000000000000000000000000000000000815260040161420a906154a4565b60405180910390fd5b6040805160018082528183019092526060916020820181803883390190505090506037841161426d5782840160f81b8160008151811061424f57fe5b60200101906001600160f81b031916908160001a9053509050611163565b6060614278856140ba565b90508381510160370160f81b8260008151811061429157fe5b60200101906001600160f81b031916908160001a905350612c9282825b60608082518451016040519080825280601f01601f1916602001820160405280156142e0576020820181803883390190505b5090506000805b8551811015614336578581815181106142fc57fe5b602001015160f81c60f81b83838151811061431357fe5b60200101906001600160f81b031916908160001a905350600191820191016142e7565b5060005b84518110156143895784818151811061434f57fe5b602001015160f81c60f81b83838151811061436657fe5b60200101906001600160f81b031916908160001a9053506001918201910161433a565b5090949350505050565b61439b614769565b60006143a683614449565b83519383529092016020820152919050565b6143c061474f565b602082015160006143d0826144b3565b828452602080850182905292019390910192909252919050565b805180516000918291821a90608082101561440c579250600191506144449050565b60b882101561442a5760018560200151039250806001019350614441565b602085015182820160b51901945082900360b60192505b50505b915091565b8051805160009190821a90608082101561446857600092505050610bd2565b60b8821080614483575060c08210158015614483575060f882105b1561449357600192505050610bd2565b60c08210156144a8575060b519019050610bd2565b5060f5190192915050565b8051600090811a60808110156144cc57600191506144dd565b60b88110156144dd57607e19810191505b50919050565b6040805161014081018252600080825260208201819052918101829052606081018290526080810182905260a0810182905260c0810182905260e08101919091526101008101614531614789565b815260200161453e6147be565b905290565b604080516101a081018252600080825260208201819052918101829052606081018290526080810182905260a0810182905260c0810182905260e08101829052610100810182905261012081018290526101408101829052610160810182905261018081019190915290565b8154818355818111156145db576006028160060283600052602060002091820191016145db9190614802565b505050565b828054600181600116156101000203166002900490600052602060002090601f016020900481019282601f1061462157805160ff191683800117855561464e565b8280016001018555821561464e579182015b8281111561464e578251825591602001919060010190614633565b5061465a929150614871565b5090565b8154818355818111156145db576002028160020283600052602060002091820191016145db919061488b565b604080516101608101825260008082526020820181905291810182905260608082018390526080820183905260a0820183905260c0820183905260e08201839052610100820183905261012082019290925261014081019190915290565b60405180610120016040528060006001600160401b031681526020016000815260200160006001600160401b0316815260200160006001600160a01b0316815260200160008152602001606081526020016000815260200160008152602001600081525090565b604051806040016040528060008152602001600081525090565b604051806040016040528061477c61474f565b8152602001600081525090565b6040805160c081018252600080825260208201819052918101829052606081018290526080810182905260a081019190915290565b6040805161010081018252600080825260208201819052918101829052606081018290526080810182905260a0810182905260c0810182905260e081019190915290565b61151291905b8082111561465a5780546001600160e01b031916815560018101805473ffffffffffffffffffffffffffffffffffffffff1990811690915560028201805490911690556000600382018190556004820181905561486860058301826148d9565b50600601614808565b61151291905b8082111561465a5760008155600101614877565b61151291905b8082111561465a5780547fffffffffffffff000000000000000000000000000000000000000000000000001681556001810180546001600160e01b0319169055600201614891565b50805460018160011615610100020316600290046000825580601f106148ff5750610ca4565b601f016020900490600052602060002090810190610ca49190614871565b8035611163816158cb565b60008083601f84011261493a57600080fd5b5081356001600160401b0381111561495157600080fd5b60208301915083602082028301111561496957600080fd5b9250929050565b8035611163816158df565b8051611163816158df565b8035611163816158e8565b60008083601f8401126149a357600080fd5b5081356001600160401b038111156149ba57600080fd5b60208301915083600182028301111561496957600080fd5b600082601f8301126149e357600080fd5b81356149f66149f1826157e8565b6157c2565b91508082526020830160208301858383011115614a1257600080fd5b614a1d838284615889565b50505092915050565b600060208284031215614a3857600080fd5b6000614a44848461491d565b949350505050565b60008060408385031215614a5f57600080fd5b6000614a6b858561491d565b9250506020614a7c8582860161491d565b9150509250929050565b600080600060608486031215614a9b57600080fd5b6000614aa7868661491d565b9350506020614ab886828701614986565b92505060408401356001600160401b03811115614ad457600080fd5b614ae0868287016149d2565b9150509250925092565b600060208284031215614afc57600080fd5b6000614a44848461497b565b600060208284031215614b1a57600080fd5b6000614a448484614986565b60008060408385031215614b3957600080fd5b6000614b458585614986565b9250506020614a7c85828601614970565b60008060008060808587031215614b6c57600080fd5b6000614b788787614986565b9450506020614b8987828801614986565b9350506040614b9a87828801614986565b9250506060614bab87828801614986565b91505092959194509250565b60008060008060008060008060a0898b031215614bd357600080fd5b6000614bdf8b8b614986565b98505060208901356001600160401b03811115614bfb57600080fd5b614c078b828c01614991565b975097505060408901356001600160401b03811115614c2557600080fd5b614c318b828c01614991565b95509550506060614c448b828c01614986565b93505060808901356001600160401b03811115614c6057600080fd5b614c6c8b828c01614928565b92509250509295985092959890939650565b60008060408385031215614c9157600080fd5b6000614c9d8585614986565b9250506020614a7c85828601614986565b600080600080600060a08688031215614cc657600080fd5b6000614cd28888614986565b9550506020614ce388828901614986565b9450506040614cf488828901614986565b9350506060614d0588828901614986565b9250506080614d1688828901614986565b9150509295509295909350565b600080600080600080600060a0888a031215614d3e57600080fd5b6000614d4a8a8a614986565b9750506020614d5b8a828b01614986565b9650506040614d6c8a828b01614986565b95505060608801356001600160401b03811115614d8857600080fd5b614d948a828b01614991565b945094505060808801356001600160401b03811115614db257600080fd5b614dbe8a828b01614991565b925092505092959891949750929550565b614dd88161585d565b82525050565b614dd88161581c565b614dd881615827565b614dd881611512565b614dd8614e0582611512565b611512565b614dd8614e058261582c565b6000614e218261580f565b614e2b8185615813565b9350614e3b818560208601615895565b614e44816158c1565b9093019392505050565b6000614e598261580f565b614e638185610bd2565b9350614e73818560208601615895565b9290920192915050565b614dd881615868565b6000614e93603283610bd2565b7f7375626d69744e52452875696e743235362c75696e743235362c62797465733381527f322c627974657333322c62797465733332290000000000000000000000000000602082015260320192915050565b6000614ef2603c83610bd2565b7f6170706c7952657175657374496e4368696c64436861696e28626f6f6c2c756981527f6e743235362c616464726573732c627974657333322c627974657329000000006020820152603c0192915050565b6000614f51600e83615813565b7f696e70757420746f6f206c6f6e67000000000000000000000000000000000000815260200192915050565b6000614f8a602a83610bd2565b7f7375626d69744f52422875696e743235362c627974657333322c62797465733381527f322c6279746573333229000000000000000000000000000000000000000000006020820152602a0192915050565b6000614fe9603b83610bd2565b7f6170706c7952657175657374496e526f6f74436861696e28626f6f6c2c75696e81527f743235362c616464726573732c627974657333322c62797465732900000000006020820152603b0192915050565b80516102c083019061504d848261531b565b506020820151615060602085018261531b565b506040820151615073604085018261531b565b5060608201516150866060850182614de7565b5060808201516150996080850182614de7565b5060a08201516150ac60a0850182614de7565b5060c08201516150bf60c0850182614de7565b5060e08201516150d260e0850182614de7565b506101008201516150e7610100850182615299565b506101208201516150fc6101c0850182615102565b50505050565b80516101008301906151148482614df0565b5060208201516151276020850182614df0565b50604082015161513a6040850182614df0565b50606082015161514d606085018261531b565b506080820151615160608085018261531b565b5060a082015161517360a0850182614de7565b5060c082015161518660c0850182614de7565b5060e08201516150fc60e0850182614de7565b80516101a08301906151ab848261531b565b5060208201516151be602085018261531b565b5060408201516151d1604085018261531b565b5060608201516151e4606085018261531b565b5060808201516151f7608085018261531b565b5060a082015161520a60a0850182614df0565b5060c082015161521d60c0850182614df0565b5060e082015161523060e0850182614df0565b50610100820151615245610100850182614de7565b5061012082015161525a610120850182614de7565b5061014082015161526f610140850182614de7565b50610160820151615284610160850182614de7565b506101808201516150fc610180850182614de7565b805160c08301906152aa848261531b565b5060208201516152bd602085018261531b565b5060408201516152d0604085018261531b565b5060608201516152e3606085018261531b565b5060808201516152f6608085018261531b565b5060a08201516150fc60a085018261531b565b614dd881615839565b614dd88161587e565b614dd881615851565b60006153308285614df9565b6020820191506153408284614df9565b5060200192915050565b60006153568285614e0a565b600482019150614a448284614e4e565b6000610dfa8284614e4e565b600061116382614e86565b600061116382614ee5565b600061116382614f7d565b600061116382614fdc565b602081016111638284614dde565b604081016153ba8285614dde565b610dfa6020830184614dde565b602081016111638284614de7565b60a081016153e38288614de7565b6153f06020830187614df0565b6153fd6040830186614dcf565b61540a6060830185614df0565b8181036080830152610ce28184614e16565b60c0810161542a8289614de7565b615437602083018861531b565b615444604083018761531b565b615451606083018661531b565b61545e608083018561531b565b610ce260a0830184614dde565b60a081016154798288614df0565b6154866020830187614df0565b6153fd6040830186614df0565b60208082528101610dfa8184614e16565b6020808252810161116381614f44565b6102c08101611163828461503b565b6101a081016111638284615199565b602081016111638284614df0565b61010081016154ef828b614df0565b6154fc602083018a614dcf565b6155096040830189614dde565b6155166060830188614e7d565b6155236080830187614df0565b81810360a08301526155358186614e16565b905061554460c0830185614de7565b61555160e0830184614de7565b9998505050505050505050565b610100810161556d828b614df0565b61557a602083018a614dcf565b6155876040830189614dde565b6155166060830188614df0565b604081016155a28285614df0565b610dfa6020830184614de7565b608081016155bd8287614df0565b6155ca6020830186614df0565b6155d76040830185614df0565b612c926060830184614df0565b604081016155f28285614df0565b610dfa6020830184614df0565b60a0810161560d8288614df0565b61561a6020830187614df0565b6156276040830186614df0565b6156346060830185614df0565b6124286080830184614df0565b6080810161564f8287614df0565b61565c6020830186614df0565b6156696040830185615312565b612c926060830184615312565b6101608101615685828e61531b565b615692602083018d614de7565b61569f604083018c614de7565b6156ac606083018b614de7565b6156b9608083018a614de7565b6156c660a0830189615309565b6156d360c0830188614dde565b6156e060e0830187614dde565b6156ee610100830186614df0565b6156fc610120830185614df0565b81810361014083015261570f8184614e16565b9d9c50505050505050505050505050565b610180810161572f828f61531b565b61573c602083018e61531b565b615749604083018d61531b565b615756606083018c61531b565b615763608083018b61531b565b61577060a083018a61531b565b61577d60c083018961531b565b61578a60e083018861531b565b61579861010083018761531b565b6157a661012083018661531b565b6157b461014083018561531b565b61570f610160830184614de7565b6040518181016001600160401b03811182821017156157e057600080fd5b604052919050565b60006001600160401b038211156157fe57600080fd5b506020601f91909101601f19160190565b5190565b90815260200190565b600061116382615845565b151590565b6001600160e01b03191690565b6001600160801b031690565b6001600160a01b031690565b6001600160401b031690565b600061116382615873565b600061116382611512565b60006111638261581c565b600061116382615851565b82818337506000910152565b60005b838110156158b0578181015183820152602001615898565b838111156150fc5750506000910152565b601f01601f191690565b6158d48161581c565b8114610ca457600080fd5b6158d481615827565b6158d48161151256fea365627a7a723158207ad091b928ce44ec028458610c456517fbc2cd1393004d78e0673bcfd17763006c6578706572696d656e74616cf564736f6c634300050c0040",
  "linkReferences": {},
  "deployedLinkReferences": {}
}