{
  "_format": "hh-sol-artifact-1",
  "contractName": "StakeTONProxyFactory",
  "sourceName": "contracts/factory/StakeTONProxyFactory.sol",
  "abi": [
    {
      "inputs": [],
      "name": "ADMIN_ROLE",
      "outputs": [
        {
          "internalType": "bytes32",
          "name": "",
          "type": "bytes32"
        }
      ],
      "stateMutability": "view",
      "type": "function"
    },
    {
      "inputs": [],
      "name": "BURNER_ROLE",
      "outputs": [
        {
          "internalType": "bytes32",
          "name": "",
          "type": "bytes32"
        }
      ],
      "stateMutability": "view",
      "type": "function"
    },
    {
      "inputs": [],
      "name": "MINTER_ROLE",
      "outputs": [
        {
          "internalType": "bytes32",
          "name": "",
          "type": "bytes32"
        }
      ],
      "stateMutability": "view",
      "type": "function"
    },
    {
      "inputs": [
        {
          "internalType": "address",
          "name": "_logic",
          "type": "address"
        },
        {
          "internalType": "address[4]",
          "name": "_addr",
          "type": "address[4]"
        },
        {
          "internalType": "address",
          "name": "_registry",
          "type": "address"
        },
        {
          "internalType": "uint256[3]",
          "name": "_intdata",
          "type": "uint256[3]"
        },
        {
          "internalType": "address",
          "name": "owner",
          "type": "address"
        }
      ],
      "name": "deploy",
      "outputs": [
        {
          "internalType": "address",
          "name": "",
          "type": "address"
        }
      ],
      "stateMutability": "nonpayable",
      "type": "function"
    }
  ],
  "bytecode": "0x608060405234801561001057600080fd5b5061460b806100206000396000f3fe608060405234801561001057600080fd5b506004361061004c5760003560e01c8063282c51f31461005157806375b238fc1461006f578063afd0239d1461008d578063d539139314610150575b600080fd5b61005961016e565b6040518082815260200191505060405180910390f35b610077610192565b6040518082815260200191505060405180910390f35b61012460048036036101408110156100a457600080fd5b81019080803573ffffffffffffffffffffffffffffffffffffffff16906020019092919080608001909192919290803573ffffffffffffffffffffffffffffffffffffffff16906020019092919080606001909192919290803573ffffffffffffffffffffffffffffffffffffffff1690602001909291905050506101b6565b604051808273ffffffffffffffffffffffffffffffffffffffff16815260200191505060405180910390f35b6101586104ce565b6040518082815260200191505060405180910390f35b7f9667e80708b6eeeb0053fa0cca44e028ff548e2a9f029edfeac87c118b08b7c881565b7fdf8b4c520ffe197c5343c6f5aec59570151ef9a492f2c624fd45ddde6135ec4281565b600080866040516101c6906104f2565b808273ffffffffffffffffffffffffffffffffffffffff168152602001915050604051809103906000f080158015610202573d6000803e3d6000fd5b509050600073ffffffffffffffffffffffffffffffffffffffff168173ffffffffffffffffffffffffffffffffffffffff1614156102a8576040517f08c379a00000000000000000000000000000000000000000000000000000000081526004018080602001828103825260208152602001807f5374616b65544f4e50726f7879466163746f72793a2070726f7879207a65726f81525060200191505060405180910390fd5b8073ffffffffffffffffffffffffffffffffffffffff1663e7bf950c8787876040518463ffffffff1660e01b81526004018084600460200280828437600081840152601f19601f8201169050808301925050508373ffffffffffffffffffffffffffffffffffffffff16815260200182600360200280828437600081840152601f19601f8201169050808301925050509350505050600060405180830381600087803b15801561035757600080fd5b505af115801561036b573d6000803e3d6000fd5b505050508073ffffffffffffffffffffffffffffffffffffffff16632f2ff15d7fdf8b4c520ffe197c5343c6f5aec59570151ef9a492f2c624fd45ddde6135ec42856040518363ffffffff1660e01b8152600401808381526020018273ffffffffffffffffffffffffffffffffffffffff16815260200192505050600060405180830381600087803b15801561040057600080fd5b505af1158015610414573d6000803e3d6000fd5b505050508073ffffffffffffffffffffffffffffffffffffffff1663d547741f7fdf8b4c520ffe197c5343c6f5aec59570151ef9a492f2c624fd45ddde6135ec42306040518363ffffffff1660e01b8152600401808381526020018273ffffffffffffffffffffffffffffffffffffffff16815260200192505050600060405180830381600087803b1580156104a957600080fd5b505af11580156104bd573d6000803e3d6000fd5b505050508091505095945050505050565b7ff0887ba65ee2024ea881d91b74c2450ef19e1557f03bed3ea9f16b037cbe2dc981565b6140d6806105008339019056fe60806040523480156200001157600080fd5b50604051620040d6380380620040d68339818101604052810190620000379190620005a9565b6200004f6301ffc9a760e01b620001de60201b60201c565b62000067634273ca1660e01b620001de60201b60201c565b60017f360894a13ba1a3210667c828492db98dca3e2076cc3735a920a3ca505d382bbd60001c0360001b7f360894a13ba1a3210667c828492db98dca3e2076cc3735a920a3ca505d382bbc60001b14620000bd57fe5b600073ffffffffffffffffffffffffffffffffffffffff168173ffffffffffffffffffffffffffffffffffffffff16141562000130576040517f08c379a0000000000000000000000000000000000000000000000000000000008152600401620001279062000617565b60405180910390fd5b6200014181620002e860201b60201c565b620001737fdf8b4c520ffe197c5343c6f5aec59570151ef9a492f2c624fd45ddde6135ec42806200038460201b60201c565b620001a57fdf8b4c520ffe197c5343c6f5aec59570151ef9a492f2c624fd45ddde6135ec4233620003e860201b60201c565b620001d77fdf8b4c520ffe197c5343c6f5aec59570151ef9a492f2c624fd45ddde6135ec4230620003e860201b60201c565b5062000698565b63ffffffff60e01b817bffffffffffffffffffffffffffffffffffffffffffffffffffffffff191614156200027b576040517f08c379a000000000000000000000000000000000000000000000000000000000815260040180806020018281038252601c8152602001807f4552433136353a20696e76616c696420696e746572666163652069640000000081525060200191505060405180910390fd5b6001601d6000837bffffffffffffffffffffffffffffffffffffffffffffffffffffffff19167bffffffffffffffffffffffffffffffffffffffffffffffffffffffff1916815260200190815260200160002060006101000a81548160ff02191690831515021790555050565b620002fe81620003fe60201b6200248e1760201c565b62000355576040517f08c379a0000000000000000000000000000000000000000000000000000000008152600401808060200182810382526046815260200180620040906046913960600191505060405180910390fd5b60007f360894a13ba1a3210667c828492db98dca3e2076cc3735a920a3ca505d382bbc60001b90508181555050565b80601c600084815260200190815260200160002060020154837fbd79b86ffe0ab8e8776151514217cd7cacd52c909f66475c3af44e129f0b00ff60405160405180910390a480601c6000848152602001908152602001600020600201819055505050565b620003fa82826200041160201b60201c565b5050565b600080823b905060008111915050919050565b6200044081601c6000858152602001908152602001600020600001620004b560201b620024a11790919060201c565b15620004b15762000456620004ed60201b60201c565b73ffffffffffffffffffffffffffffffffffffffff168173ffffffffffffffffffffffffffffffffffffffff16837f2f8788117e7eff1d82e926ec794901d17c78024a50270940304540a733656f0d60405160405180910390a45b5050565b6000620004e5836000018373ffffffffffffffffffffffffffffffffffffffff1660001b620004f560201b60201c565b905092915050565b600033905090565b60006200050983836200056f60201b60201c565b6200056457826000018290806001815401808255809150506001900390600052602060002001600090919091909150558260000180549050836001016000848152602001908152602001600020819055506001905062000569565b600090505b92915050565b600080836001016000848152602001908152602001600020541415905092915050565b600081519050620005a3816200067e565b92915050565b600060208284031215620005bc57600080fd5b6000620005cc8482850162000592565b91505092915050565b6000620005e4601c8362000639565b91507f5374616b65544f4e50726f78793a206c6f676963206973207a65726f000000006000830152602082019050919050565b600060208201905081810360008301526200063281620005d5565b9050919050565b600082825260208201905092915050565b600062000657826200065e565b9050919050565b600073ffffffffffffffffffffffffffffffffffffffff82169050919050565b62000689816200064a565b81146200069557600080fd5b50565b6139e880620006a86000396000f3fe6080604052600436106102ce5760003560e01c8063722853261161017b578063acc3a939116100d7578063e09974b911610085578063e09974b914610b56578063e58e274714610b81578063e6a7bc8714610bac578063e7bf950c14610bd7578063fbfa77cf14610c00578063fc0c546a14610c2b578063fd7fa46014610c56576102dd565b8063acc3a939146109e9578063b2d4d6a314610a2c578063ca15c87314610a57578063cc48b94714610a94578063d539139314610abf578063d547741f14610aea578063dac3fc3f14610b13576102dd565b80639010d07c116101345780639010d07c1461089357806391d14854146108d057806392ea3b4c1461090d5780639a88be2f146109385780639d84ca3514610968578063a1f5f50e14610993578063a217fddf146109be576102dd565b8063722853261461079557806375829def146107c057806375b238fc146107e95780637cb00d2514610814578063869890381461083d5780638d62d94914610868576102dd565b80633659cfe61161022a57806363a8fd89116101e357806363a8fd891461066a57806368304835146106955780636c7ac9d8146106c05780636e7cf534146106eb5780636ec4be90146107165780636fb7f55814610741578063704802751461076c576102dd565b80633659cfe6146105585780634273ca161461058157806343b0934a146105be57806348cd4cb1146105e9578063567e98f9146106145780635c60da1b1461063f576102dd565b80631785f53c116102875780631785f53c1461040d5780632002727514610436578063248a9ca31461046157806324d7806c1461049e578063282c51f3146104db5780632f2ff15d1461050657806336568abe1461052f576102dd565b806301ffc9a7146102e757806305871b7814610324578063083c63231461034f5780630ac8e0f31461037a5780630bfb3841146103a55780630ea3d9c9146103e2576102dd565b366102dd576102db610c81565b005b6102e5610c81565b005b3480156102f357600080fd5b5061030e60048036038101906103099190612eb9565b610d3c565b60405161031b9190613483565b60405180910390f35b34801561033057600080fd5b50610339610da4565b6040516103469190613639565b60405180910390f35b34801561035b57600080fd5b50610364610daa565b6040516103719190613639565b60405180910390f35b34801561038657600080fd5b5061038f610db0565b60405161039c9190613639565b60405180910390f35b3480156103b157600080fd5b506103cc60048036038101906103c79190612c93565b610db6565b6040516103d99190613483565b60405180910390f35b3480156103ee57600080fd5b506103f761127a565b6040516104049190613639565b60405180910390f35b34801561041957600080fd5b50610434600480360381019061042f9190612c2e565b611280565b005b34801561044257600080fd5b5061044b61130b565b6040516104589190613639565b60405180910390f35b34801561046d57600080fd5b5061048860048036038101906104839190612e18565b611311565b604051610495919061349e565b60405180910390f35b3480156104aa57600080fd5b506104c560048036038101906104c09190612c2e565b611331565b6040516104d29190613483565b60405180910390f35b3480156104e757600080fd5b506104f0611364565b6040516104fd919061349e565b60405180910390f35b34801561051257600080fd5b5061052d60048036038101906105289190612e41565b611388565b005b34801561053b57600080fd5b5061055660048036038101906105519190612e41565b611412565b005b34801561056457600080fd5b5061057f600480360381019061057a9190612c2e565b6114ab565b005b34801561058d57600080fd5b506105a860048036038101906105a39190612cf6565b61163e565b6040516105b59190613483565b60405180910390f35b3480156105ca57600080fd5b506105d3611724565b6040516105e091906133cf565b60405180910390f35b3480156105f557600080fd5b506105fe61174a565b60405161060b9190613639565b60405180910390f35b34801561062057600080fd5b50610629611750565b6040516106369190613639565b60405180910390f35b34801561064b57600080fd5b50610654611756565b60405161066191906133cf565b60405180910390f35b34801561067657600080fd5b5061067f611765565b60405161068c9190613483565b60405180910390f35b3480156106a157600080fd5b506106aa611778565b6040516106b791906133cf565b60405180910390f35b3480156106cc57600080fd5b506106d561179e565b6040516106e291906133cf565b60405180910390f35b3480156106f757600080fd5b506107006117c4565b60405161070d9190613483565b60405180910390f35b34801561072257600080fd5b5061072b6117d7565b60405161073891906133cf565b60405180910390f35b34801561074d57600080fd5b506107566117fd565b60405161076391906133cf565b60405180910390f35b34801561077857600080fd5b50610793600480360381019061078e9190612c2e565b611823565b005b3480156107a157600080fd5b506107aa6118ae565b6040516107b79190613639565b60405180910390f35b3480156107cc57600080fd5b506107e760048036038101906107e29190612c2e565b6118b4565b005b3480156107f557600080fd5b506107fe611aae565b60405161080b919061349e565b60405180910390f35b34801561082057600080fd5b5061083b60048036038101906108369190612dc6565b611ad2565b005b34801561084957600080fd5b50610852611b4d565b60405161085f9190613639565b60405180910390f35b34801561087457600080fd5b5061087d611b53565b60405161088a91906133cf565b60405180910390f35b34801561089f57600080fd5b506108ba60048036038101906108b59190612e7d565b611b79565b6040516108c791906133cf565b60405180910390f35b3480156108dc57600080fd5b506108f760048036038101906108f29190612e41565b611bab565b6040516109049190613483565b60405180910390f35b34801561091957600080fd5b50610922611bdd565b60405161092f91906133cf565b60405180910390f35b34801561094457600080fd5b5061094d611c03565b60405161095f969594939291906133ea565b60405180910390f35b34801561097457600080fd5b5061097d611c97565b60405161098a91906133cf565b60405180910390f35b34801561099f57600080fd5b506109a8611cbd565b6040516109b59190613483565b60405180910390f35b3480156109ca57600080fd5b506109d3611cd0565b6040516109e0919061349e565b60405180910390f35b3480156109f557600080fd5b50610a106004803603810190610a0b9190612c2e565b611cd7565b604051610a239796959493929190613654565b60405180910390f35b348015610a3857600080fd5b50610a41611d26565b604051610a4e9190613639565b60405180910390f35b348015610a6357600080fd5b50610a7e6004803603810190610a799190612e18565b611d2c565b604051610a8b9190613639565b60405180910390f35b348015610aa057600080fd5b50610aa9611d53565b604051610ab691906133cf565b60405180910390f35b348015610acb57600080fd5b50610ad4611d79565b604051610ae1919061349e565b60405180910390f35b348015610af657600080fd5b50610b116004803603810190610b0c9190612e41565b611d9d565b005b348015610b1f57600080fd5b50610b3a6004803603810190610b359190612c2e565b611e27565b604051610b4d9796959493929190613654565b60405180910390f35b348015610b6257600080fd5b50610b6b61202d565b604051610b789190613639565b60405180910390f35b348015610b8d57600080fd5b50610b96612033565b604051610ba39190613639565b60405180910390f35b348015610bb857600080fd5b50610bc1612039565b604051610bce9190613639565b60405180910390f35b348015610be357600080fd5b50610bfe6004803603810190610bf99190612d76565b61203f565b005b348015610c0c57600080fd5b50610c1561243e565b604051610c2291906133cf565b60405180910390f35b348015610c3757600080fd5b50610c40612464565b604051610c4d91906133cf565b60405180910390f35b348015610c6257600080fd5b50610c6b612488565b604051610c789190613639565b60405180910390f35b6000610c8b6124d1565b9050600073ffffffffffffffffffffffffffffffffffffffff168173ffffffffffffffffffffffffffffffffffffffff1614158015610cd75750600c60009054906101000a900460ff16155b610d16576040517f08c379a0000000000000000000000000000000000000000000000000000000008152600401610d0d90613619565b60405180910390fd5b3660008037600080366000845af43d6000803e8060008114610d37573d6000f35b3d6000fd5b6000601d6000837bffffffffffffffffffffffffffffffffffffffffffffffffffffffff19167bffffffffffffffffffffffffffffffffffffffffffffffffffffffff1916815260200190815260200160002060009054906101000a900460ff169050919050565b60155481565b60065481565b60145481565b60008473ffffffffffffffffffffffffffffffffffffffff16600260009054906101000a900473ffffffffffffffffffffffffffffffffffffffff1673ffffffffffffffffffffffffffffffffffffffff16148015610e155750600082115b8015610e4c57503073ffffffffffffffffffffffffffffffffffffffff168373ffffffffffffffffffffffffffffffffffffffff16145b610e8b576040517f08c379a0000000000000000000000000000000000000000000000000000000008152600401610e82906135f9565b60405180910390fd5b6004544310158015610e9e575060055443105b610edd576040517f08c379a0000000000000000000000000000000000000000000000000000000008152600401610ed4906134b9565b60405180910390fd5b600360009054906101000a900473ffffffffffffffffffffffffffffffffffffffff1673ffffffffffffffffffffffffffffffffffffffff1663b8c766b86040518163ffffffff1660e01b815260040160206040518083038186803b158015610f4557600080fd5b505afa158015610f59573d6000803e3d6000fd5b505050506040513d601f19601f82011682018060405250810190610f7d9190612def565b15610fbd576040517f08c379a0000000000000000000000000000000000000000000000000000000008152600401610fb490613579565b60405180910390fd5b81600260009054906101000a900473ffffffffffffffffffffffffffffffffffffffff1673ffffffffffffffffffffffffffffffffffffffff166370a08231866040518263ffffffff1660e01b815260040161101991906133cf565b60206040518083038186803b15801561103157600080fd5b505afa158015611045573d6000803e3d6000fd5b505050506040513d601f19601f820116820180604052508101906110699190612ee2565b10156110aa576040517f08c379a00000000000000000000000000000000000000000000000000000000081526004016110a1906135d9565b60405180910390fd5b6000600960008673ffffffffffffffffffffffffffffffffffffffff1673ffffffffffffffffffffffffffffffffffffffff1681526020019081526020016000209050600081600001541415611117576111106001600a5461250290919063ffffffff16565b600a819055505b61112e83826000015461250290919063ffffffff16565b816000018190555061114b8360085461250290919063ffffffff16565b6008819055508573ffffffffffffffffffffffffffffffffffffffff166323b872dd8686866040518463ffffffff1660e01b815260040161118e9392919061344c565b602060405180830381600087803b1580156111a857600080fd5b505af11580156111bc573d6000803e3d6000fd5b505050506040513d601f19601f820116820180604052508101906111e09190612def565b61121f576040517f08c379a0000000000000000000000000000000000000000000000000000000008152600401611216906134d9565b60405180910390fd5b8473ffffffffffffffffffffffffffffffffffffffff167f9e71bc8eea02a63969f509818f2dafb9254532904319f9dbda79b67bd34a5f3d846040516112659190613639565b60405180910390a26001915050949350505050565b60165481565b61128933611331565b6112de576040517f08c379a00000000000000000000000000000000000000000000000000000000081526004018080602001828103825260228152602001806138ec6022913960400191505060405180910390fd5b6113087fdf8b4c520ffe197c5343c6f5aec59570151ef9a492f2c624fd45ddde6135ec4282611412565b50565b60045481565b6000601c6000838152602001908152602001600020600201549050919050565b600061135d7fdf8b4c520ffe197c5343c6f5aec59570151ef9a492f2c624fd45ddde6135ec4283611bab565b9050919050565b7f9667e80708b6eeeb0053fa0cca44e028ff548e2a9f029edfeac87c118b08b7c881565b6113af601c6000848152602001908152602001600020600201546113aa61258a565b611bab565b611404576040517f08c379a000000000000000000000000000000000000000000000000000000000815260040180806020018281038252602f8152602001806138bd602f913960400191505060405180910390fd5b61140e8282612592565b5050565b61141a61258a565b73ffffffffffffffffffffffffffffffffffffffff168173ffffffffffffffffffffffffffffffffffffffff161461149d576040517f08c379a000000000000000000000000000000000000000000000000000000000815260040180806020018281038252602f815260200180613984602f913960400191505060405180910390fd5b6114a78282612626565b5050565b6114b433611331565b611509576040517f08c379a00000000000000000000000000000000000000000000000000000000081526004018080602001828103825260228152602001806138ec6022913960400191505060405180910390fd5b600073ffffffffffffffffffffffffffffffffffffffff168173ffffffffffffffffffffffffffffffffffffffff161415611579576040517f08c379a000000000000000000000000000000000000000000000000000000000815260040161157090613559565b60405180910390fd5b8073ffffffffffffffffffffffffffffffffffffffff166115986124d1565b73ffffffffffffffffffffffffffffffffffffffff1614156115ef576040517f08c379a00000000000000000000000000000000000000000000000000000000081526004016115e690613599565b60405180910390fd5b6115f8816126ba565b8073ffffffffffffffffffffffffffffffffffffffff167fbc7cd75a20ee27fd9adebab32041f755214dbc6bffa90cc0225b39da2e5c2d3b60405160405180910390a250565b600080600061164d8585612747565b91509150808614801561168b57508173ffffffffffffffffffffffffffffffffffffffff168773ffffffffffffffffffffffffffffffffffffffff16145b6116ca576040517f08c379a00000000000000000000000000000000000000000000000000000000081526004016116c190613519565b60405180910390fd5b6116d633898484610db6565b611715576040517f08c379a000000000000000000000000000000000000000000000000000000000815260040161170c906135b9565b60405180910390fd5b60019250505095945050505050565b600260009054906101000a900473ffffffffffffffffffffffffffffffffffffffff1681565b60055481565b60085481565b60006117606124d1565b905090565b600c60009054906101000a900460ff1681565b600160009054906101000a900473ffffffffffffffffffffffffffffffffffffffff1681565b601060009054906101000a900473ffffffffffffffffffffffffffffffffffffffff1681565b601b60009054906101000a900460ff1681565b601160009054906101000a900473ffffffffffffffffffffffffffffffffffffffff1681565b600f60009054906101000a900473ffffffffffffffffffffffffffffffffffffffff1681565b61182c33611331565b611881576040517f08c379a00000000000000000000000000000000000000000000000000000000081526004018080602001828103825260228152602001806138ec6022913960400191505060405180910390fd5b6118ab7fdf8b4c520ffe197c5343c6f5aec59570151ef9a492f2c624fd45ddde6135ec4282611388565b50565b60195481565b6118bd33611331565b611912576040517f08c379a00000000000000000000000000000000000000000000000000000000081526004018080602001828103825260228152602001806138ec6022913960400191505060405180910390fd5b600073ffffffffffffffffffffffffffffffffffffffff168173ffffffffffffffffffffffffffffffffffffffff1614156119b5576040517f08c379a00000000000000000000000000000000000000000000000000000000081526004018080602001828103825260188152602001807f41636365737369626c653a207a65726f2061646472657373000000000000000081525060200191505060405180910390fd5b8073ffffffffffffffffffffffffffffffffffffffff163373ffffffffffffffffffffffffffffffffffffffff161415611a57576040517f08c379a00000000000000000000000000000000000000000000000000000000081526004018080602001828103825260168152602001807f41636365737369626c653a2073616d652061646d696e0000000000000000000081525060200191505060405180910390fd5b611a817fdf8b4c520ffe197c5343c6f5aec59570151ef9a492f2c624fd45ddde6135ec4282611388565b611aab7fdf8b4c520ffe197c5343c6f5aec59570151ef9a492f2c624fd45ddde6135ec4233611412565b50565b7fdf8b4c520ffe197c5343c6f5aec59570151ef9a492f2c624fd45ddde6135ec4281565b611adb33611331565b611b30576040517f08c379a00000000000000000000000000000000000000000000000000000000081526004018080602001828103825260228152602001806138ec6022913960400191505060405180910390fd5b80600c60006101000a81548160ff02191690831515021790555050565b600a5481565b600e60009054906101000a900473ffffffffffffffffffffffffffffffffffffffff1681565b6000611ba382601c600086815260200190815260200160002060000161276890919063ffffffff16565b905092915050565b6000611bd582601c600086815260200190815260200160002060000161278290919063ffffffff16565b905092915050565b601260009054906101000a900473ffffffffffffffffffffffffffffffffffffffff1681565b600080611c0e612a06565b6000806000600260009054906101000a900473ffffffffffffffffffffffffffffffffffffffff16600360009054906101000a900473ffffffffffffffffffffffffffffffffffffffff16604051806060016040528060045481526020016005548152602001600654815250600754600854600a54955095509550955095509550909192939495565b600c60019054906101000a900473ffffffffffffffffffffffffffffffffffffffff1681565b600c60159054906101000a900460ff1681565b6000801b81565b60096020528060005260406000206000915090508060000154908060010154908060020154908060030154908060040154908060050154908060060160009054906101000a900460ff16905087565b60075481565b6000611d4c601c60008481526020019081526020016000206000016127b2565b9050919050565b600d60009054906101000a900473ffffffffffffffffffffffffffffffffffffffff1681565b7ff0887ba65ee2024ea881d91b74c2450ef19e1557f03bed3ea9f16b037cbe2dc981565b611dc4601c600084815260200190815260200160002060020154611dbf61258a565b611bab565b611e19576040517f08c379a000000000000000000000000000000000000000000000000000000000815260040180806020018281038252603081526020018061390e6030913960400191505060405180910390fd5b611e238282612626565b5050565b6000806000806000806000600960008973ffffffffffffffffffffffffffffffffffffffff1673ffffffffffffffffffffffffffffffffffffffff16815260200190815260200160002060000154600960008a73ffffffffffffffffffffffffffffffffffffffff1673ffffffffffffffffffffffffffffffffffffffff16815260200190815260200160002060010154600960008b73ffffffffffffffffffffffffffffffffffffffff1673ffffffffffffffffffffffffffffffffffffffff16815260200190815260200160002060020154600960008c73ffffffffffffffffffffffffffffffffffffffff1673ffffffffffffffffffffffffffffffffffffffff16815260200190815260200160002060030154600960008d73ffffffffffffffffffffffffffffffffffffffff1673ffffffffffffffffffffffffffffffffffffffff16815260200190815260200160002060040154600960008e73ffffffffffffffffffffffffffffffffffffffff1673ffffffffffffffffffffffffffffffffffffffff16815260200190815260200160002060050154600960008f73ffffffffffffffffffffffffffffffffffffffff1673ffffffffffffffffffffffffffffffffffffffff16815260200190815260200160002060060160009054906101000a900460ff169650965096509650965096509650919395979092949650565b601a5481565b60175481565b60185481565b61204833611331565b61209d576040517f08c379a00000000000000000000000000000000000000000000000000000000081526004018080602001828103825260228152602001806138ec6022913960400191505060405180910390fd5b600073ffffffffffffffffffffffffffffffffffffffff1660008054906101000a900473ffffffffffffffffffffffffffffffffffffffff1673ffffffffffffffffffffffffffffffffffffffff161461212c576040517f08c379a000000000000000000000000000000000000000000000000000000000815260040161212390613539565b60405180910390fd5b600073ffffffffffffffffffffffffffffffffffffffff168273ffffffffffffffffffffffffffffffffffffffff16141580156121a75750600073ffffffffffffffffffffffffffffffffffffffff168360026004811061218957fe5b602002015173ffffffffffffffffffffffffffffffffffffffff1614155b80156121d45750806001600381106121bb57fe5b6020020151816000600381106121cd57fe5b6020020151105b612213576040517f08c379a000000000000000000000000000000000000000000000000000000000815260040161220a906134f9565b60405180910390fd5b8260006004811061222057fe5b60200201516000806101000a81548173ffffffffffffffffffffffffffffffffffffffff021916908373ffffffffffffffffffffffffffffffffffffffff1602179055508260016004811061227157fe5b6020020151600260006101000a81548173ffffffffffffffffffffffffffffffffffffffff021916908373ffffffffffffffffffffffffffffffffffffffff160217905550826002600481106122c357fe5b6020020151600360006101000a81548173ffffffffffffffffffffffffffffffffffffffff021916908373ffffffffffffffffffffffffffffffffffffffff1602179055508260036004811061231557fe5b6020020151600c60016101000a81548173ffffffffffffffffffffffffffffffffffffffff021916908373ffffffffffffffffffffffffffffffffffffffff16021790555081600160006101000a81548173ffffffffffffffffffffffffffffffffffffffff021916908373ffffffffffffffffffffffffffffffffffffffff1602179055506000601260006101000a81548173ffffffffffffffffffffffffffffffffffffffff021916908373ffffffffffffffffffffffffffffffffffffffff160217905550806000600381106123ea57fe5b60200201516004819055508060016003811061240257fe5b60200201516005819055506124338160026003811061241d57fe5b602002015160055461250290919063ffffffff16565b600681905550505050565b600360009054906101000a900473ffffffffffffffffffffffffffffffffffffffff1681565b60008054906101000a900473ffffffffffffffffffffffffffffffffffffffff1681565b60135481565b600080823b905060008111915050919050565b60006124c9836000018373ffffffffffffffffffffffffffffffffffffffff1660001b6127c7565b905092915050565b6000807f360894a13ba1a3210667c828492db98dca3e2076cc3735a920a3ca505d382bbc60001b9050805491505090565b600080828401905083811015612580576040517f08c379a000000000000000000000000000000000000000000000000000000000815260040180806020018281038252601b8152602001807f536166654d6174683a206164646974696f6e206f766572666c6f77000000000081525060200191505060405180910390fd5b8091505092915050565b600033905090565b6125ba81601c60008581526020019081526020016000206000016124a190919063ffffffff16565b15612622576125c761258a565b73ffffffffffffffffffffffffffffffffffffffff168173ffffffffffffffffffffffffffffffffffffffff16837f2f8788117e7eff1d82e926ec794901d17c78024a50270940304540a733656f0d60405160405180910390a45b5050565b61264e81601c600085815260200190815260200160002060000161283790919063ffffffff16565b156126b65761265b61258a565b73ffffffffffffffffffffffffffffffffffffffff168173ffffffffffffffffffffffffffffffffffffffff16837ff6391f5c32d9c69d2a47ea670b442974b53935d1edc7fd64eb21e047a839171b60405160405180910390a45b5050565b6126c38161248e565b612718576040517f08c379a000000000000000000000000000000000000000000000000000000000815260040180806020018281038252604681526020018061393e6046913960600191505060405180910390fd5b60007f360894a13ba1a3210667c828492db98dca3e2076cc3735a920a3ca505d382bbc60001b90508181555050565b60008083838101906127599190612c57565b80925081935050509250929050565b60006127778360000183612867565b60001c905092915050565b60006127aa836000018373ffffffffffffffffffffffffffffffffffffffff1660001b6128ea565b905092915050565b60006127c08260000161290d565b9050919050565b60006127d383836128ea565b61282c578260000182908060018154018082558091505060019003906000526020600020016000909190919091505582600001805490508360010160008481526020019081526020016000208190555060019050612831565b600090505b92915050565b600061285f836000018373ffffffffffffffffffffffffffffffffffffffff1660001b61291e565b905092915050565b6000818360000180549050116128c8576040517f08c379a000000000000000000000000000000000000000000000000000000000815260040180806020018281038252602281526020018061389b6022913960400191505060405180910390fd5b8260000182815481106128d757fe5b9060005260206000200154905092915050565b600080836001016000848152602001908152602001600020541415905092915050565b600081600001805490509050919050565b600080836001016000848152602001908152602001600020549050600081146129fa576000600182039050600060018660000180549050039050600086600001828154811061296957fe5b906000526020600020015490508087600001848154811061298657fe5b90600052602060002001819055506001830187600101600083815260200190815260200160002081905550866000018054806129be57fe5b60019003818190600052602060002001600090559055866001016000878152602001908152602001600020600090556001945050505050612a00565b60009150505b92915050565b6040518060600160405280600390602082028036833780820191505090505090565b6000612a3b612a36846136f4565b6136c3565b90508082856020860282011115612a5157600080fd5b60005b85811015612a815781612a678882612aee565b845260208401935060208301925050600181019050612a54565b5050509392505050565b6000612a9e612a998461371a565b6136c3565b90508082856020860282011115612ab457600080fd5b60005b85811015612ae45781612aca8882612c04565b845260208401935060208301925050600181019050612ab7565b5050509392505050565b600081359050612afd81613810565b92915050565b600081359050612b1281613827565b92915050565b600082601f830112612b2957600080fd5b6004612b36848285612a28565b91505092915050565b600082601f830112612b5057600080fd5b6003612b5d848285612a8b565b91505092915050565b600081359050612b758161383e565b92915050565b600081519050612b8a8161383e565b92915050565b600081359050612b9f81613855565b92915050565b600081359050612bb48161386c565b92915050565b60008083601f840112612bcc57600080fd5b8235905067ffffffffffffffff811115612be557600080fd5b602083019150836001820283011115612bfd57600080fd5b9250929050565b600081359050612c1381613883565b92915050565b600081519050612c2881613883565b92915050565b600060208284031215612c4057600080fd5b6000612c4e84828501612aee565b91505092915050565b60008060408385031215612c6a57600080fd5b6000612c7885828601612b03565b9250506020612c8985828601612c04565b9150509250929050565b60008060008060808587031215612ca957600080fd5b6000612cb787828801612aee565b9450506020612cc887828801612aee565b9350506040612cd987828801612aee565b9250506060612cea87828801612c04565b91505092959194509250565b600080600080600060808688031215612d0e57600080fd5b6000612d1c88828901612aee565b9550506020612d2d88828901612aee565b9450506040612d3e88828901612c04565b935050606086013567ffffffffffffffff811115612d5b57600080fd5b612d6788828901612bba565b92509250509295509295909350565b60008060006101008486031215612d8c57600080fd5b6000612d9a86828701612b18565b9350506080612dab86828701612aee565b92505060a0612dbc86828701612b3f565b9150509250925092565b600060208284031215612dd857600080fd5b6000612de684828501612b66565b91505092915050565b600060208284031215612e0157600080fd5b6000612e0f84828501612b7b565b91505092915050565b600060208284031215612e2a57600080fd5b6000612e3884828501612b90565b91505092915050565b60008060408385031215612e5457600080fd5b6000612e6285828601612b90565b9250506020612e7385828601612aee565b9150509250929050565b60008060408385031215612e9057600080fd5b6000612e9e85828601612b90565b9250506020612eaf85828601612c04565b9150509250929050565b600060208284031215612ecb57600080fd5b6000612ed984828501612ba5565b91505092915050565b600060208284031215612ef457600080fd5b6000612f0284828501612c19565b91505092915050565b6000612f1783836133b1565b60208301905092915050565b612f2c8161377e565b82525050565b612f3b8161374a565b612f458184613762565b9250612f5082613740565b8060005b83811015612f81578151612f688782612f0b565b9650612f7383613755565b925050600181019050612f54565b505050505050565b612f92816137a2565b82525050565b612fa1816137ae565b82525050565b6000612fb460218361376d565b91507f5374616b65544f4e50726f78793a20706572696f64206e6f7420616c6c6f776560008301527f64000000000000000000000000000000000000000000000000000000000000006020830152604082019050919050565b600061301a601c8361376d565b91507f5374616b65544f4e50726f78793a207472616e73666572206661696c000000006000830152602082019050919050565b600061305a601b8361376d565b91507f5374616b65544f4e50726f78793a20736574496e6974206661696c00000000006000830152602082019050919050565b600061309a602a8361376d565b91507f5374616b65544f4e50726f78793a20746f6e416d6f756e7420213d207374616b60008301527f696e67416d6f756e7420000000000000000000000000000000000000000000006020830152604082019050919050565b600061310060228361376d565b91507f5374616b65544f4e50726f78793a20616c726561647920696e697469616c697a60008301527f65640000000000000000000000000000000000000000000000000000000000006020830152604082019050919050565b6000613166601c8361376d565b91507f5374616b65544f4e50726f78793a20696e707574206973207a65726f000000006000830152602082019050919050565b60006131a660178361376d565b91507f5374616b65544f4e50726f78793a20656e642073616c650000000000000000006000830152602082019050919050565b60006131e660358361376d565b91507f5374616b65544f4e50726f78793a2054686520696e707574206164647265737360008301527f2069732073616d652061732074686520737461746500000000000000000000006020830152604082019050919050565b600061324c60248361376d565b91507f5374616b65544f4e50726f78793a207374616b654f6e417070726f766520666160008301527f696c7320000000000000000000000000000000000000000000000000000000006020830152604082019050919050565b60006132b260198361376d565b91507f5374616b65544f4e50726f78793a20696e7375666669656e74000000000000006000830152602082019050919050565b60006132f260278361376d565b91507f5374616b65544f4e50726f78793a207374616b654f6e417070726f766520696e60008301527f6974206661696c000000000000000000000000000000000000000000000000006020830152604082019050919050565b6000613358602d8361376d565b91507f5374616b65544f4e50726f78793a20696d706c206973207a65726f204f52207060008301527f726f78792069732066616c7365000000000000000000000000000000000000006020830152604082019050919050565b6133ba81613804565b82525050565b6133c981613804565b82525050565b60006020820190506133e46000830184612f23565b92915050565b6000610100820190506134006000830189612f23565b61340d6020830188612f23565b61341a6040830187612f32565b61342760a08301866133c0565b61343460c08301856133c0565b61344160e08301846133c0565b979650505050505050565b60006060820190506134616000830186612f23565b61346e6020830185612f23565b61347b60408301846133c0565b949350505050565b60006020820190506134986000830184612f89565b92915050565b60006020820190506134b36000830184612f98565b92915050565b600060208201905081810360008301526134d281612fa7565b9050919050565b600060208201905081810360008301526134f28161300d565b9050919050565b600060208201905081810360008301526135128161304d565b9050919050565b600060208201905081810360008301526135328161308d565b9050919050565b60006020820190508181036000830152613552816130f3565b9050919050565b6000602082019050818103600083015261357281613159565b9050919050565b6000602082019050818103600083015261359281613199565b9050919050565b600060208201905081810360008301526135b2816131d9565b9050919050565b600060208201905081810360008301526135d28161323f565b9050919050565b600060208201905081810360008301526135f2816132a5565b9050919050565b60006020820190508181036000830152613612816132e5565b9050919050565b600060208201905081810360008301526136328161334b565b9050919050565b600060208201905061364e60008301846133c0565b92915050565b600060e082019050613669600083018a6133c0565b61367660208301896133c0565b61368360408301886133c0565b61369060608301876133c0565b61369d60808301866133c0565b6136aa60a08301856133c0565b6136b760c0830184612f89565b98975050505050505050565b6000604051905081810181811067ffffffffffffffff821117156136ea576136e961380e565b5b8060405250919050565b600067ffffffffffffffff82111561370f5761370e61380e565b5b602082029050919050565b600067ffffffffffffffff8211156137355761373461380e565b5b602082029050919050565b6000819050919050565b600060039050919050565b6000602082019050919050565b600081905092915050565b600082825260208201905092915050565b6000613789826137e4565b9050919050565b600061379b826137e4565b9050919050565b60008115159050919050565b6000819050919050565b60007fffffffff0000000000000000000000000000000000000000000000000000000082169050919050565b600073ffffffffffffffffffffffffffffffffffffffff82169050919050565b6000819050919050565bfe5b6138198161377e565b811461382457600080fd5b50565b61383081613790565b811461383b57600080fd5b50565b613847816137a2565b811461385257600080fd5b50565b61385e816137ae565b811461386957600080fd5b50565b613875816137b8565b811461388057600080fd5b50565b61388c81613804565b811461389757600080fd5b5056fe456e756d657261626c655365743a20696e646578206f7574206f6620626f756e6473416363657373436f6e74726f6c3a2073656e646572206d75737420626520616e2061646d696e20746f206772616e7441636365737369626c653a2043616c6c6572206973206e6f7420616e2061646d696e416363657373436f6e74726f6c3a2073656e646572206d75737420626520616e2061646d696e20746f207265766f6b6550726f7879426173653a2043616e6e6f742073657420612070726f787920696d706c656d656e746174696f6e20746f2061206e6f6e2d636f6e74726163742061646472657373416363657373436f6e74726f6c3a2063616e206f6e6c792072656e6f756e636520726f6c657320666f722073656c66a2646970667358221220e287e1ee67ea38ac4aaf8477643998dbbfe2ddc3e12dc553f9e18c9858f2e39a64736f6c6343000706003350726f7879426173653a2043616e6e6f742073657420612070726f787920696d706c656d656e746174696f6e20746f2061206e6f6e2d636f6e74726163742061646472657373a2646970667358221220c637868e42a5ab22fcd23e4003046d1ef12bdc4fa2474f79ed76bdad0213a35f64736f6c63430007060033",
  "linkReferences": {},
  "deployedLinkReferences": {}
}