{
  "_format": "hh-sol-artifact-1",
  "contractName": "SwapProxy",
  "sourceName": "contracts/stake/tokens/SwapProxy.sol",
  "abi": [
    {
      "inputs": [],
      "payable": false,
      "stateMutability": "nonpayable",
      "type": "constructor"
    },
    {
      "constant": false,
      "inputs": [
        {
          "internalType": "address",
          "name": "owner",
          "type": "address"
        },
        {
          "internalType": "address",
          "name": "spender",
          "type": "address"
        },
        {
          "internalType": "uint256",
          "name": "tonAmount",
          "type": "uint256"
        },
        {
          "internalType": "bytes",
          "name": "data",
          "type": "bytes"
        }
      ],
      "name": "onApprove",
      "outputs": [
        {
          "internalType": "bool",
          "name": "",
          "type": "bool"
        }
      ],
      "payable": false,
      "stateMutability": "nonpayable",
      "type": "function"
    },
    {
      "constant": true,
      "inputs": [
        {
          "internalType": "bytes4",
          "name": "interfaceId",
          "type": "bytes4"
        }
      ],
      "name": "supportsInterface",
      "outputs": [
        {
          "internalType": "bool",
          "name": "",
          "type": "bool"
        }
      ],
      "payable": false,
      "stateMutability": "view",
      "type": "function"
    }
  ],
  "bytecode": "0x608060405234801561001057600080fd5b506100437f01ffc9a7000000000000000000000000000000000000000000000000000000006001600160e01b0361007a16565b6100757f4273ca16000000000000000000000000000000000000000000000000000000006001600160e01b0361007a16565b610148565b7fffffffff00000000000000000000000000000000000000000000000000000000808216141561010b57604080517f08c379a000000000000000000000000000000000000000000000000000000000815260206004820152601c60248201527f4552433136353a20696e76616c696420696e7465726661636520696400000000604482015290519081900360640190fd5b7fffffffff00000000000000000000000000000000000000000000000000000000166000908152602081905260409020805460ff19166001179055565b6101a2806101576000396000f3fe608060405234801561001057600080fd5b50600436106100365760003560e01c806301ffc9a71461003b5780634273ca161461008e575b600080fd5b61007a6004803603602081101561005157600080fd5b50357fffffffff000000000000000000000000000000000000000000000000000000001661012b565b604080519115158252519081900360200190f35b61007a600480360360808110156100a457600080fd5b73ffffffffffffffffffffffffffffffffffffffff8235811692602081013590911691604082013591908101906080810160608201356401000000008111156100ec57600080fd5b8201836020820111156100fe57600080fd5b8035906020019184600183028401116401000000008311171561012057600080fd5b509092509050610162565b7fffffffff000000000000000000000000000000000000000000000000000000001660009081526020819052604090205460ff1690565b60019594505050505056fea265627a7a723158203c2f347a54813a617a6c91ac0aa5d8733629d632b1551f2b685b0dfc9682e62164736f6c634300050c0032",
  "linkReferences": {},
  "deployedLinkReferences": {}
}