{
  "_format": "hh-sol-artifact-1",
  "contractName": "StakeUniswapV3",
  "sourceName": "contracts/stake/StakeUniswapV3.sol",
  "abi": [
    {
      "inputs": [],
      "stateMutability": "nonpayable",
      "type": "constructor"
    },
    {
      "anonymous": false,
      "inputs": [
        {
          "indexed": true,
          "internalType": "address",
          "name": "to",
          "type": "address"
        },
        {
          "indexed": false,
          "internalType": "uint256",
          "name": "amount",
          "type": "uint256"
        },
        {
          "indexed": false,
          "internalType": "uint256",
          "name": "claimBlock",
          "type": "uint256"
        }
      ],
      "name": "Claimed",
      "type": "event"
    },
    {
      "anonymous": false,
      "inputs": [
        {
          "indexed": true,
          "internalType": "bytes32",
          "name": "role",
          "type": "bytes32"
        },
        {
          "indexed": true,
          "internalType": "bytes32",
          "name": "previousAdminRole",
          "type": "bytes32"
        },
        {
          "indexed": true,
          "internalType": "bytes32",
          "name": "newAdminRole",
          "type": "bytes32"
        }
      ],
      "name": "RoleAdminChanged",
      "type": "event"
    },
    {
      "anonymous": false,
      "inputs": [
        {
          "indexed": true,
          "internalType": "bytes32",
          "name": "role",
          "type": "bytes32"
        },
        {
          "indexed": true,
          "internalType": "address",
          "name": "account",
          "type": "address"
        },
        {
          "indexed": true,
          "internalType": "address",
          "name": "sender",
          "type": "address"
        }
      ],
      "name": "RoleGranted",
      "type": "event"
    },
    {
      "anonymous": false,
      "inputs": [
        {
          "indexed": true,
          "internalType": "bytes32",
          "name": "role",
          "type": "bytes32"
        },
        {
          "indexed": true,
          "internalType": "address",
          "name": "account",
          "type": "address"
        },
        {
          "indexed": true,
          "internalType": "address",
          "name": "sender",
          "type": "address"
        }
      ],
      "name": "RoleRevoked",
      "type": "event"
    },
    {
      "anonymous": false,
      "inputs": [
        {
          "indexed": true,
          "internalType": "address",
          "name": "to",
          "type": "address"
        },
        {
          "indexed": false,
          "internalType": "uint256",
          "name": "amount",
          "type": "uint256"
        }
      ],
      "name": "Staked",
      "type": "event"
    },
    {
      "anonymous": false,
      "inputs": [
        {
          "indexed": true,
          "internalType": "address",
          "name": "to",
          "type": "address"
        },
        {
          "indexed": false,
          "internalType": "uint256",
          "name": "tokenId",
          "type": "uint256"
        }
      ],
      "name": "WithdrawalToken",
      "type": "event"
    },
    {
      "inputs": [],
      "name": "ADMIN_ROLE",
      "outputs": [
        {
          "internalType": "bytes32",
          "name": "",
          "type": "bytes32"
        }
      ],
      "stateMutability": "view",
      "type": "function"
    },
    {
      "inputs": [],
      "name": "BURNER_ROLE",
      "outputs": [
        {
          "internalType": "bytes32",
          "name": "",
          "type": "bytes32"
        }
      ],
      "stateMutability": "view",
      "type": "function"
    },
    {
      "inputs": [],
      "name": "DEFAULT_ADMIN_ROLE",
      "outputs": [
        {
          "internalType": "bytes32",
          "name": "",
          "type": "bytes32"
        }
      ],
      "stateMutability": "view",
      "type": "function"
    },
    {
      "inputs": [],
      "name": "MINTER_ROLE",
      "outputs": [
        {
          "internalType": "bytes32",
          "name": "",
          "type": "bytes32"
        }
      ],
      "stateMutability": "view",
      "type": "function"
    },
    {
      "inputs": [
        {
          "internalType": "address",
          "name": "account",
          "type": "address"
        }
      ],
      "name": "addAdmin",
      "outputs": [],
      "stateMutability": "nonpayable",
      "type": "function"
    },
    {
      "inputs": [
        {
          "internalType": "uint256",
          "name": "tokenId",
          "type": "uint256"
        }
      ],
      "name": "claim",
      "outputs": [],
      "stateMutability": "nonpayable",
      "type": "function"
    },
    {
      "inputs": [],
      "name": "coinage",
      "outputs": [
        {
          "internalType": "address",
          "name": "",
          "type": "address"
        }
      ],
      "stateMutability": "view",
      "type": "function"
    },
    {
      "inputs": [],
      "name": "coinageMintBlock",
      "outputs": [
        {
          "internalType": "uint256",
          "name": "",
          "type": "uint256"
        }
      ],
      "stateMutability": "view",
      "type": "function"
    },
    {
      "inputs": [
        {
          "internalType": "uint256",
          "name": "",
          "type": "uint256"
        }
      ],
      "name": "depositTokens",
      "outputs": [
        {
          "internalType": "address",
          "name": "owner",
          "type": "address"
        },
        {
          "internalType": "uint256",
          "name": "idIndex",
          "type": "uint256"
        },
        {
          "internalType": "address",
          "name": "poolAddress",
          "type": "address"
        },
        {
          "internalType": "uint128",
          "name": "liquidity",
          "type": "uint128"
        },
        {
          "internalType": "int24",
          "name": "tickLower",
          "type": "int24"
        },
        {
          "internalType": "int24",
          "name": "tickUpper",
          "type": "int24"
        },
        {
          "internalType": "uint256",
          "name": "startTime",
          "type": "uint256"
        },
        {
          "internalType": "uint256",
          "name": "endTime",
          "type": "uint256"
        },
        {
          "internalType": "uint256",
          "name": "claimedTime",
          "type": "uint256"
        },
        {
          "internalType": "uint160",
          "name": "secondsPerLiquidityInsideX128Initial",
          "type": "uint160"
        },
        {
          "internalType": "uint160",
          "name": "secondsPerLiquidityInsideX128Last",
          "type": "uint160"
        }
      ],
      "stateMutability": "view",
      "type": "function"
    },
    {
      "inputs": [
        {
          "internalType": "uint256",
          "name": "tokenId",
          "type": "uint256"
        }
      ],
      "name": "getClaimLiquidity",
      "outputs": [
        {
          "internalType": "uint256",
          "name": "realReward",
          "type": "uint256"
        },
        {
          "internalType": "uint256",
          "name": "unableClaimReward",
          "type": "uint256"
        },
        {
          "internalType": "uint160",
          "name": "secondsPerLiquidityInsideX128",
          "type": "uint160"
        },
        {
          "internalType": "uint256",
          "name": "balanceCoinageOfUser",
          "type": "uint256"
        },
        {
          "internalType": "uint256",
          "name": "_coinageReward",
          "type": "uint256"
        }
      ],
      "stateMutability": "view",
      "type": "function"
    },
    {
      "inputs": [
        {
          "internalType": "uint256",
          "name": "tokenId",
          "type": "uint256"
        }
      ],
      "name": "getDepositToken",
      "outputs": [
        {
          "internalType": "address",
          "name": "poolAddress",
          "type": "address"
        },
        {
          "internalType": "int24[2]",
          "name": "tick",
          "type": "int24[2]"
        },
        {
          "internalType": "uint128",
          "name": "liquidity",
          "type": "uint128"
        },
        {
          "internalType": "uint256[6]",
          "name": "args",
          "type": "uint256[6]"
        },
        {
          "internalType": "uint160[2]",
          "name": "secondsPL",
          "type": "uint160[2]"
        }
      ],
      "stateMutability": "view",
      "type": "function"
    },
    {
      "inputs": [
        {
          "internalType": "bytes32",
          "name": "role",
          "type": "bytes32"
        }
      ],
      "name": "getRoleAdmin",
      "outputs": [
        {
          "internalType": "bytes32",
          "name": "",
          "type": "bytes32"
        }
      ],
      "stateMutability": "view",
      "type": "function"
    },
    {
      "inputs": [
        {
          "internalType": "bytes32",
          "name": "role",
          "type": "bytes32"
        },
        {
          "internalType": "uint256",
          "name": "index",
          "type": "uint256"
        }
      ],
      "name": "getRoleMember",
      "outputs": [
        {
          "internalType": "address",
          "name": "",
          "type": "address"
        }
      ],
      "stateMutability": "view",
      "type": "function"
    },
    {
      "inputs": [
        {
          "internalType": "bytes32",
          "name": "role",
          "type": "bytes32"
        }
      ],
      "name": "getRoleMemberCount",
      "outputs": [
        {
          "internalType": "uint256",
          "name": "",
          "type": "uint256"
        }
      ],
      "stateMutability": "view",
      "type": "function"
    },
    {
      "inputs": [
        {
          "internalType": "address",
          "name": "user",
          "type": "address"
        }
      ],
      "name": "getUserStakedTokenIds",
      "outputs": [
        {
          "internalType": "uint256[]",
          "name": "ids",
          "type": "uint256[]"
        }
      ],
      "stateMutability": "view",
      "type": "function"
    },
    {
      "inputs": [
        {
          "internalType": "address",
          "name": "user",
          "type": "address"
        }
      ],
      "name": "getUserStakedTotal",
      "outputs": [
        {
          "internalType": "uint256",
          "name": "totalDepositAmount",
          "type": "uint256"
        },
        {
          "internalType": "uint256",
          "name": "totalClaimedAmount",
          "type": "uint256"
        },
        {
          "internalType": "uint256",
          "name": "totalUnableClaimAmount",
          "type": "uint256"
        }
      ],
      "stateMutability": "view",
      "type": "function"
    },
    {
      "inputs": [
        {
          "internalType": "bytes32",
          "name": "role",
          "type": "bytes32"
        },
        {
          "internalType": "address",
          "name": "account",
          "type": "address"
        }
      ],
      "name": "grantRole",
      "outputs": [],
      "stateMutability": "nonpayable",
      "type": "function"
    },
    {
      "inputs": [
        {
          "internalType": "bytes32",
          "name": "role",
          "type": "bytes32"
        },
        {
          "internalType": "address",
          "name": "account",
          "type": "address"
        }
      ],
      "name": "hasRole",
      "outputs": [
        {
          "internalType": "bool",
          "name": "",
          "type": "bool"
        }
      ],
      "stateMutability": "view",
      "type": "function"
    },
    {
      "inputs": [],
      "name": "infos",
      "outputs": [
        {
          "internalType": "address[4]",
          "name": "",
          "type": "address[4]"
        },
        {
          "internalType": "address[4]",
          "name": "",
          "type": "address[4]"
        },
        {
          "internalType": "uint256[4]",
          "name": "",
          "type": "uint256[4]"
        }
      ],
      "stateMutability": "view",
      "type": "function"
    },
    {
      "inputs": [
        {
          "internalType": "address",
          "name": "account",
          "type": "address"
        }
      ],
      "name": "isAdmin",
      "outputs": [
        {
          "internalType": "bool",
          "name": "",
          "type": "bool"
        }
      ],
      "stateMutability": "view",
      "type": "function"
    },
    {
      "inputs": [],
      "name": "nonfungiblePositionManager",
      "outputs": [
        {
          "internalType": "contract INonfungiblePositionManager",
          "name": "",
          "type": "address"
        }
      ],
      "stateMutability": "view",
      "type": "function"
    },
    {
      "inputs": [],
      "name": "pauseProxy",
      "outputs": [
        {
          "internalType": "bool",
          "name": "",
          "type": "bool"
        }
      ],
      "stateMutability": "view",
      "type": "function"
    },
    {
      "inputs": [],
      "name": "poolToken0",
      "outputs": [
        {
          "internalType": "address",
          "name": "",
          "type": "address"
        }
      ],
      "stateMutability": "view",
      "type": "function"
    },
    {
      "inputs": [],
      "name": "poolToken1",
      "outputs": [
        {
          "internalType": "address",
          "name": "",
          "type": "address"
        }
      ],
      "stateMutability": "view",
      "type": "function"
    },
    {
      "inputs": [
        {
          "internalType": "address",
          "name": "account",
          "type": "address"
        }
      ],
      "name": "removeAdmin",
      "outputs": [],
      "stateMutability": "nonpayable",
      "type": "function"
    },
    {
      "inputs": [
        {
          "internalType": "bytes32",
          "name": "role",
          "type": "bytes32"
        },
        {
          "internalType": "address",
          "name": "account",
          "type": "address"
        }
      ],
      "name": "renounceRole",
      "outputs": [],
      "stateMutability": "nonpayable",
      "type": "function"
    },
    {
      "inputs": [
        {
          "internalType": "bytes32",
          "name": "role",
          "type": "bytes32"
        },
        {
          "internalType": "address",
          "name": "account",
          "type": "address"
        }
      ],
      "name": "revokeRole",
      "outputs": [],
      "stateMutability": "nonpayable",
      "type": "function"
    },
    {
      "inputs": [],
      "name": "rewardClaimedTotal",
      "outputs": [
        {
          "internalType": "uint256",
          "name": "",
          "type": "uint256"
        }
      ],
      "stateMutability": "view",
      "type": "function"
    },
    {
      "inputs": [],
      "name": "rewardNonLiquidityClaimTotal",
      "outputs": [
        {
          "internalType": "uint256",
          "name": "",
          "type": "uint256"
        }
      ],
      "stateMutability": "view",
      "type": "function"
    },
    {
      "inputs": [
        {
          "internalType": "uint256",
          "name": "tokenId",
          "type": "uint256"
        },
        {
          "internalType": "uint256",
          "name": "deadline",
          "type": "uint256"
        },
        {
          "internalType": "uint8",
          "name": "v",
          "type": "uint8"
        },
        {
          "internalType": "bytes32",
          "name": "r",
          "type": "bytes32"
        },
        {
          "internalType": "bytes32",
          "name": "s",
          "type": "bytes32"
        }
      ],
      "name": "stake",
      "outputs": [],
      "stateMutability": "nonpayable",
      "type": "function"
    },
    {
      "inputs": [],
      "name": "stakeRegistry",
      "outputs": [
        {
          "internalType": "address",
          "name": "",
          "type": "address"
        }
      ],
      "stateMutability": "view",
      "type": "function"
    },
    {
      "inputs": [
        {
          "internalType": "uint256",
          "name": "",
          "type": "uint256"
        }
      ],
      "name": "stakedCoinageTokens",
      "outputs": [
        {
          "internalType": "uint256",
          "name": "amount",
          "type": "uint256"
        },
        {
          "internalType": "uint256",
          "name": "startBlock",
          "type": "uint256"
        },
        {
          "internalType": "uint256",
          "name": "claimedBlock",
          "type": "uint256"
        },
        {
          "internalType": "uint256",
          "name": "claimedAmount",
          "type": "uint256"
        },
        {
          "internalType": "uint256",
          "name": "rewardNonLiquidityClaimAmount",
          "type": "uint256"
        }
      ],
      "stateMutability": "view",
      "type": "function"
    },
    {
      "inputs": [],
      "name": "token",
      "outputs": [
        {
          "internalType": "address",
          "name": "",
          "type": "address"
        }
      ],
      "stateMutability": "view",
      "type": "function"
    },
    {
      "inputs": [],
      "name": "totalStakedAmount",
      "outputs": [
        {
          "internalType": "uint256",
          "name": "",
          "type": "uint256"
        }
      ],
      "stateMutability": "view",
      "type": "function"
    },
    {
      "inputs": [],
      "name": "totalStakers",
      "outputs": [
        {
          "internalType": "uint256",
          "name": "",
          "type": "uint256"
        }
      ],
      "stateMutability": "view",
      "type": "function"
    },
    {
      "inputs": [
        {
          "internalType": "address",
          "name": "newAdmin",
          "type": "address"
        }
      ],
      "name": "transferAdmin",
      "outputs": [],
      "stateMutability": "nonpayable",
      "type": "function"
    },
    {
      "inputs": [],
      "name": "uniswapV3FactoryAddress",
      "outputs": [
        {
          "internalType": "address",
          "name": "",
          "type": "address"
        }
      ],
      "stateMutability": "view",
      "type": "function"
    },
    {
      "inputs": [
        {
          "internalType": "address",
          "name": "",
          "type": "address"
        },
        {
          "internalType": "uint256",
          "name": "",
          "type": "uint256"
        }
      ],
      "name": "userStakedTokenIds",
      "outputs": [
        {
          "internalType": "uint256",
          "name": "",
          "type": "uint256"
        }
      ],
      "stateMutability": "view",
      "type": "function"
    },
    {
      "inputs": [
        {
          "internalType": "address",
          "name": "",
          "type": "address"
        }
      ],
      "name": "userTotalStaked",
      "outputs": [
        {
          "internalType": "bool",
          "name": "staked",
          "type": "bool"
        },
        {
          "internalType": "uint256",
          "name": "totalDepositAmount",
          "type": "uint256"
        },
        {
          "internalType": "uint256",
          "name": "totalClaimedAmount",
          "type": "uint256"
        },
        {
          "internalType": "uint256",
          "name": "totalUnableClaimAmount",
          "type": "uint256"
        }
      ],
      "stateMutability": "view",
      "type": "function"
    },
    {
      "inputs": [],
      "name": "vault",
      "outputs": [
        {
          "internalType": "address",
          "name": "",
          "type": "address"
        }
      ],
      "stateMutability": "view",
      "type": "function"
    },
    {
      "inputs": [
        {
          "internalType": "uint256",
          "name": "tokenId",
          "type": "uint256"
        }
      ],
      "name": "withdraw",
      "outputs": [],
      "stateMutability": "nonpayable",
      "type": "function"
    },
    {
      "stateMutability": "payable",
      "type": "receive"
    }
  ],
  "bytecode": "0x60806040523480156200001157600080fd5b50620000447fdf8b4c520ffe197c5343c6f5aec59570151ef9a492f2c624fd45ddde6135ec42806200007c60201b60201c565b620000767fdf8b4c520ffe197c5343c6f5aec59570151ef9a492f2c624fd45ddde6135ec4233620000e060201b60201c565b62000277565b806012600084815260200190815260200160002060020154837fbd79b86ffe0ab8e8776151514217cd7cacd52c909f66475c3af44e129f0b00ff60405160405180910390a48060126000848152602001908152602001600020600201819055505050565b620000f28282620000f660201b60201c565b5050565b6200012581601260008581526020019081526020016000206000016200019a60201b62003e101790919060201c565b1562000196576200013b620001d260201b60201c565b73ffffffffffffffffffffffffffffffffffffffff168173ffffffffffffffffffffffffffffffffffffffff16837f2f8788117e7eff1d82e926ec794901d17c78024a50270940304540a733656f0d60405160405180910390a45b5050565b6000620001ca836000018373ffffffffffffffffffffffffffffffffffffffff1660001b620001da60201b60201c565b905092915050565b600033905090565b6000620001ee83836200025460201b60201c565b620002495782600001829080600181540180825580915050600190039060005260206000200160009091909190915055826000018054905083600101600084815260200190815260200160002081905550600190506200024e565b600090505b92915050565b600080836001016000848152602001908152602001600020541415905092915050565b6153e380620002876000396000f3fe60806040526004361061024a5760003560e01c80637def1ca111610139578063a73bf6df116100b6578063ca15c8731161007a578063ca15c87314610e2b578063d539139314610e7a578063d547741f14610ea5578063dd49756e14610f00578063fbfa77cf14611005578063fc0c546a1461104657610254565b8063a73bf6df14610cd2578063ad1b390914610d13578063b2d4d6a314610d54578063b44a272214610d7f578063b8ebb13314610dc057610254565b806391d14854116100fd57806391d1485414610a915780639988220214610b025780639a88be2f14610b755780639c79c63814610c26578063a217fddf14610ca757610254565b80637def1ca1146108e557806380f5db8c146109105780638113d2301461095157806386989038146109f75780639010d07c14610a2257610254565b80634758af8a116101c7578063704802751161018b5780637048027514610736578063719de1ef1461078757806374ff62f11461080357806375829def1461086957806375b238fc146108ba57610254565b80634758af8a146105ed57806349cba16c1461062e578063567e98f91461069d57806363a8fd89146106c857806368304835146106f557610254565b80632f2ff15d1161020e5780632f2ff15d146103c65780632f90deab1461042157806336568abe1461044c578063379607f5146104a75780634372f61f146104e257610254565b80631785f53c14610259578063248a9ca3146102aa57806324d7806c146102f9578063282c51f3146103605780632e1a7d4d1461038b57610254565b3661025457600080fd5b600080fd5b34801561026557600080fd5b506102a86004803603602081101561027c57600080fd5b81019080803573ffffffffffffffffffffffffffffffffffffffff169060200190929190505050611087565b005b3480156102b657600080fd5b506102e3600480360360208110156102cd57600080fd5b8101908080359060200190929190505050611112565b6040518082815260200191505060405180910390f35b34801561030557600080fd5b506103486004803603602081101561031c57600080fd5b81019080803573ffffffffffffffffffffffffffffffffffffffff169060200190929190505050611132565b60405180821515815260200191505060405180910390f35b34801561036c57600080fd5b50610375611165565b6040518082815260200191505060405180910390f35b34801561039757600080fd5b506103c4600480360360208110156103ae57600080fd5b8101908080359060200190929190505050611189565b005b3480156103d257600080fd5b5061041f600480360360408110156103e957600080fd5b8101908080359060200190929190803573ffffffffffffffffffffffffffffffffffffffff169060200190929190505050611692565b005b34801561042d57600080fd5b5061043661171c565b6040518082815260200191505060405180910390f35b34801561045857600080fd5b506104a56004803603604081101561046f57600080fd5b8101908080359060200190929190803573ffffffffffffffffffffffffffffffffffffffff169060200190929190505050611722565b005b3480156104b357600080fd5b506104e0600480360360208110156104ca57600080fd5b81019080803590602001909291905050506117bb565b005b3480156104ee57600080fd5b5061051b6004803603602081101561050557600080fd5b8101908080359060200190929190505050611b68565b604051808673ffffffffffffffffffffffffffffffffffffffff16815260200185600260200280838360005b83811015610562578082015181840152602081019050610547565b50505050905001846fffffffffffffffffffffffffffffffff16815260200183600660200280838360005b838110156105a857808201518184015260208101905061058d565b5050505090500182600260200280838360005b838110156105d65780820151818401526020810190506105bb565b505050509050019550505050505060405180910390f35b3480156105f957600080fd5b50610602611f04565b604051808273ffffffffffffffffffffffffffffffffffffffff16815260200191505060405180910390f35b34801561063a57600080fd5b506106876004803603604081101561065157600080fd5b81019080803573ffffffffffffffffffffffffffffffffffffffff16906020019092919080359060200190929190505050611f2a565b6040518082815260200191505060405180910390f35b3480156106a957600080fd5b506106b2611f5b565b6040518082815260200191505060405180910390f35b3480156106d457600080fd5b506106dd611f61565b60405180821515815260200191505060405180910390f35b34801561070157600080fd5b5061070a611f74565b604051808273ffffffffffffffffffffffffffffffffffffffff16815260200191505060405180910390f35b34801561074257600080fd5b506107856004803603602081101561075957600080fd5b81019080803573ffffffffffffffffffffffffffffffffffffffff169060200190929190505050611f9a565b005b34801561079357600080fd5b506107d6600480360360208110156107aa57600080fd5b81019080803573ffffffffffffffffffffffffffffffffffffffff169060200190929190505050612025565b60405180851515815260200184815260200183815260200182815260200194505050505060405180910390f35b34801561080f57600080fd5b50610867600480360360a081101561082657600080fd5b810190808035906020019092919080359060200190929190803560ff1690602001909291908035906020019092919080359060200190929190505050612062565b005b34801561087557600080fd5b506108b86004803603602081101561088c57600080fd5b81019080803573ffffffffffffffffffffffffffffffffffffffff1690602001909291905050506131f9565b005b3480156108c657600080fd5b506108cf6133f3565b6040518082815260200191505060405180910390f35b3480156108f157600080fd5b506108fa613417565b6040518082815260200191505060405180910390f35b34801561091c57600080fd5b5061092561341d565b604051808273ffffffffffffffffffffffffffffffffffffffff16815260200191505060405180910390f35b34801561095d57600080fd5b506109a06004803603602081101561097457600080fd5b81019080803573ffffffffffffffffffffffffffffffffffffffff169060200190929190505050613443565b6040518080602001828103825283818151815260200191508051906020019060200280838360005b838110156109e35780820151818401526020810190506109c8565b505050509050019250505060405180910390f35b348015610a0357600080fd5b50610a0c6134da565b6040518082815260200191505060405180910390f35b348015610a2e57600080fd5b50610a6560048036036040811015610a4557600080fd5b8101908080359060200190929190803590602001909291905050506134e0565b604051808273ffffffffffffffffffffffffffffffffffffffff16815260200191505060405180910390f35b348015610a9d57600080fd5b50610aea60048036036040811015610ab457600080fd5b8101908080359060200190929190803573ffffffffffffffffffffffffffffffffffffffff169060200190929190505050613512565b60405180821515815260200191505060405180910390f35b348015610b0e57600080fd5b50610b5160048036036020811015610b2557600080fd5b81019080803573ffffffffffffffffffffffffffffffffffffffff169060200190929190505050613544565b60405180848152602001838152602001828152602001935050505060405180910390f35b348015610b8157600080fd5b50610b8a61361f565b6040518084600460200280838360005b83811015610bb5578082015181840152602081019050610b9a565b5050505090500183600460200280838360005b83811015610be3578082015181840152602081019050610bc8565b5050505090500182600460200280838360005b83811015610c11578082015181840152602081019050610bf6565b50505050905001935050505060405180910390f35b348015610c3257600080fd5b50610c5f60048036036020811015610c4957600080fd5b810190808035906020019092919050505061391b565b604051808681526020018581526020018473ffffffffffffffffffffffffffffffffffffffff1681526020018381526020018281526020019550505050505060405180910390f35b348015610cb357600080fd5b50610cbc613b2c565b6040518082815260200191505060405180910390f35b348015610cde57600080fd5b50610ce7613b33565b604051808273ffffffffffffffffffffffffffffffffffffffff16815260200191505060405180910390f35b348015610d1f57600080fd5b50610d28613b59565b604051808273ffffffffffffffffffffffffffffffffffffffff16815260200191505060405180910390f35b348015610d6057600080fd5b50610d69613b7f565b6040518082815260200191505060405180910390f35b348015610d8b57600080fd5b50610d94613b85565b604051808273ffffffffffffffffffffffffffffffffffffffff16815260200191505060405180910390f35b348015610dcc57600080fd5b50610df960048036036020811015610de357600080fd5b8101908080359060200190929190505050613bab565b604051808681526020018581526020018481526020018381526020018281526020019550505050505060405180910390f35b348015610e3757600080fd5b50610e6460048036036020811015610e4e57600080fd5b8101908080359060200190929190505050613be1565b6040518082815260200191505060405180910390f35b348015610e8657600080fd5b50610e8f613c08565b6040518082815260200191505060405180910390f35b348015610eb157600080fd5b50610efe60048036036040811015610ec857600080fd5b8101908080359060200190929190803573ffffffffffffffffffffffffffffffffffffffff169060200190929190505050613c2c565b005b348015610f0c57600080fd5b50610f3960048036036020811015610f2357600080fd5b8101908080359060200190929190505050613cb6565b604051808c73ffffffffffffffffffffffffffffffffffffffff1681526020018b81526020018a73ffffffffffffffffffffffffffffffffffffffff168152602001896fffffffffffffffffffffffffffffffff1681526020018860020b81526020018760020b81526020018681526020018581526020018481526020018373ffffffffffffffffffffffffffffffffffffffff1681526020018273ffffffffffffffffffffffffffffffffffffffff1681526020019b50505050505050505050505060405180910390f35b34801561101157600080fd5b5061101a613dc6565b604051808273ffffffffffffffffffffffffffffffffffffffff16815260200191505060405180910390f35b34801561105257600080fd5b5061105b613dec565b604051808273ffffffffffffffffffffffffffffffffffffffff16815260200191505060405180910390f35b61109033611132565b6110e5576040517f08c379a00000000000000000000000000000000000000000000000000000000081526004018080602001828103825260228152602001806152066022913960400191505060405180910390fd5b61110f7fdf8b4c520ffe197c5343c6f5aec59570151ef9a492f2c624fd45ddde6135ec4282611722565b50565b600060126000838152602001908152602001600020600201549050919050565b600061115e7fdf8b4c520ffe197c5343c6f5aec59570151ef9a492f2c624fd45ddde6135ec4283613512565b9050919050565b7f9667e80708b6eeeb0053fa0cca44e028ff548e2a9f029edfeac87c118b08b7c881565b60006006600083815260200190815260200160002090503373ffffffffffffffffffffffffffffffffffffffff168160000160009054906101000a900473ffffffffffffffffffffffffffffffffffffffff1673ffffffffffffffffffffffffffffffffffffffff1614611248576040517f08c379a000000000000000000000000000000000000000000000000000000000815260040180806020018281038252602e81526020018061532e602e913960400191505060405180910390fd5b611250613e40565b8060030160009054906101000a90046fffffffffffffffffffffffffffffffff166fffffffffffffffffffffffffffffffff16600460008282540392505081905550600061129d8361391b565b50505050905060008111156112b6576112b5836117bb565b5b6112f2338360030160009054906101000a90046fffffffffffffffffffffffffffffffff166fffffffffffffffffffffffffffffffff166141f0565b6113008383600101546146ea565b60066000848152602001908152602001600020600080820160006101000a81549073ffffffffffffffffffffffffffffffffffffffff021916905560018201600090556002820160006101000a81549073ffffffffffffffffffffffffffffffffffffffff02191690556003820160006101000a8154906fffffffffffffffffffffffffffffffff02191690556003820160106101000a81549062ffffff02191690556003820160136101000a81549062ffffff02191690556004820160009055600582016000905560068201600090556007820160006101000a81549073ffffffffffffffffffffffffffffffffffffffff02191690556008820160006101000a81549073ffffffffffffffffffffffffffffffffffffffff0219169055505060076000848152602001908152602001600020600080820160009055600182016000905560028201600090556003820160009055600482016000905550506000600860003373ffffffffffffffffffffffffffffffffffffffff1673ffffffffffffffffffffffffffffffffffffffff16815260200190815260200160002090508260030160009054906101000a90046fffffffffffffffffffffffffffffffff166fffffffffffffffffffffffffffffffff1681600101600082825403925050819055506000816001015414156115755760096000815480929190600190039190505550600860003373ffffffffffffffffffffffffffffffffffffffff1673ffffffffffffffffffffffffffffffffffffffff168152602001908152602001600020600080820160006101000a81549060ff021916905560018201600090556002820160009055600382016000905550505b600d60009054906101000a900473ffffffffffffffffffffffffffffffffffffffff1673ffffffffffffffffffffffffffffffffffffffff166342842e0e3033876040518463ffffffff1660e01b8152600401808473ffffffffffffffffffffffffffffffffffffffff1681526020018373ffffffffffffffffffffffffffffffffffffffff1681526020018281526020019350505050600060405180830381600087803b15801561162657600080fd5b505af115801561163a573d6000803e3d6000fd5b505050503373ffffffffffffffffffffffffffffffffffffffff167fc7007e57228f610de89c329174bb69f87ecbecaf8e44c0e45ef6c83c21a80279856040518082815260200191505060405180910390a250505050565b6116b960126000848152602001908152602001600020600201546116b46148bc565b613512565b61170e576040517f08c379a000000000000000000000000000000000000000000000000000000000815260040180806020018281038252602f8152602001806151d7602f913960400191505060405180910390fd5b61171882826148c4565b5050565b60115481565b61172a6148bc565b73ffffffffffffffffffffffffffffffffffffffff168173ffffffffffffffffffffffffffffffffffffffff16146117ad576040517f08c379a000000000000000000000000000000000000000000000000000000000815260040180806020018281038252602f81526020018061537f602f913960400191505060405180910390fd5b6117b78282614958565b5050565b60006006600083815260200190815260200160002090503373ffffffffffffffffffffffffffffffffffffffff168160000160009054906101000a900473ffffffffffffffffffffffffffffffffffffffff1673ffffffffffffffffffffffffffffffffffffffff161461187a576040517f08c379a000000000000000000000000000000000000000000000000000000000815260040180806020018281038252602e81526020018061532e602e913960400191505060405180910390fd5b611882613e40565b6000806000806118918661391b565b94505093509350935060008411611910576040517f08c379a000000000000000000000000000000000000000000000000000000000815260040180806020018281038252601e8152602001807f5374616b65556e697377617056333a20726577617264206973207a65726f000081525060200191505060405180910390fd5b428560060181905550818560080160006101000a81548173ffffffffffffffffffffffffffffffffffffffff021916908373ffffffffffffffffffffffffffffffffffffffff16021790555061196633826141f0565b60006007600088815260200190815260200160002090504381600201819055508481600301600082825401925050819055508381600401600082825401925050819055506000600860003373ffffffffffffffffffffffffffffffffffffffff1673ffffffffffffffffffffffffffffffffffffffff16815260200190815260200160002090508581600201600082825401925050819055508481600301600082825401925050819055508560036000828254019250508190555084601160008282540192505081905550600260009054906101000a900473ffffffffffffffffffffffffffffffffffffffff1673ffffffffffffffffffffffffffffffffffffffff1663aad3ec9633886040518363ffffffff1660e01b8152600401808373ffffffffffffffffffffffffffffffffffffffff16815260200182815260200192505050602060405180830381600087803b158015611ac457600080fd5b505af1158015611ad8573d6000803e3d6000fd5b505050506040513d6020811015611aee57600080fd5b8101908080519060200190929190505050611b0857600080fd5b3373ffffffffffffffffffffffffffffffffffffffff167f987d620f307ff6b94d58743cb7a7509f24071586a77759b77c2d4e29f75a2f9a8743604051808381526020018281526020019250505060405180910390a25050505050505050565b6000611b7261510a565b6000611b7c61512c565b611b8461514e565b600060066000888152602001908152602001600020604051806101600160405290816000820160009054906101000a900473ffffffffffffffffffffffffffffffffffffffff1673ffffffffffffffffffffffffffffffffffffffff1673ffffffffffffffffffffffffffffffffffffffff168152602001600182015481526020016002820160009054906101000a900473ffffffffffffffffffffffffffffffffffffffff1673ffffffffffffffffffffffffffffffffffffffff1673ffffffffffffffffffffffffffffffffffffffff1681526020016003820160009054906101000a90046fffffffffffffffffffffffffffffffff166fffffffffffffffffffffffffffffffff166fffffffffffffffffffffffffffffffff1681526020016003820160109054906101000a900460020b60020b60020b81526020016003820160139054906101000a900460020b60020b60020b81526020016004820154815260200160058201548152602001600682015481526020016007820160009054906101000a900473ffffffffffffffffffffffffffffffffffffffff1673ffffffffffffffffffffffffffffffffffffffff1673ffffffffffffffffffffffffffffffffffffffff1681526020016008820160009054906101000a900473ffffffffffffffffffffffffffffffffffffffff1673ffffffffffffffffffffffffffffffffffffffff1673ffffffffffffffffffffffffffffffffffffffff168152505090506000600760008981526020019081526020016000206040518060a001604052908160008201548152602001600182015481526020016002820154815260200160038201548152602001600482015481525050905081604001516040518060400160405280846080015160020b60020b81526020018460a0015160020b60020b81525083606001516040518060c001604052808660c0015181526020018660e001518152602001866101000151815260200185602001518152602001856040015181526020018560600151815250604051806040016040528087610120015173ffffffffffffffffffffffffffffffffffffffff1673ffffffffffffffffffffffffffffffffffffffff16815260200187610140015173ffffffffffffffffffffffffffffffffffffffff1673ffffffffffffffffffffffffffffffffffffffff1681525096509650965096509650505091939590929450565b600c60009054906101000a900473ffffffffffffffffffffffffffffffffffffffff1681565b60056020528160005260406000208181548110611f4657600080fd5b90600052602060002001600091509150505481565b60045481565b600b60009054906101000a900460ff1681565b600160009054906101000a900473ffffffffffffffffffffffffffffffffffffffff1681565b611fa333611132565b611ff8576040517f08c379a00000000000000000000000000000000000000000000000000000000081526004018080602001828103825260228152602001806152066022913960400191505060405180910390fd5b6120227fdf8b4c520ffe197c5343c6f5aec59570151ef9a492f2c624fd45ddde6135ec4282611692565b50565b60086020528060005260406000206000915090508060000160009054906101000a900460ff16908060010154908060020154908060030154905084565b60008054906101000a900473ffffffffffffffffffffffffffffffffffffffff16600073ffffffffffffffffffffffffffffffffffffffff168173ffffffffffffffffffffffffffffffffffffffff161415612109576040517f08c379a00000000000000000000000000000000000000000000000000000000081526004018080602001828103825260238152602001806152926023913960400191505060405180910390fd5b600260009054906101000a900473ffffffffffffffffffffffffffffffffffffffff16600073ffffffffffffffffffffffffffffffffffffffff168173ffffffffffffffffffffffffffffffffffffffff1614156121b2576040517f08c379a00000000000000000000000000000000000000000000000000000000081526004018080602001828103825260238152602001806152926023913960400191505060405180910390fd5b600160009054906101000a900473ffffffffffffffffffffffffffffffffffffffff16600073ffffffffffffffffffffffffffffffffffffffff168173ffffffffffffffffffffffffffffffffffffffff16141561225b576040517f08c379a00000000000000000000000000000000000000000000000000000000081526004018080602001828103825260238152602001806152926023913960400191505060405180910390fd5b600b60019054906101000a900473ffffffffffffffffffffffffffffffffffffffff16600073ffffffffffffffffffffffffffffffffffffffff168173ffffffffffffffffffffffffffffffffffffffff161415612304576040517f08c379a00000000000000000000000000000000000000000000000000000000081526004018080602001828103825260238152602001806152926023913960400191505060405180910390fd5b600c60009054906101000a900473ffffffffffffffffffffffffffffffffffffffff16600073ffffffffffffffffffffffffffffffffffffffff168173ffffffffffffffffffffffffffffffffffffffff1614156123ad576040517f08c379a00000000000000000000000000000000000000000000000000000000081526004018080602001828103825260238152602001806152926023913960400191505060405180910390fd5b600d60009054906101000a900473ffffffffffffffffffffffffffffffffffffffff16600073ffffffffffffffffffffffffffffffffffffffff168173ffffffffffffffffffffffffffffffffffffffff161415612456576040517f08c379a00000000000000000000000000000000000000000000000000000000081526004018080602001828103825260238152602001806152926023913960400191505060405180910390fd5b600e60009054906101000a900473ffffffffffffffffffffffffffffffffffffffff16600073ffffffffffffffffffffffffffffffffffffffff168173ffffffffffffffffffffffffffffffffffffffff1614156124ff576040517f08c379a00000000000000000000000000000000000000000000000000000000081526004018080602001828103825260238152602001806152926023913960400191505060405180910390fd5b3373ffffffffffffffffffffffffffffffffffffffff16600d60009054906101000a900473ffffffffffffffffffffffffffffffffffffffff1673ffffffffffffffffffffffffffffffffffffffff16636352211e8e6040518263ffffffff1660e01b81526004018082815260200191505060206040518083038186803b15801561258957600080fd5b505afa15801561259d573d6000803e3d6000fd5b505050506040513d60208110156125b357600080fd5b810190808051906020019092919050505073ffffffffffffffffffffffffffffffffffffffff1614612630576040517f08c379a000000000000000000000000000000000000000000000000000000000815260040180806020018281038252602d8152602001806152e0602d913960400191505060405180910390fd5b60008c905060008c905060008c905060008c905060008c9050600d60009054906101000a900473ffffffffffffffffffffffffffffffffffffffff1673ffffffffffffffffffffffffffffffffffffffff16637ac2ff7b3087878787876040518763ffffffff1660e01b8152600401808773ffffffffffffffffffffffffffffffffffffffff1681526020018681526020018581526020018460ff1681526020018381526020018281526020019650505050505050600060405180830381600087803b1580156126ff57600080fd5b505af1158015612713573d6000803e3d6000fd5b50505050600080600080600080600d60009054906101000a900473ffffffffffffffffffffffffffffffffffffffff1673ffffffffffffffffffffffffffffffffffffffff166399fbab888c6040518263ffffffff1660e01b8152600401808281526020019150506101806040518083038186803b15801561279457600080fd5b505afa1580156127a8573d6000803e3d6000fd5b505050506040513d6101808110156127bf57600080fd5b81019080805190602001909291908051906020019092919080519060200190929190805190602001909291908051906020019092919080519060200190929190805190602001909291908051906020019092919080519060200190929190805190602001909291908051906020019092919080519060200190929190505050505050509750975097509750975097505050600b60019054906101000a900473ffffffffffffffffffffffffffffffffffffffff1673ffffffffffffffffffffffffffffffffffffffff168673ffffffffffffffffffffffffffffffffffffffff161480156128fa5750600c60009054906101000a900473ffffffffffffffffffffffffffffffffffffffff1673ffffffffffffffffffffffffffffffffffffffff168573ffffffffffffffffffffffffffffffffffffffff16145b806129ab5750600c60009054906101000a900473ffffffffffffffffffffffffffffffffffffffff1673ffffffffffffffffffffffffffffffffffffffff168673ffffffffffffffffffffffffffffffffffffffff161480156129aa5750600b60019054906101000a900473ffffffffffffffffffffffffffffffffffffffff1673ffffffffffffffffffffffffffffffffffffffff168573ffffffffffffffffffffffffffffffffffffffff16145b5b612a00576040517f08c379a000000000000000000000000000000000000000000000000000000000815260040180806020018281038252602b8152602001806152b5602b913960400191505060405180910390fd5b6000816fffffffffffffffffffffffffffffffff1611612a6b576040517f08c379a000000000000000000000000000000000000000000000000000000000815260040180806020018281038252602181526020018061530d6021913960400191505060405180910390fd5b6000612ae4600e60009054906101000a900473ffffffffffffffffffffffffffffffffffffffff1660405180606001604052808a73ffffffffffffffffffffffffffffffffffffffff1681526020018973ffffffffffffffffffffffffffffffffffffffff1681526020018862ffffff168152506149ec565b9050600073ffffffffffffffffffffffffffffffffffffffff168173ffffffffffffffffffffffffffffffffffffffff161415612b6c576040517f08c379a000000000000000000000000000000000000000000000000000000000815260040180806020018281038252602381526020018061535c6023913960400191505060405180910390fd5b60008173ffffffffffffffffffffffffffffffffffffffff1663a38807f286866040518363ffffffff1660e01b8152600401808360020b81526020018260020b81526020019250505060606040518083038186803b158015612bcd57600080fd5b505afa158015612be1573d6000803e3d6000fd5b505050506040513d6060811015612bf757600080fd5b810190808051906020019092919080519060200190929190805190602001909291905050505091505060008d9050600d60009054906101000a900473ffffffffffffffffffffffffffffffffffffffff1673ffffffffffffffffffffffffffffffffffffffff166323b872dd3330846040518463ffffffff1660e01b8152600401808473ffffffffffffffffffffffffffffffffffffffff1681526020018373ffffffffffffffffffffffffffffffffffffffff1681526020018281526020019350505050600060405180830381600087803b158015612cd657600080fd5b505af1158015612cea573d6000803e3d6000fd5b50505050600560003373ffffffffffffffffffffffffffffffffffffffff1673ffffffffffffffffffffffffffffffffffffffff1681526020019081526020016000208190806001815401808255809150506001900390600052602060002001600090919091909150556000600660008381526020019081526020016000209050338160000160006101000a81548173ffffffffffffffffffffffffffffffffffffffff021916908373ffffffffffffffffffffffffffffffffffffffff160217905550600560003373ffffffffffffffffffffffffffffffffffffffff1673ffffffffffffffffffffffffffffffffffffffff168152602001908152602001600020805490508160010181905550838160020160006101000a81548173ffffffffffffffffffffffffffffffffffffffff021916908373ffffffffffffffffffffffffffffffffffffffff160217905550848160030160006101000a8154816fffffffffffffffffffffffffffffffff02191690836fffffffffffffffffffffffffffffffff160217905550868160030160106101000a81548162ffffff021916908360020b62ffffff160217905550858160030160136101000a81548162ffffff021916908360020b62ffffff1602179055504281600401819055506000816005018190555060008160060181905550828160070160006101000a81548173ffffffffffffffffffffffffffffffffffffffff021916908373ffffffffffffffffffffffffffffffffffffffff16021790555060008160080160006101000a81548173ffffffffffffffffffffffffffffffffffffffff021916908373ffffffffffffffffffffffffffffffffffffffff1602179055506000600760008481526020019081526020016000209050856fffffffffffffffffffffffffffffffff1681600001819055504381600101819055506000816002018190555060008160030181905550600081600401819055506000600860003373ffffffffffffffffffffffffffffffffffffffff1673ffffffffffffffffffffffffffffffffffffffff16815260200190815260200160002090508060000160009054906101000a900460ff16613028576009600081548092919060010191905055505b60018160000160006101000a81548160ff021916908315150217905550866fffffffffffffffffffffffffffffffff168160010160008282540192505081905550866fffffffffffffffffffffffffffffffff16600460008282540192505081905550600f60009054906101000a900473ffffffffffffffffffffffffffffffffffffffff1673ffffffffffffffffffffffffffffffffffffffff166340c10f1933633b9aca008a026040518363ffffffff1660e01b8152600401808373ffffffffffffffffffffffffffffffffffffffff168152602001826fffffffffffffffffffffffffffffffff16815260200192505050602060405180830381600087803b15801561313657600080fd5b505af115801561314a573d6000803e3d6000fd5b505050506040513d602081101561316057600080fd5b81019080805190602001909291905050505061317a613e40565b3373ffffffffffffffffffffffffffffffffffffffff167f9e71bc8eea02a63969f509818f2dafb9254532904319f9dbda79b67bd34a5f3d8860405180826fffffffffffffffffffffffffffffffff16815260200191505060405180910390a25050505050505050505050505050505050505050505050505050505050565b61320233611132565b613257576040517f08c379a00000000000000000000000000000000000000000000000000000000081526004018080602001828103825260228152602001806152066022913960400191505060405180910390fd5b600073ffffffffffffffffffffffffffffffffffffffff168173ffffffffffffffffffffffffffffffffffffffff1614156132fa576040517f08c379a00000000000000000000000000000000000000000000000000000000081526004018080602001828103825260188152602001807f41636365737369626c653a207a65726f2061646472657373000000000000000081525060200191505060405180910390fd5b8073ffffffffffffffffffffffffffffffffffffffff163373ffffffffffffffffffffffffffffffffffffffff16141561339c576040517f08c379a00000000000000000000000000000000000000000000000000000000081526004018080602001828103825260168152602001807f41636365737369626c653a2073616d652061646d696e0000000000000000000081525060200191505060405180910390fd5b6133c67fdf8b4c520ffe197c5343c6f5aec59570151ef9a492f2c624fd45ddde6135ec4282611692565b6133f07fdf8b4c520ffe197c5343c6f5aec59570151ef9a492f2c624fd45ddde6135ec4233611722565b50565b7fdf8b4c520ffe197c5343c6f5aec59570151ef9a492f2c624fd45ddde6135ec4281565b60105481565b600e60009054906101000a900473ffffffffffffffffffffffffffffffffffffffff1681565b6060600560008373ffffffffffffffffffffffffffffffffffffffff1673ffffffffffffffffffffffffffffffffffffffff1681526020019081526020016000208054806020026020016040519081016040528092919081815260200182805480156134ce57602002820191906000526020600020905b8154815260200190600101908083116134ba575b50505050509050919050565b60095481565b600061350a8260126000868152602001908152602001600020600001614b4790919063ffffffff16565b905092915050565b600061353c8260126000868152602001908152602001600020600001614b6190919063ffffffff16565b905092915050565b6000806000600860008573ffffffffffffffffffffffffffffffffffffffff1673ffffffffffffffffffffffffffffffffffffffff16815260200190815260200160002060010154600860008673ffffffffffffffffffffffffffffffffffffffff1673ffffffffffffffffffffffffffffffffffffffff16815260200190815260200160002060020154600860008773ffffffffffffffffffffffffffffffffffffffff1673ffffffffffffffffffffffffffffffffffffffff168152602001908152602001600020600301549250925092509193909250565b613627615170565b61362f615170565b613637615192565b604051806080016040528060008054906101000a900473ffffffffffffffffffffffffffffffffffffffff1673ffffffffffffffffffffffffffffffffffffffff1673ffffffffffffffffffffffffffffffffffffffff168152602001600260009054906101000a900473ffffffffffffffffffffffffffffffffffffffff1673ffffffffffffffffffffffffffffffffffffffff1673ffffffffffffffffffffffffffffffffffffffff168152602001600160009054906101000a900473ffffffffffffffffffffffffffffffffffffffff1673ffffffffffffffffffffffffffffffffffffffff1673ffffffffffffffffffffffffffffffffffffffff168152602001600f60009054906101000a900473ffffffffffffffffffffffffffffffffffffffff1673ffffffffffffffffffffffffffffffffffffffff1673ffffffffffffffffffffffffffffffffffffffff168152506040518060800160405280600b60019054906101000a900473ffffffffffffffffffffffffffffffffffffffff1673ffffffffffffffffffffffffffffffffffffffff1673ffffffffffffffffffffffffffffffffffffffff168152602001600c60009054906101000a900473ffffffffffffffffffffffffffffffffffffffff1673ffffffffffffffffffffffffffffffffffffffff1673ffffffffffffffffffffffffffffffffffffffff168152602001600d60009054906101000a900473ffffffffffffffffffffffffffffffffffffffff1673ffffffffffffffffffffffffffffffffffffffff1673ffffffffffffffffffffffffffffffffffffffff168152602001600e60009054906101000a900473ffffffffffffffffffffffffffffffffffffffff1673ffffffffffffffffffffffffffffffffffffffff1673ffffffffffffffffffffffffffffffffffffffff168152506040518060800160405280600954815260200160045481526020016003548152602001601154815250925092509250909192565b6000806000806000806006600088815260200190815260200160002090508060020160009054906101000a900473ffffffffffffffffffffffffffffffffffffffff1673ffffffffffffffffffffffffffffffffffffffff1663a38807f28260030160109054906101000a900460020b8360030160139054906101000a900460020b6040518363ffffffff1660e01b8152600401808360020b81526020018260020b81526020019250505060606040518083038186803b1580156139de57600080fd5b505afa1580156139f2573d6000803e3d6000fd5b505050506040513d6060811015613a0857600080fd5b81019080805190602001909291908051906020019092919080519060200190929190505050909150508094505060008160070160009054906101000a900473ffffffffffffffffffffffffffffffffffffffff169050600082600401549050600083600601541115613aa3578260080160009054906101000a900473ffffffffffffffffffffffffffffffffffffffff169150826006015490505b6000828703905060008242039050613aed338660030160009054906101000a90046fffffffffffffffffffffffffffffffff166fffffffffffffffffffffffffffffffff16614b91565b8097508198505050808273ffffffffffffffffffffffffffffffffffffffff1681613b1457fe5b04860299508986039850505050505091939590929450565b6000801b81565b600b60019054906101000a900473ffffffffffffffffffffffffffffffffffffffff1681565b600f60009054906101000a900473ffffffffffffffffffffffffffffffffffffffff1681565b60035481565b600d60009054906101000a900473ffffffffffffffffffffffffffffffffffffffff1681565b60076020528060005260406000206000915090508060000154908060010154908060020154908060030154908060040154905085565b6000613c0160126000848152602001908152602001600020600001614cfc565b9050919050565b7ff0887ba65ee2024ea881d91b74c2450ef19e1557f03bed3ea9f16b037cbe2dc981565b613c536012600084815260200190815260200160002060020154613c4e6148bc565b613512565b613ca8576040517f08c379a00000000000000000000000000000000000000000000000000000000081526004018080602001828103825260308152602001806152626030913960400191505060405180910390fd5b613cb28282614958565b5050565b60066020528060005260406000206000915090508060000160009054906101000a900473ffffffffffffffffffffffffffffffffffffffff16908060010154908060020160009054906101000a900473ffffffffffffffffffffffffffffffffffffffff16908060030160009054906101000a90046fffffffffffffffffffffffffffffffff16908060030160109054906101000a900460020b908060030160139054906101000a900460020b908060040154908060050154908060060154908060070160009054906101000a900473ffffffffffffffffffffffffffffffffffffffff16908060080160009054906101000a900473ffffffffffffffffffffffffffffffffffffffff1690508b565b600260009054906101000a900473ffffffffffffffffffffffffffffffffffffffff1681565b60008054906101000a900473ffffffffffffffffffffffffffffffffffffffff1681565b6000613e38836000018373ffffffffffffffffffffffffffffffffffffffff1660001b614d11565b905092915050565b6010544311156141ee576000600260009054906101000a900473ffffffffffffffffffffffffffffffffffffffff1673ffffffffffffffffffffffffffffffffffffffff16638ae39cac6040518163ffffffff1660e01b8152600401602060405180830381600087803b158015613eb657600080fd5b505af1158015613eca573d6000803e3d6000fd5b505050506040513d6020811015613ee057600080fd5b8101908080519060200190929190505050601054024303905060008111156141ec576000600f60009054906101000a900473ffffffffffffffffffffffffffffffffffffffff1673ffffffffffffffffffffffffffffffffffffffff166318160ddd6040518163ffffffff1660e01b815260040160206040518083038186803b158015613f6c57600080fd5b505afa158015613f80573d6000803e3d6000fd5b505050506040513d6020811015613f9657600080fd5b8101908080519060200190929190505050905060008282019050600f60009054906101000a900473ffffffffffffffffffffffffffffffffffffffff1673ffffffffffffffffffffffffffffffffffffffff1663817e9d3161409b8484600f60009054906101000a900473ffffffffffffffffffffffffffffffffffffffff1673ffffffffffffffffffffffffffffffffffffffff166354f703f86040518163ffffffff1660e01b815260040160206040518083038186803b15801561405b57600080fd5b505afa15801561406f573d6000803e3d6000fd5b505050506040513d602081101561408557600080fd5b8101908080519060200190929190505050614d81565b6040518263ffffffff1660e01b815260040180828152602001915050602060405180830381600087803b1580156140d157600080fd5b505af11580156140e5573d6000803e3d6000fd5b505050506040513d60208110156140fb57600080fd5b810190808051906020019092919050505050600f60009054906101000a900473ffffffffffffffffffffffffffffffffffffffff1673ffffffffffffffffffffffffffffffffffffffff166340c10f1933633b9aca0086026040518363ffffffff1660e01b8152600401808373ffffffffffffffffffffffffffffffffffffffff16815260200182815260200192505050602060405180830381600087803b1580156141a657600080fd5b505af11580156141ba573d6000803e3d6000fd5b505050506040513d60208110156141d057600080fd5b8101908080519060200190929190505050504360108190555050505b505b565b60008111614266576040517f08c379a000000000000000000000000000000000000000000000000000000000815260040180806020018281038252601e8152602001807f5374616b65556e697377617056333a20616d6f756e74206973207a65726f000081525060200191505060405180910390fd5b6000633b9aca0082029050600f60009054906101000a900473ffffffffffffffffffffffffffffffffffffffff1673ffffffffffffffffffffffffffffffffffffffff166370a08231846040518263ffffffff1660e01b8152600401808273ffffffffffffffffffffffffffffffffffffffff16815260200191505060206040518083038186803b1580156142fa57600080fd5b505afa15801561430e573d6000803e3d6000fd5b505050506040513d602081101561432457600080fd5b810190808051906020019092919050505081111561438d576040517f08c379a000000000000000000000000000000000000000000000000000000000815260040180806020018281038252603a815260200180615228603a913960400191505060405180910390fd5b6000600f60009054906101000a900473ffffffffffffffffffffffffffffffffffffffff1673ffffffffffffffffffffffffffffffffffffffff166318160ddd6040518163ffffffff1660e01b815260040160206040518083038186803b1580156143f757600080fd5b505afa15801561440b573d6000803e3d6000fd5b505050506040513d602081101561442157600080fd5b81019080805190602001909291905050509050600f60009054906101000a900473ffffffffffffffffffffffffffffffffffffffff1673ffffffffffffffffffffffffffffffffffffffff166379cc679085846040518363ffffffff1660e01b8152600401808373ffffffffffffffffffffffffffffffffffffffff16815260200182815260200192505050600060405180830381600087803b1580156144c757600080fd5b505af11580156144db573d6000803e3d6000fd5b505050506000600f60009054906101000a900473ffffffffffffffffffffffffffffffffffffffff1673ffffffffffffffffffffffffffffffffffffffff166318160ddd6040518163ffffffff1660e01b815260040160206040518083038186803b15801561454957600080fd5b505afa15801561455d573d6000803e3d6000fd5b505050506040513d602081101561457357600080fd5b81019080805190602001909291905050509050600f60009054906101000a900473ffffffffffffffffffffffffffffffffffffffff1673ffffffffffffffffffffffffffffffffffffffff1663817e9d316146718484600f60009054906101000a900473ffffffffffffffffffffffffffffffffffffffff1673ffffffffffffffffffffffffffffffffffffffff166354f703f86040518163ffffffff1660e01b815260040160206040518083038186803b15801561463157600080fd5b505afa158015614645573d6000803e3d6000fd5b505050506040513d602081101561465b57600080fd5b8101908080519060200190929190505050614d81565b6040518263ffffffff1660e01b815260040180828152602001915050602060405180830381600087803b1580156146a757600080fd5b505af11580156146bb573d6000803e3d6000fd5b505050506040513d60208110156146d157600080fd5b8101908080519060200190929190505050505050505050565b6000600560003373ffffffffffffffffffffffffffffffffffffffff1673ffffffffffffffffffffffffffffffffffffffff168152602001908152602001600020828154811061473657fe5b9060005260206000200154905060006001600560003373ffffffffffffffffffffffffffffffffffffffff1673ffffffffffffffffffffffffffffffffffffffff1681526020019081526020016000208054905003905060008411801561479c57508382145b156148b6578083101561485757600560003373ffffffffffffffffffffffffffffffffffffffff1673ffffffffffffffffffffffffffffffffffffffff16815260200190815260200160002081815481106147f357fe5b9060005260206000200154600560003373ffffffffffffffffffffffffffffffffffffffff1673ffffffffffffffffffffffffffffffffffffffff168152602001908152602001600020848154811061484857fe5b90600052602060002001819055505b600560003373ffffffffffffffffffffffffffffffffffffffff1673ffffffffffffffffffffffffffffffffffffffff16815260200190815260200160002080548061489f57fe5b600190038181906000526020600020016000905590555b50505050565b600033905090565b6148ec8160126000858152602001908152602001600020600001613e1090919063ffffffff16565b15614954576148f96148bc565b73ffffffffffffffffffffffffffffffffffffffff168173ffffffffffffffffffffffffffffffffffffffff16837f2f8788117e7eff1d82e926ec794901d17c78024a50270940304540a733656f0d60405160405180910390a45b5050565b6149808160126000858152602001908152602001600020600001614d9f90919063ffffffff16565b156149e85761498d6148bc565b73ffffffffffffffffffffffffffffffffffffffff168173ffffffffffffffffffffffffffffffffffffffff16837ff6391f5c32d9c69d2a47ea670b442974b53935d1edc7fd64eb21e047a839171b60405160405180910390a45b5050565b6000816020015173ffffffffffffffffffffffffffffffffffffffff16826000015173ffffffffffffffffffffffffffffffffffffffff1610614a2e57600080fd5b82826000015183602001518460400151604051602001808473ffffffffffffffffffffffffffffffffffffffff1681526020018373ffffffffffffffffffffffffffffffffffffffff1681526020018262ffffff1681526020019350505050604051602081830303815290604052805190602001207fe34f199b19b2b4f47f68442619d555527d244f78a3297ea89325f843f87b8b5460001b60405160200180807fff000000000000000000000000000000000000000000000000000000000000008152506001018473ffffffffffffffffffffffffffffffffffffffff1660601b815260140183815260200182815260200193505050506040516020818303038152906040528051906020012060001c905092915050565b6000614b568360000183614dcf565b60001c905092915050565b6000614b89836000018373ffffffffffffffffffffffffffffffffffffffff1660001b614e52565b905092915050565b6000806000600860008673ffffffffffffffffffffffffffffffffffffffff1673ffffffffffffffffffffffffffffffffffffffff16815260200190815260200160002090508060010154841115614be857600080fd5b600092506000600f60009054906101000a900473ffffffffffffffffffffffffffffffffffffffff1673ffffffffffffffffffffffffffffffffffffffff166370a08231876040518263ffffffff1660e01b8152600401808273ffffffffffffffffffffffffffffffffffffffff16815260200191505060206040518083038186803b158015614c7757600080fd5b505afa158015614c8b573d6000803e3d6000fd5b505050506040513d6020811015614ca157600080fd5b810190808051906020019092919050505090506000811115614cf357633b9aca008181614cca57fe5b0493508160010154841115614cf25781600101548581614ce657fe5b04826001015485030292505b5b50509250929050565b6000614d0a82600001614e75565b9050919050565b6000614d1d8383614e52565b614d76578260000182908060018154018082558091505060019003906000526020600020016000909190919091505582600001805490508360010160008481526020019081526020016000208190555060019050614d7b565b600090505b92915050565b6000614d96614d908484614e86565b85614ece565b90509392505050565b6000614dc7836000018373ffffffffffffffffffffffffffffffffffffffff1660001b614f0a565b905092915050565b600081836000018054905011614e30576040517f08c379a00000000000000000000000000000000000000000000000000000000081526004018080602001828103825260228152602001806151b56022913960400191505060405180910390fd5b826000018281548110614e3f57fe5b9060005260206000200154905092915050565b600080836001016000848152602001908152602001600020541415905092915050565b600081600001805490509050919050565b60006b033b2e3c9fd0803ce8000000614ebe614ea28585614ff2565b60026b033b2e3c9fd0803ce800000081614eb857fe5b04615087565b81614ec557fe5b04905092915050565b600081614efa614eea856b033b2e3c9fd0803ce8000000614ff2565b60028581614ef457fe5b04615087565b81614f0157fe5b04905092915050565b60008083600101600084815260200190815260200160002054905060008114614fe65760006001820390506000600186600001805490500390506000866000018281548110614f5557fe5b9060005260206000200154905080876000018481548110614f7257fe5b9060005260206000200181905550600183018760010160008381526020019081526020016000208190555086600001805480614faa57fe5b60019003818190600052602060002001600090559055866001016000878152602001908152602001600020600090556001945050505050614fec565b60009150505b92915050565b60008082148061500f575082828385029250828161500c57fe5b04145b615081576040517f08c379a00000000000000000000000000000000000000000000000000000000081526004018080602001828103825260148152602001807f64732d6d6174682d6d756c2d6f766572666c6f7700000000000000000000000081525060200191505060405180910390fd5b92915050565b6000828284019150811015615104576040517f08c379a00000000000000000000000000000000000000000000000000000000081526004018080602001828103825260148152602001807f64732d6d6174682d6164642d6f766572666c6f7700000000000000000000000081525060200191505060405180910390fd5b92915050565b6040518060400160405280600290602082028036833780820191505090505090565b6040518060c00160405280600690602082028036833780820191505090505090565b6040518060400160405280600290602082028036833780820191505090505090565b6040518060800160405280600490602082028036833780820191505090505090565b604051806080016040528060049060208202803683378082019150509050509056fe456e756d657261626c655365743a20696e646578206f7574206f6620626f756e6473416363657373436f6e74726f6c3a2073656e646572206d75737420626520616e2061646d696e20746f206772616e7441636365737369626c653a2043616c6c6572206973206e6f7420616e2061646d696e5374616b65556e697377617056333a20636f696e616765732773207573657227732062616c616e63654f6620697320696e737566666963656e74416363657373436f6e74726f6c3a2073656e646572206d75737420626520616e2061646d696e20746f207265766f6b655374616b65556e6973776170563353746f726167653a207a65726f20616464726573735374616b65556e697377617056333a20706f6f6c277320746f6b656e732061726520646966666572656e745374616b65556e697377617056333a2043616c6c6572206973206e6f7420746f6b656e49642773206f776e65725374616b65556e697377617056333a206c6971756964697479206973207a65726f5374616b65556e697377617056333a2063616c6c6572206973206e6f7420746f6b656e49642773207374616b65725374616b65556e697377617056333a20706f6f6c41646472657373206973207a65726f416363657373436f6e74726f6c3a2063616e206f6e6c792072656e6f756e636520726f6c657320666f722073656c66a264697066735822122099297d589e510d4d7c6d62119c1806a4292022ffd7eef599f12e772548d1b8d764736f6c63430007060033",
  "linkReferences": {},
  "deployedLinkReferences": {}
}