{
  "_format": "hh-sol-artifact-1",
  "contractName": "Stake2Vault",
  "sourceName": "contracts/stake/Stake2Vault.sol",
  "abi": [
    {
      "inputs": [],
      "stateMutability": "nonpayable",
      "type": "constructor"
    },
    {
      "anonymous": false,
      "inputs": [
        {
          "indexed": true,
          "internalType": "address",
          "name": "from",
          "type": "address"
        },
        {
          "indexed": false,
          "internalType": "address",
          "name": "to",
          "type": "address"
        },
        {
          "indexed": false,
          "internalType": "uint256",
          "name": "amount",
          "type": "uint256"
        }
      ],
      "name": "ClaimedReward",
      "type": "event"
    },
    {
      "anonymous": false,
      "inputs": [
        {
          "indexed": true,
          "internalType": "bytes32",
          "name": "role",
          "type": "bytes32"
        },
        {
          "indexed": true,
          "internalType": "bytes32",
          "name": "previousAdminRole",
          "type": "bytes32"
        },
        {
          "indexed": true,
          "internalType": "bytes32",
          "name": "newAdminRole",
          "type": "bytes32"
        }
      ],
      "name": "RoleAdminChanged",
      "type": "event"
    },
    {
      "anonymous": false,
      "inputs": [
        {
          "indexed": true,
          "internalType": "bytes32",
          "name": "role",
          "type": "bytes32"
        },
        {
          "indexed": true,
          "internalType": "address",
          "name": "account",
          "type": "address"
        },
        {
          "indexed": true,
          "internalType": "address",
          "name": "sender",
          "type": "address"
        }
      ],
      "name": "RoleGranted",
      "type": "event"
    },
    {
      "anonymous": false,
      "inputs": [
        {
          "indexed": true,
          "internalType": "bytes32",
          "name": "role",
          "type": "bytes32"
        },
        {
          "indexed": true,
          "internalType": "address",
          "name": "account",
          "type": "address"
        },
        {
          "indexed": true,
          "internalType": "address",
          "name": "sender",
          "type": "address"
        }
      ],
      "name": "RoleRevoked",
      "type": "event"
    },
    {
      "inputs": [],
      "name": "ADMIN_ROLE",
      "outputs": [
        {
          "internalType": "bytes32",
          "name": "",
          "type": "bytes32"
        }
      ],
      "stateMutability": "view",
      "type": "function"
    },
    {
      "inputs": [],
      "name": "BURNER_ROLE",
      "outputs": [
        {
          "internalType": "bytes32",
          "name": "",
          "type": "bytes32"
        }
      ],
      "stateMutability": "view",
      "type": "function"
    },
    {
      "inputs": [],
      "name": "DEFAULT_ADMIN_ROLE",
      "outputs": [
        {
          "internalType": "bytes32",
          "name": "",
          "type": "bytes32"
        }
      ],
      "stateMutability": "view",
      "type": "function"
    },
    {
      "inputs": [],
      "name": "MINTER_ROLE",
      "outputs": [
        {
          "internalType": "bytes32",
          "name": "",
          "type": "bytes32"
        }
      ],
      "stateMutability": "view",
      "type": "function"
    },
    {
      "inputs": [
        {
          "internalType": "address",
          "name": "account",
          "type": "address"
        }
      ],
      "name": "addAdmin",
      "outputs": [],
      "stateMutability": "nonpayable",
      "type": "function"
    },
    {
      "inputs": [],
      "name": "balanceTOSAvailableAmount",
      "outputs": [
        {
          "internalType": "uint256",
          "name": "",
          "type": "uint256"
        }
      ],
      "stateMutability": "view",
      "type": "function"
    },
    {
      "inputs": [],
      "name": "cap",
      "outputs": [
        {
          "internalType": "uint256",
          "name": "",
          "type": "uint256"
        }
      ],
      "stateMutability": "view",
      "type": "function"
    },
    {
      "inputs": [
        {
          "internalType": "uint256",
          "name": "_cap",
          "type": "uint256"
        }
      ],
      "name": "changeCap",
      "outputs": [],
      "stateMutability": "nonpayable",
      "type": "function"
    },
    {
      "inputs": [
        {
          "internalType": "string",
          "name": "_name",
          "type": "string"
        }
      ],
      "name": "changeName",
      "outputs": [],
      "stateMutability": "nonpayable",
      "type": "function"
    },
    {
      "inputs": [
        {
          "internalType": "address",
          "name": "_to",
          "type": "address"
        },
        {
          "internalType": "uint256",
          "name": "_amount",
          "type": "uint256"
        }
      ],
      "name": "claim",
      "outputs": [
        {
          "internalType": "bool",
          "name": "",
          "type": "bool"
        }
      ],
      "stateMutability": "nonpayable",
      "type": "function"
    },
    {
      "inputs": [
        {
          "internalType": "bytes32",
          "name": "role",
          "type": "bytes32"
        }
      ],
      "name": "getRoleAdmin",
      "outputs": [
        {
          "internalType": "bytes32",
          "name": "",
          "type": "bytes32"
        }
      ],
      "stateMutability": "view",
      "type": "function"
    },
    {
      "inputs": [
        {
          "internalType": "bytes32",
          "name": "role",
          "type": "bytes32"
        },
        {
          "internalType": "uint256",
          "name": "index",
          "type": "uint256"
        }
      ],
      "name": "getRoleMember",
      "outputs": [
        {
          "internalType": "address",
          "name": "",
          "type": "address"
        }
      ],
      "stateMutability": "view",
      "type": "function"
    },
    {
      "inputs": [
        {
          "internalType": "bytes32",
          "name": "role",
          "type": "bytes32"
        }
      ],
      "name": "getRoleMemberCount",
      "outputs": [
        {
          "internalType": "uint256",
          "name": "",
          "type": "uint256"
        }
      ],
      "stateMutability": "view",
      "type": "function"
    },
    {
      "inputs": [
        {
          "internalType": "bytes32",
          "name": "role",
          "type": "bytes32"
        },
        {
          "internalType": "address",
          "name": "account",
          "type": "address"
        }
      ],
      "name": "grantRole",
      "outputs": [],
      "stateMutability": "nonpayable",
      "type": "function"
    },
    {
      "inputs": [
        {
          "internalType": "bytes32",
          "name": "role",
          "type": "bytes32"
        },
        {
          "internalType": "address",
          "name": "account",
          "type": "address"
        }
      ],
      "name": "hasRole",
      "outputs": [
        {
          "internalType": "bool",
          "name": "",
          "type": "bool"
        }
      ],
      "stateMutability": "view",
      "type": "function"
    },
    {
      "inputs": [],
      "name": "infos",
      "outputs": [
        {
          "internalType": "address[2]",
          "name": "",
          "type": "address[2]"
        },
        {
          "internalType": "uint256",
          "name": "",
          "type": "uint256"
        },
        {
          "internalType": "uint256",
          "name": "",
          "type": "uint256"
        },
        {
          "internalType": "uint256",
          "name": "",
          "type": "uint256"
        },
        {
          "internalType": "string",
          "name": "",
          "type": "string"
        }
      ],
      "stateMutability": "view",
      "type": "function"
    },
    {
      "inputs": [
        {
          "internalType": "address",
          "name": "account",
          "type": "address"
        }
      ],
      "name": "isAdmin",
      "outputs": [
        {
          "internalType": "bool",
          "name": "",
          "type": "bool"
        }
      ],
      "stateMutability": "view",
      "type": "function"
    },
    {
      "inputs": [],
      "name": "migratedL2",
      "outputs": [
        {
          "internalType": "bool",
          "name": "",
          "type": "bool"
        }
      ],
      "stateMutability": "view",
      "type": "function"
    },
    {
      "inputs": [],
      "name": "name",
      "outputs": [
        {
          "internalType": "string",
          "name": "",
          "type": "string"
        }
      ],
      "stateMutability": "view",
      "type": "function"
    },
    {
      "inputs": [],
      "name": "pauseProxy",
      "outputs": [
        {
          "internalType": "bool",
          "name": "",
          "type": "bool"
        }
      ],
      "stateMutability": "view",
      "type": "function"
    },
    {
      "inputs": [
        {
          "internalType": "address",
          "name": "account",
          "type": "address"
        }
      ],
      "name": "removeAdmin",
      "outputs": [],
      "stateMutability": "nonpayable",
      "type": "function"
    },
    {
      "inputs": [
        {
          "internalType": "bytes32",
          "name": "role",
          "type": "bytes32"
        },
        {
          "internalType": "address",
          "name": "account",
          "type": "address"
        }
      ],
      "name": "renounceRole",
      "outputs": [],
      "stateMutability": "nonpayable",
      "type": "function"
    },
    {
      "inputs": [
        {
          "internalType": "bytes32",
          "name": "role",
          "type": "bytes32"
        },
        {
          "internalType": "address",
          "name": "account",
          "type": "address"
        }
      ],
      "name": "revokeRole",
      "outputs": [],
      "stateMutability": "nonpayable",
      "type": "function"
    },
    {
      "inputs": [],
      "name": "rewardPerBlock",
      "outputs": [
        {
          "internalType": "uint256",
          "name": "",
          "type": "uint256"
        }
      ],
      "stateMutability": "view",
      "type": "function"
    },
    {
      "inputs": [
        {
          "internalType": "uint256",
          "name": "_rewardPerBlock",
          "type": "uint256"
        }
      ],
      "name": "setRewardPerBlock",
      "outputs": [],
      "stateMutability": "nonpayable",
      "type": "function"
    },
    {
      "inputs": [
        {
          "internalType": "address",
          "name": "_stakeAddress",
          "type": "address"
        }
      ],
      "name": "setStakeAddress",
      "outputs": [],
      "stateMutability": "nonpayable",
      "type": "function"
    },
    {
      "inputs": [
        {
          "internalType": "address",
          "name": "_tos",
          "type": "address"
        }
      ],
      "name": "setTOS",
      "outputs": [],
      "stateMutability": "nonpayable",
      "type": "function"
    },
    {
      "inputs": [],
      "name": "stakeAddress",
      "outputs": [
        {
          "internalType": "address",
          "name": "",
          "type": "address"
        }
      ],
      "stateMutability": "view",
      "type": "function"
    },
    {
      "inputs": [],
      "name": "stakeType",
      "outputs": [
        {
          "internalType": "uint256",
          "name": "",
          "type": "uint256"
        }
      ],
      "stateMutability": "view",
      "type": "function"
    },
    {
      "inputs": [],
      "name": "tos",
      "outputs": [
        {
          "internalType": "address",
          "name": "",
          "type": "address"
        }
      ],
      "stateMutability": "view",
      "type": "function"
    },
    {
      "inputs": [
        {
          "internalType": "address",
          "name": "newAdmin",
          "type": "address"
        }
      ],
      "name": "transferAdmin",
      "outputs": [],
      "stateMutability": "nonpayable",
      "type": "function"
    },
    {
      "inputs": [
        {
          "internalType": "address",
          "name": "to",
          "type": "address"
        },
        {
          "internalType": "uint256",
          "name": "_amount",
          "type": "uint256"
        }
      ],
      "name": "withdraw",
      "outputs": [],
      "stateMutability": "nonpayable",
      "type": "function"
    },
    {
      "stateMutability": "payable",
      "type": "receive"
    }
  ],
  "bytecode": "0x608060405234801561001057600080fd5b50612d44806100206000396000f3fe6080604052600436106101a75760003560e01c8063800edb9d116100e2578063a217fddf11610085578063a217fddf146105f5578063aad3ec9614610620578063b97af0db1461065d578063bb872b4a14610688578063ca15c873146106b1578063d5391393146106ee578063d547741f14610719578063f3fef3a314610742576101ae565b8063800edb9d1461047757806385107367146104a057806389f395de146104cb5780638ae39cac146104f65780639010d07c1461052157806391d148541461055e5780639a88be2f1461059b578063a1f5f50e146105ca576101ae565b806336568abe1161014a57806336568abe1461032957806340c2ce86146103525780635353a2d81461037b57806363a8fd89146103a457806366b2d527146103cf57806370480275146103fa57806375829def1461042357806375b238fc1461044c576101ae565b806306fdde03146101b35780631785f53c146101de57806323471d1814610207578063248a9ca31461023057806324d7806c1461026d578063282c51f3146102aa5780632f2ff15d146102d5578063355274ea146102fe576101ae565b366101ae57005b600080fd5b3480156101bf57600080fd5b506101c861076b565b6040516101d591906128dc565b60405180910390f35b3480156101ea57600080fd5b506102056004803603810190610200919061218a565b610809565b005b34801561021357600080fd5b5061022e6004803603810190610229919061218a565b610894565b005b34801561023c57600080fd5b5061025760048036038101906102529190612218565b610a6c565b60405161026491906128c1565b60405180910390f35b34801561027957600080fd5b50610294600480360381019061028f919061218a565b610a8b565b6040516102a191906128a6565b60405180910390f35b3480156102b657600080fd5b506102bf610abe565b6040516102cc91906128c1565b60405180910390f35b3480156102e157600080fd5b506102fc60048036038101906102f79190612241565b610ae2565b005b34801561030a57600080fd5b50610313610b6b565b6040516103209190612a1e565b60405180910390f35b34801561033557600080fd5b50610350600480360381019061034b9190612241565b610b71565b005b34801561035e57600080fd5b506103796004803603810190610374919061218a565b610c0a565b005b34801561038757600080fd5b506103a2600480360381019061039d91906122b9565b610d51565b005b3480156103b057600080fd5b506103b9610e59565b6040516103c691906128a6565b60405180910390f35b3480156103db57600080fd5b506103e4610e6c565b6040516103f19190612a1e565b60405180910390f35b34801561040657600080fd5b50610421600480360381019061041c919061218a565b610f1e565b005b34801561042f57600080fd5b5061044a6004803603810190610445919061218a565b610fa9565b005b34801561045857600080fd5b506104616111a3565b60405161046e91906128c1565b60405180910390f35b34801561048357600080fd5b5061049e600480360381019061049991906122fa565b6111c7565b005b3480156104ac57600080fd5b506104b5611280565b6040516104c291906127ed565b60405180910390f35b3480156104d757600080fd5b506104e06112a6565b6040516104ed91906127ed565b60405180910390f35b34801561050257600080fd5b5061050b6112cc565b6040516105189190612a1e565b60405180910390f35b34801561052d57600080fd5b506105486004803603810190610543919061227d565b6112d2565b60405161055591906127ed565b60405180910390f35b34801561056a57600080fd5b5061058560048036038101906105809190612241565b611303565b60405161059291906128a6565b60405180910390f35b3480156105a757600080fd5b506105b0611334565b6040516105c195949392919061284c565b60405180910390f35b3480156105d657600080fd5b506105df6114ac565b6040516105ec91906128a6565b60405180910390f35b34801561060157600080fd5b5061060a6114bf565b60405161061791906128c1565b60405180910390f35b34801561062c57600080fd5b50610647600480360381019061064291906121b3565b6114c6565b60405161065491906128a6565b60405180910390f35b34801561066957600080fd5b5061067261181b565b60405161067f9190612a1e565b60405180910390f35b34801561069457600080fd5b506106af60048036038101906106aa91906122fa565b611821565b005b3480156106bd57600080fd5b506106d860048036038101906106d39190612218565b6118da565b6040516106e59190612a1e565b60405180910390f35b3480156106fa57600080fd5b50610703611900565b60405161071091906128c1565b60405180910390f35b34801561072557600080fd5b50610740600480360381019061073b9190612241565b611924565b005b34801561074e57600080fd5b50610769600480360381019061076491906121b3565b6119ad565b005b60028054600181600116156101000203166002900480601f0160208091040260200160405190810160405280929190818152602001828054600181600116156101000203166002900480156108015780601f106107d657610100808354040283529160200191610801565b820191906000526020600020905b8154815290600101906020018083116107e457829003601f168201915b505050505081565b61081233610a8b565b610867576040517f08c379a0000000000000000000000000000000000000000000000000000000008152600401808060200182810382526022815260200180612c8e6022913960400191505060405180910390fd5b6108917fdf8b4c520ffe197c5343c6f5aec59570151ef9a492f2c624fd45ddde6135ec4282610b71565b50565b80600073ffffffffffffffffffffffffffffffffffffffff168173ffffffffffffffffffffffffffffffffffffffff161415610938576040517f08c379a00000000000000000000000000000000000000000000000000000000081526004018080602001828103825260208152602001807f5374616b65325661756c7453746f726167653a207a65726f206164647265737381525060200191505060405180910390fd5b61094133610a8b565b610996576040517f08c379a0000000000000000000000000000000000000000000000000000000008152600401808060200182810382526022815260200180612c8e6022913960400191505060405180910390fd5b8173ffffffffffffffffffffffffffffffffffffffff16600660009054906101000a900473ffffffffffffffffffffffffffffffffffffffff1673ffffffffffffffffffffffffffffffffffffffff161415610a27576040517f08c379a0000000000000000000000000000000000000000000000000000000008152600401610a1e906129de565b60405180910390fd5b81600660006101000a81548173ffffffffffffffffffffffffffffffffffffffff021916908373ffffffffffffffffffffffffffffffffffffffff1602179055505050565b6000806000838152602001908152602001600020600201549050919050565b6000610ab77fdf8b4c520ffe197c5343c6f5aec59570151ef9a492f2c624fd45ddde6135ec4283611303565b9050919050565b7f9667e80708b6eeeb0053fa0cca44e028ff548e2a9f029edfeac87c118b08b7c881565b610b0860008084815260200190815260200160002060020154610b03611bf0565b611303565b610b5d576040517f08c379a000000000000000000000000000000000000000000000000000000000815260040180806020018281038252602f815260200180612c5f602f913960400191505060405180910390fd5b610b678282611bf8565b5050565b60035481565b610b79611bf0565b73ffffffffffffffffffffffffffffffffffffffff168173ffffffffffffffffffffffffffffffffffffffff1614610bfc576040517f08c379a000000000000000000000000000000000000000000000000000000000815260040180806020018281038252602f815260200180612ce0602f913960400191505060405180910390fd5b610c068282611c8b565b5050565b610c1333610a8b565b610c68576040517f08c379a0000000000000000000000000000000000000000000000000000000008152600401808060200182810382526022815260200180612c8e6022913960400191505060405180910390fd5b80600073ffffffffffffffffffffffffffffffffffffffff168173ffffffffffffffffffffffffffffffffffffffff161415610d0c576040517f08c379a00000000000000000000000000000000000000000000000000000000081526004018080602001828103825260208152602001807f5374616b65325661756c7453746f726167653a207a65726f206164647265737381525060200191505060405180910390fd5b81600160006101000a81548173ffffffffffffffffffffffffffffffffffffffff021916908373ffffffffffffffffffffffffffffffffffffffff1602179055505050565b610d5a33610a8b565b610daf576040517f08c379a0000000000000000000000000000000000000000000000000000000008152600401808060200182810382526022815260200180612c8e6022913960400191505060405180910390fd5b80604051602001610dc091906127bf565b604051602081830303815290604052805190602001206002604051602001610de891906127d6565b604051602081830303815290604052805190602001201415610e3f576040517f08c379a0000000000000000000000000000000000000000000000000000000008152600401610e369061295e565b60405180910390fd5b8060029080519060200190610e55929190611fec565b5050565b600860009054906101000a900460ff1681565b6000600160009054906101000a900473ffffffffffffffffffffffffffffffffffffffff1673ffffffffffffffffffffffffffffffffffffffff166370a08231306040518263ffffffff1660e01b8152600401610ec99190612808565b60206040518083038186803b158015610ee157600080fd5b505afa158015610ef5573d6000803e3d6000fd5b505050506040513d601f19601f82011682018060405250810190610f199190612323565b905090565b610f2733610a8b565b610f7c576040517f08c379a0000000000000000000000000000000000000000000000000000000008152600401808060200182810382526022815260200180612c8e6022913960400191505060405180910390fd5b610fa67fdf8b4c520ffe197c5343c6f5aec59570151ef9a492f2c624fd45ddde6135ec4282610ae2565b50565b610fb233610a8b565b611007576040517f08c379a0000000000000000000000000000000000000000000000000000000008152600401808060200182810382526022815260200180612c8e6022913960400191505060405180910390fd5b600073ffffffffffffffffffffffffffffffffffffffff168173ffffffffffffffffffffffffffffffffffffffff1614156110aa576040517f08c379a00000000000000000000000000000000000000000000000000000000081526004018080602001828103825260188152602001807f41636365737369626c653a207a65726f2061646472657373000000000000000081525060200191505060405180910390fd5b8073ffffffffffffffffffffffffffffffffffffffff163373ffffffffffffffffffffffffffffffffffffffff16141561114c576040517f08c379a00000000000000000000000000000000000000000000000000000000081526004018080602001828103825260168152602001807f41636365737369626c653a2073616d652061646d696e0000000000000000000081525060200191505060405180910390fd5b6111767fdf8b4c520ffe197c5343c6f5aec59570151ef9a492f2c624fd45ddde6135ec4282610ae2565b6111a07fdf8b4c520ffe197c5343c6f5aec59570151ef9a492f2c624fd45ddde6135ec4233610b71565b50565b7fdf8b4c520ffe197c5343c6f5aec59570151ef9a492f2c624fd45ddde6135ec4281565b6111d033610a8b565b611225576040517f08c379a0000000000000000000000000000000000000000000000000000000008152600401808060200182810382526022815260200180612c8e6022913960400191505060405180910390fd5b60008111801561123757508060035414155b611276576040517f08c379a000000000000000000000000000000000000000000000000000000000815260040161126d9061297e565b60405180910390fd5b8060038190555050565b600660009054906101000a900473ffffffffffffffffffffffffffffffffffffffff1681565b600160009054906101000a900473ffffffffffffffffffffffffffffffffffffffff1681565b60045481565b60006112fb82600080868152602001908152602001600020600001611d1e90919063ffffffff16565b905092915050565b600061132c82600080868152602001908152602001600020600001611d3890919063ffffffff16565b905092915050565b61133c61207a565b600080600060606040518060400160405280600160009054906101000a900473ffffffffffffffffffffffffffffffffffffffff1673ffffffffffffffffffffffffffffffffffffffff1673ffffffffffffffffffffffffffffffffffffffff168152602001600660009054906101000a900473ffffffffffffffffffffffffffffffffffffffff1673ffffffffffffffffffffffffffffffffffffffff1673ffffffffffffffffffffffffffffffffffffffff168152506003546005546004546002808054600181600116156101000203166002900480601f0160208091040260200160405190810160405280929190818152602001828054600181600116156101000203166002900480156114945780601f1061146957610100808354040283529160200191611494565b820191906000526020600020905b81548152906001019060200180831161147757829003601f168201915b50505050509050945094509450945094509091929394565b600860019054906101000a900460ff1681565b6000801b81565b6000816000811161153f576040517f08c379a000000000000000000000000000000000000000000000000000000000815260040180806020018281038252601e8152602001807f5374616b65325661756c7453746f726167653a207a65726f2076616c7565000081525060200191505060405180910390fd5b6000600160009054906101000a900473ffffffffffffffffffffffffffffffffffffffff1673ffffffffffffffffffffffffffffffffffffffff166370a08231306040518263ffffffff1660e01b815260040161159c9190612808565b60206040518083038186803b1580156115b457600080fd5b505afa1580156115c8573d6000803e3d6000fd5b505050506040513d601f19601f820116820180604052508101906115ec9190612323565b905083811015611631576040517f08c379a0000000000000000000000000000000000000000000000000000000008152600401611628906129be565b60405180910390fd5b3373ffffffffffffffffffffffffffffffffffffffff16600660009054906101000a900473ffffffffffffffffffffffffffffffffffffffff1673ffffffffffffffffffffffffffffffffffffffff161480611692575061169133610a8b565b5b6116d1576040517f08c379a00000000000000000000000000000000000000000000000000000000081526004016116c8906128fe565b60405180910390fd5b600160009054906101000a900473ffffffffffffffffffffffffffffffffffffffff1673ffffffffffffffffffffffffffffffffffffffff1663a9059cbb86866040518363ffffffff1660e01b815260040161172e929190612823565b602060405180830381600087803b15801561174857600080fd5b505af115801561175c573d6000803e3d6000fd5b505050506040513d601f19601f8201168201806040525081019061178091906121ef565b6117bf576040517f08c379a00000000000000000000000000000000000000000000000000000000081526004016117b69061293e565b60405180910390fd5b3373ffffffffffffffffffffffffffffffffffffffff167faee3654837b73cc93e61b5d33f82d45b1df4dbe682913819f5ce40de23518e728686604051611807929190612823565b60405180910390a260019250505092915050565b60055481565b61182a33610a8b565b61187f576040517f08c379a0000000000000000000000000000000000000000000000000000000008152600401808060200182810382526022815260200180612c8e6022913960400191505060405180910390fd5b60008111801561189157508060045414155b6118d0576040517f08c379a00000000000000000000000000000000000000000000000000000000081526004016118c79061291e565b60405180910390fd5b8060048190555050565b60006118f9600080848152602001908152602001600020600001611d68565b9050919050565b7ff0887ba65ee2024ea881d91b74c2450ef19e1557f03bed3ea9f16b037cbe2dc981565b61194a60008084815260200190815260200160002060020154611945611bf0565b611303565b61199f576040517f08c379a0000000000000000000000000000000000000000000000000000000008152600401808060200182810382526030815260200180612cb06030913960400191505060405180910390fd5b6119a98282611c8b565b5050565b6119b633610a8b565b611a0b576040517f08c379a0000000000000000000000000000000000000000000000000000000008152600401808060200182810382526022815260200180612c8e6022913960400191505060405180910390fd5b6000600160009054906101000a900473ffffffffffffffffffffffffffffffffffffffff1673ffffffffffffffffffffffffffffffffffffffff166370a08231306040518263ffffffff1660e01b8152600401611a689190612808565b60206040518083038186803b158015611a8057600080fd5b505afa158015611a94573d6000803e3d6000fd5b505050506040513d601f19601f82011682018060405250810190611ab89190612323565b905081811015611afd576040517f08c379a0000000000000000000000000000000000000000000000000000000008152600401611af4906129fe565b60405180910390fd5b600160009054906101000a900473ffffffffffffffffffffffffffffffffffffffff1673ffffffffffffffffffffffffffffffffffffffff1663a9059cbb84846040518363ffffffff1660e01b8152600401611b5a929190612823565b602060405180830381600087803b158015611b7457600080fd5b505af1158015611b88573d6000803e3d6000fd5b505050506040513d601f19601f82011682018060405250810190611bac91906121ef565b611beb576040517f08c379a0000000000000000000000000000000000000000000000000000000008152600401611be29061299e565b60405180910390fd5b505050565b600033905090565b611c1f81600080858152602001908152602001600020600001611d7d90919063ffffffff16565b15611c8757611c2c611bf0565b73ffffffffffffffffffffffffffffffffffffffff168173ffffffffffffffffffffffffffffffffffffffff16837f2f8788117e7eff1d82e926ec794901d17c78024a50270940304540a733656f0d60405160405180910390a45b5050565b611cb281600080858152602001908152602001600020600001611dad90919063ffffffff16565b15611d1a57611cbf611bf0565b73ffffffffffffffffffffffffffffffffffffffff168173ffffffffffffffffffffffffffffffffffffffff16837ff6391f5c32d9c69d2a47ea670b442974b53935d1edc7fd64eb21e047a839171b60405160405180910390a45b5050565b6000611d2d8360000183611ddd565b60001c905092915050565b6000611d60836000018373ffffffffffffffffffffffffffffffffffffffff1660001b611e60565b905092915050565b6000611d7682600001611e83565b9050919050565b6000611da5836000018373ffffffffffffffffffffffffffffffffffffffff1660001b611e94565b905092915050565b6000611dd5836000018373ffffffffffffffffffffffffffffffffffffffff1660001b611f04565b905092915050565b600081836000018054905011611e3e576040517f08c379a0000000000000000000000000000000000000000000000000000000008152600401808060200182810382526022815260200180612c3d6022913960400191505060405180910390fd5b826000018281548110611e4d57fe5b9060005260206000200154905092915050565b600080836001016000848152602001908152602001600020541415905092915050565b600081600001805490509050919050565b6000611ea08383611e60565b611ef9578260000182908060018154018082558091505060019003906000526020600020016000909190919091505582600001805490508360010160008481526020019081526020016000208190555060019050611efe565b600090505b92915050565b60008083600101600084815260200190815260200160002054905060008114611fe05760006001820390506000600186600001805490500390506000866000018281548110611f4f57fe5b9060005260206000200154905080876000018481548110611f6c57fe5b9060005260206000200181905550600183018760010160008381526020019081526020016000208190555086600001805480611fa457fe5b60019003818190600052602060002001600090559055866001016000878152602001908152602001600020600090556001945050505050611fe6565b60009150505b92915050565b828054600181600116156101000203166002900490600052602060002090601f0160209004810192826120225760008555612069565b82601f1061203b57805160ff1916838001178555612069565b82800160010185558215612069579182015b8281111561206857825182559160200191906001019061204d565b5b509050612076919061209c565b5090565b6040518060400160405280600290602082028036833780820191505090505090565b5b808211156120b557600081600090555060010161209d565b5090565b60006120cc6120c784612a6a565b612a39565b9050828152602081018484840111156120e457600080fd5b6120ef848285612b8b565b509392505050565b60008135905061210681612be0565b92915050565b60008151905061211b81612bf7565b92915050565b60008135905061213081612c0e565b92915050565b600082601f83011261214757600080fd5b81356121578482602086016120b9565b91505092915050565b60008135905061216f81612c25565b92915050565b60008151905061218481612c25565b92915050565b60006020828403121561219c57600080fd5b60006121aa848285016120f7565b91505092915050565b600080604083850312156121c657600080fd5b60006121d4858286016120f7565b92505060206121e585828601612160565b9150509250929050565b60006020828403121561220157600080fd5b600061220f8482850161210c565b91505092915050565b60006020828403121561222a57600080fd5b600061223884828501612121565b91505092915050565b6000806040838503121561225457600080fd5b600061226285828601612121565b9250506020612273858286016120f7565b9150509250929050565b6000806040838503121561229057600080fd5b600061229e85828601612121565b92505060206122af85828601612160565b9150509250929050565b6000602082840312156122cb57600080fd5b600082013567ffffffffffffffff8111156122e557600080fd5b6122f184828501612136565b91505092915050565b60006020828403121561230c57600080fd5b600061231a84828501612160565b91505092915050565b60006020828403121561233557600080fd5b600061234384828501612175565b91505092915050565b60006123588383612373565b60208301905092915050565b61236d81612b55565b82525050565b61237c81612b03565b82525050565b61238b81612b03565b82525050565b61239a81612ab9565b6123a48184612adc565b92506123af82612a9a565b8060005b838110156123e05781516123c7878261234c565b96506123d283612acf565b9250506001810190506123b3565b505050505050565b6123f181612b15565b82525050565b61240081612b21565b82525050565b600061241182612ac4565b61241b8185612ae7565b935061242b818560208601612b9a565b61243481612bcf565b840191505092915050565b600061244a82612ac4565b6124548185612af8565b9350612464818560208601612b9a565b80840191505092915050565b60008154600181166000811461248d57600181146124b2576124f6565b607f600283041661249e8187612af8565b955060ff19831686528086019350506124f6565b600282046124c08187612af8565b95506124cb85612aa4565b60005b828110156124ed578154818901526001820191506020810190506124ce565b82880195505050505b505092915050565b600061250b602883612ae7565b91507f5374616b65315661756c743a206e6f742061646d696e206f72207374616b652060008301527f636f6e74726163740000000000000000000000000000000000000000000000006020830152604082019050919050565b6000612571602483612ae7565b91507f5374616b65325661756c743a20736574526577617264506572426c6f636b206660008301527f61696c73000000000000000000000000000000000000000000000000000000006020830152604082019050919050565b60006125d7601e83612ae7565b91507f5374616b65315661756c743a20544f53207472616e73666572206661696c00006000830152602082019050919050565b6000612617601d83612ae7565b91507f5374616b65325661756c743a206368616e67654e616d65206661696c730000006000830152602082019050919050565b6000612657601c83612ae7565b91507f5374616b65325661756c743a206368616e6765436170206661696c73000000006000830152602082019050919050565b6000612697601a83612ae7565b91507f5374616b65325661756c743a206661696c2077697468647261770000000000006000830152602082019050919050565b60006126d7601f83612ae7565b91507f5374616b65315661756c743a206e6f7420656e6f7567682062616c616e6365006000830152602082019050919050565b6000612717602283612ae7565b91507f5374616b65325661756c743a207365745374616b65416464726573732066616960008301527f6c730000000000000000000000000000000000000000000000000000000000006020830152604082019050919050565b600061277d601783612ae7565b91507f5374616b65325661756c743a20696e7375666669656e740000000000000000006000830152602082019050919050565b6127b981612b4b565b82525050565b60006127cb828461243f565b915081905092915050565b60006127e28284612470565b915081905092915050565b60006020820190506128026000830184612382565b92915050565b600060208201905061281d6000830184612364565b92915050565b60006040820190506128386000830185612382565b61284560208301846127b0565b9392505050565b600060c0820190506128616000830188612391565b61286e60408301876127b0565b61287b60608301866127b0565b61288860808301856127b0565b81810360a083015261289a8184612406565b90509695505050505050565b60006020820190506128bb60008301846123e8565b92915050565b60006020820190506128d660008301846123f7565b92915050565b600060208201905081810360008301526128f68184612406565b905092915050565b60006020820190508181036000830152612917816124fe565b9050919050565b6000602082019050818103600083015261293781612564565b9050919050565b60006020820190508181036000830152612957816125ca565b9050919050565b600060208201905081810360008301526129778161260a565b9050919050565b600060208201905081810360008301526129978161264a565b9050919050565b600060208201905081810360008301526129b78161268a565b9050919050565b600060208201905081810360008301526129d7816126ca565b9050919050565b600060208201905081810360008301526129f78161270a565b9050919050565b60006020820190508181036000830152612a1781612770565b9050919050565b6000602082019050612a3360008301846127b0565b92915050565b6000604051905081810181811067ffffffffffffffff82111715612a6057612a5f612bcd565b5b8060405250919050565b600067ffffffffffffffff821115612a8557612a84612bcd565b5b601f19601f8301169050602081019050919050565b6000819050919050565b60008190508160005260206000209050919050565b600060029050919050565b600081519050919050565b6000602082019050919050565b600081905092915050565b600082825260208201905092915050565b600081905092915050565b6000612b0e82612b2b565b9050919050565b60008115159050919050565b6000819050919050565b600073ffffffffffffffffffffffffffffffffffffffff82169050919050565b6000819050919050565b6000612b6082612b67565b9050919050565b6000612b7282612b79565b9050919050565b6000612b8482612b2b565b9050919050565b82818337600083830152505050565b60005b83811015612bb8578082015181840152602081019050612b9d565b83811115612bc7576000848401525b50505050565bfe5b6000601f19601f8301169050919050565b612be981612b03565b8114612bf457600080fd5b50565b612c0081612b15565b8114612c0b57600080fd5b50565b612c1781612b21565b8114612c2257600080fd5b50565b612c2e81612b4b565b8114612c3957600080fd5b5056fe456e756d657261626c655365743a20696e646578206f7574206f6620626f756e6473416363657373436f6e74726f6c3a2073656e646572206d75737420626520616e2061646d696e20746f206772616e7441636365737369626c653a2043616c6c6572206973206e6f7420616e2061646d696e416363657373436f6e74726f6c3a2073656e646572206d75737420626520616e2061646d696e20746f207265766f6b65416363657373436f6e74726f6c3a2063616e206f6e6c792072656e6f756e636520726f6c657320666f722073656c66a2646970667358221220cd3b07f293695469cfd028e76e08bcf87779b81dde07a13d9a227b5d8605ca6564736f6c63430007060033",
  "linkReferences": {},
  "deployedLinkReferences": {}
}