{
  "_format": "hh-sol-artifact-1",
  "contractName": "Stake2VaultStorage",
  "sourceName": "contracts/stake/Stake2VaultStorage.sol",
  "abi": [
    {
      "anonymous": false,
      "inputs": [
        {
          "indexed": true,
          "internalType": "bytes32",
          "name": "role",
          "type": "bytes32"
        },
        {
          "indexed": true,
          "internalType": "bytes32",
          "name": "previousAdminRole",
          "type": "bytes32"
        },
        {
          "indexed": true,
          "internalType": "bytes32",
          "name": "newAdminRole",
          "type": "bytes32"
        }
      ],
      "name": "RoleAdminChanged",
      "type": "event"
    },
    {
      "anonymous": false,
      "inputs": [
        {
          "indexed": true,
          "internalType": "bytes32",
          "name": "role",
          "type": "bytes32"
        },
        {
          "indexed": true,
          "internalType": "address",
          "name": "account",
          "type": "address"
        },
        {
          "indexed": true,
          "internalType": "address",
          "name": "sender",
          "type": "address"
        }
      ],
      "name": "RoleGranted",
      "type": "event"
    },
    {
      "anonymous": false,
      "inputs": [
        {
          "indexed": true,
          "internalType": "bytes32",
          "name": "role",
          "type": "bytes32"
        },
        {
          "indexed": true,
          "internalType": "address",
          "name": "account",
          "type": "address"
        },
        {
          "indexed": true,
          "internalType": "address",
          "name": "sender",
          "type": "address"
        }
      ],
      "name": "RoleRevoked",
      "type": "event"
    },
    {
      "inputs": [],
      "name": "ADMIN_ROLE",
      "outputs": [
        {
          "internalType": "bytes32",
          "name": "",
          "type": "bytes32"
        }
      ],
      "stateMutability": "view",
      "type": "function"
    },
    {
      "inputs": [],
      "name": "BURNER_ROLE",
      "outputs": [
        {
          "internalType": "bytes32",
          "name": "",
          "type": "bytes32"
        }
      ],
      "stateMutability": "view",
      "type": "function"
    },
    {
      "inputs": [],
      "name": "DEFAULT_ADMIN_ROLE",
      "outputs": [
        {
          "internalType": "bytes32",
          "name": "",
          "type": "bytes32"
        }
      ],
      "stateMutability": "view",
      "type": "function"
    },
    {
      "inputs": [],
      "name": "MINTER_ROLE",
      "outputs": [
        {
          "internalType": "bytes32",
          "name": "",
          "type": "bytes32"
        }
      ],
      "stateMutability": "view",
      "type": "function"
    },
    {
      "inputs": [
        {
          "internalType": "address",
          "name": "account",
          "type": "address"
        }
      ],
      "name": "addAdmin",
      "outputs": [],
      "stateMutability": "nonpayable",
      "type": "function"
    },
    {
      "inputs": [],
      "name": "cap",
      "outputs": [
        {
          "internalType": "uint256",
          "name": "",
          "type": "uint256"
        }
      ],
      "stateMutability": "view",
      "type": "function"
    },
    {
      "inputs": [
        {
          "internalType": "bytes32",
          "name": "role",
          "type": "bytes32"
        }
      ],
      "name": "getRoleAdmin",
      "outputs": [
        {
          "internalType": "bytes32",
          "name": "",
          "type": "bytes32"
        }
      ],
      "stateMutability": "view",
      "type": "function"
    },
    {
      "inputs": [
        {
          "internalType": "bytes32",
          "name": "role",
          "type": "bytes32"
        },
        {
          "internalType": "uint256",
          "name": "index",
          "type": "uint256"
        }
      ],
      "name": "getRoleMember",
      "outputs": [
        {
          "internalType": "address",
          "name": "",
          "type": "address"
        }
      ],
      "stateMutability": "view",
      "type": "function"
    },
    {
      "inputs": [
        {
          "internalType": "bytes32",
          "name": "role",
          "type": "bytes32"
        }
      ],
      "name": "getRoleMemberCount",
      "outputs": [
        {
          "internalType": "uint256",
          "name": "",
          "type": "uint256"
        }
      ],
      "stateMutability": "view",
      "type": "function"
    },
    {
      "inputs": [
        {
          "internalType": "bytes32",
          "name": "role",
          "type": "bytes32"
        },
        {
          "internalType": "address",
          "name": "account",
          "type": "address"
        }
      ],
      "name": "grantRole",
      "outputs": [],
      "stateMutability": "nonpayable",
      "type": "function"
    },
    {
      "inputs": [
        {
          "internalType": "bytes32",
          "name": "role",
          "type": "bytes32"
        },
        {
          "internalType": "address",
          "name": "account",
          "type": "address"
        }
      ],
      "name": "hasRole",
      "outputs": [
        {
          "internalType": "bool",
          "name": "",
          "type": "bool"
        }
      ],
      "stateMutability": "view",
      "type": "function"
    },
    {
      "inputs": [
        {
          "internalType": "address",
          "name": "account",
          "type": "address"
        }
      ],
      "name": "isAdmin",
      "outputs": [
        {
          "internalType": "bool",
          "name": "",
          "type": "bool"
        }
      ],
      "stateMutability": "view",
      "type": "function"
    },
    {
      "inputs": [],
      "name": "migratedL2",
      "outputs": [
        {
          "internalType": "bool",
          "name": "",
          "type": "bool"
        }
      ],
      "stateMutability": "view",
      "type": "function"
    },
    {
      "inputs": [],
      "name": "name",
      "outputs": [
        {
          "internalType": "string",
          "name": "",
          "type": "string"
        }
      ],
      "stateMutability": "view",
      "type": "function"
    },
    {
      "inputs": [],
      "name": "pauseProxy",
      "outputs": [
        {
          "internalType": "bool",
          "name": "",
          "type": "bool"
        }
      ],
      "stateMutability": "view",
      "type": "function"
    },
    {
      "inputs": [
        {
          "internalType": "address",
          "name": "account",
          "type": "address"
        }
      ],
      "name": "removeAdmin",
      "outputs": [],
      "stateMutability": "nonpayable",
      "type": "function"
    },
    {
      "inputs": [
        {
          "internalType": "bytes32",
          "name": "role",
          "type": "bytes32"
        },
        {
          "internalType": "address",
          "name": "account",
          "type": "address"
        }
      ],
      "name": "renounceRole",
      "outputs": [],
      "stateMutability": "nonpayable",
      "type": "function"
    },
    {
      "inputs": [
        {
          "internalType": "bytes32",
          "name": "role",
          "type": "bytes32"
        },
        {
          "internalType": "address",
          "name": "account",
          "type": "address"
        }
      ],
      "name": "revokeRole",
      "outputs": [],
      "stateMutability": "nonpayable",
      "type": "function"
    },
    {
      "inputs": [],
      "name": "rewardPerBlock",
      "outputs": [
        {
          "internalType": "uint256",
          "name": "",
          "type": "uint256"
        }
      ],
      "stateMutability": "view",
      "type": "function"
    },
    {
      "inputs": [],
      "name": "stakeAddress",
      "outputs": [
        {
          "internalType": "address",
          "name": "",
          "type": "address"
        }
      ],
      "stateMutability": "view",
      "type": "function"
    },
    {
      "inputs": [],
      "name": "stakeType",
      "outputs": [
        {
          "internalType": "uint256",
          "name": "",
          "type": "uint256"
        }
      ],
      "stateMutability": "view",
      "type": "function"
    },
    {
      "inputs": [],
      "name": "tos",
      "outputs": [
        {
          "internalType": "address",
          "name": "",
          "type": "address"
        }
      ],
      "stateMutability": "view",
      "type": "function"
    },
    {
      "inputs": [
        {
          "internalType": "address",
          "name": "newAdmin",
          "type": "address"
        }
      ],
      "name": "transferAdmin",
      "outputs": [],
      "stateMutability": "nonpayable",
      "type": "function"
    }
  ],
  "bytecode": "0x608060405234801561001057600080fd5b506112d7806100206000396000f3fe608060405234801561001057600080fd5b506004361061014d5760003560e01c806375b238fc116100c3578063a1f5f50e1161007c578063a1f5f50e1461059f578063a217fddf146105bf578063b97af0db146105dd578063ca15c873146105fb578063d53913931461063d578063d547741f1461065b5761014d565b806375b238fc14610435578063851073671461045357806389f395de146104875780638ae39cac146104bb5780639010d07c146104d957806391d148541461053b5761014d565b80632f2ff15d116101155780632f2ff15d146102d3578063355274ea1461032157806336568abe1461033f57806363a8fd891461038d57806370480275146103ad57806375829def146103f15761014d565b806306fdde03146101525780631785f53c146101d5578063248a9ca31461021957806324d7806c1461025b578063282c51f3146102b5575b600080fd5b61015a6106a9565b6040518080602001828103825283818151815260200191508051906020019080838360005b8381101561019a57808201518184015260208101905061017f565b50505050905090810190601f1680156101c75780820380516001836020036101000a031916815260200191505b509250505060405180910390f35b610217600480360360208110156101eb57600080fd5b81019080803573ffffffffffffffffffffffffffffffffffffffff169060200190929190505050610747565b005b6102456004803603602081101561022f57600080fd5b81019080803590602001909291905050506107d2565b6040518082815260200191505060405180910390f35b61029d6004803603602081101561027157600080fd5b81019080803573ffffffffffffffffffffffffffffffffffffffff1690602001909291905050506107f1565b60405180821515815260200191505060405180910390f35b6102bd610824565b6040518082815260200191505060405180910390f35b61031f600480360360408110156102e957600080fd5b8101908080359060200190929190803573ffffffffffffffffffffffffffffffffffffffff169060200190929190505050610848565b005b6103296108d1565b6040518082815260200191505060405180910390f35b61038b6004803603604081101561035557600080fd5b8101908080359060200190929190803573ffffffffffffffffffffffffffffffffffffffff1690602001909291905050506108d7565b005b610395610970565b60405180821515815260200191505060405180910390f35b6103ef600480360360208110156103c357600080fd5b81019080803573ffffffffffffffffffffffffffffffffffffffff169060200190929190505050610983565b005b6104336004803603602081101561040757600080fd5b81019080803573ffffffffffffffffffffffffffffffffffffffff169060200190929190505050610a0e565b005b61043d610c08565b6040518082815260200191505060405180910390f35b61045b610c2c565b604051808273ffffffffffffffffffffffffffffffffffffffff16815260200191505060405180910390f35b61048f610c52565b604051808273ffffffffffffffffffffffffffffffffffffffff16815260200191505060405180910390f35b6104c3610c78565b6040518082815260200191505060405180910390f35b61050f600480360360408110156104ef57600080fd5b810190808035906020019092919080359060200190929190505050610c7e565b604051808273ffffffffffffffffffffffffffffffffffffffff16815260200191505060405180910390f35b6105876004803603604081101561055157600080fd5b8101908080359060200190929190803573ffffffffffffffffffffffffffffffffffffffff169060200190929190505050610caf565b60405180821515815260200191505060405180910390f35b6105a7610ce0565b60405180821515815260200191505060405180910390f35b6105c7610cf3565b6040518082815260200191505060405180910390f35b6105e5610cfa565b6040518082815260200191505060405180910390f35b6106276004803603602081101561061157600080fd5b8101908080359060200190929190505050610d00565b6040518082815260200191505060405180910390f35b610645610d26565b6040518082815260200191505060405180910390f35b6106a76004803603604081101561067157600080fd5b8101908080359060200190929190803573ffffffffffffffffffffffffffffffffffffffff169060200190929190505050610d4a565b005b60028054600181600116156101000203166002900480601f01602080910402602001604051908101604052809291908181526020018280546001816001161561010002031660029004801561073f5780601f106107145761010080835404028352916020019161073f565b820191906000526020600020905b81548152906001019060200180831161072257829003601f168201915b505050505081565b610750336107f1565b6107a5576040517f08c379a00000000000000000000000000000000000000000000000000000000081526004018080602001828103825260228152602001806112216022913960400191505060405180910390fd5b6107cf7fdf8b4c520ffe197c5343c6f5aec59570151ef9a492f2c624fd45ddde6135ec42826108d7565b50565b6000806000838152602001908152602001600020600201549050919050565b600061081d7fdf8b4c520ffe197c5343c6f5aec59570151ef9a492f2c624fd45ddde6135ec4283610caf565b9050919050565b7f9667e80708b6eeeb0053fa0cca44e028ff548e2a9f029edfeac87c118b08b7c881565b61086e60008084815260200190815260200160002060020154610869610dd3565b610caf565b6108c3576040517f08c379a000000000000000000000000000000000000000000000000000000000815260040180806020018281038252602f8152602001806111f2602f913960400191505060405180910390fd5b6108cd8282610ddb565b5050565b60035481565b6108df610dd3565b73ffffffffffffffffffffffffffffffffffffffff168173ffffffffffffffffffffffffffffffffffffffff1614610962576040517f08c379a000000000000000000000000000000000000000000000000000000000815260040180806020018281038252602f815260200180611273602f913960400191505060405180910390fd5b61096c8282610e6e565b5050565b600860009054906101000a900460ff1681565b61098c336107f1565b6109e1576040517f08c379a00000000000000000000000000000000000000000000000000000000081526004018080602001828103825260228152602001806112216022913960400191505060405180910390fd5b610a0b7fdf8b4c520ffe197c5343c6f5aec59570151ef9a492f2c624fd45ddde6135ec4282610848565b50565b610a17336107f1565b610a6c576040517f08c379a00000000000000000000000000000000000000000000000000000000081526004018080602001828103825260228152602001806112216022913960400191505060405180910390fd5b600073ffffffffffffffffffffffffffffffffffffffff168173ffffffffffffffffffffffffffffffffffffffff161415610b0f576040517f08c379a00000000000000000000000000000000000000000000000000000000081526004018080602001828103825260188152602001807f41636365737369626c653a207a65726f2061646472657373000000000000000081525060200191505060405180910390fd5b8073ffffffffffffffffffffffffffffffffffffffff163373ffffffffffffffffffffffffffffffffffffffff161415610bb1576040517f08c379a00000000000000000000000000000000000000000000000000000000081526004018080602001828103825260168152602001807f41636365737369626c653a2073616d652061646d696e0000000000000000000081525060200191505060405180910390fd5b610bdb7fdf8b4c520ffe197c5343c6f5aec59570151ef9a492f2c624fd45ddde6135ec4282610848565b610c057fdf8b4c520ffe197c5343c6f5aec59570151ef9a492f2c624fd45ddde6135ec42336108d7565b50565b7fdf8b4c520ffe197c5343c6f5aec59570151ef9a492f2c624fd45ddde6135ec4281565b600660009054906101000a900473ffffffffffffffffffffffffffffffffffffffff1681565b600160009054906101000a900473ffffffffffffffffffffffffffffffffffffffff1681565b60045481565b6000610ca782600080868152602001908152602001600020600001610f0190919063ffffffff16565b905092915050565b6000610cd882600080868152602001908152602001600020600001610f1b90919063ffffffff16565b905092915050565b600860019054906101000a900460ff1681565b6000801b81565b60055481565b6000610d1f600080848152602001908152602001600020600001610f4b565b9050919050565b7ff0887ba65ee2024ea881d91b74c2450ef19e1557f03bed3ea9f16b037cbe2dc981565b610d7060008084815260200190815260200160002060020154610d6b610dd3565b610caf565b610dc5576040517f08c379a00000000000000000000000000000000000000000000000000000000081526004018080602001828103825260308152602001806112436030913960400191505060405180910390fd5b610dcf8282610e6e565b5050565b600033905090565b610e0281600080858152602001908152602001600020600001610f6090919063ffffffff16565b15610e6a57610e0f610dd3565b73ffffffffffffffffffffffffffffffffffffffff168173ffffffffffffffffffffffffffffffffffffffff16837f2f8788117e7eff1d82e926ec794901d17c78024a50270940304540a733656f0d60405160405180910390a45b5050565b610e9581600080858152602001908152602001600020600001610f9090919063ffffffff16565b15610efd57610ea2610dd3565b73ffffffffffffffffffffffffffffffffffffffff168173ffffffffffffffffffffffffffffffffffffffff16837ff6391f5c32d9c69d2a47ea670b442974b53935d1edc7fd64eb21e047a839171b60405160405180910390a45b5050565b6000610f108360000183610fc0565b60001c905092915050565b6000610f43836000018373ffffffffffffffffffffffffffffffffffffffff1660001b611043565b905092915050565b6000610f5982600001611066565b9050919050565b6000610f88836000018373ffffffffffffffffffffffffffffffffffffffff1660001b611077565b905092915050565b6000610fb8836000018373ffffffffffffffffffffffffffffffffffffffff1660001b6110e7565b905092915050565b600081836000018054905011611021576040517f08c379a00000000000000000000000000000000000000000000000000000000081526004018080602001828103825260228152602001806111d06022913960400191505060405180910390fd5b82600001828154811061103057fe5b9060005260206000200154905092915050565b600080836001016000848152602001908152602001600020541415905092915050565b600081600001805490509050919050565b60006110838383611043565b6110dc5782600001829080600181540180825580915050600190039060005260206000200160009091909190915055826000018054905083600101600084815260200190815260200160002081905550600190506110e1565b600090505b92915050565b600080836001016000848152602001908152602001600020549050600081146111c3576000600182039050600060018660000180549050039050600086600001828154811061113257fe5b906000526020600020015490508087600001848154811061114f57fe5b906000526020600020018190555060018301876001016000838152602001908152602001600020819055508660000180548061118757fe5b600190038181906000526020600020016000905590558660010160008781526020019081526020016000206000905560019450505050506111c9565b60009150505b9291505056fe456e756d657261626c655365743a20696e646578206f7574206f6620626f756e6473416363657373436f6e74726f6c3a2073656e646572206d75737420626520616e2061646d696e20746f206772616e7441636365737369626c653a2043616c6c6572206973206e6f7420616e2061646d696e416363657373436f6e74726f6c3a2073656e646572206d75737420626520616e2061646d696e20746f207265766f6b65416363657373436f6e74726f6c3a2063616e206f6e6c792072656e6f756e636520726f6c657320666f722073656c66a26469706673582212207be3824faa03967935212c76f1a33b0a617a6c45df1080abc97fee8cc43d079364736f6c63430007060033",
  "linkReferences": {},
  "deployedLinkReferences": {}
}