{
  "_format": "hh-sol-artifact-1",
  "contractName": "VaultClaimStorage",
  "sourceName": "contracts/vaults/VaultClaimStorage.sol",
  "abi": [
    {
      "inputs": [
        {
          "internalType": "uint256",
          "name": "",
          "type": "uint256"
        }
      ],
      "name": "claimedTimesOfRoundByCliamer",
      "outputs": [
        {
          "internalType": "uint256",
          "name": "",
          "type": "uint256"
        }
      ],
      "stateMutability": "view",
      "type": "function"
    },
    {
      "inputs": [],
      "name": "claimer",
      "outputs": [
        {
          "internalType": "address",
          "name": "",
          "type": "address"
        }
      ],
      "stateMutability": "view",
      "type": "function"
    },
    {
      "inputs": [],
      "name": "lastClaimedRound",
      "outputs": [
        {
          "internalType": "uint256",
          "name": "",
          "type": "uint256"
        }
      ],
      "stateMutability": "view",
      "type": "function"
    },
    {
      "inputs": [],
      "name": "oneClaimAmountByClaimer",
      "outputs": [
        {
          "internalType": "uint256",
          "name": "",
          "type": "uint256"
        }
      ],
      "stateMutability": "view",
      "type": "function"
    },
    {
      "inputs": [],
      "name": "startedByClaimer",
      "outputs": [
        {
          "internalType": "bool",
          "name": "",
          "type": "bool"
        }
      ],
      "stateMutability": "view",
      "type": "function"
    },
    {
      "inputs": [],
      "name": "totalClaimedCountByClaimer",
      "outputs": [
        {
          "internalType": "uint256",
          "name": "",
          "type": "uint256"
        }
      ],
      "stateMutability": "view",
      "type": "function"
    }
  ],
  "bytecode": "0x608060405234801561001057600080fd5b5061014b806100206000396000f3fe608060405234801561001057600080fd5b50600436106100625760003560e01c806335e8bcd2146100675780633e59df351461008357806385d0a8151461008c578063d379be23146100ac578063e63e18a8146100d7578063f64f4a39146100e0575b600080fd5b61007060025481565b6040519081526020015b60405180910390f35b61007060015481565b61007061009a3660046100fd565b60046020526000908152604090205481565b6000546100bf906001600160a01b031681565b6040516001600160a01b03909116815260200161007a565b61007060035481565b6005546100ed9060ff1681565b604051901515815260200161007a565b60006020828403121561010e578081fd5b503591905056fea26469706673582212201f3ce20c2d66e61db5d71fa99d55de44bb5cfed614b713ee54bcc09a022acb0164736f6c63430008040033",
  "linkReferences": {},
  "deployedLinkReferences": {}
}