{
  "_format": "hh-sol-artifact-1",
  "contractName": "AccessRoleCommon",
  "sourceName": "contracts/common/AccessRoleCommon.sol",
  "abi": [
    {
      "inputs": [],
      "name": "ADMIN_ROLE",
      "outputs": [
        {
          "internalType": "bytes32",
          "name": "",
          "type": "bytes32"
        }
      ],
      "stateMutability": "view",
      "type": "function"
    },
    {
      "inputs": [],
      "name": "BURNER_ROLE",
      "outputs": [
        {
          "internalType": "bytes32",
          "name": "",
          "type": "bytes32"
        }
      ],
      "stateMutability": "view",
      "type": "function"
    },
    {
      "inputs": [],
      "name": "MINTER_ROLE",
      "outputs": [
        {
          "internalType": "bytes32",
          "name": "",
          "type": "bytes32"
        }
      ],
      "stateMutability": "view",
      "type": "function"
    }
  ],
  "bytecode": "0x608060405234801561001057600080fd5b50610142806100206000396000f3fe608060405234801561001057600080fd5b50600436106100415760003560e01c8063282c51f31461004657806375b238fc14610064578063d539139314610082575b600080fd5b61004e6100a0565b6040518082815260200191505060405180910390f35b61006c6100c4565b6040518082815260200191505060405180910390f35b61008a6100e8565b6040518082815260200191505060405180910390f35b7f9667e80708b6eeeb0053fa0cca44e028ff548e2a9f029edfeac87c118b08b7c881565b7fdf8b4c520ffe197c5343c6f5aec59570151ef9a492f2c624fd45ddde6135ec4281565b7ff0887ba65ee2024ea881d91b74c2450ef19e1557f03bed3ea9f16b037cbe2dc98156fea26469706673582212204103a1e34174021c18b7ae8dfd553844c46f5792b3d4cd177e94a35c3d7746a864736f6c63430007060033",
  "linkReferences": {},
  "deployedLinkReferences": {}
}