{
  "_format": "hh-sol-artifact-1",
  "contractName": "ReceiptMock",
  "sourceName": "contracts/mock/ReceiptMock.sol",
  "abi": [
    {
      "constant": true,
      "inputs": [],
      "name": "get",
      "outputs": [
        {
          "internalType": "uint64",
          "name": "status",
          "type": "uint64"
        },
        {
          "internalType": "uint64",
          "name": "cumulativeGasUsed",
          "type": "uint64"
        },
        {
          "internalType": "bytes",
          "name": "bloom",
          "type": "bytes"
        }
      ],
      "payable": false,
      "stateMutability": "view",
      "type": "function"
    },
    {
      "constant": true,
      "inputs": [],
      "name": "receipt",
      "outputs": [
        {
          "internalType": "uint64",
          "name": "status",
          "type": "uint64"
        },
        {
          "internalType": "uint64",
          "name": "cumulativeGasUsed",
          "type": "uint64"
        },
        {
          "internalType": "bytes",
          "name": "bloom",
          "type": "bytes"
        }
      ],
      "payable": false,
      "stateMutability": "view",
      "type": "function"
    },
    {
      "constant": false,
      "inputs": [
        {
          "internalType": "bytes",
          "name": "receiptData",
          "type": "bytes"
        }
      ],
      "name": "set",
      "outputs": [],
      "payable": false,
      "stateMutability": "nonpayable",
      "type": "function"
    },
    {
      "constant": true,
      "inputs": [
        {
          "internalType": "bytes",
          "name": "receiptData",
          "type": "bytes"
        }
      ],
      "name": "toReceiptStatus",
      "outputs": [
        {
          "internalType": "uint256",
          "name": "",
          "type": "uint256"
        }
      ],
      "payable": false,
      "stateMutability": "view",
      "type": "function"
    }
  ],
  "bytecode": "0x608060405234801561001057600080fd5b506109b9806100206000396000f3fe608060405234801561001057600080fd5b506004361061004c5760003560e01c80630399321e14610051578063552b2945146100665780636d4ce63c1461008f578063e1e6b898146100a6575b600080fd5b61006461005f3660046107f0565b6100ae565b005b6100796100743660046107f0565b61013c565b604051610086919061087d565b60405180910390f35b61009761014f565b60405161008693929190610891565b610097610203565b6100b661066a565b6100bf826102b6565b80516000805460208085015167ffffffffffffffff1990921667ffffffffffffffff948516177fffffffffffffffffffffffffffffffff0000000000000000ffffffffffffffff1668010000000000000000949092169390930217905560408201518051929350610137926001929190910190610690565b505050565b60006101478261038b565b90505b919050565b60005460018054604080516020600261010085871615026000190190941693909304601f810184900484028201840190925281815267ffffffffffffffff808616956801000000000000000090041693606093919290918301828280156101f75780601f106101cc576101008083540402835291602001916101f7565b820191906000526020600020905b8154815290600101906020018083116101da57829003601f168201915b50505050509050909192565b6000805460018054604080516020601f60026000198688161561010002019095169490940493840181900481028201810190925282815267ffffffffffffffff8086169668010000000000000000909604169493909290918301828280156102ac5780601f10610281576101008083540402835291602001916102ac565b820191906000526020600020905b81548152906001019060200180831161028f57829003601f168201915b5050505050905083565b6102be61066a565b60606102da60046102ce856103b6565b9063ffffffff6103d916565b90506102f9816000815181106102ec57fe5b6020026020010151610466565b67ffffffffffffffff168252805161031890829060019081106102ec57fe5b67ffffffffffffffff1660208301528051610347908290600290811061033a57fe5b602002602001015161048a565b60408084019190915280516000808252602082019092529061037f565b61036c61070e565b8152602001906001900390816103645790505b50606083015250919050565b6000606061039d60046102ce856103b6565b90506103af816000815181106102ec57fe5b9392505050565b6103be610745565b50805160408051808201909152602092830181529182015290565b60608160405190808252806020026020018201604052801561041557816020015b610402610745565b8152602001906001900390816103fa5790505b50905061042061075f565b610429846104e0565b905060005b8381101561045e5761043f82610505565b83828151811061044b57fe5b602090810291909101015260010161042e565b505092915050565b600080600061047484610537565b90516020919091036101000a9004949350505050565b60208101516060908061049d575061014a565b806040519080825280601f01601f1916602001820160405280156104c8576020820181803883390190505b5091506104da83600001518383610596565b50919050565b6104e861075f565b60006104f3836105d4565b83519383529092016020820152919050565b61050d610745565b6020820151600061051d8261063e565b828452602080850182905292019390910192909252919050565b805180516000918291821a906080821015610559579250600191506105919050565b60b8821015610577576001856020015103925080600101935061058e565b602085015182820160b51901945082900360b60192505b50505b915091565b6020601f820104836020840160005b838110156105c1576020810283810151908301526001016105a5565b5060008551602001860152505050505050565b8051805160009190821a9060808210156105f35760009250505061014a565b60b882108061060e575060c0821015801561060e575060f882105b1561061e5760019250505061014a565b60c0821015610633575060b51901905061014a565b5060f5190192915050565b8051600090811a608081101561065757600191506104da565b60b88110156104da57607e190192915050565b604080516080810182526000808252602082015260609181018290528181019190915290565b828054600181600116156101000203166002900490600052602060002090601f016020900481019282601f106106d157805160ff19168380011785556106fe565b828001600101855582156106fe579182015b828111156106fe5782518255916020019190600101906106e3565b5061070a92915061077f565b5090565b6040518060600160405280600073ffffffffffffffffffffffffffffffffffffffff16815260200160608152602001606081525090565b604051806040016040528060008152602001600081525090565b6040518060400160405280610772610745565b8152602001600081525090565b61079991905b8082111561070a5760008155600101610785565b90565b600082601f8301126107ad57600080fd5b81356107c06107bb826108ee565b6108c7565b915080825260208301602083018583830111156107dc57600080fd5b6107e7838284610930565b50505092915050565b60006020828403121561080257600080fd5b813567ffffffffffffffff81111561081957600080fd5b6108258482850161079c565b949350505050565b600061083882610916565b610842818561091a565b935061085281856020860161093c565b61085b8161096c565b9093019392505050565b61086e81610799565b82525050565b61086e81610923565b6020810161088b8284610865565b92915050565b6060810161089f8286610874565b6108ac6020830185610874565b81810360408301526108be818461082d565b95945050505050565b60405181810167ffffffffffffffff811182821017156108e657600080fd5b604052919050565b600067ffffffffffffffff82111561090557600080fd5b506020601f91909101601f19160190565b5190565b90815260200190565b67ffffffffffffffff1690565b82818337506000910152565b60005b8381101561095757818101518382015260200161093f565b83811115610966576000848401525b50505050565b601f01601f19169056fea365627a7a7231582000c0f65b2911f5aa269c55b43264478838eb5cc399ff4dd0d8bbe476c7d5767e6c6578706572696d656e74616cf564736f6c634300050c0040",
  "linkReferences": {},
  "deployedLinkReferences": {}
}