{
  "_format": "hh-sol-artifact-1",
  "contractName": "WhitelistVault",
  "sourceName": "contracts/vaults/WhitelistVault.sol",
  "abi": [
    {
      "inputs": [
        {
          "internalType": "string",
          "name": "_name",
          "type": "string"
        },
        {
          "internalType": "address",
          "name": "_tos",
          "type": "address"
        },
        {
          "internalType": "uint256",
          "name": "_inputMaxOnce",
          "type": "uint256"
        }
      ],
      "stateMutability": "nonpayable",
      "type": "constructor"
    },
    {
      "anonymous": false,
      "inputs": [
        {
          "indexed": false,
          "internalType": "uint256",
          "name": "round",
          "type": "uint256"
        },
        {
          "indexed": false,
          "internalType": "address[]",
          "name": "users",
          "type": "address[]"
        }
      ],
      "name": "AddedWhitelist",
      "type": "event"
    },
    {
      "anonymous": false,
      "inputs": [
        {
          "indexed": false,
          "internalType": "uint256",
          "name": "round",
          "type": "uint256"
        },
        {
          "indexed": false,
          "internalType": "uint256",
          "name": "amount",
          "type": "uint256"
        }
      ],
      "name": "AllocatedAmount",
      "type": "event"
    },
    {
      "anonymous": false,
      "inputs": [
        {
          "indexed": true,
          "internalType": "address",
          "name": "caller",
          "type": "address"
        },
        {
          "indexed": false,
          "internalType": "uint256",
          "name": "amount",
          "type": "uint256"
        },
        {
          "indexed": false,
          "internalType": "uint256",
          "name": "totalClaimedAmount",
          "type": "uint256"
        }
      ],
      "name": "Claimed",
      "type": "event"
    },
    {
      "anonymous": false,
      "inputs": [
        {
          "indexed": true,
          "internalType": "bytes32",
          "name": "role",
          "type": "bytes32"
        },
        {
          "indexed": true,
          "internalType": "bytes32",
          "name": "previousAdminRole",
          "type": "bytes32"
        },
        {
          "indexed": true,
          "internalType": "bytes32",
          "name": "newAdminRole",
          "type": "bytes32"
        }
      ],
      "name": "RoleAdminChanged",
      "type": "event"
    },
    {
      "anonymous": false,
      "inputs": [
        {
          "indexed": true,
          "internalType": "bytes32",
          "name": "role",
          "type": "bytes32"
        },
        {
          "indexed": true,
          "internalType": "address",
          "name": "account",
          "type": "address"
        },
        {
          "indexed": true,
          "internalType": "address",
          "name": "sender",
          "type": "address"
        }
      ],
      "name": "RoleGranted",
      "type": "event"
    },
    {
      "anonymous": false,
      "inputs": [
        {
          "indexed": true,
          "internalType": "bytes32",
          "name": "role",
          "type": "bytes32"
        },
        {
          "indexed": true,
          "internalType": "address",
          "name": "account",
          "type": "address"
        },
        {
          "indexed": true,
          "internalType": "address",
          "name": "sender",
          "type": "address"
        }
      ],
      "name": "RoleRevoked",
      "type": "event"
    },
    {
      "anonymous": false,
      "inputs": [
        {
          "indexed": false,
          "internalType": "address",
          "name": "newClaimer",
          "type": "address"
        }
      ],
      "name": "SetNewClaimer",
      "type": "event"
    },
    {
      "anonymous": false,
      "inputs": [],
      "name": "Started",
      "type": "event"
    },
    {
      "anonymous": false,
      "inputs": [
        {
          "indexed": false,
          "internalType": "uint256",
          "name": "round",
          "type": "uint256"
        }
      ],
      "name": "StartedRound",
      "type": "event"
    },
    {
      "anonymous": false,
      "inputs": [
        {
          "indexed": true,
          "internalType": "address",
          "name": "caller",
          "type": "address"
        },
        {
          "indexed": false,
          "internalType": "uint256",
          "name": "amount",
          "type": "uint256"
        }
      ],
      "name": "Withdrawal",
      "type": "event"
    },
    {
      "inputs": [],
      "name": "ADMIN_ROLE",
      "outputs": [
        {
          "internalType": "bytes32",
          "name": "",
          "type": "bytes32"
        }
      ],
      "stateMutability": "view",
      "type": "function"
    },
    {
      "inputs": [],
      "name": "BURNER_ROLE",
      "outputs": [
        {
          "internalType": "bytes32",
          "name": "",
          "type": "bytes32"
        }
      ],
      "stateMutability": "view",
      "type": "function"
    },
    {
      "inputs": [],
      "name": "DEFAULT_ADMIN_ROLE",
      "outputs": [
        {
          "internalType": "bytes32",
          "name": "",
          "type": "bytes32"
        }
      ],
      "stateMutability": "view",
      "type": "function"
    },
    {
      "inputs": [],
      "name": "MINTER_ROLE",
      "outputs": [
        {
          "internalType": "bytes32",
          "name": "",
          "type": "bytes32"
        }
      ],
      "stateMutability": "view",
      "type": "function"
    },
    {
      "inputs": [
        {
          "internalType": "address",
          "name": "account",
          "type": "address"
        }
      ],
      "name": "addAdmin",
      "outputs": [],
      "stateMutability": "nonpayable",
      "type": "function"
    },
    {
      "inputs": [
        {
          "internalType": "uint256",
          "name": "round",
          "type": "uint256"
        },
        {
          "internalType": "address[]",
          "name": "users",
          "type": "address[]"
        }
      ],
      "name": "addWhitelist",
      "outputs": [],
      "stateMutability": "nonpayable",
      "type": "function"
    },
    {
      "inputs": [
        {
          "internalType": "uint256",
          "name": "amount",
          "type": "uint256"
        }
      ],
      "name": "allocateAmountTGE",
      "outputs": [],
      "stateMutability": "nonpayable",
      "type": "function"
    },
    {
      "inputs": [],
      "name": "allocatedAmountForRound",
      "outputs": [
        {
          "internalType": "uint256",
          "name": "",
          "type": "uint256"
        }
      ],
      "stateMutability": "view",
      "type": "function"
    },
    {
      "inputs": [],
      "name": "availableWithdrawAmount",
      "outputs": [
        {
          "internalType": "uint256",
          "name": "amount",
          "type": "uint256"
        }
      ],
      "stateMutability": "view",
      "type": "function"
    },
    {
      "inputs": [],
      "name": "claim",
      "outputs": [],
      "stateMutability": "nonpayable",
      "type": "function"
    },
    {
      "inputs": [],
      "name": "currentRound",
      "outputs": [
        {
          "internalType": "uint256",
          "name": "round",
          "type": "uint256"
        }
      ],
      "stateMutability": "view",
      "type": "function"
    },
    {
      "inputs": [],
      "name": "endTime",
      "outputs": [
        {
          "internalType": "uint256",
          "name": "",
          "type": "uint256"
        }
      ],
      "stateMutability": "view",
      "type": "function"
    },
    {
      "inputs": [
        {
          "internalType": "bytes32",
          "name": "role",
          "type": "bytes32"
        }
      ],
      "name": "getRoleAdmin",
      "outputs": [
        {
          "internalType": "bytes32",
          "name": "",
          "type": "bytes32"
        }
      ],
      "stateMutability": "view",
      "type": "function"
    },
    {
      "inputs": [
        {
          "internalType": "uint256",
          "name": "round",
          "type": "uint256"
        }
      ],
      "name": "getTgeInfos",
      "outputs": [
        {
          "internalType": "bool",
          "name": "allocated",
          "type": "bool"
        },
        {
          "internalType": "bool",
          "name": "started",
          "type": "bool"
        },
        {
          "internalType": "uint256",
          "name": "allocatedAmount",
          "type": "uint256"
        },
        {
          "internalType": "uint256",
          "name": "claimedCount",
          "type": "uint256"
        },
        {
          "internalType": "uint256",
          "name": "amount",
          "type": "uint256"
        },
        {
          "internalType": "address[]",
          "name": "whitelist",
          "type": "address[]"
        }
      ],
      "stateMutability": "view",
      "type": "function"
    },
    {
      "inputs": [
        {
          "internalType": "uint256",
          "name": "round",
          "type": "uint256"
        },
        {
          "internalType": "address",
          "name": "user",
          "type": "address"
        }
      ],
      "name": "getWhitelistInfo",
      "outputs": [
        {
          "internalType": "bool",
          "name": "joined",
          "type": "bool"
        },
        {
          "internalType": "uint256",
          "name": "claimedTime",
          "type": "uint256"
        }
      ],
      "stateMutability": "view",
      "type": "function"
    },
    {
      "inputs": [
        {
          "internalType": "bytes32",
          "name": "role",
          "type": "bytes32"
        },
        {
          "internalType": "address",
          "name": "account",
          "type": "address"
        }
      ],
      "name": "grantRole",
      "outputs": [],
      "stateMutability": "nonpayable",
      "type": "function"
    },
    {
      "inputs": [
        {
          "internalType": "bytes32",
          "name": "role",
          "type": "bytes32"
        },
        {
          "internalType": "address",
          "name": "account",
          "type": "address"
        }
      ],
      "name": "hasRole",
      "outputs": [
        {
          "internalType": "bool",
          "name": "",
          "type": "bool"
        }
      ],
      "stateMutability": "view",
      "type": "function"
    },
    {
      "inputs": [
        {
          "internalType": "uint256",
          "name": "_totalAllocatedAmount",
          "type": "uint256"
        },
        {
          "internalType": "uint256",
          "name": "_totalTgeCount",
          "type": "uint256"
        },
        {
          "internalType": "uint256",
          "name": "_startTime",
          "type": "uint256"
        },
        {
          "internalType": "uint256",
          "name": "_periodTimesPerClaim",
          "type": "uint256"
        }
      ],
      "name": "initialize",
      "outputs": [],
      "stateMutability": "nonpayable",
      "type": "function"
    },
    {
      "inputs": [
        {
          "internalType": "uint256",
          "name": "_totalAllocatedAmount",
          "type": "uint256"
        },
        {
          "internalType": "uint256",
          "name": "_totalClaims",
          "type": "uint256"
        },
        {
          "internalType": "uint256",
          "name": "_totalTgeCount",
          "type": "uint256"
        },
        {
          "internalType": "uint256",
          "name": "_startTime",
          "type": "uint256"
        },
        {
          "internalType": "uint256",
          "name": "_periodTimesPerClaim",
          "type": "uint256"
        }
      ],
      "name": "initializeBase",
      "outputs": [],
      "stateMutability": "nonpayable",
      "type": "function"
    },
    {
      "inputs": [
        {
          "internalType": "address",
          "name": "account",
          "type": "address"
        }
      ],
      "name": "isAdmin",
      "outputs": [
        {
          "internalType": "bool",
          "name": "",
          "type": "bool"
        }
      ],
      "stateMutability": "view",
      "type": "function"
    },
    {
      "inputs": [],
      "name": "lastClaimedRound",
      "outputs": [
        {
          "internalType": "uint256",
          "name": "",
          "type": "uint256"
        }
      ],
      "stateMutability": "view",
      "type": "function"
    },
    {
      "inputs": [],
      "name": "maxInputOnceTime",
      "outputs": [
        {
          "internalType": "uint256",
          "name": "",
          "type": "uint256"
        }
      ],
      "stateMutability": "view",
      "type": "function"
    },
    {
      "inputs": [],
      "name": "name",
      "outputs": [
        {
          "internalType": "string",
          "name": "",
          "type": "string"
        }
      ],
      "stateMutability": "view",
      "type": "function"
    },
    {
      "inputs": [],
      "name": "periodTimesPerClaim",
      "outputs": [
        {
          "internalType": "uint256",
          "name": "",
          "type": "uint256"
        }
      ],
      "stateMutability": "view",
      "type": "function"
    },
    {
      "inputs": [
        {
          "internalType": "address",
          "name": "account",
          "type": "address"
        }
      ],
      "name": "removeAdmin",
      "outputs": [],
      "stateMutability": "nonpayable",
      "type": "function"
    },
    {
      "inputs": [
        {
          "internalType": "bytes32",
          "name": "role",
          "type": "bytes32"
        },
        {
          "internalType": "address",
          "name": "account",
          "type": "address"
        }
      ],
      "name": "renounceRole",
      "outputs": [],
      "stateMutability": "nonpayable",
      "type": "function"
    },
    {
      "inputs": [
        {
          "internalType": "bytes32",
          "name": "role",
          "type": "bytes32"
        },
        {
          "internalType": "address",
          "name": "account",
          "type": "address"
        }
      ],
      "name": "revokeRole",
      "outputs": [],
      "stateMutability": "nonpayable",
      "type": "function"
    },
    {
      "inputs": [
        {
          "internalType": "uint256",
          "name": "_maxInputOnceTime",
          "type": "uint256"
        }
      ],
      "name": "setMaxInputOnceTimeWhitelist",
      "outputs": [],
      "stateMutability": "nonpayable",
      "type": "function"
    },
    {
      "inputs": [],
      "name": "startRound",
      "outputs": [],
      "stateMutability": "nonpayable",
      "type": "function"
    },
    {
      "inputs": [
        {
          "internalType": "uint256",
          "name": "round",
          "type": "uint256"
        }
      ],
      "name": "startRoundTime",
      "outputs": [
        {
          "internalType": "uint256",
          "name": "start",
          "type": "uint256"
        }
      ],
      "stateMutability": "view",
      "type": "function"
    },
    {
      "inputs": [],
      "name": "startTime",
      "outputs": [
        {
          "internalType": "uint256",
          "name": "",
          "type": "uint256"
        }
      ],
      "stateMutability": "view",
      "type": "function"
    },
    {
      "inputs": [
        {
          "internalType": "bytes4",
          "name": "interfaceId",
          "type": "bytes4"
        }
      ],
      "name": "supportsInterface",
      "outputs": [
        {
          "internalType": "bool",
          "name": "",
          "type": "bool"
        }
      ],
      "stateMutability": "view",
      "type": "function"
    },
    {
      "inputs": [
        {
          "internalType": "uint256",
          "name": "",
          "type": "uint256"
        }
      ],
      "name": "tgeInfos",
      "outputs": [
        {
          "internalType": "bool",
          "name": "allocated",
          "type": "bool"
        },
        {
          "internalType": "bool",
          "name": "started",
          "type": "bool"
        },
        {
          "internalType": "uint256",
          "name": "allocatedAmount",
          "type": "uint256"
        },
        {
          "internalType": "uint256",
          "name": "claimedCount",
          "type": "uint256"
        },
        {
          "internalType": "uint256",
          "name": "amount",
          "type": "uint256"
        }
      ],
      "stateMutability": "view",
      "type": "function"
    },
    {
      "inputs": [],
      "name": "tos",
      "outputs": [
        {
          "internalType": "address",
          "name": "",
          "type": "address"
        }
      ],
      "stateMutability": "view",
      "type": "function"
    },
    {
      "inputs": [],
      "name": "totalAllocatedAmount",
      "outputs": [
        {
          "internalType": "uint256",
          "name": "",
          "type": "uint256"
        }
      ],
      "stateMutability": "view",
      "type": "function"
    },
    {
      "inputs": [],
      "name": "totalClaimedAmount",
      "outputs": [
        {
          "internalType": "uint256",
          "name": "",
          "type": "uint256"
        }
      ],
      "stateMutability": "view",
      "type": "function"
    },
    {
      "inputs": [],
      "name": "totalClaims",
      "outputs": [
        {
          "internalType": "uint256",
          "name": "",
          "type": "uint256"
        }
      ],
      "stateMutability": "view",
      "type": "function"
    },
    {
      "inputs": [],
      "name": "totalTgeAmount",
      "outputs": [
        {
          "internalType": "uint256",
          "name": "",
          "type": "uint256"
        }
      ],
      "stateMutability": "view",
      "type": "function"
    },
    {
      "inputs": [],
      "name": "totalTgeCount",
      "outputs": [
        {
          "internalType": "uint256",
          "name": "",
          "type": "uint256"
        }
      ],
      "stateMutability": "view",
      "type": "function"
    },
    {
      "inputs": [
        {
          "internalType": "uint256",
          "name": "round",
          "type": "uint256"
        }
      ],
      "name": "totalWhitelist",
      "outputs": [
        {
          "internalType": "uint256",
          "name": "total",
          "type": "uint256"
        }
      ],
      "stateMutability": "view",
      "type": "function"
    },
    {
      "inputs": [
        {
          "internalType": "address",
          "name": "newAdmin",
          "type": "address"
        }
      ],
      "name": "transferAdmin",
      "outputs": [],
      "stateMutability": "nonpayable",
      "type": "function"
    },
    {
      "inputs": [
        {
          "internalType": "address",
          "name": "_user",
          "type": "address"
        }
      ],
      "name": "unclaimedInfos",
      "outputs": [
        {
          "internalType": "uint256",
          "name": "count",
          "type": "uint256"
        },
        {
          "internalType": "uint256",
          "name": "amount",
          "type": "uint256"
        }
      ],
      "stateMutability": "view",
      "type": "function"
    },
    {
      "inputs": [
        {
          "internalType": "address",
          "name": "_user",
          "type": "address"
        }
      ],
      "name": "unclaimedInfosDetails",
      "outputs": [
        {
          "internalType": "uint256[]",
          "name": "_rounds",
          "type": "uint256[]"
        },
        {
          "internalType": "uint256[]",
          "name": "_amounts",
          "type": "uint256[]"
        }
      ],
      "stateMutability": "view",
      "type": "function"
    },
    {
      "inputs": [
        {
          "internalType": "address",
          "name": "",
          "type": "address"
        }
      ],
      "name": "userClaimedAmount",
      "outputs": [
        {
          "internalType": "uint256",
          "name": "",
          "type": "uint256"
        }
      ],
      "stateMutability": "view",
      "type": "function"
    },
    {
      "inputs": [
        {
          "internalType": "address",
          "name": "to",
          "type": "address"
        }
      ],
      "name": "withdraw",
      "outputs": [],
      "stateMutability": "nonpayable",
      "type": "function"
    }
  ],
  "bytecode": "0x60806040523480156200001157600080fd5b5060405162002dd838038062002dd8833981016040819052620000349162000274565b825162000049906001906020860190620001b1565b50600280546001600160a01b0319166001600160a01b03841617905560008190556200008560008051602062002db883398151915280620000a9565b620000a060008051602062002db883398151915233620000fd565b505050620003bb565b6000828152600d6020526040902060010154819060405184907fbd79b86ffe0ab8e8776151514217cd7cacd52c909f66475c3af44e129f0b00ff90600090a46000918252600d602052604090912060010155565b6200010982826200010d565b5050565b6000828152600d602090815260408083206001600160a01b038516845290915290205460ff1662000109576000828152600d602090815260408083206001600160a01b03851684529091529020805460ff191660011790556200016d3390565b6001600160a01b0316816001600160a01b0316837f2f8788117e7eff1d82e926ec794901d17c78024a50270940304540a733656f0d60405160405180910390a45050565b828054620001bf9062000368565b90600052602060002090601f016020900481019282620001e357600085556200022e565b82601f10620001fe57805160ff19168380011785556200022e565b828001600101855582156200022e579182015b828111156200022e57825182559160200191906001019062000211565b506200023c92915062000240565b5090565b5b808211156200023c576000815560010162000241565b80516001600160a01b03811681146200026f57600080fd5b919050565b60008060006060848603121562000289578283fd5b83516001600160401b0380821115620002a0578485fd5b818601915086601f830112620002b4578485fd5b815181811115620002c957620002c9620003a5565b604051601f8201601f19908116603f01168101908382118183101715620002f457620002f4620003a5565b8160405282815260209350898484870101111562000310578788fd5b8791505b8282101562000333578482018401518183018501529083019062000314565b828211156200034457878484830101525b96506200035691505086820162000257565b93505050604084015190509250925092565b600181811c908216806200037d57607f821691505b602082108114156200039f57634e487b7160e01b600052602260045260246000fd5b50919050565b634e487b7160e01b600052604160045260246000fd5b6129ed80620003cb6000396000f3fe608060405234801561001057600080fd5b506004361061027f5760003560e01c806360a2da441161015c5780638aa1e44e116100ce578063cb1b782f11610087578063cb1b782f146105b7578063d5391393146105e1578063d547741f14610608578063d81fb3871461061b578063d99347191461062e578063dded14781461063757600080fd5b80638aa1e44e1461055a5780638fcb7d8c1461056d57806391d14854146105805780639661cb0d14610593578063a217fddf1461059c578063ab4eb57e146105a457600080fd5b806375b238fc1161012057806375b238fc146104ed57806378e9792514610502578063814f26fc1461050b578063875d741d1461051457806389f395de146105275780638a19c8bc1461055257600080fd5b806360a2da441461049957806361202e3b146104ac57806370480275146104b4578063717048ec146104c757806375829def146104da57600080fd5b806336568abe116101f55780634e71d92d116101b95780634e71d92d1461043f578063517da7191461044757806351cff8d91461046c578063556400081461047f57806355e3f086146104885780635913ec191461049057600080fd5b806336568abe146104085780633e59df351461041b5780633ef1a1aa146104245780634117cfb71461042d57806341c613831461043657600080fd5b8063248a9ca311610247578063248a9ca31461036157806324d7806c14610392578063282c51f3146103a55780632f2ff15d146103cc5780632f926723146103df5780633197cbb6146103ff57600080fd5b806301ffc9a71461028457806306fdde03146102ac578063166cf32c146102c15780631785f53c1461032b5780631925b54b14610340575b600080fd5b61029761029236600461246c565b61065f565b60405190151581526020015b60405180910390f35b6102b4610696565b6040516102a391906126f6565b6103016102cf366004612429565b600b60205260009081526040902080546001820154600283015460039093015460ff8084169461010090940416929085565b6040805195151586529315156020860152928401919091526060830152608082015260a0016102a3565b61033e6103393660046123ef565b610724565b005b61035361034e3660046123ef565b61076d565b6040516102a3929190612652565b61038461036f366004612429565b6000908152600d602052604090206001015490565b6040519081526020016102a3565b6102976103a03660046123ef565b610950565b6103847f9667e80708b6eeeb0053fa0cca44e028ff548e2a9f029edfeac87c118b08b7c881565b61033e6103da366004612441565b61096a565b6103846103ed3660046123ef565b600c6020526000908152604090205481565b61038460065481565b61033e610416366004612441565b610995565b610384600f5481565b61038460005481565b610384600e5481565b61038460085481565b61033e610a13565b61045a610455366004612429565b610cde565b6040516102a396959493929190612680565b61033e61047a3660046123ef565b610dd9565b61038460035481565b61033e610fc7565b61038460075481565b61033e6104a7366004612538565b611200565b610384611238565b61033e6104c23660046123ef565b611328565b6103846104d5366004612429565b611365565b61033e6104e83660046123ef565b6113c3565b61038460008051602061299883398151915281565b61038460055481565b610384600a5481565b61033e610522366004612429565b6114c0565b60025461053a906001600160a01b031681565b6040516001600160a01b0390911681526020016102a3565b61038461155a565b61033e6105683660046124be565b611598565b61038461057b366004612429565b6118b1565b61029761058e366004612441565b6118f3565b61038460045481565b610384600081565b61033e6105b2366004612569565b61191e565b6105ca6105c53660046124ac565b611b26565b6040805192151583526020830191909152016102a3565b6103847ff0887ba65ee2024ea881d91b74c2450ef19e1557f03bed3ea9f16b037cbe2dc981565b61033e610616366004612441565b611bd9565b61033e610629366004612429565b611bff565b61038460095481565b61064a6106453660046123ef565b611dd4565b604080519283526020830191909152016102a3565b60006001600160e01b03198216637965db0b60e01b148061069057506301ffc9a760e01b6001600160e01b03198316145b92915050565b600180546106a39061292b565b80601f01602080910402602001604051908101604052809291908181526020018280546106cf9061292b565b801561071c5780601f106106f15761010080835404028352916020019161071c565b820191906000526020600020905b8154815290600101906020018083116106ff57829003601f168201915b505050505081565b61072d33610950565b6107525760405162461bcd60e51b815260040161074990612729565b60405180910390fd5b61076a60008051602061299883398151915282610995565b50565b606080600061077b84611dd4565b50905060008167ffffffffffffffff8111156107a757634e487b7160e01b600052604160045260246000fd5b6040519080825280602002602001820160405280156107d0578160200160208202803683370190505b50905060008267ffffffffffffffff8111156107fc57634e487b7160e01b600052604160045260246000fd5b604051908082528060200260200182016040528015610825578160200160208202803683370190505b509050821561094557600060055442111561094357600061084461155a565b905060015b8181116109405780821061092e576000818152600b602052604090208054610100900460ff16801561089557506001600160a01b038a16600090815260058201602052604090205460ff165b80156108bc57506001600160a01b038a166000908152600582016020526040902060010154155b1561092c57818685815181106108e257634e487b7160e01b600052603260045260246000fd5b602002602001018181525050806003015485858151811061091357634e487b7160e01b600052603260045260246000fd5b60209081029190910101528361092881612966565b9450505b505b8061093881612966565b915050610849565b50505b505b909590945092505050565b6000610690600080516020612998833981519152836118f3565b6000828152600d60205260409020600101546109868133611ea6565b6109908383611f0a565b505050565b6001600160a01b0381163314610a055760405162461bcd60e51b815260206004820152602f60248201527f416363657373436f6e74726f6c3a2063616e206f6e6c792072656e6f756e636560448201526e103937b632b9903337b91039b2b63360891b6064820152608401610749565b610a0f8282611f90565b5050565b60006005544211610a665760405162461bcd60e51b815260206004820152601f60248201527f57686974656c6973745661756c743a206e6f74207374617274656420796574006044820152606401610749565b6000610a7061155a565b905060015b818111610b2e57808210610b1c576000818152600b602052604090208054610100900460ff168015610ab8575033600090815260058201602052604090205460ff165b8015610ad65750336000908152600582016020526040902060010154155b15610b1a5733600090815260058201602052604081204260019091015560028201805491610b0383612966565b90915550506003810154610b17908561287a565b93505b505b80610b2681612966565b915050610a75565b5060008211610b8b5760405162461bcd60e51b815260206004820152602360248201527f57686974656c6973745661756c743a206e6f20636c61696d61626c6520616d6f6044820152621d5b9d60ea1b6064820152608401610749565b8160046000828254610b9d919061287a565b9091555050336000908152600c602052604081208054849290610bc190849061287a565b909155505060025460405163a9059cbb60e01b8152336004820152602481018490526001600160a01b039091169063a9059cbb90604401602060405180830381600087803b158015610c1257600080fd5b505af1158015610c26573d6000803e3d6000fd5b505050506040513d601f19601f82011682018060405250810190610c4a9190612409565b610c965760405162461bcd60e51b815260206004820152601d60248201527f57686974656c6973745661756c743a207472616e73666572206661696c0000006044820152606401610749565b60045460405133917f987d620f307ff6b94d58743cb7a7509f24071586a77759b77c2d4e29f75a2f9a91610cd291868252602082015260400190565b60405180910390a25050565b600080600080600060608660008111610d095760405162461bcd60e51b81526004016107499061276b565b87600954811115610d2c5760405162461bcd60e51b8152600401610749906127e3565b6000898152600b60209081526040918290208054600182015460028301546003840154600485018054885181890281018901909952808952959760ff80871698610100909704169694959394929391929091839190830182828015610dba57602002820191906000526020600020905b81546001600160a01b03168152600190910190602001808311610d9c575b5050505050905098509850985098509850985050505091939550919395565b610de233610950565b610dfe5760405162461bcd60e51b815260040161074990612729565b806001600160a01b038116610e555760405162461bcd60e51b815260206004820152601e60248201527f426173655661756c7453746f726167653a207a65726f206164647265737300006044820152606401610749565b6000610e5f611238565b905060008111610ebb5760405162461bcd60e51b815260206004820152602160248201527f426173655661756c743a206e6f20776974686472617761626c6520616d6f756e6044820152601d60fa1b6064820152608401610749565b60025460405163a9059cbb60e01b81526001600160a01b038581166004830152602482018490529091169063a9059cbb90604401602060405180830381600087803b158015610f0957600080fd5b505af1158015610f1d573d6000803e3d6000fd5b505050506040513d601f19601f82011682018060405250810190610f419190612409565b610f8d5760405162461bcd60e51b815260206004820152601860248201527f426173655661756c743a207472616e73666572206661696c00000000000000006044820152606401610749565b60405181815233907f7fcf532c15f0a6db0bd6d0e038bea71d30d808c7d98cb3bf7268a95bf5081b659060200160405180910390a2505050565b610fd033610950565b610fec5760405162461bcd60e51b815260040161074990612729565b6009546000811161100f5760405162461bcd60e51b81526004016107499061276b565b600061101961155a565b905060008111801561102d57506009548111155b6110795760405162461bcd60e51b815260206004820152601f60248201527f57686974656c6973745661756c743a206e6f6e2d76616c696420726f756e64006044820152606401610749565b600181111561108b5761108b81611ff7565b6000818152600b60205260409020805460ff1680156110ae575060008160010154115b6110fa5760405162461bcd60e51b815260206004820152601c60248201527f57686974656c6973745661756c743a206e6f20616c6c6f6361746564000000006044820152606401610749565b8054610100900460ff16156111515760405162461bcd60e51b815260206004820152601f60248201527f57686974656c6973745661756c743a20616c72656164792073746172746564006044820152606401610749565b60048101546111a25760405162461bcd60e51b815260206004820152601c60248201527f57686974656c6973745661756c743a206e6f2077686974656c697374000000006044820152606401610749565b805461ff001916610100178155600481015460018201546111c39190612892565b60038201556040518281527f0ab582f1afc29efbd503feb5b4a945175eee54010e1be75f88d3e0a865f1631f9060200160405180910390a1505050565b61120933610950565b6112255760405162461bcd60e51b815260040161074990612729565b611232848485858561191e565b50505050565b6002546040516370a0823160e01b815230600482015260009182916001600160a01b03909116906370a082319060240160206040518083038186803b15801561128057600080fd5b505afa158015611294573d6000803e3d6000fd5b505050506040513d601f19601f820116820180604052508101906112b89190612494565b905060006004546003546112cc91906128d1565b9050808210156113175760405162461bcd60e51b815260206004820152601660248201527510985cd955985d5b1d0e881a5b9cdd59999a58d95b9d60521b6044820152606401610749565b61132181836128d1565b9250505090565b61133133610950565b61134d5760405162461bcd60e51b815260040161074990612729565b61076a6000805160206129988339815191528261096a565b600081600081116113885760405162461bcd60e51b81526004016107499061276b565b826009548111156113ab5760405162461bcd60e51b8152600401610749906127e3565b5050506000908152600b602052604090206004015490565b6113cc33610950565b6113e85760405162461bcd60e51b815260040161074990612729565b6001600160a01b03811661143e5760405162461bcd60e51b815260206004820152601860248201527f41636365737369626c653a207a65726f206164647265737300000000000000006044820152606401610749565b336001600160a01b03821614156114905760405162461bcd60e51b815260206004820152601660248201527520b1b1b2b9b9b4b136329d1039b0b6b29030b236b4b760511b6044820152606401610749565b6114a86000805160206129988339815191528261096a565b61076a60008051602061299883398151915233610995565b6114c933610950565b6114e55760405162461bcd60e51b815260040161074990612729565b80600081116115065760405162461bcd60e51b81526004016107499061276b565b60005482808214156115525760405162461bcd60e51b8152602060048201526015602482015274426173655661756c743a2073616d652076616c756560581b6044820152606401610749565b505050600055565b600060055442101561156c5750600090565b60075460055461157c90426128d1565b6115869190612892565b90508061159281612966565b91505090565b6115a133610950565b6115bd5760405162461bcd60e51b815260040161074990612729565b82600081116115de5760405162461bcd60e51b81526004016107499061276b565b836009548111156116015760405162461bcd60e51b8152600401610749906127e3565b82801580159061161357506000548111155b6116715760405162461bcd60e51b815260206004820152602960248201527f426173655661756c743a20636865636b20696e70757420636f756e74206174206044820152686f6e63652074696d6560b81b6064820152608401610749565b6000868152600b602052604090208054610100900460ff16156116d65760405162461bcd60e51b815260206004820152601a60248201527f426173655661756c743a20616c726561647920737461727465640000000000006044820152606401610749565b60005b8581101561186c57600087878381811061170357634e487b7160e01b600052603260045260246000fd5b905060200201602081019061171891906123ef565b6001600160a01b031614158015611784575081600501600088888481811061175057634e487b7160e01b600052603260045260246000fd5b905060200201602081019061176591906123ef565b6001600160a01b0316815260208101919091526040016000205460ff16155b1561185a5760018260050160008989858181106117b157634e487b7160e01b600052603260045260246000fd5b90506020020160208101906117c691906123ef565b6001600160a01b031681526020810191909152604001600020805460ff19169115159190911790556004820187878381811061181257634e487b7160e01b600052603260045260246000fd5b905060200201602081019061182791906123ef565b81546001810183556000928352602090922090910180546001600160a01b0319166001600160a01b039092169190911790555b8061186481612966565b9150506116d9565b507f9c9ea5277c31b2732c1577550098533c5c80dda4ee8728a4f235421651856e968787876040516118a093929190612824565b60405180910390a150505050505050565b600080821180156118c457506009548211155b156118ee576118d46001836128d1565b6007546118e191906128b2565b600554610690919061287a565b919050565b6000918252600d602090815260408084206001600160a01b0393909316845291905290205460ff1690565b61192733610950565b6119435760405162461bcd60e51b815260040161074990612729565b84600081116119645760405162461bcd60e51b81526004016107499061276b565b84600081116119855760405162461bcd60e51b81526004016107499061276b565b83600081116119a65760405162461bcd60e51b81526004016107499061276b565b83600081116119c75760405162461bcd60e51b81526004016107499061276b565b6002546040516370a0823160e01b81523060048201528a916001600160a01b0316906370a082319060240160206040518083038186803b158015611a0a57600080fd5b505afa158015611a1e573d6000803e3d6000fd5b505050506040513d601f19601f82011682018060405250810190611a429190612494565b1015611a9b5760405162461bcd60e51b815260206004820152602260248201527f426173655661756c743a2062616c616e63654f6620697320696e7375666669656044820152611b9d60f21b6064820152608401610749565b60035415611aeb5760405162461bcd60e51b815260206004820152601e60248201527f426173655661756c743a20616c726561647920696e697469616c697a656400006044820152606401610749565b60038990556008889055600987905560058690556007859055611b0e88866128b2565b611b18908761287a565b600655505050505050505050565b6000808360008111611b4a5760405162461bcd60e51b81526004016107499061276b565b84600954811115611b6d5760405162461bcd60e51b8152600401610749906127e3565b6000868152600b602090815260408083206001600160a01b0389168452600581019092529091205460ff1615611bce576001600160a01b0386166000908152600590910160205260409020805460019091015460ff90911694509250611bd0565b505b50509250929050565b6000828152600d6020526040902060010154611bf58133611ea6565b6109908383611f90565b611c0833610950565b611c245760405162461bcd60e51b815260040161074990612729565b8060008111611c455760405162461bcd60e51b81526004016107499061276b565b6001600954811115611c695760405162461bcd60e51b8152600401610749906127e3565b60035483600a54611c7a919061287a565b1115611cde5760405162461bcd60e51b815260206004820152602d60248201527f57686974656c6973745661756c743a2065786365656420746f74616c20616c6c60448201526c1bd8d85d195908185b5bdd5b9d609a1b6064820152608401610749565b60016000819052600b6020527f72c6bfb7988af3a1efa6568f02a999bc52252641c659d85961ca3d372b57d5cf805460ff1615611d2d5760405162461bcd60e51b8152600401610749906127a2565b805460ff1916600190811782558101859055600a8054869190600090611d5490849061287a565b9091555050600f82905560095460011015611d94576001600954611d7891906128d1565b85600354611d8691906128d1565b611d909190612892565b600e555b60408051838152602081018790527f3fd8c003d3212e0132457c2c9a85802b483554aec663e60ee92100df71c15f16910160405180910390a15050505050565b6005546000908190421115611ea1576000611ded61155a565b905060015b818111611e9e57808210611e8c576000818152600b602052604090208054610100900460ff168015611e3e57506001600160a01b038616600090815260058201602052604090205460ff165b8015611e6557506001600160a01b0386166000908152600582016020526040902060010154155b15611e8a5784611e7481612966565b955050806003015484611e87919061287a565b93505b505b80611e9681612966565b915050611df2565b50505b915091565b611eb082826118f3565b610a0f57611ec8816001600160a01b031660146121ef565b611ed38360206121ef565b604051602001611ee49291906125dd565b60408051601f198184030181529082905262461bcd60e51b8252610749916004016126f6565b611f1482826118f3565b610a0f576000828152600d602090815260408083206001600160a01b03851684529091529020805460ff19166001179055611f4c3390565b6001600160a01b0316816001600160a01b0316837f2f8788117e7eff1d82e926ec794901d17c78024a50270940304540a733656f0d60405160405180910390a45050565b611f9a82826118f3565b15610a0f576000828152600d602090815260408083206001600160a01b0385168085529252808320805460ff1916905551339285917ff6391f5c32d9c69d2a47ea670b442974b53935d1edc7fd64eb21e047a839171b9190a45050565b600f546000811161201a5760405162461bcd60e51b81526004016107499061276b565b600e546000811161203d5760405162461bcd60e51b81526004016107499061276b565b60018311801561204f57506009548311155b6120a65760405162461bcd60e51b815260206004820152602260248201527f57686974656c6973745661756c743a206e6f20617661696c61626c6520726f756044820152611b9960f21b6064820152608401610749565b6000600754600554426120b991906128d1565b6120c39190612892565b90506120d081600161287a565b841461212e5760405162461bcd60e51b815260206004820152602760248201527f57686974656c6973745661756c743a206e6f2063757272656e7420726f756e64604482015266081c195c9a5bd960ca1b6064820152608401610749565b6000848152600b60205260409020805460ff161561215e5760405162461bcd60e51b8152600401610749906127a2565b6000600e54600f548761217191906128d1565b61217b91906128b2565b825460ff1916600190811784558301819055600a805491925082916000906121a490849061287a565b9091555050600f86905560408051878152602081018390527f3fd8c003d3212e0132457c2c9a85802b483554aec663e60ee92100df71c15f16910160405180910390a1505050505050565b606060006121fe8360026128b2565b61220990600261287a565b67ffffffffffffffff81111561222f57634e487b7160e01b600052604160045260246000fd5b6040519080825280601f01601f191660200182016040528015612259576020820181803683370190505b509050600360fc1b8160008151811061228257634e487b7160e01b600052603260045260246000fd5b60200101906001600160f81b031916908160001a905350600f60fb1b816001815181106122bf57634e487b7160e01b600052603260045260246000fd5b60200101906001600160f81b031916908160001a90535060006122e38460026128b2565b6122ee90600161287a565b90505b6001811115612382576f181899199a1a9b1b9c1cb0b131b232b360811b85600f166010811061233057634e487b7160e01b600052603260045260246000fd5b1a60f81b82828151811061235457634e487b7160e01b600052603260045260246000fd5b60200101906001600160f81b031916908160001a90535060049490941c9361237b81612914565b90506122f1565b5083156123d15760405162461bcd60e51b815260206004820181905260248201527f537472696e67733a20686578206c656e67746820696e73756666696369656e746044820152606401610749565b9392505050565b80356001600160a01b03811681146118ee57600080fd5b600060208284031215612400578081fd5b6123d1826123d8565b60006020828403121561241a578081fd5b815180151581146123d1578182fd5b60006020828403121561243a578081fd5b5035919050565b60008060408385031215612453578081fd5b82359150612463602084016123d8565b90509250929050565b60006020828403121561247d578081fd5b81356001600160e01b0319811681146123d1578182fd5b6000602082840312156124a5578081fd5b5051919050565b60008060408385031215612453578182fd5b6000806000604084860312156124d2578081fd5b83359250602084013567ffffffffffffffff808211156124f0578283fd5b818601915086601f830112612503578283fd5b813581811115612511578384fd5b8760208260051b8501011115612525578384fd5b6020830194508093505050509250925092565b6000806000806080858703121561254d578081fd5b5050823594602084013594506040840135936060013592509050565b600080600080600060a08688031215612580578081fd5b505083359560208501359550604085013594606081013594506080013592509050565b6000815180845260208085019450808401835b838110156125d2578151875295820195908201906001016125b6565b509495945050505050565b7f416363657373436f6e74726f6c3a206163636f756e74200000000000000000008152600083516126158160178501602088016128e8565b7001034b99036b4b9b9b4b733903937b6329607d1b60179184019182015283516126468160288401602088016128e8565b01602801949350505050565b60408152600061266560408301856125a3565b828103602084015261267781856125a3565b95945050505050565b600060c08201881515835260208815158185015287604085015286606085015285608085015260c060a085015281855180845260e0860191508287019350845b818110156126e55784516001600160a01b0316835293830193918301916001016126c0565b50909b9a5050505050505050505050565b60208152600082518060208401526127158160408501602087016128e8565b601f01601f19169190910160400192915050565b60208082526022908201527f41636365737369626c653a2043616c6c6572206973206e6f7420616e2061646d60408201526134b760f11b606082015260800190565b6020808252601c908201527f426173655661756c7453746f726167653a207a65726f2076616c756500000000604082015260600190565b60208082526021908201527f57686974656c6973745661756c743a20616c726561647920616c6c6f636174656040820152601960fa1b606082015260800190565b60208082526021908201527f426173655661756c743a2065786365656420617661696c61626c6520726f756e6040820152601960fa1b606082015260800190565b83815260406020808301829052908201839052600090849060608401835b8681101561286e576001600160a01b0361285b856123d8565b1682529282019290820190600101612842565b50979650505050505050565b6000821982111561288d5761288d612981565b500190565b6000826128ad57634e487b7160e01b81526012600452602481fd5b500490565b60008160001904831182151516156128cc576128cc612981565b500290565b6000828210156128e3576128e3612981565b500390565b60005b838110156129035781810151838201526020016128eb565b838111156112325750506000910152565b60008161292357612923612981565b506000190190565b600181811c9082168061293f57607f821691505b6020821081141561296057634e487b7160e01b600052602260045260246000fd5b50919050565b600060001982141561297a5761297a612981565b5060010190565b634e487b7160e01b600052601160045260246000fdfedf8b4c520ffe197c5343c6f5aec59570151ef9a492f2c624fd45ddde6135ec42a2646970667358221220717770d4239401fd08abf22748d383d73ee3fe5650c0a3c29c65578ab7907ca564736f6c63430008040033df8b4c520ffe197c5343c6f5aec59570151ef9a492f2c624fd45ddde6135ec42",
  "linkReferences": {},
  "deployedLinkReferences": {}
}