{
  "_format": "hh-sol-artifact-1",
  "contractName": "SeigManager",
  "sourceName": "contracts/stake/managers/SeigManager.sol",
  "abi": [
    {
      "inputs": [
        {
          "internalType": "contract ERC20Mintable",
          "name": "ton",
          "type": "address"
        },
        {
          "internalType": "contract ERC20Mintable",
          "name": "wton",
          "type": "address"
        },
        {
          "internalType": "contract Layer2RegistryI",
          "name": "registry",
          "type": "address"
        },
        {
          "internalType": "contract DepositManagerI",
          "name": "depositManager",
          "type": "address"
        },
        {
          "internalType": "uint256",
          "name": "seigPerBlock",
          "type": "uint256"
        },
        {
          "internalType": "address",
          "name": "factory_",
          "type": "address"
        }
      ],
      "payable": false,
      "stateMutability": "nonpayable",
      "type": "constructor"
    },
    {
      "anonymous": false,
      "inputs": [
        {
          "indexed": true,
          "internalType": "address",
          "name": "account",
          "type": "address"
        }
      ],
      "name": "ChallengerAdded",
      "type": "event"
    },
    {
      "anonymous": false,
      "inputs": [
        {
          "indexed": true,
          "internalType": "address",
          "name": "account",
          "type": "address"
        }
      ],
      "name": "ChallengerRemoved",
      "type": "event"
    },
    {
      "anonymous": false,
      "inputs": [
        {
          "indexed": true,
          "internalType": "address",
          "name": "layer2",
          "type": "address"
        },
        {
          "indexed": false,
          "internalType": "address",
          "name": "coinage",
          "type": "address"
        }
      ],
      "name": "CoinageCreated",
      "type": "event"
    },
    {
      "anonymous": false,
      "inputs": [
        {
          "indexed": true,
          "internalType": "address",
          "name": "layer2",
          "type": "address"
        }
      ],
      "name": "Comitted",
      "type": "event"
    },
    {
      "anonymous": false,
      "inputs": [
        {
          "indexed": true,
          "internalType": "address",
          "name": "layer2",
          "type": "address"
        },
        {
          "indexed": false,
          "internalType": "uint256",
          "name": "previousRate",
          "type": "uint256"
        },
        {
          "indexed": false,
          "internalType": "uint256",
          "name": "newRate",
          "type": "uint256"
        }
      ],
      "name": "CommissionRateSet",
      "type": "event"
    },
    {
      "anonymous": false,
      "inputs": [
        {
          "indexed": false,
          "internalType": "uint256",
          "name": "totalStakedAmount",
          "type": "uint256"
        },
        {
          "indexed": false,
          "internalType": "uint256",
          "name": "totalSupplyOfWTON",
          "type": "uint256"
        },
        {
          "indexed": false,
          "internalType": "uint256",
          "name": "prevTotalSupply",
          "type": "uint256"
        },
        {
          "indexed": false,
          "internalType": "uint256",
          "name": "nextTotalSupply",
          "type": "uint256"
        }
      ],
      "name": "CommitLog1",
      "type": "event"
    },
    {
      "anonymous": false,
      "inputs": [
        {
          "indexed": true,
          "internalType": "address",
          "name": "previousOwner",
          "type": "address"
        },
        {
          "indexed": true,
          "internalType": "address",
          "name": "newOwner",
          "type": "address"
        }
      ],
      "name": "OwnershipTransferred",
      "type": "event"
    },
    {
      "anonymous": false,
      "inputs": [
        {
          "indexed": false,
          "internalType": "address",
          "name": "account",
          "type": "address"
        }
      ],
      "name": "Paused",
      "type": "event"
    },
    {
      "anonymous": false,
      "inputs": [
        {
          "indexed": true,
          "internalType": "address",
          "name": "account",
          "type": "address"
        }
      ],
      "name": "PauserAdded",
      "type": "event"
    },
    {
      "anonymous": false,
      "inputs": [
        {
          "indexed": true,
          "internalType": "address",
          "name": "account",
          "type": "address"
        }
      ],
      "name": "PauserRemoved",
      "type": "event"
    },
    {
      "anonymous": false,
      "inputs": [
        {
          "indexed": true,
          "internalType": "address",
          "name": "layer2",
          "type": "address"
        },
        {
          "indexed": false,
          "internalType": "uint256",
          "name": "totalSeig",
          "type": "uint256"
        },
        {
          "indexed": false,
          "internalType": "uint256",
          "name": "stakedSeig",
          "type": "uint256"
        },
        {
          "indexed": false,
          "internalType": "uint256",
          "name": "unstakedSeig",
          "type": "uint256"
        },
        {
          "indexed": false,
          "internalType": "uint256",
          "name": "powertonSeig",
          "type": "uint256"
        },
        {
          "indexed": false,
          "internalType": "uint256",
          "name": "pseig",
          "type": "uint256"
        }
      ],
      "name": "SeigGiven",
      "type": "event"
    },
    {
      "anonymous": false,
      "inputs": [
        {
          "indexed": false,
          "internalType": "address",
          "name": "account",
          "type": "address"
        }
      ],
      "name": "Unpaused",
      "type": "event"
    },
    {
      "anonymous": false,
      "inputs": [
        {
          "indexed": false,
          "internalType": "uint256",
          "name": "coinageBurnAmount",
          "type": "uint256"
        },
        {
          "indexed": false,
          "internalType": "uint256",
          "name": "totBurnAmount",
          "type": "uint256"
        }
      ],
      "name": "UnstakeLog",
      "type": "event"
    },
    {
      "constant": true,
      "inputs": [],
      "name": "DEFAULT_FACTOR",
      "outputs": [
        {
          "internalType": "uint256",
          "name": "",
          "type": "uint256"
        }
      ],
      "payable": false,
      "stateMutability": "view",
      "type": "function"
    },
    {
      "constant": true,
      "inputs": [],
      "name": "MAX_VALID_COMMISSION",
      "outputs": [
        {
          "internalType": "uint256",
          "name": "",
          "type": "uint256"
        }
      ],
      "payable": false,
      "stateMutability": "view",
      "type": "function"
    },
    {
      "constant": true,
      "inputs": [],
      "name": "MIN_VALID_COMMISSION",
      "outputs": [
        {
          "internalType": "uint256",
          "name": "",
          "type": "uint256"
        }
      ],
      "payable": false,
      "stateMutability": "view",
      "type": "function"
    },
    {
      "constant": true,
      "inputs": [],
      "name": "RAY",
      "outputs": [
        {
          "internalType": "uint256",
          "name": "",
          "type": "uint256"
        }
      ],
      "payable": false,
      "stateMutability": "view",
      "type": "function"
    },
    {
      "constant": true,
      "inputs": [],
      "name": "accRelativeSeig",
      "outputs": [
        {
          "internalType": "uint256",
          "name": "",
          "type": "uint256"
        }
      ],
      "payable": false,
      "stateMutability": "view",
      "type": "function"
    },
    {
      "constant": false,
      "inputs": [
        {
          "internalType": "address",
          "name": "account",
          "type": "address"
        }
      ],
      "name": "addChallenger",
      "outputs": [],
      "payable": false,
      "stateMutability": "nonpayable",
      "type": "function"
    },
    {
      "constant": false,
      "inputs": [
        {
          "internalType": "address",
          "name": "account",
          "type": "address"
        }
      ],
      "name": "addPauser",
      "outputs": [],
      "payable": false,
      "stateMutability": "nonpayable",
      "type": "function"
    },
    {
      "constant": true,
      "inputs": [
        {
          "internalType": "address",
          "name": "layer2",
          "type": "address"
        },
        {
          "internalType": "address",
          "name": "account",
          "type": "address"
        },
        {
          "internalType": "uint256",
          "name": "amount",
          "type": "uint256"
        }
      ],
      "name": "additionalTotBurnAmount",
      "outputs": [
        {
          "internalType": "uint256",
          "name": "totAmount",
          "type": "uint256"
        }
      ],
      "payable": false,
      "stateMutability": "view",
      "type": "function"
    },
    {
      "constant": true,
      "inputs": [],
      "name": "adjustCommissionDelay",
      "outputs": [
        {
          "internalType": "uint256",
          "name": "",
          "type": "uint256"
        }
      ],
      "payable": false,
      "stateMutability": "view",
      "type": "function"
    },
    {
      "constant": true,
      "inputs": [
        {
          "internalType": "address",
          "name": "layer2",
          "type": "address"
        }
      ],
      "name": "coinages",
      "outputs": [
        {
          "internalType": "address",
          "name": "",
          "type": "address"
        }
      ],
      "payable": false,
      "stateMutability": "view",
      "type": "function"
    },
    {
      "constant": true,
      "inputs": [
        {
          "internalType": "address",
          "name": "layer2",
          "type": "address"
        }
      ],
      "name": "commissionRates",
      "outputs": [
        {
          "internalType": "uint256",
          "name": "",
          "type": "uint256"
        }
      ],
      "payable": false,
      "stateMutability": "view",
      "type": "function"
    },
    {
      "constant": true,
      "inputs": [],
      "name": "dao",
      "outputs": [
        {
          "internalType": "address",
          "name": "",
          "type": "address"
        }
      ],
      "payable": false,
      "stateMutability": "view",
      "type": "function"
    },
    {
      "constant": true,
      "inputs": [],
      "name": "daoSeigRate",
      "outputs": [
        {
          "internalType": "uint256",
          "name": "",
          "type": "uint256"
        }
      ],
      "payable": false,
      "stateMutability": "view",
      "type": "function"
    },
    {
      "constant": true,
      "inputs": [
        {
          "internalType": "address",
          "name": "",
          "type": "address"
        }
      ],
      "name": "delayedCommissionBlock",
      "outputs": [
        {
          "internalType": "uint256",
          "name": "",
          "type": "uint256"
        }
      ],
      "payable": false,
      "stateMutability": "view",
      "type": "function"
    },
    {
      "constant": true,
      "inputs": [
        {
          "internalType": "address",
          "name": "",
          "type": "address"
        }
      ],
      "name": "delayedCommissionRate",
      "outputs": [
        {
          "internalType": "uint256",
          "name": "",
          "type": "uint256"
        }
      ],
      "payable": false,
      "stateMutability": "view",
      "type": "function"
    },
    {
      "constant": true,
      "inputs": [
        {
          "internalType": "address",
          "name": "",
          "type": "address"
        }
      ],
      "name": "delayedCommissionRateNegative",
      "outputs": [
        {
          "internalType": "bool",
          "name": "",
          "type": "bool"
        }
      ],
      "payable": false,
      "stateMutability": "view",
      "type": "function"
    },
    {
      "constant": false,
      "inputs": [
        {
          "internalType": "address",
          "name": "layer2",
          "type": "address"
        }
      ],
      "name": "deployCoinage",
      "outputs": [
        {
          "internalType": "bool",
          "name": "",
          "type": "bool"
        }
      ],
      "payable": false,
      "stateMutability": "nonpayable",
      "type": "function"
    },
    {
      "constant": true,
      "inputs": [],
      "name": "depositManager",
      "outputs": [
        {
          "internalType": "address",
          "name": "",
          "type": "address"
        }
      ],
      "payable": false,
      "stateMutability": "view",
      "type": "function"
    },
    {
      "constant": true,
      "inputs": [],
      "name": "factory",
      "outputs": [
        {
          "internalType": "contract CoinageFactoryI",
          "name": "",
          "type": "address"
        }
      ],
      "payable": false,
      "stateMutability": "view",
      "type": "function"
    },
    {
      "constant": true,
      "inputs": [
        {
          "internalType": "address",
          "name": "layer2",
          "type": "address"
        }
      ],
      "name": "getOperatorAmount",
      "outputs": [
        {
          "internalType": "uint256",
          "name": "",
          "type": "uint256"
        }
      ],
      "payable": false,
      "stateMutability": "view",
      "type": "function"
    },
    {
      "constant": true,
      "inputs": [
        {
          "internalType": "address",
          "name": "account",
          "type": "address"
        }
      ],
      "name": "isChallenger",
      "outputs": [
        {
          "internalType": "bool",
          "name": "",
          "type": "bool"
        }
      ],
      "payable": false,
      "stateMutability": "view",
      "type": "function"
    },
    {
      "constant": true,
      "inputs": [
        {
          "internalType": "address",
          "name": "layer2",
          "type": "address"
        }
      ],
      "name": "isCommissionRateNegative",
      "outputs": [
        {
          "internalType": "bool",
          "name": "",
          "type": "bool"
        }
      ],
      "payable": false,
      "stateMutability": "view",
      "type": "function"
    },
    {
      "constant": true,
      "inputs": [],
      "name": "isOwner",
      "outputs": [
        {
          "internalType": "bool",
          "name": "",
          "type": "bool"
        }
      ],
      "payable": false,
      "stateMutability": "view",
      "type": "function"
    },
    {
      "constant": true,
      "inputs": [
        {
          "internalType": "address",
          "name": "account",
          "type": "address"
        }
      ],
      "name": "isPauser",
      "outputs": [
        {
          "internalType": "bool",
          "name": "",
          "type": "bool"
        }
      ],
      "payable": false,
      "stateMutability": "view",
      "type": "function"
    },
    {
      "constant": true,
      "inputs": [
        {
          "internalType": "address",
          "name": "layer2",
          "type": "address"
        }
      ],
      "name": "lastCommitBlock",
      "outputs": [
        {
          "internalType": "uint256",
          "name": "",
          "type": "uint256"
        }
      ],
      "payable": false,
      "stateMutability": "view",
      "type": "function"
    },
    {
      "constant": true,
      "inputs": [],
      "name": "lastSeigBlock",
      "outputs": [
        {
          "internalType": "uint256",
          "name": "",
          "type": "uint256"
        }
      ],
      "payable": false,
      "stateMutability": "view",
      "type": "function"
    },
    {
      "constant": true,
      "inputs": [],
      "name": "minimumAmount",
      "outputs": [
        {
          "internalType": "uint256",
          "name": "",
          "type": "uint256"
        }
      ],
      "payable": false,
      "stateMutability": "view",
      "type": "function"
    },
    {
      "constant": false,
      "inputs": [
        {
          "internalType": "address",
          "name": "layer2",
          "type": "address"
        },
        {
          "internalType": "address",
          "name": "account",
          "type": "address"
        },
        {
          "internalType": "uint256",
          "name": "amount",
          "type": "uint256"
        }
      ],
      "name": "onDeposit",
      "outputs": [
        {
          "internalType": "bool",
          "name": "",
          "type": "bool"
        }
      ],
      "payable": false,
      "stateMutability": "nonpayable",
      "type": "function"
    },
    {
      "constant": false,
      "inputs": [
        {
          "internalType": "address",
          "name": "sender",
          "type": "address"
        },
        {
          "internalType": "address",
          "name": "recipient",
          "type": "address"
        },
        {
          "internalType": "uint256",
          "name": "amount",
          "type": "uint256"
        }
      ],
      "name": "onTransfer",
      "outputs": [
        {
          "internalType": "bool",
          "name": "",
          "type": "bool"
        }
      ],
      "payable": false,
      "stateMutability": "nonpayable",
      "type": "function"
    },
    {
      "constant": false,
      "inputs": [
        {
          "internalType": "address",
          "name": "layer2",
          "type": "address"
        },
        {
          "internalType": "address",
          "name": "account",
          "type": "address"
        },
        {
          "internalType": "uint256",
          "name": "amount",
          "type": "uint256"
        }
      ],
      "name": "onWithdraw",
      "outputs": [
        {
          "internalType": "bool",
          "name": "",
          "type": "bool"
        }
      ],
      "payable": false,
      "stateMutability": "nonpayable",
      "type": "function"
    },
    {
      "constant": true,
      "inputs": [],
      "name": "owner",
      "outputs": [
        {
          "internalType": "address",
          "name": "",
          "type": "address"
        }
      ],
      "payable": false,
      "stateMutability": "view",
      "type": "function"
    },
    {
      "constant": false,
      "inputs": [],
      "name": "pause",
      "outputs": [],
      "payable": false,
      "stateMutability": "nonpayable",
      "type": "function"
    },
    {
      "constant": true,
      "inputs": [],
      "name": "paused",
      "outputs": [
        {
          "internalType": "bool",
          "name": "",
          "type": "bool"
        }
      ],
      "payable": false,
      "stateMutability": "view",
      "type": "function"
    },
    {
      "constant": true,
      "inputs": [],
      "name": "pausedBlock",
      "outputs": [
        {
          "internalType": "uint256",
          "name": "",
          "type": "uint256"
        }
      ],
      "payable": false,
      "stateMutability": "view",
      "type": "function"
    },
    {
      "constant": true,
      "inputs": [],
      "name": "powerTONSeigRate",
      "outputs": [
        {
          "internalType": "uint256",
          "name": "",
          "type": "uint256"
        }
      ],
      "payable": false,
      "stateMutability": "view",
      "type": "function"
    },
    {
      "constant": true,
      "inputs": [],
      "name": "powerton",
      "outputs": [
        {
          "internalType": "address",
          "name": "",
          "type": "address"
        }
      ],
      "payable": false,
      "stateMutability": "view",
      "type": "function"
    },
    {
      "constant": true,
      "inputs": [],
      "name": "registry",
      "outputs": [
        {
          "internalType": "address",
          "name": "",
          "type": "address"
        }
      ],
      "payable": false,
      "stateMutability": "view",
      "type": "function"
    },
    {
      "constant": true,
      "inputs": [],
      "name": "relativeSeigRate",
      "outputs": [
        {
          "internalType": "uint256",
          "name": "",
          "type": "uint256"
        }
      ],
      "payable": false,
      "stateMutability": "view",
      "type": "function"
    },
    {
      "constant": false,
      "inputs": [],
      "name": "renounceChallenger",
      "outputs": [],
      "payable": false,
      "stateMutability": "nonpayable",
      "type": "function"
    },
    {
      "constant": false,
      "inputs": [
        {
          "internalType": "address",
          "name": "target",
          "type": "address"
        }
      ],
      "name": "renounceMinter",
      "outputs": [],
      "payable": false,
      "stateMutability": "nonpayable",
      "type": "function"
    },
    {
      "constant": false,
      "inputs": [
        {
          "internalType": "address",
          "name": "target",
          "type": "address"
        }
      ],
      "name": "renounceOwnership",
      "outputs": [],
      "payable": false,
      "stateMutability": "nonpayable",
      "type": "function"
    },
    {
      "constant": false,
      "inputs": [],
      "name": "renounceOwnership",
      "outputs": [],
      "payable": false,
      "stateMutability": "nonpayable",
      "type": "function"
    },
    {
      "constant": false,
      "inputs": [
        {
          "internalType": "address",
          "name": "target",
          "type": "address"
        }
      ],
      "name": "renouncePauser",
      "outputs": [],
      "payable": false,
      "stateMutability": "nonpayable",
      "type": "function"
    },
    {
      "constant": false,
      "inputs": [],
      "name": "renouncePauser",
      "outputs": [],
      "payable": false,
      "stateMutability": "nonpayable",
      "type": "function"
    },
    {
      "constant": false,
      "inputs": [],
      "name": "renounceWTONMinter",
      "outputs": [],
      "payable": false,
      "stateMutability": "nonpayable",
      "type": "function"
    },
    {
      "constant": true,
      "inputs": [],
      "name": "seigPerBlock",
      "outputs": [
        {
          "internalType": "uint256",
          "name": "",
          "type": "uint256"
        }
      ],
      "payable": false,
      "stateMutability": "view",
      "type": "function"
    },
    {
      "constant": false,
      "inputs": [
        {
          "internalType": "uint256",
          "name": "adjustDelay_",
          "type": "uint256"
        }
      ],
      "name": "setAdjustDelay",
      "outputs": [],
      "payable": false,
      "stateMutability": "nonpayable",
      "type": "function"
    },
    {
      "constant": false,
      "inputs": [
        {
          "internalType": "address",
          "name": "factory_",
          "type": "address"
        }
      ],
      "name": "setCoinageFactory",
      "outputs": [],
      "payable": false,
      "stateMutability": "nonpayable",
      "type": "function"
    },
    {
      "constant": false,
      "inputs": [
        {
          "internalType": "address",
          "name": "layer2",
          "type": "address"
        },
        {
          "internalType": "uint256",
          "name": "commissionRate",
          "type": "uint256"
        },
        {
          "internalType": "bool",
          "name": "isCommissionRateNegative",
          "type": "bool"
        }
      ],
      "name": "setCommissionRate",
      "outputs": [
        {
          "internalType": "bool",
          "name": "",
          "type": "bool"
        }
      ],
      "payable": false,
      "stateMutability": "nonpayable",
      "type": "function"
    },
    {
      "constant": false,
      "inputs": [
        {
          "internalType": "address",
          "name": "daoAddress",
          "type": "address"
        }
      ],
      "name": "setDao",
      "outputs": [],
      "payable": false,
      "stateMutability": "nonpayable",
      "type": "function"
    },
    {
      "constant": false,
      "inputs": [
        {
          "internalType": "uint256",
          "name": "daoSeigRate_",
          "type": "uint256"
        }
      ],
      "name": "setDaoSeigRate",
      "outputs": [],
      "payable": false,
      "stateMutability": "nonpayable",
      "type": "function"
    },
    {
      "constant": false,
      "inputs": [
        {
          "internalType": "uint256",
          "name": "minimumAmount_",
          "type": "uint256"
        }
      ],
      "name": "setMinimumAmount",
      "outputs": [],
      "payable": false,
      "stateMutability": "nonpayable",
      "type": "function"
    },
    {
      "constant": false,
      "inputs": [
        {
          "internalType": "contract PowerTONI",
          "name": "powerton",
          "type": "address"
        }
      ],
      "name": "setPowerTON",
      "outputs": [],
      "payable": false,
      "stateMutability": "nonpayable",
      "type": "function"
    },
    {
      "constant": false,
      "inputs": [
        {
          "internalType": "uint256",
          "name": "powerTONSeigRate_",
          "type": "uint256"
        }
      ],
      "name": "setPowerTONSeigRate",
      "outputs": [],
      "payable": false,
      "stateMutability": "nonpayable",
      "type": "function"
    },
    {
      "constant": false,
      "inputs": [
        {
          "internalType": "uint256",
          "name": "PseigRate_",
          "type": "uint256"
        }
      ],
      "name": "setPseigRate",
      "outputs": [],
      "payable": false,
      "stateMutability": "nonpayable",
      "type": "function"
    },
    {
      "constant": false,
      "inputs": [
        {
          "internalType": "address",
          "name": "layer2",
          "type": "address"
        },
        {
          "internalType": "address",
          "name": "challenger",
          "type": "address"
        }
      ],
      "name": "slash",
      "outputs": [
        {
          "internalType": "bool",
          "name": "",
          "type": "bool"
        }
      ],
      "payable": false,
      "stateMutability": "nonpayable",
      "type": "function"
    },
    {
      "constant": true,
      "inputs": [
        {
          "internalType": "address",
          "name": "layer2",
          "type": "address"
        },
        {
          "internalType": "address",
          "name": "account",
          "type": "address"
        }
      ],
      "name": "stakeOf",
      "outputs": [
        {
          "internalType": "uint256",
          "name": "",
          "type": "uint256"
        }
      ],
      "payable": false,
      "stateMutability": "view",
      "type": "function"
    },
    {
      "constant": true,
      "inputs": [],
      "name": "ton",
      "outputs": [
        {
          "internalType": "address",
          "name": "",
          "type": "address"
        }
      ],
      "payable": false,
      "stateMutability": "view",
      "type": "function"
    },
    {
      "constant": true,
      "inputs": [],
      "name": "tot",
      "outputs": [
        {
          "internalType": "address",
          "name": "",
          "type": "address"
        }
      ],
      "payable": false,
      "stateMutability": "view",
      "type": "function"
    },
    {
      "constant": false,
      "inputs": [
        {
          "internalType": "address",
          "name": "newSeigManager",
          "type": "address"
        },
        {
          "internalType": "address[]",
          "name": "coinages",
          "type": "address[]"
        }
      ],
      "name": "transferCoinageOwnership",
      "outputs": [],
      "payable": false,
      "stateMutability": "nonpayable",
      "type": "function"
    },
    {
      "constant": false,
      "inputs": [
        {
          "internalType": "address",
          "name": "target",
          "type": "address"
        },
        {
          "internalType": "address",
          "name": "newOwner",
          "type": "address"
        }
      ],
      "name": "transferOwnership",
      "outputs": [],
      "payable": false,
      "stateMutability": "nonpayable",
      "type": "function"
    },
    {
      "constant": false,
      "inputs": [
        {
          "internalType": "address",
          "name": "newOwner",
          "type": "address"
        }
      ],
      "name": "transferOwnership",
      "outputs": [],
      "payable": false,
      "stateMutability": "nonpayable",
      "type": "function"
    },
    {
      "constant": true,
      "inputs": [
        {
          "internalType": "address",
          "name": "layer2",
          "type": "address"
        },
        {
          "internalType": "address",
          "name": "account",
          "type": "address"
        }
      ],
      "name": "uncomittedStakeOf",
      "outputs": [
        {
          "internalType": "uint256",
          "name": "",
          "type": "uint256"
        }
      ],
      "payable": false,
      "stateMutability": "view",
      "type": "function"
    },
    {
      "constant": false,
      "inputs": [],
      "name": "unpause",
      "outputs": [],
      "payable": false,
      "stateMutability": "nonpayable",
      "type": "function"
    },
    {
      "constant": true,
      "inputs": [],
      "name": "unpausedBlock",
      "outputs": [
        {
          "internalType": "uint256",
          "name": "",
          "type": "uint256"
        }
      ],
      "payable": false,
      "stateMutability": "view",
      "type": "function"
    },
    {
      "constant": false,
      "inputs": [],
      "name": "updateSeigniorage",
      "outputs": [
        {
          "internalType": "bool",
          "name": "",
          "type": "bool"
        }
      ],
      "payable": false,
      "stateMutability": "nonpayable",
      "type": "function"
    },
    {
      "constant": true,
      "inputs": [],
      "name": "wton",
      "outputs": [
        {
          "internalType": "address",
          "name": "",
          "type": "address"
        }
      ],
      "payable": false,
      "stateMutability": "view",
      "type": "function"
    }
  ],
  "bytecode": "0x60806040523480156200001157600080fd5b506040516200472938038062004729833981810160405260c08110156200003757600080fd5b508051602082015160408301516060840151608085015160a090950151939492939192909162000082620000736001600160e01b036200021516565b6001600160e01b036200021916565b6000620000976001600160e01b036200021516565b600180546001600160a01b0319166001600160a01b038316908117909155604051919250906000907f8be0079c531659141344cd1fd0a4f28419497f9722a3daafe3b4186f6b6457e0908290a3506001805460ff60a01b1916905562000106336001600160e01b036200026b16565b600780546001600160a01b03199081166001600160a01b0389811691909117909255600880548216888416179055600380548216878416179055600480548216868416178155600d859055600980549092168484161791829055604080517f775c300c0000000000000000000000000000000000000000000000000000000081529051600094939093169263775c300c9282810192602092919082900301818787803b158015620001b657600080fd5b505af1158015620001cb573d6000803e3d6000fd5b505050506040513d6020811015620001e257600080fd5b5051600a80546001600160a01b0319166001600160a01b03909216919091179055505043600e55506200041d9350505050565b3390565b62000234816000620002bd60201b62003f451790919060201c565b6040516001600160a01b038216907f6719d08c1888103bea251a4ed56406bd0c3e69723c8a1686e017e7bbe159b6f890600090a250565b620002868160026200036460201b62003dff1790919060201c565b6040516001600160a01b038216907f2cd0e2692d0fffcabc09a1bbb85ce5406e4beb793c3e8aa022cf08bddbd797f790600090a250565b620002d282826001600160e01b036200038416565b156200033f57604080517f08c379a000000000000000000000000000000000000000000000000000000000815260206004820152601f60248201527f526f6c65733a206163636f756e7420616c72656164792068617320726f6c6500604482015290519081900360640190fd5b6001600160a01b0316600090815260209190915260409020805460ff19166001179055565b6200037982826001600160e01b036200040716565b156200033f57600080fd5b60006001600160a01b038216620003e7576040517f08c379a0000000000000000000000000000000000000000000000000000000008152600401808060200182810382526022815260200180620047076022913960400191505060405180910390fd5b506001600160a01b03166000908152602091909152604090205460ff1690565b60006001600160a01b038216620003e757600080fd5b6142da806200042d6000396000f3fe608060405234801561001057600080fd5b50600436106104215760003560e01c8063715018a611610235578063ac89321911610135578063df7fbef0116100c8578063f2fde38b11610097578063f82293481161007c578063f822934814610ac3578063f850ffaa14610acb578063fa9789c814610b0157610421565b8063f2fde38b14610a95578063f35c89e814610abb57610421565b8063df7fbef014610a2d578063e2fe8fd114610a35578063e403483214610a5b578063eeb4a9c814610a7857610421565b8063c59f104611610104578063c59f1046146109ab578063cbfebe62146109d1578063cc48b947146109f7578063ce4cb876146109ff57610421565b8063ac8932191461096d578063ae3458f814610993578063bb0c82981461099b578063c45a0155146109a357610421565b80638bf91dc4116101c85780639c877e4711610197578063a415d8dc1161017c578063a415d8dc14610919578063a7dcc8501461093f578063ac753a7a1461094757610421565b80639c877e47146108f4578063a16d6aa71461091157610421565b80638bf91dc4146108d45780638d62d949146108dc5780638da5cb5b146108e45780638f32d59b146108ec57610421565b80637b103999116102045780637b1039991461087857806382dc1ec414610880578063833a774f146108a65780638456cb59146108cc57610421565b8063715018a614610814578063764a78561461081c5780637aeccce9146108245780637b056c1b1461085257610421565b806341eb24bb116103405780635a16a416116102d35780636304a624116102a25780636c7ac9d8116102875780636c7ac9d8146107d65780636d435421146107de5780636ef8d66d1461080c57610421565b80636304a624146107a85780636637b882146107b057610421565b80635a16a4161461074c5780635c975abb146107725780635f112c681461077a5780635f40a349146107a057610421565b80634a3931491161030f5780634a393149146106e85780634c063c191461071e578063552033c4146105b25780635998a8d71461074457610421565b806341eb24bb146106325780634224ed661461065857806346fbf68e1461068c57806348c8577e146106b257610421565b806332847953116103b85780634123196f116103875780634123196f146105b2578063412c6d50146105ba5780634162169f14610604578063418130201461060c57610421565b806332847953146104e057806338bf3cfa146105605780633e832e1d146105865780633f4ba83a146105aa57610421565b806325e90db4116103f457806325e90db41461048d5780632d1bdec8146104955780632f17250a146104b257806332053c99146104d857610421565b806303e1cc27146104265780630ceb6780146104455780631cc478901461046b57806325374a9a14610485575b600080fd5b6104436004803603602081101561043c57600080fd5b5035610b2f565b005b6104436004803603602081101561045b57600080fd5b50356001600160a01b0316610be7565b610473610c0a565b60408051918252519081900360200190f35b610473610c11565b610443610c17565b610443600480360360208110156104ab57600080fd5b5035610c22565b610473600480360360208110156104c857600080fd5b50356001600160a01b0316610c6e565b610473610d67565b610443600480360360408110156104f657600080fd5b6001600160a01b03823516919081019060408101602082013564010000000081111561052157600080fd5b82018360208201111561053357600080fd5b8035906020019184602083028401116401000000008311171561055557600080fd5b509092509050610d6d565b6104436004803603602081101561057657600080fd5b50356001600160a01b0316610f25565b61058e610fc2565b604080516001600160a01b039092168252519081900360200190f35b610443610fd1565b610473611086565b6105f0600480360360608110156105d057600080fd5b506001600160a01b03813581169160208101359091169060400135611096565b604080519115158252519081900360200190f35b61058e6113c5565b6104436004803603602081101561062257600080fd5b50356001600160a01b03166113d4565b6104436004803603602081101561064857600080fd5b50356001600160a01b031661143d565b6105f06004803603606081101561066e57600080fd5b506001600160a01b03813516906020810135906040013515156114bf565b6105f0600480360360208110156106a257600080fd5b50356001600160a01b03166116a2565b610473600480360360608110156106c857600080fd5b506001600160a01b038135811691602081013590911690604001356116ba565b6105f0600480360360608110156106fe57600080fd5b506001600160a01b038135811691602081013590911690604001356116d1565b61058e6004803603602081101561073457600080fd5b50356001600160a01b0316611752565b610473611770565b6105f06004803603602081101561076257600080fd5b50356001600160a01b0316611776565b6105f0611794565b6104436004803603602081101561079057600080fd5b50356001600160a01b03166117a4565b610473611826565b61047361182c565b610443600480360360208110156107c657600080fd5b50356001600160a01b0316611832565b61058e61189b565b610443600480360360408110156107f457600080fd5b506001600160a01b03813581169160200135166118aa565b610443611965565b610443611975565b6105f0611a06565b6105f06004803603604081101561083a57600080fd5b506001600160a01b0381358116916020013516611f31565b6104736004803603602081101561086857600080fd5b50356001600160a01b0316612017565b61058e612032565b6104436004803603602081101561089657600080fd5b50356001600160a01b0316612041565b6105f0600480360360208110156108bc57600080fd5b50356001600160a01b0316612090565b6104436121e9565b61047361229a565b61058e6122aa565b61058e6122b9565b6105f06122c8565b6104436004803603602081101561090a57600080fd5b50356122ee565b61058e6123a6565b6105f06004803603602081101561092f57600080fd5b50356001600160a01b03166123b5565b6104736123c8565b6105f06004803603602081101561095d57600080fd5b50356001600160a01b03166123d7565b6104436004803603602081101561098357600080fd5b50356001600160a01b03166123ec565b610443612455565b610473612500565b61058e612506565b610473600480360360208110156109c157600080fd5b50356001600160a01b0316612515565b610473600480360360208110156109e757600080fd5b50356001600160a01b0316612530565b61058e612542565b61047360048036036040811015610a1557600080fd5b506001600160a01b0381358116916020013516612551565b6104736125ab565b61047360048036036020811015610a4b57600080fd5b50356001600160a01b03166125b1565b61044360048036036020811015610a7157600080fd5b50356125c3565b61044360048036036020811015610a8e57600080fd5b503561267b565b61044360048036036020811015610aab57600080fd5b50356001600160a01b03166126c7565b610473612717565b61047361271d565b6105f060048036036060811015610ae157600080fd5b506001600160a01b03813581169160208101359091169060400135612723565b61047360048036036040811015610b1757600080fd5b506001600160a01b0381358116916020013516612b6f565b610b376122c8565b610b76576040805162461bcd60e51b815260206004820181905260248201526000805160206141c3833981519152604482015290519081900360640190fd5b600081118015610b9157506b033b2e3c9fd0803ce800000081105b610be2576040805162461bcd60e51b815260206004820152601960248201527f657863656564656420736569676e696f72616765207261746500000000000000604482015290519081900360640190fd5b601955565b6003546001600160a01b03163314610bfe57600080fd5b610c0781612e2d565b50565b6010545b90565b601a5481565b610c2033612e75565b565b610c2a6122c8565b610c69576040805162461bcd60e51b815260206004820181905260248201526000805160206141c3833981519152604482015290519081900360640190fd5b601355565b600080336001600160a01b031663570ca7356040518163ffffffff1660e01b815260040160206040518083038186803b158015610caa57600080fd5b505afa158015610cbe573d6000803e3d6000fd5b505050506040513d6020811015610cd457600080fd5b50516001600160a01b038085166000908152600b60209081526040918290205482516370a0823160e01b815284861660048201529251949550909216926370a0823192602480840193919291829003018186803b158015610d3457600080fd5b505afa158015610d48573d6000803e3d6000fd5b505050506040513d6020811015610d5e57600080fd5b50519392505050565b600f5490565b610d756122c8565b610db4576040805162461bcd60e51b815260206004820181905260248201526000805160206141c3833981519152604482015290519081900360640190fd5b60005b81811015610f1f576000838383818110610dcd57fe5b905060200201356001600160a01b03169050806001600160a01b031663983b2d56866040518263ffffffff1660e01b815260040180826001600160a01b03166001600160a01b03168152602001915050600060405180830381600087803b158015610e3757600080fd5b505af1158015610e4b573d6000803e3d6000fd5b50505050806001600160a01b031663986502756040518163ffffffff1660e01b8152600401600060405180830381600087803b158015610e8a57600080fd5b505af1158015610e9e573d6000803e3d6000fd5b50505050806001600160a01b031663f2fde38b866040518263ffffffff1660e01b815260040180826001600160a01b03166001600160a01b03168152602001915050600060405180830381600087803b158015610efa57600080fd5b505af1158015610f0e573d6000803e3d6000fd5b505060019093019250610db7915050565b50505050565b610f2d6122c8565b610f6c576040805162461bcd60e51b815260206004820181905260248201526000805160206141c3833981519152604482015290519081900360640190fd5b806001600160a01b031663715018a66040518163ffffffff1660e01b8152600401600060405180830381600087803b158015610fa757600080fd5b505af1158015610fbb573d6000803e3d6000fd5b5050505050565b6005546001600160a01b031690565b610fe1610fdc612ebd565b6116a2565b61101c5760405162461bcd60e51b81526004018080602001828103825260308152602001806140fd6030913960400191505060405180910390fd5b600154600160a01b900460ff1661107a576040805162461bcd60e51b815260206004820152601460248201527f5061757361626c653a206e6f7420706175736564000000000000000000000000604482015290519081900360640190fd5b43601055610c20612ec1565b6b033b2e3c9fd0803ce800000081565b6004546000906001600160a01b031633146110b057600080fd5b6001600160a01b038085166000908152600b60205260409020548591166111085760405162461bcd60e51b815260040180806020018281038252602e815260200180614153602e913960400191505060405180910390fd5b6111128585612fb8565b1561120c576001600160a01b038086166000908152600b602090815260408083205481516370a0823160e01b81528986166004820152915193946111b194899492909116926370a08231926024808301939192829003018186803b15801561117957600080fd5b505afa15801561118d573d6000803e3d6000fd5b505050506040513d60208110156111a357600080fd5b50519063ffffffff61303516565b905060175481101561120a576040805162461bcd60e51b815260206004820152601a60248201527f6d696e696d756d20616d6f756e74206973207265717569726564000000000000604482015290519081900360640190fd5b505b600a54604080516340c10f1960e01b81526001600160a01b03888116600483015260248201879052915191909216916340c10f199160448083019260209291908290030181600087803b15801561126257600080fd5b505af1158015611276573d6000803e3d6000fd5b505050506040513d602081101561128c57600080fd5b50506001600160a01b038086166000908152600b602090815260408083205481516340c10f1960e01b815289861660048201526024810189905291519416936340c10f1993604480840194938390030190829087803b1580156112ee57600080fd5b505af1158015611302573d6000803e3d6000fd5b505050506040513d602081101561131857600080fd5b50506005546001600160a01b0316156113ba57600554604080517f412c6d500000000000000000000000000000000000000000000000000000000081526001600160a01b0388811660048301528781166024830152604482018790529151919092169163412c6d5091606480830192600092919082900301818387803b1580156113a157600080fd5b505af11580156113b5573d6000803e3d6000fd5b505050505b506001949350505050565b6006546001600160a01b031681565b6113dc6122c8565b61141b576040805162461bcd60e51b815260206004820181905260248201526000805160206141c3833981519152604482015290519081900360640190fd5b600580546001600160a01b0319166001600160a01b0392909216919091179055565b6114456122c8565b611484576040805162461bcd60e51b815260206004820181905260248201526000805160206141c3833981519152604482015290519081900360640190fd5b806001600160a01b0316636ef8d66d6040518163ffffffff1660e01b8152600401600060405180830381600087803b158015610fa757600080fd5b60035460009084906001600160a01b03163314806115495750806001600160a01b031663570ca7356040518163ffffffff1660e01b815260040160206040518083038186803b15801561151157600080fd5b505afa158015611525573d6000803e3d6000fd5b505050506040513d602081101561153b57600080fd5b50516001600160a01b031633145b61155257600080fd5b8315806115815750836a084595161401484a0000001115801561158157506b033b2e3c9fd0803ce80000008411155b6115bc5760405162461bcd60e51b81526004018080602001828103825260448152602001806142056044913960600191505060405180910390fd5b6001600160a01b038516600090815260116020526040902054601354611612576001600160a01b038616600090815260116020908152604080832088905560129091529020805460ff1916851515179055611653565b6013546001600160a01b038716600090815260146020908152604080832043909401909355601581528282208890556016905220805460ff19168515151790555b604080518281526020810187905281516001600160a01b038916927f11841078e38c91feada06e1f8ded3697ab2dadc2583c52b14109b82ccd4f77d7928290030190a250600195945050505050565b60006116b4818363ffffffff61308f16565b92915050565b60006116c78484846130f6565b90505b9392505050565b6007546000906001600160a01b03163314806116f757506008546001600160a01b031633145b6117325760405162461bcd60e51b81526004018080602001828103825260318152602001806142496031913960400191505060405180910390fd5b61173a611794565b6117485761174661324a565b505b5060019392505050565b6001600160a01b039081166000908152600b60205260409020541690565b60195481565b6001600160a01b031660009081526012602052604090205460ff1690565b600154600160a01b900460ff1690565b6117ac6122c8565b6117eb576040805162461bcd60e51b815260206004820181905260248201526000805160206141c3833981519152604482015290519081900360640190fd5b806001600160a01b031663986502756040518163ffffffff1660e01b8152600401600060405180830381600087803b158015610fa757600080fd5b600d5490565b60185481565b61183a6122c8565b611879576040805162461bcd60e51b815260206004820181905260248201526000805160206141c3833981519152604482015290519081900360640190fd5b600680546001600160a01b0319166001600160a01b0392909216919091179055565b6004546001600160a01b031690565b6118b26122c8565b6118f1576040805162461bcd60e51b815260206004820181905260248201526000805160206141c3833981519152604482015290519081900360640190fd5b816001600160a01b031663f2fde38b826040518263ffffffff1660e01b815260040180826001600160a01b03166001600160a01b03168152602001915050600060405180830381600087803b15801561194957600080fd5b505af115801561195d573d6000803e3d6000fd5b505050505050565b610c20611970612ebd565b6138fc565b61197d6122c8565b6119bc576040805162461bcd60e51b815260206004820181905260248201526000805160206141c3833981519152604482015290519081900360640190fd5b6001546040516000916001600160a01b0316907f8be0079c531659141344cd1fd0a4f28419497f9722a3daafe3b4186f6b6457e0908390a3600180546001600160a01b0319169055565b336000818152600b60205260408120549091906001600160a01b0316611a5d5760405162461bcd60e51b815260040180806020018281038252602e815260200180614153602e913960400191505060405180910390fd5b611a65611794565b15611a735760019150611f2d565b6000611a7e33610c6e565b9050601754811015611a8f57600080fd5b611a9761324a565b50336000908152600c60209081526040808320439055600b82528083205481516318160ddd60e01b815291516001600160a01b03909116939284926318160ddd9260048083019392829003018186803b158015611af357600080fd5b505afa158015611b07573d6000803e3d6000fd5b505050506040513d6020811015611b1d57600080fd5b5051600a54604080516370a0823160e01b815233600482015290519293506000926001600160a01b03909216916370a0823191602480820192602092909190829003018186803b158015611b7057600080fd5b505afa158015611b84573d6000803e3d6000fd5b505050506040513d6020811015611b9a57600080fd5b50519050808210611bdd5760405133907f521cc65179761533a7c8d7a973291dd7baebb99a67edf5ef78e9c2b61a533d9590600090a26001955050505050611f2d565b600082820390506000336001600160a01b031663570ca7356040518163ffffffff1660e01b815260040160206040518083038186803b158015611c1f57600080fd5b505afa158015611c33573d6000803e3d6000fd5b505050506040513d6020811015611c4957600080fd5b5051336000818152601260205260408120549293509160ff1690611c71908888878588613944565b8093508196505050866001600160a01b031663817e9d31611cf788888b6001600160a01b03166354f703f86040518163ffffffff1660e01b815260040160206040518083038186803b158015611cc657600080fd5b505afa158015611cda573d6000803e3d6000fd5b505050506040513d6020811015611cf057600080fd5b5051613b64565b6040518263ffffffff1660e01b815260040180828152602001915050602060405180830381600087803b158015611d2d57600080fd5b505af1158015611d41573d6000803e3d6000fd5b505050506040513d6020811015611d5757600080fd5b50508115611e6f578015611de257866001600160a01b03166379cc679084846040518363ffffffff1660e01b815260040180836001600160a01b03166001600160a01b0316815260200182815260200192505050600060405180830381600087803b158015611dc557600080fd5b505af1158015611dd9573d6000803e3d6000fd5b50505050611e6f565b866001600160a01b03166340c10f1984846040518363ffffffff1660e01b815260040180836001600160a01b03166001600160a01b0316815260200182815260200192505050602060405180830381600087803b158015611e4257600080fd5b505af1158015611e56573d6000803e3d6000fd5b505050506040513d6020811015611e6c57600080fd5b50505b60085460048054604080516340c10f1960e01b81526001600160a01b039283169381019390935260248301889052519216916340c10f19916044808201926020929091908290030181600087803b158015611ec957600080fd5b505af1158015611edd573d6000803e3d6000fd5b505050506040513d6020811015611ef357600080fd5b505060405133907f521cc65179761533a7c8d7a973291dd7baebb99a67edf5ef78e9c2b61a533d9590600090a26001995050505050505050505b5090565b6000611f3c336123b5565b611f4557600080fd5b6001600160a01b038084166000908152600b6020526040902054849116611f9d5760405162461bcd60e51b815260040180806020018281038252602e815260200180614153602e913960400191505060405180910390fd5b836001600160a01b03166306394c9b846040518263ffffffff1660e01b815260040180826001600160a01b03166001600160a01b03168152602001915050600060405180830381600087803b158015611ff557600080fd5b505af1158015612009573d6000803e3d6000fd5b506001979650505050505050565b6001600160a01b031660009081526011602052604090205490565b6003546001600160a01b031690565b61204c610fdc612ebd565b6120875760405162461bcd60e51b81526004018080602001828103825260308152602001806140fd6030913960400191505060405180910390fd5b610c0781613b79565b6003546000906001600160a01b031633146120aa57600080fd5b6001600160a01b038281166000908152600b6020526040902054166121e157600954604080517f775c300c00000000000000000000000000000000000000000000000000000000815290516000926001600160a01b03169163775c300c91600480830192602092919082900301818787803b15801561212857600080fd5b505af115801561213c573d6000803e3d6000fd5b505050506040513d602081101561215257600080fd5b50516001600160a01b0384166000908152600c60205260409020439055905061217a83610be7565b6001600160a01b038381166000818152600b602090815260409182902080546001600160a01b03191694861694851790558151938452905191927f124cac1e701d08d642237ad795ddd275670e12f2cd956a26709721c68084c2b2929081900390910190a2505b506001919050565b6121f4610fdc612ebd565b61222f5760405162461bcd60e51b81526004018080602001828103825260308152602001806140fd6030913960400191505060405180910390fd5b600154600160a01b900460ff161561228e576040805162461bcd60e51b815260206004820152601060248201527f5061757361626c653a2070617573656400000000000000000000000000000000604482015290519081900360640190fd5b43600f55610c20613bc1565b6b033b2e3c9fd0803ce800000090565b6008546001600160a01b031690565b6001546001600160a01b031690565b6001546000906001600160a01b03166122df612ebd565b6001600160a01b031614905090565b6122f66122c8565b612335576040805162461bcd60e51b815260206004820181905260248201526000805160206141c3833981519152604482015290519081900360640190fd5b60008111801561235057506b033b2e3c9fd0803ce800000081105b6123a1576040805162461bcd60e51b815260206004820152601960248201527f657863656564656420736569676e696f72616765207261746500000000000000604482015290519081900360640190fd5b601855565b600a546001600160a01b031690565b60006116b460028363ffffffff613ca216565b6a084595161401484a00000081565b60166020526000908152604090205460ff1681565b6123f46122c8565b612433576040805162461bcd60e51b815260206004820181905260248201526000805160206141c3833981519152604482015290519081900360640190fd5b600980546001600160a01b0319166001600160a01b0392909216919091179055565b61245d6122c8565b61249c576040805162461bcd60e51b815260206004820181905260248201526000805160206141c3833981519152604482015290519081900360640190fd5b600860009054906101000a90046001600160a01b03166001600160a01b031663986502756040518163ffffffff1660e01b8152600401600060405180830381600087803b1580156124ec57600080fd5b505af1158015610f1f573d6000803e3d6000fd5b60175481565b6009546001600160a01b031681565b6001600160a01b03166000908152600c602052604090205490565b60146020526000908152604090205481565b6007546001600160a01b031690565b6001600160a01b038083166000908152600b602090815260408083205481516370a0823160e01b815286861660048201529151939416926370a0823192602480840193919291829003018186803b158015610d3457600080fd5b60135481565b60156020526000908152604090205481565b6125cb6122c8565b61260a576040805162461bcd60e51b815260206004820181905260248201526000805160206141c3833981519152604482015290519081900360640190fd5b60008111801561262557506b033b2e3c9fd0803ce800000081105b612676576040805162461bcd60e51b815260206004820152601960248201527f657863656564656420736569676e696f72616765207261746500000000000000604482015290519081900360640190fd5b601a55565b6126836122c8565b6126c2576040805162461bcd60e51b815260206004820181905260248201526000805160206141c3833981519152604482015290519081900360640190fd5b601755565b6126cf6122c8565b61270e576040805162461bcd60e51b815260206004820181905260248201526000805160206141c3833981519152604482015290519081900360640190fd5b610c0781613cb7565b600e5490565b601b5481565b6004546000906001600160a01b0316331461273d57600080fd5b6001600160a01b038085166000908152600b60205260409020548591166127955760405162461bcd60e51b815260040180806020018281038252602e815260200180614153602e913960400191505060405180910390fd5b6001600160a01b038086166000908152600b60209081526040918290205482516370a0823160e01b815288851660048201529251879491909116926370a08231926024808301939192829003018186803b1580156127f257600080fd5b505afa158015612806573d6000803e3d6000fd5b505050506040513d602081101561281c57600080fd5b5051101561285b5760405162461bcd60e51b815260040180806020018281038252602c81526020018061427a602c913960400191505060405180910390fd5b6128658585612fb8565b1561295f576001600160a01b038086166000908152600b602090815260408083205481516370a0823160e01b815289861660048201529151939461290494899492909116926370a08231926024808301939192829003018186803b1580156128cc57600080fd5b505afa1580156128e0573d6000803e3d6000fd5b505050506040513d60208110156128f657600080fd5b50519063ffffffff613d5816565b905060175481101561295d576040805162461bcd60e51b815260206004820152601a60248201527f6d696e696d756d20616d6f756e74206973207265717569726564000000000000604482015290519081900360640190fd5b505b600061296c8686866130f6565b600a549091506001600160a01b03166379cc679087612991878563ffffffff61303516565b6040518363ffffffff1660e01b815260040180836001600160a01b03166001600160a01b0316815260200182815260200192505050600060405180830381600087803b1580156129e057600080fd5b505af11580156129f4573d6000803e3d6000fd5b5050506001600160a01b038088166000908152600b60205260408082205481517f79cc67900000000000000000000000000000000000000000000000000000000081528a85166004820152602481018a90529151931693506379cc6790926044808301939282900301818387803b158015612a6e57600080fd5b505af1158015612a82573d6000803e3d6000fd5b50506005546001600160a01b0316159150612b28905057600554604080517ff850ffaa0000000000000000000000000000000000000000000000000000000081526001600160a01b0389811660048301528881166024830152604482018890529151919092169163f850ffaa91606480830192600092919082900301818387803b158015612b0f57600080fd5b505af1158015612b23573d6000803e3d6000fd5b505050505b604080518581526020810183905281517f650f673bb96a43afff4620ecc3f3e38e0cbfddebde9894e951ba2ceff7472f60929181900390910190a150600195945050505050565b6001600160a01b038083166000908152600b60209081526040808320548151630a9ee07f60e31b8152915193941692849284926354f703f89260048083019392829003018186803b158015612bc357600080fd5b505afa158015612bd7573d6000803e3d6000fd5b505050506040513d6020811015612bed57600080fd5b5051604080516318160ddd60e01b815290519192506000916001600160a01b038516916318160ddd916004808301926020929190829003018186803b158015612c3557600080fd5b505afa158015612c49573d6000803e3d6000fd5b505050506040513d6020811015612c5f57600080fd5b5051600a54604080516370a0823160e01b81526001600160a01b038a81166004830152915193945060009391909216916370a08231916024808301926020929190829003018186803b158015612cb457600080fd5b505afa158015612cc8573d6000803e3d6000fd5b505050506040513d6020811015612cde57600080fd5b505190506000612cef838386613b64565b90506000612d87612d81876001600160a01b03166370a082318b6040518263ffffffff1660e01b815260040180826001600160a01b03166001600160a01b0316815260200191505060206040518083038186803b158015612d4f57600080fd5b505afa158015612d63573d6000803e3d6000fd5b505050506040513d6020811015612d7957600080fd5b505187613d9a565b83613dcf565b6001600160a01b03808b166000908152600b60209081526040918290205482516370a0823160e01b81528d851660048201529251949550612e20949316926370a08231926024808201939291829003018186803b158015612de757600080fd5b505afa158015612dfb573d6000803e3d6000fd5b505050506040513d6020811015612e1157600080fd5b5051829063ffffffff613d5816565b9998505050505050505050565b612e3e60028263ffffffff613dff16565b6040516001600160a01b038216907f2cd0e2692d0fffcabc09a1bbb85ce5406e4beb793c3e8aa022cf08bddbd797f790600090a250565b612e8660028263ffffffff613e3816565b6040516001600160a01b038216907f5cd2c63f2658de84952baf6a0e914d0997bbacc2d17fd2b6d928dcf951e697c790600090a250565b3390565b612ecc610fdc612ebd565b612f075760405162461bcd60e51b81526004018080602001828103825260308152602001806140fd6030913960400191505060405180910390fd5b600154600160a01b900460ff16612f65576040805162461bcd60e51b815260206004820152601460248201527f5061757361626c653a206e6f7420706175736564000000000000000000000000604482015290519081900360640190fd5b6001805460ff60a01b191690557f5db9ee0a495bf2e6ff9c91a7834c1ba4fdd244a5e8aa4e537bd38aeae4b073aa612f9b612ebd565b604080516001600160a01b039092168252519081900360200190a1565b6000826001600160a01b031663570ca7356040518163ffffffff1660e01b815260040160206040518083038186803b158015612ff357600080fd5b505afa158015613007573d6000803e3d6000fd5b505050506040513d602081101561301d57600080fd5b50516001600160a01b03838116911614905092915050565b6000828201838110156116ca576040805162461bcd60e51b815260206004820152601b60248201527f536166654d6174683a206164646974696f6e206f766572666c6f770000000000604482015290519081900360640190fd5b60006001600160a01b0382166130d65760405162461bcd60e51b81526004018080602001828103825260228152602001806141e36022913960400191505060405180910390fd5b506001600160a01b03166000908152602091909152604090205460ff1690565b6001600160a01b038084166000908152600b602090815260408083205481516318160ddd60e01b81529151939485949116926318160ddd9260048082019391829003018186803b15801561314957600080fd5b505afa15801561315d573d6000803e3d6000fd5b505050506040513d602081101561317357600080fd5b5051600a54604080516370a0823160e01b81526001600160a01b038981166004830152915193945060009391909216916370a08231916024808301926020929190829003018186803b1580156131c857600080fd5b505afa1580156131dc573d6000803e3d6000fd5b505050506040513d60208110156131f257600080fd5b50519050808211801561320e5750670de0b6b3a7640000818303105b1561321e576000925050506116ca565b61324061323a613234838563ffffffff613d5816565b86613dcf565b83613d9a565b9695505050505050565b6000600e5443141561325e57506000610c0e565b600a60009054906101000a90046001600160a01b03166001600160a01b03166318160ddd6040518163ffffffff1660e01b815260040160206040518083038186803b1580156132ac57600080fd5b505afa1580156132c0573d6000803e3d6000fd5b505050506040513d60208110156132d657600080fd5b50516132e8575043600e556000610c0e565b600080600a60009054906101000a90046001600160a01b03166001600160a01b03166318160ddd6040518163ffffffff1660e01b815260040160206040518083038186803b15801561333957600080fd5b505afa15801561334d573d6000803e3d6000fd5b505050506040513d602081101561336357600080fd5b5051600d549092506000906133869061337a613e6d565b9063ffffffff613ea716565b905060006134e1600a60009054906101000a90046001600160a01b03166001600160a01b03166318160ddd6040518163ffffffff1660e01b815260040160206040518083038186803b1580156133db57600080fd5b505afa1580156133ef573d6000803e3d6000fd5b505050506040513d602081101561340557600080fd5b5051600754600854604080516370a0823160e01b81526001600160a01b03928316600482015290516134d593633b9aca009361337a939116916370a0823191602480820192602092909190829003018186803b15801561346457600080fd5b505afa158015613478573d6000803e3d6000fd5b505050506040513d602081101561348e57600080fd5b5051600754604080516318160ddd60e01b815290516001600160a01b03909216916318160ddd91600480820192602092909190829003018186803b1580156128cc57600080fd5b9063ffffffff61303516565b9050600061356b61323a84600a60009054906101000a90046001600160a01b03166001600160a01b03166318160ddd6040518163ffffffff1660e01b815260040160206040518083038186803b15801561353a57600080fd5b505afa15801561354e573d6000803e3d6000fd5b505050506040513d602081101561356457600080fd5b5051613dcf565b9050600061358a613582858463ffffffff613d5816565b601a54613dcf565b90506135a0816134d5888563ffffffff61303516565b43600e55600a5460408051630a9ee07f60e31b815290519297506001600160a01b039091169163817e9d31916135fb918a918a9186916354f703f8916004808301926020929190829003018186803b158015611cc657600080fd5b6040518263ffffffff1660e01b815260040180828152602001915050602060405180830381600087803b15801561363157600080fd5b505af1158015613645573d6000803e3d6000fd5b505050506040513d602081101561365b57600080fd5b5050600a54604080516318160ddd60e01b815290517f41a79a497d1457df24c25ab99f22349ae9aef4468429f0a781216e8dcf80c628926001600160a01b0316916318160ddd916004808301926020929190829003018186803b1580156136c157600080fd5b505afa1580156136d5573d6000803e3d6000fd5b505050506040513d60208110156136eb57600080fd5b5051604080519182526020820186905281810189905260608201889052519081900360800190a16000613724858463ffffffff613d5816565b600554909150600090819081906001600160a01b0316156137d35761374b84601854613dcf565b600854600554604080516340c10f1960e01b81526001600160a01b0392831660048201526024810185905290519396509116916340c10f19916044808201926020929091908290030181600087803b1580156137a657600080fd5b505af11580156137ba573d6000803e3d6000fd5b505050506040513d60208110156137d057600080fd5b50505b6006546001600160a01b031615613878576137f084601954613dcf565b600854600654604080516340c10f1960e01b81526001600160a01b0392831660048201526024810185905290519395509116916340c10f19916044808201926020929091908290030181600087803b15801561384b57600080fd5b505af115801561385f573d6000803e3d6000fd5b505050506040513d602081101561387557600080fd5b50505b601a541561389a5750601b548490613896908263ffffffff61303516565b601b555b60408051898152602081018890528082018690526060810185905260808101839052905133917f0264534168fa7304ade59fc89758924d2288c7dcfd242dd680b668c80449c282919081900360a00190a260019a505050505050505050505090565b61390d60008263ffffffff613f0016565b6040516001600160a01b038216907fcd265ebaf09df2871cc7bd4133404a235ba12eff2041bb89d9c714a2621c7c7e90600090a250565b6001600160a01b0386166000908152601460205260408120548190431080159061398557506001600160a01b03881660009081526014602052604090205415155b156139d9576001600160a01b0388166000908152601560209081526040808320546011835281842055601682528083205460128352818420805460ff191660ff909216151591909117905560149091528120555b336000908152601160205260409020548686019250806139f95750613b59565b84613a2357613a088682613dcf565b9150613a1a838363ffffffff613d5816565b9250613b599050565b86613a2e5750613b59565b6000886001600160a01b03166370a08231866040518263ffffffff1660e01b815260040180826001600160a01b03166001600160a01b0316815260200191505060206040518083038186803b158015613a8657600080fd5b505afa158015613a9a573d6000803e3d6000fd5b505050506040513d6020811015613ab057600080fd5b5051905080613ac15750613b599050565b6000613acd828a613d9a565b9050613ae2613adc8983613dcf565b84613dcf565b935060006b033b2e3c9fd0803ce80000008214613b1657613b1185836b033b2e3c9fd0803ce800000003613d9a565b613b18565b845b90506b033b2e3c9fd0803ce80000008214613b3e57613b378183613dcf565b8501613b40565b845b9450613b52868263ffffffff61303516565b9550505050505b965096945050505050565b60006116c7613b738484613dcf565b85613d9a565b613b8a60008263ffffffff613f4516565b6040516001600160a01b038216907f6719d08c1888103bea251a4ed56406bd0c3e69723c8a1686e017e7bbe159b6f890600090a250565b613bcc610fdc612ebd565b613c075760405162461bcd60e51b81526004018080602001828103825260308152602001806140fd6030913960400191505060405180910390fd5b600154600160a01b900460ff1615613c66576040805162461bcd60e51b815260206004820152601060248201527f5061757361626c653a2070617573656400000000000000000000000000000000604482015290519081900360640190fd5b6001805460ff60a01b1916600160a01b1790557f62e78cea01bee320cd4e420270b5ea74000d11b0c9f74754ebdbfc544b05a258612f9b612ebd565b60006001600160a01b0382166130d657600080fd5b6001600160a01b038116613cfc5760405162461bcd60e51b815260040180806020018281038252602681526020018061412d6026913960400191505060405180910390fd5b6001546040516001600160a01b038084169216907f8be0079c531659141344cd1fd0a4f28419497f9722a3daafe3b4186f6b6457e090600090a3600180546001600160a01b0319166001600160a01b0392909216919091179055565b60006116ca83836040518060400160405280601e81526020017f536166654d6174683a207375627472616374696f6e206f766572666c6f770000815250613fa1565b600081613dc0613db6856b033b2e3c9fd0803ce8000000614038565b6002855b046140a4565b81613dc757fe5b049392505050565b60006b033b2e3c9fd0803ce8000000613dc0613deb8585614038565b60026b033b2e3c9fd0803ce8000000613dba565b613e098282613ca2565b15613e1357600080fd5b6001600160a01b0316600090815260209190915260409020805460ff19166001179055565b613e428282613ca2565b613e4b57600080fd5b6001600160a01b0316600090815260209190915260409020805460ff19169055565b6000613e77611794565b15613e8157600080fd5b600e5460105443829003911115613e99579050610c0e565b600f54601054039003905090565b600082613eb6575060006116b4565b82820282848281613ec357fe5b04146116ca5760405162461bcd60e51b81526004018080602001828103825260218152602001806141a26021913960400191505060405180910390fd5b613f0a828261308f565b613e4b5760405162461bcd60e51b81526004018080602001828103825260218152602001806141816021913960400191505060405180910390fd5b613f4f828261308f565b15613e13576040805162461bcd60e51b815260206004820152601f60248201527f526f6c65733a206163636f756e7420616c72656164792068617320726f6c6500604482015290519081900360640190fd5b600081848411156140305760405162461bcd60e51b81526004018080602001828103825283818151815260200191508051906020019080838360005b83811015613ff5578181015183820152602001613fdd565b50505050905090810190601f1680156140225780820380516001836020036101000a031916815260200191505b509250505060405180910390fd5b505050900390565b60008115806140535750508082028282828161405057fe5b04145b6116b4576040805162461bcd60e51b815260206004820152601460248201527f64732d6d6174682d6d756c2d6f766572666c6f77000000000000000000000000604482015290519081900360640190fd5b808201828110156116b4576040805162461bcd60e51b815260206004820152601460248201527f64732d6d6174682d6164642d6f766572666c6f77000000000000000000000000604482015290519081900360640190fdfe506175736572526f6c653a2063616c6c657220646f6573206e6f742068617665207468652050617573657220726f6c654f776e61626c653a206e6577206f776e657220697320746865207a65726f2061646472657373536569674d616e616765723a20636f696e61676520686173206e6f74206265656e206465706c6f79656420796574526f6c65733a206163636f756e7420646f6573206e6f74206861766520726f6c65536166654d6174683a206d756c7469706c69636174696f6e206f766572666c6f774f776e61626c653a2063616c6c6572206973206e6f7420746865206f776e6572526f6c65733a206163636f756e7420697320746865207a65726f2061646472657373536569674d616e616765723a20636f6d6d697373696f6e2072617465206d7573742062652030206f72206265747765656e20312052415920616e6420302e303120524159536569674d616e616765723a206f6e6c7920544f4e206f722057544f4e2063616e2063616c6c206f6e5472616e73666572536569674d616e616765723a20696e73756666696369616e742062616c616e636520746f20756e7374616b65a265627a7a723158203b3e9ecaaf454e2ba87a595f5888b6c32cc56fa07a6eca89077536dcbec115ed64736f6c634300050c0032526f6c65733a206163636f756e7420697320746865207a65726f2061646472657373",
  "linkReferences": {},
  "deployedLinkReferences": {}
}