{
  "_format": "hh-sol-artifact-1",
  "contractName": "SeigCoinageTokenMock",
  "sourceName": "contracts/stake/tokens/SeigCoinageTokenMock.sol",
  "abi": [
    {
      "inputs": [],
      "payable": false,
      "stateMutability": "nonpayable",
      "type": "constructor"
    },
    {
      "anonymous": false,
      "inputs": [
        {
          "indexed": true,
          "internalType": "address",
          "name": "previousOwner",
          "type": "address"
        },
        {
          "indexed": true,
          "internalType": "address",
          "name": "newOwner",
          "type": "address"
        }
      ],
      "name": "OwnershipTransferred",
      "type": "event"
    },
    {
      "constant": false,
      "inputs": [
        {
          "internalType": "uint256",
          "name": "amount",
          "type": "uint256"
        }
      ],
      "name": "addSeigniorage",
      "outputs": [],
      "payable": false,
      "stateMutability": "nonpayable",
      "type": "function"
    },
    {
      "constant": true,
      "inputs": [
        {
          "internalType": "address",
          "name": "owner",
          "type": "address"
        }
      ],
      "name": "balanceOf",
      "outputs": [
        {
          "internalType": "uint256",
          "name": "",
          "type": "uint256"
        }
      ],
      "payable": false,
      "stateMutability": "view",
      "type": "function"
    },
    {
      "constant": true,
      "inputs": [
        {
          "internalType": "address",
          "name": "",
          "type": "address"
        }
      ],
      "name": "balances",
      "outputs": [
        {
          "internalType": "uint256",
          "name": "latestBlock",
          "type": "uint256"
        },
        {
          "internalType": "uint256",
          "name": "balance",
          "type": "uint256"
        }
      ],
      "payable": false,
      "stateMutability": "view",
      "type": "function"
    },
    {
      "constant": false,
      "inputs": [
        {
          "internalType": "address",
          "name": "account",
          "type": "address"
        },
        {
          "internalType": "uint256",
          "name": "amount",
          "type": "uint256"
        }
      ],
      "name": "burn",
      "outputs": [],
      "payable": false,
      "stateMutability": "nonpayable",
      "type": "function"
    },
    {
      "constant": true,
      "inputs": [],
      "name": "firstSeigBlock",
      "outputs": [
        {
          "internalType": "uint256",
          "name": "",
          "type": "uint256"
        }
      ],
      "payable": false,
      "stateMutability": "view",
      "type": "function"
    },
    {
      "constant": true,
      "inputs": [
        {
          "internalType": "address",
          "name": "owner",
          "type": "address"
        }
      ],
      "name": "getSeigniorage",
      "outputs": [
        {
          "internalType": "uint256",
          "name": "",
          "type": "uint256"
        },
        {
          "internalType": "uint256",
          "name": "",
          "type": "uint256"
        }
      ],
      "payable": false,
      "stateMutability": "view",
      "type": "function"
    },
    {
      "constant": true,
      "inputs": [],
      "name": "isOwner",
      "outputs": [
        {
          "internalType": "bool",
          "name": "",
          "type": "bool"
        }
      ],
      "payable": false,
      "stateMutability": "view",
      "type": "function"
    },
    {
      "constant": true,
      "inputs": [],
      "name": "latestSeigBlock",
      "outputs": [
        {
          "internalType": "uint256",
          "name": "",
          "type": "uint256"
        }
      ],
      "payable": false,
      "stateMutability": "view",
      "type": "function"
    },
    {
      "constant": false,
      "inputs": [
        {
          "internalType": "address",
          "name": "account",
          "type": "address"
        },
        {
          "internalType": "uint256",
          "name": "amount",
          "type": "uint256"
        }
      ],
      "name": "mint",
      "outputs": [],
      "payable": false,
      "stateMutability": "nonpayable",
      "type": "function"
    },
    {
      "constant": true,
      "inputs": [],
      "name": "owner",
      "outputs": [
        {
          "internalType": "address",
          "name": "",
          "type": "address"
        }
      ],
      "payable": false,
      "stateMutability": "view",
      "type": "function"
    },
    {
      "constant": false,
      "inputs": [],
      "name": "renounceOwnership",
      "outputs": [],
      "payable": false,
      "stateMutability": "nonpayable",
      "type": "function"
    },
    {
      "constant": true,
      "inputs": [
        {
          "internalType": "uint256",
          "name": "",
          "type": "uint256"
        }
      ],
      "name": "seigHistory",
      "outputs": [
        {
          "internalType": "uint256",
          "name": "totalSupply",
          "type": "uint256"
        },
        {
          "internalType": "uint256",
          "name": "totalSeig",
          "type": "uint256"
        },
        {
          "internalType": "uint256",
          "name": "nextSeigBlock",
          "type": "uint256"
        }
      ],
      "payable": false,
      "stateMutability": "view",
      "type": "function"
    },
    {
      "constant": true,
      "inputs": [],
      "name": "totalSupply",
      "outputs": [
        {
          "internalType": "uint256",
          "name": "",
          "type": "uint256"
        }
      ],
      "payable": false,
      "stateMutability": "view",
      "type": "function"
    },
    {
      "constant": false,
      "inputs": [
        {
          "internalType": "address",
          "name": "newOwner",
          "type": "address"
        }
      ],
      "name": "transferOwnership",
      "outputs": [],
      "payable": false,
      "stateMutability": "nonpayable",
      "type": "function"
    },
    {
      "constant": false,
      "inputs": [
        {
          "internalType": "address",
          "name": "owner",
          "type": "address"
        }
      ],
      "name": "updateSeigniorage",
      "outputs": [],
      "payable": false,
      "stateMutability": "nonpayable",
      "type": "function"
    }
  ],
  "bytecode": "0x608060405234801561001057600080fd5b5060006100246001600160e01b0361007316565b600080546001600160a01b0319166001600160a01b0383169081178255604051929350917f8be0079c531659141344cd1fd0a4f28419497f9722a3daafe3b4186f6b6457e0908290a350610077565b3390565b610d5a806100866000396000f3fe608060405234801561001057600080fd5b50600436106100f55760003560e01c806370a08231116100975780638f32d59b116100665780638f32d59b146102615780639dc29fac1461027d578063dbbb3cf3146102a9578063f2fde38b146102cf576100f5565b806370a08231146101e9578063715018a61461020f57806389ea4300146102175780638da5cb5b1461023d576100f5565b80633e33e456116100d35780633e33e4561461017257806340c10f191461017a578063605b21d7146101a65780636ff71b2b146101ae576100f5565b80630ce1e020146100fa57806318160ddd1461011957806327e235e314610133575b600080fd5b6101176004803603602081101561011057600080fd5b50356102f5565b005b6101216103b2565b60408051918252519081900360200190f35b6101596004803603602081101561014957600080fd5b50356001600160a01b03166103c7565b6040805192835260208301919091528051918290030190f35b6101216103e0565b6101176004803603604081101561019057600080fd5b506001600160a01b0381351690602001356103e6565b61012161044d565b6101cb600480360360208110156101c457600080fd5b5035610453565b60408051938452602084019290925282820152519081900360600190f35b610121600480360360208110156101ff57600080fd5b50356001600160a01b0316610473565b6101176104c9565b6101176004803603602081101561022d57600080fd5b50356001600160a01b0316610579565b6102456105c9565b604080516001600160a01b039092168252519081900360200190f35b6102696105d8565b604080519115158252519081900360200190f35b6101176004803603604081101561029357600080fd5b506001600160a01b0381351690602001356105fc565b610159600480360360208110156102bf57600080fd5b50356001600160a01b031661065f565b610117600480360360208110156102e557600080fd5b50356001600160a01b0316610737565b6102fd6105d8565b61034e576040805162461bcd60e51b815260206004820181905260248201527f4f776e61626c653a2063616c6c6572206973206e6f7420746865206f776e6572604482015290519081900360640190fd5b6003546000908152600260205260409020610367610c67565b8154610379908463ffffffff61079c16565b81526020808201938452436002938401819055600381905560009081529083905260409081902082518155935160018501550151910155565b60035460009081526002602052604090205490565b6001602081905260009182526040909120805491015482565b60035481565b6103ee6105d8565b61043f576040805162461bcd60e51b815260206004820181905260248201527f4f776e61626c653a2063616c6c6572206973206e6f7420746865206f776e6572604482015290519081900360640190fd5b61044982826107ff565b5050565b60045481565b600260208190526000918252604090912080546001820154919092015483565b6001600160a01b0381166000908152600160208190526040822090810154600354825410156104c2576000806104a88661065f565b90925090506104bd838363ffffffff61079c16565b925050505b9392505050565b6104d16105d8565b610522576040805162461bcd60e51b815260206004820181905260248201527f4f776e61626c653a2063616c6c6572206973206e6f7420746865206f776e6572604482015290519081900360640190fd5b600080546040516001600160a01b03909116907f8be0079c531659141344cd1fd0a4f28419497f9722a3daafe3b4186f6b6457e0908390a36000805473ffffffffffffffffffffffffffffffffffffffff19169055565b6000806105858361065f565b6001600160a01b038516600090815260016020819052604090912082815590810154929450909250906105be908463ffffffff61079c16565b600190910155505050565b6000546001600160a01b031690565b600080546001600160a01b03166105ed6108ee565b6001600160a01b031614905090565b6106046105d8565b610655576040805162461bcd60e51b815260206004820181905260248201527f4f776e61626c653a2063616c6c6572206973206e6f7420746865206f776e6572604482015290519081900360640190fd5b61044982826108f2565b6001600160a01b038116600090815260016020818152604080842080548552600292839052908420918201549281015482548594859492909185905b831561072757600084815260026020526040812060018101549091906106e99084906106dd906106d1898e63ffffffff61079c16565b9063ffffffff6109e116565b9063ffffffff610a3a16565b905061070282600101548461079c90919063ffffffff16565b9250610714898263ffffffff61079c16565b985085935081600201549550505061069b565b5094965093945050505050915091565b61073f6105d8565b610790576040805162461bcd60e51b815260206004820181905260248201527f4f776e61626c653a2063616c6c6572206973206e6f7420746865206f776e6572604482015290519081900360640190fd5b61079981610a7c565b50565b6000828201838110156107f6576040805162461bcd60e51b815260206004820152601b60248201527f536166654d6174683a206164646974696f6e206f766572666c6f770000000000604482015290519081900360640190fd5b90505b92915050565b6108076105d8565b610858576040805162461bcd60e51b815260206004820181905260248201527f4f776e61626c653a2063616c6c6572206973206e6f7420746865206f776e6572604482015290519081900360640190fd5b6001600160a01b03821661089d5760405162461bcd60e51b815260040180806020018281038252602a815260200180610caf602a913960400191505060405180910390fd5b60035460009081526002602090815260408083206001600160a01b0386168452600190925290912081546108d7908463ffffffff61079c16565b825560018101546105be908463ffffffff61079c16565b3390565b6108fa6105d8565b61094b576040805162461bcd60e51b815260206004820181905260248201527f4f776e61626c653a2063616c6c6572206973206e6f7420746865206f776e6572604482015290519081900360640190fd5b6001600160a01b0382166109905760405162461bcd60e51b815260040180806020018281038252602c815260200180610cd9602c913960400191505060405180910390fd5b60035460009081526002602090815260408083206001600160a01b0386168452600190925290912081546109ca908463ffffffff610b2916565b825560018101546105be908463ffffffff610b2916565b6000826109f0575060006107f9565b828202828482816109fd57fe5b04146107f65760405162461bcd60e51b8152600401808060200182810382526021815260200180610d056021913960400191505060405180910390fd5b60006107f683836040518060400160405280601a81526020017f536166654d6174683a206469766973696f6e206279207a65726f000000000000815250610b6b565b6001600160a01b038116610ac15760405162461bcd60e51b8152600401808060200182810382526026815260200180610c896026913960400191505060405180910390fd5b600080546040516001600160a01b03808516939216917f8be0079c531659141344cd1fd0a4f28419497f9722a3daafe3b4186f6b6457e091a36000805473ffffffffffffffffffffffffffffffffffffffff19166001600160a01b0392909216919091179055565b60006107f683836040518060400160405280601e81526020017f536166654d6174683a207375627472616374696f6e206f766572666c6f770000815250610c0d565b60008183610bf75760405162461bcd60e51b81526004018080602001828103825283818151815260200191508051906020019080838360005b83811015610bbc578181015183820152602001610ba4565b50505050905090810190601f168015610be95780820380516001836020036101000a031916815260200191505b509250505060405180910390fd5b506000838581610c0357fe5b0495945050505050565b60008184841115610c5f5760405162461bcd60e51b8152602060048201818152835160248401528351909283926044909101919085019080838360008315610bbc578181015183820152602001610ba4565b505050900390565b6040518060600160405280600081526020016000815260200160008152509056fe4f776e61626c653a206e6577206f776e657220697320746865207a65726f206164647265737353656967436f696e616765546f6b656e3a206d696e7420746f20746865207a65726f206164647265737353656967436f696e616765546f6b656e3a206275726e2066726f6d20746865207a65726f2061646472657373536166654d6174683a206d756c7469706c69636174696f6e206f766572666c6f77a265627a7a723158205465a1eb5ddc8731760773903385925d1d43e197b9aabe1659cbb09d8c1d6b4c64736f6c634300050c0032",
  "linkReferences": {},
  "deployedLinkReferences": {}
}