{
  "_format": "hh-sol-artifact-1",
  "contractName": "PowerTON",
  "sourceName": "contracts/stake/powerton/PowerTON.sol",
  "abi": [
    {
      "inputs": [
        {
          "internalType": "address",
          "name": "seigManager",
          "type": "address"
        },
        {
          "internalType": "address",
          "name": "wton",
          "type": "address"
        },
        {
          "internalType": "uint256",
          "name": "roundDuration",
          "type": "uint256"
        }
      ],
      "payable": false,
      "stateMutability": "nonpayable",
      "type": "constructor"
    },
    {
      "anonymous": false,
      "inputs": [
        {
          "indexed": true,
          "internalType": "address",
          "name": "previousOwner",
          "type": "address"
        },
        {
          "indexed": true,
          "internalType": "address",
          "name": "newOwner",
          "type": "address"
        }
      ],
      "name": "OwnershipTransferred",
      "type": "event"
    },
    {
      "anonymous": false,
      "inputs": [
        {
          "indexed": false,
          "internalType": "address",
          "name": "account",
          "type": "address"
        }
      ],
      "name": "Paused",
      "type": "event"
    },
    {
      "anonymous": false,
      "inputs": [
        {
          "indexed": true,
          "internalType": "address",
          "name": "account",
          "type": "address"
        }
      ],
      "name": "PauserAdded",
      "type": "event"
    },
    {
      "anonymous": false,
      "inputs": [
        {
          "indexed": true,
          "internalType": "address",
          "name": "account",
          "type": "address"
        }
      ],
      "name": "PauserRemoved",
      "type": "event"
    },
    {
      "anonymous": false,
      "inputs": [
        {
          "indexed": true,
          "internalType": "address",
          "name": "account",
          "type": "address"
        },
        {
          "indexed": false,
          "internalType": "uint256",
          "name": "amount",
          "type": "uint256"
        }
      ],
      "name": "PowerDecreased",
      "type": "event"
    },
    {
      "anonymous": false,
      "inputs": [
        {
          "indexed": true,
          "internalType": "address",
          "name": "account",
          "type": "address"
        },
        {
          "indexed": false,
          "internalType": "uint256",
          "name": "amount",
          "type": "uint256"
        }
      ],
      "name": "PowerIncreased",
      "type": "event"
    },
    {
      "anonymous": false,
      "inputs": [
        {
          "indexed": false,
          "internalType": "uint256",
          "name": "round",
          "type": "uint256"
        },
        {
          "indexed": false,
          "internalType": "address",
          "name": "winner",
          "type": "address"
        },
        {
          "indexed": false,
          "internalType": "uint256",
          "name": "reward",
          "type": "uint256"
        }
      ],
      "name": "RoundEnd",
      "type": "event"
    },
    {
      "anonymous": false,
      "inputs": [
        {
          "indexed": false,
          "internalType": "uint256",
          "name": "round",
          "type": "uint256"
        },
        {
          "indexed": false,
          "internalType": "uint256",
          "name": "startTime",
          "type": "uint256"
        },
        {
          "indexed": false,
          "internalType": "uint256",
          "name": "endTime",
          "type": "uint256"
        }
      ],
      "name": "RoundStart",
      "type": "event"
    },
    {
      "anonymous": false,
      "inputs": [
        {
          "indexed": false,
          "internalType": "address",
          "name": "account",
          "type": "address"
        }
      ],
      "name": "Unpaused",
      "type": "event"
    },
    {
      "constant": false,
      "inputs": [
        {
          "internalType": "address",
          "name": "account",
          "type": "address"
        }
      ],
      "name": "addPauser",
      "outputs": [],
      "payable": false,
      "stateMutability": "nonpayable",
      "type": "function"
    },
    {
      "constant": true,
      "inputs": [],
      "name": "currentRound",
      "outputs": [
        {
          "internalType": "uint256",
          "name": "",
          "type": "uint256"
        }
      ],
      "payable": false,
      "stateMutability": "view",
      "type": "function"
    },
    {
      "constant": true,
      "inputs": [],
      "name": "currentRoundFinished",
      "outputs": [
        {
          "internalType": "bool",
          "name": "",
          "type": "bool"
        }
      ],
      "payable": false,
      "stateMutability": "view",
      "type": "function"
    },
    {
      "constant": false,
      "inputs": [],
      "name": "endRound",
      "outputs": [],
      "payable": false,
      "stateMutability": "nonpayable",
      "type": "function"
    },
    {
      "constant": false,
      "inputs": [],
      "name": "init",
      "outputs": [],
      "payable": false,
      "stateMutability": "nonpayable",
      "type": "function"
    },
    {
      "constant": true,
      "inputs": [],
      "name": "initialized",
      "outputs": [
        {
          "internalType": "bool",
          "name": "",
          "type": "bool"
        }
      ],
      "payable": false,
      "stateMutability": "view",
      "type": "function"
    },
    {
      "constant": true,
      "inputs": [],
      "name": "isOwner",
      "outputs": [
        {
          "internalType": "bool",
          "name": "",
          "type": "bool"
        }
      ],
      "payable": false,
      "stateMutability": "view",
      "type": "function"
    },
    {
      "constant": true,
      "inputs": [
        {
          "internalType": "address",
          "name": "account",
          "type": "address"
        }
      ],
      "name": "isPauser",
      "outputs": [
        {
          "internalType": "bool",
          "name": "",
          "type": "bool"
        }
      ],
      "payable": false,
      "stateMutability": "view",
      "type": "function"
    },
    {
      "constant": false,
      "inputs": [
        {
          "internalType": "address",
          "name": "layer2",
          "type": "address"
        },
        {
          "internalType": "address",
          "name": "account",
          "type": "address"
        },
        {
          "internalType": "uint256",
          "name": "amount",
          "type": "uint256"
        }
      ],
      "name": "onDeposit",
      "outputs": [],
      "payable": false,
      "stateMutability": "nonpayable",
      "type": "function"
    },
    {
      "constant": false,
      "inputs": [
        {
          "internalType": "address",
          "name": "layer2",
          "type": "address"
        },
        {
          "internalType": "address",
          "name": "account",
          "type": "address"
        },
        {
          "internalType": "uint256",
          "name": "amount",
          "type": "uint256"
        }
      ],
      "name": "onWithdraw",
      "outputs": [],
      "payable": false,
      "stateMutability": "nonpayable",
      "type": "function"
    },
    {
      "constant": true,
      "inputs": [],
      "name": "owner",
      "outputs": [
        {
          "internalType": "address",
          "name": "",
          "type": "address"
        }
      ],
      "payable": false,
      "stateMutability": "view",
      "type": "function"
    },
    {
      "constant": false,
      "inputs": [],
      "name": "pause",
      "outputs": [],
      "payable": false,
      "stateMutability": "nonpayable",
      "type": "function"
    },
    {
      "constant": true,
      "inputs": [],
      "name": "paused",
      "outputs": [
        {
          "internalType": "bool",
          "name": "",
          "type": "bool"
        }
      ],
      "payable": false,
      "stateMutability": "view",
      "type": "function"
    },
    {
      "constant": true,
      "inputs": [
        {
          "internalType": "address",
          "name": "account",
          "type": "address"
        }
      ],
      "name": "powerOf",
      "outputs": [
        {
          "internalType": "uint256",
          "name": "",
          "type": "uint256"
        }
      ],
      "payable": false,
      "stateMutability": "view",
      "type": "function"
    },
    {
      "constant": false,
      "inputs": [
        {
          "internalType": "address",
          "name": "target",
          "type": "address"
        }
      ],
      "name": "renounceMinter",
      "outputs": [],
      "payable": false,
      "stateMutability": "nonpayable",
      "type": "function"
    },
    {
      "constant": false,
      "inputs": [
        {
          "internalType": "address",
          "name": "target",
          "type": "address"
        }
      ],
      "name": "renounceOwnership",
      "outputs": [],
      "payable": false,
      "stateMutability": "nonpayable",
      "type": "function"
    },
    {
      "constant": false,
      "inputs": [],
      "name": "renounceOwnership",
      "outputs": [],
      "payable": false,
      "stateMutability": "nonpayable",
      "type": "function"
    },
    {
      "constant": false,
      "inputs": [
        {
          "internalType": "address",
          "name": "target",
          "type": "address"
        }
      ],
      "name": "renouncePauser",
      "outputs": [],
      "payable": false,
      "stateMutability": "nonpayable",
      "type": "function"
    },
    {
      "constant": false,
      "inputs": [],
      "name": "renouncePauser",
      "outputs": [],
      "payable": false,
      "stateMutability": "nonpayable",
      "type": "function"
    },
    {
      "constant": true,
      "inputs": [],
      "name": "roundDuration",
      "outputs": [
        {
          "internalType": "uint256",
          "name": "",
          "type": "uint256"
        }
      ],
      "payable": false,
      "stateMutability": "view",
      "type": "function"
    },
    {
      "constant": true,
      "inputs": [
        {
          "internalType": "uint256",
          "name": "round",
          "type": "uint256"
        }
      ],
      "name": "roundFinished",
      "outputs": [
        {
          "internalType": "bool",
          "name": "",
          "type": "bool"
        }
      ],
      "payable": false,
      "stateMutability": "view",
      "type": "function"
    },
    {
      "constant": true,
      "inputs": [
        {
          "internalType": "uint256",
          "name": "round",
          "type": "uint256"
        }
      ],
      "name": "roundStarted",
      "outputs": [
        {
          "internalType": "bool",
          "name": "",
          "type": "bool"
        }
      ],
      "payable": false,
      "stateMutability": "view",
      "type": "function"
    },
    {
      "constant": true,
      "inputs": [
        {
          "internalType": "uint256",
          "name": "",
          "type": "uint256"
        }
      ],
      "name": "rounds",
      "outputs": [
        {
          "internalType": "uint64",
          "name": "startTime",
          "type": "uint64"
        },
        {
          "internalType": "uint64",
          "name": "endTime",
          "type": "uint64"
        },
        {
          "internalType": "uint256",
          "name": "reward",
          "type": "uint256"
        },
        {
          "internalType": "address",
          "name": "winner",
          "type": "address"
        }
      ],
      "payable": false,
      "stateMutability": "view",
      "type": "function"
    },
    {
      "constant": true,
      "inputs": [],
      "name": "seigManager",
      "outputs": [
        {
          "internalType": "address",
          "name": "",
          "type": "address"
        }
      ],
      "payable": false,
      "stateMutability": "view",
      "type": "function"
    },
    {
      "constant": false,
      "inputs": [
        {
          "internalType": "address",
          "name": "seigManager",
          "type": "address"
        }
      ],
      "name": "setSeigManager",
      "outputs": [],
      "payable": false,
      "stateMutability": "nonpayable",
      "type": "function"
    },
    {
      "constant": false,
      "inputs": [],
      "name": "start",
      "outputs": [],
      "payable": false,
      "stateMutability": "nonpayable",
      "type": "function"
    },
    {
      "constant": true,
      "inputs": [],
      "name": "totalDeposits",
      "outputs": [
        {
          "internalType": "uint256",
          "name": "",
          "type": "uint256"
        }
      ],
      "payable": false,
      "stateMutability": "view",
      "type": "function"
    },
    {
      "constant": false,
      "inputs": [
        {
          "internalType": "address",
          "name": "target",
          "type": "address"
        },
        {
          "internalType": "address",
          "name": "newOwner",
          "type": "address"
        }
      ],
      "name": "transferOwnership",
      "outputs": [],
      "payable": false,
      "stateMutability": "nonpayable",
      "type": "function"
    },
    {
      "constant": false,
      "inputs": [
        {
          "internalType": "address",
          "name": "newOwner",
          "type": "address"
        }
      ],
      "name": "transferOwnership",
      "outputs": [],
      "payable": false,
      "stateMutability": "nonpayable",
      "type": "function"
    },
    {
      "constant": false,
      "inputs": [],
      "name": "unpause",
      "outputs": [],
      "payable": false,
      "stateMutability": "nonpayable",
      "type": "function"
    },
    {
      "constant": true,
      "inputs": [
        {
          "internalType": "uint256",
          "name": "round",
          "type": "uint256"
        }
      ],
      "name": "winnerOf",
      "outputs": [
        {
          "internalType": "address",
          "name": "",
          "type": "address"
        }
      ],
      "payable": false,
      "stateMutability": "view",
      "type": "function"
    },
    {
      "constant": true,
      "inputs": [],
      "name": "wton",
      "outputs": [
        {
          "internalType": "address",
          "name": "",
          "type": "address"
        }
      ],
      "payable": false,
      "stateMutability": "view",
      "type": "function"
    }
  ],
  "bytecode": "0x60806040523480156200001157600080fd5b50604051620025f4380380620025f4833981016040819052620000349162000264565b6200005a6200004b6001600160e01b036200010e16565b6001600160e01b036200011216565b60006200006f6001600160e01b036200010e16565b600180546001600160a01b0319166001600160a01b038316908117909155604051919250906000907f8be0079c531659141344cd1fd0a4f28419497f9722a3daafe3b4186f6b6457e0908290a3506001805460ff60a01b1916905580620000d557600080fd5b600280546001600160a01b039485166001600160a01b0319918216179091556003805493909416921691909117909155600555620003bb565b3390565b6200012d8160006200016460201b620017ef1790919060201c565b6040516001600160a01b038216907f6719d08c1888103bea251a4ed56406bd0c3e69723c8a1686e017e7bbe159b6f890600090a250565b6200017982826001600160e01b03620001e116565b15620001bc576040517f08c379a0000000000000000000000000000000000000000000000000000000008152600401620001b39062000354565b60405180910390fd5b6001600160a01b0316600090815260209190915260409020805460ff19166001179055565b60006001600160a01b03821662000226576040517f08c379a0000000000000000000000000000000000000000000000000000000008152600401620001b39062000366565b506001600160a01b03811660009081526020839052604090205460ff165b92915050565b8051620002448162000396565b80516200024481620003b0565b6000806000606084860312156200027a57600080fd5b60006200028886866200024a565b93505060206200029b868287016200024a565b9250506040620002ae8682870162000257565b9150509250925092565b6000620002c7601f8362000378565b7f526f6c65733a206163636f756e7420616c72656164792068617320726f6c6500815260200192915050565b60006200030260228362000378565b7f526f6c65733a206163636f756e7420697320746865207a65726f20616464726581527f7373000000000000000000000000000000000000000000000000000000000000602082015260400192915050565b602080825281016200024481620002b8565b602080825281016200024481620002f3565b90815260200190565b60006001600160a01b03821662000244565b90565b620003a18162000381565b8114620003ad57600080fd5b50565b620003a18162000393565b61222980620003cb6000396000f3fe608060405234801561001057600080fd5b50600436106101f05760003560e01c80637657f20a1161010f5780638da5cb5b116100a2578063e1c7392a11610071578063e1c7392a146103a6578063f2fde38b146103ae578063f7cb789a146103c1578063f850ffaa146103c9576101f0565b80638da5cb5b146103865780638f32d59b1461038e578063be9a655514610396578063c2dba50e1461039e576101f0565b80638a19c8bc116100de5780638a19c8bc146103405780638c65c81f146103485780638cb5d7001461036b5780638d62d9491461037e576101f0565b80637657f20a1461030a5780637d8820971461031d57806382dc1ec4146103255780638456cb5914610338576101f0565b80635c975abb116101875780636ef8d66d116101565780636ef8d66d146102dd5780636fb7f558146102e5578063715018a6146102fa578063749aa2d914610302576101f0565b80635c975abb1461029c5780635f112c68146102a457806364402c07146102b75780636d435421146102ca576101f0565b80633f4ba83a116101c35780633f4ba83a1461025b578063412c6d501461026357806341eb24bb1461027657806346fbf68e14610289576101f0565b8063158ef93e146101f55780631ac84690146102135780631c602a631461023357806338bf3cfa14610246575b600080fd5b6101fd6103dc565b60405161020a9190611f94565b60405180910390f35b610226610221366004611989565b6103e5565b60405161020a91906120a3565b6101fd610241366004611a54565b61041c565b610259610254366004611989565b610479565b005b6102596104fc565b6102596102713660046119e9565b610599565b610259610284366004611989565b61062d565b6101fd610297366004611989565b61068c565b6101fd61069e565b6102596102b2366004611989565b6106af565b6101fd6102c5366004611a54565b61070e565b6102596102d83660046119af565b610756565b6102596107f5565b6102ed610807565b60405161020a9190611f5d565b610259610816565b610259610891565b610259610318366004611989565b6108bd565b610226610910565b610259610333366004611989565b610916565b610259610949565b6102266109d6565b61035b610356366004611a54565b6109dc565b60405161020a9493929190612101565b6102ed610379366004611a54565b610a1b565b6102ed610a39565b6102ed610a48565b6101fd610a57565b610259610a7d565b6101fd610b30565b610259610b42565b6102596103bc366004611989565b610bad565b610226610bda565b6102596103d73660046119e9565b610be0565b60085460ff1681565b60006104166040516103f690611f52565b604051809103902061040784610c7a565b6007919063ffffffff610c8616565b92915050565b60006104278261070e565b8015610452575060008281526006602052604090205442600160401b90910467ffffffffffffffff16105b80156104165750506000908152600660205260409020600201546001600160a01b03161590565b610481610a57565b6104a65760405162461bcd60e51b815260040161049d90612063565b60405180910390fd5b806001600160a01b031663715018a66040518163ffffffff1660e01b8152600401600060405180830381600087803b1580156104e157600080fd5b505af11580156104f5573d6000803e3d6000fd5b5050505050565b610507610297610cd6565b6105235760405162461bcd60e51b815260040161049d90611fe3565b600154600160a01b900460ff1661054c5760405162461bcd60e51b815260040161049d90611fc3565b6001805460ff60a01b191690557f5db9ee0a495bf2e6ff9c91a7834c1ba4fdd244a5e8aa4e537bd38aeae4b073aa610582610cd6565b60405161058f9190611f6b565b60405180910390a1565b6105a1610b30565b156105ae576105ae610cda565b6002546001600160a01b031633146105c557600080fd5b6105cf8282610f28565b6009546105e2908263ffffffff610f9e16565b6009556040516001600160a01b038316907f7cb6ed9ab3c494e5dae6f6a137de115769e08b31ce667494edd37f75c84a1016906106209084906120a3565b60405180910390a2505050565b610635610a57565b6106515760405162461bcd60e51b815260040161049d90612063565b806001600160a01b0316636ef8d66d6040518163ffffffff1660e01b8152600401600060405180830381600087803b1580156104e157600080fd5b6000610416818363ffffffff610fca16565b600154600160a01b900460ff165b90565b6106b7610a57565b6106d35760405162461bcd60e51b815260040161049d90612063565b806001600160a01b031663986502756040518163ffffffff1660e01b8152600401600060405180830381600087803b1580156104e157600080fd5b60008181526006602052604081205467ffffffffffffffff1615801590610416575050600090815260066020526040902054600160401b900467ffffffffffffffff16151590565b61075e610a57565b61077a5760405162461bcd60e51b815260040161049d90612063565b6040517ff2fde38b0000000000000000000000000000000000000000000000000000000081526001600160a01b0383169063f2fde38b906107bf908490600401611f5d565b600060405180830381600087803b1580156107d957600080fd5b505af11580156107ed573d6000803e3d6000fd5b505050505050565b610805610800610cd6565b611012565b565b6002546001600160a01b031690565b61081e610a57565b61083a5760405162461bcd60e51b815260040161049d90612063565b6001546040516000916001600160a01b0316907f8be0079c531659141344cd1fd0a4f28419497f9722a3daafe3b4186f6b6457e0908390a36001805473ffffffffffffffffffffffffffffffffffffffff19169055565b610899610b30565b6108b55760405162461bcd60e51b815260040161049d90612023565b610805610cda565b6108c5610a57565b6108e15760405162461bcd60e51b815260040161049d90612063565b6002805473ffffffffffffffffffffffffffffffffffffffff19166001600160a01b0392909216919091179055565b60095490565b610921610297610cd6565b61093d5760405162461bcd60e51b815260040161049d90611fe3565b6109468161105a565b50565b610954610297610cd6565b6109705760405162461bcd60e51b815260040161049d90611fe3565b600154600160a01b900460ff161561099a5760405162461bcd60e51b815260040161049d90612033565b6001805460ff60a01b1916600160a01b1790557f62e78cea01bee320cd4e420270b5ea74000d11b0c9f74754ebdbfc544b05a258610582610cd6565b60045490565b60066020526000908152604090208054600182015460029092015467ffffffffffffffff80831693600160401b9093041691906001600160a01b031684565b6000908152600660205260409020600201546001600160a01b031690565b6003546001600160a01b031690565b6001546001600160a01b031690565b6001546000906001600160a01b0316610a6e610cd6565b6001600160a01b031614905090565b610a85610a57565b610aa15760405162461bcd60e51b815260040161049d90612063565b60045415610ac15760405162461bcd60e51b815260040161049d90612093565b60045460009081526006602052604090205467ffffffffffffffff16158015610b0a5750600454600090815260066020526040902054600160401b900467ffffffffffffffff16155b610b265760405162461bcd60e51b815260040161049d90612043565b61080560006110a2565b6000610b3d60045461041c565b905090565b610b4a610a57565b610b665760405162461bcd60e51b815260040161049d90612063565b60085460ff1615610b7657600080fd5b610b9e604051610b8590611f52565b604051908190039020600790601063ffffffff6111f516565b6008805460ff19166001179055565b610bb5610a57565b610bd15760405162461bcd60e51b815260040161049d90612063565b61094681611280565b60055490565b610be8610b30565b15610bf557610bf5610cda565b6002546001600160a01b03163314610c0c57600080fd5b6000610c18838361130f565b600954909150610c2e908263ffffffff61138816565b6009556040516001600160a01b038416907f2799180fb0f59973ce8643f2079ddedfb4c9c9c60cdd7d02c1c7798a379671d290610c6c9084906120a3565b60405180910390a250505050565b6001600160a01b031690565b6000828152602084815260408083208484526003810190925282205480610cb05760009250610ccd565b816002018181548110610cbf57fe5b906000526020600020015492505b50509392505050565b3390565b600954610ce657610805565b6004546000818152600660205260408120600954909190610d0a60001943016113ca565b81610d1157fe5b0690506000610d45610d40604051610d2890611f52565b6040519081900390206007908563ffffffff61140d16565b6106ac565b90506001600160a01b038116610d6d5760405162461bcd60e51b815260040161049d90611ff3565b60028301805473ffffffffffffffffffffffffffffffffffffffff19166001600160a01b03838116919091179091556003546040517f70a0823100000000000000000000000000000000000000000000000000000000815260009291909116906370a0823190610de1903090600401611f5d565b60206040518083038186803b158015610df957600080fd5b505afa158015610e0d573d6000803e3d6000fd5b505050506040513d601f19601f82011682018060405250610e319190810190611a72565b90508084600101819055507fa49385eb61e4f439063d5c00de2ab7a1fff06ca35f6f06fb634d21a2e8ad3279858383604051610e6f939291906120b1565b60405180910390a16004805460010190819055610e8b906110a2565b6003546040517fe3b99e850000000000000000000000000000000000000000000000000000000081526001600160a01b039091169063e3b99e8590610ed69085908590600401611f79565b602060405180830381600087803b158015610ef057600080fd5b505af1158015610f04573d6000803e3d6000fd5b505050506040513d601f19601f820116820180604052506107ed9190810190611a36565b6000610f3383610c7a565b90506000610f6e83610f62604051610f4a90611f52565b6040519081900390206007908663ffffffff610c8616565b9063ffffffff610f9e16565b9050610f98604051610f7f90611f52565b604051908190039020600790838563ffffffff6114d016565b50505050565b600082820183811015610fc35760405162461bcd60e51b815260040161049d90612013565b9392505050565b60006001600160a01b038216610ff25760405162461bcd60e51b815260040161049d90612073565b506001600160a01b03166000908152602091909152604090205460ff1690565b61102360008263ffffffff6117a716565b6040516001600160a01b038216907fcd265ebaf09df2871cc7bd4133404a235ba12eff2041bb89d9c714a2621c7c7e90600090a250565b61106b60008263ffffffff6117ef16565b6040516001600160a01b038216907f6719d08c1888103bea251a4ed56406bd0c3e69723c8a1686e017e7bbe159b6f890600090a250565b8015806110fc5750600019810160009081526006602052604090205442600160401b90910467ffffffffffffffff161080156110fc575060001981016000908152600660205260409020600201546001600160a01b031615155b61110557600080fd5b6000818152600660205260409020805467ffffffffffffffff1615801561113c57508054600160401b900467ffffffffffffffff16155b8015611153575060028101546001600160a01b0316155b61115c57600080fd5b60055481544291820167ffffffffffffffff818116600160401b027fffffffffffffffffffffffffffffffff0000000000000000ffffffffffffffff91851667ffffffffffffffff1990941693909317169190911783556040517fe51113a62fc9e06008ca1c963fa05a240e64d51af7fdb2178c2a302cfcc5052f906111e7908690859085906120d9565b60405180910390a150505050565b60008281526020849052604090208054156112225760405162461bcd60e51b815260040161049d90612083565b600182116112425760405162461bcd60e51b815260040161049d90611fb3565b81815560006112546001830182611916565b5060006112646002830182611916565b5060020180546001810182556000918252602082200155505050565b6001600160a01b0381166112a65760405162461bcd60e51b815260040161049d90612003565b6001546040516001600160a01b038084169216907f8be0079c531659141344cd1fd0a4f28419497f9722a3daafe3b4186f6b6457e090600090a36001805473ffffffffffffffffffffffffffffffffffffffff19166001600160a01b0392909216919091179055565b60008061131b84610c7a565b9050600061134660405161132e90611f52565b6040519081900390206007908463ffffffff610c8616565b90506000611354828661183b565b905061137e60405161136590611f52565b604051908190039020600790838663ffffffff6114d016565b9003949350505050565b6000610fc383836040518060400160405280601e81526020017f536166654d6174683a207375627472616374696f6e206f766572666c6f770000815250611857565b60008140806113f25760ff831660ff1943160192504383106113ee57610100830392505b5081405b60095443808301600019909101400182029091020292915050565b600082815260208490526040812060028101805483918291829061142d57fe5b9060005260206000200154858161144057fe5b0690505b60028301548354830260010110156114b55760015b835481116114af5760008184866000015402019050600085600201828154811061147f57fe5b9060005260206000200154905080841061149d5780840393506114a5565b5092506114af565b5050600101611459565b50611444565b50600090815260049091016020526040902054949350505050565b60008381526020858152604080832084845260038101909252909120548061165b5783156116565760018201546115ce57506002810180546001808201835560009283526020909220810185905590811480159061153a5750815460001982018161153757fe5b06155b156115c9578154600090828161154c57fe5b046000818152600485016020526040902054600285018054929350909160018501919081908590811061157b57fe5b60009182526020808320909101548354600181018555938352818320909301929092559384526004860180825260408086208690558486526003880183528086208490559285529052909120555b611623565b60018201805460001981019081106115e257fe5b600091825260209091200154600183018054919250611605906000198301611916565b508382600201828154811061161657fe5b6000918252602090912001555b60008381526003830160209081526040808320849055838352600485019091529020839055611656868683600188611883565b6107ed565b836116ec57600082600201828154811061167157fe5b90600052602060002001549050600083600201838154811061168f57fe5b60009182526020808320909101929092556001808601805491820181558252828220018490558581526003850182526040808220829055848252600486019092529081208190556116e69088908890859085611883565b506107ed565b8160020181815481106116fb57fe5b906000526020600020015484146107ed5760008483600201838154811061171e57fe5b906000526020600020015411159050600081611755578584600201848154811061174457fe5b906000526020600020015403611772565b83600201838154811061176457fe5b906000526020600020015486035b90508584600201848154811061178457fe5b60009182526020909120015561179d8888858585611883565b5050505050505050565b6117b18282610fca565b6117cd5760405162461bcd60e51b815260040161049d90612053565b6001600160a01b0316600090815260209190915260409020805460ff19169055565b6117f98282610fca565b156118165760405162461bcd60e51b815260040161049d90611fd3565b6001600160a01b0316600090815260209190915260409020805460ff19166001179055565b60008183111561184e5750808203610416565b50600092915050565b6000818484111561187b5760405162461bcd60e51b815260040161049d9190611fa2565b505050900390565b6000848152602086905260409020835b801561190d5781546000198201816118a757fe5b049050836118d057828260020182815481106118bf57fe5b9060005260206000200154036118ed565b828260020182815481106118e057fe5b9060005260206000200154015b8260020182815481106118fc57fe5b600091825260209091200155611893565b50505050505050565b81548183558181111561193a5760008381526020902061193a91810190830161193f565b505050565b6106ac91905b808211156119595760008155600101611945565b5090565b8035610416816121c0565b8051610416816121d4565b8035610416816121dd565b8051610416816121dd565b60006020828403121561199b57600080fd5b60006119a7848461195d565b949350505050565b600080604083850312156119c257600080fd5b60006119ce858561195d565b92505060206119df8582860161195d565b9150509250929050565b6000806000606084860312156119fe57600080fd5b6000611a0a868661195d565b9350506020611a1b8682870161195d565b9250506040611a2c86828701611973565b9150509250925092565b600060208284031215611a4857600080fd5b60006119a78484611968565b600060208284031215611a6657600080fd5b60006119a78484611973565b600060208284031215611a8457600080fd5b60006119a7848461197e565b611a998161216e565b82525050565b611a9981612151565b611a998161215c565b6000611abc8261213f565b611ac68185612143565b9350611ad681856020860161218a565b611adf816121b6565b9093019392505050565b6000611af6601b83612143565b7f4b206d7573742062652067726561746572207468616e206f6e652e0000000000815260200192915050565b6000611b2f601483612143565b7f5061757361626c653a206e6f7420706175736564000000000000000000000000815260200192915050565b6000611b68601f83612143565b7f526f6c65733a206163636f756e7420616c72656164792068617320726f6c6500815260200192915050565b6000611ba1603083612143565b7f506175736572526f6c653a2063616c6c657220646f6573206e6f74206861766581527f207468652050617573657220726f6c6500000000000000000000000000000000602082015260400192915050565b6000611c00601383612143565b7f506f776572544f4e3a206e6f2077696e6e657200000000000000000000000000815260200192915050565b6000611c39602683612143565b7f4f776e61626c653a206e6577206f776e657220697320746865207a65726f206181527f6464726573730000000000000000000000000000000000000000000000000000602082015260400192915050565b6000611c98601b83612143565b7f536166654d6174683a206164646974696f6e206f766572666c6f770000000000815260200192915050565b6000611cd1600e8361214c565b7f706f7765722d62616c616e6365730000000000000000000000000000000000008152600e0192915050565b6000611d0a601c83612143565b7f506f776572544f4e3a20726f756e64206e6f742066696e697368656400000000815260200192915050565b6000611d43601083612143565b7f5061757361626c653a2070617573656400000000000000000000000000000000815260200192915050565b6000611d7c601f83612143565b7f506f776572544f4e3a20726f756e6420616c7265616479207374617274656400815260200192915050565b6000611db5602183612143565b7f526f6c65733a206163636f756e7420646f6573206e6f74206861766520726f6c81527f6500000000000000000000000000000000000000000000000000000000000000602082015260400192915050565b6000611e14602083612143565b7f4f776e61626c653a2063616c6c6572206973206e6f7420746865206f776e6572815260200192915050565b6000611e4d602283612143565b7f526f6c65733a206163636f756e7420697320746865207a65726f20616464726581527f7373000000000000000000000000000000000000000000000000000000000000602082015260400192915050565b6000611eac601483612143565b7f5472656520616c7265616479206578697374732e000000000000000000000000815260200192915050565b6000611ee5602383612143565b7f506f776572544f4e3a2063757272656e7420726f756e64206973206e6f74207a81527f65726f0000000000000000000000000000000000000000000000000000000000602082015260400192915050565b611a99816106ac565b611a998161217f565b611a9981612161565b600061041682611cc4565b602081016104168284611a9f565b602081016104168284611a90565b60408101611f878285611a9f565b610fc36020830184611f37565b602081016104168284611aa8565b60208082528101610fc38184611ab1565b6020808252810161041681611ae9565b6020808252810161041681611b22565b6020808252810161041681611b5b565b6020808252810161041681611b94565b6020808252810161041681611bf3565b6020808252810161041681611c2c565b6020808252810161041681611c8b565b6020808252810161041681611cfd565b6020808252810161041681611d36565b6020808252810161041681611d6f565b6020808252810161041681611da8565b6020808252810161041681611e07565b6020808252810161041681611e40565b6020808252810161041681611e9f565b6020808252810161041681611ed8565b602081016104168284611f37565b606081016120bf8286611f37565b6120cc6020830185611a9f565b6119a76040830184611f37565b606081016120e78286611f37565b6120f46020830185611f40565b6119a76040830184611f40565b6080810161210f8287611f49565b61211c6020830186611f49565b6121296040830185611f37565b6121366060830184611a9f565b95945050505050565b5190565b90815260200190565b919050565b600061041682610c7a565b151590565b67ffffffffffffffff1690565b600061041682600061041682612151565b600061041682612161565b60005b838110156121a557818101518382015260200161218d565b83811115610f985750506000910152565b601f01601f191690565b6121c981612151565b811461094657600080fd5b6121c98161215c565b6121c9816106ac56fea365627a7a72315820d8aa75954826edcb96d1dee86416933e9af102df0f047c7f43f57e899fada4b16c6578706572696d656e74616cf564736f6c634300050c0040",
  "linkReferences": {},
  "deployedLinkReferences": {}
}