{
  "contractName": "AutoRefactorCoinageWithTokenId",
  "abi": [
    {
      "inputs": [
        {
          "internalType": "uint256",
          "name": "initfactor",
          "type": "uint256"
        }
      ],
      "stateMutability": "nonpayable",
      "type": "constructor"
    },
    {
      "anonymous": false,
      "inputs": [
        {
          "indexed": true,
          "internalType": "address",
          "name": "tokenOwner",
          "type": "address"
        },
        {
          "indexed": true,
          "internalType": "uint256",
          "name": "tokenId",
          "type": "uint256"
        },
        {
          "indexed": false,
          "internalType": "uint256",
          "name": "amount",
          "type": "uint256"
        }
      ],
      "name": "Burned",
      "type": "event"
    },
    {
      "anonymous": false,
      "inputs": [
        {
          "indexed": false,
          "internalType": "uint256",
          "name": "previous",
          "type": "uint256"
        },
        {
          "indexed": false,
          "internalType": "uint256",
          "name": "current",
          "type": "uint256"
        },
        {
          "indexed": false,
          "internalType": "uint256",
          "name": "shiftCount",
          "type": "uint256"
        }
      ],
      "name": "FactorSet",
      "type": "event"
    },
    {
      "anonymous": false,
      "inputs": [
        {
          "indexed": true,
          "internalType": "address",
          "name": "tokenOwner",
          "type": "address"
        },
        {
          "indexed": true,
          "internalType": "uint256",
          "name": "tokenId",
          "type": "uint256"
        },
        {
          "indexed": false,
          "internalType": "uint256",
          "name": "amount",
          "type": "uint256"
        }
      ],
      "name": "Mined",
      "type": "event"
    },
    {
      "anonymous": false,
      "inputs": [
        {
          "indexed": true,
          "internalType": "bytes32",
          "name": "role",
          "type": "bytes32"
        },
        {
          "indexed": true,
          "internalType": "bytes32",
          "name": "previousAdminRole",
          "type": "bytes32"
        },
        {
          "indexed": true,
          "internalType": "bytes32",
          "name": "newAdminRole",
          "type": "bytes32"
        }
      ],
      "name": "RoleAdminChanged",
      "type": "event"
    },
    {
      "anonymous": false,
      "inputs": [
        {
          "indexed": true,
          "internalType": "bytes32",
          "name": "role",
          "type": "bytes32"
        },
        {
          "indexed": true,
          "internalType": "address",
          "name": "account",
          "type": "address"
        },
        {
          "indexed": true,
          "internalType": "address",
          "name": "sender",
          "type": "address"
        }
      ],
      "name": "RoleGranted",
      "type": "event"
    },
    {
      "anonymous": false,
      "inputs": [
        {
          "indexed": true,
          "internalType": "bytes32",
          "name": "role",
          "type": "bytes32"
        },
        {
          "indexed": true,
          "internalType": "address",
          "name": "account",
          "type": "address"
        },
        {
          "indexed": true,
          "internalType": "address",
          "name": "sender",
          "type": "address"
        }
      ],
      "name": "RoleRevoked",
      "type": "event"
    },
    {
      "inputs": [],
      "name": "ADMIN_ROLE",
      "outputs": [
        {
          "internalType": "bytes32",
          "name": "",
          "type": "bytes32"
        }
      ],
      "stateMutability": "view",
      "type": "function"
    },
    {
      "inputs": [],
      "name": "BURNER_ROLE",
      "outputs": [
        {
          "internalType": "bytes32",
          "name": "",
          "type": "bytes32"
        }
      ],
      "stateMutability": "view",
      "type": "function"
    },
    {
      "inputs": [],
      "name": "DEFAULT_ADMIN_ROLE",
      "outputs": [
        {
          "internalType": "bytes32",
          "name": "",
          "type": "bytes32"
        }
      ],
      "stateMutability": "view",
      "type": "function"
    },
    {
      "inputs": [],
      "name": "MINTER_ROLE",
      "outputs": [
        {
          "internalType": "bytes32",
          "name": "",
          "type": "bytes32"
        }
      ],
      "stateMutability": "view",
      "type": "function"
    },
    {
      "inputs": [],
      "name": "REFACTOR_BOUNDARY",
      "outputs": [
        {
          "internalType": "uint256",
          "name": "",
          "type": "uint256"
        }
      ],
      "stateMutability": "view",
      "type": "function"
    },
    {
      "inputs": [],
      "name": "REFACTOR_DIVIDER",
      "outputs": [
        {
          "internalType": "uint256",
          "name": "",
          "type": "uint256"
        }
      ],
      "stateMutability": "view",
      "type": "function"
    },
    {
      "inputs": [],
      "name": "_factor",
      "outputs": [
        {
          "internalType": "uint256",
          "name": "",
          "type": "uint256"
        }
      ],
      "stateMutability": "view",
      "type": "function"
    },
    {
      "inputs": [],
      "name": "_totalSupply",
      "outputs": [
        {
          "internalType": "uint256",
          "name": "balance",
          "type": "uint256"
        },
        {
          "internalType": "uint256",
          "name": "refactoredCount",
          "type": "uint256"
        },
        {
          "internalType": "uint256",
          "name": "remain",
          "type": "uint256"
        }
      ],
      "stateMutability": "view",
      "type": "function"
    },
    {
      "inputs": [
        {
          "internalType": "address",
          "name": "account",
          "type": "address"
        }
      ],
      "name": "addAdmin",
      "outputs": [],
      "stateMutability": "nonpayable",
      "type": "function"
    },
    {
      "inputs": [
        {
          "internalType": "uint256",
          "name": "",
          "type": "uint256"
        }
      ],
      "name": "balances",
      "outputs": [
        {
          "internalType": "uint256",
          "name": "balance",
          "type": "uint256"
        },
        {
          "internalType": "uint256",
          "name": "refactoredCount",
          "type": "uint256"
        },
        {
          "internalType": "uint256",
          "name": "remain",
          "type": "uint256"
        }
      ],
      "stateMutability": "view",
      "type": "function"
    },
    {
      "inputs": [],
      "name": "decimal",
      "outputs": [
        {
          "internalType": "uint8",
          "name": "",
          "type": "uint8"
        }
      ],
      "stateMutability": "view",
      "type": "function"
    },
    {
      "inputs": [
        {
          "internalType": "bytes32",
          "name": "role",
          "type": "bytes32"
        }
      ],
      "name": "getRoleAdmin",
      "outputs": [
        {
          "internalType": "bytes32",
          "name": "",
          "type": "bytes32"
        }
      ],
      "stateMutability": "view",
      "type": "function"
    },
    {
      "inputs": [
        {
          "internalType": "bytes32",
          "name": "role",
          "type": "bytes32"
        },
        {
          "internalType": "uint256",
          "name": "index",
          "type": "uint256"
        }
      ],
      "name": "getRoleMember",
      "outputs": [
        {
          "internalType": "address",
          "name": "",
          "type": "address"
        }
      ],
      "stateMutability": "view",
      "type": "function"
    },
    {
      "inputs": [
        {
          "internalType": "bytes32",
          "name": "role",
          "type": "bytes32"
        }
      ],
      "name": "getRoleMemberCount",
      "outputs": [
        {
          "internalType": "uint256",
          "name": "",
          "type": "uint256"
        }
      ],
      "stateMutability": "view",
      "type": "function"
    },
    {
      "inputs": [
        {
          "internalType": "bytes32",
          "name": "role",
          "type": "bytes32"
        },
        {
          "internalType": "address",
          "name": "account",
          "type": "address"
        }
      ],
      "name": "grantRole",
      "outputs": [],
      "stateMutability": "nonpayable",
      "type": "function"
    },
    {
      "inputs": [
        {
          "internalType": "bytes32",
          "name": "role",
          "type": "bytes32"
        },
        {
          "internalType": "address",
          "name": "account",
          "type": "address"
        }
      ],
      "name": "hasRole",
      "outputs": [
        {
          "internalType": "bool",
          "name": "",
          "type": "bool"
        }
      ],
      "stateMutability": "view",
      "type": "function"
    },
    {
      "inputs": [
        {
          "internalType": "address",
          "name": "account",
          "type": "address"
        }
      ],
      "name": "isAdmin",
      "outputs": [
        {
          "internalType": "bool",
          "name": "",
          "type": "bool"
        }
      ],
      "stateMutability": "view",
      "type": "function"
    },
    {
      "inputs": [],
      "name": "refactorCount",
      "outputs": [
        {
          "internalType": "uint256",
          "name": "",
          "type": "uint256"
        }
      ],
      "stateMutability": "view",
      "type": "function"
    },
    {
      "inputs": [
        {
          "internalType": "address",
          "name": "account",
          "type": "address"
        }
      ],
      "name": "removeAdmin",
      "outputs": [],
      "stateMutability": "nonpayable",
      "type": "function"
    },
    {
      "inputs": [
        {
          "internalType": "bytes32",
          "name": "role",
          "type": "bytes32"
        },
        {
          "internalType": "address",
          "name": "account",
          "type": "address"
        }
      ],
      "name": "renounceRole",
      "outputs": [],
      "stateMutability": "nonpayable",
      "type": "function"
    },
    {
      "inputs": [
        {
          "internalType": "bytes32",
          "name": "role",
          "type": "bytes32"
        },
        {
          "internalType": "address",
          "name": "account",
          "type": "address"
        }
      ],
      "name": "revokeRole",
      "outputs": [],
      "stateMutability": "nonpayable",
      "type": "function"
    },
    {
      "inputs": [
        {
          "internalType": "address",
          "name": "newAdmin",
          "type": "address"
        }
      ],
      "name": "transferAdmin",
      "outputs": [],
      "stateMutability": "nonpayable",
      "type": "function"
    },
    {
      "inputs": [],
      "name": "factor",
      "outputs": [
        {
          "internalType": "uint256",
          "name": "",
          "type": "uint256"
        }
      ],
      "stateMutability": "view",
      "type": "function"
    },
    {
      "inputs": [],
      "name": "totalSupply",
      "outputs": [
        {
          "internalType": "uint256",
          "name": "",
          "type": "uint256"
        }
      ],
      "stateMutability": "view",
      "type": "function"
    },
    {
      "inputs": [
        {
          "internalType": "uint256",
          "name": "tokenId",
          "type": "uint256"
        }
      ],
      "name": "balanceOf",
      "outputs": [
        {
          "internalType": "uint256",
          "name": "",
          "type": "uint256"
        }
      ],
      "stateMutability": "view",
      "type": "function"
    },
    {
      "inputs": [
        {
          "internalType": "uint256",
          "name": "infactor",
          "type": "uint256"
        }
      ],
      "name": "setFactor",
      "outputs": [
        {
          "internalType": "uint256",
          "name": "",
          "type": "uint256"
        }
      ],
      "stateMutability": "nonpayable",
      "type": "function"
    },
    {
      "inputs": [
        {
          "internalType": "address",
          "name": "tokenOwner",
          "type": "address"
        },
        {
          "internalType": "uint256",
          "name": "tokenId",
          "type": "uint256"
        },
        {
          "internalType": "uint256",
          "name": "amount",
          "type": "uint256"
        }
      ],
      "name": "mint",
      "outputs": [
        {
          "internalType": "bool",
          "name": "",
          "type": "bool"
        }
      ],
      "stateMutability": "nonpayable",
      "type": "function"
    },
    {
      "inputs": [
        {
          "internalType": "address",
          "name": "tokenOwner",
          "type": "address"
        },
        {
          "internalType": "uint256",
          "name": "tokenId",
          "type": "uint256"
        },
        {
          "internalType": "uint256",
          "name": "amount",
          "type": "uint256"
        }
      ],
      "name": "burn",
      "outputs": [],
      "stateMutability": "nonpayable",
      "type": "function"
    },
    {
      "inputs": [
        {
          "internalType": "address",
          "name": "tokenOwner",
          "type": "address"
        },
        {
          "internalType": "uint256",
          "name": "tokenId",
          "type": "uint256"
        }
      ],
      "name": "burnTokenId",
      "outputs": [],
      "stateMutability": "nonpayable",
      "type": "function"
    },
    {
      "inputs": [
        {
          "internalType": "uint256",
          "name": "tokenId",
          "type": "uint256"
        }
      ],
      "name": "balancesTokenId",
      "outputs": [
        {
          "internalType": "uint256",
          "name": "balance",
          "type": "uint256"
        },
        {
          "internalType": "uint256",
          "name": "refactoredCount",
          "type": "uint256"
        },
        {
          "internalType": "uint256",
          "name": "remain",
          "type": "uint256"
        }
      ],
      "stateMutability": "view",
      "type": "function"
    }
  ],
  "bytecode": "0x60806040526001805460ff1916601b1790556b204fce5e3e2502611000000060029081556003553480156200003357600080fd5b506040516200167738038062001677833981810160405260208110156200005957600080fd5b505160098190556200007b60008051602062001657833981519152806200009d565b620000966000805160206200165783398151915233620000ef565b5062000203565b600082815260208190526040808220600201549051839285917fbd79b86ffe0ab8e8776151514217cd7cacd52c909f66475c3af44e129f0b00ff9190a460009182526020829052604090912060020155565b620000fb8282620000ff565b5050565b6000828152602081815260409091206200012491839062000cbf62000178821b17901c565b15620000fb576200013462000198565b6001600160a01b0316816001600160a01b0316837f2f8788117e7eff1d82e926ec794901d17c78024a50270940304540a733656f0d60405160405180910390a45050565b60006200018f836001600160a01b0384166200019c565b90505b92915050565b3390565b6000620001aa8383620001eb565b620001e25750815460018181018455600084815260208082209093018490558454848252828601909352604090209190915562000192565b50600062000192565b60009081526001919091016020526040902054151590565b61144480620002136000396000f3fe608060405234801561001057600080fd5b50600436106101995760003560e01c806375829def116100e4578063a217fddf11610092578063a217fddf14610467578063a7ac30b01461046f578063b7c246d714610477578063c1211c431461047f578063ca15c8731461049c578063d5391393146104b9578063d547741f146104c1578063f5298aca146104ed57610199565b806375829def1461037657806375b238fc1461039c57806376809ce3146103a4578063817e9d31146103c25780639010d07c146103df57806391d148541461041e5780639cc7f7081461044a57610199565b80632f2ff15d1161014c5780632f2ff15d1461027957806336568abe146102a55780633eaaf86b146102d15780634903b0d1146102f757806354f703f8146103145780636621a0251461031c5780636d15061114610348578063704802751461035057610199565b8062d87a9c1461019e578063156e29f6146101b85780631785f53c146101fe57806318160ddd14610226578063248a9ca31461022e57806324d7806c1461024b578063282c51f314610271575b600080fd5b6101a661051f565b60408051918252519081900360200190f35b6101ea600480360360608110156101ce57600080fd5b506001600160a01b038135169060208101359060400135610525565b604080519115158252519081900360200190f35b6102246004803603602081101561021457600080fd5b50356001600160a01b0316610605565b005b6101a6610664565b6101a66004803603602081101561024457600080fd5b5035610680565b6101ea6004803603602081101561026157600080fd5b50356001600160a01b0316610695565b6101a66106b5565b6102246004803603604081101561028f57600080fd5b50803590602001356001600160a01b03166106d9565b610224600480360360408110156102bb57600080fd5b50803590602001356001600160a01b0316610745565b6102d96107a6565b60408051938452602084019290925282820152519081900360600190f35b6102d96004803603602081101561030d57600080fd5b50356107b2565b6101a66107d3565b6102246004803603604081101561033257600080fd5b506001600160a01b0381351690602001356107fb565b6101a6610883565b6102246004803603602081101561036657600080fd5b50356001600160a01b0316610889565b6102246004803603602081101561038c57600080fd5b50356001600160a01b03166108e5565b6101a6610a06565b6103ac610a18565b6040805160ff9092168252519081900360200190f35b6101a6600480360360208110156103d857600080fd5b5035610a21565b610402600480360360408110156103f557600080fd5b5080359060200135610ae6565b604080516001600160a01b039092168252519081900360200190f35b6101ea6004803603604081101561043457600080fd5b50803590602001356001600160a01b0316610b05565b6101a66004803603602081101561046057600080fd5b5035610b1d565b6101a6610b49565b6101a6610b4e565b6101a6610b54565b6102d96004803603602081101561049557600080fd5b5035610b5a565b6101a6600480360360208110156104b257600080fd5b5035610b79565b6101a6610b90565b610224600480360360408110156104d757600080fd5b50803590602001356001600160a01b0316610bb4565b6102246004803603606081101561050357600080fd5b506001600160a01b038135169060208101359060400135610c0d565b60035481565b600061053033610695565b61056b5760405162461bcd60e51b81526004018080602001828103825260228152602001806112c96022913960400191505060405180910390fd5b836001600160a01b0381166105b15760405162461bcd60e51b815260040180806020018281038252602b81526020018061137b602b913960400191505060405180910390fd5b83806105ee5760405162461bcd60e51b815260040180806020018281038252602b81526020018061137b602b913960400191505060405180910390fd5b6105f9868686610cd4565b50600195945050505050565b61060e33610695565b6106495760405162461bcd60e51b81526004018080602001828103825260228152602001806112c96022913960400191505060405180910390fd5b61066160008051602061135b83398151915282610745565b50565b6008546006546007546000929161067a91610d9d565b01905090565b60009081526020819052604090206002015490565b60006106af60008051602061135b83398151915283610b05565b92915050565b7f9667e80708b6eeeb0053fa0cca44e028ff548e2a9f029edfeac87c118b08b7c881565b6000828152602081905260409020600201546106fc906106f7610dde565b610b05565b6107375760405162461bcd60e51b815260040180806020018281038252602f815260200180611262602f913960400191505060405180910390fd5b6107418282610de2565b5050565b61074d610dde565b6001600160a01b0316816001600160a01b03161461079c5760405162461bcd60e51b815260040180806020018281038252602f8152602001806113e0602f913960400191505060405180910390fd5b6107418282610e4b565b60065460075460085483565b60056020526000908152604090208054600182015460029092015490919083565b600954600090815b6004548110156107f55760035491909102906001016107db565b50905090565b61080433610695565b61083f5760405162461bcd60e51b81526004018080602001828103825260228152602001806112c96022913960400191505060405180910390fd5b6000610849610664565b905061085482610b1d565b81101561086b57610866838383610eb4565b61087e565b61087e838361087985610b1d565b610eb4565b505050565b60095481565b61089233610695565b6108cd5760405162461bcd60e51b81526004018080602001828103825260228152602001806112c96022913960400191505060405180910390fd5b61066160008051602061135b833981519152826106d9565b6108ee33610695565b6109295760405162461bcd60e51b81526004018080602001828103825260228152602001806112c96022913960400191505060405180910390fd5b6001600160a01b03811661097f576040805162461bcd60e51b815260206004820152601860248201527741636365737369626c653a207a65726f206164647265737360401b604482015290519081900360640190fd5b336001600160a01b03821614156109d6576040805162461bcd60e51b815260206004820152601660248201527520b1b1b2b9b9b4b136329d1039b0b6b29030b236b4b760511b604482015290519081900360640190fd5b6109ee60008051602061135b833981519152826106d9565b61066160008051602061135b83398151915233610745565b60008051602061135b83398151915281565b60015460ff1681565b6000610a2c33610695565b610a675760405162461bcd60e51b81526004018080602001828103825260228152602001806112c96022913960400191505060405180910390fd5b6009546000835b6002548110610a90578160010191506003548181610a8857fe5b049050610a6e565b60048290556009819055604080518481526020810183905280820184905290517f47eb304b27f9efb047a046029f8a279a7cc8fccc6786f1e2f65939639584fbdc9181900360600190a150506009549392505050565b6000828152602081905260408120610afe9083610f63565b9392505050565b6000828152602081905260408120610afe9083610f6f565b6000818152600560205260408120600281015481546001830154610b419190610d9d565b019392505050565b600081565b60045481565b60025481565b6000908152600560205260409020805460018201546002909201549092565b60008181526020819052604081206106af90610f84565b7ff0887ba65ee2024ea881d91b74c2450ef19e1557f03bed3ea9f16b037cbe2dc981565b600082815260208190526040902060020154610bd2906106f7610dde565b61079c5760405162461bcd60e51b81526004018080602001828103825260308152602001806112eb6030913960400191505060405180910390fd5b610c1633610695565b610c515760405162461bcd60e51b81526004018080602001828103825260228152602001806112c96022913960400191505060405180910390fd5b610c5a82610b1d565b811115610c985760405162461bcd60e51b815260040180806020018281038252604081526020018061131b6040913960400191505060405180910390fd5b610ca0610664565b811115610cb4576108668383610879610664565b61087e838383610eb4565b6000610afe836001600160a01b038416610f8f565b81610d105760405162461bcd60e51b81526004018080602001828103825260388152602001806112916038913960400191505060405180910390fd5b600082815260056020526040812090610d2884610b1d565b90508281016000610d3882610fd9565b80855560045460018601559050610d4e85610fe7565b85876001600160a01b03167f5a9ec13c12ca9563a7b3108125f74c57ed388bb313394ea50f7e4a71b01497c2610d8384611018565b60408051918252519081900360200190a350505050505050565b600082610dac575060006106af565b610db883600954611022565b9250815b600454811015610dd6576003549390930292600101610dbc565b509192915050565b3390565b6000828152602081905260409020610dfa9082610cbf565b1561074157610e07610dde565b6001600160a01b0316816001600160a01b0316837f2f8788117e7eff1d82e926ec794901d17c78024a50270940304540a733656f0d60405160405180910390a45050565b6000828152602081905260409020610e63908261104a565b1561074157610e70610dde565b6001600160a01b0316816001600160a01b0316837ff6391f5c32d9c69d2a47ea670b442974b53935d1edc7fd64eb21e047a839171b60405160405180910390a45050565b81610ef05760405162461bcd60e51b815260040180806020018281038252603a8152602001806113a6603a913960400191505060405180910390fd5b600082815260056020526040812090610f0884610b1d565b90508281036000610f1882610fd9565b80855560045460018601559050610f2e8561105f565b85876001600160a01b03167f23ff0e75edf108e3d0392d92e13e8c8a868ef19001bd49f9e94876dc46dff87f610d8384611018565b6000610afe8383611081565b6000610afe836001600160a01b0384166110e5565b60006106af826110fd565b6000610f9b83836110e5565b610fd1575081546001818101845560008481526020808220909301849055845484825282860190935260409020919091556106af565b5060006106af565b60006106af82600954611101565b600654600754600091610ff991610d9d565b9050818101600061100982610fd9565b60065550506004546007555050565b60006106af826009545b60006b033b2e3c9fd0803ce800000061103b8484611116565b8161104257fe5b049392505050565b6000610afe836001600160a01b038416611179565b60065460075460009161107191610d9d565b9050818103600061100982610fd9565b815460009082106110c35760405162461bcd60e51b81526004018080602001828103825260228152602001806112406022913960400191505060405180910390fd5b8260000182815481106110d257fe5b9060005260206000200154905092915050565b60009081526001919091016020526040902054151590565b5490565b60008161103b846b033b2e3c9fd0803ce80000005b60008115806111315750508082028282828161112e57fe5b04145b6106af576040805162461bcd60e51b815260206004820152601460248201527364732d6d6174682d6d756c2d6f766572666c6f7760601b604482015290519081900360640190fd5b6000818152600183016020526040812054801561123557835460001980830191908101906000908790839081106111ac57fe5b90600052602060002001549050808760000184815481106111c957fe5b6000918252602080832090910192909255828152600189810190925260409020908401905586548790806111f957fe5b600190038181906000526020600020016000905590558660010160008781526020019081526020016000206000905560019450505050506106af565b60009150506106af56fe456e756d657261626c655365743a20696e646578206f7574206f6620626f756e6473416363657373436f6e74726f6c3a2073656e646572206d75737420626520616e2061646d696e20746f206772616e744175746f5265666163746f72436f696e61676557697468546f6b656e49643a206d696e7420746f20746865207a65726f20746f6b656e496441636365737369626c653a2043616c6c6572206973206e6f7420616e2061646d696e416363657373436f6e74726f6c3a2073656e646572206d75737420626520616e2061646d696e20746f207265766f6b654175746f5265666163746f72436f696e61676557697468546f6b656e49643a20496e73756666696369656e742062616c616e6365206f6620746f6b656e204944df8b4c520ffe197c5343c6f5aec59570151ef9a492f2c624fd45ddde6135ec424175746f5265666163746f72436f696e61676557697468546f6b656e49643a7a65726f20616464726573734175746f5265666163746f72436f696e61676557697468546f6b656e49643a206275726e2066726f6d20746865207a65726f20746f6b656e4964416363657373436f6e74726f6c3a2063616e206f6e6c792072656e6f756e636520726f6c657320666f722073656c66a26469706673582212202711e8dcda814c77883cd6890f2f9fdae10565e9157984ded7c497a9d13a667964736f6c63430007060033df8b4c520ffe197c5343c6f5aec59570151ef9a492f2c624fd45ddde6135ec42",
  "immutableReferences": {},
  "source": "// SPDX-License-Identifier: MIT\npragma solidity ^0.7.6;\n\nimport {\n    IAutoRefactorCoinageWithTokenId\n} from \"../interfaces/IAutoRefactorCoinageWithTokenId.sol\";\nimport {DSMath} from \"../libraries/DSMath.sol\";\nimport \"../common/AccessibleCommon.sol\";\n\n/**\n * @dev Implementation of coin age token based on ERC20 of openzeppelin-solidity\n *\n * AutoRefactorCoinageWithTokenId stores `_totalSupply` and `_balances` as RAY BASED value,\n * `_allowances` as RAY FACTORED value.\n *\n * This takes public function (including _approve) parameters as RAY FACTORED value\n * and internal function (including approve) parameters as RAY BASED value, and emits event in RAY FACTORED value.\n *\n * `RAY BASED` = `RAY FACTORED`  / factor\n *\n *  factor increases exponentially for each block mined.\n */\ncontract AutoRefactorCoinageWithTokenId is\n    DSMath,\n    AccessibleCommon,\n    IAutoRefactorCoinageWithTokenId\n{\n    struct Balance {\n        uint256 balance;\n        uint256 refactoredCount;\n        uint256 remain;\n    }\n\n    // string public _name;\n    // string public _symbol;\n    uint8 public decimal = 27;\n    uint256 public REFACTOR_BOUNDARY = 10**28;\n    uint256 public REFACTOR_DIVIDER = 2;\n\n    uint256 public override refactorCount;\n\n    mapping(uint256 => Balance) public balances;\n\n    Balance public _totalSupply;\n\n    uint256 public override _factor;\n\n    bool internal _transfersEnabled;\n\n    event FactorSet(uint256 previous, uint256 current, uint256 shiftCount);\n\n    modifier nonZero(uint256 tokenId) {\n        require(tokenId != 0, \"AutoRefactorCoinageWithTokenId:zero address\");\n        _;\n    }\n    modifier nonZeroAddress(address account) {\n        require(\n            account != address(0),\n            \"AutoRefactorCoinageWithTokenId:zero address\"\n        );\n        _;\n    }\n\n    /// @dev event on mining\n    /// @param tokenOwner owner of tokenId\n    /// @param tokenId mining tokenId\n    /// @param amount  mined amount\n    event Mined(\n        address indexed tokenOwner,\n        uint256 indexed tokenId,\n        uint256 amount\n    );\n\n    /// @dev event on burn\n    /// @param tokenOwner owner of tokenId\n    /// @param tokenId mining tokenId\n    /// @param amount  mined amount\n    event Burned(\n        address indexed tokenOwner,\n        uint256 indexed tokenId,\n        uint256 amount\n    );\n\n    constructor(uint256 initfactor) {\n        _factor = initfactor;\n\n        //_factorIncrement = factorIncrement;\n        //_lastBlock = block.number;\n        //_transfersEnabled = transfersEnabled;\n\n        //_setupDecimals(decimal);\n\n        _setRoleAdmin(ADMIN_ROLE, ADMIN_ROLE);\n        _setupRole(ADMIN_ROLE, msg.sender);\n    }\n\n    function factor() public view override returns (uint256) {\n        uint256 result = _factor;\n        for (uint256 i = 0; i < refactorCount; i++) {\n            result = result * (REFACTOR_DIVIDER);\n        }\n        return result;\n    }\n\n    /**\n     * @dev See {IERC20-totalSupply}.\n     */\n    function totalSupply() public view override returns (uint256) {\n        return\n            _applyFactor(_totalSupply.balance, _totalSupply.refactoredCount) +\n            (_totalSupply.remain);\n    }\n\n    /**\n     * @dev See {IERC20-balanceOf}.\n     */\n    function balanceOf(uint256 tokenId) public view override returns (uint256) {\n        Balance storage b = balances[tokenId];\n\n        return _applyFactor(b.balance, b.refactoredCount) + (b.remain);\n    }\n\n    /** @dev Creates `amount` tokens and assigns them to `tokenId`, increasing\n     * the total supply.\n     *\n     * Emits a {Transfer} event with `from` set to the zero address.\n     *\n     * Requirements\n     *\n     * - `to` cannot be the zero address.\n     */\n    function _mint(\n        address tokenOwner,\n        uint256 tokenId,\n        uint256 amount\n    ) internal {\n        require(\n            tokenId != 0,\n            \"AutoRefactorCoinageWithTokenId: mint to the zero tokenId\"\n        );\n        Balance storage b = balances[tokenId];\n\n        uint256 currentBalance = balanceOf(tokenId);\n        uint256 newBalance = currentBalance + amount;\n\n        uint256 rbAmount = _toRAYBased(newBalance);\n        b.balance = rbAmount;\n        b.refactoredCount = refactorCount;\n\n        addTotalSupply(amount);\n        emit Mined(tokenOwner, tokenId, _toRAYFactored(rbAmount));\n    }\n\n    /**\n     * @dev Destroys `amount` tokens from `tokenId`, reducing the\n     * total supply.\n     *\n     * Emits a {Transfer} event with `to` set to the zero address.\n     *\n     * Requirements\n     *\n     * - `tokenId` cannot be the zero .\n     * - `tokenId` must have at least `amount` tokens.\n     */\n    function _burn(\n        address tokenOwner,\n        uint256 tokenId,\n        uint256 amount\n    ) internal {\n        require(\n            tokenId != 0,\n            \"AutoRefactorCoinageWithTokenId: burn from the zero tokenId\"\n        );\n        Balance storage b = balances[tokenId];\n\n        uint256 currentBalance = balanceOf(tokenId);\n        uint256 newBalance = currentBalance - amount;\n\n        uint256 rbAmount = _toRAYBased(newBalance);\n        b.balance = rbAmount;\n        b.refactoredCount = refactorCount;\n\n        subTotalSupply(amount);\n        emit Burned(tokenOwner, tokenId, _toRAYFactored(rbAmount));\n    }\n\n    // helpers\n\n    /**\n     * @param v the value to be factored\n     */\n    function _applyFactor(uint256 v, uint256 refactoredCount)\n        internal\n        view\n        returns (uint256)\n    {\n        if (v == 0) {\n            return 0;\n        }\n\n        v = rmul2(v, _factor);\n\n        for (uint256 i = refactoredCount; i < refactorCount; i++) {\n            v = v * (REFACTOR_DIVIDER);\n        }\n\n        return v;\n    }\n\n    /**\n     * @dev Calculate RAY BASED from RAY FACTORED\n     */\n    function _toRAYBased(uint256 rf) internal view returns (uint256 rb) {\n        return rdiv2(rf, _factor);\n    }\n\n    /**\n     * @dev Calculate RAY FACTORED from RAY BASED\n     */\n    function _toRAYFactored(uint256 rb) internal view returns (uint256 rf) {\n        return rmul2(rb, _factor);\n    }\n\n    // new\n\n    function setFactor(uint256 infactor)\n        external\n        override\n        onlyOwner\n        returns (uint256)\n    {\n        uint256 previous = _factor;\n\n        uint256 count = 0;\n        uint256 f = infactor;\n        for (; f >= REFACTOR_BOUNDARY; f = (f / REFACTOR_DIVIDER)) {\n            count = count + 1;\n        }\n\n        refactorCount = count;\n        _factor = f;\n        emit FactorSet(previous, f, count);\n\n        return _factor;\n    }\n\n    function addTotalSupply(uint256 amount) internal {\n        uint256 currentSupply =\n            _applyFactor(_totalSupply.balance, _totalSupply.refactoredCount);\n        uint256 newSupply = currentSupply + amount;\n\n        uint256 rbAmount = _toRAYBased(newSupply);\n        _totalSupply.balance = rbAmount;\n        _totalSupply.refactoredCount = refactorCount;\n    }\n\n    function subTotalSupply(uint256 amount) internal {\n        uint256 currentSupply =\n            _applyFactor(_totalSupply.balance, _totalSupply.refactoredCount);\n        uint256 newSupply = currentSupply - amount;\n\n        uint256 rbAmount = _toRAYBased(newSupply);\n        _totalSupply.balance = rbAmount;\n        _totalSupply.refactoredCount = refactorCount;\n    }\n\n    /**\n     * @dev See {ERC20-_mint}.\n     *\n     * Requirements:\n     *\n     * - the caller must have the {MinterRole}.\n     */\n    function mint(\n        address tokenOwner,\n        uint256 tokenId,\n        uint256 amount\n    )\n        public\n        override\n        onlyOwner\n        nonZeroAddress(tokenOwner)\n        nonZero(tokenId)\n        returns (bool)\n    {\n        _mint(tokenOwner, tokenId, amount);\n        return true;\n    }\n\n    /**\n     * @dev Destroys `amount` tokens from the caller.\n     *\n     * See {ERC20-_burn}.\n     */\n    function burn(\n        address tokenOwner,\n        uint256 tokenId,\n        uint256 amount\n    ) public override onlyOwner {\n        require(\n            amount <= balanceOf(tokenId),\n            \"AutoRefactorCoinageWithTokenId: Insufficient balance of token ID\"\n        );\n        if (amount > totalSupply()) _burn(tokenOwner, tokenId, totalSupply());\n        else _burn(tokenOwner, tokenId, amount);\n    }\n\n    function burnTokenId(address tokenOwner, uint256 tokenId)\n        public\n        override\n        onlyOwner\n    {\n        uint256 amount = totalSupply();\n        if (amount < balanceOf(tokenId)) _burn(tokenOwner, tokenId, amount);\n        else _burn(tokenOwner, tokenId, balanceOf(tokenId));\n    }\n\n    function balancesTokenId(uint256 tokenId)\n        public\n        view\n        override\n        returns (\n            uint256 balance,\n            uint256 refactoredCount,\n            uint256 remain\n        )\n    {\n        return (\n            balances[tokenId].balance,\n            balances[tokenId].refactoredCount,\n            balances[tokenId].remain\n        );\n    }\n}\n",
  "sourcePath": "/Users/zena/ico2.0/ico20-contracts/contracts/tokens/AutoRefactorCoinageWithTokenId.sol",
  "compiler": {
    "name": "solc",
    "version": "0.7.6+commit.7338295f.Emscripten.clang"
  },
  "schemaVersion": "3.3.4",
  "updatedAt": "2021-08-06T11:33:46.052Z",
  "devdoc": {
    "details": "Implementation of coin age token based on ERC20 of openzeppelin-solidity AutoRefactorCoinageWithTokenId stores `_totalSupply` and `_balances` as RAY BASED value, `_allowances` as RAY FACTORED value. This takes public function (including _approve) parameters as RAY FACTORED value and internal function (including approve) parameters as RAY BASED value, and emits event in RAY FACTORED value. `RAY BASED` = `RAY FACTORED`  / factor  factor increases exponentially for each block mined.",
    "events": {
      "Burned(address,uint256,uint256)": {
        "details": "event on burn",
        "params": {
          "amount": "mined amount",
          "tokenId": "mining tokenId",
          "tokenOwner": "owner of tokenId"
        }
      },
      "Mined(address,uint256,uint256)": {
        "details": "event on mining",
        "params": {
          "amount": "mined amount",
          "tokenId": "mining tokenId",
          "tokenOwner": "owner of tokenId"
        }
      }
    },
    "kind": "dev",
    "methods": {
      "addAdmin(address)": {
        "details": "add admin",
        "params": {
          "account": "address to add"
        }
      },
      "balanceOf(uint256)": {
        "details": "See {IERC20-balanceOf}."
      },
      "burn(address,uint256,uint256)": {
        "details": "Destroys `amount` tokens from the caller. See {ERC20-_burn}."
      },
      "getRoleAdmin(bytes32)": {
        "details": "Returns the admin role that controls `role`. See {grantRole} and {revokeRole}. To change a role's admin, use {_setRoleAdmin}."
      },
      "getRoleMember(bytes32,uint256)": {
        "details": "Returns one of the accounts that have `role`. `index` must be a value between 0 and {getRoleMemberCount}, non-inclusive. Role bearers are not sorted in any particular way, and their ordering may change at any point. WARNING: When using {getRoleMember} and {getRoleMemberCount}, make sure you perform all queries on the same block. See the following https://forum.openzeppelin.com/t/iterating-over-elements-on-enumerableset-in-openzeppelin-contracts/2296[forum post] for more information."
      },
      "getRoleMemberCount(bytes32)": {
        "details": "Returns the number of accounts that have `role`. Can be used together with {getRoleMember} to enumerate all bearers of a role."
      },
      "grantRole(bytes32,address)": {
        "details": "Grants `role` to `account`. If `account` had not been already granted `role`, emits a {RoleGranted} event. Requirements: - the caller must have ``role``'s admin role."
      },
      "hasRole(bytes32,address)": {
        "details": "Returns `true` if `account` has been granted `role`."
      },
      "isAdmin(address)": {
        "details": "whether admin",
        "params": {
          "account": "address to check"
        }
      },
      "mint(address,uint256,uint256)": {
        "details": "See {ERC20-_mint}. Requirements: - the caller must have the {MinterRole}."
      },
      "removeAdmin(address)": {
        "details": "remove admin",
        "params": {
          "account": "address to remove"
        }
      },
      "renounceRole(bytes32,address)": {
        "details": "Revokes `role` from the calling account. Roles are often managed via {grantRole} and {revokeRole}: this function's purpose is to provide a mechanism for accounts to lose their privileges if they are compromised (such as when a trusted device is misplaced). If the calling account had been granted `role`, emits a {RoleRevoked} event. Requirements: - the caller must be `account`."
      },
      "revokeRole(bytes32,address)": {
        "details": "Revokes `role` from `account`. If `account` had been granted `role`, emits a {RoleRevoked} event. Requirements: - the caller must have ``role``'s admin role."
      },
      "totalSupply()": {
        "details": "See {IERC20-totalSupply}."
      },
      "transferAdmin(address)": {
        "details": "transfer admin",
        "params": {
          "newAdmin": "new admin address"
        }
      }
    },
    "version": 1
  },
  "userdoc": {
    "kind": "user",
    "methods": {},
    "version": 1
  }
}