{
  "contractName": "AutoRefactorCoinageWithTokenId",
  "abi": [
    {
      "inputs": [
        {
          "internalType": "uint256",
          "name": "initfactor",
          "type": "uint256"
        }
      ],
      "stateMutability": "nonpayable",
      "type": "constructor"
    },
    {
      "anonymous": false,
      "inputs": [
        {
          "indexed": true,
          "internalType": "address",
          "name": "tokenOwner",
          "type": "address"
        },
        {
          "indexed": true,
          "internalType": "uint256",
          "name": "tokenId",
          "type": "uint256"
        },
        {
          "indexed": false,
          "internalType": "uint256",
          "name": "amount",
          "type": "uint256"
        }
      ],
      "name": "Burned",
      "type": "event"
    },
    {
      "anonymous": false,
      "inputs": [
        {
          "indexed": false,
          "internalType": "uint256",
          "name": "previous",
          "type": "uint256"
        },
        {
          "indexed": false,
          "internalType": "uint256",
          "name": "current",
          "type": "uint256"
        },
        {
          "indexed": false,
          "internalType": "uint256",
          "name": "shiftCount",
          "type": "uint256"
        }
      ],
      "name": "FactorSet",
      "type": "event"
    },
    {
      "anonymous": false,
      "inputs": [
        {
          "indexed": true,
          "internalType": "address",
          "name": "tokenOwner",
          "type": "address"
        },
        {
          "indexed": true,
          "internalType": "uint256",
          "name": "tokenId",
          "type": "uint256"
        },
        {
          "indexed": false,
          "internalType": "uint256",
          "name": "amount",
          "type": "uint256"
        }
      ],
      "name": "Mined",
      "type": "event"
    },
    {
      "anonymous": false,
      "inputs": [
        {
          "indexed": true,
          "internalType": "bytes32",
          "name": "role",
          "type": "bytes32"
        },
        {
          "indexed": true,
          "internalType": "bytes32",
          "name": "previousAdminRole",
          "type": "bytes32"
        },
        {
          "indexed": true,
          "internalType": "bytes32",
          "name": "newAdminRole",
          "type": "bytes32"
        }
      ],
      "name": "RoleAdminChanged",
      "type": "event"
    },
    {
      "anonymous": false,
      "inputs": [
        {
          "indexed": true,
          "internalType": "bytes32",
          "name": "role",
          "type": "bytes32"
        },
        {
          "indexed": true,
          "internalType": "address",
          "name": "account",
          "type": "address"
        },
        {
          "indexed": true,
          "internalType": "address",
          "name": "sender",
          "type": "address"
        }
      ],
      "name": "RoleGranted",
      "type": "event"
    },
    {
      "anonymous": false,
      "inputs": [
        {
          "indexed": true,
          "internalType": "bytes32",
          "name": "role",
          "type": "bytes32"
        },
        {
          "indexed": true,
          "internalType": "address",
          "name": "account",
          "type": "address"
        },
        {
          "indexed": true,
          "internalType": "address",
          "name": "sender",
          "type": "address"
        }
      ],
      "name": "RoleRevoked",
      "type": "event"
    },
    {
      "inputs": [],
      "name": "ADMIN_ROLE",
      "outputs": [
        {
          "internalType": "bytes32",
          "name": "",
          "type": "bytes32"
        }
      ],
      "stateMutability": "view",
      "type": "function"
    },
    {
      "inputs": [],
      "name": "BURNER_ROLE",
      "outputs": [
        {
          "internalType": "bytes32",
          "name": "",
          "type": "bytes32"
        }
      ],
      "stateMutability": "view",
      "type": "function"
    },
    {
      "inputs": [],
      "name": "DEFAULT_ADMIN_ROLE",
      "outputs": [
        {
          "internalType": "bytes32",
          "name": "",
          "type": "bytes32"
        }
      ],
      "stateMutability": "view",
      "type": "function"
    },
    {
      "inputs": [],
      "name": "MINTER_ROLE",
      "outputs": [
        {
          "internalType": "bytes32",
          "name": "",
          "type": "bytes32"
        }
      ],
      "stateMutability": "view",
      "type": "function"
    },
    {
      "inputs": [],
      "name": "REFACTOR_BOUNDARY",
      "outputs": [
        {
          "internalType": "uint256",
          "name": "",
          "type": "uint256"
        }
      ],
      "stateMutability": "view",
      "type": "function"
    },
    {
      "inputs": [],
      "name": "REFACTOR_DIVIDER",
      "outputs": [
        {
          "internalType": "uint256",
          "name": "",
          "type": "uint256"
        }
      ],
      "stateMutability": "view",
      "type": "function"
    },
    {
      "inputs": [],
      "name": "_factor",
      "outputs": [
        {
          "internalType": "uint256",
          "name": "",
          "type": "uint256"
        }
      ],
      "stateMutability": "view",
      "type": "function"
    },
    {
      "inputs": [],
      "name": "_totalSupply",
      "outputs": [
        {
          "internalType": "uint256",
          "name": "balance",
          "type": "uint256"
        },
        {
          "internalType": "uint256",
          "name": "refactoredCount",
          "type": "uint256"
        },
        {
          "internalType": "uint256",
          "name": "remain",
          "type": "uint256"
        }
      ],
      "stateMutability": "view",
      "type": "function"
    },
    {
      "inputs": [
        {
          "internalType": "address",
          "name": "account",
          "type": "address"
        }
      ],
      "name": "addAdmin",
      "outputs": [],
      "stateMutability": "nonpayable",
      "type": "function"
    },
    {
      "inputs": [
        {
          "internalType": "uint256",
          "name": "",
          "type": "uint256"
        }
      ],
      "name": "balances",
      "outputs": [
        {
          "internalType": "uint256",
          "name": "balance",
          "type": "uint256"
        },
        {
          "internalType": "uint256",
          "name": "refactoredCount",
          "type": "uint256"
        },
        {
          "internalType": "uint256",
          "name": "remain",
          "type": "uint256"
        }
      ],
      "stateMutability": "view",
      "type": "function"
    },
    {
      "inputs": [],
      "name": "decimal",
      "outputs": [
        {
          "internalType": "uint8",
          "name": "",
          "type": "uint8"
        }
      ],
      "stateMutability": "view",
      "type": "function"
    },
    {
      "inputs": [
        {
          "internalType": "bytes32",
          "name": "role",
          "type": "bytes32"
        }
      ],
      "name": "getRoleAdmin",
      "outputs": [
        {
          "internalType": "bytes32",
          "name": "",
          "type": "bytes32"
        }
      ],
      "stateMutability": "view",
      "type": "function"
    },
    {
      "inputs": [
        {
          "internalType": "bytes32",
          "name": "role",
          "type": "bytes32"
        },
        {
          "internalType": "uint256",
          "name": "index",
          "type": "uint256"
        }
      ],
      "name": "getRoleMember",
      "outputs": [
        {
          "internalType": "address",
          "name": "",
          "type": "address"
        }
      ],
      "stateMutability": "view",
      "type": "function"
    },
    {
      "inputs": [
        {
          "internalType": "bytes32",
          "name": "role",
          "type": "bytes32"
        }
      ],
      "name": "getRoleMemberCount",
      "outputs": [
        {
          "internalType": "uint256",
          "name": "",
          "type": "uint256"
        }
      ],
      "stateMutability": "view",
      "type": "function"
    },
    {
      "inputs": [
        {
          "internalType": "bytes32",
          "name": "role",
          "type": "bytes32"
        },
        {
          "internalType": "address",
          "name": "account",
          "type": "address"
        }
      ],
      "name": "grantRole",
      "outputs": [],
      "stateMutability": "nonpayable",
      "type": "function"
    },
    {
      "inputs": [
        {
          "internalType": "bytes32",
          "name": "role",
          "type": "bytes32"
        },
        {
          "internalType": "address",
          "name": "account",
          "type": "address"
        }
      ],
      "name": "hasRole",
      "outputs": [
        {
          "internalType": "bool",
          "name": "",
          "type": "bool"
        }
      ],
      "stateMutability": "view",
      "type": "function"
    },
    {
      "inputs": [
        {
          "internalType": "address",
          "name": "account",
          "type": "address"
        }
      ],
      "name": "isAdmin",
      "outputs": [
        {
          "internalType": "bool",
          "name": "",
          "type": "bool"
        }
      ],
      "stateMutability": "view",
      "type": "function"
    },
    {
      "inputs": [],
      "name": "refactorCount",
      "outputs": [
        {
          "internalType": "uint256",
          "name": "",
          "type": "uint256"
        }
      ],
      "stateMutability": "view",
      "type": "function"
    },
    {
      "inputs": [
        {
          "internalType": "address",
          "name": "account",
          "type": "address"
        }
      ],
      "name": "removeAdmin",
      "outputs": [],
      "stateMutability": "nonpayable",
      "type": "function"
    },
    {
      "inputs": [
        {
          "internalType": "bytes32",
          "name": "role",
          "type": "bytes32"
        },
        {
          "internalType": "address",
          "name": "account",
          "type": "address"
        }
      ],
      "name": "renounceRole",
      "outputs": [],
      "stateMutability": "nonpayable",
      "type": "function"
    },
    {
      "inputs": [
        {
          "internalType": "bytes32",
          "name": "role",
          "type": "bytes32"
        },
        {
          "internalType": "address",
          "name": "account",
          "type": "address"
        }
      ],
      "name": "revokeRole",
      "outputs": [],
      "stateMutability": "nonpayable",
      "type": "function"
    },
    {
      "inputs": [
        {
          "internalType": "address",
          "name": "newAdmin",
          "type": "address"
        }
      ],
      "name": "transferAdmin",
      "outputs": [],
      "stateMutability": "nonpayable",
      "type": "function"
    },
    {
      "inputs": [],
      "name": "factor",
      "outputs": [
        {
          "internalType": "uint256",
          "name": "",
          "type": "uint256"
        }
      ],
      "stateMutability": "view",
      "type": "function"
    },
    {
      "inputs": [],
      "name": "totalSupply",
      "outputs": [
        {
          "internalType": "uint256",
          "name": "",
          "type": "uint256"
        }
      ],
      "stateMutability": "view",
      "type": "function"
    },
    {
      "inputs": [
        {
          "internalType": "uint256",
          "name": "tokenId",
          "type": "uint256"
        }
      ],
      "name": "balanceOf",
      "outputs": [
        {
          "internalType": "uint256",
          "name": "",
          "type": "uint256"
        }
      ],
      "stateMutability": "view",
      "type": "function"
    },
    {
      "inputs": [
        {
          "internalType": "uint256",
          "name": "infactor",
          "type": "uint256"
        }
      ],
      "name": "setFactor",
      "outputs": [
        {
          "internalType": "uint256",
          "name": "",
          "type": "uint256"
        }
      ],
      "stateMutability": "nonpayable",
      "type": "function"
    },
    {
      "inputs": [
        {
          "internalType": "address",
          "name": "tokenOwner",
          "type": "address"
        },
        {
          "internalType": "uint256",
          "name": "tokenId",
          "type": "uint256"
        },
        {
          "internalType": "uint256",
          "name": "amount",
          "type": "uint256"
        }
      ],
      "name": "mint",
      "outputs": [
        {
          "internalType": "bool",
          "name": "",
          "type": "bool"
        }
      ],
      "stateMutability": "nonpayable",
      "type": "function"
    },
    {
      "inputs": [
        {
          "internalType": "address",
          "name": "tokenOwner",
          "type": "address"
        },
        {
          "internalType": "uint256",
          "name": "tokenId",
          "type": "uint256"
        },
        {
          "internalType": "uint256",
          "name": "amount",
          "type": "uint256"
        }
      ],
      "name": "burn",
      "outputs": [],
      "stateMutability": "nonpayable",
      "type": "function"
    },
    {
      "inputs": [
        {
          "internalType": "address",
          "name": "tokenOwner",
          "type": "address"
        },
        {
          "internalType": "uint256",
          "name": "tokenId",
          "type": "uint256"
        }
      ],
      "name": "burnTokenId",
      "outputs": [],
      "stateMutability": "nonpayable",
      "type": "function"
    }
  ],
  "bytecode": "0x60806040526001805460ff1916601b1790556b204fce5e3e2502611000000060029081556003553480156200003357600080fd5b506040516200163038038062001630833981810160405260208110156200005957600080fd5b505160098190556200007b60008051602062001610833981519152806200009d565b620000966000805160206200161083398151915233620000ef565b5062000203565b600082815260208190526040808220600201549051839285917fbd79b86ffe0ab8e8776151514217cd7cacd52c909f66475c3af44e129f0b00ff9190a460009182526020829052604090912060020155565b620000fb8282620000ff565b5050565b6000828152602081815260409091206200012491839062000c7862000178821b17901c565b15620000fb576200013462000198565b6001600160a01b0316816001600160a01b0316837f2f8788117e7eff1d82e926ec794901d17c78024a50270940304540a733656f0d60405160405180910390a45050565b60006200018f836001600160a01b0384166200019c565b90505b92915050565b3390565b6000620001aa8383620001eb565b620001e25750815460018181018455600084815260208082209093018490558454848252828601909352604090209190915562000192565b50600062000192565b60009081526001919091016020526040902054151590565b6113fd80620002136000396000f3fe608060405234801561001057600080fd5b506004361061018e5760003560e01c806370480275116100e45780639cc7f708116100925780639cc7f7081461043f578063a217fddf1461045c578063a7ac30b014610464578063b7c246d71461046c578063ca15c87314610474578063d539139314610491578063d547741f14610499578063f5298aca146104c55761018e565b8063704802751461034557806375829def1461036b57806375b238fc1461039157806376809ce314610399578063817e9d31146103b75780639010d07c146103d457806391d14854146104135761018e565b80632f2ff15d116101415780632f2ff15d1461026e57806336568abe1461029a5780633eaaf86b146102c65780634903b0d1146102ec57806354f703f8146103095780636621a025146103115780636d1506111461033d5761018e565b8062d87a9c14610193578063156e29f6146101ad5780631785f53c146101f357806318160ddd1461021b578063248a9ca31461022357806324d7806c14610240578063282c51f314610266575b600080fd5b61019b6104f7565b60408051918252519081900360200190f35b6101df600480360360608110156101c357600080fd5b506001600160a01b0381351690602081013590604001356104fd565b604080519115158252519081900360200190f35b6102196004803603602081101561020957600080fd5b50356001600160a01b03166105dd565b005b61019b61063c565b61019b6004803603602081101561023957600080fd5b5035610658565b6101df6004803603602081101561025657600080fd5b50356001600160a01b031661066d565b61019b61068d565b6102196004803603604081101561028457600080fd5b50803590602001356001600160a01b03166106b1565b610219600480360360408110156102b057600080fd5b50803590602001356001600160a01b031661071d565b6102ce61077e565b60408051938452602084019290925282820152519081900360600190f35b6102ce6004803603602081101561030257600080fd5b503561078a565b61019b6107ab565b6102196004803603604081101561032757600080fd5b506001600160a01b0381351690602001356107d3565b61019b61085b565b6102196004803603602081101561035b57600080fd5b50356001600160a01b0316610861565b6102196004803603602081101561038157600080fd5b50356001600160a01b03166108bd565b61019b6109de565b6103a16109f0565b6040805160ff9092168252519081900360200190f35b61019b600480360360208110156103cd57600080fd5b50356109f9565b6103f7600480360360408110156103ea57600080fd5b5080359060200135610abe565b604080516001600160a01b039092168252519081900360200190f35b6101df6004803603604081101561042957600080fd5b50803590602001356001600160a01b0316610add565b61019b6004803603602081101561045557600080fd5b5035610af5565b61019b610b21565b61019b610b26565b61019b610b2c565b61019b6004803603602081101561048a57600080fd5b5035610b32565b61019b610b49565b610219600480360360408110156104af57600080fd5b50803590602001356001600160a01b0316610b6d565b610219600480360360608110156104db57600080fd5b506001600160a01b038135169060208101359060400135610bc6565b60035481565b60006105083361066d565b6105435760405162461bcd60e51b81526004018080602001828103825260228152602001806112826022913960400191505060405180910390fd5b836001600160a01b0381166105895760405162461bcd60e51b815260040180806020018281038252602b815260200180611334602b913960400191505060405180910390fd5b83806105c65760405162461bcd60e51b815260040180806020018281038252602b815260200180611334602b913960400191505060405180910390fd5b6105d1868686610c8d565b50600195945050505050565b6105e63361066d565b6106215760405162461bcd60e51b81526004018080602001828103825260228152602001806112826022913960400191505060405180910390fd5b6106396000805160206113148339815191528261071d565b50565b6008546006546007546000929161065291610d56565b01905090565b60009081526020819052604090206002015490565b600061068760008051602061131483398151915283610add565b92915050565b7f9667e80708b6eeeb0053fa0cca44e028ff548e2a9f029edfeac87c118b08b7c881565b6000828152602081905260409020600201546106d4906106cf610d97565b610add565b61070f5760405162461bcd60e51b815260040180806020018281038252602f81526020018061121b602f913960400191505060405180910390fd5b6107198282610d9b565b5050565b610725610d97565b6001600160a01b0316816001600160a01b0316146107745760405162461bcd60e51b815260040180806020018281038252602f815260200180611399602f913960400191505060405180910390fd5b6107198282610e04565b60065460075460085483565b60056020526000908152604090208054600182015460029092015490919083565b600954600090815b6004548110156107cd5760035491909102906001016107b3565b50905090565b6107dc3361066d565b6108175760405162461bcd60e51b81526004018080602001828103825260228152602001806112826022913960400191505060405180910390fd5b600061082161063c565b905061082c82610af5565b8110156108435761083e838383610e6d565b610856565b610856838361085185610af5565b610e6d565b505050565b60095481565b61086a3361066d565b6108a55760405162461bcd60e51b81526004018080602001828103825260228152602001806112826022913960400191505060405180910390fd5b610639600080516020611314833981519152826106b1565b6108c63361066d565b6109015760405162461bcd60e51b81526004018080602001828103825260228152602001806112826022913960400191505060405180910390fd5b6001600160a01b038116610957576040805162461bcd60e51b815260206004820152601860248201527741636365737369626c653a207a65726f206164647265737360401b604482015290519081900360640190fd5b336001600160a01b03821614156109ae576040805162461bcd60e51b815260206004820152601660248201527520b1b1b2b9b9b4b136329d1039b0b6b29030b236b4b760511b604482015290519081900360640190fd5b6109c6600080516020611314833981519152826106b1565b6106396000805160206113148339815191523361071d565b60008051602061131483398151915281565b60015460ff1681565b6000610a043361066d565b610a3f5760405162461bcd60e51b81526004018080602001828103825260228152602001806112826022913960400191505060405180910390fd5b6009546000835b6002548110610a68578160010191506003548181610a6057fe5b049050610a46565b60048290556009819055604080518481526020810183905280820184905290517f47eb304b27f9efb047a046029f8a279a7cc8fccc6786f1e2f65939639584fbdc9181900360600190a150506009549392505050565b6000828152602081905260408120610ad69083610f1c565b9392505050565b6000828152602081905260408120610ad69083610f28565b6000818152600560205260408120600281015481546001830154610b199190610d56565b019392505050565b600081565b60045481565b60025481565b600081815260208190526040812061068790610f3d565b7ff0887ba65ee2024ea881d91b74c2450ef19e1557f03bed3ea9f16b037cbe2dc981565b600082815260208190526040902060020154610b8b906106cf610d97565b6107745760405162461bcd60e51b81526004018080602001828103825260308152602001806112a46030913960400191505060405180910390fd5b610bcf3361066d565b610c0a5760405162461bcd60e51b81526004018080602001828103825260228152602001806112826022913960400191505060405180910390fd5b610c1382610af5565b811115610c515760405162461bcd60e51b81526004018080602001828103825260408152602001806112d46040913960400191505060405180910390fd5b610c5961063c565b811115610c6d5761083e838361085161063c565b610856838383610e6d565b6000610ad6836001600160a01b038416610f48565b81610cc95760405162461bcd60e51b815260040180806020018281038252603881526020018061124a6038913960400191505060405180910390fd5b600082815260056020526040812090610ce184610af5565b90508281016000610cf182610f92565b80855560045460018601559050610d0785610fa0565b85876001600160a01b03167f5a9ec13c12ca9563a7b3108125f74c57ed388bb313394ea50f7e4a71b01497c2610d3c84610fd1565b60408051918252519081900360200190a350505050505050565b600082610d6557506000610687565b610d7183600954610fdb565b9250815b600454811015610d8f576003549390930292600101610d75565b509192915050565b3390565b6000828152602081905260409020610db39082610c78565b1561071957610dc0610d97565b6001600160a01b0316816001600160a01b0316837f2f8788117e7eff1d82e926ec794901d17c78024a50270940304540a733656f0d60405160405180910390a45050565b6000828152602081905260409020610e1c9082611003565b1561071957610e29610d97565b6001600160a01b0316816001600160a01b0316837ff6391f5c32d9c69d2a47ea670b442974b53935d1edc7fd64eb21e047a839171b60405160405180910390a45050565b81610ea95760405162461bcd60e51b815260040180806020018281038252603a81526020018061135f603a913960400191505060405180910390fd5b600082815260056020526040812090610ec184610af5565b90508281036000610ed182610f92565b80855560045460018601559050610ee785611018565b85876001600160a01b03167f23ff0e75edf108e3d0392d92e13e8c8a868ef19001bd49f9e94876dc46dff87f610d3c84610fd1565b6000610ad6838361103a565b6000610ad6836001600160a01b03841661109e565b6000610687826110b6565b6000610f54838361109e565b610f8a57508154600181810184556000848152602080822090930184905584548482528286019093526040902091909155610687565b506000610687565b6000610687826009546110ba565b600654600754600091610fb291610d56565b90508181016000610fc282610f92565b60065550506004546007555050565b6000610687826009545b60006b033b2e3c9fd0803ce8000000610ff484846110cf565b81610ffb57fe5b049392505050565b6000610ad6836001600160a01b038416611132565b60065460075460009161102a91610d56565b90508181036000610fc282610f92565b8154600090821061107c5760405162461bcd60e51b81526004018080602001828103825260228152602001806111f96022913960400191505060405180910390fd5b82600001828154811061108b57fe5b9060005260206000200154905092915050565b60009081526001919091016020526040902054151590565b5490565b600081610ff4846b033b2e3c9fd0803ce80000005b60008115806110ea575050808202828282816110e757fe5b04145b610687576040805162461bcd60e51b815260206004820152601460248201527364732d6d6174682d6d756c2d6f766572666c6f7760601b604482015290519081900360640190fd5b600081815260018301602052604081205480156111ee578354600019808301919081019060009087908390811061116557fe5b906000526020600020015490508087600001848154811061118257fe5b6000918252602080832090910192909255828152600189810190925260409020908401905586548790806111b257fe5b60019003818190600052602060002001600090559055866001016000878152602001908152602001600020600090556001945050505050610687565b600091505061068756fe456e756d657261626c655365743a20696e646578206f7574206f6620626f756e6473416363657373436f6e74726f6c3a2073656e646572206d75737420626520616e2061646d696e20746f206772616e744175746f5265666163746f72436f696e61676557697468546f6b656e49643a206d696e7420746f20746865207a65726f20746f6b656e496441636365737369626c653a2043616c6c6572206973206e6f7420616e2061646d696e416363657373436f6e74726f6c3a2073656e646572206d75737420626520616e2061646d696e20746f207265766f6b654175746f5265666163746f72436f696e61676557697468546f6b656e49643a20496e73756666696369656e742062616c616e6365206f6620746f6b656e204944df8b4c520ffe197c5343c6f5aec59570151ef9a492f2c624fd45ddde6135ec424175746f5265666163746f72436f696e61676557697468546f6b656e49643a7a65726f20616464726573734175746f5265666163746f72436f696e61676557697468546f6b656e49643a206275726e2066726f6d20746865207a65726f20746f6b656e4964416363657373436f6e74726f6c3a2063616e206f6e6c792072656e6f756e636520726f6c657320666f722073656c66a2646970667358221220baf8fefa7cab8a499dce33adf2c07b15a779a6711c83a1068d13cfb3bef35df264736f6c63430007060033df8b4c520ffe197c5343c6f5aec59570151ef9a492f2c624fd45ddde6135ec42",
  "immutableReferences": {},
  "source": "// SPDX-License-Identifier: MIT\npragma solidity ^0.7.6;\n\nimport {\n    IAutoRefactorCoinageWithTokenId\n} from \"../interfaces/IAutoRefactorCoinageWithTokenId.sol\";\nimport {DSMath} from \"../libraries/DSMath.sol\";\nimport \"../common/AccessibleCommon.sol\";\n\n/**\n * @dev Implementation of coin age token based on ERC20 of openzeppelin-solidity\n *\n * AutoRefactorCoinageWithTokenId stores `_totalSupply` and `_balances` as RAY BASED value,\n * `_allowances` as RAY FACTORED value.\n *\n * This takes public function (including _approve) parameters as RAY FACTORED value\n * and internal function (including approve) parameters as RAY BASED value, and emits event in RAY FACTORED value.\n *\n * `RAY BASED` = `RAY FACTORED`  / factor\n *\n *  factor increases exponentially for each block mined.\n */\ncontract AutoRefactorCoinageWithTokenId is\n    DSMath,\n    AccessibleCommon,\n    IAutoRefactorCoinageWithTokenId\n{\n    struct Balance {\n        uint256 balance;\n        uint256 refactoredCount;\n        uint256 remain;\n    }\n\n    // string public _name;\n    // string public _symbol;\n    uint8 public decimal = 27;\n    uint256 public REFACTOR_BOUNDARY = 10**28;\n    uint256 public REFACTOR_DIVIDER = 2;\n\n    uint256 public refactorCount;\n\n    mapping(uint256 => Balance) public balances;\n\n    Balance public _totalSupply;\n\n    uint256 public _factor;\n\n    bool internal _transfersEnabled;\n\n    event FactorSet(uint256 previous, uint256 current, uint256 shiftCount);\n\n    modifier nonZero(uint256 tokenId) {\n        require(tokenId != 0, \"AutoRefactorCoinageWithTokenId:zero address\");\n        _;\n    }\n    modifier nonZeroAddress(address account) {\n        require(\n            account != address(0),\n            \"AutoRefactorCoinageWithTokenId:zero address\"\n        );\n        _;\n    }\n\n    /// @dev event on mining\n    /// @param tokenOwner owner of tokenId\n    /// @param tokenId mining tokenId\n    /// @param amount  mined amount\n    event Mined(\n        address indexed tokenOwner,\n        uint256 indexed tokenId,\n        uint256 amount\n    );\n\n    /// @dev event on burn\n    /// @param tokenOwner owner of tokenId\n    /// @param tokenId mining tokenId\n    /// @param amount  mined amount\n    event Burned(\n        address indexed tokenOwner,\n        uint256 indexed tokenId,\n        uint256 amount\n    );\n\n    constructor(uint256 initfactor) {\n        _factor = initfactor;\n\n        //_factorIncrement = factorIncrement;\n        //_lastBlock = block.number;\n        //_transfersEnabled = transfersEnabled;\n\n        //_setupDecimals(decimal);\n\n        _setRoleAdmin(ADMIN_ROLE, ADMIN_ROLE);\n        _setupRole(ADMIN_ROLE, msg.sender);\n    }\n\n    function factor() public view override returns (uint256) {\n        uint256 result = _factor;\n        for (uint256 i = 0; i < refactorCount; i++) {\n            result = result * (REFACTOR_DIVIDER);\n        }\n        return result;\n    }\n\n    /**\n     * @dev See {IERC20-totalSupply}.\n     */\n    function totalSupply() public view override returns (uint256) {\n        return\n            _applyFactor(_totalSupply.balance, _totalSupply.refactoredCount) +\n            (_totalSupply.remain);\n    }\n\n    /**\n     * @dev See {IERC20-balanceOf}.\n     */\n    function balanceOf(uint256 tokenId) public view override returns (uint256) {\n        Balance storage b = balances[tokenId];\n\n        return _applyFactor(b.balance, b.refactoredCount) + (b.remain);\n    }\n\n    /** @dev Creates `amount` tokens and assigns them to `tokenId`, increasing\n     * the total supply.\n     *\n     * Emits a {Transfer} event with `from` set to the zero address.\n     *\n     * Requirements\n     *\n     * - `to` cannot be the zero address.\n     */\n    function _mint(\n        address tokenOwner,\n        uint256 tokenId,\n        uint256 amount\n    ) internal {\n        require(\n            tokenId != 0,\n            \"AutoRefactorCoinageWithTokenId: mint to the zero tokenId\"\n        );\n        Balance storage b = balances[tokenId];\n\n        uint256 currentBalance = balanceOf(tokenId);\n        uint256 newBalance = currentBalance + amount;\n\n        uint256 rbAmount = _toRAYBased(newBalance);\n        b.balance = rbAmount;\n        b.refactoredCount = refactorCount;\n\n        addTotalSupply(amount);\n        emit Mined(tokenOwner, tokenId, _toRAYFactored(rbAmount));\n    }\n\n    /**\n     * @dev Destroys `amount` tokens from `tokenId`, reducing the\n     * total supply.\n     *\n     * Emits a {Transfer} event with `to` set to the zero address.\n     *\n     * Requirements\n     *\n     * - `tokenId` cannot be the zero .\n     * - `tokenId` must have at least `amount` tokens.\n     */\n    function _burn(\n        address tokenOwner,\n        uint256 tokenId,\n        uint256 amount\n    ) internal {\n        require(\n            tokenId != 0,\n            \"AutoRefactorCoinageWithTokenId: burn from the zero tokenId\"\n        );\n        Balance storage b = balances[tokenId];\n\n        uint256 currentBalance = balanceOf(tokenId);\n        uint256 newBalance = currentBalance - amount;\n\n        uint256 rbAmount = _toRAYBased(newBalance);\n        b.balance = rbAmount;\n        b.refactoredCount = refactorCount;\n\n        subTotalSupply(amount);\n        emit Burned(tokenOwner, tokenId, _toRAYFactored(rbAmount));\n    }\n\n    // helpers\n\n    /**\n     * @param v the value to be factored\n     */\n    function _applyFactor(uint256 v, uint256 refactoredCount)\n        internal\n        view\n        returns (uint256)\n    {\n        if (v == 0) {\n            return 0;\n        }\n\n        v = rmul2(v, _factor);\n\n        for (uint256 i = refactoredCount; i < refactorCount; i++) {\n            v = v * (REFACTOR_DIVIDER);\n        }\n\n        return v;\n    }\n\n    /**\n     * @dev Calculate RAY BASED from RAY FACTORED\n     */\n    function _toRAYBased(uint256 rf) internal view returns (uint256 rb) {\n        return rdiv2(rf, _factor);\n    }\n\n    /**\n     * @dev Calculate RAY FACTORED from RAY BASED\n     */\n    function _toRAYFactored(uint256 rb) internal view returns (uint256 rf) {\n        return rmul2(rb, _factor);\n    }\n\n    // new\n\n    function setFactor(uint256 infactor)\n        external\n        override\n        onlyOwner\n        returns (uint256)\n    {\n        uint256 previous = _factor;\n\n        uint256 count = 0;\n        uint256 f = infactor;\n        for (; f >= REFACTOR_BOUNDARY; f = (f / REFACTOR_DIVIDER)) {\n            count = count + 1;\n        }\n\n        refactorCount = count;\n        _factor = f;\n        emit FactorSet(previous, f, count);\n\n        return _factor;\n    }\n\n    function addTotalSupply(uint256 amount) internal {\n        uint256 currentSupply =\n            _applyFactor(_totalSupply.balance, _totalSupply.refactoredCount);\n        uint256 newSupply = currentSupply + amount;\n\n        uint256 rbAmount = _toRAYBased(newSupply);\n        _totalSupply.balance = rbAmount;\n        _totalSupply.refactoredCount = refactorCount;\n    }\n\n    function subTotalSupply(uint256 amount) internal {\n        uint256 currentSupply =\n            _applyFactor(_totalSupply.balance, _totalSupply.refactoredCount);\n        uint256 newSupply = currentSupply - amount;\n\n        uint256 rbAmount = _toRAYBased(newSupply);\n        _totalSupply.balance = rbAmount;\n        _totalSupply.refactoredCount = refactorCount;\n    }\n\n    /**\n     * @dev See {ERC20-_mint}.\n     *\n     * Requirements:\n     *\n     * - the caller must have the {MinterRole}.\n     */\n    function mint(\n        address tokenOwner,\n        uint256 tokenId,\n        uint256 amount\n    )\n        public\n        override\n        onlyOwner\n        nonZeroAddress(tokenOwner)\n        nonZero(tokenId)\n        returns (bool)\n    {\n        _mint(tokenOwner, tokenId, amount);\n        return true;\n    }\n\n    /**\n     * @dev Destroys `amount` tokens from the caller.\n     *\n     * See {ERC20-_burn}.\n     */\n    function burn(\n        address tokenOwner,\n        uint256 tokenId,\n        uint256 amount\n    ) public override onlyOwner {\n        require(\n            amount <= balanceOf(tokenId),\n            \"AutoRefactorCoinageWithTokenId: Insufficient balance of token ID\"\n        );\n        if (amount > totalSupply()) _burn(tokenOwner, tokenId, totalSupply());\n        else _burn(tokenOwner, tokenId, amount);\n    }\n\n    function burnTokenId(address tokenOwner, uint256 tokenId)\n        public\n        override\n        onlyOwner\n    {\n        uint256 amount = totalSupply();\n        if (amount < balanceOf(tokenId)) _burn(tokenOwner, tokenId, amount);\n        else _burn(tokenOwner, tokenId, balanceOf(tokenId));\n    }\n}\n",
  "sourcePath": "/Users/zena/ico2.0/ico20-contracts/contracts/tokens/AutoRefactorCoinageWithTokenId.sol",
  "compiler": {
    "name": "solc",
    "version": "0.7.6+commit.7338295f.Emscripten.clang"
  },
  "schemaVersion": "3.3.4",
  "updatedAt": "2021-08-01T15:27:40.664Z",
  "devdoc": {
    "details": "Implementation of coin age token based on ERC20 of openzeppelin-solidity AutoRefactorCoinageWithTokenId stores `_totalSupply` and `_balances` as RAY BASED value, `_allowances` as RAY FACTORED value. This takes public function (including _approve) parameters as RAY FACTORED value and internal function (including approve) parameters as RAY BASED value, and emits event in RAY FACTORED value. `RAY BASED` = `RAY FACTORED`  / factor  factor increases exponentially for each block mined.",
    "events": {
      "Burned(address,uint256,uint256)": {
        "details": "event on burn",
        "params": {
          "amount": "mined amount",
          "tokenId": "mining tokenId",
          "tokenOwner": "owner of tokenId"
        }
      },
      "Mined(address,uint256,uint256)": {
        "details": "event on mining",
        "params": {
          "amount": "mined amount",
          "tokenId": "mining tokenId",
          "tokenOwner": "owner of tokenId"
        }
      }
    },
    "kind": "dev",
    "methods": {
      "addAdmin(address)": {
        "details": "add admin",
        "params": {
          "account": "address to add"
        }
      },
      "balanceOf(uint256)": {
        "details": "See {IERC20-balanceOf}."
      },
      "burn(address,uint256,uint256)": {
        "details": "Destroys `amount` tokens from the caller. See {ERC20-_burn}."
      },
      "getRoleAdmin(bytes32)": {
        "details": "Returns the admin role that controls `role`. See {grantRole} and {revokeRole}. To change a role's admin, use {_setRoleAdmin}."
      },
      "getRoleMember(bytes32,uint256)": {
        "details": "Returns one of the accounts that have `role`. `index` must be a value between 0 and {getRoleMemberCount}, non-inclusive. Role bearers are not sorted in any particular way, and their ordering may change at any point. WARNING: When using {getRoleMember} and {getRoleMemberCount}, make sure you perform all queries on the same block. See the following https://forum.openzeppelin.com/t/iterating-over-elements-on-enumerableset-in-openzeppelin-contracts/2296[forum post] for more information."
      },
      "getRoleMemberCount(bytes32)": {
        "details": "Returns the number of accounts that have `role`. Can be used together with {getRoleMember} to enumerate all bearers of a role."
      },
      "grantRole(bytes32,address)": {
        "details": "Grants `role` to `account`. If `account` had not been already granted `role`, emits a {RoleGranted} event. Requirements: - the caller must have ``role``'s admin role."
      },
      "hasRole(bytes32,address)": {
        "details": "Returns `true` if `account` has been granted `role`."
      },
      "isAdmin(address)": {
        "details": "whether admin",
        "params": {
          "account": "address to check"
        }
      },
      "mint(address,uint256,uint256)": {
        "details": "See {ERC20-_mint}. Requirements: - the caller must have the {MinterRole}."
      },
      "removeAdmin(address)": {
        "details": "remove admin",
        "params": {
          "account": "address to remove"
        }
      },
      "renounceRole(bytes32,address)": {
        "details": "Revokes `role` from the calling account. Roles are often managed via {grantRole} and {revokeRole}: this function's purpose is to provide a mechanism for accounts to lose their privileges if they are compromised (such as when a trusted device is misplaced). If the calling account had been granted `role`, emits a {RoleRevoked} event. Requirements: - the caller must be `account`."
      },
      "revokeRole(bytes32,address)": {
        "details": "Revokes `role` from `account`. If `account` had been granted `role`, emits a {RoleRevoked} event. Requirements: - the caller must have ``role``'s admin role."
      },
      "totalSupply()": {
        "details": "See {IERC20-totalSupply}."
      },
      "transferAdmin(address)": {
        "details": "transfer admin",
        "params": {
          "newAdmin": "new admin address"
        }
      }
    },
    "version": 1
  },
  "userdoc": {
    "kind": "user",
    "methods": {},
    "version": 1
  }
}