{
  "contractName": "Stake2Vault",
  "abi": [
    {
      "inputs": [],
      "stateMutability": "nonpayable",
      "type": "constructor"
    },
    {
      "anonymous": false,
      "inputs": [
        {
          "indexed": true,
          "internalType": "address",
          "name": "from",
          "type": "address"
        },
        {
          "indexed": false,
          "internalType": "address",
          "name": "to",
          "type": "address"
        },
        {
          "indexed": false,
          "internalType": "uint256",
          "name": "amount",
          "type": "uint256"
        }
      ],
      "name": "Claimed",
      "type": "event"
    },
    {
      "anonymous": false,
      "inputs": [
        {
          "indexed": true,
          "internalType": "address",
          "name": "to",
          "type": "address"
        },
        {
          "indexed": false,
          "internalType": "uint256",
          "name": "minableAmount",
          "type": "uint256"
        },
        {
          "indexed": false,
          "internalType": "uint256",
          "name": "miningAmount",
          "type": "uint256"
        },
        {
          "indexed": false,
          "internalType": "uint256",
          "name": "nonMiningAmount",
          "type": "uint256"
        }
      ],
      "name": "ClaimedMining",
      "type": "event"
    },
    {
      "anonymous": false,
      "inputs": [
        {
          "indexed": true,
          "internalType": "bytes32",
          "name": "role",
          "type": "bytes32"
        },
        {
          "indexed": true,
          "internalType": "bytes32",
          "name": "previousAdminRole",
          "type": "bytes32"
        },
        {
          "indexed": true,
          "internalType": "bytes32",
          "name": "newAdminRole",
          "type": "bytes32"
        }
      ],
      "name": "RoleAdminChanged",
      "type": "event"
    },
    {
      "anonymous": false,
      "inputs": [
        {
          "indexed": true,
          "internalType": "bytes32",
          "name": "role",
          "type": "bytes32"
        },
        {
          "indexed": true,
          "internalType": "address",
          "name": "account",
          "type": "address"
        },
        {
          "indexed": true,
          "internalType": "address",
          "name": "sender",
          "type": "address"
        }
      ],
      "name": "RoleGranted",
      "type": "event"
    },
    {
      "anonymous": false,
      "inputs": [
        {
          "indexed": true,
          "internalType": "bytes32",
          "name": "role",
          "type": "bytes32"
        },
        {
          "indexed": true,
          "internalType": "address",
          "name": "account",
          "type": "address"
        },
        {
          "indexed": true,
          "internalType": "address",
          "name": "sender",
          "type": "address"
        }
      ],
      "name": "RoleRevoked",
      "type": "event"
    },
    {
      "inputs": [],
      "name": "ADMIN_ROLE",
      "outputs": [
        {
          "internalType": "bytes32",
          "name": "",
          "type": "bytes32"
        }
      ],
      "stateMutability": "view",
      "type": "function"
    },
    {
      "inputs": [],
      "name": "BURNER_ROLE",
      "outputs": [
        {
          "internalType": "bytes32",
          "name": "",
          "type": "bytes32"
        }
      ],
      "stateMutability": "view",
      "type": "function"
    },
    {
      "inputs": [],
      "name": "DEFAULT_ADMIN_ROLE",
      "outputs": [
        {
          "internalType": "bytes32",
          "name": "",
          "type": "bytes32"
        }
      ],
      "stateMutability": "view",
      "type": "function"
    },
    {
      "inputs": [],
      "name": "MINTER_ROLE",
      "outputs": [
        {
          "internalType": "bytes32",
          "name": "",
          "type": "bytes32"
        }
      ],
      "stateMutability": "view",
      "type": "function"
    },
    {
      "inputs": [
        {
          "internalType": "address",
          "name": "account",
          "type": "address"
        }
      ],
      "name": "addAdmin",
      "outputs": [],
      "stateMutability": "nonpayable",
      "type": "function"
    },
    {
      "inputs": [],
      "name": "cap",
      "outputs": [
        {
          "internalType": "uint256",
          "name": "",
          "type": "uint256"
        }
      ],
      "stateMutability": "view",
      "type": "function"
    },
    {
      "inputs": [
        {
          "internalType": "bytes32",
          "name": "role",
          "type": "bytes32"
        }
      ],
      "name": "getRoleAdmin",
      "outputs": [
        {
          "internalType": "bytes32",
          "name": "",
          "type": "bytes32"
        }
      ],
      "stateMutability": "view",
      "type": "function"
    },
    {
      "inputs": [
        {
          "internalType": "bytes32",
          "name": "role",
          "type": "bytes32"
        },
        {
          "internalType": "uint256",
          "name": "index",
          "type": "uint256"
        }
      ],
      "name": "getRoleMember",
      "outputs": [
        {
          "internalType": "address",
          "name": "",
          "type": "address"
        }
      ],
      "stateMutability": "view",
      "type": "function"
    },
    {
      "inputs": [
        {
          "internalType": "bytes32",
          "name": "role",
          "type": "bytes32"
        }
      ],
      "name": "getRoleMemberCount",
      "outputs": [
        {
          "internalType": "uint256",
          "name": "",
          "type": "uint256"
        }
      ],
      "stateMutability": "view",
      "type": "function"
    },
    {
      "inputs": [
        {
          "internalType": "bytes32",
          "name": "role",
          "type": "bytes32"
        },
        {
          "internalType": "address",
          "name": "account",
          "type": "address"
        }
      ],
      "name": "grantRole",
      "outputs": [],
      "stateMutability": "nonpayable",
      "type": "function"
    },
    {
      "inputs": [
        {
          "internalType": "bytes32",
          "name": "role",
          "type": "bytes32"
        },
        {
          "internalType": "address",
          "name": "account",
          "type": "address"
        }
      ],
      "name": "hasRole",
      "outputs": [
        {
          "internalType": "bool",
          "name": "",
          "type": "bool"
        }
      ],
      "stateMutability": "view",
      "type": "function"
    },
    {
      "inputs": [
        {
          "internalType": "address",
          "name": "account",
          "type": "address"
        }
      ],
      "name": "isAdmin",
      "outputs": [
        {
          "internalType": "bool",
          "name": "",
          "type": "bool"
        }
      ],
      "stateMutability": "view",
      "type": "function"
    },
    {
      "inputs": [],
      "name": "migratedL2",
      "outputs": [
        {
          "internalType": "bool",
          "name": "",
          "type": "bool"
        }
      ],
      "stateMutability": "view",
      "type": "function"
    },
    {
      "inputs": [],
      "name": "miningAmountTotal",
      "outputs": [
        {
          "internalType": "uint256",
          "name": "",
          "type": "uint256"
        }
      ],
      "stateMutability": "view",
      "type": "function"
    },
    {
      "inputs": [],
      "name": "miningPerSecond",
      "outputs": [
        {
          "internalType": "uint256",
          "name": "",
          "type": "uint256"
        }
      ],
      "stateMutability": "view",
      "type": "function"
    },
    {
      "inputs": [],
      "name": "miningStartTime",
      "outputs": [
        {
          "internalType": "uint256",
          "name": "",
          "type": "uint256"
        }
      ],
      "stateMutability": "view",
      "type": "function"
    },
    {
      "inputs": [],
      "name": "name",
      "outputs": [
        {
          "internalType": "string",
          "name": "",
          "type": "string"
        }
      ],
      "stateMutability": "view",
      "type": "function"
    },
    {
      "inputs": [],
      "name": "nonMiningAmountTotal",
      "outputs": [
        {
          "internalType": "uint256",
          "name": "",
          "type": "uint256"
        }
      ],
      "stateMutability": "view",
      "type": "function"
    },
    {
      "inputs": [],
      "name": "pauseProxy",
      "outputs": [
        {
          "internalType": "bool",
          "name": "",
          "type": "bool"
        }
      ],
      "stateMutability": "view",
      "type": "function"
    },
    {
      "inputs": [
        {
          "internalType": "address",
          "name": "account",
          "type": "address"
        }
      ],
      "name": "removeAdmin",
      "outputs": [],
      "stateMutability": "nonpayable",
      "type": "function"
    },
    {
      "inputs": [
        {
          "internalType": "bytes32",
          "name": "role",
          "type": "bytes32"
        },
        {
          "internalType": "address",
          "name": "account",
          "type": "address"
        }
      ],
      "name": "renounceRole",
      "outputs": [],
      "stateMutability": "nonpayable",
      "type": "function"
    },
    {
      "inputs": [
        {
          "internalType": "bytes32",
          "name": "role",
          "type": "bytes32"
        },
        {
          "internalType": "address",
          "name": "account",
          "type": "address"
        }
      ],
      "name": "revokeRole",
      "outputs": [],
      "stateMutability": "nonpayable",
      "type": "function"
    },
    {
      "inputs": [],
      "name": "stakeAddress",
      "outputs": [
        {
          "internalType": "address",
          "name": "",
          "type": "address"
        }
      ],
      "stateMutability": "view",
      "type": "function"
    },
    {
      "inputs": [],
      "name": "stakeType",
      "outputs": [
        {
          "internalType": "uint256",
          "name": "",
          "type": "uint256"
        }
      ],
      "stateMutability": "view",
      "type": "function"
    },
    {
      "inputs": [],
      "name": "tos",
      "outputs": [
        {
          "internalType": "address",
          "name": "",
          "type": "address"
        }
      ],
      "stateMutability": "view",
      "type": "function"
    },
    {
      "inputs": [],
      "name": "totalMinedAmount",
      "outputs": [
        {
          "internalType": "uint256",
          "name": "",
          "type": "uint256"
        }
      ],
      "stateMutability": "view",
      "type": "function"
    },
    {
      "inputs": [
        {
          "internalType": "address",
          "name": "newAdmin",
          "type": "address"
        }
      ],
      "name": "transferAdmin",
      "outputs": [],
      "stateMutability": "nonpayable",
      "type": "function"
    },
    {
      "stateMutability": "payable",
      "type": "receive"
    },
    {
      "inputs": [
        {
          "internalType": "address",
          "name": "_tos",
          "type": "address"
        }
      ],
      "name": "setTOS",
      "outputs": [],
      "stateMutability": "nonpayable",
      "type": "function"
    },
    {
      "inputs": [
        {
          "internalType": "uint256",
          "name": "_cap",
          "type": "uint256"
        }
      ],
      "name": "changeCap",
      "outputs": [],
      "stateMutability": "nonpayable",
      "type": "function"
    },
    {
      "inputs": [
        {
          "internalType": "string",
          "name": "_name",
          "type": "string"
        }
      ],
      "name": "changeName",
      "outputs": [],
      "stateMutability": "nonpayable",
      "type": "function"
    },
    {
      "inputs": [
        {
          "internalType": "address",
          "name": "_stakeAddress",
          "type": "address"
        }
      ],
      "name": "setStakeAddress",
      "outputs": [],
      "stateMutability": "nonpayable",
      "type": "function"
    },
    {
      "inputs": [
        {
          "internalType": "uint256",
          "name": "_miningPerSecond",
          "type": "uint256"
        }
      ],
      "name": "setMiningAmountPerSecond",
      "outputs": [],
      "stateMutability": "nonpayable",
      "type": "function"
    },
    {
      "inputs": [
        {
          "internalType": "uint256",
          "name": "_miningStartTime",
          "type": "uint256"
        }
      ],
      "name": "setMiningStartTime",
      "outputs": [],
      "stateMutability": "nonpayable",
      "type": "function"
    },
    {
      "inputs": [
        {
          "internalType": "address",
          "name": "to",
          "type": "address"
        },
        {
          "internalType": "uint256",
          "name": "_amount",
          "type": "uint256"
        }
      ],
      "name": "withdraw",
      "outputs": [],
      "stateMutability": "nonpayable",
      "type": "function"
    },
    {
      "inputs": [
        {
          "internalType": "address",
          "name": "to",
          "type": "address"
        },
        {
          "internalType": "uint256",
          "name": "minableAmount",
          "type": "uint256"
        },
        {
          "internalType": "uint256",
          "name": "miningAmount",
          "type": "uint256"
        },
        {
          "internalType": "uint256",
          "name": "nonMiningAmount",
          "type": "uint256"
        }
      ],
      "name": "claimMining",
      "outputs": [
        {
          "internalType": "bool",
          "name": "",
          "type": "bool"
        }
      ],
      "stateMutability": "nonpayable",
      "type": "function"
    },
    {
      "inputs": [
        {
          "internalType": "address",
          "name": "_to",
          "type": "address"
        },
        {
          "internalType": "uint256",
          "name": "_amount",
          "type": "uint256"
        }
      ],
      "name": "claim",
      "outputs": [
        {
          "internalType": "bool",
          "name": "",
          "type": "bool"
        }
      ],
      "stateMutability": "nonpayable",
      "type": "function"
    },
    {
      "inputs": [],
      "name": "balanceTOSAvailableAmount",
      "outputs": [
        {
          "internalType": "uint256",
          "name": "",
          "type": "uint256"
        }
      ],
      "stateMutability": "view",
      "type": "function"
    },
    {
      "inputs": [],
      "name": "infos",
      "outputs": [
        {
          "internalType": "address[2]",
          "name": "",
          "type": "address[2]"
        },
        {
          "internalType": "uint256",
          "name": "",
          "type": "uint256"
        },
        {
          "internalType": "uint256",
          "name": "",
          "type": "uint256"
        },
        {
          "internalType": "uint256",
          "name": "",
          "type": "uint256"
        },
        {
          "internalType": "string",
          "name": "",
          "type": "string"
        }
      ],
      "stateMutability": "view",
      "type": "function"
    }
  ],
  "bytecode": "0x608060405234801561001057600080fd5b50612361806100206000396000f3fe6080604052600436106102095760003560e01c8063800edb9d11610113578063af182fce116100ab578063e79e447c1161006f578063e79e447c146105e9578063f009150914610609578063f02761141461061e578063f3fef3a31461063e578063fb9af8b81461065e5761022f565b8063af182fce1461056a578063b97af0db1461057f578063ca15c87314610594578063d5391393146105b4578063d547741f146105c95761022f565b8063800edb9d14610463578063851073671461048357806389f395de146104a55780639010d07c146104ba57806391d14854146104da5780639a88be2f146104fa578063a1f5f50e14610520578063a217fddf14610535578063aad3ec961461054a5761022f565b806336568abe116101a157806363a8fd891161016557806363a8fd89146103e457806366b2d527146103f9578063704802751461040e57806375829def1461042e57806375b238fc1461044e5761022f565b806336568abe1461035a57806340c2ce861461037a5780634ce77abe1461039a5780635353a2d8146103af5780635f139e3f146103cf5761022f565b806301f88d261461023457806306fdde031461025f5780631785f53c1461028157806323471d18146102a3578063248a9ca3146102c357806324d7806c146102e3578063282c51f3146103105780632f2ff15d14610325578063355274ea146103455761022f565b3661022f5760405162461bcd60e51b815260040161022690611f86565b60405180910390fd5b600080fd5b34801561024057600080fd5b5061024961067e565b6040516102569190611dff565b60405180910390f35b34801561026b57600080fd5b50610274610684565b6040516102569190611e08565b34801561028d57600080fd5b506102a161029c366004611b01565b61070f565b005b3480156102af57600080fd5b506102a16102be366004611b01565b61076e565b3480156102cf57600080fd5b506102496102de366004611b9c565b61085f565b3480156102ef57600080fd5b506103036102fe366004611b01565b610877565b6040516102569190611df4565b34801561031c57600080fd5b50610249610897565b34801561033157600080fd5b506102a1610340366004611bb4565b6108bb565b34801561035157600080fd5b50610249610922565b34801561036657600080fd5b506102a1610375366004611bb4565b610928565b34801561038657600080fd5b506102a1610395366004611b01565b610989565b3480156103a657600080fd5b50610249610a4c565b3480156103bb57600080fd5b506102a16103ca366004611c00565b610a52565b3480156103db57600080fd5b50610249610b16565b3480156103f057600080fd5b50610303610b1c565b34801561040557600080fd5b50610249610b25565b34801561041a57600080fd5b506102a1610429366004611b01565b610bab565b34801561043a57600080fd5b506102a1610449366004611b01565b610c07565b34801561045a57600080fd5b50610249610d28565b34801561046f57600080fd5b506102a161047e366004611b9c565b610d3a565b34801561048f57600080fd5b50610498610db1565b6040516102569190611d65565b3480156104b157600080fd5b50610498610dc0565b3480156104c657600080fd5b506104986104d5366004611bdf565b610dcf565b3480156104e657600080fd5b506103036104f5366004611bb4565b610dee565b34801561050657600080fd5b5061050f610e06565b604051610256959493929190611d92565b34801561052c57600080fd5b50610303610ee8565b34801561054157600080fd5b50610249610ef6565b34801561055657600080fd5b50610303610565366004611b1b565b610efb565b34801561057657600080fd5b50610249611109565b34801561058b57600080fd5b5061024961110f565b3480156105a057600080fd5b506102496105af366004611b9c565b611115565b3480156105c057600080fd5b5061024961112c565b3480156105d557600080fd5b506102a16105e4366004611bb4565b611150565b3480156105f557600080fd5b506102a1610604366004611b9c565b6111a9565b34801561061557600080fd5b50610249611220565b34801561062a57600080fd5b50610303610639366004611b44565b611226565b34801561064a57600080fd5b506102a1610659366004611b1b565b61156c565b34801561066a57600080fd5b506102a1610679366004611b9c565b6116f8565b60045481565b6002805460408051602060018416156101000260001901909316849004601f810184900484028201840190925281815292918301828280156107075780601f106106dc57610100808354040283529160200191610707565b820191906000526020600020905b8154815290600101906020018083116106ea57829003601f168201915b505050505081565b61071833610877565b6107535760405162461bcd60e51b815260040180806020018281038252602281526020018061228b6022913960400191505060405180910390fd5b61076b6000805160206122dd83398151915282610928565b50565b806001600160a01b0381166107ca576040805162461bcd60e51b815260206004820181905260248201527f5374616b65325661756c7453746f726167653a207a65726f2061646472657373604482015290519081900360640190fd5b6107d333610877565b61080e5760405162461bcd60e51b815260040180806020018281038252602281526020018061228b6022913960400191505060405180910390fd5b6007546001600160a01b038381169116141561083c5760405162461bcd60e51b8152600401610226906120ed565b50600780546001600160a01b0319166001600160a01b0392909216919091179055565b6000818152602081905260409020600201545b919050565b60006108916000805160206122dd83398151915283610dee565b92915050565b7f9667e80708b6eeeb0053fa0cca44e028ff548e2a9f029edfeac87c118b08b7c881565b6000828152602081905260409020600201546108d9906104f561176f565b6109145760405162461bcd60e51b815260040180806020018281038252602f81526020018061225c602f913960400191505060405180910390fd5b61091e8282611773565b5050565b60035481565b61093061176f565b6001600160a01b0316816001600160a01b03161461097f5760405162461bcd60e51b815260040180806020018281038252602f8152602001806122fd602f913960400191505060405180910390fd5b61091e82826117dc565b61099233610877565b6109cd5760405162461bcd60e51b815260040180806020018281038252602281526020018061228b6022913960400191505060405180910390fd5b806001600160a01b038116610a29576040805162461bcd60e51b815260206004820181905260248201527f5374616b65325661756c7453746f726167653a207a65726f2061646472657373604482015290519081900360640190fd5b50600180546001600160a01b0319166001600160a01b0392909216919091179055565b60055481565b610a5b33610877565b610a965760405162461bcd60e51b815260040180806020018281038252602281526020018061228b6022913960400191505060405180910390fd5b80604051602001610aa79190611cd9565b604051602081830303815290604052805190602001206002604051602001610acf9190611cf5565b604051602081830303815290604052805190602001201415610b035760405162461bcd60e51b815260040161022690611f4f565b805161091e906002906020840190611a2b565b60085481565b600c5460ff1681565b6001546040516370a0823160e01b81526000916001600160a01b0316906370a0823190610b56903090600401611d65565b60206040518083038186803b158015610b6e57600080fd5b505afa158015610b82573d6000803e3d6000fd5b505050506040513d601f19601f82011682018060405250810190610ba69190611c95565b905090565b610bb433610877565b610bef5760405162461bcd60e51b815260040180806020018281038252602281526020018061228b6022913960400191505060405180910390fd5b61076b6000805160206122dd833981519152826108bb565b610c1033610877565b610c4b5760405162461bcd60e51b815260040180806020018281038252602281526020018061228b6022913960400191505060405180910390fd5b6001600160a01b038116610ca1576040805162461bcd60e51b815260206004820152601860248201527741636365737369626c653a207a65726f206164647265737360401b604482015290519081900360640190fd5b336001600160a01b0382161415610cf8576040805162461bcd60e51b815260206004820152601660248201527520b1b1b2b9b9b4b136329d1039b0b6b29030b236b4b760511b604482015290519081900360640190fd5b610d106000805160206122dd833981519152826108bb565b61076b6000805160206122dd83398151915233610928565b6000805160206122dd83398151915281565b610d4333610877565b610d7e5760405162461bcd60e51b815260040180806020018281038252602281526020018061228b6022913960400191505060405180910390fd5b600081118015610d9057508060035414155b610dac5760405162461bcd60e51b815260040161022690611ffe565b600355565b6007546001600160a01b031681565b6001546001600160a01b031681565b6000828152602081905260408120610de79083611845565b9392505050565b6000828152602081905260408120610de79083611851565b610e0e611ab7565b604080518082018252600180546001600160a01b0390811683526007541660208084019190915260035460065460055460028054885161010097821615979097026000190116819004601f8101869004860287018601909852878652600097889788976060979196959493929091839190830182828015610ed05780601f10610ea557610100808354040283529160200191610ed0565b820191906000526020600020905b815481529060010190602001808311610eb357829003601f168201915b50505050509050945094509450945094509091929394565b600c54610100900460ff1681565b600081565b60008160008111610f53576040805162461bcd60e51b815260206004820152601e60248201527f5374616b65325661756c7453746f726167653a207a65726f2076616c75650000604482015290519081900360640190fd5b6001546040516370a0823160e01b81526000916001600160a01b0316906370a0823190610f84903090600401611d65565b60206040518083038186803b158015610f9c57600080fd5b505afa158015610fb0573d6000803e3d6000fd5b505050506040513d601f19601f82011682018060405250810190610fd49190611c95565b905083811015610ff65760405162461bcd60e51b815260040161022690611ee1565b610fff33610877565b61101b5760405162461bcd60e51b815260040161022690611e1b565b60015460405163a9059cbb60e01b81526001600160a01b039091169063a9059cbb9061104d9088908890600401611d79565b602060405180830381600087803b15801561106757600080fd5b505af115801561107b573d6000803e3d6000fd5b505050506040513d601f19601f8201168201806040525081019061109f9190611b7c565b6110bb5760405162461bcd60e51b815260040161022690611f18565b336001600160a01b03167ff7a40077ff7a04c7e61f6f26fb13774259ddf1b6bce9ecf26a8276cdd399268386866040516110f6929190611d79565b60405180910390a2506001949350505050565b60095481565b60065481565b600081815260208190526040812061089190611866565b7ff0887ba65ee2024ea881d91b74c2450ef19e1557f03bed3ea9f16b037cbe2dc981565b60008281526020819052604090206002015461116e906104f561176f565b61097f5760405162461bcd60e51b81526004018080602001828103825260308152602001806122ad6030913960400191505060405180910390fd5b6111b233610877565b6111ed5760405162461bcd60e51b815260040180806020018281038252602281526020018061228b6022913960400191505060405180910390fd5b6000811180156111ff57508060055414155b61121b5760405162461bcd60e51b815260040161022690611fb4565b600555565b600a5481565b6000836000811161127e576040805162461bcd60e51b815260206004820152601e60248201527f5374616b65325661756c7453746f726167653a207a65726f2076616c75650000604482015290519081900360640190fd5b426004541061129f5760405162461bcd60e51b81526004016102269061212f565b6007546001600160a01b031633146112c95760405162461bcd60e51b81526004016102269061217a565b82840185146112ea5760405162461bcd60e51b815260040161022690611e97565b6001546040516370a0823160e01b81526000916001600160a01b0316906370a082319061131b903090600401611d65565b60206040518083038186803b15801561133357600080fd5b505afa158015611347573d6000803e3d6000fd5b505050506040513d601f19601f8201168201806040525081019061136b9190611c95565b90508581101561138d5760405162461bcd60e51b815260040161022690611ee1565b60088054860190556009805485019055600a805487019081905560055460045442030210156113ce5760405162461bcd60e51b815260040161022690611e4c565b84156114745760015460405163a9059cbb60e01b81526001600160a01b039091169063a9059cbb90611406908a908990600401611d79565b602060405180830381600087803b15801561142057600080fd5b505af1158015611434573d6000803e3d6000fd5b505050506040513d601f19601f820116820180604052508101906114589190611b7c565b6114745760405162461bcd60e51b815260040161022690611f18565b831561151a57600154604051632770a7eb60e21b81526001600160a01b0390911690639dc29fac906114ac9030908890600401611d79565b602060405180830381600087803b1580156114c657600080fd5b505af11580156114da573d6000803e3d6000fd5b505050506040513d601f19601f820116820180604052508101906114fe9190611b7c565b61151a5760405162461bcd60e51b815260040161022690612035565b866001600160a01b03167f5a9adfc919404a42fdf241694d4c9ff0041b7b48fca6ed837402db9d1d6385a8878787604051611557939291906121f3565b60405180910390a25060019695505050505050565b61157533610877565b6115b05760405162461bcd60e51b815260040180806020018281038252602281526020018061228b6022913960400191505060405180910390fd5b6001546040516370a0823160e01b81526000916001600160a01b0316906370a08231906115e1903090600401611d65565b60206040518083038186803b1580156115f957600080fd5b505afa15801561160d573d6000803e3d6000fd5b505050506040513d601f19601f820116820180604052508101906116319190611c95565b9050818110156116535760405162461bcd60e51b8152600401610226906121c2565b60015460405163a9059cbb60e01b81526001600160a01b039091169063a9059cbb906116859086908690600401611d79565b602060405180830381600087803b15801561169f57600080fd5b505af11580156116b3573d6000803e3d6000fd5b505050506040513d601f19601f820116820180604052508101906116d79190611b7c565b6116f35760405162461bcd60e51b81526004016102269061206c565b505050565b61170133610877565b61173c5760405162461bcd60e51b815260040180806020018281038252602281526020018061228b6022913960400191505060405180910390fd5b60008111801561174e57508060045414155b61176a5760405162461bcd60e51b8152600401610226906120a3565b600455565b3390565b600082815260208190526040902061178b9082611871565b1561091e5761179861176f565b6001600160a01b0316816001600160a01b0316837f2f8788117e7eff1d82e926ec794901d17c78024a50270940304540a733656f0d60405160405180910390a45050565b60008281526020819052604090206117f49082611886565b1561091e5761180161176f565b6001600160a01b0316816001600160a01b0316837ff6391f5c32d9c69d2a47ea670b442974b53935d1edc7fd64eb21e047a839171b60405160405180910390a45050565b6000610de7838361189b565b6000610de7836001600160a01b0384166118ff565b600061089182611917565b6000610de7836001600160a01b03841661191b565b6000610de7836001600160a01b038416611965565b815460009082106118dd5760405162461bcd60e51b815260040180806020018281038252602281526020018061223a6022913960400191505060405180910390fd5b8260000182815481106118ec57fe5b9060005260206000200154905092915050565b60009081526001919091016020526040902054151590565b5490565b600061192783836118ff565b61195d57508154600181810184556000848152602080822090930184905584548482528286019093526040902091909155610891565b506000610891565b60008181526001830160205260408120548015611a21578354600019808301919081019060009087908390811061199857fe5b90600052602060002001549050808760000184815481106119b557fe5b6000918252602080832090910192909255828152600189810190925260409020908401905586548790806119e557fe5b60019003818190600052602060002001600090559055866001016000878152602001908152602001600020600090556001945050505050610891565b6000915050610891565b828054600181600116156101000203166002900490600052602060002090601f016020900481019282611a615760008555611aa7565b82601f10611a7a57805160ff1916838001178555611aa7565b82800160010185558215611aa7579182015b82811115611aa7578251825591602001919060010190611a8c565b50611ab3929150611ad5565b5090565b60405180604001604052806002906020820280368337509192915050565b5b80821115611ab35760008155600101611ad6565b80356001600160a01b038116811461087257600080fd5b600060208284031215611b12578081fd5b610de782611aea565b60008060408385031215611b2d578081fd5b611b3683611aea565b946020939093013593505050565b60008060008060808587031215611b59578182fd5b611b6285611aea565b966020860135965060408601359560600135945092505050565b600060208284031215611b8d578081fd5b81518015158114610de7578182fd5b600060208284031215611bad578081fd5b5035919050565b60008060408385031215611bc6578182fd5b82359150611bd660208401611aea565b90509250929050565b60008060408385031215611bf1578182fd5b50508035926020909101359150565b60006020808385031215611c12578182fd5b823567ffffffffffffffff80821115611c29578384fd5b818501915085601f830112611c3c578384fd5b813581811115611c4857fe5b604051601f8201601f1916810185018381118282101715611c6557fe5b6040528181528382018501881015611c7b578586fd5b818585018683013790810190930193909352509392505050565b600060208284031215611ca6578081fd5b5051919050565b60008151808452611cc5816020860160208601612209565b601f01601f19169290920160200192915050565b60008251611ceb818460208701612209565b9190910192915050565b6000808354600180821660008114611d145760018114611d2b57611d5a565b60ff198316865260028304607f1686019350611d5a565b600283048786526020808720875b83811015611d525781548a820152908501908201611d39565b505050860193505b509195945050505050565b6001600160a01b0391909116815260200190565b6001600160a01b03929092168252602082015260400190565b60008187825b6002811015611dc05781516001600160a01b0316835260209283019290910190600101611d98565b50505085604083015284606083015283608083015260c060a0830152611de960c0830184611cad565b979650505050505050565b901515815260200190565b90815260200190565b600060208252610de76020830184611cad565b602080825260179082015276029ba30b5b298ab30bab63a1d103737ba1030b236b4b71604d1b604082015260600190565b6020808252602b908201527f5374616b65325661756c743a2045786365656465642074686520736574206d6960408201526a1b9a5b99c8185b5bdd5b9d60aa1b606082015260800190565b6020808252602a908201527f5374616b65325661756c743a206d696e61626c6520616d6f756e74206973206e6040820152691bdd0818dbdc9c9958dd60b21b606082015260800190565b6020808252601f908201527f5374616b65325661756c743a206e6f7420656e6f7567682062616c616e636500604082015260600190565b6020808252601e908201527f5374616b65315661756c743a20544f53207472616e73666572206661696c0000604082015260600190565b6020808252601d908201527f5374616b65325661756c743a206368616e67654e616d65206661696c73000000604082015260600190565b60208082526014908201527331b0b73737ba103932b1b2b4bb329022ba3432b960611b604082015260600190565b6020808252602a908201527f5374616b65325661756c743a207a65726f206f722073616d65205f6d696e696e60408201526919d4195c94d958dbdb9960b21b606082015260800190565b6020808252601c908201527f5374616b65325661756c743a206368616e6765436170206661696c7300000000604082015260600190565b6020808252601a908201527f5374616b65315661756c743a20544f53206275726e206661696c000000000000604082015260600190565b6020808252601a908201527f5374616b65325661756c743a206661696c207769746864726177000000000000604082015260600190565b6020808252602a908201527f5374616b65325661756c743a207a65726f206f722073616d65205f6d696e696e60408201526967537461727454696d6560b01b606082015260800190565b60208082526022908201527f5374616b65325661756c743a207365745374616b6541646472657373206661696040820152616c7360f01b606082015260800190565b6020808252602b908201527f5374616b65325661756c743a206d696e696e67537461727454696d652068617360408201526a081b9bdd081c185cdcd95960aa1b606082015260800190565b60208082526028908201527f5374616b65325661756c743a2073656e646572206973206e6f74207374616b6560408201526710dbdb9d1c9858dd60c21b606082015260800190565b60208082526017908201527614dd185ad94c95985d5b1d0e881a5b9cdd59999a595b9d604a1b604082015260600190565b9283526020830191909152604082015260600190565b60005b8381101561222457818101518382015260200161220c565b83811115612233576000848401525b5050505056fe456e756d657261626c655365743a20696e646578206f7574206f6620626f756e6473416363657373436f6e74726f6c3a2073656e646572206d75737420626520616e2061646d696e20746f206772616e7441636365737369626c653a2043616c6c6572206973206e6f7420616e2061646d696e416363657373436f6e74726f6c3a2073656e646572206d75737420626520616e2061646d696e20746f207265766f6b65df8b4c520ffe197c5343c6f5aec59570151ef9a492f2c624fd45ddde6135ec42416363657373436f6e74726f6c3a2063616e206f6e6c792072656e6f756e636520726f6c657320666f722073656c66a264697066735822122017403f61b6aba7ec77986f3f313b76f7d5d1d44ca05fe744b7dde8bcc840624f64736f6c63430007060033",
  "immutableReferences": {},
  "source": "//SPDX-License-Identifier: Unlicense\npragma solidity ^0.7.6;\npragma abicoder v2;\n\nimport \"../interfaces/IStake2Vault.sol\";\nimport {ITOS} from \"../interfaces/ITOS.sol\";\nimport {IERC20} from \"@openzeppelin/contracts/token/ERC20/IERC20.sol\";\n\nimport \"@openzeppelin/contracts/math/SafeMath.sol\";\nimport \"./Stake2VaultStorage.sol\";\n\n/// @title TOS Token's Vault - stores the TOS for the period of time\n/// @notice A vault is associated with the set of stake contracts.\n/// Stake contracts can interact with the vault to claim TOS tokens\ncontract Stake2Vault is Stake2VaultStorage, IStake2Vault {\n    using SafeMath for uint256;\n\n    /// @dev event of according to request from(staking contract)  the amount of mining is paid to to.\n    /// @param to the address that will receive the reward\n    /// @param minableAmount minable amount\n    /// @param miningAmount amount mined\n    /// @param nonMiningAmount Amount not mined\n    event ClaimedMining(\n        address indexed to,\n        uint256 minableAmount,\n        uint256 miningAmount,\n        uint256 nonMiningAmount\n    );\n    event Claimed(address indexed from, address to, uint256 amount);\n\n    /// @dev constructor of Stake1Vault\n    constructor() {}\n\n    /// @dev receive function\n    receive() external payable {\n        revert(\"cannot receive Ether\");\n    }\n\n    /// @dev Sets TOS address\n    /// @param _tos  TOS address\n    function setTOS(address _tos)\n        external\n        override\n        onlyOwner\n        nonZeroAddress(_tos)\n    {\n        tos = _tos;\n    }\n\n    /// @dev Change cap of the vault\n    /// @param _cap  allocated reward amount\n    function changeCap(uint256 _cap) external override onlyOwner {\n        require(_cap > 0 && cap != _cap, \"Stake2Vault: changeCap fails\");\n        cap = _cap;\n    }\n\n    /// @dev change name\n    /// @param _name   name\n    function changeName(string memory _name) external override onlyOwner {\n        require(\n            keccak256(abi.encodePacked(name)) !=\n                keccak256(abi.encodePacked(_name)),\n            \"Stake2Vault: changeName fails\"\n        );\n        name = _name;\n    }\n\n    /// @dev set stake address\n    /// @param _stakeAddress  stake address\n    function setStakeAddress(address _stakeAddress)\n        external\n        override\n        nonZeroAddress(_stakeAddress)\n        onlyOwner\n    {\n        require(\n            stakeAddress != _stakeAddress,\n            \"Stake2Vault: setStakeAddress fails\"\n        );\n        stakeAddress = _stakeAddress;\n    }\n\n    /// @dev set reward per block\n    /// @param _rewardPerBlock  allocated reward amount\n    /* function setRewardPerBlock(uint256 _rewardPerBlock)\n        external\n        override\n        onlyOwner\n    {\n        require(\n            _rewardPerBlock > 0 && rewardPerBlock != _rewardPerBlock,\n            \"Stake2Vault: setRewardPerBlock fails\"\n        );\n        rewardPerBlock = _rewardPerBlock;\n    }*/\n\n    /// @dev set mining amount per second\n    /// @param _miningPerSecond  a mining amount per second\n    function setMiningAmountPerSecond(uint256 _miningPerSecond)\n        external\n        override\n        onlyOwner\n    {\n        require(\n            _miningPerSecond > 0 && miningPerSecond != _miningPerSecond,\n            \"Stake2Vault: zero or same _miningPerSecond\"\n        );\n        miningPerSecond = _miningPerSecond;\n    }\n\n    /// @dev set mining start time\n    /// @param _miningStartTime  mining start time\n    function setMiningStartTime(uint256 _miningStartTime)\n        external\n        override\n        onlyOwner\n    {\n        require(\n            _miningStartTime > 0 && miningStartTime != _miningStartTime,\n            \"Stake2Vault: zero or same _miningStartTime\"\n        );\n        miningStartTime = _miningStartTime;\n    }\n\n    /// @dev If the vault has more money than the reward to give, the owner can withdraw the remaining amount.\n    /// @param to to address\n    /// @param _amount the amount of withdrawal\n    function withdraw(address to, uint256 _amount) external override onlyOwner {\n        uint256 balanceOf = IERC20(tos).balanceOf(address(this));\n        require(balanceOf >= _amount, \"Stake2Vault: insuffient\");\n        require(\n            IERC20(tos).transfer(to, _amount),\n            \"Stake2Vault: fail withdraw\"\n        );\n    }\n\n    /// @dev  a according to request from(staking contract)  the amount of mining is paid to to.\n    /// @param to the address that will receive the reward\n    /// @param minableAmount minable amount\n    /// @param miningAmount amount mined\n    /// @param nonMiningAmount Amount not mined\n    function claimMining(\n        address to,\n        uint256 minableAmount,\n        uint256 miningAmount,\n        uint256 nonMiningAmount\n    ) external override nonZero(minableAmount) returns (bool) {\n        require(\n            miningStartTime < block.timestamp,\n            \"Stake2Vault: miningStartTime has not passed\"\n        );\n        require(\n            stakeAddress == msg.sender,\n            \"Stake2Vault: sender is not stakeContract\"\n        );\n        require(\n            minableAmount == (miningAmount + nonMiningAmount),\n            \"Stake2Vault: minable amount is not correct\"\n        );\n\n        uint256 tosBalance = IERC20(tos).balanceOf(address(this));\n        require(tosBalance >= minableAmount, \"Stake2Vault: not enough balance\");\n\n        miningAmountTotal += miningAmount;\n        nonMiningAmountTotal += nonMiningAmount;\n        totalMinedAmount += minableAmount;\n        require(\n            totalMinedAmount <=\n                (block.timestamp - miningStartTime) * miningPerSecond,\n            \"Stake2Vault: Exceeded the set mining amount\"\n        );\n\n        if (miningAmount > 0)\n            require(\n                IERC20(tos).transfer(to, miningAmount),\n                \"Stake1Vault: TOS transfer fail\"\n            );\n\n        if (nonMiningAmount > 0)\n            require(\n                ITOS(tos).burn(address(this), nonMiningAmount),\n                \"Stake1Vault: TOS burn fail\"\n            );\n\n        emit ClaimedMining(to, minableAmount, miningAmount, nonMiningAmount);\n        return true;\n    }\n\n    function claim(address _to, uint256 _amount)\n        external\n        override\n        nonZero(_amount)\n        returns (bool)\n    {\n        uint256 tosBalance = IERC20(tos).balanceOf(address(this));\n        require(tosBalance >= _amount, \"Stake2Vault: not enough balance\");\n        require(isAdmin(msg.sender), \"Stake1Vault: not admin \");\n        require(\n            IERC20(tos).transfer(_to, _amount),\n            \"Stake1Vault: TOS transfer fail\"\n        );\n\n        emit Claimed(msg.sender, _to, _amount);\n        return true;\n    }\n\n    /// @dev Returns Give the TOS balance stored in the vault\n    /// @return the balance of TOS in this vault.\n    function balanceTOSAvailableAmount()\n        external\n        view\n        override\n        returns (uint256)\n    {\n        return IERC20(tos).balanceOf(address(this));\n    }\n\n    /// @dev Give the infomation of this vault\n    /// @return return1 [tos, stakeAddress]\n    /// @return return2 cap\n    /// @return return3 stakeType\n    /// @return return4 miningPerSecond\n    /// @return return5 name\n    function infos()\n        external\n        view\n        override\n        returns (\n            address[2] memory,\n            uint256,\n            uint256,\n            uint256,\n            string memory\n        )\n    {\n        return ([tos, stakeAddress], cap, stakeType, miningPerSecond, name);\n    }\n\n    //// @dev Give all stakeContracts's addresses in this vault\n    //// @return all stakeContracts's addresses\n    // function stakeAddressesAll()\n    //     external\n    //     view\n    //     override\n    //     returns (address[] memory)\n    // {\n    //         address[] memory addr;\n    //         return addr;\n    // }\n}\n",
  "sourcePath": "/Users/zena/ico2.0/ico20-contracts/contracts/stake/Stake2Vault.sol",
  "compiler": {
    "name": "solc",
    "version": "0.7.6+commit.7338295f.Emscripten.clang"
  },
  "schemaVersion": "3.3.4",
  "updatedAt": "2021-08-01T15:27:40.533Z",
  "devdoc": {
    "events": {
      "ClaimedMining(address,uint256,uint256,uint256)": {
        "details": "event of according to request from(staking contract)  the amount of mining is paid to to.",
        "params": {
          "minableAmount": "minable amount",
          "miningAmount": "amount mined",
          "nonMiningAmount": "Amount not mined",
          "to": "the address that will receive the reward"
        }
      }
    },
    "kind": "dev",
    "methods": {
      "addAdmin(address)": {
        "details": "add admin",
        "params": {
          "account": "address to add"
        }
      },
      "balanceTOSAvailableAmount()": {
        "details": "Returns Give the TOS balance stored in the vault",
        "returns": {
          "_0": "the balance of TOS in this vault."
        }
      },
      "changeCap(uint256)": {
        "details": "Change cap of the vault",
        "params": {
          "_cap": "allocated reward amount"
        }
      },
      "changeName(string)": {
        "details": "change name",
        "params": {
          "_name": "name"
        }
      },
      "claim(address,uint256)": {
        "details": "claim function.sender is a staking contract.A function that pays the amount(_amount) to _to by the staking contract.A function that _to claim the amount(_amount) from the staking contract and gets the TOS in the vault.",
        "params": {
          "_amount": "the receiving amount",
          "_to": "a user that received reward"
        },
        "returns": {
          "_0": "true"
        }
      },
      "claimMining(address,uint256,uint256,uint256)": {
        "details": "a according to request from(staking contract)  the amount of mining is paid to to.",
        "params": {
          "minableAmount": "minable amount",
          "miningAmount": "amount mined",
          "nonMiningAmount": "Amount not mined",
          "to": "the address that will receive the reward"
        }
      },
      "constructor": {
        "details": "constructor of Stake1Vault"
      },
      "getRoleAdmin(bytes32)": {
        "details": "Returns the admin role that controls `role`. See {grantRole} and {revokeRole}. To change a role's admin, use {_setRoleAdmin}."
      },
      "getRoleMember(bytes32,uint256)": {
        "details": "Returns one of the accounts that have `role`. `index` must be a value between 0 and {getRoleMemberCount}, non-inclusive. Role bearers are not sorted in any particular way, and their ordering may change at any point. WARNING: When using {getRoleMember} and {getRoleMemberCount}, make sure you perform all queries on the same block. See the following https://forum.openzeppelin.com/t/iterating-over-elements-on-enumerableset-in-openzeppelin-contracts/2296[forum post] for more information."
      },
      "getRoleMemberCount(bytes32)": {
        "details": "Returns the number of accounts that have `role`. Can be used together with {getRoleMember} to enumerate all bearers of a role."
      },
      "grantRole(bytes32,address)": {
        "details": "Grants `role` to `account`. If `account` had not been already granted `role`, emits a {RoleGranted} event. Requirements: - the caller must have ``role``'s admin role."
      },
      "hasRole(bytes32,address)": {
        "details": "Returns `true` if `account` has been granted `role`."
      },
      "infos()": {
        "details": "Give the infomation of this vault",
        "returns": {
          "_0": "return1 [tos, stakeAddress]",
          "_1": "return2 cap",
          "_2": "return3 stakeType",
          "_3": "return4 miningPerSecond",
          "_4": "return5 name"
        }
      },
      "isAdmin(address)": {
        "details": "whether admin",
        "params": {
          "account": "address to check"
        }
      },
      "removeAdmin(address)": {
        "details": "remove admin",
        "params": {
          "account": "address to remove"
        }
      },
      "renounceRole(bytes32,address)": {
        "details": "Revokes `role` from the calling account. Roles are often managed via {grantRole} and {revokeRole}: this function's purpose is to provide a mechanism for accounts to lose their privileges if they are compromised (such as when a trusted device is misplaced). If the calling account had been granted `role`, emits a {RoleRevoked} event. Requirements: - the caller must be `account`."
      },
      "revokeRole(bytes32,address)": {
        "details": "Revokes `role` from `account`. If `account` had been granted `role`, emits a {RoleRevoked} event. Requirements: - the caller must have ``role``'s admin role."
      },
      "setMiningAmountPerSecond(uint256)": {
        "details": "set mining amount per second",
        "params": {
          "_miningPerSecond": "a mining amount per second"
        }
      },
      "setMiningStartTime(uint256)": {
        "details": "set mining start time",
        "params": {
          "_miningStartTime": "mining start time"
        }
      },
      "setStakeAddress(address)": {
        "details": "set stake address",
        "params": {
          "_stakeAddress": "stake address"
        }
      },
      "setTOS(address)": {
        "details": "Sets TOS address",
        "params": {
          "_tos": "TOS address"
        }
      },
      "transferAdmin(address)": {
        "details": "transfer admin",
        "params": {
          "newAdmin": "new admin address"
        }
      },
      "withdraw(address,uint256)": {
        "details": "If the vault has more money than the reward to give, the owner can withdraw the remaining amount.",
        "params": {
          "_amount": "the amount of withdrawal",
          "to": "to address"
        }
      }
    },
    "title": "TOS Token's Vault - stores the TOS for the period of time",
    "version": 1
  },
  "userdoc": {
    "kind": "user",
    "methods": {},
    "notice": "A vault is associated with the set of stake contracts. Stake contracts can interact with the vault to claim TOS tokens",
    "version": 1
  }
}