{
  "contractName": "Stake2Vault",
  "abi": [
    {
      "inputs": [],
      "stateMutability": "nonpayable",
      "type": "constructor"
    },
    {
      "anonymous": false,
      "inputs": [
        {
          "indexed": true,
          "internalType": "address",
          "name": "from",
          "type": "address"
        },
        {
          "indexed": false,
          "internalType": "address",
          "name": "to",
          "type": "address"
        },
        {
          "indexed": false,
          "internalType": "uint256",
          "name": "amount",
          "type": "uint256"
        }
      ],
      "name": "Claimed",
      "type": "event"
    },
    {
      "anonymous": false,
      "inputs": [
        {
          "indexed": true,
          "internalType": "address",
          "name": "to",
          "type": "address"
        },
        {
          "indexed": false,
          "internalType": "uint256",
          "name": "minableAmount",
          "type": "uint256"
        },
        {
          "indexed": false,
          "internalType": "uint256",
          "name": "miningAmount",
          "type": "uint256"
        },
        {
          "indexed": false,
          "internalType": "uint256",
          "name": "nonMiningAmount",
          "type": "uint256"
        }
      ],
      "name": "ClaimedMining",
      "type": "event"
    },
    {
      "anonymous": false,
      "inputs": [
        {
          "indexed": true,
          "internalType": "bytes32",
          "name": "role",
          "type": "bytes32"
        },
        {
          "indexed": true,
          "internalType": "bytes32",
          "name": "previousAdminRole",
          "type": "bytes32"
        },
        {
          "indexed": true,
          "internalType": "bytes32",
          "name": "newAdminRole",
          "type": "bytes32"
        }
      ],
      "name": "RoleAdminChanged",
      "type": "event"
    },
    {
      "anonymous": false,
      "inputs": [
        {
          "indexed": true,
          "internalType": "bytes32",
          "name": "role",
          "type": "bytes32"
        },
        {
          "indexed": true,
          "internalType": "address",
          "name": "account",
          "type": "address"
        },
        {
          "indexed": true,
          "internalType": "address",
          "name": "sender",
          "type": "address"
        }
      ],
      "name": "RoleGranted",
      "type": "event"
    },
    {
      "anonymous": false,
      "inputs": [
        {
          "indexed": true,
          "internalType": "bytes32",
          "name": "role",
          "type": "bytes32"
        },
        {
          "indexed": true,
          "internalType": "address",
          "name": "account",
          "type": "address"
        },
        {
          "indexed": true,
          "internalType": "address",
          "name": "sender",
          "type": "address"
        }
      ],
      "name": "RoleRevoked",
      "type": "event"
    },
    {
      "inputs": [],
      "name": "ADMIN_ROLE",
      "outputs": [
        {
          "internalType": "bytes32",
          "name": "",
          "type": "bytes32"
        }
      ],
      "stateMutability": "view",
      "type": "function"
    },
    {
      "inputs": [],
      "name": "BURNER_ROLE",
      "outputs": [
        {
          "internalType": "bytes32",
          "name": "",
          "type": "bytes32"
        }
      ],
      "stateMutability": "view",
      "type": "function"
    },
    {
      "inputs": [],
      "name": "DEFAULT_ADMIN_ROLE",
      "outputs": [
        {
          "internalType": "bytes32",
          "name": "",
          "type": "bytes32"
        }
      ],
      "stateMutability": "view",
      "type": "function"
    },
    {
      "inputs": [],
      "name": "MINTER_ROLE",
      "outputs": [
        {
          "internalType": "bytes32",
          "name": "",
          "type": "bytes32"
        }
      ],
      "stateMutability": "view",
      "type": "function"
    },
    {
      "inputs": [
        {
          "internalType": "address",
          "name": "account",
          "type": "address"
        }
      ],
      "name": "addAdmin",
      "outputs": [],
      "stateMutability": "nonpayable",
      "type": "function"
    },
    {
      "inputs": [],
      "name": "cap",
      "outputs": [
        {
          "internalType": "uint256",
          "name": "",
          "type": "uint256"
        }
      ],
      "stateMutability": "view",
      "type": "function"
    },
    {
      "inputs": [
        {
          "internalType": "bytes32",
          "name": "role",
          "type": "bytes32"
        }
      ],
      "name": "getRoleAdmin",
      "outputs": [
        {
          "internalType": "bytes32",
          "name": "",
          "type": "bytes32"
        }
      ],
      "stateMutability": "view",
      "type": "function"
    },
    {
      "inputs": [
        {
          "internalType": "bytes32",
          "name": "role",
          "type": "bytes32"
        },
        {
          "internalType": "uint256",
          "name": "index",
          "type": "uint256"
        }
      ],
      "name": "getRoleMember",
      "outputs": [
        {
          "internalType": "address",
          "name": "",
          "type": "address"
        }
      ],
      "stateMutability": "view",
      "type": "function"
    },
    {
      "inputs": [
        {
          "internalType": "bytes32",
          "name": "role",
          "type": "bytes32"
        }
      ],
      "name": "getRoleMemberCount",
      "outputs": [
        {
          "internalType": "uint256",
          "name": "",
          "type": "uint256"
        }
      ],
      "stateMutability": "view",
      "type": "function"
    },
    {
      "inputs": [
        {
          "internalType": "bytes32",
          "name": "role",
          "type": "bytes32"
        },
        {
          "internalType": "address",
          "name": "account",
          "type": "address"
        }
      ],
      "name": "grantRole",
      "outputs": [],
      "stateMutability": "nonpayable",
      "type": "function"
    },
    {
      "inputs": [
        {
          "internalType": "bytes32",
          "name": "role",
          "type": "bytes32"
        },
        {
          "internalType": "address",
          "name": "account",
          "type": "address"
        }
      ],
      "name": "hasRole",
      "outputs": [
        {
          "internalType": "bool",
          "name": "",
          "type": "bool"
        }
      ],
      "stateMutability": "view",
      "type": "function"
    },
    {
      "inputs": [
        {
          "internalType": "address",
          "name": "account",
          "type": "address"
        }
      ],
      "name": "isAdmin",
      "outputs": [
        {
          "internalType": "bool",
          "name": "",
          "type": "bool"
        }
      ],
      "stateMutability": "view",
      "type": "function"
    },
    {
      "inputs": [],
      "name": "migratedL2",
      "outputs": [
        {
          "internalType": "bool",
          "name": "",
          "type": "bool"
        }
      ],
      "stateMutability": "view",
      "type": "function"
    },
    {
      "inputs": [],
      "name": "miningPerSecond",
      "outputs": [
        {
          "internalType": "uint256",
          "name": "",
          "type": "uint256"
        }
      ],
      "stateMutability": "view",
      "type": "function"
    },
    {
      "inputs": [],
      "name": "name",
      "outputs": [
        {
          "internalType": "string",
          "name": "",
          "type": "string"
        }
      ],
      "stateMutability": "view",
      "type": "function"
    },
    {
      "inputs": [],
      "name": "pauseProxy",
      "outputs": [
        {
          "internalType": "bool",
          "name": "",
          "type": "bool"
        }
      ],
      "stateMutability": "view",
      "type": "function"
    },
    {
      "inputs": [
        {
          "internalType": "address",
          "name": "account",
          "type": "address"
        }
      ],
      "name": "removeAdmin",
      "outputs": [],
      "stateMutability": "nonpayable",
      "type": "function"
    },
    {
      "inputs": [
        {
          "internalType": "bytes32",
          "name": "role",
          "type": "bytes32"
        },
        {
          "internalType": "address",
          "name": "account",
          "type": "address"
        }
      ],
      "name": "renounceRole",
      "outputs": [],
      "stateMutability": "nonpayable",
      "type": "function"
    },
    {
      "inputs": [
        {
          "internalType": "bytes32",
          "name": "role",
          "type": "bytes32"
        },
        {
          "internalType": "address",
          "name": "account",
          "type": "address"
        }
      ],
      "name": "revokeRole",
      "outputs": [],
      "stateMutability": "nonpayable",
      "type": "function"
    },
    {
      "inputs": [],
      "name": "stakeAddress",
      "outputs": [
        {
          "internalType": "address",
          "name": "",
          "type": "address"
        }
      ],
      "stateMutability": "view",
      "type": "function"
    },
    {
      "inputs": [],
      "name": "stakeType",
      "outputs": [
        {
          "internalType": "uint256",
          "name": "",
          "type": "uint256"
        }
      ],
      "stateMutability": "view",
      "type": "function"
    },
    {
      "inputs": [],
      "name": "tos",
      "outputs": [
        {
          "internalType": "address",
          "name": "",
          "type": "address"
        }
      ],
      "stateMutability": "view",
      "type": "function"
    },
    {
      "inputs": [
        {
          "internalType": "address",
          "name": "newAdmin",
          "type": "address"
        }
      ],
      "name": "transferAdmin",
      "outputs": [],
      "stateMutability": "nonpayable",
      "type": "function"
    },
    {
      "stateMutability": "payable",
      "type": "receive"
    },
    {
      "inputs": [
        {
          "internalType": "address",
          "name": "_tos",
          "type": "address"
        }
      ],
      "name": "setTOS",
      "outputs": [],
      "stateMutability": "nonpayable",
      "type": "function"
    },
    {
      "inputs": [
        {
          "internalType": "uint256",
          "name": "_cap",
          "type": "uint256"
        }
      ],
      "name": "changeCap",
      "outputs": [],
      "stateMutability": "nonpayable",
      "type": "function"
    },
    {
      "inputs": [
        {
          "internalType": "string",
          "name": "_name",
          "type": "string"
        }
      ],
      "name": "changeName",
      "outputs": [],
      "stateMutability": "nonpayable",
      "type": "function"
    },
    {
      "inputs": [
        {
          "internalType": "address",
          "name": "_stakeAddress",
          "type": "address"
        }
      ],
      "name": "setStakeAddress",
      "outputs": [],
      "stateMutability": "nonpayable",
      "type": "function"
    },
    {
      "inputs": [
        {
          "internalType": "uint256",
          "name": "_miningPerSecond",
          "type": "uint256"
        }
      ],
      "name": "setMiningAmountPerSecond",
      "outputs": [],
      "stateMutability": "nonpayable",
      "type": "function"
    },
    {
      "inputs": [
        {
          "internalType": "address",
          "name": "to",
          "type": "address"
        },
        {
          "internalType": "uint256",
          "name": "_amount",
          "type": "uint256"
        }
      ],
      "name": "withdraw",
      "outputs": [],
      "stateMutability": "nonpayable",
      "type": "function"
    },
    {
      "inputs": [
        {
          "internalType": "address",
          "name": "to",
          "type": "address"
        },
        {
          "internalType": "uint256",
          "name": "minableAmount",
          "type": "uint256"
        },
        {
          "internalType": "uint256",
          "name": "miningAmount",
          "type": "uint256"
        },
        {
          "internalType": "uint256",
          "name": "nonMiningAmount",
          "type": "uint256"
        }
      ],
      "name": "claimMining",
      "outputs": [
        {
          "internalType": "bool",
          "name": "",
          "type": "bool"
        }
      ],
      "stateMutability": "nonpayable",
      "type": "function"
    },
    {
      "inputs": [
        {
          "internalType": "address",
          "name": "_to",
          "type": "address"
        },
        {
          "internalType": "uint256",
          "name": "_amount",
          "type": "uint256"
        }
      ],
      "name": "claim",
      "outputs": [
        {
          "internalType": "bool",
          "name": "",
          "type": "bool"
        }
      ],
      "stateMutability": "nonpayable",
      "type": "function"
    },
    {
      "inputs": [],
      "name": "balanceTOSAvailableAmount",
      "outputs": [
        {
          "internalType": "uint256",
          "name": "",
          "type": "uint256"
        }
      ],
      "stateMutability": "view",
      "type": "function"
    },
    {
      "inputs": [],
      "name": "infos",
      "outputs": [
        {
          "internalType": "address[2]",
          "name": "",
          "type": "address[2]"
        },
        {
          "internalType": "uint256",
          "name": "",
          "type": "uint256"
        },
        {
          "internalType": "uint256",
          "name": "",
          "type": "uint256"
        },
        {
          "internalType": "uint256",
          "name": "",
          "type": "uint256"
        },
        {
          "internalType": "string",
          "name": "",
          "type": "string"
        }
      ],
      "stateMutability": "view",
      "type": "function"
    }
  ],
  "bytecode": "0x608060405234801561001057600080fd5b506120c6806100206000396000f3fe6080604052600436106101b25760003560e01c806375b238fc116100ed578063a217fddf11610090578063a217fddf146104b4578063aad3ec96146104c9578063b97af0db146104e9578063ca15c873146104fe578063d53913931461051e578063d547741f14610533578063e79e447c14610553578063f027611414610573578063f3fef3a314610593576101d8565b806375b238fc146103cd578063800edb9d146103e2578063851073671461040257806389f395de146104245780639010d07c1461043957806391d14854146104595780639a88be2f14610479578063a1f5f50e1461049f576101d8565b806336568abe1161015557806336568abe146102ee57806340c2ce861461030e5780634ce77abe1461032e5780635353a2d81461034357806363a8fd891461036357806366b2d52714610378578063704802751461038d57806375829def146103ad576101d8565b806306fdde03146101dd5780631785f53c1461020857806323471d181461022a578063248a9ca31461024a57806324d7806c14610277578063282c51f3146102a45780632f2ff15d146102b9578063355274ea146102d9576101d8565b366101d85760405162461bcd60e51b81526004016101cf90611d7f565b60405180910390fd5b600080fd5b3480156101e957600080fd5b506101f26105b3565b6040516101ff9190611c4c565b60405180910390f35b34801561021457600080fd5b50610228610223366004611945565b61063e565b005b34801561023657600080fd5b50610228610245366004611945565b61069d565b34801561025657600080fd5b5061026a6102653660046119e0565b61078e565b6040516101ff9190611c43565b34801561028357600080fd5b50610297610292366004611945565b6107a6565b6040516101ff9190611c38565b3480156102b057600080fd5b5061026a6107c6565b3480156102c557600080fd5b506102286102d43660046119f8565b6107ea565b3480156102e557600080fd5b5061026a610851565b3480156102fa57600080fd5b506102286103093660046119f8565b610857565b34801561031a57600080fd5b50610228610329366004611945565b6108b8565b34801561033a57600080fd5b5061026a61097b565b34801561034f57600080fd5b5061022861035e366004611a44565b610981565b34801561036f57600080fd5b50610297610a45565b34801561038457600080fd5b5061026a610a4e565b34801561039957600080fd5b506102286103a8366004611945565b610ad4565b3480156103b957600080fd5b506102286103c8366004611945565b610b30565b3480156103d957600080fd5b5061026a610c51565b3480156103ee57600080fd5b506102286103fd3660046119e0565b610c63565b34801561040e57600080fd5b50610417610cda565b6040516101ff9190611ba9565b34801561043057600080fd5b50610417610ce9565b34801561044557600080fd5b50610417610454366004611a23565b610cf8565b34801561046557600080fd5b506102976104743660046119f8565b610d17565b34801561048557600080fd5b5061048e610d2f565b6040516101ff959493929190611bd6565b3480156104ab57600080fd5b50610297610e11565b3480156104c057600080fd5b5061026a610e1f565b3480156104d557600080fd5b506102976104e436600461195f565b610e24565b3480156104f557600080fd5b5061026a611032565b34801561050a57600080fd5b5061026a6105193660046119e0565b611038565b34801561052a57600080fd5b5061026a61104f565b34801561053f57600080fd5b5061022861054e3660046119f8565b611073565b34801561055f57600080fd5b5061022861056e3660046119e0565b6110cc565b34801561057f57600080fd5b5061029761058e366004611988565b611143565b34801561059f57600080fd5b506102286105ae36600461195f565b611427565b6002805460408051602060018416156101000260001901909316849004601f810184900484028201840190925281815292918301828280156106365780601f1061060b57610100808354040283529160200191610636565b820191906000526020600020905b81548152906001019060200180831161061957829003601f168201915b505050505081565b610647336107a6565b6106825760405162461bcd60e51b8152600401808060200182810382526022815260200180611ff06022913960400191505060405180910390fd5b61069a60008051602061204283398151915282610857565b50565b806001600160a01b0381166106f9576040805162461bcd60e51b815260206004820181905260248201527f5374616b65325661756c7453746f726167653a207a65726f2061646472657373604482015290519081900360640190fd5b610702336107a6565b61073d5760405162461bcd60e51b8152600401808060200182810382526022815260200180611ff06022913960400191505060405180910390fd5b6006546001600160a01b038381169116141561076b5760405162461bcd60e51b81526004016101cf90611e9d565b50600680546001600160a01b0319166001600160a01b0392909216919091179055565b6000818152602081905260409020600201545b919050565b60006107c060008051602061204283398151915283610d17565b92915050565b7f9667e80708b6eeeb0053fa0cca44e028ff548e2a9f029edfeac87c118b08b7c881565b600082815260208190526040902060020154610808906104746115b3565b6108435760405162461bcd60e51b815260040180806020018281038252602f815260200180611fc1602f913960400191505060405180910390fd5b61084d82826115b7565b5050565b60035481565b61085f6115b3565b6001600160a01b0316816001600160a01b0316146108ae5760405162461bcd60e51b815260040180806020018281038252602f815260200180612062602f913960400191505060405180910390fd5b61084d8282611620565b6108c1336107a6565b6108fc5760405162461bcd60e51b8152600401808060200182810382526022815260200180611ff06022913960400191505060405180910390fd5b806001600160a01b038116610958576040805162461bcd60e51b815260206004820181905260248201527f5374616b65325661756c7453746f726167653a207a65726f2061646472657373604482015290519081900360640190fd5b50600180546001600160a01b0319166001600160a01b0392909216919091179055565b60045481565b61098a336107a6565b6109c55760405162461bcd60e51b8152600401808060200182810382526022815260200180611ff06022913960400191505060405180910390fd5b806040516020016109d69190611b1d565b6040516020818303038152906040528051906020012060026040516020016109fe9190611b39565b604051602081830303815290604052805190602001201415610a325760405162461bcd60e51b81526004016101cf90611d48565b805161084d90600290602084019061186f565b60085460ff1681565b6001546040516370a0823160e01b81526000916001600160a01b0316906370a0823190610a7f903090600401611ba9565b60206040518083038186803b158015610a9757600080fd5b505afa158015610aab573d6000803e3d6000fd5b505050506040513d601f19601f82011682018060405250810190610acf9190611ad9565b905090565b610add336107a6565b610b185760405162461bcd60e51b8152600401808060200182810382526022815260200180611ff06022913960400191505060405180910390fd5b61069a600080516020612042833981519152826107ea565b610b39336107a6565b610b745760405162461bcd60e51b8152600401808060200182810382526022815260200180611ff06022913960400191505060405180910390fd5b6001600160a01b038116610bca576040805162461bcd60e51b815260206004820152601860248201527741636365737369626c653a207a65726f206164647265737360401b604482015290519081900360640190fd5b336001600160a01b0382161415610c21576040805162461bcd60e51b815260206004820152601660248201527520b1b1b2b9b9b4b136329d1039b0b6b29030b236b4b760511b604482015290519081900360640190fd5b610c39600080516020612042833981519152826107ea565b61069a60008051602061204283398151915233610857565b60008051602061204283398151915281565b610c6c336107a6565b610ca75760405162461bcd60e51b8152600401808060200182810382526022815260200180611ff06022913960400191505060405180910390fd5b600081118015610cb957508060035414155b610cd55760405162461bcd60e51b81526004016101cf90611dad565b600355565b6006546001600160a01b031681565b6001546001600160a01b031681565b6000828152602081905260408120610d109083611689565b9392505050565b6000828152602081905260408120610d109083611695565b610d376118fb565b604080518082018252600180546001600160a01b0390811683526006541660208084019190915260035460055460045460028054885161010097821615979097026000190116819004601f8101869004860287018601909852878652600097889788976060979196959493929091839190830182828015610df95780601f10610dce57610100808354040283529160200191610df9565b820191906000526020600020905b815481529060010190602001808311610ddc57829003601f168201915b50505050509050945094509450945094509091929394565b600854610100900460ff1681565b600081565b60008160008111610e7c576040805162461bcd60e51b815260206004820152601e60248201527f5374616b65325661756c7453746f726167653a207a65726f2076616c75650000604482015290519081900360640190fd5b6001546040516370a0823160e01b81526000916001600160a01b0316906370a0823190610ead903090600401611ba9565b60206040518083038186803b158015610ec557600080fd5b505afa158015610ed9573d6000803e3d6000fd5b505050506040513d601f19601f82011682018060405250810190610efd9190611ad9565b905083811015610f1f5760405162461bcd60e51b81526004016101cf90611cda565b610f28336107a6565b610f445760405162461bcd60e51b81526004016101cf90611c5f565b60015460405163a9059cbb60e01b81526001600160a01b039091169063a9059cbb90610f769088908890600401611bbd565b602060405180830381600087803b158015610f9057600080fd5b505af1158015610fa4573d6000803e3d6000fd5b505050506040513d601f19601f82011682018060405250810190610fc891906119c0565b610fe45760405162461bcd60e51b81526004016101cf90611d11565b336001600160a01b03167ff7a40077ff7a04c7e61f6f26fb13774259ddf1b6bce9ecf26a8276cdd3992683868660405161101f929190611bbd565b60405180910390a2506001949350505050565b60055481565b60008181526020819052604081206107c0906116aa565b7ff0887ba65ee2024ea881d91b74c2450ef19e1557f03bed3ea9f16b037cbe2dc981565b600082815260208190526040902060020154611091906104746115b3565b6108ae5760405162461bcd60e51b81526004018080602001828103825260308152602001806120126030913960400191505060405180910390fd5b6110d5336107a6565b6111105760405162461bcd60e51b8152600401808060200182810382526022815260200180611ff06022913960400191505060405180910390fd5b60008111801561112257508060045414155b61113e5760405162461bcd60e51b81526004016101cf90611e52565b600455565b6000836000811161119b576040805162461bcd60e51b815260206004820152601e60248201527f5374616b65325661756c7453746f726167653a207a65726f2076616c75650000604482015290519081900360640190fd5b6006546001600160a01b031633146111c55760405162461bcd60e51b81526004016101cf90611edf565b82840185146111e65760405162461bcd60e51b81526004016101cf90611c90565b6001546040516370a0823160e01b81526000916001600160a01b0316906370a0823190611217903090600401611ba9565b60206040518083038186803b15801561122f57600080fd5b505afa158015611243573d6000803e3d6000fd5b505050506040513d601f19601f820116820180604052508101906112679190611ad9565b9050858110156112895760405162461bcd60e51b81526004016101cf90611cda565b841561132f5760015460405163a9059cbb60e01b81526001600160a01b039091169063a9059cbb906112c1908a908990600401611bbd565b602060405180830381600087803b1580156112db57600080fd5b505af11580156112ef573d6000803e3d6000fd5b505050506040513d601f19601f8201168201806040525081019061131391906119c0565b61132f5760405162461bcd60e51b81526004016101cf90611d11565b83156113d557600154604051632770a7eb60e21b81526001600160a01b0390911690639dc29fac906113679030908890600401611bbd565b602060405180830381600087803b15801561138157600080fd5b505af1158015611395573d6000803e3d6000fd5b505050506040513d601f19601f820116820180604052508101906113b991906119c0565b6113d55760405162461bcd60e51b81526004016101cf90611de4565b866001600160a01b03167f5a9adfc919404a42fdf241694d4c9ff0041b7b48fca6ed837402db9d1d6385a887878760405161141293929190611f58565b60405180910390a25060019695505050505050565b611430336107a6565b61146b5760405162461bcd60e51b8152600401808060200182810382526022815260200180611ff06022913960400191505060405180910390fd5b6001546040516370a0823160e01b81526000916001600160a01b0316906370a082319061149c903090600401611ba9565b60206040518083038186803b1580156114b457600080fd5b505afa1580156114c8573d6000803e3d6000fd5b505050506040513d601f19601f820116820180604052508101906114ec9190611ad9565b90508181101561150e5760405162461bcd60e51b81526004016101cf90611f27565b60015460405163a9059cbb60e01b81526001600160a01b039091169063a9059cbb906115409086908690600401611bbd565b602060405180830381600087803b15801561155a57600080fd5b505af115801561156e573d6000803e3d6000fd5b505050506040513d601f19601f8201168201806040525081019061159291906119c0565b6115ae5760405162461bcd60e51b81526004016101cf90611e1b565b505050565b3390565b60008281526020819052604090206115cf90826116b5565b1561084d576115dc6115b3565b6001600160a01b0316816001600160a01b0316837f2f8788117e7eff1d82e926ec794901d17c78024a50270940304540a733656f0d60405160405180910390a45050565b600082815260208190526040902061163890826116ca565b1561084d576116456115b3565b6001600160a01b0316816001600160a01b0316837ff6391f5c32d9c69d2a47ea670b442974b53935d1edc7fd64eb21e047a839171b60405160405180910390a45050565b6000610d1083836116df565b6000610d10836001600160a01b038416611743565b60006107c08261175b565b6000610d10836001600160a01b03841661175f565b6000610d10836001600160a01b0384166117a9565b815460009082106117215760405162461bcd60e51b8152600401808060200182810382526022815260200180611f9f6022913960400191505060405180910390fd5b82600001828154811061173057fe5b9060005260206000200154905092915050565b60009081526001919091016020526040902054151590565b5490565b600061176b8383611743565b6117a1575081546001818101845560008481526020808220909301849055845484825282860190935260409020919091556107c0565b5060006107c0565b6000818152600183016020526040812054801561186557835460001980830191908101906000908790839081106117dc57fe5b90600052602060002001549050808760000184815481106117f957fe5b60009182526020808320909101929092558281526001898101909252604090209084019055865487908061182957fe5b600190038181906000526020600020016000905590558660010160008781526020019081526020016000206000905560019450505050506107c0565b60009150506107c0565b828054600181600116156101000203166002900490600052602060002090601f0160209004810192826118a557600085556118eb565b82601f106118be57805160ff19168380011785556118eb565b828001600101855582156118eb579182015b828111156118eb5782518255916020019190600101906118d0565b506118f7929150611919565b5090565b60405180604001604052806002906020820280368337509192915050565b5b808211156118f7576000815560010161191a565b80356001600160a01b03811681146107a157600080fd5b600060208284031215611956578081fd5b610d108261192e565b60008060408385031215611971578081fd5b61197a8361192e565b946020939093013593505050565b6000806000806080858703121561199d578182fd5b6119a68561192e565b966020860135965060408601359560600135945092505050565b6000602082840312156119d1578081fd5b81518015158114610d10578182fd5b6000602082840312156119f1578081fd5b5035919050565b60008060408385031215611a0a578182fd5b82359150611a1a6020840161192e565b90509250929050565b60008060408385031215611a35578182fd5b50508035926020909101359150565b60006020808385031215611a56578182fd5b823567ffffffffffffffff80821115611a6d578384fd5b818501915085601f830112611a80578384fd5b813581811115611a8c57fe5b604051601f8201601f1916810185018381118282101715611aa957fe5b6040528181528382018501881015611abf578586fd5b818585018683013790810190930193909352509392505050565b600060208284031215611aea578081fd5b5051919050565b60008151808452611b09816020860160208601611f6e565b601f01601f19169290920160200192915050565b60008251611b2f818460208701611f6e565b9190910192915050565b6000808354600180821660008114611b585760018114611b6f57611b9e565b60ff198316865260028304607f1686019350611b9e565b600283048786526020808720875b83811015611b965781548a820152908501908201611b7d565b505050860193505b509195945050505050565b6001600160a01b0391909116815260200190565b6001600160a01b03929092168252602082015260400190565b60008187825b6002811015611c045781516001600160a01b0316835260209283019290910190600101611bdc565b50505085604083015284606083015283608083015260c060a0830152611c2d60c0830184611af1565b979650505050505050565b901515815260200190565b90815260200190565b600060208252610d106020830184611af1565b602080825260179082015276029ba30b5b298ab30bab63a1d103737ba1030b236b4b71604d1b604082015260600190565b6020808252602a908201527f5374616b65325661756c743a206d696e61626c6520616d6f756e74206973206e6040820152691bdd0818dbdc9c9958dd60b21b606082015260800190565b6020808252601f908201527f5374616b65325661756c743a206e6f7420656e6f7567682062616c616e636500604082015260600190565b6020808252601e908201527f5374616b65315661756c743a20544f53207472616e73666572206661696c0000604082015260600190565b6020808252601d908201527f5374616b65325661756c743a206368616e67654e616d65206661696c73000000604082015260600190565b60208082526014908201527331b0b73737ba103932b1b2b4bb329022ba3432b960611b604082015260600190565b6020808252601c908201527f5374616b65325661756c743a206368616e6765436170206661696c7300000000604082015260600190565b6020808252601a908201527f5374616b65315661756c743a20544f53206275726e206661696c000000000000604082015260600190565b6020808252601a908201527f5374616b65325661756c743a206661696c207769746864726177000000000000604082015260600190565b6020808252602b908201527f5374616b65325661756c743a207365744d696e696e67416d6f756e745065725360408201526a65636f6e64206661696c7360a81b606082015260800190565b60208082526022908201527f5374616b65325661756c743a207365745374616b6541646472657373206661696040820152616c7360f01b606082015260800190565b60208082526028908201527f5374616b65325661756c743a2073656e646572206973206e6f74207374616b6560408201526710dbdb9d1c9858dd60c21b606082015260800190565b60208082526017908201527614dd185ad94c95985d5b1d0e881a5b9cdd59999a595b9d604a1b604082015260600190565b9283526020830191909152604082015260600190565b60005b83811015611f89578181015183820152602001611f71565b83811115611f98576000848401525b5050505056fe456e756d657261626c655365743a20696e646578206f7574206f6620626f756e6473416363657373436f6e74726f6c3a2073656e646572206d75737420626520616e2061646d696e20746f206772616e7441636365737369626c653a2043616c6c6572206973206e6f7420616e2061646d696e416363657373436f6e74726f6c3a2073656e646572206d75737420626520616e2061646d696e20746f207265766f6b65df8b4c520ffe197c5343c6f5aec59570151ef9a492f2c624fd45ddde6135ec42416363657373436f6e74726f6c3a2063616e206f6e6c792072656e6f756e636520726f6c657320666f722073656c66a2646970667358221220e6d04c327a5ca75e657d38d64bcbd6638e5ff3da3cf597b05af7d99d023c755364736f6c63430007060033",
  "immutableReferences": {},
  "source": "//SPDX-License-Identifier: Unlicense\npragma solidity ^0.7.6;\npragma abicoder v2;\n\nimport \"../interfaces/IStake2Vault.sol\";\nimport {ITOS} from \"../interfaces/ITOS.sol\";\nimport {IERC20} from \"@openzeppelin/contracts/token/ERC20/IERC20.sol\";\n\nimport \"@openzeppelin/contracts/math/SafeMath.sol\";\nimport \"./Stake2VaultStorage.sol\";\n\n/// @title TOS Token's Vault - stores the TOS for the period of time\n/// @notice A vault is associated with the set of stake contracts.\n/// Stake contracts can interact with the vault to claim TOS tokens\ncontract Stake2Vault is Stake2VaultStorage, IStake2Vault {\n    using SafeMath for uint256;\n\n    /// @dev event of according to request from(staking contract)  the amount of mining is paid to to.\n    /// @param to the address that will receive the reward\n    /// @param minableAmount minable amount\n    /// @param miningAmount amount mined\n    /// @param nonMiningAmount Amount not mined\n    event ClaimedMining(address indexed to, uint256 minableAmount, uint256 miningAmount,  uint256 nonMiningAmount);\n    event Claimed(address indexed from, address to, uint256 amount);\n\n    /// @dev constructor of Stake1Vault\n    constructor() {}\n\n    /// @dev receive function\n    receive() external payable {\n        revert(\"cannot receive Ether\");\n    }\n\n    /// @dev Sets TOS address\n    /// @param _tos  TOS address\n    function setTOS(address _tos)\n        external\n        override\n        onlyOwner\n        nonZeroAddress(_tos)\n    {\n        tos = _tos;\n    }\n\n    /// @dev Change cap of the vault\n    /// @param _cap  allocated reward amount\n    function changeCap(uint256 _cap) external override onlyOwner {\n        require(_cap > 0 && cap != _cap, \"Stake2Vault: changeCap fails\");\n        cap = _cap;\n    }\n\n    /// @dev change name\n    /// @param _name   name\n    function changeName(string memory _name) external override onlyOwner {\n        require(\n            keccak256(abi.encodePacked(name)) !=\n                keccak256(abi.encodePacked(_name)),\n            \"Stake2Vault: changeName fails\"\n        );\n        name = _name;\n    }\n\n    /// @dev set stake address\n    /// @param _stakeAddress  stake address\n    function setStakeAddress(address _stakeAddress)\n        external\n        override\n        nonZeroAddress(_stakeAddress)\n        onlyOwner\n    {\n        require(\n            stakeAddress != _stakeAddress,\n            \"Stake2Vault: setStakeAddress fails\"\n        );\n        stakeAddress = _stakeAddress;\n    }\n\n    /// @dev set reward per block\n    /// @param _rewardPerBlock  allocated reward amount\n   /* function setRewardPerBlock(uint256 _rewardPerBlock)\n        external\n        override\n        onlyOwner\n    {\n        require(\n            _rewardPerBlock > 0 && rewardPerBlock != _rewardPerBlock,\n            \"Stake2Vault: setRewardPerBlock fails\"\n        );\n        rewardPerBlock = _rewardPerBlock;\n    }*/\n\n    /// @dev set mining amount per second\n    /// @param _miningPerSecond  a mining amount per second\n    function setMiningAmountPerSecond(uint256 _miningPerSecond)\n        external\n        override\n        onlyOwner\n    {\n        require(\n            _miningPerSecond > 0 && miningPerSecond != _miningPerSecond,\n            \"Stake2Vault: setMiningAmountPerSecond fails\"\n        );\n        miningPerSecond = _miningPerSecond;\n    }\n\n    /// @dev If the vault has more money than the reward to give, the owner can withdraw the remaining amount.\n    /// @param to to address\n    /// @param _amount the amount of withdrawal\n    function withdraw(address to, uint256 _amount) external override onlyOwner {\n        uint256 balanceOf = IERC20(tos).balanceOf(address(this));\n        require(balanceOf >= _amount, \"Stake2Vault: insuffient\");\n        require(\n            IERC20(tos).transfer(to, _amount),\n            \"Stake2Vault: fail withdraw\"\n        );\n    }\n\n    /// @dev  a according to request from(staking contract)  the amount of mining is paid to to.\n    /// @param to the address that will receive the reward\n    /// @param minableAmount minable amount\n    /// @param miningAmount amount mined\n    /// @param nonMiningAmount Amount not mined\n    function claimMining(address to, uint256 minableAmount, uint256 miningAmount, uint256 nonMiningAmount)\n        external\n        override\n        nonZero(minableAmount)\n        returns (bool)\n    {\n        require(stakeAddress == msg.sender, \"Stake2Vault: sender is not stakeContract\");\n        require(minableAmount == (miningAmount + nonMiningAmount) , \"Stake2Vault: minable amount is not correct\");\n\n        uint256 tosBalance = IERC20(tos).balanceOf(address(this));\n        require(tosBalance >= minableAmount, \"Stake2Vault: not enough balance\");\n\n        if(miningAmount > 0)\n            require(\n                IERC20(tos).transfer(to, miningAmount),\n                \"Stake1Vault: TOS transfer fail\"\n            );\n\n        if(nonMiningAmount > 0)\n            require(\n                ITOS(tos).burn(address(this), nonMiningAmount),\n                \"Stake1Vault: TOS burn fail\"\n            );\n\n        emit ClaimedMining(to, minableAmount, miningAmount, nonMiningAmount);\n        return true;\n    }\n\n    function claim(address _to, uint256 _amount)\n        external\n        override\n        nonZero(_amount)\n        returns (bool)\n    {\n        uint256 tosBalance = IERC20(tos).balanceOf(address(this));\n        require(tosBalance >= _amount, \"Stake2Vault: not enough balance\");\n        require(isAdmin(msg.sender),\n            \"Stake1Vault: not admin \"\n        );\n        require(\n            IERC20(tos).transfer(_to, _amount),\n            \"Stake1Vault: TOS transfer fail\"\n        );\n\n        emit Claimed(msg.sender, _to, _amount);\n        return true;\n    }\n\n\n    /// @dev Returns Give the TOS balance stored in the vault\n    /// @return the balance of TOS in this vault.\n    function balanceTOSAvailableAmount()\n        external\n        view\n        override\n        returns (uint256)\n    {\n        return IERC20(tos).balanceOf(address(this));\n    }\n\n    /// @dev Give the infomation of this vault\n    /// @return return1 [tos, stakeAddress]\n    /// @return return2 cap\n    /// @return return3 stakeType\n    /// @return return4 miningPerSecond\n    /// @return return5 name\n    function infos()\n        external\n        view\n        override\n        returns (\n            address[2] memory,\n            uint256,\n            uint256,\n            uint256,\n            string memory\n        )\n    {\n        return ([tos, stakeAddress], cap, stakeType, miningPerSecond, name);\n    }\n\n    //// @dev Give all stakeContracts's addresses in this vault\n    //// @return all stakeContracts's addresses\n    // function stakeAddressesAll()\n    //     external\n    //     view\n    //     override\n    //     returns (address[] memory)\n    // {\n    //         address[] memory addr;\n    //         return addr;\n    // }\n}\n",
  "sourcePath": "/Users/zena/ico2.0/ico20-contracts/contracts/stake/Stake2Vault.sol",
  "compiler": {
    "name": "solc",
    "version": "0.7.6+commit.7338295f.Emscripten.clang"
  },
  "schemaVersion": "3.3.4",
  "updatedAt": "2021-07-28T11:36:55.550Z",
  "devdoc": {
    "events": {
      "ClaimedMining(address,uint256,uint256,uint256)": {
        "details": "event of according to request from(staking contract)  the amount of mining is paid to to.",
        "params": {
          "minableAmount": "minable amount",
          "miningAmount": "amount mined",
          "nonMiningAmount": "Amount not mined",
          "to": "the address that will receive the reward"
        }
      }
    },
    "kind": "dev",
    "methods": {
      "addAdmin(address)": {
        "details": "add admin",
        "params": {
          "account": "address to add"
        }
      },
      "balanceTOSAvailableAmount()": {
        "details": "Returns Give the TOS balance stored in the vault",
        "returns": {
          "_0": "the balance of TOS in this vault."
        }
      },
      "changeCap(uint256)": {
        "details": "Change cap of the vault",
        "params": {
          "_cap": "allocated reward amount"
        }
      },
      "changeName(string)": {
        "details": "change name",
        "params": {
          "_name": "name"
        }
      },
      "claim(address,uint256)": {
        "details": "claim function.sender is a staking contract.A function that pays the amount(_amount) to _to by the staking contract.A function that _to claim the amount(_amount) from the staking contract and gets the TOS in the vault.",
        "params": {
          "_amount": "the receiving amount",
          "_to": "a user that received reward"
        },
        "returns": {
          "_0": "true"
        }
      },
      "claimMining(address,uint256,uint256,uint256)": {
        "details": "a according to request from(staking contract)  the amount of mining is paid to to.",
        "params": {
          "minableAmount": "minable amount",
          "miningAmount": "amount mined",
          "nonMiningAmount": "Amount not mined",
          "to": "the address that will receive the reward"
        }
      },
      "constructor": {
        "details": "constructor of Stake1Vault"
      },
      "getRoleAdmin(bytes32)": {
        "details": "Returns the admin role that controls `role`. See {grantRole} and {revokeRole}. To change a role's admin, use {_setRoleAdmin}."
      },
      "getRoleMember(bytes32,uint256)": {
        "details": "Returns one of the accounts that have `role`. `index` must be a value between 0 and {getRoleMemberCount}, non-inclusive. Role bearers are not sorted in any particular way, and their ordering may change at any point. WARNING: When using {getRoleMember} and {getRoleMemberCount}, make sure you perform all queries on the same block. See the following https://forum.openzeppelin.com/t/iterating-over-elements-on-enumerableset-in-openzeppelin-contracts/2296[forum post] for more information."
      },
      "getRoleMemberCount(bytes32)": {
        "details": "Returns the number of accounts that have `role`. Can be used together with {getRoleMember} to enumerate all bearers of a role."
      },
      "grantRole(bytes32,address)": {
        "details": "Grants `role` to `account`. If `account` had not been already granted `role`, emits a {RoleGranted} event. Requirements: - the caller must have ``role``'s admin role."
      },
      "hasRole(bytes32,address)": {
        "details": "Returns `true` if `account` has been granted `role`."
      },
      "infos()": {
        "details": "Give the infomation of this vault",
        "returns": {
          "_0": "return1 [tos, stakeAddress]",
          "_1": "return2 cap",
          "_2": "return3 stakeType",
          "_3": "return4 miningPerSecond",
          "_4": "return5 name"
        }
      },
      "isAdmin(address)": {
        "details": "whether admin",
        "params": {
          "account": "address to check"
        }
      },
      "removeAdmin(address)": {
        "details": "remove admin",
        "params": {
          "account": "address to remove"
        }
      },
      "renounceRole(bytes32,address)": {
        "details": "Revokes `role` from the calling account. Roles are often managed via {grantRole} and {revokeRole}: this function's purpose is to provide a mechanism for accounts to lose their privileges if they are compromised (such as when a trusted device is misplaced). If the calling account had been granted `role`, emits a {RoleRevoked} event. Requirements: - the caller must be `account`."
      },
      "revokeRole(bytes32,address)": {
        "details": "Revokes `role` from `account`. If `account` had been granted `role`, emits a {RoleRevoked} event. Requirements: - the caller must have ``role``'s admin role."
      },
      "setMiningAmountPerSecond(uint256)": {
        "details": "set mining amount per second",
        "params": {
          "_miningPerSecond": "a mining amount per second"
        }
      },
      "setStakeAddress(address)": {
        "details": "set stake address",
        "params": {
          "_stakeAddress": "stake address"
        }
      },
      "setTOS(address)": {
        "details": "Sets TOS address",
        "params": {
          "_tos": "TOS address"
        }
      },
      "transferAdmin(address)": {
        "details": "transfer admin",
        "params": {
          "newAdmin": "new admin address"
        }
      },
      "withdraw(address,uint256)": {
        "details": "If the vault has more money than the reward to give, the owner can withdraw the remaining amount.",
        "params": {
          "_amount": "the amount of withdrawal",
          "to": "to address"
        }
      }
    },
    "title": "TOS Token's Vault - stores the TOS for the period of time",
    "version": 1
  },
  "userdoc": {
    "kind": "user",
    "methods": {},
    "notice": "A vault is associated with the set of stake contracts. Stake contracts can interact with the vault to claim TOS tokens",
    "version": 1
  }
}