{
  "contractName": "StakeUniswapV3",
  "abi": [
    {
      "inputs": [],
      "stateMutability": "nonpayable",
      "type": "constructor"
    },
    {
      "anonymous": false,
      "inputs": [
        {
          "indexed": false,
          "internalType": "uint256",
          "name": "curTime",
          "type": "uint256"
        },
        {
          "indexed": false,
          "internalType": "uint256",
          "name": "tokenId",
          "type": "uint256"
        },
        {
          "indexed": false,
          "internalType": "uint256",
          "name": "burningAmount",
          "type": "uint256"
        },
        {
          "indexed": false,
          "internalType": "uint256",
          "name": "prevTotalSupply",
          "type": "uint256"
        },
        {
          "indexed": false,
          "internalType": "uint256",
          "name": "afterTotalSupply",
          "type": "uint256"
        }
      ],
      "name": "BurnedCoinage",
      "type": "event"
    },
    {
      "anonymous": false,
      "inputs": [
        {
          "indexed": true,
          "internalType": "address",
          "name": "to",
          "type": "address"
        },
        {
          "indexed": false,
          "internalType": "address",
          "name": "poolAddress",
          "type": "address"
        },
        {
          "indexed": false,
          "internalType": "uint256",
          "name": "tokenId",
          "type": "uint256"
        },
        {
          "indexed": false,
          "internalType": "uint256",
          "name": "miningAmount",
          "type": "uint256"
        }
      ],
      "name": "Claimed",
      "type": "event"
    },
    {
      "anonymous": false,
      "inputs": [
        {
          "indexed": false,
          "internalType": "uint256",
          "name": "curTime",
          "type": "uint256"
        },
        {
          "indexed": false,
          "internalType": "uint256",
          "name": "miningInterval",
          "type": "uint256"
        },
        {
          "indexed": false,
          "internalType": "uint256",
          "name": "miningAmount",
          "type": "uint256"
        },
        {
          "indexed": false,
          "internalType": "uint256",
          "name": "prevTotalSupply",
          "type": "uint256"
        },
        {
          "indexed": false,
          "internalType": "uint256",
          "name": "afterTotalSupply",
          "type": "uint256"
        },
        {
          "indexed": false,
          "internalType": "uint256",
          "name": "factor",
          "type": "uint256"
        }
      ],
      "name": "MinedCoinage",
      "type": "event"
    },
    {
      "anonymous": false,
      "inputs": [
        {
          "indexed": true,
          "internalType": "bytes32",
          "name": "role",
          "type": "bytes32"
        },
        {
          "indexed": true,
          "internalType": "bytes32",
          "name": "previousAdminRole",
          "type": "bytes32"
        },
        {
          "indexed": true,
          "internalType": "bytes32",
          "name": "newAdminRole",
          "type": "bytes32"
        }
      ],
      "name": "RoleAdminChanged",
      "type": "event"
    },
    {
      "anonymous": false,
      "inputs": [
        {
          "indexed": true,
          "internalType": "bytes32",
          "name": "role",
          "type": "bytes32"
        },
        {
          "indexed": true,
          "internalType": "address",
          "name": "account",
          "type": "address"
        },
        {
          "indexed": true,
          "internalType": "address",
          "name": "sender",
          "type": "address"
        }
      ],
      "name": "RoleGranted",
      "type": "event"
    },
    {
      "anonymous": false,
      "inputs": [
        {
          "indexed": true,
          "internalType": "bytes32",
          "name": "role",
          "type": "bytes32"
        },
        {
          "indexed": true,
          "internalType": "address",
          "name": "account",
          "type": "address"
        },
        {
          "indexed": true,
          "internalType": "address",
          "name": "sender",
          "type": "address"
        }
      ],
      "name": "RoleRevoked",
      "type": "event"
    },
    {
      "anonymous": false,
      "inputs": [
        {
          "indexed": true,
          "internalType": "address",
          "name": "to",
          "type": "address"
        },
        {
          "indexed": true,
          "internalType": "address",
          "name": "poolAddress",
          "type": "address"
        },
        {
          "indexed": false,
          "internalType": "uint256",
          "name": "tokenId",
          "type": "uint256"
        },
        {
          "indexed": false,
          "internalType": "uint256",
          "name": "amount",
          "type": "uint256"
        }
      ],
      "name": "Staked",
      "type": "event"
    },
    {
      "anonymous": false,
      "inputs": [
        {
          "indexed": true,
          "internalType": "address",
          "name": "to",
          "type": "address"
        },
        {
          "indexed": false,
          "internalType": "uint256",
          "name": "tokenId",
          "type": "uint256"
        }
      ],
      "name": "WithdrawalToken",
      "type": "event"
    },
    {
      "inputs": [],
      "name": "ADMIN_ROLE",
      "outputs": [
        {
          "internalType": "bytes32",
          "name": "",
          "type": "bytes32"
        }
      ],
      "stateMutability": "view",
      "type": "function"
    },
    {
      "inputs": [],
      "name": "BURNER_ROLE",
      "outputs": [
        {
          "internalType": "bytes32",
          "name": "",
          "type": "bytes32"
        }
      ],
      "stateMutability": "view",
      "type": "function"
    },
    {
      "inputs": [],
      "name": "DEFAULT_ADMIN_ROLE",
      "outputs": [
        {
          "internalType": "bytes32",
          "name": "",
          "type": "bytes32"
        }
      ],
      "stateMutability": "view",
      "type": "function"
    },
    {
      "inputs": [],
      "name": "MINTER_ROLE",
      "outputs": [
        {
          "internalType": "bytes32",
          "name": "",
          "type": "bytes32"
        }
      ],
      "stateMutability": "view",
      "type": "function"
    },
    {
      "inputs": [
        {
          "internalType": "address",
          "name": "account",
          "type": "address"
        }
      ],
      "name": "addAdmin",
      "outputs": [],
      "stateMutability": "nonpayable",
      "type": "function"
    },
    {
      "inputs": [],
      "name": "coinage",
      "outputs": [
        {
          "internalType": "address",
          "name": "",
          "type": "address"
        }
      ],
      "stateMutability": "view",
      "type": "function"
    },
    {
      "inputs": [],
      "name": "coinageLastMintBlockTimetamp",
      "outputs": [
        {
          "internalType": "uint256",
          "name": "",
          "type": "uint256"
        }
      ],
      "stateMutability": "view",
      "type": "function"
    },
    {
      "inputs": [
        {
          "internalType": "uint256",
          "name": "",
          "type": "uint256"
        }
      ],
      "name": "depositTokens",
      "outputs": [
        {
          "internalType": "address",
          "name": "owner",
          "type": "address"
        },
        {
          "internalType": "uint256",
          "name": "idIndex",
          "type": "uint256"
        },
        {
          "internalType": "uint128",
          "name": "liquidity",
          "type": "uint128"
        },
        {
          "internalType": "int24",
          "name": "tickLower",
          "type": "int24"
        },
        {
          "internalType": "int24",
          "name": "tickUpper",
          "type": "int24"
        },
        {
          "internalType": "uint32",
          "name": "startTime",
          "type": "uint32"
        },
        {
          "internalType": "uint32",
          "name": "endTime",
          "type": "uint32"
        },
        {
          "internalType": "uint32",
          "name": "claimedTime",
          "type": "uint32"
        },
        {
          "internalType": "uint160",
          "name": "secondsInsideInitial",
          "type": "uint160"
        },
        {
          "internalType": "uint160",
          "name": "secondsInsideLast",
          "type": "uint160"
        }
      ],
      "stateMutability": "view",
      "type": "function"
    },
    {
      "inputs": [
        {
          "internalType": "bytes32",
          "name": "role",
          "type": "bytes32"
        }
      ],
      "name": "getRoleAdmin",
      "outputs": [
        {
          "internalType": "bytes32",
          "name": "",
          "type": "bytes32"
        }
      ],
      "stateMutability": "view",
      "type": "function"
    },
    {
      "inputs": [
        {
          "internalType": "bytes32",
          "name": "role",
          "type": "bytes32"
        },
        {
          "internalType": "uint256",
          "name": "index",
          "type": "uint256"
        }
      ],
      "name": "getRoleMember",
      "outputs": [
        {
          "internalType": "address",
          "name": "",
          "type": "address"
        }
      ],
      "stateMutability": "view",
      "type": "function"
    },
    {
      "inputs": [
        {
          "internalType": "bytes32",
          "name": "role",
          "type": "bytes32"
        }
      ],
      "name": "getRoleMemberCount",
      "outputs": [
        {
          "internalType": "uint256",
          "name": "",
          "type": "uint256"
        }
      ],
      "stateMutability": "view",
      "type": "function"
    },
    {
      "inputs": [
        {
          "internalType": "bytes32",
          "name": "role",
          "type": "bytes32"
        },
        {
          "internalType": "address",
          "name": "account",
          "type": "address"
        }
      ],
      "name": "grantRole",
      "outputs": [],
      "stateMutability": "nonpayable",
      "type": "function"
    },
    {
      "inputs": [
        {
          "internalType": "bytes32",
          "name": "role",
          "type": "bytes32"
        },
        {
          "internalType": "address",
          "name": "account",
          "type": "address"
        }
      ],
      "name": "hasRole",
      "outputs": [
        {
          "internalType": "bool",
          "name": "",
          "type": "bool"
        }
      ],
      "stateMutability": "view",
      "type": "function"
    },
    {
      "inputs": [
        {
          "internalType": "address",
          "name": "account",
          "type": "address"
        }
      ],
      "name": "isAdmin",
      "outputs": [
        {
          "internalType": "bool",
          "name": "",
          "type": "bool"
        }
      ],
      "stateMutability": "view",
      "type": "function"
    },
    {
      "inputs": [],
      "name": "migratedL2",
      "outputs": [
        {
          "internalType": "bool",
          "name": "",
          "type": "bool"
        }
      ],
      "stateMutability": "view",
      "type": "function"
    },
    {
      "inputs": [],
      "name": "miningAmountTotal",
      "outputs": [
        {
          "internalType": "uint256",
          "name": "",
          "type": "uint256"
        }
      ],
      "stateMutability": "view",
      "type": "function"
    },
    {
      "inputs": [],
      "name": "miningIntervalSeconds",
      "outputs": [
        {
          "internalType": "uint256",
          "name": "",
          "type": "uint256"
        }
      ],
      "stateMutability": "view",
      "type": "function"
    },
    {
      "inputs": [],
      "name": "nonMiningAmountTotal",
      "outputs": [
        {
          "internalType": "uint256",
          "name": "",
          "type": "uint256"
        }
      ],
      "stateMutability": "view",
      "type": "function"
    },
    {
      "inputs": [],
      "name": "nonfungiblePositionManager",
      "outputs": [
        {
          "internalType": "contract INonfungiblePositionManager",
          "name": "",
          "type": "address"
        }
      ],
      "stateMutability": "view",
      "type": "function"
    },
    {
      "inputs": [],
      "name": "pauseProxy",
      "outputs": [
        {
          "internalType": "bool",
          "name": "",
          "type": "bool"
        }
      ],
      "stateMutability": "view",
      "type": "function"
    },
    {
      "inputs": [],
      "name": "poolAddress",
      "outputs": [
        {
          "internalType": "address",
          "name": "",
          "type": "address"
        }
      ],
      "stateMutability": "view",
      "type": "function"
    },
    {
      "inputs": [],
      "name": "poolFee",
      "outputs": [
        {
          "internalType": "uint256",
          "name": "",
          "type": "uint256"
        }
      ],
      "stateMutability": "view",
      "type": "function"
    },
    {
      "inputs": [],
      "name": "poolToken0",
      "outputs": [
        {
          "internalType": "address",
          "name": "",
          "type": "address"
        }
      ],
      "stateMutability": "view",
      "type": "function"
    },
    {
      "inputs": [],
      "name": "poolToken1",
      "outputs": [
        {
          "internalType": "address",
          "name": "",
          "type": "address"
        }
      ],
      "stateMutability": "view",
      "type": "function"
    },
    {
      "inputs": [
        {
          "internalType": "address",
          "name": "account",
          "type": "address"
        }
      ],
      "name": "removeAdmin",
      "outputs": [],
      "stateMutability": "nonpayable",
      "type": "function"
    },
    {
      "inputs": [
        {
          "internalType": "bytes32",
          "name": "role",
          "type": "bytes32"
        },
        {
          "internalType": "address",
          "name": "account",
          "type": "address"
        }
      ],
      "name": "renounceRole",
      "outputs": [],
      "stateMutability": "nonpayable",
      "type": "function"
    },
    {
      "inputs": [
        {
          "internalType": "bytes32",
          "name": "role",
          "type": "bytes32"
        },
        {
          "internalType": "address",
          "name": "account",
          "type": "address"
        }
      ],
      "name": "revokeRole",
      "outputs": [],
      "stateMutability": "nonpayable",
      "type": "function"
    },
    {
      "inputs": [],
      "name": "stakeRegistry",
      "outputs": [
        {
          "internalType": "address",
          "name": "",
          "type": "address"
        }
      ],
      "stateMutability": "view",
      "type": "function"
    },
    {
      "inputs": [
        {
          "internalType": "uint256",
          "name": "",
          "type": "uint256"
        }
      ],
      "name": "stakedCoinageTokens",
      "outputs": [
        {
          "internalType": "uint256",
          "name": "amount",
          "type": "uint256"
        },
        {
          "internalType": "uint32",
          "name": "startTime",
          "type": "uint32"
        },
        {
          "internalType": "uint32",
          "name": "claimedTime",
          "type": "uint32"
        },
        {
          "internalType": "uint256",
          "name": "claimedAmount",
          "type": "uint256"
        },
        {
          "internalType": "uint256",
          "name": "nonMiningAmount",
          "type": "uint256"
        }
      ],
      "stateMutability": "view",
      "type": "function"
    },
    {
      "inputs": [],
      "name": "startTime",
      "outputs": [
        {
          "internalType": "uint256",
          "name": "",
          "type": "uint256"
        }
      ],
      "stateMutability": "view",
      "type": "function"
    },
    {
      "inputs": [],
      "name": "token",
      "outputs": [
        {
          "internalType": "address",
          "name": "",
          "type": "address"
        }
      ],
      "stateMutability": "view",
      "type": "function"
    },
    {
      "inputs": [],
      "name": "totalStakedAmount",
      "outputs": [
        {
          "internalType": "uint256",
          "name": "",
          "type": "uint256"
        }
      ],
      "stateMutability": "view",
      "type": "function"
    },
    {
      "inputs": [],
      "name": "totalStakers",
      "outputs": [
        {
          "internalType": "uint256",
          "name": "",
          "type": "uint256"
        }
      ],
      "stateMutability": "view",
      "type": "function"
    },
    {
      "inputs": [],
      "name": "totalTokens",
      "outputs": [
        {
          "internalType": "uint256",
          "name": "",
          "type": "uint256"
        }
      ],
      "stateMutability": "view",
      "type": "function"
    },
    {
      "inputs": [
        {
          "internalType": "address",
          "name": "newAdmin",
          "type": "address"
        }
      ],
      "name": "transferAdmin",
      "outputs": [],
      "stateMutability": "nonpayable",
      "type": "function"
    },
    {
      "inputs": [],
      "name": "uniswapV3FactoryAddress",
      "outputs": [
        {
          "internalType": "address",
          "name": "",
          "type": "address"
        }
      ],
      "stateMutability": "view",
      "type": "function"
    },
    {
      "inputs": [
        {
          "internalType": "address",
          "name": "",
          "type": "address"
        },
        {
          "internalType": "uint256",
          "name": "",
          "type": "uint256"
        }
      ],
      "name": "userStakedTokenIds",
      "outputs": [
        {
          "internalType": "uint256",
          "name": "",
          "type": "uint256"
        }
      ],
      "stateMutability": "view",
      "type": "function"
    },
    {
      "inputs": [
        {
          "internalType": "address",
          "name": "",
          "type": "address"
        }
      ],
      "name": "userTotalStaked",
      "outputs": [
        {
          "internalType": "bool",
          "name": "staked",
          "type": "bool"
        },
        {
          "internalType": "uint256",
          "name": "totalDepositAmount",
          "type": "uint256"
        },
        {
          "internalType": "uint256",
          "name": "totalMiningAmount",
          "type": "uint256"
        },
        {
          "internalType": "uint256",
          "name": "totalNonMiningAmount",
          "type": "uint256"
        }
      ],
      "stateMutability": "view",
      "type": "function"
    },
    {
      "inputs": [],
      "name": "vault",
      "outputs": [
        {
          "internalType": "address",
          "name": "",
          "type": "address"
        }
      ],
      "stateMutability": "view",
      "type": "function"
    },
    {
      "stateMutability": "payable",
      "type": "receive"
    },
    {
      "inputs": [
        {
          "internalType": "uint256",
          "name": "_intervalSeconds",
          "type": "uint256"
        }
      ],
      "name": "setMiningIntervalSeconds",
      "outputs": [],
      "stateMutability": "nonpayable",
      "type": "function"
    },
    {
      "inputs": [],
      "name": "resetCoinageTime",
      "outputs": [],
      "stateMutability": "nonpayable",
      "type": "function"
    },
    {
      "inputs": [],
      "name": "miningCoinage",
      "outputs": [],
      "stateMutability": "nonpayable",
      "type": "function"
    },
    {
      "inputs": [
        {
          "internalType": "uint256",
          "name": "tokenId",
          "type": "uint256"
        }
      ],
      "name": "getMiningTokenId",
      "outputs": [
        {
          "internalType": "uint256",
          "name": "miningAmount",
          "type": "uint256"
        },
        {
          "internalType": "uint256",
          "name": "nonMiningAmount",
          "type": "uint256"
        },
        {
          "internalType": "uint256",
          "name": "minableAmount",
          "type": "uint256"
        },
        {
          "internalType": "uint160",
          "name": "secondsInside",
          "type": "uint160"
        },
        {
          "internalType": "uint160",
          "name": "secondsInsideDiff",
          "type": "uint160"
        },
        {
          "internalType": "uint256",
          "name": "liquidity",
          "type": "uint256"
        },
        {
          "internalType": "uint256",
          "name": "balanceOfTokenIdRay",
          "type": "uint256"
        },
        {
          "internalType": "uint256",
          "name": "minableAmountRay",
          "type": "uint256"
        },
        {
          "internalType": "uint32",
          "name": "currentTime",
          "type": "uint32"
        }
      ],
      "stateMutability": "view",
      "type": "function"
    },
    {
      "inputs": [
        {
          "internalType": "uint256",
          "name": "tokenId",
          "type": "uint256"
        }
      ],
      "name": "setPoolAddress",
      "outputs": [],
      "stateMutability": "nonpayable",
      "type": "function"
    },
    {
      "inputs": [
        {
          "internalType": "uint256",
          "name": "tokenId",
          "type": "uint256"
        },
        {
          "internalType": "uint256",
          "name": "deadline",
          "type": "uint256"
        },
        {
          "internalType": "uint8",
          "name": "v",
          "type": "uint8"
        },
        {
          "internalType": "bytes32",
          "name": "r",
          "type": "bytes32"
        },
        {
          "internalType": "bytes32",
          "name": "s",
          "type": "bytes32"
        }
      ],
      "name": "stakePermit",
      "outputs": [],
      "stateMutability": "nonpayable",
      "type": "function"
    },
    {
      "inputs": [
        {
          "internalType": "uint256",
          "name": "tokenId",
          "type": "uint256"
        }
      ],
      "name": "stake",
      "outputs": [],
      "stateMutability": "nonpayable",
      "type": "function"
    },
    {
      "inputs": [
        {
          "internalType": "uint256",
          "name": "tokenId",
          "type": "uint256"
        }
      ],
      "name": "claim",
      "outputs": [],
      "stateMutability": "nonpayable",
      "type": "function"
    },
    {
      "inputs": [
        {
          "internalType": "uint256",
          "name": "tokenId",
          "type": "uint256"
        }
      ],
      "name": "withdraw",
      "outputs": [],
      "stateMutability": "nonpayable",
      "type": "function"
    },
    {
      "inputs": [
        {
          "internalType": "address",
          "name": "user",
          "type": "address"
        }
      ],
      "name": "getUserStakedTokenIds",
      "outputs": [
        {
          "internalType": "uint256[]",
          "name": "ids",
          "type": "uint256[]"
        }
      ],
      "stateMutability": "view",
      "type": "function"
    },
    {
      "inputs": [
        {
          "internalType": "uint256",
          "name": "tokenId",
          "type": "uint256"
        }
      ],
      "name": "getDepositToken",
      "outputs": [
        {
          "internalType": "address",
          "name": "_poolAddress",
          "type": "address"
        },
        {
          "internalType": "int24[2]",
          "name": "tick",
          "type": "int24[2]"
        },
        {
          "internalType": "uint128",
          "name": "liquidity",
          "type": "uint128"
        },
        {
          "internalType": "uint256[6]",
          "name": "args",
          "type": "uint256[6]"
        },
        {
          "internalType": "uint160[2]",
          "name": "secondsPL",
          "type": "uint160[2]"
        }
      ],
      "stateMutability": "view",
      "type": "function"
    },
    {
      "inputs": [
        {
          "internalType": "address",
          "name": "user",
          "type": "address"
        }
      ],
      "name": "getUserStakedTotal",
      "outputs": [
        {
          "internalType": "uint256",
          "name": "totalDepositAmount",
          "type": "uint256"
        },
        {
          "internalType": "uint256",
          "name": "totalMiningAmount",
          "type": "uint256"
        },
        {
          "internalType": "uint256",
          "name": "totalNonMiningAmount",
          "type": "uint256"
        }
      ],
      "stateMutability": "view",
      "type": "function"
    },
    {
      "inputs": [],
      "name": "totalSupplyCoinage",
      "outputs": [
        {
          "internalType": "uint256",
          "name": "",
          "type": "uint256"
        }
      ],
      "stateMutability": "view",
      "type": "function"
    },
    {
      "inputs": [
        {
          "internalType": "uint256",
          "name": "tokenId",
          "type": "uint256"
        }
      ],
      "name": "balanceOfCoinage",
      "outputs": [
        {
          "internalType": "uint256",
          "name": "",
          "type": "uint256"
        }
      ],
      "stateMutability": "view",
      "type": "function"
    },
    {
      "inputs": [],
      "name": "infos",
      "outputs": [
        {
          "internalType": "address[4]",
          "name": "",
          "type": "address[4]"
        },
        {
          "internalType": "address[4]",
          "name": "",
          "type": "address[4]"
        },
        {
          "internalType": "uint256[4]",
          "name": "",
          "type": "uint256[4]"
        }
      ],
      "stateMutability": "view",
      "type": "function"
    },
    {
      "inputs": [
        {
          "internalType": "uint256",
          "name": "tokenId",
          "type": "uint256"
        }
      ],
      "name": "canMiningAmountTokenId",
      "outputs": [
        {
          "internalType": "uint256",
          "name": "balanceOfRayTokenId",
          "type": "uint256"
        },
        {
          "internalType": "uint256",
          "name": "minableAmountRay",
          "type": "uint256"
        }
      ],
      "stateMutability": "view",
      "type": "function"
    },
    {
      "inputs": [],
      "name": "poolInfos",
      "outputs": [
        {
          "internalType": "address",
          "name": "factory",
          "type": "address"
        },
        {
          "internalType": "address",
          "name": "token0",
          "type": "address"
        },
        {
          "internalType": "address",
          "name": "token1",
          "type": "address"
        },
        {
          "internalType": "uint24",
          "name": "fee",
          "type": "uint24"
        },
        {
          "internalType": "int24",
          "name": "tickSpacing",
          "type": "int24"
        },
        {
          "internalType": "uint128",
          "name": "maxLiquidityPerTick",
          "type": "uint128"
        },
        {
          "internalType": "uint128",
          "name": "liquidity",
          "type": "uint128"
        }
      ],
      "stateMutability": "view",
      "type": "function"
    },
    {
      "inputs": [
        {
          "internalType": "bytes32",
          "name": "key",
          "type": "bytes32"
        }
      ],
      "name": "poolPositions",
      "outputs": [
        {
          "internalType": "uint128",
          "name": "_liquidity",
          "type": "uint128"
        },
        {
          "internalType": "uint256",
          "name": "feeGrowthInside0LastX128",
          "type": "uint256"
        },
        {
          "internalType": "uint256",
          "name": "feeGrowthInside1LastX128",
          "type": "uint256"
        },
        {
          "internalType": "uint128",
          "name": "tokensOwed0",
          "type": "uint128"
        },
        {
          "internalType": "uint128",
          "name": "tokensOwed1",
          "type": "uint128"
        }
      ],
      "stateMutability": "view",
      "type": "function"
    },
    {
      "inputs": [],
      "name": "poolSlot0",
      "outputs": [
        {
          "internalType": "uint160",
          "name": "sqrtPriceX96",
          "type": "uint160"
        },
        {
          "internalType": "int24",
          "name": "tick",
          "type": "int24"
        },
        {
          "internalType": "uint16",
          "name": "observationIndex",
          "type": "uint16"
        },
        {
          "internalType": "uint16",
          "name": "observationCardinality",
          "type": "uint16"
        },
        {
          "internalType": "uint16",
          "name": "observationCardinalityNext",
          "type": "uint16"
        },
        {
          "internalType": "uint8",
          "name": "feeProtocol",
          "type": "uint8"
        },
        {
          "internalType": "bool",
          "name": "unlocked",
          "type": "bool"
        }
      ],
      "stateMutability": "view",
      "type": "function"
    },
    {
      "inputs": [
        {
          "internalType": "uint256",
          "name": "_tokenId",
          "type": "uint256"
        }
      ],
      "name": "npmPositions",
      "outputs": [
        {
          "internalType": "uint96",
          "name": "nonce",
          "type": "uint96"
        },
        {
          "internalType": "address",
          "name": "operator",
          "type": "address"
        },
        {
          "internalType": "address",
          "name": "token0",
          "type": "address"
        },
        {
          "internalType": "address",
          "name": "token1",
          "type": "address"
        },
        {
          "internalType": "uint24",
          "name": "fee",
          "type": "uint24"
        },
        {
          "internalType": "int24",
          "name": "tickLower",
          "type": "int24"
        },
        {
          "internalType": "int24",
          "name": "tickUpper",
          "type": "int24"
        },
        {
          "internalType": "uint128",
          "name": "liquidity",
          "type": "uint128"
        },
        {
          "internalType": "uint256",
          "name": "feeGrowthInside0LastX128",
          "type": "uint256"
        },
        {
          "internalType": "uint256",
          "name": "feeGrowthInside1LastX128",
          "type": "uint256"
        },
        {
          "internalType": "uint128",
          "name": "tokensOwed0",
          "type": "uint128"
        },
        {
          "internalType": "uint128",
          "name": "tokensOwed1",
          "type": "uint128"
        }
      ],
      "stateMutability": "view",
      "type": "function"
    },
    {
      "inputs": [
        {
          "internalType": "int24",
          "name": "tickLower",
          "type": "int24"
        },
        {
          "internalType": "int24",
          "name": "tickUpper",
          "type": "int24"
        }
      ],
      "name": "snapshotCumulativesInside",
      "outputs": [
        {
          "internalType": "int56",
          "name": "tickCumulativeInside",
          "type": "int56"
        },
        {
          "internalType": "uint160",
          "name": "secondsPerLiquidityInsideX128",
          "type": "uint160"
        },
        {
          "internalType": "uint32",
          "name": "secondsInside",
          "type": "uint32"
        },
        {
          "internalType": "uint32",
          "name": "curTimestamps",
          "type": "uint32"
        }
      ],
      "stateMutability": "view",
      "type": "function"
    }
  ],
  "bytecode": "0x60806040523480156200001157600080fd5b506200002d60008051602062004e9d8339815191528062000053565b6200004860008051602062004e9d83398151915233620000a5565b600d600e55620001bb565b600082815260196020526040808220600201549051839285917fbd79b86ffe0ab8e8776151514217cd7cacd52c909f66475c3af44e129f0b00ff9190a460009182526019602052604090912060020155565b620000b18282620000b5565b5050565b6000828152601960209081526040909120620000dc91839062003b5062000130821b17901c565b15620000b157620000ec62000150565b6001600160a01b0316816001600160a01b0316837f2f8788117e7eff1d82e926ec794901d17c78024a50270940304540a733656f0d60405160405180910390a45050565b600062000147836001600160a01b03841662000154565b90505b92915050565b3390565b6000620001628383620001a3565b6200019a575081546001818101845560008481526020808220909301849055845484825282860190935260409020919091556200014a565b5060006200014a565b60009081526001919091016020526040902054151590565b614cd280620001cb6000396000f3fe60806040526004361061031b5760003560e01c80637e1c0c091161019c578063ad1b3909116100e2578063d539139311610090578063d539139314610e3a578063d547741f14610e4f578063dd49756e14610e88578063dee712a314610f27578063ecce6c4014610f3c578063fbfa77cf14610fbf578063fc0c546a14610fd4578063fdfeb8c014610fe957610325565b8063ad1b390914610d06578063af182fce14610d1b578063b44a272214610d30578063b8ebb13314610d45578063b97db3dc14610da3578063ca15c87314610dcd578063d350de0314610df757610325565b8063998822021161014a5780639988220214610b225780639a88be2f14610b735780639c4b76a014610c18578063a1f5f50e14610c2d578063a217fddf14610c42578063a38807f214610c57578063a694fc3a14610cc7578063a73bf6df14610cf157610325565b80637e1c0c091461099157806380f5db8c146109a65780638113d230146109bb5780638698903814610a3e5780638ae881ab14610a535780639010d07c14610ab957806391d1485414610ae957610325565b80633b143bcf1161026157806361f8e66f1161020f57806361f8e66f1461080d57806363a8fd891461087c578063683048351461089157806370480275146108a6578063719de1ef146108d957806375829def1461093457806375b238fc1461096757806378e979251461097c57610325565b80633b143bcf146105d25780633d0935ab1461068e5780634372f61f146106b85780634758af8a1461079557806349cba16c146107aa578063567e98f9146107e35780635f139e3f146107f857610325565b806324d7806c116102c957806324d7806c14610471578063282c51f3146104b85780632867bb5b146104cd5780632e1a7d4d146104e25780632f2ff15d1461050c57806334586e8b1461054557806336568abe1461056f578063379607f5146105a857610325565b806302ff153e1461032a578063089fe6aa146103515780630a5b631d146103665780630f5d38ae1461037d5780631755ff21146103e35780631785f53c14610414578063248a9ca31461044757610325565b3661032557600080fd5b600080fd5b34801561033657600080fd5b5061033f61102e565b60408051918252519081900360200190f35b34801561035d57600080fd5b5061033f611034565b34801561037257600080fd5b5061037b61103a565b005b34801561038957600080fd5b5061039261131f565b604080516001600160a01b03909816885260029690960b602088015261ffff9485168787015292841660608701529216608085015260ff90911660a0840152151560c0830152519081900360e00190f35b3480156103ef57600080fd5b506103f8611426565b604080516001600160a01b039092168252519081900360200190f35b34801561042057600080fd5b5061037b6004803603602081101561043757600080fd5b50356001600160a01b0316611435565b34801561045357600080fd5b5061033f6004803603602081101561046a57600080fd5b5035611494565b34801561047d57600080fd5b506104a46004803603602081101561049457600080fd5b50356001600160a01b03166114a9565b604080519115158252519081900360200190f35b3480156104c457600080fd5b5061033f6114c9565b3480156104d957600080fd5b5061033f6114ed565b3480156104ee57600080fd5b5061037b6004803603602081101561050557600080fd5b50356114f3565b34801561051857600080fd5b5061037b6004803603604081101561052f57600080fd5b50803590602001356001600160a01b0316611869565b34801561055157600080fd5b5061037b6004803603602081101561056857600080fd5b50356118d5565b34801561057b57600080fd5b5061037b6004803603604081101561059257600080fd5b50803590602001356001600160a01b0316611cc7565b3480156105b457600080fd5b5061037b600480360360208110156105cb57600080fd5b5035611d28565b3480156105de57600080fd5b506105fc600480360360208110156105f557600080fd5b5035611fe2565b604080516bffffffffffffffffffffffff909d168d526001600160a01b039b8c1660208e0152998b168c8b01529790991660608b015262ffffff90951660808a0152600293840b60a08a01529190920b60c08801526001600160801b0391821660e088015261010087015261012086019190915292831661014085015290911661016083015251908190036101800190f35b34801561069a57600080fd5b5061033f600480360360208110156106b157600080fd5b5035612188565b3480156106c457600080fd5b506106e2600480360360208110156106db57600080fd5b5035612206565b60405180866001600160a01b0316815260200185600260200280838360005b83811015610719578181015183820152602001610701565b50505050905001846001600160801b0316815260200183600660200280838360005b8381101561075357818101518382015260200161073b565b5050505090500182600260200280838360005b8381101561077e578181015183820152602001610766565b505050509050019550505050505060405180910390f35b3480156107a157600080fd5b506103f8612545565b3480156107b657600080fd5b5061033f600480360360408110156107cd57600080fd5b506001600160a01b038135169060200135612554565b3480156107ef57600080fd5b5061033f612585565b34801561080457600080fd5b5061033f61258b565b34801561081957600080fd5b50610822612591565b604080516001600160a01b0398891681529688166020880152949096168585015262ffffff909216606085015260020b60808401526001600160801b0390811660a08401529290921660c082015290519081900360e00190f35b34801561088857600080fd5b506104a461292a565b34801561089d57600080fd5b506103f8612933565b3480156108b257600080fd5b5061037b600480360360208110156108c957600080fd5b50356001600160a01b0316612942565b3480156108e557600080fd5b5061090c600480360360208110156108fc57600080fd5b50356001600160a01b031661299e565b6040805194151585526020850193909352838301919091526060830152519081900360800190f35b34801561094057600080fd5b5061037b6004803603602081101561095757600080fd5b50356001600160a01b03166129c9565b34801561097357600080fd5b5061033f612aea565b34801561098857600080fd5b5061033f612afc565b34801561099d57600080fd5b5061033f612b02565b3480156109b257600080fd5b506103f8612b08565b3480156109c757600080fd5b506109ee600480360360208110156109de57600080fd5b50356001600160a01b0316612b17565b60408051602080825283518183015283519192839290830191858101910280838360005b83811015610a2a578181015183820152602001610a12565b505050509050019250505060405180910390f35b348015610a4a57600080fd5b5061033f612b83565b348015610a5f57600080fd5b50610a7d60048036036020811015610a7657600080fd5b5035612b89565b604080516001600160801b0396871681526020810195909552848101939093529084166060840152909216608082015290519081900360a00190f35b348015610ac557600080fd5b506103f860048036036040811015610adc57600080fd5b5080359060200135612c7c565b348015610af557600080fd5b506104a460048036036040811015610b0c57600080fd5b50803590602001356001600160a01b0316612c9b565b348015610b2e57600080fd5b50610b5560048036036020811015610b4557600080fd5b50356001600160a01b0316612cb3565b60408051938452602084019290925282820152519081900360600190f35b348015610b7f57600080fd5b50610b88612cde565b6040518084608080838360005b83811015610bad578181015183820152602001610b95565b5050505090500183600460200280838360005b83811015610bd8578181015183820152602001610bc0565b5050505090500182600460200280838360005b83811015610c03578181015183820152602001610beb565b50505050905001935050505060405180910390f35b348015610c2457600080fd5b5061033f612d94565b348015610c3957600080fd5b506104a4612e0a565b348015610c4e57600080fd5b5061033f612e13565b348015610c6357600080fd5b50610c8e60048036036040811015610c7a57600080fd5b508035600290810b9160200135900b612e18565b6040805160069590950b85526001600160a01b03909316602085015263ffffffff91821684840152166060830152519081900360800190f35b348015610cd357600080fd5b5061037b60048036036020811015610cea57600080fd5b5035612f0c565b348015610cfd57600080fd5b506103f86131d3565b348015610d1257600080fd5b506103f86131e2565b348015610d2757600080fd5b5061033f6131f1565b348015610d3c57600080fd5b506103f86131f7565b348015610d5157600080fd5b50610d6f60048036036020811015610d6857600080fd5b5035613206565b6040805195865263ffffffff9485166020870152929093168483015260608401526080830191909152519081900360a00190f35b348015610daf57600080fd5b5061037b60048036036020811015610dc657600080fd5b503561323e565b348015610dd957600080fd5b5061033f60048036036020811015610df057600080fd5b5035613287565b348015610e0357600080fd5b50610e2160048036036020811015610e1a57600080fd5b503561329e565b6040805192835260208301919091528051918290030190f35b348015610e4657600080fd5b5061033f613371565b348015610e5b57600080fd5b5061037b60048036036040811015610e7257600080fd5b50803590602001356001600160a01b0316613395565b348015610e9457600080fd5b50610eb260048036036020811015610eab57600080fd5b50356133ee565b604080516001600160a01b039b8c168152602081019a909a526001600160801b0390981689890152600296870b60608a01529490950b608088015263ffffffff92831660a088015290821660c08701521660e08501529084166101008401529092166101208201529051908190036101400190f35b348015610f3357600080fd5b5061037b61346d565b348015610f4857600080fd5b50610f6660048036036020811015610f5f57600080fd5b50356134bd565b60408051998a5260208a0198909852888801969096526001600160a01b03948516606089015292909316608087015260a086015260c085019190915260e084015263ffffffff1661010083015251908190036101200190f35b348015610fcb57600080fd5b506103f86137de565b348015610fe057600080fd5b506103f86137ed565b348015610ff557600080fd5b5061037b600480360360a081101561100c57600080fd5b5080359060208101359060ff60408201351690606081013590608001356137fc565b60165481565b60125481565b600b5415611088576040805162461bcd60e51b815260206004820152601660248201527514dd185ad9555b9a5cddd85c158cce881313d0d2d15160521b604482015290519081900360640190fd5b6001600b55600d5461109957611318565b6016546110a757600d546016555b600e54601654014211156113185760165460025460408051632673bd5f60e11b815290514293909303926000926001600160a01b031691634ce77abe91600480830192602092919082900301818787803b15801561110457600080fd5b505af1158015611118573d6000803e3d6000fd5b505050506040513d602081101561112e57600080fd5b5051601554604080516318160ddd60e01b8152905192850293506000926001600160a01b03909216916318160ddd91600480820192602092909190829003018186803b15801561117d57600080fd5b505afa158015611191573d6000803e3d6000fd5b505050506040513d60208110156111a757600080fd5b5051905081158015906111ba5750600081115b156113145760155460408051630a9ee07f60e31b81529051633b9aca0085028401926000926001600160a01b039091169163817e9d3191611251918791879186916354f703f8916004808301926020929190829003018186803b15801561122057600080fd5b505afa158015611234573d6000803e3d6000fd5b505050506040513d602081101561124a57600080fd5b5051613b65565b6040518263ffffffff1660e01b815260040180828152602001915050602060405180830381600087803b15801561128757600080fd5b505af115801561129b573d6000803e3d6000fd5b505050506040513d60208110156112b157600080fd5b50514260168190556040805191825260208201889052818101879052606082018690526080820185905260a08201839052519192507fe8c31506e2202c904fc838af92d6a36a6a155eab78cc591af005df916d3ccaf8919081900360c00190a150505b5050505b6000600b55565b6011546000908190819081908190819081906001600160a01b0316806113765760405162461bcd60e51b8152600401808060200182810382526023815260200180614aec6023913960400191505060405180910390fd5b601160009054906101000a90046001600160a01b03166001600160a01b0316633850c7bd6040518163ffffffff1660e01b815260040160e06040518083038186803b1580156113c457600080fd5b505afa1580156113d8573d6000803e3d6000fd5b505050506040513d60e08110156113ee57600080fd5b508051602082015160408301516060840151608085015160a086015160c090960151949e939d50919b50995097509195509350915050565b6011546001600160a01b031681565b61143e336114a9565b6114795760405162461bcd60e51b8152600401808060200182810382526022815260200180614a9a6022913960400191505060405180910390fd5b611491600080516020614be683398151915282611cc7565b50565b60009081526019602052604090206002015490565b60006114c3600080516020614be683398151915283612c9b565b92915050565b7f9667e80708b6eeeb0053fa0cca44e028ff548e2a9f029edfeac87c118b08b7c881565b600e5481565b600081815260076020526040902080546001600160a01b031633146115495760405162461bcd60e51b815260040180806020018281038252602e815260200180614bb8602e913960400191505060405180910390fd5b60028101546005546001600160801b039091161161157b576002810154600580546001600160801b0390921690910390555b6017541561158e57601780546000190190555b600080600061159c856134bd565b505060155460408051636621a02560e01b8152336004820152602481018f90529051989b50969950949750506001600160a01b0390931694636621a02594604480820195506000945091925082900301818387803b1580156115fd57600080fd5b505af1158015611611573d6000803e3d6000fd5b50503360009081526009602052604090206002870154600180830180546001600160801b0390931690920390915587549088015491935061165e92506001600160a01b0316908890613b82565b600086815260076020908152604080832080546001600160a01b031990811682556001808301869055600280840180546001600160f01b0319169055600380850180546001600160c01b0319169055600490940180549093169092556008909452918420848155808401805467ffffffffffffffff19169055918201849055019190915581015461171d57600a8054600019019055336000908152600960205260408120805460ff191681556001810182905560028101829055600301555b81156117ba5760025460408051633c09d84560e21b815233600482015260248101859052604481018790526064810186905290516001600160a01b039092169163f0276114916084808201926020929091908290030181600087803b15801561178557600080fd5b505af1158015611799573d6000803e3d6000fd5b505050506040513d60208110156117af57600080fd5b50516117ba57600080fd5b60135460408051632142170760e11b81523060048201523360248201526044810189905290516001600160a01b03909216916342842e0e9160648082019260009290919082900301818387803b15801561181357600080fd5b505af1158015611827573d6000803e3d6000fd5b50506040805189815290513393507fc7007e57228f610de89c329174bb69f87ecbecaf8e44c0e45ef6c83c21a8027992509081900360200190a2505050505050565b60008281526019602052604090206002015461188c90611887613ced565b612c9b565b6118c75760405162461bcd60e51b815260040180806020018281038252602f815260200180614a44602f913960400191505060405180910390fd5b6118d18282613cf1565b5050565b6000546001600160a01b03168061191d5760405162461bcd60e51b8152600401808060200182810382526023815260200180614aec6023913960400191505060405180910390fd5b6002546001600160a01b0316806119655760405162461bcd60e51b8152600401808060200182810382526023815260200180614aec6023913960400191505060405180910390fd5b6001546001600160a01b0316806119ad5760405162461bcd60e51b8152600401808060200182810382526023815260200180614aec6023913960400191505060405180910390fd5b600f546001600160a01b0316806119f55760405162461bcd60e51b8152600401808060200182810382526023815260200180614aec6023913960400191505060405180910390fd5b6010546001600160a01b031680611a3d5760405162461bcd60e51b8152600401808060200182810382526023815260200180614aec6023913960400191505060405180910390fd5b6013546001600160a01b031680611a855760405162461bcd60e51b8152600401808060200182810382526023815260200180614aec6023913960400191505060405180910390fd5b6014546001600160a01b031680611acd5760405162461bcd60e51b8152600401808060200182810382526023815260200180614aec6023913960400191505060405180910390fd5b6011546001600160a01b031615611b155760405162461bcd60e51b8152600401808060200182810382526027815260200180614a736027913960400191505060405180910390fd5b6013546040805163133f757160e31b8152600481018b90529051600092839283926001600160a01b03909216916399fbab889160248082019261018092909190829003018186803b158015611b6957600080fd5b505afa158015611b7d573d6000803e3d6000fd5b505050506040513d610180811015611b9457600080fd5b5060408101516060820151608090920151600f549195509193509091506001600160a01b038085169116148015611bd857506010546001600160a01b038381169116145b80611c0857506010546001600160a01b038481169116148015611c085750600f546001600160a01b038381169116145b611c435760405162461bcd60e51b815260040180806020018281038252602b815260200180614b0f602b913960400191505060405180910390fd5b611c93601460009054906101000a90046001600160a01b03166040518060600160405280866001600160a01b03168152602001856001600160a01b031681526020018462ffffff16815250613d5a565b601180546001600160a01b0319166001600160a01b039290921691909117905562ffffff1660125550505050505050505050565b611ccf613ced565b6001600160a01b0316816001600160a01b031614611d1e5760405162461bcd60e51b815260040180806020018281038252602f815260200180614c6e602f913960400191505060405180910390fd5b6118d18282613e3e565b600081815260076020526040902080546001600160a01b03163314611d7e5760405162461bcd60e51b815260040180806020018281038252602e815260200180614bb8602e913960400191505060405180910390fd5b6000806000806000611d8f876134bd565b509750505050945094509450945060008511611ddc5760405162461bcd60e51b8152600401808060200182810382526024815260200180614c066024913960400191505060405180910390fd5b60038601805463ffffffff19164263ffffffff16179055600480870180546001600160a01b0319166001600160a01b038581169190911790915560155460408051637a94c56560e11b81523394810194909452602484018b9052604484018590525191169163f5298aca91606480830192600092919082900301818387803b158015611e6757600080fd5b505af1158015611e7b573d6000803e3d6000fd5b505050600088815260086020908152604080832060018101805467ffffffff000000001916600160201b4263ffffffff1602179055600280820180548c019055600380830180548c019055338087526009865284872080840180548f01905580830180548e01905582548e01909255600480548d01815592548551633c09d84560e21b815293840191909152602483018b9052604483018d9052606483018c90529351929650946001600160a01b039093169363f02761149360848084019492938390030190829087803b158015611f5257600080fd5b505af1158015611f66573d6000803e3d6000fd5b505050506040513d6020811015611f7c57600080fd5b5051611f8757600080fd5b601154604080516001600160a01b03929092168252602082018b90528181018990525133917f2f6639d24651730c7bf57c95ddbf96d66d11477e4ec626876f92c22e5f365e68919081900360600190a2505050505050505050565b600080600080600080600080600080600080601360009054906101000a90046001600160a01b031660006001600160a01b0316816001600160a01b0316141561205c5760405162461bcd60e51b8152600401808060200182810382526023815260200180614aec6023913960400191505060405180910390fd5b601360009054906101000a90046001600160a01b03166001600160a01b03166399fbab888f6040518263ffffffff1660e01b8152600401808281526020019150506101806040518083038186803b1580156120b657600080fd5b505afa1580156120ca573d6000803e3d6000fd5b505050506040513d6101808110156120e157600080fd5b810190808051906020019092919080519060200190929190805190602001909291908051906020019092919080519060200190929190805190602001909291908051906020019092919080519060200190929190805190602001909291908051906020019092919080519060200190929190805190602001909291905050509c509c509c509c509c509c509c509c509c509c509c509c505091939597999b5091939597999b565b60155460408051631398fee160e31b81526004810184905290516000926001600160a01b031691639cc7f708916024808301926020929190829003018186803b1580156121d457600080fd5b505afa1580156121e8573d6000803e3d6000fd5b505050506040513d60208110156121fe57600080fd5b505192915050565b60006122106149c7565b600061221a6149e5565b6122226149c7565b600060076000888152602001908152602001600020604051806101400160405290816000820160009054906101000a90046001600160a01b03166001600160a01b03166001600160a01b03168152602001600182015481526020016002820160009054906101000a90046001600160801b03166001600160801b03166001600160801b031681526020016002820160109054906101000a900460020b60020b60020b81526020016002820160139054906101000a900460020b60020b60020b81526020016002820160169054906101000a900463ffffffff1663ffffffff1663ffffffff16815260200160028201601a9054906101000a900463ffffffff1663ffffffff1663ffffffff1681526020016003820160009054906101000a900463ffffffff1663ffffffff1663ffffffff1681526020016003820160049054906101000a90046001600160a01b03166001600160a01b03166001600160a01b031681526020016004820160009054906101000a90046001600160a01b03166001600160a01b03166001600160a01b03168152505090506000600860008981526020019081526020016000206040518060a0016040529081600082015481526020016001820160009054906101000a900463ffffffff1663ffffffff1663ffffffff1681526020016001820160049054906101000a900463ffffffff1663ffffffff1663ffffffff168152602001600282015481526020016003820154815250509050601160009054906101000a90046001600160a01b03169650866040518060400160405280846060015160020b60020b8152602001846080015160020b60020b81525083604001516040518060c001604052808660a0015163ffffffff1681526020018660c0015163ffffffff1681526020018660e0015163ffffffff168152602001856020015163ffffffff168152602001856040015163ffffffff168152602001856060015181525060405180604001604052808761010001516001600160a01b03166001600160a01b031681526020018761012001516001600160a01b03166001600160a01b031681525096509650965096509650505091939590929450565b6010546001600160a01b031681565b6006602052816000526040600020818154811061257057600080fd5b90600052602060002001600091509150505481565b60055481565b60035481565b6011546000908190819081908190819081906001600160a01b0316806125e85760405162461bcd60e51b8152600401808060200182810382526023815260200180614aec6023913960400191505060405180910390fd5b601160009054906101000a90046001600160a01b03166001600160a01b0316631a6865026040518163ffffffff1660e01b815260040160206040518083038186803b15801561263657600080fd5b505afa15801561264a573d6000803e3d6000fd5b505050506040513d602081101561266057600080fd5b50516011546040805163c45a015560e01b815290519294506001600160a01b039091169163c45a015591600480820192602092909190829003018186803b1580156126aa57600080fd5b505afa1580156126be573d6000803e3d6000fd5b505050506040513d60208110156126d457600080fd5b505160115460408051630dfe168160e01b81529051929a506001600160a01b0390911691630dfe168191600480820192602092909190829003018186803b15801561271e57600080fd5b505afa158015612732573d6000803e3d6000fd5b505050506040513d602081101561274857600080fd5b50516011546040805163d21220a760e01b815290519299506001600160a01b039091169163d21220a791600480820192602092909190829003018186803b15801561279257600080fd5b505afa1580156127a6573d6000803e3d6000fd5b505050506040513d60208110156127bc57600080fd5b50516011546040805163ddca3f4360e01b815290519298506001600160a01b039091169163ddca3f4391600480820192602092909190829003018186803b15801561280657600080fd5b505afa15801561281a573d6000803e3d6000fd5b505050506040513d602081101561283057600080fd5b5051601154604080516334324e9f60e21b815290519297506001600160a01b039091169163d0c93a7c91600480820192602092909190829003018186803b15801561287a57600080fd5b505afa15801561288e573d6000803e3d6000fd5b505050506040513d60208110156128a457600080fd5b505160115460408051633867baa560e11b815290519296506001600160a01b03909116916370cf754a91600480820192602092909190829003018186803b1580156128ee57600080fd5b505afa158015612902573d6000803e3d6000fd5b505050506040513d602081101561291857600080fd5b50519798969795969495939491925050565b600c5460ff1681565b6001546001600160a01b031681565b61294b336114a9565b6129865760405162461bcd60e51b8152600401808060200182810382526022815260200180614a9a6022913960400191505060405180910390fd5b611491600080516020614be683398151915282611869565b600960205260009081526040902080546001820154600283015460039093015460ff90921692909184565b6129d2336114a9565b612a0d5760405162461bcd60e51b8152600401808060200182810382526022815260200180614a9a6022913960400191505060405180910390fd5b6001600160a01b038116612a63576040805162461bcd60e51b815260206004820152601860248201527741636365737369626c653a207a65726f206164647265737360401b604482015290519081900360640190fd5b336001600160a01b0382161415612aba576040805162461bcd60e51b815260206004820152601660248201527520b1b1b2b9b9b4b136329d1039b0b6b29030b236b4b760511b604482015290519081900360640190fd5b612ad2600080516020614be683398151915282611869565b611491600080516020614be683398151915233611cc7565b600080516020614be683398151915281565b600d5481565b60175481565b6014546001600160a01b031681565b6001600160a01b038116600090815260066020908152604091829020805483518184028101840190945280845260609392830182828015612b7757602002820191906000526020600020905b815481526020019060010190808311612b63575b50505050509050919050565b600a5481565b60115460009081908190819081906001600160a01b031680612bdc5760405162461bcd60e51b8152600401808060200182810382526023815260200180614aec6023913960400191505060405180910390fd5b6011546040805163514ea4bf60e01b8152600481018a905290516001600160a01b039092169163514ea4bf9160248082019260a092909190829003018186803b158015612c2857600080fd5b505afa158015612c3c573d6000803e3d6000fd5b505050506040513d60a0811015612c5257600080fd5b508051602082015160408301516060840151608090940151929b919a509850919650945092505050565b6000828152601960205260408120612c949083613ea7565b9392505050565b6000828152601960205260408120612c949083613eb3565b6001600160a01b03166000908152600960205260409020600181015460028201546003909201549092565b612ce6614a03565b612cee614a03565b612cf6614a03565b505060408051608080820183526000546001600160a01b0390811683526002548116602080850191909152600154821684860152601554821660608086019190915285518085018752600f54841681526010548416818401526013548416818801526014549093168382015285519384018652600a548452600554918401919091526003549483019490945260045493820193909352909250909192565b601554604080516318160ddd60e01b815290516000926001600160a01b0316916318160ddd916004808301926020929190829003018186803b158015612dd957600080fd5b505afa158015612ded573d6000803e3d6000fd5b505050506040513d6020811015612e0357600080fd5b5051905090565b60185460ff1681565b600081565b6011546000908190819081906001600160a01b031680612e695760405162461bcd60e51b8152600401808060200182810382526023815260200180614aec6023913960400191505060405180910390fd5b601154604080516351c403f960e11b815260028a810b600483015289900b602482015290514294506001600160a01b039092169163a38807f291604480820192606092909190829003018186803b158015612ec357600080fd5b505afa158015612ed7573d6000803e3d6000fd5b505050506040513d6060811015612eed57600080fd5b5080516020820151604090920151909991985096509194509092505050565b6000546001600160a01b031680612f545760405162461bcd60e51b8152600401808060200182810382526023815260200180614aec6023913960400191505060405180910390fd5b6002546001600160a01b031680612f9c5760405162461bcd60e51b8152600401808060200182810382526023815260200180614aec6023913960400191505060405180910390fd5b6001546001600160a01b031680612fe45760405162461bcd60e51b8152600401808060200182810382526023815260200180614aec6023913960400191505060405180910390fd5b600f546001600160a01b03168061302c5760405162461bcd60e51b8152600401808060200182810382526023815260200180614aec6023913960400191505060405180910390fd5b6010546001600160a01b0316806130745760405162461bcd60e51b8152600401808060200182810382526023815260200180614aec6023913960400191505060405180910390fd5b6013546001600160a01b0316806130bc5760405162461bcd60e51b8152600401808060200182810382526023815260200180614aec6023913960400191505060405180910390fd5b6014546001600160a01b0316806131045760405162461bcd60e51b8152600401808060200182810382526023815260200180614aec6023913960400191505060405180910390fd5b601354604080516331a9108f60e11b8152600481018b9052905133926001600160a01b031691636352211e916024808301926020929190829003018186803b15801561314f57600080fd5b505afa158015613163573d6000803e3d6000fd5b505050506040513d602081101561317957600080fd5b50516001600160a01b0316146131c05760405162461bcd60e51b815260040180806020018281038252602d815260200180614b6a602d913960400191505060405180910390fd5b6131c988613ec8565b5050505050505050565b600f546001600160a01b031681565b6015546001600160a01b031681565b60045481565b6013546001600160a01b031681565b6008602052600090815260409020805460018201546002830154600390930154919263ffffffff80831693600160201b909304169185565b613247336114a9565b6132825760405162461bcd60e51b8152600401808060200182810382526022815260200180614a9a6022913960400191505060405180910390fd5b600e55565b60008181526019602052604081206114c390614700565b60008181526007602090815260408083206015548251631398fee160e31b8152600481018790529251859492936001600160a01b0390921692639cc7f7089260248082019391829003018186803b1580156132f857600080fd5b505afa15801561330c573d6000803e3d6000fd5b505050506040513d602081101561332257600080fd5b50519250821580159061334a57506002810154633b9aca006001600160801b03918216021683115b1561336b576002810154633b9aca006001600160801b039182160216830391505b50915091565b7ff0887ba65ee2024ea881d91b74c2450ef19e1557f03bed3ea9f16b037cbe2dc981565b6000828152601960205260409020600201546133b390611887613ced565b611d1e5760405162461bcd60e51b8152600401808060200182810382526030815260200180614abc6030913960400191505060405180910390fd5b60076020526000908152604090208054600182015460028084015460038501546004909501546001600160a01b039485169593946001600160801b03831694600160801b8404850b94600160981b8504900b9363ffffffff600160b01b8204811694600160d01b90920481169390831692600160201b9004811691168a565b613476336114a9565b6134b15760405162461bcd60e51b8152600401808060200182810382526022815260200180614a9a6022913960400191505060405180910390fd5b6000600d819055601655565b601154600090819081908190819081908190819081906001600160a01b0316806135185760405162461bcd60e51b8152600401808060200182810382526023815260200180614aec6023913960400191505060405180910390fd5b600d54156137d05760008b815260076020526040812060028101546001600160801b031696504293509086156137cd57601154600280840154604080516351c403f960e11b8152600160801b8304840b840b6004820152600160981b909204830b90920b602482015290516001600160a01b039092169163a38807f291604480820192606092909190829003018186803b1580156135b557600080fd5b505afa1580156135c9573d6000803e3d6000fd5b505050506040513d60608110156135df57600080fd5b5060400151600383015463ffffffff9182169a50161561360c5750600381015463ffffffff168303613622565b506002810154600160b01b900463ffffffff1683035b60048201546001600160a01b03161561364c5760048201546001600160a01b031689039750613666565b6003820154600160201b90046001600160a01b0316890397505b601560009054906101000a90046001600160a01b03166001600160a01b0316639cc7f7088e6040518263ffffffff1660e01b81526004018082815260200191505060206040518083038186803b1580156136bf57600080fd5b505afa1580156136d3573d6000803e3d6000fd5b505050506040513d60208110156136e957600080fd5b5051955085156137245760008611801561370b5750600a87633b9aca00020386115b1561372457633b9aca008088028703600a019550850499505b60008a11801561373a575060008163ffffffff16115b801561375457508063ffffffff16886001600160a01b0316105b156137ae5760008163ffffffff1611801561377857506000886001600160a01b0316115b156137a4578063ffffffff16886001600160a01b03168161379557fe5b046001600160a01b03168a029b505b8b8a039a506137cd565b60008a1180156137c4575060008163ffffffff16115b156137cd57899b505b50505b509193959799909294969850565b6002546001600160a01b031681565b6000546001600160a01b031681565b6000546001600160a01b0316806138445760405162461bcd60e51b8152600401808060200182810382526023815260200180614aec6023913960400191505060405180910390fd5b6002546001600160a01b03168061388c5760405162461bcd60e51b8152600401808060200182810382526023815260200180614aec6023913960400191505060405180910390fd5b6001546001600160a01b0316806138d45760405162461bcd60e51b8152600401808060200182810382526023815260200180614aec6023913960400191505060405180910390fd5b600f546001600160a01b03168061391c5760405162461bcd60e51b8152600401808060200182810382526023815260200180614aec6023913960400191505060405180910390fd5b6010546001600160a01b0316806139645760405162461bcd60e51b8152600401808060200182810382526023815260200180614aec6023913960400191505060405180910390fd5b6013546001600160a01b0316806139ac5760405162461bcd60e51b8152600401808060200182810382526023815260200180614aec6023913960400191505060405180910390fd5b6014546001600160a01b0316806139f45760405162461bcd60e51b8152600401808060200182810382526023815260200180614aec6023913960400191505060405180910390fd5b601354604080516331a9108f60e11b8152600481018f9052905133926001600160a01b031691636352211e916024808301926020929190829003018186803b158015613a3f57600080fd5b505afa158015613a53573d6000803e3d6000fd5b505050506040513d6020811015613a6957600080fd5b50516001600160a01b031614613ab05760405162461bcd60e51b815260040180806020018281038252602d815260200180614b6a602d913960400191505060405180910390fd5b60135460408051637ac2ff7b60e01b8152306004820152602481018f9052604481018e905260ff8d166064820152608481018c905260a481018b905290516001600160a01b0390921691637ac2ff7b9160c48082019260009290919082900301818387803b158015613b2157600080fd5b505af1158015613b35573d6000803e3d6000fd5b50505050613b428c613ec8565b505050505050505050505050565b6000612c94836001600160a01b03841661470b565b6000613b7a613b748484614755565b85614796565b949350505050565b6001600160a01b0383166000908152600660205260408120805483908110613ba657fe5b90600052602060002001549050828114613bf15760405162461bcd60e51b8152600401808060200182810382526030815260200180614b3a6030913960400191505060405180910390fd5b6001600160a01b038416600090815260066020526040902054600019018315801590613c1c57508382145b15613ce65780831015613cae576001600160a01b0385166000908152600660205260408120805483908110613c4d57fe5b906000526020600020015490508060066000886001600160a01b03166001600160a01b031681526020019081526020016000208581548110613c8b57fe5b600091825260208083209091019290925591825260079052604090206001018390555b6001600160a01b0385166000908152600660205260409020805480613ccf57fe5b600190038181906000526020600020016000905590555b5050505050565b3390565b6000828152601960205260409020613d099082613b50565b156118d157613d16613ced565b6001600160a01b0316816001600160a01b0316837f2f8788117e7eff1d82e926ec794901d17c78024a50270940304540a733656f0d60405160405180910390a45050565b600081602001516001600160a01b031682600001516001600160a01b031610613d8257600080fd5b50805160208083015160409384015184516001600160a01b0394851681850152939091168385015262ffffff166060808401919091528351808403820181526080840185528051908301206001600160f81b031960a085015294901b6bffffffffffffffffffffffff191660a183015260b58201939093527fe34f199b19b2b4f47f68442619d555527d244f78a3297ea89325f843f87b8b5460d5808301919091528251808303909101815260f5909101909152805191012090565b6000828152601960205260409020613e5690826147ba565b156118d157613e63613ced565b6001600160a01b0316816001600160a01b0316837ff6391f5c32d9c69d2a47ea670b442974b53935d1edc7fd64eb21e047a839171b60405160405180910390a45050565b6000612c9483836147cf565b6000612c94836001600160a01b038416614833565b6013546040805163133f757160e31b81526004810184905290518392600092839283928392839283926001600160a01b0316916399fbab8891602480830192610180929190829003018186803b158015613f2157600080fd5b505afa158015613f35573d6000803e3d6000fd5b505050506040513d610180811015613f4c57600080fd5b5060408101516060820151608083015160a084015160c085015160e090950151600f54949b5092995090975095509193509091506001600160a01b038088169116148015613fa757506010546001600160a01b038681169116145b80613fd757506010546001600160a01b038781169116148015613fd75750600f546001600160a01b038681169116145b6140125760405162461bcd60e51b815260040180806020018281038252602b815260200180614b0f602b913960400191505060405180910390fd5b6000816001600160801b03161161405a5760405162461bcd60e51b8152600401808060200182810382526021815260200180614b976021913960400191505060405180910390fd5b6011546001600160a01b03166140db576140ba601460009054906101000a90046001600160a01b03166040518060600160405280896001600160a01b03168152602001886001600160a01b031681526020018762ffffff16815250613d5a565b601180546001600160a01b0319166001600160a01b03929092169190911790555b6011546001600160a01b03166141225760405162461bcd60e51b8152600401808060200182810382526023815260200180614c4b6023913960400191505060405180910390fd5b600080601160009054906101000a90046001600160a01b03166001600160a01b0316633850c7bd6040518163ffffffff1660e01b815260040160e06040518083038186803b15801561417357600080fd5b505afa158015614187573d6000803e3d6000fd5b505050506040513d60e081101561419d57600080fd5b50602081015160c090910151909250905080614200576040805162461bcd60e51b815260206004820152601e60248201527f5374616b65556e697377617056333a20706f6f6c20697320636c6f7365640000604482015290519081900360640190fd5b8160020b8560020b12801561421a57508360020b8260020b125b6142555760405162461bcd60e51b8152600401808060200182810382526021815260200180614c2a6021913960400191505060405180910390fd5b601154604080516351c403f960e11b8152600288810b600483015287900b602482015290516000926001600160a01b03169163a38807f2916044808301926060929190829003018186803b1580156142ac57600080fd5b505afa1580156142c0573d6000803e3d6000fd5b505050506040513d60608110156142d657600080fd5b5060409081015160135482516323b872dd60e01b8152336004820152306024820152604481018e905292519193508c926001600160a01b03909116916323b872dd9160648082019260009290919082900301818387803b15801561433957600080fd5b505af115801561434d573d6000803e3d6000fd5b50505050600d54600014156143615742600d555b6000600760008381526020019081526020016000209050338160000160006101000a8154816001600160a01b0302191690836001600160a01b0316021790555060066000336001600160a01b03166001600160a01b03168152602001908152602001600020805490508160010181905550858160020160006101000a8154816001600160801b0302191690836001600160801b03160217905550878160020160106101000a81548162ffffff021916908360020b62ffffff160217905550868160020160136101000a81548162ffffff021916908360020b62ffffff160217905550428160020160166101000a81548163ffffffff021916908363ffffffff160217905550600081600201601a6101000a81548163ffffffff021916908363ffffffff16021790555060008160030160006101000a81548163ffffffff021916908363ffffffff1602179055508263ffffffff168160030160046101000a8154816001600160a01b0302191690836001600160a01b0316021790555060008160040160006101000a8154816001600160a01b0302191690836001600160a01b0316021790555060066000336001600160a01b03166001600160a01b03168152602001908152602001600020829080600181540180825580915050600190039060005260206000200160009091909190915055856001600160801b0316600560008282540192505081905550601760008154809291906001019190505550600060096000336001600160a01b03166001600160a01b0316815260200190815260200160002090508060000160009054906101000a900460ff166145c757600a805460010190555b8054600160ff199091168117825580820180546001600160801b038a81169182019092556000868152600860209081526040808320938455948301805463ffffffff19164263ffffffff161790556015548551630ab714fb60e11b8152336004820152602481018a9052633b9aca008e029095166044860152945192946001600160a01b03169363156e29f69360648083019491928390030190829087803b15801561467257600080fd5b505af1158015614686573d6000803e3d6000fd5b505050506040513d602081101561469c57600080fd5b5050601154604080518681526001600160801b038b16602082015281516001600160a01b039093169233927f6c86f3fd5118b3aa8bb4f389a617046de0a3d3d477de1a1673d227f802f616dc928290030190a3505050505050505050505050505050565b60006114c38261484b565b60006147178383614833565b61474d575081546001818101845560008481526020808220909301849055845484825282860190935260409020919091556114c3565b5060006114c3565b60006b033b2e3c9fd0803ce8000000614787614771858561484f565b60026b033b2e3c9fd0803ce80000005b046148b2565b8161478e57fe5b049392505050565b6000816147876147b2856b033b2e3c9fd0803ce800000061484f565b600285614781565b6000612c94836001600160a01b038416614901565b815460009082106148115760405162461bcd60e51b8152600401808060200182810382526022815260200180614a226022913960400191505060405180910390fd5b82600001828154811061482057fe5b9060005260206000200154905092915050565b60009081526001919091016020526040902054151590565b5490565b600081158061486a5750508082028282828161486757fe5b04145b6114c3576040805162461bcd60e51b815260206004820152601460248201527364732d6d6174682d6d756c2d6f766572666c6f7760601b604482015290519081900360640190fd5b808201828110156114c3576040805162461bcd60e51b815260206004820152601460248201527364732d6d6174682d6164642d6f766572666c6f7760601b604482015290519081900360640190fd5b600081815260018301602052604081205480156149bd578354600019808301919081019060009087908390811061493457fe5b906000526020600020015490508087600001848154811061495157fe5b60009182526020808320909101929092558281526001898101909252604090209084019055865487908061498157fe5b600190038181906000526020600020016000905590558660010160008781526020019081526020016000206000905560019450505050506114c3565b60009150506114c3565b60405180604001604052806002906020820280368337509192915050565b6040518060c001604052806006906020820280368337509192915050565b6040518060800160405280600490602082028036833750919291505056fe456e756d657261626c655365743a20696e646578206f7574206f6620626f756e6473416363657373436f6e74726f6c3a2073656e646572206d75737420626520616e2061646d696e20746f206772616e745374616b65556e697377617056333a20616c72656164792073657420706f6f6c4164647265737341636365737369626c653a2043616c6c6572206973206e6f7420616e2061646d696e416363657373436f6e74726f6c3a2073656e646572206d75737420626520616e2061646d696e20746f207265766f6b655374616b65556e6973776170563353746f726167653a207a65726f20616464726573735374616b65556e697377617056333a20706f6f6c277320746f6b656e732061726520646966666572656e745374616b65556e697377617056333a2064656c65746555736572546f6b656e206d69736d6174636820746f6b656e49645374616b65556e697377617056333a2043616c6c6572206973206e6f7420746f6b656e49642773206f776e65725374616b65556e697377617056333a206c6971756964697479206973207a65726f5374616b65556e697377617056333a2063616c6c6572206973206e6f7420746f6b656e49642773207374616b6572df8b4c520ffe197c5343c6f5aec59570151ef9a492f2c624fd45ddde6135ec425374616b65556e697377617056333a206d696e696e67416d6f756e74206973207a65726f5374616b65556e697377617056333a206f7574206f66207469636b2072616e67655374616b65556e697377617056333a20706f6f6c41646472657373206973207a65726f416363657373436f6e74726f6c3a2063616e206f6e6c792072656e6f756e636520726f6c657320666f722073656c66a26469706673582212207635aed0fe2edc1339873aad4b4a38a6f26aaac7d11d41ea2f5f3898c82e16f064736f6c63430007060033df8b4c520ffe197c5343c6f5aec59570151ef9a492f2c624fd45ddde6135ec42",
  "immutableReferences": {},
  "source": "// SPDX-License-Identifier: MIT\npragma solidity ^0.7.6;\n\nimport \"@uniswap/v3-core/contracts/interfaces/IUniswapV3Pool.sol\";\n\nimport \"@uniswap/v3-periphery/contracts/interfaces/INonfungiblePositionManager.sol\";\nimport \"@uniswap/v3-periphery/contracts/libraries/TransferHelper.sol\";\n//import \"@uniswap/v3-periphery/contracts/base/Multicall.sol\";\nimport \"@uniswap/v3-periphery/contracts/libraries/PoolAddress.sol\";\n\nimport \"@openzeppelin/contracts/token/ERC721/IERC721.sol\";\nimport \"../interfaces/IStakeRegistry.sol\";\nimport \"../interfaces/IStakeUniswapV3.sol\";\nimport \"../interfaces/IAutoRefactorCoinageWithTokenId.sol\";\nimport \"../interfaces/IIStake2Vault.sol\";\nimport \"../libraries/LibTokenStake1.sol\";\nimport {DSMath} from \"../libraries/DSMath.sol\";\nimport \"../common/AccessibleCommon.sol\";\nimport \"../stake/StakeUniswapV3Storage.sol\";\n\n/// @title StakeUniswapV3\n/// @notice Uniswap V3 Contract for staking LP and mining TOS\ncontract StakeUniswapV3 is\n    StakeUniswapV3Storage,\n    AccessibleCommon,\n    IStakeUniswapV3,\n    DSMath\n{\n    struct PositionInfo {\n        // the amount of liquidity owned by this position\n        uint128 liquidity;\n        // fee growth per unit of liquidity as of the last update to liquidity or fees owed\n        uint256 feeGrowthInside0LastX128;\n        uint256 feeGrowthInside1LastX128;\n        // the fees owed to the position owner in token0/token1\n        uint128 tokensOwed0;\n        uint128 tokensOwed1;\n    }\n\n    struct Slot0 {\n        // the current price\n        uint160 sqrtPriceX96;\n        // the current tick\n        int24 tick;\n        // the most-recently updated index of the observations array\n        uint16 observationIndex;\n        // the current maximum number of observations that are being stored\n        uint16 observationCardinality;\n        // the next maximum number of observations to store, triggered in observations.write\n        uint16 observationCardinalityNext;\n        // the current protocol fee as a percentage of the swap fee taken on withdrawal\n        // represented as an integer denominator (1/x)%\n        uint8 feeProtocol;\n        // whether the pool is locked\n        bool unlocked;\n    }\n\n    modifier lock() {\n        require(_lock == 0, \"StakeUniswapV3: LOCKED\");\n        _lock = 1;\n        _;\n        _lock = 0;\n    }\n\n    /// @dev event on staking\n    /// @param to the sender\n    /// @param poolAddress the pool address of uniswapV3\n    /// @param tokenId the uniswapV3 Lp token\n    /// @param amount the amount of staking\n    event Staked(address indexed to, address indexed poolAddress, uint256 tokenId, uint256 amount);\n\n    /// @dev event on claim\n    /// @param to the sender\n    /// @param poolAddress the pool address of uniswapV3\n    /// @param tokenId the uniswapV3 Lp token\n    /// @param miningAmount the amount of mining\n    event Claimed(address indexed to, address poolAddress, uint256 tokenId,  uint256 miningAmount);\n\n    /// @dev event on withdrawal\n    /// @param to the sender\n    /// @param tokenId the uniswapV3 Lp token\n    event WithdrawalToken(address indexed to, uint256 tokenId);\n\n    /// @dev event on mining in coinage\n    /// @param curTime the current time\n    /// @param miningInterval mining period (sec)\n    /// @param miningAmount the mining amount\n    /// @param prevTotalSupply Total amount of coinage before mining\n    /// @param afterTotalSupply Total amount of coinage after being mined\n    /// @param factor coinage's Factor\n    event MinedCoinage(uint256 curTime, uint256 miningInterval, uint256 miningAmount, uint256 prevTotalSupply , uint256 afterTotalSupply, uint256 factor);\n\n    /// @dev event on burning in coinage\n    /// @param curTime the current time\n    /// @param tokenId the token id\n    /// @param burningAmount the buring amount\n    /// @param prevTotalSupply Total amount of coinage before mining\n    /// @param afterTotalSupply Total amount of coinage after being mined\n    event BurnedCoinage(uint256 curTime, uint256 tokenId, uint256 burningAmount, uint256 prevTotalSupply , uint256 afterTotalSupply);\n\n    /// @dev constructor of StakeCoinage\n    constructor() {\n        _setRoleAdmin(ADMIN_ROLE, ADMIN_ROLE);\n        _setupRole(ADMIN_ROLE, msg.sender);\n\n        miningIntervalSeconds = 13;\n    }\n\n    /// @dev receive ether - revert\n    receive() external payable {\n        revert();\n    }\n\n    /// @dev Mining interval setting (seconds)\n    /// @param _intervalSeconds the mining interval (sec)\n    function setMiningIntervalSeconds(\n        uint256  _intervalSeconds\n    ) external  onlyOwner {\n        miningIntervalSeconds = _intervalSeconds;\n    }\n\n    /// @dev reset coinage's last mining time variable for tes\n    function resetCoinageTime() external onlyOwner {\n        startTime = 0;\n        coinageLastMintBlockTimetamp = 0;\n    }\n\n    /// @dev calculate the factor of coinage\n    /// @param source tsource\n    /// @param target target\n    /// @param oldFactor oldFactor\n    function _calcNewFactor(\n        uint256 source,\n        uint256 target,\n        uint256 oldFactor\n    ) internal pure returns (uint256) {\n        return rdiv(rmul(target, oldFactor), source);\n    }\n\n    /// @dev delete user's token storage of index place\n    /// @param _owner tokenId's owner\n    /// @param tokenId tokenId\n    /// @param _index owner's tokenId's index\n    function deleteUserToken(address _owner, uint256 tokenId, uint256 _index) internal {\n        uint256 _tokenid = userStakedTokenIds[_owner][_index];\n        require(_tokenid == tokenId, \"StakeUniswapV3: deleteUserToken mismatch tokenId\");\n        uint256 lastIndex = userStakedTokenIds[_owner].length - 1;\n        if (tokenId > 0 && _tokenid == tokenId) {\n            if (_index < lastIndex) {\n                uint256 tokenId_lastIndex = userStakedTokenIds[_owner][lastIndex];\n                userStakedTokenIds[_owner][_index] = tokenId_lastIndex;\n                depositTokens[tokenId_lastIndex].idIndex = _index;\n            }\n            userStakedTokenIds[_owner].pop();\n        }\n    }\n\n    /// @dev mining on coinage\n    function miningCoinage() public lock {\n        if(startTime == 0 ) return;\n        if(coinageLastMintBlockTimetamp == 0) coinageLastMintBlockTimetamp = startTime;\n\n        if (block.timestamp > (coinageLastMintBlockTimetamp + miningIntervalSeconds) ) {\n            uint256 miningInterval = block.timestamp - coinageLastMintBlockTimetamp;\n            uint256 miningAmount = miningInterval * IIStake2Vault(vault).miningPerSecond();\n            uint256 prevTotalSupply = IAutoRefactorCoinageWithTokenId(coinage).totalSupply();\n\n            if (miningAmount > 0 && prevTotalSupply > 0) {\n                uint256 afterTotalSupply = prevTotalSupply + miningAmount*(10**9);\n                uint256 factor = IAutoRefactorCoinageWithTokenId(coinage).setFactor(\n                    _calcNewFactor(\n                        prevTotalSupply,\n                        afterTotalSupply,\n                        IAutoRefactorCoinageWithTokenId(coinage).factor()\n                    )\n                );\n                coinageLastMintBlockTimetamp = block.timestamp;\n\n                emit MinedCoinage(block.timestamp, miningInterval, miningAmount, prevTotalSupply, afterTotalSupply, factor);\n            }\n        }\n    }\n\n\n    /// @dev view mining information of tokenId\n    /// @param tokenId  tokenId\n    function getMiningTokenId(uint256 tokenId)\n        public\n        view\n        override\n        nonZeroAddress(poolAddress)\n        returns (\n            uint256 miningAmount,\n            uint256 nonMiningAmount,\n            uint256 minableAmount,\n            uint160 secondsInside,\n            uint160 secondsInsideDiff,\n            uint256 liquidity,\n            uint256 balanceOfTokenIdRay,\n            uint256 minableAmountRay,\n            uint32 currentTime\n        )\n    {\n        if(startTime > 0) {\n            LibUniswapV3Stake.StakeLiquidity storage _depositTokens = depositTokens[tokenId];\n            liquidity = _depositTokens.liquidity ;\n\n            currentTime = uint32(block.timestamp);\n            uint32 secondsAbsolute = 0;\n\n            if(_depositTokens.liquidity > 0){\n                (, , secondsInside ) = IUniswapV3Pool(poolAddress).snapshotCumulativesInside(_depositTokens.tickLower, _depositTokens.tickUpper);\n\n                if(_depositTokens.claimedTime > 0) secondsAbsolute = currentTime - _depositTokens.claimedTime;\n                else secondsAbsolute = currentTime - _depositTokens.startTime;\n\n                if(_depositTokens.secondsInsideLast > 0) secondsInsideDiff = secondsInside - _depositTokens.secondsInsideLast;\n                else secondsInsideDiff = secondsInside - _depositTokens.secondsInsideInitial;\n\n                balanceOfTokenIdRay = IAutoRefactorCoinageWithTokenId(coinage).balanceOf(tokenId);\n                if(balanceOfTokenIdRay > 0 ) {\n\n                    if (balanceOfTokenIdRay > 0 && balanceOfTokenIdRay > (liquidity*(10**9)-10) ) {\n                        minableAmountRay = balanceOfTokenIdRay - (liquidity*(10**9)-10);\n                        minableAmount = minableAmountRay/(10**9);\n                    }\n                }\n                if(minableAmount > 0 && secondsAbsolute > 0 && secondsInsideDiff < secondsAbsolute ){\n                    if(secondsAbsolute >0 && secondsInsideDiff > 0 ) miningAmount = minableAmount * (secondsInsideDiff / secondsAbsolute);\n                    nonMiningAmount = minableAmount - miningAmount;\n\n                } else if(minableAmount > 0 &&  secondsAbsolute > 0){\n                    miningAmount = minableAmount;\n                }\n            }\n        }\n    }\n\n    /// @dev With the given tokenId, information is retrieved from nonfungiblePositionManager,\n    ///      and the pool address is calculated and set.\n    /// @param tokenId  tokenId\n    function setPoolAddress(uint256 tokenId) external\n        nonZeroAddress(token)\n        nonZeroAddress(vault)\n        nonZeroAddress(stakeRegistry)\n        nonZeroAddress(poolToken0)\n        nonZeroAddress(poolToken1)\n        nonZeroAddress(address(nonfungiblePositionManager))\n        nonZeroAddress(uniswapV3FactoryAddress)\n    {\n        require(poolAddress == address(0), \"StakeUniswapV3: already set poolAddress\");\n        (\n            ,\n            ,\n            address token0,\n            address token1,\n            uint24 fee,\n            ,\n            ,\n            ,\n            ,\n            ,\n            ,\n        ) = nonfungiblePositionManager.positions(tokenId);\n\n        require(\n            (token0 == poolToken0 && token1 == poolToken1) ||\n                (token0 == poolToken1 && token1 == poolToken0),\n            \"StakeUniswapV3: pool's tokens are different\"\n        );\n\n        poolAddress =\n            PoolAddress.computeAddress(\n                uniswapV3FactoryAddress,\n                PoolAddress.PoolKey({token0: token0, token1: token1, fee: fee})\n            );\n        poolFee = fee;\n    }\n\n    /// @dev stake tokenId of UniswapV3\n    /// @param tokenId  tokenId\n    function stakePermit(\n        uint256 tokenId,\n        uint256 deadline,\n        uint8 v,\n        bytes32 r,\n        bytes32 s\n    )\n        external\n         nonZeroAddress(token)\n        nonZeroAddress(vault)\n        nonZeroAddress(stakeRegistry)\n        nonZeroAddress(poolToken0)\n        nonZeroAddress(poolToken1)\n        nonZeroAddress(address(nonfungiblePositionManager))\n        nonZeroAddress(uniswapV3FactoryAddress)\n    {\n        require(\n            nonfungiblePositionManager.ownerOf(tokenId) == msg.sender,\n            \"StakeUniswapV3: Caller is not tokenId's owner\"\n        );\n\n        nonfungiblePositionManager.permit(address(this), tokenId, deadline, v, r, s);\n\n        _stake(tokenId);\n    }\n\n    /// @dev stake tokenId of UniswapV3\n    /// @param tokenId  tokenId\n    function stake(uint256 tokenId)\n        external\n        override\n        nonZeroAddress(token)\n        nonZeroAddress(vault)\n        nonZeroAddress(stakeRegistry)\n        nonZeroAddress(poolToken0)\n        nonZeroAddress(poolToken1)\n        nonZeroAddress(address(nonfungiblePositionManager))\n        nonZeroAddress(uniswapV3FactoryAddress)\n    {\n        require(\n            nonfungiblePositionManager.ownerOf(tokenId) == msg.sender,\n            \"StakeUniswapV3: Caller is not tokenId's owner\"\n        );\n\n        _stake(tokenId);\n    }\n\n    function _stake(uint256 tokenId)\n        internal\n    {\n        uint256 _tokenId = tokenId;\n        (\n            ,\n            ,\n            address token0,\n            address token1,\n            uint24 fee,\n            int24 tickLower,\n            int24 tickUpper,\n            uint128 liquidity,\n            ,\n            ,\n            ,\n\n        ) = nonfungiblePositionManager.positions(_tokenId);\n\n        require(\n            (token0 == poolToken0 && token1 == poolToken1) ||\n                (token0 == poolToken1 && token1 == poolToken0),\n            \"StakeUniswapV3: pool's tokens are different\"\n        );\n\n        require(liquidity > 0, \"StakeUniswapV3: liquidity is zero\");\n\n\n        if(poolAddress == address(0)){\n            poolAddress = PoolAddress.computeAddress(\n                                uniswapV3FactoryAddress,\n                                PoolAddress.PoolKey({token0: token0, token1: token1, fee: fee})\n                            );\n        }\n\n        require(\n            poolAddress != address(0),\n            \"StakeUniswapV3: poolAddress is zero\"\n        );\n\n        (, int24 tick, , , , , bool unlocked) = IUniswapV3Pool(poolAddress).slot0();\n        require(unlocked, \"StakeUniswapV3: pool is closed\");\n        require(tickLower < tick && tick < tickUpper, \"StakeUniswapV3: out of tick range\");\n\n        (, , uint32 secondsInside) =\n            IUniswapV3Pool(poolAddress).snapshotCumulativesInside(\n                tickLower,\n                tickUpper\n            );\n\n        uint256 tokenId_ = _tokenId;\n\n        nonfungiblePositionManager.transferFrom(\n            msg.sender,\n            address(this),\n            tokenId_\n        );\n\n        // initial start time\n        if(startTime == 0) startTime = block.timestamp;\n\n        //depositTokens   \n        LibUniswapV3Stake.StakeLiquidity storage _depositTokens = depositTokens[tokenId_];\n        _depositTokens.owner = msg.sender;\n        _depositTokens.idIndex = userStakedTokenIds[msg.sender].length;\n        _depositTokens.liquidity = liquidity;\n        _depositTokens.tickLower = tickLower;\n        _depositTokens.tickUpper = tickUpper;\n        _depositTokens.startTime = uint32(block.timestamp);\n        _depositTokens.endTime = 0;\n        _depositTokens.claimedTime = 0;\n        _depositTokens.secondsInsideInitial = secondsInside;\n        _depositTokens.secondsInsideLast = 0;\n\n        // save tokenid\n        userStakedTokenIds[msg.sender].push(tokenId_);\n\n        //     \n        totalStakedAmount += liquidity;\n        totalTokens++;\n\n        //StakedTotalTokenAmount    \n        LibUniswapV3Stake.StakedTotalTokenAmount storage _userTotalStaked = userTotalStaked[msg.sender];\n        if (!_userTotalStaked.staked) totalStakers++;\n        _userTotalStaked.staked = true;\n        _userTotalStaked.totalDepositAmount += liquidity;\n\n\n        //stakedCoinageTokens    \n        LibUniswapV3Stake.StakedTokenAmount storage _stakedCoinageTokens = stakedCoinageTokens[tokenId_];\n        _stakedCoinageTokens.amount = liquidity;\n        _stakedCoinageTokens.startTime = uint32(block.timestamp);\n\n\n        //mint coinage of user amount\n        IAutoRefactorCoinageWithTokenId(coinage).mint(msg.sender, tokenId_, liquidity * (10**9));\n\n        //miningCoinage();\n\n        emit Staked(msg.sender, poolAddress, tokenId_, liquidity);\n    }\n\n\n\n    /// @dev The amount mined with the deposited liquidity is claimed and taken.\n    ///      The amount of mining taken is changed in proportion to the amount of time liquidity\n    ///       has been provided since recent mining\n    /// @param tokenId  tokenId\n    function claim(uint256 tokenId)\n        external override\n    {\n        LibUniswapV3Stake.StakeLiquidity storage _depositTokens = depositTokens[tokenId];\n\n        require(\n            _depositTokens.owner == msg.sender,\n            \"StakeUniswapV3: caller is not tokenId's staker\"\n        );\n\n        //miningCoinage();\n\n        (\n            uint256 miningAmount,\n            uint256 nonMiningAmount,\n            uint256 minableAmount,\n            uint160 secondsInside,\n            ,,,\n            uint256 minableAmountRay,\n        ) = getMiningTokenId(tokenId);\n\n        require( miningAmount > 0, \"StakeUniswapV3: miningAmount is zero\");\n\n        _depositTokens.claimedTime = uint32(block.timestamp);\n        _depositTokens.secondsInsideLast = secondsInside;\n\n        IAutoRefactorCoinageWithTokenId(coinage).burn(msg.sender, tokenId, minableAmountRay);\n\n        // storage  stakedCoinageTokens\n        LibUniswapV3Stake.StakedTokenAmount storage _stakedCoinageTokens = stakedCoinageTokens[tokenId];\n        _stakedCoinageTokens.claimedTime = uint32(block.timestamp);\n        _stakedCoinageTokens.claimedAmount += miningAmount;\n        _stakedCoinageTokens.nonMiningAmount += nonMiningAmount;\n\n        // storage  StakedTotalTokenAmount\n        LibUniswapV3Stake.StakedTotalTokenAmount storage _userTotalStaked = userTotalStaked[msg.sender];\n        _userTotalStaked.totalMiningAmount += miningAmount;\n        _userTotalStaked.totalNonMiningAmount += nonMiningAmount;\n\n        // total\n        miningAmountTotal += miningAmount;\n        nonMiningAmountTotal += nonMiningAmount;\n\n        require(IIStake2Vault(vault).claimMining(msg.sender, minableAmount, miningAmount, nonMiningAmount));\n        emit Claimed(msg.sender, poolAddress, tokenId, miningAmount );\n    }\n\n    /// @dev withdraw the deposited token.\n    ///      The amount mined with the deposited liquidity is claimed and taken.\n    ///      The amount of mining taken is changed in proportion to the amount of time liquidity\n    ///      has been provided since recent mining\n    /// @param tokenId  tokenId\n    function withdraw(uint256 tokenId) external override {\n        LibUniswapV3Stake.StakeLiquidity storage _depositTokens = depositTokens[tokenId];\n        require(\n            _depositTokens.owner == msg.sender,\n            \"StakeUniswapV3: caller is not tokenId's staker\"\n        );\n\n        if(totalStakedAmount >= _depositTokens.liquidity )\n            totalStakedAmount -= _depositTokens.liquidity;\n\n        if(totalTokens > 0 )\n            totalTokens--;\n\n        (\n            uint256 miningAmount,\n            uint256 nonMiningAmount,\n            uint256 minableAmount,\n            ,\n            ,\n            ,\n            ,\n            ,\n        ) = getMiningTokenId(tokenId);\n\n        IAutoRefactorCoinageWithTokenId(coinage).burnTokenId(msg.sender, tokenId);\n\n        LibUniswapV3Stake.StakedTotalTokenAmount storage _userTotalStaked = userTotalStaked[msg.sender];\n        _userTotalStaked.totalDepositAmount -= _depositTokens.liquidity;\n\n        deleteUserToken(_depositTokens.owner, tokenId, _depositTokens.idIndex);\n\n        delete depositTokens[tokenId];\n        delete stakedCoinageTokens[tokenId];\n\n        if (_userTotalStaked.totalDepositAmount == 0) {\n            totalStakers--;\n            delete userTotalStaked[msg.sender];\n        }\n\n        if(minableAmount > 0) require(IIStake2Vault(vault).claimMining(msg.sender, minableAmount, miningAmount, nonMiningAmount));\n\n        nonfungiblePositionManager.safeTransferFrom(\n            address(this),\n            msg.sender,\n            tokenId\n        );\n\n        emit WithdrawalToken(msg.sender, tokenId);\n    }\n\n    /// @dev Get the list of staked tokens of the user\n    /// @param user  user address\n    function getUserStakedTokenIds(address user)\n        external\n        view\n        override\n        returns (uint256[] memory ids)\n    {\n        return userStakedTokenIds[user];\n    }\n\n    /// @dev tokenId's deposited information\n    /// @param tokenId   tokenId\n    /// @return _poolAddress   poolAddress\n    /// @return tick tick,\n    /// @return liquidity liquidity,\n    /// @return args liquidity,  startTime, endTime, claimedTime, startBlock, claimedBlock, claimedAmount\n    /// @return secondsPL secondsPerLiquidityInsideInitialX128, secondsPerLiquidityInsideX128Las\n    function getDepositToken(uint256 tokenId)\n        external\n        view\n        override\n        returns (\n            address _poolAddress,\n            int24[2] memory tick,\n            uint128 liquidity,\n            uint256[6] memory args,\n            uint160[2] memory secondsPL\n        )\n    {\n        LibUniswapV3Stake.StakeLiquidity memory _depositTokens = depositTokens[tokenId];\n        LibUniswapV3Stake.StakedTokenAmount memory _stakedCoinageTokens = stakedCoinageTokens[tokenId];\n        _poolAddress = poolAddress;\n\n        return (\n            _poolAddress,\n            [_depositTokens.tickLower, _depositTokens.tickUpper],\n            _depositTokens.liquidity,\n            [\n                _depositTokens.startTime,\n                _depositTokens.endTime,\n                _depositTokens.claimedTime,\n                _stakedCoinageTokens.startTime,\n                _stakedCoinageTokens.claimedTime,\n                _stakedCoinageTokens.claimedAmount\n            ],\n            [\n                _depositTokens.secondsInsideInitial,\n                _depositTokens.secondsInsideLast\n            ]\n        );\n    }\n\n    function getUserStakedTotal(address user)\n        external\n        view\n        override\n        returns (\n            uint256 totalDepositAmount,\n            uint256 totalMiningAmount,\n            uint256 totalNonMiningAmount\n        )\n    {\n        return (\n            userTotalStaked[user].totalDepositAmount,\n            userTotalStaked[user].totalMiningAmount,\n            userTotalStaked[user].totalNonMiningAmount\n        );\n    }\n\n    function totalSupplyCoinage() external view returns (uint256) {\n        return IAutoRefactorCoinageWithTokenId(coinage).totalSupply();\n    }\n\n    function balanceOfCoinage(uint256 tokenId) external view returns (uint256) {\n        return IAutoRefactorCoinageWithTokenId(coinage).balanceOf(tokenId);\n    }\n    /// @dev Give the infomation of this stakeContracts\n    /// @return return1  [token, vault, stakeRegistry, coinage]\n    /// @return return2  [poolToken0, poolToken1, nonfungiblePositionManager, uniswapV3FactoryAddress]\n    /// @return return3  [totalStakers, totalStakedAmount, miningAmountTotal,nonMiningAmountTotal]\n    function infos()\n        external\n        view\n        override\n        returns (\n            address[4] memory,\n            address[4] memory,\n            uint256[4] memory\n        )\n    {\n        return (\n            [token, vault, stakeRegistry, coinage],\n            [\n                poolToken0,\n                poolToken1,\n                address(nonfungiblePositionManager),\n                uniswapV3FactoryAddress\n            ],\n            [\n                totalStakers,\n                totalStakedAmount,\n                miningAmountTotal,\n                nonMiningAmountTotal\n            ]\n        );\n    }\n\n    function canMiningAmountTokenId(uint256 tokenId)\n        external\n        view\n        returns (uint256 balanceOfRayTokenId, uint256 minableAmountRay)\n    {\n        LibUniswapV3Stake.StakeLiquidity storage _depositTokens = depositTokens[tokenId];\n\n        balanceOfRayTokenId = IAutoRefactorCoinageWithTokenId(coinage).balanceOf(tokenId);\n        if (balanceOfRayTokenId > 0 && balanceOfRayTokenId > _depositTokens.liquidity*(10**9) ) {\n            minableAmountRay = balanceOfRayTokenId - _depositTokens.liquidity*(10**9);\n        }\n    }\n\n    function poolInfos()\n        external view\n        nonZeroAddress(poolAddress)\n        returns\n        (\n            address factory,\n            address token0,\n            address token1 ,\n            uint24 fee,\n            int24 tickSpacing,\n            uint128 maxLiquidityPerTick,\n            uint128 liquidity\n        )\n    {\n        liquidity = IUniswapV3Pool(poolAddress).liquidity();\n        factory = IUniswapV3Pool(poolAddress).factory();\n        token0 = IUniswapV3Pool(poolAddress).token0();\n        token1 = IUniswapV3Pool(poolAddress).token1();\n        fee = IUniswapV3Pool(poolAddress).fee();\n        tickSpacing = IUniswapV3Pool(poolAddress).tickSpacing();\n        maxLiquidityPerTick = IUniswapV3Pool(poolAddress).maxLiquidityPerTick();\n    }\n\n    /// @param key hash(owner, tickLower, tickUpper)\n    function poolPositions(bytes32 key)\n        external view\n        nonZeroAddress(poolAddress)\n        returns\n        (\n            uint128 _liquidity,\n            uint256 feeGrowthInside0LastX128,\n            uint256 feeGrowthInside1LastX128,\n            uint128 tokensOwed0,\n            uint128 tokensOwed1\n        )\n    {\n        ( _liquidity,\n             feeGrowthInside0LastX128,\n             feeGrowthInside1LastX128,\n             tokensOwed0,\n             tokensOwed1 )  = IUniswapV3Pool(poolAddress).positions(key);\n    }\n\n    function poolSlot0()\n        external view\n        nonZeroAddress(poolAddress)\n        returns\n        (\n            uint160 sqrtPriceX96,\n            int24 tick,\n            uint16 observationIndex ,\n            uint16 observationCardinality,\n            uint16 observationCardinalityNext,\n            uint8 feeProtocol,\n            bool unlocked\n        )\n    {\n        ( sqrtPriceX96, tick, observationIndex , observationCardinality,\n            observationCardinalityNext, feeProtocol, unlocked ) = IUniswapV3Pool(poolAddress).slot0();\n    }\n\n    function npmPositions(uint256 _tokenId)\n        external view\n        nonZeroAddress(address(nonfungiblePositionManager))\n        returns\n        (\n            uint96 nonce,\n            address operator,\n            address token0,\n            address token1,\n            uint24 fee,\n            int24 tickLower,\n            int24 tickUpper,\n            uint128 liquidity,\n            uint256 feeGrowthInside0LastX128,\n            uint256 feeGrowthInside1LastX128,\n            uint128 tokensOwed0,\n            uint128 tokensOwed1\n        )\n    {\n        return nonfungiblePositionManager.positions(_tokenId);\n    }\n\n    function snapshotCumulativesInside(int24 tickLower, int24 tickUpper)\n        external view\n        nonZeroAddress(poolAddress)\n        returns (\n            int56 tickCumulativeInside,\n            uint160 secondsPerLiquidityInsideX128,\n            uint32 secondsInside,\n            uint32 curTimestamps\n        )\n    {\n        tickCumulativeInside;\n        secondsPerLiquidityInsideX128;\n        secondsInside;\n        curTimestamps = uint32(block.timestamp);\n\n        (tickCumulativeInside, secondsPerLiquidityInsideX128, secondsInside) = IUniswapV3Pool(poolAddress).snapshotCumulativesInside(\n                tickLower,\n                tickUpper\n            );\n    }\n\n\n}\n",
  "sourcePath": "/Users/zena/ico2.0/ico20-contracts/contracts/stake/StakeUniswapV3.sol",
  "compiler": {
    "name": "solc",
    "version": "0.7.6+commit.7338295f.Emscripten.clang"
  },
  "schemaVersion": "3.3.4",
  "updatedAt": "2021-07-28T11:36:55.636Z",
  "devdoc": {
    "events": {
      "BurnedCoinage(uint256,uint256,uint256,uint256,uint256)": {
        "details": "event on burning in coinage",
        "params": {
          "afterTotalSupply": "Total amount of coinage after being mined",
          "burningAmount": "the buring amount",
          "curTime": "the current time",
          "prevTotalSupply": "Total amount of coinage before mining",
          "tokenId": "the token id"
        }
      },
      "Claimed(address,address,uint256,uint256)": {
        "details": "event on claim",
        "params": {
          "miningAmount": "the amount of mining",
          "poolAddress": "the pool address of uniswapV3",
          "to": "the sender",
          "tokenId": "the uniswapV3 Lp token"
        }
      },
      "MinedCoinage(uint256,uint256,uint256,uint256,uint256,uint256)": {
        "details": "event on mining in coinage",
        "params": {
          "afterTotalSupply": "Total amount of coinage after being mined",
          "curTime": "the current time",
          "factor": "coinage's Factor",
          "miningAmount": "the mining amount",
          "miningInterval": "mining period (sec)",
          "prevTotalSupply": "Total amount of coinage before mining"
        }
      },
      "Staked(address,address,uint256,uint256)": {
        "details": "event on staking",
        "params": {
          "amount": "the amount of staking",
          "poolAddress": "the pool address of uniswapV3",
          "to": "the sender",
          "tokenId": "the uniswapV3 Lp token"
        }
      },
      "WithdrawalToken(address,uint256)": {
        "details": "event on withdrawal",
        "params": {
          "to": "the sender",
          "tokenId": "the uniswapV3 Lp token"
        }
      }
    },
    "kind": "dev",
    "methods": {
      "addAdmin(address)": {
        "details": "add admin",
        "params": {
          "account": "address to add"
        }
      },
      "claim(uint256)": {
        "details": "The amount mined with the deposited liquidity is claimed and taken.      The amount of mining taken is changed in proportion to the amount of time liquidity       has been provided since recent mining",
        "params": {
          "tokenId": "tokenId"
        }
      },
      "constructor": {
        "details": "constructor of StakeCoinage"
      },
      "getDepositToken(uint256)": {
        "details": "tokenId's deposited information",
        "params": {
          "tokenId": "tokenId"
        },
        "returns": {
          "_poolAddress": "  poolAddress",
          "args": "liquidity,  startTime, endTime, claimedTime, startBlock, claimedBlock, claimedAmount",
          "liquidity": "liquidity,",
          "secondsPL": "secondsPerLiquidityInsideInitialX128, secondsPerLiquidityInsideX128Las",
          "tick": "tick,"
        }
      },
      "getMiningTokenId(uint256)": {
        "details": "view mining information of tokenId",
        "params": {
          "tokenId": "tokenId"
        }
      },
      "getRoleAdmin(bytes32)": {
        "details": "Returns the admin role that controls `role`. See {grantRole} and {revokeRole}. To change a role's admin, use {_setRoleAdmin}."
      },
      "getRoleMember(bytes32,uint256)": {
        "details": "Returns one of the accounts that have `role`. `index` must be a value between 0 and {getRoleMemberCount}, non-inclusive. Role bearers are not sorted in any particular way, and their ordering may change at any point. WARNING: When using {getRoleMember} and {getRoleMemberCount}, make sure you perform all queries on the same block. See the following https://forum.openzeppelin.com/t/iterating-over-elements-on-enumerableset-in-openzeppelin-contracts/2296[forum post] for more information."
      },
      "getRoleMemberCount(bytes32)": {
        "details": "Returns the number of accounts that have `role`. Can be used together with {getRoleMember} to enumerate all bearers of a role."
      },
      "getUserStakedTokenIds(address)": {
        "details": "Get the list of staked tokens of the user",
        "params": {
          "user": "user address"
        }
      },
      "grantRole(bytes32,address)": {
        "details": "Grants `role` to `account`. If `account` had not been already granted `role`, emits a {RoleGranted} event. Requirements: - the caller must have ``role``'s admin role."
      },
      "hasRole(bytes32,address)": {
        "details": "Returns `true` if `account` has been granted `role`."
      },
      "infos()": {
        "details": "Give the infomation of this stakeContracts",
        "returns": {
          "_0": "return1  [token, vault, stakeRegistry, coinage]",
          "_1": "return2  [poolToken0, poolToken1, nonfungiblePositionManager, uniswapV3FactoryAddress]",
          "_2": "return3  [totalStakers, totalStakedAmount, miningAmountTotal,nonMiningAmountTotal]"
        }
      },
      "isAdmin(address)": {
        "details": "whether admin",
        "params": {
          "account": "address to check"
        }
      },
      "miningCoinage()": {
        "details": "mining on coinage"
      },
      "poolPositions(bytes32)": {
        "params": {
          "key": "hash(owner, tickLower, tickUpper)"
        }
      },
      "removeAdmin(address)": {
        "details": "remove admin",
        "params": {
          "account": "address to remove"
        }
      },
      "renounceRole(bytes32,address)": {
        "details": "Revokes `role` from the calling account. Roles are often managed via {grantRole} and {revokeRole}: this function's purpose is to provide a mechanism for accounts to lose their privileges if they are compromised (such as when a trusted device is misplaced). If the calling account had been granted `role`, emits a {RoleRevoked} event. Requirements: - the caller must be `account`."
      },
      "resetCoinageTime()": {
        "details": "reset coinage's last mining time variable for tes"
      },
      "revokeRole(bytes32,address)": {
        "details": "Revokes `role` from `account`. If `account` had been granted `role`, emits a {RoleRevoked} event. Requirements: - the caller must have ``role``'s admin role."
      },
      "setMiningIntervalSeconds(uint256)": {
        "details": "Mining interval setting (seconds)",
        "params": {
          "_intervalSeconds": "the mining interval (sec)"
        }
      },
      "setPoolAddress(uint256)": {
        "details": "With the given tokenId, information is retrieved from nonfungiblePositionManager,      and the pool address is calculated and set.",
        "params": {
          "tokenId": "tokenId"
        }
      },
      "stake(uint256)": {
        "details": "stake tokenId of UniswapV3",
        "params": {
          "tokenId": "tokenId"
        }
      },
      "stakePermit(uint256,uint256,uint8,bytes32,bytes32)": {
        "details": "stake tokenId of UniswapV3",
        "params": {
          "tokenId": "tokenId"
        }
      },
      "transferAdmin(address)": {
        "details": "transfer admin",
        "params": {
          "newAdmin": "new admin address"
        }
      },
      "withdraw(uint256)": {
        "details": "withdraw the deposited token.      The amount mined with the deposited liquidity is claimed and taken.      The amount of mining taken is changed in proportion to the amount of time liquidity      has been provided since recent mining",
        "params": {
          "tokenId": "tokenId"
        }
      }
    },
    "title": "StakeUniswapV3",
    "version": 1
  },
  "userdoc": {
    "kind": "user",
    "methods": {},
    "notice": "Uniswap V3 Contract for staking LP and mining TOS",
    "version": 1
  }
}