{
  "contractName": "Stake2Logic",
  "abi": [
    {
      "inputs": [],
      "stateMutability": "nonpayable",
      "type": "constructor"
    },
    {
      "anonymous": false,
      "inputs": [
        {
          "indexed": true,
          "internalType": "address",
          "name": "vault",
          "type": "address"
        },
        {
          "indexed": true,
          "internalType": "address",
          "name": "stakeContract",
          "type": "address"
        },
        {
          "indexed": false,
          "internalType": "uint256",
          "name": "phase",
          "type": "uint256"
        }
      ],
      "name": "CreatedStakeContract2",
      "type": "event"
    },
    {
      "anonymous": false,
      "inputs": [
        {
          "indexed": true,
          "internalType": "address",
          "name": "vault",
          "type": "address"
        },
        {
          "indexed": false,
          "internalType": "address",
          "name": "paytoken",
          "type": "address"
        },
        {
          "indexed": false,
          "internalType": "uint256",
          "name": "cap",
          "type": "uint256"
        }
      ],
      "name": "CreatedVault2",
      "type": "event"
    },
    {
      "anonymous": false,
      "inputs": [
        {
          "indexed": true,
          "internalType": "bytes32",
          "name": "role",
          "type": "bytes32"
        },
        {
          "indexed": true,
          "internalType": "bytes32",
          "name": "previousAdminRole",
          "type": "bytes32"
        },
        {
          "indexed": true,
          "internalType": "bytes32",
          "name": "newAdminRole",
          "type": "bytes32"
        }
      ],
      "name": "RoleAdminChanged",
      "type": "event"
    },
    {
      "anonymous": false,
      "inputs": [
        {
          "indexed": true,
          "internalType": "bytes32",
          "name": "role",
          "type": "bytes32"
        },
        {
          "indexed": true,
          "internalType": "address",
          "name": "account",
          "type": "address"
        },
        {
          "indexed": true,
          "internalType": "address",
          "name": "sender",
          "type": "address"
        }
      ],
      "name": "RoleGranted",
      "type": "event"
    },
    {
      "anonymous": false,
      "inputs": [
        {
          "indexed": true,
          "internalType": "bytes32",
          "name": "role",
          "type": "bytes32"
        },
        {
          "indexed": true,
          "internalType": "address",
          "name": "account",
          "type": "address"
        },
        {
          "indexed": true,
          "internalType": "address",
          "name": "sender",
          "type": "address"
        }
      ],
      "name": "RoleRevoked",
      "type": "event"
    },
    {
      "inputs": [],
      "name": "ADMIN_ROLE",
      "outputs": [
        {
          "internalType": "bytes32",
          "name": "",
          "type": "bytes32"
        }
      ],
      "stateMutability": "view",
      "type": "function"
    },
    {
      "inputs": [],
      "name": "BURNER_ROLE",
      "outputs": [
        {
          "internalType": "bytes32",
          "name": "",
          "type": "bytes32"
        }
      ],
      "stateMutability": "view",
      "type": "function"
    },
    {
      "inputs": [],
      "name": "DEFAULT_ADMIN_ROLE",
      "outputs": [
        {
          "internalType": "bytes32",
          "name": "",
          "type": "bytes32"
        }
      ],
      "stateMutability": "view",
      "type": "function"
    },
    {
      "inputs": [],
      "name": "MINTER_ROLE",
      "outputs": [
        {
          "internalType": "bytes32",
          "name": "",
          "type": "bytes32"
        }
      ],
      "stateMutability": "view",
      "type": "function"
    },
    {
      "inputs": [
        {
          "internalType": "address",
          "name": "account",
          "type": "address"
        }
      ],
      "name": "addAdmin",
      "outputs": [],
      "stateMutability": "nonpayable",
      "type": "function"
    },
    {
      "inputs": [
        {
          "internalType": "address",
          "name": "",
          "type": "address"
        }
      ],
      "name": "aliveImplementation",
      "outputs": [
        {
          "internalType": "bool",
          "name": "",
          "type": "bool"
        }
      ],
      "stateMutability": "view",
      "type": "function"
    },
    {
      "inputs": [],
      "name": "depositManager",
      "outputs": [
        {
          "internalType": "address",
          "name": "",
          "type": "address"
        }
      ],
      "stateMutability": "view",
      "type": "function"
    },
    {
      "inputs": [
        {
          "internalType": "bytes32",
          "name": "role",
          "type": "bytes32"
        }
      ],
      "name": "getRoleAdmin",
      "outputs": [
        {
          "internalType": "bytes32",
          "name": "",
          "type": "bytes32"
        }
      ],
      "stateMutability": "view",
      "type": "function"
    },
    {
      "inputs": [
        {
          "internalType": "bytes32",
          "name": "role",
          "type": "bytes32"
        },
        {
          "internalType": "uint256",
          "name": "index",
          "type": "uint256"
        }
      ],
      "name": "getRoleMember",
      "outputs": [
        {
          "internalType": "address",
          "name": "",
          "type": "address"
        }
      ],
      "stateMutability": "view",
      "type": "function"
    },
    {
      "inputs": [
        {
          "internalType": "bytes32",
          "name": "role",
          "type": "bytes32"
        }
      ],
      "name": "getRoleMemberCount",
      "outputs": [
        {
          "internalType": "uint256",
          "name": "",
          "type": "uint256"
        }
      ],
      "stateMutability": "view",
      "type": "function"
    },
    {
      "inputs": [
        {
          "internalType": "bytes32",
          "name": "role",
          "type": "bytes32"
        },
        {
          "internalType": "address",
          "name": "account",
          "type": "address"
        }
      ],
      "name": "grantRole",
      "outputs": [],
      "stateMutability": "nonpayable",
      "type": "function"
    },
    {
      "inputs": [
        {
          "internalType": "bytes32",
          "name": "role",
          "type": "bytes32"
        },
        {
          "internalType": "address",
          "name": "account",
          "type": "address"
        }
      ],
      "name": "hasRole",
      "outputs": [
        {
          "internalType": "bool",
          "name": "",
          "type": "bool"
        }
      ],
      "stateMutability": "view",
      "type": "function"
    },
    {
      "inputs": [
        {
          "internalType": "address",
          "name": "account",
          "type": "address"
        }
      ],
      "name": "isAdmin",
      "outputs": [
        {
          "internalType": "bool",
          "name": "",
          "type": "bool"
        }
      ],
      "stateMutability": "view",
      "type": "function"
    },
    {
      "inputs": [],
      "name": "pauseProxy",
      "outputs": [
        {
          "internalType": "bool",
          "name": "",
          "type": "bool"
        }
      ],
      "stateMutability": "view",
      "type": "function"
    },
    {
      "inputs": [
        {
          "internalType": "uint256",
          "name": "",
          "type": "uint256"
        }
      ],
      "name": "proxyImplementation",
      "outputs": [
        {
          "internalType": "address",
          "name": "",
          "type": "address"
        }
      ],
      "stateMutability": "view",
      "type": "function"
    },
    {
      "inputs": [
        {
          "internalType": "address",
          "name": "account",
          "type": "address"
        }
      ],
      "name": "removeAdmin",
      "outputs": [],
      "stateMutability": "nonpayable",
      "type": "function"
    },
    {
      "inputs": [
        {
          "internalType": "bytes32",
          "name": "role",
          "type": "bytes32"
        },
        {
          "internalType": "address",
          "name": "account",
          "type": "address"
        }
      ],
      "name": "renounceRole",
      "outputs": [],
      "stateMutability": "nonpayable",
      "type": "function"
    },
    {
      "inputs": [
        {
          "internalType": "bytes32",
          "name": "role",
          "type": "bytes32"
        },
        {
          "internalType": "address",
          "name": "account",
          "type": "address"
        }
      ],
      "name": "revokeRole",
      "outputs": [],
      "stateMutability": "nonpayable",
      "type": "function"
    },
    {
      "inputs": [],
      "name": "seigManager",
      "outputs": [
        {
          "internalType": "address",
          "name": "",
          "type": "address"
        }
      ],
      "stateMutability": "view",
      "type": "function"
    },
    {
      "inputs": [
        {
          "internalType": "bytes4",
          "name": "",
          "type": "bytes4"
        }
      ],
      "name": "selectorImplementation",
      "outputs": [
        {
          "internalType": "address",
          "name": "",
          "type": "address"
        }
      ],
      "stateMutability": "view",
      "type": "function"
    },
    {
      "inputs": [],
      "name": "stakeFactory",
      "outputs": [
        {
          "internalType": "contract IStakeFactory",
          "name": "",
          "type": "address"
        }
      ],
      "stateMutability": "view",
      "type": "function"
    },
    {
      "inputs": [],
      "name": "stakeRegistry",
      "outputs": [
        {
          "internalType": "contract IStakeRegistry",
          "name": "",
          "type": "address"
        }
      ],
      "stateMutability": "view",
      "type": "function"
    },
    {
      "inputs": [],
      "name": "stakeVaultFactory",
      "outputs": [
        {
          "internalType": "contract IStakeVaultFactory",
          "name": "",
          "type": "address"
        }
      ],
      "stateMutability": "view",
      "type": "function"
    },
    {
      "inputs": [],
      "name": "ton",
      "outputs": [
        {
          "internalType": "address",
          "name": "",
          "type": "address"
        }
      ],
      "stateMutability": "view",
      "type": "function"
    },
    {
      "inputs": [],
      "name": "tos",
      "outputs": [
        {
          "internalType": "address",
          "name": "",
          "type": "address"
        }
      ],
      "stateMutability": "view",
      "type": "function"
    },
    {
      "inputs": [
        {
          "internalType": "address",
          "name": "newAdmin",
          "type": "address"
        }
      ],
      "name": "transferAdmin",
      "outputs": [],
      "stateMutability": "nonpayable",
      "type": "function"
    },
    {
      "inputs": [],
      "name": "wton",
      "outputs": [
        {
          "internalType": "address",
          "name": "",
          "type": "address"
        }
      ],
      "stateMutability": "view",
      "type": "function"
    },
    {
      "inputs": [
        {
          "internalType": "address",
          "name": "token",
          "type": "address"
        },
        {
          "internalType": "address",
          "name": "target",
          "type": "address"
        }
      ],
      "name": "balanceOf",
      "outputs": [
        {
          "internalType": "uint256",
          "name": "",
          "type": "uint256"
        }
      ],
      "stateMutability": "view",
      "type": "function"
    },
    {
      "inputs": [
        {
          "internalType": "address",
          "name": "target",
          "type": "address"
        }
      ],
      "name": "balanceOfTOS",
      "outputs": [
        {
          "internalType": "uint256",
          "name": "",
          "type": "uint256"
        }
      ],
      "stateMutability": "view",
      "type": "function"
    },
    {
      "inputs": [
        {
          "internalType": "uint256",
          "name": "_phase",
          "type": "uint256"
        },
        {
          "internalType": "address",
          "name": "_logic",
          "type": "address"
        }
      ],
      "name": "setVaultLogicByPhase",
      "outputs": [],
      "stateMutability": "nonpayable",
      "type": "function"
    },
    {
      "inputs": [
        {
          "internalType": "uint256",
          "name": "_cap",
          "type": "uint256"
        },
        {
          "internalType": "uint256",
          "name": "_miningPerSecond",
          "type": "uint256"
        },
        {
          "internalType": "uint256",
          "name": "_phase",
          "type": "uint256"
        },
        {
          "internalType": "bytes32",
          "name": "_vaultName",
          "type": "bytes32"
        },
        {
          "internalType": "uint256",
          "name": "_stakeType",
          "type": "uint256"
        },
        {
          "internalType": "address[4]",
          "name": "_uniswapInfo",
          "type": "address[4]"
        },
        {
          "internalType": "string",
          "name": "_name",
          "type": "string"
        }
      ],
      "name": "createVault2",
      "outputs": [],
      "stateMutability": "nonpayable",
      "type": "function"
    },
    {
      "inputs": [
        {
          "internalType": "address",
          "name": "target",
          "type": "address"
        },
        {
          "internalType": "address[4]",
          "name": "uniswapInfo",
          "type": "address[4]"
        }
      ],
      "name": "setPool",
      "outputs": [],
      "stateMutability": "nonpayable",
      "type": "function"
    }
  ],
  "bytecode": "0x608060405234801561001057600080fd5b50611992806100206000396000f3fe608060405234801561001057600080fd5b50600436106101b05760003560e01c806375b238fc116100ef578063be4377e311610092578063be4377e314610494578063ca15c87314610588578063cc48b947146105a5578063d5391393146105ad578063d547741f146105b5578063dd196f18146105e1578063e2823698146105e9578063f7888aec14610615576101b0565b806375b238fc146103a957806389f395de146103b15780638d62d949146103b95780639010d07c146103c157806391d14854146103e457806396ec066a14610410578063a217fddf1461046f578063b911135f14610477576101b0565b8063550d01a311610157578063550d01a31461030f57806363a8fd8914610335578063683048351461033d5780636af8da27146103455780636c7ac9d81461034d5780636fb7f55814610355578063704802751461035d57806375829def14610383576101b0565b80631785f53c146101b5578063248a9ca3146101dd57806324d7806c1461020c578063282c51f3146102465780632f2ff15d1461024e57806336568abe1461027a5780633a54e07d146102a657806350d2a276146102cc575b600080fd5b6101db600480360360208110156101cb57600080fd5b50356001600160a01b0316610643565b005b6101fa600480360360208110156101f357600080fd5b50356106a2565b60408051918252519081900360200190f35b6102326004803603602081101561022257600080fd5b50356001600160a01b03166106b7565b604080519115158252519081900360200190f35b6101fa6106d7565b6101db6004803603604081101561026457600080fd5b50803590602001356001600160a01b03166106fb565b6101db6004803603604081101561029057600080fd5b50803590602001356001600160a01b0316610767565b6101fa600480360360208110156102bc57600080fd5b50356001600160a01b03166107c8565b6102f3600480360360208110156102e257600080fd5b50356001600160e01b03191661084b565b604080516001600160a01b039092168252519081900360200190f35b6102326004803603602081101561032557600080fd5b50356001600160a01b0316610866565b61023261087b565b6102f361088b565b6102f361089a565b6102f36108a9565b6102f36108b8565b6101db6004803603602081101561037357600080fd5b50356001600160a01b03166108c7565b6101db6004803603602081101561039957600080fd5b50356001600160a01b0316610923565b6101fa610a44565b6102f3610a56565b6102f3610a65565b6102f3600480360360408110156103d757600080fd5b5080359060200135610a74565b610232600480360360408110156103fa57600080fd5b50803590602001356001600160a01b0316610a93565b6101db600480360360a081101561042657600080fd5b6040805160808181019092526001600160a01b0384351693928301929160a08301919060208401906004908390839080828437600092019190915250919450610aab9350505050565b6101fa610bbf565b6102f36004803603602081101561048d57600080fd5b5035610bc4565b6101db60048036036101408110156104ab57600080fd5b60408051608081810183528435946020810135949381013593606082013593838301359391830192916101208301919060a084019060049083908390808284376000920191909152509194939260208101925035905064010000000081111561051357600080fd5b82018360208201111561052557600080fd5b8035906020019184600183028401116401000000008311171561054757600080fd5b91908080601f016020809104026020016040519081016040528093929190818152602001838380828437600092019190915250929550610bdf945050505050565b6101fa6004803603602081101561059e57600080fd5b50356112e5565b6102f36112fc565b6101fa61130b565b6101db600480360360408110156105cb57600080fd5b50803590602001356001600160a01b031661132f565b6102f3611388565b6101db600480360360408110156105ff57600080fd5b50803590602001356001600160a01b0316611397565b6101fa6004803603604081101561062b57600080fd5b506001600160a01b03813581169160200135166114e4565b61064c336106b7565b6106875760405162461bcd60e51b81526004018080602001828103825260228152602001806118746022913960400191505060405180910390fd5b61069f6000805160206118c683398151915282610767565b50565b6000908152600b602052604090206002015490565b60006106d16000805160206118c683398151915283610a93565b92915050565b7f9667e80708b6eeeb0053fa0cca44e028ff548e2a9f029edfeac87c118b08b7c881565b6000828152600b602052604090206002015461071e90610719611566565b610a93565b6107595760405162461bcd60e51b815260040180806020018281038252602f815260200180611845602f913960400191505060405180910390fd5b610763828261156a565b5050565b61076f611566565b6001600160a01b0316816001600160a01b0316146107be5760405162461bcd60e51b815260040180806020018281038252602f81526020018061192e602f913960400191505060405180910390fd5b61076382826115d3565b600354604080516370a0823160e01b81526001600160a01b038481166004830152915160009392909216916370a0823191602480820192602092909190829003018186803b15801561081957600080fd5b505afa15801561082d573d6000803e3d6000fd5b505050506040513d602081101561084357600080fd5b505192915050565b600a602052600090815260409020546001600160a01b031681565b60096020526000908152604090205460ff1681565b600754600160a01b900460ff1681565b6000546001600160a01b031681565b6002546001600160a01b031681565b6006546001600160a01b031681565b6007546001600160a01b031681565b6108d0336106b7565b61090b5760405162461bcd60e51b81526004018080602001828103825260228152602001806118746022913960400191505060405180910390fd5b61069f6000805160206118c6833981519152826106fb565b61092c336106b7565b6109675760405162461bcd60e51b81526004018080602001828103825260228152602001806118746022913960400191505060405180910390fd5b6001600160a01b0381166109bd576040805162461bcd60e51b815260206004820152601860248201527741636365737369626c653a207a65726f206164647265737360401b604482015290519081900360640190fd5b336001600160a01b0382161415610a14576040805162461bcd60e51b815260206004820152601660248201527520b1b1b2b9b9b4b136329d1039b0b6b29030b236b4b760511b604482015290519081900360640190fd5b610a2c6000805160206118c6833981519152826106fb565b61069f6000805160206118c683398151915233610767565b6000805160206118c683398151915281565b6003546001600160a01b031681565b6005546001600160a01b031681565b6000828152600b60205260408120610a8c908361163c565b9392505050565b6000828152600b60205260408120610a8c9083611648565b610ab4336106b7565b610aef5760405162461bcd60e51b81526004018080602001828103825260228152602001806118746022913960400191505060405180910390fd5b816001600160a01b038116610b39576040805162461bcd60e51b8152602060048201526019602482015260008051602061190e833981519152604482015290519081900360640190fd5b604051631dcfedf360e21b81526001600160a01b0384169063773fb7cc9084906004018082608080838360005b83811015610b7e578181015183820152602001610b66565b50505050905001915050600060405180830381600087803b158015610ba257600080fd5b505af1158015610bb6573d6000803e3d6000fd5b50505050505050565b600081565b6008602052600090815260409020546001600160a01b031681565b610be8336106b7565b610c235760405162461bcd60e51b81526004018080602001828103825260228152602001806118746022913960400191505060405180910390fd5b6002546001600160a01b031680610c6f576040805162461bcd60e51b8152602060048201526019602482015260008051602061190e833981519152604482015290519081900360640190fd5b85600214610cae5760405162461bcd60e51b81526004018080602001828103825260288152602001806118e66028913960400191505060405180910390fd5b6000849050600089905060008990506000600260009054906101000a90046001600160a01b03166001600160a01b031663835645318b6040518060400160405280600360009054906101000a90046001600160a01b03166001600160a01b03166001600160a01b03168152602001600160009054906101000a90046001600160a01b03166001600160a01b03166001600160a01b03168152506040518060600160405280898152602001888152602001878152508a306040518663ffffffff1660e01b81526004018086815260200185600260200280838360005b83811015610da1578181015183820152602001610d89565b5050505090500184600360200280838360005b83811015610dcc578181015183820152602001610db4565b5050505090500180602001836001600160a01b03168152602001828103825284818151815260200191508051906020019080838360005b83811015610e1b578181015183820152602001610e03565b50505050905090810190601f168015610e485780820380516001836020036101000a031916815260200191505b509650505050505050602060405180830381600087803b158015610e6b57600080fd5b505af1158015610e7f573d6000803e3d6000fd5b505050506040513d6020811015610e9557600080fd5b505190506001600160a01b038116610ef4576040805162461bcd60e51b815260206004820152601b60248201527f5374616b65314c6f6769633a207661756c7432206973207a65726f0000000000604482015290519081900360640190fd5b60008054604080516377e4fba360e11b81526001600160a01b038581166004830152602482018f9052604482018e905291518e948e94939093169263efc9f746926064808201939182900301818387803b158015610f5157600080fd5b505af1158015610f65573d6000803e3d6000fd5b50508a51604080516001600160a01b039283168152602081018a9052815192881694507f04773e0024ac6f28f0c1dfcd9e35cc6f68bd0a325e87c6bbf0d48dfe8f06a86493508290030190a260408051608080820183526003546001600160a01b039081168352600060208085018290528883168587015260608086018390526001548354885192830189528d83529282018c9052818801849052965163115c289b60e01b8152600481018e8152969793969385169563115c289b958f958a959091169392909160249091019085908083838d5b83811015611051578181015183820152602001611039565b50505050905001836001600160a01b0316815260200182600360200280838360005b8381101561108b578181015183820152602001611073565b50505050905001945050505050602060405180830381600087803b1580156110b257600080fd5b505af11580156110c6573d6000803e3d6000fd5b505050506040513d60208110156110dc57600080fd5b505190506001600160a01b03811661113b576040805162461bcd60e51b815260206004820152601f60248201527f5374616b65314c6f6769633a207661756c7432206465706c6f79206661696c00604482015290519081900360640190fd5b604051631dcfedf360e21b81528b906001600160a01b0383169063773fb7cc9083906004018082608080838360005b8381101561118257818101518382015260200161116a565b50505050905001915050600060405180830381600087803b1580156111a657600080fd5b505af11580156111ba573d6000803e3d6000fd5b50505050856001600160a01b03166323471d18836040518263ffffffff1660e01b815260040180826001600160a01b03168152602001915050600060405180830381600087803b15801561120d57600080fd5b505af1158015611221573d6000803e3d6000fd5b50506000805460408051638dea8fd760e01b81526001600160a01b038c8116600483015288811660248301529151919092169450638dea8fd793506044808301939282900301818387803b15801561127857600080fd5b505af115801561128c573d6000803e3d6000fd5b50506040805188815290516001600160a01b0380871694508a1692507f526d0cccf75b345efc1481500917c66f5aa09e2da8b3201acd7d76da7c75def99181900360200190a35050505050505050505050505050505050565b6000818152600b602052604081206106d19061165d565b6004546001600160a01b031681565b7ff0887ba65ee2024ea881d91b74c2450ef19e1557f03bed3ea9f16b037cbe2dc981565b6000828152600b602052604090206002015461134d90610719611566565b6107be5760405162461bcd60e51b81526004018080602001828103825260308152602001806118966030913960400191505060405180910390fd5b6001546001600160a01b031681565b6113a0336106b7565b6113db5760405162461bcd60e51b81526004018080602001828103825260228152602001806118746022913960400191505060405180910390fd5b6002546001600160a01b031680611427576040805162461bcd60e51b8152602060048201526019602482015260008051602061190e833981519152604482015290519081900360640190fd5b816001600160a01b038116611471576040805162461bcd60e51b8152602060048201526019602482015260008051602061190e833981519152604482015290519081900360640190fd5b60025460408051631c5046d360e31b8152600481018790526001600160a01b0386811660248301529151919092169163e282369891604480830192600092919082900301818387803b1580156114c657600080fd5b505af11580156114da573d6000803e3d6000fd5b5050505050505050565b6000826001600160a01b03166370a08231836040518263ffffffff1660e01b815260040180826001600160a01b0316815260200191505060206040518083038186803b15801561153357600080fd5b505afa158015611547573d6000803e3d6000fd5b505050506040513d602081101561155d57600080fd5b50519392505050565b3390565b6000828152600b602052604090206115829082611668565b156107635761158f611566565b6001600160a01b0316816001600160a01b0316837f2f8788117e7eff1d82e926ec794901d17c78024a50270940304540a733656f0d60405160405180910390a45050565b6000828152600b602052604090206115eb908261167d565b15610763576115f8611566565b6001600160a01b0316816001600160a01b0316837ff6391f5c32d9c69d2a47ea670b442974b53935d1edc7fd64eb21e047a839171b60405160405180910390a45050565b6000610a8c8383611692565b6000610a8c836001600160a01b0384166116f6565b60006106d18261170e565b6000610a8c836001600160a01b038416611712565b6000610a8c836001600160a01b03841661175c565b815460009082106116d45760405162461bcd60e51b81526004018080602001828103825260228152602001806118236022913960400191505060405180910390fd5b8260000182815481106116e357fe5b9060005260206000200154905092915050565b60009081526001919091016020526040902054151590565b5490565b600061171e83836116f6565b611754575081546001818101845560008481526020808220909301849055845484825282860190935260409020919091556106d1565b5060006106d1565b60008181526001830160205260408120548015611818578354600019808301919081019060009087908390811061178f57fe5b90600052602060002001549050808760000184815481106117ac57fe5b6000918252602080832090910192909255828152600189810190925260409020908401905586548790806117dc57fe5b600190038181906000526020600020016000905590558660010160008781526020019081526020016000206000905560019450505050506106d1565b60009150506106d156fe456e756d657261626c655365743a20696e646578206f7574206f6620626f756e6473416363657373436f6e74726f6c3a2073656e646572206d75737420626520616e2061646d696e20746f206772616e7441636365737369626c653a2043616c6c6572206973206e6f7420616e2061646d696e416363657373436f6e74726f6c3a2073656e646572206d75737420626520616e2061646d696e20746f207265766f6b65df8b4c520ffe197c5343c6f5aec59570151ef9a492f2c624fd45ddde6135ec425374616b65314c6f6769633a20756e737570706f7274656420706861736520696e207661756c74325374616b65324c6f6769633a207a65726f206164647265737300000000000000416363657373436f6e74726f6c3a2063616e206f6e6c792072656e6f756e636520726f6c657320666f722073656c66a2646970667358221220f3e9bb1584ac4dc573d111fc8ce6370e805421b7db476a6b6d65486cd15a8c6164736f6c63430007060033",
  "immutableReferences": {},
  "source": "// SPDX-License-Identifier: MIT\npragma solidity ^0.7.6;\n\nimport \"../interfaces/IStake2Logic.sol\";\nimport {IERC20} from \"@openzeppelin/contracts/token/ERC20/IERC20.sol\";\nimport {IStake2Vault} from \"../interfaces/IStake2Vault.sol\";\nimport \"../common/AccessibleCommon.sol\";\nimport \"./StakeProxyStorage.sol\";\n\n// import \"hardhat/console.sol\";\n\ninterface IIStakeUniswapV3 {\n    function setPool(address[4] memory uniswapInfo) external;\n}\n\n/// @title The logic of TOS Plaform\n/// @notice Admin can createVault, createStakeContract.\n/// User can excute the tokamak staking function of each contract through this logic.\n\ncontract Stake2Logic is StakeProxyStorage, AccessibleCommon, IStake2Logic {\n    // modifier nonZero(address _addr) {\n    //     require(_addr != address(0), \"Stake1Logic:zero address\");\n    //     _;\n    // }\n    modifier nonZeroAddress(address _addr) {\n        require(_addr != address(0), \"Stake2Logic: zero address\");\n        _;\n    }\n\n    constructor() {}\n\n    function balanceOf(address token, address target)\n        external\n        view\n        returns (uint256)\n    {\n        return IERC20(token).balanceOf(target);\n    }\n\n    function balanceOfTOS(address target) external view returns (uint256) {\n        return IERC20(tos).balanceOf(target);\n    }\n\n    /// @dev Set stakeVaultLogic address by _phase\n    /// @param _phase the stake type\n    /// @param _logic the vault logic address\n    function setVaultLogicByPhase(uint256 _phase, address _logic)\n        external\n        override\n        onlyOwner\n        nonZeroAddress(address(stakeVaultFactory))\n        nonZeroAddress(_logic)\n    {\n        stakeVaultFactory.setVaultLogicByPhase(_phase, _logic);\n    }\n\n    /// @dev create vault2\n    /// @param _cap  allocated reward amount\n    /// @param _miningPerSecond  the mining per second\n    /// @param _phase  phase of TOS platform\n    /// @param _vaultName  vault's name's hash\n    /// @param _stakeType  it's 2, StakeUniswapV3 staking type\n    /// @param _uniswapInfo  npm, poolFactory, token0, token1\n    /// @param _name   name\n    function createVault2(\n        uint256 _cap,\n        uint256 _miningPerSecond,\n        uint256 _phase,\n        bytes32 _vaultName,\n        uint256 _stakeType,\n        address[4] memory _uniswapInfo,\n        string memory _name\n    )\n        external\n        override\n        onlyOwner\n        nonZeroAddress(address(stakeVaultFactory))\n    // nonZeroAddress(_uniswapInfo[0])\n    // nonZeroAddress(_uniswapInfo[1])\n    // nonZeroAddress(_uniswapInfo[2])\n    // nonZeroAddress(_uniswapInfo[3])\n    {\n        require(_phase == 2, \"Stake1Logic: unsupported phase in vault2\");\n\n        uint256 stakeType = _stakeType;\n        uint256 cap = _cap;\n        uint256 miningPerSecond = _miningPerSecond;\n\n        // console.log(\"tos %s\", tos );\n        // console.log(\"stakeFactory %s\", address(stakeFactory) );\n        // console.log(\"miningPerSecond %d , cap %d, stakeType %d \", miningPerSecond, cap , stakeType);\n        // console.log(\"tos %s\", tos );\n\n        address vault =\n            stakeVaultFactory.create2(\n                _phase,\n                [tos, address(stakeFactory)],\n                [stakeType, cap, miningPerSecond],\n                _name,\n                address(this)\n            );\n\n        require(vault != address(0), \"Stake1Logic: vault2 is zero\");\n\n        uint256 phase = _phase;\n        bytes32 vaultName = _vaultName;\n\n        stakeRegistry.addVault(vault, phase, vaultName);\n        emit CreatedVault2(vault, _uniswapInfo[0], cap);\n\n        address[4] memory _addr = [tos, address(0), vault, address(0)];\n        address _contract =\n            stakeFactory.create(\n                stakeType,\n                _addr,\n                address(stakeRegistry),\n                [cap, miningPerSecond, 0]\n            );\n        require(_contract != address(0), \"Stake1Logic: vault2 deploy fail\");\n\n        address[4] memory uniswapInfo = _uniswapInfo;\n        IIStakeUniswapV3(_contract).setPool(uniswapInfo);\n        IStake2Vault(vault).setStakeAddress(_contract);\n        stakeRegistry.addStakeContract(vault, _contract);\n\n        emit CreatedStakeContract2(vault, _contract, phase);\n    }\n\n    /// @dev set pool information\n    /// @param uniswapInfo [NonfungiblePositionManager,UniswapV3Factory,token0,token1]\n    function setPool(address target, address[4] memory uniswapInfo)\n        external\n        override\n        onlyOwner\n        nonZeroAddress(target)\n    {\n        IIStakeUniswapV3(target).setPool(uniswapInfo);\n    }\n}\n",
  "sourcePath": "/Users/zena/ico2.0/ico20-contracts/contracts/stake/Stake2Logic.sol",
  "compiler": {
    "name": "solc",
    "version": "0.7.6+commit.7338295f.Emscripten.clang"
  },
  "schemaVersion": "3.3.4",
  "updatedAt": "2021-07-28T11:36:55.546Z",
  "devdoc": {
    "kind": "dev",
    "methods": {
      "addAdmin(address)": {
        "details": "add admin",
        "params": {
          "account": "address to add"
        }
      },
      "createVault2(uint256,uint256,uint256,bytes32,uint256,address[4],string)": {
        "details": "create vault2",
        "params": {
          "_cap": "allocated reward amount",
          "_miningPerSecond": "the mining per second",
          "_name": "name",
          "_phase": "phase of TOS platform",
          "_stakeType": "it's 2, StakeUniswapV3 staking type",
          "_uniswapInfo": "npm, poolFactory, token0, token1",
          "_vaultName": "vault's name's hash"
        }
      },
      "getRoleAdmin(bytes32)": {
        "details": "Returns the admin role that controls `role`. See {grantRole} and {revokeRole}. To change a role's admin, use {_setRoleAdmin}."
      },
      "getRoleMember(bytes32,uint256)": {
        "details": "Returns one of the accounts that have `role`. `index` must be a value between 0 and {getRoleMemberCount}, non-inclusive. Role bearers are not sorted in any particular way, and their ordering may change at any point. WARNING: When using {getRoleMember} and {getRoleMemberCount}, make sure you perform all queries on the same block. See the following https://forum.openzeppelin.com/t/iterating-over-elements-on-enumerableset-in-openzeppelin-contracts/2296[forum post] for more information."
      },
      "getRoleMemberCount(bytes32)": {
        "details": "Returns the number of accounts that have `role`. Can be used together with {getRoleMember} to enumerate all bearers of a role."
      },
      "grantRole(bytes32,address)": {
        "details": "Grants `role` to `account`. If `account` had not been already granted `role`, emits a {RoleGranted} event. Requirements: - the caller must have ``role``'s admin role."
      },
      "hasRole(bytes32,address)": {
        "details": "Returns `true` if `account` has been granted `role`."
      },
      "isAdmin(address)": {
        "details": "whether admin",
        "params": {
          "account": "address to check"
        }
      },
      "removeAdmin(address)": {
        "details": "remove admin",
        "params": {
          "account": "address to remove"
        }
      },
      "renounceRole(bytes32,address)": {
        "details": "Revokes `role` from the calling account. Roles are often managed via {grantRole} and {revokeRole}: this function's purpose is to provide a mechanism for accounts to lose their privileges if they are compromised (such as when a trusted device is misplaced). If the calling account had been granted `role`, emits a {RoleRevoked} event. Requirements: - the caller must be `account`."
      },
      "revokeRole(bytes32,address)": {
        "details": "Revokes `role` from `account`. If `account` had been granted `role`, emits a {RoleRevoked} event. Requirements: - the caller must have ``role``'s admin role."
      },
      "setPool(address,address[4])": {
        "details": "set pool information",
        "params": {
          "uniswapInfo": "[NonfungiblePositionManager,UniswapV3Factory,token0,token1]"
        }
      },
      "setVaultLogicByPhase(uint256,address)": {
        "details": "Set stakeVaultLogic address by _phase",
        "params": {
          "_logic": "the vault logic address",
          "_phase": "the stake type"
        }
      },
      "transferAdmin(address)": {
        "details": "transfer admin",
        "params": {
          "newAdmin": "new admin address"
        }
      }
    },
    "title": "The logic of TOS Plaform",
    "version": 1
  },
  "userdoc": {
    "kind": "user",
    "methods": {},
    "notice": "Admin can createVault, createStakeContract. User can excute the tokamak staking function of each contract through this logic.",
    "version": 1
  }
}