{
  "contractName": "Stake2Logic",
  "abi": [
    {
      "inputs": [],
      "stateMutability": "nonpayable",
      "type": "constructor"
    },
    {
      "anonymous": false,
      "inputs": [
        {
          "indexed": true,
          "internalType": "address",
          "name": "vault",
          "type": "address"
        },
        {
          "indexed": true,
          "internalType": "address",
          "name": "stakeContract",
          "type": "address"
        },
        {
          "indexed": false,
          "internalType": "uint256",
          "name": "phase",
          "type": "uint256"
        }
      ],
      "name": "CreatedStakeContract2",
      "type": "event"
    },
    {
      "anonymous": false,
      "inputs": [
        {
          "indexed": true,
          "internalType": "address",
          "name": "vault",
          "type": "address"
        },
        {
          "indexed": false,
          "internalType": "address",
          "name": "paytoken",
          "type": "address"
        },
        {
          "indexed": false,
          "internalType": "uint256",
          "name": "cap",
          "type": "uint256"
        }
      ],
      "name": "CreatedVault2",
      "type": "event"
    },
    {
      "anonymous": false,
      "inputs": [
        {
          "indexed": true,
          "internalType": "bytes32",
          "name": "role",
          "type": "bytes32"
        },
        {
          "indexed": true,
          "internalType": "bytes32",
          "name": "previousAdminRole",
          "type": "bytes32"
        },
        {
          "indexed": true,
          "internalType": "bytes32",
          "name": "newAdminRole",
          "type": "bytes32"
        }
      ],
      "name": "RoleAdminChanged",
      "type": "event"
    },
    {
      "anonymous": false,
      "inputs": [
        {
          "indexed": true,
          "internalType": "bytes32",
          "name": "role",
          "type": "bytes32"
        },
        {
          "indexed": true,
          "internalType": "address",
          "name": "account",
          "type": "address"
        },
        {
          "indexed": true,
          "internalType": "address",
          "name": "sender",
          "type": "address"
        }
      ],
      "name": "RoleGranted",
      "type": "event"
    },
    {
      "anonymous": false,
      "inputs": [
        {
          "indexed": true,
          "internalType": "bytes32",
          "name": "role",
          "type": "bytes32"
        },
        {
          "indexed": true,
          "internalType": "address",
          "name": "account",
          "type": "address"
        },
        {
          "indexed": true,
          "internalType": "address",
          "name": "sender",
          "type": "address"
        }
      ],
      "name": "RoleRevoked",
      "type": "event"
    },
    {
      "inputs": [],
      "name": "ADMIN_ROLE",
      "outputs": [
        {
          "internalType": "bytes32",
          "name": "",
          "type": "bytes32"
        }
      ],
      "stateMutability": "view",
      "type": "function"
    },
    {
      "inputs": [],
      "name": "BURNER_ROLE",
      "outputs": [
        {
          "internalType": "bytes32",
          "name": "",
          "type": "bytes32"
        }
      ],
      "stateMutability": "view",
      "type": "function"
    },
    {
      "inputs": [],
      "name": "DEFAULT_ADMIN_ROLE",
      "outputs": [
        {
          "internalType": "bytes32",
          "name": "",
          "type": "bytes32"
        }
      ],
      "stateMutability": "view",
      "type": "function"
    },
    {
      "inputs": [],
      "name": "MINTER_ROLE",
      "outputs": [
        {
          "internalType": "bytes32",
          "name": "",
          "type": "bytes32"
        }
      ],
      "stateMutability": "view",
      "type": "function"
    },
    {
      "inputs": [
        {
          "internalType": "address",
          "name": "account",
          "type": "address"
        }
      ],
      "name": "addAdmin",
      "outputs": [],
      "stateMutability": "nonpayable",
      "type": "function"
    },
    {
      "inputs": [
        {
          "internalType": "address",
          "name": "",
          "type": "address"
        }
      ],
      "name": "aliveImplementation",
      "outputs": [
        {
          "internalType": "bool",
          "name": "",
          "type": "bool"
        }
      ],
      "stateMutability": "view",
      "type": "function"
    },
    {
      "inputs": [],
      "name": "depositManager",
      "outputs": [
        {
          "internalType": "address",
          "name": "",
          "type": "address"
        }
      ],
      "stateMutability": "view",
      "type": "function"
    },
    {
      "inputs": [
        {
          "internalType": "bytes32",
          "name": "role",
          "type": "bytes32"
        }
      ],
      "name": "getRoleAdmin",
      "outputs": [
        {
          "internalType": "bytes32",
          "name": "",
          "type": "bytes32"
        }
      ],
      "stateMutability": "view",
      "type": "function"
    },
    {
      "inputs": [
        {
          "internalType": "bytes32",
          "name": "role",
          "type": "bytes32"
        },
        {
          "internalType": "uint256",
          "name": "index",
          "type": "uint256"
        }
      ],
      "name": "getRoleMember",
      "outputs": [
        {
          "internalType": "address",
          "name": "",
          "type": "address"
        }
      ],
      "stateMutability": "view",
      "type": "function"
    },
    {
      "inputs": [
        {
          "internalType": "bytes32",
          "name": "role",
          "type": "bytes32"
        }
      ],
      "name": "getRoleMemberCount",
      "outputs": [
        {
          "internalType": "uint256",
          "name": "",
          "type": "uint256"
        }
      ],
      "stateMutability": "view",
      "type": "function"
    },
    {
      "inputs": [
        {
          "internalType": "bytes32",
          "name": "role",
          "type": "bytes32"
        },
        {
          "internalType": "address",
          "name": "account",
          "type": "address"
        }
      ],
      "name": "grantRole",
      "outputs": [],
      "stateMutability": "nonpayable",
      "type": "function"
    },
    {
      "inputs": [
        {
          "internalType": "bytes32",
          "name": "role",
          "type": "bytes32"
        },
        {
          "internalType": "address",
          "name": "account",
          "type": "address"
        }
      ],
      "name": "hasRole",
      "outputs": [
        {
          "internalType": "bool",
          "name": "",
          "type": "bool"
        }
      ],
      "stateMutability": "view",
      "type": "function"
    },
    {
      "inputs": [
        {
          "internalType": "address",
          "name": "account",
          "type": "address"
        }
      ],
      "name": "isAdmin",
      "outputs": [
        {
          "internalType": "bool",
          "name": "",
          "type": "bool"
        }
      ],
      "stateMutability": "view",
      "type": "function"
    },
    {
      "inputs": [],
      "name": "pauseProxy",
      "outputs": [
        {
          "internalType": "bool",
          "name": "",
          "type": "bool"
        }
      ],
      "stateMutability": "view",
      "type": "function"
    },
    {
      "inputs": [
        {
          "internalType": "uint256",
          "name": "",
          "type": "uint256"
        }
      ],
      "name": "proxyImplementation",
      "outputs": [
        {
          "internalType": "address",
          "name": "",
          "type": "address"
        }
      ],
      "stateMutability": "view",
      "type": "function"
    },
    {
      "inputs": [
        {
          "internalType": "address",
          "name": "account",
          "type": "address"
        }
      ],
      "name": "removeAdmin",
      "outputs": [],
      "stateMutability": "nonpayable",
      "type": "function"
    },
    {
      "inputs": [
        {
          "internalType": "bytes32",
          "name": "role",
          "type": "bytes32"
        },
        {
          "internalType": "address",
          "name": "account",
          "type": "address"
        }
      ],
      "name": "renounceRole",
      "outputs": [],
      "stateMutability": "nonpayable",
      "type": "function"
    },
    {
      "inputs": [
        {
          "internalType": "bytes32",
          "name": "role",
          "type": "bytes32"
        },
        {
          "internalType": "address",
          "name": "account",
          "type": "address"
        }
      ],
      "name": "revokeRole",
      "outputs": [],
      "stateMutability": "nonpayable",
      "type": "function"
    },
    {
      "inputs": [],
      "name": "seigManager",
      "outputs": [
        {
          "internalType": "address",
          "name": "",
          "type": "address"
        }
      ],
      "stateMutability": "view",
      "type": "function"
    },
    {
      "inputs": [
        {
          "internalType": "bytes4",
          "name": "",
          "type": "bytes4"
        }
      ],
      "name": "selectorImplementation",
      "outputs": [
        {
          "internalType": "address",
          "name": "",
          "type": "address"
        }
      ],
      "stateMutability": "view",
      "type": "function"
    },
    {
      "inputs": [],
      "name": "stakeFactory",
      "outputs": [
        {
          "internalType": "contract IStakeFactory",
          "name": "",
          "type": "address"
        }
      ],
      "stateMutability": "view",
      "type": "function"
    },
    {
      "inputs": [],
      "name": "stakeRegistry",
      "outputs": [
        {
          "internalType": "contract IStakeRegistry",
          "name": "",
          "type": "address"
        }
      ],
      "stateMutability": "view",
      "type": "function"
    },
    {
      "inputs": [],
      "name": "stakeVaultFactory",
      "outputs": [
        {
          "internalType": "contract IStakeVaultFactory",
          "name": "",
          "type": "address"
        }
      ],
      "stateMutability": "view",
      "type": "function"
    },
    {
      "inputs": [],
      "name": "ton",
      "outputs": [
        {
          "internalType": "address",
          "name": "",
          "type": "address"
        }
      ],
      "stateMutability": "view",
      "type": "function"
    },
    {
      "inputs": [],
      "name": "tos",
      "outputs": [
        {
          "internalType": "address",
          "name": "",
          "type": "address"
        }
      ],
      "stateMutability": "view",
      "type": "function"
    },
    {
      "inputs": [
        {
          "internalType": "address",
          "name": "newAdmin",
          "type": "address"
        }
      ],
      "name": "transferAdmin",
      "outputs": [],
      "stateMutability": "nonpayable",
      "type": "function"
    },
    {
      "inputs": [],
      "name": "wton",
      "outputs": [
        {
          "internalType": "address",
          "name": "",
          "type": "address"
        }
      ],
      "stateMutability": "view",
      "type": "function"
    },
    {
      "inputs": [
        {
          "internalType": "uint256",
          "name": "_phase",
          "type": "uint256"
        },
        {
          "internalType": "address",
          "name": "_logic",
          "type": "address"
        }
      ],
      "name": "setVaultLogicByPhase",
      "outputs": [],
      "stateMutability": "nonpayable",
      "type": "function"
    },
    {
      "inputs": [
        {
          "internalType": "uint256",
          "name": "_cap",
          "type": "uint256"
        },
        {
          "internalType": "uint256",
          "name": "_miningPerSecond",
          "type": "uint256"
        },
        {
          "internalType": "uint256",
          "name": "_phase",
          "type": "uint256"
        },
        {
          "internalType": "bytes32",
          "name": "_vaultName",
          "type": "bytes32"
        },
        {
          "internalType": "uint256",
          "name": "_stakeType",
          "type": "uint256"
        },
        {
          "internalType": "address[4]",
          "name": "_uniswapInfo",
          "type": "address[4]"
        },
        {
          "internalType": "string",
          "name": "_name",
          "type": "string"
        }
      ],
      "name": "createVault2",
      "outputs": [],
      "stateMutability": "nonpayable",
      "type": "function"
    },
    {
      "inputs": [
        {
          "internalType": "address",
          "name": "target",
          "type": "address"
        },
        {
          "internalType": "address[4]",
          "name": "uniswapInfo",
          "type": "address[4]"
        }
      ],
      "name": "setPool",
      "outputs": [],
      "stateMutability": "nonpayable",
      "type": "function"
    },
    {
      "inputs": [
        {
          "internalType": "address",
          "name": "target",
          "type": "address"
        },
        {
          "internalType": "uint256",
          "name": "miningIntervalSeconds",
          "type": "uint256"
        }
      ],
      "name": "setMiningIntervalSeconds",
      "outputs": [],
      "stateMutability": "nonpayable",
      "type": "function"
    },
    {
      "inputs": [
        {
          "internalType": "address",
          "name": "target",
          "type": "address"
        }
      ],
      "name": "resetCoinageTime",
      "outputs": [],
      "stateMutability": "nonpayable",
      "type": "function"
    },
    {
      "inputs": [
        {
          "internalType": "address",
          "name": "vault",
          "type": "address"
        },
        {
          "internalType": "uint256",
          "name": "startTime",
          "type": "uint256"
        }
      ],
      "name": "setStartTimeOfVault2",
      "outputs": [],
      "stateMutability": "nonpayable",
      "type": "function"
    }
  ],
  "bytecode": "0x608060405234801561001057600080fd5b50611c7c806100206000396000f3fe608060405234801561001057600080fd5b50600436106101bb5760003560e01c806375b238fc116100fa578063b911135f1161009d578063b911135f146104b4578063bcb92308146104d1578063be4377e3146104f7578063ca15c873146105eb578063cc48b94714610608578063d539139314610610578063d547741f14610618578063dd196f1814610644578063e28236981461064c576101bb565b806375b238fc146103ba57806389f395de146103c25780638d62d949146103ca5780639010d07c146103d257806391d14854146103f557806396ec066a14610421578063a217fddf14610480578063a574d1b714610488576101bb565b8063550d01a311610162578063550d01a31461032057806363a8fd8914610346578063683048351461034e5780636af8da27146103565780636c7ac9d81461035e5780636fb7f55814610366578063704802751461036e57806375829def14610394576101bb565b80631785f53c146101c0578063248a9ca3146101e857806324d7806c14610217578063282c51f3146102515780632f2ff15d1461025957806336568abe146102855780634acb0e8d146102b157806350d2a276146102dd575b600080fd5b6101e6600480360360208110156101d657600080fd5b50356001600160a01b0316610678565b005b610205600480360360208110156101fe57600080fd5b50356106d7565b60408051918252519081900360200190f35b61023d6004803603602081101561022d57600080fd5b50356001600160a01b03166106ec565b604080519115158252519081900360200190f35b61020561070c565b6101e66004803603604081101561026f57600080fd5b50803590602001356001600160a01b0316610730565b6101e66004803603604081101561029b57600080fd5b50803590602001356001600160a01b031661079c565b6101e6600480360360408110156102c757600080fd5b506001600160a01b0381351690602001356107fd565b610304600480360360208110156102f357600080fd5b50356001600160e01b0319166109fb565b604080516001600160a01b039092168252519081900360200190f35b61023d6004803603602081101561033657600080fd5b50356001600160a01b0316610a16565b61023d610a2b565b610304610a3b565b610304610a4a565b610304610a59565b610304610a68565b6101e66004803603602081101561038457600080fd5b50356001600160a01b0316610a77565b6101e6600480360360208110156103aa57600080fd5b50356001600160a01b0316610ad3565b610205610bf4565b610304610c06565b610304610c15565b610304600480360360408110156103e857600080fd5b5080359060200135610c24565b61023d6004803603604081101561040b57600080fd5b50803590602001356001600160a01b0316610c43565b6101e6600480360360a081101561043757600080fd5b6040805160808181019092526001600160a01b0384351693928301929160a08301919060208401906004908390839080828437600092019190915250919450610c5b9350505050565b610205610d6f565b6101e66004803603604081101561049e57600080fd5b506001600160a01b038135169060200135610d74565b610304600480360360208110156104ca57600080fd5b5035610e48565b6101e6600480360360208110156104e757600080fd5b50356001600160a01b0316610e63565b6101e6600480360361014081101561050e57600080fd5b60408051608081810183528435946020810135949381013593606082013593838301359391830192916101208301919060a084019060049083908390808284376000920191909152509194939260208101925035905064010000000081111561057657600080fd5b82018360208201111561058857600080fd5b803590602001918460018302840111640100000000831117156105aa57600080fd5b91908080601f016020809104026020016040519081016040528093929190818152602001838380828437600092019190915250929550610f48945050505050565b6102056004803603602081101561060157600080fd5b503561164e565b610304611665565b610205611674565b6101e66004803603604081101561062e57600080fd5b50803590602001356001600160a01b0316611698565b6103046116f1565b6101e66004803603604081101561066257600080fd5b50803590602001356001600160a01b0316611700565b610681336106ec565b6106bc5760405162461bcd60e51b8152600401808060200182810382526022815260200180611b3d6022913960400191505060405180910390fd5b6106d4600080516020611bb08339815191528261079c565b50565b6000908152600b602052604090206002015490565b6000610706600080516020611bb083398151915283610c43565b92915050565b7f9667e80708b6eeeb0053fa0cca44e028ff548e2a9f029edfeac87c118b08b7c881565b6000828152600b60205260409020600201546107539061074e61182f565b610c43565b61078e5760405162461bcd60e51b815260040180806020018281038252602f815260200180611b0e602f913960400191505060405180910390fd5b6107988282611833565b5050565b6107a461182f565b6001600160a01b0316816001600160a01b0316146107f35760405162461bcd60e51b815260040180806020018281038252602f815260200180611c18602f913960400191505060405180910390fd5b610798828261189c565b610806336106ec565b6108415760405162461bcd60e51b8152600401808060200182810382526022815260200180611b3d6022913960400191505060405180910390fd5b816001600160a01b03811661088b576040805162461bcd60e51b81526020600482015260196024820152600080516020611bf8833981519152604482015290519081900360640190fd5b6000836001600160a01b031663851073676040518163ffffffff1660e01b815260040160206040518083038186803b1580156108c657600080fd5b505afa1580156108da573d6000803e3d6000fd5b505050506040513d60208110156108f057600080fd5b505190506001600160a01b0381166109395760405162461bcd60e51b8152600401808060200182810382526021815260200180611b5f6021913960400191505060405180910390fd5b836001600160a01b031663fb9af8b8846040518263ffffffff1660e01b815260040180828152602001915050600060405180830381600087803b15801561097f57600080fd5b505af1158015610993573d6000803e3d6000fd5b50505050806001600160a01b031663525f8a5c846040518263ffffffff1660e01b815260040180828152602001915050600060405180830381600087803b1580156109dd57600080fd5b505af11580156109f1573d6000803e3d6000fd5b5050505050505050565b600a602052600090815260409020546001600160a01b031681565b60096020526000908152604090205460ff1681565b600754600160a01b900460ff1681565b6000546001600160a01b031681565b6002546001600160a01b031681565b6006546001600160a01b031681565b6007546001600160a01b031681565b610a80336106ec565b610abb5760405162461bcd60e51b8152600401808060200182810382526022815260200180611b3d6022913960400191505060405180910390fd5b6106d4600080516020611bb083398151915282610730565b610adc336106ec565b610b175760405162461bcd60e51b8152600401808060200182810382526022815260200180611b3d6022913960400191505060405180910390fd5b6001600160a01b038116610b6d576040805162461bcd60e51b815260206004820152601860248201527741636365737369626c653a207a65726f206164647265737360401b604482015290519081900360640190fd5b336001600160a01b0382161415610bc4576040805162461bcd60e51b815260206004820152601660248201527520b1b1b2b9b9b4b136329d1039b0b6b29030b236b4b760511b604482015290519081900360640190fd5b610bdc600080516020611bb083398151915282610730565b6106d4600080516020611bb08339815191523361079c565b600080516020611bb083398151915281565b6003546001600160a01b031681565b6005546001600160a01b031681565b6000828152600b60205260408120610c3c9083611905565b9392505050565b6000828152600b60205260408120610c3c9083611911565b610c64336106ec565b610c9f5760405162461bcd60e51b8152600401808060200182810382526022815260200180611b3d6022913960400191505060405180910390fd5b816001600160a01b038116610ce9576040805162461bcd60e51b81526020600482015260196024820152600080516020611bf8833981519152604482015290519081900360640190fd5b604051631dcfedf360e21b81526001600160a01b0384169063773fb7cc9084906004018082608080838360005b83811015610d2e578181015183820152602001610d16565b50505050905001915050600060405180830381600087803b158015610d5257600080fd5b505af1158015610d66573d6000803e3d6000fd5b50505050505050565b600081565b610d7d336106ec565b610db85760405162461bcd60e51b8152600401808060200182810382526022815260200180611b3d6022913960400191505060405180910390fd5b816001600160a01b038116610e02576040805162461bcd60e51b81526020600482015260196024820152600080516020611bf8833981519152604482015290519081900360640190fd5b826001600160a01b031663b97db3dc836040518263ffffffff1660e01b815260040180828152602001915050600060405180830381600087803b158015610d5257600080fd5b6008602052600090815260409020546001600160a01b031681565b610e6c336106ec565b610ea75760405162461bcd60e51b8152600401808060200182810382526022815260200180611b3d6022913960400191505060405180910390fd5b806001600160a01b038116610ef1576040805162461bcd60e51b81526020600482015260196024820152600080516020611bf8833981519152604482015290519081900360640190fd5b816001600160a01b031663dee712a36040518163ffffffff1660e01b8152600401600060405180830381600087803b158015610f2c57600080fd5b505af1158015610f40573d6000803e3d6000fd5b505050505050565b610f51336106ec565b610f8c5760405162461bcd60e51b8152600401808060200182810382526022815260200180611b3d6022913960400191505060405180910390fd5b6002546001600160a01b031680610fd8576040805162461bcd60e51b81526020600482015260196024820152600080516020611bf8833981519152604482015290519081900360640190fd5b856002146110175760405162461bcd60e51b8152600401808060200182810382526028815260200180611bd06028913960400191505060405180910390fd5b6000849050600089905060008990506000600260009054906101000a90046001600160a01b03166001600160a01b031663835645318b6040518060400160405280600360009054906101000a90046001600160a01b03166001600160a01b03166001600160a01b03168152602001600160009054906101000a90046001600160a01b03166001600160a01b03166001600160a01b03168152506040518060600160405280898152602001888152602001878152508a306040518663ffffffff1660e01b81526004018086815260200185600260200280838360005b8381101561110a5781810151838201526020016110f2565b5050505090500184600360200280838360005b8381101561113557818101518382015260200161111d565b5050505090500180602001836001600160a01b03168152602001828103825284818151815260200191508051906020019080838360005b8381101561118457818101518382015260200161116c565b50505050905090810190601f1680156111b15780820380516001836020036101000a031916815260200191505b509650505050505050602060405180830381600087803b1580156111d457600080fd5b505af11580156111e8573d6000803e3d6000fd5b505050506040513d60208110156111fe57600080fd5b505190506001600160a01b03811661125d576040805162461bcd60e51b815260206004820152601b60248201527f5374616b65314c6f6769633a207661756c7432206973207a65726f0000000000604482015290519081900360640190fd5b60008054604080516377e4fba360e11b81526001600160a01b038581166004830152602482018f9052604482018e905291518e948e94939093169263efc9f746926064808201939182900301818387803b1580156112ba57600080fd5b505af11580156112ce573d6000803e3d6000fd5b50508a51604080516001600160a01b039283168152602081018a9052815192881694507f04773e0024ac6f28f0c1dfcd9e35cc6f68bd0a325e87c6bbf0d48dfe8f06a86493508290030190a260408051608080820183526003546001600160a01b039081168352600060208085018290528883168587015260608086018390526001548354885192830189528d83529282018c9052818801849052965163115c289b60e01b8152600481018e8152969793969385169563115c289b958f958a959091169392909160249091019085908083838d5b838110156113ba5781810151838201526020016113a2565b50505050905001836001600160a01b0316815260200182600360200280838360005b838110156113f45781810151838201526020016113dc565b50505050905001945050505050602060405180830381600087803b15801561141b57600080fd5b505af115801561142f573d6000803e3d6000fd5b505050506040513d602081101561144557600080fd5b505190506001600160a01b0381166114a4576040805162461bcd60e51b815260206004820152601f60248201527f5374616b65314c6f6769633a207661756c7432206465706c6f79206661696c00604482015290519081900360640190fd5b604051631dcfedf360e21b81528b906001600160a01b0383169063773fb7cc9083906004018082608080838360005b838110156114eb5781810151838201526020016114d3565b50505050905001915050600060405180830381600087803b15801561150f57600080fd5b505af1158015611523573d6000803e3d6000fd5b50505050856001600160a01b03166323471d18836040518263ffffffff1660e01b815260040180826001600160a01b03168152602001915050600060405180830381600087803b15801561157657600080fd5b505af115801561158a573d6000803e3d6000fd5b50506000805460408051638dea8fd760e01b81526001600160a01b038c8116600483015288811660248301529151919092169450638dea8fd793506044808301939282900301818387803b1580156115e157600080fd5b505af11580156115f5573d6000803e3d6000fd5b50506040805188815290516001600160a01b0380871694508a1692507f526d0cccf75b345efc1481500917c66f5aa09e2da8b3201acd7d76da7c75def99181900360200190a35050505050505050505050505050505050565b6000818152600b6020526040812061070690611926565b6004546001600160a01b031681565b7ff0887ba65ee2024ea881d91b74c2450ef19e1557f03bed3ea9f16b037cbe2dc981565b6000828152600b60205260409020600201546116b69061074e61182f565b6107f35760405162461bcd60e51b8152600401808060200182810382526030815260200180611b806030913960400191505060405180910390fd5b6001546001600160a01b031681565b611709336106ec565b6117445760405162461bcd60e51b8152600401808060200182810382526022815260200180611b3d6022913960400191505060405180910390fd5b6002546001600160a01b031680611790576040805162461bcd60e51b81526020600482015260196024820152600080516020611bf8833981519152604482015290519081900360640190fd5b816001600160a01b0381166117da576040805162461bcd60e51b81526020600482015260196024820152600080516020611bf8833981519152604482015290519081900360640190fd5b60025460408051631c5046d360e31b8152600481018790526001600160a01b0386811660248301529151919092169163e282369891604480830192600092919082900301818387803b1580156109dd57600080fd5b3390565b6000828152600b6020526040902061184b9082611931565b156107985761185861182f565b6001600160a01b0316816001600160a01b0316837f2f8788117e7eff1d82e926ec794901d17c78024a50270940304540a733656f0d60405160405180910390a45050565b6000828152600b602052604090206118b49082611946565b15610798576118c161182f565b6001600160a01b0316816001600160a01b0316837ff6391f5c32d9c69d2a47ea670b442974b53935d1edc7fd64eb21e047a839171b60405160405180910390a45050565b6000610c3c838361195b565b6000610c3c836001600160a01b0384166119bf565b6000610706826119d7565b6000610c3c836001600160a01b0384166119db565b6000610c3c836001600160a01b038416611a25565b8154600090821061199d5760405162461bcd60e51b8152600401808060200182810382526022815260200180611aec6022913960400191505060405180910390fd5b8260000182815481106119ac57fe5b9060005260206000200154905092915050565b60009081526001919091016020526040902054151590565b5490565b60006119e783836119bf565b611a1d57508154600181810184556000848152602080822090930184905584548482528286019093526040902091909155610706565b506000610706565b60008181526001830160205260408120548015611ae15783546000198083019190810190600090879083908110611a5857fe5b9060005260206000200154905080876000018481548110611a7557fe5b600091825260208083209091019290925582815260018981019092526040902090840190558654879080611aa557fe5b60019003818190600052602060002001600090559055866001016000878152602001908152602001600020600090556001945050505050610706565b600091505061070656fe456e756d657261626c655365743a20696e646578206f7574206f6620626f756e6473416363657373436f6e74726f6c3a2073656e646572206d75737420626520616e2061646d696e20746f206772616e7441636365737369626c653a2043616c6c6572206973206e6f7420616e2061646d696e5374616b65324c6f6769633a207374616b6541646472657373206973207a65726f416363657373436f6e74726f6c3a2073656e646572206d75737420626520616e2061646d696e20746f207265766f6b65df8b4c520ffe197c5343c6f5aec59570151ef9a492f2c624fd45ddde6135ec425374616b65314c6f6769633a20756e737570706f7274656420706861736520696e207661756c74325374616b65324c6f6769633a207a65726f206164647265737300000000000000416363657373436f6e74726f6c3a2063616e206f6e6c792072656e6f756e636520726f6c657320666f722073656c66a2646970667358221220002452292895f62d59317d7adef32d900b3b3ccc862f57b5bcadef0e98aa0c8164736f6c63430007060033",
  "immutableReferences": {},
  "source": "// SPDX-License-Identifier: MIT\npragma solidity ^0.7.6;\n\nimport \"../interfaces/IStake2Logic.sol\";\nimport {IERC20} from \"@openzeppelin/contracts/token/ERC20/IERC20.sol\";\nimport {IStake2Vault} from \"../interfaces/IStake2Vault.sol\";\nimport \"../common/AccessibleCommon.sol\";\nimport \"./StakeProxyStorage.sol\";\n\n// import \"hardhat/console.sol\";\n\ninterface IIStakeUniswapV3 {\n    function setPool(address[4] memory uniswapInfo) external;\n\n    function setSaleStartTime(uint256 _saleStartTime) external;\n\n    function setMiningIntervalSeconds(uint256 _intervalSeconds) external;\n\n    function resetCoinageTime() external;\n}\n\ninterface IIIStake2Vault {\n    function stakeAddress() external view returns (address);\n}\n\n/// @title The logic of TOS Plaform\n/// @notice Admin can createVault, createStakeContract.\n/// User can excute the tokamak staking function of each contract through this logic.\n\ncontract Stake2Logic is StakeProxyStorage, AccessibleCommon, IStake2Logic {\n    // modifier nonZero(address _addr) {\n    //     require(_addr != address(0), \"Stake1Logic:zero address\");\n    //     _;\n    // }\n    modifier nonZeroAddress(address _addr) {\n        require(_addr != address(0), \"Stake2Logic: zero address\");\n        _;\n    }\n\n    constructor() {}\n\n    /*\n    function balanceOf(address token, address target)\n        external\n        view\n        returns (uint256)\n    {\n        return IERC20(token).balanceOf(target);\n    }\n\n    function balanceOfTOS(address target) external view returns (uint256) {\n        return IERC20(tos).balanceOf(target);\n    }\n    */\n    /// @dev Set stakeVaultLogic address by _phase\n    /// @param _phase the stake type\n    /// @param _logic the vault logic address\n    function setVaultLogicByPhase(uint256 _phase, address _logic)\n        external\n        override\n        onlyOwner\n        nonZeroAddress(address(stakeVaultFactory))\n        nonZeroAddress(_logic)\n    {\n        stakeVaultFactory.setVaultLogicByPhase(_phase, _logic);\n    }\n\n    /// @dev create vault2\n    /// @param _cap  allocated reward amount\n    /// @param _miningPerSecond  the mining per second\n    /// @param _phase  phase of TOS platform\n    /// @param _vaultName  vault's name's hash\n    /// @param _stakeType  it's 2, StakeUniswapV3 staking type\n    /// @param _uniswapInfo  npm, poolFactory, token0, token1\n    /// @param _name   name\n    function createVault2(\n        uint256 _cap,\n        uint256 _miningPerSecond,\n        uint256 _phase,\n        bytes32 _vaultName,\n        uint256 _stakeType,\n        address[4] memory _uniswapInfo,\n        string memory _name\n    )\n        external\n        override\n        onlyOwner\n        nonZeroAddress(address(stakeVaultFactory))\n    // nonZeroAddress(_uniswapInfo[0])\n    // nonZeroAddress(_uniswapInfo[1])\n    // nonZeroAddress(_uniswapInfo[2])\n    // nonZeroAddress(_uniswapInfo[3])\n    {\n        require(_phase == 2, \"Stake1Logic: unsupported phase in vault2\");\n\n        uint256 stakeType = _stakeType;\n        uint256 cap = _cap;\n        uint256 miningPerSecond = _miningPerSecond;\n\n        // console.log(\"tos %s\", tos );\n        // console.log(\"stakeFactory %s\", address(stakeFactory) );\n        // console.log(\"miningPerSecond %d , cap %d, stakeType %d \", miningPerSecond, cap , stakeType);\n        // console.log(\"tos %s\", tos );\n\n        address vault =\n            stakeVaultFactory.create2(\n                _phase,\n                [tos, address(stakeFactory)],\n                [stakeType, cap, miningPerSecond],\n                _name,\n                address(this)\n            );\n\n        require(vault != address(0), \"Stake1Logic: vault2 is zero\");\n\n        uint256 phase = _phase;\n        bytes32 vaultName = _vaultName;\n\n        stakeRegistry.addVault(vault, phase, vaultName);\n        emit CreatedVault2(vault, _uniswapInfo[0], cap);\n\n        address[4] memory _addr = [tos, address(0), vault, address(0)];\n        address _contract =\n            stakeFactory.create(\n                stakeType,\n                _addr,\n                address(stakeRegistry),\n                [cap, miningPerSecond, 0]\n            );\n        require(_contract != address(0), \"Stake1Logic: vault2 deploy fail\");\n\n        address[4] memory uniswapInfo = _uniswapInfo;\n        IIStakeUniswapV3(_contract).setPool(uniswapInfo);\n        IStake2Vault(vault).setStakeAddress(_contract);\n        stakeRegistry.addStakeContract(vault, _contract);\n\n        emit CreatedStakeContract2(vault, _contract, phase);\n    }\n\n    /// @dev set pool information\n    /// @param uniswapInfo [NonfungiblePositionManager,UniswapV3Factory,token0,token1]\n    function setPool(address target, address[4] memory uniswapInfo)\n        external\n        override\n        onlyOwner\n        nonZeroAddress(target)\n    {\n        IIStakeUniswapV3(target).setPool(uniswapInfo);\n    }\n\n    function setMiningIntervalSeconds(\n        address target,\n        uint256 miningIntervalSeconds\n    ) external override onlyOwner nonZeroAddress(target) {\n        IIStakeUniswapV3(target).setMiningIntervalSeconds(\n            miningIntervalSeconds\n        );\n    }\n\n    function resetCoinageTime(address target)\n        external\n        override\n        onlyOwner\n        nonZeroAddress(target)\n    {\n        IIStakeUniswapV3(target).resetCoinageTime();\n    }\n\n    function setStartTimeOfVault2(address vault, uint256 startTime)\n        external\n        override\n        onlyOwner\n        nonZeroAddress(vault)\n    {\n        address stakeAddress = IIIStake2Vault(vault).stakeAddress();\n        require(\n            stakeAddress != address(0),\n            \"Stake2Logic: stakeAddress is zero\"\n        );\n\n        IStake2Vault(vault).setMiningStartTime(startTime);\n        IIStakeUniswapV3(stakeAddress).setSaleStartTime(startTime);\n    }\n}\n",
  "sourcePath": "/Users/zena/ico2.0/ico20-contracts/contracts/stake/Stake2Logic.sol",
  "compiler": {
    "name": "solc",
    "version": "0.7.6+commit.7338295f.Emscripten.clang"
  },
  "schemaVersion": "3.3.4",
  "updatedAt": "2021-08-01T15:27:40.525Z",
  "devdoc": {
    "kind": "dev",
    "methods": {
      "addAdmin(address)": {
        "details": "add admin",
        "params": {
          "account": "address to add"
        }
      },
      "createVault2(uint256,uint256,uint256,bytes32,uint256,address[4],string)": {
        "details": "create vault2",
        "params": {
          "_cap": "allocated reward amount",
          "_miningPerSecond": "the mining per second",
          "_name": "name",
          "_phase": "phase of TOS platform",
          "_stakeType": "it's 2, StakeUniswapV3 staking type",
          "_uniswapInfo": "npm, poolFactory, token0, token1",
          "_vaultName": "vault's name's hash"
        }
      },
      "getRoleAdmin(bytes32)": {
        "details": "Returns the admin role that controls `role`. See {grantRole} and {revokeRole}. To change a role's admin, use {_setRoleAdmin}."
      },
      "getRoleMember(bytes32,uint256)": {
        "details": "Returns one of the accounts that have `role`. `index` must be a value between 0 and {getRoleMemberCount}, non-inclusive. Role bearers are not sorted in any particular way, and their ordering may change at any point. WARNING: When using {getRoleMember} and {getRoleMemberCount}, make sure you perform all queries on the same block. See the following https://forum.openzeppelin.com/t/iterating-over-elements-on-enumerableset-in-openzeppelin-contracts/2296[forum post] for more information."
      },
      "getRoleMemberCount(bytes32)": {
        "details": "Returns the number of accounts that have `role`. Can be used together with {getRoleMember} to enumerate all bearers of a role."
      },
      "grantRole(bytes32,address)": {
        "details": "Grants `role` to `account`. If `account` had not been already granted `role`, emits a {RoleGranted} event. Requirements: - the caller must have ``role``'s admin role."
      },
      "hasRole(bytes32,address)": {
        "details": "Returns `true` if `account` has been granted `role`."
      },
      "isAdmin(address)": {
        "details": "whether admin",
        "params": {
          "account": "address to check"
        }
      },
      "removeAdmin(address)": {
        "details": "remove admin",
        "params": {
          "account": "address to remove"
        }
      },
      "renounceRole(bytes32,address)": {
        "details": "Revokes `role` from the calling account. Roles are often managed via {grantRole} and {revokeRole}: this function's purpose is to provide a mechanism for accounts to lose their privileges if they are compromised (such as when a trusted device is misplaced). If the calling account had been granted `role`, emits a {RoleRevoked} event. Requirements: - the caller must be `account`."
      },
      "revokeRole(bytes32,address)": {
        "details": "Revokes `role` from `account`. If `account` had been granted `role`, emits a {RoleRevoked} event. Requirements: - the caller must have ``role``'s admin role."
      },
      "setPool(address,address[4])": {
        "details": "set pool information",
        "params": {
          "uniswapInfo": "[NonfungiblePositionManager,UniswapV3Factory,token0,token1]"
        }
      },
      "setVaultLogicByPhase(uint256,address)": {
        "details": "Set stakeVaultLogic address by _phase",
        "params": {
          "_logic": "the vault logic address",
          "_phase": "the stake type"
        }
      },
      "transferAdmin(address)": {
        "details": "transfer admin",
        "params": {
          "newAdmin": "new admin address"
        }
      }
    },
    "title": "The logic of TOS Plaform",
    "version": 1
  },
  "userdoc": {
    "kind": "user",
    "methods": {},
    "notice": "Admin can createVault, createStakeContract. User can excute the tokamak staking function of each contract through this logic.",
    "version": 1
  }
}