{
  "contractName": "Stake2VaultProxy",
  "abi": [
    {
      "inputs": [
        {
          "internalType": "address",
          "name": "impl",
          "type": "address"
        }
      ],
      "stateMutability": "nonpayable",
      "type": "constructor"
    },
    {
      "anonymous": false,
      "inputs": [
        {
          "indexed": true,
          "internalType": "bytes32",
          "name": "role",
          "type": "bytes32"
        },
        {
          "indexed": true,
          "internalType": "bytes32",
          "name": "previousAdminRole",
          "type": "bytes32"
        },
        {
          "indexed": true,
          "internalType": "bytes32",
          "name": "newAdminRole",
          "type": "bytes32"
        }
      ],
      "name": "RoleAdminChanged",
      "type": "event"
    },
    {
      "anonymous": false,
      "inputs": [
        {
          "indexed": true,
          "internalType": "bytes32",
          "name": "role",
          "type": "bytes32"
        },
        {
          "indexed": true,
          "internalType": "address",
          "name": "account",
          "type": "address"
        },
        {
          "indexed": true,
          "internalType": "address",
          "name": "sender",
          "type": "address"
        }
      ],
      "name": "RoleGranted",
      "type": "event"
    },
    {
      "anonymous": false,
      "inputs": [
        {
          "indexed": true,
          "internalType": "bytes32",
          "name": "role",
          "type": "bytes32"
        },
        {
          "indexed": true,
          "internalType": "address",
          "name": "account",
          "type": "address"
        },
        {
          "indexed": true,
          "internalType": "address",
          "name": "sender",
          "type": "address"
        }
      ],
      "name": "RoleRevoked",
      "type": "event"
    },
    {
      "anonymous": false,
      "inputs": [
        {
          "indexed": true,
          "internalType": "address",
          "name": "implementation",
          "type": "address"
        }
      ],
      "name": "Upgraded",
      "type": "event"
    },
    {
      "stateMutability": "payable",
      "type": "fallback"
    },
    {
      "inputs": [],
      "name": "ADMIN_ROLE",
      "outputs": [
        {
          "internalType": "bytes32",
          "name": "",
          "type": "bytes32"
        }
      ],
      "stateMutability": "view",
      "type": "function"
    },
    {
      "inputs": [],
      "name": "BURNER_ROLE",
      "outputs": [
        {
          "internalType": "bytes32",
          "name": "",
          "type": "bytes32"
        }
      ],
      "stateMutability": "view",
      "type": "function"
    },
    {
      "inputs": [],
      "name": "DEFAULT_ADMIN_ROLE",
      "outputs": [
        {
          "internalType": "bytes32",
          "name": "",
          "type": "bytes32"
        }
      ],
      "stateMutability": "view",
      "type": "function"
    },
    {
      "inputs": [],
      "name": "MINTER_ROLE",
      "outputs": [
        {
          "internalType": "bytes32",
          "name": "",
          "type": "bytes32"
        }
      ],
      "stateMutability": "view",
      "type": "function"
    },
    {
      "inputs": [
        {
          "internalType": "address",
          "name": "account",
          "type": "address"
        }
      ],
      "name": "addAdmin",
      "outputs": [],
      "stateMutability": "nonpayable",
      "type": "function"
    },
    {
      "inputs": [],
      "name": "cap",
      "outputs": [
        {
          "internalType": "uint256",
          "name": "",
          "type": "uint256"
        }
      ],
      "stateMutability": "view",
      "type": "function"
    },
    {
      "inputs": [
        {
          "internalType": "bytes32",
          "name": "role",
          "type": "bytes32"
        }
      ],
      "name": "getRoleAdmin",
      "outputs": [
        {
          "internalType": "bytes32",
          "name": "",
          "type": "bytes32"
        }
      ],
      "stateMutability": "view",
      "type": "function"
    },
    {
      "inputs": [
        {
          "internalType": "bytes32",
          "name": "role",
          "type": "bytes32"
        },
        {
          "internalType": "uint256",
          "name": "index",
          "type": "uint256"
        }
      ],
      "name": "getRoleMember",
      "outputs": [
        {
          "internalType": "address",
          "name": "",
          "type": "address"
        }
      ],
      "stateMutability": "view",
      "type": "function"
    },
    {
      "inputs": [
        {
          "internalType": "bytes32",
          "name": "role",
          "type": "bytes32"
        }
      ],
      "name": "getRoleMemberCount",
      "outputs": [
        {
          "internalType": "uint256",
          "name": "",
          "type": "uint256"
        }
      ],
      "stateMutability": "view",
      "type": "function"
    },
    {
      "inputs": [
        {
          "internalType": "bytes32",
          "name": "role",
          "type": "bytes32"
        },
        {
          "internalType": "address",
          "name": "account",
          "type": "address"
        }
      ],
      "name": "grantRole",
      "outputs": [],
      "stateMutability": "nonpayable",
      "type": "function"
    },
    {
      "inputs": [
        {
          "internalType": "bytes32",
          "name": "role",
          "type": "bytes32"
        },
        {
          "internalType": "address",
          "name": "account",
          "type": "address"
        }
      ],
      "name": "hasRole",
      "outputs": [
        {
          "internalType": "bool",
          "name": "",
          "type": "bool"
        }
      ],
      "stateMutability": "view",
      "type": "function"
    },
    {
      "inputs": [
        {
          "internalType": "address",
          "name": "account",
          "type": "address"
        }
      ],
      "name": "isAdmin",
      "outputs": [
        {
          "internalType": "bool",
          "name": "",
          "type": "bool"
        }
      ],
      "stateMutability": "view",
      "type": "function"
    },
    {
      "inputs": [],
      "name": "migratedL2",
      "outputs": [
        {
          "internalType": "bool",
          "name": "",
          "type": "bool"
        }
      ],
      "stateMutability": "view",
      "type": "function"
    },
    {
      "inputs": [],
      "name": "miningPerSecond",
      "outputs": [
        {
          "internalType": "uint256",
          "name": "",
          "type": "uint256"
        }
      ],
      "stateMutability": "view",
      "type": "function"
    },
    {
      "inputs": [],
      "name": "name",
      "outputs": [
        {
          "internalType": "string",
          "name": "",
          "type": "string"
        }
      ],
      "stateMutability": "view",
      "type": "function"
    },
    {
      "inputs": [],
      "name": "pauseProxy",
      "outputs": [
        {
          "internalType": "bool",
          "name": "",
          "type": "bool"
        }
      ],
      "stateMutability": "view",
      "type": "function"
    },
    {
      "inputs": [
        {
          "internalType": "address",
          "name": "account",
          "type": "address"
        }
      ],
      "name": "removeAdmin",
      "outputs": [],
      "stateMutability": "nonpayable",
      "type": "function"
    },
    {
      "inputs": [
        {
          "internalType": "bytes32",
          "name": "role",
          "type": "bytes32"
        },
        {
          "internalType": "address",
          "name": "account",
          "type": "address"
        }
      ],
      "name": "renounceRole",
      "outputs": [],
      "stateMutability": "nonpayable",
      "type": "function"
    },
    {
      "inputs": [
        {
          "internalType": "bytes32",
          "name": "role",
          "type": "bytes32"
        },
        {
          "internalType": "address",
          "name": "account",
          "type": "address"
        }
      ],
      "name": "revokeRole",
      "outputs": [],
      "stateMutability": "nonpayable",
      "type": "function"
    },
    {
      "inputs": [],
      "name": "stakeAddress",
      "outputs": [
        {
          "internalType": "address",
          "name": "",
          "type": "address"
        }
      ],
      "stateMutability": "view",
      "type": "function"
    },
    {
      "inputs": [],
      "name": "stakeType",
      "outputs": [
        {
          "internalType": "uint256",
          "name": "",
          "type": "uint256"
        }
      ],
      "stateMutability": "view",
      "type": "function"
    },
    {
      "inputs": [],
      "name": "tos",
      "outputs": [
        {
          "internalType": "address",
          "name": "",
          "type": "address"
        }
      ],
      "stateMutability": "view",
      "type": "function"
    },
    {
      "inputs": [
        {
          "internalType": "address",
          "name": "newAdmin",
          "type": "address"
        }
      ],
      "name": "transferAdmin",
      "outputs": [],
      "stateMutability": "nonpayable",
      "type": "function"
    },
    {
      "stateMutability": "payable",
      "type": "receive"
    },
    {
      "inputs": [
        {
          "internalType": "bool",
          "name": "_pause",
          "type": "bool"
        }
      ],
      "name": "setProxyPause",
      "outputs": [],
      "stateMutability": "nonpayable",
      "type": "function"
    },
    {
      "inputs": [
        {
          "internalType": "address",
          "name": "impl",
          "type": "address"
        }
      ],
      "name": "upgradeTo",
      "outputs": [],
      "stateMutability": "nonpayable",
      "type": "function"
    },
    {
      "inputs": [],
      "name": "implementation",
      "outputs": [
        {
          "internalType": "address",
          "name": "",
          "type": "address"
        }
      ],
      "stateMutability": "view",
      "type": "function"
    },
    {
      "inputs": [
        {
          "internalType": "address",
          "name": "_tos",
          "type": "address"
        },
        {
          "internalType": "address",
          "name": "_stakefactory",
          "type": "address"
        },
        {
          "internalType": "uint256",
          "name": "_stakeType",
          "type": "uint256"
        },
        {
          "internalType": "uint256",
          "name": "_cap",
          "type": "uint256"
        },
        {
          "internalType": "uint256",
          "name": "_miningPerSecond",
          "type": "uint256"
        },
        {
          "internalType": "string",
          "name": "_name",
          "type": "string"
        }
      ],
      "name": "initialize",
      "outputs": [],
      "stateMutability": "nonpayable",
      "type": "function"
    }
  ],
  "bytecode": "0x60806040523480156200001157600080fd5b506040516200188d3803806200188d833981810160405260208110156200003757600080fd5b50516001600160a01b03811662000095576040805162461bcd60e51b815260206004820152601f60248201527f5374616b65325661756c7450726f78793a206c6f676963206973207a65726f00604482015290519081900360640190fd5b620000a081620000f8565b620000bb60008051602062001827833981519152806200016f565b620000d66000805160206200182783398151915233620001c1565b620000f16000805160206200182783398151915230620001c1565b50620002db565b6200010e81620001d160201b62000f911760201c565b6200014b5760405162461bcd60e51b8152600401808060200182810382526046815260200180620018476046913960600191505060405180910390fd5b7f360894a13ba1a3210667c828492db98dca3e2076cc3735a920a3ca505d382bbc55565b600082815260208190526040808220600201549051839285917fbd79b86ffe0ab8e8776151514217cd7cacd52c909f66475c3af44e129f0b00ff9190a460009182526020829052604090912060020155565b620001cd8282620001d7565b5050565b3b151590565b600082815260208181526040909120620001fc91839062000f9762000250821b17901c565b15620001cd576200020c62000270565b6001600160a01b0316816001600160a01b0316837f2f8788117e7eff1d82e926ec794901d17c78024a50270940304540a733656f0d60405160405180910390a45050565b600062000267836001600160a01b03841662000274565b90505b92915050565b3390565b6000620002828383620002c3565b620002ba575081546001818101845560008481526020808220909301849055845484825282860190935260409020919091556200026a565b5060006200026a565b60009081526001919091016020526040902054151590565b61153c80620002eb6000396000f3fe6080604052600436106101705760003560e01c806375829def116100cc578063a1f5f50e1161007a578063a1f5f50e14610567578063a217fddf1461057c578063b90a762a14610591578063b97af0db14610670578063ca15c87314610685578063d5391393146106af578063d547741f146106c4576101b9565b806375829def1461046057806375b238fc146104935780637cb00d25146104a857806385107367146104d457806389f395de146104e95780639010d07c146104fe57806391d148541461052e576101b9565b8063355274ea11610129578063355274ea1461035157806336568abe146103665780633659cfe61461039f5780634ce77abe146103d25780635c60da1b146103e757806363a8fd8914610418578063704802751461042d576101b9565b806306fdde03146101c35780631785f53c1461024d578063248a9ca31461028057806324d7806c146102bc578063282c51f3146103035780632f2ff15d14610318576101b9565b366101b9576040805162461bcd60e51b815260206004820152601460248201527331b0b73737ba103932b1b2b4bb329022ba3432b960611b604482015290519081900360640190fd5b6101c16106fd565b005b3480156101cf57600080fd5b506101d8610783565b6040805160208082528351818301528351919283929083019185019080838360005b838110156102125781810151838201526020016101fa565b50505050905090810190601f16801561023f5780820380516001836020036101000a031916815260200191505b509250505060405180910390f35b34801561025957600080fd5b506101c16004803603602081101561027057600080fd5b50356001600160a01b031661080e565b34801561028c57600080fd5b506102aa600480360360208110156102a357600080fd5b503561086d565b60408051918252519081900360200190f35b3480156102c857600080fd5b506102ef600480360360208110156102df57600080fd5b50356001600160a01b0316610882565b604080519115158252519081900360200190f35b34801561030f57600080fd5b506102aa6108a2565b34801561032457600080fd5b506101c16004803603604081101561033b57600080fd5b50803590602001356001600160a01b03166108c6565b34801561035d57600080fd5b506102aa610932565b34801561037257600080fd5b506101c16004803603604081101561038957600080fd5b50803590602001356001600160a01b0316610938565b3480156103ab57600080fd5b506101c1600480360360208110156103c257600080fd5b50356001600160a01b0316610999565b3480156103de57600080fd5b506102aa610adf565b3480156103f357600080fd5b506103fc610ae5565b604080516001600160a01b039092168252519081900360200190f35b34801561042457600080fd5b506102ef610af4565b34801561043957600080fd5b506101c16004803603602081101561045057600080fd5b50356001600160a01b0316610afd565b34801561046c57600080fd5b506101c16004803603602081101561048357600080fd5b50356001600160a01b0316610b59565b34801561049f57600080fd5b506102aa610c7a565b3480156104b457600080fd5b506101c1600480360360208110156104cb57600080fd5b50351515610c8c565b3480156104e057600080fd5b506103fc610ce3565b3480156104f557600080fd5b506103fc610cf2565b34801561050a57600080fd5b506103fc6004803603604081101561052157600080fd5b5080359060200135610d01565b34801561053a57600080fd5b506102ef6004803603604081101561055157600080fd5b50803590602001356001600160a01b0316610d20565b34801561057357600080fd5b506102ef610d38565b34801561058857600080fd5b506102aa610d46565b34801561059d57600080fd5b506101c1600480360360c08110156105b457600080fd5b6001600160a01b0382358116926020810135909116916040820135916060810135916080820135919081019060c0810160a08201356401000000008111156105fb57600080fd5b82018360208201111561060d57600080fd5b8035906020019184600183028401116401000000008311171561062f57600080fd5b91908080601f016020809104026020016040519081016040528093929190818152602001838380828437600092019190915250929550610d4b945050505050565b34801561067c57600080fd5b506102aa610ef7565b34801561069157600080fd5b506102aa600480360360208110156106a857600080fd5b5035610efd565b3480156106bb57600080fd5b506102aa610f14565b3480156106d057600080fd5b506101c1600480360360408110156106e757600080fd5b50803590602001356001600160a01b0316610f38565b6000610707610fac565b90506001600160a01b03811615801590610724575060085460ff16155b61075f5760405162461bcd60e51b81526004018080602001828103825260288152602001806114256028913960400191505060405180910390fd5b3660008037600080366000845af43d6000803e80801561077e573d6000f35b3d6000fd5b6002805460408051602060018416156101000260001901909316849004601f810184900484028201840190925281815292918301828280156108065780601f106107db57610100808354040283529160200191610806565b820191906000526020600020905b8154815290600101906020018083116107e957829003601f168201915b505050505081565b61081733610882565b6108525760405162461bcd60e51b81526004018080602001828103825260228152602001806113d36022913960400191505060405180910390fd5b61086a60008051602061147283398151915282610938565b50565b60009081526020819052604090206002015490565b600061089c60008051602061147283398151915283610d20565b92915050565b7f9667e80708b6eeeb0053fa0cca44e028ff548e2a9f029edfeac87c118b08b7c881565b6000828152602081905260409020600201546108e9906108e4610fd1565b610d20565b6109245760405162461bcd60e51b815260040180806020018281038252602f8152602001806113a4602f913960400191505060405180910390fd5b61092e8282610fd5565b5050565b60035481565b610940610fd1565b6001600160a01b0316816001600160a01b03161461098f5760405162461bcd60e51b815260040180806020018281038252602f8152602001806114d8602f913960400191505060405180910390fd5b61092e828261103e565b6109a233610882565b6109dd5760405162461bcd60e51b81526004018080602001828103825260228152602001806113d36022913960400191505060405180910390fd5b6001600160a01b038116610a38576040805162461bcd60e51b815260206004820152601f60248201527f5374616b65325661756c7450726f78793a20696e707574206973207a65726f00604482015290519081900360640190fd5b806001600160a01b0316610a4a610fac565b6001600160a01b03161415610a9f576040805162461bcd60e51b81526020600482015260166024820152755374616b65325661756c7450726f78793a2073616d6560501b604482015290519081900360640190fd5b610aa8816110a7565b6040516001600160a01b038216907fbc7cd75a20ee27fd9adebab32041f755214dbc6bffa90cc0225b39da2e5c2d3b90600090a250565b60045481565b6000610aef610fac565b905090565b60085460ff1681565b610b0633610882565b610b415760405162461bcd60e51b81526004018080602001828103825260228152602001806113d36022913960400191505060405180910390fd5b61086a600080516020611472833981519152826108c6565b610b6233610882565b610b9d5760405162461bcd60e51b81526004018080602001828103825260228152602001806113d36022913960400191505060405180910390fd5b6001600160a01b038116610bf3576040805162461bcd60e51b815260206004820152601860248201527741636365737369626c653a207a65726f206164647265737360401b604482015290519081900360640190fd5b336001600160a01b0382161415610c4a576040805162461bcd60e51b815260206004820152601660248201527520b1b1b2b9b9b4b136329d1039b0b6b29030b236b4b760511b604482015290519081900360640190fd5b610c62600080516020611472833981519152826108c6565b61086a60008051602061147283398151915233610938565b60008051602061147283398151915281565b610c9533610882565b610cd05760405162461bcd60e51b81526004018080602001828103825260228152602001806113d36022913960400191505060405180910390fd5b6008805460ff1916911515919091179055565b6006546001600160a01b031681565b6001546001600160a01b031681565b6000828152602081905260408120610d19908361110f565b9392505050565b6000828152602081905260408120610d19908361111b565b600854610100900460ff1681565b600081565b610d5433610882565b610d8f5760405162461bcd60e51b81526004018080602001828103825260228152602001806113d36022913960400191505060405180910390fd5b6001546001600160a01b031615610dd75760405162461bcd60e51b815260040180806020018281038252602581526020018061144d6025913960400191505060405180910390fd5b6001600160a01b03861615801590610df757506001600160a01b03851615155b610e48576040805162461bcd60e51b815260206004820152601f60248201527f5374616b65325661756c7450726f78793a20696e707574206973207a65726f00604482015290519081900360640190fd5b60008311610e99576040805162461bcd60e51b81526020600482015260196024820152785374616b65315661756c743a205f636170206973207a65726f60381b604482015290519081900360640190fd5b600180546001600160a01b0319166001600160a01b0388161790556003839055600584905560048290558051610ed69060029060208401906112e0565b50610eef600080516020611472833981519152866108c6565b505050505050565b60055481565b600081815260208190526040812061089c90611130565b7ff0887ba65ee2024ea881d91b74c2450ef19e1557f03bed3ea9f16b037cbe2dc981565b600082815260208190526040902060020154610f56906108e4610fd1565b61098f5760405162461bcd60e51b81526004018080602001828103825260308152602001806113f56030913960400191505060405180910390fd5b3b151590565b6000610d19836001600160a01b03841661113b565b7f360894a13ba1a3210667c828492db98dca3e2076cc3735a920a3ca505d382bbc5490565b3390565b6000828152602081905260409020610fed9082610f97565b1561092e57610ffa610fd1565b6001600160a01b0316816001600160a01b0316837f2f8788117e7eff1d82e926ec794901d17c78024a50270940304540a733656f0d60405160405180910390a45050565b60008281526020819052604090206110569082611185565b1561092e57611063610fd1565b6001600160a01b0316816001600160a01b0316837ff6391f5c32d9c69d2a47ea670b442974b53935d1edc7fd64eb21e047a839171b60405160405180910390a45050565b6110b081610f91565b6110eb5760405162461bcd60e51b81526004018080602001828103825260468152602001806114926046913960600191505060405180910390fd5b7f360894a13ba1a3210667c828492db98dca3e2076cc3735a920a3ca505d382bbc55565b6000610d19838361119a565b6000610d19836001600160a01b0384166111fe565b600061089c82611216565b600061114783836111fe565b61117d5750815460018181018455600084815260208082209093018490558454848252828601909352604090209190915561089c565b50600061089c565b6000610d19836001600160a01b03841661121a565b815460009082106111dc5760405162461bcd60e51b81526004018080602001828103825260228152602001806113826022913960400191505060405180910390fd5b8260000182815481106111eb57fe5b9060005260206000200154905092915050565b60009081526001919091016020526040902054151590565b5490565b600081815260018301602052604081205480156112d6578354600019808301919081019060009087908390811061124d57fe5b906000526020600020015490508087600001848154811061126a57fe5b60009182526020808320909101929092558281526001898101909252604090209084019055865487908061129a57fe5b6001900381819060005260206000200160009055905586600101600087815260200190815260200160002060009055600194505050505061089c565b600091505061089c565b828054600181600116156101000203166002900490600052602060002090601f016020900481019282611316576000855561135c565b82601f1061132f57805160ff191683800117855561135c565b8280016001018555821561135c579182015b8281111561135c578251825591602001919060010190611341565b5061136892915061136c565b5090565b5b80821115611368576000815560010161136d56fe456e756d657261626c655365743a20696e646578206f7574206f6620626f756e6473416363657373436f6e74726f6c3a2073656e646572206d75737420626520616e2061646d696e20746f206772616e7441636365737369626c653a2043616c6c6572206973206e6f7420616e2061646d696e416363657373436f6e74726f6c3a2073656e646572206d75737420626520616e2061646d696e20746f207265766f6b655374616b65325661756c7450726f78793a20696d706c204f522070726f78792069732066616c73655374616b65325661756c7450726f78793a20616c726561647920696e697469616c697a6564df8b4c520ffe197c5343c6f5aec59570151ef9a492f2c624fd45ddde6135ec4250726f7879426173653a2043616e6e6f742073657420612070726f787920696d706c656d656e746174696f6e20746f2061206e6f6e2d636f6e74726163742061646472657373416363657373436f6e74726f6c3a2063616e206f6e6c792072656e6f756e636520726f6c657320666f722073656c66a264697066735822122051a48f072bf062ad10fdd376d345c0b4939e6c1919898564a9a848618611908d64736f6c63430007060033df8b4c520ffe197c5343c6f5aec59570151ef9a492f2c624fd45ddde6135ec4250726f7879426173653a2043616e6e6f742073657420612070726f787920696d706c656d656e746174696f6e20746f2061206e6f6e2d636f6e74726163742061646472657373",
  "immutableReferences": {},
  "source": "// SPDX-License-Identifier: MIT\npragma solidity ^0.7.6;\n\nimport \"../interfaces/IStake2VaultProxy.sol\";\nimport \"./Stake2VaultStorage.sol\";\nimport \"./ProxyBase.sol\";\n\n/// @title Proxy for StakeVault\n/// @notice\ncontract Stake2VaultProxy is Stake2VaultStorage, ProxyBase, IStake2VaultProxy {\n    event Upgraded(address indexed implementation);\n\n    /// @dev constructor of StakeVaultProxy\n    /// @param impl the logic address of StakeVaultProxy\n    constructor(address impl) {\n        assert(\n            IMPLEMENTATION_SLOT ==\n                bytes32(uint256(keccak256(\"eip1967.proxy.implementation\")) - 1)\n        );\n\n        require(impl != address(0), \"Stake2VaultProxy: logic is zero\");\n\n        _setImplementation(impl);\n\n        _setRoleAdmin(ADMIN_ROLE, ADMIN_ROLE);\n        _setupRole(ADMIN_ROLE, msg.sender);\n        _setupRole(ADMIN_ROLE, address(this));\n    }\n\n    /// @notice Set pause state\n    /// @param _pause true:pause or false:resume\n    function setProxyPause(bool _pause) external override onlyOwner {\n        pauseProxy = _pause;\n    }\n\n    /// @notice Set implementation contract\n    /// @param impl New implementation contract address\n    function upgradeTo(address impl) external override onlyOwner {\n        require(impl != address(0), \"Stake2VaultProxy: input is zero\");\n        require(_implementation() != impl, \"Stake2VaultProxy: same\");\n        _setImplementation(impl);\n        emit Upgraded(impl);\n    }\n\n    /// @dev returns the implementation\n    function implementation() public view override returns (address) {\n        return _implementation();\n    }\n\n    /// @dev receive ether\n    receive() external payable {\n        revert(\"cannot receive Ether\");\n    }\n\n    /// @dev fallback function , execute on undefined function call\n    fallback() external payable {\n        _fallback();\n    }\n\n    /// @dev fallback function , execute on undefined function call\n    function _fallback() internal {\n        address _impl = _implementation();\n        require(\n            _impl != address(0) && !pauseProxy,\n            \"Stake2VaultProxy: impl OR proxy is false\"\n        );\n\n        assembly {\n            // Copy msg.data. We take full control of memory in this inline assembly\n            // block because it will not return to Solidity code. We overwrite the\n            // Solidity scratch pad at memory position 0.\n            calldatacopy(0, 0, calldatasize())\n\n            // Call the implementation.\n            // out and outsize are 0 because we don't know the size yet.\n            let result := delegatecall(gas(), _impl, 0, calldatasize(), 0, 0)\n\n            // Copy the returned data.\n            returndatacopy(0, 0, returndatasize())\n\n            switch result\n                // delegatecall returns 0 on error.\n                case 0 {\n                    revert(0, returndatasize())\n                }\n                default {\n                    return(0, returndatasize())\n                }\n        }\n    }\n\n    /// @dev set initial storage\n    /// @param _tos  TOS token address\n    /// @param _stakefactory the factory address to create stakeContract\n    /// @param _stakeType  Type of staking contract, 0 TON staking, 1 basic ERC20 staking, 2 UniswapV3  staking\n    /// @param _cap  Maximum amount of rewards issued, allocated reward amount.\n    /// @param _miningPerSecond  the mining amount per second\n    function initialize(\n        address _tos,\n        address _stakefactory,\n        uint256 _stakeType,\n        uint256 _cap,\n        uint256 _miningPerSecond,\n        string memory _name\n    ) external override onlyOwner {\n        require(tos == address(0), \"Stake2VaultProxy: already initialized\");\n\n        require(\n            _tos != address(0) && _stakefactory != address(0),\n            \"Stake2VaultProxy: input is zero\"\n        );\n        require(_cap > 0, \"Stake1Vault: _cap is zero\");\n\n        tos = _tos;\n        cap = _cap;\n        stakeType = _stakeType;\n        miningPerSecond = _miningPerSecond;\n        name = _name;\n        grantRole(ADMIN_ROLE, _stakefactory);\n    }\n}\n",
  "sourcePath": "/Users/zena/ico2.0/ico20-contracts/contracts/stake/Stake2VaultProxy.sol",
  "compiler": {
    "name": "solc",
    "version": "0.7.6+commit.7338295f.Emscripten.clang"
  },
  "schemaVersion": "3.3.4",
  "updatedAt": "2021-07-28T11:36:55.559Z",
  "devdoc": {
    "kind": "dev",
    "methods": {
      "addAdmin(address)": {
        "details": "add admin",
        "params": {
          "account": "address to add"
        }
      },
      "constructor": {
        "details": "constructor of StakeVaultProxy",
        "params": {
          "impl": "the logic address of StakeVaultProxy"
        }
      },
      "getRoleAdmin(bytes32)": {
        "details": "Returns the admin role that controls `role`. See {grantRole} and {revokeRole}. To change a role's admin, use {_setRoleAdmin}."
      },
      "getRoleMember(bytes32,uint256)": {
        "details": "Returns one of the accounts that have `role`. `index` must be a value between 0 and {getRoleMemberCount}, non-inclusive. Role bearers are not sorted in any particular way, and their ordering may change at any point. WARNING: When using {getRoleMember} and {getRoleMemberCount}, make sure you perform all queries on the same block. See the following https://forum.openzeppelin.com/t/iterating-over-elements-on-enumerableset-in-openzeppelin-contracts/2296[forum post] for more information."
      },
      "getRoleMemberCount(bytes32)": {
        "details": "Returns the number of accounts that have `role`. Can be used together with {getRoleMember} to enumerate all bearers of a role."
      },
      "grantRole(bytes32,address)": {
        "details": "Grants `role` to `account`. If `account` had not been already granted `role`, emits a {RoleGranted} event. Requirements: - the caller must have ``role``'s admin role."
      },
      "hasRole(bytes32,address)": {
        "details": "Returns `true` if `account` has been granted `role`."
      },
      "implementation()": {
        "details": "returns the implementation"
      },
      "initialize(address,address,uint256,uint256,uint256,string)": {
        "details": "set initial storage",
        "params": {
          "_cap": "Maximum amount of rewards issued, allocated reward amount.",
          "_miningPerSecond": "the mining amount per second",
          "_stakeType": "Type of staking contract, 0 TON staking, 1 basic ERC20 staking, 2 UniswapV3  staking",
          "_stakefactory": "the factory address to create stakeContract",
          "_tos": "TOS token address"
        }
      },
      "isAdmin(address)": {
        "details": "whether admin",
        "params": {
          "account": "address to check"
        }
      },
      "removeAdmin(address)": {
        "details": "remove admin",
        "params": {
          "account": "address to remove"
        }
      },
      "renounceRole(bytes32,address)": {
        "details": "Revokes `role` from the calling account. Roles are often managed via {grantRole} and {revokeRole}: this function's purpose is to provide a mechanism for accounts to lose their privileges if they are compromised (such as when a trusted device is misplaced). If the calling account had been granted `role`, emits a {RoleRevoked} event. Requirements: - the caller must be `account`."
      },
      "revokeRole(bytes32,address)": {
        "details": "Revokes `role` from `account`. If `account` had been granted `role`, emits a {RoleRevoked} event. Requirements: - the caller must have ``role``'s admin role."
      },
      "setProxyPause(bool)": {
        "params": {
          "_pause": "true:pause or false:resume"
        }
      },
      "transferAdmin(address)": {
        "details": "transfer admin",
        "params": {
          "newAdmin": "new admin address"
        }
      },
      "upgradeTo(address)": {
        "params": {
          "impl": "New implementation contract address"
        }
      }
    },
    "title": "Proxy for StakeVault",
    "version": 1
  },
  "userdoc": {
    "kind": "user",
    "methods": {
      "setProxyPause(bool)": {
        "notice": "Set pause state"
      },
      "upgradeTo(address)": {
        "notice": "Set implementation contract"
      }
    },
    "version": 1
  }
}