{
  "contractName": "Stake2VaultProxy",
  "abi": [
    {
      "inputs": [
        {
          "internalType": "address",
          "name": "impl",
          "type": "address"
        }
      ],
      "stateMutability": "nonpayable",
      "type": "constructor"
    },
    {
      "anonymous": false,
      "inputs": [
        {
          "indexed": true,
          "internalType": "bytes32",
          "name": "role",
          "type": "bytes32"
        },
        {
          "indexed": true,
          "internalType": "bytes32",
          "name": "previousAdminRole",
          "type": "bytes32"
        },
        {
          "indexed": true,
          "internalType": "bytes32",
          "name": "newAdminRole",
          "type": "bytes32"
        }
      ],
      "name": "RoleAdminChanged",
      "type": "event"
    },
    {
      "anonymous": false,
      "inputs": [
        {
          "indexed": true,
          "internalType": "bytes32",
          "name": "role",
          "type": "bytes32"
        },
        {
          "indexed": true,
          "internalType": "address",
          "name": "account",
          "type": "address"
        },
        {
          "indexed": true,
          "internalType": "address",
          "name": "sender",
          "type": "address"
        }
      ],
      "name": "RoleGranted",
      "type": "event"
    },
    {
      "anonymous": false,
      "inputs": [
        {
          "indexed": true,
          "internalType": "bytes32",
          "name": "role",
          "type": "bytes32"
        },
        {
          "indexed": true,
          "internalType": "address",
          "name": "account",
          "type": "address"
        },
        {
          "indexed": true,
          "internalType": "address",
          "name": "sender",
          "type": "address"
        }
      ],
      "name": "RoleRevoked",
      "type": "event"
    },
    {
      "anonymous": false,
      "inputs": [
        {
          "indexed": true,
          "internalType": "address",
          "name": "implementation",
          "type": "address"
        }
      ],
      "name": "Upgraded",
      "type": "event"
    },
    {
      "stateMutability": "payable",
      "type": "fallback"
    },
    {
      "inputs": [],
      "name": "ADMIN_ROLE",
      "outputs": [
        {
          "internalType": "bytes32",
          "name": "",
          "type": "bytes32"
        }
      ],
      "stateMutability": "view",
      "type": "function"
    },
    {
      "inputs": [],
      "name": "BURNER_ROLE",
      "outputs": [
        {
          "internalType": "bytes32",
          "name": "",
          "type": "bytes32"
        }
      ],
      "stateMutability": "view",
      "type": "function"
    },
    {
      "inputs": [],
      "name": "DEFAULT_ADMIN_ROLE",
      "outputs": [
        {
          "internalType": "bytes32",
          "name": "",
          "type": "bytes32"
        }
      ],
      "stateMutability": "view",
      "type": "function"
    },
    {
      "inputs": [],
      "name": "MINTER_ROLE",
      "outputs": [
        {
          "internalType": "bytes32",
          "name": "",
          "type": "bytes32"
        }
      ],
      "stateMutability": "view",
      "type": "function"
    },
    {
      "inputs": [
        {
          "internalType": "address",
          "name": "account",
          "type": "address"
        }
      ],
      "name": "addAdmin",
      "outputs": [],
      "stateMutability": "nonpayable",
      "type": "function"
    },
    {
      "inputs": [],
      "name": "cap",
      "outputs": [
        {
          "internalType": "uint256",
          "name": "",
          "type": "uint256"
        }
      ],
      "stateMutability": "view",
      "type": "function"
    },
    {
      "inputs": [
        {
          "internalType": "bytes32",
          "name": "role",
          "type": "bytes32"
        }
      ],
      "name": "getRoleAdmin",
      "outputs": [
        {
          "internalType": "bytes32",
          "name": "",
          "type": "bytes32"
        }
      ],
      "stateMutability": "view",
      "type": "function"
    },
    {
      "inputs": [
        {
          "internalType": "bytes32",
          "name": "role",
          "type": "bytes32"
        },
        {
          "internalType": "uint256",
          "name": "index",
          "type": "uint256"
        }
      ],
      "name": "getRoleMember",
      "outputs": [
        {
          "internalType": "address",
          "name": "",
          "type": "address"
        }
      ],
      "stateMutability": "view",
      "type": "function"
    },
    {
      "inputs": [
        {
          "internalType": "bytes32",
          "name": "role",
          "type": "bytes32"
        }
      ],
      "name": "getRoleMemberCount",
      "outputs": [
        {
          "internalType": "uint256",
          "name": "",
          "type": "uint256"
        }
      ],
      "stateMutability": "view",
      "type": "function"
    },
    {
      "inputs": [
        {
          "internalType": "bytes32",
          "name": "role",
          "type": "bytes32"
        },
        {
          "internalType": "address",
          "name": "account",
          "type": "address"
        }
      ],
      "name": "grantRole",
      "outputs": [],
      "stateMutability": "nonpayable",
      "type": "function"
    },
    {
      "inputs": [
        {
          "internalType": "bytes32",
          "name": "role",
          "type": "bytes32"
        },
        {
          "internalType": "address",
          "name": "account",
          "type": "address"
        }
      ],
      "name": "hasRole",
      "outputs": [
        {
          "internalType": "bool",
          "name": "",
          "type": "bool"
        }
      ],
      "stateMutability": "view",
      "type": "function"
    },
    {
      "inputs": [
        {
          "internalType": "address",
          "name": "account",
          "type": "address"
        }
      ],
      "name": "isAdmin",
      "outputs": [
        {
          "internalType": "bool",
          "name": "",
          "type": "bool"
        }
      ],
      "stateMutability": "view",
      "type": "function"
    },
    {
      "inputs": [],
      "name": "migratedL2",
      "outputs": [
        {
          "internalType": "bool",
          "name": "",
          "type": "bool"
        }
      ],
      "stateMutability": "view",
      "type": "function"
    },
    {
      "inputs": [],
      "name": "miningAmountTotal",
      "outputs": [
        {
          "internalType": "uint256",
          "name": "",
          "type": "uint256"
        }
      ],
      "stateMutability": "view",
      "type": "function"
    },
    {
      "inputs": [],
      "name": "miningEndTime",
      "outputs": [
        {
          "internalType": "uint256",
          "name": "",
          "type": "uint256"
        }
      ],
      "stateMutability": "view",
      "type": "function"
    },
    {
      "inputs": [],
      "name": "miningPerSecond",
      "outputs": [
        {
          "internalType": "uint256",
          "name": "",
          "type": "uint256"
        }
      ],
      "stateMutability": "view",
      "type": "function"
    },
    {
      "inputs": [],
      "name": "miningStartTime",
      "outputs": [
        {
          "internalType": "uint256",
          "name": "",
          "type": "uint256"
        }
      ],
      "stateMutability": "view",
      "type": "function"
    },
    {
      "inputs": [],
      "name": "name",
      "outputs": [
        {
          "internalType": "string",
          "name": "",
          "type": "string"
        }
      ],
      "stateMutability": "view",
      "type": "function"
    },
    {
      "inputs": [],
      "name": "nonMiningAmountTotal",
      "outputs": [
        {
          "internalType": "uint256",
          "name": "",
          "type": "uint256"
        }
      ],
      "stateMutability": "view",
      "type": "function"
    },
    {
      "inputs": [],
      "name": "pauseProxy",
      "outputs": [
        {
          "internalType": "bool",
          "name": "",
          "type": "bool"
        }
      ],
      "stateMutability": "view",
      "type": "function"
    },
    {
      "inputs": [
        {
          "internalType": "address",
          "name": "account",
          "type": "address"
        }
      ],
      "name": "removeAdmin",
      "outputs": [],
      "stateMutability": "nonpayable",
      "type": "function"
    },
    {
      "inputs": [
        {
          "internalType": "bytes32",
          "name": "role",
          "type": "bytes32"
        },
        {
          "internalType": "address",
          "name": "account",
          "type": "address"
        }
      ],
      "name": "renounceRole",
      "outputs": [],
      "stateMutability": "nonpayable",
      "type": "function"
    },
    {
      "inputs": [
        {
          "internalType": "bytes32",
          "name": "role",
          "type": "bytes32"
        },
        {
          "internalType": "address",
          "name": "account",
          "type": "address"
        }
      ],
      "name": "revokeRole",
      "outputs": [],
      "stateMutability": "nonpayable",
      "type": "function"
    },
    {
      "inputs": [],
      "name": "stakeAddress",
      "outputs": [
        {
          "internalType": "address",
          "name": "",
          "type": "address"
        }
      ],
      "stateMutability": "view",
      "type": "function"
    },
    {
      "inputs": [],
      "name": "stakeType",
      "outputs": [
        {
          "internalType": "uint256",
          "name": "",
          "type": "uint256"
        }
      ],
      "stateMutability": "view",
      "type": "function"
    },
    {
      "inputs": [],
      "name": "tos",
      "outputs": [
        {
          "internalType": "address",
          "name": "",
          "type": "address"
        }
      ],
      "stateMutability": "view",
      "type": "function"
    },
    {
      "inputs": [],
      "name": "totalMinedAmount",
      "outputs": [
        {
          "internalType": "uint256",
          "name": "",
          "type": "uint256"
        }
      ],
      "stateMutability": "view",
      "type": "function"
    },
    {
      "inputs": [
        {
          "internalType": "address",
          "name": "newAdmin",
          "type": "address"
        }
      ],
      "name": "transferAdmin",
      "outputs": [],
      "stateMutability": "nonpayable",
      "type": "function"
    },
    {
      "stateMutability": "payable",
      "type": "receive"
    },
    {
      "inputs": [
        {
          "internalType": "bool",
          "name": "_pause",
          "type": "bool"
        }
      ],
      "name": "setProxyPause",
      "outputs": [],
      "stateMutability": "nonpayable",
      "type": "function"
    },
    {
      "inputs": [
        {
          "internalType": "address",
          "name": "impl",
          "type": "address"
        }
      ],
      "name": "upgradeTo",
      "outputs": [],
      "stateMutability": "nonpayable",
      "type": "function"
    },
    {
      "inputs": [],
      "name": "implementation",
      "outputs": [
        {
          "internalType": "address",
          "name": "",
          "type": "address"
        }
      ],
      "stateMutability": "view",
      "type": "function"
    },
    {
      "inputs": [
        {
          "internalType": "address",
          "name": "_tos",
          "type": "address"
        },
        {
          "internalType": "address",
          "name": "_stakefactory",
          "type": "address"
        },
        {
          "internalType": "uint256",
          "name": "_stakeType",
          "type": "uint256"
        },
        {
          "internalType": "uint256",
          "name": "_cap",
          "type": "uint256"
        },
        {
          "internalType": "uint256",
          "name": "_miningPerSecond",
          "type": "uint256"
        },
        {
          "internalType": "string",
          "name": "_name",
          "type": "string"
        }
      ],
      "name": "initialize",
      "outputs": [],
      "stateMutability": "nonpayable",
      "type": "function"
    }
  ],
  "bytecode": "0x60806040523480156200001157600080fd5b506040516200194b3803806200194b833981810160405260208110156200003757600080fd5b50516001600160a01b03811662000095576040805162461bcd60e51b815260206004820152601f60248201527f5374616b65325661756c7450726f78793a206c6f676963206973207a65726f00604482015290519081900360640190fd5b620000a081620000f8565b620000bb600080516020620018e5833981519152806200016f565b620000d6600080516020620018e583398151915233620001c1565b620000f1600080516020620018e583398151915230620001c1565b50620002db565b6200010e81620001d160201b6200104f1760201c565b6200014b5760405162461bcd60e51b8152600401808060200182810382526046815260200180620019056046913960600191505060405180910390fd5b7f360894a13ba1a3210667c828492db98dca3e2076cc3735a920a3ca505d382bbc55565b600082815260208190526040808220600201549051839285917fbd79b86ffe0ab8e8776151514217cd7cacd52c909f66475c3af44e129f0b00ff9190a460009182526020829052604090912060020155565b620001cd8282620001d7565b5050565b3b151590565b600082815260208181526040909120620001fc9183906200105562000250821b17901c565b15620001cd576200020c62000270565b6001600160a01b0316816001600160a01b0316837f2f8788117e7eff1d82e926ec794901d17c78024a50270940304540a733656f0d60405160405180910390a45050565b600062000267836001600160a01b03841662000274565b90505b92915050565b3390565b6000620002828383620002c3565b620002ba575081546001818101845560008481526020808220909301849055845484825282860190935260409020919091556200026a565b5060006200026a565b60009081526001919091016020526040902054151590565b6115fa80620002eb6000396000f3fe6080604052600436106101a75760003560e01c806375829def116100e2578063a217fddf11610085578063a217fddf146105f2578063af182fce14610607578063b90a762a1461061c578063b97af0db146106fb578063ca15c87314610710578063d53913931461073a578063d547741f1461074f578063f009150914610788576101f0565b806375829def146104d657806375b238fc146105095780637cb00d251461051e578063851073671461054a57806389f395de1461055f5780639010d07c1461057457806391d14854146105a4578063a1f5f50e146105dd576101f0565b8063355274ea1161014a578063355274ea146103b257806336568abe146103c75780633659cfe6146104005780634ce77abe146104335780635c60da1b146104485780635f139e3f1461047957806363a8fd891461048e57806370480275146104a3576101f0565b806301f88d26146101fa57806306fdde03146102215780631785f53c146102ab578063248a9ca3146102de57806324d7806c146103085780632736b3911461034f578063282c51f3146103645780632f2ff15d14610379576101f0565b366101f0576040805162461bcd60e51b815260206004820152601460248201527331b0b73737ba103932b1b2b4bb329022ba3432b960611b604482015290519081900360640190fd5b6101f861079d565b005b34801561020657600080fd5b5061020f610823565b60408051918252519081900360200190f35b34801561022d57600080fd5b50610236610829565b6040805160208082528351818301528351919283929083019185019080838360005b83811015610270578181015183820152602001610258565b50505050905090810190601f16801561029d5780820380516001836020036101000a031916815260200191505b509250505060405180910390f35b3480156102b757600080fd5b506101f8600480360360208110156102ce57600080fd5b50356001600160a01b03166108b4565b3480156102ea57600080fd5b5061020f6004803603602081101561030157600080fd5b5035610913565b34801561031457600080fd5b5061033b6004803603602081101561032b57600080fd5b50356001600160a01b0316610928565b604080519115158252519081900360200190f35b34801561035b57600080fd5b5061020f610948565b34801561037057600080fd5b5061020f61094e565b34801561038557600080fd5b506101f86004803603604081101561039c57600080fd5b50803590602001356001600160a01b0316610972565b3480156103be57600080fd5b5061020f6109de565b3480156103d357600080fd5b506101f8600480360360408110156103ea57600080fd5b50803590602001356001600160a01b03166109e4565b34801561040c57600080fd5b506101f86004803603602081101561042357600080fd5b50356001600160a01b0316610a45565b34801561043f57600080fd5b5061020f610b8b565b34801561045457600080fd5b5061045d610b91565b604080516001600160a01b039092168252519081900360200190f35b34801561048557600080fd5b5061020f610ba0565b34801561049a57600080fd5b5061033b610ba6565b3480156104af57600080fd5b506101f8600480360360208110156104c657600080fd5b50356001600160a01b0316610baf565b3480156104e257600080fd5b506101f8600480360360208110156104f957600080fd5b50356001600160a01b0316610c0b565b34801561051557600080fd5b5061020f610d2c565b34801561052a57600080fd5b506101f86004803603602081101561054157600080fd5b50351515610d3e565b34801561055657600080fd5b5061045d610d95565b34801561056b57600080fd5b5061045d610da4565b34801561058057600080fd5b5061045d6004803603604081101561059757600080fd5b5080359060200135610db3565b3480156105b057600080fd5b5061033b600480360360408110156105c757600080fd5b50803590602001356001600160a01b0316610dd2565b3480156105e957600080fd5b5061033b610dea565b3480156105fe57600080fd5b5061020f610df8565b34801561061357600080fd5b5061020f610dfd565b34801561062857600080fd5b506101f8600480360360c081101561063f57600080fd5b6001600160a01b0382358116926020810135909116916040820135916060810135916080820135919081019060c0810160a082013564010000000081111561068657600080fd5b82018360208201111561069857600080fd5b803590602001918460018302840111640100000000831117156106ba57600080fd5b91908080601f016020809104026020016040519081016040528093929190818152602001838380828437600092019190915250929550610e03945050505050565b34801561070757600080fd5b5061020f610faf565b34801561071c57600080fd5b5061020f6004803603602081101561073357600080fd5b5035610fb5565b34801561074657600080fd5b5061020f610fcc565b34801561075b57600080fd5b506101f86004803603604081101561077257600080fd5b50803590602001356001600160a01b0316610ff0565b34801561079457600080fd5b5061020f611049565b60006107a761106a565b90506001600160a01b038116158015906107c45750600d5460ff16155b6107ff5760405162461bcd60e51b81526004018080602001828103825260288152602001806114e36028913960400191505060405180910390fd5b3660008037600080366000845af43d6000803e80801561081e573d6000f35b3d6000fd5b60045481565b6002805460408051602060018416156101000260001901909316849004601f810184900484028201840190925281815292918301828280156108ac5780601f10610881576101008083540402835291602001916108ac565b820191906000526020600020905b81548152906001019060200180831161088f57829003601f168201915b505050505081565b6108bd33610928565b6108f85760405162461bcd60e51b81526004018080602001828103825260228152602001806114916022913960400191505060405180910390fd5b610910600080516020611530833981519152826109e4565b50565b60009081526020819052604090206002015490565b600061094260008051602061153083398151915283610dd2565b92915050565b60055481565b7f9667e80708b6eeeb0053fa0cca44e028ff548e2a9f029edfeac87c118b08b7c881565b6000828152602081905260409020600201546109959061099061108f565b610dd2565b6109d05760405162461bcd60e51b815260040180806020018281038252602f815260200180611462602f913960400191505060405180910390fd5b6109da8282611093565b5050565b60035481565b6109ec61108f565b6001600160a01b0316816001600160a01b031614610a3b5760405162461bcd60e51b815260040180806020018281038252602f815260200180611596602f913960400191505060405180910390fd5b6109da82826110fc565b610a4e33610928565b610a895760405162461bcd60e51b81526004018080602001828103825260228152602001806114916022913960400191505060405180910390fd5b6001600160a01b038116610ae4576040805162461bcd60e51b815260206004820152601f60248201527f5374616b65325661756c7450726f78793a20696e707574206973207a65726f00604482015290519081900360640190fd5b806001600160a01b0316610af661106a565b6001600160a01b03161415610b4b576040805162461bcd60e51b81526020600482015260166024820152755374616b65325661756c7450726f78793a2073616d6560501b604482015290519081900360640190fd5b610b5481611165565b6040516001600160a01b038216907fbc7cd75a20ee27fd9adebab32041f755214dbc6bffa90cc0225b39da2e5c2d3b90600090a250565b60065481565b6000610b9b61106a565b905090565b60095481565b600d5460ff1681565b610bb833610928565b610bf35760405162461bcd60e51b81526004018080602001828103825260228152602001806114916022913960400191505060405180910390fd5b61091060008051602061153083398151915282610972565b610c1433610928565b610c4f5760405162461bcd60e51b81526004018080602001828103825260228152602001806114916022913960400191505060405180910390fd5b6001600160a01b038116610ca5576040805162461bcd60e51b815260206004820152601860248201527741636365737369626c653a207a65726f206164647265737360401b604482015290519081900360640190fd5b336001600160a01b0382161415610cfc576040805162461bcd60e51b815260206004820152601660248201527520b1b1b2b9b9b4b136329d1039b0b6b29030b236b4b760511b604482015290519081900360640190fd5b610d1460008051602061153083398151915282610972565b610910600080516020611530833981519152336109e4565b60008051602061153083398151915281565b610d4733610928565b610d825760405162461bcd60e51b81526004018080602001828103825260228152602001806114916022913960400191505060405180910390fd5b600d805460ff1916911515919091179055565b6008546001600160a01b031681565b6001546001600160a01b031681565b6000828152602081905260408120610dcb90836111cd565b9392505050565b6000828152602081905260408120610dcb90836111d9565b600d54610100900460ff1681565b600081565b600a5481565b610e0c33610928565b610e475760405162461bcd60e51b81526004018080602001828103825260228152602001806114916022913960400191505060405180910390fd5b6001546001600160a01b031615610e8f5760405162461bcd60e51b815260040180806020018281038252602581526020018061150b6025913960400191505060405180910390fd5b6001600160a01b03861615801590610eaf57506001600160a01b03851615155b610f00576040805162461bcd60e51b815260206004820152601f60248201527f5374616b65325661756c7450726f78793a20696e707574206973207a65726f00604482015290519081900360640190fd5b60008311610f51576040805162461bcd60e51b81526020600482015260196024820152785374616b65315661756c743a205f636170206973207a65726f60381b604482015290519081900360640190fd5b600180546001600160a01b0319166001600160a01b0388161790556003839055600784905560068290558051610f8e90600290602084019061139e565b50610fa760008051602061153083398151915286610972565b505050505050565b60075481565b6000818152602081905260408120610942906111ee565b7ff0887ba65ee2024ea881d91b74c2450ef19e1557f03bed3ea9f16b037cbe2dc981565b60008281526020819052604090206002015461100e9061099061108f565b610a3b5760405162461bcd60e51b81526004018080602001828103825260308152602001806114b36030913960400191505060405180910390fd5b600b5481565b3b151590565b6000610dcb836001600160a01b0384166111f9565b7f360894a13ba1a3210667c828492db98dca3e2076cc3735a920a3ca505d382bbc5490565b3390565b60008281526020819052604090206110ab9082611055565b156109da576110b861108f565b6001600160a01b0316816001600160a01b0316837f2f8788117e7eff1d82e926ec794901d17c78024a50270940304540a733656f0d60405160405180910390a45050565b60008281526020819052604090206111149082611243565b156109da5761112161108f565b6001600160a01b0316816001600160a01b0316837ff6391f5c32d9c69d2a47ea670b442974b53935d1edc7fd64eb21e047a839171b60405160405180910390a45050565b61116e8161104f565b6111a95760405162461bcd60e51b81526004018080602001828103825260468152602001806115506046913960600191505060405180910390fd5b7f360894a13ba1a3210667c828492db98dca3e2076cc3735a920a3ca505d382bbc55565b6000610dcb8383611258565b6000610dcb836001600160a01b0384166112bc565b6000610942826112d4565b600061120583836112bc565b61123b57508154600181810184556000848152602080822090930184905584548482528286019093526040902091909155610942565b506000610942565b6000610dcb836001600160a01b0384166112d8565b8154600090821061129a5760405162461bcd60e51b81526004018080602001828103825260228152602001806114406022913960400191505060405180910390fd5b8260000182815481106112a957fe5b9060005260206000200154905092915050565b60009081526001919091016020526040902054151590565b5490565b60008181526001830160205260408120548015611394578354600019808301919081019060009087908390811061130b57fe5b906000526020600020015490508087600001848154811061132857fe5b60009182526020808320909101929092558281526001898101909252604090209084019055865487908061135857fe5b60019003818190600052602060002001600090559055866001016000878152602001908152602001600020600090556001945050505050610942565b6000915050610942565b828054600181600116156101000203166002900490600052602060002090601f0160209004810192826113d4576000855561141a565b82601f106113ed57805160ff191683800117855561141a565b8280016001018555821561141a579182015b8281111561141a5782518255916020019190600101906113ff565b5061142692915061142a565b5090565b5b80821115611426576000815560010161142b56fe456e756d657261626c655365743a20696e646578206f7574206f6620626f756e6473416363657373436f6e74726f6c3a2073656e646572206d75737420626520616e2061646d696e20746f206772616e7441636365737369626c653a2043616c6c6572206973206e6f7420616e2061646d696e416363657373436f6e74726f6c3a2073656e646572206d75737420626520616e2061646d696e20746f207265766f6b655374616b65325661756c7450726f78793a20696d706c204f522070726f78792069732066616c73655374616b65325661756c7450726f78793a20616c726561647920696e697469616c697a6564df8b4c520ffe197c5343c6f5aec59570151ef9a492f2c624fd45ddde6135ec4250726f7879426173653a2043616e6e6f742073657420612070726f787920696d706c656d656e746174696f6e20746f2061206e6f6e2d636f6e74726163742061646472657373416363657373436f6e74726f6c3a2063616e206f6e6c792072656e6f756e636520726f6c657320666f722073656c66a264697066735822122015f321dec0962b8765fd80b3d770e1bbacb1f6385b4e5f734ea6017b88f8386164736f6c63430007060033df8b4c520ffe197c5343c6f5aec59570151ef9a492f2c624fd45ddde6135ec4250726f7879426173653a2043616e6e6f742073657420612070726f787920696d706c656d656e746174696f6e20746f2061206e6f6e2d636f6e74726163742061646472657373",
  "immutableReferences": {},
  "source": "// SPDX-License-Identifier: MIT\npragma solidity ^0.7.6;\n\nimport \"../interfaces/IStake2VaultProxy.sol\";\nimport \"./Stake2VaultStorage.sol\";\nimport \"./ProxyBase.sol\";\n\n/// @title Proxy for StakeVault\n/// @notice\ncontract Stake2VaultProxy is Stake2VaultStorage, ProxyBase, IStake2VaultProxy {\n    event Upgraded(address indexed implementation);\n\n    /// @dev constructor of StakeVaultProxy\n    /// @param impl the logic address of StakeVaultProxy\n    constructor(address impl) {\n        assert(\n            IMPLEMENTATION_SLOT ==\n                bytes32(uint256(keccak256(\"eip1967.proxy.implementation\")) - 1)\n        );\n\n        require(impl != address(0), \"Stake2VaultProxy: logic is zero\");\n\n        _setImplementation(impl);\n\n        _setRoleAdmin(ADMIN_ROLE, ADMIN_ROLE);\n        _setupRole(ADMIN_ROLE, msg.sender);\n        _setupRole(ADMIN_ROLE, address(this));\n    }\n\n    /// @notice Set pause state\n    /// @param _pause true:pause or false:resume\n    function setProxyPause(bool _pause) external override onlyOwner {\n        pauseProxy = _pause;\n    }\n\n    /// @notice Set implementation contract\n    /// @param impl New implementation contract address\n    function upgradeTo(address impl) external override onlyOwner {\n        require(impl != address(0), \"Stake2VaultProxy: input is zero\");\n        require(_implementation() != impl, \"Stake2VaultProxy: same\");\n        _setImplementation(impl);\n        emit Upgraded(impl);\n    }\n\n    /// @dev returns the implementation\n    function implementation() public view override returns (address) {\n        return _implementation();\n    }\n\n    /// @dev receive ether\n    receive() external payable {\n        revert(\"cannot receive Ether\");\n    }\n\n    /// @dev fallback function , execute on undefined function call\n    fallback() external payable {\n        _fallback();\n    }\n\n    /// @dev fallback function , execute on undefined function call\n    function _fallback() internal {\n        address _impl = _implementation();\n        require(\n            _impl != address(0) && !pauseProxy,\n            \"Stake2VaultProxy: impl OR proxy is false\"\n        );\n\n        assembly {\n            // Copy msg.data. We take full control of memory in this inline assembly\n            // block because it will not return to Solidity code. We overwrite the\n            // Solidity scratch pad at memory position 0.\n            calldatacopy(0, 0, calldatasize())\n\n            // Call the implementation.\n            // out and outsize are 0 because we don't know the size yet.\n            let result := delegatecall(gas(), _impl, 0, calldatasize(), 0, 0)\n\n            // Copy the returned data.\n            returndatacopy(0, 0, returndatasize())\n\n            switch result\n                // delegatecall returns 0 on error.\n                case 0 {\n                    revert(0, returndatasize())\n                }\n                default {\n                    return(0, returndatasize())\n                }\n        }\n    }\n\n    /// @dev set initial storage\n    /// @param _tos  TOS token address\n    /// @param _stakefactory the factory address to create stakeContract\n    /// @param _stakeType  Type of staking contract, 0 TON staking, 1 basic ERC20 staking, 2 UniswapV3  staking\n    /// @param _cap  Maximum amount of rewards issued, allocated reward amount.\n    /// @param _miningPerSecond  the mining amount per second\n    function initialize(\n        address _tos,\n        address _stakefactory,\n        uint256 _stakeType,\n        uint256 _cap,\n        uint256 _miningPerSecond,\n        string memory _name\n    ) external override onlyOwner {\n        require(tos == address(0), \"Stake2VaultProxy: already initialized\");\n\n        require(\n            _tos != address(0) && _stakefactory != address(0),\n            \"Stake2VaultProxy: input is zero\"\n        );\n        require(_cap > 0, \"Stake1Vault: _cap is zero\");\n\n        tos = _tos;\n        cap = _cap;\n        stakeType = _stakeType;\n        miningPerSecond = _miningPerSecond;\n        name = _name;\n        grantRole(ADMIN_ROLE, _stakefactory);\n    }\n}\n",
  "sourcePath": "/Users/zena/ico2.0/ico20-contracts/contracts/stake/Stake2VaultProxy.sol",
  "compiler": {
    "name": "solc",
    "version": "0.7.6+commit.7338295f.Emscripten.clang"
  },
  "schemaVersion": "3.3.4",
  "updatedAt": "2021-08-03T05:41:05.023Z",
  "devdoc": {
    "kind": "dev",
    "methods": {
      "addAdmin(address)": {
        "details": "add admin",
        "params": {
          "account": "address to add"
        }
      },
      "constructor": {
        "details": "constructor of StakeVaultProxy",
        "params": {
          "impl": "the logic address of StakeVaultProxy"
        }
      },
      "getRoleAdmin(bytes32)": {
        "details": "Returns the admin role that controls `role`. See {grantRole} and {revokeRole}. To change a role's admin, use {_setRoleAdmin}."
      },
      "getRoleMember(bytes32,uint256)": {
        "details": "Returns one of the accounts that have `role`. `index` must be a value between 0 and {getRoleMemberCount}, non-inclusive. Role bearers are not sorted in any particular way, and their ordering may change at any point. WARNING: When using {getRoleMember} and {getRoleMemberCount}, make sure you perform all queries on the same block. See the following https://forum.openzeppelin.com/t/iterating-over-elements-on-enumerableset-in-openzeppelin-contracts/2296[forum post] for more information."
      },
      "getRoleMemberCount(bytes32)": {
        "details": "Returns the number of accounts that have `role`. Can be used together with {getRoleMember} to enumerate all bearers of a role."
      },
      "grantRole(bytes32,address)": {
        "details": "Grants `role` to `account`. If `account` had not been already granted `role`, emits a {RoleGranted} event. Requirements: - the caller must have ``role``'s admin role."
      },
      "hasRole(bytes32,address)": {
        "details": "Returns `true` if `account` has been granted `role`."
      },
      "implementation()": {
        "details": "returns the implementation"
      },
      "initialize(address,address,uint256,uint256,uint256,string)": {
        "details": "set initial storage",
        "params": {
          "_cap": "Maximum amount of rewards issued, allocated reward amount.",
          "_miningPerSecond": "the mining amount per second",
          "_stakeType": "Type of staking contract, 0 TON staking, 1 basic ERC20 staking, 2 UniswapV3  staking",
          "_stakefactory": "the factory address to create stakeContract",
          "_tos": "TOS token address"
        }
      },
      "isAdmin(address)": {
        "details": "whether admin",
        "params": {
          "account": "address to check"
        }
      },
      "removeAdmin(address)": {
        "details": "remove admin",
        "params": {
          "account": "address to remove"
        }
      },
      "renounceRole(bytes32,address)": {
        "details": "Revokes `role` from the calling account. Roles are often managed via {grantRole} and {revokeRole}: this function's purpose is to provide a mechanism for accounts to lose their privileges if they are compromised (such as when a trusted device is misplaced). If the calling account had been granted `role`, emits a {RoleRevoked} event. Requirements: - the caller must be `account`."
      },
      "revokeRole(bytes32,address)": {
        "details": "Revokes `role` from `account`. If `account` had been granted `role`, emits a {RoleRevoked} event. Requirements: - the caller must have ``role``'s admin role."
      },
      "setProxyPause(bool)": {
        "params": {
          "_pause": "true:pause or false:resume"
        }
      },
      "transferAdmin(address)": {
        "details": "transfer admin",
        "params": {
          "newAdmin": "new admin address"
        }
      },
      "upgradeTo(address)": {
        "params": {
          "impl": "New implementation contract address"
        }
      }
    },
    "title": "Proxy for StakeVault",
    "version": 1
  },
  "userdoc": {
    "kind": "user",
    "methods": {
      "setProxyPause(bool)": {
        "notice": "Set pause state"
      },
      "upgradeTo(address)": {
        "notice": "Set implementation contract"
      }
    },
    "version": 1
  }
}