{
  "contractName": "Stake2VaultStorage",
  "abi": [
    {
      "anonymous": false,
      "inputs": [
        {
          "indexed": true,
          "internalType": "bytes32",
          "name": "role",
          "type": "bytes32"
        },
        {
          "indexed": true,
          "internalType": "bytes32",
          "name": "previousAdminRole",
          "type": "bytes32"
        },
        {
          "indexed": true,
          "internalType": "bytes32",
          "name": "newAdminRole",
          "type": "bytes32"
        }
      ],
      "name": "RoleAdminChanged",
      "type": "event"
    },
    {
      "anonymous": false,
      "inputs": [
        {
          "indexed": true,
          "internalType": "bytes32",
          "name": "role",
          "type": "bytes32"
        },
        {
          "indexed": true,
          "internalType": "address",
          "name": "account",
          "type": "address"
        },
        {
          "indexed": true,
          "internalType": "address",
          "name": "sender",
          "type": "address"
        }
      ],
      "name": "RoleGranted",
      "type": "event"
    },
    {
      "anonymous": false,
      "inputs": [
        {
          "indexed": true,
          "internalType": "bytes32",
          "name": "role",
          "type": "bytes32"
        },
        {
          "indexed": true,
          "internalType": "address",
          "name": "account",
          "type": "address"
        },
        {
          "indexed": true,
          "internalType": "address",
          "name": "sender",
          "type": "address"
        }
      ],
      "name": "RoleRevoked",
      "type": "event"
    },
    {
      "inputs": [],
      "name": "ADMIN_ROLE",
      "outputs": [
        {
          "internalType": "bytes32",
          "name": "",
          "type": "bytes32"
        }
      ],
      "stateMutability": "view",
      "type": "function"
    },
    {
      "inputs": [],
      "name": "BURNER_ROLE",
      "outputs": [
        {
          "internalType": "bytes32",
          "name": "",
          "type": "bytes32"
        }
      ],
      "stateMutability": "view",
      "type": "function"
    },
    {
      "inputs": [],
      "name": "DEFAULT_ADMIN_ROLE",
      "outputs": [
        {
          "internalType": "bytes32",
          "name": "",
          "type": "bytes32"
        }
      ],
      "stateMutability": "view",
      "type": "function"
    },
    {
      "inputs": [],
      "name": "MINTER_ROLE",
      "outputs": [
        {
          "internalType": "bytes32",
          "name": "",
          "type": "bytes32"
        }
      ],
      "stateMutability": "view",
      "type": "function"
    },
    {
      "inputs": [
        {
          "internalType": "address",
          "name": "account",
          "type": "address"
        }
      ],
      "name": "addAdmin",
      "outputs": [],
      "stateMutability": "nonpayable",
      "type": "function"
    },
    {
      "inputs": [],
      "name": "cap",
      "outputs": [
        {
          "internalType": "uint256",
          "name": "",
          "type": "uint256"
        }
      ],
      "stateMutability": "view",
      "type": "function"
    },
    {
      "inputs": [
        {
          "internalType": "bytes32",
          "name": "role",
          "type": "bytes32"
        }
      ],
      "name": "getRoleAdmin",
      "outputs": [
        {
          "internalType": "bytes32",
          "name": "",
          "type": "bytes32"
        }
      ],
      "stateMutability": "view",
      "type": "function"
    },
    {
      "inputs": [
        {
          "internalType": "bytes32",
          "name": "role",
          "type": "bytes32"
        },
        {
          "internalType": "uint256",
          "name": "index",
          "type": "uint256"
        }
      ],
      "name": "getRoleMember",
      "outputs": [
        {
          "internalType": "address",
          "name": "",
          "type": "address"
        }
      ],
      "stateMutability": "view",
      "type": "function"
    },
    {
      "inputs": [
        {
          "internalType": "bytes32",
          "name": "role",
          "type": "bytes32"
        }
      ],
      "name": "getRoleMemberCount",
      "outputs": [
        {
          "internalType": "uint256",
          "name": "",
          "type": "uint256"
        }
      ],
      "stateMutability": "view",
      "type": "function"
    },
    {
      "inputs": [
        {
          "internalType": "bytes32",
          "name": "role",
          "type": "bytes32"
        },
        {
          "internalType": "address",
          "name": "account",
          "type": "address"
        }
      ],
      "name": "grantRole",
      "outputs": [],
      "stateMutability": "nonpayable",
      "type": "function"
    },
    {
      "inputs": [
        {
          "internalType": "bytes32",
          "name": "role",
          "type": "bytes32"
        },
        {
          "internalType": "address",
          "name": "account",
          "type": "address"
        }
      ],
      "name": "hasRole",
      "outputs": [
        {
          "internalType": "bool",
          "name": "",
          "type": "bool"
        }
      ],
      "stateMutability": "view",
      "type": "function"
    },
    {
      "inputs": [
        {
          "internalType": "address",
          "name": "account",
          "type": "address"
        }
      ],
      "name": "isAdmin",
      "outputs": [
        {
          "internalType": "bool",
          "name": "",
          "type": "bool"
        }
      ],
      "stateMutability": "view",
      "type": "function"
    },
    {
      "inputs": [],
      "name": "migratedL2",
      "outputs": [
        {
          "internalType": "bool",
          "name": "",
          "type": "bool"
        }
      ],
      "stateMutability": "view",
      "type": "function"
    },
    {
      "inputs": [],
      "name": "miningPerSecond",
      "outputs": [
        {
          "internalType": "uint256",
          "name": "",
          "type": "uint256"
        }
      ],
      "stateMutability": "view",
      "type": "function"
    },
    {
      "inputs": [],
      "name": "name",
      "outputs": [
        {
          "internalType": "string",
          "name": "",
          "type": "string"
        }
      ],
      "stateMutability": "view",
      "type": "function"
    },
    {
      "inputs": [],
      "name": "pauseProxy",
      "outputs": [
        {
          "internalType": "bool",
          "name": "",
          "type": "bool"
        }
      ],
      "stateMutability": "view",
      "type": "function"
    },
    {
      "inputs": [
        {
          "internalType": "address",
          "name": "account",
          "type": "address"
        }
      ],
      "name": "removeAdmin",
      "outputs": [],
      "stateMutability": "nonpayable",
      "type": "function"
    },
    {
      "inputs": [
        {
          "internalType": "bytes32",
          "name": "role",
          "type": "bytes32"
        },
        {
          "internalType": "address",
          "name": "account",
          "type": "address"
        }
      ],
      "name": "renounceRole",
      "outputs": [],
      "stateMutability": "nonpayable",
      "type": "function"
    },
    {
      "inputs": [
        {
          "internalType": "bytes32",
          "name": "role",
          "type": "bytes32"
        },
        {
          "internalType": "address",
          "name": "account",
          "type": "address"
        }
      ],
      "name": "revokeRole",
      "outputs": [],
      "stateMutability": "nonpayable",
      "type": "function"
    },
    {
      "inputs": [],
      "name": "stakeAddress",
      "outputs": [
        {
          "internalType": "address",
          "name": "",
          "type": "address"
        }
      ],
      "stateMutability": "view",
      "type": "function"
    },
    {
      "inputs": [],
      "name": "stakeType",
      "outputs": [
        {
          "internalType": "uint256",
          "name": "",
          "type": "uint256"
        }
      ],
      "stateMutability": "view",
      "type": "function"
    },
    {
      "inputs": [],
      "name": "tos",
      "outputs": [
        {
          "internalType": "address",
          "name": "",
          "type": "address"
        }
      ],
      "stateMutability": "view",
      "type": "function"
    },
    {
      "inputs": [
        {
          "internalType": "address",
          "name": "newAdmin",
          "type": "address"
        }
      ],
      "name": "transferAdmin",
      "outputs": [],
      "stateMutability": "nonpayable",
      "type": "function"
    }
  ],
  "bytecode": "0x608060405234801561001057600080fd5b50610caa806100206000396000f3fe608060405234801561001057600080fd5b506004361061014d5760003560e01c806375829def116100c3578063a1f5f50e1161007c578063a1f5f50e146103a7578063a217fddf146103af578063b97af0db146103b7578063ca15c873146103bf578063d5391393146103dc578063d547741f146103e45761014d565b806375829def146102fe57806375b238fc14610324578063851073671461032c57806389f395de146103505780639010d07c1461035857806391d148541461037b5761014d565b80632f2ff15d116101155780632f2ff15d14610268578063355274ea1461029457806336568abe1461029c5780634ce77abe146102c857806363a8fd89146102d057806370480275146102d85761014d565b806306fdde03146101525780631785f53c146101cf578063248a9ca3146101f757806324d7806c14610226578063282c51f314610260575b600080fd5b61015a610410565b6040805160208082528351818301528351919283929083019185019080838360005b8381101561019457818101518382015260200161017c565b50505050905090810190601f1680156101c15780820380516001836020036101000a031916815260200191505b509250505060405180910390f35b6101f5600480360360208110156101e557600080fd5b50356001600160a01b031661049b565b005b6102146004803603602081101561020d57600080fd5b50356104fa565b60408051918252519081900360200190f35b61024c6004803603602081101561023c57600080fd5b50356001600160a01b031661050f565b604080519115158252519081900360200190f35b61021461052f565b6101f56004803603604081101561027e57600080fd5b50803590602001356001600160a01b0316610553565b6102146105bf565b6101f5600480360360408110156102b257600080fd5b50803590602001356001600160a01b03166105c5565b610214610626565b61024c61062c565b6101f5600480360360208110156102ee57600080fd5b50356001600160a01b0316610635565b6101f56004803603602081101561031457600080fd5b50356001600160a01b0316610691565b6102146107b2565b6103346107c4565b604080516001600160a01b039092168252519081900360200190f35b6103346107d3565b6103346004803603604081101561036e57600080fd5b50803590602001356107e2565b61024c6004803603604081101561039157600080fd5b50803590602001356001600160a01b0316610801565b61024c610819565b610214610827565b61021461082c565b610214600480360360208110156103d557600080fd5b5035610832565b610214610849565b6101f5600480360360408110156103fa57600080fd5b50803590602001356001600160a01b031661086d565b6002805460408051602060018416156101000260001901909316849004601f810184900484028201840190925281815292918301828280156104935780601f1061046857610100808354040283529160200191610493565b820191906000526020600020905b81548152906001019060200180831161047657829003601f168201915b505050505081565b6104a43361050f565b6104df5760405162461bcd60e51b8152600401808060200182810382526022815260200180610bd46022913960400191505060405180910390fd5b6104f7600080516020610c26833981519152826105c5565b50565b60009081526020819052604090206002015490565b6000610529600080516020610c2683398151915283610801565b92915050565b7f9667e80708b6eeeb0053fa0cca44e028ff548e2a9f029edfeac87c118b08b7c881565b600082815260208190526040902060020154610576906105716108c6565b610801565b6105b15760405162461bcd60e51b815260040180806020018281038252602f815260200180610ba5602f913960400191505060405180910390fd5b6105bb82826108ca565b5050565b60035481565b6105cd6108c6565b6001600160a01b0316816001600160a01b03161461061c5760405162461bcd60e51b815260040180806020018281038252602f815260200180610c46602f913960400191505060405180910390fd5b6105bb8282610933565b60045481565b60085460ff1681565b61063e3361050f565b6106795760405162461bcd60e51b8152600401808060200182810382526022815260200180610bd46022913960400191505060405180910390fd5b6104f7600080516020610c2683398151915282610553565b61069a3361050f565b6106d55760405162461bcd60e51b8152600401808060200182810382526022815260200180610bd46022913960400191505060405180910390fd5b6001600160a01b03811661072b576040805162461bcd60e51b815260206004820152601860248201527741636365737369626c653a207a65726f206164647265737360401b604482015290519081900360640190fd5b336001600160a01b0382161415610782576040805162461bcd60e51b815260206004820152601660248201527520b1b1b2b9b9b4b136329d1039b0b6b29030b236b4b760511b604482015290519081900360640190fd5b61079a600080516020610c2683398151915282610553565b6104f7600080516020610c26833981519152336105c5565b600080516020610c2683398151915281565b6006546001600160a01b031681565b6001546001600160a01b031681565b60008281526020819052604081206107fa908361099c565b9392505050565b60008281526020819052604081206107fa90836109a8565b600854610100900460ff1681565b600081565b60055481565b6000818152602081905260408120610529906109bd565b7ff0887ba65ee2024ea881d91b74c2450ef19e1557f03bed3ea9f16b037cbe2dc981565b60008281526020819052604090206002015461088b906105716108c6565b61061c5760405162461bcd60e51b8152600401808060200182810382526030815260200180610bf66030913960400191505060405180910390fd5b3390565b60008281526020819052604090206108e290826109c8565b156105bb576108ef6108c6565b6001600160a01b0316816001600160a01b0316837f2f8788117e7eff1d82e926ec794901d17c78024a50270940304540a733656f0d60405160405180910390a45050565b600082815260208190526040902061094b90826109dd565b156105bb576109586108c6565b6001600160a01b0316816001600160a01b0316837ff6391f5c32d9c69d2a47ea670b442974b53935d1edc7fd64eb21e047a839171b60405160405180910390a45050565b60006107fa83836109f2565b60006107fa836001600160a01b038416610a56565b600061052982610a6e565b60006107fa836001600160a01b038416610a72565b60006107fa836001600160a01b038416610abc565b81546000908210610a345760405162461bcd60e51b8152600401808060200182810382526022815260200180610b836022913960400191505060405180910390fd5b826000018281548110610a4357fe5b9060005260206000200154905092915050565b60009081526001919091016020526040902054151590565b5490565b6000610a7e8383610a56565b610ab457508154600181810184556000848152602080822090930184905584548482528286019093526040902091909155610529565b506000610529565b60008181526001830160205260408120548015610b785783546000198083019190810190600090879083908110610aef57fe5b9060005260206000200154905080876000018481548110610b0c57fe5b600091825260208083209091019290925582815260018981019092526040902090840190558654879080610b3c57fe5b60019003818190600052602060002001600090559055866001016000878152602001908152602001600020600090556001945050505050610529565b600091505061052956fe456e756d657261626c655365743a20696e646578206f7574206f6620626f756e6473416363657373436f6e74726f6c3a2073656e646572206d75737420626520616e2061646d696e20746f206772616e7441636365737369626c653a2043616c6c6572206973206e6f7420616e2061646d696e416363657373436f6e74726f6c3a2073656e646572206d75737420626520616e2061646d696e20746f207265766f6b65df8b4c520ffe197c5343c6f5aec59570151ef9a492f2c624fd45ddde6135ec42416363657373436f6e74726f6c3a2063616e206f6e6c792072656e6f756e636520726f6c657320666f722073656c66a2646970667358221220e1f7fe467f1043333783b3ad74d70ddad281196d59e6124b40ce0fb75852a4d664736f6c63430007060033",
  "immutableReferences": {},
  "source": "//SPDX-License-Identifier: Unlicense\npragma solidity ^0.7.6;\n\n//import \"../interfaces/IStake2VaultStorage.sol\";\nimport \"../common/AccessibleCommon.sol\";\n\n/// @title the storage of StakeVaultStorage\ncontract Stake2VaultStorage is AccessibleCommon {\n    /// @dev reward token : TOS\n    address public tos;\n\n    /// @dev name\n    string public name;\n\n    /// @dev allocated amount of tos\n    uint256 public cap;\n\n    /// @dev mining amount per second\n    uint256 public miningPerSecond;\n\n    /// @dev Operation type of staking\n    uint256 public stakeType;\n\n    /// @dev a stakeContract maintained by the vault\n    address public stakeAddress;\n\n    uint256 private _lock;\n\n    /// @dev flag for pause proxy\n    bool public pauseProxy;\n\n    ///@dev for migrate L2\n    bool public migratedL2;\n\n    modifier lock() {\n        require(_lock == 0, \"Stake2VaultStorage: LOCKED\");\n        _lock = 1;\n        _;\n        _lock = 0;\n    }\n\n    modifier nonZeroAddress(address _addr) {\n        require(_addr != address(0), \"Stake2VaultStorage: zero address\");\n        _;\n    }\n    modifier nonZero(uint256 _value) {\n        require(_value > 0, \"Stake2VaultStorage: zero value\");\n        _;\n    }\n}\n",
  "sourcePath": "/Users/zena/ico2.0/ico20-contracts/contracts/stake/Stake2VaultStorage.sol",
  "compiler": {
    "name": "solc",
    "version": "0.7.6+commit.7338295f.Emscripten.clang"
  },
  "schemaVersion": "3.3.4",
  "updatedAt": "2021-07-28T11:36:55.563Z",
  "devdoc": {
    "kind": "dev",
    "methods": {
      "addAdmin(address)": {
        "details": "add admin",
        "params": {
          "account": "address to add"
        }
      },
      "getRoleAdmin(bytes32)": {
        "details": "Returns the admin role that controls `role`. See {grantRole} and {revokeRole}. To change a role's admin, use {_setRoleAdmin}."
      },
      "getRoleMember(bytes32,uint256)": {
        "details": "Returns one of the accounts that have `role`. `index` must be a value between 0 and {getRoleMemberCount}, non-inclusive. Role bearers are not sorted in any particular way, and their ordering may change at any point. WARNING: When using {getRoleMember} and {getRoleMemberCount}, make sure you perform all queries on the same block. See the following https://forum.openzeppelin.com/t/iterating-over-elements-on-enumerableset-in-openzeppelin-contracts/2296[forum post] for more information."
      },
      "getRoleMemberCount(bytes32)": {
        "details": "Returns the number of accounts that have `role`. Can be used together with {getRoleMember} to enumerate all bearers of a role."
      },
      "grantRole(bytes32,address)": {
        "details": "Grants `role` to `account`. If `account` had not been already granted `role`, emits a {RoleGranted} event. Requirements: - the caller must have ``role``'s admin role."
      },
      "hasRole(bytes32,address)": {
        "details": "Returns `true` if `account` has been granted `role`."
      },
      "isAdmin(address)": {
        "details": "whether admin",
        "params": {
          "account": "address to check"
        }
      },
      "removeAdmin(address)": {
        "details": "remove admin",
        "params": {
          "account": "address to remove"
        }
      },
      "renounceRole(bytes32,address)": {
        "details": "Revokes `role` from the calling account. Roles are often managed via {grantRole} and {revokeRole}: this function's purpose is to provide a mechanism for accounts to lose their privileges if they are compromised (such as when a trusted device is misplaced). If the calling account had been granted `role`, emits a {RoleRevoked} event. Requirements: - the caller must be `account`."
      },
      "revokeRole(bytes32,address)": {
        "details": "Revokes `role` from `account`. If `account` had been granted `role`, emits a {RoleRevoked} event. Requirements: - the caller must have ``role``'s admin role."
      },
      "transferAdmin(address)": {
        "details": "transfer admin",
        "params": {
          "newAdmin": "new admin address"
        }
      }
    },
    "stateVariables": {
      "cap": {
        "details": "allocated amount of tos"
      },
      "migratedL2": {
        "details": "for migrate L2"
      },
      "miningPerSecond": {
        "details": "mining amount per second"
      },
      "name": {
        "details": "name"
      },
      "pauseProxy": {
        "details": "flag for pause proxy"
      },
      "stakeAddress": {
        "details": "a stakeContract maintained by the vault"
      },
      "stakeType": {
        "details": "Operation type of staking"
      },
      "tos": {
        "details": "reward token : TOS"
      }
    },
    "title": "the storage of StakeVaultStorage",
    "version": 1
  },
  "userdoc": {
    "kind": "user",
    "methods": {},
    "version": 1
  }
}