{
  "contractName": "StakeUniswapV3Factory",
  "abi": [
    {
      "inputs": [
        {
          "internalType": "address",
          "name": "_stakeUniswapV3Logic",
          "type": "address"
        },
        {
          "internalType": "address",
          "name": "_coinageFactory",
          "type": "address"
        }
      ],
      "stateMutability": "nonpayable",
      "type": "constructor"
    },
    {
      "inputs": [],
      "name": "ADMIN_ROLE",
      "outputs": [
        {
          "internalType": "bytes32",
          "name": "",
          "type": "bytes32"
        }
      ],
      "stateMutability": "view",
      "type": "function"
    },
    {
      "inputs": [],
      "name": "BURNER_ROLE",
      "outputs": [
        {
          "internalType": "bytes32",
          "name": "",
          "type": "bytes32"
        }
      ],
      "stateMutability": "view",
      "type": "function"
    },
    {
      "inputs": [],
      "name": "MINTER_ROLE",
      "outputs": [
        {
          "internalType": "bytes32",
          "name": "",
          "type": "bytes32"
        }
      ],
      "stateMutability": "view",
      "type": "function"
    },
    {
      "inputs": [],
      "name": "coinageFactory",
      "outputs": [
        {
          "internalType": "address",
          "name": "",
          "type": "address"
        }
      ],
      "stateMutability": "view",
      "type": "function"
    },
    {
      "inputs": [],
      "name": "stakeUniswapV3Logic",
      "outputs": [
        {
          "internalType": "address",
          "name": "",
          "type": "address"
        }
      ],
      "stateMutability": "view",
      "type": "function"
    },
    {
      "inputs": [
        {
          "internalType": "address[4]",
          "name": "_addr",
          "type": "address[4]"
        },
        {
          "internalType": "address",
          "name": "_registry",
          "type": "address"
        },
        {
          "internalType": "uint256[3]",
          "name": "_intdata",
          "type": "uint256[3]"
        },
        {
          "internalType": "address",
          "name": "owner",
          "type": "address"
        }
      ],
      "name": "create",
      "outputs": [
        {
          "internalType": "address",
          "name": "",
          "type": "address"
        }
      ],
      "stateMutability": "nonpayable",
      "type": "function"
    }
  ],
  "bytecode": "0x608060405234801561001057600080fd5b506040516127e33803806127e38339818101604052604081101561003357600080fd5b5080516020909101516001600160a01b0382161580159061005c57506001600160a01b03811615155b6100975760405162461bcd60e51b81526004018080602001828103825260218152602001806127c26021913960400191505060405180910390fd5b600080546001600160a01b039384166001600160a01b031991821617909155600180549290931691161790556126f0806100d26000396000f3fe608060405234801561001057600080fd5b50600436106100625760003560e01c8063193a83f41461006757806322cad9521461008b578063282c51f31461009357806375b238fc146100ad578063ba3d3045146100b5578063d5391393146100ee575b600080fd5b61006f6100f6565b604080516001600160a01b039092168252519081900360200190f35b61006f610105565b61009b610114565b60408051918252519081900360200190f35b61009b610138565b61006f60048036036101208110156100cc57600080fd5b506001600160a01b03608082013581169060a08301906101008401351661014a565b61009b6103dc565b6000546001600160a01b031681565b6001546001600160a01b031681565b7f9667e80708b6eeeb0053fa0cca44e028ff548e2a9f029edfeac87c118b08b7c881565b60008051602061269b83398151915281565b6000805460015460405183926001600160a01b0390811692169061016d90610400565b6001600160a01b03928316815291166020820152604080519182900301906000f0801580156101a0573d6000803e3d6000fd5b5090506001600160a01b0381166101e85760405162461bcd60e51b815260040180806020018281038252602181526020018061267a6021913960400191505060405180910390fd5b6040516339efe54360e21b81526001600160a01b0382169063e7bf950c9088908890889060040180846080808284376000838201526001600160a01b038616601f909101601f19169092019182525060200182606080828437600081840152601f19601f8201169050808301925050509350505050600060405180830381600087803b15801561027757600080fd5b505af115801561028b573d6000803e3d6000fd5b50505050806001600160a01b0316633ad26df56040518163ffffffff1660e01b8152600401600060405180830381600087803b1580156102ca57600080fd5b505af11580156102de573d6000803e3d6000fd5b50505050806001600160a01b0316632f2ff15d60008051602061269b833981519152856040518363ffffffff1660e01b815260040180838152602001826001600160a01b0316815260200192505050600060405180830381600087803b15801561034757600080fd5b505af115801561035b573d6000803e3d6000fd5b50506040805163d547741f60e01b815260008051602061269b833981519152600482015230602482015290516001600160a01b038516935063d547741f9250604480830192600092919082900301818387803b1580156103ba57600080fd5b505af11580156103ce573d6000803e3d6000fd5b509298975050505050505050565b7ff0887ba65ee2024ea881d91b74c2450ef19e1557f03bed3ea9f16b037cbe2dc981565b61226c8061040e8339019056fe60806040523480156200001157600080fd5b506040516200226c3803806200226c833981810160405260408110156200003757600080fd5b5080516020909101516001600160a01b038216620000875760405162461bcd60e51b81526004018080602001828103825260228152602001806200224a6022913960400191505060405180910390fd5b6200009282620000f6565b6200009d816200016d565b620000b8600080516020620021e483398151915280620001e4565b620000d3600080516020620021e48339815191523362000236565b620000ee600080516020620021e48339815191523062000236565b505062000352565b6200010c816200024660201b620017571760201c565b620001495760405162461bcd60e51b8152600401808060200182810382526046815260200180620022046046913960600191505060405180910390fd5b7f360894a13ba1a3210667c828492db98dca3e2076cc3735a920a3ca505d382bbc55565b62000183816200024660201b620017571760201c565b620001c05760405162461bcd60e51b8152600401808060200182810382526050815260200180620021946050913960600191505060405180910390fd5b7fc7786c8b03ed9d3280cb3993e8a3aa05e40c849d7d1560c7764528bab63ba0ea55565b6000828152601a6020526040808220600201549051839285917fbd79b86ffe0ab8e8776151514217cd7cacd52c909f66475c3af44e129f0b00ff9190a46000918252601a602052604090912060020155565b6200024282826200024c565b5050565b3b151590565b6000828152601a60209081526040909120620002739183906200175d620002c7821b17901c565b15620002425762000283620002e7565b6001600160a01b0316816001600160a01b0316837f2f8788117e7eff1d82e926ec794901d17c78024a50270940304540a733656f0d60405160405180910390a45050565b6000620002de836001600160a01b038416620002eb565b90505b92915050565b3390565b6000620002f983836200033a565b6200033157508154600181810184556000848152602080822090930184905584548482528286019093526040902091909155620002e1565b506000620002e1565b60009081526001919091016020526040902054151590565b611e3280620003626000396000f3fe60806040526004361061028c5760003560e01c806375829def1161015a578063ac893219116100c1578063d53913931161007a578063d5391393146108bb578063d547741f146108d0578063dd49756e14610909578063e7bf950c1461099f578063fbfa77cf14610a3f578063fc0c546a14610a545761029b565b8063ac893219146107c1578063ad1b3909146107f4578063af182fce14610809578063b44a27221461081e578063b8ebb13314610833578063ca15c873146108915761029b565b8063869890381161011357806386989038146107045780639010d07c1461071957806391d1485414610749578063a1f5f50e14610782578063a217fddf14610797578063a73bf6df146107ac5761029b565b806375829def1461060757806375b238fc1461063a578063773fb7cc1461064f5780637cb00d25146106ae5780637e1c0c09146106da57806380f5db8c146106ef5761029b565b80633659cfe6116101fe5780635f139e3f116101b75780635f139e3f1461052557806363a8fd891461053a578063683048351461054f5780637048027514610564578063719de1ef146105975780637419f190146105f25761029b565b80633659cfe6146104655780633ad26df5146104985780634758af8a146104ad57806349cba16c146104c2578063567e98f9146104fb5780635c60da1b146105105761029b565b8063248a9ca311610250578063248a9ca31461035857806324d7806c14610382578063282c51f3146103c95780632867bb5b146103de5780632f2ff15d146103f357806336568abe1461042c5761029b565b806302ff153e146102a3578063089fe6aa146102ca5780631755ff21146102df5780631785f53c146103105780631cbaee2d146103435761029b565b3661029b57610299610a69565b005b610299610a69565b3480156102af57600080fd5b506102b8610aef565b60408051918252519081900360200190f35b3480156102d657600080fd5b506102b8610af5565b3480156102eb57600080fd5b506102f4610afb565b604080516001600160a01b039092168252519081900360200190f35b34801561031c57600080fd5b506102996004803603602081101561033357600080fd5b50356001600160a01b0316610b0a565b34801561034f57600080fd5b506102b8610b69565b34801561036457600080fd5b506102b86004803603602081101561037b57600080fd5b5035610b6f565b34801561038e57600080fd5b506103b5600480360360208110156103a557600080fd5b50356001600160a01b0316610b84565b604080519115158252519081900360200190f35b3480156103d557600080fd5b506102b8610ba4565b3480156103ea57600080fd5b506102b8610bc8565b3480156103ff57600080fd5b506102996004803603604081101561041657600080fd5b50803590602001356001600160a01b0316610bce565b34801561043857600080fd5b506102996004803603604081101561044f57600080fd5b50803590602001356001600160a01b0316610c3a565b34801561047157600080fd5b506102996004803603602081101561048857600080fd5b50356001600160a01b0316610c9b565b3480156104a457600080fd5b50610299610dbb565b3480156104b957600080fd5b506102f4610f75565b3480156104ce57600080fd5b506102b8600480360360408110156104e557600080fd5b506001600160a01b038135169060200135610f84565b34801561050757600080fd5b506102b8610fb5565b34801561051c57600080fd5b506102f4610fbb565b34801561053157600080fd5b506102b8610fca565b34801561054657600080fd5b506103b5610fd0565b34801561055b57600080fd5b506102f4610fd9565b34801561057057600080fd5b506102996004803603602081101561058757600080fd5b50356001600160a01b0316610fe8565b3480156105a357600080fd5b506105ca600480360360208110156105ba57600080fd5b50356001600160a01b0316611044565b6040805194151585526020850193909352838301919091526060830152519081900360800190f35b3480156105fe57600080fd5b506102b861106f565b34801561061357600080fd5b506102996004803603602081101561062a57600080fd5b50356001600160a01b0316611075565b34801561064657600080fd5b506102b8611196565b34801561065b57600080fd5b506102996004803603608081101561067257600080fd5b81019080806080019060048060200260405190810160405280929190826004602002808284376000920191909152509194506111a89350505050565b3480156106ba57600080fd5b50610299600480360360208110156106d157600080fd5b50351515611373565b3480156106e657600080fd5b506102b86113ca565b3480156106fb57600080fd5b506102f46113d0565b34801561071057600080fd5b506102b86113df565b34801561072557600080fd5b506102f46004803603604081101561073c57600080fd5b50803590602001356113e5565b34801561075557600080fd5b506103b56004803603604081101561076c57600080fd5b50803590602001356001600160a01b0316611404565b34801561078e57600080fd5b506103b561141c565b3480156107a357600080fd5b506102b8611425565b3480156107b857600080fd5b506102f461142a565b3480156107cd57600080fd5b50610299600480360360208110156107e457600080fd5b50356001600160a01b0316611439565b34801561080057600080fd5b506102f46114bd565b34801561081557600080fd5b506102b86114cc565b34801561082a57600080fd5b506102f46114d2565b34801561083f57600080fd5b5061085d6004803603602081101561085657600080fd5b50356114e1565b6040805195865263ffffffff9485166020870152929093168483015260608401526080830191909152519081900360a00190f35b34801561089d57600080fd5b506102b8600480360360208110156108b457600080fd5b503561151a565b3480156108c757600080fd5b506102b8611531565b3480156108dc57600080fd5b50610299600480360360408110156108f357600080fd5b50803590602001356001600160a01b0316611555565b34801561091557600080fd5b506109336004803603602081101561092c57600080fd5b50356115ae565b604080516001600160a01b039a8b16815260208101999099526001600160801b0390971688880152600295860b60608901529390940b608087015263ffffffff91821660a08701521660c085015290841660e08401529092166101008201529051908190036101200190f35b3480156109ab57600080fd5b5061029960048036036101008110156109c357600080fd5b81019080806080019060048060200260405190810160405280929190826004602002808284376000920191909152505060408051606081810190925292956001600160a01b0385351695909490936080820193509160209091019060039083908390808284376000920191909152509194506116229350505050565b348015610a4b57600080fd5b506102f4611739565b348015610a6057600080fd5b506102f4611748565b6000610a73610fbb565b90506001600160a01b03811615801590610a905750600c5460ff16155b610acb5760405162461bcd60e51b8152600401808060200182810382526033815260200180611bf76033913960400191505060405180910390fd5b3660008037600080366000845af43d6000803e808015610aea573d6000f35b3d6000fd5b60175481565b60135481565b6012546001600160a01b031681565b610b1333610b84565b610b4e5760405162461bcd60e51b8152600401808060200182810382526022815260200180611b856022913960400191505060405180910390fd5b610b66600080516020611ca983398151915282610c3a565b50565b600e5481565b6000908152601a602052604090206002015490565b6000610b9e600080516020611ca983398151915283611404565b92915050565b7f9667e80708b6eeeb0053fa0cca44e028ff548e2a9f029edfeac87c118b08b7c881565b600f5481565b6000828152601a6020526040902060020154610bf190610bec611772565b611404565b610c2c5760405162461bcd60e51b815260040180806020018281038252602f815260200180611b56602f913960400191505060405180910390fd5b610c368282611776565b5050565b610c42611772565b6001600160a01b0316816001600160a01b031614610c915760405162461bcd60e51b815260040180806020018281038252602f815260200180611dce602f913960400191505060405180910390fd5b610c3682826117df565b610ca433610b84565b610cdf5760405162461bcd60e51b8152600401808060200182810382526022815260200180611b856022913960400191505060405180910390fd5b6001600160a01b038116610d245760405162461bcd60e51b8152600401808060200182810382526021815260200180611dad6021913960400191505060405180910390fd5b806001600160a01b0316610d36611848565b6001600160a01b03161415610d7b576040805162461bcd60e51b8152602060048083019190915260248201526373616d6560e01b604482015290519081900360640190fd5b610d848161186d565b6040516001600160a01b038216907fbc7cd75a20ee27fd9adebab32041f755214dbc6bffa90cc0225b39da2e5c2d3b90600090a250565b610dc433610b84565b610dff5760405162461bcd60e51b8152600401808060200182810382526022815260200180611b856022913960400191505060405180910390fd5b6016546001600160a01b031615610e475760405162461bcd60e51b8152600401808060200182810382526028815260200180611cc96028913960400191505060405180910390fd5b6000610e516118d5565b6001600160a01b03161415610e975760405162461bcd60e51b815260040180806020018281038252602c815260200180611c7d602c913960400191505060405180910390fd5b610e9f6118d5565b6001600160a01b0316634c96a389306040518263ffffffff1660e01b815260040180826001600160a01b03168152602001915050602060405180830381600087803b158015610eed57600080fd5b505af1158015610f01573d6000803e3d6000fd5b505050506040513d6020811015610f1757600080fd5b5051601680546001600160a01b0319166001600160a01b03928316179081905516610f735760405162461bcd60e51b815260040180806020018281038252602d815260200180611d37602d913960400191505060405180910390fd5b565b6011546001600160a01b031681565b60066020528160005260406000208181548110610fa057600080fd5b90600052602060002001600091509150505481565b60055481565b6000610fc5611848565b905090565b60035481565b600c5460ff1681565b6001546001600160a01b031681565b610ff133610b84565b61102c5760405162461bcd60e51b8152600401808060200182810382526022815260200180611b856022913960400191505060405180910390fd5b610b66600080516020611ca983398151915282610bce565b600960205260009081526040902080546001820154600283015460039093015460ff90921692909184565b600d5481565b61107e33610b84565b6110b95760405162461bcd60e51b8152600401808060200182810382526022815260200180611b856022913960400191505060405180910390fd5b6001600160a01b03811661110f576040805162461bcd60e51b815260206004820152601860248201527741636365737369626c653a207a65726f206164647265737360401b604482015290519081900360640190fd5b336001600160a01b0382161415611166576040805162461bcd60e51b815260206004820152601660248201527520b1b1b2b9b9b4b136329d1039b0b6b29030b236b4b760511b604482015290519081900360640190fd5b61117e600080516020611ca983398151915282610bce565b610b66600080516020611ca983398151915233610c3a565b600080516020611ca983398151915281565b6111b133610b84565b6111ec5760405162461bcd60e51b8152600401808060200182810382526022815260200180611b856022913960400191505060405180910390fd5b80516001600160a01b0381166112335760405162461bcd60e51b8152600401808060200182810382526023815260200180611c5a6023913960400191505060405180910390fd5b60208201516001600160a01b03811661127d5760405162461bcd60e51b8152600401808060200182810382526023815260200180611c5a6023913960400191505060405180910390fd5b60408301516001600160a01b0381166112c75760405162461bcd60e51b8152600401808060200182810382526023815260200180611c5a6023913960400191505060405180910390fd5b60608401516001600160a01b0381166113115760405162461bcd60e51b8152600401808060200182810382526023815260200180611c5a6023913960400191505060405180910390fd5b50508251601480546001600160a01b03199081166001600160a01b039384161790915560208501516015805483169184169190911790556040850151601080548316918416919091179055606090940151601180549095169116179092555050565b61137c33610b84565b6113b75760405162461bcd60e51b8152600401808060200182810382526022815260200180611b856022913960400191505060405180910390fd5b600c805460ff1916911515919091179055565b60185481565b6015546001600160a01b031681565b600a5481565b6000828152601a602052604081206113fd90836118fa565b9392505050565b6000828152601a602052604081206113fd9083611906565b60195460ff1681565b600081565b6010546001600160a01b031681565b61144233610b84565b61147d5760405162461bcd60e51b8152600401808060200182810382526022815260200180611b856022913960400191505060405180910390fd5b6114868161191b565b6040516001600160a01b038216907fca97b456472d4c710e538003da4aabca30b5f46f7556eff55a08ce89ac69bc7a90600090a250565b6016546001600160a01b031681565b60045481565b6014546001600160a01b031681565b6008602052600090815260409020805460018201546002830154600390930154919263ffffffff80831693640100000000909304169185565b6000818152601a60205260408120610b9e90611983565b7ff0887ba65ee2024ea881d91b74c2450ef19e1557f03bed3ea9f16b037cbe2dc981565b6000828152601a602052604090206002015461157390610bec611772565b610c915760405162461bcd60e51b8152600401808060200182810382526030815260200180611c2a6030913960400191505060405180910390fd5b60076020526000908152604090208054600182015460028084015460038501546004909501546001600160a01b039485169593946001600160801b03831694600160801b8404850b94600160981b8504900b9363ffffffff600160b01b8204811694600160d01b9092041692918216911689565b61162b33610b84565b6116665760405162461bcd60e51b8152600401808060200182810382526022815260200180611b856022913960400191505060405180910390fd5b6000546001600160a01b0316156116ae5760405162461bcd60e51b8152600401808060200182810382526028815260200180611d856028913960400191505060405180910390fd5b82516001600160a01b03166116f45760405162461bcd60e51b8152600401808060200182810382526021815260200180611d646021913960400191505060405180910390fd5b508151600080546001600160a01b039283166001600160a01b031991821617909155604090930151600280548516918316919091179055600180549093169116179055565b6002546001600160a01b031681565b6000546001600160a01b031681565b3b151590565b60006113fd836001600160a01b03841661198e565b3390565b6000828152601a6020526040902061178e908261175d565b15610c365761179b611772565b6001600160a01b0316816001600160a01b0316837f2f8788117e7eff1d82e926ec794901d17c78024a50270940304540a733656f0d60405160405180910390a45050565b6000828152601a602052604090206117f790826119d8565b15610c3657611804611772565b6001600160a01b0316816001600160a01b0316837ff6391f5c32d9c69d2a47ea670b442974b53935d1edc7fd64eb21e047a839171b60405160405180910390a45050565b7f360894a13ba1a3210667c828492db98dca3e2076cc3735a920a3ca505d382bbc5490565b61187681611757565b6118b15760405162461bcd60e51b8152600401808060200182810382526046815260200180611cf16046913960600191505060405180910390fd5b7f360894a13ba1a3210667c828492db98dca3e2076cc3735a920a3ca505d382bbc55565b7fc7786c8b03ed9d3280cb3993e8a3aa05e40c849d7d1560c7764528bab63ba0ea5490565b60006113fd83836119ed565b60006113fd836001600160a01b038416611a51565b61192481611757565b61195f5760405162461bcd60e51b8152600401808060200182810382526050815260200180611ba76050913960600191505060405180910390fd5b7fc7786c8b03ed9d3280cb3993e8a3aa05e40c849d7d1560c7764528bab63ba0ea55565b6000610b9e82611a69565b600061199a8383611a51565b6119d057508154600181810184556000848152602080822090930184905584548482528286019093526040902091909155610b9e565b506000610b9e565b60006113fd836001600160a01b038416611a6d565b81546000908210611a2f5760405162461bcd60e51b8152600401808060200182810382526022815260200180611b346022913960400191505060405180910390fd5b826000018281548110611a3e57fe5b9060005260206000200154905092915050565b60009081526001919091016020526040902054151590565b5490565b60008181526001830160205260408120548015611b295783546000198083019190810190600090879083908110611aa057fe5b9060005260206000200154905080876000018481548110611abd57fe5b600091825260208083209091019290925582815260018981019092526040902090840190558654879080611aed57fe5b60019003818190600052602060002001600090559055866001016000878152602001908152602001600020600090556001945050505050610b9e565b6000915050610b9e56fe456e756d657261626c655365743a20696e646578206f7574206f6620626f756e6473416363657373436f6e74726f6c3a2073656e646572206d75737420626520616e2061646d696e20746f206772616e7441636365737369626c653a2043616c6c6572206973206e6f7420616e2061646d696e436f696e616765466163746f7279534c4f543a2043616e6e6f742073657420612070726f787920636f696e61676520666163746f727920746f2061206e6f6e2d636f6e747261637420616464726573735374616b65556e6973776170563350726f78793a20696d706c206973207a65726f204f522070726f78792069732066616c7365416363657373436f6e74726f6c3a2073656e646572206d75737420626520616e2061646d696e20746f207265766f6b655374616b65556e6973776170563353746f726167653a207a65726f20616464726573735374616b65556e6973776170563350726f78793a205f636f696e616765466163746f7279206973207a65726fdf8b4c520ffe197c5343c6f5aec59570151ef9a492f2c624fd45ddde6135ec425374616b65556e6973776170563350726f78793a20616c65726164792073657420636f696e61676550726f7879426173653a2043616e6e6f742073657420612070726f787920696d706c656d656e746174696f6e20746f2061206e6f6e2d636f6e747261637420616464726573735374616b65556e6973776170563350726f78793a206465706c6f79656420636f696e616765206973207a65726f5374616b65556e6973776170563350726f78793a20736574496e6974206661696c5374616b65556e6973776170563350726f78793a20616c726561647920696e697469616c697a65645374616b65556e6973776170563350726f78793a20696d706c206973207a65726f416363657373436f6e74726f6c3a2063616e206f6e6c792072656e6f756e636520726f6c657320666f722073656c66a26469706673582212205af9175a4d58d8b8aea413cfccda065751adaedfe8f5b8522fa28d9e1f3371db64736f6c63430007060033436f696e616765466163746f7279534c4f543a2043616e6e6f742073657420612070726f787920636f696e61676520666163746f727920746f2061206e6f6e2d636f6e74726163742061646472657373df8b4c520ffe197c5343c6f5aec59570151ef9a492f2c624fd45ddde6135ec4250726f7879426173653a2043616e6e6f742073657420612070726f787920696d706c656d656e746174696f6e20746f2061206e6f6e2d636f6e747261637420616464726573735374616b65556e6973776170563350726f78793a206c6f676963206973207a65726f5374616b65556e69737761705633466163746f72793a2070726f7879207a65726fdf8b4c520ffe197c5343c6f5aec59570151ef9a492f2c624fd45ddde6135ec42a2646970667358221220f9ff6e3da0825a3b26cbb594aa7d2d7a1f390da930e686f085b47ae210b1c74b64736f6c634300070600335374616b65556e69737761705633466163746f72793a206c6f676963207a65726f",
  "immutableReferences": {},
  "source": "// SPDX-License-Identifier: MIT\npragma solidity ^0.7.6;\n\nimport \"../interfaces/IStakeUniswapV3Factory.sol\";\nimport {StakeUniswapV3Proxy} from \"../stake/StakeUniswapV3Proxy.sol\";\nimport \"../common/AccessRoleCommon.sol\";\n\n/// @title A factory that creates a stake contract that can function as a DeFi function\ncontract StakeUniswapV3Factory is AccessRoleCommon, IStakeUniswapV3Factory {\n    address public stakeUniswapV3Logic;\n    address public coinageFactory;\n\n    /// @dev constructor of StakeCoinageFactory\n    /// @param _stakeUniswapV3Logic the logic address used in stakeUniswapV3\n    /// @param _coinageFactory the _coinage factory address\n    constructor(address _stakeUniswapV3Logic, address _coinageFactory) {\n        require(\n            _stakeUniswapV3Logic != address(0) && _coinageFactory != address(0),\n            \"StakeUniswapV3Factory: logic zero\"\n        );\n        stakeUniswapV3Logic = _stakeUniswapV3Logic;\n        coinageFactory = _coinageFactory;\n    }\n\n    /// @dev Create a stake contract that can operate the staked amount as a DeFi project.\n    /// @param _addr array of [tos, 0, vault, 0 ]\n    /// @param _registry  registry address\n    /// @param _intdata array of [cap, rewardPerBlock, 0]\n    /// @param owner  owner address\n    /// @return contract address\n    function create(\n        address[4] calldata _addr,\n        address _registry,\n        uint256[3] calldata _intdata,\n        address owner\n    ) external override returns (address) {\n        StakeUniswapV3Proxy proxy =\n            new StakeUniswapV3Proxy(stakeUniswapV3Logic, coinageFactory);\n        require(\n            address(proxy) != address(0),\n            \"StakeUniswapV3Factory: proxy zero\"\n        );\n\n        proxy.setInit(_addr, _registry, _intdata);\n        proxy.deployCoinage();\n\n        proxy.grantRole(ADMIN_ROLE, owner);\n        proxy.revokeRole(ADMIN_ROLE, address(this));\n\n        return address(proxy);\n    }\n}\n",
  "sourcePath": "/Users/zena/ico2.0/ico20-contracts/contracts/factory/StakeUniswapV3Factory.sol",
  "compiler": {
    "name": "solc",
    "version": "0.7.6+commit.7338295f.Emscripten.clang"
  },
  "schemaVersion": "3.3.4",
  "updatedAt": "2021-08-06T08:05:55.052Z",
  "devdoc": {
    "kind": "dev",
    "methods": {
      "constructor": {
        "details": "constructor of StakeCoinageFactory",
        "params": {
          "_coinageFactory": "the _coinage factory address",
          "_stakeUniswapV3Logic": "the logic address used in stakeUniswapV3"
        }
      },
      "create(address[4],address,uint256[3],address)": {
        "details": "Create a stake contract that can operate the staked amount as a DeFi project.",
        "params": {
          "_addr": "array of [tos, 0, vault, 0 ]",
          "_intdata": "array of [cap, rewardPerBlock, 0]",
          "_registry": "registry address",
          "owner": "owner address"
        },
        "returns": {
          "_0": "contract address"
        }
      }
    },
    "title": "A factory that creates a stake contract that can function as a DeFi function",
    "version": 1
  },
  "userdoc": {
    "kind": "user",
    "methods": {},
    "version": 1
  }
}