{
  "contractName": "Stake2VaultStorage",
  "abi": [
    {
      "anonymous": false,
      "inputs": [
        {
          "indexed": true,
          "internalType": "bytes32",
          "name": "role",
          "type": "bytes32"
        },
        {
          "indexed": true,
          "internalType": "bytes32",
          "name": "previousAdminRole",
          "type": "bytes32"
        },
        {
          "indexed": true,
          "internalType": "bytes32",
          "name": "newAdminRole",
          "type": "bytes32"
        }
      ],
      "name": "RoleAdminChanged",
      "type": "event"
    },
    {
      "anonymous": false,
      "inputs": [
        {
          "indexed": true,
          "internalType": "bytes32",
          "name": "role",
          "type": "bytes32"
        },
        {
          "indexed": true,
          "internalType": "address",
          "name": "account",
          "type": "address"
        },
        {
          "indexed": true,
          "internalType": "address",
          "name": "sender",
          "type": "address"
        }
      ],
      "name": "RoleGranted",
      "type": "event"
    },
    {
      "anonymous": false,
      "inputs": [
        {
          "indexed": true,
          "internalType": "bytes32",
          "name": "role",
          "type": "bytes32"
        },
        {
          "indexed": true,
          "internalType": "address",
          "name": "account",
          "type": "address"
        },
        {
          "indexed": true,
          "internalType": "address",
          "name": "sender",
          "type": "address"
        }
      ],
      "name": "RoleRevoked",
      "type": "event"
    },
    {
      "inputs": [],
      "name": "ADMIN_ROLE",
      "outputs": [
        {
          "internalType": "bytes32",
          "name": "",
          "type": "bytes32"
        }
      ],
      "stateMutability": "view",
      "type": "function"
    },
    {
      "inputs": [],
      "name": "BURNER_ROLE",
      "outputs": [
        {
          "internalType": "bytes32",
          "name": "",
          "type": "bytes32"
        }
      ],
      "stateMutability": "view",
      "type": "function"
    },
    {
      "inputs": [],
      "name": "DEFAULT_ADMIN_ROLE",
      "outputs": [
        {
          "internalType": "bytes32",
          "name": "",
          "type": "bytes32"
        }
      ],
      "stateMutability": "view",
      "type": "function"
    },
    {
      "inputs": [],
      "name": "MINTER_ROLE",
      "outputs": [
        {
          "internalType": "bytes32",
          "name": "",
          "type": "bytes32"
        }
      ],
      "stateMutability": "view",
      "type": "function"
    },
    {
      "inputs": [
        {
          "internalType": "address",
          "name": "account",
          "type": "address"
        }
      ],
      "name": "addAdmin",
      "outputs": [],
      "stateMutability": "nonpayable",
      "type": "function"
    },
    {
      "inputs": [],
      "name": "cap",
      "outputs": [
        {
          "internalType": "uint256",
          "name": "",
          "type": "uint256"
        }
      ],
      "stateMutability": "view",
      "type": "function"
    },
    {
      "inputs": [
        {
          "internalType": "bytes32",
          "name": "role",
          "type": "bytes32"
        }
      ],
      "name": "getRoleAdmin",
      "outputs": [
        {
          "internalType": "bytes32",
          "name": "",
          "type": "bytes32"
        }
      ],
      "stateMutability": "view",
      "type": "function"
    },
    {
      "inputs": [
        {
          "internalType": "bytes32",
          "name": "role",
          "type": "bytes32"
        },
        {
          "internalType": "uint256",
          "name": "index",
          "type": "uint256"
        }
      ],
      "name": "getRoleMember",
      "outputs": [
        {
          "internalType": "address",
          "name": "",
          "type": "address"
        }
      ],
      "stateMutability": "view",
      "type": "function"
    },
    {
      "inputs": [
        {
          "internalType": "bytes32",
          "name": "role",
          "type": "bytes32"
        }
      ],
      "name": "getRoleMemberCount",
      "outputs": [
        {
          "internalType": "uint256",
          "name": "",
          "type": "uint256"
        }
      ],
      "stateMutability": "view",
      "type": "function"
    },
    {
      "inputs": [
        {
          "internalType": "bytes32",
          "name": "role",
          "type": "bytes32"
        },
        {
          "internalType": "address",
          "name": "account",
          "type": "address"
        }
      ],
      "name": "grantRole",
      "outputs": [],
      "stateMutability": "nonpayable",
      "type": "function"
    },
    {
      "inputs": [
        {
          "internalType": "bytes32",
          "name": "role",
          "type": "bytes32"
        },
        {
          "internalType": "address",
          "name": "account",
          "type": "address"
        }
      ],
      "name": "hasRole",
      "outputs": [
        {
          "internalType": "bool",
          "name": "",
          "type": "bool"
        }
      ],
      "stateMutability": "view",
      "type": "function"
    },
    {
      "inputs": [
        {
          "internalType": "address",
          "name": "account",
          "type": "address"
        }
      ],
      "name": "isAdmin",
      "outputs": [
        {
          "internalType": "bool",
          "name": "",
          "type": "bool"
        }
      ],
      "stateMutability": "view",
      "type": "function"
    },
    {
      "inputs": [],
      "name": "migratedL2",
      "outputs": [
        {
          "internalType": "bool",
          "name": "",
          "type": "bool"
        }
      ],
      "stateMutability": "view",
      "type": "function"
    },
    {
      "inputs": [],
      "name": "miningAmountTotal",
      "outputs": [
        {
          "internalType": "uint256",
          "name": "",
          "type": "uint256"
        }
      ],
      "stateMutability": "view",
      "type": "function"
    },
    {
      "inputs": [],
      "name": "miningPerSecond",
      "outputs": [
        {
          "internalType": "uint256",
          "name": "",
          "type": "uint256"
        }
      ],
      "stateMutability": "view",
      "type": "function"
    },
    {
      "inputs": [],
      "name": "miningStartTime",
      "outputs": [
        {
          "internalType": "uint256",
          "name": "",
          "type": "uint256"
        }
      ],
      "stateMutability": "view",
      "type": "function"
    },
    {
      "inputs": [],
      "name": "name",
      "outputs": [
        {
          "internalType": "string",
          "name": "",
          "type": "string"
        }
      ],
      "stateMutability": "view",
      "type": "function"
    },
    {
      "inputs": [],
      "name": "nonMiningAmountTotal",
      "outputs": [
        {
          "internalType": "uint256",
          "name": "",
          "type": "uint256"
        }
      ],
      "stateMutability": "view",
      "type": "function"
    },
    {
      "inputs": [],
      "name": "pauseProxy",
      "outputs": [
        {
          "internalType": "bool",
          "name": "",
          "type": "bool"
        }
      ],
      "stateMutability": "view",
      "type": "function"
    },
    {
      "inputs": [
        {
          "internalType": "address",
          "name": "account",
          "type": "address"
        }
      ],
      "name": "removeAdmin",
      "outputs": [],
      "stateMutability": "nonpayable",
      "type": "function"
    },
    {
      "inputs": [
        {
          "internalType": "bytes32",
          "name": "role",
          "type": "bytes32"
        },
        {
          "internalType": "address",
          "name": "account",
          "type": "address"
        }
      ],
      "name": "renounceRole",
      "outputs": [],
      "stateMutability": "nonpayable",
      "type": "function"
    },
    {
      "inputs": [
        {
          "internalType": "bytes32",
          "name": "role",
          "type": "bytes32"
        },
        {
          "internalType": "address",
          "name": "account",
          "type": "address"
        }
      ],
      "name": "revokeRole",
      "outputs": [],
      "stateMutability": "nonpayable",
      "type": "function"
    },
    {
      "inputs": [],
      "name": "stakeAddress",
      "outputs": [
        {
          "internalType": "address",
          "name": "",
          "type": "address"
        }
      ],
      "stateMutability": "view",
      "type": "function"
    },
    {
      "inputs": [],
      "name": "stakeType",
      "outputs": [
        {
          "internalType": "uint256",
          "name": "",
          "type": "uint256"
        }
      ],
      "stateMutability": "view",
      "type": "function"
    },
    {
      "inputs": [],
      "name": "tos",
      "outputs": [
        {
          "internalType": "address",
          "name": "",
          "type": "address"
        }
      ],
      "stateMutability": "view",
      "type": "function"
    },
    {
      "inputs": [],
      "name": "totalMinedAmount",
      "outputs": [
        {
          "internalType": "uint256",
          "name": "",
          "type": "uint256"
        }
      ],
      "stateMutability": "view",
      "type": "function"
    },
    {
      "inputs": [
        {
          "internalType": "address",
          "name": "newAdmin",
          "type": "address"
        }
      ],
      "name": "transferAdmin",
      "outputs": [],
      "stateMutability": "nonpayable",
      "type": "function"
    }
  ],
  "bytecode": "0x608060405234801561001057600080fd5b50610d0e806100206000396000f3fe608060405234801561001057600080fd5b50600436106101795760003560e01c806375829def116100d9578063a217fddf11610087578063a217fddf146103eb578063af182fce146103f3578063b97af0db146103fb578063ca15c87314610403578063d539139314610420578063d547741f14610428578063f00915091461045457610179565b806375829def1461033a57806375b238fc14610360578063851073671461036857806389f395de1461038c5780639010d07c1461039457806391d14854146103b7578063a1f5f50e146103e357610179565b80632f2ff15d116101365780632f2ff15d1461029c578063355274ea146102c857806336568abe146102d05780634ce77abe146102fc5780635f139e3f1461030457806363a8fd891461030c578063704802751461031457610179565b806301f88d261461017e57806306fdde03146101985780631785f53c14610215578063248a9ca31461023d57806324d7806c1461025a578063282c51f314610294575b600080fd5b61018661045c565b60408051918252519081900360200190f35b6101a0610462565b6040805160208082528351818301528351919283929083019185019080838360005b838110156101da5781810151838201526020016101c2565b50505050905090810190601f1680156102075780820380516001836020036101000a031916815260200191505b509250505060405180910390f35b61023b6004803603602081101561022b57600080fd5b50356001600160a01b03166104ed565b005b6101866004803603602081101561025357600080fd5b503561054c565b6102806004803603602081101561027057600080fd5b50356001600160a01b0316610561565b604080519115158252519081900360200190f35b610186610581565b61023b600480360360408110156102b257600080fd5b50803590602001356001600160a01b03166105a5565b610186610611565b61023b600480360360408110156102e657600080fd5b50803590602001356001600160a01b0316610617565b610186610678565b61018661067e565b610280610684565b61023b6004803603602081101561032a57600080fd5b50356001600160a01b031661068d565b61023b6004803603602081101561035057600080fd5b50356001600160a01b03166106e9565b61018661080a565b61037061081c565b604080516001600160a01b039092168252519081900360200190f35b61037061082b565b610370600480360360408110156103aa57600080fd5b508035906020013561083a565b610280600480360360408110156103cd57600080fd5b50803590602001356001600160a01b0316610859565b610280610871565b61018661087f565b610186610884565b61018661088a565b6101866004803603602081101561041957600080fd5b5035610890565b6101866108a7565b61023b6004803603604081101561043e57600080fd5b50803590602001356001600160a01b03166108cb565b610186610924565b60045481565b6002805460408051602060018416156101000260001901909316849004601f810184900484028201840190925281815292918301828280156104e55780601f106104ba576101008083540402835291602001916104e5565b820191906000526020600020905b8154815290600101906020018083116104c857829003601f168201915b505050505081565b6104f633610561565b6105315760405162461bcd60e51b8152600401808060200182810382526022815260200180610c386022913960400191505060405180910390fd5b610549600080516020610c8a83398151915282610617565b50565b60009081526020819052604090206002015490565b600061057b600080516020610c8a83398151915283610859565b92915050565b7f9667e80708b6eeeb0053fa0cca44e028ff548e2a9f029edfeac87c118b08b7c881565b6000828152602081905260409020600201546105c8906105c361092a565b610859565b6106035760405162461bcd60e51b815260040180806020018281038252602f815260200180610c09602f913960400191505060405180910390fd5b61060d828261092e565b5050565b60035481565b61061f61092a565b6001600160a01b0316816001600160a01b03161461066e5760405162461bcd60e51b815260040180806020018281038252602f815260200180610caa602f913960400191505060405180910390fd5b61060d8282610997565b60055481565b60085481565b600c5460ff1681565b61069633610561565b6106d15760405162461bcd60e51b8152600401808060200182810382526022815260200180610c386022913960400191505060405180910390fd5b610549600080516020610c8a833981519152826105a5565b6106f233610561565b61072d5760405162461bcd60e51b8152600401808060200182810382526022815260200180610c386022913960400191505060405180910390fd5b6001600160a01b038116610783576040805162461bcd60e51b815260206004820152601860248201527741636365737369626c653a207a65726f206164647265737360401b604482015290519081900360640190fd5b336001600160a01b03821614156107da576040805162461bcd60e51b815260206004820152601660248201527520b1b1b2b9b9b4b136329d1039b0b6b29030b236b4b760511b604482015290519081900360640190fd5b6107f2600080516020610c8a833981519152826105a5565b610549600080516020610c8a83398151915233610617565b600080516020610c8a83398151915281565b6007546001600160a01b031681565b6001546001600160a01b031681565b60008281526020819052604081206108529083610a00565b9392505050565b60008281526020819052604081206108529083610a0c565b600c54610100900460ff1681565b600081565b60095481565b60065481565b600081815260208190526040812061057b90610a21565b7ff0887ba65ee2024ea881d91b74c2450ef19e1557f03bed3ea9f16b037cbe2dc981565b6000828152602081905260409020600201546108e9906105c361092a565b61066e5760405162461bcd60e51b8152600401808060200182810382526030815260200180610c5a6030913960400191505060405180910390fd5b600a5481565b3390565b60008281526020819052604090206109469082610a2c565b1561060d5761095361092a565b6001600160a01b0316816001600160a01b0316837f2f8788117e7eff1d82e926ec794901d17c78024a50270940304540a733656f0d60405160405180910390a45050565b60008281526020819052604090206109af9082610a41565b1561060d576109bc61092a565b6001600160a01b0316816001600160a01b0316837ff6391f5c32d9c69d2a47ea670b442974b53935d1edc7fd64eb21e047a839171b60405160405180910390a45050565b60006108528383610a56565b6000610852836001600160a01b038416610aba565b600061057b82610ad2565b6000610852836001600160a01b038416610ad6565b6000610852836001600160a01b038416610b20565b81546000908210610a985760405162461bcd60e51b8152600401808060200182810382526022815260200180610be76022913960400191505060405180910390fd5b826000018281548110610aa757fe5b9060005260206000200154905092915050565b60009081526001919091016020526040902054151590565b5490565b6000610ae28383610aba565b610b185750815460018181018455600084815260208082209093018490558454848252828601909352604090209190915561057b565b50600061057b565b60008181526001830160205260408120548015610bdc5783546000198083019190810190600090879083908110610b5357fe5b9060005260206000200154905080876000018481548110610b7057fe5b600091825260208083209091019290925582815260018981019092526040902090840190558654879080610ba057fe5b6001900381819060005260206000200160009055905586600101600087815260200190815260200160002060009055600194505050505061057b565b600091505061057b56fe456e756d657261626c655365743a20696e646578206f7574206f6620626f756e6473416363657373436f6e74726f6c3a2073656e646572206d75737420626520616e2061646d696e20746f206772616e7441636365737369626c653a2043616c6c6572206973206e6f7420616e2061646d696e416363657373436f6e74726f6c3a2073656e646572206d75737420626520616e2061646d696e20746f207265766f6b65df8b4c520ffe197c5343c6f5aec59570151ef9a492f2c624fd45ddde6135ec42416363657373436f6e74726f6c3a2063616e206f6e6c792072656e6f756e636520726f6c657320666f722073656c66a2646970667358221220cdd8318d4e2f63f4a298fe20bee33d8c2d92621374c5e09e90c5ae97e74cbc5864736f6c63430007060033",
  "immutableReferences": {},
  "source": "//SPDX-License-Identifier: Unlicense\npragma solidity ^0.7.6;\n\n//import \"../interfaces/IStake2VaultStorage.sol\";\nimport \"../common/AccessibleCommon.sol\";\n\n/// @title the storage of StakeVaultStorage\ncontract Stake2VaultStorage is AccessibleCommon {\n    /// @dev reward token : TOS\n    address public tos;\n\n    /// @dev name\n    string public name;\n\n    /// @dev allocated amount of tos\n    uint256 public cap;\n\n    /// @dev mining start time\n    uint256 public miningStartTime;\n\n    /// @dev mining amount per second\n    uint256 public miningPerSecond;\n\n    /// @dev Operation type of staking\n    uint256 public stakeType;\n\n    /// @dev a stakeContract maintained by the vault\n    address public stakeAddress;\n\n    /// @dev the total amount transfered to miner\n    uint256 public miningAmountTotal;\n\n    /// @dev Rewards have been allocated,\n    ///      but liquidity is lost, and burned amount .\n    uint256 public nonMiningAmountTotal;\n\n    /// @dev the total mined amount\n    uint256 public totalMinedAmount;\n\n    uint256 private _lock;\n\n    /// @dev flag for pause proxy\n    bool public pauseProxy;\n\n    ///@dev for migrate L2\n    bool public migratedL2;\n\n    modifier lock() {\n        require(_lock == 0, \"Stake2VaultStorage: LOCKED\");\n        _lock = 1;\n        _;\n        _lock = 0;\n    }\n\n    modifier nonZeroAddress(address _addr) {\n        require(_addr != address(0), \"Stake2VaultStorage: zero address\");\n        _;\n    }\n    modifier nonZero(uint256 _value) {\n        require(_value > 0, \"Stake2VaultStorage: zero value\");\n        _;\n    }\n}\n",
  "sourcePath": "/Users/zena/ico2.0/ico20-contracts/contracts/stake/Stake2VaultStorage.sol",
  "compiler": {
    "name": "solc",
    "version": "0.7.6+commit.7338295f.Emscripten.clang"
  },
  "schemaVersion": "3.3.4",
  "updatedAt": "2021-08-01T15:27:40.560Z",
  "devdoc": {
    "kind": "dev",
    "methods": {
      "addAdmin(address)": {
        "details": "add admin",
        "params": {
          "account": "address to add"
        }
      },
      "getRoleAdmin(bytes32)": {
        "details": "Returns the admin role that controls `role`. See {grantRole} and {revokeRole}. To change a role's admin, use {_setRoleAdmin}."
      },
      "getRoleMember(bytes32,uint256)": {
        "details": "Returns one of the accounts that have `role`. `index` must be a value between 0 and {getRoleMemberCount}, non-inclusive. Role bearers are not sorted in any particular way, and their ordering may change at any point. WARNING: When using {getRoleMember} and {getRoleMemberCount}, make sure you perform all queries on the same block. See the following https://forum.openzeppelin.com/t/iterating-over-elements-on-enumerableset-in-openzeppelin-contracts/2296[forum post] for more information."
      },
      "getRoleMemberCount(bytes32)": {
        "details": "Returns the number of accounts that have `role`. Can be used together with {getRoleMember} to enumerate all bearers of a role."
      },
      "grantRole(bytes32,address)": {
        "details": "Grants `role` to `account`. If `account` had not been already granted `role`, emits a {RoleGranted} event. Requirements: - the caller must have ``role``'s admin role."
      },
      "hasRole(bytes32,address)": {
        "details": "Returns `true` if `account` has been granted `role`."
      },
      "isAdmin(address)": {
        "details": "whether admin",
        "params": {
          "account": "address to check"
        }
      },
      "removeAdmin(address)": {
        "details": "remove admin",
        "params": {
          "account": "address to remove"
        }
      },
      "renounceRole(bytes32,address)": {
        "details": "Revokes `role` from the calling account. Roles are often managed via {grantRole} and {revokeRole}: this function's purpose is to provide a mechanism for accounts to lose their privileges if they are compromised (such as when a trusted device is misplaced). If the calling account had been granted `role`, emits a {RoleRevoked} event. Requirements: - the caller must be `account`."
      },
      "revokeRole(bytes32,address)": {
        "details": "Revokes `role` from `account`. If `account` had been granted `role`, emits a {RoleRevoked} event. Requirements: - the caller must have ``role``'s admin role."
      },
      "transferAdmin(address)": {
        "details": "transfer admin",
        "params": {
          "newAdmin": "new admin address"
        }
      }
    },
    "stateVariables": {
      "cap": {
        "details": "allocated amount of tos"
      },
      "migratedL2": {
        "details": "for migrate L2"
      },
      "miningAmountTotal": {
        "details": "the total amount transfered to miner"
      },
      "miningPerSecond": {
        "details": "mining amount per second"
      },
      "miningStartTime": {
        "details": "mining start time"
      },
      "name": {
        "details": "name"
      },
      "nonMiningAmountTotal": {
        "details": "Rewards have been allocated,      but liquidity is lost, and burned amount ."
      },
      "pauseProxy": {
        "details": "flag for pause proxy"
      },
      "stakeAddress": {
        "details": "a stakeContract maintained by the vault"
      },
      "stakeType": {
        "details": "Operation type of staking"
      },
      "tos": {
        "details": "reward token : TOS"
      },
      "totalMinedAmount": {
        "details": "the total mined amount"
      }
    },
    "title": "the storage of StakeVaultStorage",
    "version": 1
  },
  "userdoc": {
    "kind": "user",
    "methods": {},
    "version": 1
  }
}