{
  "contractName": "StakeUniswapV3Proxy",
  "abi": [
    {
      "inputs": [
        {
          "internalType": "address",
          "name": "_logic",
          "type": "address"
        },
        {
          "internalType": "address",
          "name": "_coinageFactory",
          "type": "address"
        }
      ],
      "stateMutability": "nonpayable",
      "type": "constructor"
    },
    {
      "anonymous": false,
      "inputs": [
        {
          "indexed": true,
          "internalType": "bytes32",
          "name": "role",
          "type": "bytes32"
        },
        {
          "indexed": true,
          "internalType": "bytes32",
          "name": "previousAdminRole",
          "type": "bytes32"
        },
        {
          "indexed": true,
          "internalType": "bytes32",
          "name": "newAdminRole",
          "type": "bytes32"
        }
      ],
      "name": "RoleAdminChanged",
      "type": "event"
    },
    {
      "anonymous": false,
      "inputs": [
        {
          "indexed": true,
          "internalType": "bytes32",
          "name": "role",
          "type": "bytes32"
        },
        {
          "indexed": true,
          "internalType": "address",
          "name": "account",
          "type": "address"
        },
        {
          "indexed": true,
          "internalType": "address",
          "name": "sender",
          "type": "address"
        }
      ],
      "name": "RoleGranted",
      "type": "event"
    },
    {
      "anonymous": false,
      "inputs": [
        {
          "indexed": true,
          "internalType": "bytes32",
          "name": "role",
          "type": "bytes32"
        },
        {
          "indexed": true,
          "internalType": "address",
          "name": "account",
          "type": "address"
        },
        {
          "indexed": true,
          "internalType": "address",
          "name": "sender",
          "type": "address"
        }
      ],
      "name": "RoleRevoked",
      "type": "event"
    },
    {
      "anonymous": false,
      "inputs": [
        {
          "indexed": true,
          "internalType": "address",
          "name": "coinageFactory",
          "type": "address"
        }
      ],
      "name": "SetCoinageFactory",
      "type": "event"
    },
    {
      "anonymous": false,
      "inputs": [
        {
          "indexed": true,
          "internalType": "address",
          "name": "implementation",
          "type": "address"
        }
      ],
      "name": "Upgraded",
      "type": "event"
    },
    {
      "stateMutability": "payable",
      "type": "fallback"
    },
    {
      "inputs": [],
      "name": "ADMIN_ROLE",
      "outputs": [
        {
          "internalType": "bytes32",
          "name": "",
          "type": "bytes32"
        }
      ],
      "stateMutability": "view",
      "type": "function"
    },
    {
      "inputs": [],
      "name": "BURNER_ROLE",
      "outputs": [
        {
          "internalType": "bytes32",
          "name": "",
          "type": "bytes32"
        }
      ],
      "stateMutability": "view",
      "type": "function"
    },
    {
      "inputs": [],
      "name": "DEFAULT_ADMIN_ROLE",
      "outputs": [
        {
          "internalType": "bytes32",
          "name": "",
          "type": "bytes32"
        }
      ],
      "stateMutability": "view",
      "type": "function"
    },
    {
      "inputs": [],
      "name": "MINTER_ROLE",
      "outputs": [
        {
          "internalType": "bytes32",
          "name": "",
          "type": "bytes32"
        }
      ],
      "stateMutability": "view",
      "type": "function"
    },
    {
      "inputs": [
        {
          "internalType": "address",
          "name": "account",
          "type": "address"
        }
      ],
      "name": "addAdmin",
      "outputs": [],
      "stateMutability": "nonpayable",
      "type": "function"
    },
    {
      "inputs": [],
      "name": "coinage",
      "outputs": [
        {
          "internalType": "address",
          "name": "",
          "type": "address"
        }
      ],
      "stateMutability": "view",
      "type": "function"
    },
    {
      "inputs": [],
      "name": "coinageLastMintBlockTimetamp",
      "outputs": [
        {
          "internalType": "uint256",
          "name": "",
          "type": "uint256"
        }
      ],
      "stateMutability": "view",
      "type": "function"
    },
    {
      "inputs": [
        {
          "internalType": "uint256",
          "name": "",
          "type": "uint256"
        }
      ],
      "name": "depositTokens",
      "outputs": [
        {
          "internalType": "address",
          "name": "owner",
          "type": "address"
        },
        {
          "internalType": "uint256",
          "name": "idIndex",
          "type": "uint256"
        },
        {
          "internalType": "uint128",
          "name": "liquidity",
          "type": "uint128"
        },
        {
          "internalType": "int24",
          "name": "tickLower",
          "type": "int24"
        },
        {
          "internalType": "int24",
          "name": "tickUpper",
          "type": "int24"
        },
        {
          "internalType": "uint32",
          "name": "startTime",
          "type": "uint32"
        },
        {
          "internalType": "uint32",
          "name": "endTime",
          "type": "uint32"
        },
        {
          "internalType": "uint32",
          "name": "claimedTime",
          "type": "uint32"
        },
        {
          "internalType": "uint160",
          "name": "secondsInsideInitial",
          "type": "uint160"
        },
        {
          "internalType": "uint160",
          "name": "secondsInsideLast",
          "type": "uint160"
        }
      ],
      "stateMutability": "view",
      "type": "function"
    },
    {
      "inputs": [
        {
          "internalType": "bytes32",
          "name": "role",
          "type": "bytes32"
        }
      ],
      "name": "getRoleAdmin",
      "outputs": [
        {
          "internalType": "bytes32",
          "name": "",
          "type": "bytes32"
        }
      ],
      "stateMutability": "view",
      "type": "function"
    },
    {
      "inputs": [
        {
          "internalType": "bytes32",
          "name": "role",
          "type": "bytes32"
        },
        {
          "internalType": "uint256",
          "name": "index",
          "type": "uint256"
        }
      ],
      "name": "getRoleMember",
      "outputs": [
        {
          "internalType": "address",
          "name": "",
          "type": "address"
        }
      ],
      "stateMutability": "view",
      "type": "function"
    },
    {
      "inputs": [
        {
          "internalType": "bytes32",
          "name": "role",
          "type": "bytes32"
        }
      ],
      "name": "getRoleMemberCount",
      "outputs": [
        {
          "internalType": "uint256",
          "name": "",
          "type": "uint256"
        }
      ],
      "stateMutability": "view",
      "type": "function"
    },
    {
      "inputs": [
        {
          "internalType": "bytes32",
          "name": "role",
          "type": "bytes32"
        },
        {
          "internalType": "address",
          "name": "account",
          "type": "address"
        }
      ],
      "name": "grantRole",
      "outputs": [],
      "stateMutability": "nonpayable",
      "type": "function"
    },
    {
      "inputs": [
        {
          "internalType": "bytes32",
          "name": "role",
          "type": "bytes32"
        },
        {
          "internalType": "address",
          "name": "account",
          "type": "address"
        }
      ],
      "name": "hasRole",
      "outputs": [
        {
          "internalType": "bool",
          "name": "",
          "type": "bool"
        }
      ],
      "stateMutability": "view",
      "type": "function"
    },
    {
      "inputs": [
        {
          "internalType": "address",
          "name": "account",
          "type": "address"
        }
      ],
      "name": "isAdmin",
      "outputs": [
        {
          "internalType": "bool",
          "name": "",
          "type": "bool"
        }
      ],
      "stateMutability": "view",
      "type": "function"
    },
    {
      "inputs": [],
      "name": "migratedL2",
      "outputs": [
        {
          "internalType": "bool",
          "name": "",
          "type": "bool"
        }
      ],
      "stateMutability": "view",
      "type": "function"
    },
    {
      "inputs": [],
      "name": "miningAmountTotal",
      "outputs": [
        {
          "internalType": "uint256",
          "name": "",
          "type": "uint256"
        }
      ],
      "stateMutability": "view",
      "type": "function"
    },
    {
      "inputs": [],
      "name": "miningIntervalSeconds",
      "outputs": [
        {
          "internalType": "uint256",
          "name": "",
          "type": "uint256"
        }
      ],
      "stateMutability": "view",
      "type": "function"
    },
    {
      "inputs": [],
      "name": "nonMiningAmountTotal",
      "outputs": [
        {
          "internalType": "uint256",
          "name": "",
          "type": "uint256"
        }
      ],
      "stateMutability": "view",
      "type": "function"
    },
    {
      "inputs": [],
      "name": "nonfungiblePositionManager",
      "outputs": [
        {
          "internalType": "contract INonfungiblePositionManager",
          "name": "",
          "type": "address"
        }
      ],
      "stateMutability": "view",
      "type": "function"
    },
    {
      "inputs": [],
      "name": "pauseProxy",
      "outputs": [
        {
          "internalType": "bool",
          "name": "",
          "type": "bool"
        }
      ],
      "stateMutability": "view",
      "type": "function"
    },
    {
      "inputs": [],
      "name": "poolAddress",
      "outputs": [
        {
          "internalType": "address",
          "name": "",
          "type": "address"
        }
      ],
      "stateMutability": "view",
      "type": "function"
    },
    {
      "inputs": [],
      "name": "poolFee",
      "outputs": [
        {
          "internalType": "uint256",
          "name": "",
          "type": "uint256"
        }
      ],
      "stateMutability": "view",
      "type": "function"
    },
    {
      "inputs": [],
      "name": "poolToken0",
      "outputs": [
        {
          "internalType": "address",
          "name": "",
          "type": "address"
        }
      ],
      "stateMutability": "view",
      "type": "function"
    },
    {
      "inputs": [],
      "name": "poolToken1",
      "outputs": [
        {
          "internalType": "address",
          "name": "",
          "type": "address"
        }
      ],
      "stateMutability": "view",
      "type": "function"
    },
    {
      "inputs": [
        {
          "internalType": "address",
          "name": "account",
          "type": "address"
        }
      ],
      "name": "removeAdmin",
      "outputs": [],
      "stateMutability": "nonpayable",
      "type": "function"
    },
    {
      "inputs": [
        {
          "internalType": "bytes32",
          "name": "role",
          "type": "bytes32"
        },
        {
          "internalType": "address",
          "name": "account",
          "type": "address"
        }
      ],
      "name": "renounceRole",
      "outputs": [],
      "stateMutability": "nonpayable",
      "type": "function"
    },
    {
      "inputs": [
        {
          "internalType": "bytes32",
          "name": "role",
          "type": "bytes32"
        },
        {
          "internalType": "address",
          "name": "account",
          "type": "address"
        }
      ],
      "name": "revokeRole",
      "outputs": [],
      "stateMutability": "nonpayable",
      "type": "function"
    },
    {
      "inputs": [],
      "name": "stakeRegistry",
      "outputs": [
        {
          "internalType": "address",
          "name": "",
          "type": "address"
        }
      ],
      "stateMutability": "view",
      "type": "function"
    },
    {
      "inputs": [
        {
          "internalType": "uint256",
          "name": "",
          "type": "uint256"
        }
      ],
      "name": "stakedCoinageTokens",
      "outputs": [
        {
          "internalType": "uint256",
          "name": "amount",
          "type": "uint256"
        },
        {
          "internalType": "uint32",
          "name": "startTime",
          "type": "uint32"
        },
        {
          "internalType": "uint32",
          "name": "claimedTime",
          "type": "uint32"
        },
        {
          "internalType": "uint256",
          "name": "claimedAmount",
          "type": "uint256"
        },
        {
          "internalType": "uint256",
          "name": "nonMiningAmount",
          "type": "uint256"
        }
      ],
      "stateMutability": "view",
      "type": "function"
    },
    {
      "inputs": [],
      "name": "startTime",
      "outputs": [
        {
          "internalType": "uint256",
          "name": "",
          "type": "uint256"
        }
      ],
      "stateMutability": "view",
      "type": "function"
    },
    {
      "inputs": [],
      "name": "token",
      "outputs": [
        {
          "internalType": "address",
          "name": "",
          "type": "address"
        }
      ],
      "stateMutability": "view",
      "type": "function"
    },
    {
      "inputs": [],
      "name": "totalStakedAmount",
      "outputs": [
        {
          "internalType": "uint256",
          "name": "",
          "type": "uint256"
        }
      ],
      "stateMutability": "view",
      "type": "function"
    },
    {
      "inputs": [],
      "name": "totalStakers",
      "outputs": [
        {
          "internalType": "uint256",
          "name": "",
          "type": "uint256"
        }
      ],
      "stateMutability": "view",
      "type": "function"
    },
    {
      "inputs": [],
      "name": "totalTokens",
      "outputs": [
        {
          "internalType": "uint256",
          "name": "",
          "type": "uint256"
        }
      ],
      "stateMutability": "view",
      "type": "function"
    },
    {
      "inputs": [
        {
          "internalType": "address",
          "name": "newAdmin",
          "type": "address"
        }
      ],
      "name": "transferAdmin",
      "outputs": [],
      "stateMutability": "nonpayable",
      "type": "function"
    },
    {
      "inputs": [],
      "name": "uniswapV3FactoryAddress",
      "outputs": [
        {
          "internalType": "address",
          "name": "",
          "type": "address"
        }
      ],
      "stateMutability": "view",
      "type": "function"
    },
    {
      "inputs": [
        {
          "internalType": "address",
          "name": "",
          "type": "address"
        },
        {
          "internalType": "uint256",
          "name": "",
          "type": "uint256"
        }
      ],
      "name": "userStakedTokenIds",
      "outputs": [
        {
          "internalType": "uint256",
          "name": "",
          "type": "uint256"
        }
      ],
      "stateMutability": "view",
      "type": "function"
    },
    {
      "inputs": [
        {
          "internalType": "address",
          "name": "",
          "type": "address"
        }
      ],
      "name": "userTotalStaked",
      "outputs": [
        {
          "internalType": "bool",
          "name": "staked",
          "type": "bool"
        },
        {
          "internalType": "uint256",
          "name": "totalDepositAmount",
          "type": "uint256"
        },
        {
          "internalType": "uint256",
          "name": "totalMiningAmount",
          "type": "uint256"
        },
        {
          "internalType": "uint256",
          "name": "totalNonMiningAmount",
          "type": "uint256"
        }
      ],
      "stateMutability": "view",
      "type": "function"
    },
    {
      "inputs": [],
      "name": "vault",
      "outputs": [
        {
          "internalType": "address",
          "name": "",
          "type": "address"
        }
      ],
      "stateMutability": "view",
      "type": "function"
    },
    {
      "stateMutability": "payable",
      "type": "receive"
    },
    {
      "inputs": [
        {
          "internalType": "bool",
          "name": "_pause",
          "type": "bool"
        }
      ],
      "name": "setProxyPause",
      "outputs": [],
      "stateMutability": "nonpayable",
      "type": "function"
    },
    {
      "inputs": [
        {
          "internalType": "address",
          "name": "impl",
          "type": "address"
        }
      ],
      "name": "upgradeTo",
      "outputs": [],
      "stateMutability": "nonpayable",
      "type": "function"
    },
    {
      "inputs": [],
      "name": "implementation",
      "outputs": [
        {
          "internalType": "address",
          "name": "",
          "type": "address"
        }
      ],
      "stateMutability": "view",
      "type": "function"
    },
    {
      "inputs": [
        {
          "internalType": "address",
          "name": "_newCoinageFactory",
          "type": "address"
        }
      ],
      "name": "setCoinageFactory",
      "outputs": [],
      "stateMutability": "nonpayable",
      "type": "function"
    },
    {
      "inputs": [
        {
          "internalType": "address[4]",
          "name": "_addr",
          "type": "address[4]"
        },
        {
          "internalType": "address",
          "name": "_registry",
          "type": "address"
        },
        {
          "internalType": "uint256[3]",
          "name": "_intdata",
          "type": "uint256[3]"
        }
      ],
      "name": "setInit",
      "outputs": [],
      "stateMutability": "nonpayable",
      "type": "function"
    },
    {
      "inputs": [],
      "name": "deployCoinage",
      "outputs": [],
      "stateMutability": "nonpayable",
      "type": "function"
    },
    {
      "inputs": [
        {
          "internalType": "address[4]",
          "name": "uniswapInfo",
          "type": "address[4]"
        }
      ],
      "name": "setPool",
      "outputs": [],
      "stateMutability": "nonpayable",
      "type": "function"
    }
  ],
  "bytecode": "0x60806040523480156200001157600080fd5b506040516200225b3803806200225b833981810160405260408110156200003757600080fd5b5080516020909101516001600160a01b038216620000875760405162461bcd60e51b8152600401808060200182810382526022815260200180620022396022913960400191505060405180910390fd5b6200009282620000f6565b6200009d816200016d565b620000b8600080516020620021d383398151915280620001e4565b620000d3600080516020620021d38339815191523362000236565b620000ee600080516020620021d38339815191523062000236565b505062000352565b6200010c816200024660201b620017461760201c565b620001495760405162461bcd60e51b8152600401808060200182810382526046815260200180620021f36046913960600191505060405180910390fd5b7f360894a13ba1a3210667c828492db98dca3e2076cc3735a920a3ca505d382bbc55565b62000183816200024660201b620017461760201c565b620001c05760405162461bcd60e51b8152600401808060200182810382526050815260200180620021836050913960600191505060405180910390fd5b7fc7786c8b03ed9d3280cb3993e8a3aa05e40c849d7d1560c7764528bab63ba0ea55565b600082815260196020526040808220600201549051839285917fbd79b86ffe0ab8e8776151514217cd7cacd52c909f66475c3af44e129f0b00ff9190a460009182526019602052604090912060020155565b6200024282826200024c565b5050565b3b151590565b6000828152601960209081526040909120620002739183906200174c620002c7821b17901c565b15620002425762000283620002e7565b6001600160a01b0316816001600160a01b0316837f2f8788117e7eff1d82e926ec794901d17c78024a50270940304540a733656f0d60405160405180910390a45050565b6000620002de836001600160a01b038416620002eb565b90505b92915050565b3390565b6000620002f983836200033a565b6200033157508154600181810184556000848152602080822090930184905584548482528286019093526040902091909155620002e1565b506000620002e1565b60009081526001919091016020526040902054151590565b611e2180620003626000396000f3fe6080604052600436106102815760003560e01c8063773fb7cc1161014f578063ac893219116100c1578063d53913931161007a578063d53913931461089b578063d547741f146108b0578063dd49756e146108e9578063e7bf950c14610988578063fbfa77cf14610a28578063fc0c546a14610a3d57610290565b8063ac893219146107a1578063ad1b3909146107d4578063af182fce146107e9578063b44a2722146107fe578063b8ebb13314610813578063ca15c8731461087157610290565b8063869890381161011357806386989038146106e45780639010d07c146106f957806391d1485414610729578063a1f5f50e14610762578063a217fddf14610777578063a73bf6df1461078c57610290565b8063773fb7cc1461061a57806378e97925146106795780637cb00d251461068e5780637e1c0c09146106ba57806380f5db8c146106cf57610290565b80633ad26df5116101f357806363a8fd89116101ac57806363a8fd891461051a578063683048351461052f5780637048027514610544578063719de1ef1461057757806375829def146105d257806375b238fc1461060557610290565b80633ad26df5146104785780634758af8a1461048d57806349cba16c146104a2578063567e98f9146104db5780635c60da1b146104f05780635f139e3f1461050557610290565b806324d7806c1161024557806324d7806c14610362578063282c51f3146103a95780632867bb5b146103be5780632f2ff15d146103d357806336568abe1461040c5780633659cfe61461044557610290565b806302ff153e14610298578063089fe6aa146102bf5780631755ff21146102d45780631785f53c14610305578063248a9ca31461033857610290565b366102905761028e610a52565b005b61028e610a52565b3480156102a457600080fd5b506102ad610ad8565b60408051918252519081900360200190f35b3480156102cb57600080fd5b506102ad610ade565b3480156102e057600080fd5b506102e9610ae4565b604080516001600160a01b039092168252519081900360200190f35b34801561031157600080fd5b5061028e6004803603602081101561032857600080fd5b50356001600160a01b0316610af3565b34801561034457600080fd5b506102ad6004803603602081101561035b57600080fd5b5035610b52565b34801561036e57600080fd5b506103956004803603602081101561038557600080fd5b50356001600160a01b0316610b67565b604080519115158252519081900360200190f35b3480156103b557600080fd5b506102ad610b87565b3480156103ca57600080fd5b506102ad610bab565b3480156103df57600080fd5b5061028e600480360360408110156103f657600080fd5b50803590602001356001600160a01b0316610bb1565b34801561041857600080fd5b5061028e6004803603604081101561042f57600080fd5b50803590602001356001600160a01b0316610c1d565b34801561045157600080fd5b5061028e6004803603602081101561046857600080fd5b50356001600160a01b0316610c7e565b34801561048457600080fd5b5061028e610d9e565b34801561049957600080fd5b506102e9610f58565b3480156104ae57600080fd5b506102ad600480360360408110156104c557600080fd5b506001600160a01b038135169060200135610f67565b3480156104e757600080fd5b506102ad610f98565b3480156104fc57600080fd5b506102e9610f9e565b34801561051157600080fd5b506102ad610fad565b34801561052657600080fd5b50610395610fb3565b34801561053b57600080fd5b506102e9610fbc565b34801561055057600080fd5b5061028e6004803603602081101561056757600080fd5b50356001600160a01b0316610fcb565b34801561058357600080fd5b506105aa6004803603602081101561059a57600080fd5b50356001600160a01b0316611027565b6040805194151585526020850193909352838301919091526060830152519081900360800190f35b3480156105de57600080fd5b5061028e600480360360208110156105f557600080fd5b50356001600160a01b0316611052565b34801561061157600080fd5b506102ad611173565b34801561062657600080fd5b5061028e6004803603608081101561063d57600080fd5b81019080806080019060048060200260405190810160405280929190826004602002808284376000920191909152509194506111859350505050565b34801561068557600080fd5b506102ad611350565b34801561069a57600080fd5b5061028e600480360360208110156106b157600080fd5b50351515611356565b3480156106c657600080fd5b506102ad6113ad565b3480156106db57600080fd5b506102e96113b3565b3480156106f057600080fd5b506102ad6113c2565b34801561070557600080fd5b506102e96004803603604081101561071c57600080fd5b50803590602001356113c8565b34801561073557600080fd5b506103956004803603604081101561074c57600080fd5b50803590602001356001600160a01b03166113e7565b34801561076e57600080fd5b506103956113ff565b34801561078357600080fd5b506102ad611408565b34801561079857600080fd5b506102e961140d565b3480156107ad57600080fd5b5061028e600480360360208110156107c457600080fd5b50356001600160a01b031661141c565b3480156107e057600080fd5b506102e96114a0565b3480156107f557600080fd5b506102ad6114af565b34801561080a57600080fd5b506102e96114b5565b34801561081f57600080fd5b5061083d6004803603602081101561083657600080fd5b50356114c4565b6040805195865263ffffffff9485166020870152929093168483015260608401526080830191909152519081900360a00190f35b34801561087d57600080fd5b506102ad6004803603602081101561089457600080fd5b50356114fd565b3480156108a757600080fd5b506102ad611514565b3480156108bc57600080fd5b5061028e600480360360408110156108d357600080fd5b50803590602001356001600160a01b0316611538565b3480156108f557600080fd5b506109136004803603602081101561090c57600080fd5b5035611591565b604080516001600160a01b039b8c168152602081019a909a526001600160801b0390981689890152600296870b60608a01529490950b608088015263ffffffff92831660a088015290821660c08701521660e08501529084166101008401529092166101208201529051908190036101400190f35b34801561099457600080fd5b5061028e60048036036101008110156109ac57600080fd5b81019080806080019060048060200260405190810160405280929190826004602002808284376000920191909152505060408051606081810190925292956001600160a01b0385351695909490936080820193509160209091019060039083908390808284376000920191909152509194506116119350505050565b348015610a3457600080fd5b506102e9611728565b348015610a4957600080fd5b506102e9611737565b6000610a5c610f9e565b90506001600160a01b03811615801590610a795750600c5460ff16155b610ab45760405162461bcd60e51b8152600401808060200182810382526033815260200180611be66033913960400191505060405180910390fd5b3660008037600080366000845af43d6000803e808015610ad3573d6000f35b3d6000fd5b60165481565b60125481565b6011546001600160a01b031681565b610afc33610b67565b610b375760405162461bcd60e51b8152600401808060200182810382526022815260200180611b746022913960400191505060405180910390fd5b610b4f600080516020611c9883398151915282610c1d565b50565b60009081526019602052604090206002015490565b6000610b81600080516020611c98833981519152836113e7565b92915050565b7f9667e80708b6eeeb0053fa0cca44e028ff548e2a9f029edfeac87c118b08b7c881565b600e5481565b600082815260196020526040902060020154610bd490610bcf611761565b6113e7565b610c0f5760405162461bcd60e51b815260040180806020018281038252602f815260200180611b45602f913960400191505060405180910390fd5b610c198282611765565b5050565b610c25611761565b6001600160a01b0316816001600160a01b031614610c745760405162461bcd60e51b815260040180806020018281038252602f815260200180611dbd602f913960400191505060405180910390fd5b610c1982826117ce565b610c8733610b67565b610cc25760405162461bcd60e51b8152600401808060200182810382526022815260200180611b746022913960400191505060405180910390fd5b6001600160a01b038116610d075760405162461bcd60e51b8152600401808060200182810382526021815260200180611d9c6021913960400191505060405180910390fd5b806001600160a01b0316610d19611837565b6001600160a01b03161415610d5e576040805162461bcd60e51b8152602060048083019190915260248201526373616d6560e01b604482015290519081900360640190fd5b610d678161185c565b6040516001600160a01b038216907fbc7cd75a20ee27fd9adebab32041f755214dbc6bffa90cc0225b39da2e5c2d3b90600090a250565b610da733610b67565b610de25760405162461bcd60e51b8152600401808060200182810382526022815260200180611b746022913960400191505060405180910390fd5b6015546001600160a01b031615610e2a5760405162461bcd60e51b8152600401808060200182810382526028815260200180611cb86028913960400191505060405180910390fd5b6000610e346118c4565b6001600160a01b03161415610e7a5760405162461bcd60e51b815260040180806020018281038252602c815260200180611c6c602c913960400191505060405180910390fd5b610e826118c4565b6001600160a01b0316634c96a389306040518263ffffffff1660e01b815260040180826001600160a01b03168152602001915050602060405180830381600087803b158015610ed057600080fd5b505af1158015610ee4573d6000803e3d6000fd5b505050506040513d6020811015610efa57600080fd5b5051601580546001600160a01b0319166001600160a01b03928316179081905516610f565760405162461bcd60e51b815260040180806020018281038252602d815260200180611d26602d913960400191505060405180910390fd5b565b6010546001600160a01b031681565b60066020528160005260406000208181548110610f8357600080fd5b90600052602060002001600091509150505481565b60055481565b6000610fa8611837565b905090565b60035481565b600c5460ff1681565b6001546001600160a01b031681565b610fd433610b67565b61100f5760405162461bcd60e51b8152600401808060200182810382526022815260200180611b746022913960400191505060405180910390fd5b610b4f600080516020611c9883398151915282610bb1565b600960205260009081526040902080546001820154600283015460039093015460ff90921692909184565b61105b33610b67565b6110965760405162461bcd60e51b8152600401808060200182810382526022815260200180611b746022913960400191505060405180910390fd5b6001600160a01b0381166110ec576040805162461bcd60e51b815260206004820152601860248201527741636365737369626c653a207a65726f206164647265737360401b604482015290519081900360640190fd5b336001600160a01b0382161415611143576040805162461bcd60e51b815260206004820152601660248201527520b1b1b2b9b9b4b136329d1039b0b6b29030b236b4b760511b604482015290519081900360640190fd5b61115b600080516020611c9883398151915282610bb1565b610b4f600080516020611c9883398151915233610c1d565b600080516020611c9883398151915281565b61118e33610b67565b6111c95760405162461bcd60e51b8152600401808060200182810382526022815260200180611b746022913960400191505060405180910390fd5b80516001600160a01b0381166112105760405162461bcd60e51b8152600401808060200182810382526023815260200180611c496023913960400191505060405180910390fd5b60208201516001600160a01b03811661125a5760405162461bcd60e51b8152600401808060200182810382526023815260200180611c496023913960400191505060405180910390fd5b60408301516001600160a01b0381166112a45760405162461bcd60e51b8152600401808060200182810382526023815260200180611c496023913960400191505060405180910390fd5b60608401516001600160a01b0381166112ee5760405162461bcd60e51b8152600401808060200182810382526023815260200180611c496023913960400191505060405180910390fd5b50508251601380546001600160a01b03199081166001600160a01b039384161790915560208501516014805483169184169190911790556040850151600f80548316918416919091179055606090940151601080549095169116179092555050565b600d5481565b61135f33610b67565b61139a5760405162461bcd60e51b8152600401808060200182810382526022815260200180611b746022913960400191505060405180910390fd5b600c805460ff1916911515919091179055565b60175481565b6014546001600160a01b031681565b600a5481565b60008281526019602052604081206113e090836118e9565b9392505050565b60008281526019602052604081206113e090836118f5565b60185460ff1681565b600081565b600f546001600160a01b031681565b61142533610b67565b6114605760405162461bcd60e51b8152600401808060200182810382526022815260200180611b746022913960400191505060405180910390fd5b6114698161190a565b6040516001600160a01b038216907fca97b456472d4c710e538003da4aabca30b5f46f7556eff55a08ce89ac69bc7a90600090a250565b6015546001600160a01b031681565b60045481565b6013546001600160a01b031681565b6008602052600090815260409020805460018201546002830154600390930154919263ffffffff80831693640100000000909304169185565b6000818152601960205260408120610b8190611972565b7ff0887ba65ee2024ea881d91b74c2450ef19e1557f03bed3ea9f16b037cbe2dc981565b60008281526019602052604090206002015461155690610bcf611761565b610c745760405162461bcd60e51b8152600401808060200182810382526030815260200180611c196030913960400191505060405180910390fd5b60076020526000908152604090208054600182015460028084015460038501546004909501546001600160a01b039485169593946001600160801b03831694600160801b8404850b94600160981b8504900b9363ffffffff600160b01b8204811694600160d01b909204811693908316926401000000009004811691168a565b61161a33610b67565b6116555760405162461bcd60e51b8152600401808060200182810382526022815260200180611b746022913960400191505060405180910390fd5b6000546001600160a01b03161561169d5760405162461bcd60e51b8152600401808060200182810382526028815260200180611d746028913960400191505060405180910390fd5b82516001600160a01b03166116e35760405162461bcd60e51b8152600401808060200182810382526021815260200180611d536021913960400191505060405180910390fd5b508151600080546001600160a01b039283166001600160a01b031991821617909155604090930151600280548516918316919091179055600180549093169116179055565b6002546001600160a01b031681565b6000546001600160a01b031681565b3b151590565b60006113e0836001600160a01b03841661197d565b3390565b600082815260196020526040902061177d908261174c565b15610c195761178a611761565b6001600160a01b0316816001600160a01b0316837f2f8788117e7eff1d82e926ec794901d17c78024a50270940304540a733656f0d60405160405180910390a45050565b60008281526019602052604090206117e690826119c7565b15610c19576117f3611761565b6001600160a01b0316816001600160a01b0316837ff6391f5c32d9c69d2a47ea670b442974b53935d1edc7fd64eb21e047a839171b60405160405180910390a45050565b7f360894a13ba1a3210667c828492db98dca3e2076cc3735a920a3ca505d382bbc5490565b61186581611746565b6118a05760405162461bcd60e51b8152600401808060200182810382526046815260200180611ce06046913960600191505060405180910390fd5b7f360894a13ba1a3210667c828492db98dca3e2076cc3735a920a3ca505d382bbc55565b7fc7786c8b03ed9d3280cb3993e8a3aa05e40c849d7d1560c7764528bab63ba0ea5490565b60006113e083836119dc565b60006113e0836001600160a01b038416611a40565b61191381611746565b61194e5760405162461bcd60e51b8152600401808060200182810382526050815260200180611b966050913960600191505060405180910390fd5b7fc7786c8b03ed9d3280cb3993e8a3aa05e40c849d7d1560c7764528bab63ba0ea55565b6000610b8182611a58565b60006119898383611a40565b6119bf57508154600181810184556000848152602080822090930184905584548482528286019093526040902091909155610b81565b506000610b81565b60006113e0836001600160a01b038416611a5c565b81546000908210611a1e5760405162461bcd60e51b8152600401808060200182810382526022815260200180611b236022913960400191505060405180910390fd5b826000018281548110611a2d57fe5b9060005260206000200154905092915050565b60009081526001919091016020526040902054151590565b5490565b60008181526001830160205260408120548015611b185783546000198083019190810190600090879083908110611a8f57fe5b9060005260206000200154905080876000018481548110611aac57fe5b600091825260208083209091019290925582815260018981019092526040902090840190558654879080611adc57fe5b60019003818190600052602060002001600090559055866001016000878152602001908152602001600020600090556001945050505050610b81565b6000915050610b8156fe456e756d657261626c655365743a20696e646578206f7574206f6620626f756e6473416363657373436f6e74726f6c3a2073656e646572206d75737420626520616e2061646d696e20746f206772616e7441636365737369626c653a2043616c6c6572206973206e6f7420616e2061646d696e436f696e616765466163746f7279534c4f543a2043616e6e6f742073657420612070726f787920636f696e61676520666163746f727920746f2061206e6f6e2d636f6e747261637420616464726573735374616b65556e6973776170563350726f78793a20696d706c206973207a65726f204f522070726f78792069732066616c7365416363657373436f6e74726f6c3a2073656e646572206d75737420626520616e2061646d696e20746f207265766f6b655374616b65556e6973776170563353746f726167653a207a65726f20616464726573735374616b65556e6973776170563350726f78793a205f636f696e616765466163746f7279206973207a65726fdf8b4c520ffe197c5343c6f5aec59570151ef9a492f2c624fd45ddde6135ec425374616b65556e6973776170563350726f78793a20616c65726164792073657420636f696e61676550726f7879426173653a2043616e6e6f742073657420612070726f787920696d706c656d656e746174696f6e20746f2061206e6f6e2d636f6e747261637420616464726573735374616b65556e6973776170563350726f78793a206465706c6f79656420636f696e616765206973207a65726f5374616b65556e6973776170563350726f78793a20736574496e6974206661696c5374616b65556e6973776170563350726f78793a20616c726561647920696e697469616c697a65645374616b65556e6973776170563350726f78793a20696d706c206973207a65726f416363657373436f6e74726f6c3a2063616e206f6e6c792072656e6f756e636520726f6c657320666f722073656c66a264697066735822122056d7fd5f36bc7261e17dc3a95ab23f3327028e08431f8e6f916c06202f22bd0964736f6c63430007060033436f696e616765466163746f7279534c4f543a2043616e6e6f742073657420612070726f787920636f696e61676520666163746f727920746f2061206e6f6e2d636f6e74726163742061646472657373df8b4c520ffe197c5343c6f5aec59570151ef9a492f2c624fd45ddde6135ec4250726f7879426173653a2043616e6e6f742073657420612070726f787920696d706c656d656e746174696f6e20746f2061206e6f6e2d636f6e747261637420616464726573735374616b65556e6973776170563350726f78793a206c6f676963206973207a65726f",
  "immutableReferences": {},
  "source": "// SPDX-License-Identifier: MIT\npragma solidity ^0.7.6;\n\nimport \"../interfaces/IStakeUniswapV3Proxy.sol\";\nimport \"../interfaces/IStakeCoinageFactory.sol\";\nimport \"../interfaces/IStakeRegistry.sol\";\n\nimport \"./StakeUniswapV3Storage.sol\";\nimport \"../common/AccessibleCommon.sol\";\nimport \"./ProxyBase.sol\";\nimport \"./CoinageFactorySLOT.sol\";\n\n/// @title Proxy for stake based coinage contract\ncontract StakeUniswapV3Proxy is\n    StakeUniswapV3Storage,\n    AccessibleCommon,\n    ProxyBase,\n    CoinageFactorySLOT,\n    IStakeUniswapV3Proxy\n{\n    event Upgraded(address indexed implementation);\n    event SetCoinageFactory(address indexed coinageFactory);\n\n    /// @dev constructor of Stake1Proxy\n    /// @param _logic the logic address that used in proxy\n    constructor(address _logic, address _coinageFactory) {\n        assert(\n            IMPLEMENTATION_SLOT ==\n                bytes32(uint256(keccak256(\"eip1967.proxy.implementation\")) - 1)\n        );\n\n        require(_logic != address(0), \"StakeUniswapV3Proxy: logic is zero\");\n\n        _setImplementation(_logic);\n        _setCoinageFactory(_coinageFactory);\n\n        _setRoleAdmin(ADMIN_ROLE, ADMIN_ROLE);\n        _setupRole(ADMIN_ROLE, msg.sender);\n        _setupRole(ADMIN_ROLE, address(this));\n    }\n\n    /// @dev Set pause state\n    /// @param _pause true:pause or false:resume\n    function setProxyPause(bool _pause) external override onlyOwner {\n        pauseProxy = _pause;\n    }\n\n    /// @dev Set implementation contract\n    /// @param impl New implementation contract address\n    function upgradeTo(address impl) external override onlyOwner {\n        require(impl != address(0), \"StakeUniswapV3Proxy: impl is zero\");\n        require(_implementation() != impl, \"same\");\n        _setImplementation(impl);\n        emit Upgraded(impl);\n    }\n\n    /// @dev returns the implementation\n    function implementation() public view override returns (address) {\n        return _implementation();\n    }\n\n    function setCoinageFactory(address _newCoinageFactory) external onlyOwner {\n        _setCoinageFactory(_newCoinageFactory);\n        emit SetCoinageFactory(_newCoinageFactory);\n    }\n\n    /// @dev receive ether\n    receive() external payable {\n        _fallback();\n    }\n\n    /// @dev fallback function , execute on undefined function call\n    fallback() external payable {\n        _fallback();\n    }\n\n    /// @dev fallback function , execute on undefined function call\n    function _fallback() internal {\n        address _impl = implementation();\n        require(\n            _impl != address(0) && !pauseProxy,\n            \"StakeUniswapV3Proxy: impl is zero OR proxy is false\"\n        );\n\n        assembly {\n            // Copy msg.data. We take full control of memory in this inline assembly\n            // block because it will not return to Solidity code. We overwrite the\n            // Solidity scratch pad at memory position 0.\n            calldatacopy(0, 0, calldatasize())\n\n            // Call the implementation.\n            // out and outsize are 0 because we don't know the size yet.\n            let result := delegatecall(gas(), _impl, 0, calldatasize(), 0, 0)\n\n            // Copy the returned data.\n            returndatacopy(0, 0, returndatasize())\n\n            switch result\n                // delegatecall returns 0 on error.\n                case 0 {\n                    revert(0, returndatasize())\n                }\n                default {\n                    return(0, returndatasize())\n                }\n        }\n    }\n\n    /// @dev set initial storage\n    /// @param _addr  [tos, 0, vault,  ,   ]\n    /// @param _registry teh registry address\n    /// @param _intdata [cap, rewardPerBlock, 0]\n    function setInit(\n        address[4] memory _addr,\n        address _registry,\n        uint256[3] memory _intdata\n    ) external override onlyOwner {\n        require(\n            token == address(0),\n            \"StakeUniswapV3Proxy: already initialized\"\n        );\n        require(_addr[0] != address(0), \"StakeUniswapV3Proxy: setInit fail\");\n        token = _addr[0];\n        vault = _addr[2];\n\n        stakeRegistry = _registry;\n    }\n\n    function deployCoinage() external override onlyOwner {\n        require(\n            coinage == address(0),\n            \"StakeUniswapV3Proxy: alerady set coinage\"\n        );\n        require(\n            _coinageFactory() != address(0),\n            \"StakeUniswapV3Proxy: _coinageFactory is zero\"\n        );\n        coinage = IStakeCoinageFactory(_coinageFactory()).deploy(address(this));\n\n        require(\n            coinage != address(0),\n            \"StakeUniswapV3Proxy: deployed coinage is zero\"\n        );\n    }\n\n    /// @dev set pool information\n    /// @param uniswapInfo [NonfungiblePositionManager,UniswapV3Factory,token0,token1]\n    function setPool(address[4] memory uniswapInfo)\n        external\n        override\n        onlyOwner\n        nonZeroAddress(uniswapInfo[0])\n        nonZeroAddress(uniswapInfo[1])\n        nonZeroAddress(uniswapInfo[2])\n        nonZeroAddress(uniswapInfo[3])\n    {\n        nonfungiblePositionManager = INonfungiblePositionManager(\n            uniswapInfo[0]\n        );\n        uniswapV3FactoryAddress = uniswapInfo[1];\n        poolToken0 = uniswapInfo[2];\n        poolToken1 = uniswapInfo[3];\n\n    }\n}\n",
  "sourcePath": "/Users/zena/ico2.0/ico20-contracts/contracts/stake/StakeUniswapV3Proxy.sol",
  "compiler": {
    "name": "solc",
    "version": "0.7.6+commit.7338295f.Emscripten.clang"
  },
  "schemaVersion": "3.3.4",
  "updatedAt": "2021-07-28T11:36:55.657Z",
  "devdoc": {
    "kind": "dev",
    "methods": {
      "addAdmin(address)": {
        "details": "add admin",
        "params": {
          "account": "address to add"
        }
      },
      "constructor": {
        "details": "constructor of Stake1Proxy",
        "params": {
          "_logic": "the logic address that used in proxy"
        }
      },
      "getRoleAdmin(bytes32)": {
        "details": "Returns the admin role that controls `role`. See {grantRole} and {revokeRole}. To change a role's admin, use {_setRoleAdmin}."
      },
      "getRoleMember(bytes32,uint256)": {
        "details": "Returns one of the accounts that have `role`. `index` must be a value between 0 and {getRoleMemberCount}, non-inclusive. Role bearers are not sorted in any particular way, and their ordering may change at any point. WARNING: When using {getRoleMember} and {getRoleMemberCount}, make sure you perform all queries on the same block. See the following https://forum.openzeppelin.com/t/iterating-over-elements-on-enumerableset-in-openzeppelin-contracts/2296[forum post] for more information."
      },
      "getRoleMemberCount(bytes32)": {
        "details": "Returns the number of accounts that have `role`. Can be used together with {getRoleMember} to enumerate all bearers of a role."
      },
      "grantRole(bytes32,address)": {
        "details": "Grants `role` to `account`. If `account` had not been already granted `role`, emits a {RoleGranted} event. Requirements: - the caller must have ``role``'s admin role."
      },
      "hasRole(bytes32,address)": {
        "details": "Returns `true` if `account` has been granted `role`."
      },
      "implementation()": {
        "details": "returns the implementation"
      },
      "isAdmin(address)": {
        "details": "whether admin",
        "params": {
          "account": "address to check"
        }
      },
      "removeAdmin(address)": {
        "details": "remove admin",
        "params": {
          "account": "address to remove"
        }
      },
      "renounceRole(bytes32,address)": {
        "details": "Revokes `role` from the calling account. Roles are often managed via {grantRole} and {revokeRole}: this function's purpose is to provide a mechanism for accounts to lose their privileges if they are compromised (such as when a trusted device is misplaced). If the calling account had been granted `role`, emits a {RoleRevoked} event. Requirements: - the caller must be `account`."
      },
      "revokeRole(bytes32,address)": {
        "details": "Revokes `role` from `account`. If `account` had been granted `role`, emits a {RoleRevoked} event. Requirements: - the caller must have ``role``'s admin role."
      },
      "setInit(address[4],address,uint256[3])": {
        "details": "set initial storage",
        "params": {
          "_addr": "[tos, 0, vault,  ,   ]",
          "_intdata": "[cap, rewardPerBlock, 0]",
          "_registry": "teh registry address"
        }
      },
      "setPool(address[4])": {
        "details": "set pool information",
        "params": {
          "uniswapInfo": "[NonfungiblePositionManager,UniswapV3Factory,token0,token1]"
        }
      },
      "setProxyPause(bool)": {
        "details": "Set pause state",
        "params": {
          "_pause": "true:pause or false:resume"
        }
      },
      "transferAdmin(address)": {
        "details": "transfer admin",
        "params": {
          "newAdmin": "new admin address"
        }
      },
      "upgradeTo(address)": {
        "details": "Set implementation contract",
        "params": {
          "impl": "New implementation contract address"
        }
      }
    },
    "title": "Proxy for stake based coinage contract",
    "version": 1
  },
  "userdoc": {
    "kind": "user",
    "methods": {},
    "version": 1
  }
}