{
  "contractName": "Stake2VaultProxy",
  "abi": [
    {
      "inputs": [
        {
          "internalType": "address",
          "name": "impl",
          "type": "address"
        }
      ],
      "stateMutability": "nonpayable",
      "type": "constructor"
    },
    {
      "anonymous": false,
      "inputs": [
        {
          "indexed": true,
          "internalType": "bytes32",
          "name": "role",
          "type": "bytes32"
        },
        {
          "indexed": true,
          "internalType": "bytes32",
          "name": "previousAdminRole",
          "type": "bytes32"
        },
        {
          "indexed": true,
          "internalType": "bytes32",
          "name": "newAdminRole",
          "type": "bytes32"
        }
      ],
      "name": "RoleAdminChanged",
      "type": "event"
    },
    {
      "anonymous": false,
      "inputs": [
        {
          "indexed": true,
          "internalType": "bytes32",
          "name": "role",
          "type": "bytes32"
        },
        {
          "indexed": true,
          "internalType": "address",
          "name": "account",
          "type": "address"
        },
        {
          "indexed": true,
          "internalType": "address",
          "name": "sender",
          "type": "address"
        }
      ],
      "name": "RoleGranted",
      "type": "event"
    },
    {
      "anonymous": false,
      "inputs": [
        {
          "indexed": true,
          "internalType": "bytes32",
          "name": "role",
          "type": "bytes32"
        },
        {
          "indexed": true,
          "internalType": "address",
          "name": "account",
          "type": "address"
        },
        {
          "indexed": true,
          "internalType": "address",
          "name": "sender",
          "type": "address"
        }
      ],
      "name": "RoleRevoked",
      "type": "event"
    },
    {
      "anonymous": false,
      "inputs": [
        {
          "indexed": true,
          "internalType": "address",
          "name": "implementation",
          "type": "address"
        }
      ],
      "name": "Upgraded",
      "type": "event"
    },
    {
      "stateMutability": "payable",
      "type": "fallback"
    },
    {
      "inputs": [],
      "name": "ADMIN_ROLE",
      "outputs": [
        {
          "internalType": "bytes32",
          "name": "",
          "type": "bytes32"
        }
      ],
      "stateMutability": "view",
      "type": "function"
    },
    {
      "inputs": [],
      "name": "BURNER_ROLE",
      "outputs": [
        {
          "internalType": "bytes32",
          "name": "",
          "type": "bytes32"
        }
      ],
      "stateMutability": "view",
      "type": "function"
    },
    {
      "inputs": [],
      "name": "DEFAULT_ADMIN_ROLE",
      "outputs": [
        {
          "internalType": "bytes32",
          "name": "",
          "type": "bytes32"
        }
      ],
      "stateMutability": "view",
      "type": "function"
    },
    {
      "inputs": [],
      "name": "MINTER_ROLE",
      "outputs": [
        {
          "internalType": "bytes32",
          "name": "",
          "type": "bytes32"
        }
      ],
      "stateMutability": "view",
      "type": "function"
    },
    {
      "inputs": [
        {
          "internalType": "address",
          "name": "account",
          "type": "address"
        }
      ],
      "name": "addAdmin",
      "outputs": [],
      "stateMutability": "nonpayable",
      "type": "function"
    },
    {
      "inputs": [],
      "name": "cap",
      "outputs": [
        {
          "internalType": "uint256",
          "name": "",
          "type": "uint256"
        }
      ],
      "stateMutability": "view",
      "type": "function"
    },
    {
      "inputs": [
        {
          "internalType": "bytes32",
          "name": "role",
          "type": "bytes32"
        }
      ],
      "name": "getRoleAdmin",
      "outputs": [
        {
          "internalType": "bytes32",
          "name": "",
          "type": "bytes32"
        }
      ],
      "stateMutability": "view",
      "type": "function"
    },
    {
      "inputs": [
        {
          "internalType": "bytes32",
          "name": "role",
          "type": "bytes32"
        },
        {
          "internalType": "uint256",
          "name": "index",
          "type": "uint256"
        }
      ],
      "name": "getRoleMember",
      "outputs": [
        {
          "internalType": "address",
          "name": "",
          "type": "address"
        }
      ],
      "stateMutability": "view",
      "type": "function"
    },
    {
      "inputs": [
        {
          "internalType": "bytes32",
          "name": "role",
          "type": "bytes32"
        }
      ],
      "name": "getRoleMemberCount",
      "outputs": [
        {
          "internalType": "uint256",
          "name": "",
          "type": "uint256"
        }
      ],
      "stateMutability": "view",
      "type": "function"
    },
    {
      "inputs": [
        {
          "internalType": "bytes32",
          "name": "role",
          "type": "bytes32"
        },
        {
          "internalType": "address",
          "name": "account",
          "type": "address"
        }
      ],
      "name": "grantRole",
      "outputs": [],
      "stateMutability": "nonpayable",
      "type": "function"
    },
    {
      "inputs": [
        {
          "internalType": "bytes32",
          "name": "role",
          "type": "bytes32"
        },
        {
          "internalType": "address",
          "name": "account",
          "type": "address"
        }
      ],
      "name": "hasRole",
      "outputs": [
        {
          "internalType": "bool",
          "name": "",
          "type": "bool"
        }
      ],
      "stateMutability": "view",
      "type": "function"
    },
    {
      "inputs": [
        {
          "internalType": "address",
          "name": "account",
          "type": "address"
        }
      ],
      "name": "isAdmin",
      "outputs": [
        {
          "internalType": "bool",
          "name": "",
          "type": "bool"
        }
      ],
      "stateMutability": "view",
      "type": "function"
    },
    {
      "inputs": [],
      "name": "migratedL2",
      "outputs": [
        {
          "internalType": "bool",
          "name": "",
          "type": "bool"
        }
      ],
      "stateMutability": "view",
      "type": "function"
    },
    {
      "inputs": [],
      "name": "miningAmountTotal",
      "outputs": [
        {
          "internalType": "uint256",
          "name": "",
          "type": "uint256"
        }
      ],
      "stateMutability": "view",
      "type": "function"
    },
    {
      "inputs": [],
      "name": "miningPerSecond",
      "outputs": [
        {
          "internalType": "uint256",
          "name": "",
          "type": "uint256"
        }
      ],
      "stateMutability": "view",
      "type": "function"
    },
    {
      "inputs": [],
      "name": "miningStartTime",
      "outputs": [
        {
          "internalType": "uint256",
          "name": "",
          "type": "uint256"
        }
      ],
      "stateMutability": "view",
      "type": "function"
    },
    {
      "inputs": [],
      "name": "name",
      "outputs": [
        {
          "internalType": "string",
          "name": "",
          "type": "string"
        }
      ],
      "stateMutability": "view",
      "type": "function"
    },
    {
      "inputs": [],
      "name": "nonMiningAmountTotal",
      "outputs": [
        {
          "internalType": "uint256",
          "name": "",
          "type": "uint256"
        }
      ],
      "stateMutability": "view",
      "type": "function"
    },
    {
      "inputs": [],
      "name": "pauseProxy",
      "outputs": [
        {
          "internalType": "bool",
          "name": "",
          "type": "bool"
        }
      ],
      "stateMutability": "view",
      "type": "function"
    },
    {
      "inputs": [
        {
          "internalType": "address",
          "name": "account",
          "type": "address"
        }
      ],
      "name": "removeAdmin",
      "outputs": [],
      "stateMutability": "nonpayable",
      "type": "function"
    },
    {
      "inputs": [
        {
          "internalType": "bytes32",
          "name": "role",
          "type": "bytes32"
        },
        {
          "internalType": "address",
          "name": "account",
          "type": "address"
        }
      ],
      "name": "renounceRole",
      "outputs": [],
      "stateMutability": "nonpayable",
      "type": "function"
    },
    {
      "inputs": [
        {
          "internalType": "bytes32",
          "name": "role",
          "type": "bytes32"
        },
        {
          "internalType": "address",
          "name": "account",
          "type": "address"
        }
      ],
      "name": "revokeRole",
      "outputs": [],
      "stateMutability": "nonpayable",
      "type": "function"
    },
    {
      "inputs": [],
      "name": "stakeAddress",
      "outputs": [
        {
          "internalType": "address",
          "name": "",
          "type": "address"
        }
      ],
      "stateMutability": "view",
      "type": "function"
    },
    {
      "inputs": [],
      "name": "stakeType",
      "outputs": [
        {
          "internalType": "uint256",
          "name": "",
          "type": "uint256"
        }
      ],
      "stateMutability": "view",
      "type": "function"
    },
    {
      "inputs": [],
      "name": "tos",
      "outputs": [
        {
          "internalType": "address",
          "name": "",
          "type": "address"
        }
      ],
      "stateMutability": "view",
      "type": "function"
    },
    {
      "inputs": [],
      "name": "totalMinedAmount",
      "outputs": [
        {
          "internalType": "uint256",
          "name": "",
          "type": "uint256"
        }
      ],
      "stateMutability": "view",
      "type": "function"
    },
    {
      "inputs": [
        {
          "internalType": "address",
          "name": "newAdmin",
          "type": "address"
        }
      ],
      "name": "transferAdmin",
      "outputs": [],
      "stateMutability": "nonpayable",
      "type": "function"
    },
    {
      "stateMutability": "payable",
      "type": "receive"
    },
    {
      "inputs": [
        {
          "internalType": "bool",
          "name": "_pause",
          "type": "bool"
        }
      ],
      "name": "setProxyPause",
      "outputs": [],
      "stateMutability": "nonpayable",
      "type": "function"
    },
    {
      "inputs": [
        {
          "internalType": "address",
          "name": "impl",
          "type": "address"
        }
      ],
      "name": "upgradeTo",
      "outputs": [],
      "stateMutability": "nonpayable",
      "type": "function"
    },
    {
      "inputs": [],
      "name": "implementation",
      "outputs": [
        {
          "internalType": "address",
          "name": "",
          "type": "address"
        }
      ],
      "stateMutability": "view",
      "type": "function"
    },
    {
      "inputs": [
        {
          "internalType": "address",
          "name": "_tos",
          "type": "address"
        },
        {
          "internalType": "address",
          "name": "_stakefactory",
          "type": "address"
        },
        {
          "internalType": "uint256",
          "name": "_stakeType",
          "type": "uint256"
        },
        {
          "internalType": "uint256",
          "name": "_cap",
          "type": "uint256"
        },
        {
          "internalType": "uint256",
          "name": "_miningPerSecond",
          "type": "uint256"
        },
        {
          "internalType": "string",
          "name": "_name",
          "type": "string"
        }
      ],
      "name": "initialize",
      "outputs": [],
      "stateMutability": "nonpayable",
      "type": "function"
    }
  ],
  "bytecode": "0x60806040523480156200001157600080fd5b506040516200192538038062001925833981810160405260208110156200003757600080fd5b50516001600160a01b03811662000095576040805162461bcd60e51b815260206004820152601f60248201527f5374616b65325661756c7450726f78793a206c6f676963206973207a65726f00604482015290519081900360640190fd5b620000a081620000f8565b620000bb600080516020620018bf833981519152806200016f565b620000d6600080516020620018bf83398151915233620001c1565b620000f1600080516020620018bf83398151915230620001c1565b50620002db565b6200010e81620001d160201b620010291760201c565b6200014b5760405162461bcd60e51b8152600401808060200182810382526046815260200180620018df6046913960600191505060405180910390fd5b7f360894a13ba1a3210667c828492db98dca3e2076cc3735a920a3ca505d382bbc55565b600082815260208190526040808220600201549051839285917fbd79b86ffe0ab8e8776151514217cd7cacd52c909f66475c3af44e129f0b00ff9190a460009182526020829052604090912060020155565b620001cd8282620001d7565b5050565b3b151590565b600082815260208181526040909120620001fc9183906200102f62000250821b17901c565b15620001cd576200020c62000270565b6001600160a01b0316816001600160a01b0316837f2f8788117e7eff1d82e926ec794901d17c78024a50270940304540a733656f0d60405160405180910390a45050565b600062000267836001600160a01b03841662000274565b90505b92915050565b3390565b6000620002828383620002c3565b620002ba575081546001818101845560008481526020808220909301849055845484825282860190935260409020919091556200026a565b5060006200026a565b60009081526001919091016020526040902054151590565b6115d480620002eb6000396000f3fe60806040526004361061019c5760003560e01c806375829def116100e2578063a217fddf11610085578063a217fddf146105d2578063af182fce146105e7578063b90a762a146105fc578063b97af0db146106db578063ca15c873146106f0578063d53913931461071a578063d547741f1461072f578063f009150914610768576101e5565b806375829def146104b657806375b238fc146104e95780637cb00d25146104fe578063851073671461052a57806389f395de1461053f5780639010d07c1461055457806391d1485414610584578063a1f5f50e146105bd576101e5565b8063355274ea1161014a578063355274ea1461039257806336568abe146103a75780633659cfe6146103e05780634ce77abe146104135780635c60da1b146104285780635f139e3f1461045957806363a8fd891461046e5780637048027514610483576101e5565b806301f88d26146101ef57806306fdde03146102165780631785f53c146102a0578063248a9ca3146102d357806324d7806c146102fd578063282c51f3146103445780632f2ff15d14610359576101e5565b366101e5576040805162461bcd60e51b815260206004820152601460248201527331b0b73737ba103932b1b2b4bb329022ba3432b960611b604482015290519081900360640190fd5b6101ed61077d565b005b3480156101fb57600080fd5b50610204610803565b60408051918252519081900360200190f35b34801561022257600080fd5b5061022b610809565b6040805160208082528351818301528351919283929083019185019080838360005b8381101561026557818101518382015260200161024d565b50505050905090810190601f1680156102925780820380516001836020036101000a031916815260200191505b509250505060405180910390f35b3480156102ac57600080fd5b506101ed600480360360208110156102c357600080fd5b50356001600160a01b0316610894565b3480156102df57600080fd5b50610204600480360360208110156102f657600080fd5b50356108f3565b34801561030957600080fd5b506103306004803603602081101561032057600080fd5b50356001600160a01b0316610908565b604080519115158252519081900360200190f35b34801561035057600080fd5b50610204610928565b34801561036557600080fd5b506101ed6004803603604081101561037c57600080fd5b50803590602001356001600160a01b031661094c565b34801561039e57600080fd5b506102046109b8565b3480156103b357600080fd5b506101ed600480360360408110156103ca57600080fd5b50803590602001356001600160a01b03166109be565b3480156103ec57600080fd5b506101ed6004803603602081101561040357600080fd5b50356001600160a01b0316610a1f565b34801561041f57600080fd5b50610204610b65565b34801561043457600080fd5b5061043d610b6b565b604080516001600160a01b039092168252519081900360200190f35b34801561046557600080fd5b50610204610b7a565b34801561047a57600080fd5b50610330610b80565b34801561048f57600080fd5b506101ed600480360360208110156104a657600080fd5b50356001600160a01b0316610b89565b3480156104c257600080fd5b506101ed600480360360208110156104d957600080fd5b50356001600160a01b0316610be5565b3480156104f557600080fd5b50610204610d06565b34801561050a57600080fd5b506101ed6004803603602081101561052157600080fd5b50351515610d18565b34801561053657600080fd5b5061043d610d6f565b34801561054b57600080fd5b5061043d610d7e565b34801561056057600080fd5b5061043d6004803603604081101561057757600080fd5b5080359060200135610d8d565b34801561059057600080fd5b50610330600480360360408110156105a757600080fd5b50803590602001356001600160a01b0316610dac565b3480156105c957600080fd5b50610330610dc4565b3480156105de57600080fd5b50610204610dd2565b3480156105f357600080fd5b50610204610dd7565b34801561060857600080fd5b506101ed600480360360c081101561061f57600080fd5b6001600160a01b0382358116926020810135909116916040820135916060810135916080820135919081019060c0810160a082013564010000000081111561066657600080fd5b82018360208201111561067857600080fd5b8035906020019184600183028401116401000000008311171561069a57600080fd5b91908080601f016020809104026020016040519081016040528093929190818152602001838380828437600092019190915250929550610ddd945050505050565b3480156106e757600080fd5b50610204610f89565b3480156106fc57600080fd5b506102046004803603602081101561071357600080fd5b5035610f8f565b34801561072657600080fd5b50610204610fa6565b34801561073b57600080fd5b506101ed6004803603604081101561075257600080fd5b50803590602001356001600160a01b0316610fca565b34801561077457600080fd5b50610204611023565b6000610787611044565b90506001600160a01b038116158015906107a45750600c5460ff16155b6107df5760405162461bcd60e51b81526004018080602001828103825260288152602001806114bd6028913960400191505060405180910390fd5b3660008037600080366000845af43d6000803e8080156107fe573d6000f35b3d6000fd5b60045481565b6002805460408051602060018416156101000260001901909316849004601f8101849004840282018401909252818152929183018282801561088c5780601f106108615761010080835404028352916020019161088c565b820191906000526020600020905b81548152906001019060200180831161086f57829003601f168201915b505050505081565b61089d33610908565b6108d85760405162461bcd60e51b815260040180806020018281038252602281526020018061146b6022913960400191505060405180910390fd5b6108f060008051602061150a833981519152826109be565b50565b60009081526020819052604090206002015490565b600061092260008051602061150a83398151915283610dac565b92915050565b7f9667e80708b6eeeb0053fa0cca44e028ff548e2a9f029edfeac87c118b08b7c881565b60008281526020819052604090206002015461096f9061096a611069565b610dac565b6109aa5760405162461bcd60e51b815260040180806020018281038252602f81526020018061143c602f913960400191505060405180910390fd5b6109b4828261106d565b5050565b60035481565b6109c6611069565b6001600160a01b0316816001600160a01b031614610a155760405162461bcd60e51b815260040180806020018281038252602f815260200180611570602f913960400191505060405180910390fd5b6109b482826110d6565b610a2833610908565b610a635760405162461bcd60e51b815260040180806020018281038252602281526020018061146b6022913960400191505060405180910390fd5b6001600160a01b038116610abe576040805162461bcd60e51b815260206004820152601f60248201527f5374616b65325661756c7450726f78793a20696e707574206973207a65726f00604482015290519081900360640190fd5b806001600160a01b0316610ad0611044565b6001600160a01b03161415610b25576040805162461bcd60e51b81526020600482015260166024820152755374616b65325661756c7450726f78793a2073616d6560501b604482015290519081900360640190fd5b610b2e8161113f565b6040516001600160a01b038216907fbc7cd75a20ee27fd9adebab32041f755214dbc6bffa90cc0225b39da2e5c2d3b90600090a250565b60055481565b6000610b75611044565b905090565b60085481565b600c5460ff1681565b610b9233610908565b610bcd5760405162461bcd60e51b815260040180806020018281038252602281526020018061146b6022913960400191505060405180910390fd5b6108f060008051602061150a8339815191528261094c565b610bee33610908565b610c295760405162461bcd60e51b815260040180806020018281038252602281526020018061146b6022913960400191505060405180910390fd5b6001600160a01b038116610c7f576040805162461bcd60e51b815260206004820152601860248201527741636365737369626c653a207a65726f206164647265737360401b604482015290519081900360640190fd5b336001600160a01b0382161415610cd6576040805162461bcd60e51b815260206004820152601660248201527520b1b1b2b9b9b4b136329d1039b0b6b29030b236b4b760511b604482015290519081900360640190fd5b610cee60008051602061150a8339815191528261094c565b6108f060008051602061150a833981519152336109be565b60008051602061150a83398151915281565b610d2133610908565b610d5c5760405162461bcd60e51b815260040180806020018281038252602281526020018061146b6022913960400191505060405180910390fd5b600c805460ff1916911515919091179055565b6007546001600160a01b031681565b6001546001600160a01b031681565b6000828152602081905260408120610da590836111a7565b9392505050565b6000828152602081905260408120610da590836111b3565b600c54610100900460ff1681565b600081565b60095481565b610de633610908565b610e215760405162461bcd60e51b815260040180806020018281038252602281526020018061146b6022913960400191505060405180910390fd5b6001546001600160a01b031615610e695760405162461bcd60e51b81526004018080602001828103825260258152602001806114e56025913960400191505060405180910390fd5b6001600160a01b03861615801590610e8957506001600160a01b03851615155b610eda576040805162461bcd60e51b815260206004820152601f60248201527f5374616b65325661756c7450726f78793a20696e707574206973207a65726f00604482015290519081900360640190fd5b60008311610f2b576040805162461bcd60e51b81526020600482015260196024820152785374616b65315661756c743a205f636170206973207a65726f60381b604482015290519081900360640190fd5b600180546001600160a01b0319166001600160a01b0388161790556003839055600684905560058290558051610f68906002906020840190611378565b50610f8160008051602061150a8339815191528661094c565b505050505050565b60065481565b6000818152602081905260408120610922906111c8565b7ff0887ba65ee2024ea881d91b74c2450ef19e1557f03bed3ea9f16b037cbe2dc981565b600082815260208190526040902060020154610fe89061096a611069565b610a155760405162461bcd60e51b815260040180806020018281038252603081526020018061148d6030913960400191505060405180910390fd5b600a5481565b3b151590565b6000610da5836001600160a01b0384166111d3565b7f360894a13ba1a3210667c828492db98dca3e2076cc3735a920a3ca505d382bbc5490565b3390565b6000828152602081905260409020611085908261102f565b156109b457611092611069565b6001600160a01b0316816001600160a01b0316837f2f8788117e7eff1d82e926ec794901d17c78024a50270940304540a733656f0d60405160405180910390a45050565b60008281526020819052604090206110ee908261121d565b156109b4576110fb611069565b6001600160a01b0316816001600160a01b0316837ff6391f5c32d9c69d2a47ea670b442974b53935d1edc7fd64eb21e047a839171b60405160405180910390a45050565b61114881611029565b6111835760405162461bcd60e51b815260040180806020018281038252604681526020018061152a6046913960600191505060405180910390fd5b7f360894a13ba1a3210667c828492db98dca3e2076cc3735a920a3ca505d382bbc55565b6000610da58383611232565b6000610da5836001600160a01b038416611296565b6000610922826112ae565b60006111df8383611296565b61121557508154600181810184556000848152602080822090930184905584548482528286019093526040902091909155610922565b506000610922565b6000610da5836001600160a01b0384166112b2565b815460009082106112745760405162461bcd60e51b815260040180806020018281038252602281526020018061141a6022913960400191505060405180910390fd5b82600001828154811061128357fe5b9060005260206000200154905092915050565b60009081526001919091016020526040902054151590565b5490565b6000818152600183016020526040812054801561136e57835460001980830191908101906000908790839081106112e557fe5b906000526020600020015490508087600001848154811061130257fe5b60009182526020808320909101929092558281526001898101909252604090209084019055865487908061133257fe5b60019003818190600052602060002001600090559055866001016000878152602001908152602001600020600090556001945050505050610922565b6000915050610922565b828054600181600116156101000203166002900490600052602060002090601f0160209004810192826113ae57600085556113f4565b82601f106113c757805160ff19168380011785556113f4565b828001600101855582156113f4579182015b828111156113f45782518255916020019190600101906113d9565b50611400929150611404565b5090565b5b80821115611400576000815560010161140556fe456e756d657261626c655365743a20696e646578206f7574206f6620626f756e6473416363657373436f6e74726f6c3a2073656e646572206d75737420626520616e2061646d696e20746f206772616e7441636365737369626c653a2043616c6c6572206973206e6f7420616e2061646d696e416363657373436f6e74726f6c3a2073656e646572206d75737420626520616e2061646d696e20746f207265766f6b655374616b65325661756c7450726f78793a20696d706c204f522070726f78792069732066616c73655374616b65325661756c7450726f78793a20616c726561647920696e697469616c697a6564df8b4c520ffe197c5343c6f5aec59570151ef9a492f2c624fd45ddde6135ec4250726f7879426173653a2043616e6e6f742073657420612070726f787920696d706c656d656e746174696f6e20746f2061206e6f6e2d636f6e74726163742061646472657373416363657373436f6e74726f6c3a2063616e206f6e6c792072656e6f756e636520726f6c657320666f722073656c66a2646970667358221220912b57a3f1979bde08430758e369b79b7ec491caa096f6463565085380cd4e6a64736f6c63430007060033df8b4c520ffe197c5343c6f5aec59570151ef9a492f2c624fd45ddde6135ec4250726f7879426173653a2043616e6e6f742073657420612070726f787920696d706c656d656e746174696f6e20746f2061206e6f6e2d636f6e74726163742061646472657373",
  "immutableReferences": {},
  "source": "// SPDX-License-Identifier: MIT\npragma solidity ^0.7.6;\n\nimport \"../interfaces/IStake2VaultProxy.sol\";\nimport \"./Stake2VaultStorage.sol\";\nimport \"./ProxyBase.sol\";\n\n/// @title Proxy for StakeVault\n/// @notice\ncontract Stake2VaultProxy is Stake2VaultStorage, ProxyBase, IStake2VaultProxy {\n    event Upgraded(address indexed implementation);\n\n    /// @dev constructor of StakeVaultProxy\n    /// @param impl the logic address of StakeVaultProxy\n    constructor(address impl) {\n        assert(\n            IMPLEMENTATION_SLOT ==\n                bytes32(uint256(keccak256(\"eip1967.proxy.implementation\")) - 1)\n        );\n\n        require(impl != address(0), \"Stake2VaultProxy: logic is zero\");\n\n        _setImplementation(impl);\n\n        _setRoleAdmin(ADMIN_ROLE, ADMIN_ROLE);\n        _setupRole(ADMIN_ROLE, msg.sender);\n        _setupRole(ADMIN_ROLE, address(this));\n    }\n\n    /// @notice Set pause state\n    /// @param _pause true:pause or false:resume\n    function setProxyPause(bool _pause) external override onlyOwner {\n        pauseProxy = _pause;\n    }\n\n    /// @notice Set implementation contract\n    /// @param impl New implementation contract address\n    function upgradeTo(address impl) external override onlyOwner {\n        require(impl != address(0), \"Stake2VaultProxy: input is zero\");\n        require(_implementation() != impl, \"Stake2VaultProxy: same\");\n        _setImplementation(impl);\n        emit Upgraded(impl);\n    }\n\n    /// @dev returns the implementation\n    function implementation() public view override returns (address) {\n        return _implementation();\n    }\n\n    /// @dev receive ether\n    receive() external payable {\n        revert(\"cannot receive Ether\");\n    }\n\n    /// @dev fallback function , execute on undefined function call\n    fallback() external payable {\n        _fallback();\n    }\n\n    /// @dev fallback function , execute on undefined function call\n    function _fallback() internal {\n        address _impl = _implementation();\n        require(\n            _impl != address(0) && !pauseProxy,\n            \"Stake2VaultProxy: impl OR proxy is false\"\n        );\n\n        assembly {\n            // Copy msg.data. We take full control of memory in this inline assembly\n            // block because it will not return to Solidity code. We overwrite the\n            // Solidity scratch pad at memory position 0.\n            calldatacopy(0, 0, calldatasize())\n\n            // Call the implementation.\n            // out and outsize are 0 because we don't know the size yet.\n            let result := delegatecall(gas(), _impl, 0, calldatasize(), 0, 0)\n\n            // Copy the returned data.\n            returndatacopy(0, 0, returndatasize())\n\n            switch result\n                // delegatecall returns 0 on error.\n                case 0 {\n                    revert(0, returndatasize())\n                }\n                default {\n                    return(0, returndatasize())\n                }\n        }\n    }\n\n    /// @dev set initial storage\n    /// @param _tos  TOS token address\n    /// @param _stakefactory the factory address to create stakeContract\n    /// @param _stakeType  Type of staking contract, 0 TON staking, 1 basic ERC20 staking, 2 UniswapV3  staking\n    /// @param _cap  Maximum amount of rewards issued, allocated reward amount.\n    /// @param _miningPerSecond  the mining amount per second\n    function initialize(\n        address _tos,\n        address _stakefactory,\n        uint256 _stakeType,\n        uint256 _cap,\n        uint256 _miningPerSecond,\n        string memory _name\n    ) external override onlyOwner {\n        require(tos == address(0), \"Stake2VaultProxy: already initialized\");\n\n        require(\n            _tos != address(0) && _stakefactory != address(0),\n            \"Stake2VaultProxy: input is zero\"\n        );\n        require(_cap > 0, \"Stake1Vault: _cap is zero\");\n\n        tos = _tos;\n        cap = _cap;\n        stakeType = _stakeType;\n        miningPerSecond = _miningPerSecond;\n        name = _name;\n        grantRole(ADMIN_ROLE, _stakefactory);\n    }\n}\n",
  "sourcePath": "/Users/zena/ico2.0/ico20-contracts/contracts/stake/Stake2VaultProxy.sol",
  "compiler": {
    "name": "solc",
    "version": "0.7.6+commit.7338295f.Emscripten.clang"
  },
  "schemaVersion": "3.3.4",
  "updatedAt": "2021-08-01T15:27:40.554Z",
  "devdoc": {
    "kind": "dev",
    "methods": {
      "addAdmin(address)": {
        "details": "add admin",
        "params": {
          "account": "address to add"
        }
      },
      "constructor": {
        "details": "constructor of StakeVaultProxy",
        "params": {
          "impl": "the logic address of StakeVaultProxy"
        }
      },
      "getRoleAdmin(bytes32)": {
        "details": "Returns the admin role that controls `role`. See {grantRole} and {revokeRole}. To change a role's admin, use {_setRoleAdmin}."
      },
      "getRoleMember(bytes32,uint256)": {
        "details": "Returns one of the accounts that have `role`. `index` must be a value between 0 and {getRoleMemberCount}, non-inclusive. Role bearers are not sorted in any particular way, and their ordering may change at any point. WARNING: When using {getRoleMember} and {getRoleMemberCount}, make sure you perform all queries on the same block. See the following https://forum.openzeppelin.com/t/iterating-over-elements-on-enumerableset-in-openzeppelin-contracts/2296[forum post] for more information."
      },
      "getRoleMemberCount(bytes32)": {
        "details": "Returns the number of accounts that have `role`. Can be used together with {getRoleMember} to enumerate all bearers of a role."
      },
      "grantRole(bytes32,address)": {
        "details": "Grants `role` to `account`. If `account` had not been already granted `role`, emits a {RoleGranted} event. Requirements: - the caller must have ``role``'s admin role."
      },
      "hasRole(bytes32,address)": {
        "details": "Returns `true` if `account` has been granted `role`."
      },
      "implementation()": {
        "details": "returns the implementation"
      },
      "initialize(address,address,uint256,uint256,uint256,string)": {
        "details": "set initial storage",
        "params": {
          "_cap": "Maximum amount of rewards issued, allocated reward amount.",
          "_miningPerSecond": "the mining amount per second",
          "_stakeType": "Type of staking contract, 0 TON staking, 1 basic ERC20 staking, 2 UniswapV3  staking",
          "_stakefactory": "the factory address to create stakeContract",
          "_tos": "TOS token address"
        }
      },
      "isAdmin(address)": {
        "details": "whether admin",
        "params": {
          "account": "address to check"
        }
      },
      "removeAdmin(address)": {
        "details": "remove admin",
        "params": {
          "account": "address to remove"
        }
      },
      "renounceRole(bytes32,address)": {
        "details": "Revokes `role` from the calling account. Roles are often managed via {grantRole} and {revokeRole}: this function's purpose is to provide a mechanism for accounts to lose their privileges if they are compromised (such as when a trusted device is misplaced). If the calling account had been granted `role`, emits a {RoleRevoked} event. Requirements: - the caller must be `account`."
      },
      "revokeRole(bytes32,address)": {
        "details": "Revokes `role` from `account`. If `account` had been granted `role`, emits a {RoleRevoked} event. Requirements: - the caller must have ``role``'s admin role."
      },
      "setProxyPause(bool)": {
        "params": {
          "_pause": "true:pause or false:resume"
        }
      },
      "transferAdmin(address)": {
        "details": "transfer admin",
        "params": {
          "newAdmin": "new admin address"
        }
      },
      "upgradeTo(address)": {
        "params": {
          "impl": "New implementation contract address"
        }
      }
    },
    "title": "Proxy for StakeVault",
    "version": 1
  },
  "userdoc": {
    "kind": "user",
    "methods": {
      "setProxyPause(bool)": {
        "notice": "Set pause state"
      },
      "upgradeTo(address)": {
        "notice": "Set implementation contract"
      }
    },
    "version": 1
  }
}