{
  "contractName": "StakeUniswapV3Storage",
  "abi": [
    {
      "inputs": [],
      "name": "coinage",
      "outputs": [
        {
          "internalType": "address",
          "name": "",
          "type": "address"
        }
      ],
      "stateMutability": "view",
      "type": "function"
    },
    {
      "inputs": [],
      "name": "coinageLastMintBlockTimetamp",
      "outputs": [
        {
          "internalType": "uint256",
          "name": "",
          "type": "uint256"
        }
      ],
      "stateMutability": "view",
      "type": "function"
    },
    {
      "inputs": [
        {
          "internalType": "uint256",
          "name": "",
          "type": "uint256"
        }
      ],
      "name": "depositTokens",
      "outputs": [
        {
          "internalType": "address",
          "name": "owner",
          "type": "address"
        },
        {
          "internalType": "uint256",
          "name": "idIndex",
          "type": "uint256"
        },
        {
          "internalType": "uint128",
          "name": "liquidity",
          "type": "uint128"
        },
        {
          "internalType": "int24",
          "name": "tickLower",
          "type": "int24"
        },
        {
          "internalType": "int24",
          "name": "tickUpper",
          "type": "int24"
        },
        {
          "internalType": "uint32",
          "name": "startTime",
          "type": "uint32"
        },
        {
          "internalType": "uint32",
          "name": "endTime",
          "type": "uint32"
        },
        {
          "internalType": "uint32",
          "name": "claimedTime",
          "type": "uint32"
        },
        {
          "internalType": "uint160",
          "name": "secondsInsideInitial",
          "type": "uint160"
        },
        {
          "internalType": "uint160",
          "name": "secondsInsideLast",
          "type": "uint160"
        }
      ],
      "stateMutability": "view",
      "type": "function"
    },
    {
      "inputs": [],
      "name": "migratedL2",
      "outputs": [
        {
          "internalType": "bool",
          "name": "",
          "type": "bool"
        }
      ],
      "stateMutability": "view",
      "type": "function"
    },
    {
      "inputs": [],
      "name": "miningAmountTotal",
      "outputs": [
        {
          "internalType": "uint256",
          "name": "",
          "type": "uint256"
        }
      ],
      "stateMutability": "view",
      "type": "function"
    },
    {
      "inputs": [],
      "name": "miningIntervalSeconds",
      "outputs": [
        {
          "internalType": "uint256",
          "name": "",
          "type": "uint256"
        }
      ],
      "stateMutability": "view",
      "type": "function"
    },
    {
      "inputs": [],
      "name": "nonMiningAmountTotal",
      "outputs": [
        {
          "internalType": "uint256",
          "name": "",
          "type": "uint256"
        }
      ],
      "stateMutability": "view",
      "type": "function"
    },
    {
      "inputs": [],
      "name": "nonfungiblePositionManager",
      "outputs": [
        {
          "internalType": "contract INonfungiblePositionManager",
          "name": "",
          "type": "address"
        }
      ],
      "stateMutability": "view",
      "type": "function"
    },
    {
      "inputs": [],
      "name": "pauseProxy",
      "outputs": [
        {
          "internalType": "bool",
          "name": "",
          "type": "bool"
        }
      ],
      "stateMutability": "view",
      "type": "function"
    },
    {
      "inputs": [],
      "name": "poolAddress",
      "outputs": [
        {
          "internalType": "address",
          "name": "",
          "type": "address"
        }
      ],
      "stateMutability": "view",
      "type": "function"
    },
    {
      "inputs": [],
      "name": "poolFee",
      "outputs": [
        {
          "internalType": "uint256",
          "name": "",
          "type": "uint256"
        }
      ],
      "stateMutability": "view",
      "type": "function"
    },
    {
      "inputs": [],
      "name": "poolToken0",
      "outputs": [
        {
          "internalType": "address",
          "name": "",
          "type": "address"
        }
      ],
      "stateMutability": "view",
      "type": "function"
    },
    {
      "inputs": [],
      "name": "poolToken1",
      "outputs": [
        {
          "internalType": "address",
          "name": "",
          "type": "address"
        }
      ],
      "stateMutability": "view",
      "type": "function"
    },
    {
      "inputs": [],
      "name": "stakeRegistry",
      "outputs": [
        {
          "internalType": "address",
          "name": "",
          "type": "address"
        }
      ],
      "stateMutability": "view",
      "type": "function"
    },
    {
      "inputs": [
        {
          "internalType": "uint256",
          "name": "",
          "type": "uint256"
        }
      ],
      "name": "stakedCoinageTokens",
      "outputs": [
        {
          "internalType": "uint256",
          "name": "amount",
          "type": "uint256"
        },
        {
          "internalType": "uint32",
          "name": "startTime",
          "type": "uint32"
        },
        {
          "internalType": "uint32",
          "name": "claimedTime",
          "type": "uint32"
        },
        {
          "internalType": "uint256",
          "name": "claimedAmount",
          "type": "uint256"
        },
        {
          "internalType": "uint256",
          "name": "nonMiningAmount",
          "type": "uint256"
        }
      ],
      "stateMutability": "view",
      "type": "function"
    },
    {
      "inputs": [],
      "name": "startTime",
      "outputs": [
        {
          "internalType": "uint256",
          "name": "",
          "type": "uint256"
        }
      ],
      "stateMutability": "view",
      "type": "function"
    },
    {
      "inputs": [],
      "name": "token",
      "outputs": [
        {
          "internalType": "address",
          "name": "",
          "type": "address"
        }
      ],
      "stateMutability": "view",
      "type": "function"
    },
    {
      "inputs": [],
      "name": "totalStakedAmount",
      "outputs": [
        {
          "internalType": "uint256",
          "name": "",
          "type": "uint256"
        }
      ],
      "stateMutability": "view",
      "type": "function"
    },
    {
      "inputs": [],
      "name": "totalStakers",
      "outputs": [
        {
          "internalType": "uint256",
          "name": "",
          "type": "uint256"
        }
      ],
      "stateMutability": "view",
      "type": "function"
    },
    {
      "inputs": [],
      "name": "totalTokens",
      "outputs": [
        {
          "internalType": "uint256",
          "name": "",
          "type": "uint256"
        }
      ],
      "stateMutability": "view",
      "type": "function"
    },
    {
      "inputs": [],
      "name": "uniswapV3FactoryAddress",
      "outputs": [
        {
          "internalType": "address",
          "name": "",
          "type": "address"
        }
      ],
      "stateMutability": "view",
      "type": "function"
    },
    {
      "inputs": [
        {
          "internalType": "address",
          "name": "",
          "type": "address"
        },
        {
          "internalType": "uint256",
          "name": "",
          "type": "uint256"
        }
      ],
      "name": "userStakedTokenIds",
      "outputs": [
        {
          "internalType": "uint256",
          "name": "",
          "type": "uint256"
        }
      ],
      "stateMutability": "view",
      "type": "function"
    },
    {
      "inputs": [
        {
          "internalType": "address",
          "name": "",
          "type": "address"
        }
      ],
      "name": "userTotalStaked",
      "outputs": [
        {
          "internalType": "bool",
          "name": "staked",
          "type": "bool"
        },
        {
          "internalType": "uint256",
          "name": "totalDepositAmount",
          "type": "uint256"
        },
        {
          "internalType": "uint256",
          "name": "totalMiningAmount",
          "type": "uint256"
        },
        {
          "internalType": "uint256",
          "name": "totalNonMiningAmount",
          "type": "uint256"
        }
      ],
      "stateMutability": "view",
      "type": "function"
    },
    {
      "inputs": [],
      "name": "vault",
      "outputs": [
        {
          "internalType": "address",
          "name": "",
          "type": "address"
        }
      ],
      "stateMutability": "view",
      "type": "function"
    }
  ],
  "bytecode": "0x608060405234801561001057600080fd5b506105b6806100206000396000f3fe608060405234801561001057600080fd5b50600436106101585760003560e01c80637e1c0c09116100c3578063af182fce1161007c578063af182fce14610299578063b44a2722146102a1578063b8ebb133146102a9578063dd49756e146102fa578063fbfa77cf1461038c578063fc0c546a1461039457610158565b80637e1c0c091461026957806380f5db8c146102715780638698903814610279578063a1f5f50e14610281578063a73bf6df14610289578063ad1b39091461029157610158565b8063567e98f911610115578063567e98f9146101df5780635f139e3f146101e757806363a8fd89146101ef578063683048351461020b578063719de1ef1461021357806378e979251461026157610158565b806302ff153e1461015d578063089fe6aa146101775780631755ff211461017f5780632867bb5b146101a35780634758af8a146101ab57806349cba16c146101b3575b600080fd5b61016561039c565b60408051918252519081900360200190f35b6101656103a2565b6101876103a8565b604080516001600160a01b039092168252519081900360200190f35b6101656103b7565b6101876103bd565b610165600480360360408110156101c957600080fd5b506001600160a01b0381351690602001356103cc565b6101656103fd565b610165610403565b6101f7610409565b604080519115158252519081900360200190f35b610187610412565b6102396004803603602081101561022957600080fd5b50356001600160a01b0316610421565b6040805194151585526020850193909352838301919091526060830152519081900360800190f35b61016561044c565b610165610452565b610187610458565b610165610467565b6101f761046d565b610187610476565b610187610485565b610165610494565b61018761049a565b6102c6600480360360208110156102bf57600080fd5b50356104a9565b6040805195865263ffffffff9485166020870152929093168483015260608401526080830191909152519081900360a00190f35b6103176004803603602081101561031057600080fd5b50356104e2565b604080516001600160a01b039b8c168152602081019a909a526001600160801b0390981689890152600296870b60608a01529490950b608088015263ffffffff92831660a088015290821660c08701521660e08501529084166101008401529092166101208201529051908190036101400190f35b610187610562565b610187610571565b60165481565b60125481565b6011546001600160a01b031681565b600e5481565b6010546001600160a01b031681565b600660205281600052604060002081815481106103e857600080fd5b90600052602060002001600091509150505481565b60055481565b60035481565b600c5460ff1681565b6001546001600160a01b031681565b600960205260009081526040902080546001820154600283015460039093015460ff90921692909184565b600d5481565b60175481565b6014546001600160a01b031681565b600a5481565b60185460ff1681565b600f546001600160a01b031681565b6015546001600160a01b031681565b60045481565b6013546001600160a01b031681565b6008602052600090815260409020805460018201546002830154600390930154919263ffffffff80831693640100000000909304169185565b60076020526000908152604090208054600182015460028084015460038501546004909501546001600160a01b039485169593946001600160801b03831694600160801b8404850b94600160981b8504900b9363ffffffff600160b01b8204811694600160d01b909204811693908316926401000000009004811691168a565b6002546001600160a01b031681565b6000546001600160a01b03168156fea2646970667358221220a6051413796d4830467ced749c261feac091a00434b4d7cca1ca4764f1377b0764736f6c63430007060033",
  "immutableReferences": {},
  "source": "//SPDX-License-Identifier: Unlicense\npragma solidity ^0.7.6;\n\nimport \"../libraries/LibUniswapV3Stake.sol\";\nimport \"@uniswap/v3-periphery/contracts/interfaces/INonfungiblePositionManager.sol\";\n\n/// @title The base storage of stakeContract\ncontract StakeUniswapV3Storage {\n\n    /// @dev reward token : TOS\n    address public token;\n\n    /// @dev registry\n    address public stakeRegistry;\n\n    /// @dev A vault that holds tos rewards.\n    address public vault;\n\n    /// @dev the total minied amount\n    uint256 public miningAmountTotal ;\n\n    /// @dev Rewards have been allocated,\n    ///      but liquidity is lost, and burned amount .\n    uint256 public nonMiningAmountTotal;\n\n    /// @dev the total staked amount\n    uint256 public totalStakedAmount;\n\n    /// @dev user's tokenIds\n    mapping(address => uint256[]) public userStakedTokenIds;\n\n    /// @dev  Deposited token ID information\n    mapping(uint256 => LibUniswapV3Stake.StakeLiquidity) public depositTokens;\n\n    /// @dev Amount that Token ID put into Coinage\n    mapping(uint256 => LibUniswapV3Stake.StakedTokenAmount)\n        public stakedCoinageTokens;\n\n    /// @dev Total staked information of users\n    mapping(address => LibUniswapV3Stake.StakedTotalTokenAmount)\n        public userTotalStaked;\n\n    /// @dev total stakers\n    uint256 public totalStakers;\n\n    /// @dev lock\n    uint256 internal _lock;\n\n    /// @dev flag for pause proxy\n    bool public pauseProxy;\n\n    /// @dev Start time is set when staking for the first time\n    uint256 public startTime;\n\n    /// @dev Mining interval can be given to save gas cost.\n    uint256 public miningIntervalSeconds;\n\n\n    /// @dev pools's token\n    address public poolToken0;\n    address public poolToken1;\n    address public poolAddress;\n    uint256 public poolFee;\n\n    /// @dev Rewards per second liquidity inside (3년간 8000000 TOS)\n    /// uint256 internal MINING_PER_SECOND = 84559445290038900;\n\n    /// @dev UniswapV3 Nonfungible position manager\n    INonfungiblePositionManager public nonfungiblePositionManager;\n\n    /// @dev UniswapV3 pool factory\n    address public uniswapV3FactoryAddress;\n\n    /// @dev coinage for reward 리워드 계산을 위한 코인에이지\n    address public coinage;\n\n    /// @dev  recently mined time (in seconds)\n    uint256 public coinageLastMintBlockTimetamp;\n\n    /// @dev total tokenIds\n    uint256 public totalTokens;\n\n    ///@dev for migrate L2\n    bool public migratedL2;\n\n    modifier nonZeroAddress(address _addr) {\n        require(_addr != address(0), \"StakeUniswapV3Storage: zero address\");\n        _;\n    }\n}\n",
  "sourcePath": "/Users/zena/ico2.0/ico20-contracts/contracts/stake/StakeUniswapV3Storage.sol",
  "compiler": {
    "name": "solc",
    "version": "0.7.6+commit.7338295f.Emscripten.clang"
  },
  "schemaVersion": "3.3.4",
  "updatedAt": "2021-07-28T11:36:55.662Z",
  "devdoc": {
    "kind": "dev",
    "methods": {},
    "stateVariables": {
      "_lock": {
        "details": "lock"
      },
      "coinage": {
        "details": "coinage for reward 리워드 계산을 위한 코인에이지"
      },
      "coinageLastMintBlockTimetamp": {
        "details": "recently mined time (in seconds)"
      },
      "depositTokens": {
        "details": "Deposited token ID information"
      },
      "migratedL2": {
        "details": "for migrate L2"
      },
      "miningAmountTotal": {
        "details": "the total minied amount"
      },
      "miningIntervalSeconds": {
        "details": "Mining interval can be given to save gas cost."
      },
      "nonMiningAmountTotal": {
        "details": "Rewards have been allocated,      but liquidity is lost, and burned amount ."
      },
      "nonfungiblePositionManager": {
        "details": "UniswapV3 Nonfungible position manager"
      },
      "pauseProxy": {
        "details": "flag for pause proxy"
      },
      "poolToken0": {
        "details": "pools's token"
      },
      "stakeRegistry": {
        "details": "registry"
      },
      "stakedCoinageTokens": {
        "details": "Amount that Token ID put into Coinage"
      },
      "startTime": {
        "details": "Start time is set when staking for the first time"
      },
      "token": {
        "details": "reward token : TOS"
      },
      "totalStakedAmount": {
        "details": "the total staked amount"
      },
      "totalStakers": {
        "details": "total stakers"
      },
      "totalTokens": {
        "details": "total tokenIds"
      },
      "uniswapV3FactoryAddress": {
        "details": "UniswapV3 pool factory"
      },
      "userStakedTokenIds": {
        "details": "user's tokenIds"
      },
      "userTotalStaked": {
        "details": "Total staked information of users"
      },
      "vault": {
        "details": "A vault that holds tos rewards."
      }
    },
    "title": "The base storage of stakeContract",
    "version": 1
  },
  "userdoc": {
    "kind": "user",
    "methods": {},
    "version": 1
  }
}