{
  "_format": "hh-sol-artifact-1",
  "contractName": "Layer2Registry",
  "sourceName": "contracts/stake/Layer2Registry.sol",
  "abi": [
    {
      "anonymous": false,
      "inputs": [
        {
          "indexed": true,
          "internalType": "address",
          "name": "previousOwner",
          "type": "address"
        },
        {
          "indexed": true,
          "internalType": "address",
          "name": "newOwner",
          "type": "address"
        }
      ],
      "name": "OwnershipTransferred",
      "type": "event"
    },
    {
      "constant": false,
      "inputs": [
        {
          "internalType": "address",
          "name": "layer2",
          "type": "address"
        },
        {
          "internalType": "address",
          "name": "seigManager",
          "type": "address"
        }
      ],
      "name": "deployCoinage",
      "outputs": [
        {
          "internalType": "bool",
          "name": "",
          "type": "bool"
        }
      ],
      "payable": false,
      "stateMutability": "nonpayable",
      "type": "function"
    },
    {
      "constant": true,
      "inputs": [],
      "name": "isOwner",
      "outputs": [
        {
          "internalType": "bool",
          "name": "",
          "type": "bool"
        }
      ],
      "payable": false,
      "stateMutability": "view",
      "type": "function"
    },
    {
      "constant": true,
      "inputs": [
        {
          "internalType": "uint256",
          "name": "index",
          "type": "uint256"
        }
      ],
      "name": "layer2ByIndex",
      "outputs": [
        {
          "internalType": "address",
          "name": "",
          "type": "address"
        }
      ],
      "payable": false,
      "stateMutability": "view",
      "type": "function"
    },
    {
      "constant": true,
      "inputs": [
        {
          "internalType": "address",
          "name": "layer2",
          "type": "address"
        }
      ],
      "name": "layer2s",
      "outputs": [
        {
          "internalType": "bool",
          "name": "",
          "type": "bool"
        }
      ],
      "payable": false,
      "stateMutability": "view",
      "type": "function"
    },
    {
      "constant": true,
      "inputs": [],
      "name": "numLayer2s",
      "outputs": [
        {
          "internalType": "uint256",
          "name": "",
          "type": "uint256"
        }
      ],
      "payable": false,
      "stateMutability": "view",
      "type": "function"
    },
    {
      "constant": true,
      "inputs": [],
      "name": "owner",
      "outputs": [
        {
          "internalType": "address",
          "name": "",
          "type": "address"
        }
      ],
      "payable": false,
      "stateMutability": "view",
      "type": "function"
    },
    {
      "constant": false,
      "inputs": [
        {
          "internalType": "address",
          "name": "layer2",
          "type": "address"
        }
      ],
      "name": "register",
      "outputs": [
        {
          "internalType": "bool",
          "name": "",
          "type": "bool"
        }
      ],
      "payable": false,
      "stateMutability": "nonpayable",
      "type": "function"
    },
    {
      "constant": false,
      "inputs": [
        {
          "internalType": "address",
          "name": "layer2",
          "type": "address"
        },
        {
          "internalType": "address",
          "name": "seigManager",
          "type": "address"
        }
      ],
      "name": "registerAndDeployCoinage",
      "outputs": [
        {
          "internalType": "bool",
          "name": "",
          "type": "bool"
        }
      ],
      "payable": false,
      "stateMutability": "nonpayable",
      "type": "function"
    },
    {
      "constant": false,
      "inputs": [
        {
          "internalType": "address",
          "name": "layer2",
          "type": "address"
        },
        {
          "internalType": "address",
          "name": "seigManager",
          "type": "address"
        },
        {
          "internalType": "uint256",
          "name": "commissionRate",
          "type": "uint256"
        },
        {
          "internalType": "bool",
          "name": "isCommissionRateNegative",
          "type": "bool"
        }
      ],
      "name": "registerAndDeployCoinageAndSetCommissionRate",
      "outputs": [
        {
          "internalType": "bool",
          "name": "",
          "type": "bool"
        }
      ],
      "payable": false,
      "stateMutability": "nonpayable",
      "type": "function"
    },
    {
      "constant": false,
      "inputs": [],
      "name": "renounceOwnership",
      "outputs": [],
      "payable": false,
      "stateMutability": "nonpayable",
      "type": "function"
    },
    {
      "constant": false,
      "inputs": [
        {
          "internalType": "address",
          "name": "newOwner",
          "type": "address"
        }
      ],
      "name": "transferOwnership",
      "outputs": [],
      "payable": false,
      "stateMutability": "nonpayable",
      "type": "function"
    },
    {
      "constant": false,
      "inputs": [
        {
          "internalType": "address",
          "name": "layer2",
          "type": "address"
        }
      ],
      "name": "unregister",
      "outputs": [
        {
          "internalType": "bool",
          "name": "",
          "type": "bool"
        }
      ],
      "payable": false,
      "stateMutability": "nonpayable",
      "type": "function"
    }
  ],
  "bytecode": "0x608060405260006100176001600160e01b0361006616565b600080546001600160a01b0319166001600160a01b0383169081178255604051929350917f8be0079c531659141344cd1fd0a4f28419497f9722a3daafe3b4186f6b6457e0908290a35061006a565b3390565b610bbe806100796000396000f3fe608060405234801561001057600080fd5b50600436106100d45760003560e01c80638510860411610081578063b7ffb1791161005b578063b7ffb1791461021b578063bcb1a71e14610238578063f2fde38b14610266576100d4565b806385108604146101c15780638da5cb5b146101ef5780638f32d59b14610213576100d4565b80634420e486116100b25780634420e4861461016b57806361cdc5b814610191578063715018a6146101b7576100d4565b80630d42d497146100d95780632ec2c246146100f35780633eb2a66c1461012d575b600080fd5b6100e161028c565b60408051918252519081900360200190f35b6101196004803603602081101561010957600080fd5b50356001600160a01b0316610292565b604080519115158252519081900360200190f35b6101196004803603608081101561014357600080fd5b506001600160a01b038135811691602081013590911690604081013590606001351515610336565b6101196004803603602081101561018157600080fd5b50356001600160a01b0316610442565b610119600480360360208110156101a757600080fd5b50356001600160a01b0316610518565b6101bf610536565b005b610119600480360360408110156101d757600080fd5b506001600160a01b03813581169160200135166105e6565b6101f76106be565b604080516001600160a01b039092168252519081900360200190f35b6101196106cd565b6101f76004803603602081101561023157600080fd5b50356106f1565b6101196004803603604081101561024e57600080fd5b506001600160a01b038135811691602001351661070c565b6101bf6004803603602081101561027c57600080fd5b50356001600160a01b0316610801565b60025490565b600061029c6106cd565b6102ed576040805162461bcd60e51b815260206004820181905260248201527f4f776e61626c653a2063616c6c6572206973206e6f7420746865206f776e6572604482015290519081900360640190fd5b6001600160a01b03821660009081526001602052604090205460ff1661031257600080fd5b6001600160a01b039091166000908152600160205260409020805460ff1916905590565b6000846103416106cd565b806103c15750336001600160a01b0316816001600160a01b031663570ca7356040518163ffffffff1660e01b815260040160206040518083038186803b15801561038a57600080fd5b505afa15801561039e573d6000803e3d6000fd5b505050506040513d60208110156103b457600080fd5b50516001600160a01b0316145b6103fc5760405162461bcd60e51b8152600401808060200182810382526027815260200180610b636027913960400191505060405180910390fd5b61040586610866565b61040e57600080fd5b6104188686610955565b61042157600080fd5b61042d868686866109e2565b61043657600080fd5b50600195945050505050565b60008161044d6106cd565b806104cd5750336001600160a01b0316816001600160a01b031663570ca7356040518163ffffffff1660e01b815260040160206040518083038186803b15801561049657600080fd5b505afa1580156104aa573d6000803e3d6000fd5b505050506040513d60208110156104c057600080fd5b50516001600160a01b0316145b6105085760405162461bcd60e51b8152600401808060200182810382526027815260200180610b636027913960400191505060405180910390fd5b61051183610866565b9392505050565b6001600160a01b031660009081526001602052604090205460ff1690565b61053e6106cd565b61058f576040805162461bcd60e51b815260206004820181905260248201527f4f776e61626c653a2063616c6c6572206973206e6f7420746865206f776e6572604482015290519081900360640190fd5b600080546040516001600160a01b03909116907f8be0079c531659141344cd1fd0a4f28419497f9722a3daafe3b4186f6b6457e0908390a36000805473ffffffffffffffffffffffffffffffffffffffff19169055565b6000826105f16106cd565b806106715750336001600160a01b0316816001600160a01b031663570ca7356040518163ffffffff1660e01b815260040160206040518083038186803b15801561063a57600080fd5b505afa15801561064e573d6000803e3d6000fd5b505050506040513d602081101561066457600080fd5b50516001600160a01b0316145b6106ac5760405162461bcd60e51b8152600401808060200182810382526027815260200180610b636027913960400191505060405180910390fd5b6106b68484610955565b949350505050565b6000546001600160a01b031690565b600080546001600160a01b03166106e2610a8b565b6001600160a01b031614905090565b6000908152600360205260409020546001600160a01b031690565b6000826107176106cd565b806107975750336001600160a01b0316816001600160a01b031663570ca7356040518163ffffffff1660e01b815260040160206040518083038186803b15801561076057600080fd5b505afa158015610774573d6000803e3d6000fd5b505050506040513d602081101561078a57600080fd5b50516001600160a01b0316145b6107d25760405162461bcd60e51b8152600401808060200182810382526027815260200180610b636027913960400191505060405180910390fd5b6107db84610866565b6107e457600080fd5b6107ee8484610955565b6107f757600080fd5b5060019392505050565b6108096106cd565b61085a576040805162461bcd60e51b815260206004820181905260248201527f4f776e61626c653a2063616c6c6572206973206e6f7420746865206f776e6572604482015290519081900360640190fd5b61086381610a8f565b50565b6001600160a01b03811660009081526001602052604081205460ff161561088c57600080fd5b816001600160a01b031663882eed2c6040518163ffffffff1660e01b815260040160206040518083038186803b1580156108c557600080fd5b505afa1580156108d9573d6000803e3d6000fd5b505050506040513d60208110156108ef57600080fd5b50516108fa57600080fd5b506001600160a01b03166000818152600160208181526040808420805460ff1916841790556002805485526003909252909220805473ffffffffffffffffffffffffffffffffffffffff191690931790925580548201905590565b6000816001600160a01b031663833a774f846040518263ffffffff1660e01b815260040180826001600160a01b03166001600160a01b03168152602001915050602060405180830381600087803b1580156109af57600080fd5b505af11580156109c3573d6000803e3d6000fd5b505050506040513d60208110156109d957600080fd5b50519392505050565b604080517f4224ed660000000000000000000000000000000000000000000000000000000081526001600160a01b0386811660048301526024820185905283151560448301529151600092861691634224ed6691606480830192602092919082900301818787803b158015610a5657600080fd5b505af1158015610a6a573d6000803e3d6000fd5b505050506040513d6020811015610a8057600080fd5b505195945050505050565b3390565b6001600160a01b038116610ad45760405162461bcd60e51b8152600401808060200182810382526026815260200180610b3d6026913960400191505060405180910390fd5b600080546040516001600160a01b03808516939216917f8be0079c531659141344cd1fd0a4f28419497f9722a3daafe3b4186f6b6457e091a36000805473ffffffffffffffffffffffffffffffffffffffff19166001600160a01b039290921691909117905556fe4f776e61626c653a206e6577206f776e657220697320746865207a65726f206164647265737373656e646572206973206e656974686572206f70657261746f72206e6f72206f70657261746f72a265627a7a72315820eb705ce8841d54e86d8c2e2a2748d8e2ecb176e985e466402fe442966dc18f7864736f6c634300050c0032",
  "linkReferences": {},
  "deployedLinkReferences": {}
}