{
  "_format": "hh-sol-artifact-1",
  "contractName": "StakeVaultFactory",
  "sourceName": "contracts/factory/StakeVaultFactory.sol",
  "abi": [
    {
      "inputs": [
        {
          "internalType": "address",
          "name": "_stakeVaultLogic",
          "type": "address"
        }
      ],
      "stateMutability": "nonpayable",
      "type": "constructor"
    },
    {
      "anonymous": false,
      "inputs": [
        {
          "indexed": true,
          "internalType": "bytes32",
          "name": "role",
          "type": "bytes32"
        },
        {
          "indexed": true,
          "internalType": "bytes32",
          "name": "previousAdminRole",
          "type": "bytes32"
        },
        {
          "indexed": true,
          "internalType": "bytes32",
          "name": "newAdminRole",
          "type": "bytes32"
        }
      ],
      "name": "RoleAdminChanged",
      "type": "event"
    },
    {
      "anonymous": false,
      "inputs": [
        {
          "indexed": true,
          "internalType": "bytes32",
          "name": "role",
          "type": "bytes32"
        },
        {
          "indexed": true,
          "internalType": "address",
          "name": "account",
          "type": "address"
        },
        {
          "indexed": true,
          "internalType": "address",
          "name": "sender",
          "type": "address"
        }
      ],
      "name": "RoleGranted",
      "type": "event"
    },
    {
      "anonymous": false,
      "inputs": [
        {
          "indexed": true,
          "internalType": "bytes32",
          "name": "role",
          "type": "bytes32"
        },
        {
          "indexed": true,
          "internalType": "address",
          "name": "account",
          "type": "address"
        },
        {
          "indexed": true,
          "internalType": "address",
          "name": "sender",
          "type": "address"
        }
      ],
      "name": "RoleRevoked",
      "type": "event"
    },
    {
      "inputs": [],
      "name": "ADMIN_ROLE",
      "outputs": [
        {
          "internalType": "bytes32",
          "name": "",
          "type": "bytes32"
        }
      ],
      "stateMutability": "view",
      "type": "function"
    },
    {
      "inputs": [],
      "name": "BURNER_ROLE",
      "outputs": [
        {
          "internalType": "bytes32",
          "name": "",
          "type": "bytes32"
        }
      ],
      "stateMutability": "view",
      "type": "function"
    },
    {
      "inputs": [],
      "name": "DEFAULT_ADMIN_ROLE",
      "outputs": [
        {
          "internalType": "bytes32",
          "name": "",
          "type": "bytes32"
        }
      ],
      "stateMutability": "view",
      "type": "function"
    },
    {
      "inputs": [],
      "name": "MINTER_ROLE",
      "outputs": [
        {
          "internalType": "bytes32",
          "name": "",
          "type": "bytes32"
        }
      ],
      "stateMutability": "view",
      "type": "function"
    },
    {
      "inputs": [
        {
          "internalType": "address",
          "name": "account",
          "type": "address"
        }
      ],
      "name": "addAdmin",
      "outputs": [],
      "stateMutability": "nonpayable",
      "type": "function"
    },
    {
      "inputs": [
        {
          "internalType": "uint256",
          "name": "_phase",
          "type": "uint256"
        },
        {
          "internalType": "address[4]",
          "name": "_addr",
          "type": "address[4]"
        },
        {
          "internalType": "uint256[4]",
          "name": "_intInfo",
          "type": "uint256[4]"
        },
        {
          "internalType": "address",
          "name": "owner",
          "type": "address"
        }
      ],
      "name": "create",
      "outputs": [
        {
          "internalType": "address",
          "name": "",
          "type": "address"
        }
      ],
      "stateMutability": "nonpayable",
      "type": "function"
    },
    {
      "inputs": [
        {
          "internalType": "uint256",
          "name": "_phase",
          "type": "uint256"
        },
        {
          "internalType": "address[2]",
          "name": "_addr",
          "type": "address[2]"
        },
        {
          "internalType": "uint256[3]",
          "name": "_intInfo",
          "type": "uint256[3]"
        },
        {
          "internalType": "string",
          "name": "_name",
          "type": "string"
        },
        {
          "internalType": "address",
          "name": "owner",
          "type": "address"
        }
      ],
      "name": "create2",
      "outputs": [
        {
          "internalType": "address",
          "name": "",
          "type": "address"
        }
      ],
      "stateMutability": "nonpayable",
      "type": "function"
    },
    {
      "inputs": [
        {
          "internalType": "bytes32",
          "name": "role",
          "type": "bytes32"
        }
      ],
      "name": "getRoleAdmin",
      "outputs": [
        {
          "internalType": "bytes32",
          "name": "",
          "type": "bytes32"
        }
      ],
      "stateMutability": "view",
      "type": "function"
    },
    {
      "inputs": [
        {
          "internalType": "bytes32",
          "name": "role",
          "type": "bytes32"
        },
        {
          "internalType": "uint256",
          "name": "index",
          "type": "uint256"
        }
      ],
      "name": "getRoleMember",
      "outputs": [
        {
          "internalType": "address",
          "name": "",
          "type": "address"
        }
      ],
      "stateMutability": "view",
      "type": "function"
    },
    {
      "inputs": [
        {
          "internalType": "bytes32",
          "name": "role",
          "type": "bytes32"
        }
      ],
      "name": "getRoleMemberCount",
      "outputs": [
        {
          "internalType": "uint256",
          "name": "",
          "type": "uint256"
        }
      ],
      "stateMutability": "view",
      "type": "function"
    },
    {
      "inputs": [
        {
          "internalType": "bytes32",
          "name": "role",
          "type": "bytes32"
        },
        {
          "internalType": "address",
          "name": "account",
          "type": "address"
        }
      ],
      "name": "grantRole",
      "outputs": [],
      "stateMutability": "nonpayable",
      "type": "function"
    },
    {
      "inputs": [
        {
          "internalType": "bytes32",
          "name": "role",
          "type": "bytes32"
        },
        {
          "internalType": "address",
          "name": "account",
          "type": "address"
        }
      ],
      "name": "hasRole",
      "outputs": [
        {
          "internalType": "bool",
          "name": "",
          "type": "bool"
        }
      ],
      "stateMutability": "view",
      "type": "function"
    },
    {
      "inputs": [
        {
          "internalType": "address",
          "name": "account",
          "type": "address"
        }
      ],
      "name": "isAdmin",
      "outputs": [
        {
          "internalType": "bool",
          "name": "",
          "type": "bool"
        }
      ],
      "stateMutability": "view",
      "type": "function"
    },
    {
      "inputs": [
        {
          "internalType": "address",
          "name": "account",
          "type": "address"
        }
      ],
      "name": "removeAdmin",
      "outputs": [],
      "stateMutability": "nonpayable",
      "type": "function"
    },
    {
      "inputs": [
        {
          "internalType": "bytes32",
          "name": "role",
          "type": "bytes32"
        },
        {
          "internalType": "address",
          "name": "account",
          "type": "address"
        }
      ],
      "name": "renounceRole",
      "outputs": [],
      "stateMutability": "nonpayable",
      "type": "function"
    },
    {
      "inputs": [
        {
          "internalType": "bytes32",
          "name": "role",
          "type": "bytes32"
        },
        {
          "internalType": "address",
          "name": "account",
          "type": "address"
        }
      ],
      "name": "revokeRole",
      "outputs": [],
      "stateMutability": "nonpayable",
      "type": "function"
    },
    {
      "inputs": [
        {
          "internalType": "uint256",
          "name": "_phase",
          "type": "uint256"
        },
        {
          "internalType": "address",
          "name": "_logic",
          "type": "address"
        }
      ],
      "name": "setVaultLogicByPhase",
      "outputs": [],
      "stateMutability": "nonpayable",
      "type": "function"
    },
    {
      "inputs": [
        {
          "internalType": "address",
          "name": "newAdmin",
          "type": "address"
        }
      ],
      "name": "transferAdmin",
      "outputs": [],
      "stateMutability": "nonpayable",
      "type": "function"
    },
    {
      "inputs": [
        {
          "internalType": "uint256",
          "name": "",
          "type": "uint256"
        }
      ],
      "name": "vaultLogics",
      "outputs": [
        {
          "internalType": "address",
          "name": "",
          "type": "address"
        }
      ],
      "stateMutability": "view",
      "type": "function"
    }
  ],
  "bytecode": "0x60806040523480156200001157600080fd5b5060405162006de338038062006de3833981810160405260208110156200003757600080fd5b8101908080519060200190929190505050600073ffffffffffffffffffffffffffffffffffffffff168173ffffffffffffffffffffffffffffffffffffffff161415620000ec576040517f08c379a000000000000000000000000000000000000000000000000000000000815260040180806020018281038252601d8152602001807f5374616b655661756c74466163746f72793a206c6f676963207a65726f00000081525060200191505060405180910390fd5b80600160006001815260200190815260200160002060006101000a81548173ffffffffffffffffffffffffffffffffffffffff021916908373ffffffffffffffffffffffffffffffffffffffff160217905550620001717fdf8b4c520ffe197c5343c6f5aec59570151ef9a492f2c624fd45ddde6135ec4280620001aa60201b60201c565b620001a37fdf8b4c520ffe197c5343c6f5aec59570151ef9a492f2c624fd45ddde6135ec42336200020c60201b60201c565b50620003a2565b8060008084815260200190815260200160002060020154837fbd79b86ffe0ab8e8776151514217cd7cacd52c909f66475c3af44e129f0b00ff60405160405180910390a480600080848152602001908152602001600020600201819055505050565b6200021e82826200022260201b60201c565b5050565b6200025081600080858152602001908152602001600020600001620002c560201b620019b01790919060201c565b15620002c15762000266620002fd60201b60201c565b73ffffffffffffffffffffffffffffffffffffffff168173ffffffffffffffffffffffffffffffffffffffff16837f2f8788117e7eff1d82e926ec794901d17c78024a50270940304540a733656f0d60405160405180910390a45b5050565b6000620002f5836000018373ffffffffffffffffffffffffffffffffffffffff1660001b6200030560201b60201c565b905092915050565b600033905090565b60006200031983836200037f60201b60201c565b6200037457826000018290806001815401808255809150506001900390600052602060002001600090919091909150558260000180549050836001016000848152602001908152602001600020819055506001905062000379565b600090505b92915050565b600080836001016000848152602001908152602001600020541415905092915050565b616a3180620003b26000396000f3fe60806040523480156200001157600080fd5b50600436106200012a5760003560e01c806375b238fc11620000bd578063a217fddf116200007b578063a217fddf1462000669578063ca15c8731462000689578063d539139314620006ce578063d547741f14620006ee578063e2823698146200073f576200012a565b806375b238fc14620003f85780638356453114620004185780639010d07c146200054257806390934a4314620005a757806391d148541462000602576200012a565b80631785f53c146200012f578063248a9ca3146200017657806324d7806c14620001bb578063282c51f314620002185780632f2ff15d146200023857806336568abe14620002895780634b0ca20e14620002da57806370480275146200036a57806375829def14620003b1575b600080fd5b62000174600480360360208110156200014757600080fd5b81019080803573ffffffffffffffffffffffffffffffffffffffff16906020019092919050505062000790565b005b620001a5600480360360208110156200018e57600080fd5b810190808035906020019092919050505062000821565b6040518082815260200191505060405180910390f35b6200020060048036036020811015620001d357600080fd5b81019080803573ffffffffffffffffffffffffffffffffffffffff16906020019092919050505062000840565b60405180821515815260200191505060405180910390f35b6200022262000875565b6040518082815260200191505060405180910390f35b62000287600480360360408110156200025057600080fd5b8101908080359060200190929190803573ffffffffffffffffffffffffffffffffffffffff16906020019092919050505062000899565b005b620002d860048036036040811015620002a157600080fd5b8101908080359060200190929190803573ffffffffffffffffffffffffffffffffffffffff1690602001909291905050506200092a565b005b6200033e6004803603610140811015620002f357600080fd5b81019080803590602001909291908060800190919291929080608001909192919290803573ffffffffffffffffffffffffffffffffffffffff169060200190929190505050620009c9565b604051808273ffffffffffffffffffffffffffffffffffffffff16815260200191505060405180910390f35b620003af600480360360208110156200038257600080fd5b81019080803573ffffffffffffffffffffffffffffffffffffffff16906020019092919050505062000f24565b005b620003f660048036036020811015620003c957600080fd5b81019080803573ffffffffffffffffffffffffffffffffffffffff16906020019092919050505062000fb5565b005b62000402620011b9565b6040518082815260200191505060405180910390f35b6200051660048036036101008110156200043157600080fd5b81019080803590602001909291908060400190919291929080606001909192919290803590602001906401000000008111156200046d57600080fd5b8201836020820111156200048057600080fd5b80359060200191846001830284011164010000000083111715620004a357600080fd5b91908080601f016020809104026020016040519081016040528093929190818152602001838380828437600081840152601f19601f820116905080830192505050505050509192919290803573ffffffffffffffffffffffffffffffffffffffff169060200190929190505050620011dd565b604051808273ffffffffffffffffffffffffffffffffffffffff16815260200191505060405180910390f35b6200057b600480360360408110156200055a57600080fd5b810190808035906020019092919080359060200190929190505050620016d5565b604051808273ffffffffffffffffffffffffffffffffffffffff16815260200191505060405180910390f35b620005d660048036036020811015620005bf57600080fd5b810190808035906020019092919050505062001708565b604051808273ffffffffffffffffffffffffffffffffffffffff16815260200191505060405180910390f35b62000651600480360360408110156200061a57600080fd5b8101908080359060200190929190803573ffffffffffffffffffffffffffffffffffffffff1690602001909291905050506200173b565b60405180821515815260200191505060405180910390f35b620006736200176e565b6040518082815260200191505060405180910390f35b620006b860048036036020811015620006a157600080fd5b810190808035906020019092919050505062001775565b6040518082815260200191505060405180910390f35b620006d86200179d565b6040518082815260200191505060405180910390f35b6200073d600480360360408110156200070657600080fd5b8101908080359060200190929190803573ffffffffffffffffffffffffffffffffffffffff169060200190929190505050620017c1565b005b6200078e600480360360408110156200075757600080fd5b8101908080359060200190929190803573ffffffffffffffffffffffffffffffffffffffff16906020019092919050505062001852565b005b6200079b3362000840565b620007f2576040517f08c379a00000000000000000000000000000000000000000000000000000000081526004018080602001828103825260228152602001806200692f6022913960400191505060405180910390fd5b6200081e7fdf8b4c520ffe197c5343c6f5aec59570151ef9a492f2c624fd45ddde6135ec42826200092a565b50565b6000806000838152602001908152602001600020600201549050919050565b60006200086e7fdf8b4c520ffe197c5343c6f5aec59570151ef9a492f2c624fd45ddde6135ec42836200173b565b9050919050565b7f9667e80708b6eeeb0053fa0cca44e028ff548e2a9f029edfeac87c118b08b7c881565b620008c360008084815260200190815260200160002060020154620008bd620019e2565b6200173b565b6200091a576040517f08c379a000000000000000000000000000000000000000000000000000000000815260040180806020018281038252602f81526020018062006900602f913960400191505060405180910390fd5b620009268282620019ea565b5050565b62000934620019e2565b73ffffffffffffffffffffffffffffffffffffffff168173ffffffffffffffffffffffffffffffffffffffff1614620009b9576040517f08c379a000000000000000000000000000000000000000000000000000000000815260040180806020018281038252602f815260200180620069cd602f913960400191505060405180910390fd5b620009c5828262001a82565b5050565b60008073ffffffffffffffffffffffffffffffffffffffff166001600087815260200190815260200160002060009054906101000a900473ffffffffffffffffffffffffffffffffffffffff1673ffffffffffffffffffffffffffffffffffffffff16141562000a85576040517f08c379a0000000000000000000000000000000000000000000000000000000008152600401808060200182810382526024815260200180620069a96024913960400191505060405180910390fd5b60008460006004811062000a9557fe5b602002013573ffffffffffffffffffffffffffffffffffffffff16905060008560016004811062000ac257fe5b602002013573ffffffffffffffffffffffffffffffffffffffff16905060008660026004811062000aef57fe5b602002013573ffffffffffffffffffffffffffffffffffffffff16905060008760036004811062000b1c57fe5b602002013573ffffffffffffffffffffffffffffffffffffffff16905060008760006004811062000b4957fe5b6020020135905060008860016004811062000b6057fe5b6020020135905060008960026004811062000b7757fe5b6020020135905060008a60036004811062000b8e57fe5b602002013590506000600160008f815260200190815260200160002060009054906101000a900473ffffffffffffffffffffffffffffffffffffffff1660405162000bd99062001dcc565b808273ffffffffffffffffffffffffffffffffffffffff168152602001915050604051809103906000f08015801562000c16573d6000803e3d6000fd5b509050600073ffffffffffffffffffffffffffffffffffffffff168173ffffffffffffffffffffffffffffffffffffffff16141562000cbd576040517f08c379a000000000000000000000000000000000000000000000000000000000815260040180806020018281038252601d8152602001807f5374616b655661756c74466163746f72793a2070726f7879207a65726f00000081525060200191505060405180910390fd5b8073ffffffffffffffffffffffffffffffffffffffff1663dc999b948a8a8787878d8c8e6040518963ffffffff1660e01b8152600401808973ffffffffffffffffffffffffffffffffffffffff1681526020018873ffffffffffffffffffffffffffffffffffffffff1681526020018781526020018681526020018581526020018473ffffffffffffffffffffffffffffffffffffffff1681526020018381526020018273ffffffffffffffffffffffffffffffffffffffff16815260200198505050505050505050600060405180830381600087803b15801562000da157600080fd5b505af115801562000db6573d6000803e3d6000fd5b505050508073ffffffffffffffffffffffffffffffffffffffff16632f2ff15d7fdf8b4c520ffe197c5343c6f5aec59570151ef9a492f2c624fd45ddde6135ec428d6040518363ffffffff1660e01b8152600401808381526020018273ffffffffffffffffffffffffffffffffffffffff16815260200192505050600060405180830381600087803b15801562000e4c57600080fd5b505af115801562000e61573d6000803e3d6000fd5b505050508073ffffffffffffffffffffffffffffffffffffffff1663d547741f7fdf8b4c520ffe197c5343c6f5aec59570151ef9a492f2c624fd45ddde6135ec42306040518363ffffffff1660e01b8152600401808381526020018273ffffffffffffffffffffffffffffffffffffffff16815260200192505050600060405180830381600087803b15801562000ef757600080fd5b505af115801562000f0c573d6000803e3d6000fd5b50505050809950505050505050505050949350505050565b62000f2f3362000840565b62000f86576040517f08c379a00000000000000000000000000000000000000000000000000000000081526004018080602001828103825260228152602001806200692f6022913960400191505060405180910390fd5b62000fb27fdf8b4c520ffe197c5343c6f5aec59570151ef9a492f2c624fd45ddde6135ec428262000899565b50565b62000fc03362000840565b62001017576040517f08c379a00000000000000000000000000000000000000000000000000000000081526004018080602001828103825260228152602001806200692f6022913960400191505060405180910390fd5b600073ffffffffffffffffffffffffffffffffffffffff168173ffffffffffffffffffffffffffffffffffffffff161415620010bb576040517f08c379a00000000000000000000000000000000000000000000000000000000081526004018080602001828103825260188152602001807f41636365737369626c653a207a65726f2061646472657373000000000000000081525060200191505060405180910390fd5b8073ffffffffffffffffffffffffffffffffffffffff163373ffffffffffffffffffffffffffffffffffffffff1614156200115e576040517f08c379a00000000000000000000000000000000000000000000000000000000081526004018080602001828103825260168152602001807f41636365737369626c653a2073616d652061646d696e0000000000000000000081525060200191505060405180910390fd5b6200118a7fdf8b4c520ffe197c5343c6f5aec59570151ef9a492f2c624fd45ddde6135ec428262000899565b620011b67fdf8b4c520ffe197c5343c6f5aec59570151ef9a492f2c624fd45ddde6135ec42336200092a565b50565b7fdf8b4c520ffe197c5343c6f5aec59570151ef9a492f2c624fd45ddde6135ec4281565b60008073ffffffffffffffffffffffffffffffffffffffff166001600088815260200190815260200160002060009054906101000a900473ffffffffffffffffffffffffffffffffffffffff1673ffffffffffffffffffffffffffffffffffffffff16141562001299576040517f08c379a0000000000000000000000000000000000000000000000000000000008152600401808060200182810382526025815260200180620068db6025913960400191505060405180910390fd5b600085600060028110620012a957fe5b602002013573ffffffffffffffffffffffffffffffffffffffff169050600086600160028110620012d657fe5b602002013573ffffffffffffffffffffffffffffffffffffffff1690506000866000600381106200130357fe5b602002013590506000876001600381106200131a57fe5b602002013590506000886002600381106200133157fe5b602002013590506000600160008d815260200190815260200160002060009054906101000a900473ffffffffffffffffffffffffffffffffffffffff166040516200137c9062001dda565b808273ffffffffffffffffffffffffffffffffffffffff168152602001915050604051809103906000f080158015620013b9573d6000803e3d6000fd5b509050600073ffffffffffffffffffffffffffffffffffffffff168173ffffffffffffffffffffffffffffffffffffffff16141562001444576040517f08c379a0000000000000000000000000000000000000000000000000000000008152600401808060200182810382526028815260200180620069816028913960400191505060405180910390fd5b8073ffffffffffffffffffffffffffffffffffffffff1663b90a762a87878787878f6040518763ffffffff1660e01b8152600401808773ffffffffffffffffffffffffffffffffffffffff1681526020018673ffffffffffffffffffffffffffffffffffffffff16815260200185815260200184815260200183815260200180602001828103825283818151815260200191508051906020019080838360005b8381101562001501578082015181840152602081019050620014e4565b50505050905090810190601f1680156200152f5780820380516001836020036101000a031916815260200191505b50975050505050505050600060405180830381600087803b1580156200155457600080fd5b505af115801562001569573d6000803e3d6000fd5b505050508073ffffffffffffffffffffffffffffffffffffffff16632f2ff15d7fdf8b4c520ffe197c5343c6f5aec59570151ef9a492f2c624fd45ddde6135ec428a6040518363ffffffff1660e01b8152600401808381526020018273ffffffffffffffffffffffffffffffffffffffff16815260200192505050600060405180830381600087803b158015620015ff57600080fd5b505af115801562001614573d6000803e3d6000fd5b505050508073ffffffffffffffffffffffffffffffffffffffff1663d547741f7fdf8b4c520ffe197c5343c6f5aec59570151ef9a492f2c624fd45ddde6135ec42306040518363ffffffff1660e01b8152600401808381526020018273ffffffffffffffffffffffffffffffffffffffff16815260200192505050600060405180830381600087803b158015620016aa57600080fd5b505af1158015620016bf573d6000803e3d6000fd5b5050505080965050505050505095945050505050565b6000620017008260008086815260200190815260200160002060000162001b1a90919063ffffffff16565b905092915050565b60016020528060005260406000206000915054906101000a900473ffffffffffffffffffffffffffffffffffffffff1681565b6000620017668260008086815260200190815260200160002060000162001b3690919063ffffffff16565b905092915050565b6000801b81565b60006200179660008084815260200190815260200160002060000162001b68565b9050919050565b7ff0887ba65ee2024ea881d91b74c2450ef19e1557f03bed3ea9f16b037cbe2dc981565b620017eb60008084815260200190815260200160002060020154620017e5620019e2565b6200173b565b62001842576040517f08c379a0000000000000000000000000000000000000000000000000000000008152600401808060200182810382526030815260200180620069516030913960400191505060405180910390fd5b6200184e828262001a82565b5050565b6200185d3362000840565b620018b4576040517f08c379a00000000000000000000000000000000000000000000000000000000081526004018080602001828103825260228152602001806200692f6022913960400191505060405180910390fd5b80600073ffffffffffffffffffffffffffffffffffffffff168173ffffffffffffffffffffffffffffffffffffffff16141562001959576040517f08c379a00000000000000000000000000000000000000000000000000000000081526004018080602001828103825260178152602001807f5374616b655661756c74466163746f72793a207a65726f00000000000000000081525060200191505060405180910390fd5b816001600085815260200190815260200160002060006101000a81548173ffffffffffffffffffffffffffffffffffffffff021916908373ffffffffffffffffffffffffffffffffffffffff160217905550505050565b6000620019da836000018373ffffffffffffffffffffffffffffffffffffffff1660001b62001b7f565b905092915050565b600033905090565b62001a1381600080858152602001908152602001600020600001620019b090919063ffffffff16565b1562001a7e5762001a23620019e2565b73ffffffffffffffffffffffffffffffffffffffff168173ffffffffffffffffffffffffffffffffffffffff16837f2f8788117e7eff1d82e926ec794901d17c78024a50270940304540a733656f0d60405160405180910390a45b5050565b62001aab8160008085815260200190815260200160002060000162001bf390919063ffffffff16565b1562001b165762001abb620019e2565b73ffffffffffffffffffffffffffffffffffffffff168173ffffffffffffffffffffffffffffffffffffffff16837ff6391f5c32d9c69d2a47ea670b442974b53935d1edc7fd64eb21e047a839171b60405160405180910390a45b5050565b600062001b2b836000018362001c25565b60001c905092915050565b600062001b60836000018373ffffffffffffffffffffffffffffffffffffffff1660001b62001cab565b905092915050565b600062001b788260000162001cce565b9050919050565b600062001b8d838362001cab565b62001be857826000018290806001815401808255809150506001900390600052602060002001600090919091909150558260000180549050836001016000848152602001908152602001600020819055506001905062001bed565b600090505b92915050565b600062001c1d836000018373ffffffffffffffffffffffffffffffffffffffff1660001b62001cdf565b905092915050565b60008183600001805490501162001c88576040517f08c379a0000000000000000000000000000000000000000000000000000000008152600401808060200182810382526022815260200180620068b96022913960400191505060405180910390fd5b82600001828154811062001c9857fe5b9060005260206000200154905092915050565b600080836001016000848152602001908152602001600020541415905092915050565b600081600001805490509050919050565b6000808360010160008481526020019081526020016000205490506000811462001dc0576000600182039050600060018660000180549050039050600086600001828154811062001d2c57fe5b906000526020600020015490508087600001848154811062001d4a57fe5b906000526020600020018190555060018301876001016000838152602001908152602001600020819055508660000180548062001d8357fe5b6001900381819060005260206000200160009055905586600101600087815260200190815260200160002060009055600194505050505062001dc6565b60009150505b92915050565b61275c8062001de983390190565b61237480620045458339019056fe60806040523480156200001157600080fd5b506040516200275c3803806200275c833981810160405260208110156200003757600080fd5b810190808051906020019092919050505060017f360894a13ba1a3210667c828492db98dca3e2076cc3735a920a3ca505d382bbd60001c0360001b7f360894a13ba1a3210667c828492db98dca3e2076cc3735a920a3ca505d382bbc60001b146200009e57fe5b600073ffffffffffffffffffffffffffffffffffffffff168173ffffffffffffffffffffffffffffffffffffffff16141562000142576040517f08c379a000000000000000000000000000000000000000000000000000000000815260040180806020018281038252601a8152602001807f5374616b653150726f78793a206c6f676963206973207a65726f00000000000081525060200191505060405180910390fd5b6200015381620001f060201b60201c565b620001857fdf8b4c520ffe197c5343c6f5aec59570151ef9a492f2c624fd45ddde6135ec42806200028c60201b60201c565b620001b77fdf8b4c520ffe197c5343c6f5aec59570151ef9a492f2c624fd45ddde6135ec4233620002ee60201b60201c565b620001e97fdf8b4c520ffe197c5343c6f5aec59570151ef9a492f2c624fd45ddde6135ec4230620002ee60201b60201c565b5062000497565b62000206816200030460201b62001bdf1760201c565b6200025d576040517f08c379a0000000000000000000000000000000000000000000000000000000008152600401808060200182810382526046815260200180620027166046913960600191505060405180910390fd5b60007f360894a13ba1a3210667c828492db98dca3e2076cc3735a920a3ca505d382bbc60001b90508181555050565b8060008084815260200190815260200160002060020154837fbd79b86ffe0ab8e8776151514217cd7cacd52c909f66475c3af44e129f0b00ff60405160405180910390a480600080848152602001908152602001600020600201819055505050565b6200030082826200031760201b60201c565b5050565b600080823b905060008111915050919050565b6200034581600080858152602001908152602001600020600001620003ba60201b62001bf21790919060201c565b15620003b6576200035b620003f260201b60201c565b73ffffffffffffffffffffffffffffffffffffffff168173ffffffffffffffffffffffffffffffffffffffff16837f2f8788117e7eff1d82e926ec794901d17c78024a50270940304540a733656f0d60405160405180910390a45b5050565b6000620003ea836000018373ffffffffffffffffffffffffffffffffffffffff1660001b620003fa60201b60201c565b905092915050565b600033905090565b60006200040e83836200047460201b60201c565b620004695782600001829080600181540180825580915050600190039060005260206000200160009091909190915055826000018054905083600101600084815260200190815260200160002081905550600190506200046e565b600090505b92915050565b600080836001016000848152602001908152602001600020541415905092915050565b61226f80620004a76000396000f3fe6080604052600436106101d35760003560e01c806375829def116100f8578063b03dc51411610090578063b03dc51414610947578063b8c766b814610972578063b97af0db1461099f578063ca15c873146109ca578063d105bf8514610a19578063d539139314610a44578063d547741f14610a6f578063dc999b9414610aca578063dfbf9def14610ba4576101e2565b806375829def146106d457806375b238fc146107255780637cb00d251461075057806389f395de1461078d5780639010d07c146107ce57806391d148541461083d5780639d84ca35146108ae578063a1f5f50e146108ef578063a217fddf1461091c576101e2565b806336568abe1161016b57806336568abe146104835780633659cfe6146104de5780633a76eb371461052f57806343b0934a1461055a5780634b5e7cd51461059b5780635c60da1b146105c65780635f1bd62a1461060757806363a8fd89146106565780637048027514610683576101e2565b8063153099d0146101ec5780631785f53c1461023b578063200272751461028c578063248a9ca3146102b757806324d7806c14610306578063282c51f31461036d578063294f5fa3146103985780632f2ff15d146103fd578063355274ea14610458576101e2565b366101e2576101e0610c91565b005b6101ea610c91565b005b3480156101f857600080fd5b506102256004803603602081101561020f57600080fd5b8101908080359060200190929190505050610d62565b6040518082815260200191505060405180910390f35b34801561024757600080fd5b5061028a6004803603602081101561025e57600080fd5b81019080803573ffffffffffffffffffffffffffffffffffffffff169060200190929190505050610d86565b005b34801561029857600080fd5b506102a1610e11565b6040518082815260200191505060405180910390f35b3480156102c357600080fd5b506102f0600480360360208110156102da57600080fd5b8101908080359060200190929190505050610e17565b6040518082815260200191505060405180910390f35b34801561031257600080fd5b506103556004803603602081101561032957600080fd5b81019080803573ffffffffffffffffffffffffffffffffffffffff169060200190929190505050610e36565b60405180821515815260200191505060405180910390f35b34801561037957600080fd5b50610382610e69565b6040518082815260200191505060405180910390f35b3480156103a457600080fd5b506103d1600480360360208110156103bb57600080fd5b8101908080359060200190929190505050610e8d565b604051808273ffffffffffffffffffffffffffffffffffffffff16815260200191505060405180910390f35b34801561040957600080fd5b506104566004803603604081101561042057600080fd5b8101908080359060200190929190803573ffffffffffffffffffffffffffffffffffffffff169060200190929190505050610ecc565b005b34801561046457600080fd5b5061046d610f55565b6040518082815260200191505060405180910390f35b34801561048f57600080fd5b506104dc600480360360408110156104a657600080fd5b8101908080359060200190929190803573ffffffffffffffffffffffffffffffffffffffff169060200190929190505050610f5b565b005b3480156104ea57600080fd5b5061052d6004803603602081101561050157600080fd5b81019080803573ffffffffffffffffffffffffffffffffffffffff169060200190929190505050610ff4565b005b34801561053b57600080fd5b506105446111ed565b6040518082815260200191505060405180910390f35b34801561056657600080fd5b5061056f6111f3565b604051808273ffffffffffffffffffffffffffffffffffffffff16815260200191505060405180910390f35b3480156105a757600080fd5b506105b0611219565b6040518082815260200191505060405180910390f35b3480156105d257600080fd5b506105db61121f565b604051808273ffffffffffffffffffffffffffffffffffffffff16815260200191505060405180910390f35b34801561061357600080fd5b506106406004803603602081101561062a57600080fd5b810190808035906020019092919050505061122e565b6040518082815260200191505060405180910390f35b34801561066257600080fd5b5061066b611246565b60405180821515815260200191505060405180910390f35b34801561068f57600080fd5b506106d2600480360360208110156106a657600080fd5b81019080803573ffffffffffffffffffffffffffffffffffffffff169060200190929190505050611259565b005b3480156106e057600080fd5b50610723600480360360208110156106f757600080fd5b81019080803573ffffffffffffffffffffffffffffffffffffffff1690602001909291905050506112e4565b005b34801561073157600080fd5b5061073a6114de565b6040518082815260200191505060405180910390f35b34801561075c57600080fd5b5061078b6004803603602081101561077357600080fd5b81019080803515159060200190929190505050611502565b005b34801561079957600080fd5b506107a261157d565b604051808273ffffffffffffffffffffffffffffffffffffffff16815260200191505060405180910390f35b3480156107da57600080fd5b50610811600480360360408110156107f157600080fd5b8101908080359060200190929190803590602001909291905050506115a3565b604051808273ffffffffffffffffffffffffffffffffffffffff16815260200191505060405180910390f35b34801561084957600080fd5b506108966004803603604081101561086057600080fd5b8101908080359060200190929190803573ffffffffffffffffffffffffffffffffffffffff1690602001909291905050506115d4565b60405180821515815260200191505060405180910390f35b3480156108ba57600080fd5b506108c3611605565b604051808273ffffffffffffffffffffffffffffffffffffffff16815260200191505060405180910390f35b3480156108fb57600080fd5b5061090461162b565b60405180821515815260200191505060405180910390f35b34801561092857600080fd5b5061093161163e565b6040518082815260200191505060405180910390f35b34801561095357600080fd5b5061095c611645565b6040518082815260200191505060405180910390f35b34801561097e57600080fd5b5061098761164b565b60405180821515815260200191505060405180910390f35b3480156109ab57600080fd5b506109b461165e565b6040518082815260200191505060405180910390f35b3480156109d657600080fd5b50610a03600480360360208110156109ed57600080fd5b8101908080359060200190929190505050611664565b6040518082815260200191505060405180910390f35b348015610a2557600080fd5b50610a2e61168a565b6040518082815260200191505060405180910390f35b348015610a5057600080fd5b50610a59611690565b6040518082815260200191505060405180910390f35b348015610a7b57600080fd5b50610ac860048036036040811015610a9257600080fd5b8101908080359060200190929190803573ffffffffffffffffffffffffffffffffffffffff1690602001909291905050506116b4565b005b348015610ad657600080fd5b50610ba26004803603610100811015610aee57600080fd5b81019080803573ffffffffffffffffffffffffffffffffffffffff169060200190929190803573ffffffffffffffffffffffffffffffffffffffff169060200190929190803590602001909291908035906020019092919080359060200190929190803573ffffffffffffffffffffffffffffffffffffffff16906020019092919080359060200190929190803573ffffffffffffffffffffffffffffffffffffffff16906020019092919050505061173d565b005b348015610bb057600080fd5b50610bf360048036036020811015610bc757600080fd5b81019080803573ffffffffffffffffffffffffffffffffffffffff169060200190929190505050611b0b565b6040518080602001878152602001868152602001858152602001848152602001838152602001828103825288818151815260200191508051906020019080838360005b83811015610c51578082015181840152602081019050610c36565b50505050905090810190601f168015610c7e5780820380516001836020036101000a031916815260200191505b5097505050505050505060405180910390f35b6000610c9b611c22565b9050600073ffffffffffffffffffffffffffffffffffffffff168173ffffffffffffffffffffffffffffffffffffffff1614158015610ce75750601160009054906101000a900460ff16155b610d3c576040517f08c379a000000000000000000000000000000000000000000000000000000000815260040180806020018281038252602781526020018061217a6027913960400191505060405180910390fd5b3660008037600080366000845af43d6000803e8060008114610d5d573d6000f35b3d6000fd5b600e8181548110610d7257600080fd5b906000526020600020016000915090505481565b610d8f33610e36565b610de4576040517f08c379a00000000000000000000000000000000000000000000000000000000081526004018080602001828103825260228152602001806120fe6022913960400191505060405180910390fd5b610e0e7fdf8b4c520ffe197c5343c6f5aec59570151ef9a492f2c624fd45ddde6135ec4282610f5b565b50565b60045481565b6000806000838152602001908152602001600020600201549050919050565b6000610e627fdf8b4c520ffe197c5343c6f5aec59570151ef9a492f2c624fd45ddde6135ec42836115d4565b9050919050565b7f9667e80708b6eeeb0053fa0cca44e028ff548e2a9f029edfeac87c118b08b7c881565b600c8181548110610e9d57600080fd5b906000526020600020016000915054906101000a900473ffffffffffffffffffffffffffffffffffffffff1681565b610ef260008084815260200190815260200160002060020154610eed611c53565b6115d4565b610f47576040517f08c379a000000000000000000000000000000000000000000000000000000000815260040180806020018281038252602f8152602001806120cf602f913960400191505060405180910390fd5b610f518282611c5b565b5050565b60035481565b610f63611c53565b73ffffffffffffffffffffffffffffffffffffffff168173ffffffffffffffffffffffffffffffffffffffff1614610fe6576040517f08c379a000000000000000000000000000000000000000000000000000000000815260040180806020018281038252602f81526020018061220b602f913960400191505060405180910390fd5b610ff08282611cee565b5050565b610ffd33610e36565b611052576040517f08c379a00000000000000000000000000000000000000000000000000000000081526004018080602001828103825260228152602001806120fe6022913960400191505060405180910390fd5b600073ffffffffffffffffffffffffffffffffffffffff168173ffffffffffffffffffffffffffffffffffffffff1614156110f5576040517f08c379a000000000000000000000000000000000000000000000000000000000815260040180806020018281038252601e8152602001807f5374616b655661756c7450726f78793a20696e707574206973207a65726f000081525060200191505060405180910390fd5b8073ffffffffffffffffffffffffffffffffffffffff16611114611c22565b73ffffffffffffffffffffffffffffffffffffffff16141561119e576040517f08c379a00000000000000000000000000000000000000000000000000000000081526004018080602001828103825260158152602001807f5374616b655661756c7450726f78793a2073616d65000000000000000000000081525060200191505060405180910390fd5b6111a781611d81565b8073ffffffffffffffffffffffffffffffffffffffff167fbc7cd75a20ee27fd9adebab32041f755214dbc6bffa90cc0225b39da2e5c2d3b60405160405180910390a250565b60065481565b600260009054906101000a900473ffffffffffffffffffffffffffffffffffffffff1681565b60055481565b6000611229611c22565b905090565b600f6020528060005260406000206000915090505481565b601160009054906101000a900460ff1681565b61126233610e36565b6112b7576040517f08c379a00000000000000000000000000000000000000000000000000000000081526004018080602001828103825260228152602001806120fe6022913960400191505060405180910390fd5b6112e17fdf8b4c520ffe197c5343c6f5aec59570151ef9a492f2c624fd45ddde6135ec4282610ecc565b50565b6112ed33610e36565b611342576040517f08c379a00000000000000000000000000000000000000000000000000000000081526004018080602001828103825260228152602001806120fe6022913960400191505060405180910390fd5b600073ffffffffffffffffffffffffffffffffffffffff168173ffffffffffffffffffffffffffffffffffffffff1614156113e5576040517f08c379a00000000000000000000000000000000000000000000000000000000081526004018080602001828103825260188152602001807f41636365737369626c653a207a65726f2061646472657373000000000000000081525060200191505060405180910390fd5b8073ffffffffffffffffffffffffffffffffffffffff163373ffffffffffffffffffffffffffffffffffffffff161415611487576040517f08c379a00000000000000000000000000000000000000000000000000000000081526004018080602001828103825260168152602001807f41636365737369626c653a2073616d652061646d696e0000000000000000000081525060200191505060405180910390fd5b6114b17fdf8b4c520ffe197c5343c6f5aec59570151ef9a492f2c624fd45ddde6135ec4282610ecc565b6114db7fdf8b4c520ffe197c5343c6f5aec59570151ef9a492f2c624fd45ddde6135ec4233610f5b565b50565b7fdf8b4c520ffe197c5343c6f5aec59570151ef9a492f2c624fd45ddde6135ec4281565b61150b33610e36565b611560576040517f08c379a00000000000000000000000000000000000000000000000000000000081526004018080602001828103825260228152602001806120fe6022913960400191505060405180910390fd5b80601160006101000a81548160ff02191690831515021790555050565b600160009054906101000a900473ffffffffffffffffffffffffffffffffffffffff1681565b60006115cc82600080868152602001908152602001600020600001611e0e90919063ffffffff16565b905092915050565b60006115fd82600080868152602001908152602001600020600001611e2890919063ffffffff16565b905092915050565b600b60009054906101000a900473ffffffffffffffffffffffffffffffffffffffff1681565b601160019054906101000a900460ff1681565b6000801b81565b60075481565b600960009054906101000a900460ff1681565b600a5481565b6000611683600080848152602001908152602001600020600001611e58565b9050919050565b60085481565b7ff0887ba65ee2024ea881d91b74c2450ef19e1557f03bed3ea9f16b037cbe2dc981565b6116da600080848152602001908152602001600020600201546116d5611c53565b6115d4565b61172f576040517f08c379a000000000000000000000000000000000000000000000000000000000815260040180806020018281038252603081526020018061214a6030913960400191505060405180910390fd5b6117398282611cee565b5050565b61174633610e36565b61179b576040517f08c379a00000000000000000000000000000000000000000000000000000000081526004018080602001828103825260228152602001806120fe6022913960400191505060405180910390fd5b600073ffffffffffffffffffffffffffffffffffffffff16600160009054906101000a900473ffffffffffffffffffffffffffffffffffffffff1673ffffffffffffffffffffffffffffffffffffffff1614611842576040517f08c379a00000000000000000000000000000000000000000000000000000000081526004018080602001828103825260248152602001806121e76024913960400191505060405180910390fd5b600073ffffffffffffffffffffffffffffffffffffffff168873ffffffffffffffffffffffffffffffffffffffff16141580156118ac5750600073ffffffffffffffffffffffffffffffffffffffff168373ffffffffffffffffffffffffffffffffffffffff1614155b61191e576040517f08c379a000000000000000000000000000000000000000000000000000000000815260040180806020018281038252601e8152602001807f5374616b655661756c7450726f78793a20696e707574206973207a65726f000081525060200191505060405180910390fd5b60008611611994576040517f08c379a00000000000000000000000000000000000000000000000000000000081526004018080602001828103825260198152602001807f5374616b65315661756c743a205f636170206973207a65726f0000000000000081525060200191505060405180910390fd5b83851080156119a35750600084115b6119f8576040517f08c379a000000000000000000000000000000000000000000000000000000000815260040180806020018281038252602a815260200180612120602a913960400191505060405180910390fd5b87600160006101000a81548173ffffffffffffffffffffffffffffffffffffffff021916908373ffffffffffffffffffffffffffffffffffffffff1602179055508560038190555086600260006101000a81548173ffffffffffffffffffffffffffffffffffffffff021916908373ffffffffffffffffffffffffffffffffffffffff160217905550846004819055508360058190555081600a8190555080600b60006101000a81548173ffffffffffffffffffffffffffffffffffffffff021916908373ffffffffffffffffffffffffffffffffffffffff160217905550611b017fdf8b4c520ffe197c5343c6f5aec59570151ef9a492f2c624fd45ddde6135ec4284610ecc565b5050505050505050565b600d602052806000526040600020600091509050806000018054600181600116156101000203166002900480601f016020809104026020016040519081016040528092919081815260200182805460018160011615610100020316600290048015611bb75780601f10611b8c57610100808354040283529160200191611bb7565b820191906000526020600020905b815481529060010190602001808311611b9a57829003601f168201915b5050505050908060010154908060020154908060030154908060040154908060050154905086565b600080823b905060008111915050919050565b6000611c1a836000018373ffffffffffffffffffffffffffffffffffffffff1660001b611e6d565b905092915050565b6000807f360894a13ba1a3210667c828492db98dca3e2076cc3735a920a3ca505d382bbc60001b9050805491505090565b600033905090565b611c8281600080858152602001908152602001600020600001611bf290919063ffffffff16565b15611cea57611c8f611c53565b73ffffffffffffffffffffffffffffffffffffffff168173ffffffffffffffffffffffffffffffffffffffff16837f2f8788117e7eff1d82e926ec794901d17c78024a50270940304540a733656f0d60405160405180910390a45b5050565b611d1581600080858152602001908152602001600020600001611edd90919063ffffffff16565b15611d7d57611d22611c53565b73ffffffffffffffffffffffffffffffffffffffff168173ffffffffffffffffffffffffffffffffffffffff16837ff6391f5c32d9c69d2a47ea670b442974b53935d1edc7fd64eb21e047a839171b60405160405180910390a45b5050565b611d8a81611bdf565b611ddf576040517f08c379a00000000000000000000000000000000000000000000000000000000081526004018080602001828103825260468152602001806121a16046913960600191505060405180910390fd5b60007f360894a13ba1a3210667c828492db98dca3e2076cc3735a920a3ca505d382bbc60001b90508181555050565b6000611e1d8360000183611f0d565b60001c905092915050565b6000611e50836000018373ffffffffffffffffffffffffffffffffffffffff1660001b611f90565b905092915050565b6000611e6682600001611fb3565b9050919050565b6000611e798383611f90565b611ed2578260000182908060018154018082558091505060019003906000526020600020016000909190919091505582600001805490508360010160008481526020019081526020016000208190555060019050611ed7565b600090505b92915050565b6000611f05836000018373ffffffffffffffffffffffffffffffffffffffff1660001b611fc4565b905092915050565b600081836000018054905011611f6e576040517f08c379a00000000000000000000000000000000000000000000000000000000081526004018080602001828103825260228152602001806120ad6022913960400191505060405180910390fd5b826000018281548110611f7d57fe5b9060005260206000200154905092915050565b600080836001016000848152602001908152602001600020541415905092915050565b600081600001805490509050919050565b600080836001016000848152602001908152602001600020549050600081146120a0576000600182039050600060018660000180549050039050600086600001828154811061200f57fe5b906000526020600020015490508087600001848154811061202c57fe5b906000526020600020018190555060018301876001016000838152602001908152602001600020819055508660000180548061206457fe5b600190038181906000526020600020016000905590558660010160008781526020019081526020016000206000905560019450505050506120a6565b60009150505b9291505056fe456e756d657261626c655365743a20696e646578206f7574206f6620626f756e6473416363657373436f6e74726f6c3a2073656e646572206d75737420626520616e2061646d696e20746f206772616e7441636365737369626c653a2043616c6c6572206973206e6f7420616e2061646d696e5374616b655661756c7450726f78793a207374617274426c6f636b20697320756e617661696c61626c65416363657373436f6e74726f6c3a2073656e646572206d75737420626520616e2061646d696e20746f207265766f6b655374616b655661756c7450726f78793a20696d706c204f522070726f78792069732066616c736550726f7879426173653a2043616e6e6f742073657420612070726f787920696d706c656d656e746174696f6e20746f2061206e6f6e2d636f6e747261637420616464726573735374616b655661756c7450726f78793a20616c726561647920696e697469616c697a6564416363657373436f6e74726f6c3a2063616e206f6e6c792072656e6f756e636520726f6c657320666f722073656c66a2646970667358221220ca3618065122fa715e3acce75caed3b8d3e146a3655b9eb6d601e9bba8dd67f164736f6c6343000706003350726f7879426173653a2043616e6e6f742073657420612070726f787920696d706c656d656e746174696f6e20746f2061206e6f6e2d636f6e7472616374206164647265737360806040523480156200001157600080fd5b506040516200237438038062002374833981810160405260208110156200003757600080fd5b810190808051906020019092919050505060017f360894a13ba1a3210667c828492db98dca3e2076cc3735a920a3ca505d382bbd60001c0360001b7f360894a13ba1a3210667c828492db98dca3e2076cc3735a920a3ca505d382bbc60001b146200009e57fe5b600073ffffffffffffffffffffffffffffffffffffffff168173ffffffffffffffffffffffffffffffffffffffff16141562000142576040517f08c379a000000000000000000000000000000000000000000000000000000000815260040180806020018281038252601f8152602001807f5374616b65325661756c7450726f78793a206c6f676963206973207a65726f0081525060200191505060405180910390fd5b6200015381620001f060201b60201c565b620001857fdf8b4c520ffe197c5343c6f5aec59570151ef9a492f2c624fd45ddde6135ec42806200028c60201b60201c565b620001b77fdf8b4c520ffe197c5343c6f5aec59570151ef9a492f2c624fd45ddde6135ec4233620002ee60201b60201c565b620001e97fdf8b4c520ffe197c5343c6f5aec59570151ef9a492f2c624fd45ddde6135ec4230620002ee60201b60201c565b5062000497565b62000206816200030460201b620017741760201c565b6200025d576040517f08c379a00000000000000000000000000000000000000000000000000000000081526004018080602001828103825260468152602001806200232e6046913960600191505060405180910390fd5b60007f360894a13ba1a3210667c828492db98dca3e2076cc3735a920a3ca505d382bbc60001b90508181555050565b8060008084815260200190815260200160002060020154837fbd79b86ffe0ab8e8776151514217cd7cacd52c909f66475c3af44e129f0b00ff60405160405180910390a480600080848152602001908152602001600020600201819055505050565b6200030082826200031760201b60201c565b5050565b600080823b905060008111915050919050565b6200034581600080858152602001908152602001600020600001620003ba60201b620017871790919060201c565b15620003b6576200035b620003f260201b60201c565b73ffffffffffffffffffffffffffffffffffffffff168173ffffffffffffffffffffffffffffffffffffffff16837f2f8788117e7eff1d82e926ec794901d17c78024a50270940304540a733656f0d60405160405180910390a45b5050565b6000620003ea836000018373ffffffffffffffffffffffffffffffffffffffff1660001b620003fa60201b60201c565b905092915050565b600033905090565b60006200040e83836200047460201b60201c565b620004695782600001829080600181540180825580915050600190039060005260206000200160009091909190915055826000018054905083600101600084815260200190815260200160002081905550600190506200046e565b600090505b92915050565b600080836001016000848152602001908152602001600020541415905092915050565b611e8780620004a76000396000f3fe6080604052600436106101705760003560e01c806375b238fc116100cc578063a1f5f50e1161007a578063a1f5f50e14610782578063a217fddf146107af578063b90a762a146107da578063b97af0db14610900578063ca15c8731461092b578063d53913931461097a578063d547741f146109a55761017f565b806375b238fc1461058d5780637cb00d25146105b857806385107367146105f557806389f395de146106365780638ae39cac146106775780639010d07c146106a257806391d14854146107115761017f565b8063355274ea11610129578063355274ea146103a657806336568abe146103d15780633659cfe61461042c5780635c60da1b1461047d57806363a8fd89146104be57806370480275146104eb57806375829def1461053c5761017f565b806306fdde03146101895780631785f53c14610219578063248a9ca31461026a57806324d7806c146102b9578063282c51f3146103205780632f2ff15d1461034b5761017f565b3661017f5761017d610a00565b005b610187610a00565b005b34801561019557600080fd5b5061019e610ad1565b6040518080602001828103825283818151815260200191508051906020019080838360005b838110156101de5780820151818401526020810190506101c3565b50505050905090810190601f16801561020b5780820380516001836020036101000a031916815260200191505b509250505060405180910390f35b34801561022557600080fd5b506102686004803603602081101561023c57600080fd5b81019080803573ffffffffffffffffffffffffffffffffffffffff169060200190929190505050610b6f565b005b34801561027657600080fd5b506102a36004803603602081101561028d57600080fd5b8101908080359060200190929190505050610bfa565b6040518082815260200191505060405180910390f35b3480156102c557600080fd5b50610308600480360360208110156102dc57600080fd5b81019080803573ffffffffffffffffffffffffffffffffffffffff169060200190929190505050610c19565b60405180821515815260200191505060405180910390f35b34801561032c57600080fd5b50610335610c4c565b6040518082815260200191505060405180910390f35b34801561035757600080fd5b506103a46004803603604081101561036e57600080fd5b8101908080359060200190929190803573ffffffffffffffffffffffffffffffffffffffff169060200190929190505050610c70565b005b3480156103b257600080fd5b506103bb610cf9565b6040518082815260200191505060405180910390f35b3480156103dd57600080fd5b5061042a600480360360408110156103f457600080fd5b8101908080359060200190929190803573ffffffffffffffffffffffffffffffffffffffff169060200190929190505050610cff565b005b34801561043857600080fd5b5061047b6004803603602081101561044f57600080fd5b81019080803573ffffffffffffffffffffffffffffffffffffffff169060200190929190505050610d98565b005b34801561048957600080fd5b50610492610f91565b604051808273ffffffffffffffffffffffffffffffffffffffff16815260200191505060405180910390f35b3480156104ca57600080fd5b506104d3610fa0565b60405180821515815260200191505060405180910390f35b3480156104f757600080fd5b5061053a6004803603602081101561050e57600080fd5b81019080803573ffffffffffffffffffffffffffffffffffffffff169060200190929190505050610fb3565b005b34801561054857600080fd5b5061058b6004803603602081101561055f57600080fd5b81019080803573ffffffffffffffffffffffffffffffffffffffff16906020019092919050505061103e565b005b34801561059957600080fd5b506105a2611238565b6040518082815260200191505060405180910390f35b3480156105c457600080fd5b506105f3600480360360208110156105db57600080fd5b8101908080351515906020019092919050505061125c565b005b34801561060157600080fd5b5061060a6112d7565b604051808273ffffffffffffffffffffffffffffffffffffffff16815260200191505060405180910390f35b34801561064257600080fd5b5061064b6112fd565b604051808273ffffffffffffffffffffffffffffffffffffffff16815260200191505060405180910390f35b34801561068357600080fd5b5061068c611323565b6040518082815260200191505060405180910390f35b3480156106ae57600080fd5b506106e5600480360360408110156106c557600080fd5b810190808035906020019092919080359060200190929190505050611329565b604051808273ffffffffffffffffffffffffffffffffffffffff16815260200191505060405180910390f35b34801561071d57600080fd5b5061076a6004803603604081101561073457600080fd5b8101908080359060200190929190803573ffffffffffffffffffffffffffffffffffffffff16906020019092919050505061135a565b60405180821515815260200191505060405180910390f35b34801561078e57600080fd5b5061079761138b565b60405180821515815260200191505060405180910390f35b3480156107bb57600080fd5b506107c461139e565b6040518082815260200191505060405180910390f35b3480156107e657600080fd5b506108fe600480360360c08110156107fd57600080fd5b81019080803573ffffffffffffffffffffffffffffffffffffffff169060200190929190803573ffffffffffffffffffffffffffffffffffffffff1690602001909291908035906020019092919080359060200190929190803590602001909291908035906020019064010000000081111561087857600080fd5b82018360208201111561088a57600080fd5b803590602001918460018302840111640100000000831117156108ac57600080fd5b91908080601f016020809104026020016040519081016040528093929190818152602001838380828437600081840152601f19601f8201169050808301925050505050505091929192905050506113a5565b005b34801561090c57600080fd5b5061091561169b565b6040518082815260200191505060405180910390f35b34801561093757600080fd5b506109646004803603602081101561094e57600080fd5b81019080803590602001909291905050506116a1565b6040518082815260200191505060405180910390f35b34801561098657600080fd5b5061098f6116c7565b6040518082815260200191505060405180910390f35b3480156109b157600080fd5b506109fe600480360360408110156109c857600080fd5b8101908080359060200190929190803573ffffffffffffffffffffffffffffffffffffffff1690602001909291905050506116eb565b005b6000610a0a6117b7565b9050600073ffffffffffffffffffffffffffffffffffffffff168173ffffffffffffffffffffffffffffffffffffffff1614158015610a565750600860009054906101000a900460ff16155b610aab576040517f08c379a0000000000000000000000000000000000000000000000000000000008152600401808060200182810382526028815260200180611d906028913960400191505060405180910390fd5b3660008037600080366000845af43d6000803e8060008114610acc573d6000f35b3d6000fd5b60028054600181600116156101000203166002900480601f016020809104026020016040519081016040528092919081815260200182805460018160011615610100020316600290048015610b675780601f10610b3c57610100808354040283529160200191610b67565b820191906000526020600020905b815481529060010190602001808311610b4a57829003601f168201915b505050505081565b610b7833610c19565b610bcd576040517f08c379a0000000000000000000000000000000000000000000000000000000008152600401808060200182810382526022815260200180611d3e6022913960400191505060405180910390fd5b610bf77fdf8b4c520ffe197c5343c6f5aec59570151ef9a492f2c624fd45ddde6135ec4282610cff565b50565b6000806000838152602001908152602001600020600201549050919050565b6000610c457fdf8b4c520ffe197c5343c6f5aec59570151ef9a492f2c624fd45ddde6135ec428361135a565b9050919050565b7f9667e80708b6eeeb0053fa0cca44e028ff548e2a9f029edfeac87c118b08b7c881565b610c9660008084815260200190815260200160002060020154610c916117e8565b61135a565b610ceb576040517f08c379a000000000000000000000000000000000000000000000000000000000815260040180806020018281038252602f815260200180611d0f602f913960400191505060405180910390fd5b610cf582826117f0565b5050565b60035481565b610d076117e8565b73ffffffffffffffffffffffffffffffffffffffff168173ffffffffffffffffffffffffffffffffffffffff1614610d8a576040517f08c379a000000000000000000000000000000000000000000000000000000000815260040180806020018281038252602f815260200180611e23602f913960400191505060405180910390fd5b610d948282611883565b5050565b610da133610c19565b610df6576040517f08c379a0000000000000000000000000000000000000000000000000000000008152600401808060200182810382526022815260200180611d3e6022913960400191505060405180910390fd5b600073ffffffffffffffffffffffffffffffffffffffff168173ffffffffffffffffffffffffffffffffffffffff161415610e99576040517f08c379a000000000000000000000000000000000000000000000000000000000815260040180806020018281038252601f8152602001807f5374616b65325661756c7450726f78793a20696e707574206973207a65726f0081525060200191505060405180910390fd5b8073ffffffffffffffffffffffffffffffffffffffff16610eb86117b7565b73ffffffffffffffffffffffffffffffffffffffff161415610f42576040517f08c379a00000000000000000000000000000000000000000000000000000000081526004018080602001828103825260168152602001807f5374616b65325661756c7450726f78793a2073616d650000000000000000000081525060200191505060405180910390fd5b610f4b81611916565b8073ffffffffffffffffffffffffffffffffffffffff167fbc7cd75a20ee27fd9adebab32041f755214dbc6bffa90cc0225b39da2e5c2d3b60405160405180910390a250565b6000610f9b6117b7565b905090565b600860009054906101000a900460ff1681565b610fbc33610c19565b611011576040517f08c379a0000000000000000000000000000000000000000000000000000000008152600401808060200182810382526022815260200180611d3e6022913960400191505060405180910390fd5b61103b7fdf8b4c520ffe197c5343c6f5aec59570151ef9a492f2c624fd45ddde6135ec4282610c70565b50565b61104733610c19565b61109c576040517f08c379a0000000000000000000000000000000000000000000000000000000008152600401808060200182810382526022815260200180611d3e6022913960400191505060405180910390fd5b600073ffffffffffffffffffffffffffffffffffffffff168173ffffffffffffffffffffffffffffffffffffffff16141561113f576040517f08c379a00000000000000000000000000000000000000000000000000000000081526004018080602001828103825260188152602001807f41636365737369626c653a207a65726f2061646472657373000000000000000081525060200191505060405180910390fd5b8073ffffffffffffffffffffffffffffffffffffffff163373ffffffffffffffffffffffffffffffffffffffff1614156111e1576040517f08c379a00000000000000000000000000000000000000000000000000000000081526004018080602001828103825260168152602001807f41636365737369626c653a2073616d652061646d696e0000000000000000000081525060200191505060405180910390fd5b61120b7fdf8b4c520ffe197c5343c6f5aec59570151ef9a492f2c624fd45ddde6135ec4282610c70565b6112357fdf8b4c520ffe197c5343c6f5aec59570151ef9a492f2c624fd45ddde6135ec4233610cff565b50565b7fdf8b4c520ffe197c5343c6f5aec59570151ef9a492f2c624fd45ddde6135ec4281565b61126533610c19565b6112ba576040517f08c379a0000000000000000000000000000000000000000000000000000000008152600401808060200182810382526022815260200180611d3e6022913960400191505060405180910390fd5b80600860006101000a81548160ff02191690831515021790555050565b600660009054906101000a900473ffffffffffffffffffffffffffffffffffffffff1681565b600160009054906101000a900473ffffffffffffffffffffffffffffffffffffffff1681565b60045481565b6000611352826000808681526020019081526020016000206000016119a390919063ffffffff16565b905092915050565b6000611383826000808681526020019081526020016000206000016119bd90919063ffffffff16565b905092915050565b600860019054906101000a900460ff1681565b6000801b81565b6113ae33610c19565b611403576040517f08c379a0000000000000000000000000000000000000000000000000000000008152600401808060200182810382526022815260200180611d3e6022913960400191505060405180910390fd5b600073ffffffffffffffffffffffffffffffffffffffff16600160009054906101000a900473ffffffffffffffffffffffffffffffffffffffff1673ffffffffffffffffffffffffffffffffffffffff16146114aa576040517f08c379a0000000000000000000000000000000000000000000000000000000008152600401808060200182810382526025815260200180611db86025913960400191505060405180910390fd5b600073ffffffffffffffffffffffffffffffffffffffff168673ffffffffffffffffffffffffffffffffffffffff16141580156115145750600073ffffffffffffffffffffffffffffffffffffffff168573ffffffffffffffffffffffffffffffffffffffff1614155b611586576040517f08c379a000000000000000000000000000000000000000000000000000000000815260040180806020018281038252601f8152602001807f5374616b65325661756c7450726f78793a20696e707574206973207a65726f0081525060200191505060405180910390fd5b600083116115fc576040517f08c379a00000000000000000000000000000000000000000000000000000000081526004018080602001828103825260198152602001807f5374616b65315661756c743a205f636170206973207a65726f0000000000000081525060200191505060405180910390fd5b85600160006101000a81548173ffffffffffffffffffffffffffffffffffffffff021916908373ffffffffffffffffffffffffffffffffffffffff1602179055508260038190555083600581905550816004819055508060029080519060200190611668929190611c41565b506116937fdf8b4c520ffe197c5343c6f5aec59570151ef9a492f2c624fd45ddde6135ec4286610c70565b505050505050565b60055481565b60006116c06000808481526020019081526020016000206000016119ed565b9050919050565b7ff0887ba65ee2024ea881d91b74c2450ef19e1557f03bed3ea9f16b037cbe2dc981565b6117116000808481526020019081526020016000206002015461170c6117e8565b61135a565b611766576040517f08c379a0000000000000000000000000000000000000000000000000000000008152600401808060200182810382526030815260200180611d606030913960400191505060405180910390fd5b6117708282611883565b5050565b600080823b905060008111915050919050565b60006117af836000018373ffffffffffffffffffffffffffffffffffffffff1660001b611a02565b905092915050565b6000807f360894a13ba1a3210667c828492db98dca3e2076cc3735a920a3ca505d382bbc60001b9050805491505090565b600033905090565b6118178160008085815260200190815260200160002060000161178790919063ffffffff16565b1561187f576118246117e8565b73ffffffffffffffffffffffffffffffffffffffff168173ffffffffffffffffffffffffffffffffffffffff16837f2f8788117e7eff1d82e926ec794901d17c78024a50270940304540a733656f0d60405160405180910390a45b5050565b6118aa81600080858152602001908152602001600020600001611a7290919063ffffffff16565b15611912576118b76117e8565b73ffffffffffffffffffffffffffffffffffffffff168173ffffffffffffffffffffffffffffffffffffffff16837ff6391f5c32d9c69d2a47ea670b442974b53935d1edc7fd64eb21e047a839171b60405160405180910390a45b5050565b61191f81611774565b611974576040517f08c379a0000000000000000000000000000000000000000000000000000000008152600401808060200182810382526046815260200180611ddd6046913960600191505060405180910390fd5b60007f360894a13ba1a3210667c828492db98dca3e2076cc3735a920a3ca505d382bbc60001b90508181555050565b60006119b28360000183611aa2565b60001c905092915050565b60006119e5836000018373ffffffffffffffffffffffffffffffffffffffff1660001b611b25565b905092915050565b60006119fb82600001611b48565b9050919050565b6000611a0e8383611b25565b611a67578260000182908060018154018082558091505060019003906000526020600020016000909190919091505582600001805490508360010160008481526020019081526020016000208190555060019050611a6c565b600090505b92915050565b6000611a9a836000018373ffffffffffffffffffffffffffffffffffffffff1660001b611b59565b905092915050565b600081836000018054905011611b03576040517f08c379a0000000000000000000000000000000000000000000000000000000008152600401808060200182810382526022815260200180611ced6022913960400191505060405180910390fd5b826000018281548110611b1257fe5b9060005260206000200154905092915050565b600080836001016000848152602001908152602001600020541415905092915050565b600081600001805490509050919050565b60008083600101600084815260200190815260200160002054905060008114611c355760006001820390506000600186600001805490500390506000866000018281548110611ba457fe5b9060005260206000200154905080876000018481548110611bc157fe5b9060005260206000200181905550600183018760010160008381526020019081526020016000208190555086600001805480611bf957fe5b60019003818190600052602060002001600090559055866001016000878152602001908152602001600020600090556001945050505050611c3b565b60009150505b92915050565b828054600181600116156101000203166002900490600052602060002090601f016020900481019282611c775760008555611cbe565b82601f10611c9057805160ff1916838001178555611cbe565b82800160010185558215611cbe579182015b82811115611cbd578251825591602001919060010190611ca2565b5b509050611ccb9190611ccf565b5090565b5b80821115611ce8576000816000905550600101611cd0565b509056fe456e756d657261626c655365743a20696e646578206f7574206f6620626f756e6473416363657373436f6e74726f6c3a2073656e646572206d75737420626520616e2061646d696e20746f206772616e7441636365737369626c653a2043616c6c6572206973206e6f7420616e2061646d696e416363657373436f6e74726f6c3a2073656e646572206d75737420626520616e2061646d696e20746f207265766f6b655374616b65325661756c7450726f78793a20696d706c204f522070726f78792069732066616c73655374616b65325661756c7450726f78793a20616c726561647920696e697469616c697a656450726f7879426173653a2043616e6e6f742073657420612070726f787920696d706c656d656e746174696f6e20746f2061206e6f6e2d636f6e74726163742061646472657373416363657373436f6e74726f6c3a2063616e206f6e6c792072656e6f756e636520726f6c657320666f722073656c66a26469706673582212209c0a048a804ed5411e26243a308dafdb12a77b5f816fc955b370f73f7fcb5a6964736f6c6343000706003350726f7879426173653a2043616e6e6f742073657420612070726f787920696d706c656d656e746174696f6e20746f2061206e6f6e2d636f6e74726163742061646472657373456e756d657261626c655365743a20696e646578206f7574206f6620626f756e64735374616b655661756c74466163746f72793a207a65726f207661756c7432206c6f67696320416363657373436f6e74726f6c3a2073656e646572206d75737420626520616e2061646d696e20746f206772616e7441636365737369626c653a2043616c6c6572206973206e6f7420616e2061646d696e416363657373436f6e74726f6c3a2073656e646572206d75737420626520616e2061646d696e20746f207265766f6b655374616b655661756c74466163746f72793a205374616b65325661756c7450726f7879207a65726f5374616b655661756c74466163746f72793a207a65726f207661756c74206c6f67696320416363657373436f6e74726f6c3a2063616e206f6e6c792072656e6f756e636520726f6c657320666f722073656c66a264697066735822122066567b70dadaa8263d6a3191a4bc253a14782f08c5e97a421f34309a2e557f2d64736f6c63430007060033",
  "linkReferences": {},
  "deployedLinkReferences": {}
}