{
  "_format": "hh-sol-artifact-1",
  "contractName": "Stake1Storage",
  "sourceName": "contracts/stake/Stake1Storage.sol",
  "abi": [
    {
      "inputs": [],
      "name": "defiAddr",
      "outputs": [
        {
          "internalType": "address",
          "name": "",
          "type": "address"
        }
      ],
      "stateMutability": "view",
      "type": "function"
    },
    {
      "inputs": [],
      "name": "endBlock",
      "outputs": [
        {
          "internalType": "uint256",
          "name": "",
          "type": "uint256"
        }
      ],
      "stateMutability": "view",
      "type": "function"
    },
    {
      "inputs": [
        {
          "internalType": "address",
          "name": "user",
          "type": "address"
        }
      ],
      "name": "getUserStaked",
      "outputs": [
        {
          "internalType": "uint256",
          "name": "amount",
          "type": "uint256"
        },
        {
          "internalType": "uint256",
          "name": "claimedBlock",
          "type": "uint256"
        },
        {
          "internalType": "uint256",
          "name": "claimedAmount",
          "type": "uint256"
        },
        {
          "internalType": "uint256",
          "name": "releasedBlock",
          "type": "uint256"
        },
        {
          "internalType": "uint256",
          "name": "releasedAmount",
          "type": "uint256"
        },
        {
          "internalType": "uint256",
          "name": "releasedTOSAmount",
          "type": "uint256"
        },
        {
          "internalType": "bool",
          "name": "released",
          "type": "bool"
        }
      ],
      "stateMutability": "view",
      "type": "function"
    },
    {
      "inputs": [],
      "name": "infos",
      "outputs": [
        {
          "internalType": "address",
          "name": "",
          "type": "address"
        },
        {
          "internalType": "address",
          "name": "",
          "type": "address"
        },
        {
          "internalType": "uint256[3]",
          "name": "",
          "type": "uint256[3]"
        },
        {
          "internalType": "uint256",
          "name": "",
          "type": "uint256"
        },
        {
          "internalType": "uint256",
          "name": "",
          "type": "uint256"
        },
        {
          "internalType": "uint256",
          "name": "",
          "type": "uint256"
        }
      ],
      "stateMutability": "view",
      "type": "function"
    },
    {
      "inputs": [],
      "name": "migratedL2",
      "outputs": [
        {
          "internalType": "bool",
          "name": "",
          "type": "bool"
        }
      ],
      "stateMutability": "view",
      "type": "function"
    },
    {
      "inputs": [],
      "name": "pauseProxy",
      "outputs": [
        {
          "internalType": "bool",
          "name": "",
          "type": "bool"
        }
      ],
      "stateMutability": "view",
      "type": "function"
    },
    {
      "inputs": [],
      "name": "paytoken",
      "outputs": [
        {
          "internalType": "address",
          "name": "",
          "type": "address"
        }
      ],
      "stateMutability": "view",
      "type": "function"
    },
    {
      "inputs": [],
      "name": "rewardClaimedTotal",
      "outputs": [
        {
          "internalType": "uint256",
          "name": "",
          "type": "uint256"
        }
      ],
      "stateMutability": "view",
      "type": "function"
    },
    {
      "inputs": [],
      "name": "saleStartBlock",
      "outputs": [
        {
          "internalType": "uint256",
          "name": "",
          "type": "uint256"
        }
      ],
      "stateMutability": "view",
      "type": "function"
    },
    {
      "inputs": [],
      "name": "stakeRegistry",
      "outputs": [
        {
          "internalType": "address",
          "name": "",
          "type": "address"
        }
      ],
      "stateMutability": "view",
      "type": "function"
    },
    {
      "inputs": [],
      "name": "startBlock",
      "outputs": [
        {
          "internalType": "uint256",
          "name": "",
          "type": "uint256"
        }
      ],
      "stateMutability": "view",
      "type": "function"
    },
    {
      "inputs": [],
      "name": "token",
      "outputs": [
        {
          "internalType": "address",
          "name": "",
          "type": "address"
        }
      ],
      "stateMutability": "view",
      "type": "function"
    },
    {
      "inputs": [],
      "name": "totalStakedAmount",
      "outputs": [
        {
          "internalType": "uint256",
          "name": "",
          "type": "uint256"
        }
      ],
      "stateMutability": "view",
      "type": "function"
    },
    {
      "inputs": [],
      "name": "totalStakers",
      "outputs": [
        {
          "internalType": "uint256",
          "name": "",
          "type": "uint256"
        }
      ],
      "stateMutability": "view",
      "type": "function"
    },
    {
      "inputs": [
        {
          "internalType": "address",
          "name": "",
          "type": "address"
        }
      ],
      "name": "userStaked",
      "outputs": [
        {
          "internalType": "uint256",
          "name": "amount",
          "type": "uint256"
        },
        {
          "internalType": "uint256",
          "name": "claimedBlock",
          "type": "uint256"
        },
        {
          "internalType": "uint256",
          "name": "claimedAmount",
          "type": "uint256"
        },
        {
          "internalType": "uint256",
          "name": "releasedBlock",
          "type": "uint256"
        },
        {
          "internalType": "uint256",
          "name": "releasedAmount",
          "type": "uint256"
        },
        {
          "internalType": "uint256",
          "name": "releasedTOSAmount",
          "type": "uint256"
        },
        {
          "internalType": "bool",
          "name": "released",
          "type": "bool"
        }
      ],
      "stateMutability": "view",
      "type": "function"
    },
    {
      "inputs": [],
      "name": "vault",
      "outputs": [
        {
          "internalType": "address",
          "name": "",
          "type": "address"
        }
      ],
      "stateMutability": "view",
      "type": "function"
    }
  ],
  "bytecode": "0x608060405234801561001057600080fd5b506108c1806100206000396000f3fe608060405234801561001057600080fd5b50600436106100e05760003560e01c80639a88be2f116100875780639a88be2f146102035780639d84ca3514610298578063a1f5f50e146102cc578063acc3a939146102ec578063b2d4d6a314610370578063dac3fc3f1461038e578063fbfa77cf14610412578063fc0c546a14610446576100e0565b8063083c6323146100e5578063200272751461010357806343b0934a1461012157806348cd4cb114610155578063567e98f91461017357806363a8fd891461019157806368304835146101b157806386989038146101e5575b600080fd5b6100ed61047a565b6040518082815260200191505060405180910390f35b61010b610480565b6040518082815260200191505060405180910390f35b610129610486565b604051808273ffffffffffffffffffffffffffffffffffffffff16815260200191505060405180910390f35b61015d6104ac565b6040518082815260200191505060405180910390f35b61017b6104b2565b6040518082815260200191505060405180910390f35b6101996104b8565b60405180821515815260200191505060405180910390f35b6101b96104cb565b604051808273ffffffffffffffffffffffffffffffffffffffff16815260200191505060405180910390f35b6101ed6104f1565b6040518082815260200191505060405180910390f35b61020b6104f7565b604051808773ffffffffffffffffffffffffffffffffffffffff1681526020018673ffffffffffffffffffffffffffffffffffffffff16815260200185600360200280838360005b8381101561026e578082015181840152602081019050610253565b50505050905001848152602001838152602001828152602001965050505050505060405180910390f35b6102a061058b565b604051808273ffffffffffffffffffffffffffffffffffffffff16815260200191505060405180910390f35b6102d46105b1565b60405180821515815260200191505060405180910390f35b61032e6004803603602081101561030257600080fd5b81019080803573ffffffffffffffffffffffffffffffffffffffff1690602001909291905050506105c4565b60405180888152602001878152602001868152602001858152602001848152602001838152602001821515815260200197505050505050505060405180910390f35b610378610613565b6040518082815260200191505060405180910390f35b6103d0600480360360208110156103a457600080fd5b81019080803573ffffffffffffffffffffffffffffffffffffffff169060200190929190505050610619565b60405180888152602001878152602001868152602001858152602001848152602001838152602001821515815260200197505050505050505060405180910390f35b61041a61081f565b604051808273ffffffffffffffffffffffffffffffffffffffff16815260200191505060405180910390f35b61044e610845565b604051808273ffffffffffffffffffffffffffffffffffffffff16815260200191505060405180910390f35b60065481565b60045481565b600260009054906101000a900473ffffffffffffffffffffffffffffffffffffffff1681565b60055481565b60085481565b600c60009054906101000a900460ff1681565b600160009054906101000a900473ffffffffffffffffffffffffffffffffffffffff1681565b600a5481565b600080610502610869565b6000806000600260009054906101000a900473ffffffffffffffffffffffffffffffffffffffff16600360009054906101000a900473ffffffffffffffffffffffffffffffffffffffff16604051806060016040528060045481526020016005548152602001600654815250600754600854600a54955095509550955095509550909192939495565b600c60019054906101000a900473ffffffffffffffffffffffffffffffffffffffff1681565b600c60159054906101000a900460ff1681565b60096020528060005260406000206000915090508060000154908060010154908060020154908060030154908060040154908060050154908060060160009054906101000a900460ff16905087565b60075481565b6000806000806000806000600960008973ffffffffffffffffffffffffffffffffffffffff1673ffffffffffffffffffffffffffffffffffffffff16815260200190815260200160002060000154600960008a73ffffffffffffffffffffffffffffffffffffffff1673ffffffffffffffffffffffffffffffffffffffff16815260200190815260200160002060010154600960008b73ffffffffffffffffffffffffffffffffffffffff1673ffffffffffffffffffffffffffffffffffffffff16815260200190815260200160002060020154600960008c73ffffffffffffffffffffffffffffffffffffffff1673ffffffffffffffffffffffffffffffffffffffff16815260200190815260200160002060030154600960008d73ffffffffffffffffffffffffffffffffffffffff1673ffffffffffffffffffffffffffffffffffffffff16815260200190815260200160002060040154600960008e73ffffffffffffffffffffffffffffffffffffffff1673ffffffffffffffffffffffffffffffffffffffff16815260200190815260200160002060050154600960008f73ffffffffffffffffffffffffffffffffffffffff1673ffffffffffffffffffffffffffffffffffffffff16815260200190815260200160002060060160009054906101000a900460ff169650965096509650965096509650919395979092949650565b600360009054906101000a900473ffffffffffffffffffffffffffffffffffffffff1681565b60008054906101000a900473ffffffffffffffffffffffffffffffffffffffff1681565b604051806060016040528060039060208202803683378082019150509050509056fea264697066735822122095f05d51ee60e90f91721afc6f6f065e7fd7bd5df22d7c02da06cd4ed8c41f1464736f6c63430007060033",
  "linkReferences": {},
  "deployedLinkReferences": {}
}