{
  "_format": "hh-sol-artifact-1",
  "contractName": "EventLog",
  "sourceName": "contracts/EventLog.sol",
  "abi": [
    {
      "inputs": [],
      "stateMutability": "nonpayable",
      "type": "constructor"
    },
    {
      "anonymous": false,
      "inputs": [
        {
          "indexed": true,
          "internalType": "bytes32",
          "name": "contractNameHash",
          "type": "bytes32"
        },
        {
          "indexed": true,
          "internalType": "bytes32",
          "name": "eventName",
          "type": "bytes32"
        },
        {
          "indexed": true,
          "internalType": "address",
          "name": "contractAddress",
          "type": "address"
        },
        {
          "indexed": false,
          "internalType": "bytes",
          "name": "data",
          "type": "bytes"
        }
      ],
      "name": "LogEvent",
      "type": "event"
    },
    {
      "inputs": [
        {
          "internalType": "bytes32",
          "name": "contractNameHash",
          "type": "bytes32"
        },
        {
          "internalType": "bytes32",
          "name": "eventName",
          "type": "bytes32"
        },
        {
          "internalType": "address",
          "name": "contractAddress",
          "type": "address"
        },
        {
          "internalType": "bytes",
          "name": "data",
          "type": "bytes"
        }
      ],
      "name": "logEvent",
      "outputs": [],
      "stateMutability": "nonpayable",
      "type": "function"
    }
  ],
  "bytecode": "0x608060405234801561001057600080fd5b50610208806100206000396000f3fe608060405234801561001057600080fd5b506004361061002b5760003560e01c8063beee31bf14610030575b600080fd5b61004361003e36600461008e565b610045565b005b816001600160a01b031683857fe2f07e57f3bca2eabc2891f58f6692ebf1a23ed71c6a435f9b7fc94098f8b188846040516100809190610169565b60405180910390a450505050565b600080600080608085870312156100a3578384fd5b843593506020850135925060408501356001600160a01b03811681146100c7578283fd5b9150606085013567ffffffffffffffff808211156100e3578283fd5b818701915087601f8301126100f6578283fd5b813581811115610108576101086101bc565b604051601f8201601f19908116603f01168101908382118183101715610130576101306101bc565b816040528281528a6020848701011115610148578586fd5b82602086016020830137918201602001949094529598949750929550505050565b6000602080835283518082850152825b8181101561019557858101830151858201604001528201610179565b818111156101a65783604083870101525b50601f01601f1916929092016040019392505050565b634e487b7160e01b600052604160045260246000fdfea2646970667358221220dbcaa313c7c181524e9b00327181584d4fc5590c2b971f501a257e6edad7e81364736f6c63430008040033",
  "linkReferences": {},
  "deployedLinkReferences": {}
}