{
  "_format": "hh-sol-artifact-1",
  "contractName": "InitialLiquidityVaultFactory",
  "sourceName": "contracts/InitialLiquidityVaultFactory.sol",
  "abi": [
    {
      "inputs": [],
      "stateMutability": "nonpayable",
      "type": "constructor"
    },
    {
      "anonymous": false,
      "inputs": [
        {
          "indexed": false,
          "internalType": "address",
          "name": "contractAddress",
          "type": "address"
        },
        {
          "indexed": false,
          "internalType": "string",
          "name": "name",
          "type": "string"
        }
      ],
      "name": "CreatedInitialLiquidityVault",
      "type": "event"
    },
    {
      "anonymous": false,
      "inputs": [
        {
          "indexed": true,
          "internalType": "bytes32",
          "name": "role",
          "type": "bytes32"
        },
        {
          "indexed": true,
          "internalType": "bytes32",
          "name": "previousAdminRole",
          "type": "bytes32"
        },
        {
          "indexed": true,
          "internalType": "bytes32",
          "name": "newAdminRole",
          "type": "bytes32"
        }
      ],
      "name": "RoleAdminChanged",
      "type": "event"
    },
    {
      "anonymous": false,
      "inputs": [
        {
          "indexed": true,
          "internalType": "bytes32",
          "name": "role",
          "type": "bytes32"
        },
        {
          "indexed": true,
          "internalType": "address",
          "name": "account",
          "type": "address"
        },
        {
          "indexed": true,
          "internalType": "address",
          "name": "sender",
          "type": "address"
        }
      ],
      "name": "RoleGranted",
      "type": "event"
    },
    {
      "anonymous": false,
      "inputs": [
        {
          "indexed": true,
          "internalType": "bytes32",
          "name": "role",
          "type": "bytes32"
        },
        {
          "indexed": true,
          "internalType": "address",
          "name": "account",
          "type": "address"
        },
        {
          "indexed": true,
          "internalType": "address",
          "name": "sender",
          "type": "address"
        }
      ],
      "name": "RoleRevoked",
      "type": "event"
    },
    {
      "inputs": [],
      "name": "ADMIN_ROLE",
      "outputs": [
        {
          "internalType": "bytes32",
          "name": "",
          "type": "bytes32"
        }
      ],
      "stateMutability": "view",
      "type": "function"
    },
    {
      "inputs": [],
      "name": "BURNER_ROLE",
      "outputs": [
        {
          "internalType": "bytes32",
          "name": "",
          "type": "bytes32"
        }
      ],
      "stateMutability": "view",
      "type": "function"
    },
    {
      "inputs": [],
      "name": "CLAIMER_ROLE",
      "outputs": [
        {
          "internalType": "bytes32",
          "name": "",
          "type": "bytes32"
        }
      ],
      "stateMutability": "view",
      "type": "function"
    },
    {
      "inputs": [],
      "name": "DEFAULT_ADMIN_ROLE",
      "outputs": [
        {
          "internalType": "bytes32",
          "name": "",
          "type": "bytes32"
        }
      ],
      "stateMutability": "view",
      "type": "function"
    },
    {
      "inputs": [],
      "name": "MINTER_ROLE",
      "outputs": [
        {
          "internalType": "bytes32",
          "name": "",
          "type": "bytes32"
        }
      ],
      "stateMutability": "view",
      "type": "function"
    },
    {
      "inputs": [
        {
          "internalType": "address",
          "name": "account",
          "type": "address"
        }
      ],
      "name": "addAdmin",
      "outputs": [],
      "stateMutability": "nonpayable",
      "type": "function"
    },
    {
      "inputs": [
        {
          "internalType": "string",
          "name": "_name",
          "type": "string"
        },
        {
          "internalType": "address",
          "name": "_token",
          "type": "address"
        },
        {
          "internalType": "address",
          "name": "_admin",
          "type": "address"
        },
        {
          "internalType": "uint256",
          "name": "tosPrice",
          "type": "uint256"
        },
        {
          "internalType": "uint256",
          "name": "tokenPrice",
          "type": "uint256"
        }
      ],
      "name": "create",
      "outputs": [
        {
          "internalType": "address",
          "name": "",
          "type": "address"
        }
      ],
      "stateMutability": "nonpayable",
      "type": "function"
    },
    {
      "inputs": [
        {
          "internalType": "uint256",
          "name": "",
          "type": "uint256"
        }
      ],
      "name": "createdContracts",
      "outputs": [
        {
          "internalType": "address",
          "name": "contractAddress",
          "type": "address"
        },
        {
          "internalType": "string",
          "name": "name",
          "type": "string"
        }
      ],
      "stateMutability": "view",
      "type": "function"
    },
    {
      "inputs": [],
      "name": "fee",
      "outputs": [
        {
          "internalType": "uint24",
          "name": "",
          "type": "uint24"
        }
      ],
      "stateMutability": "view",
      "type": "function"
    },
    {
      "inputs": [
        {
          "internalType": "uint256",
          "name": "_index",
          "type": "uint256"
        }
      ],
      "name": "getContracts",
      "outputs": [
        {
          "internalType": "address",
          "name": "contractAddress",
          "type": "address"
        },
        {
          "internalType": "string",
          "name": "name",
          "type": "string"
        }
      ],
      "stateMutability": "view",
      "type": "function"
    },
    {
      "inputs": [
        {
          "internalType": "bytes32",
          "name": "role",
          "type": "bytes32"
        }
      ],
      "name": "getRoleAdmin",
      "outputs": [
        {
          "internalType": "bytes32",
          "name": "",
          "type": "bytes32"
        }
      ],
      "stateMutability": "view",
      "type": "function"
    },
    {
      "inputs": [
        {
          "internalType": "bytes32",
          "name": "role",
          "type": "bytes32"
        },
        {
          "internalType": "address",
          "name": "account",
          "type": "address"
        }
      ],
      "name": "grantRole",
      "outputs": [],
      "stateMutability": "nonpayable",
      "type": "function"
    },
    {
      "inputs": [
        {
          "internalType": "bytes32",
          "name": "role",
          "type": "bytes32"
        },
        {
          "internalType": "address",
          "name": "account",
          "type": "address"
        }
      ],
      "name": "hasRole",
      "outputs": [
        {
          "internalType": "bool",
          "name": "",
          "type": "bool"
        }
      ],
      "stateMutability": "view",
      "type": "function"
    },
    {
      "inputs": [
        {
          "internalType": "address",
          "name": "account",
          "type": "address"
        }
      ],
      "name": "isAdmin",
      "outputs": [
        {
          "internalType": "bool",
          "name": "",
          "type": "bool"
        }
      ],
      "stateMutability": "view",
      "type": "function"
    },
    {
      "inputs": [],
      "name": "lastestCreated",
      "outputs": [
        {
          "internalType": "address",
          "name": "contractAddress",
          "type": "address"
        },
        {
          "internalType": "string",
          "name": "name",
          "type": "string"
        }
      ],
      "stateMutability": "view",
      "type": "function"
    },
    {
      "inputs": [],
      "name": "nonfungiblePositionManager",
      "outputs": [
        {
          "internalType": "address",
          "name": "",
          "type": "address"
        }
      ],
      "stateMutability": "view",
      "type": "function"
    },
    {
      "inputs": [
        {
          "internalType": "address",
          "name": "account",
          "type": "address"
        }
      ],
      "name": "removeAdmin",
      "outputs": [],
      "stateMutability": "nonpayable",
      "type": "function"
    },
    {
      "inputs": [
        {
          "internalType": "bytes32",
          "name": "role",
          "type": "bytes32"
        },
        {
          "internalType": "address",
          "name": "account",
          "type": "address"
        }
      ],
      "name": "renounceRole",
      "outputs": [],
      "stateMutability": "nonpayable",
      "type": "function"
    },
    {
      "inputs": [
        {
          "internalType": "bytes32",
          "name": "role",
          "type": "bytes32"
        },
        {
          "internalType": "address",
          "name": "account",
          "type": "address"
        }
      ],
      "name": "revokeRole",
      "outputs": [],
      "stateMutability": "nonpayable",
      "type": "function"
    },
    {
      "inputs": [
        {
          "internalType": "address",
          "name": "_logic",
          "type": "address"
        }
      ],
      "name": "setLogic",
      "outputs": [],
      "stateMutability": "nonpayable",
      "type": "function"
    },
    {
      "inputs": [
        {
          "internalType": "address[2]",
          "name": "addrs",
          "type": "address[2]"
        },
        {
          "internalType": "address",
          "name": "_tos",
          "type": "address"
        },
        {
          "internalType": "uint24",
          "name": "_fee",
          "type": "uint24"
        }
      ],
      "name": "setUniswapInfoNTokens",
      "outputs": [],
      "stateMutability": "nonpayable",
      "type": "function"
    },
    {
      "inputs": [
        {
          "internalType": "address",
          "name": "addr",
          "type": "address"
        }
      ],
      "name": "setUpgradeAdmin",
      "outputs": [],
      "stateMutability": "nonpayable",
      "type": "function"
    },
    {
      "inputs": [
        {
          "internalType": "bytes4",
          "name": "interfaceId",
          "type": "bytes4"
        }
      ],
      "name": "supportsInterface",
      "outputs": [
        {
          "internalType": "bool",
          "name": "",
          "type": "bool"
        }
      ],
      "stateMutability": "view",
      "type": "function"
    },
    {
      "inputs": [],
      "name": "tos",
      "outputs": [
        {
          "internalType": "address",
          "name": "",
          "type": "address"
        }
      ],
      "stateMutability": "view",
      "type": "function"
    },
    {
      "inputs": [],
      "name": "totalCreatedContracts",
      "outputs": [
        {
          "internalType": "uint256",
          "name": "",
          "type": "uint256"
        }
      ],
      "stateMutability": "view",
      "type": "function"
    },
    {
      "inputs": [
        {
          "internalType": "address",
          "name": "newAdmin",
          "type": "address"
        }
      ],
      "name": "transferAdmin",
      "outputs": [],
      "stateMutability": "nonpayable",
      "type": "function"
    },
    {
      "inputs": [],
      "name": "uniswapV3Factory",
      "outputs": [
        {
          "internalType": "address",
          "name": "",
          "type": "address"
        }
      ],
      "stateMutability": "view",
      "type": "function"
    },
    {
      "inputs": [],
      "name": "upgradeAdmin",
      "outputs": [
        {
          "internalType": "address",
          "name": "",
          "type": "address"
        }
      ],
      "stateMutability": "view",
      "type": "function"
    },
    {
      "inputs": [
        {
          "internalType": "address",
          "name": "_contract",
          "type": "address"
        },
        {
          "internalType": "bytes4[]",
          "name": "_selectors",
          "type": "bytes4[]"
        },
        {
          "internalType": "address",
          "name": "_imp",
          "type": "address"
        }
      ],
      "name": "upgradeContractFunction",
      "outputs": [],
      "stateMutability": "nonpayable",
      "type": "function"
    },
    {
      "inputs": [
        {
          "internalType": "address",
          "name": "_contract",
          "type": "address"
        },
        {
          "internalType": "address",
          "name": "_logic",
          "type": "address"
        },
        {
          "internalType": "uint256",
          "name": "_index",
          "type": "uint256"
        },
        {
          "internalType": "bool",
          "name": "_alive",
          "type": "bool"
        }
      ],
      "name": "upgradeContractLogic",
      "outputs": [],
      "stateMutability": "nonpayable",
      "type": "function"
    },
    {
      "inputs": [],
      "name": "vaultLogic",
      "outputs": [
        {
          "internalType": "address",
          "name": "",
          "type": "address"
        }
      ],
      "stateMutability": "view",
      "type": "function"
    }
  ],
  "bytecode": "0x60806040523480156200001157600080fd5b50600060015562000032600080516020620040118339815191528062000065565b6200004d6000805160206200401183398151915233620000b0565b600380546001600160a01b0319163317905562000160565b600082815260208190526040808220600101805490849055905190918391839186917fbd79b86ffe0ab8e8776151514217cd7cacd52c909f66475c3af44e129f0b00ff9190a4505050565b620000bc8282620000c0565b5050565b6000828152602081815260408083206001600160a01b038516845290915290205460ff16620000bc576000828152602081815260408083206001600160a01b03851684529091529020805460ff191660011790556200011c3390565b6001600160a01b0316816001600160a01b0316837f2f8788117e7eff1d82e926ec794901d17c78024a50270940304540a733656f0d60405160405180910390a45050565b613ea180620001706000396000f3fe60806040523480156200001157600080fd5b5060043610620001c95760003560e01c806375b238fc1162000103578063bda5b5d4116200009e578063bda5b5d4146200041d578063c4d5608a1462000434578063d05261871462000448578063d53913931462000452578063d547741f146200047a578063ddca3f431462000491578063eaa2a00c14620004bd578063fc5f18d314620004d457600080fd5b806375b238fc146200037c57806389f395de146200039357806391d1485414620003a75780639342f41714620003be578063a217fddf14620003d5578063b078147a14620003de578063b44a272214620003f2578063b4d40280146200040657600080fd5b8063338bad5f1162000174578063338bad5f14620002c557806336568abe14620002cf578063439e23fd14620002e65780635b54918214620002fd57806367c5f8de146200032057806370480275146200033757806371857000146200034e57806375829def146200036557600080fd5b806301ffc9a714620001ce5780630881139714620001fa5780631785f53c1462000221578063248a9ca3146200023a57806324d7806c146200026f578063282c51f314620002865780632f2ff15d14620002ae575b600080fd5b620001e5620001df366004620019cc565b620004fc565b60405190151581526020015b60405180910390f35b620002116200020b36600462001985565b62000534565b604051620001f192919062001bc2565b62000238620002323660046200181d565b620005eb565b005b620002606200024b36600462001985565b60009081526020819052604090206001015490565b604051908152602001620001f1565b620001e5620002803660046200181d565b6200063c565b620002607f9667e80708b6eeeb0053fa0cca44e028ff548e2a9f029edfeac87c118b08b7c881565b62000238620002bf3660046200199e565b62000659565b6200021162000688565b62000238620002e03660046200199e565b620007a1565b62000211620002f736600462001985565b62000823565b60055462000311906001600160a01b031681565b604051620001f1919062001b5b565b62000238620003313660046200183a565b62000909565b62000238620003483660046200181d565b620009ca565b620002386200035f3660046200181d565b62000a0f565b62000238620003763660046200181d565b62000ae1565b6200026060008051602062003e4c83398151915281565b60075462000311906001600160a01b031681565b620001e5620003b83660046200199e565b62000be8565b62000238620003cf3660046200181d565b62000c11565b62000260600081565b60045462000311906001600160a01b031681565b60065462000311906001600160a01b031681565b620002386200041736600462001892565b62000cd5565b620003116200042e366004620019e9565b62000d5b565b60035462000311906001600160a01b031681565b6200026060015481565b620002607ff0887ba65ee2024ea881d91b74c2450ef19e1557f03bed3ea9f16b037cbe2dc981565b620002386200048b3660046200199e565b62001255565b600754620004a890600160a01b900462ffffff1681565b60405162ffffff9091168152602001620001f1565b62000238620004ce3660046200192d565b6200127f565b620002607fe5667d34d7ea8d6fdb3aa71a0a5b85e4cf7f68356dd003cd638556b0eea2bce581565b60006001600160e01b03198216637965db0b60e01b14806200052e57506301ffc9a760e01b6001600160e01b03198316145b92915050565b600260205260009081526040902080546001820180546001600160a01b039092169291620005629062001dc1565b80601f0160208091040260200160405190810160405280929190818152602001828054620005909062001dc1565b8015620005e15780601f10620005b557610100808354040283529160200191620005e1565b820191906000526020600020905b815481529060010190602001808311620005c357829003601f168201915b5050505050905082565b620005f6336200063c565b6200061e5760405162461bcd60e51b8152600401620006159062001cdb565b60405180910390fd5b6200063960008051602062003e4c83398151915282620007a1565b50565b60006200052e60008051602062003e4c8339815191528362000be8565b600082815260208190526040902060010154620006778133620013d7565b62000683838362001446565b505050565b60006060600060015411156200078c576002600060018054620006ac919062001d5a565b81526020810191909152604001600090812054600180546001600160a01b03909216926002929091620006df9162001d5a565b8152602001908152602001600020600101808054620006fe9062001dc1565b80601f01602080910402602001604051908101604052809291908181526020018280546200072c9062001dc1565b80156200077d5780601f1062000751576101008083540402835291602001916200077d565b820191906000526020600020905b8154815290600101906020018083116200075f57829003601f168201915b50505050509050915091509091565b50506040805160208101909152600080825291565b6001600160a01b0381163314620008135760405162461bcd60e51b815260206004820152602f60248201527f416363657373436f6e74726f6c3a2063616e206f6e6c792072656e6f756e636560448201526e103937b632b9903337b91039b2b63360891b606482015260840162000615565b6200081f8282620014ce565b5050565b60006060600154831015620008f15760008381526002602052604090208054600190910180546001600160a01b03909216918190620008629062001dc1565b80601f0160208091040260200160405190810160405280929190818152602001828054620008909062001dc1565b8015620008e15780601f10620008b557610100808354040283529160200191620008e1565b820191906000526020600020905b815481529060010190602001808311620008c357829003601f168201915b5050505050905091509150915091565b50506040805160208101909152600080825292909150565b62000914336200063c565b620009335760405162461bcd60e51b8152600401620006159062001cdb565b836001600160a01b0381166200095d5760405162461bcd60e51b8152600401620006159062001caf565b604051637cd5f66360e01b81526001600160a01b03861690637cd5f663906200098f9087908790879060040162001b6f565b600060405180830381600087803b158015620009aa57600080fd5b505af1158015620009bf573d6000803e3d6000fd5b505050505050505050565b620009d5336200063c565b620009f45760405162461bcd60e51b8152600401620006159062001cdb565b6200063960008051602062003e4c8339815191528262000659565b806001600160a01b03811662000a395760405162461bcd60e51b8152600401620006159062001caf565b62000a44336200063c565b62000a635760405162461bcd60e51b8152600401620006159062001cdb565b6004546001600160a01b038381169116141562000abe5760405162461bcd60e51b815260206004820152601860248201527730b63932b0b23c9039b2ba103a3434b9903b32b939b4b7b760411b604482015260640162000615565b50600480546001600160a01b0319166001600160a01b0392909216919091179055565b62000aec336200063c565b62000b0b5760405162461bcd60e51b8152600401620006159062001cdb565b6001600160a01b03811662000b5e5760405162461bcd60e51b815260206004820152601860248201527741636365737369626c653a207a65726f206164647265737360401b604482015260640162000615565b336001600160a01b038216141562000bb25760405162461bcd60e51b815260206004820152601660248201527520b1b1b2b9b9b4b136329d1039b0b6b29030b236b4b760511b604482015260640162000615565b62000bcd60008051602062003e4c8339815191528262000659565b6200063960008051602062003e4c83398151915233620007a1565b6000918252602082815260408084206001600160a01b0393909316845291905290205460ff1690565b62000c1c336200063c565b62000c3b5760405162461bcd60e51b8152600401620006159062001cdb565b806001600160a01b03811662000c655760405162461bcd60e51b8152600401620006159062001caf565b6003546001600160a01b038381169116141562000cb25760405162461bcd60e51b815260206004820152600a60248201526973616d6520616464727360b01b604482015260640162000615565b50600380546001600160a01b0319166001600160a01b0392909216919091179055565b62000ce0336200063c565b62000cff5760405162461bcd60e51b8152600401620006159062001cdb565b836001600160a01b03811662000d295760405162461bcd60e51b8152600401620006159062001caf565b604051634a5df50f60e01b81526001600160a01b03861690634a5df50f906200098f9087908790879060040162001bf0565b6004546000906001600160a01b03168062000d8a5760405162461bcd60e51b8152600401620006159062001caf565b6003546001600160a01b03168062000db65760405162461bcd60e51b8152600401620006159062001caf565b8762000df55760405162461bcd60e51b815260206004820152600d60248201526c6e616d6520697320656d70747960981b604482015260640162000615565b600060405162000e059062001733565b604051809103906000f08015801562000e22573d6000803e3d6000fd5b5090506001600160a01b03811662000e7d5760405162461bcd60e51b815260206004820152601f60248201527f496e697469616c4c69717569646974795661756c7450726f7879207a65726f00604482015260640162000615565b6003546040516325bc555f60e21b81526001600160a01b03838116926396f1557c9262000eb1929091169060040162001b5b565b600060405180830381600087803b15801562000ecc57600080fd5b505af115801562000ee1573d6000803e3d6000fd5b5050600354604051637048027560e01b81526001600160a01b0380861694506370480275935062000f1792169060040162001b5b565b600060405180830381600087803b15801562000f3257600080fd5b505af115801562000f47573d6000803e3d6000fd5b505060048054604051637cd5f66360e01b81526001600160a01b038087169550637cd5f663945062000f83939216916000916001910162001b6f565b600060405180830381600087803b15801562000f9e57600080fd5b505af115801562000fb3573d6000803e3d6000fd5b505060405163ce0c4c5160e01b81526001600160a01b038416925063ce0c4c51915062000fef908d908d908d908d908d908d9060040162001c56565b600060405180830381600087803b1580156200100a57600080fd5b505af11580156200101f573d6000803e3d6000fd5b50506005546006546040516301c9398760e21b81526001600160a01b03928316600482015290821660248201529084169250630724e61c9150604401600060405180830381600087803b1580156200107657600080fd5b505af11580156200108b573d6000803e3d6000fd5b505060075460405163128efbd160e11b81526001600160a01b038083166004830152600160a01b90920462ffffff166024820152908416925063251df7a29150604401600060405180830381600087803b158015620010e957600080fd5b505af1158015620010fe573d6000803e3d6000fd5b50505050806001600160a01b0316639a202d476040518163ffffffff1660e01b8152600401600060405180830381600087803b1580156200113e57600080fd5b505af115801562001153573d6000803e3d6000fd5b505050506040518060400160405280826001600160a01b031681526020018b8b8080601f0160208091040260200160405190810160405280939291908181526020018383808284376000920182905250939094525050600180548252600260209081526040909220845181546001600160a01b0319166001600160a01b03909116178155848301518051919450620011f19392850192019062001741565b50506001805491506000620012068362001dfe565b91905055507f4fe258ada83935d965ec2774f9f672c624e217fb2b644e406c6dfdb5ae2631e5818b8b604051620012409392919062001b92565b60405180910390a19998505050505050505050565b600082815260208190526040902060010154620012738133620013d7565b620006838383620014ce565b6200128a336200063c565b620012a95760405162461bcd60e51b8152600401620006159062001cdb565b620012b860208401846200181d565b6001600160a01b038116620012e15760405162461bcd60e51b8152600401620006159062001caf565b620012f360408501602086016200181d565b6001600160a01b0381166200131c5760405162461bcd60e51b8152600401620006159062001caf565b836001600160a01b038116620013465760405162461bcd60e51b8152600401620006159062001caf565b6200135560208701876200181d565b600580546001600160a01b0319166001600160a01b03929092169190911790556200138760408701602088016200181d565b600680546001600160a01b039283166001600160a01b03199091161790556007805462ffffff909616600160a01b026001600160b81b031990961696909116959095179390931790935550505050565b620013e3828262000be8565b6200081f57620013fe816001600160a01b0316601462001536565b6200140b83602062001536565b6040516020016200141e92919062001ae8565b60408051601f198184030181529082905262461bcd60e51b8252620006159160040162001c9a565b62001452828262000be8565b6200081f576000828152602081815260408083206001600160a01b03851684529091529020805460ff191660011790556200148a3390565b6001600160a01b0316816001600160a01b0316837f2f8788117e7eff1d82e926ec794901d17c78024a50270940304540a733656f0d60405160405180910390a45050565b620014da828262000be8565b156200081f576000828152602081815260408083206001600160a01b0385168085529252808320805460ff1916905551339285917ff6391f5c32d9c69d2a47ea670b442974b53935d1edc7fd64eb21e047a839171b9190a45050565b606060006200154783600262001d38565b6200155490600262001d1d565b67ffffffffffffffff8111156200157b57634e487b7160e01b600052604160045260246000fd5b6040519080825280601f01601f191660200182016040528015620015a6576020820181803683370190505b509050600360fc1b81600081518110620015d057634e487b7160e01b600052603260045260246000fd5b60200101906001600160f81b031916908160001a905350600f60fb1b816001815181106200160e57634e487b7160e01b600052603260045260246000fd5b60200101906001600160f81b031916908160001a90535060006200163484600262001d38565b6200164190600162001d1d565b90505b6001811115620016db576f181899199a1a9b1b9c1cb0b131b232b360811b85600f16601081106200168557634e487b7160e01b600052603260045260246000fd5b1a60f81b828281518110620016aa57634e487b7160e01b600052603260045260246000fd5b60200101906001600160f81b031916908160001a90535060049490941c93620016d38162001da7565b905062001644565b5083156200172c5760405162461bcd60e51b815260206004820181905260248201527f537472696e67733a20686578206c656e67746820696e73756666696369656e74604482015260640162000615565b9392505050565b6120198062001e3383390190565b8280546200174f9062001dc1565b90600052602060002090601f016020900481019282620017735760008555620017be565b82601f106200178e57805160ff1916838001178555620017be565b82800160010185558215620017be579182015b82811115620017be578251825591602001919060010190620017a1565b50620017cc929150620017d0565b5090565b5b80821115620017cc5760008155600101620017d1565b80356001600160a01b0381168114620017ff57600080fd5b919050565b80356001600160e01b031981168114620017ff57600080fd5b6000602082840312156200182f578081fd5b6200172c82620017e7565b6000806000806080858703121562001850578283fd5b6200185b85620017e7565b93506200186b60208601620017e7565b9250604085013591506060850135801515811462001887578182fd5b939692955090935050565b60008060008060608587031215620018a8578384fd5b620018b385620017e7565b9350602085013567ffffffffffffffff80821115620018d0578485fd5b818701915087601f830112620018e4578485fd5b813581811115620018f3578586fd5b8860208260051b850101111562001908578586fd5b6020830195508094505050506200192260408601620017e7565b905092959194509250565b60008060006080848603121562001942578283fd5b604084018581111562001953578384fd5b8493506200196181620017e7565b925050606084013562ffffff811681146200197a578182fd5b809150509250925092565b60006020828403121562001997578081fd5b5035919050565b60008060408385031215620019b1578182fd5b82359150620019c360208401620017e7565b90509250929050565b600060208284031215620019de578081fd5b6200172c8262001804565b60008060008060008060a0878903121562001a02578182fd5b863567ffffffffffffffff8082111562001a1a578384fd5b818901915089601f83011262001a2e578384fd5b81358181111562001a3d578485fd5b8a602082850101111562001a4f578485fd5b60209283019850965062001a679189019050620017e7565b935062001a7760408801620017e7565b925060608701359150608087013590509295509295509295565b81835281816020850137506000828201602090810191909152601f909101601f19169091010190565b6000815180845262001ad481602086016020860162001d74565b601f01601f19169290920160200192915050565b76020b1b1b2b9b9a1b7b73a3937b61d1030b1b1b7bab73a1604d1b81526000835162001b1c81601785016020880162001d74565b7001034b99036b4b9b9b4b733903937b6329607d1b601791840191820152835162001b4f81602884016020880162001d74565b01602801949350505050565b6001600160a01b0391909116815260200190565b6001600160a01b0393909316835260208301919091521515604082015260600190565b6001600160a01b038416815260406020820181905260009062001bb9908301848662001a91565b95945050505050565b6001600160a01b038316815260406020820181905260009062001be89083018462001aba565b949350505050565b6040808252810183905260008460608301825b8681101562001c36576001600160e01b031962001c208462001804565b1682526020928301929091019060010162001c03565b506001600160a01b03949094166020939093019290925250909392505050565b60a08152600062001c6c60a08301888a62001a91565b6001600160a01b03968716602084015294909516604082015260608101929092526080909101529392505050565b6020815260006200172c602083018462001aba565b6020808252601290820152715661756c74466163746f72793a207a65726f60701b604082015260600190565b60208082526022908201527f41636365737369626c653a2043616c6c6572206973206e6f7420616e2061646d60408201526134b760f11b606082015260800190565b6000821982111562001d335762001d3362001e1c565b500190565b600081600019048311821515161562001d555762001d5562001e1c565b500290565b60008282101562001d6f5762001d6f62001e1c565b500390565b60005b8381101562001d9157818101518382015260200162001d77565b8381111562001da1576000848401525b50505050565b60008162001db95762001db962001e1c565b506000190190565b600181811c9082168062001dd657607f821691505b6020821081141562001df857634e487b7160e01b600052602260045260246000fd5b50919050565b600060001982141562001e155762001e1562001e1c565b5060010190565b634e487b7160e01b600052601160045260246000fdfe608060405260006010553480156200001657600080fd5b506001600055620000487f52eafc11f6f81f86878bffd31109a0d92f37506527754f00788853ff9f63b1308062000087565b620000747f52eafc11f6f81f86878bffd31109a0d92f37506527754f00788853ff9f63b13033620000d2565b62000081600033620000d2565b62000186565b600082815260186020526040808220600101805490849055905190918391839186917fbd79b86ffe0ab8e8776151514217cd7cacd52c909f66475c3af44e129f0b00ff9190a4505050565b620000de8282620000e2565b5050565b60008281526018602090815260408083206001600160a01b038516845290915290205460ff16620000de5760008281526018602090815260408083206001600160a01b03851684529091529020805460ff19166001179055620001423390565b6001600160a01b0316816001600160a01b0316837f2f8788117e7eff1d82e926ec794901d17c78024a50270940304540a733656f0d60405160405180910390a45050565b611e8380620001966000396000f3fe6080604052600436106102975760003560e01c806375829def1161015a578063b911135f116100c1578063ddca3f431161007a578063ddca3f431461085d578063eb582d1314610894578063ed5131f5146108b4578063f47f2f1d146108d4578063f8646408146108f4578063fc0c546a14610914576102e0565b8063b911135f1461079c578063be72f2d3146107d2578063ce0c4c51146107e7578063cfc412be14610807578063d547741f1461081d578063d7cb416f1461083d576102e0565b80638b8f4a65116101135780638b8f4a65146106f25780638d4fdb401461071257806391d148541461073257806396f1557c146107525780639a202d4714610772578063a217fddf14610787576102e0565b806375829def146106325780637cb00d25146106525780637cd5f663146106725780637ff36fbe1461069257806381f41eb2146106b25780638356ca4f146106d2576102e0565b80632f2ff15d116101fe578063550d01a3116101b7578063550d01a31461057c57806355640008146105ac5780635cc797d8146105c25780635fcbd285146105e257806363a8fd89146105f85780637048027514610612576102e0565b80632f2ff15d1461049057806336568abe146104b057806341c04d5e146104d05780634a5df50f146104f257806350d2a27614610512578063526aef9414610548576102e0565b8063117ab87411610250578063117ab874146103de57806316f0115b146103f4578063248a9ca31461041457806324d7806c14610444578063256019d6146104645780632ca0228a1461047a576102e0565b806301ffc9a7146102ea5780630284ec8f1461031f5780630411b9491461034057806306fdde03146103785780630a6aae111461039a5780630f4388c0146103be576102e0565b366102e05760405162461bcd60e51b815260206004820152601460248201527331b0b73737ba103932b1b2b4bb329022ba3432b960611b60448201526064015b60405180910390fd5b6102e8610934565b005b3480156102f657600080fd5b5061030a610305366004611a9c565b6109f1565b60405190151581526020015b60405180910390f35b34801561032b57600080fd5b50600a5461030a90600160b81b900460ff1681565b34801561034c57600080fd5b50600354610360906001600160a01b031681565b6040516001600160a01b039091168152602001610316565b34801561038457600080fd5b5061038d610a28565b6040516103169190611c12565b3480156103a657600080fd5b506103b060085481565b604051908152602001610316565b3480156103ca57600080fd5b506103b06103d9366004611a62565b610ab6565b3480156103ea57600080fd5b506103b060105481565b34801561040057600080fd5b50600554610360906001600160a01b031681565b34801561042057600080fd5b506103b061042f366004611a62565b60009081526018602052604090206001015490565b34801561045057600080fd5b5061030a61045f36600461194b565b610ad7565b34801561047057600080fd5b506103b0600f5481565b34801561048657600080fd5b506103b060095481565b34801561049c57600080fd5b506102e86104ab366004611a7a565b610af1565b3480156104bc57600080fd5b506102e86104cb366004611a7a565b610b17565b3480156104dc57600080fd5b506103b0600080516020611e2e83398151915281565b3480156104fe57600080fd5b506102e861050d3660046119d2565b610b95565b34801561051e57600080fd5b5061036061052d366004611a9c565b6017602052600090815260409020546001600160a01b031681565b34801561055457600080fd5b50600a5461056990600160a01b900460020b81565b60405160029190910b8152602001610316565b34801561058857600080fd5b5061030a61059736600461194b565b60166020526000908152604090205460ff1681565b3480156105b857600080fd5b506103b0600e5481565b3480156105ce57600080fd5b506102e86105dd366004611965565b610e48565b3480156105ee57600080fd5b506103b0600b5481565b34801561060457600080fd5b5060145461030a9060ff1681565b34801561061e57600080fd5b506102e861062d36600461194b565b610e77565b34801561063e57600080fd5b506102e861064d36600461194b565b610eb7565b34801561065e57600080fd5b506102e861066d366004611a48565b610f6a565b34801561067e57600080fd5b506102e861068d366004611997565b610fb1565b34801561069e57600080fd5b50600654610360906001600160a01b031681565b3480156106be57600080fd5b50600a54610360906001600160a01b031681565b3480156106de57600080fd5b506102e86106ed36600461194b565b610fe1565b3480156106fe57600080fd5b5061036061070d366004611a62565b61106b565b34801561071e57600080fd5b5061036061072d366004611a9c565b611088565b34801561073e57600080fd5b5061030a61074d366004611a7a565b611184565b34801561075e57600080fd5b506102e861076d36600461194b565b6111af565b34801561077e57600080fd5b506102e86111df565b34801561079357600080fd5b506103b0600081565b3480156107a857600080fd5b506103606107b7366004611a62565b6015602052600090815260409020546001600160a01b031681565b3480156107de57600080fd5b506102e861122d565b3480156107f357600080fd5b506102e8610802366004611ac4565b61125d565b34801561081357600080fd5b506103b060115481565b34801561082957600080fd5b506102e8610838366004611a7a565b6113e1565b34801561084957600080fd5b50600754610360906001600160a01b031681565b34801561086957600080fd5b5060045461088090600160a01b900462ffffff1681565b60405162ffffff9091168152602001610316565b3480156108a057600080fd5b50600454610360906001600160a01b031681565b3480156108c057600080fd5b506103b06108cf366004611a62565b611407565b3480156108e057600080fd5b5061030a6108ef36600461194b565b611417565b34801561090057600080fd5b50600254610360906001600160a01b031681565b34801561092057600080fd5b50600154610360906001600160a01b031681565b600061094b6000356001600160e01b031916611088565b90506001600160a01b03811615801590610968575060145460ff16155b6109c85760405162461bcd60e51b815260206004820152602b60248201527f4c69717569646974795661756c7450726f78793a20696d706c204f522070726f60448201526a78792069732066616c736560a81b60648201526084016102d7565b3660008037600080366000845af43d6000803e8080156109e7573d6000f35b3d6000fd5b505050565b60006001600160e01b03198216637965db0b60e01b1480610a2257506301ffc9a760e01b6001600160e01b03198316145b92915050565b600d8054610a3590611dab565b80601f0160208091040260200160405190810160405280929190818152602001828054610a6190611dab565b8015610aae5780601f10610a8357610100808354040283529160200191610aae565b820191906000526020600020905b815481529060010190602001808311610a9157829003601f168201915b505050505081565b60138181548110610ac657600080fd5b600091825260209091200154905081565b6000610a22600080516020611e2e83398151915283611184565b600082815260186020526040902060010154610b0d8133611423565b6109ec8383611487565b6001600160a01b0381163314610b875760405162461bcd60e51b815260206004820152602f60248201527f416363657373436f6e74726f6c3a2063616e206f6e6c792072656e6f756e636560448201526e103937b632b9903337b91039b2b63360891b60648201526084016102d7565b610b91828261150d565b5050565b610b9e33611417565b610bba5760405162461bcd60e51b81526004016102d790611cb9565b81610c1e5760405162461bcd60e51b815260206004820152602e60248201527f4c69717569646974795661756c7450726f78793a205f73656c6563746f72732760448201526d732073697a65206973207a65726f60901b60648201526084016102d7565b6001600160a01b03811660009081526016602052604090205460ff16610c955760405162461bcd60e51b815260206004820152602660248201527f4c69717569646974795661756c7450726f78793a205f696d70206973206e6f7460448201526520616c69766560d01b60648201526084016102d7565b60005b82811015610e4257816001600160a01b031660176000868685818110610cce57634e487b7160e01b600052603260045260246000fd5b9050602002016020810190610ce39190611a9c565b6001600160e01b03191681526020810191909152604001600020546001600160a01b03161415610d555760405162461bcd60e51b815260206004820152601d60248201527f4c69717569646974795661756c7450726f78793a2073616d6520696d7000000060448201526064016102d7565b8160176000868685818110610d7a57634e487b7160e01b600052603260045260246000fd5b9050602002016020810190610d8f9190611a9c565b6001600160e01b0319168152602081019190915260400160002080546001600160a01b0319166001600160a01b039283161790558216848483818110610de557634e487b7160e01b600052603260045260246000fd5b9050602002016020810190610dfa9190611a9c565b6001600160e01b0319167f14ebc1c32aa68f4d766e89f3e546cee249f7df25183fc10ab1568d91c2ce9b7b60405160405180910390a380610e3a81611de6565b915050610c98565b50505050565b610e5133611417565b610e6d5760405162461bcd60e51b81526004016102d790611cb9565b610b918282611574565b610e8033611417565b610e9c5760405162461bcd60e51b81526004016102d790611cb9565b610eb4600080516020611e2e83398151915282610af1565b50565b610ec033610ad7565b80610ecf5750610ecf33611417565b610eeb5760405162461bcd60e51b81526004016102d790611c45565b6001600160a01b038116610f115760405162461bcd60e51b81526004016102d790611c87565b336001600160a01b0382161415610f3a5760405162461bcd60e51b81526004016102d790611d01565b610f52600080516020611e2e83398151915282610af1565b610eb4600080516020611e2e83398151915233610b17565b610f7333610ad7565b80610f825750610f8233611417565b610f9e5760405162461bcd60e51b81526004016102d790611c45565b6014805460ff1916911515919091179055565b610fba33611417565b610fd65760405162461bcd60e51b81526004016102d790611cb9565b6109ec8383836115d3565b610fea33611417565b6110065760405162461bcd60e51b81526004016102d790611cb9565b6001600160a01b03811661102c5760405162461bcd60e51b81526004016102d790611c87565b336001600160a01b03821614156110555760405162461bcd60e51b81526004016102d790611d01565b611060600082610af1565b610eb4600033610b17565b6000818152601560205260408120546001600160a01b0316610a22565b6001600160e01b031981166000908152601760205260408120546001600160a01b03166110e85750506000805260156020527fa31547ce6245cdb9ecea19cf8c7eb9f5974025bb4075011409251ae855b30aed546001600160a01b031690565b6001600160e01b031982166000908152601760209081526040808320546001600160a01b03168352601690915290205460ff161561114657506001600160e01b0319166000908152601760205260409020546001600160a01b031690565b50506000805260156020527fa31547ce6245cdb9ecea19cf8c7eb9f5974025bb4075011409251ae855b30aed546001600160a01b031690565b919050565b60009182526018602090815260408084206001600160a01b0393909316845291905290205460ff1690565b6111b833611417565b6111d45760405162461bcd60e51b81526004016102d790611cb9565b610eb4600082611698565b6111e833610ad7565b806111f757506111f733611417565b6112135760405162461bcd60e51b81526004016102d790611c45565b61122b600080516020611e2e83398151915233610b17565b565b61123633611417565b6112525760405162461bcd60e51b81526004016102d790611cb9565b61122b600033610b17565b61126633610ad7565b80611275575061127533611417565b6112915760405162461bcd60e51b81526004016102d790611c45565b600d805461129e90611dab565b1590506112db5760405162461bcd60e51b815260206004820152600b60248201526a185b1c9958591e481cd95d60aa1b60448201526064016102d7565b6001600160a01b038416158015906112fb57506001600160a01b03831615155b6113365760405162461bcd60e51b815260206004820152600c60248201526b7a65726f206164647265737360a01b60448201526064016102d7565b6000821180156113465750600081115b61137f5760405162461bcd60e51b815260206004820152600a6024820152697a65726f20707269636560b01b60448201526064016102d7565b845161139290600d90602088019061188b565b50600180546001600160a01b0319166001600160a01b0386161790556113b783610ad7565b6113d3576113d3600080516020611e2e83398151915284611698565b600891909155600955505050565b6000828152601860205260409020600101546113fd8133611423565b6109ec838361150d565b60128181548110610ac657600080fd5b6000610a228183611184565b61142d8282611184565b610b9157611445816001600160a01b031660146116a2565b6114508360206116a2565b604051602001611461929190611ba3565b60408051601f198184030181529082905262461bcd60e51b82526102d791600401611c12565b6114918282611184565b610b915760008281526018602090815260408083206001600160a01b03851684529091529020805460ff191660011790556114c93390565b6001600160a01b0316816001600160a01b0316837f2f8788117e7eff1d82e926ec794901d17c78024a50270940304540a733656f0d60405160405180910390a45050565b6115178282611184565b15610b915760008281526018602090815260408083206001600160a01b0385168085529252808320805460ff1916905551339285917ff6391f5c32d9c69d2a47ea670b442974b53935d1edc7fd64eb21e047a839171b9190a45050565b6001600160a01b038216600081815260166020908152604091829020805460ff191685151590811790915591519182527f72558d9bfba4210f9ef095c782589484151f6d90f7a81bb3cb9b33efc695d324910160405180910390a25050565b823b6116605760405162461bcd60e51b815260206004820152605060248201527f4c69717569646974795661756c7450726f78793a2043616e6e6f74207365742060448201527f612070726f787920696d706c656d656e746174696f6e20746f2061206e6f6e2d60648201526f636f6e7472616374206164647265737360801b608482015260a4016102d7565b801561168e57600082815260156020526040902080546001600160a01b0319166001600160a01b0385161790555b6109ec8382611574565b610b918282611487565b606060006116b1836002611d49565b6116bc906002611d31565b67ffffffffffffffff8111156116e257634e487b7160e01b600052604160045260246000fd5b6040519080825280601f01601f19166020018201604052801561170c576020820181803683370190505b509050600360fc1b8160008151811061173557634e487b7160e01b600052603260045260246000fd5b60200101906001600160f81b031916908160001a905350600f60fb1b8160018151811061177257634e487b7160e01b600052603260045260246000fd5b60200101906001600160f81b031916908160001a9053506000611796846002611d49565b6117a1906001611d31565b90505b6001811115611835576f181899199a1a9b1b9c1cb0b131b232b360811b85600f16601081106117e357634e487b7160e01b600052603260045260246000fd5b1a60f81b82828151811061180757634e487b7160e01b600052603260045260246000fd5b60200101906001600160f81b031916908160001a90535060049490941c9361182e81611d94565b90506117a4565b5083156118845760405162461bcd60e51b815260206004820181905260248201527f537472696e67733a20686578206c656e67746820696e73756666696369656e7460448201526064016102d7565b9392505050565b82805461189790611dab565b90600052602060002090601f0160209004810192826118b957600085556118ff565b82601f106118d257805160ff19168380011785556118ff565b828001600101855582156118ff579182015b828111156118ff5782518255916020019190600101906118e4565b5061190b92915061190f565b5090565b5b8082111561190b5760008155600101611910565b80356001600160a01b038116811461117f57600080fd5b8035801515811461117f57600080fd5b60006020828403121561195c578081fd5b61188482611924565b60008060408385031215611977578081fd5b61198083611924565b915061198e6020840161193b565b90509250929050565b6000806000606084860312156119ab578081fd5b6119b484611924565b9250602084013591506119c96040850161193b565b90509250925092565b6000806000604084860312156119e6578283fd5b833567ffffffffffffffff808211156119fd578485fd5b818601915086601f830112611a10578485fd5b813581811115611a1e578586fd5b8760208260051b8501011115611a32578586fd5b6020928301955093506119c99186019050611924565b600060208284031215611a59578081fd5b6118848261193b565b600060208284031215611a73578081fd5b5035919050565b60008060408385031215611a8c578182fd5b8235915061198e60208401611924565b600060208284031215611aad578081fd5b81356001600160e01b031981168114611884578182fd5b600080600080600060a08688031215611adb578081fd5b853567ffffffffffffffff80821115611af2578283fd5b818801915088601f830112611b05578283fd5b813581811115611b1757611b17611e17565b604051601f8201601f19908116603f01168101908382118183101715611b3f57611b3f611e17565b816040528281528b6020848701011115611b57578586fd5b8260208601602083013785602084830101528099505050505050611b7d60208701611924565b9350611b8b60408701611924565b94979396509394606081013594506080013592915050565b76020b1b1b2b9b9a1b7b73a3937b61d1030b1b1b7bab73a1604d1b815260008351611bd5816017850160208801611d68565b7001034b99036b4b9b9b4b733903937b6329607d1b6017918401918201528351611c06816028840160208801611d68565b01602801949350505050565b6020815260008251806020840152611c31816040850160208701611d68565b601f01601f19169190910160400192915050565b60208082526022908201527f41636365737369626c653a2043616c6c6572206973206e6f7420616e2061646d60408201526134b760f11b606082015260800190565b60208082526018908201527741636365737369626c653a207a65726f206164647265737360401b604082015260600190565b60208082526028908201527f41636365737369626c653a2043616c6c6572206973206e6f7420616e2070726f6040820152673c3c9030b236b4b760c11b606082015260800190565b60208082526016908201527520b1b1b2b9b9b4b136329d1039b0b6b29030b236b4b760511b604082015260600190565b60008219821115611d4457611d44611e01565b500190565b6000816000190483118215151615611d6357611d63611e01565b500290565b60005b83811015611d83578181015183820152602001611d6b565b83811115610e425750506000910152565b600081611da357611da3611e01565b506000190190565b600181811c90821680611dbf57607f821691505b60208210811415611de057634e487b7160e01b600052602260045260246000fd5b50919050565b6000600019821415611dfa57611dfa611e01565b5060010190565b634e487b7160e01b600052601160045260246000fd5b634e487b7160e01b600052604160045260246000fdfe52eafc11f6f81f86878bffd31109a0d92f37506527754f00788853ff9f63b130a26469706673582212207e4fa6fb4af7004f364229151522c8634b017b7cdd7335dcd73cba1af705fc3e64736f6c63430008040033df8b4c520ffe197c5343c6f5aec59570151ef9a492f2c624fd45ddde6135ec42a2646970667358221220089d5c29fb835cbb36cfbd2d758a836a80255fce10969f58d9166a78c120920e64736f6c63430008040033df8b4c520ffe197c5343c6f5aec59570151ef9a492f2c624fd45ddde6135ec42",
  "linkReferences": {},
  "deployedLinkReferences": {}
}