{
  "_format": "hh-sol-artifact-1",
  "contractName": "LockTOSv2Logic0",
  "sourceName": "contracts/stake/LockTOSv2Logic0.sol",
  "abi": [
    {
      "anonymous": false,
      "inputs": [
        {
          "indexed": false,
          "internalType": "address",
          "name": "account",
          "type": "address"
        },
        {
          "indexed": false,
          "internalType": "uint256",
          "name": "lockId",
          "type": "uint256"
        },
        {
          "indexed": false,
          "internalType": "uint256",
          "name": "value",
          "type": "uint256"
        }
      ],
      "name": "LockAmountIncreased",
      "type": "event"
    },
    {
      "anonymous": false,
      "inputs": [
        {
          "indexed": false,
          "internalType": "address",
          "name": "account",
          "type": "address"
        },
        {
          "indexed": false,
          "internalType": "uint256",
          "name": "lockId",
          "type": "uint256"
        },
        {
          "indexed": false,
          "internalType": "uint256",
          "name": "value",
          "type": "uint256"
        },
        {
          "indexed": false,
          "internalType": "uint256",
          "name": "unlockTime",
          "type": "uint256"
        }
      ],
      "name": "LockCreated",
      "type": "event"
    },
    {
      "anonymous": false,
      "inputs": [
        {
          "indexed": false,
          "internalType": "address",
          "name": "account",
          "type": "address"
        },
        {
          "indexed": false,
          "internalType": "uint256",
          "name": "lockId",
          "type": "uint256"
        },
        {
          "indexed": false,
          "internalType": "uint256",
          "name": "value",
          "type": "uint256"
        }
      ],
      "name": "LockDeposited",
      "type": "event"
    },
    {
      "anonymous": false,
      "inputs": [
        {
          "indexed": false,
          "internalType": "address",
          "name": "account",
          "type": "address"
        },
        {
          "indexed": false,
          "internalType": "uint256",
          "name": "lockId",
          "type": "uint256"
        },
        {
          "indexed": false,
          "internalType": "uint256",
          "name": "unlockTime",
          "type": "uint256"
        }
      ],
      "name": "LockUnlockTimeIncreased",
      "type": "event"
    },
    {
      "anonymous": false,
      "inputs": [
        {
          "indexed": false,
          "internalType": "address",
          "name": "account",
          "type": "address"
        },
        {
          "indexed": false,
          "internalType": "uint256",
          "name": "lockId",
          "type": "uint256"
        },
        {
          "indexed": false,
          "internalType": "uint256",
          "name": "value",
          "type": "uint256"
        }
      ],
      "name": "LockWithdrawn",
      "type": "event"
    },
    {
      "anonymous": false,
      "inputs": [
        {
          "indexed": true,
          "internalType": "bytes32",
          "name": "role",
          "type": "bytes32"
        },
        {
          "indexed": true,
          "internalType": "bytes32",
          "name": "previousAdminRole",
          "type": "bytes32"
        },
        {
          "indexed": true,
          "internalType": "bytes32",
          "name": "newAdminRole",
          "type": "bytes32"
        }
      ],
      "name": "RoleAdminChanged",
      "type": "event"
    },
    {
      "anonymous": false,
      "inputs": [
        {
          "indexed": true,
          "internalType": "bytes32",
          "name": "role",
          "type": "bytes32"
        },
        {
          "indexed": true,
          "internalType": "address",
          "name": "account",
          "type": "address"
        },
        {
          "indexed": true,
          "internalType": "address",
          "name": "sender",
          "type": "address"
        }
      ],
      "name": "RoleGranted",
      "type": "event"
    },
    {
      "anonymous": false,
      "inputs": [
        {
          "indexed": true,
          "internalType": "bytes32",
          "name": "role",
          "type": "bytes32"
        },
        {
          "indexed": true,
          "internalType": "address",
          "name": "account",
          "type": "address"
        },
        {
          "indexed": true,
          "internalType": "address",
          "name": "sender",
          "type": "address"
        }
      ],
      "name": "RoleRevoked",
      "type": "event"
    },
    {
      "inputs": [],
      "name": "ADMIN_ROLE",
      "outputs": [
        {
          "internalType": "bytes32",
          "name": "",
          "type": "bytes32"
        }
      ],
      "stateMutability": "view",
      "type": "function"
    },
    {
      "inputs": [],
      "name": "BURNER_ROLE",
      "outputs": [
        {
          "internalType": "bytes32",
          "name": "",
          "type": "bytes32"
        }
      ],
      "stateMutability": "view",
      "type": "function"
    },
    {
      "inputs": [],
      "name": "DEFAULT_ADMIN_ROLE",
      "outputs": [
        {
          "internalType": "bytes32",
          "name": "",
          "type": "bytes32"
        }
      ],
      "stateMutability": "view",
      "type": "function"
    },
    {
      "inputs": [],
      "name": "MINTER_ROLE",
      "outputs": [
        {
          "internalType": "bytes32",
          "name": "",
          "type": "bytes32"
        }
      ],
      "stateMutability": "view",
      "type": "function"
    },
    {
      "inputs": [],
      "name": "MULTIPLIER",
      "outputs": [
        {
          "internalType": "uint256",
          "name": "",
          "type": "uint256"
        }
      ],
      "stateMutability": "view",
      "type": "function"
    },
    {
      "inputs": [],
      "name": "PROJECT_ADMIN_ROLE",
      "outputs": [
        {
          "internalType": "bytes32",
          "name": "",
          "type": "bytes32"
        }
      ],
      "stateMutability": "view",
      "type": "function"
    },
    {
      "inputs": [],
      "name": "activeHolders",
      "outputs": [
        {
          "internalType": "address[]",
          "name": "",
          "type": "address[]"
        }
      ],
      "stateMutability": "view",
      "type": "function"
    },
    {
      "inputs": [
        {
          "internalType": "address",
          "name": "_addr",
          "type": "address"
        }
      ],
      "name": "activeLocksOf",
      "outputs": [
        {
          "internalType": "uint256[]",
          "name": "",
          "type": "uint256[]"
        }
      ],
      "stateMutability": "view",
      "type": "function"
    },
    {
      "inputs": [
        {
          "internalType": "address",
          "name": "account",
          "type": "address"
        }
      ],
      "name": "addAdmin",
      "outputs": [],
      "stateMutability": "nonpayable",
      "type": "function"
    },
    {
      "inputs": [
        {
          "internalType": "address",
          "name": "",
          "type": "address"
        }
      ],
      "name": "aliveImplementation",
      "outputs": [
        {
          "internalType": "bool",
          "name": "",
          "type": "bool"
        }
      ],
      "stateMutability": "view",
      "type": "function"
    },
    {
      "inputs": [],
      "name": "allHolders",
      "outputs": [
        {
          "internalType": "address[]",
          "name": "",
          "type": "address[]"
        }
      ],
      "stateMutability": "view",
      "type": "function"
    },
    {
      "inputs": [
        {
          "internalType": "uint256",
          "name": "",
          "type": "uint256"
        }
      ],
      "name": "allLocks",
      "outputs": [
        {
          "internalType": "uint256",
          "name": "start",
          "type": "uint256"
        },
        {
          "internalType": "uint256",
          "name": "end",
          "type": "uint256"
        },
        {
          "internalType": "uint256",
          "name": "amount",
          "type": "uint256"
        },
        {
          "internalType": "bool",
          "name": "withdrawn",
          "type": "bool"
        }
      ],
      "stateMutability": "view",
      "type": "function"
    },
    {
      "inputs": [
        {
          "internalType": "address",
          "name": "_addr",
          "type": "address"
        }
      ],
      "name": "balanceOf",
      "outputs": [
        {
          "internalType": "uint256",
          "name": "balance",
          "type": "uint256"
        }
      ],
      "stateMutability": "view",
      "type": "function"
    },
    {
      "inputs": [
        {
          "internalType": "address",
          "name": "_addr",
          "type": "address"
        },
        {
          "internalType": "uint256",
          "name": "_timestamp",
          "type": "uint256"
        }
      ],
      "name": "balanceOfAt",
      "outputs": [
        {
          "internalType": "uint256",
          "name": "balance",
          "type": "uint256"
        }
      ],
      "stateMutability": "view",
      "type": "function"
    },
    {
      "inputs": [
        {
          "internalType": "uint256",
          "name": "_lockId",
          "type": "uint256"
        }
      ],
      "name": "balanceOfLock",
      "outputs": [
        {
          "internalType": "uint256",
          "name": "",
          "type": "uint256"
        }
      ],
      "stateMutability": "view",
      "type": "function"
    },
    {
      "inputs": [
        {
          "internalType": "uint256",
          "name": "_lockId",
          "type": "uint256"
        },
        {
          "internalType": "uint256",
          "name": "_timestamp",
          "type": "uint256"
        }
      ],
      "name": "balanceOfLockAt",
      "outputs": [
        {
          "internalType": "uint256",
          "name": "",
          "type": "uint256"
        }
      ],
      "stateMutability": "view",
      "type": "function"
    },
    {
      "inputs": [
        {
          "internalType": "address",
          "name": "user",
          "type": "address"
        },
        {
          "internalType": "uint256",
          "name": "_value",
          "type": "uint256"
        },
        {
          "internalType": "uint256",
          "name": "_unlockWeeks",
          "type": "uint256"
        }
      ],
      "name": "createLockByStaker",
      "outputs": [
        {
          "internalType": "uint256",
          "name": "lockId",
          "type": "uint256"
        }
      ],
      "stateMutability": "nonpayable",
      "type": "function"
    },
    {
      "inputs": [],
      "name": "cumulativeEpochUnit",
      "outputs": [
        {
          "internalType": "uint256",
          "name": "",
          "type": "uint256"
        }
      ],
      "stateMutability": "view",
      "type": "function"
    },
    {
      "inputs": [],
      "name": "cumulativeTOSAmount",
      "outputs": [
        {
          "internalType": "uint256",
          "name": "",
          "type": "uint256"
        }
      ],
      "stateMutability": "view",
      "type": "function"
    },
    {
      "inputs": [],
      "name": "currentStakedTotalTOS",
      "outputs": [
        {
          "internalType": "uint256",
          "name": "",
          "type": "uint256"
        }
      ],
      "stateMutability": "view",
      "type": "function"
    },
    {
      "inputs": [
        {
          "internalType": "address",
          "name": "_addr",
          "type": "address"
        },
        {
          "internalType": "uint256",
          "name": "_lockId",
          "type": "uint256"
        },
        {
          "internalType": "uint256",
          "name": "_value",
          "type": "uint256"
        }
      ],
      "name": "depositFor",
      "outputs": [],
      "stateMutability": "nonpayable",
      "type": "function"
    },
    {
      "inputs": [],
      "name": "epochUnit",
      "outputs": [
        {
          "internalType": "uint256",
          "name": "",
          "type": "uint256"
        }
      ],
      "stateMutability": "view",
      "type": "function"
    },
    {
      "inputs": [],
      "name": "getCurrentTime",
      "outputs": [
        {
          "internalType": "uint256",
          "name": "",
          "type": "uint256"
        }
      ],
      "stateMutability": "view",
      "type": "function"
    },
    {
      "inputs": [
        {
          "internalType": "bytes32",
          "name": "role",
          "type": "bytes32"
        }
      ],
      "name": "getRoleAdmin",
      "outputs": [
        {
          "internalType": "bytes32",
          "name": "",
          "type": "bytes32"
        }
      ],
      "stateMutability": "view",
      "type": "function"
    },
    {
      "inputs": [
        {
          "internalType": "bytes32",
          "name": "role",
          "type": "bytes32"
        },
        {
          "internalType": "uint256",
          "name": "index",
          "type": "uint256"
        }
      ],
      "name": "getRoleMember",
      "outputs": [
        {
          "internalType": "address",
          "name": "",
          "type": "address"
        }
      ],
      "stateMutability": "view",
      "type": "function"
    },
    {
      "inputs": [
        {
          "internalType": "bytes32",
          "name": "role",
          "type": "bytes32"
        }
      ],
      "name": "getRoleMemberCount",
      "outputs": [
        {
          "internalType": "uint256",
          "name": "",
          "type": "uint256"
        }
      ],
      "stateMutability": "view",
      "type": "function"
    },
    {
      "inputs": [],
      "name": "globalCheckpoint",
      "outputs": [],
      "stateMutability": "nonpayable",
      "type": "function"
    },
    {
      "inputs": [
        {
          "internalType": "bytes32",
          "name": "role",
          "type": "bytes32"
        },
        {
          "internalType": "address",
          "name": "account",
          "type": "address"
        }
      ],
      "name": "grantRole",
      "outputs": [],
      "stateMutability": "nonpayable",
      "type": "function"
    },
    {
      "inputs": [
        {
          "internalType": "bytes32",
          "name": "role",
          "type": "bytes32"
        },
        {
          "internalType": "address",
          "name": "account",
          "type": "address"
        }
      ],
      "name": "hasRole",
      "outputs": [
        {
          "internalType": "bool",
          "name": "",
          "type": "bool"
        }
      ],
      "stateMutability": "view",
      "type": "function"
    },
    {
      "inputs": [
        {
          "internalType": "uint256",
          "name": "",
          "type": "uint256"
        }
      ],
      "name": "inUse",
      "outputs": [
        {
          "internalType": "bool",
          "name": "",
          "type": "bool"
        }
      ],
      "stateMutability": "view",
      "type": "function"
    },
    {
      "inputs": [
        {
          "internalType": "address",
          "name": "user",
          "type": "address"
        },
        {
          "internalType": "uint256",
          "name": "_lockId",
          "type": "uint256"
        },
        {
          "internalType": "uint256",
          "name": "_value",
          "type": "uint256"
        }
      ],
      "name": "increaseAmountByStaker",
      "outputs": [],
      "stateMutability": "nonpayable",
      "type": "function"
    },
    {
      "inputs": [
        {
          "internalType": "address[]",
          "name": "users",
          "type": "address[]"
        },
        {
          "internalType": "uint256[]",
          "name": "_lockIds",
          "type": "uint256[]"
        },
        {
          "internalType": "uint256[]",
          "name": "_values",
          "type": "uint256[]"
        },
        {
          "internalType": "uint256",
          "name": "curTime",
          "type": "uint256"
        }
      ],
      "name": "increaseAmountOfIds",
      "outputs": [],
      "stateMutability": "nonpayable",
      "type": "function"
    },
    {
      "inputs": [
        {
          "internalType": "address",
          "name": "user",
          "type": "address"
        },
        {
          "internalType": "uint256",
          "name": "_lockId",
          "type": "uint256"
        },
        {
          "internalType": "uint256",
          "name": "_unlockWeeks",
          "type": "uint256"
        }
      ],
      "name": "increaseUnlockTimeByStaker",
      "outputs": [],
      "stateMutability": "nonpayable",
      "type": "function"
    },
    {
      "inputs": [
        {
          "internalType": "address",
          "name": "account",
          "type": "address"
        }
      ],
      "name": "isAdmin",
      "outputs": [
        {
          "internalType": "bool",
          "name": "",
          "type": "bool"
        }
      ],
      "stateMutability": "view",
      "type": "function"
    },
    {
      "inputs": [],
      "name": "lockIdCounter",
      "outputs": [
        {
          "internalType": "uint256",
          "name": "",
          "type": "uint256"
        }
      ],
      "stateMutability": "view",
      "type": "function"
    },
    {
      "inputs": [
        {
          "internalType": "uint256",
          "name": "",
          "type": "uint256"
        },
        {
          "internalType": "uint256",
          "name": "",
          "type": "uint256"
        }
      ],
      "name": "lockPointHistory",
      "outputs": [
        {
          "internalType": "int256",
          "name": "bias",
          "type": "int256"
        },
        {
          "internalType": "int256",
          "name": "slope",
          "type": "int256"
        },
        {
          "internalType": "uint256",
          "name": "timestamp",
          "type": "uint256"
        }
      ],
      "stateMutability": "view",
      "type": "function"
    },
    {
      "inputs": [],
      "name": "lock_",
      "outputs": [
        {
          "internalType": "bool",
          "name": "",
          "type": "bool"
        }
      ],
      "stateMutability": "view",
      "type": "function"
    },
    {
      "inputs": [
        {
          "internalType": "address",
          "name": "",
          "type": "address"
        },
        {
          "internalType": "uint256",
          "name": "",
          "type": "uint256"
        }
      ],
      "name": "lockedBalances",
      "outputs": [
        {
          "internalType": "uint256",
          "name": "start",
          "type": "uint256"
        },
        {
          "internalType": "uint256",
          "name": "end",
          "type": "uint256"
        },
        {
          "internalType": "uint256",
          "name": "amount",
          "type": "uint256"
        },
        {
          "internalType": "bool",
          "name": "withdrawn",
          "type": "bool"
        }
      ],
      "stateMutability": "view",
      "type": "function"
    },
    {
      "inputs": [
        {
          "internalType": "uint256",
          "name": "_lockId",
          "type": "uint256"
        }
      ],
      "name": "locksInfo",
      "outputs": [
        {
          "internalType": "uint256",
          "name": "start",
          "type": "uint256"
        },
        {
          "internalType": "uint256",
          "name": "end",
          "type": "uint256"
        },
        {
          "internalType": "uint256",
          "name": "amount",
          "type": "uint256"
        }
      ],
      "stateMutability": "view",
      "type": "function"
    },
    {
      "inputs": [
        {
          "internalType": "address",
          "name": "_addr",
          "type": "address"
        }
      ],
      "name": "locksOf",
      "outputs": [
        {
          "internalType": "uint256[]",
          "name": "",
          "type": "uint256[]"
        }
      ],
      "stateMutability": "view",
      "type": "function"
    },
    {
      "inputs": [],
      "name": "maxTime",
      "outputs": [
        {
          "internalType": "uint256",
          "name": "",
          "type": "uint256"
        }
      ],
      "stateMutability": "view",
      "type": "function"
    },
    {
      "inputs": [],
      "name": "migratedL2",
      "outputs": [
        {
          "internalType": "bool",
          "name": "",
          "type": "bool"
        }
      ],
      "stateMutability": "view",
      "type": "function"
    },
    {
      "inputs": [],
      "name": "needCheckpoint",
      "outputs": [
        {
          "internalType": "bool",
          "name": "need",
          "type": "bool"
        }
      ],
      "stateMutability": "view",
      "type": "function"
    },
    {
      "inputs": [],
      "name": "pauseProxy",
      "outputs": [
        {
          "internalType": "bool",
          "name": "",
          "type": "bool"
        }
      ],
      "stateMutability": "view",
      "type": "function"
    },
    {
      "inputs": [
        {
          "internalType": "uint256",
          "name": "",
          "type": "uint256"
        }
      ],
      "name": "pointHistory",
      "outputs": [
        {
          "internalType": "int256",
          "name": "bias",
          "type": "int256"
        },
        {
          "internalType": "int256",
          "name": "slope",
          "type": "int256"
        },
        {
          "internalType": "uint256",
          "name": "timestamp",
          "type": "uint256"
        }
      ],
      "stateMutability": "view",
      "type": "function"
    },
    {
      "inputs": [
        {
          "internalType": "uint256",
          "name": "_lockId",
          "type": "uint256"
        }
      ],
      "name": "pointHistoryOf",
      "outputs": [
        {
          "components": [
            {
              "internalType": "int256",
              "name": "bias",
              "type": "int256"
            },
            {
              "internalType": "int256",
              "name": "slope",
              "type": "int256"
            },
            {
              "internalType": "uint256",
              "name": "timestamp",
              "type": "uint256"
            }
          ],
          "internalType": "struct LibLockTOS.Point[]",
          "name": "",
          "type": "tuple[]"
        }
      ],
      "stateMutability": "view",
      "type": "function"
    },
    {
      "inputs": [
        {
          "internalType": "uint256",
          "name": "",
          "type": "uint256"
        }
      ],
      "name": "proxyImplementation",
      "outputs": [
        {
          "internalType": "address",
          "name": "",
          "type": "address"
        }
      ],
      "stateMutability": "view",
      "type": "function"
    },
    {
      "inputs": [
        {
          "internalType": "address",
          "name": "account",
          "type": "address"
        }
      ],
      "name": "removeAdmin",
      "outputs": [],
      "stateMutability": "nonpayable",
      "type": "function"
    },
    {
      "inputs": [
        {
          "internalType": "bytes32",
          "name": "role",
          "type": "bytes32"
        },
        {
          "internalType": "address",
          "name": "account",
          "type": "address"
        }
      ],
      "name": "renounceRole",
      "outputs": [],
      "stateMutability": "nonpayable",
      "type": "function"
    },
    {
      "inputs": [
        {
          "internalType": "bytes32",
          "name": "role",
          "type": "bytes32"
        },
        {
          "internalType": "address",
          "name": "account",
          "type": "address"
        }
      ],
      "name": "revokeRole",
      "outputs": [],
      "stateMutability": "nonpayable",
      "type": "function"
    },
    {
      "inputs": [
        {
          "internalType": "bytes4",
          "name": "",
          "type": "bytes4"
        }
      ],
      "name": "selectorImplementation",
      "outputs": [
        {
          "internalType": "address",
          "name": "",
          "type": "address"
        }
      ],
      "stateMutability": "view",
      "type": "function"
    },
    {
      "inputs": [
        {
          "internalType": "uint256",
          "name": "_maxTime",
          "type": "uint256"
        }
      ],
      "name": "setMaxTime",
      "outputs": [],
      "stateMutability": "nonpayable",
      "type": "function"
    },
    {
      "inputs": [
        {
          "internalType": "address",
          "name": "_staker",
          "type": "address"
        }
      ],
      "name": "setStaker",
      "outputs": [],
      "stateMutability": "nonpayable",
      "type": "function"
    },
    {
      "inputs": [
        {
          "internalType": "uint256",
          "name": "",
          "type": "uint256"
        }
      ],
      "name": "slopeChanges",
      "outputs": [
        {
          "internalType": "int256",
          "name": "",
          "type": "int256"
        }
      ],
      "stateMutability": "view",
      "type": "function"
    },
    {
      "inputs": [],
      "name": "stakeRegistry",
      "outputs": [
        {
          "internalType": "address",
          "name": "",
          "type": "address"
        }
      ],
      "stateMutability": "view",
      "type": "function"
    },
    {
      "inputs": [],
      "name": "staker",
      "outputs": [
        {
          "internalType": "address",
          "name": "",
          "type": "address"
        }
      ],
      "stateMutability": "view",
      "type": "function"
    },
    {
      "inputs": [],
      "name": "tos",
      "outputs": [
        {
          "internalType": "address",
          "name": "",
          "type": "address"
        }
      ],
      "stateMutability": "view",
      "type": "function"
    },
    {
      "inputs": [
        {
          "internalType": "address",
          "name": "_addr",
          "type": "address"
        }
      ],
      "name": "totalLockedAmountOf",
      "outputs": [
        {
          "internalType": "uint256",
          "name": "",
          "type": "uint256"
        }
      ],
      "stateMutability": "view",
      "type": "function"
    },
    {
      "inputs": [],
      "name": "totalSupply",
      "outputs": [
        {
          "internalType": "uint256",
          "name": "",
          "type": "uint256"
        }
      ],
      "stateMutability": "view",
      "type": "function"
    },
    {
      "inputs": [
        {
          "internalType": "uint256",
          "name": "_timestamp",
          "type": "uint256"
        }
      ],
      "name": "totalSupplyAt",
      "outputs": [
        {
          "internalType": "uint256",
          "name": "",
          "type": "uint256"
        }
      ],
      "stateMutability": "view",
      "type": "function"
    },
    {
      "inputs": [
        {
          "internalType": "address",
          "name": "newAdmin",
          "type": "address"
        }
      ],
      "name": "transferAdmin",
      "outputs": [],
      "stateMutability": "nonpayable",
      "type": "function"
    },
    {
      "inputs": [
        {
          "internalType": "uint256",
          "name": "",
          "type": "uint256"
        }
      ],
      "name": "uniqueUsers",
      "outputs": [
        {
          "internalType": "address",
          "name": "",
          "type": "address"
        }
      ],
      "stateMutability": "view",
      "type": "function"
    },
    {
      "inputs": [
        {
          "internalType": "address",
          "name": "",
          "type": "address"
        },
        {
          "internalType": "uint256",
          "name": "",
          "type": "uint256"
        }
      ],
      "name": "userLocks",
      "outputs": [
        {
          "internalType": "uint256",
          "name": "",
          "type": "uint256"
        }
      ],
      "stateMutability": "view",
      "type": "function"
    },
    {
      "inputs": [
        {
          "internalType": "address",
          "name": "user",
          "type": "address"
        }
      ],
      "name": "withdrawAllByStaker",
      "outputs": [],
      "stateMutability": "nonpayable",
      "type": "function"
    },
    {
      "inputs": [
        {
          "internalType": "address",
          "name": "user",
          "type": "address"
        },
        {
          "internalType": "uint256",
          "name": "_lockId",
          "type": "uint256"
        }
      ],
      "name": "withdrawByStaker",
      "outputs": [],
      "stateMutability": "nonpayable",
      "type": "function"
    },
    {
      "inputs": [
        {
          "internalType": "address",
          "name": "_addr",
          "type": "address"
        }
      ],
      "name": "withdrawableAmountOf",
      "outputs": [
        {
          "internalType": "uint256",
          "name": "",
          "type": "uint256"
        }
      ],
      "stateMutability": "view",
      "type": "function"
    },
    {
      "inputs": [
        {
          "internalType": "address",
          "name": "_addr",
          "type": "address"
        }
      ],
      "name": "withdrawableLocksOf",
      "outputs": [
        {
          "internalType": "uint256[]",
          "name": "",
          "type": "uint256[]"
        }
      ],
      "stateMutability": "view",
      "type": "function"
    }
  ],
  "bytecode": "0x6080604052600160075534801561001557600080fd5b5061453e806100256000396000f3fe608060405234801561001057600080fd5b50600436106103715760003560e01c80639010d07c116101d5578063c577365611610105578063dd383394116100a8578063dd3833941461074a578063e43cb6661461075d578063ea31e89514610770578063eb86b34214610778578063ed50c6991461078b578063efe2b7201461079e578063f52a36f7146107b1578063f52dde6d146107c4578063fd2dcecf146107d757610371565b8063c5773656146106c4578063c5dc1e5f146106d9578063c79acdda146106f9578063c80a3aa61461070c578063ca15c87314610714578063cd29ca0e14610727578063d53913931461072f578063d547741f1461073757610371565b8063a29a43bb11610178578063a29a43bb1461062d578063aa33fedb14610640578063afae883e14610653578063b2e9a1b71461065b578063b534ad5614610663578063b911135f1461066b578063b94419e01461067e578063c0a37b3f14610691578063c3f9ab58146106a457610371565b80639010d07c146105ab57806391d14854146105be578063981b24d0146105d157806398b777e7146105e45780639ce56305146105f75780639f7166a41461060a578063a1f5f50e1461061d578063a217fddf1461062557610371565b806341c04d5e116102b057806363d5a3d91161025357806363d5a3d914610521578063642cf649146105345780636830483514610547578063704802751461054f57806370a082311461056257806375829def1461057557806375b238fc1461058857806389f395de146105905780638ad4c4471461059857610371565b806341c04d5e1461048d5780634cf5fbf5146104955780634ee2cd7e146104a857806350d2a276146104bb578063550d01a3146104db5780635d16a6f9146104ee5780635ebaf1db1461051157806363a8fd891461051957610371565b806322e67e711161031857806322e67e7114610407578063248a9ca31461040f57806324d7806c14610422578063282c51f31461043557806329cb924d1461043d5780632f2ff15d1461044557806336568abe14610458578063367b7b231461046b57610371565b8063059f8b1614610376578063086c46f4146103945780630b7858ba146103a75780630db9cb0c146103bc5780631785f53c146103cf57806318160ddd146103e45780631ac40e66146103ec5780631b831944146103f4575b600080fd5b61037e6107df565b60405161038b9190613fa4565b60405180910390f35b61037e6103a2366004613c5f565b6107eb565b6103af6108b7565b60405161038b9190613f99565b61037e6103ca366004613ca2565b6108fb565b6103e26103dd366004613c5f565b610b11565b005b61037e610b70565b6103e2610c42565b6103e2610402366004613cd4565b610c4a565b61037e610f1c565b61037e61041d366004613dbc565b610f22565b6103af610430366004613c5f565b610f37565b61037e610f57565b61037e610f7b565b6103e2610453366004613dd4565b610f7f565b6103e2610466366004613dd4565b610fe6565b61047e610479366004613dff565b611047565b60405161038b93929190613fad565b61037e611089565b6103e26104a3366004613ca2565b6110ad565b61037e6104b6366004613c79565b611233565b6104ce6104c9366004613e20565b6112f0565b60405161038b9190613e60565b6103af6104e9366004613c5f565b61130b565b6105016104fc366004613c79565b611320565b60405161038b94939291906142e4565b6104ce611355565b6103af611369565b61050161052f366004613dbc565b611372565b61037e610542366004613dff565b61139c565b6104ce611415565b6103e261055d366004613c5f565b611429565b61037e610570366004613c5f565b611485565b6103e2610583366004613c5f565b611539565b61037e61165a565b6104ce61166c565b61047e6105a6366004613dbc565b61167b565b6104ce6105b9366004613dff565b6116ae565b6103af6105cc366004613dd4565b6116cd565b61037e6105df366004613dbc565b6116e5565b6103e26105f2366004613dbc565b61177b565b61047e610605366004613dbc565b6117c4565b6103e2610618366004613c5f565b6117e3565b6103af611989565b61037e611999565b6103e261063b366004613c5f565b61199e565b61037e61064e366004613c79565b611a63565b61037e611a94565b6103af611a9a565b61037e611aa3565b6104ce610679366004613dbc565b611aa9565b61037e61068c366004613dbc565b611ac4565b6103e261069f366004613c79565b611b78565b6106b76106b2366004613c5f565b611c24565b60405161038b9190613f61565b6106cc611c90565b60405161038b9190613ebb565b6106ec6106e7366004613dbc565b611e25565b60405161038b9190613f08565b6103af610707366004613dbc565b611eb5565b6106cc611eca565b61037e610722366004613dbc565b611f2c565b61037e611f43565b61037e611f49565b6103e2610745366004613dd4565b611f6d565b6106b7610758366004613c5f565b611fc6565b6106b761076b366004613c5f565b61222a565b61037e6123f4565b61037e610786366004613c5f565b61247a565b6104ce610799366004613dbc565b612564565b6103e26107ac366004613ca2565b61258e565b61037e6107bf366004613dbc565b6125f0565b6103e26107d2366004613ca2565b612602565b61037e6127eb565b670de0b6b3a764000081565b6001600160a01b0381166000908152600d602052604081205481805b828110156108ad576001600160a01b0385166000908152600d6020526040812080548390811061083357fe5b60009182526020808320909101546001600160a01b0389168352600b8252604080842082855283529283902083516080810185528154815260018201549381019390935260028101549383018490526003015460ff161515606083015292509061089e9085906127f1565b93505050806001019050610807565b509150505b919050565b600954600090806108cc5760019150506108f8565b600154600960018303815481106108df57fe5b9060005260206000209060030201600201544203119150505b90565b60145460009061010090046001600160a01b03163314610950576040805162461bcd60e51b81526020600482015260146024820152600080516020614406833981519152604482015290519081900360640190fd5b600083116109795760405162461bcd60e51b81526004016109709061412d565b60405180910390fd5b600082116109995760405162461bcd60e51b8152600401610970906141f8565b6005546109a690836127f1565b6005556006546109b690846127f1565b6006556001546000906109d5906109ce90859061284b565b42906127f1565b6001549091506109ef906109e983826128a4565b9061284b565b90506002544282031115610a155760405162461bcd60e51b815260040161097090614022565b6001600160a01b0385166000908152600d6020526040902054610a7e57600880546001810182556000919091527ff3f7a9fe364faab93b216da50a3214154f22a0a2b415b23a84c8169e8b636ee30180546001600160a01b0319166001600160a01b0387161790555b600454610a8c9060016127f1565b60048190559150610a9f858386846128e6565b6001600160a01b0385166000908152600d6020908152604080832080546001810182559084529190922001839055517f71fc552ee832a9004ea0bdb07cb6dd9d641eb2cb53b3cfe88c8fdcff886734a090610b01908790859088908690613e95565b60405180910390a1509392505050565b610b1a33610f37565b610b555760405162461bcd60e51b81526004018080602001828103825260228152602001806143936022913960400191505060405180910390fd5b610b6d60008051602061444783398151915282610fe6565b50565b600954600090610b82575060006108f8565b60098054600091610bd8916000198101908110610b9b57fe5b9060005260206000209060030201604051806060016040529081600082015481526020016001820154815260200160028201548152505042612aea565b90506000610c09610bfe610bf9846040015142612be990919063ffffffff16565b612c2b565b602084015190612c73565b9050610c3b670de0b6b3a764000082846000015113610c29576000610c35565b8351610c359084612d1c565b906128a4565b9250505090565b610b6d612d81565b610c5333610f37565b610c8e5760405162461bcd60e51b81526004018080602001828103825260228152602001806143936022913960400191505060405180910390fd5b60008451118015610ca0575082518451145b8015610cad575081518451145b610cc95760405162461bcd60e51b815260040161097090614082565b835160005b81811015610f14576000868281518110610ce457fe5b602002602001015190506000868381518110610cfc57fe5b602002602001015190506000868481518110610d1457fe5b6020908102919091018101516001600160a01b0385166000908152600b835260408082208683528452908190208151608081018352815481526001820154948101949094526002810154918401919091526003015460ff161580156060840181905291935090610d845750600082115b15610f0457600654610d9690836127f1565b5060408051608081018252825181526020808401519082015281830151918101829052600060608201528291610dcc90856127f1565b6040820152610ddc81838b612f7a565b6001600160a01b0386166000908152600b60209081526040808320888452825280832084518155828501805160018084019190915583870180516002808601919091556060890180516003968701805491151560ff19928316179055600c9098529588208951815593519284019290925551828201819055935191909201805491151591909416179092559054610e8491610bf99190610c3590670de0b6b3a764000061284b565b90506000610eac610ea5610bf98d8660200151612be990919063ffffffff16565b8390612c73565b6040805160608101825291825260208083019485528282018e815260008b8152600a83529283208054600181810183559185529290932093516003909202909301908155935190840155516002909201919091555050505b505060019092019150610cce9050565b505050505050565b60025481565b60009081526010602052604090206002015490565b6000610f51600080516020614447833981519152836116cd565b92915050565b7f9667e80708b6eeeb0053fa0cca44e028ff548e2a9f029edfeac87c118b08b7c881565b4290565b600082815260106020526040902060020154610f9d906105cc613172565b610fd85760405162461bcd60e51b815260040180806020018281038252602f815260200180614364602f913960400191505060405180910390fd5b610fe28282613176565b5050565b610fee613172565b6001600160a01b0316816001600160a01b03161461103d5760405162461bcd60e51b815260040180806020018281038252602f8152602001806144da602f913960400191505060405180910390fd5b610fe282826131df565b600a602052816000526040600020818154811061106357600080fd5b600091825260209091206003909102018054600182015460029092015490935090915083565b7f52eafc11f6f81f86878bffd31109a0d92f37506527754f00788853ff9f63b13081565b60145461010090046001600160a01b031633146110ff576040805162461bcd60e51b81526020600482015260146024820152600080516020614406833981519152604482015290519081900360640190fd5b6000811161111f5760405162461bcd60e51b81526004016109709061412d565b6001600160a01b0383166000908152600b6020908152604080832085845282529182902082516080810184528154815260018201549281019290925260028101549282019290925260039091015460ff1615801560608301526111945760405162461bcd60e51b815260040161097090614102565b80516111b25760405162461bcd60e51b8152600401610970906142b7565b428160200151116111d55760405162461bcd60e51b8152600401610970906140a8565b6006546111e290836127f1565b6006556111f284848460006128e6565b7fea44bc904f77b1be47cd5b840b00f19b7238f88d7524fa5a86629282bfe6bcc584848460405161122593929190613e74565b60405180910390a150505050565b6001600160a01b0382166000908152600d602090815260408083208054825181850281018501909352808352849383018282801561129057602002820191906000526020600020905b81548152602001906001019080831161127c575b505050505090508051600014156112ab576000915050610f51565b60005b81518110156112e8576112de6112d78383815181106112c957fe5b60200260200101518661139c565b84906127f1565b92506001016112ae565b505092915050565b6013602052600090815260409020546001600160a01b031681565b60126020526000908152604090205460ff1681565b600b60209081526000928352604080842090915290825290208054600182015460028301546003909301549192909160ff1684565b60145461010090046001600160a01b031681565b60005460ff1681565b600c6020526000908152604090208054600182015460028301546003909301549192909160ff1684565b6000828152600a60205260408120819081906113b89085613248565b91509150816113cc57600092505050610f51565b60006113eb610bfe610bf9846040015188612be990919063ffffffff16565b905061140b670de0b6b3a764000082846000015113610c29576000610c35565b9695505050505050565b60005461010090046001600160a01b031681565b61143233610f37565b61146d5760405162461bcd60e51b81526004018080602001828103825260228152602001806143936022913960400191505060405180910390fd5b610b6d60008051602061444783398151915282610f7f565b6001600160a01b0381166000908152600d60209081526040808320805482518185028101850190935280835284938301828280156114e257602002820191906000526020600020905b8154815260200190600101908083116114ce575b505050505090508051600014156114fd5760009150506108b2565b60005b8151811015611532576115286112d783838151811061151b57fe5b6020026020010151611ac4565b9250600101611500565b5050919050565b61154233610f37565b61157d5760405162461bcd60e51b81526004018080602001828103825260228152602001806143936022913960400191505060405180910390fd5b6001600160a01b0381166115d3576040805162461bcd60e51b815260206004820152601860248201527741636365737369626c653a207a65726f206164647265737360401b604482015290519081900360640190fd5b336001600160a01b038216141561162a576040805162461bcd60e51b815260206004820152601660248201527520b1b1b2b9b9b4b136329d1039b0b6b29030b236b4b760511b604482015290519081900360640190fd5b61164260008051602061444783398151915282610f7f565b610b6d60008051602061444783398151915233610fe6565b60008051602061444783398151915281565b6003546001600160a01b031681565b6009818154811061168b57600080fd5b600091825260209091206003909102018054600182015460029092015490925083565b60008281526010602052604081206116c69083613340565b9392505050565b60008281526010602052604081206116c6908361334c565b6009546000906116f7575060006108b2565b600080611705600985613248565b9150915081611719576000925050506108b2565b6117238185612aea565b90506000611741610bf9836040015187612be990919063ffffffff16565b8260200151029050611772670de0b6b3a764000082846000015113611767576000610c35565b8351839003906128a4565b95945050505050565b61178433610f37565b6117bf5760405162461bcd60e51b81526004018080602001828103825260228152602001806143936022913960400191505060405180910390fd5b600255565b6000908152600c60205260409020805460018201546002909201549092565b6007546001146118055760405162461bcd60e51b815260040161097090614285565b600060075560145461010090046001600160a01b0316331461185c576040805162461bcd60e51b81526020600482015260146024820152600080516020614406833981519152604482015290519081900360640190fd5b6001600160a01b0381166000908152600d6020526040902080546118805750611981565b60005b815481101561197e576000600c600084848154811061189e57fe5b6000918252602080832090910154835282810193909352604091820190208151608081018352815481526001820154938101939093526002810154918301919091526003015460ff1615801560608301819052919250906119155750600083838154811061190857fe5b9060005260206000200154115b8015611925575060008160400151115b80156119315750805115155b8015611941575060008160200151115b80156119505750428160200151105b15611975576119758484848154811061196557fe5b9060005260206000200154613361565b50600101611883565b50505b506001600755565b600054600160a81b900460ff1681565b600081565b6119a733610f37565b6119e25760405162461bcd60e51b81526004018080602001828103825260228152602001806143936022913960400191505060405180910390fd5b6001600160a01b038116611a085760405162461bcd60e51b815260040161097090614164565b6014546001600160a01b03828116610100909204161415611a3b5760405162461bcd60e51b81526004016109709061422f565b601480546001600160a01b0390921661010002610100600160a81b0319909216919091179055565b600d6020528160005260406000208181548110611a7f57600080fd5b90600052602060002001600091509150505481565b60045481565b60145460ff1681565b60055481565b6011602052600090815260409020546001600160a01b031681565b6000818152600a602052604081205480611ae25760009150506108b2565b6000838152600a6020526040812080546000198401908110611b0057fe5b9060005260206000209060030201604051806060016040529081600082015481526020016001820154815260200160028201548152505090506000611b58610bfe610bf9846040015142612be990919063ffffffff16565b9050611772670de0b6b3a764000082846000015113610c29576000610c35565b600754600114611b9a5760405162461bcd60e51b815260040161097090614285565b600060075560145461010090046001600160a01b03163314611bf1576040805162461bcd60e51b81526020600482015260146024820152600080516020614406833981519152604482015290519081900360640190fd5b60008111611c115760405162461bcd60e51b815260040161097090614059565b611c1b8282613361565b50506001600755565b6001600160a01b0381166000908152600d6020908152604091829020805483518184028101840190945280845260609392830182828015611c8457602002820191906000526020600020905b815481526020019060010190808311611c70575b50505050509050919050565b6008546060906000906001600160401b0381118015611cae57600080fd5b50604051908082528060200260200182016040528015611cd8578160200160208202803683370190505b5090506000805b600854811015611d4f576000611d1560088381548110611cfb57fe5b6000918252602090912001546001600160a01b031661222a565b805190915015611d465782806001019350506001848381518110611d3557fe5b911515602092830291909101909101525b50600101611cdf565b506000816001600160401b0381118015611d6857600080fd5b50604051908082528060200260200182016040528015611d92578160200160208202803683370190505b5090506000805b600854811015611e1b57848181518110611daf57fe5b602002602001015115611e135760088181548110611dc957fe5b600091825260209091200154835160018401936001600160a01b039092169185918110611df257fe5b60200260200101906001600160a01b031690816001600160a01b0316815250505b600101611d99565b5090935050505090565b6060600a6000838152602001908152602001600020805480602002602001604051908101604052809291908181526020016000905b82821015611eaa5783829060005260206000209060030201604051806060016040529081600082015481526020016001820154815260200160028201548152505081526020019060010190611e5a565b505050509050919050565b600f6020526000908152604090205460ff1681565b60606008805480602002602001604051908101604052809291908181526020018280548015611f2257602002820191906000526020600020905b81546001600160a01b03168152600190910190602001808311611f04575b5050505050905090565b6000818152601060205260408120610f519061352a565b60065481565b7ff0887ba65ee2024ea881d91b74c2450ef19e1557f03bed3ea9f16b037cbe2dc981565b600082815260106020526040902060020154611f8b906105cc613172565b61103d5760405162461bcd60e51b81526004018080602001828103825260308152602001806143d66030913960400191505060405180910390fd5b60145460609061010090046001600160a01b0316331461201b576040805162461bcd60e51b81526020600482015260146024820152600080516020614406833981519152604482015290519081900360640190fd5b6001600160a01b0382166000908152600d602052604081205490805b828110156120f9576001600160a01b0385166000908152600d6020526040812080548390811061206357fe5b60009182526020808320909101546001600160a01b0389168352600b8252604080842082855283529283902083516080810185528154815260018201549381018490526002820154948101949094526003015460ff1615156060840152925042108015906120d5575060008160400151115b80156120e357506060810151155b156120ef576001909301925b5050600101612037565b506000816001600160401b038111801561211257600080fd5b5060405190808252806020026020018201604052801561213c578160200160208202803683370190505b5090506000915060005b83811015612221576001600160a01b0386166000908152600d6020526040812080548390811061217257fe5b60009182526020808320909101546001600160a01b038a168352600b8252604080842082855283529283902083516080810185528154815260018201549381018490526002820154948101949094526003015460ff1615156060840152925042108015906121e4575060008160400151115b80156121f257506060810151155b15612217578184868060010197508151811061220a57fe5b6020026020010181815250505b5050600101612146565b50949350505050565b6001600160a01b0381166000908152600d6020526040812054606091805b828110156122eb576001600160a01b0385166000908152600d6020526040812080548390811061227457fe5b60009182526020808320909101546001600160a01b0389168352600b8252604080842082855283529283902083516080810185528154815260018201549381018490526002820154948101949094526003015460ff161515606084015292504210156122e1576001909301925b5050600101612248565b506000816001600160401b038111801561230457600080fd5b5060405190808252806020026020018201604052801561232e578160200160208202803683370190505b5090506000915060005b83811015612221576001600160a01b0386166000908152600d6020526040812080548390811061236457fe5b60009182526020808320909101546001600160a01b038a168352600b8252604080842082855283529283902083516080810185528154815260018201549381018490526002820154948101949094526003015460ff161515606084015292504210156123ea57818486806001019750815181106123dd57fe5b6020026020010181815250505b5050600101612338565b6003546040516370a0823160e01b81526000916001600160a01b0316906370a0823190612425903090600401613e60565b60206040518083038186803b15801561243d57600080fd5b505afa158015612451573d6000803e3d6000fd5b505050506040513d601f19601f820116820180604052508101906124759190613e48565b905090565b6001600160a01b0381166000908152600d602052604081205481805b828110156108ad576001600160a01b0385166000908152600d602052604081208054839081106124c257fe5b60009182526020808320909101546001600160a01b0389168352600b8252604080842082855283529283902083516080810185528154815260018201549381018490526002820154948101949094526003015460ff161515606084015292504210801590612534575060008160400151115b801561254257506060810151155b1561255a5760408101516125579085906127f1565b93505b5050600101612496565b6008818154811061257457600080fd5b6000918252602090912001546001600160a01b0316905081565b60145461010090046001600160a01b031633146125e0576040805162461bcd60e51b81526020600482015260146024820152600080516020614406833981519152604482015290519081900360640190fd5b6125eb8383836110ad565b505050565b600e6020526000908152604090205481565b60145461010090046001600160a01b03163314612654576040805162461bcd60e51b81526020600482015260146024820152600080516020614406833981519152604482015290519081900360640190fd5b600081116126745760405162461bcd60e51b8152600401610970906141f8565b60055461268190826127f1565b6005556001600160a01b0383166000908152600b602090815260408083208584528252808320815160808101835281548152600180830154948201949094526002820154928101929092526003015460ff161515606082015290549091906126f9906126ee90859061284b565b6020840151906127f1565b60015490915061270d906109e983826128a4565b9050600254428203106127325760405162461bcd60e51b815260040161097090614022565b428260200151116127555760405162461bcd60e51b81526004016109709061418a565b808260200151106127785760405162461bcd60e51b8152600401610970906141c1565b600082604001511161279c5760405162461bcd60e51b815260040161097090613ff2565b6127a985856000846128e6565b7fb8596b0e78133666b86648f60233cc2d078144d06df7874ea9f612a3ccc3e2fb8585836040516127dc93929190613e74565b60405180910390a15050505050565b60015481565b6000828201838110156116c6576040805162461bcd60e51b815260206004820152601b60248201527f536166654d6174683a206164646974696f6e206f766572666c6f770000000000604482015290519081900360640190fd5b60008261285a57506000610f51565b8282028284828161286757fe5b04146116c65760405162461bcd60e51b81526004018080602001828103825260218152602001806144266021913960400191505060405180910390fd5b60006116c683836040518060400160405280601a81526020017f536166654d6174683a206469766973696f6e206279207a65726f000000000000815250613535565b6007546001146129085760405162461bcd60e51b815260040161097090614285565b600060078190556001600160a01b0385168152600b602090815260408083208684528252808320815160808082018452825482526001830154828601908152600284015483860190815260039094015460ff161515606080850191909152855192830186528351835290519582019590955291519282018390529281019390935290919061299690856127f1565b604082015282156129a957602081018390525b80516129b3574281525b6129bd81836135d7565b6001600160a01b0386166000908152600b60209081526040808320888452825280832084518155828501805160018084019190915583870180516002808601919091556060890180516003968701805491151560ff19928316179055600c9098529588208951815593519284019290925551828201819055935191909201805491151591909416179092559054612a6591610bf99190610c3590670de0b6b3a764000061284b565b90506000612a86610ea5610bf9428660200151612be990919063ffffffff16565b6040805160608101825291825260208083019485524283830190815260009a8b52600a8252918a20805460018181018355918c5291909a20925160039091029092019182559251818901559151600290920191909155505050600792909255505050565b612af2613bbb565b6001546040840151600091612b0b916109e990826128a4565b90505b828114612be157612b33612b2d600154836127f190919063ffffffff16565b846137a7565b6000818152600e6020526040808220549087015192935091612b6690610bf990612b5e908690612be9565b6001546137a7565b9050612b8a612b82828860200151612c7390919063ffffffff16565b875190612d1c565b86526020860151612b9b90836137bd565b60208701528551600012612bb0576000612bb3565b85515b86526020860151600012612bc8576000612bce565b85602001515b6020870152505060408401819052612b0e565b509192915050565b60006116c683836040518060400160405280601e81526020017f536166654d6174683a207375627472616374696f6e206f766572666c6f770000815250613822565b6000600160ff1b8210612c6f5760405162461bcd60e51b815260040180806020018281038252602881526020018061448e6028913960400191505060405180910390fd5b5090565b600082612c8257506000610f51565b82600019148015612c965750600160ff1b82145b15612cd25760405162461bcd60e51b81526004018080602001828103825260278152602001806144676027913960400191505060405180910390fd5b82820282848281612cdf57fe5b05146116c65760405162461bcd60e51b81526004018080602001828103825260278152602001806144676027913960400191505060405180910390fd5b6000818303818312801590612d315750838113155b80612d465750600083128015612d4657508381135b6116c65760405162461bcd60e51b81526004018080602001828103825260248152602001806144b66024913960400191505060405180910390fd5b612d89613bbb565b600954429015612de357600980546000198101908110612da557fe5b906000526020600020906003020160405180606001604052908160008201548152602001600182015481526020016002820154815250509150612e03565b604051806060016040528060008152602001600081526020018281525091505b6001546040830151600091612e1c916109e990826128a4565b90505b818114612f7557612e44612e3e600154836127f190919063ffffffff16565b836137a7565b6000818152600e6020526040808220549086015192935091612e6f90610bf990612b5e908690612be9565b9050612e93612e8b828760200151612c7390919063ffffffff16565b865190612d1c565b85526020850151612ea490836137bd565b60208601528451600012612eb9576000612ebc565b84515b85526020850151600012612ed1576000612ed7565b84602001515b60208601908152604086018481526009805460018101825560009190915287517f6e1540171b6c0c960b71a7020d9f60077f6af931a8bbf590da0223dacf75c7af60039092029182015591517f6e1540171b6c0c960b71a7020d9f60077f6af931a8bbf590da0223dacf75c7b0830155517f6e1540171b6c0c960b71a7020d9f60077f6af931a8bbf590da0223dacf75c7b19091015550612e1f9050565b505090565b60408051606080820183526000808352602080840182905283850182905284519283018552818352828101829052938201529185015183929083108015612fc5575060008660400151115b1561301d57612ff2610bf9600254610c35670de0b6b3a76400008a6040015161284b90919063ffffffff16565b60208084019190915286015161301090610bfe90610bf99086612be9565b8252602086015160408301525b828560200151118015613034575060008560400151115b1561309757613061610bf9600254610c35670de0b6b3a7640000896040015161284b90919063ffffffff16565b60208083019190915285015161308a9061307f90610bf99086612be9565b602083015190612c73565b8152602085015160408201525b60006130a1612d81565b825184519192506130bd916130b591612d1c565b8251906137bd565b8152602080830151908401516130e2916130d79190612d1c565b6020830151906137bd565b602082015280516000126130f75760006130fa565b80515b8152602081015160001261310f576000613115565b80602001515b602082015260098054829190600019810190811061312f57fe5b906000526020600020906003020160008201518160000155602082015181600101556040820151816002015590505061316983838761387c565b50505050505050565b3390565b600082815260106020526040902061318e908261393f565b15610fe25761319b613172565b6001600160a01b0316816001600160a01b0316837f2f8788117e7eff1d82e926ec794901d17c78024a50270940304540a733656f0d60405160405180910390a45050565b60008281526010602052604090206131f79082613954565b15610fe257613204613172565b6001600160a01b0316816001600160a01b0316837ff6391f5c32d9c69d2a47ea670b442974b53935d1edc7fd64eb21e047a839171b60405160405180910390a45050565b6000613252613bbb565b83546132615760009150613339565b83546000905b808260010110156132bb5760006132836002610c3585856127f1565b90508587828154811061329257fe5b906000526020600020906003020160020154116132b1578092506132b5565b8091505b50613267565b848683815481106132c857fe5b906000526020600020906003020160020154116133325760018683815481106132ed57fe5b90600052602060002090600302018060405180606001604052908160008201548152602001600182015481526020016002820154815250509050935093505050613339565b6000935050505b9250929050565b60006116c68383613969565b60006116c6836001600160a01b0384166139cd565b6001600160a01b0382166000908152600b6020908152604080832084845282529182902082516080810184528154815260018201549281019290925260028101549282019290925260039091015460ff1615801560608301526133d65760405162461bcd60e51b8152600401610970906140d7565b80516133f45760405162461bcd60e51b8152600401610970906142b7565b428160200151106134175760405162461bcd60e51b815260040161097090614255565b600081604001511161343b5760405162461bcd60e51b815260040161097090613fc3565b60408051608081018252600080825260208201819052918101919091526001606082015261346981836135d7565b6040808301516001600160a01b0386166000908152600b60209081528382208783528152838220855181558186018051600180840191909155878701805160028086019190915560608a0180516003968701805491151560ff19928316179055600c909752968990208a51815593519284019290925551908201559251920180549215159290911691909117905590517ff1206247bdd5e2e0cfc00bea4cf05fb8dc479ebee686f9549043179cc7013b30906127dc90879087908590613e74565b6000610f51826139e5565b600081836135c15760405162461bcd60e51b81526004018080602001828103825283818151815260200191508051906020019080838360005b8381101561358657818101518382015260200161356e565b50505050905090810190601f1680156135b35780820380516001836020036101000a031916815260200191505b509250505060405180910390fd5b5060008385816135cd57fe5b0495945050505050565b60408051606080820183526000808352602080840182905283850182905284519283018552818352828101829052938201529184015142929083108015613622575060008560400151115b1561367a5761364f610bf9600254610c35670de0b6b3a7640000896040015161284b90919063ffffffff16565b60208084019190915285015161366d90610bfe90610bf99086612be9565b8252602085015160408301525b828460200151118015613691575060008460400151115b156136e9576136be610bf9600254610c35670de0b6b3a7640000886040015161284b90919063ffffffff16565b6020808301919091528401516136dc9061307f90610bf99086612be9565b8152602084015160408201525b60006136f3612d81565b82518451919250613707916130b591612d1c565b815260208083015190840151613721916130d79190612d1c565b60208201528051600012613736576000613739565b80515b8152602081015160001261374e576000613754565b80602001515b602082015260098054829190600019810190811061376e57fe5b9060005260206000209060030201600082015181600001556020820151816001015560408201518160020155905050610f1483836139e9565b60008183106137b657816116c6565b5090919050565b60008282018183128015906137d25750838112155b806137e757506000831280156137e757508381125b6116c65760405162461bcd60e51b81526004018080602001828103825260218152602001806143b56021913960400191505060405180910390fd5b600081848411156138745760405162461bcd60e51b815260206004820181815283516024840152835190928392604490910191908501908083836000831561358657818101518382015260200161356e565b505050900390565b6040808401516000908152600e6020528181205484830180518352929091205491519091908310156138f25760208401516138b89082906137bd565b90508460400151846040015114156138dd5760208501516138da908290612d1c565b90505b6040808501516000908152600e602052208190555b82856040015111801561390c575083604001518560400151115b15613938576020850151613921908390612d1c565b6040808701516000908152600e6020522081905591505b5050505050565b60006116c6836001600160a01b038416613aab565b60006116c6836001600160a01b038416613af5565b815460009082106139ab5760405162461bcd60e51b81526004018080602001828103825260228152602001806143426022913960400191505060405180910390fd5b8260000182815481106139ba57fe5b9060005260206000200154905092915050565b60009081526001919091016020526040902054151590565b5490565b6040808301516000908152600e602052818120548383018051835292909120549151909190421015613a5f576020830151613a259082906137bd565b9050836040015183604001511415613a4a576020840151613a47908290612d1c565b90505b6040808401516000908152600e602052208190555b428460400151118015613a79575082604001518460400151115b15613aa5576020840151613a8e908390612d1c565b6040808601516000908152600e6020522081905591505b50505050565b6000613ab783836139cd565b613aed57508154600181810184556000848152602080822090930184905584548482528286019093526040902091909155610f51565b506000610f51565b60008181526001830160205260408120548015613bb15783546000198083019190810190600090879083908110613b2857fe5b9060005260206000200154905080876000018481548110613b4557fe5b600091825260208083209091019290925582815260018981019092526040902090840190558654879080613b7557fe5b60019003818190600052602060002001600090559055866001016000878152602001908152602001600020600090556001945050505050610f51565b6000915050610f51565b60405180606001604052806000815260200160008152602001600081525090565b80356001600160a01b03811681146108b257600080fd5b600082601f830112613c03578081fd5b81356020613c18613c1383614324565b614301565b8281528181019085830183850287018401881015613c34578586fd5b855b85811015613c5257813584529284019290840190600101613c36565b5090979650505050505050565b600060208284031215613c70578081fd5b6116c682613bdc565b60008060408385031215613c8b578081fd5b613c9483613bdc565b946020939093013593505050565b600080600060608486031215613cb6578081fd5b613cbf84613bdc565b95602085013595506040909401359392505050565b60008060008060808587031215613ce9578081fd5b84356001600160401b0380821115613cff578283fd5b818701915087601f830112613d12578283fd5b81356020613d22613c1383614324565b82815281810190858301838502870184018d1015613d3e578788fd5b8796505b84871015613d6757613d5381613bdc565b835260019690960195918301918301613d42565b5098505088013592505080821115613d7d578283fd5b613d8988838901613bf3565b94506040870135915080821115613d9e578283fd5b50613dab87828801613bf3565b949793965093946060013593505050565b600060208284031215613dcd578081fd5b5035919050565b60008060408385031215613de6578182fd5b82359150613df660208401613bdc565b90509250929050565b60008060408385031215613e11578182fd5b50508035926020909101359150565b600060208284031215613e31578081fd5b81356001600160e01b0319811681146116c6578182fd5b600060208284031215613e59578081fd5b5051919050565b6001600160a01b0391909116815260200190565b6001600160a01b039390931683526020830191909152604082015260600190565b6001600160a01b0394909416845260208401929092526040830152606082015260800190565b6020808252825182820181905260009190848201906040850190845b81811015613efc5783516001600160a01b031683529284019291840191600101613ed7565b50909695505050505050565b602080825282518282018190526000919060409081850190868401855b82811015613f545781518051855286810151878601528501518585015260609093019290850190600101613f25565b5091979650505050505050565b6020808252825182820181905260009190848201906040850190845b81811015613efc57835183529284019291840191600101613f7d565b901515815260200190565b90815260200190565b9283526020830191909152604082015260600190565b6020808252601590820152744e6f20616d6f756e7420746f20776974686472617760581b604082015260600190565b6020808252601690820152754e6f206578697374696e67206c6f636b656420544f5360501b604082015260600190565b6020808252601a908201527f4d617820756e6c6f636b2074696d652069732033207965617273000000000000604082015260600190565b6020808252600f908201526e5f6c6f636b4964206973207a65726f60881b604082015260600190565b6020808252600c908201526b0eee4dedcce40d8cadccee8d60a31b604082015260600190565b602080825260159082015274131bd8dac81d1a5b59481a5cc8199a5b9a5cda1959605a1b604082015260600190565b60208082526011908201527020b63932b0b23c903bb4ba34323930bbb760791b604082015260600190565b6020808252601190820152702637b1b59034b9903bb4ba34323930bbb760791b604082015260600190565b6020808252601f908201527f56616c7565206c6f636b65642073686f756c64206265206e6f6e2d7a65726f00604082015260600190565b6020808252600c908201526b7a65726f206164647265737360a01b604082015260600190565b6020808252601a908201527f4c6f636b2074696d6520616c72656164792066696e6973686564000000000000604082015260600190565b6020808252601d908201527f4e6577206c6f636b2074696d65206d7573742062652067726561746572000000604082015260600190565b6020808252601e908201527f556e6c6f636b20706572696f64206c657373207468616e2061207765656b0000604082015260600190565b6020808252600c908201526b73616d65206164647265737360a01b604082015260600190565b602080825260169082015275131bd8dac81d1a5b59481b9bdd08199a5b9a5cda195960521b604082015260600190565b6020808252601890820152774c6f636b496420697320616c726561647920696e2075736560401b604082015260600190565b602080825260139082015272131bd8dac8191bd95cc81b9bdd08195e1a5cdd606a1b604082015260600190565b938452602084019290925260408301521515606082015260800190565b6040518181016001600160401b038111828210171561431c57fe5b604052919050565b60006001600160401b0382111561433757fe5b506020908102019056fe456e756d657261626c655365743a20696e646578206f7574206f6620626f756e6473416363657373436f6e74726f6c3a2073656e646572206d75737420626520616e2061646d696e20746f206772616e7441636365737369626c653a2043616c6c6572206973206e6f7420616e2061646d696e5369676e6564536166654d6174683a206164646974696f6e206f766572666c6f77416363657373436f6e74726f6c3a2073656e646572206d75737420626520616e2061646d696e20746f207265766f6b6563616c6c6572206973206e6f74207374616b6572000000000000000000000000536166654d6174683a206d756c7469706c69636174696f6e206f766572666c6f77df8b4c520ffe197c5343c6f5aec59570151ef9a492f2c624fd45ddde6135ec425369676e6564536166654d6174683a206d756c7469706c69636174696f6e206f766572666c6f7753616665436173743a2076616c756520646f65736e27742066697420696e20616e20696e743235365369676e6564536166654d6174683a207375627472616374696f6e206f766572666c6f77416363657373436f6e74726f6c3a2063616e206f6e6c792072656e6f756e636520726f6c657320666f722073656c66a2646970667358221220f0459648f8e904128544c9faca3ef9eb21d0e403a71e83bda32bb585f905ef3864736f6c63430007060033",
  "linkReferences": {},
  "deployedLinkReferences": {}
}