{
  "_format": "hh-sol-artifact-1",
  "contractName": "TokamakStakeUpgrade3",
  "sourceName": "contracts/connection/TokamakStakeUpgrade3.sol",
  "abi": [
    {
      "anonymous": false,
      "inputs": [
        {
          "indexed": false,
          "internalType": "address",
          "name": "caller",
          "type": "address"
        },
        {
          "indexed": false,
          "internalType": "uint256",
          "name": "amountIn",
          "type": "uint256"
        },
        {
          "indexed": false,
          "internalType": "uint256",
          "name": "amountOut",
          "type": "uint256"
        }
      ],
      "name": "ExchangedWTONtoTOS",
      "type": "event"
    },
    {
      "anonymous": false,
      "inputs": [
        {
          "indexed": true,
          "internalType": "bytes32",
          "name": "role",
          "type": "bytes32"
        },
        {
          "indexed": true,
          "internalType": "bytes32",
          "name": "previousAdminRole",
          "type": "bytes32"
        },
        {
          "indexed": true,
          "internalType": "bytes32",
          "name": "newAdminRole",
          "type": "bytes32"
        }
      ],
      "name": "RoleAdminChanged",
      "type": "event"
    },
    {
      "anonymous": false,
      "inputs": [
        {
          "indexed": true,
          "internalType": "bytes32",
          "name": "role",
          "type": "bytes32"
        },
        {
          "indexed": true,
          "internalType": "address",
          "name": "account",
          "type": "address"
        },
        {
          "indexed": true,
          "internalType": "address",
          "name": "sender",
          "type": "address"
        }
      ],
      "name": "RoleGranted",
      "type": "event"
    },
    {
      "anonymous": false,
      "inputs": [
        {
          "indexed": true,
          "internalType": "bytes32",
          "name": "role",
          "type": "bytes32"
        },
        {
          "indexed": true,
          "internalType": "address",
          "name": "account",
          "type": "address"
        },
        {
          "indexed": true,
          "internalType": "address",
          "name": "sender",
          "type": "address"
        }
      ],
      "name": "RoleRevoked",
      "type": "event"
    },
    {
      "inputs": [],
      "name": "ADMIN_ROLE",
      "outputs": [
        {
          "internalType": "bytes32",
          "name": "",
          "type": "bytes32"
        }
      ],
      "stateMutability": "view",
      "type": "function"
    },
    {
      "inputs": [],
      "name": "BURNER_ROLE",
      "outputs": [
        {
          "internalType": "bytes32",
          "name": "",
          "type": "bytes32"
        }
      ],
      "stateMutability": "view",
      "type": "function"
    },
    {
      "inputs": [],
      "name": "DEFAULT_ADMIN_ROLE",
      "outputs": [
        {
          "internalType": "bytes32",
          "name": "",
          "type": "bytes32"
        }
      ],
      "stateMutability": "view",
      "type": "function"
    },
    {
      "inputs": [],
      "name": "MINTER_ROLE",
      "outputs": [
        {
          "internalType": "bytes32",
          "name": "",
          "type": "bytes32"
        }
      ],
      "stateMutability": "view",
      "type": "function"
    },
    {
      "inputs": [],
      "name": "PROJECT_ADMIN_ROLE",
      "outputs": [
        {
          "internalType": "bytes32",
          "name": "",
          "type": "bytes32"
        }
      ],
      "stateMutability": "view",
      "type": "function"
    },
    {
      "inputs": [
        {
          "internalType": "address",
          "name": "account",
          "type": "address"
        }
      ],
      "name": "addAdmin",
      "outputs": [],
      "stateMutability": "nonpayable",
      "type": "function"
    },
    {
      "inputs": [],
      "name": "checkTokamak",
      "outputs": [],
      "stateMutability": "nonpayable",
      "type": "function"
    },
    {
      "inputs": [],
      "name": "defiAddr",
      "outputs": [
        {
          "internalType": "address",
          "name": "",
          "type": "address"
        }
      ],
      "stateMutability": "view",
      "type": "function"
    },
    {
      "inputs": [],
      "name": "defiStatus",
      "outputs": [
        {
          "internalType": "uint256",
          "name": "",
          "type": "uint256"
        }
      ],
      "stateMutability": "view",
      "type": "function"
    },
    {
      "inputs": [],
      "name": "depositManager",
      "outputs": [
        {
          "internalType": "address",
          "name": "",
          "type": "address"
        }
      ],
      "stateMutability": "view",
      "type": "function"
    },
    {
      "inputs": [],
      "name": "endBlock",
      "outputs": [
        {
          "internalType": "uint256",
          "name": "",
          "type": "uint256"
        }
      ],
      "stateMutability": "view",
      "type": "function"
    },
    {
      "inputs": [
        {
          "internalType": "uint256",
          "name": "_amountIn",
          "type": "uint256"
        },
        {
          "internalType": "uint256",
          "name": "_amountOutMinimum",
          "type": "uint256"
        },
        {
          "internalType": "uint256",
          "name": "_deadline",
          "type": "uint256"
        },
        {
          "internalType": "uint160",
          "name": "_sqrtPriceLimitX96",
          "type": "uint160"
        },
        {
          "internalType": "address",
          "name": "factory",
          "type": "address"
        },
        {
          "internalType": "uint8",
          "name": "slippage",
          "type": "uint8"
        },
        {
          "internalType": "int24",
          "name": "curTick",
          "type": "int24"
        }
      ],
      "name": "exchangeWTONtoTOS",
      "outputs": [],
      "stateMutability": "nonpayable",
      "type": "function"
    },
    {
      "inputs": [],
      "name": "finalBalanceTON",
      "outputs": [
        {
          "internalType": "uint256",
          "name": "",
          "type": "uint256"
        }
      ],
      "stateMutability": "view",
      "type": "function"
    },
    {
      "inputs": [],
      "name": "finalBalanceWTON",
      "outputs": [
        {
          "internalType": "uint256",
          "name": "",
          "type": "uint256"
        }
      ],
      "stateMutability": "view",
      "type": "function"
    },
    {
      "inputs": [],
      "name": "fromTokamak",
      "outputs": [
        {
          "internalType": "uint256",
          "name": "",
          "type": "uint256"
        }
      ],
      "stateMutability": "view",
      "type": "function"
    },
    {
      "inputs": [
        {
          "internalType": "address",
          "name": "token0",
          "type": "address"
        },
        {
          "internalType": "address",
          "name": "token1",
          "type": "address"
        }
      ],
      "name": "getDecimals",
      "outputs": [
        {
          "internalType": "uint256",
          "name": "token0Decimals",
          "type": "uint256"
        },
        {
          "internalType": "uint256",
          "name": "token1Decimals",
          "type": "uint256"
        }
      ],
      "stateMutability": "view",
      "type": "function"
    },
    {
      "inputs": [
        {
          "internalType": "address",
          "name": "factory",
          "type": "address"
        }
      ],
      "name": "getPoolAddress",
      "outputs": [
        {
          "internalType": "address",
          "name": "",
          "type": "address"
        }
      ],
      "stateMutability": "view",
      "type": "function"
    },
    {
      "inputs": [
        {
          "internalType": "uint160",
          "name": "sqrtPriceX96",
          "type": "uint160"
        }
      ],
      "name": "getPriceX96FromSqrtPriceX96",
      "outputs": [
        {
          "internalType": "uint256",
          "name": "priceX96",
          "type": "uint256"
        }
      ],
      "stateMutability": "pure",
      "type": "function"
    },
    {
      "inputs": [
        {
          "internalType": "bytes32",
          "name": "role",
          "type": "bytes32"
        }
      ],
      "name": "getRoleAdmin",
      "outputs": [
        {
          "internalType": "bytes32",
          "name": "",
          "type": "bytes32"
        }
      ],
      "stateMutability": "view",
      "type": "function"
    },
    {
      "inputs": [
        {
          "internalType": "bytes32",
          "name": "role",
          "type": "bytes32"
        },
        {
          "internalType": "uint256",
          "name": "index",
          "type": "uint256"
        }
      ],
      "name": "getRoleMember",
      "outputs": [
        {
          "internalType": "address",
          "name": "",
          "type": "address"
        }
      ],
      "stateMutability": "view",
      "type": "function"
    },
    {
      "inputs": [
        {
          "internalType": "bytes32",
          "name": "role",
          "type": "bytes32"
        }
      ],
      "name": "getRoleMemberCount",
      "outputs": [
        {
          "internalType": "uint256",
          "name": "",
          "type": "uint256"
        }
      ],
      "stateMutability": "view",
      "type": "function"
    },
    {
      "inputs": [
        {
          "internalType": "address",
          "name": "user",
          "type": "address"
        }
      ],
      "name": "getUserStaked",
      "outputs": [
        {
          "internalType": "uint256",
          "name": "amount",
          "type": "uint256"
        },
        {
          "internalType": "uint256",
          "name": "claimedBlock",
          "type": "uint256"
        },
        {
          "internalType": "uint256",
          "name": "claimedAmount",
          "type": "uint256"
        },
        {
          "internalType": "uint256",
          "name": "releasedBlock",
          "type": "uint256"
        },
        {
          "internalType": "uint256",
          "name": "releasedAmount",
          "type": "uint256"
        },
        {
          "internalType": "uint256",
          "name": "releasedTOSAmount",
          "type": "uint256"
        },
        {
          "internalType": "bool",
          "name": "released",
          "type": "bool"
        }
      ],
      "stateMutability": "view",
      "type": "function"
    },
    {
      "inputs": [
        {
          "internalType": "bytes32",
          "name": "role",
          "type": "bytes32"
        },
        {
          "internalType": "address",
          "name": "account",
          "type": "address"
        }
      ],
      "name": "grantRole",
      "outputs": [],
      "stateMutability": "nonpayable",
      "type": "function"
    },
    {
      "inputs": [
        {
          "internalType": "bytes32",
          "name": "role",
          "type": "bytes32"
        },
        {
          "internalType": "address",
          "name": "account",
          "type": "address"
        }
      ],
      "name": "hasRole",
      "outputs": [
        {
          "internalType": "bool",
          "name": "",
          "type": "bool"
        }
      ],
      "stateMutability": "view",
      "type": "function"
    },
    {
      "inputs": [],
      "name": "infos",
      "outputs": [
        {
          "internalType": "address",
          "name": "",
          "type": "address"
        },
        {
          "internalType": "address",
          "name": "",
          "type": "address"
        },
        {
          "internalType": "uint256[3]",
          "name": "",
          "type": "uint256[3]"
        },
        {
          "internalType": "uint256",
          "name": "",
          "type": "uint256"
        },
        {
          "internalType": "uint256",
          "name": "",
          "type": "uint256"
        },
        {
          "internalType": "uint256",
          "name": "",
          "type": "uint256"
        }
      ],
      "stateMutability": "view",
      "type": "function"
    },
    {
      "inputs": [
        {
          "internalType": "address",
          "name": "account",
          "type": "address"
        }
      ],
      "name": "isAdmin",
      "outputs": [
        {
          "internalType": "bool",
          "name": "",
          "type": "bool"
        }
      ],
      "stateMutability": "view",
      "type": "function"
    },
    {
      "inputs": [],
      "name": "migratedL2",
      "outputs": [
        {
          "internalType": "bool",
          "name": "",
          "type": "bool"
        }
      ],
      "stateMutability": "view",
      "type": "function"
    },
    {
      "inputs": [],
      "name": "pauseProxy",
      "outputs": [
        {
          "internalType": "bool",
          "name": "",
          "type": "bool"
        }
      ],
      "stateMutability": "view",
      "type": "function"
    },
    {
      "inputs": [],
      "name": "paytoken",
      "outputs": [
        {
          "internalType": "address",
          "name": "",
          "type": "address"
        }
      ],
      "stateMutability": "view",
      "type": "function"
    },
    {
      "inputs": [
        {
          "internalType": "address",
          "name": "account",
          "type": "address"
        }
      ],
      "name": "removeAdmin",
      "outputs": [],
      "stateMutability": "nonpayable",
      "type": "function"
    },
    {
      "inputs": [
        {
          "internalType": "bytes32",
          "name": "role",
          "type": "bytes32"
        },
        {
          "internalType": "address",
          "name": "account",
          "type": "address"
        }
      ],
      "name": "renounceRole",
      "outputs": [],
      "stateMutability": "nonpayable",
      "type": "function"
    },
    {
      "inputs": [],
      "name": "requestNum",
      "outputs": [
        {
          "internalType": "uint256",
          "name": "",
          "type": "uint256"
        }
      ],
      "stateMutability": "view",
      "type": "function"
    },
    {
      "inputs": [
        {
          "internalType": "bytes32",
          "name": "role",
          "type": "bytes32"
        },
        {
          "internalType": "address",
          "name": "account",
          "type": "address"
        }
      ],
      "name": "revokeRole",
      "outputs": [],
      "stateMutability": "nonpayable",
      "type": "function"
    },
    {
      "inputs": [],
      "name": "rewardClaimedTotal",
      "outputs": [
        {
          "internalType": "uint256",
          "name": "",
          "type": "uint256"
        }
      ],
      "stateMutability": "view",
      "type": "function"
    },
    {
      "inputs": [],
      "name": "saleStartBlock",
      "outputs": [
        {
          "internalType": "uint256",
          "name": "",
          "type": "uint256"
        }
      ],
      "stateMutability": "view",
      "type": "function"
    },
    {
      "inputs": [],
      "name": "seigManager",
      "outputs": [
        {
          "internalType": "address",
          "name": "",
          "type": "address"
        }
      ],
      "stateMutability": "view",
      "type": "function"
    },
    {
      "inputs": [],
      "name": "stakeRegistry",
      "outputs": [
        {
          "internalType": "address",
          "name": "",
          "type": "address"
        }
      ],
      "stateMutability": "view",
      "type": "function"
    },
    {
      "inputs": [],
      "name": "startBlock",
      "outputs": [
        {
          "internalType": "uint256",
          "name": "",
          "type": "uint256"
        }
      ],
      "stateMutability": "view",
      "type": "function"
    },
    {
      "inputs": [],
      "name": "swapProxy",
      "outputs": [
        {
          "internalType": "address",
          "name": "",
          "type": "address"
        }
      ],
      "stateMutability": "view",
      "type": "function"
    },
    {
      "inputs": [],
      "name": "swappedAmountTOS",
      "outputs": [
        {
          "internalType": "uint256",
          "name": "",
          "type": "uint256"
        }
      ],
      "stateMutability": "view",
      "type": "function"
    },
    {
      "inputs": [],
      "name": "toTokamak",
      "outputs": [
        {
          "internalType": "uint256",
          "name": "",
          "type": "uint256"
        }
      ],
      "stateMutability": "view",
      "type": "function"
    },
    {
      "inputs": [],
      "name": "toUniswapWTON",
      "outputs": [
        {
          "internalType": "uint256",
          "name": "",
          "type": "uint256"
        }
      ],
      "stateMutability": "view",
      "type": "function"
    },
    {
      "inputs": [],
      "name": "tokamakLayer2",
      "outputs": [
        {
          "internalType": "address",
          "name": "",
          "type": "address"
        }
      ],
      "stateMutability": "view",
      "type": "function"
    },
    {
      "inputs": [],
      "name": "token",
      "outputs": [
        {
          "internalType": "address",
          "name": "",
          "type": "address"
        }
      ],
      "stateMutability": "view",
      "type": "function"
    },
    {
      "inputs": [],
      "name": "ton",
      "outputs": [
        {
          "internalType": "address",
          "name": "",
          "type": "address"
        }
      ],
      "stateMutability": "view",
      "type": "function"
    },
    {
      "inputs": [],
      "name": "totalStakedAmount",
      "outputs": [
        {
          "internalType": "uint256",
          "name": "",
          "type": "uint256"
        }
      ],
      "stateMutability": "view",
      "type": "function"
    },
    {
      "inputs": [],
      "name": "totalStakers",
      "outputs": [
        {
          "internalType": "uint256",
          "name": "",
          "type": "uint256"
        }
      ],
      "stateMutability": "view",
      "type": "function"
    },
    {
      "inputs": [
        {
          "internalType": "address",
          "name": "newAdmin",
          "type": "address"
        }
      ],
      "name": "transferAdmin",
      "outputs": [],
      "stateMutability": "nonpayable",
      "type": "function"
    },
    {
      "inputs": [
        {
          "internalType": "address",
          "name": "",
          "type": "address"
        }
      ],
      "name": "userStaked",
      "outputs": [
        {
          "internalType": "uint256",
          "name": "amount",
          "type": "uint256"
        },
        {
          "internalType": "uint256",
          "name": "claimedBlock",
          "type": "uint256"
        },
        {
          "internalType": "uint256",
          "name": "claimedAmount",
          "type": "uint256"
        },
        {
          "internalType": "uint256",
          "name": "releasedBlock",
          "type": "uint256"
        },
        {
          "internalType": "uint256",
          "name": "releasedAmount",
          "type": "uint256"
        },
        {
          "internalType": "uint256",
          "name": "releasedTOSAmount",
          "type": "uint256"
        },
        {
          "internalType": "bool",
          "name": "released",
          "type": "bool"
        }
      ],
      "stateMutability": "view",
      "type": "function"
    },
    {
      "inputs": [],
      "name": "vault",
      "outputs": [
        {
          "internalType": "address",
          "name": "",
          "type": "address"
        }
      ],
      "stateMutability": "view",
      "type": "function"
    },
    {
      "inputs": [],
      "name": "version",
      "outputs": [
        {
          "internalType": "string",
          "name": "",
          "type": "string"
        }
      ],
      "stateMutability": "pure",
      "type": "function"
    },
    {
      "inputs": [],
      "name": "withdrawFlag",
      "outputs": [
        {
          "internalType": "bool",
          "name": "",
          "type": "bool"
        }
      ],
      "stateMutability": "view",
      "type": "function"
    },
    {
      "inputs": [],
      "name": "wton",
      "outputs": [
        {
          "internalType": "address",
          "name": "",
          "type": "address"
        }
      ],
      "stateMutability": "view",
      "type": "function"
    }
  ],
  "bytecode": "0x608060405234801561001057600080fd5b50612816806100206000396000f3fe608060405234801561001057600080fd5b50600436106102d75760003560e01c80637228532611610188578063a575d4de116100e4578063dac3fc3f11610092578063dac3fc3f1461056e578063e09974b914610581578063e58e274714610589578063e6a7bc8714610591578063fbfa77cf14610599578063fc0c546a146105a1578063fd7fa460146105a9576102d7565b8063a575d4de146104f7578063acc3a9391461050a578063b2d4d6a314610530578063ca15c87314610538578063cc48b9471461054b578063d539139314610553578063d547741f1461055b576102d7565b80639010d07c116101415780639010d07c1461049757806391d14854146104aa57806392ea3b4c146104bd5780639a88be2f146104c55780639d84ca35146104df578063a1f5f50e146104e7578063a217fddf146104ef576102d7565b80637228532614610443578063740fcd201461044b57806375829def1461046c57806375b238fc1461047f57806386989038146104875780638d62d9491461048f576102d7565b806341c04d5e1161023757806363a8fd89116101f057806363a8fd891461040057806368304835146104085780636c7ac9d8146104105780636e7cf534146104185780636ec4be90146104205780636fb7f558146104285780637048027514610430576102d7565b806341c04d5e146103b857806343b0934a146103c057806348cd4cb1146103c85780634e09a610146103d057806354fd4d50146103e3578063567e98f9146103f8576102d7565b806320027275116102945780632002727514610347578063248a9ca31461034f57806324d7806c14610362578063282c51f3146103825780632995fa0e1461038a5780632f2ff15d1461039257806336568abe146103a5576102d7565b806305871b78146102dc578063083c6323146102fa5780630ac8e0f3146103025780630ea3d9c91461030a5780631228cbee146103125780631785f53c14610332575b600080fd5b6102e46105b1565b6040516102f191906122ce565b60405180910390f35b6102e46105b7565b6102e46105bd565b6102e46105c3565b610325610320366004611e7e565b6105c9565b6040516102f1919061219e565b610345610340366004611e7e565b610660565b005b6102e46106bf565b6102e461035d366004611fd8565b6106c5565b610375610370366004611e7e565b6106da565b6040516102f191906122c3565b6102e46106f4565b610345610718565b6103456103a0366004611ff0565b6108a6565b6103456103b3366004611ff0565b61090d565b6102e461096e565b610325610992565b6102e46109a1565b6102e46103de366004611e7e565b6109a7565b6103eb6109c1565b6040516102f191906122d7565b6102e46109ec565b6103756109f2565b6103256109fb565b610325610a0a565b610375610a19565b610325610a22565b610325610a31565b61034561043e366004611e7e565b610a40565b6102e4610a9c565b61045e610459366004611eb6565b610aa2565b6040516102f192919061265a565b61034561047a366004611e7e565b610b92565b6102e4610cb3565b6102e4610cc5565b610325610ccb565b6103256104a5366004612014565b610cda565b6103756104b8366004611ff0565b610cfb565b610325610d13565b6104cd610d22565b6040516102f1969594939291906121ed565b610325610d78565b610375610d8c565b6102e4610d9c565b6103456105053660046120d9565b610da1565b61051d610518366004611e7e565b611736565b6040516102f19796959493929190612668565b6102e4611776565b6102e4610546366004611fd8565b61177c565b610325611793565b6102e46117a2565b610345610569366004611ff0565b6117c6565b61051d61057c366004611e7e565b61181f565b6102e4611868565b6102e461186e565b6102e4611874565b61032561187a565b610325611889565b6102e4611898565b60155481565b60065481565b60145481565b60165481565b600e54600d54604051630b4c774160e11b81526000926001600160a01b0385811693631698ee82936106089383169290911690610bb890600401612252565b60206040518083038186803b15801561062057600080fd5b505afa158015610634573d6000803e3d6000fd5b505050506040513d601f19601f820116820180604052508101906106589190611e9a565b90505b919050565b610669336106da565b6106a45760405162461bcd60e51b815260040180806020018281038252602281526020018061271f6022913960400191505060405180910390fd5b6106bc6000805160206127928339815191528261090d565b50565b60045481565b6000908152601c602052604090206002015490565b600061065860008051602061279283398151915283610cfb565b7f9667e80708b6eeeb0053fa0cca44e028ff548e2a9f029edfeac87c118b08b7c881565b600d546001600160a01b0316610819576000806000806000600160009054906101000a90046001600160a01b03166001600160a01b031663a782ebd56040518163ffffffff1660e01b815260040160a06040518083038186803b15801561077e57600080fd5b505afa158015610792573d6000803e3d6000fd5b505050506040513d601f19601f820116820180604052508101906107b69190611eee565b600d80546001600160a01b03199081166001600160a01b0397881617909155600e805482169587169590951790945560108054851693861693909317909255600f8054841691851691909117905560118054909216921691909117905550505050505b600d546001600160a01b03161580159061083d5750600e546001600160a01b031615155b80156108535750600f546001600160a01b031615155b801561086957506010546001600160a01b031615155b801561087f57506011546001600160a01b031615155b6108a45760405162461bcd60e51b815260040161089b906124d4565b60405180910390fd5b565b6000828152601c60205260409020600201546108c4906104b861189e565b6108ff5760405162461bcd60e51b815260040180806020018281038252602f8152602001806126f0602f913960400191505060405180910390fd5b61090982826118a2565b5050565b61091561189e565b6001600160a01b0316816001600160a01b0316146109645760405162461bcd60e51b815260040180806020018281038252602f8152602001806127b2602f913960400191505060405180910390fd5b610909828261190b565b7f52eafc11f6f81f86878bffd31109a0d92f37506527754f00788853ff9f63b13081565b6002546001600160a01b031681565b60055481565b60006106586001600160a01b03831680600160601b611974565b6040805180820190915260118152707068617365312e757067726164652e763360781b602082015290565b60085481565b600c5460ff1681565b6001546001600160a01b031681565b6010546001600160a01b031681565b601b5460ff1681565b6011546001600160a01b031681565b600f546001600160a01b031681565b610a49336106da565b610a845760405162461bcd60e51b815260040180806020018281038252602281526020018061271f6022913960400191505060405180910390fd5b6106bc600080516020612792833981519152826108a6565b60195481565b600080836001600160a01b031663313ce5676040518163ffffffff1660e01b815260040160206040518083038186803b158015610ade57600080fd5b505afa158015610af2573d6000803e3d6000fd5b505050506040513d601f19601f82011682018060405250810190610b1691906120c1565b836001600160a01b031663313ce5676040518163ffffffff1660e01b815260040160206040518083038186803b158015610b4f57600080fd5b505afa158015610b63573d6000803e3d6000fd5b505050506040513d601f19601f82011682018060405250810190610b8791906120c1565b915091509250929050565b610b9b336106da565b610bd65760405162461bcd60e51b815260040180806020018281038252602281526020018061271f6022913960400191505060405180910390fd5b6001600160a01b038116610c2c576040805162461bcd60e51b815260206004820152601860248201527741636365737369626c653a207a65726f206164647265737360401b604482015290519081900360640190fd5b336001600160a01b0382161415610c83576040805162461bcd60e51b815260206004820152601660248201527520b1b1b2b9b9b4b136329d1039b0b6b29030b236b4b760511b604482015290519081900360640190fd5b610c9b600080516020612792833981519152826108a6565b6106bc6000805160206127928339815191523361090d565b60008051602061279283398151915281565b600a5481565b600e546001600160a01b031681565b6000828152601c60205260408120610cf29083611a25565b90505b92915050565b6000828152601c60205260408120610cf29083611a31565b6012546001600160a01b031681565b600080610d2d611e3e565b5050600254600354604080516060810182526004548152600554602082015260065491810191909152600754600854600a546001600160a01b03958616979590941695509193909290565b600c5461010090046001600160a01b031681565b600c54600160a81b900460ff1681565b600081565b600b5415610dc15760405162461bcd60e51b815260040161089b9061234c565b6001600b5560035460408051631718ecd760e31b815290516001600160a01b039092169163b8c766b891600480820192602092909190829003018186803b158015610e0b57600080fd5b505afa158015610e1f573d6000803e3d6000fd5b505050506040513d601f19601f82011682018060405250810190610e439190611fbe565b610e5f5760405162461bcd60e51b815260040161089b90612575565b600654431115610e815760405162461bcd60e51b815260040161089b90612542565b610e89610718565b60008260ff16118015610ea05750600a8260ff1611155b610ebc5760405162461bcd60e51b815260040161089b9061250b565b6000610ec7846105c9565b90506001600160a01b038116610eef5760405162461bcd60e51b815260040161089b90612321565b600080826001600160a01b0316633850c7bd6040518163ffffffff1660e01b815260040160e06040518083038186803b158015610f2b57600080fd5b505afa158015610f3f573d6000803e3d6000fd5b505050506040513d601f19601f82011682018060405250810190610f639190612035565b5050505050915091506000826001600160a01b031611610f955760405162461bcd60e51b815260040161089b906124a3565b8360020b8160020b14610fba5760405162461bcd60e51b815260040161089b90612404565b600e546040516370a0823160e01b81528b918b918a918c916000916001600160a01b0316906370a0823190610ff390309060040161219e565b60206040518083038186803b15801561100b57600080fd5b505afa15801561101f573d6000803e3d6000fd5b505050506040513d601f19601f8201168201806040525081019061104391906120c1565b600d546040516370a0823160e01b81529192506000916001600160a01b03909116906370a082319061107990309060040161219e565b60206040518083038186803b15801561109157600080fd5b505afa1580156110a5573d6000803e3d6000fd5b505050506040513d601f19601f820116820180604052508101906110c991906120c1565b6012549091506000906001600160a01b0316156111fd57600f546012546040516367265c3b60e11b81526001600160a01b039283169263ce4cb876926111169291169030906004016121d3565b60206040518083038186803b15801561112e57600080fd5b505afa158015611142573d6000803e3d6000fd5b505050506040513d601f19601f8201168201806040525081019061116691906120c1565b601054601254604051632638fdf560e01b81529293506111fa926001600160a01b0392831692632638fdf5926111a39291169030906004016121d3565b60206040518083038186803b1580156111bb57600080fd5b505afa1580156111cf573d6000803e3d6000fd5b505050506040513d601f19601f820116820180604052508101906111f391906120c1565b8290611a46565b90505b828215611218576112156111f384633b9aca00611aa0565b90505b878110156112385760405162461bcd60e51b815260040161089b9061246e565b811561124b576112488183611a46565b90505b60085461125c90633b9aca00611aa0565b8111801561128c575087611289611282633b9aca00600854611aa090919063ffffffff16565b8390611af9565b10155b6112a85760405162461bcd60e51b815260040161089b90612437565b878410156113aa576011546040516000916112d3916001600160a01b039091169081906020016121d3565b60408051601f19818403018152919052905060006112ff633b9aca006112f98c89611af9565b90611b3b565b600d54600e5460405163cae9ca5160e01b81529293506001600160a01b039182169263cae9ca519261133992169085908790600401612293565b602060405180830381600087803b15801561135357600080fd5b505af1158015611367573d6000803e3d6000fd5b505050506040513d601f19601f8201168201806040525081019061138b9190611fbe565b6113a75760405162461bcd60e51b815260040161089b906123b1565b50505b50506015546113bc9250905085611a46565b60155560015460408051630141158f60e61b8152905160009283926001600160a01b039091169163504563c09160048082019260a092909190829003018186803b15801561140957600080fd5b505afa15801561141d573d6000803e3d6000fd5b505050506040513d601f19601f820116820180604052508101906114419190611f62565b5092945091925050506001600160a01b0382166114705760405162461bcd60e51b815260040161089b906122ea565b600e5460405163095ea7b360e01b81526001600160a01b039091169063095ea7b3906114a29085908a9060040161227a565b602060405180830381600087803b1580156114bc57600080fd5b505af11580156114d0573d6000803e3d6000fd5b505050506040513d601f19601f820116820180604052508101906114f49190611fbe565b6115105760405162461bcd60e51b815260040161089b906125a8565b6040805161010081018252600e546001600160a01b039081168252600080548216602084015262ffffff8516838501523060608401526080830187905260a083018a905260c0830189905287821660e0840152925163414bf38960e01b81529192919085169063414bf3899061158a9085906004016125f1565b602060405180830381600087803b1580156115a457600080fd5b505af11580156115b8573d6000803e3d6000fd5b505050506040513d601f19601f820116820180604052508101906115dc91906120c1565b905060006115e98b6109a7565b905060008e60ff16905060008d6001600160a01b0316633850c7bd6040518163ffffffff1660e01b815260040160e06040518083038186803b15801561162e57600080fd5b505afa158015611642573d6000803e3d6000fd5b505050506040513d601f19601f820116820180604052508101906116669190612035565b50505050505090506000611679826109a7565b905060006116946103e86112f98760c8888402048303611aa0565b905060006116af6103e86112f98860c8898402048301611aa0565b90508282111580156116c057508083105b6116dc5760405162461bcd60e51b815260040161089b9061237a565b7f6ad50db5d488c314f9077fc5c41c7d8bcdd86ddc409871512ddd009f21067d32338f8960405161170f939291906121b2565b60405180910390a150506000600b5550505050505050505050505050505050505050505050565b6009602052600090815260409020805460018201546002830154600384015460048501546005860154600690960154949593949293919290919060ff1687565b60075481565b6000818152601c6020526040812061065890611b7d565b600d546001600160a01b031681565b7ff0887ba65ee2024ea881d91b74c2450ef19e1557f03bed3ea9f16b037cbe2dc981565b6000828152601c60205260409020600201546117e4906104b861189e565b6109645760405162461bcd60e51b81526004018080602001828103825260308152602001806127416030913960400191505060405180910390fd5b6001600160a01b03166000908152600960205260409020805460018201546002830154600384015460048501546005860154600690960154949693959294919390929160ff1690565b601a5481565b60175481565b60185481565b6003546001600160a01b031681565b6000546001600160a01b031681565b60135481565b3390565b6000828152601c602052604090206118ba9082611b88565b15610909576118c761189e565b6001600160a01b0316816001600160a01b0316837f2f8788117e7eff1d82e926ec794901d17c78024a50270940304540a733656f0d60405160405180910390a45050565b6000828152601c602052604090206119239082611b9d565b156109095761193061189e565b6001600160a01b0316816001600160a01b0316837ff6391f5c32d9c69d2a47ea670b442974b53935d1edc7fd64eb21e047a839171b60405160405180910390a45050565b600080821161198257600080fd5b600080600019858709868602925082811090839003039050806119aa57508290049050611a1e565b8084116119b657600080fd5b600084868809851960019081018716968790049682860381900495909211909303600082900391909104909201919091029190911760038402600290811880860282030280860282030280860282030280860282030280860282030280860290910302029150505b9392505050565b6000610cf28383611bb2565b6000610cf2836001600160a01b038416611c16565b600082820183811015610cf2576040805162461bcd60e51b815260206004820152601b60248201527f536166654d6174683a206164646974696f6e206f766572666c6f770000000000604482015290519081900360640190fd5b600082611aaf57506000610cf5565b82820282848281611abc57fe5b0414610cf25760405162461bcd60e51b81526004018080602001828103825260218152602001806127716021913960400191505060405180910390fd5b6000610cf283836040518060400160405280601e81526020017f536166654d6174683a207375627472616374696f6e206f766572666c6f770000815250611c2e565b6000610cf283836040518060400160405280601a81526020017f536166654d6174683a206469766973696f6e206279207a65726f000000000000815250611cc5565b600061065882611d2a565b6000610cf2836001600160a01b038416611d2e565b6000610cf2836001600160a01b038416611d78565b81546000908210611bf45760405162461bcd60e51b81526004018080602001828103825260228152602001806126ce6022913960400191505060405180910390fd5b826000018281548110611c0357fe5b9060005260206000200154905092915050565b60009081526001919091016020526040902054151590565b60008184841115611cbd5760405162461bcd60e51b81526004018080602001828103825283818151815260200191508051906020019080838360005b83811015611c82578181015183820152602001611c6a565b50505050905090810190601f168015611caf5780820380516001836020036101000a031916815260200191505b509250505060405180910390fd5b505050900390565b60008183611d145760405162461bcd60e51b8152602060048201818152835160248401528351909283926044909101919085019080838360008315611c82578181015183820152602001611c6a565b506000838581611d2057fe5b0495945050505050565b5490565b6000611d3a8383611c16565b611d7057508154600181810184556000848152602080822090930184905584548482528286019093526040902091909155610cf5565b506000610cf5565b60008181526001830160205260408120548015611e345783546000198083019190810190600090879083908110611dab57fe5b9060005260206000200154905080876000018481548110611dc857fe5b600091825260208083209091019290925582815260018981019092526040902090840190558654879080611df857fe5b60019003818190600052602060002001600090559055866001016000878152602001908152602001600020600090556001945050505050610cf5565b6000915050610cf5565b60405180606001604052806003906020820280368337509192915050565b8051801515811461065b57600080fd5b805161ffff8116811461065b57600080fd5b600060208284031215611e8f578081fd5b8135610cf28161269a565b600060208284031215611eab578081fd5b8151610cf28161269a565b60008060408385031215611ec8578081fd5b8235611ed38161269a565b91506020830135611ee38161269a565b809150509250929050565b600080600080600060a08688031215611f05578081fd5b8551611f108161269a565b6020870151909550611f218161269a565b6040870151909450611f328161269a565b6060870151909350611f438161269a565b6080870151909250611f548161269a565b809150509295509295909350565b600080600080600060a08688031215611f79578081fd5b8551611f848161269a565b6020870151909550611f958161269a565b6040870151909450611fa68161269a565b606087015160808801519194509250611f548161269a565b600060208284031215611fcf578081fd5b610cf282611e5c565b600060208284031215611fe9578081fd5b5035919050565b60008060408385031215612002578182fd5b823591506020830135611ee38161269a565b60008060408385031215612026578182fd5b50508035926020909101359150565b600080600080600080600060e0888a03121561204f578182fd5b875161205a8161269a565b602089015190975061206b816126af565b955061207960408901611e6c565b945061208760608901611e6c565b935061209560808901611e6c565b925060a08801516120a5816126be565b91506120b360c08901611e5c565b905092959891949750929550565b6000602082840312156120d2578081fd5b5051919050565b600080600080600080600060e0888a0312156120f3578081fd5b87359650602088013595506040880135945060608801356121138161269a565b935060808801356121238161269a565b925060a0880135612133816126be565b915060c0880135612143816126af565b8091505092959891949750929550565b60008151808452815b818110156121785760208185018101518683018201520161215c565b818111156121895782602083870101525b50601f01601f19169290920160200192915050565b6001600160a01b0391909116815260200190565b6001600160a01b039390931683526020830191909152604082015260600190565b6001600160a01b0392831681529116602082015260400190565b6001600160a01b038781168252861660208083019190915261010082019060408301908760005b600381101561223157815184529282019290820190600101612214565b505050508460a08301528360c08301528260e0830152979650505050505050565b6001600160a01b03938416815291909216602082015262ffffff909116604082015260600190565b6001600160a01b03929092168252602082015260400190565b600060018060a01b0385168252836020830152606060408301526122ba6060830184612153565b95945050505050565b901515815260200190565b90815260200190565b600060208252610cf26020830184612153565b6020808252601a908201527f546f6b616d616b5374616b65723a756e6973776170207a65726f000000000000604082015260600190565b6020808252601190820152701c1bdbdb08191a591b89dd08195e1a5cdd607a1b604082015260600190565b602080825260149082015273151bdad85b585ad4dd185ad95c8e9313d0d2d15160621b604082015260600190565b6020808252601d908201527f6f7574206f662061636365707461626c652070726963652072616e6765000000604082015260600190565b60208082526033908201527f546f6b616d616b5374616b65723a65786368616e676557544f4e746f544f5320604082015272185c1c1c9bdd99505b9910d85b1b0819985a5b606a1b606082015260800190565b60208082526019908201527830b63932b0b23c903a34b1b5903bb0b99031b430b733b2b21760391b604082015260600190565b6020808252601a908201527f546f6b616d616b5374616b65723a696e73756666696369656e74000000000000604082015260600190565b6020808252818101527f546f6b616d616b5374616b65723a2077746f6e20696e73756666696369656e74604082015260600190565b6020808252601790820152761c1bdbdb081a5cc81b9bdd081a5b9a5d1a585b1a5e9959604a1b604082015260600190565b6020808252601a908201527f546f6b616d616b5374616b65723a746f6b616d616b207a65726f000000000000604082015260600190565b6020808252601b908201527f4974206973206e6f7420616c6c6f77656420736c6970706167652e0000000000604082015260600190565b602080825260199082015278151bdad85b585ad4dd185ad95c8e881c195c9a5bd908195b99603a1b604082015260600190565b602080825260199082015278151bdad85b585ad4dd185ad95c8e881b9bdd0818db1bdcd959603a1b604082015260600190565b60208082526029908201527f546f6b616d616b5374616b65723a63616e277420617070726f766520756e69736040820152683bb0b82937baba32b960b91b606082015260800190565b81516001600160a01b03908116825260208084015182169083015260408084015162ffffff16908301526060808401518216908301526080808401519083015260a0838101519083015260c0808401519083015260e09283015116918101919091526101000190565b918252602082015260400190565b968752602087019590955260408601939093526060850191909152608084015260a0830152151560c082015260e00190565b6001600160a01b03811681146106bc57600080fd5b8060020b81146106bc57600080fd5b60ff811681146106bc57600080fdfe456e756d657261626c655365743a20696e646578206f7574206f6620626f756e6473416363657373436f6e74726f6c3a2073656e646572206d75737420626520616e2061646d696e20746f206772616e7441636365737369626c653a2043616c6c6572206973206e6f7420616e2061646d696e416363657373436f6e74726f6c3a2073656e646572206d75737420626520616e2061646d696e20746f207265766f6b65536166654d6174683a206d756c7469706c69636174696f6e206f766572666c6f77df8b4c520ffe197c5343c6f5aec59570151ef9a492f2c624fd45ddde6135ec42416363657373436f6e74726f6c3a2063616e206f6e6c792072656e6f756e636520726f6c657320666f722073656c66a264697066735822122039d680984e0bd4b6517009f5ea123add1e934c4b8eabba7dc81e3b0dbf75d8a864736f6c63430007060033",
  "linkReferences": {},
  "deployedLinkReferences": {}
}