{
  "_format": "hh-sol-artifact-1",
  "contractName": "TokamakStakeUpgrade3",
  "sourceName": "contracts/connection/TokamakStakeUpgrade3.sol",
  "abi": [
    {
      "anonymous": false,
      "inputs": [
        {
          "indexed": false,
          "internalType": "address",
          "name": "caller",
          "type": "address"
        },
        {
          "indexed": false,
          "internalType": "uint256",
          "name": "amountIn",
          "type": "uint256"
        },
        {
          "indexed": false,
          "internalType": "uint256",
          "name": "amountOut",
          "type": "uint256"
        }
      ],
      "name": "ExchangedWTONtoTOS",
      "type": "event"
    },
    {
      "anonymous": false,
      "inputs": [
        {
          "indexed": true,
          "internalType": "bytes32",
          "name": "role",
          "type": "bytes32"
        },
        {
          "indexed": true,
          "internalType": "bytes32",
          "name": "previousAdminRole",
          "type": "bytes32"
        },
        {
          "indexed": true,
          "internalType": "bytes32",
          "name": "newAdminRole",
          "type": "bytes32"
        }
      ],
      "name": "RoleAdminChanged",
      "type": "event"
    },
    {
      "anonymous": false,
      "inputs": [
        {
          "indexed": true,
          "internalType": "bytes32",
          "name": "role",
          "type": "bytes32"
        },
        {
          "indexed": true,
          "internalType": "address",
          "name": "account",
          "type": "address"
        },
        {
          "indexed": true,
          "internalType": "address",
          "name": "sender",
          "type": "address"
        }
      ],
      "name": "RoleGranted",
      "type": "event"
    },
    {
      "anonymous": false,
      "inputs": [
        {
          "indexed": true,
          "internalType": "bytes32",
          "name": "role",
          "type": "bytes32"
        },
        {
          "indexed": true,
          "internalType": "address",
          "name": "account",
          "type": "address"
        },
        {
          "indexed": true,
          "internalType": "address",
          "name": "sender",
          "type": "address"
        }
      ],
      "name": "RoleRevoked",
      "type": "event"
    },
    {
      "inputs": [],
      "name": "ADMIN_ROLE",
      "outputs": [
        {
          "internalType": "bytes32",
          "name": "",
          "type": "bytes32"
        }
      ],
      "stateMutability": "view",
      "type": "function"
    },
    {
      "inputs": [],
      "name": "BURNER_ROLE",
      "outputs": [
        {
          "internalType": "bytes32",
          "name": "",
          "type": "bytes32"
        }
      ],
      "stateMutability": "view",
      "type": "function"
    },
    {
      "inputs": [],
      "name": "DEFAULT_ADMIN_ROLE",
      "outputs": [
        {
          "internalType": "bytes32",
          "name": "",
          "type": "bytes32"
        }
      ],
      "stateMutability": "view",
      "type": "function"
    },
    {
      "inputs": [],
      "name": "MINTER_ROLE",
      "outputs": [
        {
          "internalType": "bytes32",
          "name": "",
          "type": "bytes32"
        }
      ],
      "stateMutability": "view",
      "type": "function"
    },
    {
      "inputs": [],
      "name": "PROJECT_ADMIN_ROLE",
      "outputs": [
        {
          "internalType": "bytes32",
          "name": "",
          "type": "bytes32"
        }
      ],
      "stateMutability": "view",
      "type": "function"
    },
    {
      "inputs": [
        {
          "internalType": "address",
          "name": "account",
          "type": "address"
        }
      ],
      "name": "addAdmin",
      "outputs": [],
      "stateMutability": "nonpayable",
      "type": "function"
    },
    {
      "inputs": [],
      "name": "checkTokamak",
      "outputs": [],
      "stateMutability": "nonpayable",
      "type": "function"
    },
    {
      "inputs": [
        {
          "internalType": "address",
          "name": "factory",
          "type": "address"
        }
      ],
      "name": "currentTick",
      "outputs": [
        {
          "internalType": "uint160",
          "name": "sqrtPriceX96",
          "type": "uint160"
        },
        {
          "internalType": "int24",
          "name": "tick",
          "type": "int24"
        }
      ],
      "stateMutability": "view",
      "type": "function"
    },
    {
      "inputs": [],
      "name": "defiAddr",
      "outputs": [
        {
          "internalType": "address",
          "name": "",
          "type": "address"
        }
      ],
      "stateMutability": "view",
      "type": "function"
    },
    {
      "inputs": [],
      "name": "defiStatus",
      "outputs": [
        {
          "internalType": "uint256",
          "name": "",
          "type": "uint256"
        }
      ],
      "stateMutability": "view",
      "type": "function"
    },
    {
      "inputs": [],
      "name": "depositManager",
      "outputs": [
        {
          "internalType": "address",
          "name": "",
          "type": "address"
        }
      ],
      "stateMutability": "view",
      "type": "function"
    },
    {
      "inputs": [],
      "name": "endBlock",
      "outputs": [
        {
          "internalType": "uint256",
          "name": "",
          "type": "uint256"
        }
      ],
      "stateMutability": "view",
      "type": "function"
    },
    {
      "inputs": [
        {
          "internalType": "uint256",
          "name": "_amountIn",
          "type": "uint256"
        },
        {
          "internalType": "uint256",
          "name": "_amountOutMinimum",
          "type": "uint256"
        },
        {
          "internalType": "uint256",
          "name": "_deadline",
          "type": "uint256"
        },
        {
          "internalType": "uint160",
          "name": "_sqrtPriceLimitX96",
          "type": "uint160"
        },
        {
          "internalType": "uint8",
          "name": "slippage",
          "type": "uint8"
        },
        {
          "internalType": "int24",
          "name": "curTick",
          "type": "int24"
        }
      ],
      "name": "exchangeWTONtoTOS",
      "outputs": [],
      "stateMutability": "nonpayable",
      "type": "function"
    },
    {
      "inputs": [],
      "name": "finalBalanceTON",
      "outputs": [
        {
          "internalType": "uint256",
          "name": "",
          "type": "uint256"
        }
      ],
      "stateMutability": "view",
      "type": "function"
    },
    {
      "inputs": [],
      "name": "finalBalanceWTON",
      "outputs": [
        {
          "internalType": "uint256",
          "name": "",
          "type": "uint256"
        }
      ],
      "stateMutability": "view",
      "type": "function"
    },
    {
      "inputs": [],
      "name": "fromTokamak",
      "outputs": [
        {
          "internalType": "uint256",
          "name": "",
          "type": "uint256"
        }
      ],
      "stateMutability": "view",
      "type": "function"
    },
    {
      "inputs": [
        {
          "internalType": "address",
          "name": "token0",
          "type": "address"
        },
        {
          "internalType": "address",
          "name": "token1",
          "type": "address"
        }
      ],
      "name": "getDecimals",
      "outputs": [
        {
          "internalType": "uint256",
          "name": "token0Decimals",
          "type": "uint256"
        },
        {
          "internalType": "uint256",
          "name": "token1Decimals",
          "type": "uint256"
        }
      ],
      "stateMutability": "view",
      "type": "function"
    },
    {
      "inputs": [],
      "name": "getPoolAddress",
      "outputs": [
        {
          "internalType": "address",
          "name": "",
          "type": "address"
        }
      ],
      "stateMutability": "view",
      "type": "function"
    },
    {
      "inputs": [
        {
          "internalType": "uint160",
          "name": "sqrtPriceX96",
          "type": "uint160"
        }
      ],
      "name": "getPriceX96FromSqrtPriceX96",
      "outputs": [
        {
          "internalType": "uint256",
          "name": "priceX96",
          "type": "uint256"
        }
      ],
      "stateMutability": "pure",
      "type": "function"
    },
    {
      "inputs": [
        {
          "internalType": "bytes32",
          "name": "role",
          "type": "bytes32"
        }
      ],
      "name": "getRoleAdmin",
      "outputs": [
        {
          "internalType": "bytes32",
          "name": "",
          "type": "bytes32"
        }
      ],
      "stateMutability": "view",
      "type": "function"
    },
    {
      "inputs": [
        {
          "internalType": "bytes32",
          "name": "role",
          "type": "bytes32"
        },
        {
          "internalType": "uint256",
          "name": "index",
          "type": "uint256"
        }
      ],
      "name": "getRoleMember",
      "outputs": [
        {
          "internalType": "address",
          "name": "",
          "type": "address"
        }
      ],
      "stateMutability": "view",
      "type": "function"
    },
    {
      "inputs": [
        {
          "internalType": "bytes32",
          "name": "role",
          "type": "bytes32"
        }
      ],
      "name": "getRoleMemberCount",
      "outputs": [
        {
          "internalType": "uint256",
          "name": "",
          "type": "uint256"
        }
      ],
      "stateMutability": "view",
      "type": "function"
    },
    {
      "inputs": [
        {
          "internalType": "address",
          "name": "user",
          "type": "address"
        }
      ],
      "name": "getUserStaked",
      "outputs": [
        {
          "internalType": "uint256",
          "name": "amount",
          "type": "uint256"
        },
        {
          "internalType": "uint256",
          "name": "claimedBlock",
          "type": "uint256"
        },
        {
          "internalType": "uint256",
          "name": "claimedAmount",
          "type": "uint256"
        },
        {
          "internalType": "uint256",
          "name": "releasedBlock",
          "type": "uint256"
        },
        {
          "internalType": "uint256",
          "name": "releasedAmount",
          "type": "uint256"
        },
        {
          "internalType": "uint256",
          "name": "releasedTOSAmount",
          "type": "uint256"
        },
        {
          "internalType": "bool",
          "name": "released",
          "type": "bool"
        }
      ],
      "stateMutability": "view",
      "type": "function"
    },
    {
      "inputs": [
        {
          "internalType": "bytes32",
          "name": "role",
          "type": "bytes32"
        },
        {
          "internalType": "address",
          "name": "account",
          "type": "address"
        }
      ],
      "name": "grantRole",
      "outputs": [],
      "stateMutability": "nonpayable",
      "type": "function"
    },
    {
      "inputs": [
        {
          "internalType": "bytes32",
          "name": "role",
          "type": "bytes32"
        },
        {
          "internalType": "address",
          "name": "account",
          "type": "address"
        }
      ],
      "name": "hasRole",
      "outputs": [
        {
          "internalType": "bool",
          "name": "",
          "type": "bool"
        }
      ],
      "stateMutability": "view",
      "type": "function"
    },
    {
      "inputs": [],
      "name": "infos",
      "outputs": [
        {
          "internalType": "address",
          "name": "",
          "type": "address"
        },
        {
          "internalType": "address",
          "name": "",
          "type": "address"
        },
        {
          "internalType": "uint256[3]",
          "name": "",
          "type": "uint256[3]"
        },
        {
          "internalType": "uint256",
          "name": "",
          "type": "uint256"
        },
        {
          "internalType": "uint256",
          "name": "",
          "type": "uint256"
        },
        {
          "internalType": "uint256",
          "name": "",
          "type": "uint256"
        }
      ],
      "stateMutability": "view",
      "type": "function"
    },
    {
      "inputs": [
        {
          "internalType": "address",
          "name": "account",
          "type": "address"
        }
      ],
      "name": "isAdmin",
      "outputs": [
        {
          "internalType": "bool",
          "name": "",
          "type": "bool"
        }
      ],
      "stateMutability": "view",
      "type": "function"
    },
    {
      "inputs": [],
      "name": "migratedL2",
      "outputs": [
        {
          "internalType": "bool",
          "name": "",
          "type": "bool"
        }
      ],
      "stateMutability": "view",
      "type": "function"
    },
    {
      "inputs": [],
      "name": "pauseProxy",
      "outputs": [
        {
          "internalType": "bool",
          "name": "",
          "type": "bool"
        }
      ],
      "stateMutability": "view",
      "type": "function"
    },
    {
      "inputs": [],
      "name": "paytoken",
      "outputs": [
        {
          "internalType": "address",
          "name": "",
          "type": "address"
        }
      ],
      "stateMutability": "view",
      "type": "function"
    },
    {
      "inputs": [
        {
          "internalType": "address",
          "name": "account",
          "type": "address"
        }
      ],
      "name": "removeAdmin",
      "outputs": [],
      "stateMutability": "nonpayable",
      "type": "function"
    },
    {
      "inputs": [
        {
          "internalType": "bytes32",
          "name": "role",
          "type": "bytes32"
        },
        {
          "internalType": "address",
          "name": "account",
          "type": "address"
        }
      ],
      "name": "renounceRole",
      "outputs": [],
      "stateMutability": "nonpayable",
      "type": "function"
    },
    {
      "inputs": [],
      "name": "requestNum",
      "outputs": [
        {
          "internalType": "uint256",
          "name": "",
          "type": "uint256"
        }
      ],
      "stateMutability": "view",
      "type": "function"
    },
    {
      "inputs": [
        {
          "internalType": "bytes32",
          "name": "role",
          "type": "bytes32"
        },
        {
          "internalType": "address",
          "name": "account",
          "type": "address"
        }
      ],
      "name": "revokeRole",
      "outputs": [],
      "stateMutability": "nonpayable",
      "type": "function"
    },
    {
      "inputs": [],
      "name": "rewardClaimedTotal",
      "outputs": [
        {
          "internalType": "uint256",
          "name": "",
          "type": "uint256"
        }
      ],
      "stateMutability": "view",
      "type": "function"
    },
    {
      "inputs": [],
      "name": "saleStartBlock",
      "outputs": [
        {
          "internalType": "uint256",
          "name": "",
          "type": "uint256"
        }
      ],
      "stateMutability": "view",
      "type": "function"
    },
    {
      "inputs": [],
      "name": "seigManager",
      "outputs": [
        {
          "internalType": "address",
          "name": "",
          "type": "address"
        }
      ],
      "stateMutability": "view",
      "type": "function"
    },
    {
      "inputs": [],
      "name": "stakeRegistry",
      "outputs": [
        {
          "internalType": "address",
          "name": "",
          "type": "address"
        }
      ],
      "stateMutability": "view",
      "type": "function"
    },
    {
      "inputs": [],
      "name": "startBlock",
      "outputs": [
        {
          "internalType": "uint256",
          "name": "",
          "type": "uint256"
        }
      ],
      "stateMutability": "view",
      "type": "function"
    },
    {
      "inputs": [],
      "name": "swapProxy",
      "outputs": [
        {
          "internalType": "address",
          "name": "",
          "type": "address"
        }
      ],
      "stateMutability": "view",
      "type": "function"
    },
    {
      "inputs": [],
      "name": "swappedAmountTOS",
      "outputs": [
        {
          "internalType": "uint256",
          "name": "",
          "type": "uint256"
        }
      ],
      "stateMutability": "view",
      "type": "function"
    },
    {
      "inputs": [],
      "name": "toTokamak",
      "outputs": [
        {
          "internalType": "uint256",
          "name": "",
          "type": "uint256"
        }
      ],
      "stateMutability": "view",
      "type": "function"
    },
    {
      "inputs": [],
      "name": "toUniswapWTON",
      "outputs": [
        {
          "internalType": "uint256",
          "name": "",
          "type": "uint256"
        }
      ],
      "stateMutability": "view",
      "type": "function"
    },
    {
      "inputs": [],
      "name": "tokamakLayer2",
      "outputs": [
        {
          "internalType": "address",
          "name": "",
          "type": "address"
        }
      ],
      "stateMutability": "view",
      "type": "function"
    },
    {
      "inputs": [],
      "name": "token",
      "outputs": [
        {
          "internalType": "address",
          "name": "",
          "type": "address"
        }
      ],
      "stateMutability": "view",
      "type": "function"
    },
    {
      "inputs": [],
      "name": "ton",
      "outputs": [
        {
          "internalType": "address",
          "name": "",
          "type": "address"
        }
      ],
      "stateMutability": "view",
      "type": "function"
    },
    {
      "inputs": [],
      "name": "totalStakedAmount",
      "outputs": [
        {
          "internalType": "uint256",
          "name": "",
          "type": "uint256"
        }
      ],
      "stateMutability": "view",
      "type": "function"
    },
    {
      "inputs": [],
      "name": "totalStakers",
      "outputs": [
        {
          "internalType": "uint256",
          "name": "",
          "type": "uint256"
        }
      ],
      "stateMutability": "view",
      "type": "function"
    },
    {
      "inputs": [
        {
          "internalType": "address",
          "name": "newAdmin",
          "type": "address"
        }
      ],
      "name": "transferAdmin",
      "outputs": [],
      "stateMutability": "nonpayable",
      "type": "function"
    },
    {
      "inputs": [
        {
          "internalType": "address",
          "name": "",
          "type": "address"
        }
      ],
      "name": "userStaked",
      "outputs": [
        {
          "internalType": "uint256",
          "name": "amount",
          "type": "uint256"
        },
        {
          "internalType": "uint256",
          "name": "claimedBlock",
          "type": "uint256"
        },
        {
          "internalType": "uint256",
          "name": "claimedAmount",
          "type": "uint256"
        },
        {
          "internalType": "uint256",
          "name": "releasedBlock",
          "type": "uint256"
        },
        {
          "internalType": "uint256",
          "name": "releasedAmount",
          "type": "uint256"
        },
        {
          "internalType": "uint256",
          "name": "releasedTOSAmount",
          "type": "uint256"
        },
        {
          "internalType": "bool",
          "name": "released",
          "type": "bool"
        }
      ],
      "stateMutability": "view",
      "type": "function"
    },
    {
      "inputs": [],
      "name": "vault",
      "outputs": [
        {
          "internalType": "address",
          "name": "",
          "type": "address"
        }
      ],
      "stateMutability": "view",
      "type": "function"
    },
    {
      "inputs": [],
      "name": "version",
      "outputs": [
        {
          "internalType": "string",
          "name": "",
          "type": "string"
        }
      ],
      "stateMutability": "pure",
      "type": "function"
    },
    {
      "inputs": [],
      "name": "withdrawFlag",
      "outputs": [
        {
          "internalType": "bool",
          "name": "",
          "type": "bool"
        }
      ],
      "stateMutability": "view",
      "type": "function"
    },
    {
      "inputs": [],
      "name": "wton",
      "outputs": [
        {
          "internalType": "address",
          "name": "",
          "type": "address"
        }
      ],
      "stateMutability": "view",
      "type": "function"
    }
  ],
  "bytecode": "0x608060405234801561001057600080fd5b50612904806100206000396000f3fe608060405234801561001057600080fd5b50600436106102e25760003560e01c8063740fcd2011610188578063b2d4d6a3116100e4578063e58e274711610092578063e58e274714610581578063e6a7bc8714610589578063e8ffd56f14610591578063f586c6d9146105b2578063fbfa77cf146105ba578063fc0c546a146105c2578063fd7fa460146105ca576102e2565b8063b2d4d6a314610528578063ca15c87314610530578063cc48b94714610543578063d53913931461054b578063d547741f14610553578063dac3fc3f14610566578063e09974b914610579576102e2565b806391d148541161014157806391d14854146104b557806392ea3b4c146104c85780639a88be2f146104d05780639d84ca35146104ea578063a1f5f50e146104f2578063a217fddf146104fa578063acc3a93914610502576102e2565b8063740fcd201461045657806375829def1461047757806375b238fc1461048a57806386989038146104925780638d62d9491461049a5780639010d07c146104a2576102e2565b806341c04d5e1161024257806368304835116101f057806368304835146104135780636c7ac9d81461041b5780636e7cf534146104235780636ec4be901461042b5780636fb7f55814610433578063704802751461043b578063722853261461044e576102e2565b806341c04d5e146103b657806343b0934a146103be57806348cd4cb1146103d35780634e09a610146103db57806354fd4d50146103ee578063567e98f91461040357806363a8fd891461040b576102e2565b8063248a9ca31161029f578063248a9ca31461033a57806324d7806c1461034d578063282c51f31461036d5780632995fa0e146103755780632f2ff15d1461037d57806336568abe146103905780633e4b1708146103a3576102e2565b806305871b78146102e7578063083c6323146103055780630ac8e0f31461030d5780630ea3d9c9146103155780631785f53c1461031d5780632002727514610332575b600080fd5b6102ef6105d2565b6040516102fc91906123a0565b60405180910390f35b6102ef6105d8565b6102ef6105de565b6102ef6105e4565b61033061032b366004611f64565b6105ea565b005b6102ef610649565b6102ef6103483660046120be565b61064f565b61036061035b366004611f64565b610667565b6040516102fc9190612395565b6102ef610687565b6103306106ab565b61033061038b3660046120d6565b610839565b61033061039e3660046120d6565b6108a0565b6103306103b13660046121bf565b610901565b6102ef611294565b6103c66112b8565b6040516102fc9190612270565b6102ef6112c7565b6102ef6103e9366004611f64565b6112cd565b6103f66112e7565b6040516102fc91906123a9565b6102ef611312565b610360611318565b6103c6611321565b6103c6611330565b61036061133f565b6103c6611348565b6103c6611357565b610330610449366004611f64565b611366565b6102ef6113c2565b610469610464366004611f9c565b6113c8565b6040516102fc929190612748565b610330610485366004611f64565b6114b8565b6102ef6115d9565b6102ef6115eb565b6103c66115f1565b6103c66104b03660046120fa565b611600565b6103606104c33660046120d6565b61161f565b6103c6611637565b6104d8611646565b6040516102fc969594939291906122bf565b6103c661169c565b6103606116b0565b6102ef6116c0565b610515610510366004611f64565b6116c5565b6040516102fc9796959493929190612756565b6102ef611705565b6102ef61053e3660046120be565b61170b565b6103c6611722565b6102ef611731565b6103306105613660046120d6565b611755565b610515610574366004611f64565b6117ae565b6102ef6117f7565b6102ef6117fd565b6102ef611803565b6105a461059f366004611f64565b611809565b6040516102fc92919061272c565b6103c66118bd565b6103c6611967565b6103c6611976565b6102ef611985565b60155481565b60065481565b60145481565b60165481565b6105f333610667565b61062e5760405162461bcd60e51b815260040180806020018281038252602281526020018061280d6022913960400191505060405180910390fd5b610646600080516020612880833981519152826108a0565b50565b60045481565b6000818152601c60205260409020600201545b919050565b60006106816000805160206128808339815191528361161f565b92915050565b7f9667e80708b6eeeb0053fa0cca44e028ff548e2a9f029edfeac87c118b08b7c881565b600d546001600160a01b03166107ac576000806000806000600160009054906101000a90046001600160a01b03166001600160a01b031663a782ebd56040518163ffffffff1660e01b815260040160a06040518083038186803b15801561071157600080fd5b505afa158015610725573d6000803e3d6000fd5b505050506040513d601f19601f820116820180604052508101906107499190611fd4565b600d80546001600160a01b03199081166001600160a01b0397881617909155600e805482169587169590951790945560108054851693861693909317909255600f8054841691851691909117905560118054909216921691909117905550505050505b600d546001600160a01b0316158015906107d05750600e546001600160a01b031615155b80156107e65750600f546001600160a01b031615155b80156107fc57506010546001600160a01b031615155b801561081257506011546001600160a01b031615155b6108375760405162461bcd60e51b815260040161082e906125a6565b60405180910390fd5b565b6000828152601c6020526040902060020154610857906104c361198b565b6108925760405162461bcd60e51b815260040180806020018281038252602f8152602001806127de602f913960400191505060405180910390fd5b61089c828261198f565b5050565b6108a861198b565b6001600160a01b0316816001600160a01b0316146108f75760405162461bcd60e51b815260040180806020018281038252602f8152602001806128a0602f913960400191505060405180910390fd5b61089c82826119f8565b600b54156109215760405162461bcd60e51b815260040161082e9061241e565b6001600b5560035460408051631718ecd760e31b815290516001600160a01b039092169163b8c766b891600480820192602092909190829003018186803b15801561096b57600080fd5b505afa15801561097f573d6000803e3d6000fd5b505050506040513d601f19601f820116820180604052508101906109a391906120a4565b6109bf5760405162461bcd60e51b815260040161082e90612647565b6006544311156109e15760405162461bcd60e51b815260040161082e90612614565b6109e96106ab565b60008260ff16118015610a005750600a8260ff1611155b610a1c5760405162461bcd60e51b815260040161082e906125dd565b6000610a266118bd565b90506001600160a01b038116610a4e5760405162461bcd60e51b815260040161082e906123f3565b600080826001600160a01b0316633850c7bd6040518163ffffffff1660e01b815260040160e06040518083038186803b158015610a8a57600080fd5b505afa158015610a9e573d6000803e3d6000fd5b505050506040513d601f19601f82011682018060405250810190610ac2919061211b565b5050505050915091506000826001600160a01b031611610af45760405162461bcd60e51b815260040161082e90612575565b8360020b8160020b14610b195760405162461bcd60e51b815260040161082e906124d6565b600e546040516370a0823160e01b81528a918a9189918b916000916001600160a01b0316906370a0823190610b52903090600401612270565b60206040518083038186803b158015610b6a57600080fd5b505afa158015610b7e573d6000803e3d6000fd5b505050506040513d601f19601f82011682018060405250810190610ba291906121a7565b600d546040516370a0823160e01b81529192506000916001600160a01b03909116906370a0823190610bd8903090600401612270565b60206040518083038186803b158015610bf057600080fd5b505afa158015610c04573d6000803e3d6000fd5b505050506040513d601f19601f82011682018060405250810190610c2891906121a7565b6012549091506000906001600160a01b031615610d5c57600f546012546040516367265c3b60e11b81526001600160a01b039283169263ce4cb87692610c759291169030906004016122a5565b60206040518083038186803b158015610c8d57600080fd5b505afa158015610ca1573d6000803e3d6000fd5b505050506040513d601f19601f82011682018060405250810190610cc591906121a7565b601054601254604051632638fdf560e01b8152929350610d59926001600160a01b0392831692632638fdf592610d029291169030906004016122a5565b60206040518083038186803b158015610d1a57600080fd5b505afa158015610d2e573d6000803e3d6000fd5b505050506040513d601f19601f82011682018060405250810190610d5291906121a7565b8290611a61565b90505b828215610d7757610d74610d5284633b9aca00611abb565b90505b87811015610d975760405162461bcd60e51b815260040161082e90612540565b8115610daa57610da78183611a61565b90505b600854610dbb90633b9aca00611abb565b81118015610deb575087610de8610de1633b9aca00600854611abb90919063ffffffff16565b8390611b14565b10155b610e075760405162461bcd60e51b815260040161082e90612509565b87841015610f0957601154604051600091610e32916001600160a01b039091169081906020016122a5565b60408051601f1981840301815291905290506000610e5e633b9aca00610e588c89611b14565b90611b56565b600d54600e5460405163cae9ca5160e01b81529293506001600160a01b039182169263cae9ca5192610e9892169085908790600401612365565b602060405180830381600087803b158015610eb257600080fd5b505af1158015610ec6573d6000803e3d6000fd5b505050506040513d601f19601f82011682018060405250810190610eea91906120a4565b610f065760405162461bcd60e51b815260040161082e90612483565b50505b5050601554610f1b9250905085611a61565b60155560015460408051630141158f60e61b8152905160009283926001600160a01b039091169163504563c09160048082019260a092909190829003018186803b158015610f6857600080fd5b505afa158015610f7c573d6000803e3d6000fd5b505050506040513d601f19601f82011682018060405250810190610fa09190612048565b5092945091925050506001600160a01b038216610fcf5760405162461bcd60e51b815260040161082e906123bc565b600e5460405163095ea7b360e01b81526001600160a01b039091169063095ea7b3906110019085908a9060040161234c565b602060405180830381600087803b15801561101b57600080fd5b505af115801561102f573d6000803e3d6000fd5b505050506040513d601f19601f8201168201806040525081019061105391906120a4565b61106f5760405162461bcd60e51b815260040161082e9061267a565b6040805161010081018252600e546001600160a01b039081168252600080548216602084015262ffffff8516838501523060608401526080830187905260a083018a905260c0830189905287821660e0840152925163414bf38960e01b81529192919085169063414bf389906110e99085906004016126c3565b602060405180830381600087803b15801561110357600080fd5b505af1158015611117573d6000803e3d6000fd5b505050506040513d601f19601f8201168201806040525081019061113b91906121a7565b905060006111488b6112cd565b905060008e60ff16905060008d6001600160a01b0316633850c7bd6040518163ffffffff1660e01b815260040160e06040518083038186803b15801561118d57600080fd5b505afa1580156111a1573d6000803e3d6000fd5b505050506040513d601f19601f820116820180604052508101906111c5919061211b565b505050505050905060006111d8826112cd565b905060006111f36103e8610e588760c8888402048303611abb565b9050600061120e6103e8610e588860c8898402048301611abb565b905082821115801561121f57508083105b61123b5760405162461bcd60e51b815260040161082e9061244c565b7f6ad50db5d488c314f9077fc5c41c7d8bcdd86ddc409871512ddd009f21067d32338f8960405161126e93929190612284565b60405180910390a150506000600b55505050505050505050505050505050505050505050565b7f52eafc11f6f81f86878bffd31109a0d92f37506527754f00788853ff9f63b13081565b6002546001600160a01b031681565b60055481565b60006106816001600160a01b03831680600160601b611b98565b6040805180820190915260118152707068617365312e757067726164652e763360781b602082015290565b60085481565b600c5460ff1681565b6001546001600160a01b031681565b6010546001600160a01b031681565b601b5460ff1681565b6011546001600160a01b031681565b600f546001600160a01b031681565b61136f33610667565b6113aa5760405162461bcd60e51b815260040180806020018281038252602281526020018061280d6022913960400191505060405180910390fd5b61064660008051602061288083398151915282610839565b60195481565b600080836001600160a01b031663313ce5676040518163ffffffff1660e01b815260040160206040518083038186803b15801561140457600080fd5b505afa158015611418573d6000803e3d6000fd5b505050506040513d601f19601f8201168201806040525081019061143c91906121a7565b836001600160a01b031663313ce5676040518163ffffffff1660e01b815260040160206040518083038186803b15801561147557600080fd5b505afa158015611489573d6000803e3d6000fd5b505050506040513d601f19601f820116820180604052508101906114ad91906121a7565b915091509250929050565b6114c133610667565b6114fc5760405162461bcd60e51b815260040180806020018281038252602281526020018061280d6022913960400191505060405180910390fd5b6001600160a01b038116611552576040805162461bcd60e51b815260206004820152601860248201527741636365737369626c653a207a65726f206164647265737360401b604482015290519081900360640190fd5b336001600160a01b03821614156115a9576040805162461bcd60e51b815260206004820152601660248201527520b1b1b2b9b9b4b136329d1039b0b6b29030b236b4b760511b604482015290519081900360640190fd5b6115c160008051602061288083398151915282610839565b610646600080516020612880833981519152336108a0565b60008051602061288083398151915281565b600a5481565b600e546001600160a01b031681565b6000828152601c602052604081206116189083611c42565b9392505050565b6000828152601c602052604081206116189083611c4e565b6012546001600160a01b031681565b600080611651611f24565b5050600254600354604080516060810182526004548152600554602082015260065491810191909152600754600854600a546001600160a01b03958616979590941695509193909290565b600c5461010090046001600160a01b031681565b600c54600160a81b900460ff1681565b600081565b6009602052600090815260409020805460018201546002830154600384015460048501546005860154600690960154949593949293919290919060ff1687565b60075481565b6000818152601c6020526040812061068190611c63565b600d546001600160a01b031681565b7ff0887ba65ee2024ea881d91b74c2450ef19e1557f03bed3ea9f16b037cbe2dc981565b6000828152601c6020526040902060020154611773906104c361198b565b6108f75760405162461bcd60e51b815260040180806020018281038252603081526020018061282f6030913960400191505060405180910390fd5b6001600160a01b03166000908152600960205260409020805460018201546002830154600384015460048501546005860154600690960154949693959294919390929160ff1690565b601a5481565b60175481565b60185481565b60008060006118166118bd565b90506001600160a01b038116156118af57600080826001600160a01b0316633850c7bd6040518163ffffffff1660e01b815260040160e06040518083038186803b15801561186357600080fd5b505afa158015611877573d6000803e3d6000fd5b505050506040513d601f19601f8201168201806040525081019061189b919061211b565b509499509297506118b89650505050505050565b60008092509250505b915091565b600e5460008054604051630b4c774160e11b81529192731f98431c8ad98523631ae4a59f267346ea31f984928392631698ee8292611911926001600160a01b039182169290911690610bb890600401612324565b60206040518083038186803b15801561192957600080fd5b505afa15801561193d573d6000803e3d6000fd5b505050506040513d601f19601f820116820180604052508101906119619190611f80565b91505090565b6003546001600160a01b031681565b6000546001600160a01b031681565b60135481565b3390565b6000828152601c602052604090206119a79082611c6e565b1561089c576119b461198b565b6001600160a01b0316816001600160a01b0316837f2f8788117e7eff1d82e926ec794901d17c78024a50270940304540a733656f0d60405160405180910390a45050565b6000828152601c60205260409020611a109082611c83565b1561089c57611a1d61198b565b6001600160a01b0316816001600160a01b0316837ff6391f5c32d9c69d2a47ea670b442974b53935d1edc7fd64eb21e047a839171b60405160405180910390a45050565b600082820183811015611618576040805162461bcd60e51b815260206004820152601b60248201527f536166654d6174683a206164646974696f6e206f766572666c6f770000000000604482015290519081900360640190fd5b600082611aca57506000610681565b82820282848281611ad757fe5b04146116185760405162461bcd60e51b815260040180806020018281038252602181526020018061285f6021913960400191505060405180910390fd5b600061161883836040518060400160405280601e81526020017f536166654d6174683a207375627472616374696f6e206f766572666c6f770000815250611c98565b600061161883836040518060400160405280601a81526020017f536166654d6174683a206469766973696f6e206279207a65726f000000000000815250611d2f565b6000808211611ba657600080fd5b60008060001985870986860292508281109083900303905080611bce57508290049050611618565b808411611bda57600080fd5b600084868809600260036001881981018916988990049182028318808302840302808302840302808302840302808302840302808302840302918202909203026000889003889004909101858311909403939093029303949094049190911702949350505050565b60006116188383611d94565b6000611618836001600160a01b038416611df8565b600061068182611e10565b6000611618836001600160a01b038416611e14565b6000611618836001600160a01b038416611e5e565b60008184841115611d275760405162461bcd60e51b81526004018080602001828103825283818151815260200191508051906020019080838360005b83811015611cec578181015183820152602001611cd4565b50505050905090810190601f168015611d195780820380516001836020036101000a031916815260200191505b509250505060405180910390fd5b505050900390565b60008183611d7e5760405162461bcd60e51b8152602060048201818152835160248401528351909283926044909101919085019080838360008315611cec578181015183820152602001611cd4565b506000838581611d8a57fe5b0495945050505050565b81546000908210611dd65760405162461bcd60e51b81526004018080602001828103825260228152602001806127bc6022913960400191505060405180910390fd5b826000018281548110611de557fe5b9060005260206000200154905092915050565b60009081526001919091016020526040902054151590565b5490565b6000611e208383611df8565b611e5657508154600181810184556000848152602080822090930184905584548482528286019093526040902091909155610681565b506000610681565b60008181526001830160205260408120548015611f1a5783546000198083019190810190600090879083908110611e9157fe5b9060005260206000200154905080876000018481548110611eae57fe5b600091825260208083209091019290925582815260018981019092526040902090840190558654879080611ede57fe5b60019003818190600052602060002001600090559055866001016000878152602001908152602001600020600090556001945050505050610681565b6000915050610681565b60405180606001604052806003906020820280368337509192915050565b8051801515811461066257600080fd5b805161ffff8116811461066257600080fd5b600060208284031215611f75578081fd5b813561161881612788565b600060208284031215611f91578081fd5b815161161881612788565b60008060408385031215611fae578081fd5b8235611fb981612788565b91506020830135611fc981612788565b809150509250929050565b600080600080600060a08688031215611feb578081fd5b8551611ff681612788565b602087015190955061200781612788565b604087015190945061201881612788565b606087015190935061202981612788565b608087015190925061203a81612788565b809150509295509295909350565b600080600080600060a0868803121561205f578081fd5b855161206a81612788565b602087015190955061207b81612788565b604087015190945061208c81612788565b60608701516080880151919450925061203a81612788565b6000602082840312156120b5578081fd5b61161882611f42565b6000602082840312156120cf578081fd5b5035919050565b600080604083850312156120e8578182fd5b823591506020830135611fc981612788565b6000806040838503121561210c578182fd5b50508035926020909101359150565b600080600080600080600060e0888a031215612135578182fd5b875161214081612788565b60208901519097506121518161279d565b955061215f60408901611f52565b945061216d60608901611f52565b935061217b60808901611f52565b925060a088015161218b816127ac565b915061219960c08901611f42565b905092959891949750929550565b6000602082840312156121b8578081fd5b5051919050565b60008060008060008060c087890312156121d7578384fd5b86359550602087013594506040870135935060608701356121f781612788565b92506080870135612207816127ac565b915060a08701356122178161279d565b809150509295509295509295565b60008151808452815b8181101561224a5760208185018101518683018201520161222e565b8181111561225b5782602083870101525b50601f01601f19169290920160200192915050565b6001600160a01b0391909116815260200190565b6001600160a01b039390931683526020830191909152604082015260600190565b6001600160a01b0392831681529116602082015260400190565b6001600160a01b038781168252861660208083019190915261010082019060408301908760005b6003811015612303578151845292820192908201906001016122e6565b505050508460a08301528360c08301528260e0830152979650505050505050565b6001600160a01b03938416815291909216602082015262ffffff909116604082015260600190565b6001600160a01b03929092168252602082015260400190565b600060018060a01b03851682528360208301526060604083015261238c6060830184612225565b95945050505050565b901515815260200190565b90815260200190565b6000602082526116186020830184612225565b6020808252601a908201527f546f6b616d616b5374616b65723a756e6973776170207a65726f000000000000604082015260600190565b6020808252601190820152701c1bdbdb08191a591b89dd08195e1a5cdd607a1b604082015260600190565b602080825260149082015273151bdad85b585ad4dd185ad95c8e9313d0d2d15160621b604082015260600190565b6020808252601d908201527f6f7574206f662061636365707461626c652070726963652072616e6765000000604082015260600190565b60208082526033908201527f546f6b616d616b5374616b65723a65786368616e676557544f4e746f544f5320604082015272185c1c1c9bdd99505b9910d85b1b0819985a5b606a1b606082015260800190565b60208082526019908201527830b63932b0b23c903a34b1b5903bb0b99031b430b733b2b21760391b604082015260600190565b6020808252601a908201527f546f6b616d616b5374616b65723a696e73756666696369656e74000000000000604082015260600190565b6020808252818101527f546f6b616d616b5374616b65723a2077746f6e20696e73756666696369656e74604082015260600190565b6020808252601790820152761c1bdbdb081a5cc81b9bdd081a5b9a5d1a585b1a5e9959604a1b604082015260600190565b6020808252601a908201527f546f6b616d616b5374616b65723a746f6b616d616b207a65726f000000000000604082015260600190565b6020808252601b908201527f4974206973206e6f7420616c6c6f77656420736c6970706167652e0000000000604082015260600190565b602080825260199082015278151bdad85b585ad4dd185ad95c8e881c195c9a5bd908195b99603a1b604082015260600190565b602080825260199082015278151bdad85b585ad4dd185ad95c8e881b9bdd0818db1bdcd959603a1b604082015260600190565b60208082526029908201527f546f6b616d616b5374616b65723a63616e277420617070726f766520756e69736040820152683bb0b82937baba32b960b91b606082015260800190565b81516001600160a01b03908116825260208084015182169083015260408084015162ffffff16908301526060808401518216908301526080808401519083015260a0838101519083015260c0808401519083015260e09283015116918101919091526101000190565b6001600160a01b0392909216825260020b602082015260400190565b918252602082015260400190565b968752602087019590955260408601939093526060850191909152608084015260a0830152151560c082015260e00190565b6001600160a01b038116811461064657600080fd5b8060020b811461064657600080fd5b60ff8116811461064657600080fdfe456e756d657261626c655365743a20696e646578206f7574206f6620626f756e6473416363657373436f6e74726f6c3a2073656e646572206d75737420626520616e2061646d696e20746f206772616e7441636365737369626c653a2043616c6c6572206973206e6f7420616e2061646d696e416363657373436f6e74726f6c3a2073656e646572206d75737420626520616e2061646d696e20746f207265766f6b65536166654d6174683a206d756c7469706c69636174696f6e206f766572666c6f77df8b4c520ffe197c5343c6f5aec59570151ef9a492f2c624fd45ddde6135ec42416363657373436f6e74726f6c3a2063616e206f6e6c792072656e6f756e636520726f6c657320666f722073656c66a26469706673582212205742ed2b596a0b77ca0006410ffdcc1850a2477042bf7ad11562920e28c5367964736f6c63430007060033",
  "linkReferences": {},
  "deployedLinkReferences": {}
}