{
  "_format": "hh-sol-artifact-1",
  "contractName": "TOS",
  "sourceName": "contracts/tokens/TOS.sol",
  "abi": [
    {
      "inputs": [
        {
          "internalType": "string",
          "name": "name_",
          "type": "string"
        },
        {
          "internalType": "string",
          "name": "symbol_",
          "type": "string"
        },
        {
          "internalType": "string",
          "name": "version_",
          "type": "string"
        }
      ],
      "stateMutability": "nonpayable",
      "type": "constructor"
    },
    {
      "anonymous": false,
      "inputs": [
        {
          "indexed": true,
          "internalType": "address",
          "name": "owner",
          "type": "address"
        },
        {
          "indexed": true,
          "internalType": "address",
          "name": "spender",
          "type": "address"
        },
        {
          "indexed": false,
          "internalType": "uint256",
          "name": "value",
          "type": "uint256"
        }
      ],
      "name": "Approval",
      "type": "event"
    },
    {
      "anonymous": false,
      "inputs": [
        {
          "indexed": true,
          "internalType": "bytes32",
          "name": "role",
          "type": "bytes32"
        },
        {
          "indexed": true,
          "internalType": "bytes32",
          "name": "previousAdminRole",
          "type": "bytes32"
        },
        {
          "indexed": true,
          "internalType": "bytes32",
          "name": "newAdminRole",
          "type": "bytes32"
        }
      ],
      "name": "RoleAdminChanged",
      "type": "event"
    },
    {
      "anonymous": false,
      "inputs": [
        {
          "indexed": true,
          "internalType": "bytes32",
          "name": "role",
          "type": "bytes32"
        },
        {
          "indexed": true,
          "internalType": "address",
          "name": "account",
          "type": "address"
        },
        {
          "indexed": true,
          "internalType": "address",
          "name": "sender",
          "type": "address"
        }
      ],
      "name": "RoleGranted",
      "type": "event"
    },
    {
      "anonymous": false,
      "inputs": [
        {
          "indexed": true,
          "internalType": "bytes32",
          "name": "role",
          "type": "bytes32"
        },
        {
          "indexed": true,
          "internalType": "address",
          "name": "account",
          "type": "address"
        },
        {
          "indexed": true,
          "internalType": "address",
          "name": "sender",
          "type": "address"
        }
      ],
      "name": "RoleRevoked",
      "type": "event"
    },
    {
      "anonymous": false,
      "inputs": [
        {
          "indexed": true,
          "internalType": "address",
          "name": "from",
          "type": "address"
        },
        {
          "indexed": true,
          "internalType": "address",
          "name": "to",
          "type": "address"
        },
        {
          "indexed": false,
          "internalType": "uint256",
          "name": "value",
          "type": "uint256"
        }
      ],
      "name": "Transfer",
      "type": "event"
    },
    {
      "inputs": [],
      "name": "ADMIN_ROLE",
      "outputs": [
        {
          "internalType": "bytes32",
          "name": "",
          "type": "bytes32"
        }
      ],
      "stateMutability": "view",
      "type": "function"
    },
    {
      "inputs": [],
      "name": "BURNER_ROLE",
      "outputs": [
        {
          "internalType": "bytes32",
          "name": "",
          "type": "bytes32"
        }
      ],
      "stateMutability": "view",
      "type": "function"
    },
    {
      "inputs": [],
      "name": "DEFAULT_ADMIN_ROLE",
      "outputs": [
        {
          "internalType": "bytes32",
          "name": "",
          "type": "bytes32"
        }
      ],
      "stateMutability": "view",
      "type": "function"
    },
    {
      "inputs": [],
      "name": "DOMAIN_SEPARATOR",
      "outputs": [
        {
          "internalType": "bytes32",
          "name": "",
          "type": "bytes32"
        }
      ],
      "stateMutability": "view",
      "type": "function"
    },
    {
      "inputs": [],
      "name": "MINTER_ROLE",
      "outputs": [
        {
          "internalType": "bytes32",
          "name": "",
          "type": "bytes32"
        }
      ],
      "stateMutability": "view",
      "type": "function"
    },
    {
      "inputs": [],
      "name": "PERMIT_TYPEHASH",
      "outputs": [
        {
          "internalType": "bytes32",
          "name": "",
          "type": "bytes32"
        }
      ],
      "stateMutability": "view",
      "type": "function"
    },
    {
      "inputs": [
        {
          "internalType": "address",
          "name": "account",
          "type": "address"
        }
      ],
      "name": "addAdmin",
      "outputs": [],
      "stateMutability": "nonpayable",
      "type": "function"
    },
    {
      "inputs": [
        {
          "internalType": "address",
          "name": "account",
          "type": "address"
        }
      ],
      "name": "addBurner",
      "outputs": [],
      "stateMutability": "nonpayable",
      "type": "function"
    },
    {
      "inputs": [
        {
          "internalType": "address",
          "name": "account",
          "type": "address"
        }
      ],
      "name": "addMinter",
      "outputs": [],
      "stateMutability": "nonpayable",
      "type": "function"
    },
    {
      "inputs": [
        {
          "internalType": "address",
          "name": "owner",
          "type": "address"
        },
        {
          "internalType": "address",
          "name": "spender",
          "type": "address"
        }
      ],
      "name": "allowance",
      "outputs": [
        {
          "internalType": "uint256",
          "name": "",
          "type": "uint256"
        }
      ],
      "stateMutability": "view",
      "type": "function"
    },
    {
      "inputs": [
        {
          "internalType": "address",
          "name": "spender",
          "type": "address"
        },
        {
          "internalType": "uint256",
          "name": "amount",
          "type": "uint256"
        }
      ],
      "name": "approve",
      "outputs": [
        {
          "internalType": "bool",
          "name": "",
          "type": "bool"
        }
      ],
      "stateMutability": "nonpayable",
      "type": "function"
    },
    {
      "inputs": [
        {
          "internalType": "address",
          "name": "account",
          "type": "address"
        }
      ],
      "name": "balanceOf",
      "outputs": [
        {
          "internalType": "uint256",
          "name": "",
          "type": "uint256"
        }
      ],
      "stateMutability": "view",
      "type": "function"
    },
    {
      "inputs": [
        {
          "internalType": "address",
          "name": "from",
          "type": "address"
        },
        {
          "internalType": "uint256",
          "name": "amount",
          "type": "uint256"
        }
      ],
      "name": "burn",
      "outputs": [
        {
          "internalType": "bool",
          "name": "",
          "type": "bool"
        }
      ],
      "stateMutability": "nonpayable",
      "type": "function"
    },
    {
      "inputs": [],
      "name": "decimals",
      "outputs": [
        {
          "internalType": "uint8",
          "name": "",
          "type": "uint8"
        }
      ],
      "stateMutability": "view",
      "type": "function"
    },
    {
      "inputs": [
        {
          "internalType": "address",
          "name": "spender",
          "type": "address"
        },
        {
          "internalType": "uint256",
          "name": "subtractedValue",
          "type": "uint256"
        }
      ],
      "name": "decreaseAllowance",
      "outputs": [
        {
          "internalType": "bool",
          "name": "",
          "type": "bool"
        }
      ],
      "stateMutability": "nonpayable",
      "type": "function"
    },
    {
      "inputs": [
        {
          "internalType": "bytes32",
          "name": "role",
          "type": "bytes32"
        }
      ],
      "name": "getRoleAdmin",
      "outputs": [
        {
          "internalType": "bytes32",
          "name": "",
          "type": "bytes32"
        }
      ],
      "stateMutability": "view",
      "type": "function"
    },
    {
      "inputs": [
        {
          "internalType": "bytes32",
          "name": "role",
          "type": "bytes32"
        },
        {
          "internalType": "uint256",
          "name": "index",
          "type": "uint256"
        }
      ],
      "name": "getRoleMember",
      "outputs": [
        {
          "internalType": "address",
          "name": "",
          "type": "address"
        }
      ],
      "stateMutability": "view",
      "type": "function"
    },
    {
      "inputs": [
        {
          "internalType": "bytes32",
          "name": "role",
          "type": "bytes32"
        }
      ],
      "name": "getRoleMemberCount",
      "outputs": [
        {
          "internalType": "uint256",
          "name": "",
          "type": "uint256"
        }
      ],
      "stateMutability": "view",
      "type": "function"
    },
    {
      "inputs": [
        {
          "internalType": "bytes32",
          "name": "role",
          "type": "bytes32"
        },
        {
          "internalType": "address",
          "name": "account",
          "type": "address"
        }
      ],
      "name": "grantRole",
      "outputs": [],
      "stateMutability": "nonpayable",
      "type": "function"
    },
    {
      "inputs": [
        {
          "internalType": "bytes32",
          "name": "role",
          "type": "bytes32"
        },
        {
          "internalType": "address",
          "name": "account",
          "type": "address"
        }
      ],
      "name": "hasRole",
      "outputs": [
        {
          "internalType": "bool",
          "name": "",
          "type": "bool"
        }
      ],
      "stateMutability": "view",
      "type": "function"
    },
    {
      "inputs": [
        {
          "internalType": "address",
          "name": "owner",
          "type": "address"
        },
        {
          "internalType": "address",
          "name": "spender",
          "type": "address"
        },
        {
          "internalType": "uint256",
          "name": "value",
          "type": "uint256"
        },
        {
          "internalType": "uint256",
          "name": "deadline",
          "type": "uint256"
        },
        {
          "internalType": "uint256",
          "name": "_nounce",
          "type": "uint256"
        }
      ],
      "name": "hashPermit",
      "outputs": [
        {
          "internalType": "bytes32",
          "name": "",
          "type": "bytes32"
        }
      ],
      "stateMutability": "view",
      "type": "function"
    },
    {
      "inputs": [
        {
          "internalType": "address",
          "name": "spender",
          "type": "address"
        },
        {
          "internalType": "uint256",
          "name": "addedValue",
          "type": "uint256"
        }
      ],
      "name": "increaseAllowance",
      "outputs": [
        {
          "internalType": "bool",
          "name": "",
          "type": "bool"
        }
      ],
      "stateMutability": "nonpayable",
      "type": "function"
    },
    {
      "inputs": [
        {
          "internalType": "address",
          "name": "account",
          "type": "address"
        }
      ],
      "name": "isAdmin",
      "outputs": [
        {
          "internalType": "bool",
          "name": "",
          "type": "bool"
        }
      ],
      "stateMutability": "view",
      "type": "function"
    },
    {
      "inputs": [
        {
          "internalType": "address",
          "name": "account",
          "type": "address"
        }
      ],
      "name": "isBurner",
      "outputs": [
        {
          "internalType": "bool",
          "name": "",
          "type": "bool"
        }
      ],
      "stateMutability": "view",
      "type": "function"
    },
    {
      "inputs": [
        {
          "internalType": "address",
          "name": "account",
          "type": "address"
        }
      ],
      "name": "isMinter",
      "outputs": [
        {
          "internalType": "bool",
          "name": "",
          "type": "bool"
        }
      ],
      "stateMutability": "view",
      "type": "function"
    },
    {
      "inputs": [
        {
          "internalType": "address",
          "name": "to",
          "type": "address"
        },
        {
          "internalType": "uint256",
          "name": "amount",
          "type": "uint256"
        }
      ],
      "name": "mint",
      "outputs": [
        {
          "internalType": "bool",
          "name": "",
          "type": "bool"
        }
      ],
      "stateMutability": "nonpayable",
      "type": "function"
    },
    {
      "inputs": [],
      "name": "name",
      "outputs": [
        {
          "internalType": "string",
          "name": "",
          "type": "string"
        }
      ],
      "stateMutability": "view",
      "type": "function"
    },
    {
      "inputs": [
        {
          "internalType": "address",
          "name": "",
          "type": "address"
        }
      ],
      "name": "nonces",
      "outputs": [
        {
          "internalType": "uint256",
          "name": "",
          "type": "uint256"
        }
      ],
      "stateMutability": "view",
      "type": "function"
    },
    {
      "inputs": [
        {
          "internalType": "address",
          "name": "owner",
          "type": "address"
        },
        {
          "internalType": "address",
          "name": "spender",
          "type": "address"
        },
        {
          "internalType": "uint256",
          "name": "value",
          "type": "uint256"
        },
        {
          "internalType": "uint256",
          "name": "deadline",
          "type": "uint256"
        },
        {
          "internalType": "uint8",
          "name": "v",
          "type": "uint8"
        },
        {
          "internalType": "bytes32",
          "name": "r",
          "type": "bytes32"
        },
        {
          "internalType": "bytes32",
          "name": "s",
          "type": "bytes32"
        }
      ],
      "name": "permit",
      "outputs": [],
      "stateMutability": "nonpayable",
      "type": "function"
    },
    {
      "inputs": [
        {
          "internalType": "address",
          "name": "account",
          "type": "address"
        }
      ],
      "name": "removeAdmin",
      "outputs": [],
      "stateMutability": "nonpayable",
      "type": "function"
    },
    {
      "inputs": [
        {
          "internalType": "address",
          "name": "account",
          "type": "address"
        }
      ],
      "name": "removeBurner",
      "outputs": [],
      "stateMutability": "nonpayable",
      "type": "function"
    },
    {
      "inputs": [
        {
          "internalType": "address",
          "name": "account",
          "type": "address"
        }
      ],
      "name": "removeMinter",
      "outputs": [],
      "stateMutability": "nonpayable",
      "type": "function"
    },
    {
      "inputs": [
        {
          "internalType": "bytes32",
          "name": "role",
          "type": "bytes32"
        },
        {
          "internalType": "address",
          "name": "account",
          "type": "address"
        }
      ],
      "name": "renounceRole",
      "outputs": [],
      "stateMutability": "nonpayable",
      "type": "function"
    },
    {
      "inputs": [
        {
          "internalType": "bytes32",
          "name": "role",
          "type": "bytes32"
        },
        {
          "internalType": "address",
          "name": "account",
          "type": "address"
        }
      ],
      "name": "revokeRole",
      "outputs": [],
      "stateMutability": "nonpayable",
      "type": "function"
    },
    {
      "inputs": [],
      "name": "symbol",
      "outputs": [
        {
          "internalType": "string",
          "name": "",
          "type": "string"
        }
      ],
      "stateMutability": "view",
      "type": "function"
    },
    {
      "inputs": [],
      "name": "totalSupply",
      "outputs": [
        {
          "internalType": "uint256",
          "name": "",
          "type": "uint256"
        }
      ],
      "stateMutability": "view",
      "type": "function"
    },
    {
      "inputs": [
        {
          "internalType": "address",
          "name": "recipient",
          "type": "address"
        },
        {
          "internalType": "uint256",
          "name": "amount",
          "type": "uint256"
        }
      ],
      "name": "transfer",
      "outputs": [
        {
          "internalType": "bool",
          "name": "",
          "type": "bool"
        }
      ],
      "stateMutability": "nonpayable",
      "type": "function"
    },
    {
      "inputs": [
        {
          "internalType": "address",
          "name": "newAdmin",
          "type": "address"
        }
      ],
      "name": "transferAdmin",
      "outputs": [],
      "stateMutability": "nonpayable",
      "type": "function"
    },
    {
      "inputs": [
        {
          "internalType": "address",
          "name": "sender",
          "type": "address"
        },
        {
          "internalType": "address",
          "name": "recipient",
          "type": "address"
        },
        {
          "internalType": "uint256",
          "name": "amount",
          "type": "uint256"
        }
      ],
      "name": "transferFrom",
      "outputs": [
        {
          "internalType": "bool",
          "name": "",
          "type": "bool"
        }
      ],
      "stateMutability": "nonpayable",
      "type": "function"
    },
    {
      "inputs": [
        {
          "internalType": "address",
          "name": "owner",
          "type": "address"
        },
        {
          "internalType": "address",
          "name": "spender",
          "type": "address"
        },
        {
          "internalType": "uint256",
          "name": "value",
          "type": "uint256"
        },
        {
          "internalType": "uint256",
          "name": "deadline",
          "type": "uint256"
        },
        {
          "internalType": "uint256",
          "name": "_nounce",
          "type": "uint256"
        },
        {
          "internalType": "bytes32",
          "name": "sigR",
          "type": "bytes32"
        },
        {
          "internalType": "bytes32",
          "name": "sigS",
          "type": "bytes32"
        },
        {
          "internalType": "uint8",
          "name": "sigV",
          "type": "uint8"
        }
      ],
      "name": "verify",
      "outputs": [
        {
          "internalType": "bool",
          "name": "",
          "type": "bool"
        }
      ],
      "stateMutability": "view",
      "type": "function"
    }
  ],
  "bytecode": "0x60806040523480156200001157600080fd5b506040516200290f3803806200290f833981810160405260608110156200003757600080fd5b81019080805160405193929190846401000000008211156200005857600080fd5b9083019060208201858111156200006e57600080fd5b82516401000000008111828201881017156200008957600080fd5b82525081516020918201929091019080838360005b83811015620000b85781810151838201526020016200009e565b50505050905090810190601f168015620000e65780820380516001836020036101000a031916815260200191505b50604052602001805160405193929190846401000000008211156200010a57600080fd5b9083019060208201858111156200012057600080fd5b82516401000000008111828201881017156200013b57600080fd5b82525081516020918201929091019080838360005b838110156200016a57818101518382015260200162000150565b50505050905090810190601f168015620001985780820380516001836020036101000a031916815260200191505b5060405260200180516040519392919084640100000000821115620001bc57600080fd5b908301906020820185811115620001d257600080fd5b8251640100000000811182820188101715620001ed57600080fd5b82525081516020918201929091019080838360005b838110156200021c57818101518382015260200162000202565b50505050905090810190601f1680156200024a5780820380516001836020036101000a031916815260200191505b506040525050835184915083906200026a9060039060208501906200055b565b508051620002809060049060208401906200055b565b50506005805460ff19166012179055508251602080850191909120825183830120604080517f8b73c3c69bb8fe3d512ecc4cf759cc79239f7b179b0ffacaa9a75d522b39400f8186015280820193909352606083019190915246608083018190523060a0808501919091528251808503909101815260c09093019091528151919092012060075562000322600080516020620028ef83398151915280620003f3565b6200035d7f9667e80708b6eeeb0053fa0cca44e028ff548e2a9f029edfeac87c118b08b7c8600080516020620028ef833981519152620003f3565b62000387600080516020620028cf833981519152600080516020620028ef833981519152620003f3565b620003a2600080516020620028ef8339815191523362000445565b620003ce7f9667e80708b6eeeb0053fa0cca44e028ff548e2a9f029edfeac87c118b08b7c83362000445565b620003e9600080516020620028cf8339815191523362000445565b5050505062000607565b600082815260066020526040808220600201549051839285917fbd79b86ffe0ab8e8776151514217cd7cacd52c909f66475c3af44e129f0b00ff9190a460009182526006602052604090912060020155565b62000451828262000455565b5050565b60008281526006602090815260409091206200047c918390620016e7620004d0821b17901c565b1562000451576200048c620004f0565b6001600160a01b0316816001600160a01b0316837f2f8788117e7eff1d82e926ec794901d17c78024a50270940304540a733656f0d60405160405180910390a45050565b6000620004e7836001600160a01b038416620004f4565b90505b92915050565b3390565b600062000502838362000543565b6200053a57508154600181810184556000848152602080822090930184905584548482528286019093526040902091909155620004ea565b506000620004ea565b60009081526001919091016020526040902054151590565b828054600181600116156101000203166002900490600052602060002090601f016020900481019282620005935760008555620005de565b82601f10620005ae57805160ff1916838001178555620005de565b82800160010185558215620005de579182015b82811115620005de578251825591602001919060010190620005c1565b50620005ec929150620005f0565b5090565b5b80821115620005ec5760008155600101620005f1565b6122b880620006176000396000f3fe608060405234801561001057600080fd5b50600436106102c85760003560e01c806370a082311161017b578063a457c2d7116100d8578063d53913931161008c578063dcdd8a0411610071578063dcdd8a0414610883578063dd62ed3e146108c5578063f44637ba146108f3576102c8565b8063d53913931461084f578063d547741f14610857576102c8565b8063aa271e1a116100bd578063aa271e1a146107bb578063ca15c873146107e1578063d505accf146107fe576102c8565b8063a457c2d714610763578063a9059cbb1461078f576102c8565b806391d148541161012f578063983b2d5611610114578063983b2d56146107095780639dc29fac1461072f578063a217fddf1461075b576102c8565b806391d14854146106d557806395d89b4114610701576102c8565b806375b238fc1161016057806375b238fc146106685780637ecebe00146106705780639010d07c14610696576102c8565b806370a082311461061c57806375829def14610642576102c8565b80633092afd51161022957806339509351116101dd5780634334614a116101c25780634334614a146105775780635025d1dd1461059d57806370480275146105f6576102c8565b8063395093511461051f57806340c10f191461054b576102c8565b8063313ce5671161020e578063313ce567146104cd5780633644e515146104eb57806336568abe146104f3576102c8565b80633092afd51461049f57806330adf81f146104c5576102c8565b806323b872dd1161028057806324d7806c1161026557806324d7806c14610445578063282c51f31461046b5780632f2ff15d14610473576102c8565b806323b872dd146103f2578063248a9ca314610428576102c8565b8063095ea7b3116102b1578063095ea7b3146103725780631785f53c146103b257806318160ddd146103d8576102c8565b806302846858146102cd57806306fdde03146102f5575b600080fd5b6102f3600480360360208110156102e357600080fd5b50356001600160a01b0316610919565b005b6102fd61098a565b6040805160208082528351818301528351919283929083019185019080838360005b8381101561033757818101518382015260200161031f565b50505050905090810190601f1680156103645780820380516001836020036101000a031916815260200191505b509250505060405180910390f35b61039e6004803603604081101561038857600080fd5b506001600160a01b038135169060200135610a20565b604080519115158252519081900360200190f35b6102f3600480360360208110156103c857600080fd5b50356001600160a01b0316610a3e565b6103e0610aac565b60408051918252519081900360200190f35b61039e6004803603606081101561040857600080fd5b506001600160a01b03813581169160208101359091169060400135610ab2565b6103e06004803603602081101561043e57600080fd5b5035610b39565b61039e6004803603602081101561045b57600080fd5b50356001600160a01b0316610b4e565b6103e0610b7a565b6102f36004803603604081101561048957600080fd5b50803590602001356001600160a01b0316610b9e565b6102f3600480360360208110156104b557600080fd5b50356001600160a01b0316610c0a565b6103e0610c78565b6104d5610c9c565b6040805160ff9092168252519081900360200190f35b6103e0610ca5565b6102f36004803603604081101561050957600080fd5b50803590602001356001600160a01b0316610cab565b61039e6004803603604081101561053557600080fd5b506001600160a01b038135169060200135610d0c565b61039e6004803603604081101561056157600080fd5b506001600160a01b038135169060200135610d5a565b61039e6004803603602081101561058d57600080fd5b50356001600160a01b0316610daa565b61039e60048036036101008110156105b457600080fd5b5080356001600160a01b039081169160208101359091169060408101359060608101359060808101359060a08101359060c08101359060e0013560ff16610dd6565b6102f36004803603602081101561060c57600080fd5b50356001600160a01b0316610e6a565b6103e06004803603602081101561063257600080fd5b50356001600160a01b0316610ed8565b6102f36004803603602081101561065857600080fd5b50356001600160a01b0316610ef3565b6103e0611044565b6103e06004803603602081101561068657600080fd5b50356001600160a01b0316611068565b6106b9600480360360408110156106ac57600080fd5b508035906020013561107a565b604080516001600160a01b039092168252519081900360200190f35b61039e600480360360408110156106eb57600080fd5b50803590602001356001600160a01b0316611099565b6102fd6110b1565b6102f36004803603602081101561071f57600080fd5b50356001600160a01b0316611112565b61039e6004803603604081101561074557600080fd5b506001600160a01b038135169060200135611180565b6103e06111d0565b61039e6004803603604081101561077957600080fd5b506001600160a01b0381351690602001356111d5565b61039e600480360360408110156107a557600080fd5b506001600160a01b03813516906020013561123d565b61039e600480360360208110156107d157600080fd5b50356001600160a01b0316611251565b6103e0600480360360208110156107f757600080fd5b503561127d565b6102f3600480360360e081101561081457600080fd5b506001600160a01b03813581169160208101359091169060408101359060608101359060ff6080820135169060a08101359060c00135611294565b6103e0611503565b6102f36004803603604081101561086d57600080fd5b50803590602001356001600160a01b0316611527565b6103e0600480360360a081101561089957600080fd5b506001600160a01b03813581169160208101359091169060408101359060608101359060800135611580565b6103e0600480360360408110156108db57600080fd5b506001600160a01b038135811691602001351661164e565b6102f36004803603602081101561090957600080fd5b50356001600160a01b0316611679565b61092233610b4e565b61095d5760405162461bcd60e51b81526004018080602001828103825260228152602001806120cd6022913960400191505060405180910390fd5b6109877f9667e80708b6eeeb0053fa0cca44e028ff548e2a9f029edfeac87c118b08b7c882611527565b50565b60038054604080516020601f6002600019610100600188161502019095169490940493840181900481028201810190925282815260609390929091830182828015610a165780601f106109eb57610100808354040283529160200191610a16565b820191906000526020600020905b8154815290600101906020018083116109f957829003601f168201915b5050505050905090565b6000610a34610a2d6116fc565b8484611700565b5060015b92915050565b610a4733610b4e565b610a825760405162461bcd60e51b81526004018080602001828103825260228152602001806120cd6022913960400191505060405180910390fd5b6109877fdf8b4c520ffe197c5343c6f5aec59570151ef9a492f2c624fd45ddde6135ec4282610cab565b60025490565b6000610abf8484846117ec565b610b2f84610acb6116fc565b610b2a85604051806060016040528060288152602001612171602891396001600160a01b038a16600090815260016020526040812090610b096116fc565b6001600160a01b031681526020810191909152604001600020549190611947565b611700565b5060019392505050565b60009081526006602052604090206002015490565b6000610a387fdf8b4c520ffe197c5343c6f5aec59570151ef9a492f2c624fd45ddde6135ec4283611099565b7f9667e80708b6eeeb0053fa0cca44e028ff548e2a9f029edfeac87c118b08b7c881565b600082815260066020526040902060020154610bc190610bbc6116fc565b611099565b610bfc5760405162461bcd60e51b815260040180806020018281038252602f81526020018061205a602f913960400191505060405180910390fd5b610c0682826119de565b5050565b610c1333610b4e565b610c4e5760405162461bcd60e51b81526004018080602001828103825260228152602001806120cd6022913960400191505060405180910390fd5b6109877ff0887ba65ee2024ea881d91b74c2450ef19e1557f03bed3ea9f16b037cbe2dc982611527565b7f6e71edae12b1b97f4d1f60370fef10105fa2faae0126114a169c64845d6126c981565b60055460ff1690565b60075481565b610cb36116fc565b6001600160a01b0316816001600160a01b031614610d025760405162461bcd60e51b815260040180806020018281038252602f815260200180612254602f913960400191505060405180910390fd5b610c068282611a47565b6000610a34610d196116fc565b84610b2a8560016000610d2a6116fc565b6001600160a01b03908116825260208083019390935260409182016000908120918c168152925290205490611ab0565b6000610d6533611251565b610da05760405162461bcd60e51b815260040180806020018281038252602c815260200180612203602c913960400191505060405180910390fd5b610a348383611b0a565b6000610a387f9667e80708b6eeeb0053fa0cca44e028ff548e2a9f029edfeac87c118b08b7c883611099565b60006001610de78a8a8a8a8a611580565b83868660405160008152602001604052604051808581526020018460ff1681526020018381526020018281526020019450505050506020604051602081039080840390855afa158015610e3e573d6000803e3d6000fd5b505050602060405103516001600160a01b0316896001600160a01b031614905098975050505050505050565b610e7333610b4e565b610eae5760405162461bcd60e51b81526004018080602001828103825260228152602001806120cd6022913960400191505060405180910390fd5b6109877fdf8b4c520ffe197c5343c6f5aec59570151ef9a492f2c624fd45ddde6135ec4282610b9e565b6001600160a01b031660009081526020819052604090205490565b610efc33610b4e565b610f375760405162461bcd60e51b81526004018080602001828103825260228152602001806120cd6022913960400191505060405180910390fd5b6001600160a01b038116610f92576040805162461bcd60e51b815260206004820152601860248201527f41636365737369626c653a207a65726f20616464726573730000000000000000604482015290519081900360640190fd5b336001600160a01b0382161415610ff0576040805162461bcd60e51b815260206004820152601660248201527f41636365737369626c653a2073616d652061646d696e00000000000000000000604482015290519081900360640190fd5b61101a7fdf8b4c520ffe197c5343c6f5aec59570151ef9a492f2c624fd45ddde6135ec4282610b9e565b6109877fdf8b4c520ffe197c5343c6f5aec59570151ef9a492f2c624fd45ddde6135ec4233610cab565b7fdf8b4c520ffe197c5343c6f5aec59570151ef9a492f2c624fd45ddde6135ec4281565b60086020526000908152604090205481565b60008281526006602052604081206110929083611bfa565b9392505050565b60008281526006602052604081206110929083611c06565b60048054604080516020601f6002600019610100600188161502019095169490940493840181900481028201810190925282815260609390929091830182828015610a165780601f106109eb57610100808354040283529160200191610a16565b61111b33610b4e565b6111565760405162461bcd60e51b81526004018080602001828103825260228152602001806120cd6022913960400191505060405180910390fd5b6109877ff0887ba65ee2024ea881d91b74c2450ef19e1557f03bed3ea9f16b037cbe2dc982610b9e565b600061118b33610daa565b6111c65760405162461bcd60e51b815260040180806020018281038252602c815260200180612115602c913960400191505060405180910390fd5b610a348383611c1b565b600081565b6000610a346111e26116fc565b84610b2a8560405180606001604052806025815260200161222f602591396001600061120c6116fc565b6001600160a01b03908116825260208083019390935260409182016000908120918d16815292529020549190611947565b6000610a3461124a6116fc565b84846117ec565b6000610a387ff0887ba65ee2024ea881d91b74c2450ef19e1557f03bed3ea9f16b037cbe2dc983611099565b6000818152600660205260408120610a3890611d17565b428410156112e9576040805162461bcd60e51b815260206004820152601360248201527f544f533a207065726d6974204558504952454400000000000000000000000000604482015290519081900360640190fd5b6001600160a01b038716600090815260086020526040812080546001810190915561131b908990899089908990611580565b9050866001600160a01b0316886001600160a01b03161415611384576040805162461bcd60e51b815260206004820152601e60248201527f544f533a20617070726f76616c20746f2063757272656e74206f776e65720000604482015290519081900360640190fd5b600060018286868660405160008152602001604052604051808581526020018460ff1681526020018381526020018281526020019450505050506020604051602081039080840390855afa1580156113e0573d6000803e3d6000fd5b5050604051601f1901519150506001600160a01b038116611448576040805162461bcd60e51b815260206004820152601660248201527f544f533a20496e76616c6964207369676e617475726500000000000000000000604482015290519081900360640190fd5b6114876040518060400160405280600b81526020017f616464726573733a20257300000000000000000000000000000000000000000081525082611d22565b886001600160a01b0316816001600160a01b0316146114ed576040805162461bcd60e51b815260206004820152601160248201527f544f533a20556e617574686f72697a6564000000000000000000000000000000604482015290519081900360640190fd5b6114f8898989611700565b505050505050505050565b7ff0887ba65ee2024ea881d91b74c2450ef19e1557f03bed3ea9f16b037cbe2dc981565b60008281526006602052604090206002015461154590610bbc6116fc565b610d025760405162461bcd60e51b81526004018080602001828103825260308152602001806121416030913960400191505060405180910390fd5b600754604080517f6e71edae12b1b97f4d1f60370fef10105fa2faae0126114a169c64845d6126c96020808301919091526001600160a01b03808a1683850152881660608301526080820187905260a0820185905260c08083018790528351808403909101815260e0830184528051908201207f19010000000000000000000000000000000000000000000000000000000000006101008401526101028301949094526101228083019490945282518083039094018452610142909101909152815191012095945050505050565b6001600160a01b03918216600090815260016020908152604080832093909416825291909152205490565b61168233610b4e565b6116bd5760405162461bcd60e51b81526004018080602001828103825260228152602001806120cd6022913960400191505060405180910390fd5b6109877f9667e80708b6eeeb0053fa0cca44e028ff548e2a9f029edfeac87c118b08b7c882610b9e565b6000611092836001600160a01b038416611e07565b3390565b6001600160a01b0383166117455760405162461bcd60e51b81526004018080602001828103825260248152602001806121df6024913960400191505060405180910390fd5b6001600160a01b03821661178a5760405162461bcd60e51b81526004018080602001828103825260228152602001806120ab6022913960400191505060405180910390fd5b6001600160a01b03808416600081815260016020908152604080832094871680845294825291829020859055815185815291517f8c5be1e5ebec7d5bd14f71427d1e84f3dd0314c0f7b2291e5b200ac8c7c3b9259281900390910190a3505050565b6001600160a01b0383166118315760405162461bcd60e51b81526004018080602001828103825260258152602001806121ba6025913960400191505060405180910390fd5b6001600160a01b0382166118765760405162461bcd60e51b81526004018080602001828103825260238152602001806120376023913960400191505060405180910390fd5b611881838383611e51565b6118be816040518060600160405280602681526020016120ef602691396001600160a01b0386166000908152602081905260409020549190611947565b6001600160a01b0380851660009081526020819052604080822093909355908416815220546118ed9082611ab0565b6001600160a01b038084166000818152602081815260409182902094909455805185815290519193928716927fddf252ad1be2c89b69c2b068fc378daa952ba7f163c4a11628f55a4df523b3ef92918290030190a3505050565b600081848411156119d65760405162461bcd60e51b81526004018080602001828103825283818151815260200191508051906020019080838360005b8381101561199b578181015183820152602001611983565b50505050905090810190601f1680156119c85780820380516001836020036101000a031916815260200191505b509250505060405180910390fd5b505050900390565b60008281526006602052604090206119f690826116e7565b15610c0657611a036116fc565b6001600160a01b0316816001600160a01b0316837f2f8788117e7eff1d82e926ec794901d17c78024a50270940304540a733656f0d60405160405180910390a45050565b6000828152600660205260409020611a5f9082611e56565b15610c0657611a6c6116fc565b6001600160a01b0316816001600160a01b0316837ff6391f5c32d9c69d2a47ea670b442974b53935d1edc7fd64eb21e047a839171b60405160405180910390a45050565b600082820183811015611092576040805162461bcd60e51b815260206004820152601b60248201527f536166654d6174683a206164646974696f6e206f766572666c6f770000000000604482015290519081900360640190fd5b6001600160a01b038216611b65576040805162461bcd60e51b815260206004820152601f60248201527f45524332303a206d696e7420746f20746865207a65726f206164647265737300604482015290519081900360640190fd5b611b7160008383611e51565b600254611b7e9082611ab0565b6002556001600160a01b038216600090815260208190526040902054611ba49082611ab0565b6001600160a01b0383166000818152602081815260408083209490945583518581529351929391927fddf252ad1be2c89b69c2b068fc378daa952ba7f163c4a11628f55a4df523b3ef9281900390910190a35050565b60006110928383611e6b565b6000611092836001600160a01b038416611ecf565b6001600160a01b038216611c605760405162461bcd60e51b81526004018080602001828103825260218152602001806121996021913960400191505060405180910390fd5b611c6c82600083611e51565b611ca981604051806060016040528060228152602001612089602291396001600160a01b0385166000908152602081905260409020549190611947565b6001600160a01b038316600090815260208190526040902055600254611ccf9082611ee7565b6002556040805182815290516000916001600160a01b038516917fddf252ad1be2c89b69c2b068fc378daa952ba7f163c4a11628f55a4df523b3ef9181900360200190a35050565b6000610a3882611f29565b610c0682826040516024018080602001836001600160a01b03168152602001828103825284818151815260200191508051906020019080838360005b83811015611d76578181015183820152602001611d5e565b50505050905090810190601f168015611da35780820380516001836020036101000a031916815260200191505b5060408051601f198184030181529190526020810180517bffffffffffffffffffffffffffffffffffffffffffffffffffffffff167f319af333000000000000000000000000000000000000000000000000000000001790529350611f2d92505050565b6000611e138383611ecf565b611e4957508154600181810184556000848152602080822090930184905584548482528286019093526040902091909155610a38565b506000610a38565b505050565b6000611092836001600160a01b038416611f4e565b81546000908210611ead5760405162461bcd60e51b81526004018080602001828103825260228152602001806120156022913960400191505060405180910390fd5b826000018281548110611ebc57fe5b9060005260206000200154905092915050565b60009081526001919091016020526040902054151590565b600061109283836040518060400160405280601e81526020017f536166654d6174683a207375627472616374696f6e206f766572666c6f770000815250611947565b5490565b80516a636f6e736f6c652e6c6f67602083016000808483855afa5050505050565b6000818152600183016020526040812054801561200a5783546000198083019190810190600090879083908110611f8157fe5b9060005260206000200154905080876000018481548110611f9e57fe5b600091825260208083209091019290925582815260018981019092526040902090840190558654879080611fce57fe5b60019003818190600052602060002001600090559055866001016000878152602001908152602001600020600090556001945050505050610a38565b6000915050610a3856fe456e756d657261626c655365743a20696e646578206f7574206f6620626f756e647345524332303a207472616e7366657220746f20746865207a65726f2061646472657373416363657373436f6e74726f6c3a2073656e646572206d75737420626520616e2061646d696e20746f206772616e7445524332303a206275726e20616d6f756e7420657863656564732062616c616e636545524332303a20617070726f766520746f20746865207a65726f206164647265737341636365737369626c653a2043616c6c6572206973206e6f7420616e2061646d696e45524332303a207472616e7366657220616d6f756e7420657863656564732062616c616e636541636365737369626c65506c7573436f6d6d6f6e3a2043616c6c6572206973206e6f742061206275726e6572416363657373436f6e74726f6c3a2073656e646572206d75737420626520616e2061646d696e20746f207265766f6b6545524332303a207472616e7366657220616d6f756e74206578636565647320616c6c6f77616e636545524332303a206275726e2066726f6d20746865207a65726f206164647265737345524332303a207472616e736665722066726f6d20746865207a65726f206164647265737345524332303a20617070726f76652066726f6d20746865207a65726f206164647265737341636365737369626c65506c7573436f6d6d6f6e3a2043616c6c6572206973206e6f742061206d696e74657245524332303a2064656372656173656420616c6c6f77616e63652062656c6f77207a65726f416363657373436f6e74726f6c3a2063616e206f6e6c792072656e6f756e636520726f6c657320666f722073656c66a26469706673582212207fcdf30eff39ff4680d8f4b87c3ede14f529efea6f8dce0e4a4d11b0c49fb03b64736f6c63430007060033f0887ba65ee2024ea881d91b74c2450ef19e1557f03bed3ea9f16b037cbe2dc9df8b4c520ffe197c5343c6f5aec59570151ef9a492f2c624fd45ddde6135ec42",
  "linkReferences": {},
  "deployedLinkReferences": {}
}