{
    "_format": "hh-sol-artifact-1",
    "contractName": "VestingPublicFundProxy",
    "sourceName": "contracts/VestingPublicFund/VestingPublicFundProxy.sol",
    "abi": [
        {
            "anonymous": false,
            "inputs": [
                {
                    "indexed": true,
                    "internalType": "bytes32",
                    "name": "role",
                    "type": "bytes32"
                },
                {
                    "indexed": true,
                    "internalType": "bytes32",
                    "name": "previousAdminRole",
                    "type": "bytes32"
                },
                {
                    "indexed": true,
                    "internalType": "bytes32",
                    "name": "newAdminRole",
                    "type": "bytes32"
                }
            ],
            "name": "RoleAdminChanged",
            "type": "event"
        },
        {
            "anonymous": false,
            "inputs": [
                {
                    "indexed": true,
                    "internalType": "bytes32",
                    "name": "role",
                    "type": "bytes32"
                },
                {
                    "indexed": true,
                    "internalType": "address",
                    "name": "account",
                    "type": "address"
                },
                {
                    "indexed": true,
                    "internalType": "address",
                    "name": "sender",
                    "type": "address"
                }
            ],
            "name": "RoleGranted",
            "type": "event"
        },
        {
            "anonymous": false,
            "inputs": [
                {
                    "indexed": true,
                    "internalType": "bytes32",
                    "name": "role",
                    "type": "bytes32"
                },
                {
                    "indexed": true,
                    "internalType": "address",
                    "name": "account",
                    "type": "address"
                },
                {
                    "indexed": true,
                    "internalType": "address",
                    "name": "sender",
                    "type": "address"
                }
            ],
            "name": "RoleRevoked",
            "type": "event"
        },
        {
            "anonymous": false,
            "inputs": [
                {
                    "indexed": true,
                    "internalType": "address",
                    "name": "impl",
                    "type": "address"
                },
                {
                    "indexed": false,
                    "internalType": "bool",
                    "name": "alive",
                    "type": "bool"
                }
            ],
            "name": "SetAliveImplementation",
            "type": "event"
        },
        {
            "anonymous": false,
            "inputs": [
                {
                    "indexed": true,
                    "internalType": "bytes4",
                    "name": "selector",
                    "type": "bytes4"
                },
                {
                    "indexed": true,
                    "internalType": "address",
                    "name": "impl",
                    "type": "address"
                }
            ],
            "name": "SetSelectorImplementation",
            "type": "event"
        },
        {
            "anonymous": false,
            "inputs": [
                {
                    "indexed": true,
                    "internalType": "address",
                    "name": "implementation",
                    "type": "address"
                }
            ],
            "name": "Upgraded",
            "type": "event"
        },
        {
            "stateMutability": "payable",
            "type": "fallback"
        },
        {
            "inputs": [],
            "name": "DEFAULT_ADMIN_ROLE",
            "outputs": [
                {
                    "internalType": "bytes32",
                    "name": "",
                    "type": "bytes32"
                }
            ],
            "stateMutability": "view",
            "type": "function"
        },
        {
            "inputs": [],
            "name": "PROJECT_ADMIN_ROLE",
            "outputs": [
                {
                    "internalType": "bytes32",
                    "name": "",
                    "type": "bytes32"
                }
            ],
            "stateMutability": "view",
            "type": "function"
        },
        {
            "inputs": [
                {
                    "internalType": "address",
                    "name": "account",
                    "type": "address"
                }
            ],
            "name": "addAdmin",
            "outputs": [],
            "stateMutability": "nonpayable",
            "type": "function"
        },
        {
            "inputs": [
                {
                    "internalType": "address",
                    "name": "_owner",
                    "type": "address"
                }
            ],
            "name": "addProxyAdmin",
            "outputs": [],
            "stateMutability": "nonpayable",
            "type": "function"
        },
        {
            "inputs": [
                {
                    "internalType": "address",
                    "name": "",
                    "type": "address"
                }
            ],
            "name": "aliveImplementation",
            "outputs": [
                {
                    "internalType": "bool",
                    "name": "",
                    "type": "bool"
                }
            ],
            "stateMutability": "view",
            "type": "function"
        },
        {
            "inputs": [],
            "name": "allClaimInfos",
            "outputs": [
                {
                    "internalType": "uint256",
                    "name": "",
                    "type": "uint256"
                },
                {
                    "internalType": "uint256[]",
                    "name": "",
                    "type": "uint256[]"
                },
                {
                    "internalType": "uint256[]",
                    "name": "",
                    "type": "uint256[]"
                },
                {
                    "internalType": "uint256",
                    "name": "",
                    "type": "uint256"
                }
            ],
            "stateMutability": "view",
            "type": "function"
        },
        {
            "inputs": [],
            "name": "boolLogEvent",
            "outputs": [
                {
                    "internalType": "bool",
                    "name": "",
                    "type": "bool"
                }
            ],
            "stateMutability": "view",
            "type": "function"
        },
        {
            "inputs": [
                {
                    "internalType": "uint256",
                    "name": "",
                    "type": "uint256"
                }
            ],
            "name": "claimAmounts",
            "outputs": [
                {
                    "internalType": "uint256",
                    "name": "",
                    "type": "uint256"
                }
            ],
            "stateMutability": "view",
            "type": "function"
        },
        {
            "inputs": [
                {
                    "internalType": "uint256",
                    "name": "",
                    "type": "uint256"
                }
            ],
            "name": "claimTimes",
            "outputs": [
                {
                    "internalType": "uint256",
                    "name": "",
                    "type": "uint256"
                }
            ],
            "stateMutability": "view",
            "type": "function"
        },
        {
            "inputs": [
                {
                    "internalType": "bytes32",
                    "name": "role",
                    "type": "bytes32"
                }
            ],
            "name": "getRoleAdmin",
            "outputs": [
                {
                    "internalType": "bytes32",
                    "name": "",
                    "type": "bytes32"
                }
            ],
            "stateMutability": "view",
            "type": "function"
        },
        {
            "inputs": [
                {
                    "internalType": "bytes4",
                    "name": "_selector",
                    "type": "bytes4"
                }
            ],
            "name": "getSelectorImplementation2",
            "outputs": [
                {
                    "internalType": "address",
                    "name": "impl",
                    "type": "address"
                }
            ],
            "stateMutability": "view",
            "type": "function"
        },
        {
            "inputs": [
                {
                    "internalType": "bytes32",
                    "name": "role",
                    "type": "bytes32"
                },
                {
                    "internalType": "address",
                    "name": "account",
                    "type": "address"
                }
            ],
            "name": "grantRole",
            "outputs": [],
            "stateMutability": "nonpayable",
            "type": "function"
        },
        {
            "inputs": [
                {
                    "internalType": "bytes32",
                    "name": "role",
                    "type": "bytes32"
                },
                {
                    "internalType": "address",
                    "name": "account",
                    "type": "address"
                }
            ],
            "name": "hasRole",
            "outputs": [
                {
                    "internalType": "bool",
                    "name": "",
                    "type": "bool"
                }
            ],
            "stateMutability": "view",
            "type": "function"
        },
        {
            "inputs": [],
            "name": "implementation",
            "outputs": [
                {
                    "internalType": "address",
                    "name": "",
                    "type": "address"
                }
            ],
            "stateMutability": "view",
            "type": "function"
        },
        {
            "inputs": [
                {
                    "internalType": "uint256",
                    "name": "_index",
                    "type": "uint256"
                }
            ],
            "name": "implementation2",
            "outputs": [
                {
                    "internalType": "address",
                    "name": "",
                    "type": "address"
                }
            ],
            "stateMutability": "view",
            "type": "function"
        },
        {
            "inputs": [
                {
                    "internalType": "address",
                    "name": "account",
                    "type": "address"
                }
            ],
            "name": "isAdmin",
            "outputs": [
                {
                    "internalType": "bool",
                    "name": "",
                    "type": "bool"
                }
            ],
            "stateMutability": "view",
            "type": "function"
        },
        {
            "inputs": [
                {
                    "internalType": "address",
                    "name": "account",
                    "type": "address"
                }
            ],
            "name": "isProxyAdmin",
            "outputs": [
                {
                    "internalType": "bool",
                    "name": "",
                    "type": "bool"
                }
            ],
            "stateMutability": "view",
            "type": "function"
        },
        {
            "inputs": [],
            "name": "logEventAddress",
            "outputs": [
                {
                    "internalType": "address",
                    "name": "",
                    "type": "address"
                }
            ],
            "stateMutability": "view",
            "type": "function"
        },
        {
            "inputs": [],
            "name": "name",
            "outputs": [
                {
                    "internalType": "string",
                    "name": "",
                    "type": "string"
                }
            ],
            "stateMutability": "view",
            "type": "function"
        },
        {
            "inputs": [],
            "name": "nowClaimRound",
            "outputs": [
                {
                    "internalType": "uint256",
                    "name": "",
                    "type": "uint256"
                }
            ],
            "stateMutability": "view",
            "type": "function"
        },
        {
            "inputs": [],
            "name": "pauseProxy",
            "outputs": [
                {
                    "internalType": "bool",
                    "name": "",
                    "type": "bool"
                }
            ],
            "stateMutability": "view",
            "type": "function"
        },
        {
            "inputs": [
                {
                    "internalType": "uint256",
                    "name": "",
                    "type": "uint256"
                }
            ],
            "name": "proxyImplementation",
            "outputs": [
                {
                    "internalType": "address",
                    "name": "",
                    "type": "address"
                }
            ],
            "stateMutability": "view",
            "type": "function"
        },
        {
            "inputs": [],
            "name": "publicSaleVaultAddress",
            "outputs": [
                {
                    "internalType": "address",
                    "name": "",
                    "type": "address"
                }
            ],
            "stateMutability": "view",
            "type": "function"
        },
        {
            "inputs": [],
            "name": "receivedAddress",
            "outputs": [
                {
                    "internalType": "address",
                    "name": "",
                    "type": "address"
                }
            ],
            "stateMutability": "view",
            "type": "function"
        },
        {
            "inputs": [],
            "name": "removeAdmin",
            "outputs": [],
            "stateMutability": "nonpayable",
            "type": "function"
        },
        {
            "inputs": [],
            "name": "removeProxyAdmin",
            "outputs": [],
            "stateMutability": "nonpayable",
            "type": "function"
        },
        {
            "inputs": [
                {
                    "internalType": "bytes32",
                    "name": "role",
                    "type": "bytes32"
                },
                {
                    "internalType": "address",
                    "name": "account",
                    "type": "address"
                }
            ],
            "name": "renounceRole",
            "outputs": [],
            "stateMutability": "nonpayable",
            "type": "function"
        },
        {
            "inputs": [
                {
                    "internalType": "bytes32",
                    "name": "role",
                    "type": "bytes32"
                },
                {
                    "internalType": "address",
                    "name": "account",
                    "type": "address"
                }
            ],
            "name": "revokeRole",
            "outputs": [],
            "stateMutability": "nonpayable",
            "type": "function"
        },
        {
            "inputs": [
                {
                    "internalType": "bytes4",
                    "name": "",
                    "type": "bytes4"
                }
            ],
            "name": "selectorImplementation",
            "outputs": [
                {
                    "internalType": "address",
                    "name": "",
                    "type": "address"
                }
            ],
            "stateMutability": "view",
            "type": "function"
        },
        {
            "inputs": [
                {
                    "internalType": "address",
                    "name": "newImplementation",
                    "type": "address"
                },
                {
                    "internalType": "bool",
                    "name": "_alive",
                    "type": "bool"
                }
            ],
            "name": "setAliveImplementation2",
            "outputs": [],
            "stateMutability": "nonpayable",
            "type": "function"
        },
        {
            "inputs": [
                {
                    "internalType": "string",
                    "name": "_name",
                    "type": "string"
                },
                {
                    "internalType": "address",
                    "name": "_token",
                    "type": "address"
                },
                {
                    "internalType": "address",
                    "name": "_owner",
                    "type": "address"
                },
                {
                    "internalType": "address",
                    "name": "_publicSaleVault",
                    "type": "address"
                },
                {
                    "internalType": "address",
                    "name": "_receivedAddress",
                    "type": "address"
                }
            ],
            "name": "setBaseInfoProxy",
            "outputs": [],
            "stateMutability": "nonpayable",
            "type": "function"
        },
        {
            "inputs": [
                {
                    "internalType": "bool",
                    "name": "_boolLogEvent",
                    "type": "bool"
                }
            ],
            "name": "setBoolLogEvent",
            "outputs": [],
            "stateMutability": "nonpayable",
            "type": "function"
        },
        {
            "inputs": [
                {
                    "internalType": "address",
                    "name": "newImplementation",
                    "type": "address"
                },
                {
                    "internalType": "uint256",
                    "name": "_index",
                    "type": "uint256"
                },
                {
                    "internalType": "bool",
                    "name": "_alive",
                    "type": "bool"
                }
            ],
            "name": "setImplementation2",
            "outputs": [],
            "stateMutability": "nonpayable",
            "type": "function"
        },
        {
            "inputs": [
                {
                    "internalType": "address",
                    "name": "_addr",
                    "type": "address"
                },
                {
                    "internalType": "bool",
                    "name": "_boolLogEvent",
                    "type": "bool"
                }
            ],
            "name": "setLogEventAddress",
            "outputs": [],
            "stateMutability": "nonpayable",
            "type": "function"
        },
        {
            "inputs": [
                {
                    "internalType": "bool",
                    "name": "_pause",
                    "type": "bool"
                }
            ],
            "name": "setProxyPause",
            "outputs": [],
            "stateMutability": "nonpayable",
            "type": "function"
        },
        {
            "inputs": [
                {
                    "internalType": "bytes4[]",
                    "name": "_selectors",
                    "type": "bytes4[]"
                },
                {
                    "internalType": "address",
                    "name": "_imp",
                    "type": "address"
                }
            ],
            "name": "setSelectorImplementations2",
            "outputs": [],
            "stateMutability": "nonpayable",
            "type": "function"
        },
        {
            "inputs": [],
            "name": "settingCheck",
            "outputs": [
                {
                    "internalType": "bool",
                    "name": "",
                    "type": "bool"
                }
            ],
            "stateMutability": "view",
            "type": "function"
        },
        {
            "inputs": [
                {
                    "internalType": "bytes4",
                    "name": "interfaceId",
                    "type": "bytes4"
                }
            ],
            "name": "supportsInterface",
            "outputs": [
                {
                    "internalType": "bool",
                    "name": "",
                    "type": "bool"
                }
            ],
            "stateMutability": "view",
            "type": "function"
        },
        {
            "inputs": [],
            "name": "token",
            "outputs": [
                {
                    "internalType": "address",
                    "name": "",
                    "type": "address"
                }
            ],
            "stateMutability": "view",
            "type": "function"
        },
        {
            "inputs": [],
            "name": "totalAllocatedAmount",
            "outputs": [
                {
                    "internalType": "uint256",
                    "name": "",
                    "type": "uint256"
                }
            ],
            "stateMutability": "view",
            "type": "function"
        },
        {
            "inputs": [],
            "name": "totalClaimCounts",
            "outputs": [
                {
                    "internalType": "uint256",
                    "name": "",
                    "type": "uint256"
                }
            ],
            "stateMutability": "view",
            "type": "function"
        },
        {
            "inputs": [],
            "name": "totalClaimsAmount",
            "outputs": [
                {
                    "internalType": "uint256",
                    "name": "",
                    "type": "uint256"
                }
            ],
            "stateMutability": "view",
            "type": "function"
        },
        {
            "inputs": [
                {
                    "internalType": "address",
                    "name": "newAdmin",
                    "type": "address"
                }
            ],
            "name": "transferAdmin",
            "outputs": [],
            "stateMutability": "nonpayable",
            "type": "function"
        },
        {
            "inputs": [
                {
                    "internalType": "address",
                    "name": "newAdmin",
                    "type": "address"
                }
            ],
            "name": "transferProxyAdmin",
            "outputs": [],
            "stateMutability": "nonpayable",
            "type": "function"
        },
        {
            "inputs": [
                {
                    "internalType": "address",
                    "name": "impl",
                    "type": "address"
                }
            ],
            "name": "upgradeTo",
            "outputs": [],
            "stateMutability": "nonpayable",
            "type": "function"
        },
        {
            "inputs": [],
            "name": "vestingPause",
            "outputs": [
                {
                    "internalType": "bool",
                    "name": "",
                    "type": "bool"
                }
            ],
            "stateMutability": "view",
            "type": "function"
        },
        {
            "inputs": [],
            "name": "vestingStop",
            "outputs": [
                {
                    "internalType": "bool",
                    "name": "",
                    "type": "bool"
                }
            ],
            "stateMutability": "view",
            "type": "function"
        },
        {
            "stateMutability": "payable",
            "type": "receive"
        }
    ],
    "bytecode": "0x608060405260006006553480156200001657600080fd5b50620000437f52eafc11f6f81f86878bffd31109a0d92f37506527754f00788853ff9f63b1308062000082565b6200006f7f52eafc11f6f81f86878bffd31109a0d92f37506527754f00788853ff9f63b13033620000cd565b6200007c600033620000cd565b62000181565b6000828152600f6020526040808220600101805490849055905190918391839186917fbd79b86ffe0ab8e8776151514217cd7cacd52c909f66475c3af44e129f0b00ff9190a4505050565b620000d98282620000dd565b5050565b6000828152600f602090815260408083206001600160a01b038516845290915290205460ff16620000d9576000828152600f602090815260408083206001600160a01b03851684529091529020805460ff191660011790556200013d3390565b6001600160a01b0316816001600160a01b0316837f2f8788117e7eff1d82e926ec794901d17c78024a50270940304540a733656f0d60405160405180910390a45050565b61217080620001916000396000f3fe60806040526004361061024c5760003560e01c80636545eb1c1161013a5780639a202d47116100b15780639a202d4714610747578063a217fddf1461075c578063b911135f14610771578063be72f2d3146107a7578063cfc412be146107bc578063d547741f146107d2578063d8dc1b14146107f2578063eab73ca114610812578063ed5131f514610837578063f47f2f1d14610857578063fab878a414610877578063fc0c546a1461089757610295565b80636545eb1c146105c65780636befec3f146105e6578063704802751461060657806375829def146106265780637cb00d25146106465780637cd5f663146106665780638356ca4f146106865780638b8f4a65146106a65780638d4fdb40146106c657806391d14854146106e657806393e226591461070657806396f1557c1461072757610295565b806334b38cc3116101ce57806334b38cc31461041b57806336568abe146104405780633659cfe61461046057806336d956ea1461048057806341c04d5e146104a15780634a5df50f146104c357806350d2a276146104e3578063550d01a31461053157806355640008146105615780635c60da1b146105775780635cc797d81461058c57806363a8fd89146105ac57610295565b806301ffc9a71461029f57806306fdde03146102d45780630a59fa08146102f65780630f4388c014610310578063117ab8741461033e578063170e2fee1461035457806321cf437014610374578063248a9ca31461039557806324d7806c146103c5578063256019d6146103e55780632f2ff15d146103fb57610295565b366102955760405162461bcd60e51b815260206004820152601460248201527331b0b73737ba103932b1b2b4bb329022ba3432b960611b60448201526064015b60405180910390fd5b61029d6108b7565b005b3480156102ab57600080fd5b506102bf6102ba366004611d02565b610960565b60405190151581526020015b60405180910390f35b3480156102e057600080fd5b506102e9610997565b6040516102cb9190611ec2565b34801561030257600080fd5b50600e546102bf9060ff1681565b34801561031c57600080fd5b5061033061032b366004611cc8565b610a25565b6040519081526020016102cb565b34801561034a57600080fd5b5061033060065481565b34801561036057600080fd5b5061029d61036f366004611bcb565b610a46565b34801561038057600080fd5b506002546102bf90600160a01b900460ff1681565b3480156103a157600080fd5b506103306103b0366004611cc8565b6000908152600f602052604090206001015490565b3480156103d157600080fd5b506102bf6103e0366004611bb1565b610b1f565b3480156103f157600080fd5b5061033060055481565b34801561040757600080fd5b5061029d610416366004611ce0565b610b39565b34801561042757600080fd5b50610430610b5f565b6040516102cb9493929190611fe1565b34801561044c57600080fd5b5061029d61045b366004611ce0565b610c22565b34801561046c57600080fd5b5061029d61047b366004611bb1565b610c9c565b34801561048c57600080fd5b506002546102bf90600160a81b900460ff1681565b3480156104ad57600080fd5b5061033060008051602061211b83398151915281565b3480156104cf57600080fd5b5061029d6104de366004611c38565b610da2565b3480156104ef57600080fd5b506105196104fe366004611d02565b600d602052600090815260409020546001600160a01b031681565b6040516001600160a01b0390911681526020016102cb565b34801561053d57600080fd5b506102bf61054c366004611bb1565b600c6020526000908152604090205460ff1681565b34801561056d57600080fd5b5061033060045481565b34801561058357600080fd5b5061051961102a565b34801561059857600080fd5b5061029d6105a7366004611bcb565b61103b565b3480156105b857600080fd5b50600a546102bf9060ff1681565b3480156105d257600080fd5b50600154610519906001600160a01b031681565b3480156105f257600080fd5b5061029d610601366004611cae565b61106a565b34801561061257600080fd5b5061029d610621366004611bb1565b611142565b34801561063257600080fd5b5061029d610641366004611bb1565b611182565b34801561065257600080fd5b5061029d610661366004611cae565b611235565b34801561067257600080fd5b5061029d610681366004611bfd565b61127c565b34801561069257600080fd5b5061029d6106a1366004611bb1565b6112ac565b3480156106b257600080fd5b506105196106c1366004611cc8565b611336565b3480156106d257600080fd5b506105196106e1366004611d02565b611341565b3480156106f257600080fd5b506102bf610701366004611ce0565b61143d565b34801561071257600080fd5b506002546102bf90600160b01b900460ff1681565b34801561073357600080fd5b5061029d610742366004611bb1565b611468565b34801561075357600080fd5b5061029d611498565b34801561076857600080fd5b50610330600081565b34801561077d57600080fd5b5061051961078c366004611cc8565b600b602052600090815260409020546001600160a01b031681565b3480156107b357600080fd5b5061029d6114e6565b3480156107c857600080fd5b5061033060075481565b3480156107de57600080fd5b5061029d6107ed366004611ce0565b611516565b3480156107fe57600080fd5b5061029d61080d366004611d2a565b61153c565b34801561081e57600080fd5b50600e546105199061010090046001600160a01b031681565b34801561084357600080fd5b50610330610852366004611cc8565b611697565b34801561086357600080fd5b506102bf610872366004611bb1565b6116a7565b34801561088357600080fd5b50600254610519906001600160a01b031681565b3480156108a357600080fd5b50600054610519906001600160a01b031681565b60006108ce6000356001600160e01b031916611341565b90506001600160a01b038116158015906108eb5750600a5460ff16155b6109375760405162461bcd60e51b815260206004820152601d60248201527f50726f78793a20696d706c204f522070726f78792069732066616c7365000000604482015260640161028c565b3660008037600080366000845af43d6000803e808015610956573d6000f35b3d6000fd5b505050565b60006001600160e01b03198216637965db0b60e01b148061099157506301ffc9a760e01b6001600160e01b03198316145b92915050565b600380546109a490612098565b80601f01602080910402602001604051908101604052809291908181526020018280546109d090612098565b8015610a1d5780601f106109f257610100808354040283529160200191610a1d565b820191906000526020600020905b815481529060010190602001808311610a0057829003601f168201915b505050505081565b60098181548110610a3557600080fd5b600091825260209091200154905081565b610a4f336116a7565b610a6b5760405162461bcd60e51b815260040161028c90611f69565b600e546001600160a01b038381166101009092041614801590610a9657506001600160a01b03821615155b610ad75760405162461bcd60e51b815260206004820152601260248201527173616d652076616c7565206f72207a65726f60701b604482015260640161028c565b600e80546001600160a01b03841661010002610100600160a81b03198216811790925560ff918216911617151581151514610b1b57600e805460ff19168215151790555b5050565b600061099160008051602061211b8339815191528361143d565b6000828152600f6020526040902060010154610b5581336116b3565b61095b8383611717565b600060608060006005546008600960065482805480602002602001604051908101604052809291908181526020018280548015610bbb57602002820191906000526020600020905b815481526020019060010190808311610ba7575b5050505050925081805480602002602001604051908101604052809291908181526020018280548015610c0d57602002820191906000526020600020905b815481526020019060010190808311610bf9575b50505050509150935093509350935090919293565b6001600160a01b0381163314610c925760405162461bcd60e51b815260206004820152602f60248201527f416363657373436f6e74726f6c3a2063616e206f6e6c792072656e6f756e636560448201526e103937b632b9903337b91039b2b63360891b606482015260840161028c565b610b1b828261179d565b610ca5336116a7565b610cc15760405162461bcd60e51b815260040161028c90611f69565b6001600160a01b038116610d075760405162461bcd60e51b815260206004820152600d60248201526c696e707574206973207a65726f60981b604482015260640161028c565b806001600160a01b0316610d1b6000611804565b6001600160a01b03161415610d5e5760405162461bcd60e51b815260206004820152600960248201526839b0b6b29030b2323960b91b604482015260640161028c565b610d6b816000600161181f565b6040516001600160a01b038216907fbc7cd75a20ee27fd9adebab32041f755214dbc6bffa90cc0225b39da2e5c2d3b90600090a250565b610dab336116a7565b610dc75760405162461bcd60e51b815260040161028c90611f69565b81610e145760405162461bcd60e51b815260206004820181905260248201527f50726f78793a205f73656c6563746f727327732073697a65206973207a65726f604482015260640161028c565b6001600160a01b0381166000908152600c602052604090205460ff16610e775760405162461bcd60e51b815260206004820152601860248201527750726f78793a205f696d70206973206e6f7420616c69766560401b604482015260640161028c565b60005b8281101561102457816001600160a01b0316600d6000868685818110610eb057634e487b7160e01b600052603260045260246000fd5b9050602002016020810190610ec59190611d02565b6001600160e01b03191681526020810191909152604001600020546001600160a01b03161415610f375760405162461bcd60e51b815260206004820152601d60248201527f4c69717569646974795661756c7450726f78793a2073616d6520696d70000000604482015260640161028c565b81600d6000868685818110610f5c57634e487b7160e01b600052603260045260246000fd5b9050602002016020810190610f719190611d02565b6001600160e01b0319168152602081019190915260400160002080546001600160a01b0319166001600160a01b039283161790558216848483818110610fc757634e487b7160e01b600052603260045260246000fd5b9050602002016020810190610fdc9190611d02565b6001600160e01b0319167f14ebc1c32aa68f4d766e89f3e546cee249f7df25183fc10ab1568d91c2ce9b7b60405160405180910390a38061101c816120d3565b915050610e7a565b50505050565b60006110366000611804565b905090565b611044336116a7565b6110605760405162461bcd60e51b815260040161028c90611f69565b610b1b828261189f565b611073336116a7565b61108f5760405162461bcd60e51b815260040161028c90611f69565b600e5460ff16151581151514156110d55760405162461bcd60e51b815260206004820152600a60248201526973616d652076616c756560b01b604482015260640161028c565b801561112f57600e5461010090046001600160a01b031661112f5760405162461bcd60e51b81526020600482015260146024820152737a65726f206c6f674576656e744164647265737360601b604482015260640161028c565b600e805460ff1916911515919091179055565b61114b336116a7565b6111675760405162461bcd60e51b815260040161028c90611f69565b61117f60008051602061211b83398151915282610b39565b50565b61118b33610b1f565b8061119a575061119a336116a7565b6111b65760405162461bcd60e51b815260040161028c90611ef5565b6001600160a01b0381166111dc5760405162461bcd60e51b815260040161028c90611f37565b336001600160a01b03821614156112055760405162461bcd60e51b815260040161028c90611fb1565b61121d60008051602061211b83398151915282610b39565b61117f60008051602061211b83398151915233610c22565b61123e33610b1f565b8061124d575061124d336116a7565b6112695760405162461bcd60e51b815260040161028c90611ef5565b600a805460ff1916911515919091179055565b611285336116a7565b6112a15760405162461bcd60e51b815260040161028c90611f69565b61095b83838361181f565b6112b5336116a7565b6112d15760405162461bcd60e51b815260040161028c90611f69565b6001600160a01b0381166112f75760405162461bcd60e51b815260040161028c90611f37565b336001600160a01b03821614156113205760405162461bcd60e51b815260040161028c90611fb1565b61132b600082610b39565b61117f600033610c22565b600061099182611804565b6001600160e01b031981166000908152600d60205260408120546001600160a01b03166113a157505060008052600b6020527fdf7de25b7f1fd6d0b5205f0e18f1f35bd7b8d84cce336588d184533ce43a6f76546001600160a01b031690565b6001600160e01b031982166000908152600d60209081526040808320546001600160a01b03168352600c90915290205460ff16156113ff57506001600160e01b0319166000908152600d60205260409020546001600160a01b031690565b505060008052600b6020527fdf7de25b7f1fd6d0b5205f0e18f1f35bd7b8d84cce336588d184533ce43a6f76546001600160a01b031690565b919050565b6000918252600f602090815260408084206001600160a01b0393909316845291905290205460ff1690565b611471336116a7565b61148d5760405162461bcd60e51b815260040161028c90611f69565b61117f6000826118fe565b6114a133610b1f565b806114b057506114b0336116a7565b6114cc5760405162461bcd60e51b815260040161028c90611ef5565b6114e460008051602061211b83398151915233610c22565b565b6114ef336116a7565b61150b5760405162461bcd60e51b815260040161028c90611f69565b6114e4600033610c22565b6000828152600f602052604090206001015461153281336116b3565b61095b838361179d565b611545336116a7565b6115615760405162461bcd60e51b815260040161028c90611f69565b6003805461156e90612098565b1590506115ab5760405162461bcd60e51b815260206004820152600b60248201526a185b1c9958591e481cd95d60aa1b604482015260640161028c565b6001600160a01b038416158015906115cb57506001600160a01b03831615155b80156115df57506001600160a01b03821615155b61161a5760405162461bcd60e51b815260206004820152600c60248201526b7a65726f206164647265737360a01b604482015260640161028c565b845161162d906003906020880190611af1565b50600080546001600160a01b038087166001600160a01b03199283161790925560028054858416908316179055600180549284169290911691909117905561167483610b1f565b6116905761169060008051602061211b833981519152846118fe565b5050505050565b60088181548110610a3557600080fd5b6000610991818361143d565b6116bd828261143d565b610b1b576116d5816001600160a01b03166014611908565b6116e0836020611908565b6040516020016116f1929190611e53565b60408051601f198184030181529082905262461bcd60e51b825261028c91600401611ec2565b611721828261143d565b610b1b576000828152600f602090815260408083206001600160a01b03851684529091529020805460ff191660011790556117593390565b6001600160a01b0316816001600160a01b0316837f2f8788117e7eff1d82e926ec794901d17c78024a50270940304540a733656f0d60405160405180910390a45050565b6117a7828261143d565b15610b1b576000828152600f602090815260408083206001600160a01b0385168085529252808320805460ff1916905551339285917ff6391f5c32d9c69d2a47ea670b442974b53935d1edc7fd64eb21e047a839171b9190a45050565b6000908152600b60205260409020546001600160a01b031690565b823b61186b5760405162461bcd60e51b815260206004820152601b60248201527a50726f78793a206e6f7420636f6e7472616374206164647265737360281b604482015260640161028c565b8015611899576000828152600b6020526040902080546001600160a01b0319166001600160a01b0385161790555b61095b83825b6001600160a01b0382166000818152600c6020908152604091829020805460ff191685151590811790915591519182527f72558d9bfba4210f9ef095c782589484151f6d90f7a81bb3cb9b33efc695d324910160405180910390a25050565b610b1b8282611717565b60606000611917836002612036565b61192290600261201e565b67ffffffffffffffff81111561194857634e487b7160e01b600052604160045260246000fd5b6040519080825280601f01601f191660200182016040528015611972576020820181803683370190505b509050600360fc1b8160008151811061199b57634e487b7160e01b600052603260045260246000fd5b60200101906001600160f81b031916908160001a905350600f60fb1b816001815181106119d857634e487b7160e01b600052603260045260246000fd5b60200101906001600160f81b031916908160001a90535060006119fc846002612036565b611a0790600161201e565b90505b6001811115611a9b576f181899199a1a9b1b9c1cb0b131b232b360811b85600f1660108110611a4957634e487b7160e01b600052603260045260246000fd5b1a60f81b828281518110611a6d57634e487b7160e01b600052603260045260246000fd5b60200101906001600160f81b031916908160001a90535060049490941c93611a9481612081565b9050611a0a565b508315611aea5760405162461bcd60e51b815260206004820181905260248201527f537472696e67733a20686578206c656e67746820696e73756666696369656e74604482015260640161028c565b9392505050565b828054611afd90612098565b90600052602060002090601f016020900481019282611b1f5760008555611b65565b82601f10611b3857805160ff1916838001178555611b65565b82800160010185558215611b65579182015b82811115611b65578251825591602001919060010190611b4a565b50611b71929150611b75565b5090565b5b80821115611b715760008155600101611b76565b80356001600160a01b038116811461143857600080fd5b8035801515811461143857600080fd5b600060208284031215611bc2578081fd5b611aea82611b8a565b60008060408385031215611bdd578081fd5b611be683611b8a565b9150611bf460208401611ba1565b90509250929050565b600080600060608486031215611c11578081fd5b611c1a84611b8a565b925060208401359150611c2f60408501611ba1565b90509250925092565b600080600060408486031215611c4c578283fd5b833567ffffffffffffffff80821115611c63578485fd5b818601915086601f830112611c76578485fd5b813581811115611c84578586fd5b8760208260051b8501011115611c98578586fd5b602092830195509350611c2f9186019050611b8a565b600060208284031215611cbf578081fd5b611aea82611ba1565b600060208284031215611cd9578081fd5b5035919050565b60008060408385031215611cf2578182fd5b82359150611bf460208401611b8a565b600060208284031215611d13578081fd5b81356001600160e01b031981168114611aea578182fd5b600080600080600060a08688031215611d41578081fd5b853567ffffffffffffffff80821115611d58578283fd5b818801915088601f830112611d6b578283fd5b813581811115611d7d57611d7d612104565b604051601f8201601f19908116603f01168101908382118183101715611da557611da5612104565b816040528281528b6020848701011115611dbd578586fd5b8260208601602083013785602084830101528099505050505050611de360208701611b8a565b9350611df160408701611b8a565b9250611dff60608701611b8a565b9150611e0d60808701611b8a565b90509295509295909350565b6000815180845260208085019450808401835b83811015611e4857815187529582019590820190600101611e2c565b509495945050505050565b76020b1b1b2b9b9a1b7b73a3937b61d1030b1b1b7bab73a1604d1b815260008351611e85816017850160208801612055565b7001034b99036b4b9b9b4b733903937b6329607d1b6017918401918201528351611eb6816028840160208801612055565b01602801949350505050565b6020815260008251806020840152611ee1816040850160208701612055565b601f01601f19169190910160400192915050565b60208082526022908201527f41636365737369626c653a2043616c6c6572206973206e6f7420616e2061646d60408201526134b760f11b606082015260800190565b60208082526018908201527741636365737369626c653a207a65726f206164647265737360401b604082015260600190565b60208082526028908201527f41636365737369626c653a2043616c6c6572206973206e6f7420616e2070726f6040820152673c3c9030b236b4b760c11b606082015260800190565b60208082526016908201527520b1b1b2b9b9b4b136329d1039b0b6b29030b236b4b760511b604082015260600190565b848152608060208201526000611ffa6080830186611e19565b828103604084015261200c8186611e19565b91505082606083015295945050505050565b60008219821115612031576120316120ee565b500190565b6000816000190483118215151615612050576120506120ee565b500290565b60005b83811015612070578181015183820152602001612058565b838111156110245750506000910152565b600081612090576120906120ee565b506000190190565b600181811c908216806120ac57607f821691505b602082108114156120cd57634e487b7160e01b600052602260045260246000fd5b50919050565b60006000198214156120e7576120e76120ee565b5060010190565b634e487b7160e01b600052601160045260246000fd5b634e487b7160e01b600052604160045260246000fdfe52eafc11f6f81f86878bffd31109a0d92f37506527754f00788853ff9f63b130a264697066735822122004e6bfd80567e79acf844ed164efe44525f6f2eb032133f6ab66fd1a58c7dbfe64736f6c63430008040033",
    "linkReferences": {},
    "deployedLinkReferences": {}
}