{
    "_format": "hh-sol-artifact-1",
    "contractName": "VestingPublicFund",
    "sourceName": "contracts/VestingPublicFund/VestingPublicFund.sol",
    "abi": [
        {
            "inputs": [],
            "stateMutability": "nonpayable",
            "type": "constructor"
        },
        {
            "anonymous": false,
            "inputs": [
                {
                    "indexed": false,
                    "internalType": "address",
                    "name": "caller",
                    "type": "address"
                },
                {
                    "indexed": false,
                    "internalType": "address",
                    "name": "to",
                    "type": "address"
                },
                {
                    "indexed": false,
                    "internalType": "uint256",
                    "name": "amount",
                    "type": "uint256"
                }
            ],
            "name": "Claimed",
            "type": "event"
        },
        {
            "anonymous": false,
            "inputs": [
                {
                    "indexed": false,
                    "internalType": "address",
                    "name": "from",
                    "type": "address"
                },
                {
                    "indexed": false,
                    "internalType": "uint256",
                    "name": "amount",
                    "type": "uint256"
                }
            ],
            "name": "Funded",
            "type": "event"
        },
        {
            "anonymous": false,
            "inputs": [
                {
                    "indexed": false,
                    "internalType": "uint256",
                    "name": "_claimCounts",
                    "type": "uint256"
                },
                {
                    "indexed": false,
                    "internalType": "uint256[]",
                    "name": "_claimTimes",
                    "type": "uint256[]"
                },
                {
                    "indexed": false,
                    "internalType": "uint256[]",
                    "name": "_claimAmounts",
                    "type": "uint256[]"
                }
            ],
            "name": "Initialized",
            "type": "event"
        },
        {
            "anonymous": false,
            "inputs": [
                {
                    "indexed": true,
                    "internalType": "bytes32",
                    "name": "role",
                    "type": "bytes32"
                },
                {
                    "indexed": true,
                    "internalType": "bytes32",
                    "name": "previousAdminRole",
                    "type": "bytes32"
                },
                {
                    "indexed": true,
                    "internalType": "bytes32",
                    "name": "newAdminRole",
                    "type": "bytes32"
                }
            ],
            "name": "RoleAdminChanged",
            "type": "event"
        },
        {
            "anonymous": false,
            "inputs": [
                {
                    "indexed": true,
                    "internalType": "bytes32",
                    "name": "role",
                    "type": "bytes32"
                },
                {
                    "indexed": true,
                    "internalType": "address",
                    "name": "account",
                    "type": "address"
                },
                {
                    "indexed": true,
                    "internalType": "address",
                    "name": "sender",
                    "type": "address"
                }
            ],
            "name": "RoleGranted",
            "type": "event"
        },
        {
            "anonymous": false,
            "inputs": [
                {
                    "indexed": true,
                    "internalType": "bytes32",
                    "name": "role",
                    "type": "bytes32"
                },
                {
                    "indexed": true,
                    "internalType": "address",
                    "name": "account",
                    "type": "address"
                },
                {
                    "indexed": true,
                    "internalType": "address",
                    "name": "sender",
                    "type": "address"
                }
            ],
            "name": "RoleRevoked",
            "type": "event"
        },
        {
            "anonymous": false,
            "inputs": [
                {
                    "indexed": false,
                    "internalType": "bool",
                    "name": "_pause",
                    "type": "bool"
                }
            ],
            "name": "SetVestingPaused",
            "type": "event"
        },
        {
            "anonymous": false,
            "inputs": [],
            "name": "SetVestingStopped",
            "type": "event"
        },
        {
            "anonymous": false,
            "inputs": [
                {
                    "indexed": false,
                    "internalType": "address",
                    "name": "to",
                    "type": "address"
                },
                {
                    "indexed": false,
                    "internalType": "uint256",
                    "name": "amount",
                    "type": "uint256"
                }
            ],
            "name": "Withdrawals",
            "type": "event"
        },
        {
            "inputs": [],
            "name": "DEFAULT_ADMIN_ROLE",
            "outputs": [
                {
                    "internalType": "bytes32",
                    "name": "",
                    "type": "bytes32"
                }
            ],
            "stateMutability": "view",
            "type": "function"
        },
        {
            "inputs": [],
            "name": "PROJECT_ADMIN_ROLE",
            "outputs": [
                {
                    "internalType": "bytes32",
                    "name": "",
                    "type": "bytes32"
                }
            ],
            "stateMutability": "view",
            "type": "function"
        },
        {
            "inputs": [
                {
                    "internalType": "address",
                    "name": "account",
                    "type": "address"
                }
            ],
            "name": "addAdmin",
            "outputs": [],
            "stateMutability": "nonpayable",
            "type": "function"
        },
        {
            "inputs": [
                {
                    "internalType": "address",
                    "name": "_owner",
                    "type": "address"
                }
            ],
            "name": "addProxyAdmin",
            "outputs": [],
            "stateMutability": "nonpayable",
            "type": "function"
        },
        {
            "inputs": [
                {
                    "internalType": "address",
                    "name": "",
                    "type": "address"
                }
            ],
            "name": "aliveImplementation",
            "outputs": [
                {
                    "internalType": "bool",
                    "name": "",
                    "type": "bool"
                }
            ],
            "stateMutability": "view",
            "type": "function"
        },
        {
            "inputs": [],
            "name": "allClaimInfos",
            "outputs": [
                {
                    "internalType": "uint256",
                    "name": "",
                    "type": "uint256"
                },
                {
                    "internalType": "uint256[]",
                    "name": "",
                    "type": "uint256[]"
                },
                {
                    "internalType": "uint256[]",
                    "name": "",
                    "type": "uint256[]"
                },
                {
                    "internalType": "uint256",
                    "name": "",
                    "type": "uint256"
                }
            ],
            "stateMutability": "view",
            "type": "function"
        },
        {
            "inputs": [],
            "name": "boolLogEvent",
            "outputs": [
                {
                    "internalType": "bool",
                    "name": "",
                    "type": "bool"
                }
            ],
            "stateMutability": "view",
            "type": "function"
        },
        {
            "inputs": [
                {
                    "internalType": "uint256",
                    "name": "_round",
                    "type": "uint256"
                }
            ],
            "name": "calculClaimAmount",
            "outputs": [
                {
                    "internalType": "uint256",
                    "name": "amount",
                    "type": "uint256"
                }
            ],
            "stateMutability": "view",
            "type": "function"
        },
        {
            "inputs": [
                {
                    "internalType": "address",
                    "name": "_token",
                    "type": "address"
                },
                {
                    "internalType": "address",
                    "name": "_receivedAddress",
                    "type": "address"
                },
                {
                    "internalType": "address",
                    "name": "_publicSaleVaultAddress",
                    "type": "address"
                }
            ],
            "name": "changeAddr",
            "outputs": [],
            "stateMutability": "nonpayable",
            "type": "function"
        },
        {
            "inputs": [],
            "name": "claim",
            "outputs": [],
            "stateMutability": "nonpayable",
            "type": "function"
        },
        {
            "inputs": [
                {
                    "internalType": "uint256",
                    "name": "",
                    "type": "uint256"
                }
            ],
            "name": "claimAmounts",
            "outputs": [
                {
                    "internalType": "uint256",
                    "name": "",
                    "type": "uint256"
                }
            ],
            "stateMutability": "view",
            "type": "function"
        },
        {
            "inputs": [
                {
                    "internalType": "uint256",
                    "name": "",
                    "type": "uint256"
                }
            ],
            "name": "claimTimes",
            "outputs": [
                {
                    "internalType": "uint256",
                    "name": "",
                    "type": "uint256"
                }
            ],
            "stateMutability": "view",
            "type": "function"
        },
        {
            "inputs": [],
            "name": "currentRound",
            "outputs": [
                {
                    "internalType": "uint256",
                    "name": "round",
                    "type": "uint256"
                }
            ],
            "stateMutability": "view",
            "type": "function"
        },
        {
            "inputs": [
                {
                    "internalType": "uint256",
                    "name": "amount",
                    "type": "uint256"
                }
            ],
            "name": "funding",
            "outputs": [],
            "stateMutability": "nonpayable",
            "type": "function"
        },
        {
            "inputs": [
                {
                    "internalType": "bytes32",
                    "name": "role",
                    "type": "bytes32"
                }
            ],
            "name": "getRoleAdmin",
            "outputs": [
                {
                    "internalType": "bytes32",
                    "name": "",
                    "type": "bytes32"
                }
            ],
            "stateMutability": "view",
            "type": "function"
        },
        {
            "inputs": [
                {
                    "internalType": "bytes32",
                    "name": "role",
                    "type": "bytes32"
                },
                {
                    "internalType": "address",
                    "name": "account",
                    "type": "address"
                }
            ],
            "name": "grantRole",
            "outputs": [],
            "stateMutability": "nonpayable",
            "type": "function"
        },
        {
            "inputs": [
                {
                    "internalType": "bytes32",
                    "name": "role",
                    "type": "bytes32"
                },
                {
                    "internalType": "address",
                    "name": "account",
                    "type": "address"
                }
            ],
            "name": "hasRole",
            "outputs": [
                {
                    "internalType": "bool",
                    "name": "",
                    "type": "bool"
                }
            ],
            "stateMutability": "view",
            "type": "function"
        },
        {
            "inputs": [
                {
                    "internalType": "uint256",
                    "name": "_claimCounts",
                    "type": "uint256"
                },
                {
                    "internalType": "uint256[]",
                    "name": "_claimTimes",
                    "type": "uint256[]"
                },
                {
                    "internalType": "uint256[]",
                    "name": "_claimAmounts",
                    "type": "uint256[]"
                }
            ],
            "name": "initialize",
            "outputs": [],
            "stateMutability": "nonpayable",
            "type": "function"
        },
        {
            "inputs": [
                {
                    "internalType": "address",
                    "name": "account",
                    "type": "address"
                }
            ],
            "name": "isAdmin",
            "outputs": [
                {
                    "internalType": "bool",
                    "name": "",
                    "type": "bool"
                }
            ],
            "stateMutability": "view",
            "type": "function"
        },
        {
            "inputs": [
                {
                    "internalType": "address",
                    "name": "account",
                    "type": "address"
                }
            ],
            "name": "isProxyAdmin",
            "outputs": [
                {
                    "internalType": "bool",
                    "name": "",
                    "type": "bool"
                }
            ],
            "stateMutability": "view",
            "type": "function"
        },
        {
            "inputs": [],
            "name": "logEventAddress",
            "outputs": [
                {
                    "internalType": "address",
                    "name": "",
                    "type": "address"
                }
            ],
            "stateMutability": "view",
            "type": "function"
        },
        {
            "inputs": [],
            "name": "name",
            "outputs": [
                {
                    "internalType": "string",
                    "name": "",
                    "type": "string"
                }
            ],
            "stateMutability": "view",
            "type": "function"
        },
        {
            "inputs": [],
            "name": "nowClaimRound",
            "outputs": [
                {
                    "internalType": "uint256",
                    "name": "",
                    "type": "uint256"
                }
            ],
            "stateMutability": "view",
            "type": "function"
        },
        {
            "inputs": [
                {
                    "internalType": "uint256",
                    "name": "_claimCounts",
                    "type": "uint256"
                },
                {
                    "internalType": "uint256[]",
                    "name": "_claimTimes",
                    "type": "uint256[]"
                },
                {
                    "internalType": "uint256[]",
                    "name": "_claimAmounts",
                    "type": "uint256[]"
                }
            ],
            "name": "ownerSetting",
            "outputs": [],
            "stateMutability": "nonpayable",
            "type": "function"
        },
        {
            "inputs": [],
            "name": "pauseProxy",
            "outputs": [
                {
                    "internalType": "bool",
                    "name": "",
                    "type": "bool"
                }
            ],
            "stateMutability": "view",
            "type": "function"
        },
        {
            "inputs": [
                {
                    "internalType": "uint256",
                    "name": "",
                    "type": "uint256"
                }
            ],
            "name": "proxyImplementation",
            "outputs": [
                {
                    "internalType": "address",
                    "name": "",
                    "type": "address"
                }
            ],
            "stateMutability": "view",
            "type": "function"
        },
        {
            "inputs": [],
            "name": "publicSaleVaultAddress",
            "outputs": [
                {
                    "internalType": "address",
                    "name": "",
                    "type": "address"
                }
            ],
            "stateMutability": "view",
            "type": "function"
        },
        {
            "inputs": [],
            "name": "receivedAddress",
            "outputs": [
                {
                    "internalType": "address",
                    "name": "",
                    "type": "address"
                }
            ],
            "stateMutability": "view",
            "type": "function"
        },
        {
            "inputs": [],
            "name": "removeAdmin",
            "outputs": [],
            "stateMutability": "nonpayable",
            "type": "function"
        },
        {
            "inputs": [],
            "name": "removeProxyAdmin",
            "outputs": [],
            "stateMutability": "nonpayable",
            "type": "function"
        },
        {
            "inputs": [
                {
                    "internalType": "bytes32",
                    "name": "role",
                    "type": "bytes32"
                },
                {
                    "internalType": "address",
                    "name": "account",
                    "type": "address"
                }
            ],
            "name": "renounceRole",
            "outputs": [],
            "stateMutability": "nonpayable",
            "type": "function"
        },
        {
            "inputs": [
                {
                    "internalType": "bytes32",
                    "name": "role",
                    "type": "bytes32"
                },
                {
                    "internalType": "address",
                    "name": "account",
                    "type": "address"
                }
            ],
            "name": "revokeRole",
            "outputs": [],
            "stateMutability": "nonpayable",
            "type": "function"
        },
        {
            "inputs": [
                {
                    "internalType": "bytes4",
                    "name": "",
                    "type": "bytes4"
                }
            ],
            "name": "selectorImplementation",
            "outputs": [
                {
                    "internalType": "address",
                    "name": "",
                    "type": "address"
                }
            ],
            "stateMutability": "view",
            "type": "function"
        },
        {
            "inputs": [
                {
                    "internalType": "bool",
                    "name": "_pause",
                    "type": "bool"
                }
            ],
            "name": "setVestingPause",
            "outputs": [],
            "stateMutability": "nonpayable",
            "type": "function"
        },
        {
            "inputs": [],
            "name": "setVestingStop",
            "outputs": [],
            "stateMutability": "nonpayable",
            "type": "function"
        },
        {
            "inputs": [],
            "name": "settingCheck",
            "outputs": [
                {
                    "internalType": "bool",
                    "name": "",
                    "type": "bool"
                }
            ],
            "stateMutability": "view",
            "type": "function"
        },
        {
            "inputs": [
                {
                    "internalType": "bytes4",
                    "name": "interfaceId",
                    "type": "bytes4"
                }
            ],
            "name": "supportsInterface",
            "outputs": [
                {
                    "internalType": "bool",
                    "name": "",
                    "type": "bool"
                }
            ],
            "stateMutability": "view",
            "type": "function"
        },
        {
            "inputs": [],
            "name": "token",
            "outputs": [
                {
                    "internalType": "address",
                    "name": "",
                    "type": "address"
                }
            ],
            "stateMutability": "view",
            "type": "function"
        },
        {
            "inputs": [],
            "name": "totalAllocatedAmount",
            "outputs": [
                {
                    "internalType": "uint256",
                    "name": "",
                    "type": "uint256"
                }
            ],
            "stateMutability": "view",
            "type": "function"
        },
        {
            "inputs": [],
            "name": "totalClaimCounts",
            "outputs": [
                {
                    "internalType": "uint256",
                    "name": "",
                    "type": "uint256"
                }
            ],
            "stateMutability": "view",
            "type": "function"
        },
        {
            "inputs": [],
            "name": "totalClaimsAmount",
            "outputs": [
                {
                    "internalType": "uint256",
                    "name": "",
                    "type": "uint256"
                }
            ],
            "stateMutability": "view",
            "type": "function"
        },
        {
            "inputs": [
                {
                    "internalType": "address",
                    "name": "newAdmin",
                    "type": "address"
                }
            ],
            "name": "transferAdmin",
            "outputs": [],
            "stateMutability": "nonpayable",
            "type": "function"
        },
        {
            "inputs": [
                {
                    "internalType": "address",
                    "name": "newAdmin",
                    "type": "address"
                }
            ],
            "name": "transferProxyAdmin",
            "outputs": [],
            "stateMutability": "nonpayable",
            "type": "function"
        },
        {
            "inputs": [],
            "name": "vestingPause",
            "outputs": [
                {
                    "internalType": "bool",
                    "name": "",
                    "type": "bool"
                }
            ],
            "stateMutability": "view",
            "type": "function"
        },
        {
            "inputs": [],
            "name": "vestingStop",
            "outputs": [
                {
                    "internalType": "bool",
                    "name": "",
                    "type": "bool"
                }
            ],
            "stateMutability": "view",
            "type": "function"
        },
        {
            "inputs": [
                {
                    "internalType": "address",
                    "name": "to",
                    "type": "address"
                },
                {
                    "internalType": "uint256",
                    "name": "amount",
                    "type": "uint256"
                }
            ],
            "name": "withdraw",
            "outputs": [],
            "stateMutability": "nonpayable",
            "type": "function"
        }
    ],
    "bytecode": "0x6080604052600060065534801561001557600080fd5b5061276b806100256000396000f3fe608060405234801561001057600080fd5b506004361061024a5760003560e01c8063704802751161013c578063a217fddf116100be578063a217fddf146104f3578063a4de9179146104fb578063b911135f1461050e578063be72f2d314610537578063cfc412be1461053f578063d547741f14610548578063eab73ca11461055b578063ed5131f514610573578063f3fef3a314610586578063f47f2f1d14610599578063fab878a4146105ac578063fc0c546a146105bf57600080fd5b8063704802751461043757806375829def1461044a5780638356ca4f1461045d5780638953acb7146104705780638a19c8bc1461048357806391d148541461048b578063923ab01c1461049e57806392ca60c1146104b157806393e22659146104c457806396f1557c146104d85780639a202d47146104eb57600080fd5b806334b38cc3116101d057806334b38cc31461033357806336568abe1461034b578063369c272a1461035e57806336d956ea1461037157806341c04d5e146103855780634e71d92d1461039a57806350d2a276146103a2578063550d01a3146103d857806355640008146103fb57806363a8fd89146104045780636545eb1c146104115780636a7184681461042457600080fd5b806301ffc9a71461024f57806306fdde03146102775780630a59fa081461028c5780630f4388c014610299578063117ab874146102ba578063205badc1146102c357806321cf4370146102cd578063248a9ca3146102e157806324d7806c14610304578063256019d6146103175780632f2ff15d14610320575b600080fd5b61026261025d366004612238565b6105d2565b60405190151581526020015b60405180910390f35b61027f610609565b60405161026e91906123db565b600e546102629060ff1681565b6102ac6102a73660046121f5565b610697565b60405190815260200161026e565b6102ac60065481565b6102cb6106b8565b005b60025461026290600160a01b900460ff1681565b6102ac6102ef3660046121f5565b6000908152600f602052604090206001015490565b610262610312366004612138565b61077f565b6102ac60055481565b6102cb61032e36600461220d565b610799565b61033b6107c4565b60405161026e9493929190612593565b6102cb61035936600461220d565b610887565b6102cb61036c366004612278565b610905565b60025461026290600160a81b900460ff1681565b6102ac60008051602061271683398151915281565b6102cb610992565b6103cb6103b0366004612238565b600d602052600090815260409020546001600160a01b031681565b60405161026e919061238a565b6102626103e6366004612138565b600c6020526000908152604090205460ff1681565b6102ac60045481565b600a546102629060ff1681565b6001546103cb906001600160a01b031681565b6102cb610432366004612152565b610d14565b6102cb610445366004612138565b610df0565b6102cb610458366004612138565b610e30565b6102cb61046b366004612138565b610ee3565b6102cb61047e366004612278565b610f6d565b6102ac611037565b61026261049936600461220d565b61112b565b6102cb6104ac3660046121bd565b611156565b6102cb6104bf3660046121f5565b611231565b60025461026290600160b01b900460ff1681565b6102cb6104e6366004612138565b611432565b6102cb611462565b6102ac600081565b6102ac6105093660046121f5565b6114b0565b6103cb61051c3660046121f5565b600b602052600090815260409020546001600160a01b031681565b6102cb61155d565b6102ac60075481565b6102cb61055636600461220d565b61158d565b600e546103cb9061010090046001600160a01b031681565b6102ac6105813660046121f5565b6115b3565b6102cb610594366004612194565b6115c3565b6102626105a7366004612138565b61181b565b6002546103cb906001600160a01b031681565b6000546103cb906001600160a01b031681565b60006001600160e01b03198216637965db0b60e01b148061060357506301ffc9a760e01b6001600160e01b03198316145b92915050565b6003805461061690612685565b80601f016020809104026020016040519081016040528092919081815260200182805461064290612685565b801561068f5780601f106106645761010080835404028352916020019161068f565b820191906000526020600020905b81548152906001019060200180831161067257829003601f168201915b505050505081565b600981815481106106a757600080fd5b600091825260209091200154905081565b6106c13361077f565b806106d057506106d03361181b565b6106f55760405162461bcd60e51b81526004016106ec9061243b565b60405180910390fd5b600254600160b01b900460ff16156107415760405162461bcd60e51b815260206004820152600f60248201526e185b1c9958591e481cdd1bdc1c1959608a1b60448201526064016106ec565b6002805460ff60b01b1916600160b01b1790556040517f7178788d5f2881b0a1a182fc51c1e571a8ccbf552294b3e812cee5d6c95344de90600090a1565b60006106036000805160206127168339815191528361112b565b6000828152600f60205260409020600101546107b58133611827565b6107bf838361188b565b505050565b60006060806000600554600860096006548280548060200260200160405190810160405280929190818152602001828054801561082057602002820191906000526020600020905b81548152602001906001019080831161080c575b505050505092508180548060200260200160405190810160405280929190818152602001828054801561087257602002820191906000526020600020905b81548152602001906001019080831161085e575b50505050509150935093509350935090919293565b6001600160a01b03811633146108f75760405162461bcd60e51b815260206004820152602f60248201527f416363657373436f6e74726f6c3a2063616e206f6e6c792072656e6f756e636560448201526e103937b632b9903337b91039b2b63360891b60648201526084016106ec565b6109018282611911565b5050565b61090e3361181b565b61092a5760405162461bcd60e51b81526004016106ec906124af565b600254600160a01b900460ff161515600114156109595761094d6008600061200e565b6109596009600061200e565b610964838383611978565b600254600160a01b900460ff1615156001146107bf576002805460ff60a01b1916600160a01b179055505050565b600254600160a81b900460ff16156109e05760405162461bcd60e51b815260206004820152601160248201527015995cdd1a5b99c81a5cc81c185d5cd959607a1b60448201526064016106ec565b600254600160b01b900460ff1615610a2f5760405162461bcd60e51b815260206004820152601260248201527115995cdd1a5b99c81a5cc81cdd1bdc1c195960721b60448201526064016106ec565b60006008600081548110610a5357634e487b7160e01b600052603260045260246000fd5b9060005260206000200154118015610a9657506008600081548110610a8857634e487b7160e01b600052603260045260246000fd5b906000526020600020015442115b610adb5760405162461bcd60e51b815260206004820152601660248201527515985d5b1d0e881b9bdd081cdd185c9d1959081e595d60521b60448201526064016106ec565b60075460045411610b275760405162461bcd60e51b815260206004820152601660248201527515985d5b1d0e88185b1c9958591e48105b1b0819d95d60521b60448201526064016106ec565b6000610b31611037565b90506000610b3e826114b0565b905060008111610b8c5760405162461bcd60e51b815260206004820152601960248201527831b630b4b6b0b136329030b6b7bab73a1034b9903d32b9379760391b60448201526064016106ec565b6000546040516370a0823160e01b815282916001600160a01b0316906370a0823190610bbc90309060040161238a565b60206040518083038186803b158015610bd457600080fd5b505afa158015610be8573d6000803e3d6000fd5b505050506040513d601f19601f82011682018060405250810190610c0c9190612260565b1015610c2a5760405162461bcd60e51b81526004016106ec90612527565b6006829055600754610c3d9082906125d0565b60075560005460015460405163a9059cbb60e01b81526001600160a01b039283169263a9059cbb92610c769291169085906004016123c2565b602060405180830381600087803b158015610c9057600080fd5b505af1158015610ca4573d6000803e3d6000fd5b505050506040513d601f19601f82011682018060405250810190610cc891906121d9565b506001546040517ff7a40077ff7a04c7e61f6f26fb13774259ddf1b6bce9ecf26a8276cdd399268391610d089133916001600160a01b031690859061239e565b60405180910390a15050565b610d1d3361181b565b610d395760405162461bcd60e51b81526004016106ec906124af565b826001600160a01b038116610d605760405162461bcd60e51b81526004016106ec9061240e565b826001600160a01b038116610d875760405162461bcd60e51b81526004016106ec9061240e565b826001600160a01b038116610dae5760405162461bcd60e51b81526004016106ec9061240e565b5050600080546001600160a01b039586166001600160a01b03199182161790915560018054948616948216949094179093555060028054919093169116179055565b610df93361181b565b610e155760405162461bcd60e51b81526004016106ec906124af565b610e2d60008051602061271683398151915282610799565b50565b610e393361077f565b80610e485750610e483361181b565b610e645760405162461bcd60e51b81526004016106ec9061243b565b6001600160a01b038116610e8a5760405162461bcd60e51b81526004016106ec9061247d565b336001600160a01b0382161415610eb35760405162461bcd60e51b81526004016106ec906124f7565b610ecb60008051602061271683398151915282610799565b610e2d60008051602061271683398151915233610887565b610eec3361181b565b610f085760405162461bcd60e51b81526004016106ec906124af565b6001600160a01b038116610f2e5760405162461bcd60e51b81526004016106ec9061247d565b336001600160a01b0382161415610f575760405162461bcd60e51b81526004016106ec906124f7565b610f62600082610799565b610e2d600033610887565b6001546001600160a01b03163314610fc75760405162461bcd60e51b815260206004820152601d60248201527f63616c6c6572206973206e6f742072656365697665644164647265737300000060448201526064016106ec565b600254600160a01b900460ff161515600114156110145760405162461bcd60e51b815260206004820152600b60248201526a185b1c9958591e481cd95d60aa1b60448201526064016106ec565b61101f838383611978565b50506002805460ff60a01b1916600160a01b17905550565b6008546000906110475750600090565b600860008154811061106957634e487b7160e01b600052603260045260246000fd5b906000526020600020015442101561107f575060005b600860016005546110909190612627565b815481106110ae57634e487b7160e01b600052603260045260246000fd5b906000526020600020015442106110c457506005545b60005b6005548110156111155742600882815481106110f357634e487b7160e01b600052603260045260246000fd5b9060005260206000200154116111155761110e8160016125d0565b9150611119565b5090565b80611123816126c0565b9150506110c7565b6000918252600f602090815260408084206001600160a01b0393909316845291905290205460ff1690565b61115f3361077f565b8061116e575061116e3361181b565b61118a5760405162461bcd60e51b81526004016106ec9061243b565b60025460ff600160a81b90910416151581151514156111d95760405162461bcd60e51b815260206004820152600b60248201526a73616d65205f706175736560a81b60448201526064016106ec565b60028054821515600160a81b0260ff60a81b199091161790556040517f35aa854f11289d7130153444d4897af359b30fb84724d4d646079f8464bd264f9061122690831515815260200190565b60405180910390a150565b6002546001600160a01b0316331461128b5760405162461bcd60e51b815260206004820152601e60248201527f63616c6c6572206973206e6f74207075626c696353616c655661756c742e000060448201526064016106ec565b600054600254604051636eb1769f60e11b81526001600160a01b0391821660048201523060248201528392919091169063dd62ed3e9060440160206040518083038186803b1580156112dc57600080fd5b505afa1580156112f0573d6000803e3d6000fd5b505050506040513d601f19601f820116820180604052508101906113149190612260565b101561135f5760405162461bcd60e51b815260206004820152601a60248201527930b63637bbb0b731b29034b99034b739bab33334b1b4b2b73a1760311b60448201526064016106ec565b806004600082825461137191906125d0565b90915550506000546002546040516323b872dd60e01b81526001600160a01b03928316926323b872dd926113ae929116903090869060040161239e565b602060405180830381600087803b1580156113c857600080fd5b505af11580156113dc573d6000803e3d6000fd5b505050506040513d601f19601f8201168201806040525081019061140091906121d9565b507f5af8184bef8e4b45eb9f6ed7734d04da38ced226495548f46e0c8ff8d7d9a52433826040516112269291906123c2565b61143b3361181b565b6114575760405162461bcd60e51b81526004016106ec906124af565b610e2d600082611e1c565b61146b3361077f565b8061147a575061147a3361181b565b6114965760405162461bcd60e51b81526004016106ec9061243b565b6114ae60008051602061271683398151915233610887565b565b60006114ba611037565b6114c657506000919050565b60055415806114d55750600454155b156114e257506000919050565b8160055414156114fc576007546004546106039190612627565b6007546064600961150e600186612627565b8154811061152c57634e487b7160e01b600052603260045260246000fd5b90600052602060002001546004546115449190612608565b61154e91906125e8565b6106039190612627565b919050565b6115663361181b565b6115825760405162461bcd60e51b81526004016106ec906124af565b6114ae600033610887565b6000828152600f60205260409020600101546115a98133611827565b6107bf8383611911565b600881815481106106a757600080fd5b6115cc3361077f565b806115db57506115db3361181b565b6115f75760405162461bcd60e51b81526004016106ec9061243b565b816001600160a01b03811661161e5760405162461bcd60e51b81526004016106ec9061240e565b81600081116116635760405162461bcd60e51b81526020600482015260116024820152705661756c743a207a65726f2076616c756560781b60448201526064016106ec565b600254600160b01b900460ff1615156001146116ba5760405162461bcd60e51b815260206004820152601660248201527534ba1034b9903737ba1039ba37b81039ba30ba3ab99760511b60448201526064016106ec565b6000546040516370a0823160e01b815284916001600160a01b0316906370a08231906116ea90309060040161238a565b60206040518083038186803b15801561170257600080fd5b505afa158015611716573d6000803e3d6000fd5b505050506040513d601f19601f8201168201806040525081019061173a9190612260565b10156117585760405162461bcd60e51b81526004016106ec90612527565b60005460405163a9059cbb60e01b81526001600160a01b039091169063a9059cbb9061178a90879087906004016123c2565b602060405180830381600087803b1580156117a457600080fd5b505af11580156117b8573d6000803e3d6000fd5b505050506040513d601f19601f820116820180604052508101906117dc91906121d9565b507e01239a3f8c8e8316dc2cd2a06b4c1794fc40cae544de07c5d2dcd5799f30c3848460405161180d9291906123c2565b60405180910390a150505050565b6000610603818361112b565b611831828261112b565b61090157611849816001600160a01b03166014611e26565b611854836020611e26565b60405160200161186592919061231b565b60408051601f198184030181529082905262461bcd60e51b82526106ec916004016123db565b611895828261112b565b610901576000828152600f602090815260408083206001600160a01b03851684529091529020805460ff191660011790556118cd3390565b6001600160a01b0316816001600160a01b0316837f2f8788117e7eff1d82e926ec794901d17c78024a50270940304540a733656f0d60405160405180910390a45050565b61191b828261112b565b15610901576000828152600f602090815260408083206001600160a01b0385168085529252808320805460ff1916905551339285917ff6391f5c32d9c69d2a47ea670b442974b53935d1edc7fd64eb21e047a839171b9190a45050565b600083116119d65760405162461bcd60e51b815260206004820152602560248201527f636c61696d436f756e7473206d7573742062652067726561746572207468616e604482015264207a65726f60d81b60648201526084016106ec565b8151831480156119e65750805183145b611a415760405162461bcd60e51b815260206004820152602660248201527f77726f6e67205f636c61696d54696d65732f5f636c61696d416d6f756e7473206044820152650d8cadccee8d60d31b60648201526084016106ec565b80611a4d600185612627565b81518110611a6b57634e487b7160e01b600052603260045260246000fd5b6020026020010151606414611ac05760405162461bcd60e51b815260206004820152601b60248201527a77726f6e6720746865206c61737420636c61696d416d6f756e747360281b60448201526064016106ec565b60015b83811015611c4f574283611ad8600184612627565b81518110611af657634e487b7160e01b600052603260045260246000fd5b6020026020010151118015611b62575082611b12600183612627565b81518110611b3057634e487b7160e01b600052603260045260246000fd5b6020026020010151838281518110611b5857634e487b7160e01b600052603260045260246000fd5b6020026020010151115b611ba15760405162461bcd60e51b815260206004820152601060248201526f77726f6e6720636c61696d54696d657360801b60448201526064016106ec565b81611bad600183612627565b81518110611bcb57634e487b7160e01b600052603260045260246000fd5b6020026020010151828281518110611bf357634e487b7160e01b600052603260045260246000fd5b602002602001015111611c3d5760405162461bcd60e51b815260206004820152601260248201527177726f6e6720636c61696d416d6f756e747360701b60448201526064016106ec565b80611c47816126c0565b915050611ac3565b6005849055836001600160401b03811115611c7a57634e487b7160e01b600052604160045260246000fd5b604051908082528060200260200182016040528015611ca3578160200160208202803683370190505b508051611cb89160089160209091019061202c565b50836001600160401b03811115611cdf57634e487b7160e01b600052604160045260246000fd5b604051908082528060200260200182016040528015611d08578160200160208202803683370190505b508051611d1d9160099160209091019061202c565b50600090505b83811015611de957828181518110611d4b57634e487b7160e01b600052603260045260246000fd5b602002602001015160088281548110611d7457634e487b7160e01b600052603260045260246000fd5b9060005260206000200181905550818181518110611da257634e487b7160e01b600052603260045260246000fd5b602002602001015160098281548110611dcb57634e487b7160e01b600052603260045260246000fd5b60009182526020909120015580611de1816126c0565b915050611d23565b7f12873a1ba5439c01ce32f029af47fb34c77d83bb82778dc104901021ac0a73e084848460405161180d9392919061255e565b610901828261188b565b60606000611e35836002612608565b611e409060026125d0565b6001600160401b03811115611e6557634e487b7160e01b600052604160045260246000fd5b6040519080825280601f01601f191660200182016040528015611e8f576020820181803683370190505b509050600360fc1b81600081518110611eb857634e487b7160e01b600052603260045260246000fd5b60200101906001600160f81b031916908160001a905350600f60fb1b81600181518110611ef557634e487b7160e01b600052603260045260246000fd5b60200101906001600160f81b031916908160001a9053506000611f19846002612608565b611f249060016125d0565b90505b6001811115611fb8576f181899199a1a9b1b9c1cb0b131b232b360811b85600f1660108110611f6657634e487b7160e01b600052603260045260246000fd5b1a60f81b828281518110611f8a57634e487b7160e01b600052603260045260246000fd5b60200101906001600160f81b031916908160001a90535060049490941c93611fb18161266e565b9050611f27565b5083156120075760405162461bcd60e51b815260206004820181905260248201527f537472696e67733a20686578206c656e67746820696e73756666696369656e7460448201526064016106ec565b9392505050565b5080546000825590600052602060002090810190610e2d919061206f565b828054828255906000526020600020908101928215612067579160200282015b8281111561206757825182559160200191906001019061204c565b506111159291505b5b808211156111155760008155600101612070565b80356001600160a01b038116811461155857600080fd5b600082601f8301126120ab578081fd5b813560206001600160401b03808311156120c7576120c76126f1565b8260051b604051601f19603f830116810181811084821117156120ec576120ec6126f1565b6040528481528381019250868401828801850189101561210a578687fd5b8692505b8583101561212c57803584529284019260019290920191840161210e565b50979650505050505050565b600060208284031215612149578081fd5b61200782612084565b600080600060608486031215612166578182fd5b61216f84612084565b925061217d60208501612084565b915061218b60408501612084565b90509250925092565b600080604083850312156121a6578182fd5b6121af83612084565b946020939093013593505050565b6000602082840312156121ce578081fd5b813561200781612707565b6000602082840312156121ea578081fd5b815161200781612707565b600060208284031215612206578081fd5b5035919050565b6000806040838503121561221f578182fd5b8235915061222f60208401612084565b90509250929050565b600060208284031215612249578081fd5b81356001600160e01b031981168114612007578182fd5b600060208284031215612271578081fd5b5051919050565b60008060006060848603121561228c578283fd5b8335925060208401356001600160401b03808211156122a9578384fd5b6122b58783880161209b565b935060408601359150808211156122ca578283fd5b506122d78682870161209b565b9150509250925092565b6000815180845260208085019450808401835b83811015612310578151875295820195908201906001016122f4565b509495945050505050565b76020b1b1b2b9b9a1b7b73a3937b61d1030b1b1b7bab73a1604d1b81526000835161234d81601785016020880161263e565b7001034b99036b4b9b9b4b733903937b6329607d1b601791840191820152835161237e81602884016020880161263e565b01602801949350505050565b6001600160a01b0391909116815260200190565b6001600160a01b039384168152919092166020820152604081019190915260600190565b6001600160a01b03929092168252602082015260400190565b60208152600082518060208401526123fa81604085016020870161263e565b601f01601f19169190910160400192915050565b6020808252601390820152725661756c743a207a65726f206164647265737360681b604082015260600190565b60208082526022908201527f41636365737369626c653a2043616c6c6572206973206e6f7420616e2061646d60408201526134b760f11b606082015260800190565b60208082526018908201527741636365737369626c653a207a65726f206164647265737360401b604082015260600190565b60208082526028908201527f41636365737369626c653a2043616c6c6572206973206e6f7420616e2070726f6040820152673c3c9030b236b4b760c11b606082015260800190565b60208082526016908201527520b1b1b2b9b9b4b136329d1039b0b6b29030b236b4b760511b604082015260600190565b6020808252601f908201527f5661756c743a2062616c616e636520697320696e73756666696369656e742e00604082015260600190565b83815260606020820152600061257760608301856122e1565b828103604084015261258981856122e1565b9695505050505050565b8481526080602082015260006125ac60808301866122e1565b82810360408401526125be81866122e1565b91505082606083015295945050505050565b600082198211156125e3576125e36126db565b500190565b60008261260357634e487b7160e01b81526012600452602481fd5b500490565b6000816000190483118215151615612622576126226126db565b500290565b600082821015612639576126396126db565b500390565b60005b83811015612659578181015183820152602001612641565b83811115612668576000848401525b50505050565b60008161267d5761267d6126db565b506000190190565b600181811c9082168061269957607f821691505b602082108114156126ba57634e487b7160e01b600052602260045260246000fd5b50919050565b60006000198214156126d4576126d46126db565b5060010190565b634e487b7160e01b600052601160045260246000fd5b634e487b7160e01b600052604160045260246000fd5b8015158114610e2d57600080fdfe52eafc11f6f81f86878bffd31109a0d92f37506527754f00788853ff9f63b130a26469706673582212208370ad5162fa7f4b7604ac6d8a257f74b1b0153ff312fc5ac1e6eb6df0b9a51e64736f6c63430008040033",
    "linkReferences": {},
    "deployedLinkReferences": {}
}