{
    "_format": "hh-sol-artifact-1",
    "contractName": "VestingPublicFundFactory",
    "sourceName": "contracts/VestingPublicFundFactory.sol",
    "abi": [
        {
            "inputs": [],
            "stateMutability": "nonpayable",
            "type": "constructor"
        },
        {
            "anonymous": false,
            "inputs": [
                {
                    "indexed": false,
                    "internalType": "address",
                    "name": "contractAddress",
                    "type": "address"
                },
                {
                    "indexed": false,
                    "internalType": "string",
                    "name": "name",
                    "type": "string"
                }
            ],
            "name": "CreatedVestingPublicFund",
            "type": "event"
        },
        {
            "anonymous": false,
            "inputs": [
                {
                    "indexed": true,
                    "internalType": "bytes32",
                    "name": "role",
                    "type": "bytes32"
                },
                {
                    "indexed": true,
                    "internalType": "bytes32",
                    "name": "previousAdminRole",
                    "type": "bytes32"
                },
                {
                    "indexed": true,
                    "internalType": "bytes32",
                    "name": "newAdminRole",
                    "type": "bytes32"
                }
            ],
            "name": "RoleAdminChanged",
            "type": "event"
        },
        {
            "anonymous": false,
            "inputs": [
                {
                    "indexed": true,
                    "internalType": "bytes32",
                    "name": "role",
                    "type": "bytes32"
                },
                {
                    "indexed": true,
                    "internalType": "address",
                    "name": "account",
                    "type": "address"
                },
                {
                    "indexed": true,
                    "internalType": "address",
                    "name": "sender",
                    "type": "address"
                }
            ],
            "name": "RoleGranted",
            "type": "event"
        },
        {
            "anonymous": false,
            "inputs": [
                {
                    "indexed": true,
                    "internalType": "bytes32",
                    "name": "role",
                    "type": "bytes32"
                },
                {
                    "indexed": true,
                    "internalType": "address",
                    "name": "account",
                    "type": "address"
                },
                {
                    "indexed": true,
                    "internalType": "address",
                    "name": "sender",
                    "type": "address"
                }
            ],
            "name": "RoleRevoked",
            "type": "event"
        },
        {
            "inputs": [],
            "name": "ADMIN_ROLE",
            "outputs": [
                {
                    "internalType": "bytes32",
                    "name": "",
                    "type": "bytes32"
                }
            ],
            "stateMutability": "view",
            "type": "function"
        },
        {
            "inputs": [],
            "name": "BURNER_ROLE",
            "outputs": [
                {
                    "internalType": "bytes32",
                    "name": "",
                    "type": "bytes32"
                }
            ],
            "stateMutability": "view",
            "type": "function"
        },
        {
            "inputs": [],
            "name": "CLAIMER_ROLE",
            "outputs": [
                {
                    "internalType": "bytes32",
                    "name": "",
                    "type": "bytes32"
                }
            ],
            "stateMutability": "view",
            "type": "function"
        },
        {
            "inputs": [],
            "name": "DEFAULT_ADMIN_ROLE",
            "outputs": [
                {
                    "internalType": "bytes32",
                    "name": "",
                    "type": "bytes32"
                }
            ],
            "stateMutability": "view",
            "type": "function"
        },
        {
            "inputs": [],
            "name": "MINTER_ROLE",
            "outputs": [
                {
                    "internalType": "bytes32",
                    "name": "",
                    "type": "bytes32"
                }
            ],
            "stateMutability": "view",
            "type": "function"
        },
        {
            "inputs": [
                {
                    "internalType": "address",
                    "name": "account",
                    "type": "address"
                }
            ],
            "name": "addAdmin",
            "outputs": [],
            "stateMutability": "nonpayable",
            "type": "function"
        },
        {
            "inputs": [
                {
                    "internalType": "string",
                    "name": "_name",
                    "type": "string"
                },
                {
                    "internalType": "address",
                    "name": "publicSaleAddress",
                    "type": "address"
                },
                {
                    "internalType": "address",
                    "name": "receivedAddress",
                    "type": "address"
                }
            ],
            "name": "create",
            "outputs": [
                {
                    "internalType": "address",
                    "name": "",
                    "type": "address"
                }
            ],
            "stateMutability": "nonpayable",
            "type": "function"
        },
        {
            "inputs": [
                {
                    "internalType": "uint256",
                    "name": "",
                    "type": "uint256"
                }
            ],
            "name": "createdContracts",
            "outputs": [
                {
                    "internalType": "address",
                    "name": "contractAddress",
                    "type": "address"
                },
                {
                    "internalType": "string",
                    "name": "name",
                    "type": "string"
                }
            ],
            "stateMutability": "view",
            "type": "function"
        },
        {
            "inputs": [],
            "name": "daoAddress",
            "outputs": [
                {
                    "internalType": "address",
                    "name": "",
                    "type": "address"
                }
            ],
            "stateMutability": "view",
            "type": "function"
        },
        {
            "inputs": [
                {
                    "internalType": "uint256",
                    "name": "_index",
                    "type": "uint256"
                }
            ],
            "name": "getContracts",
            "outputs": [
                {
                    "internalType": "address",
                    "name": "contractAddress",
                    "type": "address"
                },
                {
                    "internalType": "string",
                    "name": "name",
                    "type": "string"
                }
            ],
            "stateMutability": "view",
            "type": "function"
        },
        {
            "inputs": [
                {
                    "internalType": "bytes32",
                    "name": "role",
                    "type": "bytes32"
                }
            ],
            "name": "getRoleAdmin",
            "outputs": [
                {
                    "internalType": "bytes32",
                    "name": "",
                    "type": "bytes32"
                }
            ],
            "stateMutability": "view",
            "type": "function"
        },
        {
            "inputs": [
                {
                    "internalType": "bytes32",
                    "name": "role",
                    "type": "bytes32"
                },
                {
                    "internalType": "address",
                    "name": "account",
                    "type": "address"
                }
            ],
            "name": "grantRole",
            "outputs": [],
            "stateMutability": "nonpayable",
            "type": "function"
        },
        {
            "inputs": [
                {
                    "internalType": "bytes32",
                    "name": "role",
                    "type": "bytes32"
                },
                {
                    "internalType": "address",
                    "name": "account",
                    "type": "address"
                }
            ],
            "name": "hasRole",
            "outputs": [
                {
                    "internalType": "bool",
                    "name": "",
                    "type": "bool"
                }
            ],
            "stateMutability": "view",
            "type": "function"
        },
        {
            "inputs": [
                {
                    "internalType": "address",
                    "name": "account",
                    "type": "address"
                }
            ],
            "name": "isAdmin",
            "outputs": [
                {
                    "internalType": "bool",
                    "name": "",
                    "type": "bool"
                }
            ],
            "stateMutability": "view",
            "type": "function"
        },
        {
            "inputs": [],
            "name": "lastestCreated",
            "outputs": [
                {
                    "internalType": "address",
                    "name": "contractAddress",
                    "type": "address"
                },
                {
                    "internalType": "string",
                    "name": "name",
                    "type": "string"
                }
            ],
            "stateMutability": "view",
            "type": "function"
        },
        {
            "inputs": [],
            "name": "logEventAddress",
            "outputs": [
                {
                    "internalType": "address",
                    "name": "",
                    "type": "address"
                }
            ],
            "stateMutability": "view",
            "type": "function"
        },
        {
            "inputs": [
                {
                    "internalType": "address",
                    "name": "account",
                    "type": "address"
                }
            ],
            "name": "removeAdmin",
            "outputs": [],
            "stateMutability": "nonpayable",
            "type": "function"
        },
        {
            "inputs": [
                {
                    "internalType": "bytes32",
                    "name": "role",
                    "type": "bytes32"
                },
                {
                    "internalType": "address",
                    "name": "account",
                    "type": "address"
                }
            ],
            "name": "renounceRole",
            "outputs": [],
            "stateMutability": "nonpayable",
            "type": "function"
        },
        {
            "inputs": [
                {
                    "internalType": "bytes32",
                    "name": "role",
                    "type": "bytes32"
                },
                {
                    "internalType": "address",
                    "name": "account",
                    "type": "address"
                }
            ],
            "name": "revokeRole",
            "outputs": [],
            "stateMutability": "nonpayable",
            "type": "function"
        },
        {
            "inputs": [
                {
                    "internalType": "address[2]",
                    "name": "addrs",
                    "type": "address[2]"
                }
            ],
            "name": "setBaseInfo",
            "outputs": [],
            "stateMutability": "nonpayable",
            "type": "function"
        },
        {
            "inputs": [
                {
                    "internalType": "address",
                    "name": "addr",
                    "type": "address"
                }
            ],
            "name": "setLogEventAddress",
            "outputs": [],
            "stateMutability": "nonpayable",
            "type": "function"
        },
        {
            "inputs": [
                {
                    "internalType": "address",
                    "name": "_logic",
                    "type": "address"
                }
            ],
            "name": "setLogic",
            "outputs": [],
            "stateMutability": "nonpayable",
            "type": "function"
        },
        {
            "inputs": [
                {
                    "internalType": "address",
                    "name": "addr",
                    "type": "address"
                }
            ],
            "name": "setUpgradeAdmin",
            "outputs": [],
            "stateMutability": "nonpayable",
            "type": "function"
        },
        {
            "inputs": [
                {
                    "internalType": "bytes4",
                    "name": "interfaceId",
                    "type": "bytes4"
                }
            ],
            "name": "supportsInterface",
            "outputs": [
                {
                    "internalType": "bool",
                    "name": "",
                    "type": "bool"
                }
            ],
            "stateMutability": "view",
            "type": "function"
        },
        {
            "inputs": [],
            "name": "token",
            "outputs": [
                {
                    "internalType": "address",
                    "name": "",
                    "type": "address"
                }
            ],
            "stateMutability": "view",
            "type": "function"
        },
        {
            "inputs": [],
            "name": "totalCreatedContracts",
            "outputs": [
                {
                    "internalType": "uint256",
                    "name": "",
                    "type": "uint256"
                }
            ],
            "stateMutability": "view",
            "type": "function"
        },
        {
            "inputs": [
                {
                    "internalType": "address",
                    "name": "newAdmin",
                    "type": "address"
                }
            ],
            "name": "transferAdmin",
            "outputs": [],
            "stateMutability": "nonpayable",
            "type": "function"
        },
        {
            "inputs": [],
            "name": "upgradeAdmin",
            "outputs": [
                {
                    "internalType": "address",
                    "name": "",
                    "type": "address"
                }
            ],
            "stateMutability": "view",
            "type": "function"
        },
        {
            "inputs": [
                {
                    "internalType": "address",
                    "name": "_contract",
                    "type": "address"
                },
                {
                    "internalType": "bytes4[]",
                    "name": "_selectors",
                    "type": "bytes4[]"
                },
                {
                    "internalType": "address",
                    "name": "_imp",
                    "type": "address"
                }
            ],
            "name": "upgradeContractFunction",
            "outputs": [],
            "stateMutability": "nonpayable",
            "type": "function"
        },
        {
            "inputs": [
                {
                    "internalType": "address",
                    "name": "_contract",
                    "type": "address"
                },
                {
                    "internalType": "address",
                    "name": "_logic",
                    "type": "address"
                },
                {
                    "internalType": "uint256",
                    "name": "_index",
                    "type": "uint256"
                },
                {
                    "internalType": "bool",
                    "name": "_alive",
                    "type": "bool"
                }
            ],
            "name": "upgradeContractLogic",
            "outputs": [],
            "stateMutability": "nonpayable",
            "type": "function"
        },
        {
            "inputs": [],
            "name": "vaultLogic",
            "outputs": [
                {
                    "internalType": "address",
                    "name": "",
                    "type": "address"
                }
            ],
            "stateMutability": "view",
            "type": "function"
        }
    ],
    "bytecode": "0x60806040523480156200001157600080fd5b50600060015562000032600080516020620043e48339815191528062000065565b6200004d600080516020620043e483398151915233620000b0565b600380546001600160a01b0319163317905562000160565b600082815260208190526040808220600101805490849055905190918391839186917fbd79b86ffe0ab8e8776151514217cd7cacd52c909f66475c3af44e129f0b00ff9190a4505050565b620000bc8282620000c0565b5050565b6000828152602081815260408083206001600160a01b038516845290915290205460ff16620000bc576000828152602081815260408083206001600160a01b03851684529091529020805460ff191660011790556200011c3390565b6001600160a01b0316816001600160a01b0316837f2f8788117e7eff1d82e926ec794901d17c78024a50270940304540a733656f0d60405160405180910390a45050565b61427480620001706000396000f3fe60806040523480156200001157600080fd5b5060043610620001b85760003560e01c806375b238fc1162000103578063c4d5608a116200009e578063c4d5608a1462000412578063d05261871462000426578063d53913931462000430578063d547741f1462000458578063e97ad288146200046f578063eab73ca11462000486578063fc0c546a146200049a578063fc5f18d314620004ae57600080fd5b806375b238fc146200036b5780637e2826f6146200038257806391d1485414620003995780639342f41714620003b0578063a217fddf14620003c7578063b078147a14620003d0578063b4d4028014620003e4578063bfc91d3614620003fb57600080fd5b806301ffc9a714620001bd5780630881139714620001e95780631785f53c14620002105780632131c68c1462000229578063248a9ca3146200024c57806324d7806c1462000281578063282c51f314620002985780632f2ff15d14620002c0578063338bad5f14620002d757806336568abe14620002e1578063439e23fd14620002f857806367c5f8de146200030f57806370480275146200032657806371857000146200033d57806375829def1462000354575b600080fd5b620001d4620001ce36600462001a78565b620004d6565b60405190151581526020015b60405180910390f35b62000200620001fa36600462001a31565b6200050e565b604051620001e092919062001c51565b6200022762000221366004620018f9565b620005c5565b005b6007546200023d906001600160a01b031681565b604051620001e0919062001bea565b620002726200025d36600462001a31565b60009081526020819052604090206001015490565b604051908152602001620001e0565b620001d462000292366004620018f9565b62000616565b620002727f9667e80708b6eeeb0053fa0cca44e028ff548e2a9f029edfeac87c118b08b7c881565b62000227620002d136600462001a4a565b62000633565b6200020062000662565b62000227620002f236600462001a4a565b6200077b565b620002006200030936600462001a31565b620007fd565b620002276200032036600462001916565b620008e3565b6200022762000337366004620018f9565b620009a4565b620002276200034e366004620018f9565b620009e9565b6200022762000365366004620018f9565b62000abb565b620002726000805160206200421f83398151915281565b6200022762000393366004620018f9565b62000bc2565b620001d4620003aa36600462001a4a565b62000c6a565b62000227620003c1366004620018f9565b62000c93565b62000272600081565b6004546200023d906001600160a01b031681565b62000227620003f53660046200196e565b62000d3b565b6200023d6200040c36600462001a95565b62000dc1565b6003546200023d906001600160a01b031681565b6200027260015481565b620002727ff0887ba65ee2024ea881d91b74c2450ef19e1557f03bed3ea9f16b037cbe2dc981565b620002276200046936600462001a4a565b62001386565b620002276200048036600462001a09565b620013b0565b6005546200023d906001600160a01b031681565b6006546200023d906001600160a01b031681565b620002727fe5667d34d7ea8d6fdb3aa71a0a5b85e4cf7f68356dd003cd638556b0eea2bce581565b60006001600160e01b03198216637965db0b60e01b14806200050857506301ffc9a760e01b6001600160e01b03198316145b92915050565b600260205260009081526040902080546001820180546001600160a01b0390921692916200053c9062001eb2565b80601f01602080910402602001604051908101604052809291908181526020018280546200056a9062001eb2565b8015620005bb5780601f106200058f57610100808354040283529160200191620005bb565b820191906000526020600020905b8154815290600101906020018083116200059d57829003601f168201915b5050505050905082565b620005d03362000616565b620005f85760405162461bcd60e51b8152600401620005ef9062001dcc565b60405180910390fd5b620006136000805160206200421f833981519152826200077b565b50565b6000620005086000805160206200421f8339815191528362000c6a565b600082815260208190526040902060010154620006518133620014b3565b6200065d838362001522565b505050565b60006060600060015411156200076657600260006001805462000686919062001e4b565b81526020810191909152604001600090812054600180546001600160a01b03909216926002929091620006b99162001e4b565b8152602001908152602001600020600101808054620006d89062001eb2565b80601f0160208091040260200160405190810160405280929190818152602001828054620007069062001eb2565b8015620007575780601f106200072b5761010080835404028352916020019162000757565b820191906000526020600020905b8154815290600101906020018083116200073957829003601f168201915b50505050509050915091509091565b50506040805160208101909152600080825291565b6001600160a01b0381163314620007ed5760405162461bcd60e51b815260206004820152602f60248201527f416363657373436f6e74726f6c3a2063616e206f6e6c792072656e6f756e636560448201526e103937b632b9903337b91039b2b63360891b6064820152608401620005ef565b620007f98282620015aa565b5050565b60006060600154831015620008cb5760008381526002602052604090208054600190910180546001600160a01b039092169181906200083c9062001eb2565b80601f01602080910402602001604051908101604052809291908181526020018280546200086a9062001eb2565b8015620008bb5780601f106200088f57610100808354040283529160200191620008bb565b820191906000526020600020905b8154815290600101906020018083116200089d57829003601f168201915b5050505050905091509150915091565b50506040805160208101909152600080825292909150565b620008ee3362000616565b6200090d5760405162461bcd60e51b8152600401620005ef9062001dcc565b836001600160a01b038116620009375760405162461bcd60e51b8152600401620005ef9062001da0565b604051637cd5f66360e01b81526001600160a01b03861690637cd5f66390620009699087908790879060040162001bfe565b600060405180830381600087803b1580156200098457600080fd5b505af115801562000999573d6000803e3d6000fd5b505050505050505050565b620009af3362000616565b620009ce5760405162461bcd60e51b8152600401620005ef9062001dcc565b620006136000805160206200421f8339815191528262000633565b806001600160a01b03811662000a135760405162461bcd60e51b8152600401620005ef9062001da0565b62000a1e3362000616565b62000a3d5760405162461bcd60e51b8152600401620005ef9062001dcc565b6004546001600160a01b038381169116141562000a985760405162461bcd60e51b815260206004820152601860248201527730b63932b0b23c9039b2ba103a3434b9903b32b939b4b7b760411b6044820152606401620005ef565b50600480546001600160a01b0319166001600160a01b0392909216919091179055565b62000ac63362000616565b62000ae55760405162461bcd60e51b8152600401620005ef9062001dcc565b6001600160a01b03811662000b385760405162461bcd60e51b815260206004820152601860248201527741636365737369626c653a207a65726f206164647265737360401b6044820152606401620005ef565b336001600160a01b038216141562000b8c5760405162461bcd60e51b815260206004820152601660248201527520b1b1b2b9b9b4b136329d1039b0b6b29030b236b4b760511b6044820152606401620005ef565b62000ba76000805160206200421f8339815191528262000633565b620006136000805160206200421f833981519152336200077b565b62000bcd3362000616565b62000bec5760405162461bcd60e51b8152600401620005ef9062001dcc565b806001600160a01b03811662000c165760405162461bcd60e51b8152600401620005ef9062001da0565b6005546001600160a01b038381169116141562000c475760405162461bcd60e51b8152600401620005ef9062001d7c565b50600580546001600160a01b0319166001600160a01b0392909216919091179055565b6000918252602082815260408084206001600160a01b0393909316845291905290205460ff1690565b62000c9e3362000616565b62000cbd5760405162461bcd60e51b8152600401620005ef9062001dcc565b806001600160a01b03811662000ce75760405162461bcd60e51b8152600401620005ef9062001da0565b6003546001600160a01b038381169116141562000d185760405162461bcd60e51b8152600401620005ef9062001d7c565b50600380546001600160a01b0319166001600160a01b0392909216919091179055565b62000d463362000616565b62000d655760405162461bcd60e51b8152600401620005ef9062001dcc565b836001600160a01b03811662000d8f5760405162461bcd60e51b8152600401620005ef9062001da0565b604051634a5df50f60e01b81526001600160a01b03861690634a5df50f90620009699087908790879060040162001c7f565b60008362000e025760405162461bcd60e51b815260206004820152600d60248201526c6e616d6520697320656d70747960981b6044820152606401620005ef565b6006546001600160a01b03161580159062000e2757506007546001600160a01b031615155b801562000e3e57506004546001600160a01b031615155b801562000e5557506003546001600160a01b031615155b801562000e6a57506001600160a01b03831615155b801562000e7f57506001600160a01b03821615155b62000ec45760405162461bcd60e51b8152602060048201526014602482015273736f6d652061646472657373206973207a65726f60601b6044820152606401620005ef565b600060405162000ed4906200180f565b604051809103906000f08015801562000ef1573d6000803e3d6000fd5b5090506001600160a01b03811662000f4a5760405162461bcd60e51b815260206004820152601b60248201527a56657374696e675075626c696346756e6450726f7879207a65726f60281b6044820152606401620005ef565b6003546040516325bc555f60e21b81526001600160a01b03838116926396f1557c9262000f7e929091169060040162001bea565b600060405180830381600087803b15801562000f9957600080fd5b505af115801562000fae573d6000803e3d6000fd5b5050600354604051637048027560e01b81526001600160a01b0380861694506370480275935062000fe492169060040162001bea565b600060405180830381600087803b15801562000fff57600080fd5b505af115801562001014573d6000803e3d6000fd5b505060048054604051637cd5f66360e01b81526001600160a01b038087169550637cd5f663945062001050939216916000916001910162001bfe565b600060405180830381600087803b1580156200106b57600080fd5b505af115801562001080573d6000803e3d6000fd5b5050600554604051630b8717f760e11b81526001600160a01b03918216600482015260016024820152908416925063170e2fee9150604401600060405180830381600087803b158015620010d357600080fd5b505af1158015620010e8573d6000803e3d6000fd5b505060065460075460405163363706c560e21b81526001600160a01b03808716955063d8dc1b1494506200112d938c938c939183169216908b908b9060040162001d1e565b600060405180830381600087803b1580156200114857600080fd5b505af11580156200115d573d6000803e3d6000fd5b50505050806001600160a01b031663be72f2d36040518163ffffffff1660e01b8152600401600060405180830381600087803b1580156200119d57600080fd5b505af1158015620011b2573d6000803e3d6000fd5b505050506040518060400160405280826001600160a01b0316815260200187878080601f0160208091040260200160405190810160405280939291908181526020018383808284376000920182905250939094525050600180548252600260209081526040909220845181546001600160a01b0319166001600160a01b0390911617815584830151805191945062001250939285019201906200181d565b50506001805491506000620012658362001ee9565b90915550506005546040516001600160a01b039091169063beee31bf907f4588b6e126fef4a2d4bbbd0e0ac55095582563c9be28e8a5ff0d1e78e1e09b0f907f40f46bf4443f90ffeab6fa7b455ce7d86edd010fd44ec7ec62afaed1254a0295903090620012dc9087908d908d9060200162001c21565b6040516020818303038152906040526040518563ffffffff1660e01b81526004016200130c949392919062001ce5565b600060405180830381600087803b1580156200132757600080fd5b505af11580156200133c573d6000803e3d6000fd5b505050507fd3627a4b6003ef29cef20aa68e9c9403369a12866b9aa218f8452ab355dc4ba9818787604051620013759392919062001c21565b60405180910390a195945050505050565b600082815260208190526040902060010154620013a48133620014b3565b6200065d8383620015aa565b620013bb3362000616565b620013da5760405162461bcd60e51b8152600401620005ef9062001dcc565b620013e96020820182620018f9565b6001600160a01b038116620014125760405162461bcd60e51b8152600401620005ef9062001da0565b620014246040830160208401620018f9565b6001600160a01b0381166200144d5760405162461bcd60e51b8152600401620005ef9062001da0565b6200145c6020840184620018f9565b600680546001600160a01b0319166001600160a01b03929092169190911790556200148e6040840160208501620018f9565b600780546001600160a01b0319166001600160a01b0392909216919091179055505050565b620014bf828262000c6a565b620007f957620014da816001600160a01b0316601462001612565b620014e783602062001612565b604051602001620014fa92919062001b77565b60408051601f198184030181529082905262461bcd60e51b8252620005ef9160040162001d67565b6200152e828262000c6a565b620007f9576000828152602081815260408083206001600160a01b03851684529091529020805460ff19166001179055620015663390565b6001600160a01b0316816001600160a01b0316837f2f8788117e7eff1d82e926ec794901d17c78024a50270940304540a733656f0d60405160405180910390a45050565b620015b6828262000c6a565b15620007f9576000828152602081815260408083206001600160a01b0385168085529252808320805460ff1916905551339285917ff6391f5c32d9c69d2a47ea670b442974b53935d1edc7fd64eb21e047a839171b9190a45050565b606060006200162383600262001e29565b6200163090600262001e0e565b67ffffffffffffffff8111156200165757634e487b7160e01b600052604160045260246000fd5b6040519080825280601f01601f19166020018201604052801562001682576020820181803683370190505b509050600360fc1b81600081518110620016ac57634e487b7160e01b600052603260045260246000fd5b60200101906001600160f81b031916908160001a905350600f60fb1b81600181518110620016ea57634e487b7160e01b600052603260045260246000fd5b60200101906001600160f81b031916908160001a90535060006200171084600262001e29565b6200171d90600162001e0e565b90505b6001811115620017b7576f181899199a1a9b1b9c1cb0b131b232b360811b85600f16601081106200176157634e487b7160e01b600052603260045260246000fd5b1a60f81b8282815181106200178657634e487b7160e01b600052603260045260246000fd5b60200101906001600160f81b031916908160001a90535060049490941c93620017af8162001e98565b905062001720565b508315620018085760405162461bcd60e51b815260206004820181905260248201527f537472696e67733a20686578206c656e67746820696e73756666696369656e746044820152606401620005ef565b9392505050565b6123018062001f1e83390190565b8280546200182b9062001eb2565b90600052602060002090601f0160209004810192826200184f57600085556200189a565b82601f106200186a57805160ff19168380011785556200189a565b828001600101855582156200189a579182015b828111156200189a5782518255916020019190600101906200187d565b50620018a8929150620018ac565b5090565b5b80821115620018a85760008155600101620018ad565b80356001600160a01b0381168114620018db57600080fd5b919050565b80356001600160e01b031981168114620018db57600080fd5b6000602082840312156200190b578081fd5b6200180882620018c3565b600080600080608085870312156200192c578283fd5b6200193785620018c3565b93506200194760208601620018c3565b9250604085013591506060850135801515811462001963578182fd5b939692955090935050565b6000806000806060858703121562001984578384fd5b6200198f85620018c3565b9350602085013567ffffffffffffffff80821115620019ac578485fd5b818701915087601f830112620019c0578485fd5b813581811115620019cf578586fd5b8860208260051b8501011115620019e4578586fd5b602083019550809450505050620019fe60408601620018c3565b905092959194509250565b60006040828403121562001a1b578081fd5b8260408301111562001a2b578081fd5b50919050565b60006020828403121562001a43578081fd5b5035919050565b6000806040838503121562001a5d578182fd5b8235915062001a6f60208401620018c3565b90509250929050565b60006020828403121562001a8a578081fd5b6200180882620018e0565b6000806000806060858703121562001aab578384fd5b843567ffffffffffffffff8082111562001ac3578586fd5b818701915087601f83011262001ad7578586fd5b81358181111562001ae6578687fd5b88602082850101111562001af8578687fd5b60209283019650945062001b109187019050620018c3565b9150620019fe60408601620018c3565b6000815180845262001b3a81602086016020860162001e65565b601f01601f19169290920160200192915050565b81835281816020850137506000828201602090810191909152601f909101601f19169091010190565b76020b1b1b2b9b9a1b7b73a3937b61d1030b1b1b7bab73a1604d1b81526000835162001bab81601785016020880162001e65565b7001034b99036b4b9b9b4b733903937b6329607d1b601791840191820152835162001bde81602884016020880162001e65565b01602801949350505050565b6001600160a01b0391909116815260200190565b6001600160a01b0393909316835260208301919091521515604082015260600190565b6001600160a01b038416815260406020820181905260009062001c48908301848662001b4e565b95945050505050565b6001600160a01b038316815260406020820181905260009062001c779083018462001b20565b949350505050565b6040808252810183905260008460608301825b8681101562001cc5576001600160e01b031962001caf84620018e0565b1682526020928301929091019060010162001c92565b506001600160a01b03949094166020939093019290925250909392505050565b84815283602082015260018060a01b038316604082015260806060820152600062001d14608083018462001b20565b9695505050505050565b60a08152600062001d3460a08301888a62001b4e565b6001600160a01b039687166020840152948616604083015250918416606083015290921660809092019190915292915050565b60208152600062001808602083018462001b20565b6020808252600a908201526973616d6520616464727360b01b604082015260600190565b6020808252601290820152715661756c74466163746f72793a207a65726f60701b604082015260600190565b60208082526022908201527f41636365737369626c653a2043616c6c6572206973206e6f7420616e2061646d60408201526134b760f11b606082015260800190565b6000821982111562001e245762001e2462001f07565b500190565b600081600019048311821515161562001e465762001e4662001f07565b500290565b60008282101562001e605762001e6062001f07565b500390565b60005b8381101562001e8257818101518382015260200162001e68565b8381111562001e92576000848401525b50505050565b60008162001eaa5762001eaa62001f07565b506000190190565b600181811c9082168062001ec757607f821691505b6020821081141562001a2b57634e487b7160e01b600052602260045260246000fd5b600060001982141562001f005762001f0062001f07565b5060010190565b634e487b7160e01b600052601160045260246000fdfe608060405260006006553480156200001657600080fd5b50620000437f52eafc11f6f81f86878bffd31109a0d92f37506527754f00788853ff9f63b1308062000082565b6200006f7f52eafc11f6f81f86878bffd31109a0d92f37506527754f00788853ff9f63b13033620000cd565b6200007c600033620000cd565b62000181565b6000828152600f6020526040808220600101805490849055905190918391839186917fbd79b86ffe0ab8e8776151514217cd7cacd52c909f66475c3af44e129f0b00ff9190a4505050565b620000d98282620000dd565b5050565b6000828152600f602090815260408083206001600160a01b038516845290915290205460ff16620000d9576000828152600f602090815260408083206001600160a01b03851684529091529020805460ff191660011790556200013d3390565b6001600160a01b0316816001600160a01b0316837f2f8788117e7eff1d82e926ec794901d17c78024a50270940304540a733656f0d60405160405180910390a45050565b61217080620001916000396000f3fe60806040526004361061024c5760003560e01c80636545eb1c1161013a5780639a202d47116100b15780639a202d4714610747578063a217fddf1461075c578063b911135f14610771578063be72f2d3146107a7578063cfc412be146107bc578063d547741f146107d2578063d8dc1b14146107f2578063eab73ca114610812578063ed5131f514610837578063f47f2f1d14610857578063fab878a414610877578063fc0c546a1461089757610295565b80636545eb1c146105c65780636befec3f146105e6578063704802751461060657806375829def146106265780637cb00d25146106465780637cd5f663146106665780638356ca4f146106865780638b8f4a65146106a65780638d4fdb40146106c657806391d14854146106e657806393e226591461070657806396f1557c1461072757610295565b806334b38cc3116101ce57806334b38cc31461041b57806336568abe146104405780633659cfe61461046057806336d956ea1461048057806341c04d5e146104a15780634a5df50f146104c357806350d2a276146104e3578063550d01a31461053157806355640008146105615780635c60da1b146105775780635cc797d81461058c57806363a8fd89146105ac57610295565b806301ffc9a71461029f57806306fdde03146102d45780630a59fa08146102f65780630f4388c014610310578063117ab8741461033e578063170e2fee1461035457806321cf437014610374578063248a9ca31461039557806324d7806c146103c5578063256019d6146103e55780632f2ff15d146103fb57610295565b366102955760405162461bcd60e51b815260206004820152601460248201527331b0b73737ba103932b1b2b4bb329022ba3432b960611b60448201526064015b60405180910390fd5b61029d6108b7565b005b3480156102ab57600080fd5b506102bf6102ba366004611d02565b610960565b60405190151581526020015b60405180910390f35b3480156102e057600080fd5b506102e9610997565b6040516102cb9190611ec2565b34801561030257600080fd5b50600e546102bf9060ff1681565b34801561031c57600080fd5b5061033061032b366004611cc8565b610a25565b6040519081526020016102cb565b34801561034a57600080fd5b5061033060065481565b34801561036057600080fd5b5061029d61036f366004611bcb565b610a46565b34801561038057600080fd5b506002546102bf90600160a01b900460ff1681565b3480156103a157600080fd5b506103306103b0366004611cc8565b6000908152600f602052604090206001015490565b3480156103d157600080fd5b506102bf6103e0366004611bb1565b610b1f565b3480156103f157600080fd5b5061033060055481565b34801561040757600080fd5b5061029d610416366004611ce0565b610b39565b34801561042757600080fd5b50610430610b5f565b6040516102cb9493929190611fe1565b34801561044c57600080fd5b5061029d61045b366004611ce0565b610c22565b34801561046c57600080fd5b5061029d61047b366004611bb1565b610c9c565b34801561048c57600080fd5b506002546102bf90600160a81b900460ff1681565b3480156104ad57600080fd5b5061033060008051602061211b83398151915281565b3480156104cf57600080fd5b5061029d6104de366004611c38565b610da2565b3480156104ef57600080fd5b506105196104fe366004611d02565b600d602052600090815260409020546001600160a01b031681565b6040516001600160a01b0390911681526020016102cb565b34801561053d57600080fd5b506102bf61054c366004611bb1565b600c6020526000908152604090205460ff1681565b34801561056d57600080fd5b5061033060045481565b34801561058357600080fd5b5061051961102a565b34801561059857600080fd5b5061029d6105a7366004611bcb565b61103b565b3480156105b857600080fd5b50600a546102bf9060ff1681565b3480156105d257600080fd5b50600154610519906001600160a01b031681565b3480156105f257600080fd5b5061029d610601366004611cae565b61106a565b34801561061257600080fd5b5061029d610621366004611bb1565b611142565b34801561063257600080fd5b5061029d610641366004611bb1565b611182565b34801561065257600080fd5b5061029d610661366004611cae565b611235565b34801561067257600080fd5b5061029d610681366004611bfd565b61127c565b34801561069257600080fd5b5061029d6106a1366004611bb1565b6112ac565b3480156106b257600080fd5b506105196106c1366004611cc8565b611336565b3480156106d257600080fd5b506105196106e1366004611d02565b611341565b3480156106f257600080fd5b506102bf610701366004611ce0565b61143d565b34801561071257600080fd5b506002546102bf90600160b01b900460ff1681565b34801561073357600080fd5b5061029d610742366004611bb1565b611468565b34801561075357600080fd5b5061029d611498565b34801561076857600080fd5b50610330600081565b34801561077d57600080fd5b5061051961078c366004611cc8565b600b602052600090815260409020546001600160a01b031681565b3480156107b357600080fd5b5061029d6114e6565b3480156107c857600080fd5b5061033060075481565b3480156107de57600080fd5b5061029d6107ed366004611ce0565b611516565b3480156107fe57600080fd5b5061029d61080d366004611d2a565b61153c565b34801561081e57600080fd5b50600e546105199061010090046001600160a01b031681565b34801561084357600080fd5b50610330610852366004611cc8565b611697565b34801561086357600080fd5b506102bf610872366004611bb1565b6116a7565b34801561088357600080fd5b50600254610519906001600160a01b031681565b3480156108a357600080fd5b50600054610519906001600160a01b031681565b60006108ce6000356001600160e01b031916611341565b90506001600160a01b038116158015906108eb5750600a5460ff16155b6109375760405162461bcd60e51b815260206004820152601d60248201527f50726f78793a20696d706c204f522070726f78792069732066616c7365000000604482015260640161028c565b3660008037600080366000845af43d6000803e808015610956573d6000f35b3d6000fd5b505050565b60006001600160e01b03198216637965db0b60e01b148061099157506301ffc9a760e01b6001600160e01b03198316145b92915050565b600380546109a490612098565b80601f01602080910402602001604051908101604052809291908181526020018280546109d090612098565b8015610a1d5780601f106109f257610100808354040283529160200191610a1d565b820191906000526020600020905b815481529060010190602001808311610a0057829003601f168201915b505050505081565b60098181548110610a3557600080fd5b600091825260209091200154905081565b610a4f336116a7565b610a6b5760405162461bcd60e51b815260040161028c90611f69565b600e546001600160a01b038381166101009092041614801590610a9657506001600160a01b03821615155b610ad75760405162461bcd60e51b815260206004820152601260248201527173616d652076616c7565206f72207a65726f60701b604482015260640161028c565b600e80546001600160a01b03841661010002610100600160a81b03198216811790925560ff918216911617151581151514610b1b57600e805460ff19168215151790555b5050565b600061099160008051602061211b8339815191528361143d565b6000828152600f6020526040902060010154610b5581336116b3565b61095b8383611717565b600060608060006005546008600960065482805480602002602001604051908101604052809291908181526020018280548015610bbb57602002820191906000526020600020905b815481526020019060010190808311610ba7575b5050505050925081805480602002602001604051908101604052809291908181526020018280548015610c0d57602002820191906000526020600020905b815481526020019060010190808311610bf9575b50505050509150935093509350935090919293565b6001600160a01b0381163314610c925760405162461bcd60e51b815260206004820152602f60248201527f416363657373436f6e74726f6c3a2063616e206f6e6c792072656e6f756e636560448201526e103937b632b9903337b91039b2b63360891b606482015260840161028c565b610b1b828261179d565b610ca5336116a7565b610cc15760405162461bcd60e51b815260040161028c90611f69565b6001600160a01b038116610d075760405162461bcd60e51b815260206004820152600d60248201526c696e707574206973207a65726f60981b604482015260640161028c565b806001600160a01b0316610d1b6000611804565b6001600160a01b03161415610d5e5760405162461bcd60e51b815260206004820152600960248201526839b0b6b29030b2323960b91b604482015260640161028c565b610d6b816000600161181f565b6040516001600160a01b038216907fbc7cd75a20ee27fd9adebab32041f755214dbc6bffa90cc0225b39da2e5c2d3b90600090a250565b610dab336116a7565b610dc75760405162461bcd60e51b815260040161028c90611f69565b81610e145760405162461bcd60e51b815260206004820181905260248201527f50726f78793a205f73656c6563746f727327732073697a65206973207a65726f604482015260640161028c565b6001600160a01b0381166000908152600c602052604090205460ff16610e775760405162461bcd60e51b815260206004820152601860248201527750726f78793a205f696d70206973206e6f7420616c69766560401b604482015260640161028c565b60005b8281101561102457816001600160a01b0316600d6000868685818110610eb057634e487b7160e01b600052603260045260246000fd5b9050602002016020810190610ec59190611d02565b6001600160e01b03191681526020810191909152604001600020546001600160a01b03161415610f375760405162461bcd60e51b815260206004820152601d60248201527f4c69717569646974795661756c7450726f78793a2073616d6520696d70000000604482015260640161028c565b81600d6000868685818110610f5c57634e487b7160e01b600052603260045260246000fd5b9050602002016020810190610f719190611d02565b6001600160e01b0319168152602081019190915260400160002080546001600160a01b0319166001600160a01b039283161790558216848483818110610fc757634e487b7160e01b600052603260045260246000fd5b9050602002016020810190610fdc9190611d02565b6001600160e01b0319167f14ebc1c32aa68f4d766e89f3e546cee249f7df25183fc10ab1568d91c2ce9b7b60405160405180910390a38061101c816120d3565b915050610e7a565b50505050565b60006110366000611804565b905090565b611044336116a7565b6110605760405162461bcd60e51b815260040161028c90611f69565b610b1b828261189f565b611073336116a7565b61108f5760405162461bcd60e51b815260040161028c90611f69565b600e5460ff16151581151514156110d55760405162461bcd60e51b815260206004820152600a60248201526973616d652076616c756560b01b604482015260640161028c565b801561112f57600e5461010090046001600160a01b031661112f5760405162461bcd60e51b81526020600482015260146024820152737a65726f206c6f674576656e744164647265737360601b604482015260640161028c565b600e805460ff1916911515919091179055565b61114b336116a7565b6111675760405162461bcd60e51b815260040161028c90611f69565b61117f60008051602061211b83398151915282610b39565b50565b61118b33610b1f565b8061119a575061119a336116a7565b6111b65760405162461bcd60e51b815260040161028c90611ef5565b6001600160a01b0381166111dc5760405162461bcd60e51b815260040161028c90611f37565b336001600160a01b03821614156112055760405162461bcd60e51b815260040161028c90611fb1565b61121d60008051602061211b83398151915282610b39565b61117f60008051602061211b83398151915233610c22565b61123e33610b1f565b8061124d575061124d336116a7565b6112695760405162461bcd60e51b815260040161028c90611ef5565b600a805460ff1916911515919091179055565b611285336116a7565b6112a15760405162461bcd60e51b815260040161028c90611f69565b61095b83838361181f565b6112b5336116a7565b6112d15760405162461bcd60e51b815260040161028c90611f69565b6001600160a01b0381166112f75760405162461bcd60e51b815260040161028c90611f37565b336001600160a01b03821614156113205760405162461bcd60e51b815260040161028c90611fb1565b61132b600082610b39565b61117f600033610c22565b600061099182611804565b6001600160e01b031981166000908152600d60205260408120546001600160a01b03166113a157505060008052600b6020527fdf7de25b7f1fd6d0b5205f0e18f1f35bd7b8d84cce336588d184533ce43a6f76546001600160a01b031690565b6001600160e01b031982166000908152600d60209081526040808320546001600160a01b03168352600c90915290205460ff16156113ff57506001600160e01b0319166000908152600d60205260409020546001600160a01b031690565b505060008052600b6020527fdf7de25b7f1fd6d0b5205f0e18f1f35bd7b8d84cce336588d184533ce43a6f76546001600160a01b031690565b919050565b6000918252600f602090815260408084206001600160a01b0393909316845291905290205460ff1690565b611471336116a7565b61148d5760405162461bcd60e51b815260040161028c90611f69565b61117f6000826118fe565b6114a133610b1f565b806114b057506114b0336116a7565b6114cc5760405162461bcd60e51b815260040161028c90611ef5565b6114e460008051602061211b83398151915233610c22565b565b6114ef336116a7565b61150b5760405162461bcd60e51b815260040161028c90611f69565b6114e4600033610c22565b6000828152600f602052604090206001015461153281336116b3565b61095b838361179d565b611545336116a7565b6115615760405162461bcd60e51b815260040161028c90611f69565b6003805461156e90612098565b1590506115ab5760405162461bcd60e51b815260206004820152600b60248201526a185b1c9958591e481cd95d60aa1b604482015260640161028c565b6001600160a01b038416158015906115cb57506001600160a01b03831615155b80156115df57506001600160a01b03821615155b61161a5760405162461bcd60e51b815260206004820152600c60248201526b7a65726f206164647265737360a01b604482015260640161028c565b845161162d906003906020880190611af1565b50600080546001600160a01b038087166001600160a01b03199283161790925560028054858416908316179055600180549284169290911691909117905561167483610b1f565b6116905761169060008051602061211b833981519152846118fe565b5050505050565b60088181548110610a3557600080fd5b6000610991818361143d565b6116bd828261143d565b610b1b576116d5816001600160a01b03166014611908565b6116e0836020611908565b6040516020016116f1929190611e53565b60408051601f198184030181529082905262461bcd60e51b825261028c91600401611ec2565b611721828261143d565b610b1b576000828152600f602090815260408083206001600160a01b03851684529091529020805460ff191660011790556117593390565b6001600160a01b0316816001600160a01b0316837f2f8788117e7eff1d82e926ec794901d17c78024a50270940304540a733656f0d60405160405180910390a45050565b6117a7828261143d565b15610b1b576000828152600f602090815260408083206001600160a01b0385168085529252808320805460ff1916905551339285917ff6391f5c32d9c69d2a47ea670b442974b53935d1edc7fd64eb21e047a839171b9190a45050565b6000908152600b60205260409020546001600160a01b031690565b823b61186b5760405162461bcd60e51b815260206004820152601b60248201527a50726f78793a206e6f7420636f6e7472616374206164647265737360281b604482015260640161028c565b8015611899576000828152600b6020526040902080546001600160a01b0319166001600160a01b0385161790555b61095b83825b6001600160a01b0382166000818152600c6020908152604091829020805460ff191685151590811790915591519182527f72558d9bfba4210f9ef095c782589484151f6d90f7a81bb3cb9b33efc695d324910160405180910390a25050565b610b1b8282611717565b60606000611917836002612036565b61192290600261201e565b67ffffffffffffffff81111561194857634e487b7160e01b600052604160045260246000fd5b6040519080825280601f01601f191660200182016040528015611972576020820181803683370190505b509050600360fc1b8160008151811061199b57634e487b7160e01b600052603260045260246000fd5b60200101906001600160f81b031916908160001a905350600f60fb1b816001815181106119d857634e487b7160e01b600052603260045260246000fd5b60200101906001600160f81b031916908160001a90535060006119fc846002612036565b611a0790600161201e565b90505b6001811115611a9b576f181899199a1a9b1b9c1cb0b131b232b360811b85600f1660108110611a4957634e487b7160e01b600052603260045260246000fd5b1a60f81b828281518110611a6d57634e487b7160e01b600052603260045260246000fd5b60200101906001600160f81b031916908160001a90535060049490941c93611a9481612081565b9050611a0a565b508315611aea5760405162461bcd60e51b815260206004820181905260248201527f537472696e67733a20686578206c656e67746820696e73756666696369656e74604482015260640161028c565b9392505050565b828054611afd90612098565b90600052602060002090601f016020900481019282611b1f5760008555611b65565b82601f10611b3857805160ff1916838001178555611b65565b82800160010185558215611b65579182015b82811115611b65578251825591602001919060010190611b4a565b50611b71929150611b75565b5090565b5b80821115611b715760008155600101611b76565b80356001600160a01b038116811461143857600080fd5b8035801515811461143857600080fd5b600060208284031215611bc2578081fd5b611aea82611b8a565b60008060408385031215611bdd578081fd5b611be683611b8a565b9150611bf460208401611ba1565b90509250929050565b600080600060608486031215611c11578081fd5b611c1a84611b8a565b925060208401359150611c2f60408501611ba1565b90509250925092565b600080600060408486031215611c4c578283fd5b833567ffffffffffffffff80821115611c63578485fd5b818601915086601f830112611c76578485fd5b813581811115611c84578586fd5b8760208260051b8501011115611c98578586fd5b602092830195509350611c2f9186019050611b8a565b600060208284031215611cbf578081fd5b611aea82611ba1565b600060208284031215611cd9578081fd5b5035919050565b60008060408385031215611cf2578182fd5b82359150611bf460208401611b8a565b600060208284031215611d13578081fd5b81356001600160e01b031981168114611aea578182fd5b600080600080600060a08688031215611d41578081fd5b853567ffffffffffffffff80821115611d58578283fd5b818801915088601f830112611d6b578283fd5b813581811115611d7d57611d7d612104565b604051601f8201601f19908116603f01168101908382118183101715611da557611da5612104565b816040528281528b6020848701011115611dbd578586fd5b8260208601602083013785602084830101528099505050505050611de360208701611b8a565b9350611df160408701611b8a565b9250611dff60608701611b8a565b9150611e0d60808701611b8a565b90509295509295909350565b6000815180845260208085019450808401835b83811015611e4857815187529582019590820190600101611e2c565b509495945050505050565b76020b1b1b2b9b9a1b7b73a3937b61d1030b1b1b7bab73a1604d1b815260008351611e85816017850160208801612055565b7001034b99036b4b9b9b4b733903937b6329607d1b6017918401918201528351611eb6816028840160208801612055565b01602801949350505050565b6020815260008251806020840152611ee1816040850160208701612055565b601f01601f19169190910160400192915050565b60208082526022908201527f41636365737369626c653a2043616c6c6572206973206e6f7420616e2061646d60408201526134b760f11b606082015260800190565b60208082526018908201527741636365737369626c653a207a65726f206164647265737360401b604082015260600190565b60208082526028908201527f41636365737369626c653a2043616c6c6572206973206e6f7420616e2070726f6040820152673c3c9030b236b4b760c11b606082015260800190565b60208082526016908201527520b1b1b2b9b9b4b136329d1039b0b6b29030b236b4b760511b604082015260600190565b848152608060208201526000611ffa6080830186611e19565b828103604084015261200c8186611e19565b91505082606083015295945050505050565b60008219821115612031576120316120ee565b500190565b6000816000190483118215151615612050576120506120ee565b500290565b60005b83811015612070578181015183820152602001612058565b838111156110245750506000910152565b600081612090576120906120ee565b506000190190565b600181811c908216806120ac57607f821691505b602082108114156120cd57634e487b7160e01b600052602260045260246000fd5b50919050565b60006000198214156120e7576120e76120ee565b5060010190565b634e487b7160e01b600052601160045260246000fd5b634e487b7160e01b600052604160045260246000fdfe52eafc11f6f81f86878bffd31109a0d92f37506527754f00788853ff9f63b130a264697066735822122004e6bfd80567e79acf844ed164efe44525f6f2eb032133f6ab66fd1a58c7dbfe64736f6c63430008040033df8b4c520ffe197c5343c6f5aec59570151ef9a492f2c624fd45ddde6135ec42a2646970667358221220edb7d2904ebca5812ee782881cac992060d95c637f5e3d206f9f3439d010ef0b64736f6c63430008040033df8b4c520ffe197c5343c6f5aec59570151ef9a492f2c624fd45ddde6135ec42",
    "linkReferences": {},
    "deployedLinkReferences": {}
}