{
  "_format": "hh-sol-artifact-1",
  "contractName": "Stake1Vault",
  "sourceName": "contracts/stake/Stake1Vault.sol",
  "abi": [
    {
      "inputs": [],
      "stateMutability": "nonpayable",
      "type": "constructor"
    },
    {
      "anonymous": false,
      "inputs": [
        {
          "indexed": true,
          "internalType": "address",
          "name": "from",
          "type": "address"
        },
        {
          "indexed": false,
          "internalType": "address",
          "name": "to",
          "type": "address"
        },
        {
          "indexed": false,
          "internalType": "uint256",
          "name": "amount",
          "type": "uint256"
        }
      ],
      "name": "ClaimedReward",
      "type": "event"
    },
    {
      "anonymous": false,
      "inputs": [],
      "name": "ClosedSale",
      "type": "event"
    },
    {
      "anonymous": false,
      "inputs": [
        {
          "indexed": true,
          "internalType": "bytes32",
          "name": "role",
          "type": "bytes32"
        },
        {
          "indexed": true,
          "internalType": "bytes32",
          "name": "previousAdminRole",
          "type": "bytes32"
        },
        {
          "indexed": true,
          "internalType": "bytes32",
          "name": "newAdminRole",
          "type": "bytes32"
        }
      ],
      "name": "RoleAdminChanged",
      "type": "event"
    },
    {
      "anonymous": false,
      "inputs": [
        {
          "indexed": true,
          "internalType": "bytes32",
          "name": "role",
          "type": "bytes32"
        },
        {
          "indexed": true,
          "internalType": "address",
          "name": "account",
          "type": "address"
        },
        {
          "indexed": true,
          "internalType": "address",
          "name": "sender",
          "type": "address"
        }
      ],
      "name": "RoleGranted",
      "type": "event"
    },
    {
      "anonymous": false,
      "inputs": [
        {
          "indexed": true,
          "internalType": "bytes32",
          "name": "role",
          "type": "bytes32"
        },
        {
          "indexed": true,
          "internalType": "address",
          "name": "account",
          "type": "address"
        },
        {
          "indexed": true,
          "internalType": "address",
          "name": "sender",
          "type": "address"
        }
      ],
      "name": "RoleRevoked",
      "type": "event"
    },
    {
      "inputs": [],
      "name": "ADMIN_ROLE",
      "outputs": [
        {
          "internalType": "bytes32",
          "name": "",
          "type": "bytes32"
        }
      ],
      "stateMutability": "view",
      "type": "function"
    },
    {
      "inputs": [],
      "name": "BURNER_ROLE",
      "outputs": [
        {
          "internalType": "bytes32",
          "name": "",
          "type": "bytes32"
        }
      ],
      "stateMutability": "view",
      "type": "function"
    },
    {
      "inputs": [],
      "name": "DEFAULT_ADMIN_ROLE",
      "outputs": [
        {
          "internalType": "bytes32",
          "name": "",
          "type": "bytes32"
        }
      ],
      "stateMutability": "view",
      "type": "function"
    },
    {
      "inputs": [],
      "name": "MINTER_ROLE",
      "outputs": [
        {
          "internalType": "bytes32",
          "name": "",
          "type": "bytes32"
        }
      ],
      "stateMutability": "view",
      "type": "function"
    },
    {
      "inputs": [
        {
          "internalType": "address",
          "name": "account",
          "type": "address"
        }
      ],
      "name": "addAdmin",
      "outputs": [],
      "stateMutability": "nonpayable",
      "type": "function"
    },
    {
      "inputs": [
        {
          "internalType": "string",
          "name": "_name",
          "type": "string"
        },
        {
          "internalType": "address",
          "name": "stakeContract",
          "type": "address"
        },
        {
          "internalType": "uint256",
          "name": "periodBlocks",
          "type": "uint256"
        }
      ],
      "name": "addSubVaultOfStake",
      "outputs": [],
      "stateMutability": "nonpayable",
      "type": "function"
    },
    {
      "inputs": [],
      "name": "balanceTOSAvailableAmount",
      "outputs": [
        {
          "internalType": "uint256",
          "name": "",
          "type": "uint256"
        }
      ],
      "stateMutability": "view",
      "type": "function"
    },
    {
      "inputs": [],
      "name": "blockTotalReward",
      "outputs": [
        {
          "internalType": "uint256",
          "name": "",
          "type": "uint256"
        }
      ],
      "stateMutability": "view",
      "type": "function"
    },
    {
      "inputs": [
        {
          "internalType": "address",
          "name": "_to",
          "type": "address"
        },
        {
          "internalType": "uint256",
          "name": "_amount",
          "type": "uint256"
        }
      ],
      "name": "canClaim",
      "outputs": [
        {
          "internalType": "bool",
          "name": "",
          "type": "bool"
        }
      ],
      "stateMutability": "view",
      "type": "function"
    },
    {
      "inputs": [],
      "name": "cap",
      "outputs": [
        {
          "internalType": "uint256",
          "name": "",
          "type": "uint256"
        }
      ],
      "stateMutability": "view",
      "type": "function"
    },
    {
      "inputs": [
        {
          "internalType": "uint256",
          "name": "_cap",
          "type": "uint256"
        }
      ],
      "name": "changeCap",
      "outputs": [],
      "stateMutability": "nonpayable",
      "type": "function"
    },
    {
      "inputs": [
        {
          "internalType": "address",
          "name": "_to",
          "type": "address"
        },
        {
          "internalType": "uint256",
          "name": "_amount",
          "type": "uint256"
        }
      ],
      "name": "claim",
      "outputs": [
        {
          "internalType": "bool",
          "name": "",
          "type": "bool"
        }
      ],
      "stateMutability": "nonpayable",
      "type": "function"
    },
    {
      "inputs": [],
      "name": "closeSale",
      "outputs": [],
      "stateMutability": "nonpayable",
      "type": "function"
    },
    {
      "inputs": [],
      "name": "defiAddr",
      "outputs": [
        {
          "internalType": "address",
          "name": "",
          "type": "address"
        }
      ],
      "stateMutability": "view",
      "type": "function"
    },
    {
      "inputs": [
        {
          "internalType": "bytes32",
          "name": "role",
          "type": "bytes32"
        }
      ],
      "name": "getRoleAdmin",
      "outputs": [
        {
          "internalType": "bytes32",
          "name": "",
          "type": "bytes32"
        }
      ],
      "stateMutability": "view",
      "type": "function"
    },
    {
      "inputs": [
        {
          "internalType": "bytes32",
          "name": "role",
          "type": "bytes32"
        },
        {
          "internalType": "uint256",
          "name": "index",
          "type": "uint256"
        }
      ],
      "name": "getRoleMember",
      "outputs": [
        {
          "internalType": "address",
          "name": "",
          "type": "address"
        }
      ],
      "stateMutability": "view",
      "type": "function"
    },
    {
      "inputs": [
        {
          "internalType": "bytes32",
          "name": "role",
          "type": "bytes32"
        }
      ],
      "name": "getRoleMemberCount",
      "outputs": [
        {
          "internalType": "uint256",
          "name": "",
          "type": "uint256"
        }
      ],
      "stateMutability": "view",
      "type": "function"
    },
    {
      "inputs": [
        {
          "internalType": "bytes32",
          "name": "role",
          "type": "bytes32"
        },
        {
          "internalType": "address",
          "name": "account",
          "type": "address"
        }
      ],
      "name": "grantRole",
      "outputs": [],
      "stateMutability": "nonpayable",
      "type": "function"
    },
    {
      "inputs": [
        {
          "internalType": "bytes32",
          "name": "role",
          "type": "bytes32"
        },
        {
          "internalType": "address",
          "name": "account",
          "type": "address"
        }
      ],
      "name": "hasRole",
      "outputs": [
        {
          "internalType": "bool",
          "name": "",
          "type": "bool"
        }
      ],
      "stateMutability": "view",
      "type": "function"
    },
    {
      "inputs": [],
      "name": "infos",
      "outputs": [
        {
          "internalType": "address[2]",
          "name": "",
          "type": "address[2]"
        },
        {
          "internalType": "uint256",
          "name": "",
          "type": "uint256"
        },
        {
          "internalType": "uint256",
          "name": "",
          "type": "uint256"
        },
        {
          "internalType": "uint256[3]",
          "name": "",
          "type": "uint256[3]"
        },
        {
          "internalType": "uint256",
          "name": "",
          "type": "uint256"
        },
        {
          "internalType": "bool",
          "name": "",
          "type": "bool"
        }
      ],
      "stateMutability": "view",
      "type": "function"
    },
    {
      "inputs": [
        {
          "internalType": "address",
          "name": "account",
          "type": "address"
        }
      ],
      "name": "isAdmin",
      "outputs": [
        {
          "internalType": "bool",
          "name": "",
          "type": "bool"
        }
      ],
      "stateMutability": "view",
      "type": "function"
    },
    {
      "inputs": [],
      "name": "migratedL2",
      "outputs": [
        {
          "internalType": "bool",
          "name": "",
          "type": "bool"
        }
      ],
      "stateMutability": "view",
      "type": "function"
    },
    {
      "inputs": [
        {
          "internalType": "uint256",
          "name": "",
          "type": "uint256"
        }
      ],
      "name": "orderedEndBlocks",
      "outputs": [
        {
          "internalType": "uint256",
          "name": "",
          "type": "uint256"
        }
      ],
      "stateMutability": "view",
      "type": "function"
    },
    {
      "inputs": [],
      "name": "orderedEndBlocksAll",
      "outputs": [
        {
          "internalType": "uint256[]",
          "name": "",
          "type": "uint256[]"
        }
      ],
      "stateMutability": "view",
      "type": "function"
    },
    {
      "inputs": [],
      "name": "pauseProxy",
      "outputs": [
        {
          "internalType": "bool",
          "name": "",
          "type": "bool"
        }
      ],
      "stateMutability": "view",
      "type": "function"
    },
    {
      "inputs": [],
      "name": "paytoken",
      "outputs": [
        {
          "internalType": "address",
          "name": "",
          "type": "address"
        }
      ],
      "stateMutability": "view",
      "type": "function"
    },
    {
      "inputs": [],
      "name": "realEndBlock",
      "outputs": [
        {
          "internalType": "uint256",
          "name": "",
          "type": "uint256"
        }
      ],
      "stateMutability": "view",
      "type": "function"
    },
    {
      "inputs": [
        {
          "internalType": "address",
          "name": "account",
          "type": "address"
        }
      ],
      "name": "removeAdmin",
      "outputs": [],
      "stateMutability": "nonpayable",
      "type": "function"
    },
    {
      "inputs": [
        {
          "internalType": "bytes32",
          "name": "role",
          "type": "bytes32"
        },
        {
          "internalType": "address",
          "name": "account",
          "type": "address"
        }
      ],
      "name": "renounceRole",
      "outputs": [],
      "stateMutability": "nonpayable",
      "type": "function"
    },
    {
      "inputs": [
        {
          "internalType": "bytes32",
          "name": "role",
          "type": "bytes32"
        },
        {
          "internalType": "address",
          "name": "account",
          "type": "address"
        }
      ],
      "name": "revokeRole",
      "outputs": [],
      "stateMutability": "nonpayable",
      "type": "function"
    },
    {
      "inputs": [],
      "name": "saleClosed",
      "outputs": [
        {
          "internalType": "bool",
          "name": "",
          "type": "bool"
        }
      ],
      "stateMutability": "view",
      "type": "function"
    },
    {
      "inputs": [],
      "name": "saleStartBlock",
      "outputs": [
        {
          "internalType": "uint256",
          "name": "",
          "type": "uint256"
        }
      ],
      "stateMutability": "view",
      "type": "function"
    },
    {
      "inputs": [
        {
          "internalType": "address",
          "name": "_defiAddr",
          "type": "address"
        }
      ],
      "name": "setDefiAddr",
      "outputs": [],
      "stateMutability": "nonpayable",
      "type": "function"
    },
    {
      "inputs": [
        {
          "internalType": "address",
          "name": "_tos",
          "type": "address"
        }
      ],
      "name": "setTOS",
      "outputs": [],
      "stateMutability": "nonpayable",
      "type": "function"
    },
    {
      "inputs": [
        {
          "internalType": "uint256",
          "name": "",
          "type": "uint256"
        }
      ],
      "name": "stakeAddresses",
      "outputs": [
        {
          "internalType": "address",
          "name": "",
          "type": "address"
        }
      ],
      "stateMutability": "view",
      "type": "function"
    },
    {
      "inputs": [],
      "name": "stakeAddressesAll",
      "outputs": [
        {
          "internalType": "address[]",
          "name": "",
          "type": "address[]"
        }
      ],
      "stateMutability": "view",
      "type": "function"
    },
    {
      "inputs": [],
      "name": "stakeEndBlock",
      "outputs": [
        {
          "internalType": "uint256",
          "name": "",
          "type": "uint256"
        }
      ],
      "stateMutability": "view",
      "type": "function"
    },
    {
      "inputs": [
        {
          "internalType": "uint256",
          "name": "",
          "type": "uint256"
        }
      ],
      "name": "stakeEndBlockTotal",
      "outputs": [
        {
          "internalType": "uint256",
          "name": "",
          "type": "uint256"
        }
      ],
      "stateMutability": "view",
      "type": "function"
    },
    {
      "inputs": [
        {
          "internalType": "address",
          "name": "",
          "type": "address"
        }
      ],
      "name": "stakeInfos",
      "outputs": [
        {
          "internalType": "string",
          "name": "name",
          "type": "string"
        },
        {
          "internalType": "uint256",
          "name": "startBlock",
          "type": "uint256"
        },
        {
          "internalType": "uint256",
          "name": "endBlock",
          "type": "uint256"
        },
        {
          "internalType": "uint256",
          "name": "balance",
          "type": "uint256"
        },
        {
          "internalType": "uint256",
          "name": "totalRewardAmount",
          "type": "uint256"
        },
        {
          "internalType": "uint256",
          "name": "claimRewardAmount",
          "type": "uint256"
        }
      ],
      "stateMutability": "view",
      "type": "function"
    },
    {
      "inputs": [],
      "name": "stakeStartBlock",
      "outputs": [
        {
          "internalType": "uint256",
          "name": "",
          "type": "uint256"
        }
      ],
      "stateMutability": "view",
      "type": "function"
    },
    {
      "inputs": [],
      "name": "stakeType",
      "outputs": [
        {
          "internalType": "uint256",
          "name": "",
          "type": "uint256"
        }
      ],
      "stateMutability": "view",
      "type": "function"
    },
    {
      "inputs": [],
      "name": "tos",
      "outputs": [
        {
          "internalType": "address",
          "name": "",
          "type": "address"
        }
      ],
      "stateMutability": "view",
      "type": "function"
    },
    {
      "inputs": [
        {
          "internalType": "address",
          "name": "_account",
          "type": "address"
        }
      ],
      "name": "totalRewardAmount",
      "outputs": [
        {
          "internalType": "uint256",
          "name": "",
          "type": "uint256"
        }
      ],
      "stateMutability": "view",
      "type": "function"
    },
    {
      "inputs": [
        {
          "internalType": "address",
          "name": "newAdmin",
          "type": "address"
        }
      ],
      "name": "transferAdmin",
      "outputs": [],
      "stateMutability": "nonpayable",
      "type": "function"
    },
    {
      "inputs": [
        {
          "internalType": "uint256",
          "name": "_amount",
          "type": "uint256"
        }
      ],
      "name": "withdrawReward",
      "outputs": [],
      "stateMutability": "nonpayable",
      "type": "function"
    },
    {
      "stateMutability": "payable",
      "type": "receive"
    }
  ],
  "bytecode": "0x608060405234801561001057600080fd5b50614fa9806100206000396000f3fe6080604052600436106102765760003560e01c806375b238fc1161014f578063b03dc514116100c1578063d007e8961161007a578063d007e896146109c6578063d105bf85146109f1578063d539139314610a1c578063d547741f14610a47578063dfbf9def14610a70578063ee55efee14610ab25761027d565b8063b03dc514146108a0578063b8c766b8146108cb578063b97af0db146108f6578063c1b422fd14610921578063ca15c8731461094c578063cbdeb6c0146109895761027d565b806398da0b611161011357806398da0b61146107755780639a88be2f146107b25780639d84ca35146107e2578063a1f5f50e1461080d578063a217fddf14610838578063aad3ec96146108635761027d565b806375b238fc1461067c578063800edb9d146106a757806389f395de146106d05780639010d07c146106fb57806391d14854146107385761027d565b80633a76eb37116101e8578063523a3f08116101ac578063523a3f081461056e5780635f1bd62a1461059757806363a8fd89146105d457806366b2d527146105ff578063704802751461062a57806375829def146106535761027d565b80633a76eb371461049b57806340c2ce86146104c657806340fc14f7146104ef57806343b0934a146105185780634b5e7cd5146105435761027d565b806324d7806c1161023a57806324d7806c14610379578063282c51f3146103b6578063294f5fa3146103e15780632f2ff15d1461041e578063355274ea1461044757806336568abe146104725761027d565b80630962ccfc14610282578063153099d0146102ab5780631785f53c146102e85780632002727514610311578063248a9ca31461033c5761027d565b3661027d57005b600080fd5b34801561028e57600080fd5b506102a960048036038101906102a49190613d3d565b610ac9565b005b3480156102b757600080fd5b506102d260048036038101906102cd9190613da4565b610ec9565b6040516102df9190614be3565b60405180910390f35b3480156102f457600080fd5b5061030f600480360381019061030a9190613be5565b610eed565b005b34801561031d57600080fd5b50610326610f78565b6040516103339190614be3565b60405180910390f35b34801561034857600080fd5b50610363600480360381019061035e9190613c9c565b610f7e565b6040516103709190614860565b60405180910390f35b34801561038557600080fd5b506103a0600480360381019061039b9190613be5565b610f9d565b6040516103ad9190614845565b60405180910390f35b3480156103c257600080fd5b506103cb610fd0565b6040516103d89190614860565b60405180910390f35b3480156103ed57600080fd5b5061040860048036038101906104039190613da4565b610ff4565b6040516104159190614716565b60405180910390f35b34801561042a57600080fd5b5061044560048036038101906104409190613cc5565b611033565b005b34801561045357600080fd5b5061045c6110bc565b6040516104699190614be3565b60405180910390f35b34801561047e57600080fd5b5061049960048036038101906104949190613cc5565b6110c2565b005b3480156104a757600080fd5b506104b061115b565b6040516104bd9190614be3565b60405180910390f35b3480156104d257600080fd5b506104ed60048036038101906104e89190613be5565b611161565b005b3480156104fb57600080fd5b5061051660048036038101906105119190613be5565b611273565b005b34801561052457600080fd5b5061052d6113df565b60405161053a9190614716565b60405180910390f35b34801561054f57600080fd5b50610558611405565b6040516105659190614be3565b60405180910390f35b34801561057a57600080fd5b5061059560048036038101906105909190613da4565b61140b565b005b3480156105a357600080fd5b506105be60048036038101906105b99190613da4565b6117e7565b6040516105cb9190614be3565b60405180910390f35b3480156105e057600080fd5b506105e96117ff565b6040516105f69190614845565b60405180910390f35b34801561060b57600080fd5b50610614611812565b6040516106219190614be3565b60405180910390f35b34801561063657600080fd5b50610651600480360381019061064c9190613be5565b6118c4565b005b34801561065f57600080fd5b5061067a60048036038101906106759190613be5565b61194f565b005b34801561068857600080fd5b50610691611b49565b60405161069e9190614860565b60405180910390f35b3480156106b357600080fd5b506106ce60048036038101906106c99190613da4565b611b6d565b005b3480156106dc57600080fd5b506106e5611c26565b6040516106f29190614716565b60405180910390f35b34801561070757600080fd5b50610722600480360381019061071d9190613d01565b611c4c565b60405161072f9190614716565b60405180910390f35b34801561074457600080fd5b5061075f600480360381019061075a9190613cc5565b611c7d565b60405161076c9190614845565b60405180910390f35b34801561078157600080fd5b5061079c60048036038101906107979190613c37565b611cae565b6040516107a99190614845565b60405180910390f35b3480156107be57600080fd5b506107c7611f2b565b6040516107d99695949392919061479e565b60405180910390f35b3480156107ee57600080fd5b506107f7612040565b6040516108049190614716565b60405180910390f35b34801561081957600080fd5b50610822612066565b60405161082f9190614845565b60405180910390f35b34801561084457600080fd5b5061084d612079565b60405161085a9190614860565b60405180910390f35b34801561086f57600080fd5b5061088a60048036038101906108859190613c37565b612080565b6040516108979190614845565b60405180910390f35b3480156108ac57600080fd5b506108b5612466565b6040516108c29190614be3565b60405180910390f35b3480156108d757600080fd5b506108e061246c565b6040516108ed9190614845565b60405180910390f35b34801561090257600080fd5b5061090b61247f565b6040516109189190614be3565b60405180910390f35b34801561092d57600080fd5b50610936612485565b6040516109439190614823565b60405180910390f35b34801561095857600080fd5b50610973600480360381019061096e9190613c9c565b6124dd565b6040516109809190614be3565b60405180910390f35b34801561099557600080fd5b506109b060048036038101906109ab9190613be5565b612503565b6040516109bd9190614be3565b60405180910390f35b3480156109d257600080fd5b506109db61254f565b6040516109e89190614801565b60405180910390f35b3480156109fd57600080fd5b50610a066125dd565b604051610a139190614be3565b60405180910390f35b348015610a2857600080fd5b50610a316125e3565b604051610a3e9190614860565b60405180910390f35b348015610a5357600080fd5b50610a6e6004803603810190610a699190613cc5565b612607565b005b348015610a7c57600080fd5b50610a976004803603810190610a929190613be5565b612690565b604051610aa99695949392919061487b565b60405180910390f35b348015610abe57600080fd5b50610ac7612764565b005b610ad233610f9d565b610b27576040517f08c379a0000000000000000000000000000000000000000000000000000000008152600401808060200182810382526022815260200180614ed26022913960400191505060405180910390fd5b600073ffffffffffffffffffffffffffffffffffffffff168273ffffffffffffffffffffffffffffffffffffffff1614158015610b6657506000600354115b8015610b725750600081115b610bb1576040517f08c379a0000000000000000000000000000000000000000000000000000000008152600401610ba890614943565b60405180910390fd5b6005544310610bf5576040517f08c379a0000000000000000000000000000000000000000000000000000000008152600401610bec90614903565b60405180910390fd5b600960009054906101000a900460ff1615610c45576040517f08c379a0000000000000000000000000000000000000000000000000000000008152600401610c3c90614a23565b60405180910390fd5b8173ffffffffffffffffffffffffffffffffffffffff166343b0934a6040518163ffffffff1660e01b815260040160206040518083038186803b158015610c8b57600080fd5b505afa158015610c9f573d6000803e3d6000fd5b505050506040513d601f19601f82011682018060405250810190610cc39190613c0e565b73ffffffffffffffffffffffffffffffffffffffff16600260009054906101000a900473ffffffffffffffffffffffffffffffffffffffff1673ffffffffffffffffffffffffffffffffffffffff1614610d52576040517f08c379a0000000000000000000000000000000000000000000000000000000008152600401610d4990614ac3565b60405180910390fd5b6000600d60008473ffffffffffffffffffffffffffffffffffffffff1673ffffffffffffffffffffffffffffffffffffffff16815260200190815260200160002090506000816001015414610ddc576040517f08c379a0000000000000000000000000000000000000000000000000000000008152600401610dd390614b03565b60405180910390fd5b600c839080600181540180825580915050600190039060005260206000200160009091909190916101000a81548173ffffffffffffffffffffffffffffffffffffffff021916908373ffffffffffffffffffffffffffffffffffffffff1602179055506000610e56836005546132ec90919063ffffffff16565b905084826000019080519060200190610e70929190613a10565b506005548260010181905550808260020181905550806006541015610e9757806006819055505b600e60065490806001815401808255809150506001900390600052602060002001600090919091909150555050505050565b600e8181548110610ed957600080fd5b906000526020600020016000915090505481565b610ef633610f9d565b610f4b576040517f08c379a0000000000000000000000000000000000000000000000000000000008152600401808060200182810382526022815260200180614ed26022913960400191505060405180910390fd5b610f757fdf8b4c520ffe197c5343c6f5aec59570151ef9a492f2c624fd45ddde6135ec42826110c2565b50565b60045481565b6000806000838152602001908152602001600020600201549050919050565b6000610fc97fdf8b4c520ffe197c5343c6f5aec59570151ef9a492f2c624fd45ddde6135ec4283611c7d565b9050919050565b7f9667e80708b6eeeb0053fa0cca44e028ff548e2a9f029edfeac87c118b08b7c881565b600c818154811061100457600080fd5b906000526020600020016000915054906101000a900473ffffffffffffffffffffffffffffffffffffffff1681565b61105960008084815260200190815260200160002060020154611054613374565b611c7d565b6110ae576040517f08c379a000000000000000000000000000000000000000000000000000000000815260040180806020018281038252602f815260200180614ea3602f913960400191505060405180910390fd5b6110b8828261337c565b5050565b60035481565b6110ca613374565b73ffffffffffffffffffffffffffffffffffffffff168173ffffffffffffffffffffffffffffffffffffffff161461114d576040517f08c379a000000000000000000000000000000000000000000000000000000000815260040180806020018281038252602f815260200180614f45602f913960400191505060405180910390fd5b611157828261340f565b5050565b60065481565b61116a33610f9d565b6111bf576040517f08c379a0000000000000000000000000000000000000000000000000000000008152600401808060200182810382526022815260200180614ed26022913960400191505060405180910390fd5b600073ffffffffffffffffffffffffffffffffffffffff168173ffffffffffffffffffffffffffffffffffffffff16141561122f576040517f08c379a000000000000000000000000000000000000000000000000000000000815260040161122690614963565b60405180910390fd5b80600160006101000a81548173ffffffffffffffffffffffffffffffffffffffff021916908373ffffffffffffffffffffffffffffffffffffffff16021790555050565b61127c33610f9d565b6112d1576040517f08c379a0000000000000000000000000000000000000000000000000000000008152600401808060200182810382526022815260200180614ed26022913960400191505060405180910390fd5b600073ffffffffffffffffffffffffffffffffffffffff168173ffffffffffffffffffffffffffffffffffffffff161415801561135c57508073ffffffffffffffffffffffffffffffffffffffff16600b60009054906101000a900473ffffffffffffffffffffffffffffffffffffffff1673ffffffffffffffffffffffffffffffffffffffff1614155b61139b576040517f08c379a000000000000000000000000000000000000000000000000000000000815260040161139290614a83565b60405180910390fd5b80600b60006101000a81548173ffffffffffffffffffffffffffffffffffffffff021916908373ffffffffffffffffffffffffffffffffffffffff16021790555050565b600260009054906101000a900473ffffffffffffffffffffffffffffffffffffffff1681565b60055481565b61141433610f9d565b611469576040517f08c379a0000000000000000000000000000000000000000000000000000000008152600401808060200182810382526022815260200180614ed26022913960400191505060405180910390fd5b600960009054906101000a900460ff166114b8576040517f08c379a00000000000000000000000000000000000000000000000000000000081526004016114af90614a43565b60405180910390fd5b6000805b600c805490508110156115ef576115e0600d6000600c84815481106114dd57fe5b9060005260206000200160009054906101000a900473ffffffffffffffffffffffffffffffffffffffff1673ffffffffffffffffffffffffffffffffffffffff1673ffffffffffffffffffffffffffffffffffffffff168152602001908152602001600020600501546115d2600d6000600c868154811061155a57fe5b9060005260206000200160009054906101000a900473ffffffffffffffffffffffffffffffffffffffff1673ffffffffffffffffffffffffffffffffffffffff1673ffffffffffffffffffffffffffffffffffffffff16815260200190815260200160002060040154856132ec90919063ffffffff16565b6134a290919063ffffffff16565b915080806001019150506114bc565b506000600160009054906101000a900473ffffffffffffffffffffffffffffffffffffffff1673ffffffffffffffffffffffffffffffffffffffff166370a08231306040518263ffffffff1660e01b815260040161164d9190614731565b60206040518083038186803b15801561166557600080fd5b505afa158015611679573d6000803e3d6000fd5b505050506040513d601f19601f8201168201806040525081019061169d9190613dcd565b90506116b283836132ec90919063ffffffff16565b8110156116f4576040517f08c379a00000000000000000000000000000000000000000000000000000000081526004016116eb90614b43565b60405180910390fd5b600160009054906101000a900473ffffffffffffffffffffffffffffffffffffffff1673ffffffffffffffffffffffffffffffffffffffff1663a9059cbb33856040518363ffffffff1660e01b815260040161175192919061474c565b602060405180830381600087803b15801561176b57600080fd5b505af115801561177f573d6000803e3d6000fd5b505050506040513d601f19601f820116820180604052508101906117a39190613c73565b6117e2576040517f08c379a00000000000000000000000000000000000000000000000000000000081526004016117d990614b83565b60405180910390fd5b505050565b600f6020528060005260406000206000915090505481565b601160009054906101000a900460ff1681565b6000600160009054906101000a900473ffffffffffffffffffffffffffffffffffffffff1673ffffffffffffffffffffffffffffffffffffffff166370a08231306040518263ffffffff1660e01b815260040161186f9190614731565b60206040518083038186803b15801561188757600080fd5b505afa15801561189b573d6000803e3d6000fd5b505050506040513d601f19601f820116820180604052508101906118bf9190613dcd565b905090565b6118cd33610f9d565b611922576040517f08c379a0000000000000000000000000000000000000000000000000000000008152600401808060200182810382526022815260200180614ed26022913960400191505060405180910390fd5b61194c7fdf8b4c520ffe197c5343c6f5aec59570151ef9a492f2c624fd45ddde6135ec4282611033565b50565b61195833610f9d565b6119ad576040517f08c379a0000000000000000000000000000000000000000000000000000000008152600401808060200182810382526022815260200180614ed26022913960400191505060405180910390fd5b600073ffffffffffffffffffffffffffffffffffffffff168173ffffffffffffffffffffffffffffffffffffffff161415611a50576040517f08c379a00000000000000000000000000000000000000000000000000000000081526004018080602001828103825260188152602001807f41636365737369626c653a207a65726f2061646472657373000000000000000081525060200191505060405180910390fd5b8073ffffffffffffffffffffffffffffffffffffffff163373ffffffffffffffffffffffffffffffffffffffff161415611af2576040517f08c379a00000000000000000000000000000000000000000000000000000000081526004018080602001828103825260168152602001807f41636365737369626c653a2073616d652061646d696e0000000000000000000081525060200191505060405180910390fd5b611b1c7fdf8b4c520ffe197c5343c6f5aec59570151ef9a492f2c624fd45ddde6135ec4282611033565b611b467fdf8b4c520ffe197c5343c6f5aec59570151ef9a492f2c624fd45ddde6135ec42336110c2565b50565b7fdf8b4c520ffe197c5343c6f5aec59570151ef9a492f2c624fd45ddde6135ec4281565b611b7633610f9d565b611bcb576040517f08c379a0000000000000000000000000000000000000000000000000000000008152600401808060200182810382526022815260200180614ed26022913960400191505060405180910390fd5b600081118015611bdd57508060035414155b611c1c576040517f08c379a0000000000000000000000000000000000000000000000000000000008152600401611c13906149c3565b60405180910390fd5b8060038190555050565b600160009054906101000a900473ffffffffffffffffffffffffffffffffffffffff1681565b6000611c75826000808681526020019081526020016000206000016134ec90919063ffffffff16565b905092915050565b6000611ca68260008086815260200190815260200160002060000161350690919063ffffffff16565b905092915050565b6000600960009054906101000a900460ff16611cff576040517f08c379a0000000000000000000000000000000000000000000000000000000008152600401611cf690614ae3565b60405180910390fd5b6000600160009054906101000a900473ffffffffffffffffffffffffffffffffffffffff1673ffffffffffffffffffffffffffffffffffffffff166370a08231306040518263ffffffff1660e01b8152600401611d5c9190614731565b60206040518083038186803b158015611d7457600080fd5b505afa158015611d88573d6000803e3d6000fd5b505050506040513d601f19601f82011682018060405250810190611dac9190613dcd565b905082811015611df1576040517f08c379a0000000000000000000000000000000000000000000000000000000008152600401611de890614983565b60405180910390fd5b6000600d60008673ffffffffffffffffffffffffffffffffffffffff1673ffffffffffffffffffffffffffffffffffffffff16815260200190815260200160002090506000816001015411611e7b576040517f08c379a0000000000000000000000000000000000000000000000000000000008152600401611e7290614bc3565b60405180910390fd5b6000816004015411611ec2576040517f08c379a0000000000000000000000000000000000000000000000000000000008152600401611eb990614923565b60405180910390fd5b611ed98482600501546132ec90919063ffffffff16565b81600401541015611f1f576040517f08c379a0000000000000000000000000000000000000000000000000000000008152600401611f16906148e3565b60405180910390fd5b60019250505092915050565b611f33613a9e565b600080611f3e613ac0565b6000806040518060400160405280600260009054906101000a900473ffffffffffffffffffffffffffffffffffffffff1673ffffffffffffffffffffffffffffffffffffffff1673ffffffffffffffffffffffffffffffffffffffff168152602001600b60009054906101000a900473ffffffffffffffffffffffffffffffffffffffff1673ffffffffffffffffffffffffffffffffffffffff1673ffffffffffffffffffffffffffffffffffffffff16815250600354600a54604051806060016040528060045481526020016005548152602001600654815250600854600960009054906101000a900460ff16955095509550955095509550909192939495565b600b60009054906101000a900473ffffffffffffffffffffffffffffffffffffffff1681565b601160019054906101000a900460ff1681565b6000801b81565b6000600960009054906101000a900460ff16801561209e5750600082115b6120dd576040517f08c379a00000000000000000000000000000000000000000000000000000000081526004016120d490614ae3565b60405180910390fd5b6000600160009054906101000a900473ffffffffffffffffffffffffffffffffffffffff1673ffffffffffffffffffffffffffffffffffffffff166370a08231306040518263ffffffff1660e01b815260040161213a9190614731565b60206040518083038186803b15801561215257600080fd5b505afa158015612166573d6000803e3d6000fd5b505050506040513d601f19601f8201168201806040525081019061218a9190613dcd565b9050828110156121cf576040517f08c379a00000000000000000000000000000000000000000000000000000000081526004016121c690614b63565b60405180910390fd5b6000600d60003373ffffffffffffffffffffffffffffffffffffffff1673ffffffffffffffffffffffffffffffffffffffff16815260200190815260200160002090506000816001015411612259576040517f08c379a000000000000000000000000000000000000000000000000000000000815260040161225090614b23565b60405180910390fd5b60008160040154116122a0576040517f08c379a000000000000000000000000000000000000000000000000000000000815260040161229790614a63565b60405180910390fd5b6122b78482600501546132ec90919063ffffffff16565b816004015410156122fd576040517f08c379a00000000000000000000000000000000000000000000000000000000081526004016122f490614ba3565b60405180910390fd5b6123148482600501546132ec90919063ffffffff16565b8160050181905550600160009054906101000a900473ffffffffffffffffffffffffffffffffffffffff1673ffffffffffffffffffffffffffffffffffffffff1663a9059cbb86866040518363ffffffff1660e01b8152600401612379929190614775565b602060405180830381600087803b15801561239357600080fd5b505af11580156123a7573d6000803e3d6000fd5b505050506040513d601f19601f820116820180604052508101906123cb9190613c73565b61240a576040517f08c379a0000000000000000000000000000000000000000000000000000000008152600401612401906149e3565b60405180910390fd5b3373ffffffffffffffffffffffffffffffffffffffff167faee3654837b73cc93e61b5d33f82d45b1df4dbe682913819f5ce40de23518e728686604051612452929190614775565b60405180910390a260019250505092915050565b60075481565b600960009054906101000a900460ff1681565b600a5481565b6060600e8054806020026020016040519081016040528092919081815260200182805480156124d357602002820191906000526020600020905b8154815260200190600101908083116124bf575b5050505050905090565b60006124fc600080848152602001908152602001600020600001613536565b9050919050565b6000600d60008373ffffffffffffffffffffffffffffffffffffffff1673ffffffffffffffffffffffffffffffffffffffff168152602001908152602001600020600401549050919050565b6060600c8054806020026020016040519081016040528092919081815260200182805480156125d357602002820191906000526020600020905b8160009054906101000a900473ffffffffffffffffffffffffffffffffffffffff1673ffffffffffffffffffffffffffffffffffffffff1681526020019060010190808311612589575b5050505050905090565b60085481565b7ff0887ba65ee2024ea881d91b74c2450ef19e1557f03bed3ea9f16b037cbe2dc981565b61262d60008084815260200190815260200160002060020154612628613374565b611c7d565b612682576040517f08c379a0000000000000000000000000000000000000000000000000000000008152600401808060200182810382526030815260200180614ef46030913960400191505060405180910390fd5b61268c828261340f565b5050565b600d602052806000526040600020600091509050806000018054600181600116156101000203166002900480601f01602080910402602001604051908101604052809291908181526020018280546001816001161561010002031660029004801561273c5780601f106127115761010080835404028352916020019161273c565b820191906000526020600020905b81548152906001019060200180831161271f57829003601f168201915b5050505050908060010154908060020154908060030154908060040154908060050154905086565b600960009054906101000a900460ff16156127b4576040517f08c379a00000000000000000000000000000000000000000000000000000000081526004016127ab90614aa3565b60405180910390fd5b60006003541180156127c857506000600554115b80156127d75750600654600554105b80156127e4575060055443115b612823576040517f08c379a000000000000000000000000000000000000000000000000000000000815260040161281a90614a03565b60405180910390fd5b6000600c805490501161286b576040517f08c379a0000000000000000000000000000000000000000000000000000000008152600401612862906149a3565b60405180910390fd5b60065460078190555060005b600c80549050811015612b3e576000600d6000600c848154811061289757fe5b9060005260206000200160009054906101000a900473ffffffffffffffffffffffffffffffffffffffff1673ffffffffffffffffffffffffffffffffffffffff1673ffffffffffffffffffffffffffffffffffffffff1681526020019081526020016000209050600073ffffffffffffffffffffffffffffffffffffffff16600260009054906101000a900473ffffffffffffffffffffffffffffffffffffffff1673ffffffffffffffffffffffffffffffffffffffff1614156129b157600c828154811061296257fe5b9060005260206000200160009054906101000a900473ffffffffffffffffffffffffffffffffffffffff1673ffffffffffffffffffffffffffffffffffffffff16318160030181905550612aa2565b6000600260009054906101000a900473ffffffffffffffffffffffffffffffffffffffff1673ffffffffffffffffffffffffffffffffffffffff166370a08231600c85815481106129fe57fe5b9060005260206000200160009054906101000a900473ffffffffffffffffffffffffffffffffffffffff166040518263ffffffff1660e01b8152600401612a459190614716565b60206040518083038186803b158015612a5d57600080fd5b505afa158015612a71573d6000803e3d6000fd5b505050506040513d601f19601f82011682018060405250810190612a959190613dcd565b9050808260030181905550505b600081600301541115612b3057600d6000600c8481548110612ac057fe5b9060005260206000200160009054906101000a900473ffffffffffffffffffffffffffffffffffffffff1673ffffffffffffffffffffffffffffffffffffffff1673ffffffffffffffffffffffffffffffffffffffff168152602001908152602001600020600201546007819055505b508080600101915050612877565b50612b6a612b596005546007546134a290919063ffffffff16565b60035461354b90919063ffffffff16565b6008819055506000805b600c805490508110156132a1576000600d6000600c8481548110612b9457fe5b9060005260206000200160009054906101000a900473ffffffffffffffffffffffffffffffffffffffff1673ffffffffffffffffffffffffffffffffffffffff1673ffffffffffffffffffffffffffffffffffffffff16815260200190815260200160002090506000805b600c80549050811015612d2c578260020154600d6000600c8481548110612c2257fe5b9060005260206000200160009054906101000a900473ffffffffffffffffffffffffffffffffffffffff1673ffffffffffffffffffffffffffffffffffffffff1673ffffffffffffffffffffffffffffffffffffffff1681526020019081526020016000206002015410612d1f57612d1c600d6000600c8481548110612ca457fe5b9060005260206000200160009054906101000a900473ffffffffffffffffffffffffffffffffffffffff1673ffffffffffffffffffffffffffffffffffffffff1673ffffffffffffffffffffffffffffffffffffffff16815260200190815260200160002060030154836132ec90919063ffffffff16565b91505b8080600101915050612bff565b5060075482600201541115612d42575050613294565b80600f60008460020154815260200190815260200160002081905550612d7181856132ec90919063ffffffff16565b93506000808490505b600081111561300b576000600f6000600d6000600c8681548110612d9a57fe5b9060005260206000200160009054906101000a900473ffffffffffffffffffffffffffffffffffffffff1673ffffffffffffffffffffffffffffffffffffffff1673ffffffffffffffffffffffffffffffffffffffff168152602001908152602001600020600201548152602001908152602001600020541115612ffd57612ffa612feb600f6000600d6000600c8781548110612e3357fe5b9060005260206000200160009054906101000a900473ffffffffffffffffffffffffffffffffffffffff1673ffffffffffffffffffffffffffffffffffffffff1673ffffffffffffffffffffffffffffffffffffffff16815260200190815260200160002060020154815260200190815260200160002054612fdd8760030154612fcf600854612fc1600d6000600c60018c0381548110612ed057fe5b9060005260206000200160009054906101000a900473ffffffffffffffffffffffffffffffffffffffff1673ffffffffffffffffffffffffffffffffffffffff1673ffffffffffffffffffffffffffffffffffffffff16815260200190815260200160002060020154600d6000600c8c81548110612f4a57fe5b9060005260206000200160009054906101000a900473ffffffffffffffffffffffffffffffffffffffff1673ffffffffffffffffffffffffffffffffffffffff1673ffffffffffffffffffffffffffffffffffffffff168152602001908152602001600020600201546134a290919063ffffffff16565b61359590919063ffffffff16565b61359590919063ffffffff16565b61354b90919063ffffffff16565b836132ec90919063ffffffff16565b91505b808060019003915050612d7a565b506000600f6000600d6000600c60008154811061302457fe5b9060005260206000200160009054906101000a900473ffffffffffffffffffffffffffffffffffffffff1673ffffffffffffffffffffffffffffffffffffffff1673ffffffffffffffffffffffffffffffffffffffff16815260200190815260200160002060020154815260200190815260200160002054111561328757613284613275600f6000600d6000600c6000815481106130be57fe5b9060005260206000200160009054906101000a900473ffffffffffffffffffffffffffffffffffffffff1673ffffffffffffffffffffffffffffffffffffffff1673ffffffffffffffffffffffffffffffffffffffff16815260200190815260200160002060020154815260200190815260200160002054613267866003015461325960085461324b600d6000600c60008154811061315957fe5b9060005260206000200160009054906101000a900473ffffffffffffffffffffffffffffffffffffffff1673ffffffffffffffffffffffffffffffffffffffff1673ffffffffffffffffffffffffffffffffffffffff16815260200190815260200160002060010154600d6000600c6000815481106131d457fe5b9060005260206000200160009054906101000a900473ffffffffffffffffffffffffffffffffffffffff1673ffffffffffffffffffffffffffffffffffffffff1673ffffffffffffffffffffffffffffffffffffffff168152602001908152602001600020600201546134a290919063ffffffff16565b61359590919063ffffffff16565b61359590919063ffffffff16565b61354b90919063ffffffff16565b826132ec90919063ffffffff16565b90505b8083600401819055505050505b8080600101915050612b74565b506001600960006101000a81548160ff0219169083151502179055507fc5b08164caddd376836c1274d424a6a993b43d0225bb894c5b9e2a1e91e4bf5c60405160405180910390a150565b60008082840190508381101561336a576040517f08c379a000000000000000000000000000000000000000000000000000000000815260040180806020018281038252601b8152602001807f536166654d6174683a206164646974696f6e206f766572666c6f77000000000081525060200191505060405180910390fd5b8091505092915050565b600033905090565b6133a38160008085815260200190815260200160002060000161361b90919063ffffffff16565b1561340b576133b0613374565b73ffffffffffffffffffffffffffffffffffffffff168173ffffffffffffffffffffffffffffffffffffffff16837f2f8788117e7eff1d82e926ec794901d17c78024a50270940304540a733656f0d60405160405180910390a45b5050565b6134368160008085815260200190815260200160002060000161364b90919063ffffffff16565b1561349e57613443613374565b73ffffffffffffffffffffffffffffffffffffffff168173ffffffffffffffffffffffffffffffffffffffff16837ff6391f5c32d9c69d2a47ea670b442974b53935d1edc7fd64eb21e047a839171b60405160405180910390a45b5050565b60006134e483836040518060400160405280601e81526020017f536166654d6174683a207375627472616374696f6e206f766572666c6f77000081525061367b565b905092915050565b60006134fb836000018361373b565b60001c905092915050565b600061352e836000018373ffffffffffffffffffffffffffffffffffffffff1660001b6137be565b905092915050565b6000613544826000016137e1565b9050919050565b600061358d83836040518060400160405280601a81526020017f536166654d6174683a206469766973696f6e206279207a65726f0000000000008152506137f2565b905092915050565b6000808314156135a85760009050613615565b60008284029050828482816135b957fe5b0414613610576040517f08c379a0000000000000000000000000000000000000000000000000000000008152600401808060200182810382526021815260200180614f246021913960400191505060405180910390fd5b809150505b92915050565b6000613643836000018373ffffffffffffffffffffffffffffffffffffffff1660001b6138b8565b905092915050565b6000613673836000018373ffffffffffffffffffffffffffffffffffffffff1660001b613928565b905092915050565b6000838311158290613728576040517f08c379a00000000000000000000000000000000000000000000000000000000081526004018080602001828103825283818151815260200191508051906020019080838360005b838110156136ed5780820151818401526020810190506136d2565b50505050905090810190601f16801561371a5780820380516001836020036101000a031916815260200191505b509250505060405180910390fd5b5060008385039050809150509392505050565b60008183600001805490501161379c576040517f08c379a0000000000000000000000000000000000000000000000000000000008152600401808060200182810382526022815260200180614e816022913960400191505060405180910390fd5b8260000182815481106137ab57fe5b9060005260206000200154905092915050565b600080836001016000848152602001908152602001600020541415905092915050565b600081600001805490509050919050565b6000808311829061389e576040517f08c379a00000000000000000000000000000000000000000000000000000000081526004018080602001828103825283818151815260200191508051906020019080838360005b83811015613863578082015181840152602081019050613848565b50505050905090810190601f1680156138905780820380516001836020036101000a031916815260200191505b509250505060405180910390fd5b5060008385816138aa57fe5b049050809150509392505050565b60006138c483836137be565b61391d578260000182908060018154018082558091505060019003906000526020600020016000909190919091505582600001805490508360010160008481526020019081526020016000208190555060019050613922565b600090505b92915050565b60008083600101600084815260200190815260200160002054905060008114613a04576000600182039050600060018660000180549050039050600086600001828154811061397357fe5b906000526020600020015490508087600001848154811061399057fe5b90600052602060002001819055506001830187600101600083815260200190815260200160002081905550866000018054806139c857fe5b60019003818190600052602060002001600090559055866001016000878152602001908152602001600020600090556001945050505050613a0a565b60009150505b92915050565b828054600181600116156101000203166002900490600052602060002090601f016020900481019282613a465760008555613a8d565b82601f10613a5f57805160ff1916838001178555613a8d565b82800160010185558215613a8d579182015b82811115613a8c578251825591602001919060010190613a71565b5b509050613a9a9190613ae2565b5090565b6040518060400160405280600290602082028036833780820191505090505090565b6040518060600160405280600390602082028036833780820191505090505090565b5b80821115613afb576000816000905550600101613ae3565b5090565b6000613b12613b0d84614c2f565b614bfe565b905082815260208101848484011115613b2a57600080fd5b613b35848285614dcf565b509392505050565b600081359050613b4c81614e24565b92915050565b600081519050613b6181614e24565b92915050565b600081519050613b7681614e3b565b92915050565b600081359050613b8b81614e52565b92915050565b600082601f830112613ba257600080fd5b8135613bb2848260208601613aff565b91505092915050565b600081359050613bca81614e69565b92915050565b600081519050613bdf81614e69565b92915050565b600060208284031215613bf757600080fd5b6000613c0584828501613b3d565b91505092915050565b600060208284031215613c2057600080fd5b6000613c2e84828501613b52565b91505092915050565b60008060408385031215613c4a57600080fd5b6000613c5885828601613b3d565b9250506020613c6985828601613bbb565b9150509250929050565b600060208284031215613c8557600080fd5b6000613c9384828501613b67565b91505092915050565b600060208284031215613cae57600080fd5b6000613cbc84828501613b7c565b91505092915050565b60008060408385031215613cd857600080fd5b6000613ce685828601613b7c565b9250506020613cf785828601613b3d565b9150509250929050565b60008060408385031215613d1457600080fd5b6000613d2285828601613b7c565b9250506020613d3385828601613bbb565b9150509250929050565b600080600060608486031215613d5257600080fd5b600084013567ffffffffffffffff811115613d6c57600080fd5b613d7886828701613b91565b9350506020613d8986828701613b3d565b9250506040613d9a86828701613bbb565b9150509250925092565b600060208284031215613db657600080fd5b6000613dc484828501613bbb565b91505092915050565b600060208284031215613ddf57600080fd5b6000613ded84828501613bd0565b91505092915050565b6000613e028383613e35565b60208301905092915050565b6000613e1a83836146f8565b60208301905092915050565b613e2f81614d99565b82525050565b613e3e81614d47565b82525050565b613e4d81614d47565b82525050565b613e5c81614c93565b613e668184614cfe565b9250613e7182614c5f565b8060005b83811015613ea2578151613e898782613df6565b9650613e9483614cca565b925050600181019050613e75565b505050505050565b6000613eb582614c9e565b613ebf8185614d09565b9350613eca83614c69565b8060005b83811015613efb578151613ee28882613df6565b9750613eed83614cd7565b925050600181019050613ece565b5085935050505092915050565b613f1181614ca9565b613f1b8184614d1a565b9250613f2682614c79565b8060005b83811015613f57578151613f3e8782613e0e565b9650613f4983614ce4565b925050600181019050613f2a565b505050505050565b6000613f6a82614cb4565b613f748185614d25565b9350613f7f83614c83565b8060005b83811015613fb0578151613f978882613e0e565b9750613fa283614cf1565b925050600181019050613f83565b5085935050505092915050565b613fc681614d59565b82525050565b613fd581614d65565b82525050565b6000613fe682614cbf565b613ff08185614d36565b9350614000818560208601614dde565b61400981614e13565b840191505092915050565b6000614021601b83614d36565b91507f5374616b65315661756c743a20616d6f756e74206578636565647300000000006000830152602082019050919050565b6000614061602283614d36565b91507f5374616b65315661756c743a20416c726561647920737461727465642073746160008301527f6b650000000000000000000000000000000000000000000000000000000000006020830152604082019050919050565b60006140c7601c83614d36565b91507f5374616b65315661756c743a20616d6f756e742069732077726f6e67000000006000830152602082019050919050565b6000614107602883614d36565b91507f5374616b65315661756c743a206164645374616b6572496e5661756c7420696e60008301527f6974206661696c730000000000000000000000000000000000000000000000006020830152604082019050919050565b600061416d601a83614d36565b91507f5374616b65315661756c743a20696e707574206973207a65726f0000000000006000830152602082019050919050565b60006141ad600a83614d36565b91507f6e6f7420656e6f756768000000000000000000000000000000000000000000006000830152602082019050919050565b60006141ed601683614d36565b91507f5374616b65315661756c743a206e6f207374616b6573000000000000000000006000830152602082019050919050565b600061422d601c83614d36565b91507f5374616b65315661756c743a206368616e6765436170206661696c73000000006000830152602082019050919050565b600061426d601e83614d36565b91507f5374616b65315661756c743a20544f53207472616e73666572206661696c00006000830152602082019050919050565b60006142ad602383614d36565b91507f5374616b65315661756c743a204265666f7265207374616b655374617274426c60008301527f6f636b00000000000000000000000000000000000000000000000000000000006020830152604082019050919050565b6000614313601883614d36565b91507f5374616b65315661756c743a20636c6f7365642073616c6500000000000000006000830152602082019050919050565b6000614353601c83614d36565b91507f5374616b65315661756c743a206469646e277420656e642073616c65000000006000830152602082019050919050565b6000614393602683614d36565b91507f5374616b65315661756c743a20746f74616c526577617264416d6f756e74206960008301527f73207a65726f00000000000000000000000000000000000000000000000000006020830152604082019050919050565b60006143f9601e83614d36565b91507f5374616b65315661756c743a205f6465666941646472206973207a65726f00006000830152602082019050919050565b6000614439601b83614d36565b91507f5374616b65315661756c743a20616c726561647920636c6f73656400000000006000830152602082019050919050565b6000614479601f83614d36565b91507f5374616b65315661756c743a20446966666572656e7420706179746f6b656e006000830152602082019050919050565b60006144b9602c83614d36565b91507f5374616b65315661756c743a206f6e2073616c65206f72206e65656420746f2060008301527f656e64207468652073616c6500000000000000000000000000000000000000006020830152604082019050919050565b600061451f601a83614d36565b91507f5374616b65315661756c743a20416c72656164792061646465640000000000006000830152602082019050919050565b600061455f601c83614d36565b91507f5374616b65315661756c743a207374617274426c6f636b207a65726f000000006000830152602082019050919050565b600061459f601783614d36565b91507f5374616b65315661756c743a20696e7375666669656e740000000000000000006000830152602082019050919050565b60006145df601f83614d36565b91507f5374616b65315661756c743a206e6f7420656e6f7567682062616c616e6365006000830152602082019050919050565b600061461f602083614d36565b91507f5374616b65315661756c743a206661696c2077697468647261775265776172646000830152602082019050919050565b600061465f602183614d36565b91507f5374616b65315661756c743a20636c61696d20616d6f756e742065786365656460008301527f73000000000000000000000000000000000000000000000000000000000000006020830152604082019050919050565b60006146c5601f83614d36565b91507f5374616b65315661756c743a207374617274426c6f636b206973207a65726f006000830152602082019050919050565b61470181614d8f565b82525050565b61471081614d8f565b82525050565b600060208201905061472b6000830184613e44565b92915050565b60006020820190506147466000830184613e26565b92915050565b60006040820190506147616000830185613e26565b61476e6020830184614707565b9392505050565b600060408201905061478a6000830185613e44565b6147976020830184614707565b9392505050565b6000610120820190506147b46000830189613e53565b6147c16040830188614707565b6147ce6060830187614707565b6147db6080830186613f08565b6147e860e0830185614707565b6147f6610100830184613fbd565b979650505050505050565b6000602082019050818103600083015261481b8184613eaa565b905092915050565b6000602082019050818103600083015261483d8184613f5f565b905092915050565b600060208201905061485a6000830184613fbd565b92915050565b60006020820190506148756000830184613fcc565b92915050565b600060c08201905081810360008301526148958189613fdb565b90506148a46020830188614707565b6148b16040830187614707565b6148be6060830186614707565b6148cb6080830185614707565b6148d860a0830184614707565b979650505050505050565b600060208201905081810360008301526148fc81614014565b9050919050565b6000602082019050818103600083015261491c81614054565b9050919050565b6000602082019050818103600083015261493c816140ba565b9050919050565b6000602082019050818103600083015261495c816140fa565b9050919050565b6000602082019050818103600083015261497c81614160565b9050919050565b6000602082019050818103600083015261499c816141a0565b9050919050565b600060208201905081810360008301526149bc816141e0565b9050919050565b600060208201905081810360008301526149dc81614220565b9050919050565b600060208201905081810360008301526149fc81614260565b9050919050565b60006020820190508181036000830152614a1c816142a0565b9050919050565b60006020820190508181036000830152614a3c81614306565b9050919050565b60006020820190508181036000830152614a5c81614346565b9050919050565b60006020820190508181036000830152614a7c81614386565b9050919050565b60006020820190508181036000830152614a9c816143ec565b9050919050565b60006020820190508181036000830152614abc8161442c565b9050919050565b60006020820190508181036000830152614adc8161446c565b9050919050565b60006020820190508181036000830152614afc816144ac565b9050919050565b60006020820190508181036000830152614b1c81614512565b9050919050565b60006020820190508181036000830152614b3c81614552565b9050919050565b60006020820190508181036000830152614b5c81614592565b9050919050565b60006020820190508181036000830152614b7c816145d2565b9050919050565b60006020820190508181036000830152614b9c81614612565b9050919050565b60006020820190508181036000830152614bbc81614652565b9050919050565b60006020820190508181036000830152614bdc816146b8565b9050919050565b6000602082019050614bf86000830184614707565b92915050565b6000604051905081810181811067ffffffffffffffff82111715614c2557614c24614e11565b5b8060405250919050565b600067ffffffffffffffff821115614c4a57614c49614e11565b5b601f19601f8301169050602081019050919050565b6000819050919050565b6000819050602082019050919050565b6000819050919050565b6000819050602082019050919050565b600060029050919050565b600081519050919050565b600060039050919050565b600081519050919050565b600081519050919050565b6000602082019050919050565b6000602082019050919050565b6000602082019050919050565b6000602082019050919050565b600081905092915050565b600082825260208201905092915050565b600081905092915050565b600082825260208201905092915050565b600082825260208201905092915050565b6000614d5282614d6f565b9050919050565b60008115159050919050565b6000819050919050565b600073ffffffffffffffffffffffffffffffffffffffff82169050919050565b6000819050919050565b6000614da482614dab565b9050919050565b6000614db682614dbd565b9050919050565b6000614dc882614d6f565b9050919050565b82818337600083830152505050565b60005b83811015614dfc578082015181840152602081019050614de1565b83811115614e0b576000848401525b50505050565bfe5b6000601f19601f8301169050919050565b614e2d81614d47565b8114614e3857600080fd5b50565b614e4481614d59565b8114614e4f57600080fd5b50565b614e5b81614d65565b8114614e6657600080fd5b50565b614e7281614d8f565b8114614e7d57600080fd5b5056fe456e756d657261626c655365743a20696e646578206f7574206f6620626f756e6473416363657373436f6e74726f6c3a2073656e646572206d75737420626520616e2061646d696e20746f206772616e7441636365737369626c653a2043616c6c6572206973206e6f7420616e2061646d696e416363657373436f6e74726f6c3a2073656e646572206d75737420626520616e2061646d696e20746f207265766f6b65536166654d6174683a206d756c7469706c69636174696f6e206f766572666c6f77416363657373436f6e74726f6c3a2063616e206f6e6c792072656e6f756e636520726f6c657320666f722073656c66a26469706673582212201933f561a84e41a085d7e60fe0d9735a15effc47e457416d090ab07ef761fce864736f6c63430007060033",
  "linkReferences": {},
  "deployedLinkReferences": {}
}