{
  "_format": "hh-sol-artifact-1",
  "contractName": "BaseVaultStorage",
  "sourceName": "contracts/vaults/BaseVaultStorage.sol",
  "abi": [
    {
      "inputs": [],
      "name": "endTime",
      "outputs": [
        {
          "internalType": "uint256",
          "name": "",
          "type": "uint256"
        }
      ],
      "stateMutability": "view",
      "type": "function"
    },
    {
      "inputs": [],
      "name": "maxInputOnceTime",
      "outputs": [
        {
          "internalType": "uint256",
          "name": "",
          "type": "uint256"
        }
      ],
      "stateMutability": "view",
      "type": "function"
    },
    {
      "inputs": [],
      "name": "name",
      "outputs": [
        {
          "internalType": "string",
          "name": "",
          "type": "string"
        }
      ],
      "stateMutability": "view",
      "type": "function"
    },
    {
      "inputs": [],
      "name": "periodTimesPerClaim",
      "outputs": [
        {
          "internalType": "uint256",
          "name": "",
          "type": "uint256"
        }
      ],
      "stateMutability": "view",
      "type": "function"
    },
    {
      "inputs": [],
      "name": "startTime",
      "outputs": [
        {
          "internalType": "uint256",
          "name": "",
          "type": "uint256"
        }
      ],
      "stateMutability": "view",
      "type": "function"
    },
    {
      "inputs": [
        {
          "internalType": "uint256",
          "name": "",
          "type": "uint256"
        }
      ],
      "name": "tgeInfos",
      "outputs": [
        {
          "internalType": "bool",
          "name": "allocated",
          "type": "bool"
        },
        {
          "internalType": "bool",
          "name": "started",
          "type": "bool"
        },
        {
          "internalType": "uint256",
          "name": "allocatedAmount",
          "type": "uint256"
        },
        {
          "internalType": "uint256",
          "name": "claimedCount",
          "type": "uint256"
        },
        {
          "internalType": "uint256",
          "name": "amount",
          "type": "uint256"
        }
      ],
      "stateMutability": "view",
      "type": "function"
    },
    {
      "inputs": [],
      "name": "tos",
      "outputs": [
        {
          "internalType": "address",
          "name": "",
          "type": "address"
        }
      ],
      "stateMutability": "view",
      "type": "function"
    },
    {
      "inputs": [],
      "name": "totalAllocatedAmount",
      "outputs": [
        {
          "internalType": "uint256",
          "name": "",
          "type": "uint256"
        }
      ],
      "stateMutability": "view",
      "type": "function"
    },
    {
      "inputs": [],
      "name": "totalClaimedAmount",
      "outputs": [
        {
          "internalType": "uint256",
          "name": "",
          "type": "uint256"
        }
      ],
      "stateMutability": "view",
      "type": "function"
    },
    {
      "inputs": [],
      "name": "totalClaims",
      "outputs": [
        {
          "internalType": "uint256",
          "name": "",
          "type": "uint256"
        }
      ],
      "stateMutability": "view",
      "type": "function"
    },
    {
      "inputs": [],
      "name": "totalTgeAmount",
      "outputs": [
        {
          "internalType": "uint256",
          "name": "",
          "type": "uint256"
        }
      ],
      "stateMutability": "view",
      "type": "function"
    },
    {
      "inputs": [],
      "name": "totalTgeCount",
      "outputs": [
        {
          "internalType": "uint256",
          "name": "",
          "type": "uint256"
        }
      ],
      "stateMutability": "view",
      "type": "function"
    },
    {
      "inputs": [
        {
          "internalType": "address",
          "name": "",
          "type": "address"
        }
      ],
      "name": "userClaimedAmount",
      "outputs": [
        {
          "internalType": "uint256",
          "name": "",
          "type": "uint256"
        }
      ],
      "stateMutability": "view",
      "type": "function"
    }
  ],
  "bytecode": "0x608060405234801561001057600080fd5b5061039e806100206000396000f3fe608060405234801561001057600080fd5b50600436106100cf5760003560e01c8063556400081161008c578063814f26fc11610066578063814f26fc146101c057806389f395de146101c95780639661cb0d146101f4578063d9934719146101fd57600080fd5b806355640008146101a55780635913ec19146101ae57806378e97925146101b757600080fd5b806306fdde03146100d4578063166cf32c146100f25780632f9267231461015c5780633197cbb61461018a5780633ef1a1aa1461019357806341c613831461019c575b600080fd5b6100dc610206565b6040516100e991906102da565b60405180910390f35b6101326101003660046102c2565b600b60205260009081526040902080546001820154600283015460039093015460ff8084169461010090940416929085565b6040805195151586529315156020860152928401919091526060830152608082015260a0016100e9565b61017c61016a366004610294565b600c6020526000908152604090205481565b6040519081526020016100e9565b61017c60065481565b61017c60005481565b61017c60085481565b61017c60035481565b61017c60075481565b61017c60055481565b61017c600a5481565b6002546101dc906001600160a01b031681565b6040516001600160a01b0390911681526020016100e9565b61017c60045481565b61017c60095481565b600180546102139061032d565b80601f016020809104026020016040519081016040528092919081815260200182805461023f9061032d565b801561028c5780601f106102615761010080835404028352916020019161028c565b820191906000526020600020905b81548152906001019060200180831161026f57829003601f168201915b505050505081565b6000602082840312156102a5578081fd5b81356001600160a01b03811681146102bb578182fd5b9392505050565b6000602082840312156102d3578081fd5b5035919050565b6000602080835283518082850152825b81811015610306578581018301518582016040015282016102ea565b818111156103175783604083870101525b50601f01601f1916929092016040019392505050565b600181811c9082168061034157607f821691505b6020821081141561036257634e487b7160e01b600052602260045260246000fd5b5091905056fea2646970667358221220b700790776c546e867188bacde0f6afde75cb7f35f5caef5cbd57aa8de5e86c164736f6c63430008040033",
  "linkReferences": {},
  "deployedLinkReferences": {}
}