{
  "contractName": "BitMathTest",
  "abi": [
    {
      "inputs": [
        {
          "internalType": "uint256",
          "name": "x",
          "type": "uint256"
        }
      ],
      "name": "mostSignificantBit",
      "outputs": [
        {
          "internalType": "uint8",
          "name": "r",
          "type": "uint8"
        }
      ],
      "stateMutability": "pure",
      "type": "function"
    },
    {
      "inputs": [
        {
          "internalType": "uint256",
          "name": "x",
          "type": "uint256"
        }
      ],
      "name": "getGasCostOfMostSignificantBit",
      "outputs": [
        {
          "internalType": "uint256",
          "name": "",
          "type": "uint256"
        }
      ],
      "stateMutability": "view",
      "type": "function"
    },
    {
      "inputs": [
        {
          "internalType": "uint256",
          "name": "x",
          "type": "uint256"
        }
      ],
      "name": "leastSignificantBit",
      "outputs": [
        {
          "internalType": "uint8",
          "name": "r",
          "type": "uint8"
        }
      ],
      "stateMutability": "pure",
      "type": "function"
    },
    {
      "inputs": [
        {
          "internalType": "uint256",
          "name": "x",
          "type": "uint256"
        }
      ],
      "name": "getGasCostOfLeastSignificantBit",
      "outputs": [
        {
          "internalType": "uint256",
          "name": "",
          "type": "uint256"
        }
      ],
      "stateMutability": "view",
      "type": "function"
    }
  ],
  "bytecode": "0x608060405234801561001057600080fd5b506102e9806100206000396000f3fe608060405234801561001057600080fd5b506004361061004b5760003560e01c806246b777146100505780636b83cf261461007f578063d230d23f1461009c578063e6bcbc65146100cf575b600080fd5b61006d6004803603602081101561006657600080fd5b50356100ec565b60408051918252519081900360200190f35b61006d6004803603602081101561009557600080fd5b5035610107565b6100b9600480360360208110156100b257600080fd5b5035610116565b6040805160ff9092168252519081900360200190f35b6100b9600480360360208110156100e557600080fd5b5035610127565b6000805a90506100fb8361012e565b505a900390505b919050565b6000805a90506100fb836101c9565b6000610121826101c9565b92915050565b6000610121825b600080821161013c57600080fd5b600160801b821061014f57608091821c91015b600160401b821061016257604091821c91015b640100000000821061017657602091821c91015b62010000821061018857601091821c91015b610100821061019957600891821c91015b601082106101a957600491821c91015b600482106101b957600291821c91015b6002821061010257600101919050565b60008082116101d757600080fd5b5060ff6001600160801b038216156101f257607f19016101fa565b608082901c91505b67ffffffffffffffff82161561021357603f190161021b565b604082901c91505b63ffffffff82161561023057601f1901610238565b602082901c91505b61ffff82161561024b57600f1901610253565b601082901c91505b60ff821615610265576007190161026d565b600882901c91505b600f82161561027f5760031901610287565b600482901c91505b600382161561029957600119016102a1565b600282901c91505b6001821615610102576000190191905056fea26469706673582212203197deea70489177fe190b647d4f38a69a4d19d98a32d0b8db605ca14744f5c064736f6c63430007060033",
  "immutableReferences": {},
  "source": "// SPDX-License-Identifier: UNLICENSED\npragma solidity =0.7.6;\n\nimport '../libraries/BitMath.sol';\n\ncontract BitMathTest {\n    function mostSignificantBit(uint256 x) external pure returns (uint8 r) {\n        return BitMath.mostSignificantBit(x);\n    }\n\n    function getGasCostOfMostSignificantBit(uint256 x) external view returns (uint256) {\n        uint256 gasBefore = gasleft();\n        BitMath.mostSignificantBit(x);\n        return gasBefore - gasleft();\n    }\n\n    function leastSignificantBit(uint256 x) external pure returns (uint8 r) {\n        return BitMath.leastSignificantBit(x);\n    }\n\n    function getGasCostOfLeastSignificantBit(uint256 x) external view returns (uint256) {\n        uint256 gasBefore = gasleft();\n        BitMath.leastSignificantBit(x);\n        return gasBefore - gasleft();\n    }\n}\n",
  "sourcePath": "/Users/zena/ico2.0/ico20-contracts/uniswap-v3-core/contracts/test/BitMathTest.sol",
  "compiler": {
    "name": "solc",
    "version": "0.7.6+commit.7338295f.Emscripten.clang"
  },
  "schemaVersion": "3.3.4",
  "updatedAt": "2021-07-12T13:29:11.489Z",
  "devdoc": {
    "kind": "dev",
    "methods": {},
    "version": 1
  },
  "userdoc": {
    "kind": "user",
    "methods": {},
    "version": 1
  }
}