{
  "contractName": "MockTimeUniswapV3PoolDeployer",
  "abi": [
    {
      "anonymous": false,
      "inputs": [
        {
          "indexed": false,
          "internalType": "address",
          "name": "pool",
          "type": "address"
        }
      ],
      "name": "PoolDeployed",
      "type": "event"
    },
    {
      "inputs": [],
      "name": "parameters",
      "outputs": [
        {
          "internalType": "address",
          "name": "factory",
          "type": "address"
        },
        {
          "internalType": "address",
          "name": "token0",
          "type": "address"
        },
        {
          "internalType": "address",
          "name": "token1",
          "type": "address"
        },
        {
          "internalType": "uint24",
          "name": "fee",
          "type": "uint24"
        },
        {
          "internalType": "int24",
          "name": "tickSpacing",
          "type": "int24"
        }
      ],
      "stateMutability": "view",
      "type": "function"
    },
    {
      "inputs": [
        {
          "internalType": "address",
          "name": "factory",
          "type": "address"
        },
        {
          "internalType": "address",
          "name": "token0",
          "type": "address"
        },
        {
          "internalType": "address",
          "name": "token1",
          "type": "address"
        },
        {
          "internalType": "uint24",
          "name": "fee",
          "type": "uint24"
        },
        {
          "internalType": "int24",
          "name": "tickSpacing",
          "type": "int24"
        }
      ],
      "name": "deploy",
      "outputs": [
        {
          "internalType": "address",
          "name": "pool",
          "type": "address"
        }
      ],
      "stateMutability": "nonpayable",
      "type": "function"
    }
  ],
  "bytecode": "0x608060405234801561001057600080fd5b50615aef806100206000396000f3fe608060405234801561001057600080fd5b50600436106100365760003560e01c8063890357301461003b578063fad5359f14610085575b600080fd5b6100436100eb565b604080516001600160a01b0396871681529486166020860152929094168383015262ffffff16606083015260029290920b608082015290519081900360a00190f35b6100cf600480360360a081101561009b57600080fd5b506001600160a01b03813581169160208101358216916040820135169062ffffff606082013516906080013560020b610121565b604080516001600160a01b039092168252519081900360200190f35b600054600154600280546001600160a01b03938416939283169281169162ffffff600160a01b83041691600160b81b9004900b85565b6040805160a0810182526001600160a01b03878116808352878216602080850182905292881684860181905262ffffff888116606080880182905260028a810b6080909901899052600080546001600160a01b03199081169098178155600180548916909717909655805490961690931762ffffff60a01b1916600160a01b9091021762ffffff60b81b1916600160b81b87860b9092169190910217909255845189831b6bffffffffffffffffffffffff19908116828601529289901b909216603483015260e887811b6001600160e81b03191660488401529390931b604b8201528351808203602e018152604e9091019384905280519101209091610226906102bc565b8190604051809103906000f5905080158015610246573d6000803e3d6000fd5b50604080516001600160a01b038316815290519192507ff0d1eeab175eee2e20b8dc452773bf2257b25724b323b42bc6e5b4616233ae1f919081900360200190a1600080546001600160a01b0319908116909155600180549091169055600280546001600160d01b031916905595945050505050565b6157f0806102ca8339019056fe610160604052635f7b26e062010007553480156200001c57600080fd5b503060601b60805260408051630890357360e41b81529051600091339163890357309160048082019260a092909190829003018186803b1580156200006057600080fd5b505afa15801562000075573d6000803e3d6000fd5b505050506040513d60a08110156200008c57600080fd5b508051602080830151604084015160608086015160809096015160e896871b6001600160e81b0319166101005291811b6001600160601b031990811660e05292811b831660c0529390931b1660a052600282810b900b90921b6101205291506200010190829062000119811b62002b6517901c565b60801b6001600160801b031916610140525062000187565b60008082600281900b620d89e719816200012f57fe5b05029050600083600281900b620d89e8816200014757fe5b0502905060008460020b83830360020b816200015f57fe5b0560010190508062ffffff166001600160801b038016816200017d57fe5b0495945050505050565b60805160601c60a05160601c60c05160601c60e05160601c6101005160e81c6101205160e81c6101405160801c61559c620002546000398061202b5280614a9b5280614ad2525080610c5052806129175280614b065280614b38525080610d3f5280611a085280611a3f52806129645250806111fd5280611ac25280611f315280612466528061293b5280613dcf525080610922528061132b5280611a915280611ecb52806123e05280613c865250806120b8528061229f52806128f3525080612bdc525061559c6000f3fe608060405234801561001057600080fd5b506004361061019a5760003560e01c806370cf754a116100e4578063d0c93a7c11610092578063d0c93a7c146107e2578063d21220a714610801578063d380c67914610809578063ddca3f4314610826578063f305839914610846578063f30dba931461084e578063f637731d146108d0578063f6eb760f146108f65761019a565b806370cf754a146105d15780638206a4d1146105d957806385b6672914610601578063883bdbfd1461063e578063a34123a714610745578063a38807f21461077f578063c45a0155146107da5761019a565b806332148f671161014c57806332148f671461035b5780633850c7bd1461037c5780633c8a7d8d146103d55780634614131914610475578063490e6cbc1461047d5780634f1eb3d814610507578063514ea4bf146105585780635339c296146105b15761019a565b806307e32f0a1461019f5780630dfe1681146101be578063128acb08146101e257806316ada5471461028f5780631a686502146102a95780631ad8b03b146102cd578063252c09d714610304575b600080fd5b6101bc600480360360208110156101b557600080fd5b5035610913565b005b6101c6610920565b604080516001600160a01b039092168252519081900360200190f35b610276600480360360a08110156101f857600080fd5b6001600160a01b0382358116926020810135151592604082013592606083013516919081019060a081016080820135600160201b81111561023857600080fd5b82018360208201111561024a57600080fd5b803590602001918460018302840111600160201b8311171561026b57600080fd5b509092509050610944565b6040805192835260208301919091528051918290030190f35b6102976114e3565b60408051918252519081900360200190f35b6102b16114eb565b604080516001600160801b039092168252519081900360200190f35b6102d56114fa565b60405180836001600160801b03168152602001826001600160801b031681526020019250505060405180910390f35b6103216004803603602081101561031a57600080fd5b5035611514565b6040805163ffffffff909516855260069390930b60208501526001600160a01b039091168383015215156060830152519081900360800190f35b6101bc6004803603602081101561037157600080fd5b503561ffff16611559565b610384611653565b604080516001600160a01b03909816885260029690960b602088015261ffff9485168787015292841660608701529216608085015260ff90911660a0840152151560c0830152519081900360e00190f35b610276600480360360a08110156103eb57600080fd5b6001600160a01b03823516916020810135600290810b92604083013590910b916001600160801b036060820135169181019060a081016080820135600160201b81111561043757600080fd5b82018360208201111561044957600080fd5b803590602001918460018302840111600160201b8311171561046a57600080fd5b5090925090506116a3565b61029761195f565b6101bc6004803603608081101561049357600080fd5b6001600160a01b038235169160208101359160408201359190810190608081016060820135600160201b8111156104c957600080fd5b8201836020820111156104db57600080fd5b803590602001918460018302840111600160201b831117156104fc57600080fd5b509092509050611965565b6102d5600480360360a081101561051d57600080fd5b506001600160a01b03813516906020810135600290810b91604081013590910b906001600160801b0360608201358116916080013516611dc0565b6105756004803603602081101561056e57600080fd5b5035611fda565b604080516001600160801b0396871681526020810195909552848101939093529084166060840152909216608082015290519081900360a00190f35b610297600480360360208110156105c757600080fd5b503560010b612017565b6102b1612029565b6101bc600480360360408110156105ef57600080fd5b5060ff8135811691602001351661204d565b6102d56004803603606081101561061757600080fd5b506001600160a01b03813516906001600160801b0360208201358116916040013516612231565b6106ac6004803603602081101561065457600080fd5b810190602081018135600160201b81111561066e57600080fd5b82018360208201111561068057600080fd5b803590602001918460208302840111600160201b831117156106a157600080fd5b5090925090506124fe565b604051808060200180602001838103835285818151815260200191508051906020019060200280838360005b838110156106f05781810151838201526020016106d8565b50505050905001838103825284818151815260200191508051906020019060200280838360005b8381101561072f578181015183820152602001610717565b5050505090500194505050505060405180910390f35b6102766004803603606081101561075b57600080fd5b508035600290810b91602081013590910b90604001356001600160801b031661258b565b6107a96004803603604081101561079557600080fd5b508035600290810b9160200135900b612702565b6040805160069490940b84526001600160a01b03909216602084015263ffffffff1682820152519081900360600190f35b6101c66128f1565b6107ea612915565b6040805160029290920b8252519081900360200190f35b6101c6612939565b6101bc6004803603602081101561081f57600080fd5b503561295d565b61082e612962565b6040805162ffffff9092168252519081900360200190f35b610297612986565b61086e6004803603602081101561086457600080fd5b503560020b61298c565b604080516001600160801b039099168952600f9790970b602089015287870195909552606087019390935260069190910b60808601526001600160a01b031660a085015263ffffffff1660c0840152151560e083015251908190036101000190f35b6101bc600480360360208110156108e657600080fd5b50356001600160a01b03166129f6565b6101bc6004803603602081101561090c57600080fd5b5035612b60565b6201000780549091019055565b7f000000000000000000000000000000000000000000000000000000000000000081565b60008061094f612bd1565b85610986576040805162461bcd60e51b8152602060048201526002602482015261415360f01b604482015290519081900360640190fd5b6040805160e0810182526000546001600160a01b0381168252600160a01b8104600290810b810b900b602083015261ffff600160b81b8204811693830193909352600160c81b810483166060830152600160d81b8104909216608082015260ff600160e81b8304811660a0830152600160f01b909204909116151560c08201819052610a3f576040805162461bcd60e51b81526020600482015260036024820152624c4f4b60e81b604482015290519081900360640190fd5b87610a8a5780600001516001600160a01b0316866001600160a01b0316118015610a85575073fffd8963efd1fc6a506488495d951d5263988d266001600160a01b038716105b610abc565b80600001516001600160a01b0316866001600160a01b0316108015610abc57506401000276a36001600160a01b038716115b610af3576040805162461bcd60e51b815260206004820152600360248201526214d41360ea1b604482015290519081900360640190fd5b6000805460ff60f01b191681556040805160c08101909152808a610b225760048460a0015160ff16901c610b35565b60108460a0015160ff1681610b3357fe5b065b60ff1681526004546001600160801b03166020820152604001610b56612c08565b63ffffffff168152602001600060060b815260200160006001600160a01b031681526020016000151581525090506000808913905060006040518060e001604052808b81526020016000815260200185600001516001600160a01b03168152602001856020015160020b81526020018c610bd257600254610bd6565b6001545b815260200160006001600160801b0316815260200184602001516001600160801b031681525090505b805115801590610c255750886001600160a01b031681604001516001600160a01b031614155b15610fef57610c32615503565b60408201516001600160a01b031681526060820151610c75906006907f00000000000000000000000000000000000000000000000000000000000000008f612c10565b15156040830152600290810b810b60208301819052620d89e719910b1215610ca657620d89e7196020820152610cc5565b6020810151620d89e860029190910b1315610cc557620d89e860208201525b610cd28160200151612d52565b6001600160a01b031660608201526040820151610d63908d610d0c578b6001600160a01b031683606001516001600160a01b031611610d26565b8b6001600160a01b031683606001516001600160a01b0316105b610d34578260600151610d36565b8b5b60c085015185517f0000000000000000000000000000000000000000000000000000000000000000613079565b60c085015260a084015260808301526001600160a01b031660408301528215610dc557610d998160c0015182608001510161326b565b825103825260a0810151610dbb90610db09061326b565b602084015190613281565b6020830152610e00565b610dd28160a0015161326b565b825101825260c08101516080820151610dfa91610def910161326b565b60208401519061329d565b60208301525b835160ff1615610e46576000846000015160ff168260c0015181610e2057fe5b60c0840180519290910491829003905260a0840180519091016001600160801b03169052505b60c08201516001600160801b031615610e8557610e798160c00151600160801b8460c001516001600160801b03166132b3565b60808301805190910190525b80606001516001600160a01b031682604001516001600160a01b03161415610fae57806040015115610f85578360a00151610f0f57610eed846040015160008760200151886040015188602001518a606001516008613363909695949392919063ffffffff16565b6001600160a01b03166080860152600690810b900b6060850152600160a08501525b6000610f5b82602001518e610f2657600154610f2c565b84608001515b8f610f3b578560800151610f3f565b6002545b608089015160608a015160408b015160059594939291906134f5565b90508c15610f67576000035b610f758360c00151826135af565b6001600160801b031660c0840152505b8b610f94578060200151610f9d565b60018160200151035b600290810b900b6060830152610fe9565b80600001516001600160a01b031682604001516001600160a01b031614610fe957610fdc8260400151613665565b600290810b900b60608301525b50610bff565b836020015160020b816060015160020b146110bd5760008061103d86604001518660400151886020015188602001518a606001518b608001516008613964909695949392919063ffffffff16565b604085015160608601516000805461ffff60c81b1916600160c81b61ffff958616021761ffff60b81b1916600160b81b95909416949094029290921762ffffff60a01b1916600160a01b62ffffff60029490940b9390931692909202919091176001600160a01b0319166001600160a01b03909116179055506110e29050565b6040810151600080546001600160a01b0319166001600160a01b039092169190911790555b8060c001516001600160801b031683602001516001600160801b0316146111285760c0810151600480546001600160801b0319166001600160801b039092169190911790555b8a1561117857608081015160015560a08101516001600160801b0316156111735760a0810151600380546001600160801b031981166001600160801b03918216909301169190911790555b6111be565b608081015160025560a08101516001600160801b0316156111be5760a0810151600380546001600160801b03808216600160801b92839004821690940116029190911790555b8115158b1515146111d757602081015181518b036111e4565b80600001518a0381602001515b90965094508a1561131d576000851215611226576112267f00000000000000000000000000000000000000000000000000000000000000008d87600003613aea565b6000611230613c38565b9050336001600160a01b031663fa461e3388888c8c6040518563ffffffff1660e01b815260040180858152602001848152602001806020018281038252848482818152602001925080828437600081840152601f19601f82011690508083019250505095505050505050600060405180830381600087803b1580156112b457600080fd5b505af11580156112c8573d6000803e3d6000fd5b505050506112d4613c38565b6112de8289613d71565b1115611317576040805162461bcd60e51b815260206004820152600360248201526249494160e81b604482015290519081900360640190fd5b50611447565b6000861215611354576113547f00000000000000000000000000000000000000000000000000000000000000008d88600003613aea565b600061135e613d81565b9050336001600160a01b031663fa461e3388888c8c6040518563ffffffff1660e01b815260040180858152602001848152602001806020018281038252848482818152602001925080828437600081840152601f19601f82011690508083019250505095505050505050600060405180830381600087803b1580156113e257600080fd5b505af11580156113f6573d6000803e3d6000fd5b50505050611402613d81565b61140c8288613d71565b1115611445576040805162461bcd60e51b815260206004820152600360248201526249494160e81b604482015290519081900360640190fd5b505b60408082015160c083015160608085015184518b8152602081018b90526001600160a01b03948516818701526001600160801b039093169183019190915260020b60808201529151908e169133917fc42079f94a6350d7e6235f29174924f928cc2ac818eb64fed8004e115fbcca679181900360a00190a350506000805460ff60f01b1916600160f01b17905550919890975095505050505050565b620100075481565b6004546001600160801b031681565b6003546001600160801b0380821691600160801b90041682565b60088161ffff811061152557600080fd5b015463ffffffff81169150600160201b810460060b90600160581b81046001600160a01b031690600160f81b900460ff1684565b600054600160f01b900460ff1661159d576040805162461bcd60e51b81526020600482015260036024820152624c4f4b60e81b604482015290519081900360640190fd5b6000805460ff60f01b191690556115b2612bd1565b60008054600160d81b900461ffff16906115ce60088385613e19565b6000805461ffff808416600160d81b810261ffff60d81b199093169290921790925591925083161461163b576040805161ffff80851682528316602082015281517fac49e518f90a358f652e4400164f05a5d8f7e35e7747279bc3a93dbf584e125a929181900390910190a15b50506000805460ff60f01b1916600160f01b17905550565b6000546001600160a01b03811690600160a01b810460020b9061ffff600160b81b8204811691600160c81b8104821691600160d81b8204169060ff600160e81b8204811691600160f01b90041687565b600080548190600160f01b900460ff166116ea576040805162461bcd60e51b81526020600482015260036024820152624c4f4b60e81b604482015290519081900360640190fd5b6000805460ff60f01b191690556001600160801b03851661170a57600080fd5b60008061175860405180608001604052808c6001600160a01b031681526020018b60020b81526020018a60020b815260200161174e8a6001600160801b0316613ebc565b600f0b9052613ecd565b9250925050819350809250600080600086111561177a57611777613c38565b91505b841561178b57611788613d81565b90505b336001600160a01b031663d348799787878b8b6040518563ffffffff1660e01b815260040180858152602001848152602001806020018281038252848482818152602001925080828437600081840152601f19601f82011690508083019250505095505050505050600060405180830381600087803b15801561180d57600080fd5b505af1158015611821573d6000803e3d6000fd5b50505050600086111561187857611836613c38565b6118408388613d71565b1115611878576040805162461bcd60e51b815260206004820152600260248201526104d360f41b604482015290519081900360640190fd5b84156118c857611886613d81565b6118908287613d71565b11156118c8576040805162461bcd60e51b81526020600482015260026024820152614d3160f01b604482015290519081900360640190fd5b8960020b8b60020b8d6001600160a01b03167f7a53080ba414158be7ec69b987b5fb7d07dee101fe85488f0853ae16239d0bde338d8b8b60405180856001600160a01b03168152602001846001600160801b0316815260200183815260200182815260200194505050505060405180910390a450506000805460ff60f01b1916600160f01b17905550919890975095505050505050565b60025481565b600054600160f01b900460ff166119a9576040805162461bcd60e51b81526020600482015260036024820152624c4f4b60e81b604482015290519081900360640190fd5b6000805460ff60f01b191690556119be612bd1565b6004546001600160801b031680611a00576040805162461bcd60e51b81526020600482015260016024820152601360fa1b604482015290519081900360640190fd5b6000611a35867f000000000000000000000000000000000000000000000000000000000000000062ffffff16620f424061410d565b90506000611a6c867f000000000000000000000000000000000000000000000000000000000000000062ffffff16620f424061410d565b90506000611a78613c38565b90506000611a84613d81565b90508815611ab757611ab77f00000000000000000000000000000000000000000000000000000000000000008b8b613aea565b8715611ae857611ae87f00000000000000000000000000000000000000000000000000000000000000008b8a613aea565b336001600160a01b031663e9cbafb085858a8a6040518563ffffffff1660e01b815260040180858152602001848152602001806020018281038252848482818152602001925080828437600081840152601f19601f82011690508083019250505095505050505050600060405180830381600087803b158015611b6a57600080fd5b505af1158015611b7e573d6000803e3d6000fd5b505050506000611b8c613c38565b90506000611b98613d81565b905081611ba58588613d71565b1115611bdd576040805162461bcd60e51b8152602060048201526002602482015261046360f41b604482015290519081900360640190fd5b80611be88487613d71565b1115611c20576040805162461bcd60e51b8152602060048201526002602482015261463160f01b604482015290519081900360640190fd5b8382038382038115611caf5760008054600160e81b9004600f16908115611c53578160ff168481611c4d57fe5b04611c56565b60005b90506001600160801b03811615611c8957600380546001600160801b038082168401166001600160801b03199091161790555b611ca3818503600160801b8d6001600160801b03166132b3565b60018054909101905550505b8015611d3a5760008054600160e81b900460041c600f16908115611cdf578160ff168381611cd957fe5b04611ce2565b60005b90506001600160801b03811615611d1457600380546001600160801b03600160801b8083048216850182160291161790555b611d2e818403600160801b8d6001600160801b03166132b3565b60028054909101905550505b8d6001600160a01b0316336001600160a01b03167fbdbdb71d7860376ba52b25a5028beea23581364a40522f6bcfb86bb1f2dca6338f8f86866040518085815260200184815260200183815260200182815260200194505050505060405180910390a350506000805460ff60f01b1916600160f01b179055505050505050505050505050565b600080548190600160f01b900460ff16611e07576040805162461bcd60e51b81526020600482015260036024820152624c4f4b60e81b604482015290519081900360640190fd5b6000805460ff60f01b19168155611e216007338989614147565b60038101549091506001600160801b0390811690861611611e425784611e51565b60038101546001600160801b03165b60038201549093506001600160801b03600160801b909104811690851611611e795783611e8f565b6003810154600160801b90046001600160801b03165b91506001600160801b03831615611ef4576003810180546001600160801b031981166001600160801b03918216869003821617909155611ef4907f0000000000000000000000000000000000000000000000000000000000000000908a908616613aea565b6001600160801b03821615611f5a576003810180546001600160801b03600160801b808304821686900382160291811691909117909155611f5a907f0000000000000000000000000000000000000000000000000000000000000000908a908516613aea565b604080516001600160a01b038a1681526001600160801b0380861660208301528416818301529051600288810b92908a900b9133917f70935338e69775456a85ddef226c395fb668b63fa0115f5f20610b388e6ca9c0919081900360600190a4506000805460ff60f01b1916600160f01b17905590969095509350505050565b60076020526000908152604090208054600182015460028301546003909301546001600160801b0392831693919281811691600160801b90041685565b60066020526000908152604090205481565b7f000000000000000000000000000000000000000000000000000000000000000081565b600054600160f01b900460ff16612091576040805162461bcd60e51b81526020600482015260036024820152624c4f4b60e81b604482015290519081900360640190fd5b6000805460ff60f01b1916905560408051638da5cb5b60e01b815290516001600160a01b037f00000000000000000000000000000000000000000000000000000000000000001691638da5cb5b916004808301926020929190829003018186803b1580156120fe57600080fd5b505afa158015612112573d6000803e3d6000fd5b505050506040513d602081101561212857600080fd5b50516001600160a01b0316331461213e57600080fd5b60ff82161580612161575060048260ff16101580156121615750600a8260ff1611155b801561218b575060ff8116158061218b575060048160ff161015801561218b5750600a8160ff1611155b61219457600080fd5b60008054610ff0600484901b16840160ff908116600160e81b90810260ff60e81b19841617909355919004167f973d8d92bb299f4af6ce49b52a8adb85ae46b9f214c4c4fc06ac77401237b1336010826040805160ff9390920683168252600f600486901c16602083015286831682820152918516606082015290519081900360800190a150506000805460ff60f01b1916600160f01b17905550565b600080548190600160f01b900460ff16612278576040805162461bcd60e51b81526020600482015260036024820152624c4f4b60e81b604482015290519081900360640190fd5b6000805460ff60f01b1916905560408051638da5cb5b60e01b815290516001600160a01b037f00000000000000000000000000000000000000000000000000000000000000001691638da5cb5b916004808301926020929190829003018186803b1580156122e557600080fd5b505afa1580156122f9573d6000803e3d6000fd5b505050506040513d602081101561230f57600080fd5b50516001600160a01b0316331461232557600080fd5b6003546001600160801b0390811690851611612341578361234e565b6003546001600160801b03165b6003549092506001600160801b03600160801b9091048116908416116123745782612388565b600354600160801b90046001600160801b03165b90506001600160801b03821615612409576003546001600160801b03838116911614156123b757600019909101905b600380546001600160801b031981166001600160801b03918216859003821617909155612409907f00000000000000000000000000000000000000000000000000000000000000009087908516613aea565b6001600160801b0381161561248f576003546001600160801b03828116600160801b90920416141561243a57600019015b600380546001600160801b03600160801b80830482168590038216029181169190911790915561248f907f00000000000000000000000000000000000000000000000000000000000000009087908416613aea565b604080516001600160801b0380851682528316602082015281516001600160a01b0388169233927f596b573906218d3411850b26a6b437d6c4522fdb43d2d2386263f86d50b8b151929081900390910190a36000805460ff60f01b1916600160f01b1790559094909350915050565b606080612509612bd1565b612580612514612c08565b858580806020026020016040519081016040528093929190818152602001838360200280828437600092018290525054600454600896959450600160a01b820460020b935061ffff600160b81b8304811693506001600160801b0390911691600160c81b9004166141ab565b915091509250929050565b600080548190600160f01b900460ff166125d2576040805162461bcd60e51b81526020600482015260036024820152624c4f4b60e81b604482015290519081900360640190fd5b6000805460ff60f01b1916815560408051608081018252338152600288810b602083015287900b918101919091528190819061262b906060810161261e6001600160801b038a16613ebc565b600003600f0b9052613ecd565b925092509250816000039450806000039350600085118061264c5750600084115b1561268b576003830180546001600160801b038082168089018216600160801b93849004831689019092169092029091176001600160801b0319161790555b604080516001600160801b0388168152602081018790528082018690529051600289810b92908b900b9133917f0c396cd989a39f4459b5fa1aed6a9a8dcdbc45908acfd67e028cd568da98982c919081900360600190a450506000805460ff60f01b1916600160f01b179055509094909350915050565b600080600061270f612bd1565b6127198585614305565b600285810b810b60009081526005602052604080822087840b90930b825281206003830154600681900b93600160381b82046001600160a01b0316928492600160d81b810463ffffffff169284929091600160f81b900460ff168061277d57600080fd5b6003820154600681900b9850600160381b81046001600160a01b03169650600160d81b810463ffffffff169450600160f81b900460ff16806127be57600080fd5b50506040805160e0810182526000546001600160a01b0381168252600160a01b8104600290810b810b810b6020840181905261ffff600160b81b8404811695850195909552600160c81b830485166060850152600160d81b8304909416608084015260ff600160e81b8304811660a0850152600160f01b909204909116151560c08301529093508e810b91900b12159050612867575093909403965090039350900390506128ea565b8a60020b816020015160020b12156128db576000612883612c08565b60208301516040840151600454606086015193945060009384936128b9936008938893879392916001600160801b031690613363565b9a9003989098039b5050949096039290920396509091030392506128ea915050565b50949093039650039350900390505b9250925092565b7f000000000000000000000000000000000000000000000000000000000000000081565b7f000000000000000000000000000000000000000000000000000000000000000081565b7f000000000000000000000000000000000000000000000000000000000000000081565b600155565b7f000000000000000000000000000000000000000000000000000000000000000081565b60015481565b60056020526000908152604090208054600182015460028301546003909301546001600160801b03831693600160801b909304600f0b9290600681900b90600160381b81046001600160a01b031690600160d81b810463ffffffff1690600160f81b900460ff1688565b6000546001600160a01b031615612a39576040805162461bcd60e51b8152602060048201526002602482015261414960f01b604482015290519081900360640190fd5b6000612a4482613665565b9050600080612a5c612a54612c08565b6008906143ce565b6040805160e0810182526001600160a01b038816808252600288810b6020808501829052600085870181905261ffff898116606088018190529089166080880181905260a08801839052600160c0909801979097528154600160f01b6001600160a01b0319909116871762ffffff60a01b1916600160a01b62ffffff9787900b97909716969096029590951763ffffffff60b81b1916600160c81b9091021761ffff60d81b1916600160d81b9096029590951761ffff60e81b191692909217909355835191825281019190915281519395509193507f98636036cb66a9c19a37435efc1e90142190214e8abeb821bdba3f2990dd4c9592918290030190a150505050565b600255565b60008082600281900b620d89e71981612b7a57fe5b05029050600083600281900b620d89e881612b9157fe5b0502905060008460020b83830360020b81612ba857fe5b0560010190508062ffffff166001600160801b03801681612bc557fe5b0493505050505b919050565b306001600160a01b037f00000000000000000000000000000000000000000000000000000000000000001614612c0657600080fd5b565b620100075490565b60008060008460020b8660020b81612c2457fe5b05905060008660020b128015612c4b57508460020b8660020b81612c4457fe5b0760020b15155b15612c5557600019015b8315612cca57600080612c678361441a565b600182810b810b600090815260208d9052604090205460ff83169190911b80016000190190811680151597509294509092509085612cac57888360ff16860302612cbf565b88612cb68261442c565b840360ff168603025b965050505050612d48565b600080612cd98360010161441a565b91509150600060018260ff166001901b031990506000818b60008660010b60010b8152602001908152602001600020541690508060001415955085612d2b57888360ff0360ff16866001010102612d41565b8883612d36836144c6565b0360ff168660010101025b9650505050505b5094509492505050565b60008060008360020b12612d69578260020b612d71565b8260020b6000035b9050620d89e8811115612daf576040805162461bcd60e51b81526020600482015260016024820152601560fa1b604482015290519081900360640190fd5b600060018216612dc357600160801b612dd5565b6ffffcb933bd6fad37aa2d162d1a5940015b6001600160881b031690506002821615612dff576ffff97272373d413259a46990580e213a0260801c5b6004821615612e1e576ffff2e50f5f656932ef12357cf3c7fdcc0260801c5b6008821615612e3d576fffe5caca7e10e4e61c3624eaa0941cd00260801c5b6010821615612e5c576fffcb9843d60f6159c9db58835c9266440260801c5b6020821615612e7b576fff973b41fa98c081472e6896dfb254c00260801c5b6040821615612e9a576fff2ea16466c96a3843ec78b326b528610260801c5b6080821615612eb9576ffe5dee046a99a2a811c461f1969c30530260801c5b610100821615612ed9576ffcbe86c7900a88aedcffc83b479aa3a40260801c5b610200821615612ef9576ff987a7253ac413176f2b074cf7815e540260801c5b610400821615612f19576ff3392b0822b70005940c7a398e4b70f30260801c5b610800821615612f39576fe7159475a2c29b7443b29c7fa6e889d90260801c5b611000821615612f59576fd097f3bdfd2022b8845ad8f792aa58250260801c5b612000821615612f79576fa9f746462d870fdf8a65dc1f90e061e50260801c5b614000821615612f99576f70d869a156d2a1b890bb3df62baf32f70260801c5b618000821615612fb9576f31be135f97d08fd981231505542fcfa60260801c5b62010000821615612fda576f09aa508b5b7a84e1c677de54f3e99bc90260801c5b62020000821615612ffa576e5d6af8dedb81196699c329225ee6040260801c5b62040000821615613019576d2216e584f5fa1ea926041bedfe980260801c5b62080000821615613036576b048a170391f7dc42444e8fa20260801c5b60008460020b131561305157806000198161304d57fe5b0490505b600160201b810615613064576001613067565b60005b60ff16602082901c0192505050919050565b60008080806001600160a01b03808916908a1610158187128015906130fe5760006130b28989620f42400362ffffff16620f42406132b3565b9050826130cb576130c68c8c8c60016145b0565b6130d8565b6130d88b8d8c600161462b565b95508581106130e9578a96506130f8565b6130f58c8b83866146d6565b96505b50613148565b81613115576131108b8b8b600061462b565b613122565b6131228a8c8b60006145b0565b935083886000031061313657899550613148565b6131458b8a8a60000385614722565b95505b6001600160a01b038a81169087161482156131ab578080156131675750815b61317d57613178878d8c600161462b565b61317f565b855b955080801561318c575081155b6131a25761319d878d8c60006145b0565b6131a4565b845b94506131f5565b8080156131b55750815b6131cb576131c68c888c60016145b0565b6131cd565b855b95508080156131da575081155b6131f0576131eb8c888c600061462b565b6131f2565b845b94505b8115801561320557508860000385115b15613211578860000394505b81801561323057508a6001600160a01b0316876001600160a01b031614155b1561323f57858903935061325c565b613259868962ffffff168a620f42400362ffffff1661410d565b93505b50505095509550955095915050565b6000600160ff1b821061327d57600080fd5b5090565b8082038281131560008312151461329757600080fd5b92915050565b8181018281121560008312151461329757600080fd5b60008080600019858709868602925082811090839003039050806132e957600084116132de57600080fd5b50829004905061335c565b8084116132f557600080fd5b6000848688096000868103871696879004966002600389028118808a02820302808a02820302808a02820302808a02820302808a02820302808a02909103029181900381900460010186841190950394909402919094039290920491909117919091029150505b9392505050565b60008063ffffffff8716613409576000898661ffff1661ffff811061338457fe5b60408051608081018252919092015463ffffffff808216808452600160201b8304600690810b810b900b6020850152600160581b83046001600160a01b031694840194909452600160f81b90910460ff16151560608301529092508a16146133f5576133f2818a898861476e565b90505b8060200151816040015192509250506134e9565b86880360008061341e8c8c858c8c8c8c614811565b91509150816000015163ffffffff168363ffffffff1614156134505781602001518260400151945094505050506134e9565b805163ffffffff848116911614156134785780602001518160400151945094505050506134e9565b8151815160208085015190840151918390039286039163ffffffff80841692908516910360060b816134a657fe5b05028460200151018263ffffffff168263ffffffff1686604001518660400151036001600160a01b031602816134d857fe5b048560400151019650965050505050505b97509795505050505050565b600295860b860b60009081526020979097526040909620600181018054909503909455938301805490920390915560038201805463ffffffff600160d81b6001600160a01b03600160381b808504821690960316909402600160381b600160d81b031990921691909117600681810b90960390950b66ffffffffffffff1666ffffffffffffff199095169490941782810485169095039093160263ffffffff60d81b1990931692909217905554600160801b9004600f0b90565b60008082600f0b121561361457826001600160801b03168260000384039150816001600160801b03161061360f576040805162461bcd60e51b81526020600482015260026024820152614c5360f01b604482015290519081900360640190fd5b613297565b826001600160801b03168284019150816001600160801b03161015613297576040805162461bcd60e51b81526020600482015260026024820152614c4160f01b604482015290519081900360640190fd5b60006401000276a36001600160a01b038316108015906136a1575073fffd8963efd1fc6a506488495d951d5263988d266001600160a01b038316105b6136d6576040805162461bcd60e51b81526020600482015260016024820152602960f91b604482015290519081900360640190fd5b640100000000600160c01b03602083901b166001600160801b03811160071b81811c67ffffffffffffffff811160061b90811c63ffffffff811160051b90811c61ffff811160041b90811c60ff8111600390811b91821c600f811160021b90811c918211600190811b92831c9790881196179094179092171790911717176080811061376a57607f810383901c9150613774565b80607f0383901b91505b908002607f81811c60ff83811c9190911c800280831c81831c1c800280841c81841c1c800280851c81851c1c800280861c81861c1c800280871c81871c1c800280881c81881c1c800280891c81891c1c8002808a1c818a1c1c8002808b1c818b1c1c8002808c1c818c1c1c8002808d1c818d1c1c8002808e1c9c81901c9c909c1c80029c8d901c9e9d607f198f0160401b60c09190911c6001603f1b161760c19b909b1c6001603e1b169a909a1760c29990991c6001603d1b169890981760c39790971c6001603c1b169690961760c49590951c6001603b1b169490941760c59390931c6001603a1b169290921760c69190911c600160391b161760c79190911c600160381b161760c89190911c6680000000000000161760c99190911c6640000000000000161760ca9190911c6620000000000000161760cb9190911c6610000000000000161760cc9190911c6608000000000000161760cd9190911c66040000000000001617693627a301d71055774c8581026f028f6481ab7f045a5af012a19d003aa9198101608090811d906fdb2df09e81959a81455e260799a0632f8301901d600281810b9083900b1461395557886001600160a01b031661393982612d52565b6001600160a01b0316111561394e5781613950565b805b613957565b815b9998505050505050505050565b6000806000898961ffff1661ffff811061397a57fe5b60408051608081018252919092015463ffffffff808216808452600160201b8304600690810b810b900b6020850152600160581b83046001600160a01b031694840194909452600160f81b90910460ff1615156060830152909250891614156139e957888592509250506134e9565b8461ffff168461ffff16118015613a0a57506001850361ffff168961ffff16145b15613a1757839150613a1b565b8491505b8161ffff168960010161ffff1681613a2f57fe5b069250613a3e8189898961476e565b8a8461ffff1661ffff8110613a4f57fe5b825191018054602084015160408501516060909501511515600160f81b026001600160f81b036001600160a01b03909616600160581b02600160581b600160f81b031960069390930b66ffffffffffffff16600160201b026affffffffffffff000000001963ffffffff90971663ffffffff199095169490941795909516929092171692909217929092161790555097509795505050505050565b604080516001600160a01b038481166024830152604480830185905283518084039091018152606490920183526020820180516001600160e01b031663a9059cbb60e01b1781529251825160009485949389169392918291908083835b60208310613b665780518252601f199092019160209182019101613b47565b6001836020036101000a0380198251168184511680821785525050505050509050019150506000604051808303816000865af19150503d8060008114613bc8576040519150601f19603f3d011682016040523d82523d6000602084013e613bcd565b606091505b5091509150818015613bfb575080511580613bfb5750808060200190516020811015613bf857600080fd5b50515b613c31576040805162461bcd60e51b81526020600482015260026024820152612a2360f11b604482015290519081900360640190fd5b5050505050565b604080513060248083019190915282518083039091018152604490910182526020810180516001600160e01b03166370a0823160e01b17815291518151600093849384936001600160a01b037f00000000000000000000000000000000000000000000000000000000000000001693919290918291908083835b60208310613cd15780518252601f199092019160209182019101613cb2565b6001836020036101000a038019825116818451168082178552505050505050905001915050600060405180830381855afa9150503d8060008114613d31576040519150601f19603f3d011682016040523d82523d6000602084013e613d36565b606091505b5091509150818015613d4a57506020815110155b613d5357600080fd5b808060200190516020811015613d6857600080fd5b50519250505090565b8082018281101561329757600080fd5b604080513060248083019190915282518083039091018152604490910182526020810180516001600160e01b03166370a0823160e01b17815291518151600093849384936001600160a01b037f000000000000000000000000000000000000000000000000000000000000000016939192909182919080838360208310613cd15780518252601f199092019160209182019101613cb2565b6000808361ffff1611613e57576040805162461bcd60e51b81526020600482015260016024820152604960f81b604482015290519081900360640190fd5b8261ffff168261ffff1611613e6d57508161335c565b825b8261ffff168161ffff161015613eb3576001858261ffff1661ffff8110613e9257fe5b01805463ffffffff191663ffffffff92909216919091179055600101613e6f565b50909392505050565b80600f81900b8114612bcc57600080fd5b6000806000613eda612bd1565b613eec84602001518560400151614305565b6040805160e0810182526000546001600160a01b0381168252600160a01b8104600290810b810b900b602080840182905261ffff600160b81b8404811685870152600160c81b84048116606080870191909152600160d81b8504909116608086015260ff600160e81b8504811660a0870152600160f01b909404909316151560c085015288519089015194890151928901519394613f909491939092909190614a0b565b93508460600151600f0b60001461410557846020015160020b816020015160020b1215613fe557613fde613fc78660200151612d52565b613fd48760400151612d52565b8760600151614bc0565b9250614105565b846040015160020b816020015160020b12156140db5760045460408201516001600160801b03909116906140379061401b612c08565b6020850151606086015160808701516008949392918791613964565b6000805461ffff60c81b1916600160c81b61ffff938416021761ffff60b81b1916600160b81b939092169290920217905581516040870151614087919061407d90612d52565b8860600151614bc0565b93506140a56140998760200151612d52565b83516060890151614c04565b92506140b58187606001516135af565b600480546001600160801b0319166001600160801b039290921691909117905550614105565b6141026140eb8660200151612d52565b6140f88760400151612d52565b8760600151614c04565b91505b509193909250565b600061411a8484846132b3565b90506000828061412657fe5b848609111561335c57600019811061413d57600080fd5b6001019392505050565b6040805160609490941b6bffffffffffffffffffffffff1916602080860191909152600293840b60e890811b60348701529290930b90911b60378401528051808403601a018152603a90930181528251928201929092206000908152929052902090565b60608060008361ffff16116141eb576040805162461bcd60e51b81526020600482015260016024820152604960f81b604482015290519081900360640190fd5b865167ffffffffffffffff8111801561420357600080fd5b5060405190808252806020026020018201604052801561422d578160200160208202803683370190505b509150865167ffffffffffffffff8111801561424857600080fd5b50604051908082528060200260200182016040528015614272578160200160208202803683370190505b50905060005b87518110156142f8576142a38a8a8a848151811061429257fe5b60200260200101518a8a8a8a613363565b8483815181106142af57fe5b602002602001018484815181106142c257fe5b60200260200101826001600160a01b03166001600160a01b03168152508260060b60060b81525050508080600101915050614278565b5097509795505050505050565b8060020b8260020b12614345576040805162461bcd60e51b8152602060048201526003602482015262544c5560e81b604482015290519081900360640190fd5b620d89e719600283900b1215614388576040805162461bcd60e51b8152602060048201526003602482015262544c4d60e81b604482015290519081900360640190fd5b620d89e8600282900b13156143ca576040805162461bcd60e51b815260206004820152600360248201526254554d60e81b604482015290519081900360640190fd5b5050565b6040805160808101825263ffffffff9283168082526000602083018190529282019290925260016060909101819052835463ffffffff1916909117909116600160f81b17909155908190565b60020b600881901d9161010090910790565b600080821161443a57600080fd5b600160801b821061444d57608091821c91015b600160401b821061446057604091821c91015b600160201b821061447357602091821c91015b62010000821061448557601091821c91015b610100821061449657600891821c91015b601082106144a657600491821c91015b600482106144b657600291821c91015b60028210612bcc57600101919050565b60008082116144d457600080fd5b5060ff6001600160801b038216156144ef57607f19016144f7565b608082901c91505b67ffffffffffffffff82161561451057603f1901614518565b604082901c91505b63ffffffff82161561452d57601f1901614535565b602082901c91505b61ffff82161561454857600f1901614550565b601082901c91505b60ff821615614562576007190161456a565b600882901c91505b600f82161561457c5760031901614584565b600482901c91505b6003821615614596576001190161459e565b600282901c91505b6001821615612bcc5760001901919050565b6000836001600160a01b0316856001600160a01b031611156145d0579293925b816145fd576145f8836001600160801b03168686036001600160a01b0316600160601b6132b3565b614620565b614620836001600160801b03168686036001600160a01b0316600160601b61410d565b90505b949350505050565b6000836001600160a01b0316856001600160a01b0316111561464b579293925b600160601b600160e01b03606084901b166001600160a01b03868603811690871661467557600080fd5b836146a557866001600160a01b03166146988383896001600160a01b03166132b3565b8161469f57fe5b046146cb565b6146cb6146bc8383896001600160a01b031661410d565b886001600160a01b0316614c33565b979650505050505050565b600080856001600160a01b0316116146ed57600080fd5b6000846001600160801b03161161470357600080fd5b81614715576145f88585856001614c3e565b6146208585856001614d1f565b600080856001600160a01b03161161473957600080fd5b6000846001600160801b03161161474f57600080fd5b81614761576145f88585856000614d1f565b6146208585856000614c3e565b61477661553f565b600085600001518503905060405180608001604052808663ffffffff1681526020018263ffffffff168660020b0288602001510160060b81526020016000856001600160801b0316116147ca5760016147cc565b845b6001600160801b031663ffffffff60801b608085901b16816147ea57fe5b048860400151016001600160a01b0316815260200160011515815250915050949350505050565b61481961553f565b61482161553f565b888561ffff1661ffff811061483257fe5b60408051608081018252919092015463ffffffff8116808352600160201b8204600690810b810b900b6020840152600160581b82046001600160a01b031693830193909352600160f81b900460ff1615156060820152925061489690899089614e02565b156148ce578663ffffffff16826000015163ffffffff1614156148b8576134e9565b816148c58389898861476e565b915091506134e9565b888361ffff168660010161ffff16816148e357fe5b0661ffff1661ffff81106148f357fe5b60408051608081018252929091015463ffffffff81168352600160201b8104600690810b810b900b60208401526001600160a01b03600160581b8204169183019190915260ff600160f81b909104161515606082018190529092506149a857604080516080810182528a5463ffffffff81168252600160201b8104600690810b810b900b6020830152600160581b81046001600160a01b031692820192909252600160f81b90910460ff161515606082015291505b6149b788836000015189614e02565b6149ee576040805162461bcd60e51b815260206004820152600360248201526213d31160ea1b604482015290519081900360640190fd5b6149fb8989898887614ec3565b9150915097509795505050505050565b6000614a1a6007878787614147565b60015460025491925090600080600f87900b15614b60576000614a3b612c08565b6000805460045492935090918291614a859160089186918591600160a01b810460020b9161ffff600160b81b83048116926001600160801b0390921691600160c81b900416613363565b9092509050614abf60058d8b8d8b8b87898b60007f0000000000000000000000000000000000000000000000000000000000000000615061565b9450614af660058c8b8d8b8b87898b60017f0000000000000000000000000000000000000000000000000000000000000000615061565b93508415614b2a57614b2a60068d7f000000000000000000000000000000000000000000000000000000000000000061521a565b8315614b5c57614b5c60068c7f000000000000000000000000000000000000000000000000000000000000000061521a565b5050505b600080614b7260058c8c8b8a8a615280565b9092509050614b83878a848461532c565b600089600f0b1215614bb1578315614ba057614ba060058c6154c1565b8215614bb157614bb160058b6154c1565b50505050505095945050505050565b60008082600f0b12614be657614be1614bdc858585600161462b565b61326b565b614623565b614bf9614bdc858585600003600061462b565b600003949350505050565b60008082600f0b12614c2057614be1614bdc85858560016145b0565b614bf9614bdc85858560000360006145b0565b808204910615150190565b60008115614cb15760006001600160a01b03841115614c7457614c6f84600160601b876001600160801b03166132b3565b614c8c565b6001600160801b038516606085901b81614c8a57fe5b045b9050614ca9614ca46001600160a01b03881683613d71565b6154ed565b915050614623565b60006001600160a01b03841115614cdf57614cda84600160601b876001600160801b031661410d565b614cf6565b614cf6606085901b6001600160801b038716614c33565b905080866001600160a01b031611614d0d57600080fd5b6001600160a01b038616039050614623565b600082614d2d575083614623565b600160601b600160e01b03606085901b168215614dbb576001600160a01b03861684810290858281614d5b57fe5b041415614d8c57818101828110614d8a57614d8083896001600160a01b03168361410d565b9350505050614623565b505b614db282614dad878a6001600160a01b03168681614da657fe5b0490613d71565b614c33565b92505050614623565b6001600160a01b03861684810290858281614dd257fe5b04148015614ddf57508082115b614de857600080fd5b808203614d80614ca4846001600160a01b038b168461410d565b60008363ffffffff168363ffffffff1611158015614e2c57508363ffffffff168263ffffffff1611155b15614e48578163ffffffff168363ffffffff161115905061335c565b60008463ffffffff168463ffffffff1611614e6f578363ffffffff16600160201b01614e77565b8363ffffffff165b64ffffffffff16905060008563ffffffff168463ffffffff1611614ea7578363ffffffff16600160201b01614eaf565b8363ffffffff165b64ffffffffff169091111595945050505050565b614ecb61553f565b614ed361553f565b60008361ffff168560010161ffff1681614ee957fe5b0661ffff169050600060018561ffff16830103905060005b506002818301048961ffff87168281614f1657fe5b0661ffff8110614f2257fe5b60408051608081018252929091015463ffffffff81168352600160201b8104600690810b810b900b60208401526001600160a01b03600160581b8204169183019190915260ff600160f81b90910416151560608201819052909550614f8c57806001019250614f01565b898661ffff168260010181614f9d57fe5b0661ffff8110614fa957fe5b60408051608081018252929091015463ffffffff81168352600160201b8104600690810b810b900b60208401526001600160a01b03600160581b8204169183019190915260ff600160f81b90910416151560608201528551909450600090615013908b908b614e02565b905080801561502c575061502c8a8a8760000151614e02565b156150375750615054565b806150475760018203925061504e565b8160010193505b50614f01565b5050509550959350505050565b60028a810b900b600090815260208c90526040812080546001600160801b03168261508c828d6135af565b9050846001600160801b0316816001600160801b031611156150da576040805162461bcd60e51b81526020600482015260026024820152614c4f60f01b604482015290519081900360640190fd5b6001600160801b03828116159082161581141594501561517f578c60020b8e60020b1361516757600183018b9055600283018a9055600383018054600160381b600160d81b031916600160381b6001600160a01b038c16021766ffffffffffffff191666ffffffffffffff60068b900b161763ffffffff60d81b1916600160d81b63ffffffff8a16021790555b6003830180546001600160f81b0316600160f81b1790555b82546001600160801b0319166001600160801b038216178355856151c85782546151c3906151be90600160801b9004600f90810b810b908f900b61329d565b613ebc565b6151e9565b82546151e9906151be90600160801b9004600f90810b810b908f900b613281565b8354600f9190910b6001600160801b03908116600160801b0291161790925550909c9b505050505050505050505050565b8060020b8260020b8161522957fe5b0760020b1561523757600080fd5b6000806152528360020b8560020b8161524c57fe5b0561441a565b600191820b820b60009081526020979097526040909620805460ff9097169190911b90951890945550505050565b600285810b80820b60009081526020899052604080822088850b850b83529082209193849391929184918291908a900b126152c6575050600182015460028301546152d9565b8360010154880391508360020154870390505b6000808b60020b8b60020b12156152fb5750506001830154600284015461530e565b84600101548a0391508460020154890390505b92909803979097039b96909503949094039850939650505050505050565b6040805160a08101825285546001600160801b0390811682526001870154602083015260028701549282019290925260038601548083166060830152600160801b900490911660808201526000600f85900b6153cb5781516001600160801b03166153c3576040805162461bcd60e51b815260206004820152600260248201526104e560f41b604482015290519081900360640190fd5b5080516153da565b81516153d790866135af565b90505b60006153fe8360200151860384600001516001600160801b0316600160801b6132b3565b905060006154248460400151860385600001516001600160801b0316600160801b6132b3565b905086600f0b60001461544b5787546001600160801b0319166001600160801b0384161788555b60018801869055600288018590556001600160801b03821615158061547957506000816001600160801b0316115b156154b7576003880180546001600160801b031981166001600160801b039182168501821617808216600160801b9182900483168501909216021790555b5050505050505050565b600290810b810b6000908152602092909252604082208281556001810183905590810182905560030155565b806001600160a01b0381168114612bcc57600080fd5b6040805160e081018252600080825260208201819052918101829052606081018290526080810182905260a0810182905260c081019190915290565b6040805160808101825260008082526020820181905291810182905260608101919091529056fea2646970667358221220d5c5b78dfec19dcbd1b44d189764a2b92d3dfa01bc9201e2e59da95e990265be64736f6c63430007060033a264697066735822122068e99e02186d1370b5829843fb0c1e5b2c793496a1c3a58b131efaf2e2b8893564736f6c63430007060033",
  "immutableReferences": {},
  "source": "// SPDX-License-Identifier: UNLICENSED\npragma solidity =0.7.6;\n\nimport '../interfaces/IUniswapV3PoolDeployer.sol';\n\nimport './MockTimeUniswapV3Pool.sol';\n\ncontract MockTimeUniswapV3PoolDeployer is IUniswapV3PoolDeployer {\n    struct Parameters {\n        address factory;\n        address token0;\n        address token1;\n        uint24 fee;\n        int24 tickSpacing;\n    }\n\n    Parameters public override parameters;\n\n    event PoolDeployed(address pool);\n\n    function deploy(\n        address factory,\n        address token0,\n        address token1,\n        uint24 fee,\n        int24 tickSpacing\n    ) external returns (address pool) {\n        parameters = Parameters({factory: factory, token0: token0, token1: token1, fee: fee, tickSpacing: tickSpacing});\n        pool = address(\n            new MockTimeUniswapV3Pool{salt: keccak256(abi.encodePacked(token0, token1, fee, tickSpacing))}()\n        );\n        emit PoolDeployed(pool);\n        delete parameters;\n    }\n}\n",
  "sourcePath": "/Users/zena/ico2.0/ico20-contracts/uniswap-v3-core/contracts/test/MockTimeUniswapV3PoolDeployer.sol",
  "compiler": {
    "name": "solc",
    "version": "0.7.6+commit.7338295f.Emscripten.clang"
  },
  "schemaVersion": "3.3.4",
  "updatedAt": "2021-07-12T13:29:11.502Z",
  "devdoc": {
    "kind": "dev",
    "methods": {},
    "stateVariables": {
      "parameters": {
        "details": "Called by the pool constructor to fetch the parameters of the pool Returns factory The factory address Returns token0 The first token of the pool by address sort order Returns token1 The second token of the pool by address sort order Returns fee The fee collected upon every swap in the pool, denominated in hundredths of a bip Returns tickSpacing The minimum number of ticks between initialized ticks"
      }
    },
    "version": 1
  },
  "userdoc": {
    "kind": "user",
    "methods": {
      "parameters()": {
        "notice": "Get the parameters to be used in constructing the pool, set transiently during pool creation."
      }
    },
    "version": 1
  }
}