{
  "contractName": "NoDelegateCallTest",
  "abi": [
    {
      "inputs": [],
      "name": "canBeDelegateCalled",
      "outputs": [
        {
          "internalType": "uint256",
          "name": "",
          "type": "uint256"
        }
      ],
      "stateMutability": "view",
      "type": "function"
    },
    {
      "inputs": [],
      "name": "cannotBeDelegateCalled",
      "outputs": [
        {
          "internalType": "uint256",
          "name": "",
          "type": "uint256"
        }
      ],
      "stateMutability": "view",
      "type": "function"
    },
    {
      "inputs": [],
      "name": "getGasCostOfCanBeDelegateCalled",
      "outputs": [
        {
          "internalType": "uint256",
          "name": "",
          "type": "uint256"
        }
      ],
      "stateMutability": "view",
      "type": "function"
    },
    {
      "inputs": [],
      "name": "getGasCostOfCannotBeDelegateCalled",
      "outputs": [
        {
          "internalType": "uint256",
          "name": "",
          "type": "uint256"
        }
      ],
      "stateMutability": "view",
      "type": "function"
    },
    {
      "inputs": [],
      "name": "callsIntoNoDelegateCallFunction",
      "outputs": [],
      "stateMutability": "view",
      "type": "function"
    }
  ],
  "bytecode": "0x60a060405234801561001057600080fd5b5030606081901b6080526101546100306000398060ec52506101546000f3fe608060405234801561001057600080fd5b50600436106100575760003560e01c80633045a6e01461005c5780633c7c8dd014610076578063423ecb051461007e5780636427016414610086578063f45f416e14610090575b600080fd5b610064610098565b60408051918252519081900360200190f35b6100646100af565b6100646100b9565b61008e6100cd565b005b6100646100d7565b6000805a90506100a66100d7565b505a9003905090565b6000805a90506100a65b60006100c36100e1565b6005425b04905090565b6100d5610116565b565b60006005426100c7565b306001600160a01b037f000000000000000000000000000000000000000000000000000000000000000016146100d557600080fd5b6100d56100e156fea2646970667358221220e39c2aea0f6bba6eeff1d460f8a9fac97ef56667df064b70f9f6888bb110bcec64736f6c63430007060033",
  "immutableReferences": {
    "5": [
      {
        "length": 32,
        "start": 236
      }
    ]
  },
  "source": "// SPDX-License-Identifier: UNLICENSED\npragma solidity =0.7.6;\n\nimport '../NoDelegateCall.sol';\n\ncontract NoDelegateCallTest is NoDelegateCall {\n    function canBeDelegateCalled() public view returns (uint256) {\n        return block.timestamp / 5;\n    }\n\n    function cannotBeDelegateCalled() public view noDelegateCall returns (uint256) {\n        return block.timestamp / 5;\n    }\n\n    function getGasCostOfCanBeDelegateCalled() external view returns (uint256) {\n        uint256 gasBefore = gasleft();\n        canBeDelegateCalled();\n        return gasBefore - gasleft();\n    }\n\n    function getGasCostOfCannotBeDelegateCalled() external view returns (uint256) {\n        uint256 gasBefore = gasleft();\n        cannotBeDelegateCalled();\n        return gasBefore - gasleft();\n    }\n\n    function callsIntoNoDelegateCallFunction() external view {\n        noDelegateCallPrivate();\n    }\n\n    function noDelegateCallPrivate() private view noDelegateCall {}\n}\n",
  "sourcePath": "/Users/zena/ico2.0/ico20-contracts/uniswap-v3-core/contracts/test/NoDelegateCallTest.sol",
  "compiler": {
    "name": "solc",
    "version": "0.7.6+commit.7338295f.Emscripten.clang"
  },
  "schemaVersion": "3.3.4",
  "updatedAt": "2021-07-12T13:29:11.504Z",
  "devdoc": {
    "kind": "dev",
    "methods": {},
    "version": 1
  },
  "userdoc": {
    "kind": "user",
    "methods": {},
    "version": 1
  }
}