{
  "contractName": "OracleTest",
  "abi": [
    {
      "inputs": [],
      "name": "cardinality",
      "outputs": [
        {
          "internalType": "uint16",
          "name": "",
          "type": "uint16"
        }
      ],
      "stateMutability": "view",
      "type": "function"
    },
    {
      "inputs": [],
      "name": "cardinalityNext",
      "outputs": [
        {
          "internalType": "uint16",
          "name": "",
          "type": "uint16"
        }
      ],
      "stateMutability": "view",
      "type": "function"
    },
    {
      "inputs": [],
      "name": "index",
      "outputs": [
        {
          "internalType": "uint16",
          "name": "",
          "type": "uint16"
        }
      ],
      "stateMutability": "view",
      "type": "function"
    },
    {
      "inputs": [],
      "name": "liquidity",
      "outputs": [
        {
          "internalType": "uint128",
          "name": "",
          "type": "uint128"
        }
      ],
      "stateMutability": "view",
      "type": "function"
    },
    {
      "inputs": [
        {
          "internalType": "uint256",
          "name": "",
          "type": "uint256"
        }
      ],
      "name": "observations",
      "outputs": [
        {
          "internalType": "uint32",
          "name": "blockTimestamp",
          "type": "uint32"
        },
        {
          "internalType": "int56",
          "name": "tickCumulative",
          "type": "int56"
        },
        {
          "internalType": "uint160",
          "name": "secondsPerLiquidityCumulativeX128",
          "type": "uint160"
        },
        {
          "internalType": "bool",
          "name": "initialized",
          "type": "bool"
        }
      ],
      "stateMutability": "view",
      "type": "function"
    },
    {
      "inputs": [],
      "name": "tick",
      "outputs": [
        {
          "internalType": "int24",
          "name": "",
          "type": "int24"
        }
      ],
      "stateMutability": "view",
      "type": "function"
    },
    {
      "inputs": [],
      "name": "time",
      "outputs": [
        {
          "internalType": "uint32",
          "name": "",
          "type": "uint32"
        }
      ],
      "stateMutability": "view",
      "type": "function"
    },
    {
      "inputs": [
        {
          "components": [
            {
              "internalType": "uint32",
              "name": "time",
              "type": "uint32"
            },
            {
              "internalType": "int24",
              "name": "tick",
              "type": "int24"
            },
            {
              "internalType": "uint128",
              "name": "liquidity",
              "type": "uint128"
            }
          ],
          "internalType": "struct OracleTest.InitializeParams",
          "name": "params",
          "type": "tuple"
        }
      ],
      "name": "initialize",
      "outputs": [],
      "stateMutability": "nonpayable",
      "type": "function"
    },
    {
      "inputs": [
        {
          "internalType": "uint32",
          "name": "by",
          "type": "uint32"
        }
      ],
      "name": "advanceTime",
      "outputs": [],
      "stateMutability": "nonpayable",
      "type": "function"
    },
    {
      "inputs": [
        {
          "components": [
            {
              "internalType": "uint32",
              "name": "advanceTimeBy",
              "type": "uint32"
            },
            {
              "internalType": "int24",
              "name": "tick",
              "type": "int24"
            },
            {
              "internalType": "uint128",
              "name": "liquidity",
              "type": "uint128"
            }
          ],
          "internalType": "struct OracleTest.UpdateParams",
          "name": "params",
          "type": "tuple"
        }
      ],
      "name": "update",
      "outputs": [],
      "stateMutability": "nonpayable",
      "type": "function"
    },
    {
      "inputs": [
        {
          "components": [
            {
              "internalType": "uint32",
              "name": "advanceTimeBy",
              "type": "uint32"
            },
            {
              "internalType": "int24",
              "name": "tick",
              "type": "int24"
            },
            {
              "internalType": "uint128",
              "name": "liquidity",
              "type": "uint128"
            }
          ],
          "internalType": "struct OracleTest.UpdateParams[]",
          "name": "params",
          "type": "tuple[]"
        }
      ],
      "name": "batchUpdate",
      "outputs": [],
      "stateMutability": "nonpayable",
      "type": "function"
    },
    {
      "inputs": [
        {
          "internalType": "uint16",
          "name": "_cardinalityNext",
          "type": "uint16"
        }
      ],
      "name": "grow",
      "outputs": [],
      "stateMutability": "nonpayable",
      "type": "function"
    },
    {
      "inputs": [
        {
          "internalType": "uint32[]",
          "name": "secondsAgos",
          "type": "uint32[]"
        }
      ],
      "name": "observe",
      "outputs": [
        {
          "internalType": "int56[]",
          "name": "tickCumulatives",
          "type": "int56[]"
        },
        {
          "internalType": "uint160[]",
          "name": "secondsPerLiquidityCumulativeX128s",
          "type": "uint160[]"
        }
      ],
      "stateMutability": "view",
      "type": "function"
    },
    {
      "inputs": [
        {
          "internalType": "uint32[]",
          "name": "secondsAgos",
          "type": "uint32[]"
        }
      ],
      "name": "getGasCostOfObserve",
      "outputs": [
        {
          "internalType": "uint256",
          "name": "",
          "type": "uint256"
        }
      ],
      "stateMutability": "view",
      "type": "function"
    }
  ],
  "bytecode": "0x608060405234801561001057600080fd5b50611564806100206000396000f3fe608060405234801561001057600080fd5b50600436106100ca5760003560e01c8063761eb23e1161007c578063761eb23e14610184578063883bdbfd14610197578063d81740db146101b8578063daf50f6b146101cb578063dbffe9ad146101de578063dd158c18146101e6578063f7fd2cfa146101ee576100ca565b806316ada547146100cf5780631a686502146100ed578063252c09d7146101025780632986c0e5146101255780633eaf5d9f1461013a57806365829dc51461014f57806374e69cef14610164575b600080fd5b6100d7610201565b6040516100e491906114ec565b60405180910390f35b6100f561020e565b6040516100e491906114c0565b6101156101103660046113c3565b610225565b6040516100e494939291906114fd565b61012d61026a565b6040516100e491906114d4565b61014261027a565b6040516100e49190611485565b61016261015d36600461135f565b61028b565b005b6101776101723660046112e1565b610399565b6040516100e491906114e3565b6101626101923660046113a1565b610433565b6101aa6101a53660046112e1565b61046e565b6040516100e49291906113ff565b6101626101c6366004611271565b610501565b6101626101d936600461135f565b610678565b61012d610798565b61012d6107a8565b6101626101fc3660046113db565b6107b8565b61ffff5463ffffffff1681565b61ffff54600160381b90046001600160801b031681565b60008161ffff811061023657600080fd5b015463ffffffff81169150600160201b810460060b90600160581b81046001600160a01b031690600160f81b900460ff1684565b61ffff8054600160b81b90041681565b61ffff54600160201b900460020b81565b61029b6101fc60208301836113db565b61ffff80546102f191600091600160b81b810482169163ffffffff80831692600160201b810460020b926001600160801b03600160381b83041692600160c81b8304821692600160d81b9004909116906107da16565b61ffff8054928116600160b81b0261ffff60b81b19928216600160c81b0261ffff60c81b199094169390931791909116919091179055610337604082016020830161133e565b61ffff805460029290920b62ffffff16600160201b0266ffffff000000001990921691909117905561036f606082016040830161137a565b61ffff60076101000a8154816001600160801b0302191690836001600160801b0316021790555050565b61ffff805460009163ffffffff821691600160201b810460020b916001600160801b03600160381b83041691600160b81b900416845a905061042385898980806020026020016040519081016040528093929190818152602001838360200280828437600092018290525061ffff805491969594508b93508992508a91600160c81b900416610961565b50505a9003979650505050505050565b61ffff805461044d91600091600160d81b90041683610abb565b61ffff8054918116600160d81b0261ffff60d81b1990921691909117905550565b6060806104f661ffff60009054906101000a900463ffffffff16858580806020026020016040519081016040528093929190818152602001838360200280828437600092018290525061ffff80549196959450600160201b820460020b9350600160b81b8204811692506001600160801b03600160381b83041691600160c81b900416610961565b915091509250929050565b61ffff8054600160201b810460020b916001600160801b03600160381b83041691600160b81b8104821691600160c81b8204811691600160d81b81049091169063ffffffff1660005b878110156105e15788888281811061055e57fe5b61057492602060609092020190810191506113db565b90910190610588600086848a8a89896107da565b909550935088888281811061059957fe5b90506060020160200160208101906105b1919061133e565b96508888828181106105bf57fe5b90506060020160400160208101906105d7919061137a565b955060010161054a565b5061ffff805463ffffffff90921663ffffffff19948216600160c81b0261ffff60c81b19968316600160b81b0261ffff60b81b196001600160801b03909916600160381b02600160381b600160b81b031960029b909b0b62ffffff16600160201b0266ffffff0000000019909616959095179990991693909317969096169690961793909316929092171691909117909155505050565b61ffff8054600160c81b900416156106ab5760405162461bcd60e51b81526004016106a290611493565b60405180910390fd5b6106b860208201826113db565b61ffff805463ffffffff191663ffffffff929092169190911790556106e3604082016020830161133e565b61ffff805460029290920b62ffffff16600160201b0266ffffff000000001990921691909117905561071b606082016040830161137a565b61ffff80546001600160801b0392909216600160381b02600160381b600160b81b031990921691909117905561075f61075760208301836113db565b600090610b61565b61ffff8054928116600160c81b0261ffff60c81b19928216600160d81b0261ffff60d81b19909416939093179190911691909117905550565b61ffff8054600160c81b90041681565b61ffff8054600160d81b90041681565b61ffff805463ffffffff19811663ffffffff9182169390930116919091179055565b6000806000898961ffff1661ffff81106107f057fe5b60408051608081018252919092015463ffffffff808216808452600160201b8304600690810b810b900b6020850152600160581b83046001600160a01b031694840194909452600160f81b90910460ff16151560608301529092508916141561085f5788859250925050610955565b8461ffff168461ffff1611801561088057506001850361ffff168961ffff16145b1561088d57839150610891565b8491505b8161ffff168960010161ffff16816108a557fe5b0692506108b481898989610bad565b8a8461ffff1661ffff81106108c557fe5b825191018054602084015160408501516060909501511515600160f81b026001600160f81b036001600160a01b03909616600160581b02600160581b600160f81b031960069390930b66ffffffffffffff16600160201b026affffffffffffff000000001963ffffffff90971663ffffffff19909516949094179590951692909217169290921792909216179055505b97509795505050505050565b60608060008361ffff16116109a1576040805162461bcd60e51b81526020600482015260016024820152604960f81b604482015290519081900360640190fd5b865167ffffffffffffffff811180156109b957600080fd5b506040519080825280602002602001820160405280156109e3578160200160208202803683370190505b509150865167ffffffffffffffff811180156109fe57600080fd5b50604051908082528060200260200182016040528015610a28578160200160208202803683370190505b50905060005b8751811015610aae57610a598a8a8a8481518110610a4857fe5b60200260200101518a8a8a8a610c50565b848381518110610a6557fe5b60200260200101848481518110610a7857fe5b60200260200101826001600160a01b03166001600160a01b03168152508260060b60060b81525050508080600101915050610a2e565b5097509795505050505050565b6000808361ffff1611610af9576040805162461bcd60e51b81526020600482015260016024820152604960f81b604482015290519081900360640190fd5b8261ffff168261ffff1611610b0f575081610b5a565b825b8261ffff168161ffff161015610b55576001858261ffff1661ffff8110610b3457fe5b01805463ffffffff191663ffffffff92909216919091179055600101610b11565b508190505b9392505050565b6040805160808101825263ffffffff9283168082526000602083018190529282019290925260016060909101819052835463ffffffff1916909117909116600160f81b17909155908190565b610bb5611233565b600085600001518503905060405180608001604052808663ffffffff1681526020018263ffffffff168660020b0288602001510160060b81526020016000856001600160801b031611610c09576001610c0b565b845b6001600160801b031663ffffffff60801b608085901b1681610c2957fe5b048860400151016001600160a01b0316815260200160011515815250915050949350505050565b60008063ffffffff8716610cf6576000898661ffff1661ffff8110610c7157fe5b60408051608081018252919092015463ffffffff808216808452600160201b8304600690810b810b900b6020850152600160581b83046001600160a01b031694840194909452600160f81b90910460ff16151560608301529092508a1614610ce257610cdf818a8988610bad565b90505b806020015181604001519250925050610955565b868803600080610d0b8c8c858c8c8c8c610dda565b91509150816000015163ffffffff168363ffffffff161415610d3d578160200151826040015194509450505050610955565b805163ffffffff84811691161415610d65578060200151816040015194509450505050610955565b8151815160208085015190840151918390039286039163ffffffff80841692908516910360060b81610d9357fe5b05028460200151018263ffffffff168263ffffffff1686604001518660400151036001600160a01b03160281610dc557fe5b04856040015101965096505050505050610955565b610de2611233565b610dea611233565b888561ffff1661ffff8110610dfb57fe5b60408051608081018252919092015463ffffffff8116808352600160201b8204600690810b810b900b6020840152600160581b82046001600160a01b031693830193909352600160f81b900460ff16151560608201529250610e5f90899089610fd4565b15610e97578663ffffffff16826000015163ffffffff161415610e8157610955565b81610e8e83898988610bad565b91509150610955565b888361ffff168660010161ffff1681610eac57fe5b0661ffff1661ffff8110610ebc57fe5b60408051608081018252929091015463ffffffff81168352600160201b8104600690810b810b900b60208401526001600160a01b03600160581b8204169183019190915260ff600160f81b90910416151560608201819052909250610f7157604080516080810182528a5463ffffffff81168252600160201b8104600690810b810b900b6020830152600160581b81046001600160a01b031692820192909252600160f81b90910460ff161515606082015291505b610f8088836000015189610fd4565b610fb7576040805162461bcd60e51b815260206004820152600360248201526213d31160ea1b604482015290519081900360640190fd5b610fc48989898887611095565b9150915097509795505050505050565b60008363ffffffff168363ffffffff1611158015610ffe57508363ffffffff168263ffffffff1611155b1561101a578163ffffffff168363ffffffff1611159050610b5a565b60008463ffffffff168463ffffffff1611611041578363ffffffff16600160201b01611049565b8363ffffffff165b64ffffffffff16905060008563ffffffff168463ffffffff1611611079578363ffffffff16600160201b01611081565b8363ffffffff165b64ffffffffff169091111595945050505050565b61109d611233565b6110a5611233565b60008361ffff168560010161ffff16816110bb57fe5b0661ffff169050600060018561ffff16830103905060005b506002818301048961ffff871682816110e857fe5b0661ffff81106110f457fe5b60408051608081018252929091015463ffffffff81168352600160201b8104600690810b810b900b60208401526001600160a01b03600160581b8204169183019190915260ff600160f81b9091041615156060820181905290955061115e578060010192506110d3565b898661ffff16826001018161116f57fe5b0661ffff811061117b57fe5b60408051608081018252929091015463ffffffff81168352600160201b8104600690810b810b900b60208401526001600160a01b03600160581b8204169183019190915260ff600160f81b909104161515606082015285519094506000906111e5908b908b610fd4565b90508080156111fe57506111fe8a8a8760000151610fd4565b156112095750611226565b8061121957600182039250611220565b8160010193505b506110d3565b5050509550959350505050565b60408051608081018252600080825260208201819052918101829052606081019190915290565b60006060828403121561126b578081fd5b50919050565b60008060208385031215611283578182fd5b823567ffffffffffffffff8082111561129a578384fd5b818501915085601f8301126112ad578384fd5b8135818111156112bb578485fd5b8660206060830285010111156112cf578485fd5b60209290920196919550909350505050565b600080602083850312156112f3578182fd5b823567ffffffffffffffff8082111561130a578384fd5b818501915085601f83011261131d578384fd5b81358181111561132b578485fd5b86602080830285010111156112cf578485fd5b60006020828403121561134f578081fd5b81358060020b8114610b5a578182fd5b600060608284031215611370578081fd5b610b5a838361125a565b60006020828403121561138b578081fd5b81356001600160801b0381168114610b5a578182fd5b6000602082840312156113b2578081fd5b813561ffff81168114610b5a578182fd5b6000602082840312156113d4578081fd5b5035919050565b6000602082840312156113ec578081fd5b813563ffffffff81168114610b5a578182fd5b604080825283519082018190526000906020906060840190828701845b8281101561143b57815160060b8452928401929084019060010161141c565b50505083810382850152845180825285830191830190845b818110156114785783516001600160a01b031683529284019291840191600101611453565b5090979650505050505050565b60029190910b815260200190565b602080825260139082015272185b1c9958591e481a5b9a5d1a585b1a5e9959606a1b604082015260600190565b6001600160801b0391909116815260200190565b61ffff91909116815260200190565b90815260200190565b63ffffffff91909116815260200190565b63ffffffff94909416845260069290920b60208401526001600160a01b03166040830152151560608201526080019056fea2646970667358221220fd641bd8943209f7d1b56abfa0bbf25bf2e7783f3696288356d710786434b70364736f6c63430007060033",
  "immutableReferences": {},
  "source": "// SPDX-License-Identifier: UNLICENSED\npragma solidity =0.7.6;\npragma abicoder v2;\n\nimport '../libraries/Oracle.sol';\n\ncontract OracleTest {\n    using Oracle for Oracle.Observation[65535];\n\n    Oracle.Observation[65535] public observations;\n\n    uint32 public time;\n    int24 public tick;\n    uint128 public liquidity;\n    uint16 public index;\n    uint16 public cardinality;\n    uint16 public cardinalityNext;\n\n    struct InitializeParams {\n        uint32 time;\n        int24 tick;\n        uint128 liquidity;\n    }\n\n    function initialize(InitializeParams calldata params) external {\n        require(cardinality == 0, 'already initialized');\n        time = params.time;\n        tick = params.tick;\n        liquidity = params.liquidity;\n        (cardinality, cardinalityNext) = observations.initialize(params.time);\n    }\n\n    function advanceTime(uint32 by) public {\n        time += by;\n    }\n\n    struct UpdateParams {\n        uint32 advanceTimeBy;\n        int24 tick;\n        uint128 liquidity;\n    }\n\n    // write an observation, then change tick and liquidity\n    function update(UpdateParams calldata params) external {\n        advanceTime(params.advanceTimeBy);\n        (index, cardinality) = observations.write(index, time, tick, liquidity, cardinality, cardinalityNext);\n        tick = params.tick;\n        liquidity = params.liquidity;\n    }\n\n    function batchUpdate(UpdateParams[] calldata params) external {\n        // sload everything\n        int24 _tick = tick;\n        uint128 _liquidity = liquidity;\n        uint16 _index = index;\n        uint16 _cardinality = cardinality;\n        uint16 _cardinalityNext = cardinalityNext;\n        uint32 _time = time;\n\n        for (uint256 i = 0; i < params.length; i++) {\n            _time += params[i].advanceTimeBy;\n            (_index, _cardinality) = observations.write(\n                _index,\n                _time,\n                _tick,\n                _liquidity,\n                _cardinality,\n                _cardinalityNext\n            );\n            _tick = params[i].tick;\n            _liquidity = params[i].liquidity;\n        }\n\n        // sstore everything\n        tick = _tick;\n        liquidity = _liquidity;\n        index = _index;\n        cardinality = _cardinality;\n        time = _time;\n    }\n\n    function grow(uint16 _cardinalityNext) external {\n        cardinalityNext = observations.grow(cardinalityNext, _cardinalityNext);\n    }\n\n    function observe(uint32[] calldata secondsAgos)\n        external\n        view\n        returns (int56[] memory tickCumulatives, uint160[] memory secondsPerLiquidityCumulativeX128s)\n    {\n        return observations.observe(time, secondsAgos, tick, index, liquidity, cardinality);\n    }\n\n    function getGasCostOfObserve(uint32[] calldata secondsAgos) external view returns (uint256) {\n        (uint32 _time, int24 _tick, uint128 _liquidity, uint16 _index) = (time, tick, liquidity, index);\n        uint256 gasBefore = gasleft();\n        observations.observe(_time, secondsAgos, _tick, _index, _liquidity, cardinality);\n        return gasBefore - gasleft();\n    }\n}\n",
  "sourcePath": "/Users/zena/ico2.0/ico20-contracts/uniswap-v3-core/contracts/test/OracleTest.sol",
  "compiler": {
    "name": "solc",
    "version": "0.7.6+commit.7338295f.Emscripten.clang"
  },
  "schemaVersion": "3.3.4",
  "updatedAt": "2021-07-12T13:29:11.512Z",
  "devdoc": {
    "kind": "dev",
    "methods": {},
    "version": 1
  },
  "userdoc": {
    "kind": "user",
    "methods": {},
    "version": 1
  }
}