{
  "contractName": "TestUniswapV3Callee",
  "abi": [
    {
      "anonymous": false,
      "inputs": [
        {
          "indexed": false,
          "internalType": "uint256",
          "name": "fee0",
          "type": "uint256"
        },
        {
          "indexed": false,
          "internalType": "uint256",
          "name": "fee1",
          "type": "uint256"
        }
      ],
      "name": "FlashCallback",
      "type": "event"
    },
    {
      "anonymous": false,
      "inputs": [
        {
          "indexed": false,
          "internalType": "uint256",
          "name": "amount0Owed",
          "type": "uint256"
        },
        {
          "indexed": false,
          "internalType": "uint256",
          "name": "amount1Owed",
          "type": "uint256"
        }
      ],
      "name": "MintCallback",
      "type": "event"
    },
    {
      "anonymous": false,
      "inputs": [
        {
          "indexed": false,
          "internalType": "int256",
          "name": "amount0Delta",
          "type": "int256"
        },
        {
          "indexed": false,
          "internalType": "int256",
          "name": "amount1Delta",
          "type": "int256"
        }
      ],
      "name": "SwapCallback",
      "type": "event"
    },
    {
      "inputs": [
        {
          "internalType": "address",
          "name": "pool",
          "type": "address"
        },
        {
          "internalType": "uint256",
          "name": "amount0In",
          "type": "uint256"
        },
        {
          "internalType": "address",
          "name": "recipient",
          "type": "address"
        },
        {
          "internalType": "uint160",
          "name": "sqrtPriceLimitX96",
          "type": "uint160"
        }
      ],
      "name": "swapExact0For1",
      "outputs": [],
      "stateMutability": "nonpayable",
      "type": "function"
    },
    {
      "inputs": [
        {
          "internalType": "address",
          "name": "pool",
          "type": "address"
        },
        {
          "internalType": "uint256",
          "name": "amount1Out",
          "type": "uint256"
        },
        {
          "internalType": "address",
          "name": "recipient",
          "type": "address"
        },
        {
          "internalType": "uint160",
          "name": "sqrtPriceLimitX96",
          "type": "uint160"
        }
      ],
      "name": "swap0ForExact1",
      "outputs": [],
      "stateMutability": "nonpayable",
      "type": "function"
    },
    {
      "inputs": [
        {
          "internalType": "address",
          "name": "pool",
          "type": "address"
        },
        {
          "internalType": "uint256",
          "name": "amount1In",
          "type": "uint256"
        },
        {
          "internalType": "address",
          "name": "recipient",
          "type": "address"
        },
        {
          "internalType": "uint160",
          "name": "sqrtPriceLimitX96",
          "type": "uint160"
        }
      ],
      "name": "swapExact1For0",
      "outputs": [],
      "stateMutability": "nonpayable",
      "type": "function"
    },
    {
      "inputs": [
        {
          "internalType": "address",
          "name": "pool",
          "type": "address"
        },
        {
          "internalType": "uint256",
          "name": "amount0Out",
          "type": "uint256"
        },
        {
          "internalType": "address",
          "name": "recipient",
          "type": "address"
        },
        {
          "internalType": "uint160",
          "name": "sqrtPriceLimitX96",
          "type": "uint160"
        }
      ],
      "name": "swap1ForExact0",
      "outputs": [],
      "stateMutability": "nonpayable",
      "type": "function"
    },
    {
      "inputs": [
        {
          "internalType": "address",
          "name": "pool",
          "type": "address"
        },
        {
          "internalType": "uint160",
          "name": "sqrtPriceX96",
          "type": "uint160"
        },
        {
          "internalType": "address",
          "name": "recipient",
          "type": "address"
        }
      ],
      "name": "swapToLowerSqrtPrice",
      "outputs": [],
      "stateMutability": "nonpayable",
      "type": "function"
    },
    {
      "inputs": [
        {
          "internalType": "address",
          "name": "pool",
          "type": "address"
        },
        {
          "internalType": "uint160",
          "name": "sqrtPriceX96",
          "type": "uint160"
        },
        {
          "internalType": "address",
          "name": "recipient",
          "type": "address"
        }
      ],
      "name": "swapToHigherSqrtPrice",
      "outputs": [],
      "stateMutability": "nonpayable",
      "type": "function"
    },
    {
      "inputs": [
        {
          "internalType": "int256",
          "name": "amount0Delta",
          "type": "int256"
        },
        {
          "internalType": "int256",
          "name": "amount1Delta",
          "type": "int256"
        },
        {
          "internalType": "bytes",
          "name": "data",
          "type": "bytes"
        }
      ],
      "name": "uniswapV3SwapCallback",
      "outputs": [],
      "stateMutability": "nonpayable",
      "type": "function"
    },
    {
      "inputs": [
        {
          "internalType": "address",
          "name": "pool",
          "type": "address"
        },
        {
          "internalType": "address",
          "name": "recipient",
          "type": "address"
        },
        {
          "internalType": "int24",
          "name": "tickLower",
          "type": "int24"
        },
        {
          "internalType": "int24",
          "name": "tickUpper",
          "type": "int24"
        },
        {
          "internalType": "uint128",
          "name": "amount",
          "type": "uint128"
        }
      ],
      "name": "mint",
      "outputs": [],
      "stateMutability": "nonpayable",
      "type": "function"
    },
    {
      "inputs": [
        {
          "internalType": "uint256",
          "name": "amount0Owed",
          "type": "uint256"
        },
        {
          "internalType": "uint256",
          "name": "amount1Owed",
          "type": "uint256"
        },
        {
          "internalType": "bytes",
          "name": "data",
          "type": "bytes"
        }
      ],
      "name": "uniswapV3MintCallback",
      "outputs": [],
      "stateMutability": "nonpayable",
      "type": "function"
    },
    {
      "inputs": [
        {
          "internalType": "address",
          "name": "pool",
          "type": "address"
        },
        {
          "internalType": "address",
          "name": "recipient",
          "type": "address"
        },
        {
          "internalType": "uint256",
          "name": "amount0",
          "type": "uint256"
        },
        {
          "internalType": "uint256",
          "name": "amount1",
          "type": "uint256"
        },
        {
          "internalType": "uint256",
          "name": "pay0",
          "type": "uint256"
        },
        {
          "internalType": "uint256",
          "name": "pay1",
          "type": "uint256"
        }
      ],
      "name": "flash",
      "outputs": [],
      "stateMutability": "nonpayable",
      "type": "function"
    },
    {
      "inputs": [
        {
          "internalType": "uint256",
          "name": "fee0",
          "type": "uint256"
        },
        {
          "internalType": "uint256",
          "name": "fee1",
          "type": "uint256"
        },
        {
          "internalType": "bytes",
          "name": "data",
          "type": "bytes"
        }
      ],
      "name": "uniswapV3FlashCallback",
      "outputs": [],
      "stateMutability": "nonpayable",
      "type": "function"
    }
  ],
  "bytecode": "0x608060405234801561001057600080fd5b506111a7806100206000396000f3fe608060405234801561001057600080fd5b50600436106100a95760003560e01c8063bac7bf7811610071578063bac7bf78146101f8578063d348799714610234578063e2be9109146102ae578063e9cbafb0146102ea578063f603482c14610364578063fa461e33146103a0576100a9565b8063034b0f8f146100ae5780632ec20bf9146100f85780636dfc0ddb146101305780637b4f53271461016c5780639e77b805146101c0575b600080fd5b6100f6600480360360c08110156100c457600080fd5b506001600160a01b03813581169160208101359091169060408101359060608101359060808101359060a0013561041a565b005b6100f66004803603606081101561010e57600080fd5b506001600160a01b03813581169160208101358216916040909101351661053b565b6100f66004803603608081101561014657600080fd5b506001600160a01b03813581169160208101359160408201358116916060013516610677565b6100f6600480360360a081101561018257600080fd5b5080356001600160a01b03908116916020810135909116906040810135600290810b91606081013590910b90608001356001600160801b03166107b5565b6100f6600480360360608110156101d657600080fd5b506001600160a01b0381358116916020810135821691604090910135166108ef565b6100f66004803603608081101561020e57600080fd5b506001600160a01b038135811691602081013591604082013581169160600135166109aa565b6100f66004803603606081101561024a57600080fd5b813591602081013591810190606081016040820135600160201b81111561027057600080fd5b82018360208201111561028257600080fd5b803590602001918460018302840111600160201b831117156102a357600080fd5b509092509050610a69565b6100f6600480360360808110156102c457600080fd5b506001600160a01b03813581169160208101359160408201358116916060013516610ca3565b6100f66004803603606081101561030057600080fd5b813591602081013591810190606081016040820135600160201b81111561032657600080fd5b82018360208201111561033857600080fd5b803590602001918460018302840111600160201b8311171561035957600080fd5b509092509050610cbe565b6100f66004803603608081101561037a57600080fd5b506001600160a01b03813581169160208101359160408201358116916060013516610f13565b6100f6600480360360608110156103b657600080fd5b813591602081013591810190606081016040820135600160201b8111156103dc57600080fd5b8201836020820111156103ee57600080fd5b803590602001918460018302840111600160201b8311171561040f57600080fd5b509092509050610f2e565b856001600160a01b031663490e6cbc86868633878760405160200180846001600160a01b0316815260200183815260200182815260200193505050506040516020818303038152906040526040518563ffffffff1660e01b815260040180856001600160a01b0316815260200184815260200183815260200180602001828103825283818151815260200191508051906020019080838360005b838110156104cc5781810151838201526020016104b4565b50505050905090810190601f1680156104f95780820380516001836020036101000a031916815260200191505b5095505050505050600060405180830381600087803b15801561051b57600080fd5b505af115801561052f573d6000803e3d6000fd5b50505050505050505050565b826001600160a01b031663128acb088260016001600160ff1b03863360405160200180826001600160a01b031681526020019150506040516020818303038152906040526040518663ffffffff1660e01b815260040180866001600160a01b031681526020018515158152602001848152602001836001600160a01b0316815260200180602001828103825283818151815260200191508051906020019080838360005b838110156105f75781810151838201526020016105df565b50505050905090810190601f1680156106245780820380516001836020036101000a031916815260200191505b5096505050505050506040805180830381600087803b15801561064657600080fd5b505af115801561065a573d6000803e3d6000fd5b505050506040513d604081101561067057600080fd5b5050505050565b836001600160a01b031663128acb088360016106928761115b565b853360405160200180826001600160a01b031681526020019150506040516020818303038152906040526040518663ffffffff1660e01b815260040180866001600160a01b031681526020018515158152602001848152602001836001600160a01b0316815260200180602001828103825283818151815260200191508051906020019080838360005b8381101561073457818101518382015260200161071c565b50505050905090810190601f1680156107615780820380516001836020036101000a031916815260200191505b5096505050505050506040805180830381600087803b15801561078357600080fd5b505af1158015610797573d6000803e3d6000fd5b505050506040513d60408110156107ad57600080fd5b505050505050565b846001600160a01b0316633c8a7d8d858585853360405160200180826001600160a01b031681526020019150506040516020818303038152906040526040518663ffffffff1660e01b815260040180866001600160a01b031681526020018560020b81526020018460020b8152602001836001600160801b0316815260200180602001828103825283818151815260200191508051906020019080838360005b8381101561086d578181015183820152602001610855565b50505050905090810190601f16801561089a5780820380516001836020036101000a031916815260200191505b5096505050505050506040805180830381600087803b1580156108bc57600080fd5b505af11580156108d0573d6000803e3d6000fd5b505050506040513d60408110156108e657600080fd5b50505050505050565b826001600160a01b031663128acb088260006001600160ff1b03863360405160200180826001600160a01b031681526020019150506040516020818303038152906040526040518663ffffffff1660e01b815260040180866001600160a01b031681526020018515158152602001848152602001836001600160a01b031681526020018060200182810382528381815181526020019150805190602001908083836000838110156105f75781810151838201526020016105df565b836001600160a01b031663128acb088360016109c58761115b565b600003853360405160200180826001600160a01b031681526020019150506040516020818303038152906040526040518663ffffffff1660e01b815260040180866001600160a01b031681526020018515158152602001848152602001836001600160a01b0316815260200180602001828103825283818151815260200191508051906020019080838360008381101561073457818101518382015260200161071c565b600082826020811015610a7b57600080fd5b506040805187815260208101879052815192356001600160a01b031693507fa0968be00566083701c9ef671c169d7fb05ac8907de4ca17185de74ccbb694d4929081900390910190a18415610bb557336001600160a01b0316630dfe16816040518163ffffffff1660e01b815260040160206040518083038186803b158015610b0357600080fd5b505afa158015610b17573d6000803e3d6000fd5b505050506040513d6020811015610b2d57600080fd5b5051604080516323b872dd60e01b81526001600160a01b03848116600483015233602483015260448201899052915191909216916323b872dd9160648083019260209291908290030181600087803b158015610b8857600080fd5b505af1158015610b9c573d6000803e3d6000fd5b505050506040513d6020811015610bb257600080fd5b50505b831561067057336001600160a01b031663d21220a76040518163ffffffff1660e01b815260040160206040518083038186803b158015610bf457600080fd5b505afa158015610c08573d6000803e3d6000fd5b505050506040513d6020811015610c1e57600080fd5b5051604080516323b872dd60e01b81526001600160a01b03848116600483015233602483015260448201889052915191909216916323b872dd9160648083019260209291908290030181600087803b158015610c7957600080fd5b505af1158015610c8d573d6000803e3d6000fd5b505050506040513d60208110156108e657600080fd5b836001600160a01b031663128acb088360006106928761115b565b604080518581526020810185905281517f2b0391b4fa408cfe47abd1977d72985695b2e5ebd3175f55be25f2c68c5df21b929181900390910190a1600080600084846060811015610d0e57600080fd5b506001600160a01b038135169350602081013592506040013590508115610e1a57336001600160a01b0316630dfe16816040518163ffffffff1660e01b815260040160206040518083038186803b158015610d6857600080fd5b505afa158015610d7c573d6000803e3d6000fd5b505050506040513d6020811015610d9257600080fd5b5051604080516323b872dd60e01b81526001600160a01b03868116600483015233602483015260448201869052915191909216916323b872dd9160648083019260209291908290030181600087803b158015610ded57600080fd5b505af1158015610e01573d6000803e3d6000fd5b505050506040513d6020811015610e1757600080fd5b50505b80156108e657336001600160a01b031663d21220a76040518163ffffffff1660e01b815260040160206040518083038186803b158015610e5957600080fd5b505afa158015610e6d573d6000803e3d6000fd5b505050506040513d6020811015610e8357600080fd5b5051604080516323b872dd60e01b81526001600160a01b03868116600483015233602483015260448201859052915191909216916323b872dd9160648083019260209291908290030181600087803b158015610ede57600080fd5b505af1158015610ef2573d6000803e3d6000fd5b505050506040513d6020811015610f0857600080fd5b505050505050505050565b836001600160a01b031663128acb088360006109c58761115b565b600082826020811015610f4057600080fd5b506040805187815260208101879052815192356001600160a01b031693507fd48241df4a75e663b29e55f9506b31f77ed0f48cfe7e7612d1163144995dc1ca929081900390910190a1600085131561108257336001600160a01b0316630dfe16816040518163ffffffff1660e01b815260040160206040518083038186803b158015610fcb57600080fd5b505afa158015610fdf573d6000803e3d6000fd5b505050506040513d6020811015610ff557600080fd5b5051604080516323b872dd60e01b81526001600160a01b03848116600483015233602483015260448201899052915191909216916323b872dd9160648083019260209291908290030181600087803b15801561105057600080fd5b505af1158015611064573d6000803e3d6000fd5b505050506040513d602081101561107a57600080fd5b506106709050565b600084131561114957336001600160a01b031663d21220a76040518163ffffffff1660e01b815260040160206040518083038186803b1580156110c457600080fd5b505afa1580156110d8573d6000803e3d6000fd5b505050506040513d60208110156110ee57600080fd5b5051604080516323b872dd60e01b81526001600160a01b03848116600483015233602483015260448201889052915191909216916323b872dd9160648083019260209291908290030181600087803b15801561105057600080fd5b84158015611155575083155b61067057fe5b6000600160ff1b821061116d57600080fd5b509056fea26469706673582212205eeda3c688ac01be61a895e1ea76d6c234f4fe9439f1dcc7052792cffdf8f7b264736f6c63430007060033",
  "immutableReferences": {},
  "source": "// SPDX-License-Identifier: UNLICENSED\npragma solidity =0.7.6;\n\nimport '../interfaces/IERC20Minimal.sol';\n\nimport '../libraries/SafeCast.sol';\nimport '../libraries/TickMath.sol';\n\nimport '../interfaces/callback/IUniswapV3MintCallback.sol';\nimport '../interfaces/callback/IUniswapV3SwapCallback.sol';\nimport '../interfaces/callback/IUniswapV3FlashCallback.sol';\n\nimport '../interfaces/IUniswapV3Pool.sol';\n\ncontract TestUniswapV3Callee is IUniswapV3MintCallback, IUniswapV3SwapCallback, IUniswapV3FlashCallback {\n    using SafeCast for uint256;\n\n    function swapExact0For1(\n        address pool,\n        uint256 amount0In,\n        address recipient,\n        uint160 sqrtPriceLimitX96\n    ) external {\n        IUniswapV3Pool(pool).swap(recipient, true, amount0In.toInt256(), sqrtPriceLimitX96, abi.encode(msg.sender));\n    }\n\n    function swap0ForExact1(\n        address pool,\n        uint256 amount1Out,\n        address recipient,\n        uint160 sqrtPriceLimitX96\n    ) external {\n        IUniswapV3Pool(pool).swap(recipient, true, -amount1Out.toInt256(), sqrtPriceLimitX96, abi.encode(msg.sender));\n    }\n\n    function swapExact1For0(\n        address pool,\n        uint256 amount1In,\n        address recipient,\n        uint160 sqrtPriceLimitX96\n    ) external {\n        IUniswapV3Pool(pool).swap(recipient, false, amount1In.toInt256(), sqrtPriceLimitX96, abi.encode(msg.sender));\n    }\n\n    function swap1ForExact0(\n        address pool,\n        uint256 amount0Out,\n        address recipient,\n        uint160 sqrtPriceLimitX96\n    ) external {\n        IUniswapV3Pool(pool).swap(recipient, false, -amount0Out.toInt256(), sqrtPriceLimitX96, abi.encode(msg.sender));\n    }\n\n    function swapToLowerSqrtPrice(\n        address pool,\n        uint160 sqrtPriceX96,\n        address recipient\n    ) external {\n        IUniswapV3Pool(pool).swap(recipient, true, type(int256).max, sqrtPriceX96, abi.encode(msg.sender));\n    }\n\n    function swapToHigherSqrtPrice(\n        address pool,\n        uint160 sqrtPriceX96,\n        address recipient\n    ) external {\n        IUniswapV3Pool(pool).swap(recipient, false, type(int256).max, sqrtPriceX96, abi.encode(msg.sender));\n    }\n\n    event SwapCallback(int256 amount0Delta, int256 amount1Delta);\n\n    function uniswapV3SwapCallback(\n        int256 amount0Delta,\n        int256 amount1Delta,\n        bytes calldata data\n    ) external override {\n        address sender = abi.decode(data, (address));\n\n        emit SwapCallback(amount0Delta, amount1Delta);\n\n        if (amount0Delta > 0) {\n            IERC20Minimal(IUniswapV3Pool(msg.sender).token0()).transferFrom(sender, msg.sender, uint256(amount0Delta));\n        } else if (amount1Delta > 0) {\n            IERC20Minimal(IUniswapV3Pool(msg.sender).token1()).transferFrom(sender, msg.sender, uint256(amount1Delta));\n        } else {\n            // if both are not gt 0, both must be 0.\n            assert(amount0Delta == 0 && amount1Delta == 0);\n        }\n    }\n\n    function mint(\n        address pool,\n        address recipient,\n        int24 tickLower,\n        int24 tickUpper,\n        uint128 amount\n    ) external {\n        IUniswapV3Pool(pool).mint(recipient, tickLower, tickUpper, amount, abi.encode(msg.sender));\n    }\n\n    event MintCallback(uint256 amount0Owed, uint256 amount1Owed);\n\n    function uniswapV3MintCallback(\n        uint256 amount0Owed,\n        uint256 amount1Owed,\n        bytes calldata data\n    ) external override {\n        address sender = abi.decode(data, (address));\n\n        emit MintCallback(amount0Owed, amount1Owed);\n        if (amount0Owed > 0)\n            IERC20Minimal(IUniswapV3Pool(msg.sender).token0()).transferFrom(sender, msg.sender, amount0Owed);\n        if (amount1Owed > 0)\n            IERC20Minimal(IUniswapV3Pool(msg.sender).token1()).transferFrom(sender, msg.sender, amount1Owed);\n    }\n\n    event FlashCallback(uint256 fee0, uint256 fee1);\n\n    function flash(\n        address pool,\n        address recipient,\n        uint256 amount0,\n        uint256 amount1,\n        uint256 pay0,\n        uint256 pay1\n    ) external {\n        IUniswapV3Pool(pool).flash(recipient, amount0, amount1, abi.encode(msg.sender, pay0, pay1));\n    }\n\n    function uniswapV3FlashCallback(\n        uint256 fee0,\n        uint256 fee1,\n        bytes calldata data\n    ) external override {\n        emit FlashCallback(fee0, fee1);\n\n        (address sender, uint256 pay0, uint256 pay1) = abi.decode(data, (address, uint256, uint256));\n\n        if (pay0 > 0) IERC20Minimal(IUniswapV3Pool(msg.sender).token0()).transferFrom(sender, msg.sender, pay0);\n        if (pay1 > 0) IERC20Minimal(IUniswapV3Pool(msg.sender).token1()).transferFrom(sender, msg.sender, pay1);\n    }\n}\n",
  "sourcePath": "/Users/zena/ico2.0/ico20-contracts/uniswap-v3-core/contracts/test/TestUniswapV3Callee.sol",
  "compiler": {
    "name": "solc",
    "version": "0.7.6+commit.7338295f.Emscripten.clang"
  },
  "schemaVersion": "3.3.4",
  "updatedAt": "2021-07-12T13:29:11.538Z",
  "devdoc": {
    "kind": "dev",
    "methods": {
      "uniswapV3FlashCallback(uint256,uint256,bytes)": {
        "details": "In the implementation you must repay the pool the tokens sent by flash plus the computed fee amounts. The caller of this method must be checked to be a UniswapV3Pool deployed by the canonical UniswapV3Factory.",
        "params": {
          "data": "Any data passed through by the caller via the IUniswapV3PoolActions#flash call",
          "fee0": "The fee amount in token0 due to the pool by the end of the flash",
          "fee1": "The fee amount in token1 due to the pool by the end of the flash"
        }
      },
      "uniswapV3MintCallback(uint256,uint256,bytes)": {
        "details": "In the implementation you must pay the pool tokens owed for the minted liquidity. The caller of this method must be checked to be a UniswapV3Pool deployed by the canonical UniswapV3Factory.",
        "params": {
          "amount0Owed": "The amount of token0 due to the pool for the minted liquidity",
          "amount1Owed": "The amount of token1 due to the pool for the minted liquidity",
          "data": "Any data passed through by the caller via the IUniswapV3PoolActions#mint call"
        }
      },
      "uniswapV3SwapCallback(int256,int256,bytes)": {
        "details": "In the implementation you must pay the pool tokens owed for the swap. The caller of this method must be checked to be a UniswapV3Pool deployed by the canonical UniswapV3Factory. amount0Delta and amount1Delta can both be 0 if no tokens were swapped.",
        "params": {
          "amount0Delta": "The amount of token0 that was sent (negative) or must be received (positive) by the pool by the end of the swap. If positive, the callback must send that amount of token0 to the pool.",
          "amount1Delta": "The amount of token1 that was sent (negative) or must be received (positive) by the pool by the end of the swap. If positive, the callback must send that amount of token1 to the pool.",
          "data": "Any data passed through by the caller via the IUniswapV3PoolActions#swap call"
        }
      }
    },
    "version": 1
  },
  "userdoc": {
    "kind": "user",
    "methods": {
      "uniswapV3FlashCallback(uint256,uint256,bytes)": {
        "notice": "Called to `msg.sender` after transferring to the recipient from IUniswapV3Pool#flash."
      },
      "uniswapV3MintCallback(uint256,uint256,bytes)": {
        "notice": "Called to `msg.sender` after minting liquidity to a position from IUniswapV3Pool#mint."
      },
      "uniswapV3SwapCallback(int256,int256,bytes)": {
        "notice": "Called to `msg.sender` after executing a swap via IUniswapV3Pool#swap."
      }
    },
    "version": 1
  }
}