{
  "contractName": "TickEchidnaTest",
  "abi": [
    {
      "inputs": [
        {
          "internalType": "int24",
          "name": "tickSpacing",
          "type": "int24"
        }
      ],
      "name": "checkTickSpacingToParametersInvariants",
      "outputs": [],
      "stateMutability": "pure",
      "type": "function"
    }
  ],
  "bytecode": "0x608060405234801561001057600080fd5b506101ce806100206000396000f3fe608060405234801561001057600080fd5b506004361061002b5760003560e01c8063858027e514610030575b600080fd5b6100506004803603602081101561004657600080fd5b503560020b610052565b005b620d89e8600282900b131561006657600080fd5b60008160020b1361007657600080fd5b600081600281900b620d89e7198161008a57fe5b05029050600082600281900b620d89e8816100a157fe5b0502905060006100b08461012e565b90508260000360020b8260020b146100c457fe5b60008260020b136100d157fe5b8360020b83830360020b816100e257fe5b0760020b156100ed57fe5b60008460020b84840360020b8161010057fe5b0560020b60010190506001600160801b03801681836001600160801b031602111561012757fe5b5050505050565b60008082600281900b620d89e7198161014357fe5b05029050600083600281900b620d89e88161015a57fe5b0502905060008460020b83830360020b8161017157fe5b0560010190508062ffffff166001600160801b0380168161018e57fe5b049594505050505056fea264697066735822122067bbcfac225cb8296be1ed6ebf8c4374fb7b8af30ced7dece90b9f28b48d9f3564736f6c63430007060033",
  "immutableReferences": {},
  "source": "// SPDX-License-Identifier: UNLICENSED\npragma solidity =0.7.6;\n\nimport '../libraries/Tick.sol';\n\ncontract TickEchidnaTest {\n    function checkTickSpacingToParametersInvariants(int24 tickSpacing) external pure {\n        require(tickSpacing <= TickMath.MAX_TICK);\n        require(tickSpacing > 0);\n\n        int24 minTick = (TickMath.MIN_TICK / tickSpacing) * tickSpacing;\n        int24 maxTick = (TickMath.MAX_TICK / tickSpacing) * tickSpacing;\n\n        uint128 maxLiquidityPerTick = Tick.tickSpacingToMaxLiquidityPerTick(tickSpacing);\n\n        // symmetry around 0 tick\n        assert(maxTick == -minTick);\n        // positive max tick\n        assert(maxTick > 0);\n        // divisibility\n        assert((maxTick - minTick) % tickSpacing == 0);\n\n        uint256 numTicks = uint256((maxTick - minTick) / tickSpacing) + 1;\n        // max liquidity at every tick is less than the cap\n        assert(uint256(maxLiquidityPerTick) * numTicks <= type(uint128).max);\n    }\n}\n",
  "sourcePath": "/Users/zena/ico2.0/ico20-contracts/uniswap-v3-core/contracts/test/TickEchidnaTest.sol",
  "compiler": {
    "name": "solc",
    "version": "0.7.6+commit.7338295f.Emscripten.clang"
  },
  "schemaVersion": "3.3.4",
  "updatedAt": "2021-07-12T13:29:11.558Z",
  "devdoc": {
    "kind": "dev",
    "methods": {},
    "version": 1
  },
  "userdoc": {
    "kind": "user",
    "methods": {},
    "version": 1
  }
}