{
  "contractName": "TickTest",
  "abi": [
    {
      "inputs": [
        {
          "internalType": "int24",
          "name": "",
          "type": "int24"
        }
      ],
      "name": "ticks",
      "outputs": [
        {
          "internalType": "uint128",
          "name": "liquidityGross",
          "type": "uint128"
        },
        {
          "internalType": "int128",
          "name": "liquidityNet",
          "type": "int128"
        },
        {
          "internalType": "uint256",
          "name": "feeGrowthOutside0X128",
          "type": "uint256"
        },
        {
          "internalType": "uint256",
          "name": "feeGrowthOutside1X128",
          "type": "uint256"
        },
        {
          "internalType": "int56",
          "name": "tickCumulativeOutside",
          "type": "int56"
        },
        {
          "internalType": "uint160",
          "name": "secondsPerLiquidityOutsideX128",
          "type": "uint160"
        },
        {
          "internalType": "uint32",
          "name": "secondsOutside",
          "type": "uint32"
        },
        {
          "internalType": "bool",
          "name": "initialized",
          "type": "bool"
        }
      ],
      "stateMutability": "view",
      "type": "function"
    },
    {
      "inputs": [
        {
          "internalType": "int24",
          "name": "tickSpacing",
          "type": "int24"
        }
      ],
      "name": "tickSpacingToMaxLiquidityPerTick",
      "outputs": [
        {
          "internalType": "uint128",
          "name": "",
          "type": "uint128"
        }
      ],
      "stateMutability": "pure",
      "type": "function"
    },
    {
      "inputs": [
        {
          "internalType": "int24",
          "name": "tick",
          "type": "int24"
        },
        {
          "components": [
            {
              "internalType": "uint128",
              "name": "liquidityGross",
              "type": "uint128"
            },
            {
              "internalType": "int128",
              "name": "liquidityNet",
              "type": "int128"
            },
            {
              "internalType": "uint256",
              "name": "feeGrowthOutside0X128",
              "type": "uint256"
            },
            {
              "internalType": "uint256",
              "name": "feeGrowthOutside1X128",
              "type": "uint256"
            },
            {
              "internalType": "int56",
              "name": "tickCumulativeOutside",
              "type": "int56"
            },
            {
              "internalType": "uint160",
              "name": "secondsPerLiquidityOutsideX128",
              "type": "uint160"
            },
            {
              "internalType": "uint32",
              "name": "secondsOutside",
              "type": "uint32"
            },
            {
              "internalType": "bool",
              "name": "initialized",
              "type": "bool"
            }
          ],
          "internalType": "struct Tick.Info",
          "name": "info",
          "type": "tuple"
        }
      ],
      "name": "setTick",
      "outputs": [],
      "stateMutability": "nonpayable",
      "type": "function"
    },
    {
      "inputs": [
        {
          "internalType": "int24",
          "name": "tickLower",
          "type": "int24"
        },
        {
          "internalType": "int24",
          "name": "tickUpper",
          "type": "int24"
        },
        {
          "internalType": "int24",
          "name": "tickCurrent",
          "type": "int24"
        },
        {
          "internalType": "uint256",
          "name": "feeGrowthGlobal0X128",
          "type": "uint256"
        },
        {
          "internalType": "uint256",
          "name": "feeGrowthGlobal1X128",
          "type": "uint256"
        }
      ],
      "name": "getFeeGrowthInside",
      "outputs": [
        {
          "internalType": "uint256",
          "name": "feeGrowthInside0X128",
          "type": "uint256"
        },
        {
          "internalType": "uint256",
          "name": "feeGrowthInside1X128",
          "type": "uint256"
        }
      ],
      "stateMutability": "view",
      "type": "function"
    },
    {
      "inputs": [
        {
          "internalType": "int24",
          "name": "tick",
          "type": "int24"
        },
        {
          "internalType": "int24",
          "name": "tickCurrent",
          "type": "int24"
        },
        {
          "internalType": "int128",
          "name": "liquidityDelta",
          "type": "int128"
        },
        {
          "internalType": "uint256",
          "name": "feeGrowthGlobal0X128",
          "type": "uint256"
        },
        {
          "internalType": "uint256",
          "name": "feeGrowthGlobal1X128",
          "type": "uint256"
        },
        {
          "internalType": "uint160",
          "name": "secondsPerLiquidityCumulativeX128",
          "type": "uint160"
        },
        {
          "internalType": "int56",
          "name": "tickCumulative",
          "type": "int56"
        },
        {
          "internalType": "uint32",
          "name": "time",
          "type": "uint32"
        },
        {
          "internalType": "bool",
          "name": "upper",
          "type": "bool"
        },
        {
          "internalType": "uint128",
          "name": "maxLiquidity",
          "type": "uint128"
        }
      ],
      "name": "update",
      "outputs": [
        {
          "internalType": "bool",
          "name": "flipped",
          "type": "bool"
        }
      ],
      "stateMutability": "nonpayable",
      "type": "function"
    },
    {
      "inputs": [
        {
          "internalType": "int24",
          "name": "tick",
          "type": "int24"
        }
      ],
      "name": "clear",
      "outputs": [],
      "stateMutability": "nonpayable",
      "type": "function"
    },
    {
      "inputs": [
        {
          "internalType": "int24",
          "name": "tick",
          "type": "int24"
        },
        {
          "internalType": "uint256",
          "name": "feeGrowthGlobal0X128",
          "type": "uint256"
        },
        {
          "internalType": "uint256",
          "name": "feeGrowthGlobal1X128",
          "type": "uint256"
        },
        {
          "internalType": "uint160",
          "name": "secondsPerLiquidityCumulativeX128",
          "type": "uint160"
        },
        {
          "internalType": "int56",
          "name": "tickCumulative",
          "type": "int56"
        },
        {
          "internalType": "uint32",
          "name": "time",
          "type": "uint32"
        }
      ],
      "name": "cross",
      "outputs": [
        {
          "internalType": "int128",
          "name": "liquidityNet",
          "type": "int128"
        }
      ],
      "stateMutability": "nonpayable",
      "type": "function"
    }
  ],
  "bytecode": "0x608060405234801561001057600080fd5b50610b8a806100206000396000f3fe608060405234801561001057600080fd5b506004361061006d5760003560e01c806320b90da91461007257806330e3ff4c1461009b5780635cb083ce146100bc57806382c66f87146100d1578063b613524a146100f1578063df33fa8814610104578063f30dba9314610124575b600080fd5b610085610080366004610888565b61014b565b6040516100929190610ac1565b60405180910390f35b6100ae6100a9366004610933565b61016f565b604051610092929190610b46565b6100cf6100ca366004610987565b61018e565b005b6100e46100df366004610867565b61028a565b6040516100929190610ada565b6100cf6100ff366004610867565b61029d565b610117610112366004610a5c565b6102ab565b6040516100929190610acc565b610137610132366004610867565b6102c7565b604051610092989796959493929190610aee565b6000610160818c8c8c8c8c8c8c8c8c8c610331565b9b9a5050505050505050505050565b6000806101808188888888886104ea565b915091509550959350505050565b600291820b820b600090815260208181526040918290208351815492850151600f0b6001600160801b03908116600160801b029181166001600160801b03199094169390931790921691909117815590820151600182015560608201519281019290925560808101516003909201805460a083015160c084015160e0909401511515600160f81b026001600160f81b0363ffffffff909516600160d81b0263ffffffff60d81b196001600160a01b03909316600160381b02600160381b600160d81b031960069890980b66ffffffffffffff1666ffffffffffffff19909516949094179690961692909217169390931791909116919091179055565b600061029582610596565b90505b919050565b6102a8600082610600565b50565b60006102bc8188888888888861062c565b979650505050505050565b60006020819052908152604090208054600182015460028301546003909301546001600160801b03831693600160801b909304600f0b9290600681900b90600160381b81046001600160a01b031690600160d81b810463ffffffff1690600160f81b900460ff1688565b60028a810b900b600090815260208c90526040812080546001600160801b03168261035c828d6106e6565b9050846001600160801b0316816001600160801b031611156103aa576040805162461bcd60e51b81526020600482015260026024820152614c4f60f01b604482015290519081900360640190fd5b6001600160801b03828116159082161581141594501561044f578c60020b8e60020b1361043757600183018b9055600283018a9055600383018054600160381b600160d81b031916600160381b6001600160a01b038c16021766ffffffffffffff191666ffffffffffffff60068b900b161763ffffffff60d81b1916600160d81b63ffffffff8a16021790555b6003830180546001600160f81b0316600160f81b1790555b82546001600160801b0319166001600160801b038216178355856104985782546104939061048e90600160801b9004600f90810b810b908f900b6107a2565b6107b8565b6104b9565b82546104b99061048e90600160801b9004600f90810b810b908f900b6107c9565b8354600f9190910b6001600160801b03908116600160801b0291161790925550909c9b505050505050505050505050565b600285810b80820b60009081526020899052604080822088850b850b83529082209193849391929184918291908a900b1261053057505060018201546002830154610543565b8360010154880391508360020154870390505b6000808b60020b8b60020b121561056557505060018301546002840154610578565b84600101548a0391508460020154890390505b92909803979097039b96909503949094039850939650505050505050565b60008082600281900b620d89e719816105ab57fe5b05029050600083600281900b620d89e8816105c257fe5b0502905060008460020b83830360020b816105d957fe5b0560010190508062ffffff166001600160801b038016816105f657fe5b0495945050505050565b600290810b810b6000908152602092909252604082208281556001810183905590810182905560030155565b600295860b860b60009081526020979097526040909620600181018054909503909455938301805490920390915560038201805463ffffffff600160d81b6001600160a01b03600160381b808504821690960316909402600160381b600160d81b031990921691909117600681810b90960390950b66ffffffffffffff1666ffffffffffffff199095169490941782810485169095039093160263ffffffff60d81b1990931692909217905554600160801b9004600f0b90565b60008082600f0b121561074b57826001600160801b03168260000384039150816001600160801b031610610746576040805162461bcd60e51b81526020600482015260026024820152614c5360f01b604482015290519081900360640190fd5b61079c565b826001600160801b03168284019150816001600160801b0316101561079c576040805162461bcd60e51b81526020600482015260026024820152614c4160f01b604482015290519081900360640190fd5b92915050565b8181018281121560008312151461079c57600080fd5b80600f81900b811461029857600080fd5b8082038281131560008312151461079c57600080fd5b8035801515811461029857600080fd5b8035600f81900b811461029857600080fd5b8035600281900b811461029857600080fd5b8035600681900b811461029857600080fd5b80356001600160801b038116811461029857600080fd5b80356001600160a01b038116811461029857600080fd5b803563ffffffff8116811461029857600080fd5b600060208284031215610878578081fd5b61088182610801565b9392505050565b6000806000806000806000806000806101408b8d0312156108a7578586fd5b6108b08b610801565b99506108be60208c01610801565b98506108cc60408c016107ef565b975060608b0135965060808b013595506108e860a08c0161083c565b94506108f660c08c01610813565b935061090460e08c01610853565b92506109136101008c016107df565b91506109226101208c01610825565b90509295989b9194979a5092959850565b600080600080600060a0868803121561094a578081fd5b61095386610801565b945061096160208701610801565b935061096f60408701610801565b94979396509394606081013594506080013592915050565b60008082840361012081121561099b578283fd5b6109a484610801565b925061010080601f19830112156109b9578283fd5b604051915080820182811067ffffffffffffffff821117156109d757fe5b6040526109e660208601610825565b82526109f4604086016107ef565b60208301526060850135604083015260808501356060830152610a1960a08601610813565b6080830152610a2a60c0860161083c565b60a0830152610a3b60e08601610853565b60c0830152610a4b8186016107df565b60e083015250809150509250929050565b60008060008060008060c08789031215610a74578182fd5b610a7d87610801565b95506020870135945060408701359350610a996060880161083c565b9250610aa760808801610813565b9150610ab560a08801610853565b90509295509295509295565b901515815260200190565b600f9190910b815260200190565b6001600160801b0391909116815260200190565b6001600160801b03989098168852600f9690960b60208801526040870194909452606086019290925260060b60808501526001600160a01b031660a084015263ffffffff1660c0830152151560e08201526101000190565b91825260208201526040019056fea2646970667358221220a7648868d518149da8c6b4bc713562937556ea47c892311e7e298a6e1568676664736f6c63430007060033",
  "immutableReferences": {},
  "source": "// SPDX-License-Identifier: UNLICENSED\npragma solidity =0.7.6;\npragma abicoder v2;\n\nimport '../libraries/Tick.sol';\n\ncontract TickTest {\n    using Tick for mapping(int24 => Tick.Info);\n\n    mapping(int24 => Tick.Info) public ticks;\n\n    function tickSpacingToMaxLiquidityPerTick(int24 tickSpacing) external pure returns (uint128) {\n        return Tick.tickSpacingToMaxLiquidityPerTick(tickSpacing);\n    }\n\n    function setTick(int24 tick, Tick.Info memory info) external {\n        ticks[tick] = info;\n    }\n\n    function getFeeGrowthInside(\n        int24 tickLower,\n        int24 tickUpper,\n        int24 tickCurrent,\n        uint256 feeGrowthGlobal0X128,\n        uint256 feeGrowthGlobal1X128\n    ) external view returns (uint256 feeGrowthInside0X128, uint256 feeGrowthInside1X128) {\n        return ticks.getFeeGrowthInside(tickLower, tickUpper, tickCurrent, feeGrowthGlobal0X128, feeGrowthGlobal1X128);\n    }\n\n    function update(\n        int24 tick,\n        int24 tickCurrent,\n        int128 liquidityDelta,\n        uint256 feeGrowthGlobal0X128,\n        uint256 feeGrowthGlobal1X128,\n        uint160 secondsPerLiquidityCumulativeX128,\n        int56 tickCumulative,\n        uint32 time,\n        bool upper,\n        uint128 maxLiquidity\n    ) external returns (bool flipped) {\n        return\n            ticks.update(\n                tick,\n                tickCurrent,\n                liquidityDelta,\n                feeGrowthGlobal0X128,\n                feeGrowthGlobal1X128,\n                secondsPerLiquidityCumulativeX128,\n                tickCumulative,\n                time,\n                upper,\n                maxLiquidity\n            );\n    }\n\n    function clear(int24 tick) external {\n        ticks.clear(tick);\n    }\n\n    function cross(\n        int24 tick,\n        uint256 feeGrowthGlobal0X128,\n        uint256 feeGrowthGlobal1X128,\n        uint160 secondsPerLiquidityCumulativeX128,\n        int56 tickCumulative,\n        uint32 time\n    ) external returns (int128 liquidityNet) {\n        return\n            ticks.cross(\n                tick,\n                feeGrowthGlobal0X128,\n                feeGrowthGlobal1X128,\n                secondsPerLiquidityCumulativeX128,\n                tickCumulative,\n                time\n            );\n    }\n}\n",
  "sourcePath": "/Users/zena/ico2.0/ico20-contracts/uniswap-v3-core/contracts/test/TickTest.sol",
  "compiler": {
    "name": "solc",
    "version": "0.7.6+commit.7338295f.Emscripten.clang"
  },
  "schemaVersion": "3.3.4",
  "updatedAt": "2021-07-12T13:29:11.566Z",
  "devdoc": {
    "kind": "dev",
    "methods": {},
    "version": 1
  },
  "userdoc": {
    "kind": "user",
    "methods": {},
    "version": 1
  }
}