{
  "_format": "hh-sol-artifact-1",
  "contractName": "StakeTONUpgrade3",
  "sourceName": "contracts/stake/StakeTONUpgrade3.sol",
  "abi": [
    {
      "inputs": [],
      "stateMutability": "nonpayable",
      "type": "constructor"
    },
    {
      "anonymous": false,
      "inputs": [
        {
          "indexed": true,
          "internalType": "bytes32",
          "name": "role",
          "type": "bytes32"
        },
        {
          "indexed": true,
          "internalType": "bytes32",
          "name": "previousAdminRole",
          "type": "bytes32"
        },
        {
          "indexed": true,
          "internalType": "bytes32",
          "name": "newAdminRole",
          "type": "bytes32"
        }
      ],
      "name": "RoleAdminChanged",
      "type": "event"
    },
    {
      "anonymous": false,
      "inputs": [
        {
          "indexed": true,
          "internalType": "bytes32",
          "name": "role",
          "type": "bytes32"
        },
        {
          "indexed": true,
          "internalType": "address",
          "name": "account",
          "type": "address"
        },
        {
          "indexed": true,
          "internalType": "address",
          "name": "sender",
          "type": "address"
        }
      ],
      "name": "RoleGranted",
      "type": "event"
    },
    {
      "anonymous": false,
      "inputs": [
        {
          "indexed": true,
          "internalType": "bytes32",
          "name": "role",
          "type": "bytes32"
        },
        {
          "indexed": true,
          "internalType": "address",
          "name": "account",
          "type": "address"
        },
        {
          "indexed": true,
          "internalType": "address",
          "name": "sender",
          "type": "address"
        }
      ],
      "name": "RoleRevoked",
      "type": "event"
    },
    {
      "anonymous": false,
      "inputs": [
        {
          "indexed": true,
          "internalType": "address",
          "name": "to",
          "type": "address"
        },
        {
          "indexed": false,
          "internalType": "uint256",
          "name": "tonAmount",
          "type": "uint256"
        },
        {
          "indexed": false,
          "internalType": "uint256",
          "name": "wtonAmount",
          "type": "uint256"
        },
        {
          "indexed": false,
          "internalType": "uint256",
          "name": "tosAmount",
          "type": "uint256"
        },
        {
          "indexed": false,
          "internalType": "uint256",
          "name": "tosBurnAmount",
          "type": "uint256"
        }
      ],
      "name": "TonWithdrawal",
      "type": "event"
    },
    {
      "anonymous": false,
      "inputs": [
        {
          "indexed": true,
          "internalType": "address",
          "name": "to",
          "type": "address"
        },
        {
          "indexed": false,
          "internalType": "uint256",
          "name": "tonAmount",
          "type": "uint256"
        },
        {
          "indexed": false,
          "internalType": "uint256",
          "name": "tosAmount",
          "type": "uint256"
        }
      ],
      "name": "Withdrawal",
      "type": "event"
    },
    {
      "inputs": [],
      "name": "ADMIN_ROLE",
      "outputs": [
        {
          "internalType": "bytes32",
          "name": "",
          "type": "bytes32"
        }
      ],
      "stateMutability": "view",
      "type": "function"
    },
    {
      "inputs": [],
      "name": "BURNER_ROLE",
      "outputs": [
        {
          "internalType": "bytes32",
          "name": "",
          "type": "bytes32"
        }
      ],
      "stateMutability": "view",
      "type": "function"
    },
    {
      "inputs": [],
      "name": "DEFAULT_ADMIN_ROLE",
      "outputs": [
        {
          "internalType": "bytes32",
          "name": "",
          "type": "bytes32"
        }
      ],
      "stateMutability": "view",
      "type": "function"
    },
    {
      "inputs": [],
      "name": "MINTER_ROLE",
      "outputs": [
        {
          "internalType": "bytes32",
          "name": "",
          "type": "bytes32"
        }
      ],
      "stateMutability": "view",
      "type": "function"
    },
    {
      "inputs": [
        {
          "internalType": "address",
          "name": "account",
          "type": "address"
        }
      ],
      "name": "addAdmin",
      "outputs": [],
      "stateMutability": "nonpayable",
      "type": "function"
    },
    {
      "inputs": [],
      "name": "defiAddr",
      "outputs": [
        {
          "internalType": "address",
          "name": "",
          "type": "address"
        }
      ],
      "stateMutability": "view",
      "type": "function"
    },
    {
      "inputs": [],
      "name": "defiStatus",
      "outputs": [
        {
          "internalType": "uint256",
          "name": "",
          "type": "uint256"
        }
      ],
      "stateMutability": "view",
      "type": "function"
    },
    {
      "inputs": [],
      "name": "depositManager",
      "outputs": [
        {
          "internalType": "address",
          "name": "",
          "type": "address"
        }
      ],
      "stateMutability": "view",
      "type": "function"
    },
    {
      "inputs": [],
      "name": "endBlock",
      "outputs": [
        {
          "internalType": "uint256",
          "name": "",
          "type": "uint256"
        }
      ],
      "stateMutability": "view",
      "type": "function"
    },
    {
      "inputs": [],
      "name": "finalBalanceTON",
      "outputs": [
        {
          "internalType": "uint256",
          "name": "",
          "type": "uint256"
        }
      ],
      "stateMutability": "view",
      "type": "function"
    },
    {
      "inputs": [],
      "name": "finalBalanceWTON",
      "outputs": [
        {
          "internalType": "uint256",
          "name": "",
          "type": "uint256"
        }
      ],
      "stateMutability": "view",
      "type": "function"
    },
    {
      "inputs": [],
      "name": "fromTokamak",
      "outputs": [
        {
          "internalType": "uint256",
          "name": "",
          "type": "uint256"
        }
      ],
      "stateMutability": "view",
      "type": "function"
    },
    {
      "inputs": [
        {
          "internalType": "bytes32",
          "name": "role",
          "type": "bytes32"
        }
      ],
      "name": "getRoleAdmin",
      "outputs": [
        {
          "internalType": "bytes32",
          "name": "",
          "type": "bytes32"
        }
      ],
      "stateMutability": "view",
      "type": "function"
    },
    {
      "inputs": [
        {
          "internalType": "bytes32",
          "name": "role",
          "type": "bytes32"
        },
        {
          "internalType": "uint256",
          "name": "index",
          "type": "uint256"
        }
      ],
      "name": "getRoleMember",
      "outputs": [
        {
          "internalType": "address",
          "name": "",
          "type": "address"
        }
      ],
      "stateMutability": "view",
      "type": "function"
    },
    {
      "inputs": [
        {
          "internalType": "bytes32",
          "name": "role",
          "type": "bytes32"
        }
      ],
      "name": "getRoleMemberCount",
      "outputs": [
        {
          "internalType": "uint256",
          "name": "",
          "type": "uint256"
        }
      ],
      "stateMutability": "view",
      "type": "function"
    },
    {
      "inputs": [
        {
          "internalType": "address",
          "name": "user",
          "type": "address"
        }
      ],
      "name": "getUserStaked",
      "outputs": [
        {
          "internalType": "uint256",
          "name": "amount",
          "type": "uint256"
        },
        {
          "internalType": "uint256",
          "name": "claimedBlock",
          "type": "uint256"
        },
        {
          "internalType": "uint256",
          "name": "claimedAmount",
          "type": "uint256"
        },
        {
          "internalType": "uint256",
          "name": "releasedBlock",
          "type": "uint256"
        },
        {
          "internalType": "uint256",
          "name": "releasedAmount",
          "type": "uint256"
        },
        {
          "internalType": "uint256",
          "name": "releasedTOSAmount",
          "type": "uint256"
        },
        {
          "internalType": "bool",
          "name": "released",
          "type": "bool"
        }
      ],
      "stateMutability": "view",
      "type": "function"
    },
    {
      "inputs": [
        {
          "internalType": "bytes32",
          "name": "role",
          "type": "bytes32"
        },
        {
          "internalType": "address",
          "name": "account",
          "type": "address"
        }
      ],
      "name": "grantRole",
      "outputs": [],
      "stateMutability": "nonpayable",
      "type": "function"
    },
    {
      "inputs": [
        {
          "internalType": "bytes32",
          "name": "role",
          "type": "bytes32"
        },
        {
          "internalType": "address",
          "name": "account",
          "type": "address"
        }
      ],
      "name": "hasRole",
      "outputs": [
        {
          "internalType": "bool",
          "name": "",
          "type": "bool"
        }
      ],
      "stateMutability": "view",
      "type": "function"
    },
    {
      "inputs": [],
      "name": "infos",
      "outputs": [
        {
          "internalType": "address",
          "name": "",
          "type": "address"
        },
        {
          "internalType": "address",
          "name": "",
          "type": "address"
        },
        {
          "internalType": "uint256[3]",
          "name": "",
          "type": "uint256[3]"
        },
        {
          "internalType": "uint256",
          "name": "",
          "type": "uint256"
        },
        {
          "internalType": "uint256",
          "name": "",
          "type": "uint256"
        },
        {
          "internalType": "uint256",
          "name": "",
          "type": "uint256"
        }
      ],
      "stateMutability": "view",
      "type": "function"
    },
    {
      "inputs": [
        {
          "internalType": "address",
          "name": "account",
          "type": "address"
        }
      ],
      "name": "isAdmin",
      "outputs": [
        {
          "internalType": "bool",
          "name": "",
          "type": "bool"
        }
      ],
      "stateMutability": "view",
      "type": "function"
    },
    {
      "inputs": [],
      "name": "migratedL2",
      "outputs": [
        {
          "internalType": "bool",
          "name": "",
          "type": "bool"
        }
      ],
      "stateMutability": "view",
      "type": "function"
    },
    {
      "inputs": [],
      "name": "pauseProxy",
      "outputs": [
        {
          "internalType": "bool",
          "name": "",
          "type": "bool"
        }
      ],
      "stateMutability": "view",
      "type": "function"
    },
    {
      "inputs": [],
      "name": "paytoken",
      "outputs": [
        {
          "internalType": "address",
          "name": "",
          "type": "address"
        }
      ],
      "stateMutability": "view",
      "type": "function"
    },
    {
      "inputs": [
        {
          "internalType": "address",
          "name": "account",
          "type": "address"
        }
      ],
      "name": "removeAdmin",
      "outputs": [],
      "stateMutability": "nonpayable",
      "type": "function"
    },
    {
      "inputs": [
        {
          "internalType": "bytes32",
          "name": "role",
          "type": "bytes32"
        },
        {
          "internalType": "address",
          "name": "account",
          "type": "address"
        }
      ],
      "name": "renounceRole",
      "outputs": [],
      "stateMutability": "nonpayable",
      "type": "function"
    },
    {
      "inputs": [],
      "name": "requestNum",
      "outputs": [
        {
          "internalType": "uint256",
          "name": "",
          "type": "uint256"
        }
      ],
      "stateMutability": "view",
      "type": "function"
    },
    {
      "inputs": [
        {
          "internalType": "bytes32",
          "name": "role",
          "type": "bytes32"
        },
        {
          "internalType": "address",
          "name": "account",
          "type": "address"
        }
      ],
      "name": "revokeRole",
      "outputs": [],
      "stateMutability": "nonpayable",
      "type": "function"
    },
    {
      "inputs": [],
      "name": "rewardClaimedTotal",
      "outputs": [
        {
          "internalType": "uint256",
          "name": "",
          "type": "uint256"
        }
      ],
      "stateMutability": "view",
      "type": "function"
    },
    {
      "inputs": [],
      "name": "saleStartBlock",
      "outputs": [
        {
          "internalType": "uint256",
          "name": "",
          "type": "uint256"
        }
      ],
      "stateMutability": "view",
      "type": "function"
    },
    {
      "inputs": [],
      "name": "seigManager",
      "outputs": [
        {
          "internalType": "address",
          "name": "",
          "type": "address"
        }
      ],
      "stateMutability": "view",
      "type": "function"
    },
    {
      "inputs": [],
      "name": "stakeRegistry",
      "outputs": [
        {
          "internalType": "address",
          "name": "",
          "type": "address"
        }
      ],
      "stateMutability": "view",
      "type": "function"
    },
    {
      "inputs": [],
      "name": "startBlock",
      "outputs": [
        {
          "internalType": "uint256",
          "name": "",
          "type": "uint256"
        }
      ],
      "stateMutability": "view",
      "type": "function"
    },
    {
      "inputs": [],
      "name": "swapProxy",
      "outputs": [
        {
          "internalType": "address",
          "name": "",
          "type": "address"
        }
      ],
      "stateMutability": "view",
      "type": "function"
    },
    {
      "inputs": [],
      "name": "swappedAmountTOS",
      "outputs": [
        {
          "internalType": "uint256",
          "name": "",
          "type": "uint256"
        }
      ],
      "stateMutability": "view",
      "type": "function"
    },
    {
      "inputs": [],
      "name": "toTokamak",
      "outputs": [
        {
          "internalType": "uint256",
          "name": "",
          "type": "uint256"
        }
      ],
      "stateMutability": "view",
      "type": "function"
    },
    {
      "inputs": [],
      "name": "toUniswapWTON",
      "outputs": [
        {
          "internalType": "uint256",
          "name": "",
          "type": "uint256"
        }
      ],
      "stateMutability": "view",
      "type": "function"
    },
    {
      "inputs": [],
      "name": "tokamakLayer2",
      "outputs": [
        {
          "internalType": "address",
          "name": "",
          "type": "address"
        }
      ],
      "stateMutability": "view",
      "type": "function"
    },
    {
      "inputs": [],
      "name": "token",
      "outputs": [
        {
          "internalType": "address",
          "name": "",
          "type": "address"
        }
      ],
      "stateMutability": "view",
      "type": "function"
    },
    {
      "inputs": [],
      "name": "ton",
      "outputs": [
        {
          "internalType": "address",
          "name": "",
          "type": "address"
        }
      ],
      "stateMutability": "view",
      "type": "function"
    },
    {
      "inputs": [],
      "name": "totalStakedAmount",
      "outputs": [
        {
          "internalType": "uint256",
          "name": "",
          "type": "uint256"
        }
      ],
      "stateMutability": "view",
      "type": "function"
    },
    {
      "inputs": [],
      "name": "totalStakers",
      "outputs": [
        {
          "internalType": "uint256",
          "name": "",
          "type": "uint256"
        }
      ],
      "stateMutability": "view",
      "type": "function"
    },
    {
      "inputs": [
        {
          "internalType": "address",
          "name": "newAdmin",
          "type": "address"
        }
      ],
      "name": "transferAdmin",
      "outputs": [],
      "stateMutability": "nonpayable",
      "type": "function"
    },
    {
      "inputs": [
        {
          "internalType": "address",
          "name": "",
          "type": "address"
        }
      ],
      "name": "userStaked",
      "outputs": [
        {
          "internalType": "uint256",
          "name": "amount",
          "type": "uint256"
        },
        {
          "internalType": "uint256",
          "name": "claimedBlock",
          "type": "uint256"
        },
        {
          "internalType": "uint256",
          "name": "claimedAmount",
          "type": "uint256"
        },
        {
          "internalType": "uint256",
          "name": "releasedBlock",
          "type": "uint256"
        },
        {
          "internalType": "uint256",
          "name": "releasedAmount",
          "type": "uint256"
        },
        {
          "internalType": "uint256",
          "name": "releasedTOSAmount",
          "type": "uint256"
        },
        {
          "internalType": "bool",
          "name": "released",
          "type": "bool"
        }
      ],
      "stateMutability": "view",
      "type": "function"
    },
    {
      "inputs": [],
      "name": "vault",
      "outputs": [
        {
          "internalType": "address",
          "name": "",
          "type": "address"
        }
      ],
      "stateMutability": "view",
      "type": "function"
    },
    {
      "inputs": [],
      "name": "version",
      "outputs": [
        {
          "internalType": "string",
          "name": "",
          "type": "string"
        }
      ],
      "stateMutability": "pure",
      "type": "function"
    },
    {
      "inputs": [],
      "name": "withdraw",
      "outputs": [],
      "stateMutability": "nonpayable",
      "type": "function"
    },
    {
      "inputs": [],
      "name": "withdrawFlag",
      "outputs": [
        {
          "internalType": "bool",
          "name": "",
          "type": "bool"
        }
      ],
      "stateMutability": "view",
      "type": "function"
    },
    {
      "inputs": [],
      "name": "wton",
      "outputs": [
        {
          "internalType": "address",
          "name": "",
          "type": "address"
        }
      ],
      "stateMutability": "view",
      "type": "function"
    },
    {
      "stateMutability": "payable",
      "type": "receive"
    }
  ],
  "bytecode": "0x608060405234801561001057600080fd5b50612a3d806100206000396000f3fe6080604052600436106102975760003560e01c806375829def1161015a578063b2d4d6a3116100c1578063e09974b91161007a578063e09974b914610727578063e58e27471461073c578063e6a7bc8714610751578063fbfa77cf14610766578063fc0c546a1461077b578063fd7fa46014610790576102bd565b8063b2d4d6a314610688578063ca15c8731461069d578063cc48b947146106bd578063d5391393146106d2578063d547741f146106e7578063dac3fc3f14610707576102bd565b806392ea3b4c1161011357806392ea3b4c146105da5780639a88be2f146105ef5780639d84ca3514610616578063a1f5f50e1461062b578063a217fddf14610640578063acc3a93914610655576102bd565b806375829def1461053b57806375b238fc1461055b57806386989038146105705780638d62d949146105855780639010d07c1461059a57806391d14854146105ba576102bd565b806343b0934a116101fe5780636c7ac9d8116101b75780636c7ac9d8146104b25780636e7cf534146104c75780636ec4be90146104dc5780636fb7f558146104f157806370480275146105065780637228532614610526576102bd565b806343b0934a1461041a57806348cd4cb11461043c57806354fd4d5014610451578063567e98f91461047357806363a8fd8914610488578063683048351461049d576102bd565b8063248a9ca311610250578063248a9ca31461036357806324d7806c14610383578063282c51f3146103b05780632f2ff15d146103c557806336568abe146103e55780633ccfd60b14610405576102bd565b806305871b78146102c2578063083c6323146102ed5780630ac8e0f3146103025780630ea3d9c9146103175780631785f53c1461032c578063200272751461034e576102bd565b366102bd5760405162461bcd60e51b81526004016102b4906127e5565b60405180910390fd5b600080fd5b3480156102ce57600080fd5b506102d76107a5565b6040516102e4919061239c565b60405180910390f35b3480156102f957600080fd5b506102d76107ab565b34801561030e57600080fd5b506102d76107b1565b34801561032357600080fd5b506102d76107b7565b34801561033857600080fd5b5061034c6103473660046120cf565b6107bd565b005b34801561035a57600080fd5b506102d761081c565b34801561036f57600080fd5b506102d761037e36600461217f565b610822565b34801561038f57600080fd5b506103a361039e3660046120cf565b61083a565b6040516102e49190612391565b3480156103bc57600080fd5b506102d761085a565b3480156103d157600080fd5b5061034c6103e0366004612197565b61087e565b3480156103f157600080fd5b5061034c610400366004612197565b6108e5565b34801561041157600080fd5b5061034c610946565b34801561042657600080fd5b5061042f6111da565b6040516102e491906122e5565b34801561044857600080fd5b506102d76111e9565b34801561045d57600080fd5b506104666111ef565b6040516102e491906123bc565b34801561047f57600080fd5b506102d761121a565b34801561049457600080fd5b506103a3611220565b3480156104a957600080fd5b5061042f611229565b3480156104be57600080fd5b5061042f611238565b3480156104d357600080fd5b506103a3611247565b3480156104e857600080fd5b5061042f611250565b3480156104fd57600080fd5b5061042f61125f565b34801561051257600080fd5b5061034c6105213660046120cf565b61126e565b34801561053257600080fd5b506102d76112ca565b34801561054757600080fd5b5061034c6105563660046120cf565b6112d0565b34801561056757600080fd5b506102d76113f1565b34801561057c57600080fd5b506102d7611403565b34801561059157600080fd5b5061042f611409565b3480156105a657600080fd5b5061042f6105b53660046121c6565b611418565b3480156105c657600080fd5b506103a36105d5366004612197565b611437565b3480156105e657600080fd5b5061042f61144f565b3480156105fb57600080fd5b5061060461145e565b6040516102e49695949392919061232c565b34801561062257600080fd5b5061042f6114b4565b34801561063757600080fd5b506103a36114c8565b34801561064c57600080fd5b506102d76114d8565b34801561066157600080fd5b506106756106703660046120cf565b6114dd565b6040516102e4979695949392919061287d565b34801561069457600080fd5b506102d761151d565b3480156106a957600080fd5b506102d76106b836600461217f565b611523565b3480156106c957600080fd5b5061042f61153a565b3480156106de57600080fd5b506102d7611549565b3480156106f357600080fd5b5061034c610702366004612197565b61156d565b34801561071357600080fd5b506106756107223660046120cf565b6115c6565b34801561073357600080fd5b506102d761160f565b34801561074857600080fd5b506102d7611615565b34801561075d57600080fd5b506102d761161b565b34801561077257600080fd5b5061042f611621565b34801561078757600080fd5b5061042f611630565b34801561079c57600080fd5b506102d761163f565b60155481565b60065481565b60145481565b60165481565b6107c63361083a565b6108015760405162461bcd60e51b81526004018080602001828103825260228152602001806129466022913960400191505060405180910390fd5b6108196000805160206129b9833981519152826108e5565b50565b60045481565b6000818152601c60205260409020600201545b919050565b60006108546000805160206129b983398151915283611437565b92915050565b7f9667e80708b6eeeb0053fa0cca44e028ff548e2a9f029edfeac87c118b08b7c881565b6000828152601c602052604090206002015461089c906105d5611645565b6108d75760405162461bcd60e51b815260040180806020018281038252602f815260200180612917602f913960400191505060405180910390fd5b6108e18282611649565b5050565b6108ed611645565b6001600160a01b0316816001600160a01b03161461093c5760405162461bcd60e51b815260040180806020018281038252602f8152602001806129d9602f913960400191505060405180910390fd5b6108e182826116b2565b6000600654118015610959575043600654105b6109755760405162461bcd60e51b81526004016102b4906127b2565b600080600080600160009054906101000a90046001600160a01b03166001600160a01b031663a782ebd56040518163ffffffff1660e01b815260040160a06040518083038186803b1580156109c957600080fd5b505afa1580156109dd573d6000803e3d6000fd5b505050506040513d601f19601f82011682018060405250810190610a0191906120eb565b506001546040516364ab064960e11b815294985092965090945092506000916001600160a01b039091169063c9560c9290610a60907ffc9830c5c2efd1128a4cb08e284fbbc01df2e7a8d04c2693a27d16fb22473fb29060040161239c565b60006040518083038186803b158015610a7857600080fd5b505afa158015610a8c573d6000803e3d6000fd5b505050506040513d6000823e601f3d908101601f19168201604052610ab491908101906121e7565b509450505050506001600160a01b03851615801590610adb57506001600160a01b03841615155b8015610aef57506001600160a01b03831615155b8015610b0357506001600160a01b03821615155b610b1f5760405162461bcd60e51b81526004016102b490612659565b6012546001600160a01b031615610c5e576012546040516367265c3b60e11b81526001600160a01b038481169263ce4cb87692610b6492909116903090600401612312565b60206040518083038186803b158015610b7c57600080fd5b505afa158015610b90573d6000803e3d6000fd5b505050506040513d601f19601f82011682018060405250810190610bb491906122ca565b158015610c425750601254604051632638fdf560e01b81526001600160a01b0385811692632638fdf592610bf092909116903090600401612312565b60206040518083038186803b158015610c0857600080fd5b505afa158015610c1c573d6000803e3d6000fd5b505050506040513d601f19601f82011682018060405250810190610c4091906122ca565b155b610c5e5760405162461bcd60e51b81526004016102b4906123ef565b336000908152600960205260409020600681015460ff1615610c925760405162461bcd60e51b81526004016102b490612513565b601b5460ff16610e8157601b805460ff191660011790556002546001600160a01b039081169087161415610e81576000546040516370a0823160e01b81526001600160a01b03909116906370a0823190610cf09030906004016122e5565b60206040518083038186803b158015610d0857600080fd5b505afa158015610d1c573d6000803e3d6000fd5b505050506040513d601f19601f82011682018060405250810190610d4091906122ca565b6016556040516370a0823160e01b81526001600160a01b038616906370a0823190610d6f9030906004016122e5565b60206040518083038186803b158015610d8757600080fd5b505afa158015610d9b573d6000803e3d6000fd5b505050506040513d601f19601f82011682018060405250810190610dbf91906122ca565b6018556040516370a0823160e01b81526001600160a01b038716906370a0823190610dee9030906004016122e5565b60206040518083038186803b158015610e0657600080fd5b505afa158015610e1a573d6000803e3d6000fd5b505050506040513d601f19601f82011682018060405250810190610e3e91906122ca565b60178190556008546018549091610e6391610e5d90633b9aca0061171b565b9061175d565b1015610e815760405162461bcd60e51b81526004016102b490612727565b805480610ea05760405162461bcd60e51b81526004016102b490612439565b43600383015560068201805460ff19166001908117909155600a54610ec4916117b7565b600a556002546001600160a01b0388811691161415610fe55760008060008060006017541115610f1257610f0f600854610f09876017546117f990919063ffffffff16565b9061171b565b93505b60185415610f3857610f35600854610f09876018546117f990919063ffffffff16565b92505b60165415610f9d57610f5b600854610f09876016546117f990919063ffffffff16565b9150600082118015610f6d5750600087115b8015610f7a575060648711155b15610f9d57610f8e6064610f09848a6117f9565b9050610f9a82826117b7565b91505b600586018290558215610fc657610fbc84610e5d85633b9aca0061171b565b6004870155610fce565b600486018490555b610fdc8b8b86868686611852565b5050505061118f565b6002546001600160a01b03166110c55780826004015411156110195760405162461bcd60e51b81526004016102b490612439565b600482018190553080318211156110425760405162461bcd60e51b81526004016102b4906124a7565b6000336001600160a01b03168360405161105b906122e2565b60006040518083038185875af1925050503d8060008114611098576040519150601f19603f3d011682016040523d82523d6000602084013e61109d565b606091505b50509050806110be5760405162461bcd60e51b81526004016102b4906126a0565b505061118f565b80826004015411156110e95760405162461bcd60e51b81526004016102b490612439565b600480830182905560025460405163a9059cbb60e01b81526001600160a01b039091169163a9059cbb916111219133918691016122f9565b602060405180830381600087803b15801561113b57600080fd5b505af115801561114f573d6000803e3d6000fd5b505050506040513d601f19601f82011682018060405250810190611173919061215f565b61118f5760405162461bcd60e51b81526004016102b490612598565b6004820154600583015460405133927fdf273cb619d95419a9cd0ec88123a0538c85064229baa6363788f743fff90deb926111c992612854565b60405180910390a250505050505050565b6002546001600160a01b031681565b60055481565b6040805180820190915260118152707068617365312e757067726164652e763360781b602082015290565b60085481565b600c5460ff1681565b6001546001600160a01b031681565b6010546001600160a01b031681565b601b5460ff1681565b6011546001600160a01b031681565b600f546001600160a01b031681565b6112773361083a565b6112b25760405162461bcd60e51b81526004018080602001828103825260228152602001806129466022913960400191505060405180910390fd5b6108196000805160206129b98339815191528261087e565b60195481565b6112d93361083a565b6113145760405162461bcd60e51b81526004018080602001828103825260228152602001806129466022913960400191505060405180910390fd5b6001600160a01b03811661136a576040805162461bcd60e51b815260206004820152601860248201527741636365737369626c653a207a65726f206164647265737360401b604482015290519081900360640190fd5b336001600160a01b03821614156113c1576040805162461bcd60e51b815260206004820152601660248201527520b1b1b2b9b9b4b136329d1039b0b6b29030b236b4b760511b604482015290519081900360640190fd5b6113d96000805160206129b98339815191528261087e565b6108196000805160206129b9833981519152336108e5565b6000805160206129b983398151915281565b600a5481565b600e546001600160a01b031681565b6000828152601c602052604081206114309083611dc4565b9392505050565b6000828152601c602052604081206114309083611dd0565b6012546001600160a01b031681565b6000806114696120a6565b5050600254600354604080516060810182526004548152600554602082015260065491810191909152600754600854600a546001600160a01b03958616979590941695509193909290565b600c5461010090046001600160a01b031681565b600c54600160a81b900460ff1681565b600081565b6009602052600090815260409020805460018201546002830154600384015460048501546005860154600690960154949593949293919290919060ff1687565b60075481565b6000818152601c6020526040812061085490611de5565b600d546001600160a01b031681565b7ff0887ba65ee2024ea881d91b74c2450ef19e1557f03bed3ea9f16b037cbe2dc981565b6000828152601c602052604090206002015461158b906105d5611645565b61093c5760405162461bcd60e51b81526004018080602001828103825260308152602001806129686030913960400191505060405180910390fd5b6001600160a01b03166000908152600960205260409020805460018201546002830154600384015460048501546005860154600690960154949693959294919390929160ff1690565b601a5481565b60175481565b60185481565b6003546001600160a01b031681565b6000546001600160a01b031681565b60135481565b3390565b6000828152601c602052604090206116619082611df0565b156108e15761166e611645565b6001600160a01b0316816001600160a01b0316837f2f8788117e7eff1d82e926ec794901d17c78024a50270940304540a733656f0d60405160405180910390a45050565b6000828152601c602052604090206116ca9082611e05565b156108e1576116d7611645565b6001600160a01b0316816001600160a01b0316837ff6391f5c32d9c69d2a47ea670b442974b53935d1edc7fd64eb21e047a839171b60405160405180910390a45050565b600061143083836040518060400160405280601a81526020017f536166654d6174683a206469766973696f6e206279207a65726f000000000000815250611e1a565b600082820183811015611430576040805162461bcd60e51b815260206004820152601b60248201527f536166654d6174683a206164646974696f6e206f766572666c6f770000000000604482015290519081900360640190fd5b600061143083836040518060400160405280601e81526020017f536166654d6174683a207375627472616374696f6e206f766572666c6f770000815250611ebc565b60008261180857506000610854565b8282028284828161181557fe5b04146114305760405162461bcd60e51b81526004018080602001828103825260218152602001806129986021913960400191505060405180910390fd5b8315611990576040516370a0823160e01b815284906001600160a01b038816906370a08231906118869030906004016122e5565b60206040518083038186803b15801561189e57600080fd5b505afa1580156118b2573d6000803e3d6000fd5b505050506040513d601f19601f820116820180604052508101906118d691906122ca565b10156118f45760405162461bcd60e51b81526004016102b49061276d565b60405163a9059cbb60e01b81526001600160a01b0387169063a9059cbb9061192290339088906004016122f9565b602060405180830381600087803b15801561193c57600080fd5b505af1158015611950573d6000803e3d6000fd5b505050506040513d601f19601f82011682018060405250810190611974919061215f565b6119905760405162461bcd60e51b81526004016102b490612555565b8215611ace576040516370a0823160e01b815283906001600160a01b038716906370a08231906119c49030906004016122e5565b60206040518083038186803b1580156119dc57600080fd5b505afa1580156119f0573d6000803e3d6000fd5b505050506040513d601f19601f82011682018060405250810190611a1491906122ca565b1015611a325760405162461bcd60e51b81526004016102b4906125cf565b60405163e3b99e8560e01b81526001600160a01b0386169063e3b99e8590611a6090339087906004016122f9565b602060405180830381600087803b158015611a7a57600080fd5b505af1158015611a8e573d6000803e3d6000fd5b505050506040513d601f19601f82011682018060405250810190611ab2919061215f565b611ace5760405162461bcd60e51b81526004016102b490612615565b8115611c12576000546040516370a0823160e01b815283916001600160a01b0316906370a0823190611b049030906004016122e5565b60206040518083038186803b158015611b1c57600080fd5b505afa158015611b30573d6000803e3d6000fd5b505050506040513d601f19601f82011682018060405250810190611b5491906122ca565b1015611b725760405162461bcd60e51b81526004016102b4906126e2565b60005460405163a9059cbb60e01b81526001600160a01b039091169063a9059cbb90611ba490339086906004016122f9565b602060405180830381600087803b158015611bbe57600080fd5b505af1158015611bd2573d6000803e3d6000fd5b505050506040513d601f19601f82011682018060405250810190611bf6919061215f565b611c125760405162461bcd60e51b81526004016102b490612811565b8015611d7657600054604051632474521560e21b81526001600160a01b03909116906391d1485490611c6a907f9667e80708b6eeeb0053fa0cca44e028ff548e2a9f029edfeac87c118b08b7c89030906004016123a5565b60206040518083038186803b158015611c8257600080fd5b505afa158015611c96573d6000803e3d6000fd5b505050506040513d601f19601f82011682018060405250810190611cba919061215f565b611cd65760405162461bcd60e51b81526004016102b490612470565b600054604051632770a7eb60e21b81526001600160a01b0390911690639dc29fac90611d0890309085906004016122f9565b602060405180830381600087803b158015611d2257600080fd5b505af1158015611d36573d6000803e3d6000fd5b505050506040513d601f19601f82011682018060405250810190611d5a919061215f565b611d765760405162461bcd60e51b81526004016102b4906124dc565b336001600160a01b03167ea4a97d76d398f8be81c38f8ae9778e26fcc50f2b7a8f7bc31281304bb1628685858585604051611db49493929190612862565b60405180910390a2505050505050565b60006114308383611f16565b6000611430836001600160a01b038416611f7a565b600061085482611f92565b6000611430836001600160a01b038416611f96565b6000611430836001600160a01b038416611fe0565b60008183611ea65760405162461bcd60e51b81526004018080602001828103825283818151815260200191508051906020019080838360005b83811015611e6b578181015183820152602001611e53565b50505050905090810190601f168015611e985780820380516001836020036101000a031916815260200191505b509250505060405180910390fd5b506000838581611eb257fe5b0495945050505050565b60008184841115611f0e5760405162461bcd60e51b8152602060048201818152835160248401528351909283926044909101919085019080838360008315611e6b578181015183820152602001611e53565b505050900390565b81546000908210611f585760405162461bcd60e51b81526004018080602001828103825260228152602001806128f56022913960400191505060405180910390fd5b826000018281548110611f6757fe5b9060005260206000200154905092915050565b60009081526001919091016020526040902054151590565b5490565b6000611fa28383611f7a565b611fd857508154600181810184556000848152602080822090930184905584548482528286019093526040902091909155610854565b506000610854565b6000818152600183016020526040812054801561209c578354600019808301919081019060009087908390811061201357fe5b906000526020600020015490508087600001848154811061203057fe5b60009182526020808320909101929092558281526001898101909252604090209084019055865487908061206057fe5b60019003818190600052602060002001600090559055866001016000878152602001908152602001600020600090556001945050505050610854565b6000915050610854565b60405180606001604052806003906020820280368337509192915050565b8051610835816128df565b6000602082840312156120e0578081fd5b8135611430816128df565b600080600080600060a08688031215612102578081fd5b855161210d816128df565b602087015190955061211e816128df565b604087015190945061212f816128df565b6060870151909350612140816128df565b6080870151909250612151816128df565b809150509295509295909350565b600060208284031215612170578081fd5b81518015158114611430578182fd5b600060208284031215612190578081fd5b5035919050565b600080604083850312156121a9578182fd5b8235915060208301356121bb816128df565b809150509250929050565b600080604083850312156121d8578182fd5b50508035926020909101359150565b60008060008060008060c087890312156121ff578081fd5b865167ffffffffffffffff80821115612216578283fd5b818901915089601f830112612229578283fd5b81518181111561223557fe5b604051601f8201601f19168101602001838111828210171561225357fe5b6040528181528382016020018c101561226a578485fd5b61227b8260208301602087016128af565b985061228d92505050602088016120c4565b945061229b604088016120c4565b93506122a9606088016120c4565b9250608087015191506122be60a088016120c4565b90509295509295509295565b6000602082840312156122db578081fd5b5051919050565b90565b6001600160a01b0391909116815260200190565b6001600160a01b03929092168252602082015260400190565b6001600160a01b0392831681529116602082015260400190565b6001600160a01b038781168252861660208083019190915261010082019060408301908760005b600381101561237057815184529282019290820190600101612353565b505050508460a08301528360c08301528260e0830152979650505050505050565b901515815260200190565b90815260200190565b9182526001600160a01b0316602082015260400190565b60006020825282518060208401526123db8160408501602087016128af565b601f01601f19169190910160400192915050565b6020808252602a908201527f5374616b65544f4e55706772616465333a2072656d61696e20616d6f756e7420604082015269696e20746f6b616d616b60b01b606082015260800190565b6020808252601e908201527f5374616b65544f4e55706772616465333a20416d6f756e742077726f6e670000604082015260600190565b6020808252601c908201527f5374616b65544f4e55706772616465333a206e6f74206275726e657200000000604082015260600190565b6020808252818101527f5374616b65544f4e55706772616465333a20696e7375666669656e7420455448604082015260600190565b6020808252601f908201527f5374616b65544f4e55706772616465333a20746f73206275726e206661696c00604082015260600190565b60208082526022908201527f5374616b65544f4e55706772616465333a20416c726561647920776974686472604082015261617760f01b606082015260800190565b60208082526023908201527f5374616b65544f4e55706772616465333a207472616e7366657220746f6e2066604082015262185a5b60ea1b606082015260800190565b6020808252601f908201527f5374616b65544f4e55706772616465333a207472616e73666572206661696c00604082015260600190565b60208082526026908201527f5374616b65544f4e55706772616465333a2077746f6e2062616c616e6365206960408201526573206c61636b60d01b606082015260800190565b60208082526024908201527f5374616b65544f4e55706772616465333a207472616e736665722077746f6e2060408201526319985a5b60e21b606082015260800190565b60208082526027908201527f5374616b65544f4e55706772616465333a2049546f6b616d616b5265676973746040820152667279207a65726f60c81b606082015260800190565b60208082526022908201527f5374616b65544f4e55706772616465333a207769746864726177206661696c65604082015261321760f11b606082015260800190565b60208082526025908201527f5374616b65544f4e55706772616465333a20746f732062616c616e6365206973604082015264206c61636b60d81b606082015260800190565b60208082526026908201527f5374616b65544f4e55706772616465333a2066696e616c42616c616e6365206960408201526573206c61636b60d01b606082015260800190565b60208082526025908201527f5374616b65544f4e55706772616465333a20746f6e2062616c616e6365206973604082015264206c61636b60d81b606082015260800190565b60208082526019908201527814dd185ad95513d3955c19dc9859194cce881b9bdd08195b99603a1b604082015260600190565b60208082526012908201527131b0b73737ba1039ba30b5b29022ba3432b960711b604082015260600190565b60208082526023908201527f5374616b65544f4e55706772616465333a207472616e7366657220746f732066604082015262185a5b60ea1b606082015260800190565b918252602082015260400190565b93845260208401929092526040830152606082015260800190565b968752602087019590955260408601939093526060850191909152608084015260a0830152151560c082015260e00190565b60005b838110156128ca5781810151838201526020016128b2565b838111156128d9576000848401525b50505050565b6001600160a01b038116811461081957600080fdfe456e756d657261626c655365743a20696e646578206f7574206f6620626f756e6473416363657373436f6e74726f6c3a2073656e646572206d75737420626520616e2061646d696e20746f206772616e7441636365737369626c653a2043616c6c6572206973206e6f7420616e2061646d696e416363657373436f6e74726f6c3a2073656e646572206d75737420626520616e2061646d696e20746f207265766f6b65536166654d6174683a206d756c7469706c69636174696f6e206f766572666c6f77df8b4c520ffe197c5343c6f5aec59570151ef9a492f2c624fd45ddde6135ec42416363657373436f6e74726f6c3a2063616e206f6e6c792072656e6f756e636520726f6c657320666f722073656c66a2646970667358221220f7ad46a7fd5b1eec3b6662f626a70ae584d78ab11cd91cadf2131458eb362ab964736f6c63430007060033",
  "linkReferences": {},
  "deployedLinkReferences": {}
}