{
  "contractName": "SeigToken",
  "abi": [
    {
      "anonymous": false,
      "inputs": [
        {
          "indexed": true,
          "internalType": "address",
          "name": "owner",
          "type": "address"
        },
        {
          "indexed": true,
          "internalType": "address",
          "name": "spender",
          "type": "address"
        },
        {
          "indexed": false,
          "internalType": "uint256",
          "name": "value",
          "type": "uint256"
        }
      ],
      "name": "Approval",
      "type": "event"
    },
    {
      "anonymous": false,
      "inputs": [
        {
          "indexed": true,
          "internalType": "address",
          "name": "previousOwner",
          "type": "address"
        },
        {
          "indexed": true,
          "internalType": "address",
          "name": "newOwner",
          "type": "address"
        }
      ],
      "name": "OwnershipTransferred",
      "type": "event"
    },
    {
      "anonymous": false,
      "inputs": [
        {
          "indexed": true,
          "internalType": "address",
          "name": "from",
          "type": "address"
        },
        {
          "indexed": true,
          "internalType": "address",
          "name": "to",
          "type": "address"
        },
        {
          "indexed": false,
          "internalType": "uint256",
          "name": "value",
          "type": "uint256"
        }
      ],
      "name": "Transfer",
      "type": "event"
    },
    {
      "constant": true,
      "inputs": [
        {
          "internalType": "address",
          "name": "owner",
          "type": "address"
        },
        {
          "internalType": "address",
          "name": "spender",
          "type": "address"
        }
      ],
      "name": "allowance",
      "outputs": [
        {
          "internalType": "uint256",
          "name": "",
          "type": "uint256"
        }
      ],
      "payable": false,
      "stateMutability": "view",
      "type": "function"
    },
    {
      "constant": false,
      "inputs": [
        {
          "internalType": "address",
          "name": "spender",
          "type": "address"
        },
        {
          "internalType": "uint256",
          "name": "amount",
          "type": "uint256"
        }
      ],
      "name": "approve",
      "outputs": [
        {
          "internalType": "bool",
          "name": "",
          "type": "bool"
        }
      ],
      "payable": false,
      "stateMutability": "nonpayable",
      "type": "function"
    },
    {
      "constant": false,
      "inputs": [
        {
          "internalType": "address",
          "name": "spender",
          "type": "address"
        },
        {
          "internalType": "uint256",
          "name": "amount",
          "type": "uint256"
        },
        {
          "internalType": "bytes",
          "name": "data",
          "type": "bytes"
        }
      ],
      "name": "approveAndCall",
      "outputs": [
        {
          "internalType": "bool",
          "name": "",
          "type": "bool"
        }
      ],
      "payable": false,
      "stateMutability": "nonpayable",
      "type": "function"
    },
    {
      "constant": true,
      "inputs": [
        {
          "internalType": "address",
          "name": "account",
          "type": "address"
        }
      ],
      "name": "balanceOf",
      "outputs": [
        {
          "internalType": "uint256",
          "name": "",
          "type": "uint256"
        }
      ],
      "payable": false,
      "stateMutability": "view",
      "type": "function"
    },
    {
      "constant": true,
      "inputs": [],
      "name": "callbackEnabled",
      "outputs": [
        {
          "internalType": "bool",
          "name": "",
          "type": "bool"
        }
      ],
      "payable": false,
      "stateMutability": "view",
      "type": "function"
    },
    {
      "constant": false,
      "inputs": [
        {
          "internalType": "address",
          "name": "spender",
          "type": "address"
        },
        {
          "internalType": "uint256",
          "name": "subtractedValue",
          "type": "uint256"
        }
      ],
      "name": "decreaseAllowance",
      "outputs": [
        {
          "internalType": "bool",
          "name": "",
          "type": "bool"
        }
      ],
      "payable": false,
      "stateMutability": "nonpayable",
      "type": "function"
    },
    {
      "constant": false,
      "inputs": [
        {
          "internalType": "address",
          "name": "spender",
          "type": "address"
        },
        {
          "internalType": "uint256",
          "name": "addedValue",
          "type": "uint256"
        }
      ],
      "name": "increaseAllowance",
      "outputs": [
        {
          "internalType": "bool",
          "name": "",
          "type": "bool"
        }
      ],
      "payable": false,
      "stateMutability": "nonpayable",
      "type": "function"
    },
    {
      "constant": true,
      "inputs": [],
      "name": "isOwner",
      "outputs": [
        {
          "internalType": "bool",
          "name": "",
          "type": "bool"
        }
      ],
      "payable": false,
      "stateMutability": "view",
      "type": "function"
    },
    {
      "constant": true,
      "inputs": [],
      "name": "owner",
      "outputs": [
        {
          "internalType": "address",
          "name": "",
          "type": "address"
        }
      ],
      "payable": false,
      "stateMutability": "view",
      "type": "function"
    },
    {
      "constant": false,
      "inputs": [
        {
          "internalType": "address",
          "name": "target",
          "type": "address"
        }
      ],
      "name": "renounceMinter",
      "outputs": [],
      "payable": false,
      "stateMutability": "nonpayable",
      "type": "function"
    },
    {
      "constant": false,
      "inputs": [
        {
          "internalType": "address",
          "name": "target",
          "type": "address"
        }
      ],
      "name": "renounceOwnership",
      "outputs": [],
      "payable": false,
      "stateMutability": "nonpayable",
      "type": "function"
    },
    {
      "constant": false,
      "inputs": [],
      "name": "renounceOwnership",
      "outputs": [],
      "payable": false,
      "stateMutability": "nonpayable",
      "type": "function"
    },
    {
      "constant": false,
      "inputs": [
        {
          "internalType": "address",
          "name": "target",
          "type": "address"
        }
      ],
      "name": "renouncePauser",
      "outputs": [],
      "payable": false,
      "stateMutability": "nonpayable",
      "type": "function"
    },
    {
      "constant": true,
      "inputs": [],
      "name": "seigManager",
      "outputs": [
        {
          "internalType": "contract SeigManagerI",
          "name": "",
          "type": "address"
        }
      ],
      "payable": false,
      "stateMutability": "view",
      "type": "function"
    },
    {
      "constant": true,
      "inputs": [],
      "name": "totalSupply",
      "outputs": [
        {
          "internalType": "uint256",
          "name": "",
          "type": "uint256"
        }
      ],
      "payable": false,
      "stateMutability": "view",
      "type": "function"
    },
    {
      "constant": false,
      "inputs": [
        {
          "internalType": "address",
          "name": "recipient",
          "type": "address"
        },
        {
          "internalType": "uint256",
          "name": "amount",
          "type": "uint256"
        }
      ],
      "name": "transfer",
      "outputs": [
        {
          "internalType": "bool",
          "name": "",
          "type": "bool"
        }
      ],
      "payable": false,
      "stateMutability": "nonpayable",
      "type": "function"
    },
    {
      "constant": false,
      "inputs": [
        {
          "internalType": "address",
          "name": "target",
          "type": "address"
        },
        {
          "internalType": "address",
          "name": "newOwner",
          "type": "address"
        }
      ],
      "name": "transferOwnership",
      "outputs": [],
      "payable": false,
      "stateMutability": "nonpayable",
      "type": "function"
    },
    {
      "constant": false,
      "inputs": [
        {
          "internalType": "address",
          "name": "newOwner",
          "type": "address"
        }
      ],
      "name": "transferOwnership",
      "outputs": [],
      "payable": false,
      "stateMutability": "nonpayable",
      "type": "function"
    },
    {
      "constant": false,
      "inputs": [
        {
          "internalType": "bool",
          "name": "_callbackEnabled",
          "type": "bool"
        }
      ],
      "name": "enableCallback",
      "outputs": [],
      "payable": false,
      "stateMutability": "nonpayable",
      "type": "function"
    },
    {
      "constant": false,
      "inputs": [
        {
          "internalType": "contract SeigManagerI",
          "name": "_seigManager",
          "type": "address"
        }
      ],
      "name": "setSeigManager",
      "outputs": [],
      "payable": false,
      "stateMutability": "nonpayable",
      "type": "function"
    },
    {
      "constant": false,
      "inputs": [
        {
          "internalType": "address",
          "name": "sender",
          "type": "address"
        },
        {
          "internalType": "address",
          "name": "recipient",
          "type": "address"
        },
        {
          "internalType": "uint256",
          "name": "amount",
          "type": "uint256"
        }
      ],
      "name": "transferFrom",
      "outputs": [
        {
          "internalType": "bool",
          "name": "",
          "type": "bool"
        }
      ],
      "payable": false,
      "stateMutability": "nonpayable",
      "type": "function"
    }
  ],
  "bytecode": "0x608060405260006100176001600160e01b0361006a16565b600380546001600160a01b0319166001600160a01b038316908117909155604051919250906000907f8be0079c531659141344cd1fd0a4f28419497f9722a3daafe3b4186f6b6457e0908290a35061006e565b3390565b6116018061007d6000396000f3fe608060405234801561001057600080fd5b50600436106101375760003560e01c80636fb7f558116100b85780638f32d59b1161007c5780638f32d59b14610341578063a457c2d714610349578063a9059cbb14610375578063cae9ca51146103a1578063dd62ed3e1461045c578063f2fde38b1461048a57610137565b80636fb7f558146102c157806370a08231146102e5578063715018a61461030b5780637657f20a146103135780638da5cb5b1461033957610137565b806339509351116100ff578063395093511461021357806341eb24bb1461023f5780635f112c6814610265578063633801131461028b5780636d4354211461029357610137565b8063095ea7b31461013c57806318160ddd1461017c57806323b872dd146101965780633113ed5c146101cc57806338bf3cfa146101ed575b600080fd5b6101686004803603604081101561015257600080fd5b506001600160a01b0381351690602001356104b0565b604080519115158252519081900360200190f35b6101846104cd565b60408051918252519081900360200190f35b610168600480360360608110156101ac57600080fd5b506001600160a01b038135811691602081013590911690604001356104d3565b6101eb600480360360208110156101e257600080fd5b503515156104e8565b005b6101eb6004803603602081101561020357600080fd5b50356001600160a01b031661054d565b6101686004803603604081101561022957600080fd5b506001600160a01b0381351690602001356105ea565b6101eb6004803603602081101561025557600080fd5b50356001600160a01b0316610643565b6101eb6004803603602081101561027b57600080fd5b50356001600160a01b03166106c5565b610168610747565b6101eb600480360360408110156102a957600080fd5b506001600160a01b0381358116916020013516610757565b6102c9610812565b604080516001600160a01b039092168252519081900360200190f35b610184600480360360208110156102fb57600080fd5b50356001600160a01b0316610821565b6101eb61083c565b6101eb6004803603602081101561032957600080fd5b50356001600160a01b03166108cd565b6102c9610936565b610168610945565b6101686004803603604081101561035f57600080fd5b506001600160a01b03813516906020013561096b565b6101686004803603604081101561038b57600080fd5b506001600160a01b0381351690602001356109d9565b610168600480360360608110156103b757600080fd5b6001600160a01b03823516916020810135918101906060810160408201356401000000008111156103e757600080fd5b8201836020820111156103f957600080fd5b8035906020019184600183028401116401000000008311171561041b57600080fd5b91908080601f0160208091040260200160405190810160405280939291908181526020018383808284376000920191909152509295506109ed945050505050565b6101846004803603604081101561047257600080fd5b506001600160a01b0381358116916020013516610a60565b6101eb600480360360208110156104a057600080fd5b50356001600160a01b0316610a8b565b60006104c46104bd610ade565b8484610ae2565b50600192915050565b60025490565b60006104e0848484610bce565b949350505050565b6104f0610945565b61052f576040805162461bcd60e51b81526020600482018190526024820152600080516020611517833981519152604482015290519081900360640190fd5b60048054911515600160a01b0260ff60a01b19909216919091179055565b610555610945565b610594576040805162461bcd60e51b81526020600482018190526024820152600080516020611517833981519152604482015290519081900360640190fd5b806001600160a01b031663715018a66040518163ffffffff1660e01b8152600401600060405180830381600087803b1580156105cf57600080fd5b505af11580156105e3573d6000803e3d6000fd5b5050505050565b60006104c46105f7610ade565b8461063e8560016000610608610ade565b6001600160a01b03908116825260208083019390935260409182016000908120918c16815292529020549063ffffffff610c4c16565b610ae2565b61064b610945565b61068a576040805162461bcd60e51b81526020600482018190526024820152600080516020611517833981519152604482015290519081900360640190fd5b806001600160a01b0316636ef8d66d6040518163ffffffff1660e01b8152600401600060405180830381600087803b1580156105cf57600080fd5b6106cd610945565b61070c576040805162461bcd60e51b81526020600482018190526024820152600080516020611517833981519152604482015290519081900360640190fd5b806001600160a01b031663986502756040518163ffffffff1660e01b8152600401600060405180830381600087803b1580156105cf57600080fd5b600454600160a01b900460ff1681565b61075f610945565b61079e576040805162461bcd60e51b81526020600482018190526024820152600080516020611517833981519152604482015290519081900360640190fd5b816001600160a01b031663f2fde38b826040518263ffffffff1660e01b815260040180826001600160a01b03166001600160a01b03168152602001915050600060405180830381600087803b1580156107f657600080fd5b505af115801561080a573d6000803e3d6000fd5b505050505050565b6004546001600160a01b031681565b6001600160a01b031660009081526020819052604090205490565b610844610945565b610883576040805162461bcd60e51b81526020600482018190526024820152600080516020611517833981519152604482015290519081900360640190fd5b6003546040516000916001600160a01b0316907f8be0079c531659141344cd1fd0a4f28419497f9722a3daafe3b4186f6b6457e0908390a3600380546001600160a01b0319169055565b6108d5610945565b610914576040805162461bcd60e51b81526020600482018190526024820152600080516020611517833981519152604482015290519081900360640190fd5b600480546001600160a01b0319166001600160a01b0392909216919091179055565b6003546001600160a01b031690565b6003546000906001600160a01b031661095c610ade565b6001600160a01b031614905090565b60006104c4610978610ade565b8461063e856040518060600160405280602581526020016115a860259139600160006109a2610ade565b6001600160a01b03908116825260208083019390935260409182016000908120918d1681529252902054919063ffffffff610cad16565b60006104c46109e6610ade565b8484610d44565b60006109f984846104b0565b610a4a576040805162461bcd60e51b815260206004820152601c60248201527f45524332304f6e417070726f76653a20617070726f7665206661696c00000000604482015290519081900360640190fd5b610a5633858585610e13565b5060019392505050565b6001600160a01b03918216600090815260016020908152604080832093909416825291909152205490565b610a93610945565b610ad2576040805162461bcd60e51b81526020600482018190526024820152600080516020611517833981519152604482015290519081900360640190fd5b610adb81611085565b50565b3390565b6001600160a01b038316610b275760405162461bcd60e51b815260040180806020018281038252602481526020018061155c6024913960400191505060405180910390fd5b6001600160a01b038216610b6c5760405162461bcd60e51b81526004018080602001828103825260228152602001806114766022913960400191505060405180910390fd5b6001600160a01b03808416600081815260016020908152604080832094871680845294825291829020859055815185815291517f8c5be1e5ebec7d5bd14f71427d1e84f3dd0314c0f7b2291e5b200ac8c7c3b9259281900390910190a3505050565b6000610bdb848484610d44565b610a5684610be7610ade565b61063e856040518060600160405280602881526020016114ef602891396001600160a01b038a16600090815260016020526040812090610c25610ade565b6001600160a01b03168152602081019190915260400160002054919063ffffffff610cad16565b600082820183811015610ca6576040805162461bcd60e51b815260206004820152601b60248201527f536166654d6174683a206164646974696f6e206f766572666c6f770000000000604482015290519081900360640190fd5b9392505050565b60008184841115610d3c5760405162461bcd60e51b81526004018080602001828103825283818151815260200191508051906020019080838360005b83811015610d01578181015183820152602001610ce9565b50505050905090810190601f168015610d2e5780820380516001836020036101000a031916815260200191505b509250505060405180910390fd5b505050900390565b610d4f838383611126565b600454600160a01b900460ff168015610d7257506004546001600160a01b031615155b15610e0e576004805460408051634a39314960e01b81526001600160a01b038781169482019490945285841660248201526044810185905290519290911691634a393149916064808201926020929091908290030181600087803b158015610dd957600080fd5b505af1158015610ded573d6000803e3d6000fd5b505050506040513d6020811015610e0357600080fd5b5051610e0e57600080fd5b505050565b632139e50b60e11b610e258482611282565b610e605760405162461bcd60e51b81526004018080602001828103825260318152602001806114986031913960400191505060405180910390fd5b60006060856001600160a01b0316838888888860405160240180856001600160a01b03166001600160a01b03168152602001846001600160a01b03166001600160a01b0316815260200183815260200180602001828103825283818151815260200191508051906020019080838360005b83811015610ee9578181015183820152602001610ed1565b50505050905090810190601f168015610f165780820380516001836020036101000a031916815260200191505b5060408051601f198184030181529181526020820180516001600160e01b03166001600160e01b0319909a16999099178952518151919890975087965094509250829150849050835b60208310610f7e5780518252601f199092019160209182019101610f5f565b6001836020036101000a0380198251168184511680821785525050505050509050019150506000604051808303816000865af19150503d8060008114610fe0576040519150601f19603f3d011682016040523d82523d6000602084013e610fe5565b606091505b50915091508181906110385760405162461bcd60e51b8152602060048201818152835160248401528351909283926044909101919085019080838360008315610d01578181015183820152602001610ce9565b50602081015191508161107c5760405162461bcd60e51b81526004018080602001828103825260288152602001806115806028913960400191505060405180910390fd5b50505050505050565b6001600160a01b0381166110ca5760405162461bcd60e51b81526004018080602001828103825260268152602001806114506026913960400191505060405180910390fd5b6003546040516001600160a01b038084169216907f8be0079c531659141344cd1fd0a4f28419497f9722a3daafe3b4186f6b6457e090600090a3600380546001600160a01b0319166001600160a01b0392909216919091179055565b6001600160a01b03831661116b5760405162461bcd60e51b81526004018080602001828103825260258152602001806115376025913960400191505060405180910390fd5b6001600160a01b0382166111b05760405162461bcd60e51b815260040180806020018281038252602381526020018061142d6023913960400191505060405180910390fd5b6111f3816040518060600160405280602681526020016114c9602691396001600160a01b038616600090815260208190526040902054919063ffffffff610cad16565b6001600160a01b038085166000908152602081905260408082209390935590841681522054611228908263ffffffff610c4c16565b6001600160a01b038084166000818152602081815260409182902094909455805185815290519193928716927fddf252ad1be2c89b69c2b068fc378daa952ba7f163c4a11628f55a4df523b3ef92918290030190a3505050565b600061128d8361129e565b8015610ca65750610ca683836112d2565b60006112b1826301ffc9a760e01b6112d2565b80156112cc57506112ca826001600160e01b03196112d2565b155b92915050565b60008060006112e185856112f8565b915091508180156112ef5750805b95945050505050565b604080516001600160e01b0319831660248083019190915282518083039091018152604490910182526020810180516001600160e01b03166301ffc9a760e01b1781529151815160009384939284926060926001600160a01b038a169261753092879282918083835b602083106113805780518252601f199092019160209182019101611361565b6001836020036101000a0380198251168184511680821785525050505050509050019150506000604051808303818686fa925050503d80600081146113e1576040519150601f19603f3d011682016040523d82523d6000602084013e6113e6565b606091505b50915091506020815110156114045760008094509450505050611425565b8181806020019051602081101561141a57600080fd5b505190955093505050505b925092905056fe45524332303a207472616e7366657220746f20746865207a65726f20616464726573734f776e61626c653a206e6577206f776e657220697320746865207a65726f206164647265737345524332303a20617070726f766520746f20746865207a65726f206164647265737345524332304f6e417070726f76653a207370656e64657220646f65736e277420737570706f7274206f6e417070726f766545524332303a207472616e7366657220616d6f756e7420657863656564732062616c616e636545524332303a207472616e7366657220616d6f756e74206578636565647320616c6c6f77616e63654f776e61626c653a2063616c6c6572206973206e6f7420746865206f776e657245524332303a207472616e736665722066726f6d20746865207a65726f206164647265737345524332303a20617070726f76652066726f6d20746865207a65726f206164647265737345524332304f6e417070726f76653a206661696c656420746f2063616c6c206f6e417070726f766545524332303a2064656372656173656420616c6c6f77616e63652062656c6f77207a65726fa265627a7a723158206d0c753bcc12b2ccfd19755c20e3bd8ccb1e3fac6c7fbcd4dfb0cfd756ae9da564736f6c634300050c0032",
  "source": "pragma solidity ^0.5.12;\n\nimport { Ownable } from \"../../../node_modules/openzeppelin-solidity/contracts/ownership/Ownable.sol\";\nimport { ERC20 } from \"../../../node_modules/openzeppelin-solidity/contracts/token/ERC20/ERC20.sol\";\n\nimport { SeigManagerI } from \"../interfaces/SeigManagerI.sol\";\n\nimport { ERC165Checker } from \"../../../node_modules/openzeppelin-solidity/contracts/introspection/ERC165Checker.sol\";\n\nimport { ERC20OnApprove } from \"./ERC20OnApprove.sol\";\nimport { AuthController } from \"./AuthController.sol\";\n\ncontract SeigToken is ERC20, Ownable, ERC20OnApprove, AuthController {\n  SeigManagerI public seigManager;\n  bool public callbackEnabled;\n\n  function enableCallback(bool _callbackEnabled) external onlyOwner {\n    callbackEnabled = _callbackEnabled;\n  }\n\n  function setSeigManager(SeigManagerI _seigManager) external onlyOwner {\n    seigManager = _seigManager;\n  }\n\n  //////////////////////\n  // Override ERC20 functions\n  //////////////////////\n\n  function transferFrom(address sender, address recipient, uint256 amount) public returns (bool) {\n    return super.transferFrom(sender, recipient, amount);\n  }\n\n  function _transfer(address sender, address recipient, uint256 amount) internal {\n    super._transfer(sender, recipient, amount);\n    if (callbackEnabled && address(seigManager) != address(0)) {\n      require(seigManager.onTransfer(sender, recipient, amount));\n    }\n  }\n\n  function _mint(address account, uint256 amount) internal {\n    super._mint(account, amount);\n    if (callbackEnabled && address(seigManager) != address(0)) {\n      require(seigManager.onTransfer(address(0), account, amount));\n    }\n  }\n\n  function _burn(address account, uint256 amount) internal {\n    super._burn(account, amount);\n    if (callbackEnabled && address(seigManager) != address(0)) {\n      require(seigManager.onTransfer(account, address(0), amount));\n    }\n  }\n}\n",
  "sourcePath": "/Users/zena/ico2.0/ico20-contracts/plasma-evm-contracts/contracts/stake/tokens/SeigToken.sol",
  "compiler": {
    "name": "solc",
    "version": "0.5.12+commit.7709ece9.Emscripten.clang"
  },
  "schemaVersion": "3.3.4",
  "updatedAt": "2021-05-03T14:05:02.587Z",
  "devdoc": {
    "methods": {
      "allowance(address,address)": {
        "details": "See {IERC20-allowance}."
      },
      "approve(address,uint256)": {
        "details": "See {IERC20-approve}.     * Requirements:     * - `spender` cannot be the zero address."
      },
      "balanceOf(address)": {
        "details": "See {IERC20-balanceOf}."
      },
      "decreaseAllowance(address,uint256)": {
        "details": "Atomically decreases the allowance granted to `spender` by the caller.     * This is an alternative to {approve} that can be used as a mitigation for problems described in {IERC20-approve}.     * Emits an {Approval} event indicating the updated allowance.     * Requirements:     * - `spender` cannot be the zero address. - `spender` must have allowance for the caller of at least `subtractedValue`."
      },
      "increaseAllowance(address,uint256)": {
        "details": "Atomically increases the allowance granted to `spender` by the caller.     * This is an alternative to {approve} that can be used as a mitigation for problems described in {IERC20-approve}.     * Emits an {Approval} event indicating the updated allowance.     * Requirements:     * - `spender` cannot be the zero address."
      },
      "isOwner()": {
        "details": "Returns true if the caller is the current owner."
      },
      "owner()": {
        "details": "Returns the address of the current owner."
      },
      "renounceOwnership()": {
        "details": "Leaves the contract without owner. It will not be possible to call `onlyOwner` functions anymore. Can only be called by the current owner.     * NOTE: Renouncing ownership will leave the contract without an owner, thereby removing any functionality that is only available to the owner."
      },
      "totalSupply()": {
        "details": "See {IERC20-totalSupply}."
      },
      "transfer(address,uint256)": {
        "details": "See {IERC20-transfer}.     * Requirements:     * - `recipient` cannot be the zero address. - the caller must have a balance of at least `amount`."
      },
      "transferOwnership(address)": {
        "details": "Transfers ownership of the contract to a new account (`newOwner`). Can only be called by the current owner."
      }
    }
  },
  "userdoc": {
    "methods": {
      "transferFrom(address,address,uint256)": {
        "notice": "///////////////////"
      }
    }
  }
}