{
  "contractName": "StakeTONModified",
  "abi": [
    {
      "inputs": [],
      "stateMutability": "nonpayable",
      "type": "constructor"
    },
    {
      "anonymous": false,
      "inputs": [
        {
          "indexed": true,
          "internalType": "address",
          "name": "to",
          "type": "address"
        },
        {
          "indexed": false,
          "internalType": "uint256",
          "name": "amount",
          "type": "uint256"
        },
        {
          "indexed": false,
          "internalType": "uint256",
          "name": "currentBlcok",
          "type": "uint256"
        }
      ],
      "name": "Claimed",
      "type": "event"
    },
    {
      "anonymous": false,
      "inputs": [
        {
          "indexed": true,
          "internalType": "bytes32",
          "name": "role",
          "type": "bytes32"
        },
        {
          "indexed": true,
          "internalType": "bytes32",
          "name": "previousAdminRole",
          "type": "bytes32"
        },
        {
          "indexed": true,
          "internalType": "bytes32",
          "name": "newAdminRole",
          "type": "bytes32"
        }
      ],
      "name": "RoleAdminChanged",
      "type": "event"
    },
    {
      "anonymous": false,
      "inputs": [
        {
          "indexed": true,
          "internalType": "bytes32",
          "name": "role",
          "type": "bytes32"
        },
        {
          "indexed": true,
          "internalType": "address",
          "name": "account",
          "type": "address"
        },
        {
          "indexed": true,
          "internalType": "address",
          "name": "sender",
          "type": "address"
        }
      ],
      "name": "RoleGranted",
      "type": "event"
    },
    {
      "anonymous": false,
      "inputs": [
        {
          "indexed": true,
          "internalType": "bytes32",
          "name": "role",
          "type": "bytes32"
        },
        {
          "indexed": true,
          "internalType": "address",
          "name": "account",
          "type": "address"
        },
        {
          "indexed": true,
          "internalType": "address",
          "name": "sender",
          "type": "address"
        }
      ],
      "name": "RoleRevoked",
      "type": "event"
    },
    {
      "anonymous": false,
      "inputs": [
        {
          "indexed": false,
          "internalType": "address",
          "name": "registry",
          "type": "address"
        },
        {
          "indexed": false,
          "internalType": "address",
          "name": "defiAddr",
          "type": "address"
        }
      ],
      "name": "SetRegistryNDefi",
      "type": "event"
    },
    {
      "anonymous": false,
      "inputs": [
        {
          "indexed": false,
          "internalType": "address",
          "name": "layer2",
          "type": "address"
        }
      ],
      "name": "SetTokamakLayer2",
      "type": "event"
    },
    {
      "anonymous": false,
      "inputs": [
        {
          "indexed": false,
          "internalType": "address",
          "name": "router",
          "type": "address"
        }
      ],
      "name": "SetUniswapRouter",
      "type": "event"
    },
    {
      "anonymous": false,
      "inputs": [
        {
          "indexed": true,
          "internalType": "address",
          "name": "to",
          "type": "address"
        },
        {
          "indexed": false,
          "internalType": "uint256",
          "name": "amount",
          "type": "uint256"
        }
      ],
      "name": "Staked",
      "type": "event"
    },
    {
      "anonymous": false,
      "inputs": [
        {
          "indexed": true,
          "internalType": "address",
          "name": "to",
          "type": "address"
        },
        {
          "indexed": false,
          "internalType": "uint256",
          "name": "amount",
          "type": "uint256"
        }
      ],
      "name": "Withdrawal",
      "type": "event"
    },
    {
      "anonymous": false,
      "inputs": [
        {
          "indexed": false,
          "internalType": "address",
          "name": "layer2",
          "type": "address"
        },
        {
          "indexed": false,
          "internalType": "uint256",
          "name": "rn",
          "type": "uint256"
        },
        {
          "indexed": false,
          "internalType": "bool",
          "name": "receiveTON",
          "type": "bool"
        }
      ],
      "name": "tokamakProcessedUnStaking",
      "type": "event"
    },
    {
      "anonymous": false,
      "inputs": [
        {
          "indexed": false,
          "internalType": "address",
          "name": "layer2",
          "type": "address"
        },
        {
          "indexed": false,
          "internalType": "uint256",
          "name": "amount",
          "type": "uint256"
        }
      ],
      "name": "tokamakRequestedUnStaking",
      "type": "event"
    },
    {
      "anonymous": false,
      "inputs": [
        {
          "indexed": false,
          "internalType": "address",
          "name": "layer2",
          "type": "address"
        },
        {
          "indexed": false,
          "internalType": "uint256",
          "name": "amount",
          "type": "uint256"
        }
      ],
      "name": "tokamakStaked",
      "type": "event"
    },
    {
      "inputs": [],
      "name": "ADMIN_ROLE",
      "outputs": [
        {
          "internalType": "bytes32",
          "name": "",
          "type": "bytes32"
        }
      ],
      "stateMutability": "view",
      "type": "function"
    },
    {
      "inputs": [],
      "name": "DEFAULT_ADMIN_ROLE",
      "outputs": [
        {
          "internalType": "bytes32",
          "name": "",
          "type": "bytes32"
        }
      ],
      "stateMutability": "view",
      "type": "function"
    },
    {
      "inputs": [
        {
          "internalType": "uint256",
          "name": "amount",
          "type": "uint256"
        }
      ],
      "name": "approveUniswapRouter",
      "outputs": [],
      "stateMutability": "nonpayable",
      "type": "function"
    },
    {
      "inputs": [],
      "name": "defiStatus",
      "outputs": [
        {
          "internalType": "uint256",
          "name": "",
          "type": "uint256"
        }
      ],
      "stateMutability": "view",
      "type": "function"
    },
    {
      "inputs": [],
      "name": "endBlock",
      "outputs": [
        {
          "internalType": "uint256",
          "name": "",
          "type": "uint256"
        }
      ],
      "stateMutability": "view",
      "type": "function"
    },
    {
      "inputs": [],
      "name": "fromTokamak",
      "outputs": [
        {
          "internalType": "uint256",
          "name": "",
          "type": "uint256"
        }
      ],
      "stateMutability": "view",
      "type": "function"
    },
    {
      "inputs": [
        {
          "internalType": "bytes32",
          "name": "role",
          "type": "bytes32"
        }
      ],
      "name": "getRoleAdmin",
      "outputs": [
        {
          "internalType": "bytes32",
          "name": "",
          "type": "bytes32"
        }
      ],
      "stateMutability": "view",
      "type": "function"
    },
    {
      "inputs": [
        {
          "internalType": "bytes32",
          "name": "role",
          "type": "bytes32"
        },
        {
          "internalType": "uint256",
          "name": "index",
          "type": "uint256"
        }
      ],
      "name": "getRoleMember",
      "outputs": [
        {
          "internalType": "address",
          "name": "",
          "type": "address"
        }
      ],
      "stateMutability": "view",
      "type": "function"
    },
    {
      "inputs": [
        {
          "internalType": "bytes32",
          "name": "role",
          "type": "bytes32"
        }
      ],
      "name": "getRoleMemberCount",
      "outputs": [
        {
          "internalType": "uint256",
          "name": "",
          "type": "uint256"
        }
      ],
      "stateMutability": "view",
      "type": "function"
    },
    {
      "inputs": [
        {
          "internalType": "bytes32",
          "name": "role",
          "type": "bytes32"
        },
        {
          "internalType": "address",
          "name": "account",
          "type": "address"
        }
      ],
      "name": "grantRole",
      "outputs": [],
      "stateMutability": "nonpayable",
      "type": "function"
    },
    {
      "inputs": [
        {
          "internalType": "bytes32",
          "name": "role",
          "type": "bytes32"
        },
        {
          "internalType": "address",
          "name": "account",
          "type": "address"
        }
      ],
      "name": "hasRole",
      "outputs": [
        {
          "internalType": "bool",
          "name": "",
          "type": "bool"
        }
      ],
      "stateMutability": "view",
      "type": "function"
    },
    {
      "inputs": [],
      "name": "paytoken",
      "outputs": [
        {
          "internalType": "address",
          "name": "",
          "type": "address"
        }
      ],
      "stateMutability": "view",
      "type": "function"
    },
    {
      "inputs": [
        {
          "internalType": "bytes32",
          "name": "role",
          "type": "bytes32"
        },
        {
          "internalType": "address",
          "name": "account",
          "type": "address"
        }
      ],
      "name": "renounceRole",
      "outputs": [],
      "stateMutability": "nonpayable",
      "type": "function"
    },
    {
      "inputs": [],
      "name": "requestNum",
      "outputs": [
        {
          "internalType": "uint256",
          "name": "",
          "type": "uint256"
        }
      ],
      "stateMutability": "view",
      "type": "function"
    },
    {
      "inputs": [
        {
          "internalType": "bytes32",
          "name": "role",
          "type": "bytes32"
        },
        {
          "internalType": "address",
          "name": "account",
          "type": "address"
        }
      ],
      "name": "revokeRole",
      "outputs": [],
      "stateMutability": "nonpayable",
      "type": "function"
    },
    {
      "inputs": [],
      "name": "rewardClaimedTotal",
      "outputs": [
        {
          "internalType": "uint256",
          "name": "",
          "type": "uint256"
        }
      ],
      "stateMutability": "view",
      "type": "function"
    },
    {
      "inputs": [],
      "name": "saleStartBlock",
      "outputs": [
        {
          "internalType": "uint256",
          "name": "",
          "type": "uint256"
        }
      ],
      "stateMutability": "view",
      "type": "function"
    },
    {
      "inputs": [
        {
          "internalType": "address",
          "name": "_registry",
          "type": "address"
        },
        {
          "internalType": "address",
          "name": "_defiAddr",
          "type": "address"
        }
      ],
      "name": "setRegistryNDefi",
      "outputs": [],
      "stateMutability": "nonpayable",
      "type": "function"
    },
    {
      "inputs": [
        {
          "internalType": "address",
          "name": "_layer2",
          "type": "address"
        }
      ],
      "name": "setTokamakLayer2",
      "outputs": [],
      "stateMutability": "nonpayable",
      "type": "function"
    },
    {
      "inputs": [
        {
          "internalType": "address",
          "name": "_router",
          "type": "address"
        }
      ],
      "name": "setUniswapRouter",
      "outputs": [],
      "stateMutability": "nonpayable",
      "type": "function"
    },
    {
      "inputs": [],
      "name": "stakeRegistry",
      "outputs": [
        {
          "internalType": "address",
          "name": "",
          "type": "address"
        }
      ],
      "stateMutability": "view",
      "type": "function"
    },
    {
      "inputs": [],
      "name": "startBlock",
      "outputs": [
        {
          "internalType": "uint256",
          "name": "",
          "type": "uint256"
        }
      ],
      "stateMutability": "view",
      "type": "function"
    },
    {
      "inputs": [],
      "name": "swappedAmountFLD",
      "outputs": [
        {
          "internalType": "uint256",
          "name": "",
          "type": "uint256"
        }
      ],
      "stateMutability": "view",
      "type": "function"
    },
    {
      "inputs": [],
      "name": "toTokamak",
      "outputs": [
        {
          "internalType": "uint256",
          "name": "",
          "type": "uint256"
        }
      ],
      "stateMutability": "view",
      "type": "function"
    },
    {
      "inputs": [],
      "name": "toUniswapTON",
      "outputs": [
        {
          "internalType": "uint256",
          "name": "",
          "type": "uint256"
        }
      ],
      "stateMutability": "view",
      "type": "function"
    },
    {
      "inputs": [],
      "name": "tokamakLayer2",
      "outputs": [
        {
          "internalType": "address",
          "name": "",
          "type": "address"
        }
      ],
      "stateMutability": "view",
      "type": "function"
    },
    {
      "inputs": [
        {
          "internalType": "address",
          "name": "_layer2",
          "type": "address"
        },
        {
          "internalType": "bool",
          "name": "receiveTON",
          "type": "bool"
        }
      ],
      "name": "tokamakProcessUnStaking",
      "outputs": [],
      "stateMutability": "nonpayable",
      "type": "function"
    },
    {
      "inputs": [
        {
          "internalType": "address",
          "name": "_layer2",
          "type": "address"
        },
        {
          "internalType": "uint256",
          "name": "unstakingAmount",
          "type": "uint256"
        }
      ],
      "name": "tokamakRequestUnStaking",
      "outputs": [],
      "stateMutability": "nonpayable",
      "type": "function"
    },
    {
      "inputs": [
        {
          "internalType": "address",
          "name": "_layer2",
          "type": "address"
        }
      ],
      "name": "tokamakStaking",
      "outputs": [],
      "stateMutability": "nonpayable",
      "type": "function"
    },
    {
      "inputs": [],
      "name": "token",
      "outputs": [
        {
          "internalType": "address",
          "name": "",
          "type": "address"
        }
      ],
      "stateMutability": "view",
      "type": "function"
    },
    {
      "inputs": [],
      "name": "totalStakedAmount",
      "outputs": [
        {
          "internalType": "uint256",
          "name": "",
          "type": "uint256"
        }
      ],
      "stateMutability": "view",
      "type": "function"
    },
    {
      "inputs": [],
      "name": "totalStakers",
      "outputs": [
        {
          "internalType": "uint256",
          "name": "",
          "type": "uint256"
        }
      ],
      "stateMutability": "view",
      "type": "function"
    },
    {
      "inputs": [],
      "name": "uniswapRouter",
      "outputs": [
        {
          "internalType": "address",
          "name": "",
          "type": "address"
        }
      ],
      "stateMutability": "view",
      "type": "function"
    },
    {
      "inputs": [
        {
          "internalType": "address",
          "name": "",
          "type": "address"
        }
      ],
      "name": "userStaked",
      "outputs": [
        {
          "internalType": "uint256",
          "name": "amount",
          "type": "uint256"
        },
        {
          "internalType": "uint256",
          "name": "claimedBlock",
          "type": "uint256"
        },
        {
          "internalType": "uint256",
          "name": "claimedAmount",
          "type": "uint256"
        },
        {
          "internalType": "uint256",
          "name": "releasedBlock",
          "type": "uint256"
        },
        {
          "internalType": "uint256",
          "name": "releasedAmount",
          "type": "uint256"
        },
        {
          "internalType": "uint256",
          "name": "releasedFLDAmount",
          "type": "uint256"
        },
        {
          "internalType": "bool",
          "name": "released",
          "type": "bool"
        }
      ],
      "stateMutability": "view",
      "type": "function"
    },
    {
      "inputs": [],
      "name": "vault",
      "outputs": [
        {
          "internalType": "address",
          "name": "",
          "type": "address"
        }
      ],
      "stateMutability": "view",
      "type": "function"
    },
    {
      "stateMutability": "payable",
      "type": "receive"
    },
    {
      "inputs": [
        {
          "internalType": "address",
          "name": "_token",
          "type": "address"
        },
        {
          "internalType": "address",
          "name": "_paytoken",
          "type": "address"
        },
        {
          "internalType": "address",
          "name": "_vault",
          "type": "address"
        },
        {
          "internalType": "uint256",
          "name": "_saleStartBlock",
          "type": "uint256"
        },
        {
          "internalType": "uint256",
          "name": "_startBlock",
          "type": "uint256"
        },
        {
          "internalType": "uint256",
          "name": "_period",
          "type": "uint256"
        }
      ],
      "name": "initialize",
      "outputs": [],
      "stateMutability": "nonpayable",
      "type": "function"
    },
    {
      "inputs": [
        {
          "internalType": "uint256",
          "name": "amount",
          "type": "uint256"
        }
      ],
      "name": "stake",
      "outputs": [],
      "stateMutability": "payable",
      "type": "function"
    },
    {
      "inputs": [],
      "name": "withdraw",
      "outputs": [],
      "stateMutability": "nonpayable",
      "type": "function"
    },
    {
      "inputs": [],
      "name": "claim",
      "outputs": [],
      "stateMutability": "nonpayable",
      "type": "function"
    },
    {
      "inputs": [
        {
          "internalType": "address",
          "name": "account",
          "type": "address"
        }
      ],
      "name": "canRewardAmount",
      "outputs": [
        {
          "internalType": "uint256",
          "name": "",
          "type": "uint256"
        }
      ],
      "stateMutability": "view",
      "type": "function"
    },
    {
      "inputs": [
        {
          "internalType": "address",
          "name": "tokenA",
          "type": "address"
        },
        {
          "internalType": "address",
          "name": "tokenB",
          "type": "address"
        },
        {
          "internalType": "uint256",
          "name": "amountADesired",
          "type": "uint256"
        },
        {
          "internalType": "uint256",
          "name": "amountBDesired",
          "type": "uint256"
        },
        {
          "internalType": "uint256",
          "name": "amountAMin",
          "type": "uint256"
        },
        {
          "internalType": "uint256",
          "name": "amountBMin",
          "type": "uint256"
        },
        {
          "internalType": "address",
          "name": "to",
          "type": "address"
        },
        {
          "internalType": "uint256",
          "name": "deadline",
          "type": "uint256"
        }
      ],
      "name": "addLiquidity",
      "outputs": [
        {
          "internalType": "uint256",
          "name": "amountA",
          "type": "uint256"
        },
        {
          "internalType": "uint256",
          "name": "amountB",
          "type": "uint256"
        },
        {
          "internalType": "uint256",
          "name": "liquidity",
          "type": "uint256"
        }
      ],
      "stateMutability": "nonpayable",
      "type": "function"
    },
    {
      "inputs": [
        {
          "internalType": "address",
          "name": "tokenA",
          "type": "address"
        },
        {
          "internalType": "address",
          "name": "tokenB",
          "type": "address"
        },
        {
          "internalType": "uint256",
          "name": "liquidity",
          "type": "uint256"
        },
        {
          "internalType": "uint256",
          "name": "amountAMin",
          "type": "uint256"
        },
        {
          "internalType": "uint256",
          "name": "amountBMin",
          "type": "uint256"
        },
        {
          "internalType": "address",
          "name": "to",
          "type": "address"
        },
        {
          "internalType": "uint256",
          "name": "deadline",
          "type": "uint256"
        }
      ],
      "name": "removeLiquidity",
      "outputs": [
        {
          "internalType": "uint256",
          "name": "amountA",
          "type": "uint256"
        },
        {
          "internalType": "uint256",
          "name": "amountB",
          "type": "uint256"
        }
      ],
      "stateMutability": "nonpayable",
      "type": "function"
    },
    {
      "inputs": [
        {
          "internalType": "uint256",
          "name": "amountIn",
          "type": "uint256"
        },
        {
          "internalType": "uint256",
          "name": "amountOutMin",
          "type": "uint256"
        },
        {
          "internalType": "address[]",
          "name": "path",
          "type": "address[]"
        },
        {
          "internalType": "address",
          "name": "to",
          "type": "address"
        },
        {
          "internalType": "uint256",
          "name": "deadline",
          "type": "uint256"
        }
      ],
      "name": "swapExactTokensForTokens",
      "outputs": [
        {
          "internalType": "uint256[]",
          "name": "amounts",
          "type": "uint256[]"
        }
      ],
      "stateMutability": "nonpayable",
      "type": "function"
    },
    {
      "inputs": [
        {
          "internalType": "uint256",
          "name": "amountOut",
          "type": "uint256"
        },
        {
          "internalType": "uint256",
          "name": "amountInMax",
          "type": "uint256"
        },
        {
          "internalType": "address[]",
          "name": "path",
          "type": "address[]"
        },
        {
          "internalType": "address",
          "name": "to",
          "type": "address"
        },
        {
          "internalType": "uint256",
          "name": "deadline",
          "type": "uint256"
        }
      ],
      "name": "swapTokensForExactTokens",
      "outputs": [
        {
          "internalType": "uint256[]",
          "name": "amounts",
          "type": "uint256[]"
        }
      ],
      "stateMutability": "nonpayable",
      "type": "function"
    }
  ],
  "bytecode": "0x60806040523480156200001157600080fd5b506200002d60008051602062003c23833981519152806200004e565b6200004860008051602062003c2383398151915233620000a0565b620001b6565b600082815260146020526040808220600201549051839285917fbd79b86ffe0ab8e8776151514217cd7cacd52c909f66475c3af44e129f0b00ff9190a460009182526014602052604090912060020155565b620000ac8282620000b0565b5050565b6000828152601460209081526040909120620000d7918390620035fc6200012b821b17901c565b15620000ac57620000e76200014b565b6001600160a01b0316816001600160a01b0316837f2f8788117e7eff1d82e926ec794901d17c78024a50270940304540a733656f0d60405160405180910390a45050565b600062000142836001600160a01b0384166200014f565b90505b92915050565b3390565b60006200015d83836200019e565b620001955750815460018181018455600084815260208082209093018490558454848252828601909352604090209190915562000145565b50600062000145565b60009081526001919091016020526040902054151590565b613a5d80620001c66000396000f3fe60806040526004361061026b5760003560e01c80638caae1e311610144578063bea9849e116100b6578063e09974b91161007a578063e09974b9146109df578063e8e33700146109f4578063fa3733d614610a74578063fbfa77cf14610aaf578063fc0c546a14610ac4578063fd7fa46014610ad95761027b565b8063bea9849e146108d5578063ca15c87314610908578063cb3e0dfa14610932578063ce681ce61461096d578063d547741f146109a65761027b565b8063a694fc3a11610108578063a694fc3a14610778578063a6e8670e14610795578063a938a605146107c8578063acc3a939146107dd578063b2d4d6a31461084a578063baa2abde1461085f5761027b565b80638caae1e31461069e5780639010d07c146106d157806391d148541461070157806392ea3b4c1461074e578063a217fddf146107635761027b565b806348cd4cb1116101dd57806372285326116101a1578063722853261461055f578063728cdbca14610574578063735de9f7146105c957806375b238fc146105de57806386989038146105f35780638803dbee146106085761027b565b806348cd4cb1146104d85780634e71d92d146104ed578063567e98f914610502578063610b066314610517578063683048351461054a5761027b565b80632f2ff15d1161022f5780632f2ff15d1461031057806336568abe1461034957806338ed1739146103825780633ccfd60b146104685780633cdcdbe71461047d57806343b0934a146104a75761027b565b8063083c6323146102805780630ac8e0f3146102a757806320027275146102bc578063248a9ca3146102d15780632e0fac6b146102fb5761027b565b3661027b5761027934610aee565b005b600080fd5b34801561028c57600080fd5b50610295610b3b565b60408051918252519081900360200190f35b3480156102b357600080fd5b50610295610b41565b3480156102c857600080fd5b50610295610b47565b3480156102dd57600080fd5b50610295600480360360208110156102f457600080fd5b5035610b4d565b34801561030757600080fd5b50610295610b62565b34801561031c57600080fd5b506102796004803603604081101561033357600080fd5b50803590602001356001600160a01b0316610b68565b34801561035557600080fd5b506102796004803603604081101561036c57600080fd5b50803590602001356001600160a01b0316610bd4565b34801561038e57600080fd5b50610418600480360360a08110156103a557600080fd5b813591602081013591810190606081016040820135600160201b8111156103cb57600080fd5b8201836020820111156103dd57600080fd5b803590602001918460208302840111600160201b831117156103fe57600080fd5b91935091506001600160a01b038135169060200135610c35565b60408051602080825283518183015283519192839290830191858101910280838360005b8381101561045457818101518382015260200161043c565b505050509050019250505060405180910390f35b34801561047457600080fd5b50610279610dfd565b34801561048957600080fd5b50610279600480360360208110156104a057600080fd5b503561139f565b3480156104b357600080fd5b506104bc611478565b604080516001600160a01b039092168252519081900360200190f35b3480156104e457600080fd5b50610295611487565b3480156104f957600080fd5b5061027961148d565b34801561050e57600080fd5b506102956117d5565b34801561052357600080fd5b506102956004803603602081101561053a57600080fd5b50356001600160a01b03166117db565b34801561055657600080fd5b506104bc611b65565b34801561056b57600080fd5b50610295611b74565b34801561058057600080fd5b50610279600480360360c081101561059757600080fd5b506001600160a01b03813581169160208101358216916040820135169060608101359060808101359060a00135611b7a565b3480156105d557600080fd5b506104bc611c84565b3480156105ea57600080fd5b50610295611c93565b3480156105ff57600080fd5b50610295611ca5565b34801561061457600080fd5b50610418600480360360a081101561062b57600080fd5b813591602081013591810190606081016040820135600160201b81111561065157600080fd5b82018360208201111561066357600080fd5b803590602001918460208302840111600160201b8311171561068457600080fd5b91935091506001600160a01b038135169060200135611cab565b3480156106aa57600080fd5b50610279600480360360208110156106c157600080fd5b50356001600160a01b0316611da0565b3480156106dd57600080fd5b506104bc600480360360408110156106f457600080fd5b508035906020013561256a565b34801561070d57600080fd5b5061073a6004803603604081101561072457600080fd5b50803590602001356001600160a01b0316612589565b604080519115158252519081900360200190f35b34801561075a57600080fd5b506104bc6125a1565b34801561076f57600080fd5b506102956125b0565b6102796004803603602081101561078e57600080fd5b5035610aee565b3480156107a157600080fd5b50610279600480360360208110156107b857600080fd5b50356001600160a01b03166125b5565b3480156107d457600080fd5b506102956126c9565b3480156107e957600080fd5b506108106004803603602081101561080057600080fd5b50356001600160a01b03166126cf565b604080519788526020880196909652868601949094526060860192909252608085015260a0840152151560c0830152519081900360e00190f35b34801561085657600080fd5b5061029561270f565b34801561086b57600080fd5b506108bc600480360360e081101561088257600080fd5b506001600160a01b038135811691602081013582169160408201359160608101359160808201359160a08101359091169060c00135612715565b6040805192835260208301919091528051918290030190f35b3480156108e157600080fd5b50610279600480360360208110156108f857600080fd5b50356001600160a01b0316612825565b34801561091457600080fd5b506102956004803603602081101561092b57600080fd5b5035612987565b34801561093e57600080fd5b506102796004803603604081101561095557600080fd5b506001600160a01b038135811691602001351661299e565b34801561097957600080fd5b506102796004803603604081101561099057600080fd5b506001600160a01b038135169060200135612aab565b3480156109b257600080fd5b50610279600480360360408110156109c957600080fd5b50803590602001356001600160a01b0316612f2b565b3480156109eb57600080fd5b50610295612f84565b348015610a0057600080fd5b50610a566004803603610100811015610a1857600080fd5b506001600160a01b038135811691602081013582169160408201359160608101359160808201359160a08101359160c0820135169060e00135612f8a565b60408051938452602084019290925282820152519081900360600190f35b348015610a8057600080fd5b5061027960048036036040811015610a9757600080fd5b506001600160a01b03813516906020013515156130af565b348015610abb57600080fd5b506104bc6135d8565b348015610ad057600080fd5b506104bc6135e7565b348015610ae557600080fd5b506102956135f6565b6040805162461bcd60e51b815260206004820152601760248201527f46756e6374696f6e2063616e6e6f742062652075736564000000000000000000604482015290519081900360640190fd5b60055481565b600f5481565b60035481565b60009081526014602052604090206002015490565b60105481565b600082815260146020526040902060020154610b8b90610b86613611565b612589565b610bc65760405162461bcd60e51b815260040180806020018281038252602f815260200180613935602f913960400191505060405180910390fd5b610bd08282613615565b5050565b610bdc613611565b6001600160a01b0316816001600160a01b031614610c2b5760405162461bcd60e51b815260040180806020018281038252602f8152602001806139f9602f913960400191505060405180910390fd5b610bd0828261367e565b6060610c4f6000805160206139b483398151915233612589565b610c8a5760405162461bcd60e51b81526004018080602001828103825260258152602001806139d46025913960400191505060405180910390fd5b600d546040516338ed173960e01b815260048101898152602482018990526001600160a01b0386811660648401526084830186905260a06044840190815260a484018990529316926338ed1739928b928b928b928b928b928b9260c401866020870280828437600081840152601f19601f820116905080830192505050975050505050505050600060405180830381600087803b158015610d2a57600080fd5b505af1158015610d3e573d6000803e3d6000fd5b505050506040513d6000823e601f3d908101601f191682016040526020811015610d6757600080fd5b8101908080516040519392919084600160201b821115610d8657600080fd5b908301906020820185811115610d9b57600080fd5b82518660208202830111600160201b82111715610db757600080fd5b82525081516020918201928201910280838360005b83811015610de4578181015183820152602001610dcc565b5050505090500160405250505090509695505050505050565b6000600554118015610e10575043600554105b610e4b576040805162461bcd60e51b81526020600482015260076024820152661b9bdd08195b9960ca1b604482015290519081900360640190fd5b600080600080600b60009054906101000a90046001600160a01b03166001600160a01b031663a782ebd56040518163ffffffff1660e01b815260040160806040518083038186803b158015610e9f57600080fd5b505afa158015610eb3573d6000803e3d6000fd5b505050506040513d6080811015610ec957600080fd5b50805160208201516040830151606090930151919650945090925090506001600160a01b03841615801590610f0657506001600160a01b03831615155b8015610f1a57506001600160a01b03821615155b8015610f2e57506001600160a01b03811615155b610f77576040805162461bcd60e51b815260206004820152601560248201527449546f6b616d616b5265676973747279207a65726f60581b604482015290519081900360640190fd5b600c546001600160a01b0316156110e157600c54604080516367265c3b60e11b81526001600160a01b03928316600482015230602482015290519183169163ce4cb87691604480820192602092909190829003018186803b158015610fdb57600080fd5b505afa158015610fef573d6000803e3d6000fd5b505050506040513d602081101561100557600080fd5b50511580156110905750600c5460408051632638fdf560e01b81526001600160a01b039283166004820152306024820152905191841691632638fdf591604480820192602092909190829003018186803b15801561106257600080fd5b505afa158015611076573d6000803e3d6000fd5b505050506040513d602081101561108c57600080fd5b5051155b6110e1576040805162461bcd60e51b815260206004820152601860248201527f72656d61696e20616d6f756e7420696e20746f6b616d616b0000000000000000604482015290519081900360640190fd5b33600090815260086020526040902080546001546001600160a01b03166111505781546004830154111561114b576040805162461bcd60e51b815260206004820152600c60248201526b416d6f756e742077726f6e6760a01b604482015290519081900360640190fd5b611189565b6001546001600160a01b0387811691161415611189576007548254600f54633b9aca009004600e546007540301028161118557fe5b0490505b600081116111cd576040805162461bcd60e51b815260206004820152600c60248201526b416d6f756e742077726f6e6760a01b604482015290519081900360640190fd5b6004820181905543600383015560068201805460ff19166001908117909155546001600160a01b03166112a05730803182111561120957600080fd5b604051600090339084908381818185875af1925050503d806000811461124b576040519150601f19603f3d011682016040523d82523d6000602084013e611250565b606091505b5050905080611299576040805162461bcd60e51b815260206004820152601060248201526f3bb4ba34323930bb903330b4b632b21760811b604482015290519081900360640190fd5b5050611361565b6001546040805163a9059cbb60e01b81523360048201526024810184905290516001600160a01b039092169163a9059cbb916044808201926020929091908290030181600087803b1580156112f457600080fd5b505af1158015611308573d6000803e3d6000fd5b505050506040513d602081101561131e57600080fd5b5051611361576040805162461bcd60e51b815260206004820152600d60248201526c1d1c985b9cd9995c8819985a5b609a1b604482015290519081900360640190fd5b60408051828152905133917f7fcf532c15f0a6db0bd6d0e038bea71d30d808c7d98cb3bf7268a95bf5081b65919081900360200190a2505050505050565b600154600d546040805163095ea7b360e01b81526001600160a01b039283166004820152602481018590529051919092169163095ea7b39160448083019260209291908290030181600087803b1580156113f857600080fd5b505af115801561140c573d6000803e3d6000fd5b505050506040513d602081101561142257600080fd5b5051611475576040805162461bcd60e51b815260206004820152601b60248201527f546f6b616d616b5374616b65723a20617070726f7665206661696c0000000000604482015290519081900360640190fd5b50565b6001546001600160a01b031681565b60045481565b600a54156114cb576040805162461bcd60e51b81526020600482015260066024820152651313d0d2d15160d21b604482015290519081900360640190fd5b6001600a5560025460408051631718ecd760e31b815290516001600160a01b039092169163b8c766b891600480820192602092909190829003018186803b15801561151557600080fd5b505afa158015611529573d6000803e3d6000fd5b505050506040513d602081101561153f57600080fd5b50511515600114611584576040805162461bcd60e51b815260206004820152600a6024820152691b9bdd0818db1bdcd95960b21b604482015290519081900360640190fd5b3360009081526008602052604081206005546001820154106115d7576040805162461bcd60e51b815260206004820152600760248201526618db185a5b595960ca1b604482015290519081900360640190fd5b6115e0336117db565b915060008211611628576040805162461bcd60e51b815260206004820152600e60248201526d726577617264206973207a65726f60901b604482015290519081900360640190fd5b6002546040805163032f7adb60e61b815230600482015290516000926001600160a01b03169163cbdeb6c0916024808301926020929190829003018186803b15801561167357600080fd5b505afa158015611687573d6000803e3d6000fd5b505050506040513d602081101561169d57600080fd5b505160065490915083018110156116f2576040805162461bcd60e51b8152602060048201526014602482015273746f74616c20726577617264206578636565647360601b604482015290519081900360640190fd5b436001830155600280830180548501905560068054850190555460408051635569f64b60e11b81523360048201526024810186905290516001600160a01b039092169163aad3ec96916044808201926020929091908290030181600087803b15801561175d57600080fd5b505af1158015611771573d6000803e3d6000fd5b505050506040513d602081101561178757600080fd5b505161179257600080fd5b60408051848152436020820152815133927f987d620f307ff6b94d58743cb7a7509f24071586a77759b77c2d4e29f75a2f9a928290030190a250506000600a5550565b60075481565b600454600090819043108061180657506001600160a01b038316600090815260086020526040902054155b8061182d57506005546001600160a01b038416600090815260086020526040902060010154115b8061185257506001600160a01b03831660009081526008602052604090206001015443105b1561185f57506000611b5f565b6004546005546001600160a01b0385166000908152600860205260409020600101548210156118a7576001600160a01b03851660009081526008602052604090206001015491505b804310156118b25750435b6002546040805163c1b422fd60e01b815290516000926001600160a01b03169163c1b422fd9160048083019286929190829003018186803b1580156118f657600080fd5b505afa15801561190a573d6000803e3d6000fd5b505050506040513d6000823e601f3d908101601f19168201604052602081101561193357600080fd5b8101908080516040519392919084600160201b82111561195257600080fd5b90830190602082018581111561196757600080fd5b82518660208202830111600160201b8211171561198357600080fd5b82525081516020918201928201910280838360005b838110156119b0578181015183820152602001611998565b505050509050016040525050509050600081511115611b5b576000806000600260009054906101000a90046001600160a01b03166001600160a01b031663d105bf856040518163ffffffff1660e01b815260040160206040518083038186803b158015611a1c57600080fd5b505afa158015611a30573d6000803e3d6000fd5b505050506040513d6020811015611a4657600080fd5b5051905060005b8451811015611b5657848181518110611a6257fe5b60209081029190910181015160025460408051632f8deb1560e11b81526004810184905290519297506001600160a01b0390911692635f1bd62a92602480840193829003018186803b158015611ab757600080fd5b505afa158015611acb573d6000803e3d6000fd5b505050506040513d6020811015611ae157600080fd5b50519250838611611b1e576001600160a01b038a16600090815260086020526040902054839088880384020281611b1457fe5b0488019750611b56565b6001600160a01b038a16600090815260086020526040902054839088860384020281611b4657fe5b0488019750839650600101611a4d565b505050505b5050505b92915050565b600b546001600160a01b031681565b60125481565b611b926000805160206139b483398151915233612589565b611bcd5760405162461bcd60e51b81526004018080602001828103825260258152602001806139d46025913960400191505060405180910390fd5b6001600160a01b03861615801590611bed57506001600160a01b03841615155b8015611bf857508183105b611c32576040805162461bcd60e51b815260206004808301919091526024820152637a65726f60e01b604482015290519081900360640190fd5b600080546001600160a01b03199081166001600160a01b039889161790915560018054821696881696909617909555600280549095169390951692909217909255600391909155600481905501600555565b600d546001600160a01b031690565b6000805160206139b483398151915281565b60095481565b6060611cc56000805160206139b483398151915233612589565b611d005760405162461bcd60e51b81526004018080602001828103825260258152602001806139d46025913960400191505060405180910390fd5b600d54604051634401edf760e11b815260048101898152602482018990526001600160a01b0386811660648401526084830186905260a06044840190815260a48401899052931692638803dbee928b928b928b928b928b928b9260c401866020870280828437600081840152601f19601f820116905080830192505050975050505050505050600060405180830381600087803b158015610d2a57600080fd5b600a5415611dde576040805162461bcd60e51b81526020600482015260066024820152651313d0d2d15160d21b604482015290519081900360640190fd5b6001600a55600b546001600160a01b031680611e2f576040805162461bcd60e51b815260206004820152601b6024820152600080516020613994833981519152604482015290519081900360640190fd5b816001600160a01b038116611e79576040805162461bcd60e51b815260206004820152601b6024820152600080516020613994833981519152604482015290519081900360640190fd5b600554431115611ebd576040805162461bcd60e51b815260206004820152600a6024820152691c195c9a5bd908195b9960b21b604482015290519081900360640190fd5b600260009054906101000a90046001600160a01b03166001600160a01b031663b8c766b86040518163ffffffff1660e01b815260040160206040518083038186803b158015611f0b57600080fd5b505afa158015611f1f573d6000803e3d6000fd5b505050506040513d6020811015611f3557600080fd5b50511515600114611f7a576040805162461bcd60e51b815260206004820152600a6024820152691b9bdd0818db1bdcd95960b21b604482015290519081900360640190fd5b6002601255600b546040805163a782ebd560e01b815290516000928392839283926001600160a01b03169163a782ebd5916004808301926080929190829003018186803b158015611fca57600080fd5b505afa158015611fde573d6000803e3d6000fd5b505050506040513d6080811015611ff457600080fd5b50805160208201516040830151606090930151919650945090925090506001600160a01b0384161580159061203157506001600160a01b03831615155b801561204557506001600160a01b03821615155b801561205957506001600160a01b03811615155b6120a2576040805162461bcd60e51b815260206004820152601560248201527449546f6b616d616b5265676973747279207a65726f60581b604482015290519081900360640190fd5b6000826001600160a01b0316636ec3d5ae6040518163ffffffff1660e01b815260040160206040518083038186803b1580156120dd57600080fd5b505afa1580156120f1573d6000803e3d6000fd5b505050506040513d602081101561210757600080fd5b50516005549091508190034310612165576040805162461bcd60e51b815260206004820152601b60248201527f706572696f64287769746864726177616c44656c61792920656e640000000000604482015290519081900360640190fd5b6000856001600160a01b03166370a08231306040518263ffffffff1660e01b815260040180826001600160a01b0316815260200191505060206040518083038186803b1580156121b457600080fd5b505afa1580156121c8573d6000803e3d6000fd5b505050506040513d60208110156121de57600080fd5b505190508061221d576040805162461bcd60e51b815260206004808301919091526024820152637a65726f60e01b604482015290519081900360640190fd5b600c546001600160a01b031661224d57600c80546001600160a01b0319166001600160a01b038b161790556123af565b600c54604080516367265c3b60e11b81526001600160a01b039283166004820152306024820152905160009286169163ce4cb876916044808301926020929190829003018186803b1580156122a157600080fd5b505afa1580156122b5573d6000803e3d6000fd5b505050506040513d60208110156122cb57600080fd5b505111806123565750600c5460408051632638fdf560e01b81526001600160a01b0392831660048201523060248201529051600092871691632638fdf5916044808301926020929190829003018186803b15801561232857600080fd5b505afa15801561233c573d6000803e3d6000fd5b505050506040513d602081101561235257600080fd5b5051115b156123af57600c546001600160a01b038a81169116146123af576040805162461bcd60e51b815260206004820152600f60248201526e3234b33332b932b73a103630bcb2b960891b604482015290519081900360640190fd5b600e546123bc90826136e7565b600e55604080516001600160a01b03808716602080840191909152818d168385015283518084038501815260608085019586905263cae9ca5160e01b909552898316606485019081526084850187905260a48501958652815160c486015281519195938c169463cae9ca51948c94899489949360e4019185019080838360005b8381101561245457818101518382015260200161243c565b50505050905090810190601f1680156124815780820380516001836020036101000a031916815260200191505b50945050505050602060405180830381600087803b1580156124a257600080fd5b505af11580156124b6573d6000803e3d6000fd5b505050506040513d60208110156124cc57600080fd5b5051612515576040805162461bcd60e51b8152602060048201526013602482015272185c1c1c9bdd99505b9910d85b1b0819985a5b606a1b604482015290519081900360640190fd5b604080516001600160a01b038c1681526020810184905281517fd706f7b85b6f270583513d8371d6264d347f648849b8c09e1630b2cc536dba5d929181900390910190a150506000600a555050505050505050565b60008281526014602052604081206125829083613741565b9392505050565b6000828152601460205260408120612582908361374d565b600c546001600160a01b031681565b600081565b6125cd6000805160206139b483398151915233612589565b6126085760405162461bcd60e51b81526004018080602001828103825260258152602001806139d46025913960400191505060405180910390fd5b6001600160a01b0381161580159061262e5750600c546001600160a01b03828116911614155b612675576040805162461bcd60e51b815260206004820152601360248201527203a37b5b0b6b0b5a630bcb2b919103d32b9379606d1b604482015290519081900360640190fd5b600c80546001600160a01b0383166001600160a01b0319909116811790915560408051918252517fbcf2b04f5517cca822ae60e21bb6e3889b8d8307ea062c5266c63a014386c9909181900360200190a150565b60115481565b6008602052600090815260409020805460018201546002830154600384015460048501546005860154600690960154949593949293919290919060ff1687565b60065481565b6000806127306000805160206139b483398151915233612589565b61276b5760405162461bcd60e51b81526004018080602001828103825260258152602001806139d46025913960400191505060405180910390fd5b600d5460408051635d5155ef60e11b81526001600160a01b038c811660048301528b81166024830152604482018b9052606482018a90526084820189905287811660a483015260c48201879052825193169263baa2abde9260e4808401939192918290030181600087803b1580156127e257600080fd5b505af11580156127f6573d6000803e3d6000fd5b505050506040513d604081101561280c57600080fd5b508051602090910151909a909950975050505050505050565b61283d6000805160206139b483398151915233612589565b6128785760405162461bcd60e51b81526004018080602001828103825260258152602001806139d46025913960400191505060405180910390fd5b60035443106128ce576040805162461bcd60e51b815260206004820152601e60248201527f546f6b616d616b5374616b65723a20416c726561647920737461727465640000604482015290519081900360640190fd5b6001600160a01b038116158015906128f45750600d546001600160a01b03828116911614155b612933576040805162461bcd60e51b815260206004820152601b6024820152600080516020613994833981519152604482015290519081900360640190fd5b600d80546001600160a01b0383166001600160a01b0319909116811790915560408051918252517f62c2fdbe51fb234f5a19e26fd34a29b4d1f7f4b748fa3dfb5ee76bc69a30a7ce9181900360200190a150565b6000818152601460205260408120611b5f90613762565b6129b66000805160206139b483398151915233612589565b6129f15760405162461bcd60e51b81526004018080602001828103825260258152602001806139d46025913960400191505060405180910390fd5b816001600160a01b038116612a3b576040805162461bcd60e51b815260206004820152601b6024820152600080516020613994833981519152604482015290519081900360640190fd5b600b80546001600160a01b038086166001600160a01b03199283161792839055600d805486831693168317905560408051939091168352602083019190915280517f0e8aaf05b745af1c8f81b7d434f13476dc8ad14501ed72f38edb41e0781e49d09281900390910190a1505050565b600a5415612ae9576040805162461bcd60e51b81526020600482015260066024820152651313d0d2d15160d21b604482015290519081900360640190fd5b6001600a55600b546001600160a01b031680612b3a576040805162461bcd60e51b815260206004820152601b6024820152600080516020613994833981519152604482015290519081900360640190fd5b600c5483906001600160a01b03808316911614612b90576040805162461bcd60e51b815260206004820152600f60248201526e3234b33332b932b73a103630bcb2b960891b604482015290519081900360640190fd5b600260009054906101000a90046001600160a01b03166001600160a01b031663b8c766b86040518163ffffffff1660e01b815260040160206040518083038186803b158015612bde57600080fd5b505afa158015612bf2573d6000803e3d6000fd5b505050506040513d6020811015612c0857600080fd5b50511515600114612c4d576040805162461bcd60e51b815260206004820152600a6024820152691b9bdd0818db1bdcd95960b21b604482015290519081900360640190fd5b6003601255601354612c609060016136e7565b601355600b546040805163a782ebd560e01b815290516000928392839283926001600160a01b03169163a782ebd5916004808301926080929190829003018186803b158015612cae57600080fd5b505afa158015612cc2573d6000803e3d6000fd5b505050506040513d6080811015612cd857600080fd5b50805160208201516040830151606090930151919650945090925090506001600160a01b03841615801590612d1557506001600160a01b03831615155b8015612d2957506001600160a01b03821615155b8015612d3d57506001600160a01b03811615155b612d86576040805162461bcd60e51b815260206004820152601560248201527449546f6b616d616b5265676973747279207a65726f60581b604482015290519081900360640190fd5b604080516367265c3b60e11b81526001600160a01b038a81166004830152306024830152915160009284169163ce4cb876916044808301926020929190829003018186803b158015612dd757600080fd5b505afa158015612deb573d6000803e3d6000fd5b505050506040513d6020811015612e0157600080fd5b50519050633b9aca008802811015612e4c576040805162461bcd60e51b81526020600482015260096024820152681d1bdbc81cdb585b1b60ba1b604482015290519081900360640190fd5b826001600160a01b031663da95ebf78a600754633b9aca00026040518363ffffffff1660e01b815260040180836001600160a01b0316815260200182815260200192505050602060405180830381600087803b158015612eab57600080fd5b505af1158015612ebf573d6000803e3d6000fd5b505050506040513d6020811015612ed557600080fd5b5050604080516001600160a01b038b168152602081018a905281517f1ac2a17d8d7ec451060cfbcbb66b61b7fd5fe7f887d9423102809f74bd207e82929181900390910190a150506000600a5550505050505050565b600082815260146020526040902060020154612f4990610b86613611565b610c2b5760405162461bcd60e51b81526004018080602001828103825260308152602001806139646030913960400191505060405180910390fd5b60135481565b6000806000612fa76000805160206139b483398151915233612589565b612fe25760405162461bcd60e51b81526004018080602001828103825260258152602001806139d46025913960400191505060405180910390fd5b600d546040805162e8e33760e81b81526001600160a01b038e811660048301528d81166024830152604482018d9052606482018c9052608482018b905260a482018a905288811660c483015260e482018890529151919092169163e8e33700916101048083019260609291908290030181600087803b15801561306457600080fd5b505af1158015613078573d6000803e3d6000fd5b505050506040513d606081101561308e57600080fd5b5080516020820151604090920151909d919c509a5098505050505050505050565b600a54156130ed576040805162461bcd60e51b81526020600482015260066024820152651313d0d2d15160d21b604482015290519081900360640190fd5b6001600a55600b546001600160a01b03168061313e576040805162461bcd60e51b815260206004820152601b6024820152600080516020613994833981519152604482015290519081900360640190fd5b600c5483906001600160a01b03808316911614613194576040805162461bcd60e51b815260206004820152600f60248201526e3234b33332b932b73a103630bcb2b960891b604482015290519081900360640190fd5b600560125414156131ec576040805162461bcd60e51b815260206004820152601860248201527f416c72656164792050726f63657373556e5374616b696e670000000000000000604482015290519081900360640190fd5b600260009054906101000a90046001600160a01b03166001600160a01b031663b8c766b86040518163ffffffff1660e01b815260040160206040518083038186803b15801561323a57600080fd5b505afa15801561324e573d6000803e3d6000fd5b505050506040513d602081101561326457600080fd5b505115156001146132a9576040805162461bcd60e51b815260206004820152600a6024820152691b9bdd0818db1bdcd95960b21b604482015290519081900360640190fd5b600560125560138054600091829055600b546040805163a782ebd560e01b815290519293928392839283926001600160a01b039092169163a782ebd591600480820192608092909190829003018186803b15801561330657600080fd5b505afa15801561331a573d6000803e3d6000fd5b505050506040513d608081101561333057600080fd5b50805160208201516040830151606090930151919650945090925090506001600160a01b0384161580159061336d57506001600160a01b03831615155b801561338157506001600160a01b03821615155b801561339557506001600160a01b03811615155b6133de576040805162461bcd60e51b815260206004820152601560248201527449546f6b616d616b5265676973747279207a65726f60581b604482015290519081900360640190fd5b600c54604080516367265c3b60e11b81526001600160a01b03928316600482015230602482015290519183169163ce4cb87691604480820192602092909190829003018186803b15801561343157600080fd5b505afa158015613445573d6000803e3d6000fd5b505050506040513d602081101561345b57600080fd5b505161347257600c80546001600160a01b03191690555b60408051632638fdf560e01b81526001600160a01b038b81166004830152306024830152915191841691632638fdf591604480820192602092909190829003018186803b1580156134c257600080fd5b505afa1580156134d6573d6000803e3d6000fd5b505050506040513d60208110156134ec57600080fd5b5051600f805490910190556040805163fb0713b160e01b81526001600160a01b038b81166004830152602482018890528a1515604483015291519184169163fb0713b1916064808201926020929091908290030181600087803b15801561355257600080fd5b505af1158015613566573d6000803e3d6000fd5b505050506040513d602081101561357c57600080fd5b5050604080516001600160a01b038b168152602081018790528915158183015290517fd07c1a80bfc96d3611f58fc19165b875cdbc1bdc53d8189e649a74930d9e3d809181900360600190a150506000600a5550505050505050565b6002546001600160a01b031681565b6000546001600160a01b031681565b600e5481565b6000612582836001600160a01b03841661376d565b3390565b600082815260146020526040902061362d90826135fc565b15610bd05761363a613611565b6001600160a01b0316816001600160a01b0316837f2f8788117e7eff1d82e926ec794901d17c78024a50270940304540a733656f0d60405160405180910390a45050565b600082815260146020526040902061369690826137b7565b15610bd0576136a3613611565b6001600160a01b0316816001600160a01b0316837ff6391f5c32d9c69d2a47ea670b442974b53935d1edc7fd64eb21e047a839171b60405160405180910390a45050565b600082820183811015612582576040805162461bcd60e51b815260206004820152601b60248201527f536166654d6174683a206164646974696f6e206f766572666c6f770000000000604482015290519081900360640190fd5b600061258283836137cc565b6000612582836001600160a01b038416613830565b6000611b5f82613848565b60006137798383613830565b6137af57508154600181810184556000848152602080822090930184905584548482528286019093526040902091909155611b5f565b506000611b5f565b6000612582836001600160a01b03841661384c565b8154600090821061380e5760405162461bcd60e51b81526004018080602001828103825260228152602001806139136022913960400191505060405180910390fd5b82600001828154811061381d57fe5b9060005260206000200154905092915050565b60009081526001919091016020526040902054151590565b5490565b60008181526001830160205260408120548015613908578354600019808301919081019060009087908390811061387f57fe5b906000526020600020015490508087600001848154811061389c57fe5b6000918252602080832090910192909255828152600189810190925260409020908401905586548790806138cc57fe5b60019003818190600052602060002001600090559055866001016000878152602001908152602001600020600090556001945050505050611b5f565b6000915050611b5f56fe456e756d657261626c655365743a20696e646578206f7574206f6620626f756e6473416363657373436f6e74726f6c3a2073656e646572206d75737420626520616e2061646d696e20746f206772616e74416363657373436f6e74726f6c3a2073656e646572206d75737420626520616e2061646d696e20746f207265766f6b65546f6b616d616b5374616b65723a207a65726f20616464726573730000000000df8b4c520ffe197c5343c6f5aec59570151ef9a492f2c624fd45ddde6135ec42546f6b616d616b5374616b65723a2043616c6c6572206973206e6f7420616e2061646d696e416363657373436f6e74726f6c3a2063616e206f6e6c792072656e6f756e636520726f6c657320666f722073656c66a2646970667358221220ce69d656932fed542b1df99402fd9bdd275a30a35970fc35e11a0f0c48767a2264736f6c63430007060033df8b4c520ffe197c5343c6f5aec59570151ef9a492f2c624fd45ddde6135ec42",
  "immutableReferences": {},
  "source": "//SPDX-License-Identifier: Unlicense\npragma solidity ^0.7.0;\n\nimport {IUniswapV2Router01} from \"../interfaces/IUniswapV2Router01.sol\";\nimport {IStake1Vault} from \"../interfaces/IStake1Vault.sol\";\nimport {IIERC20} from \"../interfaces/IIERC20.sol\";\nimport \"../libraries/LibTokenStake1.sol\";\nimport \"../connection/TokamakStaker.sol\";\nimport {\n    ERC165Checker\n} from \"@openzeppelin/contracts/introspection/ERC165Checker.sol\";\nimport {SafeERC20} from \"@openzeppelin/contracts/token/ERC20/SafeERC20.sol\";\n\ncontract StakeTONModified is TokamakStaker {\n    using SafeERC20 for IIERC20;\n\n    // modifier lock() {\n    //     require(_lock == 0, \"LOCKED\");\n    //     _lock = 1;\n    //     _;\n    //     _lock = 0;\n    // }\n\n    //////////////////////////////\n    // Events\n    //////////////////////////////\n    // event Claimed(address indexed from, uint256 amount, uint256 currentBlcok);\n    event Staked(address indexed to, uint256 amount);\n    event Claimed(address indexed to, uint256 amount, uint256 currentBlcok);\n    event Withdrawal(address indexed to, uint256 amount);\n\n    constructor() {\n        _setRoleAdmin(ADMIN_ROLE, ADMIN_ROLE);\n        _setupRole(ADMIN_ROLE, msg.sender);\n    }\n\n    receive() external payable {\n        stake(msg.value);\n    }\n\n    /// @dev Initialize\n    function initialize(\n        address _token,\n        address _paytoken,\n        address _vault,\n        uint256 _saleStartBlock,\n        uint256 _startBlock,\n        uint256 _period\n    ) external onlyOwner {\n        require(\n            _token != address(0) &&\n                _vault != address(0) &&\n                _saleStartBlock < _startBlock, \"zero\"\n        );\n        token = _token;\n        paytoken = _paytoken;\n        vault = _vault;\n        saleStartBlock = _saleStartBlock;\n        startBlock = _startBlock;\n        endBlock = startBlock + _period;\n    }\n\n    /// @dev Stake amount\n    function stake(uint256 amount) public payable {\n        revert(\"Function cannot be used\");\n        require(\n            (paytoken == address(0) && msg.value == amount) ||\n                (paytoken != address(0) && amount > 0),\n            \"zero\"\n        );\n        require(\n            block.number >= saleStartBlock &&\n                block.number < startBlock,\n            \"unavailable\"\n        );\n\n        require(!IStake1Vault(vault).saleClosed(), \"not end\");\n\n        // uint256 amount = _amount;\n        if (paytoken == address(0)) amount = msg.value;\n        else\n            require(\n                IIERC20(paytoken).balanceOf(msg.sender) >= amount,\n                \"lack\"\n            );\n\n        LibTokenStake1.StakedAmount storage staked = userStaked[msg.sender];\n        staked.amount += amount;\n        totalStakedAmount += amount;\n        if (paytoken != address(0))\n            require(\n                IIERC20(paytoken).transferFrom(msg.sender, address(this), amount)\n            );\n\n        emit Staked(msg.sender, amount);\n    }\n\n    /// @dev To withdraw\n    function withdraw() external {\n        require(\n            endBlock > 0 && endBlock < block.number,\n            \"not end\"\n        );\n\n        (address ton, address wton, address depositManager, address seigManager) = ITokamakRegistry(stakeRegistry).getTokamak();\n        require(ton != address(0) && wton != address(0) && depositManager != address(0) && seigManager != address(0),\n            \"ITokamakRegistry zero\"\n        );\n        if (tokamakLayer2 != address(0)) {\n            require(\n                IISeigManager(seigManager).stakeOf(tokamakLayer2, address(this)) == 0 &&\n                IIDepositManager(depositManager).pendingUnstaked(tokamakLayer2, address(this)) == 0,\n                \"remain amount in tokamak\");\n        }\n\n        LibTokenStake1.StakedAmount storage staked = userStaked[msg.sender];\n\n        uint256 amount = staked.amount;\n\n        if (paytoken == address(0)) {\n            require(staked.releasedAmount <= staked.amount,\"Amount wrong\");\n        } else if (paytoken == ton) {\n            amount = ((totalStakedAmount - toTokamak) + (fromTokamak / 10 ** 9)) * staked.amount / totalStakedAmount;\n        }\n        require( amount > 0 , \"Amount wrong\" );\n\n        staked.releasedAmount = amount;\n        staked.releasedBlock = block.number;\n        staked.released = true;\n\n        // check if we send in ethers or in tokens\n        if (paytoken == address(0)) {\n            address payable self = address(uint160(address(this)));\n            require(self.balance >= amount);\n            (bool success, ) = msg.sender.call{value: amount}(\"\");\n            require(success, \"withdraw failed.\");\n\n        } else {\n            require(\n                IIERC20(paytoken).transfer(msg.sender, amount),\n                \"transfer fail\"\n            );\n        }\n\n        emit Withdrawal(msg.sender, amount);\n    }\n\n    /// @dev Claim for reward\n    function claim() external lock {\n        require(\n            IStake1Vault(vault).saleClosed() == true,\n            \"not closed\"\n        );\n        uint256 rewardClaim = 0;\n\n        LibTokenStake1.StakedAmount storage staked = userStaked[msg.sender];\n        require(staked.claimedBlock < endBlock, \"claimed\");\n\n        rewardClaim = canRewardAmount(msg.sender);\n\n        require(rewardClaim > 0, \"reward is zero\");\n\n        uint256 rewardTotal =\n            IStake1Vault(vault).totalRewardAmount(address(this));\n        require(\n            (rewardClaimedTotal + rewardClaim) <= rewardTotal,\n            \"total reward exceeds\"\n        );\n\n        staked.claimedBlock = block.number;\n        staked.claimedAmount += rewardClaim;\n        rewardClaimedTotal += rewardClaim;\n\n        require(IStake1Vault(vault).claim(msg.sender, rewardClaim));\n\n        emit Claimed(msg.sender, rewardClaim, block.number);\n    }\n\n    /// @dev Returns the amount that can be rewarded\n    //function canRewardAmount(address account) public view returns (uint256) {\n    function canRewardAmount(address account)\n        public view\n        returns (uint256)\n    {\n        uint256 reward = 0;\n\n        if (\n            block.number < startBlock ||\n            userStaked[account].amount == 0 ||\n            userStaked[account].claimedBlock > endBlock ||\n            userStaked[account].claimedBlock > block.number\n        ) {\n            reward = 0;\n        } else {\n            uint256 startR = startBlock;\n            uint256 endR = endBlock;\n            if (startR < userStaked[account].claimedBlock)\n                startR = userStaked[account].claimedBlock;\n            if (block.number < endR) endR = block.number;\n\n            uint256[] memory orderedEndBlocks =\n                IStake1Vault(vault).orderedEndBlocksAll();\n\n            if (orderedEndBlocks.length > 0) {\n                uint256 _end = 0;\n                uint256 _total = 0;\n                uint256 blockTotalReward = 0;\n                blockTotalReward = IStake1Vault(vault).blockTotalReward();\n\n                for (uint256 i = 0; i < orderedEndBlocks.length; i++) {\n                    _end = orderedEndBlocks[i];\n                    _total = IStake1Vault(vault).stakeEndBlockTotal(_end);\n\n                    if (endR <= _end) {\n                        reward +=\n                            (blockTotalReward *\n                                (endR - startR) *\n                                userStaked[account].amount) /\n                            _total;\n                        break;\n                    } else {\n                        reward +=\n                            (blockTotalReward *\n                                (_end - startR) *\n                                userStaked[account].amount) /\n                            _total;\n                        startR = _end;\n                    }\n                }\n            }\n        }\n        return reward;\n    }\n    /*\n    function canRewardAmountForTest(address account)\n        public view\n        //returns (uint256)\n        returns (uint256 reward, uint256 startR, uint256 endR, uint256 blockTotalReward)\n    {\n        //uint256 reward = 0;\n\n        reward = 0;\n        startR = startBlock;\n        endR = endBlock;\n        blockTotalReward = 0;\n\n        if (\n            block.number < startBlock ||\n            userStaked[account].amount == 0 ||\n            userStaked[account].claimedBlock > endBlock ||\n            userStaked[account].claimedBlock > block.number\n        ) {\n            reward = 0;\n        } else {\n            //uint256 startR = startBlock;\n            //uint256 endR = endBlock;\n            if (startR < userStaked[account].claimedBlock)\n                startR = userStaked[account].claimedBlock;\n            if (block.number < endR) endR = block.number;\n\n            uint256[] memory orderedEndBlocks =\n                IStake1Vault(vault).orderedEndBlocksAll();\n\n            if (orderedEndBlocks.length > 0) {\n                uint256 _end = 0;\n                uint256 _total = 0;\n                //uint256 blockTotalReward = 0;\n                blockTotalReward = IStake1Vault(vault).blockTotalReward();\n\n                for (uint256 i = 0; i < orderedEndBlocks.length; i++) {\n                    _end = orderedEndBlocks[i];\n                    _total = IStake1Vault(vault).stakeEndBlockTotal(_end);\n\n                    if (endR <= _end) {\n                        reward +=\n                            (blockTotalReward *\n                                (endR - startR) *\n                                userStaked[account].amount) /\n                            _total;\n                        break;\n                    } else {\n                        reward +=\n                            (blockTotalReward *\n                                (_end - startR) *\n                                userStaked[account].amount) /\n                            _total;\n                        startR = _end;\n                    }\n                }\n            }\n        }\n        //return reward;\n    }\n    */\n\n    ///\n    function addLiquidity(\n        address tokenA,\n        address tokenB,\n        uint256 amountADesired,\n        uint256 amountBDesired,\n        uint256 amountAMin,\n        uint256 amountBMin,\n        address to,\n        uint256 deadline\n    )\n        external\n        onlyOwner\n        returns (\n            uint256 amountA,\n            uint256 amountB,\n            uint256 liquidity\n        )\n    {\n        // (bool success, bytes memory data) = _uniswapRouter.call(\n        //     abi.encodeWithSignature(\"addLiquidity(address,address,uint,uint,uint,uint,address,uint)\")\n        // );\n        // require(success, \"addLiquidity fail\");\n        // (amountA, amountB, liquidity) = abi.decode(data, (uint, uint, uint));\n        return\n            IUniswapV2Router01(_uniswapRouter).addLiquidity(\n                tokenA,\n                tokenB,\n                amountADesired,\n                amountBDesired,\n                amountAMin,\n                amountBMin,\n                to,\n                deadline\n            );\n    }\n\n    function removeLiquidity(\n        address tokenA,\n        address tokenB,\n        uint256 liquidity,\n        uint256 amountAMin,\n        uint256 amountBMin,\n        address to,\n        uint256 deadline\n    ) external onlyOwner returns (uint256 amountA, uint256 amountB) {\n        return\n            IUniswapV2Router01(_uniswapRouter).removeLiquidity(\n                tokenA,\n                tokenB,\n                liquidity,\n                amountAMin,\n                amountBMin,\n                to,\n                deadline\n            );\n    }\n\n    function swapExactTokensForTokens(\n        uint256 amountIn,\n        uint256 amountOutMin,\n        address[] calldata path,\n        address to,\n        uint256 deadline\n    ) external onlyOwner returns (uint256[] memory amounts) {\n        return\n            IUniswapV2Router01(_uniswapRouter).swapExactTokensForTokens(\n                amountIn,\n                amountOutMin,\n                path,\n                to,\n                deadline\n            );\n    }\n\n    function swapTokensForExactTokens(\n        uint256 amountOut,\n        uint256 amountInMax,\n        address[] calldata path,\n        address to,\n        uint256 deadline\n    ) external onlyOwner returns (uint256[] memory amounts) {\n        return\n            IUniswapV2Router01(_uniswapRouter).swapTokensForExactTokens(\n                amountOut,\n                amountInMax,\n                path,\n                to,\n                deadline\n            );\n    }\n}\n",
  "sourcePath": "/Users/zena/ico2.0/ico20-contracts/contracts/test-contracts/StakeTONModified.sol",
  "compiler": {
    "name": "solc",
    "version": "0.7.6+commit.7338295f.Emscripten.clang"
  },
  "schemaVersion": "3.3.4",
  "updatedAt": "2021-05-26T01:34:11.368Z",
  "devdoc": {
    "kind": "dev",
    "methods": {
      "canRewardAmount(address)": {
        "details": "Returns the amount that can be rewarded"
      },
      "claim()": {
        "details": "Claim for reward"
      },
      "getRoleAdmin(bytes32)": {
        "details": "Returns the admin role that controls `role`. See {grantRole} and {revokeRole}. To change a role's admin, use {_setRoleAdmin}."
      },
      "getRoleMember(bytes32,uint256)": {
        "details": "Returns one of the accounts that have `role`. `index` must be a value between 0 and {getRoleMemberCount}, non-inclusive. Role bearers are not sorted in any particular way, and their ordering may change at any point. WARNING: When using {getRoleMember} and {getRoleMemberCount}, make sure you perform all queries on the same block. See the following https://forum.openzeppelin.com/t/iterating-over-elements-on-enumerableset-in-openzeppelin-contracts/2296[forum post] for more information."
      },
      "getRoleMemberCount(bytes32)": {
        "details": "Returns the number of accounts that have `role`. Can be used together with {getRoleMember} to enumerate all bearers of a role."
      },
      "grantRole(bytes32,address)": {
        "details": "Grants `role` to `account`. If `account` had not been already granted `role`, emits a {RoleGranted} event. Requirements: - the caller must have ``role``'s admin role."
      },
      "hasRole(bytes32,address)": {
        "details": "Returns `true` if `account` has been granted `role`."
      },
      "initialize(address,address,address,uint256,uint256,uint256)": {
        "details": "Initialize"
      },
      "renounceRole(bytes32,address)": {
        "details": "Revokes `role` from the calling account. Roles are often managed via {grantRole} and {revokeRole}: this function's purpose is to provide a mechanism for accounts to lose their privileges if they are compromised (such as when a trusted device is misplaced). If the calling account had been granted `role`, emits a {RoleRevoked} event. Requirements: - the caller must be `account`."
      },
      "revokeRole(bytes32,address)": {
        "details": "Revokes `role` from `account`. If `account` had been granted `role`, emits a {RoleRevoked} event. Requirements: - the caller must have ``role``'s admin role."
      },
      "stake(uint256)": {
        "details": "Stake amount"
      },
      "withdraw()": {
        "details": "To withdraw"
      }
    },
    "version": 1
  },
  "userdoc": {
    "kind": "user",
    "methods": {},
    "version": 1
  }
}