{
  "contractName": "WTON",
  "abi": [
    {
      "inputs": [
        {
          "internalType": "contract ERC20Mintable",
          "name": "_ton",
          "type": "address"
        }
      ],
      "payable": false,
      "stateMutability": "nonpayable",
      "type": "constructor"
    },
    {
      "anonymous": false,
      "inputs": [
        {
          "indexed": true,
          "internalType": "address",
          "name": "owner",
          "type": "address"
        },
        {
          "indexed": true,
          "internalType": "address",
          "name": "spender",
          "type": "address"
        },
        {
          "indexed": false,
          "internalType": "uint256",
          "name": "value",
          "type": "uint256"
        }
      ],
      "name": "Approval",
      "type": "event"
    },
    {
      "anonymous": false,
      "inputs": [
        {
          "indexed": true,
          "internalType": "address",
          "name": "account",
          "type": "address"
        }
      ],
      "name": "MinterAdded",
      "type": "event"
    },
    {
      "anonymous": false,
      "inputs": [
        {
          "indexed": true,
          "internalType": "address",
          "name": "account",
          "type": "address"
        }
      ],
      "name": "MinterRemoved",
      "type": "event"
    },
    {
      "anonymous": false,
      "inputs": [
        {
          "indexed": true,
          "internalType": "address",
          "name": "previousOwner",
          "type": "address"
        },
        {
          "indexed": true,
          "internalType": "address",
          "name": "newOwner",
          "type": "address"
        }
      ],
      "name": "OwnershipTransferred",
      "type": "event"
    },
    {
      "anonymous": false,
      "inputs": [
        {
          "indexed": true,
          "internalType": "address",
          "name": "from",
          "type": "address"
        },
        {
          "indexed": true,
          "internalType": "address",
          "name": "to",
          "type": "address"
        },
        {
          "indexed": false,
          "internalType": "uint256",
          "name": "value",
          "type": "uint256"
        }
      ],
      "name": "Transfer",
      "type": "event"
    },
    {
      "constant": false,
      "inputs": [
        {
          "internalType": "address",
          "name": "account",
          "type": "address"
        }
      ],
      "name": "addMinter",
      "outputs": [],
      "payable": false,
      "stateMutability": "nonpayable",
      "type": "function"
    },
    {
      "constant": true,
      "inputs": [
        {
          "internalType": "address",
          "name": "owner",
          "type": "address"
        },
        {
          "internalType": "address",
          "name": "spender",
          "type": "address"
        }
      ],
      "name": "allowance",
      "outputs": [
        {
          "internalType": "uint256",
          "name": "",
          "type": "uint256"
        }
      ],
      "payable": false,
      "stateMutability": "view",
      "type": "function"
    },
    {
      "constant": false,
      "inputs": [
        {
          "internalType": "address",
          "name": "spender",
          "type": "address"
        },
        {
          "internalType": "uint256",
          "name": "amount",
          "type": "uint256"
        }
      ],
      "name": "approve",
      "outputs": [
        {
          "internalType": "bool",
          "name": "",
          "type": "bool"
        }
      ],
      "payable": false,
      "stateMutability": "nonpayable",
      "type": "function"
    },
    {
      "constant": false,
      "inputs": [
        {
          "internalType": "address",
          "name": "spender",
          "type": "address"
        },
        {
          "internalType": "uint256",
          "name": "amount",
          "type": "uint256"
        },
        {
          "internalType": "bytes",
          "name": "data",
          "type": "bytes"
        }
      ],
      "name": "approveAndCall",
      "outputs": [
        {
          "internalType": "bool",
          "name": "",
          "type": "bool"
        }
      ],
      "payable": false,
      "stateMutability": "nonpayable",
      "type": "function"
    },
    {
      "constant": true,
      "inputs": [
        {
          "internalType": "address",
          "name": "account",
          "type": "address"
        }
      ],
      "name": "balanceOf",
      "outputs": [
        {
          "internalType": "uint256",
          "name": "",
          "type": "uint256"
        }
      ],
      "payable": false,
      "stateMutability": "view",
      "type": "function"
    },
    {
      "constant": false,
      "inputs": [
        {
          "internalType": "uint256",
          "name": "amount",
          "type": "uint256"
        }
      ],
      "name": "burn",
      "outputs": [],
      "payable": false,
      "stateMutability": "nonpayable",
      "type": "function"
    },
    {
      "constant": true,
      "inputs": [],
      "name": "callbackEnabled",
      "outputs": [
        {
          "internalType": "bool",
          "name": "",
          "type": "bool"
        }
      ],
      "payable": false,
      "stateMutability": "view",
      "type": "function"
    },
    {
      "constant": true,
      "inputs": [],
      "name": "decimals",
      "outputs": [
        {
          "internalType": "uint8",
          "name": "",
          "type": "uint8"
        }
      ],
      "payable": false,
      "stateMutability": "view",
      "type": "function"
    },
    {
      "constant": false,
      "inputs": [
        {
          "internalType": "address",
          "name": "spender",
          "type": "address"
        },
        {
          "internalType": "uint256",
          "name": "subtractedValue",
          "type": "uint256"
        }
      ],
      "name": "decreaseAllowance",
      "outputs": [
        {
          "internalType": "bool",
          "name": "",
          "type": "bool"
        }
      ],
      "payable": false,
      "stateMutability": "nonpayable",
      "type": "function"
    },
    {
      "constant": false,
      "inputs": [
        {
          "internalType": "bool",
          "name": "_callbackEnabled",
          "type": "bool"
        }
      ],
      "name": "enableCallback",
      "outputs": [],
      "payable": false,
      "stateMutability": "nonpayable",
      "type": "function"
    },
    {
      "constant": false,
      "inputs": [
        {
          "internalType": "address",
          "name": "spender",
          "type": "address"
        },
        {
          "internalType": "uint256",
          "name": "addedValue",
          "type": "uint256"
        }
      ],
      "name": "increaseAllowance",
      "outputs": [
        {
          "internalType": "bool",
          "name": "",
          "type": "bool"
        }
      ],
      "payable": false,
      "stateMutability": "nonpayable",
      "type": "function"
    },
    {
      "constant": true,
      "inputs": [
        {
          "internalType": "address",
          "name": "account",
          "type": "address"
        }
      ],
      "name": "isMinter",
      "outputs": [
        {
          "internalType": "bool",
          "name": "",
          "type": "bool"
        }
      ],
      "payable": false,
      "stateMutability": "view",
      "type": "function"
    },
    {
      "constant": true,
      "inputs": [],
      "name": "isOwner",
      "outputs": [
        {
          "internalType": "bool",
          "name": "",
          "type": "bool"
        }
      ],
      "payable": false,
      "stateMutability": "view",
      "type": "function"
    },
    {
      "constant": false,
      "inputs": [
        {
          "internalType": "address",
          "name": "account",
          "type": "address"
        },
        {
          "internalType": "uint256",
          "name": "amount",
          "type": "uint256"
        }
      ],
      "name": "mint",
      "outputs": [
        {
          "internalType": "bool",
          "name": "",
          "type": "bool"
        }
      ],
      "payable": false,
      "stateMutability": "nonpayable",
      "type": "function"
    },
    {
      "constant": true,
      "inputs": [],
      "name": "name",
      "outputs": [
        {
          "internalType": "string",
          "name": "",
          "type": "string"
        }
      ],
      "payable": false,
      "stateMutability": "view",
      "type": "function"
    },
    {
      "constant": true,
      "inputs": [],
      "name": "owner",
      "outputs": [
        {
          "internalType": "address",
          "name": "",
          "type": "address"
        }
      ],
      "payable": false,
      "stateMutability": "view",
      "type": "function"
    },
    {
      "constant": false,
      "inputs": [
        {
          "internalType": "address",
          "name": "target",
          "type": "address"
        }
      ],
      "name": "renounceMinter",
      "outputs": [],
      "payable": false,
      "stateMutability": "nonpayable",
      "type": "function"
    },
    {
      "constant": false,
      "inputs": [],
      "name": "renounceMinter",
      "outputs": [],
      "payable": false,
      "stateMutability": "nonpayable",
      "type": "function"
    },
    {
      "constant": false,
      "inputs": [
        {
          "internalType": "address",
          "name": "target",
          "type": "address"
        }
      ],
      "name": "renounceOwnership",
      "outputs": [],
      "payable": false,
      "stateMutability": "nonpayable",
      "type": "function"
    },
    {
      "constant": false,
      "inputs": [],
      "name": "renounceOwnership",
      "outputs": [],
      "payable": false,
      "stateMutability": "nonpayable",
      "type": "function"
    },
    {
      "constant": false,
      "inputs": [
        {
          "internalType": "address",
          "name": "target",
          "type": "address"
        }
      ],
      "name": "renouncePauser",
      "outputs": [],
      "payable": false,
      "stateMutability": "nonpayable",
      "type": "function"
    },
    {
      "constant": true,
      "inputs": [],
      "name": "seigManager",
      "outputs": [
        {
          "internalType": "contract SeigManagerI",
          "name": "",
          "type": "address"
        }
      ],
      "payable": false,
      "stateMutability": "view",
      "type": "function"
    },
    {
      "constant": false,
      "inputs": [
        {
          "internalType": "contract SeigManagerI",
          "name": "_seigManager",
          "type": "address"
        }
      ],
      "name": "setSeigManager",
      "outputs": [],
      "payable": false,
      "stateMutability": "nonpayable",
      "type": "function"
    },
    {
      "constant": true,
      "inputs": [
        {
          "internalType": "bytes4",
          "name": "interfaceId",
          "type": "bytes4"
        }
      ],
      "name": "supportsInterface",
      "outputs": [
        {
          "internalType": "bool",
          "name": "",
          "type": "bool"
        }
      ],
      "payable": false,
      "stateMutability": "view",
      "type": "function"
    },
    {
      "constant": true,
      "inputs": [],
      "name": "symbol",
      "outputs": [
        {
          "internalType": "string",
          "name": "",
          "type": "string"
        }
      ],
      "payable": false,
      "stateMutability": "view",
      "type": "function"
    },
    {
      "constant": true,
      "inputs": [],
      "name": "ton",
      "outputs": [
        {
          "internalType": "contract ERC20Mintable",
          "name": "",
          "type": "address"
        }
      ],
      "payable": false,
      "stateMutability": "view",
      "type": "function"
    },
    {
      "constant": true,
      "inputs": [],
      "name": "totalSupply",
      "outputs": [
        {
          "internalType": "uint256",
          "name": "",
          "type": "uint256"
        }
      ],
      "payable": false,
      "stateMutability": "view",
      "type": "function"
    },
    {
      "constant": false,
      "inputs": [
        {
          "internalType": "address",
          "name": "recipient",
          "type": "address"
        },
        {
          "internalType": "uint256",
          "name": "amount",
          "type": "uint256"
        }
      ],
      "name": "transfer",
      "outputs": [
        {
          "internalType": "bool",
          "name": "",
          "type": "bool"
        }
      ],
      "payable": false,
      "stateMutability": "nonpayable",
      "type": "function"
    },
    {
      "constant": false,
      "inputs": [
        {
          "internalType": "address",
          "name": "sender",
          "type": "address"
        },
        {
          "internalType": "address",
          "name": "recipient",
          "type": "address"
        },
        {
          "internalType": "uint256",
          "name": "amount",
          "type": "uint256"
        }
      ],
      "name": "transferFrom",
      "outputs": [
        {
          "internalType": "bool",
          "name": "",
          "type": "bool"
        }
      ],
      "payable": false,
      "stateMutability": "nonpayable",
      "type": "function"
    },
    {
      "constant": false,
      "inputs": [
        {
          "internalType": "address",
          "name": "target",
          "type": "address"
        },
        {
          "internalType": "address",
          "name": "newOwner",
          "type": "address"
        }
      ],
      "name": "transferOwnership",
      "outputs": [],
      "payable": false,
      "stateMutability": "nonpayable",
      "type": "function"
    },
    {
      "constant": false,
      "inputs": [
        {
          "internalType": "address",
          "name": "newOwner",
          "type": "address"
        }
      ],
      "name": "transferOwnership",
      "outputs": [],
      "payable": false,
      "stateMutability": "nonpayable",
      "type": "function"
    },
    {
      "constant": false,
      "inputs": [
        {
          "internalType": "address",
          "name": "owner",
          "type": "address"
        },
        {
          "internalType": "address",
          "name": "spender",
          "type": "address"
        },
        {
          "internalType": "uint256",
          "name": "tonAmount",
          "type": "uint256"
        },
        {
          "internalType": "bytes",
          "name": "data",
          "type": "bytes"
        }
      ],
      "name": "onApprove",
      "outputs": [
        {
          "internalType": "bool",
          "name": "",
          "type": "bool"
        }
      ],
      "payable": false,
      "stateMutability": "nonpayable",
      "type": "function"
    },
    {
      "constant": false,
      "inputs": [
        {
          "internalType": "address",
          "name": "account",
          "type": "address"
        },
        {
          "internalType": "uint256",
          "name": "amount",
          "type": "uint256"
        }
      ],
      "name": "burnFrom",
      "outputs": [],
      "payable": false,
      "stateMutability": "nonpayable",
      "type": "function"
    },
    {
      "constant": false,
      "inputs": [
        {
          "internalType": "uint256",
          "name": "wtonAmount",
          "type": "uint256"
        }
      ],
      "name": "swapToTON",
      "outputs": [
        {
          "internalType": "bool",
          "name": "",
          "type": "bool"
        }
      ],
      "payable": false,
      "stateMutability": "nonpayable",
      "type": "function"
    },
    {
      "constant": false,
      "inputs": [
        {
          "internalType": "uint256",
          "name": "tonAmount",
          "type": "uint256"
        }
      ],
      "name": "swapFromTON",
      "outputs": [
        {
          "internalType": "bool",
          "name": "",
          "type": "bool"
        }
      ],
      "payable": false,
      "stateMutability": "nonpayable",
      "type": "function"
    },
    {
      "constant": false,
      "inputs": [
        {
          "internalType": "address",
          "name": "to",
          "type": "address"
        },
        {
          "internalType": "uint256",
          "name": "wtonAmount",
          "type": "uint256"
        }
      ],
      "name": "swapToTONAndTransfer",
      "outputs": [
        {
          "internalType": "bool",
          "name": "",
          "type": "bool"
        }
      ],
      "payable": false,
      "stateMutability": "nonpayable",
      "type": "function"
    },
    {
      "constant": false,
      "inputs": [
        {
          "internalType": "address",
          "name": "to",
          "type": "address"
        },
        {
          "internalType": "uint256",
          "name": "tonAmount",
          "type": "uint256"
        }
      ],
      "name": "swapFromTONAndTransfer",
      "outputs": [
        {
          "internalType": "bool",
          "name": "",
          "type": "bool"
        }
      ],
      "payable": false,
      "stateMutability": "nonpayable",
      "type": "function"
    },
    {
      "constant": false,
      "inputs": [],
      "name": "renounceTonMinter",
      "outputs": [],
      "payable": false,
      "stateMutability": "nonpayable",
      "type": "function"
    }
  ],
  "bytecode": "0x60806040523480156200001157600080fd5b50604051620030e7380380620030e7833981810160405260208110156200003757600080fd5b5051604080518082018252600b81527f5772617070656420544f4e0000000000000000000000000000000000000000006020828101919091528251808401909352600483527f57544f4e00000000000000000000000000000000000000000000000000000000908301526000805460ff1916600117905590601b620000d7620000c86001600160e01b03620002dc16565b6001600160e01b03620002e116565b6000620000ec6001600160e01b03620002dc16565b600580546001600160a01b0319166001600160a01b038316908117909155604051919250906000907f8be0079c531659141344cd1fd0a4f28419497f9722a3daafe3b4186f6b6457e0908290a35082516200014f9060069060208601906200052c565b508151620001659060079060208501906200052c565b506008805460ff191660ff9290921691909117905550620001a890507f01ffc9a70000000000000000000000000000000000000000000000000000000062000333565b620001dc7f4273ca16000000000000000000000000000000000000000000000000000000006001600160e01b036200033316565b806001600160a01b031663313ce5676040518163ffffffff1660e01b815260040160206040518083038186803b1580156200021657600080fd5b505afa1580156200022b573d6000803e3d6000fd5b505050506040513d60208110156200024257600080fd5b505160ff16601214620002b657604080517f08c379a000000000000000000000000000000000000000000000000000000000815260206004820181905260248201527f57544f4e3a20646563696d616c73206f6620544f4e206d757374206265203138604482015290519081900360640190fd5b600a80546001600160a01b0319166001600160a01b0392909216919091179055620005ce565b335b90565b620002fc8160046200040260201b6200216a1790919060201c565b6040516001600160a01b038216907f6ae172837ea30b801fbfcdd4108aa1d5bf8ff775444fd70256b44e6bf3dfc3f690600090a250565b7fffffffff000000000000000000000000000000000000000000000000000000008082161415620003c557604080517f08c379a000000000000000000000000000000000000000000000000000000000815260206004820152601c60248201527f4552433136353a20696e76616c696420696e7465726661636520696400000000604482015290519081900360640190fd5b7fffffffff00000000000000000000000000000000000000000000000000000000166000908152600960205260409020805460ff19166001179055565b6200041782826001600160e01b03620004a916565b156200048457604080517f08c379a000000000000000000000000000000000000000000000000000000000815260206004820152601f60248201527f526f6c65733a206163636f756e7420616c72656164792068617320726f6c6500604482015290519081900360640190fd5b6001600160a01b0316600090815260209190915260409020805460ff19166001179055565b60006001600160a01b0382166200050c576040517f08c379a0000000000000000000000000000000000000000000000000000000008152600401808060200182810382526022815260200180620030c56022913960400191505060405180910390fd5b506001600160a01b03166000908152602091909152604090205460ff1690565b828054600181600116156101000203166002900490600052602060002090601f016020900481019282601f106200056f57805160ff19168380011785556200059f565b828001600101855582156200059f579182015b828111156200059f57825182559160200191906001019062000582565b50620005ad929150620005b1565b5090565b620002de91905b80821115620005ad5760008155600101620005b8565b612ae780620005de6000396000f3fe608060405234801561001057600080fd5b50600436106102325760003560e01c806370a0823111610130578063a457c2d7116100b8578063dd62ed3e1161007c578063dd62ed3e146107b6578063e34869d7146107e4578063e3b99e8514610801578063f2fde38b1461082d578063f53fe70f1461085357610232565b8063a457c2d714610675578063a9059cbb146106a1578063aa271e1a146106cd578063cae9ca51146106f3578063cc48b947146107ae57610232565b80638da5cb5b116100ff5780638da5cb5b1461062f5780638f32d59b1461063757806395d89b411461063f578063983b2d5614610647578063986502751461066d57610232565b806370a08231146105af578063715018a6146105d55780637657f20a146105dd57806379cc67901461060357610232565b806339509351116101be578063588420b711610182578063588420b7146105035780635f112c681461052f57806363380113146105555780636d4354211461055d5780636fb7f5581461058b57610232565b806339509351146103d857806340c10f191461040457806341eb24bb146104305780634273ca161461045657806342966c68146104e657610232565b806318160ddd1161020557806318160ddd1461032557806323b872dd1461033f5780633113ed5c14610375578063313ce5671461039457806338bf3cfa146103b257610232565b806301ffc9a71461023757806305eeb9f71461027257806306fdde031461027c578063095ea7b3146102f9575b600080fd5b61025e6004803603602081101561024d57600080fd5b50356001600160e01b031916610870565b604080519115158252519081900360200190f35b61027a61088f565b005b610284610940565b6040805160208082528351818301528351919283929083019185019080838360005b838110156102be5781810151838201526020016102a6565b50505050905090810190601f1680156102eb5780820380516001836020036101000a031916815260200191505b509250505060405180910390f35b61025e6004803603604081101561030f57600080fd5b506001600160a01b0381351690602001356109d6565b61032d6109f3565b60408051918252519081900360200190f35b61025e6004803603606081101561035557600080fd5b506001600160a01b038135811691602081013590911690604001356109f9565b61027a6004803603602081101561038b57600080fd5b50351515610a0e565b61039c610a73565b6040805160ff9092168252519081900360200190f35b61027a600480360360208110156103c857600080fd5b50356001600160a01b0316610a7c565b61025e600480360360408110156103ee57600080fd5b506001600160a01b038135169060200135610b19565b61025e6004803603604081101561041a57600080fd5b506001600160a01b038135169060200135610b72565b61027a6004803603602081101561044657600080fd5b50356001600160a01b0316610bc9565b61025e6004803603608081101561046c57600080fd5b6001600160a01b038235811692602081013590911691604082013591908101906080810160608201356401000000008111156104a757600080fd5b8201836020820111156104b957600080fd5b803590602001918460018302840111640100000000831117156104db57600080fd5b509092509050610c4b565b61027a600480360360208110156104fc57600080fd5b5035610d2a565b61025e6004803603604081101561051957600080fd5b506001600160a01b038135169060200135610d3e565b61027a6004803603602081101561054557600080fd5b50356001600160a01b0316610dae565b61025e610e30565b61027a6004803603604081101561057357600080fd5b506001600160a01b0381358116916020013516610e40565b610593610efb565b604080516001600160a01b039092168252519081900360200190f35b61032d600480360360208110156105c557600080fd5b50356001600160a01b0316610f0f565b61027a610f2a565b61027a600480360360208110156105f357600080fd5b50356001600160a01b0316610fbb565b61027a6004803603604081101561061957600080fd5b506001600160a01b03813516906020013561102a565b610593611055565b61025e611064565b61028461108a565b61027a6004803603602081101561065d57600080fd5b50356001600160a01b03166110eb565b61027a61113a565b61025e6004803603604081101561068b57600080fd5b506001600160a01b03813516906020013561114c565b61025e600480360360408110156106b757600080fd5b506001600160a01b0381351690602001356111ba565b61025e600480360360208110156106e357600080fd5b50356001600160a01b03166111ce565b61025e6004803603606081101561070957600080fd5b6001600160a01b038235169160208101359181019060608101604082013564010000000081111561073957600080fd5b82018360208201111561074b57600080fd5b8035906020019184600183028401116401000000008311171561076d57600080fd5b91908080601f0160208091040260200160405190810160405280939291908181526020018383808284376000920191909152509295506111e7945050505050565b61059361125a565b61032d600480360360408110156107cc57600080fd5b506001600160a01b0381358116916020013516611269565b61025e600480360360208110156107fa57600080fd5b5035611294565b61025e6004803603604081101561081757600080fd5b506001600160a01b038135169060200135611303565b61027a6004803603602081101561084357600080fd5b50356001600160a01b031661135e565b61025e6004803603602081101561086957600080fd5b50356113ae565b6001600160e01b03191660009081526009602052604090205460ff1690565b610897611064565b6108d6576040805162461bcd60e51b81526020600482018190526024820152600080516020612946833981519152604482015290519081900360640190fd5b600a60009054906101000a90046001600160a01b03166001600160a01b031663986502756040518163ffffffff1660e01b8152600401600060405180830381600087803b15801561092657600080fd5b505af115801561093a573d6000803e3d6000fd5b50505050565b60068054604080516020601f60026000196101006001881615020190951694909404938401819004810282018101909252828152606093909290918301828280156109cc5780601f106109a1576101008083540402835291602001916109cc565b820191906000526020600020905b8154815290600101906020018083116109af57829003601f168201915b5050505050905090565b60006109ea6109e3611409565b848461140d565b50600192915050565b60035490565b6000610a068484846114f9565b949350505050565b610a16611064565b610a55576040805162461bcd60e51b81526020600482018190526024820152600080516020612946833981519152604482015290519081900360640190fd5b60088054911515600160a81b0260ff60a81b19909216919091179055565b60085460ff1690565b610a84611064565b610ac3576040805162461bcd60e51b81526020600482018190526024820152600080516020612946833981519152604482015290519081900360640190fd5b806001600160a01b031663715018a66040518163ffffffff1660e01b8152600401600060405180830381600087803b158015610afe57600080fd5b505af1158015610b12573d6000803e3d6000fd5b5050505050565b60006109ea610b26611409565b84610b6d8560026000610b37611409565b6001600160a01b03908116825260208083019390935260409182016000908120918c16815292529020549063ffffffff61157716565b61140d565b6000610b84610b7f611409565b6111ce565b610bbf5760405162461bcd60e51b81526004018080602001828103825260308152602001806128cd6030913960400191505060405180910390fd5b6109ea83836115d8565b610bd1611064565b610c10576040805162461bcd60e51b81526020600482018190526024820152600080516020612946833981519152604482015290519081900360640190fd5b806001600160a01b0316636ef8d66d6040518163ffffffff1660e01b8152600401600060405180830381600087803b158015610afe57600080fd5b600a546000906001600160a01b03163314610c975760405162461bcd60e51b8152600401808060200182810382526026815260200180612a3e6026913960400191505060405180910390fd5b610ca28687866116aa565b506000610cae856116dc565b9050600080610cf286868080601f0160208091040260200160405190810160405280939291908181526020018383808284376000920191909152506116e592505050565b91509150610d0189838561140d565b6060610d0c82611707565b9050610d1a8a848684611731565b5060019998505050505050505050565b610d3b610d35611409565b826119e0565b50565b6000805460ff16610d84576040805162461bcd60e51b815260206004820152601f60248201526000805160206127ec833981519152604482015290519081900360640190fd5b6000805460ff19169055610d993384846116aa565b90506000805460ff1916600117905592915050565b610db6611064565b610df5576040805162461bcd60e51b81526020600482018190526024820152600080516020612946833981519152604482015290519081900360640190fd5b806001600160a01b031663986502756040518163ffffffff1660e01b8152600401600060405180830381600087803b158015610afe57600080fd5b600854600160a81b900460ff1681565b610e48611064565b610e87576040805162461bcd60e51b81526020600482018190526024820152600080516020612946833981519152604482015290519081900360640190fd5b816001600160a01b031663f2fde38b826040518263ffffffff1660e01b815260040180826001600160a01b03166001600160a01b03168152602001915050600060405180830381600087803b158015610edf57600080fd5b505af1158015610ef3573d6000803e3d6000fd5b505050505050565b60085461010090046001600160a01b031681565b6001600160a01b031660009081526001602052604090205490565b610f32611064565b610f71576040805162461bcd60e51b81526020600482018190526024820152600080516020612946833981519152604482015290519081900360640190fd5b6005546040516000916001600160a01b0316907f8be0079c531659141344cd1fd0a4f28419497f9722a3daafe3b4186f6b6457e0908390a3600580546001600160a01b0319169055565b610fc3611064565b611002576040805162461bcd60e51b81526020600482018190526024820152600080516020612946833981519152604482015290519081900360640190fd5b600880546001600160a01b0390921661010002610100600160a81b0319909216919091179055565b611033336111ce565b156110475761104282826119e0565b611051565b6110518282611a7b565b5050565b6005546001600160a01b031690565b6005546000906001600160a01b031661107b611409565b6001600160a01b031614905090565b60078054604080516020601f60026000196101006001881615020190951694909404938401819004810282018101909252828152606093909290918301828280156109cc5780601f106109a1576101008083540402835291602001916109cc565b6110f6610b7f611409565b6111315760405162461bcd60e51b81526004018080602001828103825260308152602001806128cd6030913960400191505060405180910390fd5b610d3b81611a85565b61114a611145611409565b611acd565b565b60006109ea611159611409565b84610b6d85604051806060016040528060258152602001612a8e6025913960026000611183611409565b6001600160a01b03908116825260208083019390935260409182016000908120918d1681529252902054919063ffffffff611b1516565b60006109ea6111c7611409565b8484611b6f565b60006111e160048363ffffffff611c4516565b92915050565b60006111f384846109d6565b611244576040805162461bcd60e51b815260206004820152601c60248201527f45524332304f6e417070726f76653a20617070726f7665206661696c00000000604482015290519081900360640190fd5b61125033858585611731565b5060019392505050565b600a546001600160a01b031681565b6001600160a01b03918216600090815260026020908152604080832093909416825291909152205490565b6000805460ff166112da576040805162461bcd60e51b815260206004820152601f60248201526000805160206127ec833981519152604482015290519081900360640190fd5b6000805460ff191690556112ef3380846116aa565b90506000805460ff19166001179055919050565b6000805460ff16611349576040805162461bcd60e51b815260206004820152601f60248201526000805160206127ec833981519152604482015290519081900360640190fd5b6000805460ff19169055610d99833384611cac565b611366611064565b6113a5576040805162461bcd60e51b81526020600482018190526024820152600080516020612946833981519152604482015290519081900360640190fd5b610d3b81611e11565b6000805460ff166113f4576040805162461bcd60e51b815260206004820152601f60248201526000805160206127ec833981519152604482015290519081900360640190fd5b6000805460ff191690556112ef338084611cac565b3390565b6001600160a01b0383166114525760405162461bcd60e51b81526004018080602001828103825260248152602001806129f26024913960400191505060405180910390fd5b6001600160a01b0382166114975760405162461bcd60e51b81526004018080602001828103825260228152602001806128546022913960400191505060405180910390fd5b6001600160a01b03808416600081815260026020908152604080832094871680845294825291829020859055815185815291517f8c5be1e5ebec7d5bd14f71427d1e84f3dd0314c0f7b2291e5b200ac8c7c3b9259281900390910190a3505050565b6000611506848484611b6f565b61125084611512611409565b610b6d8560405180606001604052806028815260200161291e602891396001600160a01b038a16600090815260026020526040812090611550611409565b6001600160a01b03168152602081019190915260400160002054919063ffffffff611b1516565b6000828201838110156115d1576040805162461bcd60e51b815260206004820152601b60248201527f536166654d6174683a206164646974696f6e206f766572666c6f770000000000604482015290519081900360640190fd5b9392505050565b6115e28282611eb2565b600854600160a81b900460ff16801561160a575060085461010090046001600160a01b031615155b156110515760085460408051634a39314960e01b81526000600482018190526001600160a01b03868116602484015260448301869052925161010090940490921692634a39314992606480840193602093929083900390910190829087803b15801561167557600080fd5b505af1158015611689573d6000803e3d6000fd5b505050506040513d602081101561169f57600080fd5b505161105157600080fd5b60006116be836116b9846116dc565b6115d8565b600a54611250906001600160a01b031685308563ffffffff611fa416565b633b9aca000290565b60008082516040146116f657600080fd5b505060208101516040909101519091565b60408051602080825281830190925260609160208201818038833950505060208101929092525090565b632139e50b60e11b6117438482611ffe565b61177e5760405162461bcd60e51b81526004018080602001828103825260318152602001806128766031913960400191505060405180910390fd5b60006060856001600160a01b0316838888888860405160240180856001600160a01b03166001600160a01b03168152602001846001600160a01b03166001600160a01b0316815260200183815260200180602001828103825283818151815260200191508051906020019080838360005b838110156118075781810151838201526020016117ef565b50505050905090810190601f1680156118345780820380516001836020036101000a031916815260200191505b5060408051601f198184030181529181526020820180516001600160e01b03166001600160e01b0319909a16999099178952518151919890975087965094509250829150849050835b6020831061189c5780518252601f19909201916020918201910161187d565b6001836020036101000a0380198251168184511680821785525050505050509050019150506000604051808303816000865af19150503d80600081146118fe576040519150601f19603f3d011682016040523d82523d6000602084013e611903565b606091505b50915091508181906119935760405162461bcd60e51b81526004018080602001828103825283818151815260200191508051906020019080838360005b83811015611958578181015183820152602001611940565b50505050905090810190601f1680156119855780820380516001836020036101000a031916815260200191505b509250505060405180910390fd5b5060208101519150816119d75760405162461bcd60e51b8152600401808060200182810382526028815260200180612a166028913960400191505060405180910390fd5b50505050505050565b6119ea828261201a565b600854600160a81b900460ff168015611a12575060085461010090046001600160a01b031615155b156110515760085460408051634a39314960e01b81526001600160a01b0385811660048301526000602483018190526044830186905292516101009094041692634a39314992606480840193602093929083900390910190829087803b15801561167557600080fd5b6110518282612116565b611a9660048263ffffffff61216a16565b6040516001600160a01b038216907f6ae172837ea30b801fbfcdd4108aa1d5bf8ff775444fd70256b44e6bf3dfc3f690600090a250565b611ade60048263ffffffff6121eb16565b6040516001600160a01b038216907fe94479a9f7e1952cc78f2d6baab678adc1b772d936c6583def489e524cb6669290600090a250565b60008184841115611b675760405162461bcd60e51b8152602060048201818152835160248401528351909283926044909101919085019080838360008315611958578181015183820152602001611940565b505050900390565b611b7a838383612252565b600854600160a81b900460ff168015611ba2575060085461010090046001600160a01b031615155b15611c405760085460408051634a39314960e01b81526001600160a01b038681166004830152858116602483015260448201859052915161010090930490911691634a393149916064808201926020929091908290030181600087803b158015611c0b57600080fd5b505af1158015611c1f573d6000803e3d6000fd5b505050506040513d6020811015611c3557600080fd5b5051611c4057600080fd5b505050565b60006001600160a01b038216611c8c5760405162461bcd60e51b81526004018080602001828103825260228152602001806129666022913960400191505060405180910390fd5b506001600160a01b03166000908152602091909152604090205460ff1690565b6000611cb883836119e0565b6000611cc3836123b0565b600a54604080516370a0823160e01b815230600482015290519293506000926001600160a01b03909216916370a0823191602480820192602092909190829003018186803b158015611d1457600080fd5b505afa158015611d28573d6000803e3d6000fd5b505050506040513d6020811015611d3e57600080fd5b5051905081811015611de857600a546001600160a01b03166340c10f1930611d6c858563ffffffff6123ba16565b6040518363ffffffff1660e01b815260040180836001600160a01b03166001600160a01b0316815260200182815260200192505050602060405180830381600087803b158015611dbb57600080fd5b505af1158015611dcf573d6000803e3d6000fd5b505050506040513d6020811015611de557600080fd5b50505b600a54611e05906001600160a01b0316878463ffffffff6123fc16565b50600195945050505050565b6001600160a01b038116611e565760405162461bcd60e51b815260040180806020018281038252602681526020018061282e6026913960400191505060405180910390fd5b6005546040516001600160a01b038084169216907f8be0079c531659141344cd1fd0a4f28419497f9722a3daafe3b4186f6b6457e090600090a3600580546001600160a01b0319166001600160a01b0392909216919091179055565b6001600160a01b038216611f0d576040805162461bcd60e51b815260206004820152601f60248201527f45524332303a206d696e7420746f20746865207a65726f206164647265737300604482015290519081900360640190fd5b600354611f20908263ffffffff61157716565b6003556001600160a01b038216600090815260016020526040902054611f4c908263ffffffff61157716565b6001600160a01b03831660008181526001602090815260408083209490945583518581529351929391927fddf252ad1be2c89b69c2b068fc378daa952ba7f163c4a11628f55a4df523b3ef9281900390910190a35050565b604080516001600160a01b0385811660248301528416604482015260648082018490528251808303909101815260849091019091526020810180516001600160e01b03166323b872dd60e01b17905261093a90859061244a565b600061200983612602565b80156115d157506115d18383612635565b6001600160a01b03821661205f5760405162461bcd60e51b81526004018080602001828103825260218152602001806129ac6021913960400191505060405180910390fd5b6120a28160405180606001604052806022815260200161280c602291396001600160a01b038516600090815260016020526040902054919063ffffffff611b1516565b6001600160a01b0383166000908152600160205260409020556003546120ce908263ffffffff6123ba16565b6003556040805182815290516000916001600160a01b038516917fddf252ad1be2c89b69c2b068fc378daa952ba7f163c4a11628f55a4df523b3ef9181900360200190a35050565b61212082826119e0565b6110518261212c611409565b610b6d84604051806060016040528060248152602001612988602491396001600160a01b038816600090815260026020526040812090611550611409565b6121748282611c45565b156121c6576040805162461bcd60e51b815260206004820152601f60248201527f526f6c65733a206163636f756e7420616c72656164792068617320726f6c6500604482015290519081900360640190fd5b6001600160a01b0316600090815260209190915260409020805460ff19166001179055565b6121f58282611c45565b6122305760405162461bcd60e51b81526004018080602001828103825260218152602001806128fd6021913960400191505060405180910390fd5b6001600160a01b0316600090815260209190915260409020805460ff19169055565b6001600160a01b0383166122975760405162461bcd60e51b81526004018080602001828103825260258152602001806129cd6025913960400191505060405180910390fd5b6001600160a01b0382166122dc5760405162461bcd60e51b81526004018080602001828103825260238152602001806127c96023913960400191505060405180910390fd5b61231f816040518060600160405280602681526020016128a7602691396001600160a01b038616600090815260016020526040902054919063ffffffff611b1516565b6001600160a01b038085166000908152600160205260408082209390935590841681522054612354908263ffffffff61157716565b6001600160a01b0380841660008181526001602090815260409182902094909455805185815290519193928716927fddf252ad1be2c89b69c2b068fc378daa952ba7f163c4a11628f55a4df523b3ef92918290030190a3505050565b633b9aca00900490565b60006115d183836040518060400160405280601e81526020017f536166654d6174683a207375627472616374696f6e206f766572666c6f770000815250611b15565b604080516001600160a01b038416602482015260448082018490528251808303909101815260649091019091526020810180516001600160e01b031663a9059cbb60e01b179052611c409084905b61245c826001600160a01b031661265b565b6124ad576040805162461bcd60e51b815260206004820152601f60248201527f5361666545524332303a2063616c6c20746f206e6f6e2d636f6e747261637400604482015290519081900360640190fd5b60006060836001600160a01b0316836040518082805190602001908083835b602083106124eb5780518252601f1990920191602091820191016124cc565b6001836020036101000a0380198251168184511680821785525050505050509050019150506000604051808303816000865af19150503d806000811461254d576040519150601f19603f3d011682016040523d82523d6000602084013e612552565b606091505b5091509150816125a9576040805162461bcd60e51b815260206004820181905260248201527f5361666545524332303a206c6f772d6c6576656c2063616c6c206661696c6564604482015290519081900360640190fd5b80511561093a578080602001905160208110156125c557600080fd5b505161093a5760405162461bcd60e51b815260040180806020018281038252602a815260200180612a64602a913960400191505060405180910390fd5b6000612615826301ffc9a760e01b612635565b80156111e1575061262e826001600160e01b0319612635565b1592915050565b60008060006126448585612694565b915091508180156126525750805b95945050505050565b6000813f7fc5d2460186f7233c927e7db2dcc703c0e500b653ca82273b7bfad8045d85a470818114801590610a06575050151592915050565b604080516001600160e01b0319831660248083019190915282518083039091018152604490910182526020810180516001600160e01b03166301ffc9a760e01b1781529151815160009384939284926060926001600160a01b038a169261753092879282918083835b6020831061271c5780518252601f1990920191602091820191016126fd565b6001836020036101000a0380198251168184511680821785525050505050509050019150506000604051808303818686fa925050503d806000811461277d576040519150601f19603f3d011682016040523d82523d6000602084013e612782565b606091505b50915091506020815110156127a057600080945094505050506127c1565b818180602001905160208110156127b657600080fd5b505190955093505050505b925092905056fe45524332303a207472616e7366657220746f20746865207a65726f20616464726573735265656e7472616e637947756172643a207265656e7472616e742063616c6c0045524332303a206275726e20616d6f756e7420657863656564732062616c616e63654f776e61626c653a206e6577206f776e657220697320746865207a65726f206164647265737345524332303a20617070726f766520746f20746865207a65726f206164647265737345524332304f6e417070726f76653a207370656e64657220646f65736e277420737570706f7274206f6e417070726f766545524332303a207472616e7366657220616d6f756e7420657863656564732062616c616e63654d696e746572526f6c653a2063616c6c657220646f6573206e6f74206861766520746865204d696e74657220726f6c65526f6c65733a206163636f756e7420646f6573206e6f74206861766520726f6c6545524332303a207472616e7366657220616d6f756e74206578636565647320616c6c6f77616e63654f776e61626c653a2063616c6c6572206973206e6f7420746865206f776e6572526f6c65733a206163636f756e7420697320746865207a65726f206164647265737345524332303a206275726e20616d6f756e74206578636565647320616c6c6f77616e636545524332303a206275726e2066726f6d20746865207a65726f206164647265737345524332303a207472616e736665722066726f6d20746865207a65726f206164647265737345524332303a20617070726f76652066726f6d20746865207a65726f206164647265737345524332304f6e417070726f76653a206661696c656420746f2063616c6c206f6e417070726f766557544f4e3a206f6e6c792061636365707420544f4e20617070726f76652063616c6c6261636b5361666545524332303a204552433230206f7065726174696f6e20646964206e6f74207375636365656445524332303a2064656372656173656420616c6c6f77616e63652062656c6f77207a65726fa265627a7a72315820a7160bacf9121d3add7d182c4aa1b1559e979c119cf9eca9f8dc0a7dcb7ee49c64736f6c634300050c0032526f6c65733a206163636f756e7420697320746865207a65726f2061646472657373",
  "source": "pragma solidity ^0.5.12;\n\nimport { Ownable } from \"../../../node_modules/openzeppelin-solidity/contracts/ownership/Ownable.sol\";\nimport { SafeMath } from \"../../../node_modules/openzeppelin-solidity/contracts/math/SafeMath.sol\";\n\nimport { IERC20 } from \"../../../node_modules/openzeppelin-solidity/contracts/token/ERC20/IERC20.sol\";\nimport { ERC20 } from \"../../../node_modules/openzeppelin-solidity/contracts/token/ERC20/ERC20.sol\";\nimport { ERC20Mintable } from \"../../../node_modules/openzeppelin-solidity/contracts/token/ERC20/ERC20Mintable.sol\";\nimport { ERC20Burnable } from \"../../../node_modules/openzeppelin-solidity/contracts/token/ERC20/ERC20Burnable.sol\";\nimport { ERC20Detailed } from \"../../../node_modules/openzeppelin-solidity/contracts/token/ERC20/ERC20Detailed.sol\";\nimport { SafeERC20 } from \"../../../node_modules/openzeppelin-solidity/contracts/token/ERC20/SafeERC20.sol\";\n\nimport { ReentrancyGuard } from \"../../../node_modules/openzeppelin-solidity/contracts/utils/ReentrancyGuard.sol\";\nimport { ERC165 } from \"../../../node_modules/openzeppelin-solidity/contracts/introspection/ERC165.sol\";\nimport { ERC165Checker } from \"../../../node_modules/openzeppelin-solidity/contracts/introspection/ERC165Checker.sol\";\n\nimport { DSMath } from \"../../../node_modules/coinage-token/contracts/lib/DSMath.sol\";\n\nimport { SeigManagerI } from \"../interfaces/SeigManagerI.sol\";\n\nimport { SeigToken } from \"./SeigToken.sol\";\nimport { OnApprove } from \"./OnApprove.sol\";\n\n\ncontract WTON is DSMath, ReentrancyGuard, Ownable, ERC20Mintable, ERC20Burnable, ERC20Detailed, SeigToken, OnApprove {\n  using SafeERC20 for ERC20Mintable;\n\n  ERC20Mintable public ton;\n\n  constructor (\n    ERC20Mintable _ton\n  )\n    public\n    ERC20Detailed(\"Wrapped TON\", \"WTON\", 27)\n  {\n    require(ERC20Detailed(address(_ton)).decimals() == 18, \"WTON: decimals of TON must be 18\");\n    ton = _ton;\n  }\n\n  //////////////////////\n  // TON Approve callback\n  //////////////////////\n\n  function onApprove(\n    address owner,\n    address spender,\n    uint256 tonAmount,\n    bytes calldata data\n  ) external returns (bool) {\n    require(msg.sender == address(ton), \"WTON: only accept TON approve callback\");\n\n    // swap owner's TON to WTON\n    _swapFromTON(owner, owner, tonAmount);\n\n    uint256 wtonAmount = _toRAY(tonAmount);\n    (address depositManager, address layer2) = _decodeTONApproveData(data);\n\n    // approve WTON to DepositManager\n    _approve(owner, depositManager, wtonAmount);\n\n    // call DepositManager.onApprove to deposit WTON\n    bytes memory depositManagerOnApproveData = _encodeDepositManagerOnApproveData(layer2);\n    _callOnApprove(owner, depositManager, wtonAmount, depositManagerOnApproveData);\n\n    return true;\n  }\n\n  /**\n   * @dev data is 64 bytes of 2 addresses in left-padded 32 bytes\n   */\n  function _decodeTONApproveData(\n    bytes memory data\n  ) internal pure returns (address depositManager, address layer2) {\n    require(data.length == 0x40);\n\n    assembly {\n      depositManager := mload(add(data, 0x20))\n      layer2 := mload(add(data, 0x40))\n    }\n  }\n\n  function _encodeDepositManagerOnApproveData(\n    address layer2\n  ) internal pure returns (bytes memory data) {\n    data = new bytes(0x20);\n\n    assembly {\n      mstore(add(data, 0x20), layer2)\n    }\n  }\n\n\n  //////////////////////\n  // Override ERC20 functions\n  //////////////////////\n\n  function burnFrom(address account, uint256 amount) public {\n    if (isMinter(msg.sender)) {\n      _burn(account, amount);\n      return;\n    }\n\n    super.burnFrom(account, amount);\n  }\n\n  //////////////////////\n  // Swap functions\n  //////////////////////\n\n  /**\n   * @dev swap WTON to TON\n   */\n  function swapToTON(uint256 wtonAmount) public nonReentrant returns (bool) {\n    return _swapToTON(msg.sender, msg.sender, wtonAmount);\n  }\n\n  /**\n   * @dev swap TON to WTON\n   */\n  function swapFromTON(uint256 tonAmount) public nonReentrant returns (bool) {\n    return _swapFromTON(msg.sender, msg.sender, tonAmount);\n  }\n\n  /**\n   * @dev swap WTON to TON, and transfer TON\n   * NOTE: TON's transfer event's `from` argument is not `msg.sender` but `WTON` address.\n   */\n  function swapToTONAndTransfer(address to, uint256 wtonAmount) public nonReentrant returns (bool) {\n    return _swapToTON(to, msg.sender, wtonAmount);\n  }\n\n  /**\n   * @dev swap TON to WTON, and transfer WTON\n   */\n  function swapFromTONAndTransfer(address to, uint256 tonAmount) public nonReentrant returns (bool) {\n    return _swapFromTON(msg.sender, to, tonAmount);\n  }\n\n  function renounceTonMinter() external onlyOwner {\n    ton.renounceMinter();\n  }\n\n  //////////////////////\n  // Internal functions\n  //////////////////////\n\n  function _swapToTON(address tonAccount, address wtonAccount, uint256 wtonAmount) internal returns (bool) {\n    _burn(wtonAccount, wtonAmount);\n\n    // mint TON if WTON contract has not enough TON to transfer\n    uint256 tonAmount = _toWAD(wtonAmount);\n    uint256 tonBalance = ton.balanceOf(address(this));\n    if (tonBalance < tonAmount) {\n      ton.mint(address(this), tonAmount.sub(tonBalance));\n    }\n\n    ton.safeTransfer(tonAccount, tonAmount);\n    return true;\n  }\n\n  function _swapFromTON(address tonAccount, address wtonAccount, uint256 tonAmount) internal returns (bool) {\n    _mint(wtonAccount, _toRAY(tonAmount));\n    ton.safeTransferFrom(tonAccount, address(this), tonAmount);\n    return true;\n  }\n\n  /**\n   * @dev transform WAD to RAY\n   */\n  function _toRAY(uint256 v) internal pure returns (uint256) {\n    return v * 10 ** 9;\n  }\n\n  /**\n   * @dev transform RAY to WAD\n   */\n  function _toWAD(uint256 v) internal pure returns (uint256) {\n    return v / 10 ** 9;\n  }\n}\n",
  "sourcePath": "/Users/zena/ico2.0/ico20-contracts/plasma-evm-contracts/contracts/stake/tokens/WTON.sol",
  "compiler": {
    "name": "solc",
    "version": "0.5.12+commit.7709ece9.Emscripten.clang"
  },
  "schemaVersion": "3.3.4",
  "updatedAt": "2021-05-03T14:38:47.397Z",
  "devdoc": {
    "methods": {
      "allowance(address,address)": {
        "details": "See {IERC20-allowance}."
      },
      "approve(address,uint256)": {
        "details": "See {IERC20-approve}.     * Requirements:     * - `spender` cannot be the zero address."
      },
      "balanceOf(address)": {
        "details": "See {IERC20-balanceOf}."
      },
      "burn(uint256)": {
        "details": "Destroys `amount` tokens from the caller.     * See {ERC20-_burn}."
      },
      "decimals()": {
        "details": "Returns the number of decimals used to get its user representation. For example, if `decimals` equals `2`, a balance of `505` tokens should be displayed to a user as `5,05` (`505 / 10 ** 2`).     * Tokens usually opt for a value of 18, imitating the relationship between Ether and Wei.     * NOTE: This information is only used for _display_ purposes: it in no way affects any of the arithmetic of the contract, including {IERC20-balanceOf} and {IERC20-transfer}."
      },
      "decreaseAllowance(address,uint256)": {
        "details": "Atomically decreases the allowance granted to `spender` by the caller.     * This is an alternative to {approve} that can be used as a mitigation for problems described in {IERC20-approve}.     * Emits an {Approval} event indicating the updated allowance.     * Requirements:     * - `spender` cannot be the zero address. - `spender` must have allowance for the caller of at least `subtractedValue`."
      },
      "increaseAllowance(address,uint256)": {
        "details": "Atomically increases the allowance granted to `spender` by the caller.     * This is an alternative to {approve} that can be used as a mitigation for problems described in {IERC20-approve}.     * Emits an {Approval} event indicating the updated allowance.     * Requirements:     * - `spender` cannot be the zero address."
      },
      "isOwner()": {
        "details": "Returns true if the caller is the current owner."
      },
      "mint(address,uint256)": {
        "details": "See {ERC20-_mint}.     * Requirements:     * - the caller must have the {MinterRole}."
      },
      "name()": {
        "details": "Returns the name of the token."
      },
      "owner()": {
        "details": "Returns the address of the current owner."
      },
      "renounceOwnership()": {
        "details": "Leaves the contract without owner. It will not be possible to call `onlyOwner` functions anymore. Can only be called by the current owner.     * NOTE: Renouncing ownership will leave the contract without an owner, thereby removing any functionality that is only available to the owner."
      },
      "supportsInterface(bytes4)": {
        "details": "See {IERC165-supportsInterface}.     * Time complexity O(1), guaranteed to always use less than 30 000 gas."
      },
      "swapFromTON(uint256)": {
        "details": "swap TON to WTON"
      },
      "swapFromTONAndTransfer(address,uint256)": {
        "details": "swap TON to WTON, and transfer WTON"
      },
      "swapToTON(uint256)": {
        "details": "swap WTON to TON"
      },
      "swapToTONAndTransfer(address,uint256)": {
        "details": "swap WTON to TON, and transfer TON NOTE: TON's transfer event's `from` argument is not `msg.sender` but `WTON` address."
      },
      "symbol()": {
        "details": "Returns the symbol of the token, usually a shorter version of the name."
      },
      "totalSupply()": {
        "details": "See {IERC20-totalSupply}."
      },
      "transfer(address,uint256)": {
        "details": "See {IERC20-transfer}.     * Requirements:     * - `recipient` cannot be the zero address. - the caller must have a balance of at least `amount`."
      },
      "transferOwnership(address)": {
        "details": "Transfers ownership of the contract to a new account (`newOwner`). Can only be called by the current owner."
      }
    }
  },
  "userdoc": {
    "methods": {
      "burnFrom(address,uint256)": {
        "notice": "///////////////////"
      },
      "onApprove(address,address,uint256,bytes)": {
        "notice": "///////////////////"
      },
      "transferFrom(address,address,uint256)": {
        "notice": "///////////////////"
      }
    }
  }
}