{
  "_format": "hh-sol-artifact-1",
  "contractName": "BaseVault",
  "sourceName": "contracts/vaults/BaseVault.sol",
  "abi": [
    {
      "anonymous": false,
      "inputs": [
        {
          "indexed": false,
          "internalType": "uint256",
          "name": "round",
          "type": "uint256"
        },
        {
          "indexed": false,
          "internalType": "address[]",
          "name": "users",
          "type": "address[]"
        }
      ],
      "name": "AddedWhitelist",
      "type": "event"
    },
    {
      "anonymous": false,
      "inputs": [
        {
          "indexed": false,
          "internalType": "uint256",
          "name": "round",
          "type": "uint256"
        },
        {
          "indexed": false,
          "internalType": "uint256",
          "name": "amount",
          "type": "uint256"
        }
      ],
      "name": "AllocatedAmount",
      "type": "event"
    },
    {
      "anonymous": false,
      "inputs": [
        {
          "indexed": true,
          "internalType": "address",
          "name": "caller",
          "type": "address"
        },
        {
          "indexed": false,
          "internalType": "uint256",
          "name": "amount",
          "type": "uint256"
        },
        {
          "indexed": false,
          "internalType": "uint256",
          "name": "totalClaimedAmount",
          "type": "uint256"
        }
      ],
      "name": "Claimed",
      "type": "event"
    },
    {
      "anonymous": false,
      "inputs": [
        {
          "indexed": true,
          "internalType": "bytes32",
          "name": "role",
          "type": "bytes32"
        },
        {
          "indexed": true,
          "internalType": "bytes32",
          "name": "previousAdminRole",
          "type": "bytes32"
        },
        {
          "indexed": true,
          "internalType": "bytes32",
          "name": "newAdminRole",
          "type": "bytes32"
        }
      ],
      "name": "RoleAdminChanged",
      "type": "event"
    },
    {
      "anonymous": false,
      "inputs": [
        {
          "indexed": true,
          "internalType": "bytes32",
          "name": "role",
          "type": "bytes32"
        },
        {
          "indexed": true,
          "internalType": "address",
          "name": "account",
          "type": "address"
        },
        {
          "indexed": true,
          "internalType": "address",
          "name": "sender",
          "type": "address"
        }
      ],
      "name": "RoleGranted",
      "type": "event"
    },
    {
      "anonymous": false,
      "inputs": [
        {
          "indexed": true,
          "internalType": "bytes32",
          "name": "role",
          "type": "bytes32"
        },
        {
          "indexed": true,
          "internalType": "address",
          "name": "account",
          "type": "address"
        },
        {
          "indexed": true,
          "internalType": "address",
          "name": "sender",
          "type": "address"
        }
      ],
      "name": "RoleRevoked",
      "type": "event"
    },
    {
      "anonymous": false,
      "inputs": [
        {
          "indexed": false,
          "internalType": "address",
          "name": "newClaimer",
          "type": "address"
        }
      ],
      "name": "SetNewClaimer",
      "type": "event"
    },
    {
      "anonymous": false,
      "inputs": [],
      "name": "Started",
      "type": "event"
    },
    {
      "anonymous": false,
      "inputs": [
        {
          "indexed": false,
          "internalType": "uint256",
          "name": "round",
          "type": "uint256"
        }
      ],
      "name": "StartedRound",
      "type": "event"
    },
    {
      "anonymous": false,
      "inputs": [
        {
          "indexed": true,
          "internalType": "address",
          "name": "caller",
          "type": "address"
        },
        {
          "indexed": false,
          "internalType": "uint256",
          "name": "amount",
          "type": "uint256"
        }
      ],
      "name": "Withdrawal",
      "type": "event"
    },
    {
      "inputs": [],
      "name": "ADMIN_ROLE",
      "outputs": [
        {
          "internalType": "bytes32",
          "name": "",
          "type": "bytes32"
        }
      ],
      "stateMutability": "view",
      "type": "function"
    },
    {
      "inputs": [],
      "name": "BURNER_ROLE",
      "outputs": [
        {
          "internalType": "bytes32",
          "name": "",
          "type": "bytes32"
        }
      ],
      "stateMutability": "view",
      "type": "function"
    },
    {
      "inputs": [],
      "name": "DEFAULT_ADMIN_ROLE",
      "outputs": [
        {
          "internalType": "bytes32",
          "name": "",
          "type": "bytes32"
        }
      ],
      "stateMutability": "view",
      "type": "function"
    },
    {
      "inputs": [],
      "name": "MINTER_ROLE",
      "outputs": [
        {
          "internalType": "bytes32",
          "name": "",
          "type": "bytes32"
        }
      ],
      "stateMutability": "view",
      "type": "function"
    },
    {
      "inputs": [
        {
          "internalType": "address",
          "name": "account",
          "type": "address"
        }
      ],
      "name": "addAdmin",
      "outputs": [],
      "stateMutability": "nonpayable",
      "type": "function"
    },
    {
      "inputs": [
        {
          "internalType": "uint256",
          "name": "round",
          "type": "uint256"
        },
        {
          "internalType": "address[]",
          "name": "users",
          "type": "address[]"
        }
      ],
      "name": "addWhitelist",
      "outputs": [],
      "stateMutability": "nonpayable",
      "type": "function"
    },
    {
      "inputs": [],
      "name": "availableWithdrawAmount",
      "outputs": [
        {
          "internalType": "uint256",
          "name": "amount",
          "type": "uint256"
        }
      ],
      "stateMutability": "view",
      "type": "function"
    },
    {
      "inputs": [],
      "name": "currentRound",
      "outputs": [
        {
          "internalType": "uint256",
          "name": "round",
          "type": "uint256"
        }
      ],
      "stateMutability": "view",
      "type": "function"
    },
    {
      "inputs": [],
      "name": "endTime",
      "outputs": [
        {
          "internalType": "uint256",
          "name": "",
          "type": "uint256"
        }
      ],
      "stateMutability": "view",
      "type": "function"
    },
    {
      "inputs": [
        {
          "internalType": "bytes32",
          "name": "role",
          "type": "bytes32"
        }
      ],
      "name": "getRoleAdmin",
      "outputs": [
        {
          "internalType": "bytes32",
          "name": "",
          "type": "bytes32"
        }
      ],
      "stateMutability": "view",
      "type": "function"
    },
    {
      "inputs": [
        {
          "internalType": "uint256",
          "name": "round",
          "type": "uint256"
        }
      ],
      "name": "getTgeInfos",
      "outputs": [
        {
          "internalType": "bool",
          "name": "allocated",
          "type": "bool"
        },
        {
          "internalType": "bool",
          "name": "started",
          "type": "bool"
        },
        {
          "internalType": "uint256",
          "name": "allocatedAmount",
          "type": "uint256"
        },
        {
          "internalType": "uint256",
          "name": "claimedCount",
          "type": "uint256"
        },
        {
          "internalType": "uint256",
          "name": "amount",
          "type": "uint256"
        },
        {
          "internalType": "address[]",
          "name": "whitelist",
          "type": "address[]"
        }
      ],
      "stateMutability": "view",
      "type": "function"
    },
    {
      "inputs": [
        {
          "internalType": "uint256",
          "name": "round",
          "type": "uint256"
        },
        {
          "internalType": "address",
          "name": "user",
          "type": "address"
        }
      ],
      "name": "getWhitelistInfo",
      "outputs": [
        {
          "internalType": "bool",
          "name": "joined",
          "type": "bool"
        },
        {
          "internalType": "uint256",
          "name": "claimedTime",
          "type": "uint256"
        }
      ],
      "stateMutability": "view",
      "type": "function"
    },
    {
      "inputs": [
        {
          "internalType": "bytes32",
          "name": "role",
          "type": "bytes32"
        },
        {
          "internalType": "address",
          "name": "account",
          "type": "address"
        }
      ],
      "name": "grantRole",
      "outputs": [],
      "stateMutability": "nonpayable",
      "type": "function"
    },
    {
      "inputs": [
        {
          "internalType": "bytes32",
          "name": "role",
          "type": "bytes32"
        },
        {
          "internalType": "address",
          "name": "account",
          "type": "address"
        }
      ],
      "name": "hasRole",
      "outputs": [
        {
          "internalType": "bool",
          "name": "",
          "type": "bool"
        }
      ],
      "stateMutability": "view",
      "type": "function"
    },
    {
      "inputs": [
        {
          "internalType": "uint256",
          "name": "_totalAllocatedAmount",
          "type": "uint256"
        },
        {
          "internalType": "uint256",
          "name": "_totalClaims",
          "type": "uint256"
        },
        {
          "internalType": "uint256",
          "name": "_totalTgeCount",
          "type": "uint256"
        },
        {
          "internalType": "uint256",
          "name": "_startTime",
          "type": "uint256"
        },
        {
          "internalType": "uint256",
          "name": "_periodTimesPerClaim",
          "type": "uint256"
        }
      ],
      "name": "initializeBase",
      "outputs": [],
      "stateMutability": "nonpayable",
      "type": "function"
    },
    {
      "inputs": [
        {
          "internalType": "address",
          "name": "account",
          "type": "address"
        }
      ],
      "name": "isAdmin",
      "outputs": [
        {
          "internalType": "bool",
          "name": "",
          "type": "bool"
        }
      ],
      "stateMutability": "view",
      "type": "function"
    },
    {
      "inputs": [],
      "name": "maxInputOnceTime",
      "outputs": [
        {
          "internalType": "uint256",
          "name": "",
          "type": "uint256"
        }
      ],
      "stateMutability": "view",
      "type": "function"
    },
    {
      "inputs": [],
      "name": "name",
      "outputs": [
        {
          "internalType": "string",
          "name": "",
          "type": "string"
        }
      ],
      "stateMutability": "view",
      "type": "function"
    },
    {
      "inputs": [],
      "name": "periodTimesPerClaim",
      "outputs": [
        {
          "internalType": "uint256",
          "name": "",
          "type": "uint256"
        }
      ],
      "stateMutability": "view",
      "type": "function"
    },
    {
      "inputs": [
        {
          "internalType": "address",
          "name": "account",
          "type": "address"
        }
      ],
      "name": "removeAdmin",
      "outputs": [],
      "stateMutability": "nonpayable",
      "type": "function"
    },
    {
      "inputs": [
        {
          "internalType": "bytes32",
          "name": "role",
          "type": "bytes32"
        },
        {
          "internalType": "address",
          "name": "account",
          "type": "address"
        }
      ],
      "name": "renounceRole",
      "outputs": [],
      "stateMutability": "nonpayable",
      "type": "function"
    },
    {
      "inputs": [
        {
          "internalType": "bytes32",
          "name": "role",
          "type": "bytes32"
        },
        {
          "internalType": "address",
          "name": "account",
          "type": "address"
        }
      ],
      "name": "revokeRole",
      "outputs": [],
      "stateMutability": "nonpayable",
      "type": "function"
    },
    {
      "inputs": [
        {
          "internalType": "uint256",
          "name": "_maxInputOnceTime",
          "type": "uint256"
        }
      ],
      "name": "setMaxInputOnceTimeWhitelist",
      "outputs": [],
      "stateMutability": "nonpayable",
      "type": "function"
    },
    {
      "inputs": [],
      "name": "startTime",
      "outputs": [
        {
          "internalType": "uint256",
          "name": "",
          "type": "uint256"
        }
      ],
      "stateMutability": "view",
      "type": "function"
    },
    {
      "inputs": [
        {
          "internalType": "bytes4",
          "name": "interfaceId",
          "type": "bytes4"
        }
      ],
      "name": "supportsInterface",
      "outputs": [
        {
          "internalType": "bool",
          "name": "",
          "type": "bool"
        }
      ],
      "stateMutability": "view",
      "type": "function"
    },
    {
      "inputs": [
        {
          "internalType": "uint256",
          "name": "",
          "type": "uint256"
        }
      ],
      "name": "tgeInfos",
      "outputs": [
        {
          "internalType": "bool",
          "name": "allocated",
          "type": "bool"
        },
        {
          "internalType": "bool",
          "name": "started",
          "type": "bool"
        },
        {
          "internalType": "uint256",
          "name": "allocatedAmount",
          "type": "uint256"
        },
        {
          "internalType": "uint256",
          "name": "claimedCount",
          "type": "uint256"
        },
        {
          "internalType": "uint256",
          "name": "amount",
          "type": "uint256"
        }
      ],
      "stateMutability": "view",
      "type": "function"
    },
    {
      "inputs": [],
      "name": "tos",
      "outputs": [
        {
          "internalType": "address",
          "name": "",
          "type": "address"
        }
      ],
      "stateMutability": "view",
      "type": "function"
    },
    {
      "inputs": [],
      "name": "totalAllocatedAmount",
      "outputs": [
        {
          "internalType": "uint256",
          "name": "",
          "type": "uint256"
        }
      ],
      "stateMutability": "view",
      "type": "function"
    },
    {
      "inputs": [],
      "name": "totalClaimedAmount",
      "outputs": [
        {
          "internalType": "uint256",
          "name": "",
          "type": "uint256"
        }
      ],
      "stateMutability": "view",
      "type": "function"
    },
    {
      "inputs": [],
      "name": "totalClaims",
      "outputs": [
        {
          "internalType": "uint256",
          "name": "",
          "type": "uint256"
        }
      ],
      "stateMutability": "view",
      "type": "function"
    },
    {
      "inputs": [],
      "name": "totalTgeAmount",
      "outputs": [
        {
          "internalType": "uint256",
          "name": "",
          "type": "uint256"
        }
      ],
      "stateMutability": "view",
      "type": "function"
    },
    {
      "inputs": [],
      "name": "totalTgeCount",
      "outputs": [
        {
          "internalType": "uint256",
          "name": "",
          "type": "uint256"
        }
      ],
      "stateMutability": "view",
      "type": "function"
    },
    {
      "inputs": [
        {
          "internalType": "uint256",
          "name": "round",
          "type": "uint256"
        }
      ],
      "name": "totalWhitelist",
      "outputs": [
        {
          "internalType": "uint256",
          "name": "total",
          "type": "uint256"
        }
      ],
      "stateMutability": "view",
      "type": "function"
    },
    {
      "inputs": [
        {
          "internalType": "address",
          "name": "newAdmin",
          "type": "address"
        }
      ],
      "name": "transferAdmin",
      "outputs": [],
      "stateMutability": "nonpayable",
      "type": "function"
    },
    {
      "inputs": [
        {
          "internalType": "address",
          "name": "",
          "type": "address"
        }
      ],
      "name": "userClaimedAmount",
      "outputs": [
        {
          "internalType": "uint256",
          "name": "",
          "type": "uint256"
        }
      ],
      "stateMutability": "view",
      "type": "function"
    },
    {
      "inputs": [
        {
          "internalType": "address",
          "name": "to",
          "type": "address"
        }
      ],
      "name": "withdraw",
      "outputs": [],
      "stateMutability": "nonpayable",
      "type": "function"
    }
  ],
  "bytecode": "0x608060405234801561001057600080fd5b50611c15806100206000396000f3fe608060405234801561001057600080fd5b506004361061021c5760003560e01c806370480275116101255780638aa1e44e116100ad578063ab4eb57e1161007c578063ab4eb57e146104d8578063cb1b782f146104eb578063d539139314610515578063d547741f1461053c578063d99347191461054f57600080fd5b80638aa1e44e146104a157806391d14854146104b45780639661cb0d146104c7578063a217fddf146104d057600080fd5b806378e97925116100f457806378e9792514610449578063814f26fc14610452578063875d741d1461045b57806389f395de1461046e5780638a19c8bc1461049957600080fd5b806370480275146103fb578063717048ec1461040e57806375829def1461042157806375b238fc1461043457600080fd5b80633197cbb6116101a8578063517da71911610177578063517da719146103a957806351cff8d9146103ce57806355640008146103e15780635913ec19146103ea57806361202e3b146103f357600080fd5b80633197cbb61461037b57806336568abe146103845780633ef1a1aa1461039757806341c61383146103a057600080fd5b8063248a9ca3116101ef578063248a9ca3146102dd57806324d7806c1461030e578063282c51f3146103215780632f2ff15d146103485780632f9267231461035b57600080fd5b806301ffc9a71461022157806306fdde0314610249578063166cf32c1461025e5780631785f53c146102c8575b600080fd5b61023461022f36600461176a565b610558565b60405190151581526020015b60405180910390f35b61025161058f565b604051610240919061195b565b61029e61026c366004611727565b600b60205260009081526040902080546001820154600283015460039093015460ff8084169461010090940416929085565b6040805195151586529315156020860152928401919091526060830152608082015260a001610240565b6102db6102d63660046116ed565b61061d565b005b6103006102eb366004611727565b6000908152600d602052604090206001015490565b604051908152602001610240565b61023461031c3660046116ed565b610666565b6103007f9667e80708b6eeeb0053fa0cca44e028ff548e2a9f029edfeac87c118b08b7c881565b6102db61035636600461173f565b610680565b6103006103693660046116ed565b600c6020526000908152604090205481565b61030060065481565b6102db61039236600461173f565b6106ab565b61030060005481565b61030060085481565b6103bc6103b7366004611727565b610729565b604051610240969594939291906118e5565b6102db6103dc3660046116ed565b610824565b61030060035481565b61030060075481565b610300610a12565b6102db6104093660046116ed565b610b02565b61030061041c366004611727565b610b3f565b6102db61042f3660046116ed565b610b9d565b610300600080516020611bc083398151915281565b61030060055481565b610300600a5481565b6102db610469366004611727565b610c9a565b600254610481906001600160a01b031681565b6040516001600160a01b039091168152602001610240565b610300610d34565b6102db6104af3660046117bc565b610d72565b6102346104c236600461173f565b61108b565b61030060045481565b610300600081565b6102db6104e6366004611836565b6110b6565b6104fe6104f93660046117aa565b6112be565b604080519215158352602083019190915201610240565b6103007ff0887ba65ee2024ea881d91b74c2450ef19e1557f03bed3ea9f16b037cbe2dc981565b6102db61054a36600461173f565b611371565b61030060095481565b60006001600160e01b03198216637965db0b60e01b148061058957506301ffc9a760e01b6001600160e01b03198316145b92915050565b6001805461059c90611b53565b80601f01602080910402602001604051908101604052809291908181526020018280546105c890611b53565b80156106155780601f106105ea57610100808354040283529160200191610615565b820191906000526020600020905b8154815290600101906020018083116105f857829003601f168201915b505050505081565b61062633610666565b61064b5760405162461bcd60e51b81526004016106429061198e565b60405180910390fd5b610663600080516020611bc0833981519152826106ab565b50565b6000610589600080516020611bc08339815191528361108b565b6000828152600d602052604090206001015461069c8133611397565b6106a683836113fb565b505050565b6001600160a01b038116331461071b5760405162461bcd60e51b815260206004820152602f60248201527f416363657373436f6e74726f6c3a2063616e206f6e6c792072656e6f756e636560448201526e103937b632b9903337b91039b2b63360891b6064820152608401610642565b6107258282611481565b5050565b6000806000806000606086600081116107545760405162461bcd60e51b8152600401610642906119d0565b876009548111156107775760405162461bcd60e51b815260040161064290611a07565b6000898152600b60209081526040918290208054600182015460028301546003840154600485018054885181890281018901909952808952959760ff8087169861010090970416969495939492939192909183919083018282801561080557602002820191906000526020600020905b81546001600160a01b031681526001909101906020018083116107e7575b5050505050905098509850985098509850985050505091939550919395565b61082d33610666565b6108495760405162461bcd60e51b81526004016106429061198e565b806001600160a01b0381166108a05760405162461bcd60e51b815260206004820152601e60248201527f426173655661756c7453746f726167653a207a65726f206164647265737300006044820152606401610642565b60006108aa610a12565b9050600081116109065760405162461bcd60e51b815260206004820152602160248201527f426173655661756c743a206e6f20776974686472617761626c6520616d6f756e6044820152601d60fa1b6064820152608401610642565b60025460405163a9059cbb60e01b81526001600160a01b038581166004830152602482018490529091169063a9059cbb90604401602060405180830381600087803b15801561095457600080fd5b505af1158015610968573d6000803e3d6000fd5b505050506040513d601f19601f8201168201806040525081019061098c9190611707565b6109d85760405162461bcd60e51b815260206004820152601860248201527f426173655661756c743a207472616e73666572206661696c00000000000000006044820152606401610642565b60405181815233907f7fcf532c15f0a6db0bd6d0e038bea71d30d808c7d98cb3bf7268a95bf5081b659060200160405180910390a2505050565b6002546040516370a0823160e01b815230600482015260009182916001600160a01b03909116906370a082319060240160206040518083038186803b158015610a5a57600080fd5b505afa158015610a6e573d6000803e3d6000fd5b505050506040513d601f19601f82011682018060405250810190610a929190611792565b90506000600454600354610aa69190611af5565b905080821015610af15760405162461bcd60e51b815260206004820152601660248201527510985cd955985d5b1d0e881a5b9cdd59999a58d95b9d60521b6044820152606401610642565b610afb8183611af5565b9250505090565b610b0b33610666565b610b275760405162461bcd60e51b81526004016106429061198e565b610663600080516020611bc083398151915282610680565b60008160008111610b625760405162461bcd60e51b8152600401610642906119d0565b82600954811115610b855760405162461bcd60e51b815260040161064290611a07565b5050506000908152600b602052604090206004015490565b610ba633610666565b610bc25760405162461bcd60e51b81526004016106429061198e565b6001600160a01b038116610c185760405162461bcd60e51b815260206004820152601860248201527f41636365737369626c653a207a65726f206164647265737300000000000000006044820152606401610642565b336001600160a01b0382161415610c6a5760405162461bcd60e51b815260206004820152601660248201527520b1b1b2b9b9b4b136329d1039b0b6b29030b236b4b760511b6044820152606401610642565b610c82600080516020611bc083398151915282610680565b610663600080516020611bc0833981519152336106ab565b610ca333610666565b610cbf5760405162461bcd60e51b81526004016106429061198e565b8060008111610ce05760405162461bcd60e51b8152600401610642906119d0565b6000548280821415610d2c5760405162461bcd60e51b8152602060048201526015602482015274426173655661756c743a2073616d652076616c756560581b6044820152606401610642565b505050600055565b6000600554421015610d465750600090565b600754600554610d569042611af5565b610d609190611ab6565b905080610d6c81611b8e565b91505090565b610d7b33610666565b610d975760405162461bcd60e51b81526004016106429061198e565b8260008111610db85760405162461bcd60e51b8152600401610642906119d0565b83600954811115610ddb5760405162461bcd60e51b815260040161064290611a07565b828015801590610ded57506000548111155b610e4b5760405162461bcd60e51b815260206004820152602960248201527f426173655661756c743a20636865636b20696e70757420636f756e74206174206044820152686f6e63652074696d6560b81b6064820152608401610642565b6000868152600b602052604090208054610100900460ff1615610eb05760405162461bcd60e51b815260206004820152601a60248201527f426173655661756c743a20616c726561647920737461727465640000000000006044820152606401610642565b60005b85811015611046576000878783818110610edd57634e487b7160e01b600052603260045260246000fd5b9050602002016020810190610ef291906116ed565b6001600160a01b031614158015610f5e5750816005016000888884818110610f2a57634e487b7160e01b600052603260045260246000fd5b9050602002016020810190610f3f91906116ed565b6001600160a01b0316815260208101919091526040016000205460ff16155b15611034576001826005016000898985818110610f8b57634e487b7160e01b600052603260045260246000fd5b9050602002016020810190610fa091906116ed565b6001600160a01b031681526020810191909152604001600020805460ff191691151591909117905560048201878783818110610fec57634e487b7160e01b600052603260045260246000fd5b905060200201602081019061100191906116ed565b81546001810183556000928352602090922090910180546001600160a01b0319166001600160a01b039092169190911790555b8061103e81611b8e565b915050610eb3565b507f9c9ea5277c31b2732c1577550098533c5c80dda4ee8728a4f235421651856e9687878760405161107a93929190611a48565b60405180910390a150505050505050565b6000918252600d602090815260408084206001600160a01b0393909316845291905290205460ff1690565b6110bf33610666565b6110db5760405162461bcd60e51b81526004016106429061198e565b84600081116110fc5760405162461bcd60e51b8152600401610642906119d0565b846000811161111d5760405162461bcd60e51b8152600401610642906119d0565b836000811161113e5760405162461bcd60e51b8152600401610642906119d0565b836000811161115f5760405162461bcd60e51b8152600401610642906119d0565b6002546040516370a0823160e01b81523060048201528a916001600160a01b0316906370a082319060240160206040518083038186803b1580156111a257600080fd5b505afa1580156111b6573d6000803e3d6000fd5b505050506040513d601f19601f820116820180604052508101906111da9190611792565b10156112335760405162461bcd60e51b815260206004820152602260248201527f426173655661756c743a2062616c616e63654f6620697320696e7375666669656044820152611b9d60f21b6064820152608401610642565b600354156112835760405162461bcd60e51b815260206004820152601e60248201527f426173655661756c743a20616c726561647920696e697469616c697a656400006044820152606401610642565b600389905560088890556009879055600586905560078590556112a68886611ad6565b6112b09087611a9e565b600655505050505050505050565b60008083600081116112e25760405162461bcd60e51b8152600401610642906119d0565b846009548111156113055760405162461bcd60e51b815260040161064290611a07565b6000868152600b602090815260408083206001600160a01b0389168452600581019092529091205460ff1615611366576001600160a01b0386166000908152600590910160205260409020805460019091015460ff90911694509250611368565b505b50509250929050565b6000828152600d602052604090206001015461138d8133611397565b6106a68383611481565b6113a1828261108b565b610725576113b9816001600160a01b031660146114e8565b6113c48360206114e8565b6040516020016113d5929190611870565b60408051601f198184030181529082905262461bcd60e51b82526106429160040161195b565b611405828261108b565b610725576000828152600d602090815260408083206001600160a01b03851684529091529020805460ff1916600117905561143d3390565b6001600160a01b0316816001600160a01b0316837f2f8788117e7eff1d82e926ec794901d17c78024a50270940304540a733656f0d60405160405180910390a45050565b61148b828261108b565b15610725576000828152600d602090815260408083206001600160a01b0385168085529252808320805460ff1916905551339285917ff6391f5c32d9c69d2a47ea670b442974b53935d1edc7fd64eb21e047a839171b9190a45050565b606060006114f7836002611ad6565b611502906002611a9e565b67ffffffffffffffff81111561152857634e487b7160e01b600052604160045260246000fd5b6040519080825280601f01601f191660200182016040528015611552576020820181803683370190505b509050600360fc1b8160008151811061157b57634e487b7160e01b600052603260045260246000fd5b60200101906001600160f81b031916908160001a905350600f60fb1b816001815181106115b857634e487b7160e01b600052603260045260246000fd5b60200101906001600160f81b031916908160001a90535060006115dc846002611ad6565b6115e7906001611a9e565b90505b600181111561167b576f181899199a1a9b1b9c1cb0b131b232b360811b85600f166010811061162957634e487b7160e01b600052603260045260246000fd5b1a60f81b82828151811061164d57634e487b7160e01b600052603260045260246000fd5b60200101906001600160f81b031916908160001a90535060049490941c9361167481611b3c565b90506115ea565b5083156116ca5760405162461bcd60e51b815260206004820181905260248201527f537472696e67733a20686578206c656e67746820696e73756666696369656e746044820152606401610642565b9392505050565b80356001600160a01b03811681146116e857600080fd5b919050565b6000602082840312156116fe578081fd5b6116ca826116d1565b600060208284031215611718578081fd5b815180151581146116ca578182fd5b600060208284031215611738578081fd5b5035919050565b60008060408385031215611751578081fd5b82359150611761602084016116d1565b90509250929050565b60006020828403121561177b578081fd5b81356001600160e01b0319811681146116ca578182fd5b6000602082840312156117a3578081fd5b5051919050565b60008060408385031215611751578182fd5b6000806000604084860312156117d0578081fd5b83359250602084013567ffffffffffffffff808211156117ee578283fd5b818601915086601f830112611801578283fd5b81358181111561180f578384fd5b8760208260051b8501011115611823578384fd5b6020830194508093505050509250925092565b600080600080600060a0868803121561184d578081fd5b505083359560208501359550604085013594606081013594506080013592509050565b7f416363657373436f6e74726f6c3a206163636f756e74200000000000000000008152600083516118a8816017850160208801611b0c565b7001034b99036b4b9b9b4b733903937b6329607d1b60179184019182015283516118d9816028840160208801611b0c565b01602801949350505050565b600060c08201881515835260208815158185015287604085015286606085015285608085015260c060a085015281855180845260e0860191508287019350845b8181101561194a5784516001600160a01b031683529383019391830191600101611925565b50909b9a5050505050505050505050565b602081526000825180602084015261197a816040850160208701611b0c565b601f01601f19169190910160400192915050565b60208082526022908201527f41636365737369626c653a2043616c6c6572206973206e6f7420616e2061646d60408201526134b760f11b606082015260800190565b6020808252601c908201527f426173655661756c7453746f726167653a207a65726f2076616c756500000000604082015260600190565b60208082526021908201527f426173655661756c743a2065786365656420617661696c61626c6520726f756e6040820152601960fa1b606082015260800190565b83815260406020808301829052908201839052600090849060608401835b86811015611a92576001600160a01b03611a7f856116d1565b1682529282019290820190600101611a66565b50979650505050505050565b60008219821115611ab157611ab1611ba9565b500190565b600082611ad157634e487b7160e01b81526012600452602481fd5b500490565b6000816000190483118215151615611af057611af0611ba9565b500290565b600082821015611b0757611b07611ba9565b500390565b60005b83811015611b27578181015183820152602001611b0f565b83811115611b36576000848401525b50505050565b600081611b4b57611b4b611ba9565b506000190190565b600181811c90821680611b6757607f821691505b60208210811415611b8857634e487b7160e01b600052602260045260246000fd5b50919050565b6000600019821415611ba257611ba2611ba9565b5060010190565b634e487b7160e01b600052601160045260246000fdfedf8b4c520ffe197c5343c6f5aec59570151ef9a492f2c624fd45ddde6135ec42a2646970667358221220deb8cca9a034632e3c271cbc680802989e490379fbb12756036596621902908764736f6c63430008040033",
  "linkReferences": {},
  "deployedLinkReferences": {}
}