{
  "_format": "hh-sol-artifact-1",
  "contractName": "SeigCoinageToken",
  "sourceName": "contracts/stake/tokens/SeigCoinageToken.sol",
  "abi": [
    {
      "inputs": [],
      "payable": false,
      "stateMutability": "nonpayable",
      "type": "constructor"
    },
    {
      "anonymous": false,
      "inputs": [
        {
          "indexed": true,
          "internalType": "address",
          "name": "previousOwner",
          "type": "address"
        },
        {
          "indexed": true,
          "internalType": "address",
          "name": "newOwner",
          "type": "address"
        }
      ],
      "name": "OwnershipTransferred",
      "type": "event"
    },
    {
      "constant": false,
      "inputs": [
        {
          "internalType": "uint256",
          "name": "amount",
          "type": "uint256"
        }
      ],
      "name": "addSeigniorage",
      "outputs": [],
      "payable": false,
      "stateMutability": "nonpayable",
      "type": "function"
    },
    {
      "constant": true,
      "inputs": [
        {
          "internalType": "address",
          "name": "owner",
          "type": "address"
        }
      ],
      "name": "balanceOf",
      "outputs": [
        {
          "internalType": "uint256",
          "name": "",
          "type": "uint256"
        }
      ],
      "payable": false,
      "stateMutability": "view",
      "type": "function"
    },
    {
      "constant": true,
      "inputs": [
        {
          "internalType": "address",
          "name": "",
          "type": "address"
        }
      ],
      "name": "balances",
      "outputs": [
        {
          "internalType": "uint256",
          "name": "latestBlock",
          "type": "uint256"
        },
        {
          "internalType": "uint256",
          "name": "balance",
          "type": "uint256"
        }
      ],
      "payable": false,
      "stateMutability": "view",
      "type": "function"
    },
    {
      "constant": true,
      "inputs": [],
      "name": "firstSeigBlock",
      "outputs": [
        {
          "internalType": "uint256",
          "name": "",
          "type": "uint256"
        }
      ],
      "payable": false,
      "stateMutability": "view",
      "type": "function"
    },
    {
      "constant": true,
      "inputs": [
        {
          "internalType": "address",
          "name": "owner",
          "type": "address"
        }
      ],
      "name": "getSeigniorage",
      "outputs": [
        {
          "internalType": "uint256",
          "name": "",
          "type": "uint256"
        },
        {
          "internalType": "uint256",
          "name": "",
          "type": "uint256"
        }
      ],
      "payable": false,
      "stateMutability": "view",
      "type": "function"
    },
    {
      "constant": true,
      "inputs": [],
      "name": "isOwner",
      "outputs": [
        {
          "internalType": "bool",
          "name": "",
          "type": "bool"
        }
      ],
      "payable": false,
      "stateMutability": "view",
      "type": "function"
    },
    {
      "constant": true,
      "inputs": [],
      "name": "latestSeigBlock",
      "outputs": [
        {
          "internalType": "uint256",
          "name": "",
          "type": "uint256"
        }
      ],
      "payable": false,
      "stateMutability": "view",
      "type": "function"
    },
    {
      "constant": true,
      "inputs": [],
      "name": "owner",
      "outputs": [
        {
          "internalType": "address",
          "name": "",
          "type": "address"
        }
      ],
      "payable": false,
      "stateMutability": "view",
      "type": "function"
    },
    {
      "constant": false,
      "inputs": [],
      "name": "renounceOwnership",
      "outputs": [],
      "payable": false,
      "stateMutability": "nonpayable",
      "type": "function"
    },
    {
      "constant": true,
      "inputs": [
        {
          "internalType": "uint256",
          "name": "",
          "type": "uint256"
        }
      ],
      "name": "seigHistory",
      "outputs": [
        {
          "internalType": "uint256",
          "name": "totalSupply",
          "type": "uint256"
        },
        {
          "internalType": "uint256",
          "name": "totalSeig",
          "type": "uint256"
        },
        {
          "internalType": "uint256",
          "name": "nextSeigBlock",
          "type": "uint256"
        }
      ],
      "payable": false,
      "stateMutability": "view",
      "type": "function"
    },
    {
      "constant": true,
      "inputs": [],
      "name": "totalSupply",
      "outputs": [
        {
          "internalType": "uint256",
          "name": "",
          "type": "uint256"
        }
      ],
      "payable": false,
      "stateMutability": "view",
      "type": "function"
    },
    {
      "constant": false,
      "inputs": [
        {
          "internalType": "address",
          "name": "newOwner",
          "type": "address"
        }
      ],
      "name": "transferOwnership",
      "outputs": [],
      "payable": false,
      "stateMutability": "nonpayable",
      "type": "function"
    },
    {
      "constant": false,
      "inputs": [
        {
          "internalType": "address",
          "name": "owner",
          "type": "address"
        }
      ],
      "name": "updateSeigniorage",
      "outputs": [],
      "payable": false,
      "stateMutability": "nonpayable",
      "type": "function"
    }
  ],
  "bytecode": "0x608060405234801561001057600080fd5b5060006100246001600160e01b0361007316565b600080546001600160a01b0319166001600160a01b0383169081178255604051929350917f8be0079c531659141344cd1fd0a4f28419497f9722a3daafe3b4186f6b6457e0908290a350610077565b3390565b610952806100866000396000f3fe608060405234801561001057600080fd5b50600436106100df5760003560e01c806370a082311161008c5780638da5cb5b116100665780638da5cb5b146101fb5780638f32d59b1461021f578063dbbb3cf31461023b578063f2fde38b14610261576100df565b806370a08231146101a7578063715018a6146101cd57806389ea4300146101d5576100df565b80633e33e456116100bd5780633e33e4561461015c578063605b21d7146101645780636ff71b2b1461016c576100df565b80630ce1e020146100e457806318160ddd1461010357806327e235e31461011d575b600080fd5b610101600480360360208110156100fa57600080fd5b5035610287565b005b61010b610344565b60408051918252519081900360200190f35b6101436004803603602081101561013357600080fd5b50356001600160a01b0316610359565b6040805192835260208301919091528051918290030190f35b61010b610372565b61010b610378565b6101896004803603602081101561018257600080fd5b503561037e565b60408051938452602084019290925282820152519081900360600190f35b61010b600480360360208110156101bd57600080fd5b50356001600160a01b031661039e565b6101016103f4565b610101600480360360208110156101eb57600080fd5b50356001600160a01b03166104a4565b6102036104f4565b604080516001600160a01b039092168252519081900360200190f35b610227610503565b604080519115158252519081900360200190f35b6101436004803603602081101561025157600080fd5b50356001600160a01b0316610527565b6101016004803603602081101561027757600080fd5b50356001600160a01b03166105ff565b61028f610503565b6102e0576040805162461bcd60e51b815260206004820181905260248201527f4f776e61626c653a2063616c6c6572206973206e6f7420746865206f776e6572604482015290519081900360640190fd5b60035460009081526002602052604090206102f96108b5565b815461030b908463ffffffff61066416565b81526020808201938452436002938401819055600381905560009081529083905260409081902082518155935160018501550151910155565b60035460009081526002602052604090205490565b6001602081905260009182526040909120805491015482565b60035481565b60045481565b600260208190526000918252604090912080546001820154919092015483565b6001600160a01b0381166000908152600160208190526040822090810154600354825410156103ed576000806103d386610527565b90925090506103e8838363ffffffff61066416565b925050505b9392505050565b6103fc610503565b61044d576040805162461bcd60e51b815260206004820181905260248201527f4f776e61626c653a2063616c6c6572206973206e6f7420746865206f776e6572604482015290519081900360640190fd5b600080546040516001600160a01b03909116907f8be0079c531659141344cd1fd0a4f28419497f9722a3daafe3b4186f6b6457e0908390a36000805473ffffffffffffffffffffffffffffffffffffffff19169055565b6000806104b083610527565b6001600160a01b038516600090815260016020819052604090912082815590810154929450909250906104e9908463ffffffff61066416565b600190910155505050565b6000546001600160a01b031690565b600080546001600160a01b03166105186106c7565b6001600160a01b031614905090565b6001600160a01b038116600090815260016020818152604080842080548552600292839052908420918201549281015482548594859492909185905b83156105ef57600084815260026020526040812060018101549091906105b19084906105a590610599898e63ffffffff61066416565b9063ffffffff6106cb16565b9063ffffffff61072416565b90506105ca82600101548461066490919063ffffffff16565b92506105dc898263ffffffff61066416565b9850859350816002015495505050610563565b5094965093945050505050915091565b610607610503565b610658576040805162461bcd60e51b815260206004820181905260248201527f4f776e61626c653a2063616c6c6572206973206e6f7420746865206f776e6572604482015290519081900360640190fd5b61066181610766565b50565b6000828201838110156106be576040805162461bcd60e51b815260206004820152601b60248201527f536166654d6174683a206164646974696f6e206f766572666c6f770000000000604482015290519081900360640190fd5b90505b92915050565b3390565b6000826106da575060006106c1565b828202828482816106e757fe5b04146106be5760405162461bcd60e51b81526004018080602001828103825260218152602001806108fd6021913960400191505060405180910390fd5b60006106be83836040518060400160405280601a81526020017f536166654d6174683a206469766973696f6e206279207a65726f000000000000815250610813565b6001600160a01b0381166107ab5760405162461bcd60e51b81526004018080602001828103825260268152602001806108d76026913960400191505060405180910390fd5b600080546040516001600160a01b03808516939216917f8be0079c531659141344cd1fd0a4f28419497f9722a3daafe3b4186f6b6457e091a36000805473ffffffffffffffffffffffffffffffffffffffff19166001600160a01b0392909216919091179055565b6000818361089f5760405162461bcd60e51b81526004018080602001828103825283818151815260200191508051906020019080838360005b8381101561086457818101518382015260200161084c565b50505050905090810190601f1680156108915780820380516001836020036101000a031916815260200191505b509250505060405180910390fd5b5060008385816108ab57fe5b0495945050505050565b6040518060600160405280600081526020016000815260200160008152509056fe4f776e61626c653a206e6577206f776e657220697320746865207a65726f2061646472657373536166654d6174683a206d756c7469706c69636174696f6e206f766572666c6f77a265627a7a72315820704418191e901853b22c693dd554237bc31c32382a0cb355ea3121e861c8138a64736f6c634300050c0032",
  "linkReferences": {},
  "deployedLinkReferences": {}
}