{
  "_format": "hh-sol-artifact-1",
  "contractName": "StakeFactory",
  "sourceName": "contracts/factory/StakeFactory.sol",
  "abi": [
    {
      "inputs": [
        {
          "internalType": "address",
          "name": "_stakeSimpleFactory",
          "type": "address"
        },
        {
          "internalType": "address",
          "name": "_stakeTONFactory",
          "type": "address"
        },
        {
          "internalType": "address",
          "name": "_stakeUniswapV3Factory",
          "type": "address"
        }
      ],
      "stateMutability": "nonpayable",
      "type": "constructor"
    },
    {
      "anonymous": false,
      "inputs": [
        {
          "indexed": true,
          "internalType": "bytes32",
          "name": "role",
          "type": "bytes32"
        },
        {
          "indexed": true,
          "internalType": "bytes32",
          "name": "previousAdminRole",
          "type": "bytes32"
        },
        {
          "indexed": true,
          "internalType": "bytes32",
          "name": "newAdminRole",
          "type": "bytes32"
        }
      ],
      "name": "RoleAdminChanged",
      "type": "event"
    },
    {
      "anonymous": false,
      "inputs": [
        {
          "indexed": true,
          "internalType": "bytes32",
          "name": "role",
          "type": "bytes32"
        },
        {
          "indexed": true,
          "internalType": "address",
          "name": "account",
          "type": "address"
        },
        {
          "indexed": true,
          "internalType": "address",
          "name": "sender",
          "type": "address"
        }
      ],
      "name": "RoleGranted",
      "type": "event"
    },
    {
      "anonymous": false,
      "inputs": [
        {
          "indexed": true,
          "internalType": "bytes32",
          "name": "role",
          "type": "bytes32"
        },
        {
          "indexed": true,
          "internalType": "address",
          "name": "account",
          "type": "address"
        },
        {
          "indexed": true,
          "internalType": "address",
          "name": "sender",
          "type": "address"
        }
      ],
      "name": "RoleRevoked",
      "type": "event"
    },
    {
      "inputs": [],
      "name": "ADMIN_ROLE",
      "outputs": [
        {
          "internalType": "bytes32",
          "name": "",
          "type": "bytes32"
        }
      ],
      "stateMutability": "view",
      "type": "function"
    },
    {
      "inputs": [],
      "name": "BURNER_ROLE",
      "outputs": [
        {
          "internalType": "bytes32",
          "name": "",
          "type": "bytes32"
        }
      ],
      "stateMutability": "view",
      "type": "function"
    },
    {
      "inputs": [],
      "name": "DEFAULT_ADMIN_ROLE",
      "outputs": [
        {
          "internalType": "bytes32",
          "name": "",
          "type": "bytes32"
        }
      ],
      "stateMutability": "view",
      "type": "function"
    },
    {
      "inputs": [],
      "name": "MINTER_ROLE",
      "outputs": [
        {
          "internalType": "bytes32",
          "name": "",
          "type": "bytes32"
        }
      ],
      "stateMutability": "view",
      "type": "function"
    },
    {
      "inputs": [
        {
          "internalType": "address",
          "name": "account",
          "type": "address"
        }
      ],
      "name": "addAdmin",
      "outputs": [],
      "stateMutability": "nonpayable",
      "type": "function"
    },
    {
      "inputs": [
        {
          "internalType": "uint256",
          "name": "stakeType",
          "type": "uint256"
        },
        {
          "internalType": "address[4]",
          "name": "_addr",
          "type": "address[4]"
        },
        {
          "internalType": "address",
          "name": "registry",
          "type": "address"
        },
        {
          "internalType": "uint256[3]",
          "name": "_intdata",
          "type": "uint256[3]"
        }
      ],
      "name": "create",
      "outputs": [
        {
          "internalType": "address",
          "name": "",
          "type": "address"
        }
      ],
      "stateMutability": "nonpayable",
      "type": "function"
    },
    {
      "inputs": [
        {
          "internalType": "uint256",
          "name": "",
          "type": "uint256"
        }
      ],
      "name": "factory",
      "outputs": [
        {
          "internalType": "address",
          "name": "",
          "type": "address"
        }
      ],
      "stateMutability": "view",
      "type": "function"
    },
    {
      "inputs": [
        {
          "internalType": "bytes32",
          "name": "role",
          "type": "bytes32"
        }
      ],
      "name": "getRoleAdmin",
      "outputs": [
        {
          "internalType": "bytes32",
          "name": "",
          "type": "bytes32"
        }
      ],
      "stateMutability": "view",
      "type": "function"
    },
    {
      "inputs": [
        {
          "internalType": "bytes32",
          "name": "role",
          "type": "bytes32"
        },
        {
          "internalType": "uint256",
          "name": "index",
          "type": "uint256"
        }
      ],
      "name": "getRoleMember",
      "outputs": [
        {
          "internalType": "address",
          "name": "",
          "type": "address"
        }
      ],
      "stateMutability": "view",
      "type": "function"
    },
    {
      "inputs": [
        {
          "internalType": "bytes32",
          "name": "role",
          "type": "bytes32"
        }
      ],
      "name": "getRoleMemberCount",
      "outputs": [
        {
          "internalType": "uint256",
          "name": "",
          "type": "uint256"
        }
      ],
      "stateMutability": "view",
      "type": "function"
    },
    {
      "inputs": [
        {
          "internalType": "bytes32",
          "name": "role",
          "type": "bytes32"
        },
        {
          "internalType": "address",
          "name": "account",
          "type": "address"
        }
      ],
      "name": "grantRole",
      "outputs": [],
      "stateMutability": "nonpayable",
      "type": "function"
    },
    {
      "inputs": [
        {
          "internalType": "bytes32",
          "name": "role",
          "type": "bytes32"
        },
        {
          "internalType": "address",
          "name": "account",
          "type": "address"
        }
      ],
      "name": "hasRole",
      "outputs": [
        {
          "internalType": "bool",
          "name": "",
          "type": "bool"
        }
      ],
      "stateMutability": "view",
      "type": "function"
    },
    {
      "inputs": [
        {
          "internalType": "address",
          "name": "account",
          "type": "address"
        }
      ],
      "name": "isAdmin",
      "outputs": [
        {
          "internalType": "bool",
          "name": "",
          "type": "bool"
        }
      ],
      "stateMutability": "view",
      "type": "function"
    },
    {
      "inputs": [
        {
          "internalType": "address",
          "name": "account",
          "type": "address"
        }
      ],
      "name": "removeAdmin",
      "outputs": [],
      "stateMutability": "nonpayable",
      "type": "function"
    },
    {
      "inputs": [
        {
          "internalType": "bytes32",
          "name": "role",
          "type": "bytes32"
        },
        {
          "internalType": "address",
          "name": "account",
          "type": "address"
        }
      ],
      "name": "renounceRole",
      "outputs": [],
      "stateMutability": "nonpayable",
      "type": "function"
    },
    {
      "inputs": [
        {
          "internalType": "bytes32",
          "name": "role",
          "type": "bytes32"
        },
        {
          "internalType": "address",
          "name": "account",
          "type": "address"
        }
      ],
      "name": "revokeRole",
      "outputs": [],
      "stateMutability": "nonpayable",
      "type": "function"
    },
    {
      "inputs": [
        {
          "internalType": "uint256",
          "name": "_stakeType",
          "type": "uint256"
        },
        {
          "internalType": "address",
          "name": "_factory",
          "type": "address"
        }
      ],
      "name": "setFactoryByStakeType",
      "outputs": [],
      "stateMutability": "nonpayable",
      "type": "function"
    },
    {
      "inputs": [
        {
          "internalType": "address",
          "name": "newAdmin",
          "type": "address"
        }
      ],
      "name": "transferAdmin",
      "outputs": [],
      "stateMutability": "nonpayable",
      "type": "function"
    }
  ],
  "bytecode": "0x60806040523480156200001157600080fd5b5060405162001b2d38038062001b2d833981810160405260608110156200003757600080fd5b81019080805190602001909291908051906020019092919080519060200190929190505050600073ffffffffffffffffffffffffffffffffffffffff168373ffffffffffffffffffffffffffffffffffffffff1614158015620000c75750600073ffffffffffffffffffffffffffffffffffffffff168273ffffffffffffffffffffffffffffffffffffffff1614155b6200013a576040517f08c379a00000000000000000000000000000000000000000000000000000000081526004018080602001828103825260178152602001807f5374616b65466163746f72793a20696e6974206661696c00000000000000000081525060200191505060405180910390fd5b816001600080815260200190815260200160002060006101000a81548173ffffffffffffffffffffffffffffffffffffffff021916908373ffffffffffffffffffffffffffffffffffffffff16021790555082600160006001815260200190815260200160002060006101000a81548173ffffffffffffffffffffffffffffffffffffffff021916908373ffffffffffffffffffffffffffffffffffffffff16021790555080600160006002815260200190815260200160002060006101000a81548173ffffffffffffffffffffffffffffffffffffffff021916908373ffffffffffffffffffffffffffffffffffffffff160217905550620002647fdf8b4c520ffe197c5343c6f5aec59570151ef9a492f2c624fd45ddde6135ec42806200029f60201b60201c565b620002967fdf8b4c520ffe197c5343c6f5aec59570151ef9a492f2c624fd45ddde6135ec42336200030160201b60201c565b50505062000497565b8060008084815260200190815260200160002060020154837fbd79b86ffe0ab8e8776151514217cd7cacd52c909f66475c3af44e129f0b00ff60405160405180910390a480600080848152602001908152602001600020600201819055505050565b6200031382826200031760201b60201c565b5050565b6200034581600080858152602001908152602001600020600001620003ba60201b620011821790919060201c565b15620003b6576200035b620003f260201b60201c565b73ffffffffffffffffffffffffffffffffffffffff168173ffffffffffffffffffffffffffffffffffffffff16837f2f8788117e7eff1d82e926ec794901d17c78024a50270940304540a733656f0d60405160405180910390a45b5050565b6000620003ea836000018373ffffffffffffffffffffffffffffffffffffffff1660001b620003fa60201b60201c565b905092915050565b600033905090565b60006200040e83836200047460201b60201c565b620004695782600001829080600181540180825580915050600190039060005260206000200160009091909190915055826000018054905083600101600084815260200190815260200160002081905550600190506200046e565b600090505b92915050565b600080836001016000848152602001908152602001600020541415905092915050565b61168680620004a76000396000f3fe608060405234801561001057600080fd5b50600436106100f65760003560e01c806375829def1161009257806375829def146103be57806375b238fc1461040257806378e999b9146104205780639010d07c1461046e57806391d14854146104d0578063a217fddf14610534578063ca15c87314610552578063d539139314610594578063d547741f146105b2576100f6565b8063115c289b146100fb5780631785f53c1461018857806322e3dec0146101cc578063248a9ca31461022457806324d7806c14610266578063282c51f3146102c05780632f2ff15d146102de57806336568abe1461032c578063704802751461037a575b600080fd5b61015c600480360361012081101561011257600080fd5b810190808035906020019092919080608001909192919290803573ffffffffffffffffffffffffffffffffffffffff16906020019092919080606001909192919290505050610600565b604051808273ffffffffffffffffffffffffffffffffffffffff16815260200191505060405180910390f35b6101ca6004803603602081101561019e57600080fd5b81019080803573ffffffffffffffffffffffffffffffffffffffff1690602001909291905050506109ee565b005b6101f8600480360360208110156101e257600080fd5b8101908080359060200190929190505050610a79565b604051808273ffffffffffffffffffffffffffffffffffffffff16815260200191505060405180910390f35b6102506004803603602081101561023a57600080fd5b8101908080359060200190929190505050610aac565b6040518082815260200191505060405180910390f35b6102a86004803603602081101561027c57600080fd5b81019080803573ffffffffffffffffffffffffffffffffffffffff169060200190929190505050610acb565b60405180821515815260200191505060405180910390f35b6102c8610afe565b6040518082815260200191505060405180910390f35b61032a600480360360408110156102f457600080fd5b8101908080359060200190929190803573ffffffffffffffffffffffffffffffffffffffff169060200190929190505050610b22565b005b6103786004803603604081101561034257600080fd5b8101908080359060200190929190803573ffffffffffffffffffffffffffffffffffffffff169060200190929190505050610bab565b005b6103bc6004803603602081101561039057600080fd5b81019080803573ffffffffffffffffffffffffffffffffffffffff169060200190929190505050610c44565b005b610400600480360360208110156103d457600080fd5b81019080803573ffffffffffffffffffffffffffffffffffffffff169060200190929190505050610ccf565b005b61040a610ec9565b6040518082815260200191505060405180910390f35b61046c6004803603604081101561043657600080fd5b8101908080359060200190929190803573ffffffffffffffffffffffffffffffffffffffff169060200190929190505050610eed565b005b6104a46004803603604081101561048457600080fd5b810190808035906020019092919080359060200190929190505050611046565b604051808273ffffffffffffffffffffffffffffffffffffffff16815260200191505060405180910390f35b61051c600480360360408110156104e657600080fd5b8101908080359060200190929190803573ffffffffffffffffffffffffffffffffffffffff169060200190929190505050611077565b60405180821515815260200191505060405180910390f35b61053c6110a8565b6040518082815260200191505060405180910390f35b61057e6004803603602081101561056857600080fd5b81019080803590602001909291905050506110af565b6040518082815260200191505060405180910390f35b61059c6110d5565b6040518082815260200191505060405180910390f35b6105fe600480360360408110156105c857600080fd5b8101908080359060200190929190803573ffffffffffffffffffffffffffffffffffffffff1690602001909291905050506110f9565b005b600061060b33610acb565b610660576040517f08c379a00000000000000000000000000000000000000000000000000000000081526004018080602001828103825260228152602001806115d06022913960400191505060405180910390fd5b600073ffffffffffffffffffffffffffffffffffffffff166001600087815260200190815260200160002060009054906101000a900473ffffffffffffffffffffffffffffffffffffffff1673ffffffffffffffffffffffffffffffffffffffff161415610736576040517f08c379a000000000000000000000000000000000000000000000000000000000815260040180806020018281038252601b8152602001807f5374616b65466163746f72793a207a65726f20666163746f727920000000000081525060200191505060405180910390fd5b600073ffffffffffffffffffffffffffffffffffffffff168460026004811061075b57fe5b602002013573ffffffffffffffffffffffffffffffffffffffff1673ffffffffffffffffffffffffffffffffffffffff161415610800576040517f08c379a00000000000000000000000000000000000000000000000000000000081526004018080602001828103825260188152602001807f5374616b65466163746f72793a207661756c74207a65726f000000000000000081525060200191505060405180910390fd5b60006001600087815260200190815260200160002060009054906101000a900473ffffffffffffffffffffffffffffffffffffffff1673ffffffffffffffffffffffffffffffffffffffff1663ba3d3045868686336040518563ffffffff1660e01b81526004018085600460200280828437600081840152601f19601f8201169050808301925050508473ffffffffffffffffffffffffffffffffffffffff16815260200183600360200280828437600081840152601f19601f8201169050808301925050508273ffffffffffffffffffffffffffffffffffffffff168152602001945050505050602060405180830381600087803b15801561090257600080fd5b505af1158015610916573d6000803e3d6000fd5b505050506040513d602081101561092c57600080fd5b81019080805190602001909291905050509050600073ffffffffffffffffffffffffffffffffffffffff168173ffffffffffffffffffffffffffffffffffffffff1614156109e2576040517f08c379a00000000000000000000000000000000000000000000000000000000081526004018080602001828103825260188152602001807f5374616b65466163746f72793a2070726f7879207a65726f000000000000000081525060200191505060405180910390fd5b80915050949350505050565b6109f733610acb565b610a4c576040517f08c379a00000000000000000000000000000000000000000000000000000000081526004018080602001828103825260228152602001806115d06022913960400191505060405180910390fd5b610a767fdf8b4c520ffe197c5343c6f5aec59570151ef9a492f2c624fd45ddde6135ec4282610bab565b50565b60016020528060005260406000206000915054906101000a900473ffffffffffffffffffffffffffffffffffffffff1681565b6000806000838152602001908152602001600020600201549050919050565b6000610af77fdf8b4c520ffe197c5343c6f5aec59570151ef9a492f2c624fd45ddde6135ec4283611077565b9050919050565b7f9667e80708b6eeeb0053fa0cca44e028ff548e2a9f029edfeac87c118b08b7c881565b610b4860008084815260200190815260200160002060020154610b436111b2565b611077565b610b9d576040517f08c379a000000000000000000000000000000000000000000000000000000000815260040180806020018281038252602f8152602001806115a1602f913960400191505060405180910390fd5b610ba782826111ba565b5050565b610bb36111b2565b73ffffffffffffffffffffffffffffffffffffffff168173ffffffffffffffffffffffffffffffffffffffff1614610c36576040517f08c379a000000000000000000000000000000000000000000000000000000000815260040180806020018281038252602f815260200180611622602f913960400191505060405180910390fd5b610c40828261124d565b5050565b610c4d33610acb565b610ca2576040517f08c379a00000000000000000000000000000000000000000000000000000000081526004018080602001828103825260228152602001806115d06022913960400191505060405180910390fd5b610ccc7fdf8b4c520ffe197c5343c6f5aec59570151ef9a492f2c624fd45ddde6135ec4282610b22565b50565b610cd833610acb565b610d2d576040517f08c379a00000000000000000000000000000000000000000000000000000000081526004018080602001828103825260228152602001806115d06022913960400191505060405180910390fd5b600073ffffffffffffffffffffffffffffffffffffffff168173ffffffffffffffffffffffffffffffffffffffff161415610dd0576040517f08c379a00000000000000000000000000000000000000000000000000000000081526004018080602001828103825260188152602001807f41636365737369626c653a207a65726f2061646472657373000000000000000081525060200191505060405180910390fd5b8073ffffffffffffffffffffffffffffffffffffffff163373ffffffffffffffffffffffffffffffffffffffff161415610e72576040517f08c379a00000000000000000000000000000000000000000000000000000000081526004018080602001828103825260168152602001807f41636365737369626c653a2073616d652061646d696e0000000000000000000081525060200191505060405180910390fd5b610e9c7fdf8b4c520ffe197c5343c6f5aec59570151ef9a492f2c624fd45ddde6135ec4282610b22565b610ec67fdf8b4c520ffe197c5343c6f5aec59570151ef9a492f2c624fd45ddde6135ec4233610bab565b50565b7fdf8b4c520ffe197c5343c6f5aec59570151ef9a492f2c624fd45ddde6135ec4281565b610ef633610acb565b610f4b576040517f08c379a00000000000000000000000000000000000000000000000000000000081526004018080602001828103825260228152602001806115d06022913960400191505060405180910390fd5b80600073ffffffffffffffffffffffffffffffffffffffff168173ffffffffffffffffffffffffffffffffffffffff161415610fef576040517f08c379a00000000000000000000000000000000000000000000000000000000081526004018080602001828103825260128152602001807f5374616b65466163746f72793a207a65726f000000000000000000000000000081525060200191505060405180910390fd5b816001600085815260200190815260200160002060006101000a81548173ffffffffffffffffffffffffffffffffffffffff021916908373ffffffffffffffffffffffffffffffffffffffff160217905550505050565b600061106f826000808681526020019081526020016000206000016112e090919063ffffffff16565b905092915050565b60006110a0826000808681526020019081526020016000206000016112fa90919063ffffffff16565b905092915050565b6000801b81565b60006110ce60008084815260200190815260200160002060000161132a565b9050919050565b7ff0887ba65ee2024ea881d91b74c2450ef19e1557f03bed3ea9f16b037cbe2dc981565b61111f6000808481526020019081526020016000206002015461111a6111b2565b611077565b611174576040517f08c379a00000000000000000000000000000000000000000000000000000000081526004018080602001828103825260308152602001806115f26030913960400191505060405180910390fd5b61117e828261124d565b5050565b60006111aa836000018373ffffffffffffffffffffffffffffffffffffffff1660001b61133f565b905092915050565b600033905090565b6111e18160008085815260200190815260200160002060000161118290919063ffffffff16565b15611249576111ee6111b2565b73ffffffffffffffffffffffffffffffffffffffff168173ffffffffffffffffffffffffffffffffffffffff16837f2f8788117e7eff1d82e926ec794901d17c78024a50270940304540a733656f0d60405160405180910390a45b5050565b611274816000808581526020019081526020016000206000016113af90919063ffffffff16565b156112dc576112816111b2565b73ffffffffffffffffffffffffffffffffffffffff168173ffffffffffffffffffffffffffffffffffffffff16837ff6391f5c32d9c69d2a47ea670b442974b53935d1edc7fd64eb21e047a839171b60405160405180910390a45b5050565b60006112ef83600001836113df565b60001c905092915050565b6000611322836000018373ffffffffffffffffffffffffffffffffffffffff1660001b611462565b905092915050565b600061133882600001611485565b9050919050565b600061134b8383611462565b6113a45782600001829080600181540180825580915050600190039060005260206000200160009091909190915055826000018054905083600101600084815260200190815260200160002081905550600190506113a9565b600090505b92915050565b60006113d7836000018373ffffffffffffffffffffffffffffffffffffffff1660001b611496565b905092915050565b600081836000018054905011611440576040517f08c379a000000000000000000000000000000000000000000000000000000000815260040180806020018281038252602281526020018061157f6022913960400191505060405180910390fd5b82600001828154811061144f57fe5b9060005260206000200154905092915050565b600080836001016000848152602001908152602001600020541415905092915050565b600081600001805490509050919050565b6000808360010160008481526020019081526020016000205490506000811461157257600060018203905060006001866000018054905003905060008660000182815481106114e157fe5b90600052602060002001549050808760000184815481106114fe57fe5b906000526020600020018190555060018301876001016000838152602001908152602001600020819055508660000180548061153657fe5b60019003818190600052602060002001600090559055866001016000878152602001908152602001600020600090556001945050505050611578565b60009150505b9291505056fe456e756d657261626c655365743a20696e646578206f7574206f6620626f756e6473416363657373436f6e74726f6c3a2073656e646572206d75737420626520616e2061646d696e20746f206772616e7441636365737369626c653a2043616c6c6572206973206e6f7420616e2061646d696e416363657373436f6e74726f6c3a2073656e646572206d75737420626520616e2061646d696e20746f207265766f6b65416363657373436f6e74726f6c3a2063616e206f6e6c792072656e6f756e636520726f6c657320666f722073656c66a264697066735822122085dd518309cd17483d090ec089338794222faa13ed41abe883baf2e43bc7b65764736f6c63430007060033",
  "linkReferences": {},
  "deployedLinkReferences": {}
}