{
  "_format": "hh-sol-artifact-1",
  "contractName": "ERC20OnApprove",
  "sourceName": "contracts/stake/tokens/ERC20OnApprove.sol",
  "abi": [
    {
      "anonymous": false,
      "inputs": [
        {
          "indexed": true,
          "internalType": "address",
          "name": "owner",
          "type": "address"
        },
        {
          "indexed": true,
          "internalType": "address",
          "name": "spender",
          "type": "address"
        },
        {
          "indexed": false,
          "internalType": "uint256",
          "name": "value",
          "type": "uint256"
        }
      ],
      "name": "Approval",
      "type": "event"
    },
    {
      "anonymous": false,
      "inputs": [
        {
          "indexed": true,
          "internalType": "address",
          "name": "from",
          "type": "address"
        },
        {
          "indexed": true,
          "internalType": "address",
          "name": "to",
          "type": "address"
        },
        {
          "indexed": false,
          "internalType": "uint256",
          "name": "value",
          "type": "uint256"
        }
      ],
      "name": "Transfer",
      "type": "event"
    },
    {
      "constant": true,
      "inputs": [
        {
          "internalType": "address",
          "name": "owner",
          "type": "address"
        },
        {
          "internalType": "address",
          "name": "spender",
          "type": "address"
        }
      ],
      "name": "allowance",
      "outputs": [
        {
          "internalType": "uint256",
          "name": "",
          "type": "uint256"
        }
      ],
      "payable": false,
      "stateMutability": "view",
      "type": "function"
    },
    {
      "constant": false,
      "inputs": [
        {
          "internalType": "address",
          "name": "spender",
          "type": "address"
        },
        {
          "internalType": "uint256",
          "name": "amount",
          "type": "uint256"
        }
      ],
      "name": "approve",
      "outputs": [
        {
          "internalType": "bool",
          "name": "",
          "type": "bool"
        }
      ],
      "payable": false,
      "stateMutability": "nonpayable",
      "type": "function"
    },
    {
      "constant": false,
      "inputs": [
        {
          "internalType": "address",
          "name": "spender",
          "type": "address"
        },
        {
          "internalType": "uint256",
          "name": "amount",
          "type": "uint256"
        },
        {
          "internalType": "bytes",
          "name": "data",
          "type": "bytes"
        }
      ],
      "name": "approveAndCall",
      "outputs": [
        {
          "internalType": "bool",
          "name": "",
          "type": "bool"
        }
      ],
      "payable": false,
      "stateMutability": "nonpayable",
      "type": "function"
    },
    {
      "constant": true,
      "inputs": [
        {
          "internalType": "address",
          "name": "account",
          "type": "address"
        }
      ],
      "name": "balanceOf",
      "outputs": [
        {
          "internalType": "uint256",
          "name": "",
          "type": "uint256"
        }
      ],
      "payable": false,
      "stateMutability": "view",
      "type": "function"
    },
    {
      "constant": false,
      "inputs": [
        {
          "internalType": "address",
          "name": "spender",
          "type": "address"
        },
        {
          "internalType": "uint256",
          "name": "subtractedValue",
          "type": "uint256"
        }
      ],
      "name": "decreaseAllowance",
      "outputs": [
        {
          "internalType": "bool",
          "name": "",
          "type": "bool"
        }
      ],
      "payable": false,
      "stateMutability": "nonpayable",
      "type": "function"
    },
    {
      "constant": false,
      "inputs": [
        {
          "internalType": "address",
          "name": "spender",
          "type": "address"
        },
        {
          "internalType": "uint256",
          "name": "addedValue",
          "type": "uint256"
        }
      ],
      "name": "increaseAllowance",
      "outputs": [
        {
          "internalType": "bool",
          "name": "",
          "type": "bool"
        }
      ],
      "payable": false,
      "stateMutability": "nonpayable",
      "type": "function"
    },
    {
      "constant": true,
      "inputs": [],
      "name": "totalSupply",
      "outputs": [
        {
          "internalType": "uint256",
          "name": "",
          "type": "uint256"
        }
      ],
      "payable": false,
      "stateMutability": "view",
      "type": "function"
    },
    {
      "constant": false,
      "inputs": [
        {
          "internalType": "address",
          "name": "recipient",
          "type": "address"
        },
        {
          "internalType": "uint256",
          "name": "amount",
          "type": "uint256"
        }
      ],
      "name": "transfer",
      "outputs": [
        {
          "internalType": "bool",
          "name": "",
          "type": "bool"
        }
      ],
      "payable": false,
      "stateMutability": "nonpayable",
      "type": "function"
    },
    {
      "constant": false,
      "inputs": [
        {
          "internalType": "address",
          "name": "sender",
          "type": "address"
        },
        {
          "internalType": "address",
          "name": "recipient",
          "type": "address"
        },
        {
          "internalType": "uint256",
          "name": "amount",
          "type": "uint256"
        }
      ],
      "name": "transferFrom",
      "outputs": [
        {
          "internalType": "bool",
          "name": "",
          "type": "bool"
        }
      ],
      "payable": false,
      "stateMutability": "nonpayable",
      "type": "function"
    }
  ],
  "bytecode": "0x6080604052610e32806100136000396000f3fe608060405234801561001057600080fd5b50600436106100a35760003560e01c806370a0823111610076578063a9059cbb1161005b578063a9059cbb146101b6578063cae9ca51146101e2578063dd62ed3e1461029d576100a3565b806370a0823114610164578063a457c2d71461018a576100a3565b8063095ea7b3146100a857806318160ddd146100e857806323b872dd146101025780633950935114610138575b600080fd5b6100d4600480360360408110156100be57600080fd5b506001600160a01b0381351690602001356102cb565b604080519115158252519081900360200190f35b6100f06102e8565b60408051918252519081900360200190f35b6100d46004803603606081101561011857600080fd5b506001600160a01b038135811691602081013590911690604001356102ee565b6100d46004803603604081101561014e57600080fd5b506001600160a01b03813516906020013561037b565b6100f06004803603602081101561017a57600080fd5b50356001600160a01b03166103cf565b6100d4600480360360408110156101a057600080fd5b506001600160a01b0381351690602001356103ea565b6100d4600480360360408110156101cc57600080fd5b506001600160a01b038135169060200135610458565b6100d4600480360360608110156101f857600080fd5b6001600160a01b038235169160208101359181019060608101604082013564010000000081111561022857600080fd5b82018360208201111561023a57600080fd5b8035906020019184600183028401116401000000008311171561025c57600080fd5b91908080601f01602080910402602001604051908101604052809392919081815260200183838082843760009201919091525092955061046c945050505050565b6100f0600480360360408110156102b357600080fd5b506001600160a01b038135811691602001351661048d565b60006102df6102d86104b8565b84846104bc565b50600192915050565b60025490565b60006102fb8484846105a8565b610371846103076104b8565b61036c85604051806060016040528060288152602001610d40602891396001600160a01b038a166000908152600160205260408120906103456104b8565b6001600160a01b03168152602081019190915260400160002054919063ffffffff61070416565b6104bc565b5060019392505050565b60006102df6103886104b8565b8461036c85600160006103996104b8565b6001600160a01b03908116825260208083019390935260409182016000908120918c16815292529020549063ffffffff61079b16565b6001600160a01b031660009081526020819052604090205490565b60006102df6103f76104b8565b8461036c85604051806060016040528060258152602001610dd960259139600160006104216104b8565b6001600160a01b03908116825260208083019390935260409182016000908120918d1681529252902054919063ffffffff61070416565b60006102df6104656104b8565b84846105a8565b600061047884846102cb565b61048157600080fd5b610371338585856107fc565b6001600160a01b03918216600090815260016020908152604080832093909416825291909152205490565b3390565b6001600160a01b0383166105015760405162461bcd60e51b8152600401808060200182810382526024815260200180610d8d6024913960400191505060405180910390fd5b6001600160a01b0382166105465760405162461bcd60e51b8152600401808060200182810382526022815260200180610cc76022913960400191505060405180910390fd5b6001600160a01b03808416600081815260016020908152604080832094871680845294825291829020859055815185815291517f8c5be1e5ebec7d5bd14f71427d1e84f3dd0314c0f7b2291e5b200ac8c7c3b9259281900390910190a3505050565b6001600160a01b0383166105ed5760405162461bcd60e51b8152600401808060200182810382526025815260200180610d686025913960400191505060405180910390fd5b6001600160a01b0382166106325760405162461bcd60e51b8152600401808060200182810382526023815260200180610ca46023913960400191505060405180910390fd5b61067581604051806060016040528060268152602001610d1a602691396001600160a01b038616600090815260208190526040902054919063ffffffff61070416565b6001600160a01b0380851660009081526020819052604080822093909355908416815220546106aa908263ffffffff61079b16565b6001600160a01b038084166000818152602081815260409182902094909455805185815290519193928716927fddf252ad1be2c89b69c2b068fc378daa952ba7f163c4a11628f55a4df523b3ef92918290030190a3505050565b600081848411156107935760405162461bcd60e51b81526004018080602001828103825283818151815260200191508051906020019080838360005b83811015610758578181015183820152602001610740565b50505050905090810190601f1680156107855780820380516001836020036101000a031916815260200191505b509250505060405180910390fd5b505050900390565b6000828201838110156107f5576040805162461bcd60e51b815260206004820152601b60248201527f536166654d6174683a206164646974696f6e206f766572666c6f770000000000604482015290519081900360640190fd5b9392505050565b7f4273ca16000000000000000000000000000000000000000000000000000000006108278482610ab4565b6108625760405162461bcd60e51b8152600401808060200182810382526031815260200180610ce96031913960400191505060405180910390fd5b60006060856001600160a01b0316838888888860405160240180856001600160a01b03166001600160a01b03168152602001846001600160a01b03166001600160a01b0316815260200183815260200180602001828103825283818151815260200191508051906020019080838360005b838110156108eb5781810151838201526020016108d3565b50505050905090810190601f1680156109185780820380516001836020036101000a031916815260200191505b5060408051601f198184030181529181526020820180517bffffffffffffffffffffffffffffffffffffffffffffffffffffffff167fffffffff00000000000000000000000000000000000000000000000000000000909a16999099178952518151919890975087965094509250829150849050835b602083106109ad5780518252601f19909201916020918201910161098e565b6001836020036101000a0380198251168184511680821785525050505050509050019150506000604051808303816000865af19150503d8060008114610a0f576040519150601f19603f3d011682016040523d82523d6000602084013e610a14565b606091505b5091509150818190610a675760405162461bcd60e51b8152602060048201818152835160248401528351909283926044909101919085019080838360008315610758578181015183820152602001610740565b506020810151915081610aab5760405162461bcd60e51b8152600401808060200182810382526028815260200180610db16028913960400191505060405180910390fd5b50505050505050565b6000610abf83610ad0565b80156107f557506107f58383610b1c565b6000610ae3826301ffc9a760e01b610b1c565b8015610b165750610b14827fffffffff00000000000000000000000000000000000000000000000000000000610b1c565b155b92915050565b6000806000610b2b8585610b42565b91509150818015610b395750805b95945050505050565b604080517fffffffff00000000000000000000000000000000000000000000000000000000831660248083019190915282518083039091018152604490910182526020810180517bffffffffffffffffffffffffffffffffffffffffffffffffffffffff166301ffc9a760e01b1781529151815160009384939284926060926001600160a01b038a169261753092879282918083835b60208310610bf75780518252601f199092019160209182019101610bd8565b6001836020036101000a0380198251168184511680821785525050505050509050019150506000604051808303818686fa925050503d8060008114610c58576040519150601f19603f3d011682016040523d82523d6000602084013e610c5d565b606091505b5091509150602081511015610c7b5760008094509450505050610c9c565b81818060200190516020811015610c9157600080fd5b505190955093505050505b925092905056fe45524332303a207472616e7366657220746f20746865207a65726f206164647265737345524332303a20617070726f766520746f20746865207a65726f206164647265737345524332304f6e417070726f76653a207370656e64657220646f65736e277420737570706f7274206f6e417070726f766545524332303a207472616e7366657220616d6f756e7420657863656564732062616c616e636545524332303a207472616e7366657220616d6f756e74206578636565647320616c6c6f77616e636545524332303a207472616e736665722066726f6d20746865207a65726f206164647265737345524332303a20617070726f76652066726f6d20746865207a65726f206164647265737345524332304f6e417070726f76653a206661696c656420746f2063616c6c206f6e417070726f766545524332303a2064656372656173656420616c6c6f77616e63652062656c6f77207a65726fa265627a7a72315820aadf81484b4b38fe6c68cab9a2b0c5c3feab580d428ed015601d774efd2f867564736f6c634300050c0032",
  "linkReferences": {},
  "deployedLinkReferences": {}
}