{
  "contractName": "Crowdsale",
  "abi": [
    {
      "anonymous": false,
      "inputs": [
        {
          "indexed": true,
          "internalType": "bytes32",
          "name": "role",
          "type": "bytes32"
        },
        {
          "indexed": true,
          "internalType": "bytes32",
          "name": "previousAdminRole",
          "type": "bytes32"
        },
        {
          "indexed": true,
          "internalType": "bytes32",
          "name": "newAdminRole",
          "type": "bytes32"
        }
      ],
      "name": "RoleAdminChanged",
      "type": "event"
    },
    {
      "anonymous": false,
      "inputs": [
        {
          "indexed": true,
          "internalType": "bytes32",
          "name": "role",
          "type": "bytes32"
        },
        {
          "indexed": true,
          "internalType": "address",
          "name": "account",
          "type": "address"
        },
        {
          "indexed": true,
          "internalType": "address",
          "name": "sender",
          "type": "address"
        }
      ],
      "name": "RoleGranted",
      "type": "event"
    },
    {
      "anonymous": false,
      "inputs": [
        {
          "indexed": true,
          "internalType": "bytes32",
          "name": "role",
          "type": "bytes32"
        },
        {
          "indexed": true,
          "internalType": "address",
          "name": "account",
          "type": "address"
        },
        {
          "indexed": true,
          "internalType": "address",
          "name": "sender",
          "type": "address"
        }
      ],
      "name": "RoleRevoked",
      "type": "event"
    },
    {
      "anonymous": false,
      "inputs": [
        {
          "indexed": true,
          "internalType": "address",
          "name": "paytoken",
          "type": "address"
        },
        {
          "indexed": true,
          "internalType": "address",
          "name": "purchaser",
          "type": "address"
        },
        {
          "indexed": false,
          "internalType": "uint256",
          "name": "value",
          "type": "uint256"
        },
        {
          "indexed": false,
          "internalType": "uint256",
          "name": "duration",
          "type": "uint256"
        },
        {
          "indexed": false,
          "internalType": "uint256",
          "name": "amount",
          "type": "uint256"
        }
      ],
      "name": "TokenPurchase",
      "type": "event"
    },
    {
      "anonymous": false,
      "inputs": [
        {
          "indexed": true,
          "internalType": "address",
          "name": "paytoken",
          "type": "address"
        },
        {
          "indexed": true,
          "internalType": "address",
          "name": "purchaser",
          "type": "address"
        },
        {
          "indexed": false,
          "internalType": "uint256",
          "name": "value",
          "type": "uint256"
        },
        {
          "indexed": false,
          "internalType": "uint256",
          "name": "duration",
          "type": "uint256"
        },
        {
          "indexed": false,
          "internalType": "uint256",
          "name": "amount",
          "type": "uint256"
        }
      ],
      "name": "TokenRePurchase",
      "type": "event"
    },
    {
      "anonymous": false,
      "inputs": [
        {
          "indexed": true,
          "internalType": "address",
          "name": "paytoken",
          "type": "address"
        },
        {
          "indexed": true,
          "internalType": "address",
          "name": "from",
          "type": "address"
        },
        {
          "indexed": false,
          "internalType": "address",
          "name": "token",
          "type": "address"
        },
        {
          "indexed": false,
          "internalType": "uint256",
          "name": "value",
          "type": "uint256"
        }
      ],
      "name": "Withdraw",
      "type": "event"
    },
    {
      "inputs": [],
      "name": "ADMIN_ROLE",
      "outputs": [
        {
          "internalType": "bytes32",
          "name": "",
          "type": "bytes32"
        }
      ],
      "stateMutability": "view",
      "type": "function"
    },
    {
      "inputs": [],
      "name": "DEFAULT_ADMIN_ROLE",
      "outputs": [
        {
          "internalType": "bytes32",
          "name": "",
          "type": "bytes32"
        }
      ],
      "stateMutability": "view",
      "type": "function"
    },
    {
      "inputs": [
        {
          "internalType": "uint256",
          "name": "_duration",
          "type": "uint256"
        },
        {
          "internalType": "uint256",
          "name": "_ratio",
          "type": "uint256"
        }
      ],
      "name": "addDurationMax",
      "outputs": [],
      "stateMutability": "nonpayable",
      "type": "function"
    },
    {
      "inputs": [
        {
          "internalType": "uint256",
          "name": "_amount",
          "type": "uint256"
        },
        {
          "internalType": "uint256",
          "name": "_duration",
          "type": "uint256"
        }
      ],
      "name": "calculateAmountLinearRatioByDuration",
      "outputs": [
        {
          "internalType": "uint256",
          "name": "_newAmount",
          "type": "uint256"
        }
      ],
      "stateMutability": "view",
      "type": "function"
    },
    {
      "inputs": [
        {
          "internalType": "uint256",
          "name": "_amount",
          "type": "uint256"
        },
        {
          "internalType": "uint256",
          "name": "_duration",
          "type": "uint256"
        }
      ],
      "name": "calculateAmountWithRatioByDuration",
      "outputs": [
        {
          "internalType": "uint256",
          "name": "newAmount",
          "type": "uint256"
        }
      ],
      "stateMutability": "view",
      "type": "function"
    },
    {
      "inputs": [
        {
          "internalType": "uint256",
          "name": "_amount",
          "type": "uint256"
        },
        {
          "internalType": "uint256",
          "name": "_index",
          "type": "uint256"
        }
      ],
      "name": "calculateAmountWithRatioByIndex",
      "outputs": [
        {
          "internalType": "uint256",
          "name": "newAmount",
          "type": "uint256"
        }
      ],
      "stateMutability": "view",
      "type": "function"
    },
    {
      "inputs": [],
      "name": "cap",
      "outputs": [
        {
          "internalType": "uint256",
          "name": "",
          "type": "uint256"
        }
      ],
      "stateMutability": "view",
      "type": "function"
    },
    {
      "inputs": [
        {
          "internalType": "uint256",
          "name": "_cap",
          "type": "uint256"
        }
      ],
      "name": "changeCap",
      "outputs": [],
      "stateMutability": "nonpayable",
      "type": "function"
    },
    {
      "inputs": [
        {
          "internalType": "uint256",
          "name": "_defaultDuration",
          "type": "uint256"
        }
      ],
      "name": "changeDefaultDuration",
      "outputs": [],
      "stateMutability": "nonpayable",
      "type": "function"
    },
    {
      "inputs": [
        {
          "internalType": "uint256",
          "name": "_ratioType",
          "type": "uint256"
        }
      ],
      "name": "changeRewardRatioType",
      "outputs": [],
      "stateMutability": "nonpayable",
      "type": "function"
    },
    {
      "inputs": [
        {
          "internalType": "uint256",
          "name": "_startTime",
          "type": "uint256"
        },
        {
          "internalType": "uint256",
          "name": "_endTime",
          "type": "uint256"
        }
      ],
      "name": "changeStartEndTime",
      "outputs": [],
      "stateMutability": "nonpayable",
      "type": "function"
    },
    {
      "inputs": [],
      "name": "defaultDuration",
      "outputs": [
        {
          "internalType": "uint256",
          "name": "",
          "type": "uint256"
        }
      ],
      "stateMutability": "view",
      "type": "function"
    },
    {
      "inputs": [],
      "name": "endTime",
      "outputs": [
        {
          "internalType": "uint256",
          "name": "",
          "type": "uint256"
        }
      ],
      "stateMutability": "view",
      "type": "function"
    },
    {
      "inputs": [
        {
          "internalType": "uint256",
          "name": "_duration",
          "type": "uint256"
        }
      ],
      "name": "getLinearRatioByDuration",
      "outputs": [
        {
          "internalType": "uint256",
          "name": "ratio",
          "type": "uint256"
        }
      ],
      "stateMutability": "view",
      "type": "function"
    },
    {
      "inputs": [
        {
          "internalType": "uint256",
          "name": "_duration",
          "type": "uint256"
        }
      ],
      "name": "getRatioByDuration",
      "outputs": [
        {
          "internalType": "uint256",
          "name": "ratio",
          "type": "uint256"
        }
      ],
      "stateMutability": "view",
      "type": "function"
    },
    {
      "inputs": [
        {
          "internalType": "uint256",
          "name": "_index",
          "type": "uint256"
        }
      ],
      "name": "getRatioByIndex",
      "outputs": [
        {
          "internalType": "uint256",
          "name": "ratio",
          "type": "uint256"
        }
      ],
      "stateMutability": "view",
      "type": "function"
    },
    {
      "inputs": [
        {
          "internalType": "bytes32",
          "name": "role",
          "type": "bytes32"
        }
      ],
      "name": "getRoleAdmin",
      "outputs": [
        {
          "internalType": "bytes32",
          "name": "",
          "type": "bytes32"
        }
      ],
      "stateMutability": "view",
      "type": "function"
    },
    {
      "inputs": [
        {
          "internalType": "bytes32",
          "name": "role",
          "type": "bytes32"
        },
        {
          "internalType": "uint256",
          "name": "index",
          "type": "uint256"
        }
      ],
      "name": "getRoleMember",
      "outputs": [
        {
          "internalType": "address",
          "name": "",
          "type": "address"
        }
      ],
      "stateMutability": "view",
      "type": "function"
    },
    {
      "inputs": [
        {
          "internalType": "bytes32",
          "name": "role",
          "type": "bytes32"
        }
      ],
      "name": "getRoleMemberCount",
      "outputs": [
        {
          "internalType": "uint256",
          "name": "",
          "type": "uint256"
        }
      ],
      "stateMutability": "view",
      "type": "function"
    },
    {
      "inputs": [
        {
          "internalType": "bytes32",
          "name": "role",
          "type": "bytes32"
        },
        {
          "internalType": "address",
          "name": "account",
          "type": "address"
        }
      ],
      "name": "grantRole",
      "outputs": [],
      "stateMutability": "nonpayable",
      "type": "function"
    },
    {
      "inputs": [
        {
          "internalType": "bytes32",
          "name": "role",
          "type": "bytes32"
        },
        {
          "internalType": "address",
          "name": "account",
          "type": "address"
        }
      ],
      "name": "hasRole",
      "outputs": [
        {
          "internalType": "bool",
          "name": "",
          "type": "bool"
        }
      ],
      "stateMutability": "view",
      "type": "function"
    },
    {
      "inputs": [],
      "name": "maxRatio",
      "outputs": [
        {
          "internalType": "uint256",
          "name": "",
          "type": "uint256"
        }
      ],
      "stateMutability": "view",
      "type": "function"
    },
    {
      "inputs": [],
      "name": "paytoken",
      "outputs": [
        {
          "internalType": "address",
          "name": "",
          "type": "address"
        }
      ],
      "stateMutability": "view",
      "type": "function"
    },
    {
      "inputs": [],
      "name": "ratioType",
      "outputs": [
        {
          "internalType": "uint256",
          "name": "",
          "type": "uint256"
        }
      ],
      "stateMutability": "view",
      "type": "function"
    },
    {
      "inputs": [
        {
          "internalType": "uint256",
          "name": "",
          "type": "uint256"
        }
      ],
      "name": "ratios",
      "outputs": [
        {
          "internalType": "uint256",
          "name": "duration",
          "type": "uint256"
        },
        {
          "internalType": "uint256",
          "name": "ratio",
          "type": "uint256"
        }
      ],
      "stateMutability": "view",
      "type": "function"
    },
    {
      "inputs": [
        {
          "internalType": "bytes32",
          "name": "role",
          "type": "bytes32"
        },
        {
          "internalType": "address",
          "name": "account",
          "type": "address"
        }
      ],
      "name": "renounceRole",
      "outputs": [],
      "stateMutability": "nonpayable",
      "type": "function"
    },
    {
      "inputs": [
        {
          "internalType": "bytes32",
          "name": "role",
          "type": "bytes32"
        },
        {
          "internalType": "address",
          "name": "account",
          "type": "address"
        }
      ],
      "name": "revokeRole",
      "outputs": [],
      "stateMutability": "nonpayable",
      "type": "function"
    },
    {
      "inputs": [],
      "name": "startTime",
      "outputs": [
        {
          "internalType": "uint256",
          "name": "",
          "type": "uint256"
        }
      ],
      "stateMutability": "view",
      "type": "function"
    },
    {
      "inputs": [],
      "name": "token",
      "outputs": [
        {
          "internalType": "address",
          "name": "",
          "type": "address"
        }
      ],
      "stateMutability": "view",
      "type": "function"
    },
    {
      "inputs": [
        {
          "internalType": "address",
          "name": "",
          "type": "address"
        },
        {
          "internalType": "uint256",
          "name": "",
          "type": "uint256"
        }
      ],
      "name": "userLockStakedToken",
      "outputs": [
        {
          "internalType": "bool",
          "name": "released",
          "type": "bool"
        },
        {
          "internalType": "uint256",
          "name": "releaseTime",
          "type": "uint256"
        },
        {
          "internalType": "uint256",
          "name": "amount",
          "type": "uint256"
        }
      ],
      "stateMutability": "view",
      "type": "function"
    },
    {
      "inputs": [],
      "name": "weiRaised",
      "outputs": [
        {
          "internalType": "uint256",
          "name": "",
          "type": "uint256"
        }
      ],
      "stateMutability": "view",
      "type": "function"
    },
    {
      "stateMutability": "payable",
      "type": "receive"
    },
    {
      "inputs": [
        {
          "internalType": "uint256",
          "name": "_startTime",
          "type": "uint256"
        },
        {
          "internalType": "uint256",
          "name": "_endTime",
          "type": "uint256"
        },
        {
          "internalType": "address",
          "name": "_token",
          "type": "address"
        },
        {
          "internalType": "uint256",
          "name": "_cap",
          "type": "uint256"
        },
        {
          "internalType": "address",
          "name": "_paytoken",
          "type": "address"
        }
      ],
      "name": "initialize",
      "outputs": [],
      "stateMutability": "nonpayable",
      "type": "function"
    },
    {
      "inputs": [
        {
          "internalType": "uint256",
          "name": "duration",
          "type": "uint256"
        }
      ],
      "name": "buyTokens",
      "outputs": [],
      "stateMutability": "payable",
      "type": "function"
    },
    {
      "inputs": [
        {
          "internalType": "address",
          "name": "_paytoken",
          "type": "address"
        },
        {
          "internalType": "uint256",
          "name": "amount",
          "type": "uint256"
        },
        {
          "internalType": "uint256",
          "name": "duration",
          "type": "uint256"
        }
      ],
      "name": "buyTokens",
      "outputs": [],
      "stateMutability": "nonpayable",
      "type": "function"
    },
    {
      "inputs": [
        {
          "internalType": "uint256",
          "name": "_amount",
          "type": "uint256"
        },
        {
          "internalType": "uint256",
          "name": "duration",
          "type": "uint256"
        }
      ],
      "name": "validPurchase",
      "outputs": [
        {
          "internalType": "bool",
          "name": "",
          "type": "bool"
        }
      ],
      "stateMutability": "view",
      "type": "function"
    },
    {
      "inputs": [
        {
          "internalType": "uint256",
          "name": "duration",
          "type": "uint256"
        }
      ],
      "name": "validPeriod",
      "outputs": [
        {
          "internalType": "bool",
          "name": "",
          "type": "bool"
        }
      ],
      "stateMutability": "view",
      "type": "function"
    },
    {
      "inputs": [
        {
          "internalType": "uint256",
          "name": "_amount",
          "type": "uint256"
        },
        {
          "internalType": "uint256",
          "name": "duration",
          "type": "uint256"
        }
      ],
      "name": "validCap",
      "outputs": [
        {
          "internalType": "bool",
          "name": "",
          "type": "bool"
        }
      ],
      "stateMutability": "view",
      "type": "function"
    },
    {
      "inputs": [],
      "name": "hasEnded",
      "outputs": [
        {
          "internalType": "bool",
          "name": "",
          "type": "bool"
        }
      ],
      "stateMutability": "view",
      "type": "function"
    },
    {
      "inputs": [
        {
          "internalType": "uint256",
          "name": "_duration",
          "type": "uint256"
        }
      ],
      "name": "getRatio",
      "outputs": [
        {
          "internalType": "uint256",
          "name": "ratio",
          "type": "uint256"
        }
      ],
      "stateMutability": "view",
      "type": "function"
    },
    {
      "inputs": [
        {
          "internalType": "uint256",
          "name": "_amount",
          "type": "uint256"
        },
        {
          "internalType": "uint256",
          "name": "_duration",
          "type": "uint256"
        }
      ],
      "name": "calculateAmountByRatio",
      "outputs": [
        {
          "internalType": "uint256",
          "name": "ratio",
          "type": "uint256"
        }
      ],
      "stateMutability": "view",
      "type": "function"
    },
    {
      "inputs": [],
      "name": "withdraw",
      "outputs": [
        {
          "internalType": "bool",
          "name": "",
          "type": "bool"
        }
      ],
      "stateMutability": "nonpayable",
      "type": "function"
    },
    {
      "inputs": [
        {
          "internalType": "uint256",
          "name": "_duration",
          "type": "uint256"
        }
      ],
      "name": "rebuyToken",
      "outputs": [],
      "stateMutability": "nonpayable",
      "type": "function"
    },
    {
      "inputs": [],
      "name": "curBlockTimeStamp",
      "outputs": [
        {
          "internalType": "uint256",
          "name": "curTime",
          "type": "uint256"
        }
      ],
      "stateMutability": "view",
      "type": "function"
    },
    {
      "inputs": [],
      "name": "curBlockNumber",
      "outputs": [
        {
          "internalType": "uint256",
          "name": "curNumber",
          "type": "uint256"
        }
      ],
      "stateMutability": "view",
      "type": "function"
    },
    {
      "inputs": [
        {
          "internalType": "address",
          "name": "_user",
          "type": "address"
        }
      ],
      "name": "canWithdrawAmount",
      "outputs": [
        {
          "internalType": "uint256",
          "name": "validAmount",
          "type": "uint256"
        }
      ],
      "stateMutability": "view",
      "type": "function"
    },
    {
      "inputs": [
        {
          "internalType": "address",
          "name": "_user",
          "type": "address"
        }
      ],
      "name": "getAllUserLocks",
      "outputs": [
        {
          "components": [
            {
              "internalType": "bool",
              "name": "released",
              "type": "bool"
            },
            {
              "internalType": "uint256",
              "name": "releaseTime",
              "type": "uint256"
            },
            {
              "internalType": "uint256",
              "name": "amount",
              "type": "uint256"
            }
          ],
          "internalType": "struct LibTokenSale.LockAmount[]",
          "name": "",
          "type": "tuple[]"
        }
      ],
      "stateMutability": "view",
      "type": "function"
    },
    {
      "inputs": [
        {
          "internalType": "address",
          "name": "_user",
          "type": "address"
        }
      ],
      "name": "lengthAllUserLocks",
      "outputs": [
        {
          "internalType": "uint256",
          "name": "counts",
          "type": "uint256"
        }
      ],
      "stateMutability": "view",
      "type": "function"
    },
    {
      "inputs": [
        {
          "internalType": "address",
          "name": "_user",
          "type": "address"
        },
        {
          "internalType": "uint256",
          "name": "_index",
          "type": "uint256"
        }
      ],
      "name": "getUserLocks",
      "outputs": [
        {
          "components": [
            {
              "internalType": "bool",
              "name": "released",
              "type": "bool"
            },
            {
              "internalType": "uint256",
              "name": "releaseTime",
              "type": "uint256"
            },
            {
              "internalType": "uint256",
              "name": "amount",
              "type": "uint256"
            }
          ],
          "internalType": "struct LibTokenSale.LockAmount",
          "name": "",
          "type": "tuple"
        }
      ],
      "stateMutability": "view",
      "type": "function"
    }
  ],
  "bytecode": "0x608060405234801561001057600080fd5b506126d8806100206000396000f3fe6080604052600436106102975760003560e01c8063771dc86a1161015a578063c3f2aec7116100c1578063d547741f1161007a578063d547741f146107e9578063e197d21f14610809578063e420bb3514610829578063ecb70fb714610849578063ecb9e5af1461085e578063fc0c546a1461087e576102d9565b8063c3f2aec714610729578063c9a97ea614610749578063ca15c87314610769578063cdfd867814610789578063d2395dcd146107a9578063d4133894146107c9576102d9565b806390e4a0b21161011357806390e4a0b21461067f57806391135c3a1461069f57806391d14854146106b457806393de9e15146106d457806396a8fa13146106f4578063a217fddf14610714576102d9565b8063771dc86a146105bc57806378e97925146105ea578063800edb9d146105ff5780638091a7541461061f5780638a3147841461063f5780639010d07c1461065f576102d9565b80633ccfd60b116101fe57806359a2926b116101b757806359a2926b1461051b57806359c9cb171461053b57806367f86a78146105685780636b9559c01461057d57806375b238fc1461059257806376365af7146105a7576102d9565b80633ccfd60b146104535780633dd07d88146104755780634042b66f146104a457806343b0934a146104b957806346a62eaf146104db578063516b9a6c146104fb576102d9565b80632f2ff15d116102505780632f2ff15d146103b65780633197cbb6146103d657806335524cb9146103eb578063355274ea1461040b5780633610724e1461042057806336568abe14610433576102d9565b80631f03e39e146102de57806322428b65146102fe5780632334b6b414610334578063248a9ca314610361578063288936de146103815780632af7e2ea146103a1576102d9565b366102d9576002546001600160a01b03161580156102b757506000600554115b80156102c35750600034115b6102cc57600080fd5b6102d7600554610893565b005b600080fd5b3480156102ea57600080fd5b506102d76102f936600461220a565b6109e0565b34801561030a57600080fd5b5061031e61031936600461218f565b610ae0565b60405161032b91906124f2565b60405180910390f35b34801561034057600080fd5b5061035461034f36600461224d565b610b78565b60405161032b919061239d565b34801561036d57600080fd5b5061035461037c36600461220a565b610bef565b34801561038d57600080fd5b506102d761039c36600461220a565b610c07565b3480156103ad57600080fd5b50610354610c6d565b3480156103c257600080fd5b506102d76103d1366004612222565b610c73565b3480156103e257600080fd5b50610354610cda565b3480156103f757600080fd5b506102d761040636600461224d565b610ce0565b34801561041757600080fd5b50610354610e69565b6102d761042e36600461220a565b610893565b34801561043f57600080fd5b506102d761044e366004612222565b610e6f565b34801561045f57600080fd5b50610468610ed0565b60405161032b919061237a565b34801561048157600080fd5b5061049561049036600461218f565b6110d4565b60405161032b93929190612385565b3480156104b057600080fd5b5061035461111a565b3480156104c557600080fd5b506104ce611120565b60405161032b91906122db565b3480156104e757600080fd5b506103546104f636600461220a565b61112f565b34801561050757600080fd5b5061046861051636600461220a565b611154565b34801561052757600080fd5b5061046861053636600461224d565b611174565b34801561054757600080fd5b5061055b610556366004612175565b611190565b60405161032b919061232c565b34801561057457600080fd5b50610354611224565b34801561058957600080fd5b50610354611228565b34801561059e57600080fd5b5061035461122e565b3480156105b357600080fd5b50610354611240565b3480156105c857600080fd5b506105dc6105d736600461220a565b611246565b60405161032b929190612500565b3480156105f657600080fd5b50610354611274565b34801561060b57600080fd5b506102d761061a36600461220a565b61127a565b34801561062b57600080fd5b5061035461063a366004612175565b6112df565b34801561064b57600080fd5b506102d761065a36600461224d565b6113cc565b34801561066b57600080fd5b506104ce61067a36600461224d565b61146a565b34801561068b57600080fd5b5061035461069a366004612175565b611482565b3480156106ab57600080fd5b5061035461149d565b3480156106c057600080fd5b506104686106cf366004612222565b6114a1565b3480156106e057600080fd5b506102d76106ef36600461220a565b6114b9565b34801561070057600080fd5b5061035461070f36600461220a565b61151e565b34801561072057600080fd5b50610354611555565b34801561073557600080fd5b5061035461074436600461224d565b61155a565b34801561075557600080fd5b5061035461076436600461220a565b6115a4565b34801561077557600080fd5b5061035461078436600461220a565b61160f565b34801561079557600080fd5b506103546107a436600461220a565b611626565b3480156107b557600080fd5b506102d76107c43660046121b8565b61166d565b3480156107d557600080fd5b506104686107e436600461224d565b611843565b3480156107f557600080fd5b506102d7610804366004612222565b611861565b34801561081557600080fd5b5061035461082436600461224d565b6118ba565b34801561083557600080fd5b5061035461084436600461224d565b6118e1565b34801561085557600080fd5b5061046861192b565b34801561086a57600080fd5b506102d761087936600461226e565b61194b565b34801561088a57600080fd5b506104ce611a99565b6002546001600160a01b0316156108c55760405162461bcd60e51b81526004016108bc90612478565b60405180910390fd5b6108ce81611aa8565b6108ea5760405162461bcd60e51b81526004016108bc906124af565b3460006108f782846118ba565b90506109063383854201611ac0565b600780548201905560015460405163a9059cbb60e01b81526001600160a01b039091169063a9059cbb906109409033908590600401612313565b602060405180830381600087803b15801561095a57600080fd5b505af115801561096e573d6000803e3d6000fd5b505050506040513d601f19601f8201168201806040525081019061099291906121ea565b61099b57600080fd5b60405133906000907efe0e12b43090c1fc19a34aefa5cc138a4eeafc60ab800f855c730b3fb9480e906109d39086908890879061250e565b60405180910390a3505050565b60006109ee33834201611c4c565b90506109fa8183611174565b610a0357600080fd5b6000610a0f82846118ba565b600780548201905560015460405163a9059cbb60e01b81529192506001600160a01b03169063a9059cbb90610a4a9033908590600401612313565b602060405180830381600087803b158015610a6457600080fd5b505af1158015610a78573d6000803e3d6000fd5b505050506040513d601f19601f82011682018060405250810190610a9c91906121ea565b5060025460405133916001600160a01b0316907fe3c5ca330fa0d3544eabb4d5bc3f59b84c6051f1ce465724885091831d472089906109d39086908890879061250e565b610ae861213b565b6001600160a01b0383166000908152600a60205260409020548210610b0c57600080fd5b6001600160a01b0383166000908152600a60205260409020805483908110610b3057fe5b6000918252602091829020604080516060810182526003909302909101805460ff16151583526001810154938301939093526002909201549181019190915290505b92915050565b6000805b600b54811015610be85782600b8281548110610b9457fe5b90600052602060002090600202016000015410610be057670de0b6b3a7640000600b8281548110610bc157fe5b906000526020600020906002020160010154850281610bdc57fe5b0491505b600101610b7c565b5092915050565b6000818152602081905260409020600201545b919050565b610c1f600080516020612629833981519152336114a1565b610c5a5760405162461bcd60e51b815260040180806020018281038252602b815260200180612576602b913960400191505060405180910390fd5b6001811115610c6857600080fd5b600955565b60055481565b600082815260208190526040902060020154610c91906106cf611d12565b610ccc5760405162461bcd60e51b815260040180806020018281038252602f815260200180612547602f913960400191505060405180910390fd5b610cd68282611d16565b5050565b60045481565b600082118015610cf05750600081115b610d41576040805162461bcd60e51b815260206004820152601e60248201527f537465704669786564526174696f3a20696e707574206973207a65726f2e0000604482015290519081900360640190fd5b610d4a826115a4565b15610d865760405162461bcd60e51b815260040180806020018281038252602b815260200180612649602b913960400191505060405180910390fd5b600b5415610df157600b80548391906000198101908110610da357fe5b90600052602060002090600202016000015410610df15760405162461bcd60e51b815260040180806020018281038252602a8152602001806125d1602a913960400191505060405180910390fd5b6040805180820190915291825260208201908152600b805460018101825560009190915291517f0175b7a638427703f0dbe7bb9bbf987a2551717b34e79f33b5b1008d1fa01db9600290930292830155517f0175b7a638427703f0dbe7bb9bbf987a2551717b34e79f33b5b1008d1fa01dba90910155565b60065481565b610e77611d12565b6001600160a01b0316816001600160a01b031614610ec65760405162461bcd60e51b815260040180806020018281038252602f815260200180612674602f913960400191505060405180910390fd5b610cd68282611d7f565b600080610edc33611de8565b905060008111610efe5760405162461bcd60e51b81526004016108bc906123a6565b6002546001600160a01b0316610ffd57308031821115610f305760405162461bcd60e51b81526004016108bc906123fa565b6000336001600160a01b031683604051610f49906122d8565b60006040518083038185875af1925050503d8060008114610f86576040519150601f19603f3d011682016040523d82523d6000602084013e610f8b565b606091505b5050905080610fac5760405162461bcd60e51b81526004016108bc90612441565b60025460405133916001600160a01b0316907f3115d1449a7b732c986cba18244e897a450f61e1bb8d589cd2e69e6c8924f9f790610fee906000908890612313565b60405180910390a350506110cc565b60025460405163a9059cbb60e01b81526001600160a01b039091169063a9059cbb9061102f9033908590600401612313565b602060405180830381600087803b15801561104957600080fd5b505af115801561105d573d6000803e3d6000fd5b505050506040513d601f19601f8201168201806040525081019061108191906121ea565b5060025460405133916001600160a01b0316907f3115d1449a7b732c986cba18244e897a450f61e1bb8d589cd2e69e6c8924f9f7906110c39083908690612313565b60405180910390a35b600191505090565b600a60205281600052604060002081815481106110f057600080fd5b600091825260209091206003909102018054600182015460029092015460ff909116935090915083565b60075481565b6002546001600160a01b031681565b600080600954141561114b5761114482611626565b9050610c02565b611144826115a4565b600080600354421015801561116d575060045483420111155b9392505050565b600061117f82611154565b801561116d575061116d8383611843565b6001600160a01b0381166000908152600a60209081526040808320805482518185028101850190935280835260609492939192909184015b828210156112195760008481526020908190206040805160608101825260038602909201805460ff1615158352600180820154848601526002909101549183019190915290835290920191016111c8565b505050509050919050565b4390565b60095481565b60008051602061262983398151915281565b60085481565b600b818154811061125657600080fd5b60009182526020909120600290910201805460019091015490915082565b60035481565b611292600080516020612629833981519152336114a1565b6112cd5760405162461bcd60e51b815260040180806020018281038252602b815260200180612576602b913960400191505060405180910390fd5b600081116112da57600080fd5b600655565b6000805b6001600160a01b0383166000908152600a60205260409020548110156113c6576001600160a01b0383166000908152600a6020526040902080548290811061132757fe5b600091825260209091206003909102015460ff1615801561137e57506001600160a01b0383166000908152600a6020526040902080544291908390811061136a57fe5b906000526020600020906003020160010154105b156113be576001600160a01b0383166000908152600a602052604090208054829081106113a757fe5b906000526020600020906003020160020154820191505b6001016112e3565b50919050565b6113e4600080516020612629833981519152336114a1565b61141f5760405162461bcd60e51b815260040180806020018281038252602b815260200180612576602b913960400191505060405180910390fd5b60008211801561142f5750600081115b801561143a57508082105b61144357600080fd5b6003548214158061145657506004548114155b61145f57600080fd5b600391909155600455565b600082815260208190526040812061116d9083611eba565b6001600160a01b03166000908152600a602052604090205490565b4290565b600082815260208190526040812061116d9083611ec6565b6114d1600080516020612629833981519152336114a1565b61150c5760405162461bcd60e51b815260040180806020018281038252602b815260200180612576602b913960400191505060405180910390fd5b6000811161151957600080fd5b600555565b600b54600090821061152f57600080fd5b600b828154811061153c57fe5b9060005260206000209060020201600101549050919050565b600081565b600b54600090821061156b57600080fd5b670de0b6b3a7640000600b838154811061158157fe5b90600052602060002090600202016001015484028161159c57fe5b049392505050565b6000805b600b548110156116065782600b82815481106115c057fe5b906000526020600020906002020160000154106115fe57600b81815481106115e457fe5b906000526020600020906002020160010154915050610c02565b6001016115a8565b50600092915050565b6000818152602081905260408120610b7290611edb565b60008060085411801561163b57506000600354115b801561164a5750600454600354105b61165357600080fd5b60085460035460045403838161166557fe5b040292915050565b6002546001600160a01b03161580159061169457506002546001600160a01b038481169116145b61169d57600080fd5b6116a78282611174565b6116b057600080fd5b60006116bc83836118ba565b90506116cb3384844201611ac0565b60078054820190556002546040516323b872dd60e01b81526001600160a01b03909116906323b872dd90611707903390309088906004016122ef565b602060405180830381600087803b15801561172157600080fd5b505af1158015611735573d6000803e3d6000fd5b505050506040513d601f19601f8201168201806040525081019061175991906121ea565b61176257600080fd5b60015460405163a9059cbb60e01b81526001600160a01b039091169063a9059cbb906117949033908590600401612313565b602060405180830381600087803b1580156117ae57600080fd5b505af11580156117c2573d6000803e3d6000fd5b505050506040513d601f19601f820116820180604052508101906117e691906121ea565b6117ef57600080fd5b336001600160a01b0316846001600160a01b03167efe0e12b43090c1fc19a34aefa5cc138a4eeafc60ab800f855c730b3fb9480e8585856040516118359392919061250e565b60405180910390a350505050565b60008060065461185385856118ba565b600754011115949350505050565b60008281526020819052604090206002015461187f906106cf611d12565b610ec65760405162461bcd60e51b81526004018080602001828103825260308152602001806125a16030913960400191505060405180910390fd5b60008060095414156118d7576118d083836118e1565b9050610b72565b6118d08383610b78565b6000806008541180156118f657506000600354115b80156119055750600454600354105b61190e57600080fd5b600854600354600454038385028161192257fe5b04029392505050565b600080600654600754101590506004544211806119455750805b91505090565b600c54610100900460ff16806119645750611964611ee6565b806119725750600c5460ff16155b6119ad5760405162461bcd60e51b815260040180806020018281038252602e8152602001806125fb602e913960400191505060405180910390fd5b600c54610100900460ff161580156119d857600c805460ff1961ff0019909116610100171660011790555b8585101580156119e85750428510155b6119f157600080fd5b6001600160a01b038416611a0457600080fd5b60008311611a1157600080fd5b611a19611ef7565b6001600160a01b03841615611a4457600180546001600160a01b0319166001600160a01b0386161790555b600386905560048590556006839055600280546001600160a01b0319166001600160a01b03841617905560016008556000600955621275006005558015611a9157600c805461ff00191690555b505050505050565b6001546001600160a01b031681565b60003415801590819061116d575061116d3484611174565b6001600160a01b03831615801590611ad85750600082115b8015611ae357504281115b611aec57600080fd5b6001600160a01b0383166000908152600a60205260408120815b8154811015611be857818181548110611b1b57fe5b600091825260209091206003909102015460ff1615156001148015611b5c575042828281548110611b4857fe5b906000526020600020906003020160010154105b15611be0576000828281548110611b6f57fe5b906000526020600020906003020160000160006101000a81548160ff02191690831515021790555083828281548110611ba457fe5b90600052602060002090600302016001018190555084828281548110611bc657fe5b906000526020600020906003020160020181905550600192505b600101611b06565b5081611c455760408051606081018252600080825260208083018781529383018881528554600180820188558785529290932093516003909302909301805460ff1916921515929092178255925192810192909255516002909101555b5050505050565b6001600160a01b0382166000908152600a60205260408120815b8154811015611d0a57818181548110611c7b57fe5b600091825260209091206003909102015460ff16158015611cb8575042828281548110611ca457fe5b906000526020600020906003020160010154105b15611d025783828281548110611cca57fe5b906000526020600020906003020160010181905550818181548110611ceb57fe5b906000526020600020906003020160020154830192505b600101611c66565b505092915050565b3390565b6000828152602081905260409020611d2e9082611f29565b15610cd657611d3b611d12565b6001600160a01b0316816001600160a01b0316837f2f8788117e7eff1d82e926ec794901d17c78024a50270940304540a733656f0d60405160405180910390a45050565b6000828152602081905260409020611d979082611f3e565b15610cd657611da4611d12565b6001600160a01b0316816001600160a01b0316837ff6391f5c32d9c69d2a47ea670b442974b53935d1edc7fd64eb21e047a839171b60405160405180910390a45050565b6001600160a01b0381166000908152600a60205260408120815b8154811015611eb357818181548110611e1757fe5b600091825260209091206003909102015460ff16158015611e54575042828281548110611e4057fe5b906000526020600020906003020160010154105b15611eab576001828281548110611e6757fe5b60009182526020909120600390910201805460ff19169115159190911790558154829082908110611e9457fe5b906000526020600020906003020160020154830192505b600101611e02565b5050919050565b600061116d8383611f53565b600061116d836001600160a01b038416611fb7565b6000610b7282611fcf565b6000611ef130611fd3565b15905090565b611f0f60008051602061262983398151915280611fd9565b611f2760008051602061262983398151915233610ccc565b565b600061116d836001600160a01b03841661202b565b600061116d836001600160a01b038416612075565b81546000908210611f955760405162461bcd60e51b81526004018080602001828103825260228152602001806125256022913960400191505060405180910390fd5b826000018281548110611fa457fe5b9060005260206000200154905092915050565b60009081526001919091016020526040902054151590565b5490565b3b151590565b600082815260208190526040808220600201549051839285917fbd79b86ffe0ab8e8776151514217cd7cacd52c909f66475c3af44e129f0b00ff9190a460009182526020829052604090912060020155565b60006120378383611fb7565b61206d57508154600181810184556000848152602080822090930184905584548482528286019093526040902091909155610b72565b506000610b72565b6000818152600183016020526040812054801561213157835460001980830191908101906000908790839081106120a857fe5b90600052602060002001549050808760000184815481106120c557fe5b6000918252602080832090910192909255828152600189810190925260409020908401905586548790806120f557fe5b60019003818190600052602060002001600090559055866001016000878152602001908152602001600020600090556001945050505050610b72565b6000915050610b72565b604051806060016040528060001515815260200160008152602001600081525090565b80356001600160a01b0381168114610c0257600080fd5b600060208284031215612186578081fd5b61116d8261215e565b600080604083850312156121a1578081fd5b6121aa8361215e565b946020939093013593505050565b6000806000606084860312156121cc578081fd5b6121d58461215e565b95602085013595506040909401359392505050565b6000602082840312156121fb578081fd5b8151801515811461116d578182fd5b60006020828403121561221b578081fd5b5035919050565b60008060408385031215612234578182fd5b823591506122446020840161215e565b90509250929050565b6000806040838503121561225f578182fd5b50508035926020909101359150565b600080600080600060a08688031215612285578081fd5b853594506020860135935061229c6040870161215e565b9250606086013591506122b16080870161215e565b90509295509295909350565b80511515825260208082015190830152604090810151910152565b90565b6001600160a01b0391909116815260200190565b6001600160a01b039384168152919092166020820152604081019190915260600190565b6001600160a01b03929092168252602082015260400190565b6020808252825182820181905260009190848201906040850190845b8181101561236e5761235b8385516122bd565b9284019260609290920191600101612348565b50909695505050505050565b901515815260200190565b92151583526020830191909152604082015260600190565b90815260200190565b60208082526034908201527f43726f776473616c653a205468657265206973206e6f20616d6f756e7420746860408201527330ba1031b0b7103132903bb4ba34323930bbb71760611b606082015260800190565b60208082526027908201527f43726f776473616c653a2062616c616e6365206920736c61636b20746f2077696040820152663a34323930bb9760c91b606082015260800190565b6020808252601b908201527f43726f776473616c653a207769746864726177206661696c65642e0000000000604082015260600190565b6020808252601f908201527f43726f776473616c653a20706179746f6b656e206973206e6f6e205a65726f00604082015260600190565b60208082526023908201527f43726f776473616c653a2076616c696450757263686173654554482069732066604082015262185a5b60ea1b606082015260800190565b60608101610b7282846122bd565b918252602082015260400190565b928352602083019190915260408201526060019056fe456e756d657261626c655365743a20696e646578206f7574206f6620626f756e6473416363657373436f6e74726f6c3a2073656e646572206d75737420626520616e2061646d696e20746f206772616e74506861727365315374616b6553657474696e673a2043616c6c6572206973206e6f7420616e2061646d696e416363657373436f6e74726f6c3a2073656e646572206d75737420626520616e2061646d696e20746f207265766f6b65537465704669786564526174696f3a205f6475726174696f6e206973206e6f74206d61782076616c7565496e697469616c697a61626c653a20636f6e747261637420697320616c726561647920696e697469616c697a6564df8b4c520ffe197c5343c6f5aec59570151ef9a492f2c624fd45ddde6135ec42537465704669786564526174696f3a205f6475726174696f6e20697320616c72656164792061646465642e416363657373436f6e74726f6c3a2063616e206f6e6c792072656e6f756e636520726f6c657320666f722073656c66a264697066735822122011952139d8724375f993d1b0631254cb3fa64e3685e7747c985293589642c21964736f6c63430007060033",
  "immutableReferences": {},
  "source": "//SPDX-License-Identifier: Unlicense\npragma solidity ^0.7.6;\npragma abicoder v2;\n\nimport \"../interfaces/IERC20.sol\";\nimport \"@openzeppelin/contracts-upgradeable/proxy/Initializable.sol\";\nimport \"../libraries/LibTokenSale.sol\";\nimport './CrowdsaleStorageSetting.sol';\nimport './StepFixedRatio.sol';\n\n/**\n * @title Crowdsale\n * @dev Crowdsale is a base contract for managing a token crowdsale.\n * Crowdsales have a start and end timestamps, where investors can make\n * token purchases and the crowdsale will assign them tokens based\n * on a token per ETH rate. Funds collected are forwarded to a wallet\n * as they arrive.\n */\ncontract Crowdsale\n    is\n    CrowdsaleStorageSetting, StepFixedRatio, Initializable  {\n    /**\n    * event for token purchase logging\n    * @param purchaser who paid for the tokens\n    * @param value weis paid for purchase\n    * @param duration staking period\n    * @param amount amount of tokens purchased\n    */\n    event TokenPurchase(address indexed paytoken, address indexed purchaser, uint256 value, uint256 duration, uint256 amount);\n    event TokenRePurchase(address indexed paytoken, address indexed purchaser, uint256 value, uint256 duration, uint256 amount);\n    event Withdraw(address indexed paytoken, address indexed from, address token, uint256 value);\n\n  // event Withdraw(address indexed from, address indexed beneficiary,);\n\n    function initialize(\n        uint256 _startTime,\n        uint256 _endTime,\n        address _token,\n        uint256 _cap,\n        address _paytoken\n    )\n        external\n        initializer\n    {\n        require(_startTime >= 0);\n        require(_endTime >= _startTime && _endTime >= block.timestamp);\n        require(_token != address(0));\n        require(_cap > 0);\n\n        _initialize();\n\n        if(_token != address(0)) token = _token;\n        startTime = _startTime;\n        endTime = _endTime;\n        cap = _cap;\n        paytoken = _paytoken;\n        maxRatio = 1;\n        ratioType = uint(REWARD_RATIOTYPE.LINEAR_TIME);\n        defaultDuration = 60*60*24*14; // 2 weeks ;\n\n    }\n\n    receive() external payable {\n      require(paytoken == address(0) && defaultDuration > 0 && msg.value > 0 );\n      buyTokens(defaultDuration);\n    }\n\n\n    // low level token purchase function\n    function buyTokens(uint256 duration) public payable {\n      require(paytoken == address(0), \"Crowdsale: paytoken is non Zero\");\n      require(validPurchaseETH(duration), \"Crowdsale: validPurchaseETH is fail\");\n\n      uint256 weiAmount = msg.value;  // stake amount\n\n      // calculate token amount to be created\n      uint256 rewardAmount = calculateAmountByRatio(weiAmount, duration);\n\n      // lock\n      addLockStakedToken(msg.sender, weiAmount, block.timestamp+duration);\n\n      // update state\n      weiRaised += rewardAmount;\n\n      // transfer token rewardAmount\n      require(IERC20(token).transfer(msg.sender, rewardAmount));\n      emit TokenPurchase(address(0), msg.sender, weiAmount, duration, rewardAmount);\n\n      //forwardFunds();\n    }\n\n\n    // low level token purchase function\n    function buyTokens(address _paytoken, uint256 amount, uint256 duration) external {\n      require(paytoken != address(0) && paytoken == _paytoken);\n      require(validPurchase(amount, duration));\n\n      // calculate token amount to be created\n      uint256 rewardAmount = calculateAmountByRatio(amount, duration);\n\n      // lock\n      addLockStakedToken(msg.sender, amount, block.timestamp+duration);\n\n      // update state\n      weiRaised += rewardAmount;\n\n      //paytoken transfer\n      require(IERC20(paytoken).transferFrom(msg.sender, address(this), amount));\n\n      // transfer token rewardAmount\n      require(IERC20(token).transfer(msg.sender, rewardAmount));\n      emit TokenPurchase(_paytoken, msg.sender, amount, duration, rewardAmount);\n\n      //forwardFunds();\n    }\n\n    // send ether to the fund collection wallet\n    // override to create custom fund forwarding mechanisms\n    //function forwardFunds() internal {\n    //  wallet.transfer(msg.value);\n    //}\n\n    // @return true if the transaction can buy tokens\n    function validPurchase(uint256 _amount, uint256 duration) public view returns (bool) {\n      return validPeriod(duration) && validCap(_amount, duration);\n    }\n\n    function validPeriod(uint256 duration) public view returns (bool) {\n      bool withinPeriod = block.timestamp >= startTime && (block.timestamp + duration) <= endTime;\n      return withinPeriod;\n    }\n    function validCap(uint256 _amount, uint256 duration) public view returns (bool) {\n      bool withinCap = (weiRaised + calculateAmountByRatio(_amount, duration)) <= cap;\n      return withinCap;\n    }\n\n    function validPurchaseETH(uint256 duration) internal view returns (bool) {\n      bool nonZeroPurchase = msg.value != 0;\n      return nonZeroPurchase && validPurchase(msg.value, duration);\n    }\n\n    // @return true if crowdsale event has ended\n    function hasEnded() public view returns (bool) {\n      bool capReached = weiRaised >= cap;\n      return block.timestamp > endTime || capReached;\n    }\n\n    function getRatio(uint256 _duration) public view returns (uint256 ratio) {\n      if( ratioType == uint(REWARD_RATIOTYPE.LINEAR_TIME) ) return getLinearRatioByDuration(_duration);\n      else return getRatioByDuration(_duration);\n    }\n\n    function calculateAmountByRatio(uint256 _amount, uint256 _duration) public view returns (uint256 ratio) {\n      if( ratioType == uint(REWARD_RATIOTYPE.LINEAR_TIME) ) return calculateAmountLinearRatioByDuration(_amount, _duration);\n      else return calculateAmountWithRatioByDuration(_amount, _duration);\n    }\n\n    function withdraw() external returns (bool){\n      uint256 unLockAmount = releaseUserLockStakedToken(msg.sender);\n      require(unLockAmount > 0, \"Crowdsale: There is no amount that can be withdrawn.\");\n      if(paytoken == address(0)){\n          address payable self = address(uint160(address(this)));\n          require(self.balance >= unLockAmount, \"Crowdsale: balance i slack to withdraw.\");\n\n          // msg.sender.transfer(unLockAmount);\n          (bool success, ) = msg.sender.call{value: unLockAmount}(\"\");\n          require(success, \"Crowdsale: withdraw failed.\");\n          emit Withdraw(paytoken, msg.sender, address(0), unLockAmount );\n      } else {\n          IERC20(paytoken).transfer(msg.sender, unLockAmount);\n          emit Withdraw(paytoken, msg.sender, paytoken, unLockAmount);\n      }\n      return true;\n    }\n\n    function rebuyToken(uint256 _duration) external {\n\n      // Extend lock's releaseTime\n      uint256 rebuyAmount = rebuyUserLockStakedToken(msg.sender, block.timestamp + _duration);\n      require(validPurchase(rebuyAmount, _duration));\n\n      // calculate token amount to be created\n      uint256 rewardAmount = calculateAmountByRatio(rebuyAmount, _duration);\n\n      // update state\n      weiRaised += rewardAmount;\n\n      // transfer token rewardAmount\n      IERC20(token).transfer(msg.sender, rewardAmount);\n      emit TokenRePurchase(paytoken, msg.sender, rebuyAmount, _duration, rewardAmount);\n    }\n\n    function rebuyUserLockStakedToken(address _user, uint256 _releaseTime) internal returns (uint256 rebuyAmount) {\n      LibTokenSale.LockAmount[] storage userLocks = userLockStakedToken[_user];\n      rebuyAmount = 0;\n\n      for (uint256 i = 0; i< userLocks.length; i++){\n        if (userLocks[i].released == false && userLocks[i].releaseTime < block.timestamp) {\n          userLocks[i].releaseTime = _releaseTime;\n          rebuyAmount += userLocks[i].amount;\n        }\n      }\n    }\n\n\n    function releaseUserLockStakedToken(address _user) internal returns (uint256 unLockAmount) {\n      LibTokenSale.LockAmount[] storage userLocks = userLockStakedToken[_user];\n      unLockAmount = 0;\n\n      for (uint256 i = 0; i< userLocks.length; i++){\n        if (userLocks[i].released == false && userLocks[i].releaseTime < block.timestamp) {\n          userLocks[i].released = true;\n          unLockAmount += userLocks[i].amount;\n        }\n      }\n    }\n\n    function curBlockTimeStamp() public view returns (uint256 curTime) {\n       return block.timestamp;\n    }\n    function curBlockNumber() public view returns (uint256 curNumber) {\n       return block.number;\n    }\n\n    function canWithdrawAmount(address _user) public view returns (uint256 validAmount) {\n      validAmount = 0;\n      for (uint256 i = 0; i< userLockStakedToken[_user].length; i++){\n        if (userLockStakedToken[_user][i].released == false && userLockStakedToken[_user][i].releaseTime < block.timestamp) {\n          validAmount += userLockStakedToken[_user][i].amount;\n        }\n      }\n    }\n\n    function getAllUserLocks(address _user) public view returns (LibTokenSale.LockAmount[] memory) {\n      return userLockStakedToken[_user];\n    }\n\n    function lengthAllUserLocks(address _user) public view returns (uint256 counts) {\n      counts = userLockStakedToken[_user].length;\n    }\n\n    function getUserLocks(address _user, uint256 _index) public view returns (LibTokenSale.LockAmount memory) {\n      require(_index < userLockStakedToken[_user].length);\n      return userLockStakedToken[_user][_index];\n    }\n\n\n    // low level token purchase function\n    function addLockStakedToken(\n        address _user,\n        uint256 _amount,\n        uint256 _releaseTime\n    )\n        internal\n    {\n        require(_user != address(0) && _amount > 0 && _releaseTime > block.timestamp );\n        bool addLock = false;\n        LibTokenSale.LockAmount[] storage userLocks = userLockStakedToken[_user];\n\n        for (uint256 i = 0; i< userLocks.length; i++){\n          if (userLocks[i].released == true && userLocks[i].releaseTime < block.timestamp) {\n            userLocks[i].released = false;\n            userLocks[i].releaseTime = _releaseTime;\n            userLocks[i].amount = _amount;\n            addLock = true;\n          }\n        }\n        if(!addLock) userLocks.push(LibTokenSale.LockAmount(false, _releaseTime, _amount));\n    }\n}\n",
  "sourcePath": "/Users/zena/ico2.0/ico20-contracts/contracts/presale/Crowdsale.sol",
  "compiler": {
    "name": "solc",
    "version": "0.7.6+commit.7338295f.Emscripten.clang"
  },
  "schemaVersion": "3.3.4",
  "updatedAt": "2021-04-20T22:39:30.722Z",
  "devdoc": {
    "details": "Crowdsale is a base contract for managing a token crowdsale. Crowdsales have a start and end timestamps, where investors can make token purchases and the crowdsale will assign them tokens based on a token per ETH rate. Funds collected are forwarded to a wallet as they arrive.",
    "events": {
      "TokenPurchase(address,address,uint256,uint256,uint256)": {
        "params": {
          "amount": "amount of tokens purchased",
          "duration": "staking period",
          "purchaser": "who paid for the tokens",
          "value": "weis paid for purchase"
        }
      }
    },
    "kind": "dev",
    "methods": {
      "getRoleAdmin(bytes32)": {
        "details": "Returns the admin role that controls `role`. See {grantRole} and {revokeRole}. To change a role's admin, use {_setRoleAdmin}."
      },
      "getRoleMember(bytes32,uint256)": {
        "details": "Returns one of the accounts that have `role`. `index` must be a value between 0 and {getRoleMemberCount}, non-inclusive. Role bearers are not sorted in any particular way, and their ordering may change at any point. WARNING: When using {getRoleMember} and {getRoleMemberCount}, make sure you perform all queries on the same block. See the following https://forum.openzeppelin.com/t/iterating-over-elements-on-enumerableset-in-openzeppelin-contracts/2296[forum post] for more information."
      },
      "getRoleMemberCount(bytes32)": {
        "details": "Returns the number of accounts that have `role`. Can be used together with {getRoleMember} to enumerate all bearers of a role."
      },
      "grantRole(bytes32,address)": {
        "details": "Grants `role` to `account`. If `account` had not been already granted `role`, emits a {RoleGranted} event. Requirements: - the caller must have ``role``'s admin role."
      },
      "hasRole(bytes32,address)": {
        "details": "Returns `true` if `account` has been granted `role`."
      },
      "renounceRole(bytes32,address)": {
        "details": "Revokes `role` from the calling account. Roles are often managed via {grantRole} and {revokeRole}: this function's purpose is to provide a mechanism for accounts to lose their privileges if they are compromised (such as when a trusted device is misplaced). If the calling account had been granted `role`, emits a {RoleRevoked} event. Requirements: - the caller must be `account`."
      },
      "revokeRole(bytes32,address)": {
        "details": "Revokes `role` from `account`. If `account` had been granted `role`, emits a {RoleRevoked} event. Requirements: - the caller must have ``role``'s admin role."
      }
    },
    "title": "Crowdsale",
    "version": 1
  },
  "userdoc": {
    "events": {
      "TokenPurchase(address,address,uint256,uint256,uint256)": {
        "notice": "event for token purchase logging"
      }
    },
    "kind": "user",
    "methods": {
      "changeStartEndTime(uint256,uint256)": {
        "notice": "external"
      },
      "getLinearRatioByDuration(uint256)": {
        "notice": "public"
      }
    },
    "version": 1
  }
}