{
  "contractName": "Crowdsale",
  "abi": [
    {
      "anonymous": false,
      "inputs": [
        {
          "indexed": true,
          "internalType": "bytes32",
          "name": "role",
          "type": "bytes32"
        },
        {
          "indexed": true,
          "internalType": "bytes32",
          "name": "previousAdminRole",
          "type": "bytes32"
        },
        {
          "indexed": true,
          "internalType": "bytes32",
          "name": "newAdminRole",
          "type": "bytes32"
        }
      ],
      "name": "RoleAdminChanged",
      "type": "event"
    },
    {
      "anonymous": false,
      "inputs": [
        {
          "indexed": true,
          "internalType": "bytes32",
          "name": "role",
          "type": "bytes32"
        },
        {
          "indexed": true,
          "internalType": "address",
          "name": "account",
          "type": "address"
        },
        {
          "indexed": true,
          "internalType": "address",
          "name": "sender",
          "type": "address"
        }
      ],
      "name": "RoleGranted",
      "type": "event"
    },
    {
      "anonymous": false,
      "inputs": [
        {
          "indexed": true,
          "internalType": "bytes32",
          "name": "role",
          "type": "bytes32"
        },
        {
          "indexed": true,
          "internalType": "address",
          "name": "account",
          "type": "address"
        },
        {
          "indexed": true,
          "internalType": "address",
          "name": "sender",
          "type": "address"
        }
      ],
      "name": "RoleRevoked",
      "type": "event"
    },
    {
      "anonymous": false,
      "inputs": [
        {
          "indexed": true,
          "internalType": "address",
          "name": "purchaser",
          "type": "address"
        },
        {
          "indexed": false,
          "internalType": "uint256",
          "name": "value",
          "type": "uint256"
        },
        {
          "indexed": false,
          "internalType": "uint256",
          "name": "duration",
          "type": "uint256"
        },
        {
          "indexed": false,
          "internalType": "uint256",
          "name": "amount",
          "type": "uint256"
        }
      ],
      "name": "TokenPurchase",
      "type": "event"
    },
    {
      "anonymous": false,
      "inputs": [
        {
          "indexed": true,
          "internalType": "address",
          "name": "purchaser",
          "type": "address"
        },
        {
          "indexed": false,
          "internalType": "uint256",
          "name": "value",
          "type": "uint256"
        },
        {
          "indexed": false,
          "internalType": "uint256",
          "name": "duration",
          "type": "uint256"
        },
        {
          "indexed": false,
          "internalType": "uint256",
          "name": "amount",
          "type": "uint256"
        }
      ],
      "name": "TokenRePurchase",
      "type": "event"
    },
    {
      "anonymous": false,
      "inputs": [
        {
          "indexed": true,
          "internalType": "address",
          "name": "from",
          "type": "address"
        },
        {
          "indexed": false,
          "internalType": "address",
          "name": "token",
          "type": "address"
        },
        {
          "indexed": false,
          "internalType": "uint256",
          "name": "value",
          "type": "uint256"
        }
      ],
      "name": "Withdraw",
      "type": "event"
    },
    {
      "inputs": [],
      "name": "ADMIN_ROLE",
      "outputs": [
        {
          "internalType": "bytes32",
          "name": "",
          "type": "bytes32"
        }
      ],
      "stateMutability": "view",
      "type": "function"
    },
    {
      "inputs": [],
      "name": "DEFAULT_ADMIN_ROLE",
      "outputs": [
        {
          "internalType": "bytes32",
          "name": "",
          "type": "bytes32"
        }
      ],
      "stateMutability": "view",
      "type": "function"
    },
    {
      "inputs": [
        {
          "internalType": "uint256",
          "name": "_duration",
          "type": "uint256"
        },
        {
          "internalType": "uint256",
          "name": "_ratio",
          "type": "uint256"
        }
      ],
      "name": "addDurationMax",
      "outputs": [],
      "stateMutability": "nonpayable",
      "type": "function"
    },
    {
      "inputs": [
        {
          "internalType": "uint256",
          "name": "_amount",
          "type": "uint256"
        },
        {
          "internalType": "uint256",
          "name": "_duration",
          "type": "uint256"
        }
      ],
      "name": "calculateAmountLinearRatioByDuration",
      "outputs": [
        {
          "internalType": "uint256",
          "name": "_newAmount",
          "type": "uint256"
        }
      ],
      "stateMutability": "view",
      "type": "function"
    },
    {
      "inputs": [
        {
          "internalType": "uint256",
          "name": "_amount",
          "type": "uint256"
        },
        {
          "internalType": "uint256",
          "name": "_duration",
          "type": "uint256"
        }
      ],
      "name": "calculateAmountWithRatioByDuration",
      "outputs": [
        {
          "internalType": "uint256",
          "name": "newAmount",
          "type": "uint256"
        }
      ],
      "stateMutability": "view",
      "type": "function"
    },
    {
      "inputs": [
        {
          "internalType": "uint256",
          "name": "_amount",
          "type": "uint256"
        },
        {
          "internalType": "uint256",
          "name": "_index",
          "type": "uint256"
        }
      ],
      "name": "calculateAmountWithRatioByIndex",
      "outputs": [
        {
          "internalType": "uint256",
          "name": "newAmount",
          "type": "uint256"
        }
      ],
      "stateMutability": "view",
      "type": "function"
    },
    {
      "inputs": [],
      "name": "cap",
      "outputs": [
        {
          "internalType": "uint256",
          "name": "",
          "type": "uint256"
        }
      ],
      "stateMutability": "view",
      "type": "function"
    },
    {
      "inputs": [
        {
          "internalType": "uint256",
          "name": "_cap",
          "type": "uint256"
        }
      ],
      "name": "changeCap",
      "outputs": [],
      "stateMutability": "nonpayable",
      "type": "function"
    },
    {
      "inputs": [
        {
          "internalType": "uint256",
          "name": "_defaultDuration",
          "type": "uint256"
        }
      ],
      "name": "changeDefaultDuration",
      "outputs": [],
      "stateMutability": "nonpayable",
      "type": "function"
    },
    {
      "inputs": [
        {
          "internalType": "uint256",
          "name": "_ratioType",
          "type": "uint256"
        }
      ],
      "name": "changeRewardRatioType",
      "outputs": [],
      "stateMutability": "nonpayable",
      "type": "function"
    },
    {
      "inputs": [
        {
          "internalType": "uint256",
          "name": "_startTime",
          "type": "uint256"
        },
        {
          "internalType": "uint256",
          "name": "_endTime",
          "type": "uint256"
        }
      ],
      "name": "changeStartEndTime",
      "outputs": [],
      "stateMutability": "nonpayable",
      "type": "function"
    },
    {
      "inputs": [],
      "name": "defaultDuration",
      "outputs": [
        {
          "internalType": "uint256",
          "name": "",
          "type": "uint256"
        }
      ],
      "stateMutability": "view",
      "type": "function"
    },
    {
      "inputs": [],
      "name": "endTime",
      "outputs": [
        {
          "internalType": "uint256",
          "name": "",
          "type": "uint256"
        }
      ],
      "stateMutability": "view",
      "type": "function"
    },
    {
      "inputs": [
        {
          "internalType": "uint256",
          "name": "_duration",
          "type": "uint256"
        }
      ],
      "name": "getLinearRatioByDuration",
      "outputs": [
        {
          "internalType": "uint256",
          "name": "ratio",
          "type": "uint256"
        }
      ],
      "stateMutability": "view",
      "type": "function"
    },
    {
      "inputs": [
        {
          "internalType": "uint256",
          "name": "_duration",
          "type": "uint256"
        }
      ],
      "name": "getRatioByDuration",
      "outputs": [
        {
          "internalType": "uint256",
          "name": "ratio",
          "type": "uint256"
        }
      ],
      "stateMutability": "view",
      "type": "function"
    },
    {
      "inputs": [
        {
          "internalType": "uint256",
          "name": "_index",
          "type": "uint256"
        }
      ],
      "name": "getRatioByIndex",
      "outputs": [
        {
          "internalType": "uint256",
          "name": "ratio",
          "type": "uint256"
        }
      ],
      "stateMutability": "view",
      "type": "function"
    },
    {
      "inputs": [
        {
          "internalType": "bytes32",
          "name": "role",
          "type": "bytes32"
        }
      ],
      "name": "getRoleAdmin",
      "outputs": [
        {
          "internalType": "bytes32",
          "name": "",
          "type": "bytes32"
        }
      ],
      "stateMutability": "view",
      "type": "function"
    },
    {
      "inputs": [
        {
          "internalType": "bytes32",
          "name": "role",
          "type": "bytes32"
        },
        {
          "internalType": "uint256",
          "name": "index",
          "type": "uint256"
        }
      ],
      "name": "getRoleMember",
      "outputs": [
        {
          "internalType": "address",
          "name": "",
          "type": "address"
        }
      ],
      "stateMutability": "view",
      "type": "function"
    },
    {
      "inputs": [
        {
          "internalType": "bytes32",
          "name": "role",
          "type": "bytes32"
        }
      ],
      "name": "getRoleMemberCount",
      "outputs": [
        {
          "internalType": "uint256",
          "name": "",
          "type": "uint256"
        }
      ],
      "stateMutability": "view",
      "type": "function"
    },
    {
      "inputs": [
        {
          "internalType": "bytes32",
          "name": "role",
          "type": "bytes32"
        },
        {
          "internalType": "address",
          "name": "account",
          "type": "address"
        }
      ],
      "name": "grantRole",
      "outputs": [],
      "stateMutability": "nonpayable",
      "type": "function"
    },
    {
      "inputs": [
        {
          "internalType": "bytes32",
          "name": "role",
          "type": "bytes32"
        },
        {
          "internalType": "address",
          "name": "account",
          "type": "address"
        }
      ],
      "name": "hasRole",
      "outputs": [
        {
          "internalType": "bool",
          "name": "",
          "type": "bool"
        }
      ],
      "stateMutability": "view",
      "type": "function"
    },
    {
      "inputs": [],
      "name": "maxRatio",
      "outputs": [
        {
          "internalType": "uint256",
          "name": "",
          "type": "uint256"
        }
      ],
      "stateMutability": "view",
      "type": "function"
    },
    {
      "inputs": [],
      "name": "paytoken",
      "outputs": [
        {
          "internalType": "address",
          "name": "",
          "type": "address"
        }
      ],
      "stateMutability": "view",
      "type": "function"
    },
    {
      "inputs": [],
      "name": "ratioType",
      "outputs": [
        {
          "internalType": "uint256",
          "name": "",
          "type": "uint256"
        }
      ],
      "stateMutability": "view",
      "type": "function"
    },
    {
      "inputs": [
        {
          "internalType": "uint256",
          "name": "",
          "type": "uint256"
        }
      ],
      "name": "ratios",
      "outputs": [
        {
          "internalType": "uint256",
          "name": "duration",
          "type": "uint256"
        },
        {
          "internalType": "uint256",
          "name": "ratio",
          "type": "uint256"
        }
      ],
      "stateMutability": "view",
      "type": "function"
    },
    {
      "inputs": [
        {
          "internalType": "bytes32",
          "name": "role",
          "type": "bytes32"
        },
        {
          "internalType": "address",
          "name": "account",
          "type": "address"
        }
      ],
      "name": "renounceRole",
      "outputs": [],
      "stateMutability": "nonpayable",
      "type": "function"
    },
    {
      "inputs": [
        {
          "internalType": "bytes32",
          "name": "role",
          "type": "bytes32"
        },
        {
          "internalType": "address",
          "name": "account",
          "type": "address"
        }
      ],
      "name": "revokeRole",
      "outputs": [],
      "stateMutability": "nonpayable",
      "type": "function"
    },
    {
      "inputs": [],
      "name": "startTime",
      "outputs": [
        {
          "internalType": "uint256",
          "name": "",
          "type": "uint256"
        }
      ],
      "stateMutability": "view",
      "type": "function"
    },
    {
      "inputs": [],
      "name": "token",
      "outputs": [
        {
          "internalType": "address",
          "name": "",
          "type": "address"
        }
      ],
      "stateMutability": "view",
      "type": "function"
    },
    {
      "inputs": [
        {
          "internalType": "address",
          "name": "",
          "type": "address"
        },
        {
          "internalType": "uint256",
          "name": "",
          "type": "uint256"
        }
      ],
      "name": "userLockStakedToken",
      "outputs": [
        {
          "internalType": "bool",
          "name": "released",
          "type": "bool"
        },
        {
          "internalType": "uint256",
          "name": "releaseTime",
          "type": "uint256"
        },
        {
          "internalType": "uint256",
          "name": "amount",
          "type": "uint256"
        }
      ],
      "stateMutability": "view",
      "type": "function"
    },
    {
      "inputs": [],
      "name": "weiRaised",
      "outputs": [
        {
          "internalType": "uint256",
          "name": "",
          "type": "uint256"
        }
      ],
      "stateMutability": "view",
      "type": "function"
    },
    {
      "stateMutability": "payable",
      "type": "receive"
    },
    {
      "inputs": [
        {
          "internalType": "uint256",
          "name": "_startTime",
          "type": "uint256"
        },
        {
          "internalType": "uint256",
          "name": "_endTime",
          "type": "uint256"
        },
        {
          "internalType": "address",
          "name": "_token",
          "type": "address"
        },
        {
          "internalType": "uint256",
          "name": "_cap",
          "type": "uint256"
        },
        {
          "internalType": "address",
          "name": "_paytoken",
          "type": "address"
        }
      ],
      "name": "initialize",
      "outputs": [],
      "stateMutability": "nonpayable",
      "type": "function"
    },
    {
      "inputs": [
        {
          "internalType": "uint256",
          "name": "duration",
          "type": "uint256"
        }
      ],
      "name": "buyTokens",
      "outputs": [],
      "stateMutability": "payable",
      "type": "function"
    },
    {
      "inputs": [
        {
          "internalType": "address",
          "name": "_paytoken",
          "type": "address"
        },
        {
          "internalType": "uint256",
          "name": "amount",
          "type": "uint256"
        },
        {
          "internalType": "uint256",
          "name": "duration",
          "type": "uint256"
        }
      ],
      "name": "buyTokens",
      "outputs": [],
      "stateMutability": "nonpayable",
      "type": "function"
    },
    {
      "inputs": [
        {
          "internalType": "uint256",
          "name": "_amount",
          "type": "uint256"
        },
        {
          "internalType": "uint256",
          "name": "duration",
          "type": "uint256"
        }
      ],
      "name": "validPurchase",
      "outputs": [
        {
          "internalType": "bool",
          "name": "",
          "type": "bool"
        }
      ],
      "stateMutability": "view",
      "type": "function"
    },
    {
      "inputs": [
        {
          "internalType": "uint256",
          "name": "duration",
          "type": "uint256"
        }
      ],
      "name": "validPeriod",
      "outputs": [
        {
          "internalType": "bool",
          "name": "",
          "type": "bool"
        }
      ],
      "stateMutability": "view",
      "type": "function"
    },
    {
      "inputs": [
        {
          "internalType": "uint256",
          "name": "_amount",
          "type": "uint256"
        },
        {
          "internalType": "uint256",
          "name": "duration",
          "type": "uint256"
        }
      ],
      "name": "validCap",
      "outputs": [
        {
          "internalType": "bool",
          "name": "",
          "type": "bool"
        }
      ],
      "stateMutability": "view",
      "type": "function"
    },
    {
      "inputs": [],
      "name": "hasEnded",
      "outputs": [
        {
          "internalType": "bool",
          "name": "",
          "type": "bool"
        }
      ],
      "stateMutability": "view",
      "type": "function"
    },
    {
      "inputs": [
        {
          "internalType": "uint256",
          "name": "_duration",
          "type": "uint256"
        }
      ],
      "name": "getRatio",
      "outputs": [
        {
          "internalType": "uint256",
          "name": "ratio",
          "type": "uint256"
        }
      ],
      "stateMutability": "view",
      "type": "function"
    },
    {
      "inputs": [
        {
          "internalType": "uint256",
          "name": "_amount",
          "type": "uint256"
        },
        {
          "internalType": "uint256",
          "name": "_duration",
          "type": "uint256"
        }
      ],
      "name": "calculateAmountByRatio",
      "outputs": [
        {
          "internalType": "uint256",
          "name": "ratio",
          "type": "uint256"
        }
      ],
      "stateMutability": "view",
      "type": "function"
    },
    {
      "inputs": [],
      "name": "withdraw",
      "outputs": [
        {
          "internalType": "bool",
          "name": "",
          "type": "bool"
        }
      ],
      "stateMutability": "nonpayable",
      "type": "function"
    },
    {
      "inputs": [
        {
          "internalType": "uint256",
          "name": "_duration",
          "type": "uint256"
        }
      ],
      "name": "rebuyToken",
      "outputs": [],
      "stateMutability": "nonpayable",
      "type": "function"
    },
    {
      "inputs": [],
      "name": "curBlockTimeStamp",
      "outputs": [
        {
          "internalType": "uint256",
          "name": "curTime",
          "type": "uint256"
        }
      ],
      "stateMutability": "view",
      "type": "function"
    },
    {
      "inputs": [],
      "name": "curBlockNumber",
      "outputs": [
        {
          "internalType": "uint256",
          "name": "curNumber",
          "type": "uint256"
        }
      ],
      "stateMutability": "view",
      "type": "function"
    },
    {
      "inputs": [
        {
          "internalType": "address",
          "name": "_user",
          "type": "address"
        }
      ],
      "name": "canWithdrawAmount",
      "outputs": [
        {
          "internalType": "uint256",
          "name": "validAmount",
          "type": "uint256"
        }
      ],
      "stateMutability": "view",
      "type": "function"
    },
    {
      "inputs": [
        {
          "internalType": "address",
          "name": "_user",
          "type": "address"
        }
      ],
      "name": "getAllUserLocks",
      "outputs": [
        {
          "components": [
            {
              "internalType": "bool",
              "name": "released",
              "type": "bool"
            },
            {
              "internalType": "uint256",
              "name": "releaseTime",
              "type": "uint256"
            },
            {
              "internalType": "uint256",
              "name": "amount",
              "type": "uint256"
            }
          ],
          "internalType": "struct LibTokenSale.LockAmount[]",
          "name": "",
          "type": "tuple[]"
        }
      ],
      "stateMutability": "view",
      "type": "function"
    },
    {
      "inputs": [
        {
          "internalType": "address",
          "name": "_user",
          "type": "address"
        }
      ],
      "name": "lengthAllUserLocks",
      "outputs": [
        {
          "internalType": "uint256",
          "name": "counts",
          "type": "uint256"
        }
      ],
      "stateMutability": "view",
      "type": "function"
    },
    {
      "inputs": [
        {
          "internalType": "address",
          "name": "_user",
          "type": "address"
        },
        {
          "internalType": "uint256",
          "name": "_index",
          "type": "uint256"
        }
      ],
      "name": "getUserLocks",
      "outputs": [
        {
          "components": [
            {
              "internalType": "bool",
              "name": "released",
              "type": "bool"
            },
            {
              "internalType": "uint256",
              "name": "releaseTime",
              "type": "uint256"
            },
            {
              "internalType": "uint256",
              "name": "amount",
              "type": "uint256"
            }
          ],
          "internalType": "struct LibTokenSale.LockAmount",
          "name": "",
          "type": "tuple"
        }
      ],
      "stateMutability": "view",
      "type": "function"
    }
  ],
  "bytecode": "0x60806040523480156200001157600080fd5b506200003e7fdf8b4c520ffe197c5343c6f5aec59570151ef9a492f2c624fd45ddde6135ec423362000044565b62000158565b62000050828262000054565b5050565b6000828152602081815260409091206200007991839062001a6a620000cd821b17901c565b15620000505762000089620000ed565b6001600160a01b0316816001600160a01b0316837f2f8788117e7eff1d82e926ec794901d17c78024a50270940304540a733656f0d60405160405180910390a45050565b6000620000e4836001600160a01b038416620000f1565b90505b92915050565b3390565b6000620000ff838362000140565b6200013757508154600181810184556000848152602080822090930184905584548482528286019093526040902091909155620000e7565b506000620000e7565b60009081526001919091016020526040902054151590565b61261680620001686000396000f3fe6080604052600436106102975760003560e01c8063771dc86a1161015a578063c3f2aec7116100c1578063d547741f1161007a578063d547741f146107dd578063e197d21f146107fd578063e420bb351461081d578063ecb70fb71461083d578063ecb9e5af14610852578063fc0c546a14610872576102cd565b8063c3f2aec71461071d578063c9a97ea61461073d578063ca15c8731461075d578063cdfd86781461077d578063d2395dcd1461079d578063d4133894146107bd576102cd565b806390e4a0b21161011357806390e4a0b21461067357806391135c3a1461069357806391d14854146106a857806393de9e15146106c857806396a8fa13146106e8578063a217fddf14610708576102cd565b8063771dc86a146105b057806378e97925146105de578063800edb9d146105f35780638091a754146106135780638a314784146106335780639010d07c14610653576102cd565b80633ccfd60b116101fe57806359a2926b116101b757806359a2926b1461050f57806359c9cb171461052f57806367f86a781461055c5780636b9559c01461057157806375b238fc1461058657806376365af71461059b576102cd565b80633ccfd60b146104475780633dd07d88146104695780634042b66f1461049857806343b0934a146104ad57806346a62eaf146104cf578063516b9a6c146104ef576102cd565b80632f2ff15d116102505780632f2ff15d146103aa5780633197cbb6146103ca57806335524cb9146103df578063355274ea146103ff5780633610724e1461041457806336568abe14610427576102cd565b80631f03e39e146102d257806322428b65146102f25780632334b6b414610328578063248a9ca314610355578063288936de146103755780632af7e2ea14610395576102cd565b366102cd576002546001600160a01b03161580156102b757506000600554115b6102c057600080fd5b6102cb600554610887565b005b600080fd5b3480156102de57600080fd5b506102cb6102ed366004612148565b6109d1565b3480156102fe57600080fd5b5061031261030d3660046120cd565b610acb565b60405161031f9190612430565b60405180910390f35b34801561033457600080fd5b5061034861034336600461218b565b610b63565b60405161031f91906122db565b34801561036157600080fd5b50610348610370366004612148565b610bda565b34801561038157600080fd5b506102cb610390366004612148565b610bf2565b3480156103a157600080fd5b50610348610c58565b3480156103b657600080fd5b506102cb6103c5366004612160565b610c5e565b3480156103d657600080fd5b50610348610cc5565b3480156103eb57600080fd5b506102cb6103fa36600461218b565b610ccb565b34801561040b57600080fd5b50610348610e54565b6102cb610422366004612148565b610887565b34801561043357600080fd5b506102cb610442366004612160565b610e5a565b34801561045357600080fd5b5061045c610ebb565b60405161031f91906122b8565b34801561047557600080fd5b506104896104843660046120cd565b6110b7565b60405161031f939291906122c3565b3480156104a457600080fd5b506103486110fd565b3480156104b957600080fd5b506104c2611103565b60405161031f9190612219565b3480156104db57600080fd5b506103486104ea366004612148565b611112565b3480156104fb57600080fd5b5061045c61050a366004612148565b611137565b34801561051b57600080fd5b5061045c61052a36600461218b565b611157565b34801561053b57600080fd5b5061054f61054a3660046120b3565b611173565b60405161031f919061226a565b34801561056857600080fd5b50610348611207565b34801561057d57600080fd5b5061034861120b565b34801561059257600080fd5b50610348611211565b3480156105a757600080fd5b50610348611223565b3480156105bc57600080fd5b506105d06105cb366004612148565b611229565b60405161031f92919061243e565b3480156105ea57600080fd5b50610348611257565b3480156105ff57600080fd5b506102cb61060e366004612148565b61125d565b34801561061f57600080fd5b5061034861062e3660046120b3565b6112c2565b34801561063f57600080fd5b506102cb61064e36600461218b565b6113af565b34801561065f57600080fd5b506104c261066e36600461218b565b61144d565b34801561067f57600080fd5b5061034861068e3660046120b3565b611465565b34801561069f57600080fd5b50610348611480565b3480156106b457600080fd5b5061045c6106c3366004612160565b611484565b3480156106d457600080fd5b506102cb6106e3366004612148565b61149c565b3480156106f457600080fd5b50610348610703366004612148565b611501565b34801561071457600080fd5b50610348611538565b34801561072957600080fd5b5061034861073836600461218b565b61153d565b34801561074957600080fd5b50610348610758366004612148565b611587565b34801561076957600080fd5b50610348610778366004612148565b6115f2565b34801561078957600080fd5b50610348610798366004612148565b611609565b3480156107a957600080fd5b506102cb6107b83660046120f6565b611650565b3480156107c957600080fd5b5061045c6107d836600461218b565b61180d565b3480156107e957600080fd5b506102cb6107f8366004612160565b61182b565b34801561080957600080fd5b5061034861081836600461218b565b611884565b34801561082957600080fd5b5061034861083836600461218b565b6118ab565b34801561084957600080fd5b5061045c6118f5565b34801561085e57600080fd5b506102cb61086d3660046121ac565b611915565b34801561087e57600080fd5b506104c2611a5b565b6002546001600160a01b0316156108b95760405162461bcd60e51b81526004016108b0906123b6565b60405180910390fd5b6108c281611a7f565b6108de5760405162461bcd60e51b81526004016108b0906123ed565b3460006108eb8284611884565b90506108fa3383854201611a97565b600780548201905560015460405163a9059cbb60e01b81526001600160a01b039091169063a9059cbb906109349033908590600401612251565b602060405180830381600087803b15801561094e57600080fd5b505af1158015610962573d6000803e3d6000fd5b505050506040513d601f19601f820116820180604052508101906109869190612128565b50336001600160a01b03167f347f5f0051b895093800553e6e78ef332849e2552639a4f5ffe66535788ae0788385846040516109c49392919061244c565b60405180910390a2505050565b60006109df33834201611c23565b90506109eb8183611157565b6109f457600080fd5b6000610a008284611884565b600780548201905560015460405163a9059cbb60e01b81529192506001600160a01b03169063a9059cbb90610a3b9033908590600401612251565b602060405180830381600087803b158015610a5557600080fd5b505af1158015610a69573d6000803e3d6000fd5b505050506040513d601f19601f82011682018060405250810190610a8d9190612128565b50336001600160a01b03167f22d849233fce2af5b36fa386d2e3694b9f5a3d09020afeb0a9a64932e8e6eb8e8385846040516109c49392919061244c565b610ad3612079565b6001600160a01b0383166000908152600a60205260409020548210610af757600080fd5b6001600160a01b0383166000908152600a60205260409020805483908110610b1b57fe5b6000918252602091829020604080516060810182526003909302909101805460ff16151583526001810154938301939093526002909201549181019190915290505b92915050565b6000805b600b54811015610bd35782600b8281548110610b7f57fe5b90600052602060002090600202016000015410610bcb57670de0b6b3a7640000600b8281548110610bac57fe5b906000526020600020906002020160010154850281610bc757fe5b0491505b600101610b67565b5092915050565b6000818152602081905260409020600201545b919050565b610c0a60008051602061256783398151915233611484565b610c455760405162461bcd60e51b815260040180806020018281038252602b8152602001806124b4602b913960400191505060405180910390fd5b6001811115610c5357600080fd5b600955565b60055481565b600082815260208190526040902060020154610c7c906106c3611ce9565b610cb75760405162461bcd60e51b815260040180806020018281038252602f815260200180612485602f913960400191505060405180910390fd5b610cc18282611ced565b5050565b60045481565b600082118015610cdb5750600081115b610d2c576040805162461bcd60e51b815260206004820152601e60248201527f537465704669786564526174696f3a20696e707574206973207a65726f2e0000604482015290519081900360640190fd5b610d3582611587565b15610d715760405162461bcd60e51b815260040180806020018281038252602b815260200180612587602b913960400191505060405180910390fd5b600b5415610ddc57600b80548391906000198101908110610d8e57fe5b90600052602060002090600202016000015410610ddc5760405162461bcd60e51b815260040180806020018281038252602a81526020018061250f602a913960400191505060405180910390fd5b6040805180820190915291825260208201908152600b805460018101825560009190915291517f0175b7a638427703f0dbe7bb9bbf987a2551717b34e79f33b5b1008d1fa01db9600290930292830155517f0175b7a638427703f0dbe7bb9bbf987a2551717b34e79f33b5b1008d1fa01dba90910155565b60065481565b610e62611ce9565b6001600160a01b0316816001600160a01b031614610eb15760405162461bcd60e51b815260040180806020018281038252602f8152602001806125b2602f913960400191505060405180910390fd5b610cc18282611d56565b600080610ec733611dbf565b905060008111610ee95760405162461bcd60e51b81526004016108b0906122e4565b6002546001600160a01b0316610fe257308031821115610f1b5760405162461bcd60e51b81526004016108b090612338565b6000336001600160a01b031683604051610f3490612216565b60006040518083038185875af1925050503d8060008114610f71576040519150601f19603f3d011682016040523d82523d6000602084013e610f76565b606091505b5050905080610f975760405162461bcd60e51b81526004016108b09061237f565b336001600160a01b03167f9b1bfa7fa9ee420a16e124f794c35ac9f90472acc99140eb2f6447c714cad8eb600085604051610fd3929190612251565b60405180910390a250506110af565b60025460405163a9059cbb60e01b81526001600160a01b039091169063a9059cbb906110149033908590600401612251565b602060405180830381600087803b15801561102e57600080fd5b505af1158015611042573d6000803e3d6000fd5b505050506040513d601f19601f820116820180604052508101906110669190612128565b5060025460405133917f9b1bfa7fa9ee420a16e124f794c35ac9f90472acc99140eb2f6447c714cad8eb916110a6916001600160a01b0316908590612251565b60405180910390a25b600191505090565b600a60205281600052604060002081815481106110d357600080fd5b600091825260209091206003909102018054600182015460029092015460ff909116935090915083565b60075481565b6002546001600160a01b031681565b600080600954141561112e5761112782611609565b9050610bed565b61112782611587565b6000806003544210158015611150575060045483420111155b9392505050565b600061116282611137565b80156111505750611150838361180d565b6001600160a01b0381166000908152600a60209081526040808320805482518185028101850190935280835260609492939192909184015b828210156111fc5760008481526020908190206040805160608101825260038602909201805460ff1615158352600180820154848601526002909101549183019190915290835290920191016111ab565b505050509050919050565b4390565b60095481565b60008051602061256783398151915281565b60085481565b600b818154811061123957600080fd5b60009182526020909120600290910201805460019091015490915082565b60035481565b61127560008051602061256783398151915233611484565b6112b05760405162461bcd60e51b815260040180806020018281038252602b8152602001806124b4602b913960400191505060405180910390fd5b600081116112bd57600080fd5b600655565b6000805b6001600160a01b0383166000908152600a60205260409020548110156113a9576001600160a01b0383166000908152600a6020526040902080548290811061130a57fe5b600091825260209091206003909102015460ff1615801561136157506001600160a01b0383166000908152600a6020526040902080544291908390811061134d57fe5b906000526020600020906003020160010154105b156113a1576001600160a01b0383166000908152600a6020526040902080548290811061138a57fe5b906000526020600020906003020160020154820191505b6001016112c6565b50919050565b6113c760008051602061256783398151915233611484565b6114025760405162461bcd60e51b815260040180806020018281038252602b8152602001806124b4602b913960400191505060405180910390fd5b6000821180156114125750600081115b801561141d57508082105b61142657600080fd5b6003548214158061143957506004548114155b61144257600080fd5b600391909155600455565b60008281526020819052604081206111509083611e91565b6001600160a01b03166000908152600a602052604090205490565b4290565b60008281526020819052604081206111509083611e9d565b6114b460008051602061256783398151915233611484565b6114ef5760405162461bcd60e51b815260040180806020018281038252602b8152602001806124b4602b913960400191505060405180910390fd5b600081116114fc57600080fd5b600555565b600b54600090821061151257600080fd5b600b828154811061151f57fe5b9060005260206000209060020201600101549050919050565b600081565b600b54600090821061154e57600080fd5b670de0b6b3a7640000600b838154811061156457fe5b90600052602060002090600202016001015484028161157f57fe5b049392505050565b6000805b600b548110156115e95782600b82815481106115a357fe5b906000526020600020906002020160000154106115e157600b81815481106115c757fe5b906000526020600020906002020160010154915050610bed565b60010161158b565b50600092915050565b6000818152602081905260408120610b5d90611eb2565b60008060085411801561161e57506000600354115b801561162d5750600454600354105b61163657600080fd5b60085460035460045403838161164857fe5b040292915050565b6002546001600160a01b03161580159061167757506002546001600160a01b038481169116145b61168057600080fd5b61168a8282611157565b61169357600080fd5b600061169f8383611884565b90506116ae3384844201611a97565b60078054820190556002546040516323b872dd60e01b81526001600160a01b03909116906323b872dd906116ea9033903090889060040161222d565b602060405180830381600087803b15801561170457600080fd5b505af1158015611718573d6000803e3d6000fd5b505050506040513d601f19601f8201168201806040525081019061173c9190612128565b5060015460405163a9059cbb60e01b81526001600160a01b039091169063a9059cbb9061176f9033908590600401612251565b602060405180830381600087803b15801561178957600080fd5b505af115801561179d573d6000803e3d6000fd5b505050506040513d601f19601f820116820180604052508101906117c19190612128565b50336001600160a01b03167f347f5f0051b895093800553e6e78ef332849e2552639a4f5ffe66535788ae0788484846040516117ff9392919061244c565b60405180910390a250505050565b60008060065461181d8585611884565b600754011115949350505050565b600082815260208190526040902060020154611849906106c3611ce9565b610eb15760405162461bcd60e51b81526004018080602001828103825260308152602001806124df6030913960400191505060405180910390fd5b60008060095414156118a15761189a83836118ab565b9050610b5d565b61189a8383610b63565b6000806008541180156118c057506000600354115b80156118cf5750600454600354105b6118d857600080fd5b60085460035460045403838502816118ec57fe5b04029392505050565b6000806006546007541015905060045442118061190f5750805b91505090565b600c54610100900460ff168061192e575061192e611ebd565b8061193c5750600c5460ff16155b6119775760405162461bcd60e51b815260040180806020018281038252602e815260200180612539602e913960400191505060405180910390fd5b600c54610100900460ff161580156119a257600c805460ff1961ff0019909116610100171660011790555b8585101580156119b25750428510155b6119bb57600080fd5b6001600160a01b0384166119ce57600080fd5b600083116119db57600080fd5b6001600160a01b03841615611a0657600180546001600160a01b0319166001600160a01b0386161790555b600386905560048590556006839055600280546001600160a01b0319166001600160a01b03841617905560016008556000600955621275006005558015611a5357600c805461ff00191690555b505050505050565b6001546001600160a01b031681565b6000611150836001600160a01b038416611ece565b60003415801590819061115057506111503484611157565b6001600160a01b03831615801590611aaf5750600082115b8015611aba57504281115b611ac357600080fd5b6001600160a01b0383166000908152600a60205260408120815b8154811015611bbf57818181548110611af257fe5b600091825260209091206003909102015460ff1615156001148015611b33575042828281548110611b1f57fe5b906000526020600020906003020160010154105b15611bb7576000828281548110611b4657fe5b906000526020600020906003020160000160006101000a81548160ff02191690831515021790555083828281548110611b7b57fe5b90600052602060002090600302016001018190555084828281548110611b9d57fe5b906000526020600020906003020160020181905550600192505b600101611add565b5081611c1c5760408051606081018252600080825260208083018781529383018881528554600180820188558785529290932093516003909302909301805460ff1916921515929092178255925192810192909255516002909101555b5050505050565b6001600160a01b0382166000908152600a60205260408120815b8154811015611ce157818181548110611c5257fe5b600091825260209091206003909102015460ff16158015611c8f575042828281548110611c7b57fe5b906000526020600020906003020160010154105b15611cd95783828281548110611ca157fe5b906000526020600020906003020160010181905550818181548110611cc257fe5b906000526020600020906003020160020154830192505b600101611c3d565b505092915050565b3390565b6000828152602081905260409020611d059082611a6a565b15610cc157611d12611ce9565b6001600160a01b0316816001600160a01b0316837f2f8788117e7eff1d82e926ec794901d17c78024a50270940304540a733656f0d60405160405180910390a45050565b6000828152602081905260409020611d6e9082611f18565b15610cc157611d7b611ce9565b6001600160a01b0316816001600160a01b0316837ff6391f5c32d9c69d2a47ea670b442974b53935d1edc7fd64eb21e047a839171b60405160405180910390a45050565b6001600160a01b0381166000908152600a60205260408120815b8154811015611e8a57818181548110611dee57fe5b600091825260209091206003909102015460ff16158015611e2b575042828281548110611e1757fe5b906000526020600020906003020160010154105b15611e82576001828281548110611e3e57fe5b60009182526020909120600390910201805460ff19169115159190911790558154829082908110611e6b57fe5b906000526020600020906003020160020154830192505b600101611dd9565b5050919050565b60006111508383611f2d565b6000611150836001600160a01b038416611f91565b6000610b5d82611fa9565b6000611ec830611fad565b15905090565b6000611eda8383611f91565b611f1057508154600181810184556000848152602080822090930184905584548482528286019093526040902091909155610b5d565b506000610b5d565b6000611150836001600160a01b038416611fb3565b81546000908210611f6f5760405162461bcd60e51b81526004018080602001828103825260228152602001806124636022913960400191505060405180910390fd5b826000018281548110611f7e57fe5b9060005260206000200154905092915050565b60009081526001919091016020526040902054151590565b5490565b3b151590565b6000818152600183016020526040812054801561206f5783546000198083019190810190600090879083908110611fe657fe5b906000526020600020015490508087600001848154811061200357fe5b60009182526020808320909101929092558281526001898101909252604090209084019055865487908061203357fe5b60019003818190600052602060002001600090559055866001016000878152602001908152602001600020600090556001945050505050610b5d565b6000915050610b5d565b604051806060016040528060001515815260200160008152602001600081525090565b80356001600160a01b0381168114610bed57600080fd5b6000602082840312156120c4578081fd5b6111508261209c565b600080604083850312156120df578081fd5b6120e88361209c565b946020939093013593505050565b60008060006060848603121561210a578081fd5b6121138461209c565b95602085013595506040909401359392505050565b600060208284031215612139578081fd5b81518015158114611150578182fd5b600060208284031215612159578081fd5b5035919050565b60008060408385031215612172578182fd5b823591506121826020840161209c565b90509250929050565b6000806040838503121561219d578182fd5b50508035926020909101359150565b600080600080600060a086880312156121c3578081fd5b85359450602086013593506121da6040870161209c565b9250606086013591506121ef6080870161209c565b90509295509295909350565b80511515825260208082015190830152604090810151910152565b90565b6001600160a01b0391909116815260200190565b6001600160a01b039384168152919092166020820152604081019190915260600190565b6001600160a01b03929092168252602082015260400190565b6020808252825182820181905260009190848201906040850190845b818110156122ac576122998385516121fb565b9284019260609290920191600101612286565b50909695505050505050565b901515815260200190565b92151583526020830191909152604082015260600190565b90815260200190565b60208082526034908201527f43726f776473616c653a205468657265206973206e6f20616d6f756e7420746860408201527330ba1031b0b7103132903bb4ba34323930bbb71760611b606082015260800190565b60208082526027908201527f43726f776473616c653a2062616c616e6365206920736c61636b20746f2077696040820152663a34323930bb9760c91b606082015260800190565b6020808252601b908201527f43726f776473616c653a207769746864726177206661696c65642e0000000000604082015260600190565b6020808252601f908201527f43726f776473616c653a20706179746f6b656e206973206e6f6e205a65726f00604082015260600190565b60208082526023908201527f43726f776473616c653a2076616c696450757263686173654554482069732066604082015262185a5b60ea1b606082015260800190565b60608101610b5d82846121fb565b918252602082015260400190565b928352602083019190915260408201526060019056fe456e756d657261626c655365743a20696e646578206f7574206f6620626f756e6473416363657373436f6e74726f6c3a2073656e646572206d75737420626520616e2061646d696e20746f206772616e74506861727365315374616b6553657474696e673a2043616c6c6572206973206e6f7420616e2061646d696e416363657373436f6e74726f6c3a2073656e646572206d75737420626520616e2061646d696e20746f207265766f6b65537465704669786564526174696f3a205f6475726174696f6e206973206e6f74206d61782076616c7565496e697469616c697a61626c653a20636f6e747261637420697320616c726561647920696e697469616c697a6564df8b4c520ffe197c5343c6f5aec59570151ef9a492f2c624fd45ddde6135ec42537465704669786564526174696f3a205f6475726174696f6e20697320616c72656164792061646465642e416363657373436f6e74726f6c3a2063616e206f6e6c792072656e6f756e636520726f6c657320666f722073656c66a2646970667358221220713af02da0eeec2d4f372e43fdde572c23cf6131c07077089d0cbeae814df4e664736f6c63430007060033",
  "immutableReferences": {},
  "source": "//SPDX-License-Identifier: Unlicense\npragma solidity ^0.7.0;\npragma abicoder v2;\n\nimport \"../interfaces/IERC20.sol\";\nimport \"@openzeppelin/contracts-upgradeable/proxy/Initializable.sol\";\nimport \"../libraries/LibTokenSale.sol\";\nimport './CrowdsaleStorageSetting.sol';\nimport './StepFixedRatio.sol';\n\n/**\n * @title Crowdsale\n * @dev Crowdsale is a base contract for managing a token crowdsale.\n * Crowdsales have a start and end timestamps, where investors can make\n * token purchases and the crowdsale will assign them tokens based\n * on a token per ETH rate. Funds collected are forwarded to a wallet\n * as they arrive.\n */\ncontract Crowdsale\n    is\n    CrowdsaleStorageSetting, StepFixedRatio, Initializable  {\n    /**\n    * event for token purchase logging\n    * @param purchaser who paid for the tokens\n    * @param value weis paid for purchase\n    * @param duration staking period\n    * @param amount amount of tokens purchased\n    */\n    event TokenPurchase(address indexed purchaser, uint256 value, uint256 duration, uint256 amount);\n    event TokenRePurchase(address indexed purchaser, uint256 value, uint256 duration, uint256 amount);\n    event Withdraw(address indexed from, address token, uint256 value);\n\n  // event Withdraw(address indexed from, address indexed beneficiary,);\n\n    function initialize(\n        uint256 _startTime,\n        uint256 _endTime,\n        address _token,\n        uint256 _cap,\n        address _paytoken\n    )\n        external\n        initializer\n    {\n        require(_startTime >= 0);\n        require(_endTime >= _startTime && _endTime >= block.timestamp);\n        require(_token != address(0));\n        require(_cap > 0);\n\n        if(_token != address(0)) token = _token;\n        startTime = _startTime;\n        endTime = _endTime;\n        cap = _cap;\n        paytoken = _paytoken;\n        maxRatio = 1;\n        ratioType = uint(REWARD_RATIOTYPE.LINEAR_TIME);\n        defaultDuration = 60*60*24*14; // 2 weeks ;\n\n    }\n\n    receive() external payable {\n      require(paytoken == address(0) && defaultDuration > 0);\n      buyTokens(defaultDuration);\n    }\n\n    // low level token purchase function\n    function addLockStakedToken(\n        address _user,\n        uint256 _amount,\n        uint256 _releaseTime\n    )\n        internal\n    {\n        require(_user != address(0) && _amount > 0 && _releaseTime > block.timestamp );\n        bool addLock = false;\n        LibTokenSale.LockAmount[] storage userLocks = userLockStakedToken[_user];\n\n        for (uint256 i = 0; i< userLocks.length; i++){\n          if (userLocks[i].released == true && userLocks[i].releaseTime < block.timestamp) {\n            userLocks[i].released = false;\n            userLocks[i].releaseTime = _releaseTime;\n            userLocks[i].amount = _amount;\n            addLock = true;\n          }\n        }\n        if(!addLock) userLocks.push(LibTokenSale.LockAmount(false, _releaseTime, _amount));\n    }\n\n    // low level token purchase function\n    function buyTokens(uint256 duration) public payable {\n      require(paytoken == address(0), \"Crowdsale: paytoken is non Zero\");\n      require(validPurchaseETH(duration), \"Crowdsale: validPurchaseETH is fail\");\n\n      uint256 weiAmount = msg.value;  // stake amount\n\n      // calculate token amount to be created\n      uint256 rewardAmount = calculateAmountByRatio(weiAmount, duration);\n\n      // lock\n      addLockStakedToken(msg.sender, weiAmount, block.timestamp+duration);\n\n      // update state\n      weiRaised += rewardAmount;\n\n      // transfer token rewardAmount\n      IERC20(token).transfer(msg.sender, rewardAmount);\n      emit TokenPurchase(msg.sender, weiAmount, duration, rewardAmount);\n\n      //forwardFunds();\n    }\n\n\n    // low level token purchase function\n    function buyTokens(address _paytoken, uint256 amount, uint256 duration) external {\n      require(paytoken != address(0) && paytoken == _paytoken);\n      require(validPurchase(amount, duration));\n\n      // calculate token amount to be created\n      uint256 rewardAmount = calculateAmountByRatio(amount, duration);\n\n      // lock\n      addLockStakedToken(msg.sender, amount, block.timestamp+duration);\n\n      // update state\n      weiRaised += rewardAmount;\n\n      //paytoken transfer\n      IERC20(paytoken).transferFrom(msg.sender, address(this), amount);\n\n      // transfer token rewardAmount\n      IERC20(token).transfer(msg.sender, rewardAmount);\n      emit TokenPurchase(msg.sender, amount, duration, rewardAmount);\n\n      //forwardFunds();\n    }\n\n    // send ether to the fund collection wallet\n    // override to create custom fund forwarding mechanisms\n    //function forwardFunds() internal {\n    //  wallet.transfer(msg.value);\n    //}\n\n    // @return true if the transaction can buy tokens\n    function validPurchase(uint256 _amount, uint256 duration) public view returns (bool) {\n      return validPeriod(duration) && validCap(_amount, duration);\n    }\n\n    function validPeriod(uint256 duration) public view returns (bool) {\n      bool withinPeriod = block.timestamp >= startTime && (block.timestamp + duration) <= endTime;\n      return withinPeriod;\n    }\n    function validCap(uint256 _amount, uint256 duration) public view returns (bool) {\n      bool withinCap = (weiRaised + calculateAmountByRatio(_amount, duration)) <= cap;\n      return withinCap;\n    }\n\n    function validPurchaseETH(uint256 duration) internal view returns (bool) {\n      bool nonZeroPurchase = msg.value != 0;\n      return nonZeroPurchase && validPurchase(msg.value, duration);\n    }\n\n    // @return true if crowdsale event has ended\n    function hasEnded() public view returns (bool) {\n      bool capReached = weiRaised >= cap;\n      return block.timestamp > endTime || capReached;\n    }\n\n    function getRatio(uint256 _duration) public view returns (uint256 ratio) {\n      if( ratioType == uint(REWARD_RATIOTYPE.LINEAR_TIME) ) return getLinearRatioByDuration(_duration);\n      else return getRatioByDuration(_duration);\n    }\n\n    function calculateAmountByRatio(uint256 _amount, uint256 _duration) public view returns (uint256 ratio) {\n      if( ratioType == uint(REWARD_RATIOTYPE.LINEAR_TIME) ) return calculateAmountLinearRatioByDuration(_amount, _duration);\n      else return calculateAmountWithRatioByDuration(_amount, _duration);\n    }\n\n    function withdraw() external returns (bool){\n      uint256 unLockAmount = releaseUserLockStakedToken(msg.sender);\n      require(unLockAmount > 0, \"Crowdsale: There is no amount that can be withdrawn.\");\n      if(paytoken == address(0)){\n          address payable self = address(uint160(address(this)));\n          require(self.balance >= unLockAmount, \"Crowdsale: balance i slack to withdraw.\");\n\n          // msg.sender.transfer(unLockAmount);\n          (bool success, ) = msg.sender.call{value: unLockAmount}(\"\");\n          require(success, \"Crowdsale: withdraw failed.\");\n          emit Withdraw(msg.sender, address(0), unLockAmount );\n      } else {\n          IERC20(paytoken).transfer(msg.sender, unLockAmount);\n          emit Withdraw(msg.sender, paytoken, unLockAmount);\n      }\n      return true;\n    }\n\n    function rebuyToken(uint256 _duration) external {\n\n      // Extend lock's releaseTime\n      uint256 rebuyAmount = rebuyUserLockStakedToken(msg.sender, block.timestamp + _duration);\n      require(validPurchase(rebuyAmount, _duration));\n\n      // calculate token amount to be created\n      uint256 rewardAmount = calculateAmountByRatio(rebuyAmount, _duration);\n\n      // update state\n      weiRaised += rewardAmount;\n\n      // transfer token rewardAmount\n      IERC20(token).transfer(msg.sender, rewardAmount);\n      emit TokenRePurchase(msg.sender, rebuyAmount, _duration, rewardAmount);\n    }\n\n    function rebuyUserLockStakedToken(address _user, uint256 _releaseTime) internal returns (uint256 rebuyAmount) {\n      LibTokenSale.LockAmount[] storage userLocks = userLockStakedToken[_user];\n      rebuyAmount = 0;\n\n      for (uint256 i = 0; i< userLocks.length; i++){\n        if (userLocks[i].released == false && userLocks[i].releaseTime < block.timestamp) {\n          userLocks[i].releaseTime = _releaseTime;\n          rebuyAmount += userLocks[i].amount;\n        }\n      }\n    }\n\n\n    function releaseUserLockStakedToken(address _user) internal returns (uint256 unLockAmount) {\n      LibTokenSale.LockAmount[] storage userLocks = userLockStakedToken[_user];\n      unLockAmount = 0;\n\n      for (uint256 i = 0; i< userLocks.length; i++){\n        if (userLocks[i].released == false && userLocks[i].releaseTime < block.timestamp) {\n          userLocks[i].released = true;\n          unLockAmount += userLocks[i].amount;\n        }\n      }\n    }\n\n    function curBlockTimeStamp() public view returns (uint256 curTime) {\n       return block.timestamp;\n    }\n    function curBlockNumber() public view returns (uint256 curNumber) {\n       return block.number;\n    }\n\n    function canWithdrawAmount(address _user) public view returns (uint256 validAmount) {\n      validAmount = 0;\n      for (uint256 i = 0; i< userLockStakedToken[_user].length; i++){\n        if (userLockStakedToken[_user][i].released == false && userLockStakedToken[_user][i].releaseTime < block.timestamp) {\n          validAmount += userLockStakedToken[_user][i].amount;\n        }\n      }\n    }\n\n    function getAllUserLocks(address _user) public view returns (LibTokenSale.LockAmount[] memory) {\n      return userLockStakedToken[_user];\n    }\n\n    function lengthAllUserLocks(address _user) public view returns (uint256 counts) {\n      counts = userLockStakedToken[_user].length;\n    }\n\n    function getUserLocks(address _user, uint256 _index) public view returns (LibTokenSale.LockAmount memory) {\n      require(_index < userLockStakedToken[_user].length);\n      return userLockStakedToken[_user][_index];\n    }\n}\n",
  "sourcePath": "/Users/zena/ico2.0/ico20-contracts/contracts/presale/Crowdsale.sol",
  "compiler": {
    "name": "solc",
    "version": "0.7.6+commit.7338295f.Emscripten.clang"
  },
  "schemaVersion": "3.3.4",
  "updatedAt": "2021-04-19T05:58:02.299Z",
  "devdoc": {
    "details": "Crowdsale is a base contract for managing a token crowdsale. Crowdsales have a start and end timestamps, where investors can make token purchases and the crowdsale will assign them tokens based on a token per ETH rate. Funds collected are forwarded to a wallet as they arrive.",
    "events": {
      "TokenPurchase(address,uint256,uint256,uint256)": {
        "params": {
          "amount": "amount of tokens purchased",
          "duration": "staking period",
          "purchaser": "who paid for the tokens",
          "value": "weis paid for purchase"
        }
      }
    },
    "kind": "dev",
    "methods": {
      "getRoleAdmin(bytes32)": {
        "details": "Returns the admin role that controls `role`. See {grantRole} and {revokeRole}. To change a role's admin, use {_setRoleAdmin}."
      },
      "getRoleMember(bytes32,uint256)": {
        "details": "Returns one of the accounts that have `role`. `index` must be a value between 0 and {getRoleMemberCount}, non-inclusive. Role bearers are not sorted in any particular way, and their ordering may change at any point. WARNING: When using {getRoleMember} and {getRoleMemberCount}, make sure you perform all queries on the same block. See the following https://forum.openzeppelin.com/t/iterating-over-elements-on-enumerableset-in-openzeppelin-contracts/2296[forum post] for more information."
      },
      "getRoleMemberCount(bytes32)": {
        "details": "Returns the number of accounts that have `role`. Can be used together with {getRoleMember} to enumerate all bearers of a role."
      },
      "grantRole(bytes32,address)": {
        "details": "Grants `role` to `account`. If `account` had not been already granted `role`, emits a {RoleGranted} event. Requirements: - the caller must have ``role``'s admin role."
      },
      "hasRole(bytes32,address)": {
        "details": "Returns `true` if `account` has been granted `role`."
      },
      "renounceRole(bytes32,address)": {
        "details": "Revokes `role` from the calling account. Roles are often managed via {grantRole} and {revokeRole}: this function's purpose is to provide a mechanism for accounts to lose their privileges if they are compromised (such as when a trusted device is misplaced). If the calling account had been granted `role`, emits a {RoleRevoked} event. Requirements: - the caller must be `account`."
      },
      "revokeRole(bytes32,address)": {
        "details": "Revokes `role` from `account`. If `account` had been granted `role`, emits a {RoleRevoked} event. Requirements: - the caller must have ``role``'s admin role."
      }
    },
    "title": "Crowdsale",
    "version": 1
  },
  "userdoc": {
    "events": {
      "TokenPurchase(address,uint256,uint256,uint256)": {
        "notice": "event for token purchase logging"
      }
    },
    "kind": "user",
    "methods": {
      "changeStartEndTime(uint256,uint256)": {
        "notice": "external"
      },
      "getLinearRatioByDuration(uint256)": {
        "notice": "public"
      }
    },
    "version": 1
  }
}