{
  "contractName": "CrowdsaleStorage",
  "abi": [
    {
      "inputs": [],
      "stateMutability": "nonpayable",
      "type": "constructor"
    },
    {
      "anonymous": false,
      "inputs": [
        {
          "indexed": true,
          "internalType": "bytes32",
          "name": "role",
          "type": "bytes32"
        },
        {
          "indexed": true,
          "internalType": "bytes32",
          "name": "previousAdminRole",
          "type": "bytes32"
        },
        {
          "indexed": true,
          "internalType": "bytes32",
          "name": "newAdminRole",
          "type": "bytes32"
        }
      ],
      "name": "RoleAdminChanged",
      "type": "event"
    },
    {
      "anonymous": false,
      "inputs": [
        {
          "indexed": true,
          "internalType": "bytes32",
          "name": "role",
          "type": "bytes32"
        },
        {
          "indexed": true,
          "internalType": "address",
          "name": "account",
          "type": "address"
        },
        {
          "indexed": true,
          "internalType": "address",
          "name": "sender",
          "type": "address"
        }
      ],
      "name": "RoleGranted",
      "type": "event"
    },
    {
      "anonymous": false,
      "inputs": [
        {
          "indexed": true,
          "internalType": "bytes32",
          "name": "role",
          "type": "bytes32"
        },
        {
          "indexed": true,
          "internalType": "address",
          "name": "account",
          "type": "address"
        },
        {
          "indexed": true,
          "internalType": "address",
          "name": "sender",
          "type": "address"
        }
      ],
      "name": "RoleRevoked",
      "type": "event"
    },
    {
      "inputs": [],
      "name": "ADMIN_ROLE",
      "outputs": [
        {
          "internalType": "bytes32",
          "name": "",
          "type": "bytes32"
        }
      ],
      "stateMutability": "view",
      "type": "function"
    },
    {
      "inputs": [],
      "name": "DEFAULT_ADMIN_ROLE",
      "outputs": [
        {
          "internalType": "bytes32",
          "name": "",
          "type": "bytes32"
        }
      ],
      "stateMutability": "view",
      "type": "function"
    },
    {
      "inputs": [],
      "name": "cap",
      "outputs": [
        {
          "internalType": "uint256",
          "name": "",
          "type": "uint256"
        }
      ],
      "stateMutability": "view",
      "type": "function"
    },
    {
      "inputs": [],
      "name": "defaultDuration",
      "outputs": [
        {
          "internalType": "uint256",
          "name": "",
          "type": "uint256"
        }
      ],
      "stateMutability": "view",
      "type": "function"
    },
    {
      "inputs": [],
      "name": "endTime",
      "outputs": [
        {
          "internalType": "uint256",
          "name": "",
          "type": "uint256"
        }
      ],
      "stateMutability": "view",
      "type": "function"
    },
    {
      "inputs": [
        {
          "internalType": "bytes32",
          "name": "role",
          "type": "bytes32"
        }
      ],
      "name": "getRoleAdmin",
      "outputs": [
        {
          "internalType": "bytes32",
          "name": "",
          "type": "bytes32"
        }
      ],
      "stateMutability": "view",
      "type": "function"
    },
    {
      "inputs": [
        {
          "internalType": "bytes32",
          "name": "role",
          "type": "bytes32"
        },
        {
          "internalType": "uint256",
          "name": "index",
          "type": "uint256"
        }
      ],
      "name": "getRoleMember",
      "outputs": [
        {
          "internalType": "address",
          "name": "",
          "type": "address"
        }
      ],
      "stateMutability": "view",
      "type": "function"
    },
    {
      "inputs": [
        {
          "internalType": "bytes32",
          "name": "role",
          "type": "bytes32"
        }
      ],
      "name": "getRoleMemberCount",
      "outputs": [
        {
          "internalType": "uint256",
          "name": "",
          "type": "uint256"
        }
      ],
      "stateMutability": "view",
      "type": "function"
    },
    {
      "inputs": [
        {
          "internalType": "bytes32",
          "name": "role",
          "type": "bytes32"
        },
        {
          "internalType": "address",
          "name": "account",
          "type": "address"
        }
      ],
      "name": "grantRole",
      "outputs": [],
      "stateMutability": "nonpayable",
      "type": "function"
    },
    {
      "inputs": [
        {
          "internalType": "bytes32",
          "name": "role",
          "type": "bytes32"
        },
        {
          "internalType": "address",
          "name": "account",
          "type": "address"
        }
      ],
      "name": "hasRole",
      "outputs": [
        {
          "internalType": "bool",
          "name": "",
          "type": "bool"
        }
      ],
      "stateMutability": "view",
      "type": "function"
    },
    {
      "inputs": [],
      "name": "maxRatio",
      "outputs": [
        {
          "internalType": "uint256",
          "name": "",
          "type": "uint256"
        }
      ],
      "stateMutability": "view",
      "type": "function"
    },
    {
      "inputs": [],
      "name": "paytoken",
      "outputs": [
        {
          "internalType": "address",
          "name": "",
          "type": "address"
        }
      ],
      "stateMutability": "view",
      "type": "function"
    },
    {
      "inputs": [],
      "name": "ratioType",
      "outputs": [
        {
          "internalType": "uint256",
          "name": "",
          "type": "uint256"
        }
      ],
      "stateMutability": "view",
      "type": "function"
    },
    {
      "inputs": [
        {
          "internalType": "bytes32",
          "name": "role",
          "type": "bytes32"
        },
        {
          "internalType": "address",
          "name": "account",
          "type": "address"
        }
      ],
      "name": "renounceRole",
      "outputs": [],
      "stateMutability": "nonpayable",
      "type": "function"
    },
    {
      "inputs": [
        {
          "internalType": "bytes32",
          "name": "role",
          "type": "bytes32"
        },
        {
          "internalType": "address",
          "name": "account",
          "type": "address"
        }
      ],
      "name": "revokeRole",
      "outputs": [],
      "stateMutability": "nonpayable",
      "type": "function"
    },
    {
      "inputs": [],
      "name": "startTime",
      "outputs": [
        {
          "internalType": "uint256",
          "name": "",
          "type": "uint256"
        }
      ],
      "stateMutability": "view",
      "type": "function"
    },
    {
      "inputs": [],
      "name": "token",
      "outputs": [
        {
          "internalType": "address",
          "name": "",
          "type": "address"
        }
      ],
      "stateMutability": "view",
      "type": "function"
    },
    {
      "inputs": [
        {
          "internalType": "address",
          "name": "",
          "type": "address"
        },
        {
          "internalType": "uint256",
          "name": "",
          "type": "uint256"
        }
      ],
      "name": "userLockStakedToken",
      "outputs": [
        {
          "internalType": "bool",
          "name": "released",
          "type": "bool"
        },
        {
          "internalType": "uint256",
          "name": "releaseTime",
          "type": "uint256"
        },
        {
          "internalType": "uint256",
          "name": "amount",
          "type": "uint256"
        }
      ],
      "stateMutability": "view",
      "type": "function"
    },
    {
      "inputs": [],
      "name": "weiRaised",
      "outputs": [
        {
          "internalType": "uint256",
          "name": "",
          "type": "uint256"
        }
      ],
      "stateMutability": "view",
      "type": "function"
    }
  ],
  "bytecode": "0x608060405234801561001057600080fd5b5061003b7fdf8b4c520ffe197c5343c6f5aec59570151ef9a492f2c624fd45ddde6135ec4233610040565b610145565b61004a828261004e565b5050565b60008281526020818152604090912061007091839061055d6100c1821b17901c565b1561004a5761007d6100df565b6001600160a01b0316816001600160a01b0316837f2f8788117e7eff1d82e926ec794901d17c78024a50270940304540a733656f0d60405160405180910390a45050565b60006100d6836001600160a01b0384166100e3565b90505b92915050565b3390565b60006100ef838361012d565b610125575081546001818101845560008481526020808220909301849055845484825282860190935260409020919091556100d9565b5060006100d9565b60009081526001919091016020526040902054151590565b6108ff806101546000396000f3fe608060405234801561001057600080fd5b50600436106101215760003560e01c80636b9559c0116100ad57806391d148541161007157806391d1485414610282578063a217fddf146102c2578063ca15c873146102ca578063d547741f146102e7578063fc0c546a1461031357610121565b80636b9559c01461023f57806375b238fc1461024757806376365af71461024f57806378e97925146102575780639010d07c1461025f57610121565b8063355274ea116100f4578063355274ea1461019357806336568abe1461019b5780633dd07d88146101c75780634042b66f1461021357806343b0934a1461021b57610121565b8063248a9ca3146101265780632af7e2ea146101555780632f2ff15d1461015d5780633197cbb61461018b575b600080fd5b6101436004803603602081101561013c57600080fd5b503561031b565b60408051918252519081900360200190f35b610143610330565b6101896004803603604081101561017357600080fd5b50803590602001356001600160a01b0316610336565b005b6101436103a2565b6101436103a8565b610189600480360360408110156101b157600080fd5b50803590602001356001600160a01b03166103ae565b6101f3600480360360408110156101dd57600080fd5b506001600160a01b03813516906020013561040f565b604080519315158452602084019290925282820152519081900360600190f35b610143610455565b61022361045b565b604080516001600160a01b039092168252519081900360200190f35b61014361046a565b610143610470565b610143610494565b61014361049a565b6102236004803603604081101561027557600080fd5b50803590602001356104a0565b6102ae6004803603604081101561029857600080fd5b50803590602001356001600160a01b03166104c1565b604080519115158252519081900360200190f35b6101436104d9565b610143600480360360208110156102e057600080fd5b50356104de565b610189600480360360408110156102fd57600080fd5b50803590602001356001600160a01b03166104f5565b61022361054e565b60009081526020819052604090206002015490565b60055481565b60008281526020819052604090206002015461035990610354610572565b6104c1565b6103945760405162461bcd60e51b815260040180806020018281038252602f81526020018061083c602f913960400191505060405180910390fd5b61039e8282610576565b5050565b60045481565b60065481565b6103b6610572565b6001600160a01b0316816001600160a01b0316146104055760405162461bcd60e51b815260040180806020018281038252602f81526020018061089b602f913960400191505060405180910390fd5b61039e82826105df565b600a602052816000526040600020818154811061042b57600080fd5b600091825260209091206003909102018054600182015460029092015460ff909116935090915083565b60075481565b6002546001600160a01b031681565b60095481565b7fdf8b4c520ffe197c5343c6f5aec59570151ef9a492f2c624fd45ddde6135ec4281565b60085481565b60035481565b60008281526020819052604081206104b89083610648565b90505b92915050565b60008281526020819052604081206104b89083610654565b600081565b60008181526020819052604081206104bb90610669565b60008281526020819052604090206002015461051390610354610572565b6104055760405162461bcd60e51b815260040180806020018281038252603081526020018061086b6030913960400191505060405180910390fd5b6001546001600160a01b031681565b60006104b8836001600160a01b038416610674565b3390565b600082815260208190526040902061058e908261055d565b1561039e5761059b610572565b6001600160a01b0316816001600160a01b0316837f2f8788117e7eff1d82e926ec794901d17c78024a50270940304540a733656f0d60405160405180910390a45050565b60008281526020819052604090206105f790826106be565b1561039e57610604610572565b6001600160a01b0316816001600160a01b0316837ff6391f5c32d9c69d2a47ea670b442974b53935d1edc7fd64eb21e047a839171b60405160405180910390a45050565b60006104b883836106d3565b60006104b8836001600160a01b038416610737565b60006104bb8261074f565b60006106808383610737565b6106b6575081546001818101845560008481526020808220909301849055845484825282860190935260409020919091556104bb565b5060006104bb565b60006104b8836001600160a01b038416610753565b815460009082106107155760405162461bcd60e51b815260040180806020018281038252602281526020018061081a6022913960400191505060405180910390fd5b82600001828154811061072457fe5b9060005260206000200154905092915050565b60009081526001919091016020526040902054151590565b5490565b6000818152600183016020526040812054801561080f578354600019808301919081019060009087908390811061078657fe5b90600052602060002001549050808760000184815481106107a357fe5b6000918252602080832090910192909255828152600189810190925260409020908401905586548790806107d357fe5b600190038181906000526020600020016000905590558660010160008781526020019081526020016000206000905560019450505050506104bb565b60009150506104bb56fe456e756d657261626c655365743a20696e646578206f7574206f6620626f756e6473416363657373436f6e74726f6c3a2073656e646572206d75737420626520616e2061646d696e20746f206772616e74416363657373436f6e74726f6c3a2073656e646572206d75737420626520616e2061646d696e20746f207265766f6b65416363657373436f6e74726f6c3a2063616e206f6e6c792072656e6f756e636520726f6c657320666f722073656c66a264697066735822122011081058bba1abf749187e849c163eec800126a0119cac12d7e907298f56720e64736f6c63430007060033",
  "immutableReferences": {},
  "source": "//SPDX-License-Identifier: Unlicense\npragma solidity ^0.7.0;\n\nimport \"@openzeppelin/contracts/access/AccessControl.sol\";\nimport \"../libraries/LibTokenSale.sol\";\n//import '../tokens/FLD.sol';\n\ncontract CrowdsaleStorage is AccessControl{\n\n  bytes32 public constant ADMIN_ROLE = keccak256(\"ADMIN\");\n\n  // The token being sold\n  address public token;\n\n  // The paytoken payed ( if paytoken is ether, paytoken is address(0) )\n  address public paytoken;\n\n  // start and end timestamps where investments are allowed (both inclusive)\n  uint256 public startTime;\n  uint256 public endTime;\n  uint256 public defaultDuration;\n\n  uint256 public cap;\n  // how many token units a buyer gets per wei\n  //uint256 public rate;\n\n  // amount of raised money in wei , reward fld\n  uint256 public weiRaised;\n\n  // max ratio to gain when stake whole period\n  uint256 public maxRatio;\n\n  // 0: linear by time, 1:step fixed ratio\n  uint public ratioType;\n\n  //\n  mapping(address => LibTokenSale.LockAmount[]) public userLockStakedToken;\n\n  constructor() {\n    _setupRole(ADMIN_ROLE, msg.sender);\n  }\n\n}\n",
  "sourcePath": "/Users/zena/ico2.0/ico20-contracts/contracts/presale/CrowdsaleStorage.sol",
  "compiler": {
    "name": "solc",
    "version": "0.7.6+commit.7338295f.Emscripten.clang"
  },
  "schemaVersion": "3.3.4",
  "updatedAt": "2021-04-19T05:52:38.565Z",
  "devdoc": {
    "kind": "dev",
    "methods": {
      "getRoleAdmin(bytes32)": {
        "details": "Returns the admin role that controls `role`. See {grantRole} and {revokeRole}. To change a role's admin, use {_setRoleAdmin}."
      },
      "getRoleMember(bytes32,uint256)": {
        "details": "Returns one of the accounts that have `role`. `index` must be a value between 0 and {getRoleMemberCount}, non-inclusive. Role bearers are not sorted in any particular way, and their ordering may change at any point. WARNING: When using {getRoleMember} and {getRoleMemberCount}, make sure you perform all queries on the same block. See the following https://forum.openzeppelin.com/t/iterating-over-elements-on-enumerableset-in-openzeppelin-contracts/2296[forum post] for more information."
      },
      "getRoleMemberCount(bytes32)": {
        "details": "Returns the number of accounts that have `role`. Can be used together with {getRoleMember} to enumerate all bearers of a role."
      },
      "grantRole(bytes32,address)": {
        "details": "Grants `role` to `account`. If `account` had not been already granted `role`, emits a {RoleGranted} event. Requirements: - the caller must have ``role``'s admin role."
      },
      "hasRole(bytes32,address)": {
        "details": "Returns `true` if `account` has been granted `role`."
      },
      "renounceRole(bytes32,address)": {
        "details": "Revokes `role` from the calling account. Roles are often managed via {grantRole} and {revokeRole}: this function's purpose is to provide a mechanism for accounts to lose their privileges if they are compromised (such as when a trusted device is misplaced). If the calling account had been granted `role`, emits a {RoleRevoked} event. Requirements: - the caller must be `account`."
      },
      "revokeRole(bytes32,address)": {
        "details": "Revokes `role` from `account`. If `account` had been granted `role`, emits a {RoleRevoked} event. Requirements: - the caller must have ``role``'s admin role."
      }
    },
    "version": 1
  },
  "userdoc": {
    "kind": "user",
    "methods": {},
    "version": 1
  }
}