{
  "contractName": "DAO",
  "abi": [
    {
      "inputs": [],
      "name": "VOTING_DEADLINE_PERIOD",
      "outputs": [
        {
          "internalType": "uint256",
          "name": "",
          "type": "uint256"
        }
      ],
      "stateMutability": "view",
      "type": "function"
    },
    {
      "inputs": [],
      "name": "agendaIDCounter",
      "outputs": [
        {
          "internalType": "uint256",
          "name": "",
          "type": "uint256"
        }
      ],
      "stateMutability": "view",
      "type": "function"
    },
    {
      "inputs": [
        {
          "internalType": "uint256",
          "name": "",
          "type": "uint256"
        }
      ],
      "name": "agendas",
      "outputs": [
        {
          "internalType": "bool",
          "name": "exists",
          "type": "bool"
        },
        {
          "internalType": "uint256",
          "name": "votingDeadline",
          "type": "uint256"
        },
        {
          "internalType": "bool",
          "name": "open",
          "type": "bool"
        },
        {
          "internalType": "bytes32",
          "name": "agendaHash",
          "type": "bytes32"
        },
        {
          "internalType": "bool",
          "name": "passed",
          "type": "bool"
        },
        {
          "internalType": "address payable",
          "name": "recipient",
          "type": "address"
        },
        {
          "internalType": "uint256",
          "name": "yesVotesCount",
          "type": "uint256"
        },
        {
          "internalType": "uint256",
          "name": "noVotesCount",
          "type": "uint256"
        }
      ],
      "stateMutability": "view",
      "type": "function"
    },
    {
      "inputs": [
        {
          "internalType": "address payable",
          "name": "_recipient",
          "type": "address"
        },
        {
          "internalType": "bytes",
          "name": "_transactionData",
          "type": "bytes"
        }
      ],
      "name": "newAgenda",
      "outputs": [
        {
          "internalType": "uint256",
          "name": "_agendaID",
          "type": "uint256"
        }
      ],
      "stateMutability": "nonpayable",
      "type": "function"
    },
    {
      "inputs": [
        {
          "internalType": "uint256",
          "name": "_agendaID",
          "type": "uint256"
        },
        {
          "internalType": "bool",
          "name": "_yes",
          "type": "bool"
        }
      ],
      "name": "vote",
      "outputs": [],
      "stateMutability": "nonpayable",
      "type": "function"
    },
    {
      "inputs": [
        {
          "internalType": "uint256",
          "name": "_agendaID",
          "type": "uint256"
        },
        {
          "internalType": "bytes",
          "name": "_transactionData",
          "type": "bytes"
        }
      ],
      "name": "executeAgenda",
      "outputs": [
        {
          "internalType": "bool",
          "name": "_success",
          "type": "bool"
        }
      ],
      "stateMutability": "nonpayable",
      "type": "function"
    },
    {
      "inputs": [
        {
          "internalType": "uint256",
          "name": "agendaID",
          "type": "uint256"
        }
      ],
      "name": "getAgenda",
      "outputs": [
        {
          "internalType": "address",
          "name": "",
          "type": "address"
        },
        {
          "internalType": "uint256",
          "name": "",
          "type": "uint256"
        },
        {
          "internalType": "bytes32",
          "name": "",
          "type": "bytes32"
        },
        {
          "internalType": "bool",
          "name": "",
          "type": "bool"
        },
        {
          "internalType": "bool",
          "name": "",
          "type": "bool"
        },
        {
          "internalType": "uint256",
          "name": "",
          "type": "uint256"
        },
        {
          "internalType": "uint256",
          "name": "",
          "type": "uint256"
        }
      ],
      "stateMutability": "view",
      "type": "function"
    }
  ],
  "bytecode": "0x60806040526212750060005534801561001757600080fd5b50610aa2806100276000396000f3fe608060405234801561001057600080fd5b506004361061007d5760003560e01c806374defa651161005b57806374defa6514610166578063a55f6f391461021c578063aeebf0be146102dd578063c9d27afe146102e55761007d565b80633c4a819c14610082578063431f6d1c146100eb57806365ceaac714610105575b600080fd5b61009f6004803603602081101561009857600080fd5b503561030c565b604080519815158952602089019790975294151587870152606087019390935290151560808601526001600160a01b031660a085015260c084015260e083015251908190036101000190f35b6100f3610362565b60408051918252519081900360200190f35b6101226004803603602081101561011b57600080fd5b5035610368565b604080516001600160a01b03909816885260208801969096528686019490945291151560608601521515608085015260a084015260c0830152519081900360e00190f35b6100f36004803603604081101561017c57600080fd5b6001600160a01b0382351691908101906040810160208201356401000000008111156101a757600080fd5b8201836020820111156101b957600080fd5b803590602001918460018302840111640100000000831117156101db57600080fd5b91908080601f01602080910402602001604051908101604052809392919081815260200183838082843760009201919091525092955061041c945050505050565b6102c96004803603604081101561023257600080fd5b8135919081019060408101602082013564010000000081111561025457600080fd5b82018360208201111561026657600080fd5b8035906020019184600183028401116401000000008311171561028857600080fd5b91908080601f01602080910402602001604051908101604052809392919081815260200183838082843760009201919091525092955061052a945050505050565b604080519115158252519081900360200190f35b6100f3610830565b61030a600480360360408110156102fb57600080fd5b50803590602001351515610836565b005b6002602081905260009182526040909120805460018201549282015460038301546004840154600585015460069095015460ff9485169695938516949293928216926101009092046001600160a01b0316919088565b60005481565b6000818152600260205260408120805482918291829182918291829160ff1615156001146103d1576040805162461bcd60e51b81526020600482015260116024820152704e6f207375636820616e206167656e646160781b604482015290519081900360640190fd5b6004810154600182015460038301546002840154600585015460069095015461010085046001600160a01b03169e939d50919b5060ff9384169a509290921697509195509350915050565b6001805460008181526002602081815260408084208587018755805460ff199081168817825594544201818801559283018054909416909517909255600481018054610100600160a81b0319166101006001600160a01b038916021790559251606086901b6bffffffffffffffffffffffff191681830190815285519394938793879360340191908401908083835b602083106104ca5780518252601f1990920191602091820191016104ab565b51815160209384036101000a60001901801990921691161790526040805192909401828103601f190183529093528051920191909120600386015550505060048201805460ff191690555060006005820181905560069091015592915050565b6000828152600260205260408120805460ff161515600114610587576040805162461bcd60e51b81526020600482015260116024820152704e6f207375636820616e206167656e646160781b604482015290519081900360640190fd5b428160010154106105c95760405162461bcd60e51b8152600401808060200182810382526022815260200180610a4b6022913960400191505060405180910390fd5b600281015460ff16151560011461061c576040805162461bcd60e51b815260206004820152601260248201527120b3b2b732309034b9903737ba1037b832b760711b604482015290519081900360640190fd5b8060040160019054906101000a90046001600160a01b03168360405160200180836001600160a01b031660601b815260140182805190602001908083835b602083106106795780518252601f19909201916020918201910161065a565b6001836020036101000a03801982511681845116808217855250505050505090500192505050604051602081830303815290604052805190602001208160030154146106f65760405162461bcd60e51b8152600401808060200182810382526022815260200180610a296022913960400191505060405180910390fd5b80600601548160050154111561081c576004810154604051845160009261010090046001600160a01b0316918691819060208401908083835b6020831061074e5780518252601f19909201916020918201910161072f565b6001836020036101000a0380198251168184511680821785525050505050509050019150506000604051808303816000865af19150503d80600081146107b0576040519150601f19603f3d011682016040523d82523d6000602084013e6107b5565b606091505b505090508061080b576040805162461bcd60e51b815260206004820152601760248201527f43616e6e6f7420657865637574652066756e6374696f6e000000000000000000604482015290519081900360640190fd5b5060048101805460ff191660011790555b600201805460ff1916905550600192915050565b60015481565b6000828152600260205260409020805460ff161515600114610893576040805162461bcd60e51b81526020600482015260116024820152704e6f207375636820616e206167656e646160781b604482015290519081900360640190fd5b80600101544211156108ec576040805162461bcd60e51b815260206004820152601a60248201527f566f74696e6720646561646c696e652068617320706173736564000000000000604482015290519081900360640190fd5b600281015460ff16151560011461093f576040805162461bcd60e51b815260206004820152601260248201527120b3b2b732309034b9903737ba1037b832b760711b604482015290519081900360640190fd5b33600090815260078201602052604090205460ff1615610983576005810180546000190190553360009081526007820160205260409020805460ff191690556109c3565b33600090815260088201602052604090205460ff16156109c3576006810180546000190190553360009081526008820160205260409020805460ff191690555b81156109f85760058101805460019081019091553360009081526007830160205260409020805460ff19169091179055610a23565b60068101805460019081019091553360009081526008830160205260409020805460ff191690911790555b50505056fe476976656e207472616e73616374696f6e44617461206973206e6f742076616c6964566f74696e6720646561646c696e6520686173206e6f742079657420706173736564a2646970667358221220820c8a90a2399efe29cef37f1161e828bb1ab030d25dccc16b5a4442039cdbc864736f6c63430007060033",
  "immutableReferences": {},
  "source": "// SPDX-License-Identifier: UNLICENSED\npragma solidity ^0.7.6;\n\nimport \"../interfaces/ISFLD.sol\";\nimport \"./DAOProxyStorage.sol\";\nimport \"../libraries/LibDAO.sol\";\n\nimport \"hardhat/console.sol\";\n\ncontract DAO is DAOProxyStorage {\n    /// @dev Create new agenda\n    function newAgenda(\n        address payable _recipient,\n        bytes memory _transactionData\n    ) external returns (uint256 _agendaID) {\n        LibDAO.Agenda storage agenda = agendas[agendaIDCounter];\n\n        _agendaID = agendaIDCounter++;\n        agenda.exists = true;\n\n        agenda.votingDeadline = block.timestamp + VOTING_DEADLINE_PERIOD;\n        agenda.open = true;\n\n        agenda.recipient = _recipient;\n        agenda.agendaHash = keccak256(\n            abi.encodePacked(_recipient, _transactionData)\n        );\n        agenda.passed = false;\n\n        agenda.yesVotesCount = 0;\n        agenda.noVotesCount = 0;\n    }\n\n    /// @dev Votes for agenda\n    function vote(uint256 _agendaID, bool _yes) external {\n        LibDAO.Agenda storage agenda = agendas[_agendaID];\n        require(agenda.exists == true, \"No such an agenda\");\n        require(\n            block.timestamp <= agenda.votingDeadline,\n            \"Voting deadline has passed\"\n        );\n        require(agenda.open == true, \"Agenda is not open\");\n\n        // Clear previous vote if any\n        if (agenda.yesVotes[msg.sender]) {\n            agenda.yesVotesCount -= 1;\n            agenda.yesVotes[msg.sender] = false;\n        } else if (agenda.noVotes[msg.sender]) {\n            agenda.noVotesCount -= 1;\n            agenda.noVotes[msg.sender] = false;\n        }\n\n        // Add vote\n        if (_yes) {\n            agenda.yesVotesCount += 1;\n            agenda.yesVotes[msg.sender] = true;\n        } else {\n            agenda.noVotesCount += 1;\n            agenda.noVotes[msg.sender] = true;\n        }\n    }\n\n    /// @dev Executes agenda\n    function executeAgenda(uint256 _agendaID, bytes memory _transactionData)\n        external\n        returns (bool _success)\n    {\n        LibDAO.Agenda storage agenda = agendas[_agendaID];\n        require(agenda.exists == true, \"No such an agenda\");\n        require(\n            agenda.votingDeadline < block.timestamp,\n            \"Voting deadline has not yet passed\"\n        );\n        require(agenda.open == true, \"Agenda is not open\");\n        require(\n            agenda.agendaHash ==\n                keccak256(abi.encodePacked(agenda.recipient, _transactionData)),\n            \"Given transactionData is not valid\"\n        );\n\n        if (agenda.yesVotesCount > agenda.noVotesCount) {\n            (bool success, ) = agenda.recipient.call(_transactionData);\n            require(success, \"Cannot execute function\");\n            // emit show(res);\n            agenda.passed = true;\n        }\n\n        agenda.open = false;\n        _success = true;\n    }\n\n    /// @dev Get agenda info\n    function getAgenda(uint256 agendaID)\n        external\n        view\n        returns (\n            address,\n            uint256,\n            bytes32,\n            bool,\n            bool,\n            uint256,\n            uint256\n        )\n    {\n        LibDAO.Agenda storage agenda = agendas[agendaID];\n        require(agenda.exists == true, \"No such an agenda\");\n\n        return (\n            agenda.recipient,\n            agenda.votingDeadline,\n            agenda.agendaHash,\n            agenda.passed,\n            agenda.open,\n            agenda.yesVotesCount,\n            agenda.noVotesCount\n        );\n    }\n}\n",
  "sourcePath": "/Users/zena/ico2.0/ico20-contracts/contracts/dao/DAO.sol",
  "compiler": {
    "name": "solc",
    "version": "0.7.6+commit.7338295f.Emscripten.clang"
  },
  "schemaVersion": "3.3.4",
  "updatedAt": "2021-05-14T01:45:59.619Z",
  "devdoc": {
    "kind": "dev",
    "methods": {
      "executeAgenda(uint256,bytes)": {
        "details": "Executes agenda"
      },
      "getAgenda(uint256)": {
        "details": "Get agenda info"
      },
      "newAgenda(address,bytes)": {
        "details": "Create new agenda"
      },
      "vote(uint256,bool)": {
        "details": "Votes for agenda"
      }
    },
    "version": 1
  },
  "userdoc": {
    "kind": "user",
    "methods": {},
    "version": 1
  }
}