{
  "contractName": "DAOProxy",
  "abi": [
    {
      "inputs": [
        {
          "internalType": "address",
          "name": "_sfldAddress",
          "type": "address"
        }
      ],
      "stateMutability": "nonpayable",
      "type": "constructor"
    },
    {
      "anonymous": false,
      "inputs": [
        {
          "indexed": true,
          "internalType": "bytes32",
          "name": "role",
          "type": "bytes32"
        },
        {
          "indexed": true,
          "internalType": "bytes32",
          "name": "previousAdminRole",
          "type": "bytes32"
        },
        {
          "indexed": true,
          "internalType": "bytes32",
          "name": "newAdminRole",
          "type": "bytes32"
        }
      ],
      "name": "RoleAdminChanged",
      "type": "event"
    },
    {
      "anonymous": false,
      "inputs": [
        {
          "indexed": true,
          "internalType": "bytes32",
          "name": "role",
          "type": "bytes32"
        },
        {
          "indexed": true,
          "internalType": "address",
          "name": "account",
          "type": "address"
        },
        {
          "indexed": true,
          "internalType": "address",
          "name": "sender",
          "type": "address"
        }
      ],
      "name": "RoleGranted",
      "type": "event"
    },
    {
      "anonymous": false,
      "inputs": [
        {
          "indexed": true,
          "internalType": "bytes32",
          "name": "role",
          "type": "bytes32"
        },
        {
          "indexed": true,
          "internalType": "address",
          "name": "account",
          "type": "address"
        },
        {
          "indexed": true,
          "internalType": "address",
          "name": "sender",
          "type": "address"
        }
      ],
      "name": "RoleRevoked",
      "type": "event"
    },
    {
      "anonymous": false,
      "inputs": [
        {
          "indexed": true,
          "internalType": "address",
          "name": "implementation",
          "type": "address"
        }
      ],
      "name": "Upgraded",
      "type": "event"
    },
    {
      "stateMutability": "payable",
      "type": "fallback"
    },
    {
      "inputs": [],
      "name": "ADMIN_ROLE",
      "outputs": [
        {
          "internalType": "bytes32",
          "name": "",
          "type": "bytes32"
        }
      ],
      "stateMutability": "view",
      "type": "function"
    },
    {
      "inputs": [],
      "name": "DEFAULT_ADMIN_ROLE",
      "outputs": [
        {
          "internalType": "bytes32",
          "name": "",
          "type": "bytes32"
        }
      ],
      "stateMutability": "view",
      "type": "function"
    },
    {
      "inputs": [],
      "name": "VOTING_DEADLINE_PERIOD",
      "outputs": [
        {
          "internalType": "uint256",
          "name": "",
          "type": "uint256"
        }
      ],
      "stateMutability": "view",
      "type": "function"
    },
    {
      "inputs": [],
      "name": "agendaIDCounter",
      "outputs": [
        {
          "internalType": "uint256",
          "name": "",
          "type": "uint256"
        }
      ],
      "stateMutability": "view",
      "type": "function"
    },
    {
      "inputs": [
        {
          "internalType": "uint256",
          "name": "",
          "type": "uint256"
        }
      ],
      "name": "agendas",
      "outputs": [
        {
          "internalType": "bool",
          "name": "exists",
          "type": "bool"
        },
        {
          "internalType": "uint256",
          "name": "votingDeadline",
          "type": "uint256"
        },
        {
          "internalType": "bool",
          "name": "open",
          "type": "bool"
        },
        {
          "internalType": "bytes32",
          "name": "agendaHash",
          "type": "bytes32"
        },
        {
          "internalType": "bool",
          "name": "passed",
          "type": "bool"
        },
        {
          "internalType": "address payable",
          "name": "recipient",
          "type": "address"
        },
        {
          "internalType": "uint256",
          "name": "yesVotesCount",
          "type": "uint256"
        },
        {
          "internalType": "uint256",
          "name": "noVotesCount",
          "type": "uint256"
        }
      ],
      "stateMutability": "view",
      "type": "function"
    },
    {
      "inputs": [
        {
          "internalType": "bytes32",
          "name": "role",
          "type": "bytes32"
        }
      ],
      "name": "getRoleAdmin",
      "outputs": [
        {
          "internalType": "bytes32",
          "name": "",
          "type": "bytes32"
        }
      ],
      "stateMutability": "view",
      "type": "function"
    },
    {
      "inputs": [
        {
          "internalType": "bytes32",
          "name": "role",
          "type": "bytes32"
        },
        {
          "internalType": "uint256",
          "name": "index",
          "type": "uint256"
        }
      ],
      "name": "getRoleMember",
      "outputs": [
        {
          "internalType": "address",
          "name": "",
          "type": "address"
        }
      ],
      "stateMutability": "view",
      "type": "function"
    },
    {
      "inputs": [
        {
          "internalType": "bytes32",
          "name": "role",
          "type": "bytes32"
        }
      ],
      "name": "getRoleMemberCount",
      "outputs": [
        {
          "internalType": "uint256",
          "name": "",
          "type": "uint256"
        }
      ],
      "stateMutability": "view",
      "type": "function"
    },
    {
      "inputs": [
        {
          "internalType": "bytes32",
          "name": "role",
          "type": "bytes32"
        },
        {
          "internalType": "address",
          "name": "account",
          "type": "address"
        }
      ],
      "name": "grantRole",
      "outputs": [],
      "stateMutability": "nonpayable",
      "type": "function"
    },
    {
      "inputs": [
        {
          "internalType": "bytes32",
          "name": "role",
          "type": "bytes32"
        },
        {
          "internalType": "address",
          "name": "account",
          "type": "address"
        }
      ],
      "name": "hasRole",
      "outputs": [
        {
          "internalType": "bool",
          "name": "",
          "type": "bool"
        }
      ],
      "stateMutability": "view",
      "type": "function"
    },
    {
      "inputs": [],
      "name": "pauseProxy",
      "outputs": [
        {
          "internalType": "bool",
          "name": "",
          "type": "bool"
        }
      ],
      "stateMutability": "view",
      "type": "function"
    },
    {
      "inputs": [
        {
          "internalType": "bytes32",
          "name": "role",
          "type": "bytes32"
        },
        {
          "internalType": "address",
          "name": "account",
          "type": "address"
        }
      ],
      "name": "renounceRole",
      "outputs": [],
      "stateMutability": "nonpayable",
      "type": "function"
    },
    {
      "inputs": [
        {
          "internalType": "bytes32",
          "name": "role",
          "type": "bytes32"
        },
        {
          "internalType": "address",
          "name": "account",
          "type": "address"
        }
      ],
      "name": "revokeRole",
      "outputs": [],
      "stateMutability": "nonpayable",
      "type": "function"
    },
    {
      "stateMutability": "payable",
      "type": "receive"
    },
    {
      "inputs": [
        {
          "internalType": "address",
          "name": "newOwner",
          "type": "address"
        }
      ],
      "name": "transferOwnership",
      "outputs": [],
      "stateMutability": "nonpayable",
      "type": "function"
    },
    {
      "inputs": [
        {
          "internalType": "bool",
          "name": "_pause",
          "type": "bool"
        }
      ],
      "name": "setProxyPause",
      "outputs": [],
      "stateMutability": "nonpayable",
      "type": "function"
    },
    {
      "inputs": [
        {
          "internalType": "address",
          "name": "impl",
          "type": "address"
        }
      ],
      "name": "upgradeTo",
      "outputs": [],
      "stateMutability": "nonpayable",
      "type": "function"
    },
    {
      "inputs": [],
      "name": "implementation",
      "outputs": [
        {
          "internalType": "address",
          "name": "",
          "type": "address"
        }
      ],
      "stateMutability": "view",
      "type": "function"
    }
  ],
  "bytecode": "0x6080604052621275006000553480156200001857600080fd5b506040516200101c3803806200101c833981810160405260208110156200003e57600080fd5b5051600380546001600160a01b0319166001600160a01b038316179055600180556200007a60008051602062000ffc83398151915280620000b7565b6200009560008051602062000ffc8339815191523362000109565b620000b060008051602062000ffc8339815191523062000109565b506200021f565b600082815260046020526040808220600201549051839285917fbd79b86ffe0ab8e8776151514217cd7cacd52c909f66475c3af44e129f0b00ff9190a460009182526004602052604090912060020155565b62000115828262000119565b5050565b6000828152600460209081526040909120620001409183906200098962000194821b17901c565b15620001155762000150620001b4565b6001600160a01b0316816001600160a01b0316837f2f8788117e7eff1d82e926ec794901d17c78024a50270940304540a733656f0d60405160405180910390a45050565b6000620001ab836001600160a01b038416620001b8565b90505b92915050565b3390565b6000620001c6838362000207565b620001fe57508154600181810184556000848152602080822090930184905584548482528286019093526040902091909155620001ae565b506000620001ae565b60009081526001919091016020526040902054151590565b610dcd806200022f6000396000f3fe6080604052600436106101025760003560e01c806375b238fc11610095578063a217fddf11610064578063a217fddf14610389578063aeebf0be1461039e578063ca15c873146103b3578063d547741f146103dd578063f2fde38b1461041657610111565b806375b238fc146102df5780637cb00d25146102f45780639010d07c1461032057806391d148541461035057610111565b80633c4a819c116100d15780633c4a819c146101fa578063431f6d1c146102705780635c60da1b1461028557806363a8fd89146102b657610111565b8063248a9ca3146101195780632f2ff15d1461015557806336568abe1461018e5780633659cfe6146101c757610111565b366101115761010f610449565b005b61010f610449565b34801561012557600080fd5b506101436004803603602081101561013c57600080fd5b50356104d6565b60408051918252519081900360200190f35b34801561016157600080fd5b5061010f6004803603604081101561017857600080fd5b50803590602001356001600160a01b03166104eb565b34801561019a57600080fd5b5061010f600480360360408110156101b157600080fd5b50803590602001356001600160a01b0316610557565b3480156101d357600080fd5b5061010f600480360360208110156101ea57600080fd5b50356001600160a01b03166105b8565b34801561020657600080fd5b506102246004803603602081101561021d57600080fd5b50356106fd565b604080519815158952602089019790975294151587870152606087019390935290151560808601526001600160a01b031660a085015260c084015260e083015251908190036101000190f35b34801561027c57600080fd5b50610143610753565b34801561029157600080fd5b5061029a610759565b604080516001600160a01b039092168252519081900360200190f35b3480156102c257600080fd5b506102cb610768565b604080519115158252519081900360200190f35b3480156102eb57600080fd5b50610143610778565b34801561030057600080fd5b5061010f6004803603602081101561031757600080fd5b5035151561078a565b34801561032c57600080fd5b5061029a6004803603604081101561034357600080fd5b50803590602001356107fb565b34801561035c57600080fd5b506102cb6004803603604081101561037357600080fd5b50803590602001356001600160a01b031661081c565b34801561039557600080fd5b50610143610834565b3480156103aa57600080fd5b50610143610839565b3480156103bf57600080fd5b50610143600480360360208110156103d657600080fd5b503561083f565b3480156103e957600080fd5b5061010f6004803603604081101561040057600080fd5b50803590602001356001600160a01b0316610856565b34801561042257600080fd5b5061010f6004803603602081101561043957600080fd5b50356001600160a01b03166108af565b6000610453610759565b90506001600160a01b038116158015906104775750600554600160a01b900460ff16155b6104b25760405162461bcd60e51b815260040180806020018281038252602b815260200180610d0b602b913960400191505060405180910390fd5b3660008037600080366000845af43d6000803e8080156104d1573d6000f35b3d6000fd5b60009081526004602052604090206002015490565b60008281526004602052604090206002015461050e9061050961099e565b61081c565b6105495760405162461bcd60e51b815260040180806020018281038252602f815260200180610c68602f913960400191505060405180910390fd5b61055382826109a2565b5050565b61055f61099e565b6001600160a01b0316816001600160a01b0316146105ae5760405162461bcd60e51b815260040180806020018281038252602f815260200180610d69602f913960400191505060405180910390fd5b6105538282610a0b565b6105d0600080516020610ceb8339815191523361081c565b61060b5760405162461bcd60e51b8152600401808060200182810382526024815260200180610cc76024913960400191505060405180910390fd5b6001600160a01b038116610666576040805162461bcd60e51b815260206004820152601a60248201527f5374616b653150726f78793a20696e707574206973207a65726f000000000000604482015290519081900360640190fd5b6005546001600160a01b03828116911614156106b35760405162461bcd60e51b8152600401808060200182810382526033815260200180610d366033913960400191505060405180910390fd5b600580546001600160a01b0319166001600160a01b0383169081179091556040517fbc7cd75a20ee27fd9adebab32041f755214dbc6bffa90cc0225b39da2e5c2d3b90600090a250565b6002602081905260009182526040909120805460018201549282015460038301546004840154600585015460069095015460ff9485169695938516949293928216926101009092046001600160a01b0316919088565b60005481565b6005546001600160a01b031690565b600554600160a01b900460ff1681565b600080516020610ceb83398151915281565b6107a2600080516020610ceb8339815191523361081c565b6107dd5760405162461bcd60e51b8152600401808060200182810382526024815260200180610cc76024913960400191505060405180910390fd5b60058054911515600160a01b0260ff60a01b19909216919091179055565b60008281526004602052604081206108139083610a74565b90505b92915050565b60008281526004602052604081206108139083610a80565b600081565b60015481565b600081815260046020526040812061081690610a95565b6000828152600460205260409020600201546108749061050961099e565b6105ae5760405162461bcd60e51b8152600401808060200182810382526030815260200180610c976030913960400191505060405180910390fd5b6108c7600080516020610ceb8339815191523361081c565b6109025760405162461bcd60e51b8152600401808060200182810382526024815260200180610cc76024913960400191505060405180910390fd5b336001600160a01b0382161415610956576040805162461bcd60e51b81526020600482015260136024820152722220a7a83937bc3c9d39b0b6b29037bbb732b960691b604482015290519081900360640190fd5b61096e600080516020610ceb833981519152826104eb565b610986600080516020610ceb83398151915233610856565b50565b6000610813836001600160a01b038416610aa0565b3390565b60008281526004602052604090206109ba9082610989565b15610553576109c761099e565b6001600160a01b0316816001600160a01b0316837f2f8788117e7eff1d82e926ec794901d17c78024a50270940304540a733656f0d60405160405180910390a45050565b6000828152600460205260409020610a239082610aea565b1561055357610a3061099e565b6001600160a01b0316816001600160a01b0316837ff6391f5c32d9c69d2a47ea670b442974b53935d1edc7fd64eb21e047a839171b60405160405180910390a45050565b60006108138383610aff565b6000610813836001600160a01b038416610b63565b600061081682610b7b565b6000610aac8383610b63565b610ae257508154600181810184556000848152602080822090930184905584548482528286019093526040902091909155610816565b506000610816565b6000610813836001600160a01b038416610b7f565b81546000908210610b415760405162461bcd60e51b8152600401808060200182810382526022815260200180610c466022913960400191505060405180910390fd5b826000018281548110610b5057fe5b9060005260206000200154905092915050565b60009081526001919091016020526040902054151590565b5490565b60008181526001830160205260408120548015610c3b5783546000198083019190810190600090879083908110610bb257fe5b9060005260206000200154905080876000018481548110610bcf57fe5b600091825260208083209091019290925582815260018981019092526040902090840190558654879080610bff57fe5b60019003818190600052602060002001600090559055866001016000878152602001908152602001600020600090556001945050505050610816565b600091505061081656fe456e756d657261626c655365743a20696e646578206f7574206f6620626f756e6473416363657373436f6e74726f6c3a2073656e646572206d75737420626520616e2061646d696e20746f206772616e74416363657373436f6e74726f6c3a2073656e646572206d75737420626520616e2061646d696e20746f207265766f6b6544414f50726f78793a206d73672e73656e646572206973206e6f7420616e2061646d696edf8b4c520ffe197c5343c6f5aec59570151ef9a492f2c624fd45ddde6135ec425374616b653150726f78793a20696d706c206973207a65726f204f522070726f78792069732066616c73655374616b653150726f78793a2054686520696e70757420616464726573732069732073616d6520617320746865207374617465416363657373436f6e74726f6c3a2063616e206f6e6c792072656e6f756e636520726f6c657320666f722073656c66a26469706673582212202759185c715a025dd8c16ffe5f180e0d59fd6295a67ad167dcef710090623f5664736f6c63430007060033df8b4c520ffe197c5343c6f5aec59570151ef9a492f2c624fd45ddde6135ec42",
  "immutableReferences": {},
  "source": "// SPDX-License-Identifier: MIT\npragma solidity ^0.7.6;\n\nimport \"@openzeppelin/contracts/access/AccessControl.sol\";\n\nimport \"./DAOProxyStorage.sol\";\n\n/// @title Proxy for DAO contracts\n/// @notice\ncontract DAOProxy is DAOProxyStorage, AccessControl {\n    bytes32 public constant ADMIN_ROLE = keccak256(\"ADMIN\");\n    address internal _implementation;\n    bool public pauseProxy;\n\n    event Upgraded(address indexed implementation);\n\n    modifier onlyOwner() {\n        require(\n            hasRole(ADMIN_ROLE, msg.sender),\n            \"DAOProxy: msg.sender is not an admin\"\n        );\n        _;\n    }\n\n    constructor(address _sfldAddress) {\n        sfld = ISFLD(_sfldAddress);\n        agendaIDCounter = 1;\n\n        _setRoleAdmin(ADMIN_ROLE, ADMIN_ROLE);\n        _setupRole(ADMIN_ROLE, msg.sender);\n        _setupRole(ADMIN_ROLE, address(this));\n    }\n\n    function transferOwnership(address newOwner) external onlyOwner {\n        require(msg.sender != newOwner, \"DAOProxy:same owner\");\n        grantRole(ADMIN_ROLE, newOwner);\n        revokeRole(ADMIN_ROLE, msg.sender);\n    }\n\n    /// @notice Set pause state\n    /// @param _pause true:pause or false:resume\n    function setProxyPause(bool _pause) external onlyOwner {\n        pauseProxy = _pause;\n    }\n\n    /// @notice Set implementation contract\n    /// @param impl New implementation contract address\n    function upgradeTo(address impl) external onlyOwner {\n        require(impl != address(0), \"Stake1Proxy: input is zero\");\n        require(\n            _implementation != impl,\n            \"Stake1Proxy: The input address is same as the state\"\n        );\n        _implementation = impl;\n        emit Upgraded(impl);\n    }\n\n    /// @dev returns the implementation\n    function implementation() public view returns (address) {\n        return _implementation;\n    }\n\n    receive() external payable {\n        _fallback();\n    }\n\n    fallback() external payable {\n        _fallback();\n    }\n\n    function _fallback() internal {\n        address _impl = implementation();\n        require(\n            _impl != address(0) && !pauseProxy,\n            \"Stake1Proxy: impl is zero OR proxy is false\"\n        );\n\n        assembly {\n            // Copy msg.data. We take full control of memory in this inline assembly\n            // block because it will not return to Solidity code. We overwrite the\n            // Solidity scratch pad at memory position 0.\n            calldatacopy(0, 0, calldatasize())\n\n            // Call the implementation.\n            // out and outsize are 0 because we don't know the size yet.\n            let result := delegatecall(gas(), _impl, 0, calldatasize(), 0, 0)\n\n            // Copy the returned data.\n            returndatacopy(0, 0, returndatasize())\n\n            switch result\n                // delegatecall returns 0 on error.\n                case 0 {\n                    revert(0, returndatasize())\n                }\n                default {\n                    return(0, returndatasize())\n                }\n        }\n    }\n}\n",
  "sourcePath": "/Users/zena/ico2.0/ico20-contracts/contracts/dao/DAOProxy.sol",
  "compiler": {
    "name": "solc",
    "version": "0.7.6+commit.7338295f.Emscripten.clang"
  },
  "schemaVersion": "3.3.4",
  "updatedAt": "2021-06-01T01:21:23.500Z",
  "devdoc": {
    "kind": "dev",
    "methods": {
      "getRoleAdmin(bytes32)": {
        "details": "Returns the admin role that controls `role`. See {grantRole} and {revokeRole}. To change a role's admin, use {_setRoleAdmin}."
      },
      "getRoleMember(bytes32,uint256)": {
        "details": "Returns one of the accounts that have `role`. `index` must be a value between 0 and {getRoleMemberCount}, non-inclusive. Role bearers are not sorted in any particular way, and their ordering may change at any point. WARNING: When using {getRoleMember} and {getRoleMemberCount}, make sure you perform all queries on the same block. See the following https://forum.openzeppelin.com/t/iterating-over-elements-on-enumerableset-in-openzeppelin-contracts/2296[forum post] for more information."
      },
      "getRoleMemberCount(bytes32)": {
        "details": "Returns the number of accounts that have `role`. Can be used together with {getRoleMember} to enumerate all bearers of a role."
      },
      "grantRole(bytes32,address)": {
        "details": "Grants `role` to `account`. If `account` had not been already granted `role`, emits a {RoleGranted} event. Requirements: - the caller must have ``role``'s admin role."
      },
      "hasRole(bytes32,address)": {
        "details": "Returns `true` if `account` has been granted `role`."
      },
      "implementation()": {
        "details": "returns the implementation"
      },
      "renounceRole(bytes32,address)": {
        "details": "Revokes `role` from the calling account. Roles are often managed via {grantRole} and {revokeRole}: this function's purpose is to provide a mechanism for accounts to lose their privileges if they are compromised (such as when a trusted device is misplaced). If the calling account had been granted `role`, emits a {RoleRevoked} event. Requirements: - the caller must be `account`."
      },
      "revokeRole(bytes32,address)": {
        "details": "Revokes `role` from `account`. If `account` had been granted `role`, emits a {RoleRevoked} event. Requirements: - the caller must have ``role``'s admin role."
      },
      "setProxyPause(bool)": {
        "params": {
          "_pause": "true:pause or false:resume"
        }
      },
      "upgradeTo(address)": {
        "params": {
          "impl": "New implementation contract address"
        }
      }
    },
    "title": "Proxy for DAO contracts",
    "version": 1
  },
  "userdoc": {
    "kind": "user",
    "methods": {
      "setProxyPause(bool)": {
        "notice": "Set pause state"
      },
      "upgradeTo(address)": {
        "notice": "Set implementation contract"
      }
    },
    "version": 1
  }
}