{
  "contractName": "DAORecipientExample",
  "abi": [
    {
      "inputs": [
        {
          "internalType": "address",
          "name": "_DAOAddress",
          "type": "address"
        }
      ],
      "stateMutability": "nonpayable",
      "type": "constructor"
    },
    {
      "inputs": [],
      "name": "DAOAddress",
      "outputs": [
        {
          "internalType": "address",
          "name": "",
          "type": "address"
        }
      ],
      "stateMutability": "view",
      "type": "function"
    },
    {
      "inputs": [],
      "name": "generateNextFib",
      "outputs": [],
      "stateMutability": "nonpayable",
      "type": "function"
    },
    {
      "inputs": [],
      "name": "getFib",
      "outputs": [
        {
          "internalType": "uint256",
          "name": "",
          "type": "uint256"
        }
      ],
      "stateMutability": "view",
      "type": "function"
    }
  ],
  "bytecode": "0x60806040526003600155600560025534801561001a57600080fd5b506040516101c63803806101c68339818101604052602081101561003d57600080fd5b5051600080546001600160a01b039092166001600160a01b03199092169190911790556101578061006f6000396000f3fe608060405234801561001057600080fd5b50600436106100415760003560e01c80635aa0a94d146100465780637548c8bf14610050578063d392eab11461006a575b600080fd5b61004e61008e565b005b6100586100ea565b60408051918252519081900360200190f35b6100726100f0565b604080516001600160a01b039092168252519081900360200190f35b6000546001600160a01b031633146100d75760405162461bcd60e51b81526004018080602001828103825260228152602001806101006022913960400191505060405180910390fd5b6001805460028054820190819055039055565b60025490565b6000546001600160a01b03168156fe4f6e6c792044414f2063616e206578656375746520746869732066756e6374696f6ea2646970667358221220fd1330f974dcd3cc1f66c699a75923cd94f4b104bc4ef81e20b00c8297fa386f64736f6c63430007060033",
  "immutableReferences": {},
  "source": "// SPDX-License-Identifier: UNLICENSED\npragma solidity ^0.7.6;\n\nimport \"hardhat/console.sol\";\n\ncontract DAORecipientExample {\n    address public DAOAddress;\n    uint256 fib0 = 3;\n    uint256 fib1 = 5;\n\n    constructor(address _DAOAddress) {\n        DAOAddress = _DAOAddress;\n    }\n\n    modifier onlyDAO {\n        require(msg.sender == DAOAddress, \"Only DAO can execute this function\");\n        _;\n    }\n\n    function generateNextFib() external onlyDAO {\n        fib1 += fib0;\n        fib0 = fib1 - fib0;\n    }\n\n    function getFib() external view returns (uint256) {\n        return fib1;\n    }\n}\n",
  "sourcePath": "/Users/zena/ico2.0/ico20-contracts/contracts/dao/DAORecipientExample.sol",
  "compiler": {
    "name": "solc",
    "version": "0.7.6+commit.7338295f.Emscripten.clang"
  },
  "schemaVersion": "3.3.4",
  "updatedAt": "2021-05-13T02:55:22.599Z",
  "devdoc": {
    "kind": "dev",
    "methods": {},
    "version": 1
  },
  "userdoc": {
    "kind": "user",
    "methods": {},
    "version": 1
  }
}