{
  "contractName": "DAOVault",
  "abi": [
    {
      "inputs": [
        {
          "internalType": "address",
          "name": "wtonAddress",
          "type": "address"
        },
        {
          "internalType": "uint256",
          "name": "claimEnableTime_",
          "type": "uint256"
        }
      ],
      "payable": false,
      "stateMutability": "nonpayable",
      "type": "constructor"
    },
    {
      "anonymous": false,
      "inputs": [
        {
          "indexed": true,
          "internalType": "address",
          "name": "previousOwner",
          "type": "address"
        },
        {
          "indexed": true,
          "internalType": "address",
          "name": "newOwner",
          "type": "address"
        }
      ],
      "name": "OwnershipTransferred",
      "type": "event"
    },
    {
      "constant": true,
      "inputs": [],
      "name": "claimEnableTime",
      "outputs": [
        {
          "internalType": "uint256",
          "name": "",
          "type": "uint256"
        }
      ],
      "payable": false,
      "stateMutability": "view",
      "type": "function"
    },
    {
      "constant": true,
      "inputs": [],
      "name": "isOwner",
      "outputs": [
        {
          "internalType": "bool",
          "name": "",
          "type": "bool"
        }
      ],
      "payable": false,
      "stateMutability": "view",
      "type": "function"
    },
    {
      "constant": true,
      "inputs": [],
      "name": "owner",
      "outputs": [
        {
          "internalType": "address",
          "name": "",
          "type": "address"
        }
      ],
      "payable": false,
      "stateMutability": "view",
      "type": "function"
    },
    {
      "constant": false,
      "inputs": [],
      "name": "renounceOwnership",
      "outputs": [],
      "payable": false,
      "stateMutability": "nonpayable",
      "type": "function"
    },
    {
      "constant": false,
      "inputs": [
        {
          "internalType": "address",
          "name": "newOwner",
          "type": "address"
        }
      ],
      "name": "transferOwnership",
      "outputs": [],
      "payable": false,
      "stateMutability": "nonpayable",
      "type": "function"
    },
    {
      "constant": true,
      "inputs": [],
      "name": "wton",
      "outputs": [
        {
          "internalType": "contract WTON",
          "name": "",
          "type": "address"
        }
      ],
      "payable": false,
      "stateMutability": "view",
      "type": "function"
    },
    {
      "constant": false,
      "inputs": [
        {
          "internalType": "address",
          "name": "dao",
          "type": "address"
        }
      ],
      "name": "claim",
      "outputs": [],
      "payable": false,
      "stateMutability": "nonpayable",
      "type": "function"
    }
  ],
  "bytecode": "0x608060405234801561001057600080fd5b506040516106003803806106008339818101604052604081101561003357600080fd5b508051602090910151600061004f6001600160e01b036100c216565b600080546001600160a01b0319166001600160a01b0383169081178255604051929350917f8be0079c531659141344cd1fd0a4f28419497f9722a3daafe3b4186f6b6457e0908290a350600180546001600160a01b0319166001600160a01b0393909316929092179091556002556100c6565b3390565b61052b806100d56000396000f3fe608060405234801561001057600080fd5b506004361061007d5760003560e01c80638d62d9491161005b5780638d62d949146100cc5780638da5cb5b146100f05780638f32d59b146100f8578063f2fde38b146101145761007d565b806309c6bd11146100825780631e83409a1461009c578063715018a6146100c4575b600080fd5b61008a61013a565b60408051918252519081900360200190f35b6100c2600480360360208110156100b257600080fd5b50356001600160a01b0316610140565b005b6100c26102e2565b6100d4610385565b604080516001600160a01b039092168252519081900360200190f35b6100d4610394565b6101006103a3565b604080519115158252519081900360200190f35b6100c26004803603602081101561012a57600080fd5b50356001600160a01b03166103c7565b60025481565b6101486103a3565b610199576040805162461bcd60e51b815260206004820181905260248201527f4f776e61626c653a2063616c6c6572206973206e6f7420746865206f776e6572604482015290519081900360640190fd5b6002544210156101e4576040805162461bcd60e51b81526020600482015260116024820152706e6f7420706f737369626c652074696d6560781b604482015290519081900360640190fd5b600154604080516370a0823160e01b815230600482015290516001600160a01b039092169163e3b99e8591849184916370a08231916024808301926020929190829003018186803b15801561023857600080fd5b505afa15801561024c573d6000803e3d6000fd5b505050506040513d602081101561026257600080fd5b5051604080516001600160e01b031960e086901b1681526001600160a01b03909316600484015260248301919091525160448083019260209291908290030181600087803b1580156102b357600080fd5b505af11580156102c7573d6000803e3d6000fd5b505050506040513d60208110156102dd57600080fd5b505050565b6102ea6103a3565b61033b576040805162461bcd60e51b815260206004820181905260248201527f4f776e61626c653a2063616c6c6572206973206e6f7420746865206f776e6572604482015290519081900360640190fd5b600080546040516001600160a01b03909116907f8be0079c531659141344cd1fd0a4f28419497f9722a3daafe3b4186f6b6457e0908390a3600080546001600160a01b0319169055565b6001546001600160a01b031681565b6000546001600160a01b031690565b600080546001600160a01b03166103b861042c565b6001600160a01b031614905090565b6103cf6103a3565b610420576040805162461bcd60e51b815260206004820181905260248201527f4f776e61626c653a2063616c6c6572206973206e6f7420746865206f776e6572604482015290519081900360640190fd5b61042981610430565b50565b3390565b6001600160a01b0381166104755760405162461bcd60e51b81526004018080602001828103825260268152602001806104d16026913960400191505060405180910390fd5b600080546040516001600160a01b03808516939216917f8be0079c531659141344cd1fd0a4f28419497f9722a3daafe3b4186f6b6457e091a3600080546001600160a01b0319166001600160a01b039290921691909117905556fe4f776e61626c653a206e6577206f776e657220697320746865207a65726f2061646472657373a265627a7a72315820aa8c62d25a9258d9d0dc88d32e9d9b94e02aaffed0b94ee2f1613f6276faa75964736f6c634300050c0032",
  "source": "pragma solidity ^0.5.0;\n\nimport { Ownable } from \"@openzeppelin/contracts/ownership/Ownable.sol\";\nimport { SafeMath } from \"@openzeppelin/contracts/math/SafeMath.sol\";\nimport { WTON } from \"../tokens/WTON.sol\";\n\ncontract DAOVault is Ownable {\n    using SafeMath for uint256;\n\n    WTON public wton;\n    uint256 public claimEnableTime; // 2021-01-01\n\n    modifier onlyClaimEnable() {\n      require(block.timestamp >= claimEnableTime, \"not possible time\");\n      _;\n    }\n\n    constructor(address wtonAddress, uint256 claimEnableTime_) public {\n        wton = WTON(wtonAddress);\n        claimEnableTime = claimEnableTime_;\n    }\n\n    function claim(address dao) external onlyOwner onlyClaimEnable {\n      wton.swapToTONAndTransfer(dao, wton.balanceOf(address(this)));\n    }\n}\n",
  "sourcePath": "/Users/kadyrbeknarmamatov/code/plasma-evm-contracts/contracts/stake/dao/DAOVault.sol",
  "compiler": {
    "name": "solc",
    "version": "0.5.12+commit.7709ece9.Emscripten.clang"
  },
  "schemaVersion": "3.4.0",
  "updatedAt": "2021-05-14T20:40:14.910Z",
  "devdoc": {
    "methods": {
      "isOwner()": {
        "details": "Returns true if the caller is the current owner."
      },
      "owner()": {
        "details": "Returns the address of the current owner."
      },
      "renounceOwnership()": {
        "details": "Leaves the contract without owner. It will not be possible to call `onlyOwner` functions anymore. Can only be called by the current owner.     * NOTE: Renouncing ownership will leave the contract without an owner, thereby removing any functionality that is only available to the owner."
      },
      "transferOwnership(address)": {
        "details": "Transfers ownership of the contract to a new account (`newOwner`). Can only be called by the current owner."
      }
    }
  },
  "userdoc": {
    "methods": {}
  }
}