{
  "contractName": "DeveloperVault",
  "abi": [
    {
      "inputs": [
        {
          "internalType": "address",
          "name": "admin",
          "type": "address"
        }
      ],
      "stateMutability": "nonpayable",
      "type": "constructor"
    },
    {
      "anonymous": false,
      "inputs": [
        {
          "indexed": true,
          "internalType": "bytes32",
          "name": "role",
          "type": "bytes32"
        },
        {
          "indexed": true,
          "internalType": "bytes32",
          "name": "previousAdminRole",
          "type": "bytes32"
        },
        {
          "indexed": true,
          "internalType": "bytes32",
          "name": "newAdminRole",
          "type": "bytes32"
        }
      ],
      "name": "RoleAdminChanged",
      "type": "event"
    },
    {
      "anonymous": false,
      "inputs": [
        {
          "indexed": true,
          "internalType": "bytes32",
          "name": "role",
          "type": "bytes32"
        },
        {
          "indexed": true,
          "internalType": "address",
          "name": "account",
          "type": "address"
        },
        {
          "indexed": true,
          "internalType": "address",
          "name": "sender",
          "type": "address"
        }
      ],
      "name": "RoleGranted",
      "type": "event"
    },
    {
      "anonymous": false,
      "inputs": [
        {
          "indexed": true,
          "internalType": "bytes32",
          "name": "role",
          "type": "bytes32"
        },
        {
          "indexed": true,
          "internalType": "address",
          "name": "account",
          "type": "address"
        },
        {
          "indexed": true,
          "internalType": "address",
          "name": "sender",
          "type": "address"
        }
      ],
      "name": "RoleRevoked",
      "type": "event"
    },
    {
      "inputs": [],
      "name": "DEFAULT_ADMIN_ROLE",
      "outputs": [
        {
          "internalType": "bytes32",
          "name": "",
          "type": "bytes32"
        }
      ],
      "stateMutability": "view",
      "type": "function"
    },
    {
      "inputs": [],
      "name": "cap",
      "outputs": [
        {
          "internalType": "uint256",
          "name": "",
          "type": "uint256"
        }
      ],
      "stateMutability": "view",
      "type": "function"
    },
    {
      "inputs": [],
      "name": "claimsNumberMax",
      "outputs": [
        {
          "internalType": "uint256",
          "name": "",
          "type": "uint256"
        }
      ],
      "stateMutability": "view",
      "type": "function"
    },
    {
      "inputs": [
        {
          "internalType": "uint256",
          "name": "",
          "type": "uint256"
        }
      ],
      "name": "developers",
      "outputs": [
        {
          "internalType": "address",
          "name": "",
          "type": "address"
        }
      ],
      "stateMutability": "view",
      "type": "function"
    },
    {
      "inputs": [
        {
          "internalType": "address",
          "name": "",
          "type": "address"
        }
      ],
      "name": "developersInfo",
      "outputs": [
        {
          "internalType": "bool",
          "name": "registered",
          "type": "bool"
        },
        {
          "internalType": "uint256",
          "name": "claimAmount",
          "type": "uint256"
        },
        {
          "internalType": "uint256",
          "name": "claimsNumber",
          "type": "uint256"
        }
      ],
      "stateMutability": "view",
      "type": "function"
    },
    {
      "inputs": [],
      "name": "fld",
      "outputs": [
        {
          "internalType": "address",
          "name": "",
          "type": "address"
        }
      ],
      "stateMutability": "view",
      "type": "function"
    },
    {
      "inputs": [
        {
          "internalType": "bytes32",
          "name": "role",
          "type": "bytes32"
        }
      ],
      "name": "getRoleAdmin",
      "outputs": [
        {
          "internalType": "bytes32",
          "name": "",
          "type": "bytes32"
        }
      ],
      "stateMutability": "view",
      "type": "function"
    },
    {
      "inputs": [
        {
          "internalType": "bytes32",
          "name": "role",
          "type": "bytes32"
        },
        {
          "internalType": "uint256",
          "name": "index",
          "type": "uint256"
        }
      ],
      "name": "getRoleMember",
      "outputs": [
        {
          "internalType": "address",
          "name": "",
          "type": "address"
        }
      ],
      "stateMutability": "view",
      "type": "function"
    },
    {
      "inputs": [
        {
          "internalType": "bytes32",
          "name": "role",
          "type": "bytes32"
        }
      ],
      "name": "getRoleMemberCount",
      "outputs": [
        {
          "internalType": "uint256",
          "name": "",
          "type": "uint256"
        }
      ],
      "stateMutability": "view",
      "type": "function"
    },
    {
      "inputs": [
        {
          "internalType": "bytes32",
          "name": "role",
          "type": "bytes32"
        },
        {
          "internalType": "address",
          "name": "account",
          "type": "address"
        }
      ],
      "name": "grantRole",
      "outputs": [],
      "stateMutability": "nonpayable",
      "type": "function"
    },
    {
      "inputs": [
        {
          "internalType": "bytes32",
          "name": "role",
          "type": "bytes32"
        },
        {
          "internalType": "address",
          "name": "account",
          "type": "address"
        }
      ],
      "name": "hasRole",
      "outputs": [
        {
          "internalType": "bool",
          "name": "",
          "type": "bool"
        }
      ],
      "stateMutability": "view",
      "type": "function"
    },
    {
      "inputs": [
        {
          "internalType": "bytes32",
          "name": "role",
          "type": "bytes32"
        },
        {
          "internalType": "address",
          "name": "account",
          "type": "address"
        }
      ],
      "name": "renounceRole",
      "outputs": [],
      "stateMutability": "nonpayable",
      "type": "function"
    },
    {
      "inputs": [
        {
          "internalType": "bytes32",
          "name": "role",
          "type": "bytes32"
        },
        {
          "internalType": "address",
          "name": "account",
          "type": "address"
        }
      ],
      "name": "revokeRole",
      "outputs": [],
      "stateMutability": "nonpayable",
      "type": "function"
    },
    {
      "inputs": [],
      "name": "rewardPeriod",
      "outputs": [
        {
          "internalType": "uint256",
          "name": "",
          "type": "uint256"
        }
      ],
      "stateMutability": "view",
      "type": "function"
    },
    {
      "inputs": [],
      "name": "startRewardBlock",
      "outputs": [
        {
          "internalType": "uint256",
          "name": "",
          "type": "uint256"
        }
      ],
      "stateMutability": "view",
      "type": "function"
    },
    {
      "inputs": [
        {
          "internalType": "address",
          "name": "_fld",
          "type": "address"
        },
        {
          "internalType": "uint256",
          "name": "_cap",
          "type": "uint256"
        },
        {
          "internalType": "uint256",
          "name": "_rewardPeriod",
          "type": "uint256"
        },
        {
          "internalType": "uint256",
          "name": "_startRewardBlock",
          "type": "uint256"
        },
        {
          "internalType": "uint256",
          "name": "_claimsNumberMax",
          "type": "uint256"
        },
        {
          "internalType": "address[]",
          "name": "_developers",
          "type": "address[]"
        },
        {
          "internalType": "uint256[]",
          "name": "_claimAmounts",
          "type": "uint256[]"
        }
      ],
      "name": "initialize",
      "outputs": [],
      "stateMutability": "nonpayable",
      "type": "function"
    },
    {
      "inputs": [],
      "name": "claimReward",
      "outputs": [],
      "stateMutability": "nonpayable",
      "type": "function"
    },
    {
      "inputs": [],
      "name": "currentRewardBlock",
      "outputs": [
        {
          "internalType": "uint256",
          "name": "",
          "type": "uint256"
        }
      ],
      "stateMutability": "view",
      "type": "function"
    }
  ],
  "bytecode": "0x60806040523480156200001157600080fd5b50604051620011b1380380620011b1833981810160405260208110156200003757600080fd5b5051620000466000826200004d565b5062000161565b6200005982826200005d565b5050565b6000828152602081815260409091206200008291839062000af8620000d6821b17901c565b15620000595762000092620000f6565b6001600160a01b0316816001600160a01b0316837f2f8788117e7eff1d82e926ec794901d17c78024a50270940304540a733656f0d60405160405180910390a45050565b6000620000ed836001600160a01b038416620000fa565b90505b92915050565b3390565b600062000108838362000149565b6200014057508154600181810184556000848152602080822090930184905584548482528286019093526040902091909155620000f0565b506000620000f0565b60009081526001919091016020526040902054151590565b61104080620001716000396000f3fe608060405234801561001057600080fd5b50600436106101165760003560e01c8063a0a94cca116100a2578063ca15c87311610071578063ca15c873146103e8578063d547741f14610405578063d7ed714e14610431578063e88dc5b714610439578063eff25cd61461044157610116565b8063a0a94cca1461038a578063a217fddf146103d0578063b88a802f146103d8578063c90e96d6146103e057610116565b8063355274ea116100e9578063355274ea146102eb57806336568abe146102f35780634ed8e5dd1461031f5780639010d07c1461032757806391d148541461034a57610116565b8063248a9ca31461011b578063279708e81461014a5780632f2ff15d1461029b57806333bd2a49146102c7575b600080fd5b6101386004803603602081101561013157600080fd5b503561045e565b60408051918252519081900360200190f35b610299600480360360e081101561016057600080fd5b6001600160a01b03823516916020810135916040820135916060810135916080820135919081019060c0810160a08201356401000000008111156101a357600080fd5b8201836020820111156101b557600080fd5b803590602001918460208302840111640100000000831117156101d757600080fd5b919080806020026020016040519081016040528093929190818152602001838360200280828437600092019190915250929594936020810193503591505064010000000081111561022757600080fd5b82018360208201111561023957600080fd5b8035906020019184602083028401116401000000008311171561025b57600080fd5b919080806020026020016040519081016040528093929190818152602001838360200280828437600092019190915250929550610473945050505050565b005b610299600480360360408110156102b157600080fd5b50803590602001356001600160a01b03166106a2565b6102cf61070e565b604080516001600160a01b039092168252519081900360200190f35b61013861071d565b6102996004803603604081101561030957600080fd5b50803590602001356001600160a01b0316610723565b610138610784565b6102cf6004803603604081101561033d57600080fd5b5080359060200135610814565b6103766004803603604081101561036057600080fd5b50803590602001356001600160a01b0316610835565b604080519115158252519081900360200190f35b6103b0600480360360208110156103a057600080fd5b50356001600160a01b031661084d565b604080519315158452602084019290925282820152519081900360600190f35b610138610872565b610299610877565b610138610a4c565b610138600480360360208110156103fe57600080fd5b5035610a52565b6102996004803603604081101561041b57600080fd5b50803590602001356001600160a01b0316610a69565b610138610ac2565b610138610ac8565b6102cf6004803603602081101561045757600080fd5b5035610ace565b60009081526020819052604090206002015490565b61047e600033610835565b6104b95760405162461bcd60e51b8152600401808060200182810382526026815260200180610ea36026913960400191505060405180910390fd5b6001600160a01b038716610514576040805162461bcd60e51b815260206004820152601b60248201527f446576656c6f7065725661756c743a20666c64206973207a65726f0000000000604482015290519081900360640190fd5b81518151146105545760405162461bcd60e51b8152600401808060200182810382526023815260200180610e806023913960400191505060405180910390fd5b600180546001600160a01b0319166001600160a01b03891617905560028690556003859055600484905560058390558151610596906007906020850190610db4565b506000805b600754811015610656578281815181106105b157fe5b6020026020010151600554028201915060405180606001604052806001151581526020018483815181106105e157fe5b602002602001015181526020016000815250600660006007848154811061060457fe5b6000918252602080832091909101546001600160a01b0316835282810193909352604091820190208351815460ff1916901515178155918301516001808401919091559201516002909101550161059b565b506002548111156106985760405162461bcd60e51b8152600401808060200182810382526035815260200180610f7b6035913960400191505060405180910390fd5b5050505050505050565b6000828152602081905260409020600201546106c5906106c0610b0d565b610835565b6107005760405162461bcd60e51b815260040180806020018281038252602f815260200180610e51602f913960400191505060405180910390fd5b61070a8282610b11565b5050565b6001546001600160a01b031681565b60025481565b61072b610b0d565b6001600160a01b0316816001600160a01b03161461077a5760405162461bcd60e51b815260040180806020018281038252602f815260200180610fdc602f913960400191505060405180910390fd5b61070a8282610b7a565b3360009081526006602090815260408083208151606081018352815460ff16151580825260018084015495830195909552600290920154928101929092529091146108005760405162461bcd60e51b815260040180806020018281038252602b815260200180610f50602b913960400191505060405180910390fd5b600354604090910151600454910201905090565b600082815260208190526040812061082c9083610be3565b90505b92915050565b600082815260208190526040812061082c9083610bef565b60066020526000908152604090208054600182015460029092015460ff909116919083565b600081565b336000908152600660205260409020805460ff1615156001146108cb5760405162461bcd60e51b815260040180806020018281038252602b815260200180610f50602b913960400191505060405180910390fd5b60055481600201541061090f5760405162461bcd60e51b815260040180806020018281038252602c815260200180610fb0602c913960400191505060405180910390fd5b60035460028201546004549102014381111561095c5760405162461bcd60e51b8152600401808060200182810382526036815260200180610f1a6036913960400191505060405180910390fd5b60005b43821161098c5760018381015460028501805490920191829055600354600454920290910192500161095f565b6001546040805163a9059cbb60e01b81523360048201526024810184905290516001600160a01b039092169163a9059cbb916044808201926020929091908290030181600087803b1580156109e057600080fd5b505af11580156109f4573d6000803e3d6000fd5b505050506040513d6020811015610a0a57600080fd5b5051610a475760405162461bcd60e51b8152600401808060200182810382526021815260200180610ec96021913960400191505060405180910390fd5b505050565b60055481565b600081815260208190526040812061082f90610c04565b600082815260208190526040902060020154610a87906106c0610b0d565b61077a5760405162461bcd60e51b8152600401808060200182810382526030815260200180610eea6030913960400191505060405180910390fd5b60045481565b60035481565b60078181548110610ade57600080fd5b6000918252602090912001546001600160a01b0316905081565b600061082c836001600160a01b038416610c0f565b3390565b6000828152602081905260409020610b299082610af8565b1561070a57610b36610b0d565b6001600160a01b0316816001600160a01b0316837f2f8788117e7eff1d82e926ec794901d17c78024a50270940304540a733656f0d60405160405180910390a45050565b6000828152602081905260409020610b929082610c59565b1561070a57610b9f610b0d565b6001600160a01b0316816001600160a01b0316837ff6391f5c32d9c69d2a47ea670b442974b53935d1edc7fd64eb21e047a839171b60405160405180910390a45050565b600061082c8383610c6e565b600061082c836001600160a01b038416610cd2565b600061082f82610cea565b6000610c1b8383610cd2565b610c515750815460018181018455600084815260208082209093018490558454848252828601909352604090209190915561082f565b50600061082f565b600061082c836001600160a01b038416610cee565b81546000908210610cb05760405162461bcd60e51b8152600401808060200182810382526022815260200180610e2f6022913960400191505060405180910390fd5b826000018281548110610cbf57fe5b9060005260206000200154905092915050565b60009081526001919091016020526040902054151590565b5490565b60008181526001830160205260408120548015610daa5783546000198083019190810190600090879083908110610d2157fe5b9060005260206000200154905080876000018481548110610d3e57fe5b600091825260208083209091019290925582815260018981019092526040902090840190558654879080610d6e57fe5b6001900381819060005260206000200160009055905586600101600087815260200190815260200160002060009055600194505050505061082f565b600091505061082f565b828054828255906000526020600020908101928215610e09579160200282015b82811115610e0957825182546001600160a01b0319166001600160a01b03909116178255602090920191600190910190610dd4565b50610e15929150610e19565b5090565b5b80821115610e155760008155600101610e1a56fe456e756d657261626c655365743a20696e646578206f7574206f6620626f756e6473416363657373436f6e74726f6c3a2073656e646572206d75737420626520616e2061646d696e20746f206772616e74446576656c6f7065725661756c743a206c656e67746820697320646966666572656e74446576656c6f7065725661756c743a2043616c6c6572206973206e6f7420616e2061646d696e446576656c6f7065725661756c743a20464c44207472616e73666572206661696c416363657373436f6e74726f6c3a2073656e646572206d75737420626520616e2061646d696e20746f207265766f6b65446576656c6f7065725661756c743a20506572696f6420666f722072657761726420686173206e6f74206265656e2072656163686564446576656c6f7065725661756c743a20646576656c6f706572206973206e6f742072656769737465726564446576656c6f7065725661756c743a20746f74616c20636c61696d20706f737369626c652067726561746572207468616e20636170446576656c6f7065725661756c743a206e756d626572206f6620636c61696d732065786365656473206d6178416363657373436f6e74726f6c3a2063616e206f6e6c792072656e6f756e636520726f6c657320666f722073656c66a2646970667358221220731e042c4954a7d3b2e50ad7c2d01b21e054cbcb3d592c3d222355749e2d621164736f6c63430007060033",
  "immutableReferences": {},
  "source": "// SPDX-License-Identifier: UNLICENSED\npragma solidity ^0.7.6;\n\nimport \"../interfaces/IDeveloperVault.sol\";\nimport \"@openzeppelin/contracts/access/AccessControl.sol\";\nimport {IERC20} from \"@openzeppelin/contracts/token/ERC20/IERC20.sol\";\n\n/// @title DeveloperVault\ncontract DeveloperVault is AccessControl, IDeveloperVault {\n    address public fld;\n    uint256 public cap;\n    uint256 public rewardPeriod;\n    uint256 public startRewardBlock;\n    uint256 public claimsNumberMax;\n\n    mapping(address => DeveloperInfo) public developersInfo;\n    address[] public developers;\n\n    /// @dev constructor of DeveloperVault\n    /// @param admin the admin address\n    constructor(address admin) {\n        _setupRole(DEFAULT_ADMIN_ROLE, admin);\n    }\n\n    struct DeveloperInfo {\n        bool registered;\n        uint256 claimAmount;\n        uint256 claimsNumber;\n    }\n\n    modifier onlyAdmin {\n        require(\n            hasRole(DEFAULT_ADMIN_ROLE, msg.sender),\n            \"DeveloperVault: Caller is not an admin\"\n        );\n        _;\n    }\n\n    /// @dev set initial storage\n    /// @param _fld the FLD address\n    /// @param _cap the allocated FLD amount to devs\n    /// @param _rewardPeriod given only once per _rewardPeriod.\n    /// @param _startRewardBlock the start block to give .\n    /// @param _claimsNumberMax Total number of payments\n    /// @param _developers the developer list\n    /// @param _claimAmounts How much do you pay at one time?\n    function initialize(\n        address _fld,\n        uint256 _cap,\n        uint256 _rewardPeriod,\n        uint256 _startRewardBlock,\n        uint256 _claimsNumberMax,\n        address[] memory _developers,\n        uint256[] memory _claimAmounts\n    ) external override onlyAdmin {\n        require(_fld != address(0), \"DeveloperVault: fld is zero\");\n        require(\n            _claimAmounts.length == _developers.length,\n            \"DeveloperVault: length is different\"\n        );\n        fld = _fld;\n        cap = _cap;\n        rewardPeriod = _rewardPeriod;\n        startRewardBlock = _startRewardBlock;\n        claimsNumberMax = _claimsNumberMax;\n        developers = _developers;\n\n        uint256 totalClaimPossible = 0;\n        for (uint256 i = 0; i < developers.length; ++i) {\n            totalClaimPossible += claimsNumberMax * _claimAmounts[i];\n            developersInfo[developers[i]] = DeveloperInfo({\n                registered: true,\n                claimAmount: _claimAmounts[i],\n                claimsNumber: 0\n            });\n        }\n        require(\n            totalClaimPossible <= cap,\n            \"DeveloperVault: total claim possible greater than cap\"\n        );\n    }\n\n    /// @dev Developers can receive their FLDs\n    function claimReward() external override {\n        DeveloperInfo storage devInfo = developersInfo[msg.sender];\n        require(\n            devInfo.registered == true,\n            \"DeveloperVault: developer is not registered\"\n        );\n        require(\n            devInfo.claimsNumber < claimsNumberMax,\n            \"DeveloperVault: number of claims exceeds max\"\n        );\n\n        uint256 currentBlockRewardNumber =\n            startRewardBlock + devInfo.claimsNumber * rewardPeriod;\n        require(\n            currentBlockRewardNumber <= block.number,\n            \"DeveloperVault: Period for reward has not been reached\"\n        );\n\n        uint256 allPastRewards = 0;\n        while (currentBlockRewardNumber <= block.number) {\n            allPastRewards += devInfo.claimAmount;\n            devInfo.claimsNumber += 1;\n            currentBlockRewardNumber =\n                startRewardBlock +\n                devInfo.claimsNumber *\n                rewardPeriod;\n        }\n        require(\n            IERC20(fld).transfer(msg.sender, allPastRewards),\n            \"DeveloperVault: FLD transfer fail\"\n        );\n    }\n\n    /// @dev Returns current reward block for sender\n    function currentRewardBlock() external view override returns (uint256) {\n        DeveloperInfo memory devInfo = developersInfo[msg.sender];\n        require(\n            devInfo.registered == true,\n            \"DeveloperVault: developer is not registered\"\n        );\n        uint256 currentBlockRewardNumber =\n            startRewardBlock + devInfo.claimsNumber * rewardPeriod;\n        return currentBlockRewardNumber;\n    }\n}\n",
  "sourcePath": "/Users/zena/ico2.0/ico20-contracts/contracts/dev/DeveloperVault.sol",
  "compiler": {
    "name": "solc",
    "version": "0.7.6+commit.7338295f.Emscripten.clang"
  },
  "schemaVersion": "3.3.4",
  "updatedAt": "2021-06-02T02:39:03.460Z",
  "devdoc": {
    "kind": "dev",
    "methods": {
      "claimReward()": {
        "details": "Developers can receive their FLDs"
      },
      "constructor": {
        "details": "constructor of DeveloperVault",
        "params": {
          "admin": "the admin address"
        }
      },
      "currentRewardBlock()": {
        "details": "Returns current reward block for sender"
      },
      "getRoleAdmin(bytes32)": {
        "details": "Returns the admin role that controls `role`. See {grantRole} and {revokeRole}. To change a role's admin, use {_setRoleAdmin}."
      },
      "getRoleMember(bytes32,uint256)": {
        "details": "Returns one of the accounts that have `role`. `index` must be a value between 0 and {getRoleMemberCount}, non-inclusive. Role bearers are not sorted in any particular way, and their ordering may change at any point. WARNING: When using {getRoleMember} and {getRoleMemberCount}, make sure you perform all queries on the same block. See the following https://forum.openzeppelin.com/t/iterating-over-elements-on-enumerableset-in-openzeppelin-contracts/2296[forum post] for more information."
      },
      "getRoleMemberCount(bytes32)": {
        "details": "Returns the number of accounts that have `role`. Can be used together with {getRoleMember} to enumerate all bearers of a role."
      },
      "grantRole(bytes32,address)": {
        "details": "Grants `role` to `account`. If `account` had not been already granted `role`, emits a {RoleGranted} event. Requirements: - the caller must have ``role``'s admin role."
      },
      "hasRole(bytes32,address)": {
        "details": "Returns `true` if `account` has been granted `role`."
      },
      "initialize(address,uint256,uint256,uint256,uint256,address[],uint256[])": {
        "details": "set initial storage",
        "params": {
          "_cap": "the allocated FLD amount to devs",
          "_claimAmounts": "How much do you pay at one time?",
          "_claimsNumberMax": "Total number of payments",
          "_developers": "the developer list",
          "_fld": "the FLD address",
          "_rewardPeriod": "given only once per _rewardPeriod.",
          "_startRewardBlock": "the start block to give ."
        }
      },
      "renounceRole(bytes32,address)": {
        "details": "Revokes `role` from the calling account. Roles are often managed via {grantRole} and {revokeRole}: this function's purpose is to provide a mechanism for accounts to lose their privileges if they are compromised (such as when a trusted device is misplaced). If the calling account had been granted `role`, emits a {RoleRevoked} event. Requirements: - the caller must be `account`."
      },
      "revokeRole(bytes32,address)": {
        "details": "Revokes `role` from `account`. If `account` had been granted `role`, emits a {RoleRevoked} event. Requirements: - the caller must have ``role``'s admin role."
      }
    },
    "title": "DeveloperVault",
    "version": 1
  },
  "userdoc": {
    "kind": "user",
    "methods": {},
    "version": 1
  }
}