{
  "contractName": "DeveloperVault",
  "abi": [
    {
      "inputs": [
        {
          "internalType": "address",
          "name": "admin",
          "type": "address"
        }
      ],
      "stateMutability": "nonpayable",
      "type": "constructor"
    },
    {
      "anonymous": false,
      "inputs": [
        {
          "indexed": true,
          "internalType": "bytes32",
          "name": "role",
          "type": "bytes32"
        },
        {
          "indexed": true,
          "internalType": "bytes32",
          "name": "previousAdminRole",
          "type": "bytes32"
        },
        {
          "indexed": true,
          "internalType": "bytes32",
          "name": "newAdminRole",
          "type": "bytes32"
        }
      ],
      "name": "RoleAdminChanged",
      "type": "event"
    },
    {
      "anonymous": false,
      "inputs": [
        {
          "indexed": true,
          "internalType": "bytes32",
          "name": "role",
          "type": "bytes32"
        },
        {
          "indexed": true,
          "internalType": "address",
          "name": "account",
          "type": "address"
        },
        {
          "indexed": true,
          "internalType": "address",
          "name": "sender",
          "type": "address"
        }
      ],
      "name": "RoleGranted",
      "type": "event"
    },
    {
      "anonymous": false,
      "inputs": [
        {
          "indexed": true,
          "internalType": "bytes32",
          "name": "role",
          "type": "bytes32"
        },
        {
          "indexed": true,
          "internalType": "address",
          "name": "account",
          "type": "address"
        },
        {
          "indexed": true,
          "internalType": "address",
          "name": "sender",
          "type": "address"
        }
      ],
      "name": "RoleRevoked",
      "type": "event"
    },
    {
      "inputs": [],
      "name": "DEFAULT_ADMIN_ROLE",
      "outputs": [
        {
          "internalType": "bytes32",
          "name": "",
          "type": "bytes32"
        }
      ],
      "stateMutability": "view",
      "type": "function"
    },
    {
      "inputs": [],
      "name": "cap",
      "outputs": [
        {
          "internalType": "uint256",
          "name": "",
          "type": "uint256"
        }
      ],
      "stateMutability": "view",
      "type": "function"
    },
    {
      "inputs": [],
      "name": "claimsNumberMax",
      "outputs": [
        {
          "internalType": "uint256",
          "name": "",
          "type": "uint256"
        }
      ],
      "stateMutability": "view",
      "type": "function"
    },
    {
      "inputs": [
        {
          "internalType": "uint256",
          "name": "",
          "type": "uint256"
        }
      ],
      "name": "developers",
      "outputs": [
        {
          "internalType": "address",
          "name": "",
          "type": "address"
        }
      ],
      "stateMutability": "view",
      "type": "function"
    },
    {
      "inputs": [
        {
          "internalType": "address",
          "name": "",
          "type": "address"
        }
      ],
      "name": "developersInfo",
      "outputs": [
        {
          "internalType": "bool",
          "name": "registered",
          "type": "bool"
        },
        {
          "internalType": "uint256",
          "name": "claimAmount",
          "type": "uint256"
        },
        {
          "internalType": "uint256",
          "name": "claimsNumber",
          "type": "uint256"
        }
      ],
      "stateMutability": "view",
      "type": "function"
    },
    {
      "inputs": [],
      "name": "fld",
      "outputs": [
        {
          "internalType": "contract IFLD",
          "name": "",
          "type": "address"
        }
      ],
      "stateMutability": "view",
      "type": "function"
    },
    {
      "inputs": [
        {
          "internalType": "bytes32",
          "name": "role",
          "type": "bytes32"
        }
      ],
      "name": "getRoleAdmin",
      "outputs": [
        {
          "internalType": "bytes32",
          "name": "",
          "type": "bytes32"
        }
      ],
      "stateMutability": "view",
      "type": "function"
    },
    {
      "inputs": [
        {
          "internalType": "bytes32",
          "name": "role",
          "type": "bytes32"
        },
        {
          "internalType": "uint256",
          "name": "index",
          "type": "uint256"
        }
      ],
      "name": "getRoleMember",
      "outputs": [
        {
          "internalType": "address",
          "name": "",
          "type": "address"
        }
      ],
      "stateMutability": "view",
      "type": "function"
    },
    {
      "inputs": [
        {
          "internalType": "bytes32",
          "name": "role",
          "type": "bytes32"
        }
      ],
      "name": "getRoleMemberCount",
      "outputs": [
        {
          "internalType": "uint256",
          "name": "",
          "type": "uint256"
        }
      ],
      "stateMutability": "view",
      "type": "function"
    },
    {
      "inputs": [
        {
          "internalType": "bytes32",
          "name": "role",
          "type": "bytes32"
        },
        {
          "internalType": "address",
          "name": "account",
          "type": "address"
        }
      ],
      "name": "grantRole",
      "outputs": [],
      "stateMutability": "nonpayable",
      "type": "function"
    },
    {
      "inputs": [
        {
          "internalType": "bytes32",
          "name": "role",
          "type": "bytes32"
        },
        {
          "internalType": "address",
          "name": "account",
          "type": "address"
        }
      ],
      "name": "hasRole",
      "outputs": [
        {
          "internalType": "bool",
          "name": "",
          "type": "bool"
        }
      ],
      "stateMutability": "view",
      "type": "function"
    },
    {
      "inputs": [
        {
          "internalType": "bytes32",
          "name": "role",
          "type": "bytes32"
        },
        {
          "internalType": "address",
          "name": "account",
          "type": "address"
        }
      ],
      "name": "renounceRole",
      "outputs": [],
      "stateMutability": "nonpayable",
      "type": "function"
    },
    {
      "inputs": [
        {
          "internalType": "bytes32",
          "name": "role",
          "type": "bytes32"
        },
        {
          "internalType": "address",
          "name": "account",
          "type": "address"
        }
      ],
      "name": "revokeRole",
      "outputs": [],
      "stateMutability": "nonpayable",
      "type": "function"
    },
    {
      "inputs": [],
      "name": "rewardPeriod",
      "outputs": [
        {
          "internalType": "uint256",
          "name": "",
          "type": "uint256"
        }
      ],
      "stateMutability": "view",
      "type": "function"
    },
    {
      "inputs": [],
      "name": "startRewardBlock",
      "outputs": [
        {
          "internalType": "uint256",
          "name": "",
          "type": "uint256"
        }
      ],
      "stateMutability": "view",
      "type": "function"
    },
    {
      "inputs": [
        {
          "internalType": "address",
          "name": "_fld",
          "type": "address"
        },
        {
          "internalType": "uint256",
          "name": "_cap",
          "type": "uint256"
        },
        {
          "internalType": "uint256",
          "name": "_rewardPeriod",
          "type": "uint256"
        },
        {
          "internalType": "uint256",
          "name": "_startRewardBlock",
          "type": "uint256"
        },
        {
          "internalType": "uint256",
          "name": "_claimsNumberMax",
          "type": "uint256"
        },
        {
          "internalType": "address[]",
          "name": "_developers",
          "type": "address[]"
        },
        {
          "internalType": "uint256[]",
          "name": "_claimAmounts",
          "type": "uint256[]"
        }
      ],
      "name": "initialize",
      "outputs": [],
      "stateMutability": "nonpayable",
      "type": "function"
    },
    {
      "inputs": [],
      "name": "claimReward",
      "outputs": [],
      "stateMutability": "nonpayable",
      "type": "function"
    },
    {
      "inputs": [],
      "name": "currentRewardBlock",
      "outputs": [
        {
          "internalType": "uint256",
          "name": "",
          "type": "uint256"
        }
      ],
      "stateMutability": "view",
      "type": "function"
    }
  ],
  "bytecode": "0x60806040523480156200001157600080fd5b506040516200111f3803806200111f833981810160405260208110156200003757600080fd5b5051620000466000826200004d565b5062000161565b6200005982826200005d565b5050565b6000828152602081815260409091206200008291839062000aba620000d6821b17901c565b15620000595762000092620000f6565b6001600160a01b0316816001600160a01b0316837f2f8788117e7eff1d82e926ec794901d17c78024a50270940304540a733656f0d60405160405180910390a45050565b6000620000ed836001600160a01b038416620000fa565b90505b92915050565b3390565b600062000108838362000149565b6200014057508154600181810184556000848152602080822090930184905584548482528286019093526040902091909155620000f0565b506000620000f0565b60009081526001919091016020526040902054151590565b610fae80620001716000396000f3fe608060405234801561001057600080fd5b50600436106101165760003560e01c8063a0a94cca116100a2578063ca15c87311610071578063ca15c873146103e8578063d547741f14610405578063d7ed714e14610431578063e88dc5b714610439578063eff25cd61461044157610116565b8063a0a94cca1461038a578063a217fddf146103d0578063b88a802f146103d8578063c90e96d6146103e057610116565b8063355274ea116100e9578063355274ea146102eb57806336568abe146102f35780634ed8e5dd1461031f5780639010d07c1461032757806391d148541461034a57610116565b8063248a9ca31461011b578063279708e81461014a5780632f2ff15d1461029b57806333bd2a49146102c7575b600080fd5b6101386004803603602081101561013157600080fd5b503561045e565b60408051918252519081900360200190f35b610299600480360360e081101561016057600080fd5b6001600160a01b03823516916020810135916040820135916060810135916080820135919081019060c0810160a08201356401000000008111156101a357600080fd5b8201836020820111156101b557600080fd5b803590602001918460208302840111640100000000831117156101d757600080fd5b919080806020026020016040519081016040528093929190818152602001838360200280828437600092019190915250929594936020810193503591505064010000000081111561022757600080fd5b82018360208201111561023957600080fd5b8035906020019184602083028401116401000000008311171561025b57600080fd5b919080806020026020016040519081016040528093929190818152602001838360200280828437600092019190915250929550610473945050505050565b005b610299600480360360408110156102b157600080fd5b50803590602001356001600160a01b031661064e565b6102cf6106ba565b604080516001600160a01b039092168252519081900360200190f35b6101386106c9565b6102996004803603604081101561030957600080fd5b50803590602001356001600160a01b03166106cf565b610138610730565b6102cf6004803603604081101561033d57600080fd5b50803590602001356107c0565b6103766004803603604081101561036057600080fd5b50803590602001356001600160a01b03166107e1565b604080519115158252519081900360200190f35b6103b0600480360360208110156103a057600080fd5b50356001600160a01b03166107f9565b604080519315158452602084019290925282820152519081900360600190f35b61013861081e565b610299610823565b610138610a0e565b610138600480360360208110156103fe57600080fd5b5035610a14565b6102996004803603604081101561041b57600080fd5b50803590602001356001600160a01b0316610a2b565b610138610a84565b610138610a8a565b6102cf6004803603602081101561045757600080fd5b5035610a90565b60009081526020819052604090206002015490565b61047e6000336107e1565b6104b95760405162461bcd60e51b8152600401808060200182810382526026815260200180610e426026913960400191505060405180910390fd5b8151815114610500576040805162461bcd60e51b815260206004820152600e60248201526d11195d995b1bdc195c95985d5b1d60921b604482015290519081900360640190fd5b600180546001600160a01b0319166001600160a01b03891617905560028690556003859055600484905560058390558151610542906007906020850190610d76565b506000805b6007548110156106025782818151811061055d57fe5b60200260200101516005540282019150604051806060016040528060011515815260200184838151811061058d57fe5b60200260200101518152602001600081525060066000600784815481106105b057fe5b6000918252602080832091909101546001600160a01b0316835282810193909352604091820190208351815460ff19169015151781559183015160018084019190915592015160029091015501610547565b506002548111156106445760405162461bcd60e51b8152600401808060200182810382526035815260200180610ee96035913960400191505060405180910390fd5b5050505050505050565b6000828152602081905260409020600201546106719061066c610acf565b6107e1565b6106ac5760405162461bcd60e51b815260040180806020018281038252602f815260200180610e13602f913960400191505060405180910390fd5b6106b68282610ad3565b5050565b6001546001600160a01b031681565b60025481565b6106d7610acf565b6001600160a01b0316816001600160a01b0316146107265760405162461bcd60e51b815260040180806020018281038252602f815260200180610f4a602f913960400191505060405180910390fd5b6106b68282610b3c565b3360009081526006602090815260408083208151606081018352815460ff16151580825260018084015495830195909552600290920154928101929092529091146107ac5760405162461bcd60e51b815260040180806020018281038252602b815260200180610ebe602b913960400191505060405180910390fd5b600354604090910151600454910201905090565b60008281526020819052604081206107d89083610ba5565b90505b92915050565b60008281526020819052604081206107d89083610bb1565b60066020526000908152604090208054600182015460029092015460ff909116919083565b600081565b336000908152600660205260409020805460ff1615156001146108775760405162461bcd60e51b815260040180806020018281038252602b815260200180610ebe602b913960400191505060405180910390fd5b6005548160020154106108bb5760405162461bcd60e51b815260040180806020018281038252602c815260200180610f1e602c913960400191505060405180910390fd5b6003546002820154600454910201438111156109085760405162461bcd60e51b8152600401808060200182810382526026815260200180610e986026913960400191505060405180910390fd5b60005b4382116109385760018381015460028501805490920191829055600354600454920290910192500161090b565b6001546040805163a9059cbb60e01b81523360048201526024810184905290516001600160a01b039092169163a9059cbb916044808201926020929091908290030181600087803b15801561098c57600080fd5b505af11580156109a0573d6000803e3d6000fd5b505050506040513d60208110156109b657600080fd5b5051610a09576040805162461bcd60e51b815260206004820152601e60248201527f5374616b65315661756c743a20464c44207472616e73666572206661696c0000604482015290519081900360640190fd5b505050565b60055481565b60008181526020819052604081206107db90610bc6565b600082815260208190526040902060020154610a499061066c610acf565b6107265760405162461bcd60e51b8152600401808060200182810382526030815260200180610e686030913960400191505060405180910390fd5b60045481565b60035481565b60078181548110610aa057600080fd5b6000918252602090912001546001600160a01b0316905081565b60006107d8836001600160a01b038416610bd1565b3390565b6000828152602081905260409020610aeb9082610aba565b156106b657610af8610acf565b6001600160a01b0316816001600160a01b0316837f2f8788117e7eff1d82e926ec794901d17c78024a50270940304540a733656f0d60405160405180910390a45050565b6000828152602081905260409020610b549082610c1b565b156106b657610b61610acf565b6001600160a01b0316816001600160a01b0316837ff6391f5c32d9c69d2a47ea670b442974b53935d1edc7fd64eb21e047a839171b60405160405180910390a45050565b60006107d88383610c30565b60006107d8836001600160a01b038416610c94565b60006107db82610cac565b6000610bdd8383610c94565b610c13575081546001818101845560008481526020808220909301849055845484825282860190935260409020919091556107db565b5060006107db565b60006107d8836001600160a01b038416610cb0565b81546000908210610c725760405162461bcd60e51b8152600401808060200182810382526022815260200180610df16022913960400191505060405180910390fd5b826000018281548110610c8157fe5b9060005260206000200154905092915050565b60009081526001919091016020526040902054151590565b5490565b60008181526001830160205260408120548015610d6c5783546000198083019190810190600090879083908110610ce357fe5b9060005260206000200154905080876000018481548110610d0057fe5b600091825260208083209091019290925582815260018981019092526040902090840190558654879080610d3057fe5b600190038181906000526020600020016000905590558660010160008781526020019081526020016000206000905560019450505050506107db565b60009150506107db565b828054828255906000526020600020908101928215610dcb579160200282015b82811115610dcb57825182546001600160a01b0319166001600160a01b03909116178255602090920191600190910190610d96565b50610dd7929150610ddb565b5090565b5b80821115610dd75760008155600101610ddc56fe456e756d657261626c655365743a20696e646578206f7574206f6620626f756e6473416363657373436f6e74726f6c3a2073656e646572206d75737420626520616e2061646d696e20746f206772616e74446576656c6f7065725661756c743a2043616c6c6572206973206e6f7420616e2061646d696e416363657373436f6e74726f6c3a2073656e646572206d75737420626520616e2061646d696e20746f207265766f6b65506572696f6420666f722072657761726420686173206e6f74206265656e2072656163686564446576656c6f7065725661756c743a20646576656c6f706572206973206e6f742072656769737465726564446576656c6f7065725661756c743a20746f74616c20636c61696d20706f737369626c652067726561746572207468616e20636170446576656c6f7065725661756c743a206e756d626572206f6620636c61696d732065786365656473206d6178416363657373436f6e74726f6c3a2063616e206f6e6c792072656e6f756e636520726f6c657320666f722073656c66a264697066735822122022e131aa5a366b21c1c0d5244570998d6f24f22fe6d92ced304bc7d34abfae1964736f6c63430007060033",
  "immutableReferences": {},
  "source": "// SPDX-License-Identifier: UNLICENSED\npragma solidity ^0.7.6;\n\nimport \"@openzeppelin/contracts/access/AccessControl.sol\";\nimport {IFLD} from \"../interfaces/IFLD.sol\";\n\n// import \"hardhat/console\";\n\ncontract DeveloperVault is AccessControl {\n    IFLD public fld;\n    uint256 public cap;\n    uint256 public rewardPeriod;\n    uint256 public startRewardBlock;\n    uint256 public claimsNumberMax;\n\n    mapping(address => DeveloperInfo) public developersInfo;\n    address[] public developers;\n\n    constructor(address admin) {\n        _setupRole(DEFAULT_ADMIN_ROLE, admin);\n    }\n\n    struct DeveloperInfo {\n        bool registered;\n        uint256 claimAmount;\n        uint256 claimsNumber;\n    }\n\n    modifier onlyAdmin {\n        require(\n            hasRole(DEFAULT_ADMIN_ROLE, msg.sender),\n            \"DeveloperVault: Caller is not an admin\"\n        );\n        _;\n    }\n\n    /// @dev Initialize\n    function initialize(\n        address _fld,\n        uint256 _cap,\n        uint256 _rewardPeriod,\n        uint256 _startRewardBlock,\n        uint256 _claimsNumberMax,\n        address[] memory _developers,\n        uint256[] memory _claimAmounts\n    ) external onlyAdmin {\n        require(_claimAmounts.length == _developers.length, \"DeveloperVault\");\n        fld = IFLD(_fld);\n        cap = _cap;\n        rewardPeriod = _rewardPeriod;\n        startRewardBlock = _startRewardBlock;\n        claimsNumberMax = _claimsNumberMax;\n        developers = _developers;\n\n        uint256 totalClaimPossible = 0;\n        for (uint256 i = 0; i < developers.length; ++i) {\n            totalClaimPossible += claimsNumberMax * _claimAmounts[i];\n            developersInfo[developers[i]] = DeveloperInfo({\n                registered: true,\n                claimAmount: _claimAmounts[i],\n                claimsNumber: 0\n            });\n        }\n        require(\n            totalClaimPossible <= cap,\n            \"DeveloperVault: total claim possible greater than cap\"\n        );\n    }\n\n    /// @dev Developers can receive their FLDs\n    function claimReward() external {\n        DeveloperInfo storage devInfo = developersInfo[msg.sender];\n        require(\n            devInfo.registered == true,\n            \"DeveloperVault: developer is not registered\"\n        );\n        require(\n            devInfo.claimsNumber < claimsNumberMax,\n            \"DeveloperVault: number of claims exceeds max\"\n        );\n\n        uint256 currentBlockRewardNumber =\n            startRewardBlock + devInfo.claimsNumber * rewardPeriod;\n        require(\n            currentBlockRewardNumber <= block.number,\n            \"Period for reward has not been reached\"\n        );\n\n        uint256 allPastRewards = 0;\n        while (currentBlockRewardNumber <= block.number) {\n            allPastRewards += devInfo.claimAmount;\n            devInfo.claimsNumber += 1;\n            currentBlockRewardNumber =\n                startRewardBlock +\n                devInfo.claimsNumber *\n                rewardPeriod;\n        }\n        require(\n            fld.transfer(msg.sender, allPastRewards),\n            \"Stake1Vault: FLD transfer fail\"\n        );\n    }\n\n    /// @dev Returns current reward block for sender\n    function currentRewardBlock() external view returns (uint256) {\n        DeveloperInfo memory devInfo = developersInfo[msg.sender];\n        require(\n            devInfo.registered == true,\n            \"DeveloperVault: developer is not registered\"\n        );\n        uint256 currentBlockRewardNumber =\n            startRewardBlock + devInfo.claimsNumber * rewardPeriod;\n        return currentBlockRewardNumber;\n    }\n}\n",
  "sourcePath": "/Users/zena/ico2.0/ico20-contracts/contracts/dev/DeveloperVault.sol",
  "compiler": {
    "name": "solc",
    "version": "0.7.6+commit.7338295f.Emscripten.clang"
  },
  "schemaVersion": "3.3.4",
  "updatedAt": "2021-05-14T01:45:59.633Z",
  "devdoc": {
    "kind": "dev",
    "methods": {
      "claimReward()": {
        "details": "Developers can receive their FLDs"
      },
      "currentRewardBlock()": {
        "details": "Returns current reward block for sender"
      },
      "getRoleAdmin(bytes32)": {
        "details": "Returns the admin role that controls `role`. See {grantRole} and {revokeRole}. To change a role's admin, use {_setRoleAdmin}."
      },
      "getRoleMember(bytes32,uint256)": {
        "details": "Returns one of the accounts that have `role`. `index` must be a value between 0 and {getRoleMemberCount}, non-inclusive. Role bearers are not sorted in any particular way, and their ordering may change at any point. WARNING: When using {getRoleMember} and {getRoleMemberCount}, make sure you perform all queries on the same block. See the following https://forum.openzeppelin.com/t/iterating-over-elements-on-enumerableset-in-openzeppelin-contracts/2296[forum post] for more information."
      },
      "getRoleMemberCount(bytes32)": {
        "details": "Returns the number of accounts that have `role`. Can be used together with {getRoleMember} to enumerate all bearers of a role."
      },
      "grantRole(bytes32,address)": {
        "details": "Grants `role` to `account`. If `account` had not been already granted `role`, emits a {RoleGranted} event. Requirements: - the caller must have ``role``'s admin role."
      },
      "hasRole(bytes32,address)": {
        "details": "Returns `true` if `account` has been granted `role`."
      },
      "initialize(address,uint256,uint256,uint256,uint256,address[],uint256[])": {
        "details": "Initialize"
      },
      "renounceRole(bytes32,address)": {
        "details": "Revokes `role` from the calling account. Roles are often managed via {grantRole} and {revokeRole}: this function's purpose is to provide a mechanism for accounts to lose their privileges if they are compromised (such as when a trusted device is misplaced). If the calling account had been granted `role`, emits a {RoleRevoked} event. Requirements: - the caller must be `account`."
      },
      "revokeRole(bytes32,address)": {
        "details": "Revokes `role` from `account`. If `account` had been granted `role`, emits a {RoleRevoked} event. Requirements: - the caller must have ``role``'s admin role."
      }
    },
    "version": 1
  },
  "userdoc": {
    "kind": "user",
    "methods": {},
    "version": 1
  }
}