{
  "contractName": "DeveloperVault",
  "abi": [
    {
      "inputs": [
        {
          "internalType": "address",
          "name": "admin",
          "type": "address"
        }
      ],
      "stateMutability": "nonpayable",
      "type": "constructor"
    },
    {
      "anonymous": false,
      "inputs": [
        {
          "indexed": true,
          "internalType": "bytes32",
          "name": "role",
          "type": "bytes32"
        },
        {
          "indexed": true,
          "internalType": "bytes32",
          "name": "previousAdminRole",
          "type": "bytes32"
        },
        {
          "indexed": true,
          "internalType": "bytes32",
          "name": "newAdminRole",
          "type": "bytes32"
        }
      ],
      "name": "RoleAdminChanged",
      "type": "event"
    },
    {
      "anonymous": false,
      "inputs": [
        {
          "indexed": true,
          "internalType": "bytes32",
          "name": "role",
          "type": "bytes32"
        },
        {
          "indexed": true,
          "internalType": "address",
          "name": "account",
          "type": "address"
        },
        {
          "indexed": true,
          "internalType": "address",
          "name": "sender",
          "type": "address"
        }
      ],
      "name": "RoleGranted",
      "type": "event"
    },
    {
      "anonymous": false,
      "inputs": [
        {
          "indexed": true,
          "internalType": "bytes32",
          "name": "role",
          "type": "bytes32"
        },
        {
          "indexed": true,
          "internalType": "address",
          "name": "account",
          "type": "address"
        },
        {
          "indexed": true,
          "internalType": "address",
          "name": "sender",
          "type": "address"
        }
      ],
      "name": "RoleRevoked",
      "type": "event"
    },
    {
      "inputs": [],
      "name": "DEFAULT_ADMIN_ROLE",
      "outputs": [
        {
          "internalType": "bytes32",
          "name": "",
          "type": "bytes32"
        }
      ],
      "stateMutability": "view",
      "type": "function"
    },
    {
      "inputs": [],
      "name": "cap",
      "outputs": [
        {
          "internalType": "uint256",
          "name": "",
          "type": "uint256"
        }
      ],
      "stateMutability": "view",
      "type": "function"
    },
    {
      "inputs": [],
      "name": "claimsNumberMax",
      "outputs": [
        {
          "internalType": "uint256",
          "name": "",
          "type": "uint256"
        }
      ],
      "stateMutability": "view",
      "type": "function"
    },
    {
      "inputs": [
        {
          "internalType": "uint256",
          "name": "",
          "type": "uint256"
        }
      ],
      "name": "developers",
      "outputs": [
        {
          "internalType": "address",
          "name": "",
          "type": "address"
        }
      ],
      "stateMutability": "view",
      "type": "function"
    },
    {
      "inputs": [
        {
          "internalType": "address",
          "name": "",
          "type": "address"
        }
      ],
      "name": "developersInfo",
      "outputs": [
        {
          "internalType": "bool",
          "name": "registered",
          "type": "bool"
        },
        {
          "internalType": "uint256",
          "name": "claimAmount",
          "type": "uint256"
        },
        {
          "internalType": "uint256",
          "name": "claimsNumber",
          "type": "uint256"
        }
      ],
      "stateMutability": "view",
      "type": "function"
    },
    {
      "inputs": [
        {
          "internalType": "bytes32",
          "name": "role",
          "type": "bytes32"
        }
      ],
      "name": "getRoleAdmin",
      "outputs": [
        {
          "internalType": "bytes32",
          "name": "",
          "type": "bytes32"
        }
      ],
      "stateMutability": "view",
      "type": "function"
    },
    {
      "inputs": [
        {
          "internalType": "bytes32",
          "name": "role",
          "type": "bytes32"
        },
        {
          "internalType": "uint256",
          "name": "index",
          "type": "uint256"
        }
      ],
      "name": "getRoleMember",
      "outputs": [
        {
          "internalType": "address",
          "name": "",
          "type": "address"
        }
      ],
      "stateMutability": "view",
      "type": "function"
    },
    {
      "inputs": [
        {
          "internalType": "bytes32",
          "name": "role",
          "type": "bytes32"
        }
      ],
      "name": "getRoleMemberCount",
      "outputs": [
        {
          "internalType": "uint256",
          "name": "",
          "type": "uint256"
        }
      ],
      "stateMutability": "view",
      "type": "function"
    },
    {
      "inputs": [
        {
          "internalType": "bytes32",
          "name": "role",
          "type": "bytes32"
        },
        {
          "internalType": "address",
          "name": "account",
          "type": "address"
        }
      ],
      "name": "grantRole",
      "outputs": [],
      "stateMutability": "nonpayable",
      "type": "function"
    },
    {
      "inputs": [
        {
          "internalType": "bytes32",
          "name": "role",
          "type": "bytes32"
        },
        {
          "internalType": "address",
          "name": "account",
          "type": "address"
        }
      ],
      "name": "hasRole",
      "outputs": [
        {
          "internalType": "bool",
          "name": "",
          "type": "bool"
        }
      ],
      "stateMutability": "view",
      "type": "function"
    },
    {
      "inputs": [
        {
          "internalType": "bytes32",
          "name": "role",
          "type": "bytes32"
        },
        {
          "internalType": "address",
          "name": "account",
          "type": "address"
        }
      ],
      "name": "renounceRole",
      "outputs": [],
      "stateMutability": "nonpayable",
      "type": "function"
    },
    {
      "inputs": [
        {
          "internalType": "bytes32",
          "name": "role",
          "type": "bytes32"
        },
        {
          "internalType": "address",
          "name": "account",
          "type": "address"
        }
      ],
      "name": "revokeRole",
      "outputs": [],
      "stateMutability": "nonpayable",
      "type": "function"
    },
    {
      "inputs": [],
      "name": "rewardPeriod",
      "outputs": [
        {
          "internalType": "uint256",
          "name": "",
          "type": "uint256"
        }
      ],
      "stateMutability": "view",
      "type": "function"
    },
    {
      "inputs": [],
      "name": "startRewardBlock",
      "outputs": [
        {
          "internalType": "uint256",
          "name": "",
          "type": "uint256"
        }
      ],
      "stateMutability": "view",
      "type": "function"
    },
    {
      "inputs": [],
      "name": "tos",
      "outputs": [
        {
          "internalType": "address",
          "name": "",
          "type": "address"
        }
      ],
      "stateMutability": "view",
      "type": "function"
    },
    {
      "inputs": [
        {
          "internalType": "address",
          "name": "_tos",
          "type": "address"
        },
        {
          "internalType": "uint256",
          "name": "_cap",
          "type": "uint256"
        },
        {
          "internalType": "uint256",
          "name": "_rewardPeriod",
          "type": "uint256"
        },
        {
          "internalType": "uint256",
          "name": "_startRewardBlock",
          "type": "uint256"
        },
        {
          "internalType": "uint256",
          "name": "_claimsNumberMax",
          "type": "uint256"
        },
        {
          "internalType": "address[]",
          "name": "_developers",
          "type": "address[]"
        },
        {
          "internalType": "uint256[]",
          "name": "_claimAmounts",
          "type": "uint256[]"
        }
      ],
      "name": "initialize",
      "outputs": [],
      "stateMutability": "nonpayable",
      "type": "function"
    },
    {
      "inputs": [],
      "name": "claimReward",
      "outputs": [],
      "stateMutability": "nonpayable",
      "type": "function"
    },
    {
      "inputs": [],
      "name": "currentRewardBlock",
      "outputs": [
        {
          "internalType": "uint256",
          "name": "",
          "type": "uint256"
        }
      ],
      "stateMutability": "view",
      "type": "function"
    }
  ],
  "bytecode": "0x60806040523480156200001157600080fd5b506040516200118d3803806200118d833981810160405260208110156200003757600080fd5b5051620000466000826200004d565b5062000161565b6200005982826200005d565b5050565b6000828152602081815260409091206200008291839062000ad4620000d6821b17901c565b15620000595762000092620000f6565b6001600160a01b0316816001600160a01b0316837f2f8788117e7eff1d82e926ec794901d17c78024a50270940304540a733656f0d60405160405180910390a45050565b6000620000ed836001600160a01b038416620000fa565b90505b92915050565b3390565b600062000108838362000149565b6200014057508154600181810184556000848152602080822090930184905584548482528286019093526040902091909155620000f0565b506000620000f0565b60009081526001919091016020526040902054151590565b61101c80620001716000396000f3fe608060405234801561001057600080fd5b50600436106100f65760003560e01c8063a0a94cca11610092578063a0a94cca14610366578063a217fddf146103ac578063b88a802f146103b4578063c90e96d6146103bc578063ca15c873146103c4578063d547741f146103e1578063d7ed714e1461040d578063e88dc5b714610415578063eff25cd61461041d576100f6565b8063248a9ca3146100fb578063279708e81461012a5780632f2ff15d14610277578063355274ea146102a357806336568abe146102ab5780634ed8e5dd146102d757806389f395de146102df5780639010d07c1461030357806391d1485414610326575b600080fd5b6101186004803603602081101561011157600080fd5b503561043a565b60408051918252519081900360200190f35b610275600480360360e081101561014057600080fd5b6001600160a01b03823516916020810135916040820135916060810135916080820135919081019060c0810160a0820135600160201b81111561018257600080fd5b82018360208201111561019457600080fd5b803590602001918460208302840111600160201b831117156101b557600080fd5b9190808060200260200160405190810160405280939291908181526020018383602002808284376000920191909152509295949360208101935035915050600160201b81111561020457600080fd5b82018360208201111561021657600080fd5b803590602001918460208302840111600160201b8311171561023757600080fd5b91908080602002602001604051908101604052809392919081815260200183836020028082843760009201919091525092955061044f945050505050565b005b6102756004803603604081101561028d57600080fd5b50803590602001356001600160a01b031661067e565b6101186106ea565b610275600480360360408110156102c157600080fd5b50803590602001356001600160a01b03166106f0565b610118610751565b6102e76107e1565b604080516001600160a01b039092168252519081900360200190f35b6102e76004803603604081101561031957600080fd5b50803590602001356107f0565b6103526004803603604081101561033c57600080fd5b50803590602001356001600160a01b0316610811565b604080519115158252519081900360200190f35b61038c6004803603602081101561037c57600080fd5b50356001600160a01b0316610829565b604080519315158452602084019290925282820152519081900360600190f35b61011861084e565b610275610853565b610118610a28565b610118600480360360208110156103da57600080fd5b5035610a2e565b610275600480360360408110156103f757600080fd5b50803590602001356001600160a01b0316610a45565b610118610a9e565b610118610aa4565b6102e76004803603602081101561043357600080fd5b5035610aaa565b60009081526020819052604090206002015490565b61045a600033610811565b6104955760405162461bcd60e51b8152600401808060200182810382526026815260200180610e7f6026913960400191505060405180910390fd5b6001600160a01b0387166104f0576040805162461bcd60e51b815260206004820152601b60248201527f446576656c6f7065725661756c743a20746f73206973207a65726f0000000000604482015290519081900360640190fd5b81518151146105305760405162461bcd60e51b8152600401808060200182810382526023815260200180610e5c6023913960400191505060405180910390fd5b600180546001600160a01b0319166001600160a01b03891617905560028690556003859055600484905560058390558151610572906007906020850190610d90565b506000805b6007548110156106325782818151811061058d57fe5b6020026020010151600554028201915060405180606001604052806001151581526020018483815181106105bd57fe5b60200260200101518152602001600081525060066000600784815481106105e057fe5b6000918252602080832091909101546001600160a01b0316835282810193909352604091820190208351815460ff19169015151781559183015160018084019190915592015160029091015501610577565b506002548111156106745760405162461bcd60e51b8152600401808060200182810382526035815260200180610f576035913960400191505060405180910390fd5b5050505050505050565b6000828152602081905260409020600201546106a19061069c610ae9565b610811565b6106dc5760405162461bcd60e51b815260040180806020018281038252602f815260200180610e2d602f913960400191505060405180910390fd5b6106e68282610aed565b5050565b60025481565b6106f8610ae9565b6001600160a01b0316816001600160a01b0316146107475760405162461bcd60e51b815260040180806020018281038252602f815260200180610fb8602f913960400191505060405180910390fd5b6106e68282610b56565b3360009081526006602090815260408083208151606081018352815460ff16151580825260018084015495830195909552600290920154928101929092529091146107cd5760405162461bcd60e51b815260040180806020018281038252602b815260200180610f2c602b913960400191505060405180910390fd5b600354604090910151600454910201905090565b6001546001600160a01b031681565b60008281526020819052604081206108089083610bbf565b90505b92915050565b60008281526020819052604081206108089083610bcb565b60066020526000908152604090208054600182015460029092015460ff909116919083565b600081565b336000908152600660205260409020805460ff1615156001146108a75760405162461bcd60e51b815260040180806020018281038252602b815260200180610f2c602b913960400191505060405180910390fd5b6005548160020154106108eb5760405162461bcd60e51b815260040180806020018281038252602c815260200180610f8c602c913960400191505060405180910390fd5b6003546002820154600454910201438111156109385760405162461bcd60e51b8152600401808060200182810382526036815260200180610ef66036913960400191505060405180910390fd5b60005b4382116109685760018381015460028501805490920191829055600354600454920290910192500161093b565b6001546040805163a9059cbb60e01b81523360048201526024810184905290516001600160a01b039092169163a9059cbb916044808201926020929091908290030181600087803b1580156109bc57600080fd5b505af11580156109d0573d6000803e3d6000fd5b505050506040513d60208110156109e657600080fd5b5051610a235760405162461bcd60e51b8152600401808060200182810382526021815260200180610ed56021913960400191505060405180910390fd5b505050565b60055481565b600081815260208190526040812061080b90610be0565b600082815260208190526040902060020154610a639061069c610ae9565b6107475760405162461bcd60e51b8152600401808060200182810382526030815260200180610ea56030913960400191505060405180910390fd5b60045481565b60035481565b60078181548110610aba57600080fd5b6000918252602090912001546001600160a01b0316905081565b6000610808836001600160a01b038416610beb565b3390565b6000828152602081905260409020610b059082610ad4565b156106e657610b12610ae9565b6001600160a01b0316816001600160a01b0316837f2f8788117e7eff1d82e926ec794901d17c78024a50270940304540a733656f0d60405160405180910390a45050565b6000828152602081905260409020610b6e9082610c35565b156106e657610b7b610ae9565b6001600160a01b0316816001600160a01b0316837ff6391f5c32d9c69d2a47ea670b442974b53935d1edc7fd64eb21e047a839171b60405160405180910390a45050565b60006108088383610c4a565b6000610808836001600160a01b038416610cae565b600061080b82610cc6565b6000610bf78383610cae565b610c2d5750815460018181018455600084815260208082209093018490558454848252828601909352604090209190915561080b565b50600061080b565b6000610808836001600160a01b038416610cca565b81546000908210610c8c5760405162461bcd60e51b8152600401808060200182810382526022815260200180610e0b6022913960400191505060405180910390fd5b826000018281548110610c9b57fe5b9060005260206000200154905092915050565b60009081526001919091016020526040902054151590565b5490565b60008181526001830160205260408120548015610d865783546000198083019190810190600090879083908110610cfd57fe5b9060005260206000200154905080876000018481548110610d1a57fe5b600091825260208083209091019290925582815260018981019092526040902090840190558654879080610d4a57fe5b6001900381819060005260206000200160009055905586600101600087815260200190815260200160002060009055600194505050505061080b565b600091505061080b565b828054828255906000526020600020908101928215610de5579160200282015b82811115610de557825182546001600160a01b0319166001600160a01b03909116178255602090920191600190910190610db0565b50610df1929150610df5565b5090565b5b80821115610df15760008155600101610df656fe456e756d657261626c655365743a20696e646578206f7574206f6620626f756e6473416363657373436f6e74726f6c3a2073656e646572206d75737420626520616e2061646d696e20746f206772616e74446576656c6f7065725661756c743a206c656e67746820697320646966666572656e74446576656c6f7065725661756c743a2043616c6c6572206973206e6f7420616e2061646d696e416363657373436f6e74726f6c3a2073656e646572206d75737420626520616e2061646d696e20746f207265766f6b65446576656c6f7065725661756c743a20544f53207472616e73666572206661696c446576656c6f7065725661756c743a20506572696f6420666f722072657761726420686173206e6f74206265656e2072656163686564446576656c6f7065725661756c743a20646576656c6f706572206973206e6f742072656769737465726564446576656c6f7065725661756c743a20746f74616c20636c61696d20706f737369626c652067726561746572207468616e20636170446576656c6f7065725661756c743a206e756d626572206f6620636c61696d732065786365656473206d6178416363657373436f6e74726f6c3a2063616e206f6e6c792072656e6f756e636520726f6c657320666f722073656c66a26469706673582212207462c94db9eb618a689c0402116ddd72fac88f586dbfcdbd8453908d5832c77564736f6c63430007060033",
  "immutableReferences": {},
  "source": "// SPDX-License-Identifier: UNLICENSED\npragma solidity ^0.7.6;\n\nimport \"../interfaces/IDeveloperVault.sol\";\nimport \"@openzeppelin/contracts/access/AccessControl.sol\";\nimport {IERC20} from \"@openzeppelin/contracts/token/ERC20/IERC20.sol\";\n\n/// @title DeveloperVault\ncontract DeveloperVault is AccessControl, IDeveloperVault {\n    address public tos;\n    uint256 public cap;\n    uint256 public rewardPeriod;\n    uint256 public startRewardBlock;\n    uint256 public claimsNumberMax;\n\n    mapping(address => DeveloperInfo) public developersInfo;\n    address[] public developers;\n\n    /// @dev constructor of DeveloperVault\n    /// @param admin the admin address\n    constructor(address admin) {\n        _setupRole(DEFAULT_ADMIN_ROLE, admin);\n    }\n\n    struct DeveloperInfo {\n        bool registered;\n        uint256 claimAmount;\n        uint256 claimsNumber;\n    }\n\n    modifier onlyAdmin {\n        require(\n            hasRole(DEFAULT_ADMIN_ROLE, msg.sender),\n            \"DeveloperVault: Caller is not an admin\"\n        );\n        _;\n    }\n\n    /// @dev set initial storage\n    /// @param _tos the TOS address\n    /// @param _cap the allocated TOS amount to devs\n    /// @param _rewardPeriod given only once per _rewardPeriod.\n    /// @param _startRewardBlock the start block to give .\n    /// @param _claimsNumberMax Total number of payments\n    /// @param _developers the developer list\n    /// @param _claimAmounts How much do you pay at one time?\n    function initialize(\n        address _tos,\n        uint256 _cap,\n        uint256 _rewardPeriod,\n        uint256 _startRewardBlock,\n        uint256 _claimsNumberMax,\n        address[] memory _developers,\n        uint256[] memory _claimAmounts\n    ) external override onlyAdmin {\n        require(_tos != address(0), \"DeveloperVault: tos is zero\");\n        require(\n            _claimAmounts.length == _developers.length,\n            \"DeveloperVault: length is different\"\n        );\n        tos = _tos;\n        cap = _cap;\n        rewardPeriod = _rewardPeriod;\n        startRewardBlock = _startRewardBlock;\n        claimsNumberMax = _claimsNumberMax;\n        developers = _developers;\n\n        uint256 totalClaimPossible = 0;\n        for (uint256 i = 0; i < developers.length; ++i) {\n            totalClaimPossible += claimsNumberMax * _claimAmounts[i];\n            developersInfo[developers[i]] = DeveloperInfo({\n                registered: true,\n                claimAmount: _claimAmounts[i],\n                claimsNumber: 0\n            });\n        }\n        require(\n            totalClaimPossible <= cap,\n            \"DeveloperVault: total claim possible greater than cap\"\n        );\n    }\n\n    /// @dev Developers can receive their TOSs\n    function claimReward() external override {\n        DeveloperInfo storage devInfo = developersInfo[msg.sender];\n        require(\n            devInfo.registered == true,\n            \"DeveloperVault: developer is not registered\"\n        );\n        require(\n            devInfo.claimsNumber < claimsNumberMax,\n            \"DeveloperVault: number of claims exceeds max\"\n        );\n\n        uint256 currentBlockRewardNumber =\n            startRewardBlock + devInfo.claimsNumber * rewardPeriod;\n        require(\n            currentBlockRewardNumber <= block.number,\n            \"DeveloperVault: Period for reward has not been reached\"\n        );\n\n        uint256 allPastRewards = 0;\n        while (currentBlockRewardNumber <= block.number) {\n            allPastRewards += devInfo.claimAmount;\n            devInfo.claimsNumber += 1;\n            currentBlockRewardNumber =\n                startRewardBlock +\n                devInfo.claimsNumber *\n                rewardPeriod;\n        }\n        require(\n            IERC20(tos).transfer(msg.sender, allPastRewards),\n            \"DeveloperVault: TOS transfer fail\"\n        );\n    }\n\n    /// @dev Returns current reward block for sender\n    function currentRewardBlock() external view override returns (uint256) {\n        DeveloperInfo memory devInfo = developersInfo[msg.sender];\n        require(\n            devInfo.registered == true,\n            \"DeveloperVault: developer is not registered\"\n        );\n        uint256 currentBlockRewardNumber =\n            startRewardBlock + devInfo.claimsNumber * rewardPeriod;\n        return currentBlockRewardNumber;\n    }\n}\n",
  "sourcePath": "/Users/zena/ico2.0/ico20-contracts/contracts/dev/DeveloperVault.sol",
  "compiler": {
    "name": "solc",
    "version": "0.7.6+commit.7338295f.Emscripten.clang"
  },
  "schemaVersion": "3.3.4",
  "updatedAt": "2021-06-15T09:38:41.437Z",
  "devdoc": {
    "kind": "dev",
    "methods": {
      "claimReward()": {
        "details": "Developers can receive their TOSs"
      },
      "constructor": {
        "details": "constructor of DeveloperVault",
        "params": {
          "admin": "the admin address"
        }
      },
      "currentRewardBlock()": {
        "details": "Returns current reward block for sender"
      },
      "getRoleAdmin(bytes32)": {
        "details": "Returns the admin role that controls `role`. See {grantRole} and {revokeRole}. To change a role's admin, use {_setRoleAdmin}."
      },
      "getRoleMember(bytes32,uint256)": {
        "details": "Returns one of the accounts that have `role`. `index` must be a value between 0 and {getRoleMemberCount}, non-inclusive. Role bearers are not sorted in any particular way, and their ordering may change at any point. WARNING: When using {getRoleMember} and {getRoleMemberCount}, make sure you perform all queries on the same block. See the following https://forum.openzeppelin.com/t/iterating-over-elements-on-enumerableset-in-openzeppelin-contracts/2296[forum post] for more information."
      },
      "getRoleMemberCount(bytes32)": {
        "details": "Returns the number of accounts that have `role`. Can be used together with {getRoleMember} to enumerate all bearers of a role."
      },
      "grantRole(bytes32,address)": {
        "details": "Grants `role` to `account`. If `account` had not been already granted `role`, emits a {RoleGranted} event. Requirements: - the caller must have ``role``'s admin role."
      },
      "hasRole(bytes32,address)": {
        "details": "Returns `true` if `account` has been granted `role`."
      },
      "initialize(address,uint256,uint256,uint256,uint256,address[],uint256[])": {
        "details": "set initial storage",
        "params": {
          "_cap": "the allocated TOS amount to devs",
          "_claimAmounts": "How much do you pay at one time?",
          "_claimsNumberMax": "Total number of payments",
          "_developers": "the developer list",
          "_rewardPeriod": "given only once per _rewardPeriod.",
          "_startRewardBlock": "the start block to give .",
          "_tos": "the TOS address"
        }
      },
      "renounceRole(bytes32,address)": {
        "details": "Revokes `role` from the calling account. Roles are often managed via {grantRole} and {revokeRole}: this function's purpose is to provide a mechanism for accounts to lose their privileges if they are compromised (such as when a trusted device is misplaced). If the calling account had been granted `role`, emits a {RoleRevoked} event. Requirements: - the caller must be `account`."
      },
      "revokeRole(bytes32,address)": {
        "details": "Revokes `role` from `account`. If `account` had been granted `role`, emits a {RoleRevoked} event. Requirements: - the caller must have ``role``'s admin role."
      }
    },
    "title": "DeveloperVault",
    "version": 1
  },
  "userdoc": {
    "kind": "user",
    "methods": {},
    "version": 1
  }
}