{
  "contractName": "ERC20OnApprove",
  "abi": [
    {
      "anonymous": false,
      "inputs": [
        {
          "indexed": true,
          "internalType": "address",
          "name": "owner",
          "type": "address"
        },
        {
          "indexed": true,
          "internalType": "address",
          "name": "spender",
          "type": "address"
        },
        {
          "indexed": false,
          "internalType": "uint256",
          "name": "value",
          "type": "uint256"
        }
      ],
      "name": "Approval",
      "type": "event"
    },
    {
      "anonymous": false,
      "inputs": [
        {
          "indexed": true,
          "internalType": "address",
          "name": "from",
          "type": "address"
        },
        {
          "indexed": true,
          "internalType": "address",
          "name": "to",
          "type": "address"
        },
        {
          "indexed": false,
          "internalType": "uint256",
          "name": "value",
          "type": "uint256"
        }
      ],
      "name": "Transfer",
      "type": "event"
    },
    {
      "constant": true,
      "inputs": [
        {
          "internalType": "address",
          "name": "owner",
          "type": "address"
        },
        {
          "internalType": "address",
          "name": "spender",
          "type": "address"
        }
      ],
      "name": "allowance",
      "outputs": [
        {
          "internalType": "uint256",
          "name": "",
          "type": "uint256"
        }
      ],
      "payable": false,
      "stateMutability": "view",
      "type": "function"
    },
    {
      "constant": false,
      "inputs": [
        {
          "internalType": "address",
          "name": "spender",
          "type": "address"
        },
        {
          "internalType": "uint256",
          "name": "amount",
          "type": "uint256"
        }
      ],
      "name": "approve",
      "outputs": [
        {
          "internalType": "bool",
          "name": "",
          "type": "bool"
        }
      ],
      "payable": false,
      "stateMutability": "nonpayable",
      "type": "function"
    },
    {
      "constant": true,
      "inputs": [
        {
          "internalType": "address",
          "name": "account",
          "type": "address"
        }
      ],
      "name": "balanceOf",
      "outputs": [
        {
          "internalType": "uint256",
          "name": "",
          "type": "uint256"
        }
      ],
      "payable": false,
      "stateMutability": "view",
      "type": "function"
    },
    {
      "constant": false,
      "inputs": [
        {
          "internalType": "address",
          "name": "spender",
          "type": "address"
        },
        {
          "internalType": "uint256",
          "name": "subtractedValue",
          "type": "uint256"
        }
      ],
      "name": "decreaseAllowance",
      "outputs": [
        {
          "internalType": "bool",
          "name": "",
          "type": "bool"
        }
      ],
      "payable": false,
      "stateMutability": "nonpayable",
      "type": "function"
    },
    {
      "constant": false,
      "inputs": [
        {
          "internalType": "address",
          "name": "spender",
          "type": "address"
        },
        {
          "internalType": "uint256",
          "name": "addedValue",
          "type": "uint256"
        }
      ],
      "name": "increaseAllowance",
      "outputs": [
        {
          "internalType": "bool",
          "name": "",
          "type": "bool"
        }
      ],
      "payable": false,
      "stateMutability": "nonpayable",
      "type": "function"
    },
    {
      "constant": true,
      "inputs": [],
      "name": "totalSupply",
      "outputs": [
        {
          "internalType": "uint256",
          "name": "",
          "type": "uint256"
        }
      ],
      "payable": false,
      "stateMutability": "view",
      "type": "function"
    },
    {
      "constant": false,
      "inputs": [
        {
          "internalType": "address",
          "name": "recipient",
          "type": "address"
        },
        {
          "internalType": "uint256",
          "name": "amount",
          "type": "uint256"
        }
      ],
      "name": "transfer",
      "outputs": [
        {
          "internalType": "bool",
          "name": "",
          "type": "bool"
        }
      ],
      "payable": false,
      "stateMutability": "nonpayable",
      "type": "function"
    },
    {
      "constant": false,
      "inputs": [
        {
          "internalType": "address",
          "name": "sender",
          "type": "address"
        },
        {
          "internalType": "address",
          "name": "recipient",
          "type": "address"
        },
        {
          "internalType": "uint256",
          "name": "amount",
          "type": "uint256"
        }
      ],
      "name": "transferFrom",
      "outputs": [
        {
          "internalType": "bool",
          "name": "",
          "type": "bool"
        }
      ],
      "payable": false,
      "stateMutability": "nonpayable",
      "type": "function"
    },
    {
      "constant": false,
      "inputs": [
        {
          "internalType": "address",
          "name": "spender",
          "type": "address"
        },
        {
          "internalType": "uint256",
          "name": "amount",
          "type": "uint256"
        },
        {
          "internalType": "bytes",
          "name": "data",
          "type": "bytes"
        }
      ],
      "name": "approveAndCall",
      "outputs": [
        {
          "internalType": "bool",
          "name": "",
          "type": "bool"
        }
      ],
      "payable": false,
      "stateMutability": "nonpayable",
      "type": "function"
    }
  ],
  "bytecode": "0x6080604052610d97806100136000396000f3fe608060405234801561001057600080fd5b50600436106100935760003560e01c806370a082311161006657806370a0823114610154578063a457c2d71461017a578063a9059cbb146101a6578063cae9ca51146101d2578063dd62ed3e1461028d57610093565b8063095ea7b31461009857806318160ddd146100d857806323b872dd146100f25780633950935114610128575b600080fd5b6100c4600480360360408110156100ae57600080fd5b506001600160a01b0381351690602001356102bb565b604080519115158252519081900360200190f35b6100e06102d8565b60408051918252519081900360200190f35b6100c46004803603606081101561010857600080fd5b506001600160a01b038135811691602081013590911690604001356102de565b6100c46004803603604081101561013e57600080fd5b506001600160a01b03813516906020013561036b565b6100e06004803603602081101561016a57600080fd5b50356001600160a01b03166103bf565b6100c46004803603604081101561019057600080fd5b506001600160a01b0381351690602001356103da565b6100c4600480360360408110156101bc57600080fd5b506001600160a01b038135169060200135610448565b6100c4600480360360608110156101e857600080fd5b6001600160a01b038235169160208101359181019060608101604082013564010000000081111561021857600080fd5b82018360208201111561022a57600080fd5b8035906020019184600183028401116401000000008311171561024c57600080fd5b91908080601f01602080910402602001604051908101604052809392919081815260200183838082843760009201919091525092955061045c945050505050565b6100e0600480360360408110156102a357600080fd5b506001600160a01b038135811691602001351661047d565b60006102cf6102c86104a8565b84846104ac565b50600192915050565b60025490565b60006102eb848484610598565b610361846102f76104a8565b61035c85604051806060016040528060288152602001610ca5602891396001600160a01b038a166000908152600160205260408120906103356104a8565b6001600160a01b03168152602081019190915260400160002054919063ffffffff6106f416565b6104ac565b5060019392505050565b60006102cf6103786104a8565b8461035c85600160006103896104a8565b6001600160a01b03908116825260208083019390935260409182016000908120918c16815292529020549063ffffffff61078b16565b6001600160a01b031660009081526020819052604090205490565b60006102cf6103e76104a8565b8461035c85604051806060016040528060258152602001610d3e60259139600160006104116104a8565b6001600160a01b03908116825260208083019390935260409182016000908120918d1681529252902054919063ffffffff6106f416565b60006102cf6104556104a8565b8484610598565b600061046884846102bb565b61047157600080fd5b610361338585856107ec565b6001600160a01b03918216600090815260016020908152604080832093909416825291909152205490565b3390565b6001600160a01b0383166104f15760405162461bcd60e51b8152600401808060200182810382526024815260200180610cf26024913960400191505060405180910390fd5b6001600160a01b0382166105365760405162461bcd60e51b8152600401808060200182810382526022815260200180610c2c6022913960400191505060405180910390fd5b6001600160a01b03808416600081815260016020908152604080832094871680845294825291829020859055815185815291517f8c5be1e5ebec7d5bd14f71427d1e84f3dd0314c0f7b2291e5b200ac8c7c3b9259281900390910190a3505050565b6001600160a01b0383166105dd5760405162461bcd60e51b8152600401808060200182810382526025815260200180610ccd6025913960400191505060405180910390fd5b6001600160a01b0382166106225760405162461bcd60e51b8152600401808060200182810382526023815260200180610c096023913960400191505060405180910390fd5b61066581604051806060016040528060268152602001610c7f602691396001600160a01b038616600090815260208190526040902054919063ffffffff6106f416565b6001600160a01b03808516600090815260208190526040808220939093559084168152205461069a908263ffffffff61078b16565b6001600160a01b038084166000818152602081815260409182902094909455805185815290519193928716927fddf252ad1be2c89b69c2b068fc378daa952ba7f163c4a11628f55a4df523b3ef92918290030190a3505050565b600081848411156107835760405162461bcd60e51b81526004018080602001828103825283818151815260200191508051906020019080838360005b83811015610748578181015183820152602001610730565b50505050905090810190601f1680156107755780820380516001836020036101000a031916815260200191505b509250505060405180910390fd5b505050900390565b6000828201838110156107e5576040805162461bcd60e51b815260206004820152601b60248201527f536166654d6174683a206164646974696f6e206f766572666c6f770000000000604482015290519081900360640190fd5b9392505050565b632139e50b60e11b6107fe8482610a5e565b6108395760405162461bcd60e51b8152600401808060200182810382526031815260200180610c4e6031913960400191505060405180910390fd5b60006060856001600160a01b0316838888888860405160240180856001600160a01b03166001600160a01b03168152602001846001600160a01b03166001600160a01b0316815260200183815260200180602001828103825283818151815260200191508051906020019080838360005b838110156108c25781810151838201526020016108aa565b50505050905090810190601f1680156108ef5780820380516001836020036101000a031916815260200191505b5060408051601f198184030181529181526020820180516001600160e01b03166001600160e01b0319909a16999099178952518151919890975087965094509250829150849050835b602083106109575780518252601f199092019160209182019101610938565b6001836020036101000a0380198251168184511680821785525050505050509050019150506000604051808303816000865af19150503d80600081146109b9576040519150601f19603f3d011682016040523d82523d6000602084013e6109be565b606091505b5091509150818190610a115760405162461bcd60e51b8152602060048201818152835160248401528351909283926044909101919085019080838360008315610748578181015183820152602001610730565b506020810151915081610a555760405162461bcd60e51b8152600401808060200182810382526028815260200180610d166028913960400191505060405180910390fd5b50505050505050565b6000610a6983610a7a565b80156107e557506107e58383610aae565b6000610a8d826301ffc9a760e01b610aae565b8015610aa85750610aa6826001600160e01b0319610aae565b155b92915050565b6000806000610abd8585610ad4565b91509150818015610acb5750805b95945050505050565b604080516001600160e01b0319831660248083019190915282518083039091018152604490910182526020810180516001600160e01b03166301ffc9a760e01b1781529151815160009384939284926060926001600160a01b038a169261753092879282918083835b60208310610b5c5780518252601f199092019160209182019101610b3d565b6001836020036101000a0380198251168184511680821785525050505050509050019150506000604051808303818686fa925050503d8060008114610bbd576040519150601f19603f3d011682016040523d82523d6000602084013e610bc2565b606091505b5091509150602081511015610be05760008094509450505050610c01565b81818060200190516020811015610bf657600080fd5b505190955093505050505b925092905056fe45524332303a207472616e7366657220746f20746865207a65726f206164647265737345524332303a20617070726f766520746f20746865207a65726f206164647265737345524332304f6e417070726f76653a207370656e64657220646f65736e277420737570706f7274206f6e417070726f766545524332303a207472616e7366657220616d6f756e7420657863656564732062616c616e636545524332303a207472616e7366657220616d6f756e74206578636565647320616c6c6f77616e636545524332303a207472616e736665722066726f6d20746865207a65726f206164647265737345524332303a20617070726f76652066726f6d20746865207a65726f206164647265737345524332304f6e417070726f76653a206661696c656420746f2063616c6c206f6e417070726f766545524332303a2064656372656173656420616c6c6f77616e63652062656c6f77207a65726fa265627a7a7231582022f5b7dc1c81d286efda6efe7fcb207b7e6069aaac86ce64f26e5d1e8a33eb2864736f6c634300050c0032",
  "source": "pragma solidity ^0.5.12;\n\nimport { ERC20 } from \"../../../node_modules/openzeppelin-solidity/contracts/token/ERC20/ERC20.sol\";\nimport { ERC165Checker } from \"../../../node_modules/openzeppelin-solidity/contracts/introspection/ERC165Checker.sol\";\n\nimport { OnApprove } from \"./OnApprove.sol\";\n\n\ncontract ERC20OnApprove is ERC20 {\n  function approveAndCall(address spender, uint256 amount, bytes memory data) public returns (bool) {\n    require(approve(spender, amount));\n    _callOnApprove(msg.sender, spender, amount, data);\n    return true;\n  }\n\n  function _callOnApprove(address owner, address spender, uint256 amount, bytes memory data) internal {\n    bytes4 onApproveSelector = OnApprove(spender).onApprove.selector;\n\n    require(ERC165Checker._supportsInterface(spender, onApproveSelector),\n      \"ERC20OnApprove: spender doesn't support onApprove\");\n\n    (bool ok, bytes memory res) = spender.call(\n      abi.encodeWithSelector(\n        onApproveSelector,\n        owner,\n        spender,\n        amount,\n        data\n      )\n    );\n\n    // check if low-level call reverted or not\n    require(ok, string(res));\n\n    assembly {\n      ok := mload(add(res, 0x20))\n    }\n\n    // check if OnApprove.onApprove returns true or false\n    require(ok, \"ERC20OnApprove: failed to call onApprove\");\n  }\n\n}",
  "sourcePath": "/Users/kadyrbeknarmamatov/code/plasma-evm-contracts/contracts/stake/tokens/ERC20OnApprove.sol",
  "compiler": {
    "name": "solc",
    "version": "0.5.12+commit.7709ece9.Emscripten.clang"
  },
  "schemaVersion": "3.4.0",
  "updatedAt": "2021-05-04T08:39:28.643Z",
  "devdoc": {
    "methods": {
      "allowance(address,address)": {
        "details": "See {IERC20-allowance}."
      },
      "approve(address,uint256)": {
        "details": "See {IERC20-approve}.     * Requirements:     * - `spender` cannot be the zero address."
      },
      "balanceOf(address)": {
        "details": "See {IERC20-balanceOf}."
      },
      "decreaseAllowance(address,uint256)": {
        "details": "Atomically decreases the allowance granted to `spender` by the caller.     * This is an alternative to {approve} that can be used as a mitigation for problems described in {IERC20-approve}.     * Emits an {Approval} event indicating the updated allowance.     * Requirements:     * - `spender` cannot be the zero address. - `spender` must have allowance for the caller of at least `subtractedValue`."
      },
      "increaseAllowance(address,uint256)": {
        "details": "Atomically increases the allowance granted to `spender` by the caller.     * This is an alternative to {approve} that can be used as a mitigation for problems described in {IERC20-approve}.     * Emits an {Approval} event indicating the updated allowance.     * Requirements:     * - `spender` cannot be the zero address."
      },
      "totalSupply()": {
        "details": "See {IERC20-totalSupply}."
      },
      "transfer(address,uint256)": {
        "details": "See {IERC20-transfer}.     * Requirements:     * - `recipient` cannot be the zero address. - the caller must have a balance of at least `amount`."
      },
      "transferFrom(address,address,uint256)": {
        "details": "See {IERC20-transferFrom}.     * Emits an {Approval} event indicating the updated allowance. This is not required by the EIP. See the note at the beginning of {ERC20};     * Requirements: - `sender` and `recipient` cannot be the zero address. - `sender` must have a balance of at least `amount`. - the caller must have allowance for `sender`'s tokens of at least `amount`."
      }
    }
  },
  "userdoc": {
    "methods": {}
  }
}