{
  "contractName": "ExchangeGovernToken",
  "abi": [
    {
      "anonymous": false,
      "inputs": [
        {
          "indexed": true,
          "internalType": "address",
          "name": "from",
          "type": "address"
        },
        {
          "indexed": false,
          "internalType": "uint256",
          "name": "amount",
          "type": "uint256"
        },
        {
          "indexed": false,
          "internalType": "uint256",
          "name": "deadline",
          "type": "uint256"
        },
        {
          "indexed": false,
          "internalType": "uint8",
          "name": "v",
          "type": "uint8"
        },
        {
          "indexed": false,
          "internalType": "bytes32",
          "name": "r",
          "type": "bytes32"
        },
        {
          "indexed": false,
          "internalType": "bytes32",
          "name": "s",
          "type": "bytes32"
        }
      ],
      "name": "MintedSFLD",
      "type": "event"
    },
    {
      "anonymous": false,
      "inputs": [
        {
          "indexed": true,
          "internalType": "bytes32",
          "name": "role",
          "type": "bytes32"
        },
        {
          "indexed": true,
          "internalType": "bytes32",
          "name": "previousAdminRole",
          "type": "bytes32"
        },
        {
          "indexed": true,
          "internalType": "bytes32",
          "name": "newAdminRole",
          "type": "bytes32"
        }
      ],
      "name": "RoleAdminChanged",
      "type": "event"
    },
    {
      "anonymous": false,
      "inputs": [
        {
          "indexed": true,
          "internalType": "bytes32",
          "name": "role",
          "type": "bytes32"
        },
        {
          "indexed": true,
          "internalType": "address",
          "name": "account",
          "type": "address"
        },
        {
          "indexed": true,
          "internalType": "address",
          "name": "sender",
          "type": "address"
        }
      ],
      "name": "RoleGranted",
      "type": "event"
    },
    {
      "anonymous": false,
      "inputs": [
        {
          "indexed": true,
          "internalType": "bytes32",
          "name": "role",
          "type": "bytes32"
        },
        {
          "indexed": true,
          "internalType": "address",
          "name": "account",
          "type": "address"
        },
        {
          "indexed": true,
          "internalType": "address",
          "name": "sender",
          "type": "address"
        }
      ],
      "name": "RoleRevoked",
      "type": "event"
    },
    {
      "inputs": [],
      "name": "ADMIN_ROLE",
      "outputs": [
        {
          "internalType": "bytes32",
          "name": "",
          "type": "bytes32"
        }
      ],
      "stateMutability": "view",
      "type": "function"
    },
    {
      "inputs": [],
      "name": "DEFAULT_ADMIN_ROLE",
      "outputs": [
        {
          "internalType": "bytes32",
          "name": "",
          "type": "bytes32"
        }
      ],
      "stateMutability": "view",
      "type": "function"
    },
    {
      "inputs": [],
      "name": "exchangeWeight",
      "outputs": [
        {
          "internalType": "uint256",
          "name": "",
          "type": "uint256"
        }
      ],
      "stateMutability": "view",
      "type": "function"
    },
    {
      "inputs": [],
      "name": "fld",
      "outputs": [
        {
          "internalType": "contract IFLD",
          "name": "",
          "type": "address"
        }
      ],
      "stateMutability": "view",
      "type": "function"
    },
    {
      "inputs": [
        {
          "internalType": "bytes32",
          "name": "role",
          "type": "bytes32"
        }
      ],
      "name": "getRoleAdmin",
      "outputs": [
        {
          "internalType": "bytes32",
          "name": "",
          "type": "bytes32"
        }
      ],
      "stateMutability": "view",
      "type": "function"
    },
    {
      "inputs": [
        {
          "internalType": "bytes32",
          "name": "role",
          "type": "bytes32"
        },
        {
          "internalType": "uint256",
          "name": "index",
          "type": "uint256"
        }
      ],
      "name": "getRoleMember",
      "outputs": [
        {
          "internalType": "address",
          "name": "",
          "type": "address"
        }
      ],
      "stateMutability": "view",
      "type": "function"
    },
    {
      "inputs": [
        {
          "internalType": "bytes32",
          "name": "role",
          "type": "bytes32"
        }
      ],
      "name": "getRoleMemberCount",
      "outputs": [
        {
          "internalType": "uint256",
          "name": "",
          "type": "uint256"
        }
      ],
      "stateMutability": "view",
      "type": "function"
    },
    {
      "inputs": [
        {
          "internalType": "bytes32",
          "name": "role",
          "type": "bytes32"
        },
        {
          "internalType": "address",
          "name": "account",
          "type": "address"
        }
      ],
      "name": "grantRole",
      "outputs": [],
      "stateMutability": "nonpayable",
      "type": "function"
    },
    {
      "inputs": [
        {
          "internalType": "bytes32",
          "name": "role",
          "type": "bytes32"
        },
        {
          "internalType": "address",
          "name": "account",
          "type": "address"
        }
      ],
      "name": "hasRole",
      "outputs": [
        {
          "internalType": "bool",
          "name": "",
          "type": "bool"
        }
      ],
      "stateMutability": "view",
      "type": "function"
    },
    {
      "inputs": [
        {
          "internalType": "bytes32",
          "name": "role",
          "type": "bytes32"
        },
        {
          "internalType": "address",
          "name": "account",
          "type": "address"
        }
      ],
      "name": "renounceRole",
      "outputs": [],
      "stateMutability": "nonpayable",
      "type": "function"
    },
    {
      "inputs": [
        {
          "internalType": "bytes32",
          "name": "role",
          "type": "bytes32"
        },
        {
          "internalType": "address",
          "name": "account",
          "type": "address"
        }
      ],
      "name": "revokeRole",
      "outputs": [],
      "stateMutability": "nonpayable",
      "type": "function"
    },
    {
      "inputs": [],
      "name": "sfld",
      "outputs": [
        {
          "internalType": "contract ISFLD",
          "name": "",
          "type": "address"
        }
      ],
      "stateMutability": "view",
      "type": "function"
    },
    {
      "inputs": [
        {
          "internalType": "address",
          "name": "_fld",
          "type": "address"
        },
        {
          "internalType": "address",
          "name": "_sfld",
          "type": "address"
        }
      ],
      "name": "initialize",
      "outputs": [],
      "stateMutability": "nonpayable",
      "type": "function"
    },
    {
      "inputs": [
        {
          "internalType": "uint256",
          "name": "_weight",
          "type": "uint256"
        }
      ],
      "name": "setExchangeWeight",
      "outputs": [],
      "stateMutability": "nonpayable",
      "type": "function"
    },
    {
      "inputs": [
        {
          "internalType": "uint256",
          "name": "_amountFLD",
          "type": "uint256"
        },
        {
          "internalType": "uint256",
          "name": "deadline",
          "type": "uint256"
        },
        {
          "internalType": "bytes",
          "name": "signature",
          "type": "bytes"
        }
      ],
      "name": "mintSFLD",
      "outputs": [],
      "stateMutability": "nonpayable",
      "type": "function"
    },
    {
      "inputs": [
        {
          "internalType": "uint256",
          "name": "_amountSFLD",
          "type": "uint256"
        }
      ],
      "name": "burnSFLD",
      "outputs": [],
      "stateMutability": "nonpayable",
      "type": "function"
    }
  ],
  "bytecode": "0x608060405234801561001057600080fd5b50611109806100206000396000f3fe608060405234801561001057600080fd5b50600436106101005760003560e01c80638eeb203e11610097578063a217fddf11610066578063a217fddf1461032a578063ca15c87314610332578063d16b82481461034f578063d547741f1461036c57610100565b80638eeb203e146102b75780639010d07c146102bf57806391d14854146102e25780639c959c691461032257610100565b806336568abe116100d357806336568abe146101a3578063485cc955146101cf57806373810711146101fd57806375b238fc146102af57610100565b8063224534c514610105578063248a9ca3146101245780632f2ff15d1461015357806333bd2a491461017f575b600080fd5b6101226004803603602081101561011b57600080fd5b5035610398565b005b6101416004803603602081101561013a57600080fd5b50356105f2565b60408051918252519081900360200190f35b6101226004803603604081101561016957600080fd5b50803590602001356001600160a01b0316610607565b610187610673565b604080516001600160a01b039092168252519081900360200190f35b610122600480360360408110156101b957600080fd5b50803590602001356001600160a01b0316610688565b610122600480360360408110156101e557600080fd5b506001600160a01b03813581169160200135166106e9565b6101226004803603606081101561021357600080fd5b81359160208101359181019060608101604082013564010000000081111561023a57600080fd5b82018360208201111561024c57600080fd5b8035906020019184600183028401116401000000008311171561026e57600080fd5b91908080601f016020809104026020016040519081016040528093929190818152602001838380828437600092019190915250929550610822945050505050565b610141610b36565b610141610b5a565b610187600480360360408110156102d557600080fd5b5080359060200135610b60565b61030e600480360360408110156102f857600080fd5b50803590602001356001600160a01b0316610b81565b604080519115158252519081900360200190f35b610187610b99565b610141610ba8565b6101416004803603602081101561034857600080fd5b5035610bad565b6101226004803603602081101561036557600080fd5b5035610bc4565b6101226004803603604081101561038257600080fd5b50803590602001356001600160a01b0316610c3b565b33158015906103a75750600081115b80156103b557506000600354115b6103be57600080fd5b600254604080516370a0823160e01b8152336004820152905183926001600160a01b0316916370a08231916024808301926020929190829003018186803b15801561040857600080fd5b505afa15801561041c573d6000803e3d6000fd5b505050506040513d602081101561043257600080fd5b5051101561043f57600080fd5b6000600354828161044c57fe5b04905080600160029054906101000a90046001600160a01b03166001600160a01b03166370a08231306040518263ffffffff1660e01b815260040180826001600160a01b0316815260200191505060206040518083038186803b1580156104b257600080fd5b505afa1580156104c6573d6000803e3d6000fd5b505050506040513d60208110156104dc57600080fd5b505110156104e957600080fd5b60025460408051632770a7eb60e21b81523360048201526024810185905290516001600160a01b0390921691639dc29fac916044808201926020929091908290030181600087803b15801561053d57600080fd5b505af1158015610551573d6000803e3d6000fd5b505050506040513d602081101561056757600080fd5b50506001546040805163a9059cbb60e01b8152336004820152602481018490529051620100009092046001600160a01b03169163a9059cbb916044808201926020929091908290030181600087803b1580156105c257600080fd5b505af11580156105d6573d6000803e3d6000fd5b505050506040513d60208110156105ec57600080fd5b50505050565b60009081526020819052604090206002015490565b60008281526020819052604090206002015461062a90610625610c94565b610b81565b6106655760405162461bcd60e51b815260040180806020018281038252602f815260200180610fb5602f913960400191505060405180910390fd5b61066f8282610c98565b5050565b6001546201000090046001600160a01b031681565b610690610c94565b6001600160a01b0316816001600160a01b0316146106df5760405162461bcd60e51b815260040180806020018281038252602f81526020018061107a602f913960400191505060405180910390fd5b61066f8282610d01565b600154610100900460ff16806107025750610702610d6a565b80610710575060015460ff16155b61074b5760405162461bcd60e51b815260040180806020018281038252602e815260200180611014602e913960400191505060405180910390fd5b600154610100900460ff16158015610775576001805460ff1961ff00199091166101001716811790555b6001600160a01b0383161580159061079557506001600160a01b03821615155b61079e57600080fd5b6001805462010000600160b01b031916620100006001600160a01b0386811691909102919091178255600280546001600160a01b03191691851691909117905560035561080b7fdf8b4c520ffe197c5343c6f5aec59570151ef9a492f2c624fd45ddde6135ec4233610665565b801561081d576001805461ff00191690555b505050565b33158015906108315750600083115b801561083f57506000600354115b61087a5760405162461bcd60e51b81526004018080602001828103825260388152602001806110426038913960400191505060405180910390fd5b600154604080516370a0823160e01b8152336004820152905185926201000090046001600160a01b0316916370a08231916024808301926020929190829003018186803b1580156108ca57600080fd5b505afa1580156108de573d6000803e3d6000fd5b505050506040513d60208110156108f457600080fd5b505110156109335760405162461bcd60e51b815260040180806020018281038252602b815260200180610f68602b913960400191505060405180910390fd5b600154604051639fd5a6cf60e01b815233600482018181523060248401819052604484018890526064840187905260a060848501908152865160a48601528651620100009096046001600160a01b031695639fd5a6cf9592938a938a938a93909160c40190602085019080838360005b838110156109bb5781810151838201526020016109a3565b50505050905090810190601f1680156109e85780820380516001836020036101000a031916815260200191505b509650505050505050600060405180830381600087803b158015610a0b57600080fd5b505af1158015610a1f573d6000803e3d6000fd5b5050600154604080516323b872dd60e01b8152336004820152306024820152604481018890529051620100009092046001600160a01b031693506323b872dd92506064808201926020929091908290030181600087803b158015610a8257600080fd5b505af1158015610a96573d6000803e3d6000fd5b505050506040513d6020811015610aac57600080fd5b5050600254600354604080516340c10f1960e01b81523360048201529186026024830152516001600160a01b03909216916340c10f19916044808201926020929091908290030181600087803b158015610b0557600080fd5b505af1158015610b19573d6000803e3d6000fd5b505050506040513d6020811015610b2f57600080fd5b5050505050565b7fdf8b4c520ffe197c5343c6f5aec59570151ef9a492f2c624fd45ddde6135ec4281565b60035481565b6000828152602081905260408120610b789083610d7b565b90505b92915050565b6000828152602081905260408120610b789083610d87565b6002546001600160a01b031681565b600081565b6000818152602081905260408120610b7b90610d9c565b610bee7fdf8b4c520ffe197c5343c6f5aec59570151ef9a492f2c624fd45ddde6135ec4233610b81565b610c295760405162461bcd60e51b815260040180806020018281038252602b8152602001806110a9602b913960400191505060405180910390fd5b60008111610c3657600080fd5b600355565b600082815260208190526040902060020154610c5990610625610c94565b6106df5760405162461bcd60e51b8152600401808060200182810382526030815260200180610fe46030913960400191505060405180910390fd5b3390565b6000828152602081905260409020610cb09082610da7565b1561066f57610cbd610c94565b6001600160a01b0316816001600160a01b0316837f2f8788117e7eff1d82e926ec794901d17c78024a50270940304540a733656f0d60405160405180910390a45050565b6000828152602081905260409020610d199082610dbc565b1561066f57610d26610c94565b6001600160a01b0316816001600160a01b0316837ff6391f5c32d9c69d2a47ea670b442974b53935d1edc7fd64eb21e047a839171b60405160405180910390a45050565b6000610d7530610dd1565b15905090565b6000610b788383610dd7565b6000610b78836001600160a01b038416610e3b565b6000610b7b82610e53565b6000610b78836001600160a01b038416610e57565b6000610b78836001600160a01b038416610ea1565b3b151590565b81546000908210610e195760405162461bcd60e51b8152600401808060200182810382526022815260200180610f936022913960400191505060405180910390fd5b826000018281548110610e2857fe5b9060005260206000200154905092915050565b60009081526001919091016020526040902054151590565b5490565b6000610e638383610e3b565b610e9957508154600181810184556000848152602080822090930184905584548482528286019093526040902091909155610b7b565b506000610b7b565b60008181526001830160205260408120548015610f5d5783546000198083019190810190600090879083908110610ed457fe5b9060005260206000200154905080876000018481548110610ef157fe5b600091825260208083209091019290925582815260018981019092526040902090840190558654879080610f2157fe5b60019003818190600052602060002001600090559055866001016000878152602001908152602001600020600090556001945050505050610b7b565b6000915050610b7b56fe45786368616e6765476f7665726e546f6b656e3a20464c442e62616c616e63654f66206973206c61636b2e456e756d657261626c655365743a20696e646578206f7574206f6620626f756e6473416363657373436f6e74726f6c3a2073656e646572206d75737420626520616e2061646d696e20746f206772616e74416363657373436f6e74726f6c3a2073656e646572206d75737420626520616e2061646d696e20746f207265766f6b65496e697469616c697a61626c653a20636f6e747261637420697320616c726561647920696e697469616c697a656445786368616e6765476f7665726e546f6b656e3a20636865636b205f616d6f756e74464c44206f722065786368616e676557656967687420416363657373436f6e74726f6c3a2063616e206f6e6c792072656e6f756e636520726f6c657320666f722073656c6645786368616e6765476f7665726e546f6b656e3a2043616c6c6572206973206e6f7420616e2061646d696ea2646970667358221220ab75f45d3747bb2d3797b977fe7ed1ff9bb4891db187f9b33a94bffc2994e3c664736f6c63430007060033",
  "immutableReferences": {},
  "source": "//SPDX-License-Identifier: Unlicense\npragma solidity ^0.7.0;\n\nimport \"../interfaces/IFLD.sol\";\nimport \"../interfaces/ISFLD.sol\";\nimport \"../interfaces/IERC20.sol\";\nimport \"@openzeppelin/contracts/access/AccessControl.sol\";\nimport \"@openzeppelin/contracts-upgradeable/proxy/Initializable.sol\";\n\ncontract ExchangeGovernToken\n    is\n    AccessControl,\n    Initializable\n{\n    bytes32 public constant ADMIN_ROLE = keccak256(\"ADMIN\");\n\n    IFLD public fld;\n    ISFLD public sfld;\n    uint256 public exchangeWeight;\n\n    modifier onlyOwner() {\n        require(hasRole(ADMIN_ROLE, msg.sender), \"ExchangeGovernToken: Caller is not an admin\");\n        _;\n    }\n    //////////////////////////////\n    // Events\n    //////////////////////////////\n\n    event MintedSFLD(address indexed from, uint256 amount, uint256 deadline , uint8 v , bytes32 r, bytes32 s);\n\n    function initialize(\n        address _fld,\n        address _sfld\n    )\n        external\n        initializer\n    {\n        require(_fld != address(0) && _sfld != address(0));\n\n        fld = IFLD(_fld);\n        sfld = ISFLD(_sfld);\n        exchangeWeight = 1;\n\n        _setupRole(ADMIN_ROLE, msg.sender);\n    }\n\n    /**\n    * external\n    */\n    function setExchangeWeight(\n        uint256 _weight\n    )\n        external\n        onlyOwner\n    {\n        require(_weight > 0);\n        exchangeWeight = _weight;\n    }\n\n    function mintSFLD(\n        uint256 _amountFLD,\n        uint256 deadline,\n        bytes memory signature\n    )\n        external\n    {\n\n        require(msg.sender != address(0) && _amountFLD > 0 && exchangeWeight > 0,\n            \"ExchangeGovernToken: check _amountFLD or exchangeWeight \");\n        require(fld.balanceOf(msg.sender) >= _amountFLD, \"ExchangeGovernToken: FLD.balanceOf is lack.\");\n\n        fld.permit(msg.sender, address(this), _amountFLD, deadline, signature);\n        fld.transferFrom(msg.sender, address(this), _amountFLD);\n        sfld.mint(msg.sender, _amountFLD * exchangeWeight);\n    }\n\n    function burnSFLD(\n        uint256 _amountSFLD\n\n    )\n        external\n    {\n        require(msg.sender != address(0) && _amountSFLD > 0 && exchangeWeight > 0);\n        require(sfld.balanceOf(msg.sender) >= _amountSFLD);\n\n        uint256 amountFLD = _amountSFLD / exchangeWeight;\n        require(fld.balanceOf(address(this)) >= amountFLD);\n\n        sfld.burn(msg.sender, _amountSFLD);\n        fld.transfer(msg.sender, amountFLD);\n    }\n\n    /**\n    * public\n    */\n\n    /**\n    * internal\n    */\n\n    /**\n    * private\n    */\n\n}\n",
  "sourcePath": "/Users/kadyrbeknarmamatov/code/ico20-contracts/contracts/tokens/ExchangeGovernToken.sol",
  "compiler": {
    "name": "solc",
    "version": "0.7.6+commit.7338295f.Emscripten.clang"
  },
  "schemaVersion": "3.4.0",
  "updatedAt": "2021-05-04T09:27:35.956Z",
  "devdoc": {
    "kind": "dev",
    "methods": {
      "getRoleAdmin(bytes32)": {
        "details": "Returns the admin role that controls `role`. See {grantRole} and {revokeRole}. To change a role's admin, use {_setRoleAdmin}."
      },
      "getRoleMember(bytes32,uint256)": {
        "details": "Returns one of the accounts that have `role`. `index` must be a value between 0 and {getRoleMemberCount}, non-inclusive. Role bearers are not sorted in any particular way, and their ordering may change at any point. WARNING: When using {getRoleMember} and {getRoleMemberCount}, make sure you perform all queries on the same block. See the following https://forum.openzeppelin.com/t/iterating-over-elements-on-enumerableset-in-openzeppelin-contracts/2296[forum post] for more information."
      },
      "getRoleMemberCount(bytes32)": {
        "details": "Returns the number of accounts that have `role`. Can be used together with {getRoleMember} to enumerate all bearers of a role."
      },
      "grantRole(bytes32,address)": {
        "details": "Grants `role` to `account`. If `account` had not been already granted `role`, emits a {RoleGranted} event. Requirements: - the caller must have ``role``'s admin role."
      },
      "hasRole(bytes32,address)": {
        "details": "Returns `true` if `account` has been granted `role`."
      },
      "renounceRole(bytes32,address)": {
        "details": "Revokes `role` from the calling account. Roles are often managed via {grantRole} and {revokeRole}: this function's purpose is to provide a mechanism for accounts to lose their privileges if they are compromised (such as when a trusted device is misplaced). If the calling account had been granted `role`, emits a {RoleRevoked} event. Requirements: - the caller must be `account`."
      },
      "revokeRole(bytes32,address)": {
        "details": "Revokes `role` from `account`. If `account` had been granted `role`, emits a {RoleRevoked} event. Requirements: - the caller must have ``role``'s admin role."
      }
    },
    "version": 1
  },
  "userdoc": {
    "kind": "user",
    "methods": {
      "setExchangeWeight(uint256)": {
        "notice": "external"
      }
    },
    "version": 1
  }
}