{
  "contractName": "FLD",
  "abi": [
    {
      "inputs": [],
      "stateMutability": "nonpayable",
      "type": "constructor"
    },
    {
      "anonymous": false,
      "inputs": [
        {
          "indexed": true,
          "internalType": "address",
          "name": "from",
          "type": "address"
        },
        {
          "indexed": true,
          "internalType": "address",
          "name": "to",
          "type": "address"
        },
        {
          "indexed": false,
          "internalType": "uint256",
          "name": "value",
          "type": "uint256"
        }
      ],
      "name": "Approval",
      "type": "event"
    },
    {
      "anonymous": false,
      "inputs": [
        {
          "indexed": true,
          "internalType": "bytes32",
          "name": "role",
          "type": "bytes32"
        },
        {
          "indexed": true,
          "internalType": "bytes32",
          "name": "previousAdminRole",
          "type": "bytes32"
        },
        {
          "indexed": true,
          "internalType": "bytes32",
          "name": "newAdminRole",
          "type": "bytes32"
        }
      ],
      "name": "RoleAdminChanged",
      "type": "event"
    },
    {
      "anonymous": false,
      "inputs": [
        {
          "indexed": true,
          "internalType": "bytes32",
          "name": "role",
          "type": "bytes32"
        },
        {
          "indexed": true,
          "internalType": "address",
          "name": "account",
          "type": "address"
        },
        {
          "indexed": true,
          "internalType": "address",
          "name": "sender",
          "type": "address"
        }
      ],
      "name": "RoleGranted",
      "type": "event"
    },
    {
      "anonymous": false,
      "inputs": [
        {
          "indexed": true,
          "internalType": "bytes32",
          "name": "role",
          "type": "bytes32"
        },
        {
          "indexed": true,
          "internalType": "address",
          "name": "account",
          "type": "address"
        },
        {
          "indexed": true,
          "internalType": "address",
          "name": "sender",
          "type": "address"
        }
      ],
      "name": "RoleRevoked",
      "type": "event"
    },
    {
      "anonymous": false,
      "inputs": [
        {
          "indexed": true,
          "internalType": "address",
          "name": "from",
          "type": "address"
        },
        {
          "indexed": true,
          "internalType": "address",
          "name": "to",
          "type": "address"
        },
        {
          "indexed": false,
          "internalType": "uint256",
          "name": "value",
          "type": "uint256"
        }
      ],
      "name": "Transfer",
      "type": "event"
    },
    {
      "inputs": [],
      "name": "ADMIN_ROLE",
      "outputs": [
        {
          "internalType": "bytes32",
          "name": "",
          "type": "bytes32"
        }
      ],
      "stateMutability": "view",
      "type": "function"
    },
    {
      "inputs": [],
      "name": "BURNER_ROLE",
      "outputs": [
        {
          "internalType": "bytes32",
          "name": "",
          "type": "bytes32"
        }
      ],
      "stateMutability": "view",
      "type": "function"
    },
    {
      "inputs": [],
      "name": "DEFAULT_ADMIN_ROLE",
      "outputs": [
        {
          "internalType": "bytes32",
          "name": "",
          "type": "bytes32"
        }
      ],
      "stateMutability": "view",
      "type": "function"
    },
    {
      "inputs": [],
      "name": "DOMAIN_SEPARATOR",
      "outputs": [
        {
          "internalType": "bytes32",
          "name": "",
          "type": "bytes32"
        }
      ],
      "stateMutability": "view",
      "type": "function"
    },
    {
      "inputs": [],
      "name": "MINTER_ROLE",
      "outputs": [
        {
          "internalType": "bytes32",
          "name": "",
          "type": "bytes32"
        }
      ],
      "stateMutability": "view",
      "type": "function"
    },
    {
      "inputs": [],
      "name": "PERMIT_TYPEHASH",
      "outputs": [
        {
          "internalType": "bytes32",
          "name": "",
          "type": "bytes32"
        }
      ],
      "stateMutability": "view",
      "type": "function"
    },
    {
      "inputs": [
        {
          "internalType": "address",
          "name": "",
          "type": "address"
        },
        {
          "internalType": "address",
          "name": "",
          "type": "address"
        }
      ],
      "name": "allowance",
      "outputs": [
        {
          "internalType": "uint256",
          "name": "",
          "type": "uint256"
        }
      ],
      "stateMutability": "view",
      "type": "function"
    },
    {
      "inputs": [
        {
          "internalType": "address",
          "name": "",
          "type": "address"
        }
      ],
      "name": "balanceOf",
      "outputs": [
        {
          "internalType": "uint256",
          "name": "",
          "type": "uint256"
        }
      ],
      "stateMutability": "view",
      "type": "function"
    },
    {
      "inputs": [],
      "name": "decimals",
      "outputs": [
        {
          "internalType": "uint8",
          "name": "",
          "type": "uint8"
        }
      ],
      "stateMutability": "view",
      "type": "function"
    },
    {
      "inputs": [
        {
          "internalType": "bytes32",
          "name": "_messageHash",
          "type": "bytes32"
        }
      ],
      "name": "getEthSignedMessageHash",
      "outputs": [
        {
          "internalType": "bytes32",
          "name": "",
          "type": "bytes32"
        }
      ],
      "stateMutability": "pure",
      "type": "function"
    },
    {
      "inputs": [
        {
          "internalType": "address",
          "name": "_to",
          "type": "address"
        },
        {
          "internalType": "uint256",
          "name": "_amount",
          "type": "uint256"
        },
        {
          "internalType": "string",
          "name": "_message",
          "type": "string"
        },
        {
          "internalType": "uint256",
          "name": "_nonce",
          "type": "uint256"
        }
      ],
      "name": "getMessageHash",
      "outputs": [
        {
          "internalType": "bytes32",
          "name": "",
          "type": "bytes32"
        }
      ],
      "stateMutability": "pure",
      "type": "function"
    },
    {
      "inputs": [
        {
          "internalType": "address",
          "name": "_owner",
          "type": "address"
        },
        {
          "internalType": "address",
          "name": "_spender",
          "type": "address"
        },
        {
          "internalType": "uint256",
          "name": "_amount",
          "type": "uint256"
        },
        {
          "internalType": "uint256",
          "name": "_period",
          "type": "uint256"
        }
      ],
      "name": "getPermitMessageHash",
      "outputs": [
        {
          "internalType": "bytes32",
          "name": "",
          "type": "bytes32"
        }
      ],
      "stateMutability": "pure",
      "type": "function"
    },
    {
      "inputs": [
        {
          "internalType": "bytes32",
          "name": "role",
          "type": "bytes32"
        }
      ],
      "name": "getRoleAdmin",
      "outputs": [
        {
          "internalType": "bytes32",
          "name": "",
          "type": "bytes32"
        }
      ],
      "stateMutability": "view",
      "type": "function"
    },
    {
      "inputs": [
        {
          "internalType": "bytes32",
          "name": "role",
          "type": "bytes32"
        },
        {
          "internalType": "uint256",
          "name": "index",
          "type": "uint256"
        }
      ],
      "name": "getRoleMember",
      "outputs": [
        {
          "internalType": "address",
          "name": "",
          "type": "address"
        }
      ],
      "stateMutability": "view",
      "type": "function"
    },
    {
      "inputs": [
        {
          "internalType": "bytes32",
          "name": "role",
          "type": "bytes32"
        }
      ],
      "name": "getRoleMemberCount",
      "outputs": [
        {
          "internalType": "uint256",
          "name": "",
          "type": "uint256"
        }
      ],
      "stateMutability": "view",
      "type": "function"
    },
    {
      "inputs": [
        {
          "internalType": "bytes32",
          "name": "role",
          "type": "bytes32"
        },
        {
          "internalType": "address",
          "name": "account",
          "type": "address"
        }
      ],
      "name": "grantRole",
      "outputs": [],
      "stateMutability": "nonpayable",
      "type": "function"
    },
    {
      "inputs": [
        {
          "internalType": "bytes32",
          "name": "role",
          "type": "bytes32"
        },
        {
          "internalType": "address",
          "name": "account",
          "type": "address"
        }
      ],
      "name": "hasRole",
      "outputs": [
        {
          "internalType": "bool",
          "name": "",
          "type": "bool"
        }
      ],
      "stateMutability": "view",
      "type": "function"
    },
    {
      "inputs": [],
      "name": "name",
      "outputs": [
        {
          "internalType": "string",
          "name": "",
          "type": "string"
        }
      ],
      "stateMutability": "view",
      "type": "function"
    },
    {
      "inputs": [
        {
          "internalType": "address",
          "name": "",
          "type": "address"
        }
      ],
      "name": "nonces",
      "outputs": [
        {
          "internalType": "uint256",
          "name": "",
          "type": "uint256"
        }
      ],
      "stateMutability": "view",
      "type": "function"
    },
    {
      "inputs": [
        {
          "internalType": "bytes32",
          "name": "_ethSignedMessageHash",
          "type": "bytes32"
        },
        {
          "internalType": "bytes",
          "name": "_signature",
          "type": "bytes"
        }
      ],
      "name": "recoverSigner",
      "outputs": [
        {
          "internalType": "address",
          "name": "",
          "type": "address"
        }
      ],
      "stateMutability": "pure",
      "type": "function"
    },
    {
      "inputs": [
        {
          "internalType": "bytes32",
          "name": "_ethSignedMessageHash",
          "type": "bytes32"
        },
        {
          "internalType": "uint8",
          "name": "v",
          "type": "uint8"
        },
        {
          "internalType": "bytes32",
          "name": "r",
          "type": "bytes32"
        },
        {
          "internalType": "bytes32",
          "name": "s",
          "type": "bytes32"
        }
      ],
      "name": "recoverSigner2",
      "outputs": [
        {
          "internalType": "address",
          "name": "",
          "type": "address"
        }
      ],
      "stateMutability": "pure",
      "type": "function"
    },
    {
      "inputs": [
        {
          "internalType": "bytes32",
          "name": "role",
          "type": "bytes32"
        },
        {
          "internalType": "address",
          "name": "account",
          "type": "address"
        }
      ],
      "name": "renounceRole",
      "outputs": [],
      "stateMutability": "nonpayable",
      "type": "function"
    },
    {
      "inputs": [
        {
          "internalType": "bytes32",
          "name": "role",
          "type": "bytes32"
        },
        {
          "internalType": "address",
          "name": "account",
          "type": "address"
        }
      ],
      "name": "revokeRole",
      "outputs": [],
      "stateMutability": "nonpayable",
      "type": "function"
    },
    {
      "inputs": [
        {
          "internalType": "bytes",
          "name": "sig",
          "type": "bytes"
        }
      ],
      "name": "splitSignature",
      "outputs": [
        {
          "internalType": "bytes32",
          "name": "r",
          "type": "bytes32"
        },
        {
          "internalType": "bytes32",
          "name": "s",
          "type": "bytes32"
        },
        {
          "internalType": "uint8",
          "name": "v",
          "type": "uint8"
        }
      ],
      "stateMutability": "pure",
      "type": "function"
    },
    {
      "inputs": [],
      "name": "symbol",
      "outputs": [
        {
          "internalType": "string",
          "name": "",
          "type": "string"
        }
      ],
      "stateMutability": "view",
      "type": "function"
    },
    {
      "inputs": [],
      "name": "totalSupply",
      "outputs": [
        {
          "internalType": "uint256",
          "name": "",
          "type": "uint256"
        }
      ],
      "stateMutability": "view",
      "type": "function"
    },
    {
      "inputs": [
        {
          "internalType": "address",
          "name": "_signer",
          "type": "address"
        },
        {
          "internalType": "address",
          "name": "_to",
          "type": "address"
        },
        {
          "internalType": "uint256",
          "name": "_amount",
          "type": "uint256"
        },
        {
          "internalType": "string",
          "name": "_message",
          "type": "string"
        },
        {
          "internalType": "uint256",
          "name": "_nonce",
          "type": "uint256"
        },
        {
          "internalType": "bytes",
          "name": "signature",
          "type": "bytes"
        }
      ],
      "name": "verify",
      "outputs": [
        {
          "internalType": "bool",
          "name": "",
          "type": "bool"
        }
      ],
      "stateMutability": "pure",
      "type": "function"
    },
    {
      "inputs": [],
      "name": "getChainId",
      "outputs": [
        {
          "internalType": "uint256",
          "name": "",
          "type": "uint256"
        }
      ],
      "stateMutability": "pure",
      "type": "function"
    },
    {
      "inputs": [
        {
          "internalType": "address",
          "name": "to",
          "type": "address"
        },
        {
          "internalType": "uint256",
          "name": "amount",
          "type": "uint256"
        }
      ],
      "name": "mint",
      "outputs": [
        {
          "internalType": "bool",
          "name": "",
          "type": "bool"
        }
      ],
      "stateMutability": "nonpayable",
      "type": "function"
    },
    {
      "inputs": [
        {
          "internalType": "address",
          "name": "from",
          "type": "address"
        },
        {
          "internalType": "uint256",
          "name": "amount",
          "type": "uint256"
        }
      ],
      "name": "burn",
      "outputs": [
        {
          "internalType": "bool",
          "name": "",
          "type": "bool"
        }
      ],
      "stateMutability": "nonpayable",
      "type": "function"
    },
    {
      "inputs": [
        {
          "internalType": "address",
          "name": "spender",
          "type": "address"
        },
        {
          "internalType": "uint256",
          "name": "value",
          "type": "uint256"
        }
      ],
      "name": "approve",
      "outputs": [
        {
          "internalType": "bool",
          "name": "",
          "type": "bool"
        }
      ],
      "stateMutability": "nonpayable",
      "type": "function"
    },
    {
      "inputs": [
        {
          "internalType": "address",
          "name": "to",
          "type": "address"
        },
        {
          "internalType": "uint256",
          "name": "value",
          "type": "uint256"
        }
      ],
      "name": "transfer",
      "outputs": [
        {
          "internalType": "bool",
          "name": "",
          "type": "bool"
        }
      ],
      "stateMutability": "nonpayable",
      "type": "function"
    },
    {
      "inputs": [
        {
          "internalType": "address",
          "name": "from",
          "type": "address"
        },
        {
          "internalType": "address",
          "name": "to",
          "type": "address"
        },
        {
          "internalType": "uint256",
          "name": "value",
          "type": "uint256"
        }
      ],
      "name": "transferFrom",
      "outputs": [
        {
          "internalType": "bool",
          "name": "",
          "type": "bool"
        }
      ],
      "stateMutability": "nonpayable",
      "type": "function"
    },
    {
      "inputs": [
        {
          "internalType": "address",
          "name": "owner",
          "type": "address"
        },
        {
          "internalType": "address",
          "name": "spender",
          "type": "address"
        },
        {
          "internalType": "uint256",
          "name": "value",
          "type": "uint256"
        },
        {
          "internalType": "uint256",
          "name": "deadline",
          "type": "uint256"
        },
        {
          "internalType": "bytes",
          "name": "signature",
          "type": "bytes"
        }
      ],
      "name": "permit",
      "outputs": [],
      "stateMutability": "nonpayable",
      "type": "function"
    },
    {
      "inputs": [
        {
          "internalType": "address",
          "name": "_signer",
          "type": "address"
        },
        {
          "internalType": "address",
          "name": "_to",
          "type": "address"
        },
        {
          "internalType": "uint256",
          "name": "_amount",
          "type": "uint256"
        },
        {
          "internalType": "uint256",
          "name": "_period",
          "type": "uint256"
        },
        {
          "internalType": "bytes",
          "name": "signature",
          "type": "bytes"
        }
      ],
      "name": "permitVerify",
      "outputs": [
        {
          "internalType": "bool",
          "name": "",
          "type": "bool"
        }
      ],
      "stateMutability": "pure",
      "type": "function"
    }
  ],
  "bytecode": "0x60806040523480156200001157600080fd5b50604080518082018252600381526211931160ea1b6020918201528151808301835260018152603160f81b9082015281517f8b73c3c69bb8fe3d512ecc4cf759cc79239f7b179b0ffacaa9a75d522b39400f818301527f5dab4283c60efb96b46f07645428ed34ede4b51f6ea3a10522370db3703eaece818401527fc89efdaa54c0f20c7adf612882df0950f5a951637e0307cdcb4c672f298b8bc6606082015246608082018190523060a0808401919091528451808403909101815260c09092019093528051910120600455620000f960008051602062001c3783398151915233620001ac565b620001347f9667e80708b6eeeb0053fa0cca44e028ff548e2a9f029edfeac87c118b08b7c860008051602062001c37833981519152620001bc565b6200015e60008051602062001c1783398151915260008051602062001c37833981519152620001bc565b6200018a7f9667e80708b6eeeb0053fa0cca44e028ff548e2a9f029edfeac87c118b08b7c833620001ac565b620001a560008051602062001c1783398151915233620001ac565b5062000312565b620001b882826200020e565b5050565b600082815260208190526040808220600201549051839285917fbd79b86ffe0ab8e8776151514217cd7cacd52c909f66475c3af44e129f0b00ff9190a460009182526020829052604090912060020155565b60008281526020818152604090912062000233918390620013c262000287821b17901c565b15620001b85762000243620002a7565b6001600160a01b0316816001600160a01b0316837f2f8788117e7eff1d82e926ec794901d17c78024a50270940304540a733656f0d60405160405180910390a45050565b60006200029e836001600160a01b038416620002ab565b90505b92915050565b3390565b6000620002b98383620002fa565b620002f157508154600181810184556000848152602080822090930184905584548482528286019093526040902091909155620002a1565b506000620002a1565b60009081526001919091016020526040902054151590565b6118f580620003226000396000f3fe608060405234801561001057600080fd5b50600436106102115760003560e01c80639010d07c11610125578063a7bb5803116100ad578063ca15c8731161007c578063ca15c87314610a9f578063d539139314610abc578063d547741f14610ac4578063dd62ed3e14610af0578063fa54080114610b1e57610211565b8063a7bb58031461082b578063a9059cbb146108f0578063abe5026a1461091c578063bdb33d4814610a6d57610211565b80639dc29fac116100f45780639dc29fac146105aa5780639fd5a6cf146105d6578063a217fddf1461069f578063a35f8a40146106a7578063a387e3611461076257610211565b80639010d07c1461049457806391d14854146104d357806395d89b411461021657806397aba7f9146104ff57610211565b8063313ce567116101a857806340c10f191161017757806340c10f19146103d857806349195b311461040457806370a082311461044057806375b238fc146104665780637ecebe001461046e57610211565b8063313ce5671461037e5780633408e4701461039c5780633644e515146103a457806336568abe146103ac57610211565b8063248a9ca3116101e4578063248a9ca314610323578063282c51f3146103405780632f2ff15d1461034857806330adf81f1461037657610211565b806306fdde0314610216578063095ea7b31461029357806318160ddd146102d357806323b872dd146102ed575b600080fd5b61021e610b3b565b6040805160208082528351818301528351919283929083019185019080838360005b83811015610258578181015183820152602001610240565b50505050905090810190601f1680156102855780820380516001836020036101000a031916815260200191505b509250505060405180910390f35b6102bf600480360360408110156102a957600080fd5b506001600160a01b038135169060200135610b5a565b604080519115158252519081900360200190f35b6102db610b71565b60408051918252519081900360200190f35b6102bf6004803603606081101561030357600080fd5b506001600160a01b03813581169160208101359091169060400135610b77565b6102db6004803603602081101561033957600080fd5b5035610be3565b6102db610bf8565b6103746004803603604081101561035e57600080fd5b50803590602001356001600160a01b0316610c1c565b005b6102db610c88565b610386610cac565b6040805160ff9092168252519081900360200190f35b6102db610cb1565b6102db610cb5565b610374600480360360408110156103c257600080fd5b50803590602001356001600160a01b0316610cbb565b6102bf600480360360408110156103ee57600080fd5b506001600160a01b038135169060200135610d1c565b6102db6004803603608081101561041a57600080fd5b506001600160a01b03813581169160208101359091169060408101359060600135610da3565b6102db6004803603602081101561045657600080fd5b50356001600160a01b0316610e21565b6102db610e33565b6102db6004803603602081101561048457600080fd5b50356001600160a01b0316610e57565b6104b7600480360360408110156104aa57600080fd5b5080359060200135610e69565b604080516001600160a01b039092168252519081900360200190f35b6102bf600480360360408110156104e957600080fd5b50803590602001356001600160a01b0316610e88565b6104b76004803603604081101561051557600080fd5b81359190810190604081016020820135600160201b81111561053657600080fd5b82018360208201111561054857600080fd5b803590602001918460018302840111600160201b8311171561056957600080fd5b91908080601f016020809104026020016040519081016040528093929190818152602001838380828437600092019190915250929550610ea0945050505050565b6102bf600480360360408110156105c057600080fd5b506001600160a01b038135169060200135610f24565b610374600480360360a08110156105ec57600080fd5b6001600160a01b03823581169260208101359091169160408201359160608101359181019060a081016080820135600160201b81111561062b57600080fd5b82018360208201111561063d57600080fd5b803590602001918460018302840111600160201b8311171561065e57600080fd5b91908080601f016020809104026020016040519081016040528093929190818152602001838380828437600092019190915250929550610fab945050505050565b6102db6110a2565b6102db600480360360808110156106bd57600080fd5b6001600160a01b0382351691602081013591810190606081016040820135600160201b8111156106ec57600080fd5b8201836020820111156106fe57600080fd5b803590602001918460018302840111600160201b8311171561071f57600080fd5b91908080601f01602080910402602001604051908101604052809392919081815260200183838082843760009201919091525092955050913592506110a7915050565b6102bf600480360360a081101561077857600080fd5b6001600160a01b03823581169260208101359091169160408201359160608101359181019060a081016080820135600160201b8111156107b757600080fd5b8201836020820111156107c957600080fd5b803590602001918460018302840111600160201b831117156107ea57600080fd5b91908080601f01602080910402602001604051908101604052809392919081815260200183838082843760009201919091525092955061113a945050505050565b6108cf6004803603602081101561084157600080fd5b810190602081018135600160201b81111561085b57600080fd5b82018360208201111561086d57600080fd5b803590602001918460018302840111600160201b8311171561088e57600080fd5b91908080601f016020809104026020016040519081016040528093929190818152602001838380828437600092019190915250929550611181945050505050565b60408051938452602084019290925260ff1682820152519081900360600190f35b6102bf6004803603604081101561090657600080fd5b506001600160a01b0381351690602001356111fa565b6102bf600480360360c081101561093257600080fd5b6001600160a01b03823581169260208101359091169160408201359190810190608081016060820135600160201b81111561096c57600080fd5b82018360208201111561097e57600080fd5b803590602001918460018302840111600160201b8311171561099f57600080fd5b91908080601f01602080910402602001604051908101604052809392919081815260200183838082843760009201919091525092958435959094909350604081019250602001359050600160201b8111156109f957600080fd5b820183602082011115610a0b57600080fd5b803590602001918460018302840111600160201b83111715610a2c57600080fd5b91908080601f016020809104026020016040519081016040528093929190818152602001838380828437600092019190915250929550611207945050505050565b6104b760048036036080811015610a8357600080fd5b5080359060ff6020820135169060408101359060600135611250565b6102db60048036036020811015610ab557600080fd5b50356112c0565b6102db6112d7565b61037460048036036040811015610ada57600080fd5b50803590602001356001600160a01b03166112fb565b6102db60048036036040811015610b0657600080fd5b506001600160a01b0381358116916020013516611354565b6102db60048036036020811015610b3457600080fd5b5035611371565b6040518060400160405280600381526020016211931160ea1b81525081565b6000610b673384846113d7565b5060015b92915050565b60015481565b6001600160a01b038316600090815260036020908152604080832033845290915281205460001914610bce576001600160a01b03841660009081526003602090815260408083203384529091529020805483900390555b610bd9848484611439565b5060019392505050565b60009081526020819052604090206002015490565b7f9667e80708b6eeeb0053fa0cca44e028ff548e2a9f029edfeac87c118b08b7c881565b600082815260208190526040902060020154610c3f90610c3a6114a5565b610e88565b610c7a5760405162461bcd60e51b815260040180806020018281038252602f815260200180611832602f913960400191505060405180910390fd5b610c8482826114a9565b5050565b7f6e71edae12b1b97f4d1f60370fef10105fa2faae0126114a169c64845d6126c981565b601281565b4690565b60045481565b610cc36114a5565b6001600160a01b0316816001600160a01b031614610d125760405162461bcd60e51b815260040180806020018281038252602f815260200180611891602f913960400191505060405180910390fd5b610c848282611512565b6000610d487ff0887ba65ee2024ea881d91b74c2450ef19e1557f03bed3ea9f16b037cbe2dc933610e88565b610d99576040805162461bcd60e51b815260206004820152601b60248201527f464c443a2043616c6c6572206973206e6f742061206d696e7465720000000000604482015290519081900360640190fd5b610b67838361157b565b604080517f6e71edae12b1b97f4d1f60370fef10105fa2faae0126114a169c64845d6126c96020808301919091526bffffffffffffffffffffffff19606088811b82168486015287901b1660548301526068820185905260888083018590528351808403909101815260a89092019092528051910120949350505050565b60026020526000908152604090205481565b7fdf8b4c520ffe197c5343c6f5aec59570151ef9a492f2c624fd45ddde6135ec4281565b60056020526000908152604090205481565b6000828152602081905260408120610e8190836115da565b9392505050565b6000828152602081905260408120610e8190836115e6565b600080600080610eaf85611181565b92509250925060018682858560405160008152602001604052604051808581526020018460ff1681526020018381526020018281526020019450505050506020604051602081039080840390855afa158015610f0f573d6000803e3d6000fd5b5050604051601f190151979650505050505050565b6000610f507f9667e80708b6eeeb0053fa0cca44e028ff548e2a9f029edfeac87c118b08b7c833610e88565b610fa1576040805162461bcd60e51b815260206004820152601b60248201527f464c443a2043616c6c6572206973206e6f742061206275726e65720000000000604482015290519081900360640190fd5b610b6783836115fb565b42821015610fef576040805162461bcd60e51b815260206004820152600c60248201526b1193110e881156141254915160a21b604482015290519081900360640190fd5b6000610ffd86868686610da3565b9050600061100a82611371565b905060006110188285610ea0565b90506001600160a01b038116158015906110435750876001600160a01b0316816001600160a01b0316145b61108d576040805162461bcd60e51b8152602060048201526016602482015275464c443a20494e56414c49445f5349474e415455524560501b604482015290519081900360640190fd5b6110988888886113d7565b5050505050505050565b600081565b60008484848460405160200180856001600160a01b031660601b815260140184815260200183805190602001908083835b602083106110f75780518252601f1990920191602091820191016110d8565b51815160209384036101000a6000190180199092169116179052920193845250604080518085038152938201905282519201919091209998505050505050505050565b60008061114987878787610da3565b9050600061115682611371565b905060006111648286610ea0565b6001600160a01b03908116908a1614935050505095945050505050565b600080600083516041146111dc576040805162461bcd60e51b815260206004820152601860248201527f696e76616c6964207369676e6174757265206c656e6774680000000000000000604482015290519081900360640190fd5b50505060208101516040820151606090920151909260009190911a90565b6000610b67338484611439565b600080611216878787876110a7565b9050600061122382611371565b9050886001600160a01b03166112398286610ea0565b6001600160a01b0316149998505050505050505050565b600060018585858560405160008152602001604052604051808581526020018460ff1681526020018381526020018281526020019450505050506020604051602081039080840390855afa1580156112ac573d6000803e3d6000fd5b5050604051601f1901519695505050505050565b6000818152602081905260408120610b6b9061165f565b7ff0887ba65ee2024ea881d91b74c2450ef19e1557f03bed3ea9f16b037cbe2dc981565b60008281526020819052604090206002015461131990610c3a6114a5565b610d125760405162461bcd60e51b81526004018080602001828103825260308152602001806118616030913960400191505060405180910390fd5b600360209081526000928352604080842090915290825290205481565b604080517f19457468657265756d205369676e6564204d6573736167653a0a333200000000602080830191909152603c8083019490945282518083039094018452605c909101909152815191012090565b6000610e81836001600160a01b03841661166a565b6001600160a01b03808416600081815260036020908152604080832094871680845294825291829020859055815185815291517f8c5be1e5ebec7d5bd14f71427d1e84f3dd0314c0f7b2291e5b200ac8c7c3b9259281900390910190a3505050565b6001600160a01b03808416600081815260026020908152604080832080548790039055938616808352918490208054860190558351858152935191937fddf252ad1be2c89b69c2b068fc378daa952ba7f163c4a11628f55a4df523b3ef929081900390910190a3505050565b3390565b60008281526020819052604090206114c190826113c2565b15610c84576114ce6114a5565b6001600160a01b0316816001600160a01b0316837f2f8788117e7eff1d82e926ec794901d17c78024a50270940304540a733656f0d60405160405180910390a45050565b600082815260208190526040902061152a90826116b4565b15610c84576115376114a5565b6001600160a01b0316816001600160a01b0316837ff6391f5c32d9c69d2a47ea670b442974b53935d1edc7fd64eb21e047a839171b60405160405180910390a45050565b60018054820190556001600160a01b0382166000818152600260209081526040808320805486019055805185815290517fddf252ad1be2c89b69c2b068fc378daa952ba7f163c4a11628f55a4df523b3ef929181900390910190a35050565b6000610e8183836116c9565b6000610e81836001600160a01b03841661172d565b6001600160a01b038216600081815260026020908152604080832080548690039055600180548690039055805185815290519293927fddf252ad1be2c89b69c2b068fc378daa952ba7f163c4a11628f55a4df523b3ef929181900390910190a35050565b6000610b6b82611745565b6000611676838361172d565b6116ac57508154600181810184556000848152602080822090930184905584548482528286019093526040902091909155610b6b565b506000610b6b565b6000610e81836001600160a01b038416611749565b8154600090821061170b5760405162461bcd60e51b81526004018080602001828103825260228152602001806118106022913960400191505060405180910390fd5b82600001828154811061171a57fe5b9060005260206000200154905092915050565b60009081526001919091016020526040902054151590565b5490565b60008181526001830160205260408120548015611805578354600019808301919081019060009087908390811061177c57fe5b906000526020600020015490508087600001848154811061179957fe5b6000918252602080832090910192909255828152600189810190925260409020908401905586548790806117c957fe5b60019003818190600052602060002001600090559055866001016000878152602001908152602001600020600090556001945050505050610b6b565b6000915050610b6b56fe456e756d657261626c655365743a20696e646578206f7574206f6620626f756e6473416363657373436f6e74726f6c3a2073656e646572206d75737420626520616e2061646d696e20746f206772616e74416363657373436f6e74726f6c3a2073656e646572206d75737420626520616e2061646d696e20746f207265766f6b65416363657373436f6e74726f6c3a2063616e206f6e6c792072656e6f756e636520726f6c657320666f722073656c66a26469706673582212207210393b71a1cd84475ff8a9e9b4c87538069cf9c9a3707c60f83a5fda1fbb4f64736f6c63430007060033f0887ba65ee2024ea881d91b74c2450ef19e1557f03bed3ea9f16b037cbe2dc9df8b4c520ffe197c5343c6f5aec59570151ef9a492f2c624fd45ddde6135ec42",
  "immutableReferences": {},
  "source": "//SPDX-License-Identifier: Unlicense\npragma solidity ^0.7.0;\n\nimport '../interfaces/IFLD.sol';\nimport \"@openzeppelin/contracts/access/AccessControl.sol\";\nimport './VerifySignature.sol';\n\ncontract FLD is IFLD, AccessControl, VerifySignature {\n    bytes32 public constant ADMIN_ROLE = keccak256(\"ADMIN\");\n    bytes32 public constant MINTER_ROLE = keccak256(\"MINTER\");\n    bytes32 public constant BURNER_ROLE = keccak256(\"BURNER\");\n\n    string public constant override name = 'FLD';\n    string public constant override symbol = 'FLD';\n    uint8 public constant override decimals = 18;\n    uint256  public override totalSupply;\n    mapping(address => uint256) public override balanceOf;\n    mapping(address => mapping(address => uint256)) public override allowance;\n\n    bytes32 public override DOMAIN_SEPARATOR;\n    // keccak256(\"Permit(address owner,address spender,uint256 value,uint256 nonce,uint256 deadline)\");\n    // solhint-disable-next-line\n    //bytes32 public constant override PERMIT_TYPEHASH = 0x6e71edae12b1b97f4d1f60370fef10105fa2faae0126114a169c64845d6126c9;\n    mapping(address => uint) public override nonces;\n\n    event Approval(address indexed from, address indexed to, uint256 value);\n    event Transfer(address indexed from, address indexed to, uint256 value);\n\n    modifier onlyOwner() {\n        require(hasRole(ADMIN_ROLE, msg.sender), \"FLD: Caller is not an admin\");\n        _;\n    }\n\n    constructor()   {\n        uint chainId;\n        assembly {\n            chainId := chainid()\n        }\n        DOMAIN_SEPARATOR = keccak256(\n            abi.encode(\n                keccak256('EIP712Domain(string name,string version,uint256 chainId,address verifyingContract)'),\n                keccak256(bytes(name)),\n                keccak256(bytes('1')),\n                chainId,\n                address(this)\n            )\n        );\n\n        _setupRole(ADMIN_ROLE, msg.sender);\n\n        _setRoleAdmin(BURNER_ROLE, ADMIN_ROLE);\n        _setRoleAdmin(MINTER_ROLE, ADMIN_ROLE);\n\n        _setupRole(BURNER_ROLE, msg.sender);\n        _setupRole(MINTER_ROLE, msg.sender);\n\n    }\n\n    function getChainId() external pure returns (uint){\n        uint chainId;\n        assembly {\n            chainId := chainid()\n        }\n        return chainId;\n    }\n\n    function _mint(address to, uint256 value) internal {\n        totalSupply += value;\n        balanceOf[to] += value;\n        emit Transfer(address(0), to, value);\n    }\n\n    function _burn(address from, uint256 value) internal {\n        balanceOf[from] -= value;\n        totalSupply -= value;\n        emit Transfer(from, address(0), value);\n    }\n\n    function _approve(address owner, address spender, uint256 value) private {\n        allowance[owner][spender] = value;\n        emit Approval(owner, spender, value);\n    }\n\n    function _transfer(address from, address to, uint256 value) private {\n        balanceOf[from] -= value;\n        balanceOf[to] += value;\n        emit Transfer(from, to, value);\n    }\n\n    function mint(address to, uint256 amount) external override returns (bool) {\n        require(hasRole(MINTER_ROLE, msg.sender), \"FLD: Caller is not a minter\");\n        _mint(to, amount);\n        return true;\n    }\n\n    function burn(address from, uint256 amount) external override returns (bool) {\n        require(hasRole(BURNER_ROLE, msg.sender), \"FLD: Caller is not a burner\");\n        _burn(from, amount);\n        return true;\n    }\n\n    function approve(address spender, uint256 value) external override returns (bool) {\n        _approve(msg.sender, spender, value);\n        return true;\n    }\n\n    function transfer(address to, uint256 value) external override returns (bool) {\n        _transfer(msg.sender, to, value);\n        return true;\n    }\n\n    function transferFrom(\n        address from,\n        address to,\n        uint256 value\n    )\n        external override\n        returns (bool)\n    {\n        if (allowance[from][msg.sender] != uint(-1)) {\n            allowance[from][msg.sender] -= value;\n        }\n        _transfer(from, to, value);\n        return true;\n    }\n\n    function permit(\n        address owner,\n        address spender,\n        uint256 value,\n        uint256 deadline,\n        bytes memory signature\n    )\n        external override\n    {\n        require(deadline >= block.timestamp, 'FLD: EXPIRED');\n        bytes32 messageHash = getPermitMessageHash(owner, spender, value, deadline);\n        bytes32 ethSignedMessageHash = getEthSignedMessageHash(messageHash);\n        address recoveredAddress = recoverSigner(ethSignedMessageHash, signature);\n        require(recoveredAddress != address(0) && recoveredAddress == owner, 'FLD: INVALID_SIGNATURE');\n        _approve(owner, spender, value);\n    }\n\n    function permitVerify(\n        address _signer,\n        address _to, uint256 _amount,  uint256 _period,\n        bytes memory signature\n    )\n        public pure returns (bool)\n    {\n        bytes32 messageHash = getPermitMessageHash(_signer, _to, _amount,  _period);\n\n        bytes32 ethSignedMessageHash = getEthSignedMessageHash(messageHash);\n\n        address _addr = recoverSigner(ethSignedMessageHash, signature);\n\n        return (_addr == _signer);\n    }\n\n\n}\n",
  "sourcePath": "/Users/zena/ico2.0/ico20-contracts/contracts/tokens/FLD.sol",
  "compiler": {
    "name": "solc",
    "version": "0.7.6+commit.7338295f.Emscripten.clang"
  },
  "schemaVersion": "3.3.4",
  "updatedAt": "2021-04-19T05:52:38.596Z",
  "devdoc": {
    "kind": "dev",
    "methods": {
      "getRoleAdmin(bytes32)": {
        "details": "Returns the admin role that controls `role`. See {grantRole} and {revokeRole}. To change a role's admin, use {_setRoleAdmin}."
      },
      "getRoleMember(bytes32,uint256)": {
        "details": "Returns one of the accounts that have `role`. `index` must be a value between 0 and {getRoleMemberCount}, non-inclusive. Role bearers are not sorted in any particular way, and their ordering may change at any point. WARNING: When using {getRoleMember} and {getRoleMemberCount}, make sure you perform all queries on the same block. See the following https://forum.openzeppelin.com/t/iterating-over-elements-on-enumerableset-in-openzeppelin-contracts/2296[forum post] for more information."
      },
      "getRoleMemberCount(bytes32)": {
        "details": "Returns the number of accounts that have `role`. Can be used together with {getRoleMember} to enumerate all bearers of a role."
      },
      "grantRole(bytes32,address)": {
        "details": "Grants `role` to `account`. If `account` had not been already granted `role`, emits a {RoleGranted} event. Requirements: - the caller must have ``role``'s admin role."
      },
      "hasRole(bytes32,address)": {
        "details": "Returns `true` if `account` has been granted `role`."
      },
      "renounceRole(bytes32,address)": {
        "details": "Revokes `role` from the calling account. Roles are often managed via {grantRole} and {revokeRole}: this function's purpose is to provide a mechanism for accounts to lose their privileges if they are compromised (such as when a trusted device is misplaced). If the calling account had been granted `role`, emits a {RoleRevoked} event. Requirements: - the caller must be `account`."
      },
      "revokeRole(bytes32,address)": {
        "details": "Revokes `role` from `account`. If `account` had been granted `role`, emits a {RoleRevoked} event. Requirements: - the caller must have ``role``'s admin role."
      }
    },
    "version": 1
  },
  "userdoc": {
    "kind": "user",
    "methods": {},
    "version": 1
  }
}