{
  "contractName": "FLDVault",
  "abi": [
    {
      "inputs": [],
      "stateMutability": "nonpayable",
      "type": "constructor"
    },
    {
      "anonymous": false,
      "inputs": [
        {
          "indexed": true,
          "internalType": "address",
          "name": "token",
          "type": "address"
        },
        {
          "indexed": true,
          "internalType": "address",
          "name": "to",
          "type": "address"
        },
        {
          "indexed": false,
          "internalType": "uint256",
          "name": "amount",
          "type": "uint256"
        }
      ],
      "name": "Approved",
      "type": "event"
    },
    {
      "anonymous": false,
      "inputs": [
        {
          "indexed": true,
          "internalType": "address",
          "name": "from",
          "type": "address"
        },
        {
          "indexed": true,
          "internalType": "bytes32",
          "name": "vaultHash",
          "type": "bytes32"
        },
        {
          "indexed": false,
          "internalType": "address",
          "name": "to",
          "type": "address"
        },
        {
          "indexed": false,
          "internalType": "uint256",
          "name": "amount",
          "type": "uint256"
        }
      ],
      "name": "ClaimVault",
      "type": "event"
    },
    {
      "anonymous": false,
      "inputs": [
        {
          "indexed": true,
          "internalType": "address",
          "name": "from",
          "type": "address"
        },
        {
          "indexed": true,
          "internalType": "address",
          "name": "to",
          "type": "address"
        },
        {
          "indexed": false,
          "internalType": "uint256",
          "name": "amount",
          "type": "uint256"
        }
      ],
      "name": "ClaimedFLD",
      "type": "event"
    },
    {
      "anonymous": false,
      "inputs": [
        {
          "indexed": true,
          "internalType": "address",
          "name": "token",
          "type": "address"
        },
        {
          "indexed": true,
          "internalType": "address",
          "name": "from",
          "type": "address"
        },
        {
          "indexed": true,
          "internalType": "address",
          "name": "to",
          "type": "address"
        },
        {
          "indexed": false,
          "internalType": "uint256",
          "name": "amount",
          "type": "uint256"
        }
      ],
      "name": "ClaimedToken",
      "type": "event"
    },
    {
      "anonymous": false,
      "inputs": [
        {
          "indexed": true,
          "internalType": "bytes32",
          "name": "role",
          "type": "bytes32"
        },
        {
          "indexed": true,
          "internalType": "bytes32",
          "name": "previousAdminRole",
          "type": "bytes32"
        },
        {
          "indexed": true,
          "internalType": "bytes32",
          "name": "newAdminRole",
          "type": "bytes32"
        }
      ],
      "name": "RoleAdminChanged",
      "type": "event"
    },
    {
      "anonymous": false,
      "inputs": [
        {
          "indexed": true,
          "internalType": "bytes32",
          "name": "role",
          "type": "bytes32"
        },
        {
          "indexed": true,
          "internalType": "address",
          "name": "account",
          "type": "address"
        },
        {
          "indexed": true,
          "internalType": "address",
          "name": "sender",
          "type": "address"
        }
      ],
      "name": "RoleGranted",
      "type": "event"
    },
    {
      "anonymous": false,
      "inputs": [
        {
          "indexed": true,
          "internalType": "bytes32",
          "name": "role",
          "type": "bytes32"
        },
        {
          "indexed": true,
          "internalType": "address",
          "name": "account",
          "type": "address"
        },
        {
          "indexed": true,
          "internalType": "address",
          "name": "sender",
          "type": "address"
        }
      ],
      "name": "RoleRevoked",
      "type": "event"
    },
    {
      "inputs": [],
      "name": "ADMIN_ROLE",
      "outputs": [
        {
          "internalType": "bytes32",
          "name": "",
          "type": "bytes32"
        }
      ],
      "stateMutability": "view",
      "type": "function"
    },
    {
      "inputs": [],
      "name": "CLAIMER_ROLE",
      "outputs": [
        {
          "internalType": "bytes32",
          "name": "",
          "type": "bytes32"
        }
      ],
      "stateMutability": "view",
      "type": "function"
    },
    {
      "inputs": [],
      "name": "DEFAULT_ADMIN_ROLE",
      "outputs": [
        {
          "internalType": "bytes32",
          "name": "",
          "type": "bytes32"
        }
      ],
      "stateMutability": "view",
      "type": "function"
    },
    {
      "inputs": [
        {
          "internalType": "uint256",
          "name": "",
          "type": "uint256"
        }
      ],
      "name": "PhaseVaultHash",
      "outputs": [
        {
          "internalType": "bytes32",
          "name": "",
          "type": "bytes32"
        }
      ],
      "stateMutability": "view",
      "type": "function"
    },
    {
      "inputs": [],
      "name": "ZERO_HASH",
      "outputs": [
        {
          "internalType": "bytes32",
          "name": "",
          "type": "bytes32"
        }
      ],
      "stateMutability": "view",
      "type": "function"
    },
    {
      "inputs": [
        {
          "internalType": "address",
          "name": "",
          "type": "address"
        }
      ],
      "name": "contractVaultName",
      "outputs": [
        {
          "internalType": "bytes32",
          "name": "",
          "type": "bytes32"
        }
      ],
      "stateMutability": "view",
      "type": "function"
    },
    {
      "inputs": [],
      "name": "fld",
      "outputs": [
        {
          "internalType": "contract IFLD",
          "name": "",
          "type": "address"
        }
      ],
      "stateMutability": "view",
      "type": "function"
    },
    {
      "inputs": [
        {
          "internalType": "bytes32",
          "name": "role",
          "type": "bytes32"
        }
      ],
      "name": "getRoleAdmin",
      "outputs": [
        {
          "internalType": "bytes32",
          "name": "",
          "type": "bytes32"
        }
      ],
      "stateMutability": "view",
      "type": "function"
    },
    {
      "inputs": [
        {
          "internalType": "bytes32",
          "name": "role",
          "type": "bytes32"
        },
        {
          "internalType": "uint256",
          "name": "index",
          "type": "uint256"
        }
      ],
      "name": "getRoleMember",
      "outputs": [
        {
          "internalType": "address",
          "name": "",
          "type": "address"
        }
      ],
      "stateMutability": "view",
      "type": "function"
    },
    {
      "inputs": [
        {
          "internalType": "bytes32",
          "name": "role",
          "type": "bytes32"
        }
      ],
      "name": "getRoleMemberCount",
      "outputs": [
        {
          "internalType": "uint256",
          "name": "",
          "type": "uint256"
        }
      ],
      "stateMutability": "view",
      "type": "function"
    },
    {
      "inputs": [
        {
          "internalType": "bytes32",
          "name": "role",
          "type": "bytes32"
        },
        {
          "internalType": "address",
          "name": "account",
          "type": "address"
        }
      ],
      "name": "grantRole",
      "outputs": [],
      "stateMutability": "nonpayable",
      "type": "function"
    },
    {
      "inputs": [
        {
          "internalType": "bytes32",
          "name": "role",
          "type": "bytes32"
        },
        {
          "internalType": "address",
          "name": "account",
          "type": "address"
        }
      ],
      "name": "hasRole",
      "outputs": [
        {
          "internalType": "bool",
          "name": "",
          "type": "bool"
        }
      ],
      "stateMutability": "view",
      "type": "function"
    },
    {
      "inputs": [
        {
          "internalType": "bytes32",
          "name": "role",
          "type": "bytes32"
        },
        {
          "internalType": "address",
          "name": "account",
          "type": "address"
        }
      ],
      "name": "renounceRole",
      "outputs": [],
      "stateMutability": "nonpayable",
      "type": "function"
    },
    {
      "inputs": [
        {
          "internalType": "bytes32",
          "name": "role",
          "type": "bytes32"
        },
        {
          "internalType": "address",
          "name": "account",
          "type": "address"
        }
      ],
      "name": "revokeRole",
      "outputs": [],
      "stateMutability": "nonpayable",
      "type": "function"
    },
    {
      "stateMutability": "payable",
      "type": "receive"
    },
    {
      "inputs": [
        {
          "internalType": "bytes32",
          "name": "_hash",
          "type": "bytes32"
        }
      ],
      "name": "VaultInfo",
      "outputs": [
        {
          "components": [
            {
              "internalType": "uint256",
              "name": "total",
              "type": "uint256"
            },
            {
              "internalType": "uint256",
              "name": "used",
              "type": "uint256"
            }
          ],
          "internalType": "struct LibTokenMining.VAULT",
          "name": "_vaultInfo",
          "type": "tuple"
        }
      ],
      "stateMutability": "view",
      "type": "function"
    },
    {
      "inputs": [
        {
          "internalType": "address",
          "name": "_fld",
          "type": "address"
        }
      ],
      "name": "setFLD",
      "outputs": [],
      "stateMutability": "nonpayable",
      "type": "function"
    },
    {
      "inputs": [
        {
          "internalType": "bytes32",
          "name": "_hash",
          "type": "bytes32"
        },
        {
          "internalType": "uint256",
          "name": "_total",
          "type": "uint256"
        }
      ],
      "name": "addPhaseVault",
      "outputs": [],
      "stateMutability": "nonpayable",
      "type": "function"
    },
    {
      "inputs": [
        {
          "internalType": "address",
          "name": "to",
          "type": "address"
        },
        {
          "internalType": "bytes32",
          "name": "_hash",
          "type": "bytes32"
        }
      ],
      "name": "setContractVaultName",
      "outputs": [],
      "stateMutability": "nonpayable",
      "type": "function"
    },
    {
      "inputs": [
        {
          "internalType": "uint256",
          "name": "_index",
          "type": "uint256"
        },
        {
          "internalType": "uint256",
          "name": "_total",
          "type": "uint256"
        }
      ],
      "name": "changeVaultTotal",
      "outputs": [],
      "stateMutability": "nonpayable",
      "type": "function"
    },
    {
      "inputs": [
        {
          "internalType": "address",
          "name": "_to",
          "type": "address"
        },
        {
          "internalType": "uint256",
          "name": "_amount",
          "type": "uint256"
        }
      ],
      "name": "approveFLD",
      "outputs": [],
      "stateMutability": "nonpayable",
      "type": "function"
    },
    {
      "inputs": [
        {
          "internalType": "address",
          "name": "_token",
          "type": "address"
        },
        {
          "internalType": "address",
          "name": "_to",
          "type": "address"
        },
        {
          "internalType": "uint256",
          "name": "_amount",
          "type": "uint256"
        }
      ],
      "name": "approveERC20",
      "outputs": [],
      "stateMutability": "nonpayable",
      "type": "function"
    },
    {
      "inputs": [
        {
          "internalType": "address",
          "name": "_to",
          "type": "address"
        },
        {
          "internalType": "uint256",
          "name": "_amount",
          "type": "uint256"
        }
      ],
      "name": "claimVault",
      "outputs": [
        {
          "internalType": "bool",
          "name": "",
          "type": "bool"
        }
      ],
      "stateMutability": "nonpayable",
      "type": "function"
    },
    {
      "inputs": [
        {
          "internalType": "uint256",
          "name": "_amount",
          "type": "uint256"
        }
      ],
      "name": "validClaimVault",
      "outputs": [
        {
          "internalType": "bool",
          "name": "",
          "type": "bool"
        }
      ],
      "stateMutability": "view",
      "type": "function"
    },
    {
      "inputs": [],
      "name": "claimFLDAvailableAmount",
      "outputs": [
        {
          "internalType": "uint256",
          "name": "",
          "type": "uint256"
        }
      ],
      "stateMutability": "view",
      "type": "function"
    },
    {
      "inputs": [
        {
          "internalType": "address",
          "name": "_to",
          "type": "address"
        },
        {
          "internalType": "uint256",
          "name": "_amount",
          "type": "uint256"
        }
      ],
      "name": "claimFLD",
      "outputs": [
        {
          "internalType": "bool",
          "name": "",
          "type": "bool"
        }
      ],
      "stateMutability": "nonpayable",
      "type": "function"
    },
    {
      "inputs": [
        {
          "internalType": "address",
          "name": "_token",
          "type": "address"
        },
        {
          "internalType": "address",
          "name": "_to",
          "type": "address"
        },
        {
          "internalType": "uint256",
          "name": "_amount",
          "type": "uint256"
        }
      ],
      "name": "claimERC20",
      "outputs": [],
      "stateMutability": "nonpayable",
      "type": "function"
    }
  ],
  "bytecode": "0x60806040523480156200001157600080fd5b506200002d60008051602062001c0f8339815191528062000093565b6200005760008051602062001bef83398151915260008051602062001c0f83398151915262000093565b6200007260008051602062001c0f83398151915233620000e5565b6200008d60008051602062001bef83398151915233620000e5565b620001f9565b600082815260208190526040808220600201549051839285917fbd79b86ffe0ab8e8776151514217cd7cacd52c909f66475c3af44e129f0b00ff9190a460009182526020829052604090912060020155565b620000f18282620000f5565b5050565b6000828152602081815260409091206200011a918390620011bd6200016e821b17901c565b15620000f1576200012a6200018e565b6001600160a01b0316816001600160a01b0316837f2f8788117e7eff1d82e926ec794901d17c78024a50270940304540a733656f0d60405160405180910390a45050565b600062000185836001600160a01b03841662000192565b90505b92915050565b3390565b6000620001a08383620001e1565b620001d85750815460018181018455600084815260208082209093018490558454848252828601909352604090209190915562000188565b50600062000188565b60009081526001919091016020526040902054151590565b6119e680620002096000396000f3fe6080604052600436106101855760003560e01c80639c0bbcac116100d1578063d185a66b1161008a578063f4cf643011610064578063f4cf643014610444578063f6b8639514610464578063f848091a14610484578063fc5f18d3146104a45761018c565b8063d185a66b146103e4578063d547741f14610404578063dabe0bb2146104245761018c565b80639c0bbcac14610344578063a217fddf1461026d578063a6d40cd014610364578063a719f24714610384578063a8e5e4aa146103a4578063ca15c873146103c45761018c565b80634ce76a3c1161013e57806375b238fc1161011857806375b238fc146102cf578063846cf8eb146102e45780639010d07c1461030457806391d14854146103245761018c565b80634ce76a3c1461026d57806357a03a9e14610282578063698d9f23146102a25761018c565b806319979bf2146101915780631db51e00146101bc578063248a9ca3146101e95780632f2ff15d1461020957806333bd2a491461022b57806336568abe1461024d5761018c565b3661018c57005b600080fd5b34801561019d57600080fd5b506101a66104b9565b6040516101b391906115fc565b60405180910390f35b3480156101c857600080fd5b506101dc6101d73660046114ff565b61057d565b6040516101b391906115f1565b3480156101f557600080fd5b506101a6610204366004611548565b6107a9565b34801561021557600080fd5b50610229610224366004611560565b6107c1565b005b34801561023757600080fd5b50610240610828565b6040516101b391906115c4565b34801561025957600080fd5b50610229610268366004611560565b610837565b34801561027957600080fd5b506101a6610898565b34801561028e57600080fd5b506101dc61029d3660046114ff565b61089d565b3480156102ae57600080fd5b506102c26102bd366004611548565b610a52565b6040516101b391906118a9565b3480156102db57600080fd5b506101a6610a84565b3480156102f057600080fd5b506102296102ff36600461158b565b610a96565b34801561031057600080fd5b5061024061031f36600461158b565b610b2d565b34801561033057600080fd5b506101dc61033f366004611560565b610b4c565b34801561035057600080fd5b5061022961035f3660046114ff565b610b64565b34801561037057600080fd5b506101dc61037f366004611548565b610bd1565b34801561039057600080fd5b506101a661039f366004611548565b610c1d565b3480156103b057600080fd5b506102296103bf3660046114c4565b610c3e565b3480156103d057600080fd5b506101a66103df366004611548565b610d43565b3480156103f057600080fd5b506102296103ff3660046114aa565b610d5a565b34801561041057600080fd5b5061022961041f366004611560565b610dd6565b34801561043057600080fd5b506101a661043f3660046114aa565b610e2f565b34801561045057600080fd5b5061022961045f36600461158b565b610e41565b34801561047057600080fd5b5061022961047f3660046114ff565b610efa565b34801561049057600080fd5b5061022961049f3660046114c4565b611000565b3480156104b057600080fd5b506101a66111ab565b60006104d360008051602061194283398151915233610b4c565b6104f85760405162461bcd60e51b81526004016104ef906116b8565b60405180910390fd5b6001546040516370a0823160e01b81526001600160a01b03909116906370a08231906105289030906004016115c4565b60206040518083038186803b15801561054057600080fd5b505afa158015610554573d6000803e3d6000fd5b505050506040513d601f19601f8201168201806040525081019061057891906115ac565b905090565b60006005546000146105a15760405162461bcd60e51b81526004016104ef90611838565b6001600555336000908152600360205260409020546105d25760405162461bcd60e51b81526004016104ef9061163c565b3360009081526003602090815260408083205480845260029092529091205461060d5760405162461bcd60e51b81526004016104ef906116f9565b60008181526002602052604080822060018082018054880190555491516370a0823160e01b81529092916001600160a01b0316906370a08231906106559030906004016115c4565b60206040518083038186803b15801561066d57600080fd5b505afa158015610681573d6000803e3d6000fd5b505050506040513d601f19601f820116820180604052508101906106a591906115ac565b9050848110156106c75760405162461bcd60e51b81526004016104ef90611862565b60015460405163a9059cbb60e01b81526001600160a01b039091169063a9059cbb906106f990899089906004016115d8565b602060405180830381600087803b15801561071357600080fd5b505af1158015610727573d6000803e3d6000fd5b505050506040513d601f19601f8201168201806040525081019061074b9190611528565b61075457600080fd5b82336001600160a01b03167fa97b299ea2e9f8f33db11249d48b800ececf8028dfbca3ffc1e12a72c68f1eba88886040516107909291906115d8565b60405180910390a3505060006005555060019392505050565b6000818152602081905260409020600201545b919050565b6000828152602081905260409020600201546107df9061033f6111d2565b61081a5760405162461bcd60e51b815260040180806020018281038252602f8152602001806118e3602f913960400191505060405180910390fd5b61082482826111d6565b5050565b6001546001600160a01b031681565b61083f6111d2565b6001600160a01b0316816001600160a01b03161461088e5760405162461bcd60e51b815260040180806020018281038252602f815260200180611982602f913960400191505060405180910390fd5b610824828261123f565b600081565b60006108b760008051602061194283398151915233610b4c565b6108d35760405162461bcd60e51b81526004016104ef906116b8565b6001546040516370a0823160e01b81526000916001600160a01b0316906370a08231906109049030906004016115c4565b60206040518083038186803b15801561091c57600080fd5b505afa158015610930573d6000803e3d6000fd5b505050506040513d601f19601f8201168201806040525081019061095491906115ac565b9050828110156109765760405162461bcd60e51b81526004016104ef90611681565b60015460405163a9059cbb60e01b81526001600160a01b039091169063a9059cbb906109a890879087906004016115d8565b602060405180830381600087803b1580156109c257600080fd5b505af11580156109d6573d6000803e3d6000fd5b505050506040513d601f19601f820116820180604052508101906109fa9190611528565b50836001600160a01b0316336001600160a01b03167f635c8c907acbec4c073298d372fc7eb0c0c0d3d2bbcc29ae3fbd4c59899df07d85604051610a3e91906115fc565b60405180910390a360019150505b92915050565b610a5a611479565b50600090815260026020908152604091829020825180840190935280548352600101549082015290565b60008051602061196283398151915281565b610aae60008051602061196283398151915233610b4c565b610aca5760405162461bcd60e51b81526004016104ef9061173b565b60045482108015610adb5750600081115b610af75760405162461bcd60e51b81526004016104ef90611770565b806002600060048581548110610b0957fe5b90600052602060002001548152602001908152602001600020600001819055505050565b6000828152602081905260408120610b4590836112a8565b9392505050565b6000828152602081905260408120610b4590836112b4565b610b7c60008051602061196283398151915233610b4c565b610b985760405162461bcd60e51b81526004016104ef9061173b565b80610bb55760405162461bcd60e51b81526004016104ef906117b5565b6001600160a01b03909116600090815260036020526040902055565b33600090815260036020526040812054610bfd5760405162461bcd60e51b81526004016104ef9061163c565b505033600090815260036020908152604082205490915260029052600190565b60048181548110610c2d57600080fd5b600091825260209091200154905081565b610c5660008051602061194283398151915233610b4c565b610c725760405162461bcd60e51b81526004016104ef906116b8565b60405163095ea7b360e01b81526001600160a01b0384169063095ea7b390610ca090859085906004016115d8565b602060405180830381600087803b158015610cba57600080fd5b505af1158015610cce573d6000803e3d6000fd5b505050506040513d601f19601f82011682018060405250810190610cf29190611528565b50816001600160a01b0316836001600160a01b03167f80da462ebfbe41cfc9bc015e7a9a3c7a2a73dbccede72d8ceb583606c27f8f9083604051610d3691906115fc565b60405180910390a3505050565b6000818152602081905260408120610a4c906112c9565b610d7260008051602061196283398151915233610b4c565b610d8e5760405162461bcd60e51b81526004016104ef9061173b565b6001600160a01b038116610db45760405162461bcd60e51b81526004016104ef90611605565b600180546001600160a01b0319166001600160a01b0392909216919091179055565b600082815260208190526040902060020154610df49061033f6111d2565b61088e5760405162461bcd60e51b81526004018080602001828103825260308152602001806119126030913960400191505060405180910390fd5b60036020526000908152604090205481565b610e5960008051602061196283398151915233610b4c565b610e755760405162461bcd60e51b81526004016104ef9061173b565b8115801590610e845750600081115b8015610e9c5750600082815260026020526040902054155b610eb85760405162461bcd60e51b81526004016104ef90611801565b60048054600181019091557f8a35acfbc15ff81a39ae7d344fd709f28e8600b4aa8c65c6b64bfe7fe36bd19b0182905560009182526002602052604090912055565b610f1260008051602061194283398151915233610b4c565b610f2e5760405162461bcd60e51b81526004016104ef906116b8565b60015460405163095ea7b360e01b81526001600160a01b039091169063095ea7b390610f6090859085906004016115d8565b602060405180830381600087803b158015610f7a57600080fd5b505af1158015610f8e573d6000803e3d6000fd5b505050506040513d601f19601f82011682018060405250810190610fb29190611528565b506001546040516001600160a01b038085169216907f80da462ebfbe41cfc9bc015e7a9a3c7a2a73dbccede72d8ceb583606c27f8f9090610ff49085906115fc565b60405180910390a35050565b61101860008051602061194283398151915233610b4c565b6110345760405162461bcd60e51b81526004016104ef906116b8565b6040516370a0823160e01b815281906001600160a01b038516906370a08231906110629030906004016115c4565b60206040518083038186803b15801561107a57600080fd5b505afa15801561108e573d6000803e3d6000fd5b505050506040513d601f19601f820116820180604052508101906110b291906115ac565b10156110d05760405162461bcd60e51b81526004016104ef90611681565b60405163a9059cbb60e01b81526001600160a01b0384169063a9059cbb906110fe90859085906004016115d8565b602060405180830381600087803b15801561111857600080fd5b505af115801561112c573d6000803e3d6000fd5b505050506040513d601f19601f820116820180604052508101906111509190611528565b50816001600160a01b0316336001600160a01b0316846001600160a01b03167f8b31e6b67ff36a72f02119847ba3ff340f6fd81aed2d21e19c3526dadc95a7738460405161119e91906115fc565b60405180910390a4505050565b60008051602061194283398151915281565b6000610b45836001600160a01b0384166112d4565b3390565b60008281526020819052604090206111ee90826111bd565b15610824576111fb6111d2565b6001600160a01b0316816001600160a01b0316837f2f8788117e7eff1d82e926ec794901d17c78024a50270940304540a733656f0d60405160405180910390a45050565b6000828152602081905260409020611257908261131e565b15610824576112646111d2565b6001600160a01b0316816001600160a01b0316837ff6391f5c32d9c69d2a47ea670b442974b53935d1edc7fd64eb21e047a839171b60405160405180910390a45050565b6000610b458383611333565b6000610b45836001600160a01b038416611397565b6000610a4c826113af565b60006112e08383611397565b61131657508154600181810184556000848152602080822090930184905584548482528286019093526040902091909155610a4c565b506000610a4c565b6000610b45836001600160a01b0384166113b3565b815460009082106113755760405162461bcd60e51b81526004018080602001828103825260228152602001806118c16022913960400191505060405180910390fd5b82600001828154811061138457fe5b9060005260206000200154905092915050565b60009081526001919091016020526040902054151590565b5490565b6000818152600183016020526040812054801561146f57835460001980830191908101906000908790839081106113e657fe5b906000526020600020015490508087600001848154811061140357fe5b60009182526020808320909101929092558281526001898101909252604090209084019055865487908061143357fe5b60019003818190600052602060002001600090559055866001016000878152602001908152602001600020600090556001945050505050610a4c565b6000915050610a4c565b604051806040016040528060008152602001600081525090565b80356001600160a01b03811681146107bc57600080fd5b6000602082840312156114bb578081fd5b610b4582611493565b6000806000606084860312156114d8578182fd5b6114e184611493565b92506114ef60208501611493565b9150604084013590509250925092565b60008060408385031215611511578182fd5b61151a83611493565b946020939093013593505050565b600060208284031215611539578081fd5b81518015158114610b45578182fd5b600060208284031215611559578081fd5b5035919050565b60008060408385031215611572578182fd5b8235915061158260208401611493565b90509250929050565b6000806040838503121561159d578182fd5b50508035926020909101359150565b6000602082840312156115bd578081fd5b5051919050565b6001600160a01b0391909116815260200190565b6001600160a01b03929092168252602082015260400190565b901515815260200190565b90815260200190565b60208082526017908201527f464c445661756c743a20696e707574206973207a65726f000000000000000000604082015260600190565b60208082526025908201527f464c445661756c743a20636f6e7472616374207661756c74206e616d65206973604082015264207a65726f60d81b606082015260800190565b6020808252601c908201527f464c445661756c743a206e6f7420656e6f7567682062616c616e636500000000604082015260600190565b60208082526021908201527f464c445661756c743a2043616c6c6572206973206e6f74206120636c61696d656040820152603960f91b606082015260800190565b60208082526022908201527f464c445661756c743a20636c61696d5661756c7420746f74616c206973207a65604082015261726f60f01b606082015260800190565b6020808252818101527f464c445661756c743a2043616c6c6572206973206e6f7420616e2061646d696e604082015260600190565b60208082526025908201527f464c445661756c743a7365745661756c74546f74616c3a20696e707574206973604082015264207a65726f60d81b606082015260800190565b6020808252602c908201527f464c445661756c743a20736574436f6e74726163745661756c744e616d65206960408201526b6e707574206973207a65726f60a01b606082015260800190565b6020808252601f908201527f464c445661756c743a2061646450686173655661756c74206973206661696c00604082015260600190565b60208082526010908201526f11931115985d5b1d0e881313d0d2d15160821b604082015260600190565b60208082526027908201527f464c445661756c743a636c61696d5661756c743a206e6f7420656e6f7567682060408201526662616c616e636560c81b606082015260800190565b81518152602091820151918101919091526040019056fe456e756d657261626c655365743a20696e646578206f7574206f6620626f756e6473416363657373436f6e74726f6c3a2073656e646572206d75737420626520616e2061646d696e20746f206772616e74416363657373436f6e74726f6c3a2073656e646572206d75737420626520616e2061646d696e20746f207265766f6b65e5667d34d7ea8d6fdb3aa71a0a5b85e4cf7f68356dd003cd638556b0eea2bce5df8b4c520ffe197c5343c6f5aec59570151ef9a492f2c624fd45ddde6135ec42416363657373436f6e74726f6c3a2063616e206f6e6c792072656e6f756e636520726f6c657320666f722073656c66a2646970667358221220cc06db30f87302337a2b5ce324022d300b7e1922bd7a8775c32b05dd6fe0c0ae64736f6c63430007060033e5667d34d7ea8d6fdb3aa71a0a5b85e4cf7f68356dd003cd638556b0eea2bce5df8b4c520ffe197c5343c6f5aec59570151ef9a492f2c624fd45ddde6135ec42",
  "immutableReferences": {},
  "source": "//SPDX-License-Identifier: Unlicense\npragma solidity ^0.7.6;\npragma abicoder v2;\nimport \"@openzeppelin/contracts/access/AccessControl.sol\";\nimport { IFLDVault } from \"../interfaces/IFLDVault.sol\";\nimport { IFLD } from \"../interfaces/IFLD.sol\";\nimport { IERC20 } from \"../interfaces/IERC20.sol\";\n\nimport \"../libraries/LibTokenMining.sol\";\n/**\nFLD Token's Vault\n*/\ncontract FLDVault is  IFLDVault , AccessControl {\n\n    bytes32 public constant ADMIN_ROLE = keccak256(\"ADMIN\");\n    bytes32 public constant CLAIMER_ROLE = keccak256(\"CLAIMER\");\n    bytes32 public constant ZERO_HASH = 0x0000000000000000000000000000000000000000000000000000000000000000;\n\n    IFLD public fld;\n\n    mapping(bytes32 => LibTokenMining.VAULT) private vault;\n    mapping(address => bytes32) public contractVaultName;\n    bytes32[] public PhaseVaultHash;\n\n    //mapping(bytes32 => uint) private lock;\n    uint private _lock;\n\n    modifier onlyOwner() {\n        require(hasRole(ADMIN_ROLE, msg.sender), \"FLDVault: Caller is not an admin\");\n        _;\n    }\n\n    modifier onlyClaimer() {\n        require(hasRole(CLAIMER_ROLE, msg.sender), \"FLDVault: Caller is not a claimer\");\n        _;\n    }\n\n    modifier lock() {\n        require(_lock == 0, \"FLDVault: LOCKED\");\n        _lock = 1;\n        _;\n        _lock = 0;\n    }\n    //////////////////////////////\n    // Events\n    //////////////////////////////\n\n    event ClaimedFLD(address indexed from, address indexed to, uint256 amount);\n    event ClaimedToken(address indexed token, address indexed from, address indexed to, uint256 amount);\n    event Approved(address indexed token, address indexed to, uint256 amount);\n    event ClaimVault(address indexed from, bytes32 indexed vaultHash, address to, uint256 amount);\n\n    constructor() {\n        _setRoleAdmin(ADMIN_ROLE, ADMIN_ROLE);\n        _setRoleAdmin(CLAIMER_ROLE, ADMIN_ROLE);\n        _setupRole(ADMIN_ROLE, msg.sender);\n        _setupRole(CLAIMER_ROLE, msg.sender);\n\n        //PhaseVaulthash.push(keccak256(\"PHASE1_VAULT\"));\n        //PhaseVaulthash.push(keccak256(\"PHASE2_VAULT\"));\n    }\n\n\n    receive() external payable {\n\n    }\n\n    /**\n    * Returns the vault information.\n    */\n    function VaultInfo(bytes32 _hash) external view override returns (LibTokenMining.VAULT memory _vaultInfo) {\n        return vault[_hash];\n    }\n\n    /**\n    * Set the FLD address.\n    */\n    function setFLD(address _fld) external override onlyOwner {\n        require(_fld != address(0), \"FLDVault: input is zero\");\n        fld = IFLD(_fld);\n    }\n\n    /**\n    * Add a vault with a specific name (_hash) and put _total amount.\n    */\n    function addPhaseVault(bytes32 _hash, uint256 _total) external override onlyOwner {\n        require(_hash != ZERO_HASH && _total > 0 && vault[_hash].total == 0 , \"FLDVault: addPhaseVault is fail\");\n        PhaseVaultHash.push(_hash);\n        vault[_hash].total = _total;\n    }\n\n    /**\n    * set Contract Vault Name of sender (contract).\n    */\n    function setContractVaultName(address to, bytes32 _hash) external override onlyOwner {\n        require(_hash != ZERO_HASH, \"FLDVault: setContractVaultName input is zero\");\n        contractVaultName[to] = _hash;\n    }\n\n    /**\n    * change the cap of vault.\n    */\n    function changeVaultTotal(uint _index, uint256 _total) external override onlyOwner {\n        require(_index < PhaseVaultHash.length && _total > 0 , \"FLDVault:setVaultTotal: input is zero\");\n        vault[PhaseVaultHash[_index]].total = _total;\n    }\n\n    /**\n    * The sender authorize spender(_to) to spend sender's FLD tokens in the amount(_amount).\n    */\n    function approveFLD(address _to, uint256 _amount) external override onlyClaimer {\n        fld.approve(_to, _amount);\n        emit Approved(address(fld), _to, _amount);\n    }\n\n    /**\n    * The sender approves spender(_to) to spend sender's  tokens(_token) in the amount(_amount).\n    */\n    /// @notice Approves ERC20 token to specific address\n    /// @param _token Token address\n    /// @param _to Address to be approved\n    /// @param _amount Approving ERC20 token amount\n    function approveERC20(address _token, address _to, uint256 _amount) external override onlyClaimer {\n        IERC20(_token).approve(_to, _amount);\n        emit Approved(address(_token), _to, _amount);\n    }\n\n    /**\n    * The sender approves spender(_to) to spend sender's  tokens(_token) in the amount(_amount).\n    */\n    function claimVault(address _to, uint256 _amount)\n        external lock override\n        returns (bool)\n    {\n        require(contractVaultName[msg.sender] != ZERO_HASH, \"FLDVault: contract vault name is zero\");\n\n        bytes32 vaultHash = contractVaultName[msg.sender];\n        require(vault[vaultHash].total > 0, \"FLDVault: claimVault total is zero\");\n        require(vault[vaultHash].total - (vault[vaultHash].used + _amount) >= 0,\n             \"FLDVault: vault is lack.\");\n\n        LibTokenMining.VAULT storage _vault = vault[vaultHash];\n        _vault.used += _amount;\n\n        uint256 fldBalance = fld.balanceOf(address(this));\n        require(fldBalance >= _amount, \"FLDVault:claimVault: not enough balance\");\n\n        require(fld.transfer(_to, _amount));\n        emit ClaimVault(msg.sender, vaultHash, _to, _amount);\n        return true;\n    }\n\n    /**\n    * check if you can claim FLD.\n    */\n    function validClaimVault(uint256 _amount) external view override returns (bool) {\n        require(contractVaultName[msg.sender] != ZERO_HASH, \"FLDVault: contract vault name is zero\");\n        bytes32 vaultHash = contractVaultName[msg.sender];\n        return vault[vaultHash].total - (vault[vaultHash].used + _amount) >= 0;\n    }\n\n    /**\n    * Returns the FLD balance stored in the vault.\n    */\n    function claimFLDAvailableAmount()\n        external\n        view\n        onlyClaimer\n        returns (uint256)\n    {\n        return  fld.balanceOf(address(this));\n    }\n\n    /**\n    * The vault sends FLD to addressTo as much as _amount.\n    */\n    function claimFLD(address _to, uint256 _amount)\n        external\n        override\n        onlyClaimer\n        returns (bool)\n    {\n        uint256 fldBalance = fld.balanceOf(address(this));\n        require(fldBalance >= _amount, \"FLDVault: not enough balance\");\n\n        fld.transfer(_to, _amount);\n        emit ClaimedFLD(msg.sender, _to, _amount);\n        return true;\n    }\n\n    /**\n    * The vault sends _token to addressTo as much as _amount.\n    */\n    /// @notice Transfers ERC20 token to specific address\n    /// @param _to Address to receive\n    /// @param _amount Transfer ERC20 token amount\n    function claimERC20(address _token, address _to, uint256 _amount)\n        external\n        override\n        onlyClaimer\n    {\n        require(IERC20(_token).balanceOf(address(this)) >= _amount, \"FLDVault: not enough balance\");\n        IERC20(_token).transfer(_to, _amount);\n        emit ClaimedToken(_token, msg.sender, _to, _amount);\n    }\n\n    function _toRAY(uint256 v) internal pure returns (uint256) {\n        return v * 10 ** 9;\n    }\n\n    function _toWAD(uint256 v) internal pure returns (uint256) {\n        return v / 10 ** 9;\n    }\n\n}\n",
  "sourcePath": "/Users/zena/ico2.0/ico20-contracts/contracts/tokens/FLDVault.sol",
  "compiler": {
    "name": "solc",
    "version": "0.7.6+commit.7338295f.Emscripten.clang"
  },
  "schemaVersion": "3.3.4",
  "updatedAt": "2021-04-22T13:52:59.339Z",
  "devdoc": {
    "kind": "dev",
    "methods": {
      "approveERC20(address,address,uint256)": {
        "params": {
          "_amount": "Approving ERC20 token amount",
          "_to": "Address to be approved",
          "_token": "Token address"
        }
      },
      "claimERC20(address,address,uint256)": {
        "params": {
          "_amount": "Transfer ERC20 token amount",
          "_to": "Address to receive"
        }
      },
      "getRoleAdmin(bytes32)": {
        "details": "Returns the admin role that controls `role`. See {grantRole} and {revokeRole}. To change a role's admin, use {_setRoleAdmin}."
      },
      "getRoleMember(bytes32,uint256)": {
        "details": "Returns one of the accounts that have `role`. `index` must be a value between 0 and {getRoleMemberCount}, non-inclusive. Role bearers are not sorted in any particular way, and their ordering may change at any point. WARNING: When using {getRoleMember} and {getRoleMemberCount}, make sure you perform all queries on the same block. See the following https://forum.openzeppelin.com/t/iterating-over-elements-on-enumerableset-in-openzeppelin-contracts/2296[forum post] for more information."
      },
      "getRoleMemberCount(bytes32)": {
        "details": "Returns the number of accounts that have `role`. Can be used together with {getRoleMember} to enumerate all bearers of a role."
      },
      "grantRole(bytes32,address)": {
        "details": "Grants `role` to `account`. If `account` had not been already granted `role`, emits a {RoleGranted} event. Requirements: - the caller must have ``role``'s admin role."
      },
      "hasRole(bytes32,address)": {
        "details": "Returns `true` if `account` has been granted `role`."
      },
      "renounceRole(bytes32,address)": {
        "details": "Revokes `role` from the calling account. Roles are often managed via {grantRole} and {revokeRole}: this function's purpose is to provide a mechanism for accounts to lose their privileges if they are compromised (such as when a trusted device is misplaced). If the calling account had been granted `role`, emits a {RoleRevoked} event. Requirements: - the caller must be `account`."
      },
      "revokeRole(bytes32,address)": {
        "details": "Revokes `role` from `account`. If `account` had been granted `role`, emits a {RoleRevoked} event. Requirements: - the caller must have ``role``'s admin role."
      }
    },
    "version": 1
  },
  "userdoc": {
    "kind": "user",
    "methods": {
      "VaultInfo(bytes32)": {
        "notice": "Returns the vault information."
      },
      "addPhaseVault(bytes32,uint256)": {
        "notice": "Add a vault with a specific name (_hash) and put _total amount."
      },
      "approveERC20(address,address,uint256)": {
        "notice": "Approves ERC20 token to specific address"
      },
      "approveFLD(address,uint256)": {
        "notice": "The sender authorize spender(_to) to spend sender's FLD tokens in the amount(_amount)."
      },
      "changeVaultTotal(uint256,uint256)": {
        "notice": "change the cap of vault."
      },
      "claimERC20(address,address,uint256)": {
        "notice": "Transfers ERC20 token to specific address"
      },
      "claimFLD(address,uint256)": {
        "notice": "The vault sends FLD to addressTo as much as _amount."
      },
      "claimFLDAvailableAmount()": {
        "notice": "Returns the FLD balance stored in the vault."
      },
      "claimVault(address,uint256)": {
        "notice": "The sender approves spender(_to) to spend sender's  tokens(_token) in the amount(_amount)."
      },
      "setContractVaultName(address,bytes32)": {
        "notice": "set Contract Vault Name of sender (contract)."
      },
      "setFLD(address)": {
        "notice": "Set the FLD address."
      },
      "validClaimVault(uint256)": {
        "notice": "check if you can claim FLD."
      }
    },
    "notice": "FLD Token's Vault",
    "version": 1
  }
}