{
  "contractName": "FLDVault",
  "abi": [
    {
      "inputs": [],
      "stateMutability": "nonpayable",
      "type": "constructor"
    },
    {
      "anonymous": false,
      "inputs": [
        {
          "indexed": true,
          "internalType": "address",
          "name": "token",
          "type": "address"
        },
        {
          "indexed": true,
          "internalType": "address",
          "name": "to",
          "type": "address"
        },
        {
          "indexed": false,
          "internalType": "uint256",
          "name": "amount",
          "type": "uint256"
        }
      ],
      "name": "Approved",
      "type": "event"
    },
    {
      "anonymous": false,
      "inputs": [
        {
          "indexed": true,
          "internalType": "address",
          "name": "from",
          "type": "address"
        },
        {
          "indexed": true,
          "internalType": "bytes32",
          "name": "vaultHash",
          "type": "bytes32"
        },
        {
          "indexed": false,
          "internalType": "address",
          "name": "to",
          "type": "address"
        },
        {
          "indexed": false,
          "internalType": "uint256",
          "name": "amount",
          "type": "uint256"
        }
      ],
      "name": "ClaimVault",
      "type": "event"
    },
    {
      "anonymous": false,
      "inputs": [
        {
          "indexed": true,
          "internalType": "address",
          "name": "from",
          "type": "address"
        },
        {
          "indexed": true,
          "internalType": "address",
          "name": "to",
          "type": "address"
        },
        {
          "indexed": false,
          "internalType": "uint256",
          "name": "amount",
          "type": "uint256"
        }
      ],
      "name": "ClaimedFLD",
      "type": "event"
    },
    {
      "anonymous": false,
      "inputs": [
        {
          "indexed": true,
          "internalType": "address",
          "name": "token",
          "type": "address"
        },
        {
          "indexed": true,
          "internalType": "address",
          "name": "from",
          "type": "address"
        },
        {
          "indexed": true,
          "internalType": "address",
          "name": "to",
          "type": "address"
        },
        {
          "indexed": false,
          "internalType": "uint256",
          "name": "amount",
          "type": "uint256"
        }
      ],
      "name": "ClaimedToken",
      "type": "event"
    },
    {
      "anonymous": false,
      "inputs": [
        {
          "indexed": true,
          "internalType": "bytes32",
          "name": "role",
          "type": "bytes32"
        },
        {
          "indexed": true,
          "internalType": "bytes32",
          "name": "previousAdminRole",
          "type": "bytes32"
        },
        {
          "indexed": true,
          "internalType": "bytes32",
          "name": "newAdminRole",
          "type": "bytes32"
        }
      ],
      "name": "RoleAdminChanged",
      "type": "event"
    },
    {
      "anonymous": false,
      "inputs": [
        {
          "indexed": true,
          "internalType": "bytes32",
          "name": "role",
          "type": "bytes32"
        },
        {
          "indexed": true,
          "internalType": "address",
          "name": "account",
          "type": "address"
        },
        {
          "indexed": true,
          "internalType": "address",
          "name": "sender",
          "type": "address"
        }
      ],
      "name": "RoleGranted",
      "type": "event"
    },
    {
      "anonymous": false,
      "inputs": [
        {
          "indexed": true,
          "internalType": "bytes32",
          "name": "role",
          "type": "bytes32"
        },
        {
          "indexed": true,
          "internalType": "address",
          "name": "account",
          "type": "address"
        },
        {
          "indexed": true,
          "internalType": "address",
          "name": "sender",
          "type": "address"
        }
      ],
      "name": "RoleRevoked",
      "type": "event"
    },
    {
      "inputs": [],
      "name": "ADMIN_ROLE",
      "outputs": [
        {
          "internalType": "bytes32",
          "name": "",
          "type": "bytes32"
        }
      ],
      "stateMutability": "view",
      "type": "function"
    },
    {
      "inputs": [],
      "name": "CLAIMER_ROLE",
      "outputs": [
        {
          "internalType": "bytes32",
          "name": "",
          "type": "bytes32"
        }
      ],
      "stateMutability": "view",
      "type": "function"
    },
    {
      "inputs": [],
      "name": "DEFAULT_ADMIN_ROLE",
      "outputs": [
        {
          "internalType": "bytes32",
          "name": "",
          "type": "bytes32"
        }
      ],
      "stateMutability": "view",
      "type": "function"
    },
    {
      "inputs": [
        {
          "internalType": "uint256",
          "name": "",
          "type": "uint256"
        }
      ],
      "name": "PhaseVaultHash",
      "outputs": [
        {
          "internalType": "bytes32",
          "name": "",
          "type": "bytes32"
        }
      ],
      "stateMutability": "view",
      "type": "function"
    },
    {
      "inputs": [
        {
          "internalType": "address",
          "name": "",
          "type": "address"
        }
      ],
      "name": "contractVaultName",
      "outputs": [
        {
          "internalType": "bytes32",
          "name": "",
          "type": "bytes32"
        }
      ],
      "stateMutability": "view",
      "type": "function"
    },
    {
      "inputs": [],
      "name": "fld",
      "outputs": [
        {
          "internalType": "contract IFLD",
          "name": "",
          "type": "address"
        }
      ],
      "stateMutability": "view",
      "type": "function"
    },
    {
      "inputs": [
        {
          "internalType": "bytes32",
          "name": "role",
          "type": "bytes32"
        }
      ],
      "name": "getRoleAdmin",
      "outputs": [
        {
          "internalType": "bytes32",
          "name": "",
          "type": "bytes32"
        }
      ],
      "stateMutability": "view",
      "type": "function"
    },
    {
      "inputs": [
        {
          "internalType": "bytes32",
          "name": "role",
          "type": "bytes32"
        },
        {
          "internalType": "uint256",
          "name": "index",
          "type": "uint256"
        }
      ],
      "name": "getRoleMember",
      "outputs": [
        {
          "internalType": "address",
          "name": "",
          "type": "address"
        }
      ],
      "stateMutability": "view",
      "type": "function"
    },
    {
      "inputs": [
        {
          "internalType": "bytes32",
          "name": "role",
          "type": "bytes32"
        }
      ],
      "name": "getRoleMemberCount",
      "outputs": [
        {
          "internalType": "uint256",
          "name": "",
          "type": "uint256"
        }
      ],
      "stateMutability": "view",
      "type": "function"
    },
    {
      "inputs": [
        {
          "internalType": "bytes32",
          "name": "role",
          "type": "bytes32"
        },
        {
          "internalType": "address",
          "name": "account",
          "type": "address"
        }
      ],
      "name": "grantRole",
      "outputs": [],
      "stateMutability": "nonpayable",
      "type": "function"
    },
    {
      "inputs": [
        {
          "internalType": "bytes32",
          "name": "role",
          "type": "bytes32"
        },
        {
          "internalType": "address",
          "name": "account",
          "type": "address"
        }
      ],
      "name": "hasRole",
      "outputs": [
        {
          "internalType": "bool",
          "name": "",
          "type": "bool"
        }
      ],
      "stateMutability": "view",
      "type": "function"
    },
    {
      "inputs": [
        {
          "internalType": "bytes32",
          "name": "role",
          "type": "bytes32"
        },
        {
          "internalType": "address",
          "name": "account",
          "type": "address"
        }
      ],
      "name": "renounceRole",
      "outputs": [],
      "stateMutability": "nonpayable",
      "type": "function"
    },
    {
      "inputs": [
        {
          "internalType": "bytes32",
          "name": "role",
          "type": "bytes32"
        },
        {
          "internalType": "address",
          "name": "account",
          "type": "address"
        }
      ],
      "name": "revokeRole",
      "outputs": [],
      "stateMutability": "nonpayable",
      "type": "function"
    },
    {
      "stateMutability": "payable",
      "type": "receive"
    },
    {
      "inputs": [
        {
          "internalType": "bytes32",
          "name": "_hash",
          "type": "bytes32"
        }
      ],
      "name": "VaultInfo",
      "outputs": [
        {
          "components": [
            {
              "internalType": "uint256",
              "name": "total",
              "type": "uint256"
            },
            {
              "internalType": "uint256",
              "name": "used",
              "type": "uint256"
            }
          ],
          "internalType": "struct LibTokenMining.VAULT",
          "name": "_vaultInfo",
          "type": "tuple"
        }
      ],
      "stateMutability": "view",
      "type": "function"
    },
    {
      "inputs": [
        {
          "internalType": "address",
          "name": "_fld",
          "type": "address"
        }
      ],
      "name": "setFLD",
      "outputs": [],
      "stateMutability": "nonpayable",
      "type": "function"
    },
    {
      "inputs": [
        {
          "internalType": "bytes32",
          "name": "_hash",
          "type": "bytes32"
        },
        {
          "internalType": "uint256",
          "name": "_total",
          "type": "uint256"
        }
      ],
      "name": "addPhaseVault",
      "outputs": [],
      "stateMutability": "nonpayable",
      "type": "function"
    },
    {
      "inputs": [
        {
          "internalType": "uint256",
          "name": "_index",
          "type": "uint256"
        },
        {
          "internalType": "uint256",
          "name": "_total",
          "type": "uint256"
        }
      ],
      "name": "changeVaultTotal",
      "outputs": [],
      "stateMutability": "nonpayable",
      "type": "function"
    },
    {
      "inputs": [
        {
          "internalType": "address",
          "name": "_to",
          "type": "address"
        },
        {
          "internalType": "uint256",
          "name": "_amount",
          "type": "uint256"
        }
      ],
      "name": "approveFLD",
      "outputs": [],
      "stateMutability": "nonpayable",
      "type": "function"
    },
    {
      "inputs": [
        {
          "internalType": "address",
          "name": "_token",
          "type": "address"
        },
        {
          "internalType": "address",
          "name": "_to",
          "type": "address"
        },
        {
          "internalType": "uint256",
          "name": "_amount",
          "type": "uint256"
        }
      ],
      "name": "approveERC20",
      "outputs": [],
      "stateMutability": "nonpayable",
      "type": "function"
    },
    {
      "inputs": [
        {
          "internalType": "address",
          "name": "_to",
          "type": "address"
        },
        {
          "internalType": "uint256",
          "name": "_amount",
          "type": "uint256"
        }
      ],
      "name": "claimVault",
      "outputs": [
        {
          "internalType": "bool",
          "name": "",
          "type": "bool"
        }
      ],
      "stateMutability": "nonpayable",
      "type": "function"
    },
    {
      "inputs": [
        {
          "internalType": "uint256",
          "name": "_amount",
          "type": "uint256"
        }
      ],
      "name": "validClaimVault",
      "outputs": [
        {
          "internalType": "bool",
          "name": "",
          "type": "bool"
        }
      ],
      "stateMutability": "view",
      "type": "function"
    },
    {
      "inputs": [],
      "name": "claimFLDAvailableAmount",
      "outputs": [
        {
          "internalType": "uint256",
          "name": "",
          "type": "uint256"
        }
      ],
      "stateMutability": "view",
      "type": "function"
    },
    {
      "inputs": [
        {
          "internalType": "address",
          "name": "_to",
          "type": "address"
        },
        {
          "internalType": "uint256",
          "name": "_amount",
          "type": "uint256"
        }
      ],
      "name": "claimFLD",
      "outputs": [
        {
          "internalType": "bool",
          "name": "",
          "type": "bool"
        }
      ],
      "stateMutability": "nonpayable",
      "type": "function"
    },
    {
      "inputs": [
        {
          "internalType": "address",
          "name": "_token",
          "type": "address"
        },
        {
          "internalType": "address",
          "name": "_to",
          "type": "address"
        },
        {
          "internalType": "uint256",
          "name": "_amount",
          "type": "uint256"
        }
      ],
      "name": "claimERC20",
      "outputs": [],
      "stateMutability": "nonpayable",
      "type": "function"
    }
  ],
  "bytecode": "0x60806040523480156200001157600080fd5b506200002d60008051602062001a708339815191528062000093565b6200005760008051602062001a5083398151915260008051602062001a7083398151915262000093565b6200007260008051602062001a7083398151915233620000e5565b6200008d60008051602062001a5083398151915233620000e5565b620001f9565b600082815260208190526040808220600201549051839285917fbd79b86ffe0ab8e8776151514217cd7cacd52c909f66475c3af44e129f0b00ff9190a460009182526020829052604090912060020155565b620000f18282620000f5565b5050565b6000828152602081815260409091206200011a918390620010a16200016e821b17901c565b15620000f1576200012a6200018e565b6001600160a01b0316816001600160a01b0316837f2f8788117e7eff1d82e926ec794901d17c78024a50270940304540a733656f0d60405160405180910390a45050565b600062000185836001600160a01b03841662000192565b90505b92915050565b3390565b6000620001a08383620001e1565b620001d85750815460018181018455600084815260208082209093018490558454848252828601909352604090209190915562000188565b50600062000188565b60009081526001919091016020526040902054151590565b61184780620002096000396000f3fe60806040526004361061014f5760003560e01c8063a217fddf116100b6578063d547741f1161006f578063d547741f146103ae578063dabe0bb2146103ce578063f4cf6430146103ee578063f6b863951461040e578063f848091a1461042e578063fc5f18d31461044e57610156565b8063a217fddf146102f9578063a6d40cd01461030e578063a719f2471461032e578063a8e5e4aa1461034e578063ca15c8731461036e578063d185a66b1461038e57610156565b806357a03a9e1161010857806357a03a9e14610237578063698d9f231461025757806375b238fc14610284578063846cf8eb146102995780639010d07c146102b957806391d14854146102d957610156565b806319979bf21461015b5780631db51e0014610186578063248a9ca3146101b35780632f2ff15d146101d357806333bd2a49146101f557806336568abe1461021757610156565b3661015657005b600080fd5b34801561016757600080fd5b50610170610463565b60405161017d91906114e0565b60405180910390f35b34801561019257600080fd5b506101a66101a13660046113e3565b610527565b60405161017d91906114d5565b3480156101bf57600080fd5b506101706101ce36600461142c565b610727565b3480156101df57600080fd5b506101f36101ee366004611444565b61073f565b005b34801561020157600080fd5b5061020a6107a6565b60405161017d91906114a8565b34801561022357600080fd5b506101f3610232366004611444565b6107b5565b34801561024357600080fd5b506101a66102523660046113e3565b610816565b34801561026357600080fd5b5061027761027236600461142c565b6109cb565b60405161017d919061170a565b34801561029057600080fd5b506101706109fd565b3480156102a557600080fd5b506101f36102b436600461146f565b610a0f565b3480156102c557600080fd5b5061020a6102d436600461146f565b610aa6565b3480156102e557600080fd5b506101a66102f4366004611444565b610ac5565b34801561030557600080fd5b50610170610add565b34801561031a57600080fd5b506101a661032936600461142c565b610ae2565b34801561033a57600080fd5b5061017061034936600461142c565b610b01565b34801561035a57600080fd5b506101f36103693660046113a8565b610b22565b34801561037a57600080fd5b5061017061038936600461142c565b610c27565b34801561039a57600080fd5b506101f36103a936600461138e565b610c3e565b3480156103ba57600080fd5b506101f36103c9366004611444565b610cba565b3480156103da57600080fd5b506101706103e936600461138e565b610d13565b3480156103fa57600080fd5b506101f361040936600461146f565b610d25565b34801561041a57600080fd5b506101f36104293660046113e3565b610dde565b34801561043a57600080fd5b506101f36104493660046113a8565b610ee4565b34801561045a57600080fd5b5061017061108f565b600061047d6000805160206117a383398151915233610ac5565b6104a25760405162461bcd60e51b815260040161049990611557565b60405180910390fd5b6001546040516370a0823160e01b81526001600160a01b03909116906370a08231906104d29030906004016114a8565b60206040518083038186803b1580156104ea57600080fd5b505afa1580156104fe573d6000803e3d6000fd5b505050506040513d601f19601f820116820180604052508101906105229190611490565b905090565b600060055460001461054b5760405162461bcd60e51b815260040161049990611699565b60016005553360009081526003602090815260408083205480845260029092529091205461058b5760405162461bcd60e51b8152600401610499906115dd565b60008181526002602052604080822060018082018054880190555491516370a0823160e01b81529092916001600160a01b0316906370a08231906105d39030906004016114a8565b60206040518083038186803b1580156105eb57600080fd5b505afa1580156105ff573d6000803e3d6000fd5b505050506040513d601f19601f820116820180604052508101906106239190611490565b9050848110156106455760405162461bcd60e51b8152600401610499906116c3565b60015460405163a9059cbb60e01b81526001600160a01b039091169063a9059cbb9061067790899089906004016114bc565b602060405180830381600087803b15801561069157600080fd5b505af11580156106a5573d6000803e3d6000fd5b505050506040513d601f19601f820116820180604052508101906106c9919061140c565b6106d257600080fd5b82336001600160a01b03167fa97b299ea2e9f8f33db11249d48b800ececf8028dfbca3ffc1e12a72c68f1eba888860405161070e9291906114bc565b60405180910390a3505060006005555060019392505050565b6000818152602081905260409020600201545b919050565b60008281526020819052604090206002015461075d906102f46110b6565b6107985760405162461bcd60e51b815260040180806020018281038252602f815260200180611744602f913960400191505060405180910390fd5b6107a282826110ba565b5050565b6001546001600160a01b031681565b6107bd6110b6565b6001600160a01b0316816001600160a01b03161461080c5760405162461bcd60e51b815260040180806020018281038252602f8152602001806117e3602f913960400191505060405180910390fd5b6107a28282611123565b60006108306000805160206117a383398151915233610ac5565b61084c5760405162461bcd60e51b815260040161049990611557565b6001546040516370a0823160e01b81526000916001600160a01b0316906370a082319061087d9030906004016114a8565b60206040518083038186803b15801561089557600080fd5b505afa1580156108a9573d6000803e3d6000fd5b505050506040513d601f19601f820116820180604052508101906108cd9190611490565b9050828110156108ef5760405162461bcd60e51b815260040161049990611520565b60015460405163a9059cbb60e01b81526001600160a01b039091169063a9059cbb9061092190879087906004016114bc565b602060405180830381600087803b15801561093b57600080fd5b505af115801561094f573d6000803e3d6000fd5b505050506040513d601f19601f82011682018060405250810190610973919061140c565b50836001600160a01b0316336001600160a01b03167f635c8c907acbec4c073298d372fc7eb0c0c0d3d2bbcc29ae3fbd4c59899df07d856040516109b791906114e0565b60405180910390a360019150505b92915050565b6109d361135d565b50600090815260026020908152604091829020825180840190935280548352600101549082015290565b6000805160206117c383398151915281565b610a276000805160206117c383398151915233610ac5565b610a435760405162461bcd60e51b81526004016104999061161f565b60045482108015610a545750600081115b610a705760405162461bcd60e51b815260040161049990611654565b806002600060048581548110610a8257fe5b90600052602060002001548152602001908152602001600020600001819055505050565b6000828152602081905260408120610abe908361118c565b9392505050565b6000828152602081905260408120610abe9083611198565b600081565b5033600090815260036020908152604082205490915260029052600190565b60048181548110610b1157600080fd5b600091825260209091200154905081565b610b3a6000805160206117a383398151915233610ac5565b610b565760405162461bcd60e51b815260040161049990611557565b60405163095ea7b360e01b81526001600160a01b0384169063095ea7b390610b8490859085906004016114bc565b602060405180830381600087803b158015610b9e57600080fd5b505af1158015610bb2573d6000803e3d6000fd5b505050506040513d601f19601f82011682018060405250810190610bd6919061140c565b50816001600160a01b0316836001600160a01b03167f80da462ebfbe41cfc9bc015e7a9a3c7a2a73dbccede72d8ceb583606c27f8f9083604051610c1a91906114e0565b60405180910390a3505050565b60008181526020819052604081206109c5906111ad565b610c566000805160206117c383398151915233610ac5565b610c725760405162461bcd60e51b81526004016104999061161f565b6001600160a01b038116610c985760405162461bcd60e51b8152600401610499906114e9565b600180546001600160a01b0319166001600160a01b0392909216919091179055565b600082815260208190526040902060020154610cd8906102f46110b6565b61080c5760405162461bcd60e51b81526004018080602001828103825260308152602001806117736030913960400191505060405180910390fd5b60036020526000908152604090205481565b610d3d6000805160206117c383398151915233610ac5565b610d595760405162461bcd60e51b81526004016104999061161f565b8115801590610d685750600081115b8015610d805750600082815260026020526040902054155b610d9c5760405162461bcd60e51b815260040161049990611598565b60048054600181019091557f8a35acfbc15ff81a39ae7d344fd709f28e8600b4aa8c65c6b64bfe7fe36bd19b0182905560009182526002602052604090912055565b610df66000805160206117a383398151915233610ac5565b610e125760405162461bcd60e51b815260040161049990611557565b60015460405163095ea7b360e01b81526001600160a01b039091169063095ea7b390610e4490859085906004016114bc565b602060405180830381600087803b158015610e5e57600080fd5b505af1158015610e72573d6000803e3d6000fd5b505050506040513d601f19601f82011682018060405250810190610e96919061140c565b506001546040516001600160a01b038085169216907f80da462ebfbe41cfc9bc015e7a9a3c7a2a73dbccede72d8ceb583606c27f8f9090610ed89085906114e0565b60405180910390a35050565b610efc6000805160206117a383398151915233610ac5565b610f185760405162461bcd60e51b815260040161049990611557565b6040516370a0823160e01b815281906001600160a01b038516906370a0823190610f469030906004016114a8565b60206040518083038186803b158015610f5e57600080fd5b505afa158015610f72573d6000803e3d6000fd5b505050506040513d601f19601f82011682018060405250810190610f969190611490565b1015610fb45760405162461bcd60e51b815260040161049990611520565b60405163a9059cbb60e01b81526001600160a01b0384169063a9059cbb90610fe290859085906004016114bc565b602060405180830381600087803b158015610ffc57600080fd5b505af1158015611010573d6000803e3d6000fd5b505050506040513d601f19601f82011682018060405250810190611034919061140c565b50816001600160a01b0316336001600160a01b0316846001600160a01b03167f8b31e6b67ff36a72f02119847ba3ff340f6fd81aed2d21e19c3526dadc95a7738460405161108291906114e0565b60405180910390a4505050565b6000805160206117a383398151915281565b6000610abe836001600160a01b0384166111b8565b3390565b60008281526020819052604090206110d290826110a1565b156107a2576110df6110b6565b6001600160a01b0316816001600160a01b0316837f2f8788117e7eff1d82e926ec794901d17c78024a50270940304540a733656f0d60405160405180910390a45050565b600082815260208190526040902061113b9082611202565b156107a2576111486110b6565b6001600160a01b0316816001600160a01b0316837ff6391f5c32d9c69d2a47ea670b442974b53935d1edc7fd64eb21e047a839171b60405160405180910390a45050565b6000610abe8383611217565b6000610abe836001600160a01b03841661127b565b60006109c582611293565b60006111c4838361127b565b6111fa575081546001818101845560008481526020808220909301849055845484825282860190935260409020919091556109c5565b5060006109c5565b6000610abe836001600160a01b038416611297565b815460009082106112595760405162461bcd60e51b81526004018080602001828103825260228152602001806117226022913960400191505060405180910390fd5b82600001828154811061126857fe5b9060005260206000200154905092915050565b60009081526001919091016020526040902054151590565b5490565b6000818152600183016020526040812054801561135357835460001980830191908101906000908790839081106112ca57fe5b90600052602060002001549050808760000184815481106112e757fe5b60009182526020808320909101929092558281526001898101909252604090209084019055865487908061131757fe5b600190038181906000526020600020016000905590558660010160008781526020019081526020016000206000905560019450505050506109c5565b60009150506109c5565b604051806040016040528060008152602001600081525090565b80356001600160a01b038116811461073a57600080fd5b60006020828403121561139f578081fd5b610abe82611377565b6000806000606084860312156113bc578182fd5b6113c584611377565b92506113d360208501611377565b9150604084013590509250925092565b600080604083850312156113f5578182fd5b6113fe83611377565b946020939093013593505050565b60006020828403121561141d578081fd5b81518015158114610abe578182fd5b60006020828403121561143d578081fd5b5035919050565b60008060408385031215611456578182fd5b8235915061146660208401611377565b90509250929050565b60008060408385031215611481578182fd5b50508035926020909101359150565b6000602082840312156114a1578081fd5b5051919050565b6001600160a01b0391909116815260200190565b6001600160a01b03929092168252602082015260400190565b901515815260200190565b90815260200190565b60208082526017908201527f464c445661756c743a20696e707574206973207a65726f000000000000000000604082015260600190565b6020808252601c908201527f464c445661756c743a206e6f7420656e6f7567682062616c616e636500000000604082015260600190565b60208082526021908201527f464c445661756c743a2043616c6c6572206973206e6f74206120636c61696d656040820152603960f91b606082015260800190565b60208082526025908201527f464c445661756c743a2061646450686173655661756c7420696e707574206973604082015264207a65726f60d81b606082015260800190565b60208082526022908201527f464c445661756c743a20636c61696d5661756c7420746f74616c206973207a65604082015261726f60f01b606082015260800190565b6020808252818101527f464c445661756c743a2043616c6c6572206973206e6f7420616e2061646d696e604082015260600190565b60208082526025908201527f464c445661756c743a7365745661756c74546f74616c3a20696e707574206973604082015264207a65726f60d81b606082015260800190565b60208082526010908201526f11931115985d5b1d0e881313d0d2d15160821b604082015260600190565b60208082526027908201527f464c445661756c743a636c61696d5661756c743a206e6f7420656e6f7567682060408201526662616c616e636560c81b606082015260800190565b81518152602091820151918101919091526040019056fe456e756d657261626c655365743a20696e646578206f7574206f6620626f756e6473416363657373436f6e74726f6c3a2073656e646572206d75737420626520616e2061646d696e20746f206772616e74416363657373436f6e74726f6c3a2073656e646572206d75737420626520616e2061646d696e20746f207265766f6b65e5667d34d7ea8d6fdb3aa71a0a5b85e4cf7f68356dd003cd638556b0eea2bce5df8b4c520ffe197c5343c6f5aec59570151ef9a492f2c624fd45ddde6135ec42416363657373436f6e74726f6c3a2063616e206f6e6c792072656e6f756e636520726f6c657320666f722073656c66a26469706673582212205d371868f1885645c78a16bf70e6f8d1a22c82646d1185ed1e4a6749fd341bbe64736f6c63430007060033e5667d34d7ea8d6fdb3aa71a0a5b85e4cf7f68356dd003cd638556b0eea2bce5df8b4c520ffe197c5343c6f5aec59570151ef9a492f2c624fd45ddde6135ec42",
  "immutableReferences": {},
  "source": "//SPDX-License-Identifier: Unlicense\npragma solidity ^0.7.6;\npragma abicoder v2;\nimport \"@openzeppelin/contracts/access/AccessControl.sol\";\nimport { IFLDVault } from \"../interfaces/IFLDVault.sol\";\nimport { IFLD } from \"../interfaces/IFLD.sol\";\nimport { IERC20 } from \"../interfaces/IERC20.sol\";\n\nimport \"../libraries/LibTokenMining.sol\";\n\ncontract FLDVault is  IFLDVault , AccessControl {\n\n    bytes32 public constant ADMIN_ROLE = keccak256(\"ADMIN\");\n    bytes32 public constant CLAIMER_ROLE = keccak256(\"CLAIMER\");\n\n    IFLD public fld;\n\n    mapping(bytes32 => LibTokenMining.VAULT) private vault;\n    mapping(address => bytes32) public contractVaultName;\n    bytes32[] public PhaseVaultHash;\n\n    //mapping(bytes32 => uint) private lock;\n    uint private _lock;\n\n    modifier onlyOwner() {\n        require(hasRole(ADMIN_ROLE, msg.sender), \"FLDVault: Caller is not an admin\");\n        _;\n    }\n\n    modifier onlyClaimer() {\n        require(hasRole(CLAIMER_ROLE, msg.sender), \"FLDVault: Caller is not a claimer\");\n        _;\n    }\n\n    modifier lock() {\n        require(_lock == 0, \"FLDVault: LOCKED\");\n        _lock = 1;\n        _;\n        _lock = 0;\n    }\n    //////////////////////////////\n    // Events\n    //////////////////////////////\n\n    event ClaimedFLD(address indexed from, address indexed to, uint256 amount);\n    event ClaimedToken(address indexed token, address indexed from, address indexed to, uint256 amount);\n    event Approved(address indexed token, address indexed to, uint256 amount);\n    event ClaimVault(address indexed from, bytes32 indexed vaultHash, address to, uint256 amount);\n\n    constructor() {\n        _setRoleAdmin(ADMIN_ROLE, ADMIN_ROLE);\n        _setRoleAdmin(CLAIMER_ROLE, ADMIN_ROLE);\n        _setupRole(ADMIN_ROLE, msg.sender);\n        _setupRole(CLAIMER_ROLE, msg.sender);\n\n        //PhaseVaulthash.push(keccak256(\"PHASE1_VAULT\"));\n        //PhaseVaulthash.push(keccak256(\"PHASE2_VAULT\"));\n    }\n\n\n    receive() external payable {\n\n    }\n\n    function VaultInfo(bytes32 _hash) external view override returns (LibTokenMining.VAULT memory _vaultInfo) {\n        return vault[_hash];\n    }\n\n    function setFLD(address _fld) external override onlyOwner {\n        require(_fld != address(0), \"FLDVault: input is zero\");\n        fld = IFLD(_fld);\n    }\n\n    function addPhaseVault(bytes32 _hash, uint256 _total) external override onlyOwner {\n        require(_hash != 0x0 && _total > 0 && vault[_hash].total == 0 , \"FLDVault: addPhaseVault input is zero\");\n        PhaseVaultHash.push(_hash);\n        vault[_hash].total = _total;\n    }\n\n    function changeVaultTotal(uint _index, uint256 _total) external override onlyOwner {\n        require(_index < PhaseVaultHash.length && _total > 0 , \"FLDVault:setVaultTotal: input is zero\");\n        vault[PhaseVaultHash[_index]].total = _total;\n    }\n\n    function approveFLD(address _to, uint256 _amount) external override onlyClaimer {\n        fld.approve(_to, _amount);\n        emit Approved(address(fld), _to, _amount);\n    }\n\n    /// @notice Approves ERC20 token to specific address\n    /// @param _token Token address\n    /// @param _to Address to be approved\n    /// @param _amount Approving ERC20 token amount\n    function approveERC20(address _token, address _to, uint256 _amount) external override onlyClaimer {\n        IERC20(_token).approve(_to, _amount);\n        emit Approved(address(_token), _to, _amount);\n    }\n\n    function claimVault(address _to, uint256 _amount)\n        external lock override\n        returns (bool)\n    {\n        bytes32 vaultHash = contractVaultName[msg.sender];\n        require(vault[vaultHash].total > 0, \"FLDVault: claimVault total is zero\");\n        require(vault[vaultHash].total - (vault[vaultHash].used + _amount) >= 0,\n             \"FLDVault: vault is lack.\");\n\n        LibTokenMining.VAULT storage _vault = vault[vaultHash];\n        _vault.used += _amount;\n\n        uint256 fldBalance = fld.balanceOf(address(this));\n        require(fldBalance >= _amount, \"FLDVault:claimVault: not enough balance\");\n\n        require(fld.transfer(_to, _amount));\n        emit ClaimVault(msg.sender, vaultHash, _to, _amount);\n        return true;\n    }\n\n    function validClaimVault(uint256 _amount) external view override returns (bool) {\n        bytes32 vaultHash = contractVaultName[msg.sender];\n        return vault[vaultHash].total - (vault[vaultHash].used + _amount) >= 0;\n    }\n\n    function claimFLDAvailableAmount()\n        external\n        view\n        onlyClaimer\n        returns (uint256)\n    {\n        return  fld.balanceOf(address(this));\n    }\n\n    function claimFLD(address _to, uint256 _amount)\n        external\n        override\n        onlyClaimer\n        returns (bool)\n    {\n        uint256 fldBalance = fld.balanceOf(address(this));\n        require(fldBalance >= _amount, \"FLDVault: not enough balance\");\n\n        fld.transfer(_to, _amount);\n        emit ClaimedFLD(msg.sender, _to, _amount);\n        return true;\n    }\n\n    /// @notice Transfers ERC20 token to specific address\n    /// @param _to Address to receive\n    /// @param _amount Transfer ERC20 token amount\n    function claimERC20(address _token, address _to, uint256 _amount)\n        external\n        override\n        onlyClaimer\n    {\n        require(IERC20(_token).balanceOf(address(this)) >= _amount, \"FLDVault: not enough balance\");\n        IERC20(_token).transfer(_to, _amount);\n        emit ClaimedToken(_token, msg.sender, _to, _amount);\n    }\n\n    function _toRAY(uint256 v) internal pure returns (uint256) {\n        return v * 10 ** 9;\n    }\n\n    function _toWAD(uint256 v) internal pure returns (uint256) {\n        return v / 10 ** 9;\n    }\n\n}\n",
  "sourcePath": "/Users/zena/ico2.0/ico20-contracts/contracts/tokens/FLDVault.sol",
  "compiler": {
    "name": "solc",
    "version": "0.7.6+commit.7338295f.Emscripten.clang"
  },
  "schemaVersion": "3.3.4",
  "updatedAt": "2021-04-22T07:25:09.069Z",
  "devdoc": {
    "kind": "dev",
    "methods": {
      "approveERC20(address,address,uint256)": {
        "params": {
          "_amount": "Approving ERC20 token amount",
          "_to": "Address to be approved",
          "_token": "Token address"
        }
      },
      "claimERC20(address,address,uint256)": {
        "params": {
          "_amount": "Transfer ERC20 token amount",
          "_to": "Address to receive"
        }
      },
      "getRoleAdmin(bytes32)": {
        "details": "Returns the admin role that controls `role`. See {grantRole} and {revokeRole}. To change a role's admin, use {_setRoleAdmin}."
      },
      "getRoleMember(bytes32,uint256)": {
        "details": "Returns one of the accounts that have `role`. `index` must be a value between 0 and {getRoleMemberCount}, non-inclusive. Role bearers are not sorted in any particular way, and their ordering may change at any point. WARNING: When using {getRoleMember} and {getRoleMemberCount}, make sure you perform all queries on the same block. See the following https://forum.openzeppelin.com/t/iterating-over-elements-on-enumerableset-in-openzeppelin-contracts/2296[forum post] for more information."
      },
      "getRoleMemberCount(bytes32)": {
        "details": "Returns the number of accounts that have `role`. Can be used together with {getRoleMember} to enumerate all bearers of a role."
      },
      "grantRole(bytes32,address)": {
        "details": "Grants `role` to `account`. If `account` had not been already granted `role`, emits a {RoleGranted} event. Requirements: - the caller must have ``role``'s admin role."
      },
      "hasRole(bytes32,address)": {
        "details": "Returns `true` if `account` has been granted `role`."
      },
      "renounceRole(bytes32,address)": {
        "details": "Revokes `role` from the calling account. Roles are often managed via {grantRole} and {revokeRole}: this function's purpose is to provide a mechanism for accounts to lose their privileges if they are compromised (such as when a trusted device is misplaced). If the calling account had been granted `role`, emits a {RoleRevoked} event. Requirements: - the caller must be `account`."
      },
      "revokeRole(bytes32,address)": {
        "details": "Revokes `role` from `account`. If `account` had been granted `role`, emits a {RoleRevoked} event. Requirements: - the caller must have ``role``'s admin role."
      }
    },
    "version": 1
  },
  "userdoc": {
    "kind": "user",
    "methods": {
      "approveERC20(address,address,uint256)": {
        "notice": "Approves ERC20 token to specific address"
      },
      "claimERC20(address,address,uint256)": {
        "notice": "Transfers ERC20 token to specific address"
      }
    },
    "version": 1
  }
}