{
  "contractName": "FLDVault",
  "abi": [
    {
      "inputs": [],
      "stateMutability": "nonpayable",
      "type": "constructor"
    },
    {
      "anonymous": false,
      "inputs": [
        {
          "indexed": true,
          "internalType": "address",
          "name": "token",
          "type": "address"
        },
        {
          "indexed": true,
          "internalType": "address",
          "name": "to",
          "type": "address"
        },
        {
          "indexed": false,
          "internalType": "uint256",
          "name": "amount",
          "type": "uint256"
        }
      ],
      "name": "Approved",
      "type": "event"
    },
    {
      "anonymous": false,
      "inputs": [
        {
          "indexed": true,
          "internalType": "address",
          "name": "from",
          "type": "address"
        },
        {
          "indexed": true,
          "internalType": "address",
          "name": "to",
          "type": "address"
        },
        {
          "indexed": false,
          "internalType": "uint256",
          "name": "amount",
          "type": "uint256"
        }
      ],
      "name": "ClaimedFLD",
      "type": "event"
    },
    {
      "anonymous": false,
      "inputs": [
        {
          "indexed": true,
          "internalType": "address",
          "name": "token",
          "type": "address"
        },
        {
          "indexed": true,
          "internalType": "address",
          "name": "from",
          "type": "address"
        },
        {
          "indexed": true,
          "internalType": "address",
          "name": "to",
          "type": "address"
        },
        {
          "indexed": false,
          "internalType": "uint256",
          "name": "amount",
          "type": "uint256"
        }
      ],
      "name": "ClaimedToken",
      "type": "event"
    },
    {
      "anonymous": false,
      "inputs": [
        {
          "indexed": true,
          "internalType": "bytes32",
          "name": "role",
          "type": "bytes32"
        },
        {
          "indexed": true,
          "internalType": "bytes32",
          "name": "previousAdminRole",
          "type": "bytes32"
        },
        {
          "indexed": true,
          "internalType": "bytes32",
          "name": "newAdminRole",
          "type": "bytes32"
        }
      ],
      "name": "RoleAdminChanged",
      "type": "event"
    },
    {
      "anonymous": false,
      "inputs": [
        {
          "indexed": true,
          "internalType": "bytes32",
          "name": "role",
          "type": "bytes32"
        },
        {
          "indexed": true,
          "internalType": "address",
          "name": "account",
          "type": "address"
        },
        {
          "indexed": true,
          "internalType": "address",
          "name": "sender",
          "type": "address"
        }
      ],
      "name": "RoleGranted",
      "type": "event"
    },
    {
      "anonymous": false,
      "inputs": [
        {
          "indexed": true,
          "internalType": "bytes32",
          "name": "role",
          "type": "bytes32"
        },
        {
          "indexed": true,
          "internalType": "address",
          "name": "account",
          "type": "address"
        },
        {
          "indexed": true,
          "internalType": "address",
          "name": "sender",
          "type": "address"
        }
      ],
      "name": "RoleRevoked",
      "type": "event"
    },
    {
      "inputs": [],
      "name": "ADMIN_ROLE",
      "outputs": [
        {
          "internalType": "bytes32",
          "name": "",
          "type": "bytes32"
        }
      ],
      "stateMutability": "view",
      "type": "function"
    },
    {
      "inputs": [],
      "name": "CLAIMER_ROLE",
      "outputs": [
        {
          "internalType": "bytes32",
          "name": "",
          "type": "bytes32"
        }
      ],
      "stateMutability": "view",
      "type": "function"
    },
    {
      "inputs": [],
      "name": "DEFAULT_ADMIN_ROLE",
      "outputs": [
        {
          "internalType": "bytes32",
          "name": "",
          "type": "bytes32"
        }
      ],
      "stateMutability": "view",
      "type": "function"
    },
    {
      "inputs": [],
      "name": "fld",
      "outputs": [
        {
          "internalType": "contract IFLD",
          "name": "",
          "type": "address"
        }
      ],
      "stateMutability": "view",
      "type": "function"
    },
    {
      "inputs": [
        {
          "internalType": "bytes32",
          "name": "role",
          "type": "bytes32"
        }
      ],
      "name": "getRoleAdmin",
      "outputs": [
        {
          "internalType": "bytes32",
          "name": "",
          "type": "bytes32"
        }
      ],
      "stateMutability": "view",
      "type": "function"
    },
    {
      "inputs": [
        {
          "internalType": "bytes32",
          "name": "role",
          "type": "bytes32"
        },
        {
          "internalType": "uint256",
          "name": "index",
          "type": "uint256"
        }
      ],
      "name": "getRoleMember",
      "outputs": [
        {
          "internalType": "address",
          "name": "",
          "type": "address"
        }
      ],
      "stateMutability": "view",
      "type": "function"
    },
    {
      "inputs": [
        {
          "internalType": "bytes32",
          "name": "role",
          "type": "bytes32"
        }
      ],
      "name": "getRoleMemberCount",
      "outputs": [
        {
          "internalType": "uint256",
          "name": "",
          "type": "uint256"
        }
      ],
      "stateMutability": "view",
      "type": "function"
    },
    {
      "inputs": [
        {
          "internalType": "bytes32",
          "name": "role",
          "type": "bytes32"
        },
        {
          "internalType": "address",
          "name": "account",
          "type": "address"
        }
      ],
      "name": "grantRole",
      "outputs": [],
      "stateMutability": "nonpayable",
      "type": "function"
    },
    {
      "inputs": [
        {
          "internalType": "bytes32",
          "name": "role",
          "type": "bytes32"
        },
        {
          "internalType": "address",
          "name": "account",
          "type": "address"
        }
      ],
      "name": "hasRole",
      "outputs": [
        {
          "internalType": "bool",
          "name": "",
          "type": "bool"
        }
      ],
      "stateMutability": "view",
      "type": "function"
    },
    {
      "inputs": [
        {
          "internalType": "bytes32",
          "name": "role",
          "type": "bytes32"
        },
        {
          "internalType": "address",
          "name": "account",
          "type": "address"
        }
      ],
      "name": "renounceRole",
      "outputs": [],
      "stateMutability": "nonpayable",
      "type": "function"
    },
    {
      "inputs": [
        {
          "internalType": "bytes32",
          "name": "role",
          "type": "bytes32"
        },
        {
          "internalType": "address",
          "name": "account",
          "type": "address"
        }
      ],
      "name": "revokeRole",
      "outputs": [],
      "stateMutability": "nonpayable",
      "type": "function"
    },
    {
      "stateMutability": "payable",
      "type": "receive"
    },
    {
      "inputs": [
        {
          "internalType": "address",
          "name": "_fld",
          "type": "address"
        }
      ],
      "name": "setFLD",
      "outputs": [],
      "stateMutability": "nonpayable",
      "type": "function"
    },
    {
      "inputs": [
        {
          "internalType": "address",
          "name": "_to",
          "type": "address"
        },
        {
          "internalType": "uint256",
          "name": "_amount",
          "type": "uint256"
        }
      ],
      "name": "approveFLD",
      "outputs": [],
      "stateMutability": "nonpayable",
      "type": "function"
    },
    {
      "inputs": [
        {
          "internalType": "address",
          "name": "_token",
          "type": "address"
        },
        {
          "internalType": "address",
          "name": "_to",
          "type": "address"
        },
        {
          "internalType": "uint256",
          "name": "_amount",
          "type": "uint256"
        }
      ],
      "name": "approveERC20",
      "outputs": [],
      "stateMutability": "nonpayable",
      "type": "function"
    },
    {
      "inputs": [],
      "name": "claimFLDAvailableAmount",
      "outputs": [
        {
          "internalType": "uint256",
          "name": "",
          "type": "uint256"
        }
      ],
      "stateMutability": "view",
      "type": "function"
    },
    {
      "inputs": [
        {
          "internalType": "address",
          "name": "_to",
          "type": "address"
        },
        {
          "internalType": "uint256",
          "name": "_amount",
          "type": "uint256"
        }
      ],
      "name": "claimFLD",
      "outputs": [
        {
          "internalType": "bool",
          "name": "",
          "type": "bool"
        }
      ],
      "stateMutability": "nonpayable",
      "type": "function"
    },
    {
      "inputs": [
        {
          "internalType": "address",
          "name": "_token",
          "type": "address"
        },
        {
          "internalType": "address",
          "name": "_to",
          "type": "address"
        },
        {
          "internalType": "uint256",
          "name": "_amount",
          "type": "uint256"
        }
      ],
      "name": "claimERC20",
      "outputs": [],
      "stateMutability": "nonpayable",
      "type": "function"
    }
  ],
  "bytecode": "0x60806040523480156200001157600080fd5b506200002d600080516020620013f58339815191523362000078565b62000057600080516020620013d5833981519152600080516020620013f583398151915262000088565b62000072600080516020620013d58339815191523362000078565b620001de565b620000848282620000da565b5050565b600082815260208190526040808220600201549051839285917fbd79b86ffe0ab8e8776151514217cd7cacd52c909f66475c3af44e129f0b00ff9190a460009182526020829052604090912060020155565b600082815260208181526040909120620000ff91839062000e0462000153821b17901c565b1562000084576200010f62000173565b6001600160a01b0316816001600160a01b0316837f2f8788117e7eff1d82e926ec794901d17c78024a50270940304540a733656f0d60405160405180910390a45050565b60006200016a836001600160a01b03841662000177565b90505b92915050565b3390565b6000620001858383620001c6565b620001bd575081546001818101845560008481526020808220909301849055845484825282860190935260409020919091556200016d565b5060006200016d565b60009081526001919091016020526040902054151590565b6111e780620001ee6000396000f3fe6080604052600436106101025760003560e01c806391d1485411610095578063d185a66b11610064578063d185a66b14610351578063d547741f14610384578063f6b86395146103bd578063f848091a146103f6578063fc5f18d31461043957610109565b806391d1485414610296578063a217fddf146102cf578063a8e5e4aa146102e4578063ca15c8731461032757610109565b806336568abe116100d157806336568abe146101cb57806357a03a9e1461020457806375b238fc146102515780639010d07c1461026657610109565b806319979bf21461010e578063248a9ca3146101355780632f2ff15d1461015f57806333bd2a491461019a57610109565b3661010957005b600080fd5b34801561011a57600080fd5b5061012361044e565b60408051918252519081900360200190f35b34801561014157600080fd5b506101236004803603602081101561015857600080fd5b503561051f565b34801561016b57600080fd5b506101986004803603604081101561018257600080fd5b50803590602001356001600160a01b0316610534565b005b3480156101a657600080fd5b506101af6105a0565b604080516001600160a01b039092168252519081900360200190f35b3480156101d757600080fd5b50610198600480360360408110156101ee57600080fd5b50803590602001356001600160a01b03166105af565b34801561021057600080fd5b5061023d6004803603604081101561022757600080fd5b506001600160a01b038135169060200135610610565b604080519115158252519081900360200190f35b34801561025d57600080fd5b50610123610801565b34801561027257600080fd5b506101af6004803603604081101561028957600080fd5b5080359060200135610825565b3480156102a257600080fd5b5061023d600480360360408110156102b957600080fd5b50803590602001356001600160a01b0316610844565b3480156102db57600080fd5b5061012361085c565b3480156102f057600080fd5b506101986004803603606081101561030757600080fd5b506001600160a01b03813581169160208101359091169060400135610861565b34801561033357600080fd5b506101236004803603602081101561034a57600080fd5b503561097f565b34801561035d57600080fd5b506101986004803603602081101561037457600080fd5b50356001600160a01b0316610996565b34801561039057600080fd5b50610198600480360360408110156103a757600080fd5b50803590602001356001600160a01b0316610a8e565b3480156103c957600080fd5b50610198600480360360408110156103e057600080fd5b506001600160a01b038135169060200135610ae7565b34801561040257600080fd5b506101986004803603606081101561041957600080fd5b506001600160a01b03813581169160208101359091169060400135610c05565b34801561044557600080fd5b50610123610df2565b600061046860008051602061116383398151915233610844565b6104a35760405162461bcd60e51b81526004018080602001828103825260218152602001806111426021913960400191505060405180910390fd5b600154604080516370a0823160e01b815230600482015290516001600160a01b03909216916370a0823191602480820192602092909190829003018186803b1580156104ee57600080fd5b505afa158015610502573d6000803e3d6000fd5b505050506040513d602081101561051857600080fd5b5051905090565b60009081526020819052604090206002015490565b60008281526020819052604090206002015461055790610552610e19565b610844565b6105925760405162461bcd60e51b815260040180806020018281038252602f8152602001806110e3602f913960400191505060405180910390fd5b61059c8282610e1d565b5050565b6001546001600160a01b031681565b6105b7610e19565b6001600160a01b0316816001600160a01b0316146106065760405162461bcd60e51b815260040180806020018281038252602f815260200180611183602f913960400191505060405180910390fd5b61059c8282610e86565b600061062a60008051602061116383398151915233610844565b6106655760405162461bcd60e51b81526004018080602001828103825260218152602001806111426021913960400191505060405180910390fd5b600154604080516370a0823160e01b815230600482015290516000926001600160a01b0316916370a08231916024808301926020929190829003018186803b1580156106b057600080fd5b505afa1580156106c4573d6000803e3d6000fd5b505050506040513d60208110156106da57600080fd5b5051905082811015610733576040805162461bcd60e51b815260206004820152601c60248201527f464c445661756c743a206e6f7420656e6f7567682062616c616e636500000000604482015290519081900360640190fd5b6001546040805163a9059cbb60e01b81526001600160a01b038781166004830152602482018790529151919092169163a9059cbb9160448083019260209291908290030181600087803b15801561078957600080fd5b505af115801561079d573d6000803e3d6000fd5b505050506040513d60208110156107b357600080fd5b50506040805184815290516001600160a01b0386169133917f635c8c907acbec4c073298d372fc7eb0c0c0d3d2bbcc29ae3fbd4c59899df07d9181900360200190a360019150505b92915050565b7fdf8b4c520ffe197c5343c6f5aec59570151ef9a492f2c624fd45ddde6135ec4281565b600082815260208190526040812061083d9083610eef565b9392505050565b600082815260208190526040812061083d9083610efb565b600081565b61087960008051602061116383398151915233610844565b6108b45760405162461bcd60e51b81526004018080602001828103825260218152602001806111426021913960400191505060405180910390fd5b826001600160a01b031663095ea7b383836040518363ffffffff1660e01b815260040180836001600160a01b0316815260200182815260200192505050602060405180830381600087803b15801561090b57600080fd5b505af115801561091f573d6000803e3d6000fd5b505050506040513d602081101561093557600080fd5b50506040805182815290516001600160a01b0380851692908616917f80da462ebfbe41cfc9bc015e7a9a3c7a2a73dbccede72d8ceb583606c27f8f909181900360200190a3505050565b60008181526020819052604081206107fb90610f10565b6109c07fdf8b4c520ffe197c5343c6f5aec59570151ef9a492f2c624fd45ddde6135ec4233610844565b610a11576040805162461bcd60e51b815260206004820181905260248201527f464c445661756c743a2043616c6c6572206973206e6f7420616e2061646d696e604482015290519081900360640190fd5b6001600160a01b038116610a6c576040805162461bcd60e51b815260206004820152601760248201527f464c445661756c743a20696e707574206973207a65726f000000000000000000604482015290519081900360640190fd5b600180546001600160a01b0319166001600160a01b0392909216919091179055565b600082815260208190526040902060020154610aac90610552610e19565b6106065760405162461bcd60e51b81526004018080602001828103825260308152602001806111126030913960400191505060405180910390fd5b610aff60008051602061116383398151915233610844565b610b3a5760405162461bcd60e51b81526004018080602001828103825260218152602001806111426021913960400191505060405180910390fd5b6001546040805163095ea7b360e01b81526001600160a01b038581166004830152602482018590529151919092169163095ea7b39160448083019260209291908290030181600087803b158015610b9057600080fd5b505af1158015610ba4573d6000803e3d6000fd5b505050506040513d6020811015610bba57600080fd5b50506001546040805183815290516001600160a01b038086169316917f80da462ebfbe41cfc9bc015e7a9a3c7a2a73dbccede72d8ceb583606c27f8f90919081900360200190a35050565b610c1d60008051602061116383398151915233610844565b610c585760405162461bcd60e51b81526004018080602001828103825260218152602001806111426021913960400191505060405180910390fd5b80836001600160a01b03166370a08231306040518263ffffffff1660e01b815260040180826001600160a01b0316815260200191505060206040518083038186803b158015610ca657600080fd5b505afa158015610cba573d6000803e3d6000fd5b505050506040513d6020811015610cd057600080fd5b50511015610d25576040805162461bcd60e51b815260206004820152601c60248201527f464c445661756c743a206e6f7420656e6f7567682062616c616e636500000000604482015290519081900360640190fd5b826001600160a01b031663a9059cbb83836040518363ffffffff1660e01b815260040180836001600160a01b0316815260200182815260200192505050602060405180830381600087803b158015610d7c57600080fd5b505af1158015610d90573d6000803e3d6000fd5b505050506040513d6020811015610da657600080fd5b50506040805182815290516001600160a01b03808516923392918716917f8b31e6b67ff36a72f02119847ba3ff340f6fd81aed2d21e19c3526dadc95a7739181900360200190a4505050565b60008051602061116383398151915281565b600061083d836001600160a01b038416610f1b565b3390565b6000828152602081905260409020610e359082610e04565b1561059c57610e42610e19565b6001600160a01b0316816001600160a01b0316837f2f8788117e7eff1d82e926ec794901d17c78024a50270940304540a733656f0d60405160405180910390a45050565b6000828152602081905260409020610e9e9082610f65565b1561059c57610eab610e19565b6001600160a01b0316816001600160a01b0316837ff6391f5c32d9c69d2a47ea670b442974b53935d1edc7fd64eb21e047a839171b60405160405180910390a45050565b600061083d8383610f7a565b600061083d836001600160a01b038416610fde565b60006107fb82610ff6565b6000610f278383610fde565b610f5d575081546001818101845560008481526020808220909301849055845484825282860190935260409020919091556107fb565b5060006107fb565b600061083d836001600160a01b038416610ffa565b81546000908210610fbc5760405162461bcd60e51b81526004018080602001828103825260228152602001806110c16022913960400191505060405180910390fd5b826000018281548110610fcb57fe5b9060005260206000200154905092915050565b60009081526001919091016020526040902054151590565b5490565b600081815260018301602052604081205480156110b6578354600019808301919081019060009087908390811061102d57fe5b906000526020600020015490508087600001848154811061104a57fe5b60009182526020808320909101929092558281526001898101909252604090209084019055865487908061107a57fe5b600190038181906000526020600020016000905590558660010160008781526020019081526020016000206000905560019450505050506107fb565b60009150506107fb56fe456e756d657261626c655365743a20696e646578206f7574206f6620626f756e6473416363657373436f6e74726f6c3a2073656e646572206d75737420626520616e2061646d696e20746f206772616e74416363657373436f6e74726f6c3a2073656e646572206d75737420626520616e2061646d696e20746f207265766f6b65464c445661756c743a2043616c6c6572206973206e6f74206120636c61696d6572e5667d34d7ea8d6fdb3aa71a0a5b85e4cf7f68356dd003cd638556b0eea2bce5416363657373436f6e74726f6c3a2063616e206f6e6c792072656e6f756e636520726f6c657320666f722073656c66a264697066735822122079a2609e9d188339741840b420bb939197d5926cb9da1f83b70625960938292f64736f6c63430007060033e5667d34d7ea8d6fdb3aa71a0a5b85e4cf7f68356dd003cd638556b0eea2bce5df8b4c520ffe197c5343c6f5aec59570151ef9a492f2c624fd45ddde6135ec42",
  "immutableReferences": {},
  "source": "//SPDX-License-Identifier: Unlicense\npragma solidity ^0.7.0;\n\nimport \"@openzeppelin/contracts/access/AccessControl.sol\";\nimport { IFLDVault } from \"../interfaces/IFLDVault.sol\";\nimport { IFLD } from \"../interfaces/IFLD.sol\";\nimport { IERC20 } from \"../interfaces/IERC20.sol\";\n\ncontract FLDVault is  IFLDVault , AccessControl {\n    bytes32 public constant ADMIN_ROLE = keccak256(\"ADMIN\");\n    bytes32 public constant CLAIMER_ROLE = keccak256(\"CLAIMER\");\n\n    IFLD public fld;\n\n    modifier onlyOwner() {\n        require(hasRole(ADMIN_ROLE, msg.sender), \"FLDVault: Caller is not an admin\");\n        _;\n    }\n\n    modifier onlyClaimer() {\n        require(hasRole(CLAIMER_ROLE, msg.sender), \"FLDVault: Caller is not a claimer\");\n        _;\n    }\n\n    //////////////////////////////\n    // Events\n    //////////////////////////////\n\n    event ClaimedFLD(address indexed from, address indexed to, uint256 amount);\n    event ClaimedToken(address indexed token, address indexed from, address indexed to, uint256 amount);\n    event Approved(address indexed token, address indexed to, uint256 amount);\n\n    constructor() {\n        _setupRole(ADMIN_ROLE, msg.sender);\n\n        _setRoleAdmin(CLAIMER_ROLE, ADMIN_ROLE);\n        _setupRole(CLAIMER_ROLE, msg.sender);\n    }\n\n\n    receive() external payable {\n\n    }\n\n    function setFLD(address _fld) external override onlyOwner {\n        require(_fld != address(0), \"FLDVault: input is zero\");\n        fld = IFLD(_fld);\n    }\n\n    function approveFLD(address _to, uint256 _amount) external override onlyClaimer {\n        fld.approve(_to, _amount);\n        emit Approved(address(fld), _to, _amount);\n    }\n\n    /// @notice Approves ERC20 token to specific address\n    /// @param _token Token address\n    /// @param _to Address to be approved\n    /// @param _amount Approving ERC20 token amount\n    function approveERC20(address _token, address _to, uint256 _amount) external override onlyClaimer {\n        IERC20(_token).approve(_to, _amount);\n        emit Approved(address(_token), _to, _amount);\n    }\n\n    function claimFLDAvailableAmount()\n        external\n        view\n        onlyClaimer\n        returns (uint256)\n    {\n        return  fld.balanceOf(address(this));\n    }\n\n\n    function claimFLD(address _to, uint256 _amount)\n        external\n        override\n        onlyClaimer\n        returns (bool)\n    {\n        uint256 fldBalance = fld.balanceOf(address(this));\n        require(fldBalance >= _amount, \"FLDVault: not enough balance\");\n\n        fld.transfer(_to, _amount);\n        emit ClaimedFLD(msg.sender, _to, _amount);\n        return true;\n    }\n\n    /// @notice Transfers ERC20 token to specific address\n    /// @param _to Address to receive\n    /// @param _amount Transfer ERC20 token amount\n    function claimERC20(address _token, address _to, uint256 _amount)\n        external\n        override\n        onlyClaimer\n    {\n        require(IERC20(_token).balanceOf(address(this)) >= _amount, \"FLDVault: not enough balance\");\n        IERC20(_token).transfer(_to, _amount);\n        emit ClaimedToken(_token, msg.sender, _to, _amount);\n    }\n\n    function _toRAY(uint256 v) internal pure returns (uint256) {\n        return v * 10 ** 9;\n    }\n\n    function _toWAD(uint256 v) internal pure returns (uint256) {\n        return v / 10 ** 9;\n    }\n}\n",
  "sourcePath": "/Users/zena/ico2.0/ico20-contracts/contracts/tokens/FLDVault.sol",
  "compiler": {
    "name": "solc",
    "version": "0.7.6+commit.7338295f.Emscripten.clang"
  },
  "schemaVersion": "3.3.4",
  "updatedAt": "2021-04-19T05:52:38.604Z",
  "devdoc": {
    "kind": "dev",
    "methods": {
      "approveERC20(address,address,uint256)": {
        "params": {
          "_amount": "Approving ERC20 token amount",
          "_to": "Address to be approved",
          "_token": "Token address"
        }
      },
      "claimERC20(address,address,uint256)": {
        "params": {
          "_amount": "Transfer ERC20 token amount",
          "_to": "Address to receive"
        }
      },
      "getRoleAdmin(bytes32)": {
        "details": "Returns the admin role that controls `role`. See {grantRole} and {revokeRole}. To change a role's admin, use {_setRoleAdmin}."
      },
      "getRoleMember(bytes32,uint256)": {
        "details": "Returns one of the accounts that have `role`. `index` must be a value between 0 and {getRoleMemberCount}, non-inclusive. Role bearers are not sorted in any particular way, and their ordering may change at any point. WARNING: When using {getRoleMember} and {getRoleMemberCount}, make sure you perform all queries on the same block. See the following https://forum.openzeppelin.com/t/iterating-over-elements-on-enumerableset-in-openzeppelin-contracts/2296[forum post] for more information."
      },
      "getRoleMemberCount(bytes32)": {
        "details": "Returns the number of accounts that have `role`. Can be used together with {getRoleMember} to enumerate all bearers of a role."
      },
      "grantRole(bytes32,address)": {
        "details": "Grants `role` to `account`. If `account` had not been already granted `role`, emits a {RoleGranted} event. Requirements: - the caller must have ``role``'s admin role."
      },
      "hasRole(bytes32,address)": {
        "details": "Returns `true` if `account` has been granted `role`."
      },
      "renounceRole(bytes32,address)": {
        "details": "Revokes `role` from the calling account. Roles are often managed via {grantRole} and {revokeRole}: this function's purpose is to provide a mechanism for accounts to lose their privileges if they are compromised (such as when a trusted device is misplaced). If the calling account had been granted `role`, emits a {RoleRevoked} event. Requirements: - the caller must be `account`."
      },
      "revokeRole(bytes32,address)": {
        "details": "Revokes `role` from `account`. If `account` had been granted `role`, emits a {RoleRevoked} event. Requirements: - the caller must have ``role``'s admin role."
      }
    },
    "version": 1
  },
  "userdoc": {
    "kind": "user",
    "methods": {
      "approveERC20(address,address,uint256)": {
        "notice": "Approves ERC20 token to specific address"
      },
      "claimERC20(address,address,uint256)": {
        "notice": "Transfers ERC20 token to specific address"
      }
    },
    "version": 1
  }
}