{
  "contractName": "Layer2Base",
  "abi": [
    {
      "anonymous": false,
      "inputs": [
        {
          "indexed": false,
          "internalType": "uint256",
          "name": "forkNumber",
          "type": "uint256"
        },
        {
          "indexed": false,
          "internalType": "uint256",
          "name": "blockNumber",
          "type": "uint256"
        }
      ],
      "name": "BlockFinalized",
      "type": "event"
    },
    {
      "anonymous": false,
      "inputs": [
        {
          "indexed": false,
          "internalType": "uint256",
          "name": "fork",
          "type": "uint256"
        },
        {
          "indexed": false,
          "internalType": "uint256",
          "name": "epochNumber",
          "type": "uint256"
        },
        {
          "indexed": false,
          "internalType": "uint256",
          "name": "blockNumber",
          "type": "uint256"
        },
        {
          "indexed": false,
          "internalType": "bool",
          "name": "isRequest",
          "type": "bool"
        },
        {
          "indexed": false,
          "internalType": "bool",
          "name": "userActivated",
          "type": "bool"
        }
      ],
      "name": "BlockSubmitted",
      "type": "event"
    },
    {
      "anonymous": false,
      "inputs": [
        {
          "indexed": false,
          "internalType": "uint256",
          "name": "requestId",
          "type": "uint256"
        },
        {
          "indexed": false,
          "internalType": "address",
          "name": "requestor",
          "type": "address"
        },
        {
          "indexed": false,
          "internalType": "address",
          "name": "to",
          "type": "address"
        },
        {
          "indexed": false,
          "internalType": "bytes",
          "name": "trieKey",
          "type": "bytes"
        },
        {
          "indexed": false,
          "internalType": "bytes32",
          "name": "trieValue",
          "type": "bytes32"
        }
      ],
      "name": "ERUCreated",
      "type": "event"
    },
    {
      "anonymous": false,
      "inputs": [
        {
          "indexed": false,
          "internalType": "uint256",
          "name": "forkNumber",
          "type": "uint256"
        },
        {
          "indexed": false,
          "internalType": "uint256",
          "name": "epochNumber",
          "type": "uint256"
        }
      ],
      "name": "EpochFilled",
      "type": "event"
    },
    {
      "anonymous": false,
      "inputs": [
        {
          "indexed": false,
          "internalType": "uint256",
          "name": "forkNumber",
          "type": "uint256"
        },
        {
          "indexed": false,
          "internalType": "uint256",
          "name": "epochNumber",
          "type": "uint256"
        }
      ],
      "name": "EpochFilling",
      "type": "event"
    },
    {
      "anonymous": false,
      "inputs": [
        {
          "indexed": false,
          "internalType": "uint256",
          "name": "forkNumber",
          "type": "uint256"
        },
        {
          "indexed": false,
          "internalType": "uint256",
          "name": "epochNumber",
          "type": "uint256"
        },
        {
          "indexed": false,
          "internalType": "uint256",
          "name": "startBlockNumber",
          "type": "uint256"
        },
        {
          "indexed": false,
          "internalType": "uint256",
          "name": "endBlockNumber",
          "type": "uint256"
        }
      ],
      "name": "EpochFinalized",
      "type": "event"
    },
    {
      "anonymous": false,
      "inputs": [
        {
          "indexed": false,
          "internalType": "uint256",
          "name": "forkNumber",
          "type": "uint256"
        },
        {
          "indexed": false,
          "internalType": "uint256",
          "name": "epochNumber",
          "type": "uint256"
        },
        {
          "indexed": false,
          "internalType": "uint256",
          "name": "startBlockNumber",
          "type": "uint256"
        },
        {
          "indexed": false,
          "internalType": "uint256",
          "name": "endBlockNumber",
          "type": "uint256"
        },
        {
          "indexed": false,
          "internalType": "uint256",
          "name": "requestStart",
          "type": "uint256"
        },
        {
          "indexed": false,
          "internalType": "uint256",
          "name": "requestEnd",
          "type": "uint256"
        },
        {
          "indexed": false,
          "internalType": "bool",
          "name": "epochIsEmpty",
          "type": "bool"
        },
        {
          "indexed": false,
          "internalType": "bool",
          "name": "isRequest",
          "type": "bool"
        },
        {
          "indexed": false,
          "internalType": "bool",
          "name": "userActivated",
          "type": "bool"
        },
        {
          "indexed": false,
          "internalType": "bool",
          "name": "rebase",
          "type": "bool"
        }
      ],
      "name": "EpochPrepared",
      "type": "event"
    },
    {
      "anonymous": false,
      "inputs": [
        {
          "indexed": false,
          "internalType": "uint256",
          "name": "forkNumber",
          "type": "uint256"
        },
        {
          "indexed": false,
          "internalType": "uint256",
          "name": "epochNumber",
          "type": "uint256"
        },
        {
          "indexed": false,
          "internalType": "uint256",
          "name": "startBlockNumber",
          "type": "uint256"
        },
        {
          "indexed": false,
          "internalType": "uint256",
          "name": "endBlockNumber",
          "type": "uint256"
        },
        {
          "indexed": false,
          "internalType": "uint256",
          "name": "requestStart",
          "type": "uint256"
        },
        {
          "indexed": false,
          "internalType": "uint256",
          "name": "requestEnd",
          "type": "uint256"
        },
        {
          "indexed": false,
          "internalType": "bool",
          "name": "epochIsEmpty",
          "type": "bool"
        },
        {
          "indexed": false,
          "internalType": "bool",
          "name": "isRequest",
          "type": "bool"
        },
        {
          "indexed": false,
          "internalType": "bool",
          "name": "userActivated",
          "type": "bool"
        }
      ],
      "name": "EpochRebased",
      "type": "event"
    },
    {
      "anonymous": false,
      "inputs": [
        {
          "indexed": false,
          "internalType": "uint256",
          "name": "newFork",
          "type": "uint256"
        },
        {
          "indexed": false,
          "internalType": "uint256",
          "name": "epochNumber",
          "type": "uint256"
        },
        {
          "indexed": false,
          "internalType": "uint256",
          "name": "forkedBlockNumber",
          "type": "uint256"
        }
      ],
      "name": "Forked",
      "type": "event"
    },
    {
      "anonymous": false,
      "inputs": [
        {
          "indexed": false,
          "internalType": "address",
          "name": "_newOperator",
          "type": "address"
        }
      ],
      "name": "OperatorChanged",
      "type": "event"
    },
    {
      "anonymous": false,
      "inputs": [
        {
          "indexed": false,
          "internalType": "uint256",
          "name": "requestId",
          "type": "uint256"
        },
        {
          "indexed": false,
          "internalType": "bool",
          "name": "userActivated",
          "type": "bool"
        }
      ],
      "name": "RequestApplied",
      "type": "event"
    },
    {
      "anonymous": false,
      "inputs": [
        {
          "indexed": false,
          "internalType": "uint256",
          "name": "requestId",
          "type": "uint256"
        },
        {
          "indexed": false,
          "internalType": "bool",
          "name": "userActivated",
          "type": "bool"
        }
      ],
      "name": "RequestChallenged",
      "type": "event"
    },
    {
      "anonymous": false,
      "inputs": [
        {
          "indexed": false,
          "internalType": "uint256",
          "name": "requestId",
          "type": "uint256"
        },
        {
          "indexed": false,
          "internalType": "address",
          "name": "requestor",
          "type": "address"
        },
        {
          "indexed": false,
          "internalType": "address",
          "name": "to",
          "type": "address"
        },
        {
          "indexed": false,
          "internalType": "uint256",
          "name": "weiAmount",
          "type": "uint256"
        },
        {
          "indexed": false,
          "internalType": "bytes32",
          "name": "trieKey",
          "type": "bytes32"
        },
        {
          "indexed": false,
          "internalType": "bytes",
          "name": "trieValue",
          "type": "bytes"
        },
        {
          "indexed": false,
          "internalType": "bool",
          "name": "isExit",
          "type": "bool"
        },
        {
          "indexed": false,
          "internalType": "bool",
          "name": "userActivated",
          "type": "bool"
        }
      ],
      "name": "RequestCreated",
      "type": "event"
    },
    {
      "anonymous": false,
      "inputs": [
        {
          "indexed": false,
          "internalType": "uint256",
          "name": "requestId",
          "type": "uint256"
        },
        {
          "indexed": false,
          "internalType": "bool",
          "name": "userActivated",
          "type": "bool"
        }
      ],
      "name": "RequestFinalized",
      "type": "event"
    },
    {
      "anonymous": false,
      "inputs": [
        {
          "indexed": false,
          "internalType": "address",
          "name": "contractInRootchain",
          "type": "address"
        },
        {
          "indexed": false,
          "internalType": "address",
          "name": "contractInChildchain",
          "type": "address"
        }
      ],
      "name": "RequestableContractMapped",
      "type": "event"
    },
    {
      "anonymous": false,
      "inputs": [
        {
          "indexed": false,
          "internalType": "bool",
          "name": "userActivated",
          "type": "bool"
        }
      ],
      "name": "SessionTimeout",
      "type": "event"
    },
    {
      "constant": true,
      "inputs": [],
      "name": "COST_ERO",
      "outputs": [
        {
          "internalType": "uint256",
          "name": "",
          "type": "uint256"
        }
      ],
      "payable": false,
      "stateMutability": "view",
      "type": "function"
    },
    {
      "constant": true,
      "inputs": [],
      "name": "COST_ERU",
      "outputs": [
        {
          "internalType": "uint256",
          "name": "",
          "type": "uint256"
        }
      ],
      "payable": false,
      "stateMutability": "view",
      "type": "function"
    },
    {
      "constant": true,
      "inputs": [],
      "name": "COST_NRB",
      "outputs": [
        {
          "internalType": "uint256",
          "name": "",
          "type": "uint256"
        }
      ],
      "payable": false,
      "stateMutability": "view",
      "type": "function"
    },
    {
      "constant": true,
      "inputs": [],
      "name": "COST_ORB",
      "outputs": [
        {
          "internalType": "uint256",
          "name": "",
          "type": "uint256"
        }
      ],
      "payable": false,
      "stateMutability": "view",
      "type": "function"
    },
    {
      "constant": true,
      "inputs": [],
      "name": "COST_URB",
      "outputs": [
        {
          "internalType": "uint256",
          "name": "",
          "type": "uint256"
        }
      ],
      "payable": false,
      "stateMutability": "view",
      "type": "function"
    },
    {
      "constant": true,
      "inputs": [],
      "name": "COST_URB_PREPARE",
      "outputs": [
        {
          "internalType": "uint256",
          "name": "",
          "type": "uint256"
        }
      ],
      "payable": false,
      "stateMutability": "view",
      "type": "function"
    },
    {
      "constant": true,
      "inputs": [],
      "name": "CP_COMPUTATION",
      "outputs": [
        {
          "internalType": "uint256",
          "name": "",
          "type": "uint256"
        }
      ],
      "payable": false,
      "stateMutability": "view",
      "type": "function"
    },
    {
      "constant": true,
      "inputs": [],
      "name": "CP_EXIT",
      "outputs": [
        {
          "internalType": "uint256",
          "name": "",
          "type": "uint256"
        }
      ],
      "payable": false,
      "stateMutability": "view",
      "type": "function"
    },
    {
      "constant": true,
      "inputs": [],
      "name": "CP_WITHHOLDING",
      "outputs": [
        {
          "internalType": "uint256",
          "name": "",
          "type": "uint256"
        }
      ],
      "payable": false,
      "stateMutability": "view",
      "type": "function"
    },
    {
      "constant": true,
      "inputs": [],
      "name": "EROIdToFinalize",
      "outputs": [
        {
          "internalType": "uint256",
          "name": "",
          "type": "uint256"
        }
      ],
      "payable": false,
      "stateMutability": "view",
      "type": "function"
    },
    {
      "constant": true,
      "inputs": [
        {
          "internalType": "uint256",
          "name": "",
          "type": "uint256"
        }
      ],
      "name": "EROs",
      "outputs": [
        {
          "internalType": "uint64",
          "name": "timestamp",
          "type": "uint64"
        },
        {
          "internalType": "bool",
          "name": "isExit",
          "type": "bool"
        },
        {
          "internalType": "bool",
          "name": "isTransfer",
          "type": "bool"
        },
        {
          "internalType": "bool",
          "name": "finalized",
          "type": "bool"
        },
        {
          "internalType": "bool",
          "name": "challenged",
          "type": "bool"
        },
        {
          "internalType": "uint128",
          "name": "value",
          "type": "uint128"
        },
        {
          "internalType": "address payable",
          "name": "requestor",
          "type": "address"
        },
        {
          "internalType": "address",
          "name": "to",
          "type": "address"
        },
        {
          "internalType": "bytes32",
          "name": "trieKey",
          "type": "bytes32"
        },
        {
          "internalType": "bytes32",
          "name": "hash",
          "type": "bytes32"
        },
        {
          "internalType": "bytes",
          "name": "trieValue",
          "type": "bytes"
        }
      ],
      "payable": false,
      "stateMutability": "view",
      "type": "function"
    },
    {
      "constant": true,
      "inputs": [],
      "name": "ERUIdToFinalize",
      "outputs": [
        {
          "internalType": "uint256",
          "name": "",
          "type": "uint256"
        }
      ],
      "payable": false,
      "stateMutability": "view",
      "type": "function"
    },
    {
      "constant": true,
      "inputs": [
        {
          "internalType": "uint256",
          "name": "",
          "type": "uint256"
        }
      ],
      "name": "ERUs",
      "outputs": [
        {
          "internalType": "uint64",
          "name": "timestamp",
          "type": "uint64"
        },
        {
          "internalType": "bool",
          "name": "isExit",
          "type": "bool"
        },
        {
          "internalType": "bool",
          "name": "isTransfer",
          "type": "bool"
        },
        {
          "internalType": "bool",
          "name": "finalized",
          "type": "bool"
        },
        {
          "internalType": "bool",
          "name": "challenged",
          "type": "bool"
        },
        {
          "internalType": "uint128",
          "name": "value",
          "type": "uint128"
        },
        {
          "internalType": "address payable",
          "name": "requestor",
          "type": "address"
        },
        {
          "internalType": "address",
          "name": "to",
          "type": "address"
        },
        {
          "internalType": "bytes32",
          "name": "trieKey",
          "type": "bytes32"
        },
        {
          "internalType": "bytes32",
          "name": "hash",
          "type": "bytes32"
        },
        {
          "internalType": "bytes",
          "name": "trieValue",
          "type": "bytes"
        }
      ],
      "payable": false,
      "stateMutability": "view",
      "type": "function"
    },
    {
      "constant": true,
      "inputs": [],
      "name": "NRELength",
      "outputs": [
        {
          "internalType": "uint256",
          "name": "",
          "type": "uint256"
        }
      ],
      "payable": false,
      "stateMutability": "view",
      "type": "function"
    },
    {
      "constant": true,
      "inputs": [],
      "name": "NULL_ADDRESS",
      "outputs": [
        {
          "internalType": "address",
          "name": "",
          "type": "address"
        }
      ],
      "payable": false,
      "stateMutability": "view",
      "type": "function"
    },
    {
      "constant": true,
      "inputs": [
        {
          "internalType": "uint256",
          "name": "",
          "type": "uint256"
        }
      ],
      "name": "ORBs",
      "outputs": [
        {
          "internalType": "bool",
          "name": "submitted",
          "type": "bool"
        },
        {
          "internalType": "uint64",
          "name": "numEnter",
          "type": "uint64"
        },
        {
          "internalType": "uint64",
          "name": "epochNumber",
          "type": "uint64"
        },
        {
          "internalType": "uint64",
          "name": "requestStart",
          "type": "uint64"
        },
        {
          "internalType": "uint64",
          "name": "requestEnd",
          "type": "uint64"
        },
        {
          "internalType": "address",
          "name": "trie",
          "type": "address"
        }
      ],
      "payable": false,
      "stateMutability": "view",
      "type": "function"
    },
    {
      "constant": true,
      "inputs": [],
      "name": "PREPARE_TIMEOUT",
      "outputs": [
        {
          "internalType": "uint256",
          "name": "",
          "type": "uint256"
        }
      ],
      "payable": false,
      "stateMutability": "view",
      "type": "function"
    },
    {
      "constant": true,
      "inputs": [],
      "name": "REQUEST_GAS",
      "outputs": [
        {
          "internalType": "uint256",
          "name": "",
          "type": "uint256"
        }
      ],
      "payable": false,
      "stateMutability": "view",
      "type": "function"
    },
    {
      "constant": true,
      "inputs": [
        {
          "internalType": "uint256",
          "name": "",
          "type": "uint256"
        }
      ],
      "name": "URBs",
      "outputs": [
        {
          "internalType": "bool",
          "name": "submitted",
          "type": "bool"
        },
        {
          "internalType": "uint64",
          "name": "numEnter",
          "type": "uint64"
        },
        {
          "internalType": "uint64",
          "name": "epochNumber",
          "type": "uint64"
        },
        {
          "internalType": "uint64",
          "name": "requestStart",
          "type": "uint64"
        },
        {
          "internalType": "uint64",
          "name": "requestEnd",
          "type": "uint64"
        },
        {
          "internalType": "address",
          "name": "trie",
          "type": "address"
        }
      ],
      "payable": false,
      "stateMutability": "view",
      "type": "function"
    },
    {
      "constant": true,
      "inputs": [],
      "name": "currentFork",
      "outputs": [
        {
          "internalType": "uint256",
          "name": "",
          "type": "uint256"
        }
      ],
      "payable": false,
      "stateMutability": "view",
      "type": "function"
    },
    {
      "constant": true,
      "inputs": [],
      "name": "development",
      "outputs": [
        {
          "internalType": "bool",
          "name": "",
          "type": "bool"
        }
      ],
      "payable": false,
      "stateMutability": "view",
      "type": "function"
    },
    {
      "constant": true,
      "inputs": [],
      "name": "epochHandler",
      "outputs": [
        {
          "internalType": "address",
          "name": "",
          "type": "address"
        }
      ],
      "payable": false,
      "stateMutability": "view",
      "type": "function"
    },
    {
      "constant": true,
      "inputs": [],
      "name": "etherToken",
      "outputs": [
        {
          "internalType": "address",
          "name": "",
          "type": "address"
        }
      ],
      "payable": false,
      "stateMutability": "view",
      "type": "function"
    },
    {
      "constant": true,
      "inputs": [
        {
          "internalType": "uint256",
          "name": "",
          "type": "uint256"
        }
      ],
      "name": "firstFilledORENumber",
      "outputs": [
        {
          "internalType": "uint256",
          "name": "",
          "type": "uint256"
        }
      ],
      "payable": false,
      "stateMutability": "view",
      "type": "function"
    },
    {
      "constant": true,
      "inputs": [
        {
          "internalType": "uint256",
          "name": "",
          "type": "uint256"
        }
      ],
      "name": "firstNonEmptyRequestEpoch",
      "outputs": [
        {
          "internalType": "uint256",
          "name": "",
          "type": "uint256"
        }
      ],
      "payable": false,
      "stateMutability": "view",
      "type": "function"
    },
    {
      "constant": true,
      "inputs": [
        {
          "internalType": "uint256",
          "name": "",
          "type": "uint256"
        }
      ],
      "name": "forks",
      "outputs": [
        {
          "internalType": "uint64",
          "name": "forkedBlock",
          "type": "uint64"
        },
        {
          "internalType": "uint64",
          "name": "firstEpoch",
          "type": "uint64"
        },
        {
          "internalType": "uint64",
          "name": "lastEpoch",
          "type": "uint64"
        },
        {
          "internalType": "uint64",
          "name": "firstBlock",
          "type": "uint64"
        },
        {
          "internalType": "uint64",
          "name": "lastBlock",
          "type": "uint64"
        },
        {
          "internalType": "uint64",
          "name": "lastFinalizedEpoch",
          "type": "uint64"
        },
        {
          "internalType": "uint64",
          "name": "lastFinalizedBlock",
          "type": "uint64"
        },
        {
          "internalType": "uint64",
          "name": "timestamp",
          "type": "uint64"
        },
        {
          "internalType": "uint64",
          "name": "firstEnterEpoch",
          "type": "uint64"
        },
        {
          "internalType": "uint64",
          "name": "lastEnterEpoch",
          "type": "uint64"
        },
        {
          "internalType": "uint64",
          "name": "nextBlockToRebase",
          "type": "uint64"
        },
        {
          "internalType": "bool",
          "name": "rebased",
          "type": "bool"
        }
      ],
      "payable": false,
      "stateMutability": "view",
      "type": "function"
    },
    {
      "constant": true,
      "inputs": [],
      "name": "isLayer2",
      "outputs": [
        {
          "internalType": "bool",
          "name": "",
          "type": "bool"
        }
      ],
      "payable": false,
      "stateMutability": "view",
      "type": "function"
    },
    {
      "constant": true,
      "inputs": [],
      "name": "lastAppliedBlockNumber",
      "outputs": [
        {
          "internalType": "uint256",
          "name": "",
          "type": "uint256"
        }
      ],
      "payable": false,
      "stateMutability": "view",
      "type": "function"
    },
    {
      "constant": true,
      "inputs": [],
      "name": "lastAppliedEpochNumber",
      "outputs": [
        {
          "internalType": "uint256",
          "name": "",
          "type": "uint256"
        }
      ],
      "payable": false,
      "stateMutability": "view",
      "type": "function"
    },
    {
      "constant": true,
      "inputs": [],
      "name": "lastAppliedForkNumber",
      "outputs": [
        {
          "internalType": "uint256",
          "name": "",
          "type": "uint256"
        }
      ],
      "payable": false,
      "stateMutability": "view",
      "type": "function"
    },
    {
      "constant": true,
      "inputs": [
        {
          "internalType": "uint256",
          "name": "",
          "type": "uint256"
        }
      ],
      "name": "lastNonEmptyRequestEpoch",
      "outputs": [
        {
          "internalType": "uint256",
          "name": "",
          "type": "uint256"
        }
      ],
      "payable": false,
      "stateMutability": "view",
      "type": "function"
    },
    {
      "constant": true,
      "inputs": [],
      "name": "numEnterForORB",
      "outputs": [
        {
          "internalType": "uint256",
          "name": "",
          "type": "uint256"
        }
      ],
      "payable": false,
      "stateMutability": "view",
      "type": "function"
    },
    {
      "constant": true,
      "inputs": [],
      "name": "operator",
      "outputs": [
        {
          "internalType": "address",
          "name": "",
          "type": "address"
        }
      ],
      "payable": false,
      "stateMutability": "view",
      "type": "function"
    },
    {
      "constant": true,
      "inputs": [
        {
          "internalType": "address",
          "name": "",
          "type": "address"
        }
      ],
      "name": "requestableContracts",
      "outputs": [
        {
          "internalType": "address",
          "name": "",
          "type": "address"
        }
      ],
      "payable": false,
      "stateMutability": "view",
      "type": "function"
    },
    {
      "constant": true,
      "inputs": [],
      "name": "seigManager",
      "outputs": [
        {
          "internalType": "address",
          "name": "",
          "type": "address"
        }
      ],
      "payable": false,
      "stateMutability": "view",
      "type": "function"
    },
    {
      "constant": true,
      "inputs": [],
      "name": "submitHandler",
      "outputs": [
        {
          "internalType": "address",
          "name": "",
          "type": "address"
        }
      ],
      "payable": false,
      "stateMutability": "view",
      "type": "function"
    }
  ],
  "bytecode": "0x608060405234801561001057600080fd5b50610927806100206000396000f3fe608060405234801561001057600080fd5b506004361061021c5760003560e01c8063b17fa6e911610125578063ca6f6380116100ad578063e259faf71161007c578063e259faf714610585578063e7b88b801461058d578063ea7f22a814610595578063f4f31de4146105b2578063fb788a27146105cf5761021c565b8063ca6f63801461053a578063d691acd814610221578063da0185f814610557578063de0ce17d1461057d5761021c565b8063b8066bcb116100f4578063b8066bcb146104b1578063c0e86064146104b9578063c2bc88fa14610522578063c54626cc1461052a578063c8ad329f146105325761021c565b8063b17fa6e91461037c578063b2ae9ba814610221578063b443f3cc14610384578063b6715647146104945761021c565b80636fb7f558116101a8578063882eed2c11610177578063882eed2c146103645780638b5172d0146102215780638eb288ca1461036c57806394be3aa514610221578063ab96da2d146103745761021c565b80636fb7f5581461031b57806372ecb9a8146103235780637b929c27146103405780638155717d1461035c5761021c565b8063192adc5b116101ef578063192adc5b1461022157806323691566146102535780632dc6bb7b1461025b5780634ba3a12614610263578063570ca735146102f75761021c565b8063033cfbed1461022157806308c4fff01461023b578063164bc2ae14610243578063183d2d1c1461024b575b600080fd5b6102296105d7565b60408051918252519081900360200190f35b6102296105dc565b6102296105e1565b6102296105e7565b6102296105ed565b6102296105f3565b6102806004803603602081101561027957600080fd5b50356105f9565b6040805167ffffffffffffffff9d8e1681529b8d1660208d0152998c168b8b0152978b1660608b0152958a1660808a015293891660a089015291881660c0880152871660e0870152861661010086015285166101208501529093166101408301529115156101608201529051908190036101800190f35b6102ff610671565b604080516001600160a01b039092168252519081900360200190f35b6102ff610685565b6102296004803603602081101561033957600080fd5b5035610694565b6103486106a6565b604080519115158252519081900360200190f35b6102296106af565b6103486106b4565b6102296106b9565b6102296106c0565b6102296106c6565b6103a16004803603602081101561039a57600080fd5b50356106cb565b6040805167ffffffffffffffff8d1681528b15156020808301919091528b151592820192909252891515606082015288151560808201526001600160801b03881660a08201526001600160a01b0380881660c0830152861660e082015261010081018590526101208101849052610160610140820181815284519183019190915283519192909161018084019185019080838360005b8381101561044f578181015183820152602001610437565b50505050905090810190601f16801561047c5780820380516001836020036101000a031916815260200191505b509c5050505050505050505050505060405180910390f35b610229600480360360208110156104aa57600080fd5b50356107ed565b6102ff6107ff565b6104d6600480360360208110156104cf57600080fd5b503561080e565b60408051961515875267ffffffffffffffff958616602088015293851686850152918416606086015290921660808401526001600160a01b0390911660a0830152519081900360c00190f35b610229610876565b61022961087b565b610229610881565b6102296004803603602081101561055057600080fd5b5035610887565b6102ff6004803603602081101561056d57600080fd5b50356001600160a01b0316610899565b6102ff6105d7565b6102ff6108b4565b6102ff6108c3565b6104d6600480360360208110156105ab57600080fd5b50356108d2565b6103a1600480360360208110156105c857600080fd5b50356108df565b6102296108ec565b600081565b600f81565b60105481565b60065481565b600d5481565b60135481565b60086020526000908152604090208054600182015460029092015467ffffffffffffffff80831693600160401b808504831694600160801b808204851695600160c01b92839004861695858116958581048216958482048316959182900483169484841694918204841693908204169160ff9104168c565b60005461010090046001600160a01b031681565b6004546001600160a01b031681565b60076020526000908152604090205481565b60005460ff1681565b600a81565b600181565b620186a081565b60055481565b601481565b600981815481106106d857fe5b6000918252602091829020600691909102018054600180830154600280850154600386015460048701546005880180546040805161010099831615999099026000190190911695909504601f81018b90048b0288018b0190955284875267ffffffffffffffff88169a50600160401b880460ff9081169a600160481b8a0482169a600160501b8b0483169a600160581b810490931699600160601b9093046001600160801b0316986001600160a01b03908116989716969093918301828280156107e35780601f106107b8576101008083540402835291602001916107e3565b820191906000526020600020905b8154815290600101906020018083116107c657829003601f168201915b505050505090508b565b600e6020526000908152604090205481565b6003546001600160a01b031681565b600c818154811061081b57fe5b60009182526020909120600290910201805460019091015460ff8216925067ffffffffffffffff6101008304811692600160481b8104821692600160881b9091048216918116906001600160a01b03600160401b9091041686565b603c81565b60145481565b60115481565b600f6020526000908152604090205481565b6015602052600090815260409020546001600160a01b031681565b6002546001600160a01b031681565b6001546001600160a01b031681565b600b818154811061081b57fe5b600a81815481106106d857fe5b6012548156fea265627a7a72315820521efd0a5e3931227a68079a70c8b64cf98c8cbb17c650849c18b5464f60392664736f6c634300050c0032",
  "source": "pragma solidity ^0.5.12;\n\nimport \"./Layer2Storage.sol\";\nimport \"./Layer2Event.sol\";\n\n/**\n * @notice Layer2Base provides functions to be delegated to other handlers,\n *         EpochHandler, SubmitHandler.\n */\ncontract Layer2Base is Layer2Storage, Layer2Event {\n  /**\n   * Constants\n   */\n\n  // solium-disable mixedcase\n  // EpochHandler functions\n  bytes4 constant PREPARE_TO_SUTMIBT_ORB_SIG = bytes4(keccak256(\"prepareORE()\"));\n  bytes4 constant PREPARE_TO_SUTMIBT_NRB_SIG = bytes4(keccak256(\"prepareNRE()\"));\n  bytes4 constant PREPARE_TO_SUTMIBT_URB_SIG = bytes4(keccak256(\"prepareToSubmitURB()\"));\n  bytes4 constant PREPARE_ORE_AFTER_URE_SIG = bytes4(keccak256(\"prepareOREAfterURE()\"));\n  bytes4 constant PREPARE_NRE_AFTER_URE_SIG = bytes4(keccak256(\"prepareNREAfterURE()\"));\n\n  // SubmitHandler functions\n  bytes4 constant SUBMIT_NRE_SIG = bytes4(keccak256(\"submitNRE(uint256,uint256,bytes32,bytes32,bytes32)\"));\n  bytes4 constant SUBMIT_ORB_SIG = bytes4(keccak256(\"submitORB(uint256,bytes32,bytes32,bytes32)\"));\n  bytes4 constant SUBMIT_URB_SIG = bytes4(keccak256(\"submitURB(uint256,bytes32,bytes32,bytes32)\"));\n  // solium-endable mixedcase\n\n  /**\n   * Functions\n   */\n  // delegate to epoch handler\n  function _delegatePrepareORE() internal {\n    // solium-disable-next-line security/no-low-level-calls, max-len, no-unused-vars\n    (bool success, bytes memory returnData) = epochHandler.delegatecall(abi.encodeWithSelector(PREPARE_TO_SUTMIBT_ORB_SIG));\n    require(success);\n  }\n\n  // delegate to epoch handler\n  function _delegatePrepareNRE() internal {\n    // solium-disable-next-line security/no-low-level-calls, max-len, no-unused-vars\n    (bool success, bytes memory returnData) = epochHandler.delegatecall(abi.encodeWithSelector(PREPARE_TO_SUTMIBT_NRB_SIG));\n    // (bool success, bytes memory returnData) = epochHandler.delegatecall(abi.encodeWithSelector(PREPARE_TO_SUTMIBT_NRB_SIG));\n    require(success);\n  }\n\n  // delegate to epoch handler\n  function _delegatePrepareToSubmitURB() internal {\n    // solium-disable-next-line security/no-low-level-calls, max-len, no-unused-vars\n    (bool success, bytes memory returnData) = epochHandler.delegatecall(abi.encodeWithSelector(PREPARE_TO_SUTMIBT_URB_SIG));\n    // (bool success, bytes memory returnData) = epochHandler.delegatecall(abi.encodeWithSelector(PREPARE_TO_SUTMIBT_NRB_SIG));\n    require(success);\n  }\n\n  // delegate to epoch handler\n  function _delegatePrepareOREAfterURE() internal {\n    // solium-disable-next-line security/no-low-level-calls, max-len, no-unused-vars\n    (bool success, bytes memory returnData) = epochHandler.delegatecall(abi.encodeWithSelector(PREPARE_ORE_AFTER_URE_SIG));\n    require(success);\n  }\n\n  // delegate to epoch handler\n  function _delegatePrepareNREAfterURE() internal {\n    // solium-disable-next-line security/no-low-level-calls, max-len, no-unused-vars\n    (bool success, bytes memory returnData) = epochHandler.delegatecall(abi.encodeWithSelector(PREPARE_NRE_AFTER_URE_SIG));\n    require(success);\n  }\n\n  // delegate to submit handler\n  function _delegateSubmitNRE(\n    uint _pos1, // forknumber + epochNumber\n    uint _pos2, // startBlockNumber + endBlockNumber\n    bytes32 _epochStateRoot,\n    bytes32 _epochTransactionsRoot,\n    bytes32 _epochReceiptsRoot\n  )\n    internal\n    returns (bool success)\n  {\n    // solium-disable-next-line security/no-low-level-calls, max-len, no-unused-vars\n    (bool success, bytes memory returnData) = submitHandler.delegatecall(abi.encodeWithSelector(\n      SUBMIT_NRE_SIG,\n      _pos1,\n      _pos2,\n      _epochStateRoot,\n      _epochTransactionsRoot,\n      _epochReceiptsRoot\n    ));\n    require(success);\n    return true;\n  }\n\n  // delegate to submit handler\n  function _delegateSubmitORB(\n    uint _pos,\n    bytes32 _statesRoot,\n    bytes32 _transactionsRoot,\n    bytes32 _receiptsRoot\n  )\n    internal\n    returns (bool success)\n  {\n    // solium-disable-next-line security/no-low-level-calls, max-len, no-unused-vars\n    (bool success, bytes memory returnData) = submitHandler.delegatecall(abi.encodeWithSelector(\n      SUBMIT_ORB_SIG,\n      _pos,\n      _statesRoot,\n      _transactionsRoot,\n      _receiptsRoot\n    ));\n    require(success);\n    return true;\n  }\n\n  // delegate to submit handler\n  function _delegateSubmitURB(\n    uint _pos,\n    bytes32 _statesRoot,\n    bytes32 _transactionsRoot,\n    bytes32 _receiptsRoot\n  )\n    internal\n    returns (bool success)\n  {\n    // solium-disable-next-line security/no-low-level-calls, max-len, no-unused-vars\n    (bool success, bytes memory returnData) = submitHandler.delegatecall(abi.encodeWithSelector(\n      SUBMIT_URB_SIG,\n      _pos,\n      _statesRoot,\n      _transactionsRoot,\n      _receiptsRoot\n    ));\n    require(success);\n    return true;\n  }\n}\n",
  "sourcePath": "/Users/kadyrbeknarmamatov/code/plasma-evm-contracts/contracts/Layer2Base.sol",
  "compiler": {
    "name": "solc",
    "version": "0.5.12+commit.7709ece9.Emscripten.clang"
  },
  "schemaVersion": "3.4.0",
  "updatedAt": "2021-05-17T06:17:55.305Z",
  "devdoc": {
    "methods": {}
  },
  "userdoc": {
    "methods": {},
    "notice": "Layer2Base provides functions to be delegated to other handlers,        EpochHandler, SubmitHandler."
  }
}