{
  "contractName": "LibSimpleStake",
  "abi": [
    {
      "inputs": [],
      "name": "BIGNUMBER",
      "outputs": [
        {
          "internalType": "uint256",
          "name": "",
          "type": "uint256"
        }
      ],
      "stateMutability": "view",
      "type": "function"
    },
    {
      "inputs": [],
      "name": "DECIMAL",
      "outputs": [
        {
          "internalType": "uint256",
          "name": "",
          "type": "uint256"
        }
      ],
      "stateMutability": "view",
      "type": "function"
    }
  ],
  "bytecode": "0x60a8610024600b82828239805160001a607314601757fe5b30600052607381538281f3fe7300000000000000000000000000000000000000003014608060405260043610603d5760003560e01c80636ab55fd9146042578063c71832b414605a575b600080fd5b60486060565b60408051918252519081900360200190f35b60486066565b6103e881565b670de0b6b3a76400008156fea2646970667358221220114ec6ad443bb3ec4a2777304ae24f13963a79767f7c561d50c8b6606794f6ec64736f6c63430007060033",
  "immutableReferences": {},
  "source": "//SPDX-License-Identifier: Unlicense\npragma solidity ^0.7.0;\n\nlibrary LibSimpleStake {\n\n    uint256 constant public BIGNUMBER = 10**18;\n    uint256 constant public DECIMAL = 10**3;\n\n    struct StakingInfo {\n        uint256 amount;\n        uint256 startBlock;\n        uint256 rewardBlock;\n        uint256 rewards;\n        bool requestedWithdrawal;\n        uint256 releaseDate;\n        uint256 releaseAmount;\n    }\n\n    // fldExchanges : Number of FLD exchanges per token ( need to oracle  , but don't use)\n    struct TokenInfo {\n        bool allowed;\n        uint256 fldExchangesWeight;\n        uint256 interestRate;\n    }\n\n    struct AnnualInterestRateInfo {\n        uint256 interestRate;\n        uint256 totalBlocks;\n    }\n}\n",
  "sourcePath": "/Users/zena/ico2.0/fld-v1/contracts/libraries/LibSimpleStake.sol",
  "compiler": {
    "name": "solc",
    "version": "0.7.6+commit.7338295f.Emscripten.clang"
  },
  "schemaVersion": "3.3.4",
  "updatedAt": "2021-04-15T02:35:32.611Z",
  "devdoc": {
    "kind": "dev",
    "methods": {},
    "version": 1
  },
  "userdoc": {
    "kind": "user",
    "methods": {},
    "version": 1
  }
}