{
  "contractName": "Mining",
  "abi": [
    {
      "anonymous": false,
      "inputs": [
        {
          "indexed": true,
          "internalType": "bytes32",
          "name": "role",
          "type": "bytes32"
        },
        {
          "indexed": true,
          "internalType": "bytes32",
          "name": "previousAdminRole",
          "type": "bytes32"
        },
        {
          "indexed": true,
          "internalType": "bytes32",
          "name": "newAdminRole",
          "type": "bytes32"
        }
      ],
      "name": "RoleAdminChanged",
      "type": "event"
    },
    {
      "anonymous": false,
      "inputs": [
        {
          "indexed": true,
          "internalType": "bytes32",
          "name": "role",
          "type": "bytes32"
        },
        {
          "indexed": true,
          "internalType": "address",
          "name": "account",
          "type": "address"
        },
        {
          "indexed": true,
          "internalType": "address",
          "name": "sender",
          "type": "address"
        }
      ],
      "name": "RoleGranted",
      "type": "event"
    },
    {
      "anonymous": false,
      "inputs": [
        {
          "indexed": true,
          "internalType": "bytes32",
          "name": "role",
          "type": "bytes32"
        },
        {
          "indexed": true,
          "internalType": "address",
          "name": "account",
          "type": "address"
        },
        {
          "indexed": true,
          "internalType": "address",
          "name": "sender",
          "type": "address"
        }
      ],
      "name": "RoleRevoked",
      "type": "event"
    },
    {
      "anonymous": false,
      "inputs": [
        {
          "indexed": true,
          "internalType": "address",
          "name": "paytoken",
          "type": "address"
        },
        {
          "indexed": true,
          "internalType": "address",
          "name": "purchaser",
          "type": "address"
        },
        {
          "indexed": false,
          "internalType": "uint256",
          "name": "value",
          "type": "uint256"
        },
        {
          "indexed": false,
          "internalType": "uint256",
          "name": "duration",
          "type": "uint256"
        },
        {
          "indexed": false,
          "internalType": "uint256",
          "name": "amount",
          "type": "uint256"
        }
      ],
      "name": "TokenPurchase",
      "type": "event"
    },
    {
      "anonymous": false,
      "inputs": [
        {
          "indexed": true,
          "internalType": "address",
          "name": "paytoken",
          "type": "address"
        },
        {
          "indexed": true,
          "internalType": "address",
          "name": "purchaser",
          "type": "address"
        },
        {
          "indexed": false,
          "internalType": "uint256",
          "name": "value",
          "type": "uint256"
        },
        {
          "indexed": false,
          "internalType": "uint256",
          "name": "duration",
          "type": "uint256"
        },
        {
          "indexed": false,
          "internalType": "uint256",
          "name": "amount",
          "type": "uint256"
        }
      ],
      "name": "TokenRePurchase",
      "type": "event"
    },
    {
      "anonymous": false,
      "inputs": [
        {
          "indexed": true,
          "internalType": "address",
          "name": "paytoken",
          "type": "address"
        },
        {
          "indexed": true,
          "internalType": "address",
          "name": "from",
          "type": "address"
        },
        {
          "indexed": false,
          "internalType": "address",
          "name": "token",
          "type": "address"
        },
        {
          "indexed": false,
          "internalType": "uint256",
          "name": "value",
          "type": "uint256"
        }
      ],
      "name": "Withdraw",
      "type": "event"
    },
    {
      "inputs": [],
      "name": "ADMIN_ROLE",
      "outputs": [
        {
          "internalType": "bytes32",
          "name": "",
          "type": "bytes32"
        }
      ],
      "stateMutability": "view",
      "type": "function"
    },
    {
      "inputs": [],
      "name": "DEFAULT_ADMIN_ROLE",
      "outputs": [
        {
          "internalType": "bytes32",
          "name": "",
          "type": "bytes32"
        }
      ],
      "stateMutability": "view",
      "type": "function"
    },
    {
      "inputs": [],
      "name": "PHASE2_VAULT_HASH",
      "outputs": [
        {
          "internalType": "bytes32",
          "name": "",
          "type": "bytes32"
        }
      ],
      "stateMutability": "view",
      "type": "function"
    },
    {
      "inputs": [
        {
          "internalType": "uint256",
          "name": "_duration",
          "type": "uint256"
        },
        {
          "internalType": "uint256",
          "name": "_ratio",
          "type": "uint256"
        }
      ],
      "name": "addDurationMax",
      "outputs": [],
      "stateMutability": "nonpayable",
      "type": "function"
    },
    {
      "inputs": [
        {
          "internalType": "uint256",
          "name": "_amount",
          "type": "uint256"
        },
        {
          "internalType": "uint256",
          "name": "_duration",
          "type": "uint256"
        }
      ],
      "name": "calculateAmountLinearRatioByDuration",
      "outputs": [
        {
          "internalType": "uint256",
          "name": "_newAmount",
          "type": "uint256"
        }
      ],
      "stateMutability": "view",
      "type": "function"
    },
    {
      "inputs": [
        {
          "internalType": "uint256",
          "name": "_amount",
          "type": "uint256"
        },
        {
          "internalType": "uint256",
          "name": "_duration",
          "type": "uint256"
        }
      ],
      "name": "calculateAmountWithRatioByDuration",
      "outputs": [
        {
          "internalType": "uint256",
          "name": "newAmount",
          "type": "uint256"
        }
      ],
      "stateMutability": "view",
      "type": "function"
    },
    {
      "inputs": [
        {
          "internalType": "uint256",
          "name": "_amount",
          "type": "uint256"
        },
        {
          "internalType": "uint256",
          "name": "_index",
          "type": "uint256"
        }
      ],
      "name": "calculateAmountWithRatioByIndex",
      "outputs": [
        {
          "internalType": "uint256",
          "name": "newAmount",
          "type": "uint256"
        }
      ],
      "stateMutability": "view",
      "type": "function"
    },
    {
      "inputs": [
        {
          "internalType": "uint256",
          "name": "_defaultDuration",
          "type": "uint256"
        }
      ],
      "name": "changeDefaultDuration",
      "outputs": [],
      "stateMutability": "nonpayable",
      "type": "function"
    },
    {
      "inputs": [
        {
          "internalType": "uint256",
          "name": "_ratioType",
          "type": "uint256"
        }
      ],
      "name": "changeRewardRatioType",
      "outputs": [],
      "stateMutability": "nonpayable",
      "type": "function"
    },
    {
      "inputs": [
        {
          "internalType": "uint256",
          "name": "_startTime",
          "type": "uint256"
        },
        {
          "internalType": "uint256",
          "name": "_endTime",
          "type": "uint256"
        }
      ],
      "name": "changeStartEndTime",
      "outputs": [],
      "stateMutability": "nonpayable",
      "type": "function"
    },
    {
      "inputs": [
        {
          "internalType": "uint256",
          "name": "_uintMiningPeriods",
          "type": "uint256"
        }
      ],
      "name": "changeUintMiningPeriods",
      "outputs": [],
      "stateMutability": "nonpayable",
      "type": "function"
    },
    {
      "inputs": [
        {
          "internalType": "address",
          "name": "_vault",
          "type": "address"
        }
      ],
      "name": "changeVault",
      "outputs": [],
      "stateMutability": "nonpayable",
      "type": "function"
    },
    {
      "inputs": [
        {
          "internalType": "bytes32",
          "name": "_hash",
          "type": "bytes32"
        }
      ],
      "name": "changeVaultHashName",
      "outputs": [],
      "stateMutability": "nonpayable",
      "type": "function"
    },
    {
      "inputs": [],
      "name": "defaultDuration",
      "outputs": [
        {
          "internalType": "uint256",
          "name": "",
          "type": "uint256"
        }
      ],
      "stateMutability": "view",
      "type": "function"
    },
    {
      "inputs": [],
      "name": "endTime",
      "outputs": [
        {
          "internalType": "uint256",
          "name": "",
          "type": "uint256"
        }
      ],
      "stateMutability": "view",
      "type": "function"
    },
    {
      "inputs": [
        {
          "internalType": "uint256",
          "name": "_duration",
          "type": "uint256"
        }
      ],
      "name": "getLinearRatioByDuration",
      "outputs": [
        {
          "internalType": "uint256",
          "name": "ratio",
          "type": "uint256"
        }
      ],
      "stateMutability": "view",
      "type": "function"
    },
    {
      "inputs": [
        {
          "internalType": "uint256",
          "name": "_duration",
          "type": "uint256"
        }
      ],
      "name": "getRatioByDuration",
      "outputs": [
        {
          "internalType": "uint256",
          "name": "ratio",
          "type": "uint256"
        }
      ],
      "stateMutability": "view",
      "type": "function"
    },
    {
      "inputs": [
        {
          "internalType": "uint256",
          "name": "_index",
          "type": "uint256"
        }
      ],
      "name": "getRatioByIndex",
      "outputs": [
        {
          "internalType": "uint256",
          "name": "ratio",
          "type": "uint256"
        }
      ],
      "stateMutability": "view",
      "type": "function"
    },
    {
      "inputs": [
        {
          "internalType": "bytes32",
          "name": "role",
          "type": "bytes32"
        }
      ],
      "name": "getRoleAdmin",
      "outputs": [
        {
          "internalType": "bytes32",
          "name": "",
          "type": "bytes32"
        }
      ],
      "stateMutability": "view",
      "type": "function"
    },
    {
      "inputs": [
        {
          "internalType": "bytes32",
          "name": "role",
          "type": "bytes32"
        },
        {
          "internalType": "uint256",
          "name": "index",
          "type": "uint256"
        }
      ],
      "name": "getRoleMember",
      "outputs": [
        {
          "internalType": "address",
          "name": "",
          "type": "address"
        }
      ],
      "stateMutability": "view",
      "type": "function"
    },
    {
      "inputs": [
        {
          "internalType": "bytes32",
          "name": "role",
          "type": "bytes32"
        }
      ],
      "name": "getRoleMemberCount",
      "outputs": [
        {
          "internalType": "uint256",
          "name": "",
          "type": "uint256"
        }
      ],
      "stateMutability": "view",
      "type": "function"
    },
    {
      "inputs": [
        {
          "internalType": "bytes32",
          "name": "role",
          "type": "bytes32"
        },
        {
          "internalType": "address",
          "name": "account",
          "type": "address"
        }
      ],
      "name": "grantRole",
      "outputs": [],
      "stateMutability": "nonpayable",
      "type": "function"
    },
    {
      "inputs": [
        {
          "internalType": "bytes32",
          "name": "role",
          "type": "bytes32"
        },
        {
          "internalType": "address",
          "name": "account",
          "type": "address"
        }
      ],
      "name": "hasRole",
      "outputs": [
        {
          "internalType": "bool",
          "name": "",
          "type": "bool"
        }
      ],
      "stateMutability": "view",
      "type": "function"
    },
    {
      "inputs": [],
      "name": "maxRatio",
      "outputs": [
        {
          "internalType": "uint256",
          "name": "",
          "type": "uint256"
        }
      ],
      "stateMutability": "view",
      "type": "function"
    },
    {
      "inputs": [],
      "name": "paytoken",
      "outputs": [
        {
          "internalType": "address",
          "name": "",
          "type": "address"
        }
      ],
      "stateMutability": "view",
      "type": "function"
    },
    {
      "inputs": [],
      "name": "ratioType",
      "outputs": [
        {
          "internalType": "uint256",
          "name": "",
          "type": "uint256"
        }
      ],
      "stateMutability": "view",
      "type": "function"
    },
    {
      "inputs": [
        {
          "internalType": "uint256",
          "name": "",
          "type": "uint256"
        }
      ],
      "name": "ratios",
      "outputs": [
        {
          "internalType": "uint256",
          "name": "duration",
          "type": "uint256"
        },
        {
          "internalType": "uint256",
          "name": "ratio",
          "type": "uint256"
        }
      ],
      "stateMutability": "view",
      "type": "function"
    },
    {
      "inputs": [
        {
          "internalType": "bytes32",
          "name": "role",
          "type": "bytes32"
        },
        {
          "internalType": "address",
          "name": "account",
          "type": "address"
        }
      ],
      "name": "renounceRole",
      "outputs": [],
      "stateMutability": "nonpayable",
      "type": "function"
    },
    {
      "inputs": [
        {
          "internalType": "bytes32",
          "name": "role",
          "type": "bytes32"
        },
        {
          "internalType": "address",
          "name": "account",
          "type": "address"
        }
      ],
      "name": "revokeRole",
      "outputs": [],
      "stateMutability": "nonpayable",
      "type": "function"
    },
    {
      "inputs": [],
      "name": "startTime",
      "outputs": [
        {
          "internalType": "uint256",
          "name": "",
          "type": "uint256"
        }
      ],
      "stateMutability": "view",
      "type": "function"
    },
    {
      "inputs": [],
      "name": "token",
      "outputs": [
        {
          "internalType": "address",
          "name": "",
          "type": "address"
        }
      ],
      "stateMutability": "view",
      "type": "function"
    },
    {
      "inputs": [],
      "name": "uintMiningPeriods",
      "outputs": [
        {
          "internalType": "uint256",
          "name": "",
          "type": "uint256"
        }
      ],
      "stateMutability": "view",
      "type": "function"
    },
    {
      "inputs": [
        {
          "internalType": "address",
          "name": "",
          "type": "address"
        },
        {
          "internalType": "uint256",
          "name": "",
          "type": "uint256"
        }
      ],
      "name": "userLockStakedToken",
      "outputs": [
        {
          "internalType": "bool",
          "name": "released",
          "type": "bool"
        },
        {
          "internalType": "uint256",
          "name": "releaseTime",
          "type": "uint256"
        },
        {
          "internalType": "uint256",
          "name": "amount",
          "type": "uint256"
        }
      ],
      "stateMutability": "view",
      "type": "function"
    },
    {
      "inputs": [],
      "name": "vault",
      "outputs": [
        {
          "internalType": "address",
          "name": "",
          "type": "address"
        }
      ],
      "stateMutability": "view",
      "type": "function"
    },
    {
      "inputs": [],
      "name": "vaultHashName",
      "outputs": [
        {
          "internalType": "bytes32",
          "name": "",
          "type": "bytes32"
        }
      ],
      "stateMutability": "view",
      "type": "function"
    },
    {
      "inputs": [],
      "name": "weiRaised",
      "outputs": [
        {
          "internalType": "uint256",
          "name": "",
          "type": "uint256"
        }
      ],
      "stateMutability": "view",
      "type": "function"
    },
    {
      "stateMutability": "payable",
      "type": "receive"
    },
    {
      "inputs": [
        {
          "internalType": "uint256",
          "name": "_startTime",
          "type": "uint256"
        },
        {
          "internalType": "uint256",
          "name": "_endTime",
          "type": "uint256"
        },
        {
          "internalType": "address",
          "name": "_token",
          "type": "address"
        },
        {
          "internalType": "address",
          "name": "_vault",
          "type": "address"
        },
        {
          "internalType": "address",
          "name": "_paytoken",
          "type": "address"
        }
      ],
      "name": "initialize",
      "outputs": [],
      "stateMutability": "nonpayable",
      "type": "function"
    },
    {
      "inputs": [
        {
          "internalType": "uint256",
          "name": "_duration",
          "type": "uint256"
        }
      ],
      "name": "buyToken",
      "outputs": [],
      "stateMutability": "payable",
      "type": "function"
    },
    {
      "inputs": [
        {
          "internalType": "address",
          "name": "_paytoken",
          "type": "address"
        },
        {
          "internalType": "uint256",
          "name": "amount",
          "type": "uint256"
        },
        {
          "internalType": "uint256",
          "name": "_duration",
          "type": "uint256"
        }
      ],
      "name": "buyTokens",
      "outputs": [],
      "stateMutability": "nonpayable",
      "type": "function"
    },
    {
      "inputs": [
        {
          "internalType": "uint256",
          "name": "duration",
          "type": "uint256"
        }
      ],
      "name": "validPeriod",
      "outputs": [
        {
          "internalType": "bool",
          "name": "",
          "type": "bool"
        }
      ],
      "stateMutability": "view",
      "type": "function"
    },
    {
      "inputs": [
        {
          "internalType": "uint256",
          "name": "_duration",
          "type": "uint256"
        }
      ],
      "name": "getRatio",
      "outputs": [
        {
          "internalType": "uint256",
          "name": "ratio",
          "type": "uint256"
        }
      ],
      "stateMutability": "view",
      "type": "function"
    },
    {
      "inputs": [
        {
          "internalType": "uint256",
          "name": "_amount",
          "type": "uint256"
        },
        {
          "internalType": "uint256",
          "name": "_duration",
          "type": "uint256"
        }
      ],
      "name": "calculateAmountByRatio",
      "outputs": [
        {
          "internalType": "uint256",
          "name": "ratio",
          "type": "uint256"
        }
      ],
      "stateMutability": "view",
      "type": "function"
    },
    {
      "inputs": [],
      "name": "withdraw",
      "outputs": [
        {
          "internalType": "bool",
          "name": "",
          "type": "bool"
        }
      ],
      "stateMutability": "nonpayable",
      "type": "function"
    },
    {
      "inputs": [
        {
          "internalType": "uint256",
          "name": "_duration",
          "type": "uint256"
        }
      ],
      "name": "rebuyToken",
      "outputs": [],
      "stateMutability": "nonpayable",
      "type": "function"
    },
    {
      "inputs": [],
      "name": "curBlockTimeStamp",
      "outputs": [
        {
          "internalType": "uint256",
          "name": "curTime",
          "type": "uint256"
        }
      ],
      "stateMutability": "view",
      "type": "function"
    },
    {
      "inputs": [],
      "name": "curBlockNumber",
      "outputs": [
        {
          "internalType": "uint256",
          "name": "curNumber",
          "type": "uint256"
        }
      ],
      "stateMutability": "view",
      "type": "function"
    },
    {
      "inputs": [
        {
          "internalType": "address",
          "name": "_user",
          "type": "address"
        }
      ],
      "name": "canWithdrawAmount",
      "outputs": [
        {
          "internalType": "uint256",
          "name": "validAmount",
          "type": "uint256"
        }
      ],
      "stateMutability": "view",
      "type": "function"
    },
    {
      "inputs": [
        {
          "internalType": "address",
          "name": "_user",
          "type": "address"
        }
      ],
      "name": "getAllUserLocks",
      "outputs": [
        {
          "components": [
            {
              "internalType": "bool",
              "name": "released",
              "type": "bool"
            },
            {
              "internalType": "uint256",
              "name": "releaseTime",
              "type": "uint256"
            },
            {
              "internalType": "uint256",
              "name": "amount",
              "type": "uint256"
            }
          ],
          "internalType": "struct LibTokenMining.LockAmount[]",
          "name": "",
          "type": "tuple[]"
        }
      ],
      "stateMutability": "view",
      "type": "function"
    },
    {
      "inputs": [
        {
          "internalType": "address",
          "name": "_user",
          "type": "address"
        }
      ],
      "name": "lengthAllUserLocks",
      "outputs": [
        {
          "internalType": "uint256",
          "name": "counts",
          "type": "uint256"
        }
      ],
      "stateMutability": "view",
      "type": "function"
    },
    {
      "inputs": [
        {
          "internalType": "address",
          "name": "_user",
          "type": "address"
        },
        {
          "internalType": "uint256",
          "name": "_index",
          "type": "uint256"
        }
      ],
      "name": "getUserLocks",
      "outputs": [
        {
          "components": [
            {
              "internalType": "bool",
              "name": "released",
              "type": "bool"
            },
            {
              "internalType": "uint256",
              "name": "releaseTime",
              "type": "uint256"
            },
            {
              "internalType": "uint256",
              "name": "amount",
              "type": "uint256"
            }
          ],
          "internalType": "struct LibTokenMining.LockAmount",
          "name": "",
          "type": "tuple"
        }
      ],
      "stateMutability": "view",
      "type": "function"
    }
  ],
  "bytecode": "0x608060405234801561001057600080fd5b506129d5806100206000396000f3fe6080604052600436106102cd5760003560e01c806375b238fc1161017557806396a8fa13116100dc578063cdfd867811610095578063e197d21f1161006f578063e197d21f14610889578063e420bb35146108a9578063fbfa77cf146108c9578063fc0c546a146108de5761030f565b8063cdfd867814610829578063d2395dcd14610849578063d547741f146108695761030f565b806396a8fa1314610774578063a217fddf14610794578063c3f2aec7146107a9578063c6bed6d5146107c9578063c9a97ea6146107e9578063ca15c873146108095761030f565b80639010d07c1161012e5780639010d07c146106ca57806390e4a0b2146106ea57806391135c3a1461070a57806391d148541461071f57806392a744ee1461073f57806393de9e15146107545761030f565b806375b238fc1461061d57806376365af714610632578063771dc86a1461064757806378e97925146106755780638091a7541461068a5780638a314784146106aa5761030f565b80633dd07d881161023457806355d76f7a116101ed57806362148232116101c757806362148232146105be57806367f86a78146105d35780636b9559c0146105e85780636d0cc688146105fd5761030f565b806355d76f7a1461055c57806359c9cb171461057157806360e232a91461059e5761030f565b80633dd07d88146104965780633fbfd4df146104c55780634042b66f146104e557806343b0934a146104fa57806346a62eaf1461051c578063516b9a6c1461053c5761030f565b80632d296bf1116102865780632d296bf1146103ec5780632f2ff15d146103ff5780633197cbb61461041f57806335524cb91461043457806336568abe146104545780633ccfd60b146104745761030f565b80631f03e39e1461031457806322428b65146103345780632334b6b41461036a578063248a9ca314610397578063288936de146103b75780632af7e2ea146103d75761030f565b3661030f576004546001600160a01b03161580156102ed57506000600854115b80156102f95750600034115b61030257600080fd5b61030d6008546108f3565b005b600080fd5b34801561032057600080fd5b5061030d61032f366004612548565b610ae2565b34801561034057600080fd5b5061035461034f3660046124cd565b610c7c565b60405161036191906127ee565b60405180910390f35b34801561037657600080fd5b5061038a61038536600461258b565b610d14565b60405161036191906126e2565b3480156103a357600080fd5b5061038a6103b2366004612548565b610d8b565b3480156103c357600080fd5b5061030d6103d2366004612548565b610da3565b3480156103e357600080fd5b5061038a610e09565b61030d6103fa366004612548565b6108f3565b34801561040b57600080fd5b5061030d61041a366004612560565b610e0f565b34801561042b57600080fd5b5061038a610e76565b34801561044057600080fd5b5061030d61044f36600461258b565b610e7c565b34801561046057600080fd5b5061030d61046f366004612560565b611005565b34801561048057600080fd5b50610489611066565b60405161036191906126bf565b3480156104a257600080fd5b506104b66104b13660046124cd565b611271565b604051610361939291906126ca565b3480156104d157600080fd5b5061030d6104e03660046125ac565b6112b7565b3480156104f157600080fd5b5061038a61142c565b34801561050657600080fd5b5061050f611432565b6040516103619190612620565b34801561052857600080fd5b5061038a610537366004612548565b611441565b34801561054857600080fd5b50610489610557366004612548565b611466565b34801561056857600080fd5b5061038a611486565b34801561057d57600080fd5b5061059161058c3660046124b3565b61148c565b6040516103619190612671565b3480156105aa57600080fd5b5061030d6105b93660046124b3565b611520565b3480156105ca57600080fd5b5061038a6115a8565b3480156105df57600080fd5b5061038a6115ae565b3480156105f457600080fd5b5061038a6115b2565b34801561060957600080fd5b5061030d610618366004612548565b6115b8565b34801561062957600080fd5b5061038a61162a565b34801561063e57600080fd5b5061038a61163c565b34801561065357600080fd5b50610667610662366004612548565b611642565b6040516103619291906127fc565b34801561068157600080fd5b5061038a611670565b34801561069657600080fd5b5061038a6106a53660046124b3565b611676565b3480156106b657600080fd5b5061030d6106c536600461258b565b611763565b3480156106d657600080fd5b5061050f6106e536600461258b565b611806565b3480156106f657600080fd5b5061038a6107053660046124b3565b61181e565b34801561071657600080fd5b5061038a611839565b34801561072b57600080fd5b5061048961073a366004612560565b61183d565b34801561074b57600080fd5b5061038a611855565b34801561076057600080fd5b5061030d61076f366004612548565b611879565b34801561078057600080fd5b5061038a61078f366004612548565b6118de565b3480156107a057600080fd5b5061038a611915565b3480156107b557600080fd5b5061038a6107c436600461258b565b61191a565b3480156107d557600080fd5b5061030d6107e4366004612548565b611964565b3480156107f557600080fd5b5061038a610804366004612548565b6119d7565b34801561081557600080fd5b5061038a610824366004612548565b611a42565b34801561083557600080fd5b5061038a610844366004612548565b611a59565b34801561085557600080fd5b5061030d6108643660046124f6565b611a8d565b34801561087557600080fd5b5061030d610884366004612560565b611d29565b34801561089557600080fd5b5061038a6108a436600461258b565b611d82565b3480156108b557600080fd5b5061038a6108c436600461258b565b611da9565b3480156108d557600080fd5b5061050f611de0565b3480156108ea57600080fd5b5061050f611def565b6004546001600160a01b031615801561091657506002546001600160a01b031615155b8015610923575060035415155b6109485760405162461bcd60e51b815260040161093f906126eb565b60405180910390fd5b61095181611466565b61095a57600080fd5b6002546001600160a01b031663a6d40cd06109753484611d82565b6040518263ffffffff1660e01b815260040161099191906126e2565b602060405180830381600087803b1580156109ab57600080fd5b505af11580156109bf573d6000803e3d6000fd5b505050506040513d601f19601f820116820180604052508101906109e39190612528565b6109ec57600080fd5b3460006109f98284611d82565b9050610a083383854201611dfe565b600980548201905560015460405163a9059cbb60e01b81526001600160a01b039091169063a9059cbb90610a429033908590600401612658565b602060405180830381600087803b158015610a5c57600080fd5b505af1158015610a70573d6000803e3d6000fd5b505050506040513d601f19601f82011682018060405250810190610a949190612528565b610a9d57600080fd5b60405133906000907efe0e12b43090c1fc19a34aefa5cc138a4eeafc60ab800f855c730b3fb9480e90610ad59086908890879061280a565b60405180910390a3505050565b610aeb81611466565b610af457600080fd5b6000610b0233834201611f8a565b6002549091506001600160a01b031663a6d40cd0610b208385611d82565b6040518263ffffffff1660e01b8152600401610b3c91906126e2565b602060405180830381600087803b158015610b5657600080fd5b505af1158015610b6a573d6000803e3d6000fd5b505050506040513d601f19601f82011682018060405250810190610b8e9190612528565b610b9757600080fd5b6000610ba38284611d82565b600980548201905560015460405163a9059cbb60e01b81529192506001600160a01b03169063a9059cbb90610bde9033908590600401612658565b602060405180830381600087803b158015610bf857600080fd5b505af1158015610c0c573d6000803e3d6000fd5b505050506040513d601f19601f82011682018060405250810190610c309190612528565b610c3957600080fd5b60045460405133916001600160a01b0316907fe3c5ca330fa0d3544eabb4d5bc3f59b84c6051f1ce465724885091831d47208990610ad59086908890879061280a565b610c84612479565b6001600160a01b0383166000908152600c60205260409020548210610ca857600080fd5b6001600160a01b0383166000908152600c60205260409020805483908110610ccc57fe5b6000918252602091829020604080516060810182526003909302909101805460ff16151583526001810154938301939093526002909201549181019190915290505b92915050565b6000805b600d54811015610d845782600d8281548110610d3057fe5b90600052602060002090600202016000015410610d7c57670de0b6b3a7640000600d8281548110610d5d57fe5b906000526020600020906002020160010154850281610d7857fe5b0491505b600101610d18565b5092915050565b6000818152602081905260409020600201545b919050565b610dbb6000805160206129268339815191523361183d565b610df65760405162461bcd60e51b815260040180806020018281038252602c815260200180612872602c913960400191505060405180910390fd5b6001811115610e0457600080fd5b600b55565b60085481565b600082815260208190526040902060020154610e2d9061073a612050565b610e685760405162461bcd60e51b815260040180806020018281038252602f815260200180612843602f913960400191505060405180910390fd5b610e728282612054565b5050565b60065481565b600082118015610e8c5750600081115b610edd576040805162461bcd60e51b815260206004820152601e60248201527f537465704669786564526174696f3a20696e707574206973207a65726f2e0000604482015290519081900360640190fd5b610ee6826119d7565b15610f225760405162461bcd60e51b815260040180806020018281038252602b815260200180612946602b913960400191505060405180910390fd5b600d5415610f8d57600d80548391906000198101908110610f3f57fe5b90600052602060002090600202016000015410610f8d5760405162461bcd60e51b815260040180806020018281038252602a8152602001806128ce602a913960400191505060405180910390fd5b6040805180820190915291825260208201908152600d805460018101825560009190915291517fd7b6990105719101dabeb77144f2a3385c8033acd3af97e9423a695e81ad1eb5600290930292830155517fd7b6990105719101dabeb77144f2a3385c8033acd3af97e9423a695e81ad1eb690910155565b61100d612050565b6001600160a01b0316816001600160a01b03161461105c5760405162461bcd60e51b815260040180806020018281038252602f815260200180612971602f913960400191505060405180910390fd5b610e7282826120bd565b60008061107233612126565b9050600081116110945760405162461bcd60e51b815260040161093f9061279d565b6004546001600160a01b0316611193573080318211156110c65760405162461bcd60e51b815260040161093f90612759565b6000336001600160a01b0316836040516110df9061261d565b60006040518083038185875af1925050503d806000811461111c576040519150601f19603f3d011682016040523d82523d6000602084013e611121565b606091505b50509050806111425760405162461bcd60e51b815260040161093f90612722565b60045460405133916001600160a01b0316907f3115d1449a7b732c986cba18244e897a450f61e1bb8d589cd2e69e6c8924f9f790611184906000908890612658565b60405180910390a35050611269565b6004805460405163a9059cbb60e01b81526001600160a01b039091169163a9059cbb916111c4913391869101612658565b602060405180830381600087803b1580156111de57600080fd5b505af11580156111f2573d6000803e3d6000fd5b505050506040513d601f19601f820116820180604052508101906112169190612528565b61121f57600080fd5b60045460405133916001600160a01b0316907f3115d1449a7b732c986cba18244e897a450f61e1bb8d589cd2e69e6c8924f9f7906112609083908690612658565b60405180910390a35b600191505090565b600c602052816000526040600020818154811061128d57600080fd5b600091825260209091206003909102018054600182015460029092015460ff909116935090915083565b600e54610100900460ff16806112d057506112d06121f8565b806112de5750600e5460ff16155b6113195760405162461bcd60e51b815260040180806020018281038252602e8152602001806128f8602e913960400191505060405180910390fd5b600e54610100900460ff1615801561134457600e805460ff1961ff0019909116610100171660011790555b6001600160a01b03841661135757600080fd5b6001600160a01b03831661136a57600080fd5b611372612209565b6001600160a01b0384161561139d57600180546001600160a01b0319166001600160a01b0386161790555b60058690556006859055600280546001600160a01b038086166001600160a01b03199283161790925560048054928516929091169190911790556001600a556000600b55621275006008558585036007557f53e185c3e96bc5220ad7ef9ce171442e8d56623db812c352150f39aa4d60f16b600355801561142457600e805461ff00191690555b505050505050565b60095481565b6004546001600160a01b031681565b600080600b54141561145d5761145682611a59565b9050610d9e565b611456826119d7565b600080600554421015801561147f575060065483420111155b9392505050565b60035481565b6001600160a01b0381166000908152600c60209081526040808320805482518185028101850190935280835260609492939192909184015b828210156115155760008481526020908190206040805160608101825260038602909201805460ff1615158352600180820154848601526002909101549183019190915290835290920191016114c4565b505050509050919050565b6115386000805160206129268339815191523361183d565b6115735760405162461bcd60e51b815260040180806020018281038252602c815260200180612872602c913960400191505060405180910390fd5b6001600160a01b03811661158657600080fd5b600280546001600160a01b0319166001600160a01b0392909216919091179055565b60075481565b4390565b600b5481565b6115d06000805160206129268339815191523361183d565b61160b5760405162461bcd60e51b815260040180806020018281038252602c815260200180612872602c913960400191505060405180910390fd5b801580159061161c57508060035414155b61162557600080fd5b600355565b60008051602061292683398151915281565b600a5481565b600d818154811061165257600080fd5b60009182526020909120600290910201805460019091015490915082565b60055481565b6000805b6001600160a01b0383166000908152600c602052604090205481101561175d576001600160a01b0383166000908152600c602052604090208054829081106116be57fe5b600091825260209091206003909102015460ff1615801561171557506001600160a01b0383166000908152600c6020526040902080544291908390811061170157fe5b906000526020600020906003020160010154105b15611755576001600160a01b0383166000908152600c6020526040902080548290811061173e57fe5b906000526020600020906003020160020154820191505b60010161167a565b50919050565b61177b6000805160206129268339815191523361183d565b6117b65760405162461bcd60e51b815260040180806020018281038252602c815260200180612872602c913960400191505060405180910390fd5b6000821180156117c65750600081115b80156117d157508082105b6117da57600080fd5b600554821415806117ed57506006548114155b6117f657600080fd5b6005829055600681905503600755565b600082815260208190526040812061147f908361223b565b6001600160a01b03166000908152600c602052604090205490565b4290565b600082815260208190526040812061147f9083612247565b7f53e185c3e96bc5220ad7ef9ce171442e8d56623db812c352150f39aa4d60f16b81565b6118916000805160206129268339815191523361183d565b6118cc5760405162461bcd60e51b815260040180806020018281038252602c815260200180612872602c913960400191505060405180910390fd5b600081116118d957600080fd5b600855565b600d5460009082106118ef57600080fd5b600d82815481106118fc57fe5b9060005260206000209060020201600101549050919050565b600081565b600d54600090821061192b57600080fd5b670de0b6b3a7640000600d838154811061194157fe5b90600052602060002090600202016001015484028161195c57fe5b049392505050565b61197c6000805160206129268339815191523361183d565b6119b75760405162461bcd60e51b815260040180806020018281038252602c815260200180612872602c913960400191505060405180910390fd5b6000811180156119c957508060075414155b6119d257600080fd5b600755565b6000805b600d54811015611a395782600d82815481106119f357fe5b90600052602060002090600202016000015410611a3157600d8181548110611a1757fe5b906000526020600020906002020160010154915050610d9e565b6001016119db565b50600092915050565b6000818152602081905260408120610d0e9061225c565b600080600a54118015611a6e57506000600754115b611a7757600080fd5b600a546007548381611a8557fe5b040292915050565b6004546001600160a01b031615801590611ab457506004546001600160a01b038481169116145b8015611aca57506002546001600160a01b031615155b8015611ad7575060035415155b611af35760405162461bcd60e51b815260040161093f906126eb565b611afc81611466565b611b0557600080fd5b6002546001600160a01b031663a6d40cd0611b208484611d82565b6040518263ffffffff1660e01b8152600401611b3c91906126e2565b602060405180830381600087803b158015611b5657600080fd5b505af1158015611b6a573d6000803e3d6000fd5b505050506040513d601f19601f82011682018060405250810190611b8e9190612528565b611b9757600080fd5b6000611ba38383611d82565b9050611bb23384844201611dfe565b6009805482019055600480546040516323b872dd60e01b81526001600160a01b03909116916323b872dd91611bed9133913091899101612634565b602060405180830381600087803b158015611c0757600080fd5b505af1158015611c1b573d6000803e3d6000fd5b505050506040513d601f19601f82011682018060405250810190611c3f9190612528565b611c4857600080fd5b60015460405163a9059cbb60e01b81526001600160a01b039091169063a9059cbb90611c7a9033908590600401612658565b602060405180830381600087803b158015611c9457600080fd5b505af1158015611ca8573d6000803e3d6000fd5b505050506040513d601f19601f82011682018060405250810190611ccc9190612528565b611cd557600080fd5b336001600160a01b0316846001600160a01b03167efe0e12b43090c1fc19a34aefa5cc138a4eeafc60ab800f855c730b3fb9480e858585604051611d1b9392919061280a565b60405180910390a350505050565b600082815260208190526040902060020154611d479061073a612050565b61105c5760405162461bcd60e51b815260040180806020018281038252603081526020018061289e6030913960400191505060405180910390fd5b600080600b541415611d9f57611d988383611da9565b9050610d0e565b611d988383610d14565b600080600a54118015611dbe57506000600754115b611dc757600080fd5b600a5460075483850281611dd757fe5b04029392505050565b6002546001600160a01b031681565b6001546001600160a01b031681565b6001600160a01b03831615801590611e165750600082115b8015611e2157504281115b611e2a57600080fd5b6001600160a01b0383166000908152600c60205260408120815b8154811015611f2657818181548110611e5957fe5b600091825260209091206003909102015460ff1615156001148015611e9a575042828281548110611e8657fe5b906000526020600020906003020160010154105b15611f1e576000828281548110611ead57fe5b906000526020600020906003020160000160006101000a81548160ff02191690831515021790555083828281548110611ee257fe5b90600052602060002090600302016001018190555084828281548110611f0457fe5b906000526020600020906003020160020181905550600192505b600101611e44565b5081611f835760408051606081018252600080825260208083018781529383018881528554600180820188558785529290932093516003909302909301805460ff1916921515929092178255925192810192909255516002909101555b5050505050565b6001600160a01b0382166000908152600c60205260408120815b815481101561204857818181548110611fb957fe5b600091825260209091206003909102015460ff16158015611ff6575042828281548110611fe257fe5b906000526020600020906003020160010154105b15612040578382828154811061200857fe5b90600052602060002090600302016001018190555081818154811061202957fe5b906000526020600020906003020160020154830192505b600101611fa4565b505092915050565b3390565b600082815260208190526040902061206c9082612267565b15610e7257612079612050565b6001600160a01b0316816001600160a01b0316837f2f8788117e7eff1d82e926ec794901d17c78024a50270940304540a733656f0d60405160405180910390a45050565b60008281526020819052604090206120d5908261227c565b15610e72576120e2612050565b6001600160a01b0316816001600160a01b0316837ff6391f5c32d9c69d2a47ea670b442974b53935d1edc7fd64eb21e047a839171b60405160405180910390a45050565b6001600160a01b0381166000908152600c60205260408120815b81548110156121f15781818154811061215557fe5b600091825260209091206003909102015460ff1615801561219257504282828154811061217e57fe5b906000526020600020906003020160010154105b156121e95760018282815481106121a557fe5b60009182526020909120600390910201805460ff191691151591909117905581548290829081106121d257fe5b906000526020600020906003020160020154830192505b600101612140565b5050919050565b600061220330612291565b15905090565b61222160008051602061292683398151915280612297565b61223960008051602061292683398151915233610e68565b565b600061147f83836122e9565b600061147f836001600160a01b03841661234d565b6000610d0e82612365565b600061147f836001600160a01b038416612369565b600061147f836001600160a01b0384166123b3565b3b151590565b600082815260208190526040808220600201549051839285917fbd79b86ffe0ab8e8776151514217cd7cacd52c909f66475c3af44e129f0b00ff9190a460009182526020829052604090912060020155565b8154600090821061232b5760405162461bcd60e51b81526004018080602001828103825260228152602001806128216022913960400191505060405180910390fd5b82600001828154811061233a57fe5b9060005260206000200154905092915050565b60009081526001919091016020526040902054151590565b5490565b6000612375838361234d565b6123ab57508154600181810184556000848152602080822090930184905584548482528286019093526040902091909155610d0e565b506000610d0e565b6000818152600183016020526040812054801561246f57835460001980830191908101906000908790839081106123e657fe5b906000526020600020015490508087600001848154811061240357fe5b60009182526020808320909101929092558281526001898101909252604090209084019055865487908061243357fe5b60019003818190600052602060002001600090559055866001016000878152602001908152602001600020600090556001945050505050610d0e565b6000915050610d0e565b604051806060016040528060001515815260200160008152602001600081525090565b80356001600160a01b0381168114610d9e57600080fd5b6000602082840312156124c4578081fd5b61147f8261249c565b600080604083850312156124df578081fd5b6124e88361249c565b946020939093013593505050565b60008060006060848603121561250a578081fd5b6125138461249c565b95602085013595506040909401359392505050565b600060208284031215612539578081fd5b8151801515811461147f578182fd5b600060208284031215612559578081fd5b5035919050565b60008060408385031215612572578182fd5b823591506125826020840161249c565b90509250929050565b6000806040838503121561259d578182fd5b50508035926020909101359150565b600080600080600060a086880312156125c3578081fd5b85359450602086013593506125da6040870161249c565b92506125e86060870161249c565b91506125f66080870161249c565b90509295509295909350565b80511515825260208082015190830152604090810151910152565b90565b6001600160a01b0391909116815260200190565b6001600160a01b039384168152919092166020820152604081019190915260600190565b6001600160a01b03929092168252602082015260400190565b6020808252825182820181905260009190848201906040850190845b818110156126b3576126a0838551612602565b928401926060929092019160010161268d565b50909695505050505050565b901515815260200190565b92151583526020830191909152604082015260600190565b90815260200190565b60208082526019908201527f4d696e696e673a20636865636b2076616c756573206661696c00000000000000604082015260600190565b60208082526018908201527f4d696e696e673a207769746864726177206661696c65642e0000000000000000604082015260600190565b60208082526024908201527f4d696e696e673a2062616c616e6365206920736c61636b20746f2077697468646040820152633930bb9760e11b606082015260800190565b60208082526031908201527f4d696e696e673a205468657265206973206e6f20616d6f756e7420746861742060408201527031b0b7103132903bb4ba34323930bbb71760791b606082015260800190565b60608101610d0e8284612602565b918252602082015260400190565b928352602083019190915260408201526060019056fe456e756d657261626c655365743a20696e646578206f7574206f6620626f756e6473416363657373436f6e74726f6c3a2073656e646572206d75737420626520616e2061646d696e20746f206772616e744d696e696e6753746f7261676553657474696e673a2043616c6c6572206973206e6f7420616e2061646d696e416363657373436f6e74726f6c3a2073656e646572206d75737420626520616e2061646d696e20746f207265766f6b65537465704669786564526174696f3a205f6475726174696f6e206973206e6f74206d61782076616c7565496e697469616c697a61626c653a20636f6e747261637420697320616c726561647920696e697469616c697a6564df8b4c520ffe197c5343c6f5aec59570151ef9a492f2c624fd45ddde6135ec42537465704669786564526174696f3a205f6475726174696f6e20697320616c72656164792061646465642e416363657373436f6e74726f6c3a2063616e206f6e6c792072656e6f756e636520726f6c657320666f722073656c66a2646970667358221220f03fe105b116b515d6886c55d61fb524ecb61f117e57f3bef9a80492b076a9d964736f6c63430007060033",
  "immutableReferences": {},
  "source": "//SPDX-License-Identifier: Unlicense\npragma solidity ^0.7.6;\npragma abicoder v2;\n\nimport \"../interfaces/IERC20.sol\";\nimport \"@openzeppelin/contracts-upgradeable/proxy/Initializable.sol\";\nimport \"../interfaces/IFLDVault.sol\";\n\nimport \"../libraries/LibTokenMining.sol\";\nimport './MiningStorageSetting.sol';\nimport './StepFixedRatio.sol';\n\n/**\n * @title Mining\n * Investors can submit Ether or specific tokens to lock them in the contract and mine FLD tokens.\n * @dev\n */\ncontract Mining\n    is\n    MiningStorageSetting, StepFixedRatio, Initializable  {\n\n    event TokenPurchase(address indexed paytoken, address indexed purchaser, uint256 value, uint256 duration, uint256 amount);\n    event TokenRePurchase(address indexed paytoken, address indexed purchaser, uint256 value, uint256 duration, uint256 amount);\n    event Withdraw(address indexed paytoken, address indexed from, address token, uint256 value);\n\n    function initialize(\n        uint256 _startTime,\n        uint256 _endTime,\n        address _token,\n        address _vault,\n        address _paytoken\n    )\n        external\n        initializer\n    {\n        require(_startTime >= 0);\n        require(_token != address(0));\n        require(_vault != address(0));\n\n        _initialize();\n\n        if(_token != address(0)) token = _token;\n        startTime = _startTime;\n        endTime = _endTime;\n        vault = _vault;\n        paytoken = _paytoken;\n        maxRatio = 1;\n        ratioType = uint(REWARD_RATIOTYPE.LINEAR_TIME);\n        defaultDuration = 60*60*24*14;\n        uintMiningPeriods = _endTime - _startTime;\n        vaultHashName = PHASE2_VAULT_HASH;\n    }\n\n    receive() external payable {\n      require(paytoken == address(0) && defaultDuration > 0 && msg.value > 0 );\n      buyToken(defaultDuration);\n    }\n\n     /**\n     * By sending Ether, you can lock the contract and get the FLD token.\n     * The longer the lock period, the more FLD tokens you can take.\n     */\n    function buyToken(uint256 _duration) public payable {\n      require(paytoken == address(0) && vault != address(0) && vaultHashName != 0, \"Mining: check values fail\");\n      require(validPeriod(_duration));\n      require(IFLDVault(vault).validClaimVault(calculateAmountByRatio(msg.value, _duration)));\n\n      uint256 weiAmount = msg.value;  // stake amount\n\n      // calculate token amount to be created\n      uint256 rewardAmount = calculateAmountByRatio(weiAmount, _duration);\n\n      // lock\n      addLockStakedToken(msg.sender, weiAmount, block.timestamp+_duration);\n\n      // update state\n      weiRaised += rewardAmount;\n\n      // transfer token rewardAmount\n      require(IERC20(token).transfer(msg.sender, rewardAmount));\n      emit TokenPurchase(address(0), msg.sender, weiAmount, _duration, rewardAmount);\n\n    }\n\n\n    /**\n     * By sending erc20 token(_paytoken), _paytoken is locked in the contract. You can get the FLD token.\n     * The longer the lock period, the more FLD tokens you can take.\n     */\n    function buyTokens(address _paytoken, uint256 amount, uint256 _duration) external {\n      require(paytoken != address(0) && paytoken == _paytoken\n        && vault != address(0) && vaultHashName != 0, \"Mining: check values fail\");\n      require(validPeriod(_duration));\n      require(IFLDVault(vault).validClaimVault(calculateAmountByRatio(amount, _duration)));\n\n      // calculate token amount to be created\n      uint256 rewardAmount = calculateAmountByRatio(amount, _duration);\n\n      // lock\n      addLockStakedToken(msg.sender, amount, block.timestamp+_duration);\n\n      // update state\n      weiRaised += rewardAmount;\n\n      //paytoken transfer\n      require(IERC20(paytoken).transferFrom(msg.sender, address(this), amount));\n\n      // transfer token rewardAmount\n      require(IERC20(token).transfer(msg.sender, rewardAmount));\n      emit TokenPurchase(_paytoken, msg.sender, amount, _duration, rewardAmount);\n\n    }\n\n    /**\n    * Returns true if it is a miningable period.\n    */\n    function validPeriod(uint256 duration) public view returns (bool) {\n      bool withinPeriod = block.timestamp >= startTime && (block.timestamp + duration) <= endTime;\n      return withinPeriod;\n    }\n\n    /**\n    * Calculate the mining rate when locked during the period.\n    * Depending on the type of mining, it is calculated at a linear rate over time,\n    * or at a fixed rate for each specific period unit.\n    */\n    function getRatio(uint256 _duration) public view returns (uint256 ratio) {\n      if( ratioType == uint(REWARD_RATIOTYPE.LINEAR_TIME) ) return getLinearRatioByDuration(_duration);\n      else return getRatioByDuration(_duration);\n    }\n\n    /**\n    * When the amount is locked for a period, the amount of mining is calculated.\n    * Depending on the type of mining, it is calculated at a linear rate over time,\n    * or at a fixed rate for each specific period unit.\n    */\n    function calculateAmountByRatio(uint256 _amount, uint256 _duration) public view returns (uint256 ratio) {\n      if( ratioType == uint(REWARD_RATIOTYPE.LINEAR_TIME) ) return calculateAmountLinearRatioByDuration(_amount, _duration);\n      else return calculateAmountWithRatioByDuration(_amount, _duration);\n    }\n\n\n    /**\n    * After the lock period is over, you can get the Ether or tokens that were locked.\n    */\n    function withdraw() external returns (bool){\n      uint256 unLockAmount = releaseUserLockStakedToken(msg.sender);\n      require(unLockAmount > 0, \"Mining: There is no amount that can be withdrawn.\");\n      if(paytoken == address(0)){\n          address payable self = address(uint160(address(this)));\n          require(self.balance >= unLockAmount, \"Mining: balance i slack to withdraw.\");\n\n          // msg.sender.transfer(unLockAmount);\n          (bool success, ) = msg.sender.call{value: unLockAmount}(\"\");\n          require(success, \"Mining: withdraw failed.\");\n          emit Withdraw(paytoken, msg.sender, address(0), unLockAmount );\n      } else {\n          require(IERC20(paytoken).transfer(msg.sender, unLockAmount));\n          emit Withdraw(paytoken, msg.sender, paytoken, unLockAmount);\n      }\n      return true;\n    }\n\n    /**\n    * After the lock period expires, you can re-lock the locked Ether or token and get FLD.\n    */\n    function rebuyToken(uint256 _duration) external {\n      require(validPeriod(_duration));\n      // Extend lock's releaseTime\n      uint256 rebuyAmount = rebuyUserLockStakedToken(msg.sender, block.timestamp + _duration);\n      require(IFLDVault(vault).validClaimVault(calculateAmountByRatio(rebuyAmount, _duration)));\n\n      // calculate token amount to be created\n      uint256 rewardAmount = calculateAmountByRatio(rebuyAmount, _duration);\n\n      // update state\n      weiRaised += rewardAmount;\n\n      // transfer token rewardAmount\n      require(IERC20(token).transfer(msg.sender, rewardAmount));\n      emit TokenRePurchase(paytoken, msg.sender, rebuyAmount, _duration, rewardAmount);\n    }\n\n   /**\n    * Extend lock's releaseTime of user.\n    */\n    function rebuyUserLockStakedToken(address _user, uint256 _releaseTime) internal returns (uint256 rebuyAmount) {\n      LibTokenMining.LockAmount[] storage userLocks = userLockStakedToken[_user];\n      rebuyAmount = 0;\n\n      for (uint256 i = 0; i< userLocks.length; i++){\n        if (userLocks[i].released == false && userLocks[i].releaseTime < block.timestamp) {\n          userLocks[i].releaseTime = _releaseTime;\n          rebuyAmount += userLocks[i].amount;\n        }\n      }\n    }\n\n    /**\n    * Funds that have passed the lockout period is released.\n    */\n    function releaseUserLockStakedToken(address _user) internal returns (uint256 unLockAmount) {\n      LibTokenMining.LockAmount[] storage userLocks = userLockStakedToken[_user];\n      unLockAmount = 0;\n\n      for (uint256 i = 0; i< userLocks.length; i++){\n        if (userLocks[i].released == false && userLocks[i].releaseTime < block.timestamp) {\n          userLocks[i].released = true;\n          unLockAmount += userLocks[i].amount;\n        }\n      }\n    }\n    /**\n     * dev test\n     */\n    function curBlockTimeStamp() public view returns (uint256 curTime) {\n       return block.timestamp;\n    }\n    /**\n     * dev test\n     */\n    function curBlockNumber() public view returns (uint256 curNumber) {\n       return block.number;\n    }\n\n    /**\n     * How much money can be withdrawn\n     */\n    function canWithdrawAmount(address _user) public view returns (uint256 validAmount) {\n      validAmount = 0;\n      for (uint256 i = 0; i< userLockStakedToken[_user].length; i++){\n        if (userLockStakedToken[_user][i].released == false && userLockStakedToken[_user][i].releaseTime < block.timestamp) {\n          validAmount += userLockStakedToken[_user][i].amount;\n        }\n      }\n    }\n\n    /**\n     * the user funding array currently being managed\n     */\n    function getAllUserLocks(address _user) public view returns (LibTokenMining.LockAmount[] memory) {\n      return userLockStakedToken[_user];\n    }\n\n    /**\n     * length of the user fund array currently being managed\n     */\n    function lengthAllUserLocks(address _user) public view returns (uint256 counts) {\n      counts = userLockStakedToken[_user].length;\n    }\n\n    /**\n     * the user funding info of index currently being managed\n     */\n    function getUserLocks(address _user, uint256 _index) public view returns (LibTokenMining.LockAmount memory) {\n      require(_index < userLockStakedToken[_user].length);\n      return userLockStakedToken[_user][_index];\n    }\n\n    /**\n     * Lock the user's token amount until releaseTime\n     */\n    function addLockStakedToken(\n        address _user,\n        uint256 _amount,\n        uint256 _releaseTime\n    )\n        internal\n    {\n        require(_user != address(0) && _amount > 0 && _releaseTime > block.timestamp );\n        bool addLock = false;\n        LibTokenMining.LockAmount[] storage userLocks = userLockStakedToken[_user];\n\n        for (uint256 i = 0; i< userLocks.length; i++){\n          if (userLocks[i].released == true && userLocks[i].releaseTime < block.timestamp) {\n            userLocks[i].released = false;\n            userLocks[i].releaseTime = _releaseTime;\n            userLocks[i].amount = _amount;\n            addLock = true;\n          }\n        }\n        if(!addLock) userLocks.push(LibTokenMining.LockAmount(false, _releaseTime, _amount));\n    }\n\n}\n",
  "sourcePath": "/Users/zena/ico2.0/ico20-contracts/contracts/platform/Mining.sol",
  "compiler": {
    "name": "solc",
    "version": "0.7.6+commit.7338295f.Emscripten.clang"
  },
  "schemaVersion": "3.3.4",
  "updatedAt": "2021-04-24T02:00:50.402Z",
  "devdoc": {
    "kind": "dev",
    "methods": {
      "getRoleAdmin(bytes32)": {
        "details": "Returns the admin role that controls `role`. See {grantRole} and {revokeRole}. To change a role's admin, use {_setRoleAdmin}."
      },
      "getRoleMember(bytes32,uint256)": {
        "details": "Returns one of the accounts that have `role`. `index` must be a value between 0 and {getRoleMemberCount}, non-inclusive. Role bearers are not sorted in any particular way, and their ordering may change at any point. WARNING: When using {getRoleMember} and {getRoleMemberCount}, make sure you perform all queries on the same block. See the following https://forum.openzeppelin.com/t/iterating-over-elements-on-enumerableset-in-openzeppelin-contracts/2296[forum post] for more information."
      },
      "getRoleMemberCount(bytes32)": {
        "details": "Returns the number of accounts that have `role`. Can be used together with {getRoleMember} to enumerate all bearers of a role."
      },
      "grantRole(bytes32,address)": {
        "details": "Grants `role` to `account`. If `account` had not been already granted `role`, emits a {RoleGranted} event. Requirements: - the caller must have ``role``'s admin role."
      },
      "hasRole(bytes32,address)": {
        "details": "Returns `true` if `account` has been granted `role`."
      },
      "renounceRole(bytes32,address)": {
        "details": "Revokes `role` from the calling account. Roles are often managed via {grantRole} and {revokeRole}: this function's purpose is to provide a mechanism for accounts to lose their privileges if they are compromised (such as when a trusted device is misplaced). If the calling account had been granted `role`, emits a {RoleRevoked} event. Requirements: - the caller must be `account`."
      },
      "revokeRole(bytes32,address)": {
        "details": "Revokes `role` from `account`. If `account` had been granted `role`, emits a {RoleRevoked} event. Requirements: - the caller must have ``role``'s admin role."
      }
    },
    "title": "Mining Investors can submit Ether or specific tokens to lock them in the contract and mine FLD tokens.",
    "version": 1
  },
  "userdoc": {
    "kind": "user",
    "methods": {
      "buyToken(uint256)": {
        "notice": "By sending Ether, you can lock the contract and get the FLD token. The longer the lock period, the more FLD tokens you can take."
      },
      "buyTokens(address,uint256,uint256)": {
        "notice": "By sending erc20 token(_paytoken), _paytoken is locked in the contract. You can get the FLD token. The longer the lock period, the more FLD tokens you can take."
      },
      "calculateAmountByRatio(uint256,uint256)": {
        "notice": "When the amount is locked for a period, the amount of mining is calculated. Depending on the type of mining, it is calculated at a linear rate over time, or at a fixed rate for each specific period unit."
      },
      "canWithdrawAmount(address)": {
        "notice": "How much money can be withdrawn"
      },
      "changeVault(address)": {
        "notice": "external"
      },
      "curBlockNumber()": {
        "notice": "dev test"
      },
      "curBlockTimeStamp()": {
        "notice": "dev test"
      },
      "defaultDuration()": {
        "notice": "When only Ether is sent, the mining period is set to this value. When creating a contract, this value is set as the end time-start time."
      },
      "getAllUserLocks(address)": {
        "notice": "the user funding array currently being managed"
      },
      "getLinearRatioByDuration(uint256)": {
        "notice": "public"
      },
      "getRatio(uint256)": {
        "notice": "Calculate the mining rate when locked during the period. Depending on the type of mining, it is calculated at a linear rate over time, or at a fixed rate for each specific period unit."
      },
      "getUserLocks(address,uint256)": {
        "notice": "the user funding info of index currently being managed"
      },
      "lengthAllUserLocks(address)": {
        "notice": "length of the user fund array currently being managed"
      },
      "rebuyToken(uint256)": {
        "notice": "After the lock period expires, you can re-lock the locked Ether or token and get FLD."
      },
      "uintMiningPeriods()": {
        "notice": "When calculating the mining rate with the mining period, this value is used as the unit period if the method of calculating the ratio over time is used."
      },
      "validPeriod(uint256)": {
        "notice": "Returns true if it is a miningable period."
      },
      "withdraw()": {
        "notice": "After the lock period is over, you can get the Ether or tokens that were locked."
      }
    },
    "version": 1
  }
}