{
  "contractName": "MiningStorage",
  "abi": [
    {
      "anonymous": false,
      "inputs": [
        {
          "indexed": true,
          "internalType": "bytes32",
          "name": "role",
          "type": "bytes32"
        },
        {
          "indexed": true,
          "internalType": "bytes32",
          "name": "previousAdminRole",
          "type": "bytes32"
        },
        {
          "indexed": true,
          "internalType": "bytes32",
          "name": "newAdminRole",
          "type": "bytes32"
        }
      ],
      "name": "RoleAdminChanged",
      "type": "event"
    },
    {
      "anonymous": false,
      "inputs": [
        {
          "indexed": true,
          "internalType": "bytes32",
          "name": "role",
          "type": "bytes32"
        },
        {
          "indexed": true,
          "internalType": "address",
          "name": "account",
          "type": "address"
        },
        {
          "indexed": true,
          "internalType": "address",
          "name": "sender",
          "type": "address"
        }
      ],
      "name": "RoleGranted",
      "type": "event"
    },
    {
      "anonymous": false,
      "inputs": [
        {
          "indexed": true,
          "internalType": "bytes32",
          "name": "role",
          "type": "bytes32"
        },
        {
          "indexed": true,
          "internalType": "address",
          "name": "account",
          "type": "address"
        },
        {
          "indexed": true,
          "internalType": "address",
          "name": "sender",
          "type": "address"
        }
      ],
      "name": "RoleRevoked",
      "type": "event"
    },
    {
      "inputs": [],
      "name": "ADMIN_ROLE",
      "outputs": [
        {
          "internalType": "bytes32",
          "name": "",
          "type": "bytes32"
        }
      ],
      "stateMutability": "view",
      "type": "function"
    },
    {
      "inputs": [],
      "name": "DEFAULT_ADMIN_ROLE",
      "outputs": [
        {
          "internalType": "bytes32",
          "name": "",
          "type": "bytes32"
        }
      ],
      "stateMutability": "view",
      "type": "function"
    },
    {
      "inputs": [],
      "name": "PHASE2_VAULT_HASH",
      "outputs": [
        {
          "internalType": "bytes32",
          "name": "",
          "type": "bytes32"
        }
      ],
      "stateMutability": "view",
      "type": "function"
    },
    {
      "inputs": [],
      "name": "defaultDuration",
      "outputs": [
        {
          "internalType": "uint256",
          "name": "",
          "type": "uint256"
        }
      ],
      "stateMutability": "view",
      "type": "function"
    },
    {
      "inputs": [],
      "name": "endTime",
      "outputs": [
        {
          "internalType": "uint256",
          "name": "",
          "type": "uint256"
        }
      ],
      "stateMutability": "view",
      "type": "function"
    },
    {
      "inputs": [
        {
          "internalType": "bytes32",
          "name": "role",
          "type": "bytes32"
        }
      ],
      "name": "getRoleAdmin",
      "outputs": [
        {
          "internalType": "bytes32",
          "name": "",
          "type": "bytes32"
        }
      ],
      "stateMutability": "view",
      "type": "function"
    },
    {
      "inputs": [
        {
          "internalType": "bytes32",
          "name": "role",
          "type": "bytes32"
        },
        {
          "internalType": "uint256",
          "name": "index",
          "type": "uint256"
        }
      ],
      "name": "getRoleMember",
      "outputs": [
        {
          "internalType": "address",
          "name": "",
          "type": "address"
        }
      ],
      "stateMutability": "view",
      "type": "function"
    },
    {
      "inputs": [
        {
          "internalType": "bytes32",
          "name": "role",
          "type": "bytes32"
        }
      ],
      "name": "getRoleMemberCount",
      "outputs": [
        {
          "internalType": "uint256",
          "name": "",
          "type": "uint256"
        }
      ],
      "stateMutability": "view",
      "type": "function"
    },
    {
      "inputs": [
        {
          "internalType": "bytes32",
          "name": "role",
          "type": "bytes32"
        },
        {
          "internalType": "address",
          "name": "account",
          "type": "address"
        }
      ],
      "name": "grantRole",
      "outputs": [],
      "stateMutability": "nonpayable",
      "type": "function"
    },
    {
      "inputs": [
        {
          "internalType": "bytes32",
          "name": "role",
          "type": "bytes32"
        },
        {
          "internalType": "address",
          "name": "account",
          "type": "address"
        }
      ],
      "name": "hasRole",
      "outputs": [
        {
          "internalType": "bool",
          "name": "",
          "type": "bool"
        }
      ],
      "stateMutability": "view",
      "type": "function"
    },
    {
      "inputs": [],
      "name": "maxRatio",
      "outputs": [
        {
          "internalType": "uint256",
          "name": "",
          "type": "uint256"
        }
      ],
      "stateMutability": "view",
      "type": "function"
    },
    {
      "inputs": [],
      "name": "paytoken",
      "outputs": [
        {
          "internalType": "address",
          "name": "",
          "type": "address"
        }
      ],
      "stateMutability": "view",
      "type": "function"
    },
    {
      "inputs": [],
      "name": "ratioType",
      "outputs": [
        {
          "internalType": "uint256",
          "name": "",
          "type": "uint256"
        }
      ],
      "stateMutability": "view",
      "type": "function"
    },
    {
      "inputs": [
        {
          "internalType": "bytes32",
          "name": "role",
          "type": "bytes32"
        },
        {
          "internalType": "address",
          "name": "account",
          "type": "address"
        }
      ],
      "name": "renounceRole",
      "outputs": [],
      "stateMutability": "nonpayable",
      "type": "function"
    },
    {
      "inputs": [
        {
          "internalType": "bytes32",
          "name": "role",
          "type": "bytes32"
        },
        {
          "internalType": "address",
          "name": "account",
          "type": "address"
        }
      ],
      "name": "revokeRole",
      "outputs": [],
      "stateMutability": "nonpayable",
      "type": "function"
    },
    {
      "inputs": [],
      "name": "startTime",
      "outputs": [
        {
          "internalType": "uint256",
          "name": "",
          "type": "uint256"
        }
      ],
      "stateMutability": "view",
      "type": "function"
    },
    {
      "inputs": [],
      "name": "token",
      "outputs": [
        {
          "internalType": "address",
          "name": "",
          "type": "address"
        }
      ],
      "stateMutability": "view",
      "type": "function"
    },
    {
      "inputs": [],
      "name": "uintMiningPeriods",
      "outputs": [
        {
          "internalType": "uint256",
          "name": "",
          "type": "uint256"
        }
      ],
      "stateMutability": "view",
      "type": "function"
    },
    {
      "inputs": [
        {
          "internalType": "address",
          "name": "",
          "type": "address"
        },
        {
          "internalType": "uint256",
          "name": "",
          "type": "uint256"
        }
      ],
      "name": "userLockStakedToken",
      "outputs": [
        {
          "internalType": "bool",
          "name": "released",
          "type": "bool"
        },
        {
          "internalType": "uint256",
          "name": "releaseTime",
          "type": "uint256"
        },
        {
          "internalType": "uint256",
          "name": "amount",
          "type": "uint256"
        }
      ],
      "stateMutability": "view",
      "type": "function"
    },
    {
      "inputs": [],
      "name": "vault",
      "outputs": [
        {
          "internalType": "address",
          "name": "",
          "type": "address"
        }
      ],
      "stateMutability": "view",
      "type": "function"
    },
    {
      "inputs": [],
      "name": "vaultHashName",
      "outputs": [
        {
          "internalType": "bytes32",
          "name": "",
          "type": "bytes32"
        }
      ],
      "stateMutability": "view",
      "type": "function"
    },
    {
      "inputs": [],
      "name": "weiRaised",
      "outputs": [
        {
          "internalType": "uint256",
          "name": "",
          "type": "uint256"
        }
      ],
      "stateMutability": "view",
      "type": "function"
    }
  ],
  "bytecode": "0x608060405234801561001057600080fd5b50610971806100206000396000f3fe608060405234801561001057600080fd5b50600436106101425760003560e01c806375b238fc116100b857806392a744ee1161007c57806392a744ee146102eb578063a217fddf146102f3578063ca15c873146102fb578063d547741f14610318578063fbfa77cf14610344578063fc0c546a1461034c57610142565b806375b238fc1461027057806376365af71461027857806378e97925146102805780639010d07c1461028857806391d14854146102ab57610142565b80633dd07d881161010a5780633dd07d88146101e05780634042b66f1461022c57806343b0934a1461023457806355d76f7a1461025857806362148232146102605780636b9559c01461026857610142565b8063248a9ca3146101475780632af7e2ea146101765780632f2ff15d1461017e5780633197cbb6146101ac57806336568abe146101b4575b600080fd5b6101646004803603602081101561015d57600080fd5b5035610354565b60408051918252519081900360200190f35b610164610369565b6101aa6004803603604081101561019457600080fd5b50803590602001356001600160a01b031661036f565b005b6101646103db565b6101aa600480360360408110156101ca57600080fd5b50803590602001356001600160a01b03166103e1565b61020c600480360360408110156101f657600080fd5b506001600160a01b038135169060200135610442565b604080519315158452602084019290925282820152519081900360600190f35b610164610488565b61023c61048e565b604080516001600160a01b039092168252519081900360200190f35b61016461049d565b6101646104a3565b6101646104a9565b6101646104af565b6101646104d3565b6101646104d9565b61023c6004803603604081101561029e57600080fd5b50803590602001356104df565b6102d7600480360360408110156102c157600080fd5b50803590602001356001600160a01b0316610500565b604080519115158252519081900360200190f35b610164610518565b61016461053c565b6101646004803603602081101561031157600080fd5b5035610541565b6101aa6004803603604081101561032e57600080fd5b50803590602001356001600160a01b0316610558565b61023c6105b1565b61023c6105c0565b60009081526020819052604090206002015490565b60085481565b6000828152602081905260409020600201546103929061038d6105cf565b610500565b6103cd5760405162461bcd60e51b815260040180806020018281038252602f8152602001806108ae602f913960400191505060405180910390fd5b6103d782826105d3565b5050565b60065481565b6103e96105cf565b6001600160a01b0316816001600160a01b0316146104385760405162461bcd60e51b815260040180806020018281038252602f81526020018061090d602f913960400191505060405180910390fd5b6103d7828261063c565b600c602052816000526040600020818154811061045e57600080fd5b600091825260209091206003909102018054600182015460029092015460ff909116935090915083565b60095481565b6004546001600160a01b031681565b60035481565b60075481565b600b5481565b7fdf8b4c520ffe197c5343c6f5aec59570151ef9a492f2c624fd45ddde6135ec4281565b600a5481565b60055481565b60008281526020819052604081206104f790836106a5565b90505b92915050565b60008281526020819052604081206104f790836106b1565b7f53e185c3e96bc5220ad7ef9ce171442e8d56623db812c352150f39aa4d60f16b81565b600081565b60008181526020819052604081206104fa906106c6565b6000828152602081905260409020600201546105769061038d6105cf565b6104385760405162461bcd60e51b81526004018080602001828103825260308152602001806108dd6030913960400191505060405180910390fd5b6002546001600160a01b031681565b6001546001600160a01b031681565b3390565b60008281526020819052604090206105eb90826106d1565b156103d7576105f86105cf565b6001600160a01b0316816001600160a01b0316837f2f8788117e7eff1d82e926ec794901d17c78024a50270940304540a733656f0d60405160405180910390a45050565b600082815260208190526040902061065490826106e6565b156103d7576106616105cf565b6001600160a01b0316816001600160a01b0316837ff6391f5c32d9c69d2a47ea670b442974b53935d1edc7fd64eb21e047a839171b60405160405180910390a45050565b60006104f783836106fb565b60006104f7836001600160a01b03841661075f565b60006104fa82610777565b60006104f7836001600160a01b03841661077b565b60006104f7836001600160a01b0384166107c5565b8154600090821061073d5760405162461bcd60e51b815260040180806020018281038252602281526020018061088c6022913960400191505060405180910390fd5b82600001828154811061074c57fe5b9060005260206000200154905092915050565b60009081526001919091016020526040902054151590565b5490565b6000610787838361075f565b6107bd575081546001818101845560008481526020808220909301849055845484825282860190935260409020919091556104fa565b5060006104fa565b6000818152600183016020526040812054801561088157835460001980830191908101906000908790839081106107f857fe5b906000526020600020015490508087600001848154811061081557fe5b60009182526020808320909101929092558281526001898101909252604090209084019055865487908061084557fe5b600190038181906000526020600020016000905590558660010160008781526020019081526020016000206000905560019450505050506104fa565b60009150506104fa56fe456e756d657261626c655365743a20696e646578206f7574206f6620626f756e6473416363657373436f6e74726f6c3a2073656e646572206d75737420626520616e2061646d696e20746f206772616e74416363657373436f6e74726f6c3a2073656e646572206d75737420626520616e2061646d696e20746f207265766f6b65416363657373436f6e74726f6c3a2063616e206f6e6c792072656e6f756e636520726f6c657320666f722073656c66a2646970667358221220bd1f8268068cda9cf1467e19bc4151b1f4ed0e93f86a08c4b31443c7d7b4a5df64736f6c63430007060033",
  "immutableReferences": {},
  "source": "//SPDX-License-Identifier: Unlicense\npragma solidity ^0.7.6;\n\nimport \"@openzeppelin/contracts/access/AccessControl.sol\";\nimport \"../libraries/LibTokenMining.sol\";\n//import '../tokens/FLD.sol';\n\ncontract MiningStorage is AccessControl{\n\n  bytes32 public constant ADMIN_ROLE = keccak256(\"ADMIN\");\n  bytes32 public constant PHASE2_VAULT_HASH = keccak256(\"PHASE2_VAULT\");\n\n  // The token being sold\n  address public token;\n\n  // vault address\n  address public vault;\n\n  // The name(hash) of the vault to use.\n  bytes32 public vaultHashName;\n\n  // The paytoken payed ( if paytoken is ether, paytoken is address(0) )\n  address public paytoken;\n\n  // start and end timestamps where investments are allowed (both inclusive)\n  uint256 public startTime;\n  uint256 public endTime;\n\n  /**\n  * When calculating the mining rate with the mining period,\n  * this value is used as the unit period\n  * if the method of calculating the ratio over time is used.\n  */\n  uint256 public uintMiningPeriods;\n\n  /**\n  * When only Ether is sent, the mining period is set to this value.\n  * When creating a contract, this value is set as the end time-start time.\n  */\n  uint256 public defaultDuration;\n\n  //uint256 public cap;\n  // how many token units a buyer gets per wei\n  //uint256 public rate;\n\n  // amount of raised money in wei , reward fld\n  uint256 public weiRaised;\n\n  // max ratio to gain when stake whole period\n  uint256 public maxRatio;\n\n  // 0:  linearly ratio by time, 1:step fixed ratio\n  uint public ratioType;\n\n  //\n  mapping(address => LibTokenMining.LockAmount[]) public userLockStakedToken;\n\n  function _initialize()\n    internal {\n    _setRoleAdmin(ADMIN_ROLE, ADMIN_ROLE);\n    _setupRole(ADMIN_ROLE, msg.sender);\n  }\n\n}\n",
  "sourcePath": "/Users/zena/ico2.0/ico20-contracts/contracts/platform/MiningStorage.sol",
  "compiler": {
    "name": "solc",
    "version": "0.7.6+commit.7338295f.Emscripten.clang"
  },
  "schemaVersion": "3.3.4",
  "updatedAt": "2021-04-22T13:47:40.935Z",
  "devdoc": {
    "kind": "dev",
    "methods": {
      "getRoleAdmin(bytes32)": {
        "details": "Returns the admin role that controls `role`. See {grantRole} and {revokeRole}. To change a role's admin, use {_setRoleAdmin}."
      },
      "getRoleMember(bytes32,uint256)": {
        "details": "Returns one of the accounts that have `role`. `index` must be a value between 0 and {getRoleMemberCount}, non-inclusive. Role bearers are not sorted in any particular way, and their ordering may change at any point. WARNING: When using {getRoleMember} and {getRoleMemberCount}, make sure you perform all queries on the same block. See the following https://forum.openzeppelin.com/t/iterating-over-elements-on-enumerableset-in-openzeppelin-contracts/2296[forum post] for more information."
      },
      "getRoleMemberCount(bytes32)": {
        "details": "Returns the number of accounts that have `role`. Can be used together with {getRoleMember} to enumerate all bearers of a role."
      },
      "grantRole(bytes32,address)": {
        "details": "Grants `role` to `account`. If `account` had not been already granted `role`, emits a {RoleGranted} event. Requirements: - the caller must have ``role``'s admin role."
      },
      "hasRole(bytes32,address)": {
        "details": "Returns `true` if `account` has been granted `role`."
      },
      "renounceRole(bytes32,address)": {
        "details": "Revokes `role` from the calling account. Roles are often managed via {grantRole} and {revokeRole}: this function's purpose is to provide a mechanism for accounts to lose their privileges if they are compromised (such as when a trusted device is misplaced). If the calling account had been granted `role`, emits a {RoleRevoked} event. Requirements: - the caller must be `account`."
      },
      "revokeRole(bytes32,address)": {
        "details": "Revokes `role` from `account`. If `account` had been granted `role`, emits a {RoleRevoked} event. Requirements: - the caller must have ``role``'s admin role."
      }
    },
    "version": 1
  },
  "userdoc": {
    "kind": "user",
    "methods": {
      "defaultDuration()": {
        "notice": "When only Ether is sent, the mining period is set to this value. When creating a contract, this value is set as the end time-start time."
      },
      "uintMiningPeriods()": {
        "notice": "When calculating the mining rate with the mining period, this value is used as the unit period if the method of calculating the ratio over time is used."
      }
    },
    "version": 1
  }
}