{
  "contractName": "MiningStorageSetting",
  "abi": [
    {
      "anonymous": false,
      "inputs": [
        {
          "indexed": true,
          "internalType": "bytes32",
          "name": "role",
          "type": "bytes32"
        },
        {
          "indexed": true,
          "internalType": "bytes32",
          "name": "previousAdminRole",
          "type": "bytes32"
        },
        {
          "indexed": true,
          "internalType": "bytes32",
          "name": "newAdminRole",
          "type": "bytes32"
        }
      ],
      "name": "RoleAdminChanged",
      "type": "event"
    },
    {
      "anonymous": false,
      "inputs": [
        {
          "indexed": true,
          "internalType": "bytes32",
          "name": "role",
          "type": "bytes32"
        },
        {
          "indexed": true,
          "internalType": "address",
          "name": "account",
          "type": "address"
        },
        {
          "indexed": true,
          "internalType": "address",
          "name": "sender",
          "type": "address"
        }
      ],
      "name": "RoleGranted",
      "type": "event"
    },
    {
      "anonymous": false,
      "inputs": [
        {
          "indexed": true,
          "internalType": "bytes32",
          "name": "role",
          "type": "bytes32"
        },
        {
          "indexed": true,
          "internalType": "address",
          "name": "account",
          "type": "address"
        },
        {
          "indexed": true,
          "internalType": "address",
          "name": "sender",
          "type": "address"
        }
      ],
      "name": "RoleRevoked",
      "type": "event"
    },
    {
      "inputs": [],
      "name": "ADMIN_ROLE",
      "outputs": [
        {
          "internalType": "bytes32",
          "name": "",
          "type": "bytes32"
        }
      ],
      "stateMutability": "view",
      "type": "function"
    },
    {
      "inputs": [],
      "name": "DEFAULT_ADMIN_ROLE",
      "outputs": [
        {
          "internalType": "bytes32",
          "name": "",
          "type": "bytes32"
        }
      ],
      "stateMutability": "view",
      "type": "function"
    },
    {
      "inputs": [],
      "name": "PHASE2_VAULT_HASH",
      "outputs": [
        {
          "internalType": "bytes32",
          "name": "",
          "type": "bytes32"
        }
      ],
      "stateMutability": "view",
      "type": "function"
    },
    {
      "inputs": [],
      "name": "defaultDuration",
      "outputs": [
        {
          "internalType": "uint256",
          "name": "",
          "type": "uint256"
        }
      ],
      "stateMutability": "view",
      "type": "function"
    },
    {
      "inputs": [],
      "name": "endTime",
      "outputs": [
        {
          "internalType": "uint256",
          "name": "",
          "type": "uint256"
        }
      ],
      "stateMutability": "view",
      "type": "function"
    },
    {
      "inputs": [
        {
          "internalType": "bytes32",
          "name": "role",
          "type": "bytes32"
        }
      ],
      "name": "getRoleAdmin",
      "outputs": [
        {
          "internalType": "bytes32",
          "name": "",
          "type": "bytes32"
        }
      ],
      "stateMutability": "view",
      "type": "function"
    },
    {
      "inputs": [
        {
          "internalType": "bytes32",
          "name": "role",
          "type": "bytes32"
        },
        {
          "internalType": "uint256",
          "name": "index",
          "type": "uint256"
        }
      ],
      "name": "getRoleMember",
      "outputs": [
        {
          "internalType": "address",
          "name": "",
          "type": "address"
        }
      ],
      "stateMutability": "view",
      "type": "function"
    },
    {
      "inputs": [
        {
          "internalType": "bytes32",
          "name": "role",
          "type": "bytes32"
        }
      ],
      "name": "getRoleMemberCount",
      "outputs": [
        {
          "internalType": "uint256",
          "name": "",
          "type": "uint256"
        }
      ],
      "stateMutability": "view",
      "type": "function"
    },
    {
      "inputs": [
        {
          "internalType": "bytes32",
          "name": "role",
          "type": "bytes32"
        },
        {
          "internalType": "address",
          "name": "account",
          "type": "address"
        }
      ],
      "name": "grantRole",
      "outputs": [],
      "stateMutability": "nonpayable",
      "type": "function"
    },
    {
      "inputs": [
        {
          "internalType": "bytes32",
          "name": "role",
          "type": "bytes32"
        },
        {
          "internalType": "address",
          "name": "account",
          "type": "address"
        }
      ],
      "name": "hasRole",
      "outputs": [
        {
          "internalType": "bool",
          "name": "",
          "type": "bool"
        }
      ],
      "stateMutability": "view",
      "type": "function"
    },
    {
      "inputs": [],
      "name": "maxRatio",
      "outputs": [
        {
          "internalType": "uint256",
          "name": "",
          "type": "uint256"
        }
      ],
      "stateMutability": "view",
      "type": "function"
    },
    {
      "inputs": [],
      "name": "paytoken",
      "outputs": [
        {
          "internalType": "address",
          "name": "",
          "type": "address"
        }
      ],
      "stateMutability": "view",
      "type": "function"
    },
    {
      "inputs": [],
      "name": "ratioType",
      "outputs": [
        {
          "internalType": "uint256",
          "name": "",
          "type": "uint256"
        }
      ],
      "stateMutability": "view",
      "type": "function"
    },
    {
      "inputs": [
        {
          "internalType": "bytes32",
          "name": "role",
          "type": "bytes32"
        },
        {
          "internalType": "address",
          "name": "account",
          "type": "address"
        }
      ],
      "name": "renounceRole",
      "outputs": [],
      "stateMutability": "nonpayable",
      "type": "function"
    },
    {
      "inputs": [
        {
          "internalType": "bytes32",
          "name": "role",
          "type": "bytes32"
        },
        {
          "internalType": "address",
          "name": "account",
          "type": "address"
        }
      ],
      "name": "revokeRole",
      "outputs": [],
      "stateMutability": "nonpayable",
      "type": "function"
    },
    {
      "inputs": [],
      "name": "startTime",
      "outputs": [
        {
          "internalType": "uint256",
          "name": "",
          "type": "uint256"
        }
      ],
      "stateMutability": "view",
      "type": "function"
    },
    {
      "inputs": [],
      "name": "token",
      "outputs": [
        {
          "internalType": "address",
          "name": "",
          "type": "address"
        }
      ],
      "stateMutability": "view",
      "type": "function"
    },
    {
      "inputs": [],
      "name": "uintMiningPeriods",
      "outputs": [
        {
          "internalType": "uint256",
          "name": "",
          "type": "uint256"
        }
      ],
      "stateMutability": "view",
      "type": "function"
    },
    {
      "inputs": [
        {
          "internalType": "address",
          "name": "",
          "type": "address"
        },
        {
          "internalType": "uint256",
          "name": "",
          "type": "uint256"
        }
      ],
      "name": "userLockStakedToken",
      "outputs": [
        {
          "internalType": "bool",
          "name": "released",
          "type": "bool"
        },
        {
          "internalType": "uint256",
          "name": "releaseTime",
          "type": "uint256"
        },
        {
          "internalType": "uint256",
          "name": "amount",
          "type": "uint256"
        }
      ],
      "stateMutability": "view",
      "type": "function"
    },
    {
      "inputs": [],
      "name": "vault",
      "outputs": [
        {
          "internalType": "address",
          "name": "",
          "type": "address"
        }
      ],
      "stateMutability": "view",
      "type": "function"
    },
    {
      "inputs": [],
      "name": "vaultHashName",
      "outputs": [
        {
          "internalType": "bytes32",
          "name": "",
          "type": "bytes32"
        }
      ],
      "stateMutability": "view",
      "type": "function"
    },
    {
      "inputs": [],
      "name": "weiRaised",
      "outputs": [
        {
          "internalType": "uint256",
          "name": "",
          "type": "uint256"
        }
      ],
      "stateMutability": "view",
      "type": "function"
    },
    {
      "inputs": [
        {
          "internalType": "address",
          "name": "_vault",
          "type": "address"
        }
      ],
      "name": "changeVault",
      "outputs": [],
      "stateMutability": "nonpayable",
      "type": "function"
    },
    {
      "inputs": [
        {
          "internalType": "bytes32",
          "name": "_hash",
          "type": "bytes32"
        }
      ],
      "name": "changeVaultHashName",
      "outputs": [],
      "stateMutability": "nonpayable",
      "type": "function"
    },
    {
      "inputs": [
        {
          "internalType": "uint256",
          "name": "_startTime",
          "type": "uint256"
        },
        {
          "internalType": "uint256",
          "name": "_endTime",
          "type": "uint256"
        }
      ],
      "name": "changeStartEndTime",
      "outputs": [],
      "stateMutability": "nonpayable",
      "type": "function"
    },
    {
      "inputs": [
        {
          "internalType": "uint256",
          "name": "_uintMiningPeriods",
          "type": "uint256"
        }
      ],
      "name": "changeUintMiningPeriods",
      "outputs": [],
      "stateMutability": "nonpayable",
      "type": "function"
    },
    {
      "inputs": [
        {
          "internalType": "uint256",
          "name": "_defaultDuration",
          "type": "uint256"
        }
      ],
      "name": "changeDefaultDuration",
      "outputs": [],
      "stateMutability": "nonpayable",
      "type": "function"
    },
    {
      "inputs": [
        {
          "internalType": "uint256",
          "name": "_ratioType",
          "type": "uint256"
        }
      ],
      "name": "changeRewardRatioType",
      "outputs": [],
      "stateMutability": "nonpayable",
      "type": "function"
    },
    {
      "inputs": [
        {
          "internalType": "uint256",
          "name": "_duration",
          "type": "uint256"
        }
      ],
      "name": "getLinearRatioByDuration",
      "outputs": [
        {
          "internalType": "uint256",
          "name": "ratio",
          "type": "uint256"
        }
      ],
      "stateMutability": "view",
      "type": "function"
    },
    {
      "inputs": [
        {
          "internalType": "uint256",
          "name": "_amount",
          "type": "uint256"
        },
        {
          "internalType": "uint256",
          "name": "_duration",
          "type": "uint256"
        }
      ],
      "name": "calculateAmountLinearRatioByDuration",
      "outputs": [
        {
          "internalType": "uint256",
          "name": "_newAmount",
          "type": "uint256"
        }
      ],
      "stateMutability": "view",
      "type": "function"
    }
  ],
  "bytecode": "0x608060405234801561001057600080fd5b50610e86806100206000396000f3fe608060405234801561001057600080fd5b50600436106101da5760003560e01c806376365af711610104578063a217fddf116100a2578063d547741f11610071578063d547741f1461048a578063e420bb35146104b6578063fbfa77cf146104d9578063fc0c546a146104e1576101da565b8063a217fddf1461042b578063c6bed6d514610433578063ca15c87314610450578063cdfd86781461046d576101da565b80639010d07c116100de5780639010d07c146103a357806391d14854146103c657806392a744ee1461040657806393de9e151461040e576101da565b806376365af71461037057806378e97925146103785780638a31478414610380576101da565b80634042b66f1161017c578063621482321161014b578063621482321461033b5780636b9559c0146103435780636d0cc6881461034b57806375b238fc14610368576101da565b80634042b66f146102e157806343b0934a146102e957806355d76f7a1461030d57806360e232a914610315576101da565b80632f2ff15d116101b85780632f2ff15d146102355780633197cbb61461026157806336568abe146102695780633dd07d8814610295576101da565b8063248a9ca3146101df578063288936de1461020e5780632af7e2ea1461022d575b600080fd5b6101fc600480360360208110156101f557600080fd5b50356104e9565b60408051918252519081900360200190f35b61022b6004803603602081101561022457600080fd5b50356104fe565b005b6101fc610564565b61022b6004803603604081101561024b57600080fd5b50803590602001356001600160a01b031661056a565b6101fc6105d6565b61022b6004803603604081101561027f57600080fd5b50803590602001356001600160a01b03166105dc565b6102c1600480360360408110156102ab57600080fd5b506001600160a01b03813516906020013561063d565b604080519315158452602084019290925282820152519081900360600190f35b6101fc610683565b6102f1610689565b604080516001600160a01b039092168252519081900360200190f35b6101fc610698565b61022b6004803603602081101561032b57600080fd5b50356001600160a01b031661069e565b6101fc610726565b6101fc61072c565b61022b6004803603602081101561036157600080fd5b5035610732565b6101fc6107a4565b6101fc6107b6565b6101fc6107bc565b61022b6004803603604081101561039657600080fd5b50803590602001356107c2565b6102f1600480360360408110156103b957600080fd5b5080359060200135610865565b6103f2600480360360408110156103dc57600080fd5b50803590602001356001600160a01b0316610886565b604080519115158252519081900360200190f35b6101fc61089e565b61022b6004803603602081101561042457600080fd5b50356108c2565b6101fc610927565b61022b6004803603602081101561044957600080fd5b503561092c565b6101fc6004803603602081101561046657600080fd5b503561099f565b6101fc6004803603602081101561048357600080fd5b50356109b6565b61022b600480360360408110156104a057600080fd5b50803590602001356001600160a01b03166109ea565b6101fc600480360360408110156104cc57600080fd5b5080359060200135610a43565b6102f1610a7a565b6102f1610a89565b60009081526020819052604090206002015490565b610516600080516020610e0283398151915233610886565b6105515760405162461bcd60e51b815260040180806020018281038252602c815260200180610da6602c913960400191505060405180910390fd5b600181111561055f57600080fd5b600b55565b60085481565b60008281526020819052604090206002015461058d90610588610a98565b610886565b6105c85760405162461bcd60e51b815260040180806020018281038252602f815260200180610d77602f913960400191505060405180910390fd5b6105d28282610a9c565b5050565b60065481565b6105e4610a98565b6001600160a01b0316816001600160a01b0316146106335760405162461bcd60e51b815260040180806020018281038252602f815260200180610e22602f913960400191505060405180910390fd5b6105d28282610b05565b600c602052816000526040600020818154811061065957600080fd5b600091825260209091206003909102018054600182015460029092015460ff909116935090915083565b60095481565b6004546001600160a01b031681565b60035481565b6106b6600080516020610e0283398151915233610886565b6106f15760405162461bcd60e51b815260040180806020018281038252602c815260200180610da6602c913960400191505060405180910390fd5b6001600160a01b03811661070457600080fd5b600280546001600160a01b0319166001600160a01b0392909216919091179055565b60075481565b600b5481565b61074a600080516020610e0283398151915233610886565b6107855760405162461bcd60e51b815260040180806020018281038252602c815260200180610da6602c913960400191505060405180910390fd5b801580159061079657508060035414155b61079f57600080fd5b600355565b600080516020610e0283398151915281565b600a5481565b60055481565b6107da600080516020610e0283398151915233610886565b6108155760405162461bcd60e51b815260040180806020018281038252602c815260200180610da6602c913960400191505060405180910390fd5b6000821180156108255750600081115b801561083057508082105b61083957600080fd5b6005548214158061084c57506006548114155b61085557600080fd5b6005829055600681905503600755565b600082815260208190526040812061087d9083610b6e565b90505b92915050565b600082815260208190526040812061087d9083610b7a565b7f53e185c3e96bc5220ad7ef9ce171442e8d56623db812c352150f39aa4d60f16b81565b6108da600080516020610e0283398151915233610886565b6109155760405162461bcd60e51b815260040180806020018281038252602c815260200180610da6602c913960400191505060405180910390fd5b6000811161092257600080fd5b600855565b600081565b610944600080516020610e0283398151915233610886565b61097f5760405162461bcd60e51b815260040180806020018281038252602c815260200180610da6602c913960400191505060405180910390fd5b60008111801561099157508060075414155b61099a57600080fd5b600755565b600081815260208190526040812061088090610b8f565b600080600a541180156109cb57506000600754115b6109d457600080fd5b600a5460075483816109e257fe5b040292915050565b600082815260208190526040902060020154610a0890610588610a98565b6106335760405162461bcd60e51b8152600401808060200182810382526030815260200180610dd26030913960400191505060405180910390fd5b600080600a54118015610a5857506000600754115b610a6157600080fd5b600a5460075483850281610a7157fe5b04029392505050565b6002546001600160a01b031681565b6001546001600160a01b031681565b3390565b6000828152602081905260409020610ab49082610b9a565b156105d257610ac1610a98565b6001600160a01b0316816001600160a01b0316837f2f8788117e7eff1d82e926ec794901d17c78024a50270940304540a733656f0d60405160405180910390a45050565b6000828152602081905260409020610b1d9082610baf565b156105d257610b2a610a98565b6001600160a01b0316816001600160a01b0316837ff6391f5c32d9c69d2a47ea670b442974b53935d1edc7fd64eb21e047a839171b60405160405180910390a45050565b600061087d8383610bc4565b600061087d836001600160a01b038416610c28565b600061088082610c40565b600061087d836001600160a01b038416610c44565b600061087d836001600160a01b038416610c8e565b81546000908210610c065760405162461bcd60e51b8152600401808060200182810382526022815260200180610d556022913960400191505060405180910390fd5b826000018281548110610c1557fe5b9060005260206000200154905092915050565b60009081526001919091016020526040902054151590565b5490565b6000610c508383610c28565b610c8657508154600181810184556000848152602080822090930184905584548482528286019093526040902091909155610880565b506000610880565b60008181526001830160205260408120548015610d4a5783546000198083019190810190600090879083908110610cc157fe5b9060005260206000200154905080876000018481548110610cde57fe5b600091825260208083209091019290925582815260018981019092526040902090840190558654879080610d0e57fe5b60019003818190600052602060002001600090559055866001016000878152602001908152602001600020600090556001945050505050610880565b600091505061088056fe456e756d657261626c655365743a20696e646578206f7574206f6620626f756e6473416363657373436f6e74726f6c3a2073656e646572206d75737420626520616e2061646d696e20746f206772616e744d696e696e6753746f7261676553657474696e673a2043616c6c6572206973206e6f7420616e2061646d696e416363657373436f6e74726f6c3a2073656e646572206d75737420626520616e2061646d696e20746f207265766f6b65df8b4c520ffe197c5343c6f5aec59570151ef9a492f2c624fd45ddde6135ec42416363657373436f6e74726f6c3a2063616e206f6e6c792072656e6f756e636520726f6c657320666f722073656c66a264697066735822122095e9b749ae33006ccc4a1a3d7b00d9f837da3d747311848912c510a2cf0a19c864736f6c63430007060033",
  "immutableReferences": {},
  "source": "//SPDX-License-Identifier: Unlicense\npragma solidity ^0.7.6;\n\nimport \"../libraries/LibTokenMining.sol\";\nimport './MiningStorage.sol';\ncontract MiningStorageSetting is MiningStorage {\n\n    enum REWARD_RATIOTYPE { LINEAR_TIME, FIXED_STEP  }\n\n    modifier onlyOwner() {\n        require(hasRole(ADMIN_ROLE, msg.sender), \"MiningStorageSetting: Caller is not an admin\");\n        _;\n    }\n\n    /**\n    * external\n    */\n    function changeVault(\n        address _vault\n    )\n        external\n        onlyOwner\n    {\n        require(_vault != address(0));\n\n        vault = _vault;\n    }\n\n    function changeVaultHashName(\n        bytes32 _hash\n    )\n        external\n        onlyOwner\n    {\n        require(_hash != 0x0 && vaultHashName != _hash );\n\n        vaultHashName = _hash;\n    }\n\n    function changeStartEndTime(\n        uint256 _startTime,\n        uint256 _endTime\n    )\n        external\n        onlyOwner\n    {\n        require(_startTime > 0 && _endTime > 0 && _startTime < _endTime);\n        require(_startTime != startTime || _endTime != endTime );\n\n        startTime = _startTime;\n        endTime = _endTime;\n        uintMiningPeriods = _endTime - _startTime;\n    }\n\n    function changeUintMiningPeriods(\n        uint256 _uintMiningPeriods\n    )\n        external\n        onlyOwner\n    {\n        require(_uintMiningPeriods > 0 && uintMiningPeriods != _uintMiningPeriods);\n\n        uintMiningPeriods = _uintMiningPeriods;\n    }\n\n    function changeDefaultDuration(\n        uint256 _defaultDuration\n    )\n        external\n        onlyOwner\n    {\n        require(_defaultDuration > 0);\n        defaultDuration = _defaultDuration;\n    }\n\n    function changeRewardRatioType(\n        uint _ratioType\n    )\n        external\n        onlyOwner\n    {\n        require(_ratioType >= uint(REWARD_RATIOTYPE.LINEAR_TIME) && _ratioType <= uint(REWARD_RATIOTYPE.FIXED_STEP));\n        ratioType = _ratioType;\n    }\n\n    /**\n    * public\n    */\n\n    function getLinearRatioByDuration(uint256 _duration) public view returns (uint256 ratio) {\n        require(maxRatio > 0 && uintMiningPeriods > 0 );\n\n        ratio = _duration / uintMiningPeriods * maxRatio;\n    }\n\n    function calculateAmountLinearRatioByDuration(uint _amount, uint256 _duration)\n      public view returns (uint256 _newAmount) {\n        require(maxRatio > 0 && uintMiningPeriods > 0);\n\n        _newAmount = _amount * _duration / uintMiningPeriods * maxRatio;\n    }\n\n}\n",
  "sourcePath": "/Users/zena/ico2.0/ico20-contracts/contracts/platform/MiningStorageSetting.sol",
  "compiler": {
    "name": "solc",
    "version": "0.7.6+commit.7338295f.Emscripten.clang"
  },
  "schemaVersion": "3.3.4",
  "updatedAt": "2021-04-22T13:47:40.941Z",
  "devdoc": {
    "kind": "dev",
    "methods": {
      "getRoleAdmin(bytes32)": {
        "details": "Returns the admin role that controls `role`. See {grantRole} and {revokeRole}. To change a role's admin, use {_setRoleAdmin}."
      },
      "getRoleMember(bytes32,uint256)": {
        "details": "Returns one of the accounts that have `role`. `index` must be a value between 0 and {getRoleMemberCount}, non-inclusive. Role bearers are not sorted in any particular way, and their ordering may change at any point. WARNING: When using {getRoleMember} and {getRoleMemberCount}, make sure you perform all queries on the same block. See the following https://forum.openzeppelin.com/t/iterating-over-elements-on-enumerableset-in-openzeppelin-contracts/2296[forum post] for more information."
      },
      "getRoleMemberCount(bytes32)": {
        "details": "Returns the number of accounts that have `role`. Can be used together with {getRoleMember} to enumerate all bearers of a role."
      },
      "grantRole(bytes32,address)": {
        "details": "Grants `role` to `account`. If `account` had not been already granted `role`, emits a {RoleGranted} event. Requirements: - the caller must have ``role``'s admin role."
      },
      "hasRole(bytes32,address)": {
        "details": "Returns `true` if `account` has been granted `role`."
      },
      "renounceRole(bytes32,address)": {
        "details": "Revokes `role` from the calling account. Roles are often managed via {grantRole} and {revokeRole}: this function's purpose is to provide a mechanism for accounts to lose their privileges if they are compromised (such as when a trusted device is misplaced). If the calling account had been granted `role`, emits a {RoleRevoked} event. Requirements: - the caller must be `account`."
      },
      "revokeRole(bytes32,address)": {
        "details": "Revokes `role` from `account`. If `account` had been granted `role`, emits a {RoleRevoked} event. Requirements: - the caller must have ``role``'s admin role."
      }
    },
    "version": 1
  },
  "userdoc": {
    "kind": "user",
    "methods": {
      "changeVault(address)": {
        "notice": "external"
      },
      "defaultDuration()": {
        "notice": "When only Ether is sent, the mining period is set to this value. When creating a contract, this value is set as the end time-start time."
      },
      "getLinearRatioByDuration(uint256)": {
        "notice": "public"
      },
      "uintMiningPeriods()": {
        "notice": "When calculating the mining rate with the mining period, this value is used as the unit period if the method of calculating the ratio over time is used."
      }
    },
    "version": 1
  }
}