{
  "contractName": "OldDAOVaultMock",
  "abi": [
    {
      "inputs": [
        {
          "internalType": "address",
          "name": "wtonAddress",
          "type": "address"
        },
        {
          "internalType": "uint256",
          "name": "claimEnableTime_",
          "type": "uint256"
        }
      ],
      "stateMutability": "nonpayable",
      "type": "constructor"
    },
    {
      "anonymous": false,
      "inputs": [
        {
          "indexed": true,
          "internalType": "address",
          "name": "previousOwner",
          "type": "address"
        },
        {
          "indexed": true,
          "internalType": "address",
          "name": "newOwner",
          "type": "address"
        }
      ],
      "name": "OwnershipTransferred",
      "type": "event"
    },
    {
      "inputs": [],
      "name": "claimEnableTime",
      "outputs": [
        {
          "internalType": "uint256",
          "name": "",
          "type": "uint256"
        }
      ],
      "stateMutability": "view",
      "type": "function"
    },
    {
      "inputs": [],
      "name": "owner",
      "outputs": [
        {
          "internalType": "address",
          "name": "",
          "type": "address"
        }
      ],
      "stateMutability": "view",
      "type": "function"
    },
    {
      "inputs": [],
      "name": "renounceOwnership",
      "outputs": [],
      "stateMutability": "nonpayable",
      "type": "function"
    },
    {
      "inputs": [
        {
          "internalType": "address",
          "name": "newOwner",
          "type": "address"
        }
      ],
      "name": "transferOwnership",
      "outputs": [],
      "stateMutability": "nonpayable",
      "type": "function"
    },
    {
      "inputs": [],
      "name": "wton",
      "outputs": [
        {
          "internalType": "contract IWTON",
          "name": "",
          "type": "address"
        }
      ],
      "stateMutability": "view",
      "type": "function"
    },
    {
      "inputs": [
        {
          "internalType": "address",
          "name": "dao",
          "type": "address"
        }
      ],
      "name": "claim",
      "outputs": [],
      "stateMutability": "nonpayable",
      "type": "function"
    }
  ],
  "bytecode": "0x608060405234801561001057600080fd5b506040516105c43803806105c48339818101604052604081101561003357600080fd5b50805160209091015160006100466100b9565b600080546001600160a01b0319166001600160a01b0383169081178255604051929350917f8be0079c531659141344cd1fd0a4f28419497f9722a3daafe3b4186f6b6457e0908290a350600180546001600160a01b0319166001600160a01b0393909316929092179091556002556100bd565b3390565b6104f8806100cc6000396000f3fe608060405234801561001057600080fd5b50600436106100625760003560e01c806309c6bd11146100675780631e83409a14610081578063715018a6146100a95780638d62d949146100b15780638da5cb5b146100d5578063f2fde38b146100dd575b600080fd5b61006f610103565b60408051918252519081900360200190f35b6100a76004803603602081101561009757600080fd5b50356001600160a01b0316610109565b005b6100a76102bc565b6100b9610370565b604080516001600160a01b039092168252519081900360200190f35b6100b961037f565b6100a7600480360360208110156100f357600080fd5b50356001600160a01b031661038e565b60025481565b610111610498565b6000546001600160a01b03908116911614610173576040805162461bcd60e51b815260206004820181905260248201527f4f776e61626c653a2063616c6c6572206973206e6f7420746865206f776e6572604482015290519081900360640190fd5b6002544210156101be576040805162461bcd60e51b81526020600482015260116024820152706e6f7420706f737369626c652074696d6560781b604482015290519081900360640190fd5b600154604080516370a0823160e01b815230600482015290516001600160a01b039092169163e3b99e8591849184916370a08231916024808301926020929190829003018186803b15801561021257600080fd5b505afa158015610226573d6000803e3d6000fd5b505050506040513d602081101561023c57600080fd5b5051604080516001600160e01b031960e086901b1681526001600160a01b03909316600484015260248301919091525160448083019260209291908290030181600087803b15801561028d57600080fd5b505af11580156102a1573d6000803e3d6000fd5b505050506040513d60208110156102b757600080fd5b505050565b6102c4610498565b6000546001600160a01b03908116911614610326576040805162461bcd60e51b815260206004820181905260248201527f4f776e61626c653a2063616c6c6572206973206e6f7420746865206f776e6572604482015290519081900360640190fd5b600080546040516001600160a01b03909116907f8be0079c531659141344cd1fd0a4f28419497f9722a3daafe3b4186f6b6457e0908390a3600080546001600160a01b0319169055565b6001546001600160a01b031681565b6000546001600160a01b031690565b610396610498565b6000546001600160a01b039081169116146103f8576040805162461bcd60e51b815260206004820181905260248201527f4f776e61626c653a2063616c6c6572206973206e6f7420746865206f776e6572604482015290519081900360640190fd5b6001600160a01b03811661043d5760405162461bcd60e51b815260040180806020018281038252602681526020018061049d6026913960400191505060405180910390fd5b600080546040516001600160a01b03808516939216917f8be0079c531659141344cd1fd0a4f28419497f9722a3daafe3b4186f6b6457e091a3600080546001600160a01b0319166001600160a01b0392909216919091179055565b339056fe4f776e61626c653a206e6577206f776e657220697320746865207a65726f2061646472657373a26469706673582212205e5ae2b72e943a9d2e1f5d997a5e7165d7573ec148ef9dd51d27f6c8e6849c2a64736f6c63430007060033",
  "immutableReferences": {},
  "source": "// SPDX-License-Identifier: MIT\npragma solidity ^0.7.6;\n\nimport { Ownable } from \"../../node_modules/@openzeppelin/contracts/access/Ownable.sol\";\nimport { SafeMath } from \"../../node_modules/@openzeppelin/contracts/math/SafeMath.sol\";\nimport { IWTON } from \"../interfaces/IWTON.sol\";\n\ncontract OldDAOVaultMock is Ownable {\n    using SafeMath for uint256;\n\n    IWTON public wton;\n    uint256 public claimEnableTime; // 2021-01-01\n\n    modifier onlyClaimEnable() {\n      require(block.timestamp >= claimEnableTime, \"not possible time\");\n      _;\n    }\n\n    constructor(address wtonAddress, uint256 claimEnableTime_) public {\n        wton = IWTON(wtonAddress);\n        claimEnableTime = claimEnableTime_;\n    }\n\n    function claim(address dao) external onlyOwner onlyClaimEnable {\n      wton.swapToTONAndTransfer(dao, wton.balanceOf(address(this)));\n    }\n}\n",
  "sourcePath": "/Users/zena/plasmawork/tokamak-dao-contracts/contracts/mock/OldDAOVaultMock.sol",
  "compiler": {
    "name": "solc",
    "version": "0.7.6+commit.7338295f.Emscripten.clang"
  },
  "schemaVersion": "3.3.2",
  "updatedAt": "2021-03-02T01:34:36.352Z",
  "devdoc": {
    "kind": "dev",
    "methods": {
      "owner()": {
        "details": "Returns the address of the current owner."
      },
      "renounceOwnership()": {
        "details": "Leaves the contract without owner. It will not be possible to call `onlyOwner` functions anymore. Can only be called by the current owner. NOTE: Renouncing ownership will leave the contract without an owner, thereby removing any functionality that is only available to the owner."
      },
      "transferOwnership(address)": {
        "details": "Transfers ownership of the contract to a new account (`newOwner`). Can only be called by the current owner."
      }
    },
    "version": 1
  },
  "userdoc": {
    "kind": "user",
    "methods": {},
    "version": 1
  }
}