{
  "contractName": "PreMiningStorageSetting",
  "abi": [
    {
      "anonymous": false,
      "inputs": [
        {
          "indexed": true,
          "internalType": "bytes32",
          "name": "role",
          "type": "bytes32"
        },
        {
          "indexed": true,
          "internalType": "bytes32",
          "name": "previousAdminRole",
          "type": "bytes32"
        },
        {
          "indexed": true,
          "internalType": "bytes32",
          "name": "newAdminRole",
          "type": "bytes32"
        }
      ],
      "name": "RoleAdminChanged",
      "type": "event"
    },
    {
      "anonymous": false,
      "inputs": [
        {
          "indexed": true,
          "internalType": "bytes32",
          "name": "role",
          "type": "bytes32"
        },
        {
          "indexed": true,
          "internalType": "address",
          "name": "account",
          "type": "address"
        },
        {
          "indexed": true,
          "internalType": "address",
          "name": "sender",
          "type": "address"
        }
      ],
      "name": "RoleGranted",
      "type": "event"
    },
    {
      "anonymous": false,
      "inputs": [
        {
          "indexed": true,
          "internalType": "bytes32",
          "name": "role",
          "type": "bytes32"
        },
        {
          "indexed": true,
          "internalType": "address",
          "name": "account",
          "type": "address"
        },
        {
          "indexed": true,
          "internalType": "address",
          "name": "sender",
          "type": "address"
        }
      ],
      "name": "RoleRevoked",
      "type": "event"
    },
    {
      "inputs": [],
      "name": "ADMIN_ROLE",
      "outputs": [
        {
          "internalType": "bytes32",
          "name": "",
          "type": "bytes32"
        }
      ],
      "stateMutability": "view",
      "type": "function"
    },
    {
      "inputs": [],
      "name": "DEFAULT_ADMIN_ROLE",
      "outputs": [
        {
          "internalType": "bytes32",
          "name": "",
          "type": "bytes32"
        }
      ],
      "stateMutability": "view",
      "type": "function"
    },
    {
      "inputs": [],
      "name": "cap",
      "outputs": [
        {
          "internalType": "uint256",
          "name": "",
          "type": "uint256"
        }
      ],
      "stateMutability": "view",
      "type": "function"
    },
    {
      "inputs": [],
      "name": "defaultDuration",
      "outputs": [
        {
          "internalType": "uint256",
          "name": "",
          "type": "uint256"
        }
      ],
      "stateMutability": "view",
      "type": "function"
    },
    {
      "inputs": [],
      "name": "endTime",
      "outputs": [
        {
          "internalType": "uint256",
          "name": "",
          "type": "uint256"
        }
      ],
      "stateMutability": "view",
      "type": "function"
    },
    {
      "inputs": [
        {
          "internalType": "bytes32",
          "name": "role",
          "type": "bytes32"
        }
      ],
      "name": "getRoleAdmin",
      "outputs": [
        {
          "internalType": "bytes32",
          "name": "",
          "type": "bytes32"
        }
      ],
      "stateMutability": "view",
      "type": "function"
    },
    {
      "inputs": [
        {
          "internalType": "bytes32",
          "name": "role",
          "type": "bytes32"
        },
        {
          "internalType": "uint256",
          "name": "index",
          "type": "uint256"
        }
      ],
      "name": "getRoleMember",
      "outputs": [
        {
          "internalType": "address",
          "name": "",
          "type": "address"
        }
      ],
      "stateMutability": "view",
      "type": "function"
    },
    {
      "inputs": [
        {
          "internalType": "bytes32",
          "name": "role",
          "type": "bytes32"
        }
      ],
      "name": "getRoleMemberCount",
      "outputs": [
        {
          "internalType": "uint256",
          "name": "",
          "type": "uint256"
        }
      ],
      "stateMutability": "view",
      "type": "function"
    },
    {
      "inputs": [
        {
          "internalType": "bytes32",
          "name": "role",
          "type": "bytes32"
        },
        {
          "internalType": "address",
          "name": "account",
          "type": "address"
        }
      ],
      "name": "grantRole",
      "outputs": [],
      "stateMutability": "nonpayable",
      "type": "function"
    },
    {
      "inputs": [
        {
          "internalType": "bytes32",
          "name": "role",
          "type": "bytes32"
        },
        {
          "internalType": "address",
          "name": "account",
          "type": "address"
        }
      ],
      "name": "hasRole",
      "outputs": [
        {
          "internalType": "bool",
          "name": "",
          "type": "bool"
        }
      ],
      "stateMutability": "view",
      "type": "function"
    },
    {
      "inputs": [],
      "name": "maxRatio",
      "outputs": [
        {
          "internalType": "uint256",
          "name": "",
          "type": "uint256"
        }
      ],
      "stateMutability": "view",
      "type": "function"
    },
    {
      "inputs": [],
      "name": "paytoken",
      "outputs": [
        {
          "internalType": "address",
          "name": "",
          "type": "address"
        }
      ],
      "stateMutability": "view",
      "type": "function"
    },
    {
      "inputs": [],
      "name": "ratioType",
      "outputs": [
        {
          "internalType": "uint256",
          "name": "",
          "type": "uint256"
        }
      ],
      "stateMutability": "view",
      "type": "function"
    },
    {
      "inputs": [
        {
          "internalType": "bytes32",
          "name": "role",
          "type": "bytes32"
        },
        {
          "internalType": "address",
          "name": "account",
          "type": "address"
        }
      ],
      "name": "renounceRole",
      "outputs": [],
      "stateMutability": "nonpayable",
      "type": "function"
    },
    {
      "inputs": [
        {
          "internalType": "bytes32",
          "name": "role",
          "type": "bytes32"
        },
        {
          "internalType": "address",
          "name": "account",
          "type": "address"
        }
      ],
      "name": "revokeRole",
      "outputs": [],
      "stateMutability": "nonpayable",
      "type": "function"
    },
    {
      "inputs": [],
      "name": "startTime",
      "outputs": [
        {
          "internalType": "uint256",
          "name": "",
          "type": "uint256"
        }
      ],
      "stateMutability": "view",
      "type": "function"
    },
    {
      "inputs": [],
      "name": "token",
      "outputs": [
        {
          "internalType": "address",
          "name": "",
          "type": "address"
        }
      ],
      "stateMutability": "view",
      "type": "function"
    },
    {
      "inputs": [
        {
          "internalType": "address",
          "name": "",
          "type": "address"
        },
        {
          "internalType": "uint256",
          "name": "",
          "type": "uint256"
        }
      ],
      "name": "userLockStakedToken",
      "outputs": [
        {
          "internalType": "bool",
          "name": "released",
          "type": "bool"
        },
        {
          "internalType": "uint256",
          "name": "releaseTime",
          "type": "uint256"
        },
        {
          "internalType": "uint256",
          "name": "amount",
          "type": "uint256"
        }
      ],
      "stateMutability": "view",
      "type": "function"
    },
    {
      "inputs": [],
      "name": "weiRaised",
      "outputs": [
        {
          "internalType": "uint256",
          "name": "",
          "type": "uint256"
        }
      ],
      "stateMutability": "view",
      "type": "function"
    },
    {
      "inputs": [
        {
          "internalType": "uint256",
          "name": "_startTime",
          "type": "uint256"
        },
        {
          "internalType": "uint256",
          "name": "_endTime",
          "type": "uint256"
        }
      ],
      "name": "changeStartEndTime",
      "outputs": [],
      "stateMutability": "nonpayable",
      "type": "function"
    },
    {
      "inputs": [
        {
          "internalType": "uint256",
          "name": "_defaultDuration",
          "type": "uint256"
        }
      ],
      "name": "changeDefaultDuration",
      "outputs": [],
      "stateMutability": "nonpayable",
      "type": "function"
    },
    {
      "inputs": [
        {
          "internalType": "uint256",
          "name": "_cap",
          "type": "uint256"
        }
      ],
      "name": "changeCap",
      "outputs": [],
      "stateMutability": "nonpayable",
      "type": "function"
    },
    {
      "inputs": [
        {
          "internalType": "uint256",
          "name": "_ratioType",
          "type": "uint256"
        }
      ],
      "name": "changeRewardRatioType",
      "outputs": [],
      "stateMutability": "nonpayable",
      "type": "function"
    },
    {
      "inputs": [
        {
          "internalType": "uint256",
          "name": "_duration",
          "type": "uint256"
        }
      ],
      "name": "getLinearRatioByDuration",
      "outputs": [
        {
          "internalType": "uint256",
          "name": "ratio",
          "type": "uint256"
        }
      ],
      "stateMutability": "view",
      "type": "function"
    },
    {
      "inputs": [
        {
          "internalType": "uint256",
          "name": "_amount",
          "type": "uint256"
        },
        {
          "internalType": "uint256",
          "name": "_duration",
          "type": "uint256"
        }
      ],
      "name": "calculateAmountLinearRatioByDuration",
      "outputs": [
        {
          "internalType": "uint256",
          "name": "_newAmount",
          "type": "uint256"
        }
      ],
      "stateMutability": "view",
      "type": "function"
    }
  ],
  "bytecode": "0x608060405234801561001057600080fd5b50610ca3806100206000396000f3fe608060405234801561001057600080fd5b50600436106101735760003560e01c806376365af7116100de57806393de9e1511610097578063cdfd867811610071578063cdfd8678146103b3578063d547741f146103d0578063e420bb35146103fc578063fc0c546a1461041f57610173565b806393de9e1514610371578063a217fddf1461038e578063ca15c8731461039657610173565b806376365af7146102be57806378e97925146102c6578063800edb9d146102ce5780638a314784146102eb5780639010d07c1461030e57806391d148541461033157610173565b806336568abe1161013057806336568abe1461020a5780633dd07d88146102365780634042b66f1461028257806343b0934a1461028a5780636b9559c0146102ae57806375b238fc146102b657610173565b8063248a9ca314610178578063288936de146101a75780632af7e2ea146101c65780632f2ff15d146101ce5780633197cbb6146101fa578063355274ea14610202575b600080fd5b6101956004803603602081101561018e57600080fd5b5035610427565b60408051918252519081900360200190f35b6101c4600480360360208110156101bd57600080fd5b503561043c565b005b6101956104a2565b6101c4600480360360408110156101e457600080fd5b50803590602001356001600160a01b03166104a8565b610195610514565b61019561051a565b6101c46004803603604081101561022057600080fd5b50803590602001356001600160a01b0316610520565b6102626004803603604081101561024c57600080fd5b506001600160a01b038135169060200135610581565b604080519315158452602084019290925282820152519081900360600190f35b6101956105c7565b6102926105cd565b604080516001600160a01b039092168252519081900360200190f35b6101956105dc565b6101956105e2565b6101956105f4565b6101956105fa565b6101c4600480360360208110156102e457600080fd5b5035610600565b6101c46004803603604081101561030157600080fd5b5080359060200135610665565b6102926004803603604081101561032457600080fd5b5080359060200135610703565b61035d6004803603604081101561034757600080fd5b50803590602001356001600160a01b0316610724565b604080519115158252519081900360200190f35b6101c46004803603602081101561038757600080fd5b503561073c565b6101956107a1565b610195600480360360208110156103ac57600080fd5b50356107a6565b610195600480360360208110156103c957600080fd5b50356107bd565b6101c4600480360360408110156103e657600080fd5b50803590602001356001600160a01b0316610804565b6101956004803603604081101561041257600080fd5b508035906020013561085d565b6102926108a7565b60009081526020819052604090206002015490565b610454600080516020610c1f83398151915233610724565b61048f5760405162461bcd60e51b815260040180806020018281038252602b815260200180610bc4602b913960400191505060405180910390fd5b600181111561049d57600080fd5b600955565b60055481565b6000828152602081905260409020600201546104cb906104c66108b6565b610724565b6105065760405162461bcd60e51b815260040180806020018281038252602f815260200180610b95602f913960400191505060405180910390fd5b61051082826108ba565b5050565b60045481565b60065481565b6105286108b6565b6001600160a01b0316816001600160a01b0316146105775760405162461bcd60e51b815260040180806020018281038252602f815260200180610c3f602f913960400191505060405180910390fd5b6105108282610923565b600a602052816000526040600020818154811061059d57600080fd5b600091825260209091206003909102018054600182015460029092015460ff909116935090915083565b60075481565b6002546001600160a01b031681565b60095481565b600080516020610c1f83398151915281565b60085481565b60035481565b610618600080516020610c1f83398151915233610724565b6106535760405162461bcd60e51b815260040180806020018281038252602b815260200180610bc4602b913960400191505060405180910390fd5b6000811161066057600080fd5b600655565b61067d600080516020610c1f83398151915233610724565b6106b85760405162461bcd60e51b815260040180806020018281038252602b815260200180610bc4602b913960400191505060405180910390fd5b6000821180156106c85750600081115b80156106d357508082105b6106dc57600080fd5b600354821415806106ef57506004548114155b6106f857600080fd5b600391909155600455565b600082815260208190526040812061071b908361098c565b90505b92915050565b600082815260208190526040812061071b9083610998565b610754600080516020610c1f83398151915233610724565b61078f5760405162461bcd60e51b815260040180806020018281038252602b815260200180610bc4602b913960400191505060405180910390fd5b6000811161079c57600080fd5b600555565b600081565b600081815260208190526040812061071e906109ad565b6000806008541180156107d257506000600354115b80156107e15750600454600354105b6107ea57600080fd5b6008546003546004540383816107fc57fe5b040292915050565b600082815260208190526040902060020154610822906104c66108b6565b6105775760405162461bcd60e51b8152600401808060200182810382526030815260200180610bef6030913960400191505060405180910390fd5b60008060085411801561087257506000600354115b80156108815750600454600354105b61088a57600080fd5b600854600354600454038385028161089e57fe5b04029392505050565b6001546001600160a01b031681565b3390565b60008281526020819052604090206108d290826109b8565b15610510576108df6108b6565b6001600160a01b0316816001600160a01b0316837f2f8788117e7eff1d82e926ec794901d17c78024a50270940304540a733656f0d60405160405180910390a45050565b600082815260208190526040902061093b90826109cd565b15610510576109486108b6565b6001600160a01b0316816001600160a01b0316837ff6391f5c32d9c69d2a47ea670b442974b53935d1edc7fd64eb21e047a839171b60405160405180910390a45050565b600061071b83836109e2565b600061071b836001600160a01b038416610a46565b600061071e82610a5e565b600061071b836001600160a01b038416610a62565b600061071b836001600160a01b038416610aac565b81546000908210610a245760405162461bcd60e51b8152600401808060200182810382526022815260200180610b736022913960400191505060405180910390fd5b826000018281548110610a3357fe5b9060005260206000200154905092915050565b60009081526001919091016020526040902054151590565b5490565b6000610a6e8383610a46565b610aa45750815460018181018455600084815260208082209093018490558454848252828601909352604090209190915561071e565b50600061071e565b60008181526001830160205260408120548015610b685783546000198083019190810190600090879083908110610adf57fe5b9060005260206000200154905080876000018481548110610afc57fe5b600091825260208083209091019290925582815260018981019092526040902090840190558654879080610b2c57fe5b6001900381819060005260206000200160009055905586600101600087815260200190815260200160002060009055600194505050505061071e565b600091505061071e56fe456e756d657261626c655365743a20696e646578206f7574206f6620626f756e6473416363657373436f6e74726f6c3a2073656e646572206d75737420626520616e2061646d696e20746f206772616e74506861727365315374616b6553657474696e673a2043616c6c6572206973206e6f7420616e2061646d696e416363657373436f6e74726f6c3a2073656e646572206d75737420626520616e2061646d696e20746f207265766f6b65df8b4c520ffe197c5343c6f5aec59570151ef9a492f2c624fd45ddde6135ec42416363657373436f6e74726f6c3a2063616e206f6e6c792072656e6f756e636520726f6c657320666f722073656c66a2646970667358221220033e028d7b071272fec62ee60197892a70c7d403c71195cb22ff8451cea9875e64736f6c63430007060033",
  "immutableReferences": {},
  "source": "//SPDX-License-Identifier: Unlicense\npragma solidity ^0.7.0;\n\nimport \"../libraries/LibTokenSale.sol\";\nimport './PreMiningStorage.sol';\ncontract PreMiningStorageSetting is PreMiningStorage {\n\n    enum REWARD_RATIOTYPE { LINEAR_TIME, FIXED_STEP  }\n\n    modifier onlyOwner() {\n        require(hasRole(ADMIN_ROLE, msg.sender), \"Pharse1StakeSetting: Caller is not an admin\");\n        _;\n    }\n\n    /**\n    * external\n    */\n    function changeStartEndTime(\n        uint256 _startTime,\n        uint256 _endTime\n    )\n        external\n        onlyOwner\n    {\n        require(_startTime > 0 && _endTime > 0 && _startTime < _endTime);\n        require(_startTime != startTime || _endTime != endTime );\n\n        startTime = _startTime;\n        endTime = _endTime;\n    }\n\n    function changeDefaultDuration(\n        uint256 _defaultDuration\n    )\n        external\n        onlyOwner\n    {\n        require(_defaultDuration > 0);\n        defaultDuration = _defaultDuration;\n    }\n\n    function changeCap(\n        uint256 _cap\n    )\n        external\n        onlyOwner\n    {\n        require(_cap > 0);\n        cap = _cap;\n    }\n\n    function changeRewardRatioType(\n        uint _ratioType\n    )\n        external\n        onlyOwner\n    {\n        require(_ratioType >= uint(REWARD_RATIOTYPE.LINEAR_TIME) && _ratioType <= uint(REWARD_RATIOTYPE.FIXED_STEP));\n        ratioType = _ratioType;\n    }\n\n    /**\n    * public\n    */\n\n    function getLinearRatioByDuration(uint256 _duration) public view returns (uint256 ratio) {\n        require(maxRatio > 0 && startTime > 0 && startTime < endTime);\n\n        ratio = _duration / (endTime-startTime) * maxRatio;\n    }\n\n    function calculateAmountLinearRatioByDuration(uint _amount, uint256 _duration)\n      public view returns (uint256 _newAmount) {\n        require(maxRatio > 0 && startTime > 0 && startTime < endTime);\n\n        _newAmount = _amount * _duration / (endTime-startTime) * maxRatio;\n    }\n\n}\n",
  "sourcePath": "/Users/zena/ico2.0/ico20-contracts/contracts/platform/PreMiningStorageSetting.sol",
  "compiler": {
    "name": "solc",
    "version": "0.7.6+commit.7338295f.Emscripten.clang"
  },
  "schemaVersion": "3.3.4",
  "updatedAt": "2021-04-22T13:47:41.011Z",
  "devdoc": {
    "kind": "dev",
    "methods": {
      "getRoleAdmin(bytes32)": {
        "details": "Returns the admin role that controls `role`. See {grantRole} and {revokeRole}. To change a role's admin, use {_setRoleAdmin}."
      },
      "getRoleMember(bytes32,uint256)": {
        "details": "Returns one of the accounts that have `role`. `index` must be a value between 0 and {getRoleMemberCount}, non-inclusive. Role bearers are not sorted in any particular way, and their ordering may change at any point. WARNING: When using {getRoleMember} and {getRoleMemberCount}, make sure you perform all queries on the same block. See the following https://forum.openzeppelin.com/t/iterating-over-elements-on-enumerableset-in-openzeppelin-contracts/2296[forum post] for more information."
      },
      "getRoleMemberCount(bytes32)": {
        "details": "Returns the number of accounts that have `role`. Can be used together with {getRoleMember} to enumerate all bearers of a role."
      },
      "grantRole(bytes32,address)": {
        "details": "Grants `role` to `account`. If `account` had not been already granted `role`, emits a {RoleGranted} event. Requirements: - the caller must have ``role``'s admin role."
      },
      "hasRole(bytes32,address)": {
        "details": "Returns `true` if `account` has been granted `role`."
      },
      "renounceRole(bytes32,address)": {
        "details": "Revokes `role` from the calling account. Roles are often managed via {grantRole} and {revokeRole}: this function's purpose is to provide a mechanism for accounts to lose their privileges if they are compromised (such as when a trusted device is misplaced). If the calling account had been granted `role`, emits a {RoleRevoked} event. Requirements: - the caller must be `account`."
      },
      "revokeRole(bytes32,address)": {
        "details": "Revokes `role` from `account`. If `account` had been granted `role`, emits a {RoleRevoked} event. Requirements: - the caller must have ``role``'s admin role."
      }
    },
    "version": 1
  },
  "userdoc": {
    "kind": "user",
    "methods": {
      "changeStartEndTime(uint256,uint256)": {
        "notice": "external"
      },
      "defaultDuration()": {
        "notice": "When only Ether is sent, the mining period is set to this value. When creating a contract, this value is set as the end time-start time."
      },
      "getLinearRatioByDuration(uint256)": {
        "notice": "public"
      }
    },
    "version": 1
  }
}