{
  "contractName": "ProjectTokenFactory",
  "abi": [
    {
      "inputs": [],
      "name": "ADMIN_ROLE",
      "outputs": [
        {
          "internalType": "bytes32",
          "name": "",
          "type": "bytes32"
        }
      ],
      "stateMutability": "view",
      "type": "function"
    },
    {
      "inputs": [
        {
          "internalType": "string",
          "name": "_tokenName",
          "type": "string"
        },
        {
          "internalType": "string",
          "name": "_symbol",
          "type": "string"
        },
        {
          "internalType": "uint256",
          "name": "_totalSupply",
          "type": "uint256"
        },
        {
          "internalType": "address",
          "name": "to",
          "type": "address"
        }
      ],
      "name": "deploy",
      "outputs": [
        {
          "internalType": "address",
          "name": "",
          "type": "address"
        }
      ],
      "stateMutability": "nonpayable",
      "type": "function"
    }
  ],
  "bytecode": "0x608060405234801561001057600080fd5b50611924806100206000396000f3fe608060405234801561001057600080fd5b50600436106100365760003560e01c806375b238fc1461003b578063c3136aa814610055575b600080fd5b6100436101ac565b60408051918252519081900360200190f35b6101906004803603608081101561006b57600080fd5b81019060208101813564010000000081111561008657600080fd5b82018360208201111561009857600080fd5b803590602001918460018302840111640100000000831117156100ba57600080fd5b91908080601f016020809104026020016040519081016040528093929190818152602001838380828437600092019190915250929594936020810193503591505064010000000081111561010d57600080fd5b82018360208201111561011f57600080fd5b8035906020019184600183028401116401000000008311171561014157600080fd5b91908080601f01602080910402602001604051908101604052809392919081815260200183838082843760009201919091525092955050823593505050602001356001600160a01b03166101d0565b604080516001600160a01b039092168252519081900360200190f35b7fdf8b4c520ffe197c5343c6f5aec59570151ef9a492f2c624fd45ddde6135ec4281565b600080858585856040516101e390610407565b604081018390526001600160a01b038216606082015260808082528551908201528451819060208083019160a084019189019080838360005b8381101561023457818101518382015260200161021c565b50505050905090810190601f1680156102615780820380516001836020036101000a031916815260200191505b50838103825286518152865160209182019188019080838360005b8381101561029457818101518382015260200161027c565b50505050905090810190601f1680156102c15780820380516001836020036101000a031916815260200191505b509650505050505050604051809103906000f0801580156102e6573d6000803e3d6000fd5b509050806001600160a01b0316632f2ff15d7fdf8b4c520ffe197c5343c6f5aec59570151ef9a492f2c624fd45ddde6135ec42856040518363ffffffff1660e01b815260040180838152602001826001600160a01b0316815260200192505050600060405180830381600087803b15801561036057600080fd5b505af1158015610374573d6000803e3d6000fd5b50506040805163d547741f60e01b81527fdf8b4c520ffe197c5343c6f5aec59570151ef9a492f2c624fd45ddde6135ec42600482015230602482015290516001600160a01b038516935063d547741f9250604480830192600092919082900301818387803b1580156103e557600080fd5b505af11580156103f9573d6000803e3d6000fd5b509298975050505050505050565b6114da806104158339019056fe60806040523480156200001157600080fd5b50604051620014da380380620014da833981810160405260808110156200003757600080fd5b81019080805160405193929190846401000000008211156200005857600080fd5b9083019060208201858111156200006e57600080fd5b82516401000000008111828201881017156200008957600080fd5b82525081516020918201929091019080838360005b83811015620000b85781810151838201526020016200009e565b50505050905090810190601f168015620000e65780820380516001836020036101000a031916815260200191505b50604052602001805160405193929190846401000000008211156200010a57600080fd5b9083019060208201858111156200012057600080fd5b82516401000000008111828201881017156200013b57600080fd5b82525081516020918201929091019080838360005b838110156200016a57818101518382015260200162000150565b50505050905090810190601f168015620001985780820380516001836020036101000a031916815260200191505b50604090815260208281015192909101518651929450925085918591620001c59160039185019062000391565b508051620001db90600490602084019062000391565b50506005805460ff19166012179055506200020881620001fa62000212565b60ff16600a0a84026200021b565b505050506200043d565b60055460ff1690565b6001600160a01b03821662000277576040805162461bcd60e51b815260206004820152601f60248201527f45524332303a206d696e7420746f20746865207a65726f206164647265737300604482015290519081900360640190fd5b62000285600083836200032a565b620002a1816002546200032f60201b620008ad1790919060201c565b6002556001600160a01b03821660009081526020818152604090912054620002d4918390620008ad6200032f821b17901c565b6001600160a01b0383166000818152602081815260408083209490945583518581529351929391927fddf252ad1be2c89b69c2b068fc378daa952ba7f163c4a11628f55a4df523b3ef9281900390910190a35050565b505050565b6000828201838110156200038a576040805162461bcd60e51b815260206004820152601b60248201527f536166654d6174683a206164646974696f6e206f766572666c6f770000000000604482015290519081900360640190fd5b9392505050565b828054600181600116156101000203166002900490600052602060002090601f016020900481019282620003c9576000855562000414565b82601f10620003e457805160ff191683800117855562000414565b8280016001018555821562000414579182015b8281111562000414578251825591602001919060010190620003f7565b506200042292915062000426565b5090565b5b8082111562000422576000815560010162000427565b61108d806200044d6000396000f3fe608060405234801561001057600080fd5b50600436106101215760003560e01c806370a08231116100ad578063a457c2d711610071578063a457c2d714610395578063a9059cbb146103c1578063ca15c873146103ed578063d547741f1461040a578063dd62ed3e1461043657610121565b806370a08231146102f45780639010d07c1461031a57806391d148541461035957806395d89b4114610385578063a217fddf1461038d57610121565b8063248a9ca3116100f4578063248a9ca3146102335780632f2ff15d14610250578063313ce5671461027e57806336568abe1461029c57806339509351146102c857610121565b806306fdde0314610126578063095ea7b3146101a357806318160ddd146101e357806323b872dd146101fd575b600080fd5b61012e610464565b6040805160208082528351818301528351919283929083019185019080838360005b83811015610168578181015183820152602001610150565b50505050905090810190601f1680156101955780820380516001836020036101000a031916815260200191505b509250505060405180910390f35b6101cf600480360360408110156101b957600080fd5b506001600160a01b0381351690602001356104fa565b604080519115158252519081900360200190f35b6101eb610518565b60408051918252519081900360200190f35b6101cf6004803603606081101561021357600080fd5b506001600160a01b0381358116916020810135909116906040013561051e565b6101eb6004803603602081101561024957600080fd5b50356105a5565b61027c6004803603604081101561026657600080fd5b50803590602001356001600160a01b03166105ba565b005b610286610626565b6040805160ff9092168252519081900360200190f35b61027c600480360360408110156102b257600080fd5b50803590602001356001600160a01b031661062f565b6101cf600480360360408110156102de57600080fd5b506001600160a01b038135169060200135610690565b6101eb6004803603602081101561030a57600080fd5b50356001600160a01b03166106de565b61033d6004803603604081101561033057600080fd5b50803590602001356106f9565b604080516001600160a01b039092168252519081900360200190f35b6101cf6004803603604081101561036f57600080fd5b50803590602001356001600160a01b0316610718565b61012e610730565b6101eb610791565b6101cf600480360360408110156103ab57600080fd5b506001600160a01b038135169060200135610796565b6101cf600480360360408110156103d757600080fd5b506001600160a01b0381351690602001356107fe565b6101eb6004803603602081101561040357600080fd5b5035610812565b61027c6004803603604081101561042057600080fd5b50803590602001356001600160a01b0316610829565b6101eb6004803603604081101561044c57600080fd5b506001600160a01b0381358116916020013516610882565b60038054604080516020601f60026000196101006001881615020190951694909404938401819004810282018101909252828152606093909290918301828280156104f05780601f106104c5576101008083540402835291602001916104f0565b820191906000526020600020905b8154815290600101906020018083116104d357829003601f168201915b5050505050905090565b600061050e610507610907565b848461090b565b5060015b92915050565b60025490565b600061052b8484846109f7565b61059b84610537610907565b61059685604051806060016040528060288152602001610f93602891396001600160a01b038a16600090815260016020526040812090610575610907565b6001600160a01b031681526020810191909152604001600020549190610b52565b61090b565b5060019392505050565b60009081526006602052604090206002015490565b6000828152600660205260409020600201546105dd906105d8610907565b610718565b6106185760405162461bcd60e51b815260040180806020018281038252602f815260200180610eec602f913960400191505060405180910390fd5b6106228282610be9565b5050565b60055460ff1690565b610637610907565b6001600160a01b0316816001600160a01b0316146106865760405162461bcd60e51b815260040180806020018281038252602f815260200180611029602f913960400191505060405180910390fd5b6106228282610c52565b600061050e61069d610907565b8461059685600160006106ae610907565b6001600160a01b03908116825260208083019390935260409182016000908120918c1681529252902054906108ad565b6001600160a01b031660009081526020819052604090205490565b60008281526006602052604081206107119083610cbb565b9392505050565b60008281526006602052604081206107119083610cc7565b60048054604080516020601f60026000196101006001881615020190951694909404938401819004810282018101909252828152606093909290918301828280156104f05780601f106104c5576101008083540402835291602001916104f0565b600081565b600061050e6107a3610907565b846105968560405180606001604052806025815260200161100460259139600160006107cd610907565b6001600160a01b03908116825260208083019390935260409182016000908120918d16815292529020549190610b52565b600061050e61080b610907565b84846109f7565b600081815260066020526040812061051290610cdc565b600082815260066020526040902060020154610847906105d8610907565b6106865760405162461bcd60e51b8152600401808060200182810382526030815260200180610f636030913960400191505060405180910390fd5b6001600160a01b03918216600090815260016020908152604080832093909416825291909152205490565b600082820183811015610711576040805162461bcd60e51b815260206004820152601b60248201527f536166654d6174683a206164646974696f6e206f766572666c6f770000000000604482015290519081900360640190fd5b3390565b6001600160a01b0383166109505760405162461bcd60e51b8152600401808060200182810382526024815260200180610fe06024913960400191505060405180910390fd5b6001600160a01b0382166109955760405162461bcd60e51b8152600401808060200182810382526022815260200180610f1b6022913960400191505060405180910390fd5b6001600160a01b03808416600081815260016020908152604080832094871680845294825291829020859055815185815291517f8c5be1e5ebec7d5bd14f71427d1e84f3dd0314c0f7b2291e5b200ac8c7c3b9259281900390910190a3505050565b6001600160a01b038316610a3c5760405162461bcd60e51b8152600401808060200182810382526025815260200180610fbb6025913960400191505060405180910390fd5b6001600160a01b038216610a815760405162461bcd60e51b8152600401808060200182810382526023815260200180610ec96023913960400191505060405180910390fd5b610a8c838383610ce7565b610ac981604051806060016040528060268152602001610f3d602691396001600160a01b0386166000908152602081905260409020549190610b52565b6001600160a01b038085166000908152602081905260408082209390935590841681522054610af890826108ad565b6001600160a01b038084166000818152602081815260409182902094909455805185815290519193928716927fddf252ad1be2c89b69c2b068fc378daa952ba7f163c4a11628f55a4df523b3ef92918290030190a3505050565b60008184841115610be15760405162461bcd60e51b81526004018080602001828103825283818151815260200191508051906020019080838360005b83811015610ba6578181015183820152602001610b8e565b50505050905090810190601f168015610bd35780820380516001836020036101000a031916815260200191505b509250505060405180910390fd5b505050900390565b6000828152600660205260409020610c019082610cec565b1561062257610c0e610907565b6001600160a01b0316816001600160a01b0316837f2f8788117e7eff1d82e926ec794901d17c78024a50270940304540a733656f0d60405160405180910390a45050565b6000828152600660205260409020610c6a9082610d01565b1561062257610c77610907565b6001600160a01b0316816001600160a01b0316837ff6391f5c32d9c69d2a47ea670b442974b53935d1edc7fd64eb21e047a839171b60405160405180910390a45050565b60006107118383610d16565b6000610711836001600160a01b038416610d7a565b600061051282610d92565b505050565b6000610711836001600160a01b038416610d96565b6000610711836001600160a01b038416610de0565b81546000908210610d585760405162461bcd60e51b8152600401808060200182810382526022815260200180610ea76022913960400191505060405180910390fd5b826000018281548110610d6757fe5b9060005260206000200154905092915050565b60009081526001919091016020526040902054151590565b5490565b6000610da28383610d7a565b610dd857508154600181810184556000848152602080822090930184905584548482528286019093526040902091909155610512565b506000610512565b60008181526001830160205260408120548015610e9c5783546000198083019190810190600090879083908110610e1357fe5b9060005260206000200154905080876000018481548110610e3057fe5b600091825260208083209091019290925582815260018981019092526040902090840190558654879080610e6057fe5b60019003818190600052602060002001600090559055866001016000878152602001908152602001600020600090556001945050505050610512565b600091505061051256fe456e756d657261626c655365743a20696e646578206f7574206f6620626f756e647345524332303a207472616e7366657220746f20746865207a65726f2061646472657373416363657373436f6e74726f6c3a2073656e646572206d75737420626520616e2061646d696e20746f206772616e7445524332303a20617070726f766520746f20746865207a65726f206164647265737345524332303a207472616e7366657220616d6f756e7420657863656564732062616c616e6365416363657373436f6e74726f6c3a2073656e646572206d75737420626520616e2061646d696e20746f207265766f6b6545524332303a207472616e7366657220616d6f756e74206578636565647320616c6c6f77616e636545524332303a207472616e736665722066726f6d20746865207a65726f206164647265737345524332303a20617070726f76652066726f6d20746865207a65726f206164647265737345524332303a2064656372656173656420616c6c6f77616e63652062656c6f77207a65726f416363657373436f6e74726f6c3a2063616e206f6e6c792072656e6f756e636520726f6c657320666f722073656c66a26469706673582212209f4565b9e2b3bbae1142ee9142889b56510939a46611176cb34d4444653c41d964736f6c63430007060033a2646970667358221220eb4c7da44db0f3471dfa495ad0de4fb61c6fbc71559344cce15d238d6533e12564736f6c63430007060033",
  "immutableReferences": {},
  "source": "// SPDX-License-Identifier: MIT\npragma solidity ^0.7.6;\n\nimport {ProjectToken} from \"../project/ProjectToken.sol\";\n\ncontract ProjectTokenFactory {\n    bytes32 public constant ADMIN_ROLE = keccak256(\"ADMIN\");\n\n    function deploy(\n        string memory _tokenName,\n        string memory _symbol,\n        uint256 _totalSupply,\n        address to\n    ) external returns (address) {\n        ProjectToken token =\n            new ProjectToken(_tokenName, _symbol, _totalSupply, to);\n\n        token.grantRole(ADMIN_ROLE, to);\n        token.revokeRole(ADMIN_ROLE, address(this));\n        return address(token);\n    }\n}\n",
  "sourcePath": "/Users/zena/ico2.0/ico20-contracts/contracts/factory/ProjectTokenFactory.sol",
  "compiler": {
    "name": "solc",
    "version": "0.7.6+commit.7338295f.Emscripten.clang"
  },
  "schemaVersion": "3.3.4",
  "updatedAt": "2021-05-22T02:34:05.648Z",
  "devdoc": {
    "kind": "dev",
    "methods": {},
    "version": 1
  },
  "userdoc": {
    "kind": "user",
    "methods": {},
    "version": 1
  }
}