{
  "contractName": "ProjectStakeVault",
  "abi": [
    {
      "inputs": [],
      "stateMutability": "nonpayable",
      "type": "constructor"
    },
    {
      "anonymous": false,
      "inputs": [
        {
          "indexed": true,
          "internalType": "bytes32",
          "name": "role",
          "type": "bytes32"
        },
        {
          "indexed": true,
          "internalType": "bytes32",
          "name": "previousAdminRole",
          "type": "bytes32"
        },
        {
          "indexed": true,
          "internalType": "bytes32",
          "name": "newAdminRole",
          "type": "bytes32"
        }
      ],
      "name": "RoleAdminChanged",
      "type": "event"
    },
    {
      "anonymous": false,
      "inputs": [
        {
          "indexed": true,
          "internalType": "bytes32",
          "name": "role",
          "type": "bytes32"
        },
        {
          "indexed": true,
          "internalType": "address",
          "name": "account",
          "type": "address"
        },
        {
          "indexed": true,
          "internalType": "address",
          "name": "sender",
          "type": "address"
        }
      ],
      "name": "RoleGranted",
      "type": "event"
    },
    {
      "anonymous": false,
      "inputs": [
        {
          "indexed": true,
          "internalType": "bytes32",
          "name": "role",
          "type": "bytes32"
        },
        {
          "indexed": true,
          "internalType": "address",
          "name": "account",
          "type": "address"
        },
        {
          "indexed": true,
          "internalType": "address",
          "name": "sender",
          "type": "address"
        }
      ],
      "name": "RoleRevoked",
      "type": "event"
    },
    {
      "inputs": [],
      "name": "ADMIN_ROLE",
      "outputs": [
        {
          "internalType": "bytes32",
          "name": "",
          "type": "bytes32"
        }
      ],
      "stateMutability": "view",
      "type": "function"
    },
    {
      "inputs": [],
      "name": "DEFAULT_ADMIN_ROLE",
      "outputs": [
        {
          "internalType": "bytes32",
          "name": "",
          "type": "bytes32"
        }
      ],
      "stateMutability": "view",
      "type": "function"
    },
    {
      "inputs": [
        {
          "internalType": "bytes32",
          "name": "role",
          "type": "bytes32"
        }
      ],
      "name": "getRoleAdmin",
      "outputs": [
        {
          "internalType": "bytes32",
          "name": "",
          "type": "bytes32"
        }
      ],
      "stateMutability": "view",
      "type": "function"
    },
    {
      "inputs": [
        {
          "internalType": "bytes32",
          "name": "role",
          "type": "bytes32"
        },
        {
          "internalType": "uint256",
          "name": "index",
          "type": "uint256"
        }
      ],
      "name": "getRoleMember",
      "outputs": [
        {
          "internalType": "address",
          "name": "",
          "type": "address"
        }
      ],
      "stateMutability": "view",
      "type": "function"
    },
    {
      "inputs": [
        {
          "internalType": "bytes32",
          "name": "role",
          "type": "bytes32"
        }
      ],
      "name": "getRoleMemberCount",
      "outputs": [
        {
          "internalType": "uint256",
          "name": "",
          "type": "uint256"
        }
      ],
      "stateMutability": "view",
      "type": "function"
    },
    {
      "inputs": [
        {
          "internalType": "bytes32",
          "name": "role",
          "type": "bytes32"
        },
        {
          "internalType": "address",
          "name": "account",
          "type": "address"
        }
      ],
      "name": "grantRole",
      "outputs": [],
      "stateMutability": "nonpayable",
      "type": "function"
    },
    {
      "inputs": [
        {
          "internalType": "bytes32",
          "name": "role",
          "type": "bytes32"
        },
        {
          "internalType": "address",
          "name": "account",
          "type": "address"
        }
      ],
      "name": "hasRole",
      "outputs": [
        {
          "internalType": "bool",
          "name": "",
          "type": "bool"
        }
      ],
      "stateMutability": "view",
      "type": "function"
    },
    {
      "inputs": [],
      "name": "project",
      "outputs": [
        {
          "internalType": "address",
          "name": "",
          "type": "address"
        }
      ],
      "stateMutability": "view",
      "type": "function"
    },
    {
      "inputs": [
        {
          "internalType": "bytes32",
          "name": "role",
          "type": "bytes32"
        },
        {
          "internalType": "address",
          "name": "account",
          "type": "address"
        }
      ],
      "name": "renounceRole",
      "outputs": [],
      "stateMutability": "nonpayable",
      "type": "function"
    },
    {
      "inputs": [
        {
          "internalType": "bytes32",
          "name": "role",
          "type": "bytes32"
        },
        {
          "internalType": "address",
          "name": "account",
          "type": "address"
        }
      ],
      "name": "revokeRole",
      "outputs": [],
      "stateMutability": "nonpayable",
      "type": "function"
    },
    {
      "inputs": [],
      "name": "staketoken",
      "outputs": [
        {
          "internalType": "address",
          "name": "",
          "type": "address"
        }
      ],
      "stateMutability": "view",
      "type": "function"
    },
    {
      "inputs": [
        {
          "internalType": "address",
          "name": "_project",
          "type": "address"
        },
        {
          "internalType": "address",
          "name": "_staketoken",
          "type": "address"
        }
      ],
      "name": "initialize",
      "outputs": [],
      "stateMutability": "nonpayable",
      "type": "function"
    }
  ],
  "bytecode": "0x608060405234801561001057600080fd5b50610029600080516020610a9283398151915280610046565b610041600080516020610a9283398151915233610098565b61019d565b600082815260208190526040808220600201549051839285917fbd79b86ffe0ab8e8776151514217cd7cacd52c909f66475c3af44e129f0b00ff9190a460009182526020829052604090912060020155565b6100a282826100a6565b5050565b6000828152602081815260409091206100c8918390610544610119821b17901c565b156100a2576100d5610137565b6001600160a01b0316816001600160a01b0316837f2f8788117e7eff1d82e926ec794901d17c78024a50270940304540a733656f0d60405160405180910390a45050565b600061012e836001600160a01b03841661013b565b90505b92915050565b3390565b60006101478383610185565b61017d57508154600181810184556000848152602080822090930184905584548482528286019093526040902091909155610131565b506000610131565b60009081526001919091016020526040902054151590565b6108e6806101ac6000396000f3fe608060405234801561001057600080fd5b50600436106100b45760003560e01c806391d148541161007157806391d14854146101b7578063a217fddf146101f7578063ca15c873146101ff578063d547741f1461021c578063dab2997b14610248578063f60ca60d14610250576100b4565b8063248a9ca3146100b95780632f2ff15d146100e857806336568abe14610116578063485cc9551461014257806375b238fc146101705780639010d07c14610178575b600080fd5b6100d6600480360360208110156100cf57600080fd5b5035610258565b60408051918252519081900360200190f35b610114600480360360408110156100fe57600080fd5b50803590602001356001600160a01b031661026d565b005b6101146004803603604081101561012c57600080fd5b50803590602001356001600160a01b03166102d9565b6101146004803603604081101561015857600080fd5b506001600160a01b038135811691602001351661033a565b6100d6610454565b61019b6004803603604081101561018e57600080fd5b5080359060200135610478565b604080516001600160a01b039092168252519081900360200190f35b6101e3600480360360408110156101cd57600080fd5b50803590602001356001600160a01b0316610499565b604080519115158252519081900360200190f35b6100d66104b1565b6100d66004803603602081101561021557600080fd5b50356104b6565b6101146004803603604081101561023257600080fd5b50803590602001356001600160a01b03166104cd565b61019b610526565b61019b610535565b60009081526020819052604090206002015490565b6000828152602081905260409020600201546102909061028b610559565b610499565b6102cb5760405162461bcd60e51b815260040180806020018281038252602f815260200180610823602f913960400191505060405180910390fd5b6102d5828261055d565b5050565b6102e1610559565b6001600160a01b0316816001600160a01b0316146103305760405162461bcd60e51b815260040180806020018281038252602f815260200180610882602f913960400191505060405180910390fd5b6102d582826105c6565b6103647fdf8b4c520ffe197c5343c6f5aec59570151ef9a492f2c624fd45ddde6135ec4233610499565b6103b5576040805162461bcd60e51b815260206004820152601f60248201527f50726f6a6563743a2043616c6c6572206973206e6f7420616e2061646d696e00604482015290519081900360640190fd5b6001600160a01b038216158015906103d557506001600160a01b03811615155b610426576040805162461bcd60e51b815260206004820152601760248201527f50726f6a6563745374616b655661756c743a207a65726f000000000000000000604482015290519081900360640190fd5b600180546001600160a01b039384166001600160a01b03199182161790915560028054929093169116179055565b7fdf8b4c520ffe197c5343c6f5aec59570151ef9a492f2c624fd45ddde6135ec4281565b6000828152602081905260408120610490908361062f565b90505b92915050565b6000828152602081905260408120610490908361063b565b600081565b600081815260208190526040812061049390610650565b6000828152602081905260409020600201546104eb9061028b610559565b6103305760405162461bcd60e51b81526004018080602001828103825260308152602001806108526030913960400191505060405180910390fd5b6002546001600160a01b031681565b6001546001600160a01b031681565b6000610490836001600160a01b03841661065b565b3390565b60008281526020819052604090206105759082610544565b156102d557610582610559565b6001600160a01b0316816001600160a01b0316837f2f8788117e7eff1d82e926ec794901d17c78024a50270940304540a733656f0d60405160405180910390a45050565b60008281526020819052604090206105de90826106a5565b156102d5576105eb610559565b6001600160a01b0316816001600160a01b0316837ff6391f5c32d9c69d2a47ea670b442974b53935d1edc7fd64eb21e047a839171b60405160405180910390a45050565b600061049083836106ba565b6000610490836001600160a01b03841661071e565b600061049382610736565b6000610667838361071e565b61069d57508154600181810184556000848152602080822090930184905584548482528286019093526040902091909155610493565b506000610493565b6000610490836001600160a01b03841661073a565b815460009082106106fc5760405162461bcd60e51b81526004018080602001828103825260228152602001806108016022913960400191505060405180910390fd5b82600001828154811061070b57fe5b9060005260206000200154905092915050565b60009081526001919091016020526040902054151590565b5490565b600081815260018301602052604081205480156107f6578354600019808301919081019060009087908390811061076d57fe5b906000526020600020015490508087600001848154811061078a57fe5b6000918252602080832090910192909255828152600189810190925260409020908401905586548790806107ba57fe5b60019003818190600052602060002001600090559055866001016000878152602001908152602001600020600090556001945050505050610493565b600091505061049356fe456e756d657261626c655365743a20696e646578206f7574206f6620626f756e6473416363657373436f6e74726f6c3a2073656e646572206d75737420626520616e2061646d696e20746f206772616e74416363657373436f6e74726f6c3a2073656e646572206d75737420626520616e2061646d696e20746f207265766f6b65416363657373436f6e74726f6c3a2063616e206f6e6c792072656e6f756e636520726f6c657320666f722073656c66a2646970667358221220196484f2f450b58d0db7a816665a21a68849598f5704520ab5c7bc63869a77b864736f6c63430007060033df8b4c520ffe197c5343c6f5aec59570151ef9a492f2c624fd45ddde6135ec42",
  "immutableReferences": {},
  "source": "//SPDX-License-Identifier: Unlicense\npragma solidity ^0.7.0;\n\nimport \"@openzeppelin/contracts/access/AccessControl.sol\";\n\ninterface IProject {\n    function developer() external view returns (address);\n\n    function startBlock() external view returns (uint256);\n\n    function endBlock() external view returns (uint256);\n\n    function token() external view returns (address);\n\n    function pair() external view returns (address);\n}\n\ncontract ProjectStakeVault is AccessControl {\n    bytes32 public constant ADMIN_ROLE = keccak256(\"ADMIN\");\n\n    address public project;\n    address public staketoken;\n\n    modifier onlyOwner() {\n        require(\n            hasRole(ADMIN_ROLE, msg.sender),\n            \"Project: Caller is not an admin\"\n        );\n        _;\n    }\n\n    constructor() {\n        _setRoleAdmin(ADMIN_ROLE, ADMIN_ROLE);\n        _setupRole(ADMIN_ROLE, msg.sender);\n    }\n\n    function initialize(address _project, address _staketoken)\n        external\n        onlyOwner\n    {\n        require(\n            _project != address(0) && _staketoken != address(0),\n            \"ProjectStakeVault: zero\"\n        );\n        project = _project;\n        staketoken = _staketoken;\n    }\n}\n",
  "sourcePath": "/Users/zena/ico2.0/ico20-contracts/contracts/project/ProjectStakeVault.sol",
  "compiler": {
    "name": "solc",
    "version": "0.7.6+commit.7338295f.Emscripten.clang"
  },
  "schemaVersion": "3.3.4",
  "updatedAt": "2021-05-13T02:55:22.725Z",
  "devdoc": {
    "kind": "dev",
    "methods": {
      "getRoleAdmin(bytes32)": {
        "details": "Returns the admin role that controls `role`. See {grantRole} and {revokeRole}. To change a role's admin, use {_setRoleAdmin}."
      },
      "getRoleMember(bytes32,uint256)": {
        "details": "Returns one of the accounts that have `role`. `index` must be a value between 0 and {getRoleMemberCount}, non-inclusive. Role bearers are not sorted in any particular way, and their ordering may change at any point. WARNING: When using {getRoleMember} and {getRoleMemberCount}, make sure you perform all queries on the same block. See the following https://forum.openzeppelin.com/t/iterating-over-elements-on-enumerableset-in-openzeppelin-contracts/2296[forum post] for more information."
      },
      "getRoleMemberCount(bytes32)": {
        "details": "Returns the number of accounts that have `role`. Can be used together with {getRoleMember} to enumerate all bearers of a role."
      },
      "grantRole(bytes32,address)": {
        "details": "Grants `role` to `account`. If `account` had not been already granted `role`, emits a {RoleGranted} event. Requirements: - the caller must have ``role``'s admin role."
      },
      "hasRole(bytes32,address)": {
        "details": "Returns `true` if `account` has been granted `role`."
      },
      "renounceRole(bytes32,address)": {
        "details": "Revokes `role` from the calling account. Roles are often managed via {grantRole} and {revokeRole}: this function's purpose is to provide a mechanism for accounts to lose their privileges if they are compromised (such as when a trusted device is misplaced). If the calling account had been granted `role`, emits a {RoleRevoked} event. Requirements: - the caller must be `account`."
      },
      "revokeRole(bytes32,address)": {
        "details": "Revokes `role` from `account`. If `account` had been granted `role`, emits a {RoleRevoked} event. Requirements: - the caller must have ``role``'s admin role."
      }
    },
    "version": 1
  },
  "userdoc": {
    "kind": "user",
    "methods": {},
    "version": 1
  }
}