{
  "contractName": "ProjectRegistry",
  "abi": [
    {
      "inputs": [],
      "stateMutability": "nonpayable",
      "type": "constructor"
    },
    {
      "anonymous": false,
      "inputs": [
        {
          "indexed": true,
          "internalType": "bytes32",
          "name": "role",
          "type": "bytes32"
        },
        {
          "indexed": true,
          "internalType": "bytes32",
          "name": "previousAdminRole",
          "type": "bytes32"
        },
        {
          "indexed": true,
          "internalType": "bytes32",
          "name": "newAdminRole",
          "type": "bytes32"
        }
      ],
      "name": "RoleAdminChanged",
      "type": "event"
    },
    {
      "anonymous": false,
      "inputs": [
        {
          "indexed": true,
          "internalType": "bytes32",
          "name": "role",
          "type": "bytes32"
        },
        {
          "indexed": true,
          "internalType": "address",
          "name": "account",
          "type": "address"
        },
        {
          "indexed": true,
          "internalType": "address",
          "name": "sender",
          "type": "address"
        }
      ],
      "name": "RoleGranted",
      "type": "event"
    },
    {
      "anonymous": false,
      "inputs": [
        {
          "indexed": true,
          "internalType": "bytes32",
          "name": "role",
          "type": "bytes32"
        },
        {
          "indexed": true,
          "internalType": "address",
          "name": "account",
          "type": "address"
        },
        {
          "indexed": true,
          "internalType": "address",
          "name": "sender",
          "type": "address"
        }
      ],
      "name": "RoleRevoked",
      "type": "event"
    },
    {
      "inputs": [],
      "name": "ADMIN_ROLE",
      "outputs": [
        {
          "internalType": "bytes32",
          "name": "",
          "type": "bytes32"
        }
      ],
      "stateMutability": "view",
      "type": "function"
    },
    {
      "inputs": [],
      "name": "DEFAULT_ADMIN_ROLE",
      "outputs": [
        {
          "internalType": "bytes32",
          "name": "",
          "type": "bytes32"
        }
      ],
      "stateMutability": "view",
      "type": "function"
    },
    {
      "inputs": [],
      "name": "ZERO_HASH",
      "outputs": [
        {
          "internalType": "bytes32",
          "name": "",
          "type": "bytes32"
        }
      ],
      "stateMutability": "view",
      "type": "function"
    },
    {
      "inputs": [
        {
          "internalType": "bytes32",
          "name": "role",
          "type": "bytes32"
        }
      ],
      "name": "getRoleAdmin",
      "outputs": [
        {
          "internalType": "bytes32",
          "name": "",
          "type": "bytes32"
        }
      ],
      "stateMutability": "view",
      "type": "function"
    },
    {
      "inputs": [
        {
          "internalType": "bytes32",
          "name": "role",
          "type": "bytes32"
        },
        {
          "internalType": "uint256",
          "name": "index",
          "type": "uint256"
        }
      ],
      "name": "getRoleMember",
      "outputs": [
        {
          "internalType": "address",
          "name": "",
          "type": "address"
        }
      ],
      "stateMutability": "view",
      "type": "function"
    },
    {
      "inputs": [
        {
          "internalType": "bytes32",
          "name": "role",
          "type": "bytes32"
        }
      ],
      "name": "getRoleMemberCount",
      "outputs": [
        {
          "internalType": "uint256",
          "name": "",
          "type": "uint256"
        }
      ],
      "stateMutability": "view",
      "type": "function"
    },
    {
      "inputs": [
        {
          "internalType": "bytes32",
          "name": "role",
          "type": "bytes32"
        },
        {
          "internalType": "address",
          "name": "account",
          "type": "address"
        }
      ],
      "name": "grantRole",
      "outputs": [],
      "stateMutability": "nonpayable",
      "type": "function"
    },
    {
      "inputs": [
        {
          "internalType": "bytes32",
          "name": "role",
          "type": "bytes32"
        },
        {
          "internalType": "address",
          "name": "account",
          "type": "address"
        }
      ],
      "name": "hasRole",
      "outputs": [
        {
          "internalType": "bool",
          "name": "",
          "type": "bool"
        }
      ],
      "stateMutability": "view",
      "type": "function"
    },
    {
      "inputs": [
        {
          "internalType": "uint256",
          "name": "",
          "type": "uint256"
        }
      ],
      "name": "projectId",
      "outputs": [
        {
          "internalType": "address",
          "name": "",
          "type": "address"
        }
      ],
      "stateMutability": "view",
      "type": "function"
    },
    {
      "inputs": [
        {
          "internalType": "address",
          "name": "",
          "type": "address"
        }
      ],
      "name": "projectInfo",
      "outputs": [
        {
          "internalType": "bool",
          "name": "deployed",
          "type": "bool"
        },
        {
          "internalType": "uint256",
          "name": "startBlock",
          "type": "uint256"
        },
        {
          "internalType": "uint256",
          "name": "endBlock",
          "type": "uint256"
        },
        {
          "internalType": "address",
          "name": "token",
          "type": "address"
        },
        {
          "internalType": "address",
          "name": "pair",
          "type": "address"
        },
        {
          "internalType": "string",
          "name": "name",
          "type": "string"
        },
        {
          "internalType": "string",
          "name": "symbol",
          "type": "string"
        }
      ],
      "stateMutability": "view",
      "type": "function"
    },
    {
      "inputs": [],
      "name": "projectMaxIndex",
      "outputs": [
        {
          "internalType": "uint256",
          "name": "",
          "type": "uint256"
        }
      ],
      "stateMutability": "view",
      "type": "function"
    },
    {
      "inputs": [
        {
          "internalType": "bytes32",
          "name": "role",
          "type": "bytes32"
        },
        {
          "internalType": "address",
          "name": "account",
          "type": "address"
        }
      ],
      "name": "renounceRole",
      "outputs": [],
      "stateMutability": "nonpayable",
      "type": "function"
    },
    {
      "inputs": [
        {
          "internalType": "bytes32",
          "name": "role",
          "type": "bytes32"
        },
        {
          "internalType": "address",
          "name": "account",
          "type": "address"
        }
      ],
      "name": "revokeRole",
      "outputs": [],
      "stateMutability": "nonpayable",
      "type": "function"
    },
    {
      "inputs": [
        {
          "internalType": "uint256",
          "name": "",
          "type": "uint256"
        }
      ],
      "name": "tokenSales",
      "outputs": [
        {
          "internalType": "address",
          "name": "project",
          "type": "address"
        },
        {
          "internalType": "uint256",
          "name": "index",
          "type": "uint256"
        },
        {
          "internalType": "uint256",
          "name": "startTime",
          "type": "uint256"
        },
        {
          "internalType": "uint256",
          "name": "endTime",
          "type": "uint256"
        },
        {
          "internalType": "uint256",
          "name": "softCap",
          "type": "uint256"
        },
        {
          "internalType": "uint256",
          "name": "hardCap",
          "type": "uint256"
        },
        {
          "internalType": "uint256",
          "name": "price",
          "type": "uint256"
        },
        {
          "internalType": "bool",
          "name": "closed",
          "type": "bool"
        }
      ],
      "stateMutability": "view",
      "type": "function"
    },
    {
      "inputs": [
        {
          "internalType": "uint256",
          "name": "",
          "type": "uint256"
        }
      ],
      "name": "tokenSalesIndex",
      "outputs": [
        {
          "internalType": "uint256",
          "name": "",
          "type": "uint256"
        }
      ],
      "stateMutability": "view",
      "type": "function"
    },
    {
      "inputs": [
        {
          "internalType": "uint256",
          "name": "_projectId",
          "type": "uint256"
        },
        {
          "internalType": "address",
          "name": "_project",
          "type": "address"
        },
        {
          "internalType": "uint256",
          "name": "startBlock",
          "type": "uint256"
        },
        {
          "internalType": "uint256",
          "name": "endBlock",
          "type": "uint256"
        },
        {
          "internalType": "address",
          "name": "token",
          "type": "address"
        },
        {
          "internalType": "string",
          "name": "name",
          "type": "string"
        },
        {
          "internalType": "string",
          "name": "symbol",
          "type": "string"
        }
      ],
      "name": "registerProject",
      "outputs": [],
      "stateMutability": "nonpayable",
      "type": "function"
    },
    {
      "inputs": [
        {
          "internalType": "address",
          "name": "_project",
          "type": "address"
        }
      ],
      "name": "validProject",
      "outputs": [
        {
          "internalType": "bool",
          "name": "valid",
          "type": "bool"
        }
      ],
      "stateMutability": "view",
      "type": "function"
    },
    {
      "inputs": [
        {
          "internalType": "uint256",
          "name": "_index",
          "type": "uint256"
        }
      ],
      "name": "projectById",
      "outputs": [
        {
          "internalType": "address",
          "name": "",
          "type": "address"
        }
      ],
      "stateMutability": "view",
      "type": "function"
    },
    {
      "inputs": [
        {
          "internalType": "address",
          "name": "_project",
          "type": "address"
        }
      ],
      "name": "ProjectInfoDetail",
      "outputs": [
        {
          "components": [
            {
              "internalType": "bool",
              "name": "deployed",
              "type": "bool"
            },
            {
              "internalType": "uint256",
              "name": "startBlock",
              "type": "uint256"
            },
            {
              "internalType": "uint256",
              "name": "endBlock",
              "type": "uint256"
            },
            {
              "internalType": "address",
              "name": "token",
              "type": "address"
            },
            {
              "internalType": "address",
              "name": "pair",
              "type": "address"
            },
            {
              "internalType": "string",
              "name": "name",
              "type": "string"
            },
            {
              "internalType": "string",
              "name": "symbol",
              "type": "string"
            }
          ],
          "internalType": "struct LibProject.ProjectInfo",
          "name": "",
          "type": "tuple"
        }
      ],
      "stateMutability": "view",
      "type": "function"
    }
  ],
  "bytecode": "0x60806040523480156200001157600080fd5b506200002d600080516020620013f2833981519152806200004e565b62000048600080516020620013f283398151915233620000a0565b620001b4565b600082815260208190526040808220600201549051839285917fbd79b86ffe0ab8e8776151514217cd7cacd52c909f66475c3af44e129f0b00ff9190a460009182526020829052604090912060020155565b620000ac8282620000b0565b5050565b600082815260208181526040909120620000d59183906200098562000129821b17901c565b15620000ac57620000e562000149565b6001600160a01b0316816001600160a01b0316837f2f8788117e7eff1d82e926ec794901d17c78024a50270940304540a733656f0d60405160405180910390a45050565b600062000140836001600160a01b0384166200014d565b90505b92915050565b3390565b60006200015b83836200019c565b620001935750815460018181018455600084815260208082209093018490558454848252828601909352604090209190915562000143565b50600062000143565b60009081526001919091016020526040902054151590565b61122e80620001c46000396000f3fe608060405234801561001057600080fd5b50600436106101215760003560e01c806375b238fc116100ad578063a217fddf11610071578063a217fddf146101e6578063a3dd2b3e14610262578063b112a8b914610288578063ca15c8731461029b578063d547741f146102ae57610121565b806375b238fc146102015780637caaac931461020957806388df4c021461021c5780639010d07c1461023c57806391d148541461024f57610121565b80632f2ff15d116100f45780632f2ff15d1461019757806336568abe146101ac57806345cf084b146101bf5780634ce76a3c146101e65780634dd1f816146101ee57610121565b8063034e3905146101265780630e3f476c1461014f578063248a9ca314610164578063276722a614610177575b600080fd5b610139610134366004610dd9565b6102c1565b6040516101469190610f34565b60405180910390f35b6101576102df565b6040516101469190610ff8565b610157610172366004610dd9565b6102e5565b61018a610185366004610dbf565b6102fa565b6040516101469190610f8b565b6101aa6101a5366004610df1565b610318565b005b6101aa6101ba366004610df1565b61037f565b6101d26101cd366004610dd9565b6103e0565b604051610146989796959493929190610f48565b610157610431565b6101396101fc366004610dd9565b610436565b610157610451565b610157610217366004610dd9565b610475565b61022f61022a366004610dbf565b610496565b60405161014691906110c0565b61013961024a366004610e1c565b610626565b61018a61025d366004610df1565b610647565b610275610270366004610dbf565b61065f565b6040516101469796959493929190610f96565b6101aa610296366004610e3d565b6107c1565b6101576102a9366004610dd9565b610915565b6101aa6102bc366004610df1565b61092c565b6000818152600360205260409020546001600160a01b03165b919050565b60015481565b60009081526020819052604090206002015490565b6001600160a01b031660009081526004602052604090205460ff1690565b6000828152602081905260409020600201546103369061025d61099a565b6103715760405162461bcd60e51b815260040180806020018281038252602f81526020018061116b602f913960400191505060405180910390fd5b61037b828261099e565b5050565b61038761099a565b6001600160a01b0316816001600160a01b0316146103d65760405162461bcd60e51b815260040180806020018281038252602f8152602001806111ca602f913960400191505060405180910390fd5b61037b8282610a07565b6005602081905260009182526040909120805460018201546002830154600384015460048501549585015460068601546007909601546001600160a01b039095169693959294919392909160ff1688565b600081565b6003602052600090815260409020546001600160a01b031681565b7fdf8b4c520ffe197c5343c6f5aec59570151ef9a492f2c624fd45ddde6135ec4281565b6002818154811061048557600080fd5b600091825260209091200154905081565b61049e610c41565b6001600160a01b03828116600090815260046020818152604092839020835160e081018552815460ff1615158152600180830154828501526002808401548388015260038401548816606084015294830154909616608082015260058201805486516101009882161598909802600019011694909404601f810184900484028701840190955284865294909360a086019391928301828280156105825780601f1061055757610100808354040283529160200191610582565b820191906000526020600020905b81548152906001019060200180831161056557829003601f168201915b505050918352505060068201805460408051602060026001851615610100026000190190941693909304601f81018490048402820184019092528181529382019392918301828280156106165780601f106105eb57610100808354040283529160200191610616565b820191906000526020600020905b8154815290600101906020018083116105f957829003601f168201915b5050505050815250509050919050565b600082815260208190526040812061063e9083610a70565b90505b92915050565b600082815260208190526040812061063e9083610a7c565b60046020818152600092835260409283902080546001808301546002808501546003860154978601546005870180548b516101009782161597909702600019011693909304601f8101899004890286018901909a5289855260ff90951698929790966001600160a01b03918216969190951694909392908301828280156107275780601f106106fc57610100808354040283529160200191610727565b820191906000526020600020905b81548152906001019060200180831161070a57829003601f168201915b5050505060068301805460408051602060026001851615610100026000190190941693909304601f81018490048402820184019092528181529495949350908301828280156107b75780601f1061078c576101008083540402835291602001916107b7565b820191906000526020600020905b81548152906001019060200180831161079a57829003601f168201915b5050505050905087565b6107eb7fdf8b4c520ffe197c5343c6f5aec59570151ef9a492f2c624fd45ddde6135ec4233610647565b6108105760405162461bcd60e51b815260040161080790611001565b60405180910390fd5b6001600160a01b0386166108365760405162461bcd60e51b81526004016108079061108b565b6000878152600360205260409020546001600160a01b03161561086b5760405162461bcd60e51b815260040161080790611048565b60015487111561087b5760018790555b600087815260036020818152604080842080546001600160a01b03199081166001600160a01b038d811691821790935586526004845291909420600181018a905560028101899055928301805490911693871693909317909255835190916108ea916005840191860190610c92565b5081516109009060068301906020850190610c92565b50805460ff1916600117905550505050505050565b600081815260208190526040812061064190610a91565b60008281526020819052604090206002015461094a9061025d61099a565b6103d65760405162461bcd60e51b815260040180806020018281038252603081526020018061119a6030913960400191505060405180910390fd5b600061063e836001600160a01b038416610a9c565b3390565b60008281526020819052604090206109b69082610985565b1561037b576109c361099a565b6001600160a01b0316816001600160a01b0316837f2f8788117e7eff1d82e926ec794901d17c78024a50270940304540a733656f0d60405160405180910390a45050565b6000828152602081905260409020610a1f9082610ae6565b1561037b57610a2c61099a565b6001600160a01b0316816001600160a01b0316837ff6391f5c32d9c69d2a47ea670b442974b53935d1edc7fd64eb21e047a839171b60405160405180910390a45050565b600061063e8383610afb565b600061063e836001600160a01b038416610b5f565b600061064182610b77565b6000610aa88383610b5f565b610ade57508154600181810184556000848152602080822090930184905584548482528286019093526040902091909155610641565b506000610641565b600061063e836001600160a01b038416610b7b565b81546000908210610b3d5760405162461bcd60e51b81526004018080602001828103825260228152602001806111496022913960400191505060405180910390fd5b826000018281548110610b4c57fe5b9060005260206000200154905092915050565b60009081526001919091016020526040902054151590565b5490565b60008181526001830160205260408120548015610c375783546000198083019190810190600090879083908110610bae57fe5b9060005260206000200154905080876000018481548110610bcb57fe5b600091825260208083209091019290925582815260018981019092526040902090840190558654879080610bfb57fe5b60019003818190600052602060002001600090559055866001016000878152602001908152602001600020600090556001945050505050610641565b6000915050610641565b6040518060e00160405280600015158152602001600081526020016000815260200160006001600160a01b0316815260200160006001600160a01b0316815260200160608152602001606081525090565b828054600181600116156101000203166002900490600052602060002090601f016020900481019282610cc85760008555610d0e565b82601f10610ce157805160ff1916838001178555610d0e565b82800160010185558215610d0e579182015b82811115610d0e578251825591602001919060010190610cf3565b50610d1a929150610d1e565b5090565b5b80821115610d1a5760008155600101610d1f565b80356001600160a01b03811681146102da57600080fd5b600082601f830112610d5a578081fd5b813567ffffffffffffffff80821115610d6f57fe5b604051601f8301601f191681016020018281118282101715610d8d57fe5b604052828152848301602001861015610da4578384fd5b82602086016020830137918201602001929092529392505050565b600060208284031215610dd0578081fd5b61063e82610d33565b600060208284031215610dea578081fd5b5035919050565b60008060408385031215610e03578081fd5b82359150610e1360208401610d33565b90509250929050565b60008060408385031215610e2e578182fd5b50508035926020909101359150565b600080600080600080600060e0888a031215610e57578283fd5b87359650610e6760208901610d33565b95506040880135945060608801359350610e8360808901610d33565b925060a088013567ffffffffffffffff80821115610e9f578384fd5b610eab8b838c01610d4a565b935060c08a0135915080821115610ec0578283fd5b50610ecd8a828b01610d4a565b91505092959891949750929550565b6001600160a01b03169052565b60008151808452815b81811015610f0e57602081850181015186830182015201610ef2565b81811115610f1f5782602083870101525b50601f01601f19169290920160200192915050565b6001600160a01b0391909116815260200190565b6001600160a01b03989098168852602088019690965260408701949094526060860192909252608085015260a084015260c0830152151560e08201526101000190565b901515815260200190565b871515815260208101879052604081018690526001600160a01b0385811660608301528416608082015260e060a08201819052600090610fd890830185610ee9565b82810360c0840152610fea8185610ee9565b9a9950505050505050505050565b90815260200190565b60208082526027908201527f50726f6a65637452656769737472793a2043616c6c6572206973206e6f742061604082015266371030b236b4b760c91b606082015260800190565b60208082526023908201527f50726f6a65637452656769737472793a20416c726561647920726567697374656040820152621c995960ea1b606082015260800190565b6020808252818101527f50726f6a65637452656769737472793a2070726f6a656374206973207a65726f604082015260600190565b600060208252825115156020830152602083015160408301526040830151606083015260018060a01b036060840151166080830152608083015161110760a0840182610edc565b5060a083015160e060c0840152611122610100840182610ee9565b905060c0840151601f198483030160e085015261113f8282610ee9565b9594505050505056fe456e756d657261626c655365743a20696e646578206f7574206f6620626f756e6473416363657373436f6e74726f6c3a2073656e646572206d75737420626520616e2061646d696e20746f206772616e74416363657373436f6e74726f6c3a2073656e646572206d75737420626520616e2061646d696e20746f207265766f6b65416363657373436f6e74726f6c3a2063616e206f6e6c792072656e6f756e636520726f6c657320666f722073656c66a2646970667358221220168cf7a2fa33b9e4ed4664da521dda05e94a7ef12607c43c4275edb477204bed64736f6c63430007060033df8b4c520ffe197c5343c6f5aec59570151ef9a492f2c624fd45ddde6135ec42",
  "immutableReferences": {},
  "source": "//SPDX-License-Identifier: Unlicense\npragma solidity ^0.7.6;\npragma abicoder v2;\n\nimport {LibProject} from \"../libraries/LibProject.sol\";\n\nimport \"@openzeppelin/contracts/access/AccessControl.sol\";\nimport {IFLD} from \"../interfaces/IFLD.sol\";\n\ncontract ProjectRegistry is AccessControl {\n    bytes32 public constant ADMIN_ROLE = keccak256(\"ADMIN\");\n\n    bytes32 public constant ZERO_HASH =\n        0x0000000000000000000000000000000000000000000000000000000000000000;\n\n    uint256 public projectMaxIndex;\n    uint256[] public tokenSalesIndex; // token sale id , if token sale close, change 0\n\n    mapping(uint256 => address) public projectId; // project id -> project address\n    mapping(address => LibProject.ProjectInfo) public projectInfo; // project address -> project simple info\n    mapping(uint256 => LibProject.TokenSale) public tokenSales; // token sale id -> token sale simple info\n\n    modifier onlyOwner() {\n        require(\n            hasRole(ADMIN_ROLE, msg.sender),\n            \"ProjectRegistry: Caller is not an admin\"\n        );\n        _;\n    }\n\n    constructor() {\n        _setRoleAdmin(ADMIN_ROLE, ADMIN_ROLE);\n        _setupRole(ADMIN_ROLE, msg.sender);\n    }\n\n    /// @dev register project\n    function registerProject(\n        uint256 _projectId,\n        address _project,\n        uint256 startBlock,\n        uint256 endBlock,\n        address token,\n        string memory name,\n        string memory symbol\n    ) external onlyOwner {\n        require(_project != address(0), \"ProjectRegistry: project is zero\");\n        require(\n            projectId[_projectId] == address(0),\n            \"ProjectRegistry: Already registered\"\n        );\n\n        if (_projectId > projectMaxIndex) projectMaxIndex = _projectId;\n        projectId[_projectId] = _project;\n\n        LibProject.ProjectInfo storage info = projectInfo[_project];\n        info.startBlock = startBlock;\n        info.endBlock = endBlock;\n        info.token = token;\n        info.name = name;\n        info.symbol = symbol;\n        info.deployed = true;\n    }\n\n    /// @dev Checks if a vault is withing the given phase\n    function validProject(address _project) external view returns (bool valid) {\n        valid = projectInfo[_project].deployed;\n    }\n\n    function projectById(uint256 _index) external view returns (address) {\n        return projectId[_index];\n    }\n\n    function ProjectInfoDetail(address _project)\n        external\n        view\n        returns (LibProject.ProjectInfo memory)\n    {\n        return projectInfo[_project];\n    }\n}\n",
  "sourcePath": "/Users/zena/ico2.0/ico20-contracts/contracts/project/ProjectRegistry.sol",
  "compiler": {
    "name": "solc",
    "version": "0.7.6+commit.7338295f.Emscripten.clang"
  },
  "schemaVersion": "3.3.4",
  "updatedAt": "2021-05-14T01:45:59.714Z",
  "devdoc": {
    "kind": "dev",
    "methods": {
      "getRoleAdmin(bytes32)": {
        "details": "Returns the admin role that controls `role`. See {grantRole} and {revokeRole}. To change a role's admin, use {_setRoleAdmin}."
      },
      "getRoleMember(bytes32,uint256)": {
        "details": "Returns one of the accounts that have `role`. `index` must be a value between 0 and {getRoleMemberCount}, non-inclusive. Role bearers are not sorted in any particular way, and their ordering may change at any point. WARNING: When using {getRoleMember} and {getRoleMemberCount}, make sure you perform all queries on the same block. See the following https://forum.openzeppelin.com/t/iterating-over-elements-on-enumerableset-in-openzeppelin-contracts/2296[forum post] for more information."
      },
      "getRoleMemberCount(bytes32)": {
        "details": "Returns the number of accounts that have `role`. Can be used together with {getRoleMember} to enumerate all bearers of a role."
      },
      "grantRole(bytes32,address)": {
        "details": "Grants `role` to `account`. If `account` had not been already granted `role`, emits a {RoleGranted} event. Requirements: - the caller must have ``role``'s admin role."
      },
      "hasRole(bytes32,address)": {
        "details": "Returns `true` if `account` has been granted `role`."
      },
      "registerProject(uint256,address,uint256,uint256,address,string,string)": {
        "details": "register project"
      },
      "renounceRole(bytes32,address)": {
        "details": "Revokes `role` from the calling account. Roles are often managed via {grantRole} and {revokeRole}: this function's purpose is to provide a mechanism for accounts to lose their privileges if they are compromised (such as when a trusted device is misplaced). If the calling account had been granted `role`, emits a {RoleRevoked} event. Requirements: - the caller must be `account`."
      },
      "revokeRole(bytes32,address)": {
        "details": "Revokes `role` from `account`. If `account` had been granted `role`, emits a {RoleRevoked} event. Requirements: - the caller must have ``role``'s admin role."
      },
      "validProject(address)": {
        "details": "Checks if a vault is withing the given phase"
      }
    },
    "version": 1
  },
  "userdoc": {
    "kind": "user",
    "methods": {},
    "version": 1
  }
}