{
  "contractName": "SeigCoinageToken",
  "abi": [
    {
      "inputs": [],
      "payable": false,
      "stateMutability": "nonpayable",
      "type": "constructor"
    },
    {
      "anonymous": false,
      "inputs": [
        {
          "indexed": true,
          "internalType": "address",
          "name": "previousOwner",
          "type": "address"
        },
        {
          "indexed": true,
          "internalType": "address",
          "name": "newOwner",
          "type": "address"
        }
      ],
      "name": "OwnershipTransferred",
      "type": "event"
    },
    {
      "constant": true,
      "inputs": [
        {
          "internalType": "address",
          "name": "",
          "type": "address"
        }
      ],
      "name": "balances",
      "outputs": [
        {
          "internalType": "uint256",
          "name": "latestBlock",
          "type": "uint256"
        },
        {
          "internalType": "uint256",
          "name": "balance",
          "type": "uint256"
        }
      ],
      "payable": false,
      "stateMutability": "view",
      "type": "function"
    },
    {
      "constant": true,
      "inputs": [],
      "name": "firstSeigBlock",
      "outputs": [
        {
          "internalType": "uint256",
          "name": "",
          "type": "uint256"
        }
      ],
      "payable": false,
      "stateMutability": "view",
      "type": "function"
    },
    {
      "constant": true,
      "inputs": [],
      "name": "isOwner",
      "outputs": [
        {
          "internalType": "bool",
          "name": "",
          "type": "bool"
        }
      ],
      "payable": false,
      "stateMutability": "view",
      "type": "function"
    },
    {
      "constant": true,
      "inputs": [],
      "name": "latestSeigBlock",
      "outputs": [
        {
          "internalType": "uint256",
          "name": "",
          "type": "uint256"
        }
      ],
      "payable": false,
      "stateMutability": "view",
      "type": "function"
    },
    {
      "constant": true,
      "inputs": [],
      "name": "owner",
      "outputs": [
        {
          "internalType": "address",
          "name": "",
          "type": "address"
        }
      ],
      "payable": false,
      "stateMutability": "view",
      "type": "function"
    },
    {
      "constant": false,
      "inputs": [],
      "name": "renounceOwnership",
      "outputs": [],
      "payable": false,
      "stateMutability": "nonpayable",
      "type": "function"
    },
    {
      "constant": true,
      "inputs": [
        {
          "internalType": "uint256",
          "name": "",
          "type": "uint256"
        }
      ],
      "name": "seigHistory",
      "outputs": [
        {
          "internalType": "uint256",
          "name": "totalSupply",
          "type": "uint256"
        },
        {
          "internalType": "uint256",
          "name": "totalSeig",
          "type": "uint256"
        },
        {
          "internalType": "uint256",
          "name": "nextSeigBlock",
          "type": "uint256"
        }
      ],
      "payable": false,
      "stateMutability": "view",
      "type": "function"
    },
    {
      "constant": false,
      "inputs": [
        {
          "internalType": "address",
          "name": "newOwner",
          "type": "address"
        }
      ],
      "name": "transferOwnership",
      "outputs": [],
      "payable": false,
      "stateMutability": "nonpayable",
      "type": "function"
    },
    {
      "constant": true,
      "inputs": [],
      "name": "totalSupply",
      "outputs": [
        {
          "internalType": "uint256",
          "name": "",
          "type": "uint256"
        }
      ],
      "payable": false,
      "stateMutability": "view",
      "type": "function"
    },
    {
      "constant": true,
      "inputs": [
        {
          "internalType": "address",
          "name": "owner",
          "type": "address"
        }
      ],
      "name": "balanceOf",
      "outputs": [
        {
          "internalType": "uint256",
          "name": "",
          "type": "uint256"
        }
      ],
      "payable": false,
      "stateMutability": "view",
      "type": "function"
    },
    {
      "constant": false,
      "inputs": [
        {
          "internalType": "uint256",
          "name": "amount",
          "type": "uint256"
        }
      ],
      "name": "addSeigniorage",
      "outputs": [],
      "payable": false,
      "stateMutability": "nonpayable",
      "type": "function"
    },
    {
      "constant": false,
      "inputs": [
        {
          "internalType": "address",
          "name": "owner",
          "type": "address"
        }
      ],
      "name": "updateSeigniorage",
      "outputs": [],
      "payable": false,
      "stateMutability": "nonpayable",
      "type": "function"
    },
    {
      "constant": true,
      "inputs": [
        {
          "internalType": "address",
          "name": "owner",
          "type": "address"
        }
      ],
      "name": "getSeigniorage",
      "outputs": [
        {
          "internalType": "uint256",
          "name": "",
          "type": "uint256"
        },
        {
          "internalType": "uint256",
          "name": "",
          "type": "uint256"
        }
      ],
      "payable": false,
      "stateMutability": "view",
      "type": "function"
    }
  ],
  "bytecode": "0x608060405234801561001057600080fd5b5060006100246001600160e01b0361007316565b600080546001600160a01b0319166001600160a01b0383169081178255604051929350917f8be0079c531659141344cd1fd0a4f28419497f9722a3daafe3b4186f6b6457e0908290a350610077565b3390565b610928806100866000396000f3fe608060405234801561001057600080fd5b50600436106100cf5760003560e01c806370a082311161008c5780638da5cb5b116100665780638da5cb5b146101eb5780638f32d59b1461020f578063dbbb3cf31461022b578063f2fde38b14610251576100cf565b806370a0823114610197578063715018a6146101bd57806389ea4300146101c5576100cf565b80630ce1e020146100d457806318160ddd146100f357806327e235e31461010d5780633e33e4561461014c578063605b21d7146101545780636ff71b2b1461015c575b600080fd5b6100f1600480360360208110156100ea57600080fd5b5035610277565b005b6100fb610334565b60408051918252519081900360200190f35b6101336004803603602081101561012357600080fd5b50356001600160a01b0316610349565b6040805192835260208301919091528051918290030190f35b6100fb610362565b6100fb610368565b6101796004803603602081101561017257600080fd5b503561036e565b60408051938452602084019290925282820152519081900360600190f35b6100fb600480360360208110156101ad57600080fd5b50356001600160a01b031661038e565b6100f16103e4565b6100f1600480360360208110156101db57600080fd5b50356001600160a01b0316610487565b6101f36104d7565b604080516001600160a01b039092168252519081900360200190f35b6102176104e6565b604080519115158252519081900360200190f35b6101336004803603602081101561024157600080fd5b50356001600160a01b031661050a565b6100f16004803603602081101561026757600080fd5b50356001600160a01b03166105e2565b61027f6104e6565b6102d0576040805162461bcd60e51b815260206004820181905260248201527f4f776e61626c653a2063616c6c6572206973206e6f7420746865206f776e6572604482015290519081900360640190fd5b60035460009081526002602052604090206102e961088b565b81546102fb908463ffffffff61064716565b81526020808201938452436002938401819055600381905560009081529083905260409081902082518155935160018501550151910155565b60035460009081526002602052604090205490565b6001602081905260009182526040909120805491015482565b60035481565b60045481565b600260208190526000918252604090912080546001820154919092015483565b6001600160a01b0381166000908152600160208190526040822090810154600354825410156103dd576000806103c38661050a565b90925090506103d8838363ffffffff61064716565b925050505b9392505050565b6103ec6104e6565b61043d576040805162461bcd60e51b815260206004820181905260248201527f4f776e61626c653a2063616c6c6572206973206e6f7420746865206f776e6572604482015290519081900360640190fd5b600080546040516001600160a01b03909116907f8be0079c531659141344cd1fd0a4f28419497f9722a3daafe3b4186f6b6457e0908390a3600080546001600160a01b0319169055565b6000806104938361050a565b6001600160a01b038516600090815260016020819052604090912082815590810154929450909250906104cc908463ffffffff61064716565b600190910155505050565b6000546001600160a01b031690565b600080546001600160a01b03166104fb6106aa565b6001600160a01b031614905090565b6001600160a01b038116600090815260016020818152604080842080548552600292839052908420918201549281015482548594859492909185905b83156105d257600084815260026020526040812060018101549091906105949084906105889061057c898e63ffffffff61064716565b9063ffffffff6106ae16565b9063ffffffff61070716565b90506105ad82600101548461064790919063ffffffff16565b92506105bf898263ffffffff61064716565b9850859350816002015495505050610546565b5094965093945050505050915091565b6105ea6104e6565b61063b576040805162461bcd60e51b815260206004820181905260248201527f4f776e61626c653a2063616c6c6572206973206e6f7420746865206f776e6572604482015290519081900360640190fd5b61064481610749565b50565b6000828201838110156106a1576040805162461bcd60e51b815260206004820152601b60248201527f536166654d6174683a206164646974696f6e206f766572666c6f770000000000604482015290519081900360640190fd5b90505b92915050565b3390565b6000826106bd575060006106a4565b828202828482816106ca57fe5b04146106a15760405162461bcd60e51b81526004018080602001828103825260218152602001806108d36021913960400191505060405180910390fd5b60006106a183836040518060400160405280601a81526020017f536166654d6174683a206469766973696f6e206279207a65726f0000000000008152506107e9565b6001600160a01b03811661078e5760405162461bcd60e51b81526004018080602001828103825260268152602001806108ad6026913960400191505060405180910390fd5b600080546040516001600160a01b03808516939216917f8be0079c531659141344cd1fd0a4f28419497f9722a3daafe3b4186f6b6457e091a3600080546001600160a01b0319166001600160a01b0392909216919091179055565b600081836108755760405162461bcd60e51b81526004018080602001828103825283818151815260200191508051906020019080838360005b8381101561083a578181015183820152602001610822565b50505050905090810190601f1680156108675780820380516001836020036101000a031916815260200191505b509250505060405180910390fd5b50600083858161088157fe5b0495945050505050565b6040518060600160405280600081526020016000815260200160008152509056fe4f776e61626c653a206e6577206f776e657220697320746865207a65726f2061646472657373536166654d6174683a206d756c7469706c69636174696f6e206f766572666c6f77a265627a7a7231582004a9a36eaccb9ebfbd8001774c96d937331da8706e73034b522ea2a4c4f5717264736f6c634300050c0032",
  "source": "pragma solidity ^0.5.12;\r\n\r\nimport { SafeMath } from \"../../../node_modules/openzeppelin-solidity/contracts/math/SafeMath.sol\";\r\nimport { Ownable } from \"../../../node_modules/openzeppelin-solidity/contracts/ownership/Ownable.sol\";\r\n\r\ncontract SeigCoinageToken is Ownable {\r\n    using SafeMath for uint256;\r\n\r\n    struct Seig {\r\n        uint256 totalSupply;\r\n        uint256 totalSeig;\r\n        uint256 nextSeigBlock;\r\n    }\r\n    \r\n    struct Balance {\r\n        uint256 latestBlock;\r\n        uint256 balance;\r\n    }\r\n\r\n    mapping (address => Balance) public balances;\r\n    \r\n    // blockNumber => Seig\r\n    mapping (uint256 => Seig) public seigHistory;\r\n    \r\n    uint256 public latestSeigBlock;\r\n    uint256 public firstSeigBlock; // necessary?\r\n\r\n    constructor() public {\r\n    }\r\n\r\n    function totalSupply() public view returns (uint256) {\r\n        return seigHistory[latestSeigBlock].totalSupply;\r\n    }\r\n\r\n    function balanceOf(address owner) public view returns (uint256) {\r\n        Balance storage b = balances[owner];\r\n        uint256 balance = b.balance;\r\n\r\n        if (b.latestBlock < latestSeigBlock) {\r\n            (uint256 seig, uint256 _) = getSeigniorage(owner);\r\n            balance = balance.add(seig);\r\n        }\r\n        \r\n        return balance;\r\n    }\r\n\r\n    function _mint(address account, uint256 amount) internal onlyOwner {\r\n        require(account != address(0), \"SeigCoinageToken: mint to the zero address\");\r\n        Seig storage s = seigHistory[latestSeigBlock];\r\n        Balance storage b = balances[account];\r\n\r\n        s.totalSupply = s.totalSupply.add(amount);\r\n        b.balance = b.balance.add(amount);\r\n    }\r\n\r\n    function _burn(address account, uint256 amount) internal onlyOwner {\r\n        require(account != address(0), \"SeigCoinageToken: burn from the zero address\");\r\n        Seig storage s = seigHistory[latestSeigBlock];\r\n        Balance storage b = balances[account];\r\n\r\n        s.totalSupply = s.totalSupply.sub(amount);\r\n        b.balance = b.balance.sub(amount);\r\n    }\r\n\r\n\r\n    function addSeigniorage(uint256 amount) public onlyOwner {\r\n        Seig storage latestSeig = seigHistory[latestSeigBlock];\r\n        Seig memory seig;\r\n        seig.totalSupply = latestSeig.totalSupply.add(amount);\r\n        seig.totalSeig = amount;\r\n\r\n        latestSeig.nextSeigBlock = block.number;\r\n        latestSeigBlock = block.number;\r\n        seigHistory[block.number] = seig;\r\n    }\r\n\r\n    function updateSeigniorage(address owner) public {\r\n        (uint256 seig, uint256 latestBlock) = getSeigniorage(owner);\r\n        Balance storage b = balances[owner];\r\n        \r\n        b.latestBlock = latestBlock;\r\n        b.balance = b.balance.add(seig);\r\n    }\r\n    \r\n    function getSeigniorage(address owner) public view returns (uint256, uint256) {\r\n        uint256 result = 0;\r\n        Balance storage b = balances[owner];\r\n        Seig storage s = seigHistory[b.latestBlock];\r\n        uint256 searchingBlock = s.nextSeigBlock;\r\n        uint256 currentBalance = b.balance; // TODO: check lastestblockNumber?\r\n        uint256 latestBlock;\r\n        uint256 accTotalSupply = s.totalSupply;\r\n        while (searchingBlock != 0) {\r\n            Seig storage s = seigHistory[searchingBlock];\r\n            uint256 seig = currentBalance.add(result).mul(s.totalSeig).div(accTotalSupply);\r\n        \r\n            accTotalSupply = accTotalSupply.add(s.totalSeig);\r\n            result = result.add(seig);\r\n            latestBlock = searchingBlock;\r\n            searchingBlock = s.nextSeigBlock;\r\n        }\r\n\r\n        return (result, latestBlock);\r\n    }\r\n}\r\n",
  "sourcePath": "/Users/kadyrbeknarmamatov/code/plasma-evm-contracts/contracts/stake/tokens/SeigCoinageToken.sol",
  "compiler": {
    "name": "solc",
    "version": "0.5.12+commit.7709ece9.Emscripten.clang"
  },
  "schemaVersion": "3.4.0",
  "updatedAt": "2021-05-04T08:39:28.651Z",
  "devdoc": {
    "methods": {
      "isOwner()": {
        "details": "Returns true if the caller is the current owner."
      },
      "owner()": {
        "details": "Returns the address of the current owner."
      },
      "renounceOwnership()": {
        "details": "Leaves the contract without owner. It will not be possible to call `onlyOwner` functions anymore. Can only be called by the current owner.     * NOTE: Renouncing ownership will leave the contract without an owner, thereby removing any functionality that is only available to the owner."
      },
      "transferOwnership(address)": {
        "details": "Transfers ownership of the contract to a new account (`newOwner`). Can only be called by the current owner."
      }
    }
  },
  "userdoc": {
    "methods": {}
  }
}