{
  "contractName": "SeigCoinageTokenMock",
  "abi": [
    {
      "inputs": [],
      "payable": false,
      "stateMutability": "nonpayable",
      "type": "constructor"
    },
    {
      "anonymous": false,
      "inputs": [
        {
          "indexed": true,
          "internalType": "address",
          "name": "previousOwner",
          "type": "address"
        },
        {
          "indexed": true,
          "internalType": "address",
          "name": "newOwner",
          "type": "address"
        }
      ],
      "name": "OwnershipTransferred",
      "type": "event"
    },
    {
      "constant": false,
      "inputs": [
        {
          "internalType": "uint256",
          "name": "amount",
          "type": "uint256"
        }
      ],
      "name": "addSeigniorage",
      "outputs": [],
      "payable": false,
      "stateMutability": "nonpayable",
      "type": "function"
    },
    {
      "constant": true,
      "inputs": [
        {
          "internalType": "address",
          "name": "owner",
          "type": "address"
        }
      ],
      "name": "balanceOf",
      "outputs": [
        {
          "internalType": "uint256",
          "name": "",
          "type": "uint256"
        }
      ],
      "payable": false,
      "stateMutability": "view",
      "type": "function"
    },
    {
      "constant": true,
      "inputs": [
        {
          "internalType": "address",
          "name": "",
          "type": "address"
        }
      ],
      "name": "balances",
      "outputs": [
        {
          "internalType": "uint256",
          "name": "latestBlock",
          "type": "uint256"
        },
        {
          "internalType": "uint256",
          "name": "balance",
          "type": "uint256"
        }
      ],
      "payable": false,
      "stateMutability": "view",
      "type": "function"
    },
    {
      "constant": true,
      "inputs": [],
      "name": "firstSeigBlock",
      "outputs": [
        {
          "internalType": "uint256",
          "name": "",
          "type": "uint256"
        }
      ],
      "payable": false,
      "stateMutability": "view",
      "type": "function"
    },
    {
      "constant": true,
      "inputs": [
        {
          "internalType": "address",
          "name": "owner",
          "type": "address"
        }
      ],
      "name": "getSeigniorage",
      "outputs": [
        {
          "internalType": "uint256",
          "name": "",
          "type": "uint256"
        },
        {
          "internalType": "uint256",
          "name": "",
          "type": "uint256"
        }
      ],
      "payable": false,
      "stateMutability": "view",
      "type": "function"
    },
    {
      "constant": true,
      "inputs": [],
      "name": "isOwner",
      "outputs": [
        {
          "internalType": "bool",
          "name": "",
          "type": "bool"
        }
      ],
      "payable": false,
      "stateMutability": "view",
      "type": "function"
    },
    {
      "constant": true,
      "inputs": [],
      "name": "latestSeigBlock",
      "outputs": [
        {
          "internalType": "uint256",
          "name": "",
          "type": "uint256"
        }
      ],
      "payable": false,
      "stateMutability": "view",
      "type": "function"
    },
    {
      "constant": true,
      "inputs": [],
      "name": "owner",
      "outputs": [
        {
          "internalType": "address",
          "name": "",
          "type": "address"
        }
      ],
      "payable": false,
      "stateMutability": "view",
      "type": "function"
    },
    {
      "constant": false,
      "inputs": [],
      "name": "renounceOwnership",
      "outputs": [],
      "payable": false,
      "stateMutability": "nonpayable",
      "type": "function"
    },
    {
      "constant": true,
      "inputs": [
        {
          "internalType": "uint256",
          "name": "",
          "type": "uint256"
        }
      ],
      "name": "seigHistory",
      "outputs": [
        {
          "internalType": "uint256",
          "name": "totalSupply",
          "type": "uint256"
        },
        {
          "internalType": "uint256",
          "name": "totalSeig",
          "type": "uint256"
        },
        {
          "internalType": "uint256",
          "name": "nextSeigBlock",
          "type": "uint256"
        }
      ],
      "payable": false,
      "stateMutability": "view",
      "type": "function"
    },
    {
      "constant": true,
      "inputs": [],
      "name": "totalSupply",
      "outputs": [
        {
          "internalType": "uint256",
          "name": "",
          "type": "uint256"
        }
      ],
      "payable": false,
      "stateMutability": "view",
      "type": "function"
    },
    {
      "constant": false,
      "inputs": [
        {
          "internalType": "address",
          "name": "newOwner",
          "type": "address"
        }
      ],
      "name": "transferOwnership",
      "outputs": [],
      "payable": false,
      "stateMutability": "nonpayable",
      "type": "function"
    },
    {
      "constant": false,
      "inputs": [
        {
          "internalType": "address",
          "name": "owner",
          "type": "address"
        }
      ],
      "name": "updateSeigniorage",
      "outputs": [],
      "payable": false,
      "stateMutability": "nonpayable",
      "type": "function"
    },
    {
      "constant": false,
      "inputs": [
        {
          "internalType": "address",
          "name": "account",
          "type": "address"
        },
        {
          "internalType": "uint256",
          "name": "amount",
          "type": "uint256"
        }
      ],
      "name": "mint",
      "outputs": [],
      "payable": false,
      "stateMutability": "nonpayable",
      "type": "function"
    },
    {
      "constant": false,
      "inputs": [
        {
          "internalType": "address",
          "name": "account",
          "type": "address"
        },
        {
          "internalType": "uint256",
          "name": "amount",
          "type": "uint256"
        }
      ],
      "name": "burn",
      "outputs": [],
      "payable": false,
      "stateMutability": "nonpayable",
      "type": "function"
    }
  ],
  "bytecode": "0x608060405234801561001057600080fd5b5060006100246001600160e01b0361007316565b600080546001600160a01b0319166001600160a01b0383169081178255604051929350917f8be0079c531659141344cd1fd0a4f28419497f9722a3daafe3b4186f6b6457e0908290a350610077565b3390565b610ce2806100866000396000f3fe608060405234801561001057600080fd5b50600436106100f55760003560e01c806370a08231116100975780638f32d59b116100665780638f32d59b146102615780639dc29fac1461027d578063dbbb3cf3146102a9578063f2fde38b146102cf576100f5565b806370a08231146101e9578063715018a61461020f57806389ea4300146102175780638da5cb5b1461023d576100f5565b80633e33e456116100d35780633e33e4561461017257806340c10f191461017a578063605b21d7146101a65780636ff71b2b146101ae576100f5565b80630ce1e020146100fa57806318160ddd1461011957806327e235e314610133575b600080fd5b6101176004803603602081101561011057600080fd5b50356102f5565b005b6101216103a0565b60408051918252519081900360200190f35b6101596004803603602081101561014957600080fd5b50356001600160a01b03166103b5565b6040805192835260208301919091528051918290030190f35b6101216103ce565b6101176004803603604081101561019057600080fd5b506001600160a01b0381351690602001356103d4565b610121610429565b6101cb600480360360208110156101c457600080fd5b503561042f565b60408051938452602084019290925282820152519081900360600190f35b610121600480360360208110156101ff57600080fd5b50356001600160a01b031661044f565b6101176104a5565b6101176004803603602081101561022d57600080fd5b50356001600160a01b0316610536565b610245610586565b604080516001600160a01b039092168252519081900360200190f35b610269610595565b604080519115158252519081900360200190f35b6101176004803603604081101561029357600080fd5b506001600160a01b0381351690602001356105b9565b610159600480360360208110156102bf57600080fd5b50356001600160a01b031661060a565b610117600480360360208110156102e557600080fd5b50356001600160a01b03166106e2565b6102fd610595565b61033c576040805162461bcd60e51b81526020600482018190526024820152600080516020610c8e833981519152604482015290519081900360640190fd5b6003546000908152600260205260409020610355610bcf565b8154610367908463ffffffff61073516565b81526020808201938452436002938401819055600381905560009081529083905260409081902082518155935160018501550151910155565b60035460009081526002602052604090205490565b6001602081905260009182526040909120805491015482565b60035481565b6103dc610595565b61041b576040805162461bcd60e51b81526020600482018190526024820152600080516020610c8e833981519152604482015290519081900360640190fd5b6104258282610798565b5050565b60045481565b600260208190526000918252604090912080546001820154919092015483565b6001600160a01b03811660009081526001602081905260408220908101546003548254101561049e576000806104848661060a565b9092509050610499838363ffffffff61073516565b925050505b9392505050565b6104ad610595565b6104ec576040805162461bcd60e51b81526020600482018190526024820152600080516020610c8e833981519152604482015290519081900360640190fd5b600080546040516001600160a01b03909116907f8be0079c531659141344cd1fd0a4f28419497f9722a3daafe3b4186f6b6457e0908390a3600080546001600160a01b0319169055565b6000806105428361060a565b6001600160a01b0385166000908152600160208190526040909120828155908101549294509092509061057b908463ffffffff61073516565b600190910155505050565b6000546001600160a01b031690565b600080546001600160a01b03166105aa610875565b6001600160a01b031614905090565b6105c1610595565b610600576040805162461bcd60e51b81526020600482018190526024820152600080516020610c8e833981519152604482015290519081900360640190fd5b6104258282610879565b6001600160a01b038116600090815260016020818152604080842080548552600292839052908420918201549281015482548594859492909185905b83156106d257600084815260026020526040812060018101549091906106949084906106889061067c898e63ffffffff61073516565b9063ffffffff61095616565b9063ffffffff6109af16565b90506106ad82600101548461073590919063ffffffff16565b92506106bf898263ffffffff61073516565b9850859350816002015495505050610646565b5094965093945050505050915091565b6106ea610595565b610729576040805162461bcd60e51b81526020600482018190526024820152600080516020610c8e833981519152604482015290519081900360640190fd5b610732816109f1565b50565b60008282018381101561078f576040805162461bcd60e51b815260206004820152601b60248201527f536166654d6174683a206164646974696f6e206f766572666c6f770000000000604482015290519081900360640190fd5b90505b92915050565b6107a0610595565b6107df576040805162461bcd60e51b81526020600482018190526024820152600080516020610c8e833981519152604482015290519081900360640190fd5b6001600160a01b0382166108245760405162461bcd60e51b815260040180806020018281038252602a815260200180610c17602a913960400191505060405180910390fd5b60035460009081526002602090815260408083206001600160a01b03861684526001909252909120815461085e908463ffffffff61073516565b8255600181015461057b908463ffffffff61073516565b3390565b610881610595565b6108c0576040805162461bcd60e51b81526020600482018190526024820152600080516020610c8e833981519152604482015290519081900360640190fd5b6001600160a01b0382166109055760405162461bcd60e51b815260040180806020018281038252602c815260200180610c41602c913960400191505060405180910390fd5b60035460009081526002602090815260408083206001600160a01b03861684526001909252909120815461093f908463ffffffff610a9116565b8255600181015461057b908463ffffffff610a9116565b60008261096557506000610792565b8282028284828161097257fe5b041461078f5760405162461bcd60e51b8152600401808060200182810382526021815260200180610c6d6021913960400191505060405180910390fd5b600061078f83836040518060400160405280601a81526020017f536166654d6174683a206469766973696f6e206279207a65726f000000000000815250610ad3565b6001600160a01b038116610a365760405162461bcd60e51b8152600401808060200182810382526026815260200180610bf16026913960400191505060405180910390fd5b600080546040516001600160a01b03808516939216917f8be0079c531659141344cd1fd0a4f28419497f9722a3daafe3b4186f6b6457e091a3600080546001600160a01b0319166001600160a01b0392909216919091179055565b600061078f83836040518060400160405280601e81526020017f536166654d6174683a207375627472616374696f6e206f766572666c6f770000815250610b75565b60008183610b5f5760405162461bcd60e51b81526004018080602001828103825283818151815260200191508051906020019080838360005b83811015610b24578181015183820152602001610b0c565b50505050905090810190601f168015610b515780820380516001836020036101000a031916815260200191505b509250505060405180910390fd5b506000838581610b6b57fe5b0495945050505050565b60008184841115610bc75760405162461bcd60e51b8152602060048201818152835160248401528351909283926044909101919085019080838360008315610b24578181015183820152602001610b0c565b505050900390565b6040518060600160405280600081526020016000815260200160008152509056fe4f776e61626c653a206e6577206f776e657220697320746865207a65726f206164647265737353656967436f696e616765546f6b656e3a206d696e7420746f20746865207a65726f206164647265737353656967436f696e616765546f6b656e3a206275726e2066726f6d20746865207a65726f2061646472657373536166654d6174683a206d756c7469706c69636174696f6e206f766572666c6f774f776e61626c653a2063616c6c6572206973206e6f7420746865206f776e6572a265627a7a72315820febd80f13366002a1ec6779c3d64fd11d04be6eff4216352927201d9b951c24a64736f6c634300050c0032",
  "source": "pragma solidity ^0.5.12;\n\nimport { SeigCoinageToken } from \"./SeigCoinageToken.sol\";\n\ncontract SeigCoinageTokenMock is SeigCoinageToken {\n    constructor() public {\n    }\n\n    function mint(address account, uint256 amount) public onlyOwner {\n        super._mint(account, amount);\n    }\n\n    function burn(address account, uint256 amount) public onlyOwner {\n        super._burn(account, amount);\n    }\n}\n",
  "sourcePath": "/Users/kadyrbeknarmamatov/code/plasma-evm-contracts/contracts/stake/tokens/SeigCoinageTokenMock.sol",
  "compiler": {
    "name": "solc",
    "version": "0.5.12+commit.7709ece9.Emscripten.clang"
  },
  "schemaVersion": "3.4.0",
  "updatedAt": "2021-05-04T08:39:28.655Z",
  "devdoc": {
    "methods": {
      "isOwner()": {
        "details": "Returns true if the caller is the current owner."
      },
      "owner()": {
        "details": "Returns the address of the current owner."
      },
      "renounceOwnership()": {
        "details": "Leaves the contract without owner. It will not be possible to call `onlyOwner` functions anymore. Can only be called by the current owner.     * NOTE: Renouncing ownership will leave the contract without an owner, thereby removing any functionality that is only available to the owner."
      },
      "transferOwnership(address)": {
        "details": "Transfers ownership of the contract to a new account (`newOwner`). Can only be called by the current owner."
      }
    }
  },
  "userdoc": {
    "methods": {}
  }
}