{
  "contractName": "SFLD",
  "abi": [
    {
      "inputs": [],
      "stateMutability": "nonpayable",
      "type": "constructor"
    },
    {
      "anonymous": false,
      "inputs": [
        {
          "indexed": true,
          "internalType": "address",
          "name": "from",
          "type": "address"
        },
        {
          "indexed": true,
          "internalType": "address",
          "name": "to",
          "type": "address"
        },
        {
          "indexed": false,
          "internalType": "uint256",
          "name": "value",
          "type": "uint256"
        }
      ],
      "name": "Approval",
      "type": "event"
    },
    {
      "anonymous": false,
      "inputs": [
        {
          "indexed": true,
          "internalType": "bytes32",
          "name": "role",
          "type": "bytes32"
        },
        {
          "indexed": true,
          "internalType": "bytes32",
          "name": "previousAdminRole",
          "type": "bytes32"
        },
        {
          "indexed": true,
          "internalType": "bytes32",
          "name": "newAdminRole",
          "type": "bytes32"
        }
      ],
      "name": "RoleAdminChanged",
      "type": "event"
    },
    {
      "anonymous": false,
      "inputs": [
        {
          "indexed": true,
          "internalType": "bytes32",
          "name": "role",
          "type": "bytes32"
        },
        {
          "indexed": true,
          "internalType": "address",
          "name": "account",
          "type": "address"
        },
        {
          "indexed": true,
          "internalType": "address",
          "name": "sender",
          "type": "address"
        }
      ],
      "name": "RoleGranted",
      "type": "event"
    },
    {
      "anonymous": false,
      "inputs": [
        {
          "indexed": true,
          "internalType": "bytes32",
          "name": "role",
          "type": "bytes32"
        },
        {
          "indexed": true,
          "internalType": "address",
          "name": "account",
          "type": "address"
        },
        {
          "indexed": true,
          "internalType": "address",
          "name": "sender",
          "type": "address"
        }
      ],
      "name": "RoleRevoked",
      "type": "event"
    },
    {
      "anonymous": false,
      "inputs": [
        {
          "indexed": true,
          "internalType": "address",
          "name": "from",
          "type": "address"
        },
        {
          "indexed": true,
          "internalType": "address",
          "name": "to",
          "type": "address"
        },
        {
          "indexed": false,
          "internalType": "uint256",
          "name": "value",
          "type": "uint256"
        }
      ],
      "name": "Transfer",
      "type": "event"
    },
    {
      "inputs": [],
      "name": "ADMIN_ROLE",
      "outputs": [
        {
          "internalType": "bytes32",
          "name": "",
          "type": "bytes32"
        }
      ],
      "stateMutability": "view",
      "type": "function"
    },
    {
      "inputs": [],
      "name": "BURNER_ROLE",
      "outputs": [
        {
          "internalType": "bytes32",
          "name": "",
          "type": "bytes32"
        }
      ],
      "stateMutability": "view",
      "type": "function"
    },
    {
      "inputs": [],
      "name": "DEFAULT_ADMIN_ROLE",
      "outputs": [
        {
          "internalType": "bytes32",
          "name": "",
          "type": "bytes32"
        }
      ],
      "stateMutability": "view",
      "type": "function"
    },
    {
      "inputs": [],
      "name": "DOMAIN_SEPARATOR",
      "outputs": [
        {
          "internalType": "bytes32",
          "name": "",
          "type": "bytes32"
        }
      ],
      "stateMutability": "view",
      "type": "function"
    },
    {
      "inputs": [],
      "name": "MINTER_ROLE",
      "outputs": [
        {
          "internalType": "bytes32",
          "name": "",
          "type": "bytes32"
        }
      ],
      "stateMutability": "view",
      "type": "function"
    },
    {
      "inputs": [],
      "name": "PERMIT_TYPEHASH",
      "outputs": [
        {
          "internalType": "bytes32",
          "name": "",
          "type": "bytes32"
        }
      ],
      "stateMutability": "view",
      "type": "function"
    },
    {
      "inputs": [
        {
          "internalType": "address",
          "name": "",
          "type": "address"
        },
        {
          "internalType": "address",
          "name": "",
          "type": "address"
        }
      ],
      "name": "allowance",
      "outputs": [
        {
          "internalType": "uint256",
          "name": "",
          "type": "uint256"
        }
      ],
      "stateMutability": "view",
      "type": "function"
    },
    {
      "inputs": [
        {
          "internalType": "address",
          "name": "",
          "type": "address"
        }
      ],
      "name": "balanceOf",
      "outputs": [
        {
          "internalType": "uint256",
          "name": "",
          "type": "uint256"
        }
      ],
      "stateMutability": "view",
      "type": "function"
    },
    {
      "inputs": [],
      "name": "decimals",
      "outputs": [
        {
          "internalType": "uint8",
          "name": "",
          "type": "uint8"
        }
      ],
      "stateMutability": "view",
      "type": "function"
    },
    {
      "inputs": [
        {
          "internalType": "bytes32",
          "name": "_messageHash",
          "type": "bytes32"
        }
      ],
      "name": "getEthSignedMessageHash",
      "outputs": [
        {
          "internalType": "bytes32",
          "name": "",
          "type": "bytes32"
        }
      ],
      "stateMutability": "pure",
      "type": "function"
    },
    {
      "inputs": [
        {
          "internalType": "address",
          "name": "_to",
          "type": "address"
        },
        {
          "internalType": "uint256",
          "name": "_amount",
          "type": "uint256"
        },
        {
          "internalType": "string",
          "name": "_message",
          "type": "string"
        },
        {
          "internalType": "uint256",
          "name": "_nonce",
          "type": "uint256"
        }
      ],
      "name": "getMessageHash",
      "outputs": [
        {
          "internalType": "bytes32",
          "name": "",
          "type": "bytes32"
        }
      ],
      "stateMutability": "pure",
      "type": "function"
    },
    {
      "inputs": [
        {
          "internalType": "address",
          "name": "_owner",
          "type": "address"
        },
        {
          "internalType": "address",
          "name": "_spender",
          "type": "address"
        },
        {
          "internalType": "uint256",
          "name": "_amount",
          "type": "uint256"
        },
        {
          "internalType": "uint256",
          "name": "_nonce",
          "type": "uint256"
        },
        {
          "internalType": "uint256",
          "name": "_period",
          "type": "uint256"
        }
      ],
      "name": "getPermitMessageHash",
      "outputs": [
        {
          "internalType": "bytes32",
          "name": "",
          "type": "bytes32"
        }
      ],
      "stateMutability": "pure",
      "type": "function"
    },
    {
      "inputs": [
        {
          "internalType": "bytes32",
          "name": "role",
          "type": "bytes32"
        }
      ],
      "name": "getRoleAdmin",
      "outputs": [
        {
          "internalType": "bytes32",
          "name": "",
          "type": "bytes32"
        }
      ],
      "stateMutability": "view",
      "type": "function"
    },
    {
      "inputs": [
        {
          "internalType": "bytes32",
          "name": "role",
          "type": "bytes32"
        },
        {
          "internalType": "uint256",
          "name": "index",
          "type": "uint256"
        }
      ],
      "name": "getRoleMember",
      "outputs": [
        {
          "internalType": "address",
          "name": "",
          "type": "address"
        }
      ],
      "stateMutability": "view",
      "type": "function"
    },
    {
      "inputs": [
        {
          "internalType": "bytes32",
          "name": "role",
          "type": "bytes32"
        }
      ],
      "name": "getRoleMemberCount",
      "outputs": [
        {
          "internalType": "uint256",
          "name": "",
          "type": "uint256"
        }
      ],
      "stateMutability": "view",
      "type": "function"
    },
    {
      "inputs": [
        {
          "internalType": "bytes32",
          "name": "role",
          "type": "bytes32"
        },
        {
          "internalType": "address",
          "name": "account",
          "type": "address"
        }
      ],
      "name": "grantRole",
      "outputs": [],
      "stateMutability": "nonpayable",
      "type": "function"
    },
    {
      "inputs": [
        {
          "internalType": "bytes32",
          "name": "role",
          "type": "bytes32"
        },
        {
          "internalType": "address",
          "name": "account",
          "type": "address"
        }
      ],
      "name": "hasRole",
      "outputs": [
        {
          "internalType": "bool",
          "name": "",
          "type": "bool"
        }
      ],
      "stateMutability": "view",
      "type": "function"
    },
    {
      "inputs": [],
      "name": "name",
      "outputs": [
        {
          "internalType": "string",
          "name": "",
          "type": "string"
        }
      ],
      "stateMutability": "view",
      "type": "function"
    },
    {
      "inputs": [
        {
          "internalType": "address",
          "name": "",
          "type": "address"
        }
      ],
      "name": "nonces",
      "outputs": [
        {
          "internalType": "uint256",
          "name": "",
          "type": "uint256"
        }
      ],
      "stateMutability": "view",
      "type": "function"
    },
    {
      "inputs": [
        {
          "internalType": "bytes32",
          "name": "_ethSignedMessageHash",
          "type": "bytes32"
        },
        {
          "internalType": "bytes",
          "name": "_signature",
          "type": "bytes"
        }
      ],
      "name": "recoverSigner",
      "outputs": [
        {
          "internalType": "address",
          "name": "",
          "type": "address"
        }
      ],
      "stateMutability": "pure",
      "type": "function"
    },
    {
      "inputs": [
        {
          "internalType": "bytes32",
          "name": "_ethSignedMessageHash",
          "type": "bytes32"
        },
        {
          "internalType": "uint8",
          "name": "v",
          "type": "uint8"
        },
        {
          "internalType": "bytes32",
          "name": "r",
          "type": "bytes32"
        },
        {
          "internalType": "bytes32",
          "name": "s",
          "type": "bytes32"
        }
      ],
      "name": "recoverSigner2",
      "outputs": [
        {
          "internalType": "address",
          "name": "",
          "type": "address"
        }
      ],
      "stateMutability": "pure",
      "type": "function"
    },
    {
      "inputs": [
        {
          "internalType": "bytes32",
          "name": "role",
          "type": "bytes32"
        },
        {
          "internalType": "address",
          "name": "account",
          "type": "address"
        }
      ],
      "name": "renounceRole",
      "outputs": [],
      "stateMutability": "nonpayable",
      "type": "function"
    },
    {
      "inputs": [
        {
          "internalType": "bytes32",
          "name": "role",
          "type": "bytes32"
        },
        {
          "internalType": "address",
          "name": "account",
          "type": "address"
        }
      ],
      "name": "revokeRole",
      "outputs": [],
      "stateMutability": "nonpayable",
      "type": "function"
    },
    {
      "inputs": [
        {
          "internalType": "bytes",
          "name": "sig",
          "type": "bytes"
        }
      ],
      "name": "splitSignature",
      "outputs": [
        {
          "internalType": "bytes32",
          "name": "r",
          "type": "bytes32"
        },
        {
          "internalType": "bytes32",
          "name": "s",
          "type": "bytes32"
        },
        {
          "internalType": "uint8",
          "name": "v",
          "type": "uint8"
        }
      ],
      "stateMutability": "pure",
      "type": "function"
    },
    {
      "inputs": [],
      "name": "symbol",
      "outputs": [
        {
          "internalType": "string",
          "name": "",
          "type": "string"
        }
      ],
      "stateMutability": "view",
      "type": "function"
    },
    {
      "inputs": [],
      "name": "totalSupply",
      "outputs": [
        {
          "internalType": "uint256",
          "name": "",
          "type": "uint256"
        }
      ],
      "stateMutability": "view",
      "type": "function"
    },
    {
      "inputs": [
        {
          "internalType": "address",
          "name": "_signer",
          "type": "address"
        },
        {
          "internalType": "address",
          "name": "_to",
          "type": "address"
        },
        {
          "internalType": "uint256",
          "name": "_amount",
          "type": "uint256"
        },
        {
          "internalType": "string",
          "name": "_message",
          "type": "string"
        },
        {
          "internalType": "uint256",
          "name": "_nonce",
          "type": "uint256"
        },
        {
          "internalType": "bytes",
          "name": "signature",
          "type": "bytes"
        }
      ],
      "name": "verify",
      "outputs": [
        {
          "internalType": "bool",
          "name": "",
          "type": "bool"
        }
      ],
      "stateMutability": "pure",
      "type": "function"
    },
    {
      "inputs": [
        {
          "internalType": "address",
          "name": "newOwner",
          "type": "address"
        }
      ],
      "name": "transferOwnership",
      "outputs": [],
      "stateMutability": "nonpayable",
      "type": "function"
    },
    {
      "inputs": [
        {
          "internalType": "address",
          "name": "to",
          "type": "address"
        },
        {
          "internalType": "uint256",
          "name": "amount",
          "type": "uint256"
        }
      ],
      "name": "mint",
      "outputs": [
        {
          "internalType": "bool",
          "name": "",
          "type": "bool"
        }
      ],
      "stateMutability": "nonpayable",
      "type": "function"
    },
    {
      "inputs": [
        {
          "internalType": "address",
          "name": "from",
          "type": "address"
        },
        {
          "internalType": "uint256",
          "name": "amount",
          "type": "uint256"
        }
      ],
      "name": "burn",
      "outputs": [
        {
          "internalType": "bool",
          "name": "",
          "type": "bool"
        }
      ],
      "stateMutability": "nonpayable",
      "type": "function"
    },
    {
      "inputs": [
        {
          "internalType": "address",
          "name": "spender",
          "type": "address"
        },
        {
          "internalType": "uint256",
          "name": "value",
          "type": "uint256"
        }
      ],
      "name": "approve",
      "outputs": [
        {
          "internalType": "bool",
          "name": "",
          "type": "bool"
        }
      ],
      "stateMutability": "nonpayable",
      "type": "function"
    },
    {
      "inputs": [
        {
          "internalType": "address",
          "name": "to",
          "type": "address"
        },
        {
          "internalType": "uint256",
          "name": "value",
          "type": "uint256"
        }
      ],
      "name": "transfer",
      "outputs": [
        {
          "internalType": "bool",
          "name": "",
          "type": "bool"
        }
      ],
      "stateMutability": "nonpayable",
      "type": "function"
    },
    {
      "inputs": [
        {
          "internalType": "address",
          "name": "from",
          "type": "address"
        },
        {
          "internalType": "address",
          "name": "to",
          "type": "address"
        },
        {
          "internalType": "uint256",
          "name": "value",
          "type": "uint256"
        }
      ],
      "name": "transferFrom",
      "outputs": [
        {
          "internalType": "bool",
          "name": "",
          "type": "bool"
        }
      ],
      "stateMutability": "nonpayable",
      "type": "function"
    },
    {
      "inputs": [
        {
          "internalType": "address",
          "name": "owner",
          "type": "address"
        },
        {
          "internalType": "address",
          "name": "spender",
          "type": "address"
        },
        {
          "internalType": "uint256",
          "name": "value",
          "type": "uint256"
        },
        {
          "internalType": "uint256",
          "name": "deadline",
          "type": "uint256"
        },
        {
          "internalType": "bytes",
          "name": "signature",
          "type": "bytes"
        }
      ],
      "name": "permit",
      "outputs": [],
      "stateMutability": "nonpayable",
      "type": "function"
    }
  ],
  "bytecode": "0x60806040523480156200001157600080fd5b5060408051808201825260048082526314d1931160e21b6020928301528251808401845260018152603160f81b9083015282517f8b73c3c69bb8fe3d512ecc4cf759cc79239f7b179b0ffacaa9a75d522b39400f818401527fa5a4d97e9d7c4cc88f431e590e0c80dfd4ce9021b7dcde66d70d67656bb8f3d4818501527fc89efdaa54c0f20c7adf612882df0950f5a951637e0307cdcb4c672f298b8bc6606082015246608082018190523060a0808401919091528551808403909101815260c090920190945280519201919091209055620000fd60008051602062001c8983398151915280620001cb565b6200011860008051602062001c89833981519152336200021d565b620001537f9667e80708b6eeeb0053fa0cca44e028ff548e2a9f029edfeac87c118b08b7c860008051602062001c89833981519152620001cb565b6200017d60008051602062001c6983398151915260008051602062001c89833981519152620001cb565b620001a97f9667e80708b6eeeb0053fa0cca44e028ff548e2a9f029edfeac87c118b08b7c8336200021d565b620001c460008051602062001c69833981519152336200021d565b5062000331565b600082815260208190526040808220600201549051839285917fbd79b86ffe0ab8e8776151514217cd7cacd52c909f66475c3af44e129f0b00ff9190a460009182526020829052604090912060020155565b6200022982826200022d565b5050565b60008281526020818152604090912062000252918390620013d5620002a6821b17901c565b15620002295762000262620002c6565b6001600160a01b0316816001600160a01b0316837f2f8788117e7eff1d82e926ec794901d17c78024a50270940304540a733656f0d60405160405180910390a45050565b6000620002bd836001600160a01b038416620002ca565b90505b92915050565b3390565b6000620002d8838362000319565b6200031057508154600181810184556000848152602080822090930184905584548482528286019093526040902091909155620002c0565b506000620002c0565b60009081526001919091016020526040902054151590565b61192880620003416000396000f3fe608060405234801561001057600080fd5b50600436106102065760003560e01c806391d148541161011a578063a9059cbb116100ad578063d53913931161007c578063d5391393146109e6578063d547741f146109ee578063dd62ed3e14610a1a578063f2fde38b14610a48578063fa54080114610a6e57610206565b8063a9059cbb1461081a578063abe5026a14610846578063bdb33d4814610997578063ca15c873146109c957610206565b80639fd5a6cf116100e95780639fd5a6cf146105c9578063a217fddf14610692578063a35f8a401461069a578063a7bb58031461075557610206565b806391d14854146104c657806395d89b411461020b57806397aba7f9146104f25780639dc29fac1461059d57610206565b8063313ce5671161019d57806362fb9ee81161016c57806362fb9ee8146103f157806370a082311461043357806375b238fc146104595780637ecebe00146104615780639010d07c1461048757610206565b8063313ce567146103735780633644e5151461039157806336568abe1461039957806340c10f19146103c557610206565b8063248a9ca3116101d9578063248a9ca314610318578063282c51f3146103355780632f2ff15d1461033d57806330adf81f1461036b57610206565b806306fdde031461020b578063095ea7b31461028857806318160ddd146102c857806323b872dd146102e2575b600080fd5b610213610a8b565b6040805160208082528351818301528351919283929083019185019080838360005b8381101561024d578181015183820152602001610235565b50505050905090810190601f16801561027a5780820380516001836020036101000a031916815260200191505b509250505060405180910390f35b6102b46004803603604081101561029e57600080fd5b506001600160a01b038135169060200135610aab565b604080519115158252519081900360200190f35b6102d0610ac2565b60408051918252519081900360200190f35b6102b4600480360360608110156102f857600080fd5b506001600160a01b03813581169160208101359091169060400135610ac8565b6102d06004803603602081101561032e57600080fd5b5035610b34565b6102d0610b49565b6103696004803603604081101561035357600080fd5b50803590602001356001600160a01b0316610b6d565b005b6102d0610bd9565b61037b610bfd565b6040805160ff9092168252519081900360200190f35b6102d0610c02565b610369600480360360408110156103af57600080fd5b50803590602001356001600160a01b0316610c08565b6102b4600480360360408110156103db57600080fd5b506001600160a01b038135169060200135610c69565b6102d0600480360360a081101561040757600080fd5b506001600160a01b03813581169160208101359091169060408101359060608101359060800135610cf0565b6102d06004803603602081101561044957600080fd5b50356001600160a01b0316610d76565b6102d0610d88565b6102d06004803603602081101561047757600080fd5b50356001600160a01b0316610d9a565b6104aa6004803603604081101561049d57600080fd5b5080359060200135610dac565b604080516001600160a01b039092168252519081900360200190f35b6102b4600480360360408110156104dc57600080fd5b50803590602001356001600160a01b0316610dcb565b6104aa6004803603604081101561050857600080fd5b81359190810190604081016020820135600160201b81111561052957600080fd5b82018360208201111561053b57600080fd5b803590602001918460018302840111600160201b8311171561055c57600080fd5b91908080601f016020809104026020016040519081016040528093929190818152602001838380828437600092019190915250929550610de3945050505050565b6102b4600480360360408110156105b357600080fd5b506001600160a01b038135169060200135610e67565b610369600480360360a08110156105df57600080fd5b6001600160a01b03823581169260208101359091169160408201359160608101359181019060a081016080820135600160201b81111561061e57600080fd5b82018360208201111561063057600080fd5b803590602001918460018302840111600160201b8311171561065157600080fd5b91908080601f016020809104026020016040519081016040528093929190818152602001838380828437600092019190915250929550610eee945050505050565b6102d0611010565b6102d0600480360360808110156106b057600080fd5b6001600160a01b0382351691602081013591810190606081016040820135600160201b8111156106df57600080fd5b8201836020820111156106f157600080fd5b803590602001918460018302840111600160201b8311171561071257600080fd5b91908080601f0160208091040260200160405190810160405280939291908181526020018383808284376000920191909152509295505091359250611015915050565b6107f96004803603602081101561076b57600080fd5b810190602081018135600160201b81111561078557600080fd5b82018360208201111561079757600080fd5b803590602001918460018302840111600160201b831117156107b857600080fd5b91908080601f0160208091040260200160405190810160405280939291908181526020018383808284376000920191909152509295506110a8945050505050565b60408051938452602084019290925260ff1682820152519081900360600190f35b6102b46004803603604081101561083057600080fd5b506001600160a01b038135169060200135611121565b6102b4600480360360c081101561085c57600080fd5b6001600160a01b03823581169260208101359091169160408201359190810190608081016060820135600160201b81111561089657600080fd5b8201836020820111156108a857600080fd5b803590602001918460018302840111600160201b831117156108c957600080fd5b91908080601f01602080910402602001604051908101604052809392919081815260200183838082843760009201919091525092958435959094909350604081019250602001359050600160201b81111561092357600080fd5b82018360208201111561093557600080fd5b803590602001918460018302840111600160201b8311171561095657600080fd5b91908080601f01602080910402602001604051908101604052809392919081815260200183838082843760009201919091525092955061112e945050505050565b6104aa600480360360808110156109ad57600080fd5b5080359060ff6020820135169060408101359060600135611177565b6102d0600480360360208110156109df57600080fd5b50356111e7565b6102d06111fe565b61036960048036036040811015610a0457600080fd5b50803590602001356001600160a01b0316611222565b6102d060048036036040811015610a3057600080fd5b506001600160a01b038135811691602001351661127b565b61036960048036036020811015610a5e57600080fd5b50356001600160a01b0316611298565b6102d060048036036020811015610a8457600080fd5b5035611384565b6040518060400160405280600481526020016314d1931160e21b81525081565b6000610ab83384846113ea565b5060015b92915050565b60015481565b6001600160a01b038316600090815260036020908152604080832033845290915281205460001914610b1f576001600160a01b03841660009081526003602090815260408083203384529091529020805483900390555b610b2a84848461144c565b5060019392505050565b60009081526020819052604090206002015490565b7f9667e80708b6eeeb0053fa0cca44e028ff548e2a9f029edfeac87c118b08b7c881565b600082815260208190526040902060020154610b9090610b8b6114b8565b610dcb565b610bcb5760405162461bcd60e51b815260040180806020018281038252602f815260200180611845602f913960400191505060405180910390fd5b610bd582826114bc565b5050565b7f6e71edae12b1b97f4d1f60370fef10105fa2faae0126114a169c64845d6126c981565b601281565b60045481565b610c106114b8565b6001600160a01b0316816001600160a01b031614610c5f5760405162461bcd60e51b815260040180806020018281038252602f8152602001806118c4602f913960400191505060405180910390fd5b610bd58282611525565b6000610c957ff0887ba65ee2024ea881d91b74c2450ef19e1557f03bed3ea9f16b037cbe2dc933610dcb565b610ce6576040805162461bcd60e51b815260206004820152601c60248201527f53464c443a2043616c6c6572206973206e6f742061206d696e74657200000000604482015290519081900360640190fd5b610ab8838361158e565b604080517f6e71edae12b1b97f4d1f60370fef10105fa2faae0126114a169c64845d6126c96020808301919091526bffffffffffffffffffffffff19606089811b82168486015288901b166054830152606882018690526088820185905260a88083018590528351808403909101815260c8909201909252805191012095945050505050565b60026020526000908152604090205481565b6000805160206118a483398151915281565b60056020526000908152604090205481565b6000828152602081905260408120610dc490836115ed565b9392505050565b6000828152602081905260408120610dc490836115f9565b600080600080610df2856110a8565b92509250925060018682858560405160008152602001604052604051808581526020018460ff1681526020018381526020018281526020019450505050506020604051602081039080840390855afa158015610e52573d6000803e3d6000fd5b5050604051601f190151979650505050505050565b6000610e937f9667e80708b6eeeb0053fa0cca44e028ff548e2a9f029edfeac87c118b08b7c833610dcb565b610ee4576040805162461bcd60e51b815260206004820152601c60248201527f53464c443a2043616c6c6572206973206e6f742061206275726e657200000000604482015290519081900360640190fd5b610ab8838361160e565b42821015610f33576040805162461bcd60e51b815260206004820152600d60248201526c14d193110e8811561412549151609a1b604482015290519081900360640190fd5b6001600160a01b0385166000908152600560205260408120805460018101909155610f649087908790879087610cf0565b90506000610f7182611384565b90506000610f7f8285610de3565b90506001600160a01b03811615801590610faa5750876001600160a01b0316816001600160a01b0316145b610ffb576040805162461bcd60e51b815260206004820152601760248201527f53464c443a20494e56414c49445f5349474e4154555245000000000000000000604482015290519081900360640190fd5b6110068888886113ea565b5050505050505050565b600081565b60008484848460405160200180856001600160a01b031660601b815260140184815260200183805190602001908083835b602083106110655780518252601f199092019160209182019101611046565b51815160209384036101000a6000190180199092169116179052920193845250604080518085038152938201905282519201919091209998505050505050505050565b60008060008351604114611103576040805162461bcd60e51b815260206004820152601860248201527f696e76616c6964207369676e6174757265206c656e6774680000000000000000604482015290519081900360640190fd5b50505060208101516040820151606090920151909260009190911a90565b6000610ab833848461144c565b60008061113d87878787611015565b9050600061114a82611384565b9050886001600160a01b03166111608286610de3565b6001600160a01b0316149998505050505050505050565b600060018585858560405160008152602001604052604051808581526020018460ff1681526020018381526020018281526020019450505050506020604051602081039080840390855afa1580156111d3573d6000803e3d6000fd5b5050604051601f1901519695505050505050565b6000818152602081905260408120610abc90611672565b7ff0887ba65ee2024ea881d91b74c2450ef19e1557f03bed3ea9f16b037cbe2dc981565b60008281526020819052604090206002015461124090610b8b6114b8565b610c5f5760405162461bcd60e51b81526004018080602001828103825260308152602001806118746030913960400191505060405180910390fd5b600360209081526000928352604080842090915290825290205481565b6112b06000805160206118a483398151915233610dcb565b611301576040805162461bcd60e51b815260206004820152601c60248201527f53464c443a2043616c6c6572206973206e6f7420616e2061646d696e00000000604482015290519081900360640190fd5b336001600160a01b0382161415611351576040805162461bcd60e51b815260206004820152600f60248201526e29a326221d39b0b6b29037bbb732b960891b604482015290519081900360640190fd5b6113696000805160206118a483398151915282610b6d565b6113816000805160206118a483398151915233611222565b50565b604080517f19457468657265756d205369676e6564204d6573736167653a0a333200000000602080830191909152603c8083019490945282518083039094018452605c909101909152815191012090565b6000610dc4836001600160a01b03841661167d565b6001600160a01b03808416600081815260036020908152604080832094871680845294825291829020859055815185815291517f8c5be1e5ebec7d5bd14f71427d1e84f3dd0314c0f7b2291e5b200ac8c7c3b9259281900390910190a3505050565b6001600160a01b03808416600081815260026020908152604080832080548790039055938616808352918490208054860190558351858152935191937fddf252ad1be2c89b69c2b068fc378daa952ba7f163c4a11628f55a4df523b3ef929081900390910190a3505050565b3390565b60008281526020819052604090206114d490826113d5565b15610bd5576114e16114b8565b6001600160a01b0316816001600160a01b0316837f2f8788117e7eff1d82e926ec794901d17c78024a50270940304540a733656f0d60405160405180910390a45050565b600082815260208190526040902061153d90826116c7565b15610bd55761154a6114b8565b6001600160a01b0316816001600160a01b0316837ff6391f5c32d9c69d2a47ea670b442974b53935d1edc7fd64eb21e047a839171b60405160405180910390a45050565b60018054820190556001600160a01b0382166000818152600260209081526040808320805486019055805185815290517fddf252ad1be2c89b69c2b068fc378daa952ba7f163c4a11628f55a4df523b3ef929181900390910190a35050565b6000610dc483836116dc565b6000610dc4836001600160a01b038416611740565b6001600160a01b038216600081815260026020908152604080832080548690039055600180548690039055805185815290519293927fddf252ad1be2c89b69c2b068fc378daa952ba7f163c4a11628f55a4df523b3ef929181900390910190a35050565b6000610abc82611758565b60006116898383611740565b6116bf57508154600181810184556000848152602080822090930184905584548482528286019093526040902091909155610abc565b506000610abc565b6000610dc4836001600160a01b03841661175c565b8154600090821061171e5760405162461bcd60e51b81526004018080602001828103825260228152602001806118236022913960400191505060405180910390fd5b82600001828154811061172d57fe5b9060005260206000200154905092915050565b60009081526001919091016020526040902054151590565b5490565b60008181526001830160205260408120548015611818578354600019808301919081019060009087908390811061178f57fe5b90600052602060002001549050808760000184815481106117ac57fe5b6000918252602080832090910192909255828152600189810190925260409020908401905586548790806117dc57fe5b60019003818190600052602060002001600090559055866001016000878152602001908152602001600020600090556001945050505050610abc565b6000915050610abc56fe456e756d657261626c655365743a20696e646578206f7574206f6620626f756e6473416363657373436f6e74726f6c3a2073656e646572206d75737420626520616e2061646d696e20746f206772616e74416363657373436f6e74726f6c3a2073656e646572206d75737420626520616e2061646d696e20746f207265766f6b65df8b4c520ffe197c5343c6f5aec59570151ef9a492f2c624fd45ddde6135ec42416363657373436f6e74726f6c3a2063616e206f6e6c792072656e6f756e636520726f6c657320666f722073656c66a2646970667358221220ad31ca6578769c5e9d5eabf3c248cf941c7202ddeb55bfdab051ecc77fab783d64736f6c63430007060033f0887ba65ee2024ea881d91b74c2450ef19e1557f03bed3ea9f16b037cbe2dc9df8b4c520ffe197c5343c6f5aec59570151ef9a492f2c624fd45ddde6135ec42",
  "immutableReferences": {},
  "source": "//SPDX-License-Identifier: Unlicense\npragma solidity ^0.7.6;\n\nimport \"../interfaces/IFLD.sol\";\nimport \"@openzeppelin/contracts/access/AccessControl.sol\";\nimport \"./VerifySignature.sol\";\n\ncontract SFLD is IFLD, AccessControl, VerifySignature {\n    bytes32 public constant ADMIN_ROLE = keccak256(\"ADMIN\");\n    bytes32 public constant MINTER_ROLE = keccak256(\"MINTER\");\n    bytes32 public constant BURNER_ROLE = keccak256(\"BURNER\");\n\n    string public constant override name = \"SFLD\";\n    string public constant override symbol = \"SFLD\";\n    uint8 public constant override decimals = 18;\n    uint256 public override totalSupply;\n    mapping(address => uint256) public override balanceOf;\n    mapping(address => mapping(address => uint256)) public override allowance;\n\n    bytes32 public override DOMAIN_SEPARATOR;\n    // keccak256(\"Permit(address owner,address spender,uint256 value,uint256 nonce,uint256 deadline)\");\n    // solhint-disable-next-line\n    //bytes32 public constant override PERMIT_TYPEHASH = 0x6e71edae12b1b97f4d1f60370fef10105fa2faae0126114a169c64845d6126c9;\n    mapping(address => uint256) public override nonces;\n\n    event Approval(address indexed from, address indexed to, uint256 value);\n    event Transfer(address indexed from, address indexed to, uint256 value);\n\n    modifier onlyOwner() {\n        require(\n            hasRole(ADMIN_ROLE, msg.sender),\n            \"SFLD: Caller is not an admin\"\n        );\n        _;\n    }\n\n    constructor() {\n        uint256 chainId;\n        assembly {\n            chainId := chainid()\n        }\n        DOMAIN_SEPARATOR = keccak256(\n            abi.encode(\n                keccak256(\n                    \"EIP712Domain(string name,string version,uint256 chainId,address verifyingContract)\"\n                ),\n                keccak256(bytes(name)),\n                keccak256(bytes(\"1\")),\n                chainId,\n                address(this)\n            )\n        );\n        _setRoleAdmin(ADMIN_ROLE, ADMIN_ROLE);\n        _setupRole(ADMIN_ROLE, msg.sender);\n\n        _setRoleAdmin(BURNER_ROLE, ADMIN_ROLE);\n        _setRoleAdmin(MINTER_ROLE, ADMIN_ROLE);\n\n        _setupRole(BURNER_ROLE, msg.sender);\n        _setupRole(MINTER_ROLE, msg.sender);\n    }\n\n    function transferOwnership(address newOwner) external onlyOwner {\n        require(msg.sender != newOwner, \"SFLD:same owner\");\n        grantRole(ADMIN_ROLE, newOwner);\n        revokeRole(ADMIN_ROLE, msg.sender);\n    }\n\n    function _mint(address to, uint256 value) internal {\n        totalSupply += value;\n        balanceOf[to] += value;\n        emit Transfer(address(0), to, value);\n    }\n\n    function _burn(address from, uint256 value) internal {\n        balanceOf[from] -= value;\n        totalSupply -= value;\n        emit Transfer(from, address(0), value);\n    }\n\n    function _approve(\n        address owner,\n        address spender,\n        uint256 value\n    ) private {\n        allowance[owner][spender] = value;\n        emit Approval(owner, spender, value);\n    }\n\n    function _transfer(\n        address from,\n        address to,\n        uint256 value\n    ) private {\n        balanceOf[from] -= value;\n        balanceOf[to] += value;\n        emit Transfer(from, to, value);\n    }\n\n    /**\n     * Issue a token.\n     */\n    function mint(address to, uint256 amount) external override returns (bool) {\n        require(\n            hasRole(MINTER_ROLE, msg.sender),\n            \"SFLD: Caller is not a minter\"\n        );\n        _mint(to, amount);\n        return true;\n    }\n\n    /**\n     * burn a token.\n     */\n    function burn(address from, uint256 amount)\n        external\n        override\n        returns (bool)\n    {\n        require(\n            hasRole(BURNER_ROLE, msg.sender),\n            \"SFLD: Caller is not a burner\"\n        );\n        _burn(from, amount);\n        return true;\n    }\n\n    /**\n     * The sender authorize spender to spend sender's tokens in the amount.\n     */\n    function approve(address spender, uint256 value)\n        external\n        override\n        returns (bool)\n    {\n        _approve(msg.sender, spender, value);\n        return true;\n    }\n\n    /**\n     * The sender sends the value of this token to addressTO.\n     */\n    function transfer(address to, uint256 value)\n        external\n        override\n        returns (bool)\n    {\n        _transfer(msg.sender, to, value);\n        return true;\n    }\n\n    /**\n     * The sender sends the amount of tokens from fromAddress to toAddress.\n     */\n    function transferFrom(\n        address from,\n        address to,\n        uint256 value\n    ) external override returns (bool) {\n        if (allowance[from][msg.sender] != uint256(-1)) {\n            allowance[from][msg.sender] -= value;\n        }\n        _transfer(from, to, value);\n        return true;\n    }\n\n    /**\n     * Authorizes the owner's token to be used by the spender as much as the value.\n     * The signature must have the owner's signature.\n     */\n    function permit(\n        address owner,\n        address spender,\n        uint256 value,\n        uint256 deadline,\n        bytes memory signature\n    ) external override {\n        require(deadline >= block.timestamp, \"SFLD: EXPIRED\");\n        bytes32 messageHash =\n            getPermitMessageHash(\n                owner,\n                spender,\n                value,\n                nonces[owner]++,\n                deadline\n            );\n        bytes32 ethSignedMessageHash = getEthSignedMessageHash(messageHash);\n        address recoveredAddress =\n            recoverSigner(ethSignedMessageHash, signature);\n        require(\n            recoveredAddress != address(0) && recoveredAddress == owner,\n            \"SFLD: INVALID_SIGNATURE\"\n        );\n        _approve(owner, spender, value);\n    }\n}\n",
  "sourcePath": "/Users/zena/ico2.0/ico20-contracts/contracts/tokens/sFLD.sol",
  "compiler": {
    "name": "solc",
    "version": "0.7.6+commit.7338295f.Emscripten.clang"
  },
  "schemaVersion": "3.3.4",
  "updatedAt": "2021-06-01T01:21:23.714Z",
  "devdoc": {
    "kind": "dev",
    "methods": {
      "getRoleAdmin(bytes32)": {
        "details": "Returns the admin role that controls `role`. See {grantRole} and {revokeRole}. To change a role's admin, use {_setRoleAdmin}."
      },
      "getRoleMember(bytes32,uint256)": {
        "details": "Returns one of the accounts that have `role`. `index` must be a value between 0 and {getRoleMemberCount}, non-inclusive. Role bearers are not sorted in any particular way, and their ordering may change at any point. WARNING: When using {getRoleMember} and {getRoleMemberCount}, make sure you perform all queries on the same block. See the following https://forum.openzeppelin.com/t/iterating-over-elements-on-enumerableset-in-openzeppelin-contracts/2296[forum post] for more information."
      },
      "getRoleMemberCount(bytes32)": {
        "details": "Returns the number of accounts that have `role`. Can be used together with {getRoleMember} to enumerate all bearers of a role."
      },
      "grantRole(bytes32,address)": {
        "details": "Grants `role` to `account`. If `account` had not been already granted `role`, emits a {RoleGranted} event. Requirements: - the caller must have ``role``'s admin role."
      },
      "hasRole(bytes32,address)": {
        "details": "Returns `true` if `account` has been granted `role`."
      },
      "renounceRole(bytes32,address)": {
        "details": "Revokes `role` from the calling account. Roles are often managed via {grantRole} and {revokeRole}: this function's purpose is to provide a mechanism for accounts to lose their privileges if they are compromised (such as when a trusted device is misplaced). If the calling account had been granted `role`, emits a {RoleRevoked} event. Requirements: - the caller must be `account`."
      },
      "revokeRole(bytes32,address)": {
        "details": "Revokes `role` from `account`. If `account` had been granted `role`, emits a {RoleRevoked} event. Requirements: - the caller must have ``role``'s admin role."
      }
    },
    "version": 1
  },
  "userdoc": {
    "kind": "user",
    "methods": {
      "approve(address,uint256)": {
        "notice": "The sender authorize spender to spend sender's tokens in the amount."
      },
      "burn(address,uint256)": {
        "notice": "burn a token."
      },
      "mint(address,uint256)": {
        "notice": "Issue a token."
      },
      "permit(address,address,uint256,uint256,bytes)": {
        "notice": "Authorizes the owner's token to be used by the spender as much as the value. The signature must have the owner's signature."
      },
      "transfer(address,uint256)": {
        "notice": "The sender sends the value of this token to addressTO."
      },
      "transferFrom(address,address,uint256)": {
        "notice": "The sender sends the amount of tokens from fromAddress to toAddress."
      }
    },
    "version": 1
  }
}