{
  "contractName": "SFLD",
  "abi": [
    {
      "inputs": [],
      "stateMutability": "nonpayable",
      "type": "constructor"
    },
    {
      "anonymous": false,
      "inputs": [
        {
          "indexed": true,
          "internalType": "address",
          "name": "from",
          "type": "address"
        },
        {
          "indexed": true,
          "internalType": "address",
          "name": "to",
          "type": "address"
        },
        {
          "indexed": false,
          "internalType": "uint256",
          "name": "value",
          "type": "uint256"
        }
      ],
      "name": "Approval",
      "type": "event"
    },
    {
      "anonymous": false,
      "inputs": [
        {
          "indexed": true,
          "internalType": "bytes32",
          "name": "role",
          "type": "bytes32"
        },
        {
          "indexed": true,
          "internalType": "bytes32",
          "name": "previousAdminRole",
          "type": "bytes32"
        },
        {
          "indexed": true,
          "internalType": "bytes32",
          "name": "newAdminRole",
          "type": "bytes32"
        }
      ],
      "name": "RoleAdminChanged",
      "type": "event"
    },
    {
      "anonymous": false,
      "inputs": [
        {
          "indexed": true,
          "internalType": "bytes32",
          "name": "role",
          "type": "bytes32"
        },
        {
          "indexed": true,
          "internalType": "address",
          "name": "account",
          "type": "address"
        },
        {
          "indexed": true,
          "internalType": "address",
          "name": "sender",
          "type": "address"
        }
      ],
      "name": "RoleGranted",
      "type": "event"
    },
    {
      "anonymous": false,
      "inputs": [
        {
          "indexed": true,
          "internalType": "bytes32",
          "name": "role",
          "type": "bytes32"
        },
        {
          "indexed": true,
          "internalType": "address",
          "name": "account",
          "type": "address"
        },
        {
          "indexed": true,
          "internalType": "address",
          "name": "sender",
          "type": "address"
        }
      ],
      "name": "RoleRevoked",
      "type": "event"
    },
    {
      "anonymous": false,
      "inputs": [
        {
          "indexed": true,
          "internalType": "address",
          "name": "from",
          "type": "address"
        },
        {
          "indexed": true,
          "internalType": "address",
          "name": "to",
          "type": "address"
        },
        {
          "indexed": false,
          "internalType": "uint256",
          "name": "value",
          "type": "uint256"
        }
      ],
      "name": "Transfer",
      "type": "event"
    },
    {
      "inputs": [],
      "name": "ADMIN_ROLE",
      "outputs": [
        {
          "internalType": "bytes32",
          "name": "",
          "type": "bytes32"
        }
      ],
      "stateMutability": "view",
      "type": "function"
    },
    {
      "inputs": [],
      "name": "BURNER_ROLE",
      "outputs": [
        {
          "internalType": "bytes32",
          "name": "",
          "type": "bytes32"
        }
      ],
      "stateMutability": "view",
      "type": "function"
    },
    {
      "inputs": [],
      "name": "DEFAULT_ADMIN_ROLE",
      "outputs": [
        {
          "internalType": "bytes32",
          "name": "",
          "type": "bytes32"
        }
      ],
      "stateMutability": "view",
      "type": "function"
    },
    {
      "inputs": [],
      "name": "DOMAIN_SEPARATOR",
      "outputs": [
        {
          "internalType": "bytes32",
          "name": "",
          "type": "bytes32"
        }
      ],
      "stateMutability": "view",
      "type": "function"
    },
    {
      "inputs": [],
      "name": "MINTER_ROLE",
      "outputs": [
        {
          "internalType": "bytes32",
          "name": "",
          "type": "bytes32"
        }
      ],
      "stateMutability": "view",
      "type": "function"
    },
    {
      "inputs": [],
      "name": "PERMIT_TYPEHASH",
      "outputs": [
        {
          "internalType": "bytes32",
          "name": "",
          "type": "bytes32"
        }
      ],
      "stateMutability": "view",
      "type": "function"
    },
    {
      "inputs": [
        {
          "internalType": "address",
          "name": "",
          "type": "address"
        },
        {
          "internalType": "address",
          "name": "",
          "type": "address"
        }
      ],
      "name": "allowance",
      "outputs": [
        {
          "internalType": "uint256",
          "name": "",
          "type": "uint256"
        }
      ],
      "stateMutability": "view",
      "type": "function"
    },
    {
      "inputs": [
        {
          "internalType": "address",
          "name": "",
          "type": "address"
        }
      ],
      "name": "balanceOf",
      "outputs": [
        {
          "internalType": "uint256",
          "name": "",
          "type": "uint256"
        }
      ],
      "stateMutability": "view",
      "type": "function"
    },
    {
      "inputs": [],
      "name": "decimals",
      "outputs": [
        {
          "internalType": "uint8",
          "name": "",
          "type": "uint8"
        }
      ],
      "stateMutability": "view",
      "type": "function"
    },
    {
      "inputs": [
        {
          "internalType": "bytes32",
          "name": "_messageHash",
          "type": "bytes32"
        }
      ],
      "name": "getEthSignedMessageHash",
      "outputs": [
        {
          "internalType": "bytes32",
          "name": "",
          "type": "bytes32"
        }
      ],
      "stateMutability": "pure",
      "type": "function"
    },
    {
      "inputs": [
        {
          "internalType": "address",
          "name": "_to",
          "type": "address"
        },
        {
          "internalType": "uint256",
          "name": "_amount",
          "type": "uint256"
        },
        {
          "internalType": "string",
          "name": "_message",
          "type": "string"
        },
        {
          "internalType": "uint256",
          "name": "_nonce",
          "type": "uint256"
        }
      ],
      "name": "getMessageHash",
      "outputs": [
        {
          "internalType": "bytes32",
          "name": "",
          "type": "bytes32"
        }
      ],
      "stateMutability": "pure",
      "type": "function"
    },
    {
      "inputs": [
        {
          "internalType": "address",
          "name": "_owner",
          "type": "address"
        },
        {
          "internalType": "address",
          "name": "_spender",
          "type": "address"
        },
        {
          "internalType": "uint256",
          "name": "_amount",
          "type": "uint256"
        },
        {
          "internalType": "uint256",
          "name": "_period",
          "type": "uint256"
        }
      ],
      "name": "getPermitMessageHash",
      "outputs": [
        {
          "internalType": "bytes32",
          "name": "",
          "type": "bytes32"
        }
      ],
      "stateMutability": "pure",
      "type": "function"
    },
    {
      "inputs": [
        {
          "internalType": "bytes32",
          "name": "role",
          "type": "bytes32"
        }
      ],
      "name": "getRoleAdmin",
      "outputs": [
        {
          "internalType": "bytes32",
          "name": "",
          "type": "bytes32"
        }
      ],
      "stateMutability": "view",
      "type": "function"
    },
    {
      "inputs": [
        {
          "internalType": "bytes32",
          "name": "role",
          "type": "bytes32"
        },
        {
          "internalType": "uint256",
          "name": "index",
          "type": "uint256"
        }
      ],
      "name": "getRoleMember",
      "outputs": [
        {
          "internalType": "address",
          "name": "",
          "type": "address"
        }
      ],
      "stateMutability": "view",
      "type": "function"
    },
    {
      "inputs": [
        {
          "internalType": "bytes32",
          "name": "role",
          "type": "bytes32"
        }
      ],
      "name": "getRoleMemberCount",
      "outputs": [
        {
          "internalType": "uint256",
          "name": "",
          "type": "uint256"
        }
      ],
      "stateMutability": "view",
      "type": "function"
    },
    {
      "inputs": [
        {
          "internalType": "bytes32",
          "name": "role",
          "type": "bytes32"
        },
        {
          "internalType": "address",
          "name": "account",
          "type": "address"
        }
      ],
      "name": "grantRole",
      "outputs": [],
      "stateMutability": "nonpayable",
      "type": "function"
    },
    {
      "inputs": [
        {
          "internalType": "bytes32",
          "name": "role",
          "type": "bytes32"
        },
        {
          "internalType": "address",
          "name": "account",
          "type": "address"
        }
      ],
      "name": "hasRole",
      "outputs": [
        {
          "internalType": "bool",
          "name": "",
          "type": "bool"
        }
      ],
      "stateMutability": "view",
      "type": "function"
    },
    {
      "inputs": [],
      "name": "name",
      "outputs": [
        {
          "internalType": "string",
          "name": "",
          "type": "string"
        }
      ],
      "stateMutability": "view",
      "type": "function"
    },
    {
      "inputs": [
        {
          "internalType": "address",
          "name": "",
          "type": "address"
        }
      ],
      "name": "nonces",
      "outputs": [
        {
          "internalType": "uint256",
          "name": "",
          "type": "uint256"
        }
      ],
      "stateMutability": "view",
      "type": "function"
    },
    {
      "inputs": [
        {
          "internalType": "bytes32",
          "name": "_ethSignedMessageHash",
          "type": "bytes32"
        },
        {
          "internalType": "bytes",
          "name": "_signature",
          "type": "bytes"
        }
      ],
      "name": "recoverSigner",
      "outputs": [
        {
          "internalType": "address",
          "name": "",
          "type": "address"
        }
      ],
      "stateMutability": "pure",
      "type": "function"
    },
    {
      "inputs": [
        {
          "internalType": "bytes32",
          "name": "_ethSignedMessageHash",
          "type": "bytes32"
        },
        {
          "internalType": "uint8",
          "name": "v",
          "type": "uint8"
        },
        {
          "internalType": "bytes32",
          "name": "r",
          "type": "bytes32"
        },
        {
          "internalType": "bytes32",
          "name": "s",
          "type": "bytes32"
        }
      ],
      "name": "recoverSigner2",
      "outputs": [
        {
          "internalType": "address",
          "name": "",
          "type": "address"
        }
      ],
      "stateMutability": "pure",
      "type": "function"
    },
    {
      "inputs": [
        {
          "internalType": "bytes32",
          "name": "role",
          "type": "bytes32"
        },
        {
          "internalType": "address",
          "name": "account",
          "type": "address"
        }
      ],
      "name": "renounceRole",
      "outputs": [],
      "stateMutability": "nonpayable",
      "type": "function"
    },
    {
      "inputs": [
        {
          "internalType": "bytes32",
          "name": "role",
          "type": "bytes32"
        },
        {
          "internalType": "address",
          "name": "account",
          "type": "address"
        }
      ],
      "name": "revokeRole",
      "outputs": [],
      "stateMutability": "nonpayable",
      "type": "function"
    },
    {
      "inputs": [
        {
          "internalType": "bytes",
          "name": "sig",
          "type": "bytes"
        }
      ],
      "name": "splitSignature",
      "outputs": [
        {
          "internalType": "bytes32",
          "name": "r",
          "type": "bytes32"
        },
        {
          "internalType": "bytes32",
          "name": "s",
          "type": "bytes32"
        },
        {
          "internalType": "uint8",
          "name": "v",
          "type": "uint8"
        }
      ],
      "stateMutability": "pure",
      "type": "function"
    },
    {
      "inputs": [],
      "name": "symbol",
      "outputs": [
        {
          "internalType": "string",
          "name": "",
          "type": "string"
        }
      ],
      "stateMutability": "view",
      "type": "function"
    },
    {
      "inputs": [],
      "name": "totalSupply",
      "outputs": [
        {
          "internalType": "uint256",
          "name": "",
          "type": "uint256"
        }
      ],
      "stateMutability": "view",
      "type": "function"
    },
    {
      "inputs": [
        {
          "internalType": "address",
          "name": "_signer",
          "type": "address"
        },
        {
          "internalType": "address",
          "name": "_to",
          "type": "address"
        },
        {
          "internalType": "uint256",
          "name": "_amount",
          "type": "uint256"
        },
        {
          "internalType": "string",
          "name": "_message",
          "type": "string"
        },
        {
          "internalType": "uint256",
          "name": "_nonce",
          "type": "uint256"
        },
        {
          "internalType": "bytes",
          "name": "signature",
          "type": "bytes"
        }
      ],
      "name": "verify",
      "outputs": [
        {
          "internalType": "bool",
          "name": "",
          "type": "bool"
        }
      ],
      "stateMutability": "pure",
      "type": "function"
    },
    {
      "inputs": [
        {
          "internalType": "address",
          "name": "to",
          "type": "address"
        },
        {
          "internalType": "uint256",
          "name": "amount",
          "type": "uint256"
        }
      ],
      "name": "mint",
      "outputs": [
        {
          "internalType": "bool",
          "name": "",
          "type": "bool"
        }
      ],
      "stateMutability": "nonpayable",
      "type": "function"
    },
    {
      "inputs": [
        {
          "internalType": "address",
          "name": "from",
          "type": "address"
        },
        {
          "internalType": "uint256",
          "name": "amount",
          "type": "uint256"
        }
      ],
      "name": "burn",
      "outputs": [
        {
          "internalType": "bool",
          "name": "",
          "type": "bool"
        }
      ],
      "stateMutability": "nonpayable",
      "type": "function"
    },
    {
      "inputs": [
        {
          "internalType": "address",
          "name": "spender",
          "type": "address"
        },
        {
          "internalType": "uint256",
          "name": "value",
          "type": "uint256"
        }
      ],
      "name": "approve",
      "outputs": [
        {
          "internalType": "bool",
          "name": "",
          "type": "bool"
        }
      ],
      "stateMutability": "nonpayable",
      "type": "function"
    },
    {
      "inputs": [
        {
          "internalType": "address",
          "name": "to",
          "type": "address"
        },
        {
          "internalType": "uint256",
          "name": "value",
          "type": "uint256"
        }
      ],
      "name": "transfer",
      "outputs": [
        {
          "internalType": "bool",
          "name": "",
          "type": "bool"
        }
      ],
      "stateMutability": "nonpayable",
      "type": "function"
    },
    {
      "inputs": [
        {
          "internalType": "address",
          "name": "from",
          "type": "address"
        },
        {
          "internalType": "address",
          "name": "to",
          "type": "address"
        },
        {
          "internalType": "uint256",
          "name": "value",
          "type": "uint256"
        }
      ],
      "name": "transferFrom",
      "outputs": [
        {
          "internalType": "bool",
          "name": "",
          "type": "bool"
        }
      ],
      "stateMutability": "nonpayable",
      "type": "function"
    },
    {
      "inputs": [
        {
          "internalType": "address",
          "name": "owner",
          "type": "address"
        },
        {
          "internalType": "address",
          "name": "spender",
          "type": "address"
        },
        {
          "internalType": "uint256",
          "name": "value",
          "type": "uint256"
        },
        {
          "internalType": "uint256",
          "name": "deadline",
          "type": "uint256"
        },
        {
          "internalType": "bytes",
          "name": "signature",
          "type": "bytes"
        }
      ],
      "name": "permit",
      "outputs": [],
      "stateMutability": "nonpayable",
      "type": "function"
    }
  ],
  "bytecode": "0x60806040523480156200001157600080fd5b5060408051808201825260048082526314d1931160e21b6020928301528251808401845260018152603160f81b9083015282517f8b73c3c69bb8fe3d512ecc4cf759cc79239f7b179b0ffacaa9a75d522b39400f818401527fa5a4d97e9d7c4cc88f431e590e0c80dfd4ce9021b7dcde66d70d67656bb8f3d4818501527fc89efdaa54c0f20c7adf612882df0950f5a951637e0307cdcb4c672f298b8bc6606082015246608082018190523060a0808401919091528551808403909101815260c090920190945280519201919091209055620000fd60008051602062001b2d83398151915280620001cb565b6200011860008051602062001b2d833981519152336200021d565b620001537f9667e80708b6eeeb0053fa0cca44e028ff548e2a9f029edfeac87c118b08b7c860008051602062001b2d833981519152620001cb565b6200017d60008051602062001b0d83398151915260008051602062001b2d833981519152620001cb565b620001a97f9667e80708b6eeeb0053fa0cca44e028ff548e2a9f029edfeac87c118b08b7c8336200021d565b620001c460008051602062001b0d833981519152336200021d565b5062000331565b600082815260208190526040808220600201549051839285917fbd79b86ffe0ab8e8776151514217cd7cacd52c909f66475c3af44e129f0b00ff9190a460009182526020829052604090912060020155565b6200022982826200022d565b5050565b6000828152602081815260409091206200025291839062001299620002a6821b17901c565b15620002295762000262620002c6565b6001600160a01b0316816001600160a01b0316837f2f8788117e7eff1d82e926ec794901d17c78024a50270940304540a733656f0d60405160405180910390a45050565b6000620002bd836001600160a01b038416620002ca565b90505b92915050565b3390565b6000620002d8838362000319565b6200031057508154600181810184556000848152602080822090930184905584548482528286019093526040902091909155620002c0565b506000620002c0565b60009081526001919091016020526040902054151590565b6117cc80620003416000396000f3fe608060405234801561001057600080fd5b50600436106101fb5760003560e01c80639010d07c1161011a578063a7bb5803116100ad578063ca15c8731161007c578063ca15c873146109b8578063d5391393146109d5578063d547741f146109dd578063dd62ed3e14610a09578063fa54080114610a37576101fb565b8063a7bb580314610744578063a9059cbb14610809578063abe5026a14610835578063bdb33d4814610986576101fb565b80639dc29fac116100e95780639dc29fac1461058c5780639fd5a6cf146105b8578063a217fddf14610681578063a35f8a4014610689576101fb565b80639010d07c1461047657806391d14854146104b557806395d89b411461020057806397aba7f9146104e1576101fb565b8063313ce5671161019257806349195b311161016157806349195b31146103e657806370a082311461042257806375b238fc146104485780637ecebe0014610450576101fb565b8063313ce567146103685780633644e5151461038657806336568abe1461038e57806340c10f19146103ba576101fb565b8063248a9ca3116101ce578063248a9ca31461030d578063282c51f31461032a5780632f2ff15d1461033257806330adf81f14610360576101fb565b806306fdde0314610200578063095ea7b31461027d57806318160ddd146102bd57806323b872dd146102d7575b600080fd5b610208610a54565b6040805160208082528351818301528351919283929083019185019080838360005b8381101561024257818101518382015260200161022a565b50505050905090810190601f16801561026f5780820380516001836020036101000a031916815260200191505b509250505060405180910390f35b6102a96004803603604081101561029357600080fd5b506001600160a01b038135169060200135610a74565b604080519115158252519081900360200190f35b6102c5610a8b565b60408051918252519081900360200190f35b6102a9600480360360608110156102ed57600080fd5b506001600160a01b03813581169160208101359091169060400135610a91565b6102c56004803603602081101561032357600080fd5b5035610afd565b6102c5610b12565b61035e6004803603604081101561034857600080fd5b50803590602001356001600160a01b0316610b36565b005b6102c5610ba2565b610370610bc6565b6040805160ff9092168252519081900360200190f35b6102c5610bcb565b61035e600480360360408110156103a457600080fd5b50803590602001356001600160a01b0316610bd1565b6102a9600480360360408110156103d057600080fd5b506001600160a01b038135169060200135610c32565b6102c5600480360360808110156103fc57600080fd5b506001600160a01b03813581169160208101359091169060408101359060600135610cb9565b6102c56004803603602081101561043857600080fd5b50356001600160a01b0316610d37565b6102c5610d49565b6102c56004803603602081101561046657600080fd5b50356001600160a01b0316610d6d565b6104996004803603604081101561048c57600080fd5b5080359060200135610d7f565b604080516001600160a01b039092168252519081900360200190f35b6102a9600480360360408110156104cb57600080fd5b50803590602001356001600160a01b0316610d9e565b610499600480360360408110156104f757600080fd5b81359190810190604081016020820135600160201b81111561051857600080fd5b82018360208201111561052a57600080fd5b803590602001918460018302840111600160201b8311171561054b57600080fd5b91908080601f016020809104026020016040519081016040528093929190818152602001838380828437600092019190915250929550610db6945050505050565b6102a9600480360360408110156105a257600080fd5b506001600160a01b038135169060200135610e3a565b61035e600480360360a08110156105ce57600080fd5b6001600160a01b03823581169260208101359091169160408201359160608101359181019060a081016080820135600160201b81111561060d57600080fd5b82018360208201111561061f57600080fd5b803590602001918460018302840111600160201b8311171561064057600080fd5b91908080601f016020809104026020016040519081016040528093929190818152602001838380828437600092019190915250929550610ec1945050505050565b6102c5610fc0565b6102c56004803603608081101561069f57600080fd5b6001600160a01b0382351691602081013591810190606081016040820135600160201b8111156106ce57600080fd5b8201836020820111156106e057600080fd5b803590602001918460018302840111600160201b8311171561070157600080fd5b91908080601f0160208091040260200160405190810160405280939291908181526020018383808284376000920191909152509295505091359250610fc5915050565b6107e86004803603602081101561075a57600080fd5b810190602081018135600160201b81111561077457600080fd5b82018360208201111561078657600080fd5b803590602001918460018302840111600160201b831117156107a757600080fd5b91908080601f016020809104026020016040519081016040528093929190818152602001838380828437600092019190915250929550611058945050505050565b60408051938452602084019290925260ff1682820152519081900360600190f35b6102a96004803603604081101561081f57600080fd5b506001600160a01b0381351690602001356110d1565b6102a9600480360360c081101561084b57600080fd5b6001600160a01b03823581169260208101359091169160408201359190810190608081016060820135600160201b81111561088557600080fd5b82018360208201111561089757600080fd5b803590602001918460018302840111600160201b831117156108b857600080fd5b91908080601f01602080910402602001604051908101604052809392919081815260200183838082843760009201919091525092958435959094909350604081019250602001359050600160201b81111561091257600080fd5b82018360208201111561092457600080fd5b803590602001918460018302840111600160201b8311171561094557600080fd5b91908080601f0160208091040260200160405190810160405280939291908181526020018383808284376000920191909152509295506110de945050505050565b6104996004803603608081101561099c57600080fd5b5080359060ff6020820135169060408101359060600135611127565b6102c5600480360360208110156109ce57600080fd5b5035611197565b6102c56111ae565b61035e600480360360408110156109f357600080fd5b50803590602001356001600160a01b03166111d2565b6102c560048036036040811015610a1f57600080fd5b506001600160a01b038135811691602001351661122b565b6102c560048036036020811015610a4d57600080fd5b5035611248565b6040518060400160405280600481526020016314d1931160e21b81525081565b6000610a813384846112ae565b5060015b92915050565b60015481565b6001600160a01b038316600090815260036020908152604080832033845290915281205460001914610ae8576001600160a01b03841660009081526003602090815260408083203384529091529020805483900390555b610af3848484611310565b5060019392505050565b60009081526020819052604090206002015490565b7f9667e80708b6eeeb0053fa0cca44e028ff548e2a9f029edfeac87c118b08b7c881565b600082815260208190526040902060020154610b5990610b5461137c565b610d9e565b610b945760405162461bcd60e51b815260040180806020018281038252602f815260200180611709602f913960400191505060405180910390fd5b610b9e8282611380565b5050565b7f6e71edae12b1b97f4d1f60370fef10105fa2faae0126114a169c64845d6126c981565b601281565b60045481565b610bd961137c565b6001600160a01b0316816001600160a01b031614610c285760405162461bcd60e51b815260040180806020018281038252602f815260200180611768602f913960400191505060405180910390fd5b610b9e82826113e9565b6000610c5e7ff0887ba65ee2024ea881d91b74c2450ef19e1557f03bed3ea9f16b037cbe2dc933610d9e565b610caf576040805162461bcd60e51b815260206004820152601c60248201527f53464c443a2043616c6c6572206973206e6f742061206d696e74657200000000604482015290519081900360640190fd5b610a818383611452565b604080517f6e71edae12b1b97f4d1f60370fef10105fa2faae0126114a169c64845d6126c96020808301919091526bffffffffffffffffffffffff19606088811b82168486015287901b1660548301526068820185905260888083018590528351808403909101815260a89092019092528051910120949350505050565b60026020526000908152604090205481565b7fdf8b4c520ffe197c5343c6f5aec59570151ef9a492f2c624fd45ddde6135ec4281565b60056020526000908152604090205481565b6000828152602081905260408120610d9790836114b1565b9392505050565b6000828152602081905260408120610d9790836114bd565b600080600080610dc585611058565b92509250925060018682858560405160008152602001604052604051808581526020018460ff1681526020018381526020018281526020019450505050506020604051602081039080840390855afa158015610e25573d6000803e3d6000fd5b5050604051601f190151979650505050505050565b6000610e667f9667e80708b6eeeb0053fa0cca44e028ff548e2a9f029edfeac87c118b08b7c833610d9e565b610eb7576040805162461bcd60e51b815260206004820152601c60248201527f53464c443a2043616c6c6572206973206e6f742061206275726e657200000000604482015290519081900360640190fd5b610a8183836114d2565b42821015610f06576040805162461bcd60e51b815260206004820152600d60248201526c14d193110e8811561412549151609a1b604482015290519081900360640190fd5b6000610f1486868686610cb9565b90506000610f2182611248565b90506000610f2f8285610db6565b90506001600160a01b03811615801590610f5a5750876001600160a01b0316816001600160a01b0316145b610fab576040805162461bcd60e51b815260206004820152601760248201527f53464c443a20494e56414c49445f5349474e4154555245000000000000000000604482015290519081900360640190fd5b610fb68888886112ae565b5050505050505050565b600081565b60008484848460405160200180856001600160a01b031660601b815260140184815260200183805190602001908083835b602083106110155780518252601f199092019160209182019101610ff6565b51815160209384036101000a6000190180199092169116179052920193845250604080518085038152938201905282519201919091209998505050505050505050565b600080600083516041146110b3576040805162461bcd60e51b815260206004820152601860248201527f696e76616c6964207369676e6174757265206c656e6774680000000000000000604482015290519081900360640190fd5b50505060208101516040820151606090920151909260009190911a90565b6000610a81338484611310565b6000806110ed87878787610fc5565b905060006110fa82611248565b9050886001600160a01b03166111108286610db6565b6001600160a01b0316149998505050505050505050565b600060018585858560405160008152602001604052604051808581526020018460ff1681526020018381526020018281526020019450505050506020604051602081039080840390855afa158015611183573d6000803e3d6000fd5b5050604051601f1901519695505050505050565b6000818152602081905260408120610a8590611536565b7ff0887ba65ee2024ea881d91b74c2450ef19e1557f03bed3ea9f16b037cbe2dc981565b6000828152602081905260409020600201546111f090610b5461137c565b610c285760405162461bcd60e51b81526004018080602001828103825260308152602001806117386030913960400191505060405180910390fd5b600360209081526000928352604080842090915290825290205481565b604080517f19457468657265756d205369676e6564204d6573736167653a0a333200000000602080830191909152603c8083019490945282518083039094018452605c909101909152815191012090565b6000610d97836001600160a01b038416611541565b6001600160a01b03808416600081815260036020908152604080832094871680845294825291829020859055815185815291517f8c5be1e5ebec7d5bd14f71427d1e84f3dd0314c0f7b2291e5b200ac8c7c3b9259281900390910190a3505050565b6001600160a01b03808416600081815260026020908152604080832080548790039055938616808352918490208054860190558351858152935191937fddf252ad1be2c89b69c2b068fc378daa952ba7f163c4a11628f55a4df523b3ef929081900390910190a3505050565b3390565b60008281526020819052604090206113989082611299565b15610b9e576113a561137c565b6001600160a01b0316816001600160a01b0316837f2f8788117e7eff1d82e926ec794901d17c78024a50270940304540a733656f0d60405160405180910390a45050565b6000828152602081905260409020611401908261158b565b15610b9e5761140e61137c565b6001600160a01b0316816001600160a01b0316837ff6391f5c32d9c69d2a47ea670b442974b53935d1edc7fd64eb21e047a839171b60405160405180910390a45050565b60018054820190556001600160a01b0382166000818152600260209081526040808320805486019055805185815290517fddf252ad1be2c89b69c2b068fc378daa952ba7f163c4a11628f55a4df523b3ef929181900390910190a35050565b6000610d9783836115a0565b6000610d97836001600160a01b038416611604565b6001600160a01b038216600081815260026020908152604080832080548690039055600180548690039055805185815290519293927fddf252ad1be2c89b69c2b068fc378daa952ba7f163c4a11628f55a4df523b3ef929181900390910190a35050565b6000610a858261161c565b600061154d8383611604565b61158357508154600181810184556000848152602080822090930184905584548482528286019093526040902091909155610a85565b506000610a85565b6000610d97836001600160a01b038416611620565b815460009082106115e25760405162461bcd60e51b81526004018080602001828103825260228152602001806116e76022913960400191505060405180910390fd5b8260000182815481106115f157fe5b9060005260206000200154905092915050565b60009081526001919091016020526040902054151590565b5490565b600081815260018301602052604081205480156116dc578354600019808301919081019060009087908390811061165357fe5b906000526020600020015490508087600001848154811061167057fe5b6000918252602080832090910192909255828152600189810190925260409020908401905586548790806116a057fe5b60019003818190600052602060002001600090559055866001016000878152602001908152602001600020600090556001945050505050610a85565b6000915050610a8556fe456e756d657261626c655365743a20696e646578206f7574206f6620626f756e6473416363657373436f6e74726f6c3a2073656e646572206d75737420626520616e2061646d696e20746f206772616e74416363657373436f6e74726f6c3a2073656e646572206d75737420626520616e2061646d696e20746f207265766f6b65416363657373436f6e74726f6c3a2063616e206f6e6c792072656e6f756e636520726f6c657320666f722073656c66a264697066735822122037a9c548604575afbd696308894a962ae0a3e3a20db144da446d75de704fd06e64736f6c63430007060033f0887ba65ee2024ea881d91b74c2450ef19e1557f03bed3ea9f16b037cbe2dc9df8b4c520ffe197c5343c6f5aec59570151ef9a492f2c624fd45ddde6135ec42",
  "immutableReferences": {},
  "source": "//SPDX-License-Identifier: Unlicense\npragma solidity ^0.7.6;\n\nimport \"../interfaces/IFLD.sol\";\nimport \"@openzeppelin/contracts/access/AccessControl.sol\";\nimport \"./VerifySignature.sol\";\n\ncontract SFLD is IFLD, AccessControl, VerifySignature {\n    bytes32 public constant ADMIN_ROLE = keccak256(\"ADMIN\");\n    bytes32 public constant MINTER_ROLE = keccak256(\"MINTER\");\n    bytes32 public constant BURNER_ROLE = keccak256(\"BURNER\");\n\n    string public constant override name = \"SFLD\";\n    string public constant override symbol = \"SFLD\";\n    uint8 public constant override decimals = 18;\n    uint256 public override totalSupply;\n    mapping(address => uint256) public override balanceOf;\n    mapping(address => mapping(address => uint256)) public override allowance;\n\n    bytes32 public override DOMAIN_SEPARATOR;\n    // keccak256(\"Permit(address owner,address spender,uint256 value,uint256 nonce,uint256 deadline)\");\n    // solhint-disable-next-line\n    //bytes32 public constant override PERMIT_TYPEHASH = 0x6e71edae12b1b97f4d1f60370fef10105fa2faae0126114a169c64845d6126c9;\n    mapping(address => uint256) public override nonces;\n\n    event Approval(address indexed from, address indexed to, uint256 value);\n    event Transfer(address indexed from, address indexed to, uint256 value);\n\n    modifier onlyOwner() {\n        require(\n            hasRole(ADMIN_ROLE, msg.sender),\n            \"SFLD: Caller is not an admin\"\n        );\n        _;\n    }\n\n    constructor() {\n        uint256 chainId;\n        assembly {\n            chainId := chainid()\n        }\n        DOMAIN_SEPARATOR = keccak256(\n            abi.encode(\n                keccak256(\n                    \"EIP712Domain(string name,string version,uint256 chainId,address verifyingContract)\"\n                ),\n                keccak256(bytes(name)),\n                keccak256(bytes(\"1\")),\n                chainId,\n                address(this)\n            )\n        );\n        _setRoleAdmin(ADMIN_ROLE, ADMIN_ROLE);\n        _setupRole(ADMIN_ROLE, msg.sender);\n\n        _setRoleAdmin(BURNER_ROLE, ADMIN_ROLE);\n        _setRoleAdmin(MINTER_ROLE, ADMIN_ROLE);\n\n        _setupRole(BURNER_ROLE, msg.sender);\n        _setupRole(MINTER_ROLE, msg.sender);\n    }\n\n    function _mint(address to, uint256 value) internal {\n        totalSupply += value;\n        balanceOf[to] += value;\n        emit Transfer(address(0), to, value);\n    }\n\n    function _burn(address from, uint256 value) internal {\n        balanceOf[from] -= value;\n        totalSupply -= value;\n        emit Transfer(from, address(0), value);\n    }\n\n    function _approve(\n        address owner,\n        address spender,\n        uint256 value\n    ) private {\n        allowance[owner][spender] = value;\n        emit Approval(owner, spender, value);\n    }\n\n    function _transfer(\n        address from,\n        address to,\n        uint256 value\n    ) private {\n        balanceOf[from] -= value;\n        balanceOf[to] += value;\n        emit Transfer(from, to, value);\n    }\n\n    /**\n     * Issue a token.\n     */\n    function mint(address to, uint256 amount) external override returns (bool) {\n        require(\n            hasRole(MINTER_ROLE, msg.sender),\n            \"SFLD: Caller is not a minter\"\n        );\n        _mint(to, amount);\n        return true;\n    }\n\n    /**\n     * burn a token.\n     */\n    function burn(address from, uint256 amount)\n        external\n        override\n        returns (bool)\n    {\n        require(\n            hasRole(BURNER_ROLE, msg.sender),\n            \"SFLD: Caller is not a burner\"\n        );\n        _burn(from, amount);\n        return true;\n    }\n\n    /**\n     * The sender authorize spender to spend sender's tokens in the amount.\n     */\n    function approve(address spender, uint256 value)\n        external\n        override\n        returns (bool)\n    {\n        _approve(msg.sender, spender, value);\n        return true;\n    }\n\n    /**\n     * The sender sends the value of this token to addressTO.\n     */\n    function transfer(address to, uint256 value)\n        external\n        override\n        returns (bool)\n    {\n        _transfer(msg.sender, to, value);\n        return true;\n    }\n\n    /**\n     * The sender sends the amount of tokens from fromAddress to toAddress.\n     */\n    function transferFrom(\n        address from,\n        address to,\n        uint256 value\n    ) external override returns (bool) {\n        if (allowance[from][msg.sender] != uint256(-1)) {\n            allowance[from][msg.sender] -= value;\n        }\n        _transfer(from, to, value);\n        return true;\n    }\n\n    /**\n     * Authorizes the owner's token to be used by the spender as much as the value.\n     * The signature must have the owner's signature.\n     */\n    function permit(\n        address owner,\n        address spender,\n        uint256 value,\n        uint256 deadline,\n        bytes memory signature\n    ) external override {\n        require(deadline >= block.timestamp, \"SFLD: EXPIRED\");\n        bytes32 messageHash =\n            getPermitMessageHash(owner, spender, value, deadline);\n        bytes32 ethSignedMessageHash = getEthSignedMessageHash(messageHash);\n        address recoveredAddress =\n            recoverSigner(ethSignedMessageHash, signature);\n        require(\n            recoveredAddress != address(0) && recoveredAddress == owner,\n            \"SFLD: INVALID_SIGNATURE\"\n        );\n        _approve(owner, spender, value);\n    }\n}\n",
  "sourcePath": "/Users/kadyrbeknarmamatov/code/ico20-contracts/contracts/tokens/sFLD.sol",
  "compiler": {
    "name": "solc",
    "version": "0.7.6+commit.7338295f.Emscripten.clang"
  },
  "schemaVersion": "3.4.0",
  "updatedAt": "2021-05-18T08:31:00.211Z",
  "devdoc": {
    "kind": "dev",
    "methods": {
      "getRoleAdmin(bytes32)": {
        "details": "Returns the admin role that controls `role`. See {grantRole} and {revokeRole}. To change a role's admin, use {_setRoleAdmin}."
      },
      "getRoleMember(bytes32,uint256)": {
        "details": "Returns one of the accounts that have `role`. `index` must be a value between 0 and {getRoleMemberCount}, non-inclusive. Role bearers are not sorted in any particular way, and their ordering may change at any point. WARNING: When using {getRoleMember} and {getRoleMemberCount}, make sure you perform all queries on the same block. See the following https://forum.openzeppelin.com/t/iterating-over-elements-on-enumerableset-in-openzeppelin-contracts/2296[forum post] for more information."
      },
      "getRoleMemberCount(bytes32)": {
        "details": "Returns the number of accounts that have `role`. Can be used together with {getRoleMember} to enumerate all bearers of a role."
      },
      "grantRole(bytes32,address)": {
        "details": "Grants `role` to `account`. If `account` had not been already granted `role`, emits a {RoleGranted} event. Requirements: - the caller must have ``role``'s admin role."
      },
      "hasRole(bytes32,address)": {
        "details": "Returns `true` if `account` has been granted `role`."
      },
      "renounceRole(bytes32,address)": {
        "details": "Revokes `role` from the calling account. Roles are often managed via {grantRole} and {revokeRole}: this function's purpose is to provide a mechanism for accounts to lose their privileges if they are compromised (such as when a trusted device is misplaced). If the calling account had been granted `role`, emits a {RoleRevoked} event. Requirements: - the caller must be `account`."
      },
      "revokeRole(bytes32,address)": {
        "details": "Revokes `role` from `account`. If `account` had been granted `role`, emits a {RoleRevoked} event. Requirements: - the caller must have ``role``'s admin role."
      }
    },
    "version": 1
  },
  "userdoc": {
    "kind": "user",
    "methods": {
      "approve(address,uint256)": {
        "notice": "The sender authorize spender to spend sender's tokens in the amount."
      },
      "burn(address,uint256)": {
        "notice": "burn a token."
      },
      "mint(address,uint256)": {
        "notice": "Issue a token."
      },
      "permit(address,address,uint256,uint256,bytes)": {
        "notice": "Authorizes the owner's token to be used by the spender as much as the value. The signature must have the owner's signature."
      },
      "transfer(address,uint256)": {
        "notice": "The sender sends the value of this token to addressTO."
      },
      "transferFrom(address,address,uint256)": {
        "notice": "The sender sends the amount of tokens from fromAddress to toAddress."
      }
    },
    "version": 1
  }
}