{
  "contractName": "SimpleStakeStorage",
  "abi": [
    {
      "anonymous": false,
      "inputs": [
        {
          "indexed": true,
          "internalType": "bytes32",
          "name": "role",
          "type": "bytes32"
        },
        {
          "indexed": true,
          "internalType": "bytes32",
          "name": "previousAdminRole",
          "type": "bytes32"
        },
        {
          "indexed": true,
          "internalType": "bytes32",
          "name": "newAdminRole",
          "type": "bytes32"
        }
      ],
      "name": "RoleAdminChanged",
      "type": "event"
    },
    {
      "anonymous": false,
      "inputs": [
        {
          "indexed": true,
          "internalType": "bytes32",
          "name": "role",
          "type": "bytes32"
        },
        {
          "indexed": true,
          "internalType": "address",
          "name": "account",
          "type": "address"
        },
        {
          "indexed": true,
          "internalType": "address",
          "name": "sender",
          "type": "address"
        }
      ],
      "name": "RoleGranted",
      "type": "event"
    },
    {
      "anonymous": false,
      "inputs": [
        {
          "indexed": true,
          "internalType": "bytes32",
          "name": "role",
          "type": "bytes32"
        },
        {
          "indexed": true,
          "internalType": "address",
          "name": "account",
          "type": "address"
        },
        {
          "indexed": true,
          "internalType": "address",
          "name": "sender",
          "type": "address"
        }
      ],
      "name": "RoleRevoked",
      "type": "event"
    },
    {
      "inputs": [],
      "name": "ADMIN_ROLE",
      "outputs": [
        {
          "internalType": "bytes32",
          "name": "",
          "type": "bytes32"
        }
      ],
      "stateMutability": "view",
      "type": "function"
    },
    {
      "inputs": [],
      "name": "DEFAULT_ADMIN_ROLE",
      "outputs": [
        {
          "internalType": "bytes32",
          "name": "",
          "type": "bytes32"
        }
      ],
      "stateMutability": "view",
      "type": "function"
    },
    {
      "inputs": [
        {
          "internalType": "address",
          "name": "",
          "type": "address"
        }
      ],
      "name": "Mediator",
      "outputs": [
        {
          "internalType": "address",
          "name": "",
          "type": "address"
        }
      ],
      "stateMutability": "view",
      "type": "function"
    },
    {
      "inputs": [],
      "name": "WITHDRAWAL_DELAY_SECONDS",
      "outputs": [
        {
          "internalType": "uint256",
          "name": "",
          "type": "uint256"
        }
      ],
      "stateMutability": "view",
      "type": "function"
    },
    {
      "inputs": [],
      "name": "fld",
      "outputs": [
        {
          "internalType": "contract IFLD",
          "name": "",
          "type": "address"
        }
      ],
      "stateMutability": "view",
      "type": "function"
    },
    {
      "inputs": [],
      "name": "fldVault",
      "outputs": [
        {
          "internalType": "contract IFLDVault",
          "name": "",
          "type": "address"
        }
      ],
      "stateMutability": "view",
      "type": "function"
    },
    {
      "inputs": [
        {
          "internalType": "bytes32",
          "name": "role",
          "type": "bytes32"
        }
      ],
      "name": "getRoleAdmin",
      "outputs": [
        {
          "internalType": "bytes32",
          "name": "",
          "type": "bytes32"
        }
      ],
      "stateMutability": "view",
      "type": "function"
    },
    {
      "inputs": [
        {
          "internalType": "bytes32",
          "name": "role",
          "type": "bytes32"
        },
        {
          "internalType": "uint256",
          "name": "index",
          "type": "uint256"
        }
      ],
      "name": "getRoleMember",
      "outputs": [
        {
          "internalType": "address",
          "name": "",
          "type": "address"
        }
      ],
      "stateMutability": "view",
      "type": "function"
    },
    {
      "inputs": [
        {
          "internalType": "bytes32",
          "name": "role",
          "type": "bytes32"
        }
      ],
      "name": "getRoleMemberCount",
      "outputs": [
        {
          "internalType": "uint256",
          "name": "",
          "type": "uint256"
        }
      ],
      "stateMutability": "view",
      "type": "function"
    },
    {
      "inputs": [
        {
          "internalType": "bytes32",
          "name": "role",
          "type": "bytes32"
        },
        {
          "internalType": "address",
          "name": "account",
          "type": "address"
        }
      ],
      "name": "grantRole",
      "outputs": [],
      "stateMutability": "nonpayable",
      "type": "function"
    },
    {
      "inputs": [
        {
          "internalType": "bytes32",
          "name": "role",
          "type": "bytes32"
        },
        {
          "internalType": "address",
          "name": "account",
          "type": "address"
        }
      ],
      "name": "hasRole",
      "outputs": [
        {
          "internalType": "bool",
          "name": "",
          "type": "bool"
        }
      ],
      "stateMutability": "view",
      "type": "function"
    },
    {
      "inputs": [],
      "name": "interestRatePerYear",
      "outputs": [
        {
          "internalType": "uint256",
          "name": "interestRate",
          "type": "uint256"
        },
        {
          "internalType": "uint256",
          "name": "totalBlocks",
          "type": "uint256"
        }
      ],
      "stateMutability": "view",
      "type": "function"
    },
    {
      "inputs": [
        {
          "internalType": "bytes32",
          "name": "role",
          "type": "bytes32"
        },
        {
          "internalType": "address",
          "name": "account",
          "type": "address"
        }
      ],
      "name": "renounceRole",
      "outputs": [],
      "stateMutability": "nonpayable",
      "type": "function"
    },
    {
      "inputs": [
        {
          "internalType": "bytes32",
          "name": "role",
          "type": "bytes32"
        },
        {
          "internalType": "address",
          "name": "account",
          "type": "address"
        }
      ],
      "name": "revokeRole",
      "outputs": [],
      "stateMutability": "nonpayable",
      "type": "function"
    },
    {
      "inputs": [
        {
          "internalType": "address",
          "name": "",
          "type": "address"
        }
      ],
      "name": "tokenCummRewards",
      "outputs": [
        {
          "internalType": "uint256",
          "name": "",
          "type": "uint256"
        }
      ],
      "stateMutability": "view",
      "type": "function"
    },
    {
      "inputs": [
        {
          "internalType": "address",
          "name": "",
          "type": "address"
        }
      ],
      "name": "tokenTotalStaked",
      "outputs": [
        {
          "internalType": "uint256",
          "name": "",
          "type": "uint256"
        }
      ],
      "stateMutability": "view",
      "type": "function"
    }
  ],
  "bytecode": "0x608060405262127500600555600160065534801561001c57600080fd5b506108d38061002c6000396000f3fe608060405234801561001057600080fd5b50600436106101005760003560e01c80639010d07c11610097578063bb82298111610066578063bb8229811461029f578063c6060044146102c0578063ca15c873146102c8578063d547741f146102e557610100565b80639010d07c1461020e57806391d14854146102315780639afe467e14610271578063a217fddf1461029757610100565b80634302a2f2116100d35780634302a2f2146101b25780636ed84cec146101d85780636ef28e0f146101fe57806375b238fc1461020657610100565b8063248a9ca3146101055780632f2ff15d1461013457806333bd2a491461016257806336568abe14610186575b600080fd5b6101226004803603602081101561011b57600080fd5b5035610311565b60408051918252519081900360200190f35b6101606004803603604081101561014a57600080fd5b50803590602001356001600160a01b0316610326565b005b61016a610392565b604080516001600160a01b039092168252519081900360200190f35b6101606004803603604081101561019c57600080fd5b50803590602001356001600160a01b03166103a1565b610122600480360360208110156101c857600080fd5b50356001600160a01b0316610402565b610122600480360360208110156101ee57600080fd5b50356001600160a01b0316610414565b610122610426565b61012261042c565b61016a6004803603604081101561022457600080fd5b5080359060200135610450565b61025d6004803603604081101561024757600080fd5b50803590602001356001600160a01b0316610471565b604080519115158252519081900360200190f35b61016a6004803603602081101561028757600080fd5b50356001600160a01b0316610489565b6101226104a4565b6102a76104a9565b6040805192835260208301919091528051918290030190f35b61016a6104b2565b610122600480360360208110156102de57600080fd5b50356104c1565b610160600480360360408110156102fb57600080fd5b50803590602001356001600160a01b03166104d8565b60009081526020819052604090206002015490565b60008281526020819052604090206002015461034990610344610531565b610471565b6103845760405162461bcd60e51b815260040180806020018281038252602f815260200180610810602f913960400191505060405180910390fd5b61038e8282610535565b5050565b6001546001600160a01b031681565b6103a9610531565b6001600160a01b0316816001600160a01b0316146103f85760405162461bcd60e51b815260040180806020018281038252602f81526020018061086f602f913960400191505060405180910390fd5b61038e828261059e565b600a6020526000908152604090205481565b60096020526000908152604090205481565b60055481565b7fdf8b4c520ffe197c5343c6f5aec59570151ef9a492f2c624fd45ddde6135ec4281565b60008281526020819052604081206104689083610607565b90505b92915050565b60008281526020819052604081206104689083610613565b600b602052600090815260409020546001600160a01b031681565b600081565b60035460045482565b6002546001600160a01b031681565b600081815260208190526040812061046b90610628565b6000828152602081905260409020600201546104f690610344610531565b6103f85760405162461bcd60e51b815260040180806020018281038252603081526020018061083f6030913960400191505060405180910390fd5b3390565b600082815260208190526040902061054d9082610633565b1561038e5761055a610531565b6001600160a01b0316816001600160a01b0316837f2f8788117e7eff1d82e926ec794901d17c78024a50270940304540a733656f0d60405160405180910390a45050565b60008281526020819052604090206105b69082610648565b1561038e576105c3610531565b6001600160a01b0316816001600160a01b0316837ff6391f5c32d9c69d2a47ea670b442974b53935d1edc7fd64eb21e047a839171b60405160405180910390a45050565b6000610468838361065d565b6000610468836001600160a01b0384166106c1565b600061046b826106d9565b6000610468836001600160a01b0384166106dd565b6000610468836001600160a01b038416610727565b8154600090821061069f5760405162461bcd60e51b81526004018080602001828103825260228152602001806107ee6022913960400191505060405180910390fd5b8260000182815481106106ae57fe5b9060005260206000200154905092915050565b60009081526001919091016020526040902054151590565b5490565b60006106e983836106c1565b61071f5750815460018181018455600084815260208082209093018490558454848252828601909352604090209190915561046b565b50600061046b565b600081815260018301602052604081205480156107e3578354600019808301919081019060009087908390811061075a57fe5b906000526020600020015490508087600001848154811061077757fe5b6000918252602080832090910192909255828152600189810190925260409020908401905586548790806107a757fe5b6001900381819060005260206000200160009055905586600101600087815260200190815260200160002060009055600194505050505061046b565b600091505061046b56fe456e756d657261626c655365743a20696e646578206f7574206f6620626f756e6473416363657373436f6e74726f6c3a2073656e646572206d75737420626520616e2061646d696e20746f206772616e74416363657373436f6e74726f6c3a2073656e646572206d75737420626520616e2061646d696e20746f207265766f6b65416363657373436f6e74726f6c3a2063616e206f6e6c792072656e6f756e636520726f6c657320666f722073656c66a26469706673582212206f77dd44e696b9e7d7ad029722a77c9b3da575fa0fdcf928700a27dcdef11be064736f6c63430007060033",
  "immutableReferences": {},
  "source": "//SPDX-License-Identifier: Unlicense\npragma solidity ^0.7.0;\n\nimport \"../interfaces/IFLD.sol\";\nimport \"../interfaces/IFLDVault.sol\";\nimport \"../libraries/LibSimpleStake.sol\";\nimport \"@openzeppelin/contracts/access/AccessControl.sol\";\n\ncontract SimpleStakeStorage\n    is AccessControl\n{\n    bytes32 public constant ADMIN_ROLE = keccak256(\"ADMIN\");\n    IFLD public fld;\n    IFLDVault public fldVault;\n    LibSimpleStake.AnnualInterestRateInfo public interestRatePerYear;\n    uint256 public WITHDRAWAL_DELAY_SECONDS = 60 * 60 * 24 * 14; // 14 days\n    uint private unlocked = 1;\n\n    //allowed token addresses\n    mapping(address => LibSimpleStake.TokenInfo) internal _allowedTokens;\n    //address[] public allowedTokenList;\n\n    //tokenAddr to user to stake amount\n    mapping(address => mapping(address => LibSimpleStake.StakingInfo)) internal _StakeMap;\n\n    //tokenAddr to user to remaining claimable amount per stake\n    //mapping(address => mapping(address => uint256)) internal _userCummRewardPerStake;\n    //tokenAddr to cummulative per token reward since the beginning or time\n    //mapping (address => uint256) public tokenCummRewardPerStake;\n    mapping(address => uint256) public tokenCummRewards;\n\n    //tokenAddr to total token claimed\n    mapping(address => uint256) public tokenTotalStaked;\n\n    mapping(address => address) public Mediator;\n\n    /*\n    constructor(\n        address _fld,\n        address _fldVault\n    )\n        external\n    {\n        require(_fld != address(0));\n        fld = IFLD(_fld);\n        fldVault = IFLDVault(_fldVault);\n\n        _setupRole(DEFAULT_ADMIN_ROLE, msg.sender);\n    }\n    */\n\n}\n",
  "sourcePath": "/Users/zena/ico2.0/fld-v1/contracts/stake/SimpleStakeStorage.sol",
  "compiler": {
    "name": "solc",
    "version": "0.7.6+commit.7338295f.Emscripten.clang"
  },
  "schemaVersion": "3.3.4",
  "updatedAt": "2021-04-15T10:12:22.856Z",
  "devdoc": {
    "kind": "dev",
    "methods": {
      "getRoleAdmin(bytes32)": {
        "details": "Returns the admin role that controls `role`. See {grantRole} and {revokeRole}. To change a role's admin, use {_setRoleAdmin}."
      },
      "getRoleMember(bytes32,uint256)": {
        "details": "Returns one of the accounts that have `role`. `index` must be a value between 0 and {getRoleMemberCount}, non-inclusive. Role bearers are not sorted in any particular way, and their ordering may change at any point. WARNING: When using {getRoleMember} and {getRoleMemberCount}, make sure you perform all queries on the same block. See the following https://forum.openzeppelin.com/t/iterating-over-elements-on-enumerableset-in-openzeppelin-contracts/2296[forum post] for more information."
      },
      "getRoleMemberCount(bytes32)": {
        "details": "Returns the number of accounts that have `role`. Can be used together with {getRoleMember} to enumerate all bearers of a role."
      },
      "grantRole(bytes32,address)": {
        "details": "Grants `role` to `account`. If `account` had not been already granted `role`, emits a {RoleGranted} event. Requirements: - the caller must have ``role``'s admin role."
      },
      "hasRole(bytes32,address)": {
        "details": "Returns `true` if `account` has been granted `role`."
      },
      "renounceRole(bytes32,address)": {
        "details": "Revokes `role` from the calling account. Roles are often managed via {grantRole} and {revokeRole}: this function's purpose is to provide a mechanism for accounts to lose their privileges if they are compromised (such as when a trusted device is misplaced). If the calling account had been granted `role`, emits a {RoleRevoked} event. Requirements: - the caller must be `account`."
      },
      "revokeRole(bytes32,address)": {
        "details": "Revokes `role` from `account`. If `account` had been granted `role`, emits a {RoleRevoked} event. Requirements: - the caller must have ``role``'s admin role."
      }
    },
    "version": 1
  },
  "userdoc": {
    "kind": "user",
    "methods": {},
    "version": 1
  }
}