{
  "contractName": "SimpleStake",
  "abi": [
    {
      "anonymous": false,
      "inputs": [
        {
          "indexed": true,
          "internalType": "bytes32",
          "name": "role",
          "type": "bytes32"
        },
        {
          "indexed": true,
          "internalType": "bytes32",
          "name": "previousAdminRole",
          "type": "bytes32"
        },
        {
          "indexed": true,
          "internalType": "bytes32",
          "name": "newAdminRole",
          "type": "bytes32"
        }
      ],
      "name": "RoleAdminChanged",
      "type": "event"
    },
    {
      "anonymous": false,
      "inputs": [
        {
          "indexed": true,
          "internalType": "bytes32",
          "name": "role",
          "type": "bytes32"
        },
        {
          "indexed": true,
          "internalType": "address",
          "name": "account",
          "type": "address"
        },
        {
          "indexed": true,
          "internalType": "address",
          "name": "sender",
          "type": "address"
        }
      ],
      "name": "RoleGranted",
      "type": "event"
    },
    {
      "anonymous": false,
      "inputs": [
        {
          "indexed": true,
          "internalType": "bytes32",
          "name": "role",
          "type": "bytes32"
        },
        {
          "indexed": true,
          "internalType": "address",
          "name": "account",
          "type": "address"
        },
        {
          "indexed": true,
          "internalType": "address",
          "name": "sender",
          "type": "address"
        }
      ],
      "name": "RoleRevoked",
      "type": "event"
    },
    {
      "anonymous": false,
      "inputs": [
        {
          "indexed": false,
          "internalType": "address",
          "name": "account",
          "type": "address"
        },
        {
          "indexed": false,
          "internalType": "address",
          "name": "token",
          "type": "address"
        },
        {
          "indexed": false,
          "internalType": "uint256",
          "name": "claimAmounts",
          "type": "uint256"
        }
      ],
      "name": "eventClaimedFLD",
      "type": "event"
    },
    {
      "anonymous": false,
      "inputs": [
        {
          "indexed": false,
          "internalType": "address",
          "name": "account",
          "type": "address"
        },
        {
          "indexed": false,
          "internalType": "address",
          "name": "tokenAddress",
          "type": "address"
        },
        {
          "indexed": false,
          "internalType": "uint256",
          "name": "amount",
          "type": "uint256"
        },
        {
          "indexed": false,
          "internalType": "uint256",
          "name": "genRewards",
          "type": "uint256"
        }
      ],
      "name": "eventStaked",
      "type": "event"
    },
    {
      "anonymous": false,
      "inputs": [
        {
          "indexed": false,
          "internalType": "address",
          "name": "account",
          "type": "address"
        },
        {
          "indexed": false,
          "internalType": "address",
          "name": "tokenAddress",
          "type": "address"
        },
        {
          "indexed": false,
          "internalType": "uint256",
          "name": "rewards",
          "type": "uint256"
        },
        {
          "indexed": false,
          "internalType": "uint256",
          "name": "startBlock",
          "type": "uint256"
        },
        {
          "indexed": false,
          "internalType": "uint256",
          "name": "endBlock",
          "type": "uint256"
        }
      ],
      "name": "eventUpdateRewardsToken",
      "type": "event"
    },
    {
      "inputs": [],
      "name": "ADMIN_ROLE",
      "outputs": [
        {
          "internalType": "bytes32",
          "name": "",
          "type": "bytes32"
        }
      ],
      "stateMutability": "view",
      "type": "function"
    },
    {
      "inputs": [],
      "name": "DEFAULT_ADMIN_ROLE",
      "outputs": [
        {
          "internalType": "bytes32",
          "name": "",
          "type": "bytes32"
        }
      ],
      "stateMutability": "view",
      "type": "function"
    },
    {
      "inputs": [
        {
          "internalType": "address",
          "name": "",
          "type": "address"
        }
      ],
      "name": "Mediator",
      "outputs": [
        {
          "internalType": "address",
          "name": "",
          "type": "address"
        }
      ],
      "stateMutability": "view",
      "type": "function"
    },
    {
      "inputs": [],
      "name": "WITHDRAWAL_DELAY_SECONDS",
      "outputs": [
        {
          "internalType": "uint256",
          "name": "",
          "type": "uint256"
        }
      ],
      "stateMutability": "view",
      "type": "function"
    },
    {
      "inputs": [
        {
          "internalType": "address",
          "name": "_tokenAddr",
          "type": "address"
        },
        {
          "internalType": "uint256",
          "name": "_fldExchanges",
          "type": "uint256"
        },
        {
          "internalType": "uint256",
          "name": "_interestRate",
          "type": "uint256"
        }
      ],
      "name": "addToken",
      "outputs": [],
      "stateMutability": "nonpayable",
      "type": "function"
    },
    {
      "inputs": [
        {
          "internalType": "uint256",
          "name": "_interestRate",
          "type": "uint256"
        },
        {
          "internalType": "uint256",
          "name": "_totalBlocks",
          "type": "uint256"
        }
      ],
      "name": "changeAnnualInterestRateInfo",
      "outputs": [],
      "stateMutability": "nonpayable",
      "type": "function"
    },
    {
      "inputs": [
        {
          "internalType": "address",
          "name": "_tokenAddr",
          "type": "address"
        },
        {
          "internalType": "uint256",
          "name": "_fldExchanges",
          "type": "uint256"
        }
      ],
      "name": "changeFldExchangesToken",
      "outputs": [],
      "stateMutability": "nonpayable",
      "type": "function"
    },
    {
      "inputs": [
        {
          "internalType": "address[]",
          "name": "_tokenAddrs",
          "type": "address[]"
        },
        {
          "internalType": "uint256[]",
          "name": "_fldExchanges",
          "type": "uint256[]"
        }
      ],
      "name": "changeFldExchangesTokens",
      "outputs": [],
      "stateMutability": "nonpayable",
      "type": "function"
    },
    {
      "inputs": [
        {
          "internalType": "address",
          "name": "_tokenAddr",
          "type": "address"
        },
        {
          "internalType": "uint256",
          "name": "_interestRate",
          "type": "uint256"
        }
      ],
      "name": "changeInterestRateToken",
      "outputs": [],
      "stateMutability": "nonpayable",
      "type": "function"
    },
    {
      "inputs": [
        {
          "internalType": "address[]",
          "name": "_tokenAddrs",
          "type": "address[]"
        },
        {
          "internalType": "uint256[]",
          "name": "_fldExchanges",
          "type": "uint256[]"
        }
      ],
      "name": "changeInterestRateTokens",
      "outputs": [],
      "stateMutability": "nonpayable",
      "type": "function"
    },
    {
      "inputs": [
        {
          "internalType": "address",
          "name": "_fldVault",
          "type": "address"
        }
      ],
      "name": "changeVault",
      "outputs": [],
      "stateMutability": "nonpayable",
      "type": "function"
    },
    {
      "inputs": [
        {
          "internalType": "uint256",
          "name": "_seconds",
          "type": "uint256"
        }
      ],
      "name": "changeWithdrawalDelaySeconds",
      "outputs": [],
      "stateMutability": "nonpayable",
      "type": "function"
    },
    {
      "inputs": [],
      "name": "fld",
      "outputs": [
        {
          "internalType": "contract IFLD",
          "name": "",
          "type": "address"
        }
      ],
      "stateMutability": "view",
      "type": "function"
    },
    {
      "inputs": [],
      "name": "fldVault",
      "outputs": [
        {
          "internalType": "contract IFLDVault",
          "name": "",
          "type": "address"
        }
      ],
      "stateMutability": "view",
      "type": "function"
    },
    {
      "inputs": [
        {
          "internalType": "bytes32",
          "name": "role",
          "type": "bytes32"
        }
      ],
      "name": "getRoleAdmin",
      "outputs": [
        {
          "internalType": "bytes32",
          "name": "",
          "type": "bytes32"
        }
      ],
      "stateMutability": "view",
      "type": "function"
    },
    {
      "inputs": [
        {
          "internalType": "bytes32",
          "name": "role",
          "type": "bytes32"
        },
        {
          "internalType": "uint256",
          "name": "index",
          "type": "uint256"
        }
      ],
      "name": "getRoleMember",
      "outputs": [
        {
          "internalType": "address",
          "name": "",
          "type": "address"
        }
      ],
      "stateMutability": "view",
      "type": "function"
    },
    {
      "inputs": [
        {
          "internalType": "bytes32",
          "name": "role",
          "type": "bytes32"
        }
      ],
      "name": "getRoleMemberCount",
      "outputs": [
        {
          "internalType": "uint256",
          "name": "",
          "type": "uint256"
        }
      ],
      "stateMutability": "view",
      "type": "function"
    },
    {
      "inputs": [
        {
          "internalType": "bytes32",
          "name": "role",
          "type": "bytes32"
        },
        {
          "internalType": "address",
          "name": "account",
          "type": "address"
        }
      ],
      "name": "grantRole",
      "outputs": [],
      "stateMutability": "nonpayable",
      "type": "function"
    },
    {
      "inputs": [
        {
          "internalType": "bytes32",
          "name": "role",
          "type": "bytes32"
        },
        {
          "internalType": "address",
          "name": "account",
          "type": "address"
        }
      ],
      "name": "hasRole",
      "outputs": [
        {
          "internalType": "bool",
          "name": "",
          "type": "bool"
        }
      ],
      "stateMutability": "view",
      "type": "function"
    },
    {
      "inputs": [],
      "name": "interestRatePerYear",
      "outputs": [
        {
          "internalType": "uint256",
          "name": "interestRate",
          "type": "uint256"
        },
        {
          "internalType": "uint256",
          "name": "totalBlocks",
          "type": "uint256"
        }
      ],
      "stateMutability": "view",
      "type": "function"
    },
    {
      "inputs": [
        {
          "internalType": "address",
          "name": "_tokenAddr",
          "type": "address"
        }
      ],
      "name": "removeToken",
      "outputs": [],
      "stateMutability": "nonpayable",
      "type": "function"
    },
    {
      "inputs": [
        {
          "internalType": "bytes32",
          "name": "role",
          "type": "bytes32"
        },
        {
          "internalType": "address",
          "name": "account",
          "type": "address"
        }
      ],
      "name": "renounceRole",
      "outputs": [],
      "stateMutability": "nonpayable",
      "type": "function"
    },
    {
      "inputs": [
        {
          "internalType": "bytes32",
          "name": "role",
          "type": "bytes32"
        },
        {
          "internalType": "address",
          "name": "account",
          "type": "address"
        }
      ],
      "name": "revokeRole",
      "outputs": [],
      "stateMutability": "nonpayable",
      "type": "function"
    },
    {
      "inputs": [
        {
          "internalType": "address",
          "name": "",
          "type": "address"
        }
      ],
      "name": "tokenCummRewards",
      "outputs": [
        {
          "internalType": "uint256",
          "name": "",
          "type": "uint256"
        }
      ],
      "stateMutability": "view",
      "type": "function"
    },
    {
      "inputs": [
        {
          "internalType": "address",
          "name": "",
          "type": "address"
        }
      ],
      "name": "tokenTotalStaked",
      "outputs": [
        {
          "internalType": "uint256",
          "name": "",
          "type": "uint256"
        }
      ],
      "stateMutability": "view",
      "type": "function"
    },
    {
      "inputs": [
        {
          "internalType": "address",
          "name": "_fld",
          "type": "address"
        },
        {
          "internalType": "address",
          "name": "_fldVault",
          "type": "address"
        },
        {
          "internalType": "uint256",
          "name": "_interestRate",
          "type": "uint256"
        },
        {
          "internalType": "uint256",
          "name": "_totalBlocks",
          "type": "uint256"
        }
      ],
      "name": "initialize",
      "outputs": [],
      "stateMutability": "nonpayable",
      "type": "function"
    },
    {
      "inputs": [
        {
          "internalType": "address",
          "name": "_tokenAddr",
          "type": "address"
        },
        {
          "internalType": "uint256",
          "name": "_amount",
          "type": "uint256"
        },
        {
          "internalType": "uint256",
          "name": "deadline",
          "type": "uint256"
        },
        {
          "internalType": "bytes",
          "name": "signature",
          "type": "bytes"
        }
      ],
      "name": "stake",
      "outputs": [
        {
          "internalType": "uint256",
          "name": "rewards",
          "type": "uint256"
        }
      ],
      "stateMutability": "nonpayable",
      "type": "function"
    },
    {
      "inputs": [
        {
          "internalType": "address",
          "name": "_tokenAddr",
          "type": "address"
        },
        {
          "internalType": "uint256",
          "name": "_amount",
          "type": "uint256"
        }
      ],
      "name": "stake",
      "outputs": [
        {
          "internalType": "uint256",
          "name": "rewards",
          "type": "uint256"
        }
      ],
      "stateMutability": "nonpayable",
      "type": "function"
    },
    {
      "inputs": [
        {
          "internalType": "address",
          "name": "_tokenAddr",
          "type": "address"
        }
      ],
      "name": "updateRewardsToken",
      "outputs": [
        {
          "internalType": "uint256",
          "name": "rewards",
          "type": "uint256"
        }
      ],
      "stateMutability": "nonpayable",
      "type": "function"
    },
    {
      "inputs": [
        {
          "internalType": "address",
          "name": "_tokenAddr",
          "type": "address"
        },
        {
          "internalType": "address",
          "name": "_staker",
          "type": "address"
        }
      ],
      "name": "calculateRewardsToken",
      "outputs": [
        {
          "internalType": "uint256",
          "name": "rewards",
          "type": "uint256"
        }
      ],
      "stateMutability": "view",
      "type": "function"
    },
    {
      "inputs": [
        {
          "internalType": "address",
          "name": "_tokenAddr",
          "type": "address"
        }
      ],
      "name": "claimFLD",
      "outputs": [],
      "stateMutability": "nonpayable",
      "type": "function"
    },
    {
      "inputs": [
        {
          "internalType": "address",
          "name": "_tokenAddr",
          "type": "address"
        }
      ],
      "name": "finalizeWithdraw",
      "outputs": [
        {
          "internalType": "bool",
          "name": "",
          "type": "bool"
        }
      ],
      "stateMutability": "nonpayable",
      "type": "function"
    },
    {
      "inputs": [
        {
          "internalType": "address",
          "name": "_tokenAddr",
          "type": "address"
        },
        {
          "internalType": "address[]",
          "name": "_stakers",
          "type": "address[]"
        }
      ],
      "name": "clearStaked",
      "outputs": [
        {
          "internalType": "bool",
          "name": "",
          "type": "bool"
        }
      ],
      "stateMutability": "nonpayable",
      "type": "function"
    },
    {
      "inputs": [
        {
          "internalType": "address",
          "name": "_tokenAddr",
          "type": "address"
        },
        {
          "internalType": "uint256",
          "name": "_amount",
          "type": "uint256"
        }
      ],
      "name": "requestWithdraw",
      "outputs": [
        {
          "internalType": "bool",
          "name": "",
          "type": "bool"
        }
      ],
      "stateMutability": "nonpayable",
      "type": "function"
    },
    {
      "inputs": [
        {
          "internalType": "address",
          "name": "_tokenAddr",
          "type": "address"
        }
      ],
      "name": "cancelRequestWithdraw",
      "outputs": [
        {
          "internalType": "bool",
          "name": "",
          "type": "bool"
        }
      ],
      "stateMutability": "nonpayable",
      "type": "function"
    },
    {
      "inputs": [
        {
          "internalType": "address",
          "name": "_tokenAddr",
          "type": "address"
        }
      ],
      "name": "allowedTokens",
      "outputs": [
        {
          "components": [
            {
              "internalType": "bool",
              "name": "allowed",
              "type": "bool"
            },
            {
              "internalType": "uint256",
              "name": "fldExchangesWeight",
              "type": "uint256"
            },
            {
              "internalType": "uint256",
              "name": "interestRate",
              "type": "uint256"
            }
          ],
          "internalType": "struct LibSimpleStake.TokenInfo",
          "name": "",
          "type": "tuple"
        }
      ],
      "stateMutability": "view",
      "type": "function"
    },
    {
      "inputs": [
        {
          "internalType": "address",
          "name": "_tokenAddr",
          "type": "address"
        },
        {
          "internalType": "address",
          "name": "_account",
          "type": "address"
        }
      ],
      "name": "StakeOf",
      "outputs": [
        {
          "components": [
            {
              "internalType": "uint256",
              "name": "amount",
              "type": "uint256"
            },
            {
              "internalType": "uint256",
              "name": "startBlock",
              "type": "uint256"
            },
            {
              "internalType": "uint256",
              "name": "rewardBlock",
              "type": "uint256"
            },
            {
              "internalType": "uint256",
              "name": "rewards",
              "type": "uint256"
            },
            {
              "internalType": "bool",
              "name": "requestedWithdrawal",
              "type": "bool"
            },
            {
              "internalType": "uint256",
              "name": "releaseDate",
              "type": "uint256"
            },
            {
              "internalType": "uint256",
              "name": "releaseAmount",
              "type": "uint256"
            }
          ],
          "internalType": "struct LibSimpleStake.StakingInfo",
          "name": "",
          "type": "tuple"
        }
      ],
      "stateMutability": "view",
      "type": "function"
    }
  ],
  "bytecode": "0x608060405262127500600555600160065534801561001c57600080fd5b506127168061002c6000396000f3fe608060405234801561001057600080fd5b50600436106102275760003560e01c80639010d07c11610130578063c5d09445116100b8578063e25695e21161007c578063e25695e214610497578063e744092e146104aa578063eb990c59146104ca578063ed80c134146104dd578063f85494de146104f057610227565b8063c5d0944514610443578063c606004414610456578063ca15c8731461045e578063d547741f14610471578063dee1f2af1461048457610227565b8063a1e03324116100ff578063a1e03324146103ec578063a217fddf146103ff578063a6b0f37014610407578063adc9772e1461041a578063bb8229811461042d57610227565b80639010d07c146103a057806391d14854146103b3578063950d37d4146103c65780639afe467e146103d957610227565b806345c67433116101b35780636ed84cec116101825780636ed84cec146103575780636ef28e0f1461036a57806370df25311461037257806375b238fc1461038557806376cd9d671461038d57610227565b806345c674331461030b5780635fa7b5841461031e57806360e232a9146103315780636393dbd01461034457610227565b80632f2ff15d116101fa5780632f2ff15d146102aa57806333bd2a49146102bd57806336568abe146102d2578063397a1b28146102e55780634302a2f2146102f857610227565b80630452063f1461022c5780630a55360314610255578063173965271461026a578063248a9ca31461028a575b600080fd5b61023f61023a366004612026565b610503565b60405161024c9190612473565b60405180910390f35b6102686102633660046121eb565b61058d565b005b61027d61027836600461200c565b610669565b60405161024c919061245f565b61029d6102983660046122c4565b610738565b60405161024c919061246a565b6102686102b83660046122dc565b610750565b6102c56107b7565b60405161024c9190612337565b6102686102e03660046122dc565b6107c6565b61027d6102f33660046120e5565b610827565b61029d61030636600461200c565b610901565b61026861031936600461200c565b610913565b61026861032c36600461200c565b610a89565b61026861033f36600461200c565b610afd565b6102686103523660046122fe565b610b85565b61029d61036536600461200c565b610bfc565b61029d610c0e565b61029d610380366004612026565b610c14565b61029d610d16565b61026861039b3660046120e5565b610d28565b6102c56103ae3660046122fe565b610dc2565b61027d6103c13660046122dc565b610de1565b61029d6103d4366004612140565b610df9565b6102c56103e736600461200c565b610fdf565b6102686103fa3660046122c4565b610ffa565b61029d61105f565b61027d610415366004612099565b611064565b61029d6104283660046120e5565b611305565b610435611480565b60405161024c9291906124e6565b6102686104513660046120e5565b611489565b6102c5611523565b61029d61046c3660046122c4565b611532565b61026861047f3660046122dc565b611549565b61026861049236600461210e565b6115a2565b6102686104a53660046121eb565b611627565b6104bd6104b836600461200c565b6116fe565b60405161024c91906124c3565b6102686104d8366004612058565b61174d565b61029d6104eb36600461200c565b611858565b61027d6104fe36600461200c565b611866565b61050b611f20565b506001600160a01b038083166000908152600860209081526040808320938516835292815290829020825160e0810184528154815260018201549281019290925260028101549282019290925260038201546060820152600482015460ff1615156080820152600582015460a082015260069091015460c08201525b92915050565b6105a560008051602061264e83398151915233610de1565b6105e05760405162461bcd60e51b81526004018080602001828103825260248152602001806125886024913960400191505060405180910390fd5b80518251146106205760405162461bcd60e51b815260040180806020018281038252604481526020018061260a6044913960600191505060405180910390fd5b60005b82518110156106645761065c83828151811061063b57fe5b602002602001015183838151811061064f57fe5b6020026020010151610d28565b600101610623565b505050565b6001600160a01b038116600090815260076020526040812054829060ff1661069057600080fd5b6001600160a01b038316600090815260086020908152604080832033845290915290206004015460ff161515600114806106ef57506001600160a01b038316600090815260086020908152604080832033845290915290206006015415155b6106f857600080fd5b50506001600160a01b03166000908152600860209081526040808320338452909152812060048101805460ff191690556005810182905560060155600190565b6000818152602081905260409020600201545b919050565b60008281526020819052604090206002015461076e906103c1611ab7565b6107a95760405162461bcd60e51b815260040180806020018281038252602f815260200180612559602f913960400191505060405180910390fd5b6107b38282611abb565b5050565b6001546001600160a01b031681565b6107ce611ab7565b6001600160a01b0316816001600160a01b03161461081d5760405162461bcd60e51b815260040180806020018281038252602f8152602001806126b2602f913960400191505060405180910390fd5b6107b38282611b24565b6001600160a01b038216600090815260076020526040812054839060ff1661084e57600080fd5b6001600160a01b038416600090815260086020908152604080832033845290915290206004015460ff161580156108a857506001600160a01b03841660009081526008602090815260408083203384529091529020548311155b6108b157600080fd5b6001600160a01b0384166000908152600860209081526040808320338452909152902060048101805460ff1916600190811790915560058054420190830155600690910184905591505092915050565b600a6020526000908152604090205481565b6001600160a01b038116600090815260076020526040902054819060ff1661093a57600080fd5b331580159061095357506001546001600160a01b031615155b801561097957506001600160a01b03821660009081526007602052604090206001015415155b61098257600080fd5b6001600160a01b038083166000818152600860209081526040808320338085529083528184209484526007909252808320600101546003850180549490556002549151632bd01d4f60e11b8152929593029216906357a03a9e906109ec9086908590600401612415565b602060405180830381600087803b158015610a0657600080fd5b505af1158015610a1a573d6000803e3d6000fd5b505050506040513d601f19601f82011682018060405250810190610a3e91906122a4565b610a4757600080fd5b7f31db06008eb8cade1fd4fb722cae37635735fc099a27afe249535e76385cb4dd838683604051610a7a9392919061234b565b60405180910390a15050505050565b610aa160008051602061264e83398151915233610de1565b610adc5760405162461bcd60e51b81526004018080602001828103825260248152602001806125886024913960400191505060405180910390fd5b6001600160a01b03166000908152600760205260409020805460ff19169055565b610b1560008051602061264e83398151915233610de1565b610b505760405162461bcd60e51b81526004018080602001828103825260248152602001806125886024913960400191505060405180910390fd5b6001600160a01b038116610b6357600080fd5b600280546001600160a01b0319166001600160a01b0392909216919091179055565b610b9d60008051602061264e83398151915233610de1565b610bd85760405162461bcd60e51b81526004018080602001828103825260248152602001806125886024913960400191505060405180910390fd5b600082118015610be85750600081115b610bf157600080fd5b506003819055600455565b60096020526000908152604090205481565b60055481565b60006001600160a01b038216610c2957600080fd5b6001600160a01b0383811660009081526008602090815260408083209386168352929052206001810154815460069092015490919015610c8f576001600160a01b0380861660009081526008602090815260408083209388168352929052206006015490035b6003546001600160a01b03861660009081526007602052604090206002015415610cd157506001600160a01b0385166000908152600760205260409020600201545b600082118015610ce15750600083115b8015610cec57504383105b15610d0d576103e8810460036001015484430381610d0657fe5b0483020293505b50505092915050565b60008051602061264e83398151915281565b610d4060008051602061264e83398151915233610de1565b610d7b5760405162461bcd60e51b81526004018080602001828103825260248152602001806125886024913960400191505060405180910390fd5b6001600160a01b038216600090815260076020526040902054829060ff16610da257600080fd5b506001600160a01b03909116600090815260076020526040902060010155565b6000828152602081905260408120610dda9083611b8d565b9392505050565b6000828152602081905260408120610dda9083611b99565b6001600160a01b038416600090815260076020526040812054859060ff16610e2057600080fd5b84610e2a57600080fd5b6001600160a01b0386166000908152600860209081526040808320338452909152812054909250610e87576001600160a01b0386166000908152600860209081526040808320338452909152902085815543600190910155610e95565b610e92863387611bae565b91505b6001600160a01b0386166000818152600a60205260409081902080548801905551639fd5a6cf60e01b8152639fd5a6cf90610edc90339030908a908a908a90600401612398565b600060405180830381600087803b158015610ef657600080fd5b505af1158015610f0a573d6000803e3d6000fd5b50506040516323b872dd60e01b81526001600160a01b03891692506323b872dd9150610f3e90339030908a9060040161234b565b602060405180830381600087803b158015610f5857600080fd5b505af1158015610f6c573d6000803e3d6000fd5b505050506040513d601f19601f82011682018060405250810190610f9091906122a4565b610f9957600080fd5b7fe40f7809c0b9c563d70e65fb8a1d5ecfd0b2387136662dd562b2d622a33080e333878785604051610fce949392919061236f565b60405180910390a150949350505050565b600b602052600090815260409020546001600160a01b031681565b61101260008051602061264e83398151915233610de1565b61104d5760405162461bcd60e51b81526004018080602001828103825260248152602001806125886024913960400191505060405180910390fd5b6000811161105a57600080fd5b600555565b600081565b6001600160a01b038083166000908152600b60205260408120549091849116331461108e57600080fd5b6001600160a01b038416600090815260076020526040902054849060ff166110b557600080fd5b60008451116110c357600080fd5b6040516370a0823160e01b81526000906001600160a01b038716906370a08231906110f2903090600401612337565b60206040518083038186803b15801561110a57600080fd5b505afa15801561111e573d6000803e3d6000fd5b505050506040513d601f19601f82011682018060405250810190611142919061231f565b90506000805b86518110156111d2576001600160a01b0388166000908152600860205260408120885190919089908490811061117a57fe5b60200260200101516001600160a01b03166001600160a01b0316815260200190815260200160002060000154820191506111c9888883815181106111ba57fe5b60200260200101516000611bae565b50600101611148565b818310156111df57600080fd5b5060005b86518110156112f7576001600160a01b0388166000908152600860205260408120885182908a908590811061121457fe5b60200260200101516001600160a01b03166001600160a01b03168152602001908152602001600020905060008160000154905060008260000181905550896001600160a01b031663a9059cbb8a858151811061126c57fe5b6020026020010151836040518363ffffffff1660e01b8152600401611292929190612415565b602060405180830381600087803b1580156112ac57600080fd5b505af11580156112c0573d6000803e3d6000fd5b505050506040513d601f19601f820116820180604052508101906112e491906122a4565b6112ed57600080fd5b50506001016111e3565b506001979650505050505050565b6001600160a01b038216600090815260076020526040812054839060ff1661132c57600080fd5b8261133657600080fd5b6001600160a01b0384166000908152600860209081526040808320338452909152902054611390576001600160a01b038416600090815260086020908152604080832033845290915290208381554360019091015561139e565b61139b843385611bae565b91505b6001600160a01b0384166000818152600a602052604090819020805486019055516323b872dd60e01b81526323b872dd906113e19033903090889060040161234b565b602060405180830381600087803b1580156113fb57600080fd5b505af115801561140f573d6000803e3d6000fd5b505050506040513d601f19601f8201168201806040525081019061143391906122a4565b61143c57600080fd5b7fe40f7809c0b9c563d70e65fb8a1d5ecfd0b2387136662dd562b2d622a33080e333858585604051611471949392919061236f565b60405180910390a15092915050565b60035460045482565b6114a160008051602061264e83398151915233610de1565b6114dc5760405162461bcd60e51b81526004018080602001828103825260248152602001806125886024913960400191505060405180910390fd5b6001600160a01b038216600090815260076020526040902054829060ff1661150357600080fd5b506001600160a01b03909116600090815260076020526040902060020155565b6002546001600160a01b031681565b600081815260208190526040812061058790611d44565b600082815260208190526040902060020154611567906103c1611ab7565b61081d5760405162461bcd60e51b81526004018080602001828103825260308152602001806125ac6030913960400191505060405180910390fd5b6115ba60008051602061264e83398151915233610de1565b6115f55760405162461bcd60e51b81526004018080602001828103825260248152602001806125886024913960400191505060405180910390fd5b6001600160a01b039092166000908152600760205260409020805460ff19166001908117825581019190915560020155565b61163f60008051602061264e83398151915233610de1565b61167a5760405162461bcd60e51b81526004018080602001828103825260248152602001806125886024913960400191505060405180910390fd5b80518251146116ba5760405162461bcd60e51b815260040180806020018281038252604481526020018061266e6044913960600191505060405180910390fd5b60005b8251811015610664576116f68382815181106116d557fe5b60200260200101518383815181106116e957fe5b6020026020010151611489565b6001016116bd565b611706611f5f565b506001600160a01b03166000908152600760209081526040918290208251606081018452815460ff1615158152600182015492810192909252600201549181019190915290565b600c54610100900460ff16806117665750611766611d4f565b806117745750600c5460ff16155b6117af5760405162461bcd60e51b815260040180806020018281038252602e8152602001806125dc602e913960400191505060405180910390fd5b600c54610100900460ff161580156117da57600c805460ff1961ff0019909116610100171660011790555b6001600160a01b0385166117ed57600080fd5b600180546001600160a01b038088166001600160a01b031992831617909255600280549287169290911691909117905561183560008051602061264e833981519152336107a9565b61183f8383610b85565b801561185157600c805461ff00191690555b5050505050565b600061058782336000611bae565b6001600160a01b038116600090815260076020526040812054829060ff1661188d57600080fd5b6001600160a01b0383166000908152600860209081526040808320338452909152902060060154158015906118e857506001600160a01b038316600090815260086020908152604080832033845290915290206004015460ff165b6118f157600080fd5b6001600160a01b0383166000908152600860209081526040808320338452909152902060050154421161192357600080fd5b61192f83336000611bae565b506001600160a01b0383166000818152600860209081526040808320338452909152808220600681015491516370a0823160e01b81529093919291906370a082319061197f903090600401612337565b60206040518083038186803b15801561199757600080fd5b505afa1580156119ab573d6000803e3d6000fd5b505050506040513d601f19601f820116820180604052508101906119cf919061231f565b90508181101580156119e2575082548211155b6119eb57600080fd5b825482900383556004808401805460ff19169055600060058501819055600685018190556001600160a01b038816808252600a60205260409182902080548690039055905163a9059cbb60e01b8152909163a9059cbb91611a50913391879101612415565b602060405180830381600087803b158015611a6a57600080fd5b505af1158015611a7e573d6000803e3d6000fd5b505050506040513d601f19601f82011682018060405250810190611aa291906122a4565b611aab57600080fd5b50600195945050505050565b3390565b6000828152602081905260409020611ad39082611d60565b156107b357611ae0611ab7565b6001600160a01b0316816001600160a01b0316837f2f8788117e7eff1d82e926ec794901d17c78024a50270940304540a733656f0d60405160405180910390a45050565b6000828152602081905260409020611b3c9082611d75565b156107b357611b49611ab7565b6001600160a01b0316816001600160a01b0316837ff6391f5c32d9c69d2a47ea670b442974b53935d1edc7fd64eb21e047a839171b60405160405180910390a45050565b6000610dda8383611d8a565b6000610dda836001600160a01b038416611dee565b60006001600160a01b03831615801590611bef57506001600160a01b0380851660009081526008602090815260408083209387168352929052206001015415155b8015611c2257506001600160a01b0380851660009081526008602090815260408083209387168352929052206001015443115b611c2b57600080fd5b6001600160a01b03808516600090815260086020908152604080832093871683529290522060018101548154600683015415611c6957600683015490035b8015611ce0576003546001600160a01b03881660009081526007602052604090206002015415611cb157506001600160a01b0387166000908152600760205260409020600201545b6103e8810460036001015484430381611cc657fe5b048302029450848460030160008282540192505081905550505b8415611ced578254850183555b4360018401819055600284018190556040517f28a51e6e8042c95047bbe035bd3e5277a9538f077bf90b669d1bf171b19ae88b91611d329189918b918991889161242e565b60405180910390a15050509392505050565b600061058782611e06565b6000611d5a30611e0a565b15905090565b6000610dda836001600160a01b038416611e10565b6000610dda836001600160a01b038416611e5a565b81546000908210611dcc5760405162461bcd60e51b81526004018080602001828103825260228152602001806125376022913960400191505060405180910390fd5b826000018281548110611ddb57fe5b9060005260206000200154905092915050565b60009081526001919091016020526040902054151590565b5490565b3b151590565b6000611e1c8383611dee565b611e5257508154600181810184556000848152602080822090930184905584548482528286019093526040902091909155610587565b506000610587565b60008181526001830160205260408120548015611f165783546000198083019190810190600090879083908110611e8d57fe5b9060005260206000200154905080876000018481548110611eaa57fe5b600091825260208083209091019290925582815260018981019092526040902090840190558654879080611eda57fe5b60019003818190600052602060002001600090559055866001016000878152602001908152602001600020600090556001945050505050610587565b6000915050610587565b6040518060e001604052806000815260200160008152602001600081526020016000815260200160001515815260200160008152602001600081525090565b604051806060016040528060001515815260200160008152602001600081525090565b80356001600160a01b038116811461074b57600080fd5b600082601f830112611fa9578081fd5b81356020611fbe611fb983612518565b6124f4565b8281528181019085830183850287018401881015611fda578586fd5b855b85811015611fff57611fed82611f82565b84529284019290840190600101611fdc565b5090979650505050505050565b60006020828403121561201d578081fd5b610dda82611f82565b60008060408385031215612038578081fd5b61204183611f82565b915061204f60208401611f82565b90509250929050565b6000806000806080858703121561206d578182fd5b61207685611f82565b935061208460208601611f82565b93969395505050506040820135916060013590565b600080604083850312156120ab578182fd5b6120b483611f82565b9150602083013567ffffffffffffffff8111156120cf578182fd5b6120db85828601611f99565b9150509250929050565b600080604083850312156120f7578182fd5b61210083611f82565b946020939093013593505050565b600080600060608486031215612122578283fd5b61212b84611f82565b95602085013595506040909401359392505050565b60008060008060808587031215612155578384fd5b61215e85611f82565b9350602080860135935060408601359250606086013567ffffffffffffffff80821115612189578384fd5b818801915088601f83011261219c578384fd5b8135818111156121a857fe5b6121ba601f8201601f191685016124f4565b915080825289848285010111156121cf578485fd5b8084840185840137810190920192909252939692955090935050565b600080604083850312156121fd578182fd5b823567ffffffffffffffff80821115612214578384fd5b61222086838701611f99565b9350602091508185013581811115612236578384fd5b85019050601f81018613612248578283fd5b8035612256611fb982612518565b81815283810190838501858402850186018a1015612272578687fd5b8694505b83851015612294578035835260019490940193918501918501612276565b5080955050505050509250929050565b6000602082840312156122b5578081fd5b81518015158114610dda578182fd5b6000602082840312156122d5578081fd5b5035919050565b600080604083850312156122ee578182fd5b8235915061204f60208401611f82565b60008060408385031215612310578182fd5b50508035926020909101359150565b600060208284031215612330578081fd5b5051919050565b6001600160a01b0391909116815260200190565b6001600160a01b039384168152919092166020820152604081019190915260600190565b6001600160a01b0394851681529290931660208301526040820152606081019190915260800190565b600060018060a01b03808816835260208188168185015286604085015285606085015260a06080850152845191508160a0850152825b828110156123ea5785810182015185820160c0015281016123ce565b828111156123fb578360c084870101525b5050601f01601f19169190910160c0019695505050505050565b6001600160a01b03929092168252602082015260400190565b6001600160a01b03958616815293909416602084015260408301919091526060820152608081019190915260a00190565b901515815260200190565b90815260200190565b600060e0820190508251825260208301516020830152604083015160408301526060830151606083015260808301511515608083015260a083015160a083015260c083015160c083015292915050565b815115158152602080830151908201526040918201519181019190915260600190565b918252602082015260400190565b60405181810167ffffffffffffffff8111828210171561251057fe5b604052919050565b600067ffffffffffffffff82111561252c57fe5b506020908102019056fe456e756d657261626c655365743a20696e646578206f7574206f6620626f756e6473416363657373436f6e74726f6c3a2073656e646572206d75737420626520616e2061646d696e20746f206772616e745374616b6553657474696e673a2043616c6c6572206973206e6f7420616e2061646d696e416363657373436f6e74726f6c3a2073656e646572206d75737420626520616e2061646d696e20746f207265766f6b65496e697469616c697a61626c653a20636f6e747261637420697320616c726561647920696e697469616c697a65645374616b6553657474696e673a20496e707574206c656e67746820697320646966666572656e7420696e206368616e6765466c6445786368616e676573546f6b656e732edf8b4c520ffe197c5343c6f5aec59570151ef9a492f2c624fd45ddde6135ec425374616b6553657474696e673a20496e707574206c656e67746820697320646966666572656e7420696e206368616e6765496e74657265737452617465546f6b656e732e416363657373436f6e74726f6c3a2063616e206f6e6c792072656e6f756e636520726f6c657320666f722073656c66a26469706673582212204c27fcb535b81f69d811d3229d2ac51fcd7da2e8d4d8b12359bb2d6e691ea2a164736f6c63430007060033",
  "immutableReferences": {},
  "source": "//SPDX-License-Identifier: Unlicense\npragma solidity ^0.7.0;\npragma abicoder v2;\n\nimport \"./StakeSetting.sol\";\nimport \"../interfaces/IFLD.sol\";\nimport \"../interfaces/IERC20.sol\";\nimport \"../interfaces/IWETH.sol\";\nimport \"../interfaces/ISimpleStake.sol\";\nimport \"../libraries/LibSimpleStake.sol\";\nimport \"@openzeppelin/contracts-upgradeable/proxy/Initializable.sol\";\n\ncontract SimpleStake\n    is\n    StakeSetting,\n    ISimpleStake,\n    Initializable\n{\n\n    function initialize(address _fld, address _fldVault, uint256 _interestRate, uint256 _totalBlocks )\n        external\n        initializer\n    {\n        require(_fld != address(0));\n        fld = IFLD(_fld);\n        fldVault = IFLDVault(_fldVault);\n\n        _setupRole(ADMIN_ROLE, msg.sender);\n        changeAnnualInterestRateInfo(_interestRate, _totalBlocks);\n    }\n\n    function stake(\n        address _tokenAddr,\n        uint256 _amount,\n        uint256 deadline,\n        bytes memory signature\n    )\n        external\n        isValidToken(_tokenAddr)\n        returns (uint256 rewards)\n    {\n        require(_amount != 0);\n        rewards = 0;\n        if (_StakeMap[_tokenAddr][msg.sender].amount == 0) {\n            LibSimpleStake.StakingInfo storage userStaking = _StakeMap[_tokenAddr][msg.sender];\n            userStaking.amount = _amount;\n            userStaking.startBlock = block.number;\n        } else {\n            rewards = _updateRewardsToken(_tokenAddr, msg.sender, _amount);\n        }\n\n        tokenTotalStaked[_tokenAddr] += _amount;\n        IWETH(_tokenAddr).permit(msg.sender, address(this), _amount, deadline, signature);\n        require(IERC20(_tokenAddr).transferFrom(msg.sender, address(this), _amount));\n        emit eventStaked(msg.sender, _tokenAddr, _amount, rewards);\n    }\n\n    function stake(\n        address _tokenAddr,\n        uint256 _amount\n    )\n        external\n        override\n        isValidToken(_tokenAddr)\n        returns (uint256 rewards)\n    {\n\n        require(_amount != 0);\n\n        if (_StakeMap[_tokenAddr][msg.sender].amount == 0) {\n\n            LibSimpleStake.StakingInfo storage userStaking = _StakeMap[_tokenAddr][msg.sender];\n            userStaking.amount = _amount;\n            userStaking.startBlock = block.number;\n        } else {\n            rewards = _updateRewardsToken(_tokenAddr, msg.sender, _amount);\n        }\n        tokenTotalStaked[_tokenAddr] += _amount;\n\n        require(IERC20(_tokenAddr).transferFrom(msg.sender, address(this), _amount));\n\n        emit eventStaked(msg.sender, _tokenAddr, _amount, rewards);\n    }\n\n    function updateRewardsToken(\n        address _tokenAddr\n    )\n        external\n        override\n        returns (uint256 rewards)\n    {\n        return _updateRewardsToken(_tokenAddr, msg.sender, 0);\n    }\n\n    function calculateRewardsToken(\n        address _tokenAddr,\n        address _staker\n    )\n        external\n        override\n        view\n        returns (uint256 rewards)\n    {\n        require(_staker != address(0)  );\n\n        uint256 start = _StakeMap[_tokenAddr][_staker].startBlock;\n        uint256 stakedAmount = _StakeMap[_tokenAddr][_staker].amount;\n\n        if (_StakeMap[_tokenAddr][_staker].releaseAmount > 0) {\n            stakedAmount -= _StakeMap[_tokenAddr][_staker].releaseAmount ;\n        }\n\n        uint256 interest = interestRatePerYear.interestRate;\n        if (_allowedTokens[_tokenAddr].interestRate > 0) interest = _allowedTokens[_tokenAddr].interestRate;\n\n        if (stakedAmount > 0 && start > 0 && start < block.number ) {\n            rewards =\n                stakedAmount\n                * ((block.number - start) / interestRatePerYear.totalBlocks)\n                * (interest / LibSimpleStake.DECIMAL);\n        }\n    }\n\n    function claimFLD(\n        address _tokenAddr\n    )\n        external\n        override\n        isValidToken(_tokenAddr)\n    {\n        require(msg.sender != address(0)\n            && address(fld) != address(0)\n            && _allowedTokens[_tokenAddr].fldExchangesWeight > 0);\n\n        address receiver = msg.sender;\n        LibSimpleStake.StakingInfo storage userStaking = _StakeMap[_tokenAddr][receiver];\n        uint256 claimAmounts = userStaking.rewards * _allowedTokens[_tokenAddr].fldExchangesWeight;\n        userStaking.rewards = 0;\n\n        require(fldVault.claimFLD(receiver, claimAmounts));\n\n        emit eventClaimedFLD(receiver, _tokenAddr, claimAmounts);\n    }\n\n    function finalizeWithdraw(\n        address _tokenAddr\n    )\n        external\n        override\n        isValidToken(_tokenAddr)\n        returns (bool)\n    {\n\n        require(\n            _StakeMap[_tokenAddr][msg.sender].releaseAmount > 0\n            && _StakeMap[_tokenAddr][msg.sender].requestedWithdrawal);\n        require(block.timestamp > _StakeMap[_tokenAddr][msg.sender].releaseDate);\n\n        _updateRewardsToken(_tokenAddr, msg.sender, 0);\n\n        LibSimpleStake.StakingInfo storage userStaking = _StakeMap[_tokenAddr][msg.sender];\n        uint256 amount = userStaking.releaseAmount;\n        uint256 balanceToken = IERC20(_tokenAddr).balanceOf(address(this));\n        require(balanceToken >= amount && userStaking.amount >= amount);\n\n        userStaking.amount = userStaking.amount-amount;\n        userStaking.requestedWithdrawal = false;\n        userStaking.releaseDate = 0;\n        userStaking.releaseAmount = 0;\n\n        tokenTotalStaked[_tokenAddr] = tokenTotalStaked[_tokenAddr]-amount;\n        require(IERC20(_tokenAddr).transfer(msg.sender, amount));\n\n        return true;\n    }\n\n    function clearStaked(\n        address _tokenAddr,\n        address[] memory _stakers\n    )\n        external\n        override\n        isMediator(_tokenAddr)\n        isValidToken(_tokenAddr)\n        returns (bool)\n    {\n\n        require(_stakers.length > 0);\n        uint256 balanceToken = IERC20(_tokenAddr).balanceOf(address(this));\n        uint256 sumBalancesUsers = 0;\n        uint i =0;\n        for (i =0; i < _stakers.length; i++) {\n            sumBalancesUsers += _StakeMap[_tokenAddr][_stakers[i]].amount;\n            _updateRewardsToken(_tokenAddr, _stakers[i], 0);\n        }\n        require(balanceToken >= sumBalancesUsers);\n        for (i = 0; i < _stakers.length; i++) {\n            LibSimpleStake.StakingInfo storage userStaking = _StakeMap[_tokenAddr][_stakers[i]];\n            uint256 amount = userStaking.amount;\n            userStaking.amount = 0;\n            require(IERC20(_tokenAddr).transfer(_stakers[i], amount));\n        }\n        return true;\n    }\n\n    function requestWithdraw(\n        address _tokenAddr,\n        uint256 _amount\n    )\n        external\n        override\n        isValidToken(_tokenAddr)\n        returns (bool)\n    {\n        require(\n            !_StakeMap[_tokenAddr][msg.sender].requestedWithdrawal\n            && _StakeMap[_tokenAddr][msg.sender].amount >= _amount);\n\n        LibSimpleStake.StakingInfo storage userStaking = _StakeMap[_tokenAddr][msg.sender];\n        userStaking.requestedWithdrawal = true;\n        userStaking.releaseDate = block.timestamp + WITHDRAWAL_DELAY_SECONDS;\n        userStaking.releaseAmount = _amount;\n        return true;\n    }\n\n    function cancelRequestWithdraw(\n        address _tokenAddr\n    )\n        external\n        override\n        isValidToken(_tokenAddr)\n        returns (bool)\n    {\n        require(\n            _StakeMap[_tokenAddr][msg.sender].requestedWithdrawal == true ||\n            _StakeMap[_tokenAddr][msg.sender].releaseAmount > 0);\n\n        LibSimpleStake.StakingInfo storage userStaking = _StakeMap[_tokenAddr][msg.sender];\n        userStaking.requestedWithdrawal = false;\n        userStaking.releaseDate = 0;\n        userStaking.releaseAmount = 0;\n        return true;\n    }\n\n\n    function allowedTokens(\n        address _tokenAddr\n    )\n        external\n        view\n        override\n        returns (LibSimpleStake.TokenInfo memory)\n    {\n        return _allowedTokens[_tokenAddr];\n    }\n\n    function StakeOf(\n        address _tokenAddr,\n        address _account\n    )\n        external\n        view\n        override\n        returns (LibSimpleStake.StakingInfo memory)\n    {\n        return _StakeMap[_tokenAddr][_account];\n    }\n\n    /**\n    * public\n    */\n\n\n\n    /**\n    * internal\n    */\n\n    function _updateRewardsToken(\n        address _tokenAddr,\n        address _staker,\n        uint256 _amount\n    )\n        internal\n        returns (uint256 rewards)\n    {\n\n        require(_staker != address(0)\n            && _StakeMap[_tokenAddr][_staker].startBlock > 0\n            && _StakeMap[_tokenAddr][_staker].startBlock < block.number\n        );\n\n        LibSimpleStake.StakingInfo storage userStaking = _StakeMap[_tokenAddr][_staker];\n\n        uint256 start = userStaking.startBlock;\n        uint256 stakedAmount = userStaking.amount;\n\n        if (userStaking.releaseAmount > 0) {\n            stakedAmount -= userStaking.releaseAmount ;\n        }\n\n        if (stakedAmount > 0) {\n\n            uint256 interest = interestRatePerYear.interestRate;\n            if (_allowedTokens[_tokenAddr].interestRate > 0) interest = _allowedTokens[_tokenAddr].interestRate;\n\n            rewards =\n                stakedAmount\n                * ((block.number - start) / interestRatePerYear.totalBlocks)\n                * (interest / LibSimpleStake.DECIMAL);\n\n            userStaking.rewards += rewards;\n        }\n\n        if (_amount > 0) userStaking.amount += _amount;\n        userStaking.startBlock = block.number;\n        userStaking.rewardBlock = block.number;\n\n        emit eventUpdateRewardsToken(_staker, _tokenAddr, rewards, start, block.number);\n    }\n\n\n    /**\n    * private\n    */\n\n\n}\n",
  "sourcePath": "/Users/zena/ico2.0/fld-v1/contracts/stake/SimpleStake.sol",
  "compiler": {
    "name": "solc",
    "version": "0.7.6+commit.7338295f.Emscripten.clang"
  },
  "schemaVersion": "3.3.4",
  "updatedAt": "2021-04-15T10:38:25.196Z",
  "devdoc": {
    "kind": "dev",
    "methods": {
      "getRoleAdmin(bytes32)": {
        "details": "Returns the admin role that controls `role`. See {grantRole} and {revokeRole}. To change a role's admin, use {_setRoleAdmin}."
      },
      "getRoleMember(bytes32,uint256)": {
        "details": "Returns one of the accounts that have `role`. `index` must be a value between 0 and {getRoleMemberCount}, non-inclusive. Role bearers are not sorted in any particular way, and their ordering may change at any point. WARNING: When using {getRoleMember} and {getRoleMemberCount}, make sure you perform all queries on the same block. See the following https://forum.openzeppelin.com/t/iterating-over-elements-on-enumerableset-in-openzeppelin-contracts/2296[forum post] for more information."
      },
      "getRoleMemberCount(bytes32)": {
        "details": "Returns the number of accounts that have `role`. Can be used together with {getRoleMember} to enumerate all bearers of a role."
      },
      "grantRole(bytes32,address)": {
        "details": "Grants `role` to `account`. If `account` had not been already granted `role`, emits a {RoleGranted} event. Requirements: - the caller must have ``role``'s admin role."
      },
      "hasRole(bytes32,address)": {
        "details": "Returns `true` if `account` has been granted `role`."
      },
      "renounceRole(bytes32,address)": {
        "details": "Revokes `role` from the calling account. Roles are often managed via {grantRole} and {revokeRole}: this function's purpose is to provide a mechanism for accounts to lose their privileges if they are compromised (such as when a trusted device is misplaced). If the calling account had been granted `role`, emits a {RoleRevoked} event. Requirements: - the caller must be `account`."
      },
      "revokeRole(bytes32,address)": {
        "details": "Revokes `role` from `account`. If `account` had been granted `role`, emits a {RoleRevoked} event. Requirements: - the caller must have ``role``'s admin role."
      }
    },
    "version": 1
  },
  "userdoc": {
    "kind": "user",
    "methods": {
      "changeVault(address)": {
        "notice": "external"
      }
    },
    "version": 1
  }
}