{
  "contractName": "StakeFactory",
  "abi": [
    {
      "inputs": [
        {
          "internalType": "address",
          "name": "_stakeSimpleFactory",
          "type": "address"
        },
        {
          "internalType": "address",
          "name": "_stakeTONFactory",
          "type": "address"
        },
        {
          "internalType": "address",
          "name": "_stakeDefiFactory",
          "type": "address"
        }
      ],
      "stateMutability": "nonpayable",
      "type": "constructor"
    },
    {
      "anonymous": false,
      "inputs": [
        {
          "indexed": true,
          "internalType": "bytes32",
          "name": "role",
          "type": "bytes32"
        },
        {
          "indexed": true,
          "internalType": "bytes32",
          "name": "previousAdminRole",
          "type": "bytes32"
        },
        {
          "indexed": true,
          "internalType": "bytes32",
          "name": "newAdminRole",
          "type": "bytes32"
        }
      ],
      "name": "RoleAdminChanged",
      "type": "event"
    },
    {
      "anonymous": false,
      "inputs": [
        {
          "indexed": true,
          "internalType": "bytes32",
          "name": "role",
          "type": "bytes32"
        },
        {
          "indexed": true,
          "internalType": "address",
          "name": "account",
          "type": "address"
        },
        {
          "indexed": true,
          "internalType": "address",
          "name": "sender",
          "type": "address"
        }
      ],
      "name": "RoleGranted",
      "type": "event"
    },
    {
      "anonymous": false,
      "inputs": [
        {
          "indexed": true,
          "internalType": "bytes32",
          "name": "role",
          "type": "bytes32"
        },
        {
          "indexed": true,
          "internalType": "address",
          "name": "account",
          "type": "address"
        },
        {
          "indexed": true,
          "internalType": "address",
          "name": "sender",
          "type": "address"
        }
      ],
      "name": "RoleRevoked",
      "type": "event"
    },
    {
      "inputs": [],
      "name": "ADMIN_ROLE",
      "outputs": [
        {
          "internalType": "bytes32",
          "name": "",
          "type": "bytes32"
        }
      ],
      "stateMutability": "view",
      "type": "function"
    },
    {
      "inputs": [],
      "name": "DEFAULT_ADMIN_ROLE",
      "outputs": [
        {
          "internalType": "bytes32",
          "name": "",
          "type": "bytes32"
        }
      ],
      "stateMutability": "view",
      "type": "function"
    },
    {
      "inputs": [
        {
          "internalType": "bytes32",
          "name": "role",
          "type": "bytes32"
        }
      ],
      "name": "getRoleAdmin",
      "outputs": [
        {
          "internalType": "bytes32",
          "name": "",
          "type": "bytes32"
        }
      ],
      "stateMutability": "view",
      "type": "function"
    },
    {
      "inputs": [
        {
          "internalType": "bytes32",
          "name": "role",
          "type": "bytes32"
        },
        {
          "internalType": "uint256",
          "name": "index",
          "type": "uint256"
        }
      ],
      "name": "getRoleMember",
      "outputs": [
        {
          "internalType": "address",
          "name": "",
          "type": "address"
        }
      ],
      "stateMutability": "view",
      "type": "function"
    },
    {
      "inputs": [
        {
          "internalType": "bytes32",
          "name": "role",
          "type": "bytes32"
        }
      ],
      "name": "getRoleMemberCount",
      "outputs": [
        {
          "internalType": "uint256",
          "name": "",
          "type": "uint256"
        }
      ],
      "stateMutability": "view",
      "type": "function"
    },
    {
      "inputs": [
        {
          "internalType": "bytes32",
          "name": "role",
          "type": "bytes32"
        },
        {
          "internalType": "address",
          "name": "account",
          "type": "address"
        }
      ],
      "name": "grantRole",
      "outputs": [],
      "stateMutability": "nonpayable",
      "type": "function"
    },
    {
      "inputs": [
        {
          "internalType": "bytes32",
          "name": "role",
          "type": "bytes32"
        },
        {
          "internalType": "address",
          "name": "account",
          "type": "address"
        }
      ],
      "name": "hasRole",
      "outputs": [
        {
          "internalType": "bool",
          "name": "",
          "type": "bool"
        }
      ],
      "stateMutability": "view",
      "type": "function"
    },
    {
      "inputs": [
        {
          "internalType": "bytes32",
          "name": "role",
          "type": "bytes32"
        },
        {
          "internalType": "address",
          "name": "account",
          "type": "address"
        }
      ],
      "name": "renounceRole",
      "outputs": [],
      "stateMutability": "nonpayable",
      "type": "function"
    },
    {
      "inputs": [
        {
          "internalType": "bytes32",
          "name": "role",
          "type": "bytes32"
        },
        {
          "internalType": "address",
          "name": "account",
          "type": "address"
        }
      ],
      "name": "revokeRole",
      "outputs": [],
      "stateMutability": "nonpayable",
      "type": "function"
    },
    {
      "inputs": [],
      "name": "stakeDefiFactory",
      "outputs": [
        {
          "internalType": "address",
          "name": "",
          "type": "address"
        }
      ],
      "stateMutability": "view",
      "type": "function"
    },
    {
      "inputs": [],
      "name": "stakeSimpleFactory",
      "outputs": [
        {
          "internalType": "address",
          "name": "",
          "type": "address"
        }
      ],
      "stateMutability": "view",
      "type": "function"
    },
    {
      "inputs": [],
      "name": "stakeTONFactory",
      "outputs": [
        {
          "internalType": "address",
          "name": "",
          "type": "address"
        }
      ],
      "stateMutability": "view",
      "type": "function"
    },
    {
      "inputs": [
        {
          "internalType": "address",
          "name": "newOwner",
          "type": "address"
        }
      ],
      "name": "transferOwnership",
      "outputs": [],
      "stateMutability": "nonpayable",
      "type": "function"
    },
    {
      "inputs": [
        {
          "internalType": "address",
          "name": "_stakeSimpleFactory",
          "type": "address"
        }
      ],
      "name": "setStakeSimpleFactory",
      "outputs": [],
      "stateMutability": "nonpayable",
      "type": "function"
    },
    {
      "inputs": [
        {
          "internalType": "address",
          "name": "_stakeTONFactory",
          "type": "address"
        }
      ],
      "name": "setStakeTONFactory",
      "outputs": [],
      "stateMutability": "nonpayable",
      "type": "function"
    },
    {
      "inputs": [
        {
          "internalType": "address",
          "name": "_stakeDefiFactory",
          "type": "address"
        }
      ],
      "name": "setStakeDefiFactory",
      "outputs": [],
      "stateMutability": "nonpayable",
      "type": "function"
    },
    {
      "inputs": [
        {
          "internalType": "uint256",
          "name": "stakeType",
          "type": "uint256"
        },
        {
          "internalType": "address[4]",
          "name": "_addr",
          "type": "address[4]"
        },
        {
          "internalType": "address",
          "name": "registry",
          "type": "address"
        },
        {
          "internalType": "uint256[3]",
          "name": "_intdata",
          "type": "uint256[3]"
        }
      ],
      "name": "create",
      "outputs": [
        {
          "internalType": "address",
          "name": "",
          "type": "address"
        }
      ],
      "stateMutability": "nonpayable",
      "type": "function"
    }
  ],
  "bytecode": "0x60806040523480156200001157600080fd5b50604051620013c0380380620013c0833981810160405260608110156200003757600080fd5b50805160208201516040909201519091906001600160a01b038316158015906200006957506001600160a01b03821615155b620000bb576040805162461bcd60e51b815260206004820152601760248201527f5374616b65466163746f72793a20696e6974206661696c000000000000000000604482015290519081900360640190fd5b600180546001600160a01b038086166001600160a01b03199283161790925560028054858416908316179055600380549284169290911691909117905562000113600080516020620013a08339815191528062000137565b6200012e600080516020620013a08339815191523362000189565b5050506200029d565b600082815260208190526040808220600201549051839285917fbd79b86ffe0ab8e8776151514217cd7cacd52c909f66475c3af44e129f0b00ff9190a460009182526020829052604090912060020155565b62000195828262000199565b5050565b600082815260208181526040909120620001be91839062000ca762000212821b17901c565b156200019557620001ce62000232565b6001600160a01b0316816001600160a01b0316837f2f8788117e7eff1d82e926ec794901d17c78024a50270940304540a733656f0d60405160405180910390a45050565b600062000229836001600160a01b03841662000236565b90505b92915050565b3390565b600062000244838362000285565b6200027c575081546001818101845560008481526020808220909301849055845484825282860190935260409020919091556200022c565b5060006200022c565b60009081526001919091016020526040902054151590565b6110f380620002ad6000396000f3fe608060405234801561001057600080fd5b506004361061010b5760003560e01c806391d14854116100a2578063aaa5baf411610071578063aaa5baf41461029d578063ca15c873146102c3578063d547741f146102e0578063d6e9ac791461030c578063f2fde38b146103325761010b565b806391d1485414610227578063a217fddf14610267578063a4ae099a1461026f578063aa53f97e146102775761010b565b80632f2ff15d116100de5780632f2ff15d146101a257806336568abe146101d057806375b238fc146101fc5780639010d07c146102045761010b565b8063115c289b14610110578063179fda2f146101635780631b81fd361461016b578063248a9ca314610173575b600080fd5b610147600480360361012081101561012757600080fd5b5080359060208101906001600160a01b0360a0820135169060c001610358565b604080516001600160a01b039092168252519081900360200190f35b61014761078f565b61014761079e565b6101906004803603602081101561018957600080fd5b50356107ad565b60408051918252519081900360200190f35b6101ce600480360360408110156101b857600080fd5b50803590602001356001600160a01b03166107c2565b005b6101ce600480360360408110156101e657600080fd5b50803590602001356001600160a01b031661082e565b61019061088f565b6101476004803603604081101561021a57600080fd5b50803590602001356108a1565b6102536004803603604081101561023d57600080fd5b50803590602001356001600160a01b03166108c2565b604080519115158252519081900360200190f35b6101906108da565b6101476108df565b6101ce6004803603602081101561028d57600080fd5b50356001600160a01b03166108ee565b6101ce600480360360208110156102b357600080fd5b50356001600160a01b03166109b9565b610190600480360360208110156102d957600080fd5b5035610a84565b6101ce600480360360408110156102f657600080fd5b50803590602001356001600160a01b0316610a9b565b6101ce6004803603602081101561032257600080fd5b50356001600160a01b0316610af4565b6101ce6004803603602081101561034857600080fd5b50356001600160a01b0316610bbf565b6000610372600080516020611027833981519152336108c2565b6103b1576040805162461bcd60e51b815260206004820152601a6024820152600080516020611007833981519152604482015290519081900360640190fd5b6001600160a01b03604085013516610410576040805162461bcd60e51b815260206004820152601860248201527f5374616b65466163746f72793a207661756c74207a65726f0000000000000000604482015290519081900360640190fd5b84610537576002546001600160a01b031661045c5760405162461bcd60e51b8152600401808060200182810382526022815260200180610fe56022913960400191505060405180910390fd5b60025460405163ba3d304560e01b81526000916001600160a01b03169063ba3d304590879087908790339060040180856080808284376000838201526001600160a01b038716601f909101601f19169092019182525060200183606080828437600081840152601f19601f820116905080830192505050826001600160a01b03168152602001945050505050602060405180830381600087803b15801561050257600080fd5b505af1158015610516573d6000803e3d6000fd5b505050506040513d602081101561052c57600080fd5b505191506107879050565b8460011415610655576001546001600160a01b03166105875760405162461bcd60e51b815260040180806020018281038252602581526020018061106a6025913960400191505060405180910390fd5b60015460408051606080820183526001600160a01b038835811683526020808a01358216908401528884013581168385015292516301bea00960e31b81526000949390931692630df50048929187913391600490910190819085908083838c5b838110156105ff5781810151838201526020016105e7565b5050505090500183600360200280828437600081840152601f19601f820116905080830192505050826001600160a01b031681526020019350505050602060405180830381600087803b15801561050257600080fd5b8460021415610783576003546001600160a01b03166106a55760405162461bcd60e51b81526004018080602001828103825260238152602001806110476023913960400191505060405180910390fd5b60035460408051606080820183526001600160a01b038835811683526020808a01358216908401528884013581168385015292516306bd7feb60e01b815260009493909316926306bd7feb929188918891339160040190819086908083838d5b8381101561071d578181015183820152602001610705565b50505050905001846001600160a01b0316815260200183600360200280828437600081840152601f19601f820116905080830192505050826001600160a01b03168152602001945050505050602060405180830381600087803b15801561050257600080fd5b5060005b949350505050565b6002546001600160a01b031681565b6001546001600160a01b031681565b60009081526020819052604090206002015490565b6000828152602081905260409020600201546107e5906107e0610cbc565b6108c2565b6108205760405162461bcd60e51b815260040180806020018281038252602f815260200180610f86602f913960400191505060405180910390fd5b61082a8282610cc0565b5050565b610836610cbc565b6001600160a01b0316816001600160a01b0316146108855760405162461bcd60e51b815260040180806020018281038252602f81526020018061108f602f913960400191505060405180910390fd5b61082a8282610d29565b60008051602061102783398151915281565b60008281526020819052604081206108b99083610d92565b90505b92915050565b60008281526020819052604081206108b99083610d9e565b600081565b6003546001600160a01b031681565b610906600080516020611027833981519152336108c2565b610945576040805162461bcd60e51b815260206004820152601a6024820152600080516020611007833981519152604482015290519081900360640190fd5b806001600160a01b038116610996576040805162461bcd60e51b81526020600482015260126024820152715374616b65466163746f72793a207a65726f60701b604482015290519081900360640190fd5b50600280546001600160a01b0319166001600160a01b0392909216919091179055565b6109d1600080516020611027833981519152336108c2565b610a10576040805162461bcd60e51b815260206004820152601a6024820152600080516020611007833981519152604482015290519081900360640190fd5b806001600160a01b038116610a61576040805162461bcd60e51b81526020600482015260126024820152715374616b65466163746f72793a207a65726f60701b604482015290519081900360640190fd5b50600180546001600160a01b0319166001600160a01b0392909216919091179055565b60008181526020819052604081206108bc90610db3565b600082815260208190526040902060020154610ab9906107e0610cbc565b6108855760405162461bcd60e51b8152600401808060200182810382526030815260200180610fb56030913960400191505060405180910390fd5b610b0c600080516020611027833981519152336108c2565b610b4b576040805162461bcd60e51b815260206004820152601a6024820152600080516020611007833981519152604482015290519081900360640190fd5b806001600160a01b038116610b9c576040805162461bcd60e51b81526020600482015260126024820152715374616b65466163746f72793a207a65726f60701b604482015290519081900360640190fd5b50600380546001600160a01b0319166001600160a01b0392909216919091179055565b610bd7600080516020611027833981519152336108c2565b610c16576040805162461bcd60e51b815260206004820152601a6024820152600080516020611007833981519152604482015290519081900360640190fd5b336001600160a01b0382161415610c74576040805162461bcd60e51b815260206004820152601760248201527f5374616b65466163746f72793a73616d65206f776e6572000000000000000000604482015290519081900360640190fd5b610c8c600080516020611027833981519152826107c2565b610ca460008051602061102783398151915233610a9b565b50565b60006108b9836001600160a01b038416610dbe565b3390565b6000828152602081905260409020610cd89082610ca7565b1561082a57610ce5610cbc565b6001600160a01b0316816001600160a01b0316837f2f8788117e7eff1d82e926ec794901d17c78024a50270940304540a733656f0d60405160405180910390a45050565b6000828152602081905260409020610d419082610e08565b1561082a57610d4e610cbc565b6001600160a01b0316816001600160a01b0316837ff6391f5c32d9c69d2a47ea670b442974b53935d1edc7fd64eb21e047a839171b60405160405180910390a45050565b60006108b98383610e1d565b60006108b9836001600160a01b038416610e81565b60006108bc82610e99565b6000610dca8383610e81565b610e00575081546001818101845560008481526020808220909301849055845484825282860190935260409020919091556108bc565b5060006108bc565b60006108b9836001600160a01b038416610e9d565b81546000908210610e5f5760405162461bcd60e51b8152600401808060200182810382526022815260200180610f646022913960400191505060405180910390fd5b826000018281548110610e6e57fe5b9060005260206000200154905092915050565b60009081526001919091016020526040902054151590565b5490565b60008181526001830160205260408120548015610f595783546000198083019190810190600090879083908110610ed057fe5b9060005260206000200154905080876000018481548110610eed57fe5b600091825260208083209091019290925582815260018981019092526040902090840190558654879080610f1d57fe5b600190038181906000526020600020016000905590558660010160008781526020019081526020016000206000905560019450505050506108bc565b60009150506108bc56fe456e756d657261626c655365743a20696e646578206f7574206f6620626f756e6473416363657373436f6e74726f6c3a2073656e646572206d75737420626520616e2061646d696e20746f206772616e74416363657373436f6e74726f6c3a2073656e646572206d75737420626520616e2061646d696e20746f207265766f6b655374616b65466163746f72793a207374616b65544f4e466163746f7279207a65726f5374616b65466163746f72793a206e6f7420616e2061646d696e000000000000df8b4c520ffe197c5343c6f5aec59570151ef9a492f2c624fd45ddde6135ec425374616b65466163746f72793a207374616b6544656669466163746f7279207a65726f5374616b65466163746f72793a207374616b6553696d706c65466163746f7279207a65726f416363657373436f6e74726f6c3a2063616e206f6e6c792072656e6f756e636520726f6c657320666f722073656c66a26469706673582212201f0c8a28197953caf54f420c79a61c5dff5be36fade8fac2a33b4368727a31e764736f6c63430007060033df8b4c520ffe197c5343c6f5aec59570151ef9a492f2c624fd45ddde6135ec42",
  "immutableReferences": {},
  "source": "// SPDX-License-Identifier: MIT\npragma solidity ^0.7.6;\n\nimport \"../interfaces/IStakeFactory.sol\";\nimport {IStakeSimpleFactory} from \"../interfaces/IStakeSimpleFactory.sol\";\nimport {IStakeTONFactory} from \"../interfaces/IStakeTONFactory.sol\";\nimport {IStakeDefiFactory} from \"../interfaces/IStakeDefiFactory.sol\";\nimport \"@openzeppelin/contracts/access/AccessControl.sol\";\n\n/// @title A factory that calls the desired stake factory according to stakeType\ncontract StakeFactory is IStakeFactory, AccessControl {\n    bytes32 public constant ADMIN_ROLE = keccak256(\"ADMIN\");\n\n    address public stakeSimpleFactory;\n    address public stakeTONFactory;\n    address public stakeDefiFactory;\n\n    modifier onlyOwner() {\n        require(hasRole(ADMIN_ROLE, msg.sender), \"StakeFactory: not an admin\");\n        _;\n    }\n    modifier nonZero(address _addr) {\n        require(_addr != address(0), \"StakeFactory: zero\");\n        _;\n    }\n\n    /// @dev constructor of StakeFactory\n    /// @param _stakeSimpleFactory the logic address used in StakeSimpleFactory\n    /// @param _stakeTONFactory the logic address used in StakeTONFactory\n    /// @param _stakeTONFactory the logic address used in StakeTONFactory\n    constructor(\n        address _stakeSimpleFactory,\n        address _stakeTONFactory,\n        address _stakeDefiFactory\n    ) {\n        require(\n            _stakeSimpleFactory != address(0) && _stakeTONFactory != address(0),\n            \"StakeFactory: init fail\"\n        );\n        stakeSimpleFactory = _stakeSimpleFactory;\n        stakeTONFactory = _stakeTONFactory;\n        stakeDefiFactory = _stakeDefiFactory;\n        _setRoleAdmin(ADMIN_ROLE, ADMIN_ROLE);\n        _setupRole(ADMIN_ROLE, msg.sender);\n    }\n\n    /// @dev transfer Ownership\n    /// @param newOwner new owner address\n    function transferOwnership(address newOwner) external onlyOwner {\n        require(msg.sender != newOwner, \"StakeFactory:same owner\");\n        grantRole(ADMIN_ROLE, newOwner);\n        revokeRole(ADMIN_ROLE, msg.sender);\n    }\n\n    /// @dev Set StakeSimpleFactory address\n    /// @param _stakeSimpleFactory new StakeSimpleFactory address\n    function setStakeSimpleFactory(address _stakeSimpleFactory)\n        external\n        override\n        onlyOwner\n        nonZero(_stakeSimpleFactory)\n    {\n        stakeSimpleFactory = _stakeSimpleFactory;\n    }\n\n    /// @dev Set StakeTONFactory address\n    /// @param _stakeTONFactory new StakeTONFactory address\n    function setStakeTONFactory(address _stakeTONFactory)\n        external\n        override\n        onlyOwner\n        nonZero(_stakeTONFactory)\n    {\n        stakeTONFactory = _stakeTONFactory;\n    }\n\n    /// @dev Set StakeDefiFactory address\n    /// @param _stakeDefiFactory new StakeDefiFactory address\n    function setStakeDefiFactory(address _stakeDefiFactory)\n        external\n        override\n        onlyOwner\n        nonZero(_stakeDefiFactory)\n    {\n        stakeDefiFactory = _stakeDefiFactory;\n    }\n\n    /// @dev Create a stake contract that calls the desired stake factory according to stakeType\n    /// @param stakeType if 0, stakeTONFactory, else if 1 , stakeSimpleFactory , else if 2, stakeDefiFactory\n    /// @param _addr array of [token, paytoken, vault, _defiAddr]\n    /// @param registry  registry address\n    /// @param _intdata array of [saleStartBlock, startBlock, periodBlocks]\n    /// @return contract address\n    function create(\n        uint256 stakeType,\n        address[4] calldata _addr,\n        address registry,\n        uint256[3] calldata _intdata\n    ) external override onlyOwner returns (address) {\n        require(_addr[2] != address(0), \"StakeFactory: vault zero\");\n\n        if (stakeType == 0) {\n            // TON Staking\n            require(\n                stakeTONFactory != address(0),\n                \"StakeFactory: stakeTONFactory zero\"\n            );\n\n            address proxy =\n                IStakeTONFactory(stakeTONFactory).create(\n                    _addr,\n                    registry,\n                    _intdata,\n                    msg.sender\n                );\n\n            return proxy;\n        } else if (stakeType == 1) {\n            // ERC20 Simple Staking\n            require(\n                stakeSimpleFactory != address(0),\n                \"StakeFactory: stakeSimpleFactory zero\"\n            );\n\n            address proxy =\n                IStakeSimpleFactory(stakeSimpleFactory).create(\n                    [_addr[0], _addr[1], _addr[2]],\n                    _intdata,\n                    msg.sender\n                );\n\n            return proxy;\n        } else if (stakeType == 2) {\n            require(\n                stakeDefiFactory != address(0),\n                \"StakeFactory: stakeDefiFactory zero\"\n            );\n\n            address proxy =\n                IStakeDefiFactory(stakeDefiFactory).create(\n                    [_addr[0], _addr[1], _addr[2]],\n                    registry,\n                    _intdata,\n                    msg.sender\n                );\n\n            return proxy;\n        }\n\n        return address(0);\n    }\n}\n",
  "sourcePath": "/Users/zena/ico2.0/ico20-contracts/contracts/factory/StakeFactory.sol",
  "compiler": {
    "name": "solc",
    "version": "0.7.6+commit.7338295f.Emscripten.clang"
  },
  "schemaVersion": "3.3.4",
  "updatedAt": "2021-06-02T04:10:00.285Z",
  "devdoc": {
    "kind": "dev",
    "methods": {
      "constructor": {
        "details": "constructor of StakeFactory",
        "params": {
          "_stakeSimpleFactory": "the logic address used in StakeSimpleFactory",
          "_stakeTONFactory": "the logic address used in StakeTONFactory"
        }
      },
      "create(uint256,address[4],address,uint256[3])": {
        "details": "Create a stake contract that calls the desired stake factory according to stakeType",
        "params": {
          "_addr": "array of [token, paytoken, vault, _defiAddr]",
          "_intdata": "array of [saleStartBlock, startBlock, periodBlocks]",
          "registry": "registry address",
          "stakeType": "if 0, stakeTONFactory, else if 1 , stakeSimpleFactory , else if 2, stakeDefiFactory"
        },
        "returns": {
          "_0": "contract address"
        }
      },
      "getRoleAdmin(bytes32)": {
        "details": "Returns the admin role that controls `role`. See {grantRole} and {revokeRole}. To change a role's admin, use {_setRoleAdmin}."
      },
      "getRoleMember(bytes32,uint256)": {
        "details": "Returns one of the accounts that have `role`. `index` must be a value between 0 and {getRoleMemberCount}, non-inclusive. Role bearers are not sorted in any particular way, and their ordering may change at any point. WARNING: When using {getRoleMember} and {getRoleMemberCount}, make sure you perform all queries on the same block. See the following https://forum.openzeppelin.com/t/iterating-over-elements-on-enumerableset-in-openzeppelin-contracts/2296[forum post] for more information."
      },
      "getRoleMemberCount(bytes32)": {
        "details": "Returns the number of accounts that have `role`. Can be used together with {getRoleMember} to enumerate all bearers of a role."
      },
      "grantRole(bytes32,address)": {
        "details": "Grants `role` to `account`. If `account` had not been already granted `role`, emits a {RoleGranted} event. Requirements: - the caller must have ``role``'s admin role."
      },
      "hasRole(bytes32,address)": {
        "details": "Returns `true` if `account` has been granted `role`."
      },
      "renounceRole(bytes32,address)": {
        "details": "Revokes `role` from the calling account. Roles are often managed via {grantRole} and {revokeRole}: this function's purpose is to provide a mechanism for accounts to lose their privileges if they are compromised (such as when a trusted device is misplaced). If the calling account had been granted `role`, emits a {RoleRevoked} event. Requirements: - the caller must be `account`."
      },
      "revokeRole(bytes32,address)": {
        "details": "Revokes `role` from `account`. If `account` had been granted `role`, emits a {RoleRevoked} event. Requirements: - the caller must have ``role``'s admin role."
      },
      "setStakeDefiFactory(address)": {
        "details": "Set StakeDefiFactory address",
        "params": {
          "_stakeDefiFactory": "new StakeDefiFactory address"
        }
      },
      "setStakeSimpleFactory(address)": {
        "details": "Set StakeSimpleFactory address",
        "params": {
          "_stakeSimpleFactory": "new StakeSimpleFactory address"
        }
      },
      "setStakeTONFactory(address)": {
        "details": "Set StakeTONFactory address",
        "params": {
          "_stakeTONFactory": "new StakeTONFactory address"
        }
      },
      "transferOwnership(address)": {
        "details": "transfer Ownership",
        "params": {
          "newOwner": "new owner address"
        }
      }
    },
    "title": "A factory that calls the desired stake factory according to stakeType",
    "version": 1
  },
  "userdoc": {
    "kind": "user",
    "methods": {},
    "version": 1
  }
}