{
  "contractName": "Stake1Proxy",
  "abi": [
    {
      "inputs": [],
      "stateMutability": "nonpayable",
      "type": "constructor"
    },
    {
      "anonymous": false,
      "inputs": [
        {
          "indexed": true,
          "internalType": "bytes32",
          "name": "role",
          "type": "bytes32"
        },
        {
          "indexed": true,
          "internalType": "bytes32",
          "name": "previousAdminRole",
          "type": "bytes32"
        },
        {
          "indexed": true,
          "internalType": "bytes32",
          "name": "newAdminRole",
          "type": "bytes32"
        }
      ],
      "name": "RoleAdminChanged",
      "type": "event"
    },
    {
      "anonymous": false,
      "inputs": [
        {
          "indexed": true,
          "internalType": "bytes32",
          "name": "role",
          "type": "bytes32"
        },
        {
          "indexed": true,
          "internalType": "address",
          "name": "account",
          "type": "address"
        },
        {
          "indexed": true,
          "internalType": "address",
          "name": "sender",
          "type": "address"
        }
      ],
      "name": "RoleGranted",
      "type": "event"
    },
    {
      "anonymous": false,
      "inputs": [
        {
          "indexed": true,
          "internalType": "bytes32",
          "name": "role",
          "type": "bytes32"
        },
        {
          "indexed": true,
          "internalType": "address",
          "name": "account",
          "type": "address"
        },
        {
          "indexed": true,
          "internalType": "address",
          "name": "sender",
          "type": "address"
        }
      ],
      "name": "RoleRevoked",
      "type": "event"
    },
    {
      "anonymous": false,
      "inputs": [
        {
          "indexed": true,
          "internalType": "address",
          "name": "implementation",
          "type": "address"
        }
      ],
      "name": "Upgraded",
      "type": "event"
    },
    {
      "stateMutability": "payable",
      "type": "fallback"
    },
    {
      "inputs": [],
      "name": "ADMIN_ROLE",
      "outputs": [
        {
          "internalType": "bytes32",
          "name": "",
          "type": "bytes32"
        }
      ],
      "stateMutability": "view",
      "type": "function"
    },
    {
      "inputs": [],
      "name": "DEFAULT_ADMIN_ROLE",
      "outputs": [
        {
          "internalType": "bytes32",
          "name": "",
          "type": "bytes32"
        }
      ],
      "stateMutability": "view",
      "type": "function"
    },
    {
      "inputs": [],
      "name": "depositManager",
      "outputs": [
        {
          "internalType": "address",
          "name": "",
          "type": "address"
        }
      ],
      "stateMutability": "view",
      "type": "function"
    },
    {
      "inputs": [],
      "name": "fld",
      "outputs": [
        {
          "internalType": "address",
          "name": "",
          "type": "address"
        }
      ],
      "stateMutability": "view",
      "type": "function"
    },
    {
      "inputs": [
        {
          "internalType": "bytes32",
          "name": "role",
          "type": "bytes32"
        }
      ],
      "name": "getRoleAdmin",
      "outputs": [
        {
          "internalType": "bytes32",
          "name": "",
          "type": "bytes32"
        }
      ],
      "stateMutability": "view",
      "type": "function"
    },
    {
      "inputs": [
        {
          "internalType": "bytes32",
          "name": "role",
          "type": "bytes32"
        },
        {
          "internalType": "uint256",
          "name": "index",
          "type": "uint256"
        }
      ],
      "name": "getRoleMember",
      "outputs": [
        {
          "internalType": "address",
          "name": "",
          "type": "address"
        }
      ],
      "stateMutability": "view",
      "type": "function"
    },
    {
      "inputs": [
        {
          "internalType": "bytes32",
          "name": "role",
          "type": "bytes32"
        }
      ],
      "name": "getRoleMemberCount",
      "outputs": [
        {
          "internalType": "uint256",
          "name": "",
          "type": "uint256"
        }
      ],
      "stateMutability": "view",
      "type": "function"
    },
    {
      "inputs": [
        {
          "internalType": "bytes32",
          "name": "role",
          "type": "bytes32"
        },
        {
          "internalType": "address",
          "name": "account",
          "type": "address"
        }
      ],
      "name": "grantRole",
      "outputs": [],
      "stateMutability": "nonpayable",
      "type": "function"
    },
    {
      "inputs": [
        {
          "internalType": "bytes32",
          "name": "role",
          "type": "bytes32"
        },
        {
          "internalType": "address",
          "name": "account",
          "type": "address"
        }
      ],
      "name": "hasRole",
      "outputs": [
        {
          "internalType": "bool",
          "name": "",
          "type": "bool"
        }
      ],
      "stateMutability": "view",
      "type": "function"
    },
    {
      "inputs": [],
      "name": "pauseProxy",
      "outputs": [
        {
          "internalType": "bool",
          "name": "",
          "type": "bool"
        }
      ],
      "stateMutability": "view",
      "type": "function"
    },
    {
      "inputs": [
        {
          "internalType": "bytes32",
          "name": "role",
          "type": "bytes32"
        },
        {
          "internalType": "address",
          "name": "account",
          "type": "address"
        }
      ],
      "name": "renounceRole",
      "outputs": [],
      "stateMutability": "nonpayable",
      "type": "function"
    },
    {
      "inputs": [
        {
          "internalType": "bytes32",
          "name": "role",
          "type": "bytes32"
        },
        {
          "internalType": "address",
          "name": "account",
          "type": "address"
        }
      ],
      "name": "revokeRole",
      "outputs": [],
      "stateMutability": "nonpayable",
      "type": "function"
    },
    {
      "inputs": [],
      "name": "secondsPerBlock",
      "outputs": [
        {
          "internalType": "uint256",
          "name": "",
          "type": "uint256"
        }
      ],
      "stateMutability": "view",
      "type": "function"
    },
    {
      "inputs": [],
      "name": "seigManager",
      "outputs": [
        {
          "internalType": "address",
          "name": "",
          "type": "address"
        }
      ],
      "stateMutability": "view",
      "type": "function"
    },
    {
      "inputs": [],
      "name": "stakeFactory",
      "outputs": [
        {
          "internalType": "contract IStakeFactory",
          "name": "",
          "type": "address"
        }
      ],
      "stateMutability": "view",
      "type": "function"
    },
    {
      "inputs": [],
      "name": "stakeRegistry",
      "outputs": [
        {
          "internalType": "contract IStakeRegistry",
          "name": "",
          "type": "address"
        }
      ],
      "stateMutability": "view",
      "type": "function"
    },
    {
      "inputs": [],
      "name": "ton",
      "outputs": [
        {
          "internalType": "address",
          "name": "",
          "type": "address"
        }
      ],
      "stateMutability": "view",
      "type": "function"
    },
    {
      "inputs": [],
      "name": "wton",
      "outputs": [
        {
          "internalType": "address",
          "name": "",
          "type": "address"
        }
      ],
      "stateMutability": "view",
      "type": "function"
    },
    {
      "stateMutability": "payable",
      "type": "receive"
    },
    {
      "inputs": [
        {
          "internalType": "bool",
          "name": "_pause",
          "type": "bool"
        }
      ],
      "name": "setProxyPause",
      "outputs": [],
      "stateMutability": "nonpayable",
      "type": "function"
    },
    {
      "inputs": [
        {
          "internalType": "address",
          "name": "impl",
          "type": "address"
        }
      ],
      "name": "upgradeTo",
      "outputs": [],
      "stateMutability": "nonpayable",
      "type": "function"
    },
    {
      "inputs": [],
      "name": "implementation",
      "outputs": [
        {
          "internalType": "address",
          "name": "",
          "type": "address"
        }
      ],
      "stateMutability": "view",
      "type": "function"
    }
  ],
  "bytecode": "0x60806040523480156200001157600080fd5b506200002d60008051602062000f18833981519152806200006e565b6200004860008051602062000f1883398151915233620000c0565b6200006360008051602062000f1883398151915230620000c0565b600d600255620001d6565b600082815260086020526040808220600201549051839285917fbd79b86ffe0ab8e8776151514217cd7cacd52c909f66475c3af44e129f0b00ff9190a460009182526008602052604090912060020155565b620000cc8282620000d0565b5050565b6000828152600860209081526040909120620000f7918390620007906200014b821b17901c565b15620000cc57620001076200016b565b6001600160a01b0316816001600160a01b0316837f2f8788117e7eff1d82e926ec794901d17c78024a50270940304540a733656f0d60405160405180910390a45050565b600062000162836001600160a01b0384166200016f565b90505b92915050565b3390565b60006200017d8383620001be565b620001b55750815460018181018455600084815260208082209093018490558454848252828601909352604090209190915562000165565b50600062000165565b60009081526001919091016020526040902054151590565b610d3280620001e66000396000f3fe60806040526004361061012e5760003560e01c806375b238fc116100ab57806391d148541161006f57806391d14854146102f2578063a217fddf14610312578063ca15c87314610327578063cc48b94714610347578063d547741f1461035c578063dd196f181461037c5761013d565b806375b238fc146102735780637a7d4937146102885780637cb00d251461029d5780638d62d949146102bd5780639010d07c146102d25761013d565b80635c60da1b116100f25780635c60da1b146101fd57806363a8fd891461021257806368304835146102345780636c7ac9d8146102495780636fb7f5581461025e5761013d565b8063248a9ca3146101455780632f2ff15d1461017b57806333bd2a491461019b57806336568abe146101bd5780633659cfe6146101dd5761013d565b3661013d5761013b610391565b005b61013b610391565b34801561015157600080fd5b50610165610160366004610aa4565b610408565b6040516101729190610b27565b60405180910390f35b34801561018757600080fd5b5061013b610196366004610abc565b610420565b3480156101a757600080fd5b506101b0610487565b6040516101729190610b08565b3480156101c957600080fd5b5061013b6101d8366004610abc565b610496565b3480156101e957600080fd5b5061013b6101f8366004610a63565b6104f7565b34801561020957600080fd5b506101b06105db565b34801561021e57600080fd5b506102276105ea565b6040516101729190610b1c565b34801561024057600080fd5b506101b06105fa565b34801561025557600080fd5b506101b0610609565b34801561026a57600080fd5b506101b0610618565b34801561027f57600080fd5b50610165610627565b34801561029457600080fd5b5061016561064b565b3480156102a957600080fd5b5061013b6102b8366004610a7d565b610651565b3480156102c957600080fd5b506101b06106b5565b3480156102de57600080fd5b506101b06102ed366004610ae7565b6106c4565b3480156102fe57600080fd5b5061022761030d366004610abc565b6106e5565b34801561031e57600080fd5b506101656106fd565b34801561033357600080fd5b50610165610342366004610aa4565b610702565b34801561035357600080fd5b506101b0610719565b34801561036857600080fd5b5061013b610377366004610abc565b610728565b34801561038857600080fd5b506101b0610781565b600061039b6105db565b90506001600160a01b038116158015906103bf5750600954600160a01b900460ff16155b6103e45760405162461bcd60e51b81526004016103db90610b77565b60405180910390fd5b3660008037600080366000845af43d6000803e808015610403573d6000f35b3d6000fd5b6000818152600860205260409020600201545b919050565b60008281526008602052604090206002015461043e9061030d6107a5565b6104795760405162461bcd60e51b815260040180806020018281038252602f815260200180610c6f602f913960400191505060405180910390fd5b61048382826107a9565b5050565b6003546001600160a01b031681565b61049e6107a5565b6001600160a01b0316816001600160a01b0316146104ed5760405162461bcd60e51b815260040180806020018281038252602f815260200180610cce602f913960400191505060405180910390fd5b6104838282610812565b6105217fdf8b4c520ffe197c5343c6f5aec59570151ef9a492f2c624fd45ddde6135ec42336106e5565b61053d5760405162461bcd60e51b81526004016103db90610b30565b6001600160a01b0381166105635760405162461bcd60e51b81526004016103db90610c15565b6009546001600160a01b03828116911614156105915760405162461bcd60e51b81526004016103db90610bc2565b600980546001600160a01b0319166001600160a01b0383169081179091556040517fbc7cd75a20ee27fd9adebab32041f755214dbc6bffa90cc0225b39da2e5c2d3b90600090a250565b6009546001600160a01b031690565b600954600160a01b900460ff1681565b6000546001600160a01b031681565b6006546001600160a01b031681565b6007546001600160a01b031681565b7fdf8b4c520ffe197c5343c6f5aec59570151ef9a492f2c624fd45ddde6135ec4281565b60025481565b61067b7fdf8b4c520ffe197c5343c6f5aec59570151ef9a492f2c624fd45ddde6135ec42336106e5565b6106975760405162461bcd60e51b81526004016103db90610b30565b60098054911515600160a01b0260ff60a01b19909216919091179055565b6005546001600160a01b031681565b60008281526008602052604081206106dc908361087b565b90505b92915050565b60008281526008602052604081206106dc9083610887565b600081565b60008181526008602052604081206106df9061089c565b6004546001600160a01b031681565b6000828152600860205260409020600201546107469061030d6107a5565b6104ed5760405162461bcd60e51b8152600401808060200182810382526030815260200180610c9e6030913960400191505060405180910390fd5b6001546001600160a01b031681565b60006106dc836001600160a01b0384166108a7565b3390565b60008281526008602052604090206107c19082610790565b15610483576107ce6107a5565b6001600160a01b0316816001600160a01b0316837f2f8788117e7eff1d82e926ec794901d17c78024a50270940304540a733656f0d60405160405180910390a45050565b600082815260086020526040902061082a90826108f1565b15610483576108376107a5565b6001600160a01b0316816001600160a01b0316837ff6391f5c32d9c69d2a47ea670b442974b53935d1edc7fd64eb21e047a839171b60405160405180910390a45050565b60006106dc8383610906565b60006106dc836001600160a01b03841661096a565b60006106df82610982565b60006108b3838361096a565b6108e9575081546001818101845560008481526020808220909301849055845484825282860190935260409020919091556106df565b5060006106df565b60006106dc836001600160a01b038416610986565b815460009082106109485760405162461bcd60e51b8152600401808060200182810382526022815260200180610c4d6022913960400191505060405180910390fd5b82600001828154811061095757fe5b9060005260206000200154905092915050565b60009081526001919091016020526040902054151590565b5490565b60008181526001830160205260408120548015610a4257835460001980830191908101906000908790839081106109b957fe5b90600052602060002001549050808760000184815481106109d657fe5b600091825260208083209091019290925582815260018981019092526040902090840190558654879080610a0657fe5b600190038181906000526020600020016000905590558660010160008781526020019081526020016000206000905560019450505050506106df565b60009150506106df565b80356001600160a01b038116811461041b57600080fd5b600060208284031215610a74578081fd5b6106dc82610a4c565b600060208284031215610a8e578081fd5b81358015158114610a9d578182fd5b9392505050565b600060208284031215610ab5578081fd5b5035919050565b60008060408385031215610ace578081fd5b82359150610ade60208401610a4c565b90509250929050565b60008060408385031215610af9578182fd5b50508035926020909101359150565b6001600160a01b0391909116815260200190565b901515815260200190565b90815260200190565b60208082526027908201527f5374616b653150726f78793a206d73672e73656e646572206973206e6f742061604082015266371030b236b4b760c91b606082015260800190565b6020808252602b908201527f5374616b653150726f78793a20696d706c206973207a65726f204f522070726f60408201526a78792069732066616c736560a81b606082015260800190565b60208082526033908201527f5374616b653150726f78793a2054686520696e70757420616464726573732069604082015272732073616d652061732074686520737461746560681b606082015260800190565b6020808252601a908201527f5374616b653150726f78793a20696e707574206973207a65726f00000000000060408201526060019056fe456e756d657261626c655365743a20696e646578206f7574206f6620626f756e6473416363657373436f6e74726f6c3a2073656e646572206d75737420626520616e2061646d696e20746f206772616e74416363657373436f6e74726f6c3a2073656e646572206d75737420626520616e2061646d696e20746f207265766f6b65416363657373436f6e74726f6c3a2063616e206f6e6c792072656e6f756e636520726f6c657320666f722073656c66a264697066735822122032c71e5e70e6b129fb3658c6a73db5d7c22b2f0976f129d4d3ba4a053257438064736f6c63430007060033df8b4c520ffe197c5343c6f5aec59570151ef9a492f2c624fd45ddde6135ec42",
  "immutableReferences": {},
  "source": "// SPDX-License-Identifier: MIT\npragma solidity ^0.7.6;\npragma abicoder v2;\n\nimport \"./StakeProxyStorage.sol\";\nimport \"@openzeppelin/contracts/access/AccessControl.sol\";\n\n/// @title Proxy for Stake contracts in Phase 1\n/// @notice\ncontract Stake1Proxy is StakeProxyStorage, AccessControl {\n    bytes32 public constant ADMIN_ROLE = keccak256(\"ADMIN\");\n    address internal _implementation;\n    bool public pauseProxy;\n\n    event Upgraded(address indexed implementation);\n\n    modifier onlyOwner() {\n        require(\n            hasRole(ADMIN_ROLE, msg.sender),\n            \"Stake1Proxy: msg.sender is not an admin\"\n        );\n        _;\n    }\n\n    constructor() {\n        _setRoleAdmin(ADMIN_ROLE, ADMIN_ROLE);\n        _setupRole(ADMIN_ROLE, msg.sender);\n        _setupRole(ADMIN_ROLE, address(this));\n        secondsPerBlock = 13;\n    }\n\n    /// @notice Set pause state\n    /// @param _pause true:pause or false:resume\n    function setProxyPause(bool _pause) external onlyOwner {\n        pauseProxy = _pause;\n    }\n\n    /// @notice Set implementation contract\n    /// @param impl New implementation contract address\n    function upgradeTo(address impl) external onlyOwner {\n        require(impl != address(0), \"Stake1Proxy: input is zero\");\n        require(\n            _implementation != impl,\n            \"Stake1Proxy: The input address is same as the state\"\n        );\n        _implementation = impl;\n        emit Upgraded(impl);\n    }\n\n    /// @dev returns the implementation\n    function implementation() public view returns (address) {\n        return _implementation;\n    }\n\n    receive() external payable {\n        _fallback();\n    }\n\n    fallback() external payable{\n        _fallback();\n    }\n\n    function _fallback() internal {\n        address _impl = implementation();\n        require(\n            _impl != address(0) && !pauseProxy,\n            \"Stake1Proxy: impl is zero OR proxy is false\"\n        );\n\n        assembly {\n            // Copy msg.data. We take full control of memory in this inline assembly\n            // block because it will not return to Solidity code. We overwrite the\n            // Solidity scratch pad at memory position 0.\n            calldatacopy(0, 0, calldatasize())\n\n            // Call the implementation.\n            // out and outsize are 0 because we don't know the size yet.\n            let result := delegatecall(gas(), _impl, 0, calldatasize(), 0, 0)\n\n            // Copy the returned data.\n            returndatacopy(0, 0, returndatasize())\n\n            switch result\n                // delegatecall returns 0 on error.\n                case 0 {\n                    revert(0, returndatasize())\n                }\n                default {\n                    return(0, returndatasize())\n                }\n        }\n    }\n}\n",
  "sourcePath": "/Users/kadyrbeknarmamatov/code/ico20-contracts/contracts/stake/Stake1Proxy.sol",
  "compiler": {
    "name": "solc",
    "version": "0.7.6+commit.7338295f.Emscripten.clang"
  },
  "schemaVersion": "3.4.0",
  "updatedAt": "2021-05-11T06:57:40.639Z",
  "devdoc": {
    "kind": "dev",
    "methods": {
      "getRoleAdmin(bytes32)": {
        "details": "Returns the admin role that controls `role`. See {grantRole} and {revokeRole}. To change a role's admin, use {_setRoleAdmin}."
      },
      "getRoleMember(bytes32,uint256)": {
        "details": "Returns one of the accounts that have `role`. `index` must be a value between 0 and {getRoleMemberCount}, non-inclusive. Role bearers are not sorted in any particular way, and their ordering may change at any point. WARNING: When using {getRoleMember} and {getRoleMemberCount}, make sure you perform all queries on the same block. See the following https://forum.openzeppelin.com/t/iterating-over-elements-on-enumerableset-in-openzeppelin-contracts/2296[forum post] for more information."
      },
      "getRoleMemberCount(bytes32)": {
        "details": "Returns the number of accounts that have `role`. Can be used together with {getRoleMember} to enumerate all bearers of a role."
      },
      "grantRole(bytes32,address)": {
        "details": "Grants `role` to `account`. If `account` had not been already granted `role`, emits a {RoleGranted} event. Requirements: - the caller must have ``role``'s admin role."
      },
      "hasRole(bytes32,address)": {
        "details": "Returns `true` if `account` has been granted `role`."
      },
      "implementation()": {
        "details": "returns the implementation"
      },
      "renounceRole(bytes32,address)": {
        "details": "Revokes `role` from the calling account. Roles are often managed via {grantRole} and {revokeRole}: this function's purpose is to provide a mechanism for accounts to lose their privileges if they are compromised (such as when a trusted device is misplaced). If the calling account had been granted `role`, emits a {RoleRevoked} event. Requirements: - the caller must be `account`."
      },
      "revokeRole(bytes32,address)": {
        "details": "Revokes `role` from `account`. If `account` had been granted `role`, emits a {RoleRevoked} event. Requirements: - the caller must have ``role``'s admin role."
      },
      "setProxyPause(bool)": {
        "params": {
          "_pause": "true:pause or false:resume"
        }
      },
      "upgradeTo(address)": {
        "params": {
          "impl": "New implementation contract address"
        }
      }
    },
    "title": "Proxy for Stake contracts in Phase 1",
    "version": 1
  },
  "userdoc": {
    "kind": "user",
    "methods": {
      "setProxyPause(bool)": {
        "notice": "Set pause state"
      },
      "upgradeTo(address)": {
        "notice": "Set implementation contract"
      }
    },
    "version": 1
  }
}