{
  "contractName": "StakeDefiFactory",
  "abi": [
    {
      "inputs": [
        {
          "internalType": "address",
          "name": "_stakeDefiLogic",
          "type": "address"
        }
      ],
      "stateMutability": "nonpayable",
      "type": "constructor"
    },
    {
      "inputs": [],
      "name": "ADMIN_ROLE",
      "outputs": [
        {
          "internalType": "bytes32",
          "name": "",
          "type": "bytes32"
        }
      ],
      "stateMutability": "view",
      "type": "function"
    },
    {
      "inputs": [],
      "name": "stakeDefiLogic",
      "outputs": [
        {
          "internalType": "address",
          "name": "",
          "type": "address"
        }
      ],
      "stateMutability": "view",
      "type": "function"
    },
    {
      "inputs": [
        {
          "internalType": "address[3]",
          "name": "_addr",
          "type": "address[3]"
        },
        {
          "internalType": "address",
          "name": "_registry",
          "type": "address"
        },
        {
          "internalType": "uint256[3]",
          "name": "_intdata",
          "type": "uint256[3]"
        },
        {
          "internalType": "address",
          "name": "owner",
          "type": "address"
        }
      ],
      "name": "create",
      "outputs": [
        {
          "internalType": "address",
          "name": "",
          "type": "address"
        }
      ],
      "stateMutability": "nonpayable",
      "type": "function"
    }
  ],
  "bytecode": "0x608060405234801561001057600080fd5b506040516117af3803806117af8339818101604052602081101561003357600080fd5b50516001600160a01b038116610090576040805162461bcd60e51b815260206004820152601c60248201527f5374616b6544656669466163746f72793a206c6f676963207a65726f00000000604482015290519081900360640190fd5b600080546001600160a01b039092166001600160a01b03199092169190911790556116ef806100c06000396000f3fe608060405234801561001057600080fd5b50600436106100415760003560e01c806306bd7feb1461004657806375b238fc1461009a578063b9eb37e4146100b4575b600080fd5b61007e600480360361010081101561005d57600080fd5b506001600160a01b036060820135811690608083019060e0840135166100bc565b604080516001600160a01b039092168252519081900360200190f35b6100a2610304565b60408051918252519081900360200190f35b61007e610316565b6000805460405182916001600160a01b0316906100d890610325565b6001600160a01b03909116815260405190819003602001906000f080158015610105573d6000803e3d6000fd5b5090506001600160a01b038116610163576040805162461bcd60e51b815260206004820152601c60248201527f5374616b6544656669466163746f72793a2070726f7879207a65726f00000000604482015290519081900360640190fd5b60405163eea9bb3960e01b81526001600160a01b0382169063eea9bb399088908890889060040180846060808284376000838201526001600160a01b038616601f909101601f19169092019182525060200182606080828437600081840152601f19601f8201169050808301925050509350505050600060405180830381600087803b1580156101f257600080fd5b505af1158015610206573d6000803e3d6000fd5b50505050806001600160a01b0316632f2ff15d60008051602061169a833981519152856040518363ffffffff1660e01b815260040180838152602001826001600160a01b0316815260200192505050600060405180830381600087803b15801561026f57600080fd5b505af1158015610283573d6000803e3d6000fd5b50506040805163d547741f60e01b815260008051602061169a833981519152600482015230602482015290516001600160a01b038516935063d547741f9250604480830192600092919082900301818387803b1580156102e257600080fd5b505af11580156102f6573d6000803e3d6000fd5b509298975050505050505050565b60008051602061169a83398151915281565b6000546001600160a01b031681565b611367806103338339019056fe60806040523480156200001157600080fd5b506040516200136738038062001367833981810160405260208110156200003757600080fd5b5051620000546000805160206200134783398151915280620000b0565b6200006f600080516020620013478339815191523362000102565b6200008a600080516020620013478339815191523062000102565b600d80546001600160a01b0319166001600160a01b039290921691909117905562000218565b6000828152600c6020526040808220600201549051839285917fbd79b86ffe0ab8e8776151514217cd7cacd52c909f66475c3af44e129f0b00ff9190a46000918252600c602052604090912060020155565b6200010e828262000112565b5050565b6000828152600c602090815260409091206200013991839062000d2f6200018d821b17901c565b156200010e5762000149620001ad565b6001600160a01b0316816001600160a01b0316837f2f8788117e7eff1d82e926ec794901d17c78024a50270940304540a733656f0d60405160405180910390a45050565b6000620001a4836001600160a01b038416620001b1565b90505b92915050565b3390565b6000620001bf838362000200565b620001f757508154600181810184556000848152602080822090930184905584548482528286019093526040902091909155620001a7565b506000620001a7565b60009081526001919091016020526040902054151590565b61111f80620002286000396000f3fe6080604052600436106101705760003560e01c80637cb00d25116100cc578063ca15c8731161007a578063ca15c87314610496578063d547741f146104c0578063dac3fc3f146104f9578063eea9bb391461052c578063f2fde38b146105cb578063fbfa77cf146105fe578063fc0c546a146106135761017f565b80637cb00d251461035557806386989038146103815780639010d07c1461039657806391d14854146103c6578063a217fddf146103ff578063acc3a93914610414578063b2d4d6a3146104815761017f565b806343b0934a1161012957806343b0934a1461029257806348cd4cb1146102c3578063567e98f9146102d85780635c60da1b146102ed57806363a8fd8914610302578063683048351461032b57806375b238fc146103405761017f565b8063083c63231461018757806320027275146101ae578063248a9ca3146101c35780632f2ff15d146101ed57806336568abe146102265780633659cfe61461025f5761017f565b3661017f5761017d610628565b005b61017d610628565b34801561019357600080fd5b5061019c6106b5565b60408051918252519081900360200190f35b3480156101ba57600080fd5b5061019c6106bb565b3480156101cf57600080fd5b5061019c600480360360208110156101e657600080fd5b50356106c1565b3480156101f957600080fd5b5061017d6004803603604081101561021057600080fd5b50803590602001356001600160a01b03166106d6565b34801561023257600080fd5b5061017d6004803603604081101561024957600080fd5b50803590602001356001600160a01b0316610742565b34801561026b57600080fd5b5061017d6004803603602081101561028257600080fd5b50356001600160a01b03166107a3565b34801561029e57600080fd5b506102a76108ec565b604080516001600160a01b039092168252519081900360200190f35b3480156102cf57600080fd5b5061019c6108fb565b3480156102e457600080fd5b5061019c610901565b3480156102f957600080fd5b506102a7610907565b34801561030e57600080fd5b50610317610916565b604080519115158252519081900360200190f35b34801561033757600080fd5b506102a7610926565b34801561034c57600080fd5b5061019c610935565b34801561036157600080fd5b5061017d6004803603602081101561037857600080fd5b50351515610947565b34801561038d57600080fd5b5061019c6109bd565b3480156103a257600080fd5b506102a7600480360360408110156103b957600080fd5b50803590602001356109c3565b3480156103d257600080fd5b50610317600480360360408110156103e957600080fd5b50803590602001356001600160a01b03166109e4565b34801561040b57600080fd5b5061019c6109fc565b34801561042057600080fd5b506104476004803603602081101561043757600080fd5b50356001600160a01b0316610a01565b604080519788526020880196909652868601949094526060860192909252608085015260a0840152151560c0830152519081900360e00190f35b34801561048d57600080fd5b5061019c610a41565b3480156104a257600080fd5b5061019c600480360360208110156104b957600080fd5b5035610a47565b3480156104cc57600080fd5b5061017d600480360360408110156104e357600080fd5b50803590602001356001600160a01b0316610a5e565b34801561050557600080fd5b506104476004803603602081101561051c57600080fd5b50356001600160a01b0316610ab7565b34801561053857600080fd5b5061017d600480360360e081101561054f57600080fd5b81019080806060019060038060200260405190810160405280929190826003602002808284376000920191909152505060408051606081810190925292956001600160a01b038535169590949093608082019350916020909101906003908390839080828437600092019190915250919450610b009350505050565b3480156105d757600080fd5b5061017d600480360360208110156105ee57600080fd5b50356001600160a01b0316610c2c565b34801561060a57600080fd5b506102a7610d11565b34801561061f57600080fd5b506102a7610d20565b6000610632610907565b90506001600160a01b038116158015906106565750600d54600160a01b900460ff16155b6106915760405162461bcd60e51b815260040180806020018281038252602e81526020018061108d602e913960400191505060405180910390fd5b3660008037600080366000845af43d6000803e8080156106b0573d6000f35b3d6000fd5b60065481565b60045481565b6000908152600c602052604090206002015490565b6000828152600c60205260409020600201546106f9906106f4610d44565b6109e4565b6107345760405162461bcd60e51b815260040180806020018281038252602f81526020018061100e602f913960400191505060405180910390fd5b61073e8282610d48565b5050565b61074a610d44565b6001600160a01b0316816001600160a01b0316146107995760405162461bcd60e51b815260040180806020018281038252602f8152602001806110bb602f913960400191505060405180910390fd5b61073e8282610db1565b6107bb60008051602061106d833981519152336109e4565b6107fb576040805162461bcd60e51b815260206004820152600c60248201526b3737ba1030b71030b236b4b760a11b604482015290519081900360640190fd5b6001600160a01b038116610856576040805162461bcd60e51b815260206004820152601d60248201527f5374616b654465666950726f78793a20696e707574206973207a65726f000000604482015290519081900360640190fd5b600d546001600160a01b03828116911614156108a2576040805162461bcd60e51b8152602060048083019190915260248201526373616d6560e01b604482015290519081900360640190fd5b600d80546001600160a01b0319166001600160a01b0383169081179091556040517fbc7cd75a20ee27fd9adebab32041f755214dbc6bffa90cc0225b39da2e5c2d3b90600090a250565b6002546001600160a01b031681565b60055481565b60085481565b600d546001600160a01b031690565b600d54600160a01b900460ff1681565b6001546001600160a01b031681565b60008051602061106d83398151915281565b61095f60008051602061106d833981519152336109e4565b61099f576040805162461bcd60e51b815260206004820152600c60248201526b3737ba1030b71030b236b4b760a11b604482015290519081900360640190fd5b600d8054911515600160a01b0260ff60a01b19909216919091179055565b600a5481565b6000828152600c602052604081206109db9083610e1a565b90505b92915050565b6000828152600c602052604081206109db9083610e26565b600081565b6009602052600090815260409020805460018201546002830154600384015460048501546005860154600690960154949593949293919290919060ff1687565b60075481565b6000818152600c602052604081206109de90610e3b565b6000828152600c6020526040902060020154610a7c906106f4610d44565b6107995760405162461bcd60e51b815260040180806020018281038252603081526020018061103d6030913960400191505060405180910390fd5b6001600160a01b03166000908152600960205260409020805460018201546002830154600384015460048501546005860154600690960154949693959294919390929160ff1690565b610b1860008051602061106d833981519152336109e4565b610b58576040805162461bcd60e51b815260206004820152600c60248201526b3737ba1030b71030b236b4b760a11b604482015290519081900360640190fd5b60408301516001600160a01b031615801590610b78575060208101518151105b610bb8576040805162461bcd60e51b815260206004820152600c60248201526b1cd95d125b9a5d0819985a5b60a21b604482015290519081900360640190fd5b8251600080546001600160a01b03199081166001600160a01b0393841617909155602080860151600280548416918516919091179055604095860151600380548416918516919091179055600180549092169490921693909317909255805160045590810151600581905591015101600655565b610c4460008051602061106d833981519152336109e4565b610c84576040805162461bcd60e51b815260206004820152600c60248201526b3737ba1030b71030b236b4b760a11b604482015290519081900360640190fd5b336001600160a01b0382161415610cde576040805162461bcd60e51b815260206004820152601960248201527829ba30b5b2a232b334a83937bc3c9d39b0b6b29037bbb732b960391b604482015290519081900360640190fd5b610cf660008051602061106d833981519152826106d6565b610d0e60008051602061106d83398151915233610a5e565b50565b6003546001600160a01b031681565b6000546001600160a01b031681565b60006109db836001600160a01b038416610e46565b3390565b6000828152600c60205260409020610d609082610d2f565b1561073e57610d6d610d44565b6001600160a01b0316816001600160a01b0316837f2f8788117e7eff1d82e926ec794901d17c78024a50270940304540a733656f0d60405160405180910390a45050565b6000828152600c60205260409020610dc99082610e90565b1561073e57610dd6610d44565b6001600160a01b0316816001600160a01b0316837ff6391f5c32d9c69d2a47ea670b442974b53935d1edc7fd64eb21e047a839171b60405160405180910390a45050565b60006109db8383610ea5565b60006109db836001600160a01b038416610f09565b60006109de82610f21565b6000610e528383610f09565b610e88575081546001818101845560008481526020808220909301849055845484825282860190935260409020919091556109de565b5060006109de565b60006109db836001600160a01b038416610f25565b81546000908210610ee75760405162461bcd60e51b8152600401808060200182810382526022815260200180610fec6022913960400191505060405180910390fd5b826000018281548110610ef657fe5b9060005260206000200154905092915050565b60009081526001919091016020526040902054151590565b5490565b60008181526001830160205260408120548015610fe15783546000198083019190810190600090879083908110610f5857fe5b9060005260206000200154905080876000018481548110610f7557fe5b600091825260208083209091019290925582815260018981019092526040902090840190558654879080610fa557fe5b600190038181906000526020600020016000905590558660010160008781526020019081526020016000206000905560019450505050506109de565b60009150506109de56fe456e756d657261626c655365743a20696e646578206f7574206f6620626f756e6473416363657373436f6e74726f6c3a2073656e646572206d75737420626520616e2061646d696e20746f206772616e74416363657373436f6e74726f6c3a2073656e646572206d75737420626520616e2061646d696e20746f207265766f6b65df8b4c520ffe197c5343c6f5aec59570151ef9a492f2c624fd45ddde6135ec425374616b654465666950726f78793a20696d706c206973207a65726f204f522070726f78792069732066616c7365416363657373436f6e74726f6c3a2063616e206f6e6c792072656e6f756e636520726f6c657320666f722073656c66a2646970667358221220f09740d3804e21e1055f7a1f52b36712c5ebde90a11c546330b7bb8873cfd6d064736f6c63430007060033df8b4c520ffe197c5343c6f5aec59570151ef9a492f2c624fd45ddde6135ec42df8b4c520ffe197c5343c6f5aec59570151ef9a492f2c624fd45ddde6135ec42a2646970667358221220251d6d8427beaa0c89008d50bdbd9e27772cdb45cab1443c3e4317fa90ed471c64736f6c63430007060033",
  "immutableReferences": {},
  "source": "// SPDX-License-Identifier: MIT\npragma solidity ^0.7.6;\n\nimport \"../interfaces/IStakeDefiFactory.sol\";\nimport {StakeDefiProxy} from \"../stake/StakeDefiProxy.sol\";\n\n/// @title A factory that creates a stake contract that can function as a DeFi function\ncontract StakeDefiFactory is IStakeDefiFactory {\n    bytes32 public constant ADMIN_ROLE = keccak256(\"ADMIN\");\n    address public stakeDefiLogic;\n\n    /// @dev constructor of StakeDefiFactory\n    /// @param _stakeDefiLogic the logic address used in StakeDefiFactory\n    constructor(address _stakeDefiLogic) {\n        require(_stakeDefiLogic != address(0), \"StakeDefiFactory: logic zero\");\n        stakeDefiLogic = _stakeDefiLogic;\n    }\n\n    /// @dev Create a stake contract that can operate the staked amount as a DeFi project.\n    /// @param _addr array of [token, paytoken, vault]\n    /// @param _registry  registry address\n    /// @param _intdata array of [saleStartBlock, startBlock, periodBlocks]\n    /// @param owner  owner address\n    /// @return contract address\n    function create(\n        address[3] calldata _addr,\n        address _registry,\n        uint256[3] calldata _intdata,\n        address owner\n    ) external override returns (address) {\n        StakeDefiProxy proxy = new StakeDefiProxy(stakeDefiLogic);\n        require(address(proxy) != address(0), \"StakeDefiFactory: proxy zero\");\n\n        proxy.setInit(_addr, _registry, _intdata);\n        proxy.grantRole(ADMIN_ROLE, owner);\n        proxy.revokeRole(ADMIN_ROLE, address(this));\n\n        return address(proxy);\n    }\n}\n",
  "sourcePath": "/Users/zena/ico2.0/ico20-contracts/contracts/factory/StakeDefiFactory.sol",
  "compiler": {
    "name": "solc",
    "version": "0.7.6+commit.7338295f.Emscripten.clang"
  },
  "schemaVersion": "3.3.4",
  "updatedAt": "2021-06-04T11:18:58.878Z",
  "devdoc": {
    "kind": "dev",
    "methods": {
      "constructor": {
        "details": "constructor of StakeDefiFactory",
        "params": {
          "_stakeDefiLogic": "the logic address used in StakeDefiFactory"
        }
      },
      "create(address[3],address,uint256[3],address)": {
        "details": "Create a stake contract that can operate the staked amount as a DeFi project.",
        "params": {
          "_addr": "array of [token, paytoken, vault]",
          "_intdata": "array of [saleStartBlock, startBlock, periodBlocks]",
          "_registry": "registry address",
          "owner": "owner address"
        },
        "returns": {
          "_0": "contract address"
        }
      }
    },
    "title": "A factory that creates a stake contract that can function as a DeFi function",
    "version": 1
  },
  "userdoc": {
    "kind": "user",
    "methods": {},
    "version": 1
  }
}