{
  "contractName": "Stake1Storage",
  "abi": [
    {
      "inputs": [],
      "name": "endBlock",
      "outputs": [
        {
          "internalType": "uint256",
          "name": "",
          "type": "uint256"
        }
      ],
      "stateMutability": "view",
      "type": "function"
    },
    {
      "inputs": [],
      "name": "paytoken",
      "outputs": [
        {
          "internalType": "address",
          "name": "",
          "type": "address"
        }
      ],
      "stateMutability": "view",
      "type": "function"
    },
    {
      "inputs": [],
      "name": "rewardClaimedTotal",
      "outputs": [
        {
          "internalType": "uint256",
          "name": "",
          "type": "uint256"
        }
      ],
      "stateMutability": "view",
      "type": "function"
    },
    {
      "inputs": [],
      "name": "saleStartBlock",
      "outputs": [
        {
          "internalType": "uint256",
          "name": "",
          "type": "uint256"
        }
      ],
      "stateMutability": "view",
      "type": "function"
    },
    {
      "inputs": [],
      "name": "startBlock",
      "outputs": [
        {
          "internalType": "uint256",
          "name": "",
          "type": "uint256"
        }
      ],
      "stateMutability": "view",
      "type": "function"
    },
    {
      "inputs": [],
      "name": "token",
      "outputs": [
        {
          "internalType": "address",
          "name": "",
          "type": "address"
        }
      ],
      "stateMutability": "view",
      "type": "function"
    },
    {
      "inputs": [],
      "name": "totalStakedAmount",
      "outputs": [
        {
          "internalType": "uint256",
          "name": "",
          "type": "uint256"
        }
      ],
      "stateMutability": "view",
      "type": "function"
    },
    {
      "inputs": [
        {
          "internalType": "address",
          "name": "",
          "type": "address"
        }
      ],
      "name": "userStaked",
      "outputs": [
        {
          "internalType": "uint256",
          "name": "amount",
          "type": "uint256"
        },
        {
          "internalType": "uint256",
          "name": "claimedBlock",
          "type": "uint256"
        },
        {
          "internalType": "uint256",
          "name": "claimedAmount",
          "type": "uint256"
        },
        {
          "internalType": "uint256",
          "name": "releasedBlock",
          "type": "uint256"
        },
        {
          "internalType": "uint256",
          "name": "releasedAmount",
          "type": "uint256"
        },
        {
          "internalType": "bool",
          "name": "released",
          "type": "bool"
        }
      ],
      "stateMutability": "view",
      "type": "function"
    },
    {
      "inputs": [],
      "name": "vault",
      "outputs": [
        {
          "internalType": "address",
          "name": "",
          "type": "address"
        }
      ],
      "stateMutability": "view",
      "type": "function"
    }
  ],
  "bytecode": "0x608060405234801561001057600080fd5b5061021a806100206000396000f3fe608060405234801561001057600080fd5b50600436106100935760003560e01c8063567e98f911610066578063567e98f9146100e6578063acc3a939146100ee578063b2d4d6a314610149578063fbfa77cf14610151578063fc0c546a1461015957610093565b8063083c63231461009857806320027275146100b257806343b0934a146100ba57806348cd4cb1146100de575b600080fd5b6100a0610161565b60408051918252519081900360200190f35b6100a0610167565b6100c261016d565b604080516001600160a01b039092168252519081900360200190f35b6100a061017c565b6100a0610182565b6101146004803603602081101561010457600080fd5b50356001600160a01b0316610188565b6040805196875260208701959095528585019390935260608501919091526080840152151560a0830152519081900360c00190f35b6100a06101c0565b6100c26101c6565b6100c26101d5565b60055481565b60035481565b6001546001600160a01b031681565b60045481565b60075481565b600860205260009081526040902080546001820154600283015460038401546004850154600590950154939492939192909160ff1686565b60065481565b6002546001600160a01b031681565b6000546001600160a01b03168156fea2646970667358221220dc063d923608d4979728610500764182f16bf7e89adbe1bc60d3e3340952015764736f6c63430007060033",
  "immutableReferences": {},
  "source": "//SPDX-License-Identifier: Unlicense\npragma solidity ^0.7.6;\n\n//import { IERC20 } from \"../interfaces/IERC20.sol\";\nimport \"../libraries/LibTokenStake1.sol\";\n\ncontract Stake1Storage {\n    // The token being sold\n    address public token;\n\n    // The paytoken payed ( if paytoken is ether, paytoken is address(0) )\n    address public paytoken;\n    address public vault;\n\n    // start and end timestamps where mining are allowed (both inclusive)\n    uint256 public saleStartBlock;\n    uint256 public startBlock;\n    uint256 public endBlock;\n\n    // amount of raised FLD in wei unit, (reward/mining FLD )\n    uint256 public rewardClaimedTotal;\n    uint256 public totalStakedAmount;\n\n    // the current lock storage of your account.\n    mapping(address => LibTokenStake1.StakedAmount) public userStaked;\n    uint256 internal _lock;\n}\n",
  "sourcePath": "/Users/kadyrbeknarmamatov/code/ico20-contracts/contracts/stake/Stake1Storage.sol",
  "compiler": {
    "name": "solc",
    "version": "0.7.6+commit.7338295f.Emscripten.clang"
  },
  "schemaVersion": "3.4.0",
  "updatedAt": "2021-05-10T09:27:57.863Z",
  "devdoc": {
    "kind": "dev",
    "methods": {},
    "version": 1
  },
  "userdoc": {
    "kind": "user",
    "methods": {},
    "version": 1
  }
}