{
  "contractName": "StakeForStableCoin",
  "abi": [
    {
      "inputs": [],
      "stateMutability": "nonpayable",
      "type": "constructor"
    },
    {
      "anonymous": false,
      "inputs": [
        {
          "indexed": true,
          "internalType": "address",
          "name": "from",
          "type": "address"
        },
        {
          "indexed": false,
          "internalType": "uint256",
          "name": "amount",
          "type": "uint256"
        },
        {
          "indexed": false,
          "internalType": "uint256",
          "name": "currentBlcok",
          "type": "uint256"
        }
      ],
      "name": "Claimed",
      "type": "event"
    },
    {
      "anonymous": false,
      "inputs": [
        {
          "indexed": true,
          "internalType": "bytes32",
          "name": "role",
          "type": "bytes32"
        },
        {
          "indexed": true,
          "internalType": "bytes32",
          "name": "previousAdminRole",
          "type": "bytes32"
        },
        {
          "indexed": true,
          "internalType": "bytes32",
          "name": "newAdminRole",
          "type": "bytes32"
        }
      ],
      "name": "RoleAdminChanged",
      "type": "event"
    },
    {
      "anonymous": false,
      "inputs": [
        {
          "indexed": true,
          "internalType": "bytes32",
          "name": "role",
          "type": "bytes32"
        },
        {
          "indexed": true,
          "internalType": "address",
          "name": "account",
          "type": "address"
        },
        {
          "indexed": true,
          "internalType": "address",
          "name": "sender",
          "type": "address"
        }
      ],
      "name": "RoleGranted",
      "type": "event"
    },
    {
      "anonymous": false,
      "inputs": [
        {
          "indexed": true,
          "internalType": "bytes32",
          "name": "role",
          "type": "bytes32"
        },
        {
          "indexed": true,
          "internalType": "address",
          "name": "account",
          "type": "address"
        },
        {
          "indexed": true,
          "internalType": "address",
          "name": "sender",
          "type": "address"
        }
      ],
      "name": "RoleRevoked",
      "type": "event"
    },
    {
      "anonymous": false,
      "inputs": [
        {
          "indexed": true,
          "internalType": "address",
          "name": "from",
          "type": "address"
        },
        {
          "indexed": true,
          "internalType": "address",
          "name": "to",
          "type": "address"
        },
        {
          "indexed": false,
          "internalType": "uint256",
          "name": "amount",
          "type": "uint256"
        },
        {
          "indexed": false,
          "internalType": "uint256",
          "name": "currentBlcok",
          "type": "uint256"
        }
      ],
      "name": "Withdrawal",
      "type": "event"
    },
    {
      "inputs": [],
      "name": "ADMIN_ROLE",
      "outputs": [
        {
          "internalType": "bytes32",
          "name": "",
          "type": "bytes32"
        }
      ],
      "stateMutability": "view",
      "type": "function"
    },
    {
      "inputs": [],
      "name": "DEFAULT_ADMIN_ROLE",
      "outputs": [
        {
          "internalType": "bytes32",
          "name": "",
          "type": "bytes32"
        }
      ],
      "stateMutability": "view",
      "type": "function"
    },
    {
      "inputs": [
        {
          "internalType": "uint256",
          "name": "amount",
          "type": "uint256"
        }
      ],
      "name": "approveYearnV2Vault",
      "outputs": [],
      "stateMutability": "nonpayable",
      "type": "function"
    },
    {
      "inputs": [],
      "name": "endBlock",
      "outputs": [
        {
          "internalType": "uint256",
          "name": "",
          "type": "uint256"
        }
      ],
      "stateMutability": "view",
      "type": "function"
    },
    {
      "inputs": [
        {
          "internalType": "bytes32",
          "name": "role",
          "type": "bytes32"
        }
      ],
      "name": "getRoleAdmin",
      "outputs": [
        {
          "internalType": "bytes32",
          "name": "",
          "type": "bytes32"
        }
      ],
      "stateMutability": "view",
      "type": "function"
    },
    {
      "inputs": [
        {
          "internalType": "bytes32",
          "name": "role",
          "type": "bytes32"
        },
        {
          "internalType": "uint256",
          "name": "index",
          "type": "uint256"
        }
      ],
      "name": "getRoleMember",
      "outputs": [
        {
          "internalType": "address",
          "name": "",
          "type": "address"
        }
      ],
      "stateMutability": "view",
      "type": "function"
    },
    {
      "inputs": [
        {
          "internalType": "bytes32",
          "name": "role",
          "type": "bytes32"
        }
      ],
      "name": "getRoleMemberCount",
      "outputs": [
        {
          "internalType": "uint256",
          "name": "",
          "type": "uint256"
        }
      ],
      "stateMutability": "view",
      "type": "function"
    },
    {
      "inputs": [
        {
          "internalType": "bytes32",
          "name": "role",
          "type": "bytes32"
        },
        {
          "internalType": "address",
          "name": "account",
          "type": "address"
        }
      ],
      "name": "grantRole",
      "outputs": [],
      "stateMutability": "nonpayable",
      "type": "function"
    },
    {
      "inputs": [
        {
          "internalType": "bytes32",
          "name": "role",
          "type": "bytes32"
        },
        {
          "internalType": "address",
          "name": "account",
          "type": "address"
        }
      ],
      "name": "hasRole",
      "outputs": [
        {
          "internalType": "bool",
          "name": "",
          "type": "bool"
        }
      ],
      "stateMutability": "view",
      "type": "function"
    },
    {
      "inputs": [],
      "name": "paytoken",
      "outputs": [
        {
          "internalType": "address",
          "name": "",
          "type": "address"
        }
      ],
      "stateMutability": "view",
      "type": "function"
    },
    {
      "inputs": [
        {
          "internalType": "bytes32",
          "name": "role",
          "type": "bytes32"
        },
        {
          "internalType": "address",
          "name": "account",
          "type": "address"
        }
      ],
      "name": "renounceRole",
      "outputs": [],
      "stateMutability": "nonpayable",
      "type": "function"
    },
    {
      "inputs": [
        {
          "internalType": "bytes32",
          "name": "role",
          "type": "bytes32"
        },
        {
          "internalType": "address",
          "name": "account",
          "type": "address"
        }
      ],
      "name": "revokeRole",
      "outputs": [],
      "stateMutability": "nonpayable",
      "type": "function"
    },
    {
      "inputs": [],
      "name": "rewardClaimedTotal",
      "outputs": [
        {
          "internalType": "uint256",
          "name": "",
          "type": "uint256"
        }
      ],
      "stateMutability": "view",
      "type": "function"
    },
    {
      "inputs": [],
      "name": "saleStartBlock",
      "outputs": [
        {
          "internalType": "uint256",
          "name": "",
          "type": "uint256"
        }
      ],
      "stateMutability": "view",
      "type": "function"
    },
    {
      "inputs": [
        {
          "internalType": "address",
          "name": "_vault",
          "type": "address"
        }
      ],
      "name": "setYearnV2",
      "outputs": [],
      "stateMutability": "nonpayable",
      "type": "function"
    },
    {
      "inputs": [],
      "name": "startBlock",
      "outputs": [
        {
          "internalType": "uint256",
          "name": "",
          "type": "uint256"
        }
      ],
      "stateMutability": "view",
      "type": "function"
    },
    {
      "inputs": [],
      "name": "token",
      "outputs": [
        {
          "internalType": "address",
          "name": "",
          "type": "address"
        }
      ],
      "stateMutability": "view",
      "type": "function"
    },
    {
      "inputs": [],
      "name": "totalStakedAmount",
      "outputs": [
        {
          "internalType": "uint256",
          "name": "",
          "type": "uint256"
        }
      ],
      "stateMutability": "view",
      "type": "function"
    },
    {
      "inputs": [
        {
          "internalType": "address",
          "name": "",
          "type": "address"
        },
        {
          "internalType": "address",
          "name": "",
          "type": "address"
        }
      ],
      "name": "userProfitWithdrawalAmount",
      "outputs": [
        {
          "internalType": "uint256",
          "name": "",
          "type": "uint256"
        }
      ],
      "stateMutability": "view",
      "type": "function"
    },
    {
      "inputs": [
        {
          "internalType": "address",
          "name": "",
          "type": "address"
        },
        {
          "internalType": "address",
          "name": "",
          "type": "address"
        }
      ],
      "name": "userProfitWithdrawalIndex",
      "outputs": [
        {
          "internalType": "uint256",
          "name": "",
          "type": "uint256"
        }
      ],
      "stateMutability": "view",
      "type": "function"
    },
    {
      "inputs": [
        {
          "internalType": "address",
          "name": "",
          "type": "address"
        }
      ],
      "name": "userStaked",
      "outputs": [
        {
          "internalType": "uint256",
          "name": "amount",
          "type": "uint256"
        },
        {
          "internalType": "uint256",
          "name": "claimedBlock",
          "type": "uint256"
        },
        {
          "internalType": "uint256",
          "name": "claimedAmount",
          "type": "uint256"
        },
        {
          "internalType": "uint256",
          "name": "releasedBlock",
          "type": "uint256"
        },
        {
          "internalType": "uint256",
          "name": "releasedAmount",
          "type": "uint256"
        },
        {
          "internalType": "bool",
          "name": "released",
          "type": "bool"
        }
      ],
      "stateMutability": "view",
      "type": "function"
    },
    {
      "inputs": [],
      "name": "vault",
      "outputs": [
        {
          "internalType": "address",
          "name": "",
          "type": "address"
        }
      ],
      "stateMutability": "view",
      "type": "function"
    },
    {
      "inputs": [],
      "name": "yearnV2Vault",
      "outputs": [
        {
          "internalType": "address",
          "name": "",
          "type": "address"
        }
      ],
      "stateMutability": "view",
      "type": "function"
    },
    {
      "inputs": [],
      "name": "yearnV2_calcTotalValue",
      "outputs": [
        {
          "internalType": "uint256",
          "name": "underlyingAmount",
          "type": "uint256"
        }
      ],
      "stateMutability": "nonpayable",
      "type": "function"
    },
    {
      "inputs": [],
      "name": "yearnV2_claim",
      "outputs": [],
      "stateMutability": "nonpayable",
      "type": "function"
    },
    {
      "inputs": [
        {
          "internalType": "uint256",
          "name": "amount",
          "type": "uint256"
        }
      ],
      "name": "yearnV2_deposit",
      "outputs": [],
      "stateMutability": "nonpayable",
      "type": "function"
    },
    {
      "inputs": [
        {
          "internalType": "address",
          "name": "user",
          "type": "address"
        }
      ],
      "name": "yearnV2_unclaimedProfit",
      "outputs": [
        {
          "internalType": "uint256",
          "name": "",
          "type": "uint256"
        }
      ],
      "stateMutability": "view",
      "type": "function"
    },
    {
      "inputs": [],
      "name": "yearnV2_underlyingYield",
      "outputs": [
        {
          "internalType": "uint256",
          "name": "",
          "type": "uint256"
        }
      ],
      "stateMutability": "nonpayable",
      "type": "function"
    },
    {
      "inputs": [
        {
          "internalType": "uint256",
          "name": "amount",
          "type": "uint256"
        }
      ],
      "name": "yearnV2_withdraw",
      "outputs": [],
      "stateMutability": "nonpayable",
      "type": "function"
    },
    {
      "stateMutability": "payable",
      "type": "receive"
    },
    {
      "inputs": [
        {
          "internalType": "address",
          "name": "_token",
          "type": "address"
        },
        {
          "internalType": "address",
          "name": "_paytoken",
          "type": "address"
        },
        {
          "internalType": "address",
          "name": "_vault",
          "type": "address"
        },
        {
          "internalType": "uint256",
          "name": "_saleStartBlock",
          "type": "uint256"
        },
        {
          "internalType": "uint256",
          "name": "_startBlock",
          "type": "uint256"
        },
        {
          "internalType": "uint256",
          "name": "_period",
          "type": "uint256"
        }
      ],
      "name": "initialize",
      "outputs": [],
      "stateMutability": "nonpayable",
      "type": "function"
    },
    {
      "inputs": [
        {
          "internalType": "uint256",
          "name": "_amount",
          "type": "uint256"
        }
      ],
      "name": "stake",
      "outputs": [],
      "stateMutability": "payable",
      "type": "function"
    },
    {
      "inputs": [],
      "name": "withdraw",
      "outputs": [],
      "stateMutability": "nonpayable",
      "type": "function"
    },
    {
      "inputs": [],
      "name": "claim",
      "outputs": [],
      "stateMutability": "nonpayable",
      "type": "function"
    },
    {
      "inputs": [
        {
          "internalType": "address",
          "name": "account",
          "type": "address"
        }
      ],
      "name": "canRewardAmount",
      "outputs": [
        {
          "internalType": "uint256",
          "name": "",
          "type": "uint256"
        }
      ],
      "stateMutability": "view",
      "type": "function"
    }
  ],
  "bytecode": "0x60806040523480156200001157600080fd5b506200002d60008051602062002530833981519152806200004e565b620000486000805160206200253083398151915233620000a0565b620001b6565b6000828152600f6020526040808220600201549051839285917fbd79b86ffe0ab8e8776151514217cd7cacd52c909f66475c3af44e129f0b00ff9190a46000918252600f602052604090912060020155565b620000ac8282620000b0565b5050565b6000828152600f60209081526040909120620000d791839062001dff6200012b821b17901c565b15620000ac57620000e76200014b565b6001600160a01b0316816001600160a01b0316837f2f8788117e7eff1d82e926ec794901d17c78024a50270940304540a733656f0d60405160405180910390a45050565b600062000142836001600160a01b0384166200014f565b90505b92915050565b3390565b60006200015d83836200019e565b620001955750815460018181018455600084815260208082209093018490558454848252828601909352604090209190915562000145565b50600062000145565b60009081526001919091016020526040902054151590565b61236a80620001c66000396000f3fe6080604052600436106101fd5760003560e01c806385fb34ce1161010d578063bab4b20f116100a0578063d547741f1161006f578063d547741f146106b5578063e6d3bc6e146106ee578063f17f327514610718578063fbfa77cf14610742578063fc0c546a1461075757610204565b8063bab4b20f14610600578063c7f0b4551461063b578063ca15c87314610650578063cdb25fe31461067a57610204565b8063a217fddf116100dc578063a217fddf14610551578063a694fc3a14610566578063acc3a93914610583578063b2d4d6a3146105eb57610204565b806385fb34ce1461048c5780639010d07c146104bf57806391d14854146104ef578063a2095f291461053c57610204565b806343b0934a11610190578063567e98f91161015f578063567e98f9146103b05780635c826abb146103c5578063610b0663146103ef578063728cdbca1461042257806375b238fc1461047757610204565b806343b0934a1461032257806348cd4cb1146103535780634e71d92d14610368578063501afa751461037d57610204565b80632f2ff15d116101cc5780632f2ff15d1461028457806336568abe146102bf5780633aadeaf8146102f85780633ccfd60b1461030d57610204565b8063083c6323146102095780632002727514610230578063248a9ca3146102455780632bf829031461026f57610204565b3661020457005b600080fd5b34801561021557600080fd5b5061021e61076c565b60408051918252519081900360200190f35b34801561023c57600080fd5b5061021e610772565b34801561025157600080fd5b5061021e6004803603602081101561026857600080fd5b5035610778565b34801561027b57600080fd5b5061021e61078d565b34801561029057600080fd5b506102bd600480360360408110156102a757600080fd5b50803590602001356001600160a01b03166108b0565b005b3480156102cb57600080fd5b506102bd600480360360408110156102e257600080fd5b50803590602001356001600160a01b031661091c565b34801561030457600080fd5b506102bd61097d565b34801561031957600080fd5b506102bd610a87565b34801561032e57600080fd5b50610337610cfc565b604080516001600160a01b039092168252519081900360200190f35b34801561035f57600080fd5b5061021e610d0b565b34801561037457600080fd5b506102bd610d11565b34801561038957600080fd5b5061021e600480360360208110156103a057600080fd5b50356001600160a01b0316611081565b3480156103bc57600080fd5b5061021e6111a2565b3480156103d157600080fd5b506102bd600480360360208110156103e857600080fd5b50356111a8565b3480156103fb57600080fd5b5061021e6004803603602081101561041257600080fd5b50356001600160a01b03166112b0565b34801561042e57600080fd5b506102bd600480360360c081101561044557600080fd5b506001600160a01b03813581169160208101358216916040820135169060608101359060808101359060a0013561163c565b34801561048357600080fd5b5061021e611737565b34801561049857600080fd5b506102bd600480360360208110156104af57600080fd5b50356001600160a01b0316611749565b3480156104cb57600080fd5b50610337600480360360408110156104e257600080fd5b508035906020013561185d565b3480156104fb57600080fd5b506105286004803603604081101561051257600080fd5b50803590602001356001600160a01b031661187c565b604080519115158252519081900360200190f35b34801561054857600080fd5b50610337611894565b34801561055d57600080fd5b5061021e6118a3565b6102bd6004803603602081101561057c57600080fd5b50356118a8565b34801561058f57600080fd5b506105b6600480360360208110156105a657600080fd5b50356001600160a01b0316611a43565b6040805196875260208701959095528585019390935260608501919091526080840152151560a0830152519081900360c00190f35b3480156105f757600080fd5b5061021e611a7b565b34801561060c57600080fd5b5061021e6004803603604081101561062357600080fd5b506001600160a01b0381358116916020013516611a81565b34801561064757600080fd5b5061021e611a9e565b34801561065c57600080fd5b5061021e6004803603602081101561067357600080fd5b5035611b8f565b34801561068657600080fd5b5061021e6004803603604081101561069d57600080fd5b506001600160a01b0381358116916020013516611ba6565b3480156106c157600080fd5b506102bd600480360360408110156106d857600080fd5b50803590602001356001600160a01b0316611bc3565b3480156106fa57600080fd5b506102bd6004803603602081101561071157600080fd5b5035611c1c565b34801561072457600080fd5b506102bd6004803603602081101561073b57600080fd5b5035611d08565b34801561074e57600080fd5b50610337611de1565b34801561076357600080fd5b50610337611df0565b60055481565b60035481565b6000908152600f602052604090206002015490565b60006107a76000805160206121f38339815191523361187c565b6107e25760405162461bcd60e51b81526004018080602001828103825260258152602001806122bc6025913960400191505060405180910390fd5b600e546001600160a01b03168061082e576040805162461bcd60e51b815260206004820152601b60248201526000805160206121b1833981519152604482015290519081900360640190fd5b600e60009054906101000a90046001600160a01b03166001600160a01b0316633d8bb5176040518163ffffffff1660e01b8152600401602060405180830381600087803b15801561087e57600080fd5b505af1158015610892573d6000803e3d6000fd5b505050506040513d60208110156108a857600080fd5b505191505090565b6000828152600f60205260409020600201546108d3906108ce611e14565b61187c565b61090e5760405162461bcd60e51b815260040180806020018281038252602f8152602001806120de602f913960400191505060405180910390fd5b6109188282611e18565b5050565b610924611e14565b6001600160a01b0316816001600160a01b0316146109735760405162461bcd60e51b815260040180806020018281038252602f815260200180612306602f913960400191505060405180910390fd5b6109188282611e81565b6109956000805160206121f38339815191523361187c565b6109d05760405162461bcd60e51b81526004018080602001828103825260258152602001806122bc6025913960400191505060405180910390fd5b600e546001600160a01b031680610a1c576040805162461bcd60e51b815260206004820152601b60248201526000805160206121b1833981519152604482015290519081900360640190fd5b600e60009054906101000a90046001600160a01b03166001600160a01b0316634e71d92d6040518163ffffffff1660e01b8152600401600060405180830381600087803b158015610a6c57600080fd5b505af1158015610a80573d6000803e3d6000fd5b5050505050565b6000600554118015610a9a575043600554105b610ad55760405162461bcd60e51b81526004018080602001828103825260258152602001806122e16025913960400191505060405180910390fd5b33600090815260086020526040902080548015801590610afa57508154600483015411155b610b355760405162461bcd60e51b81526004018080602001828103825260318152602001806122356031913960400191505060405180910390fd5b8154600483015543600383015560058201805460ff19166001908117909155546001600160a01b0316610bff57308031821115610b7157600080fd5b604051600090339084908381818185875af1925050503d8060008114610bb3576040519150601f19603f3d011682016040523d82523d6000602084013e610bb8565b606091505b5050905080610bf85760405162461bcd60e51b815260040180806020018281038252602d815260200180612266602d913960400191505060405180910390fd5b5050610cba565b6001546040805163a9059cbb60e01b81523360048201526024810184905290516001600160a01b039092169163a9059cbb916044808201926020929091908290030181600087803b158015610c5357600080fd5b505af1158015610c67573d6000803e3d6000fd5b505050506040513d6020811015610c7d57600080fd5b5051610cba5760405162461bcd60e51b815260040180806020018281038252602a815260200180612187602a913960400191505060405180910390fd5b604080518281524360208201528151339230927fc2b4a290c20fb28939d29f102514fbffd2b73c059ffba8b78250c94161d5fcc6929081900390910190a35050565b6001546001600160a01b031681565b60045481565b600d5415610d66576040805162461bcd60e51b815260206004820152601a60248201527f5374616b65466f72537461626c65436f696e3a204c4f434b4544000000000000604482015290519081900360640190fd5b6001600d5560025460408051631718ecd760e31b815290516001600160a01b039092169163b8c766b891600480820192602092909190829003018186803b158015610db057600080fd5b505afa158015610dc4573d6000803e3d6000fd5b505050506040513d6020811015610dda57600080fd5b50511515600114610e1c5760405162461bcd60e51b81526004018080602001828103825260228152602001806121d16022913960400191505060405180910390fd5b336000818152600860205260408120600554600182015443929111610e88576040805162461bcd60e51b815260206004820152601b60248201527f5374616b65466f72537461626c65436f696e3a20636c61696d65640000000000604482015290519081900360640190fd5b610e91846112b0565b925060008311610ed25760405162461bcd60e51b81526004018080602001828103825260228152602001806122136022913960400191505060405180910390fd5b6002546040805163032f7adb60e61b815230600482015290516000926001600160a01b03169163cbdeb6c0916024808301926020929190829003018186803b158015610f1d57600080fd5b505afa158015610f31573d6000803e3d6000fd5b505050506040513d6020811015610f4757600080fd5b50516006549091508401811015610f8f5760405162461bcd60e51b815260040180806020018281038252602881526020018061212f6028913960400191505060405180910390fd5b60018201839055600280830180548601905560068054860190555460408051635569f64b60e11b81526001600160a01b038881166004830152602482018890529151919092169163aad3ec969160448083019260209291908290030181600087803b158015610ffd57600080fd5b505af1158015611011573d6000803e3d6000fd5b505050506040513d602081101561102757600080fd5b505161103257600080fd5b604080518581526020810185905281516001600160a01b038816927f987d620f307ff6b94d58743cb7a7509f24071586a77759b77c2d4e29f75a2f9a928290030190a250506000600d55505050565b600061109b6000805160206121f38339815191523361187c565b6110d65760405162461bcd60e51b81526004018080602001828103825260258152602001806122bc6025913960400191505060405180910390fd5b600e546001600160a01b031680611122576040805162461bcd60e51b815260206004820152601b60248201526000805160206121b1833981519152604482015290519081900360640190fd5b600e54604080516301678afb60e31b81526001600160a01b03868116600483015291519190921691630b3c57d8916024808301926020929190829003018186803b15801561116f57600080fd5b505afa158015611183573d6000803e3d6000fd5b505050506040513d602081101561119957600080fd5b50519392505050565b60075481565b6111c06000805160206121f38339815191523361187c565b6111fb5760405162461bcd60e51b81526004018080602001828103825260258152602001806122bc6025913960400191505060405180910390fd5b600e546001600160a01b031680611247576040805162461bcd60e51b815260206004820152601b60248201526000805160206121b1833981519152604482015290519081900360640190fd5b600e5460408051632e1a7d4d60e01b81526004810185905290516001600160a01b0390921691632e1a7d4d9160248082019260009290919082900301818387803b15801561129457600080fd5b505af11580156112a8573d6000803e3d6000fd5b505050505050565b60045460009081904310806112db57506001600160a01b038316600090815260086020526040902054155b8061130257506005546001600160a01b038416600090815260086020526040902060010154115b8061132757506001600160a01b03831660009081526008602052604090206001015443105b1561133457506000611636565b6004546005546001600160a01b03851660009081526008602052604090206001015482101561137c576001600160a01b03851660009081526008602052604090206001015491505b804310156113875750435b6002546040805163c1b422fd60e01b815290516000926001600160a01b03169163c1b422fd9160048083019286929190829003018186803b1580156113cb57600080fd5b505afa1580156113df573d6000803e3d6000fd5b505050506040513d6000823e601f3d908101601f19168201604052602081101561140857600080fd5b810190808051604051939291908464010000000082111561142857600080fd5b90830190602082018581111561143d57600080fd5b825186602082028301116401000000008211171561145a57600080fd5b82525081516020918201928201910280838360005b8381101561148757818101518382015260200161146f565b505050509050016040525050509050600081511115611632576000806000600260009054906101000a90046001600160a01b03166001600160a01b031663d105bf856040518163ffffffff1660e01b815260040160206040518083038186803b1580156114f357600080fd5b505afa158015611507573d6000803e3d6000fd5b505050506040513d602081101561151d57600080fd5b5051905060005b845181101561162d5784818151811061153957fe5b60209081029190910181015160025460408051632f8deb1560e11b81526004810184905290519297506001600160a01b0390911692635f1bd62a92602480840193829003018186803b15801561158e57600080fd5b505afa1580156115a2573d6000803e3d6000fd5b505050506040513d60208110156115b857600080fd5b505192508386116115f5576001600160a01b038a166000908152600860205260409020548390888803840202816115eb57fe5b048801975061162d565b6001600160a01b038a1660009081526008602052604090205483908886038402028161161d57fe5b0488019750839650600101611524565b505050505b5050505b92915050565b6116546000805160206121f38339815191523361187c565b61168f5760405162461bcd60e51b81526004018080602001828103825260258152602001806122bc6025913960400191505060405180910390fd5b6001600160a01b038616158015906116af57506001600160a01b03841615155b80156116bb5750818311155b6116c457600080fd5b600080546001600160a01b038089166001600160a01b0319928316179092556001805488841690831617905560028054928716929091169190911790558261170f5743600355611715565b60038390555b816117235743600455611729565b60048290555b600454016005555050505050565b6000805160206121f383398151915281565b6117616000805160206121f38339815191523361187c565b61179c5760405162461bcd60e51b81526004018080602001828103825260258152602001806122bc6025913960400191505060405180910390fd5b60035443106117f2576040805162461bcd60e51b815260206004820152601e60248201527f546f6b616d616b5374616b65723a20416c726561647920737461727465640000604482015290519081900360640190fd5b6001600160a01b03811661183b576040805162461bcd60e51b815260206004820152601b60248201526000805160206121b1833981519152604482015290519081900360640190fd5b600e80546001600160a01b0319166001600160a01b0392909216919091179055565b6000828152600f602052604081206118759083611eea565b9392505050565b6000828152600f602052604081206118759083611ef6565b600e546001600160a01b031681565b600081565b6001546001600160a01b03161580156118c15750600034115b806118e157506001546001600160a01b0316158015906118e15750600081115b61191c5760405162461bcd60e51b815260040180806020018281038252602281526020018061210d6022913960400191505060405180910390fd5b60035443101580156119315750600454600354105b61196c5760405162461bcd60e51b81526004018080602001828103825260298152602001806122936029913960400191505060405180910390fd5b60015481906001600160a01b03166119815750345b33600090815260086020526040902080548201815560078054830190556001546001600160a01b031615611a3e57600154604080516323b872dd60e01b81523360048201523060248201526044810185905290516001600160a01b03909216916323b872dd916064808201926020929091908290030181600087803b158015611a0957600080fd5b505af1158015611a1d573d6000803e3d6000fd5b505050506040513d6020811015611a3357600080fd5b5051611a3e57600080fd5b505050565b600860205260009081526040902080546001820154600283015460038401546004850154600590950154939492939192909160ff1686565b60065481565b600b60209081526000928352604080842090915290825290205481565b6000611ab86000805160206121f38339815191523361187c565b611af35760405162461bcd60e51b81526004018080602001828103825260258152602001806122bc6025913960400191505060405180910390fd5b600e546001600160a01b031680611b3f576040805162461bcd60e51b815260206004820152601b60248201526000805160206121b1833981519152604482015290519081900360640190fd5b600e60009054906101000a90046001600160a01b03166001600160a01b031663a00251c66040518163ffffffff1660e01b8152600401602060405180830381600087803b15801561087e57600080fd5b6000818152600f6020526040812061163690611f0b565b600c60209081526000928352604080842090915290825290205481565b6000828152600f6020526040902060020154611be1906108ce611e14565b6109735760405162461bcd60e51b81526004018080602001828103825260308152602001806121576030913960400191505060405180910390fd5b611c346000805160206121f38339815191523361187c565b611c6f5760405162461bcd60e51b81526004018080602001828103825260258152602001806122bc6025913960400191505060405180910390fd5b600e546001600160a01b031680611cbb576040805162461bcd60e51b815260206004820152601b60248201526000805160206121b1833981519152604482015290519081900360640190fd5b600e546040805163b6b55f2560e01b81526004810185905290516001600160a01b039092169163b6b55f259160248082019260009290919082900301818387803b15801561129457600080fd5b600154600e546040805163095ea7b360e01b81526001600160a01b039283166004820152602481018590529051919092169163095ea7b39160448083019260209291908290030181600087803b158015611d6157600080fd5b505af1158015611d75573d6000803e3d6000fd5b505050506040513d6020811015611d8b57600080fd5b5051611dde576040805162461bcd60e51b815260206004820152601b60248201527f596561726e56325374616b65723a20617070726f7665206661696c0000000000604482015290519081900360640190fd5b50565b6002546001600160a01b031681565b6000546001600160a01b031681565b6000611875836001600160a01b038416611f16565b3390565b6000828152600f60205260409020611e309082611dff565b1561091857611e3d611e14565b6001600160a01b0316816001600160a01b0316837f2f8788117e7eff1d82e926ec794901d17c78024a50270940304540a733656f0d60405160405180910390a45050565b6000828152600f60205260409020611e999082611f60565b1561091857611ea6611e14565b6001600160a01b0316816001600160a01b0316837ff6391f5c32d9c69d2a47ea670b442974b53935d1edc7fd64eb21e047a839171b60405160405180910390a45050565b60006118758383611f75565b6000611875836001600160a01b038416611fd9565b600061163682611ff1565b6000611f228383611fd9565b611f5857508154600181810184556000848152602080822090930184905584548482528286019093526040902091909155611636565b506000611636565b6000611875836001600160a01b038416611ff5565b81546000908210611fb75760405162461bcd60e51b81526004018080602001828103825260228152602001806120bc6022913960400191505060405180910390fd5b826000018281548110611fc657fe5b9060005260206000200154905092915050565b60009081526001919091016020526040902054151590565b5490565b600081815260018301602052604081205480156120b1578354600019808301919081019060009087908390811061202857fe5b906000526020600020015490508087600001848154811061204557fe5b60009182526020808320909101929092558281526001898101909252604090209084019055865487908061207557fe5b60019003818190600052602060002001600090559055866001016000878152602001908152602001600020600090556001945050505050611636565b600091505061163656fe456e756d657261626c655365743a20696e646578206f7574206f6620626f756e6473416363657373436f6e74726f6c3a2073656e646572206d75737420626520616e2061646d696e20746f206772616e745374616b65466f72537461626c65436f696e3a20616d6f756e74206973207a65726f5374616b65466f72537461626c65436f696e3a20746f74616c207265776172642065786365656473416363657373436f6e74726f6c3a2073656e646572206d75737420626520616e2061646d696e20746f207265766f6b655374616b65466f72537461626c65436f696e3a207769746864726177207472616e73666572206661696c596561726e56325374616b65723a207a65726f206164647265737300000000005374616b65466f72537461626c65436f696e3a20646973636c6f73652073616c652edf8b4c520ffe197c5343c6f5aec59570151ef9a492f2c624fd45ddde6135ec425374616b65466f72537461626c65436f696e3a20726577617264206973207a65726f5374616b65466f72537461626c65436f696e3a2072656c6561736564416d6f756e74203e207374616b6564416d6f756e745374616b65466f72537461626c65436f696e3a207769746864726177206574682073656e64206661696c65642e5374616b65466f72537461626c65436f696e3a20706572696f6420697320756e617661696c61626c65596561726e56325374616b65723a2043616c6c6572206973206e6f7420616e2061646d696e5374616b65466f72537461626c65436f696e3a206f6e207374616b696e6720706572696f64416363657373436f6e74726f6c3a2063616e206f6e6c792072656e6f756e636520726f6c657320666f722073656c66a2646970667358221220e5d6af2a43bf98c1d67d5ecd9087c29ca706ff6edbc01c1661fb0aeed2130dfa64736f6c63430007060033df8b4c520ffe197c5343c6f5aec59570151ef9a492f2c624fd45ddde6135ec42",
  "immutableReferences": {},
  "source": "//SPDX-License-Identifier: Unlicense\npragma solidity ^0.7.0;\n\nimport {IStake1Vault} from \"../interfaces/IStake1Vault.sol\";\nimport {IERC20} from \"@openzeppelin/contracts/token/ERC20/IERC20.sol\";\nimport \"../libraries/LibTokenStake1.sol\";\nimport \"../connection/YearnV2Staker.sol\";\nimport {\n    ERC165Checker\n} from \"@openzeppelin/contracts/introspection/ERC165Checker.sol\";\nimport {SafeERC20} from \"@openzeppelin/contracts/token/ERC20/SafeERC20.sol\";\n\ncontract StakeForStableCoin is YearnV2Staker {\n    using SafeERC20 for IERC20;\n\n    modifier lock() {\n        require(_lock == 0, \"StakeForStableCoin: LOCKED\");\n        _lock = 1;\n        _;\n        _lock = 0;\n    }\n\n    event Claimed(address indexed from, uint256 amount, uint256 currentBlcok);\n    event Withdrawal(\n        address indexed from,\n        address indexed to,\n        uint256 amount,\n        uint256 currentBlcok\n    );\n\n    constructor() {\n        _setRoleAdmin(ADMIN_ROLE, ADMIN_ROLE);\n        _setupRole(ADMIN_ROLE, msg.sender);\n    }\n\n    /// @dev Initialize\n    function initialize(\n        address _token,\n        address _paytoken,\n        address _vault,\n        uint256 _saleStartBlock,\n        uint256 _startBlock,\n        uint256 _period\n    ) external onlyOwner {\n        require(\n            _token != address(0) &&\n                _vault != address(0) &&\n                _saleStartBlock <= _startBlock\n        );\n        token = _token;\n        paytoken = _paytoken;\n        vault = _vault;\n        if (_saleStartBlock == 0) saleStartBlock = block.number;\n        else saleStartBlock = _saleStartBlock;\n        if (_startBlock == 0) startBlock = block.number;\n        else startBlock = _startBlock;\n        endBlock = startBlock + _period;\n    }\n\n    receive() external payable {\n        // stake(msg.value);\n    }\n\n    /// @dev Stake amount\n    function stake(uint256 _amount) public payable {\n        require(\n            (paytoken == address(0) && msg.value > 0) ||\n                (paytoken != address(0) && _amount > 0),\n            \"StakeForStableCoin: amount is zero\"\n        );\n        require(\n            block.number >= saleStartBlock && saleStartBlock < startBlock,\n            \"StakeForStableCoin: period is unavailable\"\n        );\n\n        uint256 amount = _amount;\n        if (paytoken == address(0)) amount = msg.value;\n\n        LibTokenStake1.StakedAmount storage staked = userStaked[msg.sender];\n        staked.amount += amount;\n        totalStakedAmount += amount;\n        if (paytoken != address(0))\n            require(\n                IERC20(paytoken).transferFrom(msg.sender, address(this), amount)\n            );\n    }\n\n    /// @dev To withdraw\n    function withdraw() external {\n        require(\n            endBlock > 0 && endBlock < block.number,\n            \"StakeForStableCoin: on staking period\"\n        );\n        LibTokenStake1.StakedAmount storage staked = userStaked[msg.sender];\n\n        uint256 amount = staked.amount;\n\n        // TODO: restaking reward\n        require(\n            staked.amount > 0 && staked.releasedAmount <= staked.amount,\n            \"StakeForStableCoin: releasedAmount > stakedAmount\"\n        );\n\n        staked.releasedAmount = staked.amount;\n        staked.releasedBlock = block.number;\n        staked.released = true;\n\n        // check if we send in ethers or in tokens\n        if (paytoken == address(0)) {\n            address payable self = address(uint160(address(this)));\n            require(self.balance >= amount);\n            (bool success, ) = msg.sender.call{value: amount}(\"\");\n            require(success, \"StakeForStableCoin: withdraw eth send failed.\");\n        } else {\n            require(\n                IERC20(paytoken).transfer(msg.sender, amount),\n                \"StakeForStableCoin: withdraw transfer fail\"\n            );\n        }\n\n        emit Withdrawal(address(this), msg.sender, amount, block.number);\n    }\n\n    /// @dev Claim for reward\n    function claim() external lock {\n        require(\n            IStake1Vault(vault).saleClosed() == true,\n            \"StakeForStableCoin: disclose sale.\"\n        );\n        address account = msg.sender;\n        uint256 rewardClaim = 0;\n        uint256 currentBlock = block.number;\n\n        LibTokenStake1.StakedAmount storage staked = userStaked[account];\n        require(staked.claimedBlock < endBlock, \"StakeForStableCoin: claimed\");\n\n        rewardClaim = canRewardAmount(account);\n\n        require(rewardClaim > 0, \"StakeForStableCoin: reward is zero\");\n\n        uint256 rewardTotal =\n            IStake1Vault(vault).totalRewardAmount(address(this));\n        require(\n            (rewardClaimedTotal + rewardClaim) <= rewardTotal,\n            \"StakeForStableCoin: total reward exceeds\"\n        );\n\n        staked.claimedBlock = currentBlock;\n        staked.claimedAmount += rewardClaim;\n        rewardClaimedTotal += rewardClaim;\n\n        require(IStake1Vault(vault).claim(account, rewardClaim));\n\n        emit Claimed(account, rewardClaim, currentBlock);\n    }\n\n    /// @dev Returns the amount that can be rewarded\n    function canRewardAmount(address account) public view returns (uint256) {\n        uint256 reward = 0;\n        if (\n            block.number < startBlock ||\n            userStaked[account].amount == 0 ||\n            userStaked[account].claimedBlock > endBlock ||\n            userStaked[account].claimedBlock > block.number\n        ) {\n            reward = 0;\n        } else {\n            uint256 startR = startBlock;\n            uint256 endR = endBlock;\n            if (startR < userStaked[account].claimedBlock)\n                startR = userStaked[account].claimedBlock;\n            if (block.number < endR) endR = block.number;\n\n            uint256[] memory orderedEndBlocks =\n                IStake1Vault(vault).orderedEndBlocksAll();\n\n            if (orderedEndBlocks.length > 0) {\n                uint256 _end = 0;\n                uint256 _total = 0;\n                uint256 blockTotalReward = 0;\n                blockTotalReward = IStake1Vault(vault).blockTotalReward();\n\n                for (uint256 i = 0; i < orderedEndBlocks.length; i++) {\n                    _end = orderedEndBlocks[i];\n                    _total = IStake1Vault(vault).stakeEndBlockTotal(_end);\n\n                    if (endR <= _end) {\n                        reward +=\n                            (blockTotalReward *\n                                (endR - startR) *\n                                userStaked[account].amount) /\n                            _total;\n                        break;\n                    } else {\n                        reward +=\n                            (blockTotalReward *\n                                (_end - startR) *\n                                userStaked[account].amount) /\n                            _total;\n                        startR = _end;\n                    }\n                }\n            }\n        }\n        return reward;\n    }\n}\n",
  "sourcePath": "/Users/zena/ico2.0/ico20-contracts/contracts/stake/StakeForStableCoin.sol",
  "compiler": {
    "name": "solc",
    "version": "0.7.6+commit.7338295f.Emscripten.clang"
  },
  "schemaVersion": "3.3.4",
  "updatedAt": "2021-05-17T03:20:05.781Z",
  "devdoc": {
    "kind": "dev",
    "methods": {
      "canRewardAmount(address)": {
        "details": "Returns the amount that can be rewarded"
      },
      "claim()": {
        "details": "Claim for reward"
      },
      "getRoleAdmin(bytes32)": {
        "details": "Returns the admin role that controls `role`. See {grantRole} and {revokeRole}. To change a role's admin, use {_setRoleAdmin}."
      },
      "getRoleMember(bytes32,uint256)": {
        "details": "Returns one of the accounts that have `role`. `index` must be a value between 0 and {getRoleMemberCount}, non-inclusive. Role bearers are not sorted in any particular way, and their ordering may change at any point. WARNING: When using {getRoleMember} and {getRoleMemberCount}, make sure you perform all queries on the same block. See the following https://forum.openzeppelin.com/t/iterating-over-elements-on-enumerableset-in-openzeppelin-contracts/2296[forum post] for more information."
      },
      "getRoleMemberCount(bytes32)": {
        "details": "Returns the number of accounts that have `role`. Can be used together with {getRoleMember} to enumerate all bearers of a role."
      },
      "grantRole(bytes32,address)": {
        "details": "Grants `role` to `account`. If `account` had not been already granted `role`, emits a {RoleGranted} event. Requirements: - the caller must have ``role``'s admin role."
      },
      "hasRole(bytes32,address)": {
        "details": "Returns `true` if `account` has been granted `role`."
      },
      "initialize(address,address,address,uint256,uint256,uint256)": {
        "details": "Initialize"
      },
      "renounceRole(bytes32,address)": {
        "details": "Revokes `role` from the calling account. Roles are often managed via {grantRole} and {revokeRole}: this function's purpose is to provide a mechanism for accounts to lose their privileges if they are compromised (such as when a trusted device is misplaced). If the calling account had been granted `role`, emits a {RoleRevoked} event. Requirements: - the caller must be `account`."
      },
      "revokeRole(bytes32,address)": {
        "details": "Revokes `role` from `account`. If `account` had been granted `role`, emits a {RoleRevoked} event. Requirements: - the caller must have ``role``'s admin role."
      },
      "stake(uint256)": {
        "details": "Stake amount"
      },
      "withdraw()": {
        "details": "To withdraw"
      }
    },
    "version": 1
  },
  "userdoc": {
    "kind": "user",
    "methods": {},
    "version": 1
  }
}