{
  "contractName": "Stake1Vault",
  "abi": [
    {
      "inputs": [],
      "stateMutability": "nonpayable",
      "type": "constructor"
    },
    {
      "anonymous": false,
      "inputs": [
        {
          "indexed": true,
          "internalType": "address",
          "name": "from",
          "type": "address"
        },
        {
          "indexed": false,
          "internalType": "address",
          "name": "to",
          "type": "address"
        },
        {
          "indexed": false,
          "internalType": "uint256",
          "name": "amount",
          "type": "uint256"
        }
      ],
      "name": "ClaimedReward",
      "type": "event"
    },
    {
      "anonymous": false,
      "inputs": [],
      "name": "ClosedSale",
      "type": "event"
    },
    {
      "anonymous": false,
      "inputs": [
        {
          "indexed": true,
          "internalType": "bytes32",
          "name": "role",
          "type": "bytes32"
        },
        {
          "indexed": true,
          "internalType": "bytes32",
          "name": "previousAdminRole",
          "type": "bytes32"
        },
        {
          "indexed": true,
          "internalType": "bytes32",
          "name": "newAdminRole",
          "type": "bytes32"
        }
      ],
      "name": "RoleAdminChanged",
      "type": "event"
    },
    {
      "anonymous": false,
      "inputs": [
        {
          "indexed": true,
          "internalType": "bytes32",
          "name": "role",
          "type": "bytes32"
        },
        {
          "indexed": true,
          "internalType": "address",
          "name": "account",
          "type": "address"
        },
        {
          "indexed": true,
          "internalType": "address",
          "name": "sender",
          "type": "address"
        }
      ],
      "name": "RoleGranted",
      "type": "event"
    },
    {
      "anonymous": false,
      "inputs": [
        {
          "indexed": true,
          "internalType": "bytes32",
          "name": "role",
          "type": "bytes32"
        },
        {
          "indexed": true,
          "internalType": "address",
          "name": "account",
          "type": "address"
        },
        {
          "indexed": true,
          "internalType": "address",
          "name": "sender",
          "type": "address"
        }
      ],
      "name": "RoleRevoked",
      "type": "event"
    },
    {
      "inputs": [],
      "name": "ADMIN_ROLE",
      "outputs": [
        {
          "internalType": "bytes32",
          "name": "",
          "type": "bytes32"
        }
      ],
      "stateMutability": "view",
      "type": "function"
    },
    {
      "inputs": [],
      "name": "DEFAULT_ADMIN_ROLE",
      "outputs": [
        {
          "internalType": "bytes32",
          "name": "",
          "type": "bytes32"
        }
      ],
      "stateMutability": "view",
      "type": "function"
    },
    {
      "inputs": [],
      "name": "ZERO_HASH",
      "outputs": [
        {
          "internalType": "bytes32",
          "name": "",
          "type": "bytes32"
        }
      ],
      "stateMutability": "view",
      "type": "function"
    },
    {
      "inputs": [],
      "name": "blockTotalReward",
      "outputs": [
        {
          "internalType": "uint256",
          "name": "",
          "type": "uint256"
        }
      ],
      "stateMutability": "view",
      "type": "function"
    },
    {
      "inputs": [],
      "name": "cap",
      "outputs": [
        {
          "internalType": "uint256",
          "name": "",
          "type": "uint256"
        }
      ],
      "stateMutability": "view",
      "type": "function"
    },
    {
      "inputs": [],
      "name": "defiAddr",
      "outputs": [
        {
          "internalType": "address",
          "name": "",
          "type": "address"
        }
      ],
      "stateMutability": "view",
      "type": "function"
    },
    {
      "inputs": [
        {
          "internalType": "bytes32",
          "name": "role",
          "type": "bytes32"
        }
      ],
      "name": "getRoleAdmin",
      "outputs": [
        {
          "internalType": "bytes32",
          "name": "",
          "type": "bytes32"
        }
      ],
      "stateMutability": "view",
      "type": "function"
    },
    {
      "inputs": [
        {
          "internalType": "bytes32",
          "name": "role",
          "type": "bytes32"
        },
        {
          "internalType": "uint256",
          "name": "index",
          "type": "uint256"
        }
      ],
      "name": "getRoleMember",
      "outputs": [
        {
          "internalType": "address",
          "name": "",
          "type": "address"
        }
      ],
      "stateMutability": "view",
      "type": "function"
    },
    {
      "inputs": [
        {
          "internalType": "bytes32",
          "name": "role",
          "type": "bytes32"
        }
      ],
      "name": "getRoleMemberCount",
      "outputs": [
        {
          "internalType": "uint256",
          "name": "",
          "type": "uint256"
        }
      ],
      "stateMutability": "view",
      "type": "function"
    },
    {
      "inputs": [
        {
          "internalType": "bytes32",
          "name": "role",
          "type": "bytes32"
        },
        {
          "internalType": "address",
          "name": "account",
          "type": "address"
        }
      ],
      "name": "grantRole",
      "outputs": [],
      "stateMutability": "nonpayable",
      "type": "function"
    },
    {
      "inputs": [
        {
          "internalType": "bytes32",
          "name": "role",
          "type": "bytes32"
        },
        {
          "internalType": "address",
          "name": "account",
          "type": "address"
        }
      ],
      "name": "hasRole",
      "outputs": [
        {
          "internalType": "bool",
          "name": "",
          "type": "bool"
        }
      ],
      "stateMutability": "view",
      "type": "function"
    },
    {
      "inputs": [
        {
          "internalType": "uint256",
          "name": "",
          "type": "uint256"
        }
      ],
      "name": "orderedEndBlocks",
      "outputs": [
        {
          "internalType": "uint256",
          "name": "",
          "type": "uint256"
        }
      ],
      "stateMutability": "view",
      "type": "function"
    },
    {
      "inputs": [],
      "name": "paytoken",
      "outputs": [
        {
          "internalType": "address",
          "name": "",
          "type": "address"
        }
      ],
      "stateMutability": "view",
      "type": "function"
    },
    {
      "inputs": [],
      "name": "realEndBlock",
      "outputs": [
        {
          "internalType": "uint256",
          "name": "",
          "type": "uint256"
        }
      ],
      "stateMutability": "view",
      "type": "function"
    },
    {
      "inputs": [
        {
          "internalType": "bytes32",
          "name": "role",
          "type": "bytes32"
        },
        {
          "internalType": "address",
          "name": "account",
          "type": "address"
        }
      ],
      "name": "renounceRole",
      "outputs": [],
      "stateMutability": "nonpayable",
      "type": "function"
    },
    {
      "inputs": [
        {
          "internalType": "bytes32",
          "name": "role",
          "type": "bytes32"
        },
        {
          "internalType": "address",
          "name": "account",
          "type": "address"
        }
      ],
      "name": "revokeRole",
      "outputs": [],
      "stateMutability": "nonpayable",
      "type": "function"
    },
    {
      "inputs": [],
      "name": "saleClosed",
      "outputs": [
        {
          "internalType": "bool",
          "name": "",
          "type": "bool"
        }
      ],
      "stateMutability": "view",
      "type": "function"
    },
    {
      "inputs": [],
      "name": "saleStartBlock",
      "outputs": [
        {
          "internalType": "uint256",
          "name": "",
          "type": "uint256"
        }
      ],
      "stateMutability": "view",
      "type": "function"
    },
    {
      "inputs": [
        {
          "internalType": "uint256",
          "name": "",
          "type": "uint256"
        }
      ],
      "name": "stakeAddresses",
      "outputs": [
        {
          "internalType": "address",
          "name": "",
          "type": "address"
        }
      ],
      "stateMutability": "view",
      "type": "function"
    },
    {
      "inputs": [],
      "name": "stakeEndBlock",
      "outputs": [
        {
          "internalType": "uint256",
          "name": "",
          "type": "uint256"
        }
      ],
      "stateMutability": "view",
      "type": "function"
    },
    {
      "inputs": [
        {
          "internalType": "uint256",
          "name": "",
          "type": "uint256"
        }
      ],
      "name": "stakeEndBlockTotal",
      "outputs": [
        {
          "internalType": "uint256",
          "name": "",
          "type": "uint256"
        }
      ],
      "stateMutability": "view",
      "type": "function"
    },
    {
      "inputs": [
        {
          "internalType": "address",
          "name": "",
          "type": "address"
        }
      ],
      "name": "stakeInfos",
      "outputs": [
        {
          "internalType": "string",
          "name": "name",
          "type": "string"
        },
        {
          "internalType": "uint256",
          "name": "startBlock",
          "type": "uint256"
        },
        {
          "internalType": "uint256",
          "name": "endBlock",
          "type": "uint256"
        },
        {
          "internalType": "uint256",
          "name": "balance",
          "type": "uint256"
        },
        {
          "internalType": "uint256",
          "name": "totalRewardAmount",
          "type": "uint256"
        },
        {
          "internalType": "uint256",
          "name": "claimRewardAmount",
          "type": "uint256"
        }
      ],
      "stateMutability": "view",
      "type": "function"
    },
    {
      "inputs": [],
      "name": "stakeStartBlock",
      "outputs": [
        {
          "internalType": "uint256",
          "name": "",
          "type": "uint256"
        }
      ],
      "stateMutability": "view",
      "type": "function"
    },
    {
      "inputs": [],
      "name": "stakeType",
      "outputs": [
        {
          "internalType": "uint256",
          "name": "",
          "type": "uint256"
        }
      ],
      "stateMutability": "view",
      "type": "function"
    },
    {
      "inputs": [],
      "name": "tos",
      "outputs": [
        {
          "internalType": "address",
          "name": "",
          "type": "address"
        }
      ],
      "stateMutability": "view",
      "type": "function"
    },
    {
      "inputs": [
        {
          "internalType": "address",
          "name": "newOwner",
          "type": "address"
        }
      ],
      "name": "transferOwnership",
      "outputs": [],
      "stateMutability": "nonpayable",
      "type": "function"
    },
    {
      "stateMutability": "payable",
      "type": "receive"
    },
    {
      "inputs": [
        {
          "internalType": "address",
          "name": "_tos",
          "type": "address"
        },
        {
          "internalType": "address",
          "name": "_paytoken",
          "type": "address"
        },
        {
          "internalType": "uint256",
          "name": "_cap",
          "type": "uint256"
        },
        {
          "internalType": "uint256",
          "name": "_saleStartBlock",
          "type": "uint256"
        },
        {
          "internalType": "uint256",
          "name": "_stakeStartBlock",
          "type": "uint256"
        },
        {
          "internalType": "address",
          "name": "_stakefactory",
          "type": "address"
        },
        {
          "internalType": "uint256",
          "name": "_stakeType",
          "type": "uint256"
        },
        {
          "internalType": "address",
          "name": "_defiAddr",
          "type": "address"
        }
      ],
      "name": "initialize",
      "outputs": [],
      "stateMutability": "nonpayable",
      "type": "function"
    },
    {
      "inputs": [
        {
          "internalType": "address",
          "name": "_tos",
          "type": "address"
        }
      ],
      "name": "setTOS",
      "outputs": [],
      "stateMutability": "nonpayable",
      "type": "function"
    },
    {
      "inputs": [
        {
          "internalType": "uint256",
          "name": "_cap",
          "type": "uint256"
        }
      ],
      "name": "changeCap",
      "outputs": [],
      "stateMutability": "nonpayable",
      "type": "function"
    },
    {
      "inputs": [
        {
          "internalType": "address",
          "name": "_defiAddr",
          "type": "address"
        }
      ],
      "name": "setDefiAddr",
      "outputs": [],
      "stateMutability": "nonpayable",
      "type": "function"
    },
    {
      "inputs": [
        {
          "internalType": "uint256",
          "name": "_amount",
          "type": "uint256"
        }
      ],
      "name": "withdrawReward",
      "outputs": [],
      "stateMutability": "nonpayable",
      "type": "function"
    },
    {
      "inputs": [
        {
          "internalType": "string",
          "name": "_name",
          "type": "string"
        },
        {
          "internalType": "address",
          "name": "stakeContract",
          "type": "address"
        },
        {
          "internalType": "uint256",
          "name": "periodBlocks",
          "type": "uint256"
        }
      ],
      "name": "addSubVaultOfStake",
      "outputs": [],
      "stateMutability": "nonpayable",
      "type": "function"
    },
    {
      "inputs": [],
      "name": "closeSale",
      "outputs": [],
      "stateMutability": "nonpayable",
      "type": "function"
    },
    {
      "inputs": [
        {
          "internalType": "address",
          "name": "_to",
          "type": "address"
        },
        {
          "internalType": "uint256",
          "name": "_amount",
          "type": "uint256"
        }
      ],
      "name": "claim",
      "outputs": [
        {
          "internalType": "bool",
          "name": "",
          "type": "bool"
        }
      ],
      "stateMutability": "nonpayable",
      "type": "function"
    },
    {
      "inputs": [
        {
          "internalType": "address",
          "name": "_to",
          "type": "address"
        },
        {
          "internalType": "uint256",
          "name": "_amount",
          "type": "uint256"
        }
      ],
      "name": "canClaim",
      "outputs": [
        {
          "internalType": "bool",
          "name": "",
          "type": "bool"
        }
      ],
      "stateMutability": "view",
      "type": "function"
    },
    {
      "inputs": [],
      "name": "balanceTOSAvailableAmount",
      "outputs": [
        {
          "internalType": "uint256",
          "name": "",
          "type": "uint256"
        }
      ],
      "stateMutability": "view",
      "type": "function"
    },
    {
      "inputs": [],
      "name": "stakeAddressesAll",
      "outputs": [
        {
          "internalType": "address[]",
          "name": "",
          "type": "address[]"
        }
      ],
      "stateMutability": "view",
      "type": "function"
    },
    {
      "inputs": [],
      "name": "orderedEndBlocksAll",
      "outputs": [
        {
          "internalType": "uint256[]",
          "name": "",
          "type": "uint256[]"
        }
      ],
      "stateMutability": "view",
      "type": "function"
    },
    {
      "inputs": [
        {
          "internalType": "address",
          "name": "_account",
          "type": "address"
        }
      ],
      "name": "totalRewardAmount",
      "outputs": [
        {
          "internalType": "uint256",
          "name": "",
          "type": "uint256"
        }
      ],
      "stateMutability": "view",
      "type": "function"
    },
    {
      "inputs": [],
      "name": "infos",
      "outputs": [
        {
          "internalType": "address[2]",
          "name": "",
          "type": "address[2]"
        },
        {
          "internalType": "uint256",
          "name": "",
          "type": "uint256"
        },
        {
          "internalType": "uint256",
          "name": "",
          "type": "uint256"
        },
        {
          "internalType": "uint256[3]",
          "name": "",
          "type": "uint256[3]"
        },
        {
          "internalType": "uint256",
          "name": "",
          "type": "uint256"
        },
        {
          "internalType": "bool",
          "name": "",
          "type": "bool"
        }
      ],
      "stateMutability": "view",
      "type": "function"
    }
  ],
  "bytecode": "0x60806040523480156200001157600080fd5b506200002d60008051602062003293833981519152806200004e565b620000486000805160206200329383398151915233620000a0565b620001b4565b600082815260208190526040808220600201549051839285917fbd79b86ffe0ab8e8776151514217cd7cacd52c909f66475c3af44e129f0b00ff9190a460009182526020829052604090912060020155565b620000ac8282620000b0565b5050565b600082815260208181526040909120620000d591839062001f3e62000129821b17901c565b15620000ac57620000e562000149565b6001600160a01b0316816001600160a01b0316837f2f8788117e7eff1d82e926ec794901d17c78024a50270940304540a733656f0d60405160405180910390a45050565b600062000140836001600160a01b0384166200014d565b90505b92915050565b3390565b60006200015b83836200019c565b620001935750815460018181018455600084815260208082209093018490558454848252828601909352604090209190915562000143565b50600062000143565b60009081526001919091016020526040902054151590565b6130cf80620001c46000396000f3fe60806040526004361061023f5760003560e01c80639010d07c1161012e578063c1b422fd116100ab578063d547741f1161006f578063d547741f1461062e578063dc999b941461064e578063dfbf9def1461066e578063ee55efee146106a0578063f2fde38b146106b557610246565b8063c1b422fd14610595578063ca15c873146105b7578063cbdeb6c0146105d7578063d007e896146105f7578063d105bf851461061957610246565b8063a217fddf116100f2578063a217fddf146103d9578063aad3ec9614610536578063b03dc51414610556578063b8c766b81461056b578063b97af0db1461058057610246565b80639010d07c1461048d57806391d14854146104ad57806398da0b61146104da5780639a88be2f146104fa5780639d84ca351461052157610246565b806340fc14f7116101bc5780635f1bd62a116101805780635f1bd62a1461040e57806366b2d5271461042e57806375b238fc14610443578063800edb9d1461045857806389f395de1461047857610246565b806340fc14f71461038f57806343b0934a146103af5780634b5e7cd5146103c45780634ce76a3c146103d9578063523a3f08146103ee57610246565b80632f2ff15d116102035780632f2ff15d14610305578063355274ea1461032557806336568abe1461033a5780633a76eb371461035a57806340c2ce861461036f57610246565b80630962ccfc1461024b578063153099d01461026d57806320027275146102a3578063248a9ca3146102b8578063294f5fa3146102d857610246565b3661024657005b600080fd5b34801561025757600080fd5b5061026b610266366004612684565b6106d5565b005b34801561027957600080fd5b5061028d61028836600461261c565b610958565b60405161029a91906128c2565b60405180910390f35b3480156102af57600080fd5b5061028d610979565b3480156102c457600080fd5b5061028d6102d336600461261c565b61097f565b3480156102e457600080fd5b506102f86102f336600461261c565b610997565b60405161029a919061277e565b34801561031157600080fd5b5061026b610320366004612634565b6109c1565b34801561033157600080fd5b5061028d610a28565b34801561034657600080fd5b5061026b610355366004612634565b610a2e565b34801561036657600080fd5b5061028d610a8f565b34801561037b57600080fd5b5061026b61038a366004612515565b610a95565b34801561039b57600080fd5b5061026b6103aa366004612515565b610b30565b3480156103bb57600080fd5b506102f8610be7565b3480156103d057600080fd5b5061028d610bf6565b3480156103e557600080fd5b5061028d610bfc565b3480156103fa57600080fd5b5061026b61040936600461261c565b610c01565b34801561041a57600080fd5b5061028d61042936600461261c565b610e6e565b34801561043a57600080fd5b5061028d610e80565b34801561044f57600080fd5b5061028d610f06565b34801561046457600080fd5b5061026b61047336600461261c565b610f18565b34801561048457600080fd5b506102f8610f9e565b34801561049957600080fd5b506102f86104a8366004612663565b610fad565b3480156104b957600080fd5b506104cd6104c8366004612634565b610fce565b60405161029a91906128b7565b3480156104e657600080fd5b506104cd6104f53660046125d1565b610fe6565b34801561050657600080fd5b5061050f611148565b60405161029a969594939291906127ab565b34801561052d57600080fd5b506102f86111c1565b34801561054257600080fd5b506104cd6105513660046125d1565b6111d0565b34801561056257600080fd5b5061028d61142c565b34801561057757600080fd5b506104cd611432565b34801561058c57600080fd5b5061028d61143b565b3480156105a157600080fd5b506105aa611441565b60405161029a919061287f565b3480156105c357600080fd5b5061028d6105d236600461261c565b611499565b3480156105e357600080fd5b5061028d6105f2366004612515565b6114b0565b34801561060357600080fd5b5061060c6114ce565b60405161029a9190612832565b34801561062557600080fd5b5061028d61152f565b34801561063a57600080fd5b5061026b610649366004612634565b611535565b34801561065a57600080fd5b5061026b61066936600461254d565b61158e565b34801561067a57600080fd5b5061068e610689366004612515565b6116db565b60405161029a969594939291906128cb565b3480156106ac57600080fd5b5061026b61179a565b3480156106c157600080fd5b5061026b6106d0366004612515565b611e5a565b6106ed60008051602061304b83398151915233610fce565b6107285760405162461bcd60e51b8152600401808060200182810382526029815260200180612f806029913960400191505060405180910390fd5b6001600160a01b0382161580159061074257506000600354115b801561074e5750600081115b6107735760405162461bcd60e51b815260040161076a906129cf565b60405180910390fd5b60055443106107945760405162461bcd60e51b815260040161076a90612956565b60095460ff16156107b75760405162461bcd60e51b815260040161076a90612c32565b816001600160a01b03166343b0934a6040518163ffffffff1660e01b815260040160206040518083038186803b1580156107f057600080fd5b505afa158015610804573d6000803e3d6000fd5b505050506040513d601f19601f820116820180604052508101906108289190612531565b6002546001600160a01b039081169116146108555760405162461bcd60e51b815260040161076a90612db5565b6001600160a01b0382166000908152600d6020526040902060018101541561088f5760405162461bcd60e51b815260040161076a90612dec565b600c805460018101825560009182527fdf6966c971051c3d54ec59162606531493a51404a002842f56009d7e5cf4a8c70180546001600160a01b0319166001600160a01b0386161790556005546108e69084611f53565b85519091506108fb908390602088019061242d565b5060055460018301556002820181905560065481111561091b5760068190555b5050600654600e80546001810182556000919091527fbb7b4a454dc3493923482f07822329ed19e8244eff582cc204f8554c3620c3fd0155505050565b600e818154811061096857600080fd5b600091825260209091200154905081565b60045481565b6000818152602081905260409020600201545b919050565b600c81815481106109a757600080fd5b6000918252602090912001546001600160a01b0316905081565b6000828152602081905260409020600201546109df906104c8611fad565b610a1a5760405162461bcd60e51b815260040180806020018281038252602f815260200180612fcb602f913960400191505060405180910390fd5b610a248282611fb1565b5050565b60035481565b610a36611fad565b6001600160a01b0316816001600160a01b031614610a855760405162461bcd60e51b815260040180806020018281038252602f81526020018061306b602f913960400191505060405180910390fd5b610a24828261201a565b60065481565b610aad60008051602061304b83398151915233610fce565b610ae85760405162461bcd60e51b8152600401808060200182810382526029815260200180612f806029913960400191505060405180910390fd5b6001600160a01b038116610b0e5760405162461bcd60e51b815260040161076a90612a17565b600180546001600160a01b0319166001600160a01b0392909216919091179055565b610b4860008051602061304b83398151915233610fce565b610b835760405162461bcd60e51b8152600401808060200182810382526029815260200180612f806029913960400191505060405180910390fd5b6001600160a01b03811615801590610ba95750600b546001600160a01b03828116911614155b610bc55760405162461bcd60e51b815260040161076a90612cdf565b600b80546001600160a01b0319166001600160a01b0392909216919091179055565b6002546001600160a01b031681565b60055481565b600081565b610c1960008051602061304b83398151915233610fce565b610c545760405162461bcd60e51b8152600401808060200182810382526029815260200180612f806029913960400191505060405180910390fd5b60095460ff161515600114610c7b5760405162461bcd60e51b815260040161076a90612d4d565b6000805b600c54811015610d1c57610d12600d6000600c8481548110610c9d57fe5b60009182526020808320909101546001600160a01b03168352820192909252604001812060050154600c80549192610d0c92600d929087908110610cdd57fe5b60009182526020808320909101546001600160a01b031683528201929092526040019020600401548590611f53565b90612083565b9150600101610c7f565b506001546040516370a0823160e01b81526000916001600160a01b0316906370a0823190610d4e90309060040161277e565b60206040518083038186803b158015610d6657600080fd5b505afa158015610d7a573d6000803e3d6000fd5b505050506040513d601f19601f82011682018060405250810190610d9e9190612733565b9050610daa8284611f53565b811015610dc95760405162461bcd60e51b815260040161076a90612e5a565b60015460405163a9059cbb60e01b81526001600160a01b039091169063a9059cbb90610dfb9033908790600401612792565b602060405180830381600087803b158015610e1557600080fd5b505af1158015610e29573d6000803e3d6000fd5b505050506040513d601f19601f82011682018060405250810190610e4d91906125fc565b610e695760405162461bcd60e51b815260040161076a90612c64565b505050565b600f6020526000908152604090205481565b6001546040516370a0823160e01b81526000916001600160a01b0316906370a0823190610eb190309060040161277e565b60206040518083038186803b158015610ec957600080fd5b505afa158015610edd573d6000803e3d6000fd5b505050506040513d601f19601f82011682018060405250810190610f019190612733565b905090565b60008051602061304b83398151915281565b610f3060008051602061304b83398151915233610fce565b610f6b5760405162461bcd60e51b8152600401808060200182810382526029815260200180612f806029913960400191505060405180910390fd5b600081118015610f7d57508060035414155b610f995760405162461bcd60e51b815260040161076a90612b4e565b600355565b6001546001600160a01b031681565b6000828152602081905260408120610fc590836120c5565b90505b92915050565b6000828152602081905260408120610fc590836120d1565b60095460009060ff1661100b5760405162461bcd60e51b815260040161076a90612aef565b6001546040516370a0823160e01b81526000916001600160a01b0316906370a082319061103c90309060040161277e565b60206040518083038186803b15801561105457600080fd5b505afa158015611068573d6000803e3d6000fd5b505050506040513d601f19601f8201168201806040525081019061108c9190612733565b9050828110156110ae5760405162461bcd60e51b815260040161076a90612a94565b6001600160a01b0384166000908152600d6020526040902060018101546110e75760405162461bcd60e51b815260040161076a90612f03565b600081600401541161110b5760405162461bcd60e51b815260040161076a90612998565b600581015461111a9085611f53565b8160040154101561113d5760405162461bcd60e51b815260040161076a9061291f565b506001949350505050565b6111506124b9565b60008061115b6124d7565b50506040805180820182526002546001600160a01b039081168252600b5416602080830191909152600354600a54845160608101865260045481526005549381019390935260065494830194909452600854600954939791965093945090929160ff1690565b600b546001600160a01b031681565b60095460009060ff1680156111e55750600082115b6112015760405162461bcd60e51b815260040161076a90612d16565b6001546040516370a0823160e01b81526000916001600160a01b0316906370a082319061123290309060040161277e565b60206040518083038186803b15801561124a57600080fd5b505afa15801561125e573d6000803e3d6000fd5b505050506040513d601f19601f820116820180604052508101906112829190612733565b9050828110156112a45760405162461bcd60e51b815260040161076a90612e8b565b336000908152600d6020526040902060018101546112d45760405162461bcd60e51b815260040161076a90612e23565b60008160040154116112f85760405162461bcd60e51b815260040161076a90612c99565b60058101546113079085611f53565b8160040154101561132a5760405162461bcd60e51b815260040161076a90612ec2565b60058101546113399085611f53565b600582015560015460405163a9059cbb60e01b81526001600160a01b039091169063a9059cbb906113709088908890600401612792565b602060405180830381600087803b15801561138a57600080fd5b505af115801561139e573d6000803e3d6000fd5b505050506040513d601f19601f820116820180604052508101906113c291906125fc565b6113de5760405162461bcd60e51b815260040161076a90612b85565b336001600160a01b03167faee3654837b73cc93e61b5d33f82d45b1df4dbe682913819f5ce40de23518e728686604051611419929190612792565b60405180910390a2506001949350505050565b60075481565b60095460ff1681565b600a5481565b6060600e80548060200260200160405190810160405280929190818152602001828054801561148f57602002820191906000526020600020905b81548152602001906001019080831161147b575b5050505050905090565b6000818152602081905260408120610fc8906120e6565b6001600160a01b03166000908152600d602052604090206004015490565b6060600c80548060200260200160405190810160405280929190818152602001828054801561148f57602002820191906000526020600020905b81546001600160a01b03168152600190910190602001808311611508575050505050905090565b60085481565b600082815260208190526040902060020154611553906104c8611fad565b610a855760405162461bcd60e51b8152600401808060200182810382526030815260200180612ffa6030913960400191505060405180910390fd5b6115a660008051602061304b83398151915233610fce565b6115e15760405162461bcd60e51b8152600401808060200182810382526029815260200180612f806029913960400191505060405180910390fd5b6001600160a01b0388161580159061160157506001600160a01b03831615155b61161d5760405162461bcd60e51b815260040161076a90612a17565b6000861161163d5760405162461bcd60e51b815260040161076a90612bff565b838510801561164c5750600084115b6116685760405162461bcd60e51b815260040161076a90612a4e565b600180546001600160a01b03808b166001600160a01b0319928316179092556003889055600280548a841690831617905560048790556005869055600a849055600b8054928416929091169190911790556116d160008051602061304b833981519152846109c1565b5050505050505050565b600d6020908152600091825260409182902080548351601f600260001961010060018616150201909316929092049182018490048402810184019094528084529092918391908301828280156117725780601f1061174757610100808354040283529160200191611772565b820191906000526020600020905b81548152906001019060200180831161175557829003601f168201915b5050505050908060010154908060020154908060030154908060040154908060050154905086565b60095460ff16156117bd5760405162461bcd60e51b815260040161076a90612d7e565b60006003541180156117d157506000600554115b80156117e05750600654600554105b80156117ed575060055443115b6118095760405162461bcd60e51b815260040161076a90612bbc565b600c546118285760405162461bcd60e51b815260040161076a90612b1e565b60065460075560005b600c548110156119fe576000600d6000600c848154811061184e57fe5b60009182526020808320909101546001600160a01b0390811684529083019390935260409091019020600254909250166118af57600c828154811061188f57fe5b6000918252602090912001546001600160a01b03163160038201556119ae565b600254600c805460009283926001600160a01b0390911691869081106118d157fe5b6000918252602090912001546040516118f6916001600160a01b03169060240161277e565b60408051601f198184030181529181526020820180516001600160e01b03166370a0823160e01b1790525161192b9190612762565b6000604051808303816000865af19150503d8060008114611968576040519150601f19603f3d011682016040523d82523d6000602084013e61196d565b606091505b50915091508161198f5760405162461bcd60e51b815260040161076a90612ab8565b6000818060200190518101906119a59190612733565b60038501555050505b6003810154156119f557600d6000600c84815481106119c957fe5b60009182526020808320909101546001600160a01b031683528201929092526040019020600201546007555b50600101611831565b50611a22611a1960055460075461208390919063ffffffff16565b600354906120f1565b6008556000805b600c54811015611e20576000600d6000600c8481548110611a4657fe5b60009182526020808320909101546001600160a01b0316835282019290925260400181209150805b600c54811015611b09578260020154600d6000600c8481548110611a8e57fe5b60009182526020808320909101546001600160a01b0316835282019290925260400190206002015410611b0157611afe600d6000600c8481548110611acf57fe5b60009182526020808320909101546001600160a01b031683528201929092526040019020600301548390611f53565b91505b600101611a6e565b50600754826002015411611e165760028201546000908152600f60205260409020819055611b378482611f53565b93506000835b8015611cca576000600f6000600d6000600c8681548110611b5a57fe5b60009182526020808320909101546001600160a01b0316835282810193909352604091820181206002015484529183019390935291019020541115611cc157611cbe611cb7600f6000600d6000600c8781548110611bb457fe5b9060005260206000200160009054906101000a90046001600160a01b03166001600160a01b03166001600160a01b0316815260200190815260200160002060020154815260200190815260200160002054611cb18760030154611cab600854611cab600d6000600c60018c0381548110611c2a57fe5b9060005260206000200160009054906101000a90046001600160a01b03166001600160a01b03166001600160a01b0316815260200190815260200160002060020154600d6000600c8c81548110611c7d57fe5b60009182526020808320909101546001600160a01b0316835282019290925260400190206002015490612083565b90612133565b906120f1565b8390611f53565b91505b60001901611b3d565b506000600f6000600d6000600c600081548110611ce357fe5b60009182526020808320909101546001600160a01b0316835282810193909352604091820181206002015484529183019390935291019020541115611e1057611e0d611e06600f6000600d6000600c600081548110611d3e57fe5b9060005260206000200160009054906101000a90046001600160a01b03166001600160a01b03166001600160a01b0316815260200190815260200160002060020154815260200190815260200160002054611cb18660030154611cab600854611cab600d6000600c600081548110611db257fe5b9060005260206000200160009054906101000a90046001600160a01b03166001600160a01b03166001600160a01b0316815260200190815260200160002060010154600d6000600c600081548110611c7d57fe5b8290611f53565b90505b60048301555b5050600101611a29565b506009805460ff191660011790556040517fc5b08164caddd376836c1274d424a6a993b43d0225bb894c5b9e2a1e91e4bf5c90600090a150565b611e7260008051602061304b83398151915233610fce565b611ead5760405162461bcd60e51b8152600401808060200182810382526029815260200180612f806029913960400191505060405180910390fd5b336001600160a01b0382161415611f0b576040805162461bcd60e51b815260206004820152601d60248201527f5374616b655661756c7453746f726167653a2073616d65206f776e6572000000604482015290519081900360640190fd5b611f2360008051602061304b833981519152826109c1565b611f3b60008051602061304b83398151915233611535565b50565b6000610fc5836001600160a01b03841661218c565b600082820183811015610fc5576040805162461bcd60e51b815260206004820152601b60248201527f536166654d6174683a206164646974696f6e206f766572666c6f770000000000604482015290519081900360640190fd5b3390565b6000828152602081905260409020611fc99082611f3e565b15610a2457611fd6611fad565b6001600160a01b0316816001600160a01b0316837f2f8788117e7eff1d82e926ec794901d17c78024a50270940304540a733656f0d60405160405180910390a45050565b600082815260208190526040902061203290826121d6565b15610a245761203f611fad565b6001600160a01b0316816001600160a01b0316837ff6391f5c32d9c69d2a47ea670b442974b53935d1edc7fd64eb21e047a839171b60405160405180910390a45050565b6000610fc583836040518060400160405280601e81526020017f536166654d6174683a207375627472616374696f6e206f766572666c6f7700008152506121eb565b6000610fc58383612282565b6000610fc5836001600160a01b0384166122e6565b6000610fc8826122fe565b6000610fc583836040518060400160405280601a81526020017f536166654d6174683a206469766973696f6e206279207a65726f000000000000815250612302565b60008261214257506000610fc8565b8282028284828161214f57fe5b0414610fc55760405162461bcd60e51b815260040180806020018281038252602181526020018061302a6021913960400191505060405180910390fd5b600061219883836122e6565b6121ce57508154600181810184556000848152602080822090930184905584548482528286019093526040902091909155610fc8565b506000610fc8565b6000610fc5836001600160a01b038416612367565b6000818484111561227a5760405162461bcd60e51b81526004018080602001828103825283818151815260200191508051906020019080838360005b8381101561223f578181015183820152602001612227565b50505050905090810190601f16801561226c5780820380516001836020036101000a031916815260200191505b509250505060405180910390fd5b505050900390565b815460009082106122c45760405162461bcd60e51b8152600401808060200182810382526022815260200180612fa96022913960400191505060405180910390fd5b8260000182815481106122d357fe5b9060005260206000200154905092915050565b60009081526001919091016020526040902054151590565b5490565b600081836123515760405162461bcd60e51b815260206004820181815283516024840152835190928392604490910191908501908083836000831561223f578181015183820152602001612227565b50600083858161235d57fe5b0495945050505050565b60008181526001830160205260408120548015612423578354600019808301919081019060009087908390811061239a57fe5b90600052602060002001549050808760000184815481106123b757fe5b6000918252602080832090910192909255828152600189810190925260409020908401905586548790806123e757fe5b60019003818190600052602060002001600090559055866001016000878152602001908152602001600020600090556001945050505050610fc8565b6000915050610fc8565b828054600181600116156101000203166002900490600052602060002090601f01602090048101928261246357600085556124a9565b82601f1061247c57805160ff19168380011785556124a9565b828001600101855582156124a9579182015b828111156124a957825182559160200191906001019061248e565b506124b59291506124f5565b5090565b60405180604001604052806002906020820280368337509192915050565b60405180606001604052806003906020820280368337509192915050565b5b808211156124b557600081556001016124f6565b803561099281612f6a565b600060208284031215612526578081fd5b8135610fc581612f6a565b600060208284031215612542578081fd5b8151610fc581612f6a565b600080600080600080600080610100898b031215612569578384fd5b883561257481612f6a565b9750602089013561258481612f6a565b965060408901359550606089013594506080890135935060a08901356125a981612f6a565b925060c0890135915060e08901356125c081612f6a565b809150509295985092959890939650565b600080604083850312156125e3578182fd5b82356125ee81612f6a565b946020939093013593505050565b60006020828403121561260d578081fd5b81518015158114610fc5578182fd5b60006020828403121561262d578081fd5b5035919050565b60008060408385031215612646578182fd5b82359150602083013561265881612f6a565b809150509250929050565b60008060408385031215612675578182fd5b50508035926020909101359150565b600080600060608486031215612698578283fd5b833567ffffffffffffffff808211156126af578485fd5b818601915086601f8301126126c2578485fd5b81356020828211156126d057fe5b604051601f8301601f19168101820184811182821017156126ed57fe5b60405282815284830182018a1015612703578788fd5b828286018383013780830182019790975261271f88820161250a565b955050505050604084013590509250925092565b600060208284031215612744578081fd5b5051919050565b6001600160a01b0316815260200190565b15159052565b60008251612774818460208701612f3a565b9190910192915050565b6001600160a01b0391909116815260200190565b6001600160a01b03929092168252602082015260400190565b6101208101818860005b60028110156127da576127c983835161274b565b9250602091909101906001016127b5565b505050866040830152856060830152608082018560005b60038110156128105781518352602092830192909101906001016127f1565b5050508360e083015261282761010083018461275c565b979650505050505050565b6020808252825182820181905260009190848201906040850190845b818110156128735783516001600160a01b03168352928401929184019160010161284e565b50909695505050505050565b6020808252825182820181905260009190848201906040850190845b818110156128735783518352928401929184019160010161289b565b901515815260200190565b90815260200190565b600060c0825287518060c08401526128ea8160e0850160208c01612f3a565b60208301979097525060408101949094526060840192909252608083015260a082015260e0601f909201601f19160101919050565b6020808252601b908201527f5374616b65315661756c743a20616d6f756e7420657863656564730000000000604082015260600190565b60208082526022908201527f5374616b65315661756c743a20416c72656164792073746172746564207374616040820152616b6560f01b606082015260800190565b6020808252601c908201527f5374616b65315661756c743a20616d6f756e742069732077726f6e6700000000604082015260600190565b60208082526028908201527f5374616b65315661756c743a206164645374616b6572496e5661756c7420696e6040820152676974206661696c7360c01b606082015260800190565b6020808252601a908201527f5374616b65315661756c743a20696e707574206973207a65726f000000000000604082015260600190565b60208082526026908201527f5374616b65315661756c743a207374617274426c6f636b20697320756e617661604082015265696c61626c6560d01b606082015260800190565b6020808252600a90820152690dcdee840cadcdeeaced60b31b604082015260600190565b6020808252601e908201527f5374616b65315661756c743a2062616c616e63652063616c6c206661696c0000604082015260600190565b6020808252601590820152745374616b65315661756c743a20646973636c6f736560581b604082015260600190565b6020808252601690820152755374616b65315661756c743a206e6f207374616b657360501b604082015260600190565b6020808252601c908201527f5374616b65315661756c743a206368616e6765436170206661696c7300000000604082015260600190565b6020808252601e908201527f5374616b65315661756c743a20544f53207472616e73666572206661696c0000604082015260600190565b60208082526023908201527f5374616b65315661756c743a204265666f7265207374616b655374617274426c6040820152626f636b60e81b606082015260800190565b6020808252601990820152785374616b65315661756c743a205f636170206973207a65726f60381b604082015260600190565b6020808252601890820152775374616b65315661756c743a20636c6f7365642073616c6560401b604082015260600190565b6020808252818101527f5374616b65315661756c743a207769746864726177526577617264206661696c604082015260600190565b60208082526026908201527f5374616b65315661756c743a20746f74616c526577617264416d6f756e74206960408201526573207a65726f60d01b606082015260800190565b6020808252601e908201527f5374616b65315661756c743a205f6465666941646472206973207a65726f0000604082015260600190565b6020808252601a908201527f5374616b65315661756c743a20646973636c6f73652073616c65000000000000604082015260600190565b60208082526017908201527614dd185ad94c55985d5b1d0e881b9bdd0818db1bdcd959604a1b604082015260600190565b6020808252601b908201527f5374616b65315661756c743a20616c726561647920636c6f7365640000000000604082015260600190565b6020808252601f908201527f5374616b65315661756c743a20446966666572656e7420706179746f6b656e00604082015260600190565b6020808252601a908201527f5374616b65315661756c743a20416c7265616479206164646564000000000000604082015260600190565b6020808252601c908201527f5374616b65315661756c743a207374617274426c6f636b207a65726f00000000604082015260600190565b60208082526017908201527614dd185ad94c55985d5b1d0e881a5b9cdd59999a595b9d604a1b604082015260600190565b6020808252601f908201527f5374616b65315661756c743a206e6f7420656e6f7567682062616c616e636500604082015260600190565b60208082526021908201527f5374616b65315661756c743a20636c61696d20616d6f756e74206578636565646040820152607360f81b606082015260800190565b6020808252601f908201527f5374616b65315661756c743a207374617274426c6f636b206973207a65726f00604082015260600190565b60005b83811015612f55578181015183820152602001612f3d565b83811115612f64576000848401525b50505050565b6001600160a01b0381168114611f3b57600080fdfe5374616b655661756c7453746f726167653a2043616c6c6572206973206e6f7420616e2061646d696e456e756d657261626c655365743a20696e646578206f7574206f6620626f756e6473416363657373436f6e74726f6c3a2073656e646572206d75737420626520616e2061646d696e20746f206772616e74416363657373436f6e74726f6c3a2073656e646572206d75737420626520616e2061646d696e20746f207265766f6b65536166654d6174683a206d756c7469706c69636174696f6e206f766572666c6f77df8b4c520ffe197c5343c6f5aec59570151ef9a492f2c624fd45ddde6135ec42416363657373436f6e74726f6c3a2063616e206f6e6c792072656e6f756e636520726f6c657320666f722073656c66a2646970667358221220e0b68eb7021d7240935f3fd12f82648e230b68a6b0757bd9b8302c49d949458664736f6c63430007060033df8b4c520ffe197c5343c6f5aec59570151ef9a492f2c624fd45ddde6135ec42",
  "immutableReferences": {},
  "source": "//SPDX-License-Identifier: Unlicense\npragma solidity ^0.7.6;\npragma abicoder v2;\n\nimport \"../interfaces/IStake1Vault.sol\";\nimport {ITOS} from \"../interfaces/ITOS.sol\";\nimport {IERC20} from \"@openzeppelin/contracts/token/ERC20/IERC20.sol\";\nimport \"../interfaces/IStake1Storage.sol\";\nimport \"../libraries/LibTokenStake1.sol\";\nimport {SafeMath} from \"../utils/math/SafeMath.sol\";\nimport \"./StakeVaultStorage.sol\";\n\n/// @title TOS Token's Vault - stores the tos for the period of time\n/// @notice A vault is associated with the set of stake contracts.\n/// Stake contracts can interact with the vault to claim tos tokens\ncontract Stake1Vault is StakeVaultStorage, IStake1Vault {\n    using SafeMath for uint256;\n\n    bytes32 public constant ZERO_HASH =\n        0x0000000000000000000000000000000000000000000000000000000000000000;\n\n    /// @dev event on sale-closed\n    event ClosedSale();\n\n    /// @dev event on sale-closed\n    /// @param from the stakeContract address that call claim\n    /// @param to the address that will receive the reward\n    /// @param amount the amount of reward\n    event ClaimedReward(address indexed from, address to, uint256 amount);\n\n    /// @dev constructor of Stake1Vault\n    constructor() {\n        _setRoleAdmin(ADMIN_ROLE, ADMIN_ROLE);\n        _setupRole(ADMIN_ROLE, msg.sender);\n    }\n\n    /// @dev receive function\n    receive() external payable {}\n\n    /// @dev Initializes all variables\n    /// @param _tos  TOS token address\n    /// @param _paytoken  Tokens staked by users, can be used as ERC20 tokens.\n    //                     (In case of ETH, input address(0))\n    /// @param _cap  Maximum amount of rewards issued, allocated reward amount.\n    /// @param _saleStartBlock  the sale start block\n    /// @param _stakeStartBlock  the staking start block\n    /// @param _stakefactory the factory address to create stakeContract\n    /// @param _stakeType  Type of staking contract, 0 TON staking, 1 basic ERC20 staking, 2 Defi linked staking\n    /// @param _defiAddr Used when an external address is required. default: address(0)\n    function initialize(\n        address _tos,\n        address _paytoken,\n        uint256 _cap,\n        uint256 _saleStartBlock,\n        uint256 _stakeStartBlock,\n        address _stakefactory,\n        uint256 _stakeType,\n        address _defiAddr\n    ) external override onlyOwner {\n        require(\n            _tos != address(0) && _stakefactory != address(0),\n            \"Stake1Vault: input is zero\"\n        );\n        require(_cap > 0, \"Stake1Vault: _cap is zero\");\n        require(\n            _saleStartBlock < _stakeStartBlock && _stakeStartBlock > 0,\n            \"Stake1Vault: startBlock is unavailable\"\n        );\n\n        tos = _tos;\n        cap = _cap;\n        paytoken = _paytoken;\n        saleStartBlock = _saleStartBlock;\n        stakeStartBlock = _stakeStartBlock;\n        stakeType = _stakeType;\n        defiAddr = _defiAddr;\n\n        grantRole(ADMIN_ROLE, _stakefactory);\n    }\n\n    /// @dev Sets TOS address\n    /// @param _tos  TOS address\n    function setTOS(address _tos) external override onlyOwner {\n        require(_tos != address(0), \"Stake1Vault: input is zero\");\n        tos = _tos;\n    }\n\n    /// @dev Change cap of the vault\n    /// @param _cap  allocated reward amount\n    function changeCap(uint256 _cap) external override onlyOwner {\n        require(_cap > 0 && cap != _cap, \"Stake1Vault: changeCap fails\");\n        cap = _cap;\n    }\n\n    /// @dev Set Defi Address\n    /// @param _defiAddr DeFi related address\n    function setDefiAddr(address _defiAddr) external override onlyOwner {\n        require(\n            _defiAddr != address(0) && defiAddr != _defiAddr,\n            \"Stake1Vault: _defiAddr is zero\"\n        );\n        defiAddr = _defiAddr;\n    }\n\n    /// @dev If the vault has more money than the reward owed, the owner can withdraw the remaining amount.\n    /// @param _amount the amount of withdrawal\n    function withdrawReward(uint256 _amount) external override onlyOwner {\n        require(saleClosed == true, \"Stake1Vault: not closed\");\n        uint256 rewardAmount = 0;\n        for (uint256 i = 0; i < stakeAddresses.length; i++) {\n            rewardAmount = rewardAmount\n                .add(stakeInfos[stakeAddresses[i]].totalRewardAmount)\n                .sub(stakeInfos[stakeAddresses[i]].claimRewardAmount);\n        }\n        uint256 balanceOf = IERC20(tos).balanceOf(address(this));\n        require(\n            balanceOf >= rewardAmount.add(_amount),\n            \"Stake1Vault: insuffient\"\n        );\n        require(\n            IERC20(tos).transfer(msg.sender, _amount),\n            \"Stake1Vault: withdrawReward fail\"\n        );\n    }\n\n    /// @dev  Add stake contract\n    /// @param _name stakeContract's name\n    /// @param stakeContract stakeContract's address\n    /// @param periodBlocks the period that give rewards of stakeContract\n    function addSubVaultOfStake(\n        string memory _name,\n        address stakeContract,\n        uint256 periodBlocks\n    ) external override onlyOwner {\n        require(\n            stakeContract != address(0) && cap > 0 && periodBlocks > 0,\n            \"Stake1Vault: addStakerInVault init fails\"\n        );\n        require(\n            block.number < stakeStartBlock,\n            \"Stake1Vault: Already started stake\"\n        );\n        require(saleClosed == false, \"Stake1Vault: closed sale\");\n        require(\n            paytoken == IStake1Storage(stakeContract).paytoken(),\n            \"Stake1Vault: Different paytoken\"\n        );\n\n        LibTokenStake1.StakeInfo storage info = stakeInfos[stakeContract];\n        require(info.startBlock == 0, \"Stake1Vault: Already added\");\n\n        stakeAddresses.push(stakeContract);\n        uint256 _endBlock = stakeStartBlock.add(periodBlocks);\n\n        info.name = _name;\n        info.startBlock = stakeStartBlock;\n        info.endBlock = _endBlock;\n\n        if (stakeEndBlock < _endBlock) stakeEndBlock = _endBlock;\n        orderedEndBlocks.push(stakeEndBlock);\n    }\n\n    /// @dev  Close the sale that can stake by user\n    function closeSale() external override {\n        require(saleClosed == false, \"Stake1Vault: already closed\");\n        require(\n            cap > 0 &&\n                stakeStartBlock > 0 &&\n                stakeStartBlock < stakeEndBlock &&\n                block.number > stakeStartBlock,\n            \"Stake1Vault: Before stakeStartBlock\"\n        );\n        require(stakeAddresses.length > 0, \"Stake1Vault: no stakes\");\n\n        realEndBlock = stakeEndBlock;\n\n        // check balance, update balance\n        for (uint256 i = 0; i < stakeAddresses.length; i++) {\n            LibTokenStake1.StakeInfo storage stakeInfo =\n                stakeInfos[stakeAddresses[i]];\n            if (paytoken == address(0)) {\n                stakeInfo.balance = address(uint160(stakeAddresses[i])).balance;\n            } else {\n                (bool success, bytes memory returnData) =\n                    paytoken.call(\n                        abi.encodeWithSignature(\n                            \"balanceOf(address)\",\n                            stakeAddresses[i]\n                        )\n                    );\n                require(success, \"Stake1Vault: balance call fail\");\n                uint256 balanceAmount = abi.decode(returnData, (uint256));\n                stakeInfo.balance = balanceAmount;\n            }\n            if (stakeInfo.balance > 0)\n                realEndBlock = stakeInfos[stakeAddresses[i]].endBlock;\n        }\n\n        blockTotalReward = cap.div(realEndBlock.sub(stakeStartBlock));\n\n        uint256 sum = 0;\n        // update total\n        for (uint256 i = 0; i < stakeAddresses.length; i++) {\n            LibTokenStake1.StakeInfo storage totalcheck =\n                stakeInfos[stakeAddresses[i]];\n            uint256 total = 0;\n            for (uint256 j = 0; j < stakeAddresses.length; j++) {\n                if (\n                    stakeInfos[stakeAddresses[j]].endBlock >=\n                    totalcheck.endBlock\n                ) {\n                    total = total.add(stakeInfos[stakeAddresses[j]].balance);\n                }\n            }\n\n            if (totalcheck.endBlock <= realEndBlock) {\n                stakeEndBlockTotal[totalcheck.endBlock] = total;\n\n                sum = sum.add(total);\n\n                // reward total\n                uint256 totalReward = 0;\n                for (uint256 k = i; k > 0; k--) {\n                    if (\n                        stakeEndBlockTotal[\n                            stakeInfos[stakeAddresses[k]].endBlock\n                        ] > 0\n                    ) {\n                        totalReward = totalReward.add(\n                            stakeInfos[stakeAddresses[k]]\n                                .endBlock\n                                .sub(stakeInfos[stakeAddresses[k - 1]].endBlock)\n                                .mul(blockTotalReward)\n                                .mul(totalcheck.balance)\n                                .div(\n                                stakeEndBlockTotal[\n                                    stakeInfos[stakeAddresses[k]].endBlock\n                                ]\n                            )\n                        );\n                    }\n                }\n\n                if (\n                    stakeEndBlockTotal[stakeInfos[stakeAddresses[0]].endBlock] >\n                    0\n                ) {\n                    totalReward = totalReward.add(\n                        stakeInfos[stakeAddresses[0]]\n                            .endBlock\n                            .sub(stakeInfos[stakeAddresses[0]].startBlock)\n                            .mul(blockTotalReward)\n                            .mul(totalcheck.balance)\n                            .div(\n                            stakeEndBlockTotal[\n                                stakeInfos[stakeAddresses[0]].endBlock\n                            ]\n                        )\n                    );\n                }\n                totalcheck.totalRewardAmount = totalReward;\n            }\n        }\n\n        saleClosed = true;\n        emit ClosedSale();\n    }\n\n    /// @dev claim function.\n    /// @dev sender is a staking contract.\n    /// @dev A function that pays the amount(_amount) to _to by the staking contract.\n    /// @dev A function that _to claim the amount(_amount) from the staking contract and gets the TOS in the vault.\n    /// @param _to a user that received reward\n    /// @param _amount the receiving amount\n    /// @return true\n    function claim(address _to, uint256 _amount)\n        external\n        override\n        returns (bool)\n    {\n        require(saleClosed && _amount > 0, \"Stake1Vault: disclose sale\");\n        uint256 tosBalance = IERC20(tos).balanceOf(address(this));\n        require(tosBalance >= _amount, \"Stake1Vault: not enough balance\");\n\n        LibTokenStake1.StakeInfo storage stakeInfo = stakeInfos[msg.sender];\n        require(stakeInfo.startBlock > 0, \"Stake1Vault: startBlock zero\");\n        require(\n            stakeInfo.totalRewardAmount > 0,\n            \"Stake1Vault: totalRewardAmount is zero\"\n        );\n        require(\n            stakeInfo.totalRewardAmount >=\n                stakeInfo.claimRewardAmount.add(_amount),\n            \"Stake1Vault: claim amount exceeds\"\n        );\n\n        stakeInfo.claimRewardAmount = stakeInfo.claimRewardAmount.add(_amount);\n\n        require(\n            IERC20(tos).transfer(_to, _amount),\n            \"Stake1Vault: TOS transfer fail\"\n        );\n\n        emit ClaimedReward(msg.sender, _to, _amount);\n        return true;\n    }\n\n    /// @dev whether it is available to claim amount, if it is available , return the total reward amount\n    /// @param _to  a staking contract.\n    /// @param _amount the total reward amount of stakeContract\n    /// @return true\n    function canClaim(address _to, uint256 _amount)\n        external\n        view\n        override\n        returns (bool)\n    {\n        require(saleClosed, \"Stake1Vault: disclose\");\n        uint256 tosBalance = IERC20(tos).balanceOf(address(this));\n        require(tosBalance >= _amount, \"not enough\");\n\n        LibTokenStake1.StakeInfo storage stakeInfo = stakeInfos[_to];\n        require(stakeInfo.startBlock > 0, \"Stake1Vault: startBlock is zero\");\n\n        require(\n            stakeInfo.totalRewardAmount > 0,\n            \"Stake1Vault: amount is wrong\"\n        );\n        require(\n            stakeInfo.totalRewardAmount >=\n                stakeInfo.claimRewardAmount.add(_amount),\n            \"Stake1Vault: amount exceeds\"\n        );\n\n        return true;\n    }\n\n    /// @dev Returns Give the TOS balance stored in the vault\n    /// @return the balance of TOS in this vault.\n    function balanceTOSAvailableAmount()\n        external\n        view\n        override\n        returns (uint256)\n    {\n        return IERC20(tos).balanceOf(address(this));\n    }\n\n    /// @dev Give all stakeContracts's addresses in this vault\n    /// @return all stakeContracts's addresses\n    function stakeAddressesAll()\n        external\n        view\n        override\n        returns (address[] memory)\n    {\n        return stakeAddresses;\n    }\n\n    /// @dev Give the ordered end blocks of stakeContracts in this vault\n    /// @return the ordered end blocks\n    function orderedEndBlocksAll()\n        external\n        view\n        override\n        returns (uint256[] memory)\n    {\n        return orderedEndBlocks;\n    }\n\n    /// @dev Give Total reward amount of stakeContract(_account)\n    /// @return Total reward amount of stakeContract(_account)\n    function totalRewardAmount(address _account)\n        external\n        view\n        override\n        returns (uint256)\n    {\n        return stakeInfos[_account].totalRewardAmount;\n    }\n\n    /// @dev Give the infomation of this vault\n    /// @return [paytoken,defiAddr], cap, stakeType, [saleStartBlock, stakeStartBlock, stakeEndBlock], blockTotalReward, saleClosed\n    function infos()\n        external\n        view\n        override\n        returns (\n            address[2] memory,\n            uint256,\n            uint256,\n            uint256[3] memory,\n            uint256,\n            bool\n        )\n    {\n        return (\n            [paytoken, defiAddr],\n            cap,\n            stakeType,\n            [saleStartBlock, stakeStartBlock, stakeEndBlock],\n            blockTotalReward,\n            saleClosed\n        );\n    }\n}\n",
  "sourcePath": "/Users/zena/ico2.0/ico20-contracts/contracts/stake/Stake1Vault.sol",
  "compiler": {
    "name": "solc",
    "version": "0.7.6+commit.7338295f.Emscripten.clang"
  },
  "schemaVersion": "3.3.4",
  "updatedAt": "2021-06-15T10:43:40.628Z",
  "devdoc": {
    "events": {
      "ClaimedReward(address,address,uint256)": {
        "details": "event on sale-closed",
        "params": {
          "amount": "the amount of reward",
          "from": "the stakeContract address that call claim",
          "to": "the address that will receive the reward"
        }
      },
      "ClosedSale()": {
        "details": "event on sale-closed"
      }
    },
    "kind": "dev",
    "methods": {
      "addSubVaultOfStake(string,address,uint256)": {
        "details": "Add stake contract",
        "params": {
          "_name": "stakeContract's name",
          "periodBlocks": "the period that give rewards of stakeContract",
          "stakeContract": "stakeContract's address"
        }
      },
      "balanceTOSAvailableAmount()": {
        "details": "Returns Give the TOS balance stored in the vault",
        "returns": {
          "_0": "the balance of TOS in this vault."
        }
      },
      "canClaim(address,uint256)": {
        "details": "whether it is available to claim amount, if it is available , return the total reward amount",
        "params": {
          "_amount": "the total reward amount of stakeContract",
          "_to": "a staking contract."
        },
        "returns": {
          "_0": "true"
        }
      },
      "changeCap(uint256)": {
        "details": "Change cap of the vault",
        "params": {
          "_cap": "allocated reward amount"
        }
      },
      "claim(address,uint256)": {
        "details": "claim function.sender is a staking contract.A function that pays the amount(_amount) to _to by the staking contract.A function that _to claim the amount(_amount) from the staking contract and gets the TOS in the vault.",
        "params": {
          "_amount": "the receiving amount",
          "_to": "a user that received reward"
        },
        "returns": {
          "_0": "true"
        }
      },
      "closeSale()": {
        "details": "Close the sale that can stake by user"
      },
      "constructor": {
        "details": "constructor of Stake1Vault"
      },
      "getRoleAdmin(bytes32)": {
        "details": "Returns the admin role that controls `role`. See {grantRole} and {revokeRole}. To change a role's admin, use {_setRoleAdmin}."
      },
      "getRoleMember(bytes32,uint256)": {
        "details": "Returns one of the accounts that have `role`. `index` must be a value between 0 and {getRoleMemberCount}, non-inclusive. Role bearers are not sorted in any particular way, and their ordering may change at any point. WARNING: When using {getRoleMember} and {getRoleMemberCount}, make sure you perform all queries on the same block. See the following https://forum.openzeppelin.com/t/iterating-over-elements-on-enumerableset-in-openzeppelin-contracts/2296[forum post] for more information."
      },
      "getRoleMemberCount(bytes32)": {
        "details": "Returns the number of accounts that have `role`. Can be used together with {getRoleMember} to enumerate all bearers of a role."
      },
      "grantRole(bytes32,address)": {
        "details": "Grants `role` to `account`. If `account` had not been already granted `role`, emits a {RoleGranted} event. Requirements: - the caller must have ``role``'s admin role."
      },
      "hasRole(bytes32,address)": {
        "details": "Returns `true` if `account` has been granted `role`."
      },
      "infos()": {
        "details": "Give the infomation of this vault",
        "returns": {
          "_0": "[paytoken,defiAddr], cap, stakeType, [saleStartBlock, stakeStartBlock, stakeEndBlock], blockTotalReward, saleClosed"
        }
      },
      "initialize(address,address,uint256,uint256,uint256,address,uint256,address)": {
        "params": {
          "_cap": "Maximum amount of rewards issued, allocated reward amount.",
          "_defiAddr": "Used when an external address is required. default: address(0)",
          "_saleStartBlock": "the sale start block",
          "_stakeStartBlock": "the staking start block",
          "_stakeType": "Type of staking contract, 0 TON staking, 1 basic ERC20 staking, 2 Defi linked staking",
          "_stakefactory": "the factory address to create stakeContract"
        }
      },
      "orderedEndBlocksAll()": {
        "details": "Give the ordered end blocks of stakeContracts in this vault",
        "returns": {
          "_0": "the ordered end blocks"
        }
      },
      "renounceRole(bytes32,address)": {
        "details": "Revokes `role` from the calling account. Roles are often managed via {grantRole} and {revokeRole}: this function's purpose is to provide a mechanism for accounts to lose their privileges if they are compromised (such as when a trusted device is misplaced). If the calling account had been granted `role`, emits a {RoleRevoked} event. Requirements: - the caller must be `account`."
      },
      "revokeRole(bytes32,address)": {
        "details": "Revokes `role` from `account`. If `account` had been granted `role`, emits a {RoleRevoked} event. Requirements: - the caller must have ``role``'s admin role."
      },
      "setDefiAddr(address)": {
        "details": "Set Defi Address",
        "params": {
          "_defiAddr": "DeFi related address"
        }
      },
      "setTOS(address)": {
        "details": "Sets TOS address",
        "params": {
          "_tos": "TOS address"
        }
      },
      "stakeAddressesAll()": {
        "details": "Give all stakeContracts's addresses in this vault",
        "returns": {
          "_0": "all stakeContracts's addresses"
        }
      },
      "totalRewardAmount(address)": {
        "details": "Give Total reward amount of stakeContract(_account)",
        "returns": {
          "_0": "Total reward amount of stakeContract(_account)"
        }
      },
      "transferOwnership(address)": {
        "details": "transfer Ownership",
        "params": {
          "newOwner": "new owner address"
        }
      },
      "withdrawReward(uint256)": {
        "details": "If the vault has more money than the reward owed, the owner can withdraw the remaining amount.",
        "params": {
          "_amount": "the amount of withdrawal"
        }
      }
    },
    "title": "TOS Token's Vault - stores the tos for the period of time",
    "version": 1
  },
  "userdoc": {
    "kind": "user",
    "methods": {},
    "notice": "A vault is associated with the set of stake contracts. Stake contracts can interact with the vault to claim tos tokens",
    "version": 1
  }
}