{
  "contractName": "StakeDefiFactory",
  "abi": [
    {
      "inputs": [
        {
          "internalType": "address",
          "name": "_stakeDefiLogic",
          "type": "address"
        }
      ],
      "stateMutability": "nonpayable",
      "type": "constructor"
    },
    {
      "inputs": [],
      "name": "ADMIN_ROLE",
      "outputs": [
        {
          "internalType": "bytes32",
          "name": "",
          "type": "bytes32"
        }
      ],
      "stateMutability": "view",
      "type": "function"
    },
    {
      "inputs": [],
      "name": "stakeDefiLogic",
      "outputs": [
        {
          "internalType": "address",
          "name": "",
          "type": "address"
        }
      ],
      "stateMutability": "view",
      "type": "function"
    },
    {
      "inputs": [
        {
          "internalType": "address[3]",
          "name": "_addr",
          "type": "address[3]"
        },
        {
          "internalType": "address",
          "name": "_registry",
          "type": "address"
        },
        {
          "internalType": "uint256[3]",
          "name": "_intdata",
          "type": "uint256[3]"
        },
        {
          "internalType": "address",
          "name": "owner",
          "type": "address"
        }
      ],
      "name": "create",
      "outputs": [
        {
          "internalType": "address",
          "name": "",
          "type": "address"
        }
      ],
      "stateMutability": "nonpayable",
      "type": "function"
    }
  ],
  "bytecode": "0x608060405234801561001057600080fd5b506040516118a93803806118a98339818101604052602081101561003357600080fd5b50516001600160a01b038116610090576040805162461bcd60e51b815260206004820152601c60248201527f5374616b6544656669466163746f72793a206c6f676963207a65726f00000000604482015290519081900360640190fd5b600080546001600160a01b039092166001600160a01b03199092169190911790556117e9806100c06000396000f3fe608060405234801561001057600080fd5b50600436106100415760003560e01c806306bd7feb1461004657806375b238fc1461009a578063b9eb37e4146100b4575b600080fd5b61007e600480360361010081101561005d57600080fd5b506001600160a01b036060820135811690608083019060e0840135166100bc565b604080516001600160a01b039092168252519081900360200190f35b6100a2610304565b60408051918252519081900360200190f35b61007e610316565b6000805460405182916001600160a01b0316906100d890610325565b6001600160a01b03909116815260405190819003602001906000f080158015610105573d6000803e3d6000fd5b5090506001600160a01b038116610163576040805162461bcd60e51b815260206004820152601c60248201527f5374616b6544656669466163746f72793a2070726f7879207a65726f00000000604482015290519081900360640190fd5b60405163eea9bb3960e01b81526001600160a01b0382169063eea9bb399088908890889060040180846060808284376000838201526001600160a01b038616601f909101601f19169092019182525060200182606080828437600081840152601f19601f8201169050808301925050509350505050600060405180830381600087803b1580156101f257600080fd5b505af1158015610206573d6000803e3d6000fd5b50505050806001600160a01b0316632f2ff15d600080516020611794833981519152856040518363ffffffff1660e01b815260040180838152602001826001600160a01b0316815260200192505050600060405180830381600087803b15801561026f57600080fd5b505af1158015610283573d6000803e3d6000fd5b50506040805163d547741f60e01b8152600080516020611794833981519152600482015230602482015290516001600160a01b038516935063d547741f9250604480830192600092919082900301818387803b1580156102e257600080fd5b505af11580156102f6573d6000803e3d6000fd5b509298975050505050505050565b60008051602061179483398151915281565b6000546001600160a01b031681565b611461806103338339019056fe60806040523480156200001157600080fd5b506040516200146138038062001461833981810160405260208110156200003757600080fd5b5051620000546000805160206200144183398151915280620000b0565b6200006f600080516020620014418339815191523362000102565b6200008a600080516020620014418339815191523062000102565b600d80546001600160a01b0319166001600160a01b039290921691909117905562000218565b6000828152600c6020526040808220600201549051839285917fbd79b86ffe0ab8e8776151514217cd7cacd52c909f66475c3af44e129f0b00ff9190a46000918252600c602052604090912060020155565b6200010e828262000112565b5050565b6000828152600c602090815260409091206200013991839062000e0b6200018d821b17901c565b156200010e5762000149620001ad565b6001600160a01b0316816001600160a01b0316837f2f8788117e7eff1d82e926ec794901d17c78024a50270940304540a733656f0d60405160405180910390a45050565b6000620001a4836001600160a01b038416620001b1565b90505b92915050565b3390565b6000620001bf838362000200565b620001f757508154600181810184556000848152602080822090930184905584548482528286019093526040902091909155620001a7565b506000620001a7565b60009081526001919091016020526040902054151590565b61121980620002286000396000f3fe60806040526004361061017b5760003560e01c806386989038116100cc578063ca15c8731161007a578063ca15c8731461051c578063d547741f14610546578063dac3fc3f1461057f578063eea9bb39146105b2578063f2fde38b14610651578063fbfa77cf14610684578063fc0c546a146106995761018a565b8063869890381461038c5780639010d07c146103a157806391d14854146103d15780639a88be2f1461040a578063a217fddf14610485578063acc3a9391461049a578063b2d4d6a3146105075761018a565b806348cd4cb11161012957806348cd4cb1146102ce578063567e98f9146102e35780635c60da1b146102f857806363a8fd891461030d578063683048351461033657806375b238fc1461034b5780637cb00d25146103605761018a565b8063083c63231461019257806320027275146101b9578063248a9ca3146101ce5780632f2ff15d146101f857806336568abe146102315780633659cfe61461026a57806343b0934a1461029d5761018a565b3661018a576101886106ae565b005b6101886106ae565b34801561019e57600080fd5b506101a761073b565b60408051918252519081900360200190f35b3480156101c557600080fd5b506101a7610741565b3480156101da57600080fd5b506101a7600480360360208110156101f157600080fd5b5035610747565b34801561020457600080fd5b506101886004803603604081101561021b57600080fd5b50803590602001356001600160a01b031661075c565b34801561023d57600080fd5b506101886004803603604081101561025457600080fd5b50803590602001356001600160a01b03166107c8565b34801561027657600080fd5b506101886004803603602081101561028d57600080fd5b50356001600160a01b0316610829565b3480156102a957600080fd5b506102b2610972565b604080516001600160a01b039092168252519081900360200190f35b3480156102da57600080fd5b506101a7610981565b3480156102ef57600080fd5b506101a7610987565b34801561030457600080fd5b506102b261098d565b34801561031957600080fd5b5061032261099c565b604080519115158252519081900360200190f35b34801561034257600080fd5b506102b26109ac565b34801561035757600080fd5b506101a76109bb565b34801561036c57600080fd5b506101886004803603602081101561038357600080fd5b503515156109cd565b34801561039857600080fd5b506101a7610a43565b3480156103ad57600080fd5b506102b2600480360360408110156103c457600080fd5b5080359060200135610a49565b3480156103dd57600080fd5b50610322600480360360408110156103f457600080fd5b50803590602001356001600160a01b0316610a6a565b34801561041657600080fd5b5061041f610a82565b604080516001600160a01b0380891682528716602082015290810185606080838360005b8381101561045b578181015183820152602001610443565b50505050905001848152602001838152602001828152602001965050505050505060405180910390f35b34801561049157600080fd5b506101a7610ad8565b3480156104a657600080fd5b506104cd600480360360208110156104bd57600080fd5b50356001600160a01b0316610add565b604080519788526020880196909652868601949094526060860192909252608085015260a0840152151560c0830152519081900360e00190f35b34801561051357600080fd5b506101a7610b1d565b34801561052857600080fd5b506101a76004803603602081101561053f57600080fd5b5035610b23565b34801561055257600080fd5b506101886004803603604081101561056957600080fd5b50803590602001356001600160a01b0316610b3a565b34801561058b57600080fd5b506104cd600480360360208110156105a257600080fd5b50356001600160a01b0316610b93565b3480156105be57600080fd5b50610188600480360360e08110156105d557600080fd5b81019080806060019060038060200260405190810160405280929190826003602002808284376000920191909152505060408051606081810190925292956001600160a01b038535169590949093608082019350916020909101906003908390839080828437600092019190915250919450610bdc9350505050565b34801561065d57600080fd5b506101886004803603602081101561067457600080fd5b50356001600160a01b0316610d08565b34801561069057600080fd5b506102b2610ded565b3480156106a557600080fd5b506102b2610dfc565b60006106b861098d565b90506001600160a01b038116158015906106dc5750600d54600160a01b900460ff16155b6107175760405162461bcd60e51b815260040180806020018281038252602e815260200180611187602e913960400191505060405180910390fd5b3660008037600080366000845af43d6000803e808015610736573d6000f35b3d6000fd5b60065481565b60045481565b6000908152600c602052604090206002015490565b6000828152600c602052604090206002015461077f9061077a610e20565b610a6a565b6107ba5760405162461bcd60e51b815260040180806020018281038252602f815260200180611108602f913960400191505060405180910390fd5b6107c48282610e24565b5050565b6107d0610e20565b6001600160a01b0316816001600160a01b03161461081f5760405162461bcd60e51b815260040180806020018281038252602f8152602001806111b5602f913960400191505060405180910390fd5b6107c48282610e8d565b61084160008051602061116783398151915233610a6a565b610881576040805162461bcd60e51b815260206004820152600c60248201526b3737ba1030b71030b236b4b760a11b604482015290519081900360640190fd5b6001600160a01b0381166108dc576040805162461bcd60e51b815260206004820152601d60248201527f5374616b654465666950726f78793a20696e707574206973207a65726f000000604482015290519081900360640190fd5b600d546001600160a01b0382811691161415610928576040805162461bcd60e51b8152602060048083019190915260248201526373616d6560e01b604482015290519081900360640190fd5b600d80546001600160a01b0319166001600160a01b0383169081179091556040517fbc7cd75a20ee27fd9adebab32041f755214dbc6bffa90cc0225b39da2e5c2d3b90600090a250565b6002546001600160a01b031681565b60055481565b60085481565b600d546001600160a01b031690565b600d54600160a01b900460ff1681565b6001546001600160a01b031681565b60008051602061116783398151915281565b6109e560008051602061116783398151915233610a6a565b610a25576040805162461bcd60e51b815260206004820152600c60248201526b3737ba1030b71030b236b4b760a11b604482015290519081900360640190fd5b600d8054911515600160a01b0260ff60a01b19909216919091179055565b600a5481565b6000828152600c60205260408120610a619083610ef6565b90505b92915050565b6000828152600c60205260408120610a619083610f02565b600080610a8d6110c7565b5050600254600354604080516060810182526004548152600554602082015260065491810191909152600754600854600a546001600160a01b03958616979590941695509193909290565b600081565b6009602052600090815260409020805460018201546002830154600384015460048501546005860154600690960154949593949293919290919060ff1687565b60075481565b6000818152600c60205260408120610a6490610f17565b6000828152600c6020526040902060020154610b589061077a610e20565b61081f5760405162461bcd60e51b81526004018080602001828103825260308152602001806111376030913960400191505060405180910390fd5b6001600160a01b03166000908152600960205260409020805460018201546002830154600384015460048501546005860154600690960154949693959294919390929160ff1690565b610bf460008051602061116783398151915233610a6a565b610c34576040805162461bcd60e51b815260206004820152600c60248201526b3737ba1030b71030b236b4b760a11b604482015290519081900360640190fd5b60408301516001600160a01b031615801590610c54575060208101518151105b610c94576040805162461bcd60e51b815260206004820152600c60248201526b1cd95d125b9a5d0819985a5b60a21b604482015290519081900360640190fd5b8251600080546001600160a01b03199081166001600160a01b0393841617909155602080860151600280548416918516919091179055604095860151600380548416918516919091179055600180549092169490921693909317909255805160045590810151600581905591015101600655565b610d2060008051602061116783398151915233610a6a565b610d60576040805162461bcd60e51b815260206004820152600c60248201526b3737ba1030b71030b236b4b760a11b604482015290519081900360640190fd5b336001600160a01b0382161415610dba576040805162461bcd60e51b815260206004820152601960248201527829ba30b5b2a232b334a83937bc3c9d39b0b6b29037bbb732b960391b604482015290519081900360640190fd5b610dd26000805160206111678339815191528261075c565b610dea60008051602061116783398151915233610b3a565b50565b6003546001600160a01b031681565b6000546001600160a01b031681565b6000610a61836001600160a01b038416610f22565b3390565b6000828152600c60205260409020610e3c9082610e0b565b156107c457610e49610e20565b6001600160a01b0316816001600160a01b0316837f2f8788117e7eff1d82e926ec794901d17c78024a50270940304540a733656f0d60405160405180910390a45050565b6000828152600c60205260409020610ea59082610f6c565b156107c457610eb2610e20565b6001600160a01b0316816001600160a01b0316837ff6391f5c32d9c69d2a47ea670b442974b53935d1edc7fd64eb21e047a839171b60405160405180910390a45050565b6000610a618383610f81565b6000610a61836001600160a01b038416610fe5565b6000610a6482610ffd565b6000610f2e8383610fe5565b610f6457508154600181810184556000848152602080822090930184905584548482528286019093526040902091909155610a64565b506000610a64565b6000610a61836001600160a01b038416611001565b81546000908210610fc35760405162461bcd60e51b81526004018080602001828103825260228152602001806110e66022913960400191505060405180910390fd5b826000018281548110610fd257fe5b9060005260206000200154905092915050565b60009081526001919091016020526040902054151590565b5490565b600081815260018301602052604081205480156110bd578354600019808301919081019060009087908390811061103457fe5b906000526020600020015490508087600001848154811061105157fe5b60009182526020808320909101929092558281526001898101909252604090209084019055865487908061108157fe5b60019003818190600052602060002001600090559055866001016000878152602001908152602001600020600090556001945050505050610a64565b6000915050610a64565b6040518060600160405280600390602082028036833750919291505056fe456e756d657261626c655365743a20696e646578206f7574206f6620626f756e6473416363657373436f6e74726f6c3a2073656e646572206d75737420626520616e2061646d696e20746f206772616e74416363657373436f6e74726f6c3a2073656e646572206d75737420626520616e2061646d696e20746f207265766f6b65df8b4c520ffe197c5343c6f5aec59570151ef9a492f2c624fd45ddde6135ec425374616b654465666950726f78793a20696d706c206973207a65726f204f522070726f78792069732066616c7365416363657373436f6e74726f6c3a2063616e206f6e6c792072656e6f756e636520726f6c657320666f722073656c66a2646970667358221220e23a4051a28f13c86b4d75492d7f5c8f0de250c72d87260fd441e099e832e3b664736f6c63430007060033df8b4c520ffe197c5343c6f5aec59570151ef9a492f2c624fd45ddde6135ec42df8b4c520ffe197c5343c6f5aec59570151ef9a492f2c624fd45ddde6135ec42a26469706673582212200bae5c8707eff64dfba5439261f3be4088bbf15db48a2929fb5717e97f32dd7464736f6c63430007060033",
  "immutableReferences": {},
  "source": "// SPDX-License-Identifier: MIT\npragma solidity ^0.7.6;\n\nimport \"../interfaces/IStakeDefiFactory.sol\";\nimport {StakeDefiProxy} from \"../stake/StakeDefiProxy.sol\";\n\n/// @title A factory that creates a stake contract that can function as a DeFi function\ncontract StakeDefiFactory is IStakeDefiFactory {\n    bytes32 public constant ADMIN_ROLE = keccak256(\"ADMIN\");\n    address public stakeDefiLogic;\n\n    /// @dev constructor of StakeDefiFactory\n    /// @param _stakeDefiLogic the logic address used in StakeDefiFactory\n    constructor(address _stakeDefiLogic) {\n        require(_stakeDefiLogic != address(0), \"StakeDefiFactory: logic zero\");\n        stakeDefiLogic = _stakeDefiLogic;\n    }\n\n    /// @dev Create a stake contract that can operate the staked amount as a DeFi project.\n    /// @param _addr array of [token, paytoken, vault]\n    /// @param _registry  registry address\n    /// @param _intdata array of [saleStartBlock, startBlock, periodBlocks]\n    /// @param owner  owner address\n    /// @return contract address\n    function create(\n        address[3] calldata _addr,\n        address _registry,\n        uint256[3] calldata _intdata,\n        address owner\n    ) external override returns (address) {\n        StakeDefiProxy proxy = new StakeDefiProxy(stakeDefiLogic);\n        require(address(proxy) != address(0), \"StakeDefiFactory: proxy zero\");\n\n        proxy.setInit(_addr, _registry, _intdata);\n        proxy.grantRole(ADMIN_ROLE, owner);\n        proxy.revokeRole(ADMIN_ROLE, address(this));\n\n        return address(proxy);\n    }\n}\n",
  "sourcePath": "/Users/zena/ico2.0/ico20-contracts/contracts/factory/StakeDefiFactory.sol",
  "compiler": {
    "name": "solc",
    "version": "0.7.6+commit.7338295f.Emscripten.clang"
  },
  "schemaVersion": "3.3.4",
  "updatedAt": "2021-06-15T10:41:10.285Z",
  "devdoc": {
    "kind": "dev",
    "methods": {
      "constructor": {
        "details": "constructor of StakeDefiFactory",
        "params": {
          "_stakeDefiLogic": "the logic address used in StakeDefiFactory"
        }
      },
      "create(address[3],address,uint256[3],address)": {
        "details": "Create a stake contract that can operate the staked amount as a DeFi project.",
        "params": {
          "_addr": "array of [token, paytoken, vault]",
          "_intdata": "array of [saleStartBlock, startBlock, periodBlocks]",
          "_registry": "registry address",
          "owner": "owner address"
        },
        "returns": {
          "_0": "contract address"
        }
      }
    },
    "title": "A factory that creates a stake contract that can function as a DeFi function",
    "version": 1
  },
  "userdoc": {
    "kind": "user",
    "methods": {},
    "version": 1
  }
}