{
  "contractName": "StakeSimple",
  "abi": [
    {
      "inputs": [],
      "stateMutability": "nonpayable",
      "type": "constructor"
    },
    {
      "anonymous": false,
      "inputs": [
        {
          "indexed": true,
          "internalType": "address",
          "name": "to",
          "type": "address"
        },
        {
          "indexed": false,
          "internalType": "uint256",
          "name": "amount",
          "type": "uint256"
        },
        {
          "indexed": false,
          "internalType": "uint256",
          "name": "claimBlock",
          "type": "uint256"
        }
      ],
      "name": "Claimed",
      "type": "event"
    },
    {
      "anonymous": false,
      "inputs": [
        {
          "indexed": true,
          "internalType": "bytes32",
          "name": "role",
          "type": "bytes32"
        },
        {
          "indexed": true,
          "internalType": "bytes32",
          "name": "previousAdminRole",
          "type": "bytes32"
        },
        {
          "indexed": true,
          "internalType": "bytes32",
          "name": "newAdminRole",
          "type": "bytes32"
        }
      ],
      "name": "RoleAdminChanged",
      "type": "event"
    },
    {
      "anonymous": false,
      "inputs": [
        {
          "indexed": true,
          "internalType": "bytes32",
          "name": "role",
          "type": "bytes32"
        },
        {
          "indexed": true,
          "internalType": "address",
          "name": "account",
          "type": "address"
        },
        {
          "indexed": true,
          "internalType": "address",
          "name": "sender",
          "type": "address"
        }
      ],
      "name": "RoleGranted",
      "type": "event"
    },
    {
      "anonymous": false,
      "inputs": [
        {
          "indexed": true,
          "internalType": "bytes32",
          "name": "role",
          "type": "bytes32"
        },
        {
          "indexed": true,
          "internalType": "address",
          "name": "account",
          "type": "address"
        },
        {
          "indexed": true,
          "internalType": "address",
          "name": "sender",
          "type": "address"
        }
      ],
      "name": "RoleRevoked",
      "type": "event"
    },
    {
      "anonymous": false,
      "inputs": [
        {
          "indexed": true,
          "internalType": "address",
          "name": "to",
          "type": "address"
        },
        {
          "indexed": false,
          "internalType": "uint256",
          "name": "amount",
          "type": "uint256"
        }
      ],
      "name": "Staked",
      "type": "event"
    },
    {
      "anonymous": false,
      "inputs": [
        {
          "indexed": true,
          "internalType": "address",
          "name": "to",
          "type": "address"
        },
        {
          "indexed": false,
          "internalType": "uint256",
          "name": "amount",
          "type": "uint256"
        }
      ],
      "name": "Withdrawal",
      "type": "event"
    },
    {
      "inputs": [],
      "name": "ADMIN_ROLE",
      "outputs": [
        {
          "internalType": "bytes32",
          "name": "",
          "type": "bytes32"
        }
      ],
      "stateMutability": "view",
      "type": "function"
    },
    {
      "inputs": [],
      "name": "DEFAULT_ADMIN_ROLE",
      "outputs": [
        {
          "internalType": "bytes32",
          "name": "",
          "type": "bytes32"
        }
      ],
      "stateMutability": "view",
      "type": "function"
    },
    {
      "inputs": [],
      "name": "endBlock",
      "outputs": [
        {
          "internalType": "uint256",
          "name": "",
          "type": "uint256"
        }
      ],
      "stateMutability": "view",
      "type": "function"
    },
    {
      "inputs": [
        {
          "internalType": "bytes32",
          "name": "role",
          "type": "bytes32"
        }
      ],
      "name": "getRoleAdmin",
      "outputs": [
        {
          "internalType": "bytes32",
          "name": "",
          "type": "bytes32"
        }
      ],
      "stateMutability": "view",
      "type": "function"
    },
    {
      "inputs": [
        {
          "internalType": "bytes32",
          "name": "role",
          "type": "bytes32"
        },
        {
          "internalType": "uint256",
          "name": "index",
          "type": "uint256"
        }
      ],
      "name": "getRoleMember",
      "outputs": [
        {
          "internalType": "address",
          "name": "",
          "type": "address"
        }
      ],
      "stateMutability": "view",
      "type": "function"
    },
    {
      "inputs": [
        {
          "internalType": "bytes32",
          "name": "role",
          "type": "bytes32"
        }
      ],
      "name": "getRoleMemberCount",
      "outputs": [
        {
          "internalType": "uint256",
          "name": "",
          "type": "uint256"
        }
      ],
      "stateMutability": "view",
      "type": "function"
    },
    {
      "inputs": [
        {
          "internalType": "address",
          "name": "user",
          "type": "address"
        }
      ],
      "name": "getUserStaked",
      "outputs": [
        {
          "internalType": "uint256",
          "name": "amount",
          "type": "uint256"
        },
        {
          "internalType": "uint256",
          "name": "claimedBlock",
          "type": "uint256"
        },
        {
          "internalType": "uint256",
          "name": "claimedAmount",
          "type": "uint256"
        },
        {
          "internalType": "uint256",
          "name": "releasedBlock",
          "type": "uint256"
        },
        {
          "internalType": "uint256",
          "name": "releasedAmount",
          "type": "uint256"
        },
        {
          "internalType": "uint256",
          "name": "releasedTOSAmount",
          "type": "uint256"
        },
        {
          "internalType": "bool",
          "name": "released",
          "type": "bool"
        }
      ],
      "stateMutability": "view",
      "type": "function"
    },
    {
      "inputs": [
        {
          "internalType": "bytes32",
          "name": "role",
          "type": "bytes32"
        },
        {
          "internalType": "address",
          "name": "account",
          "type": "address"
        }
      ],
      "name": "grantRole",
      "outputs": [],
      "stateMutability": "nonpayable",
      "type": "function"
    },
    {
      "inputs": [
        {
          "internalType": "bytes32",
          "name": "role",
          "type": "bytes32"
        },
        {
          "internalType": "address",
          "name": "account",
          "type": "address"
        }
      ],
      "name": "hasRole",
      "outputs": [
        {
          "internalType": "bool",
          "name": "",
          "type": "bool"
        }
      ],
      "stateMutability": "view",
      "type": "function"
    },
    {
      "inputs": [],
      "name": "infos",
      "outputs": [
        {
          "internalType": "address",
          "name": "",
          "type": "address"
        },
        {
          "internalType": "address",
          "name": "",
          "type": "address"
        },
        {
          "internalType": "uint256[3]",
          "name": "",
          "type": "uint256[3]"
        },
        {
          "internalType": "uint256",
          "name": "",
          "type": "uint256"
        },
        {
          "internalType": "uint256",
          "name": "",
          "type": "uint256"
        },
        {
          "internalType": "uint256",
          "name": "",
          "type": "uint256"
        }
      ],
      "stateMutability": "view",
      "type": "function"
    },
    {
      "inputs": [],
      "name": "paytoken",
      "outputs": [
        {
          "internalType": "address",
          "name": "",
          "type": "address"
        }
      ],
      "stateMutability": "view",
      "type": "function"
    },
    {
      "inputs": [
        {
          "internalType": "bytes32",
          "name": "role",
          "type": "bytes32"
        },
        {
          "internalType": "address",
          "name": "account",
          "type": "address"
        }
      ],
      "name": "renounceRole",
      "outputs": [],
      "stateMutability": "nonpayable",
      "type": "function"
    },
    {
      "inputs": [
        {
          "internalType": "bytes32",
          "name": "role",
          "type": "bytes32"
        },
        {
          "internalType": "address",
          "name": "account",
          "type": "address"
        }
      ],
      "name": "revokeRole",
      "outputs": [],
      "stateMutability": "nonpayable",
      "type": "function"
    },
    {
      "inputs": [],
      "name": "rewardClaimedTotal",
      "outputs": [
        {
          "internalType": "uint256",
          "name": "",
          "type": "uint256"
        }
      ],
      "stateMutability": "view",
      "type": "function"
    },
    {
      "inputs": [],
      "name": "saleStartBlock",
      "outputs": [
        {
          "internalType": "uint256",
          "name": "",
          "type": "uint256"
        }
      ],
      "stateMutability": "view",
      "type": "function"
    },
    {
      "inputs": [],
      "name": "stakeRegistry",
      "outputs": [
        {
          "internalType": "address",
          "name": "",
          "type": "address"
        }
      ],
      "stateMutability": "view",
      "type": "function"
    },
    {
      "inputs": [],
      "name": "startBlock",
      "outputs": [
        {
          "internalType": "uint256",
          "name": "",
          "type": "uint256"
        }
      ],
      "stateMutability": "view",
      "type": "function"
    },
    {
      "inputs": [],
      "name": "token",
      "outputs": [
        {
          "internalType": "address",
          "name": "",
          "type": "address"
        }
      ],
      "stateMutability": "view",
      "type": "function"
    },
    {
      "inputs": [],
      "name": "totalStakedAmount",
      "outputs": [
        {
          "internalType": "uint256",
          "name": "",
          "type": "uint256"
        }
      ],
      "stateMutability": "view",
      "type": "function"
    },
    {
      "inputs": [],
      "name": "totalStakers",
      "outputs": [
        {
          "internalType": "uint256",
          "name": "",
          "type": "uint256"
        }
      ],
      "stateMutability": "view",
      "type": "function"
    },
    {
      "inputs": [
        {
          "internalType": "address",
          "name": "",
          "type": "address"
        }
      ],
      "name": "userStaked",
      "outputs": [
        {
          "internalType": "uint256",
          "name": "amount",
          "type": "uint256"
        },
        {
          "internalType": "uint256",
          "name": "claimedBlock",
          "type": "uint256"
        },
        {
          "internalType": "uint256",
          "name": "claimedAmount",
          "type": "uint256"
        },
        {
          "internalType": "uint256",
          "name": "releasedBlock",
          "type": "uint256"
        },
        {
          "internalType": "uint256",
          "name": "releasedAmount",
          "type": "uint256"
        },
        {
          "internalType": "uint256",
          "name": "releasedTOSAmount",
          "type": "uint256"
        },
        {
          "internalType": "bool",
          "name": "released",
          "type": "bool"
        }
      ],
      "stateMutability": "view",
      "type": "function"
    },
    {
      "inputs": [],
      "name": "vault",
      "outputs": [
        {
          "internalType": "address",
          "name": "",
          "type": "address"
        }
      ],
      "stateMutability": "view",
      "type": "function"
    },
    {
      "stateMutability": "payable",
      "type": "receive"
    },
    {
      "inputs": [
        {
          "internalType": "address",
          "name": "newOwner",
          "type": "address"
        }
      ],
      "name": "transferOwnership",
      "outputs": [],
      "stateMutability": "nonpayable",
      "type": "function"
    },
    {
      "inputs": [
        {
          "internalType": "address",
          "name": "_token",
          "type": "address"
        },
        {
          "internalType": "address",
          "name": "_paytoken",
          "type": "address"
        },
        {
          "internalType": "address",
          "name": "_vault",
          "type": "address"
        },
        {
          "internalType": "uint256",
          "name": "_saleStartBlock",
          "type": "uint256"
        },
        {
          "internalType": "uint256",
          "name": "_startBlock",
          "type": "uint256"
        },
        {
          "internalType": "uint256",
          "name": "_period",
          "type": "uint256"
        }
      ],
      "name": "initialize",
      "outputs": [],
      "stateMutability": "nonpayable",
      "type": "function"
    },
    {
      "inputs": [
        {
          "internalType": "uint256",
          "name": "amount",
          "type": "uint256"
        }
      ],
      "name": "stake",
      "outputs": [],
      "stateMutability": "payable",
      "type": "function"
    },
    {
      "inputs": [],
      "name": "withdraw",
      "outputs": [],
      "stateMutability": "nonpayable",
      "type": "function"
    },
    {
      "inputs": [],
      "name": "claim",
      "outputs": [],
      "stateMutability": "nonpayable",
      "type": "function"
    },
    {
      "inputs": [
        {
          "internalType": "address",
          "name": "account",
          "type": "address"
        },
        {
          "internalType": "uint256",
          "name": "specificBlock",
          "type": "uint256"
        }
      ],
      "name": "canRewardAmount",
      "outputs": [
        {
          "internalType": "uint256",
          "name": "",
          "type": "uint256"
        }
      ],
      "stateMutability": "view",
      "type": "function"
    }
  ],
  "bytecode": "0x60806040523480156200001157600080fd5b506200002d600080516020620022af833981519152806200004e565b62000048600080516020620022af83398151915233620000a0565b620001b6565b6000828152600c6020526040808220600201549051839285917fbd79b86ffe0ab8e8776151514217cd7cacd52c909f66475c3af44e129f0b00ff9190a46000918252600c602052604090912060020155565b620000ac8282620000b0565b5050565b6000828152600c60209081526040909120620000d791839062001a506200012b821b17901c565b15620000ac57620000e76200014b565b6001600160a01b0316816001600160a01b0316837f2f8788117e7eff1d82e926ec794901d17c78024a50270940304540a733656f0d60405160405180910390a45050565b600062000142836001600160a01b0384166200014f565b90505b92915050565b3390565b60006200015d83836200019e565b620001955750815460018181018455600084815260208082209093018490558454848252828601909352604090209190915562000145565b50600062000145565b60009081526001919091016020526040902054151590565b6120e980620001c66000396000f3fe60806040526004361061017b5760003560e01c806386989038116100cc578063b2d4d6a31161007a578063b2d4d6a314610551578063ca15c87314610566578063d547741f14610590578063dac3fc3f146105c9578063f2fde38b146105fc578063fbfa77cf1461062f578063fc0c546a146106445761018b565b806386989038146103a55780639010d07c146103ba57806391d14854146103ea5780639a88be2f14610437578063a217fddf146104b2578063a694fc3a146104c7578063acc3a939146104e45761018b565b806348cd4cb11161012957806348cd4cb1146102ae5780634e71d92d146102c3578063567e98f9146102d857806367cf3e18146102ed5780636830483514610326578063728cdbca1461033b57806375b238fc146103905761018b565b8063083c63231461019057806320027275146101b7578063248a9ca3146101cc5780632f2ff15d146101f657806336568abe1461022f5780633ccfd60b1461026857806343b0934a1461027d5761018b565b3661018b5761018934610659565b005b600080fd5b34801561019c57600080fd5b506101a5610ae1565b60408051918252519081900360200190f35b3480156101c357600080fd5b506101a5610ae7565b3480156101d857600080fd5b506101a5600480360360208110156101ef57600080fd5b5035610aed565b34801561020257600080fd5b506101896004803603604081101561021957600080fd5b50803590602001356001600160a01b0316610b02565b34801561023b57600080fd5b506101896004803603604081101561025257600080fd5b50803590602001356001600160a01b0316610b6e565b34801561027457600080fd5b50610189610bcf565b34801561028957600080fd5b50610292610ed5565b604080516001600160a01b039092168252519081900360200190f35b3480156102ba57600080fd5b506101a5610ee4565b3480156102cf57600080fd5b50610189610eea565b3480156102e457600080fd5b506101a5611278565b3480156102f957600080fd5b506101a56004803603604081101561031057600080fd5b506001600160a01b03813516906020013561127e565b34801561033257600080fd5b50610292611654565b34801561034757600080fd5b50610189600480360360c081101561035e57600080fd5b506001600160a01b03813581169160208101358216916040820135169060608101359060808101359060a00135611663565b34801561039c57600080fd5b506101a56117a0565b3480156103b157600080fd5b506101a56117b2565b3480156103c657600080fd5b50610292600480360360408110156103dd57600080fd5b50803590602001356117b8565b3480156103f657600080fd5b506104236004803603604081101561040d57600080fd5b50803590602001356001600160a01b03166117d0565b604080519115158252519081900360200190f35b34801561044357600080fd5b5061044c6117e8565b604080516001600160a01b0380891682528716602082015290810185606080838360005b83811015610488578181015183820152602001610470565b50505050905001848152602001838152602001828152602001965050505050505060405180910390f35b3480156104be57600080fd5b506101a561183e565b610189600480360360208110156104dd57600080fd5b5035610659565b3480156104f057600080fd5b506105176004803603602081101561050757600080fd5b50356001600160a01b0316611843565b604080519788526020880196909652868601949094526060860192909252608085015260a0840152151560c0830152519081900360e00190f35b34801561055d57600080fd5b506101a5611883565b34801561057257600080fd5b506101a56004803603602081101561058957600080fd5b5035611889565b34801561059c57600080fd5b50610189600480360360408110156105b357600080fd5b50803590602001356001600160a01b03166118a0565b3480156105d557600080fd5b50610517600480360360208110156105ec57600080fd5b50356001600160a01b03166118f9565b34801561060857600080fd5b506101896004803603602081101561061f57600080fd5b50356001600160a01b0316611942565b34801561063b57600080fd5b50610292611a32565b34801561065057600080fd5b50610292611a41565b6002546001600160a01b031615801561067157508034145b8061069157506002546001600160a01b0316158015906106915750600081115b6106dc576040805162461bcd60e51b81526020600482015260176024820152765374616b6553696d706c653a207374616b65207a65726f60481b604482015290519081900360640190fd5b60045443101580156106ef575060055443105b61072a5760405162461bcd60e51b81526004018080602001828103825260228152602001806120006022913960400191505060405180910390fd5b600360009054906101000a90046001600160a01b03166001600160a01b031663b8c766b86040518163ffffffff1660e01b815260040160206040518083038186803b15801561077857600080fd5b505afa15801561078c573d6000803e3d6000fd5b505050506040513d60208110156107a257600080fd5b5051156107ed576040805162461bcd60e51b815260206004820152601460248201527314dd185ad954da5b5c1b194e881b9bdd08195b9960621b604482015290519081900360640190fd5b6002546001600160a01b03166108045750346108c1565b600254604080516370a0823160e01b8152336004820152905183926001600160a01b0316916370a08231916024808301926020929190829003018186803b15801561084e57600080fd5b505afa158015610862573d6000803e3d6000fd5b505050506040513d602081101561087857600080fd5b505110156108c1576040805162461bcd60e51b81526020600482015260116024820152705374616b6553696d706c653a206c61636b60781b604482015290519081900360640190fd5b33600090815260096020526040902080546108e857600a546108e4906001611a65565b600a555b80546108f49083611a65565b81556008546109039083611a65565b6008556002546001600160a01b031615610aa75760025460408051636eb1769f60e11b8152336004820152306024820152905184926001600160a01b03169163dd62ed3e916044808301926020929190829003018186803b15801561096757600080fd5b505afa15801561097b573d6000803e3d6000fd5b505050506040513d602081101561099157600080fd5b505110156109d05760405162461bcd60e51b81526004018080602001828103825260228152602001806120426022913960400191505060405180910390fd5b600254604080516323b872dd60e01b81523360048201523060248201526044810185905290516001600160a01b03909216916323b872dd916064808201926020929091908290030181600087803b158015610a2a57600080fd5b505af1158015610a3e573d6000803e3d6000fd5b505050506040513d6020811015610a5457600080fd5b5051610aa7576040805162461bcd60e51b815260206004820152601e60248201527f5374616b6553696d706c653a207472616e7366657246726f6d206661696c0000604482015290519081900360640190fd5b60408051838152905133917f9e71bc8eea02a63969f509818f2dafb9254532904319f9dbda79b67bd34a5f3d919081900360200190a25050565b60065481565b60045481565b6000908152600c602052604090206002015490565b6000828152600c6020526040902060020154610b2590610b20611abf565b6117d0565b610b605760405162461bcd60e51b815260040180806020018281038252602f815260200180611f80602f913960400191505060405180910390fd5b610b6a8282611ac3565b5050565b610b76611abf565b6001600160a01b0316816001600160a01b031614610bc55760405162461bcd60e51b815260040180806020018281038252602f815260200180612085602f913960400191505060405180910390fd5b610b6a8282611b2c565b6000600654118015610be2575043600654105b610c2a576040805162461bcd60e51b815260206004820152601460248201527314dd185ad954da5b5c1b194e881b9bdd08195b9960621b604482015290519081900360640190fd5b336000908152600960205260409020600681015460ff1615610c93576040805162461bcd60e51b815260206004820152601d60248201527f5374616b6553696d706c653a20416c7265616479207769746864726177000000604482015290519081900360640190fd5b805460048201541115610ce9576040805162461bcd60e51b81526020600482015260196024820152785374616b6553696d706c653a20416d6f756e742077726f6e6760381b604482015290519081900360640190fd5b60068101805460ff191660011790554360038201558054600482018190556002546001600160a01b0316610dca57308031821115610d2657600080fd5b604051600090339084908381818185875af1925050503d8060008114610d68576040519150601f19603f3d011682016040523d82523d6000602084013e610d6d565b606091505b5050905080610dc3576040805162461bcd60e51b815260206004820152601d60248201527f5374616b6553696d706c653a207769746864726177206661696c65642e000000604482015290519081900360640190fd5b5050610e9b565b6002546040805163a9059cbb60e01b81523360048201526024810184905290516001600160a01b039092169163a9059cbb916044808201926020929091908290030181600087803b158015610e1e57600080fd5b505af1158015610e32573d6000803e3d6000fd5b505050506040513d6020811015610e4857600080fd5b5051610e9b576040805162461bcd60e51b815260206004820152601a60248201527f5374616b6553696d706c653a207472616e73666572206661696c000000000000604482015290519081900360640190fd5b60408051828152905133917f7fcf532c15f0a6db0bd6d0e038bea71d30d808c7d98cb3bf7268a95bf5081b65919081900360200190a25050565b6002546001600160a01b031681565b60055481565b600b5415610f35576040805162461bcd60e51b815260206004820152601360248201527214dd185ad954da5b5c1b194e881313d0d2d151606a1b604482015290519081900360640190fd5b6001600b5560035460408051631718ecd760e31b815290516001600160a01b039092169163b8c766b891600480820192602092909190829003018186803b158015610f7f57600080fd5b505afa158015610f93573d6000803e3d6000fd5b505050506040513d6020811015610fa957600080fd5b50511515600114610ffb576040805162461bcd60e51b815260206004820152601760248201527614dd185ad954da5b5c1b194e881b9bdd0818db1bdcd959604a1b604482015290519081900360640190fd5b33600090815260096020526040812060065460018201541061105b576040805162461bcd60e51b815260206004820152601460248201527314dd185ad954da5b5c1b194e8818db185a5b595960621b604482015290519081900360640190fd5b611065334361127e565b9150600082116110bc576040805162461bcd60e51b815260206004820152601b60248201527f5374616b6553696d706c653a20726577617264206973207a65726f0000000000604482015290519081900360640190fd5b6003546040805163032f7adb60e61b815230600482015290516000926001600160a01b03169163cbdeb6c0916024808301926020929190829003018186803b15801561110757600080fd5b505afa15801561111b573d6000803e3d6000fd5b505050506040513d602081101561113157600080fd5b505160075490915081906111459085611a65565b11156111825760405162461bcd60e51b81526004018080602001828103825260218152602001806120646021913960400191505060405180910390fd5b43600183015560028201546111979084611a65565b60028301556007546111a99084611a65565b60075560035460408051635569f64b60e11b81523360048201526024810186905290516001600160a01b039092169163aad3ec96916044808201926020929091908290030181600087803b15801561120057600080fd5b505af1158015611214573d6000803e3d6000fd5b505050506040513d602081101561122a57600080fd5b505161123557600080fd5b60408051848152436020820152815133927f987d620f307ff6b94d58743cb7a7509f24071586a77759b77c2d4e29f75a2f9a928290030190a250506000600b5550565b60085481565b60065460009081908311156112935760065492505b6005548310806112b957506001600160a01b038416600090815260096020526040902054155b806112e057506006546001600160a01b038516600090815260096020526040902060010154115b8061130557506001600160a01b03841660009081526009602052604090206001015483105b156113125750600061164b565b6005546006546001600160a01b03861660009081526009602052604090206001015482101561135a576001600160a01b03861660009081526009602052604090206001015491505b808510156113655750835b6003546040805163c1b422fd60e01b815290516000926001600160a01b03169163c1b422fd9160048083019286929190829003018186803b1580156113a957600080fd5b505afa1580156113bd573d6000803e3d6000fd5b505050506040513d6000823e601f3d908101601f1916820160405260208110156113e657600080fd5b810190808051604051939291908464010000000082111561140657600080fd5b90830190602082018581111561141b57600080fd5b825186602082028301116401000000008211171561143857600080fd5b82525081516020918201928201910280838360005b8381101561146557818101518382015260200161144d565b505050509050016040525050509050600081511115611647576003546040805163d105bf8560e01b815290516000928692849283926001600160a01b03169163d105bf85916004808301926020929190829003018186803b1580156114c957600080fd5b505afa1580156114dd573d6000803e3d6000fd5b505050506040513d60208110156114f357600080fd5b50516001600160a01b038c166000908152600960205260408120549192508c91905b875181101561163f5787818151811061152a57fe5b60209081029190910181015160035460408051632f8deb1560e11b8152600481018490529051929a506001600160a01b0390911692635f1bd62a92602480840193829003018186803b15801561157f57600080fd5b505afa158015611593573d6000803e3d6000fd5b505050506040513d60208110156115a957600080fd5b50519450868611156115ba57611637565b8689116116065784156116015760006115d38a8c611b95565b90506115fd6115f6876115f0866115ea8a87611bd7565b90611bd7565b90611c30565b8d90611a65565b9b50505b61163f565b8415611633576000611618888c611b95565b905061162f6115f6876115f0866115ea8a87611bd7565b9b50505b8699505b600101611515565b505050505050505b5050505b90505b92915050565b6001546001600160a01b031681565b61167b600080516020612022833981519152336117d0565b6116c8576040805162461bcd60e51b815260206004820152601960248201527829ba30b5b2a9b4b6b836329d103737ba1030b71030b236b4b760391b604482015290519081900360640190fd5b6001600160a01b038616158015906116e857506001600160a01b03841615155b80156116f357508183105b611744576040805162461bcd60e51b815260206004820152601c60248201527f5374616b6553696d706c653a20696e697469616c697a65207a65726f00000000604482015290519081900360640190fd5b600080546001600160a01b038089166001600160a01b031992831617909255600280548884169083161790556003805492871692909116919091179055600483905560058290556117958282611a65565b600655505050505050565b60008051602061202283398151915281565b600a5481565b6000828152600c6020526040812061164b9083611c72565b6000828152600c6020526040812061164b9083611c7e565b6000806117f3611f3f565b5050600254600354604080516060810182526004548152600554602082015260065491810191909152600754600854600a546001600160a01b03958616979590941695509193909290565b600081565b6009602052600090815260409020805460018201546002830154600384015460048501546005860154600690960154949593949293919290919060ff1687565b60075481565b6000818152600c6020526040812061164e90611c93565b6000828152600c60205260409020600201546118be90610b20611abf565b610bc55760405162461bcd60e51b8152600401808060200182810382526030815260200180611faf6030913960400191505060405180910390fd5b6001600160a01b03166000908152600960205260409020805460018201546002830154600384015460048501546005860154600690960154949693959294919390929160ff1690565b61195a600080516020612022833981519152336117d0565b6119a7576040805162461bcd60e51b815260206004820152601960248201527829ba30b5b2a9b4b6b836329d103737ba1030b71030b236b4b760391b604482015290519081900360640190fd5b336001600160a01b03821614156119ff576040805162461bcd60e51b815260206004820152601760248201527629ba30b5b2a9b4b6b836329d1039b0b6b29037bbb732b960491b604482015290519081900360640190fd5b611a1760008051602061202283398151915282610b02565b611a2f600080516020612022833981519152336118a0565b50565b6003546001600160a01b031681565b6000546001600160a01b031681565b600061164b836001600160a01b038416611c9e565b60008282018381101561164b576040805162461bcd60e51b815260206004820152601b60248201527f536166654d6174683a206164646974696f6e206f766572666c6f770000000000604482015290519081900360640190fd5b3390565b6000828152600c60205260409020611adb9082611a50565b15610b6a57611ae8611abf565b6001600160a01b0316816001600160a01b0316837f2f8788117e7eff1d82e926ec794901d17c78024a50270940304540a733656f0d60405160405180910390a45050565b6000828152600c60205260409020611b449082611ce8565b15610b6a57611b51611abf565b6001600160a01b0316816001600160a01b0316837ff6391f5c32d9c69d2a47ea670b442974b53935d1edc7fd64eb21e047a839171b60405160405180910390a45050565b600061164b83836040518060400160405280601e81526020017f536166654d6174683a207375627472616374696f6e206f766572666c6f770000815250611cfd565b600082611be65750600061164e565b82820282848281611bf357fe5b041461164b5760405162461bcd60e51b8152600401808060200182810382526021815260200180611fdf6021913960400191505060405180910390fd5b600061164b83836040518060400160405280601a81526020017f536166654d6174683a206469766973696f6e206279207a65726f000000000000815250611d94565b600061164b8383611df9565b600061164b836001600160a01b038416611e5d565b600061164e82611e75565b6000611caa8383611e5d565b611ce05750815460018181018455600084815260208082209093018490558454848252828601909352604090209190915561164e565b50600061164e565b600061164b836001600160a01b038416611e79565b60008184841115611d8c5760405162461bcd60e51b81526004018080602001828103825283818151815260200191508051906020019080838360005b83811015611d51578181015183820152602001611d39565b50505050905090810190601f168015611d7e5780820380516001836020036101000a031916815260200191505b509250505060405180910390fd5b505050900390565b60008183611de35760405162461bcd60e51b8152602060048201818152835160248401528351909283926044909101919085019080838360008315611d51578181015183820152602001611d39565b506000838581611def57fe5b0495945050505050565b81546000908210611e3b5760405162461bcd60e51b8152600401808060200182810382526022815260200180611f5e6022913960400191505060405180910390fd5b826000018281548110611e4a57fe5b9060005260206000200154905092915050565b60009081526001919091016020526040902054151590565b5490565b60008181526001830160205260408120548015611f355783546000198083019190810190600090879083908110611eac57fe5b9060005260206000200154905080876000018481548110611ec957fe5b600091825260208083209091019290925582815260018981019092526040902090840190558654879080611ef957fe5b6001900381819060005260206000200160009055905586600101600087815260200190815260200160002060009055600194505050505061164e565b600091505061164e565b6040518060600160405280600390602082028036833750919291505056fe456e756d657261626c655365743a20696e646578206f7574206f6620626f756e6473416363657373436f6e74726f6c3a2073656e646572206d75737420626520616e2061646d696e20746f206772616e74416363657373436f6e74726f6c3a2073656e646572206d75737420626520616e2061646d696e20746f207265766f6b65536166654d6174683a206d756c7469706c69636174696f6e206f766572666c6f775374616b6553696d706c653a20706572696f64206973206e6f7420616c6c6f776564df8b4c520ffe197c5343c6f5aec59570151ef9a492f2c624fd45ddde6135ec425374616b6553696d706c653a20616c6c6f77616e636520616d6f756e74206c61636b5374616b6553696d706c653a20746f74616c207265776172642065786365656473416363657373436f6e74726f6c3a2063616e206f6e6c792072656e6f756e636520726f6c657320666f722073656c66a2646970667358221220e5111205f0b39e33e9f2cd73e5f551f368ce3df674e8c4f9001ac7c977cdd47364736f6c63430007060033df8b4c520ffe197c5343c6f5aec59570151ef9a492f2c624fd45ddde6135ec42",
  "immutableReferences": {},
  "source": "//SPDX-License-Identifier: Unlicense\npragma solidity ^0.7.0;\n\nimport \"../interfaces/IStakeSimple.sol\";\nimport {IIStake1Vault} from \"../interfaces/IIStake1Vault.sol\";\nimport {IIERC20} from \"../interfaces/IIERC20.sol\";\nimport \"../libraries/LibTokenStake1.sol\";\nimport {SafeMath} from \"../utils/math/SafeMath.sol\";\nimport \"@openzeppelin/contracts/access/AccessControl.sol\";\nimport \"../stake/Stake1Storage.sol\";\n\n/// @title Simple Stake Contract\n/// @notice Stake contracts can interact with the vault to claim tos tokens\ncontract StakeSimple is Stake1Storage, AccessControl, IStakeSimple {\n    using SafeMath for uint256;\n    bytes32 public constant ADMIN_ROLE = keccak256(\"ADMIN\");\n\n    modifier onlyOwner() {\n        require(hasRole(ADMIN_ROLE, msg.sender), \"StakeSimple: not an admin\");\n        _;\n    }\n    modifier lock() {\n        require(_lock == 0, \"StakeSimple: LOCKED\");\n        _lock = 1;\n        _;\n        _lock = 0;\n    }\n\n    /// @dev event on staking\n    /// @param to the sender\n    /// @param amount the amount of staking\n    event Staked(address indexed to, uint256 amount);\n\n    /// @dev event on claim\n    /// @param to the sender\n    /// @param amount the amount of claim\n    /// @param claimBlock the block of claim\n    event Claimed(address indexed to, uint256 amount, uint256 claimBlock);\n\n    /// @dev event on withdrawal\n    /// @param to the sender\n    /// @param amount the amount of withdrawal\n    event Withdrawal(address indexed to, uint256 amount);\n\n    /// @dev constructor of StakeSimple\n    constructor() {\n        _setRoleAdmin(ADMIN_ROLE, ADMIN_ROLE);\n        _setupRole(ADMIN_ROLE, msg.sender);\n    }\n\n    /// @dev receive ether\n    /// @dev call stake function with msg.value\n    receive() external payable {\n        stake(msg.value);\n    }\n\n    /// @dev transfer Ownership\n    /// @param newOwner new owner address\n    function transferOwnership(address newOwner) external onlyOwner {\n        require(msg.sender != newOwner, \"StakeSimple: same owner\");\n        grantRole(ADMIN_ROLE, newOwner);\n        revokeRole(ADMIN_ROLE, msg.sender);\n    }\n\n    /// @dev Initialize\n    /// @param _token  the reward token address , It is TOS address.\n    /// @param _paytoken  Tokens staked by users, can be used as ERC20 tokens.\n    //                     (In case of ETH, input address(0))\n    /// @param _vault  the _ault's address\n    /// @param _saleStartBlock  the sale start block\n    /// @param _startBlock  the staking start block\n    /// @param _period the period that user can generate reward amount\n    function initialize(\n        address _token,\n        address _paytoken,\n        address _vault,\n        uint256 _saleStartBlock,\n        uint256 _startBlock,\n        uint256 _period\n    ) external override onlyOwner {\n        require(\n            _token != address(0) &&\n                _vault != address(0) &&\n                _saleStartBlock < _startBlock,\n            \"StakeSimple: initialize zero\"\n        );\n        token = _token;\n        paytoken = _paytoken;\n        vault = _vault;\n        saleStartBlock = _saleStartBlock;\n        startBlock = _startBlock;\n        endBlock = startBlock.add(_period);\n    }\n\n    /// @dev Stake amount\n    /// @param amount  the amount of staked\n    function stake(uint256 amount) public payable override {\n        require(\n            (paytoken == address(0) && msg.value == amount) ||\n                (paytoken != address(0) && amount > 0),\n            \"StakeSimple: stake zero\"\n        );\n        require(\n            block.number >= saleStartBlock && block.number < startBlock,\n            \"StakeSimple: period is not allowed\"\n        );\n\n        require(!IIStake1Vault(vault).saleClosed(), \"StakeSimple: not end\");\n\n        if (paytoken == address(0)) amount = msg.value;\n        else require(IIERC20(paytoken).balanceOf(msg.sender) >= amount, \"StakeSimple: lack\");\n\n        LibTokenStake1.StakedAmount storage staked = userStaked[msg.sender];\n        if (staked.amount == 0) totalStakers = totalStakers.add(1);\n\n        staked.amount = staked.amount.add(amount);\n        totalStakedAmount = totalStakedAmount.add(amount);\n        if (paytoken != address(0)){\n            require(\n                IIERC20(paytoken).allowance(msg.sender, address(this)) >= amount,\n                \"StakeSimple: allowance amount lack\"\n            );\n            require(\n                IIERC20(paytoken).transferFrom(\n                    msg.sender,\n                    address(this),\n                    amount\n                ),\n                \"StakeSimple: transferFrom fail\"\n            );\n        }\n\n        emit Staked(msg.sender, amount);\n    }\n\n    /// @dev withdraw\n    function withdraw() external override {\n        require(\n            endBlock > 0 && endBlock < block.number,\n            \"StakeSimple: not end\"\n        );\n\n        LibTokenStake1.StakedAmount storage staked = userStaked[msg.sender];\n        require(staked.released == false, \"StakeSimple: Already withdraw\");\n        require(\n            staked.releasedAmount <= staked.amount,\n            \"StakeSimple: Amount wrong\"\n        );\n\n        staked.released = true;\n        staked.releasedBlock = block.number;\n\n        uint256 amount = staked.amount;\n        staked.releasedAmount = staked.amount;\n\n        // check if we send in ethers or in tokens\n        if (paytoken == address(0)) {\n            address payable self = address(uint160(address(this)));\n            require(self.balance >= amount);\n            (bool success, ) = msg.sender.call{value: amount}(\"\");\n            require(success, \"StakeSimple: withdraw failed.\");\n        } else {\n            require(\n                IIERC20(paytoken).transfer(msg.sender, amount),\n                \"StakeSimple: transfer fail\"\n            );\n        }\n\n        emit Withdrawal(msg.sender, amount);\n    }\n\n    /// @dev Claim for reward\n    function claim() external override lock {\n        require(\n            IIStake1Vault(vault).saleClosed() == true,\n            \"StakeSimple: not closed\"\n        );\n        uint256 rewardClaim = 0;\n\n        LibTokenStake1.StakedAmount storage staked = userStaked[msg.sender];\n        require(staked.claimedBlock < endBlock, \"StakeSimple: claimed\");\n\n        rewardClaim = canRewardAmount(msg.sender, block.number);\n\n        require(rewardClaim > 0, \"StakeSimple: reward is zero\");\n\n        uint256 rewardTotal =\n            IIStake1Vault(vault).totalRewardAmount(address(this));\n        require(\n            rewardClaimedTotal.add(rewardClaim) <= rewardTotal,\n            \"StakeSimple: total reward exceeds\"\n        );\n\n        staked.claimedBlock = block.number;\n        staked.claimedAmount = staked.claimedAmount.add(rewardClaim);\n        rewardClaimedTotal = rewardClaimedTotal.add(rewardClaim);\n\n        require(IIStake1Vault(vault).claim(msg.sender, rewardClaim));\n\n        emit Claimed(msg.sender, rewardClaim, block.number);\n    }\n\n    /// @dev Returns the amount that can be rewarded\n    /// @param account  the account that claimed reward\n    /// @param specificBlock the block that claimed reward\n    /// @return reward the reward amount that can be taken\n    function canRewardAmount(address account, uint256 specificBlock)\n        public\n        view\n        override\n        returns (uint256)\n    {\n        uint256 reward = 0;\n        if (specificBlock > endBlock) specificBlock = endBlock;\n\n        if (\n            specificBlock < startBlock ||\n            userStaked[account].amount == 0 ||\n            userStaked[account].claimedBlock > endBlock ||\n            userStaked[account].claimedBlock > specificBlock\n        ) {\n            reward = 0;\n        } else {\n            uint256 startR = startBlock;\n            uint256 endR = endBlock;\n            if (startR < userStaked[account].claimedBlock)\n                startR = userStaked[account].claimedBlock;\n            if (specificBlock < endR) endR = specificBlock;\n\n            uint256[] memory orderedEndBlocks =\n                IIStake1Vault(vault).orderedEndBlocksAll();\n\n            if (orderedEndBlocks.length > 0) {\n                uint256 _end = 0;\n                uint256 _start = startR;\n                uint256 _total = 0;\n                uint256 blockTotalReward = 0;\n                blockTotalReward = IIStake1Vault(vault).blockTotalReward();\n\n                address user = account;\n                uint256 amount = userStaked[user].amount;\n\n                for (uint256 i = 0; i < orderedEndBlocks.length; i++) {\n                    _end = orderedEndBlocks[i];\n                    _total = IIStake1Vault(vault).stakeEndBlockTotal(_end);\n\n                    if (_start > _end) {} else if (endR <= _end) {\n                        if (_total > 0) {\n                            uint256 _period1 = endR.sub(startR);\n                            reward = reward.add(\n                                blockTotalReward.mul(_period1).mul(amount).div(\n                                    _total\n                                )\n                            );\n                        }\n                        break;\n                    } else {\n                        if (_total > 0) {\n                            uint256 _period2 = _end.sub(startR);\n                            reward = reward.add(\n                                blockTotalReward.mul(_period2).mul(amount).div(\n                                    _total\n                                )\n                            );\n                        }\n                        startR = _end;\n                    }\n                }\n            }\n        }\n        return reward;\n    }\n    /*\n    function canRewardAmountTest(address account, uint256 specificBlock)\n        public view\n        returns (uint256, uint256, uint256, uint256)\n    {\n        uint256 reward = 0;\n        uint256 startR = 0;\n        uint256 endR = 0;\n        uint256 blockTotalReward = 0;\n        if(specificBlock > endBlock ) specificBlock = endBlock;\n\n        if (\n            specificBlock < startBlock ||\n            userStaked[account].amount == 0 ||\n            userStaked[account].claimedBlock > endBlock ||\n            userStaked[account].claimedBlock > specificBlock\n        ) {\n            reward = 0;\n        } else {\n            startR = startBlock;\n            endR = endBlock;\n            if (startR < userStaked[account].claimedBlock)\n                startR = userStaked[account].claimedBlock;\n            if (specificBlock < endR) endR = specificBlock;\n\n            uint256[] memory orderedEndBlocks =\n                IStake1Vault(vault).orderedEndBlocksAll();\n\n            if (orderedEndBlocks.length > 0) {\n                uint256 _end = 0;\n                uint256 _start = startR;\n                uint256 _total = 0;\n                //uint256 blockTotalReward = 0;\n                blockTotalReward = IStake1Vault(vault).blockTotalReward();\n\n                address user = account;\n                uint256 amount = userStaked[user].amount;\n\n                for (uint256 i = 0; i < orderedEndBlocks.length; i++) {\n                    _end = orderedEndBlocks[i];\n                    _total = IStake1Vault(vault).stakeEndBlockTotal(_end);\n\n                    if (_start > _end) {\n\n                    } else if (endR <= _end) {\n                        reward +=\n                            (blockTotalReward *\n                                (endR - startR) * amount) /\n                            _total;\n                        break;\n                    } else {\n                        reward +=\n                            (blockTotalReward *\n                                (_end - startR) *\n                                amount) /\n                            _total;\n                        startR = _end;\n                    }\n                }\n            }\n        }\n        return (reward, startR, endR, blockTotalReward);\n    }\n    */\n}\n",
  "sourcePath": "/Users/zena/ico2.0/ico20-contracts/contracts/stake/StakeSimple.sol",
  "compiler": {
    "name": "solc",
    "version": "0.7.6+commit.7338295f.Emscripten.clang"
  },
  "schemaVersion": "3.3.4",
  "updatedAt": "2021-06-21T02:58:01.284Z",
  "devdoc": {
    "events": {
      "Claimed(address,uint256,uint256)": {
        "details": "event on claim",
        "params": {
          "amount": "the amount of claim",
          "claimBlock": "the block of claim",
          "to": "the sender"
        }
      },
      "Staked(address,uint256)": {
        "details": "event on staking",
        "params": {
          "amount": "the amount of staking",
          "to": "the sender"
        }
      },
      "Withdrawal(address,uint256)": {
        "details": "event on withdrawal",
        "params": {
          "amount": "the amount of withdrawal",
          "to": "the sender"
        }
      }
    },
    "kind": "dev",
    "methods": {
      "canRewardAmount(address,uint256)": {
        "details": "Returns the amount that can be rewarded",
        "params": {
          "account": "the account that claimed reward",
          "specificBlock": "the block that claimed reward"
        },
        "returns": {
          "_0": "reward the reward amount that can be taken"
        }
      },
      "claim()": {
        "details": "Claim for reward"
      },
      "constructor": {
        "details": "constructor of StakeSimple"
      },
      "getRoleAdmin(bytes32)": {
        "details": "Returns the admin role that controls `role`. See {grantRole} and {revokeRole}. To change a role's admin, use {_setRoleAdmin}."
      },
      "getRoleMember(bytes32,uint256)": {
        "details": "Returns one of the accounts that have `role`. `index` must be a value between 0 and {getRoleMemberCount}, non-inclusive. Role bearers are not sorted in any particular way, and their ordering may change at any point. WARNING: When using {getRoleMember} and {getRoleMemberCount}, make sure you perform all queries on the same block. See the following https://forum.openzeppelin.com/t/iterating-over-elements-on-enumerableset-in-openzeppelin-contracts/2296[forum post] for more information."
      },
      "getRoleMemberCount(bytes32)": {
        "details": "Returns the number of accounts that have `role`. Can be used together with {getRoleMember} to enumerate all bearers of a role."
      },
      "getUserStaked(address)": {
        "details": "user's staked information"
      },
      "grantRole(bytes32,address)": {
        "details": "Grants `role` to `account`. If `account` had not been already granted `role`, emits a {RoleGranted} event. Requirements: - the caller must have ``role``'s admin role."
      },
      "hasRole(bytes32,address)": {
        "details": "Returns `true` if `account` has been granted `role`."
      },
      "infos()": {
        "details": "Give the infomation of this stakeContracts",
        "returns": {
          "_0": "paytoken, vault, [saleStartBlock, startBlock, endBlock], rewardClaimedTotal, totalStakedAmount, totalStakers"
        }
      },
      "initialize(address,address,address,uint256,uint256,uint256)": {
        "params": {
          "_period": "the period that user can generate reward amount",
          "_saleStartBlock": "the sale start block",
          "_startBlock": "the staking start block",
          "_vault": "the _ault's address"
        }
      },
      "renounceRole(bytes32,address)": {
        "details": "Revokes `role` from the calling account. Roles are often managed via {grantRole} and {revokeRole}: this function's purpose is to provide a mechanism for accounts to lose their privileges if they are compromised (such as when a trusted device is misplaced). If the calling account had been granted `role`, emits a {RoleRevoked} event. Requirements: - the caller must be `account`."
      },
      "revokeRole(bytes32,address)": {
        "details": "Revokes `role` from `account`. If `account` had been granted `role`, emits a {RoleRevoked} event. Requirements: - the caller must have ``role``'s admin role."
      },
      "stake(uint256)": {
        "details": "Stake amount",
        "params": {
          "amount": "the amount of staked"
        }
      },
      "transferOwnership(address)": {
        "details": "transfer Ownership",
        "params": {
          "newOwner": "new owner address"
        }
      },
      "withdraw()": {
        "details": "withdraw"
      }
    },
    "title": "Simple Stake Contract",
    "version": 1
  },
  "userdoc": {
    "kind": "user",
    "methods": {},
    "notice": "Stake contracts can interact with the vault to claim tos tokens",
    "version": 1
  }
}