{
  "contractName": "StakeSimple",
  "abi": [
    {
      "inputs": [],
      "stateMutability": "nonpayable",
      "type": "constructor"
    },
    {
      "anonymous": false,
      "inputs": [
        {
          "indexed": true,
          "internalType": "address",
          "name": "to",
          "type": "address"
        },
        {
          "indexed": false,
          "internalType": "uint256",
          "name": "amount",
          "type": "uint256"
        },
        {
          "indexed": false,
          "internalType": "uint256",
          "name": "claimBlock",
          "type": "uint256"
        }
      ],
      "name": "Claimed",
      "type": "event"
    },
    {
      "anonymous": false,
      "inputs": [
        {
          "indexed": true,
          "internalType": "bytes32",
          "name": "role",
          "type": "bytes32"
        },
        {
          "indexed": true,
          "internalType": "bytes32",
          "name": "previousAdminRole",
          "type": "bytes32"
        },
        {
          "indexed": true,
          "internalType": "bytes32",
          "name": "newAdminRole",
          "type": "bytes32"
        }
      ],
      "name": "RoleAdminChanged",
      "type": "event"
    },
    {
      "anonymous": false,
      "inputs": [
        {
          "indexed": true,
          "internalType": "bytes32",
          "name": "role",
          "type": "bytes32"
        },
        {
          "indexed": true,
          "internalType": "address",
          "name": "account",
          "type": "address"
        },
        {
          "indexed": true,
          "internalType": "address",
          "name": "sender",
          "type": "address"
        }
      ],
      "name": "RoleGranted",
      "type": "event"
    },
    {
      "anonymous": false,
      "inputs": [
        {
          "indexed": true,
          "internalType": "bytes32",
          "name": "role",
          "type": "bytes32"
        },
        {
          "indexed": true,
          "internalType": "address",
          "name": "account",
          "type": "address"
        },
        {
          "indexed": true,
          "internalType": "address",
          "name": "sender",
          "type": "address"
        }
      ],
      "name": "RoleRevoked",
      "type": "event"
    },
    {
      "anonymous": false,
      "inputs": [
        {
          "indexed": true,
          "internalType": "address",
          "name": "to",
          "type": "address"
        },
        {
          "indexed": false,
          "internalType": "uint256",
          "name": "amount",
          "type": "uint256"
        }
      ],
      "name": "Staked",
      "type": "event"
    },
    {
      "anonymous": false,
      "inputs": [
        {
          "indexed": true,
          "internalType": "address",
          "name": "to",
          "type": "address"
        },
        {
          "indexed": false,
          "internalType": "uint256",
          "name": "amount",
          "type": "uint256"
        }
      ],
      "name": "Withdrawal",
      "type": "event"
    },
    {
      "inputs": [],
      "name": "ADMIN_ROLE",
      "outputs": [
        {
          "internalType": "bytes32",
          "name": "",
          "type": "bytes32"
        }
      ],
      "stateMutability": "view",
      "type": "function"
    },
    {
      "inputs": [],
      "name": "DEFAULT_ADMIN_ROLE",
      "outputs": [
        {
          "internalType": "bytes32",
          "name": "",
          "type": "bytes32"
        }
      ],
      "stateMutability": "view",
      "type": "function"
    },
    {
      "inputs": [],
      "name": "endBlock",
      "outputs": [
        {
          "internalType": "uint256",
          "name": "",
          "type": "uint256"
        }
      ],
      "stateMutability": "view",
      "type": "function"
    },
    {
      "inputs": [
        {
          "internalType": "bytes32",
          "name": "role",
          "type": "bytes32"
        }
      ],
      "name": "getRoleAdmin",
      "outputs": [
        {
          "internalType": "bytes32",
          "name": "",
          "type": "bytes32"
        }
      ],
      "stateMutability": "view",
      "type": "function"
    },
    {
      "inputs": [
        {
          "internalType": "bytes32",
          "name": "role",
          "type": "bytes32"
        },
        {
          "internalType": "uint256",
          "name": "index",
          "type": "uint256"
        }
      ],
      "name": "getRoleMember",
      "outputs": [
        {
          "internalType": "address",
          "name": "",
          "type": "address"
        }
      ],
      "stateMutability": "view",
      "type": "function"
    },
    {
      "inputs": [
        {
          "internalType": "bytes32",
          "name": "role",
          "type": "bytes32"
        }
      ],
      "name": "getRoleMemberCount",
      "outputs": [
        {
          "internalType": "uint256",
          "name": "",
          "type": "uint256"
        }
      ],
      "stateMutability": "view",
      "type": "function"
    },
    {
      "inputs": [
        {
          "internalType": "address",
          "name": "user",
          "type": "address"
        }
      ],
      "name": "getUserStaked",
      "outputs": [
        {
          "internalType": "uint256",
          "name": "amount",
          "type": "uint256"
        },
        {
          "internalType": "uint256",
          "name": "claimedBlock",
          "type": "uint256"
        },
        {
          "internalType": "uint256",
          "name": "claimedAmount",
          "type": "uint256"
        },
        {
          "internalType": "uint256",
          "name": "releasedBlock",
          "type": "uint256"
        },
        {
          "internalType": "uint256",
          "name": "releasedAmount",
          "type": "uint256"
        },
        {
          "internalType": "uint256",
          "name": "releasedTOSAmount",
          "type": "uint256"
        },
        {
          "internalType": "bool",
          "name": "released",
          "type": "bool"
        }
      ],
      "stateMutability": "view",
      "type": "function"
    },
    {
      "inputs": [
        {
          "internalType": "bytes32",
          "name": "role",
          "type": "bytes32"
        },
        {
          "internalType": "address",
          "name": "account",
          "type": "address"
        }
      ],
      "name": "grantRole",
      "outputs": [],
      "stateMutability": "nonpayable",
      "type": "function"
    },
    {
      "inputs": [
        {
          "internalType": "bytes32",
          "name": "role",
          "type": "bytes32"
        },
        {
          "internalType": "address",
          "name": "account",
          "type": "address"
        }
      ],
      "name": "hasRole",
      "outputs": [
        {
          "internalType": "bool",
          "name": "",
          "type": "bool"
        }
      ],
      "stateMutability": "view",
      "type": "function"
    },
    {
      "inputs": [],
      "name": "infos",
      "outputs": [
        {
          "internalType": "address",
          "name": "",
          "type": "address"
        },
        {
          "internalType": "address",
          "name": "",
          "type": "address"
        },
        {
          "internalType": "uint256[3]",
          "name": "",
          "type": "uint256[3]"
        },
        {
          "internalType": "uint256",
          "name": "",
          "type": "uint256"
        },
        {
          "internalType": "uint256",
          "name": "",
          "type": "uint256"
        },
        {
          "internalType": "uint256",
          "name": "",
          "type": "uint256"
        }
      ],
      "stateMutability": "view",
      "type": "function"
    },
    {
      "inputs": [],
      "name": "paytoken",
      "outputs": [
        {
          "internalType": "address",
          "name": "",
          "type": "address"
        }
      ],
      "stateMutability": "view",
      "type": "function"
    },
    {
      "inputs": [
        {
          "internalType": "bytes32",
          "name": "role",
          "type": "bytes32"
        },
        {
          "internalType": "address",
          "name": "account",
          "type": "address"
        }
      ],
      "name": "renounceRole",
      "outputs": [],
      "stateMutability": "nonpayable",
      "type": "function"
    },
    {
      "inputs": [
        {
          "internalType": "bytes32",
          "name": "role",
          "type": "bytes32"
        },
        {
          "internalType": "address",
          "name": "account",
          "type": "address"
        }
      ],
      "name": "revokeRole",
      "outputs": [],
      "stateMutability": "nonpayable",
      "type": "function"
    },
    {
      "inputs": [],
      "name": "rewardClaimedTotal",
      "outputs": [
        {
          "internalType": "uint256",
          "name": "",
          "type": "uint256"
        }
      ],
      "stateMutability": "view",
      "type": "function"
    },
    {
      "inputs": [],
      "name": "saleStartBlock",
      "outputs": [
        {
          "internalType": "uint256",
          "name": "",
          "type": "uint256"
        }
      ],
      "stateMutability": "view",
      "type": "function"
    },
    {
      "inputs": [],
      "name": "stakeRegistry",
      "outputs": [
        {
          "internalType": "address",
          "name": "",
          "type": "address"
        }
      ],
      "stateMutability": "view",
      "type": "function"
    },
    {
      "inputs": [],
      "name": "startBlock",
      "outputs": [
        {
          "internalType": "uint256",
          "name": "",
          "type": "uint256"
        }
      ],
      "stateMutability": "view",
      "type": "function"
    },
    {
      "inputs": [],
      "name": "token",
      "outputs": [
        {
          "internalType": "address",
          "name": "",
          "type": "address"
        }
      ],
      "stateMutability": "view",
      "type": "function"
    },
    {
      "inputs": [],
      "name": "totalStakedAmount",
      "outputs": [
        {
          "internalType": "uint256",
          "name": "",
          "type": "uint256"
        }
      ],
      "stateMutability": "view",
      "type": "function"
    },
    {
      "inputs": [],
      "name": "totalStakers",
      "outputs": [
        {
          "internalType": "uint256",
          "name": "",
          "type": "uint256"
        }
      ],
      "stateMutability": "view",
      "type": "function"
    },
    {
      "inputs": [
        {
          "internalType": "address",
          "name": "",
          "type": "address"
        }
      ],
      "name": "userStaked",
      "outputs": [
        {
          "internalType": "uint256",
          "name": "amount",
          "type": "uint256"
        },
        {
          "internalType": "uint256",
          "name": "claimedBlock",
          "type": "uint256"
        },
        {
          "internalType": "uint256",
          "name": "claimedAmount",
          "type": "uint256"
        },
        {
          "internalType": "uint256",
          "name": "releasedBlock",
          "type": "uint256"
        },
        {
          "internalType": "uint256",
          "name": "releasedAmount",
          "type": "uint256"
        },
        {
          "internalType": "uint256",
          "name": "releasedTOSAmount",
          "type": "uint256"
        },
        {
          "internalType": "bool",
          "name": "released",
          "type": "bool"
        }
      ],
      "stateMutability": "view",
      "type": "function"
    },
    {
      "inputs": [],
      "name": "vault",
      "outputs": [
        {
          "internalType": "address",
          "name": "",
          "type": "address"
        }
      ],
      "stateMutability": "view",
      "type": "function"
    },
    {
      "stateMutability": "payable",
      "type": "receive"
    },
    {
      "inputs": [
        {
          "internalType": "address",
          "name": "newOwner",
          "type": "address"
        }
      ],
      "name": "transferOwnership",
      "outputs": [],
      "stateMutability": "nonpayable",
      "type": "function"
    },
    {
      "inputs": [
        {
          "internalType": "address",
          "name": "_token",
          "type": "address"
        },
        {
          "internalType": "address",
          "name": "_paytoken",
          "type": "address"
        },
        {
          "internalType": "address",
          "name": "_vault",
          "type": "address"
        },
        {
          "internalType": "uint256",
          "name": "_saleStartBlock",
          "type": "uint256"
        },
        {
          "internalType": "uint256",
          "name": "_startBlock",
          "type": "uint256"
        },
        {
          "internalType": "uint256",
          "name": "_period",
          "type": "uint256"
        }
      ],
      "name": "initialize",
      "outputs": [],
      "stateMutability": "nonpayable",
      "type": "function"
    },
    {
      "inputs": [
        {
          "internalType": "uint256",
          "name": "amount",
          "type": "uint256"
        }
      ],
      "name": "stake",
      "outputs": [],
      "stateMutability": "payable",
      "type": "function"
    },
    {
      "inputs": [],
      "name": "withdraw",
      "outputs": [],
      "stateMutability": "nonpayable",
      "type": "function"
    },
    {
      "inputs": [],
      "name": "claim",
      "outputs": [],
      "stateMutability": "nonpayable",
      "type": "function"
    },
    {
      "inputs": [
        {
          "internalType": "address",
          "name": "account",
          "type": "address"
        },
        {
          "internalType": "uint256",
          "name": "specificBlock",
          "type": "uint256"
        }
      ],
      "name": "canRewardAmount",
      "outputs": [
        {
          "internalType": "uint256",
          "name": "",
          "type": "uint256"
        }
      ],
      "stateMutability": "view",
      "type": "function"
    }
  ],
  "bytecode": "0x60806040523480156200001157600080fd5b506200002d60008051602062002174833981519152806200004e565b620000486000805160206200217483398151915233620000a0565b620001b6565b6000828152600c6020526040808220600201549051839285917fbd79b86ffe0ab8e8776151514217cd7cacd52c909f66475c3af44e129f0b00ff9190a46000918252600c602052604090912060020155565b620000ac8282620000b0565b5050565b6000828152600c60209081526040909120620000d7918390620019376200012b821b17901c565b15620000ac57620000e76200014b565b6001600160a01b0316816001600160a01b0316837f2f8788117e7eff1d82e926ec794901d17c78024a50270940304540a733656f0d60405160405180910390a45050565b600062000142836001600160a01b0384166200014f565b90505b92915050565b3390565b60006200015d83836200019e565b620001955750815460018181018455600084815260208082209093018490558454848252828601909352604090209190915562000145565b50600062000145565b60009081526001919091016020526040902054151590565b611fae80620001c66000396000f3fe60806040526004361061017b5760003560e01c806386989038116100cc578063b2d4d6a31161007a578063b2d4d6a314610551578063ca15c87314610566578063d547741f14610590578063dac3fc3f146105c9578063f2fde38b146105fc578063fbfa77cf1461062f578063fc0c546a146106445761018b565b806386989038146103a55780639010d07c146103ba57806391d14854146103ea5780639a88be2f14610437578063a217fddf146104b2578063a694fc3a146104c7578063acc3a939146104e45761018b565b806348cd4cb11161012957806348cd4cb1146102ae5780634e71d92d146102c3578063567e98f9146102d857806367cf3e18146102ed5780636830483514610326578063728cdbca1461033b57806375b238fc146103905761018b565b8063083c63231461019057806320027275146101b7578063248a9ca3146101cc5780632f2ff15d146101f657806336568abe1461022f5780633ccfd60b1461026857806343b0934a1461027d5761018b565b3661018b5761018934610659565b005b600080fd5b34801561019c57600080fd5b506101a56109c8565b60408051918252519081900360200190f35b3480156101c357600080fd5b506101a56109ce565b3480156101d857600080fd5b506101a5600480360360208110156101ef57600080fd5b50356109d4565b34801561020257600080fd5b506101896004803603604081101561021957600080fd5b50803590602001356001600160a01b03166109e9565b34801561023b57600080fd5b506101896004803603604081101561025257600080fd5b50803590602001356001600160a01b0316610a55565b34801561027457600080fd5b50610189610ab6565b34801561028957600080fd5b50610292610dbc565b604080516001600160a01b039092168252519081900360200190f35b3480156102ba57600080fd5b506101a5610dcb565b3480156102cf57600080fd5b50610189610dd1565b3480156102e457600080fd5b506101a561115f565b3480156102f957600080fd5b506101a56004803603604081101561031057600080fd5b506001600160a01b038135169060200135611165565b34801561033257600080fd5b5061029261153b565b34801561034757600080fd5b50610189600480360360c081101561035e57600080fd5b506001600160a01b03813581169160208101358216916040820135169060608101359060808101359060a0013561154a565b34801561039c57600080fd5b506101a5611687565b3480156103b157600080fd5b506101a5611699565b3480156103c657600080fd5b50610292600480360360408110156103dd57600080fd5b508035906020013561169f565b3480156103f657600080fd5b506104236004803603604081101561040d57600080fd5b50803590602001356001600160a01b03166116b7565b604080519115158252519081900360200190f35b34801561044357600080fd5b5061044c6116cf565b604080516001600160a01b0380891682528716602082015290810185606080838360005b83811015610488578181015183820152602001610470565b50505050905001848152602001838152602001828152602001965050505050505060405180910390f35b3480156104be57600080fd5b506101a5611725565b610189600480360360208110156104dd57600080fd5b5035610659565b3480156104f057600080fd5b506105176004803603602081101561050757600080fd5b50356001600160a01b031661172a565b604080519788526020880196909652868601949094526060860192909252608085015260a0840152151560c0830152519081900360e00190f35b34801561055d57600080fd5b506101a561176a565b34801561057257600080fd5b506101a56004803603602081101561058957600080fd5b5035611770565b34801561059c57600080fd5b50610189600480360360408110156105b357600080fd5b50803590602001356001600160a01b0316611787565b3480156105d557600080fd5b50610517600480360360208110156105ec57600080fd5b50356001600160a01b03166117e0565b34801561060857600080fd5b506101896004803603602081101561061f57600080fd5b50356001600160a01b0316611829565b34801561063b57600080fd5b50610292611919565b34801561065057600080fd5b50610292611928565b6002546001600160a01b031615801561067157508034145b8061069157506002546001600160a01b0316158015906106915750600081115b6106dc576040805162461bcd60e51b81526020600482015260176024820152765374616b6553696d706c653a207374616b65207a65726f60481b604482015290519081900360640190fd5b60045443101580156106ef575060055443105b61072a5760405162461bcd60e51b8152600401808060200182810382526022815260200180611ee76022913960400191505060405180910390fd5b600360009054906101000a90046001600160a01b03166001600160a01b031663b8c766b86040518163ffffffff1660e01b815260040160206040518083038186803b15801561077857600080fd5b505afa15801561078c573d6000803e3d6000fd5b505050506040513d60208110156107a257600080fd5b5051156107e0576040805162461bcd60e51b81526020600482015260076024820152661b9bdd08195b9960ca1b604482015290519081900360640190fd5b6002546001600160a01b03166107f75750346108a9565b600254604080516370a0823160e01b8152336004820152905183926001600160a01b0316916370a08231916024808301926020929190829003018186803b15801561084157600080fd5b505afa158015610855573d6000803e3d6000fd5b505050506040513d602081101561086b57600080fd5b505110156108a9576040805162461bcd60e51b815260206004808301919091526024820152636c61636b60e01b604482015290519081900360640190fd5b33600090815260096020526040902080546108d057600a546108cc90600161194c565b600a555b80546108dc908361194c565b81556008546108eb908361194c565b6008556002546001600160a01b03161561098e57600254604080516323b872dd60e01b81523360048201523060248201526044810185905290516001600160a01b03909216916323b872dd916064808201926020929091908290030181600087803b15801561095957600080fd5b505af115801561096d573d6000803e3d6000fd5b505050506040513d602081101561098357600080fd5b505161098e57600080fd5b60408051838152905133917f9e71bc8eea02a63969f509818f2dafb9254532904319f9dbda79b67bd34a5f3d919081900360200190a25050565b60065481565b60045481565b6000908152600c602052604090206002015490565b6000828152600c6020526040902060020154610a0c90610a076119a6565b6116b7565b610a475760405162461bcd60e51b815260040180806020018281038252602f815260200180611e67602f913960400191505060405180910390fd5b610a5182826119aa565b5050565b610a5d6119a6565b6001600160a01b0316816001600160a01b031614610aac5760405162461bcd60e51b815260040180806020018281038252602f815260200180611f4a602f913960400191505060405180910390fd5b610a518282611a13565b6000600654118015610ac9575043600654105b610b11576040805162461bcd60e51b815260206004820152601460248201527314dd185ad954da5b5c1b194e881b9bdd08195b9960621b604482015290519081900360640190fd5b336000908152600960205260409020600681015460ff1615610b7a576040805162461bcd60e51b815260206004820152601d60248201527f5374616b6553696d706c653a20416c7265616479207769746864726177000000604482015290519081900360640190fd5b805460048201541115610bd0576040805162461bcd60e51b81526020600482015260196024820152785374616b6553696d706c653a20416d6f756e742077726f6e6760381b604482015290519081900360640190fd5b60068101805460ff191660011790554360038201558054600482018190556002546001600160a01b0316610cb157308031821115610c0d57600080fd5b604051600090339084908381818185875af1925050503d8060008114610c4f576040519150601f19603f3d011682016040523d82523d6000602084013e610c54565b606091505b5050905080610caa576040805162461bcd60e51b815260206004820152601d60248201527f5374616b6553696d706c653a207769746864726177206661696c65642e000000604482015290519081900360640190fd5b5050610d82565b6002546040805163a9059cbb60e01b81523360048201526024810184905290516001600160a01b039092169163a9059cbb916044808201926020929091908290030181600087803b158015610d0557600080fd5b505af1158015610d19573d6000803e3d6000fd5b505050506040513d6020811015610d2f57600080fd5b5051610d82576040805162461bcd60e51b815260206004820152601a60248201527f5374616b6553696d706c653a207472616e73666572206661696c000000000000604482015290519081900360640190fd5b60408051828152905133917f7fcf532c15f0a6db0bd6d0e038bea71d30d808c7d98cb3bf7268a95bf5081b65919081900360200190a25050565b6002546001600160a01b031681565b60055481565b600b5415610e1c576040805162461bcd60e51b815260206004820152601360248201527214dd185ad954da5b5c1b194e881313d0d2d151606a1b604482015290519081900360640190fd5b6001600b5560035460408051631718ecd760e31b815290516001600160a01b039092169163b8c766b891600480820192602092909190829003018186803b158015610e6657600080fd5b505afa158015610e7a573d6000803e3d6000fd5b505050506040513d6020811015610e9057600080fd5b50511515600114610ee2576040805162461bcd60e51b815260206004820152601760248201527614dd185ad954da5b5c1b194e881b9bdd0818db1bdcd959604a1b604482015290519081900360640190fd5b336000908152600960205260408120600654600182015410610f42576040805162461bcd60e51b815260206004820152601460248201527314dd185ad954da5b5c1b194e8818db185a5b595960621b604482015290519081900360640190fd5b610f4c3343611165565b915060008211610fa3576040805162461bcd60e51b815260206004820152601b60248201527f5374616b6553696d706c653a20726577617264206973207a65726f0000000000604482015290519081900360640190fd5b6003546040805163032f7adb60e61b815230600482015290516000926001600160a01b03169163cbdeb6c0916024808301926020929190829003018186803b158015610fee57600080fd5b505afa158015611002573d6000803e3d6000fd5b505050506040513d602081101561101857600080fd5b5051600754909150819061102c908561194c565b11156110695760405162461bcd60e51b8152600401808060200182810382526021815260200180611f296021913960400191505060405180910390fd5b436001830155600282015461107e908461194c565b6002830155600754611090908461194c565b60075560035460408051635569f64b60e11b81523360048201526024810186905290516001600160a01b039092169163aad3ec96916044808201926020929091908290030181600087803b1580156110e757600080fd5b505af11580156110fb573d6000803e3d6000fd5b505050506040513d602081101561111157600080fd5b505161111c57600080fd5b60408051848152436020820152815133927f987d620f307ff6b94d58743cb7a7509f24071586a77759b77c2d4e29f75a2f9a928290030190a250506000600b5550565b60085481565b600654600090819083111561117a5760065492505b6005548310806111a057506001600160a01b038416600090815260096020526040902054155b806111c757506006546001600160a01b038516600090815260096020526040902060010154115b806111ec57506001600160a01b03841660009081526009602052604090206001015483105b156111f957506000611532565b6005546006546001600160a01b038616600090815260096020526040902060010154821015611241576001600160a01b03861660009081526009602052604090206001015491505b8085101561124c5750835b6003546040805163c1b422fd60e01b815290516000926001600160a01b03169163c1b422fd9160048083019286929190829003018186803b15801561129057600080fd5b505afa1580156112a4573d6000803e3d6000fd5b505050506040513d6000823e601f3d908101601f1916820160405260208110156112cd57600080fd5b81019080805160405193929190846401000000008211156112ed57600080fd5b90830190602082018581111561130257600080fd5b825186602082028301116401000000008211171561131f57600080fd5b82525081516020918201928201910280838360005b8381101561134c578181015183820152602001611334565b50505050905001604052505050905060008151111561152e576003546040805163d105bf8560e01b815290516000928692849283926001600160a01b03169163d105bf85916004808301926020929190829003018186803b1580156113b057600080fd5b505afa1580156113c4573d6000803e3d6000fd5b505050506040513d60208110156113da57600080fd5b50516001600160a01b038c166000908152600960205260408120549192508c91905b87518110156115265787818151811061141157fe5b60209081029190910181015160035460408051632f8deb1560e11b8152600481018490529051929a506001600160a01b0390911692635f1bd62a92602480840193829003018186803b15801561146657600080fd5b505afa15801561147a573d6000803e3d6000fd5b505050506040513d602081101561149057600080fd5b50519450868611156114a15761151e565b8689116114ed5784156114e85760006114ba8a8c611a7c565b90506114e46114dd876114d7866114d18a87611abe565b90611abe565b90611b17565b8d9061194c565b9b50505b611526565b841561151a5760006114ff888c611a7c565b90506115166114dd876114d7866114d18a87611abe565b9b50505b8699505b6001016113fc565b505050505050505b5050505b90505b92915050565b6001546001600160a01b031681565b611562600080516020611f09833981519152336116b7565b6115af576040805162461bcd60e51b815260206004820152601960248201527829ba30b5b2a9b4b6b836329d103737ba1030b71030b236b4b760391b604482015290519081900360640190fd5b6001600160a01b038616158015906115cf57506001600160a01b03841615155b80156115da57508183105b61162b576040805162461bcd60e51b815260206004820152601c60248201527f5374616b6553696d706c653a20696e697469616c697a65207a65726f00000000604482015290519081900360640190fd5b600080546001600160a01b038089166001600160a01b0319928316179092556002805488841690831617905560038054928716929091169190911790556004839055600582905561167c828261194c565b600655505050505050565b600080516020611f0983398151915281565b600a5481565b6000828152600c602052604081206115329083611b59565b6000828152600c602052604081206115329083611b65565b6000806116da611e26565b5050600254600354604080516060810182526004548152600554602082015260065491810191909152600754600854600a546001600160a01b03958616979590941695509193909290565b600081565b6009602052600090815260409020805460018201546002830154600384015460048501546005860154600690960154949593949293919290919060ff1687565b60075481565b6000818152600c6020526040812061153590611b7a565b6000828152600c60205260409020600201546117a590610a076119a6565b610aac5760405162461bcd60e51b8152600401808060200182810382526030815260200180611e966030913960400191505060405180910390fd5b6001600160a01b03166000908152600960205260409020805460018201546002830154600384015460048501546005860154600690960154949693959294919390929160ff1690565b611841600080516020611f09833981519152336116b7565b61188e576040805162461bcd60e51b815260206004820152601960248201527829ba30b5b2a9b4b6b836329d103737ba1030b71030b236b4b760391b604482015290519081900360640190fd5b336001600160a01b03821614156118e6576040805162461bcd60e51b815260206004820152601760248201527629ba30b5b2a9b4b6b836329d1039b0b6b29037bbb732b960491b604482015290519081900360640190fd5b6118fe600080516020611f09833981519152826109e9565b611916600080516020611f0983398151915233611787565b50565b6003546001600160a01b031681565b6000546001600160a01b031681565b6000611532836001600160a01b038416611b85565b600082820183811015611532576040805162461bcd60e51b815260206004820152601b60248201527f536166654d6174683a206164646974696f6e206f766572666c6f770000000000604482015290519081900360640190fd5b3390565b6000828152600c602052604090206119c29082611937565b15610a51576119cf6119a6565b6001600160a01b0316816001600160a01b0316837f2f8788117e7eff1d82e926ec794901d17c78024a50270940304540a733656f0d60405160405180910390a45050565b6000828152600c60205260409020611a2b9082611bcf565b15610a5157611a386119a6565b6001600160a01b0316816001600160a01b0316837ff6391f5c32d9c69d2a47ea670b442974b53935d1edc7fd64eb21e047a839171b60405160405180910390a45050565b600061153283836040518060400160405280601e81526020017f536166654d6174683a207375627472616374696f6e206f766572666c6f770000815250611be4565b600082611acd57506000611535565b82820282848281611ada57fe5b04146115325760405162461bcd60e51b8152600401808060200182810382526021815260200180611ec66021913960400191505060405180910390fd5b600061153283836040518060400160405280601a81526020017f536166654d6174683a206469766973696f6e206279207a65726f000000000000815250611c7b565b60006115328383611ce0565b6000611532836001600160a01b038416611d44565b600061153582611d5c565b6000611b918383611d44565b611bc757508154600181810184556000848152602080822090930184905584548482528286019093526040902091909155611535565b506000611535565b6000611532836001600160a01b038416611d60565b60008184841115611c735760405162461bcd60e51b81526004018080602001828103825283818151815260200191508051906020019080838360005b83811015611c38578181015183820152602001611c20565b50505050905090810190601f168015611c655780820380516001836020036101000a031916815260200191505b509250505060405180910390fd5b505050900390565b60008183611cca5760405162461bcd60e51b8152602060048201818152835160248401528351909283926044909101919085019080838360008315611c38578181015183820152602001611c20565b506000838581611cd657fe5b0495945050505050565b81546000908210611d225760405162461bcd60e51b8152600401808060200182810382526022815260200180611e456022913960400191505060405180910390fd5b826000018281548110611d3157fe5b9060005260206000200154905092915050565b60009081526001919091016020526040902054151590565b5490565b60008181526001830160205260408120548015611e1c5783546000198083019190810190600090879083908110611d9357fe5b9060005260206000200154905080876000018481548110611db057fe5b600091825260208083209091019290925582815260018981019092526040902090840190558654879080611de057fe5b60019003818190600052602060002001600090559055866001016000878152602001908152602001600020600090556001945050505050611535565b6000915050611535565b6040518060600160405280600390602082028036833750919291505056fe456e756d657261626c655365743a20696e646578206f7574206f6620626f756e6473416363657373436f6e74726f6c3a2073656e646572206d75737420626520616e2061646d696e20746f206772616e74416363657373436f6e74726f6c3a2073656e646572206d75737420626520616e2061646d696e20746f207265766f6b65536166654d6174683a206d756c7469706c69636174696f6e206f766572666c6f775374616b6553696d706c653a20706572696f64206973206e6f7420616c6c6f776564df8b4c520ffe197c5343c6f5aec59570151ef9a492f2c624fd45ddde6135ec425374616b6553696d706c653a20746f74616c207265776172642065786365656473416363657373436f6e74726f6c3a2063616e206f6e6c792072656e6f756e636520726f6c657320666f722073656c66a2646970667358221220b36d083b68207401b15d76a493573ee1e966a4b144eef6a46c87bf6de481c05464736f6c63430007060033df8b4c520ffe197c5343c6f5aec59570151ef9a492f2c624fd45ddde6135ec42",
  "immutableReferences": {},
  "source": "//SPDX-License-Identifier: Unlicense\npragma solidity ^0.7.0;\n\nimport \"../interfaces/IStakeSimple.sol\";\nimport {IIStake1Vault} from \"../interfaces/IIStake1Vault.sol\";\nimport {IIERC20} from \"../interfaces/IIERC20.sol\";\nimport \"../libraries/LibTokenStake1.sol\";\nimport {SafeMath} from \"../utils/math/SafeMath.sol\";\nimport \"@openzeppelin/contracts/access/AccessControl.sol\";\nimport \"../stake/Stake1Storage.sol\";\n\n/// @title Simple Stake Contract\n/// @notice Stake contracts can interact with the vault to claim tos tokens\ncontract StakeSimple is Stake1Storage, AccessControl, IStakeSimple {\n    using SafeMath for uint256;\n    bytes32 public constant ADMIN_ROLE = keccak256(\"ADMIN\");\n\n    modifier onlyOwner() {\n        require(hasRole(ADMIN_ROLE, msg.sender), \"StakeSimple: not an admin\");\n        _;\n    }\n    modifier lock() {\n        require(_lock == 0, \"StakeSimple: LOCKED\");\n        _lock = 1;\n        _;\n        _lock = 0;\n    }\n\n    /// @dev event on staking\n    /// @param to the sender\n    /// @param amount the amount of staking\n    event Staked(address indexed to, uint256 amount);\n\n    /// @dev event on claim\n    /// @param to the sender\n    /// @param amount the amount of claim\n    /// @param claimBlock the block of claim\n    event Claimed(address indexed to, uint256 amount, uint256 claimBlock);\n\n    /// @dev event on withdrawal\n    /// @param to the sender\n    /// @param amount the amount of withdrawal\n    event Withdrawal(address indexed to, uint256 amount);\n\n    /// @dev constructor of StakeSimple\n    constructor() {\n        _setRoleAdmin(ADMIN_ROLE, ADMIN_ROLE);\n        _setupRole(ADMIN_ROLE, msg.sender);\n    }\n\n    /// @dev receive ether\n    /// @dev call stake function with msg.value\n    receive() external payable {\n        stake(msg.value);\n    }\n\n    /// @dev transfer Ownership\n    /// @param newOwner new owner address\n    function transferOwnership(address newOwner) external onlyOwner {\n        require(msg.sender != newOwner, \"StakeSimple: same owner\");\n        grantRole(ADMIN_ROLE, newOwner);\n        revokeRole(ADMIN_ROLE, msg.sender);\n    }\n\n    /// @dev Initialize\n    /// @param _token  the reward token address , It is TOS address.\n    /// @param _paytoken  Tokens staked by users, can be used as ERC20 tokens.\n    //                     (In case of ETH, input address(0))\n    /// @param _vault  the _ault's address\n    /// @param _saleStartBlock  the sale start block\n    /// @param _startBlock  the staking start block\n    /// @param _period the period that user can generate reward amount\n    function initialize(\n        address _token,\n        address _paytoken,\n        address _vault,\n        uint256 _saleStartBlock,\n        uint256 _startBlock,\n        uint256 _period\n    ) external override onlyOwner {\n        require(\n            _token != address(0) &&\n                _vault != address(0) &&\n                _saleStartBlock < _startBlock,\n            \"StakeSimple: initialize zero\"\n        );\n        token = _token;\n        paytoken = _paytoken;\n        vault = _vault;\n        saleStartBlock = _saleStartBlock;\n        startBlock = _startBlock;\n        endBlock = startBlock.add(_period);\n    }\n\n    /// @dev Stake amount\n    /// @param amount  the amount of staked\n    function stake(uint256 amount) public payable override {\n        require(\n            (paytoken == address(0) && msg.value == amount) ||\n                (paytoken != address(0) && amount > 0),\n            \"StakeSimple: stake zero\"\n        );\n        require(\n            block.number >= saleStartBlock && block.number < startBlock,\n            \"StakeSimple: period is not allowed\"\n        );\n\n        require(!IIStake1Vault(vault).saleClosed(), \"not end\");\n\n        if (paytoken == address(0)) amount = msg.value;\n        else require(IIERC20(paytoken).balanceOf(msg.sender) >= amount, \"lack\");\n\n        LibTokenStake1.StakedAmount storage staked = userStaked[msg.sender];\n        if (staked.amount == 0) totalStakers = totalStakers.add(1);\n\n        staked.amount = staked.amount.add(amount);\n        totalStakedAmount = totalStakedAmount.add(amount);\n        if (paytoken != address(0))\n            require(\n                IIERC20(paytoken).transferFrom(\n                    msg.sender,\n                    address(this),\n                    amount\n                )\n            );\n\n        emit Staked(msg.sender, amount);\n    }\n\n    /// @dev withdraw\n    function withdraw() external override {\n        require(\n            endBlock > 0 && endBlock < block.number,\n            \"StakeSimple: not end\"\n        );\n\n        LibTokenStake1.StakedAmount storage staked = userStaked[msg.sender];\n        require(staked.released == false, \"StakeSimple: Already withdraw\");\n        require(\n            staked.releasedAmount <= staked.amount,\n            \"StakeSimple: Amount wrong\"\n        );\n\n        staked.released = true;\n        staked.releasedBlock = block.number;\n\n        uint256 amount = staked.amount;\n        staked.releasedAmount = staked.amount;\n\n        // check if we send in ethers or in tokens\n        if (paytoken == address(0)) {\n            address payable self = address(uint160(address(this)));\n            require(self.balance >= amount);\n            (bool success, ) = msg.sender.call{value: amount}(\"\");\n            require(success, \"StakeSimple: withdraw failed.\");\n        } else {\n            require(\n                IIERC20(paytoken).transfer(msg.sender, amount),\n                \"StakeSimple: transfer fail\"\n            );\n        }\n\n        emit Withdrawal(msg.sender, amount);\n    }\n\n    /// @dev Claim for reward\n    function claim() external override lock {\n        require(\n            IIStake1Vault(vault).saleClosed() == true,\n            \"StakeSimple: not closed\"\n        );\n        uint256 rewardClaim = 0;\n\n        LibTokenStake1.StakedAmount storage staked = userStaked[msg.sender];\n        require(staked.claimedBlock < endBlock, \"StakeSimple: claimed\");\n\n        rewardClaim = canRewardAmount(msg.sender, block.number);\n\n        require(rewardClaim > 0, \"StakeSimple: reward is zero\");\n\n        uint256 rewardTotal =\n            IIStake1Vault(vault).totalRewardAmount(address(this));\n        require(\n            rewardClaimedTotal.add(rewardClaim) <= rewardTotal,\n            \"StakeSimple: total reward exceeds\"\n        );\n\n        staked.claimedBlock = block.number;\n        staked.claimedAmount = staked.claimedAmount.add(rewardClaim);\n        rewardClaimedTotal = rewardClaimedTotal.add(rewardClaim);\n\n        require(IIStake1Vault(vault).claim(msg.sender, rewardClaim));\n\n        emit Claimed(msg.sender, rewardClaim, block.number);\n    }\n\n    /// @dev Returns the amount that can be rewarded\n    /// @param account  the account that claimed reward\n    /// @param specificBlock the block that claimed reward\n    /// @return reward the reward amount that can be taken\n    function canRewardAmount(address account, uint256 specificBlock)\n        public\n        view\n        override\n        returns (uint256)\n    {\n        uint256 reward = 0;\n        if (specificBlock > endBlock) specificBlock = endBlock;\n\n        if (\n            specificBlock < startBlock ||\n            userStaked[account].amount == 0 ||\n            userStaked[account].claimedBlock > endBlock ||\n            userStaked[account].claimedBlock > specificBlock\n        ) {\n            reward = 0;\n        } else {\n            uint256 startR = startBlock;\n            uint256 endR = endBlock;\n            if (startR < userStaked[account].claimedBlock)\n                startR = userStaked[account].claimedBlock;\n            if (specificBlock < endR) endR = specificBlock;\n\n            uint256[] memory orderedEndBlocks =\n                IIStake1Vault(vault).orderedEndBlocksAll();\n\n            if (orderedEndBlocks.length > 0) {\n                uint256 _end = 0;\n                uint256 _start = startR;\n                uint256 _total = 0;\n                uint256 blockTotalReward = 0;\n                blockTotalReward = IIStake1Vault(vault).blockTotalReward();\n\n                address user = account;\n                uint256 amount = userStaked[user].amount;\n\n                for (uint256 i = 0; i < orderedEndBlocks.length; i++) {\n                    _end = orderedEndBlocks[i];\n                    _total = IIStake1Vault(vault).stakeEndBlockTotal(_end);\n\n                    if (_start > _end) {} else if (endR <= _end) {\n                        if (_total > 0) {\n                            uint256 _period1 = endR.sub(startR);\n                            reward = reward.add(\n                                blockTotalReward.mul(_period1).mul(amount).div(\n                                    _total\n                                )\n                            );\n                        }\n                        break;\n                    } else {\n                        if (_total > 0) {\n                            uint256 _period2 = _end.sub(startR);\n                            reward = reward.add(\n                                blockTotalReward.mul(_period2).mul(amount).div(\n                                    _total\n                                )\n                            );\n                        }\n                        startR = _end;\n                    }\n                }\n            }\n        }\n        return reward;\n    }\n    /*\n    function canRewardAmountTest(address account, uint256 specificBlock)\n        public view\n        returns (uint256, uint256, uint256, uint256)\n    {\n        uint256 reward = 0;\n        uint256 startR = 0;\n        uint256 endR = 0;\n        uint256 blockTotalReward = 0;\n        if(specificBlock > endBlock ) specificBlock = endBlock;\n\n        if (\n            specificBlock < startBlock ||\n            userStaked[account].amount == 0 ||\n            userStaked[account].claimedBlock > endBlock ||\n            userStaked[account].claimedBlock > specificBlock\n        ) {\n            reward = 0;\n        } else {\n            startR = startBlock;\n            endR = endBlock;\n            if (startR < userStaked[account].claimedBlock)\n                startR = userStaked[account].claimedBlock;\n            if (specificBlock < endR) endR = specificBlock;\n\n            uint256[] memory orderedEndBlocks =\n                IStake1Vault(vault).orderedEndBlocksAll();\n\n            if (orderedEndBlocks.length > 0) {\n                uint256 _end = 0;\n                uint256 _start = startR;\n                uint256 _total = 0;\n                //uint256 blockTotalReward = 0;\n                blockTotalReward = IStake1Vault(vault).blockTotalReward();\n\n                address user = account;\n                uint256 amount = userStaked[user].amount;\n\n                for (uint256 i = 0; i < orderedEndBlocks.length; i++) {\n                    _end = orderedEndBlocks[i];\n                    _total = IStake1Vault(vault).stakeEndBlockTotal(_end);\n\n                    if (_start > _end) {\n\n                    } else if (endR <= _end) {\n                        reward +=\n                            (blockTotalReward *\n                                (endR - startR) * amount) /\n                            _total;\n                        break;\n                    } else {\n                        reward +=\n                            (blockTotalReward *\n                                (_end - startR) *\n                                amount) /\n                            _total;\n                        startR = _end;\n                    }\n                }\n            }\n        }\n        return (reward, startR, endR, blockTotalReward);\n    }\n    */\n}\n",
  "sourcePath": "/Users/zena/ico2.0/ico20-contracts/contracts/stake/StakeSimple.sol",
  "compiler": {
    "name": "solc",
    "version": "0.7.6+commit.7338295f.Emscripten.clang"
  },
  "schemaVersion": "3.3.4",
  "updatedAt": "2021-06-15T10:41:10.342Z",
  "devdoc": {
    "events": {
      "Claimed(address,uint256,uint256)": {
        "details": "event on claim",
        "params": {
          "amount": "the amount of claim",
          "claimBlock": "the block of claim",
          "to": "the sender"
        }
      },
      "Staked(address,uint256)": {
        "details": "event on staking",
        "params": {
          "amount": "the amount of staking",
          "to": "the sender"
        }
      },
      "Withdrawal(address,uint256)": {
        "details": "event on withdrawal",
        "params": {
          "amount": "the amount of withdrawal",
          "to": "the sender"
        }
      }
    },
    "kind": "dev",
    "methods": {
      "canRewardAmount(address,uint256)": {
        "details": "Returns the amount that can be rewarded",
        "params": {
          "account": "the account that claimed reward",
          "specificBlock": "the block that claimed reward"
        },
        "returns": {
          "_0": "reward the reward amount that can be taken"
        }
      },
      "claim()": {
        "details": "Claim for reward"
      },
      "constructor": {
        "details": "constructor of StakeSimple"
      },
      "getRoleAdmin(bytes32)": {
        "details": "Returns the admin role that controls `role`. See {grantRole} and {revokeRole}. To change a role's admin, use {_setRoleAdmin}."
      },
      "getRoleMember(bytes32,uint256)": {
        "details": "Returns one of the accounts that have `role`. `index` must be a value between 0 and {getRoleMemberCount}, non-inclusive. Role bearers are not sorted in any particular way, and their ordering may change at any point. WARNING: When using {getRoleMember} and {getRoleMemberCount}, make sure you perform all queries on the same block. See the following https://forum.openzeppelin.com/t/iterating-over-elements-on-enumerableset-in-openzeppelin-contracts/2296[forum post] for more information."
      },
      "getRoleMemberCount(bytes32)": {
        "details": "Returns the number of accounts that have `role`. Can be used together with {getRoleMember} to enumerate all bearers of a role."
      },
      "getUserStaked(address)": {
        "details": "user's staked information"
      },
      "grantRole(bytes32,address)": {
        "details": "Grants `role` to `account`. If `account` had not been already granted `role`, emits a {RoleGranted} event. Requirements: - the caller must have ``role``'s admin role."
      },
      "hasRole(bytes32,address)": {
        "details": "Returns `true` if `account` has been granted `role`."
      },
      "infos()": {
        "details": "Give the infomation of this stakeContracts",
        "returns": {
          "_0": "paytoken, vault, [saleStartBlock, startBlock, endBlock], rewardClaimedTotal, totalStakedAmount, totalStakers"
        }
      },
      "initialize(address,address,address,uint256,uint256,uint256)": {
        "params": {
          "_period": "the period that user can generate reward amount",
          "_saleStartBlock": "the sale start block",
          "_startBlock": "the staking start block",
          "_vault": "the _ault's address"
        }
      },
      "renounceRole(bytes32,address)": {
        "details": "Revokes `role` from the calling account. Roles are often managed via {grantRole} and {revokeRole}: this function's purpose is to provide a mechanism for accounts to lose their privileges if they are compromised (such as when a trusted device is misplaced). If the calling account had been granted `role`, emits a {RoleRevoked} event. Requirements: - the caller must be `account`."
      },
      "revokeRole(bytes32,address)": {
        "details": "Revokes `role` from `account`. If `account` had been granted `role`, emits a {RoleRevoked} event. Requirements: - the caller must have ``role``'s admin role."
      },
      "stake(uint256)": {
        "details": "Stake amount",
        "params": {
          "amount": "the amount of staked"
        }
      },
      "transferOwnership(address)": {
        "details": "transfer Ownership",
        "params": {
          "newOwner": "new owner address"
        }
      },
      "withdraw()": {
        "details": "withdraw"
      }
    },
    "title": "Simple Stake Contract",
    "version": 1
  },
  "userdoc": {
    "kind": "user",
    "methods": {},
    "notice": "Stake contracts can interact with the vault to claim tos tokens",
    "version": 1
  }
}