{
  "contractName": "StakeProxyStorage",
  "abi": [
    {
      "inputs": [],
      "name": "depositManager",
      "outputs": [
        {
          "internalType": "address",
          "name": "",
          "type": "address"
        }
      ],
      "stateMutability": "view",
      "type": "function"
    },
    {
      "inputs": [],
      "name": "fld",
      "outputs": [
        {
          "internalType": "address",
          "name": "",
          "type": "address"
        }
      ],
      "stateMutability": "view",
      "type": "function"
    },
    {
      "inputs": [],
      "name": "seigManager",
      "outputs": [
        {
          "internalType": "address",
          "name": "",
          "type": "address"
        }
      ],
      "stateMutability": "view",
      "type": "function"
    },
    {
      "inputs": [],
      "name": "stakeFactory",
      "outputs": [
        {
          "internalType": "contract IStakeFactory",
          "name": "",
          "type": "address"
        }
      ],
      "stateMutability": "view",
      "type": "function"
    },
    {
      "inputs": [],
      "name": "stakeRegistry",
      "outputs": [
        {
          "internalType": "contract IStakeRegistry",
          "name": "",
          "type": "address"
        }
      ],
      "stateMutability": "view",
      "type": "function"
    },
    {
      "inputs": [],
      "name": "stakeVaultFactory",
      "outputs": [
        {
          "internalType": "contract IStakeVaultFactory",
          "name": "",
          "type": "address"
        }
      ],
      "stateMutability": "view",
      "type": "function"
    },
    {
      "inputs": [],
      "name": "ton",
      "outputs": [
        {
          "internalType": "address",
          "name": "",
          "type": "address"
        }
      ],
      "stateMutability": "view",
      "type": "function"
    },
    {
      "inputs": [],
      "name": "wton",
      "outputs": [
        {
          "internalType": "address",
          "name": "",
          "type": "address"
        }
      ],
      "stateMutability": "view",
      "type": "function"
    }
  ],
  "bytecode": "0x608060405234801561001057600080fd5b50610187806100206000396000f3fe608060405234801561001057600080fd5b50600436106100785760003560e01c806333bd2a491461007d57806368304835146100a15780636af8da27146100a95780636c7ac9d8146100b15780636fb7f558146100b95780638d62d949146100c1578063cc48b947146100c9578063dd196f18146100d1575b600080fd5b6100856100d9565b604080516001600160a01b039092168252519081900360200190f35b6100856100e8565b6100856100f7565b610085610106565b610085610115565b610085610124565b610085610133565b610085610142565b6003546001600160a01b031681565b6000546001600160a01b031681565b6002546001600160a01b031681565b6006546001600160a01b031681565b6007546001600160a01b031681565b6005546001600160a01b031681565b6004546001600160a01b031681565b6001546001600160a01b03168156fea2646970667358221220d207166535886952acb4a1d7334787f7ff2b767b0a46b7ca758bf625a100d8da64736f6c63430007060033",
  "immutableReferences": {},
  "source": "//SPDX-License-Identifier: Unlicense\npragma solidity ^0.7.6;\n\n//import \"../interfaces/IStakeProxyStorage.sol\";\nimport {IStakeFactory} from \"../interfaces/IStakeFactory.sol\";\nimport {IStakeRegistry} from \"../interfaces/IStakeRegistry.sol\";\nimport {IStakeVaultFactory} from \"../interfaces/IStakeVaultFactory.sol\";\n\n/// @title The storage of StakeProxy\ncontract StakeProxyStorage {\n    /// @dev stakeRegistry\n    IStakeRegistry public stakeRegistry;\n\n    /// @dev stakeFactory\n    IStakeFactory public stakeFactory;\n\n    /// @dev stakeVaultFactory\n    IStakeVaultFactory public stakeVaultFactory;\n\n    /// @dev FLD address\n    address public fld;\n\n    /// @dev TON address in Tokamak\n    address public ton;\n\n    /// @dev WTON address in Tokamak\n    address public wton;\n\n    /// @dev Depositmanager address in Tokamak\n    address public depositManager;\n\n    /// @dev SeigManager address in Tokamak\n    address public seigManager;\n}\n",
  "sourcePath": "/Users/zena/ico2.0/ico20-contracts/contracts/stake/StakeProxyStorage.sol",
  "compiler": {
    "name": "solc",
    "version": "0.7.6+commit.7338295f.Emscripten.clang"
  },
  "schemaVersion": "3.3.4",
  "updatedAt": "2021-06-04T06:02:48.395Z",
  "devdoc": {
    "kind": "dev",
    "methods": {},
    "stateVariables": {
      "depositManager": {
        "details": "Depositmanager address in Tokamak"
      },
      "fld": {
        "details": "FLD address"
      },
      "seigManager": {
        "details": "SeigManager address in Tokamak"
      },
      "stakeFactory": {
        "details": "stakeFactory"
      },
      "stakeRegistry": {
        "details": "stakeRegistry"
      },
      "stakeVaultFactory": {
        "details": "stakeVaultFactory"
      },
      "ton": {
        "details": "TON address in Tokamak"
      },
      "wton": {
        "details": "WTON address in Tokamak"
      }
    },
    "title": "The storage of StakeProxy",
    "version": 1
  },
  "userdoc": {
    "kind": "user",
    "methods": {},
    "version": 1
  }
}