{
  "contractName": "StakeSimpleProxy",
  "abi": [
    {
      "inputs": [
        {
          "internalType": "address",
          "name": "_logic",
          "type": "address"
        }
      ],
      "stateMutability": "nonpayable",
      "type": "constructor"
    },
    {
      "anonymous": false,
      "inputs": [
        {
          "indexed": true,
          "internalType": "bytes32",
          "name": "role",
          "type": "bytes32"
        },
        {
          "indexed": true,
          "internalType": "bytes32",
          "name": "previousAdminRole",
          "type": "bytes32"
        },
        {
          "indexed": true,
          "internalType": "bytes32",
          "name": "newAdminRole",
          "type": "bytes32"
        }
      ],
      "name": "RoleAdminChanged",
      "type": "event"
    },
    {
      "anonymous": false,
      "inputs": [
        {
          "indexed": true,
          "internalType": "bytes32",
          "name": "role",
          "type": "bytes32"
        },
        {
          "indexed": true,
          "internalType": "address",
          "name": "account",
          "type": "address"
        },
        {
          "indexed": true,
          "internalType": "address",
          "name": "sender",
          "type": "address"
        }
      ],
      "name": "RoleGranted",
      "type": "event"
    },
    {
      "anonymous": false,
      "inputs": [
        {
          "indexed": true,
          "internalType": "bytes32",
          "name": "role",
          "type": "bytes32"
        },
        {
          "indexed": true,
          "internalType": "address",
          "name": "account",
          "type": "address"
        },
        {
          "indexed": true,
          "internalType": "address",
          "name": "sender",
          "type": "address"
        }
      ],
      "name": "RoleRevoked",
      "type": "event"
    },
    {
      "anonymous": false,
      "inputs": [
        {
          "indexed": true,
          "internalType": "address",
          "name": "implementation",
          "type": "address"
        }
      ],
      "name": "Upgraded",
      "type": "event"
    },
    {
      "stateMutability": "payable",
      "type": "fallback"
    },
    {
      "inputs": [],
      "name": "ADMIN_ROLE",
      "outputs": [
        {
          "internalType": "bytes32",
          "name": "",
          "type": "bytes32"
        }
      ],
      "stateMutability": "view",
      "type": "function"
    },
    {
      "inputs": [],
      "name": "DEFAULT_ADMIN_ROLE",
      "outputs": [
        {
          "internalType": "bytes32",
          "name": "",
          "type": "bytes32"
        }
      ],
      "stateMutability": "view",
      "type": "function"
    },
    {
      "inputs": [],
      "name": "endBlock",
      "outputs": [
        {
          "internalType": "uint256",
          "name": "",
          "type": "uint256"
        }
      ],
      "stateMutability": "view",
      "type": "function"
    },
    {
      "inputs": [
        {
          "internalType": "bytes32",
          "name": "role",
          "type": "bytes32"
        }
      ],
      "name": "getRoleAdmin",
      "outputs": [
        {
          "internalType": "bytes32",
          "name": "",
          "type": "bytes32"
        }
      ],
      "stateMutability": "view",
      "type": "function"
    },
    {
      "inputs": [
        {
          "internalType": "bytes32",
          "name": "role",
          "type": "bytes32"
        },
        {
          "internalType": "uint256",
          "name": "index",
          "type": "uint256"
        }
      ],
      "name": "getRoleMember",
      "outputs": [
        {
          "internalType": "address",
          "name": "",
          "type": "address"
        }
      ],
      "stateMutability": "view",
      "type": "function"
    },
    {
      "inputs": [
        {
          "internalType": "bytes32",
          "name": "role",
          "type": "bytes32"
        }
      ],
      "name": "getRoleMemberCount",
      "outputs": [
        {
          "internalType": "uint256",
          "name": "",
          "type": "uint256"
        }
      ],
      "stateMutability": "view",
      "type": "function"
    },
    {
      "inputs": [
        {
          "internalType": "address",
          "name": "user",
          "type": "address"
        }
      ],
      "name": "getUserStaked",
      "outputs": [
        {
          "internalType": "uint256",
          "name": "amount",
          "type": "uint256"
        },
        {
          "internalType": "uint256",
          "name": "claimedBlock",
          "type": "uint256"
        },
        {
          "internalType": "uint256",
          "name": "claimedAmount",
          "type": "uint256"
        },
        {
          "internalType": "uint256",
          "name": "releasedBlock",
          "type": "uint256"
        },
        {
          "internalType": "uint256",
          "name": "releasedAmount",
          "type": "uint256"
        },
        {
          "internalType": "uint256",
          "name": "releasedTOSAmount",
          "type": "uint256"
        },
        {
          "internalType": "bool",
          "name": "released",
          "type": "bool"
        }
      ],
      "stateMutability": "view",
      "type": "function"
    },
    {
      "inputs": [
        {
          "internalType": "bytes32",
          "name": "role",
          "type": "bytes32"
        },
        {
          "internalType": "address",
          "name": "account",
          "type": "address"
        }
      ],
      "name": "grantRole",
      "outputs": [],
      "stateMutability": "nonpayable",
      "type": "function"
    },
    {
      "inputs": [
        {
          "internalType": "bytes32",
          "name": "role",
          "type": "bytes32"
        },
        {
          "internalType": "address",
          "name": "account",
          "type": "address"
        }
      ],
      "name": "hasRole",
      "outputs": [
        {
          "internalType": "bool",
          "name": "",
          "type": "bool"
        }
      ],
      "stateMutability": "view",
      "type": "function"
    },
    {
      "inputs": [],
      "name": "infos",
      "outputs": [
        {
          "internalType": "address",
          "name": "",
          "type": "address"
        },
        {
          "internalType": "address",
          "name": "",
          "type": "address"
        },
        {
          "internalType": "uint256[3]",
          "name": "",
          "type": "uint256[3]"
        },
        {
          "internalType": "uint256",
          "name": "",
          "type": "uint256"
        },
        {
          "internalType": "uint256",
          "name": "",
          "type": "uint256"
        },
        {
          "internalType": "uint256",
          "name": "",
          "type": "uint256"
        }
      ],
      "stateMutability": "view",
      "type": "function"
    },
    {
      "inputs": [],
      "name": "pauseProxy",
      "outputs": [
        {
          "internalType": "bool",
          "name": "",
          "type": "bool"
        }
      ],
      "stateMutability": "view",
      "type": "function"
    },
    {
      "inputs": [],
      "name": "paytoken",
      "outputs": [
        {
          "internalType": "address",
          "name": "",
          "type": "address"
        }
      ],
      "stateMutability": "view",
      "type": "function"
    },
    {
      "inputs": [
        {
          "internalType": "bytes32",
          "name": "role",
          "type": "bytes32"
        },
        {
          "internalType": "address",
          "name": "account",
          "type": "address"
        }
      ],
      "name": "renounceRole",
      "outputs": [],
      "stateMutability": "nonpayable",
      "type": "function"
    },
    {
      "inputs": [
        {
          "internalType": "bytes32",
          "name": "role",
          "type": "bytes32"
        },
        {
          "internalType": "address",
          "name": "account",
          "type": "address"
        }
      ],
      "name": "revokeRole",
      "outputs": [],
      "stateMutability": "nonpayable",
      "type": "function"
    },
    {
      "inputs": [],
      "name": "rewardClaimedTotal",
      "outputs": [
        {
          "internalType": "uint256",
          "name": "",
          "type": "uint256"
        }
      ],
      "stateMutability": "view",
      "type": "function"
    },
    {
      "inputs": [],
      "name": "saleStartBlock",
      "outputs": [
        {
          "internalType": "uint256",
          "name": "",
          "type": "uint256"
        }
      ],
      "stateMutability": "view",
      "type": "function"
    },
    {
      "inputs": [],
      "name": "stakeRegistry",
      "outputs": [
        {
          "internalType": "address",
          "name": "",
          "type": "address"
        }
      ],
      "stateMutability": "view",
      "type": "function"
    },
    {
      "inputs": [],
      "name": "startBlock",
      "outputs": [
        {
          "internalType": "uint256",
          "name": "",
          "type": "uint256"
        }
      ],
      "stateMutability": "view",
      "type": "function"
    },
    {
      "inputs": [],
      "name": "token",
      "outputs": [
        {
          "internalType": "address",
          "name": "",
          "type": "address"
        }
      ],
      "stateMutability": "view",
      "type": "function"
    },
    {
      "inputs": [],
      "name": "totalStakedAmount",
      "outputs": [
        {
          "internalType": "uint256",
          "name": "",
          "type": "uint256"
        }
      ],
      "stateMutability": "view",
      "type": "function"
    },
    {
      "inputs": [],
      "name": "totalStakers",
      "outputs": [
        {
          "internalType": "uint256",
          "name": "",
          "type": "uint256"
        }
      ],
      "stateMutability": "view",
      "type": "function"
    },
    {
      "inputs": [
        {
          "internalType": "address",
          "name": "",
          "type": "address"
        }
      ],
      "name": "userStaked",
      "outputs": [
        {
          "internalType": "uint256",
          "name": "amount",
          "type": "uint256"
        },
        {
          "internalType": "uint256",
          "name": "claimedBlock",
          "type": "uint256"
        },
        {
          "internalType": "uint256",
          "name": "claimedAmount",
          "type": "uint256"
        },
        {
          "internalType": "uint256",
          "name": "releasedBlock",
          "type": "uint256"
        },
        {
          "internalType": "uint256",
          "name": "releasedAmount",
          "type": "uint256"
        },
        {
          "internalType": "uint256",
          "name": "releasedTOSAmount",
          "type": "uint256"
        },
        {
          "internalType": "bool",
          "name": "released",
          "type": "bool"
        }
      ],
      "stateMutability": "view",
      "type": "function"
    },
    {
      "inputs": [],
      "name": "vault",
      "outputs": [
        {
          "internalType": "address",
          "name": "",
          "type": "address"
        }
      ],
      "stateMutability": "view",
      "type": "function"
    },
    {
      "stateMutability": "payable",
      "type": "receive"
    },
    {
      "inputs": [
        {
          "internalType": "address",
          "name": "newOwner",
          "type": "address"
        }
      ],
      "name": "transferOwnership",
      "outputs": [],
      "stateMutability": "nonpayable",
      "type": "function"
    },
    {
      "inputs": [
        {
          "internalType": "bool",
          "name": "_pause",
          "type": "bool"
        }
      ],
      "name": "setProxyPause",
      "outputs": [],
      "stateMutability": "nonpayable",
      "type": "function"
    },
    {
      "inputs": [
        {
          "internalType": "address",
          "name": "impl",
          "type": "address"
        }
      ],
      "name": "upgradeTo",
      "outputs": [],
      "stateMutability": "nonpayable",
      "type": "function"
    },
    {
      "inputs": [],
      "name": "implementation",
      "outputs": [
        {
          "internalType": "address",
          "name": "",
          "type": "address"
        }
      ],
      "stateMutability": "view",
      "type": "function"
    },
    {
      "inputs": [
        {
          "internalType": "address[3]",
          "name": "_addr",
          "type": "address[3]"
        },
        {
          "internalType": "uint256[3]",
          "name": "_intdata",
          "type": "uint256[3]"
        }
      ],
      "name": "setInit",
      "outputs": [],
      "stateMutability": "nonpayable",
      "type": "function"
    }
  ],
  "bytecode": "0x60806040523480156200001157600080fd5b506040516200147d3803806200147d833981810160405260208110156200003757600080fd5b5051620000546000805160206200145d83398151915280620000b0565b6200006f6000805160206200145d8339815191523362000102565b6200008a6000805160206200145d8339815191523062000102565b600d80546001600160a01b0319166001600160a01b039290921691909117905562000218565b6000828152600c6020526040808220600201549051839285917fbd79b86ffe0ab8e8776151514217cd7cacd52c909f66475c3af44e129f0b00ff9190a46000918252600c602052604090912060020155565b6200010e828262000112565b5050565b6000828152600c602090815260409091206200013991839062000e056200018d821b17901c565b156200010e5762000149620001ad565b6001600160a01b0316816001600160a01b0316837f2f8788117e7eff1d82e926ec794901d17c78024a50270940304540a733656f0d60405160405180910390a45050565b6000620001a4836001600160a01b038416620001b1565b90505b92915050565b3390565b6000620001bf838362000200565b620001f757508154600181810184556000848152602080822090930184905584548482528286019093526040902091909155620001a7565b506000620001a7565b60009081526001919091016020526040902054151590565b61123580620002286000396000f3fe60806040526004361061017b5760003560e01c806386989038116100cc578063b2d4d6a31161007a578063b2d4d6a314610592578063ca15c873146105a7578063d547741f146105d1578063dac3fc3f1461060a578063f2fde38b1461063d578063fbfa77cf14610670578063fc0c546a146106855761018a565b8063869890381461038c5780639010d07c146103a157806391d14854146103d15780639a88be2f1461040a578063a217fddf14610485578063a5390f211461049a578063acc3a939146105255761018a565b806348cd4cb11161012957806348cd4cb1146102ce578063567e98f9146102e35780635c60da1b146102f857806363a8fd891461030d578063683048351461033657806375b238fc1461034b5780637cb00d25146103605761018a565b8063083c63231461019257806320027275146101b9578063248a9ca3146101ce5780632f2ff15d146101f857806336568abe146102315780633659cfe61461026a57806343b0934a1461029d5761018a565b3661018a5761018861069a565b005b61018861069a565b34801561019e57600080fd5b506101a7610727565b60408051918252519081900360200190f35b3480156101c557600080fd5b506101a761072d565b3480156101da57600080fd5b506101a7600480360360208110156101f157600080fd5b5035610733565b34801561020457600080fd5b506101886004803603604081101561021b57600080fd5b50803590602001356001600160a01b0316610748565b34801561023d57600080fd5b506101886004803603604081101561025457600080fd5b50803590602001356001600160a01b03166107b4565b34801561027657600080fd5b506101886004803603602081101561028d57600080fd5b50356001600160a01b0316610815565b3480156102a957600080fd5b506102b261096d565b604080516001600160a01b039092168252519081900360200190f35b3480156102da57600080fd5b506101a761097c565b3480156102ef57600080fd5b506101a7610982565b34801561030457600080fd5b506102b2610988565b34801561031957600080fd5b50610322610997565b604080519115158252519081900360200190f35b34801561034257600080fd5b506102b26109a7565b34801561035757600080fd5b506101a76109b6565b34801561036c57600080fd5b506101886004803603602081101561038357600080fd5b503515156109c8565b34801561039857600080fd5b506101a7610a3d565b3480156103ad57600080fd5b506102b2600480360360408110156103c457600080fd5b5080359060200135610a43565b3480156103dd57600080fd5b50610322600480360360408110156103f457600080fd5b50803590602001356001600160a01b0316610a64565b34801561041657600080fd5b5061041f610a7c565b604080516001600160a01b0380891682528716602082015290810185606080838360005b8381101561045b578181015183820152602001610443565b50505050905001848152602001838152602001828152602001965050505050505060405180910390f35b34801561049157600080fd5b506101a7610ad2565b3480156104a657600080fd5b50610188600480360360c08110156104bd57600080fd5b81019080806060019060038060200260405190810160405280929190826003602002808284376000920191909152505060408051606081810190925292959493818101939250906003908390839080828437600092019190915250919450610ad79350505050565b34801561053157600080fd5b506105586004803603602081101561054857600080fd5b50356001600160a01b0316610c00565b604080519788526020880196909652868601949094526060860192909252608085015260a0840152151560c0830152519081900360e00190f35b34801561059e57600080fd5b506101a7610c40565b3480156105b357600080fd5b506101a7600480360360208110156105ca57600080fd5b5035610c46565b3480156105dd57600080fd5b50610188600480360360408110156105f457600080fd5b50803590602001356001600160a01b0316610c5d565b34801561061657600080fd5b506105586004803603602081101561062d57600080fd5b50356001600160a01b0316610cb6565b34801561064957600080fd5b506101886004803603602081101561066057600080fd5b50356001600160a01b0316610cff565b34801561067c57600080fd5b506102b2610de7565b34801561069157600080fd5b506102b2610df6565b60006106a4610988565b90506001600160a01b038116158015906106c85750600d54600160a01b900460ff16155b6107035760405162461bcd60e51b81526004018080602001828103825260308152602001806111a16030913960400191505060405180910390fd5b3660008037600080366000845af43d6000803e808015610722573d6000f35b3d6000fd5b60065481565b60045481565b6000908152600c602052604090206002015490565b6000828152600c602052604090206002015461076b90610766610e1a565b610a64565b6107a65760405162461bcd60e51b815260040180806020018281038252602f815260200180611102602f913960400191505060405180910390fd5b6107b08282610e1e565b5050565b6107bc610e1a565b6001600160a01b0316816001600160a01b03161461080b5760405162461bcd60e51b815260040180806020018281038252602f8152602001806111d1602f913960400191505060405180910390fd5b6107b08282610e87565b61082d60008051602061118183398151915233610a64565b61086c576040805162461bcd60e51b815260206004820152601d6024820152600080516020611131833981519152604482015290519081900360640190fd5b6001600160a01b0381166108c7576040805162461bcd60e51b815260206004820152601f60248201527f5374616b6553696d706c6550726f78793a20696e707574206973207a65726f00604482015290519081900360640190fd5b600d546001600160a01b0382811691161415610923576040805162461bcd60e51b81526020600482015260166024820152755374616b6553696d706c6550726f78793a2073616d6560501b604482015290519081900360640190fd5b600d80546001600160a01b0319166001600160a01b0383169081179091556040517fbc7cd75a20ee27fd9adebab32041f755214dbc6bffa90cc0225b39da2e5c2d3b90600090a250565b6002546001600160a01b031681565b60055481565b60085481565b600d546001600160a01b031690565b600d54600160a01b900460ff1681565b6001546001600160a01b031681565b60008051602061118183398151915281565b6109e060008051602061118183398151915233610a64565b610a1f576040805162461bcd60e51b815260206004820152601d6024820152600080516020611131833981519152604482015290519081900360640190fd5b600d8054911515600160a01b0260ff60a01b19909216919091179055565b600a5481565b6000828152600c60205260408120610a5b9083610ef0565b90505b92915050565b6000828152600c60205260408120610a5b9083610efc565b600080610a876110c1565b5050600254600354604080516060810182526004548152600554602082015260065491810191909152600754600854600a546001600160a01b03958616979590941695509193909290565b600081565b610aef60008051602061118183398151915233610a64565b610b2e576040805162461bcd60e51b815260206004820152601d6024820152600080516020611131833981519152604482015290519081900360640190fd5b60408201516001600160a01b031615801590610b4e575060208101518151105b610b9f576040805162461bcd60e51b815260206004820152601e60248201527f5374616b6553696d706c6550726f78793a20736574496e6974206661696c0000604482015290519081900360640190fd5b8151600080546001600160a01b03199081166001600160a01b03938416179091556020808501516002805484169185169190911790556040948501516003805490931693169290921790558151600455810151600581905591015101600655565b6009602052600090815260409020805460018201546002830154600384015460048501546005860154600690960154949593949293919290919060ff1687565b60075481565b6000818152600c60205260408120610a5e90610f11565b6000828152600c6020526040902060020154610c7b90610766610e1a565b61080b5760405162461bcd60e51b81526004018080602001828103825260308152602001806111516030913960400191505060405180910390fd5b6001600160a01b03166000908152600960205260409020805460018201546002830154600384015460048501546005860154600690960154949693959294919390929160ff1690565b610d1760008051602061118183398151915233610a64565b610d56576040805162461bcd60e51b815260206004820152601d6024820152600080516020611131833981519152604482015290519081900360640190fd5b336001600160a01b0382161415610db4576040805162461bcd60e51b815260206004820152601b60248201527f5374616b6553696d706c6550726f78793a73616d65206f776e65720000000000604482015290519081900360640190fd5b610dcc60008051602061118183398151915282610748565b610de460008051602061118183398151915233610c5d565b50565b6003546001600160a01b031681565b6000546001600160a01b031681565b6000610a5b836001600160a01b038416610f1c565b3390565b6000828152600c60205260409020610e369082610e05565b156107b057610e43610e1a565b6001600160a01b0316816001600160a01b0316837f2f8788117e7eff1d82e926ec794901d17c78024a50270940304540a733656f0d60405160405180910390a45050565b6000828152600c60205260409020610e9f9082610f66565b156107b057610eac610e1a565b6001600160a01b0316816001600160a01b0316837ff6391f5c32d9c69d2a47ea670b442974b53935d1edc7fd64eb21e047a839171b60405160405180910390a45050565b6000610a5b8383610f7b565b6000610a5b836001600160a01b038416610fdf565b6000610a5e82610ff7565b6000610f288383610fdf565b610f5e57508154600181810184556000848152602080822090930184905584548482528286019093526040902091909155610a5e565b506000610a5e565b6000610a5b836001600160a01b038416610ffb565b81546000908210610fbd5760405162461bcd60e51b81526004018080602001828103825260228152602001806110e06022913960400191505060405180910390fd5b826000018281548110610fcc57fe5b9060005260206000200154905092915050565b60009081526001919091016020526040902054151590565b5490565b600081815260018301602052604081205480156110b7578354600019808301919081019060009087908390811061102e57fe5b906000526020600020015490508087600001848154811061104b57fe5b60009182526020808320909101929092558281526001898101909252604090209084019055865487908061107b57fe5b60019003818190600052602060002001600090559055866001016000878152602001908152602001600020600090556001945050505050610a5e565b6000915050610a5e565b6040518060600160405280600390602082028036833750919291505056fe456e756d657261626c655365743a20696e646578206f7574206f6620626f756e6473416363657373436f6e74726f6c3a2073656e646572206d75737420626520616e2061646d696e20746f206772616e745374616b6553696d706c6550726f78793a6e6f7420616e2061646d696e000000416363657373436f6e74726f6c3a2073656e646572206d75737420626520616e2061646d696e20746f207265766f6b65df8b4c520ffe197c5343c6f5aec59570151ef9a492f2c624fd45ddde6135ec425374616b6553696d706c6550726f78793a20696d706c206973207a65726f204f522070726f78792069732066616c7365416363657373436f6e74726f6c3a2063616e206f6e6c792072656e6f756e636520726f6c657320666f722073656c66a26469706673582212204fa342daad0c423c5be47f80df87ffd887b9d35970dd7929af0f56617b99d23c64736f6c63430007060033df8b4c520ffe197c5343c6f5aec59570151ef9a492f2c624fd45ddde6135ec42",
  "immutableReferences": {},
  "source": "// SPDX-License-Identifier: MIT\npragma solidity ^0.7.6;\n//pragma abicoder v2;\n\nimport \"./Stake1Storage.sol\";\nimport \"@openzeppelin/contracts/access/AccessControl.sol\";\n\n/// @title Proxy for Simple Stake contracts\n/// @notice\ncontract StakeSimpleProxy is Stake1Storage, AccessControl {\n    bytes32 public constant ADMIN_ROLE = keccak256(\"ADMIN\");\n    address internal _implementation;\n    bool public pauseProxy;\n\n    event Upgraded(address indexed implementation);\n\n    modifier onlyOwner() {\n        require(\n            hasRole(ADMIN_ROLE, msg.sender),\n            \"StakeSimpleProxy:not an admin\"\n        );\n        _;\n    }\n\n    constructor(address _logic) {\n        _setRoleAdmin(ADMIN_ROLE, ADMIN_ROLE);\n        _setupRole(ADMIN_ROLE, msg.sender);\n        _setupRole(ADMIN_ROLE, address(this));\n        _implementation = _logic;\n    }\n\n    /// @dev transfer Ownership\n    /// @param newOwner new owner address\n    function transferOwnership(address newOwner) external onlyOwner {\n        require(msg.sender != newOwner, \"StakeSimpleProxy:same owner\");\n        grantRole(ADMIN_ROLE, newOwner);\n        revokeRole(ADMIN_ROLE, msg.sender);\n    }\n\n    /// @notice Set pause state\n    /// @param _pause true:pause or false:resume\n    function setProxyPause(bool _pause) external onlyOwner {\n        pauseProxy = _pause;\n    }\n\n    /// @notice Set implementation contract\n    /// @param impl New implementation contract address\n    function upgradeTo(address impl) external onlyOwner {\n        require(impl != address(0), \"StakeSimpleProxy: input is zero\");\n        require(_implementation != impl, \"StakeSimpleProxy: same\");\n        _implementation = impl;\n        emit Upgraded(impl);\n    }\n\n    /// @dev returns the implementation\n    function implementation() public view returns (address) {\n        return _implementation;\n    }\n\n    receive() external payable {\n        _fallback();\n    }\n\n    fallback() external payable {\n        _fallback();\n    }\n\n    function _fallback() internal {\n        address _impl = implementation();\n        require(\n            _impl != address(0) && !pauseProxy,\n            \"StakeSimpleProxy: impl is zero OR proxy is false\"\n        );\n\n        assembly {\n            // Copy msg.data. We take full control of memory in this inline assembly\n            // block because it will not return to Solidity code. We overwrite the\n            // Solidity scratch pad at memory position 0.\n            calldatacopy(0, 0, calldatasize())\n\n            // Call the implementation.\n            // out and outsize are 0 because we don't know the size yet.\n            let result := delegatecall(gas(), _impl, 0, calldatasize(), 0, 0)\n\n            // Copy the returned data.\n            returndatacopy(0, 0, returndatasize())\n\n            switch result\n                // delegatecall returns 0 on error.\n                case 0 {\n                    revert(0, returndatasize())\n                }\n                default {\n                    return(0, returndatasize())\n                }\n        }\n    }\n\n    /// @dev set initial storage\n    /// @param _addr the array addresses of token, paytoken, vault\n    /// @param _intdata the array valued of saleStartBlock, stakeStartBlock, periodBlocks\n    function setInit(address[3] memory _addr, uint256[3] memory _intdata)\n        external\n        onlyOwner\n    {\n        require(\n            _addr[2] != address(0) && _intdata[0] < _intdata[1],\n            \"StakeSimpleProxy: setInit fail\"\n        );\n        token = _addr[0];\n        paytoken = _addr[1];\n        vault = _addr[2];\n\n        saleStartBlock = _intdata[0];\n        startBlock = _intdata[1];\n        endBlock = startBlock + _intdata[2];\n    }\n}\n",
  "sourcePath": "/Users/zena/ico2.0/ico20-contracts/contracts/stake/StakeSimpleProxy.sol",
  "compiler": {
    "name": "solc",
    "version": "0.7.6+commit.7338295f.Emscripten.clang"
  },
  "schemaVersion": "3.3.4",
  "updatedAt": "2021-06-15T10:41:10.353Z",
  "devdoc": {
    "kind": "dev",
    "methods": {
      "getRoleAdmin(bytes32)": {
        "details": "Returns the admin role that controls `role`. See {grantRole} and {revokeRole}. To change a role's admin, use {_setRoleAdmin}."
      },
      "getRoleMember(bytes32,uint256)": {
        "details": "Returns one of the accounts that have `role`. `index` must be a value between 0 and {getRoleMemberCount}, non-inclusive. Role bearers are not sorted in any particular way, and their ordering may change at any point. WARNING: When using {getRoleMember} and {getRoleMemberCount}, make sure you perform all queries on the same block. See the following https://forum.openzeppelin.com/t/iterating-over-elements-on-enumerableset-in-openzeppelin-contracts/2296[forum post] for more information."
      },
      "getRoleMemberCount(bytes32)": {
        "details": "Returns the number of accounts that have `role`. Can be used together with {getRoleMember} to enumerate all bearers of a role."
      },
      "getUserStaked(address)": {
        "details": "user's staked information"
      },
      "grantRole(bytes32,address)": {
        "details": "Grants `role` to `account`. If `account` had not been already granted `role`, emits a {RoleGranted} event. Requirements: - the caller must have ``role``'s admin role."
      },
      "hasRole(bytes32,address)": {
        "details": "Returns `true` if `account` has been granted `role`."
      },
      "implementation()": {
        "details": "returns the implementation"
      },
      "infos()": {
        "details": "Give the infomation of this stakeContracts",
        "returns": {
          "_0": "paytoken, vault, [saleStartBlock, startBlock, endBlock], rewardClaimedTotal, totalStakedAmount, totalStakers"
        }
      },
      "renounceRole(bytes32,address)": {
        "details": "Revokes `role` from the calling account. Roles are often managed via {grantRole} and {revokeRole}: this function's purpose is to provide a mechanism for accounts to lose their privileges if they are compromised (such as when a trusted device is misplaced). If the calling account had been granted `role`, emits a {RoleRevoked} event. Requirements: - the caller must be `account`."
      },
      "revokeRole(bytes32,address)": {
        "details": "Revokes `role` from `account`. If `account` had been granted `role`, emits a {RoleRevoked} event. Requirements: - the caller must have ``role``'s admin role."
      },
      "setInit(address[3],uint256[3])": {
        "details": "set initial storage",
        "params": {
          "_addr": "the array addresses of token, paytoken, vault",
          "_intdata": "the array valued of saleStartBlock, stakeStartBlock, periodBlocks"
        }
      },
      "setProxyPause(bool)": {
        "params": {
          "_pause": "true:pause or false:resume"
        }
      },
      "transferOwnership(address)": {
        "details": "transfer Ownership",
        "params": {
          "newOwner": "new owner address"
        }
      },
      "upgradeTo(address)": {
        "params": {
          "impl": "New implementation contract address"
        }
      }
    },
    "title": "Proxy for Simple Stake contracts",
    "version": 1
  },
  "userdoc": {
    "kind": "user",
    "methods": {
      "setProxyPause(bool)": {
        "notice": "Set pause state"
      },
      "upgradeTo(address)": {
        "notice": "Set implementation contract"
      }
    },
    "version": 1
  }
}