{
  "contractName": "Stake1Logic",
  "abi": [
    {
      "inputs": [],
      "stateMutability": "nonpayable",
      "type": "constructor"
    },
    {
      "anonymous": false,
      "inputs": [
        {
          "indexed": true,
          "internalType": "address",
          "name": "vault",
          "type": "address"
        }
      ],
      "name": "ClosedSale",
      "type": "event"
    },
    {
      "anonymous": false,
      "inputs": [
        {
          "indexed": true,
          "internalType": "address",
          "name": "vault",
          "type": "address"
        },
        {
          "indexed": true,
          "internalType": "address",
          "name": "stakeContract",
          "type": "address"
        },
        {
          "indexed": false,
          "internalType": "uint256",
          "name": "phase",
          "type": "uint256"
        }
      ],
      "name": "CreatedStakeContract",
      "type": "event"
    },
    {
      "anonymous": false,
      "inputs": [
        {
          "indexed": true,
          "internalType": "address",
          "name": "vault",
          "type": "address"
        },
        {
          "indexed": false,
          "internalType": "address",
          "name": "paytoken",
          "type": "address"
        },
        {
          "indexed": false,
          "internalType": "uint256",
          "name": "cap",
          "type": "uint256"
        }
      ],
      "name": "CreatedVault",
      "type": "event"
    },
    {
      "anonymous": false,
      "inputs": [
        {
          "indexed": true,
          "internalType": "bytes32",
          "name": "role",
          "type": "bytes32"
        },
        {
          "indexed": true,
          "internalType": "bytes32",
          "name": "previousAdminRole",
          "type": "bytes32"
        },
        {
          "indexed": true,
          "internalType": "bytes32",
          "name": "newAdminRole",
          "type": "bytes32"
        }
      ],
      "name": "RoleAdminChanged",
      "type": "event"
    },
    {
      "anonymous": false,
      "inputs": [
        {
          "indexed": true,
          "internalType": "bytes32",
          "name": "role",
          "type": "bytes32"
        },
        {
          "indexed": true,
          "internalType": "address",
          "name": "account",
          "type": "address"
        },
        {
          "indexed": true,
          "internalType": "address",
          "name": "sender",
          "type": "address"
        }
      ],
      "name": "RoleGranted",
      "type": "event"
    },
    {
      "anonymous": false,
      "inputs": [
        {
          "indexed": true,
          "internalType": "bytes32",
          "name": "role",
          "type": "bytes32"
        },
        {
          "indexed": true,
          "internalType": "address",
          "name": "account",
          "type": "address"
        },
        {
          "indexed": true,
          "internalType": "address",
          "name": "sender",
          "type": "address"
        }
      ],
      "name": "RoleRevoked",
      "type": "event"
    },
    {
      "anonymous": false,
      "inputs": [
        {
          "indexed": false,
          "internalType": "address",
          "name": "stakeRegistry",
          "type": "address"
        }
      ],
      "name": "SetStakeRegistry",
      "type": "event"
    },
    {
      "inputs": [],
      "name": "ADMIN_ROLE",
      "outputs": [
        {
          "internalType": "bytes32",
          "name": "",
          "type": "bytes32"
        }
      ],
      "stateMutability": "view",
      "type": "function"
    },
    {
      "inputs": [],
      "name": "DEFAULT_ADMIN_ROLE",
      "outputs": [
        {
          "internalType": "bytes32",
          "name": "",
          "type": "bytes32"
        }
      ],
      "stateMutability": "view",
      "type": "function"
    },
    {
      "inputs": [],
      "name": "ZERO_HASH",
      "outputs": [
        {
          "internalType": "bytes32",
          "name": "",
          "type": "bytes32"
        }
      ],
      "stateMutability": "view",
      "type": "function"
    },
    {
      "inputs": [],
      "name": "depositManager",
      "outputs": [
        {
          "internalType": "address",
          "name": "",
          "type": "address"
        }
      ],
      "stateMutability": "view",
      "type": "function"
    },
    {
      "inputs": [
        {
          "internalType": "bytes32",
          "name": "role",
          "type": "bytes32"
        }
      ],
      "name": "getRoleAdmin",
      "outputs": [
        {
          "internalType": "bytes32",
          "name": "",
          "type": "bytes32"
        }
      ],
      "stateMutability": "view",
      "type": "function"
    },
    {
      "inputs": [
        {
          "internalType": "bytes32",
          "name": "role",
          "type": "bytes32"
        },
        {
          "internalType": "uint256",
          "name": "index",
          "type": "uint256"
        }
      ],
      "name": "getRoleMember",
      "outputs": [
        {
          "internalType": "address",
          "name": "",
          "type": "address"
        }
      ],
      "stateMutability": "view",
      "type": "function"
    },
    {
      "inputs": [
        {
          "internalType": "bytes32",
          "name": "role",
          "type": "bytes32"
        }
      ],
      "name": "getRoleMemberCount",
      "outputs": [
        {
          "internalType": "uint256",
          "name": "",
          "type": "uint256"
        }
      ],
      "stateMutability": "view",
      "type": "function"
    },
    {
      "inputs": [
        {
          "internalType": "bytes32",
          "name": "role",
          "type": "bytes32"
        },
        {
          "internalType": "address",
          "name": "account",
          "type": "address"
        }
      ],
      "name": "hasRole",
      "outputs": [
        {
          "internalType": "bool",
          "name": "",
          "type": "bool"
        }
      ],
      "stateMutability": "view",
      "type": "function"
    },
    {
      "inputs": [
        {
          "internalType": "bytes32",
          "name": "role",
          "type": "bytes32"
        },
        {
          "internalType": "address",
          "name": "account",
          "type": "address"
        }
      ],
      "name": "renounceRole",
      "outputs": [],
      "stateMutability": "nonpayable",
      "type": "function"
    },
    {
      "inputs": [],
      "name": "seigManager",
      "outputs": [
        {
          "internalType": "address",
          "name": "",
          "type": "address"
        }
      ],
      "stateMutability": "view",
      "type": "function"
    },
    {
      "inputs": [],
      "name": "stakeFactory",
      "outputs": [
        {
          "internalType": "contract IStakeFactory",
          "name": "",
          "type": "address"
        }
      ],
      "stateMutability": "view",
      "type": "function"
    },
    {
      "inputs": [],
      "name": "stakeRegistry",
      "outputs": [
        {
          "internalType": "contract IStakeRegistry",
          "name": "",
          "type": "address"
        }
      ],
      "stateMutability": "view",
      "type": "function"
    },
    {
      "inputs": [],
      "name": "stakeVaultFactory",
      "outputs": [
        {
          "internalType": "contract IStakeVaultFactory",
          "name": "",
          "type": "address"
        }
      ],
      "stateMutability": "view",
      "type": "function"
    },
    {
      "inputs": [],
      "name": "ton",
      "outputs": [
        {
          "internalType": "address",
          "name": "",
          "type": "address"
        }
      ],
      "stateMutability": "view",
      "type": "function"
    },
    {
      "inputs": [],
      "name": "tos",
      "outputs": [
        {
          "internalType": "address",
          "name": "",
          "type": "address"
        }
      ],
      "stateMutability": "view",
      "type": "function"
    },
    {
      "inputs": [],
      "name": "wton",
      "outputs": [
        {
          "internalType": "address",
          "name": "",
          "type": "address"
        }
      ],
      "stateMutability": "view",
      "type": "function"
    },
    {
      "inputs": [
        {
          "internalType": "address",
          "name": "_stakeProxy",
          "type": "address"
        },
        {
          "internalType": "address",
          "name": "_implementation",
          "type": "address"
        }
      ],
      "name": "upgradeStakeTo",
      "outputs": [],
      "stateMutability": "nonpayable",
      "type": "function"
    },
    {
      "inputs": [
        {
          "internalType": "address",
          "name": "newOwner",
          "type": "address"
        }
      ],
      "name": "transferOwnership",
      "outputs": [],
      "stateMutability": "nonpayable",
      "type": "function"
    },
    {
      "inputs": [
        {
          "internalType": "bytes32",
          "name": "role",
          "type": "bytes32"
        },
        {
          "internalType": "address",
          "name": "account",
          "type": "address"
        }
      ],
      "name": "grantRole",
      "outputs": [],
      "stateMutability": "nonpayable",
      "type": "function"
    },
    {
      "inputs": [
        {
          "internalType": "address",
          "name": "target",
          "type": "address"
        },
        {
          "internalType": "bytes32",
          "name": "role",
          "type": "bytes32"
        },
        {
          "internalType": "address",
          "name": "account",
          "type": "address"
        }
      ],
      "name": "grantRole",
      "outputs": [],
      "stateMutability": "nonpayable",
      "type": "function"
    },
    {
      "inputs": [
        {
          "internalType": "address",
          "name": "target",
          "type": "address"
        },
        {
          "internalType": "bytes32",
          "name": "role",
          "type": "bytes32"
        },
        {
          "internalType": "address",
          "name": "account",
          "type": "address"
        }
      ],
      "name": "revokeRole",
      "outputs": [],
      "stateMutability": "nonpayable",
      "type": "function"
    },
    {
      "inputs": [
        {
          "internalType": "bytes32",
          "name": "role",
          "type": "bytes32"
        },
        {
          "internalType": "address",
          "name": "account",
          "type": "address"
        }
      ],
      "name": "revokeRole",
      "outputs": [],
      "stateMutability": "nonpayable",
      "type": "function"
    },
    {
      "inputs": [
        {
          "internalType": "address",
          "name": "_tos",
          "type": "address"
        }
      ],
      "name": "setTOS",
      "outputs": [],
      "stateMutability": "nonpayable",
      "type": "function"
    },
    {
      "inputs": [
        {
          "internalType": "address",
          "name": "_stakeRegistry",
          "type": "address"
        }
      ],
      "name": "setStakeRegistry",
      "outputs": [],
      "stateMutability": "nonpayable",
      "type": "function"
    },
    {
      "inputs": [
        {
          "internalType": "address",
          "name": "_stakeFactory",
          "type": "address"
        }
      ],
      "name": "setStakeFactory",
      "outputs": [],
      "stateMutability": "nonpayable",
      "type": "function"
    },
    {
      "inputs": [
        {
          "internalType": "address",
          "name": "_stakeTONFactory",
          "type": "address"
        }
      ],
      "name": "setStakeTONFactory",
      "outputs": [],
      "stateMutability": "nonpayable",
      "type": "function"
    },
    {
      "inputs": [
        {
          "internalType": "address",
          "name": "_stakeSimpleFactory",
          "type": "address"
        }
      ],
      "name": "setStakeSimpleFactory",
      "outputs": [],
      "stateMutability": "nonpayable",
      "type": "function"
    },
    {
      "inputs": [
        {
          "internalType": "address",
          "name": "_stakeDefiFactory",
          "type": "address"
        }
      ],
      "name": "setStakeDefiFactory",
      "outputs": [],
      "stateMutability": "nonpayable",
      "type": "function"
    },
    {
      "inputs": [
        {
          "internalType": "address",
          "name": "_stakeVaultFactory",
          "type": "address"
        }
      ],
      "name": "setStakeVaultFactory",
      "outputs": [],
      "stateMutability": "nonpayable",
      "type": "function"
    },
    {
      "inputs": [
        {
          "internalType": "address",
          "name": "_tos",
          "type": "address"
        },
        {
          "internalType": "address",
          "name": "_stakeRegistry",
          "type": "address"
        },
        {
          "internalType": "address",
          "name": "_stakeFactory",
          "type": "address"
        },
        {
          "internalType": "address",
          "name": "_stakeVaultFactory",
          "type": "address"
        },
        {
          "internalType": "address",
          "name": "_ton",
          "type": "address"
        },
        {
          "internalType": "address",
          "name": "_wton",
          "type": "address"
        },
        {
          "internalType": "address",
          "name": "_depositManager",
          "type": "address"
        },
        {
          "internalType": "address",
          "name": "_seigManager",
          "type": "address"
        }
      ],
      "name": "setStore",
      "outputs": [],
      "stateMutability": "nonpayable",
      "type": "function"
    },
    {
      "inputs": [
        {
          "internalType": "address",
          "name": "_paytoken",
          "type": "address"
        },
        {
          "internalType": "uint256",
          "name": "_cap",
          "type": "uint256"
        },
        {
          "internalType": "uint256",
          "name": "_saleStartBlock",
          "type": "uint256"
        },
        {
          "internalType": "uint256",
          "name": "_stakeStartBlock",
          "type": "uint256"
        },
        {
          "internalType": "uint256",
          "name": "_phase",
          "type": "uint256"
        },
        {
          "internalType": "bytes32",
          "name": "_vaultName",
          "type": "bytes32"
        },
        {
          "internalType": "uint256",
          "name": "_stakeType",
          "type": "uint256"
        },
        {
          "internalType": "address",
          "name": "_defiAddr",
          "type": "address"
        }
      ],
      "name": "createVault",
      "outputs": [],
      "stateMutability": "nonpayable",
      "type": "function"
    },
    {
      "inputs": [
        {
          "internalType": "uint256",
          "name": "_phase",
          "type": "uint256"
        },
        {
          "internalType": "address",
          "name": "_vault",
          "type": "address"
        },
        {
          "internalType": "address",
          "name": "token",
          "type": "address"
        },
        {
          "internalType": "address",
          "name": "paytoken",
          "type": "address"
        },
        {
          "internalType": "uint256",
          "name": "periodBlock",
          "type": "uint256"
        },
        {
          "internalType": "string",
          "name": "_name",
          "type": "string"
        }
      ],
      "name": "createStakeContract",
      "outputs": [],
      "stateMutability": "nonpayable",
      "type": "function"
    },
    {
      "inputs": [
        {
          "internalType": "uint256",
          "name": "_phase",
          "type": "uint256"
        },
        {
          "internalType": "bytes32",
          "name": "_vaultName",
          "type": "bytes32"
        },
        {
          "internalType": "address",
          "name": "_vault",
          "type": "address"
        }
      ],
      "name": "addVault",
      "outputs": [],
      "stateMutability": "nonpayable",
      "type": "function"
    },
    {
      "inputs": [
        {
          "internalType": "address",
          "name": "_vault",
          "type": "address"
        }
      ],
      "name": "closeSale",
      "outputs": [],
      "stateMutability": "nonpayable",
      "type": "function"
    },
    {
      "inputs": [
        {
          "internalType": "address",
          "name": "_vault",
          "type": "address"
        }
      ],
      "name": "stakeContractsOfVault",
      "outputs": [
        {
          "internalType": "address[]",
          "name": "",
          "type": "address[]"
        }
      ],
      "stateMutability": "view",
      "type": "function"
    },
    {
      "inputs": [
        {
          "internalType": "uint256",
          "name": "_phaseIndex",
          "type": "uint256"
        }
      ],
      "name": "vaultsOfPhase",
      "outputs": [
        {
          "internalType": "address[]",
          "name": "",
          "type": "address[]"
        }
      ],
      "stateMutability": "view",
      "type": "function"
    },
    {
      "inputs": [
        {
          "internalType": "address",
          "name": "_stakeContract",
          "type": "address"
        },
        {
          "internalType": "address",
          "name": "_layer2",
          "type": "address"
        },
        {
          "internalType": "uint256",
          "name": "stakeAmount",
          "type": "uint256"
        }
      ],
      "name": "tokamakStaking",
      "outputs": [],
      "stateMutability": "nonpayable",
      "type": "function"
    },
    {
      "inputs": [
        {
          "internalType": "address",
          "name": "_stakeContract",
          "type": "address"
        },
        {
          "internalType": "address",
          "name": "_layer2",
          "type": "address"
        },
        {
          "internalType": "uint256",
          "name": "amount",
          "type": "uint256"
        }
      ],
      "name": "tokamakRequestUnStaking",
      "outputs": [],
      "stateMutability": "nonpayable",
      "type": "function"
    },
    {
      "inputs": [
        {
          "internalType": "address",
          "name": "_stakeContract",
          "type": "address"
        },
        {
          "internalType": "address",
          "name": "_layer2",
          "type": "address"
        }
      ],
      "name": "tokamakRequestUnStakingAll",
      "outputs": [],
      "stateMutability": "nonpayable",
      "type": "function"
    },
    {
      "inputs": [
        {
          "internalType": "address",
          "name": "_stakeContract",
          "type": "address"
        },
        {
          "internalType": "address",
          "name": "_layer2",
          "type": "address"
        }
      ],
      "name": "tokamakProcessUnStaking",
      "outputs": [],
      "stateMutability": "nonpayable",
      "type": "function"
    },
    {
      "inputs": [
        {
          "internalType": "address",
          "name": "_stakeContract",
          "type": "address"
        },
        {
          "internalType": "uint256",
          "name": "amountIn",
          "type": "uint256"
        },
        {
          "internalType": "uint256",
          "name": "amountOutMinimum",
          "type": "uint256"
        },
        {
          "internalType": "uint256",
          "name": "deadline",
          "type": "uint256"
        },
        {
          "internalType": "uint160",
          "name": "sqrtPriceLimitX96",
          "type": "uint160"
        },
        {
          "internalType": "uint256",
          "name": "_type",
          "type": "uint256"
        }
      ],
      "name": "exchangeWTONtoTOS",
      "outputs": [
        {
          "internalType": "uint256",
          "name": "amountOut",
          "type": "uint256"
        }
      ],
      "stateMutability": "nonpayable",
      "type": "function"
    },
    {
      "inputs": [
        {
          "internalType": "address",
          "name": "_stakeContract",
          "type": "address"
        },
        {
          "internalType": "uint256",
          "name": "amountIn",
          "type": "uint256"
        },
        {
          "internalType": "uint256",
          "name": "amountOutMinimum",
          "type": "uint256"
        },
        {
          "internalType": "uint256",
          "name": "deadline",
          "type": "uint256"
        },
        {
          "internalType": "uint256",
          "name": "_type",
          "type": "uint256"
        }
      ],
      "name": "exchangeWTONtoTOSv2",
      "outputs": [
        {
          "internalType": "uint256",
          "name": "amountOut",
          "type": "uint256"
        }
      ],
      "stateMutability": "nonpayable",
      "type": "function"
    },
    {
      "inputs": [
        {
          "internalType": "uint256",
          "name": "_phase",
          "type": "uint256"
        }
      ],
      "name": "vaultsOfPahse",
      "outputs": [
        {
          "internalType": "address[]",
          "name": "",
          "type": "address[]"
        }
      ],
      "stateMutability": "view",
      "type": "function"
    }
  ],
  "bytecode": "0x60806040523480156200001157600080fd5b506200002d60008051602062002c65833981519152806200004e565b6200004860008051602062002c6583398151915233620000a0565b620001b6565b600082815260086020526040808220600201549051839285917fbd79b86ffe0ab8e8776151514217cd7cacd52c909f66475c3af44e129f0b00ff9190a460009182526008602052604090912060020155565b620000ac8282620000b0565b5050565b6000828152600860209081526040909120620000d7918390620026bd6200012b821b17901c565b15620000ac57620000e76200014b565b6001600160a01b0316816001600160a01b0316837f2f8788117e7eff1d82e926ec794901d17c78024a50270940304540a733656f0d60405160405180910390a45050565b600062000142836001600160a01b0384166200014f565b90505b92915050565b3390565b60006200015d83836200019e565b620001955750815460018181018455600084815260208082209093018490558454848252828601909352604090209190915562000145565b50600062000145565b60009081526001919091016020526040902054151590565b612a9f80620001c66000396000f3fe608060405234801561001057600080fd5b50600436106102695760003560e01c80637a7c90cf11610151578063aaa5baf4116100c3578063d547741f11610087578063d547741f146108ab578063d6e9ac79146108d7578063dd196f18146108fd578063e144cd4514610905578063e3b05f2f14610964578063f2fde38b1461098a57610269565b8063aaa5baf41461080c578063bdfcd5f314610832578063ca15c87314610858578063cc48b94714610875578063ce3ac6b81461087d57610269565b806391d148541161011557806391d1485414610669578063965cfe7b146106a95780639e9ca1781461077a5780639ed452c1146107b0578063a217fddf1461041c578063aa53f97e146107e657610269565b80637a7c90cf146105ba57806389f395de146106005780638c63a1a1146106085780638d62d9491461063e5780639010d07c1461064657610269565b8063535ae1d5116101ea5780636af8da27116101ae5780636af8da27146105575780636c7ac9d81461055f5780636fb7f5581461056757806375b238fc1461056f5780637949137014610577578063797acec31461059d57610269565b8063535ae1d51461045657806355885a591461047c578063671b54da146104cf5780636761882b1461050d578063683048351461053357610269565b80633e4fe355116102315780633e4fe3551461035b57806340c2ce86146103c857806349c4542d146103ee5780634ce76a3c1461041c5780635294fcef1461042457610269565b8063248a9ca31461026e5780632a36a2031461029d5780632f2ff15d146102cd5780633290f93a146102f957806336568abe1461032f575b600080fd5b61028b6004803603602081101561028457600080fd5b50356109b0565b60408051918252519081900360200190f35b6102cb600480360360408110156102b357600080fd5b506001600160a01b03813581169160200135166109c5565b005b6102cb600480360360408110156102e357600080fd5b50803590602001356001600160a01b0316610a73565b6102cb6004803603606081101561030f57600080fd5b506001600160a01b03813581169160208101359160409091013516610adf565b6102cb6004803603604081101561034557600080fd5b50803590602001356001600160a01b0316610c60565b6103786004803603602081101561037157600080fd5b5035610cc1565b60408051602080825283518183015283519192839290830191858101910280838360005b838110156103b457818101518382015260200161039c565b505050509050019250505060405180910390f35b6102cb600480360360208110156103de57600080fd5b50356001600160a01b0316610e26565b6102cb6004803603604081101561040457600080fd5b506001600160a01b0381358116916020013516610ed6565b61028b610f25565b6102cb6004803603606081101561043a57600080fd5b50803590602081013590604001356001600160a01b0316610f2a565b6102cb6004803603602081101561046c57600080fd5b50356001600160a01b0316610fe3565b6102cb600480360361010081101561049357600080fd5b506001600160a01b03813581169160208101359160408201359160608101359160808201359160a08101359160c08201359160e0013516611093565b61028b600480360360a08110156104e557600080fd5b506001600160a01b03813516906020810135906040810135906060810135906080013561137a565b6102cb6004803603602081101561052357600080fd5b50356001600160a01b0316611410565b61053b6114c0565b604080516001600160a01b039092168252519081900360200190f35b61053b6114cf565b61053b6114de565b61053b6114ed565b61028b6114fc565b6102cb6004803603602081101561058d57600080fd5b50356001600160a01b031661150e565b610378600480360360208110156105b357600080fd5b5035611598565b61028b600480360360c08110156105d057600080fd5b506001600160a01b0381358116916020810135916040820135916060810135916080820135169060a001356116b1565b61053b611750565b6102cb6004803603606081101561061e57600080fd5b506001600160a01b0381358116916020810135916040909101351661175f565b61053b6118da565b61053b6004803603604081101561065c57600080fd5b50803590602001356118e9565b6106956004803603604081101561067f57600080fd5b50803590602001356001600160a01b031661190a565b604080519115158252519081900360200190f35b6102cb600480360360c08110156106bf57600080fd5b8135916001600160a01b036020820135811692604083013582169260608101359092169160808101359181019060c0810160a0820135600160201b81111561070657600080fd5b82018360208201111561071857600080fd5b803590602001918460018302840111600160201b8311171561073957600080fd5b91908080601f016020809104026020016040519081016040528093929190818152602001838380828437600092019190915250929550611922945050505050565b6102cb6004803603606081101561079057600080fd5b506001600160a01b03813581169160208101359091169060400135611e80565b6102cb600480360360608110156107c657600080fd5b506001600160a01b03813581169160208101359091169060400135611ed7565b6102cb600480360360208110156107fc57600080fd5b50356001600160a01b0316611f2e565b6102cb6004803603602081101561082257600080fd5b50356001600160a01b0316612009565b6103786004803603602081101561084857600080fd5b50356001600160a01b03166120e4565b61028b6004803603602081101561086e57600080fd5b5035612169565b61053b612180565b6102cb6004803603604081101561089357600080fd5b506001600160a01b038135811691602001351661218f565b6102cb600480360360408110156108c157600080fd5b50803590602001356001600160a01b03166121de565b6102cb600480360360208110156108ed57600080fd5b50356001600160a01b0316612237565b61053b612312565b6102cb600480360361010081101561091c57600080fd5b506001600160a01b038135811691602081013582169160408201358116916060810135821691608082013581169160a081013582169160c082013581169160e0013516612321565b6102cb6004803603602081101561097a57600080fd5b50356001600160a01b031661250d565b6102cb600480360360208110156109a057600080fd5b50356001600160a01b03166125ef565b60009081526008602052604090206002015490565b6109dd6000805160206129fb8339815191523361190a565b610a08576040805162461bcd60e51b8152602060048201526000602482015290519081900360440190fd5b816001600160a01b0316633659cfe6826040518263ffffffff1660e01b815260040180826001600160a01b03168152602001915050600060405180830381600087803b158015610a5757600080fd5b505af1158015610a6b573d6000803e3d6000fd5b505050505050565b600082815260086020526040902060020154610a9690610a916126d2565b61190a565b610ad15760405162461bcd60e51b815260040180806020018281038252602f81526020018061299c602f913960400191505060405180910390fd5b610adb82826126d6565b5050565b610af76000805160206129fb8339815191523361190a565b610b22576040805162461bcd60e51b8152602060048201526000602482015290519081900360440190fd5b60408051602481018490526001600160a01b0383811660448084019190915283518084039091018152606490920183526020820180516001600160e01b0316632f2ff15d60e01b17815292518251600094928816939282918083835b60208310610b9d5780518252601f199092019160209182019101610b7e565b6001836020036101000a0380198251168184511680821785525050505050509050019150506000604051808303816000865af19150503d8060008114610bff576040519150601f19603f3d011682016040523d82523d6000602084013e610c04565b606091505b5050905080610c5a576040805162461bcd60e51b815260206004820152601b60248201527f5374616b65314c6f6769633a206772616e74526f6c65206661696c0000000000604482015290519081900360640190fd5b50505050565b610c686126d2565b6001600160a01b0316816001600160a01b031614610cb75760405162461bcd60e51b815260040180806020018281038252602f815260200180612a3b602f913960400191505060405180910390fd5b610adb828261273f565b6000546060906001600160a01b031680610d10576040805162461bcd60e51b81526020600482015260186024820152600080516020612a1b833981519152604482015290519081900360640190fd5b600080546040805163a95031f160e01b81526004810187905290516001600160a01b039092169263a95031f192602480840193829003018186803b158015610d5757600080fd5b505afa158015610d6b573d6000803e3d6000fd5b505050506040513d6000823e601f3d908101601f191682016040526020811015610d9457600080fd5b8101908080516040519392919084600160201b821115610db357600080fd5b908301906020820185811115610dc857600080fd5b82518660208202830111600160201b82111715610de457600080fd5b82525081516020918201928201910280838360005b83811015610e11578181015183820152602001610df9565b50505050905001604052505050915050919050565b610e3e6000805160206129fb8339815191523361190a565b610e69576040805162461bcd60e51b8152602060048201526000602482015290519081900360440190fd5b806001600160a01b038116610eb3576040805162461bcd60e51b81526020600482015260186024820152600080516020612a1b833981519152604482015290519081900360640190fd5b50600380546001600160a01b0319166001600160a01b0392909216919091179055565b816001600160a01b03166371def0b3826040518263ffffffff1660e01b815260040180826001600160a01b03168152602001915050600060405180830381600087803b158015610a5757600080fd5b600081565b610f426000805160206129fb8339815191523361190a565b610f6d576040805162461bcd60e51b8152602060048201526000602482015290519081900360440190fd5b60008054604080516377e4fba360e11b81526001600160a01b03858116600483015260248201889052604482018790529151919092169263efc9f746926064808201939182900301818387803b158015610fc657600080fd5b505af1158015610fda573d6000803e3d6000fd5b50505050505050565b610ffb6000805160206129fb8339815191523361190a565b611026576040805162461bcd60e51b8152602060048201526000602482015290519081900360440190fd5b806001600160a01b038116611070576040805162461bcd60e51b81526020600482015260186024820152600080516020612a1b833981519152604482015290519081900360640190fd5b50600180546001600160a01b0319166001600160a01b0392909216919091179055565b6110ab6000805160206129fb8339815191523361190a565b6110d6576040805162461bcd60e51b8152602060048201526000602482015290519081900360440190fd5b6002546001600160a01b031680611122576040805162461bcd60e51b81526020600482015260186024820152600080516020612a1b833981519152604482015290519081900360640190fd5b60025460408051608080820183526003546001600160a01b0390811683528d8116602080850191909152600154821684860152878216606080860191909152855180850187528a81529182018f90528186018e905281018c9052935163479848ed60e11b81526000959190911693638f3091da939290913091600490910190819085908083838c5b838110156111c25781810151838201526020016111aa565b5050505090500183600460200280838360005b838110156111ed5781810151838201526020016111d5565b50505050905001826001600160a01b031681526020019350505050602060405180830381600087803b15801561122257600080fd5b505af1158015611236573d6000803e3d6000fd5b505050506040513d602081101561124c57600080fd5b505190506001600160a01b0381166112ab576040805162461bcd60e51b815260206004820152601a60248201527f5374616b65314c6f6769633a207661756c74206973207a65726f000000000000604482015290519081900360640190fd5b60008054604080516377e4fba360e11b81526001600160a01b038581166004830152602482018b9052604482018a90529151919092169263efc9f746926064808201939182900301818387803b15801561130457600080fd5b505af1158015611318573d6000803e3d6000fd5b50505050806001600160a01b03167f9e0e84720f13c322e117ed1e67a8c53d21ec4b3b7c35c1dd1728dc7cab64f0968b8b60405180836001600160a01b031681526020018281526020019250505060405180910390a250505050505050505050565b6000856001600160a01b03166356dcfd38868686866040518563ffffffff1660e01b815260040180858152602001848152602001838152602001828152602001945050505050602060405180830381600087803b1580156113da57600080fd5b505af11580156113ee573d6000803e3d6000fd5b505050506040513d602081101561140457600080fd5b50519695505050505050565b6114286000805160206129fb8339815191523361190a565b611453576040805162461bcd60e51b8152602060048201526000602482015290519081900360440190fd5b806001600160a01b03811661149d576040805162461bcd60e51b81526020600482015260186024820152600080516020612a1b833981519152604482015290519081900360640190fd5b50600280546001600160a01b0319166001600160a01b0392909216919091179055565b6000546001600160a01b031681565b6002546001600160a01b031681565b6006546001600160a01b031681565b6007546001600160a01b031681565b6000805160206129fb83398151915281565b806001600160a01b031663ee55efee6040518163ffffffff1660e01b8152600401600060405180830381600087803b15801561154957600080fd5b505af115801561155d573d6000803e3d6000fd5b50506040516001600160a01b03841692507fae40eec9b07492483019ae6e884ce6e581109fbb8c38cc434d41fd02b9d689139150600090a250565b600080546040805163a95031f160e01b81526004810185905290516060936001600160a01b039093169263a95031f19260248082019391829003018186803b1580156115e357600080fd5b505afa1580156115f7573d6000803e3d6000fd5b505050506040513d6000823e601f3d908101601f19168201604052602081101561162057600080fd5b8101908080516040519392919084600160201b82111561163f57600080fd5b90830190602082018581111561165457600080fd5b82518660208202830111600160201b8211171561167057600080fd5b82525081516020918201928201910280838360005b8381101561169d578181015183820152602001611685565b505050509050016040525050509050919050565b6040805163f0cdfa5360e01b81526004810187905260248101869052604481018590526001600160a01b03848116606483015260848201849052915160009289169163f0cdfa539160a480830192602092919082900301818787803b15801561171957600080fd5b505af115801561172d573d6000803e3d6000fd5b505050506040513d602081101561174357600080fd5b5051979650505050505050565b6003546001600160a01b031681565b6117776000805160206129fb8339815191523361190a565b6117a2576040805162461bcd60e51b8152602060048201526000602482015290519081900360440190fd5b60408051602481018490526001600160a01b0383811660448084019190915283518084039091018152606490920183526020820180516001600160e01b031663d547741f60e01b17815292518251600094928816939282918083835b6020831061181d5780518252601f1990920191602091820191016117fe565b6001836020036101000a0380198251168184511680821785525050505050509050019150506000604051808303816000865af19150503d806000811461187f576040519150601f19603f3d011682016040523d82523d6000602084013e611884565b606091505b5050905080610c5a576040805162461bcd60e51b815260206004820152601c60248201527f5374616b65314c6f6769633a207265766f6b65526f6c65206661696c00000000604482015290519081900360640190fd5b6005546001600160a01b031681565b600082815260086020526040812061190190836127a8565b90505b92915050565b600082815260086020526040812061190190836127b4565b61193a6000805160206129fb8339815191523361190a565b611965576040805162461bcd60e51b8152602060048201526000602482015290519081900360440190fd5b600054604080516306b7e2bd60e41b8152600481018990526001600160a01b03888116602483015291519190921691636b7e2bd0916044808301926020929190829003018186803b1580156119b957600080fd5b505afa1580156119cd573d6000803e3d6000fd5b505050506040513d60208110156119e357600080fd5b5051611a32576040805162461bcd60e51b815260206004820152601960248201527814dd185ad94c531bd9da58ce881d5b9d985b1a5915985d5b1d603a1b604482015290519081900360640190fd5b60008590506000806000836001600160a01b0316639a88be2f6040518163ffffffff1660e01b81526004016101206040518083038186803b158015611a7657600080fd5b505afa158015611a8a573d6000803e3d6000fd5b505050506040513d601f19601f82011682018060405250610120811015611ab057600080fd5b506060810151815191945092506080840191506001600160a01b03888116911614611b22576040805162461bcd60e51b815260206004820181905260248201527f5374616b65314c6f6769633a2064696666657272656e7420706179746f6b656e604482015290519081900360640190fd5b60408051608081019091526001600160a01b03891681528a90600090602081018683602090810291909101516001600160a01b0390811683528e169082015260400186600160200201516001600160a01b0390811690915260015460008054604080516060810190915294955090939183169263115c289b92899287921690808a88602002015181526020018a600160038110611bbb57fe5b602002015181526020018f8152506040518563ffffffff1660e01b81526004018085815260200184600460200280838360005b83811015611c06578181015183820152602001611bee565b50505050905001836001600160a01b0316815260200182600360200280838360005b83811015611c40578181015183820152602001611c28565b50505050905001945050505050602060405180830381600087803b158015611c6757600080fd5b505af1158015611c7b573d6000803e3d6000fd5b505050506040513d6020811015611c9157600080fd5b505190506001600160a01b038116611ceb576040805162461bcd60e51b815260206004820152601860248201527714dd185ad94c531bd9da58ce8819195c1b1bde4819985a5b60421b604482015290519081900360640190fd5b8b6001600160a01b0316630962ccfc89838c6040518463ffffffff1660e01b81526004018080602001846001600160a01b03168152602001838152602001828103825285818151815260200191508051906020019080838360005b83811015611d5e578181015183820152602001611d46565b50505050905090810190601f168015611d8b5780820380516001836020036101000a031916815260200191505b50945050505050600060405180830381600087803b158015611dac57600080fd5b505af1158015611dc0573d6000803e3d6000fd5b50506000805460408051638dea8fd760e01b81526001600160a01b038d8116600483015287811660248301529151919092169450638dea8fd793506044808301939282900301818387803b158015611e1757600080fd5b505af1158015611e2b573d6000803e3d6000fd5b50506040805186815290516001600160a01b0380861694508b1692507f986901f0d96e90b5c91902591c07dcd3d45e263c7f0464d31e8bf425281723299181900360200190a350505050505050505050505050565b826001600160a01b031663065c431383836040518363ffffffff1660e01b815260040180836001600160a01b0316815260200182815260200192505050600060405180830381600087803b158015610fc657600080fd5b826001600160a01b031663ce681ce683836040518363ffffffff1660e01b815260040180836001600160a01b0316815260200182815260200192505050600060405180830381600087803b158015610fc657600080fd5b611f466000805160206129fb8339815191523361190a565b611f71576040805162461bcd60e51b8152602060048201526000602482015290519081900360440190fd5b806001600160a01b038116611fbb576040805162461bcd60e51b81526020600482015260186024820152600080516020612a1b833981519152604482015290519081900360640190fd5b60015460408051635529fcbf60e11b81526001600160a01b0385811660048301529151919092169163aa53f97e91602480830192600092919082900301818387803b158015610a5757600080fd5b6120216000805160206129fb8339815191523361190a565b61204c576040805162461bcd60e51b8152602060048201526000602482015290519081900360440190fd5b806001600160a01b038116612096576040805162461bcd60e51b81526020600482015260186024820152600080516020612a1b833981519152604482015290519081900360640190fd5b60015460408051632aa96ebd60e21b81526001600160a01b0385811660048301529151919092169163aaa5baf491602480830192600092919082900301818387803b158015610a5757600080fd5b6060816001600160a01b038116612130576040805162461bcd60e51b81526020600482015260186024820152600080516020612a1b833981519152604482015290519081900360640190fd5b826001600160a01b031663d007e8966040518163ffffffff1660e01b815260040160006040518083038186803b158015610d5757600080fd5b6000818152600860205260408120611904906127c9565b6004546001600160a01b031681565b816001600160a01b031663730464a9826040518263ffffffff1660e01b815260040180826001600160a01b03168152602001915050600060405180830381600087803b158015610a5757600080fd5b6000828152600860205260409020600201546121fc90610a916126d2565b610cb75760405162461bcd60e51b81526004018080602001828103825260308152602001806129cb6030913960400191505060405180910390fd5b61224f6000805160206129fb8339815191523361190a565b61227a576040805162461bcd60e51b8152602060048201526000602482015290519081900360440190fd5b806001600160a01b0381166122c4576040805162461bcd60e51b81526020600482015260186024820152600080516020612a1b833981519152604482015290519081900360640190fd5b6001546040805163d6e9ac7960e01b81526001600160a01b0385811660048301529151919092169163d6e9ac7991602480830192600092919082900301818387803b158015610a5757600080fd5b6001546001600160a01b031681565b6123396000805160206129fb8339815191523361190a565b612364576040805162461bcd60e51b8152602060048201526000602482015290519081900360440190fd5b846001600160a01b0381166123ae576040805162461bcd60e51b81526020600482015260186024820152600080516020612a1b833981519152604482015290519081900360640190fd5b846001600160a01b0381166123f8576040805162461bcd60e51b81526020600482015260186024820152600080516020612a1b833981519152604482015290519081900360640190fd5b846001600160a01b038116612442576040805162461bcd60e51b81526020600482015260186024820152600080516020612a1b833981519152604482015290519081900360640190fd5b846001600160a01b03811661248c576040805162461bcd60e51b81526020600482015260186024820152600080516020612a1b833981519152604482015290519081900360640190fd5b6124958c610e26565b61249e8b61250d565b6124a78a610fe3565b5050600280546001600160a01b03199081166001600160a01b03998a161790915560048054821697891697909717909655505060058054851693861693909317909255600680548416918516919091179055600780549092169216919091179055505050565b6125256000805160206129fb8339815191523361190a565b612550576040805162461bcd60e51b8152602060048201526000602482015290519081900360440190fd5b806001600160a01b03811661259a576040805162461bcd60e51b81526020600482015260186024820152600080516020612a1b833981519152604482015290519081900360640190fd5b600080546001600160a01b0384166001600160a01b0319909116811790915560408051918252517f1b73fe1ecba53ead6c18771cac7251c2a85d3644da053e4898de7ace3173d35b9181900360200190a15050565b6126076000805160206129fb8339815191523361190a565b612632576040805162461bcd60e51b8152602060048201526000602482015290519081900360440190fd5b336001600160a01b038216141561268a576040805162461bcd60e51b815260206004820152601760248201527629ba30b5b298a637b3b4b19d1039b0b6b29037bbb732b960491b604482015290519081900360640190fd5b6126a26000805160206129fb83398151915282610a73565b6126ba6000805160206129fb833981519152336121de565b50565b6000611901836001600160a01b0384166127d4565b3390565b60008281526008602052604090206126ee90826126bd565b15610adb576126fb6126d2565b6001600160a01b0316816001600160a01b0316837f2f8788117e7eff1d82e926ec794901d17c78024a50270940304540a733656f0d60405160405180910390a45050565b6000828152600860205260409020612757908261281e565b15610adb576127646126d2565b6001600160a01b0316816001600160a01b0316837ff6391f5c32d9c69d2a47ea670b442974b53935d1edc7fd64eb21e047a839171b60405160405180910390a45050565b60006119018383612833565b6000611901836001600160a01b038416612897565b6000611904826128af565b60006127e08383612897565b61281657508154600181810184556000848152602080822090930184905584548482528286019093526040902091909155611904565b506000611904565b6000611901836001600160a01b0384166128b3565b815460009082106128755760405162461bcd60e51b815260040180806020018281038252602281526020018061297a6022913960400191505060405180910390fd5b82600001828154811061288457fe5b9060005260206000200154905092915050565b60009081526001919091016020526040902054151590565b5490565b6000818152600183016020526040812054801561296f57835460001980830191908101906000908790839081106128e657fe5b906000526020600020015490508087600001848154811061290357fe5b60009182526020808320909101929092558281526001898101909252604090209084019055865487908061293357fe5b60019003818190600052602060002001600090559055866001016000878152602001908152602001600020600090556001945050505050611904565b600091505061190456fe456e756d657261626c655365743a20696e646578206f7574206f6620626f756e6473416363657373436f6e74726f6c3a2073656e646572206d75737420626520616e2061646d696e20746f206772616e74416363657373436f6e74726f6c3a2073656e646572206d75737420626520616e2061646d696e20746f207265766f6b65df8b4c520ffe197c5343c6f5aec59570151ef9a492f2c624fd45ddde6135ec425374616b65314c6f6769633a7a65726f20616464726573730000000000000000416363657373436f6e74726f6c3a2063616e206f6e6c792072656e6f756e636520726f6c657320666f722073656c66a2646970667358221220f56f6201f9bddad09f442ddd0f68f4bf3cf3412de05af041e4744ceeb783aa7a64736f6c63430007060033df8b4c520ffe197c5343c6f5aec59570151ef9a492f2c624fd45ddde6135ec42",
  "immutableReferences": {},
  "source": "// SPDX-License-Identifier: MIT\npragma solidity ^0.7.6;\n\nimport \"../interfaces/IStake1Logic.sol\";\nimport {IProxy} from \"../interfaces/IProxy.sol\";\nimport {IStakeFactory} from \"../interfaces/IStakeFactory.sol\";\nimport {IStakeRegistry} from \"../interfaces/IStakeRegistry.sol\";\nimport {IStake1Vault} from \"../interfaces/IStake1Vault.sol\";\nimport {IStakeTONTokamak} from \"../interfaces/IStakeTONTokamak.sol\";\n\nimport \"@openzeppelin/contracts/access/AccessControl.sol\";\nimport \"./StakeProxyStorage.sol\";\n\n/// @title The logic of TOS Plaform\n/// @notice Admin can createVault, createStakeContract.\n/// User can excute the tokamak staking function of each contract through this logic.\ncontract Stake1Logic is StakeProxyStorage, AccessControl, IStake1Logic {\n    bytes32 public constant ADMIN_ROLE = keccak256(\"ADMIN\");\n    bytes32 public constant ZERO_HASH =\n        0x0000000000000000000000000000000000000000000000000000000000000000;\n\n    modifier onlyOwner() {\n        require(hasRole(ADMIN_ROLE, msg.sender), \"\");\n        _;\n    }\n\n    modifier nonZero(address _addr) {\n        require(_addr != address(0), \"Stake1Logic:zero address\");\n        _;\n    }\n\n    /// @dev event on create vault\n    /// @param vault the vault address created\n    /// @param paytoken the token used for staking by user\n    /// @param cap  allocated reward amount\n    event CreatedVault(address indexed vault, address paytoken, uint256 cap);\n\n    /// @dev event on create stake contract in vault\n    /// @param vault the vault address\n    /// @param stakeContract the stake contract address created\n    /// @param phase the phase of TOS platform\n    event CreatedStakeContract(\n        address indexed vault,\n        address indexed stakeContract,\n        uint256 phase\n    );\n\n    /// @dev event on sale-closed\n    /// @param vault the vault address\n    event ClosedSale(address indexed vault);\n\n    /// @dev event on setting stake registry\n    /// @param stakeRegistry the stakeRegistry address\n    event SetStakeRegistry(address stakeRegistry);\n\n    constructor() {\n        _setRoleAdmin(ADMIN_ROLE, ADMIN_ROLE);\n        _setupRole(ADMIN_ROLE, msg.sender);\n    }\n\n    /// @dev upgrade to the logic of _stakeProxy\n    /// @param _stakeProxy the StakeProxy address, it is stakeContract address in vault.\n    /// @param _implementation new logic address\n    function upgradeStakeTo(address _stakeProxy, address _implementation)\n        external\n        onlyOwner\n    {\n        IProxy(_stakeProxy).upgradeTo(_implementation);\n    }\n\n    /// @dev transfer Ownership\n    /// @param newOwner new owner address\n    function transferOwnership(address newOwner) external onlyOwner {\n        require(msg.sender != newOwner, \"Stake1Logic: same owner\");\n        grantRole(ADMIN_ROLE, newOwner);\n        revokeRole(ADMIN_ROLE, msg.sender);\n    }\n\n    /// @dev grant the role to account in target\n    /// @param target target address\n    /// @param role  byte32 of role\n    /// @param account account address\n    function grantRole(\n        address target,\n        bytes32 role,\n        address account\n    ) external onlyOwner {\n        (bool success, ) =\n            target.call(\n                abi.encodeWithSignature(\n                    \"grantRole(bytes32,address)\",\n                    role,\n                    account\n                )\n            );\n        require(success, \"Stake1Logic: grantRole fail\");\n    }\n\n    /// @dev revoke the role to account in target\n    /// @param target target address\n    /// @param role  byte32 of role\n    /// @param account account address\n    function revokeRole(\n        address target,\n        bytes32 role,\n        address account\n    ) external onlyOwner {\n        (bool success, ) =\n            target.call(\n                abi.encodeWithSignature(\n                    \"revokeRole(bytes32,address)\",\n                    role,\n                    account\n                )\n            );\n        require(success, \"Stake1Logic: revokeRole fail\");\n    }\n\n    /// @dev Sets TOS address\n    /// @param _tos new TOS address\n    function setTOS(address _tos) public onlyOwner nonZero(_tos) {\n        tos = _tos;\n    }\n\n    /// @dev Sets Stake Registry address\n    /// @param _stakeRegistry new StakeRegistry address\n    function setStakeRegistry(address _stakeRegistry)\n        public\n        onlyOwner\n        nonZero(_stakeRegistry)\n    {\n        stakeRegistry = IStakeRegistry(_stakeRegistry);\n        emit SetStakeRegistry(_stakeRegistry);\n    }\n\n    /// @dev Sets StakeFactory address\n    /// @param _stakeFactory new StakeFactory address\n    function setStakeFactory(address _stakeFactory)\n        public\n        onlyOwner\n        nonZero(_stakeFactory)\n    {\n        stakeFactory = IStakeFactory(_stakeFactory);\n    }\n\n    /// @dev Sets StakeTONFactory address\n    /// @param _stakeTONFactory new StakeTONFactory address\n    function setStakeTONFactory(address _stakeTONFactory)\n        public\n        onlyOwner\n        nonZero(_stakeTONFactory)\n    {\n        stakeFactory.setStakeTONFactory(_stakeTONFactory);\n    }\n\n    /// @dev Sets StakeSimpleFactory address\n    /// @param _stakeSimpleFactory new StakeSimpleFactory address\n    function setStakeSimpleFactory(address _stakeSimpleFactory)\n        public\n        onlyOwner\n        nonZero(_stakeSimpleFactory)\n    {\n        stakeFactory.setStakeSimpleFactory(_stakeSimpleFactory);\n    }\n\n    /// @dev Sets StakeDefiFactory address\n    /// @param _stakeDefiFactory new StakeDefiFactory address\n    function setStakeDefiFactory(address _stakeDefiFactory)\n        public\n        onlyOwner\n        nonZero(_stakeDefiFactory)\n    {\n        stakeFactory.setStakeDefiFactory(_stakeDefiFactory);\n    }\n\n    /// @dev Sets StakeVaultFactory address\n    /// @param _stakeVaultFactory new StakeVaultFactory address\n    function setStakeVaultFactory(address _stakeVaultFactory)\n        public\n        onlyOwner\n        nonZero(_stakeVaultFactory)\n    {\n        stakeVaultFactory = IStakeVaultFactory(_stakeVaultFactory);\n    }\n\n    /// Set initial variables\n    /// @param _tos  TOS token address\n    /// @param _stakeRegistry the registry address\n    /// @param _stakeFactory the StakeFactory address\n    /// @param _stakeVaultFactory the StakeVaultFactory address\n    /// @param _ton  TON address in Tokamak\n    /// @param _wton WTON address in Tokamak\n    /// @param _depositManager DepositManager address in Tokamak\n    /// @param _seigManager SeigManager address in Tokamak\n    function setStore(\n        address _tos,\n        address _stakeRegistry,\n        address _stakeFactory,\n        address _stakeVaultFactory,\n        address _ton,\n        address _wton,\n        address _depositManager,\n        address _seigManager\n    )\n        external\n        override\n        onlyOwner\n        nonZero(_stakeVaultFactory)\n        nonZero(_ton)\n        nonZero(_wton)\n        nonZero(_depositManager)\n    {\n        setTOS(_tos);\n        setStakeRegistry(_stakeRegistry);\n        setStakeFactory(_stakeFactory);\n        stakeVaultFactory = IStakeVaultFactory(_stakeVaultFactory);\n\n        ton = _ton;\n        wton = _wton;\n        depositManager = _depositManager;\n        seigManager = _seigManager;\n    }\n\n    /// @dev create vault\n    /// @param _paytoken the token used for staking by user\n    /// @param _cap  allocated reward amount\n    /// @param _saleStartBlock  the start block that can stake by user\n    /// @param _stakeStartBlock the start block that end staking by user and start that can claim reward by user\n    /// @param _phase  phase of TOS platform\n    /// @param _vaultName  vault's name's hash\n    /// @param _stakeType  stakeContract's type, if 0, StakeTON, else if 1 , StakeSimple , else if 2, StakeDefi\n    /// @param _defiAddr  extra defi address , default is zero address\n    function createVault(\n        address _paytoken,\n        uint256 _cap,\n        uint256 _saleStartBlock,\n        uint256 _stakeStartBlock,\n        uint256 _phase,\n        bytes32 _vaultName,\n        uint256 _stakeType,\n        address _defiAddr\n    ) external override onlyOwner nonZero(address(stakeVaultFactory)) {\n        address vault =\n            stakeVaultFactory.create(\n                [tos, _paytoken, address(stakeFactory), _defiAddr],\n                [_stakeType, _cap, _saleStartBlock, _stakeStartBlock],\n                address(this)\n            );\n        require(vault != address(0), \"Stake1Logic: vault is zero\");\n        stakeRegistry.addVault(vault, _phase, _vaultName);\n\n        emit CreatedVault(vault, _paytoken, _cap);\n    }\n\n    /// @dev create stake contract in vault\n    /// @param _phase the phase of TOS platform\n    /// @param _vault  vault's address\n    /// @param token  the reward token's address\n    /// @param paytoken  the token used for staking by user\n    /// @param periodBlock  the period that generate reward\n    /// @param _name  the stake contract's name\n    function createStakeContract(\n        uint256 _phase,\n        address _vault,\n        address token,\n        address paytoken,\n        uint256 periodBlock,\n        string memory _name\n    ) external override onlyOwner {\n        require(\n            stakeRegistry.validVault(_phase, _vault),\n            \"Stake1Logic: unvalidVault\"\n        );\n\n        IStake1Vault vault = IStake1Vault(_vault);\n\n        (\n            address[2] memory addrInfos,\n            ,\n            uint256 stakeType,\n            uint256[3] memory iniInfo,\n            ,\n\n        ) = vault.infos();\n\n        require(paytoken == addrInfos[0], \"Stake1Logic: differrent paytoken\");\n        uint256 phase = _phase;\n        address[4] memory _addr = [token, addrInfos[0], _vault, addrInfos[1]];\n\n        // solhint-disable-next-line max-line-length\n        address _contract =\n            stakeFactory.create(\n                stakeType,\n                _addr,\n                address(stakeRegistry),\n                [iniInfo[0], iniInfo[1], periodBlock]\n            );\n        require(_contract != address(0), \"Stake1Logic: deploy fail\");\n\n        IStake1Vault(_vault).addSubVaultOfStake(_name, _contract, periodBlock);\n        stakeRegistry.addStakeContract(address(vault), _contract);\n\n        emit CreatedStakeContract(address(vault), _contract, phase);\n    }\n\n    /// @dev create stake contract in vault\n    /// @param _phase phase of TOS platform\n    /// @param _vaultName vault's name's hash\n    /// @param _vault vault's address\n    function addVault(\n        uint256 _phase,\n        bytes32 _vaultName,\n        address _vault\n    ) external override onlyOwner {\n        stakeRegistry.addVault(_vault, _phase, _vaultName);\n    }\n\n    /// @dev end to staking by user\n    /// @param _vault vault's address\n    function closeSale(address _vault) external override {\n        IStake1Vault(_vault).closeSale();\n\n        emit ClosedSale(_vault);\n    }\n\n    /// @dev list of stakeContracts in vault\n    /// @param _vault vault's address\n    function stakeContractsOfVault(address _vault)\n        external\n        view\n        override\n        nonZero(_vault)\n        returns (address[] memory)\n    {\n        return IStake1Vault(_vault).stakeAddressesAll();\n    }\n\n    /// @dev list of vaults in _phaseIndex phase\n    /// @param _phaseIndex the phase number\n    function vaultsOfPhase(uint256 _phaseIndex)\n        external\n        view\n        override\n        returns (address[] memory)\n    {\n        return stakeRegistry.phasesAll(_phaseIndex);\n    }\n\n    /// @dev stake in tokamak's layer2\n    /// @param _stakeContract the stakeContract's address\n    /// @param _layer2 the layer2 address in Tokamak\n    /// @param stakeAmount the amount that stake to layer2\n    function tokamakStaking(\n        address _stakeContract,\n        address _layer2,\n        uint256 stakeAmount\n    ) external override {\n        IStakeTONTokamak(_stakeContract).tokamakStaking(_layer2, stakeAmount);\n    }\n\n    /// @dev Requests unstaking the amount WTON in tokamak's layer2\n    /// @param _stakeContract the stakeContract's address\n    /// @param _layer2 the layer2 address in Tokamak\n    /// @param amount the amount of unstaking\n    function tokamakRequestUnStaking(\n        address _stakeContract,\n        address _layer2,\n        uint256 amount\n    ) external override {\n        IStakeTONTokamak(_stakeContract).tokamakRequestUnStaking(\n            _layer2,\n            amount\n        );\n    }\n\n    /// @dev Requests unstaking the amount of all  in tokamak's layer2\n    /// @param _stakeContract the stakeContract's address\n    /// @param _layer2 the layer2 address in Tokamak\n    function tokamakRequestUnStakingAll(address _stakeContract, address _layer2)\n        external\n        override\n    {\n        IStakeTONTokamak(_stakeContract).tokamakRequestUnStakingAll(_layer2);\n    }\n\n    /// @dev Processes unstaking the requested unstaking amount in tokamak's layer2\n    /// @param _stakeContract the stakeContract's address\n    /// @param _layer2 the layer2 address in Tokamak\n    function tokamakProcessUnStaking(address _stakeContract, address _layer2)\n        external\n        override\n    {\n        IStakeTONTokamak(_stakeContract).tokamakProcessUnStaking(_layer2);\n    }\n\n    /// @dev Swap TON to TOS using uniswap v3\n    /// @dev this function used in StakeTON ( stakeType=0 )\n    /// @param _stakeContract the stakeContract's address\n    /// @param amountIn the input amount\n    /// @param amountOutMinimum the minimun output amount\n    /// @param deadline deadline\n    /// @param sqrtPriceLimitX96 sqrtPriceLimitX96\n    /// @param _type the function type, if 0, use exactInputSingle function, else if, use exactInput function\n    function exchangeWTONtoTOS(\n        address _stakeContract,\n        uint256 amountIn,\n        uint256 amountOutMinimum,\n        uint256 deadline,\n        uint160 sqrtPriceLimitX96,\n        uint256 _type\n    ) external override returns (uint256 amountOut) {\n        return\n            IStakeTONTokamak(_stakeContract).exchangeWTONtoTOS(\n                amountIn,\n                amountOutMinimum,\n                deadline,\n                sqrtPriceLimitX96,\n                _type\n            );\n    }\n\n    /// @dev Swap TON to TOS using uniswap v2\n    /// @dev this function used in StakeTON ( stakeType=0 )\n    /// @param _stakeContract the stakeContract's address\n    /// @param amountIn the input amount\n    /// @param amountOutMinimum the minimun output amount\n    /// @param deadline deadline\n    /// @param _type the function type, if 0, use exactInputSingle function, else if, use exactInput function\n    function exchangeWTONtoTOSv2(\n        address _stakeContract,\n        uint256 amountIn,\n        uint256 amountOutMinimum,\n        uint256 deadline,\n        uint256 _type\n    ) external returns (uint256 amountOut) {\n        return\n            IStakeTONTokamak(_stakeContract).exchangeWTONtoTOSv2(\n                amountIn,\n                amountOutMinimum,\n                deadline,\n                _type\n            );\n    }\n\n    /// @dev Get addresses of vaults of index phase\n    /// @param _phase the pahse number\n    function vaultsOfPahse(uint256 _phase)\n        external\n        view\n        override\n        nonZero(address(stakeRegistry))\n        returns (address[] memory)\n    {\n        return stakeRegistry.phasesAll(_phase);\n    }\n}\n",
  "sourcePath": "/Users/zena/ico2.0/ico20-contracts/contracts/stake/Stake1Logic.sol",
  "compiler": {
    "name": "solc",
    "version": "0.7.6+commit.7338295f.Emscripten.clang"
  },
  "schemaVersion": "3.3.4",
  "updatedAt": "2021-06-15T10:41:10.300Z",
  "devdoc": {
    "events": {
      "ClosedSale(address)": {
        "details": "event on sale-closed",
        "params": {
          "vault": "the vault address"
        }
      },
      "CreatedStakeContract(address,address,uint256)": {
        "details": "event on create stake contract in vault",
        "params": {
          "phase": "the phase of TOS platform",
          "stakeContract": "the stake contract address created",
          "vault": "the vault address"
        }
      },
      "CreatedVault(address,address,uint256)": {
        "details": "event on create vault",
        "params": {
          "cap": "allocated reward amount",
          "paytoken": "the token used for staking by user",
          "vault": "the vault address created"
        }
      },
      "SetStakeRegistry(address)": {
        "details": "event on setting stake registry",
        "params": {
          "stakeRegistry": "the stakeRegistry address"
        }
      }
    },
    "kind": "dev",
    "methods": {
      "addVault(uint256,bytes32,address)": {
        "details": "create stake contract in vault",
        "params": {
          "_phase": "phase of TOS platform",
          "_vault": "vault's address",
          "_vaultName": "vault's name's hash"
        }
      },
      "closeSale(address)": {
        "details": "end to staking by user",
        "params": {
          "_vault": "vault's address"
        }
      },
      "createStakeContract(uint256,address,address,address,uint256,string)": {
        "details": "create stake contract in vault",
        "params": {
          "_name": "the stake contract's name",
          "_phase": "the phase of TOS platform",
          "_vault": "vault's address",
          "paytoken": "the token used for staking by user",
          "periodBlock": "the period that generate reward",
          "token": "the reward token's address"
        }
      },
      "createVault(address,uint256,uint256,uint256,uint256,bytes32,uint256,address)": {
        "details": "create vault",
        "params": {
          "_cap": "allocated reward amount",
          "_defiAddr": "extra defi address , default is zero address",
          "_paytoken": "the token used for staking by user",
          "_phase": "phase of TOS platform",
          "_saleStartBlock": "the start block that can stake by user",
          "_stakeStartBlock": "the start block that end staking by user and start that can claim reward by user",
          "_stakeType": "stakeContract's type, if 0, StakeTON, else if 1 , StakeSimple , else if 2, StakeDefi",
          "_vaultName": "vault's name's hash"
        }
      },
      "exchangeWTONtoTOS(address,uint256,uint256,uint256,uint160,uint256)": {
        "details": "Swap TON to TOS using uniswap v3this function used in StakeTON ( stakeType=0 )",
        "params": {
          "_stakeContract": "the stakeContract's address",
          "_type": "the function type, if 0, use exactInputSingle function, else if, use exactInput function",
          "amountIn": "the input amount",
          "amountOutMinimum": "the minimun output amount",
          "deadline": "deadline",
          "sqrtPriceLimitX96": "sqrtPriceLimitX96"
        }
      },
      "exchangeWTONtoTOSv2(address,uint256,uint256,uint256,uint256)": {
        "details": "Swap TON to TOS using uniswap v2this function used in StakeTON ( stakeType=0 )",
        "params": {
          "_stakeContract": "the stakeContract's address",
          "_type": "the function type, if 0, use exactInputSingle function, else if, use exactInput function",
          "amountIn": "the input amount",
          "amountOutMinimum": "the minimun output amount",
          "deadline": "deadline"
        }
      },
      "getRoleAdmin(bytes32)": {
        "details": "Returns the admin role that controls `role`. See {grantRole} and {revokeRole}. To change a role's admin, use {_setRoleAdmin}."
      },
      "getRoleMember(bytes32,uint256)": {
        "details": "Returns one of the accounts that have `role`. `index` must be a value between 0 and {getRoleMemberCount}, non-inclusive. Role bearers are not sorted in any particular way, and their ordering may change at any point. WARNING: When using {getRoleMember} and {getRoleMemberCount}, make sure you perform all queries on the same block. See the following https://forum.openzeppelin.com/t/iterating-over-elements-on-enumerableset-in-openzeppelin-contracts/2296[forum post] for more information."
      },
      "getRoleMemberCount(bytes32)": {
        "details": "Returns the number of accounts that have `role`. Can be used together with {getRoleMember} to enumerate all bearers of a role."
      },
      "grantRole(address,bytes32,address)": {
        "details": "grant the role to account in target",
        "params": {
          "account": "account address",
          "role": "byte32 of role",
          "target": "target address"
        }
      },
      "grantRole(bytes32,address)": {
        "details": "Grants `role` to `account`. If `account` had not been already granted `role`, emits a {RoleGranted} event. Requirements: - the caller must have ``role``'s admin role."
      },
      "hasRole(bytes32,address)": {
        "details": "Returns `true` if `account` has been granted `role`."
      },
      "renounceRole(bytes32,address)": {
        "details": "Revokes `role` from the calling account. Roles are often managed via {grantRole} and {revokeRole}: this function's purpose is to provide a mechanism for accounts to lose their privileges if they are compromised (such as when a trusted device is misplaced). If the calling account had been granted `role`, emits a {RoleRevoked} event. Requirements: - the caller must be `account`."
      },
      "revokeRole(address,bytes32,address)": {
        "details": "revoke the role to account in target",
        "params": {
          "account": "account address",
          "role": "byte32 of role",
          "target": "target address"
        }
      },
      "revokeRole(bytes32,address)": {
        "details": "Revokes `role` from `account`. If `account` had been granted `role`, emits a {RoleRevoked} event. Requirements: - the caller must have ``role``'s admin role."
      },
      "setStakeDefiFactory(address)": {
        "details": "Sets StakeDefiFactory address",
        "params": {
          "_stakeDefiFactory": "new StakeDefiFactory address"
        }
      },
      "setStakeFactory(address)": {
        "details": "Sets StakeFactory address",
        "params": {
          "_stakeFactory": "new StakeFactory address"
        }
      },
      "setStakeRegistry(address)": {
        "details": "Sets Stake Registry address",
        "params": {
          "_stakeRegistry": "new StakeRegistry address"
        }
      },
      "setStakeSimpleFactory(address)": {
        "details": "Sets StakeSimpleFactory address",
        "params": {
          "_stakeSimpleFactory": "new StakeSimpleFactory address"
        }
      },
      "setStakeTONFactory(address)": {
        "details": "Sets StakeTONFactory address",
        "params": {
          "_stakeTONFactory": "new StakeTONFactory address"
        }
      },
      "setStakeVaultFactory(address)": {
        "details": "Sets StakeVaultFactory address",
        "params": {
          "_stakeVaultFactory": "new StakeVaultFactory address"
        }
      },
      "setStore(address,address,address,address,address,address,address,address)": {
        "params": {
          "_depositManager": "DepositManager address in Tokamak",
          "_seigManager": "SeigManager address in Tokamak",
          "_stakeFactory": "the StakeFactory address",
          "_stakeRegistry": "the registry address",
          "_stakeVaultFactory": "the StakeVaultFactory address",
          "_ton": "TON address in Tokamak",
          "_tos": "TOS token address",
          "_wton": "WTON address in Tokamak"
        }
      },
      "setTOS(address)": {
        "details": "Sets TOS address",
        "params": {
          "_tos": "new TOS address"
        }
      },
      "stakeContractsOfVault(address)": {
        "details": "list of stakeContracts in vault",
        "params": {
          "_vault": "vault's address"
        }
      },
      "tokamakProcessUnStaking(address,address)": {
        "details": "Processes unstaking the requested unstaking amount in tokamak's layer2",
        "params": {
          "_layer2": "the layer2 address in Tokamak",
          "_stakeContract": "the stakeContract's address"
        }
      },
      "tokamakRequestUnStaking(address,address,uint256)": {
        "details": "Requests unstaking the amount WTON in tokamak's layer2",
        "params": {
          "_layer2": "the layer2 address in Tokamak",
          "_stakeContract": "the stakeContract's address",
          "amount": "the amount of unstaking"
        }
      },
      "tokamakRequestUnStakingAll(address,address)": {
        "details": "Requests unstaking the amount of all  in tokamak's layer2",
        "params": {
          "_layer2": "the layer2 address in Tokamak",
          "_stakeContract": "the stakeContract's address"
        }
      },
      "tokamakStaking(address,address,uint256)": {
        "details": "stake in tokamak's layer2",
        "params": {
          "_layer2": "the layer2 address in Tokamak",
          "_stakeContract": "the stakeContract's address",
          "stakeAmount": "the amount that stake to layer2"
        }
      },
      "transferOwnership(address)": {
        "details": "transfer Ownership",
        "params": {
          "newOwner": "new owner address"
        }
      },
      "upgradeStakeTo(address,address)": {
        "details": "upgrade to the logic of _stakeProxy",
        "params": {
          "_implementation": "new logic address",
          "_stakeProxy": "the StakeProxy address, it is stakeContract address in vault."
        }
      },
      "vaultsOfPahse(uint256)": {
        "details": "Get addresses of vaults of index phase",
        "params": {
          "_phase": "the pahse number"
        }
      },
      "vaultsOfPhase(uint256)": {
        "details": "list of vaults in _phaseIndex phase",
        "params": {
          "_phaseIndex": "the phase number"
        }
      }
    },
    "title": "The logic of TOS Plaform",
    "version": 1
  },
  "userdoc": {
    "kind": "user",
    "methods": {
      "setStore(address,address,address,address,address,address,address,address)": {
        "notice": "Set initial variables"
      }
    },
    "notice": "Admin can createVault, createStakeContract. User can excute the tokamak staking function of each contract through this logic.",
    "version": 1
  }
}