{
  "contractName": "StakeTONStorage",
  "abi": [
    {
      "inputs": [],
      "name": "defiStatus",
      "outputs": [
        {
          "internalType": "uint256",
          "name": "",
          "type": "uint256"
        }
      ],
      "stateMutability": "view",
      "type": "function"
    },
    {
      "inputs": [],
      "name": "depositManager",
      "outputs": [
        {
          "internalType": "address",
          "name": "",
          "type": "address"
        }
      ],
      "stateMutability": "view",
      "type": "function"
    },
    {
      "inputs": [],
      "name": "endBlock",
      "outputs": [
        {
          "internalType": "uint256",
          "name": "",
          "type": "uint256"
        }
      ],
      "stateMutability": "view",
      "type": "function"
    },
    {
      "inputs": [],
      "name": "finalBalanceTON",
      "outputs": [
        {
          "internalType": "uint256",
          "name": "",
          "type": "uint256"
        }
      ],
      "stateMutability": "view",
      "type": "function"
    },
    {
      "inputs": [],
      "name": "finalBalanceWTON",
      "outputs": [
        {
          "internalType": "uint256",
          "name": "",
          "type": "uint256"
        }
      ],
      "stateMutability": "view",
      "type": "function"
    },
    {
      "inputs": [],
      "name": "fromTokamak",
      "outputs": [
        {
          "internalType": "uint256",
          "name": "",
          "type": "uint256"
        }
      ],
      "stateMutability": "view",
      "type": "function"
    },
    {
      "inputs": [
        {
          "internalType": "address",
          "name": "user",
          "type": "address"
        }
      ],
      "name": "getUserStaked",
      "outputs": [
        {
          "internalType": "uint256",
          "name": "amount",
          "type": "uint256"
        },
        {
          "internalType": "uint256",
          "name": "claimedBlock",
          "type": "uint256"
        },
        {
          "internalType": "uint256",
          "name": "claimedAmount",
          "type": "uint256"
        },
        {
          "internalType": "uint256",
          "name": "releasedBlock",
          "type": "uint256"
        },
        {
          "internalType": "uint256",
          "name": "releasedAmount",
          "type": "uint256"
        },
        {
          "internalType": "uint256",
          "name": "releasedFLDAmount",
          "type": "uint256"
        },
        {
          "internalType": "bool",
          "name": "released",
          "type": "bool"
        }
      ],
      "stateMutability": "view",
      "type": "function"
    },
    {
      "inputs": [],
      "name": "paytoken",
      "outputs": [
        {
          "internalType": "address",
          "name": "",
          "type": "address"
        }
      ],
      "stateMutability": "view",
      "type": "function"
    },
    {
      "inputs": [],
      "name": "requestNum",
      "outputs": [
        {
          "internalType": "uint256",
          "name": "",
          "type": "uint256"
        }
      ],
      "stateMutability": "view",
      "type": "function"
    },
    {
      "inputs": [],
      "name": "rewardClaimedTotal",
      "outputs": [
        {
          "internalType": "uint256",
          "name": "",
          "type": "uint256"
        }
      ],
      "stateMutability": "view",
      "type": "function"
    },
    {
      "inputs": [],
      "name": "saleStartBlock",
      "outputs": [
        {
          "internalType": "uint256",
          "name": "",
          "type": "uint256"
        }
      ],
      "stateMutability": "view",
      "type": "function"
    },
    {
      "inputs": [],
      "name": "seigManager",
      "outputs": [
        {
          "internalType": "address",
          "name": "",
          "type": "address"
        }
      ],
      "stateMutability": "view",
      "type": "function"
    },
    {
      "inputs": [],
      "name": "stakeRegistry",
      "outputs": [
        {
          "internalType": "address",
          "name": "",
          "type": "address"
        }
      ],
      "stateMutability": "view",
      "type": "function"
    },
    {
      "inputs": [],
      "name": "startBlock",
      "outputs": [
        {
          "internalType": "uint256",
          "name": "",
          "type": "uint256"
        }
      ],
      "stateMutability": "view",
      "type": "function"
    },
    {
      "inputs": [],
      "name": "swapProxy",
      "outputs": [
        {
          "internalType": "address",
          "name": "",
          "type": "address"
        }
      ],
      "stateMutability": "view",
      "type": "function"
    },
    {
      "inputs": [],
      "name": "swappedAmountFLD",
      "outputs": [
        {
          "internalType": "uint256",
          "name": "",
          "type": "uint256"
        }
      ],
      "stateMutability": "view",
      "type": "function"
    },
    {
      "inputs": [],
      "name": "toTokamak",
      "outputs": [
        {
          "internalType": "uint256",
          "name": "",
          "type": "uint256"
        }
      ],
      "stateMutability": "view",
      "type": "function"
    },
    {
      "inputs": [],
      "name": "toUniswapWTON",
      "outputs": [
        {
          "internalType": "uint256",
          "name": "",
          "type": "uint256"
        }
      ],
      "stateMutability": "view",
      "type": "function"
    },
    {
      "inputs": [],
      "name": "tokamakLayer2",
      "outputs": [
        {
          "internalType": "address",
          "name": "",
          "type": "address"
        }
      ],
      "stateMutability": "view",
      "type": "function"
    },
    {
      "inputs": [],
      "name": "token",
      "outputs": [
        {
          "internalType": "address",
          "name": "",
          "type": "address"
        }
      ],
      "stateMutability": "view",
      "type": "function"
    },
    {
      "inputs": [],
      "name": "ton",
      "outputs": [
        {
          "internalType": "address",
          "name": "",
          "type": "address"
        }
      ],
      "stateMutability": "view",
      "type": "function"
    },
    {
      "inputs": [],
      "name": "totalStakedAmount",
      "outputs": [
        {
          "internalType": "uint256",
          "name": "",
          "type": "uint256"
        }
      ],
      "stateMutability": "view",
      "type": "function"
    },
    {
      "inputs": [],
      "name": "totalStakers",
      "outputs": [
        {
          "internalType": "uint256",
          "name": "",
          "type": "uint256"
        }
      ],
      "stateMutability": "view",
      "type": "function"
    },
    {
      "inputs": [
        {
          "internalType": "address",
          "name": "",
          "type": "address"
        }
      ],
      "name": "userStaked",
      "outputs": [
        {
          "internalType": "uint256",
          "name": "amount",
          "type": "uint256"
        },
        {
          "internalType": "uint256",
          "name": "claimedBlock",
          "type": "uint256"
        },
        {
          "internalType": "uint256",
          "name": "claimedAmount",
          "type": "uint256"
        },
        {
          "internalType": "uint256",
          "name": "releasedBlock",
          "type": "uint256"
        },
        {
          "internalType": "uint256",
          "name": "releasedAmount",
          "type": "uint256"
        },
        {
          "internalType": "uint256",
          "name": "releasedFLDAmount",
          "type": "uint256"
        },
        {
          "internalType": "bool",
          "name": "released",
          "type": "bool"
        }
      ],
      "stateMutability": "view",
      "type": "function"
    },
    {
      "inputs": [],
      "name": "vault",
      "outputs": [
        {
          "internalType": "address",
          "name": "",
          "type": "address"
        }
      ],
      "stateMutability": "view",
      "type": "function"
    },
    {
      "inputs": [],
      "name": "withdrawFlag",
      "outputs": [
        {
          "internalType": "bool",
          "name": "",
          "type": "bool"
        }
      ],
      "stateMutability": "view",
      "type": "function"
    },
    {
      "inputs": [],
      "name": "wton",
      "outputs": [
        {
          "internalType": "address",
          "name": "",
          "type": "address"
        }
      ],
      "stateMutability": "view",
      "type": "function"
    }
  ],
  "bytecode": "0x608060405234801561001057600080fd5b506104c0806100206000396000f3fe608060405234801561001057600080fd5b50600436106101795760003560e01c806386989038116100d9578063dac3fc3f11610087578063dac3fc3f146102b8578063e09974b9146102de578063e58e2747146102e6578063e6a7bc87146102ee578063fbfa77cf146102f6578063fc0c546a146102fe578063fd7fa4601461030657610179565b806386989038146102285780638d62d9491461023057806392ea3b4c14610238578063a938a60514610240578063acc3a93914610248578063b2d4d6a3146102a8578063cc48b947146102b057610179565b8063567e98f911610136578063567e98f9146101dc57806368304835146101e45780636c7ac9d8146101ec5780636e7cf534146101f45780636ec4be90146102105780636fb7f55814610218578063722853261461022057610179565b806305871b781461017e578063083c6323146101985780630ac8e0f3146101a057806320027275146101a857806343b0934a146101b057806348cd4cb1146101d4575b600080fd5b61018661030e565b60408051918252519081900360200190f35b610186610314565b61018661031a565b610186610320565b6101b8610326565b604080516001600160a01b039092168252519081900360200190f35b610186610335565b61018661033b565b6101b8610341565b6101b8610350565b6101fc61035f565b604080519115158252519081900360200190f35b6101b8610368565b6101b8610377565b610186610386565b61018661038c565b6101b8610392565b6101b86103a1565b6101866103b0565b61026e6004803603602081101561025e57600080fd5b50356001600160a01b03166103b6565b604080519788526020880196909652868601949094526060860192909252608085015260a0840152151560c0830152519081900360e00190f35b6101866103f6565b6101b86103fc565b61026e600480360360208110156102ce57600080fd5b50356001600160a01b031661040b565b610186610454565b61018661045a565b610186610460565b6101b8610466565b6101b8610475565b610186610484565b60145481565b60065481565b60135481565b60045481565b6002546001600160a01b031681565b60055481565b60085481565b6001546001600160a01b031681565b600f546001600160a01b031681565b601a5460ff1681565b6010546001600160a01b031681565b600e546001600160a01b031681565b60185481565b600a5481565b600d546001600160a01b031681565b6011546001600160a01b031681565b60155481565b6009602052600090815260409020805460018201546002830154600384015460048501546005860154600690960154949593949293919290919060ff1687565b60075481565b600c546001600160a01b031681565b6001600160a01b03166000908152600960205260409020805460018201546002830154600384015460048501546005860154600690960154949693959294919390929160ff1690565b60195481565b60165481565b60175481565b6003546001600160a01b031681565b6000546001600160a01b031681565b6012548156fea2646970667358221220c902900b64afe2828d68f570a7dec238aabe2405ff606f8969b564c80a84afba64736f6c63430007060033",
  "immutableReferences": {},
  "source": "//SPDX-License-Identifier: Unlicense\npragma solidity ^0.7.6;\n\n//import \"../interfaces/IStakeTONStorage.sol\";\nimport \"./Stake1Storage.sol\";\n\n/// @title the storage of StakeTONStorage\ncontract StakeTONStorage is Stake1Storage {\n    /// @dev TON address\n    address public ton;\n\n    /// @dev WTON address\n    address public wton;\n\n    /// @dev SeigManager address\n    address public seigManager;\n\n    /// @dev DepositManager address\n    address public depositManager;\n\n    /// @dev swapProxy address\n    address public swapProxy;\n\n    /// @dev the layer2 address in Tokamak\n    address public tokamakLayer2;\n\n    /// @dev the accumulated TON amount staked into tokamak , in wei unit\n    uint256 public toTokamak;\n\n    /// @dev the accumulated WTON amount unstaked from tokamak , in ray unit\n    uint256 public fromTokamak;\n\n    /// @dev the accumulated WTON amount swapped using uniswap , in ray unit\n    uint256 public toUniswapWTON;\n\n    /// @dev the FLD balance in this contract\n    uint256 public swappedAmountFLD;\n\n    /// @dev the TON balance in this contract when withdraw at first\n    uint256 public finalBalanceTON;\n\n    /// @dev the WTON balance in this contract when withdraw at first\n    uint256 public finalBalanceWTON;\n\n    /// @dev defi status\n    uint256 public defiStatus;\n\n    /// @dev the number of requesting unstaking to tokamak , when process unstaking, reset zero.\n    uint256 public requestNum;\n\n    /// @dev the withdraw flag, when withdraw at first, set true\n    bool public withdrawFlag;\n}\n",
  "sourcePath": "/Users/zena/ico2.0/ico20-contracts/contracts/stake/StakeTONStorage.sol",
  "compiler": {
    "name": "solc",
    "version": "0.7.6+commit.7338295f.Emscripten.clang"
  },
  "schemaVersion": "3.3.4",
  "updatedAt": "2021-06-04T11:18:58.972Z",
  "devdoc": {
    "kind": "dev",
    "methods": {
      "getUserStaked(address)": {
        "details": "user's staked information"
      }
    },
    "stateVariables": {
      "defiStatus": {
        "details": "defi status"
      },
      "depositManager": {
        "details": "DepositManager address"
      },
      "finalBalanceTON": {
        "details": "the TON balance in this contract when withdraw at first"
      },
      "finalBalanceWTON": {
        "details": "the WTON balance in this contract when withdraw at first"
      },
      "fromTokamak": {
        "details": "the accumulated WTON amount unstaked from tokamak , in ray unit"
      },
      "requestNum": {
        "details": "the number of requesting unstaking to tokamak , when process unstaking, reset zero."
      },
      "seigManager": {
        "details": "SeigManager address"
      },
      "swapProxy": {
        "details": "swapProxy address"
      },
      "swappedAmountFLD": {
        "details": "the FLD balance in this contract"
      },
      "toTokamak": {
        "details": "the accumulated TON amount staked into tokamak , in wei unit"
      },
      "toUniswapWTON": {
        "details": "the accumulated WTON amount swapped using uniswap , in ray unit"
      },
      "tokamakLayer2": {
        "details": "the layer2 address in Tokamak"
      },
      "ton": {
        "details": "TON address"
      },
      "withdrawFlag": {
        "details": "the withdraw flag, when withdraw at first, set true"
      },
      "wton": {
        "details": "WTON address"
      }
    },
    "title": "the storage of StakeTONStorage",
    "version": 1
  },
  "userdoc": {
    "kind": "user",
    "methods": {},
    "version": 1
  }
}