{
  "contractName": "Stake1Logic",
  "abi": [
    {
      "inputs": [],
      "stateMutability": "nonpayable",
      "type": "constructor"
    },
    {
      "anonymous": false,
      "inputs": [
        {
          "indexed": true,
          "internalType": "address",
          "name": "vault",
          "type": "address"
        }
      ],
      "name": "ClosedSale",
      "type": "event"
    },
    {
      "anonymous": false,
      "inputs": [
        {
          "indexed": true,
          "internalType": "address",
          "name": "vault",
          "type": "address"
        },
        {
          "indexed": true,
          "internalType": "address",
          "name": "stakeContract",
          "type": "address"
        },
        {
          "indexed": false,
          "internalType": "uint256",
          "name": "phase",
          "type": "uint256"
        }
      ],
      "name": "CreatedStakeContract",
      "type": "event"
    },
    {
      "anonymous": false,
      "inputs": [
        {
          "indexed": true,
          "internalType": "address",
          "name": "vault",
          "type": "address"
        },
        {
          "indexed": false,
          "internalType": "address",
          "name": "paytoken",
          "type": "address"
        },
        {
          "indexed": false,
          "internalType": "uint256",
          "name": "cap",
          "type": "uint256"
        }
      ],
      "name": "CreatedVault",
      "type": "event"
    },
    {
      "anonymous": false,
      "inputs": [
        {
          "indexed": true,
          "internalType": "bytes32",
          "name": "role",
          "type": "bytes32"
        },
        {
          "indexed": true,
          "internalType": "bytes32",
          "name": "previousAdminRole",
          "type": "bytes32"
        },
        {
          "indexed": true,
          "internalType": "bytes32",
          "name": "newAdminRole",
          "type": "bytes32"
        }
      ],
      "name": "RoleAdminChanged",
      "type": "event"
    },
    {
      "anonymous": false,
      "inputs": [
        {
          "indexed": true,
          "internalType": "bytes32",
          "name": "role",
          "type": "bytes32"
        },
        {
          "indexed": true,
          "internalType": "address",
          "name": "account",
          "type": "address"
        },
        {
          "indexed": true,
          "internalType": "address",
          "name": "sender",
          "type": "address"
        }
      ],
      "name": "RoleGranted",
      "type": "event"
    },
    {
      "anonymous": false,
      "inputs": [
        {
          "indexed": true,
          "internalType": "bytes32",
          "name": "role",
          "type": "bytes32"
        },
        {
          "indexed": true,
          "internalType": "address",
          "name": "account",
          "type": "address"
        },
        {
          "indexed": true,
          "internalType": "address",
          "name": "sender",
          "type": "address"
        }
      ],
      "name": "RoleRevoked",
      "type": "event"
    },
    {
      "anonymous": false,
      "inputs": [
        {
          "indexed": false,
          "internalType": "address",
          "name": "stakeRegistry",
          "type": "address"
        }
      ],
      "name": "SetStakeRegistry",
      "type": "event"
    },
    {
      "inputs": [],
      "name": "ADMIN_ROLE",
      "outputs": [
        {
          "internalType": "bytes32",
          "name": "",
          "type": "bytes32"
        }
      ],
      "stateMutability": "view",
      "type": "function"
    },
    {
      "inputs": [],
      "name": "DEFAULT_ADMIN_ROLE",
      "outputs": [
        {
          "internalType": "bytes32",
          "name": "",
          "type": "bytes32"
        }
      ],
      "stateMutability": "view",
      "type": "function"
    },
    {
      "inputs": [],
      "name": "ZERO_HASH",
      "outputs": [
        {
          "internalType": "bytes32",
          "name": "",
          "type": "bytes32"
        }
      ],
      "stateMutability": "view",
      "type": "function"
    },
    {
      "inputs": [],
      "name": "depositManager",
      "outputs": [
        {
          "internalType": "address",
          "name": "",
          "type": "address"
        }
      ],
      "stateMutability": "view",
      "type": "function"
    },
    {
      "inputs": [
        {
          "internalType": "bytes32",
          "name": "role",
          "type": "bytes32"
        }
      ],
      "name": "getRoleAdmin",
      "outputs": [
        {
          "internalType": "bytes32",
          "name": "",
          "type": "bytes32"
        }
      ],
      "stateMutability": "view",
      "type": "function"
    },
    {
      "inputs": [
        {
          "internalType": "bytes32",
          "name": "role",
          "type": "bytes32"
        },
        {
          "internalType": "uint256",
          "name": "index",
          "type": "uint256"
        }
      ],
      "name": "getRoleMember",
      "outputs": [
        {
          "internalType": "address",
          "name": "",
          "type": "address"
        }
      ],
      "stateMutability": "view",
      "type": "function"
    },
    {
      "inputs": [
        {
          "internalType": "bytes32",
          "name": "role",
          "type": "bytes32"
        }
      ],
      "name": "getRoleMemberCount",
      "outputs": [
        {
          "internalType": "uint256",
          "name": "",
          "type": "uint256"
        }
      ],
      "stateMutability": "view",
      "type": "function"
    },
    {
      "inputs": [
        {
          "internalType": "bytes32",
          "name": "role",
          "type": "bytes32"
        },
        {
          "internalType": "address",
          "name": "account",
          "type": "address"
        }
      ],
      "name": "hasRole",
      "outputs": [
        {
          "internalType": "bool",
          "name": "",
          "type": "bool"
        }
      ],
      "stateMutability": "view",
      "type": "function"
    },
    {
      "inputs": [
        {
          "internalType": "bytes32",
          "name": "role",
          "type": "bytes32"
        },
        {
          "internalType": "address",
          "name": "account",
          "type": "address"
        }
      ],
      "name": "renounceRole",
      "outputs": [],
      "stateMutability": "nonpayable",
      "type": "function"
    },
    {
      "inputs": [],
      "name": "seigManager",
      "outputs": [
        {
          "internalType": "address",
          "name": "",
          "type": "address"
        }
      ],
      "stateMutability": "view",
      "type": "function"
    },
    {
      "inputs": [],
      "name": "stakeFactory",
      "outputs": [
        {
          "internalType": "contract IStakeFactory",
          "name": "",
          "type": "address"
        }
      ],
      "stateMutability": "view",
      "type": "function"
    },
    {
      "inputs": [],
      "name": "stakeRegistry",
      "outputs": [
        {
          "internalType": "contract IStakeRegistry",
          "name": "",
          "type": "address"
        }
      ],
      "stateMutability": "view",
      "type": "function"
    },
    {
      "inputs": [],
      "name": "stakeVaultFactory",
      "outputs": [
        {
          "internalType": "contract IStakeVaultFactory",
          "name": "",
          "type": "address"
        }
      ],
      "stateMutability": "view",
      "type": "function"
    },
    {
      "inputs": [],
      "name": "ton",
      "outputs": [
        {
          "internalType": "address",
          "name": "",
          "type": "address"
        }
      ],
      "stateMutability": "view",
      "type": "function"
    },
    {
      "inputs": [],
      "name": "tos",
      "outputs": [
        {
          "internalType": "address",
          "name": "",
          "type": "address"
        }
      ],
      "stateMutability": "view",
      "type": "function"
    },
    {
      "inputs": [],
      "name": "wton",
      "outputs": [
        {
          "internalType": "address",
          "name": "",
          "type": "address"
        }
      ],
      "stateMutability": "view",
      "type": "function"
    },
    {
      "inputs": [
        {
          "internalType": "address",
          "name": "_stakeProxy",
          "type": "address"
        },
        {
          "internalType": "address",
          "name": "_implementation",
          "type": "address"
        }
      ],
      "name": "upgradeStakeTo",
      "outputs": [],
      "stateMutability": "nonpayable",
      "type": "function"
    },
    {
      "inputs": [
        {
          "internalType": "address",
          "name": "newOwner",
          "type": "address"
        }
      ],
      "name": "transferOwnership",
      "outputs": [],
      "stateMutability": "nonpayable",
      "type": "function"
    },
    {
      "inputs": [
        {
          "internalType": "bytes32",
          "name": "role",
          "type": "bytes32"
        },
        {
          "internalType": "address",
          "name": "account",
          "type": "address"
        }
      ],
      "name": "grantRole",
      "outputs": [],
      "stateMutability": "nonpayable",
      "type": "function"
    },
    {
      "inputs": [
        {
          "internalType": "address",
          "name": "target",
          "type": "address"
        },
        {
          "internalType": "bytes32",
          "name": "role",
          "type": "bytes32"
        },
        {
          "internalType": "address",
          "name": "account",
          "type": "address"
        }
      ],
      "name": "grantRole",
      "outputs": [],
      "stateMutability": "nonpayable",
      "type": "function"
    },
    {
      "inputs": [
        {
          "internalType": "address",
          "name": "target",
          "type": "address"
        },
        {
          "internalType": "bytes32",
          "name": "role",
          "type": "bytes32"
        },
        {
          "internalType": "address",
          "name": "account",
          "type": "address"
        }
      ],
      "name": "revokeRole",
      "outputs": [],
      "stateMutability": "nonpayable",
      "type": "function"
    },
    {
      "inputs": [
        {
          "internalType": "bytes32",
          "name": "role",
          "type": "bytes32"
        },
        {
          "internalType": "address",
          "name": "account",
          "type": "address"
        }
      ],
      "name": "revokeRole",
      "outputs": [],
      "stateMutability": "nonpayable",
      "type": "function"
    },
    {
      "inputs": [
        {
          "internalType": "address",
          "name": "_tos",
          "type": "address"
        }
      ],
      "name": "setTOS",
      "outputs": [],
      "stateMutability": "nonpayable",
      "type": "function"
    },
    {
      "inputs": [
        {
          "internalType": "address",
          "name": "_stakeRegistry",
          "type": "address"
        }
      ],
      "name": "setStakeRegistry",
      "outputs": [],
      "stateMutability": "nonpayable",
      "type": "function"
    },
    {
      "inputs": [
        {
          "internalType": "address",
          "name": "_stakeFactory",
          "type": "address"
        }
      ],
      "name": "setStakeFactory",
      "outputs": [],
      "stateMutability": "nonpayable",
      "type": "function"
    },
    {
      "inputs": [
        {
          "internalType": "uint256",
          "name": "_stakeType",
          "type": "uint256"
        },
        {
          "internalType": "address",
          "name": "_factory",
          "type": "address"
        }
      ],
      "name": "setFactoryByStakeType",
      "outputs": [],
      "stateMutability": "nonpayable",
      "type": "function"
    },
    {
      "inputs": [
        {
          "internalType": "address",
          "name": "_stakeVaultFactory",
          "type": "address"
        }
      ],
      "name": "setStakeVaultFactory",
      "outputs": [],
      "stateMutability": "nonpayable",
      "type": "function"
    },
    {
      "inputs": [
        {
          "internalType": "address",
          "name": "_tos",
          "type": "address"
        },
        {
          "internalType": "address",
          "name": "_stakeRegistry",
          "type": "address"
        },
        {
          "internalType": "address",
          "name": "_stakeFactory",
          "type": "address"
        },
        {
          "internalType": "address",
          "name": "_stakeVaultFactory",
          "type": "address"
        },
        {
          "internalType": "address",
          "name": "_ton",
          "type": "address"
        },
        {
          "internalType": "address",
          "name": "_wton",
          "type": "address"
        },
        {
          "internalType": "address",
          "name": "_depositManager",
          "type": "address"
        },
        {
          "internalType": "address",
          "name": "_seigManager",
          "type": "address"
        }
      ],
      "name": "setStore",
      "outputs": [],
      "stateMutability": "nonpayable",
      "type": "function"
    },
    {
      "inputs": [
        {
          "internalType": "address",
          "name": "_paytoken",
          "type": "address"
        },
        {
          "internalType": "uint256",
          "name": "_cap",
          "type": "uint256"
        },
        {
          "internalType": "uint256",
          "name": "_saleStartBlock",
          "type": "uint256"
        },
        {
          "internalType": "uint256",
          "name": "_stakeStartBlock",
          "type": "uint256"
        },
        {
          "internalType": "uint256",
          "name": "_phase",
          "type": "uint256"
        },
        {
          "internalType": "bytes32",
          "name": "_vaultName",
          "type": "bytes32"
        },
        {
          "internalType": "uint256",
          "name": "_stakeType",
          "type": "uint256"
        },
        {
          "internalType": "address",
          "name": "_defiAddr",
          "type": "address"
        }
      ],
      "name": "createVault",
      "outputs": [],
      "stateMutability": "nonpayable",
      "type": "function"
    },
    {
      "inputs": [
        {
          "internalType": "uint256",
          "name": "_phase",
          "type": "uint256"
        },
        {
          "internalType": "address",
          "name": "_vault",
          "type": "address"
        },
        {
          "internalType": "address",
          "name": "token",
          "type": "address"
        },
        {
          "internalType": "address",
          "name": "paytoken",
          "type": "address"
        },
        {
          "internalType": "uint256",
          "name": "periodBlock",
          "type": "uint256"
        },
        {
          "internalType": "string",
          "name": "_name",
          "type": "string"
        }
      ],
      "name": "createStakeContract",
      "outputs": [],
      "stateMutability": "nonpayable",
      "type": "function"
    },
    {
      "inputs": [
        {
          "internalType": "uint256",
          "name": "_phase",
          "type": "uint256"
        },
        {
          "internalType": "bytes32",
          "name": "_vaultName",
          "type": "bytes32"
        },
        {
          "internalType": "address",
          "name": "_vault",
          "type": "address"
        }
      ],
      "name": "addVault",
      "outputs": [],
      "stateMutability": "nonpayable",
      "type": "function"
    },
    {
      "inputs": [
        {
          "internalType": "address",
          "name": "_vault",
          "type": "address"
        }
      ],
      "name": "closeSale",
      "outputs": [],
      "stateMutability": "nonpayable",
      "type": "function"
    },
    {
      "inputs": [
        {
          "internalType": "address",
          "name": "_vault",
          "type": "address"
        }
      ],
      "name": "stakeContractsOfVault",
      "outputs": [
        {
          "internalType": "address[]",
          "name": "",
          "type": "address[]"
        }
      ],
      "stateMutability": "view",
      "type": "function"
    },
    {
      "inputs": [
        {
          "internalType": "uint256",
          "name": "_phase",
          "type": "uint256"
        }
      ],
      "name": "vaultsOfPhase",
      "outputs": [
        {
          "internalType": "address[]",
          "name": "",
          "type": "address[]"
        }
      ],
      "stateMutability": "view",
      "type": "function"
    },
    {
      "inputs": [
        {
          "internalType": "address",
          "name": "_stakeContract",
          "type": "address"
        },
        {
          "internalType": "address",
          "name": "_layer2",
          "type": "address"
        },
        {
          "internalType": "uint256",
          "name": "stakeAmount",
          "type": "uint256"
        }
      ],
      "name": "tokamakStaking",
      "outputs": [],
      "stateMutability": "nonpayable",
      "type": "function"
    },
    {
      "inputs": [
        {
          "internalType": "address",
          "name": "_stakeContract",
          "type": "address"
        },
        {
          "internalType": "address",
          "name": "_layer2",
          "type": "address"
        },
        {
          "internalType": "uint256",
          "name": "amount",
          "type": "uint256"
        }
      ],
      "name": "tokamakRequestUnStaking",
      "outputs": [],
      "stateMutability": "nonpayable",
      "type": "function"
    },
    {
      "inputs": [
        {
          "internalType": "address",
          "name": "_stakeContract",
          "type": "address"
        },
        {
          "internalType": "address",
          "name": "_layer2",
          "type": "address"
        }
      ],
      "name": "tokamakRequestUnStakingAll",
      "outputs": [],
      "stateMutability": "nonpayable",
      "type": "function"
    },
    {
      "inputs": [
        {
          "internalType": "address",
          "name": "_stakeContract",
          "type": "address"
        },
        {
          "internalType": "address",
          "name": "_layer2",
          "type": "address"
        }
      ],
      "name": "tokamakProcessUnStaking",
      "outputs": [],
      "stateMutability": "nonpayable",
      "type": "function"
    },
    {
      "inputs": [
        {
          "internalType": "address",
          "name": "_stakeContract",
          "type": "address"
        },
        {
          "internalType": "uint256",
          "name": "amountIn",
          "type": "uint256"
        },
        {
          "internalType": "uint256",
          "name": "amountOutMinimum",
          "type": "uint256"
        },
        {
          "internalType": "uint256",
          "name": "deadline",
          "type": "uint256"
        },
        {
          "internalType": "uint160",
          "name": "sqrtPriceLimitX96",
          "type": "uint160"
        },
        {
          "internalType": "uint256",
          "name": "_type",
          "type": "uint256"
        }
      ],
      "name": "exchangeWTONtoTOS",
      "outputs": [
        {
          "internalType": "uint256",
          "name": "amountOut",
          "type": "uint256"
        }
      ],
      "stateMutability": "nonpayable",
      "type": "function"
    },
    {
      "inputs": [
        {
          "internalType": "address",
          "name": "_stakeContract",
          "type": "address"
        },
        {
          "internalType": "uint256",
          "name": "amountIn",
          "type": "uint256"
        },
        {
          "internalType": "uint256",
          "name": "amountOutMinimum",
          "type": "uint256"
        },
        {
          "internalType": "uint256",
          "name": "deadline",
          "type": "uint256"
        },
        {
          "internalType": "uint256",
          "name": "_type",
          "type": "uint256"
        }
      ],
      "name": "exchangeWTONtoTOSv2",
      "outputs": [
        {
          "internalType": "uint256",
          "name": "amountOut",
          "type": "uint256"
        }
      ],
      "stateMutability": "nonpayable",
      "type": "function"
    }
  ],
  "bytecode": "0x60806040523480156200001157600080fd5b506200002d6000805160206200299e833981519152806200004e565b620000486000805160206200299e83398151915233620000a0565b620001b6565b600082815260086020526040808220600201549051839285917fbd79b86ffe0ab8e8776151514217cd7cacd52c909f66475c3af44e129f0b00ff9190a460009182526008602052604090912060020155565b620000ac8282620000b0565b5050565b6000828152600860209081526040909120620000d7918390620023f66200012b821b17901c565b15620000ac57620000e76200014b565b6001600160a01b0316816001600160a01b0316837f2f8788117e7eff1d82e926ec794901d17c78024a50270940304540a733656f0d60405160405180910390a45050565b600062000142836001600160a01b0384166200014f565b90505b92915050565b3390565b60006200015d83836200019e565b620001955750815460018181018455600084815260208082209093018490558454848252828601909352604090209190915562000145565b50600062000145565b60009081526001919091016020526040902054151590565b6127d880620001c66000396000f3fe608060405234801561001057600080fd5b50600436106102485760003560e01c8063797acec31161013b578063a217fddf116100b8578063d547741f1161007c578063d547741f1461084d578063dd196f1814610879578063e144cd4514610881578063e3b05f2f146108e0578063f2fde38b1461090657610248565b8063a217fddf1461038e578063bdfcd5f3146107d4578063ca15c873146107fa578063cc48b94714610817578063ce3ac6b81461081f57610248565b80639010d07c116100ff5780639010d07c1461063457806391d1485414610657578063965cfe7b146106975780639e9ca178146107685780639ed452c11461079e57610248565b8063797acec31461053b5780637a7c90cf146105a857806389f395de146105ee5780638c63a1a1146105f65780638d62d9491461062c57610248565b806355885a59116101c95780636c7ac9d81161018d5780636c7ac9d8146104d15780636fb7f558146104d957806375b238fc146104e157806378e999b9146104e9578063794913701461051557610248565b806355885a59146103ee578063671b54da146104415780636761882b1461047f57806368304835146104a55780636af8da27146104c957610248565b806340c2ce861161021057806340c2ce861461033a57806349c4542d146103605780634ce76a3c1461038e5780635294fcef14610396578063535ae1d5146103c857610248565b8063248a9ca31461024d5780632a36a2031461027c5780632f2ff15d146102ac5780633290f93a146102d857806336568abe1461030e575b600080fd5b61026a6004803603602081101561026357600080fd5b503561092c565b60408051918252519081900360200190f35b6102aa6004803603604081101561029257600080fd5b506001600160a01b0381358116916020013516610941565b005b6102aa600480360360408110156102c257600080fd5b50803590602001356001600160a01b03166109ef565b6102aa600480360360608110156102ee57600080fd5b506001600160a01b03813581169160208101359160409091013516610a5b565b6102aa6004803603604081101561032457600080fd5b50803590602001356001600160a01b0316610bdc565b6102aa6004803603602081101561035057600080fd5b50356001600160a01b0316610c3d565b6102aa6004803603604081101561037657600080fd5b506001600160a01b0381358116916020013516610ced565b61026a610d3c565b6102aa600480360360608110156103ac57600080fd5b50803590602081013590604001356001600160a01b0316610d41565b6102aa600480360360208110156103de57600080fd5b50356001600160a01b0316610dfa565b6102aa600480360361010081101561040557600080fd5b506001600160a01b03813581169160208101359160408201359160608101359160808201359160a08101359160c08201359160e0013516610eaa565b61026a600480360360a081101561045757600080fd5b506001600160a01b038135169060208101359060408101359060608101359060800135611191565b6102aa6004803603602081101561049557600080fd5b50356001600160a01b0316611227565b6104ad6112d7565b604080516001600160a01b039092168252519081900360200190f35b6104ad6112e6565b6104ad6112f5565b6104ad611304565b61026a611313565b6102aa600480360360408110156104ff57600080fd5b50803590602001356001600160a01b0316611325565b6102aa6004803603602081101561052b57600080fd5b50356001600160a01b0316611409565b6105586004803603602081101561055157600080fd5b5035611493565b60408051602080825283518183015283519192839290830191858101910280838360005b8381101561059457818101518382015260200161057c565b505050509050019250505060405180910390f35b61026a600480360360c08110156105be57600080fd5b506001600160a01b0381358116916020810135916040820135916060810135916080820135169060a001356115ac565b6104ad61164b565b6102aa6004803603606081101561060c57600080fd5b506001600160a01b0381358116916020810135916040909101351661165a565b6104ad6117d5565b6104ad6004803603604081101561064a57600080fd5b50803590602001356117e4565b6106836004803603604081101561066d57600080fd5b50803590602001356001600160a01b0316611805565b604080519115158252519081900360200190f35b6102aa600480360360c08110156106ad57600080fd5b8135916001600160a01b036020820135811692604083013582169260608101359092169160808101359181019060c0810160a0820135600160201b8111156106f457600080fd5b82018360208201111561070657600080fd5b803590602001918460018302840111600160201b8311171561072757600080fd5b91908080601f01602080910402602001604051908101604052809392919081815260200183838082843760009201919091525092955061181d945050505050565b6102aa6004803603606081101561077e57600080fd5b506001600160a01b03813581169160208101359091169060400135611d7b565b6102aa600480360360608110156107b457600080fd5b506001600160a01b03813581169160208101359091169060400135611dd2565b610558600480360360208110156107ea57600080fd5b50356001600160a01b0316611e29565b61026a6004803603602081101561081057600080fd5b5035611f7d565b6104ad611f94565b6102aa6004803603604081101561083557600080fd5b506001600160a01b0381358116916020013516611fa3565b6102aa6004803603604081101561086357600080fd5b50803590602001356001600160a01b0316611ff2565b6104ad61204b565b6102aa600480360361010081101561089857600080fd5b506001600160a01b038135811691602081013582169160408201358116916060810135821691608082013581169160a081013582169160c082013581169160e001351661205a565b6102aa600480360360208110156108f657600080fd5b50356001600160a01b0316612246565b6102aa6004803603602081101561091c57600080fd5b50356001600160a01b0316612328565b60009081526008602052604090206002015490565b61095960008051602061273483398151915233611805565b610984576040805162461bcd60e51b8152602060048201526000602482015290519081900360440190fd5b816001600160a01b0316633659cfe6826040518263ffffffff1660e01b815260040180826001600160a01b03168152602001915050600060405180830381600087803b1580156109d357600080fd5b505af11580156109e7573d6000803e3d6000fd5b505050505050565b600082815260086020526040902060020154610a1290610a0d61240b565b611805565b610a4d5760405162461bcd60e51b815260040180806020018281038252602f8152602001806126d5602f913960400191505060405180910390fd5b610a57828261240f565b5050565b610a7360008051602061273483398151915233611805565b610a9e576040805162461bcd60e51b8152602060048201526000602482015290519081900360440190fd5b60408051602481018490526001600160a01b0383811660448084019190915283518084039091018152606490920183526020820180516001600160e01b0316632f2ff15d60e01b17815292518251600094928816939282918083835b60208310610b195780518252601f199092019160209182019101610afa565b6001836020036101000a0380198251168184511680821785525050505050509050019150506000604051808303816000865af19150503d8060008114610b7b576040519150601f19603f3d011682016040523d82523d6000602084013e610b80565b606091505b5050905080610bd6576040805162461bcd60e51b815260206004820152601b60248201527f5374616b65314c6f6769633a206772616e74526f6c65206661696c0000000000604482015290519081900360640190fd5b50505050565b610be461240b565b6001600160a01b0316816001600160a01b031614610c335760405162461bcd60e51b815260040180806020018281038252602f815260200180612774602f913960400191505060405180910390fd5b610a578282612478565b610c5560008051602061273483398151915233611805565b610c80576040805162461bcd60e51b8152602060048201526000602482015290519081900360440190fd5b806001600160a01b038116610cca576040805162461bcd60e51b81526020600482015260186024820152600080516020612754833981519152604482015290519081900360640190fd5b50600380546001600160a01b0319166001600160a01b0392909216919091179055565b816001600160a01b03166371def0b3826040518263ffffffff1660e01b815260040180826001600160a01b03168152602001915050600060405180830381600087803b1580156109d357600080fd5b600081565b610d5960008051602061273483398151915233611805565b610d84576040805162461bcd60e51b8152602060048201526000602482015290519081900360440190fd5b60008054604080516377e4fba360e11b81526001600160a01b03858116600483015260248201889052604482018790529151919092169263efc9f746926064808201939182900301818387803b158015610ddd57600080fd5b505af1158015610df1573d6000803e3d6000fd5b50505050505050565b610e1260008051602061273483398151915233611805565b610e3d576040805162461bcd60e51b8152602060048201526000602482015290519081900360440190fd5b806001600160a01b038116610e87576040805162461bcd60e51b81526020600482015260186024820152600080516020612754833981519152604482015290519081900360640190fd5b50600180546001600160a01b0319166001600160a01b0392909216919091179055565b610ec260008051602061273483398151915233611805565b610eed576040805162461bcd60e51b8152602060048201526000602482015290519081900360440190fd5b6002546001600160a01b031680610f39576040805162461bcd60e51b81526020600482015260186024820152600080516020612754833981519152604482015290519081900360640190fd5b60025460408051608080820183526003546001600160a01b0390811683528d8116602080850191909152600154821684860152878216606080860191909152855180850187528a81529182018f90528186018e905281018c9052935163479848ed60e11b81526000959190911693638f3091da939290913091600490910190819085908083838c5b83811015610fd9578181015183820152602001610fc1565b5050505090500183600460200280838360005b83811015611004578181015183820152602001610fec565b50505050905001826001600160a01b031681526020019350505050602060405180830381600087803b15801561103957600080fd5b505af115801561104d573d6000803e3d6000fd5b505050506040513d602081101561106357600080fd5b505190506001600160a01b0381166110c2576040805162461bcd60e51b815260206004820152601a60248201527f5374616b65314c6f6769633a207661756c74206973207a65726f000000000000604482015290519081900360640190fd5b60008054604080516377e4fba360e11b81526001600160a01b038581166004830152602482018b9052604482018a90529151919092169263efc9f746926064808201939182900301818387803b15801561111b57600080fd5b505af115801561112f573d6000803e3d6000fd5b50505050806001600160a01b03167f9e0e84720f13c322e117ed1e67a8c53d21ec4b3b7c35c1dd1728dc7cab64f0968b8b60405180836001600160a01b031681526020018281526020019250505060405180910390a250505050505050505050565b6000856001600160a01b03166356dcfd38868686866040518563ffffffff1660e01b815260040180858152602001848152602001838152602001828152602001945050505050602060405180830381600087803b1580156111f157600080fd5b505af1158015611205573d6000803e3d6000fd5b505050506040513d602081101561121b57600080fd5b50519695505050505050565b61123f60008051602061273483398151915233611805565b61126a576040805162461bcd60e51b8152602060048201526000602482015290519081900360440190fd5b806001600160a01b0381166112b4576040805162461bcd60e51b81526020600482015260186024820152600080516020612754833981519152604482015290519081900360640190fd5b50600280546001600160a01b0319166001600160a01b0392909216919091179055565b6000546001600160a01b031681565b6002546001600160a01b031681565b6006546001600160a01b031681565b6007546001600160a01b031681565b60008051602061273483398151915281565b61133d60008051602061273483398151915233611805565b611368576040805162461bcd60e51b8152602060048201526000602482015290519081900360440190fd5b6001546001600160a01b0316806113b4576040805162461bcd60e51b81526020600482015260186024820152600080516020612754833981519152604482015290519081900360640190fd5b600154604080516378e999b960e01b8152600481018690526001600160a01b038581166024830152915191909216916378e999b991604480830192600092919082900301818387803b158015610ddd57600080fd5b806001600160a01b031663ee55efee6040518163ffffffff1660e01b8152600401600060405180830381600087803b15801561144457600080fd5b505af1158015611458573d6000803e3d6000fd5b50506040516001600160a01b03841692507fae40eec9b07492483019ae6e884ce6e581109fbb8c38cc434d41fd02b9d689139150600090a250565b600080546040805163a95031f160e01b81526004810185905290516060936001600160a01b039093169263a95031f19260248082019391829003018186803b1580156114de57600080fd5b505afa1580156114f2573d6000803e3d6000fd5b505050506040513d6000823e601f3d908101601f19168201604052602081101561151b57600080fd5b8101908080516040519392919084600160201b82111561153a57600080fd5b90830190602082018581111561154f57600080fd5b82518660208202830111600160201b8211171561156b57600080fd5b82525081516020918201928201910280838360005b83811015611598578181015183820152602001611580565b505050509050016040525050509050919050565b6040805163f0cdfa5360e01b81526004810187905260248101869052604481018590526001600160a01b03848116606483015260848201849052915160009289169163f0cdfa539160a480830192602092919082900301818787803b15801561161457600080fd5b505af1158015611628573d6000803e3d6000fd5b505050506040513d602081101561163e57600080fd5b5051979650505050505050565b6003546001600160a01b031681565b61167260008051602061273483398151915233611805565b61169d576040805162461bcd60e51b8152602060048201526000602482015290519081900360440190fd5b60408051602481018490526001600160a01b0383811660448084019190915283518084039091018152606490920183526020820180516001600160e01b031663d547741f60e01b17815292518251600094928816939282918083835b602083106117185780518252601f1990920191602091820191016116f9565b6001836020036101000a0380198251168184511680821785525050505050509050019150506000604051808303816000865af19150503d806000811461177a576040519150601f19603f3d011682016040523d82523d6000602084013e61177f565b606091505b5050905080610bd6576040805162461bcd60e51b815260206004820152601c60248201527f5374616b65314c6f6769633a207265766f6b65526f6c65206661696c00000000604482015290519081900360640190fd5b6005546001600160a01b031681565b60008281526008602052604081206117fc90836124e1565b90505b92915050565b60008281526008602052604081206117fc90836124ed565b61183560008051602061273483398151915233611805565b611860576040805162461bcd60e51b8152602060048201526000602482015290519081900360440190fd5b600054604080516306b7e2bd60e41b8152600481018990526001600160a01b03888116602483015291519190921691636b7e2bd0916044808301926020929190829003018186803b1580156118b457600080fd5b505afa1580156118c8573d6000803e3d6000fd5b505050506040513d60208110156118de57600080fd5b505161192d576040805162461bcd60e51b815260206004820152601960248201527814dd185ad94c531bd9da58ce881d5b9d985b1a5915985d5b1d603a1b604482015290519081900360640190fd5b60008590506000806000836001600160a01b0316639a88be2f6040518163ffffffff1660e01b81526004016101206040518083038186803b15801561197157600080fd5b505afa158015611985573d6000803e3d6000fd5b505050506040513d601f19601f820116820180604052506101208110156119ab57600080fd5b506060810151815191945092506080840191506001600160a01b03888116911614611a1d576040805162461bcd60e51b815260206004820181905260248201527f5374616b65314c6f6769633a2064696666657272656e7420706179746f6b656e604482015290519081900360640190fd5b60408051608081019091526001600160a01b03891681528a90600090602081018683602090810291909101516001600160a01b0390811683528e169082015260400186600160200201516001600160a01b0390811690915260015460008054604080516060810190915294955090939183169263115c289b92899287921690808a88602002015181526020018a600160038110611ab657fe5b602002015181526020018f8152506040518563ffffffff1660e01b81526004018085815260200184600460200280838360005b83811015611b01578181015183820152602001611ae9565b50505050905001836001600160a01b0316815260200182600360200280838360005b83811015611b3b578181015183820152602001611b23565b50505050905001945050505050602060405180830381600087803b158015611b6257600080fd5b505af1158015611b76573d6000803e3d6000fd5b505050506040513d6020811015611b8c57600080fd5b505190506001600160a01b038116611be6576040805162461bcd60e51b815260206004820152601860248201527714dd185ad94c531bd9da58ce8819195c1b1bde4819985a5b60421b604482015290519081900360640190fd5b8b6001600160a01b0316630962ccfc89838c6040518463ffffffff1660e01b81526004018080602001846001600160a01b03168152602001838152602001828103825285818151815260200191508051906020019080838360005b83811015611c59578181015183820152602001611c41565b50505050905090810190601f168015611c865780820380516001836020036101000a031916815260200191505b50945050505050600060405180830381600087803b158015611ca757600080fd5b505af1158015611cbb573d6000803e3d6000fd5b50506000805460408051638dea8fd760e01b81526001600160a01b038d8116600483015287811660248301529151919092169450638dea8fd793506044808301939282900301818387803b158015611d1257600080fd5b505af1158015611d26573d6000803e3d6000fd5b50506040805186815290516001600160a01b0380861694508b1692507f986901f0d96e90b5c91902591c07dcd3d45e263c7f0464d31e8bf425281723299181900360200190a350505050505050505050505050565b826001600160a01b031663065c431383836040518363ffffffff1660e01b815260040180836001600160a01b0316815260200182815260200192505050600060405180830381600087803b158015610ddd57600080fd5b826001600160a01b031663ce681ce683836040518363ffffffff1660e01b815260040180836001600160a01b0316815260200182815260200192505050600060405180830381600087803b158015610ddd57600080fd5b6060816001600160a01b038116611e75576040805162461bcd60e51b81526020600482015260186024820152600080516020612754833981519152604482015290519081900360640190fd5b826001600160a01b031663d007e8966040518163ffffffff1660e01b815260040160006040518083038186803b158015611eae57600080fd5b505afa158015611ec2573d6000803e3d6000fd5b505050506040513d6000823e601f3d908101601f191682016040526020811015611eeb57600080fd5b8101908080516040519392919084600160201b821115611f0a57600080fd5b908301906020820185811115611f1f57600080fd5b82518660208202830111600160201b82111715611f3b57600080fd5b82525081516020918201928201910280838360005b83811015611f68578181015183820152602001611f50565b50505050905001604052505050915050919050565b60008181526008602052604081206117ff90612502565b6004546001600160a01b031681565b816001600160a01b031663730464a9826040518263ffffffff1660e01b815260040180826001600160a01b03168152602001915050600060405180830381600087803b1580156109d357600080fd5b60008281526008602052604090206002015461201090610a0d61240b565b610c335760405162461bcd60e51b81526004018080602001828103825260308152602001806127046030913960400191505060405180910390fd5b6001546001600160a01b031681565b61207260008051602061273483398151915233611805565b61209d576040805162461bcd60e51b8152602060048201526000602482015290519081900360440190fd5b846001600160a01b0381166120e7576040805162461bcd60e51b81526020600482015260186024820152600080516020612754833981519152604482015290519081900360640190fd5b846001600160a01b038116612131576040805162461bcd60e51b81526020600482015260186024820152600080516020612754833981519152604482015290519081900360640190fd5b846001600160a01b03811661217b576040805162461bcd60e51b81526020600482015260186024820152600080516020612754833981519152604482015290519081900360640190fd5b846001600160a01b0381166121c5576040805162461bcd60e51b81526020600482015260186024820152600080516020612754833981519152604482015290519081900360640190fd5b6121ce8c610c3d565b6121d78b612246565b6121e08a610dfa565b5050600280546001600160a01b03199081166001600160a01b03998a161790915560048054821697891697909717909655505060058054851693861693909317909255600680548416918516919091179055600780549092169216919091179055505050565b61225e60008051602061273483398151915233611805565b612289576040805162461bcd60e51b8152602060048201526000602482015290519081900360440190fd5b806001600160a01b0381166122d3576040805162461bcd60e51b81526020600482015260186024820152600080516020612754833981519152604482015290519081900360640190fd5b600080546001600160a01b0384166001600160a01b0319909116811790915560408051918252517f1b73fe1ecba53ead6c18771cac7251c2a85d3644da053e4898de7ace3173d35b9181900360200190a15050565b61234060008051602061273483398151915233611805565b61236b576040805162461bcd60e51b8152602060048201526000602482015290519081900360440190fd5b336001600160a01b03821614156123c3576040805162461bcd60e51b815260206004820152601760248201527629ba30b5b298a637b3b4b19d1039b0b6b29037bbb732b960491b604482015290519081900360640190fd5b6123db600080516020612734833981519152826109ef565b6123f360008051602061273483398151915233611ff2565b50565b60006117fc836001600160a01b03841661250d565b3390565b600082815260086020526040902061242790826123f6565b15610a575761243461240b565b6001600160a01b0316816001600160a01b0316837f2f8788117e7eff1d82e926ec794901d17c78024a50270940304540a733656f0d60405160405180910390a45050565b60008281526008602052604090206124909082612557565b15610a575761249d61240b565b6001600160a01b0316816001600160a01b0316837ff6391f5c32d9c69d2a47ea670b442974b53935d1edc7fd64eb21e047a839171b60405160405180910390a45050565b60006117fc838361256c565b60006117fc836001600160a01b0384166125d0565b60006117ff826125e8565b600061251983836125d0565b61254f575081546001818101845560008481526020808220909301849055845484825282860190935260409020919091556117ff565b5060006117ff565b60006117fc836001600160a01b0384166125ec565b815460009082106125ae5760405162461bcd60e51b81526004018080602001828103825260228152602001806126b36022913960400191505060405180910390fd5b8260000182815481106125bd57fe5b9060005260206000200154905092915050565b60009081526001919091016020526040902054151590565b5490565b600081815260018301602052604081205480156126a8578354600019808301919081019060009087908390811061261f57fe5b906000526020600020015490508087600001848154811061263c57fe5b60009182526020808320909101929092558281526001898101909252604090209084019055865487908061266c57fe5b600190038181906000526020600020016000905590558660010160008781526020019081526020016000206000905560019450505050506117ff565b60009150506117ff56fe456e756d657261626c655365743a20696e646578206f7574206f6620626f756e6473416363657373436f6e74726f6c3a2073656e646572206d75737420626520616e2061646d696e20746f206772616e74416363657373436f6e74726f6c3a2073656e646572206d75737420626520616e2061646d696e20746f207265766f6b65df8b4c520ffe197c5343c6f5aec59570151ef9a492f2c624fd45ddde6135ec425374616b65314c6f6769633a7a65726f20616464726573730000000000000000416363657373436f6e74726f6c3a2063616e206f6e6c792072656e6f756e636520726f6c657320666f722073656c66a264697066735822122082abf31089312cef71f43105ead7ea3c754581f703528392d4a0e2af049c205a64736f6c63430007060033df8b4c520ffe197c5343c6f5aec59570151ef9a492f2c624fd45ddde6135ec42",
  "immutableReferences": {},
  "source": "// SPDX-License-Identifier: MIT\npragma solidity ^0.7.6;\n\nimport \"../interfaces/IStake1Logic.sol\";\nimport {IProxy} from \"../interfaces/IProxy.sol\";\nimport {IStakeFactory} from \"../interfaces/IStakeFactory.sol\";\nimport {IStakeRegistry} from \"../interfaces/IStakeRegistry.sol\";\nimport {IStake1Vault} from \"../interfaces/IStake1Vault.sol\";\nimport {IStakeTONTokamak} from \"../interfaces/IStakeTONTokamak.sol\";\n\nimport \"@openzeppelin/contracts/access/AccessControl.sol\";\nimport \"./StakeProxyStorage.sol\";\n\n/// @title The logic of TOS Plaform\n/// @notice Admin can createVault, createStakeContract.\n/// User can excute the tokamak staking function of each contract through this logic.\ncontract Stake1Logic is StakeProxyStorage, AccessControl, IStake1Logic {\n    bytes32 public constant ADMIN_ROLE = keccak256(\"ADMIN\");\n    bytes32 public constant ZERO_HASH =\n        0x0000000000000000000000000000000000000000000000000000000000000000;\n\n    modifier onlyOwner() {\n        require(hasRole(ADMIN_ROLE, msg.sender), \"\");\n        _;\n    }\n\n    modifier nonZero(address _addr) {\n        require(_addr != address(0), \"Stake1Logic:zero address\");\n        _;\n    }\n/*\n    /// @dev event on create vault\n    /// @param vault the vault address created\n    /// @param paytoken the token used for staking by user\n    /// @param cap  allocated reward amount\n    event CreatedVault(address indexed vault, address paytoken, uint256 cap);\n\n    /// @dev event on create stake contract in vault\n    /// @param vault the vault address\n    /// @param stakeContract the stake contract address created\n    /// @param phase the phase of TOS platform\n    event CreatedStakeContract(\n        address indexed vault,\n        address indexed stakeContract,\n        uint256 phase\n    );\n\n    /// @dev event on sale-closed\n    /// @param vault the vault address\n    event ClosedSale(address indexed vault);\n\n    /// @dev event on setting stake registry\n    /// @param stakeRegistry the stakeRegistry address\n    event SetStakeRegistry(address stakeRegistry);\n*/\n\n    constructor() {\n        _setRoleAdmin(ADMIN_ROLE, ADMIN_ROLE);\n        _setupRole(ADMIN_ROLE, msg.sender);\n    }\n\n    /// @dev upgrade to the logic of _stakeProxy\n    /// @param _stakeProxy the StakeProxy address, it is stakeContract address in vault.\n    /// @param _implementation new logic address\n    function upgradeStakeTo(address _stakeProxy, address _implementation)\n        external\n        onlyOwner\n    {\n        IProxy(_stakeProxy).upgradeTo(_implementation);\n    }\n\n    /// @dev transfer Ownership\n    /// @param newOwner new owner address\n    function transferOwnership(address newOwner) external onlyOwner {\n        require(msg.sender != newOwner, \"Stake1Logic: same owner\");\n        grantRole(ADMIN_ROLE, newOwner);\n        revokeRole(ADMIN_ROLE, msg.sender);\n    }\n\n    /// @dev grant the role to account in target\n    /// @param target target address\n    /// @param role  byte32 of role\n    /// @param account account address\n    function grantRole(\n        address target,\n        bytes32 role,\n        address account\n    ) external onlyOwner {\n        (bool success, ) =\n            target.call(\n                abi.encodeWithSignature(\n                    \"grantRole(bytes32,address)\",\n                    role,\n                    account\n                )\n            );\n        require(success, \"Stake1Logic: grantRole fail\");\n    }\n\n    /// @dev revoke the role to account in target\n    /// @param target target address\n    /// @param role  byte32 of role\n    /// @param account account address\n    function revokeRole(\n        address target,\n        bytes32 role,\n        address account\n    ) external onlyOwner {\n        (bool success, ) =\n            target.call(\n                abi.encodeWithSignature(\n                    \"revokeRole(bytes32,address)\",\n                    role,\n                    account\n                )\n            );\n        require(success, \"Stake1Logic: revokeRole fail\");\n    }\n\n    /// @dev Sets TOS address\n    /// @param _tos new TOS address\n    function setTOS(address _tos) public onlyOwner nonZero(_tos) {\n        tos = _tos;\n    }\n\n    /// @dev Sets Stake Registry address\n    /// @param _stakeRegistry new StakeRegistry address\n    function setStakeRegistry(address _stakeRegistry)\n        public\n        onlyOwner\n        nonZero(_stakeRegistry)\n    {\n        stakeRegistry = IStakeRegistry(_stakeRegistry);\n        emit SetStakeRegistry(_stakeRegistry);\n    }\n\n    /// @dev Sets StakeFactory address\n    /// @param _stakeFactory new StakeFactory address\n    function setStakeFactory(address _stakeFactory)\n        public\n        onlyOwner\n        nonZero(_stakeFactory)\n    {\n        stakeFactory = IStakeFactory(_stakeFactory);\n    }\n\n    /// @dev Set factory address by StakeType\n    /// @param _stakeType the stake type , 0:TON, 1: Simple, 2: UniswapV3\n    /// @param _factory the factory address\n    function setFactoryByStakeType(uint256 _stakeType, address _factory)\n        external\n        override\n        onlyOwner\n        nonZero(address(stakeFactory))\n    {\n        stakeFactory.setFactoryByStakeType(_stakeType,_factory);\n    }\n\n    /// @dev Sets StakeVaultFactory address\n    /// @param _stakeVaultFactory new StakeVaultFactory address\n    function setStakeVaultFactory(address _stakeVaultFactory)\n        public\n        onlyOwner\n        nonZero(_stakeVaultFactory)\n    {\n        stakeVaultFactory = IStakeVaultFactory(_stakeVaultFactory);\n    }\n\n    /// Set initial variables\n    /// @param _tos  TOS token address\n    /// @param _stakeRegistry the registry address\n    /// @param _stakeFactory the StakeFactory address\n    /// @param _stakeVaultFactory the StakeVaultFactory address\n    /// @param _ton  TON address in Tokamak\n    /// @param _wton WTON address in Tokamak\n    /// @param _depositManager DepositManager address in Tokamak\n    /// @param _seigManager SeigManager address in Tokamak\n    function setStore(\n        address _tos,\n        address _stakeRegistry,\n        address _stakeFactory,\n        address _stakeVaultFactory,\n        address _ton,\n        address _wton,\n        address _depositManager,\n        address _seigManager\n    )\n        external\n        override\n        onlyOwner\n        nonZero(_stakeVaultFactory)\n        nonZero(_ton)\n        nonZero(_wton)\n        nonZero(_depositManager)\n    {\n        setTOS(_tos);\n        setStakeRegistry(_stakeRegistry);\n        setStakeFactory(_stakeFactory);\n        stakeVaultFactory = IStakeVaultFactory(_stakeVaultFactory);\n\n        ton = _ton;\n        wton = _wton;\n        depositManager = _depositManager;\n        seigManager = _seigManager;\n    }\n\n    /// @dev create vault\n    /// @param _paytoken the token used for staking by user\n    /// @param _cap  allocated reward amount\n    /// @param _saleStartBlock  the start block that can stake by user\n    /// @param _stakeStartBlock the start block that end staking by user and start that can claim reward by user\n    /// @param _phase  phase of TOS platform\n    /// @param _vaultName  vault's name's hash\n    /// @param _stakeType  stakeContract's type, if 0, StakeTON, else if 1 , StakeSimple , else if 2, StakeDefi\n    /// @param _defiAddr  extra defi address , default is zero address\n    function createVault(\n        address _paytoken,\n        uint256 _cap,\n        uint256 _saleStartBlock,\n        uint256 _stakeStartBlock,\n        uint256 _phase,\n        bytes32 _vaultName,\n        uint256 _stakeType,\n        address _defiAddr\n    ) external override onlyOwner nonZero(address(stakeVaultFactory)) {\n        address vault =\n            stakeVaultFactory.create(\n                [tos, _paytoken, address(stakeFactory), _defiAddr],\n                [_stakeType, _cap, _saleStartBlock, _stakeStartBlock],\n                address(this)\n            );\n        require(vault != address(0), \"Stake1Logic: vault is zero\");\n        stakeRegistry.addVault(vault, _phase, _vaultName);\n\n        emit CreatedVault(vault, _paytoken, _cap);\n    }\n\n    /// @dev create stake contract in vault\n    /// @param _phase the phase of TOS platform\n    /// @param _vault  vault's address\n    /// @param token  the reward token's address\n    /// @param paytoken  the token used for staking by user\n    /// @param periodBlock  the period that generate reward\n    /// @param _name  the stake contract's name\n    function createStakeContract(\n        uint256 _phase,\n        address _vault,\n        address token,\n        address paytoken,\n        uint256 periodBlock,\n        string memory _name\n    ) external override onlyOwner {\n        require(\n            stakeRegistry.validVault(_phase, _vault),\n            \"Stake1Logic: unvalidVault\"\n        );\n\n        IStake1Vault vault = IStake1Vault(_vault);\n\n        (\n            address[2] memory addrInfos,\n            ,\n            uint256 stakeType,\n            uint256[3] memory iniInfo,\n            ,\n\n        ) = vault.infos();\n\n        require(paytoken == addrInfos[0], \"Stake1Logic: differrent paytoken\");\n        uint256 phase = _phase;\n        address[4] memory _addr = [token, addrInfos[0], _vault, addrInfos[1]];\n\n        // solhint-disable-next-line max-line-length\n        address _contract =\n            stakeFactory.create(\n                stakeType,\n                _addr,\n                address(stakeRegistry),\n                [iniInfo[0], iniInfo[1], periodBlock]\n            );\n        require(_contract != address(0), \"Stake1Logic: deploy fail\");\n\n        IStake1Vault(_vault).addSubVaultOfStake(_name, _contract, periodBlock);\n        stakeRegistry.addStakeContract(address(vault), _contract);\n\n        emit CreatedStakeContract(address(vault), _contract, phase);\n    }\n\n    /// @dev create stake contract in vault\n    /// @param _phase phase of TOS platform\n    /// @param _vaultName vault's name's hash\n    /// @param _vault vault's address\n    function addVault(\n        uint256 _phase,\n        bytes32 _vaultName,\n        address _vault\n    ) external override onlyOwner {\n        stakeRegistry.addVault(_vault, _phase, _vaultName);\n    }\n\n    /// @dev end to staking by user\n    /// @param _vault vault's address\n    function closeSale(address _vault) external override {\n        IStake1Vault(_vault).closeSale();\n\n        emit ClosedSale(_vault);\n    }\n\n    /// @dev list of stakeContracts in vault\n    /// @param _vault vault's address\n    function stakeContractsOfVault(address _vault)\n        external\n        view\n        override\n        nonZero(_vault)\n        returns (address[] memory)\n    {\n        return IStake1Vault(_vault).stakeAddressesAll();\n    }\n\n    /// @dev list of vaults in _phaseIndex phase\n    /// @param _phase the phase number\n    function vaultsOfPhase(uint256 _phase)\n        external\n        view\n        override\n        returns (address[] memory)\n    {\n        return stakeRegistry.phasesAll(_phase);\n    }\n\n    /// @dev stake in tokamak's layer2\n    /// @param _stakeContract the stakeContract's address\n    /// @param _layer2 the layer2 address in Tokamak\n    /// @param stakeAmount the amount that stake to layer2\n    function tokamakStaking(\n        address _stakeContract,\n        address _layer2,\n        uint256 stakeAmount\n    ) external override {\n        IStakeTONTokamak(_stakeContract).tokamakStaking(_layer2, stakeAmount);\n    }\n\n    /// @dev Requests unstaking the amount WTON in tokamak's layer2\n    /// @param _stakeContract the stakeContract's address\n    /// @param _layer2 the layer2 address in Tokamak\n    /// @param amount the amount of unstaking\n    function tokamakRequestUnStaking(\n        address _stakeContract,\n        address _layer2,\n        uint256 amount\n    ) external override {\n        IStakeTONTokamak(_stakeContract).tokamakRequestUnStaking(\n            _layer2,\n            amount\n        );\n    }\n\n    /// @dev Requests unstaking the amount of all  in tokamak's layer2\n    /// @param _stakeContract the stakeContract's address\n    /// @param _layer2 the layer2 address in Tokamak\n    function tokamakRequestUnStakingAll(address _stakeContract, address _layer2)\n        external\n        override\n    {\n        IStakeTONTokamak(_stakeContract).tokamakRequestUnStakingAll(_layer2);\n    }\n\n    /// @dev Processes unstaking the requested unstaking amount in tokamak's layer2\n    /// @param _stakeContract the stakeContract's address\n    /// @param _layer2 the layer2 address in Tokamak\n    function tokamakProcessUnStaking(address _stakeContract, address _layer2)\n        external\n        override\n    {\n        IStakeTONTokamak(_stakeContract).tokamakProcessUnStaking(_layer2);\n    }\n\n    /// @dev Swap TON to TOS using uniswap v3\n    /// @dev this function used in StakeTON ( stakeType=0 )\n    /// @param _stakeContract the stakeContract's address\n    /// @param amountIn the input amount\n    /// @param amountOutMinimum the minimun output amount\n    /// @param deadline deadline\n    /// @param sqrtPriceLimitX96 sqrtPriceLimitX96\n    /// @param _type the function type, if 0, use exactInputSingle function, else if, use exactInput function\n    function exchangeWTONtoTOS(\n        address _stakeContract,\n        uint256 amountIn,\n        uint256 amountOutMinimum,\n        uint256 deadline,\n        uint160 sqrtPriceLimitX96,\n        uint256 _type\n    ) external override returns (uint256 amountOut) {\n        return\n            IStakeTONTokamak(_stakeContract).exchangeWTONtoTOS(\n                amountIn,\n                amountOutMinimum,\n                deadline,\n                sqrtPriceLimitX96,\n                _type\n            );\n    }\n\n    /// @dev Swap TON to TOS using uniswap v2\n    /// @dev this function used in StakeTON ( stakeType=0 )\n    /// @param _stakeContract the stakeContract's address\n    /// @param amountIn the input amount\n    /// @param amountOutMinimum the minimun output amount\n    /// @param deadline deadline\n    /// @param _type the function type, if 0, use exactInputSingle function, else if, use exactInput function\n    function exchangeWTONtoTOSv2(\n        address _stakeContract,\n        uint256 amountIn,\n        uint256 amountOutMinimum,\n        uint256 deadline,\n        uint256 _type\n    ) external returns (uint256 amountOut) {\n        return\n            IStakeTONTokamak(_stakeContract).exchangeWTONtoTOSv2(\n                amountIn,\n                amountOutMinimum,\n                deadline,\n                _type\n            );\n    }\n}\n",
  "sourcePath": "/Users/zena/ico2.0/ico20-contracts/contracts/stake/Stake1Logic.sol",
  "compiler": {
    "name": "solc",
    "version": "0.7.6+commit.7338295f.Emscripten.clang"
  },
  "schemaVersion": "3.3.4",
  "updatedAt": "2021-06-21T02:58:01.224Z",
  "devdoc": {
    "kind": "dev",
    "methods": {
      "addVault(uint256,bytes32,address)": {
        "details": "create stake contract in vault",
        "params": {
          "_phase": "phase of TOS platform",
          "_vault": "vault's address",
          "_vaultName": "vault's name's hash"
        }
      },
      "closeSale(address)": {
        "details": "end to staking by user",
        "params": {
          "_vault": "vault's address"
        }
      },
      "createStakeContract(uint256,address,address,address,uint256,string)": {
        "details": "create stake contract in vault",
        "params": {
          "_name": "the stake contract's name",
          "_phase": "the phase of TOS platform",
          "_vault": "vault's address",
          "paytoken": "the token used for staking by user",
          "periodBlock": "the period that generate reward",
          "token": "the reward token's address"
        }
      },
      "createVault(address,uint256,uint256,uint256,uint256,bytes32,uint256,address)": {
        "details": "create vault",
        "params": {
          "_cap": "allocated reward amount",
          "_defiAddr": "extra defi address , default is zero address",
          "_paytoken": "the token used for staking by user",
          "_phase": "phase of TOS platform",
          "_saleStartBlock": "the start block that can stake by user",
          "_stakeStartBlock": "the start block that end staking by user and start that can claim reward by user",
          "_stakeType": "stakeContract's type, if 0, StakeTON, else if 1 , StakeSimple , else if 2, StakeDefi",
          "_vaultName": "vault's name's hash"
        }
      },
      "exchangeWTONtoTOS(address,uint256,uint256,uint256,uint160,uint256)": {
        "details": "Swap TON to TOS using uniswap v3this function used in StakeTON ( stakeType=0 )",
        "params": {
          "_stakeContract": "the stakeContract's address",
          "_type": "the function type, if 0, use exactInputSingle function, else if, use exactInput function",
          "amountIn": "the input amount",
          "amountOutMinimum": "the minimun output amount",
          "deadline": "deadline",
          "sqrtPriceLimitX96": "sqrtPriceLimitX96"
        }
      },
      "exchangeWTONtoTOSv2(address,uint256,uint256,uint256,uint256)": {
        "details": "Swap TON to TOS using uniswap v2this function used in StakeTON ( stakeType=0 )",
        "params": {
          "_stakeContract": "the stakeContract's address",
          "_type": "the function type, if 0, use exactInputSingle function, else if, use exactInput function",
          "amountIn": "the input amount",
          "amountOutMinimum": "the minimun output amount",
          "deadline": "deadline"
        }
      },
      "getRoleAdmin(bytes32)": {
        "details": "Returns the admin role that controls `role`. See {grantRole} and {revokeRole}. To change a role's admin, use {_setRoleAdmin}."
      },
      "getRoleMember(bytes32,uint256)": {
        "details": "Returns one of the accounts that have `role`. `index` must be a value between 0 and {getRoleMemberCount}, non-inclusive. Role bearers are not sorted in any particular way, and their ordering may change at any point. WARNING: When using {getRoleMember} and {getRoleMemberCount}, make sure you perform all queries on the same block. See the following https://forum.openzeppelin.com/t/iterating-over-elements-on-enumerableset-in-openzeppelin-contracts/2296[forum post] for more information."
      },
      "getRoleMemberCount(bytes32)": {
        "details": "Returns the number of accounts that have `role`. Can be used together with {getRoleMember} to enumerate all bearers of a role."
      },
      "grantRole(address,bytes32,address)": {
        "details": "grant the role to account in target",
        "params": {
          "account": "account address",
          "role": "byte32 of role",
          "target": "target address"
        }
      },
      "grantRole(bytes32,address)": {
        "details": "Grants `role` to `account`. If `account` had not been already granted `role`, emits a {RoleGranted} event. Requirements: - the caller must have ``role``'s admin role."
      },
      "hasRole(bytes32,address)": {
        "details": "Returns `true` if `account` has been granted `role`."
      },
      "renounceRole(bytes32,address)": {
        "details": "Revokes `role` from the calling account. Roles are often managed via {grantRole} and {revokeRole}: this function's purpose is to provide a mechanism for accounts to lose their privileges if they are compromised (such as when a trusted device is misplaced). If the calling account had been granted `role`, emits a {RoleRevoked} event. Requirements: - the caller must be `account`."
      },
      "revokeRole(address,bytes32,address)": {
        "details": "revoke the role to account in target",
        "params": {
          "account": "account address",
          "role": "byte32 of role",
          "target": "target address"
        }
      },
      "revokeRole(bytes32,address)": {
        "details": "Revokes `role` from `account`. If `account` had been granted `role`, emits a {RoleRevoked} event. Requirements: - the caller must have ``role``'s admin role."
      },
      "setFactoryByStakeType(uint256,address)": {
        "details": "Set factory address by StakeType",
        "params": {
          "_factory": "the factory address",
          "_stakeType": "the stake type , 0:TON, 1: Simple, 2: UniswapV3"
        }
      },
      "setStakeFactory(address)": {
        "details": "Sets StakeFactory address",
        "params": {
          "_stakeFactory": "new StakeFactory address"
        }
      },
      "setStakeRegistry(address)": {
        "details": "Sets Stake Registry address",
        "params": {
          "_stakeRegistry": "new StakeRegistry address"
        }
      },
      "setStakeVaultFactory(address)": {
        "details": "Sets StakeVaultFactory address",
        "params": {
          "_stakeVaultFactory": "new StakeVaultFactory address"
        }
      },
      "setStore(address,address,address,address,address,address,address,address)": {
        "params": {
          "_depositManager": "DepositManager address in Tokamak",
          "_seigManager": "SeigManager address in Tokamak",
          "_stakeFactory": "the StakeFactory address",
          "_stakeRegistry": "the registry address",
          "_stakeVaultFactory": "the StakeVaultFactory address",
          "_ton": "TON address in Tokamak",
          "_tos": "TOS token address",
          "_wton": "WTON address in Tokamak"
        }
      },
      "setTOS(address)": {
        "details": "Sets TOS address",
        "params": {
          "_tos": "new TOS address"
        }
      },
      "stakeContractsOfVault(address)": {
        "details": "list of stakeContracts in vault",
        "params": {
          "_vault": "vault's address"
        }
      },
      "tokamakProcessUnStaking(address,address)": {
        "details": "Processes unstaking the requested unstaking amount in tokamak's layer2",
        "params": {
          "_layer2": "the layer2 address in Tokamak",
          "_stakeContract": "the stakeContract's address"
        }
      },
      "tokamakRequestUnStaking(address,address,uint256)": {
        "details": "Requests unstaking the amount WTON in tokamak's layer2",
        "params": {
          "_layer2": "the layer2 address in Tokamak",
          "_stakeContract": "the stakeContract's address",
          "amount": "the amount of unstaking"
        }
      },
      "tokamakRequestUnStakingAll(address,address)": {
        "details": "Requests unstaking the amount of all  in tokamak's layer2",
        "params": {
          "_layer2": "the layer2 address in Tokamak",
          "_stakeContract": "the stakeContract's address"
        }
      },
      "tokamakStaking(address,address,uint256)": {
        "details": "stake in tokamak's layer2",
        "params": {
          "_layer2": "the layer2 address in Tokamak",
          "_stakeContract": "the stakeContract's address",
          "stakeAmount": "the amount that stake to layer2"
        }
      },
      "transferOwnership(address)": {
        "details": "transfer Ownership",
        "params": {
          "newOwner": "new owner address"
        }
      },
      "upgradeStakeTo(address,address)": {
        "details": "upgrade to the logic of _stakeProxy",
        "params": {
          "_implementation": "new logic address",
          "_stakeProxy": "the StakeProxy address, it is stakeContract address in vault."
        }
      },
      "vaultsOfPhase(uint256)": {
        "details": "list of vaults in _phaseIndex phase",
        "params": {
          "_phase": "the phase number"
        }
      }
    },
    "title": "The logic of TOS Plaform",
    "version": 1
  },
  "userdoc": {
    "kind": "user",
    "methods": {
      "setStore(address,address,address,address,address,address,address,address)": {
        "notice": "Set initial variables"
      }
    },
    "notice": "Admin can createVault, createStakeContract. User can excute the tokamak staking function of each contract through this logic.",
    "version": 1
  }
}