{
  "contractName": "StakeFactory",
  "abi": [
    {
      "inputs": [
        {
          "internalType": "address",
          "name": "_stakeSimpleFactory",
          "type": "address"
        },
        {
          "internalType": "address",
          "name": "_stakeTONFactory",
          "type": "address"
        },
        {
          "internalType": "address",
          "name": "_stakeUniswapV3Factory",
          "type": "address"
        }
      ],
      "stateMutability": "nonpayable",
      "type": "constructor"
    },
    {
      "anonymous": false,
      "inputs": [
        {
          "indexed": true,
          "internalType": "bytes32",
          "name": "role",
          "type": "bytes32"
        },
        {
          "indexed": true,
          "internalType": "bytes32",
          "name": "previousAdminRole",
          "type": "bytes32"
        },
        {
          "indexed": true,
          "internalType": "bytes32",
          "name": "newAdminRole",
          "type": "bytes32"
        }
      ],
      "name": "RoleAdminChanged",
      "type": "event"
    },
    {
      "anonymous": false,
      "inputs": [
        {
          "indexed": true,
          "internalType": "bytes32",
          "name": "role",
          "type": "bytes32"
        },
        {
          "indexed": true,
          "internalType": "address",
          "name": "account",
          "type": "address"
        },
        {
          "indexed": true,
          "internalType": "address",
          "name": "sender",
          "type": "address"
        }
      ],
      "name": "RoleGranted",
      "type": "event"
    },
    {
      "anonymous": false,
      "inputs": [
        {
          "indexed": true,
          "internalType": "bytes32",
          "name": "role",
          "type": "bytes32"
        },
        {
          "indexed": true,
          "internalType": "address",
          "name": "account",
          "type": "address"
        },
        {
          "indexed": true,
          "internalType": "address",
          "name": "sender",
          "type": "address"
        }
      ],
      "name": "RoleRevoked",
      "type": "event"
    },
    {
      "inputs": [],
      "name": "ADMIN_ROLE",
      "outputs": [
        {
          "internalType": "bytes32",
          "name": "",
          "type": "bytes32"
        }
      ],
      "stateMutability": "view",
      "type": "function"
    },
    {
      "inputs": [],
      "name": "DEFAULT_ADMIN_ROLE",
      "outputs": [
        {
          "internalType": "bytes32",
          "name": "",
          "type": "bytes32"
        }
      ],
      "stateMutability": "view",
      "type": "function"
    },
    {
      "inputs": [
        {
          "internalType": "uint256",
          "name": "",
          "type": "uint256"
        }
      ],
      "name": "factory",
      "outputs": [
        {
          "internalType": "address",
          "name": "",
          "type": "address"
        }
      ],
      "stateMutability": "view",
      "type": "function"
    },
    {
      "inputs": [
        {
          "internalType": "bytes32",
          "name": "role",
          "type": "bytes32"
        }
      ],
      "name": "getRoleAdmin",
      "outputs": [
        {
          "internalType": "bytes32",
          "name": "",
          "type": "bytes32"
        }
      ],
      "stateMutability": "view",
      "type": "function"
    },
    {
      "inputs": [
        {
          "internalType": "bytes32",
          "name": "role",
          "type": "bytes32"
        },
        {
          "internalType": "uint256",
          "name": "index",
          "type": "uint256"
        }
      ],
      "name": "getRoleMember",
      "outputs": [
        {
          "internalType": "address",
          "name": "",
          "type": "address"
        }
      ],
      "stateMutability": "view",
      "type": "function"
    },
    {
      "inputs": [
        {
          "internalType": "bytes32",
          "name": "role",
          "type": "bytes32"
        }
      ],
      "name": "getRoleMemberCount",
      "outputs": [
        {
          "internalType": "uint256",
          "name": "",
          "type": "uint256"
        }
      ],
      "stateMutability": "view",
      "type": "function"
    },
    {
      "inputs": [
        {
          "internalType": "bytes32",
          "name": "role",
          "type": "bytes32"
        },
        {
          "internalType": "address",
          "name": "account",
          "type": "address"
        }
      ],
      "name": "grantRole",
      "outputs": [],
      "stateMutability": "nonpayable",
      "type": "function"
    },
    {
      "inputs": [
        {
          "internalType": "bytes32",
          "name": "role",
          "type": "bytes32"
        },
        {
          "internalType": "address",
          "name": "account",
          "type": "address"
        }
      ],
      "name": "hasRole",
      "outputs": [
        {
          "internalType": "bool",
          "name": "",
          "type": "bool"
        }
      ],
      "stateMutability": "view",
      "type": "function"
    },
    {
      "inputs": [
        {
          "internalType": "bytes32",
          "name": "role",
          "type": "bytes32"
        },
        {
          "internalType": "address",
          "name": "account",
          "type": "address"
        }
      ],
      "name": "renounceRole",
      "outputs": [],
      "stateMutability": "nonpayable",
      "type": "function"
    },
    {
      "inputs": [
        {
          "internalType": "bytes32",
          "name": "role",
          "type": "bytes32"
        },
        {
          "internalType": "address",
          "name": "account",
          "type": "address"
        }
      ],
      "name": "revokeRole",
      "outputs": [],
      "stateMutability": "nonpayable",
      "type": "function"
    },
    {
      "inputs": [
        {
          "internalType": "address",
          "name": "newOwner",
          "type": "address"
        }
      ],
      "name": "transferOwnership",
      "outputs": [],
      "stateMutability": "nonpayable",
      "type": "function"
    },
    {
      "inputs": [
        {
          "internalType": "uint256",
          "name": "_stakeType",
          "type": "uint256"
        },
        {
          "internalType": "address",
          "name": "_factory",
          "type": "address"
        }
      ],
      "name": "setFactoryByStakeType",
      "outputs": [],
      "stateMutability": "nonpayable",
      "type": "function"
    },
    {
      "inputs": [
        {
          "internalType": "uint256",
          "name": "stakeType",
          "type": "uint256"
        },
        {
          "internalType": "address[4]",
          "name": "_addr",
          "type": "address[4]"
        },
        {
          "internalType": "address",
          "name": "registry",
          "type": "address"
        },
        {
          "internalType": "uint256[3]",
          "name": "_intdata",
          "type": "uint256[3]"
        }
      ],
      "name": "create",
      "outputs": [
        {
          "internalType": "address",
          "name": "",
          "type": "address"
        }
      ],
      "stateMutability": "nonpayable",
      "type": "function"
    }
  ],
  "bytecode": "0x60806040523480156200001157600080fd5b50604051620010a4380380620010a4833981810160405260608110156200003757600080fd5b50805160208201516040909201519091906001600160a01b038316158015906200006957506001600160a01b03821615155b620000bb576040805162461bcd60e51b815260206004820152601760248201527f5374616b65466163746f72793a20696e6974206661696c000000000000000000604482015290519081900360640190fd5b60016020527fa6eef7e35abe7026729641147f7915573c7e97b47efa546f5f6e3230263bcb4980546001600160a01b038085166001600160a01b0319928316179092557fcc69885fda6bcc1a4ace058b4a62bf5e179ea78fd58a1ccd71c22cc9b688792f805486841690831617905560026000527fd9d16d34ffb15ba3a3d852f0d403e2ce1d691fb54de27ac87cd2f993f3ec330f8054928416929091169190911790556200017a60008051602062001084833981519152806200019e565b620001956000805160206200108483398151915233620001f0565b50505062000304565b600082815260208190526040808220600201549051839285917fbd79b86ffe0ab8e8776151514217cd7cacd52c909f66475c3af44e129f0b00ff9190a460009182526020829052604090912060020155565b620001fc828262000200565b5050565b60008281526020818152604090912062000225918390620009ae62000279821b17901c565b15620001fc576200023562000299565b6001600160a01b0316816001600160a01b0316837f2f8788117e7eff1d82e926ec794901d17c78024a50270940304540a733656f0d60405160405180910390a45050565b600062000290836001600160a01b0384166200029d565b90505b92915050565b3390565b6000620002ab8383620002ec565b620002e35750815460018181018455600084815260208082209093018490558454848252828601909352604090209190915562000293565b50600062000293565b60009081526001919091016020526040902054151590565b610d7080620003146000396000f3fe608060405234801561001057600080fd5b50600436106100bf5760003560e01c806378e999b91161007c57806378e999b9146101c55780639010d07c146101f157806391d1485414610214578063a217fddf14610254578063ca15c8731461025c578063d547741f14610279578063f2fde38b146102a5576100bf565b8063115c289b146100c457806322e3dec014610117578063248a9ca3146101345780632f2ff15d1461016357806336568abe1461019157806375b238fc146101bd575b600080fd5b6100fb60048036036101208110156100db57600080fd5b5080359060208101906001600160a01b0360a0820135169060c0016102cb565b604080516001600160a01b039092168252519081900360200190f35b6100fb6004803603602081101561012d57600080fd5b503561061a565b6101516004803603602081101561014a57600080fd5b5035610635565b60408051918252519081900360200190f35b61018f6004803603604081101561017957600080fd5b50803590602001356001600160a01b031661064a565b005b61018f600480360360408110156101a757600080fd5b50803590602001356001600160a01b03166106b6565b610151610717565b61018f600480360360408110156101db57600080fd5b50803590602001356001600160a01b0316610729565b6100fb6004803603604081101561020757600080fd5b508035906020013561080f565b6102406004803603604081101561022a57600080fd5b50803590602001356001600160a01b0316610830565b604080519115158252519081900360200190f35b610151610848565b6101516004803603602081101561027257600080fd5b503561084d565b61018f6004803603604081101561028f57600080fd5b50803590602001356001600160a01b0316610864565b61018f600480360360208110156102bb57600080fd5b50356001600160a01b03166108bd565b60006102e5600080516020610cec83398151915233610830565b610333576040805162461bcd60e51b815260206004820152601a60248201527929ba30b5b2a330b1ba37b93c9d103737ba1030b71030b236b4b760311b604482015290519081900360640190fd5b6000858152600160205260409020546001600160a01b031661039c576040805162461bcd60e51b815260206004820152601a60248201527f5374616b65466163746f72793a20666163746f7279207a65726f000000000000604482015290519081900360640190fd5b6001600160a01b036040850135166103f6576040805162461bcd60e51b81526020600482015260186024820152775374616b65466163746f72793a207661756c74207a65726f60401b604482015290519081900360640190fd5b8460011461053a5760008581526001602052604080822054905163ba3d304560e01b81526001600160a01b039091169063ba3d304590879087908790339060040180856080808284376000838201526001600160a01b038716601f909101601f19169092019182525060200183606080828437600081840152601f19601f820116905080830192505050826001600160a01b03168152602001945050505050602060405180830381600087803b1580156104af57600080fd5b505af11580156104c3573d6000803e3d6000fd5b505050506040513d60208110156104d957600080fd5b505190506001600160a01b038116610533576040805162461bcd60e51b81526020600482015260186024820152775374616b65466163746f72793a2070726f7879207a65726f60401b604482015290519081900360640190fd5b9050610612565b6000858152600160209081526040808320548151606080820184526001600160a01b038a35811683528a8601358116958301959095528984013585168285015292516301bea00960e31b81529390911692630df500489287913391600490910190819085908083838c5b838110156105bc5781810151838201526020016105a4565b5050505090500183600360200280828437600081840152601f19601f820116905080830192505050826001600160a01b031681526020019350505050602060405180830381600087803b1580156104af57600080fd5b949350505050565b6001602052600090815260409020546001600160a01b031681565b60009081526020819052604090206002015490565b60008281526020819052604090206002015461066d906106686109c3565b610830565b6106a85760405162461bcd60e51b815260040180806020018281038252602f815260200180610c8d602f913960400191505060405180910390fd5b6106b282826109c7565b5050565b6106be6109c3565b6001600160a01b0316816001600160a01b03161461070d5760405162461bcd60e51b815260040180806020018281038252602f815260200180610d0c602f913960400191505060405180910390fd5b6106b28282610a30565b600080516020610cec83398151915281565b610741600080516020610cec83398151915233610830565b61078f576040805162461bcd60e51b815260206004820152601a60248201527929ba30b5b2a330b1ba37b93c9d103737ba1030b71030b236b4b760311b604482015290519081900360640190fd5b806001600160a01b0381166107e0576040805162461bcd60e51b81526020600482015260126024820152715374616b65466163746f72793a207a65726f60701b604482015290519081900360640190fd5b5060009182526001602052604090912080546001600160a01b0319166001600160a01b03909216919091179055565b60008281526020819052604081206108279083610a99565b90505b92915050565b60008281526020819052604081206108279083610aa5565b600081565b600081815260208190526040812061082a90610aba565b600082815260208190526040902060020154610882906106686109c3565b61070d5760405162461bcd60e51b8152600401808060200182810382526030815260200180610cbc6030913960400191505060405180910390fd5b6108d5600080516020610cec83398151915233610830565b610923576040805162461bcd60e51b815260206004820152601a60248201527929ba30b5b2a330b1ba37b93c9d103737ba1030b71030b236b4b760311b604482015290519081900360640190fd5b336001600160a01b038216141561097b576040805162461bcd60e51b815260206004820152601760248201527629ba30b5b2a330b1ba37b93c9d39b0b6b29037bbb732b960491b604482015290519081900360640190fd5b610993600080516020610cec8339815191528261064a565b6109ab600080516020610cec83398151915233610864565b50565b6000610827836001600160a01b038416610ac5565b3390565b60008281526020819052604090206109df90826109ae565b156106b2576109ec6109c3565b6001600160a01b0316816001600160a01b0316837f2f8788117e7eff1d82e926ec794901d17c78024a50270940304540a733656f0d60405160405180910390a45050565b6000828152602081905260409020610a489082610b0f565b156106b257610a556109c3565b6001600160a01b0316816001600160a01b0316837ff6391f5c32d9c69d2a47ea670b442974b53935d1edc7fd64eb21e047a839171b60405160405180910390a45050565b60006108278383610b24565b6000610827836001600160a01b038416610b88565b600061082a82610ba0565b6000610ad18383610b88565b610b075750815460018181018455600084815260208082209093018490558454848252828601909352604090209190915561082a565b50600061082a565b6000610827836001600160a01b038416610ba4565b81546000908210610b665760405162461bcd60e51b8152600401808060200182810382526022815260200180610c6b6022913960400191505060405180910390fd5b826000018281548110610b7557fe5b9060005260206000200154905092915050565b60009081526001919091016020526040902054151590565b5490565b60008181526001830160205260408120548015610c605783546000198083019190810190600090879083908110610bd757fe5b9060005260206000200154905080876000018481548110610bf457fe5b600091825260208083209091019290925582815260018981019092526040902090840190558654879080610c2457fe5b6001900381819060005260206000200160009055905586600101600087815260200190815260200160002060009055600194505050505061082a565b600091505061082a56fe456e756d657261626c655365743a20696e646578206f7574206f6620626f756e6473416363657373436f6e74726f6c3a2073656e646572206d75737420626520616e2061646d696e20746f206772616e74416363657373436f6e74726f6c3a2073656e646572206d75737420626520616e2061646d696e20746f207265766f6b65df8b4c520ffe197c5343c6f5aec59570151ef9a492f2c624fd45ddde6135ec42416363657373436f6e74726f6c3a2063616e206f6e6c792072656e6f756e636520726f6c657320666f722073656c66a26469706673582212200dcc5d3a750bc3f7bb77e57a98dc16f8c2fb1e831ad089cd37288c643769d86064736f6c63430007060033df8b4c520ffe197c5343c6f5aec59570151ef9a492f2c624fd45ddde6135ec42",
  "immutableReferences": {},
  "source": "// SPDX-License-Identifier: MIT\npragma solidity ^0.7.6;\n\nimport \"../interfaces/IStakeFactory.sol\";\nimport {IStakeSimpleFactory} from \"../interfaces/IStakeSimpleFactory.sol\";\nimport {IStakeTONFactory} from \"../interfaces/IStakeTONFactory.sol\";\nimport \"@openzeppelin/contracts/access/AccessControl.sol\";\n\n/// @title A factory that calls the desired stake factory according to stakeType\ncontract StakeFactory is IStakeFactory, AccessControl {\n    bytes32 public constant ADMIN_ROLE = keccak256(\"ADMIN\");\n\n    /// StakeType - Factory address\n    mapping(uint256 => address) public factory;\n\n    modifier onlyOwner() {\n        require(hasRole(ADMIN_ROLE, msg.sender), \"StakeFactory: not an admin\");\n        _;\n    }\n    modifier nonZero(address _addr) {\n        require(_addr != address(0), \"StakeFactory: zero\");\n        _;\n    }\n\n    /// @dev constructor of StakeFactory\n    /// @param _stakeSimpleFactory the factory address for StakeSimple\n    /// @param _stakeTONFactory the factory address for StakeTON\n    /// @param _stakeUniswapV3Factory the factory address for StakeUniswapV3\n    constructor(\n        address _stakeSimpleFactory,\n        address _stakeTONFactory,\n        address _stakeUniswapV3Factory\n    ) {\n        require(\n            _stakeSimpleFactory != address(0) && _stakeTONFactory != address(0),\n            \"StakeFactory: init fail\"\n        );\n\n        factory[0] = _stakeTONFactory;\n        factory[1] = _stakeSimpleFactory;\n        factory[2] = _stakeUniswapV3Factory;\n\n        _setRoleAdmin(ADMIN_ROLE, ADMIN_ROLE);\n        _setupRole(ADMIN_ROLE, msg.sender);\n    }\n\n    /// @dev transfer Ownership\n    /// @param newOwner new owner address\n    function transferOwnership(address newOwner) external onlyOwner {\n        require(msg.sender != newOwner, \"StakeFactory:same owner\");\n        grantRole(ADMIN_ROLE, newOwner);\n        revokeRole(ADMIN_ROLE, msg.sender);\n    }\n\n\n    /// @dev Set factory address by StakeType\n    /// @param _stakeType the stake type , 0:TON, 1: Simple, 2: UniswapV3\n    /// @param _factory the factory address\n    function setFactoryByStakeType(uint256 _stakeType, address _factory)\n        external\n        override\n        onlyOwner\n        nonZero(_factory)\n    {\n        factory[_stakeType] = _factory;\n    }\n\n    /// @dev Create a stake contract that calls the desired stake factory according to stakeType\n    /// @param stakeType if 0, stakeTONFactory, else if 1 , stakeSimpleFactory , else if 2, stakeUniswapV3Factory\n    /// @param _addr array of [token, paytoken, vault, _defiAddr]\n    /// @param registry  registry address\n    /// @param _intdata array of [saleStartBlock, startBlock, periodBlocks]\n    /// @return contract address\n    function create(\n        uint256 stakeType,\n        address[4] calldata _addr,\n        address registry,\n        uint256[3] calldata _intdata\n    ) external override onlyOwner returns (address) {\n        require(factory[stakeType] != address(0), \"StakeFactory: factory zero\");\n        require(_addr[2] != address(0), \"StakeFactory: vault zero\");\n\n\n        if (stakeType != 1) {\n            // TON Staking\n            address proxy =\n                IStakeTONFactory(factory[stakeType]).create(\n                    _addr,\n                    registry,\n                    _intdata,\n                    msg.sender\n                );\n            require(proxy != address(0), \"StakeFactory: proxy zero\");\n            return proxy;\n\n        } else {\n\n            address proxy =\n                IStakeSimpleFactory(factory[stakeType]).create(\n                    [_addr[0], _addr[1], _addr[2]],\n                    _intdata,\n                    msg.sender\n                );\n            require(proxy != address(0), \"StakeFactory: proxy zero\");\n            return proxy;\n\n        }\n    }\n}\n",
  "sourcePath": "/Users/zena/ico2.0/ico20-contracts/contracts/factory/StakeFactory.sol",
  "compiler": {
    "name": "solc",
    "version": "0.7.6+commit.7338295f.Emscripten.clang"
  },
  "schemaVersion": "3.3.4",
  "updatedAt": "2021-06-19T02:31:50.107Z",
  "devdoc": {
    "kind": "dev",
    "methods": {
      "constructor": {
        "details": "constructor of StakeFactory",
        "params": {
          "_stakeSimpleFactory": "the factory address for StakeSimple",
          "_stakeTONFactory": "the factory address for StakeTON",
          "_stakeUniswapV3Factory": "the factory address for StakeUniswapV3"
        }
      },
      "create(uint256,address[4],address,uint256[3])": {
        "details": "Create a stake contract that calls the desired stake factory according to stakeType",
        "params": {
          "_addr": "array of [token, paytoken, vault, _defiAddr]",
          "_intdata": "array of [saleStartBlock, startBlock, periodBlocks]",
          "registry": "registry address",
          "stakeType": "if 0, stakeTONFactory, else if 1 , stakeSimpleFactory , else if 2, stakeUniswapV3Factory"
        },
        "returns": {
          "_0": "contract address"
        }
      },
      "getRoleAdmin(bytes32)": {
        "details": "Returns the admin role that controls `role`. See {grantRole} and {revokeRole}. To change a role's admin, use {_setRoleAdmin}."
      },
      "getRoleMember(bytes32,uint256)": {
        "details": "Returns one of the accounts that have `role`. `index` must be a value between 0 and {getRoleMemberCount}, non-inclusive. Role bearers are not sorted in any particular way, and their ordering may change at any point. WARNING: When using {getRoleMember} and {getRoleMemberCount}, make sure you perform all queries on the same block. See the following https://forum.openzeppelin.com/t/iterating-over-elements-on-enumerableset-in-openzeppelin-contracts/2296[forum post] for more information."
      },
      "getRoleMemberCount(bytes32)": {
        "details": "Returns the number of accounts that have `role`. Can be used together with {getRoleMember} to enumerate all bearers of a role."
      },
      "grantRole(bytes32,address)": {
        "details": "Grants `role` to `account`. If `account` had not been already granted `role`, emits a {RoleGranted} event. Requirements: - the caller must have ``role``'s admin role."
      },
      "hasRole(bytes32,address)": {
        "details": "Returns `true` if `account` has been granted `role`."
      },
      "renounceRole(bytes32,address)": {
        "details": "Revokes `role` from the calling account. Roles are often managed via {grantRole} and {revokeRole}: this function's purpose is to provide a mechanism for accounts to lose their privileges if they are compromised (such as when a trusted device is misplaced). If the calling account had been granted `role`, emits a {RoleRevoked} event. Requirements: - the caller must be `account`."
      },
      "revokeRole(bytes32,address)": {
        "details": "Revokes `role` from `account`. If `account` had been granted `role`, emits a {RoleRevoked} event. Requirements: - the caller must have ``role``'s admin role."
      },
      "setFactoryByStakeType(uint256,address)": {
        "details": "Set factory address by StakeType",
        "params": {
          "_factory": "the factory address",
          "_stakeType": "the stake type , 0:TON, 1: Simple, 2: UniswapV3"
        }
      },
      "transferOwnership(address)": {
        "details": "transfer Ownership",
        "params": {
          "newOwner": "new owner address"
        }
      }
    },
    "title": "A factory that calls the desired stake factory according to stakeType",
    "version": 1
  },
  "userdoc": {
    "kind": "user",
    "methods": {
      "factory(uint256)": {
        "notice": "StakeType - Factory address"
      }
    },
    "version": 1
  }
}