{
  "contractName": "StakeSimpleFactory",
  "abi": [
    {
      "inputs": [
        {
          "internalType": "address",
          "name": "_stakeSimpleLogic",
          "type": "address"
        }
      ],
      "stateMutability": "nonpayable",
      "type": "constructor"
    },
    {
      "inputs": [],
      "name": "ADMIN_ROLE",
      "outputs": [
        {
          "internalType": "bytes32",
          "name": "",
          "type": "bytes32"
        }
      ],
      "stateMutability": "view",
      "type": "function"
    },
    {
      "inputs": [],
      "name": "stakeSimpleLogic",
      "outputs": [
        {
          "internalType": "address",
          "name": "",
          "type": "address"
        }
      ],
      "stateMutability": "view",
      "type": "function"
    },
    {
      "inputs": [
        {
          "internalType": "address[3]",
          "name": "_addr",
          "type": "address[3]"
        },
        {
          "internalType": "uint256[3]",
          "name": "_intdata",
          "type": "uint256[3]"
        },
        {
          "internalType": "address",
          "name": "owner",
          "type": "address"
        }
      ],
      "name": "create",
      "outputs": [
        {
          "internalType": "address",
          "name": "",
          "type": "address"
        }
      ],
      "stateMutability": "nonpayable",
      "type": "function"
    }
  ],
  "bytecode": "0x608060405234801561001057600080fd5b506040516117ac3803806117ac8339818101604052602081101561003357600080fd5b50516001600160a01b038116610090576040805162461bcd60e51b815260206004820152601e60248201527f5374616b6553696d706c65466163746f72793a206c6f676963207a65726f0000604482015290519081900360640190fd5b600080546001600160a01b039092166001600160a01b03199092169190911790556116ec806100c06000396000f3fe608060405234801561001057600080fd5b50600436106100415760003560e01c80630df50048146100465780632c4ffdda1461009057806375b238fc14610098575b600080fd5b610074600480360360e081101561005c57600080fd5b50606081016001600160a01b0360c0830135166100b2565b604080516001600160a01b039092168252519081900360200190f35b6100746102e5565b6100a06102f4565b60408051918252519081900360200190f35b6000805460405182916001600160a01b0316906100ce90610306565b6001600160a01b03909116815260405190819003602001906000f0801580156100fb573d6000803e3d6000fd5b5090506001600160a01b038116610159576040805162461bcd60e51b815260206004820152601e60248201527f5374616b6553696d706c65466163746f72793a2070726f7879207a65726f0000604482015290519081900360640190fd5b60405163a5390f2160e01b81526001600160a01b0382169063a5390f2190879087906004018083606080828437600083820152601f01601f1916909101905082606080828437600081840152601f19601f82011690508083019250505092505050600060405180830381600087803b1580156101d457600080fd5b505af11580156101e8573d6000803e3d6000fd5b50505050806001600160a01b0316632f2ff15d600080516020611697833981519152856040518363ffffffff1660e01b815260040180838152602001826001600160a01b0316815260200192505050600060405180830381600087803b15801561025157600080fd5b505af1158015610265573d6000803e3d6000fd5b50506040805163d547741f60e01b8152600080516020611697833981519152600482015230602482015290516001600160a01b038516935063d547741f9250604480830192600092919082900301818387803b1580156102c457600080fd5b505af11580156102d8573d6000803e3d6000fd5b5092979650505050505050565b6000546001600160a01b031681565b60008051602061169783398151915281565b611383806103148339019056fe60806040523480156200001157600080fd5b506040516200138338038062001383833981810160405260208110156200003757600080fd5b5051620000546000805160206200136383398151915280620000b0565b6200006f600080516020620013638339815191523362000102565b6200008a600080516020620013638339815191523062000102565b600d80546001600160a01b0319166001600160a01b039290921691909117905562000218565b6000828152600c6020526040808220600201549051839285917fbd79b86ffe0ab8e8776151514217cd7cacd52c909f66475c3af44e129f0b00ff9190a46000918252600c602052604090912060020155565b6200010e828262000112565b5050565b6000828152600c602090815260409091206200013991839062000d296200018d821b17901c565b156200010e5762000149620001ad565b6001600160a01b0316816001600160a01b0316837f2f8788117e7eff1d82e926ec794901d17c78024a50270940304540a733656f0d60405160405180910390a45050565b6000620001a4836001600160a01b038416620001b1565b90505b92915050565b3390565b6000620001bf838362000200565b620001f757508154600181810184556000848152602080822090930184905584548482528286019093526040902091909155620001a7565b506000620001a7565b60009081526001919091016020526040902054151590565b61113b80620002286000396000f3fe6080604052600436106101705760003560e01c80637cb00d25116100cc578063b2d4d6a31161007a578063b2d4d6a31461050c578063ca15c87314610521578063d547741f1461054b578063dac3fc3f14610584578063f2fde38b146105b7578063fbfa77cf146105ea578063fc0c546a146105ff5761017f565b80637cb00d251461035557806386989038146103815780639010d07c1461039657806391d14854146103c6578063a217fddf146103ff578063a5390f2114610414578063acc3a9391461049f5761017f565b806343b0934a1161012957806343b0934a1461029257806348cd4cb1146102c3578063567e98f9146102d85780635c60da1b146102ed57806363a8fd8914610302578063683048351461032b57806375b238fc146103405761017f565b8063083c63231461018757806320027275146101ae578063248a9ca3146101c35780632f2ff15d146101ed57806336568abe146102265780633659cfe61461025f5761017f565b3661017f5761017d610614565b005b61017d610614565b34801561019357600080fd5b5061019c6106a1565b60408051918252519081900360200190f35b3480156101ba57600080fd5b5061019c6106a7565b3480156101cf57600080fd5b5061019c600480360360208110156101e657600080fd5b50356106ad565b3480156101f957600080fd5b5061017d6004803603604081101561021057600080fd5b50803590602001356001600160a01b03166106c2565b34801561023257600080fd5b5061017d6004803603604081101561024957600080fd5b50803590602001356001600160a01b031661072e565b34801561026b57600080fd5b5061017d6004803603602081101561028257600080fd5b50356001600160a01b031661078f565b34801561029e57600080fd5b506102a76108e7565b604080516001600160a01b039092168252519081900360200190f35b3480156102cf57600080fd5b5061019c6108f6565b3480156102e457600080fd5b5061019c6108fc565b3480156102f957600080fd5b506102a7610902565b34801561030e57600080fd5b50610317610911565b604080519115158252519081900360200190f35b34801561033757600080fd5b506102a7610921565b34801561034c57600080fd5b5061019c610930565b34801561036157600080fd5b5061017d6004803603602081101561037857600080fd5b50351515610942565b34801561038d57600080fd5b5061019c6109b7565b3480156103a257600080fd5b506102a7600480360360408110156103b957600080fd5b50803590602001356109bd565b3480156103d257600080fd5b50610317600480360360408110156103e957600080fd5b50803590602001356001600160a01b03166109de565b34801561040b57600080fd5b5061019c6109f6565b34801561042057600080fd5b5061017d600480360360c081101561043757600080fd5b810190808060600190600380602002604051908101604052809291908260036020028082843760009201919091525050604080516060818101909252929594938181019392509060039083908390808284376000920191909152509194506109fb9350505050565b3480156104ab57600080fd5b506104d2600480360360208110156104c257600080fd5b50356001600160a01b0316610b24565b604080519788526020880196909652868601949094526060860192909252608085015260a0840152151560c0830152519081900360e00190f35b34801561051857600080fd5b5061019c610b64565b34801561052d57600080fd5b5061019c6004803603602081101561054457600080fd5b5035610b6a565b34801561055757600080fd5b5061017d6004803603604081101561056e57600080fd5b50803590602001356001600160a01b0316610b81565b34801561059057600080fd5b506104d2600480360360208110156105a757600080fd5b50356001600160a01b0316610bda565b3480156105c357600080fd5b5061017d600480360360208110156105da57600080fd5b50356001600160a01b0316610c23565b3480156105f657600080fd5b506102a7610d0b565b34801561060b57600080fd5b506102a7610d1a565b600061061e610902565b90506001600160a01b038116158015906106425750600d54600160a01b900460ff16155b61067d5760405162461bcd60e51b81526004018080602001828103825260308152602001806110a76030913960400191505060405180910390fd5b3660008037600080366000845af43d6000803e80801561069c573d6000f35b3d6000fd5b60065481565b60045481565b6000908152600c602052604090206002015490565b6000828152600c60205260409020600201546106e5906106e0610d3e565b6109de565b6107205760405162461bcd60e51b815260040180806020018281038252602f815260200180611008602f913960400191505060405180910390fd5b61072a8282610d42565b5050565b610736610d3e565b6001600160a01b0316816001600160a01b0316146107855760405162461bcd60e51b815260040180806020018281038252602f8152602001806110d7602f913960400191505060405180910390fd5b61072a8282610dab565b6107a7600080516020611087833981519152336109de565b6107e6576040805162461bcd60e51b815260206004820152601d6024820152600080516020611037833981519152604482015290519081900360640190fd5b6001600160a01b038116610841576040805162461bcd60e51b815260206004820152601f60248201527f5374616b6553696d706c6550726f78793a20696e707574206973207a65726f00604482015290519081900360640190fd5b600d546001600160a01b038281169116141561089d576040805162461bcd60e51b81526020600482015260166024820152755374616b6553696d706c6550726f78793a2073616d6560501b604482015290519081900360640190fd5b600d80546001600160a01b0319166001600160a01b0383169081179091556040517fbc7cd75a20ee27fd9adebab32041f755214dbc6bffa90cc0225b39da2e5c2d3b90600090a250565b6002546001600160a01b031681565b60055481565b60085481565b600d546001600160a01b031690565b600d54600160a01b900460ff1681565b6001546001600160a01b031681565b60008051602061108783398151915281565b61095a600080516020611087833981519152336109de565b610999576040805162461bcd60e51b815260206004820152601d6024820152600080516020611037833981519152604482015290519081900360640190fd5b600d8054911515600160a01b0260ff60a01b19909216919091179055565b600a5481565b6000828152600c602052604081206109d59083610e14565b90505b92915050565b6000828152600c602052604081206109d59083610e20565b600081565b610a13600080516020611087833981519152336109de565b610a52576040805162461bcd60e51b815260206004820152601d6024820152600080516020611037833981519152604482015290519081900360640190fd5b60408201516001600160a01b031615801590610a72575060208101518151105b610ac3576040805162461bcd60e51b815260206004820152601e60248201527f5374616b6553696d706c6550726f78793a20736574496e6974206661696c0000604482015290519081900360640190fd5b8151600080546001600160a01b03199081166001600160a01b03938416179091556020808501516002805484169185169190911790556040948501516003805490931693169290921790558151600455810151600581905591015101600655565b6009602052600090815260409020805460018201546002830154600384015460048501546005860154600690960154949593949293919290919060ff1687565b60075481565b6000818152600c602052604081206109d890610e35565b6000828152600c6020526040902060020154610b9f906106e0610d3e565b6107855760405162461bcd60e51b81526004018080602001828103825260308152602001806110576030913960400191505060405180910390fd5b6001600160a01b03166000908152600960205260409020805460018201546002830154600384015460048501546005860154600690960154949693959294919390929160ff1690565b610c3b600080516020611087833981519152336109de565b610c7a576040805162461bcd60e51b815260206004820152601d6024820152600080516020611037833981519152604482015290519081900360640190fd5b336001600160a01b0382161415610cd8576040805162461bcd60e51b815260206004820152601b60248201527f5374616b6553696d706c6550726f78793a73616d65206f776e65720000000000604482015290519081900360640190fd5b610cf0600080516020611087833981519152826106c2565b610d0860008051602061108783398151915233610b81565b50565b6003546001600160a01b031681565b6000546001600160a01b031681565b60006109d5836001600160a01b038416610e40565b3390565b6000828152600c60205260409020610d5a9082610d29565b1561072a57610d67610d3e565b6001600160a01b0316816001600160a01b0316837f2f8788117e7eff1d82e926ec794901d17c78024a50270940304540a733656f0d60405160405180910390a45050565b6000828152600c60205260409020610dc39082610e8a565b1561072a57610dd0610d3e565b6001600160a01b0316816001600160a01b0316837ff6391f5c32d9c69d2a47ea670b442974b53935d1edc7fd64eb21e047a839171b60405160405180910390a45050565b60006109d58383610e9f565b60006109d5836001600160a01b038416610f03565b60006109d882610f1b565b6000610e4c8383610f03565b610e82575081546001818101845560008481526020808220909301849055845484825282860190935260409020919091556109d8565b5060006109d8565b60006109d5836001600160a01b038416610f1f565b81546000908210610ee15760405162461bcd60e51b8152600401808060200182810382526022815260200180610fe66022913960400191505060405180910390fd5b826000018281548110610ef057fe5b9060005260206000200154905092915050565b60009081526001919091016020526040902054151590565b5490565b60008181526001830160205260408120548015610fdb5783546000198083019190810190600090879083908110610f5257fe5b9060005260206000200154905080876000018481548110610f6f57fe5b600091825260208083209091019290925582815260018981019092526040902090840190558654879080610f9f57fe5b600190038181906000526020600020016000905590558660010160008781526020019081526020016000206000905560019450505050506109d8565b60009150506109d856fe456e756d657261626c655365743a20696e646578206f7574206f6620626f756e6473416363657373436f6e74726f6c3a2073656e646572206d75737420626520616e2061646d696e20746f206772616e745374616b6553696d706c6550726f78793a6e6f7420616e2061646d696e000000416363657373436f6e74726f6c3a2073656e646572206d75737420626520616e2061646d696e20746f207265766f6b65df8b4c520ffe197c5343c6f5aec59570151ef9a492f2c624fd45ddde6135ec425374616b6553696d706c6550726f78793a20696d706c206973207a65726f204f522070726f78792069732066616c7365416363657373436f6e74726f6c3a2063616e206f6e6c792072656e6f756e636520726f6c657320666f722073656c66a2646970667358221220e83c7e97dd6148dbf29f7880a6c2973d6ea0efd1b2ae644e336072ad7763eee064736f6c63430007060033df8b4c520ffe197c5343c6f5aec59570151ef9a492f2c624fd45ddde6135ec42df8b4c520ffe197c5343c6f5aec59570151ef9a492f2c624fd45ddde6135ec42a26469706673582212203d8b4937047f2e3c3c0c04d942a6fec13433b82f0974a659e01bae394fb4b5d764736f6c63430007060033",
  "immutableReferences": {},
  "source": "// SPDX-License-Identifier: MIT\npragma solidity ^0.7.6;\n\nimport \"../interfaces/IStakeSimpleFactory.sol\";\nimport {StakeSimpleProxy} from \"../stake/StakeSimpleProxy.sol\";\n\n/// @title A factory that creates a stake contract\ncontract StakeSimpleFactory is IStakeSimpleFactory {\n    bytes32 public constant ADMIN_ROLE = keccak256(\"ADMIN\");\n\n    address public stakeSimpleLogic;\n\n    /// @dev constructor of StakeSimpleFactory\n    /// @param _stakeSimpleLogic the logic address used in StakeSimpleFactory\n    constructor(address _stakeSimpleLogic) {\n        require(\n            _stakeSimpleLogic != address(0),\n            \"StakeSimpleFactory: logic zero\"\n        );\n        stakeSimpleLogic = _stakeSimpleLogic;\n    }\n\n    /// @dev Create a stake contract that can operate the staked amount as a DeFi project.\n    /// @param _addr array of [token, paytoken, vault]\n    /// @param _intdata array of [saleStartBlock, startBlock, periodBlocks]\n    /// @param owner  owner address\n    /// @return contract address\n    function create(\n        address[3] calldata _addr,\n        uint256[3] calldata _intdata,\n        address owner\n    ) external override returns (address) {\n        StakeSimpleProxy proxy = new StakeSimpleProxy(stakeSimpleLogic);\n        require(address(proxy) != address(0), \"StakeSimpleFactory: proxy zero\");\n\n        proxy.setInit(_addr, _intdata);\n        proxy.grantRole(ADMIN_ROLE, owner);\n        proxy.revokeRole(ADMIN_ROLE, address(this));\n\n        return address(proxy);\n    }\n}\n",
  "sourcePath": "/Users/zena/ico2.0/ico20-contracts/contracts/factory/StakeSimpleFactory.sol",
  "compiler": {
    "name": "solc",
    "version": "0.7.6+commit.7338295f.Emscripten.clang"
  },
  "schemaVersion": "3.3.4",
  "updatedAt": "2021-06-15T09:38:41.443Z",
  "devdoc": {
    "kind": "dev",
    "methods": {
      "constructor": {
        "details": "constructor of StakeSimpleFactory",
        "params": {
          "_stakeSimpleLogic": "the logic address used in StakeSimpleFactory"
        }
      },
      "create(address[3],uint256[3],address)": {
        "details": "Create a stake contract that can operate the staked amount as a DeFi project.",
        "params": {
          "_addr": "array of [token, paytoken, vault]",
          "_intdata": "array of [saleStartBlock, startBlock, periodBlocks]",
          "owner": "owner address"
        },
        "returns": {
          "_0": "contract address"
        }
      }
    },
    "title": "A factory that creates a stake contract",
    "version": 1
  },
  "userdoc": {
    "kind": "user",
    "methods": {},
    "version": 1
  }
}