{
  "contractName": "StakeRegistry",
  "abi": [
    {
      "inputs": [],
      "stateMutability": "nonpayable",
      "type": "constructor"
    },
    {
      "anonymous": false,
      "inputs": [
        {
          "indexed": true,
          "internalType": "bytes32",
          "name": "role",
          "type": "bytes32"
        },
        {
          "indexed": true,
          "internalType": "bytes32",
          "name": "previousAdminRole",
          "type": "bytes32"
        },
        {
          "indexed": true,
          "internalType": "bytes32",
          "name": "newAdminRole",
          "type": "bytes32"
        }
      ],
      "name": "RoleAdminChanged",
      "type": "event"
    },
    {
      "anonymous": false,
      "inputs": [
        {
          "indexed": true,
          "internalType": "bytes32",
          "name": "role",
          "type": "bytes32"
        },
        {
          "indexed": true,
          "internalType": "address",
          "name": "account",
          "type": "address"
        },
        {
          "indexed": true,
          "internalType": "address",
          "name": "sender",
          "type": "address"
        }
      ],
      "name": "RoleGranted",
      "type": "event"
    },
    {
      "anonymous": false,
      "inputs": [
        {
          "indexed": true,
          "internalType": "bytes32",
          "name": "role",
          "type": "bytes32"
        },
        {
          "indexed": true,
          "internalType": "address",
          "name": "account",
          "type": "address"
        },
        {
          "indexed": true,
          "internalType": "address",
          "name": "sender",
          "type": "address"
        }
      ],
      "name": "RoleRevoked",
      "type": "event"
    },
    {
      "inputs": [],
      "name": "ADMIN_ROLE",
      "outputs": [
        {
          "internalType": "bytes32",
          "name": "",
          "type": "bytes32"
        }
      ],
      "stateMutability": "view",
      "type": "function"
    },
    {
      "inputs": [],
      "name": "DEFAULT_ADMIN_ROLE",
      "outputs": [
        {
          "internalType": "bytes32",
          "name": "",
          "type": "bytes32"
        }
      ],
      "stateMutability": "view",
      "type": "function"
    },
    {
      "inputs": [],
      "name": "ZERO_HASH",
      "outputs": [
        {
          "internalType": "bytes32",
          "name": "",
          "type": "bytes32"
        }
      ],
      "stateMutability": "view",
      "type": "function"
    },
    {
      "inputs": [
        {
          "internalType": "bytes32",
          "name": "role",
          "type": "bytes32"
        }
      ],
      "name": "getRoleAdmin",
      "outputs": [
        {
          "internalType": "bytes32",
          "name": "",
          "type": "bytes32"
        }
      ],
      "stateMutability": "view",
      "type": "function"
    },
    {
      "inputs": [
        {
          "internalType": "bytes32",
          "name": "role",
          "type": "bytes32"
        },
        {
          "internalType": "uint256",
          "name": "index",
          "type": "uint256"
        }
      ],
      "name": "getRoleMember",
      "outputs": [
        {
          "internalType": "address",
          "name": "",
          "type": "address"
        }
      ],
      "stateMutability": "view",
      "type": "function"
    },
    {
      "inputs": [
        {
          "internalType": "bytes32",
          "name": "role",
          "type": "bytes32"
        }
      ],
      "name": "getRoleMemberCount",
      "outputs": [
        {
          "internalType": "uint256",
          "name": "",
          "type": "uint256"
        }
      ],
      "stateMutability": "view",
      "type": "function"
    },
    {
      "inputs": [
        {
          "internalType": "bytes32",
          "name": "role",
          "type": "bytes32"
        },
        {
          "internalType": "address",
          "name": "account",
          "type": "address"
        }
      ],
      "name": "grantRole",
      "outputs": [],
      "stateMutability": "nonpayable",
      "type": "function"
    },
    {
      "inputs": [
        {
          "internalType": "bytes32",
          "name": "role",
          "type": "bytes32"
        },
        {
          "internalType": "address",
          "name": "account",
          "type": "address"
        }
      ],
      "name": "hasRole",
      "outputs": [
        {
          "internalType": "bool",
          "name": "",
          "type": "bool"
        }
      ],
      "stateMutability": "view",
      "type": "function"
    },
    {
      "inputs": [
        {
          "internalType": "uint256",
          "name": "",
          "type": "uint256"
        },
        {
          "internalType": "uint256",
          "name": "",
          "type": "uint256"
        }
      ],
      "name": "phases",
      "outputs": [
        {
          "internalType": "address",
          "name": "",
          "type": "address"
        }
      ],
      "stateMutability": "view",
      "type": "function"
    },
    {
      "inputs": [
        {
          "internalType": "bytes32",
          "name": "role",
          "type": "bytes32"
        },
        {
          "internalType": "address",
          "name": "account",
          "type": "address"
        }
      ],
      "name": "renounceRole",
      "outputs": [],
      "stateMutability": "nonpayable",
      "type": "function"
    },
    {
      "inputs": [
        {
          "internalType": "bytes32",
          "name": "role",
          "type": "bytes32"
        },
        {
          "internalType": "address",
          "name": "account",
          "type": "address"
        }
      ],
      "name": "revokeRole",
      "outputs": [],
      "stateMutability": "nonpayable",
      "type": "function"
    },
    {
      "inputs": [
        {
          "internalType": "address",
          "name": "",
          "type": "address"
        }
      ],
      "name": "stakeContractVault",
      "outputs": [
        {
          "internalType": "address",
          "name": "",
          "type": "address"
        }
      ],
      "stateMutability": "view",
      "type": "function"
    },
    {
      "inputs": [
        {
          "internalType": "address",
          "name": "",
          "type": "address"
        },
        {
          "internalType": "uint256",
          "name": "",
          "type": "uint256"
        }
      ],
      "name": "stakeContractsOfVault",
      "outputs": [
        {
          "internalType": "address",
          "name": "",
          "type": "address"
        }
      ],
      "stateMutability": "view",
      "type": "function"
    },
    {
      "inputs": [
        {
          "internalType": "address",
          "name": "",
          "type": "address"
        }
      ],
      "name": "vaultNames",
      "outputs": [
        {
          "internalType": "bytes32",
          "name": "",
          "type": "bytes32"
        }
      ],
      "stateMutability": "view",
      "type": "function"
    },
    {
      "inputs": [
        {
          "internalType": "bytes32",
          "name": "",
          "type": "bytes32"
        }
      ],
      "name": "vaults",
      "outputs": [
        {
          "internalType": "address",
          "name": "",
          "type": "address"
        }
      ],
      "stateMutability": "view",
      "type": "function"
    },
    {
      "inputs": [
        {
          "internalType": "uint256",
          "name": "_phase",
          "type": "uint256"
        },
        {
          "internalType": "bytes32",
          "name": "_vaultName",
          "type": "bytes32"
        },
        {
          "internalType": "address",
          "name": "_vault",
          "type": "address"
        }
      ],
      "name": "addVault",
      "outputs": [],
      "stateMutability": "nonpayable",
      "type": "function"
    },
    {
      "inputs": [
        {
          "internalType": "uint256",
          "name": "_phase",
          "type": "uint256"
        },
        {
          "internalType": "address",
          "name": "_vault",
          "type": "address"
        }
      ],
      "name": "validVault",
      "outputs": [
        {
          "internalType": "bool",
          "name": "valid",
          "type": "bool"
        }
      ],
      "stateMutability": "view",
      "type": "function"
    },
    {
      "inputs": [
        {
          "internalType": "address",
          "name": "_vault",
          "type": "address"
        },
        {
          "internalType": "address",
          "name": "_stakeContract",
          "type": "address"
        }
      ],
      "name": "addStakeContract",
      "outputs": [],
      "stateMutability": "nonpayable",
      "type": "function"
    },
    {
      "inputs": [
        {
          "internalType": "uint256",
          "name": "_index",
          "type": "uint256"
        }
      ],
      "name": "phasesAll",
      "outputs": [
        {
          "internalType": "address[]",
          "name": "",
          "type": "address[]"
        }
      ],
      "stateMutability": "view",
      "type": "function"
    },
    {
      "inputs": [
        {
          "internalType": "address",
          "name": "_vault",
          "type": "address"
        }
      ],
      "name": "stakeContractsOfVaultAll",
      "outputs": [
        {
          "internalType": "address[]",
          "name": "",
          "type": "address[]"
        }
      ],
      "stateMutability": "view",
      "type": "function"
    }
  ],
  "bytecode": "0x60806040523480156200001157600080fd5b506200002d600080516020620010a9833981519152806200004e565b62000048600080516020620010a983398151915233620000a0565b620001b4565b600082815260208190526040808220600201549051839285917fbd79b86ffe0ab8e8776151514217cd7cacd52c909f66475c3af44e129f0b00ff9190a460009182526020829052604090912060020155565b620000ac8282620000b0565b5050565b600082815260208181526040909120620000d5918390620008a762000129821b17901c565b15620000ac57620000e562000149565b6001600160a01b0316816001600160a01b0316837f2f8788117e7eff1d82e926ec794901d17c78024a50270940304540a733656f0d60405160405180910390a45050565b600062000140836001600160a01b0384166200014d565b90505b92915050565b3390565b60006200015b83836200019c565b620001935750815460018181018455600084815260208082209093018490558454848252828601909352604090209190915562000143565b50600062000143565b60009081526001919091016020526040902054151590565b610ee580620001c46000396000f3fe608060405234801561001057600080fd5b506004361061012c5760003560e01c8063918dafa4116100ad578063ca15c87311610071578063ca15c87314610264578063cca23bf214610277578063d547741f1461028a578063f025a6571461029d578063faeb6b9f146102b05761012c565b8063918dafa41461020b57806391d148541461021e578063a217fddf146101a2578063a8fcc09a14610231578063a95031f1146102515761012c565b80635294fcef116100f45780635294fcef146101aa5780636b7e2bd0146101bd57806375b238fc146101dd5780638dea8fd7146101e55780639010d07c146101f85761012c565b8063248a9ca3146101315780632f2ff15d1461015a57806336568abe1461016f5780634be8b116146101825780634ce76a3c146101a2575b600080fd5b61014461013f366004610bef565b6102c3565b6040516101519190610cea565b60405180910390f35b61016d610168366004610c07565b6102db565b005b61016d61017d366004610c07565b610342565b610195610190366004610bc6565b6103a3565b6040516101519190610c7e565b6101446103db565b61016d6101b8366004610c4a565b6103e0565b6101d06101cb366004610c07565b6104e5565b6040516101519190610cdf565b61014461059b565b61016d6101f3366004610b94565b6105bf565b610195610206366004610c29565b6106ba565b610195610219366004610c29565b6106db565b6101d061022c366004610c07565b6106f7565b61024461023f366004610b7a565b61070f565b6040516101519190610c92565b61024461025f366004610bef565b610785565b610144610272366004610bef565b6107ef565b610195610285366004610bef565b610806565b61016d610298366004610c07565b610821565b6101446102ab366004610b7a565b61087a565b6101956102be366004610b7a565b61088c565b6000818152602081905260409020600201545b919050565b6000828152602081905260409020600201546102f99061022c6108bc565b6103345760405162461bcd60e51b815260040180806020018281038252602f815260200180610e22602f913960400191505060405180910390fd5b61033e82826108c0565b5050565b61034a6108bc565b6001600160a01b0316816001600160a01b0316146103995760405162461bcd60e51b815260040180806020018281038252602f815260200180610e81602f913960400191505060405180910390fd5b61033e8282610929565b600460205281600052604060002081815481106103bf57600080fd5b6000918252602090912001546001600160a01b03169150829050565b600081565b61040a7fdf8b4c520ffe197c5343c6f5aec59570151ef9a492f2c624fd45ddde6135ec42336106f7565b61042f5760405162461bcd60e51b815260040161042690610d83565b60405180910390fd5b6001600160a01b038116600090815260036020526040902054158061046957506000828152600260205260409020546001600160a01b0316155b6104855760405162461bcd60e51b815260040161042690610d34565b600082815260026020908152604080832080546001600160a01b039095166001600160a01b031995861681179091558084526003835281842095909555948252600180825294822080549586018155825290209092018054909216179055565b6000828152600160205260408120541580159061051957506001600160a01b03821660009081526003602052604090205415155b6105355760405162461bcd60e51b815260040161042690610cf3565b60005b60008481526001602052604090205481101561059457600084815260016020526040902080548290811061056857fe5b6000918252602090912001546001600160a01b038481169116141561058c57600191505b600101610538565b5092915050565b7fdf8b4c520ffe197c5343c6f5aec59570151ef9a492f2c624fd45ddde6135ec4281565b6105e97fdf8b4c520ffe197c5343c6f5aec59570151ef9a492f2c624fd45ddde6135ec42336106f7565b6106055760405162461bcd60e51b815260040161042690610d83565b6001600160a01b0382166000908152600360205260409020541580159061064457506001600160a01b0381811660009081526005602052604090205416155b6106605760405162461bcd60e51b815260040161042690610dc8565b6001600160a01b0390811660008181526005602090815260408083208054959096166001600160a01b0319958616811790965594825260048152938120805460018101825590825293902090920180549091169091179055565b60008281526020819052604081206106d29083610992565b90505b92915050565b600160205281600052604060002081815481106103bf57600080fd5b60008281526020819052604081206106d2908361099e565b6001600160a01b03811660009081526004602090815260409182902080548351818402810184019094528084526060939283018282801561077957602002820191906000526020600020905b81546001600160a01b0316815260019091019060200180831161075b575b50505050509050919050565b600081815260016020908152604091829020805483518184028101840190945280845260609392830182828015610779576020028201919060005260206000209081546001600160a01b0316815260019091019060200180831161075b5750505050509050919050565b60008181526020819052604081206106d5906109b3565b6002602052600090815260409020546001600160a01b031681565b60008281526020819052604090206002015461083f9061022c6108bc565b6103995760405162461bcd60e51b8152600401808060200182810382526030815260200180610e516030913960400191505060405180910390fd5b60036020526000908152604090205481565b6005602052600090815260409020546001600160a01b031681565b60006106d2836001600160a01b0384166109be565b3390565b60008281526020819052604090206108d890826108a7565b1561033e576108e56108bc565b6001600160a01b0316816001600160a01b0316837f2f8788117e7eff1d82e926ec794901d17c78024a50270940304540a733656f0d60405160405180910390a45050565b60008281526020819052604090206109419082610a08565b1561033e5761094e6108bc565b6001600160a01b0316816001600160a01b0316837ff6391f5c32d9c69d2a47ea670b442974b53935d1edc7fd64eb21e047a839171b60405160405180910390a45050565b60006106d28383610a1d565b60006106d2836001600160a01b038416610a81565b60006106d582610a99565b60006109ca8383610a81565b610a00575081546001818101845560008481526020808220909301849055845484825282860190935260409020919091556106d5565b5060006106d5565b60006106d2836001600160a01b038416610a9d565b81546000908210610a5f5760405162461bcd60e51b8152600401808060200182810382526022815260200180610e006022913960400191505060405180910390fd5b826000018281548110610a6e57fe5b9060005260206000200154905092915050565b60009081526001919091016020526040902054151590565b5490565b60008181526001830160205260408120548015610b595783546000198083019190810190600090879083908110610ad057fe5b9060005260206000200154905080876000018481548110610aed57fe5b600091825260208083209091019290925582815260018981019092526040902090840190558654879080610b1d57fe5b600190038181906000526020600020016000905590558660010160008781526020019081526020016000206000905560019450505050506106d5565b60009150506106d5565b80356001600160a01b03811681146102d657600080fd5b600060208284031215610b8b578081fd5b6106d282610b63565b60008060408385031215610ba6578081fd5b610baf83610b63565b9150610bbd60208401610b63565b90509250929050565b60008060408385031215610bd8578182fd5b610be183610b63565b946020939093013593505050565b600060208284031215610c00578081fd5b5035919050565b60008060408385031215610c19578182fd5b82359150610bbd60208401610b63565b60008060408385031215610c3b578182fd5b50508035926020909101359150565b600080600060608486031215610c5e578081fd5b8335925060208401359150610c7560408501610b63565b90509250925092565b6001600160a01b0391909116815260200190565b6020808252825182820181905260009190848201906040850190845b81811015610cd35783516001600160a01b031683529284019291840191600101610cae565b50909695505050505050565b901515815260200190565b90815260200190565b60208082526021908201527f5374616b6552656769737472793a2076616c69645661756c74206973206661696040820152601b60fa1b606082015260800190565b6020808252602f908201527f5374616b6552656769737472793a206164645661756c7420696e70757420766160408201526e6c7565206973206e6f74207a65726f60881b606082015260800190565b60208082526025908201527f5374616b6552656769737472793a2043616c6c6572206973206e6f7420616e2060408201526430b236b4b760d91b606082015260800190565b6020808252601c908201527f5374616b6552656769737472793a20696e707574206973207a65726f0000000060408201526060019056fe456e756d657261626c655365743a20696e646578206f7574206f6620626f756e6473416363657373436f6e74726f6c3a2073656e646572206d75737420626520616e2061646d696e20746f206772616e74416363657373436f6e74726f6c3a2073656e646572206d75737420626520616e2061646d696e20746f207265766f6b65416363657373436f6e74726f6c3a2063616e206f6e6c792072656e6f756e636520726f6c657320666f722073656c66a2646970667358221220b38dda5fd34264111cfe6bccc865fb73a707cd229003660ce3419491afe9fce564736f6c63430007060033df8b4c520ffe197c5343c6f5aec59570151ef9a492f2c624fd45ddde6135ec42",
  "immutableReferences": {},
  "source": "//SPDX-License-Identifier: Unlicense\npragma solidity ^0.7.6;\npragma abicoder v2;\nimport \"@openzeppelin/contracts/access/AccessControl.sol\";\nimport {IFLD} from \"../interfaces/IFLD.sol\";\nimport {IERC20} from \"../interfaces/IERC20.sol\";\n\ncontract StakeRegistry is AccessControl {\n    bytes32 public constant ADMIN_ROLE = keccak256(\"ADMIN\");\n\n    bytes32 public constant ZERO_HASH =\n        0x0000000000000000000000000000000000000000000000000000000000000000;\n\n    mapping(uint256 => address[]) public phases;\n\n    mapping(bytes32 => address) public vaults; // vaultNames - Vault\n    mapping(address => bytes32) public vaultNames; // vault - vaultNames\n\n    mapping(address => address[]) public stakeContractsOfVault; // vault - stakeContracts[]\n    mapping(address => address) public stakeContractVault; // stakeContract - vault\n\n    modifier onlyOwner() {\n        require(\n            hasRole(ADMIN_ROLE, msg.sender),\n            \"StakeRegistry: Caller is not an admin\"\n        );\n        _;\n    }\n\n    constructor() {\n        _setRoleAdmin(ADMIN_ROLE, ADMIN_ROLE);\n        _setupRole(ADMIN_ROLE, msg.sender);\n    }\n\n    /// @dev Adds vault\n    function addVault(\n        uint256 _phase,\n        bytes32 _vaultName,\n        address _vault\n    ) external onlyOwner {\n        require(\n            vaultNames[_vault] == ZERO_HASH || vaults[_vaultName] == address(0),\n            \"StakeRegistry: addVault input value is not zero\"\n        );\n        vaults[_vaultName] = _vault;\n        vaultNames[_vault] = _vaultName;\n        phases[_phase].push(_vault);\n    }\n\n    /// @dev Checks if a vault is withing the given phase\n    function validVault(uint256 _phase, address _vault)\n        external\n        view\n        returns (bool valid)\n    {\n        require(\n            phases[_phase].length > 0 && vaultNames[_vault] != ZERO_HASH,\n            \"StakeRegistry: validVault is fail\"\n        );\n\n        for (uint256 i = 0; i < phases[_phase].length; i++) {\n            if (_vault == phases[_phase][i]) valid = true;\n        }\n    }\n\n    /// @dev Stores vault and stake, and maps them togethers\n    function addStakeContract(address _vault, address _stakeContract)\n        external\n        onlyOwner\n    {\n        require(\n            vaultNames[_vault] != ZERO_HASH &&\n                stakeContractVault[_stakeContract] == address(0),\n            \"StakeRegistry: input is zero\"\n        );\n        stakeContractVault[_stakeContract] = _vault;\n        stakeContractsOfVault[_vault].push(_stakeContract);\n    }\n\n    function phasesAll(uint256 _index)\n        external\n        view\n        returns (address[] memory)\n    {\n        return phases[_index];\n    }\n\n    function stakeContractsOfVaultAll(address _vault)\n        external\n        view\n        returns (address[] memory)\n    {\n        return stakeContractsOfVault[_vault];\n    }\n}\n",
  "sourcePath": "/Users/kadyrbeknarmamatov/code/ico20-contracts/contracts/stake/StakeRegistry.sol",
  "compiler": {
    "name": "solc",
    "version": "0.7.6+commit.7338295f.Emscripten.clang"
  },
  "schemaVersion": "3.4.0",
  "updatedAt": "2021-05-10T09:27:57.943Z",
  "devdoc": {
    "kind": "dev",
    "methods": {
      "addStakeContract(address,address)": {
        "details": "Stores vault and stake, and maps them togethers"
      },
      "addVault(uint256,bytes32,address)": {
        "details": "Adds vault"
      },
      "getRoleAdmin(bytes32)": {
        "details": "Returns the admin role that controls `role`. See {grantRole} and {revokeRole}. To change a role's admin, use {_setRoleAdmin}."
      },
      "getRoleMember(bytes32,uint256)": {
        "details": "Returns one of the accounts that have `role`. `index` must be a value between 0 and {getRoleMemberCount}, non-inclusive. Role bearers are not sorted in any particular way, and their ordering may change at any point. WARNING: When using {getRoleMember} and {getRoleMemberCount}, make sure you perform all queries on the same block. See the following https://forum.openzeppelin.com/t/iterating-over-elements-on-enumerableset-in-openzeppelin-contracts/2296[forum post] for more information."
      },
      "getRoleMemberCount(bytes32)": {
        "details": "Returns the number of accounts that have `role`. Can be used together with {getRoleMember} to enumerate all bearers of a role."
      },
      "grantRole(bytes32,address)": {
        "details": "Grants `role` to `account`. If `account` had not been already granted `role`, emits a {RoleGranted} event. Requirements: - the caller must have ``role``'s admin role."
      },
      "hasRole(bytes32,address)": {
        "details": "Returns `true` if `account` has been granted `role`."
      },
      "renounceRole(bytes32,address)": {
        "details": "Revokes `role` from the calling account. Roles are often managed via {grantRole} and {revokeRole}: this function's purpose is to provide a mechanism for accounts to lose their privileges if they are compromised (such as when a trusted device is misplaced). If the calling account had been granted `role`, emits a {RoleRevoked} event. Requirements: - the caller must be `account`."
      },
      "revokeRole(bytes32,address)": {
        "details": "Revokes `role` from `account`. If `account` had been granted `role`, emits a {RoleRevoked} event. Requirements: - the caller must have ``role``'s admin role."
      },
      "validVault(uint256,address)": {
        "details": "Checks if a vault is withing the given phase"
      }
    },
    "version": 1
  },
  "userdoc": {
    "kind": "user",
    "methods": {},
    "version": 1
  }
}