{
  "contractName": "Stake",
  "abi": [
    {
      "anonymous": false,
      "inputs": [
        {
          "indexed": true,
          "internalType": "address",
          "name": "paytoken",
          "type": "address"
        },
        {
          "indexed": true,
          "internalType": "address",
          "name": "purchaser",
          "type": "address"
        },
        {
          "indexed": false,
          "internalType": "uint256",
          "name": "value",
          "type": "uint256"
        },
        {
          "indexed": false,
          "internalType": "uint256",
          "name": "duration",
          "type": "uint256"
        },
        {
          "indexed": false,
          "internalType": "uint256",
          "name": "amount",
          "type": "uint256"
        }
      ],
      "name": "Claimed",
      "type": "event"
    },
    {
      "anonymous": false,
      "inputs": [
        {
          "indexed": true,
          "internalType": "bytes32",
          "name": "role",
          "type": "bytes32"
        },
        {
          "indexed": true,
          "internalType": "bytes32",
          "name": "previousAdminRole",
          "type": "bytes32"
        },
        {
          "indexed": true,
          "internalType": "bytes32",
          "name": "newAdminRole",
          "type": "bytes32"
        }
      ],
      "name": "RoleAdminChanged",
      "type": "event"
    },
    {
      "anonymous": false,
      "inputs": [
        {
          "indexed": true,
          "internalType": "bytes32",
          "name": "role",
          "type": "bytes32"
        },
        {
          "indexed": true,
          "internalType": "address",
          "name": "account",
          "type": "address"
        },
        {
          "indexed": true,
          "internalType": "address",
          "name": "sender",
          "type": "address"
        }
      ],
      "name": "RoleGranted",
      "type": "event"
    },
    {
      "anonymous": false,
      "inputs": [
        {
          "indexed": true,
          "internalType": "bytes32",
          "name": "role",
          "type": "bytes32"
        },
        {
          "indexed": true,
          "internalType": "address",
          "name": "account",
          "type": "address"
        },
        {
          "indexed": true,
          "internalType": "address",
          "name": "sender",
          "type": "address"
        }
      ],
      "name": "RoleRevoked",
      "type": "event"
    },
    {
      "anonymous": false,
      "inputs": [
        {
          "indexed": true,
          "internalType": "address",
          "name": "paytoken",
          "type": "address"
        },
        {
          "indexed": true,
          "internalType": "address",
          "name": "purchaser",
          "type": "address"
        },
        {
          "indexed": false,
          "internalType": "uint256",
          "name": "value",
          "type": "uint256"
        },
        {
          "indexed": false,
          "internalType": "uint256",
          "name": "duration",
          "type": "uint256"
        },
        {
          "indexed": false,
          "internalType": "uint256",
          "name": "amount",
          "type": "uint256"
        }
      ],
      "name": "Staked",
      "type": "event"
    },
    {
      "anonymous": false,
      "inputs": [
        {
          "indexed": true,
          "internalType": "address",
          "name": "paytoken",
          "type": "address"
        },
        {
          "indexed": true,
          "internalType": "address",
          "name": "from",
          "type": "address"
        },
        {
          "indexed": false,
          "internalType": "address",
          "name": "token",
          "type": "address"
        },
        {
          "indexed": false,
          "internalType": "uint256",
          "name": "value",
          "type": "uint256"
        }
      ],
      "name": "Withdrawal",
      "type": "event"
    },
    {
      "inputs": [],
      "name": "ADMIN_ROLE",
      "outputs": [
        {
          "internalType": "bytes32",
          "name": "",
          "type": "bytes32"
        }
      ],
      "stateMutability": "view",
      "type": "function"
    },
    {
      "inputs": [],
      "name": "DEFAULT_ADMIN_ROLE",
      "outputs": [
        {
          "internalType": "bytes32",
          "name": "",
          "type": "bytes32"
        }
      ],
      "stateMutability": "view",
      "type": "function"
    },
    {
      "inputs": [],
      "name": "cap",
      "outputs": [
        {
          "internalType": "uint256",
          "name": "",
          "type": "uint256"
        }
      ],
      "stateMutability": "view",
      "type": "function"
    },
    {
      "inputs": [
        {
          "internalType": "uint256",
          "name": "_cap",
          "type": "uint256"
        }
      ],
      "name": "changeCap",
      "outputs": [],
      "stateMutability": "nonpayable",
      "type": "function"
    },
    {
      "inputs": [
        {
          "internalType": "uint256",
          "name": "_startTime",
          "type": "uint256"
        },
        {
          "internalType": "uint256",
          "name": "_salePeriodSeconds",
          "type": "uint256"
        },
        {
          "internalType": "uint256",
          "name": "_stakePeriodSeconds",
          "type": "uint256"
        }
      ],
      "name": "changeStartEndTime",
      "outputs": [],
      "stateMutability": "nonpayable",
      "type": "function"
    },
    {
      "inputs": [],
      "name": "defaultStakePeriod",
      "outputs": [
        {
          "internalType": "uint256",
          "name": "",
          "type": "uint256"
        }
      ],
      "stateMutability": "view",
      "type": "function"
    },
    {
      "inputs": [
        {
          "internalType": "bytes32",
          "name": "role",
          "type": "bytes32"
        }
      ],
      "name": "getRoleAdmin",
      "outputs": [
        {
          "internalType": "bytes32",
          "name": "",
          "type": "bytes32"
        }
      ],
      "stateMutability": "view",
      "type": "function"
    },
    {
      "inputs": [
        {
          "internalType": "bytes32",
          "name": "role",
          "type": "bytes32"
        },
        {
          "internalType": "uint256",
          "name": "index",
          "type": "uint256"
        }
      ],
      "name": "getRoleMember",
      "outputs": [
        {
          "internalType": "address",
          "name": "",
          "type": "address"
        }
      ],
      "stateMutability": "view",
      "type": "function"
    },
    {
      "inputs": [
        {
          "internalType": "bytes32",
          "name": "role",
          "type": "bytes32"
        }
      ],
      "name": "getRoleMemberCount",
      "outputs": [
        {
          "internalType": "uint256",
          "name": "",
          "type": "uint256"
        }
      ],
      "stateMutability": "view",
      "type": "function"
    },
    {
      "inputs": [
        {
          "internalType": "bytes32",
          "name": "role",
          "type": "bytes32"
        },
        {
          "internalType": "address",
          "name": "account",
          "type": "address"
        }
      ],
      "name": "grantRole",
      "outputs": [],
      "stateMutability": "nonpayable",
      "type": "function"
    },
    {
      "inputs": [
        {
          "internalType": "bytes32",
          "name": "role",
          "type": "bytes32"
        },
        {
          "internalType": "address",
          "name": "account",
          "type": "address"
        }
      ],
      "name": "hasRole",
      "outputs": [
        {
          "internalType": "bool",
          "name": "",
          "type": "bool"
        }
      ],
      "stateMutability": "view",
      "type": "function"
    },
    {
      "inputs": [],
      "name": "paytoken",
      "outputs": [
        {
          "internalType": "address",
          "name": "",
          "type": "address"
        }
      ],
      "stateMutability": "view",
      "type": "function"
    },
    {
      "inputs": [
        {
          "internalType": "bytes32",
          "name": "role",
          "type": "bytes32"
        },
        {
          "internalType": "address",
          "name": "account",
          "type": "address"
        }
      ],
      "name": "renounceRole",
      "outputs": [],
      "stateMutability": "nonpayable",
      "type": "function"
    },
    {
      "inputs": [
        {
          "internalType": "bytes32",
          "name": "role",
          "type": "bytes32"
        },
        {
          "internalType": "address",
          "name": "account",
          "type": "address"
        }
      ],
      "name": "revokeRole",
      "outputs": [],
      "stateMutability": "nonpayable",
      "type": "function"
    },
    {
      "inputs": [],
      "name": "rewardPerBlock",
      "outputs": [
        {
          "internalType": "uint256",
          "name": "",
          "type": "uint256"
        }
      ],
      "stateMutability": "view",
      "type": "function"
    },
    {
      "inputs": [],
      "name": "saleEndBlock",
      "outputs": [
        {
          "internalType": "uint256",
          "name": "",
          "type": "uint256"
        }
      ],
      "stateMutability": "view",
      "type": "function"
    },
    {
      "inputs": [],
      "name": "salePeriodSeconds",
      "outputs": [
        {
          "internalType": "uint256",
          "name": "",
          "type": "uint256"
        }
      ],
      "stateMutability": "view",
      "type": "function"
    },
    {
      "inputs": [],
      "name": "secondsPerBlock",
      "outputs": [
        {
          "internalType": "uint256",
          "name": "",
          "type": "uint256"
        }
      ],
      "stateMutability": "view",
      "type": "function"
    },
    {
      "inputs": [
        {
          "internalType": "uint256",
          "name": "_period",
          "type": "uint256"
        }
      ],
      "name": "setDefaultStakePeriod",
      "outputs": [],
      "stateMutability": "nonpayable",
      "type": "function"
    },
    {
      "inputs": [
        {
          "internalType": "uint256",
          "name": "",
          "type": "uint256"
        }
      ],
      "name": "snapshotBlocks",
      "outputs": [
        {
          "internalType": "uint256",
          "name": "",
          "type": "uint256"
        }
      ],
      "stateMutability": "view",
      "type": "function"
    },
    {
      "inputs": [],
      "name": "stakeEndBlock",
      "outputs": [
        {
          "internalType": "uint256",
          "name": "",
          "type": "uint256"
        }
      ],
      "stateMutability": "view",
      "type": "function"
    },
    {
      "inputs": [],
      "name": "stakePeriodSeconds",
      "outputs": [
        {
          "internalType": "uint256",
          "name": "",
          "type": "uint256"
        }
      ],
      "stateMutability": "view",
      "type": "function"
    },
    {
      "inputs": [],
      "name": "stakePeriods",
      "outputs": [
        {
          "internalType": "uint256",
          "name": "",
          "type": "uint256"
        }
      ],
      "stateMutability": "view",
      "type": "function"
    },
    {
      "inputs": [
        {
          "internalType": "uint256",
          "name": "",
          "type": "uint256"
        }
      ],
      "name": "stakedSnapshots",
      "outputs": [
        {
          "internalType": "uint256",
          "name": "blockNumber",
          "type": "uint256"
        },
        {
          "internalType": "uint256",
          "name": "totalStaked",
          "type": "uint256"
        },
        {
          "internalType": "uint256",
          "name": "balanceOfToken",
          "type": "uint256"
        },
        {
          "internalType": "uint256",
          "name": "index",
          "type": "uint256"
        }
      ],
      "stateMutability": "view",
      "type": "function"
    },
    {
      "inputs": [],
      "name": "startBlock",
      "outputs": [
        {
          "internalType": "uint256",
          "name": "",
          "type": "uint256"
        }
      ],
      "stateMutability": "view",
      "type": "function"
    },
    {
      "inputs": [],
      "name": "startTime",
      "outputs": [
        {
          "internalType": "uint256",
          "name": "",
          "type": "uint256"
        }
      ],
      "stateMutability": "view",
      "type": "function"
    },
    {
      "inputs": [],
      "name": "token",
      "outputs": [
        {
          "internalType": "address",
          "name": "",
          "type": "address"
        }
      ],
      "stateMutability": "view",
      "type": "function"
    },
    {
      "inputs": [],
      "name": "totalStaked",
      "outputs": [
        {
          "internalType": "uint256",
          "name": "",
          "type": "uint256"
        }
      ],
      "stateMutability": "view",
      "type": "function"
    },
    {
      "inputs": [
        {
          "internalType": "address",
          "name": "",
          "type": "address"
        },
        {
          "internalType": "uint256",
          "name": "",
          "type": "uint256"
        }
      ],
      "name": "userStakes",
      "outputs": [
        {
          "internalType": "uint256",
          "name": "startBlock",
          "type": "uint256"
        },
        {
          "internalType": "uint256",
          "name": "endBlock",
          "type": "uint256"
        },
        {
          "internalType": "uint256",
          "name": "stakeAmount",
          "type": "uint256"
        },
        {
          "internalType": "uint256",
          "name": "claimBlock",
          "type": "uint256"
        },
        {
          "internalType": "uint256",
          "name": "takenReward",
          "type": "uint256"
        }
      ],
      "stateMutability": "view",
      "type": "function"
    },
    {
      "inputs": [
        {
          "internalType": "address",
          "name": "",
          "type": "address"
        }
      ],
      "name": "userStakesLength",
      "outputs": [
        {
          "internalType": "uint256",
          "name": "",
          "type": "uint256"
        }
      ],
      "stateMutability": "view",
      "type": "function"
    },
    {
      "inputs": [],
      "name": "weiRaised",
      "outputs": [
        {
          "internalType": "uint256",
          "name": "",
          "type": "uint256"
        }
      ],
      "stateMutability": "view",
      "type": "function"
    },
    {
      "stateMutability": "payable",
      "type": "receive"
    },
    {
      "inputs": [
        {
          "internalType": "uint256",
          "name": "_startTime",
          "type": "uint256"
        },
        {
          "internalType": "uint256",
          "name": "_salePeriodSeconds",
          "type": "uint256"
        },
        {
          "internalType": "uint256",
          "name": "_stakePeriodSeconds",
          "type": "uint256"
        },
        {
          "internalType": "uint256",
          "name": "_cap",
          "type": "uint256"
        },
        {
          "internalType": "address",
          "name": "_token",
          "type": "address"
        },
        {
          "internalType": "address",
          "name": "_paytoken",
          "type": "address"
        }
      ],
      "name": "initialize",
      "outputs": [],
      "stateMutability": "nonpayable",
      "type": "function"
    },
    {
      "inputs": [
        {
          "internalType": "uint256",
          "name": "_period",
          "type": "uint256"
        }
      ],
      "name": "stakeETH",
      "outputs": [],
      "stateMutability": "payable",
      "type": "function"
    },
    {
      "inputs": [
        {
          "internalType": "address",
          "name": "paytoken",
          "type": "address"
        },
        {
          "internalType": "uint256",
          "name": "amount",
          "type": "uint256"
        },
        {
          "internalType": "uint256",
          "name": "period",
          "type": "uint256"
        }
      ],
      "name": "stake",
      "outputs": [],
      "stateMutability": "nonpayable",
      "type": "function"
    },
    {
      "inputs": [
        {
          "internalType": "address",
          "name": "user",
          "type": "address"
        },
        {
          "internalType": "uint256",
          "name": "indexStart",
          "type": "uint256"
        },
        {
          "internalType": "uint256",
          "name": "indexEnd",
          "type": "uint256"
        }
      ],
      "name": "availableUserReward",
      "outputs": [
        {
          "internalType": "uint256",
          "name": "reward",
          "type": "uint256"
        }
      ],
      "stateMutability": "nonpayable",
      "type": "function"
    },
    {
      "inputs": [
        {
          "internalType": "address",
          "name": "user",
          "type": "address"
        },
        {
          "internalType": "uint256",
          "name": "index",
          "type": "uint256"
        }
      ],
      "name": "availableSnapshotRecords",
      "outputs": [
        {
          "internalType": "uint256",
          "name": "reward",
          "type": "uint256"
        }
      ],
      "stateMutability": "view",
      "type": "function"
    }
  ],
  "bytecode": "0x608060405234801561001057600080fd5b5061187d806100206000396000f3fe6080604052600436106102135760003560e01c806378e9792511610118578063b5d5b5fa116100a0578063d547741f1161006f578063d547741f14610599578063d74ea9e0146105b9578063df153c13146105e9578063e9cafee714610609578063fc0c546a1461061e57610225565b8063b5d5b5fa14610508578063bed7cd7614610539578063c88aebfa14610559578063ca15c8731461057957610225565b8063817b1cd2116100e7578063817b1cd21461047c5780638ae39cac146104915780639010d07c146104a657806391d14854146104c6578063a217fddf146104f357610225565b806378e979251461041d5780637a7d4937146104325780637f60f6e914610447578063800edb9d1461045c57610225565b80633f99a12b1161019b57806348cd4cb11161016a57806348cd4cb1146103ab57806363b82c6a146103c05780636783fd31146103d55780636ecc20da146103f557806375b238fc1461040857610225565b80633f99a12b1461033f5780634042b66f14610354578063439cc54c1461036957806343b0934a1461038957610225565b8063317f09a3116101e2578063317f09a3146102b5578063355274ea146102d557806336568abe146102ea5780633a76eb371461030a5780633d7074951461031f57610225565b80630c51b88f1461022a578063248a9ca31461024a5780632e53f69c146102805780632f2ff15d1461029557610225565b3661022557610223600d54610633565b005b600080fd5b34801561023657600080fd5b50610223610245366004611544565b61065c565b34801561025657600080fd5b5061026a610265366004611596565b61074f565b60405161027791906116d7565b60405180910390f35b34801561028c57600080fd5b5061026a610767565b3480156102a157600080fd5b506102236102b03660046115ae565b61076d565b3480156102c157600080fd5b5061026a6102d0366004611596565b6107d0565b3480156102e157600080fd5b5061026a6107f1565b3480156102f657600080fd5b506102236103053660046115ae565b6107f7565b34801561031657600080fd5b5061026a610858565b34801561032b57600080fd5b5061026a61033a36600461151b565b61085e565b34801561034b57600080fd5b5061026a6109e7565b34801561036057600080fd5b5061026a6109ed565b34801561037557600080fd5b5061022361038436600461163d565b6109f3565b34801561039557600080fd5b5061039e610b59565b6040516102779190611694565b3480156103b757600080fd5b5061026a610b68565b3480156103cc57600080fd5b5061026a610b6e565b3480156103e157600080fd5b506102236103f0366004611596565b610b74565b610223610403366004611596565b610633565b34801561041457600080fd5b5061026a610bd3565b34801561042957600080fd5b5061026a610be5565b34801561043e57600080fd5b5061026a610beb565b34801561045357600080fd5b5061026a610bf1565b34801561046857600080fd5b50610223610477366004611596565b610bf7565b34801561048857600080fd5b5061026a610c53565b34801561049d57600080fd5b5061026a610c59565b3480156104b257600080fd5b5061039e6104c13660046115d9565b610c5f565b3480156104d257600080fd5b506104e66104e13660046115ae565b610c7e565b60405161027791906116cc565b3480156104ff57600080fd5b5061026a610c96565b34801561051457600080fd5b5061052861052336600461151b565b610c9b565b6040516102779594939291906116fb565b34801561054557600080fd5b50610223610554366004611612565b610ce9565b34801561056557600080fd5b5061026a610574366004611501565b610d4c565b34801561058557600080fd5b5061026a610594366004611596565b610d5e565b3480156105a557600080fd5b506102236105b43660046115ae565b610d75565b3480156105c557600080fd5b506105d96105d4366004611596565b610dce565b60405161027794939291906116e0565b3480156105f557600080fd5b5061026a610604366004611544565b610df5565b34801561061557600080fd5b5061026a610e99565b34801561062a57600080fd5b5061039e610e9f565b6005546000906001600160a01b03161561064c57600080fd5b6106586000348461065c565b5050565b60055483906001600160a01b0380831691161461067857600080fd5b6000831180156106885750600082115b61069157600080fd5b61069c338385610eae565b600e8054840190556001600160a01b0384161561074157600480546040516323b872dd60e01b81526001600160a01b03909116916323b872dd916106e691339130918991016116a8565b602060405180830381600087803b15801561070057600080fd5b505af1158015610714573d6000803e3d6000fd5b505050506040513d601f19601f820116820180604052508101906107389190611576565b61074157600080fd5b610749610f74565b50505050565b6000818152602081905260409020600201545b919050565b60085481565b60008281526020819052604090206002015461078b906104e16110b2565b6107c65760405162461bcd60e51b815260040180806020018281038252602f815260200180611741602f913960400191505060405180910390fd5b61065882826110b6565b601181815481106107e057600080fd5b600091825260209091200154905081565b600c5481565b6107ff6110b2565b6001600160a01b0316816001600160a01b03161461084e5760405162461bcd60e51b815260040180806020018281038252602f815260200180611819602f913960400191505060405180910390fd5b610658828261111f565b600b5481565b6001600160a01b038216600090815260126020526040812054821061088257600080fd5b6001600160a01b03831660009081526012602052604081208054849081106108a657fe5b90600052602060002090600502019050806001015481600001541080156108d1575060008160020154115b6108da57600080fd5b8060010154816003015411156108f45760009150506109e1565b805460018083015460008381526010602052604081206003808201549087015492975092939092918790869081101561092e575060038701545b6011548410801561093c5750825b156109d857601180546001909501948590811061095557fe5b906000526020600020015491506011848154811061096f57fe5b906000526020600020015486101561098957859150600092505b808203601060006011878154811061099d57fe5b90600052602060002001548152602001908152602001600020600201548960020154816109c657fe5b0460015402028901985081905061092e565b50505050505050505b92915050565b600a5481565b600f5481565b601454610100900460ff1680610a0c5750610a0c611188565b80610a1a575060145460ff16155b610a555760405162461bcd60e51b815260040180806020018281038252602e8152602001806117a0602e913960400191505060405180910390fd5b601454610100900460ff16158015610a80576014805460ff1961ff0019909116610100171660011790555b6001600160a01b038316610a9357600080fd5b60008411610aa057600080fd5b610aa8611199565b610ac06000805160206117ce833981519152806111d0565b610ad86000805160206117ce833981519152336107c6565b6001600160a01b03831615610b0357600480546001600160a01b0319166001600160a01b0385161790555b600580546001600160a01b0319166001600160a01b038416179055610b29878787611222565b610b32846112da565b610b3e621275006112ec565b8015610b50576014805461ff00191690555b50505050505050565b6005546001600160a01b031681565b60095481565b60075481565b610b8c6000805160206117ce83398151915233610c7e565b610bc75760405162461bcd60e51b815260040180806020018281038252602b8152602001806117ee602b913960400191505060405180910390fd5b610bd0816112ec565b50565b6000805160206117ce83398151915281565b60065481565b60025481565b60035481565b610c0f6000805160206117ce83398151915233610c7e565b610c4a5760405162461bcd60e51b815260040180806020018281038252602b8152602001806117ee602b913960400191505060405180910390fd5b610bd0816112da565b600e5481565b60015481565b6000828152602081905260408120610c7790836112fe565b9392505050565b6000828152602081905260408120610c77908361130a565b600081565b60126020528160005260406000208181548110610cb757600080fd5b600091825260209091206005909102018054600182015460028301546003840154600490940154929550909350919085565b610d016000805160206117ce83398151915233610c7e565b610d3c5760405162461bcd60e51b815260040180806020018281038252602b8152602001806117ee602b913960400191505060405180910390fd5b610d47838383611222565b505050565b60136020526000908152604090205481565b60008181526020819052604081206109e19061131f565b600082815260208190526040902060020154610d93906104e16110b2565b61084e5760405162461bcd60e51b81526004018080602001828103825260308152602001806117706030913960400191505060405180910390fd5b60106020526000908152604090208054600182015460028301546003909301549192909184565b600081610e1c576001600160a01b0384166000908152601260205260409020546000190191505b818311158015610e4357506001600160a01b03841660009081526012602052604090205482105b610e4c57600080fd5b506000808360605b848211158015610e6557506103e85a115b15610e8f57610e74878361085e565b92508215610e8457805182908290fe5b600190910190610e54565b5050509392505050565b600d5481565b6004546001600160a01b031681565b60025482118015610ebf5750600081115b610ec857600080fd5b60006040518060a001604052804381526020016002548581610ee657fe5b0481526020808201949094526000604080830182905260609283018290526001600160a01b039097168082526012865287822080546001818101835591845287842086516005909202019081558588015181830155858a0151600282015593850151600385015560809094015160049093019290925590815260139093529390912080549093019092555050565b43600090815260106020526040902054610fbf5760118054600181018255600091909152437f31ecc21a745e3968a04e9570e4425bc18fa8019c68028196b546d1669c200c68909101555b6005546000906001600160a01b0316610fda5750303161105d565b6005546040516370a0823160e01b81526001600160a01b03909116906370a082319061100a903090600401611694565b60206040518083038186803b15801561102257600080fd5b505afa158015611036573d6000803e3d6000fd5b505050506040513d601f19601f8201168201806040525081019061105a91906115fa565b90505b6040805160808101825243808252600e54602080840191825283850195865260115460001901606085019081526000938452601090915293909120915182555160018201559151600283015551600390910155565b3390565b60008281526020819052604090206110ce908261132a565b15610658576110db6110b2565b6001600160a01b0316816001600160a01b0316837f2f8788117e7eff1d82e926ec794901d17c78024a50270940304540a733656f0d60405160405180910390a45050565b6000828152602081905260409020611137908261133f565b15610658576111446110b2565b6001600160a01b0316816001600160a01b0316837ff6391f5c32d9c69d2a47ea670b442974b53935d1edc7fd64eb21e047a839171b60405160405180910390a45050565b600061119330611354565b15905090565b6111b16000805160206117ce833981519152806111d0565b6111c96000805160206117ce833981519152336107c6565b600d600255565b600082815260208190526040808220600201549051839285917fbd79b86ffe0ab8e8776151514217cd7cacd52c909f66475c3af44e129f0b00ff9190a460009182526020829052604090912060020155565b42831180156112315750600082115b801561123d5750600081115b61124657600080fd5b6006548314158061125957506007548214155b8061126657506008548114155b61126f57600080fd5b8082111561127c57600080fd5b60068390556007829055600881905560025443904285038161129a57fe5b040160095560025443904285850103816112b057fe5b0401600a5560025443904285840103816112c657fe5b0401600b8190556009549003600355505050565b600081116112e757600080fd5b600c55565b600081116112f957600080fd5b600d55565b6000610c77838361135a565b6000610c77836001600160a01b0384166113be565b60006109e1826113d6565b6000610c77836001600160a01b0384166113da565b6000610c77836001600160a01b038416611424565b3b151590565b8154600090821061139c5760405162461bcd60e51b815260040180806020018281038252602281526020018061171f6022913960400191505060405180910390fd5b8260000182815481106113ab57fe5b9060005260206000200154905092915050565b60009081526001919091016020526040902054151590565b5490565b60006113e683836113be565b61141c575081546001818101845560008481526020808220909301849055845484825282860190935260409020919091556109e1565b5060006109e1565b600081815260018301602052604081205480156114e0578354600019808301919081019060009087908390811061145757fe5b906000526020600020015490508087600001848154811061147457fe5b6000918252602080832090910192909255828152600189810190925260409020908401905586548790806114a457fe5b600190038181906000526020600020016000905590558660010160008781526020019081526020016000206000905560019450505050506109e1565b60009150506109e1565b80356001600160a01b038116811461076257600080fd5b600060208284031215611512578081fd5b610c77826114ea565b6000806040838503121561152d578081fd5b611536836114ea565b946020939093013593505050565b600080600060608486031215611558578081fd5b611561846114ea565b95602085013595506040909401359392505050565b600060208284031215611587578081fd5b81518015158114610c77578182fd5b6000602082840312156115a7578081fd5b5035919050565b600080604083850312156115c0578182fd5b823591506115d0602084016114ea565b90509250929050565b600080604083850312156115eb578182fd5b50508035926020909101359150565b60006020828403121561160b578081fd5b5051919050565b600080600060608486031215611626578283fd5b505081359360208301359350604090920135919050565b60008060008060008060c08789031215611655578182fd5b8635955060208701359450604087013593506060870135925061167a608088016114ea565b915061168860a088016114ea565b90509295509295509295565b6001600160a01b0391909116815260200190565b6001600160a01b039384168152919092166020820152604081019190915260600190565b901515815260200190565b90815260200190565b93845260208401929092526040830152606082015260800190565b948552602085019390935260408401919091526060830152608082015260a0019056fe456e756d657261626c655365743a20696e646578206f7574206f6620626f756e6473416363657373436f6e74726f6c3a2073656e646572206d75737420626520616e2061646d696e20746f206772616e74416363657373436f6e74726f6c3a2073656e646572206d75737420626520616e2061646d696e20746f207265766f6b65496e697469616c697a61626c653a20636f6e747261637420697320616c726561647920696e697469616c697a6564df8b4c520ffe197c5343c6f5aec59570151ef9a492f2c624fd45ddde6135ec425374616b6553746f7261676553657474696e673a2043616c6c6572206973206e6f7420616e2061646d696e416363657373436f6e74726f6c3a2063616e206f6e6c792072656e6f756e636520726f6c657320666f722073656c66a264697066735822122063e6d07f1e4e26f1a772c68cbdab46dd4928370d7ae7d1953439e7c44573727e64736f6c63430007060033",
  "immutableReferences": {},
  "source": "//SPDX-License-Identifier: Unlicense\npragma solidity ^0.7.6;\npragma abicoder v2;\n\nimport \"../interfaces/IERC20.sol\";\nimport \"@openzeppelin/contracts-upgradeable/proxy/Initializable.sol\";\nimport \"../interfaces/IFLDVault.sol\";\n\nimport \"../libraries/LibTokenStake.sol\";\nimport './StakeStorageSetting.sol';\n\n/**\n * @title Stake\n * Investors can submit Ether or specific tokens to lock them in the contract and mine FLD tokens.\n * @dev\n */\ncontract Stake\n    is\n    StakeStorageSetting, Initializable\n{\n\n    event Staked(address indexed paytoken, address indexed purchaser, uint256 value, uint256 duration, uint256 amount);\n    event Claimed(address indexed paytoken, address indexed purchaser, uint256 value, uint256 duration, uint256 amount);\n    event Withdrawal(address indexed paytoken, address indexed from, address token, uint256 value);\n\n    function initialize(\n        uint256 _startTime,\n        uint256 _salePeriodSeconds,\n        uint256 _stakePeriodSeconds,\n        uint256 _cap,\n        address _token,\n        address _paytoken\n    )\n        external\n        initializer\n    {\n        require(_token != address(0));\n        require(_cap > 0 );\n\n        _initialize();\n        _setRoleAdmin(ADMIN_ROLE, ADMIN_ROLE);\n        _setupRole(ADMIN_ROLE, msg.sender);\n\n        if(_token != address(0)) token = _token;\n        paytoken = _paytoken;\n        _changeStartEndTime(_startTime, _salePeriodSeconds, _stakePeriodSeconds);\n        _changeCap(_cap);\n        _setDefaultStakePeriod(60*60*24*14); // 2 weeks\n    }\n\n    receive() external payable {\n      stakeETH(defaultStakePeriod);\n    }\n\n    function stakeETH(uint256 _period)\n        public payable\n        isValidToken(address(0))\n    {\n        stake(address(0), msg.value, _period);\n    }\n\n    function stake(address paytoken, uint256 amount, uint256 period)\n        public\n        isValidToken(paytoken)\n    {\n        require(amount > 0 && period > 0);\n\n        _addUserStake(msg.sender, period, amount);\n\n        totalStaked += amount;\n\n        if(paytoken != address(0)){\n            require(IERC20(token).transferFrom(msg.sender, address(this), amount));\n        }\n\n        _addSnapshot();\n    }\n\n    //      ,     \n    function availableUserReward(address user, uint256 indexStart, uint256 indexEnd)\n        external\n        returns (uint256 reward )\n    {\n        if(indexEnd == 0) indexEnd = userStakes[user].length-1;\n        require(indexStart <= indexEnd && indexEnd < userStakes[user].length);\n        reward = 0;\n        uint256 tempReward = 0;\n        uint256 i = indexStart;\n        uint256[] memory applyIndexs;\n\n        while(i <= indexEnd && gasleft() > 1000 ){\n            tempReward = availableSnapshotRecords(user, i);\n            if(tempReward > 0) {\n                applyIndexs[applyIndexs.length] = i;\n                reward += tempReward;\n            }\n            i++;\n        }\n    }\n\n    //    \n    function availableSnapshotRecords(address user, uint256 index)\n        public view\n        returns (uint256 reward)\n    {\n        require(index < userStakes[user].length);\n\n        LibTokenStake.userStake storage userRecord = userStakes[user][index];\n\n        require(userRecord.startBlock < userRecord.endBlock && userRecord.stakeAmount > 0 );\n        if(userRecord.claimBlock > userRecord.endBlock )  return 0;\n\n        reward = 0;\n        uint256  userStakeStart = userRecord.startBlock;\n        uint256  userStakeEnd = userRecord.endBlock;\n\n        //   .\n        //uint256 userStakeAmount = userRecord.stakeAmount;\n        //uint256 userStakeLastClaim  = userRecord.claimBlock;\n\n        LibTokenStake.StakedSnapshot storage snapshotStart = stakedSnapshots[userStakeStart];\n\n        uint256 i = snapshotStart.index;\n        //  \n        //uint256 startTotalBalance = snapshotStart.balanceOfToken;\n        bool loopLogic = true;\n        //  \n        uint256 endBlock = 0;\n        uint256 startBlock = 0;\n        startBlock = userRecord.startBlock;\n        if(userRecord.claimBlock > userRecord.startBlock )  startBlock = userRecord.claimBlock;\n        while(i < snapshotBlocks.length && loopLogic){\n            i++;\n            //   .\n            //LibTokenStake.StakedSnapshot storage snapshot = stakedSnapshots[snapshotBlocks[i]];\n            endBlock = snapshotBlocks[i];\n            if (userStakeEnd  < snapshotBlocks[i]) {\n                //    \n                endBlock = userStakeEnd;\n                loopLogic = false;\n            }\n            reward += rewardPerBlock\n                * (userRecord.stakeAmount / stakedSnapshots[snapshotBlocks[i]].balanceOfToken)\n                * (endBlock - startBlock);\n\n            startBlock = endBlock ;\n        }\n    }\n\n    function _addUserStake(\n        address user,\n        uint256 _periods,\n        uint256 _amount\n    ) internal {\n\n        require(_periods  > secondsPerBlock && _amount > 0 );\n\n        LibTokenStake.userStake memory stakeInfo = LibTokenStake.userStake(\n            block.number,\n            _periods / secondsPerBlock,\n            _amount,\n            0,\n            0\n        );\n\n        userStakes[user].push(stakeInfo);\n        userStakesLength[user] += 1;\n    }\n\n    function _addSnapshot() internal {\n\n        if(stakedSnapshots[block.number].blockNumber == 0){\n            snapshotBlocks.push(block.number);\n        }\n\n        uint256 balanceOfPaytoken = 0;\n\n        if (paytoken == address(0)) {\n            address payable self = address(uint160(address(this)));\n            balanceOfPaytoken = self.balance;\n\n        } else {\n            balanceOfPaytoken = IERC20(paytoken).balanceOf(address(this));\n        }\n\n        LibTokenStake.StakedSnapshot memory Snapshot = LibTokenStake.StakedSnapshot(\n            block.number,\n            totalStaked,\n            balanceOfPaytoken,\n            snapshotBlocks.length-1\n        );\n        stakedSnapshots[block.number] = Snapshot;\n    }\n\n}",
  "sourcePath": "/Users/zena/ico2.0/ico20-contracts/contracts/stake/StakeWithSalePeriod.sol",
  "compiler": {
    "name": "solc",
    "version": "0.7.6+commit.7338295f.Emscripten.clang"
  },
  "schemaVersion": "3.3.4",
  "updatedAt": "2021-04-24T02:00:50.422Z",
  "devdoc": {
    "kind": "dev",
    "methods": {
      "getRoleAdmin(bytes32)": {
        "details": "Returns the admin role that controls `role`. See {grantRole} and {revokeRole}. To change a role's admin, use {_setRoleAdmin}."
      },
      "getRoleMember(bytes32,uint256)": {
        "details": "Returns one of the accounts that have `role`. `index` must be a value between 0 and {getRoleMemberCount}, non-inclusive. Role bearers are not sorted in any particular way, and their ordering may change at any point. WARNING: When using {getRoleMember} and {getRoleMemberCount}, make sure you perform all queries on the same block. See the following https://forum.openzeppelin.com/t/iterating-over-elements-on-enumerableset-in-openzeppelin-contracts/2296[forum post] for more information."
      },
      "getRoleMemberCount(bytes32)": {
        "details": "Returns the number of accounts that have `role`. Can be used together with {getRoleMember} to enumerate all bearers of a role."
      },
      "grantRole(bytes32,address)": {
        "details": "Grants `role` to `account`. If `account` had not been already granted `role`, emits a {RoleGranted} event. Requirements: - the caller must have ``role``'s admin role."
      },
      "hasRole(bytes32,address)": {
        "details": "Returns `true` if `account` has been granted `role`."
      },
      "renounceRole(bytes32,address)": {
        "details": "Revokes `role` from the calling account. Roles are often managed via {grantRole} and {revokeRole}: this function's purpose is to provide a mechanism for accounts to lose their privileges if they are compromised (such as when a trusted device is misplaced). If the calling account had been granted `role`, emits a {RoleRevoked} event. Requirements: - the caller must be `account`."
      },
      "revokeRole(bytes32,address)": {
        "details": "Revokes `role` from `account`. If `account` had been granted `role`, emits a {RoleRevoked} event. Requirements: - the caller must have ``role``'s admin role."
      }
    },
    "title": "Stake Investors can submit Ether or specific tokens to lock them in the contract and mine FLD tokens.",
    "version": 1
  },
  "userdoc": {
    "kind": "user",
    "methods": {},
    "version": 1
  }
}