{
  "contractName": "StakeSimpleProxy",
  "abi": [
    {
      "inputs": [
        {
          "internalType": "address",
          "name": "_logic",
          "type": "address"
        }
      ],
      "stateMutability": "nonpayable",
      "type": "constructor"
    },
    {
      "anonymous": false,
      "inputs": [
        {
          "indexed": true,
          "internalType": "bytes32",
          "name": "role",
          "type": "bytes32"
        },
        {
          "indexed": true,
          "internalType": "bytes32",
          "name": "previousAdminRole",
          "type": "bytes32"
        },
        {
          "indexed": true,
          "internalType": "bytes32",
          "name": "newAdminRole",
          "type": "bytes32"
        }
      ],
      "name": "RoleAdminChanged",
      "type": "event"
    },
    {
      "anonymous": false,
      "inputs": [
        {
          "indexed": true,
          "internalType": "bytes32",
          "name": "role",
          "type": "bytes32"
        },
        {
          "indexed": true,
          "internalType": "address",
          "name": "account",
          "type": "address"
        },
        {
          "indexed": true,
          "internalType": "address",
          "name": "sender",
          "type": "address"
        }
      ],
      "name": "RoleGranted",
      "type": "event"
    },
    {
      "anonymous": false,
      "inputs": [
        {
          "indexed": true,
          "internalType": "bytes32",
          "name": "role",
          "type": "bytes32"
        },
        {
          "indexed": true,
          "internalType": "address",
          "name": "account",
          "type": "address"
        },
        {
          "indexed": true,
          "internalType": "address",
          "name": "sender",
          "type": "address"
        }
      ],
      "name": "RoleRevoked",
      "type": "event"
    },
    {
      "anonymous": false,
      "inputs": [
        {
          "indexed": true,
          "internalType": "address",
          "name": "implementation",
          "type": "address"
        }
      ],
      "name": "Upgraded",
      "type": "event"
    },
    {
      "stateMutability": "payable",
      "type": "fallback"
    },
    {
      "inputs": [],
      "name": "ADMIN_ROLE",
      "outputs": [
        {
          "internalType": "bytes32",
          "name": "",
          "type": "bytes32"
        }
      ],
      "stateMutability": "view",
      "type": "function"
    },
    {
      "inputs": [],
      "name": "DEFAULT_ADMIN_ROLE",
      "outputs": [
        {
          "internalType": "bytes32",
          "name": "",
          "type": "bytes32"
        }
      ],
      "stateMutability": "view",
      "type": "function"
    },
    {
      "inputs": [],
      "name": "endBlock",
      "outputs": [
        {
          "internalType": "uint256",
          "name": "",
          "type": "uint256"
        }
      ],
      "stateMutability": "view",
      "type": "function"
    },
    {
      "inputs": [
        {
          "internalType": "bytes32",
          "name": "role",
          "type": "bytes32"
        }
      ],
      "name": "getRoleAdmin",
      "outputs": [
        {
          "internalType": "bytes32",
          "name": "",
          "type": "bytes32"
        }
      ],
      "stateMutability": "view",
      "type": "function"
    },
    {
      "inputs": [
        {
          "internalType": "bytes32",
          "name": "role",
          "type": "bytes32"
        },
        {
          "internalType": "uint256",
          "name": "index",
          "type": "uint256"
        }
      ],
      "name": "getRoleMember",
      "outputs": [
        {
          "internalType": "address",
          "name": "",
          "type": "address"
        }
      ],
      "stateMutability": "view",
      "type": "function"
    },
    {
      "inputs": [
        {
          "internalType": "bytes32",
          "name": "role",
          "type": "bytes32"
        }
      ],
      "name": "getRoleMemberCount",
      "outputs": [
        {
          "internalType": "uint256",
          "name": "",
          "type": "uint256"
        }
      ],
      "stateMutability": "view",
      "type": "function"
    },
    {
      "inputs": [
        {
          "internalType": "address",
          "name": "user",
          "type": "address"
        }
      ],
      "name": "getUserStaked",
      "outputs": [
        {
          "internalType": "uint256",
          "name": "amount",
          "type": "uint256"
        },
        {
          "internalType": "uint256",
          "name": "claimedBlock",
          "type": "uint256"
        },
        {
          "internalType": "uint256",
          "name": "claimedAmount",
          "type": "uint256"
        },
        {
          "internalType": "uint256",
          "name": "releasedBlock",
          "type": "uint256"
        },
        {
          "internalType": "uint256",
          "name": "releasedAmount",
          "type": "uint256"
        },
        {
          "internalType": "uint256",
          "name": "releasedFLDAmount",
          "type": "uint256"
        },
        {
          "internalType": "bool",
          "name": "released",
          "type": "bool"
        }
      ],
      "stateMutability": "view",
      "type": "function"
    },
    {
      "inputs": [
        {
          "internalType": "bytes32",
          "name": "role",
          "type": "bytes32"
        },
        {
          "internalType": "address",
          "name": "account",
          "type": "address"
        }
      ],
      "name": "grantRole",
      "outputs": [],
      "stateMutability": "nonpayable",
      "type": "function"
    },
    {
      "inputs": [
        {
          "internalType": "bytes32",
          "name": "role",
          "type": "bytes32"
        },
        {
          "internalType": "address",
          "name": "account",
          "type": "address"
        }
      ],
      "name": "hasRole",
      "outputs": [
        {
          "internalType": "bool",
          "name": "",
          "type": "bool"
        }
      ],
      "stateMutability": "view",
      "type": "function"
    },
    {
      "inputs": [],
      "name": "pauseProxy",
      "outputs": [
        {
          "internalType": "bool",
          "name": "",
          "type": "bool"
        }
      ],
      "stateMutability": "view",
      "type": "function"
    },
    {
      "inputs": [],
      "name": "paytoken",
      "outputs": [
        {
          "internalType": "address",
          "name": "",
          "type": "address"
        }
      ],
      "stateMutability": "view",
      "type": "function"
    },
    {
      "inputs": [
        {
          "internalType": "bytes32",
          "name": "role",
          "type": "bytes32"
        },
        {
          "internalType": "address",
          "name": "account",
          "type": "address"
        }
      ],
      "name": "renounceRole",
      "outputs": [],
      "stateMutability": "nonpayable",
      "type": "function"
    },
    {
      "inputs": [
        {
          "internalType": "bytes32",
          "name": "role",
          "type": "bytes32"
        },
        {
          "internalType": "address",
          "name": "account",
          "type": "address"
        }
      ],
      "name": "revokeRole",
      "outputs": [],
      "stateMutability": "nonpayable",
      "type": "function"
    },
    {
      "inputs": [],
      "name": "rewardClaimedTotal",
      "outputs": [
        {
          "internalType": "uint256",
          "name": "",
          "type": "uint256"
        }
      ],
      "stateMutability": "view",
      "type": "function"
    },
    {
      "inputs": [],
      "name": "saleStartBlock",
      "outputs": [
        {
          "internalType": "uint256",
          "name": "",
          "type": "uint256"
        }
      ],
      "stateMutability": "view",
      "type": "function"
    },
    {
      "inputs": [],
      "name": "stakeRegistry",
      "outputs": [
        {
          "internalType": "address",
          "name": "",
          "type": "address"
        }
      ],
      "stateMutability": "view",
      "type": "function"
    },
    {
      "inputs": [],
      "name": "startBlock",
      "outputs": [
        {
          "internalType": "uint256",
          "name": "",
          "type": "uint256"
        }
      ],
      "stateMutability": "view",
      "type": "function"
    },
    {
      "inputs": [],
      "name": "token",
      "outputs": [
        {
          "internalType": "address",
          "name": "",
          "type": "address"
        }
      ],
      "stateMutability": "view",
      "type": "function"
    },
    {
      "inputs": [],
      "name": "totalStakedAmount",
      "outputs": [
        {
          "internalType": "uint256",
          "name": "",
          "type": "uint256"
        }
      ],
      "stateMutability": "view",
      "type": "function"
    },
    {
      "inputs": [],
      "name": "totalStakers",
      "outputs": [
        {
          "internalType": "uint256",
          "name": "",
          "type": "uint256"
        }
      ],
      "stateMutability": "view",
      "type": "function"
    },
    {
      "inputs": [
        {
          "internalType": "address",
          "name": "",
          "type": "address"
        }
      ],
      "name": "userStaked",
      "outputs": [
        {
          "internalType": "uint256",
          "name": "amount",
          "type": "uint256"
        },
        {
          "internalType": "uint256",
          "name": "claimedBlock",
          "type": "uint256"
        },
        {
          "internalType": "uint256",
          "name": "claimedAmount",
          "type": "uint256"
        },
        {
          "internalType": "uint256",
          "name": "releasedBlock",
          "type": "uint256"
        },
        {
          "internalType": "uint256",
          "name": "releasedAmount",
          "type": "uint256"
        },
        {
          "internalType": "uint256",
          "name": "releasedFLDAmount",
          "type": "uint256"
        },
        {
          "internalType": "bool",
          "name": "released",
          "type": "bool"
        }
      ],
      "stateMutability": "view",
      "type": "function"
    },
    {
      "inputs": [],
      "name": "vault",
      "outputs": [
        {
          "internalType": "address",
          "name": "",
          "type": "address"
        }
      ],
      "stateMutability": "view",
      "type": "function"
    },
    {
      "stateMutability": "payable",
      "type": "receive"
    },
    {
      "inputs": [
        {
          "internalType": "address",
          "name": "newOwner",
          "type": "address"
        }
      ],
      "name": "transferOwnership",
      "outputs": [],
      "stateMutability": "nonpayable",
      "type": "function"
    },
    {
      "inputs": [
        {
          "internalType": "bool",
          "name": "_pause",
          "type": "bool"
        }
      ],
      "name": "setProxyPause",
      "outputs": [],
      "stateMutability": "nonpayable",
      "type": "function"
    },
    {
      "inputs": [
        {
          "internalType": "address",
          "name": "impl",
          "type": "address"
        }
      ],
      "name": "upgradeTo",
      "outputs": [],
      "stateMutability": "nonpayable",
      "type": "function"
    },
    {
      "inputs": [],
      "name": "implementation",
      "outputs": [
        {
          "internalType": "address",
          "name": "",
          "type": "address"
        }
      ],
      "stateMutability": "view",
      "type": "function"
    },
    {
      "inputs": [
        {
          "internalType": "address[3]",
          "name": "_addr",
          "type": "address[3]"
        },
        {
          "internalType": "uint256[3]",
          "name": "_intdata",
          "type": "uint256[3]"
        }
      ],
      "name": "setInit",
      "outputs": [],
      "stateMutability": "nonpayable",
      "type": "function"
    }
  ],
  "bytecode": "0x60806040523480156200001157600080fd5b506040516200138338038062001383833981810160405260208110156200003757600080fd5b5051620000546000805160206200136383398151915280620000b0565b6200006f600080516020620013638339815191523362000102565b6200008a600080516020620013638339815191523062000102565b600d80546001600160a01b0319166001600160a01b039290921691909117905562000218565b6000828152600c6020526040808220600201549051839285917fbd79b86ffe0ab8e8776151514217cd7cacd52c909f66475c3af44e129f0b00ff9190a46000918252600c602052604090912060020155565b6200010e828262000112565b5050565b6000828152600c602090815260409091206200013991839062000d296200018d821b17901c565b156200010e5762000149620001ad565b6001600160a01b0316816001600160a01b0316837f2f8788117e7eff1d82e926ec794901d17c78024a50270940304540a733656f0d60405160405180910390a45050565b6000620001a4836001600160a01b038416620001b1565b90505b92915050565b3390565b6000620001bf838362000200565b620001f757508154600181810184556000848152602080822090930184905584548482528286019093526040902091909155620001a7565b506000620001a7565b60009081526001919091016020526040902054151590565b61113b80620002286000396000f3fe6080604052600436106101705760003560e01c80637cb00d25116100cc578063b2d4d6a31161007a578063b2d4d6a31461050c578063ca15c87314610521578063d547741f1461054b578063dac3fc3f14610584578063f2fde38b146105b7578063fbfa77cf146105ea578063fc0c546a146105ff5761017f565b80637cb00d251461035557806386989038146103815780639010d07c1461039657806391d14854146103c6578063a217fddf146103ff578063a5390f2114610414578063acc3a9391461049f5761017f565b806343b0934a1161012957806343b0934a1461029257806348cd4cb1146102c3578063567e98f9146102d85780635c60da1b146102ed57806363a8fd8914610302578063683048351461032b57806375b238fc146103405761017f565b8063083c63231461018757806320027275146101ae578063248a9ca3146101c35780632f2ff15d146101ed57806336568abe146102265780633659cfe61461025f5761017f565b3661017f5761017d610614565b005b61017d610614565b34801561019357600080fd5b5061019c6106a1565b60408051918252519081900360200190f35b3480156101ba57600080fd5b5061019c6106a7565b3480156101cf57600080fd5b5061019c600480360360208110156101e657600080fd5b50356106ad565b3480156101f957600080fd5b5061017d6004803603604081101561021057600080fd5b50803590602001356001600160a01b03166106c2565b34801561023257600080fd5b5061017d6004803603604081101561024957600080fd5b50803590602001356001600160a01b031661072e565b34801561026b57600080fd5b5061017d6004803603602081101561028257600080fd5b50356001600160a01b031661078f565b34801561029e57600080fd5b506102a76108e7565b604080516001600160a01b039092168252519081900360200190f35b3480156102cf57600080fd5b5061019c6108f6565b3480156102e457600080fd5b5061019c6108fc565b3480156102f957600080fd5b506102a7610902565b34801561030e57600080fd5b50610317610911565b604080519115158252519081900360200190f35b34801561033757600080fd5b506102a7610921565b34801561034c57600080fd5b5061019c610930565b34801561036157600080fd5b5061017d6004803603602081101561037857600080fd5b50351515610942565b34801561038d57600080fd5b5061019c6109b7565b3480156103a257600080fd5b506102a7600480360360408110156103b957600080fd5b50803590602001356109bd565b3480156103d257600080fd5b50610317600480360360408110156103e957600080fd5b50803590602001356001600160a01b03166109de565b34801561040b57600080fd5b5061019c6109f6565b34801561042057600080fd5b5061017d600480360360c081101561043757600080fd5b810190808060600190600380602002604051908101604052809291908260036020028082843760009201919091525050604080516060818101909252929594938181019392509060039083908390808284376000920191909152509194506109fb9350505050565b3480156104ab57600080fd5b506104d2600480360360208110156104c257600080fd5b50356001600160a01b0316610b24565b604080519788526020880196909652868601949094526060860192909252608085015260a0840152151560c0830152519081900360e00190f35b34801561051857600080fd5b5061019c610b64565b34801561052d57600080fd5b5061019c6004803603602081101561054457600080fd5b5035610b6a565b34801561055757600080fd5b5061017d6004803603604081101561056e57600080fd5b50803590602001356001600160a01b0316610b81565b34801561059057600080fd5b506104d2600480360360208110156105a757600080fd5b50356001600160a01b0316610bda565b3480156105c357600080fd5b5061017d600480360360208110156105da57600080fd5b50356001600160a01b0316610c23565b3480156105f657600080fd5b506102a7610d0b565b34801561060b57600080fd5b506102a7610d1a565b600061061e610902565b90506001600160a01b038116158015906106425750600d54600160a01b900460ff16155b61067d5760405162461bcd60e51b81526004018080602001828103825260308152602001806110a76030913960400191505060405180910390fd5b3660008037600080366000845af43d6000803e80801561069c573d6000f35b3d6000fd5b60065481565b60045481565b6000908152600c602052604090206002015490565b6000828152600c60205260409020600201546106e5906106e0610d3e565b6109de565b6107205760405162461bcd60e51b815260040180806020018281038252602f815260200180611008602f913960400191505060405180910390fd5b61072a8282610d42565b5050565b610736610d3e565b6001600160a01b0316816001600160a01b0316146107855760405162461bcd60e51b815260040180806020018281038252602f8152602001806110d7602f913960400191505060405180910390fd5b61072a8282610dab565b6107a7600080516020611087833981519152336109de565b6107e6576040805162461bcd60e51b815260206004820152601d6024820152600080516020611037833981519152604482015290519081900360640190fd5b6001600160a01b038116610841576040805162461bcd60e51b815260206004820152601f60248201527f5374616b6553696d706c6550726f78793a20696e707574206973207a65726f00604482015290519081900360640190fd5b600d546001600160a01b038281169116141561089d576040805162461bcd60e51b81526020600482015260166024820152755374616b6553696d706c6550726f78793a2073616d6560501b604482015290519081900360640190fd5b600d80546001600160a01b0319166001600160a01b0383169081179091556040517fbc7cd75a20ee27fd9adebab32041f755214dbc6bffa90cc0225b39da2e5c2d3b90600090a250565b6002546001600160a01b031681565b60055481565b60085481565b600d546001600160a01b031690565b600d54600160a01b900460ff1681565b6001546001600160a01b031681565b60008051602061108783398151915281565b61095a600080516020611087833981519152336109de565b610999576040805162461bcd60e51b815260206004820152601d6024820152600080516020611037833981519152604482015290519081900360640190fd5b600d8054911515600160a01b0260ff60a01b19909216919091179055565b600a5481565b6000828152600c602052604081206109d59083610e14565b90505b92915050565b6000828152600c602052604081206109d59083610e20565b600081565b610a13600080516020611087833981519152336109de565b610a52576040805162461bcd60e51b815260206004820152601d6024820152600080516020611037833981519152604482015290519081900360640190fd5b60408201516001600160a01b031615801590610a72575060208101518151105b610ac3576040805162461bcd60e51b815260206004820152601e60248201527f5374616b6553696d706c6550726f78793a20736574496e6974206661696c0000604482015290519081900360640190fd5b8151600080546001600160a01b03199081166001600160a01b03938416179091556020808501516002805484169185169190911790556040948501516003805490931693169290921790558151600455810151600581905591015101600655565b6009602052600090815260409020805460018201546002830154600384015460048501546005860154600690960154949593949293919290919060ff1687565b60075481565b6000818152600c602052604081206109d890610e35565b6000828152600c6020526040902060020154610b9f906106e0610d3e565b6107855760405162461bcd60e51b81526004018080602001828103825260308152602001806110576030913960400191505060405180910390fd5b6001600160a01b03166000908152600960205260409020805460018201546002830154600384015460048501546005860154600690960154949693959294919390929160ff1690565b610c3b600080516020611087833981519152336109de565b610c7a576040805162461bcd60e51b815260206004820152601d6024820152600080516020611037833981519152604482015290519081900360640190fd5b336001600160a01b0382161415610cd8576040805162461bcd60e51b815260206004820152601b60248201527f5374616b6553696d706c6550726f78793a73616d65206f776e65720000000000604482015290519081900360640190fd5b610cf0600080516020611087833981519152826106c2565b610d0860008051602061108783398151915233610b81565b50565b6003546001600160a01b031681565b6000546001600160a01b031681565b60006109d5836001600160a01b038416610e40565b3390565b6000828152600c60205260409020610d5a9082610d29565b1561072a57610d67610d3e565b6001600160a01b0316816001600160a01b0316837f2f8788117e7eff1d82e926ec794901d17c78024a50270940304540a733656f0d60405160405180910390a45050565b6000828152600c60205260409020610dc39082610e8a565b1561072a57610dd0610d3e565b6001600160a01b0316816001600160a01b0316837ff6391f5c32d9c69d2a47ea670b442974b53935d1edc7fd64eb21e047a839171b60405160405180910390a45050565b60006109d58383610e9f565b60006109d5836001600160a01b038416610f03565b60006109d882610f1b565b6000610e4c8383610f03565b610e82575081546001818101845560008481526020808220909301849055845484825282860190935260409020919091556109d8565b5060006109d8565b60006109d5836001600160a01b038416610f1f565b81546000908210610ee15760405162461bcd60e51b8152600401808060200182810382526022815260200180610fe66022913960400191505060405180910390fd5b826000018281548110610ef057fe5b9060005260206000200154905092915050565b60009081526001919091016020526040902054151590565b5490565b60008181526001830160205260408120548015610fdb5783546000198083019190810190600090879083908110610f5257fe5b9060005260206000200154905080876000018481548110610f6f57fe5b600091825260208083209091019290925582815260018981019092526040902090840190558654879080610f9f57fe5b600190038181906000526020600020016000905590558660010160008781526020019081526020016000206000905560019450505050506109d8565b60009150506109d856fe456e756d657261626c655365743a20696e646578206f7574206f6620626f756e6473416363657373436f6e74726f6c3a2073656e646572206d75737420626520616e2061646d696e20746f206772616e745374616b6553696d706c6550726f78793a6e6f7420616e2061646d696e000000416363657373436f6e74726f6c3a2073656e646572206d75737420626520616e2061646d696e20746f207265766f6b65df8b4c520ffe197c5343c6f5aec59570151ef9a492f2c624fd45ddde6135ec425374616b6553696d706c6550726f78793a20696d706c206973207a65726f204f522070726f78792069732066616c7365416363657373436f6e74726f6c3a2063616e206f6e6c792072656e6f756e636520726f6c657320666f722073656c66a2646970667358221220f5373a502e1887bf8d9d0a93ade84f3d3a333676823ce0022c9daf2c7ce63c2964736f6c63430007060033df8b4c520ffe197c5343c6f5aec59570151ef9a492f2c624fd45ddde6135ec42",
  "immutableReferences": {},
  "source": "// SPDX-License-Identifier: MIT\npragma solidity ^0.7.6;\n//pragma abicoder v2;\n\nimport \"./Stake1Storage.sol\";\nimport \"@openzeppelin/contracts/access/AccessControl.sol\";\n\n/// @title Proxy for Simple Stake contracts\n/// @notice\ncontract StakeSimpleProxy is Stake1Storage, AccessControl {\n    bytes32 public constant ADMIN_ROLE = keccak256(\"ADMIN\");\n    address internal _implementation;\n    bool public pauseProxy;\n\n    event Upgraded(address indexed implementation);\n\n    modifier onlyOwner() {\n        require(\n            hasRole(ADMIN_ROLE, msg.sender),\n            \"StakeSimpleProxy:not an admin\"\n        );\n        _;\n    }\n\n    constructor(address _logic) {\n        _setRoleAdmin(ADMIN_ROLE, ADMIN_ROLE);\n        _setupRole(ADMIN_ROLE, msg.sender);\n        _setupRole(ADMIN_ROLE, address(this));\n        _implementation = _logic;\n    }\n\n    /// @dev transfer Ownership\n    /// @param newOwner new owner address\n    function transferOwnership(address newOwner) external onlyOwner {\n        require(msg.sender != newOwner, \"StakeSimpleProxy:same owner\");\n        grantRole(ADMIN_ROLE, newOwner);\n        revokeRole(ADMIN_ROLE, msg.sender);\n    }\n\n    /// @notice Set pause state\n    /// @param _pause true:pause or false:resume\n    function setProxyPause(bool _pause) external onlyOwner {\n        pauseProxy = _pause;\n    }\n\n    /// @notice Set implementation contract\n    /// @param impl New implementation contract address\n    function upgradeTo(address impl) external onlyOwner {\n        require(impl != address(0), \"StakeSimpleProxy: input is zero\");\n        require(_implementation != impl, \"StakeSimpleProxy: same\");\n        _implementation = impl;\n        emit Upgraded(impl);\n    }\n\n    /// @dev returns the implementation\n    function implementation() public view returns (address) {\n        return _implementation;\n    }\n\n    receive() external payable {\n        _fallback();\n    }\n\n    fallback() external payable {\n        _fallback();\n    }\n\n    function _fallback() internal {\n        address _impl = implementation();\n        require(\n            _impl != address(0) && !pauseProxy,\n            \"StakeSimpleProxy: impl is zero OR proxy is false\"\n        );\n\n        assembly {\n            // Copy msg.data. We take full control of memory in this inline assembly\n            // block because it will not return to Solidity code. We overwrite the\n            // Solidity scratch pad at memory position 0.\n            calldatacopy(0, 0, calldatasize())\n\n            // Call the implementation.\n            // out and outsize are 0 because we don't know the size yet.\n            let result := delegatecall(gas(), _impl, 0, calldatasize(), 0, 0)\n\n            // Copy the returned data.\n            returndatacopy(0, 0, returndatasize())\n\n            switch result\n                // delegatecall returns 0 on error.\n                case 0 {\n                    revert(0, returndatasize())\n                }\n                default {\n                    return(0, returndatasize())\n                }\n        }\n    }\n\n    /// @dev set initial storage\n    /// @param _addr the array addresses of token, paytoken, vault\n    /// @param _intdata the array valued of saleStartBlock, stakeStartBlock, periodBlocks\n    function setInit(address[3] memory _addr, uint256[3] memory _intdata)\n        external\n        onlyOwner\n    {\n        require(\n            _addr[2] != address(0) && _intdata[0] < _intdata[1],\n            \"StakeSimpleProxy: setInit fail\"\n        );\n        token = _addr[0];\n        paytoken = _addr[1];\n        vault = _addr[2];\n\n        saleStartBlock = _intdata[0];\n        startBlock = _intdata[1];\n        endBlock = startBlock + _intdata[2];\n    }\n}\n",
  "sourcePath": "/Users/zena/ico2.0/ico20-contracts/contracts/stake/StakeSimpleProxy.sol",
  "compiler": {
    "name": "solc",
    "version": "0.7.6+commit.7338295f.Emscripten.clang"
  },
  "schemaVersion": "3.3.4",
  "updatedAt": "2021-06-04T11:18:58.932Z",
  "devdoc": {
    "kind": "dev",
    "methods": {
      "getRoleAdmin(bytes32)": {
        "details": "Returns the admin role that controls `role`. See {grantRole} and {revokeRole}. To change a role's admin, use {_setRoleAdmin}."
      },
      "getRoleMember(bytes32,uint256)": {
        "details": "Returns one of the accounts that have `role`. `index` must be a value between 0 and {getRoleMemberCount}, non-inclusive. Role bearers are not sorted in any particular way, and their ordering may change at any point. WARNING: When using {getRoleMember} and {getRoleMemberCount}, make sure you perform all queries on the same block. See the following https://forum.openzeppelin.com/t/iterating-over-elements-on-enumerableset-in-openzeppelin-contracts/2296[forum post] for more information."
      },
      "getRoleMemberCount(bytes32)": {
        "details": "Returns the number of accounts that have `role`. Can be used together with {getRoleMember} to enumerate all bearers of a role."
      },
      "getUserStaked(address)": {
        "details": "user's staked information"
      },
      "grantRole(bytes32,address)": {
        "details": "Grants `role` to `account`. If `account` had not been already granted `role`, emits a {RoleGranted} event. Requirements: - the caller must have ``role``'s admin role."
      },
      "hasRole(bytes32,address)": {
        "details": "Returns `true` if `account` has been granted `role`."
      },
      "implementation()": {
        "details": "returns the implementation"
      },
      "renounceRole(bytes32,address)": {
        "details": "Revokes `role` from the calling account. Roles are often managed via {grantRole} and {revokeRole}: this function's purpose is to provide a mechanism for accounts to lose their privileges if they are compromised (such as when a trusted device is misplaced). If the calling account had been granted `role`, emits a {RoleRevoked} event. Requirements: - the caller must be `account`."
      },
      "revokeRole(bytes32,address)": {
        "details": "Revokes `role` from `account`. If `account` had been granted `role`, emits a {RoleRevoked} event. Requirements: - the caller must have ``role``'s admin role."
      },
      "setInit(address[3],uint256[3])": {
        "details": "set initial storage",
        "params": {
          "_addr": "the array addresses of token, paytoken, vault",
          "_intdata": "the array valued of saleStartBlock, stakeStartBlock, periodBlocks"
        }
      },
      "setProxyPause(bool)": {
        "params": {
          "_pause": "true:pause or false:resume"
        }
      },
      "transferOwnership(address)": {
        "details": "transfer Ownership",
        "params": {
          "newOwner": "new owner address"
        }
      },
      "upgradeTo(address)": {
        "params": {
          "impl": "New implementation contract address"
        }
      }
    },
    "title": "Proxy for Simple Stake contracts",
    "version": 1
  },
  "userdoc": {
    "kind": "user",
    "methods": {
      "setProxyPause(bool)": {
        "notice": "Set pause state"
      },
      "upgradeTo(address)": {
        "notice": "Set implementation contract"
      }
    },
    "version": 1
  }
}