{
  "contractName": "StakeVaultProxy",
  "abi": [
    {
      "inputs": [
        {
          "internalType": "address",
          "name": "impl",
          "type": "address"
        }
      ],
      "stateMutability": "nonpayable",
      "type": "constructor"
    },
    {
      "anonymous": false,
      "inputs": [
        {
          "indexed": true,
          "internalType": "bytes32",
          "name": "role",
          "type": "bytes32"
        },
        {
          "indexed": true,
          "internalType": "bytes32",
          "name": "previousAdminRole",
          "type": "bytes32"
        },
        {
          "indexed": true,
          "internalType": "bytes32",
          "name": "newAdminRole",
          "type": "bytes32"
        }
      ],
      "name": "RoleAdminChanged",
      "type": "event"
    },
    {
      "anonymous": false,
      "inputs": [
        {
          "indexed": true,
          "internalType": "bytes32",
          "name": "role",
          "type": "bytes32"
        },
        {
          "indexed": true,
          "internalType": "address",
          "name": "account",
          "type": "address"
        },
        {
          "indexed": true,
          "internalType": "address",
          "name": "sender",
          "type": "address"
        }
      ],
      "name": "RoleGranted",
      "type": "event"
    },
    {
      "anonymous": false,
      "inputs": [
        {
          "indexed": true,
          "internalType": "bytes32",
          "name": "role",
          "type": "bytes32"
        },
        {
          "indexed": true,
          "internalType": "address",
          "name": "account",
          "type": "address"
        },
        {
          "indexed": true,
          "internalType": "address",
          "name": "sender",
          "type": "address"
        }
      ],
      "name": "RoleRevoked",
      "type": "event"
    },
    {
      "anonymous": false,
      "inputs": [
        {
          "indexed": true,
          "internalType": "address",
          "name": "implementation",
          "type": "address"
        }
      ],
      "name": "Upgraded",
      "type": "event"
    },
    {
      "stateMutability": "payable",
      "type": "fallback"
    },
    {
      "inputs": [],
      "name": "ADMIN_ROLE",
      "outputs": [
        {
          "internalType": "bytes32",
          "name": "",
          "type": "bytes32"
        }
      ],
      "stateMutability": "view",
      "type": "function"
    },
    {
      "inputs": [],
      "name": "BURNER_ROLE",
      "outputs": [
        {
          "internalType": "bytes32",
          "name": "",
          "type": "bytes32"
        }
      ],
      "stateMutability": "view",
      "type": "function"
    },
    {
      "inputs": [],
      "name": "DEFAULT_ADMIN_ROLE",
      "outputs": [
        {
          "internalType": "bytes32",
          "name": "",
          "type": "bytes32"
        }
      ],
      "stateMutability": "view",
      "type": "function"
    },
    {
      "inputs": [],
      "name": "MINTER_ROLE",
      "outputs": [
        {
          "internalType": "bytes32",
          "name": "",
          "type": "bytes32"
        }
      ],
      "stateMutability": "view",
      "type": "function"
    },
    {
      "inputs": [
        {
          "internalType": "address",
          "name": "account",
          "type": "address"
        }
      ],
      "name": "addAdmin",
      "outputs": [],
      "stateMutability": "nonpayable",
      "type": "function"
    },
    {
      "inputs": [],
      "name": "blockTotalReward",
      "outputs": [
        {
          "internalType": "uint256",
          "name": "",
          "type": "uint256"
        }
      ],
      "stateMutability": "view",
      "type": "function"
    },
    {
      "inputs": [],
      "name": "cap",
      "outputs": [
        {
          "internalType": "uint256",
          "name": "",
          "type": "uint256"
        }
      ],
      "stateMutability": "view",
      "type": "function"
    },
    {
      "inputs": [],
      "name": "defiAddr",
      "outputs": [
        {
          "internalType": "address",
          "name": "",
          "type": "address"
        }
      ],
      "stateMutability": "view",
      "type": "function"
    },
    {
      "inputs": [
        {
          "internalType": "bytes32",
          "name": "role",
          "type": "bytes32"
        }
      ],
      "name": "getRoleAdmin",
      "outputs": [
        {
          "internalType": "bytes32",
          "name": "",
          "type": "bytes32"
        }
      ],
      "stateMutability": "view",
      "type": "function"
    },
    {
      "inputs": [
        {
          "internalType": "bytes32",
          "name": "role",
          "type": "bytes32"
        },
        {
          "internalType": "uint256",
          "name": "index",
          "type": "uint256"
        }
      ],
      "name": "getRoleMember",
      "outputs": [
        {
          "internalType": "address",
          "name": "",
          "type": "address"
        }
      ],
      "stateMutability": "view",
      "type": "function"
    },
    {
      "inputs": [
        {
          "internalType": "bytes32",
          "name": "role",
          "type": "bytes32"
        }
      ],
      "name": "getRoleMemberCount",
      "outputs": [
        {
          "internalType": "uint256",
          "name": "",
          "type": "uint256"
        }
      ],
      "stateMutability": "view",
      "type": "function"
    },
    {
      "inputs": [
        {
          "internalType": "bytes32",
          "name": "role",
          "type": "bytes32"
        },
        {
          "internalType": "address",
          "name": "account",
          "type": "address"
        }
      ],
      "name": "grantRole",
      "outputs": [],
      "stateMutability": "nonpayable",
      "type": "function"
    },
    {
      "inputs": [
        {
          "internalType": "bytes32",
          "name": "role",
          "type": "bytes32"
        },
        {
          "internalType": "address",
          "name": "account",
          "type": "address"
        }
      ],
      "name": "hasRole",
      "outputs": [
        {
          "internalType": "bool",
          "name": "",
          "type": "bool"
        }
      ],
      "stateMutability": "view",
      "type": "function"
    },
    {
      "inputs": [
        {
          "internalType": "address",
          "name": "account",
          "type": "address"
        }
      ],
      "name": "isAdmin",
      "outputs": [
        {
          "internalType": "bool",
          "name": "",
          "type": "bool"
        }
      ],
      "stateMutability": "view",
      "type": "function"
    },
    {
      "inputs": [],
      "name": "migratedL2",
      "outputs": [
        {
          "internalType": "bool",
          "name": "",
          "type": "bool"
        }
      ],
      "stateMutability": "view",
      "type": "function"
    },
    {
      "inputs": [
        {
          "internalType": "uint256",
          "name": "",
          "type": "uint256"
        }
      ],
      "name": "orderedEndBlocks",
      "outputs": [
        {
          "internalType": "uint256",
          "name": "",
          "type": "uint256"
        }
      ],
      "stateMutability": "view",
      "type": "function"
    },
    {
      "inputs": [],
      "name": "pauseProxy",
      "outputs": [
        {
          "internalType": "bool",
          "name": "",
          "type": "bool"
        }
      ],
      "stateMutability": "view",
      "type": "function"
    },
    {
      "inputs": [],
      "name": "paytoken",
      "outputs": [
        {
          "internalType": "address",
          "name": "",
          "type": "address"
        }
      ],
      "stateMutability": "view",
      "type": "function"
    },
    {
      "inputs": [],
      "name": "realEndBlock",
      "outputs": [
        {
          "internalType": "uint256",
          "name": "",
          "type": "uint256"
        }
      ],
      "stateMutability": "view",
      "type": "function"
    },
    {
      "inputs": [
        {
          "internalType": "address",
          "name": "account",
          "type": "address"
        }
      ],
      "name": "removeAdmin",
      "outputs": [],
      "stateMutability": "nonpayable",
      "type": "function"
    },
    {
      "inputs": [
        {
          "internalType": "bytes32",
          "name": "role",
          "type": "bytes32"
        },
        {
          "internalType": "address",
          "name": "account",
          "type": "address"
        }
      ],
      "name": "renounceRole",
      "outputs": [],
      "stateMutability": "nonpayable",
      "type": "function"
    },
    {
      "inputs": [
        {
          "internalType": "bytes32",
          "name": "role",
          "type": "bytes32"
        },
        {
          "internalType": "address",
          "name": "account",
          "type": "address"
        }
      ],
      "name": "revokeRole",
      "outputs": [],
      "stateMutability": "nonpayable",
      "type": "function"
    },
    {
      "inputs": [],
      "name": "saleClosed",
      "outputs": [
        {
          "internalType": "bool",
          "name": "",
          "type": "bool"
        }
      ],
      "stateMutability": "view",
      "type": "function"
    },
    {
      "inputs": [],
      "name": "saleStartBlock",
      "outputs": [
        {
          "internalType": "uint256",
          "name": "",
          "type": "uint256"
        }
      ],
      "stateMutability": "view",
      "type": "function"
    },
    {
      "inputs": [
        {
          "internalType": "uint256",
          "name": "",
          "type": "uint256"
        }
      ],
      "name": "stakeAddresses",
      "outputs": [
        {
          "internalType": "address",
          "name": "",
          "type": "address"
        }
      ],
      "stateMutability": "view",
      "type": "function"
    },
    {
      "inputs": [],
      "name": "stakeEndBlock",
      "outputs": [
        {
          "internalType": "uint256",
          "name": "",
          "type": "uint256"
        }
      ],
      "stateMutability": "view",
      "type": "function"
    },
    {
      "inputs": [
        {
          "internalType": "uint256",
          "name": "",
          "type": "uint256"
        }
      ],
      "name": "stakeEndBlockTotal",
      "outputs": [
        {
          "internalType": "uint256",
          "name": "",
          "type": "uint256"
        }
      ],
      "stateMutability": "view",
      "type": "function"
    },
    {
      "inputs": [
        {
          "internalType": "address",
          "name": "",
          "type": "address"
        }
      ],
      "name": "stakeInfos",
      "outputs": [
        {
          "internalType": "string",
          "name": "name",
          "type": "string"
        },
        {
          "internalType": "uint256",
          "name": "startBlock",
          "type": "uint256"
        },
        {
          "internalType": "uint256",
          "name": "endBlock",
          "type": "uint256"
        },
        {
          "internalType": "uint256",
          "name": "balance",
          "type": "uint256"
        },
        {
          "internalType": "uint256",
          "name": "totalRewardAmount",
          "type": "uint256"
        },
        {
          "internalType": "uint256",
          "name": "claimRewardAmount",
          "type": "uint256"
        }
      ],
      "stateMutability": "view",
      "type": "function"
    },
    {
      "inputs": [],
      "name": "stakeStartBlock",
      "outputs": [
        {
          "internalType": "uint256",
          "name": "",
          "type": "uint256"
        }
      ],
      "stateMutability": "view",
      "type": "function"
    },
    {
      "inputs": [],
      "name": "stakeType",
      "outputs": [
        {
          "internalType": "uint256",
          "name": "",
          "type": "uint256"
        }
      ],
      "stateMutability": "view",
      "type": "function"
    },
    {
      "inputs": [],
      "name": "tos",
      "outputs": [
        {
          "internalType": "address",
          "name": "",
          "type": "address"
        }
      ],
      "stateMutability": "view",
      "type": "function"
    },
    {
      "inputs": [
        {
          "internalType": "address",
          "name": "newAdmin",
          "type": "address"
        }
      ],
      "name": "transferAdmin",
      "outputs": [],
      "stateMutability": "nonpayable",
      "type": "function"
    },
    {
      "stateMutability": "payable",
      "type": "receive"
    },
    {
      "inputs": [
        {
          "internalType": "bool",
          "name": "_pause",
          "type": "bool"
        }
      ],
      "name": "setProxyPause",
      "outputs": [],
      "stateMutability": "nonpayable",
      "type": "function"
    },
    {
      "inputs": [
        {
          "internalType": "address",
          "name": "impl",
          "type": "address"
        }
      ],
      "name": "upgradeTo",
      "outputs": [],
      "stateMutability": "nonpayable",
      "type": "function"
    },
    {
      "inputs": [],
      "name": "implementation",
      "outputs": [
        {
          "internalType": "address",
          "name": "",
          "type": "address"
        }
      ],
      "stateMutability": "view",
      "type": "function"
    },
    {
      "inputs": [
        {
          "internalType": "address",
          "name": "_tos",
          "type": "address"
        },
        {
          "internalType": "address",
          "name": "_paytoken",
          "type": "address"
        },
        {
          "internalType": "uint256",
          "name": "_cap",
          "type": "uint256"
        },
        {
          "internalType": "uint256",
          "name": "_saleStartBlock",
          "type": "uint256"
        },
        {
          "internalType": "uint256",
          "name": "_stakeStartBlock",
          "type": "uint256"
        },
        {
          "internalType": "address",
          "name": "_stakefactory",
          "type": "address"
        },
        {
          "internalType": "uint256",
          "name": "_stakeType",
          "type": "uint256"
        },
        {
          "internalType": "address",
          "name": "_defiAddr",
          "type": "address"
        }
      ],
      "name": "initialize",
      "outputs": [],
      "stateMutability": "nonpayable",
      "type": "function"
    }
  ],
  "bytecode": "0x60806040523480156200001157600080fd5b5060405162001a5b38038062001a5b833981810160405260208110156200003757600080fd5b50516001600160a01b03811662000095576040805162461bcd60e51b815260206004820152601a60248201527f5374616b653150726f78793a206c6f676963206973207a65726f000000000000604482015290519081900360640190fd5b620000a081620000f8565b620000bb600080516020620019f5833981519152806200016f565b620000d6600080516020620019f583398151915233620001c1565b620000f1600080516020620019f583398151915230620001c1565b50620002db565b6200010e81620001d160201b620011d81760201c565b6200014b5760405162461bcd60e51b815260040180806020018281038252604681526020018062001a156046913960600191505060405180910390fd5b7f360894a13ba1a3210667c828492db98dca3e2076cc3735a920a3ca505d382bbc55565b600082815260208190526040808220600201549051839285917fbd79b86ffe0ab8e8776151514217cd7cacd52c909f66475c3af44e129f0b00ff9190a460009182526020829052604090912060020155565b620001cd8282620001d7565b5050565b3b151590565b600082815260208181526040909120620001fc918390620011de62000250821b17901c565b15620001cd576200020c62000270565b6001600160a01b0316816001600160a01b0316837f2f8788117e7eff1d82e926ec794901d17c78024a50270940304540a733656f0d60405160405180910390a45050565b600062000267836001600160a01b03841662000274565b90505b92915050565b3390565b6000620002828383620002c3565b620002ba575081546001818101845560008481526020808220909301849055845484825282860190935260409020919091556200026a565b5060006200026a565b60009081526001919091016020526040902054151590565b61170a80620002eb6000396000f3fe6080604052600436106101d35760003560e01c806375829def116100f8578063b03dc51411610090578063b03dc51414610627578063b8c766b81461063c578063b97af0db14610651578063ca15c87314610666578063d105bf8514610690578063d5391393146106a5578063d547741f146106ba578063dc999b94146106f3578063dfbf9def146107575761021c565b806375829def146104f657806375b238fc146105295780637cb00d251461053e57806389f395de1461056a5780639010d07c1461057f57806391d14854146105af5780639d84ca35146105e8578063a1f5f50e146105fd578063a217fddf146106125761021c565b806336568abe1161016b57806336568abe146103c45780633659cfe6146103fd5780633a76eb371461043057806343b0934a146104455780634b5e7cd51461045a5780635c60da1b1461046f5780635f1bd62a1461048457806363a8fd89146104ae57806370480275146104c35761021c565b8063153099d0146102265780631785f53c146102625780632002727514610295578063248a9ca3146102aa57806324d7806c146102d4578063282c51f31461031b578063294f5fa3146103305780632f2ff15d14610376578063355274ea146103af5761021c565b3661021c576040805162461bcd60e51b815260206004820152601460248201527331b0b73737ba103932b1b2b4bb329022ba3432b960611b604482015290519081900360640190fd5b610224610825565b005b34801561023257600080fd5b506102506004803603602081101561024957600080fd5b50356108ab565b60408051918252519081900360200190f35b34801561026e57600080fd5b506102246004803603602081101561028557600080fd5b50356001600160a01b03166108cc565b3480156102a157600080fd5b5061025061092b565b3480156102b657600080fd5b50610250600480360360208110156102cd57600080fd5b5035610931565b3480156102e057600080fd5b50610307600480360360208110156102f757600080fd5b50356001600160a01b0316610946565b604080519115158252519081900360200190f35b34801561032757600080fd5b50610250610966565b34801561033c57600080fd5b5061035a6004803603602081101561035357600080fd5b503561098a565b604080516001600160a01b039092168252519081900360200190f35b34801561038257600080fd5b506102246004803603604081101561039957600080fd5b50803590602001356001600160a01b03166109b4565b3480156103bb57600080fd5b50610250610a20565b3480156103d057600080fd5b50610224600480360360408110156103e757600080fd5b50803590602001356001600160a01b0316610a26565b34801561040957600080fd5b506102246004803603602081101561042057600080fd5b50356001600160a01b0316610a87565b34801561043c57600080fd5b50610250610bcc565b34801561045157600080fd5b5061035a610bd2565b34801561046657600080fd5b50610250610be1565b34801561047b57600080fd5b5061035a610be7565b34801561049057600080fd5b50610250600480360360208110156104a757600080fd5b5035610bf6565b3480156104ba57600080fd5b50610307610c08565b3480156104cf57600080fd5b50610224600480360360208110156104e657600080fd5b50356001600160a01b0316610c11565b34801561050257600080fd5b506102246004803603602081101561051957600080fd5b50356001600160a01b0316610c6d565b34801561053557600080fd5b50610250610d8e565b34801561054a57600080fd5b506102246004803603602081101561056157600080fd5b50351515610da0565b34801561057657600080fd5b5061035a610df7565b34801561058b57600080fd5b5061035a600480360360408110156105a257600080fd5b5080359060200135610e06565b3480156105bb57600080fd5b50610307600480360360408110156105d257600080fd5b50803590602001356001600160a01b0316610e25565b3480156105f457600080fd5b5061035a610e3d565b34801561060957600080fd5b50610307610e4c565b34801561061e57600080fd5b50610250610e5a565b34801561063357600080fd5b50610250610e5f565b34801561064857600080fd5b50610307610e65565b34801561065d57600080fd5b50610250610e6e565b34801561067257600080fd5b506102506004803603602081101561068957600080fd5b5035610e74565b34801561069c57600080fd5b50610250610e8b565b3480156106b157600080fd5b50610250610e91565b3480156106c657600080fd5b50610224600480360360408110156106dd57600080fd5b50803590602001356001600160a01b0316610eb5565b3480156106ff57600080fd5b50610224600480360361010081101561071757600080fd5b506001600160a01b038135811691602081013582169160408201359160608101359160808201359160a081013582169160c08201359160e0013516610f0e565b34801561076357600080fd5b5061078a6004803603602081101561077a57600080fd5b50356001600160a01b0316611119565b6040518080602001878152602001868152602001858152602001848152602001838152602001828103825288818151815260200191508051906020019080838360005b838110156107e55781810151838201526020016107cd565b50505050905090810190601f1680156108125780820380516001836020036101000a031916815260200191505b5097505050505050505060405180910390f35b600061082f6111f3565b90506001600160a01b0381161580159061084c575060115460ff16155b6108875760405162461bcd60e51b81526004018080602001828103825260278152602001806116156027913960400191505060405180910390fd5b3660008037600080366000845af43d6000803e8080156108a6573d6000f35b3d6000fd5b600e81815481106108bb57600080fd5b600091825260209091200154905081565b6108d533610946565b6109105760405162461bcd60e51b81526004018080602001828103825260228152602001806115796022913960400191505060405180910390fd5b6109286000805160206115f583398151915282610a26565b50565b60045481565b60009081526020819052604090206002015490565b60006109606000805160206115f583398151915283610e25565b92915050565b7f9667e80708b6eeeb0053fa0cca44e028ff548e2a9f029edfeac87c118b08b7c881565b600c818154811061099a57600080fd5b6000918252602090912001546001600160a01b0316905081565b6000828152602081905260409020600201546109d7906109d2611218565b610e25565b610a125760405162461bcd60e51b815260040180806020018281038252602f81526020018061154a602f913960400191505060405180910390fd5b610a1c828261121c565b5050565b60035481565b610a2e611218565b6001600160a01b0316816001600160a01b031614610a7d5760405162461bcd60e51b815260040180806020018281038252602f8152602001806116a6602f913960400191505060405180910390fd5b610a1c8282611285565b610a9033610946565b610acb5760405162461bcd60e51b81526004018080602001828103825260228152602001806115796022913960400191505060405180910390fd5b6001600160a01b038116610b26576040805162461bcd60e51b815260206004820152601e60248201527f5374616b655661756c7450726f78793a20696e707574206973207a65726f0000604482015290519081900360640190fd5b806001600160a01b0316610b386111f3565b6001600160a01b03161415610b8c576040805162461bcd60e51b81526020600482015260156024820152745374616b655661756c7450726f78793a2073616d6560581b604482015290519081900360640190fd5b610b95816112ee565b6040516001600160a01b038216907fbc7cd75a20ee27fd9adebab32041f755214dbc6bffa90cc0225b39da2e5c2d3b90600090a250565b60065481565b6002546001600160a01b031681565b60055481565b6000610bf16111f3565b905090565b600f6020526000908152604090205481565b60115460ff1681565b610c1a33610946565b610c555760405162461bcd60e51b81526004018080602001828103825260228152602001806115796022913960400191505060405180910390fd5b6109286000805160206115f5833981519152826109b4565b610c7633610946565b610cb15760405162461bcd60e51b81526004018080602001828103825260228152602001806115796022913960400191505060405180910390fd5b6001600160a01b038116610d07576040805162461bcd60e51b815260206004820152601860248201527741636365737369626c653a207a65726f206164647265737360401b604482015290519081900360640190fd5b336001600160a01b0382161415610d5e576040805162461bcd60e51b815260206004820152601660248201527520b1b1b2b9b9b4b136329d1039b0b6b29030b236b4b760511b604482015290519081900360640190fd5b610d766000805160206115f5833981519152826109b4565b6109286000805160206115f583398151915233610a26565b6000805160206115f583398151915281565b610da933610946565b610de45760405162461bcd60e51b81526004018080602001828103825260228152602001806115796022913960400191505060405180910390fd5b6011805460ff1916911515919091179055565b6001546001600160a01b031681565b6000828152602081905260408120610e1e9083611356565b9392505050565b6000828152602081905260408120610e1e9083611362565b600b546001600160a01b031681565b601154610100900460ff1681565b600081565b60075481565b60095460ff1681565b600a5481565b600081815260208190526040812061096090611377565b60085481565b7ff0887ba65ee2024ea881d91b74c2450ef19e1557f03bed3ea9f16b037cbe2dc981565b600082815260208190526040902060020154610ed3906109d2611218565b610a7d5760405162461bcd60e51b81526004018080602001828103825260308152602001806115c56030913960400191505060405180910390fd5b610f1733610946565b610f525760405162461bcd60e51b81526004018080602001828103825260228152602001806115796022913960400191505060405180910390fd5b6001546001600160a01b031615610f9a5760405162461bcd60e51b81526004018080602001828103825260248152602001806116826024913960400191505060405180910390fd5b6001600160a01b03881615801590610fba57506001600160a01b03831615155b61100b576040805162461bcd60e51b815260206004820152601e60248201527f5374616b655661756c7450726f78793a20696e707574206973207a65726f0000604482015290519081900360640190fd5b6000861161105c576040805162461bcd60e51b81526020600482015260196024820152785374616b65315661756c743a205f636170206973207a65726f60381b604482015290519081900360640190fd5b838510801561106b5750600084115b6110a65760405162461bcd60e51b815260040180806020018281038252602a81526020018061159b602a913960400191505060405180910390fd5b600180546001600160a01b03808b166001600160a01b0319928316179092556003889055600280548a841690831617905560048790556005869055600a849055600b80549284169290911691909117905561110f6000805160206115f5833981519152846109b4565b5050505050505050565b600d6020908152600091825260409182902080548351601f600260001961010060018616150201909316929092049182018490048402810184019094528084529092918391908301828280156111b05780601f10611185576101008083540402835291602001916111b0565b820191906000526020600020905b81548152906001019060200180831161119357829003601f168201915b5050505050908060010154908060020154908060030154908060040154908060050154905086565b3b151590565b6000610e1e836001600160a01b038416611382565b7f360894a13ba1a3210667c828492db98dca3e2076cc3735a920a3ca505d382bbc5490565b3390565b600082815260208190526040902061123490826111de565b15610a1c57611241611218565b6001600160a01b0316816001600160a01b0316837f2f8788117e7eff1d82e926ec794901d17c78024a50270940304540a733656f0d60405160405180910390a45050565b600082815260208190526040902061129d90826113cc565b15610a1c576112aa611218565b6001600160a01b0316816001600160a01b0316837ff6391f5c32d9c69d2a47ea670b442974b53935d1edc7fd64eb21e047a839171b60405160405180910390a45050565b6112f7816111d8565b6113325760405162461bcd60e51b815260040180806020018281038252604681526020018061163c6046913960600191505060405180910390fd5b7f360894a13ba1a3210667c828492db98dca3e2076cc3735a920a3ca505d382bbc55565b6000610e1e83836113e1565b6000610e1e836001600160a01b038416611445565b60006109608261145d565b600061138e8383611445565b6113c457508154600181810184556000848152602080822090930184905584548482528286019093526040902091909155610960565b506000610960565b6000610e1e836001600160a01b038416611461565b815460009082106114235760405162461bcd60e51b81526004018080602001828103825260228152602001806115286022913960400191505060405180910390fd5b82600001828154811061143257fe5b9060005260206000200154905092915050565b60009081526001919091016020526040902054151590565b5490565b6000818152600183016020526040812054801561151d578354600019808301919081019060009087908390811061149457fe5b90600052602060002001549050808760000184815481106114b157fe5b6000918252602080832090910192909255828152600189810190925260409020908401905586548790806114e157fe5b60019003818190600052602060002001600090559055866001016000878152602001908152602001600020600090556001945050505050610960565b600091505061096056fe456e756d657261626c655365743a20696e646578206f7574206f6620626f756e6473416363657373436f6e74726f6c3a2073656e646572206d75737420626520616e2061646d696e20746f206772616e7441636365737369626c653a2043616c6c6572206973206e6f7420616e2061646d696e5374616b655661756c7450726f78793a207374617274426c6f636b20697320756e617661696c61626c65416363657373436f6e74726f6c3a2073656e646572206d75737420626520616e2061646d696e20746f207265766f6b65df8b4c520ffe197c5343c6f5aec59570151ef9a492f2c624fd45ddde6135ec425374616b655661756c7450726f78793a20696d706c204f522070726f78792069732066616c736550726f7879426173653a2043616e6e6f742073657420612070726f787920696d706c656d656e746174696f6e20746f2061206e6f6e2d636f6e747261637420616464726573735374616b655661756c7450726f78793a20616c726561647920696e697469616c697a6564416363657373436f6e74726f6c3a2063616e206f6e6c792072656e6f756e636520726f6c657320666f722073656c66a264697066735822122098af4f856543a3283d451ae7c1bb716c619d420b479b627f80b80e713630a92164736f6c63430007060033df8b4c520ffe197c5343c6f5aec59570151ef9a492f2c624fd45ddde6135ec4250726f7879426173653a2043616e6e6f742073657420612070726f787920696d706c656d656e746174696f6e20746f2061206e6f6e2d636f6e74726163742061646472657373",
  "immutableReferences": {},
  "source": "// SPDX-License-Identifier: MIT\npragma solidity ^0.7.6;\n\nimport \"../interfaces/IStakeVaultProxy.sol\";\nimport \"./StakeVaultStorage.sol\";\nimport \"./ProxyBase.sol\";\n\n/// @title Proxy for StakeVault\n/// @notice\ncontract StakeVaultProxy is StakeVaultStorage, ProxyBase, IStakeVaultProxy {\n    event Upgraded(address indexed implementation);\n\n    /// @dev constructor of StakeVaultProxy\n    /// @param impl the logic address of StakeVaultProxy\n    constructor(address impl) {\n        assert(\n            IMPLEMENTATION_SLOT ==\n                bytes32(uint256(keccak256(\"eip1967.proxy.implementation\")) - 1)\n        );\n\n        require(impl != address(0), \"Stake1Proxy: logic is zero\");\n\n        _setImplementation(impl);\n\n        _setRoleAdmin(ADMIN_ROLE, ADMIN_ROLE);\n        _setupRole(ADMIN_ROLE, msg.sender);\n        _setupRole(ADMIN_ROLE, address(this));\n    }\n\n    /// @notice Set pause state\n    /// @param _pause true:pause or false:resume\n    function setProxyPause(bool _pause) external override onlyOwner {\n        pauseProxy = _pause;\n    }\n\n    /// @notice Set implementation contract\n    /// @param impl New implementation contract address\n    function upgradeTo(address impl) external override onlyOwner {\n        require(impl != address(0), \"StakeVaultProxy: input is zero\");\n        require(_implementation() != impl, \"StakeVaultProxy: same\");\n        _setImplementation(impl);\n        emit Upgraded(impl);\n    }\n\n    /// @dev returns the implementation\n    function implementation() public view override returns (address) {\n        return _implementation();\n    }\n\n    /// @dev receive ether\n    receive() external payable {\n        revert(\"cannot receive Ether\");\n    }\n\n    /// @dev fallback function , execute on undefined function call\n    fallback() external payable {\n        _fallback();\n    }\n\n    /// @dev fallback function , execute on undefined function call\n    function _fallback() internal {\n        address _impl = _implementation();\n        require(\n            _impl != address(0) && !pauseProxy,\n            \"StakeVaultProxy: impl OR proxy is false\"\n        );\n\n        assembly {\n            // Copy msg.data. We take full control of memory in this inline assembly\n            // block because it will not return to Solidity code. We overwrite the\n            // Solidity scratch pad at memory position 0.\n            calldatacopy(0, 0, calldatasize())\n\n            // Call the implementation.\n            // out and outsize are 0 because we don't know the size yet.\n            let result := delegatecall(gas(), _impl, 0, calldatasize(), 0, 0)\n\n            // Copy the returned data.\n            returndatacopy(0, 0, returndatasize())\n\n            switch result\n                // delegatecall returns 0 on error.\n                case 0 {\n                    revert(0, returndatasize())\n                }\n                default {\n                    return(0, returndatasize())\n                }\n        }\n    }\n\n    /// @dev set initial storage\n    /// @param _tos  TOS token address\n    /// @param _paytoken  Tokens staked by users, can be used as ERC20 tokens.\n    //                     (In case of ETH, input address(0))\n    /// @param _cap  Maximum amount of rewards issued, allocated reward amount.\n    /// @param _saleStartBlock  the sale start block\n    /// @param _stakeStartBlock  the staking start block\n    /// @param _stakefactory the factory address to create stakeContract\n    /// @param _stakeType  Type of staking contract, 0 TON staking, 1 basic ERC20 staking, 2 Defi linked staking\n    /// @param _defiAddr Used when an external address is required. default: address(0)\n    function initialize(\n        address _tos,\n        address _paytoken,\n        uint256 _cap,\n        uint256 _saleStartBlock,\n        uint256 _stakeStartBlock,\n        address _stakefactory,\n        uint256 _stakeType,\n        address _defiAddr\n    ) external override onlyOwner {\n        require(tos == address(0), \"StakeVaultProxy: already initialized\");\n\n        require(\n            _tos != address(0) && _stakefactory != address(0),\n            \"StakeVaultProxy: input is zero\"\n        );\n        require(_cap > 0, \"Stake1Vault: _cap is zero\");\n        require(\n            _saleStartBlock < _stakeStartBlock && _stakeStartBlock > 0,\n            \"StakeVaultProxy: startBlock is unavailable\"\n        );\n\n        tos = _tos;\n        cap = _cap;\n        paytoken = _paytoken;\n        saleStartBlock = _saleStartBlock;\n        stakeStartBlock = _stakeStartBlock;\n        stakeType = _stakeType;\n        defiAddr = _defiAddr;\n\n        grantRole(ADMIN_ROLE, _stakefactory);\n    }\n}\n",
  "sourcePath": "/Users/zena/ico2.0/ico20-contracts/contracts/stake/StakeVaultProxy.sol",
  "compiler": {
    "name": "solc",
    "version": "0.7.6+commit.7338295f.Emscripten.clang"
  },
  "schemaVersion": "3.3.4",
  "updatedAt": "2021-08-02T05:01:31.427Z",
  "devdoc": {
    "kind": "dev",
    "methods": {
      "addAdmin(address)": {
        "details": "add admin",
        "params": {
          "account": "address to add"
        }
      },
      "constructor": {
        "details": "constructor of StakeVaultProxy",
        "params": {
          "impl": "the logic address of StakeVaultProxy"
        }
      },
      "getRoleAdmin(bytes32)": {
        "details": "Returns the admin role that controls `role`. See {grantRole} and {revokeRole}. To change a role's admin, use {_setRoleAdmin}."
      },
      "getRoleMember(bytes32,uint256)": {
        "details": "Returns one of the accounts that have `role`. `index` must be a value between 0 and {getRoleMemberCount}, non-inclusive. Role bearers are not sorted in any particular way, and their ordering may change at any point. WARNING: When using {getRoleMember} and {getRoleMemberCount}, make sure you perform all queries on the same block. See the following https://forum.openzeppelin.com/t/iterating-over-elements-on-enumerableset-in-openzeppelin-contracts/2296[forum post] for more information."
      },
      "getRoleMemberCount(bytes32)": {
        "details": "Returns the number of accounts that have `role`. Can be used together with {getRoleMember} to enumerate all bearers of a role."
      },
      "grantRole(bytes32,address)": {
        "details": "Grants `role` to `account`. If `account` had not been already granted `role`, emits a {RoleGranted} event. Requirements: - the caller must have ``role``'s admin role."
      },
      "hasRole(bytes32,address)": {
        "details": "Returns `true` if `account` has been granted `role`."
      },
      "implementation()": {
        "details": "returns the implementation"
      },
      "initialize(address,address,uint256,uint256,uint256,address,uint256,address)": {
        "params": {
          "_cap": "Maximum amount of rewards issued, allocated reward amount.",
          "_defiAddr": "Used when an external address is required. default: address(0)",
          "_saleStartBlock": "the sale start block",
          "_stakeStartBlock": "the staking start block",
          "_stakeType": "Type of staking contract, 0 TON staking, 1 basic ERC20 staking, 2 Defi linked staking",
          "_stakefactory": "the factory address to create stakeContract"
        }
      },
      "isAdmin(address)": {
        "details": "whether admin",
        "params": {
          "account": "address to check"
        }
      },
      "removeAdmin(address)": {
        "details": "remove admin",
        "params": {
          "account": "address to remove"
        }
      },
      "renounceRole(bytes32,address)": {
        "details": "Revokes `role` from the calling account. Roles are often managed via {grantRole} and {revokeRole}: this function's purpose is to provide a mechanism for accounts to lose their privileges if they are compromised (such as when a trusted device is misplaced). If the calling account had been granted `role`, emits a {RoleRevoked} event. Requirements: - the caller must be `account`."
      },
      "revokeRole(bytes32,address)": {
        "details": "Revokes `role` from `account`. If `account` had been granted `role`, emits a {RoleRevoked} event. Requirements: - the caller must have ``role``'s admin role."
      },
      "setProxyPause(bool)": {
        "params": {
          "_pause": "true:pause or false:resume"
        }
      },
      "transferAdmin(address)": {
        "details": "transfer admin",
        "params": {
          "newAdmin": "new admin address"
        }
      },
      "upgradeTo(address)": {
        "params": {
          "impl": "New implementation contract address"
        }
      }
    },
    "title": "Proxy for StakeVault",
    "version": 1
  },
  "userdoc": {
    "kind": "user",
    "methods": {
      "setProxyPause(bool)": {
        "notice": "Set pause state"
      },
      "upgradeTo(address)": {
        "notice": "Set implementation contract"
      }
    },
    "version": 1
  }
}