{
  "contractName": "StakeForSFLD",
  "abi": [
    {
      "inputs": [],
      "stateMutability": "nonpayable",
      "type": "constructor"
    },
    {
      "anonymous": false,
      "inputs": [
        {
          "indexed": true,
          "internalType": "bytes32",
          "name": "role",
          "type": "bytes32"
        },
        {
          "indexed": true,
          "internalType": "bytes32",
          "name": "previousAdminRole",
          "type": "bytes32"
        },
        {
          "indexed": true,
          "internalType": "bytes32",
          "name": "newAdminRole",
          "type": "bytes32"
        }
      ],
      "name": "RoleAdminChanged",
      "type": "event"
    },
    {
      "anonymous": false,
      "inputs": [
        {
          "indexed": true,
          "internalType": "bytes32",
          "name": "role",
          "type": "bytes32"
        },
        {
          "indexed": true,
          "internalType": "address",
          "name": "account",
          "type": "address"
        },
        {
          "indexed": true,
          "internalType": "address",
          "name": "sender",
          "type": "address"
        }
      ],
      "name": "RoleGranted",
      "type": "event"
    },
    {
      "anonymous": false,
      "inputs": [
        {
          "indexed": true,
          "internalType": "bytes32",
          "name": "role",
          "type": "bytes32"
        },
        {
          "indexed": true,
          "internalType": "address",
          "name": "account",
          "type": "address"
        },
        {
          "indexed": true,
          "internalType": "address",
          "name": "sender",
          "type": "address"
        }
      ],
      "name": "RoleRevoked",
      "type": "event"
    },
    {
      "inputs": [],
      "name": "ADMIN_ROLE",
      "outputs": [
        {
          "internalType": "bytes32",
          "name": "",
          "type": "bytes32"
        }
      ],
      "stateMutability": "view",
      "type": "function"
    },
    {
      "inputs": [],
      "name": "DEFAULT_ADMIN_ROLE",
      "outputs": [
        {
          "internalType": "bytes32",
          "name": "",
          "type": "bytes32"
        }
      ],
      "stateMutability": "view",
      "type": "function"
    },
    {
      "inputs": [],
      "name": "claimedSFLDTotal",
      "outputs": [
        {
          "internalType": "uint256",
          "name": "",
          "type": "uint256"
        }
      ],
      "stateMutability": "view",
      "type": "function"
    },
    {
      "inputs": [],
      "name": "fld",
      "outputs": [
        {
          "internalType": "contract IFLD",
          "name": "",
          "type": "address"
        }
      ],
      "stateMutability": "view",
      "type": "function"
    },
    {
      "inputs": [
        {
          "internalType": "bytes32",
          "name": "role",
          "type": "bytes32"
        }
      ],
      "name": "getRoleAdmin",
      "outputs": [
        {
          "internalType": "bytes32",
          "name": "",
          "type": "bytes32"
        }
      ],
      "stateMutability": "view",
      "type": "function"
    },
    {
      "inputs": [
        {
          "internalType": "bytes32",
          "name": "role",
          "type": "bytes32"
        },
        {
          "internalType": "uint256",
          "name": "index",
          "type": "uint256"
        }
      ],
      "name": "getRoleMember",
      "outputs": [
        {
          "internalType": "address",
          "name": "",
          "type": "address"
        }
      ],
      "stateMutability": "view",
      "type": "function"
    },
    {
      "inputs": [
        {
          "internalType": "bytes32",
          "name": "role",
          "type": "bytes32"
        }
      ],
      "name": "getRoleMemberCount",
      "outputs": [
        {
          "internalType": "uint256",
          "name": "",
          "type": "uint256"
        }
      ],
      "stateMutability": "view",
      "type": "function"
    },
    {
      "inputs": [
        {
          "internalType": "bytes32",
          "name": "role",
          "type": "bytes32"
        },
        {
          "internalType": "address",
          "name": "account",
          "type": "address"
        }
      ],
      "name": "grantRole",
      "outputs": [],
      "stateMutability": "nonpayable",
      "type": "function"
    },
    {
      "inputs": [
        {
          "internalType": "bytes32",
          "name": "role",
          "type": "bytes32"
        },
        {
          "internalType": "address",
          "name": "account",
          "type": "address"
        }
      ],
      "name": "hasRole",
      "outputs": [
        {
          "internalType": "bool",
          "name": "",
          "type": "bool"
        }
      ],
      "stateMutability": "view",
      "type": "function"
    },
    {
      "inputs": [
        {
          "internalType": "bytes32",
          "name": "role",
          "type": "bytes32"
        },
        {
          "internalType": "address",
          "name": "account",
          "type": "address"
        }
      ],
      "name": "renounceRole",
      "outputs": [],
      "stateMutability": "nonpayable",
      "type": "function"
    },
    {
      "inputs": [
        {
          "internalType": "bytes32",
          "name": "role",
          "type": "bytes32"
        },
        {
          "internalType": "address",
          "name": "account",
          "type": "address"
        }
      ],
      "name": "revokeRole",
      "outputs": [],
      "stateMutability": "nonpayable",
      "type": "function"
    },
    {
      "inputs": [
        {
          "internalType": "uint256",
          "name": "",
          "type": "uint256"
        }
      ],
      "name": "rewardRatio",
      "outputs": [
        {
          "internalType": "uint256",
          "name": "",
          "type": "uint256"
        }
      ],
      "stateMutability": "view",
      "type": "function"
    },
    {
      "inputs": [],
      "name": "sfld",
      "outputs": [
        {
          "internalType": "contract ISFLD",
          "name": "",
          "type": "address"
        }
      ],
      "stateMutability": "view",
      "type": "function"
    },
    {
      "inputs": [],
      "name": "startBlock",
      "outputs": [
        {
          "internalType": "uint256",
          "name": "",
          "type": "uint256"
        }
      ],
      "stateMutability": "view",
      "type": "function"
    },
    {
      "inputs": [],
      "name": "started",
      "outputs": [
        {
          "internalType": "bool",
          "name": "",
          "type": "bool"
        }
      ],
      "stateMutability": "view",
      "type": "function"
    },
    {
      "inputs": [],
      "name": "totalStakedAmount",
      "outputs": [
        {
          "internalType": "uint256",
          "name": "",
          "type": "uint256"
        }
      ],
      "stateMutability": "view",
      "type": "function"
    },
    {
      "inputs": [
        {
          "internalType": "address",
          "name": "",
          "type": "address"
        }
      ],
      "name": "userStaked",
      "outputs": [
        {
          "internalType": "uint256",
          "name": "amount",
          "type": "uint256"
        },
        {
          "internalType": "uint256",
          "name": "startBlock",
          "type": "uint256"
        },
        {
          "internalType": "uint256",
          "name": "periodBlock",
          "type": "uint256"
        },
        {
          "internalType": "uint256",
          "name": "rewardPerBlock",
          "type": "uint256"
        },
        {
          "internalType": "uint256",
          "name": "claimedBlock",
          "type": "uint256"
        },
        {
          "internalType": "uint256",
          "name": "claimedAmount",
          "type": "uint256"
        },
        {
          "internalType": "uint256",
          "name": "releasedBlock",
          "type": "uint256"
        },
        {
          "internalType": "uint256",
          "name": "releasedAmount",
          "type": "uint256"
        }
      ],
      "stateMutability": "view",
      "type": "function"
    },
    {
      "inputs": [
        {
          "internalType": "address",
          "name": "_fld",
          "type": "address"
        },
        {
          "internalType": "address",
          "name": "_sfld",
          "type": "address"
        },
        {
          "internalType": "uint256",
          "name": "_startBlock",
          "type": "uint256"
        }
      ],
      "name": "initialize",
      "outputs": [],
      "stateMutability": "nonpayable",
      "type": "function"
    },
    {
      "inputs": [
        {
          "internalType": "bool",
          "name": "_started",
          "type": "bool"
        }
      ],
      "name": "setStarted",
      "outputs": [],
      "stateMutability": "nonpayable",
      "type": "function"
    },
    {
      "inputs": [
        {
          "internalType": "uint256",
          "name": "period",
          "type": "uint256"
        },
        {
          "internalType": "uint256",
          "name": "ratio",
          "type": "uint256"
        }
      ],
      "name": "addRewardRatio",
      "outputs": [],
      "stateMutability": "nonpayable",
      "type": "function"
    },
    {
      "inputs": [
        {
          "internalType": "uint256",
          "name": "amount",
          "type": "uint256"
        },
        {
          "internalType": "uint256",
          "name": "_periodBlock",
          "type": "uint256"
        },
        {
          "internalType": "uint256",
          "name": "deadline",
          "type": "uint256"
        },
        {
          "internalType": "bytes",
          "name": "signature",
          "type": "bytes"
        }
      ],
      "name": "stake",
      "outputs": [],
      "stateMutability": "nonpayable",
      "type": "function"
    },
    {
      "inputs": [],
      "name": "claim",
      "outputs": [],
      "stateMutability": "nonpayable",
      "type": "function"
    },
    {
      "inputs": [
        {
          "internalType": "uint256",
          "name": "amount",
          "type": "uint256"
        },
        {
          "internalType": "uint256",
          "name": "deadline",
          "type": "uint256"
        },
        {
          "internalType": "bytes",
          "name": "signature",
          "type": "bytes"
        }
      ],
      "name": "withdraw",
      "outputs": [],
      "stateMutability": "nonpayable",
      "type": "function"
    }
  ],
  "bytecode": "0x60806040523480156200001157600080fd5b506200002d60008051602062001be3833981519152806200004e565b6200004860008051602062001be383398151915233620000a0565b620001b4565b600082815260208190526040808220600201549051839285917fbd79b86ffe0ab8e8776151514217cd7cacd52c909f66475c3af44e129f0b00ff9190a460009182526020829052604090912060020155565b620000ac8282620000b0565b5050565b600082815260208181526040909120620000d59183906200155c62000129821b17901c565b15620000ac57620000e562000149565b6001600160a01b0316816001600160a01b0316837f2f8788117e7eff1d82e926ec794901d17c78024a50270940304540a733656f0d60405160405180910390a45050565b600062000140836001600160a01b0384166200014d565b90505b92915050565b3390565b60006200015b83836200019c565b620001935750815460018181018455600084815260208082209093018490558454848252828601909352604090209190915562000143565b50600062000143565b60009081526001919091016020526040902054151590565b611a1f80620001c46000396000f3fe608060405234801561001057600080fd5b506004361061014d5760003560e01c8063567e98f9116100c3578063a217fddf1161007c578063a217fddf14610473578063acc3a9391461047b578063c3ba0b31146104e2578063ca15c873146104ea578063d547741f14610507578063ef6b141a146105335761014d565b8063567e98f91461035a578063744fb6ca1461036257806375b238fc146104145780639010d07c1461041c57806391d148541461043f5780639c959c691461046b5761014d565b8063248a9ca311610115578063248a9ca3146102b15780632f2ff15d146102ce57806333bd2a49146102fa57806336568abe1461031e57806348cd4cb11461034a5780634e71d92d146103525761014d565b806308f101c5146101525780630b9a6f10146101775780631794bb3c146101a65780631f2698ab146101dc57806320994228146101f8575b600080fd5b6101756004803603604081101561016857600080fd5b5080359060200135610552565b005b6101946004803603602081101561018d57600080fd5b503561060f565b60408051918252519081900360200190f35b610175600480360360608110156101bc57600080fd5b506001600160a01b03813581169160208101359091169060400135610621565b6101e4610744565b604080519115158252519081900360200190f35b6101756004803603608081101561020e57600080fd5b8135916020810135916040820135919081019060808101606082013564010000000081111561023c57600080fd5b82018360208201111561024e57600080fd5b8035906020019184600183028401116401000000008311171561027057600080fd5b91908080601f01602080910402602001604051908101604052809392919081815260200183838082843760009201919091525092955061074d945050505050565b610194600480360360208110156102c757600080fd5b5035610ace565b610175600480360360408110156102e457600080fd5b50803590602001356001600160a01b0316610ae3565b610302610b4f565b604080516001600160a01b039092168252519081900360200190f35b6101756004803603604081101561033457600080fd5b50803590602001356001600160a01b0316610b5e565b610194610bbf565b610175610bc5565b610194610e73565b6101756004803603606081101561037857600080fd5b81359160208101359181019060608101604082013564010000000081111561039f57600080fd5b8201836020820111156103b157600080fd5b803590602001918460018302840111640100000000831117156103d357600080fd5b91908080601f016020809104026020016040519081016040528093929190818152602001838380828437600092019190915250929550610e79945050505050565b610194611380565b6103026004803603604081101561043257600080fd5b5080359060200135611392565b6101e46004803603604081101561045557600080fd5b50803590602001356001600160a01b03166113b3565b6103026113cb565b6101946113da565b6104a16004803603602081101561049157600080fd5b50356001600160a01b03166113df565b604080519889526020890197909752878701959095526060870193909352608086019190915260a085015260c084015260e083015251908190036101000190f35b610194611422565b6101946004803603602081101561050057600080fd5b5035611428565b6101756004803603604081101561051d57600080fd5b50803590602001356001600160a01b031661143f565b6101756004803603602081101561054957600080fd5b50351515611498565b61056a60008051602061192e833981519152336113b3565b6105a55760405162461bcd60e51b815260040180806020018281038252602481526020018061194e6024913960400191505060405180910390fd5b60075460ff1615156001146105fd576040805162461bcd60e51b815260206004820152601960248201527814dd185ad9519bdc94d193110e881b9bdd081cdd185c9d1959603a1b604482015290519081900360640190fd5b60009182526006602052604090912055565b60066020526000908152604090205481565b61063960008051602061192e833981519152336113b3565b6106745760405162461bcd60e51b815260040180806020018281038252602481526020018061194e6024913960400191505060405180910390fd5b6001600160a01b0383161580159061069457506001600160a01b03821615155b80156106a05750600081115b80156106af575060075460ff16155b610700576040805162461bcd60e51b815260206004820152601b60248201527f5374616b65466f7253464c443a20696e707574206973207a65726f0000000000604482015290519081900360640190fd5b600180546001600160a01b039485166001600160a01b031991821617825560028054949095169316929092179092556005919091556007805460ff19169091179055565b60075460ff1681565b600084118015610764575060075460ff1615156001145b80156107705750600082115b6107c1576040805162461bcd60e51b815260206004820152601c60248201527f5374616b65466f7253464c443a20616d6f756e74206973207a65726f00000000604482015290519081900360640190fd5b600083815260066020526040902054610821576040805162461bcd60e51b815260206004820181905260248201527f5374616b65466f7253464c443a20756e65676973746572656420706572696f64604482015290519081900360640190fd5b600154604080516370a0823160e01b8152336004820152905186926001600160a01b0316916370a08231916024808301926020929190829003018186803b15801561086b57600080fd5b505afa15801561087f573d6000803e3d6000fd5b505050506040513d602081101561089557600080fd5b505110156108d45760405162461bcd60e51b81526004018080602001828103825260248152602001806119726024913960400191505060405180910390fd5b33600090815260086020526040902060018101544311610937576040805162461bcd60e51b815260206004820152601960248201527814dd185ad9519bdc94d193110e881b9bdd081cdd185c9d1959603a1b604482015290519081900360640190fd5b805485018155436001808301919091556002820185905560048054870181559054604051639fd5a6cf60e01b8152339281018381523060248301819052604483018a90526064830188905260a060848401908152875160a485015287516001600160a01b0390951695639fd5a6cf95909492938c938b938b93909160c40190602085019080838360005b838110156109d95781810151838201526020016109c1565b50505050905090810190601f168015610a065780820380516001836020036101000a031916815260200191505b509650505050505050600060405180830381600087803b158015610a2957600080fd5b505af1158015610a3d573d6000803e3d6000fd5b5050600154604080516323b872dd60e01b8152336004820152306024820152604481018a905290516001600160a01b0390921693506323b872dd92506064808201926020929091908290030181600087803b158015610a9b57600080fd5b505af1158015610aaf573d6000803e3d6000fd5b505050506040513d6020811015610ac557600080fd5b50505050505050565b60009081526020819052604090206002015490565b600082815260208190526040902060020154610b0690610b01611571565b6113b3565b610b415760405162461bcd60e51b815260040180806020018281038252602f81526020018061183b602f913960400191505060405180910390fd5b610b4b8282611575565b5050565b6001546001600160a01b031681565b610b66611571565b6001600160a01b0316816001600160a01b031614610bb55760405162461bcd60e51b815260040180806020018281038252602f8152602001806119bb602f913960400191505060405180910390fd5b610b4b82826115de565b60055481565b33600090815260086020526040902060075460ff1615156001148015610bee5750438160010154105b610c3b576040805162461bcd60e51b815260206004820152601960248201527814dd185ad9519bdc94d193110e881b9bdd081cdd185c9d1959603a1b604482015290519081900360640190fd5b8054610c8e576040805162461bcd60e51b815260206004820152601860248201527f5374616b65466f7253464c443a20616d6f756e74203e20300000000000000000604482015290519081900360640190fd5b6003810154610cbc57600281015460008181526006602052604090205482540281610cb557fe5b0460038201555b600281015460009081526006602052604090205481546005830154910211610d155760405162461bcd60e51b81526004018080602001828103825260218152602001806118926021913960400191505060405180910390fd5b60004382600201548360010154011015610d4c57506005810154600282015460009081526006602052604090205482540203610d85565b600082600101544303905060008360040154118015610d6e5750438360040154105b15610d7c5750600482015443035b60038301540290505b60008111610dd3576040805162461bcd60e51b81526020600482015260166024820152755374616b65313a20726577617264206973207a65726f60501b604482015290519081900360640190fd5b43600480840191909155600583018054830190556003805483019055600254604080516340c10f1960e01b8152339381019390935260248301849052516001600160a01b03909116916340c10f199160448083019260209291908290030181600087803b158015610e4357600080fd5b505af1158015610e57573d6000803e3d6000fd5b505050506040513d6020811015610e6d57600080fd5b50505050565b60045481565b33600090815260086020526040902060075460ff1615156001148015610ea157506006810154155b610eee576040805162461bcd60e51b815260206004820152601960248201527814dd185ad9519bdc94d193110e881b9bdd081cdd185c9d1959603a1b604482015290519081900360640190fd5b805415801590610f075750806002015481600101540143115b610f425760405162461bcd60e51b81526004018080602001828103825260278152602001806119076027913960400191505060405180910390fd5b600254604080516370a0823160e01b815233600482015290516000926001600160a01b0316916370a08231916024808301926020929190829003018186803b158015610f8d57600080fd5b505afa158015610fa1573d6000803e3d6000fd5b505050506040513d6020811015610fb757600080fd5b505190508015801590610fc957508085145b6110045760405162461bcd60e51b81526004018080602001828103825260248152602001806118b36024913960400191505060405180910390fd5b60078201805482019055436006830155600154604080516370a0823160e01b815230600482015290516000926001600160a01b0316916370a08231916024808301926020929190829003018186803b15801561105f57600080fd5b505afa158015611073573d6000803e3d6000fd5b505050506040513d602081101561108957600080fd5b505190508082111561111757600154604080516340c10f1960e01b8152306004820152838503602482015290516001600160a01b03909216916340c10f19916044808201926020929091908290030181600087803b1580156110ea57600080fd5b505af11580156110fe573d6000803e3d6000fd5b505050506040513d602081101561111457600080fd5b50505b600254604051639fd5a6cf60e01b81523360048201818152306024840181905260448401879052606484018a905260a060848501908152895160a486015289516001600160a01b0390961695639fd5a6cf95929389938d938d93909160c40190602085019080838360005b8381101561119a578181015183820152602001611182565b50505050905090810190601f1680156111c75780820380516001836020036101000a031916815260200191505b509650505050505050600060405180830381600087803b1580156111ea57600080fd5b505af11580156111fe573d6000803e3d6000fd5b505060025460408051632770a7eb60e21b81523360048201526024810187905290516001600160a01b039092169350639dc29fac92506044808201926020929091908290030181600087803b15801561125657600080fd5b505af115801561126a573d6000803e3d6000fd5b505050506040513d602081101561128057600080fd5b50516112bd5760405162461bcd60e51b81526004018080602001828103825260258152602001806119966025913960400191505060405180910390fd5b6001546040805163a9059cbb60e01b81523360048201526024810185905290516001600160a01b039092169163a9059cbb916044808201926020929091908290030181600087803b15801561131157600080fd5b505af1158015611325573d6000803e3d6000fd5b505050506040513d602081101561133b57600080fd5b50516113785760405162461bcd60e51b815260040180806020018281038252602881526020018061186a6028913960400191505060405180910390fd5b505050505050565b60008051602061192e83398151915281565b60008281526020819052604081206113aa9083611647565b90505b92915050565b60008281526020819052604081206113aa9083611653565b6002546001600160a01b031681565b600081565b6008602052600090815260409020805460018201546002830154600384015460048501546005860154600687015460079097015495969495939492939192909188565b60035481565b60008181526020819052604081206113ad90611668565b60008281526020819052604090206002015461145d90610b01611571565b610bb55760405162461bcd60e51b81526004018080602001828103825260308152602001806118d76030913960400191505060405180910390fd5b6114b060008051602061192e833981519152336113b3565b6114eb5760405162461bcd60e51b815260040180806020018281038252602481526020018061194e6024913960400191505060405180910390fd5b60075460ff1615158115151415611549576040805162461bcd60e51b815260206004820152601960248201527f5374616b65466f7253464c443a2073616d652073746174757300000000000000604482015290519081900360640190fd5b6007805460ff1916911515919091179055565b60006113aa836001600160a01b038416611673565b3390565b600082815260208190526040902061158d908261155c565b15610b4b5761159a611571565b6001600160a01b0316816001600160a01b0316837f2f8788117e7eff1d82e926ec794901d17c78024a50270940304540a733656f0d60405160405180910390a45050565b60008281526020819052604090206115f690826116bd565b15610b4b57611603611571565b6001600160a01b0316816001600160a01b0316837ff6391f5c32d9c69d2a47ea670b442974b53935d1edc7fd64eb21e047a839171b60405160405180910390a45050565b60006113aa83836116d2565b60006113aa836001600160a01b038416611736565b60006113ad8261174e565b600061167f8383611736565b6116b5575081546001818101845560008481526020808220909301849055845484825282860190935260409020919091556113ad565b5060006113ad565b60006113aa836001600160a01b038416611752565b815460009082106117145760405162461bcd60e51b81526004018080602001828103825260228152602001806118196022913960400191505060405180910390fd5b82600001828154811061172357fe5b9060005260206000200154905092915050565b60009081526001919091016020526040902054151590565b5490565b6000818152600183016020526040812054801561180e578354600019808301919081019060009087908390811061178557fe5b90600052602060002001549050808760000184815481106117a257fe5b6000918252602080832090910192909255828152600189810190925260409020908401905586548790806117d257fe5b600190038181906000526020600020016000905590558660010160008781526020019081526020016000206000905560019450505050506113ad565b60009150506113ad56fe456e756d657261626c655365743a20696e646578206f7574206f6620626f756e6473416363657373436f6e74726f6c3a2073656e646572206d75737420626520616e2061646d696e20746f206772616e745374616b65466f7253464c443a20776974686472617720666c642e7472616e73666572206661696c5374616b65466f7253464c443a20416c726561647920636c61696d656420616c6c5374616b65466f7253464c443a2062616c616e63654f662053464c44206973207a65726f416363657373436f6e74726f6c3a2073656e646572206d75737420626520616e2061646d696e20746f207265766f6b655374616b65466f7253464c443a207374616b696e6720706572696f64206973206e6f7420656e64df8b4c520ffe197c5343c6f5aec59570151ef9a492f2c624fd45ddde6135ec425374616b65466f7253464c443a2043616c6c6572206973206e6f7420616e2061646d696e5374616b65466f7253464c443a20464c442e62616c616e63654f66206973206c61636b2e5374616b65466f7253464c443a2077697468647261772073666c642e6275726e206661696c416363657373436f6e74726f6c3a2063616e206f6e6c792072656e6f756e636520726f6c657320666f722073656c66a26469706673582212206194d91319644770920c74281d407171bf1730b6e17f6e053da9f075b269716a64736f6c63430007060033df8b4c520ffe197c5343c6f5aec59570151ef9a492f2c624fd45ddde6135ec42",
  "immutableReferences": {},
  "source": "//SPDX-License-Identifier: Unlicense\npragma solidity ^0.7.0;\n\nimport \"../interfaces/IFLD.sol\";\nimport \"../interfaces/ISFLD.sol\";\nimport \"../interfaces/IERC20.sol\";\nimport \"../libraries/LibTokenStake1.sol\";\nimport \"@openzeppelin/contracts/access/AccessControl.sol\";\n\ncontract StakeForSFLD is AccessControl {\n    bytes32 public constant ADMIN_ROLE = keccak256(\"ADMIN\");\n\n    IFLD public fld;\n    ISFLD public sfld;\n\n    // amount of claimed SFLD in wei unit,\n    uint256 public claimedSFLDTotal;\n    uint256 public totalStakedAmount;\n\n    uint256 public startBlock;\n    mapping(uint256 => uint256) public rewardRatio; // periodBlock - rewardRatio\n\n    bool public started;\n    mapping(address => LibTokenStake1.StakedAmountForSFLD) public userStaked;\n\n    modifier onlyOwner() {\n        require(\n            hasRole(ADMIN_ROLE, msg.sender),\n            \"StakeForSFLD: Caller is not an admin\"\n        );\n        _;\n    }\n\n    //////////////////////////////\n    // Events\n    //////////////////////////////\n\n    constructor() {\n        _setRoleAdmin(ADMIN_ROLE, ADMIN_ROLE);\n        _setupRole(ADMIN_ROLE, msg.sender);\n    }\n\n    function initialize(\n        address _fld,\n        address _sfld,\n        uint256 _startBlock\n    ) external onlyOwner {\n        require(\n            _fld != address(0) &&\n                _sfld != address(0) &&\n                _startBlock > 0 &&\n                started == false,\n            \"StakeForSFLD: input is zero\"\n        );\n\n        fld = IFLD(_fld);\n        sfld = ISFLD(_sfld);\n        startBlock = _startBlock;\n        started = true;\n    }\n\n    /**\n     * external\n     */\n    function setStarted(bool _started) external onlyOwner {\n        require(started != _started, \"StakeForSFLD: same status\");\n        started = _started;\n    }\n\n    function addRewardRatio(uint256 period, uint256 ratio) external onlyOwner {\n        require(started == true, \"StakeForSFLD: not started\");\n        rewardRatio[period] = ratio;\n    }\n\n    /// dev. If you staking before, but if you staking additionally,\n    /// it will be reset to the most recent value.\n    function stake(\n        uint256 amount,\n        uint256 _periodBlock,\n        uint256 deadline,\n        bytes memory signature\n    ) external {\n        require(\n            amount > 0 && started == true && deadline > 0,\n            \"StakeForSFLD: amount is zero\"\n        );\n        //Rewards for the period have not been registered.\n        require(\n            rewardRatio[_periodBlock] > 0,\n            \"StakeForSFLD: unegistered period\"\n        );\n\n        require(\n            fld.balanceOf(msg.sender) >= amount,\n            \"StakeForSFLD: FLD.balanceOf is lack.\"\n        );\n\n        LibTokenStake1.StakedAmountForSFLD storage staked =\n            userStaked[msg.sender];\n        require(staked.startBlock < block.number, \"StakeForSFLD: not started\");\n\n        staked.amount += amount;\n        staked.startBlock = block.number;\n        staked.periodBlock = _periodBlock;\n        totalStakedAmount += amount;\n\n        fld.permit(msg.sender, address(this), amount, deadline, signature);\n        fld.transferFrom(msg.sender, address(this), amount);\n    }\n\n    /// dev. SFLD is minted according to the ratio of the specified period.\n    function claim() external {\n        LibTokenStake1.StakedAmountForSFLD storage staked =\n            userStaked[msg.sender];\n        require(\n            started == true && staked.startBlock < block.number,\n            \"StakeForSFLD: not started\"\n        );\n        require(staked.amount > 0, \"StakeForSFLD: amount > 0\");\n\n        if (staked.rewardPerBlock == 0) {\n            staked.rewardPerBlock =\n                (staked.amount * rewardRatio[staked.periodBlock]) /\n                staked.periodBlock;\n        }\n\n        require(\n            staked.claimedAmount <\n                staked.amount * rewardRatio[staked.periodBlock],\n            \"StakeForSFLD: Already claimed all\"\n        );\n\n        uint256 rewardClaim = 0;\n        if (staked.startBlock + staked.periodBlock < block.number) {\n            rewardClaim =\n                (staked.amount * rewardRatio[staked.periodBlock]) -\n                staked.claimedAmount;\n        } else {\n            // Amount you can be rewarded currently\n            uint256 pastBlocks = block.number - staked.startBlock;\n            if (staked.claimedBlock > 0 && staked.claimedBlock < block.number)\n                pastBlocks = block.number - staked.claimedBlock;\n            rewardClaim = pastBlocks * staked.rewardPerBlock;\n        }\n\n        require(rewardClaim > 0, \"Stake1: reward is zero\");\n        staked.claimedBlock = block.number;\n        staked.claimedAmount += rewardClaim;\n        claimedSFLDTotal += rewardClaim;\n\n        sfld.mint(msg.sender, rewardClaim);\n    }\n\n    /// dev. You can change to FLD as much as you have SFLD. exchage SFLD to FLD.\n    /// check again later.\n    function withdraw(\n        uint256 amount,\n        uint256 deadline,\n        bytes memory signature\n    ) external {\n        LibTokenStake1.StakedAmountForSFLD storage staked =\n            userStaked[msg.sender];\n        require(\n            started == true && staked.releasedBlock == 0,\n            \"StakeForSFLD: not started\"\n        );\n        require(\n            staked.amount > 0 &&\n                block.number > staked.startBlock + staked.periodBlock,\n            \"StakeForSFLD: staking period is not end\"\n        );\n\n        uint256 sfldBalance = sfld.balanceOf(msg.sender);\n        require(\n            sfldBalance > 0 && amount == sfldBalance,\n            \"StakeForSFLD: balanceOf SFLD is zero\"\n        );\n\n        staked.releasedAmount += sfldBalance;\n        staked.releasedBlock = block.number;\n\n        uint256 fldBalance = fld.balanceOf(address(this));\n        if (sfldBalance > fldBalance)\n            fld.mint(address(this), sfldBalance - fldBalance);\n\n        sfld.permit(\n            msg.sender,\n            address(this),\n            sfldBalance,\n            deadline,\n            signature\n        );\n\n        require(\n            sfld.burn(msg.sender, sfldBalance),\n            \"StakeForSFLD: withdraw sfld.burn fail\"\n        );\n\n        require(\n            fld.transfer(msg.sender, sfldBalance),\n            \"StakeForSFLD: withdraw fld.transfer fail\"\n        );\n    }\n\n    /**\n     * public\n     */\n\n    /**\n     * internal\n     */\n\n    /**\n     * private\n     */\n}\n",
  "sourcePath": "/Users/kadyrbeknarmamatov/code/ico20-contracts/contracts/stake/StakeForSFLD.sol",
  "compiler": {
    "name": "solc",
    "version": "0.7.6+commit.7338295f.Emscripten.clang"
  },
  "schemaVersion": "3.4.0",
  "updatedAt": "2021-05-10T09:27:57.909Z",
  "devdoc": {
    "kind": "dev",
    "methods": {
      "getRoleAdmin(bytes32)": {
        "details": "Returns the admin role that controls `role`. See {grantRole} and {revokeRole}. To change a role's admin, use {_setRoleAdmin}."
      },
      "getRoleMember(bytes32,uint256)": {
        "details": "Returns one of the accounts that have `role`. `index` must be a value between 0 and {getRoleMemberCount}, non-inclusive. Role bearers are not sorted in any particular way, and their ordering may change at any point. WARNING: When using {getRoleMember} and {getRoleMemberCount}, make sure you perform all queries on the same block. See the following https://forum.openzeppelin.com/t/iterating-over-elements-on-enumerableset-in-openzeppelin-contracts/2296[forum post] for more information."
      },
      "getRoleMemberCount(bytes32)": {
        "details": "Returns the number of accounts that have `role`. Can be used together with {getRoleMember} to enumerate all bearers of a role."
      },
      "grantRole(bytes32,address)": {
        "details": "Grants `role` to `account`. If `account` had not been already granted `role`, emits a {RoleGranted} event. Requirements: - the caller must have ``role``'s admin role."
      },
      "hasRole(bytes32,address)": {
        "details": "Returns `true` if `account` has been granted `role`."
      },
      "renounceRole(bytes32,address)": {
        "details": "Revokes `role` from the calling account. Roles are often managed via {grantRole} and {revokeRole}: this function's purpose is to provide a mechanism for accounts to lose their privileges if they are compromised (such as when a trusted device is misplaced). If the calling account had been granted `role`, emits a {RoleRevoked} event. Requirements: - the caller must be `account`."
      },
      "revokeRole(bytes32,address)": {
        "details": "Revokes `role` from `account`. If `account` had been granted `role`, emits a {RoleRevoked} event. Requirements: - the caller must have ``role``'s admin role."
      }
    },
    "version": 1
  },
  "userdoc": {
    "kind": "user",
    "methods": {
      "claim()": {
        "notice": "dev. SFLD is minted according to the ratio of the specified period."
      },
      "setStarted(bool)": {
        "notice": "external"
      },
      "stake(uint256,uint256,uint256,bytes)": {
        "notice": "dev. If you staking before, but if you staking additionally, it will be reset to the most recent value."
      },
      "withdraw(uint256,uint256,bytes)": {
        "notice": "dev. You can change to FLD as much as you have SFLD. exchage SFLD to FLD. check again later."
      }
    },
    "version": 1
  }
}