{
  "contractName": "StakeForStableCoin",
  "abi": [
    {
      "inputs": [],
      "stateMutability": "nonpayable",
      "type": "constructor"
    },
    {
      "anonymous": false,
      "inputs": [
        {
          "indexed": true,
          "internalType": "address",
          "name": "from",
          "type": "address"
        },
        {
          "indexed": false,
          "internalType": "uint256",
          "name": "amount",
          "type": "uint256"
        },
        {
          "indexed": false,
          "internalType": "uint256",
          "name": "currentBlcok",
          "type": "uint256"
        }
      ],
      "name": "Claimed",
      "type": "event"
    },
    {
      "anonymous": false,
      "inputs": [
        {
          "indexed": true,
          "internalType": "bytes32",
          "name": "role",
          "type": "bytes32"
        },
        {
          "indexed": true,
          "internalType": "bytes32",
          "name": "previousAdminRole",
          "type": "bytes32"
        },
        {
          "indexed": true,
          "internalType": "bytes32",
          "name": "newAdminRole",
          "type": "bytes32"
        }
      ],
      "name": "RoleAdminChanged",
      "type": "event"
    },
    {
      "anonymous": false,
      "inputs": [
        {
          "indexed": true,
          "internalType": "bytes32",
          "name": "role",
          "type": "bytes32"
        },
        {
          "indexed": true,
          "internalType": "address",
          "name": "account",
          "type": "address"
        },
        {
          "indexed": true,
          "internalType": "address",
          "name": "sender",
          "type": "address"
        }
      ],
      "name": "RoleGranted",
      "type": "event"
    },
    {
      "anonymous": false,
      "inputs": [
        {
          "indexed": true,
          "internalType": "bytes32",
          "name": "role",
          "type": "bytes32"
        },
        {
          "indexed": true,
          "internalType": "address",
          "name": "account",
          "type": "address"
        },
        {
          "indexed": true,
          "internalType": "address",
          "name": "sender",
          "type": "address"
        }
      ],
      "name": "RoleRevoked",
      "type": "event"
    },
    {
      "anonymous": false,
      "inputs": [
        {
          "indexed": true,
          "internalType": "address",
          "name": "from",
          "type": "address"
        },
        {
          "indexed": true,
          "internalType": "address",
          "name": "to",
          "type": "address"
        },
        {
          "indexed": false,
          "internalType": "uint256",
          "name": "amount",
          "type": "uint256"
        },
        {
          "indexed": false,
          "internalType": "uint256",
          "name": "currentBlcok",
          "type": "uint256"
        }
      ],
      "name": "Withdrawal",
      "type": "event"
    },
    {
      "inputs": [],
      "name": "ADMIN_ROLE",
      "outputs": [
        {
          "internalType": "bytes32",
          "name": "",
          "type": "bytes32"
        }
      ],
      "stateMutability": "view",
      "type": "function"
    },
    {
      "inputs": [],
      "name": "DEFAULT_ADMIN_ROLE",
      "outputs": [
        {
          "internalType": "bytes32",
          "name": "",
          "type": "bytes32"
        }
      ],
      "stateMutability": "view",
      "type": "function"
    },
    {
      "inputs": [
        {
          "internalType": "uint256",
          "name": "amount",
          "type": "uint256"
        }
      ],
      "name": "approveYearnV2Vault",
      "outputs": [],
      "stateMutability": "nonpayable",
      "type": "function"
    },
    {
      "inputs": [],
      "name": "endBlock",
      "outputs": [
        {
          "internalType": "uint256",
          "name": "",
          "type": "uint256"
        }
      ],
      "stateMutability": "view",
      "type": "function"
    },
    {
      "inputs": [
        {
          "internalType": "bytes32",
          "name": "role",
          "type": "bytes32"
        }
      ],
      "name": "getRoleAdmin",
      "outputs": [
        {
          "internalType": "bytes32",
          "name": "",
          "type": "bytes32"
        }
      ],
      "stateMutability": "view",
      "type": "function"
    },
    {
      "inputs": [
        {
          "internalType": "bytes32",
          "name": "role",
          "type": "bytes32"
        },
        {
          "internalType": "uint256",
          "name": "index",
          "type": "uint256"
        }
      ],
      "name": "getRoleMember",
      "outputs": [
        {
          "internalType": "address",
          "name": "",
          "type": "address"
        }
      ],
      "stateMutability": "view",
      "type": "function"
    },
    {
      "inputs": [
        {
          "internalType": "bytes32",
          "name": "role",
          "type": "bytes32"
        }
      ],
      "name": "getRoleMemberCount",
      "outputs": [
        {
          "internalType": "uint256",
          "name": "",
          "type": "uint256"
        }
      ],
      "stateMutability": "view",
      "type": "function"
    },
    {
      "inputs": [
        {
          "internalType": "bytes32",
          "name": "role",
          "type": "bytes32"
        },
        {
          "internalType": "address",
          "name": "account",
          "type": "address"
        }
      ],
      "name": "grantRole",
      "outputs": [],
      "stateMutability": "nonpayable",
      "type": "function"
    },
    {
      "inputs": [
        {
          "internalType": "bytes32",
          "name": "role",
          "type": "bytes32"
        },
        {
          "internalType": "address",
          "name": "account",
          "type": "address"
        }
      ],
      "name": "hasRole",
      "outputs": [
        {
          "internalType": "bool",
          "name": "",
          "type": "bool"
        }
      ],
      "stateMutability": "view",
      "type": "function"
    },
    {
      "inputs": [],
      "name": "paytoken",
      "outputs": [
        {
          "internalType": "address",
          "name": "",
          "type": "address"
        }
      ],
      "stateMutability": "view",
      "type": "function"
    },
    {
      "inputs": [
        {
          "internalType": "bytes32",
          "name": "role",
          "type": "bytes32"
        },
        {
          "internalType": "address",
          "name": "account",
          "type": "address"
        }
      ],
      "name": "renounceRole",
      "outputs": [],
      "stateMutability": "nonpayable",
      "type": "function"
    },
    {
      "inputs": [
        {
          "internalType": "bytes32",
          "name": "role",
          "type": "bytes32"
        },
        {
          "internalType": "address",
          "name": "account",
          "type": "address"
        }
      ],
      "name": "revokeRole",
      "outputs": [],
      "stateMutability": "nonpayable",
      "type": "function"
    },
    {
      "inputs": [],
      "name": "rewardClaimedTotal",
      "outputs": [
        {
          "internalType": "uint256",
          "name": "",
          "type": "uint256"
        }
      ],
      "stateMutability": "view",
      "type": "function"
    },
    {
      "inputs": [],
      "name": "saleStartBlock",
      "outputs": [
        {
          "internalType": "uint256",
          "name": "",
          "type": "uint256"
        }
      ],
      "stateMutability": "view",
      "type": "function"
    },
    {
      "inputs": [
        {
          "internalType": "address",
          "name": "_vault",
          "type": "address"
        }
      ],
      "name": "setYearnV2",
      "outputs": [],
      "stateMutability": "nonpayable",
      "type": "function"
    },
    {
      "inputs": [],
      "name": "stakeRegistry",
      "outputs": [
        {
          "internalType": "address",
          "name": "",
          "type": "address"
        }
      ],
      "stateMutability": "view",
      "type": "function"
    },
    {
      "inputs": [],
      "name": "startBlock",
      "outputs": [
        {
          "internalType": "uint256",
          "name": "",
          "type": "uint256"
        }
      ],
      "stateMutability": "view",
      "type": "function"
    },
    {
      "inputs": [],
      "name": "token",
      "outputs": [
        {
          "internalType": "address",
          "name": "",
          "type": "address"
        }
      ],
      "stateMutability": "view",
      "type": "function"
    },
    {
      "inputs": [],
      "name": "totalStakedAmount",
      "outputs": [
        {
          "internalType": "uint256",
          "name": "",
          "type": "uint256"
        }
      ],
      "stateMutability": "view",
      "type": "function"
    },
    {
      "inputs": [],
      "name": "totalStakers",
      "outputs": [
        {
          "internalType": "uint256",
          "name": "",
          "type": "uint256"
        }
      ],
      "stateMutability": "view",
      "type": "function"
    },
    {
      "inputs": [
        {
          "internalType": "address",
          "name": "newOwner",
          "type": "address"
        }
      ],
      "name": "transferOwnership",
      "outputs": [],
      "stateMutability": "nonpayable",
      "type": "function"
    },
    {
      "inputs": [
        {
          "internalType": "address",
          "name": "",
          "type": "address"
        }
      ],
      "name": "userStaked",
      "outputs": [
        {
          "internalType": "uint256",
          "name": "amount",
          "type": "uint256"
        },
        {
          "internalType": "uint256",
          "name": "claimedBlock",
          "type": "uint256"
        },
        {
          "internalType": "uint256",
          "name": "claimedAmount",
          "type": "uint256"
        },
        {
          "internalType": "uint256",
          "name": "releasedBlock",
          "type": "uint256"
        },
        {
          "internalType": "uint256",
          "name": "releasedAmount",
          "type": "uint256"
        },
        {
          "internalType": "uint256",
          "name": "releasedFLDAmount",
          "type": "uint256"
        },
        {
          "internalType": "bool",
          "name": "released",
          "type": "bool"
        }
      ],
      "stateMutability": "view",
      "type": "function"
    },
    {
      "inputs": [],
      "name": "vault",
      "outputs": [
        {
          "internalType": "address",
          "name": "",
          "type": "address"
        }
      ],
      "stateMutability": "view",
      "type": "function"
    },
    {
      "inputs": [],
      "name": "yearnV2Vault",
      "outputs": [
        {
          "internalType": "address",
          "name": "",
          "type": "address"
        }
      ],
      "stateMutability": "view",
      "type": "function"
    },
    {
      "inputs": [],
      "name": "yearnV2_calcTotalValue",
      "outputs": [
        {
          "internalType": "uint256",
          "name": "underlyingAmount",
          "type": "uint256"
        }
      ],
      "stateMutability": "nonpayable",
      "type": "function"
    },
    {
      "inputs": [],
      "name": "yearnV2_claim",
      "outputs": [],
      "stateMutability": "nonpayable",
      "type": "function"
    },
    {
      "inputs": [
        {
          "internalType": "uint256",
          "name": "amount",
          "type": "uint256"
        }
      ],
      "name": "yearnV2_deposit",
      "outputs": [],
      "stateMutability": "nonpayable",
      "type": "function"
    },
    {
      "inputs": [
        {
          "internalType": "address",
          "name": "user",
          "type": "address"
        }
      ],
      "name": "yearnV2_unclaimedProfit",
      "outputs": [
        {
          "internalType": "uint256",
          "name": "",
          "type": "uint256"
        }
      ],
      "stateMutability": "view",
      "type": "function"
    },
    {
      "inputs": [],
      "name": "yearnV2_underlyingYield",
      "outputs": [
        {
          "internalType": "uint256",
          "name": "",
          "type": "uint256"
        }
      ],
      "stateMutability": "nonpayable",
      "type": "function"
    },
    {
      "inputs": [
        {
          "internalType": "uint256",
          "name": "amount",
          "type": "uint256"
        }
      ],
      "name": "yearnV2_withdraw",
      "outputs": [],
      "stateMutability": "nonpayable",
      "type": "function"
    },
    {
      "stateMutability": "payable",
      "type": "receive"
    },
    {
      "inputs": [
        {
          "internalType": "address",
          "name": "_token",
          "type": "address"
        },
        {
          "internalType": "address",
          "name": "_paytoken",
          "type": "address"
        },
        {
          "internalType": "address",
          "name": "_vault",
          "type": "address"
        },
        {
          "internalType": "uint256",
          "name": "_saleStartBlock",
          "type": "uint256"
        },
        {
          "internalType": "uint256",
          "name": "_startBlock",
          "type": "uint256"
        },
        {
          "internalType": "uint256",
          "name": "_period",
          "type": "uint256"
        }
      ],
      "name": "initialize",
      "outputs": [],
      "stateMutability": "nonpayable",
      "type": "function"
    },
    {
      "inputs": [
        {
          "internalType": "uint256",
          "name": "_amount",
          "type": "uint256"
        }
      ],
      "name": "stake",
      "outputs": [],
      "stateMutability": "payable",
      "type": "function"
    },
    {
      "inputs": [],
      "name": "withdraw",
      "outputs": [],
      "stateMutability": "nonpayable",
      "type": "function"
    },
    {
      "inputs": [],
      "name": "claim",
      "outputs": [],
      "stateMutability": "nonpayable",
      "type": "function"
    },
    {
      "inputs": [
        {
          "internalType": "address",
          "name": "account",
          "type": "address"
        }
      ],
      "name": "canRewardAmount",
      "outputs": [
        {
          "internalType": "uint256",
          "name": "",
          "type": "uint256"
        }
      ],
      "stateMutability": "view",
      "type": "function"
    }
  ],
  "bytecode": "0x60806040523480156200001157600080fd5b506200002d600080516020620025eb833981519152806200004e565b62000048600080516020620025eb83398151915233620000a0565b620001b6565b6000828152600d6020526040808220600201549051839285917fbd79b86ffe0ab8e8776151514217cd7cacd52c909f66475c3af44e129f0b00ff9190a46000918252600d602052604090912060020155565b620000ac8282620000b0565b5050565b6000828152600d60209081526040909120620000d791839062001eba6200012b821b17901c565b15620000ac57620000e76200014b565b6001600160a01b0316816001600160a01b0316837f2f8788117e7eff1d82e926ec794901d17c78024a50270940304540a733656f0d60405160405180910390a45050565b600062000142836001600160a01b0384166200014f565b90505b92915050565b3390565b60006200015d83836200019e565b620001955750815460018181018455600084815260208082209093018490558454848252828601909352604090209190915562000145565b50600062000145565b60009081526001919091016020526040902054151590565b61242580620001c66000396000f3fe6080604052600436106102085760003560e01c806375b238fc11610118578063b2d4d6a3116100a0578063e6d3bc6e1161006f578063e6d3bc6e146106b2578063f17f3275146106dc578063f2fde38b14610706578063fbfa77cf14610739578063fc0c546a1461074e5761020f565b8063b2d4d6a314610625578063c7f0b4551461063a578063ca15c8731461064f578063d547741f146106795761020f565b806391d14854116100e757806391d1485414610524578063a2095f2914610571578063a217fddf14610586578063a694fc3a1461059b578063acc3a939146105b85761020f565b806375b238fc1461049757806385fb34ce146104ac57806386989038146104df5780639010d07c146104f45761020f565b806343b0934a1161019b578063567e98f91161016a578063567e98f9146103bb5780635c826abb146103d0578063610b0663146103fa578063683048351461042d578063728cdbca146104425761020f565b806343b0934a1461032d57806348cd4cb11461035e5780634e71d92d14610373578063501afa75146103885761020f565b80632f2ff15d116101d75780632f2ff15d1461028f57806336568abe146102ca5780633aadeaf8146103035780633ccfd60b146103185761020f565b8063083c632314610214578063200272751461023b578063248a9ca3146102505780632bf829031461027a5761020f565b3661020f57005b600080fd5b34801561022057600080fd5b50610229610763565b60408051918252519081900360200190f35b34801561024757600080fd5b50610229610769565b34801561025c57600080fd5b506102296004803603602081101561027357600080fd5b503561076f565b34801561028657600080fd5b50610229610784565b34801561029b57600080fd5b506102c8600480360360408110156102b257600080fd5b50803590602001356001600160a01b03166108a7565b005b3480156102d657600080fd5b506102c8600480360360408110156102ed57600080fd5b50803590602001356001600160a01b0316610913565b34801561030f57600080fd5b506102c8610974565b34801561032457600080fd5b506102c8610a7e565b34801561033957600080fd5b50610342610cf2565b604080516001600160a01b039092168252519081900360200190f35b34801561036a57600080fd5b50610229610d01565b34801561037f57600080fd5b506102c8610d07565b34801561039457600080fd5b50610229600480360360208110156103ab57600080fd5b50356001600160a01b0316611078565b3480156103c757600080fd5b50610229611199565b3480156103dc57600080fd5b506102c8600480360360208110156103f357600080fd5b503561119f565b34801561040657600080fd5b506102296004803603602081101561041d57600080fd5b50356001600160a01b03166112a7565b34801561043957600080fd5b50610342611633565b34801561044e57600080fd5b506102c8600480360360c081101561046557600080fd5b506001600160a01b03813581169160208101358216916040820135169060608101359060808101359060a00135611642565b3480156104a357600080fd5b5061022961173d565b3480156104b857600080fd5b506102c8600480360360208110156104cf57600080fd5b50356001600160a01b031661174f565b3480156104eb57600080fd5b50610229611863565b34801561050057600080fd5b506103426004803603604081101561051757600080fd5b5080359060200135611869565b34801561053057600080fd5b5061055d6004803603604081101561054757600080fd5b50803590602001356001600160a01b0316611888565b604080519115158252519081900360200190f35b34801561057d57600080fd5b506103426118a0565b34801561059257600080fd5b506102296118af565b6102c8600480360360208110156105b157600080fd5b50356118b4565b3480156105c457600080fd5b506105eb600480360360208110156105db57600080fd5b50356001600160a01b0316611a4f565b604080519788526020880196909652868601949094526060860192909252608085015260a0840152151560c0830152519081900360e00190f35b34801561063157600080fd5b50610229611a8f565b34801561064657600080fd5b50610229611a95565b34801561065b57600080fd5b506102296004803603602081101561067257600080fd5b5035611b86565b34801561068557600080fd5b506102c86004803603604081101561069c57600080fd5b50803590602001356001600160a01b0316611b9d565b3480156106be57600080fd5b506102c8600480360360208110156106d557600080fd5b5035611bf6565b3480156106e857600080fd5b506102c8600480360360208110156106ff57600080fd5b5035611ce2565b34801561071257600080fd5b506102c86004803603602081101561072957600080fd5b50356001600160a01b0316611dbb565b34801561074557600080fd5b50610342611e9c565b34801561075a57600080fd5b50610342611eab565b60065481565b60045481565b6000908152600d602052604090206002015490565b600061079e6000805160206122ae83398151915233611888565b6107d95760405162461bcd60e51b81526004018080602001828103825260258152602001806123776025913960400191505060405180910390fd5b600c546001600160a01b031680610825576040805162461bcd60e51b815260206004820152601b602482015260008051602061226c833981519152604482015290519081900360640190fd5b600c60009054906101000a90046001600160a01b03166001600160a01b0316633d8bb5176040518163ffffffff1660e01b8152600401602060405180830381600087803b15801561087557600080fd5b505af1158015610889573d6000803e3d6000fd5b505050506040513d602081101561089f57600080fd5b505191505090565b6000828152600d60205260409020600201546108ca906108c5611ecf565b611888565b6109055760405162461bcd60e51b815260040180806020018281038252602f815260200180612199602f913960400191505060405180910390fd5b61090f8282611ed3565b5050565b61091b611ecf565b6001600160a01b0316816001600160a01b03161461096a5760405162461bcd60e51b815260040180806020018281038252602f8152602001806123c1602f913960400191505060405180910390fd5b61090f8282611f3c565b61098c6000805160206122ae83398151915233611888565b6109c75760405162461bcd60e51b81526004018080602001828103825260258152602001806123776025913960400191505060405180910390fd5b600c546001600160a01b031680610a13576040805162461bcd60e51b815260206004820152601b602482015260008051602061226c833981519152604482015290519081900360640190fd5b600c60009054906101000a90046001600160a01b03166001600160a01b0316634e71d92d6040518163ffffffff1660e01b8152600401600060405180830381600087803b158015610a6357600080fd5b505af1158015610a77573d6000803e3d6000fd5b5050505050565b6000600654118015610a91575043600654105b610acc5760405162461bcd60e51b815260040180806020018281038252602581526020018061239c6025913960400191505060405180910390fd5b33600090815260096020526040902080548015801590610af157508154600483015411155b610b2c5760405162461bcd60e51b81526004018080602001828103825260318152602001806122f06031913960400191505060405180910390fd5b8154600483015543600383015560068201805460ff191660011790556002546001600160a01b0316610bf557308031821115610b6757600080fd5b604051600090339084908381818185875af1925050503d8060008114610ba9576040519150601f19603f3d011682016040523d82523d6000602084013e610bae565b606091505b5050905080610bee5760405162461bcd60e51b815260040180806020018281038252602d815260200180612321602d913960400191505060405180910390fd5b5050610cb0565b6002546040805163a9059cbb60e01b81523360048201526024810184905290516001600160a01b039092169163a9059cbb916044808201926020929091908290030181600087803b158015610c4957600080fd5b505af1158015610c5d573d6000803e3d6000fd5b505050506040513d6020811015610c7357600080fd5b5051610cb05760405162461bcd60e51b815260040180806020018281038252602a815260200180612242602a913960400191505060405180910390fd5b604080518281524360208201528151339230927fc2b4a290c20fb28939d29f102514fbffd2b73c059ffba8b78250c94161d5fcc6929081900390910190a35050565b6002546001600160a01b031681565b60055481565b600b5415610d5c576040805162461bcd60e51b815260206004820152601a60248201527f5374616b65466f72537461626c65436f696e3a204c4f434b4544000000000000604482015290519081900360640190fd5b6001600b5560035460408051631718ecd760e31b815290516001600160a01b039092169163b8c766b891600480820192602092909190829003018186803b158015610da657600080fd5b505afa158015610dba573d6000803e3d6000fd5b505050506040513d6020811015610dd057600080fd5b50511515600114610e125760405162461bcd60e51b815260040180806020018281038252602281526020018061228c6022913960400191505060405180910390fd5b336000818152600960205260408120600654600182015443929111610e7e576040805162461bcd60e51b815260206004820152601b60248201527f5374616b65466f72537461626c65436f696e3a20636c61696d65640000000000604482015290519081900360640190fd5b610e87846112a7565b925060008311610ec85760405162461bcd60e51b81526004018080602001828103825260228152602001806122ce6022913960400191505060405180910390fd5b6003546040805163032f7adb60e61b815230600482015290516000926001600160a01b03169163cbdeb6c0916024808301926020929190829003018186803b158015610f1357600080fd5b505afa158015610f27573d6000803e3d6000fd5b505050506040513d6020811015610f3d57600080fd5b50516007549091508401811015610f855760405162461bcd60e51b81526004018080602001828103825260288152602001806121ea6028913960400191505060405180910390fd5b6001820183905560028201805485019055600780548501905560035460408051635569f64b60e11b81526001600160a01b038881166004830152602482018890529151919092169163aad3ec969160448083019260209291908290030181600087803b158015610ff457600080fd5b505af1158015611008573d6000803e3d6000fd5b505050506040513d602081101561101e57600080fd5b505161102957600080fd5b604080518581526020810185905281516001600160a01b038816927f987d620f307ff6b94d58743cb7a7509f24071586a77759b77c2d4e29f75a2f9a928290030190a250506000600b55505050565b60006110926000805160206122ae83398151915233611888565b6110cd5760405162461bcd60e51b81526004018080602001828103825260258152602001806123776025913960400191505060405180910390fd5b600c546001600160a01b031680611119576040805162461bcd60e51b815260206004820152601b602482015260008051602061226c833981519152604482015290519081900360640190fd5b600c54604080516301678afb60e31b81526001600160a01b03868116600483015291519190921691630b3c57d8916024808301926020929190829003018186803b15801561116657600080fd5b505afa15801561117a573d6000803e3d6000fd5b505050506040513d602081101561119057600080fd5b50519392505050565b60085481565b6111b76000805160206122ae83398151915233611888565b6111f25760405162461bcd60e51b81526004018080602001828103825260258152602001806123776025913960400191505060405180910390fd5b600c546001600160a01b03168061123e576040805162461bcd60e51b815260206004820152601b602482015260008051602061226c833981519152604482015290519081900360640190fd5b600c5460408051632e1a7d4d60e01b81526004810185905290516001600160a01b0390921691632e1a7d4d9160248082019260009290919082900301818387803b15801561128b57600080fd5b505af115801561129f573d6000803e3d6000fd5b505050505050565b60055460009081904310806112d257506001600160a01b038316600090815260096020526040902054155b806112f957506006546001600160a01b038416600090815260096020526040902060010154115b8061131e57506001600160a01b03831660009081526009602052604090206001015443105b1561132b5750600061162d565b6005546006546001600160a01b038516600090815260096020526040902060010154821015611373576001600160a01b03851660009081526009602052604090206001015491505b8043101561137e5750435b6003546040805163c1b422fd60e01b815290516000926001600160a01b03169163c1b422fd9160048083019286929190829003018186803b1580156113c257600080fd5b505afa1580156113d6573d6000803e3d6000fd5b505050506040513d6000823e601f3d908101601f1916820160405260208110156113ff57600080fd5b810190808051604051939291908464010000000082111561141f57600080fd5b90830190602082018581111561143457600080fd5b825186602082028301116401000000008211171561145157600080fd5b82525081516020918201928201910280838360005b8381101561147e578181015183820152602001611466565b505050509050016040525050509050600081511115611629576000806000600360009054906101000a90046001600160a01b03166001600160a01b031663d105bf856040518163ffffffff1660e01b815260040160206040518083038186803b1580156114ea57600080fd5b505afa1580156114fe573d6000803e3d6000fd5b505050506040513d602081101561151457600080fd5b5051905060005b84518110156116245784818151811061153057fe5b60209081029190910181015160035460408051632f8deb1560e11b81526004810184905290519297506001600160a01b0390911692635f1bd62a92602480840193829003018186803b15801561158557600080fd5b505afa158015611599573d6000803e3d6000fd5b505050506040513d60208110156115af57600080fd5b505192508386116115ec576001600160a01b038a166000908152600960205260409020548390888803840202816115e257fe5b0488019750611624565b6001600160a01b038a1660009081526009602052604090205483908886038402028161161457fe5b048801975083965060010161151b565b505050505b5050505b92915050565b6001546001600160a01b031681565b61165a6000805160206122ae83398151915233611888565b6116955760405162461bcd60e51b81526004018080602001828103825260258152602001806123776025913960400191505060405180910390fd5b6001600160a01b038616158015906116b557506001600160a01b03841615155b80156116c15750818311155b6116ca57600080fd5b600080546001600160a01b038089166001600160a01b03199283161790925560028054888416908316179055600380549287169290911691909117905582611715574360045561171b565b60048390555b81611729574360055561172f565b60058290555b600554016006555050505050565b6000805160206122ae83398151915281565b6117676000805160206122ae83398151915233611888565b6117a25760405162461bcd60e51b81526004018080602001828103825260258152602001806123776025913960400191505060405180910390fd5b60045443106117f8576040805162461bcd60e51b815260206004820152601e60248201527f546f6b616d616b5374616b65723a20416c726561647920737461727465640000604482015290519081900360640190fd5b6001600160a01b038116611841576040805162461bcd60e51b815260206004820152601b602482015260008051602061226c833981519152604482015290519081900360640190fd5b600c80546001600160a01b0319166001600160a01b0392909216919091179055565b600a5481565b6000828152600d602052604081206118819083611fa5565b9392505050565b6000828152600d602052604081206118819083611fb1565b600c546001600160a01b031681565b600081565b6002546001600160a01b03161580156118cd5750600034115b806118ed57506002546001600160a01b0316158015906118ed5750600081115b6119285760405162461bcd60e51b81526004018080602001828103825260228152602001806121c86022913960400191505060405180910390fd5b600454431015801561193d5750600554600454105b6119785760405162461bcd60e51b815260040180806020018281038252602981526020018061234e6029913960400191505060405180910390fd5b60025481906001600160a01b031661198d5750345b33600090815260096020526040902080548201815560088054830190556002546001600160a01b031615611a4a57600254604080516323b872dd60e01b81523360048201523060248201526044810185905290516001600160a01b03909216916323b872dd916064808201926020929091908290030181600087803b158015611a1557600080fd5b505af1158015611a29573d6000803e3d6000fd5b505050506040513d6020811015611a3f57600080fd5b5051611a4a57600080fd5b505050565b6009602052600090815260409020805460018201546002830154600384015460048501546005860154600690960154949593949293919290919060ff1687565b60075481565b6000611aaf6000805160206122ae83398151915233611888565b611aea5760405162461bcd60e51b81526004018080602001828103825260258152602001806123776025913960400191505060405180910390fd5b600c546001600160a01b031680611b36576040805162461bcd60e51b815260206004820152601b602482015260008051602061226c833981519152604482015290519081900360640190fd5b600c60009054906101000a90046001600160a01b03166001600160a01b031663a00251c66040518163ffffffff1660e01b8152600401602060405180830381600087803b15801561087557600080fd5b6000818152600d6020526040812061162d90611fc6565b6000828152600d6020526040902060020154611bbb906108c5611ecf565b61096a5760405162461bcd60e51b81526004018080602001828103825260308152602001806122126030913960400191505060405180910390fd5b611c0e6000805160206122ae83398151915233611888565b611c495760405162461bcd60e51b81526004018080602001828103825260258152602001806123776025913960400191505060405180910390fd5b600c546001600160a01b031680611c95576040805162461bcd60e51b815260206004820152601b602482015260008051602061226c833981519152604482015290519081900360640190fd5b600c546040805163b6b55f2560e01b81526004810185905290516001600160a01b039092169163b6b55f259160248082019260009290919082900301818387803b15801561128b57600080fd5b600254600c546040805163095ea7b360e01b81526001600160a01b039283166004820152602481018590529051919092169163095ea7b39160448083019260209291908290030181600087803b158015611d3b57600080fd5b505af1158015611d4f573d6000803e3d6000fd5b505050506040513d6020811015611d6557600080fd5b5051611db8576040805162461bcd60e51b815260206004820152601b60248201527f596561726e56325374616b65723a20617070726f7665206661696c0000000000604482015290519081900360640190fd5b50565b611dd36000805160206122ae83398151915233611888565b611e0e5760405162461bcd60e51b81526004018080602001828103825260258152602001806123776025913960400191505060405180910390fd5b336001600160a01b0382161415611e6c576040805162461bcd60e51b815260206004820152601860248201527f596561726e56325374616b65723a73616d65206f776e65720000000000000000604482015290519081900360640190fd5b611e846000805160206122ae833981519152826108a7565b611db86000805160206122ae83398151915233611b9d565b6003546001600160a01b031681565b6000546001600160a01b031681565b6000611881836001600160a01b038416611fd1565b3390565b6000828152600d60205260409020611eeb9082611eba565b1561090f57611ef8611ecf565b6001600160a01b0316816001600160a01b0316837f2f8788117e7eff1d82e926ec794901d17c78024a50270940304540a733656f0d60405160405180910390a45050565b6000828152600d60205260409020611f54908261201b565b1561090f57611f61611ecf565b6001600160a01b0316816001600160a01b0316837ff6391f5c32d9c69d2a47ea670b442974b53935d1edc7fd64eb21e047a839171b60405160405180910390a45050565b60006118818383612030565b6000611881836001600160a01b038416612094565b600061162d826120ac565b6000611fdd8383612094565b6120135750815460018181018455600084815260208082209093018490558454848252828601909352604090209190915561162d565b50600061162d565b6000611881836001600160a01b0384166120b0565b815460009082106120725760405162461bcd60e51b81526004018080602001828103825260228152602001806121776022913960400191505060405180910390fd5b82600001828154811061208157fe5b9060005260206000200154905092915050565b60009081526001919091016020526040902054151590565b5490565b6000818152600183016020526040812054801561216c57835460001980830191908101906000908790839081106120e357fe5b906000526020600020015490508087600001848154811061210057fe5b60009182526020808320909101929092558281526001898101909252604090209084019055865487908061213057fe5b6001900381819060005260206000200160009055905586600101600087815260200190815260200160002060009055600194505050505061162d565b600091505061162d56fe456e756d657261626c655365743a20696e646578206f7574206f6620626f756e6473416363657373436f6e74726f6c3a2073656e646572206d75737420626520616e2061646d696e20746f206772616e745374616b65466f72537461626c65436f696e3a20616d6f756e74206973207a65726f5374616b65466f72537461626c65436f696e3a20746f74616c207265776172642065786365656473416363657373436f6e74726f6c3a2073656e646572206d75737420626520616e2061646d696e20746f207265766f6b655374616b65466f72537461626c65436f696e3a207769746864726177207472616e73666572206661696c596561726e56325374616b65723a207a65726f206164647265737300000000005374616b65466f72537461626c65436f696e3a20646973636c6f73652073616c652edf8b4c520ffe197c5343c6f5aec59570151ef9a492f2c624fd45ddde6135ec425374616b65466f72537461626c65436f696e3a20726577617264206973207a65726f5374616b65466f72537461626c65436f696e3a2072656c6561736564416d6f756e74203e207374616b6564416d6f756e745374616b65466f72537461626c65436f696e3a207769746864726177206574682073656e64206661696c65642e5374616b65466f72537461626c65436f696e3a20706572696f6420697320756e617661696c61626c65596561726e56325374616b65723a2043616c6c6572206973206e6f7420616e2061646d696e5374616b65466f72537461626c65436f696e3a206f6e207374616b696e6720706572696f64416363657373436f6e74726f6c3a2063616e206f6e6c792072656e6f756e636520726f6c657320666f722073656c66a2646970667358221220a2fad15418be7bfebc783e3d90a21a235fc775c3700cf339b56945d277c0692a64736f6c63430007060033df8b4c520ffe197c5343c6f5aec59570151ef9a492f2c624fd45ddde6135ec42",
  "immutableReferences": {},
  "source": "//SPDX-License-Identifier: Unlicense\npragma solidity ^0.7.0;\n\nimport {IStake1Vault} from \"../interfaces/IStake1Vault.sol\";\nimport {IERC20} from \"@openzeppelin/contracts/token/ERC20/IERC20.sol\";\nimport \"../libraries/LibTokenStake1.sol\";\nimport \"../connection/YearnV2Staker.sol\";\nimport {\n    ERC165Checker\n} from \"@openzeppelin/contracts/introspection/ERC165Checker.sol\";\nimport {SafeERC20} from \"@openzeppelin/contracts/token/ERC20/SafeERC20.sol\";\n\ncontract StakeForStableCoin is YearnV2Staker {\n    using SafeERC20 for IERC20;\n\n    modifier lock() {\n        require(_lock == 0, \"StakeForStableCoin: LOCKED\");\n        _lock = 1;\n        _;\n        _lock = 0;\n    }\n\n    event Claimed(address indexed from, uint256 amount, uint256 currentBlcok);\n    event Withdrawal(\n        address indexed from,\n        address indexed to,\n        uint256 amount,\n        uint256 currentBlcok\n    );\n\n    constructor() {\n        _setRoleAdmin(ADMIN_ROLE, ADMIN_ROLE);\n        _setupRole(ADMIN_ROLE, msg.sender);\n    }\n\n    /// @dev Initialize\n    function initialize(\n        address _token,\n        address _paytoken,\n        address _vault,\n        uint256 _saleStartBlock,\n        uint256 _startBlock,\n        uint256 _period\n    ) external onlyOwner {\n        require(\n            _token != address(0) &&\n                _vault != address(0) &&\n                _saleStartBlock <= _startBlock\n        );\n        token = _token;\n        paytoken = _paytoken;\n        vault = _vault;\n        if (_saleStartBlock == 0) saleStartBlock = block.number;\n        else saleStartBlock = _saleStartBlock;\n        if (_startBlock == 0) startBlock = block.number;\n        else startBlock = _startBlock;\n        endBlock = startBlock + _period;\n    }\n\n    receive() external payable {\n        // stake(msg.value);\n    }\n\n    /// @dev Stake amount\n    function stake(uint256 _amount) public payable {\n        require(\n            (paytoken == address(0) && msg.value > 0) ||\n                (paytoken != address(0) && _amount > 0),\n            \"StakeForStableCoin: amount is zero\"\n        );\n        require(\n            block.number >= saleStartBlock && saleStartBlock < startBlock,\n            \"StakeForStableCoin: period is unavailable\"\n        );\n\n        uint256 amount = _amount;\n        if (paytoken == address(0)) amount = msg.value;\n\n        LibTokenStake1.StakedAmount storage staked = userStaked[msg.sender];\n        staked.amount += amount;\n        totalStakedAmount += amount;\n        if (paytoken != address(0))\n            require(\n                IERC20(paytoken).transferFrom(msg.sender, address(this), amount)\n            );\n    }\n\n    /// @dev To withdraw\n    function withdraw() external {\n        require(\n            endBlock > 0 && endBlock < block.number,\n            \"StakeForStableCoin: on staking period\"\n        );\n        LibTokenStake1.StakedAmount storage staked = userStaked[msg.sender];\n\n        uint256 amount = staked.amount;\n\n        // TODO: restaking reward\n        require(\n            staked.amount > 0 && staked.releasedAmount <= staked.amount,\n            \"StakeForStableCoin: releasedAmount > stakedAmount\"\n        );\n\n        staked.releasedAmount = staked.amount;\n        staked.releasedBlock = block.number;\n        staked.released = true;\n\n        // check if we send in ethers or in tokens\n        if (paytoken == address(0)) {\n            address payable self = address(uint160(address(this)));\n            require(self.balance >= amount);\n            (bool success, ) = msg.sender.call{value: amount}(\"\");\n            require(success, \"StakeForStableCoin: withdraw eth send failed.\");\n        } else {\n            require(\n                IERC20(paytoken).transfer(msg.sender, amount),\n                \"StakeForStableCoin: withdraw transfer fail\"\n            );\n        }\n\n        emit Withdrawal(address(this), msg.sender, amount, block.number);\n    }\n\n    /// @dev Claim for reward\n    function claim() external lock {\n        require(\n            IStake1Vault(vault).saleClosed() == true,\n            \"StakeForStableCoin: disclose sale.\"\n        );\n        address account = msg.sender;\n        uint256 rewardClaim = 0;\n        uint256 currentBlock = block.number;\n\n        LibTokenStake1.StakedAmount storage staked = userStaked[account];\n        require(staked.claimedBlock < endBlock, \"StakeForStableCoin: claimed\");\n\n        rewardClaim = canRewardAmount(account);\n\n        require(rewardClaim > 0, \"StakeForStableCoin: reward is zero\");\n\n        uint256 rewardTotal =\n            IStake1Vault(vault).totalRewardAmount(address(this));\n        require(\n            (rewardClaimedTotal + rewardClaim) <= rewardTotal,\n            \"StakeForStableCoin: total reward exceeds\"\n        );\n\n        staked.claimedBlock = currentBlock;\n        staked.claimedAmount += rewardClaim;\n        rewardClaimedTotal += rewardClaim;\n\n        require(IStake1Vault(vault).claim(account, rewardClaim));\n\n        emit Claimed(account, rewardClaim, currentBlock);\n    }\n\n    /// @dev Returns the amount that can be rewarded\n    function canRewardAmount(address account) public view returns (uint256) {\n        uint256 reward = 0;\n        if (\n            block.number < startBlock ||\n            userStaked[account].amount == 0 ||\n            userStaked[account].claimedBlock > endBlock ||\n            userStaked[account].claimedBlock > block.number\n        ) {\n            reward = 0;\n        } else {\n            uint256 startR = startBlock;\n            uint256 endR = endBlock;\n            if (startR < userStaked[account].claimedBlock)\n                startR = userStaked[account].claimedBlock;\n            if (block.number < endR) endR = block.number;\n\n            uint256[] memory orderedEndBlocks =\n                IStake1Vault(vault).orderedEndBlocksAll();\n\n            if (orderedEndBlocks.length > 0) {\n                uint256 _end = 0;\n                uint256 _total = 0;\n                uint256 blockTotalReward = 0;\n                blockTotalReward = IStake1Vault(vault).blockTotalReward();\n\n                for (uint256 i = 0; i < orderedEndBlocks.length; i++) {\n                    _end = orderedEndBlocks[i];\n                    _total = IStake1Vault(vault).stakeEndBlockTotal(_end);\n\n                    if (endR <= _end) {\n                        reward +=\n                            (blockTotalReward *\n                                (endR - startR) *\n                                userStaked[account].amount) /\n                            _total;\n                        break;\n                    } else {\n                        reward +=\n                            (blockTotalReward *\n                                (_end - startR) *\n                                userStaked[account].amount) /\n                            _total;\n                        startR = _end;\n                    }\n                }\n            }\n        }\n        return reward;\n    }\n}\n",
  "sourcePath": "/Users/zena/ico2.0/ico20-contracts/contracts/stake/StakeForStableCoin.sol",
  "compiler": {
    "name": "solc",
    "version": "0.7.6+commit.7338295f.Emscripten.clang"
  },
  "schemaVersion": "3.3.4",
  "updatedAt": "2021-05-31T08:59:05.869Z",
  "devdoc": {
    "kind": "dev",
    "methods": {
      "canRewardAmount(address)": {
        "details": "Returns the amount that can be rewarded"
      },
      "claim()": {
        "details": "Claim for reward"
      },
      "getRoleAdmin(bytes32)": {
        "details": "Returns the admin role that controls `role`. See {grantRole} and {revokeRole}. To change a role's admin, use {_setRoleAdmin}."
      },
      "getRoleMember(bytes32,uint256)": {
        "details": "Returns one of the accounts that have `role`. `index` must be a value between 0 and {getRoleMemberCount}, non-inclusive. Role bearers are not sorted in any particular way, and their ordering may change at any point. WARNING: When using {getRoleMember} and {getRoleMemberCount}, make sure you perform all queries on the same block. See the following https://forum.openzeppelin.com/t/iterating-over-elements-on-enumerableset-in-openzeppelin-contracts/2296[forum post] for more information."
      },
      "getRoleMemberCount(bytes32)": {
        "details": "Returns the number of accounts that have `role`. Can be used together with {getRoleMember} to enumerate all bearers of a role."
      },
      "grantRole(bytes32,address)": {
        "details": "Grants `role` to `account`. If `account` had not been already granted `role`, emits a {RoleGranted} event. Requirements: - the caller must have ``role``'s admin role."
      },
      "hasRole(bytes32,address)": {
        "details": "Returns `true` if `account` has been granted `role`."
      },
      "initialize(address,address,address,uint256,uint256,uint256)": {
        "details": "Initialize"
      },
      "renounceRole(bytes32,address)": {
        "details": "Revokes `role` from the calling account. Roles are often managed via {grantRole} and {revokeRole}: this function's purpose is to provide a mechanism for accounts to lose their privileges if they are compromised (such as when a trusted device is misplaced). If the calling account had been granted `role`, emits a {RoleRevoked} event. Requirements: - the caller must be `account`."
      },
      "revokeRole(bytes32,address)": {
        "details": "Revokes `role` from `account`. If `account` had been granted `role`, emits a {RoleRevoked} event. Requirements: - the caller must have ``role``'s admin role."
      },
      "stake(uint256)": {
        "details": "Stake amount"
      },
      "withdraw()": {
        "details": "To withdraw"
      }
    },
    "version": 1
  },
  "userdoc": {
    "kind": "user",
    "methods": {},
    "version": 1
  }
}