{
  "contractName": "Stake1Proxy",
  "abi": [
    {
      "inputs": [
        {
          "internalType": "address",
          "name": "_logic",
          "type": "address"
        }
      ],
      "stateMutability": "nonpayable",
      "type": "constructor"
    },
    {
      "anonymous": false,
      "inputs": [
        {
          "indexed": true,
          "internalType": "bytes32",
          "name": "role",
          "type": "bytes32"
        },
        {
          "indexed": true,
          "internalType": "bytes32",
          "name": "previousAdminRole",
          "type": "bytes32"
        },
        {
          "indexed": true,
          "internalType": "bytes32",
          "name": "newAdminRole",
          "type": "bytes32"
        }
      ],
      "name": "RoleAdminChanged",
      "type": "event"
    },
    {
      "anonymous": false,
      "inputs": [
        {
          "indexed": true,
          "internalType": "bytes32",
          "name": "role",
          "type": "bytes32"
        },
        {
          "indexed": true,
          "internalType": "address",
          "name": "account",
          "type": "address"
        },
        {
          "indexed": true,
          "internalType": "address",
          "name": "sender",
          "type": "address"
        }
      ],
      "name": "RoleGranted",
      "type": "event"
    },
    {
      "anonymous": false,
      "inputs": [
        {
          "indexed": true,
          "internalType": "bytes32",
          "name": "role",
          "type": "bytes32"
        },
        {
          "indexed": true,
          "internalType": "address",
          "name": "account",
          "type": "address"
        },
        {
          "indexed": true,
          "internalType": "address",
          "name": "sender",
          "type": "address"
        }
      ],
      "name": "RoleRevoked",
      "type": "event"
    },
    {
      "anonymous": false,
      "inputs": [
        {
          "indexed": true,
          "internalType": "address",
          "name": "implementation",
          "type": "address"
        },
        {
          "indexed": false,
          "internalType": "uint256",
          "name": "_index",
          "type": "uint256"
        }
      ],
      "name": "Upgraded",
      "type": "event"
    },
    {
      "stateMutability": "payable",
      "type": "fallback"
    },
    {
      "inputs": [],
      "name": "ADMIN_ROLE",
      "outputs": [
        {
          "internalType": "bytes32",
          "name": "",
          "type": "bytes32"
        }
      ],
      "stateMutability": "view",
      "type": "function"
    },
    {
      "inputs": [],
      "name": "BURNER_ROLE",
      "outputs": [
        {
          "internalType": "bytes32",
          "name": "",
          "type": "bytes32"
        }
      ],
      "stateMutability": "view",
      "type": "function"
    },
    {
      "inputs": [],
      "name": "DEFAULT_ADMIN_ROLE",
      "outputs": [
        {
          "internalType": "bytes32",
          "name": "",
          "type": "bytes32"
        }
      ],
      "stateMutability": "view",
      "type": "function"
    },
    {
      "inputs": [],
      "name": "MINTER_ROLE",
      "outputs": [
        {
          "internalType": "bytes32",
          "name": "",
          "type": "bytes32"
        }
      ],
      "stateMutability": "view",
      "type": "function"
    },
    {
      "inputs": [
        {
          "internalType": "address",
          "name": "account",
          "type": "address"
        }
      ],
      "name": "addAdmin",
      "outputs": [],
      "stateMutability": "nonpayable",
      "type": "function"
    },
    {
      "inputs": [
        {
          "internalType": "address",
          "name": "",
          "type": "address"
        }
      ],
      "name": "aliveImplementation",
      "outputs": [
        {
          "internalType": "bool",
          "name": "",
          "type": "bool"
        }
      ],
      "stateMutability": "view",
      "type": "function"
    },
    {
      "inputs": [],
      "name": "depositManager",
      "outputs": [
        {
          "internalType": "address",
          "name": "",
          "type": "address"
        }
      ],
      "stateMutability": "view",
      "type": "function"
    },
    {
      "inputs": [
        {
          "internalType": "bytes32",
          "name": "role",
          "type": "bytes32"
        }
      ],
      "name": "getRoleAdmin",
      "outputs": [
        {
          "internalType": "bytes32",
          "name": "",
          "type": "bytes32"
        }
      ],
      "stateMutability": "view",
      "type": "function"
    },
    {
      "inputs": [
        {
          "internalType": "bytes32",
          "name": "role",
          "type": "bytes32"
        },
        {
          "internalType": "uint256",
          "name": "index",
          "type": "uint256"
        }
      ],
      "name": "getRoleMember",
      "outputs": [
        {
          "internalType": "address",
          "name": "",
          "type": "address"
        }
      ],
      "stateMutability": "view",
      "type": "function"
    },
    {
      "inputs": [
        {
          "internalType": "bytes32",
          "name": "role",
          "type": "bytes32"
        }
      ],
      "name": "getRoleMemberCount",
      "outputs": [
        {
          "internalType": "uint256",
          "name": "",
          "type": "uint256"
        }
      ],
      "stateMutability": "view",
      "type": "function"
    },
    {
      "inputs": [
        {
          "internalType": "bytes32",
          "name": "role",
          "type": "bytes32"
        },
        {
          "internalType": "address",
          "name": "account",
          "type": "address"
        }
      ],
      "name": "grantRole",
      "outputs": [],
      "stateMutability": "nonpayable",
      "type": "function"
    },
    {
      "inputs": [
        {
          "internalType": "bytes32",
          "name": "role",
          "type": "bytes32"
        },
        {
          "internalType": "address",
          "name": "account",
          "type": "address"
        }
      ],
      "name": "hasRole",
      "outputs": [
        {
          "internalType": "bool",
          "name": "",
          "type": "bool"
        }
      ],
      "stateMutability": "view",
      "type": "function"
    },
    {
      "inputs": [
        {
          "internalType": "address",
          "name": "account",
          "type": "address"
        }
      ],
      "name": "isAdmin",
      "outputs": [
        {
          "internalType": "bool",
          "name": "",
          "type": "bool"
        }
      ],
      "stateMutability": "view",
      "type": "function"
    },
    {
      "inputs": [],
      "name": "pauseProxy",
      "outputs": [
        {
          "internalType": "bool",
          "name": "",
          "type": "bool"
        }
      ],
      "stateMutability": "view",
      "type": "function"
    },
    {
      "inputs": [
        {
          "internalType": "uint256",
          "name": "",
          "type": "uint256"
        }
      ],
      "name": "proxyImplementation",
      "outputs": [
        {
          "internalType": "address",
          "name": "",
          "type": "address"
        }
      ],
      "stateMutability": "view",
      "type": "function"
    },
    {
      "inputs": [
        {
          "internalType": "address",
          "name": "account",
          "type": "address"
        }
      ],
      "name": "removeAdmin",
      "outputs": [],
      "stateMutability": "nonpayable",
      "type": "function"
    },
    {
      "inputs": [
        {
          "internalType": "bytes32",
          "name": "role",
          "type": "bytes32"
        },
        {
          "internalType": "address",
          "name": "account",
          "type": "address"
        }
      ],
      "name": "renounceRole",
      "outputs": [],
      "stateMutability": "nonpayable",
      "type": "function"
    },
    {
      "inputs": [
        {
          "internalType": "bytes32",
          "name": "role",
          "type": "bytes32"
        },
        {
          "internalType": "address",
          "name": "account",
          "type": "address"
        }
      ],
      "name": "revokeRole",
      "outputs": [],
      "stateMutability": "nonpayable",
      "type": "function"
    },
    {
      "inputs": [],
      "name": "seigManager",
      "outputs": [
        {
          "internalType": "address",
          "name": "",
          "type": "address"
        }
      ],
      "stateMutability": "view",
      "type": "function"
    },
    {
      "inputs": [
        {
          "internalType": "bytes4",
          "name": "",
          "type": "bytes4"
        }
      ],
      "name": "selectorImplementation",
      "outputs": [
        {
          "internalType": "address",
          "name": "",
          "type": "address"
        }
      ],
      "stateMutability": "view",
      "type": "function"
    },
    {
      "inputs": [],
      "name": "stakeFactory",
      "outputs": [
        {
          "internalType": "contract IStakeFactory",
          "name": "",
          "type": "address"
        }
      ],
      "stateMutability": "view",
      "type": "function"
    },
    {
      "inputs": [],
      "name": "stakeRegistry",
      "outputs": [
        {
          "internalType": "contract IStakeRegistry",
          "name": "",
          "type": "address"
        }
      ],
      "stateMutability": "view",
      "type": "function"
    },
    {
      "inputs": [],
      "name": "stakeVaultFactory",
      "outputs": [
        {
          "internalType": "contract IStakeVaultFactory",
          "name": "",
          "type": "address"
        }
      ],
      "stateMutability": "view",
      "type": "function"
    },
    {
      "inputs": [],
      "name": "ton",
      "outputs": [
        {
          "internalType": "address",
          "name": "",
          "type": "address"
        }
      ],
      "stateMutability": "view",
      "type": "function"
    },
    {
      "inputs": [],
      "name": "tos",
      "outputs": [
        {
          "internalType": "address",
          "name": "",
          "type": "address"
        }
      ],
      "stateMutability": "view",
      "type": "function"
    },
    {
      "inputs": [
        {
          "internalType": "address",
          "name": "newAdmin",
          "type": "address"
        }
      ],
      "name": "transferAdmin",
      "outputs": [],
      "stateMutability": "nonpayable",
      "type": "function"
    },
    {
      "inputs": [],
      "name": "wton",
      "outputs": [
        {
          "internalType": "address",
          "name": "",
          "type": "address"
        }
      ],
      "stateMutability": "view",
      "type": "function"
    },
    {
      "stateMutability": "payable",
      "type": "receive"
    },
    {
      "inputs": [
        {
          "internalType": "bool",
          "name": "_pause",
          "type": "bool"
        }
      ],
      "name": "setProxyPause",
      "outputs": [],
      "stateMutability": "nonpayable",
      "type": "function"
    },
    {
      "inputs": [
        {
          "internalType": "address",
          "name": "impl",
          "type": "address"
        },
        {
          "internalType": "uint256",
          "name": "_index",
          "type": "uint256"
        }
      ],
      "name": "upgradeTo",
      "outputs": [],
      "stateMutability": "nonpayable",
      "type": "function"
    },
    {
      "inputs": [
        {
          "internalType": "uint256",
          "name": "_index",
          "type": "uint256"
        }
      ],
      "name": "implementation",
      "outputs": [
        {
          "internalType": "address",
          "name": "",
          "type": "address"
        }
      ],
      "stateMutability": "view",
      "type": "function"
    },
    {
      "inputs": [
        {
          "internalType": "address",
          "name": "newImplementation",
          "type": "address"
        },
        {
          "internalType": "uint256",
          "name": "_index",
          "type": "uint256"
        },
        {
          "internalType": "bool",
          "name": "_alive",
          "type": "bool"
        }
      ],
      "name": "setImplementation",
      "outputs": [],
      "stateMutability": "nonpayable",
      "type": "function"
    },
    {
      "inputs": [
        {
          "internalType": "address",
          "name": "newImplementation",
          "type": "address"
        },
        {
          "internalType": "bool",
          "name": "_alive",
          "type": "bool"
        }
      ],
      "name": "setAliveImplementation",
      "outputs": [],
      "stateMutability": "nonpayable",
      "type": "function"
    },
    {
      "inputs": [
        {
          "internalType": "bytes4[]",
          "name": "_selectors",
          "type": "bytes4[]"
        },
        {
          "internalType": "address",
          "name": "_imp",
          "type": "address"
        }
      ],
      "name": "setSelectorImplementations",
      "outputs": [],
      "stateMutability": "nonpayable",
      "type": "function"
    },
    {
      "inputs": [
        {
          "internalType": "bytes4",
          "name": "_selector",
          "type": "bytes4"
        }
      ],
      "name": "getSelectorImplementation",
      "outputs": [
        {
          "internalType": "address",
          "name": "impl",
          "type": "address"
        }
      ],
      "stateMutability": "view",
      "type": "function"
    }
  ],
  "bytecode": "0x60806040523480156200001157600080fd5b5060405162001b0838038062001b08833981810160405260208110156200003757600080fd5b50516001600160a01b03811662000095576040805162461bcd60e51b815260206004820152601a60248201527f5374616b653150726f78793a206c6f676963206973207a65726f000000000000604482015290519081900360640190fd5b620000a48160006001620000fc565b620000bf60008051602062001aa2833981519152806200018f565b620000da60008051602062001aa283398151915233620001e1565b620000f560008051602062001aa283398151915230620001e1565b5062000328565b6200011283620001f160201b620012521760201c565b6200014f5760405162461bcd60e51b815260040180806020018281038252604681526020018062001ac26046913960600191505060405180910390fd5b80156200017e57600082815260086020526040902080546001600160a01b0319166001600160a01b0385161790555b6200018a8382620001f7565b505050565b6000828152600b6020526040808220600201549051839285917fbd79b86ffe0ab8e8776151514217cd7cacd52c909f66475c3af44e129f0b00ff9190a46000918252600b602052604090912060020155565b620001ed828262000222565b5050565b3b151590565b6001600160a01b03919091166000908152600960205260409020805460ff1916911515919091179055565b6000828152600b6020908152604090912062000249918390620012586200029d821b17901c565b15620001ed5762000259620002bd565b6001600160a01b0316816001600160a01b0316837f2f8788117e7eff1d82e926ec794901d17c78024a50270940304540a733656f0d60405160405180910390a45050565b6000620002b4836001600160a01b038416620002c1565b90505b92915050565b3390565b6000620002cf838362000310565b6200030757508154600181810184556000848152602080822090930184905584548482528286019093526040902091909155620002b7565b506000620002b7565b60009081526001919091016020526040902054151590565b61176a80620003386000396000f3fe6080604052600436106101bd5760003560e01c806375b238fc116100ed578063ac9a0b2611610090578063ac9a0b2614610647578063b390227b14610671578063b911135f146106ac578063ca15c873146106d6578063cc48b94714610700578063d539139314610715578063d547741f1461072a578063dd196f1814610763578063f6b2b33414610778576101cc565b806375b238fc1461051d5780637cb00d251461053257806389f395de1461055e5780638d62d949146105735780639010d07c1461058857806391d14854146105b857806398f7c12f146105f1578063a217fddf14610632576101cc565b8063550d01a311610160578063550d01a3146103e75780635d2df7c01461041a57806363a8fd891461044e57806368304835146104635780636af8da27146104785780636c7ac9d81461048d5780636fb7f558146104a257806370480275146104b757806375829def146104ea576101cc565b80630d3c8a7e146101d45780631785f53c1461025a578063248a9ca31461028d57806324d7806c146102c9578063282c51f3146103105780632f2ff15d1461032557806336568abe1461035e57806350d2a27614610397576101cc565b366101cc576101ca6107b1565b005b6101ca6107b1565b3480156101e057600080fd5b506101ca600480360360408110156101f757600080fd5b81019060208101813564010000000081111561021257600080fd5b82018360208201111561022457600080fd5b8035906020019184602083028401116401000000008311171561024657600080fd5b9193509150356001600160a01b031661085f565b34801561026657600080fd5b506101ca6004803603602081101561027d57600080fd5b50356001600160a01b0316610a49565b34801561029957600080fd5b506102b7600480360360208110156102b057600080fd5b5035610aa8565b60408051918252519081900360200190f35b3480156102d557600080fd5b506102fc600480360360208110156102ec57600080fd5b50356001600160a01b0316610ac0565b604080519115158252519081900360200190f35b34801561031c57600080fd5b506102b7610ae0565b34801561033157600080fd5b506101ca6004803603604081101561034857600080fd5b50803590602001356001600160a01b0316610b04565b34801561036a57600080fd5b506101ca6004803603604081101561038157600080fd5b50803590602001356001600160a01b0316610b70565b3480156103a357600080fd5b506103cb600480360360208110156103ba57600080fd5b50356001600160e01b031916610bd1565b604080516001600160a01b039092168252519081900360200190f35b3480156103f357600080fd5b506102fc6004803603602081101561040a57600080fd5b50356001600160a01b0316610bec565b34801561042657600080fd5b506103cb6004803603602081101561043d57600080fd5b50356001600160e01b031916610c01565b34801561045a57600080fd5b506102fc610cfd565b34801561046f57600080fd5b506103cb610d0d565b34801561048457600080fd5b506103cb610d1c565b34801561049957600080fd5b506103cb610d2b565b3480156104ae57600080fd5b506103cb610d3a565b3480156104c357600080fd5b506101ca600480360360208110156104da57600080fd5b50356001600160a01b0316610d49565b3480156104f657600080fd5b506101ca6004803603602081101561050d57600080fd5b50356001600160a01b0316610da5565b34801561052957600080fd5b506102b7610ec6565b34801561053e57600080fd5b506101ca6004803603602081101561055557600080fd5b50351515610ed8565b34801561056a57600080fd5b506103cb610f3a565b34801561057f57600080fd5b506103cb610f49565b34801561059457600080fd5b506103cb600480360360408110156105ab57600080fd5b5080359060200135610f58565b3480156105c457600080fd5b506102fc600480360360408110156105db57600080fd5b50803590602001356001600160a01b0316610f77565b3480156105fd57600080fd5b506101ca6004803603606081101561061457600080fd5b506001600160a01b0381351690602081013590604001351515610f8f565b34801561063e57600080fd5b506102b7610fde565b34801561065357600080fd5b506103cb6004803603602081101561066a57600080fd5b5035610fe3565b34801561067d57600080fd5b506101ca6004803603604081101561069457600080fd5b506001600160a01b0381351690602001351515610fee565b3480156106b857600080fd5b506103cb600480360360208110156106cf57600080fd5b503561103c565b3480156106e257600080fd5b506102b7600480360360208110156106f957600080fd5b5035611057565b34801561070c57600080fd5b506103cb61106e565b34801561072157600080fd5b506102b761107d565b34801561073657600080fd5b506101ca6004803603604081101561074d57600080fd5b50803590602001356001600160a01b03166110a1565b34801561076f57600080fd5b506103cb6110fa565b34801561078457600080fd5b506101ca6004803603604081101561079b57600080fd5b506001600160a01b038135169060200135611109565b60006107c86000356001600160e01b031916610c01565b90506001600160a01b038116158015906107ec5750600754600160a01b900460ff16155b610836576040805162461bcd60e51b8152602060048201526016602482015275696d706c204f522070726f78792069732066616c736560501b604482015290519081900360640190fd5b3660008037600080366000845af43d6000803e808015610855573d6000f35b3d6000fd5b505050565b61086833610ac0565b6108a35760405162461bcd60e51b81526004018080602001828103825260228152602001806116286022913960400191505060405180910390fd5b816108df5760405162461bcd60e51b81526004018080602001828103825260268152602001806116e06026913960400191505060405180910390fd5b6001600160a01b03811660009081526009602052604090205460ff1661094c576040805162461bcd60e51b815260206004820152601e60248201527f5374616b653150726f78793a205f696d70206973206e6f7420616c6976650000604482015290519081900360640190fd5b60005b82811015610a4357816001600160a01b0316600a600086868581811061097157fe5b602090810292909201356001600160e01b031916835250810191909152604001600020546001600160a01b031614156109e9576040805162461bcd60e51b815260206004820152601560248201527405374616b653150726f78793a2073616d6520696d7605c1b604482015290519081900360640190fd5b81600a60008686858181106109fa57fe5b602090810292909201356001600160e01b03191683525081019190915260400160002080546001600160a01b0319166001600160a01b039290921691909117905560010161094f565b50505050565b610a5233610ac0565b610a8d5760405162461bcd60e51b81526004018080602001828103825260228152602001806116286022913960400191505060405180910390fd5b610aa560008051602061167a83398151915282610b70565b50565b6000818152600b60205260409020600201545b919050565b6000610ada60008051602061167a83398151915283610f77565b92915050565b7f9667e80708b6eeeb0053fa0cca44e028ff548e2a9f029edfeac87c118b08b7c881565b6000828152600b6020526040902060020154610b2790610b2261126d565b610f77565b610b625760405162461bcd60e51b815260040180806020018281038252602f8152602001806115f9602f913960400191505060405180910390fd5b610b6c8282611271565b5050565b610b7861126d565b6001600160a01b0316816001600160a01b031614610bc75760405162461bcd60e51b815260040180806020018281038252602f815260200180611706602f913960400191505060405180910390fd5b610b6c82826112da565b600a602052600090815260409020546001600160a01b031681565b60096020526000908152604090205460ff1681565b6001600160e01b031981166000908152600a60205260408120546001600160a01b0316610c6257506000805260086020527f5eff886ea0ce6ca488a3d6e336d6c0f75f46d19b42c06ce5ee98e42c96d256c7546001600160a01b0316610abb565b6001600160e01b031982166000908152600a60209081526040808320546001600160a01b03168352600990915290205460ff1615610cc357506001600160e01b031981166000908152600a60205260409020546001600160a01b0316610abb565b506000805260086020527f5eff886ea0ce6ca488a3d6e336d6c0f75f46d19b42c06ce5ee98e42c96d256c7546001600160a01b0316610abb565b600754600160a01b900460ff1681565b6000546001600160a01b031681565b6002546001600160a01b031681565b6006546001600160a01b031681565b6007546001600160a01b031681565b610d5233610ac0565b610d8d5760405162461bcd60e51b81526004018080602001828103825260228152602001806116286022913960400191505060405180910390fd5b610aa560008051602061167a83398151915282610b04565b610dae33610ac0565b610de95760405162461bcd60e51b81526004018080602001828103825260228152602001806116286022913960400191505060405180910390fd5b6001600160a01b038116610e3f576040805162461bcd60e51b815260206004820152601860248201527741636365737369626c653a207a65726f206164647265737360401b604482015290519081900360640190fd5b336001600160a01b0382161415610e96576040805162461bcd60e51b815260206004820152601660248201527520b1b1b2b9b9b4b136329d1039b0b6b29030b236b4b760511b604482015290519081900360640190fd5b610eae60008051602061167a83398151915282610b04565b610aa560008051602061167a83398151915233610b70565b60008051602061167a83398151915281565b610ee133610ac0565b610f1c5760405162461bcd60e51b81526004018080602001828103825260228152602001806116286022913960400191505060405180910390fd5b60078054911515600160a01b0260ff60a01b19909216919091179055565b6003546001600160a01b031681565b6005546001600160a01b031681565b6000828152600b60205260408120610f709083611343565b9392505050565b6000828152600b60205260408120610f70908361134f565b610f9833610ac0565b610fd35760405162461bcd60e51b81526004018080602001828103825260228152602001806116286022913960400191505060405180910390fd5b61085a838383611364565b600081565b6000610ada826113e0565b610ff733610ac0565b6110325760405162461bcd60e51b81526004018080602001828103825260228152602001806116286022913960400191505060405180910390fd5b610b6c82826113fb565b6008602052600090815260409020546001600160a01b031681565b6000818152600b60205260408120610ada90611426565b6004546001600160a01b031681565b7ff0887ba65ee2024ea881d91b74c2450ef19e1557f03bed3ea9f16b037cbe2dc981565b6000828152600b60205260409020600201546110bf90610b2261126d565b610bc75760405162461bcd60e51b815260040180806020018281038252603081526020018061164a6030913960400191505060405180910390fd5b6001546001600160a01b031681565b61111233610ac0565b61114d5760405162461bcd60e51b81526004018080602001828103825260228152602001806116286022913960400191505060405180910390fd5b6001600160a01b038216611198576040805162461bcd60e51b815260206004820152600d60248201526c696e707574206973207a65726f60981b604482015290519081900360640190fd5b816001600160a01b03166111ab826113e0565b6001600160a01b031614156111f0576040805162461bcd60e51b8152602060048083019190915260248201526373616d6560e01b604482015290519081900360640190fd5b6112036111fc826113e0565b6000610fee565b61120f82826001611364565b6040805182815290516001600160a01b038416917f5887ab9161c3be2fe962b73e068a9f29082efb6daf2bfcbd3f064bc34d1ef1b7919081900360200190a25050565b3b151590565b6000610f70836001600160a01b038416611431565b3390565b6000828152600b602052604090206112899082611258565b15610b6c5761129661126d565b6001600160a01b0316816001600160a01b0316837f2f8788117e7eff1d82e926ec794901d17c78024a50270940304540a733656f0d60405160405180910390a45050565b6000828152600b602052604090206112f2908261147b565b15610b6c576112ff61126d565b6001600160a01b0316816001600160a01b0316837ff6391f5c32d9c69d2a47ea670b442974b53935d1edc7fd64eb21e047a839171b60405160405180910390a45050565b6000610f708383611490565b6000610f70836001600160a01b0384166114f4565b61136d83611252565b6113a85760405162461bcd60e51b815260040180806020018281038252604681526020018061169a6046913960600191505060405180910390fd5b80156113d657600082815260086020526040902080546001600160a01b0319166001600160a01b0385161790555b61085a83826113fb565b6000908152600860205260409020546001600160a01b031690565b6001600160a01b03919091166000908152600960205260409020805460ff1916911515919091179055565b6000610ada8261150c565b600061143d83836114f4565b61147357508154600181810184556000848152602080822090930184905584548482528286019093526040902091909155610ada565b506000610ada565b6000610f70836001600160a01b038416611510565b815460009082106114d25760405162461bcd60e51b81526004018080602001828103825260228152602001806115d76022913960400191505060405180910390fd5b8260000182815481106114e157fe5b9060005260206000200154905092915050565b60009081526001919091016020526040902054151590565b5490565b600081815260018301602052604081205480156115cc578354600019808301919081019060009087908390811061154357fe5b906000526020600020015490508087600001848154811061156057fe5b60009182526020808320909101929092558281526001898101909252604090209084019055865487908061159057fe5b60019003818190600052602060002001600090559055866001016000878152602001908152602001600020600090556001945050505050610ada565b6000915050610ada56fe456e756d657261626c655365743a20696e646578206f7574206f6620626f756e6473416363657373436f6e74726f6c3a2073656e646572206d75737420626520616e2061646d696e20746f206772616e7441636365737369626c653a2043616c6c6572206973206e6f7420616e2061646d696e416363657373436f6e74726f6c3a2073656e646572206d75737420626520616e2061646d696e20746f207265766f6b65df8b4c520ffe197c5343c6f5aec59570151ef9a492f2c624fd45ddde6135ec4250726f7879426173653a2043616e6e6f742073657420612070726f787920696d706c656d656e746174696f6e20746f2061206e6f6e2d636f6e747261637420616464726573735374616b653150726f78793a205f73656c6563746f727327732073697a65206973207a65726f416363657373436f6e74726f6c3a2063616e206f6e6c792072656e6f756e636520726f6c657320666f722073656c66a26469706673582212205ac88549fbad25b1fc99f3431ad5e73e9283fc003d72f511970280b29b3872e864736f6c63430007060033df8b4c520ffe197c5343c6f5aec59570151ef9a492f2c624fd45ddde6135ec4250726f7879426173653a2043616e6e6f742073657420612070726f787920696d706c656d656e746174696f6e20746f2061206e6f6e2d636f6e74726163742061646472657373",
  "immutableReferences": {},
  "source": "// SPDX-License-Identifier: MIT\npragma solidity ^0.7.6;\n\nimport \"../interfaces/IStakeProxy.sol\";\nimport {Address} from \"@openzeppelin/contracts/utils/Address.sol\";\n\nimport \"../common/AccessibleCommon.sol\";\nimport \"./StakeProxyStorage.sol\";\n\n//import \"./ProxyBase.sol\";\n\n/// @title The proxy of TOS Plaform\n/// @notice Admin can createVault, createStakeContract.\n/// User can excute the tokamak staking function of each contract through this logic.\ncontract Stake1Proxy is StakeProxyStorage, AccessibleCommon, IStakeProxy {\n    event Upgraded(address indexed implementation, uint256 _index);\n\n    /// @dev constructor of Stake1Proxy\n    constructor(address _logic) {\n        //assert(IMPLEMENTATION_SLOT == bytes32(uint256(keccak256('eip1967.proxy.implementation')) - 1));\n\n        require(_logic != address(0), \"Stake1Proxy: logic is zero\");\n\n        _setImplementation(_logic, 0, true);\n\n        _setRoleAdmin(ADMIN_ROLE, ADMIN_ROLE);\n        _setupRole(ADMIN_ROLE, msg.sender);\n        _setupRole(ADMIN_ROLE, address(this));\n    }\n\n    /// @dev Set pause state\n    /// @param _pause true:pause or false:resume\n    function setProxyPause(bool _pause) external override onlyOwner {\n        pauseProxy = _pause;\n    }\n\n    /// @dev Set implementation contract\n    /// @param impl New implementation contract address\n    /// @param _index index of proxy\n    function upgradeTo(address impl, uint256 _index)\n        external\n        override\n        onlyOwner\n    {\n        require(impl != address(0), \"input is zero\");\n        require(_implementation(_index) != impl, \"same\");\n\n        setAliveImplementation(_implementation(_index), false);\n        _setImplementation(impl, _index, true);\n\n        emit Upgraded(impl, _index);\n    }\n\n    /// @dev view implementation address of the proxy[index]\n    /// @param _index index of proxy\n    /// @return address of the implementation\n    function implementation(uint256 _index)\n        external\n        view\n        override\n        returns (address)\n    {\n        return _implementation(_index);\n    }\n\n    /// @dev set the implementation address and status of the proxy[index]\n    /// @param newImplementation Address of the new implementation.\n    /// @param _index index\n    /// @param _alive _alive\n    function setImplementation(\n        address newImplementation,\n        uint256 _index,\n        bool _alive\n    ) external override onlyOwner {\n        _setImplementation(newImplementation, _index, _alive);\n    }\n\n    /// @dev set alive status of implementation\n    /// @param newImplementation Address of the new implementation.\n    /// @param _alive alive status\n    function setAliveImplementation(address newImplementation, bool _alive)\n        public\n        override\n        onlyOwner\n    {\n        _setAliveImplementation(newImplementation, _alive);\n    }\n\n    /// @dev set selectors of Implementation\n    /// @param _selectors being added selectors\n    /// @param _imp implementation address\n    function setSelectorImplementations(\n        bytes4[] calldata _selectors,\n        address _imp\n    ) public override onlyOwner {\n        require(\n            _selectors.length > 0,\n            \"Stake1Proxy: _selectors's size is zero\"\n        );\n        require(aliveImplementation[_imp], \"Stake1Proxy: _imp is not alive\");\n\n        for (uint256 i = 0; i < _selectors.length; i++) {\n            require(\n                selectorImplementation[_selectors[i]] != _imp,\n                \"Stake1Proxy: same imp\"\n            );\n            selectorImplementation[_selectors[i]] = _imp;\n        }\n    }\n\n    /// @dev set the implementation address and status of the proxy[index]\n    /// @param newImplementation Address of the new implementation.\n    /// @param _index index of proxy\n    /// @param _alive alive status\n    function _setImplementation(\n        address newImplementation,\n        uint256 _index,\n        bool _alive\n    ) internal {\n        require(\n            Address.isContract(newImplementation),\n            \"ProxyBase: Cannot set a proxy implementation to a non-contract address\"\n        );\n        if (_alive) proxyImplementation[_index] = newImplementation;\n        _setAliveImplementation(newImplementation, _alive);\n    }\n\n    /// @dev set alive status of implementation\n    /// @param newImplementation Address of the new implementation.\n    /// @param _alive alive status\n    function _setAliveImplementation(address newImplementation, bool _alive)\n        internal\n    {\n        aliveImplementation[newImplementation] = _alive;\n    }\n\n    /// @dev view implementation address of the proxy[index]\n    /// @param _index index of proxy\n    /// @return impl address of the implementation\n    function _implementation(uint256 _index)\n        internal\n        view\n        returns (address impl)\n    {\n        return proxyImplementation[_index];\n    }\n\n    /// @dev view implementation address of selector of function\n    /// @param _selector selector of function\n    /// @return impl address of the implementation\n    function getSelectorImplementation(bytes4 _selector)\n        public\n        view\n        override\n        returns (address impl)\n    {\n        if (selectorImplementation[_selector] == address(0))\n            return proxyImplementation[0];\n        else if (aliveImplementation[selectorImplementation[_selector]])\n            return selectorImplementation[_selector];\n        else return proxyImplementation[0];\n    }\n\n    /// @dev receive ether\n    receive() external payable {\n        _fallback();\n    }\n\n    /// @dev fallback function , execute on undefined function call\n    fallback() external payable {\n        _fallback();\n    }\n\n    /// @dev fallback function , execute on undefined function call\n    function _fallback() internal {\n        address _impl = getSelectorImplementation(msg.sig);\n        require(_impl != address(0) && !pauseProxy, \"impl OR proxy is false\");\n\n        assembly {\n            // Copy msg.data. We take full control of memory in this inline assembly\n            // block because it will not return to Solidity code. We overwrite the\n            // Solidity scratch pad at memory position 0.\n            calldatacopy(0, 0, calldatasize())\n\n            // Call the implementation.\n            // out and outsize are 0 because we don't know the size yet.\n            let result := delegatecall(gas(), _impl, 0, calldatasize(), 0, 0)\n\n            // Copy the returned data.\n            returndatacopy(0, 0, returndatasize())\n\n            switch result\n                // delegatecall returns 0 on error.\n                case 0 {\n                    revert(0, returndatasize())\n                }\n                default {\n                    return(0, returndatasize())\n                }\n        }\n    }\n}\n",
  "sourcePath": "/Users/zena/ico2.0/ico20-contracts/contracts/stake/Stake1Proxy.sol",
  "compiler": {
    "name": "solc",
    "version": "0.7.6+commit.7338295f.Emscripten.clang"
  },
  "schemaVersion": "3.3.4",
  "updatedAt": "2021-08-02T05:01:31.241Z",
  "devdoc": {
    "kind": "dev",
    "methods": {
      "addAdmin(address)": {
        "details": "add admin",
        "params": {
          "account": "address to add"
        }
      },
      "constructor": {
        "details": "constructor of Stake1Proxy"
      },
      "getRoleAdmin(bytes32)": {
        "details": "Returns the admin role that controls `role`. See {grantRole} and {revokeRole}. To change a role's admin, use {_setRoleAdmin}."
      },
      "getRoleMember(bytes32,uint256)": {
        "details": "Returns one of the accounts that have `role`. `index` must be a value between 0 and {getRoleMemberCount}, non-inclusive. Role bearers are not sorted in any particular way, and their ordering may change at any point. WARNING: When using {getRoleMember} and {getRoleMemberCount}, make sure you perform all queries on the same block. See the following https://forum.openzeppelin.com/t/iterating-over-elements-on-enumerableset-in-openzeppelin-contracts/2296[forum post] for more information."
      },
      "getRoleMemberCount(bytes32)": {
        "details": "Returns the number of accounts that have `role`. Can be used together with {getRoleMember} to enumerate all bearers of a role."
      },
      "getSelectorImplementation(bytes4)": {
        "details": "view implementation address of selector of function",
        "params": {
          "_selector": "selector of function"
        },
        "returns": {
          "impl": "address of the implementation"
        }
      },
      "grantRole(bytes32,address)": {
        "details": "Grants `role` to `account`. If `account` had not been already granted `role`, emits a {RoleGranted} event. Requirements: - the caller must have ``role``'s admin role."
      },
      "hasRole(bytes32,address)": {
        "details": "Returns `true` if `account` has been granted `role`."
      },
      "implementation(uint256)": {
        "details": "view implementation address of the proxy[index]",
        "params": {
          "_index": "index of proxy"
        },
        "returns": {
          "_0": "address of the implementation"
        }
      },
      "isAdmin(address)": {
        "details": "whether admin",
        "params": {
          "account": "address to check"
        }
      },
      "removeAdmin(address)": {
        "details": "remove admin",
        "params": {
          "account": "address to remove"
        }
      },
      "renounceRole(bytes32,address)": {
        "details": "Revokes `role` from the calling account. Roles are often managed via {grantRole} and {revokeRole}: this function's purpose is to provide a mechanism for accounts to lose their privileges if they are compromised (such as when a trusted device is misplaced). If the calling account had been granted `role`, emits a {RoleRevoked} event. Requirements: - the caller must be `account`."
      },
      "revokeRole(bytes32,address)": {
        "details": "Revokes `role` from `account`. If `account` had been granted `role`, emits a {RoleRevoked} event. Requirements: - the caller must have ``role``'s admin role."
      },
      "setAliveImplementation(address,bool)": {
        "details": "set alive status of implementation",
        "params": {
          "_alive": "alive status",
          "newImplementation": "Address of the new implementation."
        }
      },
      "setImplementation(address,uint256,bool)": {
        "details": "set the implementation address and status of the proxy[index]",
        "params": {
          "_alive": "_alive",
          "_index": "index",
          "newImplementation": "Address of the new implementation."
        }
      },
      "setProxyPause(bool)": {
        "details": "Set pause state",
        "params": {
          "_pause": "true:pause or false:resume"
        }
      },
      "setSelectorImplementations(bytes4[],address)": {
        "details": "set selectors of Implementation",
        "params": {
          "_imp": "implementation address",
          "_selectors": "being added selectors"
        }
      },
      "transferAdmin(address)": {
        "details": "transfer admin",
        "params": {
          "newAdmin": "new admin address"
        }
      },
      "upgradeTo(address,uint256)": {
        "details": "Set implementation contract",
        "params": {
          "_index": "index of proxy",
          "impl": "New implementation contract address"
        }
      }
    },
    "title": "The proxy of TOS Plaform",
    "version": 1
  },
  "userdoc": {
    "kind": "user",
    "methods": {},
    "notice": "Admin can createVault, createStakeContract. User can excute the tokamak staking function of each contract through this logic.",
    "version": 1
  }
}