{
  "contractName": "StakeSimpleFactory",
  "abi": [
    {
      "inputs": [
        {
          "internalType": "address",
          "name": "_stakeSimpleLogic",
          "type": "address"
        }
      ],
      "stateMutability": "nonpayable",
      "type": "constructor"
    },
    {
      "inputs": [],
      "name": "ADMIN_ROLE",
      "outputs": [
        {
          "internalType": "bytes32",
          "name": "",
          "type": "bytes32"
        }
      ],
      "stateMutability": "view",
      "type": "function"
    },
    {
      "inputs": [],
      "name": "BURNER_ROLE",
      "outputs": [
        {
          "internalType": "bytes32",
          "name": "",
          "type": "bytes32"
        }
      ],
      "stateMutability": "view",
      "type": "function"
    },
    {
      "inputs": [],
      "name": "MINTER_ROLE",
      "outputs": [
        {
          "internalType": "bytes32",
          "name": "",
          "type": "bytes32"
        }
      ],
      "stateMutability": "view",
      "type": "function"
    },
    {
      "inputs": [],
      "name": "stakeSimpleLogic",
      "outputs": [
        {
          "internalType": "address",
          "name": "",
          "type": "address"
        }
      ],
      "stateMutability": "view",
      "type": "function"
    },
    {
      "inputs": [
        {
          "internalType": "address[4]",
          "name": "_addr",
          "type": "address[4]"
        },
        {
          "internalType": "address",
          "name": "_registry",
          "type": "address"
        },
        {
          "internalType": "uint256[3]",
          "name": "_intdata",
          "type": "uint256[3]"
        },
        {
          "internalType": "address",
          "name": "owner",
          "type": "address"
        }
      ],
      "name": "create",
      "outputs": [
        {
          "internalType": "address",
          "name": "",
          "type": "address"
        }
      ],
      "stateMutability": "nonpayable",
      "type": "function"
    }
  ],
  "bytecode": "0x608060405234801561001057600080fd5b50604051611e3b380380611e3b8339818101604052602081101561003357600080fd5b50516001600160a01b038116610090576040805162461bcd60e51b815260206004820152601e60248201527f5374616b6553696d706c65466163746f72793a206c6f676963207a65726f0000604482015290519081900360640190fd5b600080546001600160a01b039092166001600160a01b0319909216919091179055611d7b806100c06000396000f3fe608060405234801561001057600080fd5b50600436106100575760003560e01c8063282c51f31461005c5780632c4ffdda1461007657806375b238fc1461009a578063ba3d3045146100a2578063d5391393146100db575b600080fd5b6100646100e3565b60408051918252519081900360200190f35b61007e610107565b604080516001600160a01b039092168252519081900360200190f35b610064610116565b61007e60048036036101208110156100b957600080fd5b506001600160a01b03608082013581169060a083019061010084013516610128565b610064610370565b7f9667e80708b6eeeb0053fa0cca44e028ff548e2a9f029edfeac87c118b08b7c881565b6000546001600160a01b031681565b600080516020611d2683398151915281565b6000805460405182916001600160a01b03169061014490610394565b6001600160a01b03909116815260405190819003602001906000f080158015610171573d6000803e3d6000fd5b5090506001600160a01b0381166101cf576040805162461bcd60e51b815260206004820152601e60248201527f5374616b6553696d706c65466163746f72793a2070726f7879207a65726f0000604482015290519081900360640190fd5b6040516339efe54360e21b81526001600160a01b0382169063e7bf950c9088908890889060040180846080808284376000838201526001600160a01b038616601f909101601f19169092019182525060200182606080828437600081840152601f19601f8201169050808301925050509350505050600060405180830381600087803b15801561025e57600080fd5b505af1158015610272573d6000803e3d6000fd5b50505050806001600160a01b0316632f2ff15d600080516020611d26833981519152856040518363ffffffff1660e01b815260040180838152602001826001600160a01b0316815260200192505050600060405180830381600087803b1580156102db57600080fd5b505af11580156102ef573d6000803e3d6000fd5b50506040805163d547741f60e01b8152600080516020611d26833981519152600482015230602482015290516001600160a01b038516935063d547741f9250604480830192600092919082900301818387803b15801561034e57600080fd5b505af1158015610362573d6000803e3d6000fd5b509298975050505050505050565b7ff0887ba65ee2024ea881d91b74c2450ef19e1557f03bed3ea9f16b037cbe2dc981565b611984806103a28339019056fe60806040523480156200001157600080fd5b506040516200198438038062001984833981810160405260208110156200003757600080fd5b50516001600160a01b03811662000095576040805162461bcd60e51b815260206004820152601f60248201527f5374616b6553696d706c6550726f78793a206c6f676963206973207a65726f00604482015290519081900360640190fd5b620000a081620000f8565b620000bb6000805160206200191e833981519152806200016f565b620000d66000805160206200191e83398151915233620001c1565b620000f16000805160206200191e83398151915230620001c1565b50620002dd565b6200010e81620001d160201b620011011760201c565b6200014b5760405162461bcd60e51b81526004018080602001828103825260468152602001806200193e6046913960600191505060405180910390fd5b7f360894a13ba1a3210667c828492db98dca3e2076cc3735a920a3ca505d382bbc55565b6000828152600d6020526040808220600201549051839285917fbd79b86ffe0ab8e8776151514217cd7cacd52c909f66475c3af44e129f0b00ff9190a46000918252600d602052604090912060020155565b620001cd8282620001d7565b5050565b3b151590565b6000828152600d60209081526040909120620001fe9183906200110762000252821b17901c565b15620001cd576200020e62000272565b6001600160a01b0316816001600160a01b0316837f2f8788117e7eff1d82e926ec794901d17c78024a50270940304540a733656f0d60405160405180910390a45050565b600062000269836001600160a01b03841662000276565b90505b92915050565b3390565b6000620002848383620002c5565b620002bc575081546001818101845560008481526020808220909301849055845484825282860190935260409020919091556200026c565b5060006200026c565b60009081526001919091016020526040902054151590565b61163180620002ed6000396000f3fe6080604052600436106101c85760003560e01c806375b238fc116100f8578063acc3a93911610090578063acc3a939146105f2578063b2d4d6a31461065f578063ca15c87314610674578063d53913931461069e578063d547741f146106b3578063dac3fc3f146106ec578063e7bf950c1461071f578063fbfa77cf146107bf578063fc0c546a146107d4576101d7565b806375b238fc146104795780637cb00d251461048e57806386989038146104ba5780639010d07c146104cf57806391d14854146104ff5780639a88be2f146105385780639d84ca35146105b3578063a1f5f50e146105c8578063a217fddf146105dd576101d7565b80633659cfe61161016b5780633659cfe61461034657806343b0934a1461037957806348cd4cb1146103aa578063567e98f9146103bf5780635c60da1b146103d457806363a8fd89146103e957806368304835146103fe578063704802751461041357806375829def14610446576101d7565b8063083c6323146101df5780631785f53c146102065780632002727514610239578063248a9ca31461024e57806324d7806c14610278578063282c51f3146102bf5780632f2ff15d146102d457806336568abe1461030d576101d7565b366101d7576101d56107e9565b005b6101d56107e9565b3480156101eb57600080fd5b506101f461086f565b60408051918252519081900360200190f35b34801561021257600080fd5b506101d56004803603602081101561022957600080fd5b50356001600160a01b0316610875565b34801561024557600080fd5b506101f46108d4565b34801561025a57600080fd5b506101f46004803603602081101561027157600080fd5b50356108da565b34801561028457600080fd5b506102ab6004803603602081101561029b57600080fd5b50356001600160a01b03166108ef565b604080519115158252519081900360200190f35b3480156102cb57600080fd5b506101f461090f565b3480156102e057600080fd5b506101d5600480360360408110156102f757600080fd5b50803590602001356001600160a01b0316610933565b34801561031957600080fd5b506101d56004803603604081101561033057600080fd5b50803590602001356001600160a01b031661099f565b34801561035257600080fd5b506101d56004803603602081101561036957600080fd5b50356001600160a01b0316610a00565b34801561038557600080fd5b5061038e610b46565b604080516001600160a01b039092168252519081900360200190f35b3480156103b657600080fd5b506101f4610b55565b3480156103cb57600080fd5b506101f4610b5b565b3480156103e057600080fd5b5061038e610b61565b3480156103f557600080fd5b506102ab610b70565b34801561040a57600080fd5b5061038e610b79565b34801561041f57600080fd5b506101d56004803603602081101561043657600080fd5b50356001600160a01b0316610b88565b34801561045257600080fd5b506101d56004803603602081101561046957600080fd5b50356001600160a01b0316610be4565b34801561048557600080fd5b506101f4610d05565b34801561049a57600080fd5b506101d5600480360360208110156104b157600080fd5b50351515610d17565b3480156104c657600080fd5b506101f4610d6e565b3480156104db57600080fd5b5061038e600480360360408110156104f257600080fd5b5080359060200135610d74565b34801561050b57600080fd5b506102ab6004803603604081101561052257600080fd5b50803590602001356001600160a01b0316610d93565b34801561054457600080fd5b5061054d610dab565b604080516001600160a01b0380891682528716602082015290810185606080838360005b83811015610589578181015183820152602001610571565b50505050905001848152602001838152602001828152602001965050505050505060405180910390f35b3480156105bf57600080fd5b5061038e610e01565b3480156105d457600080fd5b506102ab610e15565b3480156105e957600080fd5b506101f4610e25565b3480156105fe57600080fd5b506106256004803603602081101561061557600080fd5b50356001600160a01b0316610e2a565b604080519788526020880196909652868601949094526060860192909252608085015260a0840152151560c0830152519081900360e00190f35b34801561066b57600080fd5b506101f4610e6a565b34801561068057600080fd5b506101f46004803603602081101561069757600080fd5b5035610e70565b3480156106aa57600080fd5b506101f4610e87565b3480156106bf57600080fd5b506101d5600480360360408110156106d657600080fd5b50803590602001356001600160a01b0316610eab565b3480156106f857600080fd5b506106256004803603602081101561070f57600080fd5b50356001600160a01b0316610f04565b34801561072b57600080fd5b506101d5600480360361010081101561074357600080fd5b81019080806080019060048060200260405190810160405280929190826004602002808284376000920191909152505060408051606081810190925292956001600160a01b038535169590949093608082019350916020909101906003908390839080828437600092019190915250919450610f4d9350505050565b3480156107cb57600080fd5b5061038e6110e3565b3480156107e057600080fd5b5061038e6110f2565b60006107f361111c565b90506001600160a01b038116158015906108105750600c5460ff16155b61084b5760405162461bcd60e51b815260040180806020018281038252603081526020018061159d6030913960400191505060405180910390fd5b3660008037600080366000845af43d6000803e80801561086a573d6000f35b3d6000fd5b60065481565b61087e336108ef565b6108b95760405162461bcd60e51b81526004018080602001828103825260228152602001806114e56022913960400191505060405180910390fd5b6108d16000805160206115378339815191528261099f565b50565b60045481565b6000908152600d602052604090206002015490565b600061090960008051602061153783398151915283610d93565b92915050565b7f9667e80708b6eeeb0053fa0cca44e028ff548e2a9f029edfeac87c118b08b7c881565b6000828152600d602052604090206002015461095690610951611141565b610d93565b6109915760405162461bcd60e51b815260040180806020018281038252602f815260200180611491602f913960400191505060405180910390fd5b61099b8282611145565b5050565b6109a7611141565b6001600160a01b0316816001600160a01b0316146109f65760405162461bcd60e51b815260040180806020018281038252602f8152602001806115cd602f913960400191505060405180910390fd5b61099b82826111ae565b610a09336108ef565b610a445760405162461bcd60e51b81526004018080602001828103825260228152602001806114e56022913960400191505060405180910390fd5b6001600160a01b038116610a9f576040805162461bcd60e51b815260206004820152601f60248201527f5374616b6553696d706c6550726f78793a20696e707574206973207a65726f00604482015290519081900360640190fd5b806001600160a01b0316610ab161111c565b6001600160a01b03161415610b06576040805162461bcd60e51b81526020600482015260166024820152755374616b6553696d706c6550726f78793a2073616d6560501b604482015290519081900360640190fd5b610b0f81611217565b6040516001600160a01b038216907fbc7cd75a20ee27fd9adebab32041f755214dbc6bffa90cc0225b39da2e5c2d3b90600090a250565b6002546001600160a01b031681565b60055481565b60085481565b6000610b6b61111c565b905090565b600c5460ff1681565b6001546001600160a01b031681565b610b91336108ef565b610bcc5760405162461bcd60e51b81526004018080602001828103825260228152602001806114e56022913960400191505060405180910390fd5b6108d160008051602061153783398151915282610933565b610bed336108ef565b610c285760405162461bcd60e51b81526004018080602001828103825260228152602001806114e56022913960400191505060405180910390fd5b6001600160a01b038116610c7e576040805162461bcd60e51b815260206004820152601860248201527741636365737369626c653a207a65726f206164647265737360401b604482015290519081900360640190fd5b336001600160a01b0382161415610cd5576040805162461bcd60e51b815260206004820152601660248201527520b1b1b2b9b9b4b136329d1039b0b6b29030b236b4b760511b604482015290519081900360640190fd5b610ced60008051602061153783398151915282610933565b6108d16000805160206115378339815191523361099f565b60008051602061153783398151915281565b610d20336108ef565b610d5b5760405162461bcd60e51b81526004018080602001828103825260228152602001806114e56022913960400191505060405180910390fd5b600c805460ff1916911515919091179055565b600a5481565b6000828152600d60205260408120610d8c908361127f565b9392505050565b6000828152600d60205260408120610d8c908361128b565b600080610db6611450565b5050600254600354604080516060810182526004548152600554602082015260065491810191909152600754600854600a546001600160a01b03958616979590941695509193909290565b600c5461010090046001600160a01b031681565b600c54600160a81b900460ff1681565b600081565b6009602052600090815260409020805460018201546002830154600384015460048501546005860154600690960154949593949293919290919060ff1687565b60075481565b6000818152600d60205260408120610909906112a0565b7ff0887ba65ee2024ea881d91b74c2450ef19e1557f03bed3ea9f16b037cbe2dc981565b6000828152600d6020526040902060020154610ec990610951611141565b6109f65760405162461bcd60e51b81526004018080602001828103825260308152602001806115076030913960400191505060405180910390fd5b6001600160a01b03166000908152600960205260409020805460018201546002830154600384015460048501546005860154600690960154949693959294919390929160ff1690565b610f56336108ef565b610f915760405162461bcd60e51b81526004018080602001828103825260228152602001806114e56022913960400191505060405180910390fd5b6000546001600160a01b031615610fd95760405162461bcd60e51b81526004018080602001828103825260258152602001806114c06025913960400191505060405180910390fd5b60408301516001600160a01b031615801590610ff9575060208101518151105b61104a576040805162461bcd60e51b815260206004820152601e60248201527f5374616b6553696d706c6550726f78793a20736574496e6974206661696c0000604482015290519081900360640190fd5b8251600080546001600160a01b03199081166001600160a01b0393841617909155602080860151600280548416918516919091179055604080870151600380548516918616919091179055606090960151600c8054610100600160a81b03191661010092861692909202919091179055600180549092169490921693909317909255805160045590810151600581905591015101600655565b6003546001600160a01b031681565b6000546001600160a01b031681565b3b151590565b6000610d8c836001600160a01b0384166112ab565b7f360894a13ba1a3210667c828492db98dca3e2076cc3735a920a3ca505d382bbc5490565b3390565b6000828152600d6020526040902061115d9082611107565b1561099b5761116a611141565b6001600160a01b0316816001600160a01b0316837f2f8788117e7eff1d82e926ec794901d17c78024a50270940304540a733656f0d60405160405180910390a45050565b6000828152600d602052604090206111c690826112f5565b1561099b576111d3611141565b6001600160a01b0316816001600160a01b0316837ff6391f5c32d9c69d2a47ea670b442974b53935d1edc7fd64eb21e047a839171b60405160405180910390a45050565b61122081611101565b61125b5760405162461bcd60e51b81526004018080602001828103825260468152602001806115576046913960600191505060405180910390fd5b7f360894a13ba1a3210667c828492db98dca3e2076cc3735a920a3ca505d382bbc55565b6000610d8c838361130a565b6000610d8c836001600160a01b03841661136e565b600061090982611386565b60006112b7838361136e565b6112ed57508154600181810184556000848152602080822090930184905584548482528286019093526040902091909155610909565b506000610909565b6000610d8c836001600160a01b03841661138a565b8154600090821061134c5760405162461bcd60e51b815260040180806020018281038252602281526020018061146f6022913960400191505060405180910390fd5b82600001828154811061135b57fe5b9060005260206000200154905092915050565b60009081526001919091016020526040902054151590565b5490565b6000818152600183016020526040812054801561144657835460001980830191908101906000908790839081106113bd57fe5b90600052602060002001549050808760000184815481106113da57fe5b60009182526020808320909101929092558281526001898101909252604090209084019055865487908061140a57fe5b60019003818190600052602060002001600090559055866001016000878152602001908152602001600020600090556001945050505050610909565b6000915050610909565b6040518060600160405280600390602082028036833750919291505056fe456e756d657261626c655365743a20696e646578206f7574206f6620626f756e6473416363657373436f6e74726f6c3a2073656e646572206d75737420626520616e2061646d696e20746f206772616e745374616b6553696d706c6550726f78793a20616c726561647920696e697469616c697a656441636365737369626c653a2043616c6c6572206973206e6f7420616e2061646d696e416363657373436f6e74726f6c3a2073656e646572206d75737420626520616e2061646d696e20746f207265766f6b65df8b4c520ffe197c5343c6f5aec59570151ef9a492f2c624fd45ddde6135ec4250726f7879426173653a2043616e6e6f742073657420612070726f787920696d706c656d656e746174696f6e20746f2061206e6f6e2d636f6e747261637420616464726573735374616b6553696d706c6550726f78793a20696d706c206973207a65726f204f522070726f78792069732066616c7365416363657373436f6e74726f6c3a2063616e206f6e6c792072656e6f756e636520726f6c657320666f722073656c66a2646970667358221220c7b481d11aefd6e0b2df8e324cbac1cbd1ff127de225ef5a56abff79ed15189164736f6c63430007060033df8b4c520ffe197c5343c6f5aec59570151ef9a492f2c624fd45ddde6135ec4250726f7879426173653a2043616e6e6f742073657420612070726f787920696d706c656d656e746174696f6e20746f2061206e6f6e2d636f6e74726163742061646472657373df8b4c520ffe197c5343c6f5aec59570151ef9a492f2c624fd45ddde6135ec42a2646970667358221220d2fb4a3ef96a845d775a23d782aa4764e3b19b4a51d2da9e6ba2096da4d0cdb764736f6c63430007060033",
  "immutableReferences": {},
  "source": "// SPDX-License-Identifier: MIT\npragma solidity ^0.7.6;\n\nimport \"../interfaces/IStakeContractFactory.sol\";\nimport {StakeSimpleProxy} from \"../stake/StakeSimpleProxy.sol\";\nimport \"../common/AccessRoleCommon.sol\";\n\n/// @title A factory that creates a stake contract\ncontract StakeSimpleFactory is AccessRoleCommon, IStakeContractFactory {\n    address public stakeSimpleLogic;\n\n    /// @dev constructor of StakeSimpleFactory\n    /// @param _stakeSimpleLogic the logic address used in StakeSimpleFactory\n    constructor(address _stakeSimpleLogic) {\n        require(\n            _stakeSimpleLogic != address(0),\n            \"StakeSimpleFactory: logic zero\"\n        );\n        stakeSimpleLogic = _stakeSimpleLogic;\n    }\n\n    /// @dev Create a stake contract that can operate the staked amount as a DeFi project.\n    /// @param _addr array of [token, paytoken, vault, defiAddr]\n    /// @param _intdata array of [saleStartBlock, startBlock, periodBlocks]\n    /// @param owner  owner address\n    /// @return contract address\n    function create(\n        address[4] calldata _addr,\n        address _registry,\n        uint256[3] calldata _intdata,\n        address owner\n    ) external override returns (address) {\n        StakeSimpleProxy proxy = new StakeSimpleProxy(stakeSimpleLogic);\n        require(address(proxy) != address(0), \"StakeSimpleFactory: proxy zero\");\n\n        proxy.setInit(_addr, _registry, _intdata);\n        proxy.grantRole(ADMIN_ROLE, owner);\n        proxy.revokeRole(ADMIN_ROLE, address(this));\n\n        return address(proxy);\n    }\n}\n",
  "sourcePath": "/Users/zena/ico2.0/ico20-contracts/contracts/factory/StakeSimpleFactory.sol",
  "compiler": {
    "name": "solc",
    "version": "0.7.6+commit.7338295f.Emscripten.clang"
  },
  "schemaVersion": "3.3.4",
  "updatedAt": "2021-08-02T05:01:31.170Z",
  "devdoc": {
    "kind": "dev",
    "methods": {
      "constructor": {
        "details": "constructor of StakeSimpleFactory",
        "params": {
          "_stakeSimpleLogic": "the logic address used in StakeSimpleFactory"
        }
      },
      "create(address[4],address,uint256[3],address)": {
        "details": "Create a stake contract that can operate the staked amount as a DeFi project.",
        "params": {
          "_addr": "array of [token, paytoken, vault, defiAddr]",
          "_intdata": "array of [saleStartBlock, startBlock, periodBlocks]",
          "owner": "owner address"
        },
        "returns": {
          "_0": "contract address"
        }
      }
    },
    "title": "A factory that creates a stake contract",
    "version": 1
  },
  "userdoc": {
    "kind": "user",
    "methods": {},
    "version": 1
  }
}