{
  "contractName": "StakeRegistry",
  "abi": [
    {
      "inputs": [
        {
          "internalType": "address",
          "name": "_tos",
          "type": "address"
        }
      ],
      "stateMutability": "nonpayable",
      "type": "constructor"
    },
    {
      "anonymous": false,
      "inputs": [
        {
          "indexed": false,
          "internalType": "bytes32",
          "name": "nameHash",
          "type": "bytes32"
        },
        {
          "indexed": false,
          "internalType": "string",
          "name": "name",
          "type": "string"
        },
        {
          "indexed": false,
          "internalType": "address",
          "name": "router",
          "type": "address"
        },
        {
          "indexed": false,
          "internalType": "address",
          "name": "ex1",
          "type": "address"
        },
        {
          "indexed": false,
          "internalType": "address",
          "name": "ex2",
          "type": "address"
        },
        {
          "indexed": false,
          "internalType": "uint256",
          "name": "fee",
          "type": "uint256"
        },
        {
          "indexed": false,
          "internalType": "address",
          "name": "routerV2",
          "type": "address"
        }
      ],
      "name": "AddedDefiInfo",
      "type": "event"
    },
    {
      "anonymous": false,
      "inputs": [
        {
          "indexed": true,
          "internalType": "address",
          "name": "vault",
          "type": "address"
        },
        {
          "indexed": true,
          "internalType": "address",
          "name": "stakeContract",
          "type": "address"
        }
      ],
      "name": "AddedStakeContract",
      "type": "event"
    },
    {
      "anonymous": false,
      "inputs": [
        {
          "indexed": true,
          "internalType": "address",
          "name": "vault",
          "type": "address"
        },
        {
          "indexed": false,
          "internalType": "uint256",
          "name": "phase",
          "type": "uint256"
        }
      ],
      "name": "AddedVault",
      "type": "event"
    },
    {
      "anonymous": false,
      "inputs": [
        {
          "indexed": true,
          "internalType": "bytes32",
          "name": "role",
          "type": "bytes32"
        },
        {
          "indexed": true,
          "internalType": "bytes32",
          "name": "previousAdminRole",
          "type": "bytes32"
        },
        {
          "indexed": true,
          "internalType": "bytes32",
          "name": "newAdminRole",
          "type": "bytes32"
        }
      ],
      "name": "RoleAdminChanged",
      "type": "event"
    },
    {
      "anonymous": false,
      "inputs": [
        {
          "indexed": true,
          "internalType": "bytes32",
          "name": "role",
          "type": "bytes32"
        },
        {
          "indexed": true,
          "internalType": "address",
          "name": "account",
          "type": "address"
        },
        {
          "indexed": true,
          "internalType": "address",
          "name": "sender",
          "type": "address"
        }
      ],
      "name": "RoleGranted",
      "type": "event"
    },
    {
      "anonymous": false,
      "inputs": [
        {
          "indexed": true,
          "internalType": "bytes32",
          "name": "role",
          "type": "bytes32"
        },
        {
          "indexed": true,
          "internalType": "address",
          "name": "account",
          "type": "address"
        },
        {
          "indexed": true,
          "internalType": "address",
          "name": "sender",
          "type": "address"
        }
      ],
      "name": "RoleRevoked",
      "type": "event"
    },
    {
      "anonymous": false,
      "inputs": [
        {
          "indexed": false,
          "internalType": "address",
          "name": "ton",
          "type": "address"
        },
        {
          "indexed": false,
          "internalType": "address",
          "name": "wton",
          "type": "address"
        },
        {
          "indexed": false,
          "internalType": "address",
          "name": "depositManager",
          "type": "address"
        },
        {
          "indexed": false,
          "internalType": "address",
          "name": "seigManager",
          "type": "address"
        },
        {
          "indexed": false,
          "internalType": "address",
          "name": "swapProxy",
          "type": "address"
        }
      ],
      "name": "SetTokamak",
      "type": "event"
    },
    {
      "inputs": [],
      "name": "ADMIN_ROLE",
      "outputs": [
        {
          "internalType": "bytes32",
          "name": "",
          "type": "bytes32"
        }
      ],
      "stateMutability": "view",
      "type": "function"
    },
    {
      "inputs": [],
      "name": "BURNER_ROLE",
      "outputs": [
        {
          "internalType": "bytes32",
          "name": "",
          "type": "bytes32"
        }
      ],
      "stateMutability": "view",
      "type": "function"
    },
    {
      "inputs": [],
      "name": "DEFAULT_ADMIN_ROLE",
      "outputs": [
        {
          "internalType": "bytes32",
          "name": "",
          "type": "bytes32"
        }
      ],
      "stateMutability": "view",
      "type": "function"
    },
    {
      "inputs": [],
      "name": "MINTER_ROLE",
      "outputs": [
        {
          "internalType": "bytes32",
          "name": "",
          "type": "bytes32"
        }
      ],
      "stateMutability": "view",
      "type": "function"
    },
    {
      "inputs": [],
      "name": "ZERO_HASH",
      "outputs": [
        {
          "internalType": "bytes32",
          "name": "",
          "type": "bytes32"
        }
      ],
      "stateMutability": "view",
      "type": "function"
    },
    {
      "inputs": [
        {
          "internalType": "address",
          "name": "account",
          "type": "address"
        }
      ],
      "name": "addAdmin",
      "outputs": [],
      "stateMutability": "nonpayable",
      "type": "function"
    },
    {
      "inputs": [
        {
          "internalType": "bytes32",
          "name": "",
          "type": "bytes32"
        }
      ],
      "name": "defiInfo",
      "outputs": [
        {
          "internalType": "string",
          "name": "name",
          "type": "string"
        },
        {
          "internalType": "address",
          "name": "router",
          "type": "address"
        },
        {
          "internalType": "address",
          "name": "ext1",
          "type": "address"
        },
        {
          "internalType": "address",
          "name": "ext2",
          "type": "address"
        },
        {
          "internalType": "uint256",
          "name": "fee",
          "type": "uint256"
        },
        {
          "internalType": "address",
          "name": "routerV2",
          "type": "address"
        }
      ],
      "stateMutability": "view",
      "type": "function"
    },
    {
      "inputs": [],
      "name": "depositManager",
      "outputs": [
        {
          "internalType": "address",
          "name": "",
          "type": "address"
        }
      ],
      "stateMutability": "view",
      "type": "function"
    },
    {
      "inputs": [
        {
          "internalType": "bytes32",
          "name": "role",
          "type": "bytes32"
        }
      ],
      "name": "getRoleAdmin",
      "outputs": [
        {
          "internalType": "bytes32",
          "name": "",
          "type": "bytes32"
        }
      ],
      "stateMutability": "view",
      "type": "function"
    },
    {
      "inputs": [
        {
          "internalType": "bytes32",
          "name": "role",
          "type": "bytes32"
        },
        {
          "internalType": "uint256",
          "name": "index",
          "type": "uint256"
        }
      ],
      "name": "getRoleMember",
      "outputs": [
        {
          "internalType": "address",
          "name": "",
          "type": "address"
        }
      ],
      "stateMutability": "view",
      "type": "function"
    },
    {
      "inputs": [
        {
          "internalType": "bytes32",
          "name": "role",
          "type": "bytes32"
        }
      ],
      "name": "getRoleMemberCount",
      "outputs": [
        {
          "internalType": "uint256",
          "name": "",
          "type": "uint256"
        }
      ],
      "stateMutability": "view",
      "type": "function"
    },
    {
      "inputs": [
        {
          "internalType": "bytes32",
          "name": "role",
          "type": "bytes32"
        },
        {
          "internalType": "address",
          "name": "account",
          "type": "address"
        }
      ],
      "name": "grantRole",
      "outputs": [],
      "stateMutability": "nonpayable",
      "type": "function"
    },
    {
      "inputs": [
        {
          "internalType": "bytes32",
          "name": "role",
          "type": "bytes32"
        },
        {
          "internalType": "address",
          "name": "account",
          "type": "address"
        }
      ],
      "name": "hasRole",
      "outputs": [
        {
          "internalType": "bool",
          "name": "",
          "type": "bool"
        }
      ],
      "stateMutability": "view",
      "type": "function"
    },
    {
      "inputs": [
        {
          "internalType": "address",
          "name": "account",
          "type": "address"
        }
      ],
      "name": "isAdmin",
      "outputs": [
        {
          "internalType": "bool",
          "name": "",
          "type": "bool"
        }
      ],
      "stateMutability": "view",
      "type": "function"
    },
    {
      "inputs": [
        {
          "internalType": "uint256",
          "name": "",
          "type": "uint256"
        },
        {
          "internalType": "uint256",
          "name": "",
          "type": "uint256"
        }
      ],
      "name": "phases",
      "outputs": [
        {
          "internalType": "address",
          "name": "",
          "type": "address"
        }
      ],
      "stateMutability": "view",
      "type": "function"
    },
    {
      "inputs": [
        {
          "internalType": "address",
          "name": "account",
          "type": "address"
        }
      ],
      "name": "removeAdmin",
      "outputs": [],
      "stateMutability": "nonpayable",
      "type": "function"
    },
    {
      "inputs": [
        {
          "internalType": "bytes32",
          "name": "role",
          "type": "bytes32"
        },
        {
          "internalType": "address",
          "name": "account",
          "type": "address"
        }
      ],
      "name": "renounceRole",
      "outputs": [],
      "stateMutability": "nonpayable",
      "type": "function"
    },
    {
      "inputs": [
        {
          "internalType": "bytes32",
          "name": "role",
          "type": "bytes32"
        },
        {
          "internalType": "address",
          "name": "account",
          "type": "address"
        }
      ],
      "name": "revokeRole",
      "outputs": [],
      "stateMutability": "nonpayable",
      "type": "function"
    },
    {
      "inputs": [],
      "name": "seigManager",
      "outputs": [
        {
          "internalType": "address",
          "name": "",
          "type": "address"
        }
      ],
      "stateMutability": "view",
      "type": "function"
    },
    {
      "inputs": [
        {
          "internalType": "address",
          "name": "",
          "type": "address"
        }
      ],
      "name": "stakeContractVault",
      "outputs": [
        {
          "internalType": "address",
          "name": "",
          "type": "address"
        }
      ],
      "stateMutability": "view",
      "type": "function"
    },
    {
      "inputs": [
        {
          "internalType": "address",
          "name": "",
          "type": "address"
        },
        {
          "internalType": "uint256",
          "name": "",
          "type": "uint256"
        }
      ],
      "name": "stakeContractsOfVault",
      "outputs": [
        {
          "internalType": "address",
          "name": "",
          "type": "address"
        }
      ],
      "stateMutability": "view",
      "type": "function"
    },
    {
      "inputs": [],
      "name": "swapProxy",
      "outputs": [
        {
          "internalType": "address",
          "name": "",
          "type": "address"
        }
      ],
      "stateMutability": "view",
      "type": "function"
    },
    {
      "inputs": [],
      "name": "ton",
      "outputs": [
        {
          "internalType": "address",
          "name": "",
          "type": "address"
        }
      ],
      "stateMutability": "view",
      "type": "function"
    },
    {
      "inputs": [],
      "name": "tos",
      "outputs": [
        {
          "internalType": "address",
          "name": "",
          "type": "address"
        }
      ],
      "stateMutability": "view",
      "type": "function"
    },
    {
      "inputs": [
        {
          "internalType": "address",
          "name": "newAdmin",
          "type": "address"
        }
      ],
      "name": "transferAdmin",
      "outputs": [],
      "stateMutability": "nonpayable",
      "type": "function"
    },
    {
      "inputs": [
        {
          "internalType": "address",
          "name": "",
          "type": "address"
        }
      ],
      "name": "vaultNames",
      "outputs": [
        {
          "internalType": "bytes32",
          "name": "",
          "type": "bytes32"
        }
      ],
      "stateMutability": "view",
      "type": "function"
    },
    {
      "inputs": [
        {
          "internalType": "bytes32",
          "name": "",
          "type": "bytes32"
        }
      ],
      "name": "vaults",
      "outputs": [
        {
          "internalType": "address",
          "name": "",
          "type": "address"
        }
      ],
      "stateMutability": "view",
      "type": "function"
    },
    {
      "inputs": [],
      "name": "wton",
      "outputs": [
        {
          "internalType": "address",
          "name": "",
          "type": "address"
        }
      ],
      "stateMutability": "view",
      "type": "function"
    },
    {
      "inputs": [
        {
          "internalType": "address",
          "name": "_ton",
          "type": "address"
        },
        {
          "internalType": "address",
          "name": "_wton",
          "type": "address"
        },
        {
          "internalType": "address",
          "name": "_depositManager",
          "type": "address"
        },
        {
          "internalType": "address",
          "name": "_seigManager",
          "type": "address"
        },
        {
          "internalType": "address",
          "name": "_swapProxy",
          "type": "address"
        }
      ],
      "name": "setTokamak",
      "outputs": [],
      "stateMutability": "nonpayable",
      "type": "function"
    },
    {
      "inputs": [
        {
          "internalType": "string",
          "name": "_name",
          "type": "string"
        },
        {
          "internalType": "address",
          "name": "_router",
          "type": "address"
        },
        {
          "internalType": "address",
          "name": "_ex1",
          "type": "address"
        },
        {
          "internalType": "address",
          "name": "_ex2",
          "type": "address"
        },
        {
          "internalType": "uint256",
          "name": "_fee",
          "type": "uint256"
        },
        {
          "internalType": "address",
          "name": "_routerV2",
          "type": "address"
        }
      ],
      "name": "addDefiInfo",
      "outputs": [],
      "stateMutability": "nonpayable",
      "type": "function"
    },
    {
      "inputs": [
        {
          "internalType": "address",
          "name": "_vault",
          "type": "address"
        },
        {
          "internalType": "uint256",
          "name": "_phase",
          "type": "uint256"
        },
        {
          "internalType": "bytes32",
          "name": "_vaultName",
          "type": "bytes32"
        }
      ],
      "name": "addVault",
      "outputs": [],
      "stateMutability": "nonpayable",
      "type": "function"
    },
    {
      "inputs": [
        {
          "internalType": "address",
          "name": "_vault",
          "type": "address"
        },
        {
          "internalType": "address",
          "name": "_stakeContract",
          "type": "address"
        }
      ],
      "name": "addStakeContract",
      "outputs": [],
      "stateMutability": "nonpayable",
      "type": "function"
    },
    {
      "inputs": [],
      "name": "getTokamak",
      "outputs": [
        {
          "internalType": "address",
          "name": "",
          "type": "address"
        },
        {
          "internalType": "address",
          "name": "",
          "type": "address"
        },
        {
          "internalType": "address",
          "name": "",
          "type": "address"
        },
        {
          "internalType": "address",
          "name": "",
          "type": "address"
        },
        {
          "internalType": "address",
          "name": "",
          "type": "address"
        }
      ],
      "stateMutability": "view",
      "type": "function"
    },
    {
      "inputs": [],
      "name": "getUniswap",
      "outputs": [
        {
          "internalType": "address",
          "name": "",
          "type": "address"
        },
        {
          "internalType": "address",
          "name": "",
          "type": "address"
        },
        {
          "internalType": "address",
          "name": "",
          "type": "address"
        },
        {
          "internalType": "uint256",
          "name": "",
          "type": "uint256"
        },
        {
          "internalType": "address",
          "name": "",
          "type": "address"
        }
      ],
      "stateMutability": "view",
      "type": "function"
    },
    {
      "inputs": [
        {
          "internalType": "uint256",
          "name": "_index",
          "type": "uint256"
        }
      ],
      "name": "phasesAll",
      "outputs": [
        {
          "internalType": "address[]",
          "name": "",
          "type": "address[]"
        }
      ],
      "stateMutability": "view",
      "type": "function"
    },
    {
      "inputs": [
        {
          "internalType": "address",
          "name": "_vault",
          "type": "address"
        }
      ],
      "name": "stakeContractsOfVaultAll",
      "outputs": [
        {
          "internalType": "address[]",
          "name": "",
          "type": "address[]"
        }
      ],
      "stateMutability": "view",
      "type": "function"
    },
    {
      "inputs": [
        {
          "internalType": "uint256",
          "name": "_phase",
          "type": "uint256"
        },
        {
          "internalType": "address",
          "name": "_vault",
          "type": "address"
        }
      ],
      "name": "validVault",
      "outputs": [
        {
          "internalType": "bool",
          "name": "valid",
          "type": "bool"
        }
      ],
      "stateMutability": "view",
      "type": "function"
    }
  ],
  "bytecode": "0x60806040523480156200001157600080fd5b5060405162001ea238038062001ea2833981810160405260208110156200003757600080fd5b50516200005460008051602062001e828339815191528062000095565b6200006f60008051602062001e8283398151915233620000e7565b600180546001600160a01b0319166001600160a01b0392909216919091179055620001fb565b600082815260208190526040808220600201549051839285917fbd79b86ffe0ab8e8776151514217cd7cacd52c909f66475c3af44e129f0b00ff9190a460009182526020829052604090912060020155565b620000f38282620000f7565b5050565b6000828152602081815260409091206200011c9183906200178262000170821b17901c565b15620000f3576200012c62000190565b6001600160a01b0316816001600160a01b0316837f2f8788117e7eff1d82e926ec794901d17c78024a50270940304540a733656f0d60405160405180910390a45050565b600062000187836001600160a01b03841662000194565b90505b92915050565b3390565b6000620001a28383620001e3565b620001da575081546001818101845560008481526020808220909301849055845484825282860190935260409020919091556200018a565b5060006200018a565b60009081526001919091016020526040902054151590565b611c77806200020b6000396000f3fe608060405234801561001057600080fd5b50600436106101f75760003560e01c80638d62d94911610120578063a95031f1116100b8578063d53913931161007c578063d53913931461079f578063d547741f146107a7578063efc9f746146107d3578063f025a65714610805578063faeb6b9f1461082b576101f7565b8063a95031f114610664578063c9560c9214610681578063ca15c8731461075d578063cc48b9471461077a578063cca23bf214610782576101f7565b80638d62d949146104695780638dea8fd7146104715780639010d07c1461049f578063918dafa4146104c257806391d14854146104e557806399469a5714610511578063a217fddf1461037d578063a782ebd5146105aa578063a8fcc09a146105ee576101f7565b8063504563c011610193578063504563c0146103855780636b7e2bd0146103c95780636c7ac9d8146103f55780636ec4be90146103fd5780636fb7f55814610405578063704802751461040d57806375829def1461043357806375b238fc1461045957806389f395de14610461576101f7565b80631785f53c146101fc578063248a9ca31461022457806324d7806c14610253578063282c51f31461028d5780632f2ff15d1461029557806336568abe146102c15780634b2e0ebd146102ed5780634be8b116146103355780634ce76a3c1461037d575b600080fd5b6102226004803603602081101561021257600080fd5b50356001600160a01b0316610851565b005b6102416004803603602081101561023a57600080fd5b50356108b0565b60408051918252519081900360200190f35b6102796004803603602081101561026957600080fd5b50356001600160a01b03166108c5565b604080519115158252519081900360200190f35b6102416108e5565b610222600480360360408110156102ab57600080fd5b50803590602001356001600160a01b0316610909565b610222600480360360408110156102d757600080fd5b50803590602001356001600160a01b0316610975565b610222600480360360a081101561030357600080fd5b506001600160a01b038135811691602081013582169160408201358116916060810135821691608090910135166109d6565b6103616004803603604081101561034b57600080fd5b506001600160a01b038135169060200135610c46565b604080516001600160a01b039092168252519081900360200190f35b610241610c7e565b61038d610c83565b604080516001600160a01b0396871681529486166020860152928516848401526060840191909152909216608082015290519081900360a00190f35b610279600480360360408110156103df57600080fd5b50803590602001356001600160a01b0316610cf8565b610361610dad565b610361610dbc565b610361610dcb565b6102226004803603602081101561042357600080fd5b50356001600160a01b0316610dda565b6102226004803603602081101561044957600080fd5b50356001600160a01b0316610e36565b610241610f57565b610361610f69565b610361610f78565b6102226004803603604081101561048757600080fd5b506001600160a01b0381358116916020013516610f87565b610361600480360360408110156104b557600080fd5b50803590602001356110df565b610361600480360360408110156104d857600080fd5b50803590602001356110fe565b610279600480360360408110156104fb57600080fd5b50803590602001356001600160a01b031661111a565b610222600480360360c081101561052757600080fd5b81019060208101813564010000000081111561054257600080fd5b82018360208201111561055457600080fd5b8035906020019184600183028401116401000000008311171561057657600080fd5b91935091506001600160a01b0381358116916020810135821691604082013581169160608101359160809091013516611132565b6105b261136a565b604080516001600160a01b0396871681529486166020860152928516848401529084166060840152909216608082015290519081900360a00190f35b6106146004803603602081101561060457600080fd5b50356001600160a01b0316611395565b60408051602080825283518183015283519192839290830191858101910280838360005b83811015610650578181015183820152602001610638565b505050509050019250505060405180910390f35b6106146004803603602081101561067a57600080fd5b503561140b565b61069e6004803603602081101561069757600080fd5b5035611475565b6040518080602001876001600160a01b03168152602001866001600160a01b03168152602001856001600160a01b03168152602001848152602001836001600160a01b03168152602001828103825288818151815260200191508051906020019080838360005b8381101561071d578181015183820152602001610705565b50505050905090810190601f16801561074a5780820380516001836020036101000a031916815260200191505b5097505050505050505060405180910390f35b6102416004803603602081101561077357600080fd5b5035611546565b61036161155d565b6103616004803603602081101561079857600080fd5b503561156c565b610241611587565b610222600480360360408110156107bd57600080fd5b50803590602001356001600160a01b03166115ab565b610222600480360360608110156107e957600080fd5b506001600160a01b038135169060208101359060400135611604565b6102416004803603602081101561081b57600080fd5b50356001600160a01b0316611755565b6103616004803603602081101561084157600080fd5b50356001600160a01b0316611767565b61085a336108c5565b6108955760405162461bcd60e51b8152600401808060200182810382526022815260200180611b526022913960400191505060405180910390fd5b6108ad600080516020611ba483398151915282610975565b50565b60009081526020819052604090206002015490565b60006108df600080516020611ba48339815191528361111a565b92915050565b7f9667e80708b6eeeb0053fa0cca44e028ff548e2a9f029edfeac87c118b08b7c881565b60008281526020819052604090206002015461092c90610927611797565b61111a565b6109675760405162461bcd60e51b815260040180806020018281038252602f815260200180611b02602f913960400191505060405180910390fd5b610971828261179b565b5050565b61097d611797565b6001600160a01b0316816001600160a01b0316146109cc5760405162461bcd60e51b815260040180806020018281038252602f815260200180611c13602f913960400191505060405180910390fd5b6109718282611804565b6109df336108c5565b610a1a5760405162461bcd60e51b8152600401808060200182810382526022815260200180611b526022913960400191505060405180910390fd5b846001600160a01b038116610a64576040805162461bcd60e51b815260206004820152601b6024820152600080516020611bc4833981519152604482015290519081900360640190fd5b846001600160a01b038116610aae576040805162461bcd60e51b815260206004820152601b6024820152600080516020611bc4833981519152604482015290519081900360640190fd5b846001600160a01b038116610af8576040805162461bcd60e51b815260206004820152601b6024820152600080516020611bc4833981519152604482015290519081900360640190fd5b846001600160a01b038116610b42576040805162461bcd60e51b815260206004820152601b6024820152600080516020611bc4833981519152604482015290519081900360640190fd5b846001600160a01b038116610b8c576040805162461bcd60e51b815260206004820152601b6024820152600080516020611bc4833981519152604482015290519081900360640190fd5b600280546001600160a01b03199081166001600160a01b038d811691909117928390556003805483168d831617908190556004805484168d841617908190556005805485168d85161790819055600680549095168c851617948590556040805196851687529284166020870152908316858301528216606085015291166080830152517f46a53dd818efcc0314aabace01e93d87ceaacb400503f8ae380689193622edbc9160a0908290030190a150505050505050505050565b600a6020528160005260406000208181548110610c6257600080fd5b6000918252602090912001546001600160a01b03169150829050565b600081565b6040805169554e49535741505f563360b01b6020808301919091528251600a818403018152602a90920183528151918101919091206000908152600c9091522060018101546002820154600383015460048401546005909401546001600160a01b039384169592841694918416939192911690565b600082815260076020526040812054610d425760405162461bcd60e51b8152600401808060200182810382526021815260200180611b316021913960400191505060405180910390fd5b60005b600084815260076020526040902054811015610da6576000848152600760205260409020805482908110610d7557fe5b6000918252602090912001546001600160a01b0384811691161415610d9e5760019150506108df565b600101610d45565b5092915050565b6004546001600160a01b031681565b6006546001600160a01b031681565b6005546001600160a01b031681565b610de3336108c5565b610e1e5760405162461bcd60e51b8152600401808060200182810382526022815260200180611b526022913960400191505060405180910390fd5b6108ad600080516020611ba483398151915282610909565b610e3f336108c5565b610e7a5760405162461bcd60e51b8152600401808060200182810382526022815260200180611b526022913960400191505060405180910390fd5b6001600160a01b038116610ed0576040805162461bcd60e51b815260206004820152601860248201527741636365737369626c653a207a65726f206164647265737360401b604482015290519081900360640190fd5b336001600160a01b0382161415610f27576040805162461bcd60e51b815260206004820152601660248201527520b1b1b2b9b9b4b136329d1039b0b6b29030b236b4b760511b604482015290519081900360640190fd5b610f3f600080516020611ba483398151915282610909565b6108ad600080516020611ba483398151915233610975565b600080516020611ba483398151915281565b6001546001600160a01b031681565b6003546001600160a01b031681565b610f90336108c5565b610fcb5760405162461bcd60e51b8152600401808060200182810382526022815260200180611b526022913960400191505060405180910390fd5b6001600160a01b0382166000908152600960205260409020541580159061100a57506001600160a01b038181166000908152600b602052604090205416155b61105b576040805162461bcd60e51b815260206004820152601c60248201527f5374616b6552656769737472793a20696e707574206973207a65726f00000000604482015290519081900360640190fd5b6001600160a01b038082166000818152600b6020908152604080832080549588166001600160a01b03199687168117909155808452600a835281842080546001810182559085529284209092018054909516841790945592519192917fe6584895e96f2ea505afcd22b465ea591aaa448ca2b1512ee7e6cf0a0b06bddb9190a35050565b60008281526020819052604081206110f7908361186d565b9392505050565b60076020528160005260406000208181548110610c6257600080fd5b60008281526020819052604081206110f79083611879565b61113b336108c5565b6111765760405162461bcd60e51b8152600401808060200182810382526022815260200180611b526022913960400191505060405180910390fd5b846001600160a01b0381166111c0576040805162461bcd60e51b815260206004820152601b6024820152600080516020611bc4833981519152604482015290519081900360640190fd5b600088886040516020018083838082843780830192505050925050506040516020818303038152906040528051906020012090506000801b81141561124c576040805162461bcd60e51b815260206004820152601c60248201527f5374616b6552656769737472793a206e616d6548617368207a65726f00000000604482015290519081900360640190fd5b6000818152600c60205260409020611265818b8b611a3e565b506001810180546001600160a01b03808b166001600160a01b031992831681179093556002840180548b831690841681179091556003850180548b84169085168117909155600486018a9055600586018054938a1693909416831790935560408051878152908101949094526060840152608083019190915260a0820187905260c082015260e0602082018181529082018b90527f0147e7efb7b14e89c57dff67004f0d16bcb8fd1de7b6a1495516966b9f9454c09184918d918d918d918d918d918d918d91906101008201898980828437600083820152604051601f909101601f19169092018290039b50909950505050505050505050a150505050505050505050565b6002546003546004546005546006546001600160a01b03948516959385169492831693918316921690565b6001600160a01b0381166000908152600a60209081526040918290208054835181840281018401909452808452606093928301828280156113ff57602002820191906000526020600020905b81546001600160a01b031681526001909101906020018083116113e1575b50505050509050919050565b6000818152600760209081526040918290208054835181840281018401909452808452606093928301828280156113ff576020028201919060005260206000209081546001600160a01b031681526001909101906020018083116113e15750505050509050919050565b600c6020908152600091825260409182902080548351601f6002600019610100600186161502019093169290920491820184900484028101840190945280845290929183919083018282801561150c5780601f106114e15761010080835404028352916020019161150c565b820191906000526020600020905b8154815290600101906020018083116114ef57829003601f168201915b505050600184015460028501546003860154600487015460059097015495966001600160a01b039384169692841695509083169350911686565b60008181526020819052604081206108df9061188e565b6002546001600160a01b031681565b6008602052600090815260409020546001600160a01b031681565b7ff0887ba65ee2024ea881d91b74c2450ef19e1557f03bed3ea9f16b037cbe2dc981565b6000828152602081905260409020600201546115c990610927611797565b6109cc5760405162461bcd60e51b8152600401808060200182810382526030815260200180611b746030913960400191505060405180910390fd5b61160d336108c5565b6116485760405162461bcd60e51b8152600401808060200182810382526022815260200180611b526022913960400191505060405180910390fd5b6001600160a01b038316600090815260096020526040902054158061168257506000818152600860205260409020546001600160a01b0316155b6116bd5760405162461bcd60e51b815260040180806020018281038252602f815260200180611be4602f913960400191505060405180910390fd5b600081815260086020908152604080832080546001600160a01b0388166001600160a01b03199182168117909255818552600984528285208690558685526007845282852080546001810182559086529484902090940180549094168117909355805185815290517fdfaf8626b603a61190ccb047f953d17d6bb3bbe900c801d2b813ce3e526c59a7929181900390910190a2505050565b60096020526000908152604090205481565b600b602052600090815260409020546001600160a01b031681565b60006110f7836001600160a01b038416611899565b3390565b60008281526020819052604090206117b39082611782565b15610971576117c0611797565b6001600160a01b0316816001600160a01b0316837f2f8788117e7eff1d82e926ec794901d17c78024a50270940304540a733656f0d60405160405180910390a45050565b600082815260208190526040902061181c90826118e3565b1561097157611829611797565b6001600160a01b0316816001600160a01b0316837ff6391f5c32d9c69d2a47ea670b442974b53935d1edc7fd64eb21e047a839171b60405160405180910390a45050565b60006110f783836118f8565b60006110f7836001600160a01b03841661195c565b60006108df82611974565b60006118a5838361195c565b6118db575081546001818101845560008481526020808220909301849055845484825282860190935260409020919091556108df565b5060006108df565b60006110f7836001600160a01b038416611978565b8154600090821061193a5760405162461bcd60e51b8152600401808060200182810382526022815260200180611ae06022913960400191505060405180910390fd5b82600001828154811061194957fe5b9060005260206000200154905092915050565b60009081526001919091016020526040902054151590565b5490565b60008181526001830160205260408120548015611a3457835460001980830191908101906000908790839081106119ab57fe5b90600052602060002001549050808760000184815481106119c857fe5b6000918252602080832090910192909255828152600189810190925260409020908401905586548790806119f857fe5b600190038181906000526020600020016000905590558660010160008781526020019081526020016000206000905560019450505050506108df565b60009150506108df565b828054600181600116156101000203166002900490600052602060002090601f016020900481019282611a745760008555611aba565b82601f10611a8d5782800160ff19823516178555611aba565b82800160010185558215611aba579182015b82811115611aba578235825591602001919060010190611a9f565b50611ac6929150611aca565b5090565b5b80821115611ac65760008155600101611acb56fe456e756d657261626c655365743a20696e646578206f7574206f6620626f756e6473416363657373436f6e74726f6c3a2073656e646572206d75737420626520616e2061646d696e20746f206772616e745374616b6552656769737472793a2076616c69645661756c74206973206661696c41636365737369626c653a2043616c6c6572206973206e6f7420616e2061646d696e416363657373436f6e74726f6c3a2073656e646572206d75737420626520616e2061646d696e20746f207265766f6b65df8b4c520ffe197c5343c6f5aec59570151ef9a492f2c624fd45ddde6135ec425374616b6552656769737472793a207a65726f206164647265737300000000005374616b6552656769737472793a206164645661756c7420696e7075742076616c7565206973206e6f74207a65726f416363657373436f6e74726f6c3a2063616e206f6e6c792072656e6f756e636520726f6c657320666f722073656c66a26469706673582212203e5c591ecd07f6b75976adb5e76f9a5080f957fdb2f7abf3309cc62f0f65eeda64736f6c63430007060033df8b4c520ffe197c5343c6f5aec59570151ef9a492f2c624fd45ddde6135ec42",
  "immutableReferences": {},
  "source": "//SPDX-License-Identifier: Unlicense\npragma solidity ^0.7.6;\n\nimport \"../interfaces/IStakeRegistry.sol\";\nimport \"../libraries/LibTokenStake1.sol\";\nimport \"../common/AccessibleCommon.sol\";\n\n/// @title Stake Registry\n/// @notice Manage the vault list by phase. Manage the list of staking contracts in the vault.\ncontract StakeRegistry is AccessibleCommon, IStakeRegistry {\n    bytes32 public constant ZERO_HASH =\n        0x0000000000000000000000000000000000000000000000000000000000000000;\n\n    /// @dev TOS address\n    address public tos;\n\n    /// @dev TON address in Tokamak\n    address public ton;\n\n    /// @dev WTON address in Tokamak\n    address public wton;\n\n    /// @dev Depositmanager address in Tokamak\n    address public depositManager;\n\n    /// @dev SeigManager address in Tokamak\n    address public seigManager;\n\n    /// @dev swapProxy address in Tokamak\n    address public swapProxy;\n\n    /// Contracts included in the phase\n    mapping(uint256 => address[]) public phases;\n\n    /// Vault address mapping with vault name hash\n    mapping(bytes32 => address) public vaults;\n\n    /// Vault name hash mapping with vault address\n    mapping(address => bytes32) public vaultNames;\n\n    /// List of staking contracts included in the vault\n    mapping(address => address[]) public stakeContractsOfVault;\n\n    /// Vault address of staking contract\n    mapping(address => address) public stakeContractVault;\n\n    /// Defi Info\n    mapping(bytes32 => LibTokenStake1.DefiInfo) public override defiInfo;\n\n    modifier nonZero(address _addr) {\n        require(_addr != address(0), \"StakeRegistry: zero address\");\n        _;\n    }\n\n    /// @dev event on add the vault\n    /// @param vault the vault address\n    /// @param phase the phase of TOS platform\n    event AddedVault(address indexed vault, uint256 phase);\n\n    /// @dev event on add the stake contract in vault\n    /// @param vault the vault address\n    /// @param stakeContract the stake contract address created\n    event AddedStakeContract(\n        address indexed vault,\n        address indexed stakeContract\n    );\n\n    /// @dev event on set the addresses related to tokamak\n    /// @param ton the TON address\n    /// @param wton the WTON address\n    /// @param depositManager the DepositManager address\n    /// @param seigManager the SeigManager address\n    /// @param swapProxy the SwapProxy address\n    event SetTokamak(\n        address ton,\n        address wton,\n        address depositManager,\n        address seigManager,\n        address swapProxy\n    );\n\n    /// @dev event on add the information related to defi.\n    /// @param nameHash the name hash\n    /// @param name the name of defi identify\n    /// @param router the entry address\n    /// @param ex1 the extra 1 addres\n    /// @param ex2 the extra 2 addres\n    /// @param fee fee\n    /// @param routerV2 the uniswap2 router address\n    event AddedDefiInfo(\n        bytes32 nameHash,\n        string name,\n        address router,\n        address ex1,\n        address ex2,\n        uint256 fee,\n        address routerV2\n    );\n\n    /// @dev constructor of StakeRegistry\n    /// @param _tos TOS address\n    constructor(address _tos) {\n        _setRoleAdmin(ADMIN_ROLE, ADMIN_ROLE);\n        _setupRole(ADMIN_ROLE, msg.sender);\n        tos = _tos;\n    }\n\n    /// @dev Set addresses for Tokamak integration\n    /// @param _ton TON address\n    /// @param _wton WTON address\n    /// @param _depositManager DepositManager address\n    /// @param _seigManager SeigManager address\n    function setTokamak(\n        address _ton,\n        address _wton,\n        address _depositManager,\n        address _seigManager,\n        address _swapProxy\n    )\n        external\n        override\n        onlyOwner\n        nonZero(_ton)\n        nonZero(_wton)\n        nonZero(_depositManager)\n        nonZero(_seigManager)\n        nonZero(_swapProxy)\n    {\n        ton = _ton;\n        wton = _wton;\n        depositManager = _depositManager;\n        seigManager = _seigManager;\n        swapProxy = _swapProxy;\n\n        emit SetTokamak(ton, wton, depositManager, seigManager, swapProxy);\n    }\n\n    /// @dev Add information related to Defi\n    /// @param _name name . ex) UNISWAP_V3\n    /// @param _router entry point of defi\n    /// @param _ex1  additional variable . ex) positionManagerAddress in Uniswap V3\n    /// @param _ex2  additional variable . ex) WETH Address in Uniswap V3\n    /// @param _fee  fee\n    /// @param _routerV2 In case of uniswap, router address of uniswapV2\n    function addDefiInfo(\n        string calldata _name,\n        address _router,\n        address _ex1,\n        address _ex2,\n        uint256 _fee,\n        address _routerV2\n    ) external override onlyOwner nonZero(_router) {\n        bytes32 nameHash = keccak256(abi.encodePacked(_name));\n        require(nameHash != ZERO_HASH, \"StakeRegistry: nameHash zero\");\n\n        LibTokenStake1.DefiInfo storage _defiInfo = defiInfo[nameHash];\n        _defiInfo.name = _name;\n        _defiInfo.router = _router;\n        _defiInfo.ext1 = _ex1;\n        _defiInfo.ext2 = _ex2;\n        _defiInfo.fee = _fee;\n        _defiInfo.routerV2 = _routerV2;\n\n        emit AddedDefiInfo(\n            nameHash,\n            _name,\n            _router,\n            _ex1,\n            _ex2,\n            _fee,\n            _routerV2\n        );\n    }\n\n    /// @dev Add Vault\n    /// @dev It is excuted by proxy\n    /// @param _vault vault address\n    /// @param _phase phase ex) 1,2,3\n    /// @param _vaultName  hash of vault's name\n    function addVault(\n        address _vault,\n        uint256 _phase,\n        bytes32 _vaultName\n    ) external override onlyOwner {\n        require(\n            vaultNames[_vault] == ZERO_HASH || vaults[_vaultName] == address(0),\n            \"StakeRegistry: addVault input value is not zero\"\n        );\n        vaults[_vaultName] = _vault;\n        vaultNames[_vault] = _vaultName;\n        phases[_phase].push(_vault);\n\n        emit AddedVault(_vault, _phase);\n    }\n\n    /// @dev Add StakeContract in vault\n    /// @dev It is excuted by proxy\n    /// @param _vault vault address\n    /// @param _stakeContract  StakeContract address\n    function addStakeContract(address _vault, address _stakeContract)\n        external\n        override\n        onlyOwner\n    {\n        require(\n            vaultNames[_vault] != ZERO_HASH &&\n                stakeContractVault[_stakeContract] == address(0),\n            \"StakeRegistry: input is zero\"\n        );\n        stakeContractVault[_stakeContract] = _vault;\n        stakeContractsOfVault[_vault].push(_stakeContract);\n\n        emit AddedStakeContract(_vault, _stakeContract);\n    }\n\n    /// @dev Get addresses for Tokamak interface\n    /// @return (ton, wton, depositManager, seigManager)\n    function getTokamak()\n        external\n        view\n        override\n        returns (\n            address,\n            address,\n            address,\n            address,\n            address\n        )\n    {\n        return (ton, wton, depositManager, seigManager, swapProxy);\n    }\n\n    /// @dev Get indos for UNISWAP_V3 interface\n    /// @return (uniswapRouter, npm, wethAddress, fee)\n    function getUniswap()\n        external\n        view\n        override\n        returns (\n            address,\n            address,\n            address,\n            uint256,\n            address\n        )\n    {\n        bytes32 nameHash = keccak256(abi.encodePacked(\"UNISWAP_V3\"));\n        return (\n            defiInfo[nameHash].router,\n            defiInfo[nameHash].ext1,\n            defiInfo[nameHash].ext2,\n            defiInfo[nameHash].fee,\n            defiInfo[nameHash].routerV2\n        );\n    }\n\n    /// @dev Get addresses of vaults of index phase\n    /// @param _index the phase number\n    /// @return the list of vaults of phase[_index]\n    function phasesAll(uint256 _index)\n        external\n        view\n        override\n        returns (address[] memory)\n    {\n        return phases[_index];\n    }\n\n    /// @dev Get addresses of staker of _vault\n    /// @param _vault the vault's address\n    /// @return the list of stakeContracts of vault\n    function stakeContractsOfVaultAll(address _vault)\n        external\n        view\n        override\n        returns (address[] memory)\n    {\n        return stakeContractsOfVault[_vault];\n    }\n\n    /// @dev Checks if a vault is withing the given phase\n    /// @param _phase the phase number\n    /// @param _vault the vault's address\n    /// @return valid true or false\n    function validVault(uint256 _phase, address _vault)\n        external\n        view\n        override\n        returns (bool valid)\n    {\n        require(phases[_phase].length > 0, \"StakeRegistry: validVault is fail\");\n\n        for (uint256 i = 0; i < phases[_phase].length; i++) {\n            if (_vault == phases[_phase][i]) {\n                return true;\n            }\n        }\n    }\n}\n",
  "sourcePath": "/Users/zena/ico2.0/ico20-contracts/contracts/stake/StakeRegistry.sol",
  "compiler": {
    "name": "solc",
    "version": "0.7.6+commit.7338295f.Emscripten.clang"
  },
  "schemaVersion": "3.3.4",
  "updatedAt": "2021-08-02T05:01:31.326Z",
  "devdoc": {
    "events": {
      "AddedDefiInfo(bytes32,string,address,address,address,uint256,address)": {
        "details": "event on add the information related to defi.",
        "params": {
          "ex1": "the extra 1 addres",
          "ex2": "the extra 2 addres",
          "fee": "fee",
          "name": "the name of defi identify",
          "nameHash": "the name hash",
          "router": "the entry address",
          "routerV2": "the uniswap2 router address"
        }
      },
      "AddedStakeContract(address,address)": {
        "details": "event on add the stake contract in vault",
        "params": {
          "stakeContract": "the stake contract address created",
          "vault": "the vault address"
        }
      },
      "AddedVault(address,uint256)": {
        "details": "event on add the vault",
        "params": {
          "phase": "the phase of TOS platform",
          "vault": "the vault address"
        }
      },
      "SetTokamak(address,address,address,address,address)": {
        "details": "event on set the addresses related to tokamak",
        "params": {
          "depositManager": "the DepositManager address",
          "seigManager": "the SeigManager address",
          "swapProxy": "the SwapProxy address",
          "ton": "the TON address",
          "wton": "the WTON address"
        }
      }
    },
    "kind": "dev",
    "methods": {
      "addAdmin(address)": {
        "details": "add admin",
        "params": {
          "account": "address to add"
        }
      },
      "addDefiInfo(string,address,address,address,uint256,address)": {
        "details": "Add information related to Defi",
        "params": {
          "_ex1": "additional variable . ex) positionManagerAddress in Uniswap V3",
          "_ex2": "additional variable . ex) WETH Address in Uniswap V3",
          "_fee": "fee",
          "_name": "name . ex) UNISWAP_V3",
          "_router": "entry point of defi",
          "_routerV2": "In case of uniswap, router address of uniswapV2"
        }
      },
      "addStakeContract(address,address)": {
        "details": "Add StakeContract in vaultIt is excuted by proxy",
        "params": {
          "_stakeContract": "StakeContract address",
          "_vault": "vault address"
        }
      },
      "addVault(address,uint256,bytes32)": {
        "details": "Add VaultIt is excuted by proxy",
        "params": {
          "_phase": "phase ex) 1,2,3",
          "_vault": "vault address",
          "_vaultName": "hash of vault's name"
        }
      },
      "constructor": {
        "details": "constructor of StakeRegistry",
        "params": {
          "_tos": "TOS address"
        }
      },
      "getRoleAdmin(bytes32)": {
        "details": "Returns the admin role that controls `role`. See {grantRole} and {revokeRole}. To change a role's admin, use {_setRoleAdmin}."
      },
      "getRoleMember(bytes32,uint256)": {
        "details": "Returns one of the accounts that have `role`. `index` must be a value between 0 and {getRoleMemberCount}, non-inclusive. Role bearers are not sorted in any particular way, and their ordering may change at any point. WARNING: When using {getRoleMember} and {getRoleMemberCount}, make sure you perform all queries on the same block. See the following https://forum.openzeppelin.com/t/iterating-over-elements-on-enumerableset-in-openzeppelin-contracts/2296[forum post] for more information."
      },
      "getRoleMemberCount(bytes32)": {
        "details": "Returns the number of accounts that have `role`. Can be used together with {getRoleMember} to enumerate all bearers of a role."
      },
      "getTokamak()": {
        "details": "Get addresses for Tokamak interface",
        "returns": {
          "_0": "(ton, wton, depositManager, seigManager)"
        }
      },
      "getUniswap()": {
        "details": "Get indos for UNISWAP_V3 interface",
        "returns": {
          "_0": "(uniswapRouter, npm, wethAddress, fee)"
        }
      },
      "grantRole(bytes32,address)": {
        "details": "Grants `role` to `account`. If `account` had not been already granted `role`, emits a {RoleGranted} event. Requirements: - the caller must have ``role``'s admin role."
      },
      "hasRole(bytes32,address)": {
        "details": "Returns `true` if `account` has been granted `role`."
      },
      "isAdmin(address)": {
        "details": "whether admin",
        "params": {
          "account": "address to check"
        }
      },
      "phasesAll(uint256)": {
        "details": "Get addresses of vaults of index phase",
        "params": {
          "_index": "the phase number"
        },
        "returns": {
          "_0": "the list of vaults of phase[_index]"
        }
      },
      "removeAdmin(address)": {
        "details": "remove admin",
        "params": {
          "account": "address to remove"
        }
      },
      "renounceRole(bytes32,address)": {
        "details": "Revokes `role` from the calling account. Roles are often managed via {grantRole} and {revokeRole}: this function's purpose is to provide a mechanism for accounts to lose their privileges if they are compromised (such as when a trusted device is misplaced). If the calling account had been granted `role`, emits a {RoleRevoked} event. Requirements: - the caller must be `account`."
      },
      "revokeRole(bytes32,address)": {
        "details": "Revokes `role` from `account`. If `account` had been granted `role`, emits a {RoleRevoked} event. Requirements: - the caller must have ``role``'s admin role."
      },
      "setTokamak(address,address,address,address,address)": {
        "details": "Set addresses for Tokamak integration",
        "params": {
          "_depositManager": "DepositManager address",
          "_seigManager": "SeigManager address",
          "_ton": "TON address",
          "_wton": "WTON address"
        }
      },
      "stakeContractsOfVaultAll(address)": {
        "details": "Get addresses of staker of _vault",
        "params": {
          "_vault": "the vault's address"
        },
        "returns": {
          "_0": "the list of stakeContracts of vault"
        }
      },
      "transferAdmin(address)": {
        "details": "transfer admin",
        "params": {
          "newAdmin": "new admin address"
        }
      },
      "validVault(uint256,address)": {
        "details": "Checks if a vault is withing the given phase",
        "params": {
          "_phase": "the phase number",
          "_vault": "the vault's address"
        },
        "returns": {
          "valid": "true or false"
        }
      }
    },
    "stateVariables": {
      "depositManager": {
        "details": "Depositmanager address in Tokamak"
      },
      "seigManager": {
        "details": "SeigManager address in Tokamak"
      },
      "swapProxy": {
        "details": "swapProxy address in Tokamak"
      },
      "ton": {
        "details": "TON address in Tokamak"
      },
      "tos": {
        "details": "TOS address"
      },
      "wton": {
        "details": "WTON address in Tokamak"
      }
    },
    "title": "Stake Registry",
    "version": 1
  },
  "userdoc": {
    "kind": "user",
    "methods": {
      "defiInfo(bytes32)": {
        "notice": "Defi Info"
      },
      "phases(uint256,uint256)": {
        "notice": "Contracts included in the phase"
      },
      "stakeContractVault(address)": {
        "notice": "Vault address of staking contract"
      },
      "stakeContractsOfVault(address,uint256)": {
        "notice": "List of staking contracts included in the vault"
      },
      "vaultNames(address)": {
        "notice": "Vault name hash mapping with vault address"
      },
      "vaults(bytes32)": {
        "notice": "Vault address mapping with vault name hash"
      }
    },
    "notice": "Manage the vault list by phase. Manage the list of staking contracts in the vault.",
    "version": 1
  }
}