{
  "contractName": "StakeTON",
  "abi": [
    {
      "inputs": [],
      "stateMutability": "nonpayable",
      "type": "constructor"
    },
    {
      "anonymous": false,
      "inputs": [
        {
          "indexed": true,
          "internalType": "address",
          "name": "to",
          "type": "address"
        },
        {
          "indexed": false,
          "internalType": "uint256",
          "name": "amount",
          "type": "uint256"
        },
        {
          "indexed": false,
          "internalType": "uint256",
          "name": "claimBlock",
          "type": "uint256"
        }
      ],
      "name": "Claimed",
      "type": "event"
    },
    {
      "anonymous": false,
      "inputs": [
        {
          "indexed": true,
          "internalType": "bytes32",
          "name": "role",
          "type": "bytes32"
        },
        {
          "indexed": true,
          "internalType": "bytes32",
          "name": "previousAdminRole",
          "type": "bytes32"
        },
        {
          "indexed": true,
          "internalType": "bytes32",
          "name": "newAdminRole",
          "type": "bytes32"
        }
      ],
      "name": "RoleAdminChanged",
      "type": "event"
    },
    {
      "anonymous": false,
      "inputs": [
        {
          "indexed": true,
          "internalType": "bytes32",
          "name": "role",
          "type": "bytes32"
        },
        {
          "indexed": true,
          "internalType": "address",
          "name": "account",
          "type": "address"
        },
        {
          "indexed": true,
          "internalType": "address",
          "name": "sender",
          "type": "address"
        }
      ],
      "name": "RoleGranted",
      "type": "event"
    },
    {
      "anonymous": false,
      "inputs": [
        {
          "indexed": true,
          "internalType": "bytes32",
          "name": "role",
          "type": "bytes32"
        },
        {
          "indexed": true,
          "internalType": "address",
          "name": "account",
          "type": "address"
        },
        {
          "indexed": true,
          "internalType": "address",
          "name": "sender",
          "type": "address"
        }
      ],
      "name": "RoleRevoked",
      "type": "event"
    },
    {
      "anonymous": false,
      "inputs": [
        {
          "indexed": false,
          "internalType": "address",
          "name": "registry",
          "type": "address"
        }
      ],
      "name": "SetRegistry",
      "type": "event"
    },
    {
      "anonymous": false,
      "inputs": [
        {
          "indexed": false,
          "internalType": "address",
          "name": "layer2",
          "type": "address"
        }
      ],
      "name": "SetTokamakLayer2",
      "type": "event"
    },
    {
      "anonymous": false,
      "inputs": [
        {
          "indexed": true,
          "internalType": "address",
          "name": "to",
          "type": "address"
        },
        {
          "indexed": false,
          "internalType": "uint256",
          "name": "amount",
          "type": "uint256"
        }
      ],
      "name": "Staked",
      "type": "event"
    },
    {
      "anonymous": false,
      "inputs": [
        {
          "indexed": true,
          "internalType": "address",
          "name": "to",
          "type": "address"
        },
        {
          "indexed": false,
          "internalType": "uint256",
          "name": "tonAmount",
          "type": "uint256"
        },
        {
          "indexed": false,
          "internalType": "uint256",
          "name": "tosAmount",
          "type": "uint256"
        }
      ],
      "name": "Withdrawal",
      "type": "event"
    },
    {
      "anonymous": false,
      "inputs": [
        {
          "indexed": false,
          "internalType": "address",
          "name": "caller",
          "type": "address"
        },
        {
          "indexed": false,
          "internalType": "uint256",
          "name": "amountIn",
          "type": "uint256"
        },
        {
          "indexed": false,
          "internalType": "uint256",
          "name": "amountOut",
          "type": "uint256"
        }
      ],
      "name": "exchangedWTONtoTOS",
      "type": "event"
    },
    {
      "anonymous": false,
      "inputs": [
        {
          "indexed": false,
          "internalType": "address",
          "name": "caller",
          "type": "address"
        },
        {
          "indexed": false,
          "internalType": "uint256",
          "name": "amountIn",
          "type": "uint256"
        },
        {
          "indexed": false,
          "internalType": "uint256",
          "name": "amountOut",
          "type": "uint256"
        }
      ],
      "name": "exchangedWTONtoTOS2",
      "type": "event"
    },
    {
      "anonymous": false,
      "inputs": [
        {
          "indexed": false,
          "internalType": "address",
          "name": "layer2",
          "type": "address"
        },
        {
          "indexed": false,
          "internalType": "uint256",
          "name": "rn",
          "type": "uint256"
        },
        {
          "indexed": false,
          "internalType": "bool",
          "name": "receiveTON",
          "type": "bool"
        }
      ],
      "name": "tokamakProcessedUnStaking",
      "type": "event"
    },
    {
      "anonymous": false,
      "inputs": [
        {
          "indexed": false,
          "internalType": "address",
          "name": "layer2",
          "type": "address"
        },
        {
          "indexed": false,
          "internalType": "uint256",
          "name": "amount",
          "type": "uint256"
        }
      ],
      "name": "tokamakRequestedUnStaking",
      "type": "event"
    },
    {
      "anonymous": false,
      "inputs": [
        {
          "indexed": false,
          "internalType": "address",
          "name": "layer2",
          "type": "address"
        }
      ],
      "name": "tokamakRequestedUnStakingAll",
      "type": "event"
    },
    {
      "anonymous": false,
      "inputs": [
        {
          "indexed": false,
          "internalType": "address",
          "name": "layer2",
          "type": "address"
        },
        {
          "indexed": false,
          "internalType": "uint256",
          "name": "amount",
          "type": "uint256"
        }
      ],
      "name": "tokamakStaked",
      "type": "event"
    },
    {
      "inputs": [],
      "name": "ADMIN_ROLE",
      "outputs": [
        {
          "internalType": "bytes32",
          "name": "",
          "type": "bytes32"
        }
      ],
      "stateMutability": "view",
      "type": "function"
    },
    {
      "inputs": [],
      "name": "DEFAULT_ADMIN_ROLE",
      "outputs": [
        {
          "internalType": "bytes32",
          "name": "",
          "type": "bytes32"
        }
      ],
      "stateMutability": "view",
      "type": "function"
    },
    {
      "inputs": [],
      "name": "checkTokamak",
      "outputs": [],
      "stateMutability": "nonpayable",
      "type": "function"
    },
    {
      "inputs": [],
      "name": "defiStatus",
      "outputs": [
        {
          "internalType": "uint256",
          "name": "",
          "type": "uint256"
        }
      ],
      "stateMutability": "view",
      "type": "function"
    },
    {
      "inputs": [],
      "name": "depositManager",
      "outputs": [
        {
          "internalType": "address",
          "name": "",
          "type": "address"
        }
      ],
      "stateMutability": "view",
      "type": "function"
    },
    {
      "inputs": [],
      "name": "endBlock",
      "outputs": [
        {
          "internalType": "uint256",
          "name": "",
          "type": "uint256"
        }
      ],
      "stateMutability": "view",
      "type": "function"
    },
    {
      "inputs": [
        {
          "internalType": "uint256",
          "name": "_amountIn",
          "type": "uint256"
        },
        {
          "internalType": "uint256",
          "name": "_amountOutMinimum",
          "type": "uint256"
        },
        {
          "internalType": "uint256",
          "name": "_deadline",
          "type": "uint256"
        },
        {
          "internalType": "uint160",
          "name": "_sqrtPriceLimitX96",
          "type": "uint160"
        },
        {
          "internalType": "uint256",
          "name": "_kind",
          "type": "uint256"
        }
      ],
      "name": "exchangeWTONtoTOS",
      "outputs": [
        {
          "internalType": "uint256",
          "name": "amountOut",
          "type": "uint256"
        }
      ],
      "stateMutability": "nonpayable",
      "type": "function"
    },
    {
      "inputs": [
        {
          "internalType": "uint256",
          "name": "_amountIn",
          "type": "uint256"
        },
        {
          "internalType": "uint256",
          "name": "_amountOutMinimum",
          "type": "uint256"
        },
        {
          "internalType": "uint256",
          "name": "_deadline",
          "type": "uint256"
        },
        {
          "internalType": "uint256",
          "name": "_kind",
          "type": "uint256"
        }
      ],
      "name": "exchangeWTONtoTOSv2",
      "outputs": [
        {
          "internalType": "uint256",
          "name": "amountOut",
          "type": "uint256"
        }
      ],
      "stateMutability": "nonpayable",
      "type": "function"
    },
    {
      "inputs": [],
      "name": "finalBalanceTON",
      "outputs": [
        {
          "internalType": "uint256",
          "name": "",
          "type": "uint256"
        }
      ],
      "stateMutability": "view",
      "type": "function"
    },
    {
      "inputs": [],
      "name": "finalBalanceWTON",
      "outputs": [
        {
          "internalType": "uint256",
          "name": "",
          "type": "uint256"
        }
      ],
      "stateMutability": "view",
      "type": "function"
    },
    {
      "inputs": [],
      "name": "fromTokamak",
      "outputs": [
        {
          "internalType": "uint256",
          "name": "",
          "type": "uint256"
        }
      ],
      "stateMutability": "view",
      "type": "function"
    },
    {
      "inputs": [
        {
          "internalType": "bytes32",
          "name": "role",
          "type": "bytes32"
        }
      ],
      "name": "getRoleAdmin",
      "outputs": [
        {
          "internalType": "bytes32",
          "name": "",
          "type": "bytes32"
        }
      ],
      "stateMutability": "view",
      "type": "function"
    },
    {
      "inputs": [
        {
          "internalType": "bytes32",
          "name": "role",
          "type": "bytes32"
        },
        {
          "internalType": "uint256",
          "name": "index",
          "type": "uint256"
        }
      ],
      "name": "getRoleMember",
      "outputs": [
        {
          "internalType": "address",
          "name": "",
          "type": "address"
        }
      ],
      "stateMutability": "view",
      "type": "function"
    },
    {
      "inputs": [
        {
          "internalType": "bytes32",
          "name": "role",
          "type": "bytes32"
        }
      ],
      "name": "getRoleMemberCount",
      "outputs": [
        {
          "internalType": "uint256",
          "name": "",
          "type": "uint256"
        }
      ],
      "stateMutability": "view",
      "type": "function"
    },
    {
      "inputs": [],
      "name": "getUniswapInfo",
      "outputs": [
        {
          "internalType": "address",
          "name": "uniswapRouter",
          "type": "address"
        },
        {
          "internalType": "address",
          "name": "npm",
          "type": "address"
        },
        {
          "internalType": "address",
          "name": "ext",
          "type": "address"
        },
        {
          "internalType": "uint256",
          "name": "fee",
          "type": "uint256"
        },
        {
          "internalType": "address",
          "name": "uniswapRouterV2",
          "type": "address"
        }
      ],
      "stateMutability": "view",
      "type": "function"
    },
    {
      "inputs": [
        {
          "internalType": "address",
          "name": "user",
          "type": "address"
        }
      ],
      "name": "getUserStaked",
      "outputs": [
        {
          "internalType": "uint256",
          "name": "amount",
          "type": "uint256"
        },
        {
          "internalType": "uint256",
          "name": "claimedBlock",
          "type": "uint256"
        },
        {
          "internalType": "uint256",
          "name": "claimedAmount",
          "type": "uint256"
        },
        {
          "internalType": "uint256",
          "name": "releasedBlock",
          "type": "uint256"
        },
        {
          "internalType": "uint256",
          "name": "releasedAmount",
          "type": "uint256"
        },
        {
          "internalType": "uint256",
          "name": "releasedTOSAmount",
          "type": "uint256"
        },
        {
          "internalType": "bool",
          "name": "released",
          "type": "bool"
        }
      ],
      "stateMutability": "view",
      "type": "function"
    },
    {
      "inputs": [
        {
          "internalType": "bytes32",
          "name": "role",
          "type": "bytes32"
        },
        {
          "internalType": "address",
          "name": "account",
          "type": "address"
        }
      ],
      "name": "grantRole",
      "outputs": [],
      "stateMutability": "nonpayable",
      "type": "function"
    },
    {
      "inputs": [
        {
          "internalType": "bytes32",
          "name": "role",
          "type": "bytes32"
        },
        {
          "internalType": "address",
          "name": "account",
          "type": "address"
        }
      ],
      "name": "hasRole",
      "outputs": [
        {
          "internalType": "bool",
          "name": "",
          "type": "bool"
        }
      ],
      "stateMutability": "view",
      "type": "function"
    },
    {
      "inputs": [],
      "name": "paytoken",
      "outputs": [
        {
          "internalType": "address",
          "name": "",
          "type": "address"
        }
      ],
      "stateMutability": "view",
      "type": "function"
    },
    {
      "inputs": [
        {
          "internalType": "bytes32",
          "name": "role",
          "type": "bytes32"
        },
        {
          "internalType": "address",
          "name": "account",
          "type": "address"
        }
      ],
      "name": "renounceRole",
      "outputs": [],
      "stateMutability": "nonpayable",
      "type": "function"
    },
    {
      "inputs": [],
      "name": "requestNum",
      "outputs": [
        {
          "internalType": "uint256",
          "name": "",
          "type": "uint256"
        }
      ],
      "stateMutability": "view",
      "type": "function"
    },
    {
      "inputs": [
        {
          "internalType": "bytes32",
          "name": "role",
          "type": "bytes32"
        },
        {
          "internalType": "address",
          "name": "account",
          "type": "address"
        }
      ],
      "name": "revokeRole",
      "outputs": [],
      "stateMutability": "nonpayable",
      "type": "function"
    },
    {
      "inputs": [],
      "name": "rewardClaimedTotal",
      "outputs": [
        {
          "internalType": "uint256",
          "name": "",
          "type": "uint256"
        }
      ],
      "stateMutability": "view",
      "type": "function"
    },
    {
      "inputs": [],
      "name": "saleStartBlock",
      "outputs": [
        {
          "internalType": "uint256",
          "name": "",
          "type": "uint256"
        }
      ],
      "stateMutability": "view",
      "type": "function"
    },
    {
      "inputs": [],
      "name": "seigManager",
      "outputs": [
        {
          "internalType": "address",
          "name": "",
          "type": "address"
        }
      ],
      "stateMutability": "view",
      "type": "function"
    },
    {
      "inputs": [
        {
          "internalType": "address",
          "name": "_registry",
          "type": "address"
        }
      ],
      "name": "setRegistry",
      "outputs": [],
      "stateMutability": "nonpayable",
      "type": "function"
    },
    {
      "inputs": [
        {
          "internalType": "address",
          "name": "_layer2",
          "type": "address"
        }
      ],
      "name": "setTokamakLayer2",
      "outputs": [],
      "stateMutability": "nonpayable",
      "type": "function"
    },
    {
      "inputs": [],
      "name": "stakeRegistry",
      "outputs": [
        {
          "internalType": "address",
          "name": "",
          "type": "address"
        }
      ],
      "stateMutability": "view",
      "type": "function"
    },
    {
      "inputs": [],
      "name": "startBlock",
      "outputs": [
        {
          "internalType": "uint256",
          "name": "",
          "type": "uint256"
        }
      ],
      "stateMutability": "view",
      "type": "function"
    },
    {
      "inputs": [],
      "name": "swapProxy",
      "outputs": [
        {
          "internalType": "address",
          "name": "",
          "type": "address"
        }
      ],
      "stateMutability": "view",
      "type": "function"
    },
    {
      "inputs": [
        {
          "internalType": "uint256",
          "name": "amount",
          "type": "uint256"
        },
        {
          "internalType": "bool",
          "name": "toWTON",
          "type": "bool"
        }
      ],
      "name": "swapTONtoWTON",
      "outputs": [],
      "stateMutability": "nonpayable",
      "type": "function"
    },
    {
      "inputs": [],
      "name": "swappedAmountTOS",
      "outputs": [
        {
          "internalType": "uint256",
          "name": "",
          "type": "uint256"
        }
      ],
      "stateMutability": "view",
      "type": "function"
    },
    {
      "inputs": [],
      "name": "toTokamak",
      "outputs": [
        {
          "internalType": "uint256",
          "name": "",
          "type": "uint256"
        }
      ],
      "stateMutability": "view",
      "type": "function"
    },
    {
      "inputs": [],
      "name": "toUniswapWTON",
      "outputs": [
        {
          "internalType": "uint256",
          "name": "",
          "type": "uint256"
        }
      ],
      "stateMutability": "view",
      "type": "function"
    },
    {
      "inputs": [],
      "name": "tokamakLayer2",
      "outputs": [
        {
          "internalType": "address",
          "name": "",
          "type": "address"
        }
      ],
      "stateMutability": "view",
      "type": "function"
    },
    {
      "inputs": [
        {
          "internalType": "address",
          "name": "_layer2",
          "type": "address"
        }
      ],
      "name": "tokamakProcessUnStaking",
      "outputs": [],
      "stateMutability": "nonpayable",
      "type": "function"
    },
    {
      "inputs": [
        {
          "internalType": "address",
          "name": "_layer2",
          "type": "address"
        },
        {
          "internalType": "uint256",
          "name": "wtonAmount",
          "type": "uint256"
        }
      ],
      "name": "tokamakRequestUnStaking",
      "outputs": [],
      "stateMutability": "nonpayable",
      "type": "function"
    },
    {
      "inputs": [
        {
          "internalType": "address",
          "name": "_layer2",
          "type": "address"
        }
      ],
      "name": "tokamakRequestUnStakingAll",
      "outputs": [],
      "stateMutability": "nonpayable",
      "type": "function"
    },
    {
      "inputs": [
        {
          "internalType": "address",
          "name": "_layer2",
          "type": "address"
        },
        {
          "internalType": "uint256",
          "name": "stakeAmount",
          "type": "uint256"
        }
      ],
      "name": "tokamakStaking",
      "outputs": [],
      "stateMutability": "nonpayable",
      "type": "function"
    },
    {
      "inputs": [],
      "name": "token",
      "outputs": [
        {
          "internalType": "address",
          "name": "",
          "type": "address"
        }
      ],
      "stateMutability": "view",
      "type": "function"
    },
    {
      "inputs": [],
      "name": "ton",
      "outputs": [
        {
          "internalType": "address",
          "name": "",
          "type": "address"
        }
      ],
      "stateMutability": "view",
      "type": "function"
    },
    {
      "inputs": [],
      "name": "totalStakedAmount",
      "outputs": [
        {
          "internalType": "uint256",
          "name": "",
          "type": "uint256"
        }
      ],
      "stateMutability": "view",
      "type": "function"
    },
    {
      "inputs": [],
      "name": "totalStakers",
      "outputs": [
        {
          "internalType": "uint256",
          "name": "",
          "type": "uint256"
        }
      ],
      "stateMutability": "view",
      "type": "function"
    },
    {
      "inputs": [
        {
          "internalType": "address",
          "name": "newOwner",
          "type": "address"
        }
      ],
      "name": "transferOwnership",
      "outputs": [],
      "stateMutability": "nonpayable",
      "type": "function"
    },
    {
      "inputs": [
        {
          "internalType": "address",
          "name": "",
          "type": "address"
        }
      ],
      "name": "userStaked",
      "outputs": [
        {
          "internalType": "uint256",
          "name": "amount",
          "type": "uint256"
        },
        {
          "internalType": "uint256",
          "name": "claimedBlock",
          "type": "uint256"
        },
        {
          "internalType": "uint256",
          "name": "claimedAmount",
          "type": "uint256"
        },
        {
          "internalType": "uint256",
          "name": "releasedBlock",
          "type": "uint256"
        },
        {
          "internalType": "uint256",
          "name": "releasedAmount",
          "type": "uint256"
        },
        {
          "internalType": "uint256",
          "name": "releasedTOSAmount",
          "type": "uint256"
        },
        {
          "internalType": "bool",
          "name": "released",
          "type": "bool"
        }
      ],
      "stateMutability": "view",
      "type": "function"
    },
    {
      "inputs": [],
      "name": "vault",
      "outputs": [
        {
          "internalType": "address",
          "name": "",
          "type": "address"
        }
      ],
      "stateMutability": "view",
      "type": "function"
    },
    {
      "inputs": [],
      "name": "withdrawFlag",
      "outputs": [
        {
          "internalType": "bool",
          "name": "",
          "type": "bool"
        }
      ],
      "stateMutability": "view",
      "type": "function"
    },
    {
      "inputs": [],
      "name": "wton",
      "outputs": [
        {
          "internalType": "address",
          "name": "",
          "type": "address"
        }
      ],
      "stateMutability": "view",
      "type": "function"
    },
    {
      "stateMutability": "payable",
      "type": "receive"
    },
    {
      "inputs": [],
      "name": "withdraw",
      "outputs": [],
      "stateMutability": "nonpayable",
      "type": "function"
    },
    {
      "inputs": [],
      "name": "claim",
      "outputs": [],
      "stateMutability": "nonpayable",
      "type": "function"
    },
    {
      "inputs": [
        {
          "internalType": "address",
          "name": "account",
          "type": "address"
        },
        {
          "internalType": "uint256",
          "name": "specificBlock",
          "type": "uint256"
        }
      ],
      "name": "canRewardAmount",
      "outputs": [
        {
          "internalType": "uint256",
          "name": "",
          "type": "uint256"
        }
      ],
      "stateMutability": "view",
      "type": "function"
    }
  ],
  "bytecode": "0x60806040523480156200001157600080fd5b506200002d60008051602062005b93833981519152806200004e565b6200004860008051602062005b9383398151915233620000a0565b620001b6565b6000828152601b6020526040808220600201549051839285917fbd79b86ffe0ab8e8776151514217cd7cacd52c909f66475c3af44e129f0b00ff9190a46000918252601b602052604090912060020155565b620000ac8282620000b0565b5050565b6000828152601b60209081526040909120620000d791839062003f136200012b821b17901c565b15620000ac57620000e76200014b565b6001600160a01b0316816001600160a01b0316837f2f8788117e7eff1d82e926ec794901d17c78024a50270940304540a733656f0d60405160405180910390a45050565b600062000142836001600160a01b0384166200014f565b90505b92915050565b3390565b60006200015d83836200019e565b620001955750815460018181018455600084815260208082209093018490558454848252828601909352604090209190915562000145565b50600062000145565b60009081526001919091016020526040902054151590565b6159cd80620001c66000396000f3fe6080604052600436106102b85760003560e01c806375b238fc11610170578063cc48b947116100cc578063e6a7bc8711610085578063e6a7bc871461076b578063f0cdfa5314610780578063f2fde38b146107a0578063fbfa77cf146107c0578063fc0c546a146107d5578063fd7fa460146107ea578063ff758788146107ff576102bf565b8063cc48b947146106cc578063ce681ce6146106e1578063d547741f14610701578063dac3fc3f14610721578063e09974b914610741578063e58e274714610756576102bf565b806392ea3b4c1161012957806392ea3b4c146105fa578063a217fddf1461060f578063a6e8670e14610624578063a91ee0dc14610644578063acc3a93914610664578063b2d4d6a314610697578063ca15c873146106ac576102bf565b806375b238fc1461055b5780637df3f40c1461057057806386989038146105905780638d62d949146105a55780639010d07c146105ba57806391d14854146105da576102bf565b806348cd4cb11161021f5780636c7ac9d8116101d85780636c7ac9d8146104a55780636e7cf534146104ba5780636ec4be90146104dc5780636fb7f558146104f157806371def0b3146105065780637228532614610526578063730464a91461053b576102bf565b806348cd4cb1146104115780634e71d92d14610426578063567e98f91461043b57806356dcfd381461045057806367cf3e18146104705780636830483514610490576102bf565b8063248a9ca311610271578063248a9ca3146103655780632995fa0e146103855780632f2ff15d1461039a57806336568abe146103ba5780633ccfd60b146103da57806343b0934a146103ef576102bf565b806305871b78146102c4578063065c4313146102ef578063083c6323146103115780630ac8e0f3146103265780630ea3d9c91461033b5780632002727514610350576102bf565b366102bf57005b600080fd5b3480156102d057600080fd5b506102d9610825565b6040516102e69190614c5d565b60405180910390f35b3480156102fb57600080fd5b5061030f61030a3660046148b5565b61082b565b005b34801561031d57600080fd5b506102d9610dc3565b34801561033257600080fd5b506102d9610dc9565b34801561034757600080fd5b506102d9610dcf565b34801561035c57600080fd5b506102d9610dd5565b34801561037157600080fd5b506102d96103803660046149aa565b610ddb565b34801561039157600080fd5b5061030f610df0565b3480156103a657600080fd5b5061030f6103b53660046149c2565b610f75565b3480156103c657600080fd5b5061030f6103d53660046149c2565b610fdc565b3480156103e657600080fd5b5061030f61103d565b3480156103fb57600080fd5b506104046117bc565b6040516102e69190614b67565b34801561041d57600080fd5b506102d96117cb565b34801561043257600080fd5b5061030f6117d1565b34801561044757600080fd5b506102d9611aaf565b34801561045c57600080fd5b506102d961046b366004614a96565b611ab5565b34801561047c57600080fd5b506102d961048b3660046148b5565b6123d1565b34801561049c57600080fd5b50610404612729565b3480156104b157600080fd5b50610404612738565b3480156104c657600080fd5b506104cf612747565b6040516102e69190614c52565b3480156104e857600080fd5b50610404612750565b3480156104fd57600080fd5b5061040461275f565b34801561051257600080fd5b5061030f6105213660046147c9565b61276e565b34801561053257600080fd5b506102d9612974565b34801561054757600080fd5b5061030f6105563660046147c9565b61297a565b34801561056757600080fd5b506102d9612ccc565b34801561057c57600080fd5b5061030f61058b366004614a2a565b612cde565b34801561059c57600080fd5b506102d9612ffb565b3480156105b157600080fd5b50610404613001565b3480156105c657600080fd5b506104046105d53660046149f1565b613010565b3480156105e657600080fd5b506104cf6105f53660046149c2565b613028565b34801561060657600080fd5b50610404613040565b34801561061b57600080fd5b506102d961304f565b34801561063057600080fd5b5061030f61063f3660046147c9565b613054565b34801561065057600080fd5b5061030f61065f3660046147c9565b613120565b34801561067057600080fd5b5061068461067f3660046147c9565b6131d8565b6040516102e69796959493929190615851565b3480156106a357600080fd5b506102d9613218565b3480156106b857600080fd5b506102d96106c73660046149aa565b61321e565b3480156106d857600080fd5b50610404613235565b3480156106ed57600080fd5b5061030f6106fc3660046148b5565b613244565b34801561070d57600080fd5b5061030f61071c3660046149c2565b6134f5565b34801561072d57600080fd5b5061068461073c3660046147c9565b61354e565b34801561074d57600080fd5b506102d9613597565b34801561076257600080fd5b506102d961359d565b34801561077757600080fd5b506102d96135a3565b34801561078c57600080fd5b506102d961079b366004614a4e565b6135a9565b3480156107ac57600080fd5b5061030f6107bb3660046147c9565b613dc0565b3480156107cc57600080fd5b50610404613e50565b3480156107e157600080fd5b50610404613e5f565b3480156107f657600080fd5b506102d9613e6e565b34801561080b57600080fd5b50610814613e74565b6040516102e6959493929190614bcf565b60145481565b600b54156108545760405162461bcd60e51b815260040161084b90615078565b60405180910390fd5b6001600b819055546001600160a01b0316806108825760405162461bcd60e51b815260040161084b90614c66565b826001600160a01b0381166108a95760405162461bcd60e51b815260040161084b90614c66565b6006544311156108cb5760405162461bcd60e51b815260040161084b90614e42565b600083116108eb5760405162461bcd60e51b815260040161084b906154d9565b600360009054906101000a90046001600160a01b03166001600160a01b031663b8c766b86040518163ffffffff1660e01b815260040160206040518083038186803b15801561093957600080fd5b505afa15801561094d573d6000803e3d6000fd5b505050506040513d601f19601f82011682018060405250810190610971919061498e565b15156001146109925760405162461bcd60e51b815260040161084b906150a6565b600260185561099f610df0565b600f5460408051633761ead760e11b815290516000926001600160a01b031691636ec3d5ae916004808301926020929190829003018186803b1580156109e457600080fd5b505afa1580156109f8573d6000803e3d6000fd5b505050506040513d601f19601f82011682018060405250810190610a1c9190614a12565b905080600654034310610a415760405162461bcd60e51b815260040161084b90614eab565b6011546001600160a01b0316610a7157601180546001600160a01b0319166001600160a01b038716179055610bf6565b600e546011546040516367265c3b60e11b81526000926001600160a01b039081169263ce4cb87692610aab92909116903090600401614bb5565b60206040518083038186803b158015610ac357600080fd5b505afa158015610ad7573d6000803e3d6000fd5b505050506040513d601f19601f82011682018060405250810190610afb9190614a12565b1180610b8e5750600f54601154604051632638fdf560e01b81526000926001600160a01b0390811692632638fdf592610b3c92909116903090600401614bb5565b60206040518083038186803b158015610b5457600080fd5b505afa158015610b68573d6000803e3d6000fd5b505050506040513d601f19601f82011682018060405250810190610b8c9190614a12565b115b15610bc5576011546001600160a01b03868116911614610bc05760405162461bcd60e51b815260040161084b906152ae565b610bf6565b6011546001600160a01b03868116911614610bf657601180546001600160a01b0319166001600160a01b0387161790555b600c546040516370a0823160e01b815285916001600160a01b0316906370a0823190610c26903090600401614b67565b60206040518083038186803b158015610c3e57600080fd5b505afa158015610c52573d6000803e3d6000fd5b505050506040513d601f19601f82011682018060405250810190610c769190614a12565b1015610c945760405162461bcd60e51b815260040161084b906155af565b601254610ca19085613f28565b601255600f54604051600091610cc7916001600160a01b03909116908890602001614bb5565b60408051601f1981840301815290829052600c54600d5463cae9ca5160e01b84529193506001600160a01b039081169263cae9ca5192610d0f92169089908690600401614c22565b602060405180830381600087803b158015610d2957600080fd5b505af1158015610d3d573d6000803e3d6000fd5b505050506040513d601f19601f82011682018060405250810190610d61919061498e565b610d7d5760405162461bcd60e51b815260040161084b90615151565b7fd706f7b85b6f270583513d8371d6264d347f648849b8c09e1630b2cc536dba5d8686604051610dae929190614b7b565b60405180910390a150506000600b5550505050565b60065481565b60135481565b60155481565b60045481565b6000908152601b602052604090206002015490565b600c546001600160a01b0316610ef1576000806000806000600160009054906101000a90046001600160a01b03166001600160a01b031663a782ebd56040518163ffffffff1660e01b815260040160a06040518083038186803b158015610e5657600080fd5b505afa158015610e6a573d6000803e3d6000fd5b505050506040513d601f19601f82011682018060405250810190610e8e91906147e5565b600c80546001600160a01b03199081166001600160a01b0397881617909155600d8054821695871695909517909455600f8054851693861693909317909255600e8054841691851691909117905560108054909216921691909117905550505050505b600c546001600160a01b031615801590610f155750600d546001600160a01b031615155b8015610f2b5750600e546001600160a01b031615155b8015610f415750600f546001600160a01b031615155b8015610f5757506010546001600160a01b031615155b610f735760405162461bcd60e51b815260040161084b906154a2565b565b6000828152601b6020526040902060020154610f93906105f5613f82565b610fce5760405162461bcd60e51b815260040180806020018281038252602f8152602001806158c9602f913960400191505060405180910390fd5b610fd88282613f86565b5050565b610fe4613f82565b6001600160a01b0316816001600160a01b0316146110335760405162461bcd60e51b815260040180806020018281038252602f815260200180615969602f913960400191505060405180910390fd5b610fd88282613fef565b6000600654118015611050575043600654105b61106c5760405162461bcd60e51b815260040161084b90615584565b600080600080600160009054906101000a90046001600160a01b03166001600160a01b031663a782ebd56040518163ffffffff1660e01b815260040160a06040518083038186803b1580156110c057600080fd5b505afa1580156110d4573d6000803e3d6000fd5b505050506040513d601f19601f820116820180604052508101906110f891906147e5565b50929650909450925090506001600160a01b0384161580159061112357506001600160a01b03831615155b801561113757506001600160a01b03821615155b801561114b57506001600160a01b03811615155b6111675760405162461bcd60e51b815260040161084b90614ef4565b6011546001600160a01b0316156112a6576011546040516367265c3b60e11b81526001600160a01b038381169263ce4cb876926111ac92909116903090600401614bb5565b60206040518083038186803b1580156111c457600080fd5b505afa1580156111d8573d6000803e3d6000fd5b505050506040513d601f19601f820116820180604052508101906111fc9190614a12565b15801561128a5750601154604051632638fdf560e01b81526001600160a01b0384811692632638fdf59261123892909116903090600401614bb5565b60206040518083038186803b15801561125057600080fd5b505afa158015611264573d6000803e3d6000fd5b505050506040513d601f19601f820116820180604052508101906112889190614a12565b155b6112a65760405162461bcd60e51b815260040161084b906150d8565b336000908152600960205260409020600681015460ff16156112da5760405162461bcd60e51b815260040161084b90614cd4565b601a5460ff166114c957601a805460ff191660011790556002546001600160a01b0390811690861614156114c9576000546040516370a0823160e01b81526001600160a01b03909116906370a0823190611338903090600401614b67565b60206040518083038186803b15801561135057600080fd5b505afa158015611364573d6000803e3d6000fd5b505050506040513d601f19601f820116820180604052508101906113889190614a12565b6015556040516370a0823160e01b81526001600160a01b038516906370a08231906113b7903090600401614b67565b60206040518083038186803b1580156113cf57600080fd5b505afa1580156113e3573d6000803e3d6000fd5b505050506040513d601f19601f820116820180604052508101906114079190614a12565b6017556040516370a0823160e01b81526001600160a01b038616906370a0823190611436903090600401614b67565b60206040518083038186803b15801561144e57600080fd5b505afa158015611462573d6000803e3d6000fd5b505050506040513d601f19601f820116820180604052508101906114869190614a12565b601681905560085460175490916114ab916114a590633b9aca00614058565b90613f28565b10156114c95760405162461bcd60e51b815260040161084b9061511a565b8054806114e85760405162461bcd60e51b815260040161084b90615369565b43600383015560068201805460ff191660011790556002546001600160a01b0390811690871614156115d95760008060008060165411156115475761154460085461153e8660165461409a90919063ffffffff16565b90614058565b92505b6017541561156d5761156a60085461153e8660175461409a90919063ffffffff16565b91505b601554156115935761159060085461153e8660155461409a90919063ffffffff16565b90505b6005850181905581156115bc576115b2836114a584633b9aca00614058565b60048601556115c4565b600485018390555b6115d189898585856140f3565b505050611772565b6002546001600160a01b03166116a75781546004830154111561160e5760405162461bcd60e51b815260040161084b90615369565b6004820181905530803182111561162457600080fd5b6000336001600160a01b03168360405161163d90614b64565b60006040518083038185875af1925050503d806000811461167a576040519150601f19603f3d011682016040523d82523d6000602084013e61167f565b606091505b50509050806116a05760405162461bcd60e51b815260040161084b90615210565b5050611772565b8154600483015411156116cc5760405162461bcd60e51b815260040161084b90615369565b600480830182905560025460405163a9059cbb60e01b81526001600160a01b039091169163a9059cbb91611704913391869101614b7b565b602060405180830381600087803b15801561171e57600080fd5b505af1158015611732573d6000803e3d6000fd5b505050506040513d601f19601f82011682018060405250810190611756919061498e565b6117725760405162461bcd60e51b815260040161084b90614e11565b6004820154600583015460405133927fdf273cb619d95419a9cd0ec88123a0538c85064229baa6363788f743fff90deb926117ac926157d3565b60405180910390a2505050505050565b6002546001600160a01b031681565b60055481565b600b54156117f15760405162461bcd60e51b815260040161084b90615078565b6001600b5560035460408051631718ecd760e31b815290516001600160a01b039092169163b8c766b891600480820192602092909190829003018186803b15801561183b57600080fd5b505afa15801561184f573d6000803e3d6000fd5b505050506040513d601f19601f82011682018060405250810190611873919061498e565b15156001146118945760405162461bcd60e51b815260040161084b90614f2b565b3360009081526009602052604081206006546001820154106118c85760405162461bcd60e51b815260040161084b906151e5565b6118d233436123d1565b9150600082116118f45760405162461bcd60e51b815260040161084b90614d3d565b60035460405163032f7adb60e61b81526000916001600160a01b03169063cbdeb6c090611925903090600401614b67565b60206040518083038186803b15801561193d57600080fd5b505afa158015611951573d6000803e3d6000fd5b505050506040513d601f19601f820116820180604052508101906119759190614a12565b90508061198d84600754613f2890919063ffffffff16565b11156119ab5760405162461bcd60e51b815260040161084b906156db565b43600183015560028201546119c09084613f28565b60028301556007546119d29084613f28565b600755600354604051635569f64b60e11b81526001600160a01b039091169063aad3ec9690611a079033908790600401614b7b565b602060405180830381600087803b158015611a2157600080fd5b505af1158015611a35573d6000803e3d6000fd5b505050506040513d601f19601f82011682018060405250810190611a59919061498e565b611a6257600080fd5b336001600160a01b03167f987d620f307ff6b94d58743cb7a7509f24071586a77759b77c2d4e29f75a2f9a8443604051611a9d9291906157d3565b60405180910390a250506000600b5550565b60085481565b6000600b54600014611ad95760405162461bcd60e51b815260040161084b90615078565b6001600b55600654431115611b005760405162461bcd60e51b815260040161084b90614e42565b600360009054906101000a90046001600160a01b03166001600160a01b031663b8c766b86040518163ffffffff1660e01b815260040160206040518083038186803b158015611b4e57600080fd5b505afa158015611b62573d6000803e3d6000fd5b505050506040513d601f19601f82011682018060405250810190611b86919061498e565b1515600114611ba75760405162461bcd60e51b815260040161084b906150a6565b60028210611bc75760405162461bcd60e51b815260040161084b906153de565b611bcf610df0565b600d546040516370a0823160e01b81526000916001600160a01b0316906370a0823190611c00903090600401614b67565b60206040518083038186803b158015611c1857600080fd5b505afa158015611c2c573d6000803e3d6000fd5b505050506040513d601f19601f82011682018060405250810190611c509190614a12565b600c546040516370a0823160e01b81529192506000916001600160a01b03909116906370a0823190611c86903090600401614b67565b60206040518083038186803b158015611c9e57600080fd5b505afa158015611cb2573d6000803e3d6000fd5b505050506040513d601f19601f82011682018060405250810190611cd69190614a12565b6011549091506000906001600160a01b031615611e0a57600e546011546040516367265c3b60e11b81526001600160a01b039283169263ce4cb87692611d23929116903090600401614bb5565b60206040518083038186803b158015611d3b57600080fd5b505afa158015611d4f573d6000803e3d6000fd5b505050506040513d601f19601f82011682018060405250810190611d739190614a12565b600f54601154604051632638fdf560e01b8152929350611e07926001600160a01b0392831692632638fdf592611db0929116903090600401614bb5565b60206040518083038186803b158015611dc857600080fd5b505afa158015611ddc573d6000803e3d6000fd5b505050506040513d601f19601f82011682018060405250810190611e009190614a12565b8290613f28565b90505b828215611e2557611e22611e0084633b9aca0061409a565b90505b88811015611e455760405162461bcd60e51b815260040161084b906152e5565b8115611e5857611e558183613f28565b90505b600854611e6990633b9aca0061409a565b81118015611e99575088611e96611e8f633b9aca0060085461409a90919063ffffffff16565b83906144ba565b10155b611eb55760405162461bcd60e51b815260040161084b90615247565b88841015611fb157601054604051600091611ee0916001600160a01b03909116908190602001614bb5565b60408051601f1981840301815291905290506000611f06633b9aca0061153e8d896144ba565b600c54600d5460405163cae9ca5160e01b81529293506001600160a01b039182169263cae9ca5192611f4092169085908790600401614c22565b602060405180830381600087803b158015611f5a57600080fd5b505af1158015611f6e573d6000803e3d6000fd5b505050506040513d601f19601f82011682018060405250810190611f92919061498e565b611fae5760405162461bcd60e51b815260040161084b90615192565b50505b50506014805488019055505060015460408051630141158f60e61b8152905160009283926001600160a01b039091169163504563c09160048082019260a092909190829003018186803b15801561200757600080fd5b505afa15801561201b573d6000803e3d6000fd5b505050506040513d601f19601f8201168201806040525081019061203f9190614859565b9195509093505050506001600160a01b03811661206e5760405162461bcd60e51b815260040161084b906153ff565b600d5460405163095ea7b360e01b81526001600160a01b039091169063095ea7b3906120a09084908b90600401614b7b565b602060405180830381600087803b1580156120ba57600080fd5b505af11580156120ce573d6000803e3d6000fd5b505050506040513d601f19601f820116820180604052508101906120f2919061498e565b61210e5760405162461bcd60e51b815260040161084b90615692565b83612237576040805160028082526060820183526000926020830190803683375050600d5482519293506001600160a01b03169183915060009061214e57fe5b6001600160a01b03928316602091820292909201015260005482519116908290600190811061217957fe5b6001600160a01b0392831660209182029290920101526040516338ed173960e01b81526000918416906338ed1739906121be908c908c90879030908e906004016157e1565b600060405180830381600087803b1580156121d857600080fd5b505af11580156121ec573d6000803e3d6000fd5b505050506040513d6000823e601f3d908101601f1916820160405261221491908101906148e0565b90508060018251038151811061222657fe5b602002602001015194505050612387565b60408051600380825260808201909252600091602082016060803683375050600d5482519293506001600160a01b03169183915060009061227457fe5b60200260200101906001600160a01b031690816001600160a01b03168152505082816001815181106122a257fe5b6001600160a01b0392831660209182029290920101526000548251911690829060029081106122cd57fe5b6001600160a01b0392831660209182029290920101526040516338ed173960e01b81526000918416906338ed173990612312908c908c90879030908e906004016157e1565b600060405180830381600087803b15801561232c57600080fd5b505af1158015612340573d6000803e3d6000fd5b505050506040513d6000823e601f3d908101601f1916820160405261236891908101906148e0565b90508060018251038151811061237a57fe5b6020026020010151945050505b7f2c221d2e5337ddafd1fda6f2efa725f96a27ee1d9621f932ce46a1990791950f3388856040516123ba93929190614b94565b60405180910390a150506000600b55949350505050565b60065460009081908311156123e65760065492505b60055483108061240c57506001600160a01b038416600090815260096020526040902054155b8061243357506006546001600160a01b038516600090815260096020526040902060010154115b8061245857506001600160a01b03841660009081526009602052604090206001015483105b1561246557506000612720565b6005546006546001600160a01b0386166000908152600960205260409020600101548210156124ad576001600160a01b03861660009081526009602052604090206001015491505b808510156124b85750835b6003546040805163c1b422fd60e01b815290516000926001600160a01b03169163c1b422fd9160048083019286929190829003018186803b1580156124fc57600080fd5b505afa158015612510573d6000803e3d6000fd5b505050506040513d6000823e601f3d908101601f1916820160405261253891908101906148e0565b80519091501561271c576003546040805163d105bf8560e01b815290516000928692849283926001600160a01b03169163d105bf85916004808301926020929190829003018186803b15801561258d57600080fd5b505afa1580156125a1573d6000803e3d6000fd5b505050506040513d601f19601f820116820180604052508101906125c59190614a12565b6001600160a01b038c166000908152600960205260408120549192508c91905b8751811015612714578781815181106125fa57fe5b6020908102919091010151600354604051632f8deb1560e11b81529198506001600160a01b031690635f1bd62a90612636908a90600401614c5d565b60206040518083038186803b15801561264e57600080fd5b505afa158015612662573d6000803e3d6000fd5b505050506040513d601f19601f820116820180604052508101906126869190614a12565b9450868611156126955761270c565b8689116126db5784156126d65760006126ae8a8c6144ba565b90506126d26126cb8761153e866126c58a8761409a565b9061409a565b8d90613f28565b9b50505b612714565b84156127085760006126ed888c6144ba565b90506127046126cb8761153e866126c58a8761409a565b9b50505b8699505b6001016125e5565b505050505050505b5050505b90505b92915050565b6001546001600160a01b031681565b600f546001600160a01b031681565b601a5460ff1681565b6010546001600160a01b031681565b600e546001600160a01b031681565b600b541561278e5760405162461bcd60e51b815260040161084b90615078565b6001600b819055546001600160a01b0316806127bc5760405162461bcd60e51b815260040161084b90614c66565b60115482906001600160a01b038083169116146127eb5760405162461bcd60e51b815260040161084b906152ae565b600360009054906101000a90046001600160a01b03166001600160a01b031663b8c766b86040518163ffffffff1660e01b815260040160206040518083038186803b15801561283957600080fd5b505afa15801561284d573d6000803e3d6000fd5b505050506040513d601f19601f82011682018060405250810190612871919061498e565b15156001146128925760405162461bcd60e51b815260040161084b906150a6565b60036018556019546128a5906001613f28565b6019556128b0610df0565b600f54604051636b2160b760e01b81526001600160a01b0390911690636b2160b7906128e0908690600401614b67565b602060405180830381600087803b1580156128fa57600080fd5b505af115801561290e573d6000803e3d6000fd5b505050506040513d601f19601f82011682018060405250810190612932919061498e565b507ff5ce649f20a9ec3170091cbbbb6aff6a879655e0d7f20acae0ab8a66c2fcc8e8836040516129629190614b67565b60405180910390a150506000600b5550565b60185481565b600b541561299a5760405162461bcd60e51b815260040161084b90615078565b6001600b819055546001600160a01b0316806129c85760405162461bcd60e51b815260040161084b90614c66565b60115482906001600160a01b038083169116146129f75760405162461bcd60e51b815260040161084b906152ae565b60056018541415612a1a5760405162461bcd60e51b815260040161084b90615425565b600360009054906101000a90046001600160a01b03166001600160a01b031663b8c766b86040518163ffffffff1660e01b815260040160206040518083038186803b158015612a6857600080fd5b505afa158015612a7c573d6000803e3d6000fd5b505050506040513d601f19601f82011682018060405250810190612aa0919061498e565b1515600114612ac15760405162461bcd60e51b815260040161084b906150a6565b6005601855601980546000909155612ad7610df0565b600e546011546040516367265c3b60e11b81526001600160a01b039283169263ce4cb87692612b0d929116903090600401614bb5565b60206040518083038186803b158015612b2557600080fd5b505afa158015612b39573d6000803e3d6000fd5b505050506040513d601f19601f82011682018060405250810190612b5d9190614a12565b612b7257601180546001600160a01b03191690555b600f54604051632638fdf560e01b81526001600160a01b0390911690632638fdf590612ba49087903090600401614bb5565b60206040518083038186803b158015612bbc57600080fd5b505afa158015612bd0573d6000803e3d6000fd5b505050506040513d601f19601f82011682018060405250810190612bf49190614a12565b601380549091019055600f5460405163fb0713b160e01b81526001600160a01b039091169063fb0713b190612c329087908590600190600401614bff565b602060405180830381600087803b158015612c4c57600080fd5b505af1158015612c60573d6000803e3d6000fd5b505050506040513d601f19601f82011682018060405250810190612c84919061498e565b507fd07c1a80bfc96d3611f58fc19165b875cdbc1bdc53d8189e649a74930d9e3d8084826001604051612cb993929190614bff565b60405180910390a150506000600b555050565b60008051602061594983398151915281565b600b5415612cfe5760405162461bcd60e51b815260040161084b90615078565b6001600b55612d0b610df0565b8015612eb6576010546001600160a01b0316612d395760405162461bcd60e51b815260040161084b90614ddc565b600c546040516370a0823160e01b815283916001600160a01b0316906370a0823190612d69903090600401614b67565b60206040518083038186803b158015612d8157600080fd5b505afa158015612d95573d6000803e3d6000fd5b505050506040513d601f19601f82011682018060405250810190612db99190614a12565b1015612dd75760405162461bcd60e51b815260040161084b90614f90565b601054604051600091612dfa916001600160a01b03909116908190602001614bb5565b60408051601f1981840301815290829052600c54600d5463cae9ca5160e01b84529193506001600160a01b039081169263cae9ca5192612e4292169087908690600401614c22565b602060405180830381600087803b158015612e5c57600080fd5b505af1158015612e70573d6000803e3d6000fd5b505050506040513d601f19601f82011682018060405250810190612e94919061498e565b612eb05760405162461bcd60e51b815260040161084b9061531a565b50612ff2565b600d546040516370a0823160e01b815283916001600160a01b0316906370a0823190612ee6903090600401614b67565b60206040518083038186803b158015612efe57600080fd5b505afa158015612f12573d6000803e3d6000fd5b505050506040513d601f19601f82011682018060405250810190612f369190614a12565b1015612f545760405162461bcd60e51b815260040161084b9061501f565b600d5460405163f53fe70f60e01b81526001600160a01b039091169063f53fe70f90612f84908590600401614c5d565b602060405180830381600087803b158015612f9e57600080fd5b505af1158015612fb2573d6000803e3d6000fd5b505050506040513d601f19601f82011682018060405250810190612fd6919061498e565b612ff25760405162461bcd60e51b815260040161084b9061546b565b50506000600b55565b600a5481565b600d546001600160a01b031681565b6000828152601b6020526040812061272090836144fc565b6000828152601b602052604081206127209083614508565b6011546001600160a01b031681565b600081565b61306c60008051602061594983398151915233613028565b6130885760405162461bcd60e51b815260040161084b90615399565b6001600160a01b038116158015906130ae57506011546001600160a01b03828116911614155b6130ca5760405162461bcd60e51b815260040161084b90614d9b565b601180546001600160a01b0319166001600160a01b0383161790556040517fbcf2b04f5517cca822ae60e21bb6e3889b8d8307ea062c5266c63a014386c99090613115908390614b67565b60405180910390a150565b61313860008051602061594983398151915233613028565b6131545760405162461bcd60e51b815260040161084b90615399565b806001600160a01b03811661317b5760405162461bcd60e51b815260040161084b90614c66565b600180546001600160a01b0319166001600160a01b0384811691909117918290556040517f278c70ced5f3e0e5eeb385b5ff9cb735748ba00a625147e66065ed48fc1562cd926131cc921690614b67565b60405180910390a15050565b6009602052600090815260409020805460018201546002830154600384015460048501546005860154600690960154949593949293919290919060ff1687565b60075481565b6000818152601b602052604081206127239061451d565b600c546001600160a01b031681565b600b54156132645760405162461bcd60e51b815260040161084b90615078565b6001600b819055546001600160a01b0316806132925760405162461bcd60e51b815260040161084b90614c66565b60115483906001600160a01b038083169116146132c15760405162461bcd60e51b815260040161084b906152ae565b600360009054906101000a90046001600160a01b03166001600160a01b031663b8c766b86040518163ffffffff1660e01b815260040160206040518083038186803b15801561330f57600080fd5b505afa158015613323573d6000803e3d6000fd5b505050506040513d601f19601f82011682018060405250810190613347919061498e565b15156001146133685760405162461bcd60e51b815260040161084b906150a6565b600360185560195461337b906001613f28565b601955613386610df0565b600e546040516367265c3b60e11b81526000916001600160a01b03169063ce4cb876906133b99088903090600401614bb5565b60206040518083038186803b1580156133d157600080fd5b505afa1580156133e5573d6000803e3d6000fd5b505050506040513d601f19601f820116820180604052508101906134099190614a12565b90508381101561342b5760405162461bcd60e51b815260040161084b90614d6f565b600f5460405163da95ebf760e01b81526001600160a01b039091169063da95ebf79061345d9088908890600401614b7b565b602060405180830381600087803b15801561347757600080fd5b505af115801561348b573d6000803e3d6000fd5b505050506040513d601f19601f820116820180604052508101906134af919061498e565b507f1ac2a17d8d7ec451060cfbcbb66b61b7fd5fe7f887d9423102809f74bd207e8285856040516134e1929190614b7b565b60405180910390a150506000600b55505050565b6000828152601b6020526040902060020154613513906105f5613f82565b6110335760405162461bcd60e51b81526004018080602001828103825260308152602001806158f86030913960400191505060405180910390fd5b6001600160a01b03166000908152600960205260409020805460018201546002830154600384015460048501546005860154600690960154949693959294919390929160ff1690565b60195481565b60165481565b60175481565b6000600b546000146135cd5760405162461bcd60e51b815260040161084b90615078565b6001600b556006544311156135f45760405162461bcd60e51b815260040161084b90615551565b600360009054906101000a90046001600160a01b03166001600160a01b031663b8c766b86040518163ffffffff1660e01b815260040160206040518083038186803b15801561364257600080fd5b505afa158015613656573d6000803e3d6000fd5b505050506040513d601f19601f8201168201806040525081019061367a919061498e565b151560011461369b5760405162461bcd60e51b815260040161084b9061565f565b600282106136bb5760405162461bcd60e51b815260040161084b9061527e565b6136c3610df0565b600d546040516370a0823160e01b81526000916001600160a01b0316906370a08231906136f4903090600401614b67565b60206040518083038186803b15801561370c57600080fd5b505afa158015613720573d6000803e3d6000fd5b505050506040513d601f19601f820116820180604052508101906137449190614a12565b600c546040516370a0823160e01b81529192506000916001600160a01b03909116906370a082319061377a903090600401614b67565b60206040518083038186803b15801561379257600080fd5b505afa1580156137a6573d6000803e3d6000fd5b505050506040513d601f19601f820116820180604052508101906137ca9190614a12565b6011549091506000906001600160a01b0316156138a757600e546011546040516367265c3b60e11b81526001600160a01b039283169263ce4cb87692613817929116903090600401614bb5565b60206040518083038186803b15801561382f57600080fd5b505afa158015613843573d6000803e3d6000fd5b505050506040513d601f19601f820116820180604052508101906138679190614a12565b600f54601154604051632638fdf560e01b81529293506138a4926001600160a01b0392831692632638fdf592611db0929116903090600401614bb5565b90505b8282156138c2576138bf611e0084633b9aca0061409a565b90505b898110156138e25760405162461bcd60e51b815260040161084b906152e5565b81156138f5576138f28183613f28565b90505b60085461390690633b9aca0061409a565b8111801561392f57508961392c611e8f633b9aca0060085461409a90919063ffffffff16565b10155b61394b5760405162461bcd60e51b815260040161084b90615247565b89841015613a4757601054604051600091613976916001600160a01b03909116908190602001614bb5565b60408051601f198184030181529190529050600061399c633b9aca0061153e8e896144ba565b600c54600d5460405163cae9ca5160e01b81529293506001600160a01b039182169263cae9ca51926139d692169085908790600401614c22565b602060405180830381600087803b1580156139f057600080fd5b505af1158015613a04573d6000803e3d6000fd5b505050506040513d601f19601f82011682018060405250810190613a28919061498e565b613a445760405162461bcd60e51b815260040161084b90615192565b50505b50506014805489019055505060015460408051630141158f60e61b81529051600092839283926001600160a01b039092169163504563c09160048082019260a092909190829003018186803b158015613a9f57600080fd5b505afa158015613ab3573d6000803e3d6000fd5b505050506040513d601f19601f82011682018060405250810190613ad79190614859565b509295509350909150506001600160a01b038316613b075760405162461bcd60e51b815260040161084b90614c9d565b600d5460405163095ea7b360e01b81526001600160a01b039091169063095ea7b390613b399086908d90600401614b7b565b602060405180830381600087803b158015613b5357600080fd5b505af1158015613b67573d6000803e3d6000fd5b505050506040513d601f19601f82011682018060405250810190613b8b919061498e565b613ba75760405162461bcd60e51b815260040161084b90615692565b84613c7d576040805161010081018252600d546001600160a01b0390811682526000548116602083015262ffffff841682840152306060830152608082018a905260a082018c905260c082018b905288811660e0830152915163414bf38960e01b8152909185169063414bf38990613c2390849060040161576a565b602060405180830381600087803b158015613c3d57600080fd5b505af1158015613c51573d6000803e3d6000fd5b505050506040513d601f19601f82011682018060405250810190613c759190614a12565b945050613d74565b8460011415613d74576040805160a08101909152600d54600080549092918291613cbd916001600160a01b03908116918791899183911660c08701614b12565b6040516020818303038152906040528152602001306001600160a01b031681526020018981526020018b81526020018a8152509050836001600160a01b031663c04b8d59826040518263ffffffff1660e01b8152600401613d1e9190615712565b602060405180830381600087803b158015613d3857600080fd5b505af1158015613d4c573d6000803e3d6000fd5b505050506040513d601f19601f82011682018060405250810190613d709190614a12565b9450505b7ff0a0d4fd1b810e35ad5dbe81db68646c230891adf08081336320fd21a45d2d1a338a86604051613da793929190614b94565b60405180910390a150506000600b555095945050505050565b613dd860008051602061594983398151915233613028565b613df45760405162461bcd60e51b815260040161084b90615399565b336001600160a01b0382161415613e1d5760405162461bcd60e51b815260040161084b90614d0b565b613e3560008051602061594983398151915282610f75565b613e4d600080516020615949833981519152336134f5565b50565b6003546001600160a01b031681565b6000546001600160a01b031681565b60125481565b6000806000806000600160009054906101000a90046001600160a01b03166001600160a01b031663504563c06040518163ffffffff1660e01b815260040160a06040518083038186803b158015613eca57600080fd5b505afa158015613ede573d6000803e3d6000fd5b505050506040513d601f19601f82011682018060405250810190613f029190614859565b945094509450945094509091929394565b6000612720836001600160a01b038416614528565b600082820183811015612720576040805162461bcd60e51b815260206004820152601b60248201527f536166654d6174683a206164646974696f6e206f766572666c6f770000000000604482015290519081900360640190fd5b3390565b6000828152601b60205260409020613f9e9082613f13565b15610fd857613fab613f82565b6001600160a01b0316816001600160a01b0316837f2f8788117e7eff1d82e926ec794901d17c78024a50270940304540a733656f0d60405160405180910390a45050565b6000828152601b602052604090206140079082614572565b15610fd857614014613f82565b6001600160a01b0316816001600160a01b0316837ff6391f5c32d9c69d2a47ea670b442974b53935d1edc7fd64eb21e047a839171b60405160405180910390a45050565b600061272083836040518060400160405280601a81526020017f536166654d6174683a206469766973696f6e206279207a65726f000000000000815250614587565b6000826140a957506000612723565b828202828482816140b657fe5b04146127205760405162461bcd60e51b81526004018080602001828103825260218152602001806159286021913960400191505060405180910390fd5b8215614231576040516370a0823160e01b815283906001600160a01b038716906370a0823190614127903090600401614b67565b60206040518083038186803b15801561413f57600080fd5b505afa158015614153573d6000803e3d6000fd5b505050506040513d601f19601f820116820180604052508101906141779190614a12565b10156141955760405162461bcd60e51b815260040161084b90615628565b60405163a9059cbb60e01b81526001600160a01b0386169063a9059cbb906141c39033908790600401614b7b565b602060405180830381600087803b1580156141dd57600080fd5b505af11580156141f1573d6000803e3d6000fd5b505050506040513d601f19601f82011682018060405250810190614215919061498e565b6142315760405162461bcd60e51b815260040161084b90614f59565b811561436f576040516370a0823160e01b815282906001600160a01b038616906370a0823190614265903090600401614b67565b60206040518083038186803b15801561427d57600080fd5b505afa158015614291573d6000803e3d6000fd5b505050506040513d601f19601f820116820180604052508101906142b59190614a12565b10156142d35760405162461bcd60e51b815260040161084b906155f1565b60405163e3b99e8560e01b81526001600160a01b0385169063e3b99e85906143019033908690600401614b7b565b602060405180830381600087803b15801561431b57600080fd5b505af115801561432f573d6000803e3d6000fd5b505050506040513d601f19601f82011682018060405250810190614353919061498e565b61436f5760405162461bcd60e51b815260040161084b90614fe8565b80156144b3576000546040516370a0823160e01b815282916001600160a01b0316906370a08231906143a5903090600401614b67565b60206040518083038186803b1580156143bd57600080fd5b505afa1580156143d1573d6000803e3d6000fd5b505050506040513d601f19601f820116820180604052508101906143f59190614a12565b10156144135760405162461bcd60e51b815260040161084b9061551a565b60005460405163a9059cbb60e01b81526001600160a01b039091169063a9059cbb906144459033908590600401614b7b565b602060405180830381600087803b15801561445f57600080fd5b505af1158015614473573d6000803e3d6000fd5b505050506040513d601f19601f82011682018060405250810190614497919061498e565b6144b35760405162461bcd60e51b815260040161084b90614e74565b5050505050565b600061272083836040518060400160405280601e81526020017f536166654d6174683a207375627472616374696f6e206f766572666c6f770000815250614629565b60006127208383614683565b6000612720836001600160a01b0384166146e7565b6000612723826146ff565b600061453483836146e7565b61456a57508154600181810184556000848152602080822090930184905584548482528286019093526040902091909155612723565b506000612723565b6000612720836001600160a01b038416614703565b600081836146135760405162461bcd60e51b81526004018080602001828103825283818151815260200191508051906020019080838360005b838110156145d85781810151838201526020016145c0565b50505050905090810190601f1680156146055780820380516001836020036101000a031916815260200191505b509250505060405180910390fd5b50600083858161461f57fe5b0495945050505050565b6000818484111561467b5760405162461bcd60e51b81526020600482018181528351602484015283519092839260449091019190850190808383600083156145d85781810151838201526020016145c0565b505050900390565b815460009082106146c55760405162461bcd60e51b81526004018080602001828103825260228152602001806158a76022913960400191505060405180910390fd5b8260000182815481106146d457fe5b9060005260206000200154905092915050565b60009081526001919091016020526040902054151590565b5490565b600081815260018301602052604081205480156147bf578354600019808301919081019060009087908390811061473657fe5b906000526020600020015490508087600001848154811061475357fe5b60009182526020808320909101929092558281526001898101909252604090209084019055865487908061478357fe5b60019003818190600052602060002001600090559055866001016000878152602001908152602001600020600090556001945050505050612723565b6000915050612723565b6000602082840312156147da578081fd5b813561272081615883565b600080600080600060a086880312156147fc578081fd5b855161480781615883565b602087015190955061481881615883565b604087015190945061482981615883565b606087015190935061483a81615883565b608087015190925061484b81615883565b809150509295509295909350565b600080600080600060a08688031215614870578081fd5b855161487b81615883565b602087015190955061488c81615883565b604087015190945061489d81615883565b60608701516080880151919450925061484b81615883565b600080604083850312156148c7578182fd5b82356148d281615883565b946020939093013593505050565b600060208083850312156148f2578182fd5b825167ffffffffffffffff80821115614909578384fd5b818501915085601f83011261491c578384fd5b81518181111561492857fe5b8381026040518582820101818110858211171561494157fe5b604052828152858101935084860182860187018a101561495f578788fd5b8795505b83861015614981578051855260019590950194938601938601614963565b5098975050505050505050565b60006020828403121561499f578081fd5b815161272081615898565b6000602082840312156149bb578081fd5b5035919050565b600080604083850312156149d4578182fd5b8235915060208301356149e681615883565b809150509250929050565b60008060408385031215614a03578182fd5b50508035926020909101359150565b600060208284031215614a23578081fd5b5051919050565b60008060408385031215614a3c578182fd5b8235915060208301356149e681615898565b600080600080600060a08688031215614a65578081fd5b8535945060208601359350604086013592506060860135614a8581615883565b949793965091946080013592915050565b60008060008060808587031215614aab578182fd5b5050823594602084013594506040840135936060013592509050565b60008151808452815b81811015614aec57602081850181015186830182015201614ad0565b81811115614afd5782602083870101525b50601f01601f19169290920160200192915050565b6bffffffffffffffffffffffff19606096871b811682526001600160e81b031960e896871b8116601484015294871b811660178301529290941b909216602b840152921b909116602e82015260420190565b90565b6001600160a01b0391909116815260200190565b6001600160a01b03929092168252602082015260400190565b6001600160a01b039390931683526020830191909152604082015260600190565b6001600160a01b0392831681529116602082015260400190565b6001600160a01b039586168152938516602085015291841660408401526060830152909116608082015260a00190565b6001600160a01b0393909316835260208301919091521515604082015260600190565b600060018060a01b038516825283602083015260606040830152614c496060830184614ac7565b95945050505050565b901515815260200190565b90815260200190565b6020808252601b908201527f546f6b616d616b5374616b65723a207a65726f20616464726573730000000000604082015260600190565b6020808252601a908201527f546f6b616d616b5374616b65723a756e6973776170207a65726f000000000000604082015260600190565b6020808252601a908201527f5374616b65544f4e3a20416c7265616479207769746864726177000000000000604082015260600190565b6020808252601890820152772a37b5b0b6b0b5a9ba30b5b2b91d39b0b6b29037bbb732b960411b604082015260600190565b6020808252601890820152775374616b65544f4e3a20726577617264206973207a65726f60401b604082015260600190565b602080825260129082015271546f6b616d616b5374616b65723a6c61636b60701b604082015260600190565b60208082526021908201527f546f6b616d616b5374616b65723a746f6b616d616b4c6179657232207a65726f6040820152600160fd1b606082015260800190565b6020808252818101527f546f6b616d616b5374616b65723a207377617050726f7879206973207a65726f604082015260600190565b60208082526017908201527614dd185ad95513d38e881d1c985b9cd9995c8819985a5b604a1b604082015260600190565b602080825260189082015277151bdad85b585ad4dd185ad95c8e9c195c9a5bd908195b9960421b604082015260600190565b6020808252601b908201527f5374616b65544f4e3a207472616e7366657220746f73206661696c0000000000604082015260600190565b60208082526029908201527f546f6b616d616b5374616b65723a706572696f64287769746864726177616c44604082015268195b185e4a48195b9960ba1b606082015260800190565b6020808252601f908201527f5374616b65544f4e3a2049546f6b616d616b5265676973747279207a65726f00604082015260600190565b60208082526014908201527314dd185ad95513d38e881b9bdd0818db1bdcd95960621b604082015260600190565b6020808252601b908201527f5374616b65544f4e3a207472616e7366657220746f6e206661696c0000000000604082015260600190565b60208082526038908201527f546f6b616d616b5374616b65723a2073776170544f4e746f57544f4e20746f6e6040820152770818985b185b98d9481a5cc81a5b9cdd59999a58da595b9d60421b606082015260800190565b6020808252601c908201527f5374616b65544f4e3a207472616e736665722077746f6e206661696c00000000604082015260600190565b60208082526039908201527f546f6b616d616b5374616b65723a2073776170544f4e746f57544f4e2077746f6040820152781b8818985b185b98d9481a5cc81a5b9cdd59999a58da595b9d603a1b606082015260800190565b602080825260149082015273151bdad85b585ad4dd185ad95c8e9313d0d2d15160621b604082015260600190565b602080825260189082015277151bdad85b585ad4dd185ad95c8e9b9bdd0818db1bdcd95960421b604082015260600190565b60208082526022908201527f5374616b65544f4e3a2072656d61696e20616d6f756e7420696e20746f6b616d604082015261616b60f01b606082015260800190565b6020808252601e908201527f5374616b65544f4e3a2066696e616c42616c616e6365206973206c61636b0000604082015260600190565b60208082526021908201527f546f6b616d616b5374616b65723a617070726f7665416e6443616c6c206661696040820152601b60fa1b606082015260800190565b60208082526033908201527f546f6b616d616b5374616b65723a65786368616e676557544f4e746f544f5320604082015272185c1c1c9bdd99505b9910d85b1b0819985a5b606a1b606082015260800190565b60208082526011908201527014dd185ad95513d38e8818db185a5b5959607a1b604082015260600190565b6020808252601a908201527f5374616b65544f4e3a207769746864726177206661696c65642e000000000000604082015260600190565b6020808252601a908201527f546f6b616d616b5374616b65723a696e73756666696369656e74000000000000604082015260600190565b602080825260169082015275151bdad85b585ad4dd185ad95c8e881b9bc81ada5b9960521b604082015260600190565b6020808252601d908201527f546f6b616d616b5374616b65723a646966666572656e74206c61796572000000604082015260600190565b6020808252818101527f546f6b616d616b5374616b65723a2077746f6e20696e73756666696369656e74604082015260600190565b6020808252602f908201527f546f6b616d616b5374616b65723a73776170544f4e746f57544f4e206170707260408201526e1bdd99505b9910d85b1b0819985a5b608a1b606082015260800190565b6020808252601690820152755374616b65544f4e3a20416d6f756e742077726f6e6760501b604082015260600190565b60208082526025908201527f546f6b616d616b5374616b65723a2043616c6c6572206973206e6f7420616e2060408201526430b236b4b760d91b606082015260800190565b6020808252600790820152661b9bc81ada5b9960ca1b604082015260600190565b6020808252600c908201526b756e6973776170207a65726f60a01b604082015260600190565b60208082526026908201527f546f6b616d616b5374616b65723a416c72656164792050726f63657373556e5360408201526574616b696e6760d01b606082015260800190565b6020808252601c908201527f546f6b616d616b5374616b65723a73776170546f544f4e206661696c00000000604082015260600190565b6020808252601a908201527f546f6b616d616b5374616b65723a746f6b616d616b207a65726f000000000000604082015260600190565b60208082526021908201527f546f6b616d616b5374616b65723a7374616b65416d6f756e74206973207a65726040820152606f60f81b606082015260800190565b6020808252601d908201527f5374616b65544f4e3a20746f732062616c616e6365206973206c61636b000000604082015260600190565b602080825260199082015278151bdad85b585ad4dd185ad95c8e881c195c9a5bd908195b99603a1b604082015260600190565b60208082526011908201527014dd185ad95513d38e881b9bdd08195b99607a1b604082015260600190565b60208082526022908201527f546f6b616d616b5374616b65723a20746f6e2062616c616e6365206973207a65604082015261726f60f01b606082015260800190565b6020808252601e908201527f5374616b65544f4e3a2077746f6e2062616c616e6365206973206c61636b0000604082015260600190565b6020808252601d908201527f5374616b65544f4e3a20746f6e2062616c616e6365206973206c61636b000000604082015260600190565b602080825260199082015278151bdad85b585ad4dd185ad95c8e881b9bdd0818db1bdcd959603a1b604082015260600190565b60208082526029908201527f546f6b616d616b5374616b65723a63616e277420617070726f766520756e69736040820152683bb0b82937baba32b960b91b606082015260800190565b6020808252601e908201527f5374616b65544f4e3a20746f74616c2072657761726420657863656564730000604082015260600190565b600060208252825160a0602084015261572e60c0840182614ac7565b905060018060a01b0360208501511660408401526040840151606084015260608401516080840152608084015160a08401528091505092915050565b81516001600160a01b03908116825260208084015182169083015260408084015162ffffff16908301526060808401518216908301526080808401519083015260a0838101519083015260c0808401519083015260e09283015116918101919091526101000190565b918252602082015260400190565b600060a082018783526020878185015260a0604085015281875180845260c0860191508289019350845b818110156158305784516001600160a01b03168352938301939183019160010161580b565b50506001600160a01b03969096166060850152505050608001529392505050565b968752602087019590955260408601939093526060850191909152608084015260a0830152151560c082015260e00190565b6001600160a01b0381168114613e4d57600080fd5b8015158114613e4d57600080fdfe456e756d657261626c655365743a20696e646578206f7574206f6620626f756e6473416363657373436f6e74726f6c3a2073656e646572206d75737420626520616e2061646d696e20746f206772616e74416363657373436f6e74726f6c3a2073656e646572206d75737420626520616e2061646d696e20746f207265766f6b65536166654d6174683a206d756c7469706c69636174696f6e206f766572666c6f77df8b4c520ffe197c5343c6f5aec59570151ef9a492f2c624fd45ddde6135ec42416363657373436f6e74726f6c3a2063616e206f6e6c792072656e6f756e636520726f6c657320666f722073656c66a26469706673582212209f28daf19b687274c63b57dff20e4bc005f5e45470e1003e7173654a529eb54f64736f6c63430007060033df8b4c520ffe197c5343c6f5aec59570151ef9a492f2c624fd45ddde6135ec42",
  "immutableReferences": {},
  "source": "//SPDX-License-Identifier: Unlicense\npragma solidity ^0.7.0;\npragma abicoder v2;\n\nimport \"../interfaces/IStakeTON.sol\";\nimport {IIStake1Vault} from \"../interfaces/IIStake1Vault.sol\";\nimport {IIERC20} from \"../interfaces/IIERC20.sol\";\nimport {IWTON} from \"../interfaces/IWTON.sol\";\n\nimport \"../libraries/LibTokenStake1.sol\";\nimport {SafeMath} from \"../utils/math/SafeMath.sol\";\nimport \"../connection/TokamakStaker.sol\";\nimport {\n    ERC165Checker\n} from \"@openzeppelin/contracts/introspection/ERC165Checker.sol\";\nimport {SafeERC20} from \"@openzeppelin/contracts/token/ERC20/SafeERC20.sol\";\n\n/// @title Stake Contract\n/// @notice It can be staked in Tokamak. Can be swapped using Uniswap.\n/// Stake contracts can interact with the vault to claim tos tokens\ncontract StakeTON is TokamakStaker, IStakeTON {\n    using SafeMath for uint256;\n\n    /// @dev event on staking\n    /// @param to the sender\n    /// @param amount the amount of staking\n    event Staked(address indexed to, uint256 amount);\n\n    /// @dev event on claim\n    /// @param to the sender\n    /// @param amount the amount of claim\n    /// @param claimBlock the block of claim\n    event Claimed(address indexed to, uint256 amount, uint256 claimBlock);\n\n    /// @dev event on withdrawal\n    /// @param to the sender\n    /// @param tonAmount the amount of TON withdrawal\n    /// @param tosAmount the amount of TOS withdrawal\n    event Withdrawal(address indexed to, uint256 tonAmount, uint256 tosAmount);\n\n    /// @dev constructor of StakeTON\n    constructor() {\n        _setRoleAdmin(ADMIN_ROLE, ADMIN_ROLE);\n        _setupRole(ADMIN_ROLE, msg.sender);\n    }\n\n    /// @dev receive ether\n    /// @dev call stake function with msg.value\n    receive() external payable {\n        // stake(msg.value);\n    }\n\n    /// @dev Initialize\n    // function initialize(\n    //     address _token,\n    //     address _paytoken,\n    //     address _vault,\n    //     uint256 _saleStartBlock,\n    //     uint256 _startBlock,\n    //     uint256 _period\n    // ) external onlyOwner {\n    //     require(\n    //         _token != address(0) &&\n    //             _vault != address(0) &&\n    //             _saleStartBlock < _startBlock, \"zero\"\n    //     );\n    //     token = _token;\n    //     paytoken = _paytoken;\n    //     vault = _vault;\n    //     saleStartBlock = _saleStartBlock;\n    //     startBlock = _startBlock;\n    //     endBlock = startBlock.add(_period);\n    // }\n\n    /// @dev Stake amount\n    /// @param amount  the amount of staked\n    /* function stake(uint256 amount) public payable override {\n        require(\n            (paytoken == address(0) && msg.value == amount) ||\n                (paytoken != address(0) && amount > 0),\n            \"StakeTON: zero\"\n        );\n        require(\n            block.number >= saleStartBlock && block.number < startBlock,\n            \"StakeTON: unavailable\"\n        );\n\n        require(!IIStake1Vault(vault).saleClosed(), \"StakeTON: not end\");\n\n        if (paytoken == address(0)) amount = msg.value;\n        else\n            require(\n                IIERC20(paytoken).balanceOf(msg.sender) >= amount,\n                \"StakeTON: insuffient\"\n            );\n\n        LibTokenStake1.StakedAmount storage staked = userStaked[msg.sender];\n        if (staked.amount == 0)  totalStakers = totalStakers.add(1);\n\n        staked.amount = staked.amount.add(amount);\n        totalStakedAmount = totalStakedAmount.add(amount);\n        if (paytoken != address(0))\n            require(\n                IIERC20(paytoken).transferFrom(\n                    msg.sender,\n                    address(this),\n                    amount\n                )\n            );\n\n        emit Staked(msg.sender, amount);\n    }\n    */\n\n    /// @dev withdraw\n    function withdraw() external override {\n        require(endBlock > 0 && endBlock < block.number, \"StakeTON: not end\");\n        (\n            address ton,\n            address wton,\n            address depositManager,\n            address seigManager,\n\n        ) = ITokamakRegistry(stakeRegistry).getTokamak();\n        require(\n            ton != address(0) &&\n                wton != address(0) &&\n                depositManager != address(0) &&\n                seigManager != address(0),\n            \"StakeTON: ITokamakRegistry zero\"\n        );\n        if (tokamakLayer2 != address(0)) {\n            require(\n                IISeigManager(seigManager).stakeOf(\n                    tokamakLayer2,\n                    address(this)\n                ) ==\n                    0 &&\n                    IIDepositManager(depositManager).pendingUnstaked(\n                        tokamakLayer2,\n                        address(this)\n                    ) ==\n                    0,\n                \"StakeTON: remain amount in tokamak\"\n            );\n        }\n        LibTokenStake1.StakedAmount storage staked = userStaked[msg.sender];\n        require(staked.released == false, \"StakeTON: Already withdraw\");\n\n        if (withdrawFlag == false) {\n            withdrawFlag = true;\n            if (paytoken == ton) {\n                swappedAmountTOS = IIERC20(token).balanceOf(address(this));\n                finalBalanceWTON = IIERC20(wton).balanceOf(address(this));\n                finalBalanceTON = IIERC20(ton).balanceOf(address(this));\n                require(\n                    finalBalanceWTON.div(10**9).add(finalBalanceTON) >=\n                        totalStakedAmount,\n                    \"StakeTON: finalBalance is lack\"\n                );\n            }\n        }\n\n        uint256 amount = staked.amount;\n        require(amount > 0, \"StakeTON: Amount wrong\");\n        staked.releasedBlock = block.number;\n        staked.released = true;\n\n        if (paytoken == ton) {\n            uint256 tonAmount = 0;\n            uint256 wtonAmount = 0;\n            uint256 tosAmount = 0;\n            if (finalBalanceTON > 0)\n                tonAmount = finalBalanceTON.mul(amount).div(totalStakedAmount);\n            if (finalBalanceWTON > 0)\n                wtonAmount = finalBalanceWTON.mul(amount).div(\n                    totalStakedAmount\n                );\n            if (swappedAmountTOS > 0)\n                tosAmount = swappedAmountTOS.mul(amount).div(totalStakedAmount);\n\n            staked.releasedTOSAmount = tosAmount;\n            if (wtonAmount > 0)\n                staked.releasedAmount = wtonAmount.div(10**9).add(tonAmount);\n            else staked.releasedAmount = tonAmount;\n\n            tonWithdraw(ton, wton, tonAmount, wtonAmount, tosAmount);\n        } else if (paytoken == address(0)) {\n            require(\n                staked.releasedAmount <= staked.amount,\n                \"StakeTON: Amount wrong\"\n            );\n            staked.releasedAmount = amount;\n            address payable self = address(uint160(address(this)));\n            require(self.balance >= amount);\n            (bool success, ) = msg.sender.call{value: amount}(\"\");\n            require(success, \"StakeTON: withdraw failed.\");\n        } else {\n            require(\n                staked.releasedAmount <= staked.amount,\n                \"StakeTON: Amount wrong\"\n            );\n            staked.releasedAmount = amount;\n            require(\n                IIERC20(paytoken).transfer(msg.sender, amount),\n                \"StakeTON: transfer fail\"\n            );\n        }\n\n        emit Withdrawal(\n            msg.sender,\n            staked.releasedAmount,\n            staked.releasedTOSAmount\n        );\n    }\n\n    /// @dev withdraw TON\n    /// @param ton  TON address\n    /// @param wton  WTON address\n    /// @param tonAmount  the amount of TON to be withdrawn to msg.sender\n    /// @param wtonAmount  the amount of WTON to be withdrawn to msg.sender\n    /// @param tosAmount  the amount of TOS to be withdrawn to msg.sender\n    function tonWithdraw(\n        address ton,\n        address wton,\n        uint256 tonAmount,\n        uint256 wtonAmount,\n        uint256 tosAmount\n    ) internal {\n        if (tonAmount > 0) {\n            require(\n                IIERC20(ton).balanceOf(address(this)) >= tonAmount,\n                \"StakeTON: ton balance is lack\"\n            );\n\n            require(\n                IIERC20(ton).transfer(msg.sender, tonAmount),\n                \"StakeTON: transfer ton fail\"\n            );\n        }\n        if (wtonAmount > 0) {\n            require(\n                IIERC20(wton).balanceOf(address(this)) >= wtonAmount,\n                \"StakeTON: wton balance is lack\"\n            );\n            require(\n                IWTON(wton).swapToTONAndTransfer(msg.sender, wtonAmount),\n                \"StakeTON: transfer wton fail\"\n            );\n        }\n        if (tosAmount > 0) {\n            require(\n                IIERC20(token).balanceOf(address(this)) >= tosAmount,\n                \"StakeTON: tos balance is lack\"\n            );\n            require(\n                IIERC20(token).transfer(msg.sender, tosAmount),\n                \"StakeTON: transfer tos fail\"\n            );\n        }\n    }\n\n    /// @dev Claim for reward\n    function claim() external override lock {\n        require(\n            IIStake1Vault(vault).saleClosed() == true,\n            \"StakeTON: not closed\"\n        );\n        uint256 rewardClaim = 0;\n\n        LibTokenStake1.StakedAmount storage staked = userStaked[msg.sender];\n        require(staked.claimedBlock < endBlock, \"StakeTON: claimed\");\n\n        rewardClaim = canRewardAmount(msg.sender, block.number);\n\n        require(rewardClaim > 0, \"StakeTON: reward is zero\");\n\n        uint256 rewardTotal =\n            IIStake1Vault(vault).totalRewardAmount(address(this));\n        require(\n            rewardClaimedTotal.add(rewardClaim) <= rewardTotal,\n            \"StakeTON: total reward exceeds\"\n        );\n\n        staked.claimedBlock = block.number;\n        staked.claimedAmount = staked.claimedAmount.add(rewardClaim);\n        rewardClaimedTotal = rewardClaimedTotal.add(rewardClaim);\n\n        require(IIStake1Vault(vault).claim(msg.sender, rewardClaim));\n\n        emit Claimed(msg.sender, rewardClaim, block.number);\n    }\n\n    /// @dev Returns the amount that can be rewarded\n    /// @param account  the account that claimed reward\n    /// @param specificBlock the block that claimed reward\n    /// @return reward the reward amount that can be taken\n    function canRewardAmount(address account, uint256 specificBlock)\n        public\n        view\n        override\n        returns (uint256)\n    {\n        uint256 reward = 0;\n        if (specificBlock > endBlock) specificBlock = endBlock;\n\n        if (\n            specificBlock < startBlock ||\n            userStaked[account].amount == 0 ||\n            userStaked[account].claimedBlock > endBlock ||\n            userStaked[account].claimedBlock > specificBlock\n        ) {\n            reward = 0;\n        } else {\n            uint256 startR = startBlock;\n            uint256 endR = endBlock;\n            if (startR < userStaked[account].claimedBlock)\n                startR = userStaked[account].claimedBlock;\n            if (specificBlock < endR) endR = specificBlock;\n\n            uint256[] memory orderedEndBlocks =\n                IIStake1Vault(vault).orderedEndBlocksAll();\n\n            if (orderedEndBlocks.length > 0) {\n                uint256 _end = 0;\n                uint256 _start = startR;\n                uint256 _total = 0;\n                uint256 blockTotalReward = 0;\n                blockTotalReward = IIStake1Vault(vault).blockTotalReward();\n\n                address user = account;\n                uint256 amount = userStaked[user].amount;\n\n                for (uint256 i = 0; i < orderedEndBlocks.length; i++) {\n                    _end = orderedEndBlocks[i];\n                    _total = IIStake1Vault(vault).stakeEndBlockTotal(_end);\n\n                    if (_start > _end) {} else if (endR <= _end) {\n                        if (_total > 0) {\n                            uint256 _period1 = endR.sub(startR);\n                            reward = reward.add(\n                                blockTotalReward.mul(_period1).mul(amount).div(\n                                    _total\n                                )\n                            );\n                        }\n                        break;\n                    } else {\n                        if (_total > 0) {\n                            uint256 _period2 = _end.sub(startR);\n                            reward = reward.add(\n                                blockTotalReward.mul(_period2).mul(amount).div(\n                                    _total\n                                )\n                            );\n                        }\n                        startR = _end;\n                    }\n                }\n            }\n        }\n        return reward;\n    }\n    /*\n    function canRewardAmountTest(address account, uint256 specificBlock)\n        public view\n        returns (uint256, uint256, uint256, uint256)\n    {\n        uint256 reward = 0;\n        uint256 startR = 0;\n        uint256 endR = 0;\n        uint256 blockTotalReward = 0;\n        if(specificBlock > endBlock ) specificBlock = endBlock;\n\n        if (\n            specificBlock < startBlock ||\n            userStaked[account].amount == 0 ||\n            userStaked[account].claimedBlock > endBlock ||\n            userStaked[account].claimedBlock > specificBlock\n        ) {\n            reward = 0;\n        } else {\n            startR = startBlock;\n            endR = endBlock;\n            if (startR < userStaked[account].claimedBlock)\n                startR = userStaked[account].claimedBlock;\n            if (specificBlock < endR) endR = specificBlock;\n\n            uint256[] memory orderedEndBlocks =\n                IIStake1Vault(vault).orderedEndBlocksAll();\n\n            if (orderedEndBlocks.length > 0) {\n                uint256 _end = 0;\n                uint256 _start = startR;\n                uint256 _total = 0;\n                //uint256 blockTotalReward = 0;\n                blockTotalReward = IIStake1Vault(vault).blockTotalReward();\n\n                address user = account;\n                uint256 amount = userStaked[user].amount;\n\n                for (uint256 i = 0; i < orderedEndBlocks.length; i++) {\n                    _end = orderedEndBlocks[i];\n                    _total = IIStake1Vault(vault).stakeEndBlockTotal(_end);\n\n                    if (_start > _end) {\n\n                    } else if (endR <= _end) {\n                        reward +=\n                            (blockTotalReward *\n                                (endR - startR) * amount) /\n                            _total;\n                        break;\n                    } else {\n                        reward +=\n                            (blockTotalReward *\n                                (_end - startR) *\n                                amount) /\n                            _total;\n                        startR = _end;\n                    }\n                }\n            }\n        }\n        return (reward, startR, endR, blockTotalReward);\n    }\n    */\n}\n",
  "sourcePath": "/Users/zena/ico2.0/ico20-contracts/contracts/stake/StakeTON.sol",
  "compiler": {
    "name": "solc",
    "version": "0.7.6+commit.7338295f.Emscripten.clang"
  },
  "schemaVersion": "3.3.4",
  "updatedAt": "2021-06-15T09:38:41.590Z",
  "devdoc": {
    "events": {
      "Claimed(address,uint256,uint256)": {
        "details": "event on claim",
        "params": {
          "amount": "the amount of claim",
          "claimBlock": "the block of claim",
          "to": "the sender"
        }
      },
      "Staked(address,uint256)": {
        "details": "event on staking",
        "params": {
          "amount": "the amount of staking",
          "to": "the sender"
        }
      },
      "Withdrawal(address,uint256,uint256)": {
        "details": "event on withdrawal",
        "params": {
          "to": "the sender",
          "tonAmount": "the amount of TON withdrawal",
          "tosAmount": "the amount of TOS withdrawal"
        }
      }
    },
    "kind": "dev",
    "methods": {
      "canRewardAmount(address,uint256)": {
        "details": "Returns the amount that can be rewarded",
        "params": {
          "account": "the account that claimed reward",
          "specificBlock": "the block that claimed reward"
        },
        "returns": {
          "_0": "reward the reward amount that can be taken"
        }
      },
      "checkTokamak()": {
        "details": "If the tokamak addresses is not set, set the addresses."
      },
      "claim()": {
        "details": "Claim for reward"
      },
      "constructor": {
        "details": "constructor of StakeTON"
      },
      "exchangeWTONtoTOS(uint256,uint256,uint256,uint160,uint256)": {
        "details": "exchange holded WTON to TOS using uniswap",
        "params": {
          "_amountOutMinimum": "the minimun output amount",
          "_deadline": "deadline",
          "_kind": "the function type, if 0, use exactInputSingle function, else if, use exactInput function",
          "_sqrtPriceLimitX96": "sqrtPriceLimitX96"
        },
        "returns": {
          "amountOut": "the amount of exchanged out token"
        }
      },
      "exchangeWTONtoTOSv2(uint256,uint256,uint256,uint256)": {
        "details": "exchange holded WTON to TOS using uniswap-v2",
        "params": {
          "_amountIn": "the input amount",
          "_amountOutMinimum": "the minimun output amount",
          "_deadline": "deadline",
          "_kind": "the function type, if 0, use exactInputSingle function, else if, use exactInput function"
        }
      },
      "getRoleAdmin(bytes32)": {
        "details": "Returns the admin role that controls `role`. See {grantRole} and {revokeRole}. To change a role's admin, use {_setRoleAdmin}."
      },
      "getRoleMember(bytes32,uint256)": {
        "details": "Returns one of the accounts that have `role`. `index` must be a value between 0 and {getRoleMemberCount}, non-inclusive. Role bearers are not sorted in any particular way, and their ordering may change at any point. WARNING: When using {getRoleMember} and {getRoleMemberCount}, make sure you perform all queries on the same block. See the following https://forum.openzeppelin.com/t/iterating-over-elements-on-enumerableset-in-openzeppelin-contracts/2296[forum post] for more information."
      },
      "getRoleMemberCount(bytes32)": {
        "details": "Returns the number of accounts that have `role`. Can be used together with {getRoleMember} to enumerate all bearers of a role."
      },
      "getUniswapInfo()": {
        "details": "get the addresses that used in uniswap interfaces",
        "returns": {
          "ext": "the address of ext",
          "fee": "the amount of fee",
          "npm": "the address of positionManagerAddress",
          "uniswapRouter": "the address of uniswapRouter"
        }
      },
      "getUserStaked(address)": {
        "details": "user's staked information"
      },
      "grantRole(bytes32,address)": {
        "details": "Grants `role` to `account`. If `account` had not been already granted `role`, emits a {RoleGranted} event. Requirements: - the caller must have ``role``'s admin role."
      },
      "hasRole(bytes32,address)": {
        "details": "Returns `true` if `account` has been granted `role`."
      },
      "renounceRole(bytes32,address)": {
        "details": "Revokes `role` from the calling account. Roles are often managed via {grantRole} and {revokeRole}: this function's purpose is to provide a mechanism for accounts to lose their privileges if they are compromised (such as when a trusted device is misplaced). If the calling account had been granted `role`, emits a {RoleRevoked} event. Requirements: - the caller must be `account`."
      },
      "revokeRole(bytes32,address)": {
        "details": "Revokes `role` from `account`. If `account` had been granted `role`, emits a {RoleRevoked} event. Requirements: - the caller must have ``role``'s admin role."
      },
      "setRegistry(address)": {
        "details": "set registry address",
        "params": {
          "_registry": "new registry address"
        }
      },
      "setTokamakLayer2(address)": {
        "details": "set the tokamak Layer2 address",
        "params": {
          "_layer2": "new the tokamak Layer2 address"
        }
      },
      "swapTONtoWTON(uint256,bool)": {
        "details": "Change the TON holded in contract have to WTON, or change WTON to TON.",
        "params": {
          "amount": "the amount to be changed",
          "toWTON": "if it's true, TON->WTON , else WTON->TON"
        }
      },
      "tokamakProcessUnStaking(address)": {
        "details": "process unstaking in layer2 in tokamak",
        "params": {
          "_layer2": "the layer2 address in tokamak"
        }
      },
      "tokamakRequestUnStaking(address,uint256)": {
        "details": "request unstaking the wtonAmount in layer2 in tokamak",
        "params": {
          "_layer2": "the layer2 address in tokamak",
          "wtonAmount": "the amount requested to unstaking"
        }
      },
      "tokamakRequestUnStakingAll(address)": {
        "details": "request unstaking the amount of all in layer2 in tokamak",
        "params": {
          "_layer2": "the layer2 address in tokamak"
        }
      },
      "tokamakStaking(address,uint256)": {
        "details": "staking the staked TON in layer2 in tokamak",
        "params": {
          "_layer2": "the layer2 address in tokamak",
          "stakeAmount": "the amount that stake to layer2"
        }
      },
      "transferOwnership(address)": {
        "details": "transfer Ownership",
        "params": {
          "newOwner": "new owner address"
        }
      },
      "withdraw()": {
        "details": "withdraw"
      }
    },
    "title": "Stake Contract",
    "version": 1
  },
  "userdoc": {
    "kind": "user",
    "methods": {
      "exchangeWTONtoTOS(uint256,uint256,uint256,uint160,uint256)": {
        "notice": "@param _amountIn the input amount"
      }
    },
    "notice": "It can be staked in Tokamak. Can be swapped using Uniswap. Stake contracts can interact with the vault to claim tos tokens",
    "version": 1
  }
}