{
  "contractName": "StakeVaultFactory",
  "abi": [
    {
      "inputs": [
        {
          "internalType": "address",
          "name": "_stakeVaultLogic",
          "type": "address"
        }
      ],
      "stateMutability": "nonpayable",
      "type": "constructor"
    },
    {
      "anonymous": false,
      "inputs": [
        {
          "indexed": true,
          "internalType": "bytes32",
          "name": "role",
          "type": "bytes32"
        },
        {
          "indexed": true,
          "internalType": "bytes32",
          "name": "previousAdminRole",
          "type": "bytes32"
        },
        {
          "indexed": true,
          "internalType": "bytes32",
          "name": "newAdminRole",
          "type": "bytes32"
        }
      ],
      "name": "RoleAdminChanged",
      "type": "event"
    },
    {
      "anonymous": false,
      "inputs": [
        {
          "indexed": true,
          "internalType": "bytes32",
          "name": "role",
          "type": "bytes32"
        },
        {
          "indexed": true,
          "internalType": "address",
          "name": "account",
          "type": "address"
        },
        {
          "indexed": true,
          "internalType": "address",
          "name": "sender",
          "type": "address"
        }
      ],
      "name": "RoleGranted",
      "type": "event"
    },
    {
      "anonymous": false,
      "inputs": [
        {
          "indexed": true,
          "internalType": "bytes32",
          "name": "role",
          "type": "bytes32"
        },
        {
          "indexed": true,
          "internalType": "address",
          "name": "account",
          "type": "address"
        },
        {
          "indexed": true,
          "internalType": "address",
          "name": "sender",
          "type": "address"
        }
      ],
      "name": "RoleRevoked",
      "type": "event"
    },
    {
      "inputs": [],
      "name": "ADMIN_ROLE",
      "outputs": [
        {
          "internalType": "bytes32",
          "name": "",
          "type": "bytes32"
        }
      ],
      "stateMutability": "view",
      "type": "function"
    },
    {
      "inputs": [],
      "name": "BURNER_ROLE",
      "outputs": [
        {
          "internalType": "bytes32",
          "name": "",
          "type": "bytes32"
        }
      ],
      "stateMutability": "view",
      "type": "function"
    },
    {
      "inputs": [],
      "name": "DEFAULT_ADMIN_ROLE",
      "outputs": [
        {
          "internalType": "bytes32",
          "name": "",
          "type": "bytes32"
        }
      ],
      "stateMutability": "view",
      "type": "function"
    },
    {
      "inputs": [],
      "name": "MINTER_ROLE",
      "outputs": [
        {
          "internalType": "bytes32",
          "name": "",
          "type": "bytes32"
        }
      ],
      "stateMutability": "view",
      "type": "function"
    },
    {
      "inputs": [
        {
          "internalType": "address",
          "name": "account",
          "type": "address"
        }
      ],
      "name": "addAdmin",
      "outputs": [],
      "stateMutability": "nonpayable",
      "type": "function"
    },
    {
      "inputs": [
        {
          "internalType": "bytes32",
          "name": "role",
          "type": "bytes32"
        }
      ],
      "name": "getRoleAdmin",
      "outputs": [
        {
          "internalType": "bytes32",
          "name": "",
          "type": "bytes32"
        }
      ],
      "stateMutability": "view",
      "type": "function"
    },
    {
      "inputs": [
        {
          "internalType": "bytes32",
          "name": "role",
          "type": "bytes32"
        },
        {
          "internalType": "uint256",
          "name": "index",
          "type": "uint256"
        }
      ],
      "name": "getRoleMember",
      "outputs": [
        {
          "internalType": "address",
          "name": "",
          "type": "address"
        }
      ],
      "stateMutability": "view",
      "type": "function"
    },
    {
      "inputs": [
        {
          "internalType": "bytes32",
          "name": "role",
          "type": "bytes32"
        }
      ],
      "name": "getRoleMemberCount",
      "outputs": [
        {
          "internalType": "uint256",
          "name": "",
          "type": "uint256"
        }
      ],
      "stateMutability": "view",
      "type": "function"
    },
    {
      "inputs": [
        {
          "internalType": "bytes32",
          "name": "role",
          "type": "bytes32"
        },
        {
          "internalType": "address",
          "name": "account",
          "type": "address"
        }
      ],
      "name": "grantRole",
      "outputs": [],
      "stateMutability": "nonpayable",
      "type": "function"
    },
    {
      "inputs": [
        {
          "internalType": "bytes32",
          "name": "role",
          "type": "bytes32"
        },
        {
          "internalType": "address",
          "name": "account",
          "type": "address"
        }
      ],
      "name": "hasRole",
      "outputs": [
        {
          "internalType": "bool",
          "name": "",
          "type": "bool"
        }
      ],
      "stateMutability": "view",
      "type": "function"
    },
    {
      "inputs": [
        {
          "internalType": "address",
          "name": "account",
          "type": "address"
        }
      ],
      "name": "isAdmin",
      "outputs": [
        {
          "internalType": "bool",
          "name": "",
          "type": "bool"
        }
      ],
      "stateMutability": "view",
      "type": "function"
    },
    {
      "inputs": [
        {
          "internalType": "address",
          "name": "account",
          "type": "address"
        }
      ],
      "name": "removeAdmin",
      "outputs": [],
      "stateMutability": "nonpayable",
      "type": "function"
    },
    {
      "inputs": [
        {
          "internalType": "bytes32",
          "name": "role",
          "type": "bytes32"
        },
        {
          "internalType": "address",
          "name": "account",
          "type": "address"
        }
      ],
      "name": "renounceRole",
      "outputs": [],
      "stateMutability": "nonpayable",
      "type": "function"
    },
    {
      "inputs": [
        {
          "internalType": "bytes32",
          "name": "role",
          "type": "bytes32"
        },
        {
          "internalType": "address",
          "name": "account",
          "type": "address"
        }
      ],
      "name": "revokeRole",
      "outputs": [],
      "stateMutability": "nonpayable",
      "type": "function"
    },
    {
      "inputs": [
        {
          "internalType": "address",
          "name": "newAdmin",
          "type": "address"
        }
      ],
      "name": "transferAdmin",
      "outputs": [],
      "stateMutability": "nonpayable",
      "type": "function"
    },
    {
      "inputs": [
        {
          "internalType": "uint256",
          "name": "",
          "type": "uint256"
        }
      ],
      "name": "vaultLogics",
      "outputs": [
        {
          "internalType": "address",
          "name": "",
          "type": "address"
        }
      ],
      "stateMutability": "view",
      "type": "function"
    },
    {
      "inputs": [
        {
          "internalType": "uint256",
          "name": "_phase",
          "type": "uint256"
        },
        {
          "internalType": "address",
          "name": "_logic",
          "type": "address"
        }
      ],
      "name": "setVaultLogicByPhase",
      "outputs": [],
      "stateMutability": "nonpayable",
      "type": "function"
    },
    {
      "inputs": [
        {
          "internalType": "uint256",
          "name": "_phase",
          "type": "uint256"
        },
        {
          "internalType": "address[4]",
          "name": "_addr",
          "type": "address[4]"
        },
        {
          "internalType": "uint256[4]",
          "name": "_intInfo",
          "type": "uint256[4]"
        },
        {
          "internalType": "address",
          "name": "owner",
          "type": "address"
        }
      ],
      "name": "create",
      "outputs": [
        {
          "internalType": "address",
          "name": "",
          "type": "address"
        }
      ],
      "stateMutability": "nonpayable",
      "type": "function"
    },
    {
      "inputs": [
        {
          "internalType": "uint256",
          "name": "_phase",
          "type": "uint256"
        },
        {
          "internalType": "address[2]",
          "name": "_addr",
          "type": "address[2]"
        },
        {
          "internalType": "uint256[3]",
          "name": "_intInfo",
          "type": "uint256[3]"
        },
        {
          "internalType": "string",
          "name": "_name",
          "type": "string"
        },
        {
          "internalType": "address",
          "name": "owner",
          "type": "address"
        }
      ],
      "name": "create2",
      "outputs": [
        {
          "internalType": "address",
          "name": "",
          "type": "address"
        }
      ],
      "stateMutability": "nonpayable",
      "type": "function"
    }
  ],
  "bytecode": "0x60806040523480156200001157600080fd5b5060405162004a9138038062004a91833981810160405260208110156200003757600080fd5b50516001600160a01b03811662000095576040805162461bcd60e51b815260206004820152601d60248201527f5374616b655661756c74466163746f72793a206c6f676963207a65726f000000604482015290519081900360640190fd5b600160008190526020527fcc69885fda6bcc1a4ace058b4a62bf5e179ea78fd58a1ccd71c22cc9b688792f80546001600160a01b0319166001600160a01b038316179055620000f460008051602062004a718339815191528062000116565b6200010f60008051602062004a718339815191523362000168565b506200027c565b600082815260208190526040808220600201549051839285917fbd79b86ffe0ab8e8776151514217cd7cacd52c909f66475c3af44e129f0b00ff9190a460009182526020829052604090912060020155565b62000174828262000178565b5050565b6000828152602081815260409091206200019d91839062000fac620001f1821b17901c565b156200017457620001ad62000211565b6001600160a01b0316816001600160a01b0316837f2f8788117e7eff1d82e926ec794901d17c78024a50270940304540a733656f0d60405160405180910390a45050565b600062000208836001600160a01b03841662000215565b90505b92915050565b3390565b600062000223838362000264565b6200025b575081546001818101845560008481526020808220909301849055845484825282860190935260409020919091556200020b565b5060006200020b565b60009081526001919091016020526040902054151590565b6147e5806200028c6000396000f3fe60806040523480156200001157600080fd5b50600436106200012a5760003560e01c806375b238fc11620000bd578063a217fddf116200007b578063a217fddf1462000422578063ca15c873146200042c578063d5391393146200044c578063d547741f1462000456578063e28236981462000485576200012a565b806375b238fc14620002da5780638356453114620002e45780639010d07c14620003ad57806390934a4314620003d357806391d1485414620003f3576200012a565b80631785f53c146200012f578063248a9ca3146200015a57806324d7806c146200018c578063282c51f314620001c95780632f2ff15d14620001d357806336568abe14620002025780634b0ca20e146200023157806370480275146200028857806375829def14620002b1575b600080fd5b62000158600480360360208110156200014757600080fd5b50356001600160a01b0316620004b4565b005b6200017a600480360360208110156200017257600080fd5b50356200051a565b60408051918252519081900360200190f35b620001b560048036036020811015620001a457600080fd5b50356001600160a01b03166200052f565b604080519115158252519081900360200190f35b6200017a62000552565b6200015860048036036040811015620001eb57600080fd5b50803590602001356001600160a01b031662000576565b62000158600480360360408110156200021a57600080fd5b50803590602001356001600160a01b0316620005ea565b6200026c60048036036101408110156200024a57600080fd5b50803590602081019060a081019061012001356001600160a01b031662000651565b604080516001600160a01b039092168252519081900360200190f35b6200015860048036036020811015620002a057600080fd5b50356001600160a01b03166200092f565b6200015860048036036020811015620002c957600080fd5b50356001600160a01b031662000992565b6200017a62000abf565b6200026c6004803603610100811015620002fd57600080fd5b813591602081019160608201919081019060e0810160c08201356401000000008111156200032a57600080fd5b8201836020820111156200033d57600080fd5b803590602001918460018302840111640100000000831117156200036057600080fd5b91908080601f016020809104026020016040519081016040528093929190818152602001838380828437600092019190915250929550505090356001600160a01b0316915062000ad29050565b6200026c60048036036040811015620003c557600080fd5b508035906020013562000de8565b6200026c60048036036020811015620003eb57600080fd5b503562000e09565b620001b5600480360360408110156200040b57600080fd5b50803590602001356001600160a01b031662000e24565b6200017a62000e3e565b6200017a600480360360208110156200044457600080fd5b503562000e43565b6200017a62000e5c565b62000158600480360360408110156200046e57600080fd5b50803590602001356001600160a01b031662000e80565b62000158600480360360408110156200049d57600080fd5b50803590602001356001600160a01b031662000ede565b620004bf336200052f565b620004fc5760405162461bcd60e51b8152600401808060200182810382526022815260200180620046c36022913960400191505060405180910390fd5b620005176000805160206200476183398151915282620005ea565b50565b60009081526020819052604090206002015490565b60006200054c600080516020620047618339815191528362000e24565b92915050565b7f9667e80708b6eeeb0053fa0cca44e028ff548e2a9f029edfeac87c118b08b7c881565b6000828152602081905260409020600201546200059d906200059762000fc3565b62000e24565b620005da5760405162461bcd60e51b815260040180806020018281038252602f81526020018062004694602f913960400191505060405180910390fd5b620005e6828262000fc7565b5050565b620005f462000fc3565b6001600160a01b0316816001600160a01b031614620006455760405162461bcd60e51b815260040180806020018281038252602f81526020018062004781602f913960400191505060405180910390fd5b620005e6828262001035565b6000848152600160205260408120546001600160a01b0316620006a65760405162461bcd60e51b81526004018080602001828103825260248152602001806200473d6024913960400191505060405180910390fd5b60008581526001602090815260408083205481516001600160a01b0389358116958a8601358216958b8601358316956060808e01358516968d3596938e013595928e013594918e01359391921690620006ff906200128a565b6001600160a01b03909116815260405190819003602001906000f0801580156200072d573d6000803e3d6000fd5b5090506001600160a01b0381166200078c576040805162461bcd60e51b815260206004820152601d60248201527f5374616b655661756c74466163746f72793a2070726f7879207a65726f000000604482015290519081900360640190fd5b6040805163372666e560e21b81526001600160a01b038b811660048301528a8116602483015260448201879052606482018690526084820185905289811660a483015260c4820188905288811660e483015291519183169163dc999b94916101048082019260009290919082900301818387803b1580156200080d57600080fd5b505af115801562000822573d6000803e3d6000fd5b50505050806001600160a01b0316632f2ff15d600080516020620047618339815191528d6040518363ffffffff1660e01b815260040180838152602001826001600160a01b0316815260200192505050600060405180830381600087803b1580156200088d57600080fd5b505af1158015620008a2573d6000803e3d6000fd5b50506040805163d547741f60e01b815260008051602062004761833981519152600482015230602482015290516001600160a01b038516935063d547741f9250604480830192600092919082900301818387803b1580156200090357600080fd5b505af115801562000918573d6000803e3d6000fd5b50929b505050505050505050505050949350505050565b6200093a336200052f565b620009775760405162461bcd60e51b8152600401808060200182810382526022815260200180620046c36022913960400191505060405180910390fd5b62000517600080516020620047618339815191528262000576565b6200099d336200052f565b620009da5760405162461bcd60e51b8152600401808060200182810382526022815260200180620046c36022913960400191505060405180910390fd5b6001600160a01b03811662000a31576040805162461bcd60e51b815260206004820152601860248201527741636365737369626c653a207a65726f206164647265737360401b604482015290519081900360640190fd5b336001600160a01b038216141562000a89576040805162461bcd60e51b815260206004820152601660248201527520b1b1b2b9b9b4b136329d1039b0b6b29030b236b4b760511b604482015290519081900360640190fd5b62000aa4600080516020620047618339815191528262000576565b620005176000805160206200476183398151915233620005ea565b6000805160206200476183398151915281565b6000858152600160205260408120546001600160a01b031662000b275760405162461bcd60e51b81526004018080602001828103825260258152602001806200466f6025913960400191505060405180910390fd5b60008681526001602090815260408083205481516001600160a01b038a358116958b8601358216958b3595908c013594908c0135939192169062000b6b9062001298565b6001600160a01b03909116815260405190819003602001906000f08015801562000b99573d6000803e3d6000fd5b5090506001600160a01b03811662000be35760405162461bcd60e51b8152600401808060200182810382526028815260200180620047156028913960400191505060405180910390fd5b806001600160a01b031663b90a762a87878787878f6040518763ffffffff1660e01b815260040180876001600160a01b03168152602001866001600160a01b0316815260200185815260200184815260200183815260200180602001828103825283818151815260200191508051906020019080838360005b8381101562000c7657818101518382015260200162000c5c565b50505050905090810190601f16801562000ca45780820380516001836020036101000a031916815260200191505b50975050505050505050600060405180830381600087803b15801562000cc957600080fd5b505af115801562000cde573d6000803e3d6000fd5b50505050806001600160a01b0316632f2ff15d600080516020620047618339815191528a6040518363ffffffff1660e01b815260040180838152602001826001600160a01b0316815260200192505050600060405180830381600087803b15801562000d4957600080fd5b505af115801562000d5e573d6000803e3d6000fd5b50506040805163d547741f60e01b815260008051602062004761833981519152600482015230602482015290516001600160a01b038516935063d547741f9250604480830192600092919082900301818387803b15801562000dbf57600080fd5b505af115801562000dd4573d6000803e3d6000fd5b50929e9d5050505050505050505050505050565b600082815260208190526040812062000e029083620010a3565b9392505050565b6001602052600090815260409020546001600160a01b031681565b600082815260208190526040812062000e029083620010b1565b600081565b60008181526020819052604081206200054c90620010c8565b7ff0887ba65ee2024ea881d91b74c2450ef19e1557f03bed3ea9f16b037cbe2dc981565b60008281526020819052604090206002015462000ea1906200059762000fc3565b620006455760405162461bcd60e51b8152600401808060200182810382526030815260200180620046e56030913960400191505060405180910390fd5b62000ee9336200052f565b62000f265760405162461bcd60e51b8152600401808060200182810382526022815260200180620046c36022913960400191505060405180910390fd5b806001600160a01b03811662000f7d576040805162461bcd60e51b81526020600482015260176024820152765374616b655661756c74466163746f72793a207a65726f60481b604482015290519081900360640190fd5b5060009182526001602052604090912080546001600160a01b0319166001600160a01b03909216919091179055565b600062000e02836001600160a01b038416620010d5565b3390565b600082815260208190526040902062000fe1908262000fac565b15620005e65762000ff162000fc3565b6001600160a01b0316816001600160a01b0316837f2f8788117e7eff1d82e926ec794901d17c78024a50270940304540a733656f0d60405160405180910390a45050565b60008281526020819052604090206200104f908262001124565b15620005e6576200105f62000fc3565b6001600160a01b0316816001600160a01b0316837ff6391f5c32d9c69d2a47ea670b442974b53935d1edc7fd64eb21e047a839171b60405160405180910390a45050565b600062000e0283836200113b565b600062000e02836001600160a01b038416620011a2565b60006200054c82620011ba565b6000620010e38383620011a2565b6200111b575081546001818101845560008481526020808220909301849055845484825282860190935260409020919091556200054c565b5060006200054c565b600062000e02836001600160a01b038416620011be565b815460009082106200117f5760405162461bcd60e51b81526004018080602001828103825260228152602001806200464d6022913960400191505060405180910390fd5b8260000182815481106200118f57fe5b9060005260206000200154905092915050565b60009081526001919091016020526040902054151590565b5490565b600081815260018301602052604081205480156200127f5783546000198083019190810190600090879083908110620011f357fe5b90600052602060002001549050808760000184815481106200121157fe5b6000918252602080832090910192909255828152600189810190925260409020908401905586548790806200124257fe5b600190038181906000526020600020016000905590558660010160008781526020019081526020016000206000905560019450505050506200054c565b60009150506200054c565b611a5b80620012a783390190565b61194b8062002d028339019056fe60806040523480156200001157600080fd5b5060405162001a5b38038062001a5b833981810160405260208110156200003757600080fd5b50516001600160a01b03811662000095576040805162461bcd60e51b815260206004820152601a60248201527f5374616b653150726f78793a206c6f676963206973207a65726f000000000000604482015290519081900360640190fd5b620000a081620000f8565b620000bb600080516020620019f5833981519152806200016f565b620000d6600080516020620019f583398151915233620001c1565b620000f1600080516020620019f583398151915230620001c1565b50620002db565b6200010e81620001d160201b620011d81760201c565b6200014b5760405162461bcd60e51b815260040180806020018281038252604681526020018062001a156046913960600191505060405180910390fd5b7f360894a13ba1a3210667c828492db98dca3e2076cc3735a920a3ca505d382bbc55565b600082815260208190526040808220600201549051839285917fbd79b86ffe0ab8e8776151514217cd7cacd52c909f66475c3af44e129f0b00ff9190a460009182526020829052604090912060020155565b620001cd8282620001d7565b5050565b3b151590565b600082815260208181526040909120620001fc918390620011de62000250821b17901c565b15620001cd576200020c62000270565b6001600160a01b0316816001600160a01b0316837f2f8788117e7eff1d82e926ec794901d17c78024a50270940304540a733656f0d60405160405180910390a45050565b600062000267836001600160a01b03841662000274565b90505b92915050565b3390565b6000620002828383620002c3565b620002ba575081546001818101845560008481526020808220909301849055845484825282860190935260409020919091556200026a565b5060006200026a565b60009081526001919091016020526040902054151590565b61170a80620002eb6000396000f3fe6080604052600436106101d35760003560e01c806375829def116100f8578063b03dc51411610090578063b03dc51414610627578063b8c766b81461063c578063b97af0db14610651578063ca15c87314610666578063d105bf8514610690578063d5391393146106a5578063d547741f146106ba578063dc999b94146106f3578063dfbf9def146107575761021c565b806375829def146104f657806375b238fc146105295780637cb00d251461053e57806389f395de1461056a5780639010d07c1461057f57806391d14854146105af5780639d84ca35146105e8578063a1f5f50e146105fd578063a217fddf146106125761021c565b806336568abe1161016b57806336568abe146103c45780633659cfe6146103fd5780633a76eb371461043057806343b0934a146104455780634b5e7cd51461045a5780635c60da1b1461046f5780635f1bd62a1461048457806363a8fd89146104ae57806370480275146104c35761021c565b8063153099d0146102265780631785f53c146102625780632002727514610295578063248a9ca3146102aa57806324d7806c146102d4578063282c51f31461031b578063294f5fa3146103305780632f2ff15d14610376578063355274ea146103af5761021c565b3661021c576040805162461bcd60e51b815260206004820152601460248201527331b0b73737ba103932b1b2b4bb329022ba3432b960611b604482015290519081900360640190fd5b610224610825565b005b34801561023257600080fd5b506102506004803603602081101561024957600080fd5b50356108ab565b60408051918252519081900360200190f35b34801561026e57600080fd5b506102246004803603602081101561028557600080fd5b50356001600160a01b03166108cc565b3480156102a157600080fd5b5061025061092b565b3480156102b657600080fd5b50610250600480360360208110156102cd57600080fd5b5035610931565b3480156102e057600080fd5b50610307600480360360208110156102f757600080fd5b50356001600160a01b0316610946565b604080519115158252519081900360200190f35b34801561032757600080fd5b50610250610966565b34801561033c57600080fd5b5061035a6004803603602081101561035357600080fd5b503561098a565b604080516001600160a01b039092168252519081900360200190f35b34801561038257600080fd5b506102246004803603604081101561039957600080fd5b50803590602001356001600160a01b03166109b4565b3480156103bb57600080fd5b50610250610a20565b3480156103d057600080fd5b50610224600480360360408110156103e757600080fd5b50803590602001356001600160a01b0316610a26565b34801561040957600080fd5b506102246004803603602081101561042057600080fd5b50356001600160a01b0316610a87565b34801561043c57600080fd5b50610250610bcc565b34801561045157600080fd5b5061035a610bd2565b34801561046657600080fd5b50610250610be1565b34801561047b57600080fd5b5061035a610be7565b34801561049057600080fd5b50610250600480360360208110156104a757600080fd5b5035610bf6565b3480156104ba57600080fd5b50610307610c08565b3480156104cf57600080fd5b50610224600480360360208110156104e657600080fd5b50356001600160a01b0316610c11565b34801561050257600080fd5b506102246004803603602081101561051957600080fd5b50356001600160a01b0316610c6d565b34801561053557600080fd5b50610250610d8e565b34801561054a57600080fd5b506102246004803603602081101561056157600080fd5b50351515610da0565b34801561057657600080fd5b5061035a610df7565b34801561058b57600080fd5b5061035a600480360360408110156105a257600080fd5b5080359060200135610e06565b3480156105bb57600080fd5b50610307600480360360408110156105d257600080fd5b50803590602001356001600160a01b0316610e25565b3480156105f457600080fd5b5061035a610e3d565b34801561060957600080fd5b50610307610e4c565b34801561061e57600080fd5b50610250610e5a565b34801561063357600080fd5b50610250610e5f565b34801561064857600080fd5b50610307610e65565b34801561065d57600080fd5b50610250610e6e565b34801561067257600080fd5b506102506004803603602081101561068957600080fd5b5035610e74565b34801561069c57600080fd5b50610250610e8b565b3480156106b157600080fd5b50610250610e91565b3480156106c657600080fd5b50610224600480360360408110156106dd57600080fd5b50803590602001356001600160a01b0316610eb5565b3480156106ff57600080fd5b50610224600480360361010081101561071757600080fd5b506001600160a01b038135811691602081013582169160408201359160608101359160808201359160a081013582169160c08201359160e0013516610f0e565b34801561076357600080fd5b5061078a6004803603602081101561077a57600080fd5b50356001600160a01b0316611119565b6040518080602001878152602001868152602001858152602001848152602001838152602001828103825288818151815260200191508051906020019080838360005b838110156107e55781810151838201526020016107cd565b50505050905090810190601f1680156108125780820380516001836020036101000a031916815260200191505b5097505050505050505060405180910390f35b600061082f6111f3565b90506001600160a01b0381161580159061084c575060115460ff16155b6108875760405162461bcd60e51b81526004018080602001828103825260278152602001806116156027913960400191505060405180910390fd5b3660008037600080366000845af43d6000803e8080156108a6573d6000f35b3d6000fd5b600e81815481106108bb57600080fd5b600091825260209091200154905081565b6108d533610946565b6109105760405162461bcd60e51b81526004018080602001828103825260228152602001806115796022913960400191505060405180910390fd5b6109286000805160206115f583398151915282610a26565b50565b60045481565b60009081526020819052604090206002015490565b60006109606000805160206115f583398151915283610e25565b92915050565b7f9667e80708b6eeeb0053fa0cca44e028ff548e2a9f029edfeac87c118b08b7c881565b600c818154811061099a57600080fd5b6000918252602090912001546001600160a01b0316905081565b6000828152602081905260409020600201546109d7906109d2611218565b610e25565b610a125760405162461bcd60e51b815260040180806020018281038252602f81526020018061154a602f913960400191505060405180910390fd5b610a1c828261121c565b5050565b60035481565b610a2e611218565b6001600160a01b0316816001600160a01b031614610a7d5760405162461bcd60e51b815260040180806020018281038252602f8152602001806116a6602f913960400191505060405180910390fd5b610a1c8282611285565b610a9033610946565b610acb5760405162461bcd60e51b81526004018080602001828103825260228152602001806115796022913960400191505060405180910390fd5b6001600160a01b038116610b26576040805162461bcd60e51b815260206004820152601e60248201527f5374616b655661756c7450726f78793a20696e707574206973207a65726f0000604482015290519081900360640190fd5b806001600160a01b0316610b386111f3565b6001600160a01b03161415610b8c576040805162461bcd60e51b81526020600482015260156024820152745374616b655661756c7450726f78793a2073616d6560581b604482015290519081900360640190fd5b610b95816112ee565b6040516001600160a01b038216907fbc7cd75a20ee27fd9adebab32041f755214dbc6bffa90cc0225b39da2e5c2d3b90600090a250565b60065481565b6002546001600160a01b031681565b60055481565b6000610bf16111f3565b905090565b600f6020526000908152604090205481565b60115460ff1681565b610c1a33610946565b610c555760405162461bcd60e51b81526004018080602001828103825260228152602001806115796022913960400191505060405180910390fd5b6109286000805160206115f5833981519152826109b4565b610c7633610946565b610cb15760405162461bcd60e51b81526004018080602001828103825260228152602001806115796022913960400191505060405180910390fd5b6001600160a01b038116610d07576040805162461bcd60e51b815260206004820152601860248201527741636365737369626c653a207a65726f206164647265737360401b604482015290519081900360640190fd5b336001600160a01b0382161415610d5e576040805162461bcd60e51b815260206004820152601660248201527520b1b1b2b9b9b4b136329d1039b0b6b29030b236b4b760511b604482015290519081900360640190fd5b610d766000805160206115f5833981519152826109b4565b6109286000805160206115f583398151915233610a26565b6000805160206115f583398151915281565b610da933610946565b610de45760405162461bcd60e51b81526004018080602001828103825260228152602001806115796022913960400191505060405180910390fd5b6011805460ff1916911515919091179055565b6001546001600160a01b031681565b6000828152602081905260408120610e1e9083611356565b9392505050565b6000828152602081905260408120610e1e9083611362565b600b546001600160a01b031681565b601154610100900460ff1681565b600081565b60075481565b60095460ff1681565b600a5481565b600081815260208190526040812061096090611377565b60085481565b7ff0887ba65ee2024ea881d91b74c2450ef19e1557f03bed3ea9f16b037cbe2dc981565b600082815260208190526040902060020154610ed3906109d2611218565b610a7d5760405162461bcd60e51b81526004018080602001828103825260308152602001806115c56030913960400191505060405180910390fd5b610f1733610946565b610f525760405162461bcd60e51b81526004018080602001828103825260228152602001806115796022913960400191505060405180910390fd5b6001546001600160a01b031615610f9a5760405162461bcd60e51b81526004018080602001828103825260248152602001806116826024913960400191505060405180910390fd5b6001600160a01b03881615801590610fba57506001600160a01b03831615155b61100b576040805162461bcd60e51b815260206004820152601e60248201527f5374616b655661756c7450726f78793a20696e707574206973207a65726f0000604482015290519081900360640190fd5b6000861161105c576040805162461bcd60e51b81526020600482015260196024820152785374616b65315661756c743a205f636170206973207a65726f60381b604482015290519081900360640190fd5b838510801561106b5750600084115b6110a65760405162461bcd60e51b815260040180806020018281038252602a81526020018061159b602a913960400191505060405180910390fd5b600180546001600160a01b03808b166001600160a01b0319928316179092556003889055600280548a841690831617905560048790556005869055600a849055600b80549284169290911691909117905561110f6000805160206115f5833981519152846109b4565b5050505050505050565b600d6020908152600091825260409182902080548351601f600260001961010060018616150201909316929092049182018490048402810184019094528084529092918391908301828280156111b05780601f10611185576101008083540402835291602001916111b0565b820191906000526020600020905b81548152906001019060200180831161119357829003601f168201915b5050505050908060010154908060020154908060030154908060040154908060050154905086565b3b151590565b6000610e1e836001600160a01b038416611382565b7f360894a13ba1a3210667c828492db98dca3e2076cc3735a920a3ca505d382bbc5490565b3390565b600082815260208190526040902061123490826111de565b15610a1c57611241611218565b6001600160a01b0316816001600160a01b0316837f2f8788117e7eff1d82e926ec794901d17c78024a50270940304540a733656f0d60405160405180910390a45050565b600082815260208190526040902061129d90826113cc565b15610a1c576112aa611218565b6001600160a01b0316816001600160a01b0316837ff6391f5c32d9c69d2a47ea670b442974b53935d1edc7fd64eb21e047a839171b60405160405180910390a45050565b6112f7816111d8565b6113325760405162461bcd60e51b815260040180806020018281038252604681526020018061163c6046913960600191505060405180910390fd5b7f360894a13ba1a3210667c828492db98dca3e2076cc3735a920a3ca505d382bbc55565b6000610e1e83836113e1565b6000610e1e836001600160a01b038416611445565b60006109608261145d565b600061138e8383611445565b6113c457508154600181810184556000848152602080822090930184905584548482528286019093526040902091909155610960565b506000610960565b6000610e1e836001600160a01b038416611461565b815460009082106114235760405162461bcd60e51b81526004018080602001828103825260228152602001806115286022913960400191505060405180910390fd5b82600001828154811061143257fe5b9060005260206000200154905092915050565b60009081526001919091016020526040902054151590565b5490565b6000818152600183016020526040812054801561151d578354600019808301919081019060009087908390811061149457fe5b90600052602060002001549050808760000184815481106114b157fe5b6000918252602080832090910192909255828152600189810190925260409020908401905586548790806114e157fe5b60019003818190600052602060002001600090559055866001016000878152602001908152602001600020600090556001945050505050610960565b600091505061096056fe456e756d657261626c655365743a20696e646578206f7574206f6620626f756e6473416363657373436f6e74726f6c3a2073656e646572206d75737420626520616e2061646d696e20746f206772616e7441636365737369626c653a2043616c6c6572206973206e6f7420616e2061646d696e5374616b655661756c7450726f78793a207374617274426c6f636b20697320756e617661696c61626c65416363657373436f6e74726f6c3a2073656e646572206d75737420626520616e2061646d696e20746f207265766f6b65df8b4c520ffe197c5343c6f5aec59570151ef9a492f2c624fd45ddde6135ec425374616b655661756c7450726f78793a20696d706c204f522070726f78792069732066616c736550726f7879426173653a2043616e6e6f742073657420612070726f787920696d706c656d656e746174696f6e20746f2061206e6f6e2d636f6e747261637420616464726573735374616b655661756c7450726f78793a20616c726561647920696e697469616c697a6564416363657373436f6e74726f6c3a2063616e206f6e6c792072656e6f756e636520726f6c657320666f722073656c66a264697066735822122098af4f856543a3283d451ae7c1bb716c619d420b479b627f80b80e713630a92164736f6c63430007060033df8b4c520ffe197c5343c6f5aec59570151ef9a492f2c624fd45ddde6135ec4250726f7879426173653a2043616e6e6f742073657420612070726f787920696d706c656d656e746174696f6e20746f2061206e6f6e2d636f6e7472616374206164647265737360806040523480156200001157600080fd5b506040516200194b3803806200194b833981810160405260208110156200003757600080fd5b50516001600160a01b03811662000095576040805162461bcd60e51b815260206004820152601f60248201527f5374616b65325661756c7450726f78793a206c6f676963206973207a65726f00604482015290519081900360640190fd5b620000a081620000f8565b620000bb600080516020620018e5833981519152806200016f565b620000d6600080516020620018e583398151915233620001c1565b620000f1600080516020620018e583398151915230620001c1565b50620002db565b6200010e81620001d160201b6200104f1760201c565b6200014b5760405162461bcd60e51b8152600401808060200182810382526046815260200180620019056046913960600191505060405180910390fd5b7f360894a13ba1a3210667c828492db98dca3e2076cc3735a920a3ca505d382bbc55565b600082815260208190526040808220600201549051839285917fbd79b86ffe0ab8e8776151514217cd7cacd52c909f66475c3af44e129f0b00ff9190a460009182526020829052604090912060020155565b620001cd8282620001d7565b5050565b3b151590565b600082815260208181526040909120620001fc9183906200105562000250821b17901c565b15620001cd576200020c62000270565b6001600160a01b0316816001600160a01b0316837f2f8788117e7eff1d82e926ec794901d17c78024a50270940304540a733656f0d60405160405180910390a45050565b600062000267836001600160a01b03841662000274565b90505b92915050565b3390565b6000620002828383620002c3565b620002ba575081546001818101845560008481526020808220909301849055845484825282860190935260409020919091556200026a565b5060006200026a565b60009081526001919091016020526040902054151590565b6115fa80620002eb6000396000f3fe6080604052600436106101a75760003560e01c806375829def116100e2578063a217fddf11610085578063a217fddf146105f2578063af182fce14610607578063b90a762a1461061c578063b97af0db146106fb578063ca15c87314610710578063d53913931461073a578063d547741f1461074f578063f009150914610788576101f0565b806375829def146104d657806375b238fc146105095780637cb00d251461051e578063851073671461054a57806389f395de1461055f5780639010d07c1461057457806391d14854146105a4578063a1f5f50e146105dd576101f0565b8063355274ea1161014a578063355274ea146103b257806336568abe146103c75780633659cfe6146104005780634ce77abe146104335780635c60da1b146104485780635f139e3f1461047957806363a8fd891461048e57806370480275146104a3576101f0565b806301f88d26146101fa57806306fdde03146102215780631785f53c146102ab578063248a9ca3146102de57806324d7806c146103085780632736b3911461034f578063282c51f3146103645780632f2ff15d14610379576101f0565b366101f0576040805162461bcd60e51b815260206004820152601460248201527331b0b73737ba103932b1b2b4bb329022ba3432b960611b604482015290519081900360640190fd5b6101f861079d565b005b34801561020657600080fd5b5061020f610823565b60408051918252519081900360200190f35b34801561022d57600080fd5b50610236610829565b6040805160208082528351818301528351919283929083019185019080838360005b83811015610270578181015183820152602001610258565b50505050905090810190601f16801561029d5780820380516001836020036101000a031916815260200191505b509250505060405180910390f35b3480156102b757600080fd5b506101f8600480360360208110156102ce57600080fd5b50356001600160a01b03166108b4565b3480156102ea57600080fd5b5061020f6004803603602081101561030157600080fd5b5035610913565b34801561031457600080fd5b5061033b6004803603602081101561032b57600080fd5b50356001600160a01b0316610928565b604080519115158252519081900360200190f35b34801561035b57600080fd5b5061020f610948565b34801561037057600080fd5b5061020f61094e565b34801561038557600080fd5b506101f86004803603604081101561039c57600080fd5b50803590602001356001600160a01b0316610972565b3480156103be57600080fd5b5061020f6109de565b3480156103d357600080fd5b506101f8600480360360408110156103ea57600080fd5b50803590602001356001600160a01b03166109e4565b34801561040c57600080fd5b506101f86004803603602081101561042357600080fd5b50356001600160a01b0316610a45565b34801561043f57600080fd5b5061020f610b8b565b34801561045457600080fd5b5061045d610b91565b604080516001600160a01b039092168252519081900360200190f35b34801561048557600080fd5b5061020f610ba0565b34801561049a57600080fd5b5061033b610ba6565b3480156104af57600080fd5b506101f8600480360360208110156104c657600080fd5b50356001600160a01b0316610baf565b3480156104e257600080fd5b506101f8600480360360208110156104f957600080fd5b50356001600160a01b0316610c0b565b34801561051557600080fd5b5061020f610d2c565b34801561052a57600080fd5b506101f86004803603602081101561054157600080fd5b50351515610d3e565b34801561055657600080fd5b5061045d610d95565b34801561056b57600080fd5b5061045d610da4565b34801561058057600080fd5b5061045d6004803603604081101561059757600080fd5b5080359060200135610db3565b3480156105b057600080fd5b5061033b600480360360408110156105c757600080fd5b50803590602001356001600160a01b0316610dd2565b3480156105e957600080fd5b5061033b610dea565b3480156105fe57600080fd5b5061020f610df8565b34801561061357600080fd5b5061020f610dfd565b34801561062857600080fd5b506101f8600480360360c081101561063f57600080fd5b6001600160a01b0382358116926020810135909116916040820135916060810135916080820135919081019060c0810160a082013564010000000081111561068657600080fd5b82018360208201111561069857600080fd5b803590602001918460018302840111640100000000831117156106ba57600080fd5b91908080601f016020809104026020016040519081016040528093929190818152602001838380828437600092019190915250929550610e03945050505050565b34801561070757600080fd5b5061020f610faf565b34801561071c57600080fd5b5061020f6004803603602081101561073357600080fd5b5035610fb5565b34801561074657600080fd5b5061020f610fcc565b34801561075b57600080fd5b506101f86004803603604081101561077257600080fd5b50803590602001356001600160a01b0316610ff0565b34801561079457600080fd5b5061020f611049565b60006107a761106a565b90506001600160a01b038116158015906107c45750600d5460ff16155b6107ff5760405162461bcd60e51b81526004018080602001828103825260288152602001806114e36028913960400191505060405180910390fd5b3660008037600080366000845af43d6000803e80801561081e573d6000f35b3d6000fd5b60045481565b6002805460408051602060018416156101000260001901909316849004601f810184900484028201840190925281815292918301828280156108ac5780601f10610881576101008083540402835291602001916108ac565b820191906000526020600020905b81548152906001019060200180831161088f57829003601f168201915b505050505081565b6108bd33610928565b6108f85760405162461bcd60e51b81526004018080602001828103825260228152602001806114916022913960400191505060405180910390fd5b610910600080516020611530833981519152826109e4565b50565b60009081526020819052604090206002015490565b600061094260008051602061153083398151915283610dd2565b92915050565b60055481565b7f9667e80708b6eeeb0053fa0cca44e028ff548e2a9f029edfeac87c118b08b7c881565b6000828152602081905260409020600201546109959061099061108f565b610dd2565b6109d05760405162461bcd60e51b815260040180806020018281038252602f815260200180611462602f913960400191505060405180910390fd5b6109da8282611093565b5050565b60035481565b6109ec61108f565b6001600160a01b0316816001600160a01b031614610a3b5760405162461bcd60e51b815260040180806020018281038252602f815260200180611596602f913960400191505060405180910390fd5b6109da82826110fc565b610a4e33610928565b610a895760405162461bcd60e51b81526004018080602001828103825260228152602001806114916022913960400191505060405180910390fd5b6001600160a01b038116610ae4576040805162461bcd60e51b815260206004820152601f60248201527f5374616b65325661756c7450726f78793a20696e707574206973207a65726f00604482015290519081900360640190fd5b806001600160a01b0316610af661106a565b6001600160a01b03161415610b4b576040805162461bcd60e51b81526020600482015260166024820152755374616b65325661756c7450726f78793a2073616d6560501b604482015290519081900360640190fd5b610b5481611165565b6040516001600160a01b038216907fbc7cd75a20ee27fd9adebab32041f755214dbc6bffa90cc0225b39da2e5c2d3b90600090a250565b60065481565b6000610b9b61106a565b905090565b60095481565b600d5460ff1681565b610bb833610928565b610bf35760405162461bcd60e51b81526004018080602001828103825260228152602001806114916022913960400191505060405180910390fd5b61091060008051602061153083398151915282610972565b610c1433610928565b610c4f5760405162461bcd60e51b81526004018080602001828103825260228152602001806114916022913960400191505060405180910390fd5b6001600160a01b038116610ca5576040805162461bcd60e51b815260206004820152601860248201527741636365737369626c653a207a65726f206164647265737360401b604482015290519081900360640190fd5b336001600160a01b0382161415610cfc576040805162461bcd60e51b815260206004820152601660248201527520b1b1b2b9b9b4b136329d1039b0b6b29030b236b4b760511b604482015290519081900360640190fd5b610d1460008051602061153083398151915282610972565b610910600080516020611530833981519152336109e4565b60008051602061153083398151915281565b610d4733610928565b610d825760405162461bcd60e51b81526004018080602001828103825260228152602001806114916022913960400191505060405180910390fd5b600d805460ff1916911515919091179055565b6008546001600160a01b031681565b6001546001600160a01b031681565b6000828152602081905260408120610dcb90836111cd565b9392505050565b6000828152602081905260408120610dcb90836111d9565b600d54610100900460ff1681565b600081565b600a5481565b610e0c33610928565b610e475760405162461bcd60e51b81526004018080602001828103825260228152602001806114916022913960400191505060405180910390fd5b6001546001600160a01b031615610e8f5760405162461bcd60e51b815260040180806020018281038252602581526020018061150b6025913960400191505060405180910390fd5b6001600160a01b03861615801590610eaf57506001600160a01b03851615155b610f00576040805162461bcd60e51b815260206004820152601f60248201527f5374616b65325661756c7450726f78793a20696e707574206973207a65726f00604482015290519081900360640190fd5b60008311610f51576040805162461bcd60e51b81526020600482015260196024820152785374616b65315661756c743a205f636170206973207a65726f60381b604482015290519081900360640190fd5b600180546001600160a01b0319166001600160a01b0388161790556003839055600784905560068290558051610f8e90600290602084019061139e565b50610fa760008051602061153083398151915286610972565b505050505050565b60075481565b6000818152602081905260408120610942906111ee565b7ff0887ba65ee2024ea881d91b74c2450ef19e1557f03bed3ea9f16b037cbe2dc981565b60008281526020819052604090206002015461100e9061099061108f565b610a3b5760405162461bcd60e51b81526004018080602001828103825260308152602001806114b36030913960400191505060405180910390fd5b600b5481565b3b151590565b6000610dcb836001600160a01b0384166111f9565b7f360894a13ba1a3210667c828492db98dca3e2076cc3735a920a3ca505d382bbc5490565b3390565b60008281526020819052604090206110ab9082611055565b156109da576110b861108f565b6001600160a01b0316816001600160a01b0316837f2f8788117e7eff1d82e926ec794901d17c78024a50270940304540a733656f0d60405160405180910390a45050565b60008281526020819052604090206111149082611243565b156109da5761112161108f565b6001600160a01b0316816001600160a01b0316837ff6391f5c32d9c69d2a47ea670b442974b53935d1edc7fd64eb21e047a839171b60405160405180910390a45050565b61116e8161104f565b6111a95760405162461bcd60e51b81526004018080602001828103825260468152602001806115506046913960600191505060405180910390fd5b7f360894a13ba1a3210667c828492db98dca3e2076cc3735a920a3ca505d382bbc55565b6000610dcb8383611258565b6000610dcb836001600160a01b0384166112bc565b6000610942826112d4565b600061120583836112bc565b61123b57508154600181810184556000848152602080822090930184905584548482528286019093526040902091909155610942565b506000610942565b6000610dcb836001600160a01b0384166112d8565b8154600090821061129a5760405162461bcd60e51b81526004018080602001828103825260228152602001806114406022913960400191505060405180910390fd5b8260000182815481106112a957fe5b9060005260206000200154905092915050565b60009081526001919091016020526040902054151590565b5490565b60008181526001830160205260408120548015611394578354600019808301919081019060009087908390811061130b57fe5b906000526020600020015490508087600001848154811061132857fe5b60009182526020808320909101929092558281526001898101909252604090209084019055865487908061135857fe5b60019003818190600052602060002001600090559055866001016000878152602001908152602001600020600090556001945050505050610942565b6000915050610942565b828054600181600116156101000203166002900490600052602060002090601f0160209004810192826113d4576000855561141a565b82601f106113ed57805160ff191683800117855561141a565b8280016001018555821561141a579182015b8281111561141a5782518255916020019190600101906113ff565b5061142692915061142a565b5090565b5b80821115611426576000815560010161142b56fe456e756d657261626c655365743a20696e646578206f7574206f6620626f756e6473416363657373436f6e74726f6c3a2073656e646572206d75737420626520616e2061646d696e20746f206772616e7441636365737369626c653a2043616c6c6572206973206e6f7420616e2061646d696e416363657373436f6e74726f6c3a2073656e646572206d75737420626520616e2061646d696e20746f207265766f6b655374616b65325661756c7450726f78793a20696d706c204f522070726f78792069732066616c73655374616b65325661756c7450726f78793a20616c726561647920696e697469616c697a6564df8b4c520ffe197c5343c6f5aec59570151ef9a492f2c624fd45ddde6135ec4250726f7879426173653a2043616e6e6f742073657420612070726f787920696d706c656d656e746174696f6e20746f2061206e6f6e2d636f6e74726163742061646472657373416363657373436f6e74726f6c3a2063616e206f6e6c792072656e6f756e636520726f6c657320666f722073656c66a264697066735822122015f321dec0962b8765fd80b3d770e1bbacb1f6385b4e5f734ea6017b88f8386164736f6c63430007060033df8b4c520ffe197c5343c6f5aec59570151ef9a492f2c624fd45ddde6135ec4250726f7879426173653a2043616e6e6f742073657420612070726f787920696d706c656d656e746174696f6e20746f2061206e6f6e2d636f6e74726163742061646472657373456e756d657261626c655365743a20696e646578206f7574206f6620626f756e64735374616b655661756c74466163746f72793a207a65726f207661756c7432206c6f67696320416363657373436f6e74726f6c3a2073656e646572206d75737420626520616e2061646d696e20746f206772616e7441636365737369626c653a2043616c6c6572206973206e6f7420616e2061646d696e416363657373436f6e74726f6c3a2073656e646572206d75737420626520616e2061646d696e20746f207265766f6b655374616b655661756c74466163746f72793a205374616b65325661756c7450726f7879207a65726f5374616b655661756c74466163746f72793a207a65726f207661756c74206c6f67696320df8b4c520ffe197c5343c6f5aec59570151ef9a492f2c624fd45ddde6135ec42416363657373436f6e74726f6c3a2063616e206f6e6c792072656e6f756e636520726f6c657320666f722073656c66a26469706673582212209920f09ac9e12e1f7e087de31d3d72a00a7837b51643239f7a5f04954df67b3764736f6c63430007060033df8b4c520ffe197c5343c6f5aec59570151ef9a492f2c624fd45ddde6135ec42",
  "immutableReferences": {},
  "source": "// SPDX-License-Identifier: MIT\npragma solidity ^0.7.6;\n\nimport \"../interfaces/IStakeVaultFactory.sol\";\nimport {StakeVaultProxy} from \"../stake/StakeVaultProxy.sol\";\nimport {Stake2VaultProxy} from \"../stake/Stake2VaultProxy.sol\";\nimport \"../common/AccessibleCommon.sol\";\n\n//import \"hardhat/console.sol\";\n\n/// @title A factory that creates a vault that hold reward\ncontract StakeVaultFactory is AccessibleCommon, IStakeVaultFactory {\n    mapping(uint256 => address) public vaultLogics;\n\n    modifier nonZero(address _addr) {\n        require(_addr != address(0), \"StakeVaultFactory: zero\");\n        _;\n    }\n\n    /// @dev constructor of StakeVaultFactory\n    /// @param _stakeVaultLogic the logic address used in StakeVault\n    constructor(address _stakeVaultLogic) {\n        require(\n            _stakeVaultLogic != address(0),\n            \"StakeVaultFactory: logic zero\"\n        );\n        vaultLogics[1] = _stakeVaultLogic;\n\n        _setRoleAdmin(ADMIN_ROLE, ADMIN_ROLE);\n        _setupRole(ADMIN_ROLE, msg.sender);\n    }\n\n    /// @dev Set stakeVaultLogic address by _phase\n    /// @param _phase the stake type\n    /// @param _logic the vault logic address\n    function setVaultLogicByPhase(uint256 _phase, address _logic)\n        external\n        override\n        onlyOwner\n        nonZero(_logic)\n    {\n        vaultLogics[_phase] = _logic;\n    }\n\n    /// @dev Create a vault that hold reward, _cap is allocated reward amount.\n    /// @param _phase phase number\n    /// @param _addr the array of [token, paytoken, _stakefactory, defiAddr]\n    /// @param _intInfo array of [_stakeType, _cap, _saleStartBlock, _stakeStartBlock]\n    /// @param owner the owner adderess\n    /// @return a vault address\n    function create(\n        uint256 _phase,\n        address[4] calldata _addr,\n        uint256[4] calldata _intInfo,\n        address owner\n    ) external override returns (address) {\n        require(\n            vaultLogics[_phase] != address(0),\n            \"StakeVaultFactory: zero vault logic \"\n        );\n        address _tos = _addr[0];\n        address _paytoken = _addr[1];\n        address _stakefactory = _addr[2];\n        address _defiAddr = _addr[3];\n        uint256 _stakeType = _intInfo[0];\n        uint256 _cap = _intInfo[1];\n        uint256 _saleStartBlock = _intInfo[2];\n        uint256 _stakeStartBlock = _intInfo[3];\n\n        StakeVaultProxy proxy = new StakeVaultProxy(vaultLogics[_phase]);\n        require(address(proxy) != address(0), \"StakeVaultFactory: proxy zero\");\n\n        proxy.initialize(\n            _tos,\n            _paytoken,\n            _cap,\n            _saleStartBlock,\n            _stakeStartBlock,\n            _stakefactory,\n            _stakeType,\n            _defiAddr\n        );\n\n        proxy.grantRole(ADMIN_ROLE, owner);\n        proxy.revokeRole(ADMIN_ROLE, address(this));\n\n        return address(proxy);\n    }\n\n    /// @dev Create a vault that hold reward, _cap is allocated reward amount.\n    /// @param _phase phase number\n    /// @param _addr the array of [tos, _stakefactory]\n    /// @param _intInfo array of [_stakeType, _cap, _rewardPerBlock ]\n    /// @param owner the owner adderess\n    /// @return a vault address\n    function create2(\n        uint256 _phase,\n        address[2] calldata _addr,\n        uint256[3] calldata _intInfo,\n        string memory _name,\n        address owner\n    ) external override returns (address) {\n        require(\n            vaultLogics[_phase] != address(0),\n            \"StakeVaultFactory: zero vault2 logic \"\n        );\n        address _tos = _addr[0];\n        address _stakefactory = _addr[1];\n        uint256 _stakeType = _intInfo[0];\n        uint256 _cap = _intInfo[1];\n        uint256 _rewardPerBlock = _intInfo[2];\n\n        //console.log(\"create2 %s\", vaultLogics[_phase] );\n\n        Stake2VaultProxy proxy = new Stake2VaultProxy(vaultLogics[_phase]);\n        require(\n            address(proxy) != address(0),\n            \"StakeVaultFactory: Stake2VaultProxy zero\"\n        );\n\n        proxy.initialize(\n            _tos,\n            _stakefactory,\n            _stakeType,\n            _cap,\n            _rewardPerBlock,\n            _name\n        );\n\n        proxy.grantRole(ADMIN_ROLE, owner);\n        proxy.revokeRole(ADMIN_ROLE, address(this));\n\n        return address(proxy);\n    }\n}\n",
  "sourcePath": "/Users/zena/ico2.0/ico20-contracts/contracts/factory/StakeVaultFactory.sol",
  "compiler": {
    "name": "solc",
    "version": "0.7.6+commit.7338295f.Emscripten.clang"
  },
  "schemaVersion": "3.3.4",
  "updatedAt": "2021-08-02T05:01:31.176Z",
  "devdoc": {
    "kind": "dev",
    "methods": {
      "addAdmin(address)": {
        "details": "add admin",
        "params": {
          "account": "address to add"
        }
      },
      "constructor": {
        "details": "constructor of StakeVaultFactory",
        "params": {
          "_stakeVaultLogic": "the logic address used in StakeVault"
        }
      },
      "create(uint256,address[4],uint256[4],address)": {
        "details": "Create a vault that hold reward, _cap is allocated reward amount.",
        "params": {
          "_addr": "the array of [token, paytoken, _stakefactory, defiAddr]",
          "_intInfo": "array of [_stakeType, _cap, _saleStartBlock, _stakeStartBlock]",
          "_phase": "phase number",
          "owner": "the owner adderess"
        },
        "returns": {
          "_0": "a vault address"
        }
      },
      "create2(uint256,address[2],uint256[3],string,address)": {
        "details": "Create a vault that hold reward, _cap is allocated reward amount.",
        "params": {
          "_addr": "the array of [tos, _stakefactory]",
          "_intInfo": "array of [_stakeType, _cap, _rewardPerBlock ]",
          "_phase": "phase number",
          "owner": "the owner adderess"
        },
        "returns": {
          "_0": "a vault address"
        }
      },
      "getRoleAdmin(bytes32)": {
        "details": "Returns the admin role that controls `role`. See {grantRole} and {revokeRole}. To change a role's admin, use {_setRoleAdmin}."
      },
      "getRoleMember(bytes32,uint256)": {
        "details": "Returns one of the accounts that have `role`. `index` must be a value between 0 and {getRoleMemberCount}, non-inclusive. Role bearers are not sorted in any particular way, and their ordering may change at any point. WARNING: When using {getRoleMember} and {getRoleMemberCount}, make sure you perform all queries on the same block. See the following https://forum.openzeppelin.com/t/iterating-over-elements-on-enumerableset-in-openzeppelin-contracts/2296[forum post] for more information."
      },
      "getRoleMemberCount(bytes32)": {
        "details": "Returns the number of accounts that have `role`. Can be used together with {getRoleMember} to enumerate all bearers of a role."
      },
      "grantRole(bytes32,address)": {
        "details": "Grants `role` to `account`. If `account` had not been already granted `role`, emits a {RoleGranted} event. Requirements: - the caller must have ``role``'s admin role."
      },
      "hasRole(bytes32,address)": {
        "details": "Returns `true` if `account` has been granted `role`."
      },
      "isAdmin(address)": {
        "details": "whether admin",
        "params": {
          "account": "address to check"
        }
      },
      "removeAdmin(address)": {
        "details": "remove admin",
        "params": {
          "account": "address to remove"
        }
      },
      "renounceRole(bytes32,address)": {
        "details": "Revokes `role` from the calling account. Roles are often managed via {grantRole} and {revokeRole}: this function's purpose is to provide a mechanism for accounts to lose their privileges if they are compromised (such as when a trusted device is misplaced). If the calling account had been granted `role`, emits a {RoleRevoked} event. Requirements: - the caller must be `account`."
      },
      "revokeRole(bytes32,address)": {
        "details": "Revokes `role` from `account`. If `account` had been granted `role`, emits a {RoleRevoked} event. Requirements: - the caller must have ``role``'s admin role."
      },
      "setVaultLogicByPhase(uint256,address)": {
        "details": "Set stakeVaultLogic address by _phase",
        "params": {
          "_logic": "the vault logic address",
          "_phase": "the stake type"
        }
      },
      "transferAdmin(address)": {
        "details": "transfer admin",
        "params": {
          "newAdmin": "new admin address"
        }
      }
    },
    "title": "A factory that creates a vault that hold reward",
    "version": 1
  },
  "userdoc": {
    "kind": "user",
    "methods": {},
    "version": 1
  }
}