{
  "contractName": "StakeForSFLD",
  "abi": [
    {
      "inputs": [],
      "stateMutability": "nonpayable",
      "type": "constructor"
    },
    {
      "anonymous": false,
      "inputs": [
        {
          "indexed": true,
          "internalType": "bytes32",
          "name": "role",
          "type": "bytes32"
        },
        {
          "indexed": true,
          "internalType": "bytes32",
          "name": "previousAdminRole",
          "type": "bytes32"
        },
        {
          "indexed": true,
          "internalType": "bytes32",
          "name": "newAdminRole",
          "type": "bytes32"
        }
      ],
      "name": "RoleAdminChanged",
      "type": "event"
    },
    {
      "anonymous": false,
      "inputs": [
        {
          "indexed": true,
          "internalType": "bytes32",
          "name": "role",
          "type": "bytes32"
        },
        {
          "indexed": true,
          "internalType": "address",
          "name": "account",
          "type": "address"
        },
        {
          "indexed": true,
          "internalType": "address",
          "name": "sender",
          "type": "address"
        }
      ],
      "name": "RoleGranted",
      "type": "event"
    },
    {
      "anonymous": false,
      "inputs": [
        {
          "indexed": true,
          "internalType": "bytes32",
          "name": "role",
          "type": "bytes32"
        },
        {
          "indexed": true,
          "internalType": "address",
          "name": "account",
          "type": "address"
        },
        {
          "indexed": true,
          "internalType": "address",
          "name": "sender",
          "type": "address"
        }
      ],
      "name": "RoleRevoked",
      "type": "event"
    },
    {
      "inputs": [],
      "name": "ADMIN_ROLE",
      "outputs": [
        {
          "internalType": "bytes32",
          "name": "",
          "type": "bytes32"
        }
      ],
      "stateMutability": "view",
      "type": "function"
    },
    {
      "inputs": [],
      "name": "DEFAULT_ADMIN_ROLE",
      "outputs": [
        {
          "internalType": "bytes32",
          "name": "",
          "type": "bytes32"
        }
      ],
      "stateMutability": "view",
      "type": "function"
    },
    {
      "inputs": [],
      "name": "claimedSFLDTotal",
      "outputs": [
        {
          "internalType": "uint256",
          "name": "",
          "type": "uint256"
        }
      ],
      "stateMutability": "view",
      "type": "function"
    },
    {
      "inputs": [],
      "name": "fld",
      "outputs": [
        {
          "internalType": "contract IFLD",
          "name": "",
          "type": "address"
        }
      ],
      "stateMutability": "view",
      "type": "function"
    },
    {
      "inputs": [
        {
          "internalType": "bytes32",
          "name": "role",
          "type": "bytes32"
        }
      ],
      "name": "getRoleAdmin",
      "outputs": [
        {
          "internalType": "bytes32",
          "name": "",
          "type": "bytes32"
        }
      ],
      "stateMutability": "view",
      "type": "function"
    },
    {
      "inputs": [
        {
          "internalType": "bytes32",
          "name": "role",
          "type": "bytes32"
        },
        {
          "internalType": "uint256",
          "name": "index",
          "type": "uint256"
        }
      ],
      "name": "getRoleMember",
      "outputs": [
        {
          "internalType": "address",
          "name": "",
          "type": "address"
        }
      ],
      "stateMutability": "view",
      "type": "function"
    },
    {
      "inputs": [
        {
          "internalType": "bytes32",
          "name": "role",
          "type": "bytes32"
        }
      ],
      "name": "getRoleMemberCount",
      "outputs": [
        {
          "internalType": "uint256",
          "name": "",
          "type": "uint256"
        }
      ],
      "stateMutability": "view",
      "type": "function"
    },
    {
      "inputs": [
        {
          "internalType": "bytes32",
          "name": "role",
          "type": "bytes32"
        },
        {
          "internalType": "address",
          "name": "account",
          "type": "address"
        }
      ],
      "name": "grantRole",
      "outputs": [],
      "stateMutability": "nonpayable",
      "type": "function"
    },
    {
      "inputs": [
        {
          "internalType": "bytes32",
          "name": "role",
          "type": "bytes32"
        },
        {
          "internalType": "address",
          "name": "account",
          "type": "address"
        }
      ],
      "name": "hasRole",
      "outputs": [
        {
          "internalType": "bool",
          "name": "",
          "type": "bool"
        }
      ],
      "stateMutability": "view",
      "type": "function"
    },
    {
      "inputs": [
        {
          "internalType": "bytes32",
          "name": "role",
          "type": "bytes32"
        },
        {
          "internalType": "address",
          "name": "account",
          "type": "address"
        }
      ],
      "name": "renounceRole",
      "outputs": [],
      "stateMutability": "nonpayable",
      "type": "function"
    },
    {
      "inputs": [
        {
          "internalType": "bytes32",
          "name": "role",
          "type": "bytes32"
        },
        {
          "internalType": "address",
          "name": "account",
          "type": "address"
        }
      ],
      "name": "revokeRole",
      "outputs": [],
      "stateMutability": "nonpayable",
      "type": "function"
    },
    {
      "inputs": [
        {
          "internalType": "uint256",
          "name": "",
          "type": "uint256"
        }
      ],
      "name": "rewardRatio",
      "outputs": [
        {
          "internalType": "uint256",
          "name": "",
          "type": "uint256"
        }
      ],
      "stateMutability": "view",
      "type": "function"
    },
    {
      "inputs": [],
      "name": "sfld",
      "outputs": [
        {
          "internalType": "contract ISFLD",
          "name": "",
          "type": "address"
        }
      ],
      "stateMutability": "view",
      "type": "function"
    },
    {
      "inputs": [],
      "name": "startBlock",
      "outputs": [
        {
          "internalType": "uint256",
          "name": "",
          "type": "uint256"
        }
      ],
      "stateMutability": "view",
      "type": "function"
    },
    {
      "inputs": [],
      "name": "started",
      "outputs": [
        {
          "internalType": "bool",
          "name": "",
          "type": "bool"
        }
      ],
      "stateMutability": "view",
      "type": "function"
    },
    {
      "inputs": [],
      "name": "totalStakedAmount",
      "outputs": [
        {
          "internalType": "uint256",
          "name": "",
          "type": "uint256"
        }
      ],
      "stateMutability": "view",
      "type": "function"
    },
    {
      "inputs": [
        {
          "internalType": "address",
          "name": "",
          "type": "address"
        }
      ],
      "name": "userStaked",
      "outputs": [
        {
          "internalType": "uint256",
          "name": "amount",
          "type": "uint256"
        },
        {
          "internalType": "uint256",
          "name": "startBlock",
          "type": "uint256"
        },
        {
          "internalType": "uint256",
          "name": "periodBlock",
          "type": "uint256"
        },
        {
          "internalType": "uint256",
          "name": "rewardPerBlock",
          "type": "uint256"
        },
        {
          "internalType": "uint256",
          "name": "claimedBlock",
          "type": "uint256"
        },
        {
          "internalType": "uint256",
          "name": "claimedAmount",
          "type": "uint256"
        },
        {
          "internalType": "uint256",
          "name": "releasedBlock",
          "type": "uint256"
        },
        {
          "internalType": "uint256",
          "name": "releasedAmount",
          "type": "uint256"
        }
      ],
      "stateMutability": "view",
      "type": "function"
    },
    {
      "inputs": [
        {
          "internalType": "address",
          "name": "newOwner",
          "type": "address"
        }
      ],
      "name": "transferOwnership",
      "outputs": [],
      "stateMutability": "nonpayable",
      "type": "function"
    },
    {
      "inputs": [
        {
          "internalType": "address",
          "name": "_fld",
          "type": "address"
        },
        {
          "internalType": "address",
          "name": "_sfld",
          "type": "address"
        },
        {
          "internalType": "uint256",
          "name": "_startBlock",
          "type": "uint256"
        }
      ],
      "name": "initialize",
      "outputs": [],
      "stateMutability": "nonpayable",
      "type": "function"
    },
    {
      "inputs": [
        {
          "internalType": "bool",
          "name": "_started",
          "type": "bool"
        }
      ],
      "name": "setStarted",
      "outputs": [],
      "stateMutability": "nonpayable",
      "type": "function"
    },
    {
      "inputs": [
        {
          "internalType": "uint256",
          "name": "period",
          "type": "uint256"
        },
        {
          "internalType": "uint256",
          "name": "ratio",
          "type": "uint256"
        }
      ],
      "name": "addRewardRatio",
      "outputs": [],
      "stateMutability": "nonpayable",
      "type": "function"
    },
    {
      "inputs": [
        {
          "internalType": "uint256",
          "name": "amount",
          "type": "uint256"
        },
        {
          "internalType": "uint256",
          "name": "_periodBlock",
          "type": "uint256"
        },
        {
          "internalType": "uint256",
          "name": "deadline",
          "type": "uint256"
        },
        {
          "internalType": "bytes",
          "name": "signature",
          "type": "bytes"
        }
      ],
      "name": "stake",
      "outputs": [],
      "stateMutability": "nonpayable",
      "type": "function"
    },
    {
      "inputs": [],
      "name": "claim",
      "outputs": [],
      "stateMutability": "nonpayable",
      "type": "function"
    },
    {
      "inputs": [
        {
          "internalType": "uint256",
          "name": "amount",
          "type": "uint256"
        },
        {
          "internalType": "uint256",
          "name": "deadline",
          "type": "uint256"
        },
        {
          "internalType": "bytes",
          "name": "signature",
          "type": "bytes"
        }
      ],
      "name": "withdraw",
      "outputs": [],
      "stateMutability": "nonpayable",
      "type": "function"
    }
  ],
  "bytecode": "0x60806040523480156200001157600080fd5b506200002d60008051602062001fe4833981519152806200004e565b6200004860008051602062001fe483398151915233620000a0565b620001b4565b600082815260208190526040808220600201549051839285917fbd79b86ffe0ab8e8776151514217cd7cacd52c909f66475c3af44e129f0b00ff9190a460009182526020829052604090912060020155565b620000ac8282620000b0565b5050565b600082815260208181526040909120620000d59183906200170962000129821b17901c565b15620000ac57620000e562000149565b6001600160a01b0316816001600160a01b0316837f2f8788117e7eff1d82e926ec794901d17c78024a50270940304540a733656f0d60405160405180910390a45050565b600062000140836001600160a01b0384166200014d565b90505b92915050565b3390565b60006200015b83836200019c565b620001935750815460018181018455600084815260208082209093018490558454848252828601909352604090209190915562000143565b50600062000143565b60009081526001919091016020526040902054151590565b611e2080620001c46000396000f3fe608060405234801561001057600080fd5b50600436106101585760003560e01c8063744fb6ca116100c3578063acc3a9391161007c578063acc3a93914610486578063c3ba0b31146104ed578063ca15c873146104f5578063d547741f14610512578063ef6b141a1461053e578063f2fde38b1461055d57610158565b8063744fb6ca1461036d57806375b238fc1461041f5780639010d07c1461042757806391d148541461044a5780639c959c6914610476578063a217fddf1461047e57610158565b80632f2ff15d116101155780632f2ff15d146102d957806333bd2a491461030557806336568abe1461032957806348cd4cb1146103555780634e71d92d1461035d578063567e98f91461036557610158565b806308f101c51461015d5780630b9a6f10146101825780631794bb3c146101b15780631f2698ab146101e75780632099422814610203578063248a9ca3146102bc575b600080fd5b6101806004803603604081101561017357600080fd5b5080359060200135610583565b005b61019f6004803603602081101561019857600080fd5b5035610640565b60408051918252519081900360200190f35b610180600480360360608110156101c757600080fd5b506001600160a01b03813581169160208101359091169060400135610652565b6101ef610775565b604080519115158252519081900360200190f35b6101806004803603608081101561021957600080fd5b8135916020810135916040820135919081019060808101606082013564010000000081111561024757600080fd5b82018360208201111561025957600080fd5b8035906020019184600183028401116401000000008311171561027b57600080fd5b91908080601f01602080910402602001604051908101604052809392919081815260200183838082843760009201919091525092955061077e945050505050565b61019f600480360360208110156102d257600080fd5b5035610b0e565b610180600480360360408110156102ef57600080fd5b50803590602001356001600160a01b0316610b23565b61030d610b8f565b604080516001600160a01b039092168252519081900360200190f35b6101806004803603604081101561033f57600080fd5b50803590602001356001600160a01b0316610b9e565b61019f610bff565b610180610c05565b61019f610f1d565b6101806004803603606081101561038357600080fd5b8135916020810135918101906060810160408201356401000000008111156103aa57600080fd5b8201836020820111156103bc57600080fd5b803590602001918460018302840111640100000000831117156103de57600080fd5b91908080601f016020809104026020016040519081016040528093929190818152602001838380828437600092019190915250929550610f23945050505050565b61019f611449565b61030d6004803603604081101561043d57600080fd5b508035906020013561145b565b6101ef6004803603604081101561046057600080fd5b50803590602001356001600160a01b031661147c565b61030d611494565b61019f6114a3565b6104ac6004803603602081101561049c57600080fd5b50356001600160a01b03166114a8565b604080519889526020890197909752878701959095526060870193909352608086019190915260a085015260c084015260e083015251908190036101000190f35b61019f6114eb565b61019f6004803603602081101561050b57600080fd5b50356114f1565b6101806004803603604081101561052857600080fd5b50803590602001356001600160a01b0316611508565b6101806004803603602081101561055457600080fd5b50351515611561565b6101806004803603602081101561057357600080fd5b50356001600160a01b0316611625565b61059b600080516020611d2f8339815191523361147c565b6105d65760405162461bcd60e51b8152600401808060200182810382526024815260200180611d4f6024913960400191505060405180910390fd5b60075460ff16151560011461062e576040805162461bcd60e51b815260206004820152601960248201527814dd185ad9519bdc94d193110e881b9bdd081cdd185c9d1959603a1b604482015290519081900360640190fd5b60009182526006602052604090912055565b60066020526000908152604090205481565b61066a600080516020611d2f8339815191523361147c565b6106a55760405162461bcd60e51b8152600401808060200182810382526024815260200180611d4f6024913960400191505060405180910390fd5b6001600160a01b038316158015906106c557506001600160a01b03821615155b80156106d15750600081115b80156106e0575060075460ff16155b610731576040805162461bcd60e51b815260206004820152601b60248201527f5374616b65466f7253464c443a20696e707574206973207a65726f0000000000604482015290519081900360640190fd5b600180546001600160a01b039485166001600160a01b031991821617825560028054949095169316929092179092556005919091556007805460ff19169091179055565b60075460ff1681565b600084118015610795575060075460ff1615156001145b80156107a15750600082115b6107f2576040805162461bcd60e51b815260206004820152601c60248201527f5374616b65466f7253464c443a20616d6f756e74206973207a65726f00000000604482015290519081900360640190fd5b600083815260066020526040902054610852576040805162461bcd60e51b815260206004820181905260248201527f5374616b65466f7253464c443a20756e65676973746572656420706572696f64604482015290519081900360640190fd5b600154604080516370a0823160e01b8152336004820152905186926001600160a01b0316916370a08231916024808301926020929190829003018186803b15801561089c57600080fd5b505afa1580156108b0573d6000803e3d6000fd5b505050506040513d60208110156108c657600080fd5b505110156109055760405162461bcd60e51b8152600401808060200182810382526024815260200180611d736024913960400191505060405180910390fd5b33600090815260086020526040902060018101544311610968576040805162461bcd60e51b815260206004820152601960248201527814dd185ad9519bdc94d193110e881b9bdd081cdd185c9d1959603a1b604482015290519081900360640190fd5b8054610974908661171e565b815543600182015560028101849055600454610990908661171e565b6004908155600154604051639fd5a6cf60e01b8152339281018381523060248301819052604483018a90526064830188905260a060848401908152875160a485015287516001600160a01b0390951695639fd5a6cf95909492938c938b938b93909160c40190602085019080838360005b83811015610a19578181015183820152602001610a01565b50505050905090810190601f168015610a465780820380516001836020036101000a031916815260200191505b509650505050505050600060405180830381600087803b158015610a6957600080fd5b505af1158015610a7d573d6000803e3d6000fd5b5050600154604080516323b872dd60e01b8152336004820152306024820152604481018a905290516001600160a01b0390921693506323b872dd92506064808201926020929091908290030181600087803b158015610adb57600080fd5b505af1158015610aef573d6000803e3d6000fd5b505050506040513d6020811015610b0557600080fd5b50505050505050565b60009081526020819052604090206002015490565b600082815260208190526040902060020154610b4690610b41611778565b61147c565b610b815760405162461bcd60e51b815260040180806020018281038252602f815260200180611c1b602f913960400191505060405180910390fd5b610b8b828261177c565b5050565b6001546001600160a01b031681565b610ba6611778565b6001600160a01b0316816001600160a01b031614610bf55760405162461bcd60e51b815260040180806020018281038252602f815260200180611dbc602f913960400191505060405180910390fd5b610b8b82826117e5565b60055481565b33600090815260086020526040902060075460ff1615156001148015610c2e5750438160010154105b610c7b576040805162461bcd60e51b815260206004820152601960248201527814dd185ad9519bdc94d193110e881b9bdd081cdd185c9d1959603a1b604482015290519081900360640190fd5b8054610cce576040805162461bcd60e51b815260206004820152601860248201527f5374616b65466f7253464c443a20616d6f756e74203e20300000000000000000604482015290519081900360640190fd5b6003810154610d085760028101546000818152600660205260409020548254610d029291610cfc919061184e565b906118a7565b60038201555b60028101546000908152600660205260409020548154610d279161184e565b816005015410610d685760405162461bcd60e51b8152600401808060200182810382526021815260200180611c726021913960400191505060405180910390fd5b600043610d868360020154846001015461171e90919063ffffffff16565b1015610dc357600582015460028301546000908152600660205260409020548354610dbc9291610db6919061184e565b906118e9565b9050610e21565b6000610ddc8360010154436118e990919063ffffffff16565b905060008360040154118015610df55750438360040154105b15610e0d576004830154610e0a9043906118e9565b90505b6003830154610e1d90829061184e565b9150505b60008111610e6f576040805162461bcd60e51b81526020600482015260166024820152755374616b65313a20726577617264206973207a65726f60501b604482015290519081900360640190fd5b4360048301556005820154610e84908261171e565b6005830155600354610e96908261171e565b600355600254604080516340c10f1960e01b81523360048201526024810184905290516001600160a01b03909216916340c10f19916044808201926020929091908290030181600087803b158015610eed57600080fd5b505af1158015610f01573d6000803e3d6000fd5b505050506040513d6020811015610f1757600080fd5b50505050565b60045481565b33600090815260086020526040902060075460ff1615156001148015610f4b57506006810154155b610f98576040805162461bcd60e51b815260206004820152601960248201527814dd185ad9519bdc94d193110e881b9bdd081cdd185c9d1959603a1b604482015290519081900360640190fd5b805415801590610fb9575060028101546001820154610fb69161171e565b43115b610ff45760405162461bcd60e51b8152600401808060200182810382526027815260200180611ce76027913960400191505060405180910390fd5b600254604080516370a0823160e01b815233600482015290516000926001600160a01b0316916370a08231916024808301926020929190829003018186803b15801561103f57600080fd5b505afa158015611053573d6000803e3d6000fd5b505050506040513d602081101561106957600080fd5b50519050801580159061107b57508085145b6110b65760405162461bcd60e51b8152600401808060200182810382526024815260200180611c936024913960400191505060405180910390fd5b60078201546110c5908261171e565b6007830155436006830155600154604080516370a0823160e01b815230600482015290516000926001600160a01b0316916370a08231916024808301926020929190829003018186803b15801561111b57600080fd5b505afa15801561112f573d6000803e3d6000fd5b505050506040513d602081101561114557600080fd5b50519050808211156111e0576001546001600160a01b03166340c10f193061116d85856118e9565b6040518363ffffffff1660e01b815260040180836001600160a01b0316815260200182815260200192505050602060405180830381600087803b1580156111b357600080fd5b505af11580156111c7573d6000803e3d6000fd5b505050506040513d60208110156111dd57600080fd5b50505b600254604051639fd5a6cf60e01b81523360048201818152306024840181905260448401879052606484018a905260a060848501908152895160a486015289516001600160a01b0390961695639fd5a6cf95929389938d938d93909160c40190602085019080838360005b8381101561126357818101518382015260200161124b565b50505050905090810190601f1680156112905780820380516001836020036101000a031916815260200191505b509650505050505050600060405180830381600087803b1580156112b357600080fd5b505af11580156112c7573d6000803e3d6000fd5b505060025460408051632770a7eb60e21b81523360048201526024810187905290516001600160a01b039092169350639dc29fac92506044808201926020929091908290030181600087803b15801561131f57600080fd5b505af1158015611333573d6000803e3d6000fd5b505050506040513d602081101561134957600080fd5b50516113865760405162461bcd60e51b8152600401808060200182810382526025815260200180611d976025913960400191505060405180910390fd5b6001546040805163a9059cbb60e01b81523360048201526024810185905290516001600160a01b039092169163a9059cbb916044808201926020929091908290030181600087803b1580156113da57600080fd5b505af11580156113ee573d6000803e3d6000fd5b505050506040513d602081101561140457600080fd5b50516114415760405162461bcd60e51b8152600401808060200182810382526028815260200180611c4a6028913960400191505060405180910390fd5b505050505050565b600080516020611d2f83398151915281565b6000828152602081905260408120611473908361192b565b90505b92915050565b60008281526020819052604081206114739083611937565b6002546001600160a01b031681565b600081565b6008602052600090815260409020805460018201546002830154600384015460048501546005860154600687015460079097015495969495939492939192909188565b60035481565b60008181526020819052604081206114769061194c565b60008281526020819052604090206002015461152690610b41611778565b610bf55760405162461bcd60e51b8152600401808060200182810382526030815260200180611cb76030913960400191505060405180910390fd5b611579600080516020611d2f8339815191523361147c565b6115b45760405162461bcd60e51b8152600401808060200182810382526024815260200180611d4f6024913960400191505060405180910390fd5b60075460ff1615158115151415611612576040805162461bcd60e51b815260206004820152601960248201527f5374616b65466f7253464c443a2073616d652073746174757300000000000000604482015290519081900360640190fd5b6007805460ff1916911515919091179055565b61163d600080516020611d2f8339815191523361147c565b6116785760405162461bcd60e51b8152600401808060200182810382526024815260200180611d4f6024913960400191505060405180910390fd5b336001600160a01b03821614156116d6576040805162461bcd60e51b815260206004820152601760248201527f5374616b65466f7253464c443a73616d65206f776e6572000000000000000000604482015290519081900360640190fd5b6116ee600080516020611d2f83398151915282610b23565b611706600080516020611d2f83398151915233611508565b50565b6000611473836001600160a01b038416611957565b600082820183811015611473576040805162461bcd60e51b815260206004820152601b60248201527f536166654d6174683a206164646974696f6e206f766572666c6f770000000000604482015290519081900360640190fd5b3390565b60008281526020819052604090206117949082611709565b15610b8b576117a1611778565b6001600160a01b0316816001600160a01b0316837f2f8788117e7eff1d82e926ec794901d17c78024a50270940304540a733656f0d60405160405180910390a45050565b60008281526020819052604090206117fd90826119a1565b15610b8b5761180a611778565b6001600160a01b0316816001600160a01b0316837ff6391f5c32d9c69d2a47ea670b442974b53935d1edc7fd64eb21e047a839171b60405160405180910390a45050565b60008261185d57506000611476565b8282028284828161186a57fe5b04146114735760405162461bcd60e51b8152600401808060200182810382526021815260200180611d0e6021913960400191505060405180910390fd5b600061147383836040518060400160405280601a81526020017f536166654d6174683a206469766973696f6e206279207a65726f0000000000008152506119b6565b600061147383836040518060400160405280601e81526020017f536166654d6174683a207375627472616374696f6e206f766572666c6f770000815250611a58565b60006114738383611ab2565b6000611473836001600160a01b038416611b16565b600061147682611b2e565b60006119638383611b16565b61199957508154600181810184556000848152602080822090930184905584548482528286019093526040902091909155611476565b506000611476565b6000611473836001600160a01b038416611b32565b60008183611a425760405162461bcd60e51b81526004018080602001828103825283818151815260200191508051906020019080838360005b83811015611a075781810151838201526020016119ef565b50505050905090810190601f168015611a345780820380516001836020036101000a031916815260200191505b509250505060405180910390fd5b506000838581611a4e57fe5b0495945050505050565b60008184841115611aaa5760405162461bcd60e51b8152602060048201818152835160248401528351909283926044909101919085019080838360008315611a075781810151838201526020016119ef565b505050900390565b81546000908210611af45760405162461bcd60e51b8152600401808060200182810382526022815260200180611bf96022913960400191505060405180910390fd5b826000018281548110611b0357fe5b9060005260206000200154905092915050565b60009081526001919091016020526040902054151590565b5490565b60008181526001830160205260408120548015611bee5783546000198083019190810190600090879083908110611b6557fe5b9060005260206000200154905080876000018481548110611b8257fe5b600091825260208083209091019290925582815260018981019092526040902090840190558654879080611bb257fe5b60019003818190600052602060002001600090559055866001016000878152602001908152602001600020600090556001945050505050611476565b600091505061147656fe456e756d657261626c655365743a20696e646578206f7574206f6620626f756e6473416363657373436f6e74726f6c3a2073656e646572206d75737420626520616e2061646d696e20746f206772616e745374616b65466f7253464c443a20776974686472617720666c642e7472616e73666572206661696c5374616b65466f7253464c443a20416c726561647920636c61696d656420616c6c5374616b65466f7253464c443a2062616c616e63654f662053464c44206973207a65726f416363657373436f6e74726f6c3a2073656e646572206d75737420626520616e2061646d696e20746f207265766f6b655374616b65466f7253464c443a207374616b696e6720706572696f64206973206e6f7420656e64536166654d6174683a206d756c7469706c69636174696f6e206f766572666c6f77df8b4c520ffe197c5343c6f5aec59570151ef9a492f2c624fd45ddde6135ec425374616b65466f7253464c443a2043616c6c6572206973206e6f7420616e2061646d696e5374616b65466f7253464c443a20464c442e62616c616e63654f66206973206c61636b2e5374616b65466f7253464c443a2077697468647261772073666c642e6275726e206661696c416363657373436f6e74726f6c3a2063616e206f6e6c792072656e6f756e636520726f6c657320666f722073656c66a26469706673582212201ca5b3140d3aa885fdfd9a716637c3b0c2fa2def32487bf646f7a33942d9d74564736f6c63430007060033df8b4c520ffe197c5343c6f5aec59570151ef9a492f2c624fd45ddde6135ec42",
  "immutableReferences": {},
  "source": "//SPDX-License-Identifier: Unlicense\npragma solidity ^0.7.0;\n\nimport \"../interfaces/IFLD.sol\";\nimport \"../interfaces/ISFLD.sol\";\nimport \"../libraries/LibTokenStake1.sol\";\nimport {SafeMath} from \"../utils/math/SafeMath.sol\";\nimport \"@openzeppelin/contracts/access/AccessControl.sol\";\n\ncontract StakeForSFLD is AccessControl {\n    using SafeMath for uint256;\n    bytes32 public constant ADMIN_ROLE = keccak256(\"ADMIN\");\n\n    // reward token : FLD\n    IFLD public fld;\n    // governance token : SFLD\n    ISFLD public sfld;\n\n    // amount of claimed SFLD in wei unit,\n    uint256 public claimedSFLDTotal;\n\n    // amount of total staked ,\n    uint256 public totalStakedAmount;\n\n    uint256 public startBlock;\n    // periodBlock - rewardRatio\n    mapping(uint256 => uint256) public rewardRatio;\n\n    bool public started;\n    mapping(address => LibTokenStake1.StakedAmountForSFLD) public userStaked;\n\n    modifier onlyOwner() {\n        require(\n            hasRole(ADMIN_ROLE, msg.sender),\n            \"StakeForSFLD: Caller is not an admin\"\n        );\n        _;\n    }\n\n    constructor() {\n        _setRoleAdmin(ADMIN_ROLE, ADMIN_ROLE);\n        _setupRole(ADMIN_ROLE, msg.sender);\n    }\n\n    function transferOwnership(address newOwner) external onlyOwner {\n        require(msg.sender != newOwner, \"StakeForSFLD:same owner\");\n        grantRole(ADMIN_ROLE, newOwner);\n        revokeRole(ADMIN_ROLE, msg.sender);\n    }\n\n    function initialize(\n        address _fld,\n        address _sfld,\n        uint256 _startBlock\n    ) external onlyOwner {\n        require(\n            _fld != address(0) &&\n                _sfld != address(0) &&\n                _startBlock > 0 &&\n                started == false,\n            \"StakeForSFLD: input is zero\"\n        );\n\n        fld = IFLD(_fld);\n        sfld = ISFLD(_sfld);\n        startBlock = _startBlock;\n        started = true;\n    }\n\n    /**\n     * external\n     */\n    function setStarted(bool _started) external onlyOwner {\n        require(started != _started, \"StakeForSFLD: same status\");\n        started = _started;\n    }\n\n    function addRewardRatio(uint256 period, uint256 ratio) external onlyOwner {\n        require(started == true, \"StakeForSFLD: not started\");\n        rewardRatio[period] = ratio;\n    }\n\n    /// dev. If you staking before, but if you staking additionally,\n    /// it will be reset to the most recent value.\n    function stake(\n        uint256 amount,\n        uint256 _periodBlock,\n        uint256 deadline,\n        bytes memory signature\n    ) external {\n        require(\n            amount > 0 && started == true && deadline > 0,\n            \"StakeForSFLD: amount is zero\"\n        );\n        //Rewards for the period have not been registered.\n        require(\n            rewardRatio[_periodBlock] > 0,\n            \"StakeForSFLD: unegistered period\"\n        );\n\n        require(\n            fld.balanceOf(msg.sender) >= amount,\n            \"StakeForSFLD: FLD.balanceOf is lack.\"\n        );\n\n        LibTokenStake1.StakedAmountForSFLD storage staked =\n            userStaked[msg.sender];\n        require(staked.startBlock < block.number, \"StakeForSFLD: not started\");\n\n        staked.amount = staked.amount.add(amount);\n        staked.startBlock = block.number;\n        staked.periodBlock = _periodBlock;\n        totalStakedAmount = totalStakedAmount.add(amount);\n\n        fld.permit(msg.sender, address(this), amount, deadline, signature);\n        fld.transferFrom(msg.sender, address(this), amount);\n    }\n\n    /// dev. SFLD is minted according to the ratio of the specified period.\n    function claim() external {\n        LibTokenStake1.StakedAmountForSFLD storage staked =\n            userStaked[msg.sender];\n        require(\n            started == true && staked.startBlock < block.number,\n            \"StakeForSFLD: not started\"\n        );\n        require(staked.amount > 0, \"StakeForSFLD: amount > 0\");\n\n        if (staked.rewardPerBlock == 0) {\n            staked.rewardPerBlock = staked\n                .amount\n                .mul(rewardRatio[staked.periodBlock])\n                .div(staked.periodBlock);\n        }\n\n        require(\n            staked.claimedAmount <\n                staked.amount.mul(rewardRatio[staked.periodBlock]),\n            \"StakeForSFLD: Already claimed all\"\n        );\n\n        uint256 rewardClaim = 0;\n        if (staked.startBlock.add(staked.periodBlock) < block.number) {\n            rewardClaim = staked\n                .amount\n                .mul(rewardRatio[staked.periodBlock])\n                .sub(staked.claimedAmount);\n        } else {\n            // Amount you can be rewarded currently\n            uint256 pastBlocks = block.number.sub(staked.startBlock);\n            if (staked.claimedBlock > 0 && staked.claimedBlock < block.number)\n                pastBlocks = block.number.sub(staked.claimedBlock);\n            rewardClaim = pastBlocks.mul(staked.rewardPerBlock);\n        }\n\n        require(rewardClaim > 0, \"Stake1: reward is zero\");\n        staked.claimedBlock = block.number;\n        staked.claimedAmount = staked.claimedAmount.add(rewardClaim);\n        claimedSFLDTotal = claimedSFLDTotal.add(rewardClaim);\n\n        sfld.mint(msg.sender, rewardClaim);\n    }\n\n    /// dev. You can change to FLD as much as you have SFLD. exchage SFLD to FLD.\n    /// check again later.\n    function withdraw(\n        uint256 amount,\n        uint256 deadline,\n        bytes memory signature\n    ) external {\n        LibTokenStake1.StakedAmountForSFLD storage staked =\n            userStaked[msg.sender];\n        require(\n            started == true && staked.releasedBlock == 0,\n            \"StakeForSFLD: not started\"\n        );\n        require(\n            staked.amount > 0 &&\n                block.number > staked.startBlock.add(staked.periodBlock),\n            \"StakeForSFLD: staking period is not end\"\n        );\n\n        uint256 sfldBalance = sfld.balanceOf(msg.sender);\n        require(\n            sfldBalance > 0 && amount == sfldBalance,\n            \"StakeForSFLD: balanceOf SFLD is zero\"\n        );\n\n        staked.releasedAmount = staked.releasedAmount.add(sfldBalance);\n        staked.releasedBlock = block.number;\n\n        uint256 fldBalance = fld.balanceOf(address(this));\n        if (sfldBalance > fldBalance)\n            fld.mint(address(this), sfldBalance.sub(fldBalance));\n\n        sfld.permit(\n            msg.sender,\n            address(this),\n            sfldBalance,\n            deadline,\n            signature\n        );\n\n        require(\n            sfld.burn(msg.sender, sfldBalance),\n            \"StakeForSFLD: withdraw sfld.burn fail\"\n        );\n\n        require(\n            fld.transfer(msg.sender, sfldBalance),\n            \"StakeForSFLD: withdraw fld.transfer fail\"\n        );\n    }\n\n    /**\n     * public\n     */\n\n    /**\n     * internal\n     */\n\n    /**\n     * private\n     */\n}\n",
  "sourcePath": "/Users/zena/ico2.0/ico20-contracts/contracts/stake/StakeForSFLD.sol",
  "compiler": {
    "name": "solc",
    "version": "0.7.6+commit.7338295f.Emscripten.clang"
  },
  "schemaVersion": "3.3.4",
  "updatedAt": "2021-06-01T01:21:23.593Z",
  "devdoc": {
    "kind": "dev",
    "methods": {
      "getRoleAdmin(bytes32)": {
        "details": "Returns the admin role that controls `role`. See {grantRole} and {revokeRole}. To change a role's admin, use {_setRoleAdmin}."
      },
      "getRoleMember(bytes32,uint256)": {
        "details": "Returns one of the accounts that have `role`. `index` must be a value between 0 and {getRoleMemberCount}, non-inclusive. Role bearers are not sorted in any particular way, and their ordering may change at any point. WARNING: When using {getRoleMember} and {getRoleMemberCount}, make sure you perform all queries on the same block. See the following https://forum.openzeppelin.com/t/iterating-over-elements-on-enumerableset-in-openzeppelin-contracts/2296[forum post] for more information."
      },
      "getRoleMemberCount(bytes32)": {
        "details": "Returns the number of accounts that have `role`. Can be used together with {getRoleMember} to enumerate all bearers of a role."
      },
      "grantRole(bytes32,address)": {
        "details": "Grants `role` to `account`. If `account` had not been already granted `role`, emits a {RoleGranted} event. Requirements: - the caller must have ``role``'s admin role."
      },
      "hasRole(bytes32,address)": {
        "details": "Returns `true` if `account` has been granted `role`."
      },
      "renounceRole(bytes32,address)": {
        "details": "Revokes `role` from the calling account. Roles are often managed via {grantRole} and {revokeRole}: this function's purpose is to provide a mechanism for accounts to lose their privileges if they are compromised (such as when a trusted device is misplaced). If the calling account had been granted `role`, emits a {RoleRevoked} event. Requirements: - the caller must be `account`."
      },
      "revokeRole(bytes32,address)": {
        "details": "Revokes `role` from `account`. If `account` had been granted `role`, emits a {RoleRevoked} event. Requirements: - the caller must have ``role``'s admin role."
      }
    },
    "version": 1
  },
  "userdoc": {
    "kind": "user",
    "methods": {
      "claim()": {
        "notice": "dev. SFLD is minted according to the ratio of the specified period."
      },
      "setStarted(bool)": {
        "notice": "external"
      },
      "stake(uint256,uint256,uint256,bytes)": {
        "notice": "dev. If you staking before, but if you staking additionally, it will be reset to the most recent value."
      },
      "withdraw(uint256,uint256,bytes)": {
        "notice": "dev. You can change to FLD as much as you have SFLD. exchage SFLD to FLD. check again later."
      }
    },
    "version": 1
  }
}