{
  "contractName": "Stake1",
  "abi": [
    {
      "inputs": [],
      "stateMutability": "nonpayable",
      "type": "constructor"
    },
    {
      "anonymous": false,
      "inputs": [
        {
          "indexed": true,
          "internalType": "address",
          "name": "from",
          "type": "address"
        },
        {
          "indexed": false,
          "internalType": "uint256",
          "name": "amount",
          "type": "uint256"
        },
        {
          "indexed": false,
          "internalType": "uint256",
          "name": "currentBlcok",
          "type": "uint256"
        }
      ],
      "name": "Claimed",
      "type": "event"
    },
    {
      "anonymous": false,
      "inputs": [
        {
          "indexed": true,
          "internalType": "bytes32",
          "name": "role",
          "type": "bytes32"
        },
        {
          "indexed": true,
          "internalType": "bytes32",
          "name": "previousAdminRole",
          "type": "bytes32"
        },
        {
          "indexed": true,
          "internalType": "bytes32",
          "name": "newAdminRole",
          "type": "bytes32"
        }
      ],
      "name": "RoleAdminChanged",
      "type": "event"
    },
    {
      "anonymous": false,
      "inputs": [
        {
          "indexed": true,
          "internalType": "bytes32",
          "name": "role",
          "type": "bytes32"
        },
        {
          "indexed": true,
          "internalType": "address",
          "name": "account",
          "type": "address"
        },
        {
          "indexed": true,
          "internalType": "address",
          "name": "sender",
          "type": "address"
        }
      ],
      "name": "RoleGranted",
      "type": "event"
    },
    {
      "anonymous": false,
      "inputs": [
        {
          "indexed": true,
          "internalType": "bytes32",
          "name": "role",
          "type": "bytes32"
        },
        {
          "indexed": true,
          "internalType": "address",
          "name": "account",
          "type": "address"
        },
        {
          "indexed": true,
          "internalType": "address",
          "name": "sender",
          "type": "address"
        }
      ],
      "name": "RoleRevoked",
      "type": "event"
    },
    {
      "anonymous": false,
      "inputs": [
        {
          "indexed": true,
          "internalType": "address",
          "name": "from",
          "type": "address"
        },
        {
          "indexed": true,
          "internalType": "address",
          "name": "to",
          "type": "address"
        },
        {
          "indexed": false,
          "internalType": "uint256",
          "name": "amount",
          "type": "uint256"
        },
        {
          "indexed": false,
          "internalType": "uint256",
          "name": "currentBlcok",
          "type": "uint256"
        }
      ],
      "name": "Withdrawal",
      "type": "event"
    },
    {
      "stateMutability": "payable",
      "type": "fallback"
    },
    {
      "inputs": [],
      "name": "ADMIN_ROLE",
      "outputs": [
        {
          "internalType": "bytes32",
          "name": "",
          "type": "bytes32"
        }
      ],
      "stateMutability": "view",
      "type": "function"
    },
    {
      "inputs": [],
      "name": "DEFAULT_ADMIN_ROLE",
      "outputs": [
        {
          "internalType": "bytes32",
          "name": "",
          "type": "bytes32"
        }
      ],
      "stateMutability": "view",
      "type": "function"
    },
    {
      "inputs": [
        {
          "internalType": "uint256",
          "name": "amount",
          "type": "uint256"
        }
      ],
      "name": "approveUniswapRouter",
      "outputs": [],
      "stateMutability": "nonpayable",
      "type": "function"
    },
    {
      "inputs": [],
      "name": "depositManager",
      "outputs": [
        {
          "internalType": "address",
          "name": "",
          "type": "address"
        }
      ],
      "stateMutability": "view",
      "type": "function"
    },
    {
      "inputs": [],
      "name": "endBlock",
      "outputs": [
        {
          "internalType": "uint256",
          "name": "",
          "type": "uint256"
        }
      ],
      "stateMutability": "view",
      "type": "function"
    },
    {
      "inputs": [
        {
          "internalType": "bytes32",
          "name": "role",
          "type": "bytes32"
        }
      ],
      "name": "getRoleAdmin",
      "outputs": [
        {
          "internalType": "bytes32",
          "name": "",
          "type": "bytes32"
        }
      ],
      "stateMutability": "view",
      "type": "function"
    },
    {
      "inputs": [
        {
          "internalType": "bytes32",
          "name": "role",
          "type": "bytes32"
        },
        {
          "internalType": "uint256",
          "name": "index",
          "type": "uint256"
        }
      ],
      "name": "getRoleMember",
      "outputs": [
        {
          "internalType": "address",
          "name": "",
          "type": "address"
        }
      ],
      "stateMutability": "view",
      "type": "function"
    },
    {
      "inputs": [
        {
          "internalType": "bytes32",
          "name": "role",
          "type": "bytes32"
        }
      ],
      "name": "getRoleMemberCount",
      "outputs": [
        {
          "internalType": "uint256",
          "name": "",
          "type": "uint256"
        }
      ],
      "stateMutability": "view",
      "type": "function"
    },
    {
      "inputs": [
        {
          "internalType": "bytes32",
          "name": "role",
          "type": "bytes32"
        },
        {
          "internalType": "address",
          "name": "account",
          "type": "address"
        }
      ],
      "name": "grantRole",
      "outputs": [],
      "stateMutability": "nonpayable",
      "type": "function"
    },
    {
      "inputs": [
        {
          "internalType": "bytes32",
          "name": "role",
          "type": "bytes32"
        },
        {
          "internalType": "address",
          "name": "account",
          "type": "address"
        }
      ],
      "name": "hasRole",
      "outputs": [
        {
          "internalType": "bool",
          "name": "",
          "type": "bool"
        }
      ],
      "stateMutability": "view",
      "type": "function"
    },
    {
      "inputs": [
        {
          "internalType": "address",
          "name": "owner",
          "type": "address"
        },
        {
          "internalType": "address",
          "name": "spender",
          "type": "address"
        },
        {
          "internalType": "uint256",
          "name": "tonAmount",
          "type": "uint256"
        },
        {
          "internalType": "bytes",
          "name": "data",
          "type": "bytes"
        }
      ],
      "name": "onApprove",
      "outputs": [
        {
          "internalType": "bool",
          "name": "",
          "type": "bool"
        }
      ],
      "stateMutability": "nonpayable",
      "type": "function"
    },
    {
      "inputs": [],
      "name": "paytoken",
      "outputs": [
        {
          "internalType": "address",
          "name": "",
          "type": "address"
        }
      ],
      "stateMutability": "view",
      "type": "function"
    },
    {
      "inputs": [
        {
          "internalType": "bytes32",
          "name": "role",
          "type": "bytes32"
        },
        {
          "internalType": "address",
          "name": "account",
          "type": "address"
        }
      ],
      "name": "renounceRole",
      "outputs": [],
      "stateMutability": "nonpayable",
      "type": "function"
    },
    {
      "inputs": [
        {
          "internalType": "bytes32",
          "name": "role",
          "type": "bytes32"
        },
        {
          "internalType": "address",
          "name": "account",
          "type": "address"
        }
      ],
      "name": "revokeRole",
      "outputs": [],
      "stateMutability": "nonpayable",
      "type": "function"
    },
    {
      "inputs": [],
      "name": "rewardClaimedTotal",
      "outputs": [
        {
          "internalType": "uint256",
          "name": "",
          "type": "uint256"
        }
      ],
      "stateMutability": "view",
      "type": "function"
    },
    {
      "inputs": [],
      "name": "rewardTokamak",
      "outputs": [
        {
          "internalType": "uint256",
          "name": "",
          "type": "uint256"
        }
      ],
      "stateMutability": "view",
      "type": "function"
    },
    {
      "inputs": [],
      "name": "saleStartBlock",
      "outputs": [
        {
          "internalType": "uint256",
          "name": "",
          "type": "uint256"
        }
      ],
      "stateMutability": "view",
      "type": "function"
    },
    {
      "inputs": [],
      "name": "seigManager",
      "outputs": [
        {
          "internalType": "address",
          "name": "",
          "type": "address"
        }
      ],
      "stateMutability": "view",
      "type": "function"
    },
    {
      "inputs": [
        {
          "internalType": "address",
          "name": "_ton",
          "type": "address"
        },
        {
          "internalType": "address",
          "name": "_wton",
          "type": "address"
        },
        {
          "internalType": "address",
          "name": "_depositManager",
          "type": "address"
        },
        {
          "internalType": "address",
          "name": "_seigManager",
          "type": "address"
        },
        {
          "internalType": "address",
          "name": "_defiAddr",
          "type": "address"
        }
      ],
      "name": "setTokamak",
      "outputs": [],
      "stateMutability": "nonpayable",
      "type": "function"
    },
    {
      "inputs": [
        {
          "internalType": "address",
          "name": "_router",
          "type": "address"
        }
      ],
      "name": "setUniswapRouter",
      "outputs": [],
      "stateMutability": "nonpayable",
      "type": "function"
    },
    {
      "inputs": [
        {
          "internalType": "address",
          "name": "from",
          "type": "address"
        },
        {
          "internalType": "address",
          "name": "_owner",
          "type": "address"
        },
        {
          "internalType": "address",
          "name": "_spender",
          "type": "address"
        },
        {
          "internalType": "uint256",
          "name": "_amount",
          "type": "uint256"
        }
      ],
      "name": "stakeOnApprove",
      "outputs": [
        {
          "internalType": "bool",
          "name": "",
          "type": "bool"
        }
      ],
      "stateMutability": "nonpayable",
      "type": "function"
    },
    {
      "inputs": [],
      "name": "startBlock",
      "outputs": [
        {
          "internalType": "uint256",
          "name": "",
          "type": "uint256"
        }
      ],
      "stateMutability": "view",
      "type": "function"
    },
    {
      "inputs": [
        {
          "internalType": "bytes4",
          "name": "interfaceId",
          "type": "bytes4"
        }
      ],
      "name": "supportsInterface",
      "outputs": [
        {
          "internalType": "bool",
          "name": "",
          "type": "bool"
        }
      ],
      "stateMutability": "view",
      "type": "function"
    },
    {
      "inputs": [
        {
          "internalType": "address",
          "name": "_layer2",
          "type": "address"
        }
      ],
      "name": "tokamakAccStaked",
      "outputs": [
        {
          "internalType": "uint256",
          "name": "wtonAmount",
          "type": "uint256"
        }
      ],
      "stateMutability": "view",
      "type": "function"
    },
    {
      "inputs": [
        {
          "internalType": "address",
          "name": "_layer2",
          "type": "address"
        }
      ],
      "name": "tokamakAccUnstaked",
      "outputs": [
        {
          "internalType": "uint256",
          "name": "wtonAmount",
          "type": "uint256"
        }
      ],
      "stateMutability": "view",
      "type": "function"
    },
    {
      "inputs": [],
      "name": "tokamakLayer2",
      "outputs": [
        {
          "internalType": "address",
          "name": "",
          "type": "address"
        }
      ],
      "stateMutability": "view",
      "type": "function"
    },
    {
      "inputs": [
        {
          "internalType": "address",
          "name": "_layer2",
          "type": "address"
        }
      ],
      "name": "tokamakPendingUnstaked",
      "outputs": [
        {
          "internalType": "uint256",
          "name": "wtonAmount",
          "type": "uint256"
        }
      ],
      "stateMutability": "view",
      "type": "function"
    },
    {
      "inputs": [
        {
          "internalType": "address",
          "name": "_layer2",
          "type": "address"
        },
        {
          "internalType": "bool",
          "name": "receiveTON",
          "type": "bool"
        }
      ],
      "name": "tokamakProcessUnStaking",
      "outputs": [],
      "stateMutability": "nonpayable",
      "type": "function"
    },
    {
      "inputs": [
        {
          "internalType": "address",
          "name": "_layer2",
          "type": "address"
        },
        {
          "internalType": "uint256",
          "name": "_amount",
          "type": "uint256"
        }
      ],
      "name": "tokamakRequestUnStaking",
      "outputs": [],
      "stateMutability": "nonpayable",
      "type": "function"
    },
    {
      "inputs": [
        {
          "internalType": "address",
          "name": "_layer2",
          "type": "address"
        }
      ],
      "name": "tokamakRequestUnStakingAll",
      "outputs": [],
      "stateMutability": "nonpayable",
      "type": "function"
    },
    {
      "inputs": [
        {
          "internalType": "address",
          "name": "_layer2",
          "type": "address"
        }
      ],
      "name": "tokamakStakeOf",
      "outputs": [
        {
          "internalType": "uint256",
          "name": "wtonAmount",
          "type": "uint256"
        }
      ],
      "stateMutability": "view",
      "type": "function"
    },
    {
      "inputs": [
        {
          "internalType": "address",
          "name": "_layer2",
          "type": "address"
        },
        {
          "internalType": "uint256",
          "name": "_amount",
          "type": "uint256"
        }
      ],
      "name": "tokamakStaking",
      "outputs": [],
      "stateMutability": "nonpayable",
      "type": "function"
    },
    {
      "inputs": [],
      "name": "token",
      "outputs": [
        {
          "internalType": "address",
          "name": "",
          "type": "address"
        }
      ],
      "stateMutability": "view",
      "type": "function"
    },
    {
      "inputs": [],
      "name": "ton",
      "outputs": [
        {
          "internalType": "address",
          "name": "",
          "type": "address"
        }
      ],
      "stateMutability": "view",
      "type": "function"
    },
    {
      "inputs": [],
      "name": "totalStakedAmount",
      "outputs": [
        {
          "internalType": "uint256",
          "name": "",
          "type": "uint256"
        }
      ],
      "stateMutability": "view",
      "type": "function"
    },
    {
      "inputs": [],
      "name": "uniswapRouter",
      "outputs": [
        {
          "internalType": "address",
          "name": "",
          "type": "address"
        }
      ],
      "stateMutability": "view",
      "type": "function"
    },
    {
      "inputs": [
        {
          "internalType": "address",
          "name": "",
          "type": "address"
        }
      ],
      "name": "userStaked",
      "outputs": [
        {
          "internalType": "uint256",
          "name": "amount",
          "type": "uint256"
        },
        {
          "internalType": "uint256",
          "name": "claimedBlock",
          "type": "uint256"
        },
        {
          "internalType": "uint256",
          "name": "claimedAmount",
          "type": "uint256"
        },
        {
          "internalType": "uint256",
          "name": "releasedBlock",
          "type": "uint256"
        },
        {
          "internalType": "uint256",
          "name": "releasedAmount",
          "type": "uint256"
        },
        {
          "internalType": "bool",
          "name": "released",
          "type": "bool"
        }
      ],
      "stateMutability": "view",
      "type": "function"
    },
    {
      "inputs": [],
      "name": "vault",
      "outputs": [
        {
          "internalType": "address",
          "name": "",
          "type": "address"
        }
      ],
      "stateMutability": "view",
      "type": "function"
    },
    {
      "inputs": [],
      "name": "wton",
      "outputs": [
        {
          "internalType": "address",
          "name": "",
          "type": "address"
        }
      ],
      "stateMutability": "view",
      "type": "function"
    },
    {
      "stateMutability": "payable",
      "type": "receive"
    },
    {
      "inputs": [
        {
          "internalType": "address",
          "name": "_token",
          "type": "address"
        },
        {
          "internalType": "address",
          "name": "_paytoken",
          "type": "address"
        },
        {
          "internalType": "address",
          "name": "_vault",
          "type": "address"
        },
        {
          "internalType": "uint256",
          "name": "_saleStartBlock",
          "type": "uint256"
        },
        {
          "internalType": "uint256",
          "name": "_startBlock",
          "type": "uint256"
        },
        {
          "internalType": "uint256",
          "name": "_period",
          "type": "uint256"
        }
      ],
      "name": "initialize",
      "outputs": [],
      "stateMutability": "nonpayable",
      "type": "function"
    },
    {
      "inputs": [
        {
          "internalType": "uint256",
          "name": "_amount",
          "type": "uint256"
        }
      ],
      "name": "stake",
      "outputs": [],
      "stateMutability": "payable",
      "type": "function"
    },
    {
      "inputs": [],
      "name": "withdraw",
      "outputs": [],
      "stateMutability": "nonpayable",
      "type": "function"
    },
    {
      "inputs": [],
      "name": "claim",
      "outputs": [],
      "stateMutability": "nonpayable",
      "type": "function"
    },
    {
      "inputs": [
        {
          "internalType": "address",
          "name": "account",
          "type": "address"
        }
      ],
      "name": "canRewardAmount",
      "outputs": [
        {
          "internalType": "uint256",
          "name": "",
          "type": "uint256"
        }
      ],
      "stateMutability": "view",
      "type": "function"
    }
  ],
  "bytecode": "0x60806040523480156200001157600080fd5b50620000246301ffc9a760e01b62000072565b62000036632139e50b60e11b62000072565b620000516000805160206200339083398151915280620000f7565b6200006c600080516020620033908339815191523362000149565b6200025f565b6001600160e01b03198082161415620000d2576040805162461bcd60e51b815260206004820152601c60248201527f4552433136353a20696e76616c696420696e7465726661636520696400000000604482015290519081900360640190fd5b6001600160e01b0319166000908152600b60205260409020805460ff19166001179055565b6000828152600a6020526040808220600201549051839285917fbd79b86ffe0ab8e8776151514217cd7cacd52c909f66475c3af44e129f0b00ff9190a46000918252600a602052604090912060020155565b62000155828262000159565b5050565b6000828152600a602090815260409091206200018091839062002b96620001d4821b17901c565b15620001555762000190620001f4565b6001600160a01b0316816001600160a01b0316837f2f8788117e7eff1d82e926ec794901d17c78024a50270940304540a733656f0d60405160405180910390a45050565b6000620001eb836001600160a01b038416620001f8565b90505b92915050565b3390565b600062000206838362000247565b6200023e57508154600181810184556000848152602080822090930184905584548482528286019093526040902091909155620001ee565b506000620001ee565b60009081526001919091016020526040902054151590565b613121806200026f6000396000f3fe60806040526004361061026b5760003560e01c8063735de9f711610144578063ca15c873116100b6578063eeb8112f1161007a578063eeb8112f14610943578063f30eb95814610976578063f5832e72146109a9578063fa3733d6146109dc578063fbfa77cf14610a17578063fc0c546a14610a2c5761027b565b8063ca15c8731461085f578063cc48b94714610889578063ce681ce61461089e578063d547741f146108d7578063e9ace833146109105761027b565b806392ea3b4c1161010857806392ea3b4c14610768578063a217fddf1461077d578063a694fc3a14610792578063acc3a939146107af578063b2d4d6a314610817578063bea9849e1461082c5761027b565b8063735de9f7146106c057806375b238fc146106d55780638d62d949146106ea5780639010d07c146106ff57806391d148541461072f5761027b565b80634273ca16116101dd578063567e98f9116101a1578063567e98f9146105c6578063610b0663146105db5780636c7ac9d81461060e5780636fb7f5581461062357806371def0b314610638578063728cdbca1461066b5761027b565b80634273ca161461047957806343b0934a1461051657806348cd4cb1146105475780634b2e0ebd1461055c5780634e71d92d146105b15761027b565b8063200272751161022f5780632002727514610389578063248a9ca31461039e5780632f2ff15d146103c857806336568abe146104015780633ccfd60b1461043a5780633cdcdbe71461044f5761027b565b806301ffc9a714610283578063065c4313146102cb578063083c632314610304578063092a64c41461032b5780630bfb3841146103405761027b565b3661027b5761027934610a41565b005b610279610c01565b34801561028f57600080fd5b506102b7600480360360208110156102a657600080fd5b50356001600160e01b031916610c78565b604080519115158252519081900360200190f35b3480156102d757600080fd5b50610279600480360360408110156102ee57600080fd5b506001600160a01b038135169060200135610c97565b34801561031057600080fd5b50610319611016565b60408051918252519081900360200190f35b34801561033757600080fd5b5061031961101c565b34801561034c57600080fd5b506102b76004803603608081101561036357600080fd5b506001600160a01b03813581169160208101358216916040820135169060600135611022565b34801561039557600080fd5b506103196111e2565b3480156103aa57600080fd5b50610319600480360360208110156103c157600080fd5b50356111e8565b3480156103d457600080fd5b50610279600480360360408110156103eb57600080fd5b50803590602001356001600160a01b03166111fd565b34801561040d57600080fd5b506102796004803603604081101561042457600080fd5b50803590602001356001600160a01b0316611269565b34801561044657600080fd5b506102796112ca565b34801561045b57600080fd5b506102796004803603602081101561047257600080fd5b503561156b565b34801561048557600080fd5b506102b76004803603608081101561049c57600080fd5b6001600160a01b038235811692602081013590911691604082013591908101906080810160608201356401000000008111156104d757600080fd5b8201836020820111156104e957600080fd5b8035906020019184600183028401116401000000008311171561050b57600080fd5b509092509050611644565b34801561052257600080fd5b5061052b61171d565b604080516001600160a01b039092168252519081900360200190f35b34801561055357600080fd5b5061031961172c565b34801561056857600080fd5b50610279600480360360a081101561057f57600080fd5b506001600160a01b03813581169160208101358216916040820135811691606081013582169160809091013516611732565b3480156105bd57600080fd5b5061027961186b565b3480156105d257600080fd5b50610319611bf7565b3480156105e757600080fd5b50610319600480360360208110156105fe57600080fd5b50356001600160a01b0316611bfd565b34801561061a57600080fd5b5061052b611f89565b34801561062f57600080fd5b5061052b611f98565b34801561064457600080fd5b506102796004803603602081101561065b57600080fd5b50356001600160a01b0316611fa7565b34801561067757600080fd5b50610279600480360360c081101561068e57600080fd5b506001600160a01b03813581169160208101358216916040820135169060608101359060808101359060a00135612121565b3480156106cc57600080fd5b5061052b61221c565b3480156106e157600080fd5b5061031961222b565b3480156106f657600080fd5b5061052b61223d565b34801561070b57600080fd5b5061052b6004803603604081101561072257600080fd5b508035906020013561224c565b34801561073b57600080fd5b506102b76004803603604081101561075257600080fd5b50803590602001356001600160a01b031661226b565b34801561077457600080fd5b5061052b612283565b34801561078957600080fd5b50610319612292565b610279600480360360208110156107a857600080fd5b5035610a41565b3480156107bb57600080fd5b506107e2600480360360208110156107d257600080fd5b50356001600160a01b0316612297565b6040805196875260208701959095528585019390935260608501919091526080840152151560a0830152519081900360c00190f35b34801561082357600080fd5b506103196122cf565b34801561083857600080fd5b506102796004803603602081101561084f57600080fd5b50356001600160a01b03166122d5565b34801561086b57600080fd5b506103196004803603602081101561088257600080fd5b5035612405565b34801561089557600080fd5b5061052b61241c565b3480156108aa57600080fd5b50610279600480360360408110156108c157600080fd5b506001600160a01b03813516906020013561242b565b3480156108e357600080fd5b50610279600480360360408110156108fa57600080fd5b50803590602001356001600160a01b0316612640565b34801561091c57600080fd5b506103196004803603602081101561093357600080fd5b50356001600160a01b0316612699565b34801561094f57600080fd5b506103196004803603602081101561096657600080fd5b50356001600160a01b0316612782565b34801561098257600080fd5b506103196004803603602081101561099957600080fd5b50356001600160a01b0316612839565b3480156109b557600080fd5b50610319600480360360208110156109cc57600080fd5b50356001600160a01b03166128f0565b3480156109e857600080fd5b50610279600480360360408110156109ff57600080fd5b506001600160a01b03813516906020013515156129a7565b348015610a2357600080fd5b5061052b612b78565b348015610a3857600080fd5b5061052b612b87565b6001546001600160a01b0316158015610a5a5750600034115b80610a7a57506001546001600160a01b031615801590610a7a5750600081115b610ac4576040805162461bcd60e51b81526020600482015260166024820152755374616b65313a20616d6f756e74206973207a65726f60501b604482015290519081900360640190fd5b6003544310158015610ad95750600454600354105b610b2a576040805162461bcd60e51b815260206004820152601d60248201527f5374616b65313a20706572696f6420697320756e617661696c61626c65000000604482015290519081900360640190fd5b60015481906001600160a01b0316610b3f5750345b33600090815260086020526040902080548201815560078054830190556001546001600160a01b031615610bfc57600154604080516323b872dd60e01b81523360048201523060248201526044810185905290516001600160a01b03909216916323b872dd916064808201926020929091908290030181600087803b158015610bc757600080fd5b505af1158015610bdb573d6000803e3d6000fd5b505050506040513d6020811015610bf157600080fd5b5051610bfc57600080fd5b505050565b6000610c0b61221c565b9050346001600160a01b038216610c535760405162461bcd60e51b81526004018080602001828103825260248152602001806130766024913960400191505060405180910390fd5b366000803760008036600084865af13d6000803e808015610c73573d6000f35b3d6000fd5b6001600160e01b0319166000908152600b602052604090205460ff1690565b610caf600080516020612fc08339815191523361226b565b610cea5760405162461bcd60e51b81526004018080602001828103825260258152602001806130036025913960400191505060405180910390fd5b600c546001600160a01b031615801590610d0e5750600d546001600160a01b031615155b8015610d245750600e546001600160a01b031615155b8015610d3a5750600f546001600160a01b031615155b8015610d4e57506001600160a01b03821615155b8015610d5a5750600081115b610d99576040805162461bcd60e51b815260206004820152601b6024820152600080516020612fa0833981519152604482015290519081900360640190fd5b6010546001600160a01b0316610dc957601080546001600160a01b0319166001600160a01b038416179055610ec1565b600f54604080516367265c3b60e11b81526001600160a01b0385811660048301523060248301529151600093929092169163ce4cb87691604480820192602092909190829003018186803b158015610e2057600080fd5b505afa158015610e34573d6000803e3d6000fd5b505050506040513d6020811015610e4a57600080fd5b5051905080610e7357601080546001600160a01b0319166001600160a01b038516179055610ebf565b6010546001600160a01b03848116911614610ebf5760405162461bcd60e51b81526004018080602001828103825260238152602001806130c96023913960400191505060405180910390fd5b505b600e54604080516001600160a01b0392831660208083019190915285841682840152825180830384018152606080840194859052600c54600d5463cae9ca5160e01b909652948616606485018181526084860189905260a48601928352835160c487015283519397969096169563cae9ca5195919489948994929360e4019185019080838360005b83811015610f61578181015183820152602001610f49565b50505050905090810190601f168015610f8e5780820380516001836020036101000a031916815260200191505b50945050505050602060405180830381600087803b158015610faf57600080fd5b505af1158015610fc3573d6000803e3d6000fd5b505050506040513d6020811015610fd957600080fd5b5051610bfc5760405162461bcd60e51b8152600401808060200182810382526022815260200180612ef76022913960400191505060405180910390fd5b60055481565b60125481565b6001546000906001600160a01b0386811691161480156110425750600082115b801561105657506001600160a01b03831630145b6110a7576040805162461bcd60e51b815260206004820181905260248201527f5374616b65313a207374616b654f6e417070726f766520696e6974206661696c604482015290519081900360640190fd5b60035443101580156110bc5750600454600354105b6110f75760405162461bcd60e51b8152600401808060200182810382526026815260200180612f196026913960400191505060405180910390fd5b6001600160a01b038085166000818152600860209081526040808320805488018155600780548901905581516323b872dd60e01b81526004810195909552888616602486015260448501889052905190948a16936323b872dd9360648083019493928390030190829087803b15801561116f57600080fd5b505af1158015611183573d6000803e3d6000fd5b505050506040513d602081101561119957600080fd5b50516111d65760405162461bcd60e51b8152600401808060200182810382526031815260200180612f3f6031913960400191505060405180910390fd5b50600195945050505050565b60035481565b6000908152600a602052604090206002015490565b6000828152600a60205260409020600201546112209061121b612bab565b61226b565b61125b5760405162461bcd60e51b815260040180806020018281038252602f815260200180612ec8602f913960400191505060405180910390fd5b6112658282612baf565b5050565b611271612bab565b6001600160a01b0316816001600160a01b0316146112c05760405162461bcd60e51b815260040180806020018281038252602f81526020018061309a602f913960400191505060405180910390fd5b6112658282612c18565b60006005541180156112dd575043600554105b61132e576040805162461bcd60e51b815260206004820152601960248201527f5374616b65313a206f6e207374616b696e6720706572696f6400000000000000604482015290519081900360640190fd5b3360009081526008602052604090208054801580159061135357508154600483015411155b61138e5760405162461bcd60e51b8152600401808060200182810382526025815260200180612e816025913960400191505060405180910390fd5b8154600483015543600383015560058201805460ff19166001908117909155546001600160a01b0316611458573080318211156113ca57600080fd5b604051600090339084908381818185875af1925050503d806000811461140c576040519150601f19603f3d011682016040523d82523d6000602084013e611411565b606091505b50509050806114515760405162461bcd60e51b81526004018080602001828103825260218152602001806130286021913960400191505060405180910390fd5b5050611529565b6001546040805163a9059cbb60e01b81523360048201526024810184905290516001600160a01b039092169163a9059cbb916044808201926020929091908290030181600087803b1580156114ac57600080fd5b505af11580156114c0573d6000803e3d6000fd5b505050506040513d60208110156114d657600080fd5b5051611529576040805162461bcd60e51b815260206004820152601e60248201527f5374616b65313a207769746864726177207472616e73666572206661696c0000604482015290519081900360640190fd5b604080518281524360208201528151339230927fc2b4a290c20fb28939d29f102514fbffd2b73c059ffba8b78250c94161d5fcc6929081900390910190a35050565b6001546011546040805163095ea7b360e01b81526001600160a01b039283166004820152602481018590529051919092169163095ea7b39160448083019260209291908290030181600087803b1580156115c457600080fd5b505af11580156115d8573d6000803e3d6000fd5b505050506040513d60208110156115ee57600080fd5b5051611641576040805162461bcd60e51b815260206004820152601b60248201527f596561726e56325374616b65723a20617070726f7665206661696c0000000000604482015290519081900360640190fd5b50565b60008060006116538585612c81565b9150915080861480156116775750816001600160a01b0316876001600160a01b0316145b6116b25760405162461bcd60e51b8152600401808060200182810382526023815260200180612fe06023913960400191505060405180910390fd5b6116be33898484611022565b61170f576040805162461bcd60e51b815260206004820152601d60248201527f5374616b65313a207374616b654f6e417070726f7665206661696c7320000000604482015290519081900360640190fd5b506001979650505050505050565b6001546001600160a01b031681565b60045481565b61174a600080516020612fc08339815191523361226b565b6117855760405162461bcd60e51b81526004018080602001828103825260258152602001806130036025913960400191505060405180910390fd5b6001600160a01b038516158015906117a557506001600160a01b03841615155b80156117b957506001600160a01b03831615155b80156117cd57506001600160a01b03821615155b61180c576040805162461bcd60e51b815260206004820152601b6024820152600080516020612fa0833981519152604482015290519081900360640190fd5b600c80546001600160a01b03199081166001600160a01b0397881617909155600d8054821695871695909517909455600e8054851693861693909317909255600f80548416918516919091179055601180549092169216919091179055565b600954156118b6576040805162461bcd60e51b815260206004820152601360248201527214dd185ad94c55985d5b1d0e881313d0d2d151606a1b604482015290519081900360640190fd5b600160095560025460408051631718ecd760e31b815290516001600160a01b039092169163b8c766b891600480820192602092909190829003018186803b15801561190057600080fd5b505afa158015611914573d6000803e3d6000fd5b505050506040513d602081101561192a57600080fd5b5051151560011461197b576040805162461bcd60e51b815260206004820152601660248201527529ba30b5b2989d103234b9b1b637b9b29039b0b6329760511b604482015290519081900360640190fd5b3360008181526008602052604081206005546001820154439291116119d9576040805162461bcd60e51b815260206004820152600f60248201526e14dd185ad94c4e8818db185a5b5959608a1b604482015290519081900360640190fd5b6119e284611bfd565b925060008311611a32576040805162461bcd60e51b81526020600482015260166024820152755374616b65313a20726577617264206973207a65726f60501b604482015290519081900360640190fd5b6002546040805163032f7adb60e61b815230600482015290516000926001600160a01b03169163cbdeb6c0916024808301926020929190829003018186803b158015611a7d57600080fd5b505afa158015611a91573d6000803e3d6000fd5b505050506040513d6020811015611aa757600080fd5b50516006549091508401811015611b05576040805162461bcd60e51b815260206004820152601c60248201527f5374616b65313a20746f74616c20726577617264206578636565647300000000604482015290519081900360640190fd5b60018201839055600280830180548601905560068054860190555460408051635569f64b60e11b81526001600160a01b038881166004830152602482018890529151919092169163aad3ec969160448083019260209291908290030181600087803b158015611b7357600080fd5b505af1158015611b87573d6000803e3d6000fd5b505050506040513d6020811015611b9d57600080fd5b5051611ba857600080fd5b604080518581526020810185905281516001600160a01b038816927f987d620f307ff6b94d58743cb7a7509f24071586a77759b77c2d4e29f75a2f9a928290030190a250506000600955505050565b60075481565b6004546000908190431080611c2857506001600160a01b038316600090815260086020526040902054155b80611c4f57506005546001600160a01b038416600090815260086020526040902060010154115b80611c7457506001600160a01b03831660009081526008602052604090206001015443105b15611c8157506000611f83565b6004546005546001600160a01b038516600090815260086020526040902060010154821015611cc9576001600160a01b03851660009081526008602052604090206001015491505b80431015611cd45750435b6002546040805163c1b422fd60e01b815290516000926001600160a01b03169163c1b422fd9160048083019286929190829003018186803b158015611d1857600080fd5b505afa158015611d2c573d6000803e3d6000fd5b505050506040513d6000823e601f3d908101601f191682016040526020811015611d5557600080fd5b8101908080516040519392919084640100000000821115611d7557600080fd5b908301906020820185811115611d8a57600080fd5b8251866020820283011164010000000082111715611da757600080fd5b82525081516020918201928201910280838360005b83811015611dd4578181015183820152602001611dbc565b505050509050016040525050509050600081511115611f7f576000806000600260009054906101000a90046001600160a01b03166001600160a01b031663d105bf856040518163ffffffff1660e01b815260040160206040518083038186803b158015611e4057600080fd5b505afa158015611e54573d6000803e3d6000fd5b505050506040513d6020811015611e6a57600080fd5b5051905060005b8451811015611f7a57848181518110611e8657fe5b60209081029190910181015160025460408051632f8deb1560e11b81526004810184905290519297506001600160a01b0390911692635f1bd62a92602480840193829003018186803b158015611edb57600080fd5b505afa158015611eef573d6000803e3d6000fd5b505050506040513d6020811015611f0557600080fd5b50519250838611611f42576001600160a01b038a16600090815260086020526040902054839088880384020281611f3857fe5b0488019750611f7a565b6001600160a01b038a16600090815260086020526040902054839088860384020281611f6a57fe5b0488019750839650600101611e71565b505050505b5050505b92915050565b600e546001600160a01b031681565b600f546001600160a01b031681565b611fbf600080516020612fc08339815191523361226b565b611ffa5760405162461bcd60e51b81526004018080602001828103825260258152602001806130036025913960400191505060405180910390fd5b600e546001600160a01b031680612046576040805162461bcd60e51b815260206004820152601b6024820152600080516020612fa0833981519152604482015290519081900360640190fd5b6010546001600160a01b038381169116146120925760405162461bcd60e51b81526004018080602001828103825260238152602001806130c96023913960400191505060405180910390fd5b600e5460408051636b2160b760e01b81526001600160a01b03858116600483015291519190921691636b2160b79160248083019260209291908290030181600087803b1580156120e157600080fd5b505af11580156120f5573d6000803e3d6000fd5b505050506040513d602081101561210b57600080fd5b5050601080546001600160a01b03191690555050565b612139600080516020612fc08339815191523361226b565b6121745760405162461bcd60e51b81526004018080602001828103825260258152602001806130036025913960400191505060405180910390fd5b6001600160a01b0386161580159061219457506001600160a01b03841615155b80156121a05750818311155b6121a957600080fd5b600080546001600160a01b038089166001600160a01b031992831617909255600180548884169083161790556002805492871692909116919091179055826121f457436003556121fa565b60038390555b81612208574360045561220e565b60048290555b600454016005555050505050565b6011546001600160a01b031690565b600080516020612fc083398151915281565b600d546001600160a01b031681565b6000828152600a602052604081206122649083612caf565b9392505050565b6000828152600a602052604081206122649083612cbb565b6010546001600160a01b031681565b600081565b600860205260009081526040902080546001820154600283015460038401546004850154600590950154939492939192909160ff1686565b60065481565b6122ed600080516020612fc08339815191523361226b565b6123285760405162461bcd60e51b81526004018080602001828103825260258152602001806130036025913960400191505060405180910390fd5b600354431061237e576040805162461bcd60e51b815260206004820152601e60248201527f546f6b616d616b5374616b65723a20416c726561647920737461727465640000604482015290519081900360640190fd5b6001600160a01b038116158015906123a457506011546001600160a01b03828116911614155b6123e3576040805162461bcd60e51b815260206004820152601b6024820152600080516020612fa0833981519152604482015290519081900360640190fd5b601180546001600160a01b0319166001600160a01b0392909216919091179055565b6000818152600a60205260408120611f8390612cd0565b600c546001600160a01b031681565b612443600080516020612fc08339815191523361226b565b61247e5760405162461bcd60e51b81526004018080602001828103825260258152602001806130036025913960400191505060405180910390fd5b600e546001600160a01b0316158015906124a557506010546001600160a01b038381169116145b80156124b15750600081115b6124f0576040805162461bcd60e51b815260206004820152601b6024820152600080516020612fa0833981519152604482015290519081900360640190fd5b600f54604080516367265c3b60e11b81526001600160a01b0385811660048301523060248301529151600093929092169163ce4cb87691604480820192602092909190829003018186803b15801561254757600080fd5b505afa15801561255b573d6000803e3d6000fd5b505050506040513d602081101561257157600080fd5b505160075490915082820310156125b95760405162461bcd60e51b815260040180806020018281038252602d815260200180613049602d913960400191505060405180910390fd5b600e546040805163da95ebf760e01b81526001600160a01b038681166004830152602482018690529151919092169163da95ebf79160448083019260209291908290030181600087803b15801561260f57600080fd5b505af1158015612623573d6000803e3d6000fd5b505050506040513d602081101561263957600080fd5b5050505050565b6000828152600a602052604090206002015461265e9061121b612bab565b6112c05760405162461bcd60e51b8152600401808060200182810382526030815260200180612f706030913960400191505060405180910390fd5b600e546000906001600160a01b0316158015906126be57506001600160a01b03821615155b6126fd576040805162461bcd60e51b815260206004820152601b6024820152600080516020612fa0833981519152604482015290519081900360640190fd5b600e5460408051632638fdf560e01b81526001600160a01b03858116600483015230602483015291519190921691632638fdf5916044808301926020929190829003018186803b15801561275057600080fd5b505afa158015612764573d6000803e3d6000fd5b505050506040513d602081101561277a57600080fd5b505192915050565b600f546000906001600160a01b0316158015906127a757506001600160a01b03821615155b6127e6576040805162461bcd60e51b815260206004820152601b6024820152600080516020612fa0833981519152604482015290519081900360640190fd5b600e5460408051639d91b87b60e01b81526001600160a01b03858116600483015230602483015291519190921691639d91b87b916044808301926020929190829003018186803b15801561275057600080fd5b600f546000906001600160a01b03161580159061285e57506001600160a01b03821615155b61289d576040805162461bcd60e51b815260206004820152601b6024820152600080516020612fa0833981519152604482015290519081900360640190fd5b600f54604080516367265c3b60e11b81526001600160a01b0385811660048301523060248301529151919092169163ce4cb876916044808301926020929190829003018186803b15801561275057600080fd5b600f546000906001600160a01b03161580159061291557506001600160a01b03821615155b612954576040805162461bcd60e51b815260206004820152601b6024820152600080516020612fa0833981519152604482015290519081900360640190fd5b600e5460408051630b4beae560e21b81526001600160a01b03858116600483015230602483015291519190921691632d2fab94916044808301926020929190829003018186803b15801561275057600080fd5b6129bf600080516020612fc08339815191523361226b565b6129fa5760405162461bcd60e51b81526004018080602001828103825260258152602001806130036025913960400191505060405180910390fd5b600e546001600160a01b031615801590612a1c57506001600160a01b03821615155b612a5b576040805162461bcd60e51b815260206004820152601b6024820152600080516020612fa0833981519152604482015290519081900360640190fd5b6000612a6683612699565b600c54604080516370a0823160e01b815230600482015290519293506000926001600160a01b03909216916370a0823191602480820192602092909190829003018186803b158015612ab757600080fd5b505afa158015612acb573d6000803e3d6000fd5b505050506040513d6020811015612ae157600080fd5b505160075483820103601255600e5460408051636105226360e11b81526001600160a01b0388811660048301528715156024830152915193945091169163c20a44c6916044808201926020929091908290030181600087803b158015612b4657600080fd5b505af1158015612b5a573d6000803e3d6000fd5b505050506040513d6020811015612b7057600080fd5b505050505050565b6002546001600160a01b031681565b6000546001600160a01b031681565b6000612264836001600160a01b038416612cdb565b3390565b6000828152600a60205260409020612bc79082612b96565b1561126557612bd4612bab565b6001600160a01b0316816001600160a01b0316837f2f8788117e7eff1d82e926ec794901d17c78024a50270940304540a733656f0d60405160405180910390a45050565b6000828152600a60205260409020612c309082612d25565b1561126557612c3d612bab565b6001600160a01b0316816001600160a01b0316837ff6391f5c32d9c69d2a47ea670b442974b53935d1edc7fd64eb21e047a839171b60405160405180910390a45050565b60008083836040811015612c9457600080fd5b506001600160a01b0381351695602090910135945092505050565b60006122648383612d3a565b6000612264836001600160a01b038416612d9e565b6000611f8382612db6565b6000612ce78383612d9e565b612d1d57508154600181810184556000848152602080822090930184905584548482528286019093526040902091909155611f83565b506000611f83565b6000612264836001600160a01b038416612dba565b81546000908210612d7c5760405162461bcd60e51b8152600401808060200182810382526022815260200180612ea66022913960400191505060405180910390fd5b826000018281548110612d8b57fe5b9060005260206000200154905092915050565b60009081526001919091016020526040902054151590565b5490565b60008181526001830160205260408120548015612e765783546000198083019190810190600090879083908110612ded57fe5b9060005260206000200154905080876000018481548110612e0a57fe5b600091825260208083209091019290925582815260018981019092526040902090840190558654879080612e3a57fe5b60019003818190600052602060002001600090559055866001016000878152602001908152602001600020600090556001945050505050611f83565b6000915050611f8356fe5374616b65313a2072656c6561736564416d6f756e74203e207374616b6564416d6f756e74456e756d657261626c655365743a20696e646578206f7574206f6620626f756e6473416363657373436f6e74726f6c3a2073656e646572206d75737420626520616e2061646d696e20746f206772616e74546f6b616d616b5374616b65723a20617070726f7665416e6443616c6c206661696c5374616b65313a207374616b65544f4e20706572696f6420697320756e617661696c61626c6544414f436f6d6d69747465653a206661696c656420746f207472616e7366657220746f6e2066726f6d2063726561746f72416363657373436f6e74726f6c3a2073656e646572206d75737420626520616e2061646d696e20746f207265766f6b65546f6b616d616b5374616b65723a207a65726f20616464726573730000000000df8b4c520ffe197c5343c6f5aec59570151ef9a492f2c624fd45ddde6135ec425374616b65313a20746f6e416d6f756e7420213d207374616b696e67416d6f756e7420546f6b616d616b5374616b65723a2043616c6c6572206973206e6f7420616e2061646d696e5374616b65313a207769746864726177206574682073656e64206661696c65642e546f6b616d616b5374616b65723a20546865207769746864726177616c2062616c616e6365206973206c61636b546f6b616d616b5374616b65723a20756e6973776170526f75746572206973207a65726f416363657373436f6e74726f6c3a2063616e206f6e6c792072656e6f756e636520726f6c657320666f722073656c66546f6b616d616b5374616b65723a206c617965723220697320646966666572656e7420a2646970667358221220bc532c53c07d0ef0b7d619f116e49b7813acbb1eecb30f4f96c607633c14ed1264736f6c63430007060033df8b4c520ffe197c5343c6f5aec59570151ef9a492f2c624fd45ddde6135ec42",
  "immutableReferences": {},
  "source": "//SPDX-License-Identifier: Unlicense\npragma solidity ^0.7.0;\n\nimport {IStake1Vault} from \"../interfaces/IStake1Vault.sol\";\n//import { IERC20 } from \"../interfaces/IERC20.sol\";\nimport {IERC20} from \"@openzeppelin/contracts/token/ERC20/IERC20.sol\";\nimport \"../libraries/LibTokenStake1.sol\";\nimport \"../connection/TokamakStaker.sol\";\nimport {\n    ERC165Checker\n} from \"@openzeppelin/contracts/introspection/ERC165Checker.sol\";\nimport {SafeERC20} from \"@openzeppelin/contracts/token/ERC20/SafeERC20.sol\";\n\ncontract Stake1 is TokamakStaker {\n    using SafeERC20 for IERC20;\n\n    modifier lock() {\n        require(_lock == 0, \"Stake1Vault: LOCKED\");\n        _lock = 1;\n        _;\n        _lock = 0;\n    }\n\n    event Claimed(address indexed from, uint256 amount, uint256 currentBlcok);\n    event Withdrawal(\n        address indexed from,\n        address indexed to,\n        uint256 amount,\n        uint256 currentBlcok\n    );\n\n    constructor() {\n        _setRoleAdmin(ADMIN_ROLE, ADMIN_ROLE);\n        _setupRole(ADMIN_ROLE, msg.sender);\n    }\n\n\n    receive() external payable {\n        stake(msg.value);\n    }\n\n    fallback() external payable{\n        _fallback();\n    }\n\n    /// call uniswapRouter\n    function _fallback() internal {\n        address _impl = uniswapRouter();\n        uint256 value = msg.value;\n\n        require(\n            _impl != address(0),\n            \"TokamakStaker: uniswapRouter is zero\"\n        );\n        assembly {\n            // Copy msg.data. We take full control of memory in this inline assembly\n            // block because it will not return to Solidity code. We overwrite the\n            // Solidity scratch pad at memory position 0.\n            calldatacopy(0, 0, calldatasize())\n\n            // Call the implementation.\n            // out and outsize are 0 because we don't know the size yet.\n            //let result := delegatecall(gas(), _impl, 0, calldatasize(), 0, 0)\n            let result := call(gas(), _impl, value, 0, calldatasize(), 0, 0)\n\n            // Copy the returned data.\n            returndatacopy(0, 0, returndatasize())\n\n            switch result\n                // delegatecall returns 0 on error.\n                case 0 {\n                    revert(0, returndatasize())\n                }\n                default {\n                    return(0, returndatasize())\n                }\n        }\n    }\n\n    /// @dev Initialize\n    function initialize(\n        address _token,\n        address _paytoken,\n        address _vault,\n        uint256 _saleStartBlock,\n        uint256 _startBlock,\n        uint256 _period\n    ) external onlyOwner {\n        require(\n            _token != address(0) &&\n                _vault != address(0) &&\n                _saleStartBlock <= _startBlock\n        );\n        token = _token;\n        paytoken = _paytoken;\n        vault = _vault;\n        if (_saleStartBlock == 0) saleStartBlock = block.number;\n        else saleStartBlock = _saleStartBlock;\n        if (_startBlock == 0) startBlock = block.number;\n        else startBlock = _startBlock;\n        endBlock = startBlock + _period;\n    }\n\n    /// @dev Stake amount\n    function stake(uint256 _amount) public payable {\n        require(\n            (paytoken == address(0) && msg.value > 0) ||\n                (paytoken != address(0) && _amount > 0),\n            \"Stake1: amount is zero\"\n        );\n        require(\n            block.number >= saleStartBlock && saleStartBlock < startBlock,\n            \"Stake1: period is unavailable\"\n        );\n\n        uint256 amount = _amount;\n        if (paytoken == address(0)) amount = msg.value;\n\n        LibTokenStake1.StakedAmount storage staked = userStaked[msg.sender];\n        staked.amount += amount;\n        totalStakedAmount += amount;\n        if (paytoken != address(0))\n            require(\n                IERC20(paytoken).transferFrom(msg.sender, address(this), amount)\n            );\n    }\n\n    /// @dev To withdraw\n    function withdraw() external {\n        require(\n            endBlock > 0 && endBlock < block.number,\n            \"Stake1: on staking period\"\n        );\n        LibTokenStake1.StakedAmount storage staked = userStaked[msg.sender];\n\n        uint256 amount = staked.amount;\n\n        // TODO: restaking reward\n        require(\n            staked.amount > 0 && staked.releasedAmount <= staked.amount,\n            \"Stake1: releasedAmount > stakedAmount\"\n        );\n\n        staked.releasedAmount = staked.amount;\n        staked.releasedBlock = block.number;\n        staked.released = true;\n\n        // check if we send in ethers or in tokens\n        if (paytoken == address(0)) {\n            address payable self = address(uint160(address(this)));\n            require(self.balance >= amount);\n            (bool success, ) = msg.sender.call{value: amount}(\"\");\n            require(success, \"Stake1: withdraw eth send failed.\");\n        } else {\n            require(\n                IERC20(paytoken).transfer(msg.sender, amount),\n                \"Stake1: withdraw transfer fail\"\n            );\n        }\n\n        emit Withdrawal(address(this), msg.sender, amount, block.number);\n    }\n\n    /// @dev Claim for reward\n    function claim() external lock {\n        require(\n            IStake1Vault(vault).saleClosed() == true,\n            \"Stake1: disclose sale.\"\n        );\n        address account = msg.sender;\n        uint256 rewardClaim = 0;\n        uint256 currentBlock = block.number;\n\n        LibTokenStake1.StakedAmount storage staked = userStaked[account];\n        require(staked.claimedBlock < endBlock, \"Stake1: claimed\");\n\n        rewardClaim = canRewardAmount(account);\n\n        require(rewardClaim > 0, \"Stake1: reward is zero\");\n\n        uint256 rewardTotal =\n            IStake1Vault(vault).totalRewardAmount(address(this));\n        require(\n            (rewardClaimedTotal + rewardClaim) <= rewardTotal,\n            \"Stake1: total reward exceeds\"\n        );\n\n        staked.claimedBlock = currentBlock;\n        staked.claimedAmount += rewardClaim;\n        rewardClaimedTotal += rewardClaim;\n\n        require(IStake1Vault(vault).claim(account, rewardClaim));\n\n        emit Claimed(account, rewardClaim, currentBlock);\n    }\n\n    /// @dev Returns the amount that can be rewarded\n    function canRewardAmount(address account) public view returns (uint256) {\n        uint256 reward = 0;\n        if (\n            block.number < startBlock ||\n            userStaked[account].amount == 0 ||\n            userStaked[account].claimedBlock > endBlock ||\n            userStaked[account].claimedBlock > block.number\n        ) {\n            reward = 0;\n        } else {\n            uint256 startR = startBlock;\n            uint256 endR = endBlock;\n            if (startR < userStaked[account].claimedBlock)\n                startR = userStaked[account].claimedBlock;\n            if (block.number < endR) endR = block.number;\n\n            uint256[] memory orderedEndBlocks =\n                IStake1Vault(vault).orderedEndBlocksAll();\n\n            if (orderedEndBlocks.length > 0) {\n                uint256 _end = 0;\n                uint256 _total = 0;\n                uint256 blockTotalReward = 0;\n                blockTotalReward = IStake1Vault(vault).blockTotalReward();\n\n                for (uint256 i = 0; i < orderedEndBlocks.length; i++) {\n                    _end = orderedEndBlocks[i];\n                    _total = IStake1Vault(vault).stakeEndBlockTotal(_end);\n\n                    if (endR <= _end) {\n                        reward +=\n                            (blockTotalReward *\n                                (endR - startR) *\n                                userStaked[account].amount) /\n                            _total;\n                        break;\n                    } else {\n                        reward +=\n                            (blockTotalReward *\n                                (_end - startR) *\n                                userStaked[account].amount) /\n                            _total;\n                        startR = _end;\n                    }\n                }\n            }\n        }\n        return reward;\n    }\n\n}\n",
  "sourcePath": "/Users/kadyrbeknarmamatov/code/ico20-contracts/contracts/stake/Stake1.sol",
  "compiler": {
    "name": "solc",
    "version": "0.7.6+commit.7338295f.Emscripten.clang"
  },
  "schemaVersion": "3.4.0",
  "updatedAt": "2021-05-11T06:57:40.539Z",
  "devdoc": {
    "kind": "dev",
    "methods": {
      "canRewardAmount(address)": {
        "details": "Returns the amount that can be rewarded"
      },
      "claim()": {
        "details": "Claim for reward"
      },
      "getRoleAdmin(bytes32)": {
        "details": "Returns the admin role that controls `role`. See {grantRole} and {revokeRole}. To change a role's admin, use {_setRoleAdmin}."
      },
      "getRoleMember(bytes32,uint256)": {
        "details": "Returns one of the accounts that have `role`. `index` must be a value between 0 and {getRoleMemberCount}, non-inclusive. Role bearers are not sorted in any particular way, and their ordering may change at any point. WARNING: When using {getRoleMember} and {getRoleMemberCount}, make sure you perform all queries on the same block. See the following https://forum.openzeppelin.com/t/iterating-over-elements-on-enumerableset-in-openzeppelin-contracts/2296[forum post] for more information."
      },
      "getRoleMemberCount(bytes32)": {
        "details": "Returns the number of accounts that have `role`. Can be used together with {getRoleMember} to enumerate all bearers of a role."
      },
      "grantRole(bytes32,address)": {
        "details": "Grants `role` to `account`. If `account` had not been already granted `role`, emits a {RoleGranted} event. Requirements: - the caller must have ``role``'s admin role."
      },
      "hasRole(bytes32,address)": {
        "details": "Returns `true` if `account` has been granted `role`."
      },
      "initialize(address,address,address,uint256,uint256,uint256)": {
        "details": "Initialize"
      },
      "onApprove(address,address,uint256,bytes)": {
        "details": "Approves"
      },
      "renounceRole(bytes32,address)": {
        "details": "Revokes `role` from the calling account. Roles are often managed via {grantRole} and {revokeRole}: this function's purpose is to provide a mechanism for accounts to lose their privileges if they are compromised (such as when a trusted device is misplaced). If the calling account had been granted `role`, emits a {RoleRevoked} event. Requirements: - the caller must be `account`."
      },
      "revokeRole(bytes32,address)": {
        "details": "Revokes `role` from `account`. If `account` had been granted `role`, emits a {RoleRevoked} event. Requirements: - the caller must have ``role``'s admin role."
      },
      "stake(uint256)": {
        "details": "Stake amount"
      },
      "stakeOnApprove(address,address,address,uint256)": {
        "details": "stake with ton"
      },
      "supportsInterface(bytes4)": {
        "details": "See {IERC165-supportsInterface}. Time complexity O(1), guaranteed to always use less than 30 000 gas."
      },
      "withdraw()": {
        "details": "To withdraw"
      }
    },
    "version": 1
  },
  "userdoc": {
    "kind": "user",
    "methods": {},
    "version": 1
  }
}