{
  "contractName": "Stake1Vault",
  "abi": [
    {
      "inputs": [],
      "stateMutability": "nonpayable",
      "type": "constructor"
    },
    {
      "anonymous": false,
      "inputs": [
        {
          "indexed": true,
          "internalType": "address",
          "name": "from",
          "type": "address"
        },
        {
          "indexed": false,
          "internalType": "address",
          "name": "to",
          "type": "address"
        },
        {
          "indexed": false,
          "internalType": "uint256",
          "name": "amount",
          "type": "uint256"
        }
      ],
      "name": "ClaimedReward",
      "type": "event"
    },
    {
      "anonymous": false,
      "inputs": [],
      "name": "ClosedSale",
      "type": "event"
    },
    {
      "anonymous": false,
      "inputs": [
        {
          "indexed": true,
          "internalType": "bytes32",
          "name": "role",
          "type": "bytes32"
        },
        {
          "indexed": true,
          "internalType": "bytes32",
          "name": "previousAdminRole",
          "type": "bytes32"
        },
        {
          "indexed": true,
          "internalType": "bytes32",
          "name": "newAdminRole",
          "type": "bytes32"
        }
      ],
      "name": "RoleAdminChanged",
      "type": "event"
    },
    {
      "anonymous": false,
      "inputs": [
        {
          "indexed": true,
          "internalType": "bytes32",
          "name": "role",
          "type": "bytes32"
        },
        {
          "indexed": true,
          "internalType": "address",
          "name": "account",
          "type": "address"
        },
        {
          "indexed": true,
          "internalType": "address",
          "name": "sender",
          "type": "address"
        }
      ],
      "name": "RoleGranted",
      "type": "event"
    },
    {
      "anonymous": false,
      "inputs": [
        {
          "indexed": true,
          "internalType": "bytes32",
          "name": "role",
          "type": "bytes32"
        },
        {
          "indexed": true,
          "internalType": "address",
          "name": "account",
          "type": "address"
        },
        {
          "indexed": true,
          "internalType": "address",
          "name": "sender",
          "type": "address"
        }
      ],
      "name": "RoleRevoked",
      "type": "event"
    },
    {
      "inputs": [],
      "name": "ADMIN_ROLE",
      "outputs": [
        {
          "internalType": "bytes32",
          "name": "",
          "type": "bytes32"
        }
      ],
      "stateMutability": "view",
      "type": "function"
    },
    {
      "inputs": [],
      "name": "DEFAULT_ADMIN_ROLE",
      "outputs": [
        {
          "internalType": "bytes32",
          "name": "",
          "type": "bytes32"
        }
      ],
      "stateMutability": "view",
      "type": "function"
    },
    {
      "inputs": [],
      "name": "ZERO_HASH",
      "outputs": [
        {
          "internalType": "bytes32",
          "name": "",
          "type": "bytes32"
        }
      ],
      "stateMutability": "view",
      "type": "function"
    },
    {
      "inputs": [],
      "name": "blockTotalReward",
      "outputs": [
        {
          "internalType": "uint256",
          "name": "",
          "type": "uint256"
        }
      ],
      "stateMutability": "view",
      "type": "function"
    },
    {
      "inputs": [],
      "name": "cap",
      "outputs": [
        {
          "internalType": "uint256",
          "name": "",
          "type": "uint256"
        }
      ],
      "stateMutability": "view",
      "type": "function"
    },
    {
      "inputs": [],
      "name": "defiAddr",
      "outputs": [
        {
          "internalType": "address",
          "name": "",
          "type": "address"
        }
      ],
      "stateMutability": "view",
      "type": "function"
    },
    {
      "inputs": [],
      "name": "fld",
      "outputs": [
        {
          "internalType": "address",
          "name": "",
          "type": "address"
        }
      ],
      "stateMutability": "view",
      "type": "function"
    },
    {
      "inputs": [
        {
          "internalType": "bytes32",
          "name": "role",
          "type": "bytes32"
        }
      ],
      "name": "getRoleAdmin",
      "outputs": [
        {
          "internalType": "bytes32",
          "name": "",
          "type": "bytes32"
        }
      ],
      "stateMutability": "view",
      "type": "function"
    },
    {
      "inputs": [
        {
          "internalType": "bytes32",
          "name": "role",
          "type": "bytes32"
        },
        {
          "internalType": "uint256",
          "name": "index",
          "type": "uint256"
        }
      ],
      "name": "getRoleMember",
      "outputs": [
        {
          "internalType": "address",
          "name": "",
          "type": "address"
        }
      ],
      "stateMutability": "view",
      "type": "function"
    },
    {
      "inputs": [
        {
          "internalType": "bytes32",
          "name": "role",
          "type": "bytes32"
        }
      ],
      "name": "getRoleMemberCount",
      "outputs": [
        {
          "internalType": "uint256",
          "name": "",
          "type": "uint256"
        }
      ],
      "stateMutability": "view",
      "type": "function"
    },
    {
      "inputs": [
        {
          "internalType": "bytes32",
          "name": "role",
          "type": "bytes32"
        },
        {
          "internalType": "address",
          "name": "account",
          "type": "address"
        }
      ],
      "name": "grantRole",
      "outputs": [],
      "stateMutability": "nonpayable",
      "type": "function"
    },
    {
      "inputs": [
        {
          "internalType": "bytes32",
          "name": "role",
          "type": "bytes32"
        },
        {
          "internalType": "address",
          "name": "account",
          "type": "address"
        }
      ],
      "name": "hasRole",
      "outputs": [
        {
          "internalType": "bool",
          "name": "",
          "type": "bool"
        }
      ],
      "stateMutability": "view",
      "type": "function"
    },
    {
      "inputs": [
        {
          "internalType": "uint256",
          "name": "",
          "type": "uint256"
        }
      ],
      "name": "orderedEndBlocks",
      "outputs": [
        {
          "internalType": "uint256",
          "name": "",
          "type": "uint256"
        }
      ],
      "stateMutability": "view",
      "type": "function"
    },
    {
      "inputs": [],
      "name": "paytoken",
      "outputs": [
        {
          "internalType": "address",
          "name": "",
          "type": "address"
        }
      ],
      "stateMutability": "view",
      "type": "function"
    },
    {
      "inputs": [],
      "name": "realEndBlock",
      "outputs": [
        {
          "internalType": "uint256",
          "name": "",
          "type": "uint256"
        }
      ],
      "stateMutability": "view",
      "type": "function"
    },
    {
      "inputs": [
        {
          "internalType": "bytes32",
          "name": "role",
          "type": "bytes32"
        },
        {
          "internalType": "address",
          "name": "account",
          "type": "address"
        }
      ],
      "name": "renounceRole",
      "outputs": [],
      "stateMutability": "nonpayable",
      "type": "function"
    },
    {
      "inputs": [
        {
          "internalType": "bytes32",
          "name": "role",
          "type": "bytes32"
        },
        {
          "internalType": "address",
          "name": "account",
          "type": "address"
        }
      ],
      "name": "revokeRole",
      "outputs": [],
      "stateMutability": "nonpayable",
      "type": "function"
    },
    {
      "inputs": [],
      "name": "saleClosed",
      "outputs": [
        {
          "internalType": "bool",
          "name": "",
          "type": "bool"
        }
      ],
      "stateMutability": "view",
      "type": "function"
    },
    {
      "inputs": [],
      "name": "saleStartBlock",
      "outputs": [
        {
          "internalType": "uint256",
          "name": "",
          "type": "uint256"
        }
      ],
      "stateMutability": "view",
      "type": "function"
    },
    {
      "inputs": [
        {
          "internalType": "uint256",
          "name": "",
          "type": "uint256"
        }
      ],
      "name": "stakeAddresses",
      "outputs": [
        {
          "internalType": "address",
          "name": "",
          "type": "address"
        }
      ],
      "stateMutability": "view",
      "type": "function"
    },
    {
      "inputs": [],
      "name": "stakeEndBlock",
      "outputs": [
        {
          "internalType": "uint256",
          "name": "",
          "type": "uint256"
        }
      ],
      "stateMutability": "view",
      "type": "function"
    },
    {
      "inputs": [
        {
          "internalType": "uint256",
          "name": "",
          "type": "uint256"
        }
      ],
      "name": "stakeEndBlockTotal",
      "outputs": [
        {
          "internalType": "uint256",
          "name": "",
          "type": "uint256"
        }
      ],
      "stateMutability": "view",
      "type": "function"
    },
    {
      "inputs": [
        {
          "internalType": "address",
          "name": "",
          "type": "address"
        }
      ],
      "name": "stakeInfos",
      "outputs": [
        {
          "internalType": "string",
          "name": "name",
          "type": "string"
        },
        {
          "internalType": "uint256",
          "name": "startBlock",
          "type": "uint256"
        },
        {
          "internalType": "uint256",
          "name": "endBlock",
          "type": "uint256"
        },
        {
          "internalType": "uint256",
          "name": "balance",
          "type": "uint256"
        },
        {
          "internalType": "uint256",
          "name": "totalRewardAmount",
          "type": "uint256"
        },
        {
          "internalType": "uint256",
          "name": "claimRewardAmount",
          "type": "uint256"
        }
      ],
      "stateMutability": "view",
      "type": "function"
    },
    {
      "inputs": [],
      "name": "stakeStartBlock",
      "outputs": [
        {
          "internalType": "uint256",
          "name": "",
          "type": "uint256"
        }
      ],
      "stateMutability": "view",
      "type": "function"
    },
    {
      "inputs": [],
      "name": "stakeType",
      "outputs": [
        {
          "internalType": "uint256",
          "name": "",
          "type": "uint256"
        }
      ],
      "stateMutability": "view",
      "type": "function"
    },
    {
      "inputs": [
        {
          "internalType": "address",
          "name": "newOwner",
          "type": "address"
        }
      ],
      "name": "transferOwnership",
      "outputs": [],
      "stateMutability": "nonpayable",
      "type": "function"
    },
    {
      "stateMutability": "payable",
      "type": "receive"
    },
    {
      "inputs": [
        {
          "internalType": "address",
          "name": "_fld",
          "type": "address"
        },
        {
          "internalType": "address",
          "name": "_paytoken",
          "type": "address"
        },
        {
          "internalType": "uint256",
          "name": "_cap",
          "type": "uint256"
        },
        {
          "internalType": "uint256",
          "name": "_saleStartBlock",
          "type": "uint256"
        },
        {
          "internalType": "uint256",
          "name": "_stakeStartBlock",
          "type": "uint256"
        },
        {
          "internalType": "address",
          "name": "_stakefactory",
          "type": "address"
        },
        {
          "internalType": "uint256",
          "name": "_stakeType",
          "type": "uint256"
        },
        {
          "internalType": "address",
          "name": "_defiAddr",
          "type": "address"
        }
      ],
      "name": "initialize",
      "outputs": [],
      "stateMutability": "nonpayable",
      "type": "function"
    },
    {
      "inputs": [
        {
          "internalType": "address",
          "name": "_fld",
          "type": "address"
        }
      ],
      "name": "setFLD",
      "outputs": [],
      "stateMutability": "nonpayable",
      "type": "function"
    },
    {
      "inputs": [
        {
          "internalType": "uint256",
          "name": "_cap",
          "type": "uint256"
        }
      ],
      "name": "changeCap",
      "outputs": [],
      "stateMutability": "nonpayable",
      "type": "function"
    },
    {
      "inputs": [
        {
          "internalType": "address",
          "name": "_defiAddr",
          "type": "address"
        }
      ],
      "name": "setDefiAddr",
      "outputs": [],
      "stateMutability": "nonpayable",
      "type": "function"
    },
    {
      "inputs": [
        {
          "internalType": "string",
          "name": "_name",
          "type": "string"
        },
        {
          "internalType": "address",
          "name": "stakeContract",
          "type": "address"
        },
        {
          "internalType": "uint256",
          "name": "periodBlocks",
          "type": "uint256"
        }
      ],
      "name": "addSubVaultOfStake",
      "outputs": [],
      "stateMutability": "nonpayable",
      "type": "function"
    },
    {
      "inputs": [],
      "name": "closeSale",
      "outputs": [],
      "stateMutability": "nonpayable",
      "type": "function"
    },
    {
      "inputs": [
        {
          "internalType": "address",
          "name": "_to",
          "type": "address"
        },
        {
          "internalType": "uint256",
          "name": "_amount",
          "type": "uint256"
        }
      ],
      "name": "claim",
      "outputs": [
        {
          "internalType": "bool",
          "name": "",
          "type": "bool"
        }
      ],
      "stateMutability": "nonpayable",
      "type": "function"
    },
    {
      "inputs": [
        {
          "internalType": "address",
          "name": "_to",
          "type": "address"
        },
        {
          "internalType": "uint256",
          "name": "_amount",
          "type": "uint256"
        }
      ],
      "name": "canClaim",
      "outputs": [
        {
          "internalType": "bool",
          "name": "",
          "type": "bool"
        }
      ],
      "stateMutability": "view",
      "type": "function"
    },
    {
      "inputs": [],
      "name": "balanceFLDAvailableAmount",
      "outputs": [
        {
          "internalType": "uint256",
          "name": "",
          "type": "uint256"
        }
      ],
      "stateMutability": "view",
      "type": "function"
    },
    {
      "inputs": [],
      "name": "stakeAddressesAll",
      "outputs": [
        {
          "internalType": "address[]",
          "name": "",
          "type": "address[]"
        }
      ],
      "stateMutability": "view",
      "type": "function"
    },
    {
      "inputs": [],
      "name": "orderedEndBlocksAll",
      "outputs": [
        {
          "internalType": "uint256[]",
          "name": "",
          "type": "uint256[]"
        }
      ],
      "stateMutability": "view",
      "type": "function"
    },
    {
      "inputs": [
        {
          "internalType": "address",
          "name": "_account",
          "type": "address"
        }
      ],
      "name": "totalRewardAmount",
      "outputs": [
        {
          "internalType": "uint256",
          "name": "",
          "type": "uint256"
        }
      ],
      "stateMutability": "view",
      "type": "function"
    },
    {
      "inputs": [],
      "name": "infos",
      "outputs": [
        {
          "internalType": "address[2]",
          "name": "",
          "type": "address[2]"
        },
        {
          "internalType": "uint256",
          "name": "",
          "type": "uint256"
        },
        {
          "internalType": "uint256",
          "name": "",
          "type": "uint256"
        },
        {
          "internalType": "uint256[3]",
          "name": "",
          "type": "uint256[3]"
        },
        {
          "internalType": "uint256",
          "name": "",
          "type": "uint256"
        },
        {
          "internalType": "bool",
          "name": "",
          "type": "bool"
        }
      ],
      "stateMutability": "view",
      "type": "function"
    }
  ],
  "bytecode": "0x60806040523480156200001157600080fd5b506200002d60008051602062002f54833981519152806200004e565b6200004860008051602062002f5483398151915233620000a0565b620001b4565b600082815260208190526040808220600201549051839285917fbd79b86ffe0ab8e8776151514217cd7cacd52c909f66475c3af44e129f0b00ff9190a460009182526020829052604090912060020155565b620000ac8282620000b0565b5050565b600082815260208181526040909120620000d591839062001c9662000129821b17901c565b15620000ac57620000e562000149565b6001600160a01b0316816001600160a01b0316837f2f8788117e7eff1d82e926ec794901d17c78024a50270940304540a733656f0d60405160405180910390a45050565b600062000140836001600160a01b0384166200014d565b90505b92915050565b3390565b60006200015b83836200019c565b620001935750815460018181018455600084815260208082209093018490558454848252828601909352604090209190915562000143565b50600062000143565b60009081526001919091016020526040902054151590565b612d9080620001c46000396000f3fe6080604052600436106102245760003560e01c806398da0b611161012e578063ca15c873116100ab578063d547741f1161006f578063d547741f146105f3578063dc999b9414610613578063dfbf9def14610633578063ee55efee14610665578063f2fde38b1461067a5761022b565b8063ca15c8731461055c578063cbdeb6c01461057c578063d007e8961461059c578063d105bf85146105be578063d185a66b146105d35761022b565b8063aad3ec96116100f2578063aad3ec96146104db578063b03dc514146104fb578063b8c766b814610510578063b97af0db14610525578063c1b422fd1461053a5761022b565b806398da0b611461046a5780639a88be2f1461048a5780639d84ca35146104b1578063a217fddf146103b3578063a69c95dc146104c65761022b565b80633a76eb37116101bc5780635f1bd62a116101805780635f1bd62a146103c857806375b238fc146103e8578063800edb9d146103fd5780639010d07c1461041d57806391d148541461043d5761022b565b80633a76eb371461035457806340fc14f71461036957806343b0934a146103895780634b5e7cd51461039e5780634ce76a3c146103b35761022b565b80630962ccfc14610230578063153099d0146102525780632002727514610288578063248a9ca31461029d578063294f5fa3146102bd5780632f2ff15d146102ea57806333bd2a491461030a578063355274ea1461031f57806336568abe146103345761022b565b3661022b57005b600080fd5b34801561023c57600080fd5b5061025061024b3660046123dc565b61069a565b005b34801561025e57600080fd5b5061027261026d366004612374565b61091d565b60405161027f919061261a565b60405180910390f35b34801561029457600080fd5b5061027261093e565b3480156102a957600080fd5b506102726102b8366004612374565b610944565b3480156102c957600080fd5b506102dd6102d8366004612374565b61095c565b60405161027f91906124d6565b3480156102f657600080fd5b5061025061030536600461238c565b610986565b34801561031657600080fd5b506102dd6109ed565b34801561032b57600080fd5b506102726109fc565b34801561034057600080fd5b5061025061034f36600461238c565b610a02565b34801561036057600080fd5b50610272610a63565b34801561037557600080fd5b5061025061038436600461226d565b610a69565b34801561039557600080fd5b506102dd610b20565b3480156103aa57600080fd5b50610272610b2f565b3480156103bf57600080fd5b50610272610b35565b3480156103d457600080fd5b506102726103e3366004612374565b610b3a565b3480156103f457600080fd5b50610272610b4c565b34801561040957600080fd5b50610250610418366004612374565b610b5e565b34801561042957600080fd5b506102dd6104383660046123bb565b610be4565b34801561044957600080fd5b5061045d61045836600461238c565b610c05565b60405161027f919061260f565b34801561047657600080fd5b5061045d610485366004612329565b610c1d565b34801561049657600080fd5b5061049f610d7f565b60405161027f96959493929190612503565b3480156104bd57600080fd5b506102dd610df8565b3480156104d257600080fd5b50610272610e07565b3480156104e757600080fd5b5061045d6104f6366004612329565b610e8d565b34801561050757600080fd5b506102726110e9565b34801561051c57600080fd5b5061045d6110ef565b34801561053157600080fd5b506102726110f8565b34801561054657600080fd5b5061054f6110fe565b60405161027f91906125d7565b34801561056857600080fd5b50610272610577366004612374565b611156565b34801561058857600080fd5b5061027261059736600461226d565b61116d565b3480156105a857600080fd5b506105b161118b565b60405161027f919061258a565b3480156105ca57600080fd5b506102726111ec565b3480156105df57600080fd5b506102506105ee36600461226d565b6111f2565b3480156105ff57600080fd5b5061025061060e36600461238c565b61128d565b34801561061f57600080fd5b5061025061062e3660046122a5565b6112e6565b34801561063f57600080fd5b5061065361064e36600461226d565b611433565b60405161027f96959493929190612623565b34801561067157600080fd5b506102506114f2565b34801561068657600080fd5b5061025061069536600461226d565b611bb2565b6106b2600080516020612d0c83398151915233610c05565b6106ed5760405162461bcd60e51b8152600401808060200182810382526029815260200180612c416029913960400191505060405180910390fd5b6001600160a01b0382161580159061070757506000600354115b80156107135750600081115b6107385760405162461bcd60e51b815260040161072f90612727565b60405180910390fd5b60055443106107595760405162461bcd60e51b815260040161072f906126ae565b60095460ff161561077c5760405162461bcd60e51b815260040161072f90612953565b816001600160a01b03166343b0934a6040518163ffffffff1660e01b815260040160206040518083038186803b1580156107b557600080fd5b505afa1580156107c9573d6000803e3d6000fd5b505050506040513d601f19601f820116820180604052508101906107ed9190612289565b6002546001600160a01b0390811691161461081a5760405162461bcd60e51b815260040161072f90612a70565b6001600160a01b0382166000908152600d602052604090206001810154156108545760405162461bcd60e51b815260040161072f90612aa7565b600c805460018101825560009182527fdf6966c971051c3d54ec59162606531493a51404a002842f56009d7e5cf4a8c70180546001600160a01b0319166001600160a01b0386161790556005546108ab9084611cab565b85519091506108c09083906020880190612185565b506005546001830155600282018190556006548111156108e05760068190555b5050600654600e80546001810182556000919091527fbb7b4a454dc3493923482f07822329ed19e8244eff582cc204f8554c3620c3fd0155505050565b600e818154811061092d57600080fd5b600091825260209091200154905081565b60045481565b6000818152602081905260409020600201545b919050565b600c818154811061096c57600080fd5b6000918252602090912001546001600160a01b0316905081565b6000828152602081905260409020600201546109a490610458611d05565b6109df5760405162461bcd60e51b815260040180806020018281038252602f815260200180612c8c602f913960400191505060405180910390fd5b6109e98282611d09565b5050565b6001546001600160a01b031681565b60035481565b610a0a611d05565b6001600160a01b0316816001600160a01b031614610a595760405162461bcd60e51b815260040180806020018281038252602f815260200180612d2c602f913960400191505060405180910390fd5b6109e98282611d72565b60065481565b610a81600080516020612d0c83398151915233610c05565b610abc5760405162461bcd60e51b8152600401808060200182810382526029815260200180612c416029913960400191505060405180910390fd5b6001600160a01b03811615801590610ae25750600b546001600160a01b03828116911614155b610afe5760405162461bcd60e51b815260040161072f906129cb565b600b80546001600160a01b0319166001600160a01b0392909216919091179055565b6002546001600160a01b031681565b60055481565b600081565b600f6020526000908152604090205481565b600080516020612d0c83398151915281565b610b76600080516020612d0c83398151915233610c05565b610bb15760405162461bcd60e51b8152600401808060200182810382526029815260200180612c416029913960400191505060405180910390fd5b600081118015610bc357508060035414155b610bdf5760405162461bcd60e51b815260040161072f906128a6565b600355565b6000828152602081905260408120610bfc9083611ddb565b90505b92915050565b6000828152602081905260408120610bfc9083611de7565b60095460009060ff16610c425760405162461bcd60e51b815260040161072f90612847565b6001546040516370a0823160e01b81526000916001600160a01b0316906370a0823190610c739030906004016124d6565b60206040518083038186803b158015610c8b57600080fd5b505afa158015610c9f573d6000803e3d6000fd5b505050506040513d601f19601f82011682018060405250810190610cc3919061248b565b905082811015610ce55760405162461bcd60e51b815260040161072f906127ec565b6001600160a01b0384166000908152600d602052604090206001810154610d1e5760405162461bcd60e51b815260040161072f90612bc4565b6000816004015411610d425760405162461bcd60e51b815260040161072f906126f0565b6005810154610d519085611cab565b81600401541015610d745760405162461bcd60e51b815260040161072f90612677565b506001949350505050565b610d87612211565b600080610d9261222f565b50506040805180820182526002546001600160a01b039081168252600b5416602080830191909152600354600a54845160608101865260045481526005549381019390935260065494830194909452600854600954939791965093945090929160ff1690565b600b546001600160a01b031681565b6001546040516370a0823160e01b81526000916001600160a01b0316906370a0823190610e389030906004016124d6565b60206040518083038186803b158015610e5057600080fd5b505afa158015610e64573d6000803e3d6000fd5b505050506040513d601f19601f82011682018060405250810190610e88919061248b565b905090565b60095460009060ff168015610ea25750600082115b610ebe5760405162461bcd60e51b815260040161072f90612a02565b6001546040516370a0823160e01b81526000916001600160a01b0316906370a0823190610eef9030906004016124d6565b60206040518083038186803b158015610f0757600080fd5b505afa158015610f1b573d6000803e3d6000fd5b505050506040513d601f19601f82011682018060405250810190610f3f919061248b565b905082811015610f615760405162461bcd60e51b815260040161072f90612b15565b336000908152600d602052604090206001810154610f915760405162461bcd60e51b815260040161072f90612ade565b6000816004015411610fb55760405162461bcd60e51b815260040161072f90612985565b6005810154610fc49085611cab565b81600401541015610fe75760405162461bcd60e51b815260040161072f90612b83565b6005810154610ff69085611cab565b600582015560015460405163a9059cbb60e01b81526001600160a01b039091169063a9059cbb9061102d90889088906004016124ea565b602060405180830381600087803b15801561104757600080fd5b505af115801561105b573d6000803e3d6000fd5b505050506040513d601f19601f8201168201806040525081019061107f9190612354565b61109b5760405162461bcd60e51b815260040161072f90612b4c565b336001600160a01b03167faee3654837b73cc93e61b5d33f82d45b1df4dbe682913819f5ce40de23518e7286866040516110d69291906124ea565b60405180910390a2506001949350505050565b60075481565b60095460ff1681565b600a5481565b6060600e80548060200260200160405190810160405280929190818152602001828054801561114c57602002820191906000526020600020905b815481526020019060010190808311611138575b5050505050905090565b6000818152602081905260408120610bff90611dfc565b6001600160a01b03166000908152600d602052604090206004015490565b6060600c80548060200260200160405190810160405280929190818152602001828054801561114c57602002820191906000526020600020905b81546001600160a01b031681526001909101906020018083116111c5575050505050905090565b60085481565b61120a600080516020612d0c83398151915233610c05565b6112455760405162461bcd60e51b8152600401808060200182810382526029815260200180612c416029913960400191505060405180910390fd5b6001600160a01b03811661126b5760405162461bcd60e51b815260040161072f9061276f565b600180546001600160a01b0319166001600160a01b0392909216919091179055565b6000828152602081905260409020600201546112ab90610458611d05565b610a595760405162461bcd60e51b8152600401808060200182810382526030815260200180612cbb6030913960400191505060405180910390fd5b6112fe600080516020612d0c83398151915233610c05565b6113395760405162461bcd60e51b8152600401808060200182810382526029815260200180612c416029913960400191505060405180910390fd5b6001600160a01b0388161580159061135957506001600160a01b03831615155b6113755760405162461bcd60e51b815260040161072f9061276f565b600086116113955760405162461bcd60e51b815260040161072f90612920565b83851080156113a45750600084115b6113c05760405162461bcd60e51b815260040161072f906127a6565b600180546001600160a01b03808b166001600160a01b0319928316179092556003889055600280548a841690831617905560048790556005869055600a849055600b805492841692909116919091179055611429600080516020612d0c83398151915284610986565b5050505050505050565b600d6020908152600091825260409182902080548351601f600260001961010060018616150201909316929092049182018490048402810184019094528084529092918391908301828280156114ca5780601f1061149f576101008083540402835291602001916114ca565b820191906000526020600020905b8154815290600101906020018083116114ad57829003601f168201915b5050505050908060010154908060020154908060030154908060040154908060050154905086565b60095460ff16156115155760405162461bcd60e51b815260040161072f90612a39565b600060035411801561152957506000600554115b80156115385750600654600554105b8015611545575060055443115b6115615760405162461bcd60e51b815260040161072f906128dd565b600c546115805760405162461bcd60e51b815260040161072f90612876565b60065460075560005b600c54811015611756576000600d6000600c84815481106115a657fe5b60009182526020808320909101546001600160a01b03908116845290830193909352604090910190206002549092501661160757600c82815481106115e757fe5b6000918252602090912001546001600160a01b0316316003820155611706565b600254600c805460009283926001600160a01b03909116918690811061162957fe5b60009182526020909120015460405161164e916001600160a01b0316906024016124d6565b60408051601f198184030181529181526020820180516001600160e01b03166370a0823160e01b1790525161168391906124ba565b6000604051808303816000865af19150503d80600081146116c0576040519150601f19603f3d011682016040523d82523d6000602084013e6116c5565b606091505b5091509150816116e75760405162461bcd60e51b815260040161072f90612810565b6000818060200190518101906116fd919061248b565b60038501555050505b60038101541561174d57600d6000600c848154811061172157fe5b60009182526020808320909101546001600160a01b031683528201929092526040019020600201546007555b50600101611589565b5061177a611771600554600754611e0790919063ffffffff16565b60035490611e49565b6008556000805b600c54811015611b78576000600d6000600c848154811061179e57fe5b60009182526020808320909101546001600160a01b0316835282019290925260400181209150805b600c54811015611861578260020154600d6000600c84815481106117e657fe5b60009182526020808320909101546001600160a01b031683528201929092526040019020600201541061185957611856600d6000600c848154811061182757fe5b60009182526020808320909101546001600160a01b031683528201929092526040019020600301548390611cab565b91505b6001016117c6565b50600754826002015411611b6e5760028201546000908152600f6020526040902081905561188f8482611cab565b93506000835b8015611a22576000600f6000600d6000600c86815481106118b257fe5b60009182526020808320909101546001600160a01b0316835282810193909352604091820181206002015484529183019390935291019020541115611a1957611a16611a0f600f6000600d6000600c878154811061190c57fe5b9060005260206000200160009054906101000a90046001600160a01b03166001600160a01b03166001600160a01b0316815260200190815260200160002060020154815260200190815260200160002054611a098760030154611a03600854611a03600d6000600c60018c038154811061198257fe5b9060005260206000200160009054906101000a90046001600160a01b03166001600160a01b03166001600160a01b0316815260200190815260200160002060020154600d6000600c8c815481106119d557fe5b60009182526020808320909101546001600160a01b0316835282019290925260400190206002015490611e07565b90611e8b565b90611e49565b8390611cab565b91505b60001901611895565b506000600f6000600d6000600c600081548110611a3b57fe5b60009182526020808320909101546001600160a01b0316835282810193909352604091820181206002015484529183019390935291019020541115611b6857611b65611b5e600f6000600d6000600c600081548110611a9657fe5b9060005260206000200160009054906101000a90046001600160a01b03166001600160a01b03166001600160a01b0316815260200190815260200160002060020154815260200190815260200160002054611a098660030154611a03600854611a03600d6000600c600081548110611b0a57fe5b9060005260206000200160009054906101000a90046001600160a01b03166001600160a01b03166001600160a01b0316815260200190815260200160002060010154600d6000600c6000815481106119d557fe5b8290611cab565b90505b60048301555b5050600101611781565b506009805460ff191660011790556040517fc5b08164caddd376836c1274d424a6a993b43d0225bb894c5b9e2a1e91e4bf5c90600090a150565b611bca600080516020612d0c83398151915233610c05565b611c055760405162461bcd60e51b8152600401808060200182810382526029815260200180612c416029913960400191505060405180910390fd5b336001600160a01b0382161415611c63576040805162461bcd60e51b815260206004820152601d60248201527f5374616b655661756c7453746f726167653a2073616d65206f776e6572000000604482015290519081900360640190fd5b611c7b600080516020612d0c83398151915282610986565b611c93600080516020612d0c8339815191523361128d565b50565b6000610bfc836001600160a01b038416611ee4565b600082820183811015610bfc576040805162461bcd60e51b815260206004820152601b60248201527f536166654d6174683a206164646974696f6e206f766572666c6f770000000000604482015290519081900360640190fd5b3390565b6000828152602081905260409020611d219082611c96565b156109e957611d2e611d05565b6001600160a01b0316816001600160a01b0316837f2f8788117e7eff1d82e926ec794901d17c78024a50270940304540a733656f0d60405160405180910390a45050565b6000828152602081905260409020611d8a9082611f2e565b156109e957611d97611d05565b6001600160a01b0316816001600160a01b0316837ff6391f5c32d9c69d2a47ea670b442974b53935d1edc7fd64eb21e047a839171b60405160405180910390a45050565b6000610bfc8383611f43565b6000610bfc836001600160a01b038416611fa7565b6000610bff82611fbf565b6000610bfc83836040518060400160405280601e81526020017f536166654d6174683a207375627472616374696f6e206f766572666c6f770000815250611fc3565b6000610bfc83836040518060400160405280601a81526020017f536166654d6174683a206469766973696f6e206279207a65726f00000000000081525061205a565b600082611e9a57506000610bff565b82820282848281611ea757fe5b0414610bfc5760405162461bcd60e51b8152600401808060200182810382526021815260200180612ceb6021913960400191505060405180910390fd5b6000611ef08383611fa7565b611f2657508154600181810184556000848152602080822090930184905584548482528286019093526040902091909155610bff565b506000610bff565b6000610bfc836001600160a01b0384166120bf565b81546000908210611f855760405162461bcd60e51b8152600401808060200182810382526022815260200180612c6a6022913960400191505060405180910390fd5b826000018281548110611f9457fe5b9060005260206000200154905092915050565b60009081526001919091016020526040902054151590565b5490565b600081848411156120525760405162461bcd60e51b81526004018080602001828103825283818151815260200191508051906020019080838360005b83811015612017578181015183820152602001611fff565b50505050905090810190601f1680156120445780820380516001836020036101000a031916815260200191505b509250505060405180910390fd5b505050900390565b600081836120a95760405162461bcd60e51b8152602060048201818152835160248401528351909283926044909101919085019080838360008315612017578181015183820152602001611fff565b5060008385816120b557fe5b0495945050505050565b6000818152600183016020526040812054801561217b57835460001980830191908101906000908790839081106120f257fe5b906000526020600020015490508087600001848154811061210f57fe5b60009182526020808320909101929092558281526001898101909252604090209084019055865487908061213f57fe5b60019003818190600052602060002001600090559055866001016000878152602001908152602001600020600090556001945050505050610bff565b6000915050610bff565b828054600181600116156101000203166002900490600052602060002090601f0160209004810192826121bb5760008555612201565b82601f106121d457805160ff1916838001178555612201565b82800160010185558215612201579182015b828111156122015782518255916020019190600101906121e6565b5061220d92915061224d565b5090565b60405180604001604052806002906020820280368337509192915050565b60405180606001604052806003906020820280368337509192915050565b5b8082111561220d576000815560010161224e565b803561095781612c2b565b60006020828403121561227e578081fd5b8135610bfc81612c2b565b60006020828403121561229a578081fd5b8151610bfc81612c2b565b600080600080600080600080610100898b0312156122c1578384fd5b88356122cc81612c2b565b975060208901356122dc81612c2b565b965060408901359550606089013594506080890135935060a089013561230181612c2b565b925060c0890135915060e089013561231881612c2b565b809150509295985092959890939650565b6000806040838503121561233b578182fd5b823561234681612c2b565b946020939093013593505050565b600060208284031215612365578081fd5b81518015158114610bfc578182fd5b600060208284031215612385578081fd5b5035919050565b6000806040838503121561239e578182fd5b8235915060208301356123b081612c2b565b809150509250929050565b600080604083850312156123cd578182fd5b50508035926020909101359150565b6000806000606084860312156123f0578283fd5b833567ffffffffffffffff80821115612407578485fd5b818601915086601f83011261241a578485fd5b813560208282111561242857fe5b604051601f8301601f191681018201848111828210171561244557fe5b60405282815284830182018a101561245b578788fd5b8282860183830137808301820197909752612477888201612262565b955050505050604084013590509250925092565b60006020828403121561249c578081fd5b5051919050565b6001600160a01b0316815260200190565b15159052565b600082516124cc818460208701612bfb565b9190910192915050565b6001600160a01b0391909116815260200190565b6001600160a01b03929092168252602082015260400190565b6101208101818860005b6002811015612532576125218383516124a3565b92506020919091019060010161250d565b505050866040830152856060830152608082018560005b6003811015612568578151835260209283019290910190600101612549565b5050508360e083015261257f6101008301846124b4565b979650505050505050565b6020808252825182820181905260009190848201906040850190845b818110156125cb5783516001600160a01b0316835292840192918401916001016125a6565b50909695505050505050565b6020808252825182820181905260009190848201906040850190845b818110156125cb578351835292840192918401916001016125f3565b901515815260200190565b90815260200190565b600060c0825287518060c08401526126428160e0850160208c01612bfb565b60208301979097525060408101949094526060840192909252608083015260a082015260e0601f909201601f19160101919050565b6020808252601b908201527f5374616b65315661756c743a20616d6f756e7420657863656564730000000000604082015260600190565b60208082526022908201527f5374616b65315661756c743a20416c72656164792073746172746564207374616040820152616b6560f01b606082015260800190565b6020808252601c908201527f5374616b65315661756c743a20616d6f756e742069732077726f6e6700000000604082015260600190565b60208082526028908201527f5374616b65315661756c743a206164645374616b6572496e5661756c7420696e6040820152676974206661696c7360c01b606082015260800190565b6020808252601a908201527f5374616b65315661756c743a20696e707574206973207a65726f000000000000604082015260600190565b60208082526026908201527f5374616b65315661756c743a207374617274426c6f636b20697320756e617661604082015265696c61626c6560d01b606082015260800190565b6020808252600a90820152690dcdee840cadcdeeaced60b31b604082015260600190565b6020808252601e908201527f5374616b65315661756c743a2062616c616e63652063616c6c206661696c0000604082015260600190565b6020808252601590820152745374616b65315661756c743a20646973636c6f736560581b604082015260600190565b6020808252601690820152755374616b65315661756c743a206e6f207374616b657360501b604082015260600190565b6020808252601c908201527f5374616b65315661756c743a206368616e6765436170206661696c7300000000604082015260600190565b60208082526023908201527f5374616b65315661756c743a204265666f7265207374616b655374617274426c6040820152626f636b60e81b606082015260800190565b6020808252601990820152785374616b65315661756c743a205f636170206973207a65726f60381b604082015260600190565b6020808252601890820152775374616b65315661756c743a20636c6f7365642073616c6560401b604082015260600190565b60208082526026908201527f5374616b65315661756c743a20746f74616c526577617264416d6f756e74206960408201526573207a65726f60d01b606082015260800190565b6020808252601e908201527f5374616b65315661756c743a205f6465666941646472206973207a65726f0000604082015260600190565b6020808252601a908201527f5374616b65315661756c743a20646973636c6f73652073616c65000000000000604082015260600190565b6020808252601b908201527f5374616b65315661756c743a20616c726561647920636c6f7365640000000000604082015260600190565b6020808252601f908201527f5374616b65315661756c743a20446966666572656e7420706179746f6b656e00604082015260600190565b6020808252601a908201527f5374616b65315661756c743a20416c7265616479206164646564000000000000604082015260600190565b6020808252601c908201527f5374616b65315661756c743a207374617274426c6f636b207a65726f00000000604082015260600190565b6020808252601f908201527f5374616b65315661756c743a206e6f7420656e6f7567682062616c616e636500604082015260600190565b6020808252601e908201527f5374616b65315661756c743a20464c44207472616e73666572206661696c0000604082015260600190565b60208082526021908201527f5374616b65315661756c743a20636c61696d20616d6f756e74206578636565646040820152607360f81b606082015260800190565b6020808252601f908201527f5374616b65315661756c743a207374617274426c6f636b206973207a65726f00604082015260600190565b60005b83811015612c16578181015183820152602001612bfe565b83811115612c25576000848401525b50505050565b6001600160a01b0381168114611c9357600080fdfe5374616b655661756c7453746f726167653a2043616c6c6572206973206e6f7420616e2061646d696e456e756d657261626c655365743a20696e646578206f7574206f6620626f756e6473416363657373436f6e74726f6c3a2073656e646572206d75737420626520616e2061646d696e20746f206772616e74416363657373436f6e74726f6c3a2073656e646572206d75737420626520616e2061646d696e20746f207265766f6b65536166654d6174683a206d756c7469706c69636174696f6e206f766572666c6f77df8b4c520ffe197c5343c6f5aec59570151ef9a492f2c624fd45ddde6135ec42416363657373436f6e74726f6c3a2063616e206f6e6c792072656e6f756e636520726f6c657320666f722073656c66a2646970667358221220c64e81e2af2b98948b28a09cf97cb03d97deb557e82dfb93073441ef3511d60d64736f6c63430007060033df8b4c520ffe197c5343c6f5aec59570151ef9a492f2c624fd45ddde6135ec42",
  "immutableReferences": {},
  "source": "//SPDX-License-Identifier: Unlicense\npragma solidity ^0.7.6;\npragma abicoder v2;\n\nimport \"../interfaces/IStake1Vault.sol\";\nimport {IFLD} from \"../interfaces/IFLD.sol\";\nimport {IERC20} from \"@openzeppelin/contracts/token/ERC20/IERC20.sol\";\nimport \"../interfaces/IStake1Storage.sol\";\nimport \"../libraries/LibTokenStake1.sol\";\nimport {SafeMath} from \"../utils/math/SafeMath.sol\";\nimport \"./StakeVaultStorage.sol\";\n\n/// @title FLD Token's Vault - stores the fld for the period of time\n/// @notice A vault is associated with the set of stake contracts.\n/// Stake contracts can interact with the vault to claim fld tokens\ncontract Stake1Vault is StakeVaultStorage, IStake1Vault {\n    using SafeMath for uint256;\n\n    bytes32 public constant ZERO_HASH =\n        0x0000000000000000000000000000000000000000000000000000000000000000;\n\n    /// @dev event on sale-closed\n    event ClosedSale();\n\n    /// @dev event on sale-closed\n    /// @param from the stakeContract address that call claim\n    /// @param to the address that will receive the reward\n    /// @param amount the amount of reward\n    event ClaimedReward(address indexed from, address to, uint256 amount);\n\n    /// @dev constructor of Stake1Vault\n    constructor() {\n        _setRoleAdmin(ADMIN_ROLE, ADMIN_ROLE);\n        _setupRole(ADMIN_ROLE, msg.sender);\n    }\n\n    /// @dev receive function\n    receive() external payable {}\n\n    /// @dev Initializes all variables\n    /// @param _fld  FLD token address\n    /// @param _paytoken  Tokens staked by users, can be used as ERC20 tokens.\n    //                     (In case of ETH, input address(0))\n    /// @param _cap  Maximum amount of rewards issued, allocated reward amount.\n    /// @param _saleStartBlock  the sale start block\n    /// @param _stakeStartBlock  the staking start block\n    /// @param _stakefactory the factory address to create stakeContract\n    /// @param _stakeType  Type of staking contract, 0 TON staking, 1 basic ERC20 staking, 2 Defi linked staking\n    /// @param _defiAddr Used when an external address is required. default: address(0)\n    function initialize(\n        address _fld,\n        address _paytoken,\n        uint256 _cap,\n        uint256 _saleStartBlock,\n        uint256 _stakeStartBlock,\n        address _stakefactory,\n        uint256 _stakeType,\n        address _defiAddr\n    ) external override onlyOwner {\n        require(\n            _fld != address(0) && _stakefactory != address(0),\n            \"Stake1Vault: input is zero\"\n        );\n        require(_cap > 0, \"Stake1Vault: _cap is zero\");\n        require(\n            _saleStartBlock < _stakeStartBlock && _stakeStartBlock > 0,\n            \"Stake1Vault: startBlock is unavailable\"\n        );\n\n        fld = _fld;\n        cap = _cap;\n        paytoken = _paytoken;\n        saleStartBlock = _saleStartBlock;\n        stakeStartBlock = _stakeStartBlock;\n        stakeType = _stakeType;\n        defiAddr = _defiAddr;\n\n        grantRole(ADMIN_ROLE, _stakefactory);\n    }\n\n    /// @dev Sets FLD address\n    /// @param _fld  FLD address\n    function setFLD(address _fld) external override onlyOwner {\n        require(_fld != address(0), \"Stake1Vault: input is zero\");\n        fld = _fld;\n    }\n\n    /// @dev Change cap of the vault\n    /// @param _cap  allocated reward amount\n    function changeCap(uint256 _cap) external override onlyOwner {\n        require(_cap > 0 && cap != _cap, \"Stake1Vault: changeCap fails\");\n        cap = _cap;\n    }\n\n    /// @dev Set Defi Address\n    /// @param _defiAddr DeFi related address\n    function setDefiAddr(address _defiAddr) external override onlyOwner {\n        require(\n            _defiAddr != address(0) && defiAddr != _defiAddr,\n            \"Stake1Vault: _defiAddr is zero\"\n        );\n        defiAddr = _defiAddr;\n    }\n\n    /// @dev  Add stake contract\n    /// @param _name stakeContract's name\n    /// @param stakeContract stakeContract's address\n    /// @param periodBlocks the period that give rewards of stakeContract\n    function addSubVaultOfStake(\n        string memory _name,\n        address stakeContract,\n        uint256 periodBlocks\n    ) external override onlyOwner {\n        require(\n            stakeContract != address(0) && cap > 0 && periodBlocks > 0,\n            \"Stake1Vault: addStakerInVault init fails\"\n        );\n        require(\n            block.number < stakeStartBlock,\n            \"Stake1Vault: Already started stake\"\n        );\n        require(saleClosed == false, \"Stake1Vault: closed sale\");\n        require(\n            paytoken == IStake1Storage(stakeContract).paytoken(),\n            \"Stake1Vault: Different paytoken\"\n        );\n\n        LibTokenStake1.StakeInfo storage info = stakeInfos[stakeContract];\n        require(info.startBlock == 0, \"Stake1Vault: Already added\");\n\n        stakeAddresses.push(stakeContract);\n        uint256 _endBlock = stakeStartBlock.add(periodBlocks);\n\n        info.name = _name;\n        info.startBlock = stakeStartBlock;\n        info.endBlock = _endBlock;\n\n        if (stakeEndBlock < _endBlock) stakeEndBlock = _endBlock;\n        orderedEndBlocks.push(stakeEndBlock);\n    }\n\n    /// @dev  Close the sale that can stake by user\n    function closeSale() external override {\n        require(saleClosed == false, \"Stake1Vault: already closed\");\n        require(\n            cap > 0 &&\n                stakeStartBlock > 0 &&\n                stakeStartBlock < stakeEndBlock &&\n                block.number > stakeStartBlock,\n            \"Stake1Vault: Before stakeStartBlock\"\n        );\n        require(stakeAddresses.length > 0, \"Stake1Vault: no stakes\");\n\n        realEndBlock = stakeEndBlock;\n\n        // check balance, update balance\n        for (uint256 i = 0; i < stakeAddresses.length; i++) {\n            LibTokenStake1.StakeInfo storage stakeInfo =\n                stakeInfos[stakeAddresses[i]];\n            if (paytoken == address(0)) {\n                stakeInfo.balance = address(uint160(stakeAddresses[i])).balance;\n            } else {\n                (bool success, bytes memory returnData) =\n                    paytoken.call(\n                        abi.encodeWithSignature(\n                            \"balanceOf(address)\",\n                            stakeAddresses[i]\n                        )\n                    );\n                require(success, \"Stake1Vault: balance call fail\");\n                uint256 balanceAmount = abi.decode(returnData, (uint256));\n                stakeInfo.balance = balanceAmount;\n            }\n            if (stakeInfo.balance > 0)\n                realEndBlock = stakeInfos[stakeAddresses[i]].endBlock;\n        }\n\n        blockTotalReward = cap.div(realEndBlock.sub(stakeStartBlock));\n\n        uint256 sum = 0;\n        // update total\n        for (uint256 i = 0; i < stakeAddresses.length; i++) {\n            LibTokenStake1.StakeInfo storage totalcheck =\n                stakeInfos[stakeAddresses[i]];\n            uint256 total = 0;\n            for (uint256 j = 0; j < stakeAddresses.length; j++) {\n                if (\n                    stakeInfos[stakeAddresses[j]].endBlock >=\n                    totalcheck.endBlock\n                ) {\n                    total = total.add(stakeInfos[stakeAddresses[j]].balance);\n                }\n            }\n\n            if (totalcheck.endBlock <= realEndBlock) {\n                stakeEndBlockTotal[totalcheck.endBlock] = total;\n\n                sum = sum.add(total);\n\n                // reward total\n                uint256 totalReward = 0;\n                for (uint256 k = i; k > 0; k--) {\n                    if (\n                        stakeEndBlockTotal[\n                            stakeInfos[stakeAddresses[k]].endBlock\n                        ] > 0\n                    ) {\n                        totalReward = totalReward.add(\n                            stakeInfos[stakeAddresses[k]]\n                                .endBlock\n                                .sub(stakeInfos[stakeAddresses[k - 1]].endBlock)\n                                .mul(blockTotalReward)\n                                .mul(totalcheck.balance)\n                                .div(\n                                stakeEndBlockTotal[\n                                    stakeInfos[stakeAddresses[k]].endBlock\n                                ]\n                            )\n                        );\n                    }\n                }\n\n                if (\n                    stakeEndBlockTotal[stakeInfos[stakeAddresses[0]].endBlock] >\n                    0\n                ) {\n                    totalReward = totalReward.add(\n                        stakeInfos[stakeAddresses[0]]\n                            .endBlock\n                            .sub(stakeInfos[stakeAddresses[0]].startBlock)\n                            .mul(blockTotalReward)\n                            .mul(totalcheck.balance)\n                            .div(\n                            stakeEndBlockTotal[\n                                stakeInfos[stakeAddresses[0]].endBlock\n                            ]\n                        )\n                    );\n                }\n                totalcheck.totalRewardAmount = totalReward;\n            }\n        }\n\n        saleClosed = true;\n        emit ClosedSale();\n    }\n\n    /// @dev claim function.\n    /// @dev sender is a staking contract.\n    /// @dev A function that pays the amount(_amount) to _to by the staking contract.\n    /// @dev A function that _to claim the amount(_amount) from the staking contract and gets the FLD in the vault.\n    /// @param _to a user that received reward\n    /// @param _amount the receiving amount\n    /// @return true\n    function claim(address _to, uint256 _amount)\n        external\n        override\n        returns (bool)\n    {\n        require(saleClosed && _amount > 0, \"Stake1Vault: disclose sale\");\n        uint256 fldBalance = IERC20(fld).balanceOf(address(this));\n        require(fldBalance >= _amount, \"Stake1Vault: not enough balance\");\n\n        LibTokenStake1.StakeInfo storage stakeInfo = stakeInfos[msg.sender];\n        require(stakeInfo.startBlock > 0, \"Stake1Vault: startBlock zero\");\n        require(\n            stakeInfo.totalRewardAmount > 0,\n            \"Stake1Vault: totalRewardAmount is zero\"\n        );\n        require(\n            stakeInfo.totalRewardAmount >=\n                stakeInfo.claimRewardAmount.add(_amount),\n            \"Stake1Vault: claim amount exceeds\"\n        );\n\n        stakeInfo.claimRewardAmount = stakeInfo.claimRewardAmount.add(_amount);\n\n        require(\n            IERC20(fld).transfer(_to, _amount),\n            \"Stake1Vault: FLD transfer fail\"\n        );\n\n        emit ClaimedReward(msg.sender, _to, _amount);\n        return true;\n    }\n\n    /// @dev whether it is available to claim amount, if it is available , return the total reward amount\n    /// @param _to  a staking contract.\n    /// @param _amount the total reward amount of stakeContract\n    /// @return true\n    function canClaim(address _to, uint256 _amount)\n        external\n        view\n        override\n        returns (bool)\n    {\n        require(saleClosed, \"Stake1Vault: disclose\");\n        uint256 fldBalance = IERC20(fld).balanceOf(address(this));\n        require(fldBalance >= _amount, \"not enough\");\n\n        LibTokenStake1.StakeInfo storage stakeInfo = stakeInfos[_to];\n        require(stakeInfo.startBlock > 0, \"Stake1Vault: startBlock is zero\");\n\n        require(\n            stakeInfo.totalRewardAmount > 0,\n            \"Stake1Vault: amount is wrong\"\n        );\n        require(\n            stakeInfo.totalRewardAmount >=\n                stakeInfo.claimRewardAmount.add(_amount),\n            \"Stake1Vault: amount exceeds\"\n        );\n\n        return true;\n    }\n\n    /// @dev Returns Give the FLD balance stored in the vault\n    /// @return the balance of FLD in this vault.\n    function balanceFLDAvailableAmount()\n        external\n        view\n        override\n        returns (uint256)\n    {\n        return IERC20(fld).balanceOf(address(this));\n    }\n\n    /// @dev Give all stakeContracts's addresses in this vault\n    /// @return all stakeContracts's addresses\n    function stakeAddressesAll()\n        external\n        view\n        override\n        returns (address[] memory)\n    {\n        return stakeAddresses;\n    }\n\n    /// @dev Give the ordered end blocks of stakeContracts in this vault\n    /// @return the ordered end blocks\n    function orderedEndBlocksAll()\n        external\n        view\n        override\n        returns (uint256[] memory)\n    {\n        return orderedEndBlocks;\n    }\n\n    /// @dev Give Total reward amount of stakeContract(_account)\n    /// @return Total reward amount of stakeContract(_account)\n    function totalRewardAmount(address _account)\n        external\n        view\n        override\n        returns (uint256)\n    {\n        return stakeInfos[_account].totalRewardAmount;\n    }\n\n    /// @dev Give the infomation of this vault\n    /// @return [paytoken,defiAddr], cap, stakeType, [saleStartBlock, stakeStartBlock, stakeEndBlock], blockTotalReward, saleClosed\n    function infos()\n        external\n        view\n        override\n        returns (\n            address[2] memory,\n            uint256,\n            uint256,\n            uint256[3] memory,\n            uint256,\n            bool\n        )\n    {\n        return (\n            [paytoken, defiAddr],\n            cap,\n            stakeType,\n            [saleStartBlock, stakeStartBlock, stakeEndBlock],\n            blockTotalReward,\n            saleClosed\n        );\n    }\n}\n",
  "sourcePath": "/Users/zena/ico2.0/ico20-contracts/contracts/stake/Stake1Vault.sol",
  "compiler": {
    "name": "solc",
    "version": "0.7.6+commit.7338295f.Emscripten.clang"
  },
  "schemaVersion": "3.3.4",
  "updatedAt": "2021-06-06T10:18:29.663Z",
  "devdoc": {
    "events": {
      "ClaimedReward(address,address,uint256)": {
        "details": "event on sale-closed",
        "params": {
          "amount": "the amount of reward",
          "from": "the stakeContract address that call claim",
          "to": "the address that will receive the reward"
        }
      },
      "ClosedSale()": {
        "details": "event on sale-closed"
      }
    },
    "kind": "dev",
    "methods": {
      "addSubVaultOfStake(string,address,uint256)": {
        "details": "Add stake contract",
        "params": {
          "_name": "stakeContract's name",
          "periodBlocks": "the period that give rewards of stakeContract",
          "stakeContract": "stakeContract's address"
        }
      },
      "balanceFLDAvailableAmount()": {
        "details": "Returns Give the FLD balance stored in the vault",
        "returns": {
          "_0": "the balance of FLD in this vault."
        }
      },
      "canClaim(address,uint256)": {
        "details": "whether it is available to claim amount, if it is available , return the total reward amount",
        "params": {
          "_amount": "the total reward amount of stakeContract",
          "_to": "a staking contract."
        },
        "returns": {
          "_0": "true"
        }
      },
      "changeCap(uint256)": {
        "details": "Change cap of the vault",
        "params": {
          "_cap": "allocated reward amount"
        }
      },
      "claim(address,uint256)": {
        "details": "claim function.sender is a staking contract.A function that pays the amount(_amount) to _to by the staking contract.A function that _to claim the amount(_amount) from the staking contract and gets the FLD in the vault.",
        "params": {
          "_amount": "the receiving amount",
          "_to": "a user that received reward"
        },
        "returns": {
          "_0": "true"
        }
      },
      "closeSale()": {
        "details": "Close the sale that can stake by user"
      },
      "constructor": {
        "details": "constructor of Stake1Vault"
      },
      "getRoleAdmin(bytes32)": {
        "details": "Returns the admin role that controls `role`. See {grantRole} and {revokeRole}. To change a role's admin, use {_setRoleAdmin}."
      },
      "getRoleMember(bytes32,uint256)": {
        "details": "Returns one of the accounts that have `role`. `index` must be a value between 0 and {getRoleMemberCount}, non-inclusive. Role bearers are not sorted in any particular way, and their ordering may change at any point. WARNING: When using {getRoleMember} and {getRoleMemberCount}, make sure you perform all queries on the same block. See the following https://forum.openzeppelin.com/t/iterating-over-elements-on-enumerableset-in-openzeppelin-contracts/2296[forum post] for more information."
      },
      "getRoleMemberCount(bytes32)": {
        "details": "Returns the number of accounts that have `role`. Can be used together with {getRoleMember} to enumerate all bearers of a role."
      },
      "grantRole(bytes32,address)": {
        "details": "Grants `role` to `account`. If `account` had not been already granted `role`, emits a {RoleGranted} event. Requirements: - the caller must have ``role``'s admin role."
      },
      "hasRole(bytes32,address)": {
        "details": "Returns `true` if `account` has been granted `role`."
      },
      "infos()": {
        "details": "Give the infomation of this vault",
        "returns": {
          "_0": "[paytoken,defiAddr], cap, stakeType, [saleStartBlock, stakeStartBlock, stakeEndBlock], blockTotalReward, saleClosed"
        }
      },
      "initialize(address,address,uint256,uint256,uint256,address,uint256,address)": {
        "params": {
          "_cap": "Maximum amount of rewards issued, allocated reward amount.",
          "_defiAddr": "Used when an external address is required. default: address(0)",
          "_saleStartBlock": "the sale start block",
          "_stakeStartBlock": "the staking start block",
          "_stakeType": "Type of staking contract, 0 TON staking, 1 basic ERC20 staking, 2 Defi linked staking",
          "_stakefactory": "the factory address to create stakeContract"
        }
      },
      "orderedEndBlocksAll()": {
        "details": "Give the ordered end blocks of stakeContracts in this vault",
        "returns": {
          "_0": "the ordered end blocks"
        }
      },
      "renounceRole(bytes32,address)": {
        "details": "Revokes `role` from the calling account. Roles are often managed via {grantRole} and {revokeRole}: this function's purpose is to provide a mechanism for accounts to lose their privileges if they are compromised (such as when a trusted device is misplaced). If the calling account had been granted `role`, emits a {RoleRevoked} event. Requirements: - the caller must be `account`."
      },
      "revokeRole(bytes32,address)": {
        "details": "Revokes `role` from `account`. If `account` had been granted `role`, emits a {RoleRevoked} event. Requirements: - the caller must have ``role``'s admin role."
      },
      "setDefiAddr(address)": {
        "details": "Set Defi Address",
        "params": {
          "_defiAddr": "DeFi related address"
        }
      },
      "setFLD(address)": {
        "details": "Sets FLD address",
        "params": {
          "_fld": "FLD address"
        }
      },
      "stakeAddressesAll()": {
        "details": "Give all stakeContracts's addresses in this vault",
        "returns": {
          "_0": "all stakeContracts's addresses"
        }
      },
      "totalRewardAmount(address)": {
        "details": "Give Total reward amount of stakeContract(_account)",
        "returns": {
          "_0": "Total reward amount of stakeContract(_account)"
        }
      },
      "transferOwnership(address)": {
        "details": "transfer Ownership",
        "params": {
          "newOwner": "new owner address"
        }
      }
    },
    "title": "FLD Token's Vault - stores the fld for the period of time",
    "version": 1
  },
  "userdoc": {
    "kind": "user",
    "methods": {},
    "notice": "A vault is associated with the set of stake contracts. Stake contracts can interact with the vault to claim fld tokens",
    "version": 1
  }
}