{
  "contractName": "Stake1Logic",
  "abi": [
    {
      "anonymous": false,
      "inputs": [
        {
          "indexed": true,
          "internalType": "address",
          "name": "vault",
          "type": "address"
        },
        {
          "indexed": false,
          "internalType": "address",
          "name": "paytoken",
          "type": "address"
        },
        {
          "indexed": false,
          "internalType": "uint256",
          "name": "cap",
          "type": "uint256"
        }
      ],
      "name": "CreatedVault",
      "type": "event"
    },
    {
      "anonymous": false,
      "inputs": [
        {
          "indexed": true,
          "internalType": "bytes32",
          "name": "role",
          "type": "bytes32"
        },
        {
          "indexed": true,
          "internalType": "bytes32",
          "name": "previousAdminRole",
          "type": "bytes32"
        },
        {
          "indexed": true,
          "internalType": "bytes32",
          "name": "newAdminRole",
          "type": "bytes32"
        }
      ],
      "name": "RoleAdminChanged",
      "type": "event"
    },
    {
      "anonymous": false,
      "inputs": [
        {
          "indexed": true,
          "internalType": "bytes32",
          "name": "role",
          "type": "bytes32"
        },
        {
          "indexed": true,
          "internalType": "address",
          "name": "account",
          "type": "address"
        },
        {
          "indexed": true,
          "internalType": "address",
          "name": "sender",
          "type": "address"
        }
      ],
      "name": "RoleGranted",
      "type": "event"
    },
    {
      "anonymous": false,
      "inputs": [
        {
          "indexed": true,
          "internalType": "bytes32",
          "name": "role",
          "type": "bytes32"
        },
        {
          "indexed": true,
          "internalType": "address",
          "name": "account",
          "type": "address"
        },
        {
          "indexed": true,
          "internalType": "address",
          "name": "sender",
          "type": "address"
        }
      ],
      "name": "RoleRevoked",
      "type": "event"
    },
    {
      "inputs": [],
      "name": "ADMIN_ROLE",
      "outputs": [
        {
          "internalType": "bytes32",
          "name": "",
          "type": "bytes32"
        }
      ],
      "stateMutability": "view",
      "type": "function"
    },
    {
      "inputs": [],
      "name": "DEFAULT_ADMIN_ROLE",
      "outputs": [
        {
          "internalType": "bytes32",
          "name": "",
          "type": "bytes32"
        }
      ],
      "stateMutability": "view",
      "type": "function"
    },
    {
      "inputs": [],
      "name": "ZERO_HASH",
      "outputs": [
        {
          "internalType": "bytes32",
          "name": "",
          "type": "bytes32"
        }
      ],
      "stateMutability": "view",
      "type": "function"
    },
    {
      "inputs": [],
      "name": "depositManager",
      "outputs": [
        {
          "internalType": "address",
          "name": "",
          "type": "address"
        }
      ],
      "stateMutability": "view",
      "type": "function"
    },
    {
      "inputs": [],
      "name": "fld",
      "outputs": [
        {
          "internalType": "address",
          "name": "",
          "type": "address"
        }
      ],
      "stateMutability": "view",
      "type": "function"
    },
    {
      "inputs": [
        {
          "internalType": "bytes32",
          "name": "role",
          "type": "bytes32"
        }
      ],
      "name": "getRoleAdmin",
      "outputs": [
        {
          "internalType": "bytes32",
          "name": "",
          "type": "bytes32"
        }
      ],
      "stateMutability": "view",
      "type": "function"
    },
    {
      "inputs": [
        {
          "internalType": "bytes32",
          "name": "role",
          "type": "bytes32"
        },
        {
          "internalType": "uint256",
          "name": "index",
          "type": "uint256"
        }
      ],
      "name": "getRoleMember",
      "outputs": [
        {
          "internalType": "address",
          "name": "",
          "type": "address"
        }
      ],
      "stateMutability": "view",
      "type": "function"
    },
    {
      "inputs": [
        {
          "internalType": "bytes32",
          "name": "role",
          "type": "bytes32"
        }
      ],
      "name": "getRoleMemberCount",
      "outputs": [
        {
          "internalType": "uint256",
          "name": "",
          "type": "uint256"
        }
      ],
      "stateMutability": "view",
      "type": "function"
    },
    {
      "inputs": [
        {
          "internalType": "bytes32",
          "name": "role",
          "type": "bytes32"
        },
        {
          "internalType": "address",
          "name": "account",
          "type": "address"
        }
      ],
      "name": "grantRole",
      "outputs": [],
      "stateMutability": "nonpayable",
      "type": "function"
    },
    {
      "inputs": [
        {
          "internalType": "bytes32",
          "name": "role",
          "type": "bytes32"
        },
        {
          "internalType": "address",
          "name": "account",
          "type": "address"
        }
      ],
      "name": "hasRole",
      "outputs": [
        {
          "internalType": "bool",
          "name": "",
          "type": "bool"
        }
      ],
      "stateMutability": "view",
      "type": "function"
    },
    {
      "inputs": [
        {
          "internalType": "bytes32",
          "name": "role",
          "type": "bytes32"
        },
        {
          "internalType": "address",
          "name": "account",
          "type": "address"
        }
      ],
      "name": "renounceRole",
      "outputs": [],
      "stateMutability": "nonpayable",
      "type": "function"
    },
    {
      "inputs": [
        {
          "internalType": "bytes32",
          "name": "role",
          "type": "bytes32"
        },
        {
          "internalType": "address",
          "name": "account",
          "type": "address"
        }
      ],
      "name": "revokeRole",
      "outputs": [],
      "stateMutability": "nonpayable",
      "type": "function"
    },
    {
      "inputs": [],
      "name": "secondsPerBlock",
      "outputs": [
        {
          "internalType": "uint256",
          "name": "",
          "type": "uint256"
        }
      ],
      "stateMutability": "view",
      "type": "function"
    },
    {
      "inputs": [],
      "name": "seigManager",
      "outputs": [
        {
          "internalType": "address",
          "name": "",
          "type": "address"
        }
      ],
      "stateMutability": "view",
      "type": "function"
    },
    {
      "inputs": [],
      "name": "stakeFactory",
      "outputs": [
        {
          "internalType": "contract IStakeFactory",
          "name": "",
          "type": "address"
        }
      ],
      "stateMutability": "view",
      "type": "function"
    },
    {
      "inputs": [],
      "name": "stakeRegistry",
      "outputs": [
        {
          "internalType": "contract IStakeRegistry",
          "name": "",
          "type": "address"
        }
      ],
      "stateMutability": "view",
      "type": "function"
    },
    {
      "inputs": [],
      "name": "ton",
      "outputs": [
        {
          "internalType": "address",
          "name": "",
          "type": "address"
        }
      ],
      "stateMutability": "view",
      "type": "function"
    },
    {
      "inputs": [],
      "name": "wton",
      "outputs": [
        {
          "internalType": "address",
          "name": "",
          "type": "address"
        }
      ],
      "stateMutability": "view",
      "type": "function"
    },
    {
      "inputs": [
        {
          "internalType": "address",
          "name": "_fld",
          "type": "address"
        },
        {
          "internalType": "address",
          "name": "_stakeRegistry",
          "type": "address"
        },
        {
          "internalType": "address",
          "name": "_stakeFactory",
          "type": "address"
        },
        {
          "internalType": "address",
          "name": "_ton",
          "type": "address"
        },
        {
          "internalType": "address",
          "name": "_wton",
          "type": "address"
        },
        {
          "internalType": "address",
          "name": "_depositManager",
          "type": "address"
        },
        {
          "internalType": "address",
          "name": "_seigManager",
          "type": "address"
        }
      ],
      "name": "setStore",
      "outputs": [],
      "stateMutability": "nonpayable",
      "type": "function"
    },
    {
      "inputs": [
        {
          "internalType": "address",
          "name": "_stakeFactory",
          "type": "address"
        }
      ],
      "name": "setFactory",
      "outputs": [],
      "stateMutability": "nonpayable",
      "type": "function"
    },
    {
      "inputs": [
        {
          "internalType": "address",
          "name": "_paytoken",
          "type": "address"
        },
        {
          "internalType": "uint256",
          "name": "_cap",
          "type": "uint256"
        },
        {
          "internalType": "uint256",
          "name": "_saleStartBlcok",
          "type": "uint256"
        },
        {
          "internalType": "uint256",
          "name": "_stakeStartBlcok",
          "type": "uint256"
        },
        {
          "internalType": "uint256",
          "name": "_pahse",
          "type": "uint256"
        },
        {
          "internalType": "bytes32",
          "name": "_vaultName",
          "type": "bytes32"
        },
        {
          "internalType": "uint256",
          "name": "_stakeType",
          "type": "uint256"
        },
        {
          "internalType": "address",
          "name": "_defiAddr",
          "type": "address"
        }
      ],
      "name": "createVault",
      "outputs": [],
      "stateMutability": "nonpayable",
      "type": "function"
    },
    {
      "inputs": [
        {
          "internalType": "uint256",
          "name": "_pahse",
          "type": "uint256"
        },
        {
          "internalType": "address",
          "name": "_vault",
          "type": "address"
        },
        {
          "internalType": "address",
          "name": "token",
          "type": "address"
        },
        {
          "internalType": "address",
          "name": "paytoken",
          "type": "address"
        },
        {
          "internalType": "uint256",
          "name": "periodBlock",
          "type": "uint256"
        },
        {
          "internalType": "string",
          "name": "_name",
          "type": "string"
        }
      ],
      "name": "createStakeContract",
      "outputs": [],
      "stateMutability": "nonpayable",
      "type": "function"
    },
    {
      "inputs": [
        {
          "internalType": "address",
          "name": "_vault",
          "type": "address"
        }
      ],
      "name": "closeSale",
      "outputs": [],
      "stateMutability": "nonpayable",
      "type": "function"
    },
    {
      "inputs": [
        {
          "internalType": "uint256",
          "name": "_pahse",
          "type": "uint256"
        },
        {
          "internalType": "bytes32",
          "name": "_vaultName",
          "type": "bytes32"
        },
        {
          "internalType": "address",
          "name": "_vault",
          "type": "address"
        }
      ],
      "name": "addVault",
      "outputs": [],
      "stateMutability": "nonpayable",
      "type": "function"
    },
    {
      "inputs": [
        {
          "internalType": "address",
          "name": "_vault",
          "type": "address"
        }
      ],
      "name": "stakeContractsOfVault",
      "outputs": [
        {
          "internalType": "address[]",
          "name": "",
          "type": "address[]"
        }
      ],
      "stateMutability": "view",
      "type": "function"
    },
    {
      "inputs": [
        {
          "internalType": "uint256",
          "name": "_phaseIndex",
          "type": "uint256"
        }
      ],
      "name": "vaultsOfPhase",
      "outputs": [
        {
          "internalType": "address[]",
          "name": "",
          "type": "address[]"
        }
      ],
      "stateMutability": "view",
      "type": "function"
    },
    {
      "inputs": [
        {
          "internalType": "address",
          "name": "_stakeContract",
          "type": "address"
        },
        {
          "internalType": "address",
          "name": "_layer2",
          "type": "address"
        },
        {
          "internalType": "uint256",
          "name": "_amount",
          "type": "uint256"
        }
      ],
      "name": "tokamakStaking",
      "outputs": [],
      "stateMutability": "nonpayable",
      "type": "function"
    },
    {
      "inputs": [
        {
          "internalType": "address",
          "name": "_stakeContract",
          "type": "address"
        },
        {
          "internalType": "address",
          "name": "_layer2",
          "type": "address"
        }
      ],
      "name": "tokamakRequestUnStakingAll",
      "outputs": [],
      "stateMutability": "nonpayable",
      "type": "function"
    },
    {
      "inputs": [
        {
          "internalType": "address",
          "name": "_stakeContract",
          "type": "address"
        },
        {
          "internalType": "address",
          "name": "_layer2",
          "type": "address"
        },
        {
          "internalType": "uint256",
          "name": "_amount",
          "type": "uint256"
        }
      ],
      "name": "tokamakRequestUnStaking",
      "outputs": [],
      "stateMutability": "nonpayable",
      "type": "function"
    },
    {
      "inputs": [
        {
          "internalType": "address",
          "name": "_stakeContract",
          "type": "address"
        },
        {
          "internalType": "address",
          "name": "_layer2",
          "type": "address"
        },
        {
          "internalType": "bool",
          "name": "receiveTON",
          "type": "bool"
        }
      ],
      "name": "tokamakProcessUnStaking",
      "outputs": [],
      "stateMutability": "nonpayable",
      "type": "function"
    },
    {
      "inputs": [
        {
          "internalType": "address",
          "name": "_fld",
          "type": "address"
        }
      ],
      "name": "setFLD",
      "outputs": [],
      "stateMutability": "nonpayable",
      "type": "function"
    },
    {
      "inputs": [
        {
          "internalType": "address",
          "name": "_stakeRegistry",
          "type": "address"
        }
      ],
      "name": "setStakeRegistry",
      "outputs": [],
      "stateMutability": "nonpayable",
      "type": "function"
    },
    {
      "inputs": [
        {
          "internalType": "address",
          "name": "_stakeFactory",
          "type": "address"
        }
      ],
      "name": "setStakeFactory",
      "outputs": [],
      "stateMutability": "nonpayable",
      "type": "function"
    },
    {
      "inputs": [
        {
          "internalType": "uint256",
          "name": "_phase",
          "type": "uint256"
        }
      ],
      "name": "vaultsOfPahse",
      "outputs": [
        {
          "internalType": "address[]",
          "name": "",
          "type": "address[]"
        }
      ],
      "stateMutability": "nonpayable",
      "type": "function"
    }
  ],
  "bytecode": "0x608060405234801561001057600080fd5b50614984806100206000396000f3fe60806040523480156200001157600080fd5b5060043610620002385760003560e01c8063797acec31162000135578063a217fddf11620000bd578063d183fb471162000087578063d183fb471462000493578063d185a66b14620004aa578063d547741f14620004c1578063dd196f1814620004d8578063e3b05f2f14620004e25762000238565b8063a217fddf14620002f2578063bdfcd5f3146200045b578063ca15c8731462000472578063cc48b94714620004895762000238565b806391d1485411620000ff57806391d1485414620003f0578063965cfe7b14620004165780639e9ca178146200042d5780639ed452c114620004445762000238565b8063797acec314620003ae5780637a7d493714620003c55780638d62d94914620003cf5780639010d07c14620003d95762000238565b8063535ae1d511620001c55780636b082272116200018f5780636b08227214620003625780636c7ac9d814620003795780636fb7f558146200038357806375b238fc146200038d5780637949137014620003975762000238565b8063535ae1d5146200031357806355885a59146200032a5780635bb4780814620003415780636830483514620003585762000238565b80633e4fe35511620002075780633e4fe35514620002b557806349c4542d14620002db5780634ce76a3c14620002f25780635294fcef14620002fc5762000238565b8063248a9ca3146200023d5780632f2ff15d146200026c57806333bd2a49146200028557806336568abe146200029e575b600080fd5b620002546200024e36600462001856565b620004f9565b60405162000263919062001b0e565b60405180910390f35b620002836200027d3660046200186f565b6200050e565b005b6200028f6200057c565b60405162000263919062001a0a565b62000283620002af3660046200186f565b6200058b565b620002cc620002c636600462001856565b620005f2565b60405162000263919062001ab4565b62000283620002ec36600462001591565b620006bb565b620002546200075b565b620002836200030d36600462001999565b62000760565b620002836200032436600462001553565b62000809565b620002836200033b36600462001708565b62000890565b620002836200035236600462001553565b620009f5565b6200028f62000a3d565b6200028362000373366004620015ce565b62000a4c565b6200028f62000b7b565b6200028f62000b8a565b6200025462000b99565b62000283620003a836600462001553565b62000bac565b620002cc620003bf36600462001856565b62000c04565b6200025462000c95565b6200028f62000c9b565b6200028f620003ea36600462001896565b62000caa565b62000407620004013660046200186f565b62000cc4565b60405162000263919062001b03565b6200028362000427366004620018b8565b62000cde565b620002836200043e366004620016c3565b62000f20565b6200028362000455366004620016c3565b62000f8a565b620002cc6200046c36600462001553565b62000ff4565b620002546200048336600462001856565b6200105a565b6200028f62001073565b62000283620004a436600462001672565b62001082565b62000283620004bb36600462001553565b620010ec565b62000283620004d23660046200186f565b62001173565b6200028f620011d1565b62000283620004f336600462001553565b620011e0565b60009081526008602052604090206002015490565b6000828152600860205260409020600201546200052f906200040162001267565b6200056c5760405162461bcd60e51b815260040180806020018281038252602f815260200180620048a1602f913960400191505060405180910390fd5b6200057882826200126b565b5050565b6003546001600160a01b031681565b6200059562001267565b6001600160a01b0316816001600160a01b031614620005e65760405162461bcd60e51b815260040180806020018281038252602f81526020018062004920602f913960400191505060405180910390fd5b620005788282620012d9565b6000546060906001600160a01b0316806200062a5760405162461bcd60e51b8152600401620006219062001b17565b60405180910390fd5b60005460405163a95031f160e01b81526001600160a01b039091169063a95031f1906200065c90869060040162001b0e565b60006040518083038186803b1580156200067557600080fd5b505afa1580156200068a573d6000803e3d6000fd5b505050506040513d6000823e601f3d908101601f19168201604052620006b491908101906200177f565b9392505050565b620006d6600080516020620049008339815191523362000cc4565b620006f55760405162461bcd60e51b8152600401620006219062001b93565b6040516371def0b360e01b81526001600160a01b038316906371def0b3906200072390849060040162001a0a565b600060405180830381600087803b1580156200073e57600080fd5b505af115801562000753573d6000803e3d6000fd5b505050505050565b600081565b6200077b600080516020620049008339815191523362000cc4565b6200079a5760405162461bcd60e51b8152600401620006219062001b93565b600054604051635294fcef60e01b81526001600160a01b0390911690635294fcef90620007d09086908690869060040162001cd1565b600060405180830381600087803b158015620007eb57600080fd5b505af115801562000800573d6000803e3d6000fd5b50505050505050565b62000824600080516020620049008339815191523362000cc4565b620008435760405162461bcd60e51b8152600401620006219062001b93565b806001600160a01b0381166200086d5760405162461bcd60e51b8152600401620006219062001b17565b50600180546001600160a01b0319166001600160a01b0392909216919091179055565b6000604051620008a09062001545565b604051809103906000f080158015620008bd573d6000803e3d6000fd5b5060035460015460405163372666e560e21b81529293506001600160a01b038085169363dc999b94936200090793908316928f928f928f928f929116908c908c9060040162001a38565b600060405180830381600087803b1580156200092257600080fd5b505af115801562000937573d6000803e3d6000fd5b5050600054604051635294fcef60e01b81526001600160a01b039091169250635294fcef9150620009719088908890869060040162001cd1565b600060405180830381600087803b1580156200098c57600080fd5b505af1158015620009a1573d6000803e3d6000fd5b50505050806001600160a01b03167f9e0e84720f13c322e117ed1e67a8c53d21ec4b3b7c35c1dd1728dc7cab64f0968a8a604051620009e292919062001a9b565b60405180910390a2505050505050505050565b62000a10600080516020620049008339815191523362000cc4565b62000a2f5760405162461bcd60e51b8152600401620006219062001b93565b62000a3a8162000809565b50565b6000546001600160a01b031681565b62000a67600080516020620049008339815191523362000cc4565b62000a865760405162461bcd60e51b8152600401620006219062001b93565b836001600160a01b03811662000ab05760405162461bcd60e51b8152600401620006219062001b17565b836001600160a01b03811662000ada5760405162461bcd60e51b8152600401620006219062001b17565b836001600160a01b03811662000b045760405162461bcd60e51b8152600401620006219062001b17565b62000b0f8a620010ec565b62000b1a89620011e0565b62000b258862000809565b5050600480546001600160a01b039687166001600160a01b031991821617909155600580549587169582169590951790945550600680549285169284169290921790915560078054919093169116179055505050565b6006546001600160a01b031681565b6007546001600160a01b031681565b6000805160206200490083398151915281565b806001600160a01b031663ee55efee6040518163ffffffff1660e01b8152600401600060405180830381600087803b15801562000be857600080fd5b505af115801562000bfd573d6000803e3d6000fd5b5050505050565b60005460405163a95031f160e01b81526060916001600160a01b03169063a95031f19062000c3790859060040162001b0e565b60006040518083038186803b15801562000c5057600080fd5b505afa15801562000c65573d6000803e3d6000fd5b505050506040513d6000823e601f3d908101601f1916820160405262000c8f91908101906200177f565b92915050565b60025481565b6005546001600160a01b031681565b6000828152600860205260408120620006b4908362001347565b6000828152600860205260408120620006b4908362001355565b62000cf9600080516020620049008339815191523362000cc4565b62000d185760405162461bcd60e51b8152600401620006219062001b93565b6000546040516306b7e2bd60e41b81526001600160a01b0390911690636b7e2bd09062000d4c908990899060040162001c0d565b60206040518083038186803b15801562000d6557600080fd5b505afa15801562000d7a573d6000803e3d6000fd5b505050506040513d601f19601f8201168201806040525081019062000da0919062001837565b62000dbf5760405162461bcd60e51b8152600401620006219062001bd6565b60015460408051608081018252600480546001600160a01b039081168352600554811660208401526006548116838501526007548116606084015292516337b0015d60e21b8152600094939093169263dec005749262000e2e928c928c9289928d928d928d9290910162001c24565b602060405180830381600087803b15801562000e4957600080fd5b505af115801562000e5e573d6000803e3d6000fd5b505050506040513d601f19601f8201168201806040525081019062000e84919062001572565b90506001600160a01b03811662000eaf5760405162461bcd60e51b8152600401620006219062001b4e565b600054604051638dea8fd760e01b81526001600160a01b0390911690638dea8fd79062000ee3908990859060040162001a1e565b600060405180830381600087803b15801562000efe57600080fd5b505af115801562000f13573d6000803e3d6000fd5b5050505050505050505050565b62000f3b600080516020620049008339815191523362000cc4565b62000f5a5760405162461bcd60e51b8152600401620006219062001b93565b60405163065c431360e01b81526001600160a01b0384169063065c431390620007d0908590859060040162001a9b565b62000fa5600080516020620049008339815191523362000cc4565b62000fc45760405162461bcd60e51b8152600401620006219062001b93565b6040516367340e7360e11b81526001600160a01b0384169063ce681ce690620007d0908590859060040162001a9b565b6060816001600160a01b038116620010205760405162461bcd60e51b8152600401620006219062001b17565b826001600160a01b031663d007e8966040518163ffffffff1660e01b815260040160006040518083038186803b1580156200067557600080fd5b600081815260086020526040812062000c8f906200136c565b6004546001600160a01b031681565b6200109d600080516020620049008339815191523362000cc4565b620010bc5760405162461bcd60e51b8152600401620006219062001b93565b604051637d1b99eb60e11b81526001600160a01b0384169063fa3733d690620007d0908590859060040162001a80565b62001107600080516020620049008339815191523362000cc4565b620011265760405162461bcd60e51b8152600401620006219062001b93565b806001600160a01b038116620011505760405162461bcd60e51b8152600401620006219062001b17565b50600380546001600160a01b0319166001600160a01b0392909216919091179055565b60008281526008602052604090206002015462001194906200040162001267565b620005e65760405162461bcd60e51b8152600401808060200182810382526030815260200180620048d06030913960400191505060405180910390fd5b6001546001600160a01b031681565b620011fb600080516020620049008339815191523362000cc4565b6200121a5760405162461bcd60e51b8152600401620006219062001b93565b806001600160a01b038116620012445760405162461bcd60e51b8152600401620006219062001b17565b50600080546001600160a01b0319166001600160a01b0392909216919091179055565b3390565b600082815260086020526040902062001285908262001379565b1562000578576200129562001267565b6001600160a01b0316816001600160a01b0316837f2f8788117e7eff1d82e926ec794901d17c78024a50270940304540a733656f0d60405160405180910390a45050565b6000828152600860205260409020620012f3908262001390565b1562000578576200130362001267565b6001600160a01b0316816001600160a01b0316837ff6391f5c32d9c69d2a47ea670b442974b53935d1edc7fd64eb21e047a839171b60405160405180910390a45050565b6000620006b48383620013a7565b6000620006b4836001600160a01b0384166200140e565b600062000c8f8262001426565b6000620006b4836001600160a01b0384166200142a565b6000620006b4836001600160a01b03841662001479565b81546000908210620013eb5760405162461bcd60e51b81526004018080602001828103825260228152602001806200487f6022913960400191505060405180910390fd5b826000018281548110620013fb57fe5b9060005260206000200154905092915050565b60009081526001919091016020526040902054151590565b5490565b60006200143883836200140e565b620014705750815460018181018455600084815260208082209093018490558454848252828601909352604090209190915562000c8f565b50600062000c8f565b600081815260018301602052604081205480156200153a5783546000198083019190810190600090879083908110620014ae57fe5b9060005260206000200154905080876000018481548110620014cc57fe5b600091825260208083209091019290925582815260018981019092526040902090840190558654879080620014fd57fe5b6001900381819060005260206000200160009055905586600101600087815260200190815260200160002060009055600194505050505062000c8f565b600091505062000c8f565b612b448062001d3b83390190565b60006020828403121562001565578081fd5b8135620006b48162001d15565b60006020828403121562001584578081fd5b8151620006b48162001d15565b60008060408385031215620015a4578081fd5b8235620015b18162001d15565b91506020830135620015c38162001d15565b809150509250929050565b600080600080600080600060e0888a031215620015e9578283fd5b8735620015f68162001d15565b96506020880135620016088162001d15565b955060408801356200161a8162001d15565b945060608801356200162c8162001d15565b935060808801356200163e8162001d15565b925060a0880135620016508162001d15565b915060c0880135620016628162001d15565b8091505092959891949750929550565b60008060006060848603121562001687578283fd5b8335620016948162001d15565b92506020840135620016a68162001d15565b91506040840135620016b88162001d2b565b809150509250925092565b600080600060608486031215620016d8578283fd5b8335620016e58162001d15565b92506020840135620016f78162001d15565b929592945050506040919091013590565b600080600080600080600080610100898b03121562001725578081fd5b8835620017328162001d15565b97506020890135965060408901359550606089013594506080890135935060a0890135925060c0890135915060e08901356200176e8162001d15565b809150509295985092959890939650565b6000602080838503121562001792578182fd5b825167ffffffffffffffff80821115620017aa578384fd5b818501915085601f830112620017be578384fd5b815181811115620017cb57fe5b8381029150620017dd84830162001cf0565b8181528481019084860184860187018a1015620017f8578788fd5b8795505b838610156200182a5780519450620018148562001d15565b84835260019590950194918601918601620017fc565b5098975050505050505050565b60006020828403121562001849578081fd5b8151620006b48162001d2b565b60006020828403121562001868578081fd5b5035919050565b6000806040838503121562001882578081fd5b823591506020830135620015c38162001d15565b60008060408385031215620018a9578182fd5b50508035926020909101359150565b60008060008060008060c08789031215620018d1578384fd5b86359550602080880135620018e68162001d15565b95506040880135620018f88162001d15565b945060608801356200190a8162001d15565b93506080880135925060a088013567ffffffffffffffff808211156200192e578384fd5b818a0191508a601f83011262001942578384fd5b8135818111156200194f57fe5b62001963601f8201601f1916850162001cf0565b91508082528b8482850101111562001979578485fd5b808484018584013784848284010152508093505050509295509295509295565b600080600060608486031215620019ae578081fd5b83359250602084013591506040840135620016b88162001d15565b6001600160a01b03169052565b8060005b600481101562001a045781516001600160a01b0316845260209384019390910190600101620019da565b50505050565b6001600160a01b0391909116815260200190565b6001600160a01b0392831681529116602082015260400190565b6001600160a01b0398891681529688166020880152604087019590955260608601939093526080850191909152841660a084015260c083015290911660e08201526101000190565b6001600160a01b039290921682521515602082015260400190565b6001600160a01b03929092168252602082015260400190565b6020808252825182820181905260009190848201906040850190845b8181101562001af75783516001600160a01b03168352928401929184019160010162001ad0565b50909695505050505050565b901515815260200190565b90815260200190565b60208082526019908201527f5374616b653150726f78793a207a65726f206164647265737300000000000000604082015260600190565b60208082526025908201527f5374616b653150726f78793a207374616b65466163746f72792e6465706c6f796040820152640819985a5b60da1b606082015260800190565b60208082526023908201527f5374616b653150726f78793a2043616c6c6572206973206e6f7420616e20616460408201526236b4b760e91b606082015260800190565b60208082526019908201527f5374616b653150726f78793a20756e76616c69645661756c7400000000000000604082015260600190565b9182526001600160a01b0316602082015260400190565b6000610140898352602060018060a01b038a1681850152816040850152885180838601528392505b8083101562001c6d5789830182015185840161016001529181019162001c4c565b8083111562001c80578361016082870101525b601f01601f1916840161016001925062001ca19150506060830187620019c9565b62001cb06080830186620019c9565b8360a083015262001cc560c0830184620019d6565b98975050505050505050565b92835260208301919091526001600160a01b0316604082015260600190565b60405181810167ffffffffffffffff8111828210171562001d0d57fe5b604052919050565b6001600160a01b038116811462000a3a57600080fd5b801515811462000a3a57600080fdfe60806040523480156200001157600080fd5b506200002d60008051602062002b248339815191528062000093565b6200005760008051602062002b0483398151915260008051602062002b2483398151915262000093565b6200007260008051602062002b2483398151915233620000e5565b6200008d60008051602062002b0483398151915233620000e5565b620001f9565b600082815260208190526040808220600201549051839285917fbd79b86ffe0ab8e8776151514217cd7cacd52c909f66475c3af44e129f0b00ff9190a460009182526020829052604090912060020155565b620000f18282620000f5565b5050565b6000828152602081815260409091206200011a91839062001a4d6200016e821b17901c565b15620000f1576200012a6200018e565b6001600160a01b0316816001600160a01b0316837f2f8788117e7eff1d82e926ec794901d17c78024a50270940304540a733656f0d60405160405180910390a45050565b600062000185836001600160a01b03841662000192565b90505b92915050565b3390565b6000620001a08383620001e1565b620001d85750815460018181018455600084815260208082209093018490558454848252828601909352604090209190915562000188565b50600062000188565b60009081526001919091016020526040902054151590565b6128fb80620002096000396000f3fe60806040526004361061023f5760003560e01c806398da0b611161012e578063cbdeb6c0116100ab578063dc999b941161006f578063dc999b941461063a578063dfbf9def1461065a578063ec87621c1461068c578063ee55efee146106a1578063fc5f18d3146106b657610246565b8063cbdeb6c0146105a3578063d007e896146105c3578063d105bf85146105e5578063d185a66b146105fa578063d547741f1461061a57610246565b8063aad3ec96116100f2578063aad3ec9614610517578063b8c766b814610537578063b97af0db1461054c578063c1b422fd14610561578063ca15c8731461058357610246565b806398da0b61146104a55780639a88be2f146104c55780639d84ca35146104ed578063a217fddf146103ce578063a69c95dc1461050257610246565b806340fc14f7116101bc578063652a643511610180578063652a64351461040357806375b238fc14610423578063800edb9d146104385780639010d07c1461045857806391d148541461047857610246565b806340fc14f71461038457806343b0934a146103a45780634b5e7cd5146103b95780634ce76a3c146103ce5780635f1bd62a146103e357610246565b80632f2ff15d116102035780632f2ff15d1461030557806333bd2a4914610325578063355274ea1461033a57806336568abe1461034f5780633a76eb371461036f57610246565b80630962ccfc1461024b578063153099d01461026d57806320027275146102a3578063248a9ca3146102b8578063294f5fa3146102d857610246565b3661024657005b600080fd5b34801561025757600080fd5b5061026b610266366004612006565b6106cb565b005b34801561027957600080fd5b5061028d610288366004611f9e565b610927565b60405161029a91906121bc565b60405180910390f35b3480156102af57600080fd5b5061028d610948565b3480156102c457600080fd5b5061028d6102d3366004611f9e565b61094e565b3480156102e457600080fd5b506102f86102f3366004611f9e565b610966565b60405161029a91906120c2565b34801561031157600080fd5b5061026b610320366004611fb6565b610990565b34801561033157600080fd5b506102f86109f7565b34801561034657600080fd5b5061028d610a06565b34801561035b57600080fd5b5061026b61036a366004611fb6565b610a0c565b34801561037b57600080fd5b5061028d610a6d565b34801561039057600080fd5b5061026b61039f366004611def565b610a73565b3480156103b057600080fd5b506102f8610b0b565b3480156103c557600080fd5b5061028d610b1a565b3480156103da57600080fd5b5061028d610b20565b3480156103ef57600080fd5b5061028d6103fe366004611f9e565b610b25565b34801561040f57600080fd5b5061026b61041e366004611edd565b610b37565b34801561042f57600080fd5b5061028d610bba565b34801561044457600080fd5b5061026b610453366004611f9e565b610bcc565b34801561046457600080fd5b506102f8610473366004611fe5565b610c33565b34801561048457600080fd5b50610498610493366004611fb6565b610c54565b60405161029a91906121b1565b3480156104b157600080fd5b5061028d6104c0366004611eb2565b610c6c565b3480156104d157600080fd5b506104da610df3565b60405161029a97969594939291906120ef565b3480156104f957600080fd5b506102f8610e20565b34801561050e57600080fd5b5061028d610e2f565b34801561052357600080fd5b50610498610532366004611eb2565b610efc565b34801561054357600080fd5b5061049861115e565b34801561055857600080fd5b5061028d611167565b34801561056d57600080fd5b5061057661116d565b60405161029a9190612179565b34801561058f57600080fd5b5061028d61059e366004611f9e565b6111c5565b3480156105af57600080fd5b5061028d6105be366004611def565b6111dc565b3480156105cf57600080fd5b506105d86111fa565b60405161029a919061212c565b3480156105f157600080fd5b5061028d61125b565b34801561060657600080fd5b5061026b610615366004611def565b611261565b34801561062657600080fd5b5061026b610635366004611fb6565b6112dd565b34801561064657600080fd5b5061026b610655366004611e2e565b611336565b34801561066657600080fd5b5061067a610675366004611def565b611464565b60405161029a969594939291906121c5565b34801561069857600080fd5b5061028d611523565b3480156106ad57600080fd5b5061026b611547565b3480156106c257600080fd5b5061028d611a29565b6106e360008051602061287783398151915233610c54565b6107085760405162461bcd60e51b81526004016106ff9061227b565b60405180910390fd5b6001600160a01b0382161580159061072257506000600354115b801561072e5750600081115b61074a5760405162461bcd60e51b81526004016106ff906122ea565b600554431061076b5760405162461bcd60e51b81526004016106ff90612239565b60085460ff161561078e5760405162461bcd60e51b81526004016106ff90612524565b816001600160a01b03166343b0934a6040518163ffffffff1660e01b815260040160206040518083038186803b1580156107c757600080fd5b505afa1580156107db573d6000803e3d6000fd5b505050506040513d601f19601f820116820180604052508101906107ff9190611e12565b6002546001600160a01b0390811691161461082c5760405162461bcd60e51b81526004016106ff906126dc565b6001600160a01b0382166000908152600c602052604090206001810154156108665760405162461bcd60e51b81526004016106ff90612708565b600b80546001810182556000919091527f0175b7a638427703f0dbe7bb9bbf987a2551717b34e79f33b5b1008d1fa01db90180546001600160a01b0319166001600160a01b0385161790556005548451908301906108ca9083906020880190611d09565b506005546001830155600282018190556006548111156108ea5760068190555b5050600654600d80546001810182556000919091527fd7b6990105719101dabeb77144f2a3385c8033acd3af97e9423a695e81ad1eb50155505050565b600d818154811061093757600080fd5b600091825260209091200154905081565b60045481565b6000818152602081905260409020600201545b919050565b600b818154811061097657600080fd5b6000918252602090912001546001600160a01b0316905081565b6000828152602081905260409020600201546109ae90610493611a62565b6109e95760405162461bcd60e51b815260040180806020018281038252602f815260200180612818602f913960400191505060405180910390fd5b6109f38282611a66565b5050565b6001546001600160a01b031681565b60035481565b610a14611a62565b6001600160a01b0316816001600160a01b031614610a635760405162461bcd60e51b815260040180806020018281038252602f815260200180612897602f913960400191505060405180910390fd5b6109f38282611acf565b60065481565b610a8b60008051602061287783398151915233610c54565b610aa75760405162461bcd60e51b81526004016106ff9061227b565b6001600160a01b03811615801590610acd5750600a546001600160a01b03828116911614155b610ae95760405162461bcd60e51b81526004016106ff9061266e565b600a80546001600160a01b0319166001600160a01b0392909216919091179055565b6002546001600160a01b031681565b60055481565b600081565b600e6020526000908152604090205481565b610b4f60008051602061287783398151915233610c54565b610b6b5760405162461bcd60e51b81526004016106ff9061227b565b43600654108015610b7d5750600d5415155b8015610b8b57508051600d54145b610ba75760405162461bcd60e51b81526004016106ff906125f0565b80516109f390600d906020840190611d95565b60008051602061287783398151915281565b610be460008051602061287783398151915233610c54565b610c005760405162461bcd60e51b81526004016106ff9061227b565b600081118015610c1257508060035414155b610c2e5760405162461bcd60e51b81526004016106ff90612474565b600355565b6000828152602081905260408120610c4b9083611b38565b90505b92915050565b6000828152602081905260408120610c4b9083611b44565b60085460009060ff16610c915760405162461bcd60e51b81526004016106ff906126a5565b6001546040516370a0823160e01b81526000916001600160a01b0316906370a0823190610cc29030906004016120c2565b60206040518083038186803b158015610cda57600080fd5b505afa158015610cee573d6000803e3d6000fd5b505050506040513d601f19601f82011682018060405250810190610d1291906120aa565b905082811015610d345760405162461bcd60e51b81526004016106ff9061255b565b6001600160a01b0384166000908152600c602052604090206001810154610d6d5760405162461bcd60e51b81526004016106ff906125a6565b6000816004015411610d915760405162461bcd60e51b81526004016106ff906124ab565b8381600501540181600401541015610dbb5760405162461bcd60e51b81526004016106ff906123af565b60008482600501548360040154030311610de75760405162461bcd60e51b81526004016106ff906122be565b60040154949350505050565b6002546003546004546005546006546007546008546001600160a01b039096169560ff1690919293949596565b600a546001600160a01b031681565b6000610e5b7fe5667d34d7ea8d6fdb3aa71a0a5b85e4cf7f68356dd003cd638556b0eea2bce533610c54565b610e775760405162461bcd60e51b81526004016106ff90612400565b6001546040516370a0823160e01b81526001600160a01b03909116906370a0823190610ea79030906004016120c2565b60206040518083038186803b158015610ebf57600080fd5b505afa158015610ed3573d6000803e3d6000fd5b505050506040513d601f19601f82011682018060405250810190610ef791906120aa565b905090565b60085460009060ff168015610f115750600082115b610f2d5760405162461bcd60e51b81526004016106ff906126a5565b6001546040516370a0823160e01b81526000916001600160a01b0316906370a0823190610f5e9030906004016120c2565b60206040518083038186803b158015610f7657600080fd5b505afa158015610f8a573d6000803e3d6000fd5b505050506040513d601f19601f82011682018060405250810190610fae91906120aa565b905082811015610fd05760405162461bcd60e51b81526004016106ff9061255b565b336000908152600c6020526040902060018101546110005760405162461bcd60e51b81526004016106ff906125a6565b838160050154018160040154101561102a5760405162461bcd60e51b81526004016106ff906123af565b6000816004015411801561104a5750600084826005015483600401540303115b6110665760405162461bcd60e51b81526004016106ff906124ab565b6005810180548501905560015460405163a9059cbb60e01b81526001600160a01b039091169063a9059cbb906110a290889088906004016120d6565b602060405180830381600087803b1580156110bc57600080fd5b505af11580156110d0573d6000803e3d6000fd5b505050506040513d601f19601f820116820180604052508101906110f49190611f7e565b6111105760405162461bcd60e51b81526004016106ff90612782565b336001600160a01b03167f7e77f685b38c861064cb08f2776eb5dfd3c82f652ed9f21221b8c53b75628e51868660405161114b9291906120d6565b60405180910390a2506001949350505050565b60085460ff1681565b60095481565b6060600d8054806020026020016040519081016040528092919081815260200182805480156111bb57602002820191906000526020600020905b8154815260200190600101908083116111a7575b5050505050905090565b6000818152602081905260408120610c4e90611b59565b6001600160a01b03166000908152600c602052604090206004015490565b6060600b8054806020026020016040519081016040528092919081815260200182805480156111bb57602002820191906000526020600020905b81546001600160a01b03168152600190910190602001808311611234575050505050905090565b60075481565b61127960008051602061287783398151915233610c54565b6112955760405162461bcd60e51b81526004016106ff9061227b565b6001600160a01b0381166112bb5760405162461bcd60e51b81526004016106ff90612332565b600180546001600160a01b0319166001600160a01b0392909216919091179055565b6000828152602081905260409020600201546112fb90610493611a62565b610a635760405162461bcd60e51b81526004018080602001828103825260308152602001806128476030913960400191505060405180910390fd5b61134e60008051602061287783398151915233610c54565b61136a5760405162461bcd60e51b81526004016106ff9061227b565b6001600160a01b0388161580159061138a57506001600160a01b03831615155b6113a65760405162461bcd60e51b81526004016106ff90612332565b600086116113c65760405162461bcd60e51b81526004016106ff906124ed565b83851080156113d55750600084115b6113f15760405162461bcd60e51b81526004016106ff90612369565b600180546001600160a01b03808b166001600160a01b0319928316179092556003889055600280548a8416908316179055600487905560058690556009849055600a80549284169290911691909117905561145a60008051602061287783398151915284610990565b5050505050505050565b600c6020908152600091825260409182902080548351601f600260001961010060018616150201909316929092049182018490048402810184019094528084529092918391908301828280156114fb5780601f106114d0576101008083540402835291602001916114fb565b820191906000526020600020905b8154815290600101906020018083116114de57829003601f168201915b5050505050908060010154908060020154908060030154908060040154908060050154905086565b7faf290d8680820aad922855f39b306097b20e28774d6c1ad35a20325630c3a02c81565b60085460ff161561156a5760405162461bcd60e51b81526004016106ff9061273f565b600060035411801561157e57506000600554115b801561158c57506000600654115b801561159b5750600654600554105b80156115a8575060065443105b6115c45760405162461bcd60e51b81526004016106ff90612639565b600b546115e35760405162461bcd60e51b81526004016106ff90612444565b60055460065403600354816115f457fe5b0460075560005b600b548110156116eb576000600b828154811061161457fe5b60009182526020808320909101546001600160a01b03908116808452600c9092526040909220600254919350911661165b576001600160a01b0382163160038201556116e1565b6002546040516370a0823160e01b81526001600160a01b03909116906370a082319061168b9085906004016120c2565b60206040518083038186803b1580156116a357600080fd5b505afa1580156116b7573d6000803e3d6000fd5b505050506040513d601f19601f820116820180604052508101906116db91906120aa565b60038201555b50506001016115fb565b5060005b600b54811015611a19576000600c6000600b848154811061170c57fe5b60009182526020808320909101546001600160a01b0316835282019290925260400181209150805b600b548110156117c8578260020154600c6000600b848154811061175457fe5b60009182526020808320909101546001600160a01b03168352820192909252604001902060020154106117c057600c6000600b838154811061179257fe5b60009182526020808320909101546001600160a01b0316835282019290925260400190206003015491909101905b600101611734565b5060028201546000908152600e60205260408120829055835b80156118fd57600e6000600c6000600b85815481106117fc57fe5b9060005260206000200160009054906101000a90046001600160a01b03166001600160a01b03166001600160a01b03168152602001908152602001600020600201548152602001908152602001600020548460030154600754600c6000600b600187038154811061186957fe5b9060005260206000200160009054906101000a90046001600160a01b03166001600160a01b03166001600160a01b0316815260200190815260200160002060020154600c6000600b87815481106118bc57fe5b60009182526020808320909101546001600160a01b03168352820192909252604001902060020154030202816118ee57fe5b049190910190600019016117e1565b50600e6000600c6000600b60008154811061191457fe5b9060005260206000200160009054906101000a90046001600160a01b03166001600160a01b03166001600160a01b03168152602001908152602001600020600201548152602001908152602001600020548360030154600754600c6000600b60008154811061197f57fe5b9060005260206000200160009054906101000a90046001600160a01b03166001600160a01b03166001600160a01b0316815260200190815260200160002060010154600c6000600b6000815481106119d357fe5b60009182526020808320909101546001600160a01b0316835282019290925260400190206002015403020281611a0557fe5b0401600490920191909155506001016116ef565b506008805460ff19166001179055565b7fe5667d34d7ea8d6fdb3aa71a0a5b85e4cf7f68356dd003cd638556b0eea2bce581565b6000610c4b836001600160a01b038416611b64565b3390565b6000828152602081905260409020611a7e9082611a4d565b156109f357611a8b611a62565b6001600160a01b0316816001600160a01b0316837f2f8788117e7eff1d82e926ec794901d17c78024a50270940304540a733656f0d60405160405180910390a45050565b6000828152602081905260409020611ae79082611bae565b156109f357611af4611a62565b6001600160a01b0316816001600160a01b0316837ff6391f5c32d9c69d2a47ea670b442974b53935d1edc7fd64eb21e047a839171b60405160405180910390a45050565b6000610c4b8383611bc3565b6000610c4b836001600160a01b038416611c27565b6000610c4e82611c3f565b6000611b708383611c27565b611ba657508154600181810184556000848152602080822090930184905584548482528286019093526040902091909155610c4e565b506000610c4e565b6000610c4b836001600160a01b038416611c43565b81546000908210611c055760405162461bcd60e51b81526004018080602001828103825260228152602001806127f66022913960400191505060405180910390fd5b826000018281548110611c1457fe5b9060005260206000200154905092915050565b60009081526001919091016020526040902054151590565b5490565b60008181526001830160205260408120548015611cff5783546000198083019190810190600090879083908110611c7657fe5b9060005260206000200154905080876000018481548110611c9357fe5b600091825260208083209091019290925582815260018981019092526040902090840190558654879080611cc357fe5b60019003818190600052602060002001600090559055866001016000878152602001908152602001600020600090556001945050505050610c4e565b6000915050610c4e565b828054600181600116156101000203166002900490600052602060002090601f016020900481019282611d3f5760008555611d85565b82601f10611d5857805160ff1916838001178555611d85565b82800160010185558215611d85579182015b82811115611d85578251825591602001919060010190611d6a565b50611d91929150611dcf565b5090565b828054828255906000526020600020908101928215611d855791602002820182811115611d85578251825591602001919060010190611d6a565b5b80821115611d915760008155600101611dd0565b8035610961816127dd565b600060208284031215611e00578081fd5b8135611e0b816127dd565b9392505050565b600060208284031215611e23578081fd5b8151611e0b816127dd565b600080600080600080600080610100898b031215611e4a578384fd5b8835611e55816127dd565b97506020890135611e65816127dd565b965060408901359550606089013594506080890135935060a0890135611e8a816127dd565b925060c0890135915060e0890135611ea1816127dd565b809150509295985092959890939650565b60008060408385031215611ec4578182fd5b8235611ecf816127dd565b946020939093013593505050565b60006020808385031215611eef578182fd5b823567ffffffffffffffff80821115611f06578384fd5b818501915085601f830112611f19578384fd5b813581811115611f2557fe5b8381029150611f358483016127b9565b8181528481019084860184860187018a1015611f4f578788fd5b8795505b83861015611f71578035835260019590950194918601918601611f53565b5098975050505050505050565b600060208284031215611f8f578081fd5b81518015158114611e0b578182fd5b600060208284031215611faf578081fd5b5035919050565b60008060408385031215611fc8578182fd5b823591506020830135611fda816127dd565b809150509250929050565b60008060408385031215611ff7578182fd5b50508035926020909101359150565b60008060006060848603121561201a578283fd5b833567ffffffffffffffff80821115612031578485fd5b818601915086601f830112612044578485fd5b813560208282111561205257fe5b612064601f8301601f191682016127b9565b92508183528881838601011115612079578687fd5b818185018285013786818385010152829650612096818901611de4565b955050505050604084013590509250925092565b6000602082840312156120bb578081fd5b5051919050565b6001600160a01b0391909116815260200190565b6001600160a01b03929092168252602082015260400190565b6001600160a01b03979097168752602087019590955260408601939093526060850191909152608084015260a0830152151560c082015260e00190565b6020808252825182820181905260009190848201906040850190845b8181101561216d5783516001600160a01b031683529284019291840191600101612148565b50909695505050505050565b6020808252825182820181905260009190848201906040850190845b8181101561216d57835183529284019291840191600101612195565b901515815260200190565b90815260200190565b600060c0825287518060c0840152815b818110156121f2576020818b0181015160e08684010152016121d5565b81811115612203578260e083860101525b5060208301979097525060408101949094526060840192909252608083015260a082015260e0601f909201601f19160101919050565b60208082526022908201527f5374616b65315661756c743a20416c72656164792073746172746564207374616040820152616b6560f01b606082015260800190565b60208082526023908201527f5374616b65315661756c743a2043616c6c6572206973206e6f7420616e20616460408201526236b4b760e91b606082015260800190565b6020808252601290820152715374616b65315661756c743a2077726f6e6760701b604082015260600190565b60208082526028908201527f5374616b65315661756c743a206164645374616b6572496e5661756c7420696e6040820152676974206661696c7360c01b606082015260800190565b6020808252601a908201527f5374616b65315661756c743a20696e707574206973207a65726f000000000000604082015260600190565b60208082526026908201527f5374616b65315661756c743a207374617274426c6f636b20697320756e617661604082015265696c61626c6560d01b606082015260800190565b60208082526031908201527f5374616b65315661756c743a20636c61696d20616d6f756e74206578636565646040820152701cc81d1a19481c995dd85c99081b19599d607a1b606082015260800190565b60208082526024908201527f5374616b65315661756c743a2043616c6c6572206973206e6f74206120636c6160408201526334b6b2b960e11b606082015260800190565b6020808252601690820152755374616b65315661756c743a206e6f207374616b657360501b604082015260600190565b6020808252601c908201527f5374616b65315661756c743a206368616e6765436170206661696c7300000000604082015260600190565b60208082526022908201527f5374616b65315661756c743a20636c61696d20616d6f756e742069732077726f6040820152616e6760f01b606082015260800190565b60208082526019908201527f5374616b65315661756c743a205f636170206973207a65726f00000000000000604082015260600190565b60208082526018908201527f5374616b65315661756c743a20636c6f7365642073616c650000000000000000604082015260600190565b6020808252602b908201527f5374616b65315661756c743a20636c61696d5661756c743a206e6f7420656e6f60408201526a7567682062616c616e636560a81b606082015260800190565b6020808252602a908201527f5374616b65315661756c743a20636c61696d5661756c74207374617274426c636040820152696f6b206973207a65726f60b01b606082015260800190565b60208082526029908201527f5374616b65315661756c743a206368616e67654f726465726564456e64426c6f604082015268636b73206661696c7360b81b606082015260800190565b6020808252818101527f5374616b65315661756c743a20636c6f736553616c6520696e6974206661696c604082015260600190565b6020808252601e908201527f5374616b65315661756c743a205f6465666941646472206973207a65726f0000604082015260600190565b6020808252601a908201527f5374616b65315661756c743a20646973636c6f73652073616c65000000000000604082015260600190565b6020808252601290820152712234b33332b932b73a103830bcba37b5b2b760711b604082015260600190565b6020808252601a908201527f5374616b65315661756c743a20416c7265616479206164646564000000000000604082015260600190565b60208082526023908201527f5374616b65315661756c743a2073616c6520697320616c726561647920636c6f6040820152621cd95960ea1b606082015260800190565b6020808252601e908201527f5374616b65315661756c743a20464c44207472616e73666572206661696c0000604082015260600190565b60405181810167ffffffffffffffff811182821017156127d557fe5b604052919050565b6001600160a01b03811681146127f257600080fd5b5056fe456e756d657261626c655365743a20696e646578206f7574206f6620626f756e6473416363657373436f6e74726f6c3a2073656e646572206d75737420626520616e2061646d696e20746f206772616e74416363657373436f6e74726f6c3a2073656e646572206d75737420626520616e2061646d696e20746f207265766f6b65df8b4c520ffe197c5343c6f5aec59570151ef9a492f2c624fd45ddde6135ec42416363657373436f6e74726f6c3a2063616e206f6e6c792072656e6f756e636520726f6c657320666f722073656c66a2646970667358221220b00a7bc3eef7f5fead0b746643de3ffb1306ae03ff7132a2f0fbb1f60a688a0964736f6c63430007060033e5667d34d7ea8d6fdb3aa71a0a5b85e4cf7f68356dd003cd638556b0eea2bce5df8b4c520ffe197c5343c6f5aec59570151ef9a492f2c624fd45ddde6135ec42456e756d657261626c655365743a20696e646578206f7574206f6620626f756e6473416363657373436f6e74726f6c3a2073656e646572206d75737420626520616e2061646d696e20746f206772616e74416363657373436f6e74726f6c3a2073656e646572206d75737420626520616e2061646d696e20746f207265766f6b65df8b4c520ffe197c5343c6f5aec59570151ef9a492f2c624fd45ddde6135ec42416363657373436f6e74726f6c3a2063616e206f6e6c792072656e6f756e636520726f6c657320666f722073656c66a26469706673582212204e58601345d1e51f6309323abb5a46e35bc16e5154cadf9f08c748e8b832eb4664736f6c63430007060033",
  "immutableReferences": {},
  "source": "// SPDX-License-Identifier: MIT\npragma solidity ^0.7.6;\npragma abicoder v2;\n\nimport {SafeMath} from \"../utils/math/SafeMath.sol\";\n\nimport \"./StakeProxyStorage.sol\";\nimport \"@openzeppelin/contracts/access/AccessControl.sol\";\nimport {IStakeFactory} from \"../interfaces/IStakeFactory.sol\";\nimport {IStakeRegistry} from \"../interfaces/IStakeRegistry.sol\";\nimport {IStake1Vault} from \"../interfaces/IStake1Vault.sol\";\nimport {IStake1} from \"../interfaces/IStake1.sol\";\nimport {Stake1Vault} from \"./Stake1Vault.sol\";\n\ncontract Stake1Logic is StakeProxyStorage, AccessControl {\n    using SafeMath for uint256;\n    bytes32 public constant ADMIN_ROLE = keccak256(\"ADMIN\");\n    bytes32 public constant ZERO_HASH =\n        0x0000000000000000000000000000000000000000000000000000000000000000;\n\n    modifier onlyOwner() {\n        require(\n            hasRole(ADMIN_ROLE, msg.sender),\n            \"Stake1Proxy: Caller is not an admin\"\n        );\n        _;\n    }\n\n    modifier nonZero(address _addr) {\n        require(_addr != address(0), \"Stake1Proxy: zero address\");\n        _;\n    }\n\n    modifier nonZeroHash(bytes32 _hash) {\n        require(_hash != ZERO_HASH, \"Stake1Proxy: zero hash\");\n        _;\n    }\n\n    //////////////////////////////\n    // Events\n    //////////////////////////////\n    event CreatedVault(address indexed vault, address paytoken, uint256 cap);\n\n    //////////////////////////////////////////////////////////////////////\n    // setters\n    function setStore(\n        address _fld,\n        address _stakeRegistry,\n        address _stakeFactory,\n        address _ton,\n        address _wton,\n        address _depositManager,\n        address _seigManager\n        // address _uniswapRouter,\n        // address _yearnV2Vault\n    ) external onlyOwner nonZero(_ton) nonZero(_wton) nonZero(_depositManager) {\n        setFLD(_fld);\n        setStakeRegistry(_stakeRegistry);\n        setStakeFactory(_stakeFactory);\n        ton = _ton;\n        wton = _wton;\n        depositManager = _depositManager;\n        seigManager = _seigManager;\n        //uniswapRouter = _uniswapRouter;\n        //yearnV2Vault = _yearnV2Vault;\n    }\n\n    ///\n    function setFactory(address _stakeFactory) external onlyOwner {\n        setStakeFactory(_stakeFactory);\n    }\n    /*\n    function setUniswapRouter(address _addr) external onlyOwner nonZero(_addr) {\n        uniswapRouter = _addr;\n    }\n\n    function setYearnV2Vault(address _addr) external onlyOwner nonZero(_addr) {\n        yearnV2Vault = _addr;\n    }\n    */\n    //////////////////////////////////////////////////////////////////////\n    // Admin Functions\n    function createVault(\n        address _paytoken,\n        uint256 _cap,\n        uint256 _saleStartBlcok,\n        uint256 _stakeStartBlcok,\n        uint256 _pahse,\n        bytes32 _vaultName,\n        uint256 _stakeType,\n        address _defiAddr\n    ) external {\n        Stake1Vault vault = new Stake1Vault();\n        vault.initialize(\n            fld,\n            _paytoken,\n            _cap,\n            _saleStartBlcok,\n            _stakeStartBlcok,\n            address(stakeFactory),\n            _stakeType,\n            _defiAddr\n        );\n        stakeRegistry.addVault(_pahse, _vaultName, address(vault));\n\n        emit CreatedVault(address(vault), _paytoken, _cap);\n    }\n\n    function createStakeContract(\n        uint256 _pahse,\n        address _vault,\n        address token,\n        address paytoken,\n        uint256 periodBlock,\n        string memory _name\n    ) external onlyOwner {\n        require(\n            stakeRegistry.validVault(_pahse, _vault),\n            \"Stake1Proxy: unvalidVault\"\n        );\n        // solhint-disable-next-line max-line-length\n        address _contract =\n            stakeFactory.deploy(\n                _pahse,\n                _vault,\n                _name,\n                token,\n                paytoken,\n                periodBlock,\n                [ton, wton, depositManager, seigManager]\n            );\n        require(\n            _contract != address(0),\n            \"Stake1Proxy: stakeFactory.deploy fail\"\n        );\n        stakeRegistry.addStakeContract(_vault, _contract);\n    }\n\n    function closeSale(address _vault) external {\n        IStake1Vault(_vault).closeSale();\n    }\n\n    function addVault(\n        uint256 _pahse,\n        bytes32 _vaultName,\n        address _vault\n    ) external onlyOwner {\n        stakeRegistry.addVault(_pahse, _vaultName, _vault);\n    }\n\n    function stakeContractsOfVault(address _vault)\n        external\n        view\n        nonZero(_vault)\n        returns (address[] memory)\n    {\n        return IStake1Vault(_vault).stakeAddressesAll();\n    }\n\n    function vaultsOfPhase(uint256 _phaseIndex)\n        external\n        view\n        returns (address[] memory)\n    {\n        return stakeRegistry.phasesAll(_phaseIndex);\n    }\n\n    function tokamakStaking(\n        address _stakeContract,\n        address _layer2,\n        uint256 _amount\n    ) external onlyOwner {\n        IStake1(_stakeContract).tokamakStaking(_layer2, _amount);\n    }\n\n    /// @dev Requests unstaking all\n    function tokamakRequestUnStakingAll(address _stakeContract, address _layer2)\n        external\n        onlyOwner\n    {\n        IStake1(_stakeContract).tokamakRequestUnStakingAll(_layer2);\n    }\n\n    /// @dev Requests unstaking\n    function tokamakRequestUnStaking(\n        address _stakeContract,\n        address _layer2,\n        uint256 _amount\n    ) external onlyOwner {\n        IStake1(_stakeContract).tokamakRequestUnStaking(_layer2, _amount);\n    }\n\n    /// @dev Processes unstaking\n    function tokamakProcessUnStaking(\n        address _stakeContract,\n        address _layer2,\n        bool receiveTON\n    ) external onlyOwner {\n        IStake1(_stakeContract).tokamakProcessUnStaking(_layer2, receiveTON);\n    }\n\n    /// @dev Sets FLD address\n    function setFLD(address _fld) public onlyOwner nonZero(_fld) {\n        fld = _fld;\n    }\n\n    /// @dev Sets Stake Registry address\n    function setStakeRegistry(address _stakeRegistry)\n        public\n        onlyOwner\n        nonZero(_stakeRegistry)\n    {\n        stakeRegistry = IStakeRegistry(_stakeRegistry);\n    }\n\n    /// @dev Sets Stake Factory address\n    function setStakeFactory(address _stakeFactory)\n        public\n        onlyOwner\n        nonZero(_stakeFactory)\n    {\n        stakeFactory = IStakeFactory(_stakeFactory);\n    }\n\n    function vaultsOfPahse(uint256 _phase)\n        public\n        nonZero(address(stakeRegistry))\n        returns (address[] memory)\n    {\n        return stakeRegistry.phasesAll(_phase);\n    }\n\n\n}\n",
  "sourcePath": "/Users/kadyrbeknarmamatov/code/ico20-contracts/contracts/stake/Stake1Logic.sol",
  "compiler": {
    "name": "solc",
    "version": "0.7.6+commit.7338295f.Emscripten.clang"
  },
  "schemaVersion": "3.4.0",
  "updatedAt": "2021-05-11T06:57:40.560Z",
  "devdoc": {
    "kind": "dev",
    "methods": {
      "getRoleAdmin(bytes32)": {
        "details": "Returns the admin role that controls `role`. See {grantRole} and {revokeRole}. To change a role's admin, use {_setRoleAdmin}."
      },
      "getRoleMember(bytes32,uint256)": {
        "details": "Returns one of the accounts that have `role`. `index` must be a value between 0 and {getRoleMemberCount}, non-inclusive. Role bearers are not sorted in any particular way, and their ordering may change at any point. WARNING: When using {getRoleMember} and {getRoleMemberCount}, make sure you perform all queries on the same block. See the following https://forum.openzeppelin.com/t/iterating-over-elements-on-enumerableset-in-openzeppelin-contracts/2296[forum post] for more information."
      },
      "getRoleMemberCount(bytes32)": {
        "details": "Returns the number of accounts that have `role`. Can be used together with {getRoleMember} to enumerate all bearers of a role."
      },
      "grantRole(bytes32,address)": {
        "details": "Grants `role` to `account`. If `account` had not been already granted `role`, emits a {RoleGranted} event. Requirements: - the caller must have ``role``'s admin role."
      },
      "hasRole(bytes32,address)": {
        "details": "Returns `true` if `account` has been granted `role`."
      },
      "renounceRole(bytes32,address)": {
        "details": "Revokes `role` from the calling account. Roles are often managed via {grantRole} and {revokeRole}: this function's purpose is to provide a mechanism for accounts to lose their privileges if they are compromised (such as when a trusted device is misplaced). If the calling account had been granted `role`, emits a {RoleRevoked} event. Requirements: - the caller must be `account`."
      },
      "revokeRole(bytes32,address)": {
        "details": "Revokes `role` from `account`. If `account` had been granted `role`, emits a {RoleRevoked} event. Requirements: - the caller must have ``role``'s admin role."
      },
      "setFLD(address)": {
        "details": "Sets FLD address"
      },
      "setStakeFactory(address)": {
        "details": "Sets Stake Factory address"
      },
      "setStakeRegistry(address)": {
        "details": "Sets Stake Registry address"
      },
      "tokamakProcessUnStaking(address,address,bool)": {
        "details": "Processes unstaking"
      },
      "tokamakRequestUnStaking(address,address,uint256)": {
        "details": "Requests unstaking"
      },
      "tokamakRequestUnStakingAll(address,address)": {
        "details": "Requests unstaking all"
      }
    },
    "version": 1
  },
  "userdoc": {
    "kind": "user",
    "methods": {},
    "version": 1
  }
}