{
  "contractName": "StakeSimple",
  "abi": [
    {
      "inputs": [],
      "stateMutability": "nonpayable",
      "type": "constructor"
    },
    {
      "anonymous": false,
      "inputs": [
        {
          "indexed": true,
          "internalType": "address",
          "name": "to",
          "type": "address"
        },
        {
          "indexed": false,
          "internalType": "uint256",
          "name": "amount",
          "type": "uint256"
        },
        {
          "indexed": false,
          "internalType": "uint256",
          "name": "claimBlock",
          "type": "uint256"
        }
      ],
      "name": "Claimed",
      "type": "event"
    },
    {
      "anonymous": false,
      "inputs": [
        {
          "indexed": true,
          "internalType": "bytes32",
          "name": "role",
          "type": "bytes32"
        },
        {
          "indexed": true,
          "internalType": "bytes32",
          "name": "previousAdminRole",
          "type": "bytes32"
        },
        {
          "indexed": true,
          "internalType": "bytes32",
          "name": "newAdminRole",
          "type": "bytes32"
        }
      ],
      "name": "RoleAdminChanged",
      "type": "event"
    },
    {
      "anonymous": false,
      "inputs": [
        {
          "indexed": true,
          "internalType": "bytes32",
          "name": "role",
          "type": "bytes32"
        },
        {
          "indexed": true,
          "internalType": "address",
          "name": "account",
          "type": "address"
        },
        {
          "indexed": true,
          "internalType": "address",
          "name": "sender",
          "type": "address"
        }
      ],
      "name": "RoleGranted",
      "type": "event"
    },
    {
      "anonymous": false,
      "inputs": [
        {
          "indexed": true,
          "internalType": "bytes32",
          "name": "role",
          "type": "bytes32"
        },
        {
          "indexed": true,
          "internalType": "address",
          "name": "account",
          "type": "address"
        },
        {
          "indexed": true,
          "internalType": "address",
          "name": "sender",
          "type": "address"
        }
      ],
      "name": "RoleRevoked",
      "type": "event"
    },
    {
      "anonymous": false,
      "inputs": [
        {
          "indexed": true,
          "internalType": "address",
          "name": "to",
          "type": "address"
        },
        {
          "indexed": false,
          "internalType": "uint256",
          "name": "amount",
          "type": "uint256"
        }
      ],
      "name": "Staked",
      "type": "event"
    },
    {
      "anonymous": false,
      "inputs": [
        {
          "indexed": true,
          "internalType": "address",
          "name": "to",
          "type": "address"
        },
        {
          "indexed": false,
          "internalType": "uint256",
          "name": "amount",
          "type": "uint256"
        }
      ],
      "name": "Withdrawal",
      "type": "event"
    },
    {
      "inputs": [],
      "name": "ADMIN_ROLE",
      "outputs": [
        {
          "internalType": "bytes32",
          "name": "",
          "type": "bytes32"
        }
      ],
      "stateMutability": "view",
      "type": "function"
    },
    {
      "inputs": [],
      "name": "BURNER_ROLE",
      "outputs": [
        {
          "internalType": "bytes32",
          "name": "",
          "type": "bytes32"
        }
      ],
      "stateMutability": "view",
      "type": "function"
    },
    {
      "inputs": [],
      "name": "DEFAULT_ADMIN_ROLE",
      "outputs": [
        {
          "internalType": "bytes32",
          "name": "",
          "type": "bytes32"
        }
      ],
      "stateMutability": "view",
      "type": "function"
    },
    {
      "inputs": [],
      "name": "MINTER_ROLE",
      "outputs": [
        {
          "internalType": "bytes32",
          "name": "",
          "type": "bytes32"
        }
      ],
      "stateMutability": "view",
      "type": "function"
    },
    {
      "inputs": [
        {
          "internalType": "address",
          "name": "account",
          "type": "address"
        }
      ],
      "name": "addAdmin",
      "outputs": [],
      "stateMutability": "nonpayable",
      "type": "function"
    },
    {
      "inputs": [],
      "name": "defiAddr",
      "outputs": [
        {
          "internalType": "address",
          "name": "",
          "type": "address"
        }
      ],
      "stateMutability": "view",
      "type": "function"
    },
    {
      "inputs": [],
      "name": "endBlock",
      "outputs": [
        {
          "internalType": "uint256",
          "name": "",
          "type": "uint256"
        }
      ],
      "stateMutability": "view",
      "type": "function"
    },
    {
      "inputs": [
        {
          "internalType": "bytes32",
          "name": "role",
          "type": "bytes32"
        }
      ],
      "name": "getRoleAdmin",
      "outputs": [
        {
          "internalType": "bytes32",
          "name": "",
          "type": "bytes32"
        }
      ],
      "stateMutability": "view",
      "type": "function"
    },
    {
      "inputs": [
        {
          "internalType": "bytes32",
          "name": "role",
          "type": "bytes32"
        },
        {
          "internalType": "uint256",
          "name": "index",
          "type": "uint256"
        }
      ],
      "name": "getRoleMember",
      "outputs": [
        {
          "internalType": "address",
          "name": "",
          "type": "address"
        }
      ],
      "stateMutability": "view",
      "type": "function"
    },
    {
      "inputs": [
        {
          "internalType": "bytes32",
          "name": "role",
          "type": "bytes32"
        }
      ],
      "name": "getRoleMemberCount",
      "outputs": [
        {
          "internalType": "uint256",
          "name": "",
          "type": "uint256"
        }
      ],
      "stateMutability": "view",
      "type": "function"
    },
    {
      "inputs": [
        {
          "internalType": "address",
          "name": "user",
          "type": "address"
        }
      ],
      "name": "getUserStaked",
      "outputs": [
        {
          "internalType": "uint256",
          "name": "amount",
          "type": "uint256"
        },
        {
          "internalType": "uint256",
          "name": "claimedBlock",
          "type": "uint256"
        },
        {
          "internalType": "uint256",
          "name": "claimedAmount",
          "type": "uint256"
        },
        {
          "internalType": "uint256",
          "name": "releasedBlock",
          "type": "uint256"
        },
        {
          "internalType": "uint256",
          "name": "releasedAmount",
          "type": "uint256"
        },
        {
          "internalType": "uint256",
          "name": "releasedTOSAmount",
          "type": "uint256"
        },
        {
          "internalType": "bool",
          "name": "released",
          "type": "bool"
        }
      ],
      "stateMutability": "view",
      "type": "function"
    },
    {
      "inputs": [
        {
          "internalType": "bytes32",
          "name": "role",
          "type": "bytes32"
        },
        {
          "internalType": "address",
          "name": "account",
          "type": "address"
        }
      ],
      "name": "grantRole",
      "outputs": [],
      "stateMutability": "nonpayable",
      "type": "function"
    },
    {
      "inputs": [
        {
          "internalType": "bytes32",
          "name": "role",
          "type": "bytes32"
        },
        {
          "internalType": "address",
          "name": "account",
          "type": "address"
        }
      ],
      "name": "hasRole",
      "outputs": [
        {
          "internalType": "bool",
          "name": "",
          "type": "bool"
        }
      ],
      "stateMutability": "view",
      "type": "function"
    },
    {
      "inputs": [],
      "name": "infos",
      "outputs": [
        {
          "internalType": "address",
          "name": "",
          "type": "address"
        },
        {
          "internalType": "address",
          "name": "",
          "type": "address"
        },
        {
          "internalType": "uint256[3]",
          "name": "",
          "type": "uint256[3]"
        },
        {
          "internalType": "uint256",
          "name": "",
          "type": "uint256"
        },
        {
          "internalType": "uint256",
          "name": "",
          "type": "uint256"
        },
        {
          "internalType": "uint256",
          "name": "",
          "type": "uint256"
        }
      ],
      "stateMutability": "view",
      "type": "function"
    },
    {
      "inputs": [
        {
          "internalType": "address",
          "name": "account",
          "type": "address"
        }
      ],
      "name": "isAdmin",
      "outputs": [
        {
          "internalType": "bool",
          "name": "",
          "type": "bool"
        }
      ],
      "stateMutability": "view",
      "type": "function"
    },
    {
      "inputs": [],
      "name": "migratedL2",
      "outputs": [
        {
          "internalType": "bool",
          "name": "",
          "type": "bool"
        }
      ],
      "stateMutability": "view",
      "type": "function"
    },
    {
      "inputs": [],
      "name": "pauseProxy",
      "outputs": [
        {
          "internalType": "bool",
          "name": "",
          "type": "bool"
        }
      ],
      "stateMutability": "view",
      "type": "function"
    },
    {
      "inputs": [],
      "name": "paytoken",
      "outputs": [
        {
          "internalType": "address",
          "name": "",
          "type": "address"
        }
      ],
      "stateMutability": "view",
      "type": "function"
    },
    {
      "inputs": [
        {
          "internalType": "address",
          "name": "account",
          "type": "address"
        }
      ],
      "name": "removeAdmin",
      "outputs": [],
      "stateMutability": "nonpayable",
      "type": "function"
    },
    {
      "inputs": [
        {
          "internalType": "bytes32",
          "name": "role",
          "type": "bytes32"
        },
        {
          "internalType": "address",
          "name": "account",
          "type": "address"
        }
      ],
      "name": "renounceRole",
      "outputs": [],
      "stateMutability": "nonpayable",
      "type": "function"
    },
    {
      "inputs": [
        {
          "internalType": "bytes32",
          "name": "role",
          "type": "bytes32"
        },
        {
          "internalType": "address",
          "name": "account",
          "type": "address"
        }
      ],
      "name": "revokeRole",
      "outputs": [],
      "stateMutability": "nonpayable",
      "type": "function"
    },
    {
      "inputs": [],
      "name": "rewardClaimedTotal",
      "outputs": [
        {
          "internalType": "uint256",
          "name": "",
          "type": "uint256"
        }
      ],
      "stateMutability": "view",
      "type": "function"
    },
    {
      "inputs": [],
      "name": "saleStartBlock",
      "outputs": [
        {
          "internalType": "uint256",
          "name": "",
          "type": "uint256"
        }
      ],
      "stateMutability": "view",
      "type": "function"
    },
    {
      "inputs": [],
      "name": "stakeRegistry",
      "outputs": [
        {
          "internalType": "address",
          "name": "",
          "type": "address"
        }
      ],
      "stateMutability": "view",
      "type": "function"
    },
    {
      "inputs": [],
      "name": "startBlock",
      "outputs": [
        {
          "internalType": "uint256",
          "name": "",
          "type": "uint256"
        }
      ],
      "stateMutability": "view",
      "type": "function"
    },
    {
      "inputs": [],
      "name": "token",
      "outputs": [
        {
          "internalType": "address",
          "name": "",
          "type": "address"
        }
      ],
      "stateMutability": "view",
      "type": "function"
    },
    {
      "inputs": [],
      "name": "totalStakedAmount",
      "outputs": [
        {
          "internalType": "uint256",
          "name": "",
          "type": "uint256"
        }
      ],
      "stateMutability": "view",
      "type": "function"
    },
    {
      "inputs": [],
      "name": "totalStakers",
      "outputs": [
        {
          "internalType": "uint256",
          "name": "",
          "type": "uint256"
        }
      ],
      "stateMutability": "view",
      "type": "function"
    },
    {
      "inputs": [
        {
          "internalType": "address",
          "name": "newAdmin",
          "type": "address"
        }
      ],
      "name": "transferAdmin",
      "outputs": [],
      "stateMutability": "nonpayable",
      "type": "function"
    },
    {
      "inputs": [
        {
          "internalType": "address",
          "name": "",
          "type": "address"
        }
      ],
      "name": "userStaked",
      "outputs": [
        {
          "internalType": "uint256",
          "name": "amount",
          "type": "uint256"
        },
        {
          "internalType": "uint256",
          "name": "claimedBlock",
          "type": "uint256"
        },
        {
          "internalType": "uint256",
          "name": "claimedAmount",
          "type": "uint256"
        },
        {
          "internalType": "uint256",
          "name": "releasedBlock",
          "type": "uint256"
        },
        {
          "internalType": "uint256",
          "name": "releasedAmount",
          "type": "uint256"
        },
        {
          "internalType": "uint256",
          "name": "releasedTOSAmount",
          "type": "uint256"
        },
        {
          "internalType": "bool",
          "name": "released",
          "type": "bool"
        }
      ],
      "stateMutability": "view",
      "type": "function"
    },
    {
      "inputs": [],
      "name": "vault",
      "outputs": [
        {
          "internalType": "address",
          "name": "",
          "type": "address"
        }
      ],
      "stateMutability": "view",
      "type": "function"
    },
    {
      "stateMutability": "payable",
      "type": "receive"
    },
    {
      "inputs": [
        {
          "internalType": "uint256",
          "name": "amount",
          "type": "uint256"
        }
      ],
      "name": "stake",
      "outputs": [],
      "stateMutability": "payable",
      "type": "function"
    },
    {
      "inputs": [],
      "name": "withdraw",
      "outputs": [],
      "stateMutability": "nonpayable",
      "type": "function"
    },
    {
      "inputs": [],
      "name": "claim",
      "outputs": [],
      "stateMutability": "nonpayable",
      "type": "function"
    },
    {
      "inputs": [
        {
          "internalType": "address",
          "name": "account",
          "type": "address"
        },
        {
          "internalType": "uint256",
          "name": "specificBlock",
          "type": "uint256"
        }
      ],
      "name": "canRewardAmount",
      "outputs": [
        {
          "internalType": "uint256",
          "name": "",
          "type": "uint256"
        }
      ],
      "stateMutability": "view",
      "type": "function"
    }
  ],
  "bytecode": "0x608060405234801561001057600080fd5b50612415806100206000396000f3fe6080604052600436106101c85760003560e01c806375829def116100f8578063a694fc3a11610090578063a694fc3a146105df578063acc3a939146105fc578063b2d4d6a314610669578063ca15c8731461067e578063d5391393146106a8578063d547741f146106bd578063dac3fc3f146106f6578063fbfa77cf14610729578063fc0c546a1461073e576101d8565b806375829def1461045f57806375b238fc1461049257806386989038146104a75780639010d07c146104bc57806391d14854146104ec5780639a88be2f146105255780639d84ca35146105a0578063a1f5f50e146105b5578063a217fddf146105ca576101d8565b80633ccfd60b1161016b5780633ccfd60b1461034457806343b0934a1461035957806348cd4cb11461038a5780634e71d92d1461039f578063567e98f9146103b457806363a8fd89146103c957806367cf3e18146103de5780636830483514610417578063704802751461042c576101d8565b8063083c6323146101dd5780631785f53c146102045780632002727514610237578063248a9ca31461024c57806324d7806c14610276578063282c51f3146102bd5780632f2ff15d146102d257806336568abe1461030b576101d8565b366101d8576101d634610753565b005b600080fd5b3480156101e957600080fd5b506101f2610a58565b60408051918252519081900360200190f35b34801561021057600080fd5b506101d66004803603602081101561022757600080fd5b50356001600160a01b0316610a5e565b34801561024357600080fd5b506101f2610abd565b34801561025857600080fd5b506101f26004803603602081101561026f57600080fd5b5035610ac3565b34801561028257600080fd5b506102a96004803603602081101561029957600080fd5b50356001600160a01b0316610ad8565b604080519115158252519081900360200190f35b3480156102c957600080fd5b506101f2610af8565b3480156102de57600080fd5b506101d6600480360360408110156102f557600080fd5b50803590602001356001600160a01b0316610b1c565b34801561031757600080fd5b506101d66004803603604081101561032e57600080fd5b50803590602001356001600160a01b0316610b88565b34801561035057600080fd5b506101d6610be9565b34801561036557600080fd5b5061036e610e7d565b604080516001600160a01b039092168252519081900360200190f35b34801561039657600080fd5b506101f2610e8c565b3480156103ab57600080fd5b506101d6610e92565b3480156103c057600080fd5b506101f261124d565b3480156103d557600080fd5b506102a9611253565b3480156103ea57600080fd5b506101f26004803603604081101561040157600080fd5b506001600160a01b03813516906020013561125c565b34801561042357600080fd5b5061036e611630565b34801561043857600080fd5b506101d66004803603602081101561044f57600080fd5b50356001600160a01b031661163f565b34801561046b57600080fd5b506101d66004803603602081101561048257600080fd5b50356001600160a01b031661169b565b34801561049e57600080fd5b506101f26117bc565b3480156104b357600080fd5b506101f26117ce565b3480156104c857600080fd5b5061036e600480360360408110156104df57600080fd5b50803590602001356117d4565b3480156104f857600080fd5b506102a96004803603604081101561050f57600080fd5b50803590602001356001600160a01b03166117ec565b34801561053157600080fd5b5061053a611804565b604080516001600160a01b0380891682528716602082015290810185606080838360005b8381101561057657818101518382015260200161055e565b50505050905001848152602001838152602001828152602001965050505050505060405180910390f35b3480156105ac57600080fd5b5061036e61185a565b3480156105c157600080fd5b506102a961186e565b3480156105d657600080fd5b506101f261187e565b6101d6600480360360208110156105f557600080fd5b5035610753565b34801561060857600080fd5b5061062f6004803603602081101561061f57600080fd5b50356001600160a01b0316611883565b604080519788526020880196909652868601949094526060860192909252608085015260a0840152151560c0830152519081900360e00190f35b34801561067557600080fd5b506101f26118c3565b34801561068a57600080fd5b506101f2600480360360208110156106a157600080fd5b50356118c9565b3480156106b457600080fd5b506101f26118e0565b3480156106c957600080fd5b506101d6600480360360408110156106e057600080fd5b50803590602001356001600160a01b0316611904565b34801561070257600080fd5b5061062f6004803603602081101561071957600080fd5b50356001600160a01b031661195d565b34801561073557600080fd5b5061036e6119a6565b34801561074a57600080fd5b5061036e6119b5565b6002546001600160a01b031615801561076b57508034145b8061078b57506002546001600160a01b03161580159061078b5750600081115b6107d6576040805162461bcd60e51b81526020600482015260176024820152765374616b6553696d706c653a207374616b65207a65726f60481b604482015290519081900360640190fd5b60045443101580156107e9575060055443105b6108245760405162461bcd60e51b81526004018080602001828103825260228152602001806123026022913960400191505060405180910390fd5b600360009054906101000a90046001600160a01b03166001600160a01b031663b8c766b86040518163ffffffff1660e01b815260040160206040518083038186803b15801561087257600080fd5b505afa158015610886573d6000803e3d6000fd5b505050506040513d602081101561089c57600080fd5b5051156108e7576040805162461bcd60e51b815260206004820152601460248201527314dd185ad954da5b5c1b194e881b9bdd08195b9960621b604482015290519081900360640190fd5b6002546001600160a01b03166108fe5750346109b0565b600254604080516370a0823160e01b8152336004820152905183926001600160a01b0316916370a08231916024808301926020929190829003018186803b15801561094857600080fd5b505afa15801561095c573d6000803e3d6000fd5b505050506040513d602081101561097257600080fd5b505110156109b0576040805162461bcd60e51b815260206004808301919091526024820152636c61636b60e01b604482015290519081900360640190fd5b33600090815260096020526040902080546109d757600a546109d39060016119c4565b600a555b80546109e390836119c4565b81556008546109f290836119c4565b6008556002546001600160a01b031615610a1e57600254610a1e906001600160a01b0316333085611a1e565b60408051838152905133917f9e71bc8eea02a63969f509818f2dafb9254532904319f9dbda79b67bd34a5f3d919081900360200190a25050565b60065481565b610a6733610ad8565b610aa25760405162461bcd60e51b81526004018080602001828103825260228152602001806122696022913960400191505060405180910390fd5b610aba60008051602061232483398151915282610b88565b50565b60045481565b6000908152600d602052604090206002015490565b6000610af2600080516020612324833981519152836117ec565b92915050565b7f9667e80708b6eeeb0053fa0cca44e028ff548e2a9f029edfeac87c118b08b7c881565b6000828152600d6020526040902060020154610b3f90610b3a611a7e565b6117ec565b610b7a5760405162461bcd60e51b815260040180806020018281038252602f81526020018061223a602f913960400191505060405180910390fd5b610b848282611a82565b5050565b610b90611a7e565b6001600160a01b0316816001600160a01b031614610bdf5760405162461bcd60e51b815260040180806020018281038252602f8152602001806123b1602f913960400191505060405180910390fd5b610b848282611aeb565b6000600654118015610bfc575043600654105b610c44576040805162461bcd60e51b815260206004820152601460248201527314dd185ad954da5b5c1b194e881b9bdd08195b9960621b604482015290519081900360640190fd5b336000908152600960205260409020600681015460ff1615610cad576040805162461bcd60e51b815260206004820152601d60248201527f5374616b6553696d706c653a20416c7265616479207769746864726177000000604482015290519081900360640190fd5b805460048201541115610d03576040805162461bcd60e51b81526020600482015260196024820152785374616b6553696d706c653a20416d6f756e742077726f6e6760381b604482015290519081900360640190fd5b60068101805460ff191660011790554360038201558054600482018190556002546001600160a01b0316610e2c57308031821115610d88576040805162461bcd60e51b815260206004820152601b60248201527f5374616b6553696d706c653a20696e7375666669656e74204554480000000000604482015290519081900360640190fd5b604051600090339084908381818185875af1925050503d8060008114610dca576040519150601f19603f3d011682016040523d82523d6000602084013e610dcf565b606091505b5050905080610e25576040805162461bcd60e51b815260206004820152601d60248201527f5374616b6553696d706c653a207769746864726177206661696c65642e000000604482015290519081900360640190fd5b5050610e43565b600254610e43906001600160a01b03163383611b54565b60408051828152905133917f7fcf532c15f0a6db0bd6d0e038bea71d30d808c7d98cb3bf7268a95bf5081b65919081900360200190a25050565b6002546001600160a01b031681565b60055481565b600b5415610edd576040805162461bcd60e51b815260206004820152601360248201527214dd185ad954da5b5c1b194e881313d0d2d151606a1b604482015290519081900360640190fd5b6001600b5560035460408051631718ecd760e31b815290516001600160a01b039092169163b8c766b891600480820192602092909190829003018186803b158015610f2757600080fd5b505afa158015610f3b573d6000803e3d6000fd5b505050506040513d6020811015610f5157600080fd5b5051610f9e576040805162461bcd60e51b815260206004820152601760248201527614dd185ad954da5b5c1b194e881b9bdd0818db1bdcd959604a1b604482015290519081900360640190fd5b336000908152600960205260408120600654600182015410610ffe576040805162461bcd60e51b815260206004820152601460248201527314dd185ad954da5b5c1b194e8818db185a5b595960621b604482015290519081900360640190fd5b611008334361125c565b91506000821161105f576040805162461bcd60e51b815260206004820152601b60248201527f5374616b6553696d706c653a20726577617264206973207a65726f0000000000604482015290519081900360640190fd5b6003546040805163032f7adb60e61b815230600482015290516000926001600160a01b03169163cbdeb6c0916024808301926020929190829003018186803b1580156110aa57600080fd5b505afa1580156110be573d6000803e3d6000fd5b505050506040513d60208110156110d457600080fd5b505160075490915081906110e890856119c4565b11156111255760405162461bcd60e51b81526004018080602001828103825260218152602001806123666021913960400191505060405180910390fd5b436001830155600282015461113a90846119c4565b600283015560075461114c90846119c4565b60075560035460408051635569f64b60e11b81523360048201526024810186905290516001600160a01b039092169163aad3ec96916044808201926020929091908290030181600087803b1580156111a357600080fd5b505af11580156111b7573d6000803e3d6000fd5b505050506040513d60208110156111cd57600080fd5b505161120a5760405162461bcd60e51b81526004018080602001828103825260228152602001806123446022913960400191505060405180910390fd5b60408051848152436020820152815133927f987d620f307ff6b94d58743cb7a7509f24071586a77759b77c2d4e29f75a2f9a928290030190a250506000600b5550565b60085481565b600c5460ff1681565b60065460009081908311156112715760065492505b60055483108061129757506001600160a01b038416600090815260096020526040902054155b806112be57506006546001600160a01b038516600090815260096020526040902060010154115b806112e357506001600160a01b03841660009081526009602052604090206001015483105b156112f057506000611629565b6005546006546001600160a01b038616600090815260096020526040902060010154821015611338576001600160a01b03861660009081526009602052604090206001015491505b808510156113435750835b6003546040805163c1b422fd60e01b815290516000926001600160a01b03169163c1b422fd9160048083019286929190829003018186803b15801561138757600080fd5b505afa15801561139b573d6000803e3d6000fd5b505050506040513d6000823e601f3d908101601f1916820160405260208110156113c457600080fd5b81019080805160405193929190846401000000008211156113e457600080fd5b9083019060208201858111156113f957600080fd5b825186602082028301116401000000008211171561141657600080fd5b82525081516020918201928201910280838360005b8381101561144357818101518382015260200161142b565b505050509050016040525050509050600081511115611625576003546040805163d105bf8560e01b815290516000928692849283926001600160a01b03169163d105bf85916004808301926020929190829003018186803b1580156114a757600080fd5b505afa1580156114bb573d6000803e3d6000fd5b505050506040513d60208110156114d157600080fd5b50516001600160a01b038c166000908152600960205260408120549192508c91905b875181101561161d5787818151811061150857fe5b60209081029190910181015160035460408051632f8deb1560e11b8152600481018490529051929a506001600160a01b0390911692635f1bd62a92602480840193829003018186803b15801561155d57600080fd5b505afa158015611571573d6000803e3d6000fd5b505050506040513d602081101561158757600080fd5b505194508686111561159857611615565b8689116115e45784156115df5760006115b18a8c611bab565b90506115db6115d4876115ce866115c88a87611bed565b90611bed565b90611c46565b8d906119c4565b9b50505b61161d565b84156116115760006115f6888c611bab565b905061160d6115d4876115ce866115c88a87611bed565b9b50505b8699505b6001016114f3565b505050505050505b5050505b9392505050565b6001546001600160a01b031681565b61164833610ad8565b6116835760405162461bcd60e51b81526004018080602001828103825260228152602001806122696022913960400191505060405180910390fd5b610aba60008051602061232483398151915282610b1c565b6116a433610ad8565b6116df5760405162461bcd60e51b81526004018080602001828103825260228152602001806122696022913960400191505060405180910390fd5b6001600160a01b038116611735576040805162461bcd60e51b815260206004820152601860248201527741636365737369626c653a207a65726f206164647265737360401b604482015290519081900360640190fd5b336001600160a01b038216141561178c576040805162461bcd60e51b815260206004820152601660248201527520b1b1b2b9b9b4b136329d1039b0b6b29030b236b4b760511b604482015290519081900360640190fd5b6117a460008051602061232483398151915282610b1c565b610aba60008051602061232483398151915233610b88565b60008051602061232483398151915281565b600a5481565b6000828152600d602052604081206116299083611c88565b6000828152600d602052604081206116299083611c94565b60008061180f6121f9565b5050600254600354604080516060810182526004548152600554602082015260065491810191909152600754600854600a546001600160a01b03958616979590941695509193909290565b600c5461010090046001600160a01b031681565b600c54600160a81b900460ff1681565b600081565b6009602052600090815260409020805460018201546002830154600384015460048501546005860154600690960154949593949293919290919060ff1687565b60075481565b6000818152600d60205260408120610af290611ca9565b7ff0887ba65ee2024ea881d91b74c2450ef19e1557f03bed3ea9f16b037cbe2dc981565b6000828152600d602052604090206002015461192290610b3a611a7e565b610bdf5760405162461bcd60e51b81526004018080602001828103825260308152602001806122b16030913960400191505060405180910390fd5b6001600160a01b03166000908152600960205260409020805460018201546002830154600384015460048501546005860154600690960154949693959294919390929160ff1690565b6003546001600160a01b031681565b6000546001600160a01b031681565b600082820183811015611629576040805162461bcd60e51b815260206004820152601b60248201527f536166654d6174683a206164646974696f6e206f766572666c6f770000000000604482015290519081900360640190fd5b604080516001600160a01b0380861660248301528416604482015260648082018490528251808303909101815260849091019091526020810180516001600160e01b03166323b872dd60e01b179052611a78908590611cb4565b50505050565b3390565b6000828152600d60205260409020611a9a9082611d65565b15610b8457611aa7611a7e565b6001600160a01b0316816001600160a01b0316837f2f8788117e7eff1d82e926ec794901d17c78024a50270940304540a733656f0d60405160405180910390a45050565b6000828152600d60205260409020611b039082611d7a565b15610b8457611b10611a7e565b6001600160a01b0316816001600160a01b0316837ff6391f5c32d9c69d2a47ea670b442974b53935d1edc7fd64eb21e047a839171b60405160405180910390a45050565b604080516001600160a01b038416602482015260448082018490528251808303909101815260649091019091526020810180516001600160e01b031663a9059cbb60e01b179052611ba6908490611cb4565b505050565b600061162983836040518060400160405280601e81526020017f536166654d6174683a207375627472616374696f6e206f766572666c6f770000815250611d8f565b600082611bfc57506000610af2565b82820282848281611c0957fe5b04146116295760405162461bcd60e51b81526004018080602001828103825260218152602001806122e16021913960400191505060405180910390fd5b600061162983836040518060400160405280601a81526020017f536166654d6174683a206469766973696f6e206279207a65726f000000000000815250611e26565b60006116298383611e8b565b6000611629836001600160a01b038416611eef565b6000610af282611f07565b6000611d09826040518060400160405280602081526020017f5361666545524332303a206c6f772d6c6576656c2063616c6c206661696c6564815250856001600160a01b0316611f0b9092919063ffffffff16565b805190915015611ba657808060200190516020811015611d2857600080fd5b5051611ba65760405162461bcd60e51b815260040180806020018281038252602a815260200180612387602a913960400191505060405180910390fd5b6000611629836001600160a01b038416611f22565b6000611629836001600160a01b038416611f6c565b60008184841115611e1e5760405162461bcd60e51b81526004018080602001828103825283818151815260200191508051906020019080838360005b83811015611de3578181015183820152602001611dcb565b50505050905090810190601f168015611e105780820380516001836020036101000a031916815260200191505b509250505060405180910390fd5b505050900390565b60008183611e755760405162461bcd60e51b8152602060048201818152835160248401528351909283926044909101919085019080838360008315611de3578181015183820152602001611dcb565b506000838581611e8157fe5b0495945050505050565b81546000908210611ecd5760405162461bcd60e51b81526004018080602001828103825260228152602001806122186022913960400191505060405180910390fd5b826000018281548110611edc57fe5b9060005260206000200154905092915050565b60009081526001919091016020526040902054151590565b5490565b6060611f1a8484600085612032565b949350505050565b6000611f2e8383611eef565b611f6457508154600181810184556000848152602080822090930184905584548482528286019093526040902091909155610af2565b506000610af2565b600081815260018301602052604081205480156120285783546000198083019190810190600090879083908110611f9f57fe5b9060005260206000200154905080876000018481548110611fbc57fe5b600091825260208083209091019290925582815260018981019092526040902090840190558654879080611fec57fe5b60019003818190600052602060002001600090559055866001016000878152602001908152602001600020600090556001945050505050610af2565b6000915050610af2565b6060824710156120735760405162461bcd60e51b815260040180806020018281038252602681526020018061228b6026913960400191505060405180910390fd5b61207c8561218d565b6120cd576040805162461bcd60e51b815260206004820152601d60248201527f416464726573733a2063616c6c20746f206e6f6e2d636f6e7472616374000000604482015290519081900360640190fd5b600080866001600160a01b031685876040518082805190602001908083835b6020831061210b5780518252601f1990920191602091820191016120ec565b6001836020036101000a03801982511681845116808217855250505050505090500191505060006040518083038185875af1925050503d806000811461216d576040519150601f19603f3d011682016040523d82523d6000602084013e612172565b606091505b5091509150612182828286612193565b979650505050505050565b3b151590565b606083156121a2575081611629565b8251156121b25782518084602001fd5b60405162461bcd60e51b8152602060048201818152845160248401528451859391928392604401919085019080838360008315611de3578181015183820152602001611dcb565b6040518060600160405280600390602082028036833750919291505056fe456e756d657261626c655365743a20696e646578206f7574206f6620626f756e6473416363657373436f6e74726f6c3a2073656e646572206d75737420626520616e2061646d696e20746f206772616e7441636365737369626c653a2043616c6c6572206973206e6f7420616e2061646d696e416464726573733a20696e73756666696369656e742062616c616e636520666f722063616c6c416363657373436f6e74726f6c3a2073656e646572206d75737420626520616e2061646d696e20746f207265766f6b65536166654d6174683a206d756c7469706c69636174696f6e206f766572666c6f775374616b6553696d706c653a20706572696f64206973206e6f7420616c6c6f776564df8b4c520ffe197c5343c6f5aec59570151ef9a492f2c624fd45ddde6135ec425374616b6553696d706c653a206661696c20636c61696d2066726f6d207661756c745374616b6553696d706c653a20746f74616c2072657761726420657863656564735361666545524332303a204552433230206f7065726174696f6e20646964206e6f742073756363656564416363657373436f6e74726f6c3a2063616e206f6e6c792072656e6f756e636520726f6c657320666f722073656c66a2646970667358221220c8eb4548e4447c7c88451b57691d28aa7b8d70c938fe7888c2d73a77abe12dc664736f6c63430007060033",
  "immutableReferences": {},
  "source": "//SPDX-License-Identifier: Unlicense\npragma solidity ^0.7.0;\n\nimport \"../interfaces/IStakeSimple.sol\";\nimport {IIStake1Vault} from \"../interfaces/IIStake1Vault.sol\";\nimport {IERC20} from \"@openzeppelin/contracts/token/ERC20/IERC20.sol\";\nimport \"../libraries/LibTokenStake1.sol\";\nimport \"@openzeppelin/contracts/math/SafeMath.sol\";\nimport \"../common/AccessibleCommon.sol\";\nimport \"../stake/Stake1Storage.sol\";\nimport {SafeERC20} from \"@openzeppelin/contracts/token/ERC20/SafeERC20.sol\";\n\n/// @title Simple Stake Contract\n/// @notice Stake contracts can interact with the vault to claim tos tokens\ncontract StakeSimple is Stake1Storage, AccessibleCommon, IStakeSimple {\n    using SafeMath for uint256;\n    using SafeERC20 for IERC20;\n\n    modifier lock() {\n        require(_lock == 0, \"StakeSimple: LOCKED\");\n        _lock = 1;\n        _;\n        _lock = 0;\n    }\n\n    /// @dev event on staking\n    /// @param to the sender\n    /// @param amount the amount of staking\n    event Staked(address indexed to, uint256 amount);\n\n    /// @dev event on claim\n    /// @param to the sender\n    /// @param amount the amount of claim\n    /// @param claimBlock the block of claim\n    event Claimed(address indexed to, uint256 amount, uint256 claimBlock);\n\n    /// @dev event on withdrawal\n    /// @param to the sender\n    /// @param amount the amount of withdrawal\n    event Withdrawal(address indexed to, uint256 amount);\n\n    /// @dev constructor of StakeSimple\n    constructor() {}\n\n    /// @dev receive ether\n    /// @dev call stake function with msg.value\n    receive() external payable {\n        stake(msg.value);\n    }\n\n    /// @dev Stake amount\n    /// @param amount  the amount of staked\n    function stake(uint256 amount) public payable override {\n        require(\n            (paytoken == address(0) && msg.value == amount) ||\n                (paytoken != address(0) && amount > 0),\n            \"StakeSimple: stake zero\"\n        );\n        require(\n            block.number >= saleStartBlock && block.number < startBlock,\n            \"StakeSimple: period is not allowed\"\n        );\n\n        require(!IIStake1Vault(vault).saleClosed(), \"StakeSimple: not end\");\n\n        if (paytoken == address(0)) amount = msg.value;\n        else require(IERC20(paytoken).balanceOf(msg.sender) >= amount, \"lack\");\n\n        LibTokenStake1.StakedAmount storage staked = userStaked[msg.sender];\n        if (staked.amount == 0) totalStakers = totalStakers.add(1);\n\n        staked.amount = staked.amount.add(amount);\n        totalStakedAmount = totalStakedAmount.add(amount);\n        if (paytoken != address(0))\n            IERC20(paytoken).safeTransferFrom(\n                msg.sender,\n                address(this),\n                amount\n            );\n\n        emit Staked(msg.sender, amount);\n    }\n\n    /// @dev withdraw\n    function withdraw() external override {\n        require(\n            endBlock > 0 && endBlock < block.number,\n            \"StakeSimple: not end\"\n        );\n\n        LibTokenStake1.StakedAmount storage staked = userStaked[msg.sender];\n        require(!staked.released, \"StakeSimple: Already withdraw\");\n        require(\n            staked.releasedAmount <= staked.amount,\n            \"StakeSimple: Amount wrong\"\n        );\n\n        staked.released = true;\n        staked.releasedBlock = block.number;\n\n        uint256 amount = staked.amount;\n        staked.releasedAmount = amount;\n\n        // check if we send in ethers or in tokens\n        if (paytoken == address(0)) {\n            address payable self = address(uint160(address(this)));\n            require(self.balance >= amount, \"StakeSimple: insuffient ETH\");\n            (bool success, ) = msg.sender.call{value: amount}(\"\");\n            require(success, \"StakeSimple: withdraw failed.\");\n        } else {\n            IERC20(paytoken).safeTransfer(msg.sender, amount);\n        }\n\n        emit Withdrawal(msg.sender, amount);\n    }\n\n    /// @dev Claim for reward\n    function claim() external override lock {\n        require(IIStake1Vault(vault).saleClosed(), \"StakeSimple: not closed\");\n        uint256 rewardClaim = 0;\n\n        LibTokenStake1.StakedAmount storage staked = userStaked[msg.sender];\n        require(staked.claimedBlock < endBlock, \"StakeSimple: claimed\");\n\n        rewardClaim = canRewardAmount(msg.sender, block.number);\n\n        require(rewardClaim > 0, \"StakeSimple: reward is zero\");\n\n        uint256 rewardTotal =\n            IIStake1Vault(vault).totalRewardAmount(address(this));\n        require(\n            rewardClaimedTotal.add(rewardClaim) <= rewardTotal,\n            \"StakeSimple: total reward exceeds\"\n        );\n\n        staked.claimedBlock = block.number;\n        staked.claimedAmount = staked.claimedAmount.add(rewardClaim);\n        rewardClaimedTotal = rewardClaimedTotal.add(rewardClaim);\n\n        require(\n            IIStake1Vault(vault).claim(msg.sender, rewardClaim),\n            \"StakeSimple: fail claim from vault\"\n        );\n\n        emit Claimed(msg.sender, rewardClaim, block.number);\n    }\n\n    /// @dev Returns the amount that can be rewarded\n    /// @param account  the account that claimed reward\n    /// @param specificBlock the block that claimed reward\n    /// @return reward the reward amount that can be taken\n    function canRewardAmount(address account, uint256 specificBlock)\n        public\n        view\n        override\n        returns (uint256)\n    {\n        uint256 reward = 0;\n        if (specificBlock > endBlock) specificBlock = endBlock;\n\n        if (\n            specificBlock < startBlock ||\n            userStaked[account].amount == 0 ||\n            userStaked[account].claimedBlock > endBlock ||\n            userStaked[account].claimedBlock > specificBlock\n        ) {\n            reward = 0;\n        } else {\n            uint256 startR = startBlock;\n            uint256 endR = endBlock;\n            if (startR < userStaked[account].claimedBlock)\n                startR = userStaked[account].claimedBlock;\n            if (specificBlock < endR) endR = specificBlock;\n\n            uint256[] memory orderedEndBlocks =\n                IIStake1Vault(vault).orderedEndBlocksAll();\n\n            if (orderedEndBlocks.length > 0) {\n                uint256 _end = 0;\n                uint256 _start = startR;\n                uint256 _total = 0;\n                uint256 blockTotalReward = 0;\n                blockTotalReward = IIStake1Vault(vault).blockTotalReward();\n\n                address user = account;\n                uint256 amount = userStaked[user].amount;\n\n                for (uint256 i = 0; i < orderedEndBlocks.length; i++) {\n                    _end = orderedEndBlocks[i];\n                    _total = IIStake1Vault(vault).stakeEndBlockTotal(_end);\n\n                    if (_start > _end) {} else if (endR <= _end) {\n                        if (_total > 0) {\n                            uint256 _period1 = endR.sub(startR);\n                            reward = reward.add(\n                                blockTotalReward.mul(_period1).mul(amount).div(\n                                    _total\n                                )\n                            );\n                        }\n                        break;\n                    } else {\n                        if (_total > 0) {\n                            uint256 _period2 = _end.sub(startR);\n                            reward = reward.add(\n                                blockTotalReward.mul(_period2).mul(amount).div(\n                                    _total\n                                )\n                            );\n                        }\n                        startR = _end;\n                    }\n                }\n            }\n        }\n        return reward;\n    }\n    /*\n    function canRewardAmountTest(address account, uint256 specificBlock)\n        public view\n        returns (uint256, uint256, uint256, uint256)\n    {\n        uint256 reward = 0;\n        uint256 startR = 0;\n        uint256 endR = 0;\n        uint256 blockTotalReward = 0;\n        if(specificBlock > endBlock ) specificBlock = endBlock;\n\n        if (\n            specificBlock < startBlock ||\n            userStaked[account].amount == 0 ||\n            userStaked[account].claimedBlock > endBlock ||\n            userStaked[account].claimedBlock > specificBlock\n        ) {\n            reward = 0;\n        } else {\n            startR = startBlock;\n            endR = endBlock;\n            if (startR < userStaked[account].claimedBlock)\n                startR = userStaked[account].claimedBlock;\n            if (specificBlock < endR) endR = specificBlock;\n\n            uint256[] memory orderedEndBlocks =\n                IStake1Vault(vault).orderedEndBlocksAll();\n\n            if (orderedEndBlocks.length > 0) {\n                uint256 _end = 0;\n                uint256 _start = startR;\n                uint256 _total = 0;\n                //uint256 blockTotalReward = 0;\n                blockTotalReward = IStake1Vault(vault).blockTotalReward();\n\n                address user = account;\n                uint256 amount = userStaked[user].amount;\n\n                for (uint256 i = 0; i < orderedEndBlocks.length; i++) {\n                    _end = orderedEndBlocks[i];\n                    _total = IStake1Vault(vault).stakeEndBlockTotal(_end);\n\n                    if (_start > _end) {\n\n                    } else if (endR <= _end) {\n                        reward +=\n                            (blockTotalReward *\n                                (endR - startR) * amount) /\n                            _total;\n                        break;\n                    } else {\n                        reward +=\n                            (blockTotalReward *\n                                (_end - startR) *\n                                amount) /\n                            _total;\n                        startR = _end;\n                    }\n                }\n            }\n        }\n        return (reward, startR, endR, blockTotalReward);\n    }\n    */\n}\n",
  "sourcePath": "/Users/zena/ico2.0/ico20-contracts/contracts/stake/StakeSimple.sol",
  "compiler": {
    "name": "solc",
    "version": "0.7.6+commit.7338295f.Emscripten.clang"
  },
  "schemaVersion": "3.3.4",
  "updatedAt": "2021-08-02T05:01:31.337Z",
  "devdoc": {
    "events": {
      "Claimed(address,uint256,uint256)": {
        "details": "event on claim",
        "params": {
          "amount": "the amount of claim",
          "claimBlock": "the block of claim",
          "to": "the sender"
        }
      },
      "Staked(address,uint256)": {
        "details": "event on staking",
        "params": {
          "amount": "the amount of staking",
          "to": "the sender"
        }
      },
      "Withdrawal(address,uint256)": {
        "details": "event on withdrawal",
        "params": {
          "amount": "the amount of withdrawal",
          "to": "the sender"
        }
      }
    },
    "kind": "dev",
    "methods": {
      "addAdmin(address)": {
        "details": "add admin",
        "params": {
          "account": "address to add"
        }
      },
      "canRewardAmount(address,uint256)": {
        "details": "Returns the amount that can be rewarded",
        "params": {
          "account": "the account that claimed reward",
          "specificBlock": "the block that claimed reward"
        },
        "returns": {
          "_0": "reward the reward amount that can be taken"
        }
      },
      "claim()": {
        "details": "Claim for reward"
      },
      "constructor": {
        "details": "constructor of StakeSimple"
      },
      "getRoleAdmin(bytes32)": {
        "details": "Returns the admin role that controls `role`. See {grantRole} and {revokeRole}. To change a role's admin, use {_setRoleAdmin}."
      },
      "getRoleMember(bytes32,uint256)": {
        "details": "Returns one of the accounts that have `role`. `index` must be a value between 0 and {getRoleMemberCount}, non-inclusive. Role bearers are not sorted in any particular way, and their ordering may change at any point. WARNING: When using {getRoleMember} and {getRoleMemberCount}, make sure you perform all queries on the same block. See the following https://forum.openzeppelin.com/t/iterating-over-elements-on-enumerableset-in-openzeppelin-contracts/2296[forum post] for more information."
      },
      "getRoleMemberCount(bytes32)": {
        "details": "Returns the number of accounts that have `role`. Can be used together with {getRoleMember} to enumerate all bearers of a role."
      },
      "getUserStaked(address)": {
        "details": "user's staked information"
      },
      "grantRole(bytes32,address)": {
        "details": "Grants `role` to `account`. If `account` had not been already granted `role`, emits a {RoleGranted} event. Requirements: - the caller must have ``role``'s admin role."
      },
      "hasRole(bytes32,address)": {
        "details": "Returns `true` if `account` has been granted `role`."
      },
      "infos()": {
        "details": "Give the infomation of this stakeContracts",
        "returns": {
          "_0": "paytoken, vault, [saleStartBlock, startBlock, endBlock], rewardClaimedTotal, totalStakedAmount, totalStakers"
        }
      },
      "isAdmin(address)": {
        "details": "whether admin",
        "params": {
          "account": "address to check"
        }
      },
      "removeAdmin(address)": {
        "details": "remove admin",
        "params": {
          "account": "address to remove"
        }
      },
      "renounceRole(bytes32,address)": {
        "details": "Revokes `role` from the calling account. Roles are often managed via {grantRole} and {revokeRole}: this function's purpose is to provide a mechanism for accounts to lose their privileges if they are compromised (such as when a trusted device is misplaced). If the calling account had been granted `role`, emits a {RoleRevoked} event. Requirements: - the caller must be `account`."
      },
      "revokeRole(bytes32,address)": {
        "details": "Revokes `role` from `account`. If `account` had been granted `role`, emits a {RoleRevoked} event. Requirements: - the caller must have ``role``'s admin role."
      },
      "stake(uint256)": {
        "details": "Stake amount",
        "params": {
          "amount": "the amount of staked"
        }
      },
      "transferAdmin(address)": {
        "details": "transfer admin",
        "params": {
          "newAdmin": "new admin address"
        }
      },
      "withdraw()": {
        "details": "withdraw"
      }
    },
    "title": "Simple Stake Contract",
    "version": 1
  },
  "userdoc": {
    "kind": "user",
    "methods": {},
    "notice": "Stake contracts can interact with the vault to claim tos tokens",
    "version": 1
  }
}