{
  "contractName": "StakeYearnStorage",
  "abi": [
    {
      "inputs": [],
      "name": "endBlock",
      "outputs": [
        {
          "internalType": "uint256",
          "name": "",
          "type": "uint256"
        }
      ],
      "stateMutability": "view",
      "type": "function"
    },
    {
      "inputs": [],
      "name": "paytoken",
      "outputs": [
        {
          "internalType": "address",
          "name": "",
          "type": "address"
        }
      ],
      "stateMutability": "view",
      "type": "function"
    },
    {
      "inputs": [],
      "name": "rewardClaimedTotal",
      "outputs": [
        {
          "internalType": "uint256",
          "name": "",
          "type": "uint256"
        }
      ],
      "stateMutability": "view",
      "type": "function"
    },
    {
      "inputs": [],
      "name": "saleStartBlock",
      "outputs": [
        {
          "internalType": "uint256",
          "name": "",
          "type": "uint256"
        }
      ],
      "stateMutability": "view",
      "type": "function"
    },
    {
      "inputs": [],
      "name": "stakeRegistry",
      "outputs": [
        {
          "internalType": "address",
          "name": "",
          "type": "address"
        }
      ],
      "stateMutability": "view",
      "type": "function"
    },
    {
      "inputs": [],
      "name": "startBlock",
      "outputs": [
        {
          "internalType": "uint256",
          "name": "",
          "type": "uint256"
        }
      ],
      "stateMutability": "view",
      "type": "function"
    },
    {
      "inputs": [],
      "name": "token",
      "outputs": [
        {
          "internalType": "address",
          "name": "",
          "type": "address"
        }
      ],
      "stateMutability": "view",
      "type": "function"
    },
    {
      "inputs": [],
      "name": "totalStakedAmount",
      "outputs": [
        {
          "internalType": "uint256",
          "name": "",
          "type": "uint256"
        }
      ],
      "stateMutability": "view",
      "type": "function"
    },
    {
      "inputs": [],
      "name": "totalStakers",
      "outputs": [
        {
          "internalType": "uint256",
          "name": "",
          "type": "uint256"
        }
      ],
      "stateMutability": "view",
      "type": "function"
    },
    {
      "inputs": [
        {
          "internalType": "address",
          "name": "",
          "type": "address"
        }
      ],
      "name": "userStaked",
      "outputs": [
        {
          "internalType": "uint256",
          "name": "amount",
          "type": "uint256"
        },
        {
          "internalType": "uint256",
          "name": "claimedBlock",
          "type": "uint256"
        },
        {
          "internalType": "uint256",
          "name": "claimedAmount",
          "type": "uint256"
        },
        {
          "internalType": "uint256",
          "name": "releasedBlock",
          "type": "uint256"
        },
        {
          "internalType": "uint256",
          "name": "releasedAmount",
          "type": "uint256"
        },
        {
          "internalType": "uint256",
          "name": "releasedFLDAmount",
          "type": "uint256"
        },
        {
          "internalType": "bool",
          "name": "released",
          "type": "bool"
        }
      ],
      "stateMutability": "view",
      "type": "function"
    },
    {
      "inputs": [],
      "name": "vault",
      "outputs": [
        {
          "internalType": "address",
          "name": "",
          "type": "address"
        }
      ],
      "stateMutability": "view",
      "type": "function"
    },
    {
      "inputs": [],
      "name": "yearnV2Vault",
      "outputs": [
        {
          "internalType": "address",
          "name": "",
          "type": "address"
        }
      ],
      "stateMutability": "view",
      "type": "function"
    }
  ],
  "bytecode": "0x608060405234801561001057600080fd5b50610284806100206000396000f3fe608060405234801561001057600080fd5b50600436106100b45760003560e01c806386989038116100715780638698903814610117578063a2095f291461011f578063acc3a93914610127578063b2d4d6a314610187578063fbfa77cf1461018f578063fc0c546a14610197576100b4565b8063083c6323146100b957806320027275146100d357806343b0934a146100db57806348cd4cb1146100ff578063567e98f914610107578063683048351461010f575b600080fd5b6100c161019f565b60408051918252519081900360200190f35b6100c16101a5565b6100e36101ab565b604080516001600160a01b039092168252519081900360200190f35b6100c16101ba565b6100c16101c0565b6100e36101c6565b6100c16101d5565b6100e36101db565b61014d6004803603602081101561013d57600080fd5b50356001600160a01b03166101ea565b604080519788526020880196909652868601949094526060860192909252608085015260a0840152151560c0830152519081900360e00190f35b6100c161022a565b6100e3610230565b6100e361023f565b60065481565b60045481565b6002546001600160a01b031681565b60055481565b60085481565b6001546001600160a01b031681565b600a5481565b600c546001600160a01b031681565b6009602052600090815260409020805460018201546002830154600384015460048501546005860154600690960154949593949293919290919060ff1687565b60075481565b6003546001600160a01b031681565b6000546001600160a01b03168156fea2646970667358221220f29d7eec79d53afc11720f44de893ef5a423a0a876a2bd351d5377ed520b7d0e64736f6c63430007060033",
  "immutableReferences": {},
  "source": "//SPDX-License-Identifier: Unlicense\npragma solidity ^0.7.6;\n\nimport \"./Stake1Storage.sol\";\n\ncontract StakeYearnStorage is Stake1Storage {\n    address public yearnV2Vault;\n}\n",
  "sourcePath": "/Users/zena/ico2.0/ico20-contracts/contracts/stake/StakeYearnStorage.sol",
  "compiler": {
    "name": "solc",
    "version": "0.7.6+commit.7338295f.Emscripten.clang"
  },
  "schemaVersion": "3.3.4",
  "updatedAt": "2021-06-01T01:21:23.699Z",
  "devdoc": {
    "kind": "dev",
    "methods": {},
    "version": 1
  },
  "userdoc": {
    "kind": "user",
    "methods": {
      "endBlock()": {
        "notice": "the staking end block."
      },
      "paytoken()": {
        "notice": "paytoken is the token that the user stakes. ( if paytoken is ether, paytoken is address(0) )"
      },
      "rewardClaimedTotal()": {
        "notice": "the total amount claimed"
      },
      "saleStartBlock()": {
        "notice": "the start block for sale."
      },
      "stakeRegistry()": {
        "notice": "registry"
      },
      "startBlock()": {
        "notice": "the staking start block, once staking starts, users can no longer apply for staking."
      },
      "token()": {
        "notice": "reward token : FLD"
      },
      "totalStakedAmount()": {
        "notice": "the total staked amount"
      },
      "totalStakers()": {
        "notice": "total stakers"
      },
      "userStaked(address)": {
        "notice": "information staked by user"
      },
      "vault()": {
        "notice": "A vault that holds fld rewards."
      }
    },
    "version": 1
  }
}