{
  "contractName": "StakeTON",
  "abi": [
    {
      "inputs": [],
      "stateMutability": "nonpayable",
      "type": "constructor"
    },
    {
      "anonymous": false,
      "inputs": [
        {
          "indexed": true,
          "internalType": "address",
          "name": "to",
          "type": "address"
        },
        {
          "indexed": false,
          "internalType": "uint256",
          "name": "amount",
          "type": "uint256"
        },
        {
          "indexed": false,
          "internalType": "uint256",
          "name": "claimBlock",
          "type": "uint256"
        }
      ],
      "name": "Claimed",
      "type": "event"
    },
    {
      "anonymous": false,
      "inputs": [
        {
          "indexed": false,
          "internalType": "address",
          "name": "caller",
          "type": "address"
        },
        {
          "indexed": false,
          "internalType": "uint256",
          "name": "amountIn",
          "type": "uint256"
        },
        {
          "indexed": false,
          "internalType": "uint256",
          "name": "amountOut",
          "type": "uint256"
        }
      ],
      "name": "ExchangedWTONtoTOS",
      "type": "event"
    },
    {
      "anonymous": false,
      "inputs": [
        {
          "indexed": false,
          "internalType": "address",
          "name": "caller",
          "type": "address"
        },
        {
          "indexed": false,
          "internalType": "uint256",
          "name": "amountIn",
          "type": "uint256"
        },
        {
          "indexed": false,
          "internalType": "uint256",
          "name": "amountOut",
          "type": "uint256"
        }
      ],
      "name": "ExchangedWTONtoTOS2",
      "type": "event"
    },
    {
      "anonymous": false,
      "inputs": [
        {
          "indexed": true,
          "internalType": "bytes32",
          "name": "role",
          "type": "bytes32"
        },
        {
          "indexed": true,
          "internalType": "bytes32",
          "name": "previousAdminRole",
          "type": "bytes32"
        },
        {
          "indexed": true,
          "internalType": "bytes32",
          "name": "newAdminRole",
          "type": "bytes32"
        }
      ],
      "name": "RoleAdminChanged",
      "type": "event"
    },
    {
      "anonymous": false,
      "inputs": [
        {
          "indexed": true,
          "internalType": "bytes32",
          "name": "role",
          "type": "bytes32"
        },
        {
          "indexed": true,
          "internalType": "address",
          "name": "account",
          "type": "address"
        },
        {
          "indexed": true,
          "internalType": "address",
          "name": "sender",
          "type": "address"
        }
      ],
      "name": "RoleGranted",
      "type": "event"
    },
    {
      "anonymous": false,
      "inputs": [
        {
          "indexed": true,
          "internalType": "bytes32",
          "name": "role",
          "type": "bytes32"
        },
        {
          "indexed": true,
          "internalType": "address",
          "name": "account",
          "type": "address"
        },
        {
          "indexed": true,
          "internalType": "address",
          "name": "sender",
          "type": "address"
        }
      ],
      "name": "RoleRevoked",
      "type": "event"
    },
    {
      "anonymous": false,
      "inputs": [
        {
          "indexed": false,
          "internalType": "address",
          "name": "registry",
          "type": "address"
        }
      ],
      "name": "SetRegistry",
      "type": "event"
    },
    {
      "anonymous": false,
      "inputs": [
        {
          "indexed": false,
          "internalType": "address",
          "name": "layer2",
          "type": "address"
        }
      ],
      "name": "SetTokamakLayer2",
      "type": "event"
    },
    {
      "anonymous": false,
      "inputs": [
        {
          "indexed": true,
          "internalType": "address",
          "name": "to",
          "type": "address"
        },
        {
          "indexed": false,
          "internalType": "uint256",
          "name": "amount",
          "type": "uint256"
        }
      ],
      "name": "Staked",
      "type": "event"
    },
    {
      "anonymous": false,
      "inputs": [
        {
          "indexed": false,
          "internalType": "address",
          "name": "layer2",
          "type": "address"
        },
        {
          "indexed": false,
          "internalType": "uint256",
          "name": "rn",
          "type": "uint256"
        },
        {
          "indexed": false,
          "internalType": "bool",
          "name": "receiveTON",
          "type": "bool"
        }
      ],
      "name": "TokamakProcessedUnStaking",
      "type": "event"
    },
    {
      "anonymous": false,
      "inputs": [
        {
          "indexed": false,
          "internalType": "address",
          "name": "layer2",
          "type": "address"
        },
        {
          "indexed": false,
          "internalType": "uint256",
          "name": "amount",
          "type": "uint256"
        }
      ],
      "name": "TokamakRequestedUnStaking",
      "type": "event"
    },
    {
      "anonymous": false,
      "inputs": [
        {
          "indexed": false,
          "internalType": "address",
          "name": "layer2",
          "type": "address"
        }
      ],
      "name": "TokamakRequestedUnStakingAll",
      "type": "event"
    },
    {
      "anonymous": false,
      "inputs": [
        {
          "indexed": false,
          "internalType": "address",
          "name": "layer2",
          "type": "address"
        },
        {
          "indexed": false,
          "internalType": "uint256",
          "name": "amount",
          "type": "uint256"
        }
      ],
      "name": "TokamakStaked",
      "type": "event"
    },
    {
      "anonymous": false,
      "inputs": [
        {
          "indexed": true,
          "internalType": "address",
          "name": "to",
          "type": "address"
        },
        {
          "indexed": false,
          "internalType": "uint256",
          "name": "tonAmount",
          "type": "uint256"
        },
        {
          "indexed": false,
          "internalType": "uint256",
          "name": "tosAmount",
          "type": "uint256"
        }
      ],
      "name": "Withdrawal",
      "type": "event"
    },
    {
      "inputs": [],
      "name": "ADMIN_ROLE",
      "outputs": [
        {
          "internalType": "bytes32",
          "name": "",
          "type": "bytes32"
        }
      ],
      "stateMutability": "view",
      "type": "function"
    },
    {
      "inputs": [],
      "name": "BURNER_ROLE",
      "outputs": [
        {
          "internalType": "bytes32",
          "name": "",
          "type": "bytes32"
        }
      ],
      "stateMutability": "view",
      "type": "function"
    },
    {
      "inputs": [],
      "name": "DEFAULT_ADMIN_ROLE",
      "outputs": [
        {
          "internalType": "bytes32",
          "name": "",
          "type": "bytes32"
        }
      ],
      "stateMutability": "view",
      "type": "function"
    },
    {
      "inputs": [],
      "name": "MINTER_ROLE",
      "outputs": [
        {
          "internalType": "bytes32",
          "name": "",
          "type": "bytes32"
        }
      ],
      "stateMutability": "view",
      "type": "function"
    },
    {
      "inputs": [
        {
          "internalType": "address",
          "name": "account",
          "type": "address"
        }
      ],
      "name": "addAdmin",
      "outputs": [],
      "stateMutability": "nonpayable",
      "type": "function"
    },
    {
      "inputs": [],
      "name": "checkTokamak",
      "outputs": [],
      "stateMutability": "nonpayable",
      "type": "function"
    },
    {
      "inputs": [],
      "name": "defiAddr",
      "outputs": [
        {
          "internalType": "address",
          "name": "",
          "type": "address"
        }
      ],
      "stateMutability": "view",
      "type": "function"
    },
    {
      "inputs": [],
      "name": "defiStatus",
      "outputs": [
        {
          "internalType": "uint256",
          "name": "",
          "type": "uint256"
        }
      ],
      "stateMutability": "view",
      "type": "function"
    },
    {
      "inputs": [],
      "name": "depositManager",
      "outputs": [
        {
          "internalType": "address",
          "name": "",
          "type": "address"
        }
      ],
      "stateMutability": "view",
      "type": "function"
    },
    {
      "inputs": [],
      "name": "endBlock",
      "outputs": [
        {
          "internalType": "uint256",
          "name": "",
          "type": "uint256"
        }
      ],
      "stateMutability": "view",
      "type": "function"
    },
    {
      "inputs": [
        {
          "internalType": "uint256",
          "name": "_amountIn",
          "type": "uint256"
        },
        {
          "internalType": "uint256",
          "name": "_amountOutMinimum",
          "type": "uint256"
        },
        {
          "internalType": "uint256",
          "name": "_deadline",
          "type": "uint256"
        },
        {
          "internalType": "uint160",
          "name": "_sqrtPriceLimitX96",
          "type": "uint160"
        },
        {
          "internalType": "uint256",
          "name": "_kind",
          "type": "uint256"
        }
      ],
      "name": "exchangeWTONtoTOS",
      "outputs": [
        {
          "internalType": "uint256",
          "name": "amountOut",
          "type": "uint256"
        }
      ],
      "stateMutability": "nonpayable",
      "type": "function"
    },
    {
      "inputs": [],
      "name": "finalBalanceTON",
      "outputs": [
        {
          "internalType": "uint256",
          "name": "",
          "type": "uint256"
        }
      ],
      "stateMutability": "view",
      "type": "function"
    },
    {
      "inputs": [],
      "name": "finalBalanceWTON",
      "outputs": [
        {
          "internalType": "uint256",
          "name": "",
          "type": "uint256"
        }
      ],
      "stateMutability": "view",
      "type": "function"
    },
    {
      "inputs": [],
      "name": "fromTokamak",
      "outputs": [
        {
          "internalType": "uint256",
          "name": "",
          "type": "uint256"
        }
      ],
      "stateMutability": "view",
      "type": "function"
    },
    {
      "inputs": [
        {
          "internalType": "bytes32",
          "name": "role",
          "type": "bytes32"
        }
      ],
      "name": "getRoleAdmin",
      "outputs": [
        {
          "internalType": "bytes32",
          "name": "",
          "type": "bytes32"
        }
      ],
      "stateMutability": "view",
      "type": "function"
    },
    {
      "inputs": [
        {
          "internalType": "bytes32",
          "name": "role",
          "type": "bytes32"
        },
        {
          "internalType": "uint256",
          "name": "index",
          "type": "uint256"
        }
      ],
      "name": "getRoleMember",
      "outputs": [
        {
          "internalType": "address",
          "name": "",
          "type": "address"
        }
      ],
      "stateMutability": "view",
      "type": "function"
    },
    {
      "inputs": [
        {
          "internalType": "bytes32",
          "name": "role",
          "type": "bytes32"
        }
      ],
      "name": "getRoleMemberCount",
      "outputs": [
        {
          "internalType": "uint256",
          "name": "",
          "type": "uint256"
        }
      ],
      "stateMutability": "view",
      "type": "function"
    },
    {
      "inputs": [],
      "name": "getUniswapInfo",
      "outputs": [
        {
          "internalType": "address",
          "name": "uniswapRouter",
          "type": "address"
        },
        {
          "internalType": "address",
          "name": "npm",
          "type": "address"
        },
        {
          "internalType": "address",
          "name": "ext",
          "type": "address"
        },
        {
          "internalType": "uint256",
          "name": "fee",
          "type": "uint256"
        },
        {
          "internalType": "address",
          "name": "uniswapRouterV2",
          "type": "address"
        }
      ],
      "stateMutability": "view",
      "type": "function"
    },
    {
      "inputs": [
        {
          "internalType": "address",
          "name": "user",
          "type": "address"
        }
      ],
      "name": "getUserStaked",
      "outputs": [
        {
          "internalType": "uint256",
          "name": "amount",
          "type": "uint256"
        },
        {
          "internalType": "uint256",
          "name": "claimedBlock",
          "type": "uint256"
        },
        {
          "internalType": "uint256",
          "name": "claimedAmount",
          "type": "uint256"
        },
        {
          "internalType": "uint256",
          "name": "releasedBlock",
          "type": "uint256"
        },
        {
          "internalType": "uint256",
          "name": "releasedAmount",
          "type": "uint256"
        },
        {
          "internalType": "uint256",
          "name": "releasedTOSAmount",
          "type": "uint256"
        },
        {
          "internalType": "bool",
          "name": "released",
          "type": "bool"
        }
      ],
      "stateMutability": "view",
      "type": "function"
    },
    {
      "inputs": [
        {
          "internalType": "bytes32",
          "name": "role",
          "type": "bytes32"
        },
        {
          "internalType": "address",
          "name": "account",
          "type": "address"
        }
      ],
      "name": "grantRole",
      "outputs": [],
      "stateMutability": "nonpayable",
      "type": "function"
    },
    {
      "inputs": [
        {
          "internalType": "bytes32",
          "name": "role",
          "type": "bytes32"
        },
        {
          "internalType": "address",
          "name": "account",
          "type": "address"
        }
      ],
      "name": "hasRole",
      "outputs": [
        {
          "internalType": "bool",
          "name": "",
          "type": "bool"
        }
      ],
      "stateMutability": "view",
      "type": "function"
    },
    {
      "inputs": [],
      "name": "infos",
      "outputs": [
        {
          "internalType": "address",
          "name": "",
          "type": "address"
        },
        {
          "internalType": "address",
          "name": "",
          "type": "address"
        },
        {
          "internalType": "uint256[3]",
          "name": "",
          "type": "uint256[3]"
        },
        {
          "internalType": "uint256",
          "name": "",
          "type": "uint256"
        },
        {
          "internalType": "uint256",
          "name": "",
          "type": "uint256"
        },
        {
          "internalType": "uint256",
          "name": "",
          "type": "uint256"
        }
      ],
      "stateMutability": "view",
      "type": "function"
    },
    {
      "inputs": [
        {
          "internalType": "address",
          "name": "account",
          "type": "address"
        }
      ],
      "name": "isAdmin",
      "outputs": [
        {
          "internalType": "bool",
          "name": "",
          "type": "bool"
        }
      ],
      "stateMutability": "view",
      "type": "function"
    },
    {
      "inputs": [],
      "name": "migratedL2",
      "outputs": [
        {
          "internalType": "bool",
          "name": "",
          "type": "bool"
        }
      ],
      "stateMutability": "view",
      "type": "function"
    },
    {
      "inputs": [],
      "name": "pauseProxy",
      "outputs": [
        {
          "internalType": "bool",
          "name": "",
          "type": "bool"
        }
      ],
      "stateMutability": "view",
      "type": "function"
    },
    {
      "inputs": [],
      "name": "paytoken",
      "outputs": [
        {
          "internalType": "address",
          "name": "",
          "type": "address"
        }
      ],
      "stateMutability": "view",
      "type": "function"
    },
    {
      "inputs": [
        {
          "internalType": "address",
          "name": "account",
          "type": "address"
        }
      ],
      "name": "removeAdmin",
      "outputs": [],
      "stateMutability": "nonpayable",
      "type": "function"
    },
    {
      "inputs": [
        {
          "internalType": "bytes32",
          "name": "role",
          "type": "bytes32"
        },
        {
          "internalType": "address",
          "name": "account",
          "type": "address"
        }
      ],
      "name": "renounceRole",
      "outputs": [],
      "stateMutability": "nonpayable",
      "type": "function"
    },
    {
      "inputs": [],
      "name": "requestNum",
      "outputs": [
        {
          "internalType": "uint256",
          "name": "",
          "type": "uint256"
        }
      ],
      "stateMutability": "view",
      "type": "function"
    },
    {
      "inputs": [
        {
          "internalType": "bytes32",
          "name": "role",
          "type": "bytes32"
        },
        {
          "internalType": "address",
          "name": "account",
          "type": "address"
        }
      ],
      "name": "revokeRole",
      "outputs": [],
      "stateMutability": "nonpayable",
      "type": "function"
    },
    {
      "inputs": [],
      "name": "rewardClaimedTotal",
      "outputs": [
        {
          "internalType": "uint256",
          "name": "",
          "type": "uint256"
        }
      ],
      "stateMutability": "view",
      "type": "function"
    },
    {
      "inputs": [],
      "name": "saleStartBlock",
      "outputs": [
        {
          "internalType": "uint256",
          "name": "",
          "type": "uint256"
        }
      ],
      "stateMutability": "view",
      "type": "function"
    },
    {
      "inputs": [],
      "name": "seigManager",
      "outputs": [
        {
          "internalType": "address",
          "name": "",
          "type": "address"
        }
      ],
      "stateMutability": "view",
      "type": "function"
    },
    {
      "inputs": [
        {
          "internalType": "address",
          "name": "_registry",
          "type": "address"
        }
      ],
      "name": "setRegistry",
      "outputs": [],
      "stateMutability": "nonpayable",
      "type": "function"
    },
    {
      "inputs": [
        {
          "internalType": "address",
          "name": "_layer2",
          "type": "address"
        }
      ],
      "name": "setTokamakLayer2",
      "outputs": [],
      "stateMutability": "nonpayable",
      "type": "function"
    },
    {
      "inputs": [],
      "name": "stakeRegistry",
      "outputs": [
        {
          "internalType": "address",
          "name": "",
          "type": "address"
        }
      ],
      "stateMutability": "view",
      "type": "function"
    },
    {
      "inputs": [],
      "name": "startBlock",
      "outputs": [
        {
          "internalType": "uint256",
          "name": "",
          "type": "uint256"
        }
      ],
      "stateMutability": "view",
      "type": "function"
    },
    {
      "inputs": [],
      "name": "swapProxy",
      "outputs": [
        {
          "internalType": "address",
          "name": "",
          "type": "address"
        }
      ],
      "stateMutability": "view",
      "type": "function"
    },
    {
      "inputs": [
        {
          "internalType": "uint256",
          "name": "amount",
          "type": "uint256"
        },
        {
          "internalType": "bool",
          "name": "toWTON",
          "type": "bool"
        }
      ],
      "name": "swapTONtoWTON",
      "outputs": [],
      "stateMutability": "nonpayable",
      "type": "function"
    },
    {
      "inputs": [],
      "name": "swappedAmountTOS",
      "outputs": [
        {
          "internalType": "uint256",
          "name": "",
          "type": "uint256"
        }
      ],
      "stateMutability": "view",
      "type": "function"
    },
    {
      "inputs": [],
      "name": "toTokamak",
      "outputs": [
        {
          "internalType": "uint256",
          "name": "",
          "type": "uint256"
        }
      ],
      "stateMutability": "view",
      "type": "function"
    },
    {
      "inputs": [],
      "name": "toUniswapWTON",
      "outputs": [
        {
          "internalType": "uint256",
          "name": "",
          "type": "uint256"
        }
      ],
      "stateMutability": "view",
      "type": "function"
    },
    {
      "inputs": [],
      "name": "tokamakLayer2",
      "outputs": [
        {
          "internalType": "address",
          "name": "",
          "type": "address"
        }
      ],
      "stateMutability": "view",
      "type": "function"
    },
    {
      "inputs": [
        {
          "internalType": "address",
          "name": "_layer2",
          "type": "address"
        }
      ],
      "name": "tokamakProcessUnStaking",
      "outputs": [],
      "stateMutability": "nonpayable",
      "type": "function"
    },
    {
      "inputs": [
        {
          "internalType": "address",
          "name": "_layer2",
          "type": "address"
        },
        {
          "internalType": "uint256",
          "name": "wtonAmount",
          "type": "uint256"
        }
      ],
      "name": "tokamakRequestUnStaking",
      "outputs": [],
      "stateMutability": "nonpayable",
      "type": "function"
    },
    {
      "inputs": [
        {
          "internalType": "address",
          "name": "_layer2",
          "type": "address"
        }
      ],
      "name": "tokamakRequestUnStakingAll",
      "outputs": [],
      "stateMutability": "nonpayable",
      "type": "function"
    },
    {
      "inputs": [
        {
          "internalType": "address",
          "name": "_layer2",
          "type": "address"
        },
        {
          "internalType": "uint256",
          "name": "stakeAmount",
          "type": "uint256"
        }
      ],
      "name": "tokamakStaking",
      "outputs": [],
      "stateMutability": "nonpayable",
      "type": "function"
    },
    {
      "inputs": [],
      "name": "token",
      "outputs": [
        {
          "internalType": "address",
          "name": "",
          "type": "address"
        }
      ],
      "stateMutability": "view",
      "type": "function"
    },
    {
      "inputs": [],
      "name": "ton",
      "outputs": [
        {
          "internalType": "address",
          "name": "",
          "type": "address"
        }
      ],
      "stateMutability": "view",
      "type": "function"
    },
    {
      "inputs": [],
      "name": "totalStakedAmount",
      "outputs": [
        {
          "internalType": "uint256",
          "name": "",
          "type": "uint256"
        }
      ],
      "stateMutability": "view",
      "type": "function"
    },
    {
      "inputs": [],
      "name": "totalStakers",
      "outputs": [
        {
          "internalType": "uint256",
          "name": "",
          "type": "uint256"
        }
      ],
      "stateMutability": "view",
      "type": "function"
    },
    {
      "inputs": [
        {
          "internalType": "address",
          "name": "newAdmin",
          "type": "address"
        }
      ],
      "name": "transferAdmin",
      "outputs": [],
      "stateMutability": "nonpayable",
      "type": "function"
    },
    {
      "inputs": [
        {
          "internalType": "address",
          "name": "",
          "type": "address"
        }
      ],
      "name": "userStaked",
      "outputs": [
        {
          "internalType": "uint256",
          "name": "amount",
          "type": "uint256"
        },
        {
          "internalType": "uint256",
          "name": "claimedBlock",
          "type": "uint256"
        },
        {
          "internalType": "uint256",
          "name": "claimedAmount",
          "type": "uint256"
        },
        {
          "internalType": "uint256",
          "name": "releasedBlock",
          "type": "uint256"
        },
        {
          "internalType": "uint256",
          "name": "releasedAmount",
          "type": "uint256"
        },
        {
          "internalType": "uint256",
          "name": "releasedTOSAmount",
          "type": "uint256"
        },
        {
          "internalType": "bool",
          "name": "released",
          "type": "bool"
        }
      ],
      "stateMutability": "view",
      "type": "function"
    },
    {
      "inputs": [],
      "name": "vault",
      "outputs": [
        {
          "internalType": "address",
          "name": "",
          "type": "address"
        }
      ],
      "stateMutability": "view",
      "type": "function"
    },
    {
      "inputs": [],
      "name": "withdrawFlag",
      "outputs": [
        {
          "internalType": "bool",
          "name": "",
          "type": "bool"
        }
      ],
      "stateMutability": "view",
      "type": "function"
    },
    {
      "inputs": [],
      "name": "wton",
      "outputs": [
        {
          "internalType": "address",
          "name": "",
          "type": "address"
        }
      ],
      "stateMutability": "view",
      "type": "function"
    },
    {
      "stateMutability": "payable",
      "type": "receive"
    },
    {
      "inputs": [],
      "name": "withdraw",
      "outputs": [],
      "stateMutability": "nonpayable",
      "type": "function"
    },
    {
      "inputs": [],
      "name": "claim",
      "outputs": [],
      "stateMutability": "nonpayable",
      "type": "function"
    },
    {
      "inputs": [
        {
          "internalType": "address",
          "name": "account",
          "type": "address"
        },
        {
          "internalType": "uint256",
          "name": "specificBlock",
          "type": "uint256"
        }
      ],
      "name": "canRewardAmount",
      "outputs": [
        {
          "internalType": "uint256",
          "name": "",
          "type": "uint256"
        }
      ],
      "stateMutability": "view",
      "type": "function"
    }
  ],
  "bytecode": "0x608060405234801561001057600080fd5b50615479806100206000396000f3fe6080604052600436106103105760003560e01c806375829def1161019c578063b2d4d6a3116100e2578063e09974b911610090578063e09974b9146108a8578063e58e2747146108bd578063e6a7bc87146108d2578063f0cdfa53146108e7578063fbfa77cf14610907578063fc0c546a1461091c578063fd7fa46014610931578063ff7587881461094657610336565b8063b2d4d6a3146107e9578063ca15c873146107fe578063cc48b9471461081e578063ce681ce614610833578063d539139314610853578063d547741f14610868578063dac3fc3f1461088857610336565b806392ea3b4c1161014a57806392ea3b4c146106fb5780639a88be2f146107105780639d84ca3514610737578063a1f5f50e1461074c578063a217fddf14610761578063a6e8670e14610776578063a91ee0dc14610796578063acc3a939146107b657610336565b806375829def1461063c57806375b238fc1461065c5780637df3f40c1461067157806386989038146106915780638d62d949146106a65780639010d07c146106bb57806391d14854146106db57610336565b806343b0934a116102615780636c7ac9d81161020f5780636c7ac9d8146105735780636e7cf534146105885780636ec4be901461059d5780636fb7f558146105b257806370480275146105c757806371def0b3146105e75780637228532614610607578063730464a91461061c57610336565b806343b0934a146104c857806348cd4cb1146104ea5780634e71d92d146104ff578063567e98f91461051457806363a8fd891461052957806367cf3e181461053e578063683048351461055e57610336565b8063248a9ca3116102be578063248a9ca3146103fc57806324d7806c1461041c578063282c51f3146104495780632995fa0e1461045e5780632f2ff15d1461047357806336568abe146104935780633ccfd60b146104b357610336565b806305871b781461033b578063065c431314610366578063083c6323146103885780630ac8e0f31461039d5780630ea3d9c9146103b25780631785f53c146103c757806320027275146103e757610336565b366103365760405162461bcd60e51b815260040161032d90615160565b60405180910390fd5b600080fd5b34801561034757600080fd5b5061035061096c565b60405161035d9190614799565b60405180910390f35b34801561037257600080fd5b506103866103813660046143bd565b610972565b005b34801561039457600080fd5b50610350610efc565b3480156103a957600080fd5b50610350610f02565b3480156103be57600080fd5b50610350610f08565b3480156103d357600080fd5b506103866103e23660046142d1565b610f0e565b3480156103f357600080fd5b50610350610f6d565b34801561040857600080fd5b506103506104173660046144b2565b610f73565b34801561042857600080fd5b5061043c6104373660046142d1565b610f88565b60405161035d919061478e565b34801561045557600080fd5b50610350610fa8565b34801561046a57600080fd5b50610386610fcc565b34801561047f57600080fd5b5061038661048e3660046144ca565b611151565b34801561049f57600080fd5b506103866104ae3660046144ca565b6111b8565b3480156104bf57600080fd5b50610386611219565b3480156104d457600080fd5b506104dd6119a9565b60405161035d919061463e565b3480156104f657600080fd5b506103506119b8565b34801561050b57600080fd5b506103866119be565b34801561052057600080fd5b50610350611caa565b34801561053557600080fd5b5061043c611cb0565b34801561054a57600080fd5b506103506105593660046143bd565b611cb9565b34801561056a57600080fd5b506104dd61200f565b34801561057f57600080fd5b506104dd61201e565b34801561059457600080fd5b5061043c61202d565b3480156105a957600080fd5b506104dd612036565b3480156105be57600080fd5b506104dd612045565b3480156105d357600080fd5b506103866105e23660046142d1565b612054565b3480156105f357600080fd5b506103866106023660046142d1565b6120b0565b34801561061357600080fd5b506103506122b1565b34801561062857600080fd5b506103866106373660046142d1565b6122b7565b34801561064857600080fd5b506103866106573660046142d1565b612609565b34801561066857600080fd5b5061035061272a565b34801561067d57600080fd5b5061038661068c366004614532565b61273c565b34801561069d57600080fd5b50610350612a59565b3480156106b257600080fd5b506104dd612a5f565b3480156106c757600080fd5b506104dd6106d63660046144f9565b612a6e565b3480156106e757600080fd5b5061043c6106f63660046144ca565b612a86565b34801561070757600080fd5b506104dd612a9e565b34801561071c57600080fd5b50610725612aad565b60405161035d969594939291906146d6565b34801561074357600080fd5b506104dd612b03565b34801561075857600080fd5b5061043c612b17565b34801561076d57600080fd5b50610350612b27565b34801561078257600080fd5b506103866107913660046142d1565b612b2c565b3480156107a257600080fd5b506103866107b13660046142d1565b612c08565b3480156107c257600080fd5b506107d66107d13660046142d1565b612cd0565b60405161035d97969594939291906152db565b3480156107f557600080fd5b50610350612d10565b34801561080a57600080fd5b506103506108193660046144b2565b612d16565b34801561082a57600080fd5b506104dd612d2d565b34801561083f57600080fd5b5061038661084e3660046143bd565b612d3c565b34801561085f57600080fd5b50610350612fe8565b34801561087457600080fd5b506103866108833660046144ca565b61300c565b34801561089457600080fd5b506107d66108a33660046142d1565b613065565b3480156108b457600080fd5b506103506130ae565b3480156108c957600080fd5b506103506130b4565b3480156108de57600080fd5b506103506130ba565b3480156108f357600080fd5b50610350610902366004614556565b6130c0565b34801561091357600080fd5b506104dd61393a565b34801561092857600080fd5b506104dd613949565b34801561093d57600080fd5b50610350613958565b34801561095257600080fd5b5061095b61395e565b60405161035d9594939291906146a6565b60155481565b600b54156109925760405162461bcd60e51b815260040161032d90614b82565b6001600b819055546001600160a01b0316806109c05760405162461bcd60e51b815260040161032d906147a2565b826001600160a01b0381166109e75760405162461bcd60e51b815260040161032d906147a2565b600360009054906101000a90046001600160a01b03166001600160a01b031663b8c766b86040518163ffffffff1660e01b815260040160206040518083038186803b158015610a3557600080fd5b505afa158015610a49573d6000803e3d6000fd5b505050506040513d601f19601f82011682018060405250810190610a6d9190614496565b610a895760405162461bcd60e51b815260040161032d9061512d565b600654431115610aab5760405162461bcd60e51b815260040161032d9061494c565b60008311610acb5760405162461bcd60e51b815260040161032d90614f76565b6002601955610ad8610fcc565b60105460408051633761ead760e11b815290516000926001600160a01b031691636ec3d5ae916004808301926020929190829003018186803b158015610b1d57600080fd5b505afa158015610b31573d6000803e3d6000fd5b505050506040513d601f19601f82011682018060405250810190610b55919061451a565b905080600654034310610b7a5760405162461bcd60e51b815260040161032d906149b5565b6012546001600160a01b0316610baa57601280546001600160a01b0319166001600160a01b038716179055610d2f565b600f546012546040516367265c3b60e11b81526000926001600160a01b039081169263ce4cb87692610be49290911690309060040161468c565b60206040518083038186803b158015610bfc57600080fd5b505afa158015610c10573d6000803e3d6000fd5b505050506040513d601f19601f82011682018060405250810190610c34919061451a565b1180610cc75750601054601254604051632638fdf560e01b81526000926001600160a01b0390811692632638fdf592610c759290911690309060040161468c565b60206040518083038186803b158015610c8d57600080fd5b505afa158015610ca1573d6000803e3d6000fd5b505050506040513d601f19601f82011682018060405250810190610cc5919061451a565b115b15610cfe576012546001600160a01b03868116911614610cf95760405162461bcd60e51b815260040161032d90614d56565b610d2f565b6012546001600160a01b03868116911614610d2f57601280546001600160a01b0319166001600160a01b0387161790555b600d546040516370a0823160e01b815285916001600160a01b0316906370a0823190610d5f90309060040161463e565b60206040518083038186803b158015610d7757600080fd5b505afa158015610d8b573d6000803e3d6000fd5b505050506040513d601f19601f82011682018060405250810190610daf919061451a565b1015610dcd5760405162461bcd60e51b815260040161032d90614e41565b601354610dda90856139fd565b601355601054604051600091610e00916001600160a01b0390911690889060200161468c565b60408051601f1981840301815290829052600d54600e5463cae9ca5160e01b84529193506001600160a01b039081169263cae9ca5192610e489216908990869060040161475e565b602060405180830381600087803b158015610e6257600080fd5b505af1158015610e76573d6000803e3d6000fd5b505050506040513d601f19601f82011682018060405250810190610e9a9190614496565b610eb65760405162461bcd60e51b815260040161032d90614c29565b7f36f1e081b7e687a2472c2fbd52bc97993ddc788b19c74010f11e25f3c917d2dd8686604051610ee7929190614652565b60405180910390a150506000600b5550505050565b60065481565b60145481565b60165481565b610f1733610f88565b610f525760405162461bcd60e51b81526004018080602001828103825260228152602001806153826022913960400191505060405180910390fd5b610f6a6000805160206153f5833981519152826111b8565b50565b60045481565b6000908152601c602052604090206002015490565b6000610fa26000805160206153f583398151915283612a86565b92915050565b7f9667e80708b6eeeb0053fa0cca44e028ff548e2a9f029edfeac87c118b08b7c881565b600d546001600160a01b03166110cd576000806000806000600160009054906101000a90046001600160a01b03166001600160a01b031663a782ebd56040518163ffffffff1660e01b815260040160a06040518083038186803b15801561103257600080fd5b505afa158015611046573d6000803e3d6000fd5b505050506040513d601f19601f8201168201806040525081019061106a91906142ed565b600d80546001600160a01b03199081166001600160a01b0397881617909155600e805482169587169590951790945560108054851693861693909317909255600f8054841691851691909117905560118054909216921691909117905550505050505b600d546001600160a01b0316158015906110f15750600e546001600160a01b031615155b80156111075750600f546001600160a01b031615155b801561111d57506010546001600160a01b031615155b801561113357506011546001600160a01b031615155b61114f5760405162461bcd60e51b815260040161032d90614f3f565b565b6000828152601c602052604090206002015461116f906106f6613a57565b6111aa5760405162461bcd60e51b815260040180806020018281038252602f815260200180615353602f913960400191505060405180910390fd5b6111b48282613a5b565b5050565b6111c0613a57565b6001600160a01b0316816001600160a01b03161461120f5760405162461bcd60e51b815260040180806020018281038252602f815260200180615415602f913960400191505060405180910390fd5b6111b48282613ac4565b600060065411801561122c575043600654105b6112485760405162461bcd60e51b815260040161032d90615094565b600080600080600160009054906101000a90046001600160a01b03166001600160a01b031663a782ebd56040518163ffffffff1660e01b815260040160a06040518083038186803b15801561129c57600080fd5b505afa1580156112b0573d6000803e3d6000fd5b505050506040513d601f19601f820116820180604052508101906112d491906142ed565b50929650909450925090506001600160a01b038416158015906112ff57506001600160a01b03831615155b801561131357506001600160a01b03821615155b801561132757506001600160a01b03811615155b6113435760405162461bcd60e51b815260040161032d906149fe565b6012546001600160a01b031615611482576012546040516367265c3b60e11b81526001600160a01b038381169263ce4cb876926113889290911690309060040161468c565b60206040518083038186803b1580156113a057600080fd5b505afa1580156113b4573d6000803e3d6000fd5b505050506040513d601f19601f820116820180604052508101906113d8919061451a565b1580156114665750601254604051632638fdf560e01b81526001600160a01b0384811692632638fdf5926114149290911690309060040161468c565b60206040518083038186803b15801561142c57600080fd5b505afa158015611440573d6000803e3d6000fd5b505050506040513d601f19601f82011682018060405250810190611464919061451a565b155b6114825760405162461bcd60e51b815260040161032d90614bb0565b336000908152600960205260409020600681015460ff16156114b65760405162461bcd60e51b815260040161032d90614810565b601b5460ff166116a557601b805460ff191660011790556002546001600160a01b0390811690861614156116a5576000546040516370a0823160e01b81526001600160a01b03909116906370a082319061151490309060040161463e565b60206040518083038186803b15801561152c57600080fd5b505afa158015611540573d6000803e3d6000fd5b505050506040513d601f19601f82011682018060405250810190611564919061451a565b6016556040516370a0823160e01b81526001600160a01b038516906370a082319061159390309060040161463e565b60206040518083038186803b1580156115ab57600080fd5b505afa1580156115bf573d6000803e3d6000fd5b505050506040513d601f19601f820116820180604052508101906115e3919061451a565b6018556040516370a0823160e01b81526001600160a01b038616906370a082319061161290309060040161463e565b60206040518083038186803b15801561162a57600080fd5b505afa15801561163e573d6000803e3d6000fd5b505050506040513d601f19601f82011682018060405250810190611662919061451a565b601781905560085460185490916116879161168190633b9aca00613b2d565b906139fd565b10156116a55760405162461bcd60e51b815260040161032d90614bf2565b8054806116c45760405162461bcd60e51b815260040161032d90614e11565b43600383015560068201805460ff191660011790556002546001600160a01b0390811690871614156117b55760008060008060175411156117235761172060085461171a86601754613b6f90919063ffffffff16565b90613b2d565b92505b601854156117495761174660085461171a86601854613b6f90919063ffffffff16565b91505b6016541561176f5761176c60085461171a86601654613b6f90919063ffffffff16565b90505b6005850181905581156117985761178e8361168184633b9aca00613b2d565b60048601556117a0565b600485018390555b6117ad8989858585613bc8565b50505061195f565b6002546001600160a01b03166118955780826004015411156117e95760405162461bcd60e51b815260040161032d90614e11565b600482018190553080318211156118125760405162461bcd60e51b815260040161032d90614fb7565b6000336001600160a01b03168360405161182b9061463b565b60006040518083038185875af1925050503d8060008114611868576040519150601f19603f3d011682016040523d82523d6000602084013e61186d565b606091505b505090508061188e5760405162461bcd60e51b815260040161032d90614ce8565b505061195f565b80826004015411156118b95760405162461bcd60e51b815260040161032d90614e11565b600480830182905560025460405163a9059cbb60e01b81526001600160a01b039091169163a9059cbb916118f1913391869101614652565b602060405180830381600087803b15801561190b57600080fd5b505af115801561191f573d6000803e3d6000fd5b505050506040513d601f19601f820116820180604052508101906119439190614496565b61195f5760405162461bcd60e51b815260040161032d9061491b565b6004820154600583015460405133927fdf273cb619d95419a9cd0ec88123a0538c85064229baa6363788f743fff90deb92611999926152cd565b60405180910390a2505050505050565b6002546001600160a01b031681565b60055481565b600b54156119de5760405162461bcd60e51b815260040161032d90614b82565b6001600b5560035460408051631718ecd760e31b815290516001600160a01b039092169163b8c766b891600480820192602092909190829003018186803b158015611a2857600080fd5b505afa158015611a3c573d6000803e3d6000fd5b505050506040513d601f19601f82011682018060405250810190611a609190614496565b611a7c5760405162461bcd60e51b815260040161032d90614a35565b336000908152600960205260408120600654600182015410611ab05760405162461bcd60e51b815260040161032d90614cbd565b611aba3343611cb9565b915060008211611adc5760405162461bcd60e51b815260040161032d90614847565b60035460405163032f7adb60e61b81526000916001600160a01b03169063cbdeb6c090611b0d90309060040161463e565b60206040518083038186803b158015611b2557600080fd5b505afa158015611b39573d6000803e3d6000fd5b505050506040513d601f19601f82011682018060405250810190611b5d919061451a565b905080611b75846007546139fd90919063ffffffff16565b1115611b935760405162461bcd60e51b815260040161032d906151d5565b4360018301556002820154611ba890846139fd565b6002830155600754611bba90846139fd565b600755600354604051635569f64b60e11b81526001600160a01b039091169063aad3ec9690611bef9033908790600401614652565b602060405180830381600087803b158015611c0957600080fd5b505af1158015611c1d573d6000803e3d6000fd5b505050506040513d601f19601f82011682018060405250810190611c419190614496565b611c5d5760405162461bcd60e51b815260040161032d90614e8b565b336001600160a01b03167f987d620f307ff6b94d58743cb7a7509f24071586a77759b77c2d4e29f75a2f9a8443604051611c989291906152cd565b60405180910390a250506000600b5550565b60085481565b600c5460ff1681565b6006546000908190831115611cce5760065492505b600554831080611cf457506001600160a01b038416600090815260096020526040902054155b80611d1b57506006546001600160a01b038516600090815260096020526040902060010154115b80611d4057506001600160a01b03841660009081526009602052604090206001015483105b15611d4d57506000612008565b6005546006546001600160a01b038616600090815260096020526040902060010154821015611d95576001600160a01b03861660009081526009602052604090206001015491505b80851015611da05750835b6003546040805163c1b422fd60e01b815290516000926001600160a01b03169163c1b422fd9160048083019286929190829003018186803b158015611de457600080fd5b505afa158015611df8573d6000803e3d6000fd5b505050506040513d6000823e601f3d908101601f19168201604052611e2091908101906143e8565b805190915015612004576003546040805163d105bf8560e01b815290516000928692849283926001600160a01b03169163d105bf85916004808301926020929190829003018186803b158015611e7557600080fd5b505afa158015611e89573d6000803e3d6000fd5b505050506040513d601f19601f82011682018060405250810190611ead919061451a565b6001600160a01b038c166000908152600960205260408120549192508c91905b8751811015611ffc57878181518110611ee257fe5b6020908102919091010151600354604051632f8deb1560e11b81529198506001600160a01b031690635f1bd62a90611f1e908a90600401614799565b60206040518083038186803b158015611f3657600080fd5b505afa158015611f4a573d6000803e3d6000fd5b505050506040513d601f19601f82011682018060405250810190611f6e919061451a565b945086861115611f7d57611ff4565b868911611fc3578415611fbe576000611f968a8c613f8f565b9050611fba611fb38761171a86611fad8a87613b6f565b90613b6f565b8d906139fd565b9b50505b611ffc565b8415611ff0576000611fd5888c613f8f565b9050611fec611fb38761171a86611fad8a87613b6f565b9b50505b8699505b600101611ecd565b505050505050505b5050505b9392505050565b6001546001600160a01b031681565b6010546001600160a01b031681565b601b5460ff1681565b6011546001600160a01b031681565b600f546001600160a01b031681565b61205d33610f88565b6120985760405162461bcd60e51b81526004018080602001828103825260228152602001806153826022913960400191505060405180910390fd5b610f6a6000805160206153f583398151915282611151565b600b54156120d05760405162461bcd60e51b815260040161032d90614b82565b6001600b819055546001600160a01b0316806120fe5760405162461bcd60e51b815260040161032d906147a2565b600360009054906101000a90046001600160a01b03166001600160a01b031663b8c766b86040518163ffffffff1660e01b815260040160206040518083038186803b15801561214c57600080fd5b505afa158015612160573d6000803e3d6000fd5b505050506040513d601f19601f820116820180604052508101906121849190614496565b6121a05760405162461bcd60e51b815260040161032d9061512d565b60125482906001600160a01b038083169116146121cf5760405162461bcd60e51b815260040161032d90614d56565b6003601955601a546121e29060016139fd565b601a556121ed610fcc565b601054604051636b2160b760e01b81526001600160a01b0390911690636b2160b79061221d90869060040161463e565b602060405180830381600087803b15801561223757600080fd5b505af115801561224b573d6000803e3d6000fd5b505050506040513d601f19601f8201168201806040525081019061226f9190614496565b507fd1c4e96e0fd22936ea8aebe0b8e06b19f1c4a836b141a34cf9e925d2afb205238360405161229f919061463e565b60405180910390a150506000600b5550565b60195481565b600b54156122d75760405162461bcd60e51b815260040161032d90614b82565b6001600b819055546001600160a01b0316806123055760405162461bcd60e51b815260040161032d906147a2565b600360009054906101000a90046001600160a01b03166001600160a01b031663b8c766b86040518163ffffffff1660e01b815260040160206040518083038186803b15801561235357600080fd5b505afa158015612367573d6000803e3d6000fd5b505050506040513d601f19601f8201168201806040525081019061238b9190614496565b6123a75760405162461bcd60e51b815260040161032d9061512d565b60125482906001600160a01b038083169116146123d65760405162461bcd60e51b815260040161032d90614d56565b600560195414156123f95760405162461bcd60e51b815260040161032d90614ec2565b6005601955601a8054600090915561240f610fcc565b600f546012546040516367265c3b60e11b81526001600160a01b039283169263ce4cb8769261244592911690309060040161468c565b60206040518083038186803b15801561245d57600080fd5b505afa158015612471573d6000803e3d6000fd5b505050506040513d601f19601f82011682018060405250810190612495919061451a565b6124aa57601280546001600160a01b03191690555b601054604051632638fdf560e01b8152612537916001600160a01b031690632638fdf5906124de908890309060040161468c565b60206040518083038186803b1580156124f657600080fd5b505afa15801561250a573d6000803e3d6000fd5b505050506040513d601f19601f8201168201806040525081019061252e919061451a565b601454906139fd565b60145560105460405163fb0713b160e01b81526001600160a01b039091169063fb0713b19061256f908790859060019060040161473b565b602060405180830381600087803b15801561258957600080fd5b505af115801561259d573d6000803e3d6000fd5b505050506040513d601f19601f820116820180604052508101906125c19190614496565b507f76d210b2dc3da8be1904d8b5da9feb5cdd21af436261626c4ec607e2123b417d848260016040516125f69392919061473b565b60405180910390a150506000600b555050565b61261233610f88565b61264d5760405162461bcd60e51b81526004018080602001828103825260228152602001806153826022913960400191505060405180910390fd5b6001600160a01b0381166126a3576040805162461bcd60e51b815260206004820152601860248201527741636365737369626c653a207a65726f206164647265737360401b604482015290519081900360640190fd5b336001600160a01b03821614156126fa576040805162461bcd60e51b815260206004820152601660248201527520b1b1b2b9b9b4b136329d1039b0b6b29030b236b4b760511b604482015290519081900360640190fd5b6127126000805160206153f583398151915282611151565b610f6a6000805160206153f5833981519152336111b8565b6000805160206153f583398151915281565b600b541561275c5760405162461bcd60e51b815260040161032d90614b82565b6001600b55612769610fcc565b8015612914576011546001600160a01b03166127975760405162461bcd60e51b815260040161032d906148e6565b600d546040516370a0823160e01b815283916001600160a01b0316906370a08231906127c790309060040161463e565b60206040518083038186803b1580156127df57600080fd5b505afa1580156127f3573d6000803e3d6000fd5b505050506040513d601f19601f82011682018060405250810190612817919061451a565b10156128355760405162461bcd60e51b815260040161032d90614a9a565b601154604051600091612858916001600160a01b0390911690819060200161468c565b60408051601f1981840301815290829052600d54600e5463cae9ca5160e01b84529193506001600160a01b039081169263cae9ca51926128a09216908790869060040161475e565b602060405180830381600087803b1580156128ba57600080fd5b505af11580156128ce573d6000803e3d6000fd5b505050506040513d601f19601f820116820180604052508101906128f29190614496565b61290e5760405162461bcd60e51b815260040161032d90614dc2565b50612a50565b600e546040516370a0823160e01b815283916001600160a01b0316906370a082319061294490309060040161463e565b60206040518083038186803b15801561295c57600080fd5b505afa158015612970573d6000803e3d6000fd5b505050506040513d601f19601f82011682018060405250810190612994919061451a565b10156129b25760405162461bcd60e51b815260040161032d90614b29565b600e5460405163f53fe70f60e01b81526001600160a01b039091169063f53fe70f906129e2908590600401614799565b602060405180830381600087803b1580156129fc57600080fd5b505af1158015612a10573d6000803e3d6000fd5b505050506040513d601f19601f82011682018060405250810190612a349190614496565b612a505760405162461bcd60e51b815260040161032d90614f08565b50506000600b55565b600a5481565b600e546001600160a01b031681565b6000828152601c602052604081206120089083613fd1565b6000828152601c602052604081206120089083613fdd565b6012546001600160a01b031681565b600080612ab86142b3565b5050600254600354604080516060810182526004548152600554602082015260065491810191909152600754600854600a546001600160a01b03958616979590941695509193909290565b600c5461010090046001600160a01b031681565b600c54600160a81b900460ff1681565b600081565b612b3533610f88565b612b705760405162461bcd60e51b81526004018080602001828103825260228152602001806153826022913960400191505060405180910390fd5b6001600160a01b03811615801590612b9657506012546001600160a01b03828116911614155b612bb25760405162461bcd60e51b815260040161032d906148a5565b601280546001600160a01b0319166001600160a01b0383161790556040517fbcf2b04f5517cca822ae60e21bb6e3889b8d8307ea062c5266c63a014386c99090612bfd90839061463e565b60405180910390a150565b612c1133610f88565b612c4c5760405162461bcd60e51b81526004018080602001828103825260228152602001806153826022913960400191505060405180910390fd5b806001600160a01b038116612c735760405162461bcd60e51b815260040161032d906147a2565b600180546001600160a01b0319166001600160a01b0384811691909117918290556040517f278c70ced5f3e0e5eeb385b5ff9cb735748ba00a625147e66065ed48fc1562cd92612cc492169061463e565b60405180910390a15050565b6009602052600090815260409020805460018201546002830154600384015460048501546005860154600690960154949593949293919290919060ff1687565b60075481565b6000818152601c60205260408120610fa290613ff2565b600d546001600160a01b031681565b600b5415612d5c5760405162461bcd60e51b815260040161032d90614b82565b6001600b819055546001600160a01b031680612d8a5760405162461bcd60e51b815260040161032d906147a2565b600360009054906101000a90046001600160a01b03166001600160a01b031663b8c766b86040518163ffffffff1660e01b815260040160206040518083038186803b158015612dd857600080fd5b505afa158015612dec573d6000803e3d6000fd5b505050506040513d601f19601f82011682018060405250810190612e109190614496565b612e2c5760405162461bcd60e51b815260040161032d9061512d565b60125483906001600160a01b03808316911614612e5b5760405162461bcd60e51b815260040161032d90614d56565b6003601955601a54612e6e9060016139fd565b601a55612e79610fcc565b600f546040516367265c3b60e11b81526000916001600160a01b03169063ce4cb87690612eac908890309060040161468c565b60206040518083038186803b158015612ec457600080fd5b505afa158015612ed8573d6000803e3d6000fd5b505050506040513d601f19601f82011682018060405250810190612efc919061451a565b905083811015612f1e5760405162461bcd60e51b815260040161032d90614879565b60105460405163da95ebf760e01b81526001600160a01b039091169063da95ebf790612f509088908890600401614652565b602060405180830381600087803b158015612f6a57600080fd5b505af1158015612f7e573d6000803e3d6000fd5b505050506040513d601f19601f82011682018060405250810190612fa29190614496565b507f2a23e23c116b511f71c9f0c2648b0372e6bbcb1f559a7cbfaed5c55933ea6c4e8585604051612fd4929190614652565b60405180910390a150506000600b55505050565b7ff0887ba65ee2024ea881d91b74c2450ef19e1557f03bed3ea9f16b037cbe2dc981565b6000828152601c602052604090206002015461302a906106f6613a57565b61120f5760405162461bcd60e51b81526004018080602001828103825260308152602001806153a46030913960400191505060405180910390fd5b6001600160a01b03166000908152600960205260409020805460018201546002830154600384015460048501546005860154600690960154949693959294919390929160ff1690565b601a5481565b60175481565b60185481565b6000600b546000146130e45760405162461bcd60e51b815260040161032d90614b82565b6001600b5560035460408051631718ecd760e31b815290516001600160a01b039092169163b8c766b891600480820192602092909190829003018186803b15801561312e57600080fd5b505afa158015613142573d6000803e3d6000fd5b505050506040513d601f19601f820116820180604052508101906131669190614496565b6131825760405162461bcd60e51b815260040161032d9061512d565b6006544311156131a45760405162461bcd60e51b815260040161032d90615061565b600282106131c45760405162461bcd60e51b815260040161032d90615020565b6131cc610fcc565b600e546040516370a0823160e01b81526000916001600160a01b0316906370a08231906131fd90309060040161463e565b60206040518083038186803b15801561321557600080fd5b505afa158015613229573d6000803e3d6000fd5b505050506040513d601f19601f8201168201806040525081019061324d919061451a565b600d546040516370a0823160e01b81529192506000916001600160a01b03909116906370a082319061328390309060040161463e565b60206040518083038186803b15801561329b57600080fd5b505afa1580156132af573d6000803e3d6000fd5b505050506040513d601f19601f820116820180604052508101906132d3919061451a565b6012549091506000906001600160a01b03161561340757600f546012546040516367265c3b60e11b81526001600160a01b039283169263ce4cb8769261332092911690309060040161468c565b60206040518083038186803b15801561333857600080fd5b505afa15801561334c573d6000803e3d6000fd5b505050506040513d601f19601f82011682018060405250810190613370919061451a565b601054601254604051632638fdf560e01b8152929350613404926001600160a01b0392831692632638fdf5926133ad92911690309060040161468c565b60206040518083038186803b1580156133c557600080fd5b505afa1580156133d9573d6000803e3d6000fd5b505050506040513d601f19601f820116820180604052508101906133fd919061451a565b82906139fd565b90505b8282156134225761341f6133fd84633b9aca00613b6f565b90505b898110156134425760405162461bcd60e51b815260040161032d90614d8d565b81156134555761345281836139fd565b90505b60085461346690633b9aca00613b6f565b8111801561349657508961349361348c633b9aca00600854613b6f90919063ffffffff16565b8390613f8f565b10155b6134b25760405162461bcd60e51b815260040161032d90614d1f565b898410156135ae576011546040516000916134dd916001600160a01b0390911690819060200161468c565b60408051601f1981840301815291905290506000613503633b9aca0061171a8e89613f8f565b600d54600e5460405163cae9ca5160e01b81529293506001600160a01b039182169263cae9ca519261353d9216908590879060040161475e565b602060405180830381600087803b15801561355757600080fd5b505af115801561356b573d6000803e3d6000fd5b505050506040513d601f19601f8201168201806040525081019061358f9190614496565b6135ab5760405162461bcd60e51b815260040161032d90614c6a565b50505b50506015546135c092509050876139fd565b6015819055506000806000600160009054906101000a90046001600160a01b03166001600160a01b031663504563c06040518163ffffffff1660e01b815260040160a06040518083038186803b15801561361957600080fd5b505afa15801561362d573d6000803e3d6000fd5b505050506040513d601f19601f820116820180604052508101906136519190614361565b509295509350909150506001600160a01b0383166136815760405162461bcd60e51b815260040161032d906147d9565b600e5460405163095ea7b360e01b81526001600160a01b039091169063095ea7b3906136b39086908d90600401614652565b602060405180830381600087803b1580156136cd57600080fd5b505af11580156136e1573d6000803e3d6000fd5b505050506040513d601f19601f820116820180604052508101906137059190614496565b6137215760405162461bcd60e51b815260040161032d9061518c565b846137f7576040805161010081018252600e546001600160a01b0390811682526000548116602083015262ffffff841682840152306060830152608082018a905260a082018c905260c082018b905288811660e0830152915163414bf38960e01b8152909185169063414bf3899061379d908490600401615264565b602060405180830381600087803b1580156137b757600080fd5b505af11580156137cb573d6000803e3d6000fd5b505050506040513d601f19601f820116820180604052508101906137ef919061451a565b9450506138ee565b84600114156138ee576040805160a08101909152600e54600080549092918291613837916001600160a01b03908116918791899183911660c087016145e9565b6040516020818303038152906040528152602001306001600160a01b031681526020018981526020018b81526020018a8152509050836001600160a01b031663c04b8d59826040518263ffffffff1660e01b8152600401613898919061520c565b602060405180830381600087803b1580156138b257600080fd5b505af11580156138c6573d6000803e3d6000fd5b505050506040513d601f19601f820116820180604052508101906138ea919061451a565b9450505b7f6ad50db5d488c314f9077fc5c41c7d8bcdd86ddc409871512ddd009f21067d32338a866040516139219392919061466b565b60405180910390a150506000600b555095945050505050565b6003546001600160a01b031681565b6000546001600160a01b031681565b60135481565b6000806000806000600160009054906101000a90046001600160a01b03166001600160a01b031663504563c06040518163ffffffff1660e01b815260040160a06040518083038186803b1580156139b457600080fd5b505afa1580156139c8573d6000803e3d6000fd5b505050506040513d601f19601f820116820180604052508101906139ec9190614361565b945094509450945094509091929394565b600082820183811015612008576040805162461bcd60e51b815260206004820152601b60248201527f536166654d6174683a206164646974696f6e206f766572666c6f770000000000604482015290519081900360640190fd5b3390565b6000828152601c60205260409020613a739082613ffd565b156111b457613a80613a57565b6001600160a01b0316816001600160a01b0316837f2f8788117e7eff1d82e926ec794901d17c78024a50270940304540a733656f0d60405160405180910390a45050565b6000828152601c60205260409020613adc9082614012565b156111b457613ae9613a57565b6001600160a01b0316816001600160a01b0316837ff6391f5c32d9c69d2a47ea670b442974b53935d1edc7fd64eb21e047a839171b60405160405180910390a45050565b600061200883836040518060400160405280601a81526020017f536166654d6174683a206469766973696f6e206279207a65726f000000000000815250614027565b600082613b7e57506000610fa2565b82820282848281613b8b57fe5b04146120085760405162461bcd60e51b81526004018080602001828103825260218152602001806153d46021913960400191505060405180910390fd5b8215613d06576040516370a0823160e01b815283906001600160a01b038716906370a0823190613bfc90309060040161463e565b60206040518083038186803b158015613c1457600080fd5b505afa158015613c28573d6000803e3d6000fd5b505050506040513d601f19601f82011682018060405250810190613c4c919061451a565b1015613c6a5760405162461bcd60e51b815260040161032d906150f6565b60405163a9059cbb60e01b81526001600160a01b0386169063a9059cbb90613c989033908790600401614652565b602060405180830381600087803b158015613cb257600080fd5b505af1158015613cc6573d6000803e3d6000fd5b505050506040513d601f19601f82011682018060405250810190613cea9190614496565b613d065760405162461bcd60e51b815260040161032d90614a63565b8115613e44576040516370a0823160e01b815282906001600160a01b038616906370a0823190613d3a90309060040161463e565b60206040518083038186803b158015613d5257600080fd5b505afa158015613d66573d6000803e3d6000fd5b505050506040513d601f19601f82011682018060405250810190613d8a919061451a565b1015613da85760405162461bcd60e51b815260040161032d906150bf565b60405163e3b99e8560e01b81526001600160a01b0385169063e3b99e8590613dd69033908690600401614652565b602060405180830381600087803b158015613df057600080fd5b505af1158015613e04573d6000803e3d6000fd5b505050506040513d601f19601f82011682018060405250810190613e289190614496565b613e445760405162461bcd60e51b815260040161032d90614af2565b8015613f88576000546040516370a0823160e01b815282916001600160a01b0316906370a0823190613e7a90309060040161463e565b60206040518083038186803b158015613e9257600080fd5b505afa158015613ea6573d6000803e3d6000fd5b505050506040513d601f19601f82011682018060405250810190613eca919061451a565b1015613ee85760405162461bcd60e51b815260040161032d90614fe9565b60005460405163a9059cbb60e01b81526001600160a01b039091169063a9059cbb90613f1a9033908590600401614652565b602060405180830381600087803b158015613f3457600080fd5b505af1158015613f48573d6000803e3d6000fd5b505050506040513d601f19601f82011682018060405250810190613f6c9190614496565b613f885760405162461bcd60e51b815260040161032d9061497e565b5050505050565b600061200883836040518060400160405280601e81526020017f536166654d6174683a207375627472616374696f6e206f766572666c6f7700008152506140c9565b60006120088383614123565b6000612008836001600160a01b038416614187565b6000610fa28261419f565b6000612008836001600160a01b0384166141a3565b6000612008836001600160a01b0384166141ed565b600081836140b35760405162461bcd60e51b81526004018080602001828103825283818151815260200191508051906020019080838360005b83811015614078578181015183820152602001614060565b50505050905090810190601f1680156140a55780820380516001836020036101000a031916815260200191505b509250505060405180910390fd5b5060008385816140bf57fe5b0495945050505050565b6000818484111561411b5760405162461bcd60e51b8152602060048201818152835160248401528351909283926044909101919085019080838360008315614078578181015183820152602001614060565b505050900390565b815460009082106141655760405162461bcd60e51b81526004018080602001828103825260228152602001806153316022913960400191505060405180910390fd5b82600001828154811061417457fe5b9060005260206000200154905092915050565b60009081526001919091016020526040902054151590565b5490565b60006141af8383614187565b6141e557508154600181810184556000848152602080822090930184905584548482528286019093526040902091909155610fa2565b506000610fa2565b600081815260018301602052604081205480156142a9578354600019808301919081019060009087908390811061422057fe5b906000526020600020015490508087600001848154811061423d57fe5b60009182526020808320909101929092558281526001898101909252604090209084019055865487908061426d57fe5b60019003818190600052602060002001600090559055866001016000878152602001908152602001600020600090556001945050505050610fa2565b6000915050610fa2565b60405180606001604052806003906020820280368337509192915050565b6000602082840312156142e2578081fd5b81356120088161530d565b600080600080600060a08688031215614304578081fd5b855161430f8161530d565b60208701519095506143208161530d565b60408701519094506143318161530d565b60608701519093506143428161530d565b60808701519092506143538161530d565b809150509295509295909350565b600080600080600060a08688031215614378578081fd5b85516143838161530d565b60208701519095506143948161530d565b60408701519094506143a58161530d565b6060870151608088015191945092506143538161530d565b600080604083850312156143cf578182fd5b82356143da8161530d565b946020939093013593505050565b600060208083850312156143fa578182fd5b825167ffffffffffffffff80821115614411578384fd5b818501915085601f830112614424578384fd5b81518181111561443057fe5b8381026040518582820101818110858211171561444957fe5b604052828152858101935084860182860187018a1015614467578788fd5b8795505b8386101561448957805185526001959095019493860193860161446b565b5098975050505050505050565b6000602082840312156144a7578081fd5b815161200881615322565b6000602082840312156144c3578081fd5b5035919050565b600080604083850312156144dc578182fd5b8235915060208301356144ee8161530d565b809150509250929050565b6000806040838503121561450b578182fd5b50508035926020909101359150565b60006020828403121561452b578081fd5b5051919050565b60008060408385031215614544578182fd5b8235915060208301356144ee81615322565b600080600080600060a0868803121561456d578081fd5b853594506020860135935060408601359250606086013561458d8161530d565b949793965091946080013592915050565b60008151808452815b818110156145c3576020818501810151868301820152016145a7565b818111156145d45782602083870101525b50601f01601f19169290920160200192915050565b6bffffffffffffffffffffffff19606096871b811682526001600160e81b031960e896871b8116601484015294871b811660178301529290941b909216602b840152921b909116602e82015260420190565b90565b6001600160a01b0391909116815260200190565b6001600160a01b03929092168252602082015260400190565b6001600160a01b039390931683526020830191909152604082015260600190565b6001600160a01b0392831681529116602082015260400190565b6001600160a01b039586168152938516602085015291841660408401526060830152909116608082015260a00190565b6001600160a01b038781168252861660208083019190915261010082019060408301908760005b600381101561471a578151845292820192908201906001016146fd565b505050508460a08301528360c08301528260e0830152979650505050505050565b6001600160a01b0393909316835260208301919091521515604082015260600190565b600060018060a01b038516825283602083015260606040830152614785606083018461459e565b95945050505050565b901515815260200190565b90815260200190565b6020808252601b908201527f546f6b616d616b5374616b65723a207a65726f20616464726573730000000000604082015260600190565b6020808252601a908201527f546f6b616d616b5374616b65723a756e6973776170207a65726f000000000000604082015260600190565b6020808252601a908201527f5374616b65544f4e3a20416c7265616479207769746864726177000000000000604082015260600190565b6020808252601890820152775374616b65544f4e3a20726577617264206973207a65726f60401b604082015260600190565b602080825260129082015271546f6b616d616b5374616b65723a6c61636b60701b604082015260600190565b60208082526021908201527f546f6b616d616b5374616b65723a746f6b616d616b4c6179657232207a65726f6040820152600160fd1b606082015260800190565b6020808252818101527f546f6b616d616b5374616b65723a207377617050726f7879206973207a65726f604082015260600190565b60208082526017908201527614dd185ad95513d38e881d1c985b9cd9995c8819985a5b604a1b604082015260600190565b602080825260189082015277151bdad85b585ad4dd185ad95c8e9c195c9a5bd908195b9960421b604082015260600190565b6020808252601b908201527f5374616b65544f4e3a207472616e7366657220746f73206661696c0000000000604082015260600190565b60208082526029908201527f546f6b616d616b5374616b65723a706572696f64287769746864726177616c44604082015268195b185e4a48195b9960ba1b606082015260800190565b6020808252601f908201527f5374616b65544f4e3a2049546f6b616d616b5265676973747279207a65726f00604082015260600190565b60208082526014908201527314dd185ad95513d38e881b9bdd0818db1bdcd95960621b604082015260600190565b6020808252601b908201527f5374616b65544f4e3a207472616e7366657220746f6e206661696c0000000000604082015260600190565b60208082526038908201527f546f6b616d616b5374616b65723a2073776170544f4e746f57544f4e20746f6e6040820152770818985b185b98d9481a5cc81a5b9cdd59999a58da595b9d60421b606082015260800190565b6020808252601c908201527f5374616b65544f4e3a207472616e736665722077746f6e206661696c00000000604082015260600190565b60208082526039908201527f546f6b616d616b5374616b65723a2073776170544f4e746f57544f4e2077746f6040820152781b8818985b185b98d9481a5cc81a5b9cdd59999a58da595b9d603a1b606082015260800190565b602080825260149082015273151bdad85b585ad4dd185ad95c8e9313d0d2d15160621b604082015260600190565b60208082526022908201527f5374616b65544f4e3a2072656d61696e20616d6f756e7420696e20746f6b616d604082015261616b60f01b606082015260800190565b6020808252601e908201527f5374616b65544f4e3a2066696e616c42616c616e6365206973206c61636b0000604082015260600190565b60208082526021908201527f546f6b616d616b5374616b65723a617070726f7665416e6443616c6c206661696040820152601b60fa1b606082015260800190565b60208082526033908201527f546f6b616d616b5374616b65723a65786368616e676557544f4e746f544f5320604082015272185c1c1c9bdd99505b9910d85b1b0819985a5b606a1b606082015260800190565b60208082526011908201527014dd185ad95513d38e8818db185a5b5959607a1b604082015260600190565b6020808252601a908201527f5374616b65544f4e3a207769746864726177206661696c65642e000000000000604082015260600190565b6020808252601a908201527f546f6b616d616b5374616b65723a696e73756666696369656e74000000000000604082015260600190565b6020808252601d908201527f546f6b616d616b5374616b65723a646966666572656e74206c61796572000000604082015260600190565b6020808252818101527f546f6b616d616b5374616b65723a2077746f6e20696e73756666696369656e74604082015260600190565b6020808252602f908201527f546f6b616d616b5374616b65723a73776170544f4e746f57544f4e206170707260408201526e1bdd99505b9910d85b1b0819985a5b608a1b606082015260800190565b6020808252601690820152755374616b65544f4e3a20416d6f756e742077726f6e6760501b604082015260600190565b6020808252602a908201527f546f6b616d616b5374616b65723a20746f6e2062616c616e636520697320696e6040820152691cdd59999a58da595b9d60b21b606082015260800190565b6020808252601f908201527f5374616b65544f4e3a206661696c20636c61696d2066726f6d207661756c7400604082015260600190565b60208082526026908201527f546f6b616d616b5374616b65723a416c72656164792050726f63657373556e5360408201526574616b696e6760d01b606082015260800190565b6020808252601c908201527f546f6b616d616b5374616b65723a73776170546f544f4e206661696c00000000604082015260600190565b6020808252601a908201527f546f6b616d616b5374616b65723a746f6b616d616b207a65726f000000000000604082015260600190565b60208082526021908201527f546f6b616d616b5374616b65723a7374616b65416d6f756e74206973207a65726040820152606f60f81b606082015260800190565b6020808252601890820152770a6e8c2d6caa89e9c7440d2dce6eaccccd2cadce8408aa8960431b604082015260600190565b6020808252601d908201527f5374616b65544f4e3a20746f732062616c616e6365206973206c61636b000000604082015260600190565b60208082526021908201527f546f6b616d616b5374616b65723a206e6f7420617661696c61626c65206b696e6040820152601960fa1b606082015260800190565b602080825260199082015278151bdad85b585ad4dd185ad95c8e881c195c9a5bd908195b99603a1b604082015260600190565b60208082526011908201527014dd185ad95513d38e881b9bdd08195b99607a1b604082015260600190565b6020808252601e908201527f5374616b65544f4e3a2077746f6e2062616c616e6365206973206c61636b0000604082015260600190565b6020808252601d908201527f5374616b65544f4e3a20746f6e2062616c616e6365206973206c61636b000000604082015260600190565b602080825260199082015278151bdad85b585ad4dd185ad95c8e881b9bdd0818db1bdcd959603a1b604082015260600190565b60208082526012908201527131b0b73737ba1039ba30b5b29022ba3432b960711b604082015260600190565b60208082526029908201527f546f6b616d616b5374616b65723a63616e277420617070726f766520756e69736040820152683bb0b82937baba32b960b91b606082015260800190565b6020808252601e908201527f5374616b65544f4e3a20746f74616c2072657761726420657863656564730000604082015260600190565b600060208252825160a0602084015261522860c084018261459e565b905060018060a01b0360208501511660408401526040840151606084015260608401516080840152608084015160a08401528091505092915050565b81516001600160a01b03908116825260208084015182169083015260408084015162ffffff16908301526060808401518216908301526080808401519083015260a0838101519083015260c0808401519083015260e09283015116918101919091526101000190565b918252602082015260400190565b968752602087019590955260408601939093526060850191909152608084015260a0830152151560c082015260e00190565b6001600160a01b0381168114610f6a57600080fd5b8015158114610f6a57600080fdfe456e756d657261626c655365743a20696e646578206f7574206f6620626f756e6473416363657373436f6e74726f6c3a2073656e646572206d75737420626520616e2061646d696e20746f206772616e7441636365737369626c653a2043616c6c6572206973206e6f7420616e2061646d696e416363657373436f6e74726f6c3a2073656e646572206d75737420626520616e2061646d696e20746f207265766f6b65536166654d6174683a206d756c7469706c69636174696f6e206f766572666c6f77df8b4c520ffe197c5343c6f5aec59570151ef9a492f2c624fd45ddde6135ec42416363657373436f6e74726f6c3a2063616e206f6e6c792072656e6f756e636520726f6c657320666f722073656c66a2646970667358221220a19be651eb8d6961f21e5a9e129c00d98e277ad15feea2d884f00c2f31a83b4364736f6c63430007060033",
  "immutableReferences": {},
  "source": "//SPDX-License-Identifier: Unlicense\npragma solidity ^0.7.6;\npragma abicoder v2;\n\nimport \"../interfaces/IStakeTON.sol\";\nimport {IIStake1Vault} from \"../interfaces/IIStake1Vault.sol\";\nimport {IIERC20} from \"../interfaces/IIERC20.sol\";\nimport {IWTON} from \"../interfaces/IWTON.sol\";\n\nimport \"../libraries/LibTokenStake1.sol\";\nimport \"@openzeppelin/contracts/math/SafeMath.sol\";\n\nimport \"../connection/TokamakStaker.sol\";\nimport {\n    ERC165Checker\n} from \"@openzeppelin/contracts/introspection/ERC165Checker.sol\";\nimport {SafeERC20} from \"@openzeppelin/contracts/token/ERC20/SafeERC20.sol\";\n\n/// @title Stake Contract\n/// @notice It can be staked in Tokamak. Can be swapped using Uniswap.\n/// Stake contracts can interact with the vault to claim tos tokens\ncontract StakeTON is TokamakStaker, IStakeTON {\n    using SafeMath for uint256;\n\n    /// @dev event on staking\n    /// @param to the sender\n    /// @param amount the amount of staking\n    event Staked(address indexed to, uint256 amount);\n\n    /// @dev event on claim\n    /// @param to the sender\n    /// @param amount the amount of claim\n    /// @param claimBlock the block of claim\n    event Claimed(address indexed to, uint256 amount, uint256 claimBlock);\n\n    /// @dev event on withdrawal\n    /// @param to the sender\n    /// @param tonAmount the amount of TON withdrawal\n    /// @param tosAmount the amount of TOS withdrawal\n    event Withdrawal(address indexed to, uint256 tonAmount, uint256 tosAmount);\n\n    /// @dev constructor of StakeTON\n    constructor() {}\n\n    /// @dev This contract cannot stake Ether.\n    receive() external payable {\n        revert(\"cannot stake Ether\");\n    }\n\n    /// @dev withdraw\n    function withdraw() external override {\n        require(endBlock > 0 && endBlock < block.number, \"StakeTON: not end\");\n        (\n            address ton,\n            address wton,\n            address depositManager,\n            address seigManager,\n\n        ) = ITokamakRegistry(stakeRegistry).getTokamak();\n        require(\n            ton != address(0) &&\n                wton != address(0) &&\n                depositManager != address(0) &&\n                seigManager != address(0),\n            \"StakeTON: ITokamakRegistry zero\"\n        );\n        if (tokamakLayer2 != address(0)) {\n            require(\n                IISeigManager(seigManager).stakeOf(\n                    tokamakLayer2,\n                    address(this)\n                ) ==\n                    0 &&\n                    IIDepositManager(depositManager).pendingUnstaked(\n                        tokamakLayer2,\n                        address(this)\n                    ) ==\n                    0,\n                \"StakeTON: remain amount in tokamak\"\n            );\n        }\n        LibTokenStake1.StakedAmount storage staked = userStaked[msg.sender];\n        require(!staked.released, \"StakeTON: Already withdraw\");\n\n        if (!withdrawFlag) {\n            withdrawFlag = true;\n            if (paytoken == ton) {\n                swappedAmountTOS = IIERC20(token).balanceOf(address(this));\n                finalBalanceWTON = IIERC20(wton).balanceOf(address(this));\n                finalBalanceTON = IIERC20(ton).balanceOf(address(this));\n                require(\n                    finalBalanceWTON.div(10**9).add(finalBalanceTON) >=\n                        totalStakedAmount,\n                    \"StakeTON: finalBalance is lack\"\n                );\n            }\n        }\n\n        uint256 amount = staked.amount;\n        require(amount > 0, \"StakeTON: Amount wrong\");\n        staked.releasedBlock = block.number;\n        staked.released = true;\n\n        if (paytoken == ton) {\n            uint256 tonAmount = 0;\n            uint256 wtonAmount = 0;\n            uint256 tosAmount = 0;\n            if (finalBalanceTON > 0)\n                tonAmount = finalBalanceTON.mul(amount).div(totalStakedAmount);\n            if (finalBalanceWTON > 0)\n                wtonAmount = finalBalanceWTON.mul(amount).div(\n                    totalStakedAmount\n                );\n            if (swappedAmountTOS > 0)\n                tosAmount = swappedAmountTOS.mul(amount).div(totalStakedAmount);\n\n            staked.releasedTOSAmount = tosAmount;\n            if (wtonAmount > 0)\n                staked.releasedAmount = wtonAmount.div(10**9).add(tonAmount);\n            else staked.releasedAmount = tonAmount;\n\n            tonWithdraw(ton, wton, tonAmount, wtonAmount, tosAmount);\n        } else if (paytoken == address(0)) {\n            require(staked.releasedAmount <= amount, \"StakeTON: Amount wrong\");\n            staked.releasedAmount = amount;\n            address payable self = address(uint160(address(this)));\n            require(self.balance >= amount, \"StakeTON: insuffient ETH\");\n            (bool success, ) = msg.sender.call{value: amount}(\"\");\n            require(success, \"StakeTON: withdraw failed.\");\n        } else {\n            require(staked.releasedAmount <= amount, \"StakeTON: Amount wrong\");\n            staked.releasedAmount = amount;\n            require(\n                IIERC20(paytoken).transfer(msg.sender, amount),\n                \"StakeTON: transfer fail\"\n            );\n        }\n\n        emit Withdrawal(\n            msg.sender,\n            staked.releasedAmount,\n            staked.releasedTOSAmount\n        );\n    }\n\n    /// @dev withdraw TON\n    /// @param ton  TON address\n    /// @param wton  WTON address\n    /// @param tonAmount  the amount of TON to be withdrawn to msg.sender\n    /// @param wtonAmount  the amount of WTON to be withdrawn to msg.sender\n    /// @param tosAmount  the amount of TOS to be withdrawn to msg.sender\n    function tonWithdraw(\n        address ton,\n        address wton,\n        uint256 tonAmount,\n        uint256 wtonAmount,\n        uint256 tosAmount\n    ) internal {\n        if (tonAmount > 0) {\n            require(\n                IIERC20(ton).balanceOf(address(this)) >= tonAmount,\n                \"StakeTON: ton balance is lack\"\n            );\n\n            require(\n                IIERC20(ton).transfer(msg.sender, tonAmount),\n                \"StakeTON: transfer ton fail\"\n            );\n        }\n        if (wtonAmount > 0) {\n            require(\n                IIERC20(wton).balanceOf(address(this)) >= wtonAmount,\n                \"StakeTON: wton balance is lack\"\n            );\n            require(\n                IWTON(wton).swapToTONAndTransfer(msg.sender, wtonAmount),\n                \"StakeTON: transfer wton fail\"\n            );\n        }\n        if (tosAmount > 0) {\n            require(\n                IIERC20(token).balanceOf(address(this)) >= tosAmount,\n                \"StakeTON: tos balance is lack\"\n            );\n            require(\n                IIERC20(token).transfer(msg.sender, tosAmount),\n                \"StakeTON: transfer tos fail\"\n            );\n        }\n    }\n\n    /// @dev Claim for reward\n    function claim() external override lock {\n        require(IIStake1Vault(vault).saleClosed(), \"StakeTON: not closed\");\n        uint256 rewardClaim = 0;\n\n        LibTokenStake1.StakedAmount storage staked = userStaked[msg.sender];\n        require(staked.claimedBlock < endBlock, \"StakeTON: claimed\");\n\n        rewardClaim = canRewardAmount(msg.sender, block.number);\n\n        require(rewardClaim > 0, \"StakeTON: reward is zero\");\n\n        uint256 rewardTotal =\n            IIStake1Vault(vault).totalRewardAmount(address(this));\n        require(\n            rewardClaimedTotal.add(rewardClaim) <= rewardTotal,\n            \"StakeTON: total reward exceeds\"\n        );\n\n        staked.claimedBlock = block.number;\n        staked.claimedAmount = staked.claimedAmount.add(rewardClaim);\n        rewardClaimedTotal = rewardClaimedTotal.add(rewardClaim);\n\n        require(\n            IIStake1Vault(vault).claim(msg.sender, rewardClaim),\n            \"StakeTON: fail claim from vault\"\n        );\n\n        emit Claimed(msg.sender, rewardClaim, block.number);\n    }\n\n    /// @dev Returns the amount that can be rewarded\n    /// @param account  the account that claimed reward\n    /// @param specificBlock the block that claimed reward\n    /// @return reward the reward amount that can be taken\n    function canRewardAmount(address account, uint256 specificBlock)\n        public\n        view\n        override\n        returns (uint256)\n    {\n        uint256 reward = 0;\n        if (specificBlock > endBlock) specificBlock = endBlock;\n\n        if (\n            specificBlock < startBlock ||\n            userStaked[account].amount == 0 ||\n            userStaked[account].claimedBlock > endBlock ||\n            userStaked[account].claimedBlock > specificBlock\n        ) {\n            reward = 0;\n        } else {\n            uint256 startR = startBlock;\n            uint256 endR = endBlock;\n            if (startR < userStaked[account].claimedBlock)\n                startR = userStaked[account].claimedBlock;\n            if (specificBlock < endR) endR = specificBlock;\n\n            uint256[] memory orderedEndBlocks =\n                IIStake1Vault(vault).orderedEndBlocksAll();\n\n            if (orderedEndBlocks.length > 0) {\n                uint256 _end = 0;\n                uint256 _start = startR;\n                uint256 _total = 0;\n                uint256 blockTotalReward = 0;\n                blockTotalReward = IIStake1Vault(vault).blockTotalReward();\n\n                address user = account;\n                uint256 amount = userStaked[user].amount;\n\n                for (uint256 i = 0; i < orderedEndBlocks.length; i++) {\n                    _end = orderedEndBlocks[i];\n                    _total = IIStake1Vault(vault).stakeEndBlockTotal(_end);\n\n                    if (_start > _end) {} else if (endR <= _end) {\n                        if (_total > 0) {\n                            uint256 _period1 = endR.sub(startR);\n                            reward = reward.add(\n                                blockTotalReward.mul(_period1).mul(amount).div(\n                                    _total\n                                )\n                            );\n                        }\n                        break;\n                    } else {\n                        if (_total > 0) {\n                            uint256 _period2 = _end.sub(startR);\n                            reward = reward.add(\n                                blockTotalReward.mul(_period2).mul(amount).div(\n                                    _total\n                                )\n                            );\n                        }\n                        startR = _end;\n                    }\n                }\n            }\n        }\n        return reward;\n    }\n    /*\n    function canRewardAmountTest(address account, uint256 specificBlock)\n        public view\n        returns (uint256, uint256, uint256, uint256)\n    {\n        uint256 reward = 0;\n        uint256 startR = 0;\n        uint256 endR = 0;\n        uint256 blockTotalReward = 0;\n        if(specificBlock > endBlock ) specificBlock = endBlock;\n\n        if (\n            specificBlock < startBlock ||\n            userStaked[account].amount == 0 ||\n            userStaked[account].claimedBlock > endBlock ||\n            userStaked[account].claimedBlock > specificBlock\n        ) {\n            reward = 0;\n        } else {\n            startR = startBlock;\n            endR = endBlock;\n            if (startR < userStaked[account].claimedBlock)\n                startR = userStaked[account].claimedBlock;\n            if (specificBlock < endR) endR = specificBlock;\n\n            uint256[] memory orderedEndBlocks =\n                IIStake1Vault(vault).orderedEndBlocksAll();\n\n            if (orderedEndBlocks.length > 0) {\n                uint256 _end = 0;\n                uint256 _start = startR;\n                uint256 _total = 0;\n                //uint256 blockTotalReward = 0;\n                blockTotalReward = IIStake1Vault(vault).blockTotalReward();\n\n                address user = account;\n                uint256 amount = userStaked[user].amount;\n\n                for (uint256 i = 0; i < orderedEndBlocks.length; i++) {\n                    _end = orderedEndBlocks[i];\n                    _total = IIStake1Vault(vault).stakeEndBlockTotal(_end);\n\n                    if (_start > _end) {\n\n                    } else if (endR <= _end) {\n                        reward +=\n                            (blockTotalReward *\n                                (endR - startR) * amount) /\n                            _total;\n                        break;\n                    } else {\n                        reward +=\n                            (blockTotalReward *\n                                (_end - startR) *\n                                amount) /\n                            _total;\n                        startR = _end;\n                    }\n                }\n            }\n        }\n        return (reward, startR, endR, blockTotalReward);\n    }\n    */\n}\n",
  "sourcePath": "/Users/zena/ico2.0/ico20-contracts/contracts/stake/StakeTON.sol",
  "compiler": {
    "name": "solc",
    "version": "0.7.6+commit.7338295f.Emscripten.clang"
  },
  "schemaVersion": "3.3.4",
  "updatedAt": "2021-08-02T05:01:31.360Z",
  "devdoc": {
    "events": {
      "Claimed(address,uint256,uint256)": {
        "details": "event on claim",
        "params": {
          "amount": "the amount of claim",
          "claimBlock": "the block of claim",
          "to": "the sender"
        }
      },
      "Staked(address,uint256)": {
        "details": "event on staking",
        "params": {
          "amount": "the amount of staking",
          "to": "the sender"
        }
      },
      "Withdrawal(address,uint256,uint256)": {
        "details": "event on withdrawal",
        "params": {
          "to": "the sender",
          "tonAmount": "the amount of TON withdrawal",
          "tosAmount": "the amount of TOS withdrawal"
        }
      }
    },
    "kind": "dev",
    "methods": {
      "addAdmin(address)": {
        "details": "add admin",
        "params": {
          "account": "address to add"
        }
      },
      "canRewardAmount(address,uint256)": {
        "details": "Returns the amount that can be rewarded",
        "params": {
          "account": "the account that claimed reward",
          "specificBlock": "the block that claimed reward"
        },
        "returns": {
          "_0": "reward the reward amount that can be taken"
        }
      },
      "checkTokamak()": {
        "details": "If the tokamak addresses is not set, set the addresses."
      },
      "claim()": {
        "details": "Claim for reward"
      },
      "constructor": {
        "details": "constructor of StakeTON"
      },
      "exchangeWTONtoTOS(uint256,uint256,uint256,uint160,uint256)": {
        "details": "exchange holded WTON to TOS using uniswap",
        "params": {
          "_amountIn": "the input amount",
          "_amountOutMinimum": "the minimun output amount",
          "_deadline": "deadline",
          "_kind": "the function type, if 0, use exactInputSingle function, else if, use exactInput function",
          "_sqrtPriceLimitX96": "sqrtPriceLimitX96"
        },
        "returns": {
          "amountOut": "the amount of exchanged out token"
        }
      },
      "getRoleAdmin(bytes32)": {
        "details": "Returns the admin role that controls `role`. See {grantRole} and {revokeRole}. To change a role's admin, use {_setRoleAdmin}."
      },
      "getRoleMember(bytes32,uint256)": {
        "details": "Returns one of the accounts that have `role`. `index` must be a value between 0 and {getRoleMemberCount}, non-inclusive. Role bearers are not sorted in any particular way, and their ordering may change at any point. WARNING: When using {getRoleMember} and {getRoleMemberCount}, make sure you perform all queries on the same block. See the following https://forum.openzeppelin.com/t/iterating-over-elements-on-enumerableset-in-openzeppelin-contracts/2296[forum post] for more information."
      },
      "getRoleMemberCount(bytes32)": {
        "details": "Returns the number of accounts that have `role`. Can be used together with {getRoleMember} to enumerate all bearers of a role."
      },
      "getUniswapInfo()": {
        "details": "get the addresses that used in uniswap interfaces",
        "returns": {
          "ext": "the address of ext",
          "fee": "the amount of fee",
          "npm": "the address of positionManagerAddress",
          "uniswapRouter": "the address of uniswapRouter"
        }
      },
      "getUserStaked(address)": {
        "details": "user's staked information"
      },
      "grantRole(bytes32,address)": {
        "details": "Grants `role` to `account`. If `account` had not been already granted `role`, emits a {RoleGranted} event. Requirements: - the caller must have ``role``'s admin role."
      },
      "hasRole(bytes32,address)": {
        "details": "Returns `true` if `account` has been granted `role`."
      },
      "infos()": {
        "details": "Give the infomation of this stakeContracts",
        "returns": {
          "_0": "paytoken, vault, [saleStartBlock, startBlock, endBlock], rewardClaimedTotal, totalStakedAmount, totalStakers"
        }
      },
      "isAdmin(address)": {
        "details": "whether admin",
        "params": {
          "account": "address to check"
        }
      },
      "removeAdmin(address)": {
        "details": "remove admin",
        "params": {
          "account": "address to remove"
        }
      },
      "renounceRole(bytes32,address)": {
        "details": "Revokes `role` from the calling account. Roles are often managed via {grantRole} and {revokeRole}: this function's purpose is to provide a mechanism for accounts to lose their privileges if they are compromised (such as when a trusted device is misplaced). If the calling account had been granted `role`, emits a {RoleRevoked} event. Requirements: - the caller must be `account`."
      },
      "revokeRole(bytes32,address)": {
        "details": "Revokes `role` from `account`. If `account` had been granted `role`, emits a {RoleRevoked} event. Requirements: - the caller must have ``role``'s admin role."
      },
      "setRegistry(address)": {
        "details": "set registry address",
        "params": {
          "_registry": "new registry address"
        }
      },
      "setTokamakLayer2(address)": {
        "details": "set the tokamak Layer2 address",
        "params": {
          "_layer2": "new the tokamak Layer2 address"
        }
      },
      "swapTONtoWTON(uint256,bool)": {
        "details": "Change the TON holded in contract have to WTON, or change WTON to TON.",
        "params": {
          "amount": "the amount to be changed",
          "toWTON": "if it's true, TON->WTON , else WTON->TON"
        }
      },
      "tokamakProcessUnStaking(address)": {
        "details": "process unstaking in layer2 in tokamak",
        "params": {
          "_layer2": "the layer2 address in tokamak"
        }
      },
      "tokamakRequestUnStaking(address,uint256)": {
        "details": "request unstaking the wtonAmount in layer2 in tokamak",
        "params": {
          "_layer2": "the layer2 address in tokamak",
          "wtonAmount": "the amount requested to unstaking"
        }
      },
      "tokamakRequestUnStakingAll(address)": {
        "details": "request unstaking the amount of all in layer2 in tokamak",
        "params": {
          "_layer2": "the layer2 address in tokamak"
        }
      },
      "tokamakStaking(address,uint256)": {
        "details": "staking the staked TON in layer2 in tokamak",
        "params": {
          "_layer2": "the layer2 address in tokamak",
          "stakeAmount": "the amount that stake to layer2"
        }
      },
      "transferAdmin(address)": {
        "details": "transfer admin",
        "params": {
          "newAdmin": "new admin address"
        }
      },
      "withdraw()": {
        "details": "withdraw"
      }
    },
    "title": "Stake Contract",
    "version": 1
  },
  "userdoc": {
    "kind": "user",
    "methods": {},
    "notice": "It can be staked in Tokamak. Can be swapped using Uniswap. Stake contracts can interact with the vault to claim tos tokens",
    "version": 1
  }
}