{
  "contractName": "StakeTON",
  "abi": [
    {
      "inputs": [],
      "stateMutability": "nonpayable",
      "type": "constructor"
    },
    {
      "anonymous": false,
      "inputs": [
        {
          "indexed": true,
          "internalType": "address",
          "name": "to",
          "type": "address"
        },
        {
          "indexed": false,
          "internalType": "uint256",
          "name": "amount",
          "type": "uint256"
        },
        {
          "indexed": false,
          "internalType": "uint256",
          "name": "claimBlock",
          "type": "uint256"
        }
      ],
      "name": "Claimed",
      "type": "event"
    },
    {
      "anonymous": false,
      "inputs": [
        {
          "indexed": true,
          "internalType": "bytes32",
          "name": "role",
          "type": "bytes32"
        },
        {
          "indexed": true,
          "internalType": "bytes32",
          "name": "previousAdminRole",
          "type": "bytes32"
        },
        {
          "indexed": true,
          "internalType": "bytes32",
          "name": "newAdminRole",
          "type": "bytes32"
        }
      ],
      "name": "RoleAdminChanged",
      "type": "event"
    },
    {
      "anonymous": false,
      "inputs": [
        {
          "indexed": true,
          "internalType": "bytes32",
          "name": "role",
          "type": "bytes32"
        },
        {
          "indexed": true,
          "internalType": "address",
          "name": "account",
          "type": "address"
        },
        {
          "indexed": true,
          "internalType": "address",
          "name": "sender",
          "type": "address"
        }
      ],
      "name": "RoleGranted",
      "type": "event"
    },
    {
      "anonymous": false,
      "inputs": [
        {
          "indexed": true,
          "internalType": "bytes32",
          "name": "role",
          "type": "bytes32"
        },
        {
          "indexed": true,
          "internalType": "address",
          "name": "account",
          "type": "address"
        },
        {
          "indexed": true,
          "internalType": "address",
          "name": "sender",
          "type": "address"
        }
      ],
      "name": "RoleRevoked",
      "type": "event"
    },
    {
      "anonymous": false,
      "inputs": [
        {
          "indexed": false,
          "internalType": "address",
          "name": "registry",
          "type": "address"
        }
      ],
      "name": "SetRegistry",
      "type": "event"
    },
    {
      "anonymous": false,
      "inputs": [
        {
          "indexed": false,
          "internalType": "address",
          "name": "layer2",
          "type": "address"
        }
      ],
      "name": "SetTokamakLayer2",
      "type": "event"
    },
    {
      "anonymous": false,
      "inputs": [
        {
          "indexed": true,
          "internalType": "address",
          "name": "to",
          "type": "address"
        },
        {
          "indexed": false,
          "internalType": "uint256",
          "name": "amount",
          "type": "uint256"
        }
      ],
      "name": "Staked",
      "type": "event"
    },
    {
      "anonymous": false,
      "inputs": [
        {
          "indexed": true,
          "internalType": "address",
          "name": "to",
          "type": "address"
        },
        {
          "indexed": false,
          "internalType": "uint256",
          "name": "tonAmount",
          "type": "uint256"
        },
        {
          "indexed": false,
          "internalType": "uint256",
          "name": "fldAmount",
          "type": "uint256"
        }
      ],
      "name": "Withdrawal",
      "type": "event"
    },
    {
      "anonymous": false,
      "inputs": [
        {
          "indexed": false,
          "internalType": "address",
          "name": "caller",
          "type": "address"
        },
        {
          "indexed": false,
          "internalType": "uint256",
          "name": "amountIn",
          "type": "uint256"
        },
        {
          "indexed": false,
          "internalType": "uint256",
          "name": "amountOut",
          "type": "uint256"
        }
      ],
      "name": "exchangedWTONtoFLD",
      "type": "event"
    },
    {
      "anonymous": false,
      "inputs": [
        {
          "indexed": false,
          "internalType": "address",
          "name": "caller",
          "type": "address"
        },
        {
          "indexed": false,
          "internalType": "uint256",
          "name": "amountIn",
          "type": "uint256"
        },
        {
          "indexed": false,
          "internalType": "uint256",
          "name": "amountOut",
          "type": "uint256"
        }
      ],
      "name": "exchangedWTONtoFLD2",
      "type": "event"
    },
    {
      "anonymous": false,
      "inputs": [
        {
          "indexed": false,
          "internalType": "address",
          "name": "layer2",
          "type": "address"
        },
        {
          "indexed": false,
          "internalType": "uint256",
          "name": "rn",
          "type": "uint256"
        },
        {
          "indexed": false,
          "internalType": "bool",
          "name": "receiveTON",
          "type": "bool"
        }
      ],
      "name": "tokamakProcessedUnStaking",
      "type": "event"
    },
    {
      "anonymous": false,
      "inputs": [
        {
          "indexed": false,
          "internalType": "address",
          "name": "layer2",
          "type": "address"
        },
        {
          "indexed": false,
          "internalType": "uint256",
          "name": "amount",
          "type": "uint256"
        }
      ],
      "name": "tokamakRequestedUnStaking",
      "type": "event"
    },
    {
      "anonymous": false,
      "inputs": [
        {
          "indexed": false,
          "internalType": "address",
          "name": "layer2",
          "type": "address"
        }
      ],
      "name": "tokamakRequestedUnStakingAll",
      "type": "event"
    },
    {
      "anonymous": false,
      "inputs": [
        {
          "indexed": false,
          "internalType": "address",
          "name": "layer2",
          "type": "address"
        },
        {
          "indexed": false,
          "internalType": "uint256",
          "name": "amount",
          "type": "uint256"
        }
      ],
      "name": "tokamakStaked",
      "type": "event"
    },
    {
      "inputs": [],
      "name": "ADMIN_ROLE",
      "outputs": [
        {
          "internalType": "bytes32",
          "name": "",
          "type": "bytes32"
        }
      ],
      "stateMutability": "view",
      "type": "function"
    },
    {
      "inputs": [],
      "name": "DEFAULT_ADMIN_ROLE",
      "outputs": [
        {
          "internalType": "bytes32",
          "name": "",
          "type": "bytes32"
        }
      ],
      "stateMutability": "view",
      "type": "function"
    },
    {
      "inputs": [],
      "name": "checkTokamak",
      "outputs": [],
      "stateMutability": "nonpayable",
      "type": "function"
    },
    {
      "inputs": [],
      "name": "defiStatus",
      "outputs": [
        {
          "internalType": "uint256",
          "name": "",
          "type": "uint256"
        }
      ],
      "stateMutability": "view",
      "type": "function"
    },
    {
      "inputs": [],
      "name": "depositManager",
      "outputs": [
        {
          "internalType": "address",
          "name": "",
          "type": "address"
        }
      ],
      "stateMutability": "view",
      "type": "function"
    },
    {
      "inputs": [],
      "name": "endBlock",
      "outputs": [
        {
          "internalType": "uint256",
          "name": "",
          "type": "uint256"
        }
      ],
      "stateMutability": "view",
      "type": "function"
    },
    {
      "inputs": [
        {
          "internalType": "uint256",
          "name": "_amountIn",
          "type": "uint256"
        },
        {
          "internalType": "uint256",
          "name": "_amountOutMinimum",
          "type": "uint256"
        },
        {
          "internalType": "uint256",
          "name": "_deadline",
          "type": "uint256"
        },
        {
          "internalType": "uint160",
          "name": "_sqrtPriceLimitX96",
          "type": "uint160"
        },
        {
          "internalType": "uint256",
          "name": "_kind",
          "type": "uint256"
        }
      ],
      "name": "exchangeWTONtoFLD",
      "outputs": [
        {
          "internalType": "uint256",
          "name": "amountOut",
          "type": "uint256"
        }
      ],
      "stateMutability": "nonpayable",
      "type": "function"
    },
    {
      "inputs": [
        {
          "internalType": "uint256",
          "name": "_amountIn",
          "type": "uint256"
        },
        {
          "internalType": "uint256",
          "name": "_amountOutMinimum",
          "type": "uint256"
        },
        {
          "internalType": "uint256",
          "name": "_deadline",
          "type": "uint256"
        },
        {
          "internalType": "uint256",
          "name": "_kind",
          "type": "uint256"
        }
      ],
      "name": "exchangeWTONtoFLDv2",
      "outputs": [
        {
          "internalType": "uint256",
          "name": "amountOut",
          "type": "uint256"
        }
      ],
      "stateMutability": "nonpayable",
      "type": "function"
    },
    {
      "inputs": [],
      "name": "finalBalanceTON",
      "outputs": [
        {
          "internalType": "uint256",
          "name": "",
          "type": "uint256"
        }
      ],
      "stateMutability": "view",
      "type": "function"
    },
    {
      "inputs": [],
      "name": "finalBalanceWTON",
      "outputs": [
        {
          "internalType": "uint256",
          "name": "",
          "type": "uint256"
        }
      ],
      "stateMutability": "view",
      "type": "function"
    },
    {
      "inputs": [],
      "name": "fromTokamak",
      "outputs": [
        {
          "internalType": "uint256",
          "name": "",
          "type": "uint256"
        }
      ],
      "stateMutability": "view",
      "type": "function"
    },
    {
      "inputs": [
        {
          "internalType": "bytes32",
          "name": "role",
          "type": "bytes32"
        }
      ],
      "name": "getRoleAdmin",
      "outputs": [
        {
          "internalType": "bytes32",
          "name": "",
          "type": "bytes32"
        }
      ],
      "stateMutability": "view",
      "type": "function"
    },
    {
      "inputs": [
        {
          "internalType": "bytes32",
          "name": "role",
          "type": "bytes32"
        },
        {
          "internalType": "uint256",
          "name": "index",
          "type": "uint256"
        }
      ],
      "name": "getRoleMember",
      "outputs": [
        {
          "internalType": "address",
          "name": "",
          "type": "address"
        }
      ],
      "stateMutability": "view",
      "type": "function"
    },
    {
      "inputs": [
        {
          "internalType": "bytes32",
          "name": "role",
          "type": "bytes32"
        }
      ],
      "name": "getRoleMemberCount",
      "outputs": [
        {
          "internalType": "uint256",
          "name": "",
          "type": "uint256"
        }
      ],
      "stateMutability": "view",
      "type": "function"
    },
    {
      "inputs": [],
      "name": "getUniswapInfo",
      "outputs": [
        {
          "internalType": "address",
          "name": "uniswapRouter",
          "type": "address"
        },
        {
          "internalType": "address",
          "name": "npm",
          "type": "address"
        },
        {
          "internalType": "address",
          "name": "ext",
          "type": "address"
        },
        {
          "internalType": "uint256",
          "name": "fee",
          "type": "uint256"
        },
        {
          "internalType": "address",
          "name": "uniswapRouterV2",
          "type": "address"
        }
      ],
      "stateMutability": "view",
      "type": "function"
    },
    {
      "inputs": [
        {
          "internalType": "address",
          "name": "user",
          "type": "address"
        }
      ],
      "name": "getUserStaked",
      "outputs": [
        {
          "internalType": "uint256",
          "name": "amount",
          "type": "uint256"
        },
        {
          "internalType": "uint256",
          "name": "claimedBlock",
          "type": "uint256"
        },
        {
          "internalType": "uint256",
          "name": "claimedAmount",
          "type": "uint256"
        },
        {
          "internalType": "uint256",
          "name": "releasedBlock",
          "type": "uint256"
        },
        {
          "internalType": "uint256",
          "name": "releasedAmount",
          "type": "uint256"
        },
        {
          "internalType": "uint256",
          "name": "releasedFLDAmount",
          "type": "uint256"
        },
        {
          "internalType": "bool",
          "name": "released",
          "type": "bool"
        }
      ],
      "stateMutability": "view",
      "type": "function"
    },
    {
      "inputs": [
        {
          "internalType": "bytes32",
          "name": "role",
          "type": "bytes32"
        },
        {
          "internalType": "address",
          "name": "account",
          "type": "address"
        }
      ],
      "name": "grantRole",
      "outputs": [],
      "stateMutability": "nonpayable",
      "type": "function"
    },
    {
      "inputs": [
        {
          "internalType": "bytes32",
          "name": "role",
          "type": "bytes32"
        },
        {
          "internalType": "address",
          "name": "account",
          "type": "address"
        }
      ],
      "name": "hasRole",
      "outputs": [
        {
          "internalType": "bool",
          "name": "",
          "type": "bool"
        }
      ],
      "stateMutability": "view",
      "type": "function"
    },
    {
      "inputs": [],
      "name": "paytoken",
      "outputs": [
        {
          "internalType": "address",
          "name": "",
          "type": "address"
        }
      ],
      "stateMutability": "view",
      "type": "function"
    },
    {
      "inputs": [
        {
          "internalType": "bytes32",
          "name": "role",
          "type": "bytes32"
        },
        {
          "internalType": "address",
          "name": "account",
          "type": "address"
        }
      ],
      "name": "renounceRole",
      "outputs": [],
      "stateMutability": "nonpayable",
      "type": "function"
    },
    {
      "inputs": [],
      "name": "requestNum",
      "outputs": [
        {
          "internalType": "uint256",
          "name": "",
          "type": "uint256"
        }
      ],
      "stateMutability": "view",
      "type": "function"
    },
    {
      "inputs": [
        {
          "internalType": "bytes32",
          "name": "role",
          "type": "bytes32"
        },
        {
          "internalType": "address",
          "name": "account",
          "type": "address"
        }
      ],
      "name": "revokeRole",
      "outputs": [],
      "stateMutability": "nonpayable",
      "type": "function"
    },
    {
      "inputs": [],
      "name": "rewardClaimedTotal",
      "outputs": [
        {
          "internalType": "uint256",
          "name": "",
          "type": "uint256"
        }
      ],
      "stateMutability": "view",
      "type": "function"
    },
    {
      "inputs": [],
      "name": "saleStartBlock",
      "outputs": [
        {
          "internalType": "uint256",
          "name": "",
          "type": "uint256"
        }
      ],
      "stateMutability": "view",
      "type": "function"
    },
    {
      "inputs": [],
      "name": "seigManager",
      "outputs": [
        {
          "internalType": "address",
          "name": "",
          "type": "address"
        }
      ],
      "stateMutability": "view",
      "type": "function"
    },
    {
      "inputs": [
        {
          "internalType": "address",
          "name": "_registry",
          "type": "address"
        }
      ],
      "name": "setRegistry",
      "outputs": [],
      "stateMutability": "nonpayable",
      "type": "function"
    },
    {
      "inputs": [
        {
          "internalType": "address",
          "name": "_layer2",
          "type": "address"
        }
      ],
      "name": "setTokamakLayer2",
      "outputs": [],
      "stateMutability": "nonpayable",
      "type": "function"
    },
    {
      "inputs": [],
      "name": "stakeRegistry",
      "outputs": [
        {
          "internalType": "address",
          "name": "",
          "type": "address"
        }
      ],
      "stateMutability": "view",
      "type": "function"
    },
    {
      "inputs": [],
      "name": "startBlock",
      "outputs": [
        {
          "internalType": "uint256",
          "name": "",
          "type": "uint256"
        }
      ],
      "stateMutability": "view",
      "type": "function"
    },
    {
      "inputs": [],
      "name": "swapProxy",
      "outputs": [
        {
          "internalType": "address",
          "name": "",
          "type": "address"
        }
      ],
      "stateMutability": "view",
      "type": "function"
    },
    {
      "inputs": [
        {
          "internalType": "uint256",
          "name": "amount",
          "type": "uint256"
        },
        {
          "internalType": "bool",
          "name": "toWTON",
          "type": "bool"
        }
      ],
      "name": "swapTONtoWTON",
      "outputs": [],
      "stateMutability": "nonpayable",
      "type": "function"
    },
    {
      "inputs": [],
      "name": "swappedAmountFLD",
      "outputs": [
        {
          "internalType": "uint256",
          "name": "",
          "type": "uint256"
        }
      ],
      "stateMutability": "view",
      "type": "function"
    },
    {
      "inputs": [],
      "name": "toTokamak",
      "outputs": [
        {
          "internalType": "uint256",
          "name": "",
          "type": "uint256"
        }
      ],
      "stateMutability": "view",
      "type": "function"
    },
    {
      "inputs": [],
      "name": "toUniswapWTON",
      "outputs": [
        {
          "internalType": "uint256",
          "name": "",
          "type": "uint256"
        }
      ],
      "stateMutability": "view",
      "type": "function"
    },
    {
      "inputs": [],
      "name": "tokamakLayer2",
      "outputs": [
        {
          "internalType": "address",
          "name": "",
          "type": "address"
        }
      ],
      "stateMutability": "view",
      "type": "function"
    },
    {
      "inputs": [
        {
          "internalType": "address",
          "name": "_layer2",
          "type": "address"
        }
      ],
      "name": "tokamakProcessUnStaking",
      "outputs": [],
      "stateMutability": "nonpayable",
      "type": "function"
    },
    {
      "inputs": [
        {
          "internalType": "address",
          "name": "_layer2",
          "type": "address"
        },
        {
          "internalType": "uint256",
          "name": "wtonAmount",
          "type": "uint256"
        }
      ],
      "name": "tokamakRequestUnStaking",
      "outputs": [],
      "stateMutability": "nonpayable",
      "type": "function"
    },
    {
      "inputs": [
        {
          "internalType": "address",
          "name": "_layer2",
          "type": "address"
        }
      ],
      "name": "tokamakRequestUnStakingAll",
      "outputs": [],
      "stateMutability": "nonpayable",
      "type": "function"
    },
    {
      "inputs": [
        {
          "internalType": "address",
          "name": "_layer2",
          "type": "address"
        },
        {
          "internalType": "uint256",
          "name": "stakeAmount",
          "type": "uint256"
        }
      ],
      "name": "tokamakStaking",
      "outputs": [],
      "stateMutability": "nonpayable",
      "type": "function"
    },
    {
      "inputs": [],
      "name": "token",
      "outputs": [
        {
          "internalType": "address",
          "name": "",
          "type": "address"
        }
      ],
      "stateMutability": "view",
      "type": "function"
    },
    {
      "inputs": [],
      "name": "ton",
      "outputs": [
        {
          "internalType": "address",
          "name": "",
          "type": "address"
        }
      ],
      "stateMutability": "view",
      "type": "function"
    },
    {
      "inputs": [],
      "name": "totalStakedAmount",
      "outputs": [
        {
          "internalType": "uint256",
          "name": "",
          "type": "uint256"
        }
      ],
      "stateMutability": "view",
      "type": "function"
    },
    {
      "inputs": [],
      "name": "totalStakers",
      "outputs": [
        {
          "internalType": "uint256",
          "name": "",
          "type": "uint256"
        }
      ],
      "stateMutability": "view",
      "type": "function"
    },
    {
      "inputs": [
        {
          "internalType": "address",
          "name": "newOwner",
          "type": "address"
        }
      ],
      "name": "transferOwnership",
      "outputs": [],
      "stateMutability": "nonpayable",
      "type": "function"
    },
    {
      "inputs": [
        {
          "internalType": "address",
          "name": "",
          "type": "address"
        }
      ],
      "name": "userStaked",
      "outputs": [
        {
          "internalType": "uint256",
          "name": "amount",
          "type": "uint256"
        },
        {
          "internalType": "uint256",
          "name": "claimedBlock",
          "type": "uint256"
        },
        {
          "internalType": "uint256",
          "name": "claimedAmount",
          "type": "uint256"
        },
        {
          "internalType": "uint256",
          "name": "releasedBlock",
          "type": "uint256"
        },
        {
          "internalType": "uint256",
          "name": "releasedAmount",
          "type": "uint256"
        },
        {
          "internalType": "uint256",
          "name": "releasedFLDAmount",
          "type": "uint256"
        },
        {
          "internalType": "bool",
          "name": "released",
          "type": "bool"
        }
      ],
      "stateMutability": "view",
      "type": "function"
    },
    {
      "inputs": [],
      "name": "vault",
      "outputs": [
        {
          "internalType": "address",
          "name": "",
          "type": "address"
        }
      ],
      "stateMutability": "view",
      "type": "function"
    },
    {
      "inputs": [],
      "name": "withdrawFlag",
      "outputs": [
        {
          "internalType": "bool",
          "name": "",
          "type": "bool"
        }
      ],
      "stateMutability": "view",
      "type": "function"
    },
    {
      "inputs": [],
      "name": "wton",
      "outputs": [
        {
          "internalType": "address",
          "name": "",
          "type": "address"
        }
      ],
      "stateMutability": "view",
      "type": "function"
    },
    {
      "stateMutability": "payable",
      "type": "receive"
    },
    {
      "inputs": [],
      "name": "withdraw",
      "outputs": [],
      "stateMutability": "nonpayable",
      "type": "function"
    },
    {
      "inputs": [],
      "name": "claim",
      "outputs": [],
      "stateMutability": "nonpayable",
      "type": "function"
    },
    {
      "inputs": [
        {
          "internalType": "address",
          "name": "account",
          "type": "address"
        },
        {
          "internalType": "uint256",
          "name": "specificBlock",
          "type": "uint256"
        }
      ],
      "name": "canRewardAmount",
      "outputs": [
        {
          "internalType": "uint256",
          "name": "",
          "type": "uint256"
        }
      ],
      "stateMutability": "view",
      "type": "function"
    }
  ],
  "bytecode": "0x60806040523480156200001157600080fd5b506200002d60008051602062005b93833981519152806200004e565b6200004860008051602062005b9383398151915233620000a0565b620001b6565b6000828152601b6020526040808220600201549051839285917fbd79b86ffe0ab8e8776151514217cd7cacd52c909f66475c3af44e129f0b00ff9190a46000918252601b602052604090912060020155565b620000ac8282620000b0565b5050565b6000828152601b60209081526040909120620000d791839062003f136200012b821b17901c565b15620000ac57620000e76200014b565b6001600160a01b0316816001600160a01b0316837f2f8788117e7eff1d82e926ec794901d17c78024a50270940304540a733656f0d60405160405180910390a45050565b600062000142836001600160a01b0384166200014f565b90505b92915050565b3390565b60006200015d83836200019e565b620001955750815460018181018455600084815260208082209093018490558454848252828601909352604090209190915562000145565b50600062000145565b60009081526001919091016020526040902054151590565b6159cd80620001c66000396000f3fe6080604052600436106102b85760003560e01c8063821f926711610170578063ca15c873116100cc578063e58e274711610085578063e58e274714610776578063e6a7bc871461078b578063f2fde38b146107a0578063fbfa77cf146107c0578063fc0c546a146107d5578063fd7fa460146107ea578063ff758788146107ff576102bf565b8063ca15c873146106cc578063cc48b947146106ec578063ce681ce614610701578063d547741f14610721578063dac3fc3f14610741578063e09974b914610761576102bf565b806392ea3b4c1161012957806392ea3b4c14610605578063a217fddf1461061a578063a6e8670e1461062f578063a91ee0dc1461064f578063a938a6051461066f578063acc3a93914610684578063b2d4d6a3146106b7576102bf565b8063821f92671461055b578063869890381461057b5780638b8292ec146105905780638d62d949146105b05780639010d07c146105c557806391d14854146105e5576102bf565b80634e71d92d1161021f5780636ec4be90116101d85780636ec4be90146104a75780636fb7f558146104bc57806371def0b3146104d157806372285326146104f1578063730464a91461050657806375b238fc146105265780637df3f40c1461053b576102bf565b80634e71d92d14610411578063567e98f91461042657806367cf3e181461043b578063683048351461045b5780636c7ac9d8146104705780636e7cf53414610485576102bf565b80632995fa0e116102715780632995fa0e146103705780632f2ff15d1461038557806336568abe146103a55780633ccfd60b146103c557806343b0934a146103da57806348cd4cb1146103fc576102bf565b806305871b78146102c4578063065c4313146102ef578063083c6323146103115780630ac8e0f314610326578063200272751461033b578063248a9ca314610350576102bf565b366102bf57005b600080fd5b3480156102d057600080fd5b506102d9610825565b6040516102e69190614c5d565b60405180910390f35b3480156102fb57600080fd5b5061030f61030a3660046148b5565b61082b565b005b34801561031d57600080fd5b506102d9610dc3565b34801561033257600080fd5b506102d9610dc9565b34801561034757600080fd5b506102d9610dcf565b34801561035c57600080fd5b506102d961036b3660046149aa565b610dd5565b34801561037c57600080fd5b5061030f610dea565b34801561039157600080fd5b5061030f6103a03660046149c2565b610f6f565b3480156103b157600080fd5b5061030f6103c03660046149c2565b610fd6565b3480156103d157600080fd5b5061030f611037565b3480156103e657600080fd5b506103ef6117b6565b6040516102e69190614b67565b34801561040857600080fd5b506102d96117c5565b34801561041d57600080fd5b5061030f6117cb565b34801561043257600080fd5b506102d9611aa9565b34801561044757600080fd5b506102d96104563660046148b5565b611aaf565b34801561046757600080fd5b506103ef611e07565b34801561047c57600080fd5b506103ef611e16565b34801561049157600080fd5b5061049a611e25565b6040516102e69190614c52565b3480156104b357600080fd5b506103ef611e2e565b3480156104c857600080fd5b506103ef611e3d565b3480156104dd57600080fd5b5061030f6104ec3660046147c9565b611e4c565b3480156104fd57600080fd5b506102d9612052565b34801561051257600080fd5b5061030f6105213660046147c9565b612058565b34801561053257600080fd5b506102d96123aa565b34801561054757600080fd5b5061030f610556366004614a2a565b6123bc565b34801561056757600080fd5b506102d9610576366004614a4e565b6126d9565b34801561058757600080fd5b506102d9612f4e565b34801561059c57600080fd5b506102d96105ab366004614a96565b612f54565b3480156105bc57600080fd5b506103ef613812565b3480156105d157600080fd5b506103ef6105e03660046149f1565b613821565b3480156105f157600080fd5b5061049a6106003660046149c2565b613839565b34801561061157600080fd5b506103ef613851565b34801561062657600080fd5b506102d9613860565b34801561063b57600080fd5b5061030f61064a3660046147c9565b613865565b34801561065b57600080fd5b5061030f61066a3660046147c9565b613931565b34801561067b57600080fd5b506102d96139e9565b34801561069057600080fd5b506106a461069f3660046147c9565b6139ef565b6040516102e69796959493929190615851565b3480156106c357600080fd5b506102d9613a2f565b3480156106d857600080fd5b506102d96106e73660046149aa565b613a35565b3480156106f857600080fd5b506103ef613a4c565b34801561070d57600080fd5b5061030f61071c3660046148b5565b613a5b565b34801561072d57600080fd5b5061030f61073c3660046149c2565b613d0c565b34801561074d57600080fd5b506106a461075c3660046147c9565b613d65565b34801561076d57600080fd5b506102d9613dae565b34801561078257600080fd5b506102d9613db4565b34801561079757600080fd5b506102d9613dba565b3480156107ac57600080fd5b5061030f6107bb3660046147c9565b613dc0565b3480156107cc57600080fd5b506103ef613e50565b3480156107e157600080fd5b506103ef613e5f565b3480156107f657600080fd5b506102d9613e6e565b34801561080b57600080fd5b50610814613e74565b6040516102e6959493929190614bcf565b60145481565b600b54156108545760405162461bcd60e51b815260040161084b90615078565b60405180910390fd5b6001600b819055546001600160a01b0316806108825760405162461bcd60e51b815260040161084b90614c66565b826001600160a01b0381166108a95760405162461bcd60e51b815260040161084b90614c66565b6006544311156108cb5760405162461bcd60e51b815260040161084b90614e79565b600083116108eb5760405162461bcd60e51b815260040161084b90615510565b600360009054906101000a90046001600160a01b03166001600160a01b031663b8c766b86040518163ffffffff1660e01b815260040160206040518083038186803b15801561093957600080fd5b505afa15801561094d573d6000803e3d6000fd5b505050506040513d601f19601f82011682018060405250810190610971919061498e565b15156001146109925760405162461bcd60e51b815260040161084b906150a6565b600260185561099f610dea565b600f5460408051633761ead760e11b815290516000926001600160a01b031691636ec3d5ae916004808301926020929190829003018186803b1580156109e457600080fd5b505afa1580156109f8573d6000803e3d6000fd5b505050506040513d601f19601f82011682018060405250810190610a1c9190614a12565b905080600654034310610a415760405162461bcd60e51b815260040161084b90614eab565b6011546001600160a01b0316610a7157601180546001600160a01b0319166001600160a01b038716179055610bf6565b600e546011546040516367265c3b60e11b81526000926001600160a01b039081169263ce4cb87692610aab92909116903090600401614bb5565b60206040518083038186803b158015610ac357600080fd5b505afa158015610ad7573d6000803e3d6000fd5b505050506040513d601f19601f82011682018060405250810190610afb9190614a12565b1180610b8e5750600f54601154604051632638fdf560e01b81526000926001600160a01b0390811692632638fdf592610b3c92909116903090600401614bb5565b60206040518083038186803b158015610b5457600080fd5b505afa158015610b68573d6000803e3d6000fd5b505050506040513d601f19601f82011682018060405250810190610b8c9190614a12565b115b15610bc5576011546001600160a01b03868116911614610bc05760405162461bcd60e51b815260040161084b9061525b565b610bf6565b6011546001600160a01b03868116911614610bf657601180546001600160a01b0319166001600160a01b0387161790555b600c546040516370a0823160e01b815285916001600160a01b0316906370a0823190610c26903090600401614b67565b60206040518083038186803b158015610c3e57600080fd5b505afa158015610c52573d6000803e3d6000fd5b505050506040513d601f19601f82011682018060405250810190610c769190614a12565b1015610c945760405162461bcd60e51b815260040161084b906155af565b601254610ca19085613f28565b601255600f54604051600091610cc7916001600160a01b03909116908890602001614bb5565b60408051601f1981840301815290829052600c54600d5463cae9ca5160e01b84529193506001600160a01b039081169263cae9ca5192610d0f92169089908690600401614c22565b602060405180830381600087803b158015610d2957600080fd5b505af1158015610d3d573d6000803e3d6000fd5b505050506040513d601f19601f82011682018060405250810190610d61919061498e565b610d7d5760405162461bcd60e51b815260040161084b90615151565b7fd706f7b85b6f270583513d8371d6264d347f648849b8c09e1630b2cc536dba5d8686604051610dae929190614b7b565b60405180910390a150506000600b5550505050565b60065481565b60135481565b60045481565b6000908152601b602052604090206002015490565b600c546001600160a01b0316610eeb576000806000806000600160009054906101000a90046001600160a01b03166001600160a01b031663a782ebd56040518163ffffffff1660e01b815260040160a06040518083038186803b158015610e5057600080fd5b505afa158015610e64573d6000803e3d6000fd5b505050506040513d601f19601f82011682018060405250810190610e8891906147e5565b600c80546001600160a01b03199081166001600160a01b0397881617909155600d8054821695871695909517909455600f8054851693861693909317909255600e8054841691851691909117905560108054909216921691909117905550505050505b600c546001600160a01b031615801590610f0f5750600d546001600160a01b031615155b8015610f255750600e546001600160a01b031615155b8015610f3b5750600f546001600160a01b031615155b8015610f5157506010546001600160a01b031615155b610f6d5760405162461bcd60e51b815260040161084b9061544f565b565b6000828152601b6020526040902060020154610f8d90610600613f82565b610fc85760405162461bcd60e51b815260040180806020018281038252602f8152602001806158c9602f913960400191505060405180910390fd5b610fd28282613f86565b5050565b610fde613f82565b6001600160a01b0316816001600160a01b03161461102d5760405162461bcd60e51b815260040180806020018281038252602f815260200180615969602f913960400191505060405180910390fd5b610fd28282613fef565b600060065411801561104a575043600654105b6110665760405162461bcd60e51b815260040161084b90615584565b600080600080600160009054906101000a90046001600160a01b03166001600160a01b031663a782ebd56040518163ffffffff1660e01b815260040160a06040518083038186803b1580156110ba57600080fd5b505afa1580156110ce573d6000803e3d6000fd5b505050506040513d601f19601f820116820180604052508101906110f291906147e5565b50929650909450925090506001600160a01b0384161580159061111d57506001600160a01b03831615155b801561113157506001600160a01b03821615155b801561114557506001600160a01b03811615155b6111615760405162461bcd60e51b815260040161084b90614ef4565b6011546001600160a01b0316156112a0576011546040516367265c3b60e11b81526001600160a01b038381169263ce4cb876926111a692909116903090600401614bb5565b60206040518083038186803b1580156111be57600080fd5b505afa1580156111d2573d6000803e3d6000fd5b505050506040513d601f19601f820116820180604052508101906111f69190614a12565b1580156112845750601154604051632638fdf560e01b81526001600160a01b0384811692632638fdf59261123292909116903090600401614bb5565b60206040518083038186803b15801561124a57600080fd5b505afa15801561125e573d6000803e3d6000fd5b505050506040513d601f19601f820116820180604052508101906112829190614a12565b155b6112a05760405162461bcd60e51b815260040161084b906150d8565b336000908152600960205260409020600681015460ff16156112d45760405162461bcd60e51b815260040161084b90614cd4565b601a5460ff166114c357601a805460ff191660011790556002546001600160a01b0390811690861614156114c3576000546040516370a0823160e01b81526001600160a01b03909116906370a0823190611332903090600401614b67565b60206040518083038186803b15801561134a57600080fd5b505afa15801561135e573d6000803e3d6000fd5b505050506040513d601f19601f820116820180604052508101906113829190614a12565b6015556040516370a0823160e01b81526001600160a01b038516906370a08231906113b1903090600401614b67565b60206040518083038186803b1580156113c957600080fd5b505afa1580156113dd573d6000803e3d6000fd5b505050506040513d601f19601f820116820180604052508101906114019190614a12565b6017556040516370a0823160e01b81526001600160a01b038616906370a0823190611430903090600401614b67565b60206040518083038186803b15801561144857600080fd5b505afa15801561145c573d6000803e3d6000fd5b505050506040513d601f19601f820116820180604052508101906114809190614a12565b601681905560085460175490916114a59161149f90633b9aca00614058565b90613f28565b10156114c35760405162461bcd60e51b815260040161084b9061511a565b8054806114e25760405162461bcd60e51b815260040161084b90615316565b43600383015560068201805460ff191660011790556002546001600160a01b0390811690871614156115d35760008060008060165411156115415761153e6008546115388660165461409a90919063ffffffff16565b90614058565b92505b60175415611567576115646008546115388660175461409a90919063ffffffff16565b91505b6015541561158d5761158a6008546115388660155461409a90919063ffffffff16565b90505b6005850181905581156115b6576115ac8361149f84633b9aca00614058565b60048601556115be565b600485018390555b6115cb89898585856140f3565b50505061176c565b6002546001600160a01b03166116a1578154600483015411156116085760405162461bcd60e51b815260040161084b90615316565b6004820181905530803182111561161e57600080fd5b6000336001600160a01b03168360405161163790614b64565b60006040518083038185875af1925050503d8060008114611674576040519150601f19603f3d011682016040523d82523d6000602084013e611679565b606091505b505090508061169a5760405162461bcd60e51b815260040161084b906151bd565b505061176c565b8154600483015411156116c65760405162461bcd60e51b815260040161084b90615316565b600480830182905560025460405163a9059cbb60e01b81526001600160a01b039091169163a9059cbb916116fe913391869101614b7b565b602060405180830381600087803b15801561171857600080fd5b505af115801561172c573d6000803e3d6000fd5b505050506040513d601f19601f82011682018060405250810190611750919061498e565b61176c5760405162461bcd60e51b815260040161084b90614e48565b6004820154600583015460405133927fdf273cb619d95419a9cd0ec88123a0538c85064229baa6363788f743fff90deb926117a6926157d3565b60405180910390a2505050505050565b6002546001600160a01b031681565b60055481565b600b54156117eb5760405162461bcd60e51b815260040161084b90615078565b6001600b5560035460408051631718ecd760e31b815290516001600160a01b039092169163b8c766b891600480820192602092909190829003018186803b15801561183557600080fd5b505afa158015611849573d6000803e3d6000fd5b505050506040513d601f19601f8201168201806040525081019061186d919061498e565b151560011461188e5760405162461bcd60e51b815260040161084b90614f2b565b3360009081526009602052604081206006546001820154106118c25760405162461bcd60e51b815260040161084b90615192565b6118cc3343611aaf565b9150600082116118ee5760405162461bcd60e51b815260040161084b90614d3d565b60035460405163032f7adb60e61b81526000916001600160a01b03169063cbdeb6c09061191f903090600401614b67565b60206040518083038186803b15801561193757600080fd5b505afa15801561194b573d6000803e3d6000fd5b505050506040513d601f19601f8201168201806040525081019061196f9190614a12565b90508061198784600754613f2890919063ffffffff16565b11156119a55760405162461bcd60e51b815260040161084b906156db565b43600183015560028201546119ba9084613f28565b60028301556007546119cc9084613f28565b600755600354604051635569f64b60e11b81526001600160a01b039091169063aad3ec9690611a019033908790600401614b7b565b602060405180830381600087803b158015611a1b57600080fd5b505af1158015611a2f573d6000803e3d6000fd5b505050506040513d601f19601f82011682018060405250810190611a53919061498e565b611a5c57600080fd5b336001600160a01b03167f987d620f307ff6b94d58743cb7a7509f24071586a77759b77c2d4e29f75a2f9a8443604051611a979291906157d3565b60405180910390a250506000600b5550565b60085481565b6006546000908190831115611ac45760065492505b600554831080611aea57506001600160a01b038416600090815260096020526040902054155b80611b1157506006546001600160a01b038516600090815260096020526040902060010154115b80611b3657506001600160a01b03841660009081526009602052604090206001015483105b15611b4357506000611dfe565b6005546006546001600160a01b038616600090815260096020526040902060010154821015611b8b576001600160a01b03861660009081526009602052604090206001015491505b80851015611b965750835b6003546040805163c1b422fd60e01b815290516000926001600160a01b03169163c1b422fd9160048083019286929190829003018186803b158015611bda57600080fd5b505afa158015611bee573d6000803e3d6000fd5b505050506040513d6000823e601f3d908101601f19168201604052611c1691908101906148e0565b805190915015611dfa576003546040805163d105bf8560e01b815290516000928692849283926001600160a01b03169163d105bf85916004808301926020929190829003018186803b158015611c6b57600080fd5b505afa158015611c7f573d6000803e3d6000fd5b505050506040513d601f19601f82011682018060405250810190611ca39190614a12565b6001600160a01b038c166000908152600960205260408120549192508c91905b8751811015611df257878181518110611cd857fe5b6020908102919091010151600354604051632f8deb1560e11b81529198506001600160a01b031690635f1bd62a90611d14908a90600401614c5d565b60206040518083038186803b158015611d2c57600080fd5b505afa158015611d40573d6000803e3d6000fd5b505050506040513d601f19601f82011682018060405250810190611d649190614a12565b945086861115611d7357611dea565b868911611db9578415611db4576000611d8c8a8c6144ba565b9050611db0611da98761153886611da38a8761409a565b9061409a565b8d90613f28565b9b50505b611df2565b8415611de6576000611dcb888c6144ba565b9050611de2611da98761153886611da38a8761409a565b9b50505b8699505b600101611cc3565b505050505050505b5050505b90505b92915050565b6001546001600160a01b031681565b600f546001600160a01b031681565b601a5460ff1681565b6010546001600160a01b031681565b600e546001600160a01b031681565b600b5415611e6c5760405162461bcd60e51b815260040161084b90615078565b6001600b819055546001600160a01b031680611e9a5760405162461bcd60e51b815260040161084b90614c66565b60115482906001600160a01b03808316911614611ec95760405162461bcd60e51b815260040161084b9061525b565b600360009054906101000a90046001600160a01b03166001600160a01b031663b8c766b86040518163ffffffff1660e01b815260040160206040518083038186803b158015611f1757600080fd5b505afa158015611f2b573d6000803e3d6000fd5b505050506040513d601f19601f82011682018060405250810190611f4f919061498e565b1515600114611f705760405162461bcd60e51b815260040161084b906150a6565b6003601855601954611f83906001613f28565b601955611f8e610dea565b600f54604051636b2160b760e01b81526001600160a01b0390911690636b2160b790611fbe908690600401614b67565b602060405180830381600087803b158015611fd857600080fd5b505af1158015611fec573d6000803e3d6000fd5b505050506040513d601f19601f82011682018060405250810190612010919061498e565b507ff5ce649f20a9ec3170091cbbbb6aff6a879655e0d7f20acae0ab8a66c2fcc8e8836040516120409190614b67565b60405180910390a150506000600b5550565b60185481565b600b54156120785760405162461bcd60e51b815260040161084b90615078565b6001600b819055546001600160a01b0316806120a65760405162461bcd60e51b815260040161084b90614c66565b60115482906001600160a01b038083169116146120d55760405162461bcd60e51b815260040161084b9061525b565b600560185414156120f85760405162461bcd60e51b815260040161084b906153d2565b600360009054906101000a90046001600160a01b03166001600160a01b031663b8c766b86040518163ffffffff1660e01b815260040160206040518083038186803b15801561214657600080fd5b505afa15801561215a573d6000803e3d6000fd5b505050506040513d601f19601f8201168201806040525081019061217e919061498e565b151560011461219f5760405162461bcd60e51b815260040161084b906150a6565b60056018556019805460009091556121b5610dea565b600e546011546040516367265c3b60e11b81526001600160a01b039283169263ce4cb876926121eb929116903090600401614bb5565b60206040518083038186803b15801561220357600080fd5b505afa158015612217573d6000803e3d6000fd5b505050506040513d601f19601f8201168201806040525081019061223b9190614a12565b61225057601180546001600160a01b03191690555b600f54604051632638fdf560e01b81526001600160a01b0390911690632638fdf5906122829087903090600401614bb5565b60206040518083038186803b15801561229a57600080fd5b505afa1580156122ae573d6000803e3d6000fd5b505050506040513d601f19601f820116820180604052508101906122d29190614a12565b601380549091019055600f5460405163fb0713b160e01b81526001600160a01b039091169063fb0713b1906123109087908590600190600401614bff565b602060405180830381600087803b15801561232a57600080fd5b505af115801561233e573d6000803e3d6000fd5b505050506040513d601f19601f82011682018060405250810190612362919061498e565b507fd07c1a80bfc96d3611f58fc19165b875cdbc1bdc53d8189e649a74930d9e3d808482600160405161239793929190614bff565b60405180910390a150506000600b555050565b60008051602061594983398151915281565b600b54156123dc5760405162461bcd60e51b815260040161084b90615078565b6001600b556123e9610dea565b8015612594576010546001600160a01b03166124175760405162461bcd60e51b815260040161084b90614e13565b600c546040516370a0823160e01b815283916001600160a01b0316906370a0823190612447903090600401614b67565b60206040518083038186803b15801561245f57600080fd5b505afa158015612473573d6000803e3d6000fd5b505050506040513d601f19601f820116820180604052508101906124979190614a12565b10156124b55760405162461bcd60e51b815260040161084b90614f90565b6010546040516000916124d8916001600160a01b03909116908190602001614bb5565b60408051601f1981840301815290829052600c54600d5463cae9ca5160e01b84529193506001600160a01b039081169263cae9ca519261252092169087908690600401614c22565b602060405180830381600087803b15801561253a57600080fd5b505af115801561254e573d6000803e3d6000fd5b505050506040513d601f19601f82011682018060405250810190612572919061498e565b61258e5760405162461bcd60e51b815260040161084b906152c7565b506126d0565b600d546040516370a0823160e01b815283916001600160a01b0316906370a08231906125c4903090600401614b67565b60206040518083038186803b1580156125dc57600080fd5b505afa1580156125f0573d6000803e3d6000fd5b505050506040513d601f19601f820116820180604052508101906126149190614a12565b10156126325760405162461bcd60e51b815260040161084b9061501f565b600d5460405163f53fe70f60e01b81526001600160a01b039091169063f53fe70f90612662908590600401614c5d565b602060405180830381600087803b15801561267c57600080fd5b505af1158015612690573d6000803e3d6000fd5b505050506040513d601f19601f820116820180604052508101906126b4919061498e565b6126d05760405162461bcd60e51b815260040161084b90615418565b50506000600b55565b6000600b546000146126fd5760405162461bcd60e51b815260040161084b90615078565b6001600b556006544311156127245760405162461bcd60e51b815260040161084b90615551565b600360009054906101000a90046001600160a01b03166001600160a01b031663b8c766b86040518163ffffffff1660e01b815260040160206040518083038186803b15801561277257600080fd5b505afa158015612786573d6000803e3d6000fd5b505050506040513d601f19601f820116820180604052508101906127aa919061498e565b15156001146127cb5760405162461bcd60e51b815260040161084b9061565f565b600282106127eb5760405162461bcd60e51b815260040161084b9061522b565b6127f3610dea565b600d546040516370a0823160e01b81526000916001600160a01b0316906370a0823190612824903090600401614b67565b60206040518083038186803b15801561283c57600080fd5b505afa158015612850573d6000803e3d6000fd5b505050506040513d601f19601f820116820180604052508101906128749190614a12565b600c546040516370a0823160e01b81529192506000916001600160a01b03909116906370a08231906128aa903090600401614b67565b60206040518083038186803b1580156128c257600080fd5b505afa1580156128d6573d6000803e3d6000fd5b505050506040513d601f19601f820116820180604052508101906128fa9190614a12565b6011549091506000906001600160a01b031615612a2e57600e546011546040516367265c3b60e11b81526001600160a01b039283169263ce4cb87692612947929116903090600401614bb5565b60206040518083038186803b15801561295f57600080fd5b505afa158015612973573d6000803e3d6000fd5b505050506040513d601f19601f820116820180604052508101906129979190614a12565b600f54601154604051632638fdf560e01b8152929350612a2b926001600160a01b0392831692632638fdf5926129d4929116903090600401614bb5565b60206040518083038186803b1580156129ec57600080fd5b505afa158015612a00573d6000803e3d6000fd5b505050506040513d601f19601f82011682018060405250810190612a249190614a12565b8290613f28565b90505b828215612a4957612a46612a2484633b9aca0061409a565b90505b89811015612a695760405162461bcd60e51b815260040161084b90615292565b8115612a7c57612a798183613f28565b90505b600854612a8d90633b9aca0061409a565b81118015612abd575089612aba612ab3633b9aca0060085461409a90919063ffffffff16565b83906144ba565b10155b612ad95760405162461bcd60e51b815260040161084b906151f4565b89841015612bd557601054604051600091612b04916001600160a01b03909116908190602001614bb5565b60408051601f1981840301815291905290506000612b2a633b9aca006115388e896144ba565b600c54600d5460405163cae9ca5160e01b81529293506001600160a01b039182169263cae9ca5192612b6492169085908790600401614c22565b602060405180830381600087803b158015612b7e57600080fd5b505af1158015612b92573d6000803e3d6000fd5b505050506040513d601f19601f82011682018060405250810190612bb6919061498e565b612bd25760405162461bcd60e51b815260040161084b906154bd565b50505b50506014805489019055505060015460408051630141158f60e61b81529051600092839283926001600160a01b039092169163504563c09160048082019260a092909190829003018186803b158015612c2d57600080fd5b505afa158015612c41573d6000803e3d6000fd5b505050506040513d601f19601f82011682018060405250810190612c659190614859565b509295509350909150506001600160a01b038316612c955760405162461bcd60e51b815260040161084b90614c9d565b600d5460405163095ea7b360e01b81526001600160a01b039091169063095ea7b390612cc79086908d90600401614b7b565b602060405180830381600087803b158015612ce157600080fd5b505af1158015612cf5573d6000803e3d6000fd5b505050506040513d601f19601f82011682018060405250810190612d19919061498e565b612d355760405162461bcd60e51b815260040161084b90615692565b84612e0b576040805161010081018252600d546001600160a01b0390811682526000548116602083015262ffffff841682840152306060830152608082018a905260a082018c905260c082018b905288811660e0830152915163414bf38960e01b8152909185169063414bf38990612db190849060040161576a565b602060405180830381600087803b158015612dcb57600080fd5b505af1158015612ddf573d6000803e3d6000fd5b505050506040513d601f19601f82011682018060405250810190612e039190614a12565b945050612f02565b8460011415612f02576040805160a08101909152600d54600080549092918291612e4b916001600160a01b03908116918791899183911660c08701614b12565b6040516020818303038152906040528152602001306001600160a01b031681526020018981526020018b81526020018a8152509050836001600160a01b031663c04b8d59826040518263ffffffff1660e01b8152600401612eac9190615712565b602060405180830381600087803b158015612ec657600080fd5b505af1158015612eda573d6000803e3d6000fd5b505050506040513d601f19601f82011682018060405250810190612efe9190614a12565b9450505b7f74842f5cb50433259975dc03edd7aa489cadd26488ed7706ab593b9eb3d59101338a86604051612f3593929190614b94565b60405180910390a150506000600b555095945050505050565b600a5481565b6000600b54600014612f785760405162461bcd60e51b815260040161084b90615078565b6001600b55600654431115612f9f5760405162461bcd60e51b815260040161084b90614e79565b600360009054906101000a90046001600160a01b03166001600160a01b031663b8c766b86040518163ffffffff1660e01b815260040160206040518083038186803b158015612fed57600080fd5b505afa158015613001573d6000803e3d6000fd5b505050506040513d601f19601f82011682018060405250810190613025919061498e565b15156001146130465760405162461bcd60e51b815260040161084b906150a6565b600282106130665760405162461bcd60e51b815260040161084b9061538b565b61306e610dea565b600d546040516370a0823160e01b81526000916001600160a01b0316906370a082319061309f903090600401614b67565b60206040518083038186803b1580156130b757600080fd5b505afa1580156130cb573d6000803e3d6000fd5b505050506040513d601f19601f820116820180604052508101906130ef9190614a12565b600c546040516370a0823160e01b81529192506000916001600160a01b03909116906370a0823190613125903090600401614b67565b60206040518083038186803b15801561313d57600080fd5b505afa158015613151573d6000803e3d6000fd5b505050506040513d601f19601f820116820180604052508101906131759190614a12565b6011549091506000906001600160a01b03161561325257600e546011546040516367265c3b60e11b81526001600160a01b039283169263ce4cb876926131c2929116903090600401614bb5565b60206040518083038186803b1580156131da57600080fd5b505afa1580156131ee573d6000803e3d6000fd5b505050506040513d601f19601f820116820180604052508101906132129190614a12565b600f54601154604051632638fdf560e01b815292935061324f926001600160a01b0392831692632638fdf5926129d4929116903090600401614bb5565b90505b82821561326d5761326a612a2484633b9aca0061409a565b90505b8881101561328d5760405162461bcd60e51b815260040161084b90615292565b81156132a05761329d8183613f28565b90505b6008546132b190633b9aca0061409a565b811180156132da5750886132d7612ab3633b9aca0060085461409a90919063ffffffff16565b10155b6132f65760405162461bcd60e51b815260040161084b906151f4565b888410156133f257601054604051600091613321916001600160a01b03909116908190602001614bb5565b60408051601f1981840301815291905290506000613347633b9aca006115388d896144ba565b600c54600d5460405163cae9ca5160e01b81529293506001600160a01b039182169263cae9ca519261338192169085908790600401614c22565b602060405180830381600087803b15801561339b57600080fd5b505af11580156133af573d6000803e3d6000fd5b505050506040513d601f19601f820116820180604052508101906133d3919061498e565b6133ef5760405162461bcd60e51b815260040161084b906154bd565b50505b50506014805488019055505060015460408051630141158f60e61b8152905160009283926001600160a01b039091169163504563c09160048082019260a092909190829003018186803b15801561344857600080fd5b505afa15801561345c573d6000803e3d6000fd5b505050506040513d601f19601f820116820180604052508101906134809190614859565b9195509093505050506001600160a01b0381166134af5760405162461bcd60e51b815260040161084b906153ac565b600d5460405163095ea7b360e01b81526001600160a01b039091169063095ea7b3906134e19084908b90600401614b7b565b602060405180830381600087803b1580156134fb57600080fd5b505af115801561350f573d6000803e3d6000fd5b505050506040513d601f19601f82011682018060405250810190613533919061498e565b61354f5760405162461bcd60e51b815260040161084b90615692565b83613678576040805160028082526060820183526000926020830190803683375050600d5482519293506001600160a01b03169183915060009061358f57fe5b6001600160a01b0392831660209182029290920101526000548251911690829060019081106135ba57fe5b6001600160a01b0392831660209182029290920101526040516338ed173960e01b81526000918416906338ed1739906135ff908c908c90879030908e906004016157e1565b600060405180830381600087803b15801561361957600080fd5b505af115801561362d573d6000803e3d6000fd5b505050506040513d6000823e601f3d908101601f1916820160405261365591908101906148e0565b90508060018251038151811061366757fe5b6020026020010151945050506137c8565b60408051600380825260808201909252600091602082016060803683375050600d5482519293506001600160a01b0316918391506000906136b557fe5b60200260200101906001600160a01b031690816001600160a01b03168152505082816001815181106136e357fe5b6001600160a01b03928316602091820292909201015260005482519116908290600290811061370e57fe5b6001600160a01b0392831660209182029290920101526040516338ed173960e01b81526000918416906338ed173990613753908c908c90879030908e906004016157e1565b600060405180830381600087803b15801561376d57600080fd5b505af1158015613781573d6000803e3d6000fd5b505050506040513d6000823e601f3d908101601f191682016040526137a991908101906148e0565b9050806001825103815181106137bb57fe5b6020026020010151945050505b7f0755a5ae7e9cad421afd4574b0aa39deecf7ab99e1933e34d8adb666cf22a2ea3388856040516137fb93929190614b94565b60405180910390a150506000600b55949350505050565b600d546001600160a01b031681565b6000828152601b60205260408120611dfe90836144fc565b6000828152601b60205260408120611dfe9083614508565b6011546001600160a01b031681565b600081565b61387d60008051602061594983398151915233613839565b6138995760405162461bcd60e51b815260040161084b90615346565b6001600160a01b038116158015906138bf57506011546001600160a01b03828116911614155b6138db5760405162461bcd60e51b815260040161084b90614dd2565b601180546001600160a01b0319166001600160a01b0383161790556040517fbcf2b04f5517cca822ae60e21bb6e3889b8d8307ea062c5266c63a014386c99090613926908390614b67565b60405180910390a150565b61394960008051602061594983398151915233613839565b6139655760405162461bcd60e51b815260040161084b90615346565b806001600160a01b03811661398c5760405162461bcd60e51b815260040161084b90614c66565b600180546001600160a01b0319166001600160a01b0384811691909117918290556040517f278c70ced5f3e0e5eeb385b5ff9cb735748ba00a625147e66065ed48fc1562cd926139dd921690614b67565b60405180910390a15050565b60155481565b6009602052600090815260409020805460018201546002830154600384015460048501546005860154600690960154949593949293919290919060ff1687565b60075481565b6000818152601b60205260408120611e019061451d565b600c546001600160a01b031681565b600b5415613a7b5760405162461bcd60e51b815260040161084b90615078565b6001600b819055546001600160a01b031680613aa95760405162461bcd60e51b815260040161084b90614c66565b60115483906001600160a01b03808316911614613ad85760405162461bcd60e51b815260040161084b9061525b565b600360009054906101000a90046001600160a01b03166001600160a01b031663b8c766b86040518163ffffffff1660e01b815260040160206040518083038186803b158015613b2657600080fd5b505afa158015613b3a573d6000803e3d6000fd5b505050506040513d601f19601f82011682018060405250810190613b5e919061498e565b1515600114613b7f5760405162461bcd60e51b815260040161084b906150a6565b6003601855601954613b92906001613f28565b601955613b9d610dea565b600e546040516367265c3b60e11b81526000916001600160a01b03169063ce4cb87690613bd09088903090600401614bb5565b60206040518083038186803b158015613be857600080fd5b505afa158015613bfc573d6000803e3d6000fd5b505050506040513d601f19601f82011682018060405250810190613c209190614a12565b905083811015613c425760405162461bcd60e51b815260040161084b90614da6565b600f5460405163da95ebf760e01b81526001600160a01b039091169063da95ebf790613c749088908890600401614b7b565b602060405180830381600087803b158015613c8e57600080fd5b505af1158015613ca2573d6000803e3d6000fd5b505050506040513d601f19601f82011682018060405250810190613cc6919061498e565b507f1ac2a17d8d7ec451060cfbcbb66b61b7fd5fe7f887d9423102809f74bd207e828585604051613cf8929190614b7b565b60405180910390a150506000600b55505050565b6000828152601b6020526040902060020154613d2a90610600613f82565b61102d5760405162461bcd60e51b81526004018080602001828103825260308152602001806158f86030913960400191505060405180910390fd5b6001600160a01b03166000908152600960205260409020805460018201546002830154600384015460048501546005860154600690960154949693959294919390929160ff1690565b60195481565b60165481565b60175481565b613dd860008051602061594983398151915233613839565b613df45760405162461bcd60e51b815260040161084b90615346565b336001600160a01b0382161415613e1d5760405162461bcd60e51b815260040161084b90614d0b565b613e3560008051602061594983398151915282610f6f565b613e4d60008051602061594983398151915233613d0c565b50565b6003546001600160a01b031681565b6000546001600160a01b031681565b60125481565b6000806000806000600160009054906101000a90046001600160a01b03166001600160a01b031663504563c06040518163ffffffff1660e01b815260040160a06040518083038186803b158015613eca57600080fd5b505afa158015613ede573d6000803e3d6000fd5b505050506040513d601f19601f82011682018060405250810190613f029190614859565b945094509450945094509091929394565b6000611dfe836001600160a01b038416614528565b600082820183811015611dfe576040805162461bcd60e51b815260206004820152601b60248201527f536166654d6174683a206164646974696f6e206f766572666c6f770000000000604482015290519081900360640190fd5b3390565b6000828152601b60205260409020613f9e9082613f13565b15610fd257613fab613f82565b6001600160a01b0316816001600160a01b0316837f2f8788117e7eff1d82e926ec794901d17c78024a50270940304540a733656f0d60405160405180910390a45050565b6000828152601b602052604090206140079082614572565b15610fd257614014613f82565b6001600160a01b0316816001600160a01b0316837ff6391f5c32d9c69d2a47ea670b442974b53935d1edc7fd64eb21e047a839171b60405160405180910390a45050565b6000611dfe83836040518060400160405280601a81526020017f536166654d6174683a206469766973696f6e206279207a65726f000000000000815250614587565b6000826140a957506000611e01565b828202828482816140b657fe5b0414611dfe5760405162461bcd60e51b81526004018080602001828103825260218152602001806159286021913960400191505060405180910390fd5b8215614231576040516370a0823160e01b815283906001600160a01b038716906370a0823190614127903090600401614b67565b60206040518083038186803b15801561413f57600080fd5b505afa158015614153573d6000803e3d6000fd5b505050506040513d601f19601f820116820180604052508101906141779190614a12565b10156141955760405162461bcd60e51b815260040161084b90615628565b60405163a9059cbb60e01b81526001600160a01b0386169063a9059cbb906141c39033908790600401614b7b565b602060405180830381600087803b1580156141dd57600080fd5b505af11580156141f1573d6000803e3d6000fd5b505050506040513d601f19601f82011682018060405250810190614215919061498e565b6142315760405162461bcd60e51b815260040161084b90614f59565b811561436f576040516370a0823160e01b815282906001600160a01b038616906370a0823190614265903090600401614b67565b60206040518083038186803b15801561427d57600080fd5b505afa158015614291573d6000803e3d6000fd5b505050506040513d601f19601f820116820180604052508101906142b59190614a12565b10156142d35760405162461bcd60e51b815260040161084b906155f1565b60405163e3b99e8560e01b81526001600160a01b0385169063e3b99e85906143019033908690600401614b7b565b602060405180830381600087803b15801561431b57600080fd5b505af115801561432f573d6000803e3d6000fd5b505050506040513d601f19601f82011682018060405250810190614353919061498e565b61436f5760405162461bcd60e51b815260040161084b90614fe8565b80156144b3576000546040516370a0823160e01b815282916001600160a01b0316906370a08231906143a5903090600401614b67565b60206040518083038186803b1580156143bd57600080fd5b505afa1580156143d1573d6000803e3d6000fd5b505050506040513d601f19601f820116820180604052508101906143f59190614a12565b10156144135760405162461bcd60e51b815260040161084b90614d6f565b60005460405163a9059cbb60e01b81526001600160a01b039091169063a9059cbb906144459033908590600401614b7b565b602060405180830381600087803b15801561445f57600080fd5b505af1158015614473573d6000803e3d6000fd5b505050506040513d601f19601f82011682018060405250810190614497919061498e565b6144b35760405162461bcd60e51b815260040161084b90615486565b5050505050565b6000611dfe83836040518060400160405280601e81526020017f536166654d6174683a207375627472616374696f6e206f766572666c6f770000815250614629565b6000611dfe8383614683565b6000611dfe836001600160a01b0384166146e7565b6000611e01826146ff565b600061453483836146e7565b61456a57508154600181810184556000848152602080822090930184905584548482528286019093526040902091909155611e01565b506000611e01565b6000611dfe836001600160a01b038416614703565b600081836146135760405162461bcd60e51b81526004018080602001828103825283818151815260200191508051906020019080838360005b838110156145d85781810151838201526020016145c0565b50505050905090810190601f1680156146055780820380516001836020036101000a031916815260200191505b509250505060405180910390fd5b50600083858161461f57fe5b0495945050505050565b6000818484111561467b5760405162461bcd60e51b81526020600482018181528351602484015283519092839260449091019190850190808383600083156145d85781810151838201526020016145c0565b505050900390565b815460009082106146c55760405162461bcd60e51b81526004018080602001828103825260228152602001806158a76022913960400191505060405180910390fd5b8260000182815481106146d457fe5b9060005260206000200154905092915050565b60009081526001919091016020526040902054151590565b5490565b600081815260018301602052604081205480156147bf578354600019808301919081019060009087908390811061473657fe5b906000526020600020015490508087600001848154811061475357fe5b60009182526020808320909101929092558281526001898101909252604090209084019055865487908061478357fe5b60019003818190600052602060002001600090559055866001016000878152602001908152602001600020600090556001945050505050611e01565b6000915050611e01565b6000602082840312156147da578081fd5b8135611dfe81615883565b600080600080600060a086880312156147fc578081fd5b855161480781615883565b602087015190955061481881615883565b604087015190945061482981615883565b606087015190935061483a81615883565b608087015190925061484b81615883565b809150509295509295909350565b600080600080600060a08688031215614870578081fd5b855161487b81615883565b602087015190955061488c81615883565b604087015190945061489d81615883565b60608701516080880151919450925061484b81615883565b600080604083850312156148c7578182fd5b82356148d281615883565b946020939093013593505050565b600060208083850312156148f2578182fd5b825167ffffffffffffffff80821115614909578384fd5b818501915085601f83011261491c578384fd5b81518181111561492857fe5b8381026040518582820101818110858211171561494157fe5b604052828152858101935084860182860187018a101561495f578788fd5b8795505b83861015614981578051855260019590950194938601938601614963565b5098975050505050505050565b60006020828403121561499f578081fd5b8151611dfe81615898565b6000602082840312156149bb578081fd5b5035919050565b600080604083850312156149d4578182fd5b8235915060208301356149e681615883565b809150509250929050565b60008060408385031215614a03578182fd5b50508035926020909101359150565b600060208284031215614a23578081fd5b5051919050565b60008060408385031215614a3c578182fd5b8235915060208301356149e681615898565b600080600080600060a08688031215614a65578081fd5b8535945060208601359350604086013592506060860135614a8581615883565b949793965091946080013592915050565b60008060008060808587031215614aab578182fd5b5050823594602084013594506040840135936060013592509050565b60008151808452815b81811015614aec57602081850181015186830182015201614ad0565b81811115614afd5782602083870101525b50601f01601f19169290920160200192915050565b6bffffffffffffffffffffffff19606096871b811682526001600160e81b031960e896871b8116601484015294871b811660178301529290941b909216602b840152921b909116602e82015260420190565b90565b6001600160a01b0391909116815260200190565b6001600160a01b03929092168252602082015260400190565b6001600160a01b039390931683526020830191909152604082015260600190565b6001600160a01b0392831681529116602082015260400190565b6001600160a01b039586168152938516602085015291841660408401526060830152909116608082015260a00190565b6001600160a01b0393909316835260208301919091521515604082015260600190565b600060018060a01b038516825283602083015260606040830152614c496060830184614ac7565b95945050505050565b901515815260200190565b90815260200190565b6020808252601b908201527f546f6b616d616b5374616b65723a207a65726f20616464726573730000000000604082015260600190565b6020808252601a908201527f546f6b616d616b5374616b65723a756e6973776170207a65726f000000000000604082015260600190565b6020808252601a908201527f5374616b65544f4e3a20416c7265616479207769746864726177000000000000604082015260600190565b6020808252601890820152772a37b5b0b6b0b5a9ba30b5b2b91d39b0b6b29037bbb732b960411b604082015260600190565b6020808252601890820152775374616b65544f4e3a20726577617264206973207a65726f60401b604082015260600190565b6020808252601d908201527f5374616b65544f4e3a20666c642062616c616e6365206973206c61636b000000604082015260600190565b602080825260129082015271546f6b616d616b5374616b65723a6c61636b60701b604082015260600190565b60208082526021908201527f546f6b616d616b5374616b65723a746f6b616d616b4c6179657232207a65726f6040820152600160fd1b606082015260800190565b6020808252818101527f546f6b616d616b5374616b65723a207377617050726f7879206973207a65726f604082015260600190565b60208082526017908201527614dd185ad95513d38e881d1c985b9cd9995c8819985a5b604a1b604082015260600190565b602080825260189082015277151bdad85b585ad4dd185ad95c8e9c195c9a5bd908195b9960421b604082015260600190565b60208082526029908201527f546f6b616d616b5374616b65723a706572696f64287769746864726177616c44604082015268195b185e4a48195b9960ba1b606082015260800190565b6020808252601f908201527f5374616b65544f4e3a2049546f6b616d616b5265676973747279207a65726f00604082015260600190565b60208082526014908201527314dd185ad95513d38e881b9bdd0818db1bdcd95960621b604082015260600190565b6020808252601b908201527f5374616b65544f4e3a207472616e7366657220746f6e206661696c0000000000604082015260600190565b60208082526038908201527f546f6b616d616b5374616b65723a2073776170544f4e746f57544f4e20746f6e6040820152770818985b185b98d9481a5cc81a5b9cdd59999a58da595b9d60421b606082015260800190565b6020808252601c908201527f5374616b65544f4e3a207472616e736665722077746f6e206661696c00000000604082015260600190565b60208082526039908201527f546f6b616d616b5374616b65723a2073776170544f4e746f57544f4e2077746f6040820152781b8818985b185b98d9481a5cc81a5b9cdd59999a58da595b9d603a1b606082015260800190565b602080825260149082015273151bdad85b585ad4dd185ad95c8e9313d0d2d15160621b604082015260600190565b602080825260189082015277151bdad85b585ad4dd185ad95c8e9b9bdd0818db1bdcd95960421b604082015260600190565b60208082526022908201527f5374616b65544f4e3a2072656d61696e20616d6f756e7420696e20746f6b616d604082015261616b60f01b606082015260800190565b6020808252601e908201527f5374616b65544f4e3a2066696e616c42616c616e6365206973206c61636b0000604082015260600190565b60208082526021908201527f546f6b616d616b5374616b65723a617070726f7665416e6443616c6c206661696040820152601b60fa1b606082015260800190565b60208082526011908201527014dd185ad95513d38e8818db185a5b5959607a1b604082015260600190565b6020808252601a908201527f5374616b65544f4e3a207769746864726177206661696c65642e000000000000604082015260600190565b6020808252601a908201527f546f6b616d616b5374616b65723a696e73756666696369656e74000000000000604082015260600190565b602080825260169082015275151bdad85b585ad4dd185ad95c8e881b9bc81ada5b9960521b604082015260600190565b6020808252601d908201527f546f6b616d616b5374616b65723a646966666572656e74206c61796572000000604082015260600190565b6020808252818101527f546f6b616d616b5374616b65723a2077746f6e20696e73756666696369656e74604082015260600190565b6020808252602f908201527f546f6b616d616b5374616b65723a73776170544f4e746f57544f4e206170707260408201526e1bdd99505b9910d85b1b0819985a5b608a1b606082015260800190565b6020808252601690820152755374616b65544f4e3a20416d6f756e742077726f6e6760501b604082015260600190565b60208082526025908201527f546f6b616d616b5374616b65723a2043616c6c6572206973206e6f7420616e2060408201526430b236b4b760d91b606082015260800190565b6020808252600790820152661b9bc81ada5b9960ca1b604082015260600190565b6020808252600c908201526b756e6973776170207a65726f60a01b604082015260600190565b60208082526026908201527f546f6b616d616b5374616b65723a416c72656164792050726f63657373556e5360408201526574616b696e6760d01b606082015260800190565b6020808252601c908201527f546f6b616d616b5374616b65723a73776170546f544f4e206661696c00000000604082015260600190565b6020808252601a908201527f546f6b616d616b5374616b65723a746f6b616d616b207a65726f000000000000604082015260600190565b6020808252601b908201527f5374616b65544f4e3a207472616e7366657220666c64206661696c0000000000604082015260600190565b60208082526033908201527f546f6b616d616b5374616b65723a65786368616e676557544f4e746f464c4420604082015272185c1c1c9bdd99505b9910d85b1b0819985a5b606a1b606082015260800190565b60208082526021908201527f546f6b616d616b5374616b65723a7374616b65416d6f756e74206973207a65726040820152606f60f81b606082015260800190565b602080825260199082015278151bdad85b585ad4dd185ad95c8e881c195c9a5bd908195b99603a1b604082015260600190565b60208082526011908201527014dd185ad95513d38e881b9bdd08195b99607a1b604082015260600190565b60208082526022908201527f546f6b616d616b5374616b65723a20746f6e2062616c616e6365206973207a65604082015261726f60f01b606082015260800190565b6020808252601e908201527f5374616b65544f4e3a2077746f6e2062616c616e6365206973206c61636b0000604082015260600190565b6020808252601d908201527f5374616b65544f4e3a20746f6e2062616c616e6365206973206c61636b000000604082015260600190565b602080825260199082015278151bdad85b585ad4dd185ad95c8e881b9bdd0818db1bdcd959603a1b604082015260600190565b60208082526029908201527f546f6b616d616b5374616b65723a63616e277420617070726f766520756e69736040820152683bb0b82937baba32b960b91b606082015260800190565b6020808252601e908201527f5374616b65544f4e3a20746f74616c2072657761726420657863656564730000604082015260600190565b600060208252825160a0602084015261572e60c0840182614ac7565b905060018060a01b0360208501511660408401526040840151606084015260608401516080840152608084015160a08401528091505092915050565b81516001600160a01b03908116825260208084015182169083015260408084015162ffffff16908301526060808401518216908301526080808401519083015260a0838101519083015260c0808401519083015260e09283015116918101919091526101000190565b918252602082015260400190565b600060a082018783526020878185015260a0604085015281875180845260c0860191508289019350845b818110156158305784516001600160a01b03168352938301939183019160010161580b565b50506001600160a01b03969096166060850152505050608001529392505050565b968752602087019590955260408601939093526060850191909152608084015260a0830152151560c082015260e00190565b6001600160a01b0381168114613e4d57600080fd5b8015158114613e4d57600080fdfe456e756d657261626c655365743a20696e646578206f7574206f6620626f756e6473416363657373436f6e74726f6c3a2073656e646572206d75737420626520616e2061646d696e20746f206772616e74416363657373436f6e74726f6c3a2073656e646572206d75737420626520616e2061646d696e20746f207265766f6b65536166654d6174683a206d756c7469706c69636174696f6e206f766572666c6f77df8b4c520ffe197c5343c6f5aec59570151ef9a492f2c624fd45ddde6135ec42416363657373436f6e74726f6c3a2063616e206f6e6c792072656e6f756e636520726f6c657320666f722073656c66a2646970667358221220fdae22383b26c1179a92b63bd99b23d9d7b10d9c7bc177f247d9cafcd0f5458a64736f6c63430007060033df8b4c520ffe197c5343c6f5aec59570151ef9a492f2c624fd45ddde6135ec42",
  "immutableReferences": {},
  "source": "//SPDX-License-Identifier: Unlicense\npragma solidity ^0.7.0;\npragma abicoder v2;\n\nimport \"../interfaces/IStakeTON.sol\";\nimport {IIStake1Vault} from \"../interfaces/IIStake1Vault.sol\";\nimport {IIERC20} from \"../interfaces/IIERC20.sol\";\nimport {IWTON} from \"../interfaces/IWTON.sol\";\n\nimport \"../libraries/LibTokenStake1.sol\";\nimport {SafeMath} from \"../utils/math/SafeMath.sol\";\nimport \"../connection/TokamakStaker.sol\";\nimport {\n    ERC165Checker\n} from \"@openzeppelin/contracts/introspection/ERC165Checker.sol\";\nimport {SafeERC20} from \"@openzeppelin/contracts/token/ERC20/SafeERC20.sol\";\n\n/// @title Stake Contract\n/// @notice It can be staked in Tokamak. Can be swapped using Uniswap.\n/// Stake contracts can interact with the vault to claim fld tokens\ncontract StakeTON is TokamakStaker, IStakeTON {\n    using SafeMath for uint256;\n\n    /// @dev event on staking\n    /// @param to the sender\n    /// @param amount the amount of staking\n    event Staked(address indexed to, uint256 amount);\n\n    /// @dev event on claim\n    /// @param to the sender\n    /// @param amount the amount of claim\n    /// @param claimBlock the block of claim\n    event Claimed(address indexed to, uint256 amount, uint256 claimBlock);\n\n    /// @dev event on withdrawal\n    /// @param to the sender\n    /// @param tonAmount the amount of TON withdrawal\n    /// @param fldAmount the amount of FLD withdrawal\n    event Withdrawal(address indexed to, uint256 tonAmount, uint256 fldAmount);\n\n    /// @dev constructor of StakeTON\n    constructor() {\n        _setRoleAdmin(ADMIN_ROLE, ADMIN_ROLE);\n        _setupRole(ADMIN_ROLE, msg.sender);\n    }\n\n    /// @dev receive ether\n    /// @dev call stake function with msg.value\n    receive() external payable {\n        // stake(msg.value);\n    }\n\n    /// @dev Initialize\n    // function initialize(\n    //     address _token,\n    //     address _paytoken,\n    //     address _vault,\n    //     uint256 _saleStartBlock,\n    //     uint256 _startBlock,\n    //     uint256 _period\n    // ) external onlyOwner {\n    //     require(\n    //         _token != address(0) &&\n    //             _vault != address(0) &&\n    //             _saleStartBlock < _startBlock, \"zero\"\n    //     );\n    //     token = _token;\n    //     paytoken = _paytoken;\n    //     vault = _vault;\n    //     saleStartBlock = _saleStartBlock;\n    //     startBlock = _startBlock;\n    //     endBlock = startBlock.add(_period);\n    // }\n\n    /// @dev Stake amount\n    /// @param amount  the amount of staked\n    /* function stake(uint256 amount) public payable override {\n        require(\n            (paytoken == address(0) && msg.value == amount) ||\n                (paytoken != address(0) && amount > 0),\n            \"StakeTON: zero\"\n        );\n        require(\n            block.number >= saleStartBlock && block.number < startBlock,\n            \"StakeTON: unavailable\"\n        );\n\n        require(!IIStake1Vault(vault).saleClosed(), \"StakeTON: not end\");\n\n        if (paytoken == address(0)) amount = msg.value;\n        else\n            require(\n                IIERC20(paytoken).balanceOf(msg.sender) >= amount,\n                \"StakeTON: insuffient\"\n            );\n\n        LibTokenStake1.StakedAmount storage staked = userStaked[msg.sender];\n        if (staked.amount == 0)  totalStakers = totalStakers.add(1);\n\n        staked.amount = staked.amount.add(amount);\n        totalStakedAmount = totalStakedAmount.add(amount);\n        if (paytoken != address(0))\n            require(\n                IIERC20(paytoken).transferFrom(\n                    msg.sender,\n                    address(this),\n                    amount\n                )\n            );\n\n        emit Staked(msg.sender, amount);\n    }\n    */\n\n    /// @dev withdraw\n    function withdraw() external override {\n        require(endBlock > 0 && endBlock < block.number, \"StakeTON: not end\");\n        (\n            address ton,\n            address wton,\n            address depositManager,\n            address seigManager,\n\n        ) = ITokamakRegistry(stakeRegistry).getTokamak();\n        require(\n            ton != address(0) &&\n                wton != address(0) &&\n                depositManager != address(0) &&\n                seigManager != address(0),\n            \"StakeTON: ITokamakRegistry zero\"\n        );\n        if (tokamakLayer2 != address(0)) {\n            require(\n                IISeigManager(seigManager).stakeOf(\n                    tokamakLayer2,\n                    address(this)\n                ) ==\n                    0 &&\n                    IIDepositManager(depositManager).pendingUnstaked(\n                        tokamakLayer2,\n                        address(this)\n                    ) ==\n                    0,\n                \"StakeTON: remain amount in tokamak\"\n            );\n        }\n        LibTokenStake1.StakedAmount storage staked = userStaked[msg.sender];\n        require(staked.released == false, \"StakeTON: Already withdraw\");\n\n        if (withdrawFlag == false) {\n            withdrawFlag = true;\n            if (paytoken == ton) {\n                swappedAmountFLD = IIERC20(token).balanceOf(address(this));\n                finalBalanceWTON = IIERC20(wton).balanceOf(address(this));\n                finalBalanceTON = IIERC20(ton).balanceOf(address(this));\n                require(\n                    finalBalanceWTON.div(10**9).add(finalBalanceTON) >=\n                        totalStakedAmount,\n                    \"StakeTON: finalBalance is lack\"\n                );\n            }\n        }\n\n        uint256 amount = staked.amount;\n        require(amount > 0, \"StakeTON: Amount wrong\");\n        staked.releasedBlock = block.number;\n        staked.released = true;\n\n        if (paytoken == ton) {\n            uint256 tonAmount = 0;\n            uint256 wtonAmount = 0;\n            uint256 fldAmount = 0;\n            if (finalBalanceTON > 0)\n                tonAmount = finalBalanceTON.mul(amount).div(totalStakedAmount);\n            if (finalBalanceWTON > 0)\n                wtonAmount = finalBalanceWTON.mul(amount).div(\n                    totalStakedAmount\n                );\n            if (swappedAmountFLD > 0)\n                fldAmount = swappedAmountFLD.mul(amount).div(totalStakedAmount);\n\n            staked.releasedFLDAmount = fldAmount;\n            if (wtonAmount > 0)\n                staked.releasedAmount = wtonAmount.div(10**9).add(tonAmount);\n            else staked.releasedAmount = tonAmount;\n\n            tonWithdraw(ton, wton, tonAmount, wtonAmount, fldAmount);\n        } else if (paytoken == address(0)) {\n            require(\n                staked.releasedAmount <= staked.amount,\n                \"StakeTON: Amount wrong\"\n            );\n            staked.releasedAmount = amount;\n            address payable self = address(uint160(address(this)));\n            require(self.balance >= amount);\n            (bool success, ) = msg.sender.call{value: amount}(\"\");\n            require(success, \"StakeTON: withdraw failed.\");\n        } else {\n            require(\n                staked.releasedAmount <= staked.amount,\n                \"StakeTON: Amount wrong\"\n            );\n            staked.releasedAmount = amount;\n            require(\n                IIERC20(paytoken).transfer(msg.sender, amount),\n                \"StakeTON: transfer fail\"\n            );\n        }\n\n        emit Withdrawal(\n            msg.sender,\n            staked.releasedAmount,\n            staked.releasedFLDAmount\n        );\n    }\n\n    /// @dev withdraw TON\n    /// @param ton  TON address\n    /// @param wton  WTON address\n    /// @param tonAmount  the amount of TON to be withdrawn to msg.sender\n    /// @param wtonAmount  the amount of WTON to be withdrawn to msg.sender\n    /// @param fldAmount  the amount of FLD to be withdrawn to msg.sender\n    function tonWithdraw(\n        address ton,\n        address wton,\n        uint256 tonAmount,\n        uint256 wtonAmount,\n        uint256 fldAmount\n    ) internal {\n        if (tonAmount > 0) {\n            require(\n                IIERC20(ton).balanceOf(address(this)) >= tonAmount,\n                \"StakeTON: ton balance is lack\"\n            );\n\n            require(\n                IIERC20(ton).transfer(msg.sender, tonAmount),\n                \"StakeTON: transfer ton fail\"\n            );\n        }\n        if (wtonAmount > 0) {\n            require(\n                IIERC20(wton).balanceOf(address(this)) >= wtonAmount,\n                \"StakeTON: wton balance is lack\"\n            );\n            require(\n                IWTON(wton).swapToTONAndTransfer(msg.sender, wtonAmount),\n                \"StakeTON: transfer wton fail\"\n            );\n        }\n        if (fldAmount > 0) {\n            require(\n                IIERC20(token).balanceOf(address(this)) >= fldAmount,\n                \"StakeTON: fld balance is lack\"\n            );\n            require(\n                IIERC20(token).transfer(msg.sender, fldAmount),\n                \"StakeTON: transfer fld fail\"\n            );\n        }\n    }\n\n    /// @dev Claim for reward\n    function claim() external override lock {\n        require(\n            IIStake1Vault(vault).saleClosed() == true,\n            \"StakeTON: not closed\"\n        );\n        uint256 rewardClaim = 0;\n\n        LibTokenStake1.StakedAmount storage staked = userStaked[msg.sender];\n        require(staked.claimedBlock < endBlock, \"StakeTON: claimed\");\n\n        rewardClaim = canRewardAmount(msg.sender, block.number);\n\n        require(rewardClaim > 0, \"StakeTON: reward is zero\");\n\n        uint256 rewardTotal =\n            IIStake1Vault(vault).totalRewardAmount(address(this));\n        require(\n            rewardClaimedTotal.add(rewardClaim) <= rewardTotal,\n            \"StakeTON: total reward exceeds\"\n        );\n\n        staked.claimedBlock = block.number;\n        staked.claimedAmount = staked.claimedAmount.add(rewardClaim);\n        rewardClaimedTotal = rewardClaimedTotal.add(rewardClaim);\n\n        require(IIStake1Vault(vault).claim(msg.sender, rewardClaim));\n\n        emit Claimed(msg.sender, rewardClaim, block.number);\n    }\n\n    /// @dev Returns the amount that can be rewarded\n    /// @param account  the account that claimed reward\n    /// @param specificBlock the block that claimed reward\n    /// @return reward the reward amount that can be taken\n    function canRewardAmount(address account, uint256 specificBlock)\n        public\n        view\n        override\n        returns (uint256)\n    {\n        uint256 reward = 0;\n        if (specificBlock > endBlock) specificBlock = endBlock;\n\n        if (\n            specificBlock < startBlock ||\n            userStaked[account].amount == 0 ||\n            userStaked[account].claimedBlock > endBlock ||\n            userStaked[account].claimedBlock > specificBlock\n        ) {\n            reward = 0;\n        } else {\n            uint256 startR = startBlock;\n            uint256 endR = endBlock;\n            if (startR < userStaked[account].claimedBlock)\n                startR = userStaked[account].claimedBlock;\n            if (specificBlock < endR) endR = specificBlock;\n\n            uint256[] memory orderedEndBlocks =\n                IIStake1Vault(vault).orderedEndBlocksAll();\n\n            if (orderedEndBlocks.length > 0) {\n                uint256 _end = 0;\n                uint256 _start = startR;\n                uint256 _total = 0;\n                uint256 blockTotalReward = 0;\n                blockTotalReward = IIStake1Vault(vault).blockTotalReward();\n\n                address user = account;\n                uint256 amount = userStaked[user].amount;\n\n                for (uint256 i = 0; i < orderedEndBlocks.length; i++) {\n                    _end = orderedEndBlocks[i];\n                    _total = IIStake1Vault(vault).stakeEndBlockTotal(_end);\n\n                    if (_start > _end) {} else if (endR <= _end) {\n                        if (_total > 0) {\n                            uint256 _period1 = endR.sub(startR);\n                            reward = reward.add(\n                                blockTotalReward.mul(_period1).mul(amount).div(\n                                    _total\n                                )\n                            );\n                        }\n                        break;\n                    } else {\n                        if (_total > 0) {\n                            uint256 _period2 = _end.sub(startR);\n                            reward = reward.add(\n                                blockTotalReward.mul(_period2).mul(amount).div(\n                                    _total\n                                )\n                            );\n                        }\n                        startR = _end;\n                    }\n                }\n            }\n        }\n        return reward;\n    }\n    /*\n    function canRewardAmountTest(address account, uint256 specificBlock)\n        public view\n        returns (uint256, uint256, uint256, uint256)\n    {\n        uint256 reward = 0;\n        uint256 startR = 0;\n        uint256 endR = 0;\n        uint256 blockTotalReward = 0;\n        if(specificBlock > endBlock ) specificBlock = endBlock;\n\n        if (\n            specificBlock < startBlock ||\n            userStaked[account].amount == 0 ||\n            userStaked[account].claimedBlock > endBlock ||\n            userStaked[account].claimedBlock > specificBlock\n        ) {\n            reward = 0;\n        } else {\n            startR = startBlock;\n            endR = endBlock;\n            if (startR < userStaked[account].claimedBlock)\n                startR = userStaked[account].claimedBlock;\n            if (specificBlock < endR) endR = specificBlock;\n\n            uint256[] memory orderedEndBlocks =\n                IIStake1Vault(vault).orderedEndBlocksAll();\n\n            if (orderedEndBlocks.length > 0) {\n                uint256 _end = 0;\n                uint256 _start = startR;\n                uint256 _total = 0;\n                //uint256 blockTotalReward = 0;\n                blockTotalReward = IIStake1Vault(vault).blockTotalReward();\n\n                address user = account;\n                uint256 amount = userStaked[user].amount;\n\n                for (uint256 i = 0; i < orderedEndBlocks.length; i++) {\n                    _end = orderedEndBlocks[i];\n                    _total = IIStake1Vault(vault).stakeEndBlockTotal(_end);\n\n                    if (_start > _end) {\n\n                    } else if (endR <= _end) {\n                        reward +=\n                            (blockTotalReward *\n                                (endR - startR) * amount) /\n                            _total;\n                        break;\n                    } else {\n                        reward +=\n                            (blockTotalReward *\n                                (_end - startR) *\n                                amount) /\n                            _total;\n                        startR = _end;\n                    }\n                }\n            }\n        }\n        return (reward, startR, endR, blockTotalReward);\n    }\n    */\n}\n",
  "sourcePath": "/Users/zena/ico2.0/ico20-contracts/contracts/stake/StakeTON.sol",
  "compiler": {
    "name": "solc",
    "version": "0.7.6+commit.7338295f.Emscripten.clang"
  },
  "schemaVersion": "3.3.4",
  "updatedAt": "2021-06-07T01:48:52.075Z",
  "devdoc": {
    "events": {
      "Claimed(address,uint256,uint256)": {
        "details": "event on claim",
        "params": {
          "amount": "the amount of claim",
          "claimBlock": "the block of claim",
          "to": "the sender"
        }
      },
      "Staked(address,uint256)": {
        "details": "event on staking",
        "params": {
          "amount": "the amount of staking",
          "to": "the sender"
        }
      },
      "Withdrawal(address,uint256,uint256)": {
        "details": "event on withdrawal",
        "params": {
          "fldAmount": "the amount of FLD withdrawal",
          "to": "the sender",
          "tonAmount": "the amount of TON withdrawal"
        }
      }
    },
    "kind": "dev",
    "methods": {
      "canRewardAmount(address,uint256)": {
        "details": "Returns the amount that can be rewarded",
        "params": {
          "account": "the account that claimed reward",
          "specificBlock": "the block that claimed reward"
        },
        "returns": {
          "_0": "reward the reward amount that can be taken"
        }
      },
      "checkTokamak()": {
        "details": "If the tokamak addresses is not set, set the addresses."
      },
      "claim()": {
        "details": "Claim for reward"
      },
      "constructor": {
        "details": "constructor of StakeTON"
      },
      "exchangeWTONtoFLD(uint256,uint256,uint256,uint160,uint256)": {
        "details": "exchange holded WTON to FLD using uniswap",
        "params": {
          "_amountOutMinimum": "the minimun output amount",
          "_deadline": "deadline",
          "_kind": "the function type, if 0, use exactInputSingle function, else if, use exactInput function",
          "_sqrtPriceLimitX96": "sqrtPriceLimitX96"
        },
        "returns": {
          "amountOut": "the amount of exchanged out token"
        }
      },
      "exchangeWTONtoFLDv2(uint256,uint256,uint256,uint256)": {
        "details": "exchange holded WTON to FLD using uniswap-v2",
        "params": {
          "_amountIn": "the input amount",
          "_amountOutMinimum": "the minimun output amount",
          "_deadline": "deadline",
          "_kind": "the function type, if 0, use exactInputSingle function, else if, use exactInput function"
        }
      },
      "getRoleAdmin(bytes32)": {
        "details": "Returns the admin role that controls `role`. See {grantRole} and {revokeRole}. To change a role's admin, use {_setRoleAdmin}."
      },
      "getRoleMember(bytes32,uint256)": {
        "details": "Returns one of the accounts that have `role`. `index` must be a value between 0 and {getRoleMemberCount}, non-inclusive. Role bearers are not sorted in any particular way, and their ordering may change at any point. WARNING: When using {getRoleMember} and {getRoleMemberCount}, make sure you perform all queries on the same block. See the following https://forum.openzeppelin.com/t/iterating-over-elements-on-enumerableset-in-openzeppelin-contracts/2296[forum post] for more information."
      },
      "getRoleMemberCount(bytes32)": {
        "details": "Returns the number of accounts that have `role`. Can be used together with {getRoleMember} to enumerate all bearers of a role."
      },
      "getUniswapInfo()": {
        "details": "get the addresses that used in uniswap interfaces",
        "returns": {
          "ext": "the address of ext",
          "fee": "the amount of fee",
          "npm": "the address of positionManagerAddress",
          "uniswapRouter": "the address of uniswapRouter"
        }
      },
      "getUserStaked(address)": {
        "details": "user's staked information"
      },
      "grantRole(bytes32,address)": {
        "details": "Grants `role` to `account`. If `account` had not been already granted `role`, emits a {RoleGranted} event. Requirements: - the caller must have ``role``'s admin role."
      },
      "hasRole(bytes32,address)": {
        "details": "Returns `true` if `account` has been granted `role`."
      },
      "renounceRole(bytes32,address)": {
        "details": "Revokes `role` from the calling account. Roles are often managed via {grantRole} and {revokeRole}: this function's purpose is to provide a mechanism for accounts to lose their privileges if they are compromised (such as when a trusted device is misplaced). If the calling account had been granted `role`, emits a {RoleRevoked} event. Requirements: - the caller must be `account`."
      },
      "revokeRole(bytes32,address)": {
        "details": "Revokes `role` from `account`. If `account` had been granted `role`, emits a {RoleRevoked} event. Requirements: - the caller must have ``role``'s admin role."
      },
      "setRegistry(address)": {
        "details": "set registry address",
        "params": {
          "_registry": "new registry address"
        }
      },
      "setTokamakLayer2(address)": {
        "details": "set the tokamak Layer2 address",
        "params": {
          "_layer2": "new the tokamak Layer2 address"
        }
      },
      "swapTONtoWTON(uint256,bool)": {
        "details": "Change the TON holded in contract have to WTON, or change WTON to TON.",
        "params": {
          "amount": "the amount to be changed",
          "toWTON": "if it's true, TON->WTON , else WTON->TON"
        }
      },
      "tokamakProcessUnStaking(address)": {
        "details": "process unstaking in layer2 in tokamak",
        "params": {
          "_layer2": "the layer2 address in tokamak"
        }
      },
      "tokamakRequestUnStaking(address,uint256)": {
        "details": "request unstaking the wtonAmount in layer2 in tokamak",
        "params": {
          "_layer2": "the layer2 address in tokamak",
          "wtonAmount": "the amount requested to unstaking"
        }
      },
      "tokamakRequestUnStakingAll(address)": {
        "details": "request unstaking the amount of all in layer2 in tokamak",
        "params": {
          "_layer2": "the layer2 address in tokamak"
        }
      },
      "tokamakStaking(address,uint256)": {
        "details": "staking the staked TON in layer2 in tokamak",
        "params": {
          "_layer2": "the layer2 address in tokamak",
          "stakeAmount": "the amount that stake to layer2"
        }
      },
      "transferOwnership(address)": {
        "details": "transfer Ownership",
        "params": {
          "newOwner": "new owner address"
        }
      },
      "withdraw()": {
        "details": "withdraw"
      }
    },
    "title": "Stake Contract",
    "version": 1
  },
  "userdoc": {
    "kind": "user",
    "methods": {
      "exchangeWTONtoFLD(uint256,uint256,uint256,uint160,uint256)": {
        "notice": "@param _amountIn the input amount"
      }
    },
    "notice": "It can be staked in Tokamak. Can be swapped using Uniswap. Stake contracts can interact with the vault to claim fld tokens",
    "version": 1
  }
}