{
  "contractName": "Stake1Logic",
  "abi": [
    {
      "anonymous": false,
      "inputs": [
        {
          "indexed": true,
          "internalType": "address",
          "name": "vault",
          "type": "address"
        },
        {
          "indexed": true,
          "internalType": "address",
          "name": "stakeContract",
          "type": "address"
        },
        {
          "indexed": false,
          "internalType": "uint256",
          "name": "phase",
          "type": "uint256"
        }
      ],
      "name": "CreatedStakeContract",
      "type": "event"
    },
    {
      "anonymous": false,
      "inputs": [
        {
          "indexed": true,
          "internalType": "address",
          "name": "vault",
          "type": "address"
        },
        {
          "indexed": false,
          "internalType": "address",
          "name": "paytoken",
          "type": "address"
        },
        {
          "indexed": false,
          "internalType": "uint256",
          "name": "cap",
          "type": "uint256"
        }
      ],
      "name": "CreatedVault",
      "type": "event"
    },
    {
      "anonymous": false,
      "inputs": [
        {
          "indexed": true,
          "internalType": "bytes32",
          "name": "role",
          "type": "bytes32"
        },
        {
          "indexed": true,
          "internalType": "bytes32",
          "name": "previousAdminRole",
          "type": "bytes32"
        },
        {
          "indexed": true,
          "internalType": "bytes32",
          "name": "newAdminRole",
          "type": "bytes32"
        }
      ],
      "name": "RoleAdminChanged",
      "type": "event"
    },
    {
      "anonymous": false,
      "inputs": [
        {
          "indexed": true,
          "internalType": "bytes32",
          "name": "role",
          "type": "bytes32"
        },
        {
          "indexed": true,
          "internalType": "address",
          "name": "account",
          "type": "address"
        },
        {
          "indexed": true,
          "internalType": "address",
          "name": "sender",
          "type": "address"
        }
      ],
      "name": "RoleGranted",
      "type": "event"
    },
    {
      "anonymous": false,
      "inputs": [
        {
          "indexed": true,
          "internalType": "bytes32",
          "name": "role",
          "type": "bytes32"
        },
        {
          "indexed": true,
          "internalType": "address",
          "name": "account",
          "type": "address"
        },
        {
          "indexed": true,
          "internalType": "address",
          "name": "sender",
          "type": "address"
        }
      ],
      "name": "RoleRevoked",
      "type": "event"
    },
    {
      "anonymous": false,
      "inputs": [
        {
          "indexed": false,
          "internalType": "address",
          "name": "stakeFactory",
          "type": "address"
        }
      ],
      "name": "SetStakeFactory",
      "type": "event"
    },
    {
      "anonymous": false,
      "inputs": [
        {
          "indexed": false,
          "internalType": "address",
          "name": "stakeRegistry",
          "type": "address"
        }
      ],
      "name": "SetStakeRegistry",
      "type": "event"
    },
    {
      "inputs": [],
      "name": "ADMIN_ROLE",
      "outputs": [
        {
          "internalType": "bytes32",
          "name": "",
          "type": "bytes32"
        }
      ],
      "stateMutability": "view",
      "type": "function"
    },
    {
      "inputs": [],
      "name": "DEFAULT_ADMIN_ROLE",
      "outputs": [
        {
          "internalType": "bytes32",
          "name": "",
          "type": "bytes32"
        }
      ],
      "stateMutability": "view",
      "type": "function"
    },
    {
      "inputs": [],
      "name": "ZERO_HASH",
      "outputs": [
        {
          "internalType": "bytes32",
          "name": "",
          "type": "bytes32"
        }
      ],
      "stateMutability": "view",
      "type": "function"
    },
    {
      "inputs": [],
      "name": "depositManager",
      "outputs": [
        {
          "internalType": "address",
          "name": "",
          "type": "address"
        }
      ],
      "stateMutability": "view",
      "type": "function"
    },
    {
      "inputs": [],
      "name": "fld",
      "outputs": [
        {
          "internalType": "address",
          "name": "",
          "type": "address"
        }
      ],
      "stateMutability": "view",
      "type": "function"
    },
    {
      "inputs": [
        {
          "internalType": "bytes32",
          "name": "role",
          "type": "bytes32"
        }
      ],
      "name": "getRoleAdmin",
      "outputs": [
        {
          "internalType": "bytes32",
          "name": "",
          "type": "bytes32"
        }
      ],
      "stateMutability": "view",
      "type": "function"
    },
    {
      "inputs": [
        {
          "internalType": "bytes32",
          "name": "role",
          "type": "bytes32"
        },
        {
          "internalType": "uint256",
          "name": "index",
          "type": "uint256"
        }
      ],
      "name": "getRoleMember",
      "outputs": [
        {
          "internalType": "address",
          "name": "",
          "type": "address"
        }
      ],
      "stateMutability": "view",
      "type": "function"
    },
    {
      "inputs": [
        {
          "internalType": "bytes32",
          "name": "role",
          "type": "bytes32"
        }
      ],
      "name": "getRoleMemberCount",
      "outputs": [
        {
          "internalType": "uint256",
          "name": "",
          "type": "uint256"
        }
      ],
      "stateMutability": "view",
      "type": "function"
    },
    {
      "inputs": [
        {
          "internalType": "bytes32",
          "name": "role",
          "type": "bytes32"
        },
        {
          "internalType": "address",
          "name": "account",
          "type": "address"
        }
      ],
      "name": "grantRole",
      "outputs": [],
      "stateMutability": "nonpayable",
      "type": "function"
    },
    {
      "inputs": [
        {
          "internalType": "bytes32",
          "name": "role",
          "type": "bytes32"
        },
        {
          "internalType": "address",
          "name": "account",
          "type": "address"
        }
      ],
      "name": "hasRole",
      "outputs": [
        {
          "internalType": "bool",
          "name": "",
          "type": "bool"
        }
      ],
      "stateMutability": "view",
      "type": "function"
    },
    {
      "inputs": [
        {
          "internalType": "bytes32",
          "name": "role",
          "type": "bytes32"
        },
        {
          "internalType": "address",
          "name": "account",
          "type": "address"
        }
      ],
      "name": "renounceRole",
      "outputs": [],
      "stateMutability": "nonpayable",
      "type": "function"
    },
    {
      "inputs": [
        {
          "internalType": "bytes32",
          "name": "role",
          "type": "bytes32"
        },
        {
          "internalType": "address",
          "name": "account",
          "type": "address"
        }
      ],
      "name": "revokeRole",
      "outputs": [],
      "stateMutability": "nonpayable",
      "type": "function"
    },
    {
      "inputs": [],
      "name": "secondsPerBlock",
      "outputs": [
        {
          "internalType": "uint256",
          "name": "",
          "type": "uint256"
        }
      ],
      "stateMutability": "view",
      "type": "function"
    },
    {
      "inputs": [],
      "name": "seigManager",
      "outputs": [
        {
          "internalType": "address",
          "name": "",
          "type": "address"
        }
      ],
      "stateMutability": "view",
      "type": "function"
    },
    {
      "inputs": [],
      "name": "stakeFactory",
      "outputs": [
        {
          "internalType": "contract IStakeFactory",
          "name": "",
          "type": "address"
        }
      ],
      "stateMutability": "view",
      "type": "function"
    },
    {
      "inputs": [],
      "name": "stakeRegistry",
      "outputs": [
        {
          "internalType": "contract IStakeRegistry",
          "name": "",
          "type": "address"
        }
      ],
      "stateMutability": "view",
      "type": "function"
    },
    {
      "inputs": [],
      "name": "ton",
      "outputs": [
        {
          "internalType": "address",
          "name": "",
          "type": "address"
        }
      ],
      "stateMutability": "view",
      "type": "function"
    },
    {
      "inputs": [],
      "name": "wton",
      "outputs": [
        {
          "internalType": "address",
          "name": "",
          "type": "address"
        }
      ],
      "stateMutability": "view",
      "type": "function"
    },
    {
      "inputs": [
        {
          "internalType": "address",
          "name": "_fld",
          "type": "address"
        },
        {
          "internalType": "address",
          "name": "_stakeRegistry",
          "type": "address"
        },
        {
          "internalType": "address",
          "name": "_stakeFactory",
          "type": "address"
        },
        {
          "internalType": "address",
          "name": "_ton",
          "type": "address"
        },
        {
          "internalType": "address",
          "name": "_wton",
          "type": "address"
        },
        {
          "internalType": "address",
          "name": "_depositManager",
          "type": "address"
        },
        {
          "internalType": "address",
          "name": "_seigManager",
          "type": "address"
        }
      ],
      "name": "setStore",
      "outputs": [],
      "stateMutability": "nonpayable",
      "type": "function"
    },
    {
      "inputs": [
        {
          "internalType": "address",
          "name": "_stakeFactory",
          "type": "address"
        }
      ],
      "name": "setFactory",
      "outputs": [],
      "stateMutability": "nonpayable",
      "type": "function"
    },
    {
      "inputs": [
        {
          "internalType": "address",
          "name": "_paytoken",
          "type": "address"
        },
        {
          "internalType": "uint256",
          "name": "_cap",
          "type": "uint256"
        },
        {
          "internalType": "uint256",
          "name": "_saleStartBlcok",
          "type": "uint256"
        },
        {
          "internalType": "uint256",
          "name": "_stakeStartBlcok",
          "type": "uint256"
        },
        {
          "internalType": "uint256",
          "name": "_phase",
          "type": "uint256"
        },
        {
          "internalType": "bytes32",
          "name": "_vaultName",
          "type": "bytes32"
        },
        {
          "internalType": "uint256",
          "name": "_stakeType",
          "type": "uint256"
        },
        {
          "internalType": "address",
          "name": "_defiAddr",
          "type": "address"
        }
      ],
      "name": "createVault",
      "outputs": [],
      "stateMutability": "nonpayable",
      "type": "function"
    },
    {
      "inputs": [
        {
          "internalType": "uint256",
          "name": "_phase",
          "type": "uint256"
        },
        {
          "internalType": "address",
          "name": "_vault",
          "type": "address"
        },
        {
          "internalType": "address",
          "name": "token",
          "type": "address"
        },
        {
          "internalType": "address",
          "name": "paytoken",
          "type": "address"
        },
        {
          "internalType": "uint256",
          "name": "periodBlock",
          "type": "uint256"
        },
        {
          "internalType": "string",
          "name": "_name",
          "type": "string"
        }
      ],
      "name": "createStakeContract",
      "outputs": [],
      "stateMutability": "nonpayable",
      "type": "function"
    },
    {
      "inputs": [],
      "name": "currentBlock",
      "outputs": [
        {
          "internalType": "uint256",
          "name": "",
          "type": "uint256"
        }
      ],
      "stateMutability": "view",
      "type": "function"
    },
    {
      "inputs": [
        {
          "internalType": "address",
          "name": "_vault",
          "type": "address"
        }
      ],
      "name": "closeSale",
      "outputs": [],
      "stateMutability": "nonpayable",
      "type": "function"
    },
    {
      "inputs": [
        {
          "internalType": "uint256",
          "name": "_phase",
          "type": "uint256"
        },
        {
          "internalType": "bytes32",
          "name": "_vaultName",
          "type": "bytes32"
        },
        {
          "internalType": "address",
          "name": "_vault",
          "type": "address"
        }
      ],
      "name": "addVault",
      "outputs": [],
      "stateMutability": "nonpayable",
      "type": "function"
    },
    {
      "inputs": [
        {
          "internalType": "address",
          "name": "_stakeProxy",
          "type": "address"
        },
        {
          "internalType": "address",
          "name": "_implementation",
          "type": "address"
        }
      ],
      "name": "upgradeStakeTo",
      "outputs": [],
      "stateMutability": "nonpayable",
      "type": "function"
    },
    {
      "inputs": [
        {
          "internalType": "address",
          "name": "_vault",
          "type": "address"
        }
      ],
      "name": "stakeContractsOfVault",
      "outputs": [
        {
          "internalType": "address[]",
          "name": "",
          "type": "address[]"
        }
      ],
      "stateMutability": "view",
      "type": "function"
    },
    {
      "inputs": [
        {
          "internalType": "uint256",
          "name": "_phaseIndex",
          "type": "uint256"
        }
      ],
      "name": "vaultsOfPhase",
      "outputs": [
        {
          "internalType": "address[]",
          "name": "",
          "type": "address[]"
        }
      ],
      "stateMutability": "view",
      "type": "function"
    },
    {
      "inputs": [
        {
          "internalType": "address",
          "name": "_stakeContract",
          "type": "address"
        },
        {
          "internalType": "address",
          "name": "_layer2",
          "type": "address"
        }
      ],
      "name": "tokamakStaking",
      "outputs": [],
      "stateMutability": "nonpayable",
      "type": "function"
    },
    {
      "inputs": [
        {
          "internalType": "address",
          "name": "_stakeContract",
          "type": "address"
        },
        {
          "internalType": "address",
          "name": "_layer2",
          "type": "address"
        }
      ],
      "name": "tokamakRequestUnStakingAll",
      "outputs": [],
      "stateMutability": "nonpayable",
      "type": "function"
    },
    {
      "inputs": [
        {
          "internalType": "address",
          "name": "_stakeContract",
          "type": "address"
        },
        {
          "internalType": "address",
          "name": "_layer2",
          "type": "address"
        }
      ],
      "name": "tokamakRequestUnStakingReward",
      "outputs": [],
      "stateMutability": "nonpayable",
      "type": "function"
    },
    {
      "inputs": [
        {
          "internalType": "address",
          "name": "_stakeContract",
          "type": "address"
        },
        {
          "internalType": "address",
          "name": "_layer2",
          "type": "address"
        },
        {
          "internalType": "bool",
          "name": "receiveTON",
          "type": "bool"
        }
      ],
      "name": "tokamakProcessUnStaking",
      "outputs": [],
      "stateMutability": "nonpayable",
      "type": "function"
    },
    {
      "inputs": [
        {
          "internalType": "address",
          "name": "_fld",
          "type": "address"
        }
      ],
      "name": "setFLD",
      "outputs": [],
      "stateMutability": "nonpayable",
      "type": "function"
    },
    {
      "inputs": [
        {
          "internalType": "address",
          "name": "_stakeRegistry",
          "type": "address"
        }
      ],
      "name": "setStakeRegistry",
      "outputs": [],
      "stateMutability": "nonpayable",
      "type": "function"
    },
    {
      "inputs": [
        {
          "internalType": "address",
          "name": "_stakeFactory",
          "type": "address"
        }
      ],
      "name": "setStakeFactory",
      "outputs": [],
      "stateMutability": "nonpayable",
      "type": "function"
    },
    {
      "inputs": [
        {
          "internalType": "uint256",
          "name": "_phase",
          "type": "uint256"
        }
      ],
      "name": "vaultsOfPahse",
      "outputs": [
        {
          "internalType": "address[]",
          "name": "",
          "type": "address[]"
        }
      ],
      "stateMutability": "view",
      "type": "function"
    }
  ],
  "bytecode": "0x608060405234801561001057600080fd5b50614930806100206000396000f3fe60806040523480156200001157600080fd5b5060043610620002505760003560e01c8063797acec31162000141578063cc48b94711620000bd578063d547741f1162000087578063d547741f14620004d9578063dd196f1814620004f0578063e12ed13c14620004fa578063e3b05f2f1462000504578063efdcb9e0146200051b5762000250565b8063cc48b947146200048a578063ce79f9db1462000494578063d183fb4714620004ab578063d185a66b14620004c25762000250565b806391d14854116200010b57806391d14854146200041f578063965cfe7b1462000445578063a217fddf1462000321578063bdfcd5f3146200045c578063ca15c87314620004735762000250565b8063797acec314620003dd5780637a7d493714620003f45780638d62d94914620003fe5780639010d07c14620004085762000250565b8063535ae1d511620001d15780636b082272116200019b5780636b08227214620003915780636c7ac9d814620003a85780636fb7f55814620003b257806375b238fc14620003bc5780637949137014620003c65762000250565b8063535ae1d5146200034257806355885a5914620003595780635bb4780814620003705780636830483514620003875762000250565b806336568abe116200021f57806336568abe14620002cd5780633e4fe35514620002e457806349c4542d146200030a5780634ce76a3c14620003215780635294fcef146200032b5762000250565b8063248a9ca314620002555780632a36a20314620002845780632f2ff15d146200029d57806333bd2a4914620002b4575b600080fd5b6200026c62000266366004620018da565b62000532565b6040516200027b919062001b72565b60405180910390f35b6200029b620002953660046200165a565b62000547565b005b6200029b620002ae366004620018f3565b620005f0565b620002be6200065e565b6040516200027b919062001a4d565b6200029b620002de366004620018f3565b6200066d565b620002fb620002f5366004620018da565b620006d4565b6040516200027b919062001b18565b6200029b6200031b3660046200165a565b62000794565b6200026c620007c2565b6200029b6200033c36600462001a1d565b620007c7565b6200029b620003533660046200161c565b62000870565b6200029b6200036a3660046200178c565b6200092d565b6200029b620003813660046200161c565b62000a92565b620002be62000ada565b6200029b620003a236600462001697565b62000ae9565b620002be62000c18565b620002be62000c27565b6200026c62000c36565b6200029b620003d73660046200161c565b62000c49565b620002fb620003ee366004620018da565b62000ca1565b6200026c62000d32565b620002be62000d38565b620002be620004193660046200191a565b62000d47565b6200043662000430366004620018f3565b62000d61565b6040516200027b919062001b67565b6200029b620004563660046200193c565b62000d7b565b620002fb6200046d3660046200161c565b6200106d565b6200026c62000484366004620018da565b620010d3565b620002be620010ec565b6200029b620004a53660046200165a565b620010fb565b6200029b620004bc3660046200173b565b62001129565b6200029b620004d33660046200161c565b62001159565b6200029b620004ea366004620018f3565b620011e0565b620002be6200123e565b6200026c6200124d565b6200029b620005153660046200161c565b62001251565b6200029b6200052c3660046200165a565b62001302565b60009081526008602052604090206002015490565b62000562600080516020620048ac8339815191523362000d61565b6200058a5760405162461bcd60e51b8152600401620005819062001c8e565b60405180910390fd5b604051631b2ce7f360e11b81526001600160a01b03831690633659cfe690620005b890849060040162001a4d565b600060405180830381600087803b158015620005d357600080fd5b505af1158015620005e8573d6000803e3d6000fd5b505050505050565b60008281526008602052604090206002015462000611906200043062001330565b6200064e5760405162461bcd60e51b815260040180806020018281038252602f8152602001806200484d602f913960400191505060405180910390fd5b6200065a828262001334565b5050565b6003546001600160a01b031681565b6200067762001330565b6001600160a01b0316816001600160a01b031614620006c85760405162461bcd60e51b815260040180806020018281038252602f815260200180620048cc602f913960400191505060405180910390fd5b6200065a8282620013a2565b6000546060906001600160a01b031680620007035760405162461bcd60e51b8152600401620005819062001be9565b60005460405163a95031f160e01b81526001600160a01b039091169063a95031f1906200073590869060040162001b72565b60006040518083038186803b1580156200074e57600080fd5b505afa15801562000763573d6000803e3d6000fd5b505050506040513d6000823e601f3d908101601f191682016040526200078d919081019062001803565b9392505050565b6040516371def0b360e01b81526001600160a01b038316906371def0b390620005b890849060040162001a4d565b600081565b620007e2600080516020620048ac8339815191523362000d61565b620008015760405162461bcd60e51b8152600401620005819062001c8e565b6000546040516377e4fba360e11b81526001600160a01b039091169063efc9f74690620008379084908790879060040162001a61565b600060405180830381600087803b1580156200085257600080fd5b505af115801562000867573d6000803e3d6000fd5b50505050505050565b6200088b600080516020620048ac8339815191523362000d61565b620008aa5760405162461bcd60e51b8152600401620005819062001c8e565b806001600160a01b038116620008d45760405162461bcd60e51b8152600401620005819062001be9565b600180546001600160a01b0319166001600160a01b0384161790556040517fab151f5ceb5d56d1be387428c4efba892858a3178f0859e9649d958a049c6355906200092190849062001a4d565b60405180910390a15050565b60006040516200093d906200160e565b604051809103906000f0801580156200095a573d6000803e3d6000fd5b5060035460015460405163372666e560e21b81529293506001600160a01b038085169363dc999b9493620009a493908316928f928f928f928f929116908c908c9060040162001a9c565b600060405180830381600087803b158015620009bf57600080fd5b505af1158015620009d4573d6000803e3d6000fd5b50506000546040516377e4fba360e11b81526001600160a01b03909116925063efc9f746915062000a0e9084908990899060040162001a61565b600060405180830381600087803b15801562000a2957600080fd5b505af115801562000a3e573d6000803e3d6000fd5b50505050806001600160a01b03167f9e0e84720f13c322e117ed1e67a8c53d21ec4b3b7c35c1dd1728dc7cab64f0968a8a60405162000a7f92919062001aff565b60405180910390a2505050505050505050565b62000aad600080516020620048ac8339815191523362000d61565b62000acc5760405162461bcd60e51b8152600401620005819062001c8e565b62000ad78162000870565b50565b6000546001600160a01b031681565b62000b04600080516020620048ac8339815191523362000d61565b62000b235760405162461bcd60e51b8152600401620005819062001c8e565b836001600160a01b03811662000b4d5760405162461bcd60e51b8152600401620005819062001be9565b836001600160a01b03811662000b775760405162461bcd60e51b8152600401620005819062001be9565b836001600160a01b03811662000ba15760405162461bcd60e51b8152600401620005819062001be9565b62000bac8a62001159565b62000bb78962001251565b62000bc28862000870565b5050600480546001600160a01b039687166001600160a01b031991821617909155600580549587169582169590951790945550600680549285169284169290921790915560078054919093169116179055505050565b6006546001600160a01b031681565b6007546001600160a01b031681565b600080516020620048ac83398151915281565b806001600160a01b031663ee55efee6040518163ffffffff1660e01b8152600401600060405180830381600087803b15801562000c8557600080fd5b505af115801562000c9a573d6000803e3d6000fd5b5050505050565b60005460405163a95031f160e01b81526060916001600160a01b03169063a95031f19062000cd490859060040162001b72565b60006040518083038186803b15801562000ced57600080fd5b505afa15801562000d02573d6000803e3d6000fd5b505050506040513d6000823e601f3d908101601f1916820160405262000d2c919081019062001803565b92915050565b60025481565b6005546001600160a01b031681565b60008281526008602052604081206200078d908362001410565b60008281526008602052604081206200078d90836200141e565b62000d96600080516020620048ac8339815191523362000d61565b62000db55760405162461bcd60e51b8152600401620005819062001c8e565b6000546040516306b7e2bd60e41b81526001600160a01b0390911690636b7e2bd09062000de9908990899060040162001c9f565b60206040518083038186803b15801562000e0257600080fd5b505afa15801562000e17573d6000803e3d6000fd5b505050506040513d601f19601f8201168201806040525081019062000e3d9190620018bb565b62000e5c5760405162461bcd60e51b8152600401620005819062001c20565b60015460408051608081018252600480546001600160a01b03908116835260055481166020840152600654811683850152600754811660608401529251634e1d1d5760e11b81526000949390931692639c3a3aae9262000ec8928c928c928c928c928c92910162001cb6565b602060405180830381600087803b15801562000ee357600080fd5b505af115801562000ef8573d6000803e3d6000fd5b505050506040513d601f19601f8201168201806040525081019062000f1e91906200163b565b90506001600160a01b03811662000f495760405162461bcd60e51b8152600401620005819062001c57565b604051630258b33f60e21b81526001600160a01b03871690630962ccfc9062000f7b9085908590889060040162001b7b565b600060405180830381600087803b15801562000f9657600080fd5b505af115801562000fab573d6000803e3d6000fd5b5050600054604051638dea8fd760e01b81526001600160a01b039091169250638dea8fd7915062000fe3908990859060040162001a82565b600060405180830381600087803b15801562000ffe57600080fd5b505af115801562001013573d6000803e3d6000fd5b50505050806001600160a01b0316866001600160a01b03167f986901f0d96e90b5c91902591c07dcd3d45e263c7f0464d31e8bf42528172329896040516200105c919062001b72565b60405180910390a350505050505050565b6060816001600160a01b038116620010995760405162461bcd60e51b8152600401620005819062001be9565b826001600160a01b031663d007e8966040518163ffffffff1660e01b815260040160006040518083038186803b1580156200074e57600080fd5b600081815260086020526040812062000d2c9062001435565b6004546001600160a01b031681565b60405163c434d64d60e01b81526001600160a01b0383169063c434d64d90620005b890849060040162001a4d565b604051637d1b99eb60e11b81526001600160a01b0384169063fa3733d69062000837908590859060040162001ae4565b62001174600080516020620048ac8339815191523362000d61565b620011935760405162461bcd60e51b8152600401620005819062001c8e565b806001600160a01b038116620011bd5760405162461bcd60e51b8152600401620005819062001be9565b50600380546001600160a01b0319166001600160a01b0392909216919091179055565b60008281526008602052604090206002015462001201906200043062001330565b620006c85760405162461bcd60e51b81526004018080602001828103825260308152602001806200487c6030913960400191505060405180910390fd5b6001546001600160a01b031681565b4390565b6200126c600080516020620048ac8339815191523362000d61565b6200128b5760405162461bcd60e51b8152600401620005819062001c8e565b806001600160a01b038116620012b55760405162461bcd60e51b8152600401620005819062001be9565b600080546001600160a01b0319166001600160a01b0384161790556040517f1b73fe1ecba53ead6c18771cac7251c2a85d3644da053e4898de7ace3173d35b906200092190849062001a4d565b604051638caae1e360e01b81526001600160a01b03831690638caae1e390620005b890849060040162001a4d565b3390565b60008281526008602052604090206200134e908262001442565b156200065a576200135e62001330565b6001600160a01b0316816001600160a01b0316837f2f8788117e7eff1d82e926ec794901d17c78024a50270940304540a733656f0d60405160405180910390a45050565b6000828152600860205260409020620013bc908262001459565b156200065a57620013cc62001330565b6001600160a01b0316816001600160a01b0316837ff6391f5c32d9c69d2a47ea670b442974b53935d1edc7fd64eb21e047a839171b60405160405180910390a45050565b60006200078d838362001470565b60006200078d836001600160a01b038416620014d7565b600062000d2c82620014ef565b60006200078d836001600160a01b038416620014f3565b60006200078d836001600160a01b03841662001542565b81546000908210620014b45760405162461bcd60e51b81526004018080602001828103825260228152602001806200482b6022913960400191505060405180910390fd5b826000018281548110620014c457fe5b9060005260206000200154905092915050565b60009081526001919091016020526040902054151590565b5490565b6000620015018383620014d7565b620015395750815460018181018455600084815260208082209093018490558454848252828601909352604090209190915562000d2c565b50600062000d2c565b600081815260018301602052604081205480156200160357835460001980830191908101906000908790839081106200157757fe5b90600052602060002001549050808760000184815481106200159557fe5b600091825260208083209091019290925582815260018981019092526040902090840190558654879080620015c657fe5b6001900381819060005260206000200160009055905586600101600087815260200190815260200160002060009055600194505050505062000d2c565b600091505062000d2c565b612abd8062001d6e83390190565b6000602082840312156200162e578081fd5b81356200078d8162001d48565b6000602082840312156200164d578081fd5b81516200078d8162001d48565b600080604083850312156200166d578081fd5b82356200167a8162001d48565b915060208301356200168c8162001d48565b809150509250929050565b600080600080600080600060e0888a031215620016b2578283fd5b8735620016bf8162001d48565b96506020880135620016d18162001d48565b95506040880135620016e38162001d48565b94506060880135620016f58162001d48565b93506080880135620017078162001d48565b925060a0880135620017198162001d48565b915060c08801356200172b8162001d48565b8091505092959891949750929550565b60008060006060848603121562001750578283fd5b83356200175d8162001d48565b925060208401356200176f8162001d48565b91506040840135620017818162001d5e565b809150509250925092565b600080600080600080600080610100898b031215620017a9578081fd5b8835620017b68162001d48565b97506020890135965060408901359550606089013594506080890135935060a0890135925060c0890135915060e0890135620017f28162001d48565b809150509295985092959890939650565b6000602080838503121562001816578182fd5b825167ffffffffffffffff808211156200182e578384fd5b818501915085601f83011262001842578384fd5b8151818111156200184f57fe5b83810291506200186184830162001d23565b8181528481019084860184860187018a10156200187c578788fd5b8795505b83861015620018ae5780519450620018988562001d48565b8483526001959095019491860191860162001880565b5098975050505050505050565b600060208284031215620018cd578081fd5b81516200078d8162001d5e565b600060208284031215620018ec578081fd5b5035919050565b6000806040838503121562001906578182fd5b8235915060208301356200168c8162001d48565b600080604083850312156200192d578182fd5b50508035926020909101359150565b60008060008060008060c0878903121562001955578384fd5b863595506020808801356200196a8162001d48565b955060408801356200197c8162001d48565b945060608801356200198e8162001d48565b93506080880135925060a088013567ffffffffffffffff80821115620019b2578384fd5b818a0191508a601f830112620019c6578384fd5b813581811115620019d357fe5b620019e7601f8201601f1916850162001d23565b91508082528b84828501011115620019fd578485fd5b808484018584013784848284010152508093505050509295509295509295565b60008060006060848603121562001a32578081fd5b83359250602084013591506040840135620017818162001d48565b6001600160a01b0391909116815260200190565b6001600160a01b039390931683526020830191909152604082015260600190565b6001600160a01b0392831681529116602082015260400190565b6001600160a01b0398891681529688166020880152604087019590955260608601939093526080850191909152841660a084015260c083015290911660e08201526101000190565b6001600160a01b039290921682521515602082015260400190565b6001600160a01b03929092168252602082015260400190565b6020808252825182820181905260009190848201906040850190845b8181101562001b5b5783516001600160a01b03168352928401929184019160010162001b34565b50909695505050505050565b901515815260200190565b90815260200190565b6000606082528451806060840152815b8181101562001baa576020818801810151608086840101520162001b8b565b8181111562001bbc5782608083860101525b506001600160a01b039490941660208301525060408101919091526080601f909201601f19160101919050565b60208082526019908201527f5374616b653150726f78793a207a65726f206164647265737300000000000000604082015260600190565b60208082526019908201527f5374616b65314c6f6769633a20756e76616c69645661756c7400000000000000604082015260600190565b60208082526018908201527f5374616b65314c6f6769633a206465706c6f79206661696c0000000000000000604082015260600190565b602080825260009082015260400190565b9182526001600160a01b0316602082015260400190565b8681526001600160a01b03868116602080840191909152868216604084015285821660608401526080830185905261012083019160a084018560005b600481101562001d1357815184168352918401919084019060010162001cf2565b5050505050979650505050505050565b60405181810167ffffffffffffffff8111828210171562001d4057fe5b604052919050565b6001600160a01b038116811462000ad757600080fd5b801515811462000ad757600080fdfe60806040523480156200001157600080fd5b506200002d60008051602062002a9d8339815191528062000093565b6200005760008051602062002a7d83398151915260008051602062002a9d83398151915262000093565b6200007260008051602062002a9d83398151915233620000e5565b6200008d60008051602062002a7d83398151915233620000e5565b620001f9565b600082815260208190526040808220600201549051839285917fbd79b86ffe0ab8e8776151514217cd7cacd52c909f66475c3af44e129f0b00ff9190a460009182526020829052604090912060020155565b620000f18282620000f5565b5050565b6000828152602081815260409091206200011a91839062001a436200016e821b17901c565b15620000f1576200012a6200018e565b6001600160a01b0316816001600160a01b0316837f2f8788117e7eff1d82e926ec794901d17c78024a50270940304540a733656f0d60405160405180910390a45050565b600062000185836001600160a01b03841662000192565b90505b92915050565b3390565b6000620001a08383620001e1565b620001d85750815460018181018455600084815260208082209093018490558454848252828601909352604090209190915562000188565b50600062000188565b60009081526001919091016020526040902054151590565b61287480620002096000396000f3fe60806040526004361061023f5760003560e01c806398da0b611161012e578063cbdeb6c0116100ab578063dc999b941161006f578063dc999b941461063a578063dfbf9def1461065a578063ec87621c1461068c578063ee55efee146106a1578063fc5f18d3146106b657610246565b8063cbdeb6c0146105a3578063d007e896146105c3578063d105bf85146105e5578063d185a66b146105fa578063d547741f1461061a57610246565b8063aad3ec96116100f2578063aad3ec9614610517578063b8c766b814610537578063b97af0db1461054c578063c1b422fd14610561578063ca15c8731461058357610246565b806398da0b61146104a55780639a88be2f146104c55780639d84ca35146104ed578063a217fddf146103ce578063a69c95dc1461050257610246565b806340fc14f7116101bc578063652a643511610180578063652a64351461040357806375b238fc14610423578063800edb9d146104385780639010d07c1461045857806391d148541461047857610246565b806340fc14f71461038457806343b0934a146103a45780634b5e7cd5146103b95780634ce76a3c146103ce5780635f1bd62a146103e357610246565b80632f2ff15d116102035780632f2ff15d1461030557806333bd2a4914610325578063355274ea1461033a57806336568abe1461034f5780633a76eb371461036f57610246565b80630962ccfc1461024b578063153099d01461026d57806320027275146102a3578063248a9ca3146102b8578063294f5fa3146102d857610246565b3661024657005b600080fd5b34801561025757600080fd5b5061026b610266366004611ffc565b6106cb565b005b34801561027957600080fd5b5061028d610288366004611f94565b610927565b60405161029a91906121b2565b60405180910390f35b3480156102af57600080fd5b5061028d610948565b3480156102c457600080fd5b5061028d6102d3366004611f94565b61094e565b3480156102e457600080fd5b506102f86102f3366004611f94565b610966565b60405161029a91906120b8565b34801561031157600080fd5b5061026b610320366004611fac565b610990565b34801561033157600080fd5b506102f86109f7565b34801561034657600080fd5b5061028d610a06565b34801561035b57600080fd5b5061026b61036a366004611fac565b610a0c565b34801561037b57600080fd5b5061028d610a6d565b34801561039057600080fd5b5061026b61039f366004611de5565b610a73565b3480156103b057600080fd5b506102f8610b0b565b3480156103c557600080fd5b5061028d610b1a565b3480156103da57600080fd5b5061028d610b20565b3480156103ef57600080fd5b5061028d6103fe366004611f94565b610b25565b34801561040f57600080fd5b5061026b61041e366004611ed3565b610b37565b34801561042f57600080fd5b5061028d610bba565b34801561044457600080fd5b5061026b610453366004611f94565b610bcc565b34801561046457600080fd5b506102f8610473366004611fdb565b610c33565b34801561048457600080fd5b50610498610493366004611fac565b610c54565b60405161029a91906121a7565b3480156104b157600080fd5b5061028d6104c0366004611ea8565b610c6c565b3480156104d157600080fd5b506104da610df3565b60405161029a97969594939291906120e5565b3480156104f957600080fd5b506102f8610e20565b34801561050e57600080fd5b5061028d610e2f565b34801561052357600080fd5b50610498610532366004611ea8565b610eb5565b34801561054357600080fd5b50610498611117565b34801561055857600080fd5b5061028d611120565b34801561056d57600080fd5b50610576611126565b60405161029a919061216f565b34801561058f57600080fd5b5061028d61059e366004611f94565b61117e565b3480156105af57600080fd5b5061028d6105be366004611de5565b611195565b3480156105cf57600080fd5b506105d86111b3565b60405161029a9190612122565b3480156105f157600080fd5b5061028d611214565b34801561060657600080fd5b5061026b610615366004611de5565b61121a565b34801561062657600080fd5b5061026b610635366004611fac565b611296565b34801561064657600080fd5b5061026b610655366004611e24565b6112ef565b34801561066657600080fd5b5061067a610675366004611de5565b61141d565b60405161029a969594939291906121bb565b34801561069857600080fd5b5061028d6114dc565b3480156106ad57600080fd5b5061026b611500565b3480156106c257600080fd5b5061028d611a1f565b6106e36000805160206127f083398151915233610c54565b6107085760405162461bcd60e51b81526004016106ff90612298565b60405180910390fd5b6001600160a01b0382161580159061072257506000600354115b801561072e5750600081115b61074a5760405162461bcd60e51b81526004016106ff90612353565b600554431061076b5760405162461bcd60e51b81526004016106ff90612256565b60085460ff161561078e5760405162461bcd60e51b81526004016106ff90612550565b816001600160a01b03166343b0934a6040518163ffffffff1660e01b815260040160206040518083038186803b1580156107c757600080fd5b505afa1580156107db573d6000803e3d6000fd5b505050506040513d601f19601f820116820180604052508101906107ff9190611e08565b6002546001600160a01b0390811691161461082c5760405162461bcd60e51b81526004016106ff90612630565b6001600160a01b0382166000908152600c602052604090206001810154156108665760405162461bcd60e51b81526004016106ff906126d3565b600b80546001810182556000919091527f0175b7a638427703f0dbe7bb9bbf987a2551717b34e79f33b5b1008d1fa01db90180546001600160a01b0319166001600160a01b0385161790556005548451908301906108ca9083906020880190611cff565b506005546001830155600282018190556006548111156108ea5760068190555b5050600654600d80546001810182556000919091527fd7b6990105719101dabeb77144f2a3385c8033acd3af97e9423a695e81ad1eb50155505050565b600d818154811061093757600080fd5b600091825260209091200154905081565b60045481565b6000818152602081905260409020600201545b919050565b600b818154811061097657600080fd5b6000918252602090912001546001600160a01b0316905081565b6000828152602081905260409020600201546109ae90610493611a58565b6109e95760405162461bcd60e51b815260040180806020018281038252602f815260200180612791602f913960400191505060405180910390fd5b6109f38282611a5c565b5050565b6001546001600160a01b031681565b60035481565b610a14611a58565b6001600160a01b0316816001600160a01b031614610a635760405162461bcd60e51b815260040180806020018281038252602f815260200180612810602f913960400191505060405180910390fd5b6109f38282611ac5565b60065481565b610a8b6000805160206127f083398151915233610c54565b610aa75760405162461bcd60e51b81526004016106ff90612298565b6001600160a01b03811615801590610acd5750600a546001600160a01b03828116911614155b610ae95760405162461bcd60e51b81526004016106ff906125f9565b600a80546001600160a01b0319166001600160a01b0392909216919091179055565b6002546001600160a01b031681565b60055481565b600081565b600e6020526000908152604090205481565b610b4f6000805160206127f083398151915233610c54565b610b6b5760405162461bcd60e51b81526004016106ff90612298565b43600654108015610b7d5750600d5415155b8015610b8b57508051600d54145b610ba75760405162461bcd60e51b81526004016106ff90612587565b80516109f390600d906020840190611d8b565b6000805160206127f083398151915281565b610be46000805160206127f083398151915233610c54565b610c005760405162461bcd60e51b81526004016106ff90612298565b600081118015610c1257508060035414155b610c2e5760405162461bcd60e51b81526004016106ff90612489565b600355565b6000828152602081905260408120610c4b9083611b2e565b90505b92915050565b6000828152602081905260408120610c4b9083611b3a565b60085460009060ff16610c915760405162461bcd60e51b81526004016106ff90612467565b6001546040516370a0823160e01b81526000916001600160a01b0316906370a0823190610cc29030906004016120b8565b60206040518083038186803b158015610cda57600080fd5b505afa158015610cee573d6000803e3d6000fd5b505050506040513d601f19601f82011682018060405250810190610d1291906120a0565b905082811015610d345760405162461bcd60e51b81526004016106ff90612443565b6001600160a01b0384166000908152600c602052604090206001810154610d6d5760405162461bcd60e51b81526004016106ff9061265c565b6000816004015411610d915760405162461bcd60e51b81526004016106ff906125d0565b8381600501540181600401541015610dbb5760405162461bcd60e51b81526004016106ff90612688565b60008482600501548360040154030311610de75760405162461bcd60e51b81526004016106ff906122db565b60040154949350505050565b6002546003546004546005546006546007546008546001600160a01b039096169560ff1690919293949596565b600a546001600160a01b031681565b6001546040516370a0823160e01b81526000916001600160a01b0316906370a0823190610e609030906004016120b8565b60206040518083038186803b158015610e7857600080fd5b505afa158015610e8c573d6000803e3d6000fd5b505050506040513d601f19601f82011682018060405250810190610eb091906120a0565b905090565b60085460009060ff168015610eca5750600082115b610ee65760405162461bcd60e51b81526004016106ff9061222f565b6001546040516370a0823160e01b81526000916001600160a01b0316906370a0823190610f179030906004016120b8565b60206040518083038186803b158015610f2f57600080fd5b505afa158015610f43573d6000803e3d6000fd5b505050506040513d601f19601f82011682018060405250810190610f6791906120a0565b905082811015610f895760405162461bcd60e51b81526004016106ff906124c0565b336000908152600c602052604090206001810154610fb95760405162461bcd60e51b81526004016106ff90612335565b8381600501540181600401541015610fe35760405162461bcd60e51b81526004016106ff90612307565b600081600401541180156110035750600084826005015483600401540303115b61101f5760405162461bcd60e51b81526004016106ff906125d0565b6005810180548501905560015460405163a9059cbb60e01b81526001600160a01b039091169063a9059cbb9061105b90889088906004016120cc565b602060405180830381600087803b15801561107557600080fd5b505af1158015611089573d6000803e3d6000fd5b505050506040513d601f19601f820116820180604052508101906110ad9190611f74565b6110c95760405162461bcd60e51b81526004016106ff90612418565b336001600160a01b03167faee3654837b73cc93e61b5d33f82d45b1df4dbe682913819f5ce40de23518e7286866040516111049291906120cc565b60405180910390a2506001949350505050565b60085460ff1681565b60095481565b6060600d80548060200260200160405190810160405280929190818152602001828054801561117457602002820191906000526020600020905b815481526020019060010190808311611160575b5050505050905090565b6000818152602081905260408120610c4e90611b4f565b6001600160a01b03166000908152600c602052604090206004015490565b6060600b80548060200260200160405190810160405280929190818152602001828054801561117457602002820191906000526020600020905b81546001600160a01b031681526001909101906020018083116111ed575050505050905090565b60075481565b6112326000805160206127f083398151915233610c54565b61124e5760405162461bcd60e51b81526004016106ff90612298565b6001600160a01b0381166112745760405162461bcd60e51b81526004016106ff9061239b565b600180546001600160a01b0319166001600160a01b0392909216919091179055565b6000828152602081905260409020600201546112b490610493611a58565b610a635760405162461bcd60e51b81526004018080602001828103825260308152602001806127c06030913960400191505060405180910390fd5b6113076000805160206127f083398151915233610c54565b6113235760405162461bcd60e51b81526004016106ff90612298565b6001600160a01b0388161580159061134357506001600160a01b03831615155b61135f5760405162461bcd60e51b81526004016106ff9061239b565b6000861161137f5760405162461bcd60e51b81526004016106ff906124ec565b838510801561138e5750600084115b6113aa5760405162461bcd60e51b81526004016106ff906123d2565b600180546001600160a01b03808b166001600160a01b0319928316179092556003889055600280548a8416908316179055600487905560058690556009849055600a8054928416929091169190911790556114136000805160206127f083398151915284610990565b5050505050505050565b600c6020908152600091825260409182902080548351601f600260001961010060018616150201909316929092049182018490048402810184019094528084529092918391908301828280156114b45780601f10611489576101008083540402835291602001916114b4565b820191906000526020600020905b81548152906001019060200180831161149757829003601f168201915b5050505050908060010154908060020154908060030154908060040154908060050154905086565b7faf290d8680820aad922855f39b306097b20e28774d6c1ad35a20325630c3a02c81565b60085460ff16156115235760405162461bcd60e51b81526004016106ff9061270a565b600060035411801561153757506000600554115b80156115465750600654600554105b8015611553575060055443115b8015611560575060065443105b61157c5760405162461bcd60e51b81526004016106ff90612523565b600b5461159b5760405162461bcd60e51b81526004016106ff906126b0565b60055460065403600354816115ac57fe5b0460075560005b600b548110156116a3576000600b82815481106115cc57fe5b60009182526020808320909101546001600160a01b03908116808452600c90925260409092206002549193509116611613576001600160a01b038216316003820155611699565b6002546040516370a0823160e01b81526001600160a01b03909116906370a08231906116439085906004016120b8565b60206040518083038186803b15801561165b57600080fd5b505afa15801561166f573d6000803e3d6000fd5b505050506040513d601f19601f8201168201806040525081019061169391906120a0565b60038201555b50506001016115b3565b506000805b600b548110156119d6576000600c6000600b84815481106116c557fe5b60009182526020808320909101546001600160a01b0316835282019290925260400181209150805b600b54811015611781578260020154600c6000600b848154811061170d57fe5b60009182526020808320909101546001600160a01b031683528201929092526040019020600201541061177957600c6000600b838154811061174b57fe5b60009182526020808320909101546001600160a01b0316835282019290925260400190206003015491909101905b6001016116ed565b5060028201546000908152600e6020526040812082905593810193835b80156118ba57600e6000600c6000600b85815481106117b957fe5b9060005260206000200160009054906101000a90046001600160a01b03166001600160a01b03166001600160a01b03168152602001908152602001600020600201548152602001908152602001600020548460030154600754600c6000600b600187038154811061182657fe5b9060005260206000200160009054906101000a90046001600160a01b03166001600160a01b03166001600160a01b0316815260200190815260200160002060020154600c6000600b878154811061187957fe5b60009182526020808320909101546001600160a01b03168352820192909252604001902060020154030202816118ab57fe5b0491909101906000190161179e565b50600e6000600c6000600b6000815481106118d157fe5b9060005260206000200160009054906101000a90046001600160a01b03166001600160a01b03166001600160a01b03168152602001908152602001600020600201548152602001908152602001600020548360030154600754600c6000600b60008154811061193c57fe5b9060005260206000200160009054906101000a90046001600160a01b03166001600160a01b03166001600160a01b0316815260200190815260200160002060010154600c6000600b60008154811061199057fe5b60009182526020808320909101546001600160a01b03168352820192909252604001902060020154030202816119c257fe5b0401600490920191909155506001016116a8565b506008805460ff191660011790556040517fb2d7ca775ec75524cd96d3b0549a390bf0a187f598f61e8a64ea092b6a667d7290611a149083906121b2565b60405180910390a150565b7fe5667d34d7ea8d6fdb3aa71a0a5b85e4cf7f68356dd003cd638556b0eea2bce581565b6000610c4b836001600160a01b038416611b5a565b3390565b6000828152602081905260409020611a749082611a43565b156109f357611a81611a58565b6001600160a01b0316816001600160a01b0316837f2f8788117e7eff1d82e926ec794901d17c78024a50270940304540a733656f0d60405160405180910390a45050565b6000828152602081905260409020611add9082611ba4565b156109f357611aea611a58565b6001600160a01b0316816001600160a01b0316837ff6391f5c32d9c69d2a47ea670b442974b53935d1edc7fd64eb21e047a839171b60405160405180910390a45050565b6000610c4b8383611bb9565b6000610c4b836001600160a01b038416611c1d565b6000610c4e82611c35565b6000611b668383611c1d565b611b9c57508154600181810184556000848152602080822090930184905584548482528286019093526040902091909155610c4e565b506000610c4e565b6000610c4b836001600160a01b038416611c39565b81546000908210611bfb5760405162461bcd60e51b815260040180806020018281038252602281526020018061276f6022913960400191505060405180910390fd5b826000018281548110611c0a57fe5b9060005260206000200154905092915050565b60009081526001919091016020526040902054151590565b5490565b60008181526001830160205260408120548015611cf55783546000198083019190810190600090879083908110611c6c57fe5b9060005260206000200154905080876000018481548110611c8957fe5b600091825260208083209091019290925582815260018981019092526040902090840190558654879080611cb957fe5b60019003818190600052602060002001600090559055866001016000878152602001908152602001600020600090556001945050505050610c4e565b6000915050610c4e565b828054600181600116156101000203166002900490600052602060002090601f016020900481019282611d355760008555611d7b565b82601f10611d4e57805160ff1916838001178555611d7b565b82800160010185558215611d7b579182015b82811115611d7b578251825591602001919060010190611d60565b50611d87929150611dc5565b5090565b828054828255906000526020600020908101928215611d7b5791602002820182811115611d7b578251825591602001919060010190611d60565b5b80821115611d875760008155600101611dc6565b803561096181612756565b600060208284031215611df6578081fd5b8135611e0181612756565b9392505050565b600060208284031215611e19578081fd5b8151611e0181612756565b600080600080600080600080610100898b031215611e40578384fd5b8835611e4b81612756565b97506020890135611e5b81612756565b965060408901359550606089013594506080890135935060a0890135611e8081612756565b925060c0890135915060e0890135611e9781612756565b809150509295985092959890939650565b60008060408385031215611eba578182fd5b8235611ec581612756565b946020939093013593505050565b60006020808385031215611ee5578182fd5b823567ffffffffffffffff80821115611efc578384fd5b818501915085601f830112611f0f578384fd5b813581811115611f1b57fe5b8381029150611f2b848301612732565b8181528481019084860184860187018a1015611f45578788fd5b8795505b83861015611f67578035835260019590950194918601918601611f49565b5098975050505050505050565b600060208284031215611f85578081fd5b81518015158114611e01578182fd5b600060208284031215611fa5578081fd5b5035919050565b60008060408385031215611fbe578182fd5b823591506020830135611fd081612756565b809150509250929050565b60008060408385031215611fed578182fd5b50508035926020909101359150565b600080600060608486031215612010578283fd5b833567ffffffffffffffff80821115612027578485fd5b818601915086601f83011261203a578485fd5b813560208282111561204857fe5b61205a601f8301601f19168201612732565b9250818352888183860101111561206f578687fd5b81818501828501378681838501015282965061208c818901611dda565b955050505050604084013590509250925092565b6000602082840312156120b1578081fd5b5051919050565b6001600160a01b0391909116815260200190565b6001600160a01b03929092168252602082015260400190565b6001600160a01b03979097168752602087019590955260408601939093526060850191909152608084015260a0830152151560c082015260e00190565b6020808252825182820181905260009190848201906040850190845b818110156121635783516001600160a01b03168352928401929184019160010161213e565b50909695505050505050565b6020808252825182820181905260009190848201906040850190845b818110156121635783518352928401929184019160010161218b565b901515815260200190565b90815260200190565b600060c0825287518060c0840152815b818110156121e8576020818b0181015160e08684010152016121cb565b818111156121f9578260e083860101525b5060208301979097525060408101949094526060840192909252608083015260a082015260e0601f909201601f19160101919050565b6020808252600d908201526c646973636c6f73652073616c6560981b604082015260600190565b60208082526022908201527f5374616b65315661756c743a20416c72656164792073746172746564207374616040820152616b6560f01b606082015260800190565b60208082526023908201527f5374616b65315661756c743a2043616c6c6572206973206e6f7420616e20616460408201526236b4b760e91b606082015260800190565b6020808252601290820152715374616b65315661756c743a2077726f6e6760701b604082015260600190565b602080825260149082015273636c61696d20616d6f756e74206578636565647360601b604082015260600190565b6020808252600490820152637a65726f60e01b604082015260600190565b60208082526028908201527f5374616b65315661756c743a206164645374616b6572496e5661756c7420696e6040820152676974206661696c7360c01b606082015260800190565b6020808252601a908201527f5374616b65315661756c743a20696e707574206973207a65726f000000000000604082015260600190565b60208082526026908201527f5374616b65315661756c743a207374617274426c6f636b20697320756e617661604082015265696c61626c6560d01b606082015260800190565b602080825260119082015270119311081d1c985b9cd9995c8819985a5b607a1b604082015260600190565b6020808252600a90820152690dcdee840cadcdeeaced60b31b604082015260600190565b602080825260089082015267646973636c6f736560c01b604082015260600190565b6020808252601c908201527f5374616b65315661756c743a206368616e6765436170206661696c7300000000604082015260600190565b6020808252601290820152716e6f7420656e6f7567682062616c616e636560701b604082015260600190565b60208082526019908201527f5374616b65315661756c743a205f636170206973207a65726f00000000000000604082015260600190565b60208082526013908201527218db1bdcd954d85b19481a5b9a5d0819985a5b606a1b604082015260600190565b60208082526018908201527f5374616b65315661756c743a20636c6f7365642073616c650000000000000000604082015260600190565b60208082526029908201527f5374616b65315661756c743a206368616e67654f726465726564456e64426c6f604082015268636b73206661696c7360b81b606082015260800190565b6020808252600f908201526e616d6f756e742069732077726f6e6760881b604082015260600190565b6020808252601e908201527f5374616b65315661756c743a205f6465666941646472206973207a65726f0000604082015260600190565b6020808252601290820152712234b33332b932b73a103830bcba37b5b2b760711b604082015260600190565b6020808252601290820152717374617274426c636f6b206973207a65726f60701b604082015260600190565b6020808252600e908201526d616d6f756e74206578636565647360901b604082015260600190565b6020808252600990820152686e6f207374616b657360b81b604082015260600190565b6020808252601a908201527f5374616b65315661756c743a20416c7265616479206164646564000000000000604082015260600190565b6020808252600e908201526d185b1c9958591e4818db1bdcd95960921b604082015260600190565b60405181810167ffffffffffffffff8111828210171561274e57fe5b604052919050565b6001600160a01b038116811461276b57600080fd5b5056fe456e756d657261626c655365743a20696e646578206f7574206f6620626f756e6473416363657373436f6e74726f6c3a2073656e646572206d75737420626520616e2061646d696e20746f206772616e74416363657373436f6e74726f6c3a2073656e646572206d75737420626520616e2061646d696e20746f207265766f6b65df8b4c520ffe197c5343c6f5aec59570151ef9a492f2c624fd45ddde6135ec42416363657373436f6e74726f6c3a2063616e206f6e6c792072656e6f756e636520726f6c657320666f722073656c66a2646970667358221220652ca82a4ddfd2857a57ba211663ae23bceb38e7116726ec75c7dfce19e165e264736f6c63430007060033e5667d34d7ea8d6fdb3aa71a0a5b85e4cf7f68356dd003cd638556b0eea2bce5df8b4c520ffe197c5343c6f5aec59570151ef9a492f2c624fd45ddde6135ec42456e756d657261626c655365743a20696e646578206f7574206f6620626f756e6473416363657373436f6e74726f6c3a2073656e646572206d75737420626520616e2061646d696e20746f206772616e74416363657373436f6e74726f6c3a2073656e646572206d75737420626520616e2061646d696e20746f207265766f6b65df8b4c520ffe197c5343c6f5aec59570151ef9a492f2c624fd45ddde6135ec42416363657373436f6e74726f6c3a2063616e206f6e6c792072656e6f756e636520726f6c657320666f722073656c66a2646970667358221220a00642a325e8de242084a379894a2659153325681f43ffdf8309458bb0d33e0364736f6c63430007060033",
  "immutableReferences": {},
  "source": "// SPDX-License-Identifier: MIT\npragma solidity ^0.7.6;\npragma abicoder v2;\n\nimport {SafeMath} from \"../utils/math/SafeMath.sol\";\n\nimport \"./StakeProxyStorage.sol\";\nimport \"@openzeppelin/contracts/access/AccessControl.sol\";\nimport {IStakeFactory} from \"../interfaces/IStakeFactory.sol\";\nimport {IStakeRegistry} from \"../interfaces/IStakeRegistry.sol\";\nimport {IStake1Vault} from \"../interfaces/IStake1Vault.sol\";\nimport {IStakeTON} from \"../interfaces/IStakeTON.sol\";\nimport {Stake1Vault} from \"./Stake1Vault.sol\";\nimport {IProxy} from \"../interfaces/IProxy.sol\";\n\ncontract Stake1Logic is StakeProxyStorage, AccessControl {\n    using SafeMath for uint256;\n    bytes32 public constant ADMIN_ROLE = keccak256(\"ADMIN\");\n    bytes32 public constant ZERO_HASH =\n        0x0000000000000000000000000000000000000000000000000000000000000000;\n\n    modifier onlyOwner() {\n        require(\n            hasRole(ADMIN_ROLE, msg.sender),\n            \"\"\n        );\n        _;\n    }\n\n    modifier nonZero(address _addr) {\n        require(_addr != address(0), \"Stake1Proxy: zero address\");\n        _;\n    }\n\n    modifier nonZeroHash(bytes32 _hash) {\n        require(_hash != ZERO_HASH, \"Stake1Proxy: zero hash\");\n        _;\n    }\n\n    //////////////////////////////\n    // Events\n    //////////////////////////////\n    event CreatedVault(address indexed vault, address paytoken, uint256 cap);\n    event CreatedStakeContract(address indexed vault, address indexed stakeContract, uint256 phase);\n    /*\n    event ClosedSale(address indexed vault, address from);\n    event TokamakStaked(address indexed stakeContract, address from, address layer2);\n    event TokamakRequestedUnStakingAll(address indexed stakeContract, address from, address layer2);\n    event TokamakRequestedUnStakingReward(address indexed stakeContract, address from, address layer2);\n    event TokamakProcessedUnStaking(address indexed stakeContract, address from, address layer2, bool receiveTON);\n    */\n    event SetStakeFactory(address stakeFactory);\n    event SetStakeRegistry(address stakeRegistry);\n\n    //////////////////////////////////////////////////////////////////////\n    // setters\n    function setStore(\n        address _fld,\n        address _stakeRegistry,\n        address _stakeFactory,\n        address _ton,\n        address _wton,\n        address _depositManager,\n        address _seigManager\n    )\n        external\n        onlyOwner\n        nonZero(_ton)\n        nonZero(_wton)\n        nonZero(_depositManager)\n    {\n        setFLD(_fld);\n        setStakeRegistry(_stakeRegistry);\n        setStakeFactory(_stakeFactory);\n        ton = _ton;\n        wton = _wton;\n        depositManager = _depositManager;\n        seigManager = _seigManager;\n\n    }\n\n    ///\n    function setFactory(address _stakeFactory) external onlyOwner {\n        setStakeFactory(_stakeFactory);\n    }\n\n    //////////////////////////////////////////////////////////////////////\n    // Admin Functions\n    function createVault(\n        address _paytoken,\n        uint256 _cap,\n        uint256 _saleStartBlcok,\n        uint256 _stakeStartBlcok,\n        uint256 _phase,\n        bytes32 _vaultName,\n        uint256 _stakeType,\n        address _defiAddr\n    ) external {\n        Stake1Vault vault = new Stake1Vault();\n        vault.initialize(\n            fld,\n            _paytoken,\n            _cap,\n            _saleStartBlcok,\n            _stakeStartBlcok,\n            address(stakeFactory),\n            _stakeType,\n            _defiAddr\n        );\n        stakeRegistry.addVault(address(vault), _phase, _vaultName);\n\n        emit CreatedVault(address(vault), _paytoken, _cap);\n    }\n\n    function createStakeContract(\n        uint256 _phase,\n        address _vault,\n        address token,\n        address paytoken,\n        uint256 periodBlock,\n        string memory _name\n    ) external onlyOwner {\n        require(\n            stakeRegistry.validVault(_phase, _vault),\n            \"Stake1Logic: unvalidVault\"\n        );\n        // solhint-disable-next-line max-line-length\n        address _contract =\n            stakeFactory.deploy(\n                _phase,\n                _vault,\n                token,\n                paytoken,\n                periodBlock,\n                [ton, wton, depositManager, seigManager]\n            );\n        require(\n            _contract != address(0),\n            \"Stake1Logic: deploy fail\"\n        );\n\n        IStake1Vault(_vault).addSubVaultOfStake(_name, _contract, periodBlock);\n        stakeRegistry.addStakeContract(_vault, _contract);\n\n        emit CreatedStakeContract(_vault, _contract, _phase);\n    }\n\n    function currentBlock() external view returns (uint256) {\n        return block.number;\n    }\n\n    function closeSale(address _vault) external {\n        IStake1Vault(_vault).closeSale();\n\n        // emit ClosedSale(_vault, msg.sender);\n    }\n\n    function addVault(\n        uint256 _phase,\n        bytes32 _vaultName,\n        address _vault\n    ) external onlyOwner {\n\n        stakeRegistry.addVault(_vault, _phase, _vaultName);\n    }\n\n    function upgradeStakeTo(address _stakeProxy, address _implementation) external onlyOwner {\n        IProxy(_stakeProxy).upgradeTo(_implementation);\n    }\n\n    function stakeContractsOfVault(address _vault)\n        external\n        view\n        nonZero(_vault)\n        returns (address[] memory)\n    {\n        return IStake1Vault(_vault).stakeAddressesAll();\n    }\n\n    function vaultsOfPhase(uint256 _phaseIndex)\n        external\n        view\n        returns (address[] memory)\n    {\n        return stakeRegistry.phasesAll(_phaseIndex);\n    }\n\n    function tokamakStaking(\n        address _stakeContract,\n        address _layer2\n    ) external {\n        IStakeTON(_stakeContract).tokamakStaking(_layer2);\n        //emit TokamakStaked(_stakeContract, msg.sender, _layer2);\n    }\n\n    /// @dev Requests unstaking all\n    function tokamakRequestUnStakingAll(address _stakeContract, address _layer2)\n        external\n    {\n        IStakeTON(_stakeContract).tokamakRequestUnStakingAll(_layer2);\n        //emit TokamakRequestedUnStakingAll(_stakeContract, msg.sender, _layer2);\n    }\n\n    /// @dev Requests unstaking\n    function tokamakRequestUnStakingReward(\n        address _stakeContract,\n        address _layer2\n    ) external {\n        IStakeTON(_stakeContract).tokamakRequestUnStakingReward(_layer2);\n        //emit TokamakRequestedUnStakingReward(_stakeContract, msg.sender, _layer2);\n    }\n\n    /// @dev Processes unstaking\n    function tokamakProcessUnStaking(\n        address _stakeContract,\n        address _layer2,\n        bool receiveTON\n    ) external {\n        IStakeTON(_stakeContract).tokamakProcessUnStaking(_layer2, receiveTON);\n        //emit TokamakProcessedUnStaking(_stakeContract, msg.sender, _layer2, receiveTON);\n    }\n\n    /// @dev Sets FLD address\n    function setFLD(address _fld) public onlyOwner nonZero(_fld) {\n        fld = _fld;\n    }\n\n    /// @dev Sets Stake Registry address\n    function setStakeRegistry(address _stakeRegistry)\n        public\n        onlyOwner\n        nonZero(_stakeRegistry)\n    {\n        stakeRegistry = IStakeRegistry(_stakeRegistry);\n        emit SetStakeRegistry(_stakeRegistry);\n    }\n\n    /// @dev Sets Stake Factory address\n    function setStakeFactory(address _stakeFactory)\n        public\n        onlyOwner\n        nonZero(_stakeFactory)\n    {\n        stakeFactory = IStakeFactory(_stakeFactory);\n        emit SetStakeFactory(_stakeFactory);\n    }\n\n    function vaultsOfPahse(uint256 _phase)\n        public\n        view\n        nonZero(address(stakeRegistry))\n        returns (address[] memory)\n    {\n        return stakeRegistry.phasesAll(_phase);\n    }\n}\n",
  "sourcePath": "/Users/kadyrbeknarmamatov/code/ico20-contracts/contracts/stake/Stake1Logic.sol",
  "compiler": {
    "name": "solc",
    "version": "0.7.6+commit.7338295f.Emscripten.clang"
  },
  "schemaVersion": "3.4.0",
  "updatedAt": "2021-05-19T07:13:00.445Z",
  "devdoc": {
    "kind": "dev",
    "methods": {
      "getRoleAdmin(bytes32)": {
        "details": "Returns the admin role that controls `role`. See {grantRole} and {revokeRole}. To change a role's admin, use {_setRoleAdmin}."
      },
      "getRoleMember(bytes32,uint256)": {
        "details": "Returns one of the accounts that have `role`. `index` must be a value between 0 and {getRoleMemberCount}, non-inclusive. Role bearers are not sorted in any particular way, and their ordering may change at any point. WARNING: When using {getRoleMember} and {getRoleMemberCount}, make sure you perform all queries on the same block. See the following https://forum.openzeppelin.com/t/iterating-over-elements-on-enumerableset-in-openzeppelin-contracts/2296[forum post] for more information."
      },
      "getRoleMemberCount(bytes32)": {
        "details": "Returns the number of accounts that have `role`. Can be used together with {getRoleMember} to enumerate all bearers of a role."
      },
      "grantRole(bytes32,address)": {
        "details": "Grants `role` to `account`. If `account` had not been already granted `role`, emits a {RoleGranted} event. Requirements: - the caller must have ``role``'s admin role."
      },
      "hasRole(bytes32,address)": {
        "details": "Returns `true` if `account` has been granted `role`."
      },
      "renounceRole(bytes32,address)": {
        "details": "Revokes `role` from the calling account. Roles are often managed via {grantRole} and {revokeRole}: this function's purpose is to provide a mechanism for accounts to lose their privileges if they are compromised (such as when a trusted device is misplaced). If the calling account had been granted `role`, emits a {RoleRevoked} event. Requirements: - the caller must be `account`."
      },
      "revokeRole(bytes32,address)": {
        "details": "Revokes `role` from `account`. If `account` had been granted `role`, emits a {RoleRevoked} event. Requirements: - the caller must have ``role``'s admin role."
      },
      "setFLD(address)": {
        "details": "Sets FLD address"
      },
      "setStakeFactory(address)": {
        "details": "Sets Stake Factory address"
      },
      "setStakeRegistry(address)": {
        "details": "Sets Stake Registry address"
      },
      "tokamakProcessUnStaking(address,address,bool)": {
        "details": "Processes unstaking"
      },
      "tokamakRequestUnStakingAll(address,address)": {
        "details": "Requests unstaking all"
      },
      "tokamakRequestUnStakingReward(address,address)": {
        "details": "Requests unstaking"
      }
    },
    "version": 1
  },
  "userdoc": {
    "kind": "user",
    "methods": {},
    "version": 1
  }
}