{
  "contractName": "StakeDefiProxy",
  "abi": [
    {
      "inputs": [
        {
          "internalType": "address",
          "name": "_logic",
          "type": "address"
        }
      ],
      "stateMutability": "nonpayable",
      "type": "constructor"
    },
    {
      "anonymous": false,
      "inputs": [
        {
          "indexed": true,
          "internalType": "bytes32",
          "name": "role",
          "type": "bytes32"
        },
        {
          "indexed": true,
          "internalType": "bytes32",
          "name": "previousAdminRole",
          "type": "bytes32"
        },
        {
          "indexed": true,
          "internalType": "bytes32",
          "name": "newAdminRole",
          "type": "bytes32"
        }
      ],
      "name": "RoleAdminChanged",
      "type": "event"
    },
    {
      "anonymous": false,
      "inputs": [
        {
          "indexed": true,
          "internalType": "bytes32",
          "name": "role",
          "type": "bytes32"
        },
        {
          "indexed": true,
          "internalType": "address",
          "name": "account",
          "type": "address"
        },
        {
          "indexed": true,
          "internalType": "address",
          "name": "sender",
          "type": "address"
        }
      ],
      "name": "RoleGranted",
      "type": "event"
    },
    {
      "anonymous": false,
      "inputs": [
        {
          "indexed": true,
          "internalType": "bytes32",
          "name": "role",
          "type": "bytes32"
        },
        {
          "indexed": true,
          "internalType": "address",
          "name": "account",
          "type": "address"
        },
        {
          "indexed": true,
          "internalType": "address",
          "name": "sender",
          "type": "address"
        }
      ],
      "name": "RoleRevoked",
      "type": "event"
    },
    {
      "anonymous": false,
      "inputs": [
        {
          "indexed": true,
          "internalType": "address",
          "name": "implementation",
          "type": "address"
        }
      ],
      "name": "Upgraded",
      "type": "event"
    },
    {
      "stateMutability": "payable",
      "type": "fallback"
    },
    {
      "inputs": [],
      "name": "ADMIN_ROLE",
      "outputs": [
        {
          "internalType": "bytes32",
          "name": "",
          "type": "bytes32"
        }
      ],
      "stateMutability": "view",
      "type": "function"
    },
    {
      "inputs": [],
      "name": "BURNER_ROLE",
      "outputs": [
        {
          "internalType": "bytes32",
          "name": "",
          "type": "bytes32"
        }
      ],
      "stateMutability": "view",
      "type": "function"
    },
    {
      "inputs": [],
      "name": "DEFAULT_ADMIN_ROLE",
      "outputs": [
        {
          "internalType": "bytes32",
          "name": "",
          "type": "bytes32"
        }
      ],
      "stateMutability": "view",
      "type": "function"
    },
    {
      "inputs": [],
      "name": "MINTER_ROLE",
      "outputs": [
        {
          "internalType": "bytes32",
          "name": "",
          "type": "bytes32"
        }
      ],
      "stateMutability": "view",
      "type": "function"
    },
    {
      "inputs": [
        {
          "internalType": "address",
          "name": "account",
          "type": "address"
        }
      ],
      "name": "addAdmin",
      "outputs": [],
      "stateMutability": "nonpayable",
      "type": "function"
    },
    {
      "inputs": [],
      "name": "defiAddr",
      "outputs": [
        {
          "internalType": "address",
          "name": "",
          "type": "address"
        }
      ],
      "stateMutability": "view",
      "type": "function"
    },
    {
      "inputs": [],
      "name": "endBlock",
      "outputs": [
        {
          "internalType": "uint256",
          "name": "",
          "type": "uint256"
        }
      ],
      "stateMutability": "view",
      "type": "function"
    },
    {
      "inputs": [
        {
          "internalType": "bytes32",
          "name": "role",
          "type": "bytes32"
        }
      ],
      "name": "getRoleAdmin",
      "outputs": [
        {
          "internalType": "bytes32",
          "name": "",
          "type": "bytes32"
        }
      ],
      "stateMutability": "view",
      "type": "function"
    },
    {
      "inputs": [
        {
          "internalType": "bytes32",
          "name": "role",
          "type": "bytes32"
        },
        {
          "internalType": "uint256",
          "name": "index",
          "type": "uint256"
        }
      ],
      "name": "getRoleMember",
      "outputs": [
        {
          "internalType": "address",
          "name": "",
          "type": "address"
        }
      ],
      "stateMutability": "view",
      "type": "function"
    },
    {
      "inputs": [
        {
          "internalType": "bytes32",
          "name": "role",
          "type": "bytes32"
        }
      ],
      "name": "getRoleMemberCount",
      "outputs": [
        {
          "internalType": "uint256",
          "name": "",
          "type": "uint256"
        }
      ],
      "stateMutability": "view",
      "type": "function"
    },
    {
      "inputs": [
        {
          "internalType": "address",
          "name": "user",
          "type": "address"
        }
      ],
      "name": "getUserStaked",
      "outputs": [
        {
          "internalType": "uint256",
          "name": "amount",
          "type": "uint256"
        },
        {
          "internalType": "uint256",
          "name": "claimedBlock",
          "type": "uint256"
        },
        {
          "internalType": "uint256",
          "name": "claimedAmount",
          "type": "uint256"
        },
        {
          "internalType": "uint256",
          "name": "releasedBlock",
          "type": "uint256"
        },
        {
          "internalType": "uint256",
          "name": "releasedAmount",
          "type": "uint256"
        },
        {
          "internalType": "uint256",
          "name": "releasedTOSAmount",
          "type": "uint256"
        },
        {
          "internalType": "bool",
          "name": "released",
          "type": "bool"
        }
      ],
      "stateMutability": "view",
      "type": "function"
    },
    {
      "inputs": [
        {
          "internalType": "bytes32",
          "name": "role",
          "type": "bytes32"
        },
        {
          "internalType": "address",
          "name": "account",
          "type": "address"
        }
      ],
      "name": "grantRole",
      "outputs": [],
      "stateMutability": "nonpayable",
      "type": "function"
    },
    {
      "inputs": [
        {
          "internalType": "bytes32",
          "name": "role",
          "type": "bytes32"
        },
        {
          "internalType": "address",
          "name": "account",
          "type": "address"
        }
      ],
      "name": "hasRole",
      "outputs": [
        {
          "internalType": "bool",
          "name": "",
          "type": "bool"
        }
      ],
      "stateMutability": "view",
      "type": "function"
    },
    {
      "inputs": [],
      "name": "infos",
      "outputs": [
        {
          "internalType": "address",
          "name": "",
          "type": "address"
        },
        {
          "internalType": "address",
          "name": "",
          "type": "address"
        },
        {
          "internalType": "uint256[3]",
          "name": "",
          "type": "uint256[3]"
        },
        {
          "internalType": "uint256",
          "name": "",
          "type": "uint256"
        },
        {
          "internalType": "uint256",
          "name": "",
          "type": "uint256"
        },
        {
          "internalType": "uint256",
          "name": "",
          "type": "uint256"
        }
      ],
      "stateMutability": "view",
      "type": "function"
    },
    {
      "inputs": [
        {
          "internalType": "address",
          "name": "account",
          "type": "address"
        }
      ],
      "name": "isAdmin",
      "outputs": [
        {
          "internalType": "bool",
          "name": "",
          "type": "bool"
        }
      ],
      "stateMutability": "view",
      "type": "function"
    },
    {
      "inputs": [],
      "name": "migratedL2",
      "outputs": [
        {
          "internalType": "bool",
          "name": "",
          "type": "bool"
        }
      ],
      "stateMutability": "view",
      "type": "function"
    },
    {
      "inputs": [],
      "name": "pauseProxy",
      "outputs": [
        {
          "internalType": "bool",
          "name": "",
          "type": "bool"
        }
      ],
      "stateMutability": "view",
      "type": "function"
    },
    {
      "inputs": [],
      "name": "paytoken",
      "outputs": [
        {
          "internalType": "address",
          "name": "",
          "type": "address"
        }
      ],
      "stateMutability": "view",
      "type": "function"
    },
    {
      "inputs": [
        {
          "internalType": "address",
          "name": "account",
          "type": "address"
        }
      ],
      "name": "removeAdmin",
      "outputs": [],
      "stateMutability": "nonpayable",
      "type": "function"
    },
    {
      "inputs": [
        {
          "internalType": "bytes32",
          "name": "role",
          "type": "bytes32"
        },
        {
          "internalType": "address",
          "name": "account",
          "type": "address"
        }
      ],
      "name": "renounceRole",
      "outputs": [],
      "stateMutability": "nonpayable",
      "type": "function"
    },
    {
      "inputs": [
        {
          "internalType": "bytes32",
          "name": "role",
          "type": "bytes32"
        },
        {
          "internalType": "address",
          "name": "account",
          "type": "address"
        }
      ],
      "name": "revokeRole",
      "outputs": [],
      "stateMutability": "nonpayable",
      "type": "function"
    },
    {
      "inputs": [],
      "name": "rewardClaimedTotal",
      "outputs": [
        {
          "internalType": "uint256",
          "name": "",
          "type": "uint256"
        }
      ],
      "stateMutability": "view",
      "type": "function"
    },
    {
      "inputs": [],
      "name": "saleStartBlock",
      "outputs": [
        {
          "internalType": "uint256",
          "name": "",
          "type": "uint256"
        }
      ],
      "stateMutability": "view",
      "type": "function"
    },
    {
      "inputs": [],
      "name": "stakeRegistry",
      "outputs": [
        {
          "internalType": "address",
          "name": "",
          "type": "address"
        }
      ],
      "stateMutability": "view",
      "type": "function"
    },
    {
      "inputs": [],
      "name": "startBlock",
      "outputs": [
        {
          "internalType": "uint256",
          "name": "",
          "type": "uint256"
        }
      ],
      "stateMutability": "view",
      "type": "function"
    },
    {
      "inputs": [],
      "name": "token",
      "outputs": [
        {
          "internalType": "address",
          "name": "",
          "type": "address"
        }
      ],
      "stateMutability": "view",
      "type": "function"
    },
    {
      "inputs": [],
      "name": "totalStakedAmount",
      "outputs": [
        {
          "internalType": "uint256",
          "name": "",
          "type": "uint256"
        }
      ],
      "stateMutability": "view",
      "type": "function"
    },
    {
      "inputs": [],
      "name": "totalStakers",
      "outputs": [
        {
          "internalType": "uint256",
          "name": "",
          "type": "uint256"
        }
      ],
      "stateMutability": "view",
      "type": "function"
    },
    {
      "inputs": [
        {
          "internalType": "address",
          "name": "newAdmin",
          "type": "address"
        }
      ],
      "name": "transferAdmin",
      "outputs": [],
      "stateMutability": "nonpayable",
      "type": "function"
    },
    {
      "inputs": [
        {
          "internalType": "address",
          "name": "",
          "type": "address"
        }
      ],
      "name": "userStaked",
      "outputs": [
        {
          "internalType": "uint256",
          "name": "amount",
          "type": "uint256"
        },
        {
          "internalType": "uint256",
          "name": "claimedBlock",
          "type": "uint256"
        },
        {
          "internalType": "uint256",
          "name": "claimedAmount",
          "type": "uint256"
        },
        {
          "internalType": "uint256",
          "name": "releasedBlock",
          "type": "uint256"
        },
        {
          "internalType": "uint256",
          "name": "releasedAmount",
          "type": "uint256"
        },
        {
          "internalType": "uint256",
          "name": "releasedTOSAmount",
          "type": "uint256"
        },
        {
          "internalType": "bool",
          "name": "released",
          "type": "bool"
        }
      ],
      "stateMutability": "view",
      "type": "function"
    },
    {
      "inputs": [],
      "name": "vault",
      "outputs": [
        {
          "internalType": "address",
          "name": "",
          "type": "address"
        }
      ],
      "stateMutability": "view",
      "type": "function"
    },
    {
      "stateMutability": "payable",
      "type": "receive"
    },
    {
      "inputs": [
        {
          "internalType": "bool",
          "name": "_pause",
          "type": "bool"
        }
      ],
      "name": "setProxyPause",
      "outputs": [],
      "stateMutability": "nonpayable",
      "type": "function"
    },
    {
      "inputs": [
        {
          "internalType": "address",
          "name": "impl",
          "type": "address"
        }
      ],
      "name": "upgradeTo",
      "outputs": [],
      "stateMutability": "nonpayable",
      "type": "function"
    },
    {
      "inputs": [],
      "name": "implementation",
      "outputs": [
        {
          "internalType": "address",
          "name": "",
          "type": "address"
        }
      ],
      "stateMutability": "view",
      "type": "function"
    },
    {
      "inputs": [
        {
          "internalType": "address[4]",
          "name": "_addr",
          "type": "address[4]"
        },
        {
          "internalType": "address",
          "name": "_registry",
          "type": "address"
        },
        {
          "internalType": "uint256[3]",
          "name": "_intdata",
          "type": "uint256[3]"
        }
      ],
      "name": "setInit",
      "outputs": [],
      "stateMutability": "nonpayable",
      "type": "function"
    }
  ],
  "bytecode": "0x60806040523480156200001157600080fd5b506040516200197038038062001970833981810160405260208110156200003757600080fd5b50516001600160a01b03811662000095576040805162461bcd60e51b815260206004820152601d60248201527f5374616b654465666950726f78793a206c6f676963206973207a65726f000000604482015290519081900360640190fd5b620000a081620000f8565b620000bb6000805160206200190a833981519152806200016f565b620000d66000805160206200190a83398151915233620001c1565b620000f16000805160206200190a83398151915230620001c1565b50620002dd565b6200010e81620001d160201b620010f11760201c565b6200014b5760405162461bcd60e51b81526004018080602001828103825260468152602001806200192a6046913960600191505060405180910390fd5b7f360894a13ba1a3210667c828492db98dca3e2076cc3735a920a3ca505d382bbc55565b6000828152600d6020526040808220600201549051839285917fbd79b86ffe0ab8e8776151514217cd7cacd52c909f66475c3af44e129f0b00ff9190a46000918252600d602052604090912060020155565b620001cd8282620001d7565b5050565b3b151590565b6000828152600d60209081526040909120620001fe918390620010f762000252821b17901c565b15620001cd576200020e62000272565b6001600160a01b0316816001600160a01b0316837f2f8788117e7eff1d82e926ec794901d17c78024a50270940304540a733656f0d60405160405180910390a45050565b600062000269836001600160a01b03841662000276565b90505b92915050565b3390565b6000620002848383620002c5565b620002bc575081546001818101845560008481526020808220909301849055845484825282860190935260409020919091556200026c565b5060006200026c565b60009081526001919091016020526040902054151590565b61161d80620002ed6000396000f3fe6080604052600436106101c85760003560e01c806375b238fc116100f8578063acc3a93911610090578063acc3a939146105f2578063b2d4d6a31461065f578063ca15c87314610674578063d53913931461069e578063d547741f146106b3578063dac3fc3f146106ec578063e7bf950c1461071f578063fbfa77cf146107bf578063fc0c546a146107d4576101d7565b806375b238fc146104795780637cb00d251461048e57806386989038146104ba5780639010d07c146104cf57806391d14854146104ff5780639a88be2f146105385780639d84ca35146105b3578063a1f5f50e146105c8578063a217fddf146105dd576101d7565b80633659cfe61161016b5780633659cfe61461034657806343b0934a1461037957806348cd4cb1146103aa578063567e98f9146103bf5780635c60da1b146103d457806363a8fd89146103e957806368304835146103fe578063704802751461041357806375829def14610446576101d7565b8063083c6323146101df5780631785f53c146102065780632002727514610239578063248a9ca31461024e57806324d7806c14610278578063282c51f3146102bf5780632f2ff15d146102d457806336568abe1461030d576101d7565b366101d7576101d56107e9565b005b6101d56107e9565b3480156101eb57600080fd5b506101f461086f565b60408051918252519081900360200190f35b34801561021257600080fd5b506101d56004803603602081101561022957600080fd5b50356001600160a01b0316610875565b34801561024557600080fd5b506101f46108d4565b34801561025a57600080fd5b506101f46004803603602081101561027157600080fd5b50356108da565b34801561028457600080fd5b506102ab6004803603602081101561029b57600080fd5b50356001600160a01b03166108ef565b604080519115158252519081900360200190f35b3480156102cb57600080fd5b506101f461090f565b3480156102e057600080fd5b506101d5600480360360408110156102f757600080fd5b50803590602001356001600160a01b0316610933565b34801561031957600080fd5b506101d56004803603604081101561033057600080fd5b50803590602001356001600160a01b031661099f565b34801561035257600080fd5b506101d56004803603602081101561036957600080fd5b50356001600160a01b0316610a00565b34801561038557600080fd5b5061038e610b36565b604080516001600160a01b039092168252519081900360200190f35b3480156103b657600080fd5b506101f4610b45565b3480156103cb57600080fd5b506101f4610b4b565b3480156103e057600080fd5b5061038e610b51565b3480156103f557600080fd5b506102ab610b60565b34801561040a57600080fd5b5061038e610b69565b34801561041f57600080fd5b506101d56004803603602081101561043657600080fd5b50356001600160a01b0316610b78565b34801561045257600080fd5b506101d56004803603602081101561046957600080fd5b50356001600160a01b0316610bd4565b34801561048557600080fd5b506101f4610cf5565b34801561049a57600080fd5b506101d5600480360360208110156104b157600080fd5b50351515610d07565b3480156104c657600080fd5b506101f4610d5e565b3480156104db57600080fd5b5061038e600480360360408110156104f257600080fd5b5080359060200135610d64565b34801561050b57600080fd5b506102ab6004803603604081101561052257600080fd5b50803590602001356001600160a01b0316610d83565b34801561054457600080fd5b5061054d610d9b565b604080516001600160a01b0380891682528716602082015290810185606080838360005b83811015610589578181015183820152602001610571565b50505050905001848152602001838152602001828152602001965050505050505060405180910390f35b3480156105bf57600080fd5b5061038e610df1565b3480156105d457600080fd5b506102ab610e05565b3480156105e957600080fd5b506101f4610e15565b3480156105fe57600080fd5b506106256004803603602081101561061557600080fd5b50356001600160a01b0316610e1a565b604080519788526020880196909652868601949094526060860192909252608085015260a0840152151560c0830152519081900360e00190f35b34801561066b57600080fd5b506101f4610e5a565b34801561068057600080fd5b506101f46004803603602081101561069757600080fd5b5035610e60565b3480156106aa57600080fd5b506101f4610e77565b3480156106bf57600080fd5b506101d5600480360360408110156106d657600080fd5b50803590602001356001600160a01b0316610e9b565b3480156106f857600080fd5b506106256004803603602081101561070f57600080fd5b50356001600160a01b0316610ef4565b34801561072b57600080fd5b506101d5600480360361010081101561074357600080fd5b81019080806080019060048060200260405190810160405280929190826004602002808284376000920191909152505060408051606081810190925292956001600160a01b038535169590949093608082019350916020909101906003908390839080828437600092019190915250919450610f3d9350505050565b3480156107cb57600080fd5b5061038e6110d3565b3480156107e057600080fd5b5061038e6110e2565b60006107f361110c565b90506001600160a01b038116158015906108105750600c5460ff16155b61084b5760405162461bcd60e51b815260040180806020018281038252602e815260200180611545602e913960400191505060405180910390fd5b3660008037600080366000845af43d6000803e80801561086a573d6000f35b3d6000fd5b60065481565b61087e336108ef565b6108b95760405162461bcd60e51b81526004018080602001828103825260228152602001806114b06022913960400191505060405180910390fd5b6108d16000805160206115258339815191528261099f565b50565b60045481565b6000908152600d602052604090206002015490565b600061090960008051602061152583398151915283610d83565b92915050565b7f9667e80708b6eeeb0053fa0cca44e028ff548e2a9f029edfeac87c118b08b7c881565b6000828152600d602052604090206002015461095690610951611131565b610d83565b6109915760405162461bcd60e51b815260040180806020018281038252602f815260200180611481602f913960400191505060405180910390fd5b61099b8282611135565b5050565b6109a7611131565b6001600160a01b0316816001600160a01b0316146109f65760405162461bcd60e51b815260040180806020018281038252602f8152602001806115b9602f913960400191505060405180910390fd5b61099b828261119e565b610a09336108ef565b610a445760405162461bcd60e51b81526004018080602001828103825260228152602001806114b06022913960400191505060405180910390fd5b6001600160a01b038116610a9f576040805162461bcd60e51b815260206004820152601d60248201527f5374616b654465666950726f78793a20696e707574206973207a65726f000000604482015290519081900360640190fd5b806001600160a01b0316610ab161110c565b6001600160a01b03161415610af6576040805162461bcd60e51b8152602060048083019190915260248201526373616d6560e01b604482015290519081900360640190fd5b610aff81611207565b6040516001600160a01b038216907fbc7cd75a20ee27fd9adebab32041f755214dbc6bffa90cc0225b39da2e5c2d3b90600090a250565b6002546001600160a01b031681565b60055481565b60085481565b6000610b5b61110c565b905090565b600c5460ff1681565b6001546001600160a01b031681565b610b81336108ef565b610bbc5760405162461bcd60e51b81526004018080602001828103825260228152602001806114b06022913960400191505060405180910390fd5b6108d160008051602061152583398151915282610933565b610bdd336108ef565b610c185760405162461bcd60e51b81526004018080602001828103825260228152602001806114b06022913960400191505060405180910390fd5b6001600160a01b038116610c6e576040805162461bcd60e51b815260206004820152601860248201527741636365737369626c653a207a65726f206164647265737360401b604482015290519081900360640190fd5b336001600160a01b0382161415610cc5576040805162461bcd60e51b815260206004820152601660248201527520b1b1b2b9b9b4b136329d1039b0b6b29030b236b4b760511b604482015290519081900360640190fd5b610cdd60008051602061152583398151915282610933565b6108d16000805160206115258339815191523361099f565b60008051602061152583398151915281565b610d10336108ef565b610d4b5760405162461bcd60e51b81526004018080602001828103825260228152602001806114b06022913960400191505060405180910390fd5b600c805460ff1916911515919091179055565b600a5481565b6000828152600d60205260408120610d7c908361126f565b9392505050565b6000828152600d60205260408120610d7c908361127b565b600080610da6611440565b5050600254600354604080516060810182526004548152600554602082015260065491810191909152600754600854600a546001600160a01b03958616979590941695509193909290565b600c5461010090046001600160a01b031681565b600c54600160a81b900460ff1681565b600081565b6009602052600090815260409020805460018201546002830154600384015460048501546005860154600690960154949593949293919290919060ff1687565b60075481565b6000818152600d6020526040812061090990611290565b7ff0887ba65ee2024ea881d91b74c2450ef19e1557f03bed3ea9f16b037cbe2dc981565b6000828152600d6020526040902060020154610eb990610951611131565b6109f65760405162461bcd60e51b81526004018080602001828103825260308152602001806114f56030913960400191505060405180910390fd5b6001600160a01b03166000908152600960205260409020805460018201546002830154600384015460048501546005860154600690960154949693959294919390929160ff1690565b610f46336108ef565b610f815760405162461bcd60e51b81526004018080602001828103825260228152602001806114b06022913960400191505060405180910390fd5b6000546001600160a01b031615610fc95760405162461bcd60e51b81526004018080602001828103825260238152602001806114d26023913960400191505060405180910390fd5b60408301516001600160a01b031615801590610fe9575060208101518151105b61103a576040805162461bcd60e51b815260206004820152601c60248201527f5374616b654465666950726f78793a20736574496e6974206661696c00000000604482015290519081900360640190fd5b8251600080546001600160a01b03199081166001600160a01b0393841617909155602080860151600280548416918516919091179055604080870151600380548516918616919091179055606090960151600c8054610100600160a81b03191661010092861692909202919091179055600180549092169490921693909317909255805160045590810151600581905591015101600655565b6003546001600160a01b031681565b6000546001600160a01b031681565b3b151590565b6000610d7c836001600160a01b03841661129b565b7f360894a13ba1a3210667c828492db98dca3e2076cc3735a920a3ca505d382bbc5490565b3390565b6000828152600d6020526040902061114d90826110f7565b1561099b5761115a611131565b6001600160a01b0316816001600160a01b0316837f2f8788117e7eff1d82e926ec794901d17c78024a50270940304540a733656f0d60405160405180910390a45050565b6000828152600d602052604090206111b690826112e5565b1561099b576111c3611131565b6001600160a01b0316816001600160a01b0316837ff6391f5c32d9c69d2a47ea670b442974b53935d1edc7fd64eb21e047a839171b60405160405180910390a45050565b611210816110f1565b61124b5760405162461bcd60e51b81526004018080602001828103825260468152602001806115736046913960600191505060405180910390fd5b7f360894a13ba1a3210667c828492db98dca3e2076cc3735a920a3ca505d382bbc55565b6000610d7c83836112fa565b6000610d7c836001600160a01b03841661135e565b600061090982611376565b60006112a7838361135e565b6112dd57508154600181810184556000848152602080822090930184905584548482528286019093526040902091909155610909565b506000610909565b6000610d7c836001600160a01b03841661137a565b8154600090821061133c5760405162461bcd60e51b815260040180806020018281038252602281526020018061145f6022913960400191505060405180910390fd5b82600001828154811061134b57fe5b9060005260206000200154905092915050565b60009081526001919091016020526040902054151590565b5490565b6000818152600183016020526040812054801561143657835460001980830191908101906000908790839081106113ad57fe5b90600052602060002001549050808760000184815481106113ca57fe5b6000918252602080832090910192909255828152600189810190925260409020908401905586548790806113fa57fe5b60019003818190600052602060002001600090559055866001016000878152602001908152602001600020600090556001945050505050610909565b6000915050610909565b6040518060600160405280600390602082028036833750919291505056fe456e756d657261626c655365743a20696e646578206f7574206f6620626f756e6473416363657373436f6e74726f6c3a2073656e646572206d75737420626520616e2061646d696e20746f206772616e7441636365737369626c653a2043616c6c6572206973206e6f7420616e2061646d696e5374616b654465666950726f78793a20616c726561647920696e697469616c697a6564416363657373436f6e74726f6c3a2073656e646572206d75737420626520616e2061646d696e20746f207265766f6b65df8b4c520ffe197c5343c6f5aec59570151ef9a492f2c624fd45ddde6135ec425374616b654465666950726f78793a20696d706c206973207a65726f204f522070726f78792069732066616c736550726f7879426173653a2043616e6e6f742073657420612070726f787920696d706c656d656e746174696f6e20746f2061206e6f6e2d636f6e74726163742061646472657373416363657373436f6e74726f6c3a2063616e206f6e6c792072656e6f756e636520726f6c657320666f722073656c66a2646970667358221220ab8ed5b8bfc3feba22e4557de4176f88ea0d703f23e6f3aad0a675b99f556cf264736f6c63430007060033df8b4c520ffe197c5343c6f5aec59570151ef9a492f2c624fd45ddde6135ec4250726f7879426173653a2043616e6e6f742073657420612070726f787920696d706c656d656e746174696f6e20746f2061206e6f6e2d636f6e74726163742061646472657373",
  "immutableReferences": {},
  "source": "// SPDX-License-Identifier: MIT\npragma solidity ^0.7.6;\n\nimport \"../interfaces/IStakeDefiProxy.sol\";\nimport {Address} from \"@openzeppelin/contracts/utils/Address.sol\";\n\nimport \"./Stake1Storage.sol\";\nimport \"../common/AccessibleCommon.sol\";\nimport \"./ProxyBase.sol\";\n\n/// @title Proxy for stake defi contract\ncontract StakeDefiProxy is\n    Stake1Storage,\n    AccessibleCommon,\n    ProxyBase,\n    IStakeDefiProxy\n{\n    event Upgraded(address indexed implementation);\n\n    /// @dev constructor of StakeDefiProxy\n    /// @param _logic the logic address that used in proxy\n    constructor(address _logic) {\n        assert(\n            IMPLEMENTATION_SLOT ==\n                bytes32(uint256(keccak256(\"eip1967.proxy.implementation\")) - 1)\n        );\n\n        require(_logic != address(0), \"StakeDefiProxy: logic is zero\");\n\n        _setImplementation(_logic);\n\n        _setRoleAdmin(ADMIN_ROLE, ADMIN_ROLE);\n        _setupRole(ADMIN_ROLE, msg.sender);\n        _setupRole(ADMIN_ROLE, address(this));\n    }\n\n    /// @dev Set pause state\n    /// @param _pause true:pause or false:resume\n    function setProxyPause(bool _pause) external override onlyOwner {\n        pauseProxy = _pause;\n    }\n\n    /// @dev Set implementation contract\n    /// @param impl New implementation contract address\n    function upgradeTo(address impl) external override onlyOwner {\n        require(impl != address(0), \"StakeDefiProxy: input is zero\");\n        require(_implementation() != impl, \"same\");\n        _setImplementation(impl);\n        emit Upgraded(impl);\n    }\n\n    /// @dev returns the implementation\n    function implementation() external view override returns (address) {\n        return _implementation();\n    }\n\n    /// @dev receive ether\n    receive() external payable {\n        _fallback();\n    }\n\n    /// @dev fallback function , execute on undefined function call\n    fallback() external payable {\n        _fallback();\n    }\n\n    /// @dev fallback function , execute on undefined function call\n    function _fallback() internal {\n        address _impl = _implementation();\n        require(\n            _impl != address(0) && !pauseProxy,\n            \"StakeDefiProxy: impl is zero OR proxy is false\"\n        );\n\n        assembly {\n            // Copy msg.data. We take full control of memory in this inline assembly\n            // block because it will not return to Solidity code. We overwrite the\n            // Solidity scratch pad at memory position 0.\n            calldatacopy(0, 0, calldatasize())\n\n            // Call the implementation.\n            // out and outsize are 0 because we don't know the size yet.\n            let result := delegatecall(gas(), _impl, 0, calldatasize(), 0, 0)\n\n            // Copy the returned data.\n            returndatacopy(0, 0, returndatasize())\n\n            switch result\n                // delegatecall returns 0 on error.\n                case 0 {\n                    revert(0, returndatasize())\n                }\n                default {\n                    return(0, returndatasize())\n                }\n        }\n    }\n\n    /// @dev set initial storage\n    /// @param _addr the array addresses of token, paytoken, vault, defiAddr\n    /// @param _registry teh registry address\n    /// @param _intdata the array valued of saleStartBlock, stakeStartBlock, periodBlocks\n    function setInit(\n        address[4] memory _addr,\n        address _registry,\n        uint256[3] memory _intdata\n    ) external onlyOwner {\n        require(token == address(0), \"StakeDefiProxy: already initialized\");\n        require(\n            _addr[2] != address(0) && _intdata[0] < _intdata[1],\n            \"StakeDefiProxy: setInit fail\"\n        );\n        token = _addr[0];\n        paytoken = _addr[1];\n        vault = _addr[2];\n        defiAddr = _addr[3];\n\n        stakeRegistry = _registry;\n\n        saleStartBlock = _intdata[0];\n        startBlock = _intdata[1];\n        endBlock = startBlock + _intdata[2];\n    }\n}\n",
  "sourcePath": "/Users/zena/ico2.0/ico20-contracts/contracts/stake/StakeDefiProxy.sol",
  "compiler": {
    "name": "solc",
    "version": "0.7.6+commit.7338295f.Emscripten.clang"
  },
  "schemaVersion": "3.3.4",
  "updatedAt": "2021-08-02T05:01:31.318Z",
  "devdoc": {
    "kind": "dev",
    "methods": {
      "addAdmin(address)": {
        "details": "add admin",
        "params": {
          "account": "address to add"
        }
      },
      "constructor": {
        "details": "constructor of StakeDefiProxy",
        "params": {
          "_logic": "the logic address that used in proxy"
        }
      },
      "getRoleAdmin(bytes32)": {
        "details": "Returns the admin role that controls `role`. See {grantRole} and {revokeRole}. To change a role's admin, use {_setRoleAdmin}."
      },
      "getRoleMember(bytes32,uint256)": {
        "details": "Returns one of the accounts that have `role`. `index` must be a value between 0 and {getRoleMemberCount}, non-inclusive. Role bearers are not sorted in any particular way, and their ordering may change at any point. WARNING: When using {getRoleMember} and {getRoleMemberCount}, make sure you perform all queries on the same block. See the following https://forum.openzeppelin.com/t/iterating-over-elements-on-enumerableset-in-openzeppelin-contracts/2296[forum post] for more information."
      },
      "getRoleMemberCount(bytes32)": {
        "details": "Returns the number of accounts that have `role`. Can be used together with {getRoleMember} to enumerate all bearers of a role."
      },
      "getUserStaked(address)": {
        "details": "user's staked information"
      },
      "grantRole(bytes32,address)": {
        "details": "Grants `role` to `account`. If `account` had not been already granted `role`, emits a {RoleGranted} event. Requirements: - the caller must have ``role``'s admin role."
      },
      "hasRole(bytes32,address)": {
        "details": "Returns `true` if `account` has been granted `role`."
      },
      "implementation()": {
        "details": "returns the implementation"
      },
      "infos()": {
        "details": "Give the infomation of this stakeContracts",
        "returns": {
          "_0": "paytoken, vault, [saleStartBlock, startBlock, endBlock], rewardClaimedTotal, totalStakedAmount, totalStakers"
        }
      },
      "isAdmin(address)": {
        "details": "whether admin",
        "params": {
          "account": "address to check"
        }
      },
      "removeAdmin(address)": {
        "details": "remove admin",
        "params": {
          "account": "address to remove"
        }
      },
      "renounceRole(bytes32,address)": {
        "details": "Revokes `role` from the calling account. Roles are often managed via {grantRole} and {revokeRole}: this function's purpose is to provide a mechanism for accounts to lose their privileges if they are compromised (such as when a trusted device is misplaced). If the calling account had been granted `role`, emits a {RoleRevoked} event. Requirements: - the caller must be `account`."
      },
      "revokeRole(bytes32,address)": {
        "details": "Revokes `role` from `account`. If `account` had been granted `role`, emits a {RoleRevoked} event. Requirements: - the caller must have ``role``'s admin role."
      },
      "setInit(address[4],address,uint256[3])": {
        "details": "set initial storage",
        "params": {
          "_addr": "the array addresses of token, paytoken, vault, defiAddr",
          "_intdata": "the array valued of saleStartBlock, stakeStartBlock, periodBlocks",
          "_registry": "teh registry address"
        }
      },
      "setProxyPause(bool)": {
        "details": "Set pause state",
        "params": {
          "_pause": "true:pause or false:resume"
        }
      },
      "transferAdmin(address)": {
        "details": "transfer admin",
        "params": {
          "newAdmin": "new admin address"
        }
      },
      "upgradeTo(address)": {
        "details": "Set implementation contract",
        "params": {
          "impl": "New implementation contract address"
        }
      }
    },
    "title": "Proxy for stake defi contract",
    "version": 1
  },
  "userdoc": {
    "kind": "user",
    "methods": {},
    "version": 1
  }
}