{
  "contractName": "StakeVaultStorage",
  "abi": [
    {
      "anonymous": false,
      "inputs": [
        {
          "indexed": true,
          "internalType": "bytes32",
          "name": "role",
          "type": "bytes32"
        },
        {
          "indexed": true,
          "internalType": "bytes32",
          "name": "previousAdminRole",
          "type": "bytes32"
        },
        {
          "indexed": true,
          "internalType": "bytes32",
          "name": "newAdminRole",
          "type": "bytes32"
        }
      ],
      "name": "RoleAdminChanged",
      "type": "event"
    },
    {
      "anonymous": false,
      "inputs": [
        {
          "indexed": true,
          "internalType": "bytes32",
          "name": "role",
          "type": "bytes32"
        },
        {
          "indexed": true,
          "internalType": "address",
          "name": "account",
          "type": "address"
        },
        {
          "indexed": true,
          "internalType": "address",
          "name": "sender",
          "type": "address"
        }
      ],
      "name": "RoleGranted",
      "type": "event"
    },
    {
      "anonymous": false,
      "inputs": [
        {
          "indexed": true,
          "internalType": "bytes32",
          "name": "role",
          "type": "bytes32"
        },
        {
          "indexed": true,
          "internalType": "address",
          "name": "account",
          "type": "address"
        },
        {
          "indexed": true,
          "internalType": "address",
          "name": "sender",
          "type": "address"
        }
      ],
      "name": "RoleRevoked",
      "type": "event"
    },
    {
      "inputs": [],
      "name": "ADMIN_ROLE",
      "outputs": [
        {
          "internalType": "bytes32",
          "name": "",
          "type": "bytes32"
        }
      ],
      "stateMutability": "view",
      "type": "function"
    },
    {
      "inputs": [],
      "name": "DEFAULT_ADMIN_ROLE",
      "outputs": [
        {
          "internalType": "bytes32",
          "name": "",
          "type": "bytes32"
        }
      ],
      "stateMutability": "view",
      "type": "function"
    },
    {
      "inputs": [],
      "name": "blockTotalReward",
      "outputs": [
        {
          "internalType": "uint256",
          "name": "",
          "type": "uint256"
        }
      ],
      "stateMutability": "view",
      "type": "function"
    },
    {
      "inputs": [],
      "name": "cap",
      "outputs": [
        {
          "internalType": "uint256",
          "name": "",
          "type": "uint256"
        }
      ],
      "stateMutability": "view",
      "type": "function"
    },
    {
      "inputs": [],
      "name": "defiAddr",
      "outputs": [
        {
          "internalType": "address",
          "name": "",
          "type": "address"
        }
      ],
      "stateMutability": "view",
      "type": "function"
    },
    {
      "inputs": [
        {
          "internalType": "bytes32",
          "name": "role",
          "type": "bytes32"
        }
      ],
      "name": "getRoleAdmin",
      "outputs": [
        {
          "internalType": "bytes32",
          "name": "",
          "type": "bytes32"
        }
      ],
      "stateMutability": "view",
      "type": "function"
    },
    {
      "inputs": [
        {
          "internalType": "bytes32",
          "name": "role",
          "type": "bytes32"
        },
        {
          "internalType": "uint256",
          "name": "index",
          "type": "uint256"
        }
      ],
      "name": "getRoleMember",
      "outputs": [
        {
          "internalType": "address",
          "name": "",
          "type": "address"
        }
      ],
      "stateMutability": "view",
      "type": "function"
    },
    {
      "inputs": [
        {
          "internalType": "bytes32",
          "name": "role",
          "type": "bytes32"
        }
      ],
      "name": "getRoleMemberCount",
      "outputs": [
        {
          "internalType": "uint256",
          "name": "",
          "type": "uint256"
        }
      ],
      "stateMutability": "view",
      "type": "function"
    },
    {
      "inputs": [
        {
          "internalType": "bytes32",
          "name": "role",
          "type": "bytes32"
        },
        {
          "internalType": "address",
          "name": "account",
          "type": "address"
        }
      ],
      "name": "grantRole",
      "outputs": [],
      "stateMutability": "nonpayable",
      "type": "function"
    },
    {
      "inputs": [
        {
          "internalType": "bytes32",
          "name": "role",
          "type": "bytes32"
        },
        {
          "internalType": "address",
          "name": "account",
          "type": "address"
        }
      ],
      "name": "hasRole",
      "outputs": [
        {
          "internalType": "bool",
          "name": "",
          "type": "bool"
        }
      ],
      "stateMutability": "view",
      "type": "function"
    },
    {
      "inputs": [
        {
          "internalType": "uint256",
          "name": "",
          "type": "uint256"
        }
      ],
      "name": "orderedEndBlocks",
      "outputs": [
        {
          "internalType": "uint256",
          "name": "",
          "type": "uint256"
        }
      ],
      "stateMutability": "view",
      "type": "function"
    },
    {
      "inputs": [],
      "name": "paytoken",
      "outputs": [
        {
          "internalType": "address",
          "name": "",
          "type": "address"
        }
      ],
      "stateMutability": "view",
      "type": "function"
    },
    {
      "inputs": [],
      "name": "realEndBlock",
      "outputs": [
        {
          "internalType": "uint256",
          "name": "",
          "type": "uint256"
        }
      ],
      "stateMutability": "view",
      "type": "function"
    },
    {
      "inputs": [
        {
          "internalType": "bytes32",
          "name": "role",
          "type": "bytes32"
        },
        {
          "internalType": "address",
          "name": "account",
          "type": "address"
        }
      ],
      "name": "renounceRole",
      "outputs": [],
      "stateMutability": "nonpayable",
      "type": "function"
    },
    {
      "inputs": [
        {
          "internalType": "bytes32",
          "name": "role",
          "type": "bytes32"
        },
        {
          "internalType": "address",
          "name": "account",
          "type": "address"
        }
      ],
      "name": "revokeRole",
      "outputs": [],
      "stateMutability": "nonpayable",
      "type": "function"
    },
    {
      "inputs": [],
      "name": "saleClosed",
      "outputs": [
        {
          "internalType": "bool",
          "name": "",
          "type": "bool"
        }
      ],
      "stateMutability": "view",
      "type": "function"
    },
    {
      "inputs": [],
      "name": "saleStartBlock",
      "outputs": [
        {
          "internalType": "uint256",
          "name": "",
          "type": "uint256"
        }
      ],
      "stateMutability": "view",
      "type": "function"
    },
    {
      "inputs": [
        {
          "internalType": "uint256",
          "name": "",
          "type": "uint256"
        }
      ],
      "name": "stakeAddresses",
      "outputs": [
        {
          "internalType": "address",
          "name": "",
          "type": "address"
        }
      ],
      "stateMutability": "view",
      "type": "function"
    },
    {
      "inputs": [],
      "name": "stakeEndBlock",
      "outputs": [
        {
          "internalType": "uint256",
          "name": "",
          "type": "uint256"
        }
      ],
      "stateMutability": "view",
      "type": "function"
    },
    {
      "inputs": [
        {
          "internalType": "uint256",
          "name": "",
          "type": "uint256"
        }
      ],
      "name": "stakeEndBlockTotal",
      "outputs": [
        {
          "internalType": "uint256",
          "name": "",
          "type": "uint256"
        }
      ],
      "stateMutability": "view",
      "type": "function"
    },
    {
      "inputs": [
        {
          "internalType": "address",
          "name": "",
          "type": "address"
        }
      ],
      "name": "stakeInfos",
      "outputs": [
        {
          "internalType": "string",
          "name": "name",
          "type": "string"
        },
        {
          "internalType": "uint256",
          "name": "startBlock",
          "type": "uint256"
        },
        {
          "internalType": "uint256",
          "name": "endBlock",
          "type": "uint256"
        },
        {
          "internalType": "uint256",
          "name": "balance",
          "type": "uint256"
        },
        {
          "internalType": "uint256",
          "name": "totalRewardAmount",
          "type": "uint256"
        },
        {
          "internalType": "uint256",
          "name": "claimRewardAmount",
          "type": "uint256"
        }
      ],
      "stateMutability": "view",
      "type": "function"
    },
    {
      "inputs": [],
      "name": "stakeStartBlock",
      "outputs": [
        {
          "internalType": "uint256",
          "name": "",
          "type": "uint256"
        }
      ],
      "stateMutability": "view",
      "type": "function"
    },
    {
      "inputs": [],
      "name": "stakeType",
      "outputs": [
        {
          "internalType": "uint256",
          "name": "",
          "type": "uint256"
        }
      ],
      "stateMutability": "view",
      "type": "function"
    },
    {
      "inputs": [],
      "name": "tos",
      "outputs": [
        {
          "internalType": "address",
          "name": "",
          "type": "address"
        }
      ],
      "stateMutability": "view",
      "type": "function"
    },
    {
      "inputs": [
        {
          "internalType": "address",
          "name": "newOwner",
          "type": "address"
        }
      ],
      "name": "transferOwnership",
      "outputs": [],
      "stateMutability": "nonpayable",
      "type": "function"
    }
  ],
  "bytecode": "0x608060405234801561001057600080fd5b50610c4c806100206000396000f3fe608060405234801561001057600080fd5b50600436106101635760003560e01c806389f395de116100ce578063b8c766b811610087578063b8c766b814610317578063b97af0db1461031f578063ca15c87314610327578063d105bf8514610344578063d547741f1461034c578063dfbf9def14610378578063f2fde38b1461043957610163565b806389f395de146102945780639010d07c1461029c57806391d14854146102bf5780639d84ca35146102ff578063a217fddf14610307578063b03dc5141461030f57610163565b806336568abe1161012057806336568abe1461022b5780633a76eb371461025757806343b0934a1461025f5780634b5e7cd5146102675780635f1bd62a1461026f57806375b238fc1461028c57610163565b8063153099d0146101685780632002727514610197578063248a9ca31461019f578063294f5fa3146101bc5780632f2ff15d146101f5578063355274ea14610223575b600080fd5b6101856004803603602081101561017e57600080fd5b503561045f565b60408051918252519081900360200190f35b610185610480565b610185600480360360208110156101b557600080fd5b5035610486565b6101d9600480360360208110156101d257600080fd5b503561049b565b604080516001600160a01b039092168252519081900360200190f35b6102216004803603604081101561020b57600080fd5b50803590602001356001600160a01b03166104c5565b005b610185610531565b6102216004803603604081101561024157600080fd5b50803590602001356001600160a01b0316610537565b610185610598565b6101d961059e565b6101856105ad565b6101856004803603602081101561028557600080fd5b50356105b3565b6101856105c5565b6101d96105d7565b6101d9600480360360408110156102b257600080fd5b50803590602001356105e6565b6102eb600480360360408110156102d557600080fd5b50803590602001356001600160a01b0316610607565b604080519115158252519081900360200190f35b6101d961061f565b61018561062e565b610185610633565b6102eb610639565b610185610642565b6101856004803603602081101561033d57600080fd5b5035610648565b61018561065f565b6102216004803603604081101561036257600080fd5b50803590602001356001600160a01b0316610665565b61039e6004803603602081101561038e57600080fd5b50356001600160a01b03166106be565b6040518080602001878152602001868152602001858152602001848152602001838152602001828103825288818151815260200191508051906020019080838360005b838110156103f95781810151838201526020016103e1565b50505050905090810190601f1680156104265780820380516001836020036101000a031916815260200191505b5097505050505050505060405180910390f35b6102216004803603602081101561044f57600080fd5b50356001600160a01b031661077d565b600e818154811061046f57600080fd5b600091825260209091200154905081565b60045481565b60009081526020819052604090206002015490565b600c81815481106104ab57600080fd5b6000918252602090912001546001600160a01b0316905081565b6000828152602081905260409020600201546104e8906104e3610861565b610607565b6105235760405162461bcd60e51b815260040180806020018281038252602f815260200180610b69602f913960400191505060405180910390fd5b61052d8282610865565b5050565b60035481565b61053f610861565b6001600160a01b0316816001600160a01b03161461058e5760405162461bcd60e51b815260040180806020018281038252602f815260200180610be8602f913960400191505060405180910390fd5b61052d82826108ce565b60065481565b6002546001600160a01b031681565b60055481565b600f6020526000908152604090205481565b600080516020610bc883398151915281565b6001546001600160a01b031681565b60008281526020819052604081206105fe9083610937565b90505b92915050565b60008281526020819052604081206105fe9083610943565b600b546001600160a01b031681565b600081565b60075481565b60095460ff1681565b600a5481565b600081815260208190526040812061060190610958565b60085481565b600082815260208190526040902060020154610683906104e3610861565b61058e5760405162461bcd60e51b8152600401808060200182810382526030815260200180610b986030913960400191505060405180910390fd5b600d6020908152600091825260409182902080548351601f600260001961010060018616150201909316929092049182018490048402810184019094528084529092918391908301828280156107555780601f1061072a57610100808354040283529160200191610755565b820191906000526020600020905b81548152906001019060200180831161073857829003601f168201915b5050505050908060010154908060020154908060030154908060040154908060050154905086565b610795600080516020610bc883398151915233610607565b6107d05760405162461bcd60e51b8152600401808060200182810382526029815260200180610b1e6029913960400191505060405180910390fd5b336001600160a01b038216141561082e576040805162461bcd60e51b815260206004820152601d60248201527f5374616b655661756c7453746f726167653a2073616d65206f776e6572000000604482015290519081900360640190fd5b610846600080516020610bc8833981519152826104c5565b61085e600080516020610bc883398151915233610665565b50565b3390565b600082815260208190526040902061087d9082610963565b1561052d5761088a610861565b6001600160a01b0316816001600160a01b0316837f2f8788117e7eff1d82e926ec794901d17c78024a50270940304540a733656f0d60405160405180910390a45050565b60008281526020819052604090206108e69082610978565b1561052d576108f3610861565b6001600160a01b0316816001600160a01b0316837ff6391f5c32d9c69d2a47ea670b442974b53935d1edc7fd64eb21e047a839171b60405160405180910390a45050565b60006105fe838361098d565b60006105fe836001600160a01b0384166109f1565b600061060182610a09565b60006105fe836001600160a01b038416610a0d565b60006105fe836001600160a01b038416610a57565b815460009082106109cf5760405162461bcd60e51b8152600401808060200182810382526022815260200180610b476022913960400191505060405180910390fd5b8260000182815481106109de57fe5b9060005260206000200154905092915050565b60009081526001919091016020526040902054151590565b5490565b6000610a1983836109f1565b610a4f57508154600181810184556000848152602080822090930184905584548482528286019093526040902091909155610601565b506000610601565b60008181526001830160205260408120548015610b135783546000198083019190810190600090879083908110610a8a57fe5b9060005260206000200154905080876000018481548110610aa757fe5b600091825260208083209091019290925582815260018981019092526040902090840190558654879080610ad757fe5b60019003818190600052602060002001600090559055866001016000878152602001908152602001600020600090556001945050505050610601565b600091505061060156fe5374616b655661756c7453746f726167653a2043616c6c6572206973206e6f7420616e2061646d696e456e756d657261626c655365743a20696e646578206f7574206f6620626f756e6473416363657373436f6e74726f6c3a2073656e646572206d75737420626520616e2061646d696e20746f206772616e74416363657373436f6e74726f6c3a2073656e646572206d75737420626520616e2061646d696e20746f207265766f6b65df8b4c520ffe197c5343c6f5aec59570151ef9a492f2c624fd45ddde6135ec42416363657373436f6e74726f6c3a2063616e206f6e6c792072656e6f756e636520726f6c657320666f722073656c66a2646970667358221220216cd0fe92e1cef3c3d2b4a69e3b6ca5ee0f07fc95b404434951783ff3c4036d64736f6c63430007060033",
  "immutableReferences": {},
  "source": "//SPDX-License-Identifier: Unlicense\npragma solidity ^0.7.6;\n\n//import \"../interfaces/IStakeVaultStorage.sol\";\nimport \"../libraries/LibTokenStake1.sol\";\nimport \"@openzeppelin/contracts/access/AccessControl.sol\";\n\n/// @title the storage of StakeVaultStorage\ncontract StakeVaultStorage is AccessControl {\n    bytes32 public constant ADMIN_ROLE = keccak256(\"ADMIN\");\n\n    /// @dev reward token : TOS\n    address public tos;\n\n    /// @dev paytoken is the token that the user stakes.\n    address public paytoken;\n\n    /// @dev allocated amount of tos\n    uint256 public cap;\n\n    /// @dev the start block for sale.\n    uint256 public saleStartBlock;\n\n    /// @dev the staking start block\n    uint256 public stakeStartBlock;\n\n    /// @dev the staking end block.\n    uint256 public stakeEndBlock;\n\n    /// @dev the staking real end block.\n    uint256 public realEndBlock;\n\n    /// @dev reward amount per block\n    uint256 public blockTotalReward;\n\n    /// @dev sale closed flag\n    bool public saleClosed;\n\n    /// @dev Operation type of staking amount\n    uint256 public stakeType;\n\n    /// @dev External contract address used when operating the staking amount\n    address public defiAddr;\n\n    /// @dev a list of stakeContracts maintained by the vault\n    address[] public stakeAddresses;\n\n    /// @dev the information of the stake contract\n    mapping(address => LibTokenStake1.StakeInfo) public stakeInfos;\n\n    /// @dev the end blocks of the stake contracts, which must be in ascending order\n    uint256[] public orderedEndBlocks;\n\n    /// @dev the total staked amount stored at orderedEndBlock’s end block time\n    mapping(uint256 => uint256) public stakeEndBlockTotal;\n\n    uint256 private _lock;\n\n    modifier onlyOwner() {\n        require(\n            hasRole(ADMIN_ROLE, msg.sender),\n            \"StakeVaultStorage: Caller is not an admin\"\n        );\n        _;\n    }\n\n    modifier lock() {\n        require(_lock == 0, \"Stake1Vault: LOCKED\");\n        _lock = 1;\n        _;\n        _lock = 0;\n    }\n\n    /// @dev transfer Ownership\n    /// @param newOwner new owner address\n    function transferOwnership(address newOwner) external onlyOwner {\n        require(msg.sender != newOwner, \"StakeVaultStorage: same owner\");\n        grantRole(ADMIN_ROLE, newOwner);\n        revokeRole(ADMIN_ROLE, msg.sender);\n    }\n}\n",
  "sourcePath": "/Users/zena/ico2.0/ico20-contracts/contracts/stake/StakeVaultStorage.sol",
  "compiler": {
    "name": "solc",
    "version": "0.7.6+commit.7338295f.Emscripten.clang"
  },
  "schemaVersion": "3.3.4",
  "updatedAt": "2021-06-15T01:36:53.967Z",
  "devdoc": {
    "kind": "dev",
    "methods": {
      "getRoleAdmin(bytes32)": {
        "details": "Returns the admin role that controls `role`. See {grantRole} and {revokeRole}. To change a role's admin, use {_setRoleAdmin}."
      },
      "getRoleMember(bytes32,uint256)": {
        "details": "Returns one of the accounts that have `role`. `index` must be a value between 0 and {getRoleMemberCount}, non-inclusive. Role bearers are not sorted in any particular way, and their ordering may change at any point. WARNING: When using {getRoleMember} and {getRoleMemberCount}, make sure you perform all queries on the same block. See the following https://forum.openzeppelin.com/t/iterating-over-elements-on-enumerableset-in-openzeppelin-contracts/2296[forum post] for more information."
      },
      "getRoleMemberCount(bytes32)": {
        "details": "Returns the number of accounts that have `role`. Can be used together with {getRoleMember} to enumerate all bearers of a role."
      },
      "grantRole(bytes32,address)": {
        "details": "Grants `role` to `account`. If `account` had not been already granted `role`, emits a {RoleGranted} event. Requirements: - the caller must have ``role``'s admin role."
      },
      "hasRole(bytes32,address)": {
        "details": "Returns `true` if `account` has been granted `role`."
      },
      "renounceRole(bytes32,address)": {
        "details": "Revokes `role` from the calling account. Roles are often managed via {grantRole} and {revokeRole}: this function's purpose is to provide a mechanism for accounts to lose their privileges if they are compromised (such as when a trusted device is misplaced). If the calling account had been granted `role`, emits a {RoleRevoked} event. Requirements: - the caller must be `account`."
      },
      "revokeRole(bytes32,address)": {
        "details": "Revokes `role` from `account`. If `account` had been granted `role`, emits a {RoleRevoked} event. Requirements: - the caller must have ``role``'s admin role."
      },
      "transferOwnership(address)": {
        "details": "transfer Ownership",
        "params": {
          "newOwner": "new owner address"
        }
      }
    },
    "stateVariables": {
      "blockTotalReward": {
        "details": "reward amount per block"
      },
      "cap": {
        "details": "allocated amount of tos"
      },
      "defiAddr": {
        "details": "External contract address used when operating the staking amount"
      },
      "orderedEndBlocks": {
        "details": "the end blocks of the stake contracts, which must be in ascending order"
      },
      "paytoken": {
        "details": "paytoken is the token that the user stakes."
      },
      "realEndBlock": {
        "details": "the staking real end block."
      },
      "saleClosed": {
        "details": "sale closed flag"
      },
      "saleStartBlock": {
        "details": "the start block for sale."
      },
      "stakeAddresses": {
        "details": "a list of stakeContracts maintained by the vault"
      },
      "stakeEndBlock": {
        "details": "the staking end block."
      },
      "stakeEndBlockTotal": {
        "details": "the total staked amount stored at orderedEndBlock’s end block time"
      },
      "stakeInfos": {
        "details": "the information of the stake contract"
      },
      "stakeStartBlock": {
        "details": "the staking start block"
      },
      "stakeType": {
        "details": "Operation type of staking amount"
      },
      "tos": {
        "details": "reward token : TOS"
      }
    },
    "title": "the storage of StakeVaultStorage",
    "version": 1
  },
  "userdoc": {
    "kind": "user",
    "methods": {},
    "version": 1
  }
}