{
  "contractName": "StakeTON",
  "abi": [
    {
      "inputs": [],
      "stateMutability": "nonpayable",
      "type": "constructor"
    },
    {
      "anonymous": false,
      "inputs": [
        {
          "indexed": true,
          "internalType": "address",
          "name": "to",
          "type": "address"
        },
        {
          "indexed": false,
          "internalType": "uint256",
          "name": "amount",
          "type": "uint256"
        },
        {
          "indexed": false,
          "internalType": "uint256",
          "name": "claimBlock",
          "type": "uint256"
        }
      ],
      "name": "Claimed",
      "type": "event"
    },
    {
      "anonymous": false,
      "inputs": [
        {
          "indexed": true,
          "internalType": "bytes32",
          "name": "role",
          "type": "bytes32"
        },
        {
          "indexed": true,
          "internalType": "bytes32",
          "name": "previousAdminRole",
          "type": "bytes32"
        },
        {
          "indexed": true,
          "internalType": "bytes32",
          "name": "newAdminRole",
          "type": "bytes32"
        }
      ],
      "name": "RoleAdminChanged",
      "type": "event"
    },
    {
      "anonymous": false,
      "inputs": [
        {
          "indexed": true,
          "internalType": "bytes32",
          "name": "role",
          "type": "bytes32"
        },
        {
          "indexed": true,
          "internalType": "address",
          "name": "account",
          "type": "address"
        },
        {
          "indexed": true,
          "internalType": "address",
          "name": "sender",
          "type": "address"
        }
      ],
      "name": "RoleGranted",
      "type": "event"
    },
    {
      "anonymous": false,
      "inputs": [
        {
          "indexed": true,
          "internalType": "bytes32",
          "name": "role",
          "type": "bytes32"
        },
        {
          "indexed": true,
          "internalType": "address",
          "name": "account",
          "type": "address"
        },
        {
          "indexed": true,
          "internalType": "address",
          "name": "sender",
          "type": "address"
        }
      ],
      "name": "RoleRevoked",
      "type": "event"
    },
    {
      "anonymous": false,
      "inputs": [
        {
          "indexed": false,
          "internalType": "address",
          "name": "registry",
          "type": "address"
        }
      ],
      "name": "SetRegistry",
      "type": "event"
    },
    {
      "anonymous": false,
      "inputs": [
        {
          "indexed": false,
          "internalType": "address",
          "name": "layer2",
          "type": "address"
        }
      ],
      "name": "SetTokamakLayer2",
      "type": "event"
    },
    {
      "anonymous": false,
      "inputs": [
        {
          "indexed": true,
          "internalType": "address",
          "name": "to",
          "type": "address"
        },
        {
          "indexed": false,
          "internalType": "uint256",
          "name": "amount",
          "type": "uint256"
        }
      ],
      "name": "Staked",
      "type": "event"
    },
    {
      "anonymous": false,
      "inputs": [
        {
          "indexed": true,
          "internalType": "address",
          "name": "to",
          "type": "address"
        },
        {
          "indexed": false,
          "internalType": "uint256",
          "name": "tonAmount",
          "type": "uint256"
        },
        {
          "indexed": false,
          "internalType": "uint256",
          "name": "tosAmount",
          "type": "uint256"
        }
      ],
      "name": "Withdrawal",
      "type": "event"
    },
    {
      "anonymous": false,
      "inputs": [
        {
          "indexed": false,
          "internalType": "address",
          "name": "caller",
          "type": "address"
        },
        {
          "indexed": false,
          "internalType": "uint256",
          "name": "amountIn",
          "type": "uint256"
        },
        {
          "indexed": false,
          "internalType": "uint256",
          "name": "amountOut",
          "type": "uint256"
        }
      ],
      "name": "exchangedWTONtoTOS",
      "type": "event"
    },
    {
      "anonymous": false,
      "inputs": [
        {
          "indexed": false,
          "internalType": "address",
          "name": "caller",
          "type": "address"
        },
        {
          "indexed": false,
          "internalType": "uint256",
          "name": "amountIn",
          "type": "uint256"
        },
        {
          "indexed": false,
          "internalType": "uint256",
          "name": "amountOut",
          "type": "uint256"
        }
      ],
      "name": "exchangedWTONtoTOS2",
      "type": "event"
    },
    {
      "anonymous": false,
      "inputs": [
        {
          "indexed": false,
          "internalType": "address",
          "name": "layer2",
          "type": "address"
        },
        {
          "indexed": false,
          "internalType": "uint256",
          "name": "rn",
          "type": "uint256"
        },
        {
          "indexed": false,
          "internalType": "bool",
          "name": "receiveTON",
          "type": "bool"
        }
      ],
      "name": "tokamakProcessedUnStaking",
      "type": "event"
    },
    {
      "anonymous": false,
      "inputs": [
        {
          "indexed": false,
          "internalType": "address",
          "name": "layer2",
          "type": "address"
        },
        {
          "indexed": false,
          "internalType": "uint256",
          "name": "amount",
          "type": "uint256"
        }
      ],
      "name": "tokamakRequestedUnStaking",
      "type": "event"
    },
    {
      "anonymous": false,
      "inputs": [
        {
          "indexed": false,
          "internalType": "address",
          "name": "layer2",
          "type": "address"
        }
      ],
      "name": "tokamakRequestedUnStakingAll",
      "type": "event"
    },
    {
      "anonymous": false,
      "inputs": [
        {
          "indexed": false,
          "internalType": "address",
          "name": "layer2",
          "type": "address"
        },
        {
          "indexed": false,
          "internalType": "uint256",
          "name": "amount",
          "type": "uint256"
        }
      ],
      "name": "tokamakStaked",
      "type": "event"
    },
    {
      "inputs": [],
      "name": "ADMIN_ROLE",
      "outputs": [
        {
          "internalType": "bytes32",
          "name": "",
          "type": "bytes32"
        }
      ],
      "stateMutability": "view",
      "type": "function"
    },
    {
      "inputs": [],
      "name": "DEFAULT_ADMIN_ROLE",
      "outputs": [
        {
          "internalType": "bytes32",
          "name": "",
          "type": "bytes32"
        }
      ],
      "stateMutability": "view",
      "type": "function"
    },
    {
      "inputs": [],
      "name": "checkTokamak",
      "outputs": [],
      "stateMutability": "nonpayable",
      "type": "function"
    },
    {
      "inputs": [],
      "name": "defiStatus",
      "outputs": [
        {
          "internalType": "uint256",
          "name": "",
          "type": "uint256"
        }
      ],
      "stateMutability": "view",
      "type": "function"
    },
    {
      "inputs": [],
      "name": "depositManager",
      "outputs": [
        {
          "internalType": "address",
          "name": "",
          "type": "address"
        }
      ],
      "stateMutability": "view",
      "type": "function"
    },
    {
      "inputs": [],
      "name": "endBlock",
      "outputs": [
        {
          "internalType": "uint256",
          "name": "",
          "type": "uint256"
        }
      ],
      "stateMutability": "view",
      "type": "function"
    },
    {
      "inputs": [
        {
          "internalType": "uint256",
          "name": "_amountIn",
          "type": "uint256"
        },
        {
          "internalType": "uint256",
          "name": "_amountOutMinimum",
          "type": "uint256"
        },
        {
          "internalType": "uint256",
          "name": "_deadline",
          "type": "uint256"
        },
        {
          "internalType": "uint160",
          "name": "_sqrtPriceLimitX96",
          "type": "uint160"
        },
        {
          "internalType": "uint256",
          "name": "_kind",
          "type": "uint256"
        }
      ],
      "name": "exchangeWTONtoTOS",
      "outputs": [
        {
          "internalType": "uint256",
          "name": "amountOut",
          "type": "uint256"
        }
      ],
      "stateMutability": "nonpayable",
      "type": "function"
    },
    {
      "inputs": [
        {
          "internalType": "uint256",
          "name": "_amountIn",
          "type": "uint256"
        },
        {
          "internalType": "uint256",
          "name": "_amountOutMinimum",
          "type": "uint256"
        },
        {
          "internalType": "uint256",
          "name": "_deadline",
          "type": "uint256"
        },
        {
          "internalType": "uint256",
          "name": "_kind",
          "type": "uint256"
        }
      ],
      "name": "exchangeWTONtoTOSv2",
      "outputs": [
        {
          "internalType": "uint256",
          "name": "amountOut",
          "type": "uint256"
        }
      ],
      "stateMutability": "nonpayable",
      "type": "function"
    },
    {
      "inputs": [],
      "name": "finalBalanceTON",
      "outputs": [
        {
          "internalType": "uint256",
          "name": "",
          "type": "uint256"
        }
      ],
      "stateMutability": "view",
      "type": "function"
    },
    {
      "inputs": [],
      "name": "finalBalanceWTON",
      "outputs": [
        {
          "internalType": "uint256",
          "name": "",
          "type": "uint256"
        }
      ],
      "stateMutability": "view",
      "type": "function"
    },
    {
      "inputs": [],
      "name": "fromTokamak",
      "outputs": [
        {
          "internalType": "uint256",
          "name": "",
          "type": "uint256"
        }
      ],
      "stateMutability": "view",
      "type": "function"
    },
    {
      "inputs": [
        {
          "internalType": "bytes32",
          "name": "role",
          "type": "bytes32"
        }
      ],
      "name": "getRoleAdmin",
      "outputs": [
        {
          "internalType": "bytes32",
          "name": "",
          "type": "bytes32"
        }
      ],
      "stateMutability": "view",
      "type": "function"
    },
    {
      "inputs": [
        {
          "internalType": "bytes32",
          "name": "role",
          "type": "bytes32"
        },
        {
          "internalType": "uint256",
          "name": "index",
          "type": "uint256"
        }
      ],
      "name": "getRoleMember",
      "outputs": [
        {
          "internalType": "address",
          "name": "",
          "type": "address"
        }
      ],
      "stateMutability": "view",
      "type": "function"
    },
    {
      "inputs": [
        {
          "internalType": "bytes32",
          "name": "role",
          "type": "bytes32"
        }
      ],
      "name": "getRoleMemberCount",
      "outputs": [
        {
          "internalType": "uint256",
          "name": "",
          "type": "uint256"
        }
      ],
      "stateMutability": "view",
      "type": "function"
    },
    {
      "inputs": [],
      "name": "getUniswapInfo",
      "outputs": [
        {
          "internalType": "address",
          "name": "uniswapRouter",
          "type": "address"
        },
        {
          "internalType": "address",
          "name": "npm",
          "type": "address"
        },
        {
          "internalType": "address",
          "name": "ext",
          "type": "address"
        },
        {
          "internalType": "uint256",
          "name": "fee",
          "type": "uint256"
        },
        {
          "internalType": "address",
          "name": "uniswapRouterV2",
          "type": "address"
        }
      ],
      "stateMutability": "view",
      "type": "function"
    },
    {
      "inputs": [
        {
          "internalType": "address",
          "name": "user",
          "type": "address"
        }
      ],
      "name": "getUserStaked",
      "outputs": [
        {
          "internalType": "uint256",
          "name": "amount",
          "type": "uint256"
        },
        {
          "internalType": "uint256",
          "name": "claimedBlock",
          "type": "uint256"
        },
        {
          "internalType": "uint256",
          "name": "claimedAmount",
          "type": "uint256"
        },
        {
          "internalType": "uint256",
          "name": "releasedBlock",
          "type": "uint256"
        },
        {
          "internalType": "uint256",
          "name": "releasedAmount",
          "type": "uint256"
        },
        {
          "internalType": "uint256",
          "name": "releasedTOSAmount",
          "type": "uint256"
        },
        {
          "internalType": "bool",
          "name": "released",
          "type": "bool"
        }
      ],
      "stateMutability": "view",
      "type": "function"
    },
    {
      "inputs": [
        {
          "internalType": "bytes32",
          "name": "role",
          "type": "bytes32"
        },
        {
          "internalType": "address",
          "name": "account",
          "type": "address"
        }
      ],
      "name": "grantRole",
      "outputs": [],
      "stateMutability": "nonpayable",
      "type": "function"
    },
    {
      "inputs": [
        {
          "internalType": "bytes32",
          "name": "role",
          "type": "bytes32"
        },
        {
          "internalType": "address",
          "name": "account",
          "type": "address"
        }
      ],
      "name": "hasRole",
      "outputs": [
        {
          "internalType": "bool",
          "name": "",
          "type": "bool"
        }
      ],
      "stateMutability": "view",
      "type": "function"
    },
    {
      "inputs": [],
      "name": "infos",
      "outputs": [
        {
          "internalType": "address",
          "name": "",
          "type": "address"
        },
        {
          "internalType": "address",
          "name": "",
          "type": "address"
        },
        {
          "internalType": "uint256[3]",
          "name": "",
          "type": "uint256[3]"
        },
        {
          "internalType": "uint256",
          "name": "",
          "type": "uint256"
        },
        {
          "internalType": "uint256",
          "name": "",
          "type": "uint256"
        },
        {
          "internalType": "uint256",
          "name": "",
          "type": "uint256"
        }
      ],
      "stateMutability": "view",
      "type": "function"
    },
    {
      "inputs": [],
      "name": "paytoken",
      "outputs": [
        {
          "internalType": "address",
          "name": "",
          "type": "address"
        }
      ],
      "stateMutability": "view",
      "type": "function"
    },
    {
      "inputs": [
        {
          "internalType": "bytes32",
          "name": "role",
          "type": "bytes32"
        },
        {
          "internalType": "address",
          "name": "account",
          "type": "address"
        }
      ],
      "name": "renounceRole",
      "outputs": [],
      "stateMutability": "nonpayable",
      "type": "function"
    },
    {
      "inputs": [],
      "name": "requestNum",
      "outputs": [
        {
          "internalType": "uint256",
          "name": "",
          "type": "uint256"
        }
      ],
      "stateMutability": "view",
      "type": "function"
    },
    {
      "inputs": [
        {
          "internalType": "bytes32",
          "name": "role",
          "type": "bytes32"
        },
        {
          "internalType": "address",
          "name": "account",
          "type": "address"
        }
      ],
      "name": "revokeRole",
      "outputs": [],
      "stateMutability": "nonpayable",
      "type": "function"
    },
    {
      "inputs": [],
      "name": "rewardClaimedTotal",
      "outputs": [
        {
          "internalType": "uint256",
          "name": "",
          "type": "uint256"
        }
      ],
      "stateMutability": "view",
      "type": "function"
    },
    {
      "inputs": [],
      "name": "saleStartBlock",
      "outputs": [
        {
          "internalType": "uint256",
          "name": "",
          "type": "uint256"
        }
      ],
      "stateMutability": "view",
      "type": "function"
    },
    {
      "inputs": [],
      "name": "seigManager",
      "outputs": [
        {
          "internalType": "address",
          "name": "",
          "type": "address"
        }
      ],
      "stateMutability": "view",
      "type": "function"
    },
    {
      "inputs": [
        {
          "internalType": "address",
          "name": "_registry",
          "type": "address"
        }
      ],
      "name": "setRegistry",
      "outputs": [],
      "stateMutability": "nonpayable",
      "type": "function"
    },
    {
      "inputs": [
        {
          "internalType": "address",
          "name": "_layer2",
          "type": "address"
        }
      ],
      "name": "setTokamakLayer2",
      "outputs": [],
      "stateMutability": "nonpayable",
      "type": "function"
    },
    {
      "inputs": [],
      "name": "stakeRegistry",
      "outputs": [
        {
          "internalType": "address",
          "name": "",
          "type": "address"
        }
      ],
      "stateMutability": "view",
      "type": "function"
    },
    {
      "inputs": [],
      "name": "startBlock",
      "outputs": [
        {
          "internalType": "uint256",
          "name": "",
          "type": "uint256"
        }
      ],
      "stateMutability": "view",
      "type": "function"
    },
    {
      "inputs": [],
      "name": "swapProxy",
      "outputs": [
        {
          "internalType": "address",
          "name": "",
          "type": "address"
        }
      ],
      "stateMutability": "view",
      "type": "function"
    },
    {
      "inputs": [
        {
          "internalType": "uint256",
          "name": "amount",
          "type": "uint256"
        },
        {
          "internalType": "bool",
          "name": "toWTON",
          "type": "bool"
        }
      ],
      "name": "swapTONtoWTON",
      "outputs": [],
      "stateMutability": "nonpayable",
      "type": "function"
    },
    {
      "inputs": [],
      "name": "swappedAmountTOS",
      "outputs": [
        {
          "internalType": "uint256",
          "name": "",
          "type": "uint256"
        }
      ],
      "stateMutability": "view",
      "type": "function"
    },
    {
      "inputs": [],
      "name": "toTokamak",
      "outputs": [
        {
          "internalType": "uint256",
          "name": "",
          "type": "uint256"
        }
      ],
      "stateMutability": "view",
      "type": "function"
    },
    {
      "inputs": [],
      "name": "toUniswapWTON",
      "outputs": [
        {
          "internalType": "uint256",
          "name": "",
          "type": "uint256"
        }
      ],
      "stateMutability": "view",
      "type": "function"
    },
    {
      "inputs": [],
      "name": "tokamakLayer2",
      "outputs": [
        {
          "internalType": "address",
          "name": "",
          "type": "address"
        }
      ],
      "stateMutability": "view",
      "type": "function"
    },
    {
      "inputs": [
        {
          "internalType": "address",
          "name": "_layer2",
          "type": "address"
        }
      ],
      "name": "tokamakProcessUnStaking",
      "outputs": [],
      "stateMutability": "nonpayable",
      "type": "function"
    },
    {
      "inputs": [
        {
          "internalType": "address",
          "name": "_layer2",
          "type": "address"
        },
        {
          "internalType": "uint256",
          "name": "wtonAmount",
          "type": "uint256"
        }
      ],
      "name": "tokamakRequestUnStaking",
      "outputs": [],
      "stateMutability": "nonpayable",
      "type": "function"
    },
    {
      "inputs": [
        {
          "internalType": "address",
          "name": "_layer2",
          "type": "address"
        }
      ],
      "name": "tokamakRequestUnStakingAll",
      "outputs": [],
      "stateMutability": "nonpayable",
      "type": "function"
    },
    {
      "inputs": [
        {
          "internalType": "address",
          "name": "_layer2",
          "type": "address"
        },
        {
          "internalType": "uint256",
          "name": "stakeAmount",
          "type": "uint256"
        }
      ],
      "name": "tokamakStaking",
      "outputs": [],
      "stateMutability": "nonpayable",
      "type": "function"
    },
    {
      "inputs": [],
      "name": "token",
      "outputs": [
        {
          "internalType": "address",
          "name": "",
          "type": "address"
        }
      ],
      "stateMutability": "view",
      "type": "function"
    },
    {
      "inputs": [],
      "name": "ton",
      "outputs": [
        {
          "internalType": "address",
          "name": "",
          "type": "address"
        }
      ],
      "stateMutability": "view",
      "type": "function"
    },
    {
      "inputs": [],
      "name": "totalStakedAmount",
      "outputs": [
        {
          "internalType": "uint256",
          "name": "",
          "type": "uint256"
        }
      ],
      "stateMutability": "view",
      "type": "function"
    },
    {
      "inputs": [],
      "name": "totalStakers",
      "outputs": [
        {
          "internalType": "uint256",
          "name": "",
          "type": "uint256"
        }
      ],
      "stateMutability": "view",
      "type": "function"
    },
    {
      "inputs": [
        {
          "internalType": "address",
          "name": "newOwner",
          "type": "address"
        }
      ],
      "name": "transferOwnership",
      "outputs": [],
      "stateMutability": "nonpayable",
      "type": "function"
    },
    {
      "inputs": [
        {
          "internalType": "address",
          "name": "",
          "type": "address"
        }
      ],
      "name": "userStaked",
      "outputs": [
        {
          "internalType": "uint256",
          "name": "amount",
          "type": "uint256"
        },
        {
          "internalType": "uint256",
          "name": "claimedBlock",
          "type": "uint256"
        },
        {
          "internalType": "uint256",
          "name": "claimedAmount",
          "type": "uint256"
        },
        {
          "internalType": "uint256",
          "name": "releasedBlock",
          "type": "uint256"
        },
        {
          "internalType": "uint256",
          "name": "releasedAmount",
          "type": "uint256"
        },
        {
          "internalType": "uint256",
          "name": "releasedTOSAmount",
          "type": "uint256"
        },
        {
          "internalType": "bool",
          "name": "released",
          "type": "bool"
        }
      ],
      "stateMutability": "view",
      "type": "function"
    },
    {
      "inputs": [],
      "name": "vault",
      "outputs": [
        {
          "internalType": "address",
          "name": "",
          "type": "address"
        }
      ],
      "stateMutability": "view",
      "type": "function"
    },
    {
      "inputs": [],
      "name": "withdrawFlag",
      "outputs": [
        {
          "internalType": "bool",
          "name": "",
          "type": "bool"
        }
      ],
      "stateMutability": "view",
      "type": "function"
    },
    {
      "inputs": [],
      "name": "wton",
      "outputs": [
        {
          "internalType": "address",
          "name": "",
          "type": "address"
        }
      ],
      "stateMutability": "view",
      "type": "function"
    },
    {
      "stateMutability": "payable",
      "type": "receive"
    },
    {
      "inputs": [],
      "name": "withdraw",
      "outputs": [],
      "stateMutability": "nonpayable",
      "type": "function"
    },
    {
      "inputs": [],
      "name": "claim",
      "outputs": [],
      "stateMutability": "nonpayable",
      "type": "function"
    },
    {
      "inputs": [
        {
          "internalType": "address",
          "name": "account",
          "type": "address"
        },
        {
          "internalType": "uint256",
          "name": "specificBlock",
          "type": "uint256"
        }
      ],
      "name": "canRewardAmount",
      "outputs": [
        {
          "internalType": "uint256",
          "name": "",
          "type": "uint256"
        }
      ],
      "stateMutability": "view",
      "type": "function"
    }
  ],
  "bytecode": "0x60806040523480156200001157600080fd5b506200002d60008051602062005c9e833981519152806200004e565b6200004860008051602062005c9e83398151915233620000a0565b620001b6565b6000828152601b6020526040808220600201549051839285917fbd79b86ffe0ab8e8776151514217cd7cacd52c909f66475c3af44e129f0b00ff9190a46000918252601b602052604090912060020155565b620000ac8282620000b0565b5050565b6000828152601b60209081526040909120620000d791839062003f9b6200012b821b17901c565b15620000ac57620000e76200014b565b6001600160a01b0316816001600160a01b0316837f2f8788117e7eff1d82e926ec794901d17c78024a50270940304540a733656f0d60405160405180910390a45050565b600062000142836001600160a01b0384166200014f565b90505b92915050565b3390565b60006200015d83836200019e565b620001955750815460018181018455600084815260208082209093018490558454848252828601909352604090209190915562000145565b50600062000145565b60009081526001919091016020526040902054151590565b615ad880620001c66000396000f3fe6080604052600436106102c35760003560e01c80637df3f40c11610170578063cc48b947116100cc578063e6a7bc8711610085578063e6a7bc871461079d578063f0cdfa53146107b2578063f2fde38b146107d2578063fbfa77cf146107f2578063fc0c546a14610807578063fd7fa4601461081c578063ff75878814610831576102ca565b8063cc48b947146106fe578063ce681ce614610713578063d547741f14610733578063dac3fc3f14610753578063e09974b914610773578063e58e274714610788576102ca565b80639a88be2f116101295780639a88be2f1461061a578063a217fddf14610641578063a6e8670e14610656578063a91ee0dc14610676578063acc3a93914610696578063b2d4d6a3146106c9578063ca15c873146106de576102ca565b80637df3f40c1461057b578063869890381461059b5780638d62d949146105b05780639010d07c146105c557806391d14854146105e557806392ea3b4c14610605576102ca565b80634e71d92d1161021f5780636e7cf534116101d85780636e7cf534146104c55780636ec4be90146104e75780636fb7f558146104fc57806371def0b3146105115780637228532614610531578063730464a91461054657806375b238fc14610566576102ca565b80634e71d92d14610431578063567e98f91461044657806356dcfd381461045b57806367cf3e181461047b578063683048351461049b5780636c7ac9d8146104b0576102ca565b8063248a9ca31161027c578063248a9ca3146103705780632995fa0e146103905780632f2ff15d146103a557806336568abe146103c55780633ccfd60b146103e557806343b0934a146103fa57806348cd4cb11461041c576102ca565b806305871b78146102cf578063065c4313146102fa578063083c63231461031c5780630ac8e0f3146103315780630ea3d9c914610346578063200272751461035b576102ca565b366102ca57005b600080fd5b3480156102db57600080fd5b506102e4610857565b6040516102f19190614d68565b60405180910390f35b34801561030657600080fd5b5061031a61031536600461495b565b61085d565b005b34801561032857600080fd5b506102e4610df5565b34801561033d57600080fd5b506102e4610dfb565b34801561035257600080fd5b506102e4610e01565b34801561036757600080fd5b506102e4610e07565b34801561037c57600080fd5b506102e461038b366004614a50565b610e0d565b34801561039c57600080fd5b5061031a610e22565b3480156103b157600080fd5b5061031a6103c0366004614a68565b610fa7565b3480156103d157600080fd5b5061031a6103e0366004614a68565b61100e565b3480156103f157600080fd5b5061031a61106f565b34801561040657600080fd5b5061040f6117ee565b6040516102f19190614c0d565b34801561042857600080fd5b506102e46117fd565b34801561043d57600080fd5b5061031a611803565b34801561045257600080fd5b506102e4611ae1565b34801561046757600080fd5b506102e4610476366004614b3c565b611ae7565b34801561048757600080fd5b506102e461049636600461495b565b612403565b3480156104a757600080fd5b5061040f61275b565b3480156104bc57600080fd5b5061040f61276a565b3480156104d157600080fd5b506104da612779565b6040516102f19190614d5d565b3480156104f357600080fd5b5061040f612782565b34801561050857600080fd5b5061040f612791565b34801561051d57600080fd5b5061031a61052c36600461486f565b6127a0565b34801561053d57600080fd5b506102e46129a6565b34801561055257600080fd5b5061031a61056136600461486f565b6129ac565b34801561057257600080fd5b506102e4612cfe565b34801561058757600080fd5b5061031a610596366004614ad0565b612d10565b3480156105a757600080fd5b506102e461302d565b3480156105bc57600080fd5b5061040f613033565b3480156105d157600080fd5b5061040f6105e0366004614a97565b613042565b3480156105f157600080fd5b506104da610600366004614a68565b61305a565b34801561061157600080fd5b5061040f613072565b34801561062657600080fd5b5061062f613081565b6040516102f196959493929190614ca5565b34801561064d57600080fd5b506102e46130d7565b34801561066257600080fd5b5061031a61067136600461486f565b6130dc565b34801561068257600080fd5b5061031a61069136600461486f565b6131a8565b3480156106a257600080fd5b506106b66106b136600461486f565b613260565b6040516102f1979695949392919061595c565b3480156106d557600080fd5b506102e46132a0565b3480156106ea57600080fd5b506102e46106f9366004614a50565b6132a6565b34801561070a57600080fd5b5061040f6132bd565b34801561071f57600080fd5b5061031a61072e36600461495b565b6132cc565b34801561073f57600080fd5b5061031a61074e366004614a68565b61357d565b34801561075f57600080fd5b506106b661076e36600461486f565b6135d6565b34801561077f57600080fd5b506102e461361f565b34801561079457600080fd5b506102e4613625565b3480156107a957600080fd5b506102e461362b565b3480156107be57600080fd5b506102e46107cd366004614af4565b613631565b3480156107de57600080fd5b5061031a6107ed36600461486f565b613e48565b3480156107fe57600080fd5b5061040f613ed8565b34801561081357600080fd5b5061040f613ee7565b34801561082857600080fd5b506102e4613ef6565b34801561083d57600080fd5b50610846613efc565b6040516102f1959493929190614c75565b60145481565b600b54156108865760405162461bcd60e51b815260040161087d90615183565b60405180910390fd5b6001600b819055546001600160a01b0316806108b45760405162461bcd60e51b815260040161087d90614d71565b826001600160a01b0381166108db5760405162461bcd60e51b815260040161087d90614d71565b6006544311156108fd5760405162461bcd60e51b815260040161087d90614f4d565b6000831161091d5760405162461bcd60e51b815260040161087d906155e4565b600360009054906101000a90046001600160a01b03166001600160a01b031663b8c766b86040518163ffffffff1660e01b815260040160206040518083038186803b15801561096b57600080fd5b505afa15801561097f573d6000803e3d6000fd5b505050506040513d601f19601f820116820180604052508101906109a39190614a34565b15156001146109c45760405162461bcd60e51b815260040161087d906151b1565b60026018556109d1610e22565b600f5460408051633761ead760e11b815290516000926001600160a01b031691636ec3d5ae916004808301926020929190829003018186803b158015610a1657600080fd5b505afa158015610a2a573d6000803e3d6000fd5b505050506040513d601f19601f82011682018060405250810190610a4e9190614ab8565b905080600654034310610a735760405162461bcd60e51b815260040161087d90614fb6565b6011546001600160a01b0316610aa357601180546001600160a01b0319166001600160a01b038716179055610c28565b600e546011546040516367265c3b60e11b81526000926001600160a01b039081169263ce4cb87692610add92909116903090600401614c5b565b60206040518083038186803b158015610af557600080fd5b505afa158015610b09573d6000803e3d6000fd5b505050506040513d601f19601f82011682018060405250810190610b2d9190614ab8565b1180610bc05750600f54601154604051632638fdf560e01b81526000926001600160a01b0390811692632638fdf592610b6e92909116903090600401614c5b565b60206040518083038186803b158015610b8657600080fd5b505afa158015610b9a573d6000803e3d6000fd5b505050506040513d601f19601f82011682018060405250810190610bbe9190614ab8565b115b15610bf7576011546001600160a01b03868116911614610bf25760405162461bcd60e51b815260040161087d906153b9565b610c28565b6011546001600160a01b03868116911614610c2857601180546001600160a01b0319166001600160a01b0387161790555b600c546040516370a0823160e01b815285916001600160a01b0316906370a0823190610c58903090600401614c0d565b60206040518083038186803b158015610c7057600080fd5b505afa158015610c84573d6000803e3d6000fd5b505050506040513d601f19601f82011682018060405250810190610ca89190614ab8565b1015610cc65760405162461bcd60e51b815260040161087d906156ba565b601254610cd39085613fb0565b601255600f54604051600091610cf9916001600160a01b03909116908890602001614c5b565b60408051601f1981840301815290829052600c54600d5463cae9ca5160e01b84529193506001600160a01b039081169263cae9ca5192610d4192169089908690600401614d2d565b602060405180830381600087803b158015610d5b57600080fd5b505af1158015610d6f573d6000803e3d6000fd5b505050506040513d601f19601f82011682018060405250810190610d939190614a34565b610daf5760405162461bcd60e51b815260040161087d9061525c565b7fd706f7b85b6f270583513d8371d6264d347f648849b8c09e1630b2cc536dba5d8686604051610de0929190614c21565b60405180910390a150506000600b5550505050565b60065481565b60135481565b60155481565b60045481565b6000908152601b602052604090206002015490565b600c546001600160a01b0316610f23576000806000806000600160009054906101000a90046001600160a01b03166001600160a01b031663a782ebd56040518163ffffffff1660e01b815260040160a06040518083038186803b158015610e8857600080fd5b505afa158015610e9c573d6000803e3d6000fd5b505050506040513d601f19601f82011682018060405250810190610ec0919061488b565b600c80546001600160a01b03199081166001600160a01b0397881617909155600d8054821695871695909517909455600f8054851693861693909317909255600e8054841691851691909117905560108054909216921691909117905550505050505b600c546001600160a01b031615801590610f475750600d546001600160a01b031615155b8015610f5d5750600e546001600160a01b031615155b8015610f735750600f546001600160a01b031615155b8015610f8957506010546001600160a01b031615155b610fa55760405162461bcd60e51b815260040161087d906155ad565b565b6000828152601b6020526040902060020154610fc59061060061400a565b6110005760405162461bcd60e51b815260040180806020018281038252602f8152602001806159d4602f913960400191505060405180910390fd5b61100a828261400e565b5050565b61101661400a565b6001600160a01b0316816001600160a01b0316146110655760405162461bcd60e51b815260040180806020018281038252602f815260200180615a74602f913960400191505060405180910390fd5b61100a8282614077565b6000600654118015611082575043600654105b61109e5760405162461bcd60e51b815260040161087d9061568f565b600080600080600160009054906101000a90046001600160a01b03166001600160a01b031663a782ebd56040518163ffffffff1660e01b815260040160a06040518083038186803b1580156110f257600080fd5b505afa158015611106573d6000803e3d6000fd5b505050506040513d601f19601f8201168201806040525081019061112a919061488b565b50929650909450925090506001600160a01b0384161580159061115557506001600160a01b03831615155b801561116957506001600160a01b03821615155b801561117d57506001600160a01b03811615155b6111995760405162461bcd60e51b815260040161087d90614fff565b6011546001600160a01b0316156112d8576011546040516367265c3b60e11b81526001600160a01b038381169263ce4cb876926111de92909116903090600401614c5b565b60206040518083038186803b1580156111f657600080fd5b505afa15801561120a573d6000803e3d6000fd5b505050506040513d601f19601f8201168201806040525081019061122e9190614ab8565b1580156112bc5750601154604051632638fdf560e01b81526001600160a01b0384811692632638fdf59261126a92909116903090600401614c5b565b60206040518083038186803b15801561128257600080fd5b505afa158015611296573d6000803e3d6000fd5b505050506040513d601f19601f820116820180604052508101906112ba9190614ab8565b155b6112d85760405162461bcd60e51b815260040161087d906151e3565b336000908152600960205260409020600681015460ff161561130c5760405162461bcd60e51b815260040161087d90614ddf565b601a5460ff166114fb57601a805460ff191660011790556002546001600160a01b0390811690861614156114fb576000546040516370a0823160e01b81526001600160a01b03909116906370a082319061136a903090600401614c0d565b60206040518083038186803b15801561138257600080fd5b505afa158015611396573d6000803e3d6000fd5b505050506040513d601f19601f820116820180604052508101906113ba9190614ab8565b6015556040516370a0823160e01b81526001600160a01b038516906370a08231906113e9903090600401614c0d565b60206040518083038186803b15801561140157600080fd5b505afa158015611415573d6000803e3d6000fd5b505050506040513d601f19601f820116820180604052508101906114399190614ab8565b6017556040516370a0823160e01b81526001600160a01b038616906370a0823190611468903090600401614c0d565b60206040518083038186803b15801561148057600080fd5b505afa158015611494573d6000803e3d6000fd5b505050506040513d601f19601f820116820180604052508101906114b89190614ab8565b601681905560085460175490916114dd916114d790633b9aca006140e0565b90613fb0565b10156114fb5760405162461bcd60e51b815260040161087d90615225565b80548061151a5760405162461bcd60e51b815260040161087d90615474565b43600383015560068201805460ff191660011790556002546001600160a01b03908116908716141561160b576000806000806016541115611579576115766008546115708660165461412290919063ffffffff16565b906140e0565b92505b6017541561159f5761159c6008546115708660175461412290919063ffffffff16565b91505b601554156115c5576115c26008546115708660155461412290919063ffffffff16565b90505b6005850181905581156115ee576115e4836114d784633b9aca006140e0565b60048601556115f6565b600485018390555b611603898985858561417b565b5050506117a4565b6002546001600160a01b03166116d9578154600483015411156116405760405162461bcd60e51b815260040161087d90615474565b6004820181905530803182111561165657600080fd5b6000336001600160a01b03168360405161166f90614c0a565b60006040518083038185875af1925050503d80600081146116ac576040519150601f19603f3d011682016040523d82523d6000602084013e6116b1565b606091505b50509050806116d25760405162461bcd60e51b815260040161087d9061531b565b50506117a4565b8154600483015411156116fe5760405162461bcd60e51b815260040161087d90615474565b600480830182905560025460405163a9059cbb60e01b81526001600160a01b039091169163a9059cbb91611736913391869101614c21565b602060405180830381600087803b15801561175057600080fd5b505af1158015611764573d6000803e3d6000fd5b505050506040513d601f19601f820116820180604052508101906117889190614a34565b6117a45760405162461bcd60e51b815260040161087d90614f1c565b6004820154600583015460405133927fdf273cb619d95419a9cd0ec88123a0538c85064229baa6363788f743fff90deb926117de926158de565b60405180910390a2505050505050565b6002546001600160a01b031681565b60055481565b600b54156118235760405162461bcd60e51b815260040161087d90615183565b6001600b5560035460408051631718ecd760e31b815290516001600160a01b039092169163b8c766b891600480820192602092909190829003018186803b15801561186d57600080fd5b505afa158015611881573d6000803e3d6000fd5b505050506040513d601f19601f820116820180604052508101906118a59190614a34565b15156001146118c65760405162461bcd60e51b815260040161087d90615036565b3360009081526009602052604081206006546001820154106118fa5760405162461bcd60e51b815260040161087d906152f0565b6119043343612403565b9150600082116119265760405162461bcd60e51b815260040161087d90614e48565b60035460405163032f7adb60e61b81526000916001600160a01b03169063cbdeb6c090611957903090600401614c0d565b60206040518083038186803b15801561196f57600080fd5b505afa158015611983573d6000803e3d6000fd5b505050506040513d601f19601f820116820180604052508101906119a79190614ab8565b9050806119bf84600754613fb090919063ffffffff16565b11156119dd5760405162461bcd60e51b815260040161087d906157e6565b43600183015560028201546119f29084613fb0565b6002830155600754611a049084613fb0565b600755600354604051635569f64b60e11b81526001600160a01b039091169063aad3ec9690611a399033908790600401614c21565b602060405180830381600087803b158015611a5357600080fd5b505af1158015611a67573d6000803e3d6000fd5b505050506040513d601f19601f82011682018060405250810190611a8b9190614a34565b611a9457600080fd5b336001600160a01b03167f987d620f307ff6b94d58743cb7a7509f24071586a77759b77c2d4e29f75a2f9a8443604051611acf9291906158de565b60405180910390a250506000600b5550565b60085481565b6000600b54600014611b0b5760405162461bcd60e51b815260040161087d90615183565b6001600b55600654431115611b325760405162461bcd60e51b815260040161087d90614f4d565b600360009054906101000a90046001600160a01b03166001600160a01b031663b8c766b86040518163ffffffff1660e01b815260040160206040518083038186803b158015611b8057600080fd5b505afa158015611b94573d6000803e3d6000fd5b505050506040513d601f19601f82011682018060405250810190611bb89190614a34565b1515600114611bd95760405162461bcd60e51b815260040161087d906151b1565b60028210611bf95760405162461bcd60e51b815260040161087d906154e9565b611c01610e22565b600d546040516370a0823160e01b81526000916001600160a01b0316906370a0823190611c32903090600401614c0d565b60206040518083038186803b158015611c4a57600080fd5b505afa158015611c5e573d6000803e3d6000fd5b505050506040513d601f19601f82011682018060405250810190611c829190614ab8565b600c546040516370a0823160e01b81529192506000916001600160a01b03909116906370a0823190611cb8903090600401614c0d565b60206040518083038186803b158015611cd057600080fd5b505afa158015611ce4573d6000803e3d6000fd5b505050506040513d601f19601f82011682018060405250810190611d089190614ab8565b6011549091506000906001600160a01b031615611e3c57600e546011546040516367265c3b60e11b81526001600160a01b039283169263ce4cb87692611d55929116903090600401614c5b565b60206040518083038186803b158015611d6d57600080fd5b505afa158015611d81573d6000803e3d6000fd5b505050506040513d601f19601f82011682018060405250810190611da59190614ab8565b600f54601154604051632638fdf560e01b8152929350611e39926001600160a01b0392831692632638fdf592611de2929116903090600401614c5b565b60206040518083038186803b158015611dfa57600080fd5b505afa158015611e0e573d6000803e3d6000fd5b505050506040513d601f19601f82011682018060405250810190611e329190614ab8565b8290613fb0565b90505b828215611e5757611e54611e3284633b9aca00614122565b90505b88811015611e775760405162461bcd60e51b815260040161087d906153f0565b8115611e8a57611e878183613fb0565b90505b600854611e9b90633b9aca00614122565b81118015611ecb575088611ec8611ec1633b9aca0060085461412290919063ffffffff16565b8390614542565b10155b611ee75760405162461bcd60e51b815260040161087d90615352565b88841015611fe357601054604051600091611f12916001600160a01b03909116908190602001614c5b565b60408051601f1981840301815291905290506000611f38633b9aca006115708d89614542565b600c54600d5460405163cae9ca5160e01b81529293506001600160a01b039182169263cae9ca5192611f7292169085908790600401614d2d565b602060405180830381600087803b158015611f8c57600080fd5b505af1158015611fa0573d6000803e3d6000fd5b505050506040513d601f19601f82011682018060405250810190611fc49190614a34565b611fe05760405162461bcd60e51b815260040161087d9061529d565b50505b50506014805488019055505060015460408051630141158f60e61b8152905160009283926001600160a01b039091169163504563c09160048082019260a092909190829003018186803b15801561203957600080fd5b505afa15801561204d573d6000803e3d6000fd5b505050506040513d601f19601f8201168201806040525081019061207191906148ff565b9195509093505050506001600160a01b0381166120a05760405162461bcd60e51b815260040161087d9061550a565b600d5460405163095ea7b360e01b81526001600160a01b039091169063095ea7b3906120d29084908b90600401614c21565b602060405180830381600087803b1580156120ec57600080fd5b505af1158015612100573d6000803e3d6000fd5b505050506040513d601f19601f820116820180604052508101906121249190614a34565b6121405760405162461bcd60e51b815260040161087d9061579d565b83612269576040805160028082526060820183526000926020830190803683375050600d5482519293506001600160a01b03169183915060009061218057fe5b6001600160a01b0392831660209182029290920101526000548251911690829060019081106121ab57fe5b6001600160a01b0392831660209182029290920101526040516338ed173960e01b81526000918416906338ed1739906121f0908c908c90879030908e906004016158ec565b600060405180830381600087803b15801561220a57600080fd5b505af115801561221e573d6000803e3d6000fd5b505050506040513d6000823e601f3d908101601f191682016040526122469190810190614986565b90508060018251038151811061225857fe5b6020026020010151945050506123b9565b60408051600380825260808201909252600091602082016060803683375050600d5482519293506001600160a01b0316918391506000906122a657fe5b60200260200101906001600160a01b031690816001600160a01b03168152505082816001815181106122d457fe5b6001600160a01b0392831660209182029290920101526000548251911690829060029081106122ff57fe5b6001600160a01b0392831660209182029290920101526040516338ed173960e01b81526000918416906338ed173990612344908c908c90879030908e906004016158ec565b600060405180830381600087803b15801561235e57600080fd5b505af1158015612372573d6000803e3d6000fd5b505050506040513d6000823e601f3d908101601f1916820160405261239a9190810190614986565b9050806001825103815181106123ac57fe5b6020026020010151945050505b7f2c221d2e5337ddafd1fda6f2efa725f96a27ee1d9621f932ce46a1990791950f3388856040516123ec93929190614c3a565b60405180910390a150506000600b55949350505050565b60065460009081908311156124185760065492505b60055483108061243e57506001600160a01b038416600090815260096020526040902054155b8061246557506006546001600160a01b038516600090815260096020526040902060010154115b8061248a57506001600160a01b03841660009081526009602052604090206001015483105b1561249757506000612752565b6005546006546001600160a01b0386166000908152600960205260409020600101548210156124df576001600160a01b03861660009081526009602052604090206001015491505b808510156124ea5750835b6003546040805163c1b422fd60e01b815290516000926001600160a01b03169163c1b422fd9160048083019286929190829003018186803b15801561252e57600080fd5b505afa158015612542573d6000803e3d6000fd5b505050506040513d6000823e601f3d908101601f1916820160405261256a9190810190614986565b80519091501561274e576003546040805163d105bf8560e01b815290516000928692849283926001600160a01b03169163d105bf85916004808301926020929190829003018186803b1580156125bf57600080fd5b505afa1580156125d3573d6000803e3d6000fd5b505050506040513d601f19601f820116820180604052508101906125f79190614ab8565b6001600160a01b038c166000908152600960205260408120549192508c91905b87518110156127465787818151811061262c57fe5b6020908102919091010151600354604051632f8deb1560e11b81529198506001600160a01b031690635f1bd62a90612668908a90600401614d68565b60206040518083038186803b15801561268057600080fd5b505afa158015612694573d6000803e3d6000fd5b505050506040513d601f19601f820116820180604052508101906126b89190614ab8565b9450868611156126c75761273e565b86891161270d5784156127085760006126e08a8c614542565b90506127046126fd87611570866126f78a87614122565b90614122565b8d90613fb0565b9b50505b612746565b841561273a57600061271f888c614542565b90506127366126fd87611570866126f78a87614122565b9b50505b8699505b600101612617565b505050505050505b5050505b90505b92915050565b6001546001600160a01b031681565b600f546001600160a01b031681565b601a5460ff1681565b6010546001600160a01b031681565b600e546001600160a01b031681565b600b54156127c05760405162461bcd60e51b815260040161087d90615183565b6001600b819055546001600160a01b0316806127ee5760405162461bcd60e51b815260040161087d90614d71565b60115482906001600160a01b0380831691161461281d5760405162461bcd60e51b815260040161087d906153b9565b600360009054906101000a90046001600160a01b03166001600160a01b031663b8c766b86040518163ffffffff1660e01b815260040160206040518083038186803b15801561286b57600080fd5b505afa15801561287f573d6000803e3d6000fd5b505050506040513d601f19601f820116820180604052508101906128a39190614a34565b15156001146128c45760405162461bcd60e51b815260040161087d906151b1565b60036018556019546128d7906001613fb0565b6019556128e2610e22565b600f54604051636b2160b760e01b81526001600160a01b0390911690636b2160b790612912908690600401614c0d565b602060405180830381600087803b15801561292c57600080fd5b505af1158015612940573d6000803e3d6000fd5b505050506040513d601f19601f820116820180604052508101906129649190614a34565b507ff5ce649f20a9ec3170091cbbbb6aff6a879655e0d7f20acae0ab8a66c2fcc8e8836040516129949190614c0d565b60405180910390a150506000600b5550565b60185481565b600b54156129cc5760405162461bcd60e51b815260040161087d90615183565b6001600b819055546001600160a01b0316806129fa5760405162461bcd60e51b815260040161087d90614d71565b60115482906001600160a01b03808316911614612a295760405162461bcd60e51b815260040161087d906153b9565b60056018541415612a4c5760405162461bcd60e51b815260040161087d90615530565b600360009054906101000a90046001600160a01b03166001600160a01b031663b8c766b86040518163ffffffff1660e01b815260040160206040518083038186803b158015612a9a57600080fd5b505afa158015612aae573d6000803e3d6000fd5b505050506040513d601f19601f82011682018060405250810190612ad29190614a34565b1515600114612af35760405162461bcd60e51b815260040161087d906151b1565b6005601855601980546000909155612b09610e22565b600e546011546040516367265c3b60e11b81526001600160a01b039283169263ce4cb87692612b3f929116903090600401614c5b565b60206040518083038186803b158015612b5757600080fd5b505afa158015612b6b573d6000803e3d6000fd5b505050506040513d601f19601f82011682018060405250810190612b8f9190614ab8565b612ba457601180546001600160a01b03191690555b600f54604051632638fdf560e01b81526001600160a01b0390911690632638fdf590612bd69087903090600401614c5b565b60206040518083038186803b158015612bee57600080fd5b505afa158015612c02573d6000803e3d6000fd5b505050506040513d601f19601f82011682018060405250810190612c269190614ab8565b601380549091019055600f5460405163fb0713b160e01b81526001600160a01b039091169063fb0713b190612c649087908590600190600401614d0a565b602060405180830381600087803b158015612c7e57600080fd5b505af1158015612c92573d6000803e3d6000fd5b505050506040513d601f19601f82011682018060405250810190612cb69190614a34565b507fd07c1a80bfc96d3611f58fc19165b875cdbc1bdc53d8189e649a74930d9e3d8084826001604051612ceb93929190614d0a565b60405180910390a150506000600b555050565b600080516020615a5483398151915281565b600b5415612d305760405162461bcd60e51b815260040161087d90615183565b6001600b55612d3d610e22565b8015612ee8576010546001600160a01b0316612d6b5760405162461bcd60e51b815260040161087d90614ee7565b600c546040516370a0823160e01b815283916001600160a01b0316906370a0823190612d9b903090600401614c0d565b60206040518083038186803b158015612db357600080fd5b505afa158015612dc7573d6000803e3d6000fd5b505050506040513d601f19601f82011682018060405250810190612deb9190614ab8565b1015612e095760405162461bcd60e51b815260040161087d9061509b565b601054604051600091612e2c916001600160a01b03909116908190602001614c5b565b60408051601f1981840301815290829052600c54600d5463cae9ca5160e01b84529193506001600160a01b039081169263cae9ca5192612e7492169087908690600401614d2d565b602060405180830381600087803b158015612e8e57600080fd5b505af1158015612ea2573d6000803e3d6000fd5b505050506040513d601f19601f82011682018060405250810190612ec69190614a34565b612ee25760405162461bcd60e51b815260040161087d90615425565b50613024565b600d546040516370a0823160e01b815283916001600160a01b0316906370a0823190612f18903090600401614c0d565b60206040518083038186803b158015612f3057600080fd5b505afa158015612f44573d6000803e3d6000fd5b505050506040513d601f19601f82011682018060405250810190612f689190614ab8565b1015612f865760405162461bcd60e51b815260040161087d9061512a565b600d5460405163f53fe70f60e01b81526001600160a01b039091169063f53fe70f90612fb6908590600401614d68565b602060405180830381600087803b158015612fd057600080fd5b505af1158015612fe4573d6000803e3d6000fd5b505050506040513d601f19601f820116820180604052508101906130089190614a34565b6130245760405162461bcd60e51b815260040161087d90615576565b50506000600b55565b600a5481565b600d546001600160a01b031681565b6000828152601b602052604081206127529083614584565b6000828152601b602052604081206127529083614590565b6011546001600160a01b031681565b60008061308c614851565b5050600254600354604080516060810182526004548152600554602082015260065491810191909152600754600854600a546001600160a01b03958616979590941695509193909290565b600081565b6130f4600080516020615a548339815191523361305a565b6131105760405162461bcd60e51b815260040161087d906154a4565b6001600160a01b0381161580159061313657506011546001600160a01b03828116911614155b6131525760405162461bcd60e51b815260040161087d90614ea6565b601180546001600160a01b0319166001600160a01b0383161790556040517fbcf2b04f5517cca822ae60e21bb6e3889b8d8307ea062c5266c63a014386c9909061319d908390614c0d565b60405180910390a150565b6131c0600080516020615a548339815191523361305a565b6131dc5760405162461bcd60e51b815260040161087d906154a4565b806001600160a01b0381166132035760405162461bcd60e51b815260040161087d90614d71565b600180546001600160a01b0319166001600160a01b0384811691909117918290556040517f278c70ced5f3e0e5eeb385b5ff9cb735748ba00a625147e66065ed48fc1562cd92613254921690614c0d565b60405180910390a15050565b6009602052600090815260409020805460018201546002830154600384015460048501546005860154600690960154949593949293919290919060ff1687565b60075481565b6000818152601b60205260408120612755906145a5565b600c546001600160a01b031681565b600b54156132ec5760405162461bcd60e51b815260040161087d90615183565b6001600b819055546001600160a01b03168061331a5760405162461bcd60e51b815260040161087d90614d71565b60115483906001600160a01b038083169116146133495760405162461bcd60e51b815260040161087d906153b9565b600360009054906101000a90046001600160a01b03166001600160a01b031663b8c766b86040518163ffffffff1660e01b815260040160206040518083038186803b15801561339757600080fd5b505afa1580156133ab573d6000803e3d6000fd5b505050506040513d601f19601f820116820180604052508101906133cf9190614a34565b15156001146133f05760405162461bcd60e51b815260040161087d906151b1565b6003601855601954613403906001613fb0565b60195561340e610e22565b600e546040516367265c3b60e11b81526000916001600160a01b03169063ce4cb876906134419088903090600401614c5b565b60206040518083038186803b15801561345957600080fd5b505afa15801561346d573d6000803e3d6000fd5b505050506040513d601f19601f820116820180604052508101906134919190614ab8565b9050838110156134b35760405162461bcd60e51b815260040161087d90614e7a565b600f5460405163da95ebf760e01b81526001600160a01b039091169063da95ebf7906134e59088908890600401614c21565b602060405180830381600087803b1580156134ff57600080fd5b505af1158015613513573d6000803e3d6000fd5b505050506040513d601f19601f820116820180604052508101906135379190614a34565b507f1ac2a17d8d7ec451060cfbcbb66b61b7fd5fe7f887d9423102809f74bd207e828585604051613569929190614c21565b60405180910390a150506000600b55505050565b6000828152601b602052604090206002015461359b9061060061400a565b6110655760405162461bcd60e51b8152600401808060200182810382526030815260200180615a036030913960400191505060405180910390fd5b6001600160a01b03166000908152600960205260409020805460018201546002830154600384015460048501546005860154600690960154949693959294919390929160ff1690565b60195481565b60165481565b60175481565b6000600b546000146136555760405162461bcd60e51b815260040161087d90615183565b6001600b5560065443111561367c5760405162461bcd60e51b815260040161087d9061565c565b600360009054906101000a90046001600160a01b03166001600160a01b031663b8c766b86040518163ffffffff1660e01b815260040160206040518083038186803b1580156136ca57600080fd5b505afa1580156136de573d6000803e3d6000fd5b505050506040513d601f19601f820116820180604052508101906137029190614a34565b15156001146137235760405162461bcd60e51b815260040161087d9061576a565b600282106137435760405162461bcd60e51b815260040161087d90615389565b61374b610e22565b600d546040516370a0823160e01b81526000916001600160a01b0316906370a082319061377c903090600401614c0d565b60206040518083038186803b15801561379457600080fd5b505afa1580156137a8573d6000803e3d6000fd5b505050506040513d601f19601f820116820180604052508101906137cc9190614ab8565b600c546040516370a0823160e01b81529192506000916001600160a01b03909116906370a0823190613802903090600401614c0d565b60206040518083038186803b15801561381a57600080fd5b505afa15801561382e573d6000803e3d6000fd5b505050506040513d601f19601f820116820180604052508101906138529190614ab8565b6011549091506000906001600160a01b03161561392f57600e546011546040516367265c3b60e11b81526001600160a01b039283169263ce4cb8769261389f929116903090600401614c5b565b60206040518083038186803b1580156138b757600080fd5b505afa1580156138cb573d6000803e3d6000fd5b505050506040513d601f19601f820116820180604052508101906138ef9190614ab8565b600f54601154604051632638fdf560e01b815292935061392c926001600160a01b0392831692632638fdf592611de2929116903090600401614c5b565b90505b82821561394a57613947611e3284633b9aca00614122565b90505b8981101561396a5760405162461bcd60e51b815260040161087d906153f0565b811561397d5761397a8183613fb0565b90505b60085461398e90633b9aca00614122565b811180156139b75750896139b4611ec1633b9aca0060085461412290919063ffffffff16565b10155b6139d35760405162461bcd60e51b815260040161087d90615352565b89841015613acf576010546040516000916139fe916001600160a01b03909116908190602001614c5b565b60408051601f1981840301815291905290506000613a24633b9aca006115708e89614542565b600c54600d5460405163cae9ca5160e01b81529293506001600160a01b039182169263cae9ca5192613a5e92169085908790600401614d2d565b602060405180830381600087803b158015613a7857600080fd5b505af1158015613a8c573d6000803e3d6000fd5b505050506040513d601f19601f82011682018060405250810190613ab09190614a34565b613acc5760405162461bcd60e51b815260040161087d9061529d565b50505b50506014805489019055505060015460408051630141158f60e61b81529051600092839283926001600160a01b039092169163504563c09160048082019260a092909190829003018186803b158015613b2757600080fd5b505afa158015613b3b573d6000803e3d6000fd5b505050506040513d601f19601f82011682018060405250810190613b5f91906148ff565b509295509350909150506001600160a01b038316613b8f5760405162461bcd60e51b815260040161087d90614da8565b600d5460405163095ea7b360e01b81526001600160a01b039091169063095ea7b390613bc19086908d90600401614c21565b602060405180830381600087803b158015613bdb57600080fd5b505af1158015613bef573d6000803e3d6000fd5b505050506040513d601f19601f82011682018060405250810190613c139190614a34565b613c2f5760405162461bcd60e51b815260040161087d9061579d565b84613d05576040805161010081018252600d546001600160a01b0390811682526000548116602083015262ffffff841682840152306060830152608082018a905260a082018c905260c082018b905288811660e0830152915163414bf38960e01b8152909185169063414bf38990613cab908490600401615875565b602060405180830381600087803b158015613cc557600080fd5b505af1158015613cd9573d6000803e3d6000fd5b505050506040513d601f19601f82011682018060405250810190613cfd9190614ab8565b945050613dfc565b8460011415613dfc576040805160a08101909152600d54600080549092918291613d45916001600160a01b03908116918791899183911660c08701614bb8565b6040516020818303038152906040528152602001306001600160a01b031681526020018981526020018b81526020018a8152509050836001600160a01b031663c04b8d59826040518263ffffffff1660e01b8152600401613da6919061581d565b602060405180830381600087803b158015613dc057600080fd5b505af1158015613dd4573d6000803e3d6000fd5b505050506040513d601f19601f82011682018060405250810190613df89190614ab8565b9450505b7ff0a0d4fd1b810e35ad5dbe81db68646c230891adf08081336320fd21a45d2d1a338a86604051613e2f93929190614c3a565b60405180910390a150506000600b555095945050505050565b613e60600080516020615a548339815191523361305a565b613e7c5760405162461bcd60e51b815260040161087d906154a4565b336001600160a01b0382161415613ea55760405162461bcd60e51b815260040161087d90614e16565b613ebd600080516020615a5483398151915282610fa7565b613ed5600080516020615a548339815191523361357d565b50565b6003546001600160a01b031681565b6000546001600160a01b031681565b60125481565b6000806000806000600160009054906101000a90046001600160a01b03166001600160a01b031663504563c06040518163ffffffff1660e01b815260040160a06040518083038186803b158015613f5257600080fd5b505afa158015613f66573d6000803e3d6000fd5b505050506040513d601f19601f82011682018060405250810190613f8a91906148ff565b945094509450945094509091929394565b6000612752836001600160a01b0384166145b0565b600082820183811015612752576040805162461bcd60e51b815260206004820152601b60248201527f536166654d6174683a206164646974696f6e206f766572666c6f770000000000604482015290519081900360640190fd5b3390565b6000828152601b602052604090206140269082613f9b565b1561100a5761403361400a565b6001600160a01b0316816001600160a01b0316837f2f8788117e7eff1d82e926ec794901d17c78024a50270940304540a733656f0d60405160405180910390a45050565b6000828152601b6020526040902061408f90826145fa565b1561100a5761409c61400a565b6001600160a01b0316816001600160a01b0316837ff6391f5c32d9c69d2a47ea670b442974b53935d1edc7fd64eb21e047a839171b60405160405180910390a45050565b600061275283836040518060400160405280601a81526020017f536166654d6174683a206469766973696f6e206279207a65726f00000000000081525061460f565b60008261413157506000612755565b8282028284828161413e57fe5b04146127525760405162461bcd60e51b8152600401808060200182810382526021815260200180615a336021913960400191505060405180910390fd5b82156142b9576040516370a0823160e01b815283906001600160a01b038716906370a08231906141af903090600401614c0d565b60206040518083038186803b1580156141c757600080fd5b505afa1580156141db573d6000803e3d6000fd5b505050506040513d601f19601f820116820180604052508101906141ff9190614ab8565b101561421d5760405162461bcd60e51b815260040161087d90615733565b60405163a9059cbb60e01b81526001600160a01b0386169063a9059cbb9061424b9033908790600401614c21565b602060405180830381600087803b15801561426557600080fd5b505af1158015614279573d6000803e3d6000fd5b505050506040513d601f19601f8201168201806040525081019061429d9190614a34565b6142b95760405162461bcd60e51b815260040161087d90615064565b81156143f7576040516370a0823160e01b815282906001600160a01b038616906370a08231906142ed903090600401614c0d565b60206040518083038186803b15801561430557600080fd5b505afa158015614319573d6000803e3d6000fd5b505050506040513d601f19601f8201168201806040525081019061433d9190614ab8565b101561435b5760405162461bcd60e51b815260040161087d906156fc565b60405163e3b99e8560e01b81526001600160a01b0385169063e3b99e85906143899033908690600401614c21565b602060405180830381600087803b1580156143a357600080fd5b505af11580156143b7573d6000803e3d6000fd5b505050506040513d601f19601f820116820180604052508101906143db9190614a34565b6143f75760405162461bcd60e51b815260040161087d906150f3565b801561453b576000546040516370a0823160e01b815282916001600160a01b0316906370a082319061442d903090600401614c0d565b60206040518083038186803b15801561444557600080fd5b505afa158015614459573d6000803e3d6000fd5b505050506040513d601f19601f8201168201806040525081019061447d9190614ab8565b101561449b5760405162461bcd60e51b815260040161087d90615625565b60005460405163a9059cbb60e01b81526001600160a01b039091169063a9059cbb906144cd9033908590600401614c21565b602060405180830381600087803b1580156144e757600080fd5b505af11580156144fb573d6000803e3d6000fd5b505050506040513d601f19601f8201168201806040525081019061451f9190614a34565b61453b5760405162461bcd60e51b815260040161087d90614f7f565b5050505050565b600061275283836040518060400160405280601e81526020017f536166654d6174683a207375627472616374696f6e206f766572666c6f7700008152506146b1565b6000612752838361470b565b6000612752836001600160a01b03841661476f565b600061275582614787565b60006145bc838361476f565b6145f257508154600181810184556000848152602080822090930184905584548482528286019093526040902091909155612755565b506000612755565b6000612752836001600160a01b03841661478b565b6000818361469b5760405162461bcd60e51b81526004018080602001828103825283818151815260200191508051906020019080838360005b83811015614660578181015183820152602001614648565b50505050905090810190601f16801561468d5780820380516001836020036101000a031916815260200191505b509250505060405180910390fd5b5060008385816146a757fe5b0495945050505050565b600081848411156147035760405162461bcd60e51b8152602060048201818152835160248401528351909283926044909101919085019080838360008315614660578181015183820152602001614648565b505050900390565b8154600090821061474d5760405162461bcd60e51b81526004018080602001828103825260228152602001806159b26022913960400191505060405180910390fd5b82600001828154811061475c57fe5b9060005260206000200154905092915050565b60009081526001919091016020526040902054151590565b5490565b6000818152600183016020526040812054801561484757835460001980830191908101906000908790839081106147be57fe5b90600052602060002001549050808760000184815481106147db57fe5b60009182526020808320909101929092558281526001898101909252604090209084019055865487908061480b57fe5b60019003818190600052602060002001600090559055866001016000878152602001908152602001600020600090556001945050505050612755565b6000915050612755565b60405180606001604052806003906020820280368337509192915050565b600060208284031215614880578081fd5b81356127528161598e565b600080600080600060a086880312156148a2578081fd5b85516148ad8161598e565b60208701519095506148be8161598e565b60408701519094506148cf8161598e565b60608701519093506148e08161598e565b60808701519092506148f18161598e565b809150509295509295909350565b600080600080600060a08688031215614916578081fd5b85516149218161598e565b60208701519095506149328161598e565b60408701519094506149438161598e565b6060870151608088015191945092506148f18161598e565b6000806040838503121561496d578182fd5b82356149788161598e565b946020939093013593505050565b60006020808385031215614998578182fd5b825167ffffffffffffffff808211156149af578384fd5b818501915085601f8301126149c2578384fd5b8151818111156149ce57fe5b838102604051858282010181811085821117156149e757fe5b604052828152858101935084860182860187018a1015614a05578788fd5b8795505b83861015614a27578051855260019590950194938601938601614a09565b5098975050505050505050565b600060208284031215614a45578081fd5b8151612752816159a3565b600060208284031215614a61578081fd5b5035919050565b60008060408385031215614a7a578182fd5b823591506020830135614a8c8161598e565b809150509250929050565b60008060408385031215614aa9578182fd5b50508035926020909101359150565b600060208284031215614ac9578081fd5b5051919050565b60008060408385031215614ae2578182fd5b823591506020830135614a8c816159a3565b600080600080600060a08688031215614b0b578081fd5b8535945060208601359350604086013592506060860135614b2b8161598e565b949793965091946080013592915050565b60008060008060808587031215614b51578182fd5b5050823594602084013594506040840135936060013592509050565b60008151808452815b81811015614b9257602081850181015186830182015201614b76565b81811115614ba35782602083870101525b50601f01601f19169290920160200192915050565b6bffffffffffffffffffffffff19606096871b811682526001600160e81b031960e896871b8116601484015294871b811660178301529290941b909216602b840152921b909116602e82015260420190565b90565b6001600160a01b0391909116815260200190565b6001600160a01b03929092168252602082015260400190565b6001600160a01b039390931683526020830191909152604082015260600190565b6001600160a01b0392831681529116602082015260400190565b6001600160a01b039586168152938516602085015291841660408401526060830152909116608082015260a00190565b6001600160a01b038781168252861660208083019190915261010082019060408301908760005b6003811015614ce957815184529282019290820190600101614ccc565b505050508460a08301528360c08301528260e0830152979650505050505050565b6001600160a01b0393909316835260208301919091521515604082015260600190565b600060018060a01b038516825283602083015260606040830152614d546060830184614b6d565b95945050505050565b901515815260200190565b90815260200190565b6020808252601b908201527f546f6b616d616b5374616b65723a207a65726f20616464726573730000000000604082015260600190565b6020808252601a908201527f546f6b616d616b5374616b65723a756e6973776170207a65726f000000000000604082015260600190565b6020808252601a908201527f5374616b65544f4e3a20416c7265616479207769746864726177000000000000604082015260600190565b6020808252601890820152772a37b5b0b6b0b5a9ba30b5b2b91d39b0b6b29037bbb732b960411b604082015260600190565b6020808252601890820152775374616b65544f4e3a20726577617264206973207a65726f60401b604082015260600190565b602080825260129082015271546f6b616d616b5374616b65723a6c61636b60701b604082015260600190565b60208082526021908201527f546f6b616d616b5374616b65723a746f6b616d616b4c6179657232207a65726f6040820152600160fd1b606082015260800190565b6020808252818101527f546f6b616d616b5374616b65723a207377617050726f7879206973207a65726f604082015260600190565b60208082526017908201527614dd185ad95513d38e881d1c985b9cd9995c8819985a5b604a1b604082015260600190565b602080825260189082015277151bdad85b585ad4dd185ad95c8e9c195c9a5bd908195b9960421b604082015260600190565b6020808252601b908201527f5374616b65544f4e3a207472616e7366657220746f73206661696c0000000000604082015260600190565b60208082526029908201527f546f6b616d616b5374616b65723a706572696f64287769746864726177616c44604082015268195b185e4a48195b9960ba1b606082015260800190565b6020808252601f908201527f5374616b65544f4e3a2049546f6b616d616b5265676973747279207a65726f00604082015260600190565b60208082526014908201527314dd185ad95513d38e881b9bdd0818db1bdcd95960621b604082015260600190565b6020808252601b908201527f5374616b65544f4e3a207472616e7366657220746f6e206661696c0000000000604082015260600190565b60208082526038908201527f546f6b616d616b5374616b65723a2073776170544f4e746f57544f4e20746f6e6040820152770818985b185b98d9481a5cc81a5b9cdd59999a58da595b9d60421b606082015260800190565b6020808252601c908201527f5374616b65544f4e3a207472616e736665722077746f6e206661696c00000000604082015260600190565b60208082526039908201527f546f6b616d616b5374616b65723a2073776170544f4e746f57544f4e2077746f6040820152781b8818985b185b98d9481a5cc81a5b9cdd59999a58da595b9d603a1b606082015260800190565b602080825260149082015273151bdad85b585ad4dd185ad95c8e9313d0d2d15160621b604082015260600190565b602080825260189082015277151bdad85b585ad4dd185ad95c8e9b9bdd0818db1bdcd95960421b604082015260600190565b60208082526022908201527f5374616b65544f4e3a2072656d61696e20616d6f756e7420696e20746f6b616d604082015261616b60f01b606082015260800190565b6020808252601e908201527f5374616b65544f4e3a2066696e616c42616c616e6365206973206c61636b0000604082015260600190565b60208082526021908201527f546f6b616d616b5374616b65723a617070726f7665416e6443616c6c206661696040820152601b60fa1b606082015260800190565b60208082526033908201527f546f6b616d616b5374616b65723a65786368616e676557544f4e746f544f5320604082015272185c1c1c9bdd99505b9910d85b1b0819985a5b606a1b606082015260800190565b60208082526011908201527014dd185ad95513d38e8818db185a5b5959607a1b604082015260600190565b6020808252601a908201527f5374616b65544f4e3a207769746864726177206661696c65642e000000000000604082015260600190565b6020808252601a908201527f546f6b616d616b5374616b65723a696e73756666696369656e74000000000000604082015260600190565b602080825260169082015275151bdad85b585ad4dd185ad95c8e881b9bc81ada5b9960521b604082015260600190565b6020808252601d908201527f546f6b616d616b5374616b65723a646966666572656e74206c61796572000000604082015260600190565b6020808252818101527f546f6b616d616b5374616b65723a2077746f6e20696e73756666696369656e74604082015260600190565b6020808252602f908201527f546f6b616d616b5374616b65723a73776170544f4e746f57544f4e206170707260408201526e1bdd99505b9910d85b1b0819985a5b608a1b606082015260800190565b6020808252601690820152755374616b65544f4e3a20416d6f756e742077726f6e6760501b604082015260600190565b60208082526025908201527f546f6b616d616b5374616b65723a2043616c6c6572206973206e6f7420616e2060408201526430b236b4b760d91b606082015260800190565b6020808252600790820152661b9bc81ada5b9960ca1b604082015260600190565b6020808252600c908201526b756e6973776170207a65726f60a01b604082015260600190565b60208082526026908201527f546f6b616d616b5374616b65723a416c72656164792050726f63657373556e5360408201526574616b696e6760d01b606082015260800190565b6020808252601c908201527f546f6b616d616b5374616b65723a73776170546f544f4e206661696c00000000604082015260600190565b6020808252601a908201527f546f6b616d616b5374616b65723a746f6b616d616b207a65726f000000000000604082015260600190565b60208082526021908201527f546f6b616d616b5374616b65723a7374616b65416d6f756e74206973207a65726040820152606f60f81b606082015260800190565b6020808252601d908201527f5374616b65544f4e3a20746f732062616c616e6365206973206c61636b000000604082015260600190565b602080825260199082015278151bdad85b585ad4dd185ad95c8e881c195c9a5bd908195b99603a1b604082015260600190565b60208082526011908201527014dd185ad95513d38e881b9bdd08195b99607a1b604082015260600190565b60208082526022908201527f546f6b616d616b5374616b65723a20746f6e2062616c616e6365206973207a65604082015261726f60f01b606082015260800190565b6020808252601e908201527f5374616b65544f4e3a2077746f6e2062616c616e6365206973206c61636b0000604082015260600190565b6020808252601d908201527f5374616b65544f4e3a20746f6e2062616c616e6365206973206c61636b000000604082015260600190565b602080825260199082015278151bdad85b585ad4dd185ad95c8e881b9bdd0818db1bdcd959603a1b604082015260600190565b60208082526029908201527f546f6b616d616b5374616b65723a63616e277420617070726f766520756e69736040820152683bb0b82937baba32b960b91b606082015260800190565b6020808252601e908201527f5374616b65544f4e3a20746f74616c2072657761726420657863656564730000604082015260600190565b600060208252825160a0602084015261583960c0840182614b6d565b905060018060a01b0360208501511660408401526040840151606084015260608401516080840152608084015160a08401528091505092915050565b81516001600160a01b03908116825260208084015182169083015260408084015162ffffff16908301526060808401518216908301526080808401519083015260a0838101519083015260c0808401519083015260e09283015116918101919091526101000190565b918252602082015260400190565b600060a082018783526020878185015260a0604085015281875180845260c0860191508289019350845b8181101561593b5784516001600160a01b031683529383019391830191600101615916565b50506001600160a01b03969096166060850152505050608001529392505050565b968752602087019590955260408601939093526060850191909152608084015260a0830152151560c082015260e00190565b6001600160a01b0381168114613ed557600080fd5b8015158114613ed557600080fdfe456e756d657261626c655365743a20696e646578206f7574206f6620626f756e6473416363657373436f6e74726f6c3a2073656e646572206d75737420626520616e2061646d696e20746f206772616e74416363657373436f6e74726f6c3a2073656e646572206d75737420626520616e2061646d696e20746f207265766f6b65536166654d6174683a206d756c7469706c69636174696f6e206f766572666c6f77df8b4c520ffe197c5343c6f5aec59570151ef9a492f2c624fd45ddde6135ec42416363657373436f6e74726f6c3a2063616e206f6e6c792072656e6f756e636520726f6c657320666f722073656c66a2646970667358221220f98941ccf49053d517e848dcfc91eeccc4cf9e01cb6ec25fe8d1ab7ebbe70b1464736f6c63430007060033df8b4c520ffe197c5343c6f5aec59570151ef9a492f2c624fd45ddde6135ec42",
  "immutableReferences": {},
  "source": "//SPDX-License-Identifier: Unlicense\npragma solidity ^0.7.0;\npragma abicoder v2;\n\nimport \"../interfaces/IStakeTON.sol\";\nimport {IIStake1Vault} from \"../interfaces/IIStake1Vault.sol\";\nimport {IIERC20} from \"../interfaces/IIERC20.sol\";\nimport {IWTON} from \"../interfaces/IWTON.sol\";\n\nimport \"../libraries/LibTokenStake1.sol\";\nimport {SafeMath} from \"../utils/math/SafeMath.sol\";\nimport \"../connection/TokamakStaker.sol\";\nimport {\n    ERC165Checker\n} from \"@openzeppelin/contracts/introspection/ERC165Checker.sol\";\nimport {SafeERC20} from \"@openzeppelin/contracts/token/ERC20/SafeERC20.sol\";\n\n/// @title Stake Contract\n/// @notice It can be staked in Tokamak. Can be swapped using Uniswap.\n/// Stake contracts can interact with the vault to claim tos tokens\ncontract StakeTON is TokamakStaker, IStakeTON {\n    using SafeMath for uint256;\n\n    /// @dev event on staking\n    /// @param to the sender\n    /// @param amount the amount of staking\n    event Staked(address indexed to, uint256 amount);\n\n    /// @dev event on claim\n    /// @param to the sender\n    /// @param amount the amount of claim\n    /// @param claimBlock the block of claim\n    event Claimed(address indexed to, uint256 amount, uint256 claimBlock);\n\n    /// @dev event on withdrawal\n    /// @param to the sender\n    /// @param tonAmount the amount of TON withdrawal\n    /// @param tosAmount the amount of TOS withdrawal\n    event Withdrawal(address indexed to, uint256 tonAmount, uint256 tosAmount);\n\n    /// @dev constructor of StakeTON\n    constructor() {\n        _setRoleAdmin(ADMIN_ROLE, ADMIN_ROLE);\n        _setupRole(ADMIN_ROLE, msg.sender);\n    }\n\n    /// @dev receive ether\n    /// @dev call stake function with msg.value\n    receive() external payable {\n        // stake(msg.value);\n    }\n\n    /// @dev Initialize\n    // function initialize(\n    //     address _token,\n    //     address _paytoken,\n    //     address _vault,\n    //     uint256 _saleStartBlock,\n    //     uint256 _startBlock,\n    //     uint256 _period\n    // ) external onlyOwner {\n    //     require(\n    //         _token != address(0) &&\n    //             _vault != address(0) &&\n    //             _saleStartBlock < _startBlock, \"zero\"\n    //     );\n    //     token = _token;\n    //     paytoken = _paytoken;\n    //     vault = _vault;\n    //     saleStartBlock = _saleStartBlock;\n    //     startBlock = _startBlock;\n    //     endBlock = startBlock.add(_period);\n    // }\n\n    /// @dev Stake amount\n    /// @param amount  the amount of staked\n    /* function stake(uint256 amount) public payable override {\n        require(\n            (paytoken == address(0) && msg.value == amount) ||\n                (paytoken != address(0) && amount > 0),\n            \"StakeTON: zero\"\n        );\n        require(\n            block.number >= saleStartBlock && block.number < startBlock,\n            \"StakeTON: unavailable\"\n        );\n\n        require(!IIStake1Vault(vault).saleClosed(), \"StakeTON: not end\");\n\n        if (paytoken == address(0)) amount = msg.value;\n        else\n            require(\n                IIERC20(paytoken).balanceOf(msg.sender) >= amount,\n                \"StakeTON: insuffient\"\n            );\n\n        LibTokenStake1.StakedAmount storage staked = userStaked[msg.sender];\n        if (staked.amount == 0)  totalStakers = totalStakers.add(1);\n\n        staked.amount = staked.amount.add(amount);\n        totalStakedAmount = totalStakedAmount.add(amount);\n        if (paytoken != address(0))\n            require(\n                IIERC20(paytoken).transferFrom(\n                    msg.sender,\n                    address(this),\n                    amount\n                )\n            );\n\n        emit Staked(msg.sender, amount);\n    }\n    */\n\n    /// @dev withdraw\n    function withdraw() external override {\n        require(endBlock > 0 && endBlock < block.number, \"StakeTON: not end\");\n        (\n            address ton,\n            address wton,\n            address depositManager,\n            address seigManager,\n\n        ) = ITokamakRegistry(stakeRegistry).getTokamak();\n        require(\n            ton != address(0) &&\n                wton != address(0) &&\n                depositManager != address(0) &&\n                seigManager != address(0),\n            \"StakeTON: ITokamakRegistry zero\"\n        );\n        if (tokamakLayer2 != address(0)) {\n            require(\n                IISeigManager(seigManager).stakeOf(\n                    tokamakLayer2,\n                    address(this)\n                ) ==\n                    0 &&\n                    IIDepositManager(depositManager).pendingUnstaked(\n                        tokamakLayer2,\n                        address(this)\n                    ) ==\n                    0,\n                \"StakeTON: remain amount in tokamak\"\n            );\n        }\n        LibTokenStake1.StakedAmount storage staked = userStaked[msg.sender];\n        require(staked.released == false, \"StakeTON: Already withdraw\");\n\n        if (withdrawFlag == false) {\n            withdrawFlag = true;\n            if (paytoken == ton) {\n                swappedAmountTOS = IIERC20(token).balanceOf(address(this));\n                finalBalanceWTON = IIERC20(wton).balanceOf(address(this));\n                finalBalanceTON = IIERC20(ton).balanceOf(address(this));\n                require(\n                    finalBalanceWTON.div(10**9).add(finalBalanceTON) >=\n                        totalStakedAmount,\n                    \"StakeTON: finalBalance is lack\"\n                );\n            }\n        }\n\n        uint256 amount = staked.amount;\n        require(amount > 0, \"StakeTON: Amount wrong\");\n        staked.releasedBlock = block.number;\n        staked.released = true;\n\n        if (paytoken == ton) {\n            uint256 tonAmount = 0;\n            uint256 wtonAmount = 0;\n            uint256 tosAmount = 0;\n            if (finalBalanceTON > 0)\n                tonAmount = finalBalanceTON.mul(amount).div(totalStakedAmount);\n            if (finalBalanceWTON > 0)\n                wtonAmount = finalBalanceWTON.mul(amount).div(\n                    totalStakedAmount\n                );\n            if (swappedAmountTOS > 0)\n                tosAmount = swappedAmountTOS.mul(amount).div(totalStakedAmount);\n\n            staked.releasedTOSAmount = tosAmount;\n            if (wtonAmount > 0)\n                staked.releasedAmount = wtonAmount.div(10**9).add(tonAmount);\n            else staked.releasedAmount = tonAmount;\n\n            tonWithdraw(ton, wton, tonAmount, wtonAmount, tosAmount);\n        } else if (paytoken == address(0)) {\n            require(\n                staked.releasedAmount <= staked.amount,\n                \"StakeTON: Amount wrong\"\n            );\n            staked.releasedAmount = amount;\n            address payable self = address(uint160(address(this)));\n            require(self.balance >= amount);\n            (bool success, ) = msg.sender.call{value: amount}(\"\");\n            require(success, \"StakeTON: withdraw failed.\");\n        } else {\n            require(\n                staked.releasedAmount <= staked.amount,\n                \"StakeTON: Amount wrong\"\n            );\n            staked.releasedAmount = amount;\n            require(\n                IIERC20(paytoken).transfer(msg.sender, amount),\n                \"StakeTON: transfer fail\"\n            );\n        }\n\n        emit Withdrawal(\n            msg.sender,\n            staked.releasedAmount,\n            staked.releasedTOSAmount\n        );\n    }\n\n    /// @dev withdraw TON\n    /// @param ton  TON address\n    /// @param wton  WTON address\n    /// @param tonAmount  the amount of TON to be withdrawn to msg.sender\n    /// @param wtonAmount  the amount of WTON to be withdrawn to msg.sender\n    /// @param tosAmount  the amount of TOS to be withdrawn to msg.sender\n    function tonWithdraw(\n        address ton,\n        address wton,\n        uint256 tonAmount,\n        uint256 wtonAmount,\n        uint256 tosAmount\n    ) internal {\n        if (tonAmount > 0) {\n            require(\n                IIERC20(ton).balanceOf(address(this)) >= tonAmount,\n                \"StakeTON: ton balance is lack\"\n            );\n\n            require(\n                IIERC20(ton).transfer(msg.sender, tonAmount),\n                \"StakeTON: transfer ton fail\"\n            );\n        }\n        if (wtonAmount > 0) {\n            require(\n                IIERC20(wton).balanceOf(address(this)) >= wtonAmount,\n                \"StakeTON: wton balance is lack\"\n            );\n            require(\n                IWTON(wton).swapToTONAndTransfer(msg.sender, wtonAmount),\n                \"StakeTON: transfer wton fail\"\n            );\n        }\n        if (tosAmount > 0) {\n            require(\n                IIERC20(token).balanceOf(address(this)) >= tosAmount,\n                \"StakeTON: tos balance is lack\"\n            );\n            require(\n                IIERC20(token).transfer(msg.sender, tosAmount),\n                \"StakeTON: transfer tos fail\"\n            );\n        }\n    }\n\n    /// @dev Claim for reward\n    function claim() external override lock {\n        require(\n            IIStake1Vault(vault).saleClosed() == true,\n            \"StakeTON: not closed\"\n        );\n        uint256 rewardClaim = 0;\n\n        LibTokenStake1.StakedAmount storage staked = userStaked[msg.sender];\n        require(staked.claimedBlock < endBlock, \"StakeTON: claimed\");\n\n        rewardClaim = canRewardAmount(msg.sender, block.number);\n\n        require(rewardClaim > 0, \"StakeTON: reward is zero\");\n\n        uint256 rewardTotal =\n            IIStake1Vault(vault).totalRewardAmount(address(this));\n        require(\n            rewardClaimedTotal.add(rewardClaim) <= rewardTotal,\n            \"StakeTON: total reward exceeds\"\n        );\n\n        staked.claimedBlock = block.number;\n        staked.claimedAmount = staked.claimedAmount.add(rewardClaim);\n        rewardClaimedTotal = rewardClaimedTotal.add(rewardClaim);\n\n        require(IIStake1Vault(vault).claim(msg.sender, rewardClaim));\n\n        emit Claimed(msg.sender, rewardClaim, block.number);\n    }\n\n    /// @dev Returns the amount that can be rewarded\n    /// @param account  the account that claimed reward\n    /// @param specificBlock the block that claimed reward\n    /// @return reward the reward amount that can be taken\n    function canRewardAmount(address account, uint256 specificBlock)\n        public\n        view\n        override\n        returns (uint256)\n    {\n        uint256 reward = 0;\n        if (specificBlock > endBlock) specificBlock = endBlock;\n\n        if (\n            specificBlock < startBlock ||\n            userStaked[account].amount == 0 ||\n            userStaked[account].claimedBlock > endBlock ||\n            userStaked[account].claimedBlock > specificBlock\n        ) {\n            reward = 0;\n        } else {\n            uint256 startR = startBlock;\n            uint256 endR = endBlock;\n            if (startR < userStaked[account].claimedBlock)\n                startR = userStaked[account].claimedBlock;\n            if (specificBlock < endR) endR = specificBlock;\n\n            uint256[] memory orderedEndBlocks =\n                IIStake1Vault(vault).orderedEndBlocksAll();\n\n            if (orderedEndBlocks.length > 0) {\n                uint256 _end = 0;\n                uint256 _start = startR;\n                uint256 _total = 0;\n                uint256 blockTotalReward = 0;\n                blockTotalReward = IIStake1Vault(vault).blockTotalReward();\n\n                address user = account;\n                uint256 amount = userStaked[user].amount;\n\n                for (uint256 i = 0; i < orderedEndBlocks.length; i++) {\n                    _end = orderedEndBlocks[i];\n                    _total = IIStake1Vault(vault).stakeEndBlockTotal(_end);\n\n                    if (_start > _end) {} else if (endR <= _end) {\n                        if (_total > 0) {\n                            uint256 _period1 = endR.sub(startR);\n                            reward = reward.add(\n                                blockTotalReward.mul(_period1).mul(amount).div(\n                                    _total\n                                )\n                            );\n                        }\n                        break;\n                    } else {\n                        if (_total > 0) {\n                            uint256 _period2 = _end.sub(startR);\n                            reward = reward.add(\n                                blockTotalReward.mul(_period2).mul(amount).div(\n                                    _total\n                                )\n                            );\n                        }\n                        startR = _end;\n                    }\n                }\n            }\n        }\n        return reward;\n    }\n    /*\n    function canRewardAmountTest(address account, uint256 specificBlock)\n        public view\n        returns (uint256, uint256, uint256, uint256)\n    {\n        uint256 reward = 0;\n        uint256 startR = 0;\n        uint256 endR = 0;\n        uint256 blockTotalReward = 0;\n        if(specificBlock > endBlock ) specificBlock = endBlock;\n\n        if (\n            specificBlock < startBlock ||\n            userStaked[account].amount == 0 ||\n            userStaked[account].claimedBlock > endBlock ||\n            userStaked[account].claimedBlock > specificBlock\n        ) {\n            reward = 0;\n        } else {\n            startR = startBlock;\n            endR = endBlock;\n            if (startR < userStaked[account].claimedBlock)\n                startR = userStaked[account].claimedBlock;\n            if (specificBlock < endR) endR = specificBlock;\n\n            uint256[] memory orderedEndBlocks =\n                IIStake1Vault(vault).orderedEndBlocksAll();\n\n            if (orderedEndBlocks.length > 0) {\n                uint256 _end = 0;\n                uint256 _start = startR;\n                uint256 _total = 0;\n                //uint256 blockTotalReward = 0;\n                blockTotalReward = IIStake1Vault(vault).blockTotalReward();\n\n                address user = account;\n                uint256 amount = userStaked[user].amount;\n\n                for (uint256 i = 0; i < orderedEndBlocks.length; i++) {\n                    _end = orderedEndBlocks[i];\n                    _total = IIStake1Vault(vault).stakeEndBlockTotal(_end);\n\n                    if (_start > _end) {\n\n                    } else if (endR <= _end) {\n                        reward +=\n                            (blockTotalReward *\n                                (endR - startR) * amount) /\n                            _total;\n                        break;\n                    } else {\n                        reward +=\n                            (blockTotalReward *\n                                (_end - startR) *\n                                amount) /\n                            _total;\n                        startR = _end;\n                    }\n                }\n            }\n        }\n        return (reward, startR, endR, blockTotalReward);\n    }\n    */\n}\n",
  "sourcePath": "/Users/zena/ico2.0/ico20-contracts/contracts/stake/StakeTON.sol",
  "compiler": {
    "name": "solc",
    "version": "0.7.6+commit.7338295f.Emscripten.clang"
  },
  "schemaVersion": "3.3.4",
  "updatedAt": "2021-06-21T02:58:01.313Z",
  "devdoc": {
    "events": {
      "Claimed(address,uint256,uint256)": {
        "details": "event on claim",
        "params": {
          "amount": "the amount of claim",
          "claimBlock": "the block of claim",
          "to": "the sender"
        }
      },
      "Staked(address,uint256)": {
        "details": "event on staking",
        "params": {
          "amount": "the amount of staking",
          "to": "the sender"
        }
      },
      "Withdrawal(address,uint256,uint256)": {
        "details": "event on withdrawal",
        "params": {
          "to": "the sender",
          "tonAmount": "the amount of TON withdrawal",
          "tosAmount": "the amount of TOS withdrawal"
        }
      }
    },
    "kind": "dev",
    "methods": {
      "canRewardAmount(address,uint256)": {
        "details": "Returns the amount that can be rewarded",
        "params": {
          "account": "the account that claimed reward",
          "specificBlock": "the block that claimed reward"
        },
        "returns": {
          "_0": "reward the reward amount that can be taken"
        }
      },
      "checkTokamak()": {
        "details": "If the tokamak addresses is not set, set the addresses."
      },
      "claim()": {
        "details": "Claim for reward"
      },
      "constructor": {
        "details": "constructor of StakeTON"
      },
      "exchangeWTONtoTOS(uint256,uint256,uint256,uint160,uint256)": {
        "details": "exchange holded WTON to TOS using uniswap",
        "params": {
          "_amountOutMinimum": "the minimun output amount",
          "_deadline": "deadline",
          "_kind": "the function type, if 0, use exactInputSingle function, else if, use exactInput function",
          "_sqrtPriceLimitX96": "sqrtPriceLimitX96"
        },
        "returns": {
          "amountOut": "the amount of exchanged out token"
        }
      },
      "exchangeWTONtoTOSv2(uint256,uint256,uint256,uint256)": {
        "details": "exchange holded WTON to TOS using uniswap-v2",
        "params": {
          "_amountIn": "the input amount",
          "_amountOutMinimum": "the minimun output amount",
          "_deadline": "deadline",
          "_kind": "the function type, if 0, use exactInputSingle function, else if, use exactInput function"
        }
      },
      "getRoleAdmin(bytes32)": {
        "details": "Returns the admin role that controls `role`. See {grantRole} and {revokeRole}. To change a role's admin, use {_setRoleAdmin}."
      },
      "getRoleMember(bytes32,uint256)": {
        "details": "Returns one of the accounts that have `role`. `index` must be a value between 0 and {getRoleMemberCount}, non-inclusive. Role bearers are not sorted in any particular way, and their ordering may change at any point. WARNING: When using {getRoleMember} and {getRoleMemberCount}, make sure you perform all queries on the same block. See the following https://forum.openzeppelin.com/t/iterating-over-elements-on-enumerableset-in-openzeppelin-contracts/2296[forum post] for more information."
      },
      "getRoleMemberCount(bytes32)": {
        "details": "Returns the number of accounts that have `role`. Can be used together with {getRoleMember} to enumerate all bearers of a role."
      },
      "getUniswapInfo()": {
        "details": "get the addresses that used in uniswap interfaces",
        "returns": {
          "ext": "the address of ext",
          "fee": "the amount of fee",
          "npm": "the address of positionManagerAddress",
          "uniswapRouter": "the address of uniswapRouter"
        }
      },
      "getUserStaked(address)": {
        "details": "user's staked information"
      },
      "grantRole(bytes32,address)": {
        "details": "Grants `role` to `account`. If `account` had not been already granted `role`, emits a {RoleGranted} event. Requirements: - the caller must have ``role``'s admin role."
      },
      "hasRole(bytes32,address)": {
        "details": "Returns `true` if `account` has been granted `role`."
      },
      "infos()": {
        "details": "Give the infomation of this stakeContracts",
        "returns": {
          "_0": "paytoken, vault, [saleStartBlock, startBlock, endBlock], rewardClaimedTotal, totalStakedAmount, totalStakers"
        }
      },
      "renounceRole(bytes32,address)": {
        "details": "Revokes `role` from the calling account. Roles are often managed via {grantRole} and {revokeRole}: this function's purpose is to provide a mechanism for accounts to lose their privileges if they are compromised (such as when a trusted device is misplaced). If the calling account had been granted `role`, emits a {RoleRevoked} event. Requirements: - the caller must be `account`."
      },
      "revokeRole(bytes32,address)": {
        "details": "Revokes `role` from `account`. If `account` had been granted `role`, emits a {RoleRevoked} event. Requirements: - the caller must have ``role``'s admin role."
      },
      "setRegistry(address)": {
        "details": "set registry address",
        "params": {
          "_registry": "new registry address"
        }
      },
      "setTokamakLayer2(address)": {
        "details": "set the tokamak Layer2 address",
        "params": {
          "_layer2": "new the tokamak Layer2 address"
        }
      },
      "swapTONtoWTON(uint256,bool)": {
        "details": "Change the TON holded in contract have to WTON, or change WTON to TON.",
        "params": {
          "amount": "the amount to be changed",
          "toWTON": "if it's true, TON->WTON , else WTON->TON"
        }
      },
      "tokamakProcessUnStaking(address)": {
        "details": "process unstaking in layer2 in tokamak",
        "params": {
          "_layer2": "the layer2 address in tokamak"
        }
      },
      "tokamakRequestUnStaking(address,uint256)": {
        "details": "request unstaking the wtonAmount in layer2 in tokamak",
        "params": {
          "_layer2": "the layer2 address in tokamak",
          "wtonAmount": "the amount requested to unstaking"
        }
      },
      "tokamakRequestUnStakingAll(address)": {
        "details": "request unstaking the amount of all in layer2 in tokamak",
        "params": {
          "_layer2": "the layer2 address in tokamak"
        }
      },
      "tokamakStaking(address,uint256)": {
        "details": "staking the staked TON in layer2 in tokamak",
        "params": {
          "_layer2": "the layer2 address in tokamak",
          "stakeAmount": "the amount that stake to layer2"
        }
      },
      "transferOwnership(address)": {
        "details": "transfer Ownership",
        "params": {
          "newOwner": "new owner address"
        }
      },
      "withdraw()": {
        "details": "withdraw"
      }
    },
    "title": "Stake Contract",
    "version": 1
  },
  "userdoc": {
    "kind": "user",
    "methods": {
      "exchangeWTONtoTOS(uint256,uint256,uint256,uint160,uint256)": {
        "notice": "@param _amountIn the input amount"
      }
    },
    "notice": "It can be staked in Tokamak. Can be swapped using Uniswap. Stake contracts can interact with the vault to claim tos tokens",
    "version": 1
  }
}