{
  "contractName": "Stake1Proxy",
  "abi": [
    {
      "inputs": [
        {
          "internalType": "address",
          "name": "_logic",
          "type": "address"
        }
      ],
      "stateMutability": "nonpayable",
      "type": "constructor"
    },
    {
      "anonymous": false,
      "inputs": [
        {
          "indexed": true,
          "internalType": "bytes32",
          "name": "role",
          "type": "bytes32"
        },
        {
          "indexed": true,
          "internalType": "bytes32",
          "name": "previousAdminRole",
          "type": "bytes32"
        },
        {
          "indexed": true,
          "internalType": "bytes32",
          "name": "newAdminRole",
          "type": "bytes32"
        }
      ],
      "name": "RoleAdminChanged",
      "type": "event"
    },
    {
      "anonymous": false,
      "inputs": [
        {
          "indexed": true,
          "internalType": "bytes32",
          "name": "role",
          "type": "bytes32"
        },
        {
          "indexed": true,
          "internalType": "address",
          "name": "account",
          "type": "address"
        },
        {
          "indexed": true,
          "internalType": "address",
          "name": "sender",
          "type": "address"
        }
      ],
      "name": "RoleGranted",
      "type": "event"
    },
    {
      "anonymous": false,
      "inputs": [
        {
          "indexed": true,
          "internalType": "bytes32",
          "name": "role",
          "type": "bytes32"
        },
        {
          "indexed": true,
          "internalType": "address",
          "name": "account",
          "type": "address"
        },
        {
          "indexed": true,
          "internalType": "address",
          "name": "sender",
          "type": "address"
        }
      ],
      "name": "RoleRevoked",
      "type": "event"
    },
    {
      "anonymous": false,
      "inputs": [
        {
          "indexed": true,
          "internalType": "address",
          "name": "implementation",
          "type": "address"
        }
      ],
      "name": "Upgraded",
      "type": "event"
    },
    {
      "stateMutability": "payable",
      "type": "fallback"
    },
    {
      "inputs": [],
      "name": "ADMIN_ROLE",
      "outputs": [
        {
          "internalType": "bytes32",
          "name": "",
          "type": "bytes32"
        }
      ],
      "stateMutability": "view",
      "type": "function"
    },
    {
      "inputs": [],
      "name": "DEFAULT_ADMIN_ROLE",
      "outputs": [
        {
          "internalType": "bytes32",
          "name": "",
          "type": "bytes32"
        }
      ],
      "stateMutability": "view",
      "type": "function"
    },
    {
      "inputs": [],
      "name": "depositManager",
      "outputs": [
        {
          "internalType": "address",
          "name": "",
          "type": "address"
        }
      ],
      "stateMutability": "view",
      "type": "function"
    },
    {
      "inputs": [],
      "name": "fld",
      "outputs": [
        {
          "internalType": "address",
          "name": "",
          "type": "address"
        }
      ],
      "stateMutability": "view",
      "type": "function"
    },
    {
      "inputs": [
        {
          "internalType": "bytes32",
          "name": "role",
          "type": "bytes32"
        }
      ],
      "name": "getRoleAdmin",
      "outputs": [
        {
          "internalType": "bytes32",
          "name": "",
          "type": "bytes32"
        }
      ],
      "stateMutability": "view",
      "type": "function"
    },
    {
      "inputs": [
        {
          "internalType": "bytes32",
          "name": "role",
          "type": "bytes32"
        },
        {
          "internalType": "uint256",
          "name": "index",
          "type": "uint256"
        }
      ],
      "name": "getRoleMember",
      "outputs": [
        {
          "internalType": "address",
          "name": "",
          "type": "address"
        }
      ],
      "stateMutability": "view",
      "type": "function"
    },
    {
      "inputs": [
        {
          "internalType": "bytes32",
          "name": "role",
          "type": "bytes32"
        }
      ],
      "name": "getRoleMemberCount",
      "outputs": [
        {
          "internalType": "uint256",
          "name": "",
          "type": "uint256"
        }
      ],
      "stateMutability": "view",
      "type": "function"
    },
    {
      "inputs": [
        {
          "internalType": "bytes32",
          "name": "role",
          "type": "bytes32"
        },
        {
          "internalType": "address",
          "name": "account",
          "type": "address"
        }
      ],
      "name": "grantRole",
      "outputs": [],
      "stateMutability": "nonpayable",
      "type": "function"
    },
    {
      "inputs": [
        {
          "internalType": "bytes32",
          "name": "role",
          "type": "bytes32"
        },
        {
          "internalType": "address",
          "name": "account",
          "type": "address"
        }
      ],
      "name": "hasRole",
      "outputs": [
        {
          "internalType": "bool",
          "name": "",
          "type": "bool"
        }
      ],
      "stateMutability": "view",
      "type": "function"
    },
    {
      "inputs": [],
      "name": "pauseProxy",
      "outputs": [
        {
          "internalType": "bool",
          "name": "",
          "type": "bool"
        }
      ],
      "stateMutability": "view",
      "type": "function"
    },
    {
      "inputs": [
        {
          "internalType": "bytes32",
          "name": "role",
          "type": "bytes32"
        },
        {
          "internalType": "address",
          "name": "account",
          "type": "address"
        }
      ],
      "name": "renounceRole",
      "outputs": [],
      "stateMutability": "nonpayable",
      "type": "function"
    },
    {
      "inputs": [
        {
          "internalType": "bytes32",
          "name": "role",
          "type": "bytes32"
        },
        {
          "internalType": "address",
          "name": "account",
          "type": "address"
        }
      ],
      "name": "revokeRole",
      "outputs": [],
      "stateMutability": "nonpayable",
      "type": "function"
    },
    {
      "inputs": [],
      "name": "seigManager",
      "outputs": [
        {
          "internalType": "address",
          "name": "",
          "type": "address"
        }
      ],
      "stateMutability": "view",
      "type": "function"
    },
    {
      "inputs": [],
      "name": "stakeFactory",
      "outputs": [
        {
          "internalType": "contract IStakeFactory",
          "name": "",
          "type": "address"
        }
      ],
      "stateMutability": "view",
      "type": "function"
    },
    {
      "inputs": [],
      "name": "stakeRegistry",
      "outputs": [
        {
          "internalType": "contract IStakeRegistry",
          "name": "",
          "type": "address"
        }
      ],
      "stateMutability": "view",
      "type": "function"
    },
    {
      "inputs": [],
      "name": "stakeVaultFactory",
      "outputs": [
        {
          "internalType": "contract IStakeVaultFactory",
          "name": "",
          "type": "address"
        }
      ],
      "stateMutability": "view",
      "type": "function"
    },
    {
      "inputs": [],
      "name": "ton",
      "outputs": [
        {
          "internalType": "address",
          "name": "",
          "type": "address"
        }
      ],
      "stateMutability": "view",
      "type": "function"
    },
    {
      "inputs": [],
      "name": "wton",
      "outputs": [
        {
          "internalType": "address",
          "name": "",
          "type": "address"
        }
      ],
      "stateMutability": "view",
      "type": "function"
    },
    {
      "stateMutability": "payable",
      "type": "receive"
    },
    {
      "inputs": [
        {
          "internalType": "address",
          "name": "newOwner",
          "type": "address"
        }
      ],
      "name": "transferOwnership",
      "outputs": [],
      "stateMutability": "nonpayable",
      "type": "function"
    },
    {
      "inputs": [
        {
          "internalType": "bool",
          "name": "_pause",
          "type": "bool"
        }
      ],
      "name": "setProxyPause",
      "outputs": [],
      "stateMutability": "nonpayable",
      "type": "function"
    },
    {
      "inputs": [
        {
          "internalType": "address",
          "name": "impl",
          "type": "address"
        }
      ],
      "name": "upgradeTo",
      "outputs": [],
      "stateMutability": "nonpayable",
      "type": "function"
    },
    {
      "inputs": [],
      "name": "implementation",
      "outputs": [
        {
          "internalType": "address",
          "name": "",
          "type": "address"
        }
      ],
      "stateMutability": "view",
      "type": "function"
    }
  ],
  "bytecode": "0x60806040523480156200001157600080fd5b506040516200106c3803806200106c833981810160405260208110156200003757600080fd5b50516001600160a01b03811662000095576040805162461bcd60e51b815260206004820152601a60248201527f5374616b653150726f78793a206c6f676963206973207a65726f000000000000604482015290519081900360640190fd5b600980546001600160a01b0319166001600160a01b038316179055620000cb6000805160206200104c8339815191528062000108565b620000e66000805160206200104c833981519152336200015a565b620001016000805160206200104c833981519152306200015a565b5062000270565b600082815260086020526040808220600201549051839285917fbd79b86ffe0ab8e8776151514217cd7cacd52c909f66475c3af44e129f0b00ff9190a460009182526008602052604090912060020155565b6200016682826200016a565b5050565b60008281526008602090815260409091206200019191839062000a0a620001e5821b17901c565b156200016657620001a162000205565b6001600160a01b0316816001600160a01b0316837f2f8788117e7eff1d82e926ec794901d17c78024a50270940304540a733656f0d60405160405180910390a45050565b6000620001fc836001600160a01b03841662000209565b90505b92915050565b3390565b600062000217838362000258565b6200024f57508154600181810184556000848152602080822090930184905584548482528286019093526040902091909155620001ff565b506000620001ff565b60009081526001919091016020526040902054151590565b610dcc80620002806000396000f3fe6080604052600436106101395760003560e01c806375b238fc116100ab578063a217fddf1161006f578063a217fddf146103b3578063ca15c873146103c8578063cc48b947146103f2578063d547741f14610407578063dd196f1814610440578063f2fde38b1461045557610148565b806375b238fc146102f45780637cb00d25146103095780638d62d949146103355780639010d07c1461034a57806391d148541461037a57610148565b80635c60da1b116100fd5780635c60da1b1461026257806363a8fd891461027757806368304835146102a05780636af8da27146102b55780636c7ac9d8146102ca5780636fb7f558146102df57610148565b8063248a9ca3146101505780632f2ff15d1461018c57806333bd2a49146101c557806336568abe146101f65780633659cfe61461022f57610148565b3661014857610146610488565b005b610146610488565b34801561015c57600080fd5b5061017a6004803603602081101561017357600080fd5b5035610524565b60408051918252519081900360200190f35b34801561019857600080fd5b50610146600480360360408110156101af57600080fd5b50803590602001356001600160a01b0316610539565b3480156101d157600080fd5b506101da6105a5565b604080516001600160a01b039092168252519081900360200190f35b34801561020257600080fd5b506101466004803603604081101561021957600080fd5b50803590602001356001600160a01b03166105b4565b34801561023b57600080fd5b506101466004803603602081101561025257600080fd5b50356001600160a01b0316610615565b34801561026e57600080fd5b506101da610757565b34801561028357600080fd5b5061028c610766565b604080519115158252519081900360200190f35b3480156102ac57600080fd5b506101da610776565b3480156102c157600080fd5b506101da610785565b3480156102d657600080fd5b506101da610794565b3480156102eb57600080fd5b506101da6107a3565b34801561030057600080fd5b5061017a6107b2565b34801561031557600080fd5b506101466004803603602081101561032c57600080fd5b503515156107c4565b34801561034157600080fd5b506101da610843565b34801561035657600080fd5b506101da6004803603604081101561036d57600080fd5b5080359060200135610852565b34801561038657600080fd5b5061028c6004803603604081101561039d57600080fd5b50803590602001356001600160a01b0316610873565b3480156103bf57600080fd5b5061017a61088b565b3480156103d457600080fd5b5061017a600480360360208110156103eb57600080fd5b5035610890565b3480156103fe57600080fd5b506101da6108a7565b34801561041357600080fd5b506101466004803603604081101561042a57600080fd5b50803590602001356001600160a01b03166108b6565b34801561044c57600080fd5b506101da61090f565b34801561046157600080fd5b506101466004803603602081101561047857600080fd5b50356001600160a01b031661091e565b6000610492610757565b90506001600160a01b038116158015906104b65750600954600160a01b900460ff16155b610500576040805162461bcd60e51b8152602060048201526016602482015275696d706c204f522070726f78792069732066616c736560501b604482015290519081900360640190fd5b3660008037600080366000845af43d6000803e80801561051f573d6000f35b3d6000fd5b60009081526008602052604090206002015490565b60008281526008602052604090206002015461055c90610557610a1f565b610873565b6105975760405162461bcd60e51b815260040180806020018281038252602f815260200180610ce9602f913960400191505060405180910390fd5b6105a18282610a23565b5050565b6003546001600160a01b031681565b6105bc610a1f565b6001600160a01b0316816001600160a01b03161461060b5760405162461bcd60e51b815260040180806020018281038252602f815260200180610d68602f913960400191505060405180910390fd5b6105a18282610a8c565b61062d600080516020610d4883398151915233610873565b610676576040805162461bcd60e51b815260206004820152601560248201527429ba30b5b298a83937bc3c9d1037379030b236b4b760591b604482015290519081900360640190fd5b6001600160a01b0381166106c1576040805162461bcd60e51b815260206004820152600d60248201526c696e707574206973207a65726f60981b604482015290519081900360640190fd5b6009546001600160a01b038281169116141561070d576040805162461bcd60e51b8152602060048083019190915260248201526373616d6560e01b604482015290519081900360640190fd5b600980546001600160a01b0319166001600160a01b0383169081179091556040517fbc7cd75a20ee27fd9adebab32041f755214dbc6bffa90cc0225b39da2e5c2d3b90600090a250565b6009546001600160a01b031690565b600954600160a01b900460ff1681565b6000546001600160a01b031681565b6002546001600160a01b031681565b6006546001600160a01b031681565b6007546001600160a01b031681565b600080516020610d4883398151915281565b6107dc600080516020610d4883398151915233610873565b610825576040805162461bcd60e51b815260206004820152601560248201527429ba30b5b298a83937bc3c9d1037379030b236b4b760591b604482015290519081900360640190fd5b60098054911515600160a01b0260ff60a01b19909216919091179055565b6005546001600160a01b031681565b600082815260086020526040812061086a9083610af5565b90505b92915050565b600082815260086020526040812061086a9083610b01565b600081565b600081815260086020526040812061086d90610b16565b6004546001600160a01b031681565b6000828152600860205260409020600201546108d490610557610a1f565b61060b5760405162461bcd60e51b8152600401808060200182810382526030815260200180610d186030913960400191505060405180910390fd5b6001546001600160a01b031681565b610936600080516020610d4883398151915233610873565b61097f576040805162461bcd60e51b815260206004820152601560248201527429ba30b5b298a83937bc3c9d1037379030b236b4b760591b604482015290519081900360640190fd5b336001600160a01b03821614156109d7576040805162461bcd60e51b815260206004820152601760248201527629ba30b5b298a83937bc3c9d1039b0b6b29037bbb732b960491b604482015290519081900360640190fd5b6109ef600080516020610d4883398151915282610539565b610a07600080516020610d48833981519152336108b6565b50565b600061086a836001600160a01b038416610b21565b3390565b6000828152600860205260409020610a3b9082610a0a565b156105a157610a48610a1f565b6001600160a01b0316816001600160a01b0316837f2f8788117e7eff1d82e926ec794901d17c78024a50270940304540a733656f0d60405160405180910390a45050565b6000828152600860205260409020610aa49082610b6b565b156105a157610ab1610a1f565b6001600160a01b0316816001600160a01b0316837ff6391f5c32d9c69d2a47ea670b442974b53935d1edc7fd64eb21e047a839171b60405160405180910390a45050565b600061086a8383610b80565b600061086a836001600160a01b038416610be4565b600061086d82610bfc565b6000610b2d8383610be4565b610b635750815460018181018455600084815260208082209093018490558454848252828601909352604090209190915561086d565b50600061086d565b600061086a836001600160a01b038416610c00565b81546000908210610bc25760405162461bcd60e51b8152600401808060200182810382526022815260200180610cc76022913960400191505060405180910390fd5b826000018281548110610bd157fe5b9060005260206000200154905092915050565b60009081526001919091016020526040902054151590565b5490565b60008181526001830160205260408120548015610cbc5783546000198083019190810190600090879083908110610c3357fe5b9060005260206000200154905080876000018481548110610c5057fe5b600091825260208083209091019290925582815260018981019092526040902090840190558654879080610c8057fe5b6001900381819060005260206000200160009055905586600101600087815260200190815260200160002060009055600194505050505061086d565b600091505061086d56fe456e756d657261626c655365743a20696e646578206f7574206f6620626f756e6473416363657373436f6e74726f6c3a2073656e646572206d75737420626520616e2061646d696e20746f206772616e74416363657373436f6e74726f6c3a2073656e646572206d75737420626520616e2061646d696e20746f207265766f6b65df8b4c520ffe197c5343c6f5aec59570151ef9a492f2c624fd45ddde6135ec42416363657373436f6e74726f6c3a2063616e206f6e6c792072656e6f756e636520726f6c657320666f722073656c66a2646970667358221220dbc98467c1b4ec4c30634f453294d30b48e34f1c158220ec97ecedfda14637ec64736f6c63430007060033df8b4c520ffe197c5343c6f5aec59570151ef9a492f2c624fd45ddde6135ec42",
  "immutableReferences": {},
  "source": "// SPDX-License-Identifier: MIT\npragma solidity ^0.7.6;\n\nimport \"../interfaces/IStakeProxy.sol\";\nimport \"@openzeppelin/contracts/access/AccessControl.sol\";\nimport \"./StakeProxyStorage.sol\";\n\n/// @title The proxy of FLD Plaform\n/// @notice Admin can createVault, createStakeContract.\n/// User can excute the tokamak staking function of each contract through this logic.\ncontract Stake1Proxy is StakeProxyStorage, AccessControl, IStakeProxy {\n    bytes32 public constant ADMIN_ROLE = keccak256(\"ADMIN\");\n    address internal _implementation;\n    bool public pauseProxy;\n\n    event Upgraded(address indexed implementation);\n\n    modifier onlyOwner() {\n        require(hasRole(ADMIN_ROLE, msg.sender), \"Stake1Proxy: no admin\");\n        _;\n    }\n\n    /// @dev constructor of Stake1Proxy\n    constructor(address _logic) {\n        require(_logic != address(0), \"Stake1Proxy: logic is zero\");\n        _implementation = _logic;\n        _setRoleAdmin(ADMIN_ROLE, ADMIN_ROLE);\n        _setupRole(ADMIN_ROLE, msg.sender);\n        _setupRole(ADMIN_ROLE, address(this));\n    }\n\n    /// @dev transfer Ownership\n    /// @param newOwner the new owner address\n    function transferOwnership(address newOwner) external onlyOwner {\n        require(msg.sender != newOwner, \"Stake1Proxy: same owner\");\n        grantRole(ADMIN_ROLE, newOwner);\n        revokeRole(ADMIN_ROLE, msg.sender);\n    }\n\n    /// @dev Set pause state\n    /// @param _pause true:pause or false:resume\n    function setProxyPause(bool _pause) external override onlyOwner {\n        pauseProxy = _pause;\n    }\n\n    /// @dev Set implementation contract\n    /// @param impl New implementation contract address\n    function upgradeTo(address impl) external override onlyOwner {\n        require(impl != address(0), \"input is zero\");\n        require(_implementation != impl, \"same\");\n        _implementation = impl;\n        emit Upgraded(impl);\n    }\n\n    /// @dev view implementation address\n    /// @return the logic address\n    function implementation() public view override returns (address) {\n        return _implementation;\n    }\n\n    /// @dev receive ether\n    receive() external payable {\n        _fallback();\n    }\n\n    /// @dev fallback function , execute on undefined function call\n    fallback() external payable {\n        _fallback();\n    }\n\n    /// @dev fallback function , execute on undefined function call\n    function _fallback() internal {\n        address _impl = implementation();\n        require(_impl != address(0) && !pauseProxy, \"impl OR proxy is false\");\n\n        assembly {\n            // Copy msg.data. We take full control of memory in this inline assembly\n            // block because it will not return to Solidity code. We overwrite the\n            // Solidity scratch pad at memory position 0.\n            calldatacopy(0, 0, calldatasize())\n\n            // Call the implementation.\n            // out and outsize are 0 because we don't know the size yet.\n            let result := delegatecall(gas(), _impl, 0, calldatasize(), 0, 0)\n\n            // Copy the returned data.\n            returndatacopy(0, 0, returndatasize())\n\n            switch result\n                // delegatecall returns 0 on error.\n                case 0 {\n                    revert(0, returndatasize())\n                }\n                default {\n                    return(0, returndatasize())\n                }\n        }\n    }\n}\n",
  "sourcePath": "/Users/zena/ico2.0/ico20-contracts/contracts/stake/Stake1Proxy.sol",
  "compiler": {
    "name": "solc",
    "version": "0.7.6+commit.7338295f.Emscripten.clang"
  },
  "schemaVersion": "3.3.4",
  "updatedAt": "2021-06-04T14:37:17.908Z",
  "devdoc": {
    "kind": "dev",
    "methods": {
      "constructor": {
        "details": "constructor of Stake1Proxy"
      },
      "getRoleAdmin(bytes32)": {
        "details": "Returns the admin role that controls `role`. See {grantRole} and {revokeRole}. To change a role's admin, use {_setRoleAdmin}."
      },
      "getRoleMember(bytes32,uint256)": {
        "details": "Returns one of the accounts that have `role`. `index` must be a value between 0 and {getRoleMemberCount}, non-inclusive. Role bearers are not sorted in any particular way, and their ordering may change at any point. WARNING: When using {getRoleMember} and {getRoleMemberCount}, make sure you perform all queries on the same block. See the following https://forum.openzeppelin.com/t/iterating-over-elements-on-enumerableset-in-openzeppelin-contracts/2296[forum post] for more information."
      },
      "getRoleMemberCount(bytes32)": {
        "details": "Returns the number of accounts that have `role`. Can be used together with {getRoleMember} to enumerate all bearers of a role."
      },
      "grantRole(bytes32,address)": {
        "details": "Grants `role` to `account`. If `account` had not been already granted `role`, emits a {RoleGranted} event. Requirements: - the caller must have ``role``'s admin role."
      },
      "hasRole(bytes32,address)": {
        "details": "Returns `true` if `account` has been granted `role`."
      },
      "implementation()": {
        "details": "view implementation address",
        "returns": {
          "_0": "the logic address"
        }
      },
      "renounceRole(bytes32,address)": {
        "details": "Revokes `role` from the calling account. Roles are often managed via {grantRole} and {revokeRole}: this function's purpose is to provide a mechanism for accounts to lose their privileges if they are compromised (such as when a trusted device is misplaced). If the calling account had been granted `role`, emits a {RoleRevoked} event. Requirements: - the caller must be `account`."
      },
      "revokeRole(bytes32,address)": {
        "details": "Revokes `role` from `account`. If `account` had been granted `role`, emits a {RoleRevoked} event. Requirements: - the caller must have ``role``'s admin role."
      },
      "setProxyPause(bool)": {
        "details": "Set pause state",
        "params": {
          "_pause": "true:pause or false:resume"
        }
      },
      "transferOwnership(address)": {
        "details": "transfer Ownership",
        "params": {
          "newOwner": "the new owner address"
        }
      },
      "upgradeTo(address)": {
        "details": "Set implementation contract",
        "params": {
          "impl": "New implementation contract address"
        }
      }
    },
    "title": "The proxy of FLD Plaform",
    "version": 1
  },
  "userdoc": {
    "kind": "user",
    "methods": {},
    "notice": "Admin can createVault, createStakeContract. User can excute the tokamak staking function of each contract through this logic.",
    "version": 1
  }
}