{
  "contractName": "StakeFactory",
  "abi": [
    {
      "inputs": [
        {
          "internalType": "address",
          "name": "_stakeTONFactory",
          "type": "address"
        },
        {
          "internalType": "address",
          "name": "_stableFactory",
          "type": "address"
        }
      ],
      "stateMutability": "nonpayable",
      "type": "constructor"
    },
    {
      "inputs": [],
      "name": "ADMIN_ROLE",
      "outputs": [
        {
          "internalType": "bytes32",
          "name": "",
          "type": "bytes32"
        }
      ],
      "stateMutability": "view",
      "type": "function"
    },
    {
      "inputs": [],
      "name": "stakeStableCoinFactory",
      "outputs": [
        {
          "internalType": "address",
          "name": "",
          "type": "address"
        }
      ],
      "stateMutability": "view",
      "type": "function"
    },
    {
      "inputs": [],
      "name": "stakeTONFactory",
      "outputs": [
        {
          "internalType": "address",
          "name": "",
          "type": "address"
        }
      ],
      "stateMutability": "view",
      "type": "function"
    },
    {
      "inputs": [
        {
          "internalType": "uint256",
          "name": "_pahse",
          "type": "uint256"
        },
        {
          "internalType": "address",
          "name": "_vault",
          "type": "address"
        },
        {
          "internalType": "address",
          "name": "_token",
          "type": "address"
        },
        {
          "internalType": "address",
          "name": "_paytoken",
          "type": "address"
        },
        {
          "internalType": "uint256",
          "name": "_period",
          "type": "uint256"
        },
        {
          "internalType": "address[4]",
          "name": "tokamakAddr",
          "type": "address[4]"
        }
      ],
      "name": "deploy",
      "outputs": [
        {
          "internalType": "address",
          "name": "",
          "type": "address"
        }
      ],
      "stateMutability": "nonpayable",
      "type": "function"
    }
  ],
  "bytecode": "0x608060405234801561001057600080fd5b506040516106fc3803806106fc8339818101604052604081101561003357600080fd5b5080516020909101516001600160a01b0382161580159061005c57506001600160a01b03811615155b6100ad576040805162461bcd60e51b815260206004820152601760248201527f5374616b65466163746f72793a20696e6974206661696c000000000000000000604482015290519081900360640190fd5b600080546001600160a01b039384166001600160a01b03199182161790915560018054929093169116179055610614806100e86000396000f3fe608060405234801561001057600080fd5b506004361061004c5760003560e01c8063179fda2f1461005157806375b238fc146100755780639c3a3aae1461008f578063ccd9bb861461010b575b600080fd5b610059610113565b604080516001600160a01b039092168252519081900360200190f35b61007d610122565b60408051918252519081900360200190f35b61005960048036036101208110156100a657600080fd5b60408051608081810183528435946001600160a01b03602082013581169594820135811694606083013590911693838301359391830192916101208301919060a084019060049083908390808284376000920191909152509194506101469350505050565b610059610584565b6000546001600160a01b031681565b7fdf8b4c520ffe197c5343c6f5aec59570151ef9a492f2c624fd45ddde6135ec4281565b60006001600160a01b0386166101a3576040805162461bcd60e51b815260206004820152601e60248201527f5374616b65466163746f72793a206465706c6f7920696e6974206661696c0000604482015290519081900360640190fd5b60008690506000816001600160a01b031663200272756040518163ffffffff1660e01b815260040160206040518083038186803b1580156101e357600080fd5b505afa1580156101f7573d6000803e3d6000fd5b505050506040513d602081101561020d57600080fd5b505160408051634b5e7cd560e01b815290519192506000916001600160a01b03851691634b5e7cd5916004808301926020929190829003018186803b15801561025557600080fd5b505afa158015610269573d6000803e3d6000fd5b505050506040513d602081101561027f57600080fd5b50516040805163b97af0db60e01b815290519192506000916001600160a01b0386169163b97af0db916004808301926020929190829003018186803b1580156102c757600080fd5b505afa1580156102db573d6000803e3d6000fd5b505050506040513d60208110156102f157600080fd5b5051905081831080156103045750600082115b610355576040805162461bcd60e51b815260206004820152601960248201527f5374616b65466163746f72793a207374617274206572726f7200000000000000604482015290519081900360640190fd5b600181116104ae576000546001600160a01b03166103a45760405162461bcd60e51b81526004018080602001828103825260228152602001806105bd6022913960400191505060405180910390fd5b60008054906101000a90046001600160a01b03166001600160a01b031663267c1a818c8c8c8c8c8c336040518863ffffffff1660e01b815260040180888152602001876001600160a01b03168152602001866001600160a01b03168152602001856001600160a01b0316815260200184815260200183600460200280838360005b8381101561043d578181015183820152602001610425565b50505050905001826001600160a01b03168152602001975050505050505050602060405180830381600087803b15801561047657600080fd5b505af115801561048a573d6000803e3d6000fd5b505050506040513d60208110156104a057600080fd5b5051945061057a9350505050565b8060021415610571576001546001600160a01b03166104fe5760405162461bcd60e51b81526004018080602001828103825260298152602001806105946029913960400191505060405180910390fd5b6001546040805163313f709360e21b8152600481018e90526001600160a01b038d811660248301528c811660448301528b81166064830152608482018b90523360a48301529151919092169163c4fdc24c9160c48083019260209291908290030181600087803b15801561047657600080fd5b60009450505050505b9695505050505050565b6001546001600160a01b03168156fe5374616b65466163746f72793a207374616b65537461626c65436f696e466163746f7279207a65726f5374616b65466163746f72793a207374616b65544f4e466163746f7279207a65726fa2646970667358221220ca84c8ec83a00e659e75306d8d6a16cf373c0e8b8a42d21a092def80a5aa972364736f6c63430007060033",
  "immutableReferences": {},
  "source": "// SPDX-License-Identifier: MIT\npragma solidity ^0.7.6;\n\nimport {IStakeTONFactory} from \"../interfaces/IStakeTONFactory.sol\";\nimport {\n    IStakeForStableCoinFactory\n} from \"../interfaces/IStakeForStableCoinFactory.sol\";\nimport {IStake1Vault} from \"../interfaces/IStake1Vault.sol\";\n\ncontract StakeFactory {\n    bytes32 public constant ADMIN_ROLE = keccak256(\"ADMIN\");\n\n    address public stakeTONFactory;\n    address public stakeStableCoinFactory;\n\n    constructor(address _stakeTONFactory, address _stableFactory) {\n        require(\n            _stakeTONFactory != address(0) && _stableFactory != address(0),\n            \"StakeFactory: init fail\"\n        );\n        stakeTONFactory = _stakeTONFactory;\n        stakeStableCoinFactory = _stableFactory;\n    }\n\n    function deploy(\n        uint256 _pahse,\n        address _vault,\n        address _token,\n        address _paytoken,\n        uint256 _period,\n        address[4] memory tokamakAddr\n    ) public returns (address) {\n        require(_vault != address(0), \"StakeFactory: deploy init fail\");\n\n        IStake1Vault vault = IStake1Vault(_vault);\n        uint256 saleStart = vault.saleStartBlock();\n        uint256 stakeStart = vault.stakeStartBlock();\n        uint256 stakeType = vault.stakeType();\n\n        require(\n            saleStart < stakeStart && stakeStart > 0,\n            \"StakeFactory: start error\"\n        );\n\n        if (stakeType <= 1) {\n            require(\n                stakeTONFactory != address(0),\n                \"StakeFactory: stakeTONFactory zero\"\n            );\n\n            return\n                IStakeTONFactory(stakeTONFactory).deploy(\n                    _pahse,\n                    _vault,\n                    _token,\n                    _paytoken,\n                    _period,\n                    tokamakAddr,\n                    msg.sender\n                );\n        } else if (stakeType == 2) {\n            require(\n                stakeStableCoinFactory != address(0),\n                \"StakeFactory: stakeStableCoinFactory zero\"\n            );\n\n            return\n                IStakeForStableCoinFactory(stakeStableCoinFactory).deploy(\n                    _pahse,\n                    _vault,\n                    _token,\n                    _paytoken,\n                    _period,\n                    msg.sender\n                );\n        }\n\n        return address(0);\n    }\n}\n",
  "sourcePath": "/Users/zena/ico2.0/ico20-contracts/contracts/factory/StakeFactory.sol",
  "compiler": {
    "name": "solc",
    "version": "0.7.6+commit.7338295f.Emscripten.clang"
  },
  "schemaVersion": "3.3.4",
  "updatedAt": "2021-05-14T04:12:03.400Z",
  "devdoc": {
    "kind": "dev",
    "methods": {},
    "version": 1
  },
  "userdoc": {
    "kind": "user",
    "methods": {},
    "version": 1
  }
}