{
  "contractName": "StakeSimple",
  "abi": [
    {
      "inputs": [],
      "stateMutability": "nonpayable",
      "type": "constructor"
    },
    {
      "anonymous": false,
      "inputs": [
        {
          "indexed": true,
          "internalType": "address",
          "name": "to",
          "type": "address"
        },
        {
          "indexed": false,
          "internalType": "uint256",
          "name": "amount",
          "type": "uint256"
        },
        {
          "indexed": false,
          "internalType": "uint256",
          "name": "claimBlock",
          "type": "uint256"
        }
      ],
      "name": "Claimed",
      "type": "event"
    },
    {
      "anonymous": false,
      "inputs": [
        {
          "indexed": true,
          "internalType": "bytes32",
          "name": "role",
          "type": "bytes32"
        },
        {
          "indexed": true,
          "internalType": "bytes32",
          "name": "previousAdminRole",
          "type": "bytes32"
        },
        {
          "indexed": true,
          "internalType": "bytes32",
          "name": "newAdminRole",
          "type": "bytes32"
        }
      ],
      "name": "RoleAdminChanged",
      "type": "event"
    },
    {
      "anonymous": false,
      "inputs": [
        {
          "indexed": true,
          "internalType": "bytes32",
          "name": "role",
          "type": "bytes32"
        },
        {
          "indexed": true,
          "internalType": "address",
          "name": "account",
          "type": "address"
        },
        {
          "indexed": true,
          "internalType": "address",
          "name": "sender",
          "type": "address"
        }
      ],
      "name": "RoleGranted",
      "type": "event"
    },
    {
      "anonymous": false,
      "inputs": [
        {
          "indexed": true,
          "internalType": "bytes32",
          "name": "role",
          "type": "bytes32"
        },
        {
          "indexed": true,
          "internalType": "address",
          "name": "account",
          "type": "address"
        },
        {
          "indexed": true,
          "internalType": "address",
          "name": "sender",
          "type": "address"
        }
      ],
      "name": "RoleRevoked",
      "type": "event"
    },
    {
      "anonymous": false,
      "inputs": [
        {
          "indexed": true,
          "internalType": "address",
          "name": "to",
          "type": "address"
        },
        {
          "indexed": false,
          "internalType": "uint256",
          "name": "amount",
          "type": "uint256"
        }
      ],
      "name": "Staked",
      "type": "event"
    },
    {
      "anonymous": false,
      "inputs": [
        {
          "indexed": true,
          "internalType": "address",
          "name": "to",
          "type": "address"
        },
        {
          "indexed": false,
          "internalType": "uint256",
          "name": "amount",
          "type": "uint256"
        }
      ],
      "name": "Withdrawal",
      "type": "event"
    },
    {
      "inputs": [],
      "name": "ADMIN_ROLE",
      "outputs": [
        {
          "internalType": "bytes32",
          "name": "",
          "type": "bytes32"
        }
      ],
      "stateMutability": "view",
      "type": "function"
    },
    {
      "inputs": [],
      "name": "DEFAULT_ADMIN_ROLE",
      "outputs": [
        {
          "internalType": "bytes32",
          "name": "",
          "type": "bytes32"
        }
      ],
      "stateMutability": "view",
      "type": "function"
    },
    {
      "inputs": [],
      "name": "endBlock",
      "outputs": [
        {
          "internalType": "uint256",
          "name": "",
          "type": "uint256"
        }
      ],
      "stateMutability": "view",
      "type": "function"
    },
    {
      "inputs": [
        {
          "internalType": "bytes32",
          "name": "role",
          "type": "bytes32"
        }
      ],
      "name": "getRoleAdmin",
      "outputs": [
        {
          "internalType": "bytes32",
          "name": "",
          "type": "bytes32"
        }
      ],
      "stateMutability": "view",
      "type": "function"
    },
    {
      "inputs": [
        {
          "internalType": "bytes32",
          "name": "role",
          "type": "bytes32"
        },
        {
          "internalType": "uint256",
          "name": "index",
          "type": "uint256"
        }
      ],
      "name": "getRoleMember",
      "outputs": [
        {
          "internalType": "address",
          "name": "",
          "type": "address"
        }
      ],
      "stateMutability": "view",
      "type": "function"
    },
    {
      "inputs": [
        {
          "internalType": "bytes32",
          "name": "role",
          "type": "bytes32"
        }
      ],
      "name": "getRoleMemberCount",
      "outputs": [
        {
          "internalType": "uint256",
          "name": "",
          "type": "uint256"
        }
      ],
      "stateMutability": "view",
      "type": "function"
    },
    {
      "inputs": [
        {
          "internalType": "address",
          "name": "user",
          "type": "address"
        }
      ],
      "name": "getUserStaked",
      "outputs": [
        {
          "internalType": "uint256",
          "name": "amount",
          "type": "uint256"
        },
        {
          "internalType": "uint256",
          "name": "claimedBlock",
          "type": "uint256"
        },
        {
          "internalType": "uint256",
          "name": "claimedAmount",
          "type": "uint256"
        },
        {
          "internalType": "uint256",
          "name": "releasedBlock",
          "type": "uint256"
        },
        {
          "internalType": "uint256",
          "name": "releasedAmount",
          "type": "uint256"
        },
        {
          "internalType": "uint256",
          "name": "releasedFLDAmount",
          "type": "uint256"
        },
        {
          "internalType": "bool",
          "name": "released",
          "type": "bool"
        }
      ],
      "stateMutability": "view",
      "type": "function"
    },
    {
      "inputs": [
        {
          "internalType": "bytes32",
          "name": "role",
          "type": "bytes32"
        },
        {
          "internalType": "address",
          "name": "account",
          "type": "address"
        }
      ],
      "name": "grantRole",
      "outputs": [],
      "stateMutability": "nonpayable",
      "type": "function"
    },
    {
      "inputs": [
        {
          "internalType": "bytes32",
          "name": "role",
          "type": "bytes32"
        },
        {
          "internalType": "address",
          "name": "account",
          "type": "address"
        }
      ],
      "name": "hasRole",
      "outputs": [
        {
          "internalType": "bool",
          "name": "",
          "type": "bool"
        }
      ],
      "stateMutability": "view",
      "type": "function"
    },
    {
      "inputs": [],
      "name": "paytoken",
      "outputs": [
        {
          "internalType": "address",
          "name": "",
          "type": "address"
        }
      ],
      "stateMutability": "view",
      "type": "function"
    },
    {
      "inputs": [
        {
          "internalType": "bytes32",
          "name": "role",
          "type": "bytes32"
        },
        {
          "internalType": "address",
          "name": "account",
          "type": "address"
        }
      ],
      "name": "renounceRole",
      "outputs": [],
      "stateMutability": "nonpayable",
      "type": "function"
    },
    {
      "inputs": [
        {
          "internalType": "bytes32",
          "name": "role",
          "type": "bytes32"
        },
        {
          "internalType": "address",
          "name": "account",
          "type": "address"
        }
      ],
      "name": "revokeRole",
      "outputs": [],
      "stateMutability": "nonpayable",
      "type": "function"
    },
    {
      "inputs": [],
      "name": "rewardClaimedTotal",
      "outputs": [
        {
          "internalType": "uint256",
          "name": "",
          "type": "uint256"
        }
      ],
      "stateMutability": "view",
      "type": "function"
    },
    {
      "inputs": [],
      "name": "saleStartBlock",
      "outputs": [
        {
          "internalType": "uint256",
          "name": "",
          "type": "uint256"
        }
      ],
      "stateMutability": "view",
      "type": "function"
    },
    {
      "inputs": [],
      "name": "stakeRegistry",
      "outputs": [
        {
          "internalType": "address",
          "name": "",
          "type": "address"
        }
      ],
      "stateMutability": "view",
      "type": "function"
    },
    {
      "inputs": [],
      "name": "startBlock",
      "outputs": [
        {
          "internalType": "uint256",
          "name": "",
          "type": "uint256"
        }
      ],
      "stateMutability": "view",
      "type": "function"
    },
    {
      "inputs": [],
      "name": "token",
      "outputs": [
        {
          "internalType": "address",
          "name": "",
          "type": "address"
        }
      ],
      "stateMutability": "view",
      "type": "function"
    },
    {
      "inputs": [],
      "name": "totalStakedAmount",
      "outputs": [
        {
          "internalType": "uint256",
          "name": "",
          "type": "uint256"
        }
      ],
      "stateMutability": "view",
      "type": "function"
    },
    {
      "inputs": [],
      "name": "totalStakers",
      "outputs": [
        {
          "internalType": "uint256",
          "name": "",
          "type": "uint256"
        }
      ],
      "stateMutability": "view",
      "type": "function"
    },
    {
      "inputs": [
        {
          "internalType": "address",
          "name": "",
          "type": "address"
        }
      ],
      "name": "userStaked",
      "outputs": [
        {
          "internalType": "uint256",
          "name": "amount",
          "type": "uint256"
        },
        {
          "internalType": "uint256",
          "name": "claimedBlock",
          "type": "uint256"
        },
        {
          "internalType": "uint256",
          "name": "claimedAmount",
          "type": "uint256"
        },
        {
          "internalType": "uint256",
          "name": "releasedBlock",
          "type": "uint256"
        },
        {
          "internalType": "uint256",
          "name": "releasedAmount",
          "type": "uint256"
        },
        {
          "internalType": "uint256",
          "name": "releasedFLDAmount",
          "type": "uint256"
        },
        {
          "internalType": "bool",
          "name": "released",
          "type": "bool"
        }
      ],
      "stateMutability": "view",
      "type": "function"
    },
    {
      "inputs": [],
      "name": "vault",
      "outputs": [
        {
          "internalType": "address",
          "name": "",
          "type": "address"
        }
      ],
      "stateMutability": "view",
      "type": "function"
    },
    {
      "stateMutability": "payable",
      "type": "receive"
    },
    {
      "inputs": [
        {
          "internalType": "address",
          "name": "newOwner",
          "type": "address"
        }
      ],
      "name": "transferOwnership",
      "outputs": [],
      "stateMutability": "nonpayable",
      "type": "function"
    },
    {
      "inputs": [
        {
          "internalType": "address",
          "name": "_token",
          "type": "address"
        },
        {
          "internalType": "address",
          "name": "_paytoken",
          "type": "address"
        },
        {
          "internalType": "address",
          "name": "_vault",
          "type": "address"
        },
        {
          "internalType": "uint256",
          "name": "_saleStartBlock",
          "type": "uint256"
        },
        {
          "internalType": "uint256",
          "name": "_startBlock",
          "type": "uint256"
        },
        {
          "internalType": "uint256",
          "name": "_period",
          "type": "uint256"
        }
      ],
      "name": "initialize",
      "outputs": [],
      "stateMutability": "nonpayable",
      "type": "function"
    },
    {
      "inputs": [
        {
          "internalType": "uint256",
          "name": "amount",
          "type": "uint256"
        }
      ],
      "name": "stake",
      "outputs": [],
      "stateMutability": "payable",
      "type": "function"
    },
    {
      "inputs": [],
      "name": "withdraw",
      "outputs": [],
      "stateMutability": "nonpayable",
      "type": "function"
    },
    {
      "inputs": [],
      "name": "claim",
      "outputs": [],
      "stateMutability": "nonpayable",
      "type": "function"
    },
    {
      "inputs": [
        {
          "internalType": "address",
          "name": "account",
          "type": "address"
        },
        {
          "internalType": "uint256",
          "name": "specificBlock",
          "type": "uint256"
        }
      ],
      "name": "canRewardAmount",
      "outputs": [
        {
          "internalType": "uint256",
          "name": "",
          "type": "uint256"
        }
      ],
      "stateMutability": "view",
      "type": "function"
    }
  ],
  "bytecode": "0x60806040523480156200001157600080fd5b506200002d6000805160206200207a833981519152806200004e565b620000486000805160206200207a83398151915233620000a0565b620001b6565b6000828152600c6020526040808220600201549051839285917fbd79b86ffe0ab8e8776151514217cd7cacd52c909f66475c3af44e129f0b00ff9190a46000918252600c602052604090912060020155565b620000ac8282620000b0565b5050565b6000828152600c60209081526040909120620000d79183906200185b6200012b821b17901c565b15620000ac57620000e76200014b565b6001600160a01b0316816001600160a01b0316837f2f8788117e7eff1d82e926ec794901d17c78024a50270940304540a733656f0d60405160405180910390a45050565b600062000142836001600160a01b0384166200014f565b90505b92915050565b3390565b60006200015d83836200019e565b620001955750815460018181018455600084815260208082209093018490558454848252828601909352604090209190915562000145565b50600062000145565b60009081526001919091016020526040902054151590565b611eb480620001c66000396000f3fe6080604052600436106101705760003560e01c806375b238fc116100cc578063b2d4d6a31161007a578063b2d4d6a3146104cb578063ca15c873146104e0578063d547741f1461050a578063dac3fc3f14610543578063f2fde38b14610576578063fbfa77cf146105a9578063fc0c546a146105be57610180565b806375b238fc14610385578063869890381461039a5780639010d07c146103af57806391d14854146103df578063a217fddf1461042c578063a694fc3a14610441578063acc3a9391461045e57610180565b806343b0934a1161012957806343b0934a1461027257806348cd4cb1146102a35780634e71d92d146102b8578063567e98f9146102cd57806367cf3e18146102e2578063683048351461031b578063728cdbca1461033057610180565b8063083c63231461018557806320027275146101ac578063248a9ca3146101c15780632f2ff15d146101eb57806336568abe146102245780633ccfd60b1461025d57610180565b366101805761017e346105d3565b005b600080fd5b34801561019157600080fd5b5061019a610942565b60408051918252519081900360200190f35b3480156101b857600080fd5b5061019a610948565b3480156101cd57600080fd5b5061019a600480360360208110156101e457600080fd5b503561094e565b3480156101f757600080fd5b5061017e6004803603604081101561020e57600080fd5b50803590602001356001600160a01b0316610963565b34801561023057600080fd5b5061017e6004803603604081101561024757600080fd5b50803590602001356001600160a01b03166109cf565b34801561026957600080fd5b5061017e610a30565b34801561027e57600080fd5b50610287610d36565b604080516001600160a01b039092168252519081900360200190f35b3480156102af57600080fd5b5061019a610d45565b3480156102c457600080fd5b5061017e610d4b565b3480156102d957600080fd5b5061019a6110d9565b3480156102ee57600080fd5b5061019a6004803603604081101561030557600080fd5b506001600160a01b0381351690602001356110df565b34801561032757600080fd5b506102876114b5565b34801561033c57600080fd5b5061017e600480360360c081101561035357600080fd5b506001600160a01b03813581169160208101358216916040820135169060608101359060808101359060a001356114c4565b34801561039157600080fd5b5061019a611601565b3480156103a657600080fd5b5061019a611613565b3480156103bb57600080fd5b50610287600480360360408110156103d257600080fd5b5080359060200135611619565b3480156103eb57600080fd5b506104186004803603604081101561040257600080fd5b50803590602001356001600160a01b0316611631565b604080519115158252519081900360200190f35b34801561043857600080fd5b5061019a611649565b61017e6004803603602081101561045757600080fd5b50356105d3565b34801561046a57600080fd5b506104916004803603602081101561048157600080fd5b50356001600160a01b031661164e565b604080519788526020880196909652868601949094526060860192909252608085015260a0840152151560c0830152519081900360e00190f35b3480156104d757600080fd5b5061019a61168e565b3480156104ec57600080fd5b5061019a6004803603602081101561050357600080fd5b5035611694565b34801561051657600080fd5b5061017e6004803603604081101561052d57600080fd5b50803590602001356001600160a01b03166116ab565b34801561054f57600080fd5b506104916004803603602081101561056657600080fd5b50356001600160a01b0316611704565b34801561058257600080fd5b5061017e6004803603602081101561059957600080fd5b50356001600160a01b031661174d565b3480156105b557600080fd5b5061028761183d565b3480156105ca57600080fd5b5061028761184c565b6002546001600160a01b03161580156105eb57508034145b8061060b57506002546001600160a01b03161580159061060b5750600081115b610656576040805162461bcd60e51b81526020600482015260176024820152765374616b6553696d706c653a207374616b65207a65726f60481b604482015290519081900360640190fd5b6004544310158015610669575060055443105b6106a45760405162461bcd60e51b8152600401808060200182810382526022815260200180611ded6022913960400191505060405180910390fd5b600360009054906101000a90046001600160a01b03166001600160a01b031663b8c766b86040518163ffffffff1660e01b815260040160206040518083038186803b1580156106f257600080fd5b505afa158015610706573d6000803e3d6000fd5b505050506040513d602081101561071c57600080fd5b50511561075a576040805162461bcd60e51b81526020600482015260076024820152661b9bdd08195b9960ca1b604482015290519081900360640190fd5b6002546001600160a01b0316610771575034610823565b600254604080516370a0823160e01b8152336004820152905183926001600160a01b0316916370a08231916024808301926020929190829003018186803b1580156107bb57600080fd5b505afa1580156107cf573d6000803e3d6000fd5b505050506040513d60208110156107e557600080fd5b50511015610823576040805162461bcd60e51b815260206004808301919091526024820152636c61636b60e01b604482015290519081900360640190fd5b336000908152600960205260409020805461084a57600a54610846906001611870565b600a555b80546108569083611870565b81556008546108659083611870565b6008556002546001600160a01b03161561090857600254604080516323b872dd60e01b81523360048201523060248201526044810185905290516001600160a01b03909216916323b872dd916064808201926020929091908290030181600087803b1580156108d357600080fd5b505af11580156108e7573d6000803e3d6000fd5b505050506040513d60208110156108fd57600080fd5b505161090857600080fd5b60408051838152905133917f9e71bc8eea02a63969f509818f2dafb9254532904319f9dbda79b67bd34a5f3d919081900360200190a25050565b60065481565b60045481565b6000908152600c602052604090206002015490565b6000828152600c6020526040902060020154610986906109816118ca565b611631565b6109c15760405162461bcd60e51b815260040180806020018281038252602f815260200180611d6d602f913960400191505060405180910390fd5b6109cb82826118ce565b5050565b6109d76118ca565b6001600160a01b0316816001600160a01b031614610a265760405162461bcd60e51b815260040180806020018281038252602f815260200180611e50602f913960400191505060405180910390fd5b6109cb8282611937565b6000600654118015610a43575043600654105b610a8b576040805162461bcd60e51b815260206004820152601460248201527314dd185ad954da5b5c1b194e881b9bdd08195b9960621b604482015290519081900360640190fd5b336000908152600960205260409020600681015460ff1615610af4576040805162461bcd60e51b815260206004820152601d60248201527f5374616b6553696d706c653a20416c7265616479207769746864726177000000604482015290519081900360640190fd5b805460048201541115610b4a576040805162461bcd60e51b81526020600482015260196024820152785374616b6553696d706c653a20416d6f756e742077726f6e6760381b604482015290519081900360640190fd5b60068101805460ff191660011790554360038201558054600482018190556002546001600160a01b0316610c2b57308031821115610b8757600080fd5b604051600090339084908381818185875af1925050503d8060008114610bc9576040519150601f19603f3d011682016040523d82523d6000602084013e610bce565b606091505b5050905080610c24576040805162461bcd60e51b815260206004820152601d60248201527f5374616b6553696d706c653a207769746864726177206661696c65642e000000604482015290519081900360640190fd5b5050610cfc565b6002546040805163a9059cbb60e01b81523360048201526024810184905290516001600160a01b039092169163a9059cbb916044808201926020929091908290030181600087803b158015610c7f57600080fd5b505af1158015610c93573d6000803e3d6000fd5b505050506040513d6020811015610ca957600080fd5b5051610cfc576040805162461bcd60e51b815260206004820152601a60248201527f5374616b6553696d706c653a207472616e73666572206661696c000000000000604482015290519081900360640190fd5b60408051828152905133917f7fcf532c15f0a6db0bd6d0e038bea71d30d808c7d98cb3bf7268a95bf5081b65919081900360200190a25050565b6002546001600160a01b031681565b60055481565b600b5415610d96576040805162461bcd60e51b815260206004820152601360248201527214dd185ad954da5b5c1b194e881313d0d2d151606a1b604482015290519081900360640190fd5b6001600b5560035460408051631718ecd760e31b815290516001600160a01b039092169163b8c766b891600480820192602092909190829003018186803b158015610de057600080fd5b505afa158015610df4573d6000803e3d6000fd5b505050506040513d6020811015610e0a57600080fd5b50511515600114610e5c576040805162461bcd60e51b815260206004820152601760248201527614dd185ad954da5b5c1b194e881b9bdd0818db1bdcd959604a1b604482015290519081900360640190fd5b336000908152600960205260408120600654600182015410610ebc576040805162461bcd60e51b815260206004820152601460248201527314dd185ad954da5b5c1b194e8818db185a5b595960621b604482015290519081900360640190fd5b610ec633436110df565b915060008211610f1d576040805162461bcd60e51b815260206004820152601b60248201527f5374616b6553696d706c653a20726577617264206973207a65726f0000000000604482015290519081900360640190fd5b6003546040805163032f7adb60e61b815230600482015290516000926001600160a01b03169163cbdeb6c0916024808301926020929190829003018186803b158015610f6857600080fd5b505afa158015610f7c573d6000803e3d6000fd5b505050506040513d6020811015610f9257600080fd5b50516007549091508190610fa69085611870565b1115610fe35760405162461bcd60e51b8152600401808060200182810382526021815260200180611e2f6021913960400191505060405180910390fd5b4360018301556002820154610ff89084611870565b600283015560075461100a9084611870565b60075560035460408051635569f64b60e11b81523360048201526024810186905290516001600160a01b039092169163aad3ec96916044808201926020929091908290030181600087803b15801561106157600080fd5b505af1158015611075573d6000803e3d6000fd5b505050506040513d602081101561108b57600080fd5b505161109657600080fd5b60408051848152436020820152815133927f987d620f307ff6b94d58743cb7a7509f24071586a77759b77c2d4e29f75a2f9a928290030190a250506000600b5550565b60085481565b60065460009081908311156110f45760065492505b60055483108061111a57506001600160a01b038416600090815260096020526040902054155b8061114157506006546001600160a01b038516600090815260096020526040902060010154115b8061116657506001600160a01b03841660009081526009602052604090206001015483105b15611173575060006114ac565b6005546006546001600160a01b0386166000908152600960205260409020600101548210156111bb576001600160a01b03861660009081526009602052604090206001015491505b808510156111c65750835b6003546040805163c1b422fd60e01b815290516000926001600160a01b03169163c1b422fd9160048083019286929190829003018186803b15801561120a57600080fd5b505afa15801561121e573d6000803e3d6000fd5b505050506040513d6000823e601f3d908101601f19168201604052602081101561124757600080fd5b810190808051604051939291908464010000000082111561126757600080fd5b90830190602082018581111561127c57600080fd5b825186602082028301116401000000008211171561129957600080fd5b82525081516020918201928201910280838360005b838110156112c65781810151838201526020016112ae565b5050505090500160405250505090506000815111156114a8576003546040805163d105bf8560e01b815290516000928692849283926001600160a01b03169163d105bf85916004808301926020929190829003018186803b15801561132a57600080fd5b505afa15801561133e573d6000803e3d6000fd5b505050506040513d602081101561135457600080fd5b50516001600160a01b038c166000908152600960205260408120549192508c91905b87518110156114a05787818151811061138b57fe5b60209081029190910181015160035460408051632f8deb1560e11b8152600481018490529051929a506001600160a01b0390911692635f1bd62a92602480840193829003018186803b1580156113e057600080fd5b505afa1580156113f4573d6000803e3d6000fd5b505050506040513d602081101561140a57600080fd5b505194508686111561141b57611498565b8689116114675784156114625760006114348a8c6119a0565b905061145e611457876114518661144b8a876119e2565b906119e2565b90611a3b565b8d90611870565b9b50505b6114a0565b8415611494576000611479888c6119a0565b9050611490611457876114518661144b8a876119e2565b9b50505b8699505b600101611376565b505050505050505b5050505b90505b92915050565b6001546001600160a01b031681565b6114dc600080516020611e0f83398151915233611631565b611529576040805162461bcd60e51b815260206004820152601960248201527829ba30b5b2a9b4b6b836329d103737ba1030b71030b236b4b760391b604482015290519081900360640190fd5b6001600160a01b0386161580159061154957506001600160a01b03841615155b801561155457508183105b6115a5576040805162461bcd60e51b815260206004820152601c60248201527f5374616b6553696d706c653a20696e697469616c697a65207a65726f00000000604482015290519081900360640190fd5b600080546001600160a01b038089166001600160a01b031992831617909255600280548884169083161790556003805492871692909116919091179055600483905560058290556115f68282611870565b600655505050505050565b600080516020611e0f83398151915281565b600a5481565b6000828152600c602052604081206114ac9083611a7d565b6000828152600c602052604081206114ac9083611a89565b600081565b6009602052600090815260409020805460018201546002830154600384015460048501546005860154600690960154949593949293919290919060ff1687565b60075481565b6000818152600c602052604081206114af90611a9e565b6000828152600c60205260409020600201546116c9906109816118ca565b610a265760405162461bcd60e51b8152600401808060200182810382526030815260200180611d9c6030913960400191505060405180910390fd5b6001600160a01b03166000908152600960205260409020805460018201546002830154600384015460048501546005860154600690960154949693959294919390929160ff1690565b611765600080516020611e0f83398151915233611631565b6117b2576040805162461bcd60e51b815260206004820152601960248201527829ba30b5b2a9b4b6b836329d103737ba1030b71030b236b4b760391b604482015290519081900360640190fd5b336001600160a01b038216141561180a576040805162461bcd60e51b815260206004820152601760248201527629ba30b5b2a9b4b6b836329d1039b0b6b29037bbb732b960491b604482015290519081900360640190fd5b611822600080516020611e0f83398151915282610963565b61183a600080516020611e0f833981519152336116ab565b50565b6003546001600160a01b031681565b6000546001600160a01b031681565b60006114ac836001600160a01b038416611aa9565b6000828201838110156114ac576040805162461bcd60e51b815260206004820152601b60248201527f536166654d6174683a206164646974696f6e206f766572666c6f770000000000604482015290519081900360640190fd5b3390565b6000828152600c602052604090206118e6908261185b565b156109cb576118f36118ca565b6001600160a01b0316816001600160a01b0316837f2f8788117e7eff1d82e926ec794901d17c78024a50270940304540a733656f0d60405160405180910390a45050565b6000828152600c6020526040902061194f9082611af3565b156109cb5761195c6118ca565b6001600160a01b0316816001600160a01b0316837ff6391f5c32d9c69d2a47ea670b442974b53935d1edc7fd64eb21e047a839171b60405160405180910390a45050565b60006114ac83836040518060400160405280601e81526020017f536166654d6174683a207375627472616374696f6e206f766572666c6f770000815250611b08565b6000826119f1575060006114af565b828202828482816119fe57fe5b04146114ac5760405162461bcd60e51b8152600401808060200182810382526021815260200180611dcc6021913960400191505060405180910390fd5b60006114ac83836040518060400160405280601a81526020017f536166654d6174683a206469766973696f6e206279207a65726f000000000000815250611b9f565b60006114ac8383611c04565b60006114ac836001600160a01b038416611c68565b60006114af82611c80565b6000611ab58383611c68565b611aeb575081546001818101845560008481526020808220909301849055845484825282860190935260409020919091556114af565b5060006114af565b60006114ac836001600160a01b038416611c84565b60008184841115611b975760405162461bcd60e51b81526004018080602001828103825283818151815260200191508051906020019080838360005b83811015611b5c578181015183820152602001611b44565b50505050905090810190601f168015611b895780820380516001836020036101000a031916815260200191505b509250505060405180910390fd5b505050900390565b60008183611bee5760405162461bcd60e51b8152602060048201818152835160248401528351909283926044909101919085019080838360008315611b5c578181015183820152602001611b44565b506000838581611bfa57fe5b0495945050505050565b81546000908210611c465760405162461bcd60e51b8152600401808060200182810382526022815260200180611d4b6022913960400191505060405180910390fd5b826000018281548110611c5557fe5b9060005260206000200154905092915050565b60009081526001919091016020526040902054151590565b5490565b60008181526001830160205260408120548015611d405783546000198083019190810190600090879083908110611cb757fe5b9060005260206000200154905080876000018481548110611cd457fe5b600091825260208083209091019290925582815260018981019092526040902090840190558654879080611d0457fe5b600190038181906000526020600020016000905590558660010160008781526020019081526020016000206000905560019450505050506114af565b60009150506114af56fe456e756d657261626c655365743a20696e646578206f7574206f6620626f756e6473416363657373436f6e74726f6c3a2073656e646572206d75737420626520616e2061646d696e20746f206772616e74416363657373436f6e74726f6c3a2073656e646572206d75737420626520616e2061646d696e20746f207265766f6b65536166654d6174683a206d756c7469706c69636174696f6e206f766572666c6f775374616b6553696d706c653a20706572696f64206973206e6f7420616c6c6f776564df8b4c520ffe197c5343c6f5aec59570151ef9a492f2c624fd45ddde6135ec425374616b6553696d706c653a20746f74616c207265776172642065786365656473416363657373436f6e74726f6c3a2063616e206f6e6c792072656e6f756e636520726f6c657320666f722073656c66a2646970667358221220837b069d1ca76ca844400f457e84e7fbd3e6f030b057b83c8f038627ba309e2e64736f6c63430007060033df8b4c520ffe197c5343c6f5aec59570151ef9a492f2c624fd45ddde6135ec42",
  "immutableReferences": {},
  "source": "//SPDX-License-Identifier: Unlicense\npragma solidity ^0.7.0;\n\nimport \"../interfaces/IStakeSimple.sol\";\nimport {IIStake1Vault} from \"../interfaces/IIStake1Vault.sol\";\nimport {IIERC20} from \"../interfaces/IIERC20.sol\";\nimport \"../libraries/LibTokenStake1.sol\";\nimport {SafeMath} from \"../utils/math/SafeMath.sol\";\nimport \"@openzeppelin/contracts/access/AccessControl.sol\";\nimport \"../stake/Stake1Storage.sol\";\n\n/// @title Simple Stake Contract\n/// @notice Stake contracts can interact with the vault to claim fld tokens\ncontract StakeSimple is Stake1Storage, AccessControl, IStakeSimple {\n    using SafeMath for uint256;\n    bytes32 public constant ADMIN_ROLE = keccak256(\"ADMIN\");\n\n    modifier onlyOwner() {\n        require(hasRole(ADMIN_ROLE, msg.sender), \"StakeSimple: not an admin\");\n        _;\n    }\n    modifier lock() {\n        require(_lock == 0, \"StakeSimple: LOCKED\");\n        _lock = 1;\n        _;\n        _lock = 0;\n    }\n\n    /// @dev event on staking\n    /// @param to the sender\n    /// @param amount the amount of staking\n    event Staked(address indexed to, uint256 amount);\n\n    /// @dev event on claim\n    /// @param to the sender\n    /// @param amount the amount of claim\n    /// @param claimBlock the block of claim\n    event Claimed(address indexed to, uint256 amount, uint256 claimBlock);\n\n    /// @dev event on withdrawal\n    /// @param to the sender\n    /// @param amount the amount of withdrawal\n    event Withdrawal(address indexed to, uint256 amount);\n\n    /// @dev constructor of StakeSimple\n    constructor() {\n        _setRoleAdmin(ADMIN_ROLE, ADMIN_ROLE);\n        _setupRole(ADMIN_ROLE, msg.sender);\n    }\n\n    /// @dev receive ether\n    /// @dev call stake function with msg.value\n    receive() external payable {\n        stake(msg.value);\n    }\n\n    /// @dev transfer Ownership\n    /// @param newOwner new owner address\n    function transferOwnership(address newOwner) external onlyOwner {\n        require(msg.sender != newOwner, \"StakeSimple: same owner\");\n        grantRole(ADMIN_ROLE, newOwner);\n        revokeRole(ADMIN_ROLE, msg.sender);\n    }\n\n    /// @dev Initialize\n    /// @param _token  the reward token address , It is FLD address.\n    /// @param _paytoken  Tokens staked by users, can be used as ERC20 tokens.\n    //                     (In case of ETH, input address(0))\n    /// @param _vault  the _ault's address\n    /// @param _saleStartBlock  the sale start block\n    /// @param _startBlock  the staking start block\n    /// @param _period the period that user can generate reward amount\n    function initialize(\n        address _token,\n        address _paytoken,\n        address _vault,\n        uint256 _saleStartBlock,\n        uint256 _startBlock,\n        uint256 _period\n    ) external override onlyOwner {\n        require(\n            _token != address(0) &&\n                _vault != address(0) &&\n                _saleStartBlock < _startBlock,\n            \"StakeSimple: initialize zero\"\n        );\n        token = _token;\n        paytoken = _paytoken;\n        vault = _vault;\n        saleStartBlock = _saleStartBlock;\n        startBlock = _startBlock;\n        endBlock = startBlock.add(_period);\n    }\n\n    /// @dev Stake amount\n    /// @param amount  the amount of staked\n    function stake(uint256 amount) public payable override {\n        require(\n            (paytoken == address(0) && msg.value == amount) ||\n                (paytoken != address(0) && amount > 0),\n            \"StakeSimple: stake zero\"\n        );\n        require(\n            block.number >= saleStartBlock && block.number < startBlock,\n            \"StakeSimple: period is not allowed\"\n        );\n\n        require(!IIStake1Vault(vault).saleClosed(), \"not end\");\n\n        if (paytoken == address(0)) amount = msg.value;\n        else require(IIERC20(paytoken).balanceOf(msg.sender) >= amount, \"lack\");\n\n        LibTokenStake1.StakedAmount storage staked = userStaked[msg.sender];\n        if (staked.amount == 0) totalStakers = totalStakers.add(1);\n\n        staked.amount = staked.amount.add(amount);\n        totalStakedAmount = totalStakedAmount.add(amount);\n        if (paytoken != address(0))\n            require(\n                IIERC20(paytoken).transferFrom(\n                    msg.sender,\n                    address(this),\n                    amount\n                )\n            );\n\n        emit Staked(msg.sender, amount);\n    }\n\n    /// @dev withdraw\n    function withdraw() external override {\n        require(\n            endBlock > 0 && endBlock < block.number,\n            \"StakeSimple: not end\"\n        );\n\n        LibTokenStake1.StakedAmount storage staked = userStaked[msg.sender];\n        require(staked.released == false, \"StakeSimple: Already withdraw\");\n        require(\n            staked.releasedAmount <= staked.amount,\n            \"StakeSimple: Amount wrong\"\n        );\n\n        staked.released = true;\n        staked.releasedBlock = block.number;\n\n        uint256 amount = staked.amount;\n        staked.releasedAmount = staked.amount;\n\n        // check if we send in ethers or in tokens\n        if (paytoken == address(0)) {\n            address payable self = address(uint160(address(this)));\n            require(self.balance >= amount);\n            (bool success, ) = msg.sender.call{value: amount}(\"\");\n            require(success, \"StakeSimple: withdraw failed.\");\n        } else {\n            require(\n                IIERC20(paytoken).transfer(msg.sender, amount),\n                \"StakeSimple: transfer fail\"\n            );\n        }\n\n        emit Withdrawal(msg.sender, amount);\n    }\n\n    /// @dev Claim for reward\n    function claim() external override lock {\n        require(\n            IIStake1Vault(vault).saleClosed() == true,\n            \"StakeSimple: not closed\"\n        );\n        uint256 rewardClaim = 0;\n\n        LibTokenStake1.StakedAmount storage staked = userStaked[msg.sender];\n        require(staked.claimedBlock < endBlock, \"StakeSimple: claimed\");\n\n        rewardClaim = canRewardAmount(msg.sender, block.number);\n\n        require(rewardClaim > 0, \"StakeSimple: reward is zero\");\n\n        uint256 rewardTotal =\n            IIStake1Vault(vault).totalRewardAmount(address(this));\n        require(\n            rewardClaimedTotal.add(rewardClaim) <= rewardTotal,\n            \"StakeSimple: total reward exceeds\"\n        );\n\n        staked.claimedBlock = block.number;\n        staked.claimedAmount = staked.claimedAmount.add(rewardClaim);\n        rewardClaimedTotal = rewardClaimedTotal.add(rewardClaim);\n\n        require(IIStake1Vault(vault).claim(msg.sender, rewardClaim));\n\n        emit Claimed(msg.sender, rewardClaim, block.number);\n    }\n\n    /// @dev Returns the amount that can be rewarded\n    /// @param account  the account that claimed reward\n    /// @param specificBlock the block that claimed reward\n    /// @return reward the reward amount that can be taken\n    function canRewardAmount(address account, uint256 specificBlock)\n        public\n        view\n        override\n        returns (uint256)\n    {\n        uint256 reward = 0;\n        if (specificBlock > endBlock) specificBlock = endBlock;\n\n        if (\n            specificBlock < startBlock ||\n            userStaked[account].amount == 0 ||\n            userStaked[account].claimedBlock > endBlock ||\n            userStaked[account].claimedBlock > specificBlock\n        ) {\n            reward = 0;\n        } else {\n            uint256 startR = startBlock;\n            uint256 endR = endBlock;\n            if (startR < userStaked[account].claimedBlock)\n                startR = userStaked[account].claimedBlock;\n            if (specificBlock < endR) endR = specificBlock;\n\n            uint256[] memory orderedEndBlocks =\n                IIStake1Vault(vault).orderedEndBlocksAll();\n\n            if (orderedEndBlocks.length > 0) {\n                uint256 _end = 0;\n                uint256 _start = startR;\n                uint256 _total = 0;\n                uint256 blockTotalReward = 0;\n                blockTotalReward = IIStake1Vault(vault).blockTotalReward();\n\n                address user = account;\n                uint256 amount = userStaked[user].amount;\n\n                for (uint256 i = 0; i < orderedEndBlocks.length; i++) {\n                    _end = orderedEndBlocks[i];\n                    _total = IIStake1Vault(vault).stakeEndBlockTotal(_end);\n\n                    if (_start > _end) {} else if (endR <= _end) {\n                        if (_total > 0) {\n                            uint256 _period1 = endR.sub(startR);\n                            reward = reward.add(\n                                blockTotalReward.mul(_period1).mul(amount).div(\n                                    _total\n                                )\n                            );\n                        }\n                        break;\n                    } else {\n                        if (_total > 0) {\n                            uint256 _period2 = _end.sub(startR);\n                            reward = reward.add(\n                                blockTotalReward.mul(_period2).mul(amount).div(\n                                    _total\n                                )\n                            );\n                        }\n                        startR = _end;\n                    }\n                }\n            }\n        }\n        return reward;\n    }\n    /*\n    function canRewardAmountTest(address account, uint256 specificBlock)\n        public view\n        returns (uint256, uint256, uint256, uint256)\n    {\n        uint256 reward = 0;\n        uint256 startR = 0;\n        uint256 endR = 0;\n        uint256 blockTotalReward = 0;\n        if(specificBlock > endBlock ) specificBlock = endBlock;\n\n        if (\n            specificBlock < startBlock ||\n            userStaked[account].amount == 0 ||\n            userStaked[account].claimedBlock > endBlock ||\n            userStaked[account].claimedBlock > specificBlock\n        ) {\n            reward = 0;\n        } else {\n            startR = startBlock;\n            endR = endBlock;\n            if (startR < userStaked[account].claimedBlock)\n                startR = userStaked[account].claimedBlock;\n            if (specificBlock < endR) endR = specificBlock;\n\n            uint256[] memory orderedEndBlocks =\n                IStake1Vault(vault).orderedEndBlocksAll();\n\n            if (orderedEndBlocks.length > 0) {\n                uint256 _end = 0;\n                uint256 _start = startR;\n                uint256 _total = 0;\n                //uint256 blockTotalReward = 0;\n                blockTotalReward = IStake1Vault(vault).blockTotalReward();\n\n                address user = account;\n                uint256 amount = userStaked[user].amount;\n\n                for (uint256 i = 0; i < orderedEndBlocks.length; i++) {\n                    _end = orderedEndBlocks[i];\n                    _total = IStake1Vault(vault).stakeEndBlockTotal(_end);\n\n                    if (_start > _end) {\n\n                    } else if (endR <= _end) {\n                        reward +=\n                            (blockTotalReward *\n                                (endR - startR) * amount) /\n                            _total;\n                        break;\n                    } else {\n                        reward +=\n                            (blockTotalReward *\n                                (_end - startR) *\n                                amount) /\n                            _total;\n                        startR = _end;\n                    }\n                }\n            }\n        }\n        return (reward, startR, endR, blockTotalReward);\n    }\n    */\n}\n",
  "sourcePath": "/Users/zena/ico2.0/ico20-contracts/contracts/stake/StakeSimple.sol",
  "compiler": {
    "name": "solc",
    "version": "0.7.6+commit.7338295f.Emscripten.clang"
  },
  "schemaVersion": "3.3.4",
  "updatedAt": "2021-06-07T01:48:52.049Z",
  "devdoc": {
    "events": {
      "Claimed(address,uint256,uint256)": {
        "details": "event on claim",
        "params": {
          "amount": "the amount of claim",
          "claimBlock": "the block of claim",
          "to": "the sender"
        }
      },
      "Staked(address,uint256)": {
        "details": "event on staking",
        "params": {
          "amount": "the amount of staking",
          "to": "the sender"
        }
      },
      "Withdrawal(address,uint256)": {
        "details": "event on withdrawal",
        "params": {
          "amount": "the amount of withdrawal",
          "to": "the sender"
        }
      }
    },
    "kind": "dev",
    "methods": {
      "canRewardAmount(address,uint256)": {
        "details": "Returns the amount that can be rewarded",
        "params": {
          "account": "the account that claimed reward",
          "specificBlock": "the block that claimed reward"
        },
        "returns": {
          "_0": "reward the reward amount that can be taken"
        }
      },
      "claim()": {
        "details": "Claim for reward"
      },
      "constructor": {
        "details": "constructor of StakeSimple"
      },
      "getRoleAdmin(bytes32)": {
        "details": "Returns the admin role that controls `role`. See {grantRole} and {revokeRole}. To change a role's admin, use {_setRoleAdmin}."
      },
      "getRoleMember(bytes32,uint256)": {
        "details": "Returns one of the accounts that have `role`. `index` must be a value between 0 and {getRoleMemberCount}, non-inclusive. Role bearers are not sorted in any particular way, and their ordering may change at any point. WARNING: When using {getRoleMember} and {getRoleMemberCount}, make sure you perform all queries on the same block. See the following https://forum.openzeppelin.com/t/iterating-over-elements-on-enumerableset-in-openzeppelin-contracts/2296[forum post] for more information."
      },
      "getRoleMemberCount(bytes32)": {
        "details": "Returns the number of accounts that have `role`. Can be used together with {getRoleMember} to enumerate all bearers of a role."
      },
      "getUserStaked(address)": {
        "details": "user's staked information"
      },
      "grantRole(bytes32,address)": {
        "details": "Grants `role` to `account`. If `account` had not been already granted `role`, emits a {RoleGranted} event. Requirements: - the caller must have ``role``'s admin role."
      },
      "hasRole(bytes32,address)": {
        "details": "Returns `true` if `account` has been granted `role`."
      },
      "initialize(address,address,address,uint256,uint256,uint256)": {
        "params": {
          "_period": "the period that user can generate reward amount",
          "_saleStartBlock": "the sale start block",
          "_startBlock": "the staking start block",
          "_vault": "the _ault's address"
        }
      },
      "renounceRole(bytes32,address)": {
        "details": "Revokes `role` from the calling account. Roles are often managed via {grantRole} and {revokeRole}: this function's purpose is to provide a mechanism for accounts to lose their privileges if they are compromised (such as when a trusted device is misplaced). If the calling account had been granted `role`, emits a {RoleRevoked} event. Requirements: - the caller must be `account`."
      },
      "revokeRole(bytes32,address)": {
        "details": "Revokes `role` from `account`. If `account` had been granted `role`, emits a {RoleRevoked} event. Requirements: - the caller must have ``role``'s admin role."
      },
      "stake(uint256)": {
        "details": "Stake amount",
        "params": {
          "amount": "the amount of staked"
        }
      },
      "transferOwnership(address)": {
        "details": "transfer Ownership",
        "params": {
          "newOwner": "new owner address"
        }
      },
      "withdraw()": {
        "details": "withdraw"
      }
    },
    "title": "Simple Stake Contract",
    "version": 1
  },
  "userdoc": {
    "kind": "user",
    "methods": {},
    "notice": "Stake contracts can interact with the vault to claim fld tokens",
    "version": 1
  }
}