{
  "contractName": "StakeTONFactory",
  "abi": [
    {
      "inputs": [
        {
          "internalType": "address",
          "name": "_stakeTONProxyFactory",
          "type": "address"
        },
        {
          "internalType": "address",
          "name": "_stakeTONLogic",
          "type": "address"
        }
      ],
      "stateMutability": "nonpayable",
      "type": "constructor"
    },
    {
      "inputs": [],
      "name": "stakeTONLogic",
      "outputs": [
        {
          "internalType": "address",
          "name": "",
          "type": "address"
        }
      ],
      "stateMutability": "view",
      "type": "function"
    },
    {
      "inputs": [],
      "name": "stakeTONProxyFactory",
      "outputs": [
        {
          "internalType": "address",
          "name": "",
          "type": "address"
        }
      ],
      "stateMutability": "view",
      "type": "function"
    },
    {
      "inputs": [
        {
          "internalType": "address[4]",
          "name": "_addr",
          "type": "address[4]"
        },
        {
          "internalType": "address",
          "name": "_registry",
          "type": "address"
        },
        {
          "internalType": "uint256[3]",
          "name": "_intdata",
          "type": "uint256[3]"
        },
        {
          "internalType": "address",
          "name": "owner",
          "type": "address"
        }
      ],
      "name": "create",
      "outputs": [
        {
          "internalType": "address",
          "name": "",
          "type": "address"
        }
      ],
      "stateMutability": "nonpayable",
      "type": "function"
    }
  ],
  "bytecode": "0x608060405234801561001057600080fd5b506040516103ab3803806103ab8339818101604052604081101561003357600080fd5b5080516020909101516001600160a01b0382161580159061005c57506001600160a01b03811615155b6100ad576040805162461bcd60e51b815260206004820152601560248201527f5374616b65544f4e466163746f72793a207a65726f0000000000000000000000604482015290519081900360640190fd5b600080546001600160a01b039384166001600160a01b031991821617909155600180549290931691161790556102c3806100e86000396000f3fe608060405234801561001057600080fd5b50600436106100415760003560e01c80638a59d90a14610046578063ba3d30451461006a578063dd18f68f14610106575b600080fd5b61004e61010e565b604080516001600160a01b039092168252519081900360200190f35b61004e600480360361012081101561008157600080fd5b81019080806080019060048060200260405190810160405280929190826004602002808284376000920191909152505060408051606081810190925292956001600160a01b0385351695909490936080820193509160209091019060039083908390808284376000920191909152509194505050356001600160a01b0316905061011d565b61004e61027e565b6000546001600160a01b031681565b6000805460015460405163afd0239d60e01b81526001600160a01b03918216600482018181528594939093169263afd0239d928a918a918a918a916024018560808083838e5b8381101561017b578181015183820152602001610163565b50505050905001846001600160a01b0316815260200183600360200280838360005b838110156101b557818101518382015260200161019d565b50505050905001826001600160a01b0316815260200195505050505050602060405180830381600087803b1580156101ec57600080fd5b505af1158015610200573d6000803e3d6000fd5b505050506040513d602081101561021657600080fd5b505190506001600160a01b038116610275576040805162461bcd60e51b815260206004820152601b60248201527f5374616b65544f4e466163746f72793a2070726f7879207a65726f0000000000604482015290519081900360640190fd5b95945050505050565b6001546001600160a01b03168156fea2646970667358221220f30814cce1d0643736ca71a7f6a78b78eb17a4e389bde467c1ca0e801259f33b64736f6c63430007060033",
  "immutableReferences": {},
  "source": "// SPDX-License-Identifier: MIT\npragma solidity ^0.7.6;\n\nimport \"../interfaces/IStakeTONFactory.sol\";\nimport \"../interfaces/IStakeTONProxyFactory.sol\";\n\n/// @title A factory that creates a stake contract that can stake TON\ncontract StakeTONFactory is IStakeTONFactory {\n    address public stakeTONProxyFactory;\n    address public stakeTONLogic;\n\n    /// @dev constructor of StakeTONFactory\n    /// @param _stakeTONProxyFactory the StakeTONProxyFactory address used in StakeTONFactory\n    /// @param _stakeTONLogic the StakeTONLogic address used in StakeTONFactory\n    constructor(address _stakeTONProxyFactory, address _stakeTONLogic) {\n        require(\n            _stakeTONProxyFactory != address(0) && _stakeTONLogic != address(0),\n            \"StakeTONFactory: zero\"\n        );\n        stakeTONProxyFactory = _stakeTONProxyFactory;\n        stakeTONLogic = _stakeTONLogic;\n    }\n\n    /// @dev Create a stake contract that can stake TON.\n    /// @param _addr the array of [token, paytoken, vault, defiAddr]\n    /// @param _registry  the registry address\n    /// @param _intdata the array of [saleStartBlock, startBlock, periodBlocks]\n    /// @param owner  owner address\n    /// @return contract address\n    function create(\n        address[4] memory _addr,\n        address _registry,\n        uint256[3] memory _intdata,\n        address owner\n    ) external override returns (address) {\n        address proxy =\n            IStakeTONProxyFactory(stakeTONProxyFactory).deploy(\n                stakeTONLogic,\n                _addr,\n                _registry,\n                _intdata,\n                owner\n            );\n\n        require(proxy != address(0), \"StakeTONFactory: proxy zero\");\n\n        return proxy;\n    }\n}\n",
  "sourcePath": "/Users/zena/ico2.0/ico20-contracts/contracts/factory/StakeTONFactory.sol",
  "compiler": {
    "name": "solc",
    "version": "0.7.6+commit.7338295f.Emscripten.clang"
  },
  "schemaVersion": "3.3.4",
  "updatedAt": "2021-06-02T09:23:59.556Z",
  "devdoc": {
    "kind": "dev",
    "methods": {
      "constructor": {
        "details": "constructor of StakeTONFactory",
        "params": {
          "_stakeTONLogic": "the StakeTONLogic address used in StakeTONFactory",
          "_stakeTONProxyFactory": "the StakeTONProxyFactory address used in StakeTONFactory"
        }
      },
      "create(address[4],address,uint256[3],address)": {
        "details": "Create a stake contract that can stake TON.",
        "params": {
          "_addr": "the array of [token, paytoken, vault, defiAddr]",
          "_intdata": "the array of [saleStartBlock, startBlock, periodBlocks]",
          "_registry": "the registry address",
          "owner": "owner address"
        },
        "returns": {
          "_0": "contract address"
        }
      }
    },
    "title": "A factory that creates a stake contract that can stake TON",
    "version": 1
  },
  "userdoc": {
    "kind": "user",
    "methods": {},
    "version": 1
  }
}