{
  "contractName": "Stake1Storage",
  "abi": [
    {
      "inputs": [],
      "name": "endBlock",
      "outputs": [
        {
          "internalType": "uint256",
          "name": "",
          "type": "uint256"
        }
      ],
      "stateMutability": "view",
      "type": "function"
    },
    {
      "inputs": [],
      "name": "paytoken",
      "outputs": [
        {
          "internalType": "address",
          "name": "",
          "type": "address"
        }
      ],
      "stateMutability": "view",
      "type": "function"
    },
    {
      "inputs": [],
      "name": "rewardClaimedTotal",
      "outputs": [
        {
          "internalType": "uint256",
          "name": "",
          "type": "uint256"
        }
      ],
      "stateMutability": "view",
      "type": "function"
    },
    {
      "inputs": [],
      "name": "saleStartBlock",
      "outputs": [
        {
          "internalType": "uint256",
          "name": "",
          "type": "uint256"
        }
      ],
      "stateMutability": "view",
      "type": "function"
    },
    {
      "inputs": [],
      "name": "stakeRegistry",
      "outputs": [
        {
          "internalType": "address",
          "name": "",
          "type": "address"
        }
      ],
      "stateMutability": "view",
      "type": "function"
    },
    {
      "inputs": [],
      "name": "startBlock",
      "outputs": [
        {
          "internalType": "uint256",
          "name": "",
          "type": "uint256"
        }
      ],
      "stateMutability": "view",
      "type": "function"
    },
    {
      "inputs": [],
      "name": "token",
      "outputs": [
        {
          "internalType": "address",
          "name": "",
          "type": "address"
        }
      ],
      "stateMutability": "view",
      "type": "function"
    },
    {
      "inputs": [],
      "name": "totalStakedAmount",
      "outputs": [
        {
          "internalType": "uint256",
          "name": "",
          "type": "uint256"
        }
      ],
      "stateMutability": "view",
      "type": "function"
    },
    {
      "inputs": [],
      "name": "totalStakers",
      "outputs": [
        {
          "internalType": "uint256",
          "name": "",
          "type": "uint256"
        }
      ],
      "stateMutability": "view",
      "type": "function"
    },
    {
      "inputs": [
        {
          "internalType": "address",
          "name": "",
          "type": "address"
        }
      ],
      "name": "userStaked",
      "outputs": [
        {
          "internalType": "uint256",
          "name": "amount",
          "type": "uint256"
        },
        {
          "internalType": "uint256",
          "name": "claimedBlock",
          "type": "uint256"
        },
        {
          "internalType": "uint256",
          "name": "claimedAmount",
          "type": "uint256"
        },
        {
          "internalType": "uint256",
          "name": "releasedBlock",
          "type": "uint256"
        },
        {
          "internalType": "uint256",
          "name": "releasedAmount",
          "type": "uint256"
        },
        {
          "internalType": "uint256",
          "name": "releasedTOSAmount",
          "type": "uint256"
        },
        {
          "internalType": "bool",
          "name": "released",
          "type": "bool"
        }
      ],
      "stateMutability": "view",
      "type": "function"
    },
    {
      "inputs": [],
      "name": "vault",
      "outputs": [
        {
          "internalType": "address",
          "name": "",
          "type": "address"
        }
      ],
      "stateMutability": "view",
      "type": "function"
    },
    {
      "inputs": [
        {
          "internalType": "address",
          "name": "user",
          "type": "address"
        }
      ],
      "name": "getUserStaked",
      "outputs": [
        {
          "internalType": "uint256",
          "name": "amount",
          "type": "uint256"
        },
        {
          "internalType": "uint256",
          "name": "claimedBlock",
          "type": "uint256"
        },
        {
          "internalType": "uint256",
          "name": "claimedAmount",
          "type": "uint256"
        },
        {
          "internalType": "uint256",
          "name": "releasedBlock",
          "type": "uint256"
        },
        {
          "internalType": "uint256",
          "name": "releasedAmount",
          "type": "uint256"
        },
        {
          "internalType": "uint256",
          "name": "releasedTOSAmount",
          "type": "uint256"
        },
        {
          "internalType": "bool",
          "name": "released",
          "type": "bool"
        }
      ],
      "stateMutability": "view",
      "type": "function"
    }
  ],
  "bytecode": "0x608060405234801561001057600080fd5b506102dc806100206000396000f3fe608060405234801561001057600080fd5b50600436106100b45760003560e01c806386989038116100715780638698903814610117578063acc3a9391461011f578063b2d4d6a31461017f578063dac3fc3f14610187578063fbfa77cf146101ad578063fc0c546a146101b5576100b4565b8063083c6323146100b957806320027275146100d357806343b0934a146100db57806348cd4cb1146100ff578063567e98f914610107578063683048351461010f575b600080fd5b6100c16101bd565b60408051918252519081900360200190f35b6100c16101c3565b6100e36101c9565b604080516001600160a01b039092168252519081900360200190f35b6100c16101d8565b6100c16101de565b6100e36101e4565b6100c16101f3565b6101456004803603602081101561013557600080fd5b50356001600160a01b03166101f9565b604080519788526020880196909652868601949094526060860192909252608085015260a0840152151560c0830152519081900360e00190f35b6100c1610239565b6101456004803603602081101561019d57600080fd5b50356001600160a01b031661023f565b6100e3610288565b6100e3610297565b60065481565b60045481565b6002546001600160a01b031681565b60055481565b60085481565b6001546001600160a01b031681565b600a5481565b6009602052600090815260409020805460018201546002830154600384015460048501546005860154600690960154949593949293919290919060ff1687565b60075481565b6001600160a01b03166000908152600960205260409020805460018201546002830154600384015460048501546005860154600690960154949693959294919390929160ff1690565b6003546001600160a01b031681565b6000546001600160a01b03168156fea2646970667358221220c325783502745616b01d7e63d29867d9682e435053f058245485dcbda27cc69f64736f6c63430007060033",
  "immutableReferences": {},
  "source": "//SPDX-License-Identifier: Unlicense\npragma solidity ^0.7.6;\n\n//import \"../interfaces/IStake1Storage.sol\";\nimport \"../libraries/LibTokenStake1.sol\";\n\n/// @title The base storage of stakeContract\ncontract Stake1Storage {\n    /// @dev reward token : TOS\n    address public token;\n\n    /// @dev registry\n    address public stakeRegistry;\n\n    /// @dev paytoken is the token that the user stakes. ( if paytoken is ether, paytoken is address(0) )\n    address public paytoken;\n\n    /// @dev A vault that holds tos rewards.\n    address public vault;\n\n    /// @dev the start block for sale.\n    uint256 public saleStartBlock;\n\n    /// @dev the staking start block, once staking starts, users can no longer apply for staking.\n    uint256 public startBlock;\n\n    /// @dev the staking end block.\n    uint256 public endBlock;\n\n    /// @dev the total amount claimed\n    uint256 public rewardClaimedTotal;\n\n    /// @dev the total staked amount\n    uint256 public totalStakedAmount;\n\n    /// @dev information staked by user\n    mapping(address => LibTokenStake1.StakedAmount) public userStaked;\n\n    /// @dev total stakers\n    uint256 public totalStakers;\n\n    uint256 internal _lock;\n\n    /// @dev user's staked information\n    function getUserStaked(address user)\n        external\n        view\n        returns (\n            uint256 amount,\n            uint256 claimedBlock,\n            uint256 claimedAmount,\n            uint256 releasedBlock,\n            uint256 releasedAmount,\n            uint256 releasedTOSAmount,\n            bool released\n        )\n    {\n        return (\n            userStaked[user].amount,\n            userStaked[user].claimedBlock,\n            userStaked[user].claimedAmount,\n            userStaked[user].releasedBlock,\n            userStaked[user].releasedAmount,\n            userStaked[user].releasedTOSAmount,\n            userStaked[user].released\n        );\n    }\n}\n",
  "sourcePath": "/Users/zena/ico2.0/ico20-contracts/contracts/stake/Stake1Storage.sol",
  "compiler": {
    "name": "solc",
    "version": "0.7.6+commit.7338295f.Emscripten.clang"
  },
  "schemaVersion": "3.3.4",
  "updatedAt": "2021-06-15T09:38:41.493Z",
  "devdoc": {
    "kind": "dev",
    "methods": {
      "getUserStaked(address)": {
        "details": "user's staked information"
      }
    },
    "stateVariables": {
      "endBlock": {
        "details": "the staking end block."
      },
      "paytoken": {
        "details": "paytoken is the token that the user stakes. ( if paytoken is ether, paytoken is address(0) )"
      },
      "rewardClaimedTotal": {
        "details": "the total amount claimed"
      },
      "saleStartBlock": {
        "details": "the start block for sale."
      },
      "stakeRegistry": {
        "details": "registry"
      },
      "startBlock": {
        "details": "the staking start block, once staking starts, users can no longer apply for staking."
      },
      "token": {
        "details": "reward token : TOS"
      },
      "totalStakedAmount": {
        "details": "the total staked amount"
      },
      "totalStakers": {
        "details": "total stakers"
      },
      "userStaked": {
        "details": "information staked by user"
      },
      "vault": {
        "details": "A vault that holds tos rewards."
      }
    },
    "title": "The base storage of stakeContract",
    "version": 1
  },
  "userdoc": {
    "kind": "user",
    "methods": {},
    "version": 1
  }
}