{
  "contractName": "StakeTONProxyFactory",
  "abi": [
    {
      "inputs": [],
      "name": "ADMIN_ROLE",
      "outputs": [
        {
          "internalType": "bytes32",
          "name": "",
          "type": "bytes32"
        }
      ],
      "stateMutability": "view",
      "type": "function"
    },
    {
      "inputs": [
        {
          "internalType": "address",
          "name": "_logic",
          "type": "address"
        },
        {
          "internalType": "address[4]",
          "name": "_addr",
          "type": "address[4]"
        },
        {
          "internalType": "address",
          "name": "_registry",
          "type": "address"
        },
        {
          "internalType": "uint256[3]",
          "name": "_intdata",
          "type": "uint256[3]"
        },
        {
          "internalType": "address",
          "name": "owner",
          "type": "address"
        }
      ],
      "name": "deploy",
      "outputs": [
        {
          "internalType": "address",
          "name": "",
          "type": "address"
        }
      ],
      "stateMutability": "nonpayable",
      "type": "function"
    }
  ],
  "bytecode": "0x608060405234801561001057600080fd5b506122f6806100206000396000f3fe608060405234801561001057600080fd5b50600436106100365760003560e01c806375b238fc1461003b578063afd0239d14610055575b600080fd5b6100436100b5565b60408051918252519081900360200190f35b610099600480360361014081101561006c57600080fd5b506001600160a01b038135811691602081019160a082013581169160c081019161012090910135166100c7565b604080516001600160a01b039092168252519081900360200190f35b6000805160206122a183398151915281565b600080866040516100d790610304565b6001600160a01b03909116815260405190819003602001906000f080158015610104573d6000803e3d6000fd5b5090506001600160a01b038116610162576040805162461bcd60e51b815260206004820181905260248201527f5374616b65544f4e50726f7879466163746f72793a2070726f7879207a65726f604482015290519081900360640190fd5b6040516339efe54360e21b81526001600160a01b0382169063e7bf950c9088908890889060040180846080808284376000838201526001600160a01b038616601f909101601f19169092019182525060200182606080828437600081840152601f19601f8201169050808301925050509350505050600060405180830381600087803b1580156101f157600080fd5b505af1158015610205573d6000803e3d6000fd5b50505050806001600160a01b0316632f2ff15d6000805160206122a1833981519152856040518363ffffffff1660e01b815260040180838152602001826001600160a01b0316815260200192505050600060405180830381600087803b15801561026e57600080fd5b505af1158015610282573d6000803e3d6000fd5b50506040805163d547741f60e01b81526000805160206122a1833981519152600482015230602482015290516001600160a01b038516935063d547741f9250604480830192600092919082900301818387803b1580156102e157600080fd5b505af11580156102f5573d6000803e3d6000fd5b50929998505050505050505050565b611f8f806103128339019056fe60806040523480156200001157600080fd5b5060405162001f8f38038062001f8f8339810160408190526200003491620002bc565b620000466301ffc9a760e01b620000cf565b62000058632139e50b60e11b620000cf565b6200007360008051602062001f6f8339815191528062000154565b6200008e60008051602062001f6f83398151915233620001a6565b620000a960008051602062001f6f83398151915230620001a6565b601d80546001600160a01b0319166001600160a01b0392909216919091179055620002ec565b6001600160e01b031980821614156200012f576040805162461bcd60e51b815260206004820152601c60248201527f4552433136353a20696e76616c696420696e7465726661636520696400000000604482015290519081900360640190fd5b6001600160e01b0319166000908152601c60205260409020805460ff19166001179055565b6000828152601b6020526040808220600201549051839285917fbd79b86ffe0ab8e8776151514217cd7cacd52c909f66475c3af44e129f0b00ff9190a46000918252601b602052604090912060020155565b620001b28282620001b6565b5050565b6000828152601b60209081526040909120620001dd9183906200114162000231821b17901c565b15620001b257620001ed62000251565b6001600160a01b0316816001600160a01b0316837f2f8788117e7eff1d82e926ec794901d17c78024a50270940304540a733656f0d60405160405180910390a45050565b600062000248836001600160a01b03841662000255565b90505b92915050565b3390565b6000620002638383620002a4565b6200029b575081546001818101845560008481526020808220909301849055845484825282860190935260409020919091556200024b565b5060006200024b565b60009081526001919091016020526040902054151590565b600060208284031215620002ce578081fd5b81516001600160a01b0381168114620002e5578182fd5b9392505050565b611c7380620002fc6000396000f3fe6080604052600436106102765760003560e01c8063722853261161014f578063ca15c873116100c1578063e6a7bc871161007a578063e6a7bc871461069d578063e7bf950c146106b2578063f2fde38b146106d2578063fbfa77cf146106f2578063fc0c546a14610707578063fd7fa4601461071c57610285565b8063ca15c873146105fe578063cc48b9471461061e578063d547741f14610633578063dac3fc3f14610653578063e09974b914610673578063e58e27471461068857610285565b80639010d07c116101135780639010d07c1461054c57806391d148541461056c57806392ea3b4c1461058c578063a217fddf146105a1578063acc3a939146105b6578063b2d4d6a3146105e957610285565b806372285326146104d857806375b238fc146104ed5780637cb00d251461050257806386989038146105225780638d62d9491461053757610285565b80634273ca16116101e857806363a8fd89116101ac57806363a8fd891461045a578063683048351461046f5780636c7ac9d8146104845780636e7cf534146104995780636ec4be90146104ae5780636fb7f558146104c357610285565b80634273ca16146103d957806343b0934a146103f957806348cd4cb11461041b578063567e98f9146104305780635c60da1b1461044557610285565b80630ea3d9c91161023a5780630ea3d9c91461032f5780632002727514610344578063248a9ca3146103595780632f2ff15d1461037957806336568abe146103995780633659cfe6146103b957610285565b806301ffc9a71461028d57806305871b78146102c3578063083c6323146102e55780630ac8e0f3146102fa5780630bfb38411461030f57610285565b3661028557610283610731565b005b610283610731565b34801561029957600080fd5b506102ad6102a8366004611763565b6107a8565b6040516102ba91906117db565b60405180910390f35b3480156102cf57600080fd5b506102d86107cb565b6040516102ba91906117e6565b3480156102f157600080fd5b506102d86107d1565b34801561030657600080fd5b506102d86107d7565b34801561031b57600080fd5b506102ad61032a366004611530565b6107dd565b34801561033b57600080fd5b506102d8610ad6565b34801561035057600080fd5b506102d8610adc565b34801561036557600080fd5b506102d86103743660046116fb565b610ae2565b34801561038557600080fd5b50610283610394366004611713565b610af7565b3480156103a557600080fd5b506102836103b4366004611713565b610b5e565b3480156103c557600080fd5b506102836103d43660046114e9565b610bbf565b3480156103e557600080fd5b506102ad6103f4366004611580565b610c91565b34801561040557600080fd5b5061040e610d16565b6040516102ba91906117a3565b34801561042757600080fd5b506102d8610d25565b34801561043c57600080fd5b506102d8610d2b565b34801561045157600080fd5b5061040e610d31565b34801561046657600080fd5b506102ad610d40565b34801561047b57600080fd5b5061040e610d50565b34801561049057600080fd5b5061040e610d5f565b3480156104a557600080fd5b506102ad610d6e565b3480156104ba57600080fd5b5061040e610d77565b3480156104cf57600080fd5b5061040e610d86565b3480156104e457600080fd5b506102d8610d95565b3480156104f957600080fd5b506102d8610d9b565b34801561050e57600080fd5b5061028361051d3660046116c3565b610dad565b34801561052e57600080fd5b506102d8610dff565b34801561054357600080fd5b5061040e610e05565b34801561055857600080fd5b5061040e610567366004611742565b610e14565b34801561057857600080fd5b506102ad610587366004611713565b610e35565b34801561059857600080fd5b5061040e610e4d565b3480156105ad57600080fd5b506102d8610e5c565b3480156105c257600080fd5b506105d66105d13660046114e9565b610e61565b6040516102ba9796959493929190611b18565b3480156105f557600080fd5b506102d8610ea1565b34801561060a57600080fd5b506102d86106193660046116fb565b610ea7565b34801561062a57600080fd5b5061040e610ebe565b34801561063f57600080fd5b5061028361064e366004611713565b610ecd565b34801561065f57600080fd5b506105d661066e3660046114e9565b610f26565b34801561067f57600080fd5b506102d8610f6f565b34801561069457600080fd5b506102d8610f75565b3480156106a957600080fd5b506102d8610f7b565b3480156106be57600080fd5b506102836106cd36600461161a565b610f81565b3480156106de57600080fd5b506102836106ed3660046114e9565b61108d565b3480156106fe57600080fd5b5061040e61111d565b34801561071357600080fd5b5061040e61112c565b34801561072857600080fd5b506102d861113b565b600061073b610d31565b90506001600160a01b0381161580159061075f5750601d54600160a01b900460ff16155b6107845760405162461bcd60e51b815260040161077b90611acb565b60405180910390fd5b3660008037600080366000845af43d6000803e8080156107a3573d6000f35b3d6000fd5b6001600160e01b031981166000908152601c602052604090205460ff165b919050565b60145481565b60065481565b60135481565b6002546000906001600160a01b0386811691161480156107fd5750600082115b801561081157506001600160a01b03831630145b61082d5760405162461bcd60e51b815260040161077b90611a84565b6004544310158015610840575060055443105b61085c5760405162461bcd60e51b815260040161077b906117ef565b600360009054906101000a90046001600160a01b03166001600160a01b031663b8c766b86040518163ffffffff1660e01b815260040160206040518083038186803b1580156108aa57600080fd5b505afa1580156108be573d6000803e3d6000fd5b505050506040513d601f19601f820116820180604052508101906108e291906116df565b156108ff5760405162461bcd60e51b815260040161077b90611a22565b6002546040516370a0823160e01b815283916001600160a01b0316906370a082319061092f9088906004016117a3565b60206040518083038186803b15801561094757600080fd5b505afa15801561095b573d6000803e3d6000fd5b505050506040513d601f19601f8201168201806040525081019061097f919061178b565b101561099d5760405162461bcd60e51b815260040161077b906119ef565b6001600160a01b038416600090815260096020526040902080546109cd57600a546109c9906001611156565b600a555b80546109d99084611156565b81556008546109e89084611156565b6008556040516323b872dd60e01b81526001600160a01b038716906323b872dd90610a1b908890889088906004016117b7565b602060405180830381600087803b158015610a3557600080fd5b505af1158015610a49573d6000803e3d6000fd5b505050506040513d601f19601f82011682018060405250810190610a6d91906116df565b610a895760405162461bcd60e51b815260040161077b90611830565b846001600160a01b03167f9e71bc8eea02a63969f509818f2dafb9254532904319f9dbda79b67bd34a5f3d84604051610ac291906117e6565b60405180910390a250600195945050505050565b60155481565b60045481565b6000908152601b602052604090206002015490565b6000828152601b6020526040902060020154610b15906105876111b0565b610b505760405162461bcd60e51b815260040180806020018281038252602f815260200180611b90602f913960400191505060405180910390fd5b610b5a82826111b4565b5050565b610b666111b0565b6001600160a01b0316816001600160a01b031614610bb55760405162461bcd60e51b815260040180806020018281038252602f815260200180611c0f602f913960400191505060405180910390fd5b610b5a828261121d565b610bd7600080516020611bef83398151915233610e35565b610bf35760405162461bcd60e51b815260040161077b9061189e565b6001600160a01b038116610c195760405162461bcd60e51b815260040161077b9061191f565b601d546001600160a01b0382811691161415610c475760405162461bcd60e51b815260040161077b90611956565b601d80546001600160a01b0319166001600160a01b0383169081179091556040517fbc7cd75a20ee27fd9adebab32041f755214dbc6bffa90cc0225b39da2e5c2d3b90600090a250565b6000806000610ca08585611286565b915091508086148015610cc45750816001600160a01b0316876001600160a01b0316145b610ce05760405162461bcd60e51b815260040161077b906118d5565b610cec338984846107dd565b610d085760405162461bcd60e51b815260040161077b906119ab565b506001979650505050505050565b6002546001600160a01b031681565b60055481565b60085481565b601d546001600160a01b031690565b601d54600160a01b900460ff1681565b6001546001600160a01b031681565b600f546001600160a01b031681565b601a5460ff1681565b6010546001600160a01b031681565b600e546001600160a01b031681565b60185481565b600080516020611bef83398151915281565b610dc5600080516020611bef83398151915233610e35565b610de15760405162461bcd60e51b815260040161077b9061189e565b601d8054911515600160a01b0260ff60a01b19909216919091179055565b600a5481565b600d546001600160a01b031681565b6000828152601b60205260408120610e2c90836112a0565b90505b92915050565b6000828152601b60205260408120610e2c90836112ac565b6011546001600160a01b031681565b600081565b6009602052600090815260409020805460018201546002830154600384015460048501546005860154600690960154949593949293919290919060ff1687565b60075481565b6000818152601b60205260408120610e2f906112c1565b600c546001600160a01b031681565b6000828152601b6020526040902060020154610eeb906105876111b0565b610bb55760405162461bcd60e51b8152600401808060200182810382526030815260200180611bbf6030913960400191505060405180910390fd5b6001600160a01b03166000908152600960205260409020805460018201546002830154600384015460048501546005860154600690960154949693959294919390929160ff1690565b60195481565b60165481565b60175481565b610f99600080516020611bef83398151915233610e35565b610fb55760405162461bcd60e51b815260040161077b9061189e565b6001600160a01b03821615801590610fd9575060408301516001600160a01b031615155b8015610fe9575060208101518151105b6110055760405162461bcd60e51b815260040161077b90611867565b8251600080546001600160a01b03199081166001600160a01b0393841617909155602080860151600280548416918516919091179055604080870151600380548516918616919091179055600180548416948716949094179093556011805490921690915582516004558201516005819055908201516110859190611156565b600655505050565b6110a5600080516020611bef83398151915233610e35565b6110c15760405162461bcd60e51b815260040161077b9061189e565b336001600160a01b03821614156110ea5760405162461bcd60e51b815260040161077b90611a52565b611102600080516020611bef83398151915282610af7565b61111a600080516020611bef83398151915233610ecd565b50565b6003546001600160a01b031681565b6000546001600160a01b031681565b60125481565b6000610e2c836001600160a01b0384166112cc565b600082820183811015610e2c576040805162461bcd60e51b815260206004820152601b60248201527f536166654d6174683a206164646974696f6e206f766572666c6f770000000000604482015290519081900360640190fd5b3390565b6000828152601b602052604090206111cc9082611141565b15610b5a576111d96111b0565b6001600160a01b0316816001600160a01b0316837f2f8788117e7eff1d82e926ec794901d17c78024a50270940304540a733656f0d60405160405180910390a45050565b6000828152601b602052604090206112359082611316565b15610b5a576112426111b0565b6001600160a01b0316816001600160a01b0316837ff6391f5c32d9c69d2a47ea670b442974b53935d1edc7fd64eb21e047a839171b60405160405180910390a45050565b60008061129583850185611505565b909590945092505050565b6000610e2c838361132b565b6000610e2c836001600160a01b03841661138f565b6000610e2f826113a7565b60006112d8838361138f565b61130e57508154600181810184556000848152602080822090930184905584548482528286019093526040902091909155610e2f565b506000610e2f565b6000610e2c836001600160a01b0384166113ab565b8154600090821061136d5760405162461bcd60e51b8152600401808060200182810382526022815260200180611b6e6022913960400191505060405180910390fd5b82600001828154811061137c57fe5b9060005260206000200154905092915050565b60009081526001919091016020526040902054151590565b5490565b6000818152600183016020526040812054801561146757835460001980830191908101906000908790839081106113de57fe5b90600052602060002001549050808760000184815481106113fb57fe5b60009182526020808320909101929092558281526001898101909252604090209084019055865487908061142b57fe5b60019003818190600052602060002001600090559055866001016000878152602001908152602001600020600090556001945050505050610e2f565b6000915050610e2f565b80356107c681611b4a565b600082601f83011261148c578081fd5b6040516060810181811067ffffffffffffffff821117156114a957fe5b6040528083606081018610156114bd578384fd5b835b60038110156114de5781358352602092830192909101906001016114bf565b509195945050505050565b6000602082840312156114fa578081fd5b8135610e2c81611b4a565b60008060408385031215611517578081fd5b823561152281611b4a565b946020939093013593505050565b60008060008060808587031215611545578182fd5b843561155081611b4a565b9350602085013561156081611b4a565b9250604085013561157081611b4a565b9396929550929360600135925050565b600080600080600060808688031215611597578081fd5b85356115a281611b4a565b945060208601356115b281611b4a565b935060408601359250606086013567ffffffffffffffff808211156115d5578283fd5b818801915088601f8301126115e8578283fd5b8135818111156115f6578384fd5b896020828501011115611607578384fd5b9699959850939650602001949392505050565b6000806000610100848603121561162f578283fd5b84601f85011261163d578283fd5b6040516080810181811067ffffffffffffffff8211171561165a57fe5b6040528085608081018881111561166f578687fd5b865b600481101561169a57823561168581611b4a565b84526020938401939290920191600101611671565b508396506116a781611471565b9550505050506116ba8560a0860161147c565b90509250925092565b6000602082840312156116d4578081fd5b8135610e2c81611b5f565b6000602082840312156116f0578081fd5b8151610e2c81611b5f565b60006020828403121561170c578081fd5b5035919050565b60008060408385031215611725578182fd5b82359150602083013561173781611b4a565b809150509250929050565b60008060408385031215611754578182fd5b50508035926020909101359150565b600060208284031215611774578081fd5b81356001600160e01b031981168114610e2c578182fd5b60006020828403121561179c578081fd5b5051919050565b6001600160a01b0391909116815260200190565b6001600160a01b039384168152919092166020820152604081019190915260600190565b901515815260200190565b90815260200190565b60208082526021908201527f5374616b65544f4e50726f78793a20706572696f64206e6f7420616c6c6f77656040820152601960fa1b606082015260800190565b6020808252601c908201527f5374616b65544f4e50726f78793a207472616e73666572206661696c00000000604082015260600190565b6020808252601b908201527f5374616b65544f4e50726f78793a20736574496e6974206661696c0000000000604082015260600190565b6020808252601b908201527f5374616b65544f4e50726f78793a206e6f7420616e2061646d696e0000000000604082015260600190565b6020808252602a908201527f5374616b65544f4e50726f78793a20746f6e416d6f756e7420213d207374616b604082015269034b733a0b6b7bab73a160b51b606082015260800190565b6020808252601c908201527f5374616b65544f4e50726f78793a20696e707574206973207a65726f00000000604082015260600190565b60208082526035908201527f5374616b65544f4e50726f78793a2054686520696e70757420616464726573736040820152742069732073616d652061732074686520737461746560581b606082015260800190565b60208082526024908201527f5374616b65544f4e50726f78793a207374616b654f6e417070726f7665206661604082015263034b639960e51b606082015260800190565b60208082526019908201527814dd185ad95513d3941c9bde1e4e881a5b9cdd59999a595b9d603a1b604082015260600190565b60208082526016908201527514dd185ad95513d3941c9bde1e4e881b9bdd08195b9960521b604082015260600190565b60208082526018908201527729ba30b5b2aa27a7283937bc3c9d39b0b6b29037bbb732b960411b604082015260600190565b60208082526027908201527f5374616b65544f4e50726f78793a207374616b654f6e417070726f766520696e6040820152661a5d0819985a5b60ca1b606082015260800190565b6020808252602d908201527f5374616b65544f4e50726f78793a20696d706c206973207a65726f204f52207060408201526c726f78792069732066616c736560981b606082015260800190565b968752602087019590955260408601939093526060850191909152608084015260a0830152151560c082015260e00190565b6001600160a01b038116811461111a57600080fd5b801515811461111a57600080fdfe456e756d657261626c655365743a20696e646578206f7574206f6620626f756e6473416363657373436f6e74726f6c3a2073656e646572206d75737420626520616e2061646d696e20746f206772616e74416363657373436f6e74726f6c3a2073656e646572206d75737420626520616e2061646d696e20746f207265766f6b65df8b4c520ffe197c5343c6f5aec59570151ef9a492f2c624fd45ddde6135ec42416363657373436f6e74726f6c3a2063616e206f6e6c792072656e6f756e636520726f6c657320666f722073656c66a264697066735822122023035a13b2f49e783a854915ee772c919db02ca0a6b235ead43f7ecd28efacf864736f6c63430007060033df8b4c520ffe197c5343c6f5aec59570151ef9a492f2c624fd45ddde6135ec42df8b4c520ffe197c5343c6f5aec59570151ef9a492f2c624fd45ddde6135ec42a26469706673582212200c1c40bd409e4930ee25e7756a4dc74c5f5e39cf77b30fbdead3f9b4786eb59364736f6c63430007060033",
  "immutableReferences": {},
  "source": "// SPDX-License-Identifier: MIT\npragma solidity ^0.7.6;\n\nimport \"../interfaces/IStakeTONProxyFactory.sol\";\nimport {StakeTONProxy} from \"../stake/StakeTONProxy.sol\";\n\n/// @title A factory that creates a stakeTONProxy\ncontract StakeTONProxyFactory is IStakeTONProxyFactory {\n    bytes32 public constant ADMIN_ROLE = keccak256(\"ADMIN\");\n\n    /// @dev Create a StakeTONProxy that can stake TON.\n    /// @param _logic the logic contract address used in proxy\n    /// @param _addr the array of [token, paytoken, vault, defiAddr]\n    /// @param _registry the registry address\n    /// @param _intdata the array of [saleStartBlock, startBlock, periodBlocks]\n    /// @param owner  owner address\n    /// @return contract address\n    function deploy(\n        address _logic,\n        address[4] calldata _addr,\n        address _registry,\n        uint256[3] calldata _intdata,\n        address owner\n    ) external override returns (address) {\n        StakeTONProxy proxy = new StakeTONProxy(_logic);\n\n        require(\n            address(proxy) != address(0),\n            \"StakeTONProxyFactory: proxy zero\"\n        );\n\n        proxy.setInit(_addr, _registry, _intdata);\n\n        proxy.grantRole(ADMIN_ROLE, owner);\n        proxy.revokeRole(ADMIN_ROLE, address(this));\n\n        return address(proxy);\n    }\n}\n",
  "sourcePath": "/Users/zena/ico2.0/ico20-contracts/contracts/factory/StakeTONProxyFactory.sol",
  "compiler": {
    "name": "solc",
    "version": "0.7.6+commit.7338295f.Emscripten.clang"
  },
  "schemaVersion": "3.3.4",
  "updatedAt": "2021-06-15T01:36:53.759Z",
  "devdoc": {
    "kind": "dev",
    "methods": {
      "deploy(address,address[4],address,uint256[3],address)": {
        "details": "Create a StakeTONProxy that can stake TON.",
        "params": {
          "_addr": "the array of [token, paytoken, vault, defiAddr]",
          "_intdata": "the array of [saleStartBlock, startBlock, periodBlocks]",
          "_logic": "the logic contract address used in proxy",
          "_registry": "the registry address",
          "owner": "owner address"
        },
        "returns": {
          "_0": "contract address"
        }
      }
    },
    "title": "A factory that creates a stakeTONProxy",
    "version": 1
  },
  "userdoc": {
    "kind": "user",
    "methods": {},
    "version": 1
  }
}