{
  "contractName": "Stake1Storage",
  "abi": [
    {
      "inputs": [],
      "name": "endBlock",
      "outputs": [
        {
          "internalType": "uint256",
          "name": "",
          "type": "uint256"
        }
      ],
      "stateMutability": "view",
      "type": "function"
    },
    {
      "inputs": [],
      "name": "paytoken",
      "outputs": [
        {
          "internalType": "address",
          "name": "",
          "type": "address"
        }
      ],
      "stateMutability": "view",
      "type": "function"
    },
    {
      "inputs": [],
      "name": "rewardClaimedTotal",
      "outputs": [
        {
          "internalType": "uint256",
          "name": "",
          "type": "uint256"
        }
      ],
      "stateMutability": "view",
      "type": "function"
    },
    {
      "inputs": [],
      "name": "saleStartBlock",
      "outputs": [
        {
          "internalType": "uint256",
          "name": "",
          "type": "uint256"
        }
      ],
      "stateMutability": "view",
      "type": "function"
    },
    {
      "inputs": [],
      "name": "stakeRegistry",
      "outputs": [
        {
          "internalType": "address",
          "name": "",
          "type": "address"
        }
      ],
      "stateMutability": "view",
      "type": "function"
    },
    {
      "inputs": [],
      "name": "startBlock",
      "outputs": [
        {
          "internalType": "uint256",
          "name": "",
          "type": "uint256"
        }
      ],
      "stateMutability": "view",
      "type": "function"
    },
    {
      "inputs": [],
      "name": "token",
      "outputs": [
        {
          "internalType": "address",
          "name": "",
          "type": "address"
        }
      ],
      "stateMutability": "view",
      "type": "function"
    },
    {
      "inputs": [],
      "name": "totalStakedAmount",
      "outputs": [
        {
          "internalType": "uint256",
          "name": "",
          "type": "uint256"
        }
      ],
      "stateMutability": "view",
      "type": "function"
    },
    {
      "inputs": [],
      "name": "totalStakers",
      "outputs": [
        {
          "internalType": "uint256",
          "name": "",
          "type": "uint256"
        }
      ],
      "stateMutability": "view",
      "type": "function"
    },
    {
      "inputs": [
        {
          "internalType": "address",
          "name": "",
          "type": "address"
        }
      ],
      "name": "userStaked",
      "outputs": [
        {
          "internalType": "uint256",
          "name": "amount",
          "type": "uint256"
        },
        {
          "internalType": "uint256",
          "name": "claimedBlock",
          "type": "uint256"
        },
        {
          "internalType": "uint256",
          "name": "claimedAmount",
          "type": "uint256"
        },
        {
          "internalType": "uint256",
          "name": "releasedBlock",
          "type": "uint256"
        },
        {
          "internalType": "uint256",
          "name": "releasedAmount",
          "type": "uint256"
        },
        {
          "internalType": "uint256",
          "name": "releasedTOSAmount",
          "type": "uint256"
        },
        {
          "internalType": "bool",
          "name": "released",
          "type": "bool"
        }
      ],
      "stateMutability": "view",
      "type": "function"
    },
    {
      "inputs": [],
      "name": "vault",
      "outputs": [
        {
          "internalType": "address",
          "name": "",
          "type": "address"
        }
      ],
      "stateMutability": "view",
      "type": "function"
    },
    {
      "inputs": [
        {
          "internalType": "address",
          "name": "user",
          "type": "address"
        }
      ],
      "name": "getUserStaked",
      "outputs": [
        {
          "internalType": "uint256",
          "name": "amount",
          "type": "uint256"
        },
        {
          "internalType": "uint256",
          "name": "claimedBlock",
          "type": "uint256"
        },
        {
          "internalType": "uint256",
          "name": "claimedAmount",
          "type": "uint256"
        },
        {
          "internalType": "uint256",
          "name": "releasedBlock",
          "type": "uint256"
        },
        {
          "internalType": "uint256",
          "name": "releasedAmount",
          "type": "uint256"
        },
        {
          "internalType": "uint256",
          "name": "releasedTOSAmount",
          "type": "uint256"
        },
        {
          "internalType": "bool",
          "name": "released",
          "type": "bool"
        }
      ],
      "stateMutability": "view",
      "type": "function"
    },
    {
      "inputs": [],
      "name": "infos",
      "outputs": [
        {
          "internalType": "address",
          "name": "",
          "type": "address"
        },
        {
          "internalType": "address",
          "name": "",
          "type": "address"
        },
        {
          "internalType": "uint256[3]",
          "name": "",
          "type": "uint256[3]"
        },
        {
          "internalType": "uint256",
          "name": "",
          "type": "uint256"
        },
        {
          "internalType": "uint256",
          "name": "",
          "type": "uint256"
        },
        {
          "internalType": "uint256",
          "name": "",
          "type": "uint256"
        }
      ],
      "stateMutability": "view",
      "type": "function"
    }
  ],
  "bytecode": "0x608060405234801561001057600080fd5b506103c9806100206000396000f3fe608060405234801561001057600080fd5b50600436106100bf5760003560e01c8063869890381161007c57806386989038146101225780639a88be2f1461012a578063acc3a93914610198578063b2d4d6a3146101f8578063dac3fc3f14610200578063fbfa77cf14610226578063fc0c546a1461022e576100bf565b8063083c6323146100c457806320027275146100de57806343b0934a146100e657806348cd4cb11461010a578063567e98f914610112578063683048351461011a575b600080fd5b6100cc610236565b60408051918252519081900360200190f35b6100cc61023c565b6100ee610242565b604080516001600160a01b039092168252519081900360200190f35b6100cc610251565b6100cc610257565b6100ee61025d565b6100cc61026c565b610132610272565b604080516001600160a01b0380891682528716602082015290810185606080838360005b8381101561016e578181015183820152602001610156565b50505050905001848152602001838152602001828152602001965050505050505060405180910390f35b6101be600480360360208110156101ae57600080fd5b50356001600160a01b03166102c8565b604080519788526020880196909652868601949094526060860192909252608085015260a0840152151560c0830152519081900360e00190f35b6100cc610308565b6101be6004803603602081101561021657600080fd5b50356001600160a01b031661030e565b6100ee610357565b6100ee610366565b60065481565b60045481565b6002546001600160a01b031681565b60055481565b60085481565b6001546001600160a01b031681565b600a5481565b60008061027d610375565b5050600254600354604080516060810182526004548152600554602082015260065491810191909152600754600854600a546001600160a01b03958616979590941695509193909290565b6009602052600090815260409020805460018201546002830154600384015460048501546005860154600690960154949593949293919290919060ff1687565b60075481565b6001600160a01b03166000908152600960205260409020805460018201546002830154600384015460048501546005860154600690960154949693959294919390929160ff1690565b6003546001600160a01b031681565b6000546001600160a01b031681565b6040518060600160405280600390602082028036833750919291505056fea2646970667358221220e733110c778d70ead0006a0ec54ed33f0ab7cae2d81501c21cc73f23a8cefc3f64736f6c63430007060033",
  "immutableReferences": {},
  "source": "//SPDX-License-Identifier: Unlicense\npragma solidity ^0.7.6;\n\n//import \"../interfaces/IStake1Storage.sol\";\nimport \"../libraries/LibTokenStake1.sol\";\n\n/// @title The base storage of stakeContract\ncontract Stake1Storage {\n    /// @dev reward token : TOS\n    address public token;\n\n    /// @dev registry\n    address public stakeRegistry;\n\n    /// @dev paytoken is the token that the user stakes. ( if paytoken is ether, paytoken is address(0) )\n    address public paytoken;\n\n    /// @dev A vault that holds tos rewards.\n    address public vault;\n\n    /// @dev the start block for sale.\n    uint256 public saleStartBlock;\n\n    /// @dev the staking start block, once staking starts, users can no longer apply for staking.\n    uint256 public startBlock;\n\n    /// @dev the staking end block.\n    uint256 public endBlock;\n\n    /// @dev the total amount claimed\n    uint256 public rewardClaimedTotal;\n\n    /// @dev the total staked amount\n    uint256 public totalStakedAmount;\n\n    /// @dev information staked by user\n    mapping(address => LibTokenStake1.StakedAmount) public userStaked;\n\n    /// @dev total stakers\n    uint256 public totalStakers;\n\n    uint256 internal _lock;\n\n    /// @dev user's staked information\n    function getUserStaked(address user)\n        external\n        view\n        returns (\n            uint256 amount,\n            uint256 claimedBlock,\n            uint256 claimedAmount,\n            uint256 releasedBlock,\n            uint256 releasedAmount,\n            uint256 releasedTOSAmount,\n            bool released\n        )\n    {\n        return (\n            userStaked[user].amount,\n            userStaked[user].claimedBlock,\n            userStaked[user].claimedAmount,\n            userStaked[user].releasedBlock,\n            userStaked[user].releasedAmount,\n            userStaked[user].releasedTOSAmount,\n            userStaked[user].released\n        );\n    }\n\n    /// @dev Give the infomation of this stakeContracts\n    /// @return paytoken, vault, [saleStartBlock, startBlock, endBlock], rewardClaimedTotal, totalStakedAmount, totalStakers\n    function infos()\n        external\n        view\n        returns (\n            address,\n            address,\n            uint256[3] memory,\n            uint256,\n            uint256,\n            uint256\n        )\n    {\n        return (\n            paytoken,\n            vault,\n            [saleStartBlock, startBlock, endBlock],\n            rewardClaimedTotal,\n            totalStakedAmount,\n            totalStakers\n        );\n    }\n}\n",
  "sourcePath": "/Users/zena/ico2.0/ico20-contracts/contracts/stake/Stake1Storage.sol",
  "compiler": {
    "name": "solc",
    "version": "0.7.6+commit.7338295f.Emscripten.clang"
  },
  "schemaVersion": "3.3.4",
  "updatedAt": "2021-06-15T10:41:10.308Z",
  "devdoc": {
    "kind": "dev",
    "methods": {
      "getUserStaked(address)": {
        "details": "user's staked information"
      },
      "infos()": {
        "details": "Give the infomation of this stakeContracts",
        "returns": {
          "_0": "paytoken, vault, [saleStartBlock, startBlock, endBlock], rewardClaimedTotal, totalStakedAmount, totalStakers"
        }
      }
    },
    "stateVariables": {
      "endBlock": {
        "details": "the staking end block."
      },
      "paytoken": {
        "details": "paytoken is the token that the user stakes. ( if paytoken is ether, paytoken is address(0) )"
      },
      "rewardClaimedTotal": {
        "details": "the total amount claimed"
      },
      "saleStartBlock": {
        "details": "the start block for sale."
      },
      "stakeRegistry": {
        "details": "registry"
      },
      "startBlock": {
        "details": "the staking start block, once staking starts, users can no longer apply for staking."
      },
      "token": {
        "details": "reward token : TOS"
      },
      "totalStakedAmount": {
        "details": "the total staked amount"
      },
      "totalStakers": {
        "details": "total stakers"
      },
      "userStaked": {
        "details": "information staked by user"
      },
      "vault": {
        "details": "A vault that holds tos rewards."
      }
    },
    "title": "The base storage of stakeContract",
    "version": 1
  },
  "userdoc": {
    "kind": "user",
    "methods": {},
    "version": 1
  }
}