{
  "contractName": "StakeProxyStorage",
  "abi": [
    {
      "inputs": [],
      "name": "depositManager",
      "outputs": [
        {
          "internalType": "address",
          "name": "",
          "type": "address"
        }
      ],
      "stateMutability": "view",
      "type": "function"
    },
    {
      "inputs": [],
      "name": "fld",
      "outputs": [
        {
          "internalType": "address",
          "name": "",
          "type": "address"
        }
      ],
      "stateMutability": "view",
      "type": "function"
    },
    {
      "inputs": [],
      "name": "secondsPerBlock",
      "outputs": [
        {
          "internalType": "uint256",
          "name": "",
          "type": "uint256"
        }
      ],
      "stateMutability": "view",
      "type": "function"
    },
    {
      "inputs": [],
      "name": "seigManager",
      "outputs": [
        {
          "internalType": "address",
          "name": "",
          "type": "address"
        }
      ],
      "stateMutability": "view",
      "type": "function"
    },
    {
      "inputs": [],
      "name": "stakeFactory",
      "outputs": [
        {
          "internalType": "contract IStakeFactory",
          "name": "",
          "type": "address"
        }
      ],
      "stateMutability": "view",
      "type": "function"
    },
    {
      "inputs": [],
      "name": "stakeRegistry",
      "outputs": [
        {
          "internalType": "contract IStakeRegistry",
          "name": "",
          "type": "address"
        }
      ],
      "stateMutability": "view",
      "type": "function"
    },
    {
      "inputs": [],
      "name": "ton",
      "outputs": [
        {
          "internalType": "address",
          "name": "",
          "type": "address"
        }
      ],
      "stateMutability": "view",
      "type": "function"
    },
    {
      "inputs": [],
      "name": "wton",
      "outputs": [
        {
          "internalType": "address",
          "name": "",
          "type": "address"
        }
      ],
      "stateMutability": "view",
      "type": "function"
    }
  ],
  "bytecode": "0x608060405234801561001057600080fd5b506101a0806100206000396000f3fe608060405234801561001057600080fd5b50600436106100885760003560e01c80637a7d49371161005b5780637a7d4937146100c95780638d62d949146100e3578063cc48b947146100eb578063dd196f18146100f357610088565b806333bd2a491461008d57806368304835146100b15780636c7ac9d8146100b95780636fb7f558146100c1575b600080fd5b6100956100fb565b604080516001600160a01b039092168252519081900360200190f35b61009561010a565b610095610119565b610095610128565b6100d1610137565b60408051918252519081900360200190f35b61009561013d565b61009561014c565b61009561015b565b6003546001600160a01b031681565b6000546001600160a01b031681565b6006546001600160a01b031681565b6007546001600160a01b031681565b60025481565b6005546001600160a01b031681565b6004546001600160a01b031681565b6001546001600160a01b03168156fea2646970667358221220048561bd51ee73dffa73c720a78770f1b314186631290e9bf6c963880653140a64736f6c63430007060033",
  "immutableReferences": {},
  "source": "//SPDX-License-Identifier: Unlicense\npragma solidity ^0.7.6;\n\nimport {IStakeFactory} from \"../interfaces/IStakeFactory.sol\";\nimport {IStakeRegistry} from \"../interfaces/IStakeRegistry.sol\";\n\ncontract StakeProxyStorage {\n    IStakeRegistry public stakeRegistry;\n    IStakeFactory public stakeFactory;\n    uint256 public secondsPerBlock;\n    address public fld;\n\n    address public ton;\n    address public wton;\n    address public depositManager;\n    address public seigManager;\n\n    modifier validStakeRegistry() {\n        require(\n            address(stakeRegistry) != address(0),\n            \"StakeStorage: stakeRegistry is zero\"\n        );\n        _;\n    }\n\n    modifier validStakeFactory() {\n        require(\n            address(stakeFactory) != address(0),\n            \"StakeStorage: invalid stakeFactory\"\n        );\n        _;\n    }\n}\n",
  "sourcePath": "/Users/kadyrbeknarmamatov/code/ico20-contracts/contracts/stake/StakeProxyStorage.sol",
  "compiler": {
    "name": "solc",
    "version": "0.7.6+commit.7338295f.Emscripten.clang"
  },
  "schemaVersion": "3.4.0",
  "updatedAt": "2021-05-18T08:31:00.129Z",
  "devdoc": {
    "kind": "dev",
    "methods": {},
    "version": 1
  },
  "userdoc": {
    "kind": "user",
    "methods": {},
    "version": 1
  }
}