{
  "contractName": "StakeFactory",
  "abi": [
    {
      "inputs": [],
      "name": "ADMIN_ROLE",
      "outputs": [
        {
          "internalType": "bytes32",
          "name": "",
          "type": "bytes32"
        }
      ],
      "stateMutability": "view",
      "type": "function"
    },
    {
      "inputs": [
        {
          "internalType": "uint256",
          "name": "_pahse",
          "type": "uint256"
        },
        {
          "internalType": "address",
          "name": "_vault",
          "type": "address"
        },
        {
          "internalType": "string",
          "name": "_name",
          "type": "string"
        },
        {
          "internalType": "address",
          "name": "_token",
          "type": "address"
        },
        {
          "internalType": "address",
          "name": "_paytoken",
          "type": "address"
        },
        {
          "internalType": "uint256",
          "name": "_period",
          "type": "uint256"
        },
        {
          "internalType": "address[4]",
          "name": "tokamakAddr",
          "type": "address[4]"
        }
      ],
      "name": "deploy",
      "outputs": [
        {
          "internalType": "address",
          "name": "",
          "type": "address"
        }
      ],
      "stateMutability": "nonpayable",
      "type": "function"
    }
  ],
  "bytecode": "0x608060405234801561001057600080fd5b506159c1806100206000396000f3fe608060405234801561001057600080fd5b50600436106100365760003560e01c806375b238fc1461003b578063dec0057414610055575b600080fd5b610043610177565b60408051918252519081900360200190f35b61015b600480360361014081101561006c57600080fd5b8135916001600160a01b036020820135169181019060608101604082013564010000000081111561009c57600080fd5b8201836020820111156100ae57600080fd5b803590602001918460018302840111640100000000831117156100d057600080fd5b91908080601f01602080910402602001604051908101604052809392919081815260200183838082843760009201919091525050604080516080818101835294976001600160a01b0387358116986020890135909116979384013596919550935060e083019260600190600490839083908082843760009201919091525091945061019b9350505050565b604080516001600160a01b039092168252519081900360200190f35b7fdf8b4c520ffe197c5343c6f5aec59570151ef9a492f2c624fd45ddde6135ec4281565b60006001600160a01b038716158015906101b55750876001145b610206576040805162461bcd60e51b815260206004820152601e60248201527f5374616b65466163746f72793a206465706c6f7920696e6974206661696c0000604482015290519081900360640190fd5b60008790506000816001600160a01b031663200272756040518163ffffffff1660e01b815260040160206040518083038186803b15801561024657600080fd5b505afa15801561025a573d6000803e3d6000fd5b505050506040513d602081101561027057600080fd5b505160408051634b5e7cd560e01b815290519192506000916001600160a01b03851691634b5e7cd5916004808301926020929190829003018186803b1580156102b857600080fd5b505afa1580156102cc573d6000803e3d6000fd5b505050506040513d60208110156102e257600080fd5b50516040805163b97af0db60e01b815290519192506000916001600160a01b0386169163b97af0db916004808301926020929190829003018186803b15801561032a57600080fd5b505afa15801561033e573d6000803e3d6000fd5b505050506040513d602081101561035457600080fd5b505160408051639d84ca3560e01b815290519192506000916001600160a01b03871691639d84ca35916004808301926020929190829003018186803b15801561039c57600080fd5b505afa1580156103b0573d6000803e3d6000fd5b505050506040513d60208110156103c657600080fd5b5051905082841080156103d95750600083115b61042a576040805162461bcd60e51b815260206004820152601960248201527f5374616b65466163746f72793a207374617274206572726f7200000000000000604482015290519081900360640190fd5b8161076757600060405161043d9061088a565b604051809103906000f080158015610459573d6000803e3d6000fd5b50604080516339466de560e11b81526001600160a01b038e811660048301528d811660248301528981166044830152606482018990526084820188905260a482018d905291519293509083169163728cdbca9160c48082019260009290919082900301818387803b1580156104cd57600080fd5b505af11580156104e1573d6000803e3d6000fd5b5050895160208b01516040808d015160608e01518251634b2e0ebd60e01b81526001600160a01b03958616600482015293851660248501529084166044840152831660648301528683166084830152519185169350634b2e0ebd925060a48082019260009290919082900301818387803b15801561055e57600080fd5b505af1158015610572573d6000803e3d6000fd5b50505050856001600160a01b0316630962ccfc8d838c6040518463ffffffff1660e01b81526004018080602001846001600160a01b03168152602001838152602001828103825285818151815260200191508051906020019080838360005b838110156105e95781810151838201526020016105d1565b50505050905090810190601f1680156106165780820380516001836020036101000a031916815260200191505b50945050505050600060405180830381600087803b15801561063757600080fd5b505af115801561064b573d6000803e3d6000fd5b505060408051632f2ff15d60e01b81527fdf8b4c520ffe197c5343c6f5aec59570151ef9a492f2c624fd45ddde6135ec42600482015233602482015290516001600160a01b0385169350632f2ff15d9250604480830192600092919082900301818387803b1580156106bc57600080fd5b505af11580156106d0573d6000803e3d6000fd5b50506040805163d547741f60e01b81527fdf8b4c520ffe197c5343c6f5aec59570151ef9a492f2c624fd45ddde6135ec42600482015230602482015290516001600160a01b038516935063d547741f9250604480830192600092919082900301818387803b15801561074157600080fd5b505af1158015610755573d6000803e3d6000fd5b5050505080965050505050505061087f565b816002141561087557600060405161077e90610897565b604051809103906000f08015801561079a573d6000803e3d6000fd5b50604080516339466de560e11b81526001600160a01b038e811660048301528d811660248301528981166044830152606482018990526084820188905260a482018d905291519293509083169163728cdbca9160c48082019260009290919082900301818387803b15801561080e57600080fd5b505af1158015610822573d6000803e3d6000fd5b50505050806001600160a01b03166385fb34ce836040518263ffffffff1660e01b815260040180826001600160a01b03168152602001915050600060405180830381600087803b15801561055e57600080fd5b6000955050505050505b979650505050505050565b6133b0806108a583390190565b611d3780613c558339019056fe60806040523480156200001157600080fd5b50620000246301ffc9a760e01b62000072565b62000036632139e50b60e11b62000072565b620000516000805160206200339083398151915280620000f7565b6200006c600080516020620033908339815191523362000149565b6200025f565b6001600160e01b03198082161415620000d2576040805162461bcd60e51b815260206004820152601c60248201527f4552433136353a20696e76616c696420696e7465726661636520696400000000604482015290519081900360640190fd5b6001600160e01b0319166000908152600b60205260409020805460ff19166001179055565b6000828152600a6020526040808220600201549051839285917fbd79b86ffe0ab8e8776151514217cd7cacd52c909f66475c3af44e129f0b00ff9190a46000918252600a602052604090912060020155565b62000155828262000159565b5050565b6000828152600a602090815260409091206200018091839062002b96620001d4821b17901c565b15620001555762000190620001f4565b6001600160a01b0316816001600160a01b0316837f2f8788117e7eff1d82e926ec794901d17c78024a50270940304540a733656f0d60405160405180910390a45050565b6000620001eb836001600160a01b038416620001f8565b90505b92915050565b3390565b600062000206838362000247565b6200023e57508154600181810184556000848152602080822090930184905584548482528286019093526040902091909155620001ee565b506000620001ee565b60009081526001919091016020526040902054151590565b613121806200026f6000396000f3fe60806040526004361061026b5760003560e01c8063735de9f711610144578063ca15c873116100b6578063eeb8112f1161007a578063eeb8112f14610943578063f30eb95814610976578063f5832e72146109a9578063fa3733d6146109dc578063fbfa77cf14610a17578063fc0c546a14610a2c5761027b565b8063ca15c8731461085f578063cc48b94714610889578063ce681ce61461089e578063d547741f146108d7578063e9ace833146109105761027b565b806392ea3b4c1161010857806392ea3b4c14610768578063a217fddf1461077d578063a694fc3a14610792578063acc3a939146107af578063b2d4d6a314610817578063bea9849e1461082c5761027b565b8063735de9f7146106c057806375b238fc146106d55780638d62d949146106ea5780639010d07c146106ff57806391d148541461072f5761027b565b80634273ca16116101dd578063567e98f9116101a1578063567e98f9146105c6578063610b0663146105db5780636c7ac9d81461060e5780636fb7f5581461062357806371def0b314610638578063728cdbca1461066b5761027b565b80634273ca161461047957806343b0934a1461051657806348cd4cb1146105475780634b2e0ebd1461055c5780634e71d92d146105b15761027b565b8063200272751161022f5780632002727514610389578063248a9ca31461039e5780632f2ff15d146103c857806336568abe146104015780633ccfd60b1461043a5780633cdcdbe71461044f5761027b565b806301ffc9a714610283578063065c4313146102cb578063083c632314610304578063092a64c41461032b5780630bfb3841146103405761027b565b3661027b5761027934610a41565b005b610279610c01565b34801561028f57600080fd5b506102b7600480360360208110156102a657600080fd5b50356001600160e01b031916610c78565b604080519115158252519081900360200190f35b3480156102d757600080fd5b50610279600480360360408110156102ee57600080fd5b506001600160a01b038135169060200135610c97565b34801561031057600080fd5b50610319611016565b60408051918252519081900360200190f35b34801561033757600080fd5b5061031961101c565b34801561034c57600080fd5b506102b76004803603608081101561036357600080fd5b506001600160a01b03813581169160208101358216916040820135169060600135611022565b34801561039557600080fd5b506103196111e2565b3480156103aa57600080fd5b50610319600480360360208110156103c157600080fd5b50356111e8565b3480156103d457600080fd5b50610279600480360360408110156103eb57600080fd5b50803590602001356001600160a01b03166111fd565b34801561040d57600080fd5b506102796004803603604081101561042457600080fd5b50803590602001356001600160a01b0316611269565b34801561044657600080fd5b506102796112ca565b34801561045b57600080fd5b506102796004803603602081101561047257600080fd5b503561156b565b34801561048557600080fd5b506102b76004803603608081101561049c57600080fd5b6001600160a01b038235811692602081013590911691604082013591908101906080810160608201356401000000008111156104d757600080fd5b8201836020820111156104e957600080fd5b8035906020019184600183028401116401000000008311171561050b57600080fd5b509092509050611644565b34801561052257600080fd5b5061052b61171d565b604080516001600160a01b039092168252519081900360200190f35b34801561055357600080fd5b5061031961172c565b34801561056857600080fd5b50610279600480360360a081101561057f57600080fd5b506001600160a01b03813581169160208101358216916040820135811691606081013582169160809091013516611732565b3480156105bd57600080fd5b5061027961186b565b3480156105d257600080fd5b50610319611bf7565b3480156105e757600080fd5b50610319600480360360208110156105fe57600080fd5b50356001600160a01b0316611bfd565b34801561061a57600080fd5b5061052b611f89565b34801561062f57600080fd5b5061052b611f98565b34801561064457600080fd5b506102796004803603602081101561065b57600080fd5b50356001600160a01b0316611fa7565b34801561067757600080fd5b50610279600480360360c081101561068e57600080fd5b506001600160a01b03813581169160208101358216916040820135169060608101359060808101359060a00135612121565b3480156106cc57600080fd5b5061052b61221c565b3480156106e157600080fd5b5061031961222b565b3480156106f657600080fd5b5061052b61223d565b34801561070b57600080fd5b5061052b6004803603604081101561072257600080fd5b508035906020013561224c565b34801561073b57600080fd5b506102b76004803603604081101561075257600080fd5b50803590602001356001600160a01b031661226b565b34801561077457600080fd5b5061052b612283565b34801561078957600080fd5b50610319612292565b610279600480360360208110156107a857600080fd5b5035610a41565b3480156107bb57600080fd5b506107e2600480360360208110156107d257600080fd5b50356001600160a01b0316612297565b6040805196875260208701959095528585019390935260608501919091526080840152151560a0830152519081900360c00190f35b34801561082357600080fd5b506103196122cf565b34801561083857600080fd5b506102796004803603602081101561084f57600080fd5b50356001600160a01b03166122d5565b34801561086b57600080fd5b506103196004803603602081101561088257600080fd5b5035612405565b34801561089557600080fd5b5061052b61241c565b3480156108aa57600080fd5b50610279600480360360408110156108c157600080fd5b506001600160a01b03813516906020013561242b565b3480156108e357600080fd5b50610279600480360360408110156108fa57600080fd5b50803590602001356001600160a01b0316612640565b34801561091c57600080fd5b506103196004803603602081101561093357600080fd5b50356001600160a01b0316612699565b34801561094f57600080fd5b506103196004803603602081101561096657600080fd5b50356001600160a01b0316612782565b34801561098257600080fd5b506103196004803603602081101561099957600080fd5b50356001600160a01b0316612839565b3480156109b557600080fd5b50610319600480360360208110156109cc57600080fd5b50356001600160a01b03166128f0565b3480156109e857600080fd5b50610279600480360360408110156109ff57600080fd5b506001600160a01b03813516906020013515156129a7565b348015610a2357600080fd5b5061052b612b78565b348015610a3857600080fd5b5061052b612b87565b6001546001600160a01b0316158015610a5a5750600034115b80610a7a57506001546001600160a01b031615801590610a7a5750600081115b610ac4576040805162461bcd60e51b81526020600482015260166024820152755374616b65313a20616d6f756e74206973207a65726f60501b604482015290519081900360640190fd5b6003544310158015610ad95750600454600354105b610b2a576040805162461bcd60e51b815260206004820152601d60248201527f5374616b65313a20706572696f6420697320756e617661696c61626c65000000604482015290519081900360640190fd5b60015481906001600160a01b0316610b3f5750345b33600090815260086020526040902080548201815560078054830190556001546001600160a01b031615610bfc57600154604080516323b872dd60e01b81523360048201523060248201526044810185905290516001600160a01b03909216916323b872dd916064808201926020929091908290030181600087803b158015610bc757600080fd5b505af1158015610bdb573d6000803e3d6000fd5b505050506040513d6020811015610bf157600080fd5b5051610bfc57600080fd5b505050565b6000610c0b61221c565b9050346001600160a01b038216610c535760405162461bcd60e51b81526004018080602001828103825260248152602001806130766024913960400191505060405180910390fd5b366000803760008036600084865af13d6000803e808015610c73573d6000f35b3d6000fd5b6001600160e01b0319166000908152600b602052604090205460ff1690565b610caf600080516020612fc08339815191523361226b565b610cea5760405162461bcd60e51b81526004018080602001828103825260258152602001806130036025913960400191505060405180910390fd5b600c546001600160a01b031615801590610d0e5750600d546001600160a01b031615155b8015610d245750600e546001600160a01b031615155b8015610d3a5750600f546001600160a01b031615155b8015610d4e57506001600160a01b03821615155b8015610d5a5750600081115b610d99576040805162461bcd60e51b815260206004820152601b6024820152600080516020612fa0833981519152604482015290519081900360640190fd5b6010546001600160a01b0316610dc957601080546001600160a01b0319166001600160a01b038416179055610ec1565b600f54604080516367265c3b60e11b81526001600160a01b0385811660048301523060248301529151600093929092169163ce4cb87691604480820192602092909190829003018186803b158015610e2057600080fd5b505afa158015610e34573d6000803e3d6000fd5b505050506040513d6020811015610e4a57600080fd5b5051905080610e7357601080546001600160a01b0319166001600160a01b038516179055610ebf565b6010546001600160a01b03848116911614610ebf5760405162461bcd60e51b81526004018080602001828103825260238152602001806130c96023913960400191505060405180910390fd5b505b600e54604080516001600160a01b0392831660208083019190915285841682840152825180830384018152606080840194859052600c54600d5463cae9ca5160e01b909652948616606485018181526084860189905260a48601928352835160c487015283519397969096169563cae9ca5195919489948994929360e4019185019080838360005b83811015610f61578181015183820152602001610f49565b50505050905090810190601f168015610f8e5780820380516001836020036101000a031916815260200191505b50945050505050602060405180830381600087803b158015610faf57600080fd5b505af1158015610fc3573d6000803e3d6000fd5b505050506040513d6020811015610fd957600080fd5b5051610bfc5760405162461bcd60e51b8152600401808060200182810382526022815260200180612ef76022913960400191505060405180910390fd5b60055481565b60125481565b6001546000906001600160a01b0386811691161480156110425750600082115b801561105657506001600160a01b03831630145b6110a7576040805162461bcd60e51b815260206004820181905260248201527f5374616b65313a207374616b654f6e417070726f766520696e6974206661696c604482015290519081900360640190fd5b60035443101580156110bc5750600454600354105b6110f75760405162461bcd60e51b8152600401808060200182810382526026815260200180612f196026913960400191505060405180910390fd5b6001600160a01b038085166000818152600860209081526040808320805488018155600780548901905581516323b872dd60e01b81526004810195909552888616602486015260448501889052905190948a16936323b872dd9360648083019493928390030190829087803b15801561116f57600080fd5b505af1158015611183573d6000803e3d6000fd5b505050506040513d602081101561119957600080fd5b50516111d65760405162461bcd60e51b8152600401808060200182810382526031815260200180612f3f6031913960400191505060405180910390fd5b50600195945050505050565b60035481565b6000908152600a602052604090206002015490565b6000828152600a60205260409020600201546112209061121b612bab565b61226b565b61125b5760405162461bcd60e51b815260040180806020018281038252602f815260200180612ec8602f913960400191505060405180910390fd5b6112658282612baf565b5050565b611271612bab565b6001600160a01b0316816001600160a01b0316146112c05760405162461bcd60e51b815260040180806020018281038252602f81526020018061309a602f913960400191505060405180910390fd5b6112658282612c18565b60006005541180156112dd575043600554105b61132e576040805162461bcd60e51b815260206004820152601960248201527f5374616b65313a206f6e207374616b696e6720706572696f6400000000000000604482015290519081900360640190fd5b3360009081526008602052604090208054801580159061135357508154600483015411155b61138e5760405162461bcd60e51b8152600401808060200182810382526025815260200180612e816025913960400191505060405180910390fd5b8154600483015543600383015560058201805460ff19166001908117909155546001600160a01b0316611458573080318211156113ca57600080fd5b604051600090339084908381818185875af1925050503d806000811461140c576040519150601f19603f3d011682016040523d82523d6000602084013e611411565b606091505b50509050806114515760405162461bcd60e51b81526004018080602001828103825260218152602001806130286021913960400191505060405180910390fd5b5050611529565b6001546040805163a9059cbb60e01b81523360048201526024810184905290516001600160a01b039092169163a9059cbb916044808201926020929091908290030181600087803b1580156114ac57600080fd5b505af11580156114c0573d6000803e3d6000fd5b505050506040513d60208110156114d657600080fd5b5051611529576040805162461bcd60e51b815260206004820152601e60248201527f5374616b65313a207769746864726177207472616e73666572206661696c0000604482015290519081900360640190fd5b604080518281524360208201528151339230927fc2b4a290c20fb28939d29f102514fbffd2b73c059ffba8b78250c94161d5fcc6929081900390910190a35050565b6001546011546040805163095ea7b360e01b81526001600160a01b039283166004820152602481018590529051919092169163095ea7b39160448083019260209291908290030181600087803b1580156115c457600080fd5b505af11580156115d8573d6000803e3d6000fd5b505050506040513d60208110156115ee57600080fd5b5051611641576040805162461bcd60e51b815260206004820152601b60248201527f596561726e56325374616b65723a20617070726f7665206661696c0000000000604482015290519081900360640190fd5b50565b60008060006116538585612c81565b9150915080861480156116775750816001600160a01b0316876001600160a01b0316145b6116b25760405162461bcd60e51b8152600401808060200182810382526023815260200180612fe06023913960400191505060405180910390fd5b6116be33898484611022565b61170f576040805162461bcd60e51b815260206004820152601d60248201527f5374616b65313a207374616b654f6e417070726f7665206661696c7320000000604482015290519081900360640190fd5b506001979650505050505050565b6001546001600160a01b031681565b60045481565b61174a600080516020612fc08339815191523361226b565b6117855760405162461bcd60e51b81526004018080602001828103825260258152602001806130036025913960400191505060405180910390fd5b6001600160a01b038516158015906117a557506001600160a01b03841615155b80156117b957506001600160a01b03831615155b80156117cd57506001600160a01b03821615155b61180c576040805162461bcd60e51b815260206004820152601b6024820152600080516020612fa0833981519152604482015290519081900360640190fd5b600c80546001600160a01b03199081166001600160a01b0397881617909155600d8054821695871695909517909455600e8054851693861693909317909255600f80548416918516919091179055601180549092169216919091179055565b600954156118b6576040805162461bcd60e51b815260206004820152601360248201527214dd185ad94c55985d5b1d0e881313d0d2d151606a1b604482015290519081900360640190fd5b600160095560025460408051631718ecd760e31b815290516001600160a01b039092169163b8c766b891600480820192602092909190829003018186803b15801561190057600080fd5b505afa158015611914573d6000803e3d6000fd5b505050506040513d602081101561192a57600080fd5b5051151560011461197b576040805162461bcd60e51b815260206004820152601660248201527529ba30b5b2989d103234b9b1b637b9b29039b0b6329760511b604482015290519081900360640190fd5b3360008181526008602052604081206005546001820154439291116119d9576040805162461bcd60e51b815260206004820152600f60248201526e14dd185ad94c4e8818db185a5b5959608a1b604482015290519081900360640190fd5b6119e284611bfd565b925060008311611a32576040805162461bcd60e51b81526020600482015260166024820152755374616b65313a20726577617264206973207a65726f60501b604482015290519081900360640190fd5b6002546040805163032f7adb60e61b815230600482015290516000926001600160a01b03169163cbdeb6c0916024808301926020929190829003018186803b158015611a7d57600080fd5b505afa158015611a91573d6000803e3d6000fd5b505050506040513d6020811015611aa757600080fd5b50516006549091508401811015611b05576040805162461bcd60e51b815260206004820152601c60248201527f5374616b65313a20746f74616c20726577617264206578636565647300000000604482015290519081900360640190fd5b60018201839055600280830180548601905560068054860190555460408051635569f64b60e11b81526001600160a01b038881166004830152602482018890529151919092169163aad3ec969160448083019260209291908290030181600087803b158015611b7357600080fd5b505af1158015611b87573d6000803e3d6000fd5b505050506040513d6020811015611b9d57600080fd5b5051611ba857600080fd5b604080518581526020810185905281516001600160a01b038816927f987d620f307ff6b94d58743cb7a7509f24071586a77759b77c2d4e29f75a2f9a928290030190a250506000600955505050565b60075481565b6004546000908190431080611c2857506001600160a01b038316600090815260086020526040902054155b80611c4f57506005546001600160a01b038416600090815260086020526040902060010154115b80611c7457506001600160a01b03831660009081526008602052604090206001015443105b15611c8157506000611f83565b6004546005546001600160a01b038516600090815260086020526040902060010154821015611cc9576001600160a01b03851660009081526008602052604090206001015491505b80431015611cd45750435b6002546040805163c1b422fd60e01b815290516000926001600160a01b03169163c1b422fd9160048083019286929190829003018186803b158015611d1857600080fd5b505afa158015611d2c573d6000803e3d6000fd5b505050506040513d6000823e601f3d908101601f191682016040526020811015611d5557600080fd5b8101908080516040519392919084640100000000821115611d7557600080fd5b908301906020820185811115611d8a57600080fd5b8251866020820283011164010000000082111715611da757600080fd5b82525081516020918201928201910280838360005b83811015611dd4578181015183820152602001611dbc565b505050509050016040525050509050600081511115611f7f576000806000600260009054906101000a90046001600160a01b03166001600160a01b031663d105bf856040518163ffffffff1660e01b815260040160206040518083038186803b158015611e4057600080fd5b505afa158015611e54573d6000803e3d6000fd5b505050506040513d6020811015611e6a57600080fd5b5051905060005b8451811015611f7a57848181518110611e8657fe5b60209081029190910181015160025460408051632f8deb1560e11b81526004810184905290519297506001600160a01b0390911692635f1bd62a92602480840193829003018186803b158015611edb57600080fd5b505afa158015611eef573d6000803e3d6000fd5b505050506040513d6020811015611f0557600080fd5b50519250838611611f42576001600160a01b038a16600090815260086020526040902054839088880384020281611f3857fe5b0488019750611f7a565b6001600160a01b038a16600090815260086020526040902054839088860384020281611f6a57fe5b0488019750839650600101611e71565b505050505b5050505b92915050565b600e546001600160a01b031681565b600f546001600160a01b031681565b611fbf600080516020612fc08339815191523361226b565b611ffa5760405162461bcd60e51b81526004018080602001828103825260258152602001806130036025913960400191505060405180910390fd5b600e546001600160a01b031680612046576040805162461bcd60e51b815260206004820152601b6024820152600080516020612fa0833981519152604482015290519081900360640190fd5b6010546001600160a01b038381169116146120925760405162461bcd60e51b81526004018080602001828103825260238152602001806130c96023913960400191505060405180910390fd5b600e5460408051636b2160b760e01b81526001600160a01b03858116600483015291519190921691636b2160b79160248083019260209291908290030181600087803b1580156120e157600080fd5b505af11580156120f5573d6000803e3d6000fd5b505050506040513d602081101561210b57600080fd5b5050601080546001600160a01b03191690555050565b612139600080516020612fc08339815191523361226b565b6121745760405162461bcd60e51b81526004018080602001828103825260258152602001806130036025913960400191505060405180910390fd5b6001600160a01b0386161580159061219457506001600160a01b03841615155b80156121a05750818311155b6121a957600080fd5b600080546001600160a01b038089166001600160a01b031992831617909255600180548884169083161790556002805492871692909116919091179055826121f457436003556121fa565b60038390555b81612208574360045561220e565b60048290555b600454016005555050505050565b6011546001600160a01b031690565b600080516020612fc083398151915281565b600d546001600160a01b031681565b6000828152600a602052604081206122649083612caf565b9392505050565b6000828152600a602052604081206122649083612cbb565b6010546001600160a01b031681565b600081565b600860205260009081526040902080546001820154600283015460038401546004850154600590950154939492939192909160ff1686565b60065481565b6122ed600080516020612fc08339815191523361226b565b6123285760405162461bcd60e51b81526004018080602001828103825260258152602001806130036025913960400191505060405180910390fd5b600354431061237e576040805162461bcd60e51b815260206004820152601e60248201527f546f6b616d616b5374616b65723a20416c726561647920737461727465640000604482015290519081900360640190fd5b6001600160a01b038116158015906123a457506011546001600160a01b03828116911614155b6123e3576040805162461bcd60e51b815260206004820152601b6024820152600080516020612fa0833981519152604482015290519081900360640190fd5b601180546001600160a01b0319166001600160a01b0392909216919091179055565b6000818152600a60205260408120611f8390612cd0565b600c546001600160a01b031681565b612443600080516020612fc08339815191523361226b565b61247e5760405162461bcd60e51b81526004018080602001828103825260258152602001806130036025913960400191505060405180910390fd5b600e546001600160a01b0316158015906124a557506010546001600160a01b038381169116145b80156124b15750600081115b6124f0576040805162461bcd60e51b815260206004820152601b6024820152600080516020612fa0833981519152604482015290519081900360640190fd5b600f54604080516367265c3b60e11b81526001600160a01b0385811660048301523060248301529151600093929092169163ce4cb87691604480820192602092909190829003018186803b15801561254757600080fd5b505afa15801561255b573d6000803e3d6000fd5b505050506040513d602081101561257157600080fd5b505160075490915082820310156125b95760405162461bcd60e51b815260040180806020018281038252602d815260200180613049602d913960400191505060405180910390fd5b600e546040805163da95ebf760e01b81526001600160a01b038681166004830152602482018690529151919092169163da95ebf79160448083019260209291908290030181600087803b15801561260f57600080fd5b505af1158015612623573d6000803e3d6000fd5b505050506040513d602081101561263957600080fd5b5050505050565b6000828152600a602052604090206002015461265e9061121b612bab565b6112c05760405162461bcd60e51b8152600401808060200182810382526030815260200180612f706030913960400191505060405180910390fd5b600e546000906001600160a01b0316158015906126be57506001600160a01b03821615155b6126fd576040805162461bcd60e51b815260206004820152601b6024820152600080516020612fa0833981519152604482015290519081900360640190fd5b600e5460408051632638fdf560e01b81526001600160a01b03858116600483015230602483015291519190921691632638fdf5916044808301926020929190829003018186803b15801561275057600080fd5b505afa158015612764573d6000803e3d6000fd5b505050506040513d602081101561277a57600080fd5b505192915050565b600f546000906001600160a01b0316158015906127a757506001600160a01b03821615155b6127e6576040805162461bcd60e51b815260206004820152601b6024820152600080516020612fa0833981519152604482015290519081900360640190fd5b600e5460408051639d91b87b60e01b81526001600160a01b03858116600483015230602483015291519190921691639d91b87b916044808301926020929190829003018186803b15801561275057600080fd5b600f546000906001600160a01b03161580159061285e57506001600160a01b03821615155b61289d576040805162461bcd60e51b815260206004820152601b6024820152600080516020612fa0833981519152604482015290519081900360640190fd5b600f54604080516367265c3b60e11b81526001600160a01b0385811660048301523060248301529151919092169163ce4cb876916044808301926020929190829003018186803b15801561275057600080fd5b600f546000906001600160a01b03161580159061291557506001600160a01b03821615155b612954576040805162461bcd60e51b815260206004820152601b6024820152600080516020612fa0833981519152604482015290519081900360640190fd5b600e5460408051630b4beae560e21b81526001600160a01b03858116600483015230602483015291519190921691632d2fab94916044808301926020929190829003018186803b15801561275057600080fd5b6129bf600080516020612fc08339815191523361226b565b6129fa5760405162461bcd60e51b81526004018080602001828103825260258152602001806130036025913960400191505060405180910390fd5b600e546001600160a01b031615801590612a1c57506001600160a01b03821615155b612a5b576040805162461bcd60e51b815260206004820152601b6024820152600080516020612fa0833981519152604482015290519081900360640190fd5b6000612a6683612699565b600c54604080516370a0823160e01b815230600482015290519293506000926001600160a01b03909216916370a0823191602480820192602092909190829003018186803b158015612ab757600080fd5b505afa158015612acb573d6000803e3d6000fd5b505050506040513d6020811015612ae157600080fd5b505160075483820103601255600e5460408051636105226360e11b81526001600160a01b0388811660048301528715156024830152915193945091169163c20a44c6916044808201926020929091908290030181600087803b158015612b4657600080fd5b505af1158015612b5a573d6000803e3d6000fd5b505050506040513d6020811015612b7057600080fd5b505050505050565b6002546001600160a01b031681565b6000546001600160a01b031681565b6000612264836001600160a01b038416612cdb565b3390565b6000828152600a60205260409020612bc79082612b96565b1561126557612bd4612bab565b6001600160a01b0316816001600160a01b0316837f2f8788117e7eff1d82e926ec794901d17c78024a50270940304540a733656f0d60405160405180910390a45050565b6000828152600a60205260409020612c309082612d25565b1561126557612c3d612bab565b6001600160a01b0316816001600160a01b0316837ff6391f5c32d9c69d2a47ea670b442974b53935d1edc7fd64eb21e047a839171b60405160405180910390a45050565b60008083836040811015612c9457600080fd5b506001600160a01b0381351695602090910135945092505050565b60006122648383612d3a565b6000612264836001600160a01b038416612d9e565b6000611f8382612db6565b6000612ce78383612d9e565b612d1d57508154600181810184556000848152602080822090930184905584548482528286019093526040902091909155611f83565b506000611f83565b6000612264836001600160a01b038416612dba565b81546000908210612d7c5760405162461bcd60e51b8152600401808060200182810382526022815260200180612ea66022913960400191505060405180910390fd5b826000018281548110612d8b57fe5b9060005260206000200154905092915050565b60009081526001919091016020526040902054151590565b5490565b60008181526001830160205260408120548015612e765783546000198083019190810190600090879083908110612ded57fe5b9060005260206000200154905080876000018481548110612e0a57fe5b600091825260208083209091019290925582815260018981019092526040902090840190558654879080612e3a57fe5b60019003818190600052602060002001600090559055866001016000878152602001908152602001600020600090556001945050505050611f83565b6000915050611f8356fe5374616b65313a2072656c6561736564416d6f756e74203e207374616b6564416d6f756e74456e756d657261626c655365743a20696e646578206f7574206f6620626f756e6473416363657373436f6e74726f6c3a2073656e646572206d75737420626520616e2061646d696e20746f206772616e74546f6b616d616b5374616b65723a20617070726f7665416e6443616c6c206661696c5374616b65313a207374616b65544f4e20706572696f6420697320756e617661696c61626c6544414f436f6d6d69747465653a206661696c656420746f207472616e7366657220746f6e2066726f6d2063726561746f72416363657373436f6e74726f6c3a2073656e646572206d75737420626520616e2061646d696e20746f207265766f6b65546f6b616d616b5374616b65723a207a65726f20616464726573730000000000df8b4c520ffe197c5343c6f5aec59570151ef9a492f2c624fd45ddde6135ec425374616b65313a20746f6e416d6f756e7420213d207374616b696e67416d6f756e7420546f6b616d616b5374616b65723a2043616c6c6572206973206e6f7420616e2061646d696e5374616b65313a207769746864726177206574682073656e64206661696c65642e546f6b616d616b5374616b65723a20546865207769746864726177616c2062616c616e6365206973206c61636b546f6b616d616b5374616b65723a20756e6973776170526f75746572206973207a65726f416363657373436f6e74726f6c3a2063616e206f6e6c792072656e6f756e636520726f6c657320666f722073656c66546f6b616d616b5374616b65723a206c617965723220697320646966666572656e7420a2646970667358221220bc532c53c07d0ef0b7d619f116e49b7813acbb1eecb30f4f96c607633c14ed1264736f6c63430007060033df8b4c520ffe197c5343c6f5aec59570151ef9a492f2c624fd45ddde6135ec4260806040523480156200001157600080fd5b506200002d60008051602062001d17833981519152806200004e565b6200004860008051602062001d1783398151915233620000a0565b620001b6565b6000828152600a6020526040808220600201549051839285917fbd79b86ffe0ab8e8776151514217cd7cacd52c909f66475c3af44e129f0b00ff9190a46000918252600a602052604090912060020155565b620000ac8282620000b0565b5050565b6000828152600a60209081526040909120620000d7918390620017216200012b821b17901c565b15620000ac57620000e76200014b565b6001600160a01b0316816001600160a01b0316837f2f8788117e7eff1d82e926ec794901d17c78024a50270940304540a733656f0d60405160405180910390a45050565b600062000142836001600160a01b0384166200014f565b90505b92915050565b3390565b60006200015d83836200019e565b620001955750815460018181018455600084815260208082209093018490558454848252828601909352604090209190915562000145565b50600062000145565b60009081526001919091016020526040902054151590565b611b5180620001c66000396000f3fe6080604052600436106101855760003560e01c806385fb34ce116100d1578063acc3a9391161008a578063d547741f11610064578063d547741f14610542578063f17f32751461057b578063fbfa77cf146105a5578063fc0c546a146105ba57610195565b8063acc3a9391461049b578063b2d4d6a314610503578063ca15c8731461051857610195565b806385fb34ce146103a45780639010d07c146103d757806391d1485414610407578063a2095f2914610454578063a217fddf14610469578063a694fc3a1461047e57610195565b806343b0934a1161013e578063567e98f911610118578063567e98f9146102f2578063610b066314610307578063728cdbca1461033a57806375b238fc1461038f57610195565b806343b0934a1461029757806348cd4cb1146102c85780634e71d92d146102dd57610195565b8063083c6323146101aa57806320027275146101d1578063248a9ca3146101e65780632f2ff15d1461021057806336568abe146102495780633ccfd60b1461028257610195565b3661019557610193346105cf565b005b3480156101a157600080fd5b5061019361078f565b3480156101b657600080fd5b506101bf610806565b60408051918252519081900360200190f35b3480156101dd57600080fd5b506101bf61080c565b3480156101f257600080fd5b506101bf6004803603602081101561020957600080fd5b5035610812565b34801561021c57600080fd5b506101936004803603604081101561023357600080fd5b50803590602001356001600160a01b0316610827565b34801561025557600080fd5b506101936004803603604081101561026c57600080fd5b50803590602001356001600160a01b0316610893565b34801561028e57600080fd5b506101936108f4565b3480156102a357600080fd5b506102ac610b95565b604080516001600160a01b039092168252519081900360200190f35b3480156102d457600080fd5b506101bf610ba4565b3480156102e957600080fd5b50610193610baa565b3480156102fe57600080fd5b506101bf610f36565b34801561031357600080fd5b506101bf6004803603602081101561032a57600080fd5b50356001600160a01b0316610f3c565b34801561034657600080fd5b50610193600480360360c081101561035d57600080fd5b506001600160a01b03813581169160208101358216916040820135169060608101359060808101359060a001356112c8565b34801561039b57600080fd5b506101bf6113d5565b3480156103b057600080fd5b50610193600480360360208110156103c757600080fd5b50356001600160a01b03166113f9565b3480156103e357600080fd5b506102ac600480360360408110156103fa57600080fd5b5080359060200135611531565b34801561041357600080fd5b506104406004803603604081101561042a57600080fd5b50803590602001356001600160a01b0316611550565b604080519115158252519081900360200190f35b34801561046057600080fd5b506102ac611568565b34801561047557600080fd5b506101bf611577565b6101936004803603602081101561049457600080fd5b50356105cf565b3480156104a757600080fd5b506104ce600480360360208110156104be57600080fd5b50356001600160a01b031661157c565b6040805196875260208701959095528585019390935260608501919091526080840152151560a0830152519081900360c00190f35b34801561050f57600080fd5b506101bf6115b4565b34801561052457600080fd5b506101bf6004803603602081101561053b57600080fd5b50356115ba565b34801561054e57600080fd5b506101936004803603604081101561056557600080fd5b50803590602001356001600160a01b03166115d1565b34801561058757600080fd5b506101936004803603602081101561059e57600080fd5b503561162a565b3480156105b157600080fd5b506102ac611703565b3480156105c657600080fd5b506102ac611712565b6001546001600160a01b03161580156105e85750600034115b8061060857506001546001600160a01b0316158015906106085750600081115b610652576040805162461bcd60e51b81526020600482015260166024820152755374616b65313a20616d6f756e74206973207a65726f60501b604482015290519081900360640190fd5b60035443101580156106675750600454600354105b6106b8576040805162461bcd60e51b815260206004820152601d60248201527f5374616b65313a20706572696f6420697320756e617661696c61626c65000000604482015290519081900360640190fd5b60015481906001600160a01b03166106cd5750345b33600090815260086020526040902080548201815560078054830190556001546001600160a01b03161561078a57600154604080516323b872dd60e01b81523360048201523060248201526044810185905290516001600160a01b03909216916323b872dd916064808201926020929091908290030181600087803b15801561075557600080fd5b505af1158015610769573d6000803e3d6000fd5b505050506040513d602081101561077f57600080fd5b505161078a57600080fd5b505050565b6000610799611568565b9050346001600160a01b0382166107e15760405162461bcd60e51b8152600401808060200182810382526023815260200180611aca6023913960400191505060405180910390fd5b366000803760008036600084865af13d6000803e808015610801573d6000f35b3d6000fd5b60055481565b60035481565b6000908152600a602052604090206002015490565b6000828152600a602052604090206002015461084a90610845611736565b611550565b6108855760405162461bcd60e51b815260040180806020018281038252602f815260200180611a25602f913960400191505060405180910390fd5b61088f828261173a565b5050565b61089b611736565b6001600160a01b0316816001600160a01b0316146108ea5760405162461bcd60e51b815260040180806020018281038252602f815260200180611aed602f913960400191505060405180910390fd5b61088f82826117a3565b6000600554118015610907575043600554105b610958576040805162461bcd60e51b815260206004820152601960248201527f5374616b65313a206f6e207374616b696e6720706572696f6400000000000000604482015290519081900360640190fd5b3360009081526008602052604090208054801580159061097d57508154600483015411155b6109b85760405162461bcd60e51b81526004018080602001828103825260258152602001806119de6025913960400191505060405180910390fd5b8154600483015543600383015560058201805460ff19166001908117909155546001600160a01b0316610a82573080318211156109f457600080fd5b604051600090339084908381818185875af1925050503d8060008114610a36576040519150601f19603f3d011682016040523d82523d6000602084013e610a3b565b606091505b5050905080610a7b5760405162461bcd60e51b8152600401808060200182810382526021815260200180611aa96021913960400191505060405180910390fd5b5050610b53565b6001546040805163a9059cbb60e01b81523360048201526024810184905290516001600160a01b039092169163a9059cbb916044808201926020929091908290030181600087803b158015610ad657600080fd5b505af1158015610aea573d6000803e3d6000fd5b505050506040513d6020811015610b0057600080fd5b5051610b53576040805162461bcd60e51b815260206004820152601e60248201527f5374616b65313a207769746864726177207472616e73666572206661696c0000604482015290519081900360640190fd5b604080518281524360208201528151339230927fc2b4a290c20fb28939d29f102514fbffd2b73c059ffba8b78250c94161d5fcc6929081900390910190a35050565b6001546001600160a01b031681565b60045481565b60095415610bf5576040805162461bcd60e51b815260206004820152601360248201527214dd185ad94c55985d5b1d0e881313d0d2d151606a1b604482015290519081900360640190fd5b600160095560025460408051631718ecd760e31b815290516001600160a01b039092169163b8c766b891600480820192602092909190829003018186803b158015610c3f57600080fd5b505afa158015610c53573d6000803e3d6000fd5b505050506040513d6020811015610c6957600080fd5b50511515600114610cba576040805162461bcd60e51b815260206004820152601660248201527529ba30b5b2989d103234b9b1b637b9b29039b0b6329760511b604482015290519081900360640190fd5b336000818152600860205260408120600554600182015443929111610d18576040805162461bcd60e51b815260206004820152600f60248201526e14dd185ad94c4e8818db185a5b5959608a1b604482015290519081900360640190fd5b610d2184610f3c565b925060008311610d71576040805162461bcd60e51b81526020600482015260166024820152755374616b65313a20726577617264206973207a65726f60501b604482015290519081900360640190fd5b6002546040805163032f7adb60e61b815230600482015290516000926001600160a01b03169163cbdeb6c0916024808301926020929190829003018186803b158015610dbc57600080fd5b505afa158015610dd0573d6000803e3d6000fd5b505050506040513d6020811015610de657600080fd5b50516006549091508401811015610e44576040805162461bcd60e51b815260206004820152601c60248201527f5374616b65313a20746f74616c20726577617264206578636565647300000000604482015290519081900360640190fd5b60018201839055600280830180548601905560068054860190555460408051635569f64b60e11b81526001600160a01b038881166004830152602482018890529151919092169163aad3ec969160448083019260209291908290030181600087803b158015610eb257600080fd5b505af1158015610ec6573d6000803e3d6000fd5b505050506040513d6020811015610edc57600080fd5b5051610ee757600080fd5b604080518581526020810185905281516001600160a01b038816927f987d620f307ff6b94d58743cb7a7509f24071586a77759b77c2d4e29f75a2f9a928290030190a250506000600955505050565b60075481565b6004546000908190431080610f6757506001600160a01b038316600090815260086020526040902054155b80610f8e57506005546001600160a01b038416600090815260086020526040902060010154115b80610fb357506001600160a01b03831660009081526008602052604090206001015443105b15610fc0575060006112c2565b6004546005546001600160a01b038516600090815260086020526040902060010154821015611008576001600160a01b03851660009081526008602052604090206001015491505b804310156110135750435b6002546040805163c1b422fd60e01b815290516000926001600160a01b03169163c1b422fd9160048083019286929190829003018186803b15801561105757600080fd5b505afa15801561106b573d6000803e3d6000fd5b505050506040513d6000823e601f3d908101601f19168201604052602081101561109457600080fd5b81019080805160405193929190846401000000008211156110b457600080fd5b9083019060208201858111156110c957600080fd5b82518660208202830111640100000000821117156110e657600080fd5b82525081516020918201928201910280838360005b838110156111135781810151838201526020016110fb565b5050505090500160405250505090506000815111156112be576000806000600260009054906101000a90046001600160a01b03166001600160a01b031663d105bf856040518163ffffffff1660e01b815260040160206040518083038186803b15801561117f57600080fd5b505afa158015611193573d6000803e3d6000fd5b505050506040513d60208110156111a957600080fd5b5051905060005b84518110156112b9578481815181106111c557fe5b60209081029190910181015160025460408051632f8deb1560e11b81526004810184905290519297506001600160a01b0390911692635f1bd62a92602480840193829003018186803b15801561121a57600080fd5b505afa15801561122e573d6000803e3d6000fd5b505050506040513d602081101561124457600080fd5b50519250838611611281576001600160a01b038a1660009081526008602052604090205483908888038402028161127757fe5b04880197506112b9565b6001600160a01b038a166000908152600860205260409020548390888603840202816112a957fe5b04880197508396506001016111b0565b505050505b5050505b92915050565b6112f27fdf8b4c520ffe197c5343c6f5aec59570151ef9a492f2c624fd45ddde6135ec4233611550565b61132d5760405162461bcd60e51b8152600401808060200182810382526025815260200180611a846025913960400191505060405180910390fd5b6001600160a01b0386161580159061134d57506001600160a01b03841615155b80156113595750818311155b61136257600080fd5b600080546001600160a01b038089166001600160a01b031992831617909255600180548884169083161790556002805492871692909116919091179055826113ad57436003556113b3565b60038390555b816113c157436004556113c7565b60048290555b600454016005555050505050565b7fdf8b4c520ffe197c5343c6f5aec59570151ef9a492f2c624fd45ddde6135ec4281565b6114237fdf8b4c520ffe197c5343c6f5aec59570151ef9a492f2c624fd45ddde6135ec4233611550565b61145e5760405162461bcd60e51b8152600401808060200182810382526025815260200180611a846025913960400191505060405180910390fd5b60035443106114b4576040805162461bcd60e51b815260206004820152601e60248201527f546f6b616d616b5374616b65723a20416c726561647920737461727465640000604482015290519081900360640190fd5b6001600160a01b03811661150f576040805162461bcd60e51b815260206004820152601b60248201527f596561726e56325374616b65723a207a65726f20616464726573730000000000604482015290519081900360640190fd5b600b80546001600160a01b0319166001600160a01b0392909216919091179055565b6000828152600a60205260408120611549908361180c565b9392505050565b6000828152600a602052604081206115499083611818565b600b546001600160a01b031690565b600081565b600860205260009081526040902080546001820154600283015460038401546004850154600590950154939492939192909160ff1686565b60065481565b6000818152600a602052604081206112c29061182d565b6000828152600a60205260409020600201546115ef90610845611736565b6108ea5760405162461bcd60e51b8152600401808060200182810382526030815260200180611a546030913960400191505060405180910390fd5b600154600b546040805163095ea7b360e01b81526001600160a01b039283166004820152602481018590529051919092169163095ea7b39160448083019260209291908290030181600087803b15801561168357600080fd5b505af1158015611697573d6000803e3d6000fd5b505050506040513d60208110156116ad57600080fd5b5051611700576040805162461bcd60e51b815260206004820152601b60248201527f596561726e56325374616b65723a20617070726f7665206661696c0000000000604482015290519081900360640190fd5b50565b6002546001600160a01b031681565b6000546001600160a01b031681565b6000611549836001600160a01b038416611838565b3390565b6000828152600a602052604090206117529082611721565b1561088f5761175f611736565b6001600160a01b0316816001600160a01b0316837f2f8788117e7eff1d82e926ec794901d17c78024a50270940304540a733656f0d60405160405180910390a45050565b6000828152600a602052604090206117bb9082611882565b1561088f576117c8611736565b6001600160a01b0316816001600160a01b0316837ff6391f5c32d9c69d2a47ea670b442974b53935d1edc7fd64eb21e047a839171b60405160405180910390a45050565b60006115498383611897565b6000611549836001600160a01b0384166118fb565b60006112c282611913565b600061184483836118fb565b61187a575081546001818101845560008481526020808220909301849055845484825282860190935260409020919091556112c2565b5060006112c2565b6000611549836001600160a01b038416611917565b815460009082106118d95760405162461bcd60e51b8152600401808060200182810382526022815260200180611a036022913960400191505060405180910390fd5b8260000182815481106118e857fe5b9060005260206000200154905092915050565b60009081526001919091016020526040902054151590565b5490565b600081815260018301602052604081205480156119d3578354600019808301919081019060009087908390811061194a57fe5b906000526020600020015490508087600001848154811061196757fe5b60009182526020808320909101929092558281526001898101909252604090209084019055865487908061199757fe5b600190038181906000526020600020016000905590558660010160008781526020019081526020016000206000905560019450505050506112c2565b60009150506112c256fe5374616b65313a2072656c6561736564416d6f756e74203e207374616b6564416d6f756e74456e756d657261626c655365743a20696e646578206f7574206f6620626f756e6473416363657373436f6e74726f6c3a2073656e646572206d75737420626520616e2061646d696e20746f206772616e74416363657373436f6e74726f6c3a2073656e646572206d75737420626520616e2061646d696e20746f207265766f6b65596561726e56325374616b65723a2043616c6c6572206973206e6f7420616e2061646d696e5374616b65313a207769746864726177206574682073656e64206661696c65642e596561726e56325374616b65723a20796561726e56325661756c74206973207a65726f416363657373436f6e74726f6c3a2063616e206f6e6c792072656e6f756e636520726f6c657320666f722073656c66a264697066735822122012de4596837200df5d8ff7f8c01aa108c56bd43cd1a8f958596a4568ecda4ff864736f6c63430007060033df8b4c520ffe197c5343c6f5aec59570151ef9a492f2c624fd45ddde6135ec42a2646970667358221220676eb8d5bb669270164264e600f82429c3a2228d41314d83f92a5d047f37780c64736f6c63430007060033",
  "immutableReferences": {},
  "source": "// SPDX-License-Identifier: MIT\npragma solidity ^0.7.6;\n\nimport {Stake1} from \"../stake/Stake1.sol\";\nimport {IStake1Vault} from \"../interfaces/IStake1Vault.sol\";\nimport {StakeForStableCoin} from \"../stake/StakeForStableCoin.sol\";\n\ncontract StakeFactory {\n    bytes32 public constant ADMIN_ROLE = keccak256(\"ADMIN\");\n\n    function deploy(\n        uint256 _pahse,\n        address _vault,\n        string memory _name,\n        address _token,\n        address _paytoken,\n        uint256 _period,\n        address[4] memory tokamakAddr\n    ) public returns (address) {\n        require(\n            _vault != address(0) && _pahse == 1,\n            \"StakeFactory: deploy init fail\"\n        );\n\n        IStake1Vault vault = IStake1Vault(_vault);\n        uint256 saleStart = vault.saleStartBlock();\n        uint256 stakeStart = vault.stakeStartBlock();\n        uint256 stakeType = vault.stakeType();\n        address defiAddr = vault.defiAddr();\n\n        require(\n            saleStart < stakeStart && stakeStart > 0,\n            \"StakeFactory: start error\"\n        );\n\n        if (stakeType == 0) {\n\n            Stake1 c = new Stake1();\n            c.initialize(\n                _token,\n                _paytoken,\n                address(vault),\n                saleStart,\n                stakeStart,\n                _period\n            );\n            c.setTokamak(\n                tokamakAddr[0],\n                tokamakAddr[1],\n                tokamakAddr[2],\n                tokamakAddr[3],\n                defiAddr\n            );\n\n            vault.addSubVaultOfStake(_name, address(c), _period);\n            c.grantRole(ADMIN_ROLE, msg.sender);\n            c.revokeRole(ADMIN_ROLE, address(this));\n            return address(c);\n\n        } else if (stakeType == 2) {\n\n            // if paytoken is stable coin, stakeContract is YearnV2Staker\n\n            StakeForStableCoin c = new StakeForStableCoin();\n            c.initialize(\n                _token,\n                _paytoken,\n                address(vault),\n                saleStart,\n                stakeStart,\n                _period\n            );\n            c.setYearnV2(defiAddr);\n            vault.addSubVaultOfStake(_name, address(c), _period);\n            c.grantRole(ADMIN_ROLE, msg.sender);\n            c.revokeRole(ADMIN_ROLE, address(this));\n            return address(c);\n        }\n\n        return address(0);\n    }\n}\n",
  "sourcePath": "/Users/kadyrbeknarmamatov/code/ico20-contracts/contracts/factory/StakeFactory.sol",
  "compiler": {
    "name": "solc",
    "version": "0.7.6+commit.7338295f.Emscripten.clang"
  },
  "schemaVersion": "3.4.0",
  "updatedAt": "2021-05-11T06:57:40.511Z",
  "devdoc": {
    "kind": "dev",
    "methods": {},
    "version": 1
  },
  "userdoc": {
    "kind": "user",
    "methods": {},
    "version": 1
  }
}