{
  "contractName": "StakeForStableCoin",
  "abi": [
    {
      "inputs": [],
      "stateMutability": "nonpayable",
      "type": "constructor"
    },
    {
      "anonymous": false,
      "inputs": [
        {
          "indexed": true,
          "internalType": "address",
          "name": "from",
          "type": "address"
        },
        {
          "indexed": false,
          "internalType": "uint256",
          "name": "amount",
          "type": "uint256"
        },
        {
          "indexed": false,
          "internalType": "uint256",
          "name": "currentBlcok",
          "type": "uint256"
        }
      ],
      "name": "Claimed",
      "type": "event"
    },
    {
      "anonymous": false,
      "inputs": [
        {
          "indexed": true,
          "internalType": "bytes32",
          "name": "role",
          "type": "bytes32"
        },
        {
          "indexed": true,
          "internalType": "bytes32",
          "name": "previousAdminRole",
          "type": "bytes32"
        },
        {
          "indexed": true,
          "internalType": "bytes32",
          "name": "newAdminRole",
          "type": "bytes32"
        }
      ],
      "name": "RoleAdminChanged",
      "type": "event"
    },
    {
      "anonymous": false,
      "inputs": [
        {
          "indexed": true,
          "internalType": "bytes32",
          "name": "role",
          "type": "bytes32"
        },
        {
          "indexed": true,
          "internalType": "address",
          "name": "account",
          "type": "address"
        },
        {
          "indexed": true,
          "internalType": "address",
          "name": "sender",
          "type": "address"
        }
      ],
      "name": "RoleGranted",
      "type": "event"
    },
    {
      "anonymous": false,
      "inputs": [
        {
          "indexed": true,
          "internalType": "bytes32",
          "name": "role",
          "type": "bytes32"
        },
        {
          "indexed": true,
          "internalType": "address",
          "name": "account",
          "type": "address"
        },
        {
          "indexed": true,
          "internalType": "address",
          "name": "sender",
          "type": "address"
        }
      ],
      "name": "RoleRevoked",
      "type": "event"
    },
    {
      "anonymous": false,
      "inputs": [
        {
          "indexed": true,
          "internalType": "address",
          "name": "from",
          "type": "address"
        },
        {
          "indexed": true,
          "internalType": "address",
          "name": "to",
          "type": "address"
        },
        {
          "indexed": false,
          "internalType": "uint256",
          "name": "amount",
          "type": "uint256"
        },
        {
          "indexed": false,
          "internalType": "uint256",
          "name": "currentBlcok",
          "type": "uint256"
        }
      ],
      "name": "Withdrawal",
      "type": "event"
    },
    {
      "stateMutability": "nonpayable",
      "type": "fallback"
    },
    {
      "inputs": [],
      "name": "ADMIN_ROLE",
      "outputs": [
        {
          "internalType": "bytes32",
          "name": "",
          "type": "bytes32"
        }
      ],
      "stateMutability": "view",
      "type": "function"
    },
    {
      "inputs": [],
      "name": "DEFAULT_ADMIN_ROLE",
      "outputs": [
        {
          "internalType": "bytes32",
          "name": "",
          "type": "bytes32"
        }
      ],
      "stateMutability": "view",
      "type": "function"
    },
    {
      "inputs": [
        {
          "internalType": "uint256",
          "name": "amount",
          "type": "uint256"
        }
      ],
      "name": "approveYearnV2Vault",
      "outputs": [],
      "stateMutability": "nonpayable",
      "type": "function"
    },
    {
      "inputs": [],
      "name": "endBlock",
      "outputs": [
        {
          "internalType": "uint256",
          "name": "",
          "type": "uint256"
        }
      ],
      "stateMutability": "view",
      "type": "function"
    },
    {
      "inputs": [
        {
          "internalType": "bytes32",
          "name": "role",
          "type": "bytes32"
        }
      ],
      "name": "getRoleAdmin",
      "outputs": [
        {
          "internalType": "bytes32",
          "name": "",
          "type": "bytes32"
        }
      ],
      "stateMutability": "view",
      "type": "function"
    },
    {
      "inputs": [
        {
          "internalType": "bytes32",
          "name": "role",
          "type": "bytes32"
        },
        {
          "internalType": "uint256",
          "name": "index",
          "type": "uint256"
        }
      ],
      "name": "getRoleMember",
      "outputs": [
        {
          "internalType": "address",
          "name": "",
          "type": "address"
        }
      ],
      "stateMutability": "view",
      "type": "function"
    },
    {
      "inputs": [
        {
          "internalType": "bytes32",
          "name": "role",
          "type": "bytes32"
        }
      ],
      "name": "getRoleMemberCount",
      "outputs": [
        {
          "internalType": "uint256",
          "name": "",
          "type": "uint256"
        }
      ],
      "stateMutability": "view",
      "type": "function"
    },
    {
      "inputs": [
        {
          "internalType": "bytes32",
          "name": "role",
          "type": "bytes32"
        },
        {
          "internalType": "address",
          "name": "account",
          "type": "address"
        }
      ],
      "name": "grantRole",
      "outputs": [],
      "stateMutability": "nonpayable",
      "type": "function"
    },
    {
      "inputs": [
        {
          "internalType": "bytes32",
          "name": "role",
          "type": "bytes32"
        },
        {
          "internalType": "address",
          "name": "account",
          "type": "address"
        }
      ],
      "name": "hasRole",
      "outputs": [
        {
          "internalType": "bool",
          "name": "",
          "type": "bool"
        }
      ],
      "stateMutability": "view",
      "type": "function"
    },
    {
      "inputs": [],
      "name": "paytoken",
      "outputs": [
        {
          "internalType": "address",
          "name": "",
          "type": "address"
        }
      ],
      "stateMutability": "view",
      "type": "function"
    },
    {
      "inputs": [
        {
          "internalType": "bytes32",
          "name": "role",
          "type": "bytes32"
        },
        {
          "internalType": "address",
          "name": "account",
          "type": "address"
        }
      ],
      "name": "renounceRole",
      "outputs": [],
      "stateMutability": "nonpayable",
      "type": "function"
    },
    {
      "inputs": [
        {
          "internalType": "bytes32",
          "name": "role",
          "type": "bytes32"
        },
        {
          "internalType": "address",
          "name": "account",
          "type": "address"
        }
      ],
      "name": "revokeRole",
      "outputs": [],
      "stateMutability": "nonpayable",
      "type": "function"
    },
    {
      "inputs": [],
      "name": "rewardClaimedTotal",
      "outputs": [
        {
          "internalType": "uint256",
          "name": "",
          "type": "uint256"
        }
      ],
      "stateMutability": "view",
      "type": "function"
    },
    {
      "inputs": [],
      "name": "saleStartBlock",
      "outputs": [
        {
          "internalType": "uint256",
          "name": "",
          "type": "uint256"
        }
      ],
      "stateMutability": "view",
      "type": "function"
    },
    {
      "inputs": [
        {
          "internalType": "address",
          "name": "_vault",
          "type": "address"
        }
      ],
      "name": "setYearnV2",
      "outputs": [],
      "stateMutability": "nonpayable",
      "type": "function"
    },
    {
      "inputs": [],
      "name": "startBlock",
      "outputs": [
        {
          "internalType": "uint256",
          "name": "",
          "type": "uint256"
        }
      ],
      "stateMutability": "view",
      "type": "function"
    },
    {
      "inputs": [],
      "name": "token",
      "outputs": [
        {
          "internalType": "address",
          "name": "",
          "type": "address"
        }
      ],
      "stateMutability": "view",
      "type": "function"
    },
    {
      "inputs": [],
      "name": "totalStakedAmount",
      "outputs": [
        {
          "internalType": "uint256",
          "name": "",
          "type": "uint256"
        }
      ],
      "stateMutability": "view",
      "type": "function"
    },
    {
      "inputs": [
        {
          "internalType": "address",
          "name": "",
          "type": "address"
        }
      ],
      "name": "userStaked",
      "outputs": [
        {
          "internalType": "uint256",
          "name": "amount",
          "type": "uint256"
        },
        {
          "internalType": "uint256",
          "name": "claimedBlock",
          "type": "uint256"
        },
        {
          "internalType": "uint256",
          "name": "claimedAmount",
          "type": "uint256"
        },
        {
          "internalType": "uint256",
          "name": "releasedBlock",
          "type": "uint256"
        },
        {
          "internalType": "uint256",
          "name": "releasedAmount",
          "type": "uint256"
        },
        {
          "internalType": "bool",
          "name": "released",
          "type": "bool"
        }
      ],
      "stateMutability": "view",
      "type": "function"
    },
    {
      "inputs": [],
      "name": "vault",
      "outputs": [
        {
          "internalType": "address",
          "name": "",
          "type": "address"
        }
      ],
      "stateMutability": "view",
      "type": "function"
    },
    {
      "inputs": [],
      "name": "yearnV2Vault",
      "outputs": [
        {
          "internalType": "address",
          "name": "",
          "type": "address"
        }
      ],
      "stateMutability": "view",
      "type": "function"
    },
    {
      "stateMutability": "payable",
      "type": "receive"
    },
    {
      "inputs": [
        {
          "internalType": "address",
          "name": "_token",
          "type": "address"
        },
        {
          "internalType": "address",
          "name": "_paytoken",
          "type": "address"
        },
        {
          "internalType": "address",
          "name": "_vault",
          "type": "address"
        },
        {
          "internalType": "uint256",
          "name": "_saleStartBlock",
          "type": "uint256"
        },
        {
          "internalType": "uint256",
          "name": "_startBlock",
          "type": "uint256"
        },
        {
          "internalType": "uint256",
          "name": "_period",
          "type": "uint256"
        }
      ],
      "name": "initialize",
      "outputs": [],
      "stateMutability": "nonpayable",
      "type": "function"
    },
    {
      "inputs": [
        {
          "internalType": "uint256",
          "name": "_amount",
          "type": "uint256"
        }
      ],
      "name": "stake",
      "outputs": [],
      "stateMutability": "payable",
      "type": "function"
    },
    {
      "inputs": [],
      "name": "withdraw",
      "outputs": [],
      "stateMutability": "nonpayable",
      "type": "function"
    },
    {
      "inputs": [],
      "name": "claim",
      "outputs": [],
      "stateMutability": "nonpayable",
      "type": "function"
    },
    {
      "inputs": [
        {
          "internalType": "address",
          "name": "account",
          "type": "address"
        }
      ],
      "name": "canRewardAmount",
      "outputs": [
        {
          "internalType": "uint256",
          "name": "",
          "type": "uint256"
        }
      ],
      "stateMutability": "view",
      "type": "function"
    }
  ],
  "bytecode": "0x60806040523480156200001157600080fd5b506200002d60008051602062001d17833981519152806200004e565b6200004860008051602062001d1783398151915233620000a0565b620001b6565b6000828152600a6020526040808220600201549051839285917fbd79b86ffe0ab8e8776151514217cd7cacd52c909f66475c3af44e129f0b00ff9190a46000918252600a602052604090912060020155565b620000ac8282620000b0565b5050565b6000828152600a60209081526040909120620000d7918390620017216200012b821b17901c565b15620000ac57620000e76200014b565b6001600160a01b0316816001600160a01b0316837f2f8788117e7eff1d82e926ec794901d17c78024a50270940304540a733656f0d60405160405180910390a45050565b600062000142836001600160a01b0384166200014f565b90505b92915050565b3390565b60006200015d83836200019e565b620001955750815460018181018455600084815260208082209093018490558454848252828601909352604090209190915562000145565b50600062000145565b60009081526001919091016020526040902054151590565b611b5180620001c66000396000f3fe6080604052600436106101855760003560e01c806385fb34ce116100d1578063acc3a9391161008a578063d547741f11610064578063d547741f14610542578063f17f32751461057b578063fbfa77cf146105a5578063fc0c546a146105ba57610195565b8063acc3a9391461049b578063b2d4d6a314610503578063ca15c8731461051857610195565b806385fb34ce146103a45780639010d07c146103d757806391d1485414610407578063a2095f2914610454578063a217fddf14610469578063a694fc3a1461047e57610195565b806343b0934a1161013e578063567e98f911610118578063567e98f9146102f2578063610b066314610307578063728cdbca1461033a57806375b238fc1461038f57610195565b806343b0934a1461029757806348cd4cb1146102c85780634e71d92d146102dd57610195565b8063083c6323146101aa57806320027275146101d1578063248a9ca3146101e65780632f2ff15d1461021057806336568abe146102495780633ccfd60b1461028257610195565b3661019557610193346105cf565b005b3480156101a157600080fd5b5061019361078f565b3480156101b657600080fd5b506101bf610806565b60408051918252519081900360200190f35b3480156101dd57600080fd5b506101bf61080c565b3480156101f257600080fd5b506101bf6004803603602081101561020957600080fd5b5035610812565b34801561021c57600080fd5b506101936004803603604081101561023357600080fd5b50803590602001356001600160a01b0316610827565b34801561025557600080fd5b506101936004803603604081101561026c57600080fd5b50803590602001356001600160a01b0316610893565b34801561028e57600080fd5b506101936108f4565b3480156102a357600080fd5b506102ac610b95565b604080516001600160a01b039092168252519081900360200190f35b3480156102d457600080fd5b506101bf610ba4565b3480156102e957600080fd5b50610193610baa565b3480156102fe57600080fd5b506101bf610f36565b34801561031357600080fd5b506101bf6004803603602081101561032a57600080fd5b50356001600160a01b0316610f3c565b34801561034657600080fd5b50610193600480360360c081101561035d57600080fd5b506001600160a01b03813581169160208101358216916040820135169060608101359060808101359060a001356112c8565b34801561039b57600080fd5b506101bf6113d5565b3480156103b057600080fd5b50610193600480360360208110156103c757600080fd5b50356001600160a01b03166113f9565b3480156103e357600080fd5b506102ac600480360360408110156103fa57600080fd5b5080359060200135611531565b34801561041357600080fd5b506104406004803603604081101561042a57600080fd5b50803590602001356001600160a01b0316611550565b604080519115158252519081900360200190f35b34801561046057600080fd5b506102ac611568565b34801561047557600080fd5b506101bf611577565b6101936004803603602081101561049457600080fd5b50356105cf565b3480156104a757600080fd5b506104ce600480360360208110156104be57600080fd5b50356001600160a01b031661157c565b6040805196875260208701959095528585019390935260608501919091526080840152151560a0830152519081900360c00190f35b34801561050f57600080fd5b506101bf6115b4565b34801561052457600080fd5b506101bf6004803603602081101561053b57600080fd5b50356115ba565b34801561054e57600080fd5b506101936004803603604081101561056557600080fd5b50803590602001356001600160a01b03166115d1565b34801561058757600080fd5b506101936004803603602081101561059e57600080fd5b503561162a565b3480156105b157600080fd5b506102ac611703565b3480156105c657600080fd5b506102ac611712565b6001546001600160a01b03161580156105e85750600034115b8061060857506001546001600160a01b0316158015906106085750600081115b610652576040805162461bcd60e51b81526020600482015260166024820152755374616b65313a20616d6f756e74206973207a65726f60501b604482015290519081900360640190fd5b60035443101580156106675750600454600354105b6106b8576040805162461bcd60e51b815260206004820152601d60248201527f5374616b65313a20706572696f6420697320756e617661696c61626c65000000604482015290519081900360640190fd5b60015481906001600160a01b03166106cd5750345b33600090815260086020526040902080548201815560078054830190556001546001600160a01b03161561078a57600154604080516323b872dd60e01b81523360048201523060248201526044810185905290516001600160a01b03909216916323b872dd916064808201926020929091908290030181600087803b15801561075557600080fd5b505af1158015610769573d6000803e3d6000fd5b505050506040513d602081101561077f57600080fd5b505161078a57600080fd5b505050565b6000610799611568565b9050346001600160a01b0382166107e15760405162461bcd60e51b8152600401808060200182810382526023815260200180611aca6023913960400191505060405180910390fd5b366000803760008036600084865af13d6000803e808015610801573d6000f35b3d6000fd5b60055481565b60035481565b6000908152600a602052604090206002015490565b6000828152600a602052604090206002015461084a90610845611736565b611550565b6108855760405162461bcd60e51b815260040180806020018281038252602f815260200180611a25602f913960400191505060405180910390fd5b61088f828261173a565b5050565b61089b611736565b6001600160a01b0316816001600160a01b0316146108ea5760405162461bcd60e51b815260040180806020018281038252602f815260200180611aed602f913960400191505060405180910390fd5b61088f82826117a3565b6000600554118015610907575043600554105b610958576040805162461bcd60e51b815260206004820152601960248201527f5374616b65313a206f6e207374616b696e6720706572696f6400000000000000604482015290519081900360640190fd5b3360009081526008602052604090208054801580159061097d57508154600483015411155b6109b85760405162461bcd60e51b81526004018080602001828103825260258152602001806119de6025913960400191505060405180910390fd5b8154600483015543600383015560058201805460ff19166001908117909155546001600160a01b0316610a82573080318211156109f457600080fd5b604051600090339084908381818185875af1925050503d8060008114610a36576040519150601f19603f3d011682016040523d82523d6000602084013e610a3b565b606091505b5050905080610a7b5760405162461bcd60e51b8152600401808060200182810382526021815260200180611aa96021913960400191505060405180910390fd5b5050610b53565b6001546040805163a9059cbb60e01b81523360048201526024810184905290516001600160a01b039092169163a9059cbb916044808201926020929091908290030181600087803b158015610ad657600080fd5b505af1158015610aea573d6000803e3d6000fd5b505050506040513d6020811015610b0057600080fd5b5051610b53576040805162461bcd60e51b815260206004820152601e60248201527f5374616b65313a207769746864726177207472616e73666572206661696c0000604482015290519081900360640190fd5b604080518281524360208201528151339230927fc2b4a290c20fb28939d29f102514fbffd2b73c059ffba8b78250c94161d5fcc6929081900390910190a35050565b6001546001600160a01b031681565b60045481565b60095415610bf5576040805162461bcd60e51b815260206004820152601360248201527214dd185ad94c55985d5b1d0e881313d0d2d151606a1b604482015290519081900360640190fd5b600160095560025460408051631718ecd760e31b815290516001600160a01b039092169163b8c766b891600480820192602092909190829003018186803b158015610c3f57600080fd5b505afa158015610c53573d6000803e3d6000fd5b505050506040513d6020811015610c6957600080fd5b50511515600114610cba576040805162461bcd60e51b815260206004820152601660248201527529ba30b5b2989d103234b9b1b637b9b29039b0b6329760511b604482015290519081900360640190fd5b336000818152600860205260408120600554600182015443929111610d18576040805162461bcd60e51b815260206004820152600f60248201526e14dd185ad94c4e8818db185a5b5959608a1b604482015290519081900360640190fd5b610d2184610f3c565b925060008311610d71576040805162461bcd60e51b81526020600482015260166024820152755374616b65313a20726577617264206973207a65726f60501b604482015290519081900360640190fd5b6002546040805163032f7adb60e61b815230600482015290516000926001600160a01b03169163cbdeb6c0916024808301926020929190829003018186803b158015610dbc57600080fd5b505afa158015610dd0573d6000803e3d6000fd5b505050506040513d6020811015610de657600080fd5b50516006549091508401811015610e44576040805162461bcd60e51b815260206004820152601c60248201527f5374616b65313a20746f74616c20726577617264206578636565647300000000604482015290519081900360640190fd5b60018201839055600280830180548601905560068054860190555460408051635569f64b60e11b81526001600160a01b038881166004830152602482018890529151919092169163aad3ec969160448083019260209291908290030181600087803b158015610eb257600080fd5b505af1158015610ec6573d6000803e3d6000fd5b505050506040513d6020811015610edc57600080fd5b5051610ee757600080fd5b604080518581526020810185905281516001600160a01b038816927f987d620f307ff6b94d58743cb7a7509f24071586a77759b77c2d4e29f75a2f9a928290030190a250506000600955505050565b60075481565b6004546000908190431080610f6757506001600160a01b038316600090815260086020526040902054155b80610f8e57506005546001600160a01b038416600090815260086020526040902060010154115b80610fb357506001600160a01b03831660009081526008602052604090206001015443105b15610fc0575060006112c2565b6004546005546001600160a01b038516600090815260086020526040902060010154821015611008576001600160a01b03851660009081526008602052604090206001015491505b804310156110135750435b6002546040805163c1b422fd60e01b815290516000926001600160a01b03169163c1b422fd9160048083019286929190829003018186803b15801561105757600080fd5b505afa15801561106b573d6000803e3d6000fd5b505050506040513d6000823e601f3d908101601f19168201604052602081101561109457600080fd5b81019080805160405193929190846401000000008211156110b457600080fd5b9083019060208201858111156110c957600080fd5b82518660208202830111640100000000821117156110e657600080fd5b82525081516020918201928201910280838360005b838110156111135781810151838201526020016110fb565b5050505090500160405250505090506000815111156112be576000806000600260009054906101000a90046001600160a01b03166001600160a01b031663d105bf856040518163ffffffff1660e01b815260040160206040518083038186803b15801561117f57600080fd5b505afa158015611193573d6000803e3d6000fd5b505050506040513d60208110156111a957600080fd5b5051905060005b84518110156112b9578481815181106111c557fe5b60209081029190910181015160025460408051632f8deb1560e11b81526004810184905290519297506001600160a01b0390911692635f1bd62a92602480840193829003018186803b15801561121a57600080fd5b505afa15801561122e573d6000803e3d6000fd5b505050506040513d602081101561124457600080fd5b50519250838611611281576001600160a01b038a1660009081526008602052604090205483908888038402028161127757fe5b04880197506112b9565b6001600160a01b038a166000908152600860205260409020548390888603840202816112a957fe5b04880197508396506001016111b0565b505050505b5050505b92915050565b6112f27fdf8b4c520ffe197c5343c6f5aec59570151ef9a492f2c624fd45ddde6135ec4233611550565b61132d5760405162461bcd60e51b8152600401808060200182810382526025815260200180611a846025913960400191505060405180910390fd5b6001600160a01b0386161580159061134d57506001600160a01b03841615155b80156113595750818311155b61136257600080fd5b600080546001600160a01b038089166001600160a01b031992831617909255600180548884169083161790556002805492871692909116919091179055826113ad57436003556113b3565b60038390555b816113c157436004556113c7565b60048290555b600454016005555050505050565b7fdf8b4c520ffe197c5343c6f5aec59570151ef9a492f2c624fd45ddde6135ec4281565b6114237fdf8b4c520ffe197c5343c6f5aec59570151ef9a492f2c624fd45ddde6135ec4233611550565b61145e5760405162461bcd60e51b8152600401808060200182810382526025815260200180611a846025913960400191505060405180910390fd5b60035443106114b4576040805162461bcd60e51b815260206004820152601e60248201527f546f6b616d616b5374616b65723a20416c726561647920737461727465640000604482015290519081900360640190fd5b6001600160a01b03811661150f576040805162461bcd60e51b815260206004820152601b60248201527f596561726e56325374616b65723a207a65726f20616464726573730000000000604482015290519081900360640190fd5b600b80546001600160a01b0319166001600160a01b0392909216919091179055565b6000828152600a60205260408120611549908361180c565b9392505050565b6000828152600a602052604081206115499083611818565b600b546001600160a01b031690565b600081565b600860205260009081526040902080546001820154600283015460038401546004850154600590950154939492939192909160ff1686565b60065481565b6000818152600a602052604081206112c29061182d565b6000828152600a60205260409020600201546115ef90610845611736565b6108ea5760405162461bcd60e51b8152600401808060200182810382526030815260200180611a546030913960400191505060405180910390fd5b600154600b546040805163095ea7b360e01b81526001600160a01b039283166004820152602481018590529051919092169163095ea7b39160448083019260209291908290030181600087803b15801561168357600080fd5b505af1158015611697573d6000803e3d6000fd5b505050506040513d60208110156116ad57600080fd5b5051611700576040805162461bcd60e51b815260206004820152601b60248201527f596561726e56325374616b65723a20617070726f7665206661696c0000000000604482015290519081900360640190fd5b50565b6002546001600160a01b031681565b6000546001600160a01b031681565b6000611549836001600160a01b038416611838565b3390565b6000828152600a602052604090206117529082611721565b1561088f5761175f611736565b6001600160a01b0316816001600160a01b0316837f2f8788117e7eff1d82e926ec794901d17c78024a50270940304540a733656f0d60405160405180910390a45050565b6000828152600a602052604090206117bb9082611882565b1561088f576117c8611736565b6001600160a01b0316816001600160a01b0316837ff6391f5c32d9c69d2a47ea670b442974b53935d1edc7fd64eb21e047a839171b60405160405180910390a45050565b60006115498383611897565b6000611549836001600160a01b0384166118fb565b60006112c282611913565b600061184483836118fb565b61187a575081546001818101845560008481526020808220909301849055845484825282860190935260409020919091556112c2565b5060006112c2565b6000611549836001600160a01b038416611917565b815460009082106118d95760405162461bcd60e51b8152600401808060200182810382526022815260200180611a036022913960400191505060405180910390fd5b8260000182815481106118e857fe5b9060005260206000200154905092915050565b60009081526001919091016020526040902054151590565b5490565b600081815260018301602052604081205480156119d3578354600019808301919081019060009087908390811061194a57fe5b906000526020600020015490508087600001848154811061196757fe5b60009182526020808320909101929092558281526001898101909252604090209084019055865487908061199757fe5b600190038181906000526020600020016000905590558660010160008781526020019081526020016000206000905560019450505050506112c2565b60009150506112c256fe5374616b65313a2072656c6561736564416d6f756e74203e207374616b6564416d6f756e74456e756d657261626c655365743a20696e646578206f7574206f6620626f756e6473416363657373436f6e74726f6c3a2073656e646572206d75737420626520616e2061646d696e20746f206772616e74416363657373436f6e74726f6c3a2073656e646572206d75737420626520616e2061646d696e20746f207265766f6b65596561726e56325374616b65723a2043616c6c6572206973206e6f7420616e2061646d696e5374616b65313a207769746864726177206574682073656e64206661696c65642e596561726e56325374616b65723a20796561726e56325661756c74206973207a65726f416363657373436f6e74726f6c3a2063616e206f6e6c792072656e6f756e636520726f6c657320666f722073656c66a264697066735822122012de4596837200df5d8ff7f8c01aa108c56bd43cd1a8f958596a4568ecda4ff864736f6c63430007060033df8b4c520ffe197c5343c6f5aec59570151ef9a492f2c624fd45ddde6135ec42",
  "immutableReferences": {},
  "source": "//SPDX-License-Identifier: Unlicense\npragma solidity ^0.7.0;\n\nimport {IStake1Vault} from \"../interfaces/IStake1Vault.sol\";\n//import { IERC20 } from \"../interfaces/IERC20.sol\";\nimport {IERC20} from \"@openzeppelin/contracts/token/ERC20/IERC20.sol\";\nimport \"../libraries/LibTokenStake1.sol\";\nimport \"./Stake1Storage.sol\";\nimport \"../connection/YearnV2Staker.sol\";\nimport {\n    ERC165Checker\n} from \"@openzeppelin/contracts/introspection/ERC165Checker.sol\";\nimport {SafeERC20} from \"@openzeppelin/contracts/token/ERC20/SafeERC20.sol\";\n\ncontract StakeForStableCoin is YearnV2Staker {\n    using SafeERC20 for IERC20;\n\n    modifier lock() {\n        require(_lock == 0, \"Stake1Vault: LOCKED\");\n        _lock = 1;\n        _;\n        _lock = 0;\n    }\n\n    event Claimed(address indexed from, uint256 amount, uint256 currentBlcok);\n    event Withdrawal(\n        address indexed from,\n        address indexed to,\n        uint256 amount,\n        uint256 currentBlcok\n    );\n\n    constructor() {\n        _setRoleAdmin(ADMIN_ROLE, ADMIN_ROLE);\n        _setupRole(ADMIN_ROLE, msg.sender);\n    }\n\n    /// @dev Initialize\n    function initialize(\n        address _token,\n        address _paytoken,\n        address _vault,\n        uint256 _saleStartBlock,\n        uint256 _startBlock,\n        uint256 _period\n    ) external onlyOwner {\n        require(\n            _token != address(0) &&\n                _vault != address(0) &&\n                _saleStartBlock <= _startBlock\n        );\n        token = _token;\n        paytoken = _paytoken;\n        vault = _vault;\n        if (_saleStartBlock == 0) saleStartBlock = block.number;\n        else saleStartBlock = _saleStartBlock;\n        if (_startBlock == 0) startBlock = block.number;\n        else startBlock = _startBlock;\n        endBlock = startBlock + _period;\n    }\n\n    receive() external payable {\n        stake(msg.value);\n    }\n\n    /// call yearnV2Vault\n    fallback() external {\n        _fallback();\n    }\n\n    function _fallback() internal {\n        address _impl = yearnV2Vault();\n        uint256 value = msg.value;\n\n        require(\n            _impl != address(0),\n            \"YearnV2Staker: yearnV2Vault is zero\"\n        );\n        assembly {\n            // Copy msg.data. We take full control of memory in this inline assembly\n            // block because it will not return to Solidity code. We overwrite the\n            // Solidity scratch pad at memory position 0.\n            calldatacopy(0, 0, calldatasize())\n\n            // Call the implementation.\n            // out and outsize are 0 because we don't know the size yet.\n            //let result := delegatecall(gas(), _impl, 0, calldatasize(), 0, 0)\n            let result := call(gas(), _impl, value, 0, calldatasize(), 0, 0)\n\n            // Copy the returned data.\n            returndatacopy(0, 0, returndatasize())\n\n            switch result\n                // delegatecall returns 0 on error.\n                case 0 {\n                    revert(0, returndatasize())\n                }\n                default {\n                    return(0, returndatasize())\n                }\n        }\n    }\n\n    /// @dev Stake amount\n    function stake(uint256 _amount) public payable {\n        require(\n            (paytoken == address(0) && msg.value > 0) ||\n                (paytoken != address(0) && _amount > 0),\n            \"Stake1: amount is zero\"\n        );\n        require(\n            block.number >= saleStartBlock && saleStartBlock < startBlock,\n            \"Stake1: period is unavailable\"\n        );\n\n        uint256 amount = _amount;\n        if (paytoken == address(0)) amount = msg.value;\n\n        LibTokenStake1.StakedAmount storage staked = userStaked[msg.sender];\n        staked.amount += amount;\n        totalStakedAmount += amount;\n        if (paytoken != address(0))\n            require(\n                IERC20(paytoken).transferFrom(msg.sender, address(this), amount)\n            );\n    }\n\n    /// @dev To withdraw\n    function withdraw() external {\n        require(\n            endBlock > 0 && endBlock < block.number,\n            \"Stake1: on staking period\"\n        );\n        LibTokenStake1.StakedAmount storage staked = userStaked[msg.sender];\n\n        uint256 amount = staked.amount;\n\n        // TODO: restaking reward\n        require(\n            staked.amount > 0 && staked.releasedAmount <= staked.amount,\n            \"Stake1: releasedAmount > stakedAmount\"\n        );\n\n        staked.releasedAmount = staked.amount;\n        staked.releasedBlock = block.number;\n        staked.released = true;\n\n        // check if we send in ethers or in tokens\n        if (paytoken == address(0)) {\n            address payable self = address(uint160(address(this)));\n            require(self.balance >= amount);\n            (bool success, ) = msg.sender.call{value: amount}(\"\");\n            require(success, \"Stake1: withdraw eth send failed.\");\n        } else {\n            require(\n                IERC20(paytoken).transfer(msg.sender, amount),\n                \"Stake1: withdraw transfer fail\"\n            );\n        }\n\n        emit Withdrawal(address(this), msg.sender, amount, block.number);\n    }\n\n    /// @dev Claim for reward\n    function claim() external lock {\n        require(\n            IStake1Vault(vault).saleClosed() == true,\n            \"Stake1: disclose sale.\"\n        );\n        address account = msg.sender;\n        uint256 rewardClaim = 0;\n        uint256 currentBlock = block.number;\n\n        LibTokenStake1.StakedAmount storage staked = userStaked[account];\n        require(staked.claimedBlock < endBlock, \"Stake1: claimed\");\n\n        rewardClaim = canRewardAmount(account);\n\n        require(rewardClaim > 0, \"Stake1: reward is zero\");\n\n        uint256 rewardTotal =\n            IStake1Vault(vault).totalRewardAmount(address(this));\n        require(\n            (rewardClaimedTotal + rewardClaim) <= rewardTotal,\n            \"Stake1: total reward exceeds\"\n        );\n\n        staked.claimedBlock = currentBlock;\n        staked.claimedAmount += rewardClaim;\n        rewardClaimedTotal += rewardClaim;\n\n        require(IStake1Vault(vault).claim(account, rewardClaim));\n\n        emit Claimed(account, rewardClaim, currentBlock);\n    }\n\n    /// @dev Returns the amount that can be rewarded\n    function canRewardAmount(address account) public view returns (uint256) {\n        uint256 reward = 0;\n        if (\n            block.number < startBlock ||\n            userStaked[account].amount == 0 ||\n            userStaked[account].claimedBlock > endBlock ||\n            userStaked[account].claimedBlock > block.number\n        ) {\n            reward = 0;\n        } else {\n            uint256 startR = startBlock;\n            uint256 endR = endBlock;\n            if (startR < userStaked[account].claimedBlock)\n                startR = userStaked[account].claimedBlock;\n            if (block.number < endR) endR = block.number;\n\n            uint256[] memory orderedEndBlocks =\n                IStake1Vault(vault).orderedEndBlocksAll();\n\n            if (orderedEndBlocks.length > 0) {\n                uint256 _end = 0;\n                uint256 _total = 0;\n                uint256 blockTotalReward = 0;\n                blockTotalReward = IStake1Vault(vault).blockTotalReward();\n\n                for (uint256 i = 0; i < orderedEndBlocks.length; i++) {\n                    _end = orderedEndBlocks[i];\n                    _total = IStake1Vault(vault).stakeEndBlockTotal(_end);\n\n                    if (endR <= _end) {\n                        reward +=\n                            (blockTotalReward *\n                                (endR - startR) *\n                                userStaked[account].amount) /\n                            _total;\n                        break;\n                    } else {\n                        reward +=\n                            (blockTotalReward *\n                                (_end - startR) *\n                                userStaked[account].amount) /\n                            _total;\n                        startR = _end;\n                    }\n                }\n            }\n        }\n        return reward;\n    }\n\n}\n",
  "sourcePath": "/Users/kadyrbeknarmamatov/code/ico20-contracts/contracts/stake/StakeForStableCoin.sol",
  "compiler": {
    "name": "solc",
    "version": "0.7.6+commit.7338295f.Emscripten.clang"
  },
  "schemaVersion": "3.4.0",
  "updatedAt": "2021-05-11T06:57:40.723Z",
  "devdoc": {
    "kind": "dev",
    "methods": {
      "canRewardAmount(address)": {
        "details": "Returns the amount that can be rewarded"
      },
      "claim()": {
        "details": "Claim for reward"
      },
      "getRoleAdmin(bytes32)": {
        "details": "Returns the admin role that controls `role`. See {grantRole} and {revokeRole}. To change a role's admin, use {_setRoleAdmin}."
      },
      "getRoleMember(bytes32,uint256)": {
        "details": "Returns one of the accounts that have `role`. `index` must be a value between 0 and {getRoleMemberCount}, non-inclusive. Role bearers are not sorted in any particular way, and their ordering may change at any point. WARNING: When using {getRoleMember} and {getRoleMemberCount}, make sure you perform all queries on the same block. See the following https://forum.openzeppelin.com/t/iterating-over-elements-on-enumerableset-in-openzeppelin-contracts/2296[forum post] for more information."
      },
      "getRoleMemberCount(bytes32)": {
        "details": "Returns the number of accounts that have `role`. Can be used together with {getRoleMember} to enumerate all bearers of a role."
      },
      "grantRole(bytes32,address)": {
        "details": "Grants `role` to `account`. If `account` had not been already granted `role`, emits a {RoleGranted} event. Requirements: - the caller must have ``role``'s admin role."
      },
      "hasRole(bytes32,address)": {
        "details": "Returns `true` if `account` has been granted `role`."
      },
      "initialize(address,address,address,uint256,uint256,uint256)": {
        "details": "Initialize"
      },
      "renounceRole(bytes32,address)": {
        "details": "Revokes `role` from the calling account. Roles are often managed via {grantRole} and {revokeRole}: this function's purpose is to provide a mechanism for accounts to lose their privileges if they are compromised (such as when a trusted device is misplaced). If the calling account had been granted `role`, emits a {RoleRevoked} event. Requirements: - the caller must be `account`."
      },
      "revokeRole(bytes32,address)": {
        "details": "Revokes `role` from `account`. If `account` had been granted `role`, emits a {RoleRevoked} event. Requirements: - the caller must have ``role``'s admin role."
      },
      "stake(uint256)": {
        "details": "Stake amount"
      },
      "withdraw()": {
        "details": "To withdraw"
      }
    },
    "version": 1
  },
  "userdoc": {
    "kind": "user",
    "methods": {},
    "version": 1
  }
}