{
  "contractName": "StakeVaultFactory",
  "abi": [
    {
      "inputs": [
        {
          "internalType": "address",
          "name": "_stakeVaultLogic",
          "type": "address"
        }
      ],
      "stateMutability": "nonpayable",
      "type": "constructor"
    },
    {
      "inputs": [],
      "name": "ADMIN_ROLE",
      "outputs": [
        {
          "internalType": "bytes32",
          "name": "",
          "type": "bytes32"
        }
      ],
      "stateMutability": "view",
      "type": "function"
    },
    {
      "inputs": [],
      "name": "stakeVaultLogic",
      "outputs": [
        {
          "internalType": "address",
          "name": "",
          "type": "address"
        }
      ],
      "stateMutability": "view",
      "type": "function"
    },
    {
      "inputs": [
        {
          "internalType": "address[4]",
          "name": "_addr",
          "type": "address[4]"
        },
        {
          "internalType": "uint256[4]",
          "name": "_intInfo",
          "type": "uint256[4]"
        },
        {
          "internalType": "address",
          "name": "owner",
          "type": "address"
        }
      ],
      "name": "create",
      "outputs": [
        {
          "internalType": "address",
          "name": "",
          "type": "address"
        }
      ],
      "stateMutability": "nonpayable",
      "type": "function"
    }
  ],
  "bytecode": "0x608060405234801561001057600080fd5b50604051611a01380380611a018339818101604052602081101561003357600080fd5b50516001600160a01b038116610090576040805162461bcd60e51b815260206004820152601d60248201527f5374616b655661756c74466163746f72793a206c6f676963207a65726f000000604482015290519081900360640190fd5b600080546001600160a01b039092166001600160a01b0319909216919091179055611941806100c06000396000f3fe608060405234801561001057600080fd5b50600436106100415760003560e01c80634d59eaf51461004657806375b238fc1461006a5780638f3091da14610084575b600080fd5b61004e6100b4565b604080516001600160a01b039092168252519081900360200190f35b6100726100c3565b60408051918252519081900360200190f35b61004e600480360361012081101561009b57600080fd5b50608081016001600160a01b03610100830135166100d5565b6000546001600160a01b031681565b6000805160206118ec83398151915281565b600080546040805186356001600160a01b03908116936020808a0135831694808b01358416946060808d01358616958c3595948d013594938d013593918d0135928b929091169061012590610349565b6001600160a01b03909116815260405190819003602001906000f080158015610152573d6000803e3d6000fd5b5090506001600160a01b0381166101b0576040805162461bcd60e51b815260206004820152601d60248201527f5374616b655661756c74466163746f72793a2070726f7879207a65726f000000604482015290519081900360640190fd5b6040805163372666e560e21b81526001600160a01b038b811660048301528a8116602483015260448201879052606482018690526084820185905289811660a483015260c4820188905288811660e483015291519183169163dc999b94916101048082019260009290919082900301818387803b15801561023057600080fd5b505af1158015610244573d6000803e3d6000fd5b50505050806001600160a01b0316632f2ff15d6000805160206118ec8339815191528d6040518363ffffffff1660e01b815260040180838152602001826001600160a01b0316815260200192505050600060405180830381600087803b1580156102ad57600080fd5b505af11580156102c1573d6000803e3d6000fd5b50506040805163d547741f60e01b81526000805160206118ec833981519152600482015230602482015290516001600160a01b038516935063d547741f9250604480830192600092919082900301818387803b15801561032057600080fd5b505af1158015610334573d6000803e3d6000fd5b50929f9e505050505050505050505050505050565b611595806103578339019056fe60806040523480156200001157600080fd5b506040516200159538038062001595833981810160405260208110156200003757600080fd5b5051620000546000805160206200157583398151915280620000b0565b6200006f600080516020620015758339815191523362000102565b6200008a600080516020620015758339815191523062000102565b601180546001600160a01b0319166001600160a01b039290921691909117905562000216565b600082815260208190526040808220600201549051839285917fbd79b86ffe0ab8e8776151514217cd7cacd52c909f66475c3af44e129f0b00ff9190a460009182526020829052604090912060020155565b6200010e828262000112565b5050565b6000828152602081815260409091206200013791839062000f136200018b821b17901c565b156200010e5762000147620001ab565b6001600160a01b0316816001600160a01b0316837f2f8788117e7eff1d82e926ec794901d17c78024a50270940304540a733656f0d60405160405180910390a45050565b6000620001a2836001600160a01b038416620001af565b90505b92915050565b3390565b6000620001bd8383620001fe565b620001f557508154600181810184556000848152602080822090930184905584548482528286019093526040902091909155620001a5565b506000620001a5565b60009081526001919091016020526040902054151590565b61134f80620002266000396000f3fe6080604052600436106101915760003560e01c80637cb00d25116100d7578063b8c766b811610085578063b8c766b8146104c8578063b97af0db146104dd578063ca15c873146104f2578063d105bf851461051c578063d547741f14610531578063dc999b941461056a578063dfbf9def146105ce578063f2fde38b1461069c576101a0565b80637cb00d25146103df57806389f395de1461040b5780639010d07c1461042057806391d14854146104505780639d84ca3514610489578063a217fddf1461049e578063b03dc514146104b3576101a0565b80633659cfe61161013f5780633659cfe6146102f05780633a76eb371461032357806343b0934a146103385780634b5e7cd51461034d5780635c60da1b146103625780635f1bd62a1461037757806363a8fd89146103a157806375b238fc146103ca576101a0565b8063153099d0146101a857806320027275146101e4578063248a9ca3146101f9578063294f5fa3146102235780632f2ff15d14610269578063355274ea146102a257806336568abe146102b7576101a0565b366101a05761019e6106cf565b005b61019e6106cf565b3480156101b457600080fd5b506101d2600480360360208110156101cb57600080fd5b503561075c565b60408051918252519081900360200190f35b3480156101f057600080fd5b506101d261077d565b34801561020557600080fd5b506101d26004803603602081101561021c57600080fd5b5035610783565b34801561022f57600080fd5b5061024d6004803603602081101561024657600080fd5b5035610798565b604080516001600160a01b039092168252519081900360200190f35b34801561027557600080fd5b5061019e6004803603604081101561028c57600080fd5b50803590602001356001600160a01b03166107c2565b3480156102ae57600080fd5b506101d261082e565b3480156102c357600080fd5b5061019e600480360360408110156102da57600080fd5b50803590602001356001600160a01b0316610834565b3480156102fc57600080fd5b5061019e6004803603602081101561031357600080fd5b50356001600160a01b0316610895565b34801561032f57600080fd5b506101d26109e8565b34801561034457600080fd5b5061024d6109ee565b34801561035957600080fd5b506101d26109fd565b34801561036e57600080fd5b5061024d610a03565b34801561038357600080fd5b506101d26004803603602081101561039a57600080fd5b5035610a12565b3480156103ad57600080fd5b506103b6610a24565b604080519115158252519081900360200190f35b3480156103d657600080fd5b506101d2610a34565b3480156103eb57600080fd5b5061019e6004803603602081101561040257600080fd5b50351515610a46565b34801561041757600080fd5b5061024d610ab7565b34801561042c57600080fd5b5061024d6004803603604081101561044357600080fd5b5080359060200135610ac6565b34801561045c57600080fd5b506103b66004803603604081101561047357600080fd5b50803590602001356001600160a01b0316610ae7565b34801561049557600080fd5b5061024d610aff565b3480156104aa57600080fd5b506101d2610b0e565b3480156104bf57600080fd5b506101d2610b13565b3480156104d457600080fd5b506103b6610b19565b3480156104e957600080fd5b506101d2610b22565b3480156104fe57600080fd5b506101d26004803603602081101561051557600080fd5b5035610b28565b34801561052857600080fd5b506101d2610b3f565b34801561053d57600080fd5b5061019e6004803603604081101561055457600080fd5b50803590602001356001600160a01b0316610b45565b34801561057657600080fd5b5061019e600480360361010081101561058e57600080fd5b506001600160a01b038135811691602081013582169160408201359160608101359160808201359160a081013582169160c08201359160e0013516610b9e565b3480156105da57600080fd5b50610601600480360360208110156105f157600080fd5b50356001600160a01b0316610d70565b6040518080602001878152602001868152602001858152602001848152602001838152602001828103825288818151815260200191508051906020019080838360005b8381101561065c578181015183820152602001610644565b50505050905090810190601f1680156106895780820380516001836020036101000a031916815260200191505b5097505050505050505060405180910390f35b3480156106a857600080fd5b5061019e600480360360208110156106bf57600080fd5b50356001600160a01b0316610e2f565b60006106d9610a03565b90506001600160a01b038116158015906106fd5750601154600160a01b900460ff16155b6107385760405162461bcd60e51b81526004018080602001828103825260278152602001806112c46027913960400191505060405180910390fd5b3660008037600080366000845af43d6000803e808015610757573d6000f35b3d6000fd5b600e818154811061076c57600080fd5b600091825260209091200154905081565b60045481565b60009081526020819052604090206002015490565b600c81815481106107a857600080fd5b6000918252602090912001546001600160a01b0316905081565b6000828152602081905260409020600201546107e5906107e0610f28565b610ae7565b6108205760405162461bcd60e51b815260040180806020018281038252602f81526020018061121b602f913960400191505060405180910390fd5b61082a8282610f2c565b5050565b60035481565b61083c610f28565b6001600160a01b0316816001600160a01b03161461088b5760405162461bcd60e51b815260040180806020018281038252602f8152602001806112eb602f913960400191505060405180910390fd5b61082a8282610f95565b6108ad6000805160206112a483398151915233610ae7565b6108e85760405162461bcd60e51b81526004018080602001828103825260298152602001806111d06029913960400191505060405180910390fd5b6001600160a01b038116610943576040805162461bcd60e51b815260206004820152601e60248201527f5374616b655661756c7450726f78793a20696e707574206973207a65726f0000604482015290519081900360640190fd5b6011546001600160a01b038281169116141561099e576040805162461bcd60e51b81526020600482015260156024820152745374616b655661756c7450726f78793a2073616d6560581b604482015290519081900360640190fd5b601180546001600160a01b0319166001600160a01b0383169081179091556040517fbc7cd75a20ee27fd9adebab32041f755214dbc6bffa90cc0225b39da2e5c2d3b90600090a250565b60065481565b6002546001600160a01b031681565b60055481565b6011546001600160a01b031690565b600f6020526000908152604090205481565b601154600160a01b900460ff1681565b6000805160206112a483398151915281565b610a5e6000805160206112a483398151915233610ae7565b610a995760405162461bcd60e51b81526004018080602001828103825260298152602001806111d06029913960400191505060405180910390fd5b60118054911515600160a01b0260ff60a01b19909216919091179055565b6001546001600160a01b031681565b6000828152602081905260408120610ade9083610ffe565b90505b92915050565b6000828152602081905260408120610ade908361100a565b600b546001600160a01b031681565b600081565b60075481565b60095460ff1681565b600a5481565b6000818152602081905260408120610ae19061101f565b60085481565b600082815260208190526040902060020154610b63906107e0610f28565b61088b5760405162461bcd60e51b81526004018080602001828103825260308152602001806112746030913960400191505060405180910390fd5b610bb66000805160206112a483398151915233610ae7565b610bf15760405162461bcd60e51b81526004018080602001828103825260298152602001806111d06029913960400191505060405180910390fd5b6001600160a01b03881615801590610c1157506001600160a01b03831615155b610c62576040805162461bcd60e51b815260206004820152601e60248201527f5374616b655661756c7450726f78793a20696e707574206973207a65726f0000604482015290519081900360640190fd5b60008611610cb3576040805162461bcd60e51b81526020600482015260196024820152785374616b65315661756c743a205f636170206973207a65726f60381b604482015290519081900360640190fd5b8385108015610cc25750600084115b610cfd5760405162461bcd60e51b815260040180806020018281038252602a81526020018061124a602a913960400191505060405180910390fd5b600180546001600160a01b03808b166001600160a01b0319928316179092556003889055600280548a841690831617905560048790556005869055600a849055600b805492841692909116919091179055610d666000805160206112a4833981519152846107c2565b5050505050505050565b600d6020908152600091825260409182902080548351601f60026000196101006001861615020190931692909204918201849004840281018401909452808452909291839190830182828015610e075780601f10610ddc57610100808354040283529160200191610e07565b820191906000526020600020905b815481529060010190602001808311610dea57829003601f168201915b5050505050908060010154908060020154908060030154908060040154908060050154905086565b610e476000805160206112a483398151915233610ae7565b610e825760405162461bcd60e51b81526004018080602001828103825260298152602001806111d06029913960400191505060405180910390fd5b336001600160a01b0382161415610ee0576040805162461bcd60e51b815260206004820152601d60248201527f5374616b655661756c7453746f726167653a2073616d65206f776e6572000000604482015290519081900360640190fd5b610ef86000805160206112a4833981519152826107c2565b610f106000805160206112a483398151915233610b45565b50565b6000610ade836001600160a01b03841661102a565b3390565b6000828152602081905260409020610f449082610f13565b1561082a57610f51610f28565b6001600160a01b0316816001600160a01b0316837f2f8788117e7eff1d82e926ec794901d17c78024a50270940304540a733656f0d60405160405180910390a45050565b6000828152602081905260409020610fad9082611074565b1561082a57610fba610f28565b6001600160a01b0316816001600160a01b0316837ff6391f5c32d9c69d2a47ea670b442974b53935d1edc7fd64eb21e047a839171b60405160405180910390a45050565b6000610ade8383611089565b6000610ade836001600160a01b0384166110ed565b6000610ae182611105565b600061103683836110ed565b61106c57508154600181810184556000848152602080822090930184905584548482528286019093526040902091909155610ae1565b506000610ae1565b6000610ade836001600160a01b038416611109565b815460009082106110cb5760405162461bcd60e51b81526004018080602001828103825260228152602001806111f96022913960400191505060405180910390fd5b8260000182815481106110da57fe5b9060005260206000200154905092915050565b60009081526001919091016020526040902054151590565b5490565b600081815260018301602052604081205480156111c5578354600019808301919081019060009087908390811061113c57fe5b906000526020600020015490508087600001848154811061115957fe5b60009182526020808320909101929092558281526001898101909252604090209084019055865487908061118957fe5b60019003818190600052602060002001600090559055866001016000878152602001908152602001600020600090556001945050505050610ae1565b6000915050610ae156fe5374616b655661756c7453746f726167653a2043616c6c6572206973206e6f7420616e2061646d696e456e756d657261626c655365743a20696e646578206f7574206f6620626f756e6473416363657373436f6e74726f6c3a2073656e646572206d75737420626520616e2061646d696e20746f206772616e745374616b655661756c7450726f78793a207374617274426c6f636b20697320756e617661696c61626c65416363657373436f6e74726f6c3a2073656e646572206d75737420626520616e2061646d696e20746f207265766f6b65df8b4c520ffe197c5343c6f5aec59570151ef9a492f2c624fd45ddde6135ec425374616b655661756c7450726f78793a20696d706c204f522070726f78792069732066616c7365416363657373436f6e74726f6c3a2063616e206f6e6c792072656e6f756e636520726f6c657320666f722073656c66a264697066735822122030fbcf4de5e5923683e0f6667e9ca98299da6141e60b32bc4ba7c693852bb0d964736f6c63430007060033df8b4c520ffe197c5343c6f5aec59570151ef9a492f2c624fd45ddde6135ec42df8b4c520ffe197c5343c6f5aec59570151ef9a492f2c624fd45ddde6135ec42a26469706673582212208bd5a70071fe2bb39db7308854dd2fd5c45eac8d0ad8fd9792f53635427d2ea464736f6c63430007060033",
  "immutableReferences": {},
  "source": "// SPDX-License-Identifier: MIT\npragma solidity ^0.7.6;\n\nimport \"../interfaces/IStakeVaultFactory.sol\";\nimport {StakeVaultProxy} from \"../stake/StakeVaultProxy.sol\";\n\n/// @title A factory that creates a vault that hold reward\ncontract StakeVaultFactory is IStakeVaultFactory {\n    bytes32 public constant ADMIN_ROLE = keccak256(\"ADMIN\");\n\n    address public stakeVaultLogic;\n\n    /// @dev constructor of StakeVaultFactory\n    /// @param _stakeVaultLogic the logic address used in StakeVaultFactory\n    constructor(address _stakeVaultLogic) {\n        require(\n            _stakeVaultLogic != address(0),\n            \"StakeVaultFactory: logic zero\"\n        );\n        stakeVaultLogic = _stakeVaultLogic;\n    }\n\n    /// @dev Create a vault that hold reward, _cap is allocated reward amount.\n    /// @param _addr the array of [token, paytoken, vault, defiAddr]\n    /// @param _intInfo array of [_stakeType, _cap, _saleStartBlock, _stakeStartBlock]\n    /// @param owner the owner adderess\n    /// @return a vault address\n    function create(\n        address[4] calldata _addr,\n        uint256[4] calldata _intInfo,\n        address owner\n    ) external override returns (address) {\n        address _tos = _addr[0];\n        address _paytoken = _addr[1];\n        address _stakefactory = _addr[2];\n        address _defiAddr = _addr[3];\n        uint256 _stakeType = _intInfo[0];\n        uint256 _cap = _intInfo[1];\n        uint256 _saleStartBlock = _intInfo[2];\n        uint256 _stakeStartBlock = _intInfo[3];\n\n        StakeVaultProxy proxy = new StakeVaultProxy(stakeVaultLogic);\n        require(address(proxy) != address(0), \"StakeVaultFactory: proxy zero\");\n\n        proxy.initialize(\n            _tos,\n            _paytoken,\n            _cap,\n            _saleStartBlock,\n            _stakeStartBlock,\n            _stakefactory,\n            _stakeType,\n            _defiAddr\n        );\n\n        proxy.grantRole(ADMIN_ROLE, owner);\n        proxy.revokeRole(ADMIN_ROLE, address(this));\n\n        return address(proxy);\n    }\n}\n",
  "sourcePath": "/Users/zena/ico2.0/ico20-contracts/contracts/factory/StakeVaultFactory.sol",
  "compiler": {
    "name": "solc",
    "version": "0.7.6+commit.7338295f.Emscripten.clang"
  },
  "schemaVersion": "3.3.4",
  "updatedAt": "2021-06-15T09:38:41.449Z",
  "devdoc": {
    "kind": "dev",
    "methods": {
      "constructor": {
        "details": "constructor of StakeVaultFactory",
        "params": {
          "_stakeVaultLogic": "the logic address used in StakeVaultFactory"
        }
      },
      "create(address[4],uint256[4],address)": {
        "details": "Create a vault that hold reward, _cap is allocated reward amount.",
        "params": {
          "_addr": "the array of [token, paytoken, vault, defiAddr]",
          "_intInfo": "array of [_stakeType, _cap, _saleStartBlock, _stakeStartBlock]",
          "owner": "the owner adderess"
        },
        "returns": {
          "_0": "a vault address"
        }
      }
    },
    "title": "A factory that creates a vault that hold reward",
    "version": 1
  },
  "userdoc": {
    "kind": "user",
    "methods": {},
    "version": 1
  }
}