{
  "contractName": "StakeForStableCoinFactory",
  "abi": [
    {
      "inputs": [],
      "name": "ADMIN_ROLE",
      "outputs": [
        {
          "internalType": "bytes32",
          "name": "",
          "type": "bytes32"
        }
      ],
      "stateMutability": "view",
      "type": "function"
    },
    {
      "inputs": [
        {
          "internalType": "uint256",
          "name": "_pahse",
          "type": "uint256"
        },
        {
          "internalType": "address",
          "name": "_vault",
          "type": "address"
        },
        {
          "internalType": "address",
          "name": "_token",
          "type": "address"
        },
        {
          "internalType": "address",
          "name": "_paytoken",
          "type": "address"
        },
        {
          "internalType": "uint256",
          "name": "_period",
          "type": "uint256"
        },
        {
          "internalType": "address",
          "name": "owner",
          "type": "address"
        }
      ],
      "name": "deploy",
      "outputs": [
        {
          "internalType": "address",
          "name": "",
          "type": "address"
        }
      ],
      "stateMutability": "nonpayable",
      "type": "function"
    }
  ],
  "bytecode": "0x608060405234801561001057600080fd5b50613bb5806100206000396000f3fe608060405234801561001057600080fd5b50600436106100365760003560e01c806375b238fc1461003b578063c4fdc24c14610055575b600080fd5b6100436100bd565b60408051918252519081900360200190f35b6100a1600480360360c081101561006b57600080fd5b508035906001600160a01b0360208201358116916040810135821691606082013581169160808101359160a090910135166100e1565b604080516001600160a01b039092168252519081900360200190f35b7fdf8b4c520ffe197c5343c6f5aec59570151ef9a492f2c624fd45ddde6135ec4281565b60006001600160a01b038616158015906100fb5750866001145b6101365760405162461bcd60e51b815260040180806020018281038252602b815260200180613b2f602b913960400191505060405180910390fd5b60008690506000816001600160a01b031663200272756040518163ffffffff1660e01b815260040160206040518083038186803b15801561017657600080fd5b505afa15801561018a573d6000803e3d6000fd5b505050506040513d60208110156101a057600080fd5b505160408051634b5e7cd560e01b815290519192506000916001600160a01b03851691634b5e7cd5916004808301926020929190829003018186803b1580156101e857600080fd5b505afa1580156101fc573d6000803e3d6000fd5b505050506040513d602081101561021257600080fd5b505160408051639d84ca3560e01b815290519192506000916001600160a01b03861691639d84ca35916004808301926020929190829003018186803b15801561025a57600080fd5b505afa15801561026e573d6000803e3d6000fd5b505050506040513d602081101561028457600080fd5b505190508682841080156102985750600083115b6102d35760405162461bcd60e51b8152600401808060200182810382526026815260200180613b5a6026913960400191505060405180910390fd5b60006040516102e1906105c3565b604051809103906000f0801580156102fd573d6000803e3d6000fd5b509050600060405161030e906105d0565b604051809103906000f08015801561032a573d6000803e3d6000fd5b509050816001600160a01b0316633659cfe6826040518263ffffffff1660e01b815260040180826001600160a01b03168152602001915050600060405180830381600087803b15801561037c57600080fd5b505af1158015610390573d6000803e3d6000fd5b50505050816001600160a01b031663728cdbca8d8d8a8a8a896040518763ffffffff1660e01b815260040180876001600160a01b03168152602001866001600160a01b03168152602001856001600160a01b031681526020018481526020018381526020018281526020019650505050505050600060405180830381600087803b15801561041d57600080fd5b505af1158015610431573d6000803e3d6000fd5b50505050816001600160a01b03166385fb34ce856040518263ffffffff1660e01b815260040180826001600160a01b03168152602001915050600060405180830381600087803b15801561048457600080fd5b505af1158015610498573d6000803e3d6000fd5b50505050816001600160a01b0316632f2ff15d7fdf8b4c520ffe197c5343c6f5aec59570151ef9a492f2c624fd45ddde6135ec428b6040518363ffffffff1660e01b815260040180838152602001826001600160a01b0316815260200192505050600060405180830381600087803b15801561051357600080fd5b505af1158015610527573d6000803e3d6000fd5b50506040805163d547741f60e01b81527fdf8b4c520ffe197c5343c6f5aec59570151ef9a492f2c624fd45ddde6135ec42600482015230602482015290516001600160a01b038616935063d547741f9250604480830192600092919082900301818387803b15801561059857600080fd5b505af11580156105ac573d6000803e3d6000fd5b509399505050505050505050509695505050505050565b611065806105de83390190565b6124ec806116438339019056fe60806040523480156200001157600080fd5b506200002d600080516020620010458339815191528062000069565b620000486000805160206200104583398151915233620000bb565b620000636000805160206200104583398151915230620000bb565b620001d1565b6000828152600d6020526040808220600201549051839285917fbd79b86ffe0ab8e8776151514217cd7cacd52c909f66475c3af44e129f0b00ff9190a46000918252600d602052604090912060020155565b620000c78282620000cb565b5050565b6000828152600d60209081526040909120620000f29183906200087e62000146821b17901c565b15620000c7576200010262000166565b6001600160a01b0316816001600160a01b0316837f2f8788117e7eff1d82e926ec794901d17c78024a50270940304540a733656f0d60405160405180910390a45050565b60006200015d836001600160a01b0384166200016a565b90505b92915050565b3390565b6000620001788383620001b9565b620001b05750815460018181018455600084815260208082209093018490558454848252828601909352604090209190915562000160565b50600062000160565b60009081526001919091016020526040902054151590565b610e6480620001e16000396000f3fe60806040526004361061016a5760003560e01c806375b238fc116100d1578063a217fddf1161008a578063ca15c87311610064578063ca15c873146103d5578063d547741f146103f5578063fbfa77cf14610415578063fc0c546a1461042a57610179565b8063a217fddf14610378578063acc3a9391461038d578063b2d4d6a3146103c057610179565b806375b238fc146102d95780637cb00d25146102ee578063869890381461030e5780639010d07c1461032357806391d1485414610343578063a2095f291461036357610179565b806343b0934a1161012357806343b0934a1461024157806348cd4cb114610263578063567e98f9146102785780635c60da1b1461028d57806363a8fd89146102a257806368304835146102c457610179565b8063083c63231461018157806320027275146101ac578063248a9ca3146101c15780632f2ff15d146101e157806336568abe146102015780633659cfe61461022157610179565b366101795761017761043f565b005b61017761043f565b34801561018d57600080fd5b506101966104b6565b6040516101a39190610c15565b60405180910390f35b3480156101b857600080fd5b506101966104bc565b3480156101cd57600080fd5b506101966101dc366004610b92565b6104c2565b3480156101ed57600080fd5b506101776101fc366004610baa565b6104da565b34801561020d57600080fd5b5061017761021c366004610baa565b610541565b34801561022d57600080fd5b5061017761023c366004610b51565b6105a2565b34801561024d57600080fd5b50610256610686565b6040516101a39190610bf6565b34801561026f57600080fd5b50610196610695565b34801561028457600080fd5b5061019661069b565b34801561029957600080fd5b506102566106a1565b3480156102ae57600080fd5b506102b76106b0565b6040516101a39190610c0a565b3480156102d057600080fd5b506102566106c0565b3480156102e557600080fd5b506101966106cf565b3480156102fa57600080fd5b50610177610309366004610b6b565b6106f3565b34801561031a57600080fd5b50610196610757565b34801561032f57600080fd5b5061025661033e366004610bd5565b61075d565b34801561034f57600080fd5b506102b761035e366004610baa565b61077e565b34801561036f57600080fd5b50610256610796565b34801561038457600080fd5b506101966107a5565b34801561039957600080fd5b506103ad6103a8366004610b51565b6107aa565b6040516101a39796959493929190610d4c565b3480156103cc57600080fd5b506101966107ea565b3480156103e157600080fd5b506101966103f0366004610b92565b6107f0565b34801561040157600080fd5b50610177610410366004610baa565b610807565b34801561042157600080fd5b50610256610860565b34801561043657600080fd5b5061025661086f565b60006104496106a1565b90506001600160a01b0381161580159061046d5750600e54600160a01b900460ff16155b6104925760405162461bcd60e51b815260040161048990610cfd565b60405180910390fd5b3660008037600080366000845af43d6000803e8080156104b1573d6000f35b3d6000fd5b60065481565b60045481565b6000818152600d60205260409020600201545b919050565b6000828152600d60205260409020600201546104f89061035e610893565b6105335760405162461bcd60e51b815260040180806020018281038252602f815260200180610da1602f913960400191505060405180910390fd5b61053d8282610897565b5050565b610549610893565b6001600160a01b0316816001600160a01b0316146105985760405162461bcd60e51b815260040180806020018281038252602f815260200180610e00602f913960400191505060405180910390fd5b61053d8282610900565b6105cc7fdf8b4c520ffe197c5343c6f5aec59570151ef9a492f2c624fd45ddde6135ec423361077e565b6105e85760405162461bcd60e51b815260040161048990610cb2565b6001600160a01b03811661060e5760405162461bcd60e51b815260040161048990610c1e565b600e546001600160a01b038281169116141561063c5760405162461bcd60e51b815260040161048990610c55565b600e80546001600160a01b0319166001600160a01b0383169081179091556040517fbc7cd75a20ee27fd9adebab32041f755214dbc6bffa90cc0225b39da2e5c2d3b90600090a250565b6002546001600160a01b031681565b60055481565b60085481565b600e546001600160a01b031690565b600e54600160a01b900460ff1681565b6001546001600160a01b031681565b7fdf8b4c520ffe197c5343c6f5aec59570151ef9a492f2c624fd45ddde6135ec4281565b61071d7fdf8b4c520ffe197c5343c6f5aec59570151ef9a492f2c624fd45ddde6135ec423361077e565b6107395760405162461bcd60e51b815260040161048990610cb2565b600e8054911515600160a01b0260ff60a01b19909216919091179055565b600a5481565b6000828152600d602052604081206107759083610969565b90505b92915050565b6000828152600d602052604081206107759083610975565b600c546001600160a01b031681565b600081565b6009602052600090815260409020805460018201546002830154600384015460048501546005860154600690960154949593949293919290919060ff1687565b60075481565b6000818152600d602052604081206107789061098a565b6000828152600d60205260409020600201546108259061035e610893565b6105985760405162461bcd60e51b8152600401808060200182810382526030815260200180610dd06030913960400191505060405180910390fd5b6003546001600160a01b031681565b6000546001600160a01b031681565b6000610775836001600160a01b038416610995565b3390565b6000828152600d602052604090206108af908261087e565b1561053d576108bc610893565b6001600160a01b0316816001600160a01b0316837f2f8788117e7eff1d82e926ec794901d17c78024a50270940304540a733656f0d60405160405180910390a45050565b6000828152600d6020526040902061091890826109df565b1561053d57610925610893565b6001600160a01b0316816001600160a01b0316837ff6391f5c32d9c69d2a47ea670b442974b53935d1edc7fd64eb21e047a839171b60405160405180910390a45050565b600061077583836109f4565b6000610775836001600160a01b038416610a58565b600061077882610a70565b60006109a18383610a58565b6109d757508154600181810184556000848152602080822090930184905584548482528286019093526040902091909155610778565b506000610778565b6000610775836001600160a01b038416610a74565b81546000908210610a365760405162461bcd60e51b8152600401808060200182810382526022815260200180610d7f6022913960400191505060405180910390fd5b826000018281548110610a4557fe5b9060005260206000200154905092915050565b60009081526001919091016020526040902054151590565b5490565b60008181526001830160205260408120548015610b305783546000198083019190810190600090879083908110610aa757fe5b9060005260206000200154905080876000018481548110610ac457fe5b600091825260208083209091019290925582815260018981019092526040902090840190558654879080610af457fe5b60019003818190600052602060002001600090559055866001016000878152602001908152602001600020600090556001945050505050610778565b6000915050610778565b80356001600160a01b03811681146104d557600080fd5b600060208284031215610b62578081fd5b61077582610b3a565b600060208284031215610b7c578081fd5b81358015158114610b8b578182fd5b9392505050565b600060208284031215610ba3578081fd5b5035919050565b60008060408385031215610bbc578081fd5b82359150610bcc60208401610b3a565b90509250929050565b60008060408385031215610be7578182fd5b50508035926020909101359150565b6001600160a01b0391909116815260200190565b901515815260200190565b90815260200190565b6020808252601e908201527f5374616b65596561726e50726f78793a20696e707574206973207a65726f0000604082015260600190565b60208082526037908201527f5374616b65596561726e50726f78793a2054686520696e70757420616464726560408201527f73732069732073616d6520617320746865207374617465000000000000000000606082015260800190565b6020808252602b908201527f5374616b65596561726e50726f78793a206d73672e73656e646572206973206e60408201526a37ba1030b71030b236b4b760a91b606082015260800190565b6020808252602f908201527f5374616b65596561726e50726f78793a20696d706c206973207a65726f204f5260408201526e2070726f78792069732066616c736560881b606082015260800190565b968752602087019590955260408601939093526060850191909152608084015260a0830152151560c082015260e0019056fe456e756d657261626c655365743a20696e646578206f7574206f6620626f756e6473416363657373436f6e74726f6c3a2073656e646572206d75737420626520616e2061646d696e20746f206772616e74416363657373436f6e74726f6c3a2073656e646572206d75737420626520616e2061646d696e20746f207265766f6b65416363657373436f6e74726f6c3a2063616e206f6e6c792072656e6f756e636520726f6c657320666f722073656c66a2646970667358221220025d2e5bd24c365f8c083e732638ac45c3c967eaf7772216458a6d028ebaf21464736f6c63430007060033df8b4c520ffe197c5343c6f5aec59570151ef9a492f2c624fd45ddde6135ec4260806040523480156200001157600080fd5b506200002d600080516020620024cc833981519152806200004e565b62000048600080516020620024cc83398151915233620000a0565b620001b6565b6000828152600d6020526040808220600201549051839285917fbd79b86ffe0ab8e8776151514217cd7cacd52c909f66475c3af44e129f0b00ff9190a46000918252600d602052604090912060020155565b620000ac8282620000b0565b5050565b6000828152600d60209081526040909120620000d791839062001d9b6200012b821b17901c565b15620000ac57620000e76200014b565b6001600160a01b0316816001600160a01b0316837f2f8788117e7eff1d82e926ec794901d17c78024a50270940304540a733656f0d60405160405180910390a45050565b600062000142836001600160a01b0384166200014f565b90505b92915050565b3390565b60006200015d83836200019e565b620001955750815460018181018455600084815260208082209093018490558454848252828601909352604090209190915562000145565b50600062000145565b60009081526001919091016020526040902054151590565b61230680620001c66000396000f3fe6080604052600436106101fd5760003560e01c806375b238fc1161010d578063acc3a939116100a0578063d547741f1161006f578063d547741f1461066e578063e6d3bc6e146106a7578063f17f3275146106d1578063fbfa77cf146106fb578063fc0c546a1461071057610204565b8063acc3a939146105ad578063b2d4d6a31461061a578063c7f0b4551461062f578063ca15c8731461064457610204565b806391d14854116100dc57806391d1485414610519578063a2095f2914610566578063a217fddf1461057b578063a694fc3a1461059057610204565b806375b238fc1461048c57806385fb34ce146104a157806386989038146104d45780639010d07c146104e957610204565b806343b0934a11610190578063567e98f91161015f578063567e98f9146103b05780635c826abb146103c5578063610b0663146103ef5780636830483514610422578063728cdbca1461043757610204565b806343b0934a1461032257806348cd4cb1146103535780634e71d92d14610368578063501afa751461037d57610204565b80632f2ff15d116101cc5780632f2ff15d1461028457806336568abe146102bf5780633aadeaf8146102f85780633ccfd60b1461030d57610204565b8063083c6323146102095780632002727514610230578063248a9ca3146102455780632bf829031461026f57610204565b3661020457005b600080fd5b34801561021557600080fd5b5061021e610725565b60408051918252519081900360200190f35b34801561023c57600080fd5b5061021e61072b565b34801561025157600080fd5b5061021e6004803603602081101561026857600080fd5b5035610731565b34801561027b57600080fd5b5061021e610746565b34801561029057600080fd5b506102bd600480360360408110156102a757600080fd5b50803590602001356001600160a01b0316610869565b005b3480156102cb57600080fd5b506102bd600480360360408110156102e257600080fd5b50803590602001356001600160a01b03166108d5565b34801561030457600080fd5b506102bd610936565b34801561031957600080fd5b506102bd610a40565b34801561032e57600080fd5b50610337610cb4565b604080516001600160a01b039092168252519081900360200190f35b34801561035f57600080fd5b5061021e610cc3565b34801561037457600080fd5b506102bd610cc9565b34801561038957600080fd5b5061021e600480360360208110156103a057600080fd5b50356001600160a01b031661103a565b3480156103bc57600080fd5b5061021e61115b565b3480156103d157600080fd5b506102bd600480360360208110156103e857600080fd5b5035611161565b3480156103fb57600080fd5b5061021e6004803603602081101561041257600080fd5b50356001600160a01b0316611269565b34801561042e57600080fd5b506103376115f5565b34801561044357600080fd5b506102bd600480360360c081101561045a57600080fd5b506001600160a01b03813581169160208101358216916040820135169060608101359060808101359060a00135611604565b34801561049857600080fd5b5061021e6116ff565b3480156104ad57600080fd5b506102bd600480360360208110156104c457600080fd5b50356001600160a01b0316611711565b3480156104e057600080fd5b5061021e611825565b3480156104f557600080fd5b506103376004803603604081101561050c57600080fd5b508035906020013561182b565b34801561052557600080fd5b506105526004803603604081101561053c57600080fd5b50803590602001356001600160a01b031661184a565b604080519115158252519081900360200190f35b34801561057257600080fd5b50610337611862565b34801561058757600080fd5b5061021e611871565b6102bd600480360360208110156105a657600080fd5b5035611876565b3480156105b957600080fd5b506105e0600480360360208110156105d057600080fd5b50356001600160a01b0316611a11565b604080519788526020880196909652868601949094526060860192909252608085015260a0840152151560c0830152519081900360e00190f35b34801561062657600080fd5b5061021e611a51565b34801561063b57600080fd5b5061021e611a57565b34801561065057600080fd5b5061021e6004803603602081101561066757600080fd5b5035611b48565b34801561067a57600080fd5b506102bd6004803603604081101561069157600080fd5b50803590602001356001600160a01b0316611b5f565b3480156106b357600080fd5b506102bd600480360360208110156106ca57600080fd5b5035611bb8565b3480156106dd57600080fd5b506102bd600480360360208110156106f457600080fd5b5035611ca4565b34801561070757600080fd5b50610337611d7d565b34801561071c57600080fd5b50610337611d8c565b60065481565b60045481565b6000908152600d602052604090206002015490565b600061076060008051602061218f8339815191523361184a565b61079b5760405162461bcd60e51b81526004018080602001828103825260258152602001806122586025913960400191505060405180910390fd5b600c546001600160a01b0316806107e7576040805162461bcd60e51b815260206004820152601b602482015260008051602061214d833981519152604482015290519081900360640190fd5b600c60009054906101000a90046001600160a01b03166001600160a01b0316633d8bb5176040518163ffffffff1660e01b8152600401602060405180830381600087803b15801561083757600080fd5b505af115801561084b573d6000803e3d6000fd5b505050506040513d602081101561086157600080fd5b505191505090565b6000828152600d602052604090206002015461088c90610887611db0565b61184a565b6108c75760405162461bcd60e51b815260040180806020018281038252602f81526020018061207a602f913960400191505060405180910390fd5b6108d18282611db4565b5050565b6108dd611db0565b6001600160a01b0316816001600160a01b03161461092c5760405162461bcd60e51b815260040180806020018281038252602f8152602001806122a2602f913960400191505060405180910390fd5b6108d18282611e1d565b61094e60008051602061218f8339815191523361184a565b6109895760405162461bcd60e51b81526004018080602001828103825260258152602001806122586025913960400191505060405180910390fd5b600c546001600160a01b0316806109d5576040805162461bcd60e51b815260206004820152601b602482015260008051602061214d833981519152604482015290519081900360640190fd5b600c60009054906101000a90046001600160a01b03166001600160a01b0316634e71d92d6040518163ffffffff1660e01b8152600401600060405180830381600087803b158015610a2557600080fd5b505af1158015610a39573d6000803e3d6000fd5b5050505050565b6000600654118015610a53575043600654105b610a8e5760405162461bcd60e51b815260040180806020018281038252602581526020018061227d6025913960400191505060405180910390fd5b33600090815260096020526040902080548015801590610ab357508154600483015411155b610aee5760405162461bcd60e51b81526004018080602001828103825260318152602001806121d16031913960400191505060405180910390fd5b8154600483015543600383015560068201805460ff191660011790556002546001600160a01b0316610bb757308031821115610b2957600080fd5b604051600090339084908381818185875af1925050503d8060008114610b6b576040519150601f19603f3d011682016040523d82523d6000602084013e610b70565b606091505b5050905080610bb05760405162461bcd60e51b815260040180806020018281038252602d815260200180612202602d913960400191505060405180910390fd5b5050610c72565b6002546040805163a9059cbb60e01b81523360048201526024810184905290516001600160a01b039092169163a9059cbb916044808201926020929091908290030181600087803b158015610c0b57600080fd5b505af1158015610c1f573d6000803e3d6000fd5b505050506040513d6020811015610c3557600080fd5b5051610c725760405162461bcd60e51b815260040180806020018281038252602a815260200180612123602a913960400191505060405180910390fd5b604080518281524360208201528151339230927fc2b4a290c20fb28939d29f102514fbffd2b73c059ffba8b78250c94161d5fcc6929081900390910190a35050565b6002546001600160a01b031681565b60055481565b600b5415610d1e576040805162461bcd60e51b815260206004820152601a60248201527f5374616b65466f72537461626c65436f696e3a204c4f434b4544000000000000604482015290519081900360640190fd5b6001600b5560035460408051631718ecd760e31b815290516001600160a01b039092169163b8c766b891600480820192602092909190829003018186803b158015610d6857600080fd5b505afa158015610d7c573d6000803e3d6000fd5b505050506040513d6020811015610d9257600080fd5b50511515600114610dd45760405162461bcd60e51b815260040180806020018281038252602281526020018061216d6022913960400191505060405180910390fd5b336000818152600960205260408120600654600182015443929111610e40576040805162461bcd60e51b815260206004820152601b60248201527f5374616b65466f72537461626c65436f696e3a20636c61696d65640000000000604482015290519081900360640190fd5b610e4984611269565b925060008311610e8a5760405162461bcd60e51b81526004018080602001828103825260228152602001806121af6022913960400191505060405180910390fd5b6003546040805163032f7adb60e61b815230600482015290516000926001600160a01b03169163cbdeb6c0916024808301926020929190829003018186803b158015610ed557600080fd5b505afa158015610ee9573d6000803e3d6000fd5b505050506040513d6020811015610eff57600080fd5b50516007549091508401811015610f475760405162461bcd60e51b81526004018080602001828103825260288152602001806120cb6028913960400191505060405180910390fd5b6001820183905560028201805485019055600780548501905560035460408051635569f64b60e11b81526001600160a01b038881166004830152602482018890529151919092169163aad3ec969160448083019260209291908290030181600087803b158015610fb657600080fd5b505af1158015610fca573d6000803e3d6000fd5b505050506040513d6020811015610fe057600080fd5b5051610feb57600080fd5b604080518581526020810185905281516001600160a01b038816927f987d620f307ff6b94d58743cb7a7509f24071586a77759b77c2d4e29f75a2f9a928290030190a250506000600b55505050565b600061105460008051602061218f8339815191523361184a565b61108f5760405162461bcd60e51b81526004018080602001828103825260258152602001806122586025913960400191505060405180910390fd5b600c546001600160a01b0316806110db576040805162461bcd60e51b815260206004820152601b602482015260008051602061214d833981519152604482015290519081900360640190fd5b600c54604080516301678afb60e31b81526001600160a01b03868116600483015291519190921691630b3c57d8916024808301926020929190829003018186803b15801561112857600080fd5b505afa15801561113c573d6000803e3d6000fd5b505050506040513d602081101561115257600080fd5b50519392505050565b60085481565b61117960008051602061218f8339815191523361184a565b6111b45760405162461bcd60e51b81526004018080602001828103825260258152602001806122586025913960400191505060405180910390fd5b600c546001600160a01b031680611200576040805162461bcd60e51b815260206004820152601b602482015260008051602061214d833981519152604482015290519081900360640190fd5b600c5460408051632e1a7d4d60e01b81526004810185905290516001600160a01b0390921691632e1a7d4d9160248082019260009290919082900301818387803b15801561124d57600080fd5b505af1158015611261573d6000803e3d6000fd5b505050505050565b600554600090819043108061129457506001600160a01b038316600090815260096020526040902054155b806112bb57506006546001600160a01b038416600090815260096020526040902060010154115b806112e057506001600160a01b03831660009081526009602052604090206001015443105b156112ed575060006115ef565b6005546006546001600160a01b038516600090815260096020526040902060010154821015611335576001600160a01b03851660009081526009602052604090206001015491505b804310156113405750435b6003546040805163c1b422fd60e01b815290516000926001600160a01b03169163c1b422fd9160048083019286929190829003018186803b15801561138457600080fd5b505afa158015611398573d6000803e3d6000fd5b505050506040513d6000823e601f3d908101601f1916820160405260208110156113c157600080fd5b81019080805160405193929190846401000000008211156113e157600080fd5b9083019060208201858111156113f657600080fd5b825186602082028301116401000000008211171561141357600080fd5b82525081516020918201928201910280838360005b83811015611440578181015183820152602001611428565b5050505090500160405250505090506000815111156115eb576000806000600360009054906101000a90046001600160a01b03166001600160a01b031663d105bf856040518163ffffffff1660e01b815260040160206040518083038186803b1580156114ac57600080fd5b505afa1580156114c0573d6000803e3d6000fd5b505050506040513d60208110156114d657600080fd5b5051905060005b84518110156115e6578481815181106114f257fe5b60209081029190910181015160035460408051632f8deb1560e11b81526004810184905290519297506001600160a01b0390911692635f1bd62a92602480840193829003018186803b15801561154757600080fd5b505afa15801561155b573d6000803e3d6000fd5b505050506040513d602081101561157157600080fd5b505192508386116115ae576001600160a01b038a166000908152600960205260409020548390888803840202816115a457fe5b04880197506115e6565b6001600160a01b038a166000908152600960205260409020548390888603840202816115d657fe5b04880197508396506001016114dd565b505050505b5050505b92915050565b6001546001600160a01b031681565b61161c60008051602061218f8339815191523361184a565b6116575760405162461bcd60e51b81526004018080602001828103825260258152602001806122586025913960400191505060405180910390fd5b6001600160a01b0386161580159061167757506001600160a01b03841615155b80156116835750818311155b61168c57600080fd5b600080546001600160a01b038089166001600160a01b031992831617909255600280548884169083161790556003805492871692909116919091179055826116d757436004556116dd565b60048390555b816116eb57436005556116f1565b60058290555b600554016006555050505050565b60008051602061218f83398151915281565b61172960008051602061218f8339815191523361184a565b6117645760405162461bcd60e51b81526004018080602001828103825260258152602001806122586025913960400191505060405180910390fd5b60045443106117ba576040805162461bcd60e51b815260206004820152601e60248201527f546f6b616d616b5374616b65723a20416c726561647920737461727465640000604482015290519081900360640190fd5b6001600160a01b038116611803576040805162461bcd60e51b815260206004820152601b602482015260008051602061214d833981519152604482015290519081900360640190fd5b600c80546001600160a01b0319166001600160a01b0392909216919091179055565b600a5481565b6000828152600d602052604081206118439083611e86565b9392505050565b6000828152600d602052604081206118439083611e92565b600c546001600160a01b031681565b600081565b6002546001600160a01b031615801561188f5750600034115b806118af57506002546001600160a01b0316158015906118af5750600081115b6118ea5760405162461bcd60e51b81526004018080602001828103825260228152602001806120a96022913960400191505060405180910390fd5b60045443101580156118ff5750600554600454105b61193a5760405162461bcd60e51b815260040180806020018281038252602981526020018061222f6029913960400191505060405180910390fd5b60025481906001600160a01b031661194f5750345b33600090815260096020526040902080548201815560088054830190556002546001600160a01b031615611a0c57600254604080516323b872dd60e01b81523360048201523060248201526044810185905290516001600160a01b03909216916323b872dd916064808201926020929091908290030181600087803b1580156119d757600080fd5b505af11580156119eb573d6000803e3d6000fd5b505050506040513d6020811015611a0157600080fd5b5051611a0c57600080fd5b505050565b6009602052600090815260409020805460018201546002830154600384015460048501546005860154600690960154949593949293919290919060ff1687565b60075481565b6000611a7160008051602061218f8339815191523361184a565b611aac5760405162461bcd60e51b81526004018080602001828103825260258152602001806122586025913960400191505060405180910390fd5b600c546001600160a01b031680611af8576040805162461bcd60e51b815260206004820152601b602482015260008051602061214d833981519152604482015290519081900360640190fd5b600c60009054906101000a90046001600160a01b03166001600160a01b031663a00251c66040518163ffffffff1660e01b8152600401602060405180830381600087803b15801561083757600080fd5b6000818152600d602052604081206115ef90611ea7565b6000828152600d6020526040902060020154611b7d90610887611db0565b61092c5760405162461bcd60e51b81526004018080602001828103825260308152602001806120f36030913960400191505060405180910390fd5b611bd060008051602061218f8339815191523361184a565b611c0b5760405162461bcd60e51b81526004018080602001828103825260258152602001806122586025913960400191505060405180910390fd5b600c546001600160a01b031680611c57576040805162461bcd60e51b815260206004820152601b602482015260008051602061214d833981519152604482015290519081900360640190fd5b600c546040805163b6b55f2560e01b81526004810185905290516001600160a01b039092169163b6b55f259160248082019260009290919082900301818387803b15801561124d57600080fd5b600254600c546040805163095ea7b360e01b81526001600160a01b039283166004820152602481018590529051919092169163095ea7b39160448083019260209291908290030181600087803b158015611cfd57600080fd5b505af1158015611d11573d6000803e3d6000fd5b505050506040513d6020811015611d2757600080fd5b5051611d7a576040805162461bcd60e51b815260206004820152601b60248201527f596561726e56325374616b65723a20617070726f7665206661696c0000000000604482015290519081900360640190fd5b50565b6003546001600160a01b031681565b6000546001600160a01b031681565b6000611843836001600160a01b038416611eb2565b3390565b6000828152600d60205260409020611dcc9082611d9b565b156108d157611dd9611db0565b6001600160a01b0316816001600160a01b0316837f2f8788117e7eff1d82e926ec794901d17c78024a50270940304540a733656f0d60405160405180910390a45050565b6000828152600d60205260409020611e359082611efc565b156108d157611e42611db0565b6001600160a01b0316816001600160a01b0316837ff6391f5c32d9c69d2a47ea670b442974b53935d1edc7fd64eb21e047a839171b60405160405180910390a45050565b60006118438383611f11565b6000611843836001600160a01b038416611f75565b60006115ef82611f8d565b6000611ebe8383611f75565b611ef4575081546001818101845560008481526020808220909301849055845484825282860190935260409020919091556115ef565b5060006115ef565b6000611843836001600160a01b038416611f91565b81546000908210611f535760405162461bcd60e51b81526004018080602001828103825260228152602001806120586022913960400191505060405180910390fd5b826000018281548110611f6257fe5b9060005260206000200154905092915050565b60009081526001919091016020526040902054151590565b5490565b6000818152600183016020526040812054801561204d5783546000198083019190810190600090879083908110611fc457fe5b9060005260206000200154905080876000018481548110611fe157fe5b60009182526020808320909101929092558281526001898101909252604090209084019055865487908061201157fe5b600190038181906000526020600020016000905590558660010160008781526020019081526020016000206000905560019450505050506115ef565b60009150506115ef56fe456e756d657261626c655365743a20696e646578206f7574206f6620626f756e6473416363657373436f6e74726f6c3a2073656e646572206d75737420626520616e2061646d696e20746f206772616e745374616b65466f72537461626c65436f696e3a20616d6f756e74206973207a65726f5374616b65466f72537461626c65436f696e3a20746f74616c207265776172642065786365656473416363657373436f6e74726f6c3a2073656e646572206d75737420626520616e2061646d696e20746f207265766f6b655374616b65466f72537461626c65436f696e3a207769746864726177207472616e73666572206661696c596561726e56325374616b65723a207a65726f206164647265737300000000005374616b65466f72537461626c65436f696e3a20646973636c6f73652073616c652edf8b4c520ffe197c5343c6f5aec59570151ef9a492f2c624fd45ddde6135ec425374616b65466f72537461626c65436f696e3a20726577617264206973207a65726f5374616b65466f72537461626c65436f696e3a2072656c6561736564416d6f756e74203e207374616b6564416d6f756e745374616b65466f72537461626c65436f696e3a207769746864726177206574682073656e64206661696c65642e5374616b65466f72537461626c65436f696e3a20706572696f6420697320756e617661696c61626c65596561726e56325374616b65723a2043616c6c6572206973206e6f7420616e2061646d696e5374616b65466f72537461626c65436f696e3a206f6e207374616b696e6720706572696f64416363657373436f6e74726f6c3a2063616e206f6e6c792072656e6f756e636520726f6c657320666f722073656c66a2646970667358221220703454568b03878ef48967af11f60aa15f813b23ccec6de27c5315324de168aa64736f6c63430007060033df8b4c520ffe197c5343c6f5aec59570151ef9a492f2c624fd45ddde6135ec425374616b65466f72537461626c65436f696e466163746f72793a206465706c6f7920696e6974206661696c5374616b65466f72537461626c65436f696e466163746f72793a207374617274206572726f72a2646970667358221220bbfbd3a6a77607245a5f39716b31455d9962788447b2fbd72f46f308d0396a7964736f6c63430007060033",
  "immutableReferences": {},
  "source": "// SPDX-License-Identifier: MIT\npragma solidity ^0.7.6;\n\nimport {IStake1Vault} from \"../interfaces/IStake1Vault.sol\";\nimport {IStakeForStableCoin} from \"../interfaces/IStakeForStableCoin.sol\";\n\nimport {StakeForStableCoin} from \"../stake/StakeForStableCoin.sol\";\nimport {StakeYearnProxy} from \"../stake/StakeYearnProxy.sol\";\n\ncontract StakeForStableCoinFactory {\n    bytes32 public constant ADMIN_ROLE = keccak256(\"ADMIN\");\n\n    function deploy(\n        uint256 _pahse,\n        address _vault,\n        address _token,\n        address _paytoken,\n        uint256 _period,\n        address owner\n    ) external returns (address) {\n        require(\n            _vault != address(0) && _pahse == 1,\n            \"StakeForStableCoinFactory: deploy init fail\"\n        );\n\n        IStake1Vault vault = IStake1Vault(_vault);\n        uint256 saleStart = vault.saleStartBlock();\n        uint256 stakeStart = vault.stakeStartBlock();\n        address defiAddr = vault.defiAddr();\n        uint256 period = _period;\n\n        require(\n            saleStart < stakeStart && stakeStart > 0,\n            \"StakeForStableCoinFactory: start error\"\n        );\n\n        // if paytoken is stable coin, stakeContract is YearnV2Staker\n        StakeYearnProxy proxy = new StakeYearnProxy();\n        StakeForStableCoin logic = new StakeForStableCoin();\n        proxy.upgradeTo(address(logic));\n\n        IStakeForStableCoin(address(proxy)).initialize(\n            _token,\n            _paytoken,\n            address(vault),\n            saleStart,\n            stakeStart,\n            period\n        );\n\n        IStakeForStableCoin(address(proxy)).setYearnV2(defiAddr);\n\n        // vault.addSubVaultOfStake(_name, address(proxy), period);\n        proxy.grantRole(ADMIN_ROLE, owner);\n        proxy.revokeRole(ADMIN_ROLE, address(this));\n        return address(proxy);\n    }\n}\n",
  "sourcePath": "/Users/zena/ico2.0/ico20-contracts/contracts/factory/StakeForStableCoinFactory.sol",
  "compiler": {
    "name": "solc",
    "version": "0.7.6+commit.7338295f.Emscripten.clang"
  },
  "schemaVersion": "3.3.4",
  "updatedAt": "2021-05-28T04:17:15.397Z",
  "devdoc": {
    "kind": "dev",
    "methods": {},
    "version": 1
  },
  "userdoc": {
    "kind": "user",
    "methods": {},
    "version": 1
  }
}