{
  "contractName": "StakeTONProxy",
  "abi": [
    {
      "inputs": [
        {
          "internalType": "address",
          "name": "_logic",
          "type": "address"
        }
      ],
      "stateMutability": "nonpayable",
      "type": "constructor"
    },
    {
      "anonymous": false,
      "inputs": [
        {
          "indexed": true,
          "internalType": "bytes32",
          "name": "role",
          "type": "bytes32"
        },
        {
          "indexed": true,
          "internalType": "bytes32",
          "name": "previousAdminRole",
          "type": "bytes32"
        },
        {
          "indexed": true,
          "internalType": "bytes32",
          "name": "newAdminRole",
          "type": "bytes32"
        }
      ],
      "name": "RoleAdminChanged",
      "type": "event"
    },
    {
      "anonymous": false,
      "inputs": [
        {
          "indexed": true,
          "internalType": "bytes32",
          "name": "role",
          "type": "bytes32"
        },
        {
          "indexed": true,
          "internalType": "address",
          "name": "account",
          "type": "address"
        },
        {
          "indexed": true,
          "internalType": "address",
          "name": "sender",
          "type": "address"
        }
      ],
      "name": "RoleGranted",
      "type": "event"
    },
    {
      "anonymous": false,
      "inputs": [
        {
          "indexed": true,
          "internalType": "bytes32",
          "name": "role",
          "type": "bytes32"
        },
        {
          "indexed": true,
          "internalType": "address",
          "name": "account",
          "type": "address"
        },
        {
          "indexed": true,
          "internalType": "address",
          "name": "sender",
          "type": "address"
        }
      ],
      "name": "RoleRevoked",
      "type": "event"
    },
    {
      "anonymous": false,
      "inputs": [
        {
          "indexed": true,
          "internalType": "address",
          "name": "to",
          "type": "address"
        },
        {
          "indexed": false,
          "internalType": "uint256",
          "name": "amount",
          "type": "uint256"
        }
      ],
      "name": "Staked",
      "type": "event"
    },
    {
      "anonymous": false,
      "inputs": [
        {
          "indexed": true,
          "internalType": "address",
          "name": "implementation",
          "type": "address"
        }
      ],
      "name": "Upgraded",
      "type": "event"
    },
    {
      "stateMutability": "payable",
      "type": "fallback"
    },
    {
      "inputs": [],
      "name": "ADMIN_ROLE",
      "outputs": [
        {
          "internalType": "bytes32",
          "name": "",
          "type": "bytes32"
        }
      ],
      "stateMutability": "view",
      "type": "function"
    },
    {
      "inputs": [],
      "name": "DEFAULT_ADMIN_ROLE",
      "outputs": [
        {
          "internalType": "bytes32",
          "name": "",
          "type": "bytes32"
        }
      ],
      "stateMutability": "view",
      "type": "function"
    },
    {
      "inputs": [],
      "name": "defiStatus",
      "outputs": [
        {
          "internalType": "uint256",
          "name": "",
          "type": "uint256"
        }
      ],
      "stateMutability": "view",
      "type": "function"
    },
    {
      "inputs": [],
      "name": "depositManager",
      "outputs": [
        {
          "internalType": "address",
          "name": "",
          "type": "address"
        }
      ],
      "stateMutability": "view",
      "type": "function"
    },
    {
      "inputs": [],
      "name": "endBlock",
      "outputs": [
        {
          "internalType": "uint256",
          "name": "",
          "type": "uint256"
        }
      ],
      "stateMutability": "view",
      "type": "function"
    },
    {
      "inputs": [],
      "name": "finalBalanceTON",
      "outputs": [
        {
          "internalType": "uint256",
          "name": "",
          "type": "uint256"
        }
      ],
      "stateMutability": "view",
      "type": "function"
    },
    {
      "inputs": [],
      "name": "finalBalanceWTON",
      "outputs": [
        {
          "internalType": "uint256",
          "name": "",
          "type": "uint256"
        }
      ],
      "stateMutability": "view",
      "type": "function"
    },
    {
      "inputs": [],
      "name": "fromTokamak",
      "outputs": [
        {
          "internalType": "uint256",
          "name": "",
          "type": "uint256"
        }
      ],
      "stateMutability": "view",
      "type": "function"
    },
    {
      "inputs": [
        {
          "internalType": "bytes32",
          "name": "role",
          "type": "bytes32"
        }
      ],
      "name": "getRoleAdmin",
      "outputs": [
        {
          "internalType": "bytes32",
          "name": "",
          "type": "bytes32"
        }
      ],
      "stateMutability": "view",
      "type": "function"
    },
    {
      "inputs": [
        {
          "internalType": "bytes32",
          "name": "role",
          "type": "bytes32"
        },
        {
          "internalType": "uint256",
          "name": "index",
          "type": "uint256"
        }
      ],
      "name": "getRoleMember",
      "outputs": [
        {
          "internalType": "address",
          "name": "",
          "type": "address"
        }
      ],
      "stateMutability": "view",
      "type": "function"
    },
    {
      "inputs": [
        {
          "internalType": "bytes32",
          "name": "role",
          "type": "bytes32"
        }
      ],
      "name": "getRoleMemberCount",
      "outputs": [
        {
          "internalType": "uint256",
          "name": "",
          "type": "uint256"
        }
      ],
      "stateMutability": "view",
      "type": "function"
    },
    {
      "inputs": [
        {
          "internalType": "address",
          "name": "user",
          "type": "address"
        }
      ],
      "name": "getUserStaked",
      "outputs": [
        {
          "internalType": "uint256",
          "name": "amount",
          "type": "uint256"
        },
        {
          "internalType": "uint256",
          "name": "claimedBlock",
          "type": "uint256"
        },
        {
          "internalType": "uint256",
          "name": "claimedAmount",
          "type": "uint256"
        },
        {
          "internalType": "uint256",
          "name": "releasedBlock",
          "type": "uint256"
        },
        {
          "internalType": "uint256",
          "name": "releasedAmount",
          "type": "uint256"
        },
        {
          "internalType": "uint256",
          "name": "releasedTOSAmount",
          "type": "uint256"
        },
        {
          "internalType": "bool",
          "name": "released",
          "type": "bool"
        }
      ],
      "stateMutability": "view",
      "type": "function"
    },
    {
      "inputs": [
        {
          "internalType": "bytes32",
          "name": "role",
          "type": "bytes32"
        },
        {
          "internalType": "address",
          "name": "account",
          "type": "address"
        }
      ],
      "name": "grantRole",
      "outputs": [],
      "stateMutability": "nonpayable",
      "type": "function"
    },
    {
      "inputs": [
        {
          "internalType": "bytes32",
          "name": "role",
          "type": "bytes32"
        },
        {
          "internalType": "address",
          "name": "account",
          "type": "address"
        }
      ],
      "name": "hasRole",
      "outputs": [
        {
          "internalType": "bool",
          "name": "",
          "type": "bool"
        }
      ],
      "stateMutability": "view",
      "type": "function"
    },
    {
      "inputs": [],
      "name": "infos",
      "outputs": [
        {
          "internalType": "address",
          "name": "",
          "type": "address"
        },
        {
          "internalType": "address",
          "name": "",
          "type": "address"
        },
        {
          "internalType": "uint256[3]",
          "name": "",
          "type": "uint256[3]"
        },
        {
          "internalType": "uint256",
          "name": "",
          "type": "uint256"
        },
        {
          "internalType": "uint256",
          "name": "",
          "type": "uint256"
        },
        {
          "internalType": "uint256",
          "name": "",
          "type": "uint256"
        }
      ],
      "stateMutability": "view",
      "type": "function"
    },
    {
      "inputs": [],
      "name": "pauseProxy",
      "outputs": [
        {
          "internalType": "bool",
          "name": "",
          "type": "bool"
        }
      ],
      "stateMutability": "view",
      "type": "function"
    },
    {
      "inputs": [],
      "name": "paytoken",
      "outputs": [
        {
          "internalType": "address",
          "name": "",
          "type": "address"
        }
      ],
      "stateMutability": "view",
      "type": "function"
    },
    {
      "inputs": [
        {
          "internalType": "bytes32",
          "name": "role",
          "type": "bytes32"
        },
        {
          "internalType": "address",
          "name": "account",
          "type": "address"
        }
      ],
      "name": "renounceRole",
      "outputs": [],
      "stateMutability": "nonpayable",
      "type": "function"
    },
    {
      "inputs": [],
      "name": "requestNum",
      "outputs": [
        {
          "internalType": "uint256",
          "name": "",
          "type": "uint256"
        }
      ],
      "stateMutability": "view",
      "type": "function"
    },
    {
      "inputs": [
        {
          "internalType": "bytes32",
          "name": "role",
          "type": "bytes32"
        },
        {
          "internalType": "address",
          "name": "account",
          "type": "address"
        }
      ],
      "name": "revokeRole",
      "outputs": [],
      "stateMutability": "nonpayable",
      "type": "function"
    },
    {
      "inputs": [],
      "name": "rewardClaimedTotal",
      "outputs": [
        {
          "internalType": "uint256",
          "name": "",
          "type": "uint256"
        }
      ],
      "stateMutability": "view",
      "type": "function"
    },
    {
      "inputs": [],
      "name": "saleStartBlock",
      "outputs": [
        {
          "internalType": "uint256",
          "name": "",
          "type": "uint256"
        }
      ],
      "stateMutability": "view",
      "type": "function"
    },
    {
      "inputs": [],
      "name": "seigManager",
      "outputs": [
        {
          "internalType": "address",
          "name": "",
          "type": "address"
        }
      ],
      "stateMutability": "view",
      "type": "function"
    },
    {
      "inputs": [],
      "name": "stakeRegistry",
      "outputs": [
        {
          "internalType": "address",
          "name": "",
          "type": "address"
        }
      ],
      "stateMutability": "view",
      "type": "function"
    },
    {
      "inputs": [],
      "name": "startBlock",
      "outputs": [
        {
          "internalType": "uint256",
          "name": "",
          "type": "uint256"
        }
      ],
      "stateMutability": "view",
      "type": "function"
    },
    {
      "inputs": [
        {
          "internalType": "bytes4",
          "name": "interfaceId",
          "type": "bytes4"
        }
      ],
      "name": "supportsInterface",
      "outputs": [
        {
          "internalType": "bool",
          "name": "",
          "type": "bool"
        }
      ],
      "stateMutability": "view",
      "type": "function"
    },
    {
      "inputs": [],
      "name": "swapProxy",
      "outputs": [
        {
          "internalType": "address",
          "name": "",
          "type": "address"
        }
      ],
      "stateMutability": "view",
      "type": "function"
    },
    {
      "inputs": [],
      "name": "swappedAmountTOS",
      "outputs": [
        {
          "internalType": "uint256",
          "name": "",
          "type": "uint256"
        }
      ],
      "stateMutability": "view",
      "type": "function"
    },
    {
      "inputs": [],
      "name": "toTokamak",
      "outputs": [
        {
          "internalType": "uint256",
          "name": "",
          "type": "uint256"
        }
      ],
      "stateMutability": "view",
      "type": "function"
    },
    {
      "inputs": [],
      "name": "toUniswapWTON",
      "outputs": [
        {
          "internalType": "uint256",
          "name": "",
          "type": "uint256"
        }
      ],
      "stateMutability": "view",
      "type": "function"
    },
    {
      "inputs": [],
      "name": "tokamakLayer2",
      "outputs": [
        {
          "internalType": "address",
          "name": "",
          "type": "address"
        }
      ],
      "stateMutability": "view",
      "type": "function"
    },
    {
      "inputs": [],
      "name": "token",
      "outputs": [
        {
          "internalType": "address",
          "name": "",
          "type": "address"
        }
      ],
      "stateMutability": "view",
      "type": "function"
    },
    {
      "inputs": [],
      "name": "ton",
      "outputs": [
        {
          "internalType": "address",
          "name": "",
          "type": "address"
        }
      ],
      "stateMutability": "view",
      "type": "function"
    },
    {
      "inputs": [],
      "name": "totalStakedAmount",
      "outputs": [
        {
          "internalType": "uint256",
          "name": "",
          "type": "uint256"
        }
      ],
      "stateMutability": "view",
      "type": "function"
    },
    {
      "inputs": [],
      "name": "totalStakers",
      "outputs": [
        {
          "internalType": "uint256",
          "name": "",
          "type": "uint256"
        }
      ],
      "stateMutability": "view",
      "type": "function"
    },
    {
      "inputs": [
        {
          "internalType": "address",
          "name": "",
          "type": "address"
        }
      ],
      "name": "userStaked",
      "outputs": [
        {
          "internalType": "uint256",
          "name": "amount",
          "type": "uint256"
        },
        {
          "internalType": "uint256",
          "name": "claimedBlock",
          "type": "uint256"
        },
        {
          "internalType": "uint256",
          "name": "claimedAmount",
          "type": "uint256"
        },
        {
          "internalType": "uint256",
          "name": "releasedBlock",
          "type": "uint256"
        },
        {
          "internalType": "uint256",
          "name": "releasedAmount",
          "type": "uint256"
        },
        {
          "internalType": "uint256",
          "name": "releasedTOSAmount",
          "type": "uint256"
        },
        {
          "internalType": "bool",
          "name": "released",
          "type": "bool"
        }
      ],
      "stateMutability": "view",
      "type": "function"
    },
    {
      "inputs": [],
      "name": "vault",
      "outputs": [
        {
          "internalType": "address",
          "name": "",
          "type": "address"
        }
      ],
      "stateMutability": "view",
      "type": "function"
    },
    {
      "inputs": [],
      "name": "withdrawFlag",
      "outputs": [
        {
          "internalType": "bool",
          "name": "",
          "type": "bool"
        }
      ],
      "stateMutability": "view",
      "type": "function"
    },
    {
      "inputs": [],
      "name": "wton",
      "outputs": [
        {
          "internalType": "address",
          "name": "",
          "type": "address"
        }
      ],
      "stateMutability": "view",
      "type": "function"
    },
    {
      "stateMutability": "payable",
      "type": "receive"
    },
    {
      "inputs": [
        {
          "internalType": "address",
          "name": "newOwner",
          "type": "address"
        }
      ],
      "name": "transferOwnership",
      "outputs": [],
      "stateMutability": "nonpayable",
      "type": "function"
    },
    {
      "inputs": [
        {
          "internalType": "bool",
          "name": "_pause",
          "type": "bool"
        }
      ],
      "name": "setProxyPause",
      "outputs": [],
      "stateMutability": "nonpayable",
      "type": "function"
    },
    {
      "inputs": [
        {
          "internalType": "address",
          "name": "impl",
          "type": "address"
        }
      ],
      "name": "upgradeTo",
      "outputs": [],
      "stateMutability": "nonpayable",
      "type": "function"
    },
    {
      "inputs": [],
      "name": "implementation",
      "outputs": [
        {
          "internalType": "address",
          "name": "",
          "type": "address"
        }
      ],
      "stateMutability": "view",
      "type": "function"
    },
    {
      "inputs": [
        {
          "internalType": "address",
          "name": "owner",
          "type": "address"
        },
        {
          "internalType": "address",
          "name": "spender",
          "type": "address"
        },
        {
          "internalType": "uint256",
          "name": "tonAmount",
          "type": "uint256"
        },
        {
          "internalType": "bytes",
          "name": "data",
          "type": "bytes"
        }
      ],
      "name": "onApprove",
      "outputs": [
        {
          "internalType": "bool",
          "name": "",
          "type": "bool"
        }
      ],
      "stateMutability": "nonpayable",
      "type": "function"
    },
    {
      "inputs": [
        {
          "internalType": "address",
          "name": "from",
          "type": "address"
        },
        {
          "internalType": "address",
          "name": "_owner",
          "type": "address"
        },
        {
          "internalType": "address",
          "name": "_spender",
          "type": "address"
        },
        {
          "internalType": "uint256",
          "name": "_amount",
          "type": "uint256"
        }
      ],
      "name": "stakeOnApprove",
      "outputs": [
        {
          "internalType": "bool",
          "name": "",
          "type": "bool"
        }
      ],
      "stateMutability": "nonpayable",
      "type": "function"
    },
    {
      "inputs": [
        {
          "internalType": "address[4]",
          "name": "_addr",
          "type": "address[4]"
        },
        {
          "internalType": "address",
          "name": "_registry",
          "type": "address"
        },
        {
          "internalType": "uint256[3]",
          "name": "_intdata",
          "type": "uint256[3]"
        }
      ],
      "name": "setInit",
      "outputs": [],
      "stateMutability": "nonpayable",
      "type": "function"
    }
  ],
  "bytecode": "0x60806040523480156200001157600080fd5b506040516200209a3803806200209a8339810160408190526200003491620002bc565b620000466301ffc9a760e01b620000cf565b62000058632139e50b60e11b620000cf565b620000736000805160206200207a8339815191528062000154565b6200008e6000805160206200207a83398151915233620001a6565b620000a96000805160206200207a83398151915230620001a6565b601d80546001600160a01b0319166001600160a01b0392909216919091179055620002ec565b6001600160e01b031980821614156200012f576040805162461bcd60e51b815260206004820152601c60248201527f4552433136353a20696e76616c696420696e7465726661636520696400000000604482015290519081900360640190fd5b6001600160e01b0319166000908152601c60205260409020805460ff19166001179055565b6000828152601b6020526040808220600201549051839285917fbd79b86ffe0ab8e8776151514217cd7cacd52c909f66475c3af44e129f0b00ff9190a46000918252601b602052604090912060020155565b620001b28282620001b6565b5050565b6000828152601b60209081526040909120620001dd918390620011c962000231821b17901c565b15620001b257620001ed62000251565b6001600160a01b0316816001600160a01b0316837f2f8788117e7eff1d82e926ec794901d17c78024a50270940304540a733656f0d60405160405180910390a45050565b600062000248836001600160a01b03841662000255565b90505b92915050565b3390565b6000620002638383620002a4565b6200029b575081546001818101845560008481526020808220909301849055845484825282860190935260409020919091556200024b565b5060006200024b565b60009081526001919091016020526040902054151590565b600060208284031215620002ce578081fd5b81516001600160a01b0381168114620002e5578182fd5b9392505050565b611d7e80620002fc6000396000f3fe6080604052600436106102815760003560e01c806375b238fc1161014f578063ca15c873116100c1578063e6a7bc871161007a578063e6a7bc87146106cf578063e7bf950c146106e4578063f2fde38b14610704578063fbfa77cf14610724578063fc0c546a14610739578063fd7fa4601461074e57610290565b8063ca15c87314610630578063cc48b94714610650578063d547741f14610665578063dac3fc3f14610685578063e09974b9146106a5578063e58e2747146106ba57610290565b806391d148541161011357806391d148541461057757806392ea3b4c146105975780639a88be2f146105ac578063a217fddf146105d3578063acc3a939146105e8578063b2d4d6a31461061b57610290565b806375b238fc146104f85780637cb00d251461050d578063869890381461052d5780638d62d949146105425780639010d07c1461055757610290565b80634273ca16116101f357806368304835116101ac578063683048351461047a5780636c7ac9d81461048f5780636e7cf534146104a45780636ec4be90146104b95780636fb7f558146104ce57806372285326146104e357610290565b80634273ca16146103e457806343b0934a1461040457806348cd4cb114610426578063567e98f91461043b5780635c60da1b1461045057806363a8fd891461046557610290565b80630ea3d9c9116102455780630ea3d9c91461033a578063200272751461034f578063248a9ca3146103645780632f2ff15d1461038457806336568abe146103a45780633659cfe6146103c457610290565b806301ffc9a71461029857806305871b78146102ce578063083c6323146102f05780630ac8e0f3146103055780630bfb38411461031a57610290565b366102905761028e610763565b005b61028e610763565b3480156102a457600080fd5b506102b86102b3366004611809565b6107da565b6040516102c591906118e6565b60405180910390f35b3480156102da57600080fd5b506102e36107fd565b6040516102c591906118f1565b3480156102fc57600080fd5b506102e3610803565b34801561031157600080fd5b506102e3610809565b34801561032657600080fd5b506102b86103353660046115d6565b61080f565b34801561034657600080fd5b506102e3610b08565b34801561035b57600080fd5b506102e3610b0e565b34801561037057600080fd5b506102e361037f3660046117a1565b610b14565b34801561039057600080fd5b5061028e61039f3660046117b9565b610b29565b3480156103b057600080fd5b5061028e6103bf3660046117b9565b610b90565b3480156103d057600080fd5b5061028e6103df36600461158f565b610bf1565b3480156103f057600080fd5b506102b86103ff366004611626565b610cc3565b34801561041057600080fd5b50610419610d48565b6040516102c59190611849565b34801561043257600080fd5b506102e3610d57565b34801561044757600080fd5b506102e3610d5d565b34801561045c57600080fd5b50610419610d63565b34801561047157600080fd5b506102b8610d72565b34801561048657600080fd5b50610419610d82565b34801561049b57600080fd5b50610419610d91565b3480156104b057600080fd5b506102b8610da0565b3480156104c557600080fd5b50610419610da9565b3480156104da57600080fd5b50610419610db8565b3480156104ef57600080fd5b506102e3610dc7565b34801561050457600080fd5b506102e3610dcd565b34801561051957600080fd5b5061028e610528366004611769565b610ddf565b34801561053957600080fd5b506102e3610e31565b34801561054e57600080fd5b50610419610e37565b34801561056357600080fd5b506104196105723660046117e8565b610e46565b34801561058357600080fd5b506102b86105923660046117b9565b610e67565b3480156105a357600080fd5b50610419610e7f565b3480156105b857600080fd5b506105c1610e8e565b6040516102c59695949392919061185d565b3480156105df57600080fd5b506102e3610ee4565b3480156105f457600080fd5b5061060861060336600461158f565b610ee9565b6040516102c59796959493929190611c23565b34801561062757600080fd5b506102e3610f29565b34801561063c57600080fd5b506102e361064b3660046117a1565b610f2f565b34801561065c57600080fd5b50610419610f46565b34801561067157600080fd5b5061028e6106803660046117b9565b610f55565b34801561069157600080fd5b506106086106a036600461158f565b610fae565b3480156106b157600080fd5b506102e3610ff7565b3480156106c657600080fd5b506102e3610ffd565b3480156106db57600080fd5b506102e3611003565b3480156106f057600080fd5b5061028e6106ff3660046116c0565b611009565b34801561071057600080fd5b5061028e61071f36600461158f565b611115565b34801561073057600080fd5b506104196111a5565b34801561074557600080fd5b506104196111b4565b34801561075a57600080fd5b506102e36111c3565b600061076d610d63565b90506001600160a01b038116158015906107915750601d54600160a01b900460ff16155b6107b65760405162461bcd60e51b81526004016107ad90611bd6565b60405180910390fd5b3660008037600080366000845af43d6000803e8080156107d5573d6000f35b3d6000fd5b6001600160e01b031981166000908152601c602052604090205460ff165b919050565b60145481565b60065481565b60135481565b6002546000906001600160a01b03868116911614801561082f5750600082115b801561084357506001600160a01b03831630145b61085f5760405162461bcd60e51b81526004016107ad90611b8f565b6004544310158015610872575060055443105b61088e5760405162461bcd60e51b81526004016107ad906118fa565b600360009054906101000a90046001600160a01b03166001600160a01b031663b8c766b86040518163ffffffff1660e01b815260040160206040518083038186803b1580156108dc57600080fd5b505afa1580156108f0573d6000803e3d6000fd5b505050506040513d601f19601f820116820180604052508101906109149190611785565b156109315760405162461bcd60e51b81526004016107ad90611b2d565b6002546040516370a0823160e01b815283916001600160a01b0316906370a0823190610961908890600401611849565b60206040518083038186803b15801561097957600080fd5b505afa15801561098d573d6000803e3d6000fd5b505050506040513d601f19601f820116820180604052508101906109b19190611831565b10156109cf5760405162461bcd60e51b81526004016107ad90611afa565b6001600160a01b038416600090815260096020526040902080546109ff57600a546109fb9060016111de565b600a555b8054610a0b90846111de565b8155600854610a1a90846111de565b6008556040516323b872dd60e01b81526001600160a01b038716906323b872dd90610a4d908890889088906004016118c2565b602060405180830381600087803b158015610a6757600080fd5b505af1158015610a7b573d6000803e3d6000fd5b505050506040513d601f19601f82011682018060405250810190610a9f9190611785565b610abb5760405162461bcd60e51b81526004016107ad9061193b565b846001600160a01b03167f9e71bc8eea02a63969f509818f2dafb9254532904319f9dbda79b67bd34a5f3d84604051610af491906118f1565b60405180910390a250600195945050505050565b60155481565b60045481565b6000908152601b602052604090206002015490565b6000828152601b6020526040902060020154610b4790610592611238565b610b825760405162461bcd60e51b815260040180806020018281038252602f815260200180611c9b602f913960400191505060405180910390fd5b610b8c828261123c565b5050565b610b98611238565b6001600160a01b0316816001600160a01b031614610be75760405162461bcd60e51b815260040180806020018281038252602f815260200180611d1a602f913960400191505060405180910390fd5b610b8c82826112a5565b610c09600080516020611cfa83398151915233610e67565b610c255760405162461bcd60e51b81526004016107ad906119a9565b6001600160a01b038116610c4b5760405162461bcd60e51b81526004016107ad90611a2a565b601d546001600160a01b0382811691161415610c795760405162461bcd60e51b81526004016107ad90611a61565b601d80546001600160a01b0319166001600160a01b0383169081179091556040517fbc7cd75a20ee27fd9adebab32041f755214dbc6bffa90cc0225b39da2e5c2d3b90600090a250565b6000806000610cd2858561130e565b915091508086148015610cf65750816001600160a01b0316876001600160a01b0316145b610d125760405162461bcd60e51b81526004016107ad906119e0565b610d1e3389848461080f565b610d3a5760405162461bcd60e51b81526004016107ad90611ab6565b506001979650505050505050565b6002546001600160a01b031681565b60055481565b60085481565b601d546001600160a01b031690565b601d54600160a01b900460ff1681565b6001546001600160a01b031681565b600f546001600160a01b031681565b601a5460ff1681565b6010546001600160a01b031681565b600e546001600160a01b031681565b60185481565b600080516020611cfa83398151915281565b610df7600080516020611cfa83398151915233610e67565b610e135760405162461bcd60e51b81526004016107ad906119a9565b601d8054911515600160a01b0260ff60a01b19909216919091179055565b600a5481565b600d546001600160a01b031681565b6000828152601b60205260408120610e5e9083611328565b90505b92915050565b6000828152601b60205260408120610e5e9083611334565b6011546001600160a01b031681565b600080610e996114f9565b5050600254600354604080516060810182526004548152600554602082015260065491810191909152600754600854600a546001600160a01b03958616979590941695509193909290565b600081565b6009602052600090815260409020805460018201546002830154600384015460048501546005860154600690960154949593949293919290919060ff1687565b60075481565b6000818152601b60205260408120610e6190611349565b600c546001600160a01b031681565b6000828152601b6020526040902060020154610f7390610592611238565b610be75760405162461bcd60e51b8152600401808060200182810382526030815260200180611cca6030913960400191505060405180910390fd5b6001600160a01b03166000908152600960205260409020805460018201546002830154600384015460048501546005860154600690960154949693959294919390929160ff1690565b60195481565b60165481565b60175481565b611021600080516020611cfa83398151915233610e67565b61103d5760405162461bcd60e51b81526004016107ad906119a9565b6001600160a01b03821615801590611061575060408301516001600160a01b031615155b8015611071575060208101518151105b61108d5760405162461bcd60e51b81526004016107ad90611972565b8251600080546001600160a01b03199081166001600160a01b03938416179091556020808601516002805484169185169190911790556040808701516003805485169186169190911790556001805484169487169490941790935560118054909216909155825160045582015160058190559082015161110d91906111de565b600655505050565b61112d600080516020611cfa83398151915233610e67565b6111495760405162461bcd60e51b81526004016107ad906119a9565b336001600160a01b03821614156111725760405162461bcd60e51b81526004016107ad90611b5d565b61118a600080516020611cfa83398151915282610b29565b6111a2600080516020611cfa83398151915233610f55565b50565b6003546001600160a01b031681565b6000546001600160a01b031681565b60125481565b6000610e5e836001600160a01b038416611354565b600082820183811015610e5e576040805162461bcd60e51b815260206004820152601b60248201527f536166654d6174683a206164646974696f6e206f766572666c6f770000000000604482015290519081900360640190fd5b3390565b6000828152601b6020526040902061125490826111c9565b15610b8c57611261611238565b6001600160a01b0316816001600160a01b0316837f2f8788117e7eff1d82e926ec794901d17c78024a50270940304540a733656f0d60405160405180910390a45050565b6000828152601b602052604090206112bd908261139e565b15610b8c576112ca611238565b6001600160a01b0316816001600160a01b0316837ff6391f5c32d9c69d2a47ea670b442974b53935d1edc7fd64eb21e047a839171b60405160405180910390a45050565b60008061131d838501856115ab565b909590945092505050565b6000610e5e83836113b3565b6000610e5e836001600160a01b038416611417565b6000610e618261142f565b60006113608383611417565b61139657508154600181810184556000848152602080822090930184905584548482528286019093526040902091909155610e61565b506000610e61565b6000610e5e836001600160a01b038416611433565b815460009082106113f55760405162461bcd60e51b8152600401808060200182810382526022815260200180611c796022913960400191505060405180910390fd5b82600001828154811061140457fe5b9060005260206000200154905092915050565b60009081526001919091016020526040902054151590565b5490565b600081815260018301602052604081205480156114ef578354600019808301919081019060009087908390811061146657fe5b906000526020600020015490508087600001848154811061148357fe5b6000918252602080832090910192909255828152600189810190925260409020908401905586548790806114b357fe5b60019003818190600052602060002001600090559055866001016000878152602001908152602001600020600090556001945050505050610e61565b6000915050610e61565b60405180606001604052806003906020820280368337509192915050565b80356107f881611c55565b600082601f830112611532578081fd5b6040516060810181811067ffffffffffffffff8211171561154f57fe5b604052808360608101861015611563578384fd5b835b6003811015611584578135835260209283019290910190600101611565565b509195945050505050565b6000602082840312156115a0578081fd5b8135610e5e81611c55565b600080604083850312156115bd578081fd5b82356115c881611c55565b946020939093013593505050565b600080600080608085870312156115eb578182fd5b84356115f681611c55565b9350602085013561160681611c55565b9250604085013561161681611c55565b9396929550929360600135925050565b60008060008060006080868803121561163d578081fd5b853561164881611c55565b9450602086013561165881611c55565b935060408601359250606086013567ffffffffffffffff8082111561167b578283fd5b818801915088601f83011261168e578283fd5b81358181111561169c578384fd5b8960208285010111156116ad578384fd5b9699959850939650602001949392505050565b600080600061010084860312156116d5578283fd5b84601f8501126116e3578283fd5b6040516080810181811067ffffffffffffffff8211171561170057fe5b60405280856080810188811115611715578687fd5b865b600481101561174057823561172b81611c55565b84526020938401939290920191600101611717565b5083965061174d81611517565b9550505050506117608560a08601611522565b90509250925092565b60006020828403121561177a578081fd5b8135610e5e81611c6a565b600060208284031215611796578081fd5b8151610e5e81611c6a565b6000602082840312156117b2578081fd5b5035919050565b600080604083850312156117cb578182fd5b8235915060208301356117dd81611c55565b809150509250929050565b600080604083850312156117fa578182fd5b50508035926020909101359150565b60006020828403121561181a578081fd5b81356001600160e01b031981168114610e5e578182fd5b600060208284031215611842578081fd5b5051919050565b6001600160a01b0391909116815260200190565b6001600160a01b038781168252861660208083019190915261010082019060408301908760005b60038110156118a157815184529282019290820190600101611884565b505050508460a08301528360c08301528260e0830152979650505050505050565b6001600160a01b039384168152919092166020820152604081019190915260600190565b901515815260200190565b90815260200190565b60208082526021908201527f5374616b65544f4e50726f78793a20706572696f64206e6f7420616c6c6f77656040820152601960fa1b606082015260800190565b6020808252601c908201527f5374616b65544f4e50726f78793a207472616e73666572206661696c00000000604082015260600190565b6020808252601b908201527f5374616b65544f4e50726f78793a20736574496e6974206661696c0000000000604082015260600190565b6020808252601b908201527f5374616b65544f4e50726f78793a206e6f7420616e2061646d696e0000000000604082015260600190565b6020808252602a908201527f5374616b65544f4e50726f78793a20746f6e416d6f756e7420213d207374616b604082015269034b733a0b6b7bab73a160b51b606082015260800190565b6020808252601c908201527f5374616b65544f4e50726f78793a20696e707574206973207a65726f00000000604082015260600190565b60208082526035908201527f5374616b65544f4e50726f78793a2054686520696e70757420616464726573736040820152742069732073616d652061732074686520737461746560581b606082015260800190565b60208082526024908201527f5374616b65544f4e50726f78793a207374616b654f6e417070726f7665206661604082015263034b639960e51b606082015260800190565b60208082526019908201527814dd185ad95513d3941c9bde1e4e881a5b9cdd59999a595b9d603a1b604082015260600190565b60208082526016908201527514dd185ad95513d3941c9bde1e4e881b9bdd08195b9960521b604082015260600190565b60208082526018908201527729ba30b5b2aa27a7283937bc3c9d39b0b6b29037bbb732b960411b604082015260600190565b60208082526027908201527f5374616b65544f4e50726f78793a207374616b654f6e417070726f766520696e6040820152661a5d0819985a5b60ca1b606082015260800190565b6020808252602d908201527f5374616b65544f4e50726f78793a20696d706c206973207a65726f204f52207060408201526c726f78792069732066616c736560981b606082015260800190565b968752602087019590955260408601939093526060850191909152608084015260a0830152151560c082015260e00190565b6001600160a01b03811681146111a257600080fd5b80151581146111a257600080fdfe456e756d657261626c655365743a20696e646578206f7574206f6620626f756e6473416363657373436f6e74726f6c3a2073656e646572206d75737420626520616e2061646d696e20746f206772616e74416363657373436f6e74726f6c3a2073656e646572206d75737420626520616e2061646d696e20746f207265766f6b65df8b4c520ffe197c5343c6f5aec59570151ef9a492f2c624fd45ddde6135ec42416363657373436f6e74726f6c3a2063616e206f6e6c792072656e6f756e636520726f6c657320666f722073656c66a2646970667358221220338356ba8010a02559ded5ec844d9ca39edbe187c5c86a8fe8e7cf8f99d8e40b64736f6c63430007060033df8b4c520ffe197c5343c6f5aec59570151ef9a492f2c624fd45ddde6135ec42",
  "immutableReferences": {},
  "source": "// SPDX-License-Identifier: MIT\npragma solidity ^0.7.6;\npragma abicoder v2;\n\nimport {IStakeVaultStorage} from \"../interfaces/IStakeVaultStorage.sol\";\nimport {IIERC20} from \"../interfaces/IIERC20.sol\";\nimport {SafeMath} from \"../utils/math/SafeMath.sol\";\nimport \"./StakeTONStorage.sol\";\nimport \"@openzeppelin/contracts/access/AccessControl.sol\";\nimport {OnApprove} from \"../tokens/OnApprove.sol\";\n\n/// @title Proxy for Stake contracts in Phase 1\n/// @notice\ncontract StakeTONProxy is StakeTONStorage, AccessControl, OnApprove {\n    using SafeMath for uint256;\n    bytes32 public constant ADMIN_ROLE = keccak256(\"ADMIN\");\n    address internal _implementation;\n    bool public pauseProxy;\n\n    event Upgraded(address indexed implementation);\n\n    /// @dev event on staking TON\n    /// @param to the sender\n    /// @param amount the amount of staking\n    event Staked(address indexed to, uint256 amount);\n\n    modifier onlyOwner() {\n        require(hasRole(ADMIN_ROLE, msg.sender), \"StakeTONProxy: not an admin\");\n        _;\n    }\n\n    /// @dev the constructor of StakeTONProxy\n    /// @param _logic the logic address of StakeTONProxy\n    constructor(address _logic) {\n        _setRoleAdmin(ADMIN_ROLE, ADMIN_ROLE);\n        _setupRole(ADMIN_ROLE, msg.sender);\n        _setupRole(ADMIN_ROLE, address(this));\n        _implementation = _logic;\n    }\n\n    /// @dev transfer Ownership\n    /// @param newOwner new owner address\n    function transferOwnership(address newOwner) external onlyOwner {\n        require(msg.sender != newOwner, \"StakeTONProxy:same owner\");\n        grantRole(ADMIN_ROLE, newOwner);\n        revokeRole(ADMIN_ROLE, msg.sender);\n    }\n\n    /// @notice Set pause state\n    /// @param _pause true:pause or false:resume\n    function setProxyPause(bool _pause) external onlyOwner {\n        pauseProxy = _pause;\n    }\n\n    /// @notice Set implementation contract\n    /// @param impl New implementation contract address\n    function upgradeTo(address impl) external onlyOwner {\n        require(impl != address(0), \"StakeTONProxy: input is zero\");\n        require(\n            _implementation != impl,\n            \"StakeTONProxy: The input address is same as the state\"\n        );\n        _implementation = impl;\n        emit Upgraded(impl);\n    }\n\n    /// @dev returns the implementation\n    function implementation() public view returns (address) {\n        return _implementation;\n    }\n\n    /// @dev receive ether\n    receive() external payable {\n        _fallback();\n    }\n\n    /// @dev fallback function , execute on undefined function call\n    fallback() external payable {\n        _fallback();\n    }\n\n    /// @dev fallback function , execute on undefined function call\n    function _fallback() internal {\n        address _impl = implementation();\n        require(\n            _impl != address(0) && !pauseProxy,\n            \"StakeTONProxy: impl is zero OR proxy is false\"\n        );\n\n        assembly {\n            // Copy msg.data. We take full control of memory in this inline assembly\n            // block because it will not return to Solidity code. We overwrite the\n            // Solidity scratch pad at memory position 0.\n            calldatacopy(0, 0, calldatasize())\n\n            // Call the implementation.\n            // out and outsize are 0 because we don't know the size yet.\n            let result := delegatecall(gas(), _impl, 0, calldatasize(), 0, 0)\n\n            // Copy the returned data.\n            returndatacopy(0, 0, returndatasize())\n\n            switch result\n                // delegatecall returns 0 on error.\n                case 0 {\n                    revert(0, returndatasize())\n                }\n                default {\n                    return(0, returndatasize())\n                }\n        }\n    }\n\n    /// @dev Approves function\n    /// @dev call by WTON\n    /// @param owner  who actually calls\n    /// @param spender  Who gives permission to use\n    /// @param tonAmount  how much will be available\n    /// @param data  Amount data to use with users\n    function onApprove(\n        address owner,\n        address spender,\n        uint256 tonAmount,\n        bytes calldata data\n    ) external override returns (bool) {\n        (address _spender, uint256 _amount) = _decodeStakeData(data);\n        require(\n            tonAmount == _amount && spender == _spender,\n            \"StakeTONProxy: tonAmount != stakingAmount \"\n        );\n        require(\n            stakeOnApprove(msg.sender, owner, _spender, _amount),\n            \"StakeTONProxy: stakeOnApprove fails \"\n        );\n        return true;\n    }\n\n    function _decodeStakeData(bytes calldata input)\n        internal\n        pure\n        returns (address spender, uint256 amount)\n    {\n        (spender, amount) = abi.decode(input, (address, uint256));\n    }\n\n    /// @dev stake with WTON\n    /// @param from  WTON\n    /// @param _owner  who actually calls\n    /// @param _spender  Who gives permission to use\n    /// @param _amount  how much will be available\n    function stakeOnApprove(\n        address from,\n        address _owner,\n        address _spender,\n        uint256 _amount\n    ) public returns (bool) {\n        require(\n            (paytoken == from && _amount > 0 && _spender == address(this)),\n            \"StakeTONProxy: stakeOnApprove init fail\"\n        );\n        require(\n            block.number >= saleStartBlock && block.number < startBlock,\n            \"StakeTONProxy: period not allowed\"\n        );\n\n        require(\n            !IStakeVaultStorage(vault).saleClosed(),\n            \"StakeTONProxy: not end\"\n        );\n        require(\n            IIERC20(paytoken).balanceOf(_owner) >= _amount,\n            \"StakeTONProxy: insuffient\"\n        );\n\n        LibTokenStake1.StakedAmount storage staked = userStaked[_owner];\n        if (staked.amount == 0) totalStakers = totalStakers.add(1);\n\n        staked.amount = staked.amount.add(_amount);\n        totalStakedAmount = totalStakedAmount.add(_amount);\n        require(\n            IIERC20(from).transferFrom(_owner, _spender, _amount),\n            \"StakeTONProxy: transfer fail\"\n        );\n\n        emit Staked(_owner, _amount);\n        return true;\n    }\n\n    /// @dev set initial storage\n    /// @param _addr the array addresses of token, paytoken, vault, defiAddress\n    /// @param _registry the registry address\n    /// @param _intdata the array valued of saleStartBlock, stakeStartBlock, periodBlocks\n    function setInit(\n        address[4] memory _addr,\n        address _registry,\n        uint256[3] memory _intdata\n    ) external onlyOwner {\n        require(\n            _registry != address(0) &&\n                _addr[2] != address(0) &&\n                _intdata[0] < _intdata[1],\n            \"StakeTONProxy: setInit fail\"\n        );\n        token = _addr[0];\n        paytoken = _addr[1];\n        vault = _addr[2];\n\n        stakeRegistry = _registry;\n\n        tokamakLayer2 = address(0);\n\n        saleStartBlock = _intdata[0];\n        startBlock = _intdata[1];\n        endBlock = startBlock.add(_intdata[2]);\n    }\n}\n",
  "sourcePath": "/Users/zena/ico2.0/ico20-contracts/contracts/stake/StakeTONProxy.sol",
  "compiler": {
    "name": "solc",
    "version": "0.7.6+commit.7338295f.Emscripten.clang"
  },
  "schemaVersion": "3.3.4",
  "updatedAt": "2021-06-21T02:58:01.338Z",
  "devdoc": {
    "events": {
      "Staked(address,uint256)": {
        "details": "event on staking TON",
        "params": {
          "amount": "the amount of staking",
          "to": "the sender"
        }
      }
    },
    "kind": "dev",
    "methods": {
      "constructor": {
        "details": "the constructor of StakeTONProxy",
        "params": {
          "_logic": "the logic address of StakeTONProxy"
        }
      },
      "getRoleAdmin(bytes32)": {
        "details": "Returns the admin role that controls `role`. See {grantRole} and {revokeRole}. To change a role's admin, use {_setRoleAdmin}."
      },
      "getRoleMember(bytes32,uint256)": {
        "details": "Returns one of the accounts that have `role`. `index` must be a value between 0 and {getRoleMemberCount}, non-inclusive. Role bearers are not sorted in any particular way, and their ordering may change at any point. WARNING: When using {getRoleMember} and {getRoleMemberCount}, make sure you perform all queries on the same block. See the following https://forum.openzeppelin.com/t/iterating-over-elements-on-enumerableset-in-openzeppelin-contracts/2296[forum post] for more information."
      },
      "getRoleMemberCount(bytes32)": {
        "details": "Returns the number of accounts that have `role`. Can be used together with {getRoleMember} to enumerate all bearers of a role."
      },
      "getUserStaked(address)": {
        "details": "user's staked information"
      },
      "grantRole(bytes32,address)": {
        "details": "Grants `role` to `account`. If `account` had not been already granted `role`, emits a {RoleGranted} event. Requirements: - the caller must have ``role``'s admin role."
      },
      "hasRole(bytes32,address)": {
        "details": "Returns `true` if `account` has been granted `role`."
      },
      "implementation()": {
        "details": "returns the implementation"
      },
      "infos()": {
        "details": "Give the infomation of this stakeContracts",
        "returns": {
          "_0": "paytoken, vault, [saleStartBlock, startBlock, endBlock], rewardClaimedTotal, totalStakedAmount, totalStakers"
        }
      },
      "onApprove(address,address,uint256,bytes)": {
        "details": "Approves functioncall by WTON",
        "params": {
          "data": "Amount data to use with users",
          "owner": "who actually calls",
          "spender": "Who gives permission to use",
          "tonAmount": "how much will be available"
        }
      },
      "renounceRole(bytes32,address)": {
        "details": "Revokes `role` from the calling account. Roles are often managed via {grantRole} and {revokeRole}: this function's purpose is to provide a mechanism for accounts to lose their privileges if they are compromised (such as when a trusted device is misplaced). If the calling account had been granted `role`, emits a {RoleRevoked} event. Requirements: - the caller must be `account`."
      },
      "revokeRole(bytes32,address)": {
        "details": "Revokes `role` from `account`. If `account` had been granted `role`, emits a {RoleRevoked} event. Requirements: - the caller must have ``role``'s admin role."
      },
      "setInit(address[4],address,uint256[3])": {
        "details": "set initial storage",
        "params": {
          "_addr": "the array addresses of token, paytoken, vault, defiAddress",
          "_intdata": "the array valued of saleStartBlock, stakeStartBlock, periodBlocks",
          "_registry": "the registry address"
        }
      },
      "setProxyPause(bool)": {
        "params": {
          "_pause": "true:pause or false:resume"
        }
      },
      "stakeOnApprove(address,address,address,uint256)": {
        "details": "stake with WTON",
        "params": {
          "_amount": "how much will be available",
          "_owner": "who actually calls",
          "_spender": "Who gives permission to use",
          "from": "WTON"
        }
      },
      "supportsInterface(bytes4)": {
        "details": "See {IERC165-supportsInterface}. Time complexity O(1), guaranteed to always use less than 30 000 gas."
      },
      "transferOwnership(address)": {
        "details": "transfer Ownership",
        "params": {
          "newOwner": "new owner address"
        }
      },
      "upgradeTo(address)": {
        "params": {
          "impl": "New implementation contract address"
        }
      }
    },
    "title": "Proxy for Stake contracts in Phase 1",
    "version": 1
  },
  "userdoc": {
    "kind": "user",
    "methods": {
      "setProxyPause(bool)": {
        "notice": "Set pause state"
      },
      "upgradeTo(address)": {
        "notice": "Set implementation contract"
      }
    },
    "version": 1
  }
}