{
  "contractName": "StakeVaultProxy",
  "abi": [
    {
      "inputs": [
        {
          "internalType": "address",
          "name": "impl",
          "type": "address"
        }
      ],
      "stateMutability": "nonpayable",
      "type": "constructor"
    },
    {
      "anonymous": false,
      "inputs": [
        {
          "indexed": true,
          "internalType": "bytes32",
          "name": "role",
          "type": "bytes32"
        },
        {
          "indexed": true,
          "internalType": "bytes32",
          "name": "previousAdminRole",
          "type": "bytes32"
        },
        {
          "indexed": true,
          "internalType": "bytes32",
          "name": "newAdminRole",
          "type": "bytes32"
        }
      ],
      "name": "RoleAdminChanged",
      "type": "event"
    },
    {
      "anonymous": false,
      "inputs": [
        {
          "indexed": true,
          "internalType": "bytes32",
          "name": "role",
          "type": "bytes32"
        },
        {
          "indexed": true,
          "internalType": "address",
          "name": "account",
          "type": "address"
        },
        {
          "indexed": true,
          "internalType": "address",
          "name": "sender",
          "type": "address"
        }
      ],
      "name": "RoleGranted",
      "type": "event"
    },
    {
      "anonymous": false,
      "inputs": [
        {
          "indexed": true,
          "internalType": "bytes32",
          "name": "role",
          "type": "bytes32"
        },
        {
          "indexed": true,
          "internalType": "address",
          "name": "account",
          "type": "address"
        },
        {
          "indexed": true,
          "internalType": "address",
          "name": "sender",
          "type": "address"
        }
      ],
      "name": "RoleRevoked",
      "type": "event"
    },
    {
      "anonymous": false,
      "inputs": [
        {
          "indexed": true,
          "internalType": "address",
          "name": "implementation",
          "type": "address"
        }
      ],
      "name": "Upgraded",
      "type": "event"
    },
    {
      "stateMutability": "payable",
      "type": "fallback"
    },
    {
      "inputs": [],
      "name": "ADMIN_ROLE",
      "outputs": [
        {
          "internalType": "bytes32",
          "name": "",
          "type": "bytes32"
        }
      ],
      "stateMutability": "view",
      "type": "function"
    },
    {
      "inputs": [],
      "name": "DEFAULT_ADMIN_ROLE",
      "outputs": [
        {
          "internalType": "bytes32",
          "name": "",
          "type": "bytes32"
        }
      ],
      "stateMutability": "view",
      "type": "function"
    },
    {
      "inputs": [],
      "name": "blockTotalReward",
      "outputs": [
        {
          "internalType": "uint256",
          "name": "",
          "type": "uint256"
        }
      ],
      "stateMutability": "view",
      "type": "function"
    },
    {
      "inputs": [],
      "name": "cap",
      "outputs": [
        {
          "internalType": "uint256",
          "name": "",
          "type": "uint256"
        }
      ],
      "stateMutability": "view",
      "type": "function"
    },
    {
      "inputs": [],
      "name": "defiAddr",
      "outputs": [
        {
          "internalType": "address",
          "name": "",
          "type": "address"
        }
      ],
      "stateMutability": "view",
      "type": "function"
    },
    {
      "inputs": [
        {
          "internalType": "bytes32",
          "name": "role",
          "type": "bytes32"
        }
      ],
      "name": "getRoleAdmin",
      "outputs": [
        {
          "internalType": "bytes32",
          "name": "",
          "type": "bytes32"
        }
      ],
      "stateMutability": "view",
      "type": "function"
    },
    {
      "inputs": [
        {
          "internalType": "bytes32",
          "name": "role",
          "type": "bytes32"
        },
        {
          "internalType": "uint256",
          "name": "index",
          "type": "uint256"
        }
      ],
      "name": "getRoleMember",
      "outputs": [
        {
          "internalType": "address",
          "name": "",
          "type": "address"
        }
      ],
      "stateMutability": "view",
      "type": "function"
    },
    {
      "inputs": [
        {
          "internalType": "bytes32",
          "name": "role",
          "type": "bytes32"
        }
      ],
      "name": "getRoleMemberCount",
      "outputs": [
        {
          "internalType": "uint256",
          "name": "",
          "type": "uint256"
        }
      ],
      "stateMutability": "view",
      "type": "function"
    },
    {
      "inputs": [
        {
          "internalType": "bytes32",
          "name": "role",
          "type": "bytes32"
        },
        {
          "internalType": "address",
          "name": "account",
          "type": "address"
        }
      ],
      "name": "grantRole",
      "outputs": [],
      "stateMutability": "nonpayable",
      "type": "function"
    },
    {
      "inputs": [
        {
          "internalType": "bytes32",
          "name": "role",
          "type": "bytes32"
        },
        {
          "internalType": "address",
          "name": "account",
          "type": "address"
        }
      ],
      "name": "hasRole",
      "outputs": [
        {
          "internalType": "bool",
          "name": "",
          "type": "bool"
        }
      ],
      "stateMutability": "view",
      "type": "function"
    },
    {
      "inputs": [
        {
          "internalType": "uint256",
          "name": "",
          "type": "uint256"
        }
      ],
      "name": "orderedEndBlocks",
      "outputs": [
        {
          "internalType": "uint256",
          "name": "",
          "type": "uint256"
        }
      ],
      "stateMutability": "view",
      "type": "function"
    },
    {
      "inputs": [],
      "name": "pauseProxy",
      "outputs": [
        {
          "internalType": "bool",
          "name": "",
          "type": "bool"
        }
      ],
      "stateMutability": "view",
      "type": "function"
    },
    {
      "inputs": [],
      "name": "paytoken",
      "outputs": [
        {
          "internalType": "address",
          "name": "",
          "type": "address"
        }
      ],
      "stateMutability": "view",
      "type": "function"
    },
    {
      "inputs": [],
      "name": "realEndBlock",
      "outputs": [
        {
          "internalType": "uint256",
          "name": "",
          "type": "uint256"
        }
      ],
      "stateMutability": "view",
      "type": "function"
    },
    {
      "inputs": [
        {
          "internalType": "bytes32",
          "name": "role",
          "type": "bytes32"
        },
        {
          "internalType": "address",
          "name": "account",
          "type": "address"
        }
      ],
      "name": "renounceRole",
      "outputs": [],
      "stateMutability": "nonpayable",
      "type": "function"
    },
    {
      "inputs": [
        {
          "internalType": "bytes32",
          "name": "role",
          "type": "bytes32"
        },
        {
          "internalType": "address",
          "name": "account",
          "type": "address"
        }
      ],
      "name": "revokeRole",
      "outputs": [],
      "stateMutability": "nonpayable",
      "type": "function"
    },
    {
      "inputs": [],
      "name": "saleClosed",
      "outputs": [
        {
          "internalType": "bool",
          "name": "",
          "type": "bool"
        }
      ],
      "stateMutability": "view",
      "type": "function"
    },
    {
      "inputs": [],
      "name": "saleStartBlock",
      "outputs": [
        {
          "internalType": "uint256",
          "name": "",
          "type": "uint256"
        }
      ],
      "stateMutability": "view",
      "type": "function"
    },
    {
      "inputs": [
        {
          "internalType": "uint256",
          "name": "",
          "type": "uint256"
        }
      ],
      "name": "stakeAddresses",
      "outputs": [
        {
          "internalType": "address",
          "name": "",
          "type": "address"
        }
      ],
      "stateMutability": "view",
      "type": "function"
    },
    {
      "inputs": [],
      "name": "stakeEndBlock",
      "outputs": [
        {
          "internalType": "uint256",
          "name": "",
          "type": "uint256"
        }
      ],
      "stateMutability": "view",
      "type": "function"
    },
    {
      "inputs": [
        {
          "internalType": "uint256",
          "name": "",
          "type": "uint256"
        }
      ],
      "name": "stakeEndBlockTotal",
      "outputs": [
        {
          "internalType": "uint256",
          "name": "",
          "type": "uint256"
        }
      ],
      "stateMutability": "view",
      "type": "function"
    },
    {
      "inputs": [
        {
          "internalType": "address",
          "name": "",
          "type": "address"
        }
      ],
      "name": "stakeInfos",
      "outputs": [
        {
          "internalType": "string",
          "name": "name",
          "type": "string"
        },
        {
          "internalType": "uint256",
          "name": "startBlock",
          "type": "uint256"
        },
        {
          "internalType": "uint256",
          "name": "endBlock",
          "type": "uint256"
        },
        {
          "internalType": "uint256",
          "name": "balance",
          "type": "uint256"
        },
        {
          "internalType": "uint256",
          "name": "totalRewardAmount",
          "type": "uint256"
        },
        {
          "internalType": "uint256",
          "name": "claimRewardAmount",
          "type": "uint256"
        }
      ],
      "stateMutability": "view",
      "type": "function"
    },
    {
      "inputs": [],
      "name": "stakeStartBlock",
      "outputs": [
        {
          "internalType": "uint256",
          "name": "",
          "type": "uint256"
        }
      ],
      "stateMutability": "view",
      "type": "function"
    },
    {
      "inputs": [],
      "name": "stakeType",
      "outputs": [
        {
          "internalType": "uint256",
          "name": "",
          "type": "uint256"
        }
      ],
      "stateMutability": "view",
      "type": "function"
    },
    {
      "inputs": [],
      "name": "tos",
      "outputs": [
        {
          "internalType": "address",
          "name": "",
          "type": "address"
        }
      ],
      "stateMutability": "view",
      "type": "function"
    },
    {
      "inputs": [
        {
          "internalType": "address",
          "name": "newOwner",
          "type": "address"
        }
      ],
      "name": "transferOwnership",
      "outputs": [],
      "stateMutability": "nonpayable",
      "type": "function"
    },
    {
      "stateMutability": "payable",
      "type": "receive"
    },
    {
      "inputs": [
        {
          "internalType": "bool",
          "name": "_pause",
          "type": "bool"
        }
      ],
      "name": "setProxyPause",
      "outputs": [],
      "stateMutability": "nonpayable",
      "type": "function"
    },
    {
      "inputs": [
        {
          "internalType": "address",
          "name": "impl",
          "type": "address"
        }
      ],
      "name": "upgradeTo",
      "outputs": [],
      "stateMutability": "nonpayable",
      "type": "function"
    },
    {
      "inputs": [],
      "name": "implementation",
      "outputs": [
        {
          "internalType": "address",
          "name": "",
          "type": "address"
        }
      ],
      "stateMutability": "view",
      "type": "function"
    },
    {
      "inputs": [
        {
          "internalType": "address",
          "name": "_tos",
          "type": "address"
        },
        {
          "internalType": "address",
          "name": "_paytoken",
          "type": "address"
        },
        {
          "internalType": "uint256",
          "name": "_cap",
          "type": "uint256"
        },
        {
          "internalType": "uint256",
          "name": "_saleStartBlock",
          "type": "uint256"
        },
        {
          "internalType": "uint256",
          "name": "_stakeStartBlock",
          "type": "uint256"
        },
        {
          "internalType": "address",
          "name": "_stakefactory",
          "type": "address"
        },
        {
          "internalType": "uint256",
          "name": "_stakeType",
          "type": "uint256"
        },
        {
          "internalType": "address",
          "name": "_defiAddr",
          "type": "address"
        }
      ],
      "name": "initialize",
      "outputs": [],
      "stateMutability": "nonpayable",
      "type": "function"
    }
  ],
  "bytecode": "0x60806040523480156200001157600080fd5b506040516200159538038062001595833981810160405260208110156200003757600080fd5b5051620000546000805160206200157583398151915280620000b0565b6200006f600080516020620015758339815191523362000102565b6200008a600080516020620015758339815191523062000102565b601180546001600160a01b0319166001600160a01b039290921691909117905562000216565b600082815260208190526040808220600201549051839285917fbd79b86ffe0ab8e8776151514217cd7cacd52c909f66475c3af44e129f0b00ff9190a460009182526020829052604090912060020155565b6200010e828262000112565b5050565b6000828152602081815260409091206200013791839062000f136200018b821b17901c565b156200010e5762000147620001ab565b6001600160a01b0316816001600160a01b0316837f2f8788117e7eff1d82e926ec794901d17c78024a50270940304540a733656f0d60405160405180910390a45050565b6000620001a2836001600160a01b038416620001af565b90505b92915050565b3390565b6000620001bd8383620001fe565b620001f557508154600181810184556000848152602080822090930184905584548482528286019093526040902091909155620001a5565b506000620001a5565b60009081526001919091016020526040902054151590565b61134f80620002266000396000f3fe6080604052600436106101915760003560e01c80637cb00d25116100d7578063b8c766b811610085578063b8c766b8146104c8578063b97af0db146104dd578063ca15c873146104f2578063d105bf851461051c578063d547741f14610531578063dc999b941461056a578063dfbf9def146105ce578063f2fde38b1461069c576101a0565b80637cb00d25146103df57806389f395de1461040b5780639010d07c1461042057806391d14854146104505780639d84ca3514610489578063a217fddf1461049e578063b03dc514146104b3576101a0565b80633659cfe61161013f5780633659cfe6146102f05780633a76eb371461032357806343b0934a146103385780634b5e7cd51461034d5780635c60da1b146103625780635f1bd62a1461037757806363a8fd89146103a157806375b238fc146103ca576101a0565b8063153099d0146101a857806320027275146101e4578063248a9ca3146101f9578063294f5fa3146102235780632f2ff15d14610269578063355274ea146102a257806336568abe146102b7576101a0565b366101a05761019e6106cf565b005b61019e6106cf565b3480156101b457600080fd5b506101d2600480360360208110156101cb57600080fd5b503561075c565b60408051918252519081900360200190f35b3480156101f057600080fd5b506101d261077d565b34801561020557600080fd5b506101d26004803603602081101561021c57600080fd5b5035610783565b34801561022f57600080fd5b5061024d6004803603602081101561024657600080fd5b5035610798565b604080516001600160a01b039092168252519081900360200190f35b34801561027557600080fd5b5061019e6004803603604081101561028c57600080fd5b50803590602001356001600160a01b03166107c2565b3480156102ae57600080fd5b506101d261082e565b3480156102c357600080fd5b5061019e600480360360408110156102da57600080fd5b50803590602001356001600160a01b0316610834565b3480156102fc57600080fd5b5061019e6004803603602081101561031357600080fd5b50356001600160a01b0316610895565b34801561032f57600080fd5b506101d26109e8565b34801561034457600080fd5b5061024d6109ee565b34801561035957600080fd5b506101d26109fd565b34801561036e57600080fd5b5061024d610a03565b34801561038357600080fd5b506101d26004803603602081101561039a57600080fd5b5035610a12565b3480156103ad57600080fd5b506103b6610a24565b604080519115158252519081900360200190f35b3480156103d657600080fd5b506101d2610a34565b3480156103eb57600080fd5b5061019e6004803603602081101561040257600080fd5b50351515610a46565b34801561041757600080fd5b5061024d610ab7565b34801561042c57600080fd5b5061024d6004803603604081101561044357600080fd5b5080359060200135610ac6565b34801561045c57600080fd5b506103b66004803603604081101561047357600080fd5b50803590602001356001600160a01b0316610ae7565b34801561049557600080fd5b5061024d610aff565b3480156104aa57600080fd5b506101d2610b0e565b3480156104bf57600080fd5b506101d2610b13565b3480156104d457600080fd5b506103b6610b19565b3480156104e957600080fd5b506101d2610b22565b3480156104fe57600080fd5b506101d26004803603602081101561051557600080fd5b5035610b28565b34801561052857600080fd5b506101d2610b3f565b34801561053d57600080fd5b5061019e6004803603604081101561055457600080fd5b50803590602001356001600160a01b0316610b45565b34801561057657600080fd5b5061019e600480360361010081101561058e57600080fd5b506001600160a01b038135811691602081013582169160408201359160608101359160808201359160a081013582169160c08201359160e0013516610b9e565b3480156105da57600080fd5b50610601600480360360208110156105f157600080fd5b50356001600160a01b0316610d70565b6040518080602001878152602001868152602001858152602001848152602001838152602001828103825288818151815260200191508051906020019080838360005b8381101561065c578181015183820152602001610644565b50505050905090810190601f1680156106895780820380516001836020036101000a031916815260200191505b5097505050505050505060405180910390f35b3480156106a857600080fd5b5061019e600480360360208110156106bf57600080fd5b50356001600160a01b0316610e2f565b60006106d9610a03565b90506001600160a01b038116158015906106fd5750601154600160a01b900460ff16155b6107385760405162461bcd60e51b81526004018080602001828103825260278152602001806112c46027913960400191505060405180910390fd5b3660008037600080366000845af43d6000803e808015610757573d6000f35b3d6000fd5b600e818154811061076c57600080fd5b600091825260209091200154905081565b60045481565b60009081526020819052604090206002015490565b600c81815481106107a857600080fd5b6000918252602090912001546001600160a01b0316905081565b6000828152602081905260409020600201546107e5906107e0610f28565b610ae7565b6108205760405162461bcd60e51b815260040180806020018281038252602f81526020018061121b602f913960400191505060405180910390fd5b61082a8282610f2c565b5050565b60035481565b61083c610f28565b6001600160a01b0316816001600160a01b03161461088b5760405162461bcd60e51b815260040180806020018281038252602f8152602001806112eb602f913960400191505060405180910390fd5b61082a8282610f95565b6108ad6000805160206112a483398151915233610ae7565b6108e85760405162461bcd60e51b81526004018080602001828103825260298152602001806111d06029913960400191505060405180910390fd5b6001600160a01b038116610943576040805162461bcd60e51b815260206004820152601e60248201527f5374616b655661756c7450726f78793a20696e707574206973207a65726f0000604482015290519081900360640190fd5b6011546001600160a01b038281169116141561099e576040805162461bcd60e51b81526020600482015260156024820152745374616b655661756c7450726f78793a2073616d6560581b604482015290519081900360640190fd5b601180546001600160a01b0319166001600160a01b0383169081179091556040517fbc7cd75a20ee27fd9adebab32041f755214dbc6bffa90cc0225b39da2e5c2d3b90600090a250565b60065481565b6002546001600160a01b031681565b60055481565b6011546001600160a01b031690565b600f6020526000908152604090205481565b601154600160a01b900460ff1681565b6000805160206112a483398151915281565b610a5e6000805160206112a483398151915233610ae7565b610a995760405162461bcd60e51b81526004018080602001828103825260298152602001806111d06029913960400191505060405180910390fd5b60118054911515600160a01b0260ff60a01b19909216919091179055565b6001546001600160a01b031681565b6000828152602081905260408120610ade9083610ffe565b90505b92915050565b6000828152602081905260408120610ade908361100a565b600b546001600160a01b031681565b600081565b60075481565b60095460ff1681565b600a5481565b6000818152602081905260408120610ae19061101f565b60085481565b600082815260208190526040902060020154610b63906107e0610f28565b61088b5760405162461bcd60e51b81526004018080602001828103825260308152602001806112746030913960400191505060405180910390fd5b610bb66000805160206112a483398151915233610ae7565b610bf15760405162461bcd60e51b81526004018080602001828103825260298152602001806111d06029913960400191505060405180910390fd5b6001600160a01b03881615801590610c1157506001600160a01b03831615155b610c62576040805162461bcd60e51b815260206004820152601e60248201527f5374616b655661756c7450726f78793a20696e707574206973207a65726f0000604482015290519081900360640190fd5b60008611610cb3576040805162461bcd60e51b81526020600482015260196024820152785374616b65315661756c743a205f636170206973207a65726f60381b604482015290519081900360640190fd5b8385108015610cc25750600084115b610cfd5760405162461bcd60e51b815260040180806020018281038252602a81526020018061124a602a913960400191505060405180910390fd5b600180546001600160a01b03808b166001600160a01b0319928316179092556003889055600280548a841690831617905560048790556005869055600a849055600b805492841692909116919091179055610d666000805160206112a4833981519152846107c2565b5050505050505050565b600d6020908152600091825260409182902080548351601f60026000196101006001861615020190931692909204918201849004840281018401909452808452909291839190830182828015610e075780601f10610ddc57610100808354040283529160200191610e07565b820191906000526020600020905b815481529060010190602001808311610dea57829003601f168201915b5050505050908060010154908060020154908060030154908060040154908060050154905086565b610e476000805160206112a483398151915233610ae7565b610e825760405162461bcd60e51b81526004018080602001828103825260298152602001806111d06029913960400191505060405180910390fd5b336001600160a01b0382161415610ee0576040805162461bcd60e51b815260206004820152601d60248201527f5374616b655661756c7453746f726167653a2073616d65206f776e6572000000604482015290519081900360640190fd5b610ef86000805160206112a4833981519152826107c2565b610f106000805160206112a483398151915233610b45565b50565b6000610ade836001600160a01b03841661102a565b3390565b6000828152602081905260409020610f449082610f13565b1561082a57610f51610f28565b6001600160a01b0316816001600160a01b0316837f2f8788117e7eff1d82e926ec794901d17c78024a50270940304540a733656f0d60405160405180910390a45050565b6000828152602081905260409020610fad9082611074565b1561082a57610fba610f28565b6001600160a01b0316816001600160a01b0316837ff6391f5c32d9c69d2a47ea670b442974b53935d1edc7fd64eb21e047a839171b60405160405180910390a45050565b6000610ade8383611089565b6000610ade836001600160a01b0384166110ed565b6000610ae182611105565b600061103683836110ed565b61106c57508154600181810184556000848152602080822090930184905584548482528286019093526040902091909155610ae1565b506000610ae1565b6000610ade836001600160a01b038416611109565b815460009082106110cb5760405162461bcd60e51b81526004018080602001828103825260228152602001806111f96022913960400191505060405180910390fd5b8260000182815481106110da57fe5b9060005260206000200154905092915050565b60009081526001919091016020526040902054151590565b5490565b600081815260018301602052604081205480156111c5578354600019808301919081019060009087908390811061113c57fe5b906000526020600020015490508087600001848154811061115957fe5b60009182526020808320909101929092558281526001898101909252604090209084019055865487908061118957fe5b60019003818190600052602060002001600090559055866001016000878152602001908152602001600020600090556001945050505050610ae1565b6000915050610ae156fe5374616b655661756c7453746f726167653a2043616c6c6572206973206e6f7420616e2061646d696e456e756d657261626c655365743a20696e646578206f7574206f6620626f756e6473416363657373436f6e74726f6c3a2073656e646572206d75737420626520616e2061646d696e20746f206772616e745374616b655661756c7450726f78793a207374617274426c6f636b20697320756e617661696c61626c65416363657373436f6e74726f6c3a2073656e646572206d75737420626520616e2061646d696e20746f207265766f6b65df8b4c520ffe197c5343c6f5aec59570151ef9a492f2c624fd45ddde6135ec425374616b655661756c7450726f78793a20696d706c204f522070726f78792069732066616c7365416363657373436f6e74726f6c3a2063616e206f6e6c792072656e6f756e636520726f6c657320666f722073656c66a264697066735822122030fbcf4de5e5923683e0f6667e9ca98299da6141e60b32bc4ba7c693852bb0d964736f6c63430007060033df8b4c520ffe197c5343c6f5aec59570151ef9a492f2c624fd45ddde6135ec42",
  "immutableReferences": {},
  "source": "// SPDX-License-Identifier: MIT\npragma solidity ^0.7.6;\n\nimport \"../interfaces/IStakeVaultProxy.sol\";\nimport \"./StakeVaultStorage.sol\";\n\n/// @title Proxy for StakeVault\n/// @notice\ncontract StakeVaultProxy is StakeVaultStorage, IStakeVaultProxy {\n    address internal _implementation;\n    bool public pauseProxy;\n\n    event Upgraded(address indexed implementation);\n\n    /// @dev constructor of StakeVaultProxy\n    /// @param impl the logic address of StakeVaultProxy\n    constructor(address impl) {\n        _setRoleAdmin(ADMIN_ROLE, ADMIN_ROLE);\n        _setupRole(ADMIN_ROLE, msg.sender);\n        _setupRole(ADMIN_ROLE, address(this));\n        _implementation = impl;\n    }\n\n    /// @notice Set pause state\n    /// @param _pause true:pause or false:resume\n    function setProxyPause(bool _pause) external override onlyOwner {\n        pauseProxy = _pause;\n    }\n\n    /// @notice Set implementation contract\n    /// @param impl New implementation contract address\n    function upgradeTo(address impl) external override onlyOwner {\n        require(impl != address(0), \"StakeVaultProxy: input is zero\");\n        require(_implementation != impl, \"StakeVaultProxy: same\");\n        _implementation = impl;\n        emit Upgraded(impl);\n    }\n\n    /// @dev returns the implementation\n    function implementation() public view override returns (address) {\n        return _implementation;\n    }\n\n    /// @dev receive ether\n    receive() external payable {\n        _fallback();\n    }\n\n    /// @dev fallback function , execute on undefined function call\n    fallback() external payable {\n        _fallback();\n    }\n\n    /// @dev fallback function , execute on undefined function call\n    function _fallback() internal {\n        address _impl = implementation();\n        require(\n            _impl != address(0) && !pauseProxy,\n            \"StakeVaultProxy: impl OR proxy is false\"\n        );\n\n        assembly {\n            // Copy msg.data. We take full control of memory in this inline assembly\n            // block because it will not return to Solidity code. We overwrite the\n            // Solidity scratch pad at memory position 0.\n            calldatacopy(0, 0, calldatasize())\n\n            // Call the implementation.\n            // out and outsize are 0 because we don't know the size yet.\n            let result := delegatecall(gas(), _impl, 0, calldatasize(), 0, 0)\n\n            // Copy the returned data.\n            returndatacopy(0, 0, returndatasize())\n\n            switch result\n                // delegatecall returns 0 on error.\n                case 0 {\n                    revert(0, returndatasize())\n                }\n                default {\n                    return(0, returndatasize())\n                }\n        }\n    }\n\n    /// @dev set initial storage\n    /// @param _tos  TOS token address\n    /// @param _paytoken  Tokens staked by users, can be used as ERC20 tokens.\n    //                     (In case of ETH, input address(0))\n    /// @param _cap  Maximum amount of rewards issued, allocated reward amount.\n    /// @param _saleStartBlock  the sale start block\n    /// @param _stakeStartBlock  the staking start block\n    /// @param _stakefactory the factory address to create stakeContract\n    /// @param _stakeType  Type of staking contract, 0 TON staking, 1 basic ERC20 staking, 2 Defi linked staking\n    /// @param _defiAddr Used when an external address is required. default: address(0)\n    function initialize(\n        address _tos,\n        address _paytoken,\n        uint256 _cap,\n        uint256 _saleStartBlock,\n        uint256 _stakeStartBlock,\n        address _stakefactory,\n        uint256 _stakeType,\n        address _defiAddr\n    ) external override onlyOwner {\n        require(\n            _tos != address(0) && _stakefactory != address(0),\n            \"StakeVaultProxy: input is zero\"\n        );\n        require(_cap > 0, \"Stake1Vault: _cap is zero\");\n        require(\n            _saleStartBlock < _stakeStartBlock && _stakeStartBlock > 0,\n            \"StakeVaultProxy: startBlock is unavailable\"\n        );\n\n        tos = _tos;\n        cap = _cap;\n        paytoken = _paytoken;\n        saleStartBlock = _saleStartBlock;\n        stakeStartBlock = _stakeStartBlock;\n        stakeType = _stakeType;\n        defiAddr = _defiAddr;\n\n        grantRole(ADMIN_ROLE, _stakefactory);\n    }\n}\n",
  "sourcePath": "/Users/zena/ico2.0/ico20-contracts/contracts/stake/StakeVaultProxy.sol",
  "compiler": {
    "name": "solc",
    "version": "0.7.6+commit.7338295f.Emscripten.clang"
  },
  "schemaVersion": "3.3.4",
  "updatedAt": "2021-06-15T09:38:41.638Z",
  "devdoc": {
    "kind": "dev",
    "methods": {
      "constructor": {
        "details": "constructor of StakeVaultProxy",
        "params": {
          "impl": "the logic address of StakeVaultProxy"
        }
      },
      "getRoleAdmin(bytes32)": {
        "details": "Returns the admin role that controls `role`. See {grantRole} and {revokeRole}. To change a role's admin, use {_setRoleAdmin}."
      },
      "getRoleMember(bytes32,uint256)": {
        "details": "Returns one of the accounts that have `role`. `index` must be a value between 0 and {getRoleMemberCount}, non-inclusive. Role bearers are not sorted in any particular way, and their ordering may change at any point. WARNING: When using {getRoleMember} and {getRoleMemberCount}, make sure you perform all queries on the same block. See the following https://forum.openzeppelin.com/t/iterating-over-elements-on-enumerableset-in-openzeppelin-contracts/2296[forum post] for more information."
      },
      "getRoleMemberCount(bytes32)": {
        "details": "Returns the number of accounts that have `role`. Can be used together with {getRoleMember} to enumerate all bearers of a role."
      },
      "grantRole(bytes32,address)": {
        "details": "Grants `role` to `account`. If `account` had not been already granted `role`, emits a {RoleGranted} event. Requirements: - the caller must have ``role``'s admin role."
      },
      "hasRole(bytes32,address)": {
        "details": "Returns `true` if `account` has been granted `role`."
      },
      "implementation()": {
        "details": "returns the implementation"
      },
      "initialize(address,address,uint256,uint256,uint256,address,uint256,address)": {
        "params": {
          "_cap": "Maximum amount of rewards issued, allocated reward amount.",
          "_defiAddr": "Used when an external address is required. default: address(0)",
          "_saleStartBlock": "the sale start block",
          "_stakeStartBlock": "the staking start block",
          "_stakeType": "Type of staking contract, 0 TON staking, 1 basic ERC20 staking, 2 Defi linked staking",
          "_stakefactory": "the factory address to create stakeContract"
        }
      },
      "renounceRole(bytes32,address)": {
        "details": "Revokes `role` from the calling account. Roles are often managed via {grantRole} and {revokeRole}: this function's purpose is to provide a mechanism for accounts to lose their privileges if they are compromised (such as when a trusted device is misplaced). If the calling account had been granted `role`, emits a {RoleRevoked} event. Requirements: - the caller must be `account`."
      },
      "revokeRole(bytes32,address)": {
        "details": "Revokes `role` from `account`. If `account` had been granted `role`, emits a {RoleRevoked} event. Requirements: - the caller must have ``role``'s admin role."
      },
      "setProxyPause(bool)": {
        "params": {
          "_pause": "true:pause or false:resume"
        }
      },
      "transferOwnership(address)": {
        "details": "transfer Ownership",
        "params": {
          "newOwner": "new owner address"
        }
      },
      "upgradeTo(address)": {
        "params": {
          "impl": "New implementation contract address"
        }
      }
    },
    "title": "Proxy for StakeVault",
    "version": 1
  },
  "userdoc": {
    "kind": "user",
    "methods": {
      "setProxyPause(bool)": {
        "notice": "Set pause state"
      },
      "upgradeTo(address)": {
        "notice": "Set implementation contract"
      }
    },
    "version": 1
  }
}