{
  "contractName": "StakeProxyStorage",
  "abi": [
    {
      "inputs": [
        {
          "internalType": "address",
          "name": "",
          "type": "address"
        }
      ],
      "name": "aliveImplementation",
      "outputs": [
        {
          "internalType": "bool",
          "name": "",
          "type": "bool"
        }
      ],
      "stateMutability": "view",
      "type": "function"
    },
    {
      "inputs": [],
      "name": "depositManager",
      "outputs": [
        {
          "internalType": "address",
          "name": "",
          "type": "address"
        }
      ],
      "stateMutability": "view",
      "type": "function"
    },
    {
      "inputs": [],
      "name": "pauseProxy",
      "outputs": [
        {
          "internalType": "bool",
          "name": "",
          "type": "bool"
        }
      ],
      "stateMutability": "view",
      "type": "function"
    },
    {
      "inputs": [
        {
          "internalType": "uint256",
          "name": "",
          "type": "uint256"
        }
      ],
      "name": "proxyImplementation",
      "outputs": [
        {
          "internalType": "address",
          "name": "",
          "type": "address"
        }
      ],
      "stateMutability": "view",
      "type": "function"
    },
    {
      "inputs": [],
      "name": "seigManager",
      "outputs": [
        {
          "internalType": "address",
          "name": "",
          "type": "address"
        }
      ],
      "stateMutability": "view",
      "type": "function"
    },
    {
      "inputs": [
        {
          "internalType": "bytes4",
          "name": "",
          "type": "bytes4"
        }
      ],
      "name": "selectorImplementation",
      "outputs": [
        {
          "internalType": "address",
          "name": "",
          "type": "address"
        }
      ],
      "stateMutability": "view",
      "type": "function"
    },
    {
      "inputs": [],
      "name": "stakeFactory",
      "outputs": [
        {
          "internalType": "contract IStakeFactory",
          "name": "",
          "type": "address"
        }
      ],
      "stateMutability": "view",
      "type": "function"
    },
    {
      "inputs": [],
      "name": "stakeRegistry",
      "outputs": [
        {
          "internalType": "contract IStakeRegistry",
          "name": "",
          "type": "address"
        }
      ],
      "stateMutability": "view",
      "type": "function"
    },
    {
      "inputs": [],
      "name": "stakeVaultFactory",
      "outputs": [
        {
          "internalType": "contract IStakeVaultFactory",
          "name": "",
          "type": "address"
        }
      ],
      "stateMutability": "view",
      "type": "function"
    },
    {
      "inputs": [],
      "name": "ton",
      "outputs": [
        {
          "internalType": "address",
          "name": "",
          "type": "address"
        }
      ],
      "stateMutability": "view",
      "type": "function"
    },
    {
      "inputs": [],
      "name": "tos",
      "outputs": [
        {
          "internalType": "address",
          "name": "",
          "type": "address"
        }
      ],
      "stateMutability": "view",
      "type": "function"
    },
    {
      "inputs": [],
      "name": "wton",
      "outputs": [
        {
          "internalType": "address",
          "name": "",
          "type": "address"
        }
      ],
      "stateMutability": "view",
      "type": "function"
    }
  ],
  "bytecode": "0x608060405234801561001057600080fd5b506102a4806100206000396000f3fe608060405234801561001057600080fd5b50600436106100b45760003560e01c80636fb7f558116100715780636fb7f5581461015657806389f395de1461015e5780638d62d94914610166578063b911135f1461016e578063cc48b9471461018b578063dd196f1814610193576100b4565b806350d2a276146100b9578063550d01a3146100fc57806363a8fd8914610136578063683048351461013e5780636af8da27146101465780636c7ac9d81461014e575b600080fd5b6100e0600480360360208110156100cf57600080fd5b50356001600160e01b03191661019b565b604080516001600160a01b039092168252519081900360200190f35b6101226004803603602081101561011257600080fd5b50356001600160a01b03166101b6565b604080519115158252519081900360200190f35b6101226101cb565b6100e06101db565b6100e06101ea565b6100e06101f9565b6100e0610208565b6100e0610217565b6100e0610226565b6100e06004803603602081101561018457600080fd5b5035610235565b6100e0610250565b6100e061025f565b600a602052600090815260409020546001600160a01b031681565b60096020526000908152604090205460ff1681565b600754600160a01b900460ff1681565b6000546001600160a01b031681565b6002546001600160a01b031681565b6006546001600160a01b031681565b6007546001600160a01b031681565b6003546001600160a01b031681565b6005546001600160a01b031681565b6008602052600090815260409020546001600160a01b031681565b6004546001600160a01b031681565b6001546001600160a01b03168156fea2646970667358221220eb2046f3f38f65450650abe0a915ad5c5e41029ed7c611da12709280b75a7b7464736f6c63430007060033",
  "immutableReferences": {},
  "source": "//SPDX-License-Identifier: Unlicense\npragma solidity ^0.7.6;\n\n//import \"../interfaces/IStakeProxyStorage.sol\";\nimport {IStakeFactory} from \"../interfaces/IStakeFactory.sol\";\nimport {IStakeRegistry} from \"../interfaces/IStakeRegistry.sol\";\nimport {IStakeVaultFactory} from \"../interfaces/IStakeVaultFactory.sol\";\n\n/// @title The storage of StakeProxy\ncontract StakeProxyStorage {\n    /// @dev stakeRegistry\n    IStakeRegistry public stakeRegistry;\n\n    /// @dev stakeFactory\n    IStakeFactory public stakeFactory;\n\n    /// @dev stakeVaultFactory\n    IStakeVaultFactory public stakeVaultFactory;\n\n    /// @dev TOS address\n    address public tos;\n\n    /// @dev TON address in Tokamak\n    address public ton;\n\n    /// @dev WTON address in Tokamak\n    address public wton;\n\n    /// @dev Depositmanager address in Tokamak\n    address public depositManager;\n\n    /// @dev SeigManager address in Tokamak\n    address public seigManager;\n\n    /// @dev flag for pause proxy\n    bool public pauseProxy;\n\n    /// @dev implementation of proxy index\n    mapping(uint256 => address) public proxyImplementation;\n\n    mapping(address => bool) public aliveImplementation;\n\n    mapping(bytes4 => address) public selectorImplementation;\n}\n",
  "sourcePath": "/Users/zena/ico2.0/ico20-contracts/contracts/stake/StakeProxyStorage.sol",
  "compiler": {
    "name": "solc",
    "version": "0.7.6+commit.7338295f.Emscripten.clang"
  },
  "schemaVersion": "3.3.4",
  "updatedAt": "2021-08-02T05:01:31.324Z",
  "devdoc": {
    "kind": "dev",
    "methods": {},
    "stateVariables": {
      "depositManager": {
        "details": "Depositmanager address in Tokamak"
      },
      "pauseProxy": {
        "details": "flag for pause proxy"
      },
      "proxyImplementation": {
        "details": "implementation of proxy index"
      },
      "seigManager": {
        "details": "SeigManager address in Tokamak"
      },
      "stakeFactory": {
        "details": "stakeFactory"
      },
      "stakeRegistry": {
        "details": "stakeRegistry"
      },
      "stakeVaultFactory": {
        "details": "stakeVaultFactory"
      },
      "ton": {
        "details": "TON address in Tokamak"
      },
      "tos": {
        "details": "TOS address"
      },
      "wton": {
        "details": "WTON address in Tokamak"
      }
    },
    "title": "The storage of StakeProxy",
    "version": 1
  },
  "userdoc": {
    "kind": "user",
    "methods": {},
    "version": 1
  }
}