{
  "contractName": "StakeTONStorage",
  "abi": [
    {
      "inputs": [],
      "name": "defiStatus",
      "outputs": [
        {
          "internalType": "uint256",
          "name": "",
          "type": "uint256"
        }
      ],
      "stateMutability": "view",
      "type": "function"
    },
    {
      "inputs": [],
      "name": "depositManager",
      "outputs": [
        {
          "internalType": "address",
          "name": "",
          "type": "address"
        }
      ],
      "stateMutability": "view",
      "type": "function"
    },
    {
      "inputs": [],
      "name": "endBlock",
      "outputs": [
        {
          "internalType": "uint256",
          "name": "",
          "type": "uint256"
        }
      ],
      "stateMutability": "view",
      "type": "function"
    },
    {
      "inputs": [],
      "name": "finalBalanceTON",
      "outputs": [
        {
          "internalType": "uint256",
          "name": "",
          "type": "uint256"
        }
      ],
      "stateMutability": "view",
      "type": "function"
    },
    {
      "inputs": [],
      "name": "finalBalanceWTON",
      "outputs": [
        {
          "internalType": "uint256",
          "name": "",
          "type": "uint256"
        }
      ],
      "stateMutability": "view",
      "type": "function"
    },
    {
      "inputs": [],
      "name": "fromTokamak",
      "outputs": [
        {
          "internalType": "uint256",
          "name": "",
          "type": "uint256"
        }
      ],
      "stateMutability": "view",
      "type": "function"
    },
    {
      "inputs": [
        {
          "internalType": "address",
          "name": "user",
          "type": "address"
        }
      ],
      "name": "getUserStaked",
      "outputs": [
        {
          "internalType": "uint256",
          "name": "amount",
          "type": "uint256"
        },
        {
          "internalType": "uint256",
          "name": "claimedBlock",
          "type": "uint256"
        },
        {
          "internalType": "uint256",
          "name": "claimedAmount",
          "type": "uint256"
        },
        {
          "internalType": "uint256",
          "name": "releasedBlock",
          "type": "uint256"
        },
        {
          "internalType": "uint256",
          "name": "releasedAmount",
          "type": "uint256"
        },
        {
          "internalType": "uint256",
          "name": "releasedTOSAmount",
          "type": "uint256"
        },
        {
          "internalType": "bool",
          "name": "released",
          "type": "bool"
        }
      ],
      "stateMutability": "view",
      "type": "function"
    },
    {
      "inputs": [],
      "name": "infos",
      "outputs": [
        {
          "internalType": "address",
          "name": "",
          "type": "address"
        },
        {
          "internalType": "address",
          "name": "",
          "type": "address"
        },
        {
          "internalType": "uint256[3]",
          "name": "",
          "type": "uint256[3]"
        },
        {
          "internalType": "uint256",
          "name": "",
          "type": "uint256"
        },
        {
          "internalType": "uint256",
          "name": "",
          "type": "uint256"
        },
        {
          "internalType": "uint256",
          "name": "",
          "type": "uint256"
        }
      ],
      "stateMutability": "view",
      "type": "function"
    },
    {
      "inputs": [],
      "name": "paytoken",
      "outputs": [
        {
          "internalType": "address",
          "name": "",
          "type": "address"
        }
      ],
      "stateMutability": "view",
      "type": "function"
    },
    {
      "inputs": [],
      "name": "requestNum",
      "outputs": [
        {
          "internalType": "uint256",
          "name": "",
          "type": "uint256"
        }
      ],
      "stateMutability": "view",
      "type": "function"
    },
    {
      "inputs": [],
      "name": "rewardClaimedTotal",
      "outputs": [
        {
          "internalType": "uint256",
          "name": "",
          "type": "uint256"
        }
      ],
      "stateMutability": "view",
      "type": "function"
    },
    {
      "inputs": [],
      "name": "saleStartBlock",
      "outputs": [
        {
          "internalType": "uint256",
          "name": "",
          "type": "uint256"
        }
      ],
      "stateMutability": "view",
      "type": "function"
    },
    {
      "inputs": [],
      "name": "seigManager",
      "outputs": [
        {
          "internalType": "address",
          "name": "",
          "type": "address"
        }
      ],
      "stateMutability": "view",
      "type": "function"
    },
    {
      "inputs": [],
      "name": "stakeRegistry",
      "outputs": [
        {
          "internalType": "address",
          "name": "",
          "type": "address"
        }
      ],
      "stateMutability": "view",
      "type": "function"
    },
    {
      "inputs": [],
      "name": "startBlock",
      "outputs": [
        {
          "internalType": "uint256",
          "name": "",
          "type": "uint256"
        }
      ],
      "stateMutability": "view",
      "type": "function"
    },
    {
      "inputs": [],
      "name": "swapProxy",
      "outputs": [
        {
          "internalType": "address",
          "name": "",
          "type": "address"
        }
      ],
      "stateMutability": "view",
      "type": "function"
    },
    {
      "inputs": [],
      "name": "swappedAmountTOS",
      "outputs": [
        {
          "internalType": "uint256",
          "name": "",
          "type": "uint256"
        }
      ],
      "stateMutability": "view",
      "type": "function"
    },
    {
      "inputs": [],
      "name": "toTokamak",
      "outputs": [
        {
          "internalType": "uint256",
          "name": "",
          "type": "uint256"
        }
      ],
      "stateMutability": "view",
      "type": "function"
    },
    {
      "inputs": [],
      "name": "toUniswapWTON",
      "outputs": [
        {
          "internalType": "uint256",
          "name": "",
          "type": "uint256"
        }
      ],
      "stateMutability": "view",
      "type": "function"
    },
    {
      "inputs": [],
      "name": "tokamakLayer2",
      "outputs": [
        {
          "internalType": "address",
          "name": "",
          "type": "address"
        }
      ],
      "stateMutability": "view",
      "type": "function"
    },
    {
      "inputs": [],
      "name": "token",
      "outputs": [
        {
          "internalType": "address",
          "name": "",
          "type": "address"
        }
      ],
      "stateMutability": "view",
      "type": "function"
    },
    {
      "inputs": [],
      "name": "ton",
      "outputs": [
        {
          "internalType": "address",
          "name": "",
          "type": "address"
        }
      ],
      "stateMutability": "view",
      "type": "function"
    },
    {
      "inputs": [],
      "name": "totalStakedAmount",
      "outputs": [
        {
          "internalType": "uint256",
          "name": "",
          "type": "uint256"
        }
      ],
      "stateMutability": "view",
      "type": "function"
    },
    {
      "inputs": [],
      "name": "totalStakers",
      "outputs": [
        {
          "internalType": "uint256",
          "name": "",
          "type": "uint256"
        }
      ],
      "stateMutability": "view",
      "type": "function"
    },
    {
      "inputs": [
        {
          "internalType": "address",
          "name": "",
          "type": "address"
        }
      ],
      "name": "userStaked",
      "outputs": [
        {
          "internalType": "uint256",
          "name": "amount",
          "type": "uint256"
        },
        {
          "internalType": "uint256",
          "name": "claimedBlock",
          "type": "uint256"
        },
        {
          "internalType": "uint256",
          "name": "claimedAmount",
          "type": "uint256"
        },
        {
          "internalType": "uint256",
          "name": "releasedBlock",
          "type": "uint256"
        },
        {
          "internalType": "uint256",
          "name": "releasedAmount",
          "type": "uint256"
        },
        {
          "internalType": "uint256",
          "name": "releasedTOSAmount",
          "type": "uint256"
        },
        {
          "internalType": "bool",
          "name": "released",
          "type": "bool"
        }
      ],
      "stateMutability": "view",
      "type": "function"
    },
    {
      "inputs": [],
      "name": "vault",
      "outputs": [
        {
          "internalType": "address",
          "name": "",
          "type": "address"
        }
      ],
      "stateMutability": "view",
      "type": "function"
    },
    {
      "inputs": [],
      "name": "withdrawFlag",
      "outputs": [
        {
          "internalType": "bool",
          "name": "",
          "type": "bool"
        }
      ],
      "stateMutability": "view",
      "type": "function"
    },
    {
      "inputs": [],
      "name": "wton",
      "outputs": [
        {
          "internalType": "address",
          "name": "",
          "type": "address"
        }
      ],
      "stateMutability": "view",
      "type": "function"
    }
  ],
  "bytecode": "0x608060405234801561001057600080fd5b506105ad806100206000396000f3fe608060405234801561001057600080fd5b50600436106101845760003560e01c806386989038116100d9578063dac3fc3f11610087578063dac3fc3f14610331578063e09974b914610357578063e58e27471461035f578063e6a7bc8714610367578063fbfa77cf1461036f578063fc0c546a14610377578063fd7fa4601461037f57610184565b8063869890381461023b5780638d62d9491461024357806392ea3b4c1461024b5780639a88be2f14610253578063acc3a939146102c1578063b2d4d6a314610321578063cc48b9471461032957610184565b8063567e98f911610136578063567e98f9146101ef57806368304835146101f75780636c7ac9d8146101ff5780636e7cf534146102075780636ec4be90146102235780636fb7f5581461022b578063722853261461023357610184565b806305871b7814610189578063083c6323146101a35780630ac8e0f3146101ab5780630ea3d9c9146101b357806320027275146101bb57806343b0934a146101c357806348cd4cb1146101e7575b600080fd5b610191610387565b60408051918252519081900360200190f35b61019161038d565b610191610393565b610191610399565b61019161039f565b6101cb6103a5565b604080516001600160a01b039092168252519081900360200190f35b6101916103b4565b6101916103ba565b6101cb6103c0565b6101cb6103cf565b61020f6103de565b604080519115158252519081900360200190f35b6101cb6103e7565b6101cb6103f6565b610191610405565b61019161040b565b6101cb610411565b6101cb610420565b61025b61042f565b604080516001600160a01b0380891682528716602082015290810185606080838360005b8381101561029757818101518382015260200161027f565b50505050905001848152602001838152602001828152602001965050505050505060405180910390f35b6102e7600480360360208110156102d757600080fd5b50356001600160a01b0316610485565b604080519788526020880196909652868601949094526060860192909252608085015260a0840152151560c0830152519081900360e00190f35b6101916104c5565b6101cb6104cb565b6102e76004803603602081101561034757600080fd5b50356001600160a01b03166104da565b610191610523565b610191610529565b61019161052f565b6101cb610535565b6101cb610544565b610191610553565b60145481565b60065481565b60135481565b60155481565b60045481565b6002546001600160a01b031681565b60055481565b60085481565b6001546001600160a01b031681565b600f546001600160a01b031681565b601a5460ff1681565b6010546001600160a01b031681565b600e546001600160a01b031681565b60185481565b600a5481565b600d546001600160a01b031681565b6011546001600160a01b031681565b60008061043a610559565b5050600254600354604080516060810182526004548152600554602082015260065491810191909152600754600854600a546001600160a01b03958616979590941695509193909290565b6009602052600090815260409020805460018201546002830154600384015460048501546005860154600690960154949593949293919290919060ff1687565b60075481565b600c546001600160a01b031681565b6001600160a01b03166000908152600960205260409020805460018201546002830154600384015460048501546005860154600690960154949693959294919390929160ff1690565b60195481565b60165481565b60175481565b6003546001600160a01b031681565b6000546001600160a01b031681565b60125481565b6040518060600160405280600390602082028036833750919291505056fea2646970667358221220a25fdd1e2022105d2c88e4699319802a5bce58546f9d16719e054155908ebc0164736f6c63430007060033",
  "immutableReferences": {},
  "source": "//SPDX-License-Identifier: Unlicense\npragma solidity ^0.7.6;\n\n//import \"../interfaces/IStakeTONStorage.sol\";\nimport \"./Stake1Storage.sol\";\n\n/// @title the storage of StakeTONStorage\ncontract StakeTONStorage is Stake1Storage {\n    /// @dev TON address\n    address public ton;\n\n    /// @dev WTON address\n    address public wton;\n\n    /// @dev SeigManager address\n    address public seigManager;\n\n    /// @dev DepositManager address\n    address public depositManager;\n\n    /// @dev swapProxy address\n    address public swapProxy;\n\n    /// @dev the layer2 address in Tokamak\n    address public tokamakLayer2;\n\n    /// @dev the accumulated TON amount staked into tokamak , in wei unit\n    uint256 public toTokamak;\n\n    /// @dev the accumulated WTON amount unstaked from tokamak , in ray unit\n    uint256 public fromTokamak;\n\n    /// @dev the accumulated WTON amount swapped using uniswap , in ray unit\n    uint256 public toUniswapWTON;\n\n    /// @dev the TOS balance in this contract\n    uint256 public swappedAmountTOS;\n\n    /// @dev the TON balance in this contract when withdraw at first\n    uint256 public finalBalanceTON;\n\n    /// @dev the WTON balance in this contract when withdraw at first\n    uint256 public finalBalanceWTON;\n\n    /// @dev defi status\n    uint256 public defiStatus;\n\n    /// @dev the number of requesting unstaking to tokamak , when process unstaking, reset zero.\n    uint256 public requestNum;\n\n    /// @dev the withdraw flag, when withdraw at first, set true\n    bool public withdrawFlag;\n}\n",
  "sourcePath": "/Users/zena/ico2.0/ico20-contracts/contracts/stake/StakeTONStorage.sol",
  "compiler": {
    "name": "solc",
    "version": "0.7.6+commit.7338295f.Emscripten.clang"
  },
  "schemaVersion": "3.3.4",
  "updatedAt": "2021-06-21T02:58:01.346Z",
  "devdoc": {
    "kind": "dev",
    "methods": {
      "getUserStaked(address)": {
        "details": "user's staked information"
      },
      "infos()": {
        "details": "Give the infomation of this stakeContracts",
        "returns": {
          "_0": "paytoken, vault, [saleStartBlock, startBlock, endBlock], rewardClaimedTotal, totalStakedAmount, totalStakers"
        }
      }
    },
    "stateVariables": {
      "defiStatus": {
        "details": "defi status"
      },
      "depositManager": {
        "details": "DepositManager address"
      },
      "finalBalanceTON": {
        "details": "the TON balance in this contract when withdraw at first"
      },
      "finalBalanceWTON": {
        "details": "the WTON balance in this contract when withdraw at first"
      },
      "fromTokamak": {
        "details": "the accumulated WTON amount unstaked from tokamak , in ray unit"
      },
      "requestNum": {
        "details": "the number of requesting unstaking to tokamak , when process unstaking, reset zero."
      },
      "seigManager": {
        "details": "SeigManager address"
      },
      "swapProxy": {
        "details": "swapProxy address"
      },
      "swappedAmountTOS": {
        "details": "the TOS balance in this contract"
      },
      "toTokamak": {
        "details": "the accumulated TON amount staked into tokamak , in wei unit"
      },
      "toUniswapWTON": {
        "details": "the accumulated WTON amount swapped using uniswap , in ray unit"
      },
      "tokamakLayer2": {
        "details": "the layer2 address in Tokamak"
      },
      "ton": {
        "details": "TON address"
      },
      "withdrawFlag": {
        "details": "the withdraw flag, when withdraw at first, set true"
      },
      "wton": {
        "details": "WTON address"
      }
    },
    "title": "the storage of StakeTONStorage",
    "version": 1
  },
  "userdoc": {
    "kind": "user",
    "methods": {},
    "version": 1
  }
}