{
  "contractName": "StepFixedRatio",
  "abi": [
    {
      "inputs": [
        {
          "internalType": "uint256",
          "name": "",
          "type": "uint256"
        }
      ],
      "name": "ratios",
      "outputs": [
        {
          "internalType": "uint256",
          "name": "duration",
          "type": "uint256"
        },
        {
          "internalType": "uint256",
          "name": "ratio",
          "type": "uint256"
        }
      ],
      "stateMutability": "view",
      "type": "function"
    },
    {
      "inputs": [
        {
          "internalType": "uint256",
          "name": "_duration",
          "type": "uint256"
        },
        {
          "internalType": "uint256",
          "name": "_ratio",
          "type": "uint256"
        }
      ],
      "name": "addDurationMax",
      "outputs": [],
      "stateMutability": "nonpayable",
      "type": "function"
    },
    {
      "inputs": [
        {
          "internalType": "uint256",
          "name": "_duration",
          "type": "uint256"
        }
      ],
      "name": "getRatioByDuration",
      "outputs": [
        {
          "internalType": "uint256",
          "name": "ratio",
          "type": "uint256"
        }
      ],
      "stateMutability": "view",
      "type": "function"
    },
    {
      "inputs": [
        {
          "internalType": "uint256",
          "name": "_index",
          "type": "uint256"
        }
      ],
      "name": "getRatioByIndex",
      "outputs": [
        {
          "internalType": "uint256",
          "name": "ratio",
          "type": "uint256"
        }
      ],
      "stateMutability": "view",
      "type": "function"
    },
    {
      "inputs": [
        {
          "internalType": "uint256",
          "name": "_amount",
          "type": "uint256"
        },
        {
          "internalType": "uint256",
          "name": "_duration",
          "type": "uint256"
        }
      ],
      "name": "calculateAmountWithRatioByDuration",
      "outputs": [
        {
          "internalType": "uint256",
          "name": "newAmount",
          "type": "uint256"
        }
      ],
      "stateMutability": "view",
      "type": "function"
    },
    {
      "inputs": [
        {
          "internalType": "uint256",
          "name": "_amount",
          "type": "uint256"
        },
        {
          "internalType": "uint256",
          "name": "_index",
          "type": "uint256"
        }
      ],
      "name": "calculateAmountWithRatioByIndex",
      "outputs": [
        {
          "internalType": "uint256",
          "name": "newAmount",
          "type": "uint256"
        }
      ],
      "stateMutability": "view",
      "type": "function"
    }
  ],
  "bytecode": "0x608060405234801561001057600080fd5b506104f3806100206000396000f3fe608060405234801561001057600080fd5b50600436106100625760003560e01c80632334b6b41461006757806335524cb91461009c578063771dc86a146100c157806396a8fa13146100f7578063c3f2aec714610114578063c9a97ea614610137575b600080fd5b61008a6004803603604081101561007d57600080fd5b5080359060200135610154565b60408051918252519081900360200190f35b6100bf600480360360408110156100b257600080fd5b50803590602001356101cb565b005b6100de600480360360208110156100d757600080fd5b5035610351565b6040805192835260208301919091528051918290030190f35b61008a6004803603602081101561010d57600080fd5b503561037f565b61008a6004803603604081101561012a57600080fd5b50803590602001356103b5565b61008a6004803603602081101561014d57600080fd5b50356103fd565b6000805b6000548110156101c457826000828154811061017057fe5b906000526020600020906002020160000154106101bc57670de0b6b3a76400006000828154811061019d57fe5b9060005260206000209060020201600101548502816101b857fe5b0491505b600101610158565b5092915050565b6000821180156101db5750600081115b61022c576040805162461bcd60e51b815260206004820152601e60248201527f537465704669786564526174696f3a20696e707574206973207a65726f2e0000604482015290519081900360640190fd5b610235826103fd565b156102715760405162461bcd60e51b815260040180806020018281038252602b815260200180610493602b913960400191505060405180910390fd5b600054156102dc5760008054839190600019810190811061028e57fe5b906000526020600020906002020160000154106102dc5760405162461bcd60e51b815260040180806020018281038252602a815260200180610469602a913960400191505060405180910390fd5b60408051808201909152918252602082019081526000805460018101825590805291517f290decd9548b62a8d60345a988386fc84ba6bc95484008f6362f93160ef3e563600290930292830155517f290decd9548b62a8d60345a988386fc84ba6bc95484008f6362f93160ef3e56490910155565b6000818154811061036157600080fd5b60009182526020909120600290910201805460019091015490915082565b60008054821061038e57600080fd5b6000828154811061039b57fe5b90600052602060002090600202016001015490505b919050565b6000805482106103c457600080fd5b670de0b6b3a7640000600083815481106103da57fe5b9060005260206000209060020201600101548402816103f557fe5b049392505050565b6000805b60005481101561045f57826000828154811061041957fe5b90600052602060002090600202016000015410610457576000818154811061043d57fe5b9060005260206000209060020201600101549150506103b0565b600101610401565b5060009291505056fe537465704669786564526174696f3a205f6475726174696f6e206973206e6f74206d61782076616c7565537465704669786564526174696f3a205f6475726174696f6e20697320616c72656164792061646465642ea264697066735822122066202d2c81bf9e0ca8d39f1269eb57b24795136700c04a3904be4dc73654b09764736f6c63430007060033",
  "immutableReferences": {},
  "source": "//SPDX-License-Identifier: Unlicense\npragma solidity ^0.7.6;\n\n\ncontract StepFixedRatio {\n\n  struct DurationRatio {\n      uint256 duration;\n      uint256 ratio; // uint wei\n  }\n\n  DurationRatio[] public ratios; // ordered duration\n\n  function addDurationMax(uint256 _duration, uint256 _ratio)\n  public {\n\n      require(_duration > 0 && _ratio > 0, \"StepFixedRatio: input is zero.\");\n\n      // check same duration\n      require(getRatioByDuration(_duration) == 0 , \"StepFixedRatio: _duration is already added.\");\n\n      if (ratios.length > 0) {\n        require(ratios[ratios.length-1].duration < _duration, \"StepFixedRatio: _duration is not max value\");\n      }\n\n      ratios.push(DurationRatio(_duration, _ratio));\n\n  }\n\n  function getRatioByDuration(uint256 _duration) public view returns (uint256 ratio) {\n      for (uint256 i = 0; i < ratios.length; i++) {\n        if (ratios[i].duration >= _duration){\n          return  ratios[i].ratio;\n        }\n      }\n      return 0;\n  }\n\n  function getRatioByIndex(uint256 _index) public view returns (uint256 ratio) {\n      require(_index < ratios.length);\n      return ratios[_index].ratio;\n  }\n\n  function calculateAmountWithRatioByDuration(uint256 _amount, uint256 _duration)\n    public view returns (uint256 newAmount) {\n      newAmount = 0;\n      for (uint256 i = 0; i < ratios.length; i++) {\n        if (ratios[i].duration >= _duration){\n          newAmount = _amount * ratios[i].ratio / 10**18;\n        }\n      }\n  }\n\n  function calculateAmountWithRatioByIndex(uint256 _amount, uint256 _index)\n    public view returns (uint256 newAmount) {\n      newAmount = 0;\n      require(_index < ratios.length);\n      newAmount = _amount * ratios[_index].ratio / 10**18;\n  }\n\n}\n",
  "sourcePath": "/Users/zena/ico2.0/ico20-contracts/contracts/platform/StepFixedRatio.sol",
  "compiler": {
    "name": "solc",
    "version": "0.7.6+commit.7338295f.Emscripten.clang"
  },
  "schemaVersion": "3.3.4",
  "updatedAt": "2021-04-22T13:21:35.213Z",
  "devdoc": {
    "kind": "dev",
    "methods": {},
    "version": 1
  },
  "userdoc": {
    "kind": "user",
    "methods": {},
    "version": 1
  }
}