{
  "contractName": "SwapProxy",
  "abi": [
    {
      "inputs": [],
      "payable": false,
      "stateMutability": "nonpayable",
      "type": "constructor"
    },
    {
      "constant": true,
      "inputs": [
        {
          "internalType": "bytes4",
          "name": "interfaceId",
          "type": "bytes4"
        }
      ],
      "name": "supportsInterface",
      "outputs": [
        {
          "internalType": "bool",
          "name": "",
          "type": "bool"
        }
      ],
      "payable": false,
      "stateMutability": "view",
      "type": "function"
    },
    {
      "constant": false,
      "inputs": [
        {
          "internalType": "address",
          "name": "owner",
          "type": "address"
        },
        {
          "internalType": "address",
          "name": "spender",
          "type": "address"
        },
        {
          "internalType": "uint256",
          "name": "tonAmount",
          "type": "uint256"
        },
        {
          "internalType": "bytes",
          "name": "data",
          "type": "bytes"
        }
      ],
      "name": "onApprove",
      "outputs": [
        {
          "internalType": "bool",
          "name": "",
          "type": "bool"
        }
      ],
      "payable": false,
      "stateMutability": "nonpayable",
      "type": "function"
    }
  ],
  "bytecode": "0x608060405234801561001057600080fd5b506100437f01ffc9a7000000000000000000000000000000000000000000000000000000006001600160e01b0361007a16565b6100757f4273ca16000000000000000000000000000000000000000000000000000000006001600160e01b0361007a16565b610148565b7fffffffff00000000000000000000000000000000000000000000000000000000808216141561010b57604080517f08c379a000000000000000000000000000000000000000000000000000000000815260206004820152601c60248201527f4552433136353a20696e76616c696420696e7465726661636520696400000000604482015290519081900360640190fd5b7fffffffff00000000000000000000000000000000000000000000000000000000166000908152602081905260409020805460ff19166001179055565b610165806101576000396000f3fe608060405234801561001057600080fd5b50600436106100365760003560e01c806301ffc9a71461003b5780634273ca1614610076575b600080fd5b6100626004803603602081101561005157600080fd5b50356001600160e01b031916610106565b604080519115158252519081900360200190f35b6100626004803603608081101561008c57600080fd5b6001600160a01b038235811692602081013590911691604082013591908101906080810160608201356401000000008111156100c757600080fd5b8201836020820111156100d957600080fd5b803590602001918460018302840111640100000000831117156100fb57600080fd5b509092509050610125565b6001600160e01b03191660009081526020819052604090205460ff1690565b60019594505050505056fea265627a7a7231582066149619f8c9fde9ef7e19dcb5ccf224400858cce93dad57d1a76cf988d37b5764736f6c634300050c0032",
  "source": "pragma solidity ^0.5.12;\n\nimport { ERC165 } from \"../../../node_modules/openzeppelin-solidity/contracts/introspection/ERC165.sol\";\n\ncontract SwapProxy is ERC165 {\n  constructor() public {\n    _registerInterface(SwapProxy(this).onApprove.selector);\n  }\n\n  function onApprove(\n    address owner,\n    address spender,\n    uint256 tonAmount,\n    bytes calldata data\n  ) external returns (bool) {\n    return true;\n  }\n}\n",
  "sourcePath": "/Users/zena/ico2.0/ico20-contracts/plasma-evm-contracts/contracts/stake/tokens/SwapProxy.sol",
  "compiler": {
    "name": "solc",
    "version": "0.5.12+commit.7709ece9.Emscripten.clang"
  },
  "schemaVersion": "3.3.4",
  "updatedAt": "2021-04-29T14:50:18.278Z",
  "devdoc": {
    "methods": {
      "supportsInterface(bytes4)": {
        "details": "See {IERC165-supportsInterface}.     * Time complexity O(1), guaranteed to always use less than 30 000 gas."
      }
    }
  },
  "userdoc": {
    "methods": {}
  }
}