{
  "contractName": "TokamakStaker",
  "abi": [
    {
      "anonymous": false,
      "inputs": [
        {
          "indexed": true,
          "internalType": "bytes32",
          "name": "role",
          "type": "bytes32"
        },
        {
          "indexed": true,
          "internalType": "bytes32",
          "name": "previousAdminRole",
          "type": "bytes32"
        },
        {
          "indexed": true,
          "internalType": "bytes32",
          "name": "newAdminRole",
          "type": "bytes32"
        }
      ],
      "name": "RoleAdminChanged",
      "type": "event"
    },
    {
      "anonymous": false,
      "inputs": [
        {
          "indexed": true,
          "internalType": "bytes32",
          "name": "role",
          "type": "bytes32"
        },
        {
          "indexed": true,
          "internalType": "address",
          "name": "account",
          "type": "address"
        },
        {
          "indexed": true,
          "internalType": "address",
          "name": "sender",
          "type": "address"
        }
      ],
      "name": "RoleGranted",
      "type": "event"
    },
    {
      "anonymous": false,
      "inputs": [
        {
          "indexed": true,
          "internalType": "bytes32",
          "name": "role",
          "type": "bytes32"
        },
        {
          "indexed": true,
          "internalType": "address",
          "name": "account",
          "type": "address"
        },
        {
          "indexed": true,
          "internalType": "address",
          "name": "sender",
          "type": "address"
        }
      ],
      "name": "RoleRevoked",
      "type": "event"
    },
    {
      "anonymous": false,
      "inputs": [
        {
          "indexed": false,
          "internalType": "address",
          "name": "registry",
          "type": "address"
        }
      ],
      "name": "SetRegistry",
      "type": "event"
    },
    {
      "anonymous": false,
      "inputs": [
        {
          "indexed": false,
          "internalType": "address",
          "name": "layer2",
          "type": "address"
        }
      ],
      "name": "SetTokamakLayer2",
      "type": "event"
    },
    {
      "anonymous": false,
      "inputs": [
        {
          "indexed": false,
          "internalType": "address",
          "name": "caller",
          "type": "address"
        },
        {
          "indexed": false,
          "internalType": "uint256",
          "name": "amountIn",
          "type": "uint256"
        },
        {
          "indexed": false,
          "internalType": "uint256",
          "name": "amountOut",
          "type": "uint256"
        }
      ],
      "name": "exchangedWTONtoTOS",
      "type": "event"
    },
    {
      "anonymous": false,
      "inputs": [
        {
          "indexed": false,
          "internalType": "address",
          "name": "caller",
          "type": "address"
        },
        {
          "indexed": false,
          "internalType": "uint256",
          "name": "amountIn",
          "type": "uint256"
        },
        {
          "indexed": false,
          "internalType": "uint256",
          "name": "amountOut",
          "type": "uint256"
        }
      ],
      "name": "exchangedWTONtoTOS2",
      "type": "event"
    },
    {
      "anonymous": false,
      "inputs": [
        {
          "indexed": false,
          "internalType": "address",
          "name": "layer2",
          "type": "address"
        },
        {
          "indexed": false,
          "internalType": "uint256",
          "name": "rn",
          "type": "uint256"
        },
        {
          "indexed": false,
          "internalType": "bool",
          "name": "receiveTON",
          "type": "bool"
        }
      ],
      "name": "tokamakProcessedUnStaking",
      "type": "event"
    },
    {
      "anonymous": false,
      "inputs": [
        {
          "indexed": false,
          "internalType": "address",
          "name": "layer2",
          "type": "address"
        },
        {
          "indexed": false,
          "internalType": "uint256",
          "name": "amount",
          "type": "uint256"
        }
      ],
      "name": "tokamakRequestedUnStaking",
      "type": "event"
    },
    {
      "anonymous": false,
      "inputs": [
        {
          "indexed": false,
          "internalType": "address",
          "name": "layer2",
          "type": "address"
        }
      ],
      "name": "tokamakRequestedUnStakingAll",
      "type": "event"
    },
    {
      "anonymous": false,
      "inputs": [
        {
          "indexed": false,
          "internalType": "address",
          "name": "layer2",
          "type": "address"
        },
        {
          "indexed": false,
          "internalType": "uint256",
          "name": "amount",
          "type": "uint256"
        }
      ],
      "name": "tokamakStaked",
      "type": "event"
    },
    {
      "inputs": [],
      "name": "ADMIN_ROLE",
      "outputs": [
        {
          "internalType": "bytes32",
          "name": "",
          "type": "bytes32"
        }
      ],
      "stateMutability": "view",
      "type": "function"
    },
    {
      "inputs": [],
      "name": "DEFAULT_ADMIN_ROLE",
      "outputs": [
        {
          "internalType": "bytes32",
          "name": "",
          "type": "bytes32"
        }
      ],
      "stateMutability": "view",
      "type": "function"
    },
    {
      "inputs": [],
      "name": "defiStatus",
      "outputs": [
        {
          "internalType": "uint256",
          "name": "",
          "type": "uint256"
        }
      ],
      "stateMutability": "view",
      "type": "function"
    },
    {
      "inputs": [],
      "name": "depositManager",
      "outputs": [
        {
          "internalType": "address",
          "name": "",
          "type": "address"
        }
      ],
      "stateMutability": "view",
      "type": "function"
    },
    {
      "inputs": [],
      "name": "endBlock",
      "outputs": [
        {
          "internalType": "uint256",
          "name": "",
          "type": "uint256"
        }
      ],
      "stateMutability": "view",
      "type": "function"
    },
    {
      "inputs": [],
      "name": "finalBalanceTON",
      "outputs": [
        {
          "internalType": "uint256",
          "name": "",
          "type": "uint256"
        }
      ],
      "stateMutability": "view",
      "type": "function"
    },
    {
      "inputs": [],
      "name": "finalBalanceWTON",
      "outputs": [
        {
          "internalType": "uint256",
          "name": "",
          "type": "uint256"
        }
      ],
      "stateMutability": "view",
      "type": "function"
    },
    {
      "inputs": [],
      "name": "fromTokamak",
      "outputs": [
        {
          "internalType": "uint256",
          "name": "",
          "type": "uint256"
        }
      ],
      "stateMutability": "view",
      "type": "function"
    },
    {
      "inputs": [
        {
          "internalType": "bytes32",
          "name": "role",
          "type": "bytes32"
        }
      ],
      "name": "getRoleAdmin",
      "outputs": [
        {
          "internalType": "bytes32",
          "name": "",
          "type": "bytes32"
        }
      ],
      "stateMutability": "view",
      "type": "function"
    },
    {
      "inputs": [
        {
          "internalType": "bytes32",
          "name": "role",
          "type": "bytes32"
        },
        {
          "internalType": "uint256",
          "name": "index",
          "type": "uint256"
        }
      ],
      "name": "getRoleMember",
      "outputs": [
        {
          "internalType": "address",
          "name": "",
          "type": "address"
        }
      ],
      "stateMutability": "view",
      "type": "function"
    },
    {
      "inputs": [
        {
          "internalType": "bytes32",
          "name": "role",
          "type": "bytes32"
        }
      ],
      "name": "getRoleMemberCount",
      "outputs": [
        {
          "internalType": "uint256",
          "name": "",
          "type": "uint256"
        }
      ],
      "stateMutability": "view",
      "type": "function"
    },
    {
      "inputs": [
        {
          "internalType": "address",
          "name": "user",
          "type": "address"
        }
      ],
      "name": "getUserStaked",
      "outputs": [
        {
          "internalType": "uint256",
          "name": "amount",
          "type": "uint256"
        },
        {
          "internalType": "uint256",
          "name": "claimedBlock",
          "type": "uint256"
        },
        {
          "internalType": "uint256",
          "name": "claimedAmount",
          "type": "uint256"
        },
        {
          "internalType": "uint256",
          "name": "releasedBlock",
          "type": "uint256"
        },
        {
          "internalType": "uint256",
          "name": "releasedAmount",
          "type": "uint256"
        },
        {
          "internalType": "uint256",
          "name": "releasedTOSAmount",
          "type": "uint256"
        },
        {
          "internalType": "bool",
          "name": "released",
          "type": "bool"
        }
      ],
      "stateMutability": "view",
      "type": "function"
    },
    {
      "inputs": [
        {
          "internalType": "bytes32",
          "name": "role",
          "type": "bytes32"
        },
        {
          "internalType": "address",
          "name": "account",
          "type": "address"
        }
      ],
      "name": "grantRole",
      "outputs": [],
      "stateMutability": "nonpayable",
      "type": "function"
    },
    {
      "inputs": [
        {
          "internalType": "bytes32",
          "name": "role",
          "type": "bytes32"
        },
        {
          "internalType": "address",
          "name": "account",
          "type": "address"
        }
      ],
      "name": "hasRole",
      "outputs": [
        {
          "internalType": "bool",
          "name": "",
          "type": "bool"
        }
      ],
      "stateMutability": "view",
      "type": "function"
    },
    {
      "inputs": [],
      "name": "infos",
      "outputs": [
        {
          "internalType": "address",
          "name": "",
          "type": "address"
        },
        {
          "internalType": "address",
          "name": "",
          "type": "address"
        },
        {
          "internalType": "uint256[3]",
          "name": "",
          "type": "uint256[3]"
        },
        {
          "internalType": "uint256",
          "name": "",
          "type": "uint256"
        },
        {
          "internalType": "uint256",
          "name": "",
          "type": "uint256"
        },
        {
          "internalType": "uint256",
          "name": "",
          "type": "uint256"
        }
      ],
      "stateMutability": "view",
      "type": "function"
    },
    {
      "inputs": [],
      "name": "paytoken",
      "outputs": [
        {
          "internalType": "address",
          "name": "",
          "type": "address"
        }
      ],
      "stateMutability": "view",
      "type": "function"
    },
    {
      "inputs": [
        {
          "internalType": "bytes32",
          "name": "role",
          "type": "bytes32"
        },
        {
          "internalType": "address",
          "name": "account",
          "type": "address"
        }
      ],
      "name": "renounceRole",
      "outputs": [],
      "stateMutability": "nonpayable",
      "type": "function"
    },
    {
      "inputs": [],
      "name": "requestNum",
      "outputs": [
        {
          "internalType": "uint256",
          "name": "",
          "type": "uint256"
        }
      ],
      "stateMutability": "view",
      "type": "function"
    },
    {
      "inputs": [
        {
          "internalType": "bytes32",
          "name": "role",
          "type": "bytes32"
        },
        {
          "internalType": "address",
          "name": "account",
          "type": "address"
        }
      ],
      "name": "revokeRole",
      "outputs": [],
      "stateMutability": "nonpayable",
      "type": "function"
    },
    {
      "inputs": [],
      "name": "rewardClaimedTotal",
      "outputs": [
        {
          "internalType": "uint256",
          "name": "",
          "type": "uint256"
        }
      ],
      "stateMutability": "view",
      "type": "function"
    },
    {
      "inputs": [],
      "name": "saleStartBlock",
      "outputs": [
        {
          "internalType": "uint256",
          "name": "",
          "type": "uint256"
        }
      ],
      "stateMutability": "view",
      "type": "function"
    },
    {
      "inputs": [],
      "name": "seigManager",
      "outputs": [
        {
          "internalType": "address",
          "name": "",
          "type": "address"
        }
      ],
      "stateMutability": "view",
      "type": "function"
    },
    {
      "inputs": [],
      "name": "stakeRegistry",
      "outputs": [
        {
          "internalType": "address",
          "name": "",
          "type": "address"
        }
      ],
      "stateMutability": "view",
      "type": "function"
    },
    {
      "inputs": [],
      "name": "startBlock",
      "outputs": [
        {
          "internalType": "uint256",
          "name": "",
          "type": "uint256"
        }
      ],
      "stateMutability": "view",
      "type": "function"
    },
    {
      "inputs": [],
      "name": "swapProxy",
      "outputs": [
        {
          "internalType": "address",
          "name": "",
          "type": "address"
        }
      ],
      "stateMutability": "view",
      "type": "function"
    },
    {
      "inputs": [],
      "name": "swappedAmountTOS",
      "outputs": [
        {
          "internalType": "uint256",
          "name": "",
          "type": "uint256"
        }
      ],
      "stateMutability": "view",
      "type": "function"
    },
    {
      "inputs": [],
      "name": "toTokamak",
      "outputs": [
        {
          "internalType": "uint256",
          "name": "",
          "type": "uint256"
        }
      ],
      "stateMutability": "view",
      "type": "function"
    },
    {
      "inputs": [],
      "name": "toUniswapWTON",
      "outputs": [
        {
          "internalType": "uint256",
          "name": "",
          "type": "uint256"
        }
      ],
      "stateMutability": "view",
      "type": "function"
    },
    {
      "inputs": [],
      "name": "tokamakLayer2",
      "outputs": [
        {
          "internalType": "address",
          "name": "",
          "type": "address"
        }
      ],
      "stateMutability": "view",
      "type": "function"
    },
    {
      "inputs": [],
      "name": "token",
      "outputs": [
        {
          "internalType": "address",
          "name": "",
          "type": "address"
        }
      ],
      "stateMutability": "view",
      "type": "function"
    },
    {
      "inputs": [],
      "name": "ton",
      "outputs": [
        {
          "internalType": "address",
          "name": "",
          "type": "address"
        }
      ],
      "stateMutability": "view",
      "type": "function"
    },
    {
      "inputs": [],
      "name": "totalStakedAmount",
      "outputs": [
        {
          "internalType": "uint256",
          "name": "",
          "type": "uint256"
        }
      ],
      "stateMutability": "view",
      "type": "function"
    },
    {
      "inputs": [],
      "name": "totalStakers",
      "outputs": [
        {
          "internalType": "uint256",
          "name": "",
          "type": "uint256"
        }
      ],
      "stateMutability": "view",
      "type": "function"
    },
    {
      "inputs": [
        {
          "internalType": "address",
          "name": "",
          "type": "address"
        }
      ],
      "name": "userStaked",
      "outputs": [
        {
          "internalType": "uint256",
          "name": "amount",
          "type": "uint256"
        },
        {
          "internalType": "uint256",
          "name": "claimedBlock",
          "type": "uint256"
        },
        {
          "internalType": "uint256",
          "name": "claimedAmount",
          "type": "uint256"
        },
        {
          "internalType": "uint256",
          "name": "releasedBlock",
          "type": "uint256"
        },
        {
          "internalType": "uint256",
          "name": "releasedAmount",
          "type": "uint256"
        },
        {
          "internalType": "uint256",
          "name": "releasedTOSAmount",
          "type": "uint256"
        },
        {
          "internalType": "bool",
          "name": "released",
          "type": "bool"
        }
      ],
      "stateMutability": "view",
      "type": "function"
    },
    {
      "inputs": [],
      "name": "vault",
      "outputs": [
        {
          "internalType": "address",
          "name": "",
          "type": "address"
        }
      ],
      "stateMutability": "view",
      "type": "function"
    },
    {
      "inputs": [],
      "name": "withdrawFlag",
      "outputs": [
        {
          "internalType": "bool",
          "name": "",
          "type": "bool"
        }
      ],
      "stateMutability": "view",
      "type": "function"
    },
    {
      "inputs": [],
      "name": "wton",
      "outputs": [
        {
          "internalType": "address",
          "name": "",
          "type": "address"
        }
      ],
      "stateMutability": "view",
      "type": "function"
    },
    {
      "inputs": [
        {
          "internalType": "address",
          "name": "newOwner",
          "type": "address"
        }
      ],
      "name": "transferOwnership",
      "outputs": [],
      "stateMutability": "nonpayable",
      "type": "function"
    },
    {
      "inputs": [
        {
          "internalType": "address",
          "name": "_registry",
          "type": "address"
        }
      ],
      "name": "setRegistry",
      "outputs": [],
      "stateMutability": "nonpayable",
      "type": "function"
    },
    {
      "inputs": [
        {
          "internalType": "address",
          "name": "_layer2",
          "type": "address"
        }
      ],
      "name": "setTokamakLayer2",
      "outputs": [],
      "stateMutability": "nonpayable",
      "type": "function"
    },
    {
      "inputs": [],
      "name": "getUniswapInfo",
      "outputs": [
        {
          "internalType": "address",
          "name": "uniswapRouter",
          "type": "address"
        },
        {
          "internalType": "address",
          "name": "npm",
          "type": "address"
        },
        {
          "internalType": "address",
          "name": "ext",
          "type": "address"
        },
        {
          "internalType": "uint256",
          "name": "fee",
          "type": "uint256"
        },
        {
          "internalType": "address",
          "name": "uniswapRouterV2",
          "type": "address"
        }
      ],
      "stateMutability": "view",
      "type": "function"
    },
    {
      "inputs": [
        {
          "internalType": "uint256",
          "name": "amount",
          "type": "uint256"
        },
        {
          "internalType": "bool",
          "name": "toWTON",
          "type": "bool"
        }
      ],
      "name": "swapTONtoWTON",
      "outputs": [],
      "stateMutability": "nonpayable",
      "type": "function"
    },
    {
      "inputs": [],
      "name": "checkTokamak",
      "outputs": [],
      "stateMutability": "nonpayable",
      "type": "function"
    },
    {
      "inputs": [
        {
          "internalType": "address",
          "name": "_layer2",
          "type": "address"
        },
        {
          "internalType": "uint256",
          "name": "stakeAmount",
          "type": "uint256"
        }
      ],
      "name": "tokamakStaking",
      "outputs": [],
      "stateMutability": "nonpayable",
      "type": "function"
    },
    {
      "inputs": [
        {
          "internalType": "address",
          "name": "_layer2",
          "type": "address"
        },
        {
          "internalType": "uint256",
          "name": "wtonAmount",
          "type": "uint256"
        }
      ],
      "name": "tokamakRequestUnStaking",
      "outputs": [],
      "stateMutability": "nonpayable",
      "type": "function"
    },
    {
      "inputs": [
        {
          "internalType": "address",
          "name": "_layer2",
          "type": "address"
        }
      ],
      "name": "tokamakRequestUnStakingAll",
      "outputs": [],
      "stateMutability": "nonpayable",
      "type": "function"
    },
    {
      "inputs": [
        {
          "internalType": "address",
          "name": "_layer2",
          "type": "address"
        }
      ],
      "name": "tokamakProcessUnStaking",
      "outputs": [],
      "stateMutability": "nonpayable",
      "type": "function"
    },
    {
      "inputs": [
        {
          "internalType": "uint256",
          "name": "_amountIn",
          "type": "uint256"
        },
        {
          "internalType": "uint256",
          "name": "_amountOutMinimum",
          "type": "uint256"
        },
        {
          "internalType": "uint256",
          "name": "_deadline",
          "type": "uint256"
        },
        {
          "internalType": "uint160",
          "name": "_sqrtPriceLimitX96",
          "type": "uint160"
        },
        {
          "internalType": "uint256",
          "name": "_kind",
          "type": "uint256"
        }
      ],
      "name": "exchangeWTONtoTOS",
      "outputs": [
        {
          "internalType": "uint256",
          "name": "amountOut",
          "type": "uint256"
        }
      ],
      "stateMutability": "nonpayable",
      "type": "function"
    },
    {
      "inputs": [
        {
          "internalType": "uint256",
          "name": "_amountIn",
          "type": "uint256"
        },
        {
          "internalType": "uint256",
          "name": "_amountOutMinimum",
          "type": "uint256"
        },
        {
          "internalType": "uint256",
          "name": "_deadline",
          "type": "uint256"
        },
        {
          "internalType": "uint256",
          "name": "_kind",
          "type": "uint256"
        }
      ],
      "name": "exchangeWTONtoTOSv2",
      "outputs": [
        {
          "internalType": "uint256",
          "name": "amountOut",
          "type": "uint256"
        }
      ],
      "stateMutability": "nonpayable",
      "type": "function"
    }
  ],
  "bytecode": "0x608060405234801561001057600080fd5b506142be806100206000396000f3fe608060405234801561001057600080fd5b50600436106102ab5760003560e01c80638698903811610172578063cc48b947116100d9578063e6a7bc8711610092578063e6a7bc8714610512578063f0cdfa531461051a578063f2fde38b1461052d578063fbfa77cf14610540578063fc0c546a14610548578063fd7fa46014610550578063ff75878814610558576102ab565b8063cc48b947146104c1578063ce681ce6146104c9578063d547741f146104dc578063dac3fc3f146104ef578063e09974b914610502578063e58e27471461050a576102ab565b8063a217fddf1161012b578063a217fddf14610452578063a6e8670e1461045a578063a91ee0dc1461046d578063acc3a93914610480578063b2d4d6a3146104a6578063ca15c873146104ae576102ab565b806386989038146103fa5780638d62d949146104025780639010d07c1461040a57806391d148541461041d57806392ea3b4c146104305780639a88be2f14610438576102ab565b8063567e98f9116102165780636fb7f558116101cf5780636fb7f558146103a957806371def0b3146103b157806372285326146103c4578063730464a9146103cc57806375b238fc146103df5780637df3f40c146103e7576102ab565b8063567e98f91461036157806356dcfd3814610369578063683048351461037c5780636c7ac9d8146103845780636e7cf5341461038c5780636ec4be90146103a1576102ab565b8063248a9ca311610268578063248a9ca3146103035780632995fa0e146103165780632f2ff15d1461031e57806336568abe1461033157806343b0934a1461034457806348cd4cb114610359576102ab565b806305871b78146102b0578063065c4313146102ce578063083c6323146102e35780630ac8e0f3146102eb5780630ea3d9c9146102f357806320027275146102fb575b600080fd5b6102b8610571565b6040516102c59190613912565b60405180910390f35b6102e16102dc366004613508565b610577565b005b6102b8610b0f565b6102b8610b15565b6102b8610b1b565b6102b8610b21565b6102b86103113660046135fd565b610b27565b6102e1610b3c565b6102e161032c366004613615565b610cc1565b6102e161033f366004613615565b610d28565b61034c610d89565b6040516102c591906137b7565b6102b8610d98565b6102b8610d9e565b6102b86103773660046136e9565b610da4565b61034c6116c6565b61034c6116d5565b6103946116e4565b6040516102c59190613907565b61034c6116ed565b61034c6116fc565b6102e16103bf36600461341c565b61170b565b6102b8611911565b6102e16103da36600461341c565b611917565b6102b8611c69565b6102e16103f536600461367d565b611c7b565b6102b8611f98565b61034c611f9e565b61034c610418366004613644565b611fad565b61039461042b366004613615565b611fce565b61034c611fe6565b610440611ff5565b6040516102c596959493929190613836565b6102b861204b565b6102e161046836600461341c565b612050565b6102e161047b36600461341c565b61211c565b61049361048e36600461341c565b6121d4565b6040516102c59796959493929190614142565b6102b8612214565b6102b86104bc3660046135fd565b61221a565b61034c612231565b6102e16104d7366004613508565b612240565b6102e16104ea366004613615565b6124f1565b6104936104fd36600461341c565b61254a565b6102b8612593565b6102b8612599565b6102b861259f565b6102b86105283660046136a1565b6125a5565b6102e161053b36600461341c565b612dbc565b61034c612e4c565b61034c612e5b565b6102b8612e6a565b610560612e70565b6040516102c5959493929190613806565b60145481565b600b54156105a05760405162461bcd60e51b815260040161059790613b89565b60405180910390fd5b6001600b819055546001600160a01b0316806105ce5760405162461bcd60e51b81526004016105979061391b565b826001600160a01b0381166105f55760405162461bcd60e51b81526004016105979061391b565b6006544311156106175760405162461bcd60e51b815260040161059790613a5d565b600083116106375760405162461bcd60e51b815260040161059790613edf565b600360009054906101000a90046001600160a01b03166001600160a01b031663b8c766b86040518163ffffffff1660e01b815260040160206040518083038186803b15801561068557600080fd5b505afa158015610699573d6000803e3d6000fd5b505050506040513d601f19601f820116820180604052508101906106bd91906135e1565b15156001146106de5760405162461bcd60e51b815260040161059790613bb7565b60026018556106eb610b3c565b600f5460408051633761ead760e11b815290516000926001600160a01b031691636ec3d5ae916004808301926020929190829003018186803b15801561073057600080fd5b505afa158015610744573d6000803e3d6000fd5b505050506040513d601f19601f820116820180604052508101906107689190613665565b90508060065403431061078d5760405162461bcd60e51b815260040161059790613a8f565b6011546001600160a01b03166107bd57601180546001600160a01b0319166001600160a01b038716179055610942565b600e546011546040516367265c3b60e11b81526000926001600160a01b039081169263ce4cb876926107f7929091169030906004016137ec565b60206040518083038186803b15801561080f57600080fd5b505afa158015610823573d6000803e3d6000fd5b505050506040513d601f19601f820116820180604052508101906108479190613665565b11806108da5750600f54601154604051632638fdf560e01b81526000926001600160a01b0390811692632638fdf592610888929091169030906004016137ec565b60206040518083038186803b1580156108a057600080fd5b505afa1580156108b4573d6000803e3d6000fd5b505050506040513d601f19601f820116820180604052508101906108d89190613665565b115b15610911576011546001600160a01b0386811691161461090c5760405162461bcd60e51b815260040161059790613ce4565b610942565b6011546001600160a01b0386811691161461094257601180546001600160a01b0319166001600160a01b0387161790555b600c546040516370a0823160e01b815285916001600160a01b0316906370a08231906109729030906004016137b7565b60206040518083038186803b15801561098a57600080fd5b505afa15801561099e573d6000803e3d6000fd5b505050506040513d601f19601f820116820180604052508101906109c29190613665565b10156109e05760405162461bcd60e51b815260040161059790613f53565b6012546109ed9085612f0f565b601255600f54604051600091610a13916001600160a01b039091169088906020016137ec565b60408051601f1981840301815290829052600c54600d5463cae9ca5160e01b84529193506001600160a01b039081169263cae9ca5192610a5b921690899086906004016138d7565b602060405180830381600087803b158015610a7557600080fd5b505af1158015610a89573d6000803e3d6000fd5b505050506040513d601f19601f82011682018060405250810190610aad91906135e1565b610ac95760405162461bcd60e51b815260040161059790613be9565b7fd706f7b85b6f270583513d8371d6264d347f648849b8c09e1630b2cc536dba5d8686604051610afa92919061389b565b60405180910390a150506000600b5550505050565b60065481565b60135481565b60155481565b60045481565b6000908152601b602052604090206002015490565b600c546001600160a01b0316610c3d576000806000806000600160009054906101000a90046001600160a01b03166001600160a01b031663a782ebd56040518163ffffffff1660e01b815260040160a06040518083038186803b158015610ba257600080fd5b505afa158015610bb6573d6000803e3d6000fd5b505050506040513d601f19601f82011682018060405250810190610bda9190613438565b600c80546001600160a01b03199081166001600160a01b0397881617909155600d8054821695871695909517909455600f8054851693861693909317909255600e8054841691851691909117905560108054909216921691909117905550505050505b600c546001600160a01b031615801590610c615750600d546001600160a01b031615155b8015610c775750600e546001600160a01b031615155b8015610c8d5750600f546001600160a01b031615155b8015610ca357506010546001600160a01b031615155b610cbf5760405162461bcd60e51b815260040161059790613ea8565b565b6000828152601b6020526040902060020154610cdf9061042b612f69565b610d1a5760405162461bcd60e51b815260040180806020018281038252602f8152602001806141ba602f913960400191505060405180910390fd5b610d248282612f6d565b5050565b610d30612f69565b6001600160a01b0316816001600160a01b031614610d7f5760405162461bcd60e51b815260040180806020018281038252602f81526020018061425a602f913960400191505060405180910390fd5b610d248282612fd6565b6002546001600160a01b031681565b60055481565b60085481565b6000600b54600014610dc85760405162461bcd60e51b815260040161059790613b89565b6001600b55600654431115610def5760405162461bcd60e51b815260040161059790613a5d565b600360009054906101000a90046001600160a01b03166001600160a01b031663b8c766b86040518163ffffffff1660e01b815260040160206040518083038186803b158015610e3d57600080fd5b505afa158015610e51573d6000803e3d6000fd5b505050506040513d601f19601f82011682018060405250810190610e7591906135e1565b1515600114610e965760405162461bcd60e51b815260040161059790613bb7565b60028210610eb65760405162461bcd60e51b815260040161059790613de4565b610ebe610b3c565b600d546040516370a0823160e01b81526000916001600160a01b0316906370a0823190610eef9030906004016137b7565b60206040518083038186803b158015610f0757600080fd5b505afa158015610f1b573d6000803e3d6000fd5b505050506040513d601f19601f82011682018060405250810190610f3f9190613665565b600c546040516370a0823160e01b81529192506000916001600160a01b03909116906370a0823190610f759030906004016137b7565b60206040518083038186803b158015610f8d57600080fd5b505afa158015610fa1573d6000803e3d6000fd5b505050506040513d601f19601f82011682018060405250810190610fc59190613665565b6011549091506000906001600160a01b0316156110f957600e546011546040516367265c3b60e11b81526001600160a01b039283169263ce4cb876926110129291169030906004016137ec565b60206040518083038186803b15801561102a57600080fd5b505afa15801561103e573d6000803e3d6000fd5b505050506040513d601f19601f820116820180604052508101906110629190613665565b600f54601154604051632638fdf560e01b81529293506110f6926001600160a01b0392831692632638fdf59261109f9291169030906004016137ec565b60206040518083038186803b1580156110b757600080fd5b505afa1580156110cb573d6000803e3d6000fd5b505050506040513d601f19601f820116820180604052508101906110ef9190613665565b8290612f0f565b90505b828215611114576111116110ef84633b9aca0061303f565b90505b888110156111345760405162461bcd60e51b815260040161059790613d1b565b8115611147576111448183612f0f565b90505b60085461115890633b9aca0061303f565b8111801561118857508861118561117e633b9aca0060085461303f90919063ffffffff16565b8390613098565b10155b6111a45760405162461bcd60e51b815260040161059790613c7d565b888410156112a6576010546040516000916111cf916001600160a01b039091169081906020016137ec565b60408051601f19818403018152919052905060006111fb633b9aca006111f58d89613098565b906130da565b600c54600d5460405163cae9ca5160e01b81529293506001600160a01b039182169263cae9ca5192611235921690859087906004016138d7565b602060405180830381600087803b15801561124f57600080fd5b505af1158015611263573d6000803e3d6000fd5b505050506040513d601f19601f8201168201806040525081019061128791906135e1565b6112a35760405162461bcd60e51b815260040161059790613c2a565b50505b50506014805488019055505060015460408051630141158f60e61b8152905160009283926001600160a01b039091169163504563c09160048082019260a092909190829003018186803b1580156112fc57600080fd5b505afa158015611310573d6000803e3d6000fd5b505050506040513d601f19601f8201168201806040525081019061133491906134ac565b9195509093505050506001600160a01b0381166113635760405162461bcd60e51b815260040161059790613e05565b600d5460405163095ea7b360e01b81526001600160a01b039091169063095ea7b3906113959084908b9060040161389b565b602060405180830381600087803b1580156113af57600080fd5b505af11580156113c3573d6000803e3d6000fd5b505050506040513d601f19601f820116820180604052508101906113e791906135e1565b6114035760405162461bcd60e51b815260040161059790613fc8565b8361152c576040805160028082526060820183526000926020830190803683375050600d5482519293506001600160a01b03169183915060009061144357fe5b6001600160a01b03928316602091820292909201015260005482519116908290600190811061146e57fe5b6001600160a01b0392831660209182029290920101526040516338ed173960e01b81526000918416906338ed1739906114b3908c908c90879030908e906004016140d2565b600060405180830381600087803b1580156114cd57600080fd5b505af11580156114e1573d6000803e3d6000fd5b505050506040513d6000823e601f3d908101601f191682016040526115099190810190613533565b90508060018251038151811061151b57fe5b60200260200101519450505061167c565b60408051600380825260808201909252600091602082016060803683375050600d5482519293506001600160a01b03169183915060009061156957fe5b60200260200101906001600160a01b031690816001600160a01b031681525050828160018151811061159757fe5b6001600160a01b0392831660209182029290920101526000548251911690829060029081106115c257fe5b6001600160a01b0392831660209182029290920101526040516338ed173960e01b81526000918416906338ed173990611607908c908c90879030908e906004016140d2565b600060405180830381600087803b15801561162157600080fd5b505af1158015611635573d6000803e3d6000fd5b505050506040513d6000823e601f3d908101601f1916820160405261165d9190810190613533565b90508060018251038151811061166f57fe5b6020026020010151945050505b7f2c221d2e5337ddafd1fda6f2efa725f96a27ee1d9621f932ce46a1990791950f3388856040516116af939291906137cb565b60405180910390a150506000600b55949350505050565b6001546001600160a01b031681565b600f546001600160a01b031681565b601a5460ff1681565b6010546001600160a01b031681565b600e546001600160a01b031681565b600b541561172b5760405162461bcd60e51b815260040161059790613b89565b6001600b819055546001600160a01b0316806117595760405162461bcd60e51b81526004016105979061391b565b60115482906001600160a01b038083169116146117885760405162461bcd60e51b815260040161059790613ce4565b600360009054906101000a90046001600160a01b03166001600160a01b031663b8c766b86040518163ffffffff1660e01b815260040160206040518083038186803b1580156117d657600080fd5b505afa1580156117ea573d6000803e3d6000fd5b505050506040513d601f19601f8201168201806040525081019061180e91906135e1565b151560011461182f5760405162461bcd60e51b815260040161059790613bb7565b6003601855601954611842906001612f0f565b60195561184d610b3c565b600f54604051636b2160b760e01b81526001600160a01b0390911690636b2160b79061187d9086906004016137b7565b602060405180830381600087803b15801561189757600080fd5b505af11580156118ab573d6000803e3d6000fd5b505050506040513d601f19601f820116820180604052508101906118cf91906135e1565b507ff5ce649f20a9ec3170091cbbbb6aff6a879655e0d7f20acae0ab8a66c2fcc8e8836040516118ff91906137b7565b60405180910390a150506000600b5550565b60185481565b600b54156119375760405162461bcd60e51b815260040161059790613b89565b6001600b819055546001600160a01b0316806119655760405162461bcd60e51b81526004016105979061391b565b60115482906001600160a01b038083169116146119945760405162461bcd60e51b815260040161059790613ce4565b600560185414156119b75760405162461bcd60e51b815260040161059790613e2b565b600360009054906101000a90046001600160a01b03166001600160a01b031663b8c766b86040518163ffffffff1660e01b815260040160206040518083038186803b158015611a0557600080fd5b505afa158015611a19573d6000803e3d6000fd5b505050506040513d601f19601f82011682018060405250810190611a3d91906135e1565b1515600114611a5e5760405162461bcd60e51b815260040161059790613bb7565b6005601855601980546000909155611a74610b3c565b600e546011546040516367265c3b60e11b81526001600160a01b039283169263ce4cb87692611aaa9291169030906004016137ec565b60206040518083038186803b158015611ac257600080fd5b505afa158015611ad6573d6000803e3d6000fd5b505050506040513d601f19601f82011682018060405250810190611afa9190613665565b611b0f57601180546001600160a01b03191690555b600f54604051632638fdf560e01b81526001600160a01b0390911690632638fdf590611b4190879030906004016137ec565b60206040518083038186803b158015611b5957600080fd5b505afa158015611b6d573d6000803e3d6000fd5b505050506040513d601f19601f82011682018060405250810190611b919190613665565b601380549091019055600f5460405163fb0713b160e01b81526001600160a01b039091169063fb0713b190611bcf90879085906001906004016138b4565b602060405180830381600087803b158015611be957600080fd5b505af1158015611bfd573d6000803e3d6000fd5b505050506040513d601f19601f82011682018060405250810190611c2191906135e1565b507fd07c1a80bfc96d3611f58fc19165b875cdbc1bdc53d8189e649a74930d9e3d8084826001604051611c56939291906138b4565b60405180910390a150506000600b555050565b60008051602061423a83398151915281565b600b5415611c9b5760405162461bcd60e51b815260040161059790613b89565b6001600b55611ca8610b3c565b8015611e53576010546001600160a01b0316611cd65760405162461bcd60e51b815260040161059790613a28565b600c546040516370a0823160e01b815283916001600160a01b0316906370a0823190611d069030906004016137b7565b60206040518083038186803b158015611d1e57600080fd5b505afa158015611d32573d6000803e3d6000fd5b505050506040513d601f19601f82011682018060405250810190611d569190613665565b1015611d745760405162461bcd60e51b815260040161059790613ad8565b601054604051600091611d97916001600160a01b039091169081906020016137ec565b60408051601f1981840301815290829052600c54600d5463cae9ca5160e01b84529193506001600160a01b039081169263cae9ca5192611ddf921690879086906004016138d7565b602060405180830381600087803b158015611df957600080fd5b505af1158015611e0d573d6000803e3d6000fd5b505050506040513d601f19601f82011682018060405250810190611e3191906135e1565b611e4d5760405162461bcd60e51b815260040161059790613d50565b50611f8f565b600d546040516370a0823160e01b815283916001600160a01b0316906370a0823190611e839030906004016137b7565b60206040518083038186803b158015611e9b57600080fd5b505afa158015611eaf573d6000803e3d6000fd5b505050506040513d601f19601f82011682018060405250810190611ed39190613665565b1015611ef15760405162461bcd60e51b815260040161059790613b30565b600d5460405163f53fe70f60e01b81526001600160a01b039091169063f53fe70f90611f21908590600401613912565b602060405180830381600087803b158015611f3b57600080fd5b505af1158015611f4f573d6000803e3d6000fd5b505050506040513d601f19601f82011682018060405250810190611f7391906135e1565b611f8f5760405162461bcd60e51b815260040161059790613e71565b50506000600b55565b600a5481565b600d546001600160a01b031681565b6000828152601b60205260408120611fc5908361311c565b90505b92915050565b6000828152601b60205260408120611fc59083613128565b6011546001600160a01b031681565b6000806120006133fe565b5050600254600354604080516060810182526004548152600554602082015260065491810191909152600754600854600a546001600160a01b03958616979590941695509193909290565b600081565b61206860008051602061423a83398151915233611fce565b6120845760405162461bcd60e51b815260040161059790613d9f565b6001600160a01b038116158015906120aa57506011546001600160a01b03828116911614155b6120c65760405162461bcd60e51b8152600401610597906139e7565b601180546001600160a01b0319166001600160a01b0383161790556040517fbcf2b04f5517cca822ae60e21bb6e3889b8d8307ea062c5266c63a014386c990906121119083906137b7565b60405180910390a150565b61213460008051602061423a83398151915233611fce565b6121505760405162461bcd60e51b815260040161059790613d9f565b806001600160a01b0381166121775760405162461bcd60e51b81526004016105979061391b565b600180546001600160a01b0319166001600160a01b0384811691909117918290556040517f278c70ced5f3e0e5eeb385b5ff9cb735748ba00a625147e66065ed48fc1562cd926121c89216906137b7565b60405180910390a15050565b6009602052600090815260409020805460018201546002830154600384015460048501546005860154600690960154949593949293919290919060ff1687565b60075481565b6000818152601b60205260408120611fc89061313d565b600c546001600160a01b031681565b600b54156122605760405162461bcd60e51b815260040161059790613b89565b6001600b819055546001600160a01b03168061228e5760405162461bcd60e51b81526004016105979061391b565b60115483906001600160a01b038083169116146122bd5760405162461bcd60e51b815260040161059790613ce4565b600360009054906101000a90046001600160a01b03166001600160a01b031663b8c766b86040518163ffffffff1660e01b815260040160206040518083038186803b15801561230b57600080fd5b505afa15801561231f573d6000803e3d6000fd5b505050506040513d601f19601f8201168201806040525081019061234391906135e1565b15156001146123645760405162461bcd60e51b815260040161059790613bb7565b6003601855601954612377906001612f0f565b601955612382610b3c565b600e546040516367265c3b60e11b81526000916001600160a01b03169063ce4cb876906123b590889030906004016137ec565b60206040518083038186803b1580156123cd57600080fd5b505afa1580156123e1573d6000803e3d6000fd5b505050506040513d601f19601f820116820180604052508101906124059190613665565b9050838110156124275760405162461bcd60e51b8152600401610597906139bb565b600f5460405163da95ebf760e01b81526001600160a01b039091169063da95ebf790612459908890889060040161389b565b602060405180830381600087803b15801561247357600080fd5b505af1158015612487573d6000803e3d6000fd5b505050506040513d601f19601f820116820180604052508101906124ab91906135e1565b507f1ac2a17d8d7ec451060cfbcbb66b61b7fd5fe7f887d9423102809f74bd207e8285856040516124dd92919061389b565b60405180910390a150506000600b55505050565b6000828152601b602052604090206002015461250f9061042b612f69565b610d7f5760405162461bcd60e51b81526004018080602001828103825260308152602001806141e96030913960400191505060405180910390fd5b6001600160a01b03166000908152600960205260409020805460018201546002830154600384015460048501546005860154600690960154949693959294919390929160ff1690565b60195481565b60165481565b60175481565b6000600b546000146125c95760405162461bcd60e51b815260040161059790613b89565b6001600b556006544311156125f05760405162461bcd60e51b815260040161059790613f20565b600360009054906101000a90046001600160a01b03166001600160a01b031663b8c766b86040518163ffffffff1660e01b815260040160206040518083038186803b15801561263e57600080fd5b505afa158015612652573d6000803e3d6000fd5b505050506040513d601f19601f8201168201806040525081019061267691906135e1565b15156001146126975760405162461bcd60e51b815260040161059790613f95565b600282106126b75760405162461bcd60e51b815260040161059790613cb4565b6126bf610b3c565b600d546040516370a0823160e01b81526000916001600160a01b0316906370a08231906126f09030906004016137b7565b60206040518083038186803b15801561270857600080fd5b505afa15801561271c573d6000803e3d6000fd5b505050506040513d601f19601f820116820180604052508101906127409190613665565b600c546040516370a0823160e01b81529192506000916001600160a01b03909116906370a08231906127769030906004016137b7565b60206040518083038186803b15801561278e57600080fd5b505afa1580156127a2573d6000803e3d6000fd5b505050506040513d601f19601f820116820180604052508101906127c69190613665565b6011549091506000906001600160a01b0316156128a357600e546011546040516367265c3b60e11b81526001600160a01b039283169263ce4cb876926128139291169030906004016137ec565b60206040518083038186803b15801561282b57600080fd5b505afa15801561283f573d6000803e3d6000fd5b505050506040513d601f19601f820116820180604052508101906128639190613665565b600f54601154604051632638fdf560e01b81529293506128a0926001600160a01b0392831692632638fdf59261109f9291169030906004016137ec565b90505b8282156128be576128bb6110ef84633b9aca0061303f565b90505b898110156128de5760405162461bcd60e51b815260040161059790613d1b565b81156128f1576128ee8183612f0f565b90505b60085461290290633b9aca0061303f565b8111801561292b57508961292861117e633b9aca0060085461303f90919063ffffffff16565b10155b6129475760405162461bcd60e51b815260040161059790613c7d565b89841015612a4357601054604051600091612972916001600160a01b039091169081906020016137ec565b60408051601f1981840301815291905290506000612998633b9aca006111f58e89613098565b600c54600d5460405163cae9ca5160e01b81529293506001600160a01b039182169263cae9ca51926129d2921690859087906004016138d7565b602060405180830381600087803b1580156129ec57600080fd5b505af1158015612a00573d6000803e3d6000fd5b505050506040513d601f19601f82011682018060405250810190612a2491906135e1565b612a405760405162461bcd60e51b815260040161059790613c2a565b50505b50506014805489019055505060015460408051630141158f60e61b81529051600092839283926001600160a01b039092169163504563c09160048082019260a092909190829003018186803b158015612a9b57600080fd5b505afa158015612aaf573d6000803e3d6000fd5b505050506040513d601f19601f82011682018060405250810190612ad391906134ac565b509295509350909150506001600160a01b038316612b035760405162461bcd60e51b815260040161059790613952565b600d5460405163095ea7b360e01b81526001600160a01b039091169063095ea7b390612b359086908d9060040161389b565b602060405180830381600087803b158015612b4f57600080fd5b505af1158015612b63573d6000803e3d6000fd5b505050506040513d601f19601f82011682018060405250810190612b8791906135e1565b612ba35760405162461bcd60e51b815260040161059790613fc8565b84612c79576040805161010081018252600d546001600160a01b0390811682526000548116602083015262ffffff841682840152306060830152608082018a905260a082018c905260c082018b905288811660e0830152915163414bf38960e01b8152909185169063414bf38990612c1f908490600401614069565b602060405180830381600087803b158015612c3957600080fd5b505af1158015612c4d573d6000803e3d6000fd5b505050506040513d601f19601f82011682018060405250810190612c719190613665565b945050612d70565b8460011415612d70576040805160a08101909152600d54600080549092918291612cb9916001600160a01b03908116918791899183911660c08701613765565b6040516020818303038152906040528152602001306001600160a01b031681526020018981526020018b81526020018a8152509050836001600160a01b031663c04b8d59826040518263ffffffff1660e01b8152600401612d1a9190614011565b602060405180830381600087803b158015612d3457600080fd5b505af1158015612d48573d6000803e3d6000fd5b505050506040513d601f19601f82011682018060405250810190612d6c9190613665565b9450505b7ff0a0d4fd1b810e35ad5dbe81db68646c230891adf08081336320fd21a45d2d1a338a86604051612da3939291906137cb565b60405180910390a150506000600b555095945050505050565b612dd460008051602061423a83398151915233611fce565b612df05760405162461bcd60e51b815260040161059790613d9f565b336001600160a01b0382161415612e195760405162461bcd60e51b815260040161059790613989565b612e3160008051602061423a83398151915282610cc1565b612e4960008051602061423a833981519152336124f1565b50565b6003546001600160a01b031681565b6000546001600160a01b031681565b60125481565b6000806000806000600160009054906101000a90046001600160a01b03166001600160a01b031663504563c06040518163ffffffff1660e01b815260040160a06040518083038186803b158015612ec657600080fd5b505afa158015612eda573d6000803e3d6000fd5b505050506040513d601f19601f82011682018060405250810190612efe91906134ac565b945094509450945094509091929394565b600082820183811015611fc5576040805162461bcd60e51b815260206004820152601b60248201527f536166654d6174683a206164646974696f6e206f766572666c6f770000000000604482015290519081900360640190fd5b3390565b6000828152601b60205260409020612f859082613148565b15610d2457612f92612f69565b6001600160a01b0316816001600160a01b0316837f2f8788117e7eff1d82e926ec794901d17c78024a50270940304540a733656f0d60405160405180910390a45050565b6000828152601b60205260409020612fee908261315d565b15610d2457612ffb612f69565b6001600160a01b0316816001600160a01b0316837ff6391f5c32d9c69d2a47ea670b442974b53935d1edc7fd64eb21e047a839171b60405160405180910390a45050565b60008261304e57506000611fc8565b8282028284828161305b57fe5b0414611fc55760405162461bcd60e51b81526004018080602001828103825260218152602001806142196021913960400191505060405180910390fd5b6000611fc583836040518060400160405280601e81526020017f536166654d6174683a207375627472616374696f6e206f766572666c6f770000815250613172565b6000611fc583836040518060400160405280601a81526020017f536166654d6174683a206469766973696f6e206279207a65726f000000000000815250613209565b6000611fc5838361326e565b6000611fc5836001600160a01b0384166132d2565b6000611fc8826132ea565b6000611fc5836001600160a01b0384166132ee565b6000611fc5836001600160a01b038416613338565b600081848411156132015760405162461bcd60e51b81526004018080602001828103825283818151815260200191508051906020019080838360005b838110156131c65781810151838201526020016131ae565b50505050905090810190601f1680156131f35780820380516001836020036101000a031916815260200191505b509250505060405180910390fd5b505050900390565b600081836132585760405162461bcd60e51b81526020600482018181528351602484015283519092839260449091019190850190808383600083156131c65781810151838201526020016131ae565b50600083858161326457fe5b0495945050505050565b815460009082106132b05760405162461bcd60e51b81526004018080602001828103825260228152602001806141986022913960400191505060405180910390fd5b8260000182815481106132bf57fe5b9060005260206000200154905092915050565b60009081526001919091016020526040902054151590565b5490565b60006132fa83836132d2565b61333057508154600181810184556000848152602080822090930184905584548482528286019093526040902091909155611fc8565b506000611fc8565b600081815260018301602052604081205480156133f4578354600019808301919081019060009087908390811061336b57fe5b906000526020600020015490508087600001848154811061338857fe5b6000918252602080832090910192909255828152600189810190925260409020908401905586548790806133b857fe5b60019003818190600052602060002001600090559055866001016000878152602001908152602001600020600090556001945050505050611fc8565b6000915050611fc8565b60405180606001604052806003906020820280368337509192915050565b60006020828403121561342d578081fd5b8135611fc581614174565b600080600080600060a0868803121561344f578081fd5b855161345a81614174565b602087015190955061346b81614174565b604087015190945061347c81614174565b606087015190935061348d81614174565b608087015190925061349e81614174565b809150509295509295909350565b600080600080600060a086880312156134c3578081fd5b85516134ce81614174565b60208701519095506134df81614174565b60408701519094506134f081614174565b60608701516080880151919450925061349e81614174565b6000806040838503121561351a578182fd5b823561352581614174565b946020939093013593505050565b60006020808385031215613545578182fd5b825167ffffffffffffffff8082111561355c578384fd5b818501915085601f83011261356f578384fd5b81518181111561357b57fe5b8381026040518582820101818110858211171561359457fe5b604052828152858101935084860182860187018a10156135b2578788fd5b8795505b838610156135d45780518552600195909501949386019386016135b6565b5098975050505050505050565b6000602082840312156135f2578081fd5b8151611fc581614189565b60006020828403121561360e578081fd5b5035919050565b60008060408385031215613627578182fd5b82359150602083013561363981614174565b809150509250929050565b60008060408385031215613656578182fd5b50508035926020909101359150565b600060208284031215613676578081fd5b5051919050565b6000806040838503121561368f578182fd5b82359150602083013561363981614189565b600080600080600060a086880312156136b8578081fd5b85359450602086013593506040860135925060608601356136d881614174565b949793965091946080013592915050565b600080600080608085870312156136fe578182fd5b5050823594602084013594506040840135936060013592509050565b60008151808452815b8181101561373f57602081850181015186830182015201613723565b818111156137505782602083870101525b50601f01601f19169290920160200192915050565b6bffffffffffffffffffffffff19606096871b811682526001600160e81b031960e896871b8116601484015294871b811660178301529290941b909216602b840152921b909116602e82015260420190565b6001600160a01b0391909116815260200190565b6001600160a01b039390931683526020830191909152604082015260600190565b6001600160a01b0392831681529116602082015260400190565b6001600160a01b039586168152938516602085015291841660408401526060830152909116608082015260a00190565b6001600160a01b038781168252861660208083019190915261010082019060408301908760005b600381101561387a5781518452928201929082019060010161385d565b505050508460a08301528360c08301528260e0830152979650505050505050565b6001600160a01b03929092168252602082015260400190565b6001600160a01b0393909316835260208301919091521515604082015260600190565b600060018060a01b0385168252836020830152606060408301526138fe606083018461371a565b95945050505050565b901515815260200190565b90815260200190565b6020808252601b908201527f546f6b616d616b5374616b65723a207a65726f20616464726573730000000000604082015260600190565b6020808252601a908201527f546f6b616d616b5374616b65723a756e6973776170207a65726f000000000000604082015260600190565b6020808252601890820152772a37b5b0b6b0b5a9ba30b5b2b91d39b0b6b29037bbb732b960411b604082015260600190565b602080825260129082015271546f6b616d616b5374616b65723a6c61636b60701b604082015260600190565b60208082526021908201527f546f6b616d616b5374616b65723a746f6b616d616b4c6179657232207a65726f6040820152600160fd1b606082015260800190565b6020808252818101527f546f6b616d616b5374616b65723a207377617050726f7879206973207a65726f604082015260600190565b602080825260189082015277151bdad85b585ad4dd185ad95c8e9c195c9a5bd908195b9960421b604082015260600190565b60208082526029908201527f546f6b616d616b5374616b65723a706572696f64287769746864726177616c44604082015268195b185e4a48195b9960ba1b606082015260800190565b60208082526038908201527f546f6b616d616b5374616b65723a2073776170544f4e746f57544f4e20746f6e6040820152770818985b185b98d9481a5cc81a5b9cdd59999a58da595b9d60421b606082015260800190565b60208082526039908201527f546f6b616d616b5374616b65723a2073776170544f4e746f57544f4e2077746f6040820152781b8818985b185b98d9481a5cc81a5b9cdd59999a58da595b9d603a1b606082015260800190565b602080825260149082015273151bdad85b585ad4dd185ad95c8e9313d0d2d15160621b604082015260600190565b602080825260189082015277151bdad85b585ad4dd185ad95c8e9b9bdd0818db1bdcd95960421b604082015260600190565b60208082526021908201527f546f6b616d616b5374616b65723a617070726f7665416e6443616c6c206661696040820152601b60fa1b606082015260800190565b60208082526033908201527f546f6b616d616b5374616b65723a65786368616e676557544f4e746f544f5320604082015272185c1c1c9bdd99505b9910d85b1b0819985a5b606a1b606082015260800190565b6020808252601a908201527f546f6b616d616b5374616b65723a696e73756666696369656e74000000000000604082015260600190565b602080825260169082015275151bdad85b585ad4dd185ad95c8e881b9bc81ada5b9960521b604082015260600190565b6020808252601d908201527f546f6b616d616b5374616b65723a646966666572656e74206c61796572000000604082015260600190565b6020808252818101527f546f6b616d616b5374616b65723a2077746f6e20696e73756666696369656e74604082015260600190565b6020808252602f908201527f546f6b616d616b5374616b65723a73776170544f4e746f57544f4e206170707260408201526e1bdd99505b9910d85b1b0819985a5b608a1b606082015260800190565b60208082526025908201527f546f6b616d616b5374616b65723a2043616c6c6572206973206e6f7420616e2060408201526430b236b4b760d91b606082015260800190565b6020808252600790820152661b9bc81ada5b9960ca1b604082015260600190565b6020808252600c908201526b756e6973776170207a65726f60a01b604082015260600190565b60208082526026908201527f546f6b616d616b5374616b65723a416c72656164792050726f63657373556e5360408201526574616b696e6760d01b606082015260800190565b6020808252601c908201527f546f6b616d616b5374616b65723a73776170546f544f4e206661696c00000000604082015260600190565b6020808252601a908201527f546f6b616d616b5374616b65723a746f6b616d616b207a65726f000000000000604082015260600190565b60208082526021908201527f546f6b616d616b5374616b65723a7374616b65416d6f756e74206973207a65726040820152606f60f81b606082015260800190565b602080825260199082015278151bdad85b585ad4dd185ad95c8e881c195c9a5bd908195b99603a1b604082015260600190565b60208082526022908201527f546f6b616d616b5374616b65723a20746f6e2062616c616e6365206973207a65604082015261726f60f01b606082015260800190565b602080825260199082015278151bdad85b585ad4dd185ad95c8e881b9bdd0818db1bdcd959603a1b604082015260600190565b60208082526029908201527f546f6b616d616b5374616b65723a63616e277420617070726f766520756e69736040820152683bb0b82937baba32b960b91b606082015260800190565b600060208252825160a0602084015261402d60c084018261371a565b905060018060a01b0360208501511660408401526040840151606084015260608401516080840152608084015160a08401528091505092915050565b81516001600160a01b03908116825260208084015182169083015260408084015162ffffff16908301526060808401518216908301526080808401519083015260a0838101519083015260c0808401519083015260e09283015116918101919091526101000190565b600060a082018783526020878185015260a0604085015281875180845260c0860191508289019350845b818110156141215784516001600160a01b0316835293830193918301916001016140fc565b50506001600160a01b03969096166060850152505050608001529392505050565b968752602087019590955260408601939093526060850191909152608084015260a0830152151560c082015260e00190565b6001600160a01b0381168114612e4957600080fd5b8015158114612e4957600080fdfe456e756d657261626c655365743a20696e646578206f7574206f6620626f756e6473416363657373436f6e74726f6c3a2073656e646572206d75737420626520616e2061646d696e20746f206772616e74416363657373436f6e74726f6c3a2073656e646572206d75737420626520616e2061646d696e20746f207265766f6b65536166654d6174683a206d756c7469706c69636174696f6e206f766572666c6f77df8b4c520ffe197c5343c6f5aec59570151ef9a492f2c624fd45ddde6135ec42416363657373436f6e74726f6c3a2063616e206f6e6c792072656e6f756e636520726f6c657320666f722073656c66a2646970667358221220601bd1bddfff8fda57a72f37283be2c1cfdd00fc2c4d64bfd3cab5f73ca75e6264736f6c63430007060033",
  "immutableReferences": {},
  "source": "// SPDX-License-Identifier: MIT\npragma solidity ^0.7.6;\npragma abicoder v2;\n\nimport \"../interfaces/ITokamakStaker.sol\";\nimport {ITON} from \"../interfaces/ITON.sol\";\nimport {IIStake1Vault} from \"../interfaces/IIStake1Vault.sol\";\nimport {IIDepositManager} from \"../interfaces/IIDepositManager.sol\";\nimport {IISeigManager} from \"../interfaces/IISeigManager.sol\";\nimport {SafeMath} from \"../utils/math/SafeMath.sol\";\nimport \"@openzeppelin/contracts/access/AccessControl.sol\";\nimport \"../stake/StakeTONStorage.sol\";\nimport \"@uniswap/v3-periphery/contracts/interfaces/ISwapRouter.sol\";\nimport \"@uniswap/v2-periphery/contracts/interfaces/IUniswapV2Router01.sol\";\n\ninterface IERC20BASE {\n    function totalSupply() external view returns (uint256);\n\n    function balanceOf(address owner) external view returns (uint256);\n\n    function approve(address spender, uint256 value) external returns (bool);\n\n    function transfer(address to, uint256 value) external returns (bool);\n\n    function transferFrom(\n        address from,\n        address to,\n        uint256 value\n    ) external returns (bool);\n}\n\ninterface IIWTON {\n    function swapToTON(uint256 wtonAmount) external returns (bool);\n}\n\ninterface ITokamakRegistry {\n    function getTokamak()\n        external\n        view\n        returns (\n            address,\n            address,\n            address,\n            address,\n            address\n        );\n\n    function getUniswap()\n        external\n        view\n        returns (\n            address,\n            address,\n            address,\n            uint256,\n            address\n        );\n}\n\n/// @title The connector that integrates tokamak\ncontract TokamakStaker is StakeTONStorage, AccessControl, ITokamakStaker {\n    using SafeMath for uint256;\n    bytes32 public constant ADMIN_ROLE = keccak256(\"ADMIN\");\n\n    modifier nonZero(address _addr) {\n        require(_addr != address(0), \"TokamakStaker: zero address\");\n        _;\n    }\n\n    modifier sameTokamakLayer(address _addr) {\n        require(tokamakLayer2 == _addr, \"TokamakStaker:different layer\");\n        _;\n    }\n\n    modifier onlyOwner() {\n        require(\n            hasRole(ADMIN_ROLE, msg.sender),\n            \"TokamakStaker: Caller is not an admin\"\n        );\n        _;\n    }\n\n    modifier lock() {\n        require(_lock == 0, \"TokamakStaker:LOCKED\");\n        _lock = 1;\n        _;\n        _lock = 0;\n    }\n\n    /// @dev event on set the registry address\n    /// @param registry the registry address\n    event SetRegistry(address registry);\n\n    /// @dev event on set the tokamak Layer2 address\n    /// @param layer2 the tokamak Layer2 address\n    event SetTokamakLayer2(address layer2);\n\n    /// @dev event on staking the staked TON in layer2 in tokamak\n    /// @param layer2 the layer2 address in tokamak\n    /// @param amount the amount that stake to layer2\n    event tokamakStaked(address layer2, uint256 amount);\n\n    /// @dev event on request unstaking the wtonAmount in layer2 in tokamak\n    /// @param layer2 the layer2 address in tokamak\n    /// @param amount the amount requested to unstaking\n    event tokamakRequestedUnStaking(address layer2, uint256 amount);\n\n    /// @dev event on process unstaking in layer2 in tokamak\n    /// @param layer2 the layer2 address in tokamak\n    /// @param rn the number of requested unstaking\n    /// @param receiveTON if is true ,TON , else is WTON\n    event tokamakProcessedUnStaking(\n        address layer2,\n        uint256 rn,\n        bool receiveTON\n    );\n\n    /// @dev event on request unstaking the amount of all in layer2 in tokamak\n    /// @param layer2 the layer2 address in tokamak\n    event tokamakRequestedUnStakingAll(address layer2);\n\n    /// @dev exchange WTON to TOS using uniswap v3\n    /// @param caller the sender\n    /// @param amountIn the input amount\n    /// @return amountOut the amount of exchanged out token\n    event exchangedWTONtoTOS(\n        address caller,\n        uint256 amountIn,\n        uint256 amountOut\n    );\n\n    /// @dev exchange WTON to TOS using uniswap v2\n    /// @param caller the sender\n    /// @param amountIn the input amount\n    /// @return amountOut the amount of exchanged out token\n    event exchangedWTONtoTOS2(\n        address caller,\n        uint256 amountIn,\n        uint256 amountOut\n    );\n\n    /// @dev transfer Ownership\n    /// @param newOwner new owner address\n    function transferOwnership(address newOwner) external onlyOwner {\n        require(msg.sender != newOwner, \"TokamakStaker:same owner\");\n        grantRole(ADMIN_ROLE, newOwner);\n        revokeRole(ADMIN_ROLE, msg.sender);\n    }\n\n    /// @dev set registry address\n    /// @param _registry new registry address\n    function setRegistry(address _registry)\n        external\n        onlyOwner\n        nonZero(_registry)\n    {\n        stakeRegistry = _registry;\n\n        emit SetRegistry(stakeRegistry);\n    }\n\n    /// @dev set the tokamak Layer2 address\n    /// @param _layer2 new the tokamak Layer2 address\n    function setTokamakLayer2(address _layer2) external override onlyOwner {\n        require(\n            _layer2 != address(0) && tokamakLayer2 != _layer2,\n            \"TokamakStaker:tokamakLayer2 zero \"\n        );\n        tokamakLayer2 = _layer2;\n\n        emit SetTokamakLayer2(_layer2);\n    }\n\n    /// @dev get the addresses that used in uniswap interfaces\n    /// @return uniswapRouter the address of uniswapRouter\n    /// @return npm the address of positionManagerAddress\n    /// @return ext the address of ext\n    /// @return fee the amount of fee\n    function getUniswapInfo()\n        external\n        view\n        override\n        returns (\n            address uniswapRouter,\n            address npm,\n            address ext,\n            uint256 fee,\n            address uniswapRouterV2\n        )\n    {\n        return ITokamakRegistry(stakeRegistry).getUniswap();\n    }\n\n    /// @dev Change the TON holded in contract have to WTON, or change WTON to TON.\n    /// @param amount the amount to be changed\n    /// @param toWTON if it's true, TON->WTON , else WTON->TON\n    function swapTONtoWTON(uint256 amount, bool toWTON) public override lock {\n        checkTokamak();\n\n        if (toWTON) {\n            require(\n                swapProxy != address(0),\n                \"TokamakStaker: swapProxy is zero\"\n            );\n            require(\n                IERC20BASE(ton).balanceOf(address(this)) >= amount,\n                \"TokamakStaker: swapTONtoWTON ton balance is insufficient\"\n            );\n            bytes memory data = abi.encode(swapProxy, swapProxy);\n            require(\n                ITON(ton).approveAndCall(wton, amount, data),\n                \"TokamakStaker:swapTONtoWTON approveAndCall fail\"\n            );\n        } else {\n            require(\n                IERC20BASE(wton).balanceOf(address(this)) >= amount,\n                \"TokamakStaker: swapTONtoWTON wton balance is insufficient\"\n            );\n            require(\n                IIWTON(wton).swapToTON(amount),\n                \"TokamakStaker:swapToTON fail\"\n            );\n        }\n    }\n\n    /// @dev If the tokamak addresses is not set, set the addresses.\n    function checkTokamak() public {\n        if (ton == address(0)) {\n            (\n                address _ton,\n                address _wton,\n                address _depositManager,\n                address _seigManager,\n                address _swapProxy\n            ) = ITokamakRegistry(stakeRegistry).getTokamak();\n\n            ton = _ton;\n            wton = _wton;\n            depositManager = _depositManager;\n            seigManager = _seigManager;\n            swapProxy = _swapProxy;\n        }\n        require(\n            ton != address(0) &&\n                wton != address(0) &&\n                seigManager != address(0) &&\n                depositManager != address(0) &&\n                swapProxy != address(0),\n            \"TokamakStaker:tokamak zero\"\n        );\n    }\n\n    /// @dev  staking the staked TON in layer2 in tokamak\n    /// @param _layer2 the layer2 address in tokamak\n    /// @param stakeAmount the amount that stake to layer2\n    function tokamakStaking(address _layer2, uint256 stakeAmount)\n        external\n        override\n        lock\n        nonZero(stakeRegistry)\n        nonZero(_layer2)\n    {\n        require(block.number <= endBlock, \"TokamakStaker:period end\");\n        require(stakeAmount > 0, \"TokamakStaker:stakeAmount is zero\");\n        require(\n            IIStake1Vault(vault).saleClosed() == true,\n            \"TokamakStaker:not closed\"\n        );\n        defiStatus = uint256(LibTokenStake1.DefiStatus.DEPOSITED);\n\n        checkTokamak();\n\n        uint256 globalWithdrawalDelay =\n            IIDepositManager(depositManager).globalWithdrawalDelay();\n        require(\n            block.number < endBlock - globalWithdrawalDelay,\n            \"TokamakStaker:period(withdrawalDelay) end\"\n        );\n\n        if (tokamakLayer2 == address(0)) tokamakLayer2 = _layer2;\n        else {\n            if (\n                IISeigManager(seigManager).stakeOf(\n                    tokamakLayer2,\n                    address(this)\n                ) >\n                0 ||\n                IIDepositManager(depositManager).pendingUnstaked(\n                    tokamakLayer2,\n                    address(this)\n                ) >\n                0\n            ) {\n                require(\n                    tokamakLayer2 == _layer2,\n                    \"TokamakStaker:different layer\"\n                );\n            } else {\n                if (tokamakLayer2 != _layer2) tokamakLayer2 = _layer2;\n            }\n        }\n\n        require(\n            IERC20BASE(ton).balanceOf(address(this)) >= stakeAmount,\n            \"TokamakStaker: ton balance is zero\"\n        );\n        toTokamak = toTokamak.add(stakeAmount);\n        bytes memory data = abi.encode(depositManager, _layer2);\n        require(\n            ITON(ton).approveAndCall(wton, stakeAmount, data),\n            \"TokamakStaker:approveAndCall fail\"\n        );\n\n        emit tokamakStaked(_layer2, stakeAmount);\n    }\n\n    /// @dev  request unstaking the wtonAmount in layer2 in tokamak\n    /// @param _layer2 the layer2 address in tokamak\n    /// @param wtonAmount the amount requested to unstaking\n    function tokamakRequestUnStaking(address _layer2, uint256 wtonAmount)\n        public\n        override\n        lock\n        nonZero(stakeRegistry)\n        sameTokamakLayer(_layer2)\n    {\n        require(\n            IIStake1Vault(vault).saleClosed() == true,\n            \"TokamakStaker:not closed\"\n        );\n        defiStatus = uint256(LibTokenStake1.DefiStatus.REQUESTWITHDRAW);\n        requestNum = requestNum.add(1);\n        checkTokamak();\n\n        uint256 stakeOf =\n            IISeigManager(seigManager).stakeOf(_layer2, address(this));\n\n        require(stakeOf >= wtonAmount, \"TokamakStaker:lack\");\n\n        IIDepositManager(depositManager).requestWithdrawal(_layer2, wtonAmount);\n\n        emit tokamakRequestedUnStaking(_layer2, wtonAmount);\n    }\n\n    /// @dev  request unstaking the amount of all in layer2 in tokamak\n    /// @param _layer2 the layer2 address in tokamak\n    function tokamakRequestUnStakingAll(address _layer2)\n        public\n        override\n        lock\n        nonZero(stakeRegistry)\n        sameTokamakLayer(_layer2)\n    {\n        require(\n            IIStake1Vault(vault).saleClosed() == true,\n            \"TokamakStaker:not closed\"\n        );\n        defiStatus = uint256(LibTokenStake1.DefiStatus.REQUESTWITHDRAW);\n        requestNum = requestNum.add(1);\n        checkTokamak();\n\n        IIDepositManager(depositManager).requestWithdrawalAll(_layer2);\n\n        emit tokamakRequestedUnStakingAll(_layer2);\n    }\n\n    /// @dev process unstaking in layer2 in tokamak\n    /// @param _layer2 the layer2 address in tokamak\n    function tokamakProcessUnStaking(address _layer2)\n        public\n        override\n        lock\n        nonZero(stakeRegistry)\n        sameTokamakLayer(_layer2)\n    {\n        require(\n            defiStatus != uint256(LibTokenStake1.DefiStatus.WITHDRAW),\n            \"TokamakStaker:Already ProcessUnStaking\"\n        );\n        require(\n            IIStake1Vault(vault).saleClosed() == true,\n            \"TokamakStaker:not closed\"\n        );\n        defiStatus = uint256(LibTokenStake1.DefiStatus.WITHDRAW);\n        uint256 rn = requestNum;\n        requestNum = 0;\n        checkTokamak();\n\n        if (\n            IISeigManager(seigManager).stakeOf(tokamakLayer2, address(this)) ==\n            0\n        ) tokamakLayer2 = address(0);\n\n        fromTokamak += IIDepositManager(depositManager).pendingUnstaked(\n            _layer2,\n            address(this)\n        );\n\n        // receiveTON = false . to WTON\n        IIDepositManager(depositManager).processRequests(_layer2, rn, true);\n\n        emit tokamakProcessedUnStaking(_layer2, rn, true);\n    }\n\n    /// @dev exchange holded WTON to TOS using uniswap\n    /// @notice\n    /// @param _amountIn the input amount\n    /// @param _amountOutMinimum the minimun output amount\n    /// @param _deadline deadline\n    /// @param _sqrtPriceLimitX96 sqrtPriceLimitX96\n    /// @param _kind the function type, if 0, use exactInputSingle function, else if, use exactInput function\n    /// @return amountOut the amount of exchanged out token\n    function exchangeWTONtoTOS(\n        uint256 _amountIn,\n        uint256 _amountOutMinimum,\n        uint256 _deadline,\n        uint160 _sqrtPriceLimitX96,\n        uint256 _kind\n    ) external override lock returns (uint256 amountOut) {\n        require(block.number <= endBlock, \"TokamakStaker: period end\");\n        require(\n            IIStake1Vault(vault).saleClosed() == true,\n            \"TokamakStaker: not closed\"\n        );\n        require(_kind < 2, \"TokamakStaker: no kind\");\n\n        checkTokamak();\n\n        {\n            uint256 _amountWTON = IERC20BASE(wton).balanceOf(address(this));\n            uint256 _amountTON = IERC20BASE(ton).balanceOf(address(this));\n            uint256 stakeOf = 0;\n            if (tokamakLayer2 != address(0)) {\n                stakeOf = IISeigManager(seigManager).stakeOf(\n                    tokamakLayer2,\n                    address(this)\n                );\n                stakeOf = stakeOf.add(\n                    IIDepositManager(depositManager).pendingUnstaked(\n                        tokamakLayer2,\n                        address(this)\n                    )\n                );\n            }\n            uint256 holdAmount = _amountWTON;\n            if (_amountTON > 0)\n                holdAmount = holdAmount.add(_amountTON.mul(10**9));\n            require(\n                holdAmount >= _amountIn,\n                \"TokamakStaker: wton insufficient\"\n            );\n\n            if (stakeOf > 0) holdAmount = holdAmount.add(stakeOf);\n\n            require(\n                holdAmount > totalStakedAmount.mul(10**9) &&\n                    holdAmount.sub(totalStakedAmount.mul(10**9)) >= _amountIn,\n                \"TokamakStaker:insufficient\"\n            );\n            if (_amountWTON < _amountIn) {\n                bytes memory data = abi.encode(swapProxy, swapProxy);\n                uint256 swapTON = _amountIn.sub(_amountWTON).div(10**9);\n                require(\n                    ITON(ton).approveAndCall(wton, swapTON, data),\n                    \"TokamakStaker:exchangeWTONtoTOS approveAndCall fail\"\n                );\n            }\n        }\n\n        toUniswapWTON += _amountIn;\n        (address uniswapRouter, , address wethAddress, uint256 _fee, ) =\n            ITokamakRegistry(stakeRegistry).getUniswap();\n        require(uniswapRouter != address(0), \"TokamakStaker:uniswap zero\");\n        require(\n            IERC20BASE(wton).approve(uniswapRouter, _amountIn),\n            \"TokamakStaker:can't approve uniswapRouter\"\n        );\n\n        if (_kind == 0) {\n            ISwapRouter.ExactInputSingleParams memory params =\n                ISwapRouter.ExactInputSingleParams({\n                    tokenIn: wton,\n                    tokenOut: token,\n                    fee: uint24(_fee),\n                    recipient: address(this),\n                    deadline: _deadline,\n                    amountIn: _amountIn,\n                    amountOutMinimum: _amountOutMinimum,\n                    sqrtPriceLimitX96: _sqrtPriceLimitX96\n                });\n            amountOut = ISwapRouter(uniswapRouter).exactInputSingle(params);\n        } else if (_kind == 1) {\n            ISwapRouter.ExactInputParams memory params =\n                ISwapRouter.ExactInputParams({\n                    path: abi.encodePacked(\n                        wton,\n                        uint24(_fee),\n                        wethAddress,\n                        uint24(_fee),\n                        token\n                    ),\n                    recipient: address(this),\n                    amountIn: _amountIn,\n                    amountOutMinimum: _amountOutMinimum,\n                    deadline: _deadline\n                });\n            amountOut = ISwapRouter(uniswapRouter).exactInput(params);\n        }\n\n        emit exchangedWTONtoTOS(msg.sender, _amountIn, amountOut);\n    }\n\n    /// @dev exchange holded WTON to TOS using uniswap-v2\n    /// @param _amountIn the input amount\n    /// @param _amountOutMinimum the minimun output amount\n    /// @param _deadline deadline\n    /// @param _kind the function type, if 0, use exactInputSingle function, else if, use exactInput function\n    function exchangeWTONtoTOSv2(\n        uint256 _amountIn,\n        uint256 _amountOutMinimum,\n        uint256 _deadline,\n        uint256 _kind\n    ) external override lock returns (uint256 amountOut) {\n        require(block.number <= endBlock, \"TokamakStaker:period end\");\n        require(\n            IIStake1Vault(vault).saleClosed() == true,\n            \"TokamakStaker:not closed\"\n        );\n        require(_kind < 2, \"no kind\");\n        checkTokamak();\n\n        {\n            uint256 _amountWTON = IERC20BASE(wton).balanceOf(address(this));\n            uint256 _amountTON = IERC20BASE(ton).balanceOf(address(this));\n            uint256 stakeOf = 0;\n            if (tokamakLayer2 != address(0)) {\n                stakeOf = IISeigManager(seigManager).stakeOf(\n                    tokamakLayer2,\n                    address(this)\n                );\n                stakeOf = stakeOf.add(\n                    IIDepositManager(depositManager).pendingUnstaked(\n                        tokamakLayer2,\n                        address(this)\n                    )\n                );\n            }\n            uint256 holdAmount = _amountWTON;\n            if (_amountTON > 0)\n                holdAmount = holdAmount.add(_amountTON.mul(10**9));\n            require(\n                holdAmount >= _amountIn,\n                \"TokamakStaker: wton insufficient\"\n            );\n\n            if (stakeOf > 0) holdAmount = holdAmount.add(stakeOf);\n            require(\n                holdAmount > totalStakedAmount.mul(10**9) &&\n                    holdAmount.sub(totalStakedAmount.mul(10**9)) >= _amountIn,\n                \"TokamakStaker:insufficient\"\n            );\n            if (_amountWTON < _amountIn) {\n                bytes memory data = abi.encode(swapProxy, swapProxy);\n                uint256 swapTON = _amountIn.sub(_amountWTON).div(10**9);\n                require(\n                    ITON(ton).approveAndCall(wton, swapTON, data),\n                    \"TokamakStaker:exchangeWTONtoTOS approveAndCall fail\"\n                );\n            }\n        }\n\n        toUniswapWTON += _amountIn;\n        (, , address wethAddress, , address uniswapRouterV2) =\n            ITokamakRegistry(stakeRegistry).getUniswap();\n\n        require(uniswapRouterV2 != address(0), \"uniswap zero\");\n        require(\n            IERC20BASE(wton).approve(uniswapRouterV2, _amountIn),\n            \"TokamakStaker:can't approve uniswapRouter\"\n        );\n\n        if (_kind == 0) {\n            address[] memory path = new address[](2);\n            path[0] = wton;\n            path[1] = token;\n            uint256[] memory amounts =\n                IUniswapV2Router01(uniswapRouterV2).swapExactTokensForTokens(\n                    _amountIn,\n                    _amountOutMinimum,\n                    path,\n                    address(this),\n                    _deadline\n                );\n            amountOut = amounts[amounts.length - 1];\n        } else {\n            address[] memory path = new address[](3);\n            path[0] = wton;\n            path[1] = wethAddress;\n            path[2] = token;\n            uint256[] memory amounts =\n                IUniswapV2Router01(uniswapRouterV2).swapExactTokensForTokens(\n                    _amountIn,\n                    _amountOutMinimum,\n                    path,\n                    address(this),\n                    _deadline\n                );\n            amountOut = amounts[amounts.length - 1];\n        }\n\n        emit exchangedWTONtoTOS2(msg.sender, _amountIn, amountOut);\n    }\n\n    /*\n    function exactInputSingle(uint256 _amountIn, uint256 _amountOutMinimum, uint256 _deadline, uint256 _sqrtPriceLimitX96)\n        external onlyOwner lock returns (uint256 amountOut)\n    {\n        checkTokamak();\n\n        (address uniswapRouter, , address wethAddress, uint256 _fee, ) =\n            ITokamakRegistry(stakeRegistry).getUniswap();\n\n        // address uniswapRouter = 0xE592427A0AEce92De3Edee1F18E0157C05861564;\n        // address wethAddress = 0xc778417E063141139Fce010982780140Aa0cD5Ab;\n        // uint256 _fee = 500;\n\n        require(\n            IERC20BASE(wton).approve(uniswapRouter, _amountIn),\n            \"TokamakStaker:can't approve uniswapRouter\"\n        );\n\n        ISwapRouter.ExactInputSingleParams memory params = ISwapRouter.ExactInputSingleParams(\n            wton,\n            token,\n            uint24(_fee),\n            address(this),\n            _deadline,\n            _amountIn,\n            _amountOutMinimum,\n            uint160(_sqrtPriceLimitX96)\n        );\n        amountOut = ISwapRouter(uniswapRouter).exactInputSingle(params);\n    }\n\n    function exactInput(uint256 _amountIn, uint256 _amountOutMinimum, uint256 _deadline)\n        external onlyOwner lock returns (uint256 amountOut)\n    {\n        checkTokamak();\n\n        (address uniswapRouter, , address wethAddress, uint256 _fee, ) =\n            ITokamakRegistry(stakeRegistry).getUniswap();\n\n        require(\n            IERC20BASE(wton).approve(uniswapRouter, _amountIn),\n            \"TokamakStaker:can't approve uniswapRouter\"\n        );\n\n        ISwapRouter.ExactInputParams memory params = ISwapRouter.ExactInputParams(\n            abi.encodePacked(\n                        wton,\n                        uint24(_fee),\n                        wethAddress,\n                        uint24(_fee),\n                        token\n                    ),\n            address(this),\n            _deadline,\n            _amountIn,\n            _amountOutMinimum\n        );\n        amountOut = ISwapRouter(uniswapRouter).exactInput(params);\n    }\n    */\n}\n",
  "sourcePath": "/Users/zena/ico2.0/ico20-contracts/contracts/connection/TokamakStaker.sol",
  "compiler": {
    "name": "solc",
    "version": "0.7.6+commit.7338295f.Emscripten.clang"
  },
  "schemaVersion": "3.3.4",
  "updatedAt": "2021-06-21T02:58:01.176Z",
  "devdoc": {
    "events": {
      "SetRegistry(address)": {
        "details": "event on set the registry address",
        "params": {
          "registry": "the registry address"
        }
      },
      "SetTokamakLayer2(address)": {
        "details": "event on set the tokamak Layer2 address",
        "params": {
          "layer2": "the tokamak Layer2 address"
        }
      },
      "exchangedWTONtoTOS(address,uint256,uint256)": {
        "details": "exchange WTON to TOS using uniswap v3",
        "params": {
          "amountIn": "the input amount",
          "caller": "the sender"
        }
      },
      "exchangedWTONtoTOS2(address,uint256,uint256)": {
        "details": "exchange WTON to TOS using uniswap v2",
        "params": {
          "amountIn": "the input amount",
          "caller": "the sender"
        }
      },
      "tokamakProcessedUnStaking(address,uint256,bool)": {
        "details": "event on process unstaking in layer2 in tokamak",
        "params": {
          "layer2": "the layer2 address in tokamak",
          "receiveTON": "if is true ,TON , else is WTON",
          "rn": "the number of requested unstaking"
        }
      },
      "tokamakRequestedUnStaking(address,uint256)": {
        "details": "event on request unstaking the wtonAmount in layer2 in tokamak",
        "params": {
          "amount": "the amount requested to unstaking",
          "layer2": "the layer2 address in tokamak"
        }
      },
      "tokamakRequestedUnStakingAll(address)": {
        "details": "event on request unstaking the amount of all in layer2 in tokamak",
        "params": {
          "layer2": "the layer2 address in tokamak"
        }
      },
      "tokamakStaked(address,uint256)": {
        "details": "event on staking the staked TON in layer2 in tokamak",
        "params": {
          "amount": "the amount that stake to layer2",
          "layer2": "the layer2 address in tokamak"
        }
      }
    },
    "kind": "dev",
    "methods": {
      "checkTokamak()": {
        "details": "If the tokamak addresses is not set, set the addresses."
      },
      "exchangeWTONtoTOS(uint256,uint256,uint256,uint160,uint256)": {
        "details": "exchange holded WTON to TOS using uniswap",
        "params": {
          "_amountOutMinimum": "the minimun output amount",
          "_deadline": "deadline",
          "_kind": "the function type, if 0, use exactInputSingle function, else if, use exactInput function",
          "_sqrtPriceLimitX96": "sqrtPriceLimitX96"
        },
        "returns": {
          "amountOut": "the amount of exchanged out token"
        }
      },
      "exchangeWTONtoTOSv2(uint256,uint256,uint256,uint256)": {
        "details": "exchange holded WTON to TOS using uniswap-v2",
        "params": {
          "_amountIn": "the input amount",
          "_amountOutMinimum": "the minimun output amount",
          "_deadline": "deadline",
          "_kind": "the function type, if 0, use exactInputSingle function, else if, use exactInput function"
        }
      },
      "getRoleAdmin(bytes32)": {
        "details": "Returns the admin role that controls `role`. See {grantRole} and {revokeRole}. To change a role's admin, use {_setRoleAdmin}."
      },
      "getRoleMember(bytes32,uint256)": {
        "details": "Returns one of the accounts that have `role`. `index` must be a value between 0 and {getRoleMemberCount}, non-inclusive. Role bearers are not sorted in any particular way, and their ordering may change at any point. WARNING: When using {getRoleMember} and {getRoleMemberCount}, make sure you perform all queries on the same block. See the following https://forum.openzeppelin.com/t/iterating-over-elements-on-enumerableset-in-openzeppelin-contracts/2296[forum post] for more information."
      },
      "getRoleMemberCount(bytes32)": {
        "details": "Returns the number of accounts that have `role`. Can be used together with {getRoleMember} to enumerate all bearers of a role."
      },
      "getUniswapInfo()": {
        "details": "get the addresses that used in uniswap interfaces",
        "returns": {
          "ext": "the address of ext",
          "fee": "the amount of fee",
          "npm": "the address of positionManagerAddress",
          "uniswapRouter": "the address of uniswapRouter"
        }
      },
      "getUserStaked(address)": {
        "details": "user's staked information"
      },
      "grantRole(bytes32,address)": {
        "details": "Grants `role` to `account`. If `account` had not been already granted `role`, emits a {RoleGranted} event. Requirements: - the caller must have ``role``'s admin role."
      },
      "hasRole(bytes32,address)": {
        "details": "Returns `true` if `account` has been granted `role`."
      },
      "infos()": {
        "details": "Give the infomation of this stakeContracts",
        "returns": {
          "_0": "paytoken, vault, [saleStartBlock, startBlock, endBlock], rewardClaimedTotal, totalStakedAmount, totalStakers"
        }
      },
      "renounceRole(bytes32,address)": {
        "details": "Revokes `role` from the calling account. Roles are often managed via {grantRole} and {revokeRole}: this function's purpose is to provide a mechanism for accounts to lose their privileges if they are compromised (such as when a trusted device is misplaced). If the calling account had been granted `role`, emits a {RoleRevoked} event. Requirements: - the caller must be `account`."
      },
      "revokeRole(bytes32,address)": {
        "details": "Revokes `role` from `account`. If `account` had been granted `role`, emits a {RoleRevoked} event. Requirements: - the caller must have ``role``'s admin role."
      },
      "setRegistry(address)": {
        "details": "set registry address",
        "params": {
          "_registry": "new registry address"
        }
      },
      "setTokamakLayer2(address)": {
        "details": "set the tokamak Layer2 address",
        "params": {
          "_layer2": "new the tokamak Layer2 address"
        }
      },
      "swapTONtoWTON(uint256,bool)": {
        "details": "Change the TON holded in contract have to WTON, or change WTON to TON.",
        "params": {
          "amount": "the amount to be changed",
          "toWTON": "if it's true, TON->WTON , else WTON->TON"
        }
      },
      "tokamakProcessUnStaking(address)": {
        "details": "process unstaking in layer2 in tokamak",
        "params": {
          "_layer2": "the layer2 address in tokamak"
        }
      },
      "tokamakRequestUnStaking(address,uint256)": {
        "details": "request unstaking the wtonAmount in layer2 in tokamak",
        "params": {
          "_layer2": "the layer2 address in tokamak",
          "wtonAmount": "the amount requested to unstaking"
        }
      },
      "tokamakRequestUnStakingAll(address)": {
        "details": "request unstaking the amount of all in layer2 in tokamak",
        "params": {
          "_layer2": "the layer2 address in tokamak"
        }
      },
      "tokamakStaking(address,uint256)": {
        "details": "staking the staked TON in layer2 in tokamak",
        "params": {
          "_layer2": "the layer2 address in tokamak",
          "stakeAmount": "the amount that stake to layer2"
        }
      },
      "transferOwnership(address)": {
        "details": "transfer Ownership",
        "params": {
          "newOwner": "new owner address"
        }
      }
    },
    "title": "The connector that integrates tokamak",
    "version": 1
  },
  "userdoc": {
    "kind": "user",
    "methods": {
      "exchangeWTONtoTOS(uint256,uint256,uint256,uint160,uint256)": {
        "notice": "@param _amountIn the input amount"
      }
    },
    "version": 1
  }
}