{
  "contractName": "TokamakStaker",
  "abi": [
    {
      "anonymous": false,
      "inputs": [
        {
          "indexed": true,
          "internalType": "bytes32",
          "name": "role",
          "type": "bytes32"
        },
        {
          "indexed": true,
          "internalType": "bytes32",
          "name": "previousAdminRole",
          "type": "bytes32"
        },
        {
          "indexed": true,
          "internalType": "bytes32",
          "name": "newAdminRole",
          "type": "bytes32"
        }
      ],
      "name": "RoleAdminChanged",
      "type": "event"
    },
    {
      "anonymous": false,
      "inputs": [
        {
          "indexed": true,
          "internalType": "bytes32",
          "name": "role",
          "type": "bytes32"
        },
        {
          "indexed": true,
          "internalType": "address",
          "name": "account",
          "type": "address"
        },
        {
          "indexed": true,
          "internalType": "address",
          "name": "sender",
          "type": "address"
        }
      ],
      "name": "RoleGranted",
      "type": "event"
    },
    {
      "anonymous": false,
      "inputs": [
        {
          "indexed": true,
          "internalType": "bytes32",
          "name": "role",
          "type": "bytes32"
        },
        {
          "indexed": true,
          "internalType": "address",
          "name": "account",
          "type": "address"
        },
        {
          "indexed": true,
          "internalType": "address",
          "name": "sender",
          "type": "address"
        }
      ],
      "name": "RoleRevoked",
      "type": "event"
    },
    {
      "anonymous": false,
      "inputs": [
        {
          "indexed": false,
          "internalType": "address",
          "name": "registry",
          "type": "address"
        }
      ],
      "name": "SetRegistry",
      "type": "event"
    },
    {
      "anonymous": false,
      "inputs": [
        {
          "indexed": false,
          "internalType": "address",
          "name": "layer2",
          "type": "address"
        }
      ],
      "name": "SetTokamakLayer2",
      "type": "event"
    },
    {
      "anonymous": false,
      "inputs": [
        {
          "indexed": false,
          "internalType": "address",
          "name": "caller",
          "type": "address"
        },
        {
          "indexed": false,
          "internalType": "uint256",
          "name": "amountIn",
          "type": "uint256"
        },
        {
          "indexed": false,
          "internalType": "uint256",
          "name": "amountOut",
          "type": "uint256"
        }
      ],
      "name": "exchangedWTONtoFLD",
      "type": "event"
    },
    {
      "anonymous": false,
      "inputs": [
        {
          "indexed": false,
          "internalType": "address",
          "name": "caller",
          "type": "address"
        },
        {
          "indexed": false,
          "internalType": "uint256",
          "name": "amountIn",
          "type": "uint256"
        },
        {
          "indexed": false,
          "internalType": "uint256",
          "name": "amountOut",
          "type": "uint256"
        }
      ],
      "name": "exchangedWTONtoFLD2",
      "type": "event"
    },
    {
      "anonymous": false,
      "inputs": [
        {
          "indexed": false,
          "internalType": "address",
          "name": "layer2",
          "type": "address"
        },
        {
          "indexed": false,
          "internalType": "uint256",
          "name": "rn",
          "type": "uint256"
        },
        {
          "indexed": false,
          "internalType": "bool",
          "name": "receiveTON",
          "type": "bool"
        }
      ],
      "name": "tokamakProcessedUnStaking",
      "type": "event"
    },
    {
      "anonymous": false,
      "inputs": [
        {
          "indexed": false,
          "internalType": "address",
          "name": "layer2",
          "type": "address"
        },
        {
          "indexed": false,
          "internalType": "uint256",
          "name": "amount",
          "type": "uint256"
        }
      ],
      "name": "tokamakRequestedUnStaking",
      "type": "event"
    },
    {
      "anonymous": false,
      "inputs": [
        {
          "indexed": false,
          "internalType": "address",
          "name": "layer2",
          "type": "address"
        }
      ],
      "name": "tokamakRequestedUnStakingAll",
      "type": "event"
    },
    {
      "anonymous": false,
      "inputs": [
        {
          "indexed": false,
          "internalType": "address",
          "name": "layer2",
          "type": "address"
        },
        {
          "indexed": false,
          "internalType": "uint256",
          "name": "amount",
          "type": "uint256"
        }
      ],
      "name": "tokamakStaked",
      "type": "event"
    },
    {
      "inputs": [],
      "name": "ADMIN_ROLE",
      "outputs": [
        {
          "internalType": "bytes32",
          "name": "",
          "type": "bytes32"
        }
      ],
      "stateMutability": "view",
      "type": "function"
    },
    {
      "inputs": [],
      "name": "DEFAULT_ADMIN_ROLE",
      "outputs": [
        {
          "internalType": "bytes32",
          "name": "",
          "type": "bytes32"
        }
      ],
      "stateMutability": "view",
      "type": "function"
    },
    {
      "inputs": [],
      "name": "defiStatus",
      "outputs": [
        {
          "internalType": "uint256",
          "name": "",
          "type": "uint256"
        }
      ],
      "stateMutability": "view",
      "type": "function"
    },
    {
      "inputs": [],
      "name": "depositManager",
      "outputs": [
        {
          "internalType": "address",
          "name": "",
          "type": "address"
        }
      ],
      "stateMutability": "view",
      "type": "function"
    },
    {
      "inputs": [],
      "name": "endBlock",
      "outputs": [
        {
          "internalType": "uint256",
          "name": "",
          "type": "uint256"
        }
      ],
      "stateMutability": "view",
      "type": "function"
    },
    {
      "inputs": [],
      "name": "finalBalanceTON",
      "outputs": [
        {
          "internalType": "uint256",
          "name": "",
          "type": "uint256"
        }
      ],
      "stateMutability": "view",
      "type": "function"
    },
    {
      "inputs": [],
      "name": "finalBalanceWTON",
      "outputs": [
        {
          "internalType": "uint256",
          "name": "",
          "type": "uint256"
        }
      ],
      "stateMutability": "view",
      "type": "function"
    },
    {
      "inputs": [],
      "name": "fromTokamak",
      "outputs": [
        {
          "internalType": "uint256",
          "name": "",
          "type": "uint256"
        }
      ],
      "stateMutability": "view",
      "type": "function"
    },
    {
      "inputs": [
        {
          "internalType": "bytes32",
          "name": "role",
          "type": "bytes32"
        }
      ],
      "name": "getRoleAdmin",
      "outputs": [
        {
          "internalType": "bytes32",
          "name": "",
          "type": "bytes32"
        }
      ],
      "stateMutability": "view",
      "type": "function"
    },
    {
      "inputs": [
        {
          "internalType": "bytes32",
          "name": "role",
          "type": "bytes32"
        },
        {
          "internalType": "uint256",
          "name": "index",
          "type": "uint256"
        }
      ],
      "name": "getRoleMember",
      "outputs": [
        {
          "internalType": "address",
          "name": "",
          "type": "address"
        }
      ],
      "stateMutability": "view",
      "type": "function"
    },
    {
      "inputs": [
        {
          "internalType": "bytes32",
          "name": "role",
          "type": "bytes32"
        }
      ],
      "name": "getRoleMemberCount",
      "outputs": [
        {
          "internalType": "uint256",
          "name": "",
          "type": "uint256"
        }
      ],
      "stateMutability": "view",
      "type": "function"
    },
    {
      "inputs": [
        {
          "internalType": "address",
          "name": "user",
          "type": "address"
        }
      ],
      "name": "getUserStaked",
      "outputs": [
        {
          "internalType": "uint256",
          "name": "amount",
          "type": "uint256"
        },
        {
          "internalType": "uint256",
          "name": "claimedBlock",
          "type": "uint256"
        },
        {
          "internalType": "uint256",
          "name": "claimedAmount",
          "type": "uint256"
        },
        {
          "internalType": "uint256",
          "name": "releasedBlock",
          "type": "uint256"
        },
        {
          "internalType": "uint256",
          "name": "releasedAmount",
          "type": "uint256"
        },
        {
          "internalType": "uint256",
          "name": "releasedFLDAmount",
          "type": "uint256"
        },
        {
          "internalType": "bool",
          "name": "released",
          "type": "bool"
        }
      ],
      "stateMutability": "view",
      "type": "function"
    },
    {
      "inputs": [
        {
          "internalType": "bytes32",
          "name": "role",
          "type": "bytes32"
        },
        {
          "internalType": "address",
          "name": "account",
          "type": "address"
        }
      ],
      "name": "grantRole",
      "outputs": [],
      "stateMutability": "nonpayable",
      "type": "function"
    },
    {
      "inputs": [
        {
          "internalType": "bytes32",
          "name": "role",
          "type": "bytes32"
        },
        {
          "internalType": "address",
          "name": "account",
          "type": "address"
        }
      ],
      "name": "hasRole",
      "outputs": [
        {
          "internalType": "bool",
          "name": "",
          "type": "bool"
        }
      ],
      "stateMutability": "view",
      "type": "function"
    },
    {
      "inputs": [],
      "name": "paytoken",
      "outputs": [
        {
          "internalType": "address",
          "name": "",
          "type": "address"
        }
      ],
      "stateMutability": "view",
      "type": "function"
    },
    {
      "inputs": [
        {
          "internalType": "bytes32",
          "name": "role",
          "type": "bytes32"
        },
        {
          "internalType": "address",
          "name": "account",
          "type": "address"
        }
      ],
      "name": "renounceRole",
      "outputs": [],
      "stateMutability": "nonpayable",
      "type": "function"
    },
    {
      "inputs": [],
      "name": "requestNum",
      "outputs": [
        {
          "internalType": "uint256",
          "name": "",
          "type": "uint256"
        }
      ],
      "stateMutability": "view",
      "type": "function"
    },
    {
      "inputs": [
        {
          "internalType": "bytes32",
          "name": "role",
          "type": "bytes32"
        },
        {
          "internalType": "address",
          "name": "account",
          "type": "address"
        }
      ],
      "name": "revokeRole",
      "outputs": [],
      "stateMutability": "nonpayable",
      "type": "function"
    },
    {
      "inputs": [],
      "name": "rewardClaimedTotal",
      "outputs": [
        {
          "internalType": "uint256",
          "name": "",
          "type": "uint256"
        }
      ],
      "stateMutability": "view",
      "type": "function"
    },
    {
      "inputs": [],
      "name": "saleStartBlock",
      "outputs": [
        {
          "internalType": "uint256",
          "name": "",
          "type": "uint256"
        }
      ],
      "stateMutability": "view",
      "type": "function"
    },
    {
      "inputs": [],
      "name": "seigManager",
      "outputs": [
        {
          "internalType": "address",
          "name": "",
          "type": "address"
        }
      ],
      "stateMutability": "view",
      "type": "function"
    },
    {
      "inputs": [],
      "name": "stakeRegistry",
      "outputs": [
        {
          "internalType": "address",
          "name": "",
          "type": "address"
        }
      ],
      "stateMutability": "view",
      "type": "function"
    },
    {
      "inputs": [],
      "name": "startBlock",
      "outputs": [
        {
          "internalType": "uint256",
          "name": "",
          "type": "uint256"
        }
      ],
      "stateMutability": "view",
      "type": "function"
    },
    {
      "inputs": [],
      "name": "swapProxy",
      "outputs": [
        {
          "internalType": "address",
          "name": "",
          "type": "address"
        }
      ],
      "stateMutability": "view",
      "type": "function"
    },
    {
      "inputs": [],
      "name": "swappedAmountFLD",
      "outputs": [
        {
          "internalType": "uint256",
          "name": "",
          "type": "uint256"
        }
      ],
      "stateMutability": "view",
      "type": "function"
    },
    {
      "inputs": [],
      "name": "toTokamak",
      "outputs": [
        {
          "internalType": "uint256",
          "name": "",
          "type": "uint256"
        }
      ],
      "stateMutability": "view",
      "type": "function"
    },
    {
      "inputs": [],
      "name": "toUniswapWTON",
      "outputs": [
        {
          "internalType": "uint256",
          "name": "",
          "type": "uint256"
        }
      ],
      "stateMutability": "view",
      "type": "function"
    },
    {
      "inputs": [],
      "name": "tokamakLayer2",
      "outputs": [
        {
          "internalType": "address",
          "name": "",
          "type": "address"
        }
      ],
      "stateMutability": "view",
      "type": "function"
    },
    {
      "inputs": [],
      "name": "token",
      "outputs": [
        {
          "internalType": "address",
          "name": "",
          "type": "address"
        }
      ],
      "stateMutability": "view",
      "type": "function"
    },
    {
      "inputs": [],
      "name": "ton",
      "outputs": [
        {
          "internalType": "address",
          "name": "",
          "type": "address"
        }
      ],
      "stateMutability": "view",
      "type": "function"
    },
    {
      "inputs": [],
      "name": "totalStakedAmount",
      "outputs": [
        {
          "internalType": "uint256",
          "name": "",
          "type": "uint256"
        }
      ],
      "stateMutability": "view",
      "type": "function"
    },
    {
      "inputs": [],
      "name": "totalStakers",
      "outputs": [
        {
          "internalType": "uint256",
          "name": "",
          "type": "uint256"
        }
      ],
      "stateMutability": "view",
      "type": "function"
    },
    {
      "inputs": [
        {
          "internalType": "address",
          "name": "",
          "type": "address"
        }
      ],
      "name": "userStaked",
      "outputs": [
        {
          "internalType": "uint256",
          "name": "amount",
          "type": "uint256"
        },
        {
          "internalType": "uint256",
          "name": "claimedBlock",
          "type": "uint256"
        },
        {
          "internalType": "uint256",
          "name": "claimedAmount",
          "type": "uint256"
        },
        {
          "internalType": "uint256",
          "name": "releasedBlock",
          "type": "uint256"
        },
        {
          "internalType": "uint256",
          "name": "releasedAmount",
          "type": "uint256"
        },
        {
          "internalType": "uint256",
          "name": "releasedFLDAmount",
          "type": "uint256"
        },
        {
          "internalType": "bool",
          "name": "released",
          "type": "bool"
        }
      ],
      "stateMutability": "view",
      "type": "function"
    },
    {
      "inputs": [],
      "name": "vault",
      "outputs": [
        {
          "internalType": "address",
          "name": "",
          "type": "address"
        }
      ],
      "stateMutability": "view",
      "type": "function"
    },
    {
      "inputs": [],
      "name": "withdrawFlag",
      "outputs": [
        {
          "internalType": "bool",
          "name": "",
          "type": "bool"
        }
      ],
      "stateMutability": "view",
      "type": "function"
    },
    {
      "inputs": [],
      "name": "wton",
      "outputs": [
        {
          "internalType": "address",
          "name": "",
          "type": "address"
        }
      ],
      "stateMutability": "view",
      "type": "function"
    },
    {
      "inputs": [
        {
          "internalType": "address",
          "name": "newOwner",
          "type": "address"
        }
      ],
      "name": "transferOwnership",
      "outputs": [],
      "stateMutability": "nonpayable",
      "type": "function"
    },
    {
      "inputs": [
        {
          "internalType": "address",
          "name": "_registry",
          "type": "address"
        }
      ],
      "name": "setRegistry",
      "outputs": [],
      "stateMutability": "nonpayable",
      "type": "function"
    },
    {
      "inputs": [
        {
          "internalType": "address",
          "name": "_layer2",
          "type": "address"
        }
      ],
      "name": "setTokamakLayer2",
      "outputs": [],
      "stateMutability": "nonpayable",
      "type": "function"
    },
    {
      "inputs": [],
      "name": "getUniswapInfo",
      "outputs": [
        {
          "internalType": "address",
          "name": "uniswapRouter",
          "type": "address"
        },
        {
          "internalType": "address",
          "name": "npm",
          "type": "address"
        },
        {
          "internalType": "address",
          "name": "ext",
          "type": "address"
        },
        {
          "internalType": "uint256",
          "name": "fee",
          "type": "uint256"
        },
        {
          "internalType": "address",
          "name": "uniswapRouterV2",
          "type": "address"
        }
      ],
      "stateMutability": "view",
      "type": "function"
    },
    {
      "inputs": [
        {
          "internalType": "uint256",
          "name": "amount",
          "type": "uint256"
        },
        {
          "internalType": "bool",
          "name": "toWTON",
          "type": "bool"
        }
      ],
      "name": "swapTONtoWTON",
      "outputs": [],
      "stateMutability": "nonpayable",
      "type": "function"
    },
    {
      "inputs": [],
      "name": "checkTokamak",
      "outputs": [],
      "stateMutability": "nonpayable",
      "type": "function"
    },
    {
      "inputs": [
        {
          "internalType": "address",
          "name": "_layer2",
          "type": "address"
        },
        {
          "internalType": "uint256",
          "name": "stakeAmount",
          "type": "uint256"
        }
      ],
      "name": "tokamakStaking",
      "outputs": [],
      "stateMutability": "nonpayable",
      "type": "function"
    },
    {
      "inputs": [
        {
          "internalType": "address",
          "name": "_layer2",
          "type": "address"
        },
        {
          "internalType": "uint256",
          "name": "wtonAmount",
          "type": "uint256"
        }
      ],
      "name": "tokamakRequestUnStaking",
      "outputs": [],
      "stateMutability": "nonpayable",
      "type": "function"
    },
    {
      "inputs": [
        {
          "internalType": "address",
          "name": "_layer2",
          "type": "address"
        }
      ],
      "name": "tokamakRequestUnStakingAll",
      "outputs": [],
      "stateMutability": "nonpayable",
      "type": "function"
    },
    {
      "inputs": [
        {
          "internalType": "address",
          "name": "_layer2",
          "type": "address"
        }
      ],
      "name": "tokamakProcessUnStaking",
      "outputs": [],
      "stateMutability": "nonpayable",
      "type": "function"
    },
    {
      "inputs": [
        {
          "internalType": "uint256",
          "name": "_amountIn",
          "type": "uint256"
        },
        {
          "internalType": "uint256",
          "name": "_amountOutMinimum",
          "type": "uint256"
        },
        {
          "internalType": "uint256",
          "name": "_deadline",
          "type": "uint256"
        },
        {
          "internalType": "uint160",
          "name": "_sqrtPriceLimitX96",
          "type": "uint160"
        },
        {
          "internalType": "uint256",
          "name": "_kind",
          "type": "uint256"
        }
      ],
      "name": "exchangeWTONtoFLD",
      "outputs": [
        {
          "internalType": "uint256",
          "name": "amountOut",
          "type": "uint256"
        }
      ],
      "stateMutability": "nonpayable",
      "type": "function"
    },
    {
      "inputs": [
        {
          "internalType": "uint256",
          "name": "_amountIn",
          "type": "uint256"
        },
        {
          "internalType": "uint256",
          "name": "_amountOutMinimum",
          "type": "uint256"
        },
        {
          "internalType": "uint256",
          "name": "_deadline",
          "type": "uint256"
        },
        {
          "internalType": "uint256",
          "name": "_kind",
          "type": "uint256"
        }
      ],
      "name": "exchangeWTONtoFLDv2",
      "outputs": [
        {
          "internalType": "uint256",
          "name": "amountOut",
          "type": "uint256"
        }
      ],
      "stateMutability": "nonpayable",
      "type": "function"
    }
  ],
  "bytecode": "0x608060405234801561001057600080fd5b506141c0806100206000396000f3fe608060405234801561001057600080fd5b50600436106102a05760003560e01c80638b8292ec11610167578063cc48b947116100ce578063e6a7bc8711610087578063e6a7bc8714610500578063f2fde38b14610508578063fbfa77cf1461051b578063fc0c546a14610523578063fd7fa4601461052b578063ff75878814610533576102a0565b8063cc48b947146104af578063ce681ce6146104b7578063d547741f146104ca578063dac3fc3f146104dd578063e09974b9146104f0578063e58e2747146104f8576102a0565b8063a6e8670e11610120578063a6e8670e14610440578063a91ee0dc14610453578063a938a60514610466578063acc3a9391461046e578063b2d4d6a314610494578063ca15c8731461049c576102a0565b80638b8292ec146103ef5780638d62d949146104025780639010d07c1461040a57806391d148541461041d57806392ea3b4c14610430578063a217fddf14610438576102a0565b8063683048351161020b57806372285326116101c4578063722853261461039e578063730464a9146103a657806375b238fc146103b95780637df3f40c146103c1578063821f9267146103d457806386989038146103e7576102a0565b806368304835146103565780636c7ac9d81461035e5780636e7cf534146103665780636ec4be901461037b5780636fb7f5581461038357806371def0b31461038b576102a0565b80632995fa0e1161025d5780632995fa0e146103035780632f2ff15d1461030b57806336568abe1461031e57806343b0934a1461033157806348cd4cb114610346578063567e98f91461034e576102a0565b806305871b78146102a5578063065c4313146102c3578063083c6323146102d85780630ac8e0f3146102e057806320027275146102e8578063248a9ca3146102f0575b600080fd5b6102ad61054c565b6040516102ba9190613814565b60405180910390f35b6102d66102d136600461346f565b610552565b005b6102ad610aea565b6102ad610af0565b6102ad610af6565b6102ad6102fe366004613564565b610afc565b6102d6610b11565b6102d661031936600461357c565b610c96565b6102d661032c36600461357c565b610cfd565b610339610d5e565b6040516102ba919061371e565b6102ad610d6d565b6102ad610d73565b610339610d79565b610339610d88565b61036e610d97565b6040516102ba9190613809565b610339610da0565b610339610daf565b6102d6610399366004613383565b610dbe565b6102ad610fc4565b6102d66103b4366004613383565b610fca565b6102ad61131c565b6102d66103cf3660046135e4565b61132e565b6102ad6103e2366004613608565b61164b565b6102ad611ec6565b6102ad6103fd366004613650565b611ecc565b61033961278a565b6103396104183660046135ab565b612799565b61036e61042b36600461357c565b6127ba565b6103396127d2565b6102ad6127e1565b6102d661044e366004613383565b6127e6565b6102d6610461366004613383565b6128b2565b6102ad61296a565b61048161047c366004613383565b612970565b6040516102ba9796959493929190614044565b6102ad6129b0565b6102ad6104aa366004613564565b6129b6565b6103396129cd565b6102d66104c536600461346f565b6129dc565b6102d66104d836600461357c565b612c8d565b6104816104eb366004613383565b612ce6565b6102ad612d2f565b6102ad612d35565b6102ad612d3b565b6102d6610516366004613383565b612d41565b610339612dd1565b610339612de0565b6102ad612def565b61053b612df5565b6040516102ba95949392919061376d565b60145481565b600b541561057b5760405162461bcd60e51b815260040161057290613a8b565b60405180910390fd5b6001600b819055546001600160a01b0316806105a95760405162461bcd60e51b81526004016105729061381d565b826001600160a01b0381166105d05760405162461bcd60e51b81526004016105729061381d565b6006544311156105f25760405162461bcd60e51b81526004016105729061395f565b600083116106125760405162461bcd60e51b815260040161057290613de1565b600360009054906101000a90046001600160a01b03166001600160a01b031663b8c766b86040518163ffffffff1660e01b815260040160206040518083038186803b15801561066057600080fd5b505afa158015610674573d6000803e3d6000fd5b505050506040513d601f19601f820116820180604052508101906106989190613548565b15156001146106b95760405162461bcd60e51b815260040161057290613ab9565b60026018556106c6610b11565b600f5460408051633761ead760e11b815290516000926001600160a01b031691636ec3d5ae916004808301926020929190829003018186803b15801561070b57600080fd5b505afa15801561071f573d6000803e3d6000fd5b505050506040513d601f19601f8201168201806040525081019061074391906135cc565b9050806006540343106107685760405162461bcd60e51b815260040161057290613991565b6011546001600160a01b031661079857601180546001600160a01b0319166001600160a01b03871617905561091d565b600e546011546040516367265c3b60e11b81526000926001600160a01b039081169263ce4cb876926107d292909116903090600401613753565b60206040518083038186803b1580156107ea57600080fd5b505afa1580156107fe573d6000803e3d6000fd5b505050506040513d601f19601f8201168201806040525081019061082291906135cc565b11806108b55750600f54601154604051632638fdf560e01b81526000926001600160a01b0390811692632638fdf59261086392909116903090600401613753565b60206040518083038186803b15801561087b57600080fd5b505afa15801561088f573d6000803e3d6000fd5b505050506040513d601f19601f820116820180604052508101906108b391906135cc565b115b156108ec576011546001600160a01b038681169116146108e75760405162461bcd60e51b815260040161057290613b93565b61091d565b6011546001600160a01b0386811691161461091d57601180546001600160a01b0319166001600160a01b0387161790555b600c546040516370a0823160e01b815285916001600160a01b0316906370a082319061094d90309060040161371e565b60206040518083038186803b15801561096557600080fd5b505afa158015610979573d6000803e3d6000fd5b505050506040513d601f19601f8201168201806040525081019061099d91906135cc565b10156109bb5760405162461bcd60e51b815260040161057290613e55565b6012546109c89085612e94565b601255600f546040516000916109ee916001600160a01b03909116908890602001613753565b60408051601f1981840301815290829052600c54600d5463cae9ca5160e01b84529193506001600160a01b039081169263cae9ca5192610a36921690899086906004016137d9565b602060405180830381600087803b158015610a5057600080fd5b505af1158015610a64573d6000803e3d6000fd5b505050506040513d601f19601f82011682018060405250810190610a889190613548565b610aa45760405162461bcd60e51b815260040161057290613aeb565b7fd706f7b85b6f270583513d8371d6264d347f648849b8c09e1630b2cc536dba5d8686604051610ad592919061379d565b60405180910390a150506000600b5550505050565b60065481565b60135481565b60045481565b6000908152601b602052604090206002015490565b600c546001600160a01b0316610c12576000806000806000600160009054906101000a90046001600160a01b03166001600160a01b031663a782ebd56040518163ffffffff1660e01b815260040160a06040518083038186803b158015610b7757600080fd5b505afa158015610b8b573d6000803e3d6000fd5b505050506040513d601f19601f82011682018060405250810190610baf919061339f565b600c80546001600160a01b03199081166001600160a01b0397881617909155600d8054821695871695909517909455600f8054851693861693909317909255600e8054841691851691909117905560108054909216921691909117905550505050505b600c546001600160a01b031615801590610c365750600d546001600160a01b031615155b8015610c4c5750600e546001600160a01b031615155b8015610c625750600f546001600160a01b031615155b8015610c7857506010546001600160a01b031615155b610c945760405162461bcd60e51b815260040161057290613d57565b565b6000828152601b6020526040902060020154610cb49061042b612eee565b610cef5760405162461bcd60e51b815260040180806020018281038252602f8152602001806140bc602f913960400191505060405180910390fd5b610cf98282612ef2565b5050565b610d05612eee565b6001600160a01b0316816001600160a01b031614610d545760405162461bcd60e51b815260040180806020018281038252602f81526020018061415c602f913960400191505060405180910390fd5b610cf98282612f5b565b6002546001600160a01b031681565b60055481565b60085481565b6001546001600160a01b031681565b600f546001600160a01b031681565b601a5460ff1681565b6010546001600160a01b031681565b600e546001600160a01b031681565b600b5415610dde5760405162461bcd60e51b815260040161057290613a8b565b6001600b819055546001600160a01b031680610e0c5760405162461bcd60e51b81526004016105729061381d565b60115482906001600160a01b03808316911614610e3b5760405162461bcd60e51b815260040161057290613b93565b600360009054906101000a90046001600160a01b03166001600160a01b031663b8c766b86040518163ffffffff1660e01b815260040160206040518083038186803b158015610e8957600080fd5b505afa158015610e9d573d6000803e3d6000fd5b505050506040513d601f19601f82011682018060405250810190610ec19190613548565b1515600114610ee25760405162461bcd60e51b815260040161057290613ab9565b6003601855601954610ef5906001612e94565b601955610f00610b11565b600f54604051636b2160b760e01b81526001600160a01b0390911690636b2160b790610f3090869060040161371e565b602060405180830381600087803b158015610f4a57600080fd5b505af1158015610f5e573d6000803e3d6000fd5b505050506040513d601f19601f82011682018060405250810190610f829190613548565b507ff5ce649f20a9ec3170091cbbbb6aff6a879655e0d7f20acae0ab8a66c2fcc8e883604051610fb2919061371e565b60405180910390a150506000600b5550565b60185481565b600b5415610fea5760405162461bcd60e51b815260040161057290613a8b565b6001600b819055546001600160a01b0316806110185760405162461bcd60e51b81526004016105729061381d565b60115482906001600160a01b038083169116146110475760405162461bcd60e51b815260040161057290613b93565b6005601854141561106a5760405162461bcd60e51b815260040161057290613cda565b600360009054906101000a90046001600160a01b03166001600160a01b031663b8c766b86040518163ffffffff1660e01b815260040160206040518083038186803b1580156110b857600080fd5b505afa1580156110cc573d6000803e3d6000fd5b505050506040513d601f19601f820116820180604052508101906110f09190613548565b15156001146111115760405162461bcd60e51b815260040161057290613ab9565b6005601855601980546000909155611127610b11565b600e546011546040516367265c3b60e11b81526001600160a01b039283169263ce4cb8769261115d929116903090600401613753565b60206040518083038186803b15801561117557600080fd5b505afa158015611189573d6000803e3d6000fd5b505050506040513d601f19601f820116820180604052508101906111ad91906135cc565b6111c257601180546001600160a01b03191690555b600f54604051632638fdf560e01b81526001600160a01b0390911690632638fdf5906111f49087903090600401613753565b60206040518083038186803b15801561120c57600080fd5b505afa158015611220573d6000803e3d6000fd5b505050506040513d601f19601f8201168201806040525081019061124491906135cc565b601380549091019055600f5460405163fb0713b160e01b81526001600160a01b039091169063fb0713b19061128290879085906001906004016137b6565b602060405180830381600087803b15801561129c57600080fd5b505af11580156112b0573d6000803e3d6000fd5b505050506040513d601f19601f820116820180604052508101906112d49190613548565b507fd07c1a80bfc96d3611f58fc19165b875cdbc1bdc53d8189e649a74930d9e3d8084826001604051611309939291906137b6565b60405180910390a150506000600b555050565b60008051602061413c83398151915281565b600b541561134e5760405162461bcd60e51b815260040161057290613a8b565b6001600b5561135b610b11565b8015611506576010546001600160a01b03166113895760405162461bcd60e51b81526004016105729061392a565b600c546040516370a0823160e01b815283916001600160a01b0316906370a08231906113b990309060040161371e565b60206040518083038186803b1580156113d157600080fd5b505afa1580156113e5573d6000803e3d6000fd5b505050506040513d601f19601f8201168201806040525081019061140991906135cc565b10156114275760405162461bcd60e51b8152600401610572906139da565b60105460405160009161144a916001600160a01b03909116908190602001613753565b60408051601f1981840301815290829052600c54600d5463cae9ca5160e01b84529193506001600160a01b039081169263cae9ca5192611492921690879086906004016137d9565b602060405180830381600087803b1580156114ac57600080fd5b505af11580156114c0573d6000803e3d6000fd5b505050506040513d601f19601f820116820180604052508101906114e49190613548565b6115005760405162461bcd60e51b815260040161057290613bff565b50611642565b600d546040516370a0823160e01b815283916001600160a01b0316906370a082319061153690309060040161371e565b60206040518083038186803b15801561154e57600080fd5b505afa158015611562573d6000803e3d6000fd5b505050506040513d601f19601f8201168201806040525081019061158691906135cc565b10156115a45760405162461bcd60e51b815260040161057290613a32565b600d5460405163f53fe70f60e01b81526001600160a01b039091169063f53fe70f906115d4908590600401613814565b602060405180830381600087803b1580156115ee57600080fd5b505af1158015611602573d6000803e3d6000fd5b505050506040513d601f19601f820116820180604052508101906116269190613548565b6116425760405162461bcd60e51b815260040161057290613d20565b50506000600b55565b6000600b5460001461166f5760405162461bcd60e51b815260040161057290613a8b565b6001600b556006544311156116965760405162461bcd60e51b815260040161057290613e22565b600360009054906101000a90046001600160a01b03166001600160a01b031663b8c766b86040518163ffffffff1660e01b815260040160206040518083038186803b1580156116e457600080fd5b505afa1580156116f8573d6000803e3d6000fd5b505050506040513d601f19601f8201168201806040525081019061171c9190613548565b151560011461173d5760405162461bcd60e51b815260040161057290613e97565b6002821061175d5760405162461bcd60e51b815260040161057290613b63565b611765610b11565b600d546040516370a0823160e01b81526000916001600160a01b0316906370a082319061179690309060040161371e565b60206040518083038186803b1580156117ae57600080fd5b505afa1580156117c2573d6000803e3d6000fd5b505050506040513d601f19601f820116820180604052508101906117e691906135cc565b600c546040516370a0823160e01b81529192506000916001600160a01b03909116906370a082319061181c90309060040161371e565b60206040518083038186803b15801561183457600080fd5b505afa158015611848573d6000803e3d6000fd5b505050506040513d601f19601f8201168201806040525081019061186c91906135cc565b6011549091506000906001600160a01b0316156119a057600e546011546040516367265c3b60e11b81526001600160a01b039283169263ce4cb876926118b9929116903090600401613753565b60206040518083038186803b1580156118d157600080fd5b505afa1580156118e5573d6000803e3d6000fd5b505050506040513d601f19601f8201168201806040525081019061190991906135cc565b600f54601154604051632638fdf560e01b815292935061199d926001600160a01b0392831692632638fdf592611946929116903090600401613753565b60206040518083038186803b15801561195e57600080fd5b505afa158015611972573d6000803e3d6000fd5b505050506040513d601f19601f8201168201806040525081019061199691906135cc565b8290612e94565b90505b8282156119bb576119b861199684633b9aca00612fc4565b90505b898110156119db5760405162461bcd60e51b815260040161057290613bca565b81156119ee576119eb8183612e94565b90505b6008546119ff90633b9aca00612fc4565b81118015611a2f575089611a2c611a25633b9aca00600854612fc490919063ffffffff16565b839061301d565b10155b611a4b5760405162461bcd60e51b815260040161057290613b2c565b89841015611b4d57601054604051600091611a76916001600160a01b03909116908190602001613753565b60408051601f1981840301815291905290506000611aa2633b9aca00611a9c8e8961301d565b9061305f565b600c54600d5460405163cae9ca5160e01b81529293506001600160a01b039182169263cae9ca5192611adc921690859087906004016137d9565b602060405180830381600087803b158015611af657600080fd5b505af1158015611b0a573d6000803e3d6000fd5b505050506040513d601f19601f82011682018060405250810190611b2e9190613548565b611b4a5760405162461bcd60e51b815260040161057290613d8e565b50505b50506014805489019055505060015460408051630141158f60e61b81529051600092839283926001600160a01b039092169163504563c09160048082019260a092909190829003018186803b158015611ba557600080fd5b505afa158015611bb9573d6000803e3d6000fd5b505050506040513d601f19601f82011682018060405250810190611bdd9190613413565b509295509350909150506001600160a01b038316611c0d5760405162461bcd60e51b815260040161057290613854565b600d5460405163095ea7b360e01b81526001600160a01b039091169063095ea7b390611c3f9086908d9060040161379d565b602060405180830381600087803b158015611c5957600080fd5b505af1158015611c6d573d6000803e3d6000fd5b505050506040513d601f19601f82011682018060405250810190611c919190613548565b611cad5760405162461bcd60e51b815260040161057290613eca565b84611d83576040805161010081018252600d546001600160a01b0390811682526000548116602083015262ffffff841682840152306060830152608082018a905260a082018c905260c082018b905288811660e0830152915163414bf38960e01b8152909185169063414bf38990611d29908490600401613f6b565b602060405180830381600087803b158015611d4357600080fd5b505af1158015611d57573d6000803e3d6000fd5b505050506040513d601f19601f82011682018060405250810190611d7b91906135cc565b945050611e7a565b8460011415611e7a576040805160a08101909152600d54600080549092918291611dc3916001600160a01b03908116918791899183911660c087016136cc565b6040516020818303038152906040528152602001306001600160a01b031681526020018981526020018b81526020018a8152509050836001600160a01b031663c04b8d59826040518263ffffffff1660e01b8152600401611e249190613f13565b602060405180830381600087803b158015611e3e57600080fd5b505af1158015611e52573d6000803e3d6000fd5b505050506040513d601f19601f82011682018060405250810190611e7691906135cc565b9450505b7f74842f5cb50433259975dc03edd7aa489cadd26488ed7706ab593b9eb3d59101338a86604051611ead93929190613732565b60405180910390a150506000600b555095945050505050565b600a5481565b6000600b54600014611ef05760405162461bcd60e51b815260040161057290613a8b565b6001600b55600654431115611f175760405162461bcd60e51b81526004016105729061395f565b600360009054906101000a90046001600160a01b03166001600160a01b031663b8c766b86040518163ffffffff1660e01b815260040160206040518083038186803b158015611f6557600080fd5b505afa158015611f79573d6000803e3d6000fd5b505050506040513d601f19601f82011682018060405250810190611f9d9190613548565b1515600114611fbe5760405162461bcd60e51b815260040161057290613ab9565b60028210611fde5760405162461bcd60e51b815260040161057290613c93565b611fe6610b11565b600d546040516370a0823160e01b81526000916001600160a01b0316906370a082319061201790309060040161371e565b60206040518083038186803b15801561202f57600080fd5b505afa158015612043573d6000803e3d6000fd5b505050506040513d601f19601f8201168201806040525081019061206791906135cc565b600c546040516370a0823160e01b81529192506000916001600160a01b03909116906370a082319061209d90309060040161371e565b60206040518083038186803b1580156120b557600080fd5b505afa1580156120c9573d6000803e3d6000fd5b505050506040513d601f19601f820116820180604052508101906120ed91906135cc565b6011549091506000906001600160a01b0316156121ca57600e546011546040516367265c3b60e11b81526001600160a01b039283169263ce4cb8769261213a929116903090600401613753565b60206040518083038186803b15801561215257600080fd5b505afa158015612166573d6000803e3d6000fd5b505050506040513d601f19601f8201168201806040525081019061218a91906135cc565b600f54601154604051632638fdf560e01b81529293506121c7926001600160a01b0392831692632638fdf592611946929116903090600401613753565b90505b8282156121e5576121e261199684633b9aca00612fc4565b90505b888110156122055760405162461bcd60e51b815260040161057290613bca565b8115612218576122158183612e94565b90505b60085461222990633b9aca00612fc4565b8111801561225257508861224f611a25633b9aca00600854612fc490919063ffffffff16565b10155b61226e5760405162461bcd60e51b815260040161057290613b2c565b8884101561236a57601054604051600091612299916001600160a01b03909116908190602001613753565b60408051601f19818403018152919052905060006122bf633b9aca00611a9c8d8961301d565b600c54600d5460405163cae9ca5160e01b81529293506001600160a01b039182169263cae9ca51926122f9921690859087906004016137d9565b602060405180830381600087803b15801561231357600080fd5b505af1158015612327573d6000803e3d6000fd5b505050506040513d601f19601f8201168201806040525081019061234b9190613548565b6123675760405162461bcd60e51b815260040161057290613d8e565b50505b50506014805488019055505060015460408051630141158f60e61b8152905160009283926001600160a01b039091169163504563c09160048082019260a092909190829003018186803b1580156123c057600080fd5b505afa1580156123d4573d6000803e3d6000fd5b505050506040513d601f19601f820116820180604052508101906123f89190613413565b9195509093505050506001600160a01b0381166124275760405162461bcd60e51b815260040161057290613cb4565b600d5460405163095ea7b360e01b81526001600160a01b039091169063095ea7b3906124599084908b9060040161379d565b602060405180830381600087803b15801561247357600080fd5b505af1158015612487573d6000803e3d6000fd5b505050506040513d601f19601f820116820180604052508101906124ab9190613548565b6124c75760405162461bcd60e51b815260040161057290613eca565b836125f0576040805160028082526060820183526000926020830190803683375050600d5482519293506001600160a01b03169183915060009061250757fe5b6001600160a01b03928316602091820292909201015260005482519116908290600190811061253257fe5b6001600160a01b0392831660209182029290920101526040516338ed173960e01b81526000918416906338ed173990612577908c908c90879030908e90600401613fd4565b600060405180830381600087803b15801561259157600080fd5b505af11580156125a5573d6000803e3d6000fd5b505050506040513d6000823e601f3d908101601f191682016040526125cd919081019061349a565b9050806001825103815181106125df57fe5b602002602001015194505050612740565b60408051600380825260808201909252600091602082016060803683375050600d5482519293506001600160a01b03169183915060009061262d57fe5b60200260200101906001600160a01b031690816001600160a01b031681525050828160018151811061265b57fe5b6001600160a01b03928316602091820292909201015260005482519116908290600290811061268657fe5b6001600160a01b0392831660209182029290920101526040516338ed173960e01b81526000918416906338ed1739906126cb908c908c90879030908e90600401613fd4565b600060405180830381600087803b1580156126e557600080fd5b505af11580156126f9573d6000803e3d6000fd5b505050506040513d6000823e601f3d908101601f19168201604052612721919081019061349a565b90508060018251038151811061273357fe5b6020026020010151945050505b7f0755a5ae7e9cad421afd4574b0aa39deecf7ab99e1933e34d8adb666cf22a2ea33888560405161277393929190613732565b60405180910390a150506000600b55949350505050565b600d546001600160a01b031681565b6000828152601b602052604081206127b190836130a1565b90505b92915050565b6000828152601b602052604081206127b190836130ad565b6011546001600160a01b031681565b600081565b6127fe60008051602061413c833981519152336127ba565b61281a5760405162461bcd60e51b815260040161057290613c4e565b6001600160a01b0381161580159061284057506011546001600160a01b03828116911614155b61285c5760405162461bcd60e51b8152600401610572906138e9565b601180546001600160a01b0319166001600160a01b0383161790556040517fbcf2b04f5517cca822ae60e21bb6e3889b8d8307ea062c5266c63a014386c990906128a790839061371e565b60405180910390a150565b6128ca60008051602061413c833981519152336127ba565b6128e65760405162461bcd60e51b815260040161057290613c4e565b806001600160a01b03811661290d5760405162461bcd60e51b81526004016105729061381d565b600180546001600160a01b0319166001600160a01b0384811691909117918290556040517f278c70ced5f3e0e5eeb385b5ff9cb735748ba00a625147e66065ed48fc1562cd9261295e92169061371e565b60405180910390a15050565b60155481565b6009602052600090815260409020805460018201546002830154600384015460048501546005860154600690960154949593949293919290919060ff1687565b60075481565b6000818152601b602052604081206127b4906130c2565b600c546001600160a01b031681565b600b54156129fc5760405162461bcd60e51b815260040161057290613a8b565b6001600b819055546001600160a01b031680612a2a5760405162461bcd60e51b81526004016105729061381d565b60115483906001600160a01b03808316911614612a595760405162461bcd60e51b815260040161057290613b93565b600360009054906101000a90046001600160a01b03166001600160a01b031663b8c766b86040518163ffffffff1660e01b815260040160206040518083038186803b158015612aa757600080fd5b505afa158015612abb573d6000803e3d6000fd5b505050506040513d601f19601f82011682018060405250810190612adf9190613548565b1515600114612b005760405162461bcd60e51b815260040161057290613ab9565b6003601855601954612b13906001612e94565b601955612b1e610b11565b600e546040516367265c3b60e11b81526000916001600160a01b03169063ce4cb87690612b519088903090600401613753565b60206040518083038186803b158015612b6957600080fd5b505afa158015612b7d573d6000803e3d6000fd5b505050506040513d601f19601f82011682018060405250810190612ba191906135cc565b905083811015612bc35760405162461bcd60e51b8152600401610572906138bd565b600f5460405163da95ebf760e01b81526001600160a01b039091169063da95ebf790612bf5908890889060040161379d565b602060405180830381600087803b158015612c0f57600080fd5b505af1158015612c23573d6000803e3d6000fd5b505050506040513d601f19601f82011682018060405250810190612c479190613548565b507f1ac2a17d8d7ec451060cfbcbb66b61b7fd5fe7f887d9423102809f74bd207e828585604051612c7992919061379d565b60405180910390a150506000600b55505050565b6000828152601b6020526040902060020154612cab9061042b612eee565b610d545760405162461bcd60e51b81526004018080602001828103825260308152602001806140eb6030913960400191505060405180910390fd5b6001600160a01b03166000908152600960205260409020805460018201546002830154600384015460048501546005860154600690960154949693959294919390929160ff1690565b60195481565b60165481565b60175481565b612d5960008051602061413c833981519152336127ba565b612d755760405162461bcd60e51b815260040161057290613c4e565b336001600160a01b0382161415612d9e5760405162461bcd60e51b81526004016105729061388b565b612db660008051602061413c83398151915282610c96565b612dce60008051602061413c83398151915233612c8d565b50565b6003546001600160a01b031681565b6000546001600160a01b031681565b60125481565b6000806000806000600160009054906101000a90046001600160a01b03166001600160a01b031663504563c06040518163ffffffff1660e01b815260040160a06040518083038186803b158015612e4b57600080fd5b505afa158015612e5f573d6000803e3d6000fd5b505050506040513d601f19601f82011682018060405250810190612e839190613413565b945094509450945094509091929394565b6000828201838110156127b1576040805162461bcd60e51b815260206004820152601b60248201527f536166654d6174683a206164646974696f6e206f766572666c6f770000000000604482015290519081900360640190fd5b3390565b6000828152601b60205260409020612f0a90826130cd565b15610cf957612f17612eee565b6001600160a01b0316816001600160a01b0316837f2f8788117e7eff1d82e926ec794901d17c78024a50270940304540a733656f0d60405160405180910390a45050565b6000828152601b60205260409020612f7390826130e2565b15610cf957612f80612eee565b6001600160a01b0316816001600160a01b0316837ff6391f5c32d9c69d2a47ea670b442974b53935d1edc7fd64eb21e047a839171b60405160405180910390a45050565b600082612fd3575060006127b4565b82820282848281612fe057fe5b04146127b15760405162461bcd60e51b815260040180806020018281038252602181526020018061411b6021913960400191505060405180910390fd5b60006127b183836040518060400160405280601e81526020017f536166654d6174683a207375627472616374696f6e206f766572666c6f7700008152506130f7565b60006127b183836040518060400160405280601a81526020017f536166654d6174683a206469766973696f6e206279207a65726f00000000000081525061318e565b60006127b183836131f3565b60006127b1836001600160a01b038416613257565b60006127b48261326f565b60006127b1836001600160a01b038416613273565b60006127b1836001600160a01b0384166132bd565b600081848411156131865760405162461bcd60e51b81526004018080602001828103825283818151815260200191508051906020019080838360005b8381101561314b578181015183820152602001613133565b50505050905090810190601f1680156131785780820380516001836020036101000a031916815260200191505b509250505060405180910390fd5b505050900390565b600081836131dd5760405162461bcd60e51b815260206004820181815283516024840152835190928392604490910191908501908083836000831561314b578181015183820152602001613133565b5060008385816131e957fe5b0495945050505050565b815460009082106132355760405162461bcd60e51b815260040180806020018281038252602281526020018061409a6022913960400191505060405180910390fd5b82600001828154811061324457fe5b9060005260206000200154905092915050565b60009081526001919091016020526040902054151590565b5490565b600061327f8383613257565b6132b5575081546001818101845560008481526020808220909301849055845484825282860190935260409020919091556127b4565b5060006127b4565b6000818152600183016020526040812054801561337957835460001980830191908101906000908790839081106132f057fe5b906000526020600020015490508087600001848154811061330d57fe5b60009182526020808320909101929092558281526001898101909252604090209084019055865487908061333d57fe5b600190038181906000526020600020016000905590558660010160008781526020019081526020016000206000905560019450505050506127b4565b60009150506127b4565b600060208284031215613394578081fd5b81356127b181614076565b600080600080600060a086880312156133b6578081fd5b85516133c181614076565b60208701519095506133d281614076565b60408701519094506133e381614076565b60608701519093506133f481614076565b608087015190925061340581614076565b809150509295509295909350565b600080600080600060a0868803121561342a578081fd5b855161343581614076565b602087015190955061344681614076565b604087015190945061345781614076565b60608701516080880151919450925061340581614076565b60008060408385031215613481578182fd5b823561348c81614076565b946020939093013593505050565b600060208083850312156134ac578182fd5b825167ffffffffffffffff808211156134c3578384fd5b818501915085601f8301126134d6578384fd5b8151818111156134e257fe5b838102604051858282010181811085821117156134fb57fe5b604052828152858101935084860182860187018a1015613519578788fd5b8795505b8386101561353b57805185526001959095019493860193860161351d565b5098975050505050505050565b600060208284031215613559578081fd5b81516127b18161408b565b600060208284031215613575578081fd5b5035919050565b6000806040838503121561358e578182fd5b8235915060208301356135a081614076565b809150509250929050565b600080604083850312156135bd578182fd5b50508035926020909101359150565b6000602082840312156135dd578081fd5b5051919050565b600080604083850312156135f6578182fd5b8235915060208301356135a08161408b565b600080600080600060a0868803121561361f578081fd5b853594506020860135935060408601359250606086013561363f81614076565b949793965091946080013592915050565b60008060008060808587031215613665578182fd5b5050823594602084013594506040840135936060013592509050565b60008151808452815b818110156136a65760208185018101518683018201520161368a565b818111156136b75782602083870101525b50601f01601f19169290920160200192915050565b6bffffffffffffffffffffffff19606096871b811682526001600160e81b031960e896871b8116601484015294871b811660178301529290941b909216602b840152921b909116602e82015260420190565b6001600160a01b0391909116815260200190565b6001600160a01b039390931683526020830191909152604082015260600190565b6001600160a01b0392831681529116602082015260400190565b6001600160a01b039586168152938516602085015291841660408401526060830152909116608082015260a00190565b6001600160a01b03929092168252602082015260400190565b6001600160a01b0393909316835260208301919091521515604082015260600190565b600060018060a01b0385168252836020830152606060408301526138006060830184613681565b95945050505050565b901515815260200190565b90815260200190565b6020808252601b908201527f546f6b616d616b5374616b65723a207a65726f20616464726573730000000000604082015260600190565b6020808252601a908201527f546f6b616d616b5374616b65723a756e6973776170207a65726f000000000000604082015260600190565b6020808252601890820152772a37b5b0b6b0b5a9ba30b5b2b91d39b0b6b29037bbb732b960411b604082015260600190565b602080825260129082015271546f6b616d616b5374616b65723a6c61636b60701b604082015260600190565b60208082526021908201527f546f6b616d616b5374616b65723a746f6b616d616b4c6179657232207a65726f6040820152600160fd1b606082015260800190565b6020808252818101527f546f6b616d616b5374616b65723a207377617050726f7879206973207a65726f604082015260600190565b602080825260189082015277151bdad85b585ad4dd185ad95c8e9c195c9a5bd908195b9960421b604082015260600190565b60208082526029908201527f546f6b616d616b5374616b65723a706572696f64287769746864726177616c44604082015268195b185e4a48195b9960ba1b606082015260800190565b60208082526038908201527f546f6b616d616b5374616b65723a2073776170544f4e746f57544f4e20746f6e6040820152770818985b185b98d9481a5cc81a5b9cdd59999a58da595b9d60421b606082015260800190565b60208082526039908201527f546f6b616d616b5374616b65723a2073776170544f4e746f57544f4e2077746f6040820152781b8818985b185b98d9481a5cc81a5b9cdd59999a58da595b9d603a1b606082015260800190565b602080825260149082015273151bdad85b585ad4dd185ad95c8e9313d0d2d15160621b604082015260600190565b602080825260189082015277151bdad85b585ad4dd185ad95c8e9b9bdd0818db1bdcd95960421b604082015260600190565b60208082526021908201527f546f6b616d616b5374616b65723a617070726f7665416e6443616c6c206661696040820152601b60fa1b606082015260800190565b6020808252601a908201527f546f6b616d616b5374616b65723a696e73756666696369656e74000000000000604082015260600190565b602080825260169082015275151bdad85b585ad4dd185ad95c8e881b9bc81ada5b9960521b604082015260600190565b6020808252601d908201527f546f6b616d616b5374616b65723a646966666572656e74206c61796572000000604082015260600190565b6020808252818101527f546f6b616d616b5374616b65723a2077746f6e20696e73756666696369656e74604082015260600190565b6020808252602f908201527f546f6b616d616b5374616b65723a73776170544f4e746f57544f4e206170707260408201526e1bdd99505b9910d85b1b0819985a5b608a1b606082015260800190565b60208082526025908201527f546f6b616d616b5374616b65723a2043616c6c6572206973206e6f7420616e2060408201526430b236b4b760d91b606082015260800190565b6020808252600790820152661b9bc81ada5b9960ca1b604082015260600190565b6020808252600c908201526b756e6973776170207a65726f60a01b604082015260600190565b60208082526026908201527f546f6b616d616b5374616b65723a416c72656164792050726f63657373556e5360408201526574616b696e6760d01b606082015260800190565b6020808252601c908201527f546f6b616d616b5374616b65723a73776170546f544f4e206661696c00000000604082015260600190565b6020808252601a908201527f546f6b616d616b5374616b65723a746f6b616d616b207a65726f000000000000604082015260600190565b60208082526033908201527f546f6b616d616b5374616b65723a65786368616e676557544f4e746f464c4420604082015272185c1c1c9bdd99505b9910d85b1b0819985a5b606a1b606082015260800190565b60208082526021908201527f546f6b616d616b5374616b65723a7374616b65416d6f756e74206973207a65726040820152606f60f81b606082015260800190565b602080825260199082015278151bdad85b585ad4dd185ad95c8e881c195c9a5bd908195b99603a1b604082015260600190565b60208082526022908201527f546f6b616d616b5374616b65723a20746f6e2062616c616e6365206973207a65604082015261726f60f01b606082015260800190565b602080825260199082015278151bdad85b585ad4dd185ad95c8e881b9bdd0818db1bdcd959603a1b604082015260600190565b60208082526029908201527f546f6b616d616b5374616b65723a63616e277420617070726f766520756e69736040820152683bb0b82937baba32b960b91b606082015260800190565b600060208252825160a06020840152613f2f60c0840182613681565b905060018060a01b0360208501511660408401526040840151606084015260608401516080840152608084015160a08401528091505092915050565b81516001600160a01b03908116825260208084015182169083015260408084015162ffffff16908301526060808401518216908301526080808401519083015260a0838101519083015260c0808401519083015260e09283015116918101919091526101000190565b600060a082018783526020878185015260a0604085015281875180845260c0860191508289019350845b818110156140235784516001600160a01b031683529383019391830191600101613ffe565b50506001600160a01b03969096166060850152505050608001529392505050565b968752602087019590955260408601939093526060850191909152608084015260a0830152151560c082015260e00190565b6001600160a01b0381168114612dce57600080fd5b8015158114612dce57600080fdfe456e756d657261626c655365743a20696e646578206f7574206f6620626f756e6473416363657373436f6e74726f6c3a2073656e646572206d75737420626520616e2061646d696e20746f206772616e74416363657373436f6e74726f6c3a2073656e646572206d75737420626520616e2061646d696e20746f207265766f6b65536166654d6174683a206d756c7469706c69636174696f6e206f766572666c6f77df8b4c520ffe197c5343c6f5aec59570151ef9a492f2c624fd45ddde6135ec42416363657373436f6e74726f6c3a2063616e206f6e6c792072656e6f756e636520726f6c657320666f722073656c66a2646970667358221220efe6a9180ed4ae733e47eb315cfe71ff3d7557d5702724178b6fdea59e5a46e864736f6c63430007060033",
  "immutableReferences": {},
  "source": "// SPDX-License-Identifier: MIT\npragma solidity ^0.7.6;\npragma abicoder v2;\n\nimport \"../interfaces/ITokamakStaker.sol\";\nimport {ITON} from \"../interfaces/ITON.sol\";\nimport {IIStake1Vault} from \"../interfaces/IIStake1Vault.sol\";\nimport {IIDepositManager} from \"../interfaces/IIDepositManager.sol\";\nimport {IISeigManager} from \"../interfaces/IISeigManager.sol\";\nimport {SafeMath} from \"../utils/math/SafeMath.sol\";\nimport \"@openzeppelin/contracts/access/AccessControl.sol\";\nimport \"../stake/StakeTONStorage.sol\";\nimport \"@uniswap/v3-periphery/contracts/interfaces/ISwapRouter.sol\";\nimport \"@uniswap/v2-periphery/contracts/interfaces/IUniswapV2Router01.sol\";\n\ninterface IERC20BASE {\n    function totalSupply() external view returns (uint256);\n\n    function balanceOf(address owner) external view returns (uint256);\n\n    function approve(address spender, uint256 value) external returns (bool);\n\n    function transfer(address to, uint256 value) external returns (bool);\n\n    function transferFrom(\n        address from,\n        address to,\n        uint256 value\n    ) external returns (bool);\n}\n\ninterface IIWTON {\n    function swapToTON(uint256 wtonAmount) external returns (bool);\n}\n\ninterface ITokamakRegistry {\n    function getTokamak()\n        external\n        view\n        returns (\n            address,\n            address,\n            address,\n            address,\n            address\n        );\n\n    function getUniswap()\n        external\n        view\n        returns (\n            address,\n            address,\n            address,\n            uint256,\n            address\n        );\n}\n\n/// @title The connector that integrates tokamak\ncontract TokamakStaker is StakeTONStorage, AccessControl, ITokamakStaker {\n    using SafeMath for uint256;\n    bytes32 public constant ADMIN_ROLE = keccak256(\"ADMIN\");\n\n    modifier nonZero(address _addr) {\n        require(_addr != address(0), \"TokamakStaker: zero address\");\n        _;\n    }\n\n    modifier sameTokamakLayer(address _addr) {\n        require(tokamakLayer2 == _addr, \"TokamakStaker:different layer\");\n        _;\n    }\n\n    modifier onlyOwner() {\n        require(\n            hasRole(ADMIN_ROLE, msg.sender),\n            \"TokamakStaker: Caller is not an admin\"\n        );\n        _;\n    }\n\n    modifier lock() {\n        require(_lock == 0, \"TokamakStaker:LOCKED\");\n        _lock = 1;\n        _;\n        _lock = 0;\n    }\n\n    /// @dev event on set the registry address\n    /// @param registry the registry address\n    event SetRegistry(address registry);\n\n    /// @dev event on set the tokamak Layer2 address\n    /// @param layer2 the tokamak Layer2 address\n    event SetTokamakLayer2(address layer2);\n\n    /// @dev event on staking the staked TON in layer2 in tokamak\n    /// @param layer2 the layer2 address in tokamak\n    /// @param amount the amount that stake to layer2\n    event tokamakStaked(address layer2, uint256 amount);\n\n    /// @dev event on request unstaking the wtonAmount in layer2 in tokamak\n    /// @param layer2 the layer2 address in tokamak\n    /// @param amount the amount requested to unstaking\n    event tokamakRequestedUnStaking(address layer2, uint256 amount);\n\n    /// @dev event on process unstaking in layer2 in tokamak\n    /// @param layer2 the layer2 address in tokamak\n    /// @param rn the number of requested unstaking\n    /// @param receiveTON if is true ,TON , else is WTON\n    event tokamakProcessedUnStaking(\n        address layer2,\n        uint256 rn,\n        bool receiveTON\n    );\n\n    /// @dev event on request unstaking the amount of all in layer2 in tokamak\n    /// @param layer2 the layer2 address in tokamak\n    event tokamakRequestedUnStakingAll(address layer2);\n\n    /// @dev exchange WTON to FLD using uniswap v3\n    /// @param caller the sender\n    /// @param amountIn the input amount\n    /// @return amountOut the amount of exchanged out token\n    event exchangedWTONtoFLD(\n        address caller,\n        uint256 amountIn,\n        uint256 amountOut\n    );\n\n    /// @dev exchange WTON to FLD using uniswap v2\n    /// @param caller the sender\n    /// @param amountIn the input amount\n    /// @return amountOut the amount of exchanged out token\n    event exchangedWTONtoFLD2(\n        address caller,\n        uint256 amountIn,\n        uint256 amountOut\n    );\n\n    /// @dev transfer Ownership\n    /// @param newOwner new owner address\n    function transferOwnership(address newOwner) external onlyOwner {\n        require(msg.sender != newOwner, \"TokamakStaker:same owner\");\n        grantRole(ADMIN_ROLE, newOwner);\n        revokeRole(ADMIN_ROLE, msg.sender);\n    }\n\n    /// @dev set registry address\n    /// @param _registry new registry address\n    function setRegistry(address _registry)\n        external\n        onlyOwner\n        nonZero(_registry)\n    {\n        stakeRegistry = _registry;\n\n        emit SetRegistry(stakeRegistry);\n    }\n\n    /// @dev set the tokamak Layer2 address\n    /// @param _layer2 new the tokamak Layer2 address\n    function setTokamakLayer2(address _layer2) external override onlyOwner {\n        require(\n            _layer2 != address(0) && tokamakLayer2 != _layer2,\n            \"TokamakStaker:tokamakLayer2 zero \"\n        );\n        tokamakLayer2 = _layer2;\n\n        emit SetTokamakLayer2(_layer2);\n    }\n\n    /// @dev get the addresses that used in uniswap interfaces\n    /// @return uniswapRouter the address of uniswapRouter\n    /// @return npm the address of positionManagerAddress\n    /// @return ext the address of ext\n    /// @return fee the amount of fee\n    function getUniswapInfo()\n        external\n        view\n        override\n        returns (\n            address uniswapRouter,\n            address npm,\n            address ext,\n            uint256 fee,\n            address uniswapRouterV2\n        )\n    {\n        return ITokamakRegistry(stakeRegistry).getUniswap();\n    }\n\n    /// @dev Change the TON holded in contract have to WTON, or change WTON to TON.\n    /// @param amount the amount to be changed\n    /// @param toWTON if it's true, TON->WTON , else WTON->TON\n    function swapTONtoWTON(uint256 amount, bool toWTON) public override lock {\n        checkTokamak();\n\n        if (toWTON) {\n            require(\n                swapProxy != address(0),\n                \"TokamakStaker: swapProxy is zero\"\n            );\n            require(\n                IERC20BASE(ton).balanceOf(address(this)) >= amount,\n                \"TokamakStaker: swapTONtoWTON ton balance is insufficient\"\n            );\n            bytes memory data = abi.encode(swapProxy, swapProxy);\n            require(\n                ITON(ton).approveAndCall(wton, amount, data),\n                \"TokamakStaker:swapTONtoWTON approveAndCall fail\"\n            );\n        } else {\n            require(\n                IERC20BASE(wton).balanceOf(address(this)) >= amount,\n                \"TokamakStaker: swapTONtoWTON wton balance is insufficient\"\n            );\n            require(\n                IIWTON(wton).swapToTON(amount),\n                \"TokamakStaker:swapToTON fail\"\n            );\n        }\n    }\n\n    /// @dev If the tokamak addresses is not set, set the addresses.\n    function checkTokamak() public {\n        if (ton == address(0)) {\n            (\n                address _ton,\n                address _wton,\n                address _depositManager,\n                address _seigManager,\n                address _swapProxy\n            ) = ITokamakRegistry(stakeRegistry).getTokamak();\n\n            ton = _ton;\n            wton = _wton;\n            depositManager = _depositManager;\n            seigManager = _seigManager;\n            swapProxy = _swapProxy;\n        }\n        require(\n            ton != address(0) &&\n                wton != address(0) &&\n                seigManager != address(0) &&\n                depositManager != address(0) &&\n                swapProxy != address(0),\n            \"TokamakStaker:tokamak zero\"\n        );\n    }\n\n    /// @dev  staking the staked TON in layer2 in tokamak\n    /// @param _layer2 the layer2 address in tokamak\n    /// @param stakeAmount the amount that stake to layer2\n    function tokamakStaking(address _layer2, uint256 stakeAmount)\n        external\n        override\n        lock\n        nonZero(stakeRegistry)\n        nonZero(_layer2)\n    {\n        require(block.number <= endBlock, \"TokamakStaker:period end\");\n        require(stakeAmount > 0, \"TokamakStaker:stakeAmount is zero\");\n        require(\n            IIStake1Vault(vault).saleClosed() == true,\n            \"TokamakStaker:not closed\"\n        );\n        defiStatus = uint256(LibTokenStake1.DefiStatus.DEPOSITED);\n\n        checkTokamak();\n\n        uint256 globalWithdrawalDelay =\n            IIDepositManager(depositManager).globalWithdrawalDelay();\n        require(\n            block.number < endBlock - globalWithdrawalDelay,\n            \"TokamakStaker:period(withdrawalDelay) end\"\n        );\n\n        if (tokamakLayer2 == address(0)) tokamakLayer2 = _layer2;\n        else {\n            if (\n                IISeigManager(seigManager).stakeOf(\n                    tokamakLayer2,\n                    address(this)\n                ) >\n                0 ||\n                IIDepositManager(depositManager).pendingUnstaked(\n                    tokamakLayer2,\n                    address(this)\n                ) >\n                0\n            ) {\n                require(\n                    tokamakLayer2 == _layer2,\n                    \"TokamakStaker:different layer\"\n                );\n            } else {\n                if (tokamakLayer2 != _layer2) tokamakLayer2 = _layer2;\n            }\n        }\n\n        require(\n            IERC20BASE(ton).balanceOf(address(this)) >= stakeAmount,\n            \"TokamakStaker: ton balance is zero\"\n        );\n        toTokamak = toTokamak.add(stakeAmount);\n        bytes memory data = abi.encode(depositManager, _layer2);\n        require(\n            ITON(ton).approveAndCall(wton, stakeAmount, data),\n            \"TokamakStaker:approveAndCall fail\"\n        );\n\n        emit tokamakStaked(_layer2, stakeAmount);\n    }\n\n    /// @dev  request unstaking the wtonAmount in layer2 in tokamak\n    /// @param _layer2 the layer2 address in tokamak\n    /// @param wtonAmount the amount requested to unstaking\n    function tokamakRequestUnStaking(address _layer2, uint256 wtonAmount)\n        public\n        override\n        lock\n        nonZero(stakeRegistry)\n        sameTokamakLayer(_layer2)\n    {\n        require(\n            IIStake1Vault(vault).saleClosed() == true,\n            \"TokamakStaker:not closed\"\n        );\n        defiStatus = uint256(LibTokenStake1.DefiStatus.REQUESTWITHDRAW);\n        requestNum = requestNum.add(1);\n        checkTokamak();\n\n        uint256 stakeOf =\n            IISeigManager(seigManager).stakeOf(_layer2, address(this));\n\n        require(stakeOf >= wtonAmount, \"TokamakStaker:lack\");\n\n        IIDepositManager(depositManager).requestWithdrawal(_layer2, wtonAmount);\n\n        emit tokamakRequestedUnStaking(_layer2, wtonAmount);\n    }\n\n    /// @dev  request unstaking the amount of all in layer2 in tokamak\n    /// @param _layer2 the layer2 address in tokamak\n    function tokamakRequestUnStakingAll(address _layer2)\n        public\n        override\n        lock\n        nonZero(stakeRegistry)\n        sameTokamakLayer(_layer2)\n    {\n        require(\n            IIStake1Vault(vault).saleClosed() == true,\n            \"TokamakStaker:not closed\"\n        );\n        defiStatus = uint256(LibTokenStake1.DefiStatus.REQUESTWITHDRAW);\n        requestNum = requestNum.add(1);\n        checkTokamak();\n\n        IIDepositManager(depositManager).requestWithdrawalAll(_layer2);\n\n        emit tokamakRequestedUnStakingAll(_layer2);\n    }\n\n    /// @dev process unstaking in layer2 in tokamak\n    /// @param _layer2 the layer2 address in tokamak\n    function tokamakProcessUnStaking(address _layer2)\n        public\n        override\n        lock\n        nonZero(stakeRegistry)\n        sameTokamakLayer(_layer2)\n    {\n        require(\n            defiStatus != uint256(LibTokenStake1.DefiStatus.WITHDRAW),\n            \"TokamakStaker:Already ProcessUnStaking\"\n        );\n        require(\n            IIStake1Vault(vault).saleClosed() == true,\n            \"TokamakStaker:not closed\"\n        );\n        defiStatus = uint256(LibTokenStake1.DefiStatus.WITHDRAW);\n        uint256 rn = requestNum;\n        requestNum = 0;\n        checkTokamak();\n\n        if (\n            IISeigManager(seigManager).stakeOf(tokamakLayer2, address(this)) ==\n            0\n        ) tokamakLayer2 = address(0);\n\n        fromTokamak += IIDepositManager(depositManager).pendingUnstaked(\n            _layer2,\n            address(this)\n        );\n\n        // receiveTON = false . to WTON\n        IIDepositManager(depositManager).processRequests(_layer2, rn, true);\n\n        emit tokamakProcessedUnStaking(_layer2, rn, true);\n    }\n\n    /// @dev exchange holded WTON to FLD using uniswap\n    /// @notice\n    /// @param _amountIn the input amount\n    /// @param _amountOutMinimum the minimun output amount\n    /// @param _deadline deadline\n    /// @param _sqrtPriceLimitX96 sqrtPriceLimitX96\n    /// @param _kind the function type, if 0, use exactInputSingle function, else if, use exactInput function\n    /// @return amountOut the amount of exchanged out token\n    function exchangeWTONtoFLD(\n        uint256 _amountIn,\n        uint256 _amountOutMinimum,\n        uint256 _deadline,\n        uint160 _sqrtPriceLimitX96,\n        uint256 _kind\n    ) external override lock returns (uint256 amountOut) {\n        require(block.number <= endBlock, \"TokamakStaker: period end\");\n        require(\n            IIStake1Vault(vault).saleClosed() == true,\n            \"TokamakStaker: not closed\"\n        );\n        require(_kind < 2, \"TokamakStaker: no kind\");\n\n        checkTokamak();\n\n        {\n            uint256 _amountWTON = IERC20BASE(wton).balanceOf(address(this));\n            uint256 _amountTON = IERC20BASE(ton).balanceOf(address(this));\n            uint256 stakeOf = 0;\n            if (tokamakLayer2 != address(0)) {\n                stakeOf = IISeigManager(seigManager).stakeOf(\n                    tokamakLayer2,\n                    address(this)\n                );\n                stakeOf = stakeOf.add(\n                    IIDepositManager(depositManager).pendingUnstaked(\n                        tokamakLayer2,\n                        address(this)\n                    )\n                );\n            }\n            uint256 holdAmount = _amountWTON;\n            if (_amountTON > 0)\n                holdAmount = holdAmount.add(_amountTON.mul(10**9));\n            require(\n                holdAmount >= _amountIn,\n                \"TokamakStaker: wton insufficient\"\n            );\n\n            if (stakeOf > 0) holdAmount = holdAmount.add(stakeOf);\n\n            require(\n                holdAmount > totalStakedAmount.mul(10**9) &&\n                    holdAmount.sub(totalStakedAmount.mul(10**9)) >= _amountIn,\n                \"TokamakStaker:insufficient\"\n            );\n            if (_amountWTON < _amountIn) {\n                bytes memory data = abi.encode(swapProxy, swapProxy);\n                uint256 swapTON = _amountIn.sub(_amountWTON).div(10**9);\n                require(\n                    ITON(ton).approveAndCall(wton, swapTON, data),\n                    \"TokamakStaker:exchangeWTONtoFLD approveAndCall fail\"\n                );\n            }\n        }\n\n        toUniswapWTON += _amountIn;\n        (address uniswapRouter, , address wethAddress, uint256 _fee, ) =\n            ITokamakRegistry(stakeRegistry).getUniswap();\n        require(uniswapRouter != address(0), \"TokamakStaker:uniswap zero\");\n        require(\n            IERC20BASE(wton).approve(uniswapRouter, _amountIn),\n            \"TokamakStaker:can't approve uniswapRouter\"\n        );\n\n        if (_kind == 0) {\n            ISwapRouter.ExactInputSingleParams memory params =\n                ISwapRouter.ExactInputSingleParams({\n                    tokenIn: wton,\n                    tokenOut: token,\n                    fee: uint24(_fee),\n                    recipient: address(this),\n                    deadline: _deadline,\n                    amountIn: _amountIn,\n                    amountOutMinimum: _amountOutMinimum,\n                    sqrtPriceLimitX96: _sqrtPriceLimitX96\n                });\n            amountOut = ISwapRouter(uniswapRouter).exactInputSingle(params);\n        } else if (_kind == 1) {\n            ISwapRouter.ExactInputParams memory params =\n                ISwapRouter.ExactInputParams({\n                    path: abi.encodePacked(\n                        wton,\n                        uint24(_fee),\n                        wethAddress,\n                        uint24(_fee),\n                        token\n                    ),\n                    recipient: address(this),\n                    amountIn: _amountIn,\n                    amountOutMinimum: _amountOutMinimum,\n                    deadline: _deadline\n                });\n            amountOut = ISwapRouter(uniswapRouter).exactInput(params);\n        }\n\n        emit exchangedWTONtoFLD(msg.sender, _amountIn, amountOut);\n    }\n\n    /// @dev exchange holded WTON to FLD using uniswap-v2\n    /// @param _amountIn the input amount\n    /// @param _amountOutMinimum the minimun output amount\n    /// @param _deadline deadline\n    /// @param _kind the function type, if 0, use exactInputSingle function, else if, use exactInput function\n    function exchangeWTONtoFLDv2(\n        uint256 _amountIn,\n        uint256 _amountOutMinimum,\n        uint256 _deadline,\n        uint256 _kind\n    ) external override lock returns (uint256 amountOut) {\n        require(block.number <= endBlock, \"TokamakStaker:period end\");\n        require(\n            IIStake1Vault(vault).saleClosed() == true,\n            \"TokamakStaker:not closed\"\n        );\n        require(_kind < 2, \"no kind\");\n        checkTokamak();\n\n        {\n            uint256 _amountWTON = IERC20BASE(wton).balanceOf(address(this));\n            uint256 _amountTON = IERC20BASE(ton).balanceOf(address(this));\n            uint256 stakeOf = 0;\n            if (tokamakLayer2 != address(0)) {\n                stakeOf = IISeigManager(seigManager).stakeOf(\n                    tokamakLayer2,\n                    address(this)\n                );\n                stakeOf = stakeOf.add(\n                    IIDepositManager(depositManager).pendingUnstaked(\n                        tokamakLayer2,\n                        address(this)\n                    )\n                );\n            }\n            uint256 holdAmount = _amountWTON;\n            if (_amountTON > 0)\n                holdAmount = holdAmount.add(_amountTON.mul(10**9));\n            require(\n                holdAmount >= _amountIn,\n                \"TokamakStaker: wton insufficient\"\n            );\n\n            if (stakeOf > 0) holdAmount = holdAmount.add(stakeOf);\n            require(\n                holdAmount > totalStakedAmount.mul(10**9) &&\n                    holdAmount.sub(totalStakedAmount.mul(10**9)) >= _amountIn,\n                \"TokamakStaker:insufficient\"\n            );\n            if (_amountWTON < _amountIn) {\n                bytes memory data = abi.encode(swapProxy, swapProxy);\n                uint256 swapTON = _amountIn.sub(_amountWTON).div(10**9);\n                require(\n                    ITON(ton).approveAndCall(wton, swapTON, data),\n                    \"TokamakStaker:exchangeWTONtoFLD approveAndCall fail\"\n                );\n            }\n        }\n\n        toUniswapWTON += _amountIn;\n        (, , address wethAddress, , address uniswapRouterV2) =\n            ITokamakRegistry(stakeRegistry).getUniswap();\n\n        require(uniswapRouterV2 != address(0), \"uniswap zero\");\n        require(\n            IERC20BASE(wton).approve(uniswapRouterV2, _amountIn),\n            \"TokamakStaker:can't approve uniswapRouter\"\n        );\n\n        if (_kind == 0) {\n            address[] memory path = new address[](2);\n            path[0] = wton;\n            path[1] = token;\n            uint256[] memory amounts =\n                IUniswapV2Router01(uniswapRouterV2).swapExactTokensForTokens(\n                    _amountIn,\n                    _amountOutMinimum,\n                    path,\n                    address(this),\n                    _deadline\n                );\n            amountOut = amounts[amounts.length - 1];\n        } else {\n            address[] memory path = new address[](3);\n            path[0] = wton;\n            path[1] = wethAddress;\n            path[2] = token;\n            uint256[] memory amounts =\n                IUniswapV2Router01(uniswapRouterV2).swapExactTokensForTokens(\n                    _amountIn,\n                    _amountOutMinimum,\n                    path,\n                    address(this),\n                    _deadline\n                );\n            amountOut = amounts[amounts.length - 1];\n        }\n\n        emit exchangedWTONtoFLD2(msg.sender, _amountIn, amountOut);\n    }\n\n    /*\n    function exactInputSingle(uint256 _amountIn, uint256 _amountOutMinimum, uint256 _deadline, uint256 _sqrtPriceLimitX96)\n        external onlyOwner lock returns (uint256 amountOut)\n    {\n        checkTokamak();\n\n        (address uniswapRouter, , address wethAddress, uint256 _fee, ) =\n            ITokamakRegistry(stakeRegistry).getUniswap();\n\n        // address uniswapRouter = 0xE592427A0AEce92De3Edee1F18E0157C05861564;\n        // address wethAddress = 0xc778417E063141139Fce010982780140Aa0cD5Ab;\n        // uint256 _fee = 500;\n\n        require(\n            IERC20BASE(wton).approve(uniswapRouter, _amountIn),\n            \"TokamakStaker:can't approve uniswapRouter\"\n        );\n\n        ISwapRouter.ExactInputSingleParams memory params = ISwapRouter.ExactInputSingleParams(\n            wton,\n            token,\n            uint24(_fee),\n            address(this),\n            _deadline,\n            _amountIn,\n            _amountOutMinimum,\n            uint160(_sqrtPriceLimitX96)\n        );\n        amountOut = ISwapRouter(uniswapRouter).exactInputSingle(params);\n    }\n\n    function exactInput(uint256 _amountIn, uint256 _amountOutMinimum, uint256 _deadline)\n        external onlyOwner lock returns (uint256 amountOut)\n    {\n        checkTokamak();\n\n        (address uniswapRouter, , address wethAddress, uint256 _fee, ) =\n            ITokamakRegistry(stakeRegistry).getUniswap();\n\n        require(\n            IERC20BASE(wton).approve(uniswapRouter, _amountIn),\n            \"TokamakStaker:can't approve uniswapRouter\"\n        );\n\n        ISwapRouter.ExactInputParams memory params = ISwapRouter.ExactInputParams(\n            abi.encodePacked(\n                        wton,\n                        uint24(_fee),\n                        wethAddress,\n                        uint24(_fee),\n                        token\n                    ),\n            address(this),\n            _deadline,\n            _amountIn,\n            _amountOutMinimum\n        );\n        amountOut = ISwapRouter(uniswapRouter).exactInput(params);\n    }\n    */\n}\n",
  "sourcePath": "/Users/zena/ico2.0/ico20-contracts/contracts/connection/TokamakStaker.sol",
  "compiler": {
    "name": "solc",
    "version": "0.7.6+commit.7338295f.Emscripten.clang"
  },
  "schemaVersion": "3.3.4",
  "updatedAt": "2021-06-07T01:48:52.018Z",
  "devdoc": {
    "events": {
      "SetRegistry(address)": {
        "details": "event on set the registry address",
        "params": {
          "registry": "the registry address"
        }
      },
      "SetTokamakLayer2(address)": {
        "details": "event on set the tokamak Layer2 address",
        "params": {
          "layer2": "the tokamak Layer2 address"
        }
      },
      "exchangedWTONtoFLD(address,uint256,uint256)": {
        "details": "exchange WTON to FLD using uniswap v3",
        "params": {
          "amountIn": "the input amount",
          "caller": "the sender"
        }
      },
      "exchangedWTONtoFLD2(address,uint256,uint256)": {
        "details": "exchange WTON to FLD using uniswap v2",
        "params": {
          "amountIn": "the input amount",
          "caller": "the sender"
        }
      },
      "tokamakProcessedUnStaking(address,uint256,bool)": {
        "details": "event on process unstaking in layer2 in tokamak",
        "params": {
          "layer2": "the layer2 address in tokamak",
          "receiveTON": "if is true ,TON , else is WTON",
          "rn": "the number of requested unstaking"
        }
      },
      "tokamakRequestedUnStaking(address,uint256)": {
        "details": "event on request unstaking the wtonAmount in layer2 in tokamak",
        "params": {
          "amount": "the amount requested to unstaking",
          "layer2": "the layer2 address in tokamak"
        }
      },
      "tokamakRequestedUnStakingAll(address)": {
        "details": "event on request unstaking the amount of all in layer2 in tokamak",
        "params": {
          "layer2": "the layer2 address in tokamak"
        }
      },
      "tokamakStaked(address,uint256)": {
        "details": "event on staking the staked TON in layer2 in tokamak",
        "params": {
          "amount": "the amount that stake to layer2",
          "layer2": "the layer2 address in tokamak"
        }
      }
    },
    "kind": "dev",
    "methods": {
      "checkTokamak()": {
        "details": "If the tokamak addresses is not set, set the addresses."
      },
      "exchangeWTONtoFLD(uint256,uint256,uint256,uint160,uint256)": {
        "details": "exchange holded WTON to FLD using uniswap",
        "params": {
          "_amountOutMinimum": "the minimun output amount",
          "_deadline": "deadline",
          "_kind": "the function type, if 0, use exactInputSingle function, else if, use exactInput function",
          "_sqrtPriceLimitX96": "sqrtPriceLimitX96"
        },
        "returns": {
          "amountOut": "the amount of exchanged out token"
        }
      },
      "exchangeWTONtoFLDv2(uint256,uint256,uint256,uint256)": {
        "details": "exchange holded WTON to FLD using uniswap-v2",
        "params": {
          "_amountIn": "the input amount",
          "_amountOutMinimum": "the minimun output amount",
          "_deadline": "deadline",
          "_kind": "the function type, if 0, use exactInputSingle function, else if, use exactInput function"
        }
      },
      "getRoleAdmin(bytes32)": {
        "details": "Returns the admin role that controls `role`. See {grantRole} and {revokeRole}. To change a role's admin, use {_setRoleAdmin}."
      },
      "getRoleMember(bytes32,uint256)": {
        "details": "Returns one of the accounts that have `role`. `index` must be a value between 0 and {getRoleMemberCount}, non-inclusive. Role bearers are not sorted in any particular way, and their ordering may change at any point. WARNING: When using {getRoleMember} and {getRoleMemberCount}, make sure you perform all queries on the same block. See the following https://forum.openzeppelin.com/t/iterating-over-elements-on-enumerableset-in-openzeppelin-contracts/2296[forum post] for more information."
      },
      "getRoleMemberCount(bytes32)": {
        "details": "Returns the number of accounts that have `role`. Can be used together with {getRoleMember} to enumerate all bearers of a role."
      },
      "getUniswapInfo()": {
        "details": "get the addresses that used in uniswap interfaces",
        "returns": {
          "ext": "the address of ext",
          "fee": "the amount of fee",
          "npm": "the address of positionManagerAddress",
          "uniswapRouter": "the address of uniswapRouter"
        }
      },
      "getUserStaked(address)": {
        "details": "user's staked information"
      },
      "grantRole(bytes32,address)": {
        "details": "Grants `role` to `account`. If `account` had not been already granted `role`, emits a {RoleGranted} event. Requirements: - the caller must have ``role``'s admin role."
      },
      "hasRole(bytes32,address)": {
        "details": "Returns `true` if `account` has been granted `role`."
      },
      "renounceRole(bytes32,address)": {
        "details": "Revokes `role` from the calling account. Roles are often managed via {grantRole} and {revokeRole}: this function's purpose is to provide a mechanism for accounts to lose their privileges if they are compromised (such as when a trusted device is misplaced). If the calling account had been granted `role`, emits a {RoleRevoked} event. Requirements: - the caller must be `account`."
      },
      "revokeRole(bytes32,address)": {
        "details": "Revokes `role` from `account`. If `account` had been granted `role`, emits a {RoleRevoked} event. Requirements: - the caller must have ``role``'s admin role."
      },
      "setRegistry(address)": {
        "details": "set registry address",
        "params": {
          "_registry": "new registry address"
        }
      },
      "setTokamakLayer2(address)": {
        "details": "set the tokamak Layer2 address",
        "params": {
          "_layer2": "new the tokamak Layer2 address"
        }
      },
      "swapTONtoWTON(uint256,bool)": {
        "details": "Change the TON holded in contract have to WTON, or change WTON to TON.",
        "params": {
          "amount": "the amount to be changed",
          "toWTON": "if it's true, TON->WTON , else WTON->TON"
        }
      },
      "tokamakProcessUnStaking(address)": {
        "details": "process unstaking in layer2 in tokamak",
        "params": {
          "_layer2": "the layer2 address in tokamak"
        }
      },
      "tokamakRequestUnStaking(address,uint256)": {
        "details": "request unstaking the wtonAmount in layer2 in tokamak",
        "params": {
          "_layer2": "the layer2 address in tokamak",
          "wtonAmount": "the amount requested to unstaking"
        }
      },
      "tokamakRequestUnStakingAll(address)": {
        "details": "request unstaking the amount of all in layer2 in tokamak",
        "params": {
          "_layer2": "the layer2 address in tokamak"
        }
      },
      "tokamakStaking(address,uint256)": {
        "details": "staking the staked TON in layer2 in tokamak",
        "params": {
          "_layer2": "the layer2 address in tokamak",
          "stakeAmount": "the amount that stake to layer2"
        }
      },
      "transferOwnership(address)": {
        "details": "transfer Ownership",
        "params": {
          "newOwner": "new owner address"
        }
      }
    },
    "title": "The connector that integrates tokamak",
    "version": 1
  },
  "userdoc": {
    "kind": "user",
    "methods": {
      "exchangeWTONtoFLD(uint256,uint256,uint256,uint160,uint256)": {
        "notice": "@param _amountIn the input amount"
      }
    },
    "version": 1
  }
}