{
  "contractName": "TokamakStaker",
  "abi": [
    {
      "anonymous": false,
      "inputs": [
        {
          "indexed": true,
          "internalType": "bytes32",
          "name": "role",
          "type": "bytes32"
        },
        {
          "indexed": true,
          "internalType": "bytes32",
          "name": "previousAdminRole",
          "type": "bytes32"
        },
        {
          "indexed": true,
          "internalType": "bytes32",
          "name": "newAdminRole",
          "type": "bytes32"
        }
      ],
      "name": "RoleAdminChanged",
      "type": "event"
    },
    {
      "anonymous": false,
      "inputs": [
        {
          "indexed": true,
          "internalType": "bytes32",
          "name": "role",
          "type": "bytes32"
        },
        {
          "indexed": true,
          "internalType": "address",
          "name": "account",
          "type": "address"
        },
        {
          "indexed": true,
          "internalType": "address",
          "name": "sender",
          "type": "address"
        }
      ],
      "name": "RoleGranted",
      "type": "event"
    },
    {
      "anonymous": false,
      "inputs": [
        {
          "indexed": true,
          "internalType": "bytes32",
          "name": "role",
          "type": "bytes32"
        },
        {
          "indexed": true,
          "internalType": "address",
          "name": "account",
          "type": "address"
        },
        {
          "indexed": true,
          "internalType": "address",
          "name": "sender",
          "type": "address"
        }
      ],
      "name": "RoleRevoked",
      "type": "event"
    },
    {
      "anonymous": false,
      "inputs": [
        {
          "indexed": false,
          "internalType": "address",
          "name": "ton",
          "type": "address"
        },
        {
          "indexed": false,
          "internalType": "address",
          "name": "wton",
          "type": "address"
        },
        {
          "indexed": false,
          "internalType": "address",
          "name": "depositManager",
          "type": "address"
        },
        {
          "indexed": false,
          "internalType": "address",
          "name": "seigManager",
          "type": "address"
        },
        {
          "indexed": false,
          "internalType": "address",
          "name": "defiAddr",
          "type": "address"
        }
      ],
      "name": "SetTokamak",
      "type": "event"
    },
    {
      "anonymous": false,
      "inputs": [
        {
          "indexed": false,
          "internalType": "address",
          "name": "router",
          "type": "address"
        }
      ],
      "name": "SetUniswapRouter",
      "type": "event"
    },
    {
      "inputs": [],
      "name": "ADMIN_ROLE",
      "outputs": [
        {
          "internalType": "bytes32",
          "name": "",
          "type": "bytes32"
        }
      ],
      "stateMutability": "view",
      "type": "function"
    },
    {
      "inputs": [],
      "name": "DEFAULT_ADMIN_ROLE",
      "outputs": [
        {
          "internalType": "bytes32",
          "name": "",
          "type": "bytes32"
        }
      ],
      "stateMutability": "view",
      "type": "function"
    },
    {
      "inputs": [],
      "name": "depositManager",
      "outputs": [
        {
          "internalType": "address",
          "name": "",
          "type": "address"
        }
      ],
      "stateMutability": "view",
      "type": "function"
    },
    {
      "inputs": [],
      "name": "endBlock",
      "outputs": [
        {
          "internalType": "uint256",
          "name": "",
          "type": "uint256"
        }
      ],
      "stateMutability": "view",
      "type": "function"
    },
    {
      "inputs": [],
      "name": "fromTokamak",
      "outputs": [
        {
          "internalType": "uint256",
          "name": "",
          "type": "uint256"
        }
      ],
      "stateMutability": "view",
      "type": "function"
    },
    {
      "inputs": [
        {
          "internalType": "bytes32",
          "name": "role",
          "type": "bytes32"
        }
      ],
      "name": "getRoleAdmin",
      "outputs": [
        {
          "internalType": "bytes32",
          "name": "",
          "type": "bytes32"
        }
      ],
      "stateMutability": "view",
      "type": "function"
    },
    {
      "inputs": [
        {
          "internalType": "bytes32",
          "name": "role",
          "type": "bytes32"
        },
        {
          "internalType": "uint256",
          "name": "index",
          "type": "uint256"
        }
      ],
      "name": "getRoleMember",
      "outputs": [
        {
          "internalType": "address",
          "name": "",
          "type": "address"
        }
      ],
      "stateMutability": "view",
      "type": "function"
    },
    {
      "inputs": [
        {
          "internalType": "bytes32",
          "name": "role",
          "type": "bytes32"
        }
      ],
      "name": "getRoleMemberCount",
      "outputs": [
        {
          "internalType": "uint256",
          "name": "",
          "type": "uint256"
        }
      ],
      "stateMutability": "view",
      "type": "function"
    },
    {
      "inputs": [
        {
          "internalType": "bytes32",
          "name": "role",
          "type": "bytes32"
        },
        {
          "internalType": "address",
          "name": "account",
          "type": "address"
        }
      ],
      "name": "grantRole",
      "outputs": [],
      "stateMutability": "nonpayable",
      "type": "function"
    },
    {
      "inputs": [
        {
          "internalType": "bytes32",
          "name": "role",
          "type": "bytes32"
        },
        {
          "internalType": "address",
          "name": "account",
          "type": "address"
        }
      ],
      "name": "hasRole",
      "outputs": [
        {
          "internalType": "bool",
          "name": "",
          "type": "bool"
        }
      ],
      "stateMutability": "view",
      "type": "function"
    },
    {
      "inputs": [],
      "name": "paytoken",
      "outputs": [
        {
          "internalType": "address",
          "name": "",
          "type": "address"
        }
      ],
      "stateMutability": "view",
      "type": "function"
    },
    {
      "inputs": [
        {
          "internalType": "bytes32",
          "name": "role",
          "type": "bytes32"
        },
        {
          "internalType": "address",
          "name": "account",
          "type": "address"
        }
      ],
      "name": "renounceRole",
      "outputs": [],
      "stateMutability": "nonpayable",
      "type": "function"
    },
    {
      "inputs": [
        {
          "internalType": "bytes32",
          "name": "role",
          "type": "bytes32"
        },
        {
          "internalType": "address",
          "name": "account",
          "type": "address"
        }
      ],
      "name": "revokeRole",
      "outputs": [],
      "stateMutability": "nonpayable",
      "type": "function"
    },
    {
      "inputs": [],
      "name": "rewardClaimedTotal",
      "outputs": [
        {
          "internalType": "uint256",
          "name": "",
          "type": "uint256"
        }
      ],
      "stateMutability": "view",
      "type": "function"
    },
    {
      "inputs": [],
      "name": "saleStartBlock",
      "outputs": [
        {
          "internalType": "uint256",
          "name": "",
          "type": "uint256"
        }
      ],
      "stateMutability": "view",
      "type": "function"
    },
    {
      "inputs": [],
      "name": "seigManager",
      "outputs": [
        {
          "internalType": "address",
          "name": "",
          "type": "address"
        }
      ],
      "stateMutability": "view",
      "type": "function"
    },
    {
      "inputs": [],
      "name": "startBlock",
      "outputs": [
        {
          "internalType": "uint256",
          "name": "",
          "type": "uint256"
        }
      ],
      "stateMutability": "view",
      "type": "function"
    },
    {
      "inputs": [],
      "name": "toTokamak",
      "outputs": [
        {
          "internalType": "uint256",
          "name": "",
          "type": "uint256"
        }
      ],
      "stateMutability": "view",
      "type": "function"
    },
    {
      "inputs": [],
      "name": "toUniswapTON",
      "outputs": [
        {
          "internalType": "uint256",
          "name": "",
          "type": "uint256"
        }
      ],
      "stateMutability": "view",
      "type": "function"
    },
    {
      "inputs": [],
      "name": "tokamakLayer2",
      "outputs": [
        {
          "internalType": "address",
          "name": "",
          "type": "address"
        }
      ],
      "stateMutability": "view",
      "type": "function"
    },
    {
      "inputs": [],
      "name": "token",
      "outputs": [
        {
          "internalType": "address",
          "name": "",
          "type": "address"
        }
      ],
      "stateMutability": "view",
      "type": "function"
    },
    {
      "inputs": [],
      "name": "ton",
      "outputs": [
        {
          "internalType": "address",
          "name": "",
          "type": "address"
        }
      ],
      "stateMutability": "view",
      "type": "function"
    },
    {
      "inputs": [],
      "name": "totalStakedAmount",
      "outputs": [
        {
          "internalType": "uint256",
          "name": "",
          "type": "uint256"
        }
      ],
      "stateMutability": "view",
      "type": "function"
    },
    {
      "inputs": [
        {
          "internalType": "address",
          "name": "",
          "type": "address"
        },
        {
          "internalType": "address",
          "name": "",
          "type": "address"
        }
      ],
      "name": "userProfitWithdrawalAmount",
      "outputs": [
        {
          "internalType": "uint256",
          "name": "",
          "type": "uint256"
        }
      ],
      "stateMutability": "view",
      "type": "function"
    },
    {
      "inputs": [
        {
          "internalType": "address",
          "name": "",
          "type": "address"
        },
        {
          "internalType": "address",
          "name": "",
          "type": "address"
        }
      ],
      "name": "userProfitWithdrawalIndex",
      "outputs": [
        {
          "internalType": "uint256",
          "name": "",
          "type": "uint256"
        }
      ],
      "stateMutability": "view",
      "type": "function"
    },
    {
      "inputs": [
        {
          "internalType": "address",
          "name": "",
          "type": "address"
        }
      ],
      "name": "userStaked",
      "outputs": [
        {
          "internalType": "uint256",
          "name": "amount",
          "type": "uint256"
        },
        {
          "internalType": "uint256",
          "name": "claimedBlock",
          "type": "uint256"
        },
        {
          "internalType": "uint256",
          "name": "claimedAmount",
          "type": "uint256"
        },
        {
          "internalType": "uint256",
          "name": "releasedBlock",
          "type": "uint256"
        },
        {
          "internalType": "uint256",
          "name": "releasedAmount",
          "type": "uint256"
        },
        {
          "internalType": "bool",
          "name": "released",
          "type": "bool"
        }
      ],
      "stateMutability": "view",
      "type": "function"
    },
    {
      "inputs": [],
      "name": "vault",
      "outputs": [
        {
          "internalType": "address",
          "name": "",
          "type": "address"
        }
      ],
      "stateMutability": "view",
      "type": "function"
    },
    {
      "inputs": [],
      "name": "wton",
      "outputs": [
        {
          "internalType": "address",
          "name": "",
          "type": "address"
        }
      ],
      "stateMutability": "view",
      "type": "function"
    },
    {
      "inputs": [
        {
          "internalType": "address",
          "name": "_ton",
          "type": "address"
        },
        {
          "internalType": "address",
          "name": "_wton",
          "type": "address"
        },
        {
          "internalType": "address",
          "name": "_depositManager",
          "type": "address"
        },
        {
          "internalType": "address",
          "name": "_seigManager",
          "type": "address"
        },
        {
          "internalType": "address",
          "name": "_defiAddr",
          "type": "address"
        }
      ],
      "name": "setTokamak",
      "outputs": [],
      "stateMutability": "nonpayable",
      "type": "function"
    },
    {
      "inputs": [
        {
          "internalType": "address",
          "name": "_router",
          "type": "address"
        }
      ],
      "name": "setUniswapRouter",
      "outputs": [],
      "stateMutability": "nonpayable",
      "type": "function"
    },
    {
      "inputs": [
        {
          "internalType": "uint256",
          "name": "amount",
          "type": "uint256"
        }
      ],
      "name": "approveUniswapRouter",
      "outputs": [],
      "stateMutability": "nonpayable",
      "type": "function"
    },
    {
      "inputs": [],
      "name": "uniswapRouter",
      "outputs": [
        {
          "internalType": "address",
          "name": "",
          "type": "address"
        }
      ],
      "stateMutability": "view",
      "type": "function"
    },
    {
      "inputs": [
        {
          "internalType": "address",
          "name": "_layer2",
          "type": "address"
        }
      ],
      "name": "tokamakStaking",
      "outputs": [],
      "stateMutability": "nonpayable",
      "type": "function"
    },
    {
      "inputs": [
        {
          "internalType": "address",
          "name": "_layer2",
          "type": "address"
        }
      ],
      "name": "tokamakRequestUnStakingAll",
      "outputs": [],
      "stateMutability": "nonpayable",
      "type": "function"
    },
    {
      "inputs": [
        {
          "internalType": "address",
          "name": "_layer2",
          "type": "address"
        }
      ],
      "name": "tokamakRequestUnStakingReward",
      "outputs": [],
      "stateMutability": "nonpayable",
      "type": "function"
    },
    {
      "inputs": [
        {
          "internalType": "address",
          "name": "_layer2",
          "type": "address"
        },
        {
          "internalType": "bool",
          "name": "receiveTON",
          "type": "bool"
        }
      ],
      "name": "tokamakProcessUnStaking",
      "outputs": [],
      "stateMutability": "nonpayable",
      "type": "function"
    },
    {
      "inputs": [
        {
          "internalType": "address",
          "name": "_layer2",
          "type": "address"
        }
      ],
      "name": "tokamakPendingUnstaked",
      "outputs": [
        {
          "internalType": "uint256",
          "name": "wtonAmount",
          "type": "uint256"
        }
      ],
      "stateMutability": "view",
      "type": "function"
    },
    {
      "inputs": [
        {
          "internalType": "address",
          "name": "_layer2",
          "type": "address"
        }
      ],
      "name": "tokamakAccStaked",
      "outputs": [
        {
          "internalType": "uint256",
          "name": "wtonAmount",
          "type": "uint256"
        }
      ],
      "stateMutability": "view",
      "type": "function"
    },
    {
      "inputs": [
        {
          "internalType": "address",
          "name": "_layer2",
          "type": "address"
        }
      ],
      "name": "tokamakAccUnstaked",
      "outputs": [
        {
          "internalType": "uint256",
          "name": "wtonAmount",
          "type": "uint256"
        }
      ],
      "stateMutability": "view",
      "type": "function"
    },
    {
      "inputs": [
        {
          "internalType": "address",
          "name": "_layer2",
          "type": "address"
        }
      ],
      "name": "tokamakStakeOf",
      "outputs": [
        {
          "internalType": "uint256",
          "name": "wtonAmount",
          "type": "uint256"
        }
      ],
      "stateMutability": "view",
      "type": "function"
    }
  ],
  "bytecode": "0x608060405234801561001057600080fd5b50612456806100206000396000f3fe608060405234801561001057600080fd5b50600436106102485760003560e01c806391d148541161013b578063cdb25fe3116100b8578063f5832e721161007c578063f5832e7214610644578063fa3733d61461066a578063fbfa77cf14610698578063fc0c546a146106a0578063fd7fa460146106a857610248565b8063cdb25fe314610578578063d547741f146105a6578063e9ace833146105d2578063eeb8112f146105f8578063f30eb9581461061e57610248565b8063bab4b20f116100ff578063bab4b20f146104d9578063bea9849e14610507578063c434d64d1461052d578063ca15c87314610553578063cc48b9471461057057610248565b806391d148541461042657806392ea3b4c14610466578063a217fddf1461046e578063acc3a93914610476578063b2d4d6a3146104d157610248565b80634b2e0ebd116101c9578063735de9f71161018d578063735de9f7146103c557806375b238fc146103cd5780638caae1e3146103d55780638d62d949146103fb5780639010d07c1461040357610248565b80634b2e0ebd1461033f578063567e98f9146103875780636c7ac9d81461038f5780636fb7f5581461039757806371def0b31461039f57610248565b80632f2ff15d116102105780632f2ff15d1461029c57806336568abe146102ca5780633cdcdbe7146102f657806343b0934a1461031357806348cd4cb11461033757610248565b8063083c63231461024d5780630ac8e0f314610267578063200272751461026f578063248a9ca3146102775780632e0fac6b14610294575b600080fd5b6102556106b0565b60408051918252519081900360200190f35b6102556106b6565b6102556106bc565b6102556004803603602081101561028d57600080fd5b50356106c2565b6102556106d7565b6102c8600480360360408110156102b257600080fd5b50803590602001356001600160a01b03166106dd565b005b6102c8600480360360408110156102e057600080fd5b50803590602001356001600160a01b0316610749565b6102c86004803603602081101561030c57600080fd5b50356107aa565b61031b610883565b604080516001600160a01b039092168252519081900360200190f35b610255610892565b6102c8600480360360a081101561035557600080fd5b506001600160a01b03813581169160208101358216916040820135811691606081013582169160809091013516610898565b610255610ae9565b61031b610aef565b61031b610afe565b6102c8600480360360208110156103b557600080fd5b50356001600160a01b0316610b0d565b61031b610c77565b610255610c86565b6102c8600480360360208110156103eb57600080fd5b50356001600160a01b0316610caa565b61031b61120d565b61031b6004803603604081101561041957600080fd5b508035906020013561121c565b6104526004803603604081101561043c57600080fd5b50803590602001356001600160a01b031661123d565b604080519115158252519081900360200190f35b61031b611255565b610255611264565b61049c6004803603602081101561048c57600080fd5b50356001600160a01b0316611269565b6040805196875260208701959095528585019390935260608501919091526080840152151560a0830152519081900360c00190f35b6102556112a1565b610255600480360360408110156104ef57600080fd5b506001600160a01b03813581169160200135166112a7565b6102c86004803603602081101561051d57600080fd5b50356001600160a01b03166112c4565b6102c86004803603602081101561054357600080fd5b50356001600160a01b0316611438565b6102556004803603602081101561056957600080fd5b5035611783565b61031b61179a565b6102556004803603604081101561058e57600080fd5b506001600160a01b03813581169160200135166117a9565b6102c8600480360360408110156105bc57600080fd5b50803590602001356001600160a01b03166117c6565b610255600480360360208110156105e857600080fd5b50356001600160a01b031661181f565b6102556004803603602081101561060e57600080fd5b50356001600160a01b0316611987565b6102556004803603602081101561063457600080fd5b50356001600160a01b0316611abc565b6102556004803603602081101561065a57600080fd5b50356001600160a01b0316611bf1565b6102c86004803603604081101561068057600080fd5b506001600160a01b0381351690602001351515611d26565b61031b61204b565b61031b61205a565b610255612069565b60055481565b60155481565b60035481565b60009081526017602052604090206002015490565b60165481565b600082815260176020526040902060020154610700906106fb61206f565b61123d565b61073b5760405162461bcd60e51b815260040180806020018281038252602f81526020018061234e602f913960400191505060405180910390fd5b6107458282612073565b5050565b61075161206f565b6001600160a01b0316816001600160a01b0316146107a05760405162461bcd60e51b815260040180806020018281038252602f8152602001806123f2602f913960400191505060405180910390fd5b61074582826120dc565b6001546013546040805163095ea7b360e01b81526001600160a01b039283166004820152602481018590529051919092169163095ea7b39160448083019260209291908290030181600087803b15801561080357600080fd5b505af1158015610817573d6000803e3d6000fd5b505050506040513d602081101561082d57600080fd5b5051610880576040805162461bcd60e51b815260206004820152601b60248201527f546f6b616d616b5374616b65723a20617070726f7665206661696c0000000000604482015290519081900360640190fd5b50565b6001546001600160a01b031681565b60045481565b6108c27fdf8b4c520ffe197c5343c6f5aec59570151ef9a492f2c624fd45ddde6135ec423361123d565b6108fd5760405162461bcd60e51b81526004018080602001828103825260258152602001806123cd6025913960400191505060405180910390fd5b846001600160a01b038116610947576040805162461bcd60e51b815260206004820152601b60248201526000805160206123ad833981519152604482015290519081900360640190fd5b846001600160a01b038116610991576040805162461bcd60e51b815260206004820152601b60248201526000805160206123ad833981519152604482015290519081900360640190fd5b846001600160a01b0381166109db576040805162461bcd60e51b815260206004820152601b60248201526000805160206123ad833981519152604482015290519081900360640190fd5b846001600160a01b038116610a25576040805162461bcd60e51b815260206004820152601b60248201526000805160206123ad833981519152604482015290519081900360640190fd5b600e80546001600160a01b03808c166001600160a01b03199283161792839055600f80548c83169084161790819055601080548c84169085161790819055601180548c85169086161790819055601380548c861690871681179091556012805490961690955560408051968516875292841660208701529083168583015290911660608401526080830191909152517f46a53dd818efcc0314aabace01e93d87ceaacb400503f8ae380689193622edbc9181900360a00190a1505050505050505050565b60075481565b6010546001600160a01b031681565b6011546001600160a01b031681565b600e546001600160a01b031615801590610b315750600f546001600160a01b031615155b8015610b4757506010546001600160a01b031615155b8015610b5d57506011546001600160a01b031615155b610ba2576040805162461bcd60e51b8152602060048201526011602482015270696e6974207a65726f206164647265737360781b604482015290519081900360640190fd5b60125481906001600160a01b03808316911614610bf8576040805162461bcd60e51b815260206004820152600f60248201526e3234b33332b932b73a103630bcb2b960891b604482015290519081900360640190fd5b60105460408051636b2160b760e01b81526001600160a01b03858116600483015291519190921691636b2160b79160248083019260209291908290030181600087803b158015610c4757600080fd5b505af1158015610c5b573d6000803e3d6000fd5b505050506040513d6020811015610c7157600080fd5b50505050565b6013546001600160a01b031690565b7fdf8b4c520ffe197c5343c6f5aec59570151ef9a492f2c624fd45ddde6135ec4281565b600e546001600160a01b031615801590610cce5750600f546001600160a01b031615155b8015610ce457506010546001600160a01b031615155b8015610cfa57506011546001600160a01b031615155b610d3f576040805162461bcd60e51b8152602060048201526011602482015270696e6974207a65726f206164647265737360781b604482015290519081900360640190fd5b806001600160a01b038116610d89576040805162461bcd60e51b815260206004820152601b60248201526000805160206123ad833981519152604482015290519081900360640190fd5b600260009054906101000a90046001600160a01b03166001600160a01b031663b8c766b86040518163ffffffff1660e01b815260040160206040518083038186803b158015610dd757600080fd5b505afa158015610deb573d6000803e3d6000fd5b505050506040513d6020811015610e0157600080fd5b50511515600114610e46576040805162461bcd60e51b815260206004820152600a6024820152691b9bdd0818db1bdcd95960b21b604482015290519081900360640190fd5b600e54604080516370a0823160e01b815230600482015290516000926001600160a01b0316916370a08231916024808301926020929190829003018186803b158015610e9157600080fd5b505afa158015610ea5573d6000803e3d6000fd5b505050506040513d6020811015610ebb57600080fd5b5051905080610efa576040805162461bcd60e51b815260206004808301919091526024820152637a65726f60e01b604482015290519081900360640190fd5b6012546001600160a01b0316610f2a57601280546001600160a01b0319166001600160a01b0385161790556110a4565b601154601254604080516367265c3b60e11b81526001600160a01b0392831660048201523060248201529051600093929092169163ce4cb87691604480820192602092909190829003018186803b158015610f8457600080fd5b505afa158015610f98573d6000803e3d6000fd5b505050506040513d6020811015610fae57600080fd5b505160105460125460408051632638fdf560e01b81526001600160a01b03928316600482015230602482015290519394506000939190921691632638fdf5916044808301926020929190829003018186803b15801561100c57600080fd5b505afa158015611020573d6000803e3d6000fd5b505050506040513d602081101561103657600080fd5b50519050811515806110485750600081115b156110a1576012546001600160a01b038681169116146110a1576040805162461bcd60e51b815260206004820152600f60248201526e3234b33332b932b73a103630bcb2b960891b604482015290519081900360640190fd5b50505b6014805482019055601054604080516001600160a01b0392831660208083019190915286841682840152825180830384018152606080840194859052600e54600f5463cae9ca5160e01b909652948616606485018181526084860189905260a48601928352835160c487015283519397969096169563cae9ca5195919489948994929360e4019185019080838360005b8381101561114c578181015183820152602001611134565b50505050905090810190601f1680156111795780820380516001836020036101000a031916815260200191505b50945050505050602060405180830381600087803b15801561119a57600080fd5b505af11580156111ae573d6000803e3d6000fd5b505050506040513d60208110156111c457600080fd5b5051610c71576040805162461bcd60e51b8152602060048201526013602482015272185c1c1c9bdd99505b9910d85b1b0819985a5b606a1b604482015290519081900360640190fd5b600f546001600160a01b031681565b60008281526017602052604081206112349083612145565b90505b92915050565b60008281526017602052604081206112349083612151565b6012546001600160a01b031681565b600081565b600860205260009081526040902080546001820154600283015460038401546004850154600590950154939492939192909160ff1686565b60065481565b600b60209081526000928352604080842090915290825290205481565b6112ee7fdf8b4c520ffe197c5343c6f5aec59570151ef9a492f2c624fd45ddde6135ec423361123d565b6113295760405162461bcd60e51b81526004018080602001828103825260258152602001806123cd6025913960400191505060405180910390fd5b600354431061137f576040805162461bcd60e51b815260206004820152601e60248201527f546f6b616d616b5374616b65723a20416c726561647920737461727465640000604482015290519081900360640190fd5b6001600160a01b038116158015906113a557506013546001600160a01b03828116911614155b6113e4576040805162461bcd60e51b815260206004820152601b60248201526000805160206123ad833981519152604482015290519081900360640190fd5b601380546001600160a01b0383166001600160a01b0319909116811790915560408051918252517f62c2fdbe51fb234f5a19e26fd34a29b4d1f7f4b748fa3dfb5ee76bc69a30a7ce9181900360200190a150565b600e546001600160a01b03161580159061145c5750600f546001600160a01b031615155b801561147257506010546001600160a01b031615155b801561148857506011546001600160a01b031615155b6114cd576040805162461bcd60e51b8152602060048201526011602482015270696e6974207a65726f206164647265737360781b604482015290519081900360640190fd5b60125481906001600160a01b03808316911614611523576040805162461bcd60e51b815260206004820152600f60248201526e3234b33332b932b73a103630bcb2b960891b604482015290519081900360640190fd5b600260009054906101000a90046001600160a01b03166001600160a01b031663b8c766b86040518163ffffffff1660e01b815260040160206040518083038186803b15801561157157600080fd5b505afa158015611585573d6000803e3d6000fd5b505050506040513d602081101561159b57600080fd5b505115156001146115e0576040805162461bcd60e51b815260206004820152600a6024820152691b9bdd0818db1bdcd95960b21b604482015290519081900360640190fd5b601154604080516367265c3b60e11b81526001600160a01b0385811660048301523060248301529151600093929092169163ce4cb87691604480820192602092909190829003018186803b15801561163757600080fd5b505afa15801561164b573d6000803e3d6000fd5b505050506040513d602081101561166157600080fd5b5051600754909150633b9aca000260010181116116b1576040805162461bcd60e51b81526020600482015260096024820152681d1bdbc81cdb585b1b60ba1b604482015290519081900360640190fd5b600754633b9aca0002810360001901806116fb576040805162461bcd60e51b815260206004808301919091526024820152637a65726f60e01b604482015290519081900360640190fd5b6010546040805163da95ebf760e01b81526001600160a01b038781166004830152602482018590529151919092169163da95ebf79160448083019260209291908290030181600087803b15801561175157600080fd5b505af1158015611765573d6000803e3d6000fd5b505050506040513d602081101561177b57600080fd5b505050505050565b600081815260176020526040812061123790612166565b600e546001600160a01b031681565b600c60209081526000928352604080842090915290825290205481565b6000828152601760205260409020600201546117e4906106fb61206f565b6107a05760405162461bcd60e51b815260040180806020018281038252603081526020018061237d6030913960400191505060405180910390fd5b600e546000906001600160a01b0316158015906118465750600f546001600160a01b031615155b801561185c57506010546001600160a01b031615155b801561187257506011546001600160a01b031615155b6118b7576040805162461bcd60e51b8152602060048201526011602482015270696e6974207a65726f206164647265737360781b604482015290519081900360640190fd5b816001600160a01b038116611901576040805162461bcd60e51b815260206004820152601b60248201526000805160206123ad833981519152604482015290519081900360640190fd5b60105460408051632638fdf560e01b81526001600160a01b03868116600483015230602483015291519190921691632638fdf5916044808301926020929190829003018186803b15801561195457600080fd5b505afa158015611968573d6000803e3d6000fd5b505050506040513d602081101561197e57600080fd5b50519392505050565b600e546000906001600160a01b0316158015906119ae5750600f546001600160a01b031615155b80156119c457506010546001600160a01b031615155b80156119da57506011546001600160a01b031615155b611a1f576040805162461bcd60e51b8152602060048201526011602482015270696e6974207a65726f206164647265737360781b604482015290519081900360640190fd5b816001600160a01b038116611a69576040805162461bcd60e51b815260206004820152601b60248201526000805160206123ad833981519152604482015290519081900360640190fd5b60105460408051639d91b87b60e01b81526001600160a01b03868116600483015230602483015291519190921691639d91b87b916044808301926020929190829003018186803b15801561195457600080fd5b600e546000906001600160a01b031615801590611ae35750600f546001600160a01b031615155b8015611af957506010546001600160a01b031615155b8015611b0f57506011546001600160a01b031615155b611b54576040805162461bcd60e51b8152602060048201526011602482015270696e6974207a65726f206164647265737360781b604482015290519081900360640190fd5b816001600160a01b038116611b9e576040805162461bcd60e51b815260206004820152601b60248201526000805160206123ad833981519152604482015290519081900360640190fd5b601154604080516367265c3b60e11b81526001600160a01b0386811660048301523060248301529151919092169163ce4cb876916044808301926020929190829003018186803b15801561195457600080fd5b600e546000906001600160a01b031615801590611c185750600f546001600160a01b031615155b8015611c2e57506010546001600160a01b031615155b8015611c4457506011546001600160a01b031615155b611c89576040805162461bcd60e51b8152602060048201526011602482015270696e6974207a65726f206164647265737360781b604482015290519081900360640190fd5b816001600160a01b038116611cd3576040805162461bcd60e51b815260206004820152601b60248201526000805160206123ad833981519152604482015290519081900360640190fd5b60105460408051630b4beae560e21b81526001600160a01b03868116600483015230602483015291519190921691632d2fab94916044808301926020929190829003018186803b15801561195457600080fd5b600e546001600160a01b031615801590611d4a5750600f546001600160a01b031615155b8015611d6057506010546001600160a01b031615155b8015611d7657506011546001600160a01b031615155b611dbb576040805162461bcd60e51b8152602060048201526011602482015270696e6974207a65726f206164647265737360781b604482015290519081900360640190fd5b60125482906001600160a01b03808316911614611e11576040805162461bcd60e51b815260206004820152600f60248201526e3234b33332b932b73a103630bcb2b960891b604482015290519081900360640190fd5b600260009054906101000a90046001600160a01b03166001600160a01b031663b8c766b86040518163ffffffff1660e01b815260040160206040518083038186803b158015611e5f57600080fd5b505afa158015611e73573d6000803e3d6000fd5b505050506040513d6020811015611e8957600080fd5b50511515600114611ece576040805162461bcd60e51b815260206004820152600a6024820152691b9bdd0818db1bdcd95960b21b604482015290519081900360640190fd5b601154601254604080516367265c3b60e11b81526001600160a01b0392831660048201523060248201529051600093929092169163ce4cb87691604480820192602092909190829003018186803b158015611f2857600080fd5b505afa158015611f3c573d6000803e3d6000fd5b505050506040513d6020811015611f5257600080fd5b5051905080611f6c57601280546001600160a01b03191690555b60105460408051632638fdf560e01b81526001600160a01b03878116600483015230602483015291519190921691632638fdf5916044808301926020929190829003018186803b158015611fbf57600080fd5b505afa158015611fd3573d6000803e3d6000fd5b505050506040513d6020811015611fe957600080fd5b505160158054909101905560105460408051636105226360e11b81526001600160a01b03878116600483015286151560248301529151919092169163c20a44c69160448083019260209291908290030181600087803b15801561175157600080fd5b6002546001600160a01b031681565b6000546001600160a01b031681565b60145481565b3390565b600082815260176020526040902061208b9082612171565b156107455761209861206f565b6001600160a01b0316816001600160a01b0316837f2f8788117e7eff1d82e926ec794901d17c78024a50270940304540a733656f0d60405160405180910390a45050565b60008281526017602052604090206120f49082612186565b156107455761210161206f565b6001600160a01b0316816001600160a01b0316837ff6391f5c32d9c69d2a47ea670b442974b53935d1edc7fd64eb21e047a839171b60405160405180910390a45050565b6000611234838361219b565b6000611234836001600160a01b0384166121ff565b600061123782612217565b6000611234836001600160a01b03841661221b565b6000611234836001600160a01b038416612265565b815460009082106121dd5760405162461bcd60e51b815260040180806020018281038252602281526020018061232c6022913960400191505060405180910390fd5b8260000182815481106121ec57fe5b9060005260206000200154905092915050565b60009081526001919091016020526040902054151590565b5490565b600061222783836121ff565b61225d57508154600181810184556000848152602080822090930184905584548482528286019093526040902091909155611237565b506000611237565b60008181526001830160205260408120548015612321578354600019808301919081019060009087908390811061229857fe5b90600052602060002001549050808760000184815481106122b557fe5b6000918252602080832090910192909255828152600189810190925260409020908401905586548790806122e557fe5b60019003818190600052602060002001600090559055866001016000878152602001908152602001600020600090556001945050505050611237565b600091505061123756fe456e756d657261626c655365743a20696e646578206f7574206f6620626f756e6473416363657373436f6e74726f6c3a2073656e646572206d75737420626520616e2061646d696e20746f206772616e74416363657373436f6e74726f6c3a2073656e646572206d75737420626520616e2061646d696e20746f207265766f6b65546f6b616d616b5374616b65723a207a65726f20616464726573730000000000546f6b616d616b5374616b65723a2043616c6c6572206973206e6f7420616e2061646d696e416363657373436f6e74726f6c3a2063616e206f6e6c792072656e6f756e636520726f6c657320666f722073656c66a2646970667358221220e4f6c2761fc3b337149d086f91d2ce3520a6c2847d433b888ab0fa6c6b53bb2f64736f6c63430007060033",
  "immutableReferences": {},
  "source": "// SPDX-License-Identifier: MIT\npragma solidity ^0.7.6;\nimport {ITON} from \"../interfaces/ITON.sol\";\nimport {IStake1Vault} from \"../interfaces/IStake1Vault.sol\";\nimport {IIDepositManager} from \"../interfaces/IIDepositManager.sol\";\nimport {IISeigManager} from \"../interfaces/IISeigManager.sol\";\n//import {IUniswapActor} from \"../interfaces/IUniswapActor.sol\";\n\nimport \"@openzeppelin/contracts/access/AccessControl.sol\";\nimport \"../stake/StakeTONStorage.sol\";\ninterface IERC20BASE {\n    function totalSupply() external view returns (uint);\n    function balanceOf(address owner) external view returns (uint);\n    //function allowance(address owner, address spender) external view returns (uint);\n    function approve(address spender, uint value) external returns (bool);\n    function transfer(address to, uint value) external returns (bool);\n    function transferFrom(address from, address to, uint value) external returns (bool);\n}\n\n/// @title The connector that integrates zkopru and tokamak\ncontract TokamakStaker is StakeTONStorage, AccessControl {\n\n    bytes32 public constant ADMIN_ROLE = keccak256(\"ADMIN\");\n\n    modifier nonZero(address _addr) {\n        require(_addr != address(0), \"TokamakStaker: zero address\");\n        _;\n    }\n\n    modifier sameTokamakLayer(address _addr) {\n        require(tokamakLayer2 == _addr, \"different layer\");\n        _;\n    }\n\n    modifier nonZeroInit() {\n        require(ton != address(0) &&\n                wton != address(0) &&\n                depositManager != address(0) &&\n                seigManager != address(0), \"init zero address\");\n        _;\n    }\n    modifier onlyOwner() {\n        require(\n            hasRole(ADMIN_ROLE, msg.sender),\n            \"TokamakStaker: Caller is not an admin\"\n        );\n        _;\n    }\n\n    //////////////////////////////\n    // Events\n    //////////////////////////////\n\n    event SetTokamak(address ton, address wton, address depositManager, address seigManager, address defiAddr);\n    event SetUniswapRouter(address router);\n    /*\n    event tokamakStaked(address layer2, uint256 amount);\n    event tokamakRequestedUnStakingAll(address layer2);\n    event tokamakRequestedUnStakingReward(address layer2);\n    event tokamakProcessedUnStaking(address layer2, bool receiveTON);\n    */\n    function setTokamak(\n        address _ton,\n        address _wton,\n        address _depositManager,\n        address _seigManager,\n        address _defiAddr\n    ) external onlyOwner\n        nonZero(_ton)\n        nonZero(_wton)\n        nonZero(_depositManager)\n        nonZero(_seigManager)\n    {\n        ton = _ton;\n        wton = _wton;\n        depositManager = _depositManager;\n        seigManager = _seigManager;\n        _uniswapRouter = _defiAddr;\n        tokamakLayer2 = address(0);\n\n        emit SetTokamak(ton, wton, depositManager, seigManager, _defiAddr);\n    }\n\n    function setUniswapRouter(address _router) external onlyOwner {\n        // TODO: check!!\n        require(\n            block.number < saleStartBlock,\n            \"TokamakStaker: Already started\"\n        );\n        require(\n            _router != address(0) && _uniswapRouter != _router,\n            \"TokamakStaker: zero address\"\n        );\n        _uniswapRouter = _router;\n\n        emit SetUniswapRouter(_router);\n    }\n\n    function approveUniswapRouter(uint256 amount) external {\n        require(\n            IERC20BASE(paytoken).approve(_uniswapRouter, amount),\n            \"TokamakStaker: approve fail\"\n        );\n    }\n\n    function uniswapRouter() public view returns (address) {\n        return _uniswapRouter;\n    }\n\n    function tokamakStaking(address _layer2)\n        external nonZeroInit nonZero(_layer2)\n    {\n        require(\n            IStake1Vault(vault).saleClosed() == true,\n            \"not closed\"\n        );\n        uint256 _amount = IERC20BASE(ton).balanceOf(address(this));\n        require(\n                _amount > 0,\n            \"zero\"\n        );\n\n        if (tokamakLayer2 == address(0)) tokamakLayer2 = _layer2;\n        else {\n            uint256 stakeOf =\n                IISeigManager(seigManager).stakeOf(tokamakLayer2, address(this));\n\n            uint256 pendingUnstaked = IIDepositManager(depositManager).pendingUnstaked(\n                tokamakLayer2,\n                address(this)\n            );\n\n            if (stakeOf > 0 || pendingUnstaked > 0) {\n                require(\n                    tokamakLayer2 == _layer2,\n                    \"different layer\"\n                );\n            } else {\n                if (tokamakLayer2 != _layer2) tokamakLayer2 == _layer2;\n            }\n        }\n        toTokamak += _amount;\n        bytes memory data = abi.encode(depositManager, _layer2);\n        require(\n            ITON(ton).approveAndCall(wton, _amount, data),\n            \"approveAndCall fail\"\n        );\n\n        //emit tokamakStaked(_layer2, _amount);\n    }\n\n    function tokamakRequestUnStakingAll(address _layer2)\n        public\n        nonZeroInit sameTokamakLayer(_layer2)\n    {\n        IIDepositManager(depositManager).requestWithdrawalAll(_layer2);\n\n        //emit tokamakRequestedUnStakingAll(_layer2);\n    }\n\n    function tokamakRequestUnStakingReward(address _layer2)\n        public nonZeroInit sameTokamakLayer(_layer2)\n    {\n        require(\n            IStake1Vault(vault).saleClosed() == true,\n            \"not closed\"\n        );\n\n        uint256 stakeOf =\n            IISeigManager(seigManager).stakeOf(_layer2, address(this));\n\n\n        require(\n            stakeOf > (totalStakedAmount * 10**9) + 1,\n            \"too small\"\n        );\n\n        uint256 _amount = stakeOf - (totalStakedAmount * 10**9)  - 1;\n        require(\n                _amount > 0,\n            \"zero\"\n        );\n\n        IIDepositManager(depositManager).requestWithdrawal(_layer2, _amount);\n\n        //emit tokamakRequestedUnStakingReward(_layer2);\n    }\n\n    function tokamakProcessUnStaking(address _layer2, bool receiveTON)\n        public nonZeroInit sameTokamakLayer(_layer2)\n    {\n        require(\n            IStake1Vault(vault).saleClosed() == true,\n            \"not closed\"\n        );\n\n        uint256 stakeOf = IISeigManager(seigManager).stakeOf(tokamakLayer2, address(this));\n        if (stakeOf == 0 ) tokamakLayer2 = address(0);\n\n        fromTokamak += IIDepositManager(depositManager).pendingUnstaked(\n                _layer2,\n                address(this)\n            );\n        IIDepositManager(depositManager).processRequest(_layer2, receiveTON);\n\n        //emit tokamakProcessedUnStaking(_layer2, receiveTON);\n    }\n\n    function tokamakPendingUnstaked(address _layer2)\n        public nonZeroInit nonZero(_layer2)\n        view\n        returns (uint256 wtonAmount)\n    {\n        return\n            IIDepositManager(depositManager).pendingUnstaked(\n                _layer2,\n                address(this)\n            );\n    }\n\n    function tokamakAccStaked(address _layer2)\n        external nonZeroInit nonZero(_layer2)\n        view\n        returns (uint256 wtonAmount)\n    {\n\n        return\n            IIDepositManager(depositManager).accStaked(_layer2, address(this));\n    }\n\n    function tokamakAccUnstaked(address _layer2)\n        external nonZeroInit nonZero(_layer2)\n        view\n        returns (uint256 wtonAmount)\n    {\n        return\n            IIDepositManager(depositManager).accUnstaked(_layer2, address(this));\n    }\n\n    function tokamakStakeOf(address _layer2)\n        external nonZeroInit nonZero(_layer2)\n        view\n        returns (uint256 wtonAmount)\n    {\n        return IISeigManager(seigManager).stakeOf(_layer2, address(this));\n    }\n\n}\n",
  "sourcePath": "/Users/zena/ico2.0/ico20-contracts/contracts/connection/TokamakStaker.sol",
  "compiler": {
    "name": "solc",
    "version": "0.7.6+commit.7338295f.Emscripten.clang"
  },
  "schemaVersion": "3.3.4",
  "updatedAt": "2021-05-17T08:12:25.566Z",
  "devdoc": {
    "kind": "dev",
    "methods": {
      "getRoleAdmin(bytes32)": {
        "details": "Returns the admin role that controls `role`. See {grantRole} and {revokeRole}. To change a role's admin, use {_setRoleAdmin}."
      },
      "getRoleMember(bytes32,uint256)": {
        "details": "Returns one of the accounts that have `role`. `index` must be a value between 0 and {getRoleMemberCount}, non-inclusive. Role bearers are not sorted in any particular way, and their ordering may change at any point. WARNING: When using {getRoleMember} and {getRoleMemberCount}, make sure you perform all queries on the same block. See the following https://forum.openzeppelin.com/t/iterating-over-elements-on-enumerableset-in-openzeppelin-contracts/2296[forum post] for more information."
      },
      "getRoleMemberCount(bytes32)": {
        "details": "Returns the number of accounts that have `role`. Can be used together with {getRoleMember} to enumerate all bearers of a role."
      },
      "grantRole(bytes32,address)": {
        "details": "Grants `role` to `account`. If `account` had not been already granted `role`, emits a {RoleGranted} event. Requirements: - the caller must have ``role``'s admin role."
      },
      "hasRole(bytes32,address)": {
        "details": "Returns `true` if `account` has been granted `role`."
      },
      "renounceRole(bytes32,address)": {
        "details": "Revokes `role` from the calling account. Roles are often managed via {grantRole} and {revokeRole}: this function's purpose is to provide a mechanism for accounts to lose their privileges if they are compromised (such as when a trusted device is misplaced). If the calling account had been granted `role`, emits a {RoleRevoked} event. Requirements: - the caller must be `account`."
      },
      "revokeRole(bytes32,address)": {
        "details": "Revokes `role` from `account`. If `account` had been granted `role`, emits a {RoleRevoked} event. Requirements: - the caller must have ``role``'s admin role."
      }
    },
    "title": "The connector that integrates zkopru and tokamak",
    "version": 1
  },
  "userdoc": {
    "kind": "user",
    "methods": {},
    "version": 1
  }
}