{
  "contractName": "TokamakStaker",
  "abi": [
    {
      "anonymous": false,
      "inputs": [
        {
          "indexed": false,
          "internalType": "address",
          "name": "caller",
          "type": "address"
        },
        {
          "indexed": false,
          "internalType": "uint256",
          "name": "amountIn",
          "type": "uint256"
        },
        {
          "indexed": false,
          "internalType": "uint256",
          "name": "amountOut",
          "type": "uint256"
        }
      ],
      "name": "ExchangedWTONtoTOS",
      "type": "event"
    },
    {
      "anonymous": false,
      "inputs": [
        {
          "indexed": false,
          "internalType": "address",
          "name": "caller",
          "type": "address"
        },
        {
          "indexed": false,
          "internalType": "uint256",
          "name": "amountIn",
          "type": "uint256"
        },
        {
          "indexed": false,
          "internalType": "uint256",
          "name": "amountOut",
          "type": "uint256"
        }
      ],
      "name": "ExchangedWTONtoTOS2",
      "type": "event"
    },
    {
      "anonymous": false,
      "inputs": [
        {
          "indexed": true,
          "internalType": "bytes32",
          "name": "role",
          "type": "bytes32"
        },
        {
          "indexed": true,
          "internalType": "bytes32",
          "name": "previousAdminRole",
          "type": "bytes32"
        },
        {
          "indexed": true,
          "internalType": "bytes32",
          "name": "newAdminRole",
          "type": "bytes32"
        }
      ],
      "name": "RoleAdminChanged",
      "type": "event"
    },
    {
      "anonymous": false,
      "inputs": [
        {
          "indexed": true,
          "internalType": "bytes32",
          "name": "role",
          "type": "bytes32"
        },
        {
          "indexed": true,
          "internalType": "address",
          "name": "account",
          "type": "address"
        },
        {
          "indexed": true,
          "internalType": "address",
          "name": "sender",
          "type": "address"
        }
      ],
      "name": "RoleGranted",
      "type": "event"
    },
    {
      "anonymous": false,
      "inputs": [
        {
          "indexed": true,
          "internalType": "bytes32",
          "name": "role",
          "type": "bytes32"
        },
        {
          "indexed": true,
          "internalType": "address",
          "name": "account",
          "type": "address"
        },
        {
          "indexed": true,
          "internalType": "address",
          "name": "sender",
          "type": "address"
        }
      ],
      "name": "RoleRevoked",
      "type": "event"
    },
    {
      "anonymous": false,
      "inputs": [
        {
          "indexed": false,
          "internalType": "address",
          "name": "registry",
          "type": "address"
        }
      ],
      "name": "SetRegistry",
      "type": "event"
    },
    {
      "anonymous": false,
      "inputs": [
        {
          "indexed": false,
          "internalType": "address",
          "name": "layer2",
          "type": "address"
        }
      ],
      "name": "SetTokamakLayer2",
      "type": "event"
    },
    {
      "anonymous": false,
      "inputs": [
        {
          "indexed": false,
          "internalType": "address",
          "name": "layer2",
          "type": "address"
        },
        {
          "indexed": false,
          "internalType": "uint256",
          "name": "rn",
          "type": "uint256"
        },
        {
          "indexed": false,
          "internalType": "bool",
          "name": "receiveTON",
          "type": "bool"
        }
      ],
      "name": "TokamakProcessedUnStaking",
      "type": "event"
    },
    {
      "anonymous": false,
      "inputs": [
        {
          "indexed": false,
          "internalType": "address",
          "name": "layer2",
          "type": "address"
        },
        {
          "indexed": false,
          "internalType": "uint256",
          "name": "amount",
          "type": "uint256"
        }
      ],
      "name": "TokamakRequestedUnStaking",
      "type": "event"
    },
    {
      "anonymous": false,
      "inputs": [
        {
          "indexed": false,
          "internalType": "address",
          "name": "layer2",
          "type": "address"
        }
      ],
      "name": "TokamakRequestedUnStakingAll",
      "type": "event"
    },
    {
      "anonymous": false,
      "inputs": [
        {
          "indexed": false,
          "internalType": "address",
          "name": "layer2",
          "type": "address"
        },
        {
          "indexed": false,
          "internalType": "uint256",
          "name": "amount",
          "type": "uint256"
        }
      ],
      "name": "TokamakStaked",
      "type": "event"
    },
    {
      "inputs": [],
      "name": "ADMIN_ROLE",
      "outputs": [
        {
          "internalType": "bytes32",
          "name": "",
          "type": "bytes32"
        }
      ],
      "stateMutability": "view",
      "type": "function"
    },
    {
      "inputs": [],
      "name": "BURNER_ROLE",
      "outputs": [
        {
          "internalType": "bytes32",
          "name": "",
          "type": "bytes32"
        }
      ],
      "stateMutability": "view",
      "type": "function"
    },
    {
      "inputs": [],
      "name": "DEFAULT_ADMIN_ROLE",
      "outputs": [
        {
          "internalType": "bytes32",
          "name": "",
          "type": "bytes32"
        }
      ],
      "stateMutability": "view",
      "type": "function"
    },
    {
      "inputs": [],
      "name": "MINTER_ROLE",
      "outputs": [
        {
          "internalType": "bytes32",
          "name": "",
          "type": "bytes32"
        }
      ],
      "stateMutability": "view",
      "type": "function"
    },
    {
      "inputs": [
        {
          "internalType": "address",
          "name": "account",
          "type": "address"
        }
      ],
      "name": "addAdmin",
      "outputs": [],
      "stateMutability": "nonpayable",
      "type": "function"
    },
    {
      "inputs": [],
      "name": "defiAddr",
      "outputs": [
        {
          "internalType": "address",
          "name": "",
          "type": "address"
        }
      ],
      "stateMutability": "view",
      "type": "function"
    },
    {
      "inputs": [],
      "name": "defiStatus",
      "outputs": [
        {
          "internalType": "uint256",
          "name": "",
          "type": "uint256"
        }
      ],
      "stateMutability": "view",
      "type": "function"
    },
    {
      "inputs": [],
      "name": "depositManager",
      "outputs": [
        {
          "internalType": "address",
          "name": "",
          "type": "address"
        }
      ],
      "stateMutability": "view",
      "type": "function"
    },
    {
      "inputs": [],
      "name": "endBlock",
      "outputs": [
        {
          "internalType": "uint256",
          "name": "",
          "type": "uint256"
        }
      ],
      "stateMutability": "view",
      "type": "function"
    },
    {
      "inputs": [],
      "name": "finalBalanceTON",
      "outputs": [
        {
          "internalType": "uint256",
          "name": "",
          "type": "uint256"
        }
      ],
      "stateMutability": "view",
      "type": "function"
    },
    {
      "inputs": [],
      "name": "finalBalanceWTON",
      "outputs": [
        {
          "internalType": "uint256",
          "name": "",
          "type": "uint256"
        }
      ],
      "stateMutability": "view",
      "type": "function"
    },
    {
      "inputs": [],
      "name": "fromTokamak",
      "outputs": [
        {
          "internalType": "uint256",
          "name": "",
          "type": "uint256"
        }
      ],
      "stateMutability": "view",
      "type": "function"
    },
    {
      "inputs": [
        {
          "internalType": "bytes32",
          "name": "role",
          "type": "bytes32"
        }
      ],
      "name": "getRoleAdmin",
      "outputs": [
        {
          "internalType": "bytes32",
          "name": "",
          "type": "bytes32"
        }
      ],
      "stateMutability": "view",
      "type": "function"
    },
    {
      "inputs": [
        {
          "internalType": "bytes32",
          "name": "role",
          "type": "bytes32"
        },
        {
          "internalType": "uint256",
          "name": "index",
          "type": "uint256"
        }
      ],
      "name": "getRoleMember",
      "outputs": [
        {
          "internalType": "address",
          "name": "",
          "type": "address"
        }
      ],
      "stateMutability": "view",
      "type": "function"
    },
    {
      "inputs": [
        {
          "internalType": "bytes32",
          "name": "role",
          "type": "bytes32"
        }
      ],
      "name": "getRoleMemberCount",
      "outputs": [
        {
          "internalType": "uint256",
          "name": "",
          "type": "uint256"
        }
      ],
      "stateMutability": "view",
      "type": "function"
    },
    {
      "inputs": [
        {
          "internalType": "address",
          "name": "user",
          "type": "address"
        }
      ],
      "name": "getUserStaked",
      "outputs": [
        {
          "internalType": "uint256",
          "name": "amount",
          "type": "uint256"
        },
        {
          "internalType": "uint256",
          "name": "claimedBlock",
          "type": "uint256"
        },
        {
          "internalType": "uint256",
          "name": "claimedAmount",
          "type": "uint256"
        },
        {
          "internalType": "uint256",
          "name": "releasedBlock",
          "type": "uint256"
        },
        {
          "internalType": "uint256",
          "name": "releasedAmount",
          "type": "uint256"
        },
        {
          "internalType": "uint256",
          "name": "releasedTOSAmount",
          "type": "uint256"
        },
        {
          "internalType": "bool",
          "name": "released",
          "type": "bool"
        }
      ],
      "stateMutability": "view",
      "type": "function"
    },
    {
      "inputs": [
        {
          "internalType": "bytes32",
          "name": "role",
          "type": "bytes32"
        },
        {
          "internalType": "address",
          "name": "account",
          "type": "address"
        }
      ],
      "name": "grantRole",
      "outputs": [],
      "stateMutability": "nonpayable",
      "type": "function"
    },
    {
      "inputs": [
        {
          "internalType": "bytes32",
          "name": "role",
          "type": "bytes32"
        },
        {
          "internalType": "address",
          "name": "account",
          "type": "address"
        }
      ],
      "name": "hasRole",
      "outputs": [
        {
          "internalType": "bool",
          "name": "",
          "type": "bool"
        }
      ],
      "stateMutability": "view",
      "type": "function"
    },
    {
      "inputs": [],
      "name": "infos",
      "outputs": [
        {
          "internalType": "address",
          "name": "",
          "type": "address"
        },
        {
          "internalType": "address",
          "name": "",
          "type": "address"
        },
        {
          "internalType": "uint256[3]",
          "name": "",
          "type": "uint256[3]"
        },
        {
          "internalType": "uint256",
          "name": "",
          "type": "uint256"
        },
        {
          "internalType": "uint256",
          "name": "",
          "type": "uint256"
        },
        {
          "internalType": "uint256",
          "name": "",
          "type": "uint256"
        }
      ],
      "stateMutability": "view",
      "type": "function"
    },
    {
      "inputs": [
        {
          "internalType": "address",
          "name": "account",
          "type": "address"
        }
      ],
      "name": "isAdmin",
      "outputs": [
        {
          "internalType": "bool",
          "name": "",
          "type": "bool"
        }
      ],
      "stateMutability": "view",
      "type": "function"
    },
    {
      "inputs": [],
      "name": "migratedL2",
      "outputs": [
        {
          "internalType": "bool",
          "name": "",
          "type": "bool"
        }
      ],
      "stateMutability": "view",
      "type": "function"
    },
    {
      "inputs": [],
      "name": "pauseProxy",
      "outputs": [
        {
          "internalType": "bool",
          "name": "",
          "type": "bool"
        }
      ],
      "stateMutability": "view",
      "type": "function"
    },
    {
      "inputs": [],
      "name": "paytoken",
      "outputs": [
        {
          "internalType": "address",
          "name": "",
          "type": "address"
        }
      ],
      "stateMutability": "view",
      "type": "function"
    },
    {
      "inputs": [
        {
          "internalType": "address",
          "name": "account",
          "type": "address"
        }
      ],
      "name": "removeAdmin",
      "outputs": [],
      "stateMutability": "nonpayable",
      "type": "function"
    },
    {
      "inputs": [
        {
          "internalType": "bytes32",
          "name": "role",
          "type": "bytes32"
        },
        {
          "internalType": "address",
          "name": "account",
          "type": "address"
        }
      ],
      "name": "renounceRole",
      "outputs": [],
      "stateMutability": "nonpayable",
      "type": "function"
    },
    {
      "inputs": [],
      "name": "requestNum",
      "outputs": [
        {
          "internalType": "uint256",
          "name": "",
          "type": "uint256"
        }
      ],
      "stateMutability": "view",
      "type": "function"
    },
    {
      "inputs": [
        {
          "internalType": "bytes32",
          "name": "role",
          "type": "bytes32"
        },
        {
          "internalType": "address",
          "name": "account",
          "type": "address"
        }
      ],
      "name": "revokeRole",
      "outputs": [],
      "stateMutability": "nonpayable",
      "type": "function"
    },
    {
      "inputs": [],
      "name": "rewardClaimedTotal",
      "outputs": [
        {
          "internalType": "uint256",
          "name": "",
          "type": "uint256"
        }
      ],
      "stateMutability": "view",
      "type": "function"
    },
    {
      "inputs": [],
      "name": "saleStartBlock",
      "outputs": [
        {
          "internalType": "uint256",
          "name": "",
          "type": "uint256"
        }
      ],
      "stateMutability": "view",
      "type": "function"
    },
    {
      "inputs": [],
      "name": "seigManager",
      "outputs": [
        {
          "internalType": "address",
          "name": "",
          "type": "address"
        }
      ],
      "stateMutability": "view",
      "type": "function"
    },
    {
      "inputs": [],
      "name": "stakeRegistry",
      "outputs": [
        {
          "internalType": "address",
          "name": "",
          "type": "address"
        }
      ],
      "stateMutability": "view",
      "type": "function"
    },
    {
      "inputs": [],
      "name": "startBlock",
      "outputs": [
        {
          "internalType": "uint256",
          "name": "",
          "type": "uint256"
        }
      ],
      "stateMutability": "view",
      "type": "function"
    },
    {
      "inputs": [],
      "name": "swapProxy",
      "outputs": [
        {
          "internalType": "address",
          "name": "",
          "type": "address"
        }
      ],
      "stateMutability": "view",
      "type": "function"
    },
    {
      "inputs": [],
      "name": "swappedAmountTOS",
      "outputs": [
        {
          "internalType": "uint256",
          "name": "",
          "type": "uint256"
        }
      ],
      "stateMutability": "view",
      "type": "function"
    },
    {
      "inputs": [],
      "name": "toTokamak",
      "outputs": [
        {
          "internalType": "uint256",
          "name": "",
          "type": "uint256"
        }
      ],
      "stateMutability": "view",
      "type": "function"
    },
    {
      "inputs": [],
      "name": "toUniswapWTON",
      "outputs": [
        {
          "internalType": "uint256",
          "name": "",
          "type": "uint256"
        }
      ],
      "stateMutability": "view",
      "type": "function"
    },
    {
      "inputs": [],
      "name": "tokamakLayer2",
      "outputs": [
        {
          "internalType": "address",
          "name": "",
          "type": "address"
        }
      ],
      "stateMutability": "view",
      "type": "function"
    },
    {
      "inputs": [],
      "name": "token",
      "outputs": [
        {
          "internalType": "address",
          "name": "",
          "type": "address"
        }
      ],
      "stateMutability": "view",
      "type": "function"
    },
    {
      "inputs": [],
      "name": "ton",
      "outputs": [
        {
          "internalType": "address",
          "name": "",
          "type": "address"
        }
      ],
      "stateMutability": "view",
      "type": "function"
    },
    {
      "inputs": [],
      "name": "totalStakedAmount",
      "outputs": [
        {
          "internalType": "uint256",
          "name": "",
          "type": "uint256"
        }
      ],
      "stateMutability": "view",
      "type": "function"
    },
    {
      "inputs": [],
      "name": "totalStakers",
      "outputs": [
        {
          "internalType": "uint256",
          "name": "",
          "type": "uint256"
        }
      ],
      "stateMutability": "view",
      "type": "function"
    },
    {
      "inputs": [
        {
          "internalType": "address",
          "name": "newAdmin",
          "type": "address"
        }
      ],
      "name": "transferAdmin",
      "outputs": [],
      "stateMutability": "nonpayable",
      "type": "function"
    },
    {
      "inputs": [
        {
          "internalType": "address",
          "name": "",
          "type": "address"
        }
      ],
      "name": "userStaked",
      "outputs": [
        {
          "internalType": "uint256",
          "name": "amount",
          "type": "uint256"
        },
        {
          "internalType": "uint256",
          "name": "claimedBlock",
          "type": "uint256"
        },
        {
          "internalType": "uint256",
          "name": "claimedAmount",
          "type": "uint256"
        },
        {
          "internalType": "uint256",
          "name": "releasedBlock",
          "type": "uint256"
        },
        {
          "internalType": "uint256",
          "name": "releasedAmount",
          "type": "uint256"
        },
        {
          "internalType": "uint256",
          "name": "releasedTOSAmount",
          "type": "uint256"
        },
        {
          "internalType": "bool",
          "name": "released",
          "type": "bool"
        }
      ],
      "stateMutability": "view",
      "type": "function"
    },
    {
      "inputs": [],
      "name": "vault",
      "outputs": [
        {
          "internalType": "address",
          "name": "",
          "type": "address"
        }
      ],
      "stateMutability": "view",
      "type": "function"
    },
    {
      "inputs": [],
      "name": "withdrawFlag",
      "outputs": [
        {
          "internalType": "bool",
          "name": "",
          "type": "bool"
        }
      ],
      "stateMutability": "view",
      "type": "function"
    },
    {
      "inputs": [],
      "name": "wton",
      "outputs": [
        {
          "internalType": "address",
          "name": "",
          "type": "address"
        }
      ],
      "stateMutability": "view",
      "type": "function"
    },
    {
      "inputs": [
        {
          "internalType": "address",
          "name": "_registry",
          "type": "address"
        }
      ],
      "name": "setRegistry",
      "outputs": [],
      "stateMutability": "nonpayable",
      "type": "function"
    },
    {
      "inputs": [
        {
          "internalType": "address",
          "name": "_layer2",
          "type": "address"
        }
      ],
      "name": "setTokamakLayer2",
      "outputs": [],
      "stateMutability": "nonpayable",
      "type": "function"
    },
    {
      "inputs": [],
      "name": "getUniswapInfo",
      "outputs": [
        {
          "internalType": "address",
          "name": "uniswapRouter",
          "type": "address"
        },
        {
          "internalType": "address",
          "name": "npm",
          "type": "address"
        },
        {
          "internalType": "address",
          "name": "ext",
          "type": "address"
        },
        {
          "internalType": "uint256",
          "name": "fee",
          "type": "uint256"
        },
        {
          "internalType": "address",
          "name": "uniswapRouterV2",
          "type": "address"
        }
      ],
      "stateMutability": "view",
      "type": "function"
    },
    {
      "inputs": [
        {
          "internalType": "uint256",
          "name": "amount",
          "type": "uint256"
        },
        {
          "internalType": "bool",
          "name": "toWTON",
          "type": "bool"
        }
      ],
      "name": "swapTONtoWTON",
      "outputs": [],
      "stateMutability": "nonpayable",
      "type": "function"
    },
    {
      "inputs": [],
      "name": "checkTokamak",
      "outputs": [],
      "stateMutability": "nonpayable",
      "type": "function"
    },
    {
      "inputs": [
        {
          "internalType": "address",
          "name": "_layer2",
          "type": "address"
        },
        {
          "internalType": "uint256",
          "name": "stakeAmount",
          "type": "uint256"
        }
      ],
      "name": "tokamakStaking",
      "outputs": [],
      "stateMutability": "nonpayable",
      "type": "function"
    },
    {
      "inputs": [
        {
          "internalType": "address",
          "name": "_layer2",
          "type": "address"
        },
        {
          "internalType": "uint256",
          "name": "wtonAmount",
          "type": "uint256"
        }
      ],
      "name": "tokamakRequestUnStaking",
      "outputs": [],
      "stateMutability": "nonpayable",
      "type": "function"
    },
    {
      "inputs": [
        {
          "internalType": "address",
          "name": "_layer2",
          "type": "address"
        }
      ],
      "name": "tokamakRequestUnStakingAll",
      "outputs": [],
      "stateMutability": "nonpayable",
      "type": "function"
    },
    {
      "inputs": [
        {
          "internalType": "address",
          "name": "_layer2",
          "type": "address"
        }
      ],
      "name": "tokamakProcessUnStaking",
      "outputs": [],
      "stateMutability": "nonpayable",
      "type": "function"
    },
    {
      "inputs": [
        {
          "internalType": "uint256",
          "name": "_amountIn",
          "type": "uint256"
        },
        {
          "internalType": "uint256",
          "name": "_amountOutMinimum",
          "type": "uint256"
        },
        {
          "internalType": "uint256",
          "name": "_deadline",
          "type": "uint256"
        },
        {
          "internalType": "uint160",
          "name": "_sqrtPriceLimitX96",
          "type": "uint160"
        },
        {
          "internalType": "uint256",
          "name": "_kind",
          "type": "uint256"
        }
      ],
      "name": "exchangeWTONtoTOS",
      "outputs": [
        {
          "internalType": "uint256",
          "name": "amountOut",
          "type": "uint256"
        }
      ],
      "stateMutability": "nonpayable",
      "type": "function"
    }
  ],
  "bytecode": "0x608060405234801561001057600080fd5b50613a8c806100206000396000f3fe608060405234801561001057600080fd5b50600436106102f85760003560e01c80637df3f40c11610193578063ca15c873116100e4578063e58e274711610092578063e58e2747146105b8578063e6a7bc87146105c0578063f0cdfa53146105c8578063fbfa77cf146105db578063fc0c546a146105e3578063fd7fa460146105eb578063ff758788146105f3576102f8565b8063ca15c87314610554578063cc48b94714610567578063ce681ce61461056f578063d539139314610582578063d547741f1461058a578063dac3fc3f1461059d578063e09974b9146105b0576102f8565b80639d84ca35116101415780639d84ca35146104e8578063a1f5f50e146104f0578063a217fddf146104f8578063a6e8670e14610500578063a91ee0dc14610513578063acc3a93914610526578063b2d4d6a31461054c576102f8565b80637df3f40c1461047d57806386989038146104905780638d62d949146104985780639010d07c146104a057806391d14854146104b357806392ea3b4c146104c65780639a88be2f146104ce576102f8565b806348cd4cb11161024d5780636fb7f558116101fb5780636fb7f55814610419578063704802751461042157806371def0b3146104345780637228532614610447578063730464a91461044f57806375829def1461046257806375b238fc14610475576102f8565b806348cd4cb1146103e1578063567e98f9146103e957806363a8fd89146103f157806368304835146103f95780636c7ac9d8146104015780636e7cf534146104095780636ec4be9014610411576102f8565b8063248a9ca3116102aa578063248a9ca31461036357806324d7806c14610376578063282c51f3146103965780632995fa0e1461039e5780632f2ff15d146103a657806336568abe146103b957806343b0934a146103cc576102f8565b806305871b78146102fd578063065c43131461031b578063083c6323146103305780630ac8e0f3146103385780630ea3d9c9146103405780631785f53c14610348578063200272751461035b575b600080fd5b61030561060c565b6040516103129190613205565b60405180910390f35b61032e610329366004612eda565b610612565b005b610305610ba5565b610305610bab565b610305610bb1565b61032e610356366004612dee565b610bb7565b610305610c16565b610305610371366004612f21565b610c1c565b610389610384366004612dee565b610c31565b60405161031291906131fa565b610305610c51565b61032e610c75565b61032e6103b4366004612f39565b610dfa565b61032e6103c7366004612f39565b610e61565b6103d4610ec2565b60405161031291906130aa565b610305610ed1565b610305610ed7565b610389610edd565b6103d4610ee6565b6103d4610ef5565b610389610f04565b6103d4610f0d565b6103d4610f1c565b61032e61042f366004612dee565b610f2b565b61032e610442366004612dee565b610f87565b610305611188565b61032e61045d366004612dee565b61118e565b61032e610470366004612dee565b6114e0565b610305611601565b61032e61048b366004612fa1565b611613565b610305611930565b6103d4611936565b6103d46104ae366004612f68565b611945565b6103896104c1366004612f39565b611964565b6103d461197c565b6104d661198b565b60405161031296959493929190613129565b6103d46119e1565b6103896119f5565b610305611a05565b61032e61050e366004612dee565b611a0a565b61032e610521366004612dee565b611ae6565b610539610534366004612dee565b611bae565b60405161031297969594939291906138ee565b610305611bee565b610305610562366004612f21565b611bf4565b6103d4611c0b565b61032e61057d366004612eda565b611c1a565b610305611ec6565b61032e610598366004612f39565b611eea565b6105396105ab366004612dee565b611f43565b610305611f8c565b610305611f92565b610305611f98565b6103056105d6366004612fc5565b611f9e565b6103d461281e565b6103d461282d565b61030561283c565b6105fb612842565b6040516103129594939291906130f9565b60155481565b600b541561063b5760405162461bcd60e51b81526004016106329061344a565b60405180910390fd5b6001600b819055546001600160a01b0316806106695760405162461bcd60e51b81526004016106329061320e565b826001600160a01b0381166106905760405162461bcd60e51b81526004016106329061320e565b600360009054906101000a90046001600160a01b03166001600160a01b031663b8c766b86040518163ffffffff1660e01b815260040160206040518083038186803b1580156106de57600080fd5b505afa1580156106f2573d6000803e3d6000fd5b505050506040513d601f19601f820116820180604052508101906107169190612f05565b6107325760405162461bcd60e51b8152600401610632906137b1565b6006544311156107545760405162461bcd60e51b81526004016106329061331e565b600083116107745760405162461bcd60e51b8152600401610632906136fc565b6002601955610781610c75565b60105460408051633761ead760e11b815290516000926001600160a01b031691636ec3d5ae916004808301926020929190829003018186803b1580156107c657600080fd5b505afa1580156107da573d6000803e3d6000fd5b505050506040513d601f19601f820116820180604052508101906107fe9190612f89565b9050806006540343106108235760405162461bcd60e51b815260040161063290613350565b6012546001600160a01b031661085357601280546001600160a01b0319166001600160a01b0387161790556109d8565b600f546012546040516367265c3b60e11b81526000926001600160a01b039081169263ce4cb8769261088d929091169030906004016130df565b60206040518083038186803b1580156108a557600080fd5b505afa1580156108b9573d6000803e3d6000fd5b505050506040513d601f19601f820116820180604052508101906108dd9190612f89565b11806109705750601054601254604051632638fdf560e01b81526000926001600160a01b0390811692632638fdf59261091e929091169030906004016130df565b60206040518083038186803b15801561093657600080fd5b505afa15801561094a573d6000803e3d6000fd5b505050506040513d601f19601f8201168201806040525081019061096e9190612f89565b115b156109a7576012546001600160a01b038681169116146109a25760405162461bcd60e51b815260040161063290613543565b6109d8565b6012546001600160a01b038681169116146109d857601280546001600160a01b0319166001600160a01b0387161790555b600d546040516370a0823160e01b815285916001600160a01b0316906370a0823190610a089030906004016130aa565b60206040518083038186803b158015610a2057600080fd5b505afa158015610a34573d6000803e3d6000fd5b505050506040513d601f19601f82011682018060405250810190610a589190612f89565b1015610a765760405162461bcd60e51b8152600401610632906135fe565b601354610a8390856128e1565b601355601054604051600091610aa9916001600160a01b039091169088906020016130df565b60408051601f1981840301815290829052600d54600e5463cae9ca5160e01b84529193506001600160a01b039081169263cae9ca5192610af1921690899086906004016131ca565b602060405180830381600087803b158015610b0b57600080fd5b505af1158015610b1f573d6000803e3d6000fd5b505050506040513d601f19601f82011682018060405250810190610b439190612f05565b610b5f5760405162461bcd60e51b815260040161063290613478565b7f36f1e081b7e687a2472c2fbd52bc97993ddc788b19c74010f11e25f3c917d2dd8686604051610b9092919061318e565b60405180910390a150506000600b5550505050565b60065481565b60145481565b60165481565b610bc033610c31565b610bfb5760405162461bcd60e51b81526004018080602001828103825260228152602001806139956022913960400191505060405180910390fd5b610c13600080516020613a0883398151915282610e61565b50565b60045481565b6000908152601c602052604090206002015490565b6000610c4b600080516020613a0883398151915283611964565b92915050565b7f9667e80708b6eeeb0053fa0cca44e028ff548e2a9f029edfeac87c118b08b7c881565b600d546001600160a01b0316610d76576000806000806000600160009054906101000a90046001600160a01b03166001600160a01b031663a782ebd56040518163ffffffff1660e01b815260040160a06040518083038186803b158015610cdb57600080fd5b505afa158015610cef573d6000803e3d6000fd5b505050506040513d601f19601f82011682018060405250810190610d139190612e0a565b600d80546001600160a01b03199081166001600160a01b0397881617909155600e805482169587169590951790945560108054851693861693909317909255600f8054841691851691909117905560118054909216921691909117905550505050505b600d546001600160a01b031615801590610d9a5750600e546001600160a01b031615155b8015610db05750600f546001600160a01b031615155b8015610dc657506010546001600160a01b031615155b8015610ddc57506011546001600160a01b031615155b610df85760405162461bcd60e51b8152600401610632906136c5565b565b6000828152601c6020526040902060020154610e18906104c161293b565b610e535760405162461bcd60e51b815260040180806020018281038252602f815260200180613966602f913960400191505060405180910390fd5b610e5d828261293f565b5050565b610e6961293b565b6001600160a01b0316816001600160a01b031614610eb85760405162461bcd60e51b815260040180806020018281038252602f815260200180613a28602f913960400191505060405180910390fd5b610e5d82826129a8565b6002546001600160a01b031681565b60055481565b60085481565b600c5460ff1681565b6001546001600160a01b031681565b6010546001600160a01b031681565b601b5460ff1681565b6011546001600160a01b031681565b600f546001600160a01b031681565b610f3433610c31565b610f6f5760405162461bcd60e51b81526004018080602001828103825260228152602001806139956022913960400191505060405180910390fd5b610c13600080516020613a0883398151915282610dfa565b600b5415610fa75760405162461bcd60e51b81526004016106329061344a565b6001600b819055546001600160a01b031680610fd55760405162461bcd60e51b81526004016106329061320e565b600360009054906101000a90046001600160a01b03166001600160a01b031663b8c766b86040518163ffffffff1660e01b815260040160206040518083038186803b15801561102357600080fd5b505afa158015611037573d6000803e3d6000fd5b505050506040513d601f19601f8201168201806040525081019061105b9190612f05565b6110775760405162461bcd60e51b8152600401610632906137b1565b60125482906001600160a01b038083169116146110a65760405162461bcd60e51b815260040161063290613543565b6003601955601a546110b99060016128e1565b601a556110c4610c75565b601054604051636b2160b760e01b81526001600160a01b0390911690636b2160b7906110f49086906004016130aa565b602060405180830381600087803b15801561110e57600080fd5b505af1158015611122573d6000803e3d6000fd5b505050506040513d601f19601f820116820180604052508101906111469190612f05565b507fd1c4e96e0fd22936ea8aebe0b8e06b19f1c4a836b141a34cf9e925d2afb205238360405161117691906130aa565b60405180910390a150506000600b5550565b60195481565b600b54156111ae5760405162461bcd60e51b81526004016106329061344a565b6001600b819055546001600160a01b0316806111dc5760405162461bcd60e51b81526004016106329061320e565b600360009054906101000a90046001600160a01b03166001600160a01b031663b8c766b86040518163ffffffff1660e01b815260040160206040518083038186803b15801561122a57600080fd5b505afa15801561123e573d6000803e3d6000fd5b505050506040513d601f19601f820116820180604052508101906112629190612f05565b61127e5760405162461bcd60e51b8152600401610632906137b1565b60125482906001600160a01b038083169116146112ad5760405162461bcd60e51b815260040161063290613543565b600560195414156112d05760405162461bcd60e51b815260040161063290613648565b6005601955601a805460009091556112e6610c75565b600f546012546040516367265c3b60e11b81526001600160a01b039283169263ce4cb8769261131c9291169030906004016130df565b60206040518083038186803b15801561133457600080fd5b505afa158015611348573d6000803e3d6000fd5b505050506040513d601f19601f8201168201806040525081019061136c9190612f89565b61138157601280546001600160a01b03191690555b601054604051632638fdf560e01b815261140e916001600160a01b031690632638fdf5906113b590889030906004016130df565b60206040518083038186803b1580156113cd57600080fd5b505afa1580156113e1573d6000803e3d6000fd5b505050506040513d601f19601f820116820180604052508101906114059190612f89565b601454906128e1565b60145560105460405163fb0713b160e01b81526001600160a01b039091169063fb0713b19061144690879085906001906004016131a7565b602060405180830381600087803b15801561146057600080fd5b505af1158015611474573d6000803e3d6000fd5b505050506040513d601f19601f820116820180604052508101906114989190612f05565b507f76d210b2dc3da8be1904d8b5da9feb5cdd21af436261626c4ec607e2123b417d848260016040516114cd939291906131a7565b60405180910390a150506000600b555050565b6114e933610c31565b6115245760405162461bcd60e51b81526004018080602001828103825260228152602001806139956022913960400191505060405180910390fd5b6001600160a01b03811661157a576040805162461bcd60e51b815260206004820152601860248201527741636365737369626c653a207a65726f206164647265737360401b604482015290519081900360640190fd5b336001600160a01b03821614156115d1576040805162461bcd60e51b815260206004820152601660248201527520b1b1b2b9b9b4b136329d1039b0b6b29030b236b4b760511b604482015290519081900360640190fd5b6115e9600080516020613a0883398151915282610dfa565b610c13600080516020613a0883398151915233610e61565b600080516020613a0883398151915281565b600b54156116335760405162461bcd60e51b81526004016106329061344a565b6001600b55611640610c75565b80156117eb576011546001600160a01b031661166e5760405162461bcd60e51b8152600401610632906132e9565b600d546040516370a0823160e01b815283916001600160a01b0316906370a082319061169e9030906004016130aa565b60206040518083038186803b1580156116b657600080fd5b505afa1580156116ca573d6000803e3d6000fd5b505050506040513d601f19601f820116820180604052508101906116ee9190612f89565b101561170c5760405162461bcd60e51b815260040161063290613399565b60115460405160009161172f916001600160a01b039091169081906020016130df565b60408051601f1981840301815290829052600d54600e5463cae9ca5160e01b84529193506001600160a01b039081169263cae9ca5192611777921690879086906004016131ca565b602060405180830381600087803b15801561179157600080fd5b505af11580156117a5573d6000803e3d6000fd5b505050506040513d601f19601f820116820180604052508101906117c99190612f05565b6117e55760405162461bcd60e51b8152600401610632906135af565b50611927565b600e546040516370a0823160e01b815283916001600160a01b0316906370a082319061181b9030906004016130aa565b60206040518083038186803b15801561183357600080fd5b505afa158015611847573d6000803e3d6000fd5b505050506040513d601f19601f8201168201806040525081019061186b9190612f89565b10156118895760405162461bcd60e51b8152600401610632906133f1565b600e5460405163f53fe70f60e01b81526001600160a01b039091169063f53fe70f906118b9908590600401613205565b602060405180830381600087803b1580156118d357600080fd5b505af11580156118e7573d6000803e3d6000fd5b505050506040513d601f19601f8201168201806040525081019061190b9190612f05565b6119275760405162461bcd60e51b81526004016106329061368e565b50506000600b55565b600a5481565b600e546001600160a01b031681565b6000828152601c6020526040812061195d9083612a11565b9392505050565b6000828152601c6020526040812061195d9083612a1d565b6012546001600160a01b031681565b600080611996612dd0565b5050600254600354604080516060810182526004548152600554602082015260065491810191909152600754600854600a546001600160a01b03958616979590941695509193909290565b600c5461010090046001600160a01b031681565b600c54600160a81b900460ff1681565b600081565b611a1333610c31565b611a4e5760405162461bcd60e51b81526004018080602001828103825260228152602001806139956022913960400191505060405180910390fd5b6001600160a01b03811615801590611a7457506012546001600160a01b03828116911614155b611a905760405162461bcd60e51b8152600401610632906132a8565b601280546001600160a01b0319166001600160a01b0383161790556040517fbcf2b04f5517cca822ae60e21bb6e3889b8d8307ea062c5266c63a014386c99090611adb9083906130aa565b60405180910390a150565b611aef33610c31565b611b2a5760405162461bcd60e51b81526004018080602001828103825260228152602001806139956022913960400191505060405180910390fd5b806001600160a01b038116611b515760405162461bcd60e51b81526004016106329061320e565b600180546001600160a01b0319166001600160a01b0384811691909117918290556040517f278c70ced5f3e0e5eeb385b5ff9cb735748ba00a625147e66065ed48fc1562cd92611ba29216906130aa565b60405180910390a15050565b6009602052600090815260409020805460018201546002830154600384015460048501546005860154600690960154949593949293919290919060ff1687565b60075481565b6000818152601c60205260408120610c4b90612a32565b600d546001600160a01b031681565b600b5415611c3a5760405162461bcd60e51b81526004016106329061344a565b6001600b819055546001600160a01b031680611c685760405162461bcd60e51b81526004016106329061320e565b600360009054906101000a90046001600160a01b03166001600160a01b031663b8c766b86040518163ffffffff1660e01b815260040160206040518083038186803b158015611cb657600080fd5b505afa158015611cca573d6000803e3d6000fd5b505050506040513d601f19601f82011682018060405250810190611cee9190612f05565b611d0a5760405162461bcd60e51b8152600401610632906137b1565b60125483906001600160a01b03808316911614611d395760405162461bcd60e51b815260040161063290613543565b6003601955601a54611d4c9060016128e1565b601a55611d57610c75565b600f546040516367265c3b60e11b81526000916001600160a01b03169063ce4cb87690611d8a90889030906004016130df565b60206040518083038186803b158015611da257600080fd5b505afa158015611db6573d6000803e3d6000fd5b505050506040513d601f19601f82011682018060405250810190611dda9190612f89565b905083811015611dfc5760405162461bcd60e51b81526004016106329061327c565b60105460405163da95ebf760e01b81526001600160a01b039091169063da95ebf790611e2e908890889060040161318e565b602060405180830381600087803b158015611e4857600080fd5b505af1158015611e5c573d6000803e3d6000fd5b505050506040513d601f19601f82011682018060405250810190611e809190612f05565b507f2a23e23c116b511f71c9f0c2648b0372e6bbcb1f559a7cbfaed5c55933ea6c4e8585604051611eb292919061318e565b60405180910390a150506000600b55505050565b7ff0887ba65ee2024ea881d91b74c2450ef19e1557f03bed3ea9f16b037cbe2dc981565b6000828152601c6020526040902060020154611f08906104c161293b565b610eb85760405162461bcd60e51b81526004018080602001828103825260308152602001806139b76030913960400191505060405180910390fd5b6001600160a01b03166000908152600960205260409020805460018201546002830154600384015460048501546005860154600690960154949693959294919390929160ff1690565b601a5481565b60175481565b60185481565b6000600b54600014611fc25760405162461bcd60e51b81526004016106329061344a565b6001600b5560035460408051631718ecd760e31b815290516001600160a01b039092169163b8c766b891600480820192602092909190829003018186803b15801561200c57600080fd5b505afa158015612020573d6000803e3d6000fd5b505050506040513d601f19601f820116820180604052508101906120449190612f05565b6120605760405162461bcd60e51b8152600401610632906137b1565b6006544311156120825760405162461bcd60e51b81526004016106329061377e565b600282106120a25760405162461bcd60e51b81526004016106329061373d565b6120aa610c75565b600e546040516370a0823160e01b81526000916001600160a01b0316906370a08231906120db9030906004016130aa565b60206040518083038186803b1580156120f357600080fd5b505afa158015612107573d6000803e3d6000fd5b505050506040513d601f19601f8201168201806040525081019061212b9190612f89565b600d546040516370a0823160e01b81529192506000916001600160a01b03909116906370a08231906121619030906004016130aa565b60206040518083038186803b15801561217957600080fd5b505afa15801561218d573d6000803e3d6000fd5b505050506040513d601f19601f820116820180604052508101906121b19190612f89565b6012549091506000906001600160a01b0316156122e557600f546012546040516367265c3b60e11b81526001600160a01b039283169263ce4cb876926121fe9291169030906004016130df565b60206040518083038186803b15801561221657600080fd5b505afa15801561222a573d6000803e3d6000fd5b505050506040513d601f19601f8201168201806040525081019061224e9190612f89565b601054601254604051632638fdf560e01b81529293506122e2926001600160a01b0392831692632638fdf59261228b9291169030906004016130df565b60206040518083038186803b1580156122a357600080fd5b505afa1580156122b7573d6000803e3d6000fd5b505050506040513d601f19601f820116820180604052508101906122db9190612f89565b82906128e1565b90505b828215612300576122fd6122db84633b9aca00612a3d565b90505b898110156123205760405162461bcd60e51b81526004016106329061357a565b81156123335761233081836128e1565b90505b60085461234490633b9aca00612a3d565b8111801561237457508961237161236a633b9aca00600854612a3d90919063ffffffff16565b8390612a96565b10155b6123905760405162461bcd60e51b81526004016106329061350c565b89841015612492576011546040516000916123bb916001600160a01b039091169081906020016130df565b60408051601f19818403018152919052905060006123e7633b9aca006123e18e89612a96565b90612ad8565b600d54600e5460405163cae9ca5160e01b81529293506001600160a01b039182169263cae9ca5192612421921690859087906004016131ca565b602060405180830381600087803b15801561243b57600080fd5b505af115801561244f573d6000803e3d6000fd5b505050506040513d601f19601f820116820180604052508101906124739190612f05565b61248f5760405162461bcd60e51b8152600401610632906134b9565b50505b50506015546124a492509050876128e1565b6015819055506000806000600160009054906101000a90046001600160a01b03166001600160a01b031663504563c06040518163ffffffff1660e01b815260040160a06040518083038186803b1580156124fd57600080fd5b505afa158015612511573d6000803e3d6000fd5b505050506040513d601f19601f820116820180604052508101906125359190612e7e565b509295509350909150506001600160a01b0383166125655760405162461bcd60e51b815260040161063290613245565b600e5460405163095ea7b360e01b81526001600160a01b039091169063095ea7b3906125979086908d9060040161318e565b602060405180830381600087803b1580156125b157600080fd5b505af11580156125c5573d6000803e3d6000fd5b505050506040513d601f19601f820116820180604052508101906125e99190612f05565b6126055760405162461bcd60e51b8152600401610632906137e4565b846126db576040805161010081018252600e546001600160a01b0390811682526000548116602083015262ffffff841682840152306060830152608082018a905260a082018c905260c082018b905288811660e0830152915163414bf38960e01b8152909185169063414bf38990612681908490600401613885565b602060405180830381600087803b15801561269b57600080fd5b505af11580156126af573d6000803e3d6000fd5b505050506040513d601f19601f820116820180604052508101906126d39190612f89565b9450506127d2565b84600114156127d2576040805160a08101909152600e5460008054909291829161271b916001600160a01b03908116918791899183911660c08701613058565b6040516020818303038152906040528152602001306001600160a01b031681526020018981526020018b81526020018a8152509050836001600160a01b031663c04b8d59826040518263ffffffff1660e01b815260040161277c919061382d565b602060405180830381600087803b15801561279657600080fd5b505af11580156127aa573d6000803e3d6000fd5b505050506040513d601f19601f820116820180604052508101906127ce9190612f89565b9450505b7f6ad50db5d488c314f9077fc5c41c7d8bcdd86ddc409871512ddd009f21067d32338a86604051612805939291906130be565b60405180910390a150506000600b555095945050505050565b6003546001600160a01b031681565b6000546001600160a01b031681565b60135481565b6000806000806000600160009054906101000a90046001600160a01b03166001600160a01b031663504563c06040518163ffffffff1660e01b815260040160a06040518083038186803b15801561289857600080fd5b505afa1580156128ac573d6000803e3d6000fd5b505050506040513d601f19601f820116820180604052508101906128d09190612e7e565b945094509450945094509091929394565b60008282018381101561195d576040805162461bcd60e51b815260206004820152601b60248201527f536166654d6174683a206164646974696f6e206f766572666c6f770000000000604482015290519081900360640190fd5b3390565b6000828152601c602052604090206129579082612b1a565b15610e5d5761296461293b565b6001600160a01b0316816001600160a01b0316837f2f8788117e7eff1d82e926ec794901d17c78024a50270940304540a733656f0d60405160405180910390a45050565b6000828152601c602052604090206129c09082612b2f565b15610e5d576129cd61293b565b6001600160a01b0316816001600160a01b0316837ff6391f5c32d9c69d2a47ea670b442974b53935d1edc7fd64eb21e047a839171b60405160405180910390a45050565b600061195d8383612b44565b600061195d836001600160a01b038416612ba8565b6000610c4b82612bc0565b600082612a4c57506000610c4b565b82820282848281612a5957fe5b041461195d5760405162461bcd60e51b81526004018080602001828103825260218152602001806139e76021913960400191505060405180910390fd5b600061195d83836040518060400160405280601e81526020017f536166654d6174683a207375627472616374696f6e206f766572666c6f770000815250612bc4565b600061195d83836040518060400160405280601a81526020017f536166654d6174683a206469766973696f6e206279207a65726f000000000000815250612c5b565b600061195d836001600160a01b038416612cc0565b600061195d836001600160a01b038416612d0a565b81546000908210612b865760405162461bcd60e51b81526004018080602001828103825260228152602001806139446022913960400191505060405180910390fd5b826000018281548110612b9557fe5b9060005260206000200154905092915050565b60009081526001919091016020526040902054151590565b5490565b60008184841115612c535760405162461bcd60e51b81526004018080602001828103825283818151815260200191508051906020019080838360005b83811015612c18578181015183820152602001612c00565b50505050905090810190601f168015612c455780820380516001836020036101000a031916815260200191505b509250505060405180910390fd5b505050900390565b60008183612caa5760405162461bcd60e51b8152602060048201818152835160248401528351909283926044909101919085019080838360008315612c18578181015183820152602001612c00565b506000838581612cb657fe5b0495945050505050565b6000612ccc8383612ba8565b612d0257508154600181810184556000848152602080822090930184905584548482528286019093526040902091909155610c4b565b506000610c4b565b60008181526001830160205260408120548015612dc65783546000198083019190810190600090879083908110612d3d57fe5b9060005260206000200154905080876000018481548110612d5a57fe5b600091825260208083209091019290925582815260018981019092526040902090840190558654879080612d8a57fe5b60019003818190600052602060002001600090559055866001016000878152602001908152602001600020600090556001945050505050610c4b565b6000915050610c4b565b60405180606001604052806003906020820280368337509192915050565b600060208284031215612dff578081fd5b813561195d81613920565b600080600080600060a08688031215612e21578081fd5b8551612e2c81613920565b6020870151909550612e3d81613920565b6040870151909450612e4e81613920565b6060870151909350612e5f81613920565b6080870151909250612e7081613920565b809150509295509295909350565b600080600080600060a08688031215612e95578081fd5b8551612ea081613920565b6020870151909550612eb181613920565b6040870151909450612ec281613920565b606087015160808801519194509250612e7081613920565b60008060408385031215612eec578182fd5b8235612ef781613920565b946020939093013593505050565b600060208284031215612f16578081fd5b815161195d81613935565b600060208284031215612f32578081fd5b5035919050565b60008060408385031215612f4b578182fd5b823591506020830135612f5d81613920565b809150509250929050565b60008060408385031215612f7a578182fd5b50508035926020909101359150565b600060208284031215612f9a578081fd5b5051919050565b60008060408385031215612fb3578182fd5b823591506020830135612f5d81613935565b600080600080600060a08688031215612fdc578081fd5b8535945060208601359350604086013592506060860135612ffc81613920565b949793965091946080013592915050565b60008151808452815b8181101561303257602081850181015186830182015201613016565b818111156130435782602083870101525b50601f01601f19169290920160200192915050565b6bffffffffffffffffffffffff19606096871b811682526001600160e81b031960e896871b8116601484015294871b811660178301529290941b909216602b840152921b909116602e82015260420190565b6001600160a01b0391909116815260200190565b6001600160a01b039390931683526020830191909152604082015260600190565b6001600160a01b0392831681529116602082015260400190565b6001600160a01b039586168152938516602085015291841660408401526060830152909116608082015260a00190565b6001600160a01b038781168252861660208083019190915261010082019060408301908760005b600381101561316d57815184529282019290820190600101613150565b505050508460a08301528360c08301528260e0830152979650505050505050565b6001600160a01b03929092168252602082015260400190565b6001600160a01b0393909316835260208301919091521515604082015260600190565b600060018060a01b0385168252836020830152606060408301526131f1606083018461300d565b95945050505050565b901515815260200190565b90815260200190565b6020808252601b908201527f546f6b616d616b5374616b65723a207a65726f20616464726573730000000000604082015260600190565b6020808252601a908201527f546f6b616d616b5374616b65723a756e6973776170207a65726f000000000000604082015260600190565b602080825260129082015271546f6b616d616b5374616b65723a6c61636b60701b604082015260600190565b60208082526021908201527f546f6b616d616b5374616b65723a746f6b616d616b4c6179657232207a65726f6040820152600160fd1b606082015260800190565b6020808252818101527f546f6b616d616b5374616b65723a207377617050726f7879206973207a65726f604082015260600190565b602080825260189082015277151bdad85b585ad4dd185ad95c8e9c195c9a5bd908195b9960421b604082015260600190565b60208082526029908201527f546f6b616d616b5374616b65723a706572696f64287769746864726177616c44604082015268195b185e4a48195b9960ba1b606082015260800190565b60208082526038908201527f546f6b616d616b5374616b65723a2073776170544f4e746f57544f4e20746f6e6040820152770818985b185b98d9481a5cc81a5b9cdd59999a58da595b9d60421b606082015260800190565b60208082526039908201527f546f6b616d616b5374616b65723a2073776170544f4e746f57544f4e2077746f6040820152781b8818985b185b98d9481a5cc81a5b9cdd59999a58da595b9d603a1b606082015260800190565b602080825260149082015273151bdad85b585ad4dd185ad95c8e9313d0d2d15160621b604082015260600190565b60208082526021908201527f546f6b616d616b5374616b65723a617070726f7665416e6443616c6c206661696040820152601b60fa1b606082015260800190565b60208082526033908201527f546f6b616d616b5374616b65723a65786368616e676557544f4e746f544f5320604082015272185c1c1c9bdd99505b9910d85b1b0819985a5b606a1b606082015260800190565b6020808252601a908201527f546f6b616d616b5374616b65723a696e73756666696369656e74000000000000604082015260600190565b6020808252601d908201527f546f6b616d616b5374616b65723a646966666572656e74206c61796572000000604082015260600190565b6020808252818101527f546f6b616d616b5374616b65723a2077746f6e20696e73756666696369656e74604082015260600190565b6020808252602f908201527f546f6b616d616b5374616b65723a73776170544f4e746f57544f4e206170707260408201526e1bdd99505b9910d85b1b0819985a5b608a1b606082015260800190565b6020808252602a908201527f546f6b616d616b5374616b65723a20746f6e2062616c616e636520697320696e6040820152691cdd59999a58da595b9d60b21b606082015260800190565b60208082526026908201527f546f6b616d616b5374616b65723a416c72656164792050726f63657373556e5360408201526574616b696e6760d01b606082015260800190565b6020808252601c908201527f546f6b616d616b5374616b65723a73776170546f544f4e206661696c00000000604082015260600190565b6020808252601a908201527f546f6b616d616b5374616b65723a746f6b616d616b207a65726f000000000000604082015260600190565b60208082526021908201527f546f6b616d616b5374616b65723a7374616b65416d6f756e74206973207a65726040820152606f60f81b606082015260800190565b60208082526021908201527f546f6b616d616b5374616b65723a206e6f7420617661696c61626c65206b696e6040820152601960fa1b606082015260800190565b602080825260199082015278151bdad85b585ad4dd185ad95c8e881c195c9a5bd908195b99603a1b604082015260600190565b602080825260199082015278151bdad85b585ad4dd185ad95c8e881b9bdd0818db1bdcd959603a1b604082015260600190565b60208082526029908201527f546f6b616d616b5374616b65723a63616e277420617070726f766520756e69736040820152683bb0b82937baba32b960b91b606082015260800190565b600060208252825160a0602084015261384960c084018261300d565b905060018060a01b0360208501511660408401526040840151606084015260608401516080840152608084015160a08401528091505092915050565b81516001600160a01b03908116825260208084015182169083015260408084015162ffffff16908301526060808401518216908301526080808401519083015260a0838101519083015260c0808401519083015260e09283015116918101919091526101000190565b968752602087019590955260408601939093526060850191909152608084015260a0830152151560c082015260e00190565b6001600160a01b0381168114610c1357600080fd5b8015158114610c1357600080fdfe456e756d657261626c655365743a20696e646578206f7574206f6620626f756e6473416363657373436f6e74726f6c3a2073656e646572206d75737420626520616e2061646d696e20746f206772616e7441636365737369626c653a2043616c6c6572206973206e6f7420616e2061646d696e416363657373436f6e74726f6c3a2073656e646572206d75737420626520616e2061646d696e20746f207265766f6b65536166654d6174683a206d756c7469706c69636174696f6e206f766572666c6f77df8b4c520ffe197c5343c6f5aec59570151ef9a492f2c624fd45ddde6135ec42416363657373436f6e74726f6c3a2063616e206f6e6c792072656e6f756e636520726f6c657320666f722073656c66a26469706673582212209e7ee9b09d100b018a59ab787c13586621a5be115e85ab13ccae748a2363d47264736f6c63430007060033",
  "immutableReferences": {},
  "source": "// SPDX-License-Identifier: MIT\npragma solidity ^0.7.6;\npragma abicoder v2;\n\nimport \"../interfaces/ITokamakStaker.sol\";\nimport {ITON} from \"../interfaces/ITON.sol\";\nimport {IIStake1Vault} from \"../interfaces/IIStake1Vault.sol\";\nimport {IIDepositManager} from \"../interfaces/IIDepositManager.sol\";\nimport {IISeigManager} from \"../interfaces/IISeigManager.sol\";\nimport \"@openzeppelin/contracts/math/SafeMath.sol\";\n\nimport \"../common/AccessibleCommon.sol\";\n\nimport \"../stake/StakeTONStorage.sol\";\nimport \"@uniswap/v3-periphery/contracts/interfaces/ISwapRouter.sol\";\n\ninterface IERC20BASE {\n    function totalSupply() external view returns (uint256);\n\n    function balanceOf(address owner) external view returns (uint256);\n\n    function approve(address spender, uint256 value) external returns (bool);\n\n    function transfer(address to, uint256 value) external returns (bool);\n\n    function transferFrom(\n        address from,\n        address to,\n        uint256 value\n    ) external returns (bool);\n}\n\ninterface IIWTON {\n    function swapToTON(uint256 wtonAmount) external returns (bool);\n}\n\ninterface ITokamakRegistry {\n    function getTokamak()\n        external\n        view\n        returns (\n            address,\n            address,\n            address,\n            address,\n            address\n        );\n\n    function getUniswap()\n        external\n        view\n        returns (\n            address,\n            address,\n            address,\n            uint256,\n            address\n        );\n}\n\n/// @title The connector that integrates tokamak\ncontract TokamakStaker is StakeTONStorage, AccessibleCommon, ITokamakStaker {\n    using SafeMath for uint256;\n\n    modifier nonZero(address _addr) {\n        require(_addr != address(0), \"TokamakStaker: zero address\");\n        _;\n    }\n\n    modifier sameTokamakLayer(address _addr) {\n        require(tokamakLayer2 == _addr, \"TokamakStaker:different layer\");\n        _;\n    }\n\n    modifier lock() {\n        require(_lock == 0, \"TokamakStaker:LOCKED\");\n        _lock = 1;\n        _;\n        _lock = 0;\n    }\n\n    modifier onlyClosed() {\n        require(IIStake1Vault(vault).saleClosed(), \"TokamakStaker: not closed\");\n        _;\n    }\n\n    /// @dev event on set the registry address\n    /// @param registry the registry address\n    event SetRegistry(address registry);\n\n    /// @dev event on set the tokamak Layer2 address\n    /// @param layer2 the tokamak Layer2 address\n    event SetTokamakLayer2(address layer2);\n\n    /// @dev event on staking the staked TON in layer2 in tokamak\n    /// @param layer2 the layer2 address in tokamak\n    /// @param amount the amount that stake to layer2\n    event TokamakStaked(address layer2, uint256 amount);\n\n    /// @dev event on request unstaking the wtonAmount in layer2 in tokamak\n    /// @param layer2 the layer2 address in tokamak\n    /// @param amount the amount requested to unstaking\n    event TokamakRequestedUnStaking(address layer2, uint256 amount);\n\n    /// @dev event on process unstaking in layer2 in tokamak\n    /// @param layer2 the layer2 address in tokamak\n    /// @param rn the number of requested unstaking\n    /// @param receiveTON if is true ,TON , else is WTON\n    event TokamakProcessedUnStaking(\n        address layer2,\n        uint256 rn,\n        bool receiveTON\n    );\n\n    /// @dev event on request unstaking the amount of all in layer2 in tokamak\n    /// @param layer2 the layer2 address in tokamak\n    event TokamakRequestedUnStakingAll(address layer2);\n\n    /// @dev exchange WTON to TOS using uniswap v3\n    /// @param caller the sender\n    /// @param amountIn the input amount\n    /// @return amountOut the amount of exchanged out token\n\n    event ExchangedWTONtoTOS(\n        address caller,\n        uint256 amountIn,\n        uint256 amountOut\n    );\n\n    /// @dev exchange WTON to TOS using uniswap v2\n    /// @param caller the sender\n    /// @param amountIn the input amount\n    /// @return amountOut the amount of exchanged out token\n\n    event ExchangedWTONtoTOS2(\n        address caller,\n        uint256 amountIn,\n        uint256 amountOut\n    );\n\n    /// @dev set registry address\n    /// @param _registry new registry address\n    function setRegistry(address _registry)\n        external\n        onlyOwner\n        nonZero(_registry)\n    {\n        stakeRegistry = _registry;\n\n        emit SetRegistry(stakeRegistry);\n    }\n\n    /// @dev set the tokamak Layer2 address\n    /// @param _layer2 new the tokamak Layer2 address\n    function setTokamakLayer2(address _layer2) external override onlyOwner {\n        require(\n            _layer2 != address(0) && tokamakLayer2 != _layer2,\n            \"TokamakStaker:tokamakLayer2 zero \"\n        );\n        tokamakLayer2 = _layer2;\n\n        emit SetTokamakLayer2(_layer2);\n    }\n\n    /// @dev get the addresses that used in uniswap interfaces\n    /// @return uniswapRouter the address of uniswapRouter\n    /// @return npm the address of positionManagerAddress\n    /// @return ext the address of ext\n    /// @return fee the amount of fee\n    function getUniswapInfo()\n        external\n        view\n        override\n        returns (\n            address uniswapRouter,\n            address npm,\n            address ext,\n            uint256 fee,\n            address uniswapRouterV2\n        )\n    {\n        return ITokamakRegistry(stakeRegistry).getUniswap();\n    }\n\n    /// @dev Change the TON holded in contract have to WTON, or change WTON to TON.\n    /// @param amount the amount to be changed\n    /// @param toWTON if it's true, TON->WTON , else WTON->TON\n    function swapTONtoWTON(uint256 amount, bool toWTON) external override lock {\n        checkTokamak();\n\n        if (toWTON) {\n            require(\n                swapProxy != address(0),\n                \"TokamakStaker: swapProxy is zero\"\n            );\n            require(\n                IERC20BASE(ton).balanceOf(address(this)) >= amount,\n                \"TokamakStaker: swapTONtoWTON ton balance is insufficient\"\n            );\n            bytes memory data = abi.encode(swapProxy, swapProxy);\n            require(\n                ITON(ton).approveAndCall(wton, amount, data),\n                \"TokamakStaker:swapTONtoWTON approveAndCall fail\"\n            );\n        } else {\n            require(\n                IERC20BASE(wton).balanceOf(address(this)) >= amount,\n                \"TokamakStaker: swapTONtoWTON wton balance is insufficient\"\n            );\n            require(\n                IIWTON(wton).swapToTON(amount),\n                \"TokamakStaker:swapToTON fail\"\n            );\n        }\n    }\n\n    /// @dev If the tokamak addresses is not set, set the addresses.\n    function checkTokamak() public {\n        if (ton == address(0)) {\n            (\n                address _ton,\n                address _wton,\n                address _depositManager,\n                address _seigManager,\n                address _swapProxy\n            ) = ITokamakRegistry(stakeRegistry).getTokamak();\n\n            ton = _ton;\n            wton = _wton;\n            depositManager = _depositManager;\n            seigManager = _seigManager;\n            swapProxy = _swapProxy;\n        }\n        require(\n            ton != address(0) &&\n                wton != address(0) &&\n                seigManager != address(0) &&\n                depositManager != address(0) &&\n                swapProxy != address(0),\n            \"TokamakStaker:tokamak zero\"\n        );\n    }\n\n    /// @dev  staking the staked TON in layer2 in tokamak\n    /// @param _layer2 the layer2 address in tokamak\n    /// @param stakeAmount the amount that stake to layer2\n    function tokamakStaking(address _layer2, uint256 stakeAmount)\n        external\n        override\n        lock\n        nonZero(stakeRegistry)\n        nonZero(_layer2)\n        onlyClosed\n    {\n        require(block.number <= endBlock, \"TokamakStaker:period end\");\n        require(stakeAmount > 0, \"TokamakStaker:stakeAmount is zero\");\n\n        defiStatus = uint256(LibTokenStake1.DefiStatus.DEPOSITED);\n\n        checkTokamak();\n\n        uint256 globalWithdrawalDelay =\n            IIDepositManager(depositManager).globalWithdrawalDelay();\n        require(\n            block.number < endBlock - globalWithdrawalDelay,\n            \"TokamakStaker:period(withdrawalDelay) end\"\n        );\n\n        if (tokamakLayer2 == address(0)) tokamakLayer2 = _layer2;\n        else {\n            if (\n                IISeigManager(seigManager).stakeOf(\n                    tokamakLayer2,\n                    address(this)\n                ) >\n                0 ||\n                IIDepositManager(depositManager).pendingUnstaked(\n                    tokamakLayer2,\n                    address(this)\n                ) >\n                0\n            ) {\n                require(\n                    tokamakLayer2 == _layer2,\n                    \"TokamakStaker:different layer\"\n                );\n            } else {\n                if (tokamakLayer2 != _layer2) tokamakLayer2 = _layer2;\n            }\n        }\n\n        require(\n            IERC20BASE(ton).balanceOf(address(this)) >= stakeAmount,\n            \"TokamakStaker: ton balance is insufficient\"\n        );\n        toTokamak = toTokamak.add(stakeAmount);\n        bytes memory data = abi.encode(depositManager, _layer2);\n        require(\n            ITON(ton).approveAndCall(wton, stakeAmount, data),\n            \"TokamakStaker:approveAndCall fail\"\n        );\n\n        emit TokamakStaked(_layer2, stakeAmount);\n    }\n\n    /// @dev  request unstaking the wtonAmount in layer2 in tokamak\n    /// @param _layer2 the layer2 address in tokamak\n    /// @param wtonAmount the amount requested to unstaking\n    function tokamakRequestUnStaking(address _layer2, uint256 wtonAmount)\n        external\n        override\n        lock\n        nonZero(stakeRegistry)\n        onlyClosed\n        sameTokamakLayer(_layer2)\n    {\n        defiStatus = uint256(LibTokenStake1.DefiStatus.REQUESTWITHDRAW);\n        requestNum = requestNum.add(1);\n        checkTokamak();\n\n        uint256 stakeOf =\n            IISeigManager(seigManager).stakeOf(_layer2, address(this));\n\n        require(stakeOf >= wtonAmount, \"TokamakStaker:lack\");\n\n        IIDepositManager(depositManager).requestWithdrawal(_layer2, wtonAmount);\n\n        emit TokamakRequestedUnStaking(_layer2, wtonAmount);\n    }\n\n    /// @dev  request unstaking the amount of all in layer2 in tokamak\n    /// @param _layer2 the layer2 address in tokamak\n    function tokamakRequestUnStakingAll(address _layer2)\n        external\n        override\n        lock\n        nonZero(stakeRegistry)\n        onlyClosed\n        sameTokamakLayer(_layer2)\n    {\n        defiStatus = uint256(LibTokenStake1.DefiStatus.REQUESTWITHDRAW);\n        requestNum = requestNum.add(1);\n        checkTokamak();\n\n        IIDepositManager(depositManager).requestWithdrawalAll(_layer2);\n\n        emit TokamakRequestedUnStakingAll(_layer2);\n    }\n\n    /// @dev process unstaking in layer2 in tokamak\n    /// @param _layer2 the layer2 address in tokamak\n    function tokamakProcessUnStaking(address _layer2)\n        external\n        override\n        lock\n        nonZero(stakeRegistry)\n        onlyClosed\n        sameTokamakLayer(_layer2)\n    {\n        require(\n            defiStatus != uint256(LibTokenStake1.DefiStatus.WITHDRAW),\n            \"TokamakStaker:Already ProcessUnStaking\"\n        );\n\n        defiStatus = uint256(LibTokenStake1.DefiStatus.WITHDRAW);\n        uint256 rn = requestNum;\n        requestNum = 0;\n        checkTokamak();\n\n        if (\n            IISeigManager(seigManager).stakeOf(tokamakLayer2, address(this)) ==\n            0\n        ) tokamakLayer2 = address(0);\n\n        fromTokamak = fromTokamak.add(\n            IIDepositManager(depositManager).pendingUnstaked(\n                _layer2,\n                address(this)\n            )\n        );\n\n        // receiveTON = false . to WTON\n        IIDepositManager(depositManager).processRequests(_layer2, rn, true);\n\n        emit TokamakProcessedUnStaking(_layer2, rn, true);\n    }\n\n    /// @dev exchange holded WTON to TOS using uniswap\n    /// @param _amountIn the input amount\n    /// @param _amountOutMinimum the minimun output amount\n    /// @param _deadline deadline\n    /// @param _sqrtPriceLimitX96 sqrtPriceLimitX96\n    /// @param _kind the function type, if 0, use exactInputSingle function, else if, use exactInput function\n    /// @return amountOut the amount of exchanged out token\n    function exchangeWTONtoTOS(\n        uint256 _amountIn,\n        uint256 _amountOutMinimum,\n        uint256 _deadline,\n        uint160 _sqrtPriceLimitX96,\n        uint256 _kind\n    ) external override lock onlyClosed returns (uint256 amountOut) {\n        require(block.number <= endBlock, \"TokamakStaker: period end\");\n        require(_kind < 2, \"TokamakStaker: not available kind\");\n        checkTokamak();\n\n        {\n            uint256 _amountWTON = IERC20BASE(wton).balanceOf(address(this));\n            uint256 _amountTON = IERC20BASE(ton).balanceOf(address(this));\n            uint256 stakeOf = 0;\n            if (tokamakLayer2 != address(0)) {\n                stakeOf = IISeigManager(seigManager).stakeOf(\n                    tokamakLayer2,\n                    address(this)\n                );\n                stakeOf = stakeOf.add(\n                    IIDepositManager(depositManager).pendingUnstaked(\n                        tokamakLayer2,\n                        address(this)\n                    )\n                );\n            }\n            uint256 holdAmount = _amountWTON;\n            if (_amountTON > 0)\n                holdAmount = holdAmount.add(_amountTON.mul(10**9));\n            require(\n                holdAmount >= _amountIn,\n                \"TokamakStaker: wton insufficient\"\n            );\n\n            if (stakeOf > 0) holdAmount = holdAmount.add(stakeOf);\n\n            require(\n                holdAmount > totalStakedAmount.mul(10**9) &&\n                    holdAmount.sub(totalStakedAmount.mul(10**9)) >= _amountIn,\n                \"TokamakStaker:insufficient\"\n            );\n            if (_amountWTON < _amountIn) {\n                bytes memory data = abi.encode(swapProxy, swapProxy);\n                uint256 swapTON = _amountIn.sub(_amountWTON).div(10**9);\n                require(\n                    ITON(ton).approveAndCall(wton, swapTON, data),\n                    \"TokamakStaker:exchangeWTONtoTOS approveAndCall fail\"\n                );\n            }\n        }\n\n        toUniswapWTON = toUniswapWTON.add(_amountIn);\n        (address uniswapRouter, , address wethAddress, uint256 _fee, ) =\n            ITokamakRegistry(stakeRegistry).getUniswap();\n        require(uniswapRouter != address(0), \"TokamakStaker:uniswap zero\");\n        require(\n            IERC20BASE(wton).approve(uniswapRouter, _amountIn),\n            \"TokamakStaker:can't approve uniswapRouter\"\n        );\n\n        if (_kind == 0) {\n            ISwapRouter.ExactInputSingleParams memory params =\n                ISwapRouter.ExactInputSingleParams({\n                    tokenIn: wton,\n                    tokenOut: token,\n                    fee: uint24(_fee),\n                    recipient: address(this),\n                    deadline: _deadline,\n                    amountIn: _amountIn,\n                    amountOutMinimum: _amountOutMinimum,\n                    sqrtPriceLimitX96: _sqrtPriceLimitX96\n                });\n            amountOut = ISwapRouter(uniswapRouter).exactInputSingle(params);\n        } else if (_kind == 1) {\n            ISwapRouter.ExactInputParams memory params =\n                ISwapRouter.ExactInputParams({\n                    path: abi.encodePacked(\n                        wton,\n                        uint24(_fee),\n                        wethAddress,\n                        uint24(_fee),\n                        token\n                    ),\n                    recipient: address(this),\n                    deadline: _deadline,\n                    amountIn: _amountIn,\n                    amountOutMinimum: _amountOutMinimum\n                });\n            amountOut = ISwapRouter(uniswapRouter).exactInput(params);\n        }\n\n        emit ExchangedWTONtoTOS(msg.sender, _amountIn, amountOut);\n    }\n\n    /*\n    function exactInputSingle(uint256 _amountIn, uint256 _amountOutMinimum, uint256 _deadline, uint256 _sqrtPriceLimitX96)\n        external onlyOwner lock returns (uint256 amountOut)\n    {\n        checkTokamak();\n\n        (address uniswapRouter, , address wethAddress, uint256 _fee, ) =\n            ITokamakRegistry(stakeRegistry).getUniswap();\n\n        // address uniswapRouter = 0xE592427A0AEce92De3Edee1F18E0157C05861564;\n        // address wethAddress = 0xc778417E063141139Fce010982780140Aa0cD5Ab;\n        // uint256 _fee = 500;\n\n        require(\n            IERC20BASE(wton).approve(uniswapRouter, _amountIn),\n            \"TokamakStaker:can't approve uniswapRouter\"\n        );\n\n        ISwapRouter.ExactInputSingleParams memory params = ISwapRouter.ExactInputSingleParams(\n            wton,\n            token,\n            uint24(_fee),\n            address(this),\n            _deadline,\n            _amountIn,\n            _amountOutMinimum,\n            uint160(_sqrtPriceLimitX96)\n        );\n        amountOut = ISwapRouter(uniswapRouter).exactInputSingle(params);\n    }\n\n    function exactInputView(address _wton, address _weth, address _tos, uint256 _amountIn, uint256 _amountOutMinimum, uint256 _deadline,  bytes memory _path)\n        external view returns (address uniswapRouter, address wethAddress, bytes memory outBytes , uint256 _fee)\n    {\n        ( uniswapRouter, ,  wethAddress,  _fee, ) =\n            ITokamakRegistry(stakeRegistry).getUniswap();\n\n        outBytes = abi.encodePacked(\n                        _wton,\n                        uint24(_fee),\n                        _weth,\n                        uint24(_fee),\n                        _tos\n                    );\n    }\n\n    function exactInput(uint256 _amountIn, uint256 _amountOutMinimum, uint256 _deadline,  address _target, bytes memory _path)\n        external lock returns (uint256 amountOut )\n    {\n        checkTokamak();\n\n        (address uniswapRouter, , address wethAddress, uint256 _fee, ) =\n            ITokamakRegistry(stakeRegistry).getUniswap();\n\n        require(\n            IERC20BASE(wton).approve(uniswapRouter, _amountIn),\n            \"TokamakStaker:can't approve uniswapRouter\"\n        );\n\n        ISwapRouter.ExactInputParams memory params = ISwapRouter.ExactInputParams(\n             _path,\n             _target,\n             _deadline,\n             _amountIn,\n            _amountOutMinimum\n        );\n        amountOut = ISwapRouter(uniswapRouter).exactInput(params);\n    }*/\n}\n",
  "sourcePath": "/Users/zena/ico2.0/ico20-contracts/contracts/connection/TokamakStaker.sol",
  "compiler": {
    "name": "solc",
    "version": "0.7.6+commit.7338295f.Emscripten.clang"
  },
  "schemaVersion": "3.3.4",
  "updatedAt": "2021-08-02T05:01:31.148Z",
  "devdoc": {
    "events": {
      "ExchangedWTONtoTOS(address,uint256,uint256)": {
        "details": "exchange WTON to TOS using uniswap v3",
        "params": {
          "amountIn": "the input amount",
          "caller": "the sender"
        }
      },
      "ExchangedWTONtoTOS2(address,uint256,uint256)": {
        "details": "exchange WTON to TOS using uniswap v2",
        "params": {
          "amountIn": "the input amount",
          "caller": "the sender"
        }
      },
      "SetRegistry(address)": {
        "details": "event on set the registry address",
        "params": {
          "registry": "the registry address"
        }
      },
      "SetTokamakLayer2(address)": {
        "details": "event on set the tokamak Layer2 address",
        "params": {
          "layer2": "the tokamak Layer2 address"
        }
      },
      "TokamakProcessedUnStaking(address,uint256,bool)": {
        "details": "event on process unstaking in layer2 in tokamak",
        "params": {
          "layer2": "the layer2 address in tokamak",
          "receiveTON": "if is true ,TON , else is WTON",
          "rn": "the number of requested unstaking"
        }
      },
      "TokamakRequestedUnStaking(address,uint256)": {
        "details": "event on request unstaking the wtonAmount in layer2 in tokamak",
        "params": {
          "amount": "the amount requested to unstaking",
          "layer2": "the layer2 address in tokamak"
        }
      },
      "TokamakRequestedUnStakingAll(address)": {
        "details": "event on request unstaking the amount of all in layer2 in tokamak",
        "params": {
          "layer2": "the layer2 address in tokamak"
        }
      },
      "TokamakStaked(address,uint256)": {
        "details": "event on staking the staked TON in layer2 in tokamak",
        "params": {
          "amount": "the amount that stake to layer2",
          "layer2": "the layer2 address in tokamak"
        }
      }
    },
    "kind": "dev",
    "methods": {
      "addAdmin(address)": {
        "details": "add admin",
        "params": {
          "account": "address to add"
        }
      },
      "checkTokamak()": {
        "details": "If the tokamak addresses is not set, set the addresses."
      },
      "exchangeWTONtoTOS(uint256,uint256,uint256,uint160,uint256)": {
        "details": "exchange holded WTON to TOS using uniswap",
        "params": {
          "_amountIn": "the input amount",
          "_amountOutMinimum": "the minimun output amount",
          "_deadline": "deadline",
          "_kind": "the function type, if 0, use exactInputSingle function, else if, use exactInput function",
          "_sqrtPriceLimitX96": "sqrtPriceLimitX96"
        },
        "returns": {
          "amountOut": "the amount of exchanged out token"
        }
      },
      "getRoleAdmin(bytes32)": {
        "details": "Returns the admin role that controls `role`. See {grantRole} and {revokeRole}. To change a role's admin, use {_setRoleAdmin}."
      },
      "getRoleMember(bytes32,uint256)": {
        "details": "Returns one of the accounts that have `role`. `index` must be a value between 0 and {getRoleMemberCount}, non-inclusive. Role bearers are not sorted in any particular way, and their ordering may change at any point. WARNING: When using {getRoleMember} and {getRoleMemberCount}, make sure you perform all queries on the same block. See the following https://forum.openzeppelin.com/t/iterating-over-elements-on-enumerableset-in-openzeppelin-contracts/2296[forum post] for more information."
      },
      "getRoleMemberCount(bytes32)": {
        "details": "Returns the number of accounts that have `role`. Can be used together with {getRoleMember} to enumerate all bearers of a role."
      },
      "getUniswapInfo()": {
        "details": "get the addresses that used in uniswap interfaces",
        "returns": {
          "ext": "the address of ext",
          "fee": "the amount of fee",
          "npm": "the address of positionManagerAddress",
          "uniswapRouter": "the address of uniswapRouter"
        }
      },
      "getUserStaked(address)": {
        "details": "user's staked information"
      },
      "grantRole(bytes32,address)": {
        "details": "Grants `role` to `account`. If `account` had not been already granted `role`, emits a {RoleGranted} event. Requirements: - the caller must have ``role``'s admin role."
      },
      "hasRole(bytes32,address)": {
        "details": "Returns `true` if `account` has been granted `role`."
      },
      "infos()": {
        "details": "Give the infomation of this stakeContracts",
        "returns": {
          "_0": "paytoken, vault, [saleStartBlock, startBlock, endBlock], rewardClaimedTotal, totalStakedAmount, totalStakers"
        }
      },
      "isAdmin(address)": {
        "details": "whether admin",
        "params": {
          "account": "address to check"
        }
      },
      "removeAdmin(address)": {
        "details": "remove admin",
        "params": {
          "account": "address to remove"
        }
      },
      "renounceRole(bytes32,address)": {
        "details": "Revokes `role` from the calling account. Roles are often managed via {grantRole} and {revokeRole}: this function's purpose is to provide a mechanism for accounts to lose their privileges if they are compromised (such as when a trusted device is misplaced). If the calling account had been granted `role`, emits a {RoleRevoked} event. Requirements: - the caller must be `account`."
      },
      "revokeRole(bytes32,address)": {
        "details": "Revokes `role` from `account`. If `account` had been granted `role`, emits a {RoleRevoked} event. Requirements: - the caller must have ``role``'s admin role."
      },
      "setRegistry(address)": {
        "details": "set registry address",
        "params": {
          "_registry": "new registry address"
        }
      },
      "setTokamakLayer2(address)": {
        "details": "set the tokamak Layer2 address",
        "params": {
          "_layer2": "new the tokamak Layer2 address"
        }
      },
      "swapTONtoWTON(uint256,bool)": {
        "details": "Change the TON holded in contract have to WTON, or change WTON to TON.",
        "params": {
          "amount": "the amount to be changed",
          "toWTON": "if it's true, TON->WTON , else WTON->TON"
        }
      },
      "tokamakProcessUnStaking(address)": {
        "details": "process unstaking in layer2 in tokamak",
        "params": {
          "_layer2": "the layer2 address in tokamak"
        }
      },
      "tokamakRequestUnStaking(address,uint256)": {
        "details": "request unstaking the wtonAmount in layer2 in tokamak",
        "params": {
          "_layer2": "the layer2 address in tokamak",
          "wtonAmount": "the amount requested to unstaking"
        }
      },
      "tokamakRequestUnStakingAll(address)": {
        "details": "request unstaking the amount of all in layer2 in tokamak",
        "params": {
          "_layer2": "the layer2 address in tokamak"
        }
      },
      "tokamakStaking(address,uint256)": {
        "details": "staking the staked TON in layer2 in tokamak",
        "params": {
          "_layer2": "the layer2 address in tokamak",
          "stakeAmount": "the amount that stake to layer2"
        }
      },
      "transferAdmin(address)": {
        "details": "transfer admin",
        "params": {
          "newAdmin": "new admin address"
        }
      }
    },
    "title": "The connector that integrates tokamak",
    "version": 1
  },
  "userdoc": {
    "kind": "user",
    "methods": {},
    "version": 1
  }
}