{
  "contractName": "TokamakStaker",
  "abi": [
    {
      "anonymous": false,
      "inputs": [
        {
          "indexed": true,
          "internalType": "bytes32",
          "name": "role",
          "type": "bytes32"
        },
        {
          "indexed": true,
          "internalType": "bytes32",
          "name": "previousAdminRole",
          "type": "bytes32"
        },
        {
          "indexed": true,
          "internalType": "bytes32",
          "name": "newAdminRole",
          "type": "bytes32"
        }
      ],
      "name": "RoleAdminChanged",
      "type": "event"
    },
    {
      "anonymous": false,
      "inputs": [
        {
          "indexed": true,
          "internalType": "bytes32",
          "name": "role",
          "type": "bytes32"
        },
        {
          "indexed": true,
          "internalType": "address",
          "name": "account",
          "type": "address"
        },
        {
          "indexed": true,
          "internalType": "address",
          "name": "sender",
          "type": "address"
        }
      ],
      "name": "RoleGranted",
      "type": "event"
    },
    {
      "anonymous": false,
      "inputs": [
        {
          "indexed": true,
          "internalType": "bytes32",
          "name": "role",
          "type": "bytes32"
        },
        {
          "indexed": true,
          "internalType": "address",
          "name": "account",
          "type": "address"
        },
        {
          "indexed": true,
          "internalType": "address",
          "name": "sender",
          "type": "address"
        }
      ],
      "name": "RoleRevoked",
      "type": "event"
    },
    {
      "anonymous": false,
      "inputs": [
        {
          "indexed": false,
          "internalType": "address",
          "name": "ton",
          "type": "address"
        },
        {
          "indexed": false,
          "internalType": "address",
          "name": "wton",
          "type": "address"
        },
        {
          "indexed": false,
          "internalType": "address",
          "name": "depositManager",
          "type": "address"
        },
        {
          "indexed": false,
          "internalType": "address",
          "name": "seigManager",
          "type": "address"
        },
        {
          "indexed": false,
          "internalType": "address",
          "name": "defiAddr",
          "type": "address"
        },
        {
          "indexed": false,
          "internalType": "address",
          "name": "npm",
          "type": "address"
        }
      ],
      "name": "SetTokamak",
      "type": "event"
    },
    {
      "anonymous": false,
      "inputs": [
        {
          "indexed": false,
          "internalType": "address",
          "name": "router",
          "type": "address"
        }
      ],
      "name": "SetUniswapRouter",
      "type": "event"
    },
    {
      "inputs": [],
      "name": "ADMIN_ROLE",
      "outputs": [
        {
          "internalType": "bytes32",
          "name": "",
          "type": "bytes32"
        }
      ],
      "stateMutability": "view",
      "type": "function"
    },
    {
      "inputs": [],
      "name": "DEFAULT_ADMIN_ROLE",
      "outputs": [
        {
          "internalType": "bytes32",
          "name": "",
          "type": "bytes32"
        }
      ],
      "stateMutability": "view",
      "type": "function"
    },
    {
      "inputs": [],
      "name": "depositManager",
      "outputs": [
        {
          "internalType": "address",
          "name": "",
          "type": "address"
        }
      ],
      "stateMutability": "view",
      "type": "function"
    },
    {
      "inputs": [],
      "name": "endBlock",
      "outputs": [
        {
          "internalType": "uint256",
          "name": "",
          "type": "uint256"
        }
      ],
      "stateMutability": "view",
      "type": "function"
    },
    {
      "inputs": [],
      "name": "fromTokamak",
      "outputs": [
        {
          "internalType": "uint256",
          "name": "",
          "type": "uint256"
        }
      ],
      "stateMutability": "view",
      "type": "function"
    },
    {
      "inputs": [
        {
          "internalType": "bytes32",
          "name": "role",
          "type": "bytes32"
        }
      ],
      "name": "getRoleAdmin",
      "outputs": [
        {
          "internalType": "bytes32",
          "name": "",
          "type": "bytes32"
        }
      ],
      "stateMutability": "view",
      "type": "function"
    },
    {
      "inputs": [
        {
          "internalType": "bytes32",
          "name": "role",
          "type": "bytes32"
        },
        {
          "internalType": "uint256",
          "name": "index",
          "type": "uint256"
        }
      ],
      "name": "getRoleMember",
      "outputs": [
        {
          "internalType": "address",
          "name": "",
          "type": "address"
        }
      ],
      "stateMutability": "view",
      "type": "function"
    },
    {
      "inputs": [
        {
          "internalType": "bytes32",
          "name": "role",
          "type": "bytes32"
        }
      ],
      "name": "getRoleMemberCount",
      "outputs": [
        {
          "internalType": "uint256",
          "name": "",
          "type": "uint256"
        }
      ],
      "stateMutability": "view",
      "type": "function"
    },
    {
      "inputs": [
        {
          "internalType": "bytes32",
          "name": "role",
          "type": "bytes32"
        },
        {
          "internalType": "address",
          "name": "account",
          "type": "address"
        }
      ],
      "name": "grantRole",
      "outputs": [],
      "stateMutability": "nonpayable",
      "type": "function"
    },
    {
      "inputs": [
        {
          "internalType": "bytes32",
          "name": "role",
          "type": "bytes32"
        },
        {
          "internalType": "address",
          "name": "account",
          "type": "address"
        }
      ],
      "name": "hasRole",
      "outputs": [
        {
          "internalType": "bool",
          "name": "",
          "type": "bool"
        }
      ],
      "stateMutability": "view",
      "type": "function"
    },
    {
      "inputs": [],
      "name": "paytoken",
      "outputs": [
        {
          "internalType": "address",
          "name": "",
          "type": "address"
        }
      ],
      "stateMutability": "view",
      "type": "function"
    },
    {
      "inputs": [
        {
          "internalType": "bytes32",
          "name": "role",
          "type": "bytes32"
        },
        {
          "internalType": "address",
          "name": "account",
          "type": "address"
        }
      ],
      "name": "renounceRole",
      "outputs": [],
      "stateMutability": "nonpayable",
      "type": "function"
    },
    {
      "inputs": [
        {
          "internalType": "bytes32",
          "name": "role",
          "type": "bytes32"
        },
        {
          "internalType": "address",
          "name": "account",
          "type": "address"
        }
      ],
      "name": "revokeRole",
      "outputs": [],
      "stateMutability": "nonpayable",
      "type": "function"
    },
    {
      "inputs": [],
      "name": "rewardClaimedTotal",
      "outputs": [
        {
          "internalType": "uint256",
          "name": "",
          "type": "uint256"
        }
      ],
      "stateMutability": "view",
      "type": "function"
    },
    {
      "inputs": [],
      "name": "saleStartBlock",
      "outputs": [
        {
          "internalType": "uint256",
          "name": "",
          "type": "uint256"
        }
      ],
      "stateMutability": "view",
      "type": "function"
    },
    {
      "inputs": [],
      "name": "seigManager",
      "outputs": [
        {
          "internalType": "address",
          "name": "",
          "type": "address"
        }
      ],
      "stateMutability": "view",
      "type": "function"
    },
    {
      "inputs": [],
      "name": "startBlock",
      "outputs": [
        {
          "internalType": "uint256",
          "name": "",
          "type": "uint256"
        }
      ],
      "stateMutability": "view",
      "type": "function"
    },
    {
      "inputs": [],
      "name": "toTokamak",
      "outputs": [
        {
          "internalType": "uint256",
          "name": "",
          "type": "uint256"
        }
      ],
      "stateMutability": "view",
      "type": "function"
    },
    {
      "inputs": [],
      "name": "toUniswapTON",
      "outputs": [
        {
          "internalType": "uint256",
          "name": "",
          "type": "uint256"
        }
      ],
      "stateMutability": "view",
      "type": "function"
    },
    {
      "inputs": [],
      "name": "tokamakLayer2",
      "outputs": [
        {
          "internalType": "address",
          "name": "",
          "type": "address"
        }
      ],
      "stateMutability": "view",
      "type": "function"
    },
    {
      "inputs": [],
      "name": "token",
      "outputs": [
        {
          "internalType": "address",
          "name": "",
          "type": "address"
        }
      ],
      "stateMutability": "view",
      "type": "function"
    },
    {
      "inputs": [],
      "name": "ton",
      "outputs": [
        {
          "internalType": "address",
          "name": "",
          "type": "address"
        }
      ],
      "stateMutability": "view",
      "type": "function"
    },
    {
      "inputs": [],
      "name": "totalStakedAmount",
      "outputs": [
        {
          "internalType": "uint256",
          "name": "",
          "type": "uint256"
        }
      ],
      "stateMutability": "view",
      "type": "function"
    },
    {
      "inputs": [
        {
          "internalType": "address",
          "name": "",
          "type": "address"
        },
        {
          "internalType": "address",
          "name": "",
          "type": "address"
        }
      ],
      "name": "userProfitWithdrawalAmount",
      "outputs": [
        {
          "internalType": "uint256",
          "name": "",
          "type": "uint256"
        }
      ],
      "stateMutability": "view",
      "type": "function"
    },
    {
      "inputs": [
        {
          "internalType": "address",
          "name": "",
          "type": "address"
        },
        {
          "internalType": "address",
          "name": "",
          "type": "address"
        }
      ],
      "name": "userProfitWithdrawalIndex",
      "outputs": [
        {
          "internalType": "uint256",
          "name": "",
          "type": "uint256"
        }
      ],
      "stateMutability": "view",
      "type": "function"
    },
    {
      "inputs": [
        {
          "internalType": "address",
          "name": "",
          "type": "address"
        }
      ],
      "name": "userStaked",
      "outputs": [
        {
          "internalType": "uint256",
          "name": "amount",
          "type": "uint256"
        },
        {
          "internalType": "uint256",
          "name": "claimedBlock",
          "type": "uint256"
        },
        {
          "internalType": "uint256",
          "name": "claimedAmount",
          "type": "uint256"
        },
        {
          "internalType": "uint256",
          "name": "releasedBlock",
          "type": "uint256"
        },
        {
          "internalType": "uint256",
          "name": "releasedAmount",
          "type": "uint256"
        },
        {
          "internalType": "bool",
          "name": "released",
          "type": "bool"
        }
      ],
      "stateMutability": "view",
      "type": "function"
    },
    {
      "inputs": [],
      "name": "vault",
      "outputs": [
        {
          "internalType": "address",
          "name": "",
          "type": "address"
        }
      ],
      "stateMutability": "view",
      "type": "function"
    },
    {
      "inputs": [],
      "name": "wton",
      "outputs": [
        {
          "internalType": "address",
          "name": "",
          "type": "address"
        }
      ],
      "stateMutability": "view",
      "type": "function"
    },
    {
      "inputs": [
        {
          "internalType": "address",
          "name": "_ton",
          "type": "address"
        },
        {
          "internalType": "address",
          "name": "_wton",
          "type": "address"
        },
        {
          "internalType": "address",
          "name": "_depositManager",
          "type": "address"
        },
        {
          "internalType": "address",
          "name": "_seigManager",
          "type": "address"
        },
        {
          "internalType": "address",
          "name": "_defiAddr",
          "type": "address"
        },
        {
          "internalType": "address",
          "name": "_npm",
          "type": "address"
        }
      ],
      "name": "setTokamak",
      "outputs": [],
      "stateMutability": "nonpayable",
      "type": "function"
    },
    {
      "inputs": [
        {
          "internalType": "address",
          "name": "_router",
          "type": "address"
        }
      ],
      "name": "setUniswapRouter",
      "outputs": [],
      "stateMutability": "nonpayable",
      "type": "function"
    },
    {
      "inputs": [
        {
          "internalType": "uint256",
          "name": "amount",
          "type": "uint256"
        }
      ],
      "name": "approveUniswapRouter",
      "outputs": [],
      "stateMutability": "nonpayable",
      "type": "function"
    },
    {
      "inputs": [],
      "name": "uniswapRouter",
      "outputs": [
        {
          "internalType": "address",
          "name": "",
          "type": "address"
        }
      ],
      "stateMutability": "view",
      "type": "function"
    },
    {
      "inputs": [
        {
          "internalType": "address",
          "name": "_layer2",
          "type": "address"
        }
      ],
      "name": "tokamakStaking",
      "outputs": [],
      "stateMutability": "nonpayable",
      "type": "function"
    },
    {
      "inputs": [
        {
          "internalType": "address",
          "name": "_layer2",
          "type": "address"
        }
      ],
      "name": "tokamakRequestUnStakingAll",
      "outputs": [],
      "stateMutability": "nonpayable",
      "type": "function"
    },
    {
      "inputs": [
        {
          "internalType": "address",
          "name": "_layer2",
          "type": "address"
        }
      ],
      "name": "tokamakRequestUnStakingReward",
      "outputs": [],
      "stateMutability": "nonpayable",
      "type": "function"
    },
    {
      "inputs": [
        {
          "internalType": "address",
          "name": "_layer2",
          "type": "address"
        },
        {
          "internalType": "bool",
          "name": "receiveTON",
          "type": "bool"
        }
      ],
      "name": "tokamakProcessUnStaking",
      "outputs": [],
      "stateMutability": "nonpayable",
      "type": "function"
    },
    {
      "inputs": [
        {
          "internalType": "address",
          "name": "_layer2",
          "type": "address"
        }
      ],
      "name": "tokamakPendingUnstaked",
      "outputs": [
        {
          "internalType": "uint256",
          "name": "wtonAmount",
          "type": "uint256"
        }
      ],
      "stateMutability": "view",
      "type": "function"
    },
    {
      "inputs": [
        {
          "internalType": "address",
          "name": "_layer2",
          "type": "address"
        }
      ],
      "name": "tokamakAccStaked",
      "outputs": [
        {
          "internalType": "uint256",
          "name": "wtonAmount",
          "type": "uint256"
        }
      ],
      "stateMutability": "view",
      "type": "function"
    },
    {
      "inputs": [
        {
          "internalType": "address",
          "name": "_layer2",
          "type": "address"
        }
      ],
      "name": "tokamakAccUnstaked",
      "outputs": [
        {
          "internalType": "uint256",
          "name": "wtonAmount",
          "type": "uint256"
        }
      ],
      "stateMutability": "view",
      "type": "function"
    },
    {
      "inputs": [
        {
          "internalType": "address",
          "name": "_layer2",
          "type": "address"
        }
      ],
      "name": "tokamakStakeOf",
      "outputs": [
        {
          "internalType": "uint256",
          "name": "wtonAmount",
          "type": "uint256"
        }
      ],
      "stateMutability": "view",
      "type": "function"
    }
  ],
  "bytecode": "0x608060405234801561001057600080fd5b5061246e806100206000396000f3fe608060405234801561001057600080fd5b50600436106102485760003560e01c806392ea3b4c1161013b578063d547741f116100b8578063f5832e721161007c578063f5832e721461064a578063fa3733d614610670578063fbfa77cf1461069e578063fc0c546a146106a6578063fd7fa460146106ae57610248565b8063d547741f1461055e578063dbac32521461058a578063e9ace833146105d8578063eeb8112f146105fe578063f30eb9581461062457610248565b8063bea9849e116100ff578063bea9849e146104bf578063c434d64d146104e5578063ca15c8731461050b578063cc48b94714610528578063cdb25fe31461053057610248565b806392ea3b4c1461041e578063a217fddf14610426578063acc3a9391461042e578063b2d4d6a314610489578063bab4b20f1461049157610248565b8063567e98f9116101c957806375b238fc1161018d57806375b238fc146103855780638caae1e31461038d5780638d62d949146103b35780639010d07c146103bb57806391d14854146103de57610248565b8063567e98f91461033f5780636c7ac9d8146103475780636fb7f5581461034f57806371def0b314610357578063735de9f71461037d57610248565b80632f2ff15d116102105780632f2ff15d1461029c57806336568abe146102ca5780633cdcdbe7146102f657806343b0934a1461031357806348cd4cb11461033757610248565b8063083c63231461024d5780630ac8e0f314610267578063200272751461026f578063248a9ca3146102775780632e0fac6b14610294575b600080fd5b6102556106b6565b60408051918252519081900360200190f35b6102556106bc565b6102556106c2565b6102556004803603602081101561028d57600080fd5b50356106c8565b6102556106dd565b6102c8600480360360408110156102b257600080fd5b50803590602001356001600160a01b03166106e3565b005b6102c8600480360360408110156102e057600080fd5b50803590602001356001600160a01b031661074f565b6102c86004803603602081101561030c57600080fd5b50356107b0565b61031b610889565b604080516001600160a01b039092168252519081900360200190f35b610255610898565b61025561089e565b61031b6108a4565b61031b6108b3565b6102c86004803603602081101561036d57600080fd5b50356001600160a01b03166108c2565b61031b610a2c565b610255610a3b565b6102c8600480360360208110156103a357600080fd5b50356001600160a01b0316610a5f565b61031b610fc2565b61031b600480360360408110156103d157600080fd5b5080359060200135610fd1565b61040a600480360360408110156103f457600080fd5b50803590602001356001600160a01b0316610ff2565b604080519115158252519081900360200190f35b61031b61100a565b610255611019565b6104546004803603602081101561044457600080fd5b50356001600160a01b031661101e565b6040805196875260208701959095528585019390935260608501919091526080840152151560a0830152519081900360c00190f35b610255611056565b610255600480360360408110156104a757600080fd5b506001600160a01b038135811691602001351661105c565b6102c8600480360360208110156104d557600080fd5b50356001600160a01b0316611079565b6102c8600480360360208110156104fb57600080fd5b50356001600160a01b03166111ed565b6102556004803603602081101561052157600080fd5b5035611538565b61031b61154f565b6102556004803603604081101561054657600080fd5b506001600160a01b038135811691602001351661155e565b6102c86004803603604081101561057457600080fd5b50803590602001356001600160a01b031661157b565b6102c8600480360360c08110156105a057600080fd5b506001600160a01b038135811691602081013582169160408201358116916060810135821691608082013581169160a00135166115d4565b610255600480360360208110156105ee57600080fd5b50356001600160a01b0316611837565b6102556004803603602081101561061457600080fd5b50356001600160a01b031661199f565b6102556004803603602081101561063a57600080fd5b50356001600160a01b0316611ad4565b6102556004803603602081101561066057600080fd5b50356001600160a01b0316611c09565b6102c86004803603604081101561068657600080fd5b506001600160a01b0381351690602001351515611d3e565b61031b612063565b61031b612072565b610255612081565b60055481565b60165481565b60035481565b60009081526018602052604090206002015490565b60175481565b60008281526018602052604090206002015461070690610701612087565b610ff2565b6107415760405162461bcd60e51b815260040180806020018281038252602f815260200180612366602f913960400191505060405180910390fd5b61074b828261208b565b5050565b610757612087565b6001600160a01b0316816001600160a01b0316146107a65760405162461bcd60e51b815260040180806020018281038252602f81526020018061240a602f913960400191505060405180910390fd5b61074b82826120f4565b6001546013546040805163095ea7b360e01b81526001600160a01b039283166004820152602481018590529051919092169163095ea7b39160448083019260209291908290030181600087803b15801561080957600080fd5b505af115801561081d573d6000803e3d6000fd5b505050506040513d602081101561083357600080fd5b5051610886576040805162461bcd60e51b815260206004820152601b60248201527f546f6b616d616b5374616b65723a20617070726f7665206661696c0000000000604482015290519081900360640190fd5b50565b6001546001600160a01b031681565b60045481565b60075481565b6010546001600160a01b031681565b6011546001600160a01b031681565b600e546001600160a01b0316158015906108e65750600f546001600160a01b031615155b80156108fc57506010546001600160a01b031615155b801561091257506011546001600160a01b031615155b610957576040805162461bcd60e51b8152602060048201526011602482015270696e6974207a65726f206164647265737360781b604482015290519081900360640190fd5b60125481906001600160a01b038083169116146109ad576040805162461bcd60e51b815260206004820152600f60248201526e3234b33332b932b73a103630bcb2b960891b604482015290519081900360640190fd5b60105460408051636b2160b760e01b81526001600160a01b03858116600483015291519190921691636b2160b79160248083019260209291908290030181600087803b1580156109fc57600080fd5b505af1158015610a10573d6000803e3d6000fd5b505050506040513d6020811015610a2657600080fd5b50505050565b6013546001600160a01b031690565b7fdf8b4c520ffe197c5343c6f5aec59570151ef9a492f2c624fd45ddde6135ec4281565b600e546001600160a01b031615801590610a835750600f546001600160a01b031615155b8015610a9957506010546001600160a01b031615155b8015610aaf57506011546001600160a01b031615155b610af4576040805162461bcd60e51b8152602060048201526011602482015270696e6974207a65726f206164647265737360781b604482015290519081900360640190fd5b806001600160a01b038116610b3e576040805162461bcd60e51b815260206004820152601b60248201526000805160206123c5833981519152604482015290519081900360640190fd5b600260009054906101000a90046001600160a01b03166001600160a01b031663b8c766b86040518163ffffffff1660e01b815260040160206040518083038186803b158015610b8c57600080fd5b505afa158015610ba0573d6000803e3d6000fd5b505050506040513d6020811015610bb657600080fd5b50511515600114610bfb576040805162461bcd60e51b815260206004820152600a6024820152691b9bdd0818db1bdcd95960b21b604482015290519081900360640190fd5b600e54604080516370a0823160e01b815230600482015290516000926001600160a01b0316916370a08231916024808301926020929190829003018186803b158015610c4657600080fd5b505afa158015610c5a573d6000803e3d6000fd5b505050506040513d6020811015610c7057600080fd5b5051905080610caf576040805162461bcd60e51b815260206004808301919091526024820152637a65726f60e01b604482015290519081900360640190fd5b6012546001600160a01b0316610cdf57601280546001600160a01b0319166001600160a01b038516179055610e59565b601154601254604080516367265c3b60e11b81526001600160a01b0392831660048201523060248201529051600093929092169163ce4cb87691604480820192602092909190829003018186803b158015610d3957600080fd5b505afa158015610d4d573d6000803e3d6000fd5b505050506040513d6020811015610d6357600080fd5b505160105460125460408051632638fdf560e01b81526001600160a01b03928316600482015230602482015290519394506000939190921691632638fdf5916044808301926020929190829003018186803b158015610dc157600080fd5b505afa158015610dd5573d6000803e3d6000fd5b505050506040513d6020811015610deb57600080fd5b5051905081151580610dfd5750600081115b15610e56576012546001600160a01b03868116911614610e56576040805162461bcd60e51b815260206004820152600f60248201526e3234b33332b932b73a103630bcb2b960891b604482015290519081900360640190fd5b50505b6015805482019055601054604080516001600160a01b0392831660208083019190915286841682840152825180830384018152606080840194859052600e54600f5463cae9ca5160e01b909652948616606485018181526084860189905260a48601928352835160c487015283519397969096169563cae9ca5195919489948994929360e4019185019080838360005b83811015610f01578181015183820152602001610ee9565b50505050905090810190601f168015610f2e5780820380516001836020036101000a031916815260200191505b50945050505050602060405180830381600087803b158015610f4f57600080fd5b505af1158015610f63573d6000803e3d6000fd5b505050506040513d6020811015610f7957600080fd5b5051610a26576040805162461bcd60e51b8152602060048201526013602482015272185c1c1c9bdd99505b9910d85b1b0819985a5b606a1b604482015290519081900360640190fd5b600f546001600160a01b031681565b6000828152601860205260408120610fe9908361215d565b90505b92915050565b6000828152601860205260408120610fe99083612169565b6012546001600160a01b031681565b600081565b600860205260009081526040902080546001820154600283015460038401546004850154600590950154939492939192909160ff1686565b60065481565b600b60209081526000928352604080842090915290825290205481565b6110a37fdf8b4c520ffe197c5343c6f5aec59570151ef9a492f2c624fd45ddde6135ec4233610ff2565b6110de5760405162461bcd60e51b81526004018080602001828103825260258152602001806123e56025913960400191505060405180910390fd5b6003544310611134576040805162461bcd60e51b815260206004820152601e60248201527f546f6b616d616b5374616b65723a20416c726561647920737461727465640000604482015290519081900360640190fd5b6001600160a01b0381161580159061115a57506013546001600160a01b03828116911614155b611199576040805162461bcd60e51b815260206004820152601b60248201526000805160206123c5833981519152604482015290519081900360640190fd5b601380546001600160a01b0383166001600160a01b0319909116811790915560408051918252517f62c2fdbe51fb234f5a19e26fd34a29b4d1f7f4b748fa3dfb5ee76bc69a30a7ce9181900360200190a150565b600e546001600160a01b0316158015906112115750600f546001600160a01b031615155b801561122757506010546001600160a01b031615155b801561123d57506011546001600160a01b031615155b611282576040805162461bcd60e51b8152602060048201526011602482015270696e6974207a65726f206164647265737360781b604482015290519081900360640190fd5b60125481906001600160a01b038083169116146112d8576040805162461bcd60e51b815260206004820152600f60248201526e3234b33332b932b73a103630bcb2b960891b604482015290519081900360640190fd5b600260009054906101000a90046001600160a01b03166001600160a01b031663b8c766b86040518163ffffffff1660e01b815260040160206040518083038186803b15801561132657600080fd5b505afa15801561133a573d6000803e3d6000fd5b505050506040513d602081101561135057600080fd5b50511515600114611395576040805162461bcd60e51b815260206004820152600a6024820152691b9bdd0818db1bdcd95960b21b604482015290519081900360640190fd5b601154604080516367265c3b60e11b81526001600160a01b0385811660048301523060248301529151600093929092169163ce4cb87691604480820192602092909190829003018186803b1580156113ec57600080fd5b505afa158015611400573d6000803e3d6000fd5b505050506040513d602081101561141657600080fd5b5051600754909150633b9aca00026001018111611466576040805162461bcd60e51b81526020600482015260096024820152681d1bdbc81cdb585b1b60ba1b604482015290519081900360640190fd5b600754633b9aca0002810360001901806114b0576040805162461bcd60e51b815260206004808301919091526024820152637a65726f60e01b604482015290519081900360640190fd5b6010546040805163da95ebf760e01b81526001600160a01b038781166004830152602482018590529151919092169163da95ebf79160448083019260209291908290030181600087803b15801561150657600080fd5b505af115801561151a573d6000803e3d6000fd5b505050506040513d602081101561153057600080fd5b505050505050565b6000818152601860205260408120610fec9061217e565b600e546001600160a01b031681565b600c60209081526000928352604080842090915290825290205481565b60008281526018602052604090206002015461159990610701612087565b6107a65760405162461bcd60e51b81526004018080602001828103825260308152602001806123956030913960400191505060405180910390fd5b6115fe7fdf8b4c520ffe197c5343c6f5aec59570151ef9a492f2c624fd45ddde6135ec4233610ff2565b6116395760405162461bcd60e51b81526004018080602001828103825260258152602001806123e56025913960400191505060405180910390fd5b856001600160a01b038116611683576040805162461bcd60e51b815260206004820152601b60248201526000805160206123c5833981519152604482015290519081900360640190fd5b856001600160a01b0381166116cd576040805162461bcd60e51b815260206004820152601b60248201526000805160206123c5833981519152604482015290519081900360640190fd5b856001600160a01b038116611717576040805162461bcd60e51b815260206004820152601b60248201526000805160206123c5833981519152604482015290519081900360640190fd5b856001600160a01b038116611761576040805162461bcd60e51b815260206004820152601b60248201526000805160206123c5833981519152604482015290519081900360640190fd5b600e80546001600160a01b03199081166001600160a01b038d81169190911792839055600f805483168d831617908190556010805484168d841617908190556011805485168d851617908190556013805486168d86169081179091556012805487169055601480549096168c86161795869055604080519786168852938516602088015291841686840152831660608601526080850152911660a0830152517f4be56b4053317b65eec97b3736d789fd29ae096ad6364c6fe13d52d718141f099160c0908290030190a150505050505050505050565b600e546000906001600160a01b03161580159061185e5750600f546001600160a01b031615155b801561187457506010546001600160a01b031615155b801561188a57506011546001600160a01b031615155b6118cf576040805162461bcd60e51b8152602060048201526011602482015270696e6974207a65726f206164647265737360781b604482015290519081900360640190fd5b816001600160a01b038116611919576040805162461bcd60e51b815260206004820152601b60248201526000805160206123c5833981519152604482015290519081900360640190fd5b60105460408051632638fdf560e01b81526001600160a01b03868116600483015230602483015291519190921691632638fdf5916044808301926020929190829003018186803b15801561196c57600080fd5b505afa158015611980573d6000803e3d6000fd5b505050506040513d602081101561199657600080fd5b50519392505050565b600e546000906001600160a01b0316158015906119c65750600f546001600160a01b031615155b80156119dc57506010546001600160a01b031615155b80156119f257506011546001600160a01b031615155b611a37576040805162461bcd60e51b8152602060048201526011602482015270696e6974207a65726f206164647265737360781b604482015290519081900360640190fd5b816001600160a01b038116611a81576040805162461bcd60e51b815260206004820152601b60248201526000805160206123c5833981519152604482015290519081900360640190fd5b60105460408051639d91b87b60e01b81526001600160a01b03868116600483015230602483015291519190921691639d91b87b916044808301926020929190829003018186803b15801561196c57600080fd5b600e546000906001600160a01b031615801590611afb5750600f546001600160a01b031615155b8015611b1157506010546001600160a01b031615155b8015611b2757506011546001600160a01b031615155b611b6c576040805162461bcd60e51b8152602060048201526011602482015270696e6974207a65726f206164647265737360781b604482015290519081900360640190fd5b816001600160a01b038116611bb6576040805162461bcd60e51b815260206004820152601b60248201526000805160206123c5833981519152604482015290519081900360640190fd5b601154604080516367265c3b60e11b81526001600160a01b0386811660048301523060248301529151919092169163ce4cb876916044808301926020929190829003018186803b15801561196c57600080fd5b600e546000906001600160a01b031615801590611c305750600f546001600160a01b031615155b8015611c4657506010546001600160a01b031615155b8015611c5c57506011546001600160a01b031615155b611ca1576040805162461bcd60e51b8152602060048201526011602482015270696e6974207a65726f206164647265737360781b604482015290519081900360640190fd5b816001600160a01b038116611ceb576040805162461bcd60e51b815260206004820152601b60248201526000805160206123c5833981519152604482015290519081900360640190fd5b60105460408051630b4beae560e21b81526001600160a01b03868116600483015230602483015291519190921691632d2fab94916044808301926020929190829003018186803b15801561196c57600080fd5b600e546001600160a01b031615801590611d625750600f546001600160a01b031615155b8015611d7857506010546001600160a01b031615155b8015611d8e57506011546001600160a01b031615155b611dd3576040805162461bcd60e51b8152602060048201526011602482015270696e6974207a65726f206164647265737360781b604482015290519081900360640190fd5b60125482906001600160a01b03808316911614611e29576040805162461bcd60e51b815260206004820152600f60248201526e3234b33332b932b73a103630bcb2b960891b604482015290519081900360640190fd5b600260009054906101000a90046001600160a01b03166001600160a01b031663b8c766b86040518163ffffffff1660e01b815260040160206040518083038186803b158015611e7757600080fd5b505afa158015611e8b573d6000803e3d6000fd5b505050506040513d6020811015611ea157600080fd5b50511515600114611ee6576040805162461bcd60e51b815260206004820152600a6024820152691b9bdd0818db1bdcd95960b21b604482015290519081900360640190fd5b601154601254604080516367265c3b60e11b81526001600160a01b0392831660048201523060248201529051600093929092169163ce4cb87691604480820192602092909190829003018186803b158015611f4057600080fd5b505afa158015611f54573d6000803e3d6000fd5b505050506040513d6020811015611f6a57600080fd5b5051905080611f8457601280546001600160a01b03191690555b60105460408051632638fdf560e01b81526001600160a01b03878116600483015230602483015291519190921691632638fdf5916044808301926020929190829003018186803b158015611fd757600080fd5b505afa158015611feb573d6000803e3d6000fd5b505050506040513d602081101561200157600080fd5b505160168054909101905560105460408051636105226360e11b81526001600160a01b03878116600483015286151560248301529151919092169163c20a44c69160448083019260209291908290030181600087803b15801561150657600080fd5b6002546001600160a01b031681565b6000546001600160a01b031681565b60155481565b3390565b60008281526018602052604090206120a39082612189565b1561074b576120b0612087565b6001600160a01b0316816001600160a01b0316837f2f8788117e7eff1d82e926ec794901d17c78024a50270940304540a733656f0d60405160405180910390a45050565b600082815260186020526040902061210c908261219e565b1561074b57612119612087565b6001600160a01b0316816001600160a01b0316837ff6391f5c32d9c69d2a47ea670b442974b53935d1edc7fd64eb21e047a839171b60405160405180910390a45050565b6000610fe983836121b3565b6000610fe9836001600160a01b038416612217565b6000610fec8261222f565b6000610fe9836001600160a01b038416612233565b6000610fe9836001600160a01b03841661227d565b815460009082106121f55760405162461bcd60e51b81526004018080602001828103825260228152602001806123446022913960400191505060405180910390fd5b82600001828154811061220457fe5b9060005260206000200154905092915050565b60009081526001919091016020526040902054151590565b5490565b600061223f8383612217565b61227557508154600181810184556000848152602080822090930184905584548482528286019093526040902091909155610fec565b506000610fec565b6000818152600183016020526040812054801561233957835460001980830191908101906000908790839081106122b057fe5b90600052602060002001549050808760000184815481106122cd57fe5b6000918252602080832090910192909255828152600189810190925260409020908401905586548790806122fd57fe5b60019003818190600052602060002001600090559055866001016000878152602001908152602001600020600090556001945050505050610fec565b6000915050610fec56fe456e756d657261626c655365743a20696e646578206f7574206f6620626f756e6473416363657373436f6e74726f6c3a2073656e646572206d75737420626520616e2061646d696e20746f206772616e74416363657373436f6e74726f6c3a2073656e646572206d75737420626520616e2061646d696e20746f207265766f6b65546f6b616d616b5374616b65723a207a65726f20616464726573730000000000546f6b616d616b5374616b65723a2043616c6c6572206973206e6f7420616e2061646d696e416363657373436f6e74726f6c3a2063616e206f6e6c792072656e6f756e636520726f6c657320666f722073656c66a2646970667358221220e77de0bc845aed43d4dfa094522e2164b4d9a378296bbb9b3dce7b1f97023c2264736f6c63430007060033",
  "immutableReferences": {},
  "source": "// SPDX-License-Identifier: MIT\npragma solidity ^0.7.6;\nimport {ITON} from \"../interfaces/ITON.sol\";\nimport {IStake1Vault} from \"../interfaces/IStake1Vault.sol\";\nimport {IIDepositManager} from \"../interfaces/IIDepositManager.sol\";\nimport {IISeigManager} from \"../interfaces/IISeigManager.sol\";\n//import {IUniswapActor} from \"../interfaces/IUniswapActor.sol\";\n\nimport \"@openzeppelin/contracts/access/AccessControl.sol\";\nimport \"../stake/StakeTONStorage.sol\";\ninterface IERC20BASE {\n    function totalSupply() external view returns (uint);\n    function balanceOf(address owner) external view returns (uint);\n    //function allowance(address owner, address spender) external view returns (uint);\n    function approve(address spender, uint value) external returns (bool);\n    function transfer(address to, uint value) external returns (bool);\n    function transferFrom(address from, address to, uint value) external returns (bool);\n}\n\n/// @title The connector that integrates zkopru and tokamak\ncontract TokamakStaker is StakeTONStorage, AccessControl {\n\n    bytes32 public constant ADMIN_ROLE = keccak256(\"ADMIN\");\n\n    modifier nonZero(address _addr) {\n        require(_addr != address(0), \"TokamakStaker: zero address\");\n        _;\n    }\n\n    modifier sameTokamakLayer(address _addr) {\n        require(tokamakLayer2 == _addr, \"different layer\");\n        _;\n    }\n\n    modifier nonZeroInit() {\n        require(ton != address(0) &&\n                wton != address(0) &&\n                depositManager != address(0) &&\n                seigManager != address(0), \"init zero address\");\n        _;\n    }\n    modifier onlyOwner() {\n        require(\n            hasRole(ADMIN_ROLE, msg.sender),\n            \"TokamakStaker: Caller is not an admin\"\n        );\n        _;\n    }\n\n    //////////////////////////////\n    // Events\n    //////////////////////////////\n\n    event SetTokamak(address ton, address wton, address depositManager, address seigManager, address defiAddr, address npm);\n    event SetUniswapRouter(address router);\n    /*\n    event tokamakStaked(address layer2, uint256 amount);\n    event tokamakRequestedUnStakingAll(address layer2);\n    event tokamakRequestedUnStakingReward(address layer2);\n    event tokamakProcessedUnStaking(address layer2, bool receiveTON);\n    */\n    function setTokamak(\n        address _ton,\n        address _wton,\n        address _depositManager,\n        address _seigManager,\n        address _defiAddr,\n        address _npm\n    ) external onlyOwner\n        nonZero(_ton)\n        nonZero(_wton)\n        nonZero(_depositManager)\n        nonZero(_seigManager)\n    {\n        ton = _ton;\n        wton = _wton;\n        depositManager = _depositManager;\n        seigManager = _seigManager;\n        _uniswapRouter = _defiAddr;\n        tokamakLayer2 = address(0);\n        npm = _npm;\n\n        emit SetTokamak(ton, wton, depositManager, seigManager, _defiAddr, npm);\n    }\n\n    function setUniswapRouter(address _router) external onlyOwner {\n        // TODO: check!!\n        require(\n            block.number < saleStartBlock,\n            \"TokamakStaker: Already started\"\n        );\n        require(\n            _router != address(0) && _uniswapRouter != _router,\n            \"TokamakStaker: zero address\"\n        );\n        _uniswapRouter = _router;\n\n        emit SetUniswapRouter(_router);\n    }\n\n    function approveUniswapRouter(uint256 amount) external {\n        require(\n            IERC20BASE(paytoken).approve(_uniswapRouter, amount),\n            \"TokamakStaker: approve fail\"\n        );\n    }\n\n    function uniswapRouter() public view returns (address) {\n        return _uniswapRouter;\n    }\n\n    function tokamakStaking(address _layer2)\n        external nonZeroInit nonZero(_layer2)\n    {\n        require(\n            IStake1Vault(vault).saleClosed() == true,\n            \"not closed\"\n        );\n        uint256 _amount = IERC20BASE(ton).balanceOf(address(this));\n        require(\n                _amount > 0,\n            \"zero\"\n        );\n\n        if (tokamakLayer2 == address(0)) tokamakLayer2 = _layer2;\n        else {\n            uint256 stakeOf =\n                IISeigManager(seigManager).stakeOf(tokamakLayer2, address(this));\n\n            uint256 pendingUnstaked = IIDepositManager(depositManager).pendingUnstaked(\n                tokamakLayer2,\n                address(this)\n            );\n\n            if (stakeOf > 0 || pendingUnstaked > 0) {\n                require(\n                    tokamakLayer2 == _layer2,\n                    \"different layer\"\n                );\n            } else {\n                if (tokamakLayer2 != _layer2) tokamakLayer2 == _layer2;\n            }\n        }\n        toTokamak += _amount;\n        bytes memory data = abi.encode(depositManager, _layer2);\n        require(\n            ITON(ton).approveAndCall(wton, _amount, data),\n            \"approveAndCall fail\"\n        );\n\n        //emit tokamakStaked(_layer2, _amount);\n    }\n\n    function tokamakRequestUnStakingAll(address _layer2)\n        public\n        nonZeroInit sameTokamakLayer(_layer2)\n    {\n        IIDepositManager(depositManager).requestWithdrawalAll(_layer2);\n\n        //emit tokamakRequestedUnStakingAll(_layer2);\n    }\n\n    function tokamakRequestUnStakingReward(address _layer2)\n        public nonZeroInit sameTokamakLayer(_layer2)\n    {\n        require(\n            IStake1Vault(vault).saleClosed() == true,\n            \"not closed\"\n        );\n\n        uint256 stakeOf =\n            IISeigManager(seigManager).stakeOf(_layer2, address(this));\n\n\n        require(\n            stakeOf > (totalStakedAmount * 10**9) + 1,\n            \"too small\"\n        );\n\n        uint256 _amount = stakeOf - (totalStakedAmount * 10**9)  - 1;\n        require(\n                _amount > 0,\n            \"zero\"\n        );\n\n        IIDepositManager(depositManager).requestWithdrawal(_layer2, _amount);\n\n        //emit tokamakRequestedUnStakingReward(_layer2);\n    }\n\n    function tokamakProcessUnStaking(address _layer2, bool receiveTON)\n        public nonZeroInit sameTokamakLayer(_layer2)\n    {\n        require(\n            IStake1Vault(vault).saleClosed() == true,\n            \"not closed\"\n        );\n\n        uint256 stakeOf = IISeigManager(seigManager).stakeOf(tokamakLayer2, address(this));\n        if (stakeOf == 0 ) tokamakLayer2 = address(0);\n\n        fromTokamak += IIDepositManager(depositManager).pendingUnstaked(\n                _layer2,\n                address(this)\n            );\n        IIDepositManager(depositManager).processRequest(_layer2, receiveTON);\n\n        //emit tokamakProcessedUnStaking(_layer2, receiveTON);\n    }\n\n    function tokamakPendingUnstaked(address _layer2)\n        public nonZeroInit nonZero(_layer2)\n        view\n        returns (uint256 wtonAmount)\n    {\n        return\n            IIDepositManager(depositManager).pendingUnstaked(\n                _layer2,\n                address(this)\n            );\n    }\n\n    function tokamakAccStaked(address _layer2)\n        external nonZeroInit nonZero(_layer2)\n        view\n        returns (uint256 wtonAmount)\n    {\n\n        return\n            IIDepositManager(depositManager).accStaked(_layer2, address(this));\n    }\n\n    function tokamakAccUnstaked(address _layer2)\n        external nonZeroInit nonZero(_layer2)\n        view\n        returns (uint256 wtonAmount)\n    {\n        return\n            IIDepositManager(depositManager).accUnstaked(_layer2, address(this));\n    }\n\n    function tokamakStakeOf(address _layer2)\n        external nonZeroInit nonZero(_layer2)\n        view\n        returns (uint256 wtonAmount)\n    {\n        return IISeigManager(seigManager).stakeOf(_layer2, address(this));\n    }\n\n}\n",
  "sourcePath": "/Users/kadyrbeknarmamatov/code/ico20-contracts/contracts/connection/TokamakStaker.sol",
  "compiler": {
    "name": "solc",
    "version": "0.7.6+commit.7338295f.Emscripten.clang"
  },
  "schemaVersion": "3.4.0",
  "updatedAt": "2021-05-19T07:13:00.395Z",
  "devdoc": {
    "kind": "dev",
    "methods": {
      "getRoleAdmin(bytes32)": {
        "details": "Returns the admin role that controls `role`. See {grantRole} and {revokeRole}. To change a role's admin, use {_setRoleAdmin}."
      },
      "getRoleMember(bytes32,uint256)": {
        "details": "Returns one of the accounts that have `role`. `index` must be a value between 0 and {getRoleMemberCount}, non-inclusive. Role bearers are not sorted in any particular way, and their ordering may change at any point. WARNING: When using {getRoleMember} and {getRoleMemberCount}, make sure you perform all queries on the same block. See the following https://forum.openzeppelin.com/t/iterating-over-elements-on-enumerableset-in-openzeppelin-contracts/2296[forum post] for more information."
      },
      "getRoleMemberCount(bytes32)": {
        "details": "Returns the number of accounts that have `role`. Can be used together with {getRoleMember} to enumerate all bearers of a role."
      },
      "grantRole(bytes32,address)": {
        "details": "Grants `role` to `account`. If `account` had not been already granted `role`, emits a {RoleGranted} event. Requirements: - the caller must have ``role``'s admin role."
      },
      "hasRole(bytes32,address)": {
        "details": "Returns `true` if `account` has been granted `role`."
      },
      "renounceRole(bytes32,address)": {
        "details": "Revokes `role` from the calling account. Roles are often managed via {grantRole} and {revokeRole}: this function's purpose is to provide a mechanism for accounts to lose their privileges if they are compromised (such as when a trusted device is misplaced). If the calling account had been granted `role`, emits a {RoleRevoked} event. Requirements: - the caller must be `account`."
      },
      "revokeRole(bytes32,address)": {
        "details": "Revokes `role` from `account`. If `account` had been granted `role`, emits a {RoleRevoked} event. Requirements: - the caller must have ``role``'s admin role."
      }
    },
    "title": "The connector that integrates zkopru and tokamak",
    "version": 1
  },
  "userdoc": {
    "kind": "user",
    "methods": {},
    "version": 1
  }
}