{
  "contractName": "TokamakStaker",
  "abi": [
    {
      "anonymous": false,
      "inputs": [
        {
          "indexed": true,
          "internalType": "bytes32",
          "name": "role",
          "type": "bytes32"
        },
        {
          "indexed": true,
          "internalType": "bytes32",
          "name": "previousAdminRole",
          "type": "bytes32"
        },
        {
          "indexed": true,
          "internalType": "bytes32",
          "name": "newAdminRole",
          "type": "bytes32"
        }
      ],
      "name": "RoleAdminChanged",
      "type": "event"
    },
    {
      "anonymous": false,
      "inputs": [
        {
          "indexed": true,
          "internalType": "bytes32",
          "name": "role",
          "type": "bytes32"
        },
        {
          "indexed": true,
          "internalType": "address",
          "name": "account",
          "type": "address"
        },
        {
          "indexed": true,
          "internalType": "address",
          "name": "sender",
          "type": "address"
        }
      ],
      "name": "RoleGranted",
      "type": "event"
    },
    {
      "anonymous": false,
      "inputs": [
        {
          "indexed": true,
          "internalType": "bytes32",
          "name": "role",
          "type": "bytes32"
        },
        {
          "indexed": true,
          "internalType": "address",
          "name": "account",
          "type": "address"
        },
        {
          "indexed": true,
          "internalType": "address",
          "name": "sender",
          "type": "address"
        }
      ],
      "name": "RoleRevoked",
      "type": "event"
    },
    {
      "inputs": [],
      "name": "ADMIN_ROLE",
      "outputs": [
        {
          "internalType": "bytes32",
          "name": "",
          "type": "bytes32"
        }
      ],
      "stateMutability": "view",
      "type": "function"
    },
    {
      "inputs": [],
      "name": "DEFAULT_ADMIN_ROLE",
      "outputs": [
        {
          "internalType": "bytes32",
          "name": "",
          "type": "bytes32"
        }
      ],
      "stateMutability": "view",
      "type": "function"
    },
    {
      "inputs": [],
      "name": "depositManager",
      "outputs": [
        {
          "internalType": "address",
          "name": "",
          "type": "address"
        }
      ],
      "stateMutability": "view",
      "type": "function"
    },
    {
      "inputs": [],
      "name": "endBlock",
      "outputs": [
        {
          "internalType": "uint256",
          "name": "",
          "type": "uint256"
        }
      ],
      "stateMutability": "view",
      "type": "function"
    },
    {
      "inputs": [
        {
          "internalType": "bytes32",
          "name": "role",
          "type": "bytes32"
        }
      ],
      "name": "getRoleAdmin",
      "outputs": [
        {
          "internalType": "bytes32",
          "name": "",
          "type": "bytes32"
        }
      ],
      "stateMutability": "view",
      "type": "function"
    },
    {
      "inputs": [
        {
          "internalType": "bytes32",
          "name": "role",
          "type": "bytes32"
        },
        {
          "internalType": "uint256",
          "name": "index",
          "type": "uint256"
        }
      ],
      "name": "getRoleMember",
      "outputs": [
        {
          "internalType": "address",
          "name": "",
          "type": "address"
        }
      ],
      "stateMutability": "view",
      "type": "function"
    },
    {
      "inputs": [
        {
          "internalType": "bytes32",
          "name": "role",
          "type": "bytes32"
        }
      ],
      "name": "getRoleMemberCount",
      "outputs": [
        {
          "internalType": "uint256",
          "name": "",
          "type": "uint256"
        }
      ],
      "stateMutability": "view",
      "type": "function"
    },
    {
      "inputs": [
        {
          "internalType": "bytes32",
          "name": "role",
          "type": "bytes32"
        },
        {
          "internalType": "address",
          "name": "account",
          "type": "address"
        }
      ],
      "name": "grantRole",
      "outputs": [],
      "stateMutability": "nonpayable",
      "type": "function"
    },
    {
      "inputs": [
        {
          "internalType": "bytes32",
          "name": "role",
          "type": "bytes32"
        },
        {
          "internalType": "address",
          "name": "account",
          "type": "address"
        }
      ],
      "name": "hasRole",
      "outputs": [
        {
          "internalType": "bool",
          "name": "",
          "type": "bool"
        }
      ],
      "stateMutability": "view",
      "type": "function"
    },
    {
      "inputs": [],
      "name": "paytoken",
      "outputs": [
        {
          "internalType": "address",
          "name": "",
          "type": "address"
        }
      ],
      "stateMutability": "view",
      "type": "function"
    },
    {
      "inputs": [
        {
          "internalType": "bytes32",
          "name": "role",
          "type": "bytes32"
        },
        {
          "internalType": "address",
          "name": "account",
          "type": "address"
        }
      ],
      "name": "renounceRole",
      "outputs": [],
      "stateMutability": "nonpayable",
      "type": "function"
    },
    {
      "inputs": [
        {
          "internalType": "bytes32",
          "name": "role",
          "type": "bytes32"
        },
        {
          "internalType": "address",
          "name": "account",
          "type": "address"
        }
      ],
      "name": "revokeRole",
      "outputs": [],
      "stateMutability": "nonpayable",
      "type": "function"
    },
    {
      "inputs": [],
      "name": "rewardClaimedTotal",
      "outputs": [
        {
          "internalType": "uint256",
          "name": "",
          "type": "uint256"
        }
      ],
      "stateMutability": "view",
      "type": "function"
    },
    {
      "inputs": [],
      "name": "rewardTokamak",
      "outputs": [
        {
          "internalType": "uint256",
          "name": "",
          "type": "uint256"
        }
      ],
      "stateMutability": "view",
      "type": "function"
    },
    {
      "inputs": [],
      "name": "saleStartBlock",
      "outputs": [
        {
          "internalType": "uint256",
          "name": "",
          "type": "uint256"
        }
      ],
      "stateMutability": "view",
      "type": "function"
    },
    {
      "inputs": [],
      "name": "seigManager",
      "outputs": [
        {
          "internalType": "address",
          "name": "",
          "type": "address"
        }
      ],
      "stateMutability": "view",
      "type": "function"
    },
    {
      "inputs": [],
      "name": "startBlock",
      "outputs": [
        {
          "internalType": "uint256",
          "name": "",
          "type": "uint256"
        }
      ],
      "stateMutability": "view",
      "type": "function"
    },
    {
      "inputs": [
        {
          "internalType": "bytes4",
          "name": "interfaceId",
          "type": "bytes4"
        }
      ],
      "name": "supportsInterface",
      "outputs": [
        {
          "internalType": "bool",
          "name": "",
          "type": "bool"
        }
      ],
      "stateMutability": "view",
      "type": "function"
    },
    {
      "inputs": [],
      "name": "tokamakLayer2",
      "outputs": [
        {
          "internalType": "address",
          "name": "",
          "type": "address"
        }
      ],
      "stateMutability": "view",
      "type": "function"
    },
    {
      "inputs": [],
      "name": "token",
      "outputs": [
        {
          "internalType": "address",
          "name": "",
          "type": "address"
        }
      ],
      "stateMutability": "view",
      "type": "function"
    },
    {
      "inputs": [],
      "name": "ton",
      "outputs": [
        {
          "internalType": "address",
          "name": "",
          "type": "address"
        }
      ],
      "stateMutability": "view",
      "type": "function"
    },
    {
      "inputs": [],
      "name": "totalStakedAmount",
      "outputs": [
        {
          "internalType": "uint256",
          "name": "",
          "type": "uint256"
        }
      ],
      "stateMutability": "view",
      "type": "function"
    },
    {
      "inputs": [
        {
          "internalType": "address",
          "name": "",
          "type": "address"
        }
      ],
      "name": "userStaked",
      "outputs": [
        {
          "internalType": "uint256",
          "name": "amount",
          "type": "uint256"
        },
        {
          "internalType": "uint256",
          "name": "claimedBlock",
          "type": "uint256"
        },
        {
          "internalType": "uint256",
          "name": "claimedAmount",
          "type": "uint256"
        },
        {
          "internalType": "uint256",
          "name": "releasedBlock",
          "type": "uint256"
        },
        {
          "internalType": "uint256",
          "name": "releasedAmount",
          "type": "uint256"
        },
        {
          "internalType": "bool",
          "name": "released",
          "type": "bool"
        }
      ],
      "stateMutability": "view",
      "type": "function"
    },
    {
      "inputs": [],
      "name": "vault",
      "outputs": [
        {
          "internalType": "address",
          "name": "",
          "type": "address"
        }
      ],
      "stateMutability": "view",
      "type": "function"
    },
    {
      "inputs": [],
      "name": "wton",
      "outputs": [
        {
          "internalType": "address",
          "name": "",
          "type": "address"
        }
      ],
      "stateMutability": "view",
      "type": "function"
    },
    {
      "inputs": [
        {
          "internalType": "address",
          "name": "_ton",
          "type": "address"
        },
        {
          "internalType": "address",
          "name": "_wton",
          "type": "address"
        },
        {
          "internalType": "address",
          "name": "_depositManager",
          "type": "address"
        },
        {
          "internalType": "address",
          "name": "_seigManager",
          "type": "address"
        },
        {
          "internalType": "address",
          "name": "_defiAddr",
          "type": "address"
        }
      ],
      "name": "setTokamak",
      "outputs": [],
      "stateMutability": "nonpayable",
      "type": "function"
    },
    {
      "inputs": [
        {
          "internalType": "address",
          "name": "_router",
          "type": "address"
        }
      ],
      "name": "setUniswapRouter",
      "outputs": [],
      "stateMutability": "nonpayable",
      "type": "function"
    },
    {
      "inputs": [
        {
          "internalType": "uint256",
          "name": "amount",
          "type": "uint256"
        }
      ],
      "name": "approveUniswapRouter",
      "outputs": [],
      "stateMutability": "nonpayable",
      "type": "function"
    },
    {
      "inputs": [],
      "name": "uniswapRouter",
      "outputs": [
        {
          "internalType": "address",
          "name": "",
          "type": "address"
        }
      ],
      "stateMutability": "view",
      "type": "function"
    },
    {
      "inputs": [
        {
          "internalType": "address",
          "name": "owner",
          "type": "address"
        },
        {
          "internalType": "address",
          "name": "spender",
          "type": "address"
        },
        {
          "internalType": "uint256",
          "name": "tonAmount",
          "type": "uint256"
        },
        {
          "internalType": "bytes",
          "name": "data",
          "type": "bytes"
        }
      ],
      "name": "onApprove",
      "outputs": [
        {
          "internalType": "bool",
          "name": "",
          "type": "bool"
        }
      ],
      "stateMutability": "nonpayable",
      "type": "function"
    },
    {
      "inputs": [
        {
          "internalType": "address",
          "name": "from",
          "type": "address"
        },
        {
          "internalType": "address",
          "name": "_owner",
          "type": "address"
        },
        {
          "internalType": "address",
          "name": "_spender",
          "type": "address"
        },
        {
          "internalType": "uint256",
          "name": "_amount",
          "type": "uint256"
        }
      ],
      "name": "stakeOnApprove",
      "outputs": [
        {
          "internalType": "bool",
          "name": "",
          "type": "bool"
        }
      ],
      "stateMutability": "nonpayable",
      "type": "function"
    },
    {
      "inputs": [
        {
          "internalType": "address",
          "name": "_layer2",
          "type": "address"
        },
        {
          "internalType": "uint256",
          "name": "_amount",
          "type": "uint256"
        }
      ],
      "name": "tokamakStaking",
      "outputs": [],
      "stateMutability": "nonpayable",
      "type": "function"
    },
    {
      "inputs": [
        {
          "internalType": "address",
          "name": "_layer2",
          "type": "address"
        }
      ],
      "name": "tokamakRequestUnStakingAll",
      "outputs": [],
      "stateMutability": "nonpayable",
      "type": "function"
    },
    {
      "inputs": [
        {
          "internalType": "address",
          "name": "_layer2",
          "type": "address"
        },
        {
          "internalType": "uint256",
          "name": "_amount",
          "type": "uint256"
        }
      ],
      "name": "tokamakRequestUnStaking",
      "outputs": [],
      "stateMutability": "nonpayable",
      "type": "function"
    },
    {
      "inputs": [
        {
          "internalType": "address",
          "name": "_layer2",
          "type": "address"
        },
        {
          "internalType": "bool",
          "name": "receiveTON",
          "type": "bool"
        }
      ],
      "name": "tokamakProcessUnStaking",
      "outputs": [],
      "stateMutability": "nonpayable",
      "type": "function"
    },
    {
      "inputs": [
        {
          "internalType": "address",
          "name": "_layer2",
          "type": "address"
        }
      ],
      "name": "tokamakPendingUnstaked",
      "outputs": [
        {
          "internalType": "uint256",
          "name": "wtonAmount",
          "type": "uint256"
        }
      ],
      "stateMutability": "view",
      "type": "function"
    },
    {
      "inputs": [
        {
          "internalType": "address",
          "name": "_layer2",
          "type": "address"
        }
      ],
      "name": "tokamakAccStaked",
      "outputs": [
        {
          "internalType": "uint256",
          "name": "wtonAmount",
          "type": "uint256"
        }
      ],
      "stateMutability": "view",
      "type": "function"
    },
    {
      "inputs": [
        {
          "internalType": "address",
          "name": "_layer2",
          "type": "address"
        }
      ],
      "name": "tokamakAccUnstaked",
      "outputs": [
        {
          "internalType": "uint256",
          "name": "wtonAmount",
          "type": "uint256"
        }
      ],
      "stateMutability": "view",
      "type": "function"
    },
    {
      "inputs": [
        {
          "internalType": "address",
          "name": "_layer2",
          "type": "address"
        }
      ],
      "name": "tokamakStakeOf",
      "outputs": [
        {
          "internalType": "uint256",
          "name": "wtonAmount",
          "type": "uint256"
        }
      ],
      "stateMutability": "view",
      "type": "function"
    }
  ],
  "bytecode": "0x608060405234801561001057600080fd5b506100216301ffc9a760e01b610036565b610031632139e50b60e11b610036565b6100ba565b6001600160e01b03198082161415610095576040805162461bcd60e51b815260206004820152601c60248201527f4552433136353a20696e76616c696420696e7465726661636520696400000000604482015290519081900360640190fd5b6001600160e01b0319166000908152600b60205260409020805460ff19166001179055565b6120ca80620000ca6000396000f3fe608060405234801561001057600080fd5b506004361061023d5760003560e01c806375b238fc1161013b578063cc48b947116100b8578063f30eb9581161007c578063f30eb958146106ae578063f5832e72146106d4578063fa3733d6146106fa578063fbfa77cf14610728578063fc0c546a146107305761023d565b8063cc48b94714610602578063ce681ce61461060a578063d547741f14610636578063e9ace83314610662578063eeb8112f146106885761023d565b8063a217fddf116100ff578063a217fddf14610554578063acc3a9391461055c578063b2d4d6a3146105b7578063bea9849e146105bf578063ca15c873146105e55761023d565b806375b238fc146104ed5780638d62d949146104f55780639010d07c146104fd57806391d148541461052057806392ea3b4c1461054c5761023d565b80633cdcdbe7116101c9578063567e98f91161018d578063567e98f9146104a75780636c7ac9d8146104af5780636fb7f558146104b757806371def0b3146104bf578063735de9f7146104e55761023d565b80633cdcdbe7146103865780634273ca16146103a357806343b0934a1461043357806348cd4cb1146104575780634b2e0ebd1461045f5761023d565b80630bfb3841116102105780630bfb3841146102cd5780632002727514610309578063248a9ca3146103115780632f2ff15d1461032e57806336568abe1461035a5761023d565b806301ffc9a714610242578063065c43131461027d578063083c6323146102ab578063092a64c4146102c5575b600080fd5b6102696004803603602081101561025857600080fd5b50356001600160e01b031916610738565b604080519115158252519081900360200190f35b6102a96004803603604081101561029357600080fd5b506001600160a01b038135169060200135610757565b005b6102b3610adb565b60408051918252519081900360200190f35b6102b3610ae1565b610269600480360360808110156102e357600080fd5b506001600160a01b03813581169160208101358216916040820135169060600135610ae7565b6102b3610ca7565b6102b36004803603602081101561032757600080fd5b5035610cad565b6102a96004803603604081101561034457600080fd5b50803590602001356001600160a01b0316610cc2565b6102a96004803603604081101561037057600080fd5b50803590602001356001600160a01b0316610d2e565b6102a96004803603602081101561039c57600080fd5b5035610d8f565b610269600480360360808110156103b957600080fd5b6001600160a01b038235811692602081013590911691604082013591908101906080810160608201356401000000008111156103f457600080fd5b82018360208201111561040657600080fd5b8035906020019184600183028401116401000000008311171561042857600080fd5b509092509050610e68565b61043b610f41565b604080516001600160a01b039092168252519081900360200190f35b6102b3610f50565b6102a9600480360360a081101561047557600080fd5b506001600160a01b03813581169160208101358216916040820135811691606081013582169160809091013516610f56565b6102b361108f565b61043b611095565b61043b6110a4565b6102a9600480360360208110156104d557600080fd5b50356001600160a01b03166110b3565b61043b61122d565b6102b361123c565b61043b61124e565b61043b6004803603604081101561051357600080fd5b508035906020013561125d565b6102696004803603604081101561053657600080fd5b50803590602001356001600160a01b031661127e565b61043b611296565b6102b36112a5565b6105826004803603602081101561057257600080fd5b50356001600160a01b03166112aa565b6040805196875260208701959095528585019390935260608501919091526080840152151560a0830152519081900360c00190f35b6102b36112e2565b6102a9600480360360208110156105d557600080fd5b50356001600160a01b03166112e8565b6102b3600480360360208110156105fb57600080fd5b5035611418565b61043b61142f565b6102a96004803603604081101561062057600080fd5b506001600160a01b03813516906020013561143e565b6102a96004803603604081101561064c57600080fd5b50803590602001356001600160a01b0316611653565b6102b36004803603602081101561067857600080fd5b50356001600160a01b03166116ac565b6102b36004803603602081101561069e57600080fd5b50356001600160a01b0316611795565b6102b3600480360360208110156106c457600080fd5b50356001600160a01b031661184c565b6102b3600480360360208110156106ea57600080fd5b50356001600160a01b0316611903565b6102a96004803603604081101561071057600080fd5b506001600160a01b03813516906020013515156119ba565b61043b611b8b565b61043b611b9a565b6001600160e01b0319166000908152600b602052604090205460ff1690565b61076f600080516020611fae8339815191523361127e565b6107aa5760405162461bcd60e51b8152600401808060200182810382526025815260200180611ff16025913960400191505060405180910390fd5b600c546001600160a01b0316158015906107ce5750600d546001600160a01b031615155b80156107e45750600e546001600160a01b031615155b80156107fa5750600f546001600160a01b031615155b801561080e57506001600160a01b03821615155b801561081a5750600081115b610859576040805162461bcd60e51b815260206004820152601b6024820152600080516020611f8e833981519152604482015290519081900360640190fd5b6010546001600160a01b031661088957601080546001600160a01b0319166001600160a01b038416179055610981565b600f54604080516367265c3b60e11b81526001600160a01b0385811660048301523060248301529151600093929092169163ce4cb87691604480820192602092909190829003018186803b1580156108e057600080fd5b505afa1580156108f4573d6000803e3d6000fd5b505050506040513d602081101561090a57600080fd5b505190508061093357601080546001600160a01b0319166001600160a01b03851617905561097f565b6010546001600160a01b0384811691161461097f5760405162461bcd60e51b81526004018080602001828103825260238152602001806120726023913960400191505060405180910390fd5b505b600e54604080516001600160a01b0392831660208083019190915285841682840152825180830384018152606080840194859052600c54600d5463cae9ca5160e01b909652948616606485018181526084860189905260a48601928352835160c487015283519397969096169563cae9ca5195919489948994929360e4019185019080838360005b83811015610a21578181015183820152602001610a09565b50505050905090810190601f168015610a4e5780820380516001836020036101000a031916815260200191505b50945050505050602060405180830381600087803b158015610a6f57600080fd5b505af1158015610a83573d6000803e3d6000fd5b505050506040513d6020811015610a9957600080fd5b5051610ad65760405162461bcd60e51b8152600401808060200182810382526022815260200180611ee56022913960400191505060405180910390fd5b505050565b60055481565b60125481565b6001546000906001600160a01b038681169116148015610b075750600082115b8015610b1b57506001600160a01b03831630145b610b6c576040805162461bcd60e51b815260206004820181905260248201527f5374616b65313a207374616b654f6e417070726f766520696e6974206661696c604482015290519081900360640190fd5b6003544310158015610b815750600454600354105b610bbc5760405162461bcd60e51b8152600401808060200182810382526026815260200180611f076026913960400191505060405180910390fd5b6001600160a01b038085166000818152600860209081526040808320805488018155600780548901905581516323b872dd60e01b81526004810195909552888616602486015260448501889052905190948a16936323b872dd9360648083019493928390030190829087803b158015610c3457600080fd5b505af1158015610c48573d6000803e3d6000fd5b505050506040513d6020811015610c5e57600080fd5b5051610c9b5760405162461bcd60e51b8152600401808060200182810382526031815260200180611f2d6031913960400191505060405180910390fd5b50600195945050505050565b60035481565b6000908152600a602052604090206002015490565b6000828152600a6020526040902060020154610ce590610ce0611ba9565b61127e565b610d205760405162461bcd60e51b815260040180806020018281038252602f815260200180611eb6602f913960400191505060405180910390fd5b610d2a8282611bad565b5050565b610d36611ba9565b6001600160a01b0316816001600160a01b031614610d855760405162461bcd60e51b815260040180806020018281038252602f815260200180612043602f913960400191505060405180910390fd5b610d2a8282611c16565b6001546011546040805163095ea7b360e01b81526001600160a01b039283166004820152602481018590529051919092169163095ea7b39160448083019260209291908290030181600087803b158015610de857600080fd5b505af1158015610dfc573d6000803e3d6000fd5b505050506040513d6020811015610e1257600080fd5b5051610e65576040805162461bcd60e51b815260206004820152601b60248201527f596561726e56325374616b65723a20617070726f7665206661696c0000000000604482015290519081900360640190fd5b50565b6000806000610e778585611c7f565b915091508086148015610e9b5750816001600160a01b0316876001600160a01b0316145b610ed65760405162461bcd60e51b8152600401808060200182810382526023815260200180611fce6023913960400191505060405180910390fd5b610ee233898484610ae7565b610f33576040805162461bcd60e51b815260206004820152601d60248201527f5374616b65313a207374616b654f6e417070726f7665206661696c7320000000604482015290519081900360640190fd5b506001979650505050505050565b6001546001600160a01b031681565b60045481565b610f6e600080516020611fae8339815191523361127e565b610fa95760405162461bcd60e51b8152600401808060200182810382526025815260200180611ff16025913960400191505060405180910390fd5b6001600160a01b03851615801590610fc957506001600160a01b03841615155b8015610fdd57506001600160a01b03831615155b8015610ff157506001600160a01b03821615155b611030576040805162461bcd60e51b815260206004820152601b6024820152600080516020611f8e833981519152604482015290519081900360640190fd5b600c80546001600160a01b03199081166001600160a01b0397881617909155600d8054821695871695909517909455600e8054851693861693909317909255600f80548416918516919091179055601180549092169216919091179055565b60075481565b600e546001600160a01b031681565b600f546001600160a01b031681565b6110cb600080516020611fae8339815191523361127e565b6111065760405162461bcd60e51b8152600401808060200182810382526025815260200180611ff16025913960400191505060405180910390fd5b600e546001600160a01b031680611152576040805162461bcd60e51b815260206004820152601b6024820152600080516020611f8e833981519152604482015290519081900360640190fd5b6010546001600160a01b0383811691161461119e5760405162461bcd60e51b81526004018080602001828103825260238152602001806120726023913960400191505060405180910390fd5b600e5460408051636b2160b760e01b81526001600160a01b03858116600483015291519190921691636b2160b79160248083019260209291908290030181600087803b1580156111ed57600080fd5b505af1158015611201573d6000803e3d6000fd5b505050506040513d602081101561121757600080fd5b5050601080546001600160a01b03191690555050565b6011546001600160a01b031690565b600080516020611fae83398151915281565b600d546001600160a01b031681565b6000828152600a602052604081206112759083611cad565b90505b92915050565b6000828152600a602052604081206112759083611cb9565b6010546001600160a01b031681565b600081565b600860205260009081526040902080546001820154600283015460038401546004850154600590950154939492939192909160ff1686565b60065481565b611300600080516020611fae8339815191523361127e565b61133b5760405162461bcd60e51b8152600401808060200182810382526025815260200180611ff16025913960400191505060405180910390fd5b6003544310611391576040805162461bcd60e51b815260206004820152601e60248201527f546f6b616d616b5374616b65723a20416c726561647920737461727465640000604482015290519081900360640190fd5b6001600160a01b038116158015906113b757506011546001600160a01b03828116911614155b6113f6576040805162461bcd60e51b815260206004820152601b6024820152600080516020611f8e833981519152604482015290519081900360640190fd5b601180546001600160a01b0319166001600160a01b0392909216919091179055565b6000818152600a6020526040812061127890611cce565b600c546001600160a01b031681565b611456600080516020611fae8339815191523361127e565b6114915760405162461bcd60e51b8152600401808060200182810382526025815260200180611ff16025913960400191505060405180910390fd5b600e546001600160a01b0316158015906114b857506010546001600160a01b038381169116145b80156114c45750600081115b611503576040805162461bcd60e51b815260206004820152601b6024820152600080516020611f8e833981519152604482015290519081900360640190fd5b600f54604080516367265c3b60e11b81526001600160a01b0385811660048301523060248301529151600093929092169163ce4cb87691604480820192602092909190829003018186803b15801561155a57600080fd5b505afa15801561156e573d6000803e3d6000fd5b505050506040513d602081101561158457600080fd5b505160075490915082820310156115cc5760405162461bcd60e51b815260040180806020018281038252602d815260200180612016602d913960400191505060405180910390fd5b600e546040805163da95ebf760e01b81526001600160a01b038681166004830152602482018690529151919092169163da95ebf79160448083019260209291908290030181600087803b15801561162257600080fd5b505af1158015611636573d6000803e3d6000fd5b505050506040513d602081101561164c57600080fd5b5050505050565b6000828152600a602052604090206002015461167190610ce0611ba9565b610d855760405162461bcd60e51b8152600401808060200182810382526030815260200180611f5e6030913960400191505060405180910390fd5b600e546000906001600160a01b0316158015906116d157506001600160a01b03821615155b611710576040805162461bcd60e51b815260206004820152601b6024820152600080516020611f8e833981519152604482015290519081900360640190fd5b600e5460408051632638fdf560e01b81526001600160a01b03858116600483015230602483015291519190921691632638fdf5916044808301926020929190829003018186803b15801561176357600080fd5b505afa158015611777573d6000803e3d6000fd5b505050506040513d602081101561178d57600080fd5b505192915050565b600f546000906001600160a01b0316158015906117ba57506001600160a01b03821615155b6117f9576040805162461bcd60e51b815260206004820152601b6024820152600080516020611f8e833981519152604482015290519081900360640190fd5b600e5460408051639d91b87b60e01b81526001600160a01b03858116600483015230602483015291519190921691639d91b87b916044808301926020929190829003018186803b15801561176357600080fd5b600f546000906001600160a01b03161580159061187157506001600160a01b03821615155b6118b0576040805162461bcd60e51b815260206004820152601b6024820152600080516020611f8e833981519152604482015290519081900360640190fd5b600f54604080516367265c3b60e11b81526001600160a01b0385811660048301523060248301529151919092169163ce4cb876916044808301926020929190829003018186803b15801561176357600080fd5b600f546000906001600160a01b03161580159061192857506001600160a01b03821615155b611967576040805162461bcd60e51b815260206004820152601b6024820152600080516020611f8e833981519152604482015290519081900360640190fd5b600e5460408051630b4beae560e21b81526001600160a01b03858116600483015230602483015291519190921691632d2fab94916044808301926020929190829003018186803b15801561176357600080fd5b6119d2600080516020611fae8339815191523361127e565b611a0d5760405162461bcd60e51b8152600401808060200182810382526025815260200180611ff16025913960400191505060405180910390fd5b600e546001600160a01b031615801590611a2f57506001600160a01b03821615155b611a6e576040805162461bcd60e51b815260206004820152601b6024820152600080516020611f8e833981519152604482015290519081900360640190fd5b6000611a79836116ac565b600c54604080516370a0823160e01b815230600482015290519293506000926001600160a01b03909216916370a0823191602480820192602092909190829003018186803b158015611aca57600080fd5b505afa158015611ade573d6000803e3d6000fd5b505050506040513d6020811015611af457600080fd5b505160075483820103601255600e5460408051636105226360e11b81526001600160a01b0388811660048301528715156024830152915193945091169163c20a44c6916044808201926020929091908290030181600087803b158015611b5957600080fd5b505af1158015611b6d573d6000803e3d6000fd5b505050506040513d6020811015611b8357600080fd5b505050505050565b6002546001600160a01b031681565b6000546001600160a01b031681565b3390565b6000828152600a60205260409020611bc59082611cd9565b15610d2a57611bd2611ba9565b6001600160a01b0316816001600160a01b0316837f2f8788117e7eff1d82e926ec794901d17c78024a50270940304540a733656f0d60405160405180910390a45050565b6000828152600a60205260409020611c2e9082611cee565b15610d2a57611c3b611ba9565b6001600160a01b0316816001600160a01b0316837ff6391f5c32d9c69d2a47ea670b442974b53935d1edc7fd64eb21e047a839171b60405160405180910390a45050565b60008083836040811015611c9257600080fd5b506001600160a01b0381351695602090910135945092505050565b60006112758383611d03565b6000611275836001600160a01b038416611d67565b600061127882611d7f565b6000611275836001600160a01b038416611d83565b6000611275836001600160a01b038416611dcd565b81546000908210611d455760405162461bcd60e51b8152600401808060200182810382526022815260200180611e946022913960400191505060405180910390fd5b826000018281548110611d5457fe5b9060005260206000200154905092915050565b60009081526001919091016020526040902054151590565b5490565b6000611d8f8383611d67565b611dc557508154600181810184556000848152602080822090930184905584548482528286019093526040902091909155611278565b506000611278565b60008181526001830160205260408120548015611e895783546000198083019190810190600090879083908110611e0057fe5b9060005260206000200154905080876000018481548110611e1d57fe5b600091825260208083209091019290925582815260018981019092526040902090840190558654879080611e4d57fe5b60019003818190600052602060002001600090559055866001016000878152602001908152602001600020600090556001945050505050611278565b600091505061127856fe456e756d657261626c655365743a20696e646578206f7574206f6620626f756e6473416363657373436f6e74726f6c3a2073656e646572206d75737420626520616e2061646d696e20746f206772616e74546f6b616d616b5374616b65723a20617070726f7665416e6443616c6c206661696c5374616b65313a207374616b65544f4e20706572696f6420697320756e617661696c61626c6544414f436f6d6d69747465653a206661696c656420746f207472616e7366657220746f6e2066726f6d2063726561746f72416363657373436f6e74726f6c3a2073656e646572206d75737420626520616e2061646d696e20746f207265766f6b65546f6b616d616b5374616b65723a207a65726f20616464726573730000000000df8b4c520ffe197c5343c6f5aec59570151ef9a492f2c624fd45ddde6135ec425374616b65313a20746f6e416d6f756e7420213d207374616b696e67416d6f756e7420546f6b616d616b5374616b65723a2043616c6c6572206973206e6f7420616e2061646d696e546f6b616d616b5374616b65723a20546865207769746864726177616c2062616c616e6365206973206c61636b416363657373436f6e74726f6c3a2063616e206f6e6c792072656e6f756e636520726f6c657320666f722073656c66546f6b616d616b5374616b65723a206c617965723220697320646966666572656e7420a2646970667358221220d5bf86c31ea824f24c22e531c6a7b0d7c65330c08fdfe19ce110f69eefb43be164736f6c63430007060033",
  "immutableReferences": {},
  "source": "// SPDX-License-Identifier: MIT\npragma solidity ^0.7.6;\nimport {IERC20} from \"@openzeppelin/contracts/token/ERC20/IERC20.sol\";\nimport {ITON} from \"../interfaces/ITON.sol\";\nimport {IDepositManager} from \"../interfaces/IDepositManager.sol\";\nimport {ISeigManager} from \"../interfaces/ISeigManager.sol\";\n//import {IUniswapActor} from \"../interfaces/IUniswapActor.sol\";\n\nimport \"@openzeppelin/contracts/access/AccessControl.sol\";\n//import { ERC165 } from \"@openzeppelin/contracts/introspection/ERC165.sol\";\nimport \"../stake/Stake1Storage.sol\";\nimport {OnApprove} from \"../tokens/OnApprove.sol\";\n\n/// @title The connector that integrates zkopru and tokamak\ncontract TokamakStaker is Stake1Storage, AccessControl, OnApprove {\n    address public ton;\n    address public wton;\n    address public depositManager;\n    address public seigManager;\n    address public tokamakLayer2;\n    address internal _uniswapRouter;\n\n    // reward from tokamak\n    uint256 public rewardTokamak;\n\n    bytes32 public constant ADMIN_ROLE = keccak256(\"ADMIN\");\n\n    modifier nonZero(address _addr) {\n        require(_addr != address(0), \"TokamakStaker: zero address\");\n        _;\n    }\n\n    modifier onlyOwner() {\n        require(\n            hasRole(ADMIN_ROLE, msg.sender),\n            \"TokamakStaker: Caller is not an admin\"\n        );\n        _;\n    }\n\n    function setTokamak(\n        address _ton,\n        address _wton,\n        address _depositManager,\n        address _seigManager,\n        address _defiAddr\n    ) external onlyOwner {\n        require(\n            _ton != address(0) &&\n                _wton != address(0) &&\n                _depositManager != address(0) &&\n                _seigManager != address(0),\n            \"TokamakStaker: zero address\"\n        );\n        ton = _ton;\n        wton = _wton;\n        depositManager = _depositManager;\n        seigManager = _seigManager;\n        _uniswapRouter = _defiAddr;\n    }\n\n    // function setTON(address _ton) external onlyOwner {\n    //     require(\n    //         _ton != address(0) && ton != _ton,\n    //         \"TokamakStaker: zero address\"\n    //     );\n    //     ton = _ton;\n    // }\n\n    function setUniswapRouter(address _router) external onlyOwner {\n        // TODO: check!!\n        require(block.number < saleStartBlock, \"TokamakStaker: Already started\");\n        require(\n            _router != address(0) && _uniswapRouter != _router,\n            \"TokamakStaker: zero address\"\n        );\n        _uniswapRouter = _router;\n    }\n\n    function approveUniswapRouter\n    (\n        uint256 amount\n    ) external {\n        require(IERC20(paytoken).approve(_uniswapRouter, amount), \"YearnV2Staker: approve fail\");\n    }\n\n    function uniswapRouter() public view returns (address){\n        return _uniswapRouter;\n    }\n\n    /// @dev Approves\n    function onApprove(\n        address owner,\n        address spender,\n        uint256 tonAmount,\n        bytes calldata data\n    ) external override returns (bool) {\n        (address _spender, uint256 _amount) = _decodeStakeData(data);\n        require(\n            tonAmount == _amount && spender == _spender,\n            \"Stake1: tonAmount != stakingAmount \"\n        );\n        require(\n            stakeOnApprove(msg.sender, owner, _spender, _amount),\n            \"Stake1: stakeOnApprove fails \"\n        );\n        return true;\n    }\n\n    function _decodeStakeData(bytes calldata input)\n        internal\n        pure\n        returns (address spender, uint256 amount)\n    {\n        (spender, amount) = abi.decode(input, (address, uint256));\n    }\n\n    /// @dev stake with ton\n    function stakeOnApprove(\n        address from,\n        address _owner,\n        address _spender,\n        uint256 _amount\n    ) public returns (bool) {\n        require(\n            (paytoken == from && _amount > 0 && _spender == address(this)),\n            \"Stake1: stakeOnApprove init fail\"\n        );\n        require(\n            block.number >= saleStartBlock && saleStartBlock < startBlock,\n            \"Stake1: stakeTON period is unavailable\"\n        );\n\n        LibTokenStake1.StakedAmount storage staked = userStaked[_owner];\n        staked.amount += _amount;\n        totalStakedAmount += _amount;\n        require(\n            IERC20(from).transferFrom(_owner, _spender, _amount),\n            \"DAOCommittee: failed to transfer ton from creator\"\n        );\n        return true;\n    }\n\n    function tokamakStaking(address _layer2, uint256 _amount)\n        external\n        onlyOwner\n    {\n        require(\n            ton != address(0) &&\n                wton != address(0) &&\n                depositManager != address(0) &&\n                seigManager != address(0) &&\n                _layer2 != address(0) &&\n                _amount > 0,\n            \"TokamakStaker: zero address\"\n        );\n\n        if (tokamakLayer2 == address(0)) tokamakLayer2 = _layer2;\n        else {\n            uint256 stakeOf =\n                ISeigManager(seigManager).stakeOf(_layer2, address(this));\n            if (stakeOf == 0) tokamakLayer2 = _layer2;\n            else\n                require(\n                    tokamakLayer2 == _layer2,\n                    \"TokamakStaker: layer2 is different \"\n                );\n        }\n\n        bytes memory data = abi.encode(depositManager, _layer2);\n        require(\n            ITON(ton).approveAndCall(wton, _amount, data),\n            \"TokamakStaker: approveAndCall fail\"\n        );\n    }\n\n    function tokamakRequestUnStakingAll(address _layer2)\n        public\n        onlyOwner\n        nonZero(depositManager)\n    {\n        require(\n            tokamakLayer2 == _layer2,\n            \"TokamakStaker: layer2 is different \"\n        );\n\n        IDepositManager(depositManager).requestWithdrawalAll(_layer2);\n        tokamakLayer2 = address(0);\n    }\n\n    // unstaking except to principal fund\n    function tokamakRequestUnStaking(address _layer2, uint256 _amount)\n        public\n        onlyOwner\n    {\n        require(\n            depositManager != address(0) &&\n                _layer2 == tokamakLayer2 &&\n                _amount > 0,\n            \"TokamakStaker: zero address\"\n        );\n\n        uint256 stakeOf =\n            ISeigManager(seigManager).stakeOf(_layer2, address(this));\n        require(\n            stakeOf - _amount >= totalStakedAmount,\n            \"TokamakStaker: The withdrawal balance is lack\"\n        );\n\n        IDepositManager(depositManager).requestWithdrawal(_layer2, _amount);\n    }\n\n    function tokamakProcessUnStaking(address _layer2, bool receiveTON)\n        public\n        onlyOwner\n    {\n        require(\n            depositManager != address(0) && _layer2 != address(0),\n            \"TokamakStaker: zero address\"\n        );\n\n        uint256 pending = tokamakPendingUnstaked(_layer2);\n        uint256 balanceOf = ITON(ton).balanceOf(address(this));\n\n        rewardTokamak = balanceOf + pending - totalStakedAmount;\n\n        IDepositManager(depositManager).processRequest(_layer2, receiveTON);\n    }\n\n    function tokamakPendingUnstaked(address _layer2)\n        public\n        view\n        returns (uint256 wtonAmount)\n    {\n        require(\n            depositManager != address(0) && _layer2 != address(0),\n            \"TokamakStaker: zero address\"\n        );\n        return\n            IDepositManager(depositManager).pendingUnstaked(\n                _layer2,\n                address(this)\n            );\n    }\n\n    function tokamakAccStaked(address _layer2)\n        external\n        view\n        returns (uint256 wtonAmount)\n    {\n        require(\n            seigManager != address(0) && _layer2 != address(0),\n            \"TokamakStaker: zero address\"\n        );\n        return\n            IDepositManager(depositManager).accStaked(_layer2, address(this));\n    }\n\n    function tokamakAccUnstaked(address _layer2)\n        external\n        view\n        returns (uint256 wtonAmount)\n    {\n        require(\n            seigManager != address(0) && _layer2 != address(0),\n            \"TokamakStaker: zero address\"\n        );\n        return\n            IDepositManager(depositManager).accUnstaked(_layer2, address(this));\n    }\n\n    function tokamakStakeOf(address _layer2)\n        external\n        view\n        returns (uint256 wtonAmount)\n    {\n        require(\n            seigManager != address(0) && _layer2 != address(0),\n            \"TokamakStaker: zero address\"\n        );\n        return ISeigManager(seigManager).stakeOf(_layer2, address(this));\n    }\n\n    /*\n    function tokenTransfer(\n        address to,\n        uint256 amount\n    )\n        public onlyOwner\n    {\n        IERC20(ton).transfer(to, amount);\n    }\n    */\n}\n",
  "sourcePath": "/Users/kadyrbeknarmamatov/code/ico20-contracts/contracts/connection/TokamakStaker.sol",
  "compiler": {
    "name": "solc",
    "version": "0.7.6+commit.7338295f.Emscripten.clang"
  },
  "schemaVersion": "3.4.0",
  "updatedAt": "2021-05-11T06:57:40.433Z",
  "devdoc": {
    "kind": "dev",
    "methods": {
      "getRoleAdmin(bytes32)": {
        "details": "Returns the admin role that controls `role`. See {grantRole} and {revokeRole}. To change a role's admin, use {_setRoleAdmin}."
      },
      "getRoleMember(bytes32,uint256)": {
        "details": "Returns one of the accounts that have `role`. `index` must be a value between 0 and {getRoleMemberCount}, non-inclusive. Role bearers are not sorted in any particular way, and their ordering may change at any point. WARNING: When using {getRoleMember} and {getRoleMemberCount}, make sure you perform all queries on the same block. See the following https://forum.openzeppelin.com/t/iterating-over-elements-on-enumerableset-in-openzeppelin-contracts/2296[forum post] for more information."
      },
      "getRoleMemberCount(bytes32)": {
        "details": "Returns the number of accounts that have `role`. Can be used together with {getRoleMember} to enumerate all bearers of a role."
      },
      "grantRole(bytes32,address)": {
        "details": "Grants `role` to `account`. If `account` had not been already granted `role`, emits a {RoleGranted} event. Requirements: - the caller must have ``role``'s admin role."
      },
      "hasRole(bytes32,address)": {
        "details": "Returns `true` if `account` has been granted `role`."
      },
      "onApprove(address,address,uint256,bytes)": {
        "details": "Approves"
      },
      "renounceRole(bytes32,address)": {
        "details": "Revokes `role` from the calling account. Roles are often managed via {grantRole} and {revokeRole}: this function's purpose is to provide a mechanism for accounts to lose their privileges if they are compromised (such as when a trusted device is misplaced). If the calling account had been granted `role`, emits a {RoleRevoked} event. Requirements: - the caller must be `account`."
      },
      "revokeRole(bytes32,address)": {
        "details": "Revokes `role` from `account`. If `account` had been granted `role`, emits a {RoleRevoked} event. Requirements: - the caller must have ``role``'s admin role."
      },
      "stakeOnApprove(address,address,address,uint256)": {
        "details": "stake with ton"
      },
      "supportsInterface(bytes4)": {
        "details": "See {IERC165-supportsInterface}. Time complexity O(1), guaranteed to always use less than 30 000 gas."
      }
    },
    "title": "The connector that integrates zkopru and tokamak",
    "version": 1
  },
  "userdoc": {
    "kind": "user",
    "methods": {},
    "version": 1
  }
}