{
  "contractName": "VerifySignature",
  "abi": [
    {
      "inputs": [],
      "name": "PERMIT_TYPEHASH",
      "outputs": [
        {
          "internalType": "bytes32",
          "name": "",
          "type": "bytes32"
        }
      ],
      "stateMutability": "view",
      "type": "function"
    },
    {
      "inputs": [
        {
          "internalType": "address",
          "name": "_owner",
          "type": "address"
        },
        {
          "internalType": "address",
          "name": "_spender",
          "type": "address"
        },
        {
          "internalType": "uint256",
          "name": "_amount",
          "type": "uint256"
        },
        {
          "internalType": "uint256",
          "name": "_period",
          "type": "uint256"
        }
      ],
      "name": "getPermitMessageHash",
      "outputs": [
        {
          "internalType": "bytes32",
          "name": "",
          "type": "bytes32"
        }
      ],
      "stateMutability": "pure",
      "type": "function"
    },
    {
      "inputs": [
        {
          "internalType": "address",
          "name": "_to",
          "type": "address"
        },
        {
          "internalType": "uint256",
          "name": "_amount",
          "type": "uint256"
        },
        {
          "internalType": "string",
          "name": "_message",
          "type": "string"
        },
        {
          "internalType": "uint256",
          "name": "_nonce",
          "type": "uint256"
        }
      ],
      "name": "getMessageHash",
      "outputs": [
        {
          "internalType": "bytes32",
          "name": "",
          "type": "bytes32"
        }
      ],
      "stateMutability": "pure",
      "type": "function"
    },
    {
      "inputs": [
        {
          "internalType": "bytes32",
          "name": "_messageHash",
          "type": "bytes32"
        }
      ],
      "name": "getEthSignedMessageHash",
      "outputs": [
        {
          "internalType": "bytes32",
          "name": "",
          "type": "bytes32"
        }
      ],
      "stateMutability": "pure",
      "type": "function"
    },
    {
      "inputs": [
        {
          "internalType": "address",
          "name": "_signer",
          "type": "address"
        },
        {
          "internalType": "address",
          "name": "_to",
          "type": "address"
        },
        {
          "internalType": "uint256",
          "name": "_amount",
          "type": "uint256"
        },
        {
          "internalType": "string",
          "name": "_message",
          "type": "string"
        },
        {
          "internalType": "uint256",
          "name": "_nonce",
          "type": "uint256"
        },
        {
          "internalType": "bytes",
          "name": "signature",
          "type": "bytes"
        }
      ],
      "name": "verify",
      "outputs": [
        {
          "internalType": "bool",
          "name": "",
          "type": "bool"
        }
      ],
      "stateMutability": "pure",
      "type": "function"
    },
    {
      "inputs": [
        {
          "internalType": "bytes32",
          "name": "_ethSignedMessageHash",
          "type": "bytes32"
        },
        {
          "internalType": "bytes",
          "name": "_signature",
          "type": "bytes"
        }
      ],
      "name": "recoverSigner",
      "outputs": [
        {
          "internalType": "address",
          "name": "",
          "type": "address"
        }
      ],
      "stateMutability": "pure",
      "type": "function"
    },
    {
      "inputs": [
        {
          "internalType": "bytes32",
          "name": "_ethSignedMessageHash",
          "type": "bytes32"
        },
        {
          "internalType": "uint8",
          "name": "v",
          "type": "uint8"
        },
        {
          "internalType": "bytes32",
          "name": "r",
          "type": "bytes32"
        },
        {
          "internalType": "bytes32",
          "name": "s",
          "type": "bytes32"
        }
      ],
      "name": "recoverSigner2",
      "outputs": [
        {
          "internalType": "address",
          "name": "",
          "type": "address"
        }
      ],
      "stateMutability": "pure",
      "type": "function"
    },
    {
      "inputs": [
        {
          "internalType": "bytes",
          "name": "sig",
          "type": "bytes"
        }
      ],
      "name": "splitSignature",
      "outputs": [
        {
          "internalType": "bytes32",
          "name": "r",
          "type": "bytes32"
        },
        {
          "internalType": "bytes32",
          "name": "s",
          "type": "bytes32"
        },
        {
          "internalType": "uint8",
          "name": "v",
          "type": "uint8"
        }
      ],
      "stateMutability": "pure",
      "type": "function"
    }
  ],
  "bytecode": "0x608060405234801561001057600080fd5b50610850806100206000396000f3fe608060405234801561001057600080fd5b50600436106100885760003560e01c8063a7bb58031161005b578063a7bb580314610265578063abe5026a1461032a578063bdb33d481461048f578063fa540801146104c157610088565b806330adf81f1461008d57806349195b31146100a757806397aba7f9146100e3578063a35f8a40146101aa575b600080fd5b6100956104de565b60408051918252519081900360200190f35b610095600480360360808110156100bd57600080fd5b506001600160a01b03813581169160208101359091169060408101359060600135610502565b61018e600480360360408110156100f957600080fd5b81359190810190604081016020820135600160201b81111561011a57600080fd5b82018360208201111561012c57600080fd5b803590602001918460018302840111600160201b8311171561014d57600080fd5b91908080601f016020809104026020016040519081016040528093929190818152602001838380828437600092019190915250929550610580945050505050565b604080516001600160a01b039092168252519081900360200190f35b610095600480360360808110156101c057600080fd5b6001600160a01b0382351691602081013591810190606081016040820135600160201b8111156101ef57600080fd5b82018360208201111561020157600080fd5b803590602001918460018302840111600160201b8311171561022257600080fd5b91908080601f0160208091040260200160405190810160405280939291908181526020018383808284376000920191909152509295505091359250610604915050565b6103096004803603602081101561027b57600080fd5b810190602081018135600160201b81111561029557600080fd5b8201836020820111156102a757600080fd5b803590602001918460018302840111600160201b831117156102c857600080fd5b91908080601f016020809104026020016040519081016040528093929190818152602001838380828437600092019190915250929550610697945050505050565b60408051938452602084019290925260ff1682820152519081900360600190f35b61047b600480360360c081101561034057600080fd5b6001600160a01b03823581169260208101359091169160408201359190810190608081016060820135600160201b81111561037a57600080fd5b82018360208201111561038c57600080fd5b803590602001918460018302840111600160201b831117156103ad57600080fd5b91908080601f01602080910402602001604051908101604052809392919081815260200183838082843760009201919091525092958435959094909350604081019250602001359050600160201b81111561040757600080fd5b82018360208201111561041957600080fd5b803590602001918460018302840111600160201b8311171561043a57600080fd5b91908080601f016020809104026020016040519081016040528093929190818152602001838380828437600092019190915250929550610710945050505050565b604080519115158252519081900360200190f35b61018e600480360360808110156104a557600080fd5b5080359060ff6020820135169060408101359060600135610759565b610095600480360360208110156104d757600080fd5b50356107c9565b7f6e71edae12b1b97f4d1f60370fef10105fa2faae0126114a169c64845d6126c981565b604080517f6e71edae12b1b97f4d1f60370fef10105fa2faae0126114a169c64845d6126c96020808301919091526bffffffffffffffffffffffff19606088811b82168486015287901b1660548301526068820185905260888083018590528351808403909101815260a89092019092528051910120949350505050565b60008060008061058f85610697565b92509250925060018682858560405160008152602001604052604051808581526020018460ff1681526020018381526020018281526020019450505050506020604051602081039080840390855afa1580156105ef573d6000803e3d6000fd5b5050604051601f190151979650505050505050565b60008484848460405160200180856001600160a01b031660601b815260140184815260200183805190602001908083835b602083106106545780518252601f199092019160209182019101610635565b51815160209384036101000a6000190180199092169116179052920193845250604080518085038152938201905282519201919091209998505050505050505050565b600080600083516041146106f2576040805162461bcd60e51b815260206004820152601860248201527f696e76616c6964207369676e6174757265206c656e6774680000000000000000604482015290519081900360640190fd5b50505060208101516040820151606090920151909260009190911a90565b60008061071f87878787610604565b9050600061072c826107c9565b9050886001600160a01b03166107428286610580565b6001600160a01b0316149998505050505050505050565b600060018585858560405160008152602001604052604051808581526020018460ff1681526020018381526020018281526020019450505050506020604051602081039080840390855afa1580156107b5573d6000803e3d6000fd5b5050604051601f1901519695505050505050565b604080517f19457468657265756d205369676e6564204d6573736167653a0a333200000000602080830191909152603c8083019490945282518083039094018452605c90910190915281519101209056fea264697066735822122027e1a0f234dbd9d0dc4062fdbbe8227136bec946d16926a5a76d943460171fee64736f6c63430007060033",
  "immutableReferences": {},
  "source": "// SPDX-License-Identifier: MIT\npragma solidity ^0.7.6;\n\ncontract VerifySignature {\n\n    bytes32 public constant PERMIT_TYPEHASH = 0x6e71edae12b1b97f4d1f60370fef10105fa2faae0126114a169c64845d6126c9;\n\n    function getPermitMessageHash( address _owner,\n        address _spender, uint256 _amount,  uint256 _period\n    )\n        public pure returns (bytes32)\n    {\n        return keccak256(abi.encodePacked(PERMIT_TYPEHASH, _owner, _spender, _amount, _period ));\n    }\n\n    function getMessageHash(\n        address _to, uint _amount, string memory _message, uint _nonce\n    )\n        public pure returns (bytes32)\n    {\n        return keccak256(abi.encodePacked(_to, _amount, _message, _nonce));\n    }\n\n\n    function getEthSignedMessageHash(bytes32 _messageHash) public pure returns (bytes32) {\n\n        return keccak256(abi.encodePacked(\"\\x19Ethereum Signed Message:\\n32\", _messageHash));\n    }\n\n    function verify(\n        address _signer,\n        address _to, uint256 _amount, string memory _message, uint _nonce,\n        bytes memory signature\n    )\n        public pure returns (bool)\n    {\n        bytes32 messageHash = getMessageHash(_to, _amount, _message, _nonce);\n\n        bytes32 ethSignedMessageHash = getEthSignedMessageHash(messageHash);\n\n        return recoverSigner(ethSignedMessageHash, signature) == _signer;\n    }\n\n    function recoverSigner(bytes32 _ethSignedMessageHash, bytes memory _signature)\n        public pure returns (address)\n    {\n        (bytes32 r, bytes32 s, uint8 v) = splitSignature(_signature);\n\n        return ecrecover(_ethSignedMessageHash, v, r, s);\n    }\n\n    function recoverSigner2(bytes32 _ethSignedMessageHash, uint8 v, bytes32 r, bytes32 s)\n        public pure returns (address)\n    {\n        return ecrecover(_ethSignedMessageHash, v, r, s);\n    }\n\n\n    function splitSignature(bytes memory sig)\n        public pure returns (bytes32 r, bytes32 s, uint8 v)\n    {\n        require(sig.length == 65, \"invalid signature length\");\n\n        assembly {\n            /*\n            First 32 bytes stores the length of the signature\n\n            add(sig, 32) = pointer of sig + 32\n            effectively, skips first 32 bytes of signature\n\n            mload(p) loads next 32 bytes starting at the memory address p into memory\n            */\n\n            // first 32 bytes, after the length prefix\n            r := mload(add(sig, 32))\n            // second 32 bytes\n            s := mload(add(sig, 64))\n            // final byte (first byte of the next 32 bytes)\n            v := byte(0, mload(add(sig, 96)))\n        }\n\n        // implicitly return (r, s, v)\n    }\n}",
  "sourcePath": "/Users/zena/ico2.0/ico20-contracts/contracts/tokens/VerifySignature.sol",
  "compiler": {
    "name": "solc",
    "version": "0.7.6+commit.7338295f.Emscripten.clang"
  },
  "schemaVersion": "3.3.4",
  "updatedAt": "2021-04-22T13:18:14.816Z",
  "devdoc": {
    "kind": "dev",
    "methods": {},
    "version": 1
  },
  "userdoc": {
    "kind": "user",
    "methods": {},
    "version": 1
  }
}