{
  "contractName": "WETH",
  "abi": [
    {
      "inputs": [],
      "stateMutability": "nonpayable",
      "type": "constructor"
    },
    {
      "anonymous": false,
      "inputs": [
        {
          "indexed": true,
          "internalType": "address",
          "name": "src",
          "type": "address"
        },
        {
          "indexed": true,
          "internalType": "address",
          "name": "guy",
          "type": "address"
        },
        {
          "indexed": false,
          "internalType": "uint256",
          "name": "wad",
          "type": "uint256"
        }
      ],
      "name": "Approval",
      "type": "event"
    },
    {
      "anonymous": false,
      "inputs": [
        {
          "indexed": true,
          "internalType": "address",
          "name": "from",
          "type": "address"
        },
        {
          "indexed": false,
          "internalType": "uint256",
          "name": "wad",
          "type": "uint256"
        }
      ],
      "name": "EventSwapEthToWeth",
      "type": "event"
    },
    {
      "anonymous": false,
      "inputs": [
        {
          "indexed": true,
          "internalType": "address",
          "name": "from",
          "type": "address"
        },
        {
          "indexed": false,
          "internalType": "uint256",
          "name": "wad",
          "type": "uint256"
        }
      ],
      "name": "EventSwapWethToEth",
      "type": "event"
    },
    {
      "anonymous": false,
      "inputs": [
        {
          "indexed": true,
          "internalType": "bytes32",
          "name": "role",
          "type": "bytes32"
        },
        {
          "indexed": true,
          "internalType": "bytes32",
          "name": "previousAdminRole",
          "type": "bytes32"
        },
        {
          "indexed": true,
          "internalType": "bytes32",
          "name": "newAdminRole",
          "type": "bytes32"
        }
      ],
      "name": "RoleAdminChanged",
      "type": "event"
    },
    {
      "anonymous": false,
      "inputs": [
        {
          "indexed": true,
          "internalType": "bytes32",
          "name": "role",
          "type": "bytes32"
        },
        {
          "indexed": true,
          "internalType": "address",
          "name": "account",
          "type": "address"
        },
        {
          "indexed": true,
          "internalType": "address",
          "name": "sender",
          "type": "address"
        }
      ],
      "name": "RoleGranted",
      "type": "event"
    },
    {
      "anonymous": false,
      "inputs": [
        {
          "indexed": true,
          "internalType": "bytes32",
          "name": "role",
          "type": "bytes32"
        },
        {
          "indexed": true,
          "internalType": "address",
          "name": "account",
          "type": "address"
        },
        {
          "indexed": true,
          "internalType": "address",
          "name": "sender",
          "type": "address"
        }
      ],
      "name": "RoleRevoked",
      "type": "event"
    },
    {
      "anonymous": false,
      "inputs": [
        {
          "indexed": true,
          "internalType": "address",
          "name": "src",
          "type": "address"
        },
        {
          "indexed": true,
          "internalType": "address",
          "name": "dst",
          "type": "address"
        },
        {
          "indexed": false,
          "internalType": "uint256",
          "name": "wad",
          "type": "uint256"
        }
      ],
      "name": "Transfer",
      "type": "event"
    },
    {
      "inputs": [],
      "name": "ADMIN_ROLE",
      "outputs": [
        {
          "internalType": "bytes32",
          "name": "",
          "type": "bytes32"
        }
      ],
      "stateMutability": "view",
      "type": "function"
    },
    {
      "inputs": [],
      "name": "BURNER_ROLE",
      "outputs": [
        {
          "internalType": "bytes32",
          "name": "",
          "type": "bytes32"
        }
      ],
      "stateMutability": "view",
      "type": "function"
    },
    {
      "inputs": [],
      "name": "DEFAULT_ADMIN_ROLE",
      "outputs": [
        {
          "internalType": "bytes32",
          "name": "",
          "type": "bytes32"
        }
      ],
      "stateMutability": "view",
      "type": "function"
    },
    {
      "inputs": [],
      "name": "MINTER_ROLE",
      "outputs": [
        {
          "internalType": "bytes32",
          "name": "",
          "type": "bytes32"
        }
      ],
      "stateMutability": "view",
      "type": "function"
    },
    {
      "inputs": [],
      "name": "PERMIT_TYPEHASH",
      "outputs": [
        {
          "internalType": "bytes32",
          "name": "",
          "type": "bytes32"
        }
      ],
      "stateMutability": "view",
      "type": "function"
    },
    {
      "inputs": [
        {
          "internalType": "address",
          "name": "",
          "type": "address"
        },
        {
          "internalType": "address",
          "name": "",
          "type": "address"
        }
      ],
      "name": "allowance",
      "outputs": [
        {
          "internalType": "uint256",
          "name": "",
          "type": "uint256"
        }
      ],
      "stateMutability": "view",
      "type": "function"
    },
    {
      "inputs": [
        {
          "internalType": "address",
          "name": "",
          "type": "address"
        }
      ],
      "name": "balanceOf",
      "outputs": [
        {
          "internalType": "uint256",
          "name": "",
          "type": "uint256"
        }
      ],
      "stateMutability": "view",
      "type": "function"
    },
    {
      "inputs": [],
      "name": "decimals",
      "outputs": [
        {
          "internalType": "uint8",
          "name": "",
          "type": "uint8"
        }
      ],
      "stateMutability": "view",
      "type": "function"
    },
    {
      "inputs": [
        {
          "internalType": "bytes32",
          "name": "_messageHash",
          "type": "bytes32"
        }
      ],
      "name": "getEthSignedMessageHash",
      "outputs": [
        {
          "internalType": "bytes32",
          "name": "",
          "type": "bytes32"
        }
      ],
      "stateMutability": "pure",
      "type": "function"
    },
    {
      "inputs": [
        {
          "internalType": "address",
          "name": "_to",
          "type": "address"
        },
        {
          "internalType": "uint256",
          "name": "_amount",
          "type": "uint256"
        },
        {
          "internalType": "string",
          "name": "_message",
          "type": "string"
        },
        {
          "internalType": "uint256",
          "name": "_nonce",
          "type": "uint256"
        }
      ],
      "name": "getMessageHash",
      "outputs": [
        {
          "internalType": "bytes32",
          "name": "",
          "type": "bytes32"
        }
      ],
      "stateMutability": "pure",
      "type": "function"
    },
    {
      "inputs": [
        {
          "internalType": "address",
          "name": "_owner",
          "type": "address"
        },
        {
          "internalType": "address",
          "name": "_spender",
          "type": "address"
        },
        {
          "internalType": "uint256",
          "name": "_amount",
          "type": "uint256"
        },
        {
          "internalType": "uint256",
          "name": "_period",
          "type": "uint256"
        }
      ],
      "name": "getPermitMessageHash",
      "outputs": [
        {
          "internalType": "bytes32",
          "name": "",
          "type": "bytes32"
        }
      ],
      "stateMutability": "pure",
      "type": "function"
    },
    {
      "inputs": [
        {
          "internalType": "bytes32",
          "name": "role",
          "type": "bytes32"
        }
      ],
      "name": "getRoleAdmin",
      "outputs": [
        {
          "internalType": "bytes32",
          "name": "",
          "type": "bytes32"
        }
      ],
      "stateMutability": "view",
      "type": "function"
    },
    {
      "inputs": [
        {
          "internalType": "bytes32",
          "name": "role",
          "type": "bytes32"
        },
        {
          "internalType": "uint256",
          "name": "index",
          "type": "uint256"
        }
      ],
      "name": "getRoleMember",
      "outputs": [
        {
          "internalType": "address",
          "name": "",
          "type": "address"
        }
      ],
      "stateMutability": "view",
      "type": "function"
    },
    {
      "inputs": [
        {
          "internalType": "bytes32",
          "name": "role",
          "type": "bytes32"
        }
      ],
      "name": "getRoleMemberCount",
      "outputs": [
        {
          "internalType": "uint256",
          "name": "",
          "type": "uint256"
        }
      ],
      "stateMutability": "view",
      "type": "function"
    },
    {
      "inputs": [
        {
          "internalType": "bytes32",
          "name": "role",
          "type": "bytes32"
        },
        {
          "internalType": "address",
          "name": "account",
          "type": "address"
        }
      ],
      "name": "grantRole",
      "outputs": [],
      "stateMutability": "nonpayable",
      "type": "function"
    },
    {
      "inputs": [
        {
          "internalType": "bytes32",
          "name": "role",
          "type": "bytes32"
        },
        {
          "internalType": "address",
          "name": "account",
          "type": "address"
        }
      ],
      "name": "hasRole",
      "outputs": [
        {
          "internalType": "bool",
          "name": "",
          "type": "bool"
        }
      ],
      "stateMutability": "view",
      "type": "function"
    },
    {
      "inputs": [],
      "name": "name",
      "outputs": [
        {
          "internalType": "string",
          "name": "",
          "type": "string"
        }
      ],
      "stateMutability": "view",
      "type": "function"
    },
    {
      "inputs": [
        {
          "internalType": "bytes32",
          "name": "_ethSignedMessageHash",
          "type": "bytes32"
        },
        {
          "internalType": "bytes",
          "name": "_signature",
          "type": "bytes"
        }
      ],
      "name": "recoverSigner",
      "outputs": [
        {
          "internalType": "address",
          "name": "",
          "type": "address"
        }
      ],
      "stateMutability": "pure",
      "type": "function"
    },
    {
      "inputs": [
        {
          "internalType": "bytes32",
          "name": "_ethSignedMessageHash",
          "type": "bytes32"
        },
        {
          "internalType": "uint8",
          "name": "v",
          "type": "uint8"
        },
        {
          "internalType": "bytes32",
          "name": "r",
          "type": "bytes32"
        },
        {
          "internalType": "bytes32",
          "name": "s",
          "type": "bytes32"
        }
      ],
      "name": "recoverSigner2",
      "outputs": [
        {
          "internalType": "address",
          "name": "",
          "type": "address"
        }
      ],
      "stateMutability": "pure",
      "type": "function"
    },
    {
      "inputs": [
        {
          "internalType": "bytes32",
          "name": "role",
          "type": "bytes32"
        },
        {
          "internalType": "address",
          "name": "account",
          "type": "address"
        }
      ],
      "name": "renounceRole",
      "outputs": [],
      "stateMutability": "nonpayable",
      "type": "function"
    },
    {
      "inputs": [
        {
          "internalType": "bytes32",
          "name": "role",
          "type": "bytes32"
        },
        {
          "internalType": "address",
          "name": "account",
          "type": "address"
        }
      ],
      "name": "revokeRole",
      "outputs": [],
      "stateMutability": "nonpayable",
      "type": "function"
    },
    {
      "inputs": [
        {
          "internalType": "bytes",
          "name": "sig",
          "type": "bytes"
        }
      ],
      "name": "splitSignature",
      "outputs": [
        {
          "internalType": "bytes32",
          "name": "r",
          "type": "bytes32"
        },
        {
          "internalType": "bytes32",
          "name": "s",
          "type": "bytes32"
        },
        {
          "internalType": "uint8",
          "name": "v",
          "type": "uint8"
        }
      ],
      "stateMutability": "pure",
      "type": "function"
    },
    {
      "inputs": [],
      "name": "symbol",
      "outputs": [
        {
          "internalType": "string",
          "name": "",
          "type": "string"
        }
      ],
      "stateMutability": "view",
      "type": "function"
    },
    {
      "inputs": [],
      "name": "totalSupply",
      "outputs": [
        {
          "internalType": "uint256",
          "name": "",
          "type": "uint256"
        }
      ],
      "stateMutability": "view",
      "type": "function"
    },
    {
      "inputs": [
        {
          "internalType": "address",
          "name": "_signer",
          "type": "address"
        },
        {
          "internalType": "address",
          "name": "_to",
          "type": "address"
        },
        {
          "internalType": "uint256",
          "name": "_amount",
          "type": "uint256"
        },
        {
          "internalType": "string",
          "name": "_message",
          "type": "string"
        },
        {
          "internalType": "uint256",
          "name": "_nonce",
          "type": "uint256"
        },
        {
          "internalType": "bytes",
          "name": "signature",
          "type": "bytes"
        }
      ],
      "name": "verify",
      "outputs": [
        {
          "internalType": "bool",
          "name": "",
          "type": "bool"
        }
      ],
      "stateMutability": "pure",
      "type": "function"
    },
    {
      "stateMutability": "payable",
      "type": "receive"
    },
    {
      "inputs": [],
      "name": "swapEthToWeth",
      "outputs": [],
      "stateMutability": "payable",
      "type": "function"
    },
    {
      "inputs": [
        {
          "internalType": "uint256",
          "name": "wad",
          "type": "uint256"
        }
      ],
      "name": "swapWethToEth",
      "outputs": [],
      "stateMutability": "nonpayable",
      "type": "function"
    },
    {
      "inputs": [],
      "name": "balanceEther",
      "outputs": [
        {
          "internalType": "uint256",
          "name": "",
          "type": "uint256"
        }
      ],
      "stateMutability": "view",
      "type": "function"
    },
    {
      "inputs": [
        {
          "internalType": "address",
          "name": "to",
          "type": "address"
        },
        {
          "internalType": "uint256",
          "name": "amount",
          "type": "uint256"
        }
      ],
      "name": "mint",
      "outputs": [
        {
          "internalType": "bool",
          "name": "",
          "type": "bool"
        }
      ],
      "stateMutability": "nonpayable",
      "type": "function"
    },
    {
      "inputs": [
        {
          "internalType": "address",
          "name": "from",
          "type": "address"
        },
        {
          "internalType": "uint256",
          "name": "amount",
          "type": "uint256"
        }
      ],
      "name": "burn",
      "outputs": [
        {
          "internalType": "bool",
          "name": "",
          "type": "bool"
        }
      ],
      "stateMutability": "nonpayable",
      "type": "function"
    },
    {
      "inputs": [
        {
          "internalType": "address",
          "name": "guy",
          "type": "address"
        },
        {
          "internalType": "uint256",
          "name": "wad",
          "type": "uint256"
        }
      ],
      "name": "approve",
      "outputs": [
        {
          "internalType": "bool",
          "name": "",
          "type": "bool"
        }
      ],
      "stateMutability": "nonpayable",
      "type": "function"
    },
    {
      "inputs": [
        {
          "internalType": "address",
          "name": "dst",
          "type": "address"
        },
        {
          "internalType": "uint256",
          "name": "wad",
          "type": "uint256"
        }
      ],
      "name": "transfer",
      "outputs": [
        {
          "internalType": "bool",
          "name": "",
          "type": "bool"
        }
      ],
      "stateMutability": "nonpayable",
      "type": "function"
    },
    {
      "inputs": [
        {
          "internalType": "address",
          "name": "src",
          "type": "address"
        },
        {
          "internalType": "address",
          "name": "dst",
          "type": "address"
        },
        {
          "internalType": "uint256",
          "name": "wad",
          "type": "uint256"
        }
      ],
      "name": "transferFrom",
      "outputs": [
        {
          "internalType": "bool",
          "name": "",
          "type": "bool"
        }
      ],
      "stateMutability": "nonpayable",
      "type": "function"
    },
    {
      "inputs": [
        {
          "internalType": "address",
          "name": "owner",
          "type": "address"
        },
        {
          "internalType": "address",
          "name": "spender",
          "type": "address"
        },
        {
          "internalType": "uint256",
          "name": "value",
          "type": "uint256"
        },
        {
          "internalType": "uint256",
          "name": "deadline",
          "type": "uint256"
        },
        {
          "internalType": "bytes",
          "name": "signature",
          "type": "bytes"
        }
      ],
      "name": "permit",
      "outputs": [],
      "stateMutability": "nonpayable",
      "type": "function"
    },
    {
      "inputs": [
        {
          "internalType": "address",
          "name": "_signer",
          "type": "address"
        },
        {
          "internalType": "address",
          "name": "_to",
          "type": "address"
        },
        {
          "internalType": "uint256",
          "name": "_amount",
          "type": "uint256"
        },
        {
          "internalType": "uint256",
          "name": "_period",
          "type": "uint256"
        },
        {
          "internalType": "bytes",
          "name": "signature",
          "type": "bytes"
        }
      ],
      "name": "permitVerify",
      "outputs": [
        {
          "internalType": "bool",
          "name": "",
          "type": "bool"
        }
      ],
      "stateMutability": "pure",
      "type": "function"
    }
  ],
  "bytecode": "0x60c0604052600d60808190526c2bb930b83832b21022ba3432b960991b60a0908152620000309160019190620002c8565b50604080518082019091526004808252630ae8aa8960e31b60209092019182526200005e91600291620002c8565b506003805460ff191660121790553480156200007957600080fd5b5062000095600080516020620021408339815191528062000162565b620000b06000805160206200214083398151915233620001b4565b620000eb7f9667e80708b6eeeb0053fa0cca44e028ff548e2a9f029edfeac87c118b08b7c86000805160206200214083398151915262000162565b62000115600080516020620021208339815191526000805160206200214083398151915262000162565b620001417f9667e80708b6eeeb0053fa0cca44e028ff548e2a9f029edfeac87c118b08b7c833620001b4565b6200015c6000805160206200212083398151915233620001b4565b62000374565b600082815260208190526040808220600201549051839285917fbd79b86ffe0ab8e8776151514217cd7cacd52c909f66475c3af44e129f0b00ff9190a460009182526020829052604090912060020155565b620001c08282620001c4565b5050565b600082815260208181526040909120620001e9918390620018d56200023d821b17901c565b15620001c057620001f96200025d565b6001600160a01b0316816001600160a01b0316837f2f8788117e7eff1d82e926ec794901d17c78024a50270940304540a733656f0d60405160405180910390a45050565b600062000254836001600160a01b03841662000261565b90505b92915050565b3390565b60006200026f8383620002b0565b620002a75750815460018181018455600084815260208082209093018490558454848252828601909352604090209190915562000257565b50600062000257565b60009081526001919091016020526040902054151590565b828054600181600116156101000203166002900490600052602060002090601f0160209004810192826200030057600085556200034b565b82601f106200031b57805160ff19168380011785556200034b565b828001600101855582156200034b579182015b828111156200034b5782518255916020019190600101906200032e565b50620003599291506200035d565b5090565b5b808211156200035957600081556001016200035e565b611d9c80620003846000396000f3fe6080604052600436106102085760003560e01c8063926e254411610118578063a9059cbb116100a0578063d53913931161006f578063d539139314610c1b578063d547741f14610c30578063dd62ed3e14610c69578063ee25976814610ca4578063fa54080114610cce57610217565b8063a9059cbb14610a1b578063abe5026a14610a54578063bdb33d4814610bb2578063ca15c87314610bf157610217565b80639fd5a6cf116100e75780639fd5a6cf146106c0578063a217fddf14610796578063a35f8a40146107ab578063a387e36114610873578063a7bb58031461094957610217565b8063926e2544146105b257806395d89b41146105ba57806397aba7f9146105cf5780639dc29fac1461068757610217565b8063313ce5671161019b57806349195b311161016a57806349195b311461049c57806370a08231146104e557806375b238fc146105185780639010d07c1461052d57806391d148541461057957610217565b8063313ce567146103ea578063323bde921461041557806336568abe1461042a57806340c10f191461046357610217565b8063248a9ca3116101d7578063248a9ca31461035d578063282c51f3146103875780632f2ff15d1461039c57806330adf81f146103d557610217565b806306fdde031461021c578063095ea7b3146102a657806318160ddd146102f357806323b872dd1461031a57610217565b3661021757610215610cf8565b005b600080fd5b34801561022857600080fd5b50610231610d3a565b6040805160208082528351818301528351919283929083019185019080838360005b8381101561026b578181015183820152602001610253565b50505050905090810190601f1680156102985780820380516001836020036101000a031916815260200191505b509250505060405180910390f35b3480156102b257600080fd5b506102df600480360360408110156102c957600080fd5b506001600160a01b038135169060200135610dc7565b604080519115158252519081900360200190f35b3480156102ff57600080fd5b50610308610dde565b60408051918252519081900360200190f35b34801561032657600080fd5b506102df6004803603606081101561033d57600080fd5b506001600160a01b03813581169160208101359091169060400135610de4565b34801561036957600080fd5b506103086004803603602081101561038057600080fd5b5035610f18565b34801561039357600080fd5b50610308610f2d565b3480156103a857600080fd5b50610215600480360360408110156103bf57600080fd5b50803590602001356001600160a01b0316610f51565b3480156103e157600080fd5b50610308610fbd565b3480156103f657600080fd5b506103ff610fe1565b6040805160ff9092168252519081900360200190f35b34801561042157600080fd5b50610308610fea565b34801561043657600080fd5b506102156004803603604081101561044d57600080fd5b50803590602001356001600160a01b0316610fee565b34801561046f57600080fd5b506102df6004803603604081101561048657600080fd5b506001600160a01b03813516906020013561104f565b3480156104a857600080fd5b50610308600480360360808110156104bf57600080fd5b506001600160a01b038135811691602081013590911690604081013590606001356110d6565b3480156104f157600080fd5b506103086004803603602081101561050857600080fd5b50356001600160a01b0316611154565b34801561052457600080fd5b50610308611166565b34801561053957600080fd5b5061055d6004803603604081101561055057600080fd5b508035906020013561118a565b604080516001600160a01b039092168252519081900360200190f35b34801561058557600080fd5b506102df6004803603604081101561059c57600080fd5b50803590602001356001600160a01b03166111a9565b610215610cf8565b3480156105c657600080fd5b506102316111c1565b3480156105db57600080fd5b5061055d600480360360408110156105f257600080fd5b81359190810190604081016020820135600160201b81111561061357600080fd5b82018360208201111561062557600080fd5b803590602001918460018302840111600160201b8311171561064657600080fd5b91908080601f016020809104026020016040519081016040528093929190818152602001838380828437600092019190915250929550611219945050505050565b34801561069357600080fd5b506102df600480360360408110156106aa57600080fd5b506001600160a01b03813516906020013561129d565b3480156106cc57600080fd5b50610215600480360360a08110156106e357600080fd5b6001600160a01b03823581169260208101359091169160408201359160608101359181019060a081016080820135600160201b81111561072257600080fd5b82018360208201111561073457600080fd5b803590602001918460018302840111600160201b8311171561075557600080fd5b91908080601f016020809104026020016040519081016040528093929190818152602001838380828437600092019190915250929550611324945050505050565b3480156107a257600080fd5b50610308611423565b3480156107b757600080fd5b50610308600480360360808110156107ce57600080fd5b6001600160a01b0382351691602081013591810190606081016040820135600160201b8111156107fd57600080fd5b82018360208201111561080f57600080fd5b803590602001918460018302840111600160201b8311171561083057600080fd5b91908080601f0160208091040260200160405190810160405280939291908181526020018383808284376000920191909152509295505091359250611428915050565b34801561087f57600080fd5b506102df600480360360a081101561089657600080fd5b6001600160a01b03823581169260208101359091169160408201359160608101359181019060a081016080820135600160201b8111156108d557600080fd5b8201836020820111156108e757600080fd5b803590602001918460018302840111600160201b8311171561090857600080fd5b91908080601f0160208091040260200160405190810160405280939291908181526020018383808284376000920191909152509295506114bb945050505050565b34801561095557600080fd5b506109fa6004803603602081101561096c57600080fd5b810190602081018135600160201b81111561098657600080fd5b82018360208201111561099857600080fd5b803590602001918460018302840111600160201b831117156109b957600080fd5b91908080601f016020809104026020016040519081016040528093929190818152602001838380828437600092019190915250929550611502945050505050565b60408051938452602084019290925260ff1682820152519081900360600190f35b348015610a2757600080fd5b506102df60048036036040811015610a3e57600080fd5b506001600160a01b03813516906020013561157b565b348015610a6057600080fd5b506102df600480360360c0811015610a7757600080fd5b6001600160a01b03823581169260208101359091169160408201359190810190608081016060820135600160201b811115610ab157600080fd5b820183602082011115610ac357600080fd5b803590602001918460018302840111600160201b83111715610ae457600080fd5b91908080601f01602080910402602001604051908101604052809392919081815260200183838082843760009201919091525092958435959094909350604081019250602001359050600160201b811115610b3e57600080fd5b820183602082011115610b5057600080fd5b803590602001918460018302840111600160201b83111715610b7157600080fd5b91908080601f016020809104026020016040519081016040528093929190818152602001838380828437600092019190915250929550611588945050505050565b348015610bbe57600080fd5b5061055d60048036036080811015610bd557600080fd5b5080359060ff60208201351690604081013590606001356115d1565b348015610bfd57600080fd5b5061030860048036036020811015610c1457600080fd5b5035611641565b348015610c2757600080fd5b50610308611658565b348015610c3c57600080fd5b5061021560048036036040811015610c5357600080fd5b50803590602001356001600160a01b031661167c565b348015610c7557600080fd5b5061030860048036036040811015610c8c57600080fd5b506001600160a01b03813581169160200135166116d5565b348015610cb057600080fd5b5061021560048036036020811015610cc757600080fd5b50356116f2565b348015610cda57600080fd5b5061030860048036036020811015610cf157600080fd5b5035611884565b610d0233346118ea565b60408051348152905133917f16e9ec1dd592c8c33ec67ece3da171251b670035dd09edc91dba91d033d3ee35919081900360200190a2565b60018054604080516020600284861615610100026000190190941693909304601f81018490048402820184019092528181529291830182828015610dbf5780601f10610d9457610100808354040283529160200191610dbf565b820191906000526020600020905b815481529060010190602001808311610da257829003601f168201915b505050505081565b6000610dd4338484611949565b5060015b92915050565b60045481565b6001600160a01b038316600090815260056020526040812054821115610e0957600080fd5b6001600160a01b0384163314801590610e4757506001600160a01b038416600090815260066020908152604080832033845290915290205460001914155b15610ea7576001600160a01b0384166000908152600660209081526040808320338452909152902054821115610e7c57600080fd5b6001600160a01b03841660009081526006602090815260408083203384529091529020805483900390555b6001600160a01b03808516600081815260056020908152604080832080548890039055938716808352918490208054870190558351868152935191937fddf252ad1be2c89b69c2b068fc378daa952ba7f163c4a11628f55a4df523b3ef929081900390910190a35060019392505050565b60009081526020819052604090206002015490565b7f9667e80708b6eeeb0053fa0cca44e028ff548e2a9f029edfeac87c118b08b7c881565b600082815260208190526040902060020154610f7490610f6f6119ab565b6111a9565b610faf5760405162461bcd60e51b815260040180806020018281038252602f815260200180611cd9602f913960400191505060405180910390fd5b610fb982826119af565b5050565b7f6e71edae12b1b97f4d1f60370fef10105fa2faae0126114a169c64845d6126c981565b60035460ff1681565b4790565b610ff66119ab565b6001600160a01b0316816001600160a01b0316146110455760405162461bcd60e51b815260040180806020018281038252602f815260200180611d38602f913960400191505060405180910390fd5b610fb98282611a18565b600061107b7ff0887ba65ee2024ea881d91b74c2450ef19e1557f03bed3ea9f16b037cbe2dc9336111a9565b6110cc576040805162461bcd60e51b815260206004820152601b60248201527f464c443a2043616c6c6572206973206e6f742061206d696e7465720000000000604482015290519081900360640190fd5b610dd483836118ea565b604080517f6e71edae12b1b97f4d1f60370fef10105fa2faae0126114a169c64845d6126c96020808301919091526bffffffffffffffffffffffff19606088811b82168486015287901b1660548301526068820185905260888083018590528351808403909101815260a89092019092528051910120949350505050565b60056020526000908152604090205481565b7fdf8b4c520ffe197c5343c6f5aec59570151ef9a492f2c624fd45ddde6135ec4281565b60008281526020819052604081206111a29083611a81565b9392505050565b60008281526020819052604081206111a29083611a8d565b6002805460408051602060018416156101000260001901909316849004601f81018490048402820184019092528181529291830182828015610dbf5780601f10610d9457610100808354040283529160200191610dbf565b60008060008061122885611502565b92509250925060018682858560405160008152602001604052604051808581526020018460ff1681526020018381526020018281526020019450505050506020604051602081039080840390855afa158015611288573d6000803e3d6000fd5b5050604051601f190151979650505050505050565b60006112c97f9667e80708b6eeeb0053fa0cca44e028ff548e2a9f029edfeac87c118b08b7c8336111a9565b61131a576040805162461bcd60e51b815260206004820152601b60248201527f464c443a2043616c6c6572206973206e6f742061206275726e65720000000000604482015290519081900360640190fd5b610dd48383611aa2565b42821015611369576040805162461bcd60e51b815260206004820152600d60248201526c15d155120e8811561412549151609a1b604482015290519081900360640190fd5b6000611377868686866110d6565b9050600061138482611884565b905060006113928285611219565b90506001600160a01b038116158015906113bd5750876001600160a01b0316816001600160a01b0316145b61140e576040805162461bcd60e51b815260206004820152601760248201527f574554483a20494e56414c49445f5349474e4154555245000000000000000000604482015290519081900360640190fd5b611419888888611949565b5050505050505050565b600081565b60008484848460405160200180856001600160a01b031660601b815260140184815260200183805190602001908083835b602083106114785780518252601f199092019160209182019101611459565b51815160209384036101000a6000190180199092169116179052920193845250604080518085038152938201905282519201919091209998505050505050505050565b6000806114ca878787876110d6565b905060006114d782611884565b905060006114e58286611219565b6001600160a01b03908116908a1614935050505095945050505050565b6000806000835160411461155d576040805162461bcd60e51b815260206004820152601860248201527f696e76616c6964207369676e6174757265206c656e6774680000000000000000604482015290519081900360640190fd5b50505060208101516040820151606090920151909260009190911a90565b60006111a2338484610de4565b60008061159787878787611428565b905060006115a482611884565b9050886001600160a01b03166115ba8286611219565b6001600160a01b0316149998505050505050505050565b600060018585858560405160008152602001604052604051808581526020018460ff1681526020018381526020018281526020019450505050506020604051602081039080840390855afa15801561162d573d6000803e3d6000fd5b5050604051601f1901519695505050505050565b6000818152602081905260408120610dd890611b06565b7ff0887ba65ee2024ea881d91b74c2450ef19e1557f03bed3ea9f16b037cbe2dc981565b60008281526020819052604090206002015461169a90610f6f6119ab565b6110455760405162461bcd60e51b8152600401808060200182810382526030815260200180611d086030913960400191505060405180910390fd5b600660209081526000928352604080842090915290825290205481565b3360008181526007602052604090205415611743576040805162461bcd60e51b815260206004820152600c60248201526b15d155120e881313d0d2d15160a21b604482015290519081900360640190fd5b6001600160a01b038116600090815260076020908152604080832060019055338352600590915290205482111561177957600080fd5b6117833383611aa2565b3080318381101561179357600080fd5b604051600090339086908381818185875af1925050503d80600081146117d5576040519150601f19603f3d011682016040523d82523d6000602084013e6117da565b606091505b5050905080611830576040805162461bcd60e51b815260206004820152601b60248201527f574554483a207377617057657468546f457468206661696c65642e0000000000604482015290519081900360640190fd5b60408051868152905133917f3bc67d27ba7970de1e86ae73cfe62a47ab71d568a8bf951af3b157b4a05042f0919081900360200190a25050506001600160a01b031660009081526007602052604081205550565b604080517f19457468657265756d205369676e6564204d6573736167653a0a333200000000602080830191909152603c8083019490945282518083039094018452605c909101909152815191012090565b60006111a2836001600160a01b038416611b11565b60048054820190556001600160a01b0382166000818152600560209081526040808320805486019055805185815290517fddf252ad1be2c89b69c2b068fc378daa952ba7f163c4a11628f55a4df523b3ef929181900390910190a35050565b6001600160a01b03808416600081815260066020908152604080832094871680845294825291829020859055815185815291517f8c5be1e5ebec7d5bd14f71427d1e84f3dd0314c0f7b2291e5b200ac8c7c3b9259281900390910190a3505050565b3390565b60008281526020819052604090206119c790826118d5565b15610fb9576119d46119ab565b6001600160a01b0316816001600160a01b0316837f2f8788117e7eff1d82e926ec794901d17c78024a50270940304540a733656f0d60405160405180910390a45050565b6000828152602081905260409020611a309082611b5b565b15610fb957611a3d6119ab565b6001600160a01b0316816001600160a01b0316837ff6391f5c32d9c69d2a47ea670b442974b53935d1edc7fd64eb21e047a839171b60405160405180910390a45050565b60006111a28383611b70565b60006111a2836001600160a01b038416611bd4565b6001600160a01b038216600081815260056020908152604080832080548690039055600480548690039055805185815290519293927fddf252ad1be2c89b69c2b068fc378daa952ba7f163c4a11628f55a4df523b3ef929181900390910190a35050565b6000610dd882611bec565b6000611b1d8383611bd4565b611b5357508154600181810184556000848152602080822090930184905584548482528286019093526040902091909155610dd8565b506000610dd8565b60006111a2836001600160a01b038416611bf0565b81546000908210611bb25760405162461bcd60e51b8152600401808060200182810382526022815260200180611cb76022913960400191505060405180910390fd5b826000018281548110611bc157fe5b9060005260206000200154905092915050565b60009081526001919091016020526040902054151590565b5490565b60008181526001830160205260408120548015611cac5783546000198083019190810190600090879083908110611c2357fe5b9060005260206000200154905080876000018481548110611c4057fe5b600091825260208083209091019290925582815260018981019092526040902090840190558654879080611c7057fe5b60019003818190600052602060002001600090559055866001016000878152602001908152602001600020600090556001945050505050610dd8565b6000915050610dd856fe456e756d657261626c655365743a20696e646578206f7574206f6620626f756e6473416363657373436f6e74726f6c3a2073656e646572206d75737420626520616e2061646d696e20746f206772616e74416363657373436f6e74726f6c3a2073656e646572206d75737420626520616e2061646d696e20746f207265766f6b65416363657373436f6e74726f6c3a2063616e206f6e6c792072656e6f756e636520726f6c657320666f722073656c66a264697066735822122031ebf09402905eca53c5e6c938c1c8681e2fd7673f513fadcb0aec9e2ef7e12f64736f6c63430007060033f0887ba65ee2024ea881d91b74c2450ef19e1557f03bed3ea9f16b037cbe2dc9df8b4c520ffe197c5343c6f5aec59570151ef9a492f2c624fd45ddde6135ec42",
  "immutableReferences": {},
  "source": "//SPDX-License-Identifier: Unlicense\npragma solidity ^0.7.6;\n\nimport \"@openzeppelin/contracts/access/AccessControl.sol\";\nimport './VerifySignature.sol';\n\ncontract WETH is AccessControl, VerifySignature {\n    bytes32 public constant ADMIN_ROLE = keccak256(\"ADMIN\");\n    bytes32 public constant MINTER_ROLE = keccak256(\"MINTER\");\n    bytes32 public constant BURNER_ROLE = keccak256(\"BURNER\");\n\n    string public name     = \"Wrapped Ether\";\n    string public symbol   = \"WETH\";\n    uint8  public decimals = 18;\n\n    event  Approval(address indexed src, address indexed guy, uint256 wad);\n    event  Transfer(address indexed src, address indexed dst, uint256 wad);\n    event  EventSwapEthToWeth(address indexed from, uint256 wad);\n    event  EventSwapWethToEth(address indexed from, uint256 wad);\n\n    uint256  public totalSupply;\n    mapping (address => uint256)                       public  balanceOf;\n    mapping (address => mapping (address => uint256))  public  allowance;\n    mapping (address => uint)                       private  userLocked;\n\n    modifier lock(address user) {\n        require(userLocked[user] == 0, \"WETH: LOCKED\");\n        userLocked[user] = 1;\n        _;\n        userLocked[user] = 0;\n    }\n\n    constructor() {\n        _setRoleAdmin(ADMIN_ROLE, ADMIN_ROLE);\n         _setupRole(ADMIN_ROLE, msg.sender);\n\n        _setRoleAdmin(BURNER_ROLE, ADMIN_ROLE);\n        _setRoleAdmin(MINTER_ROLE, ADMIN_ROLE);\n\n        _setupRole(BURNER_ROLE, msg.sender);\n        _setupRole(MINTER_ROLE, msg.sender);\n    }\n\n    receive() external payable {\n        swapEthToWeth();\n    }\n\n    function swapEthToWeth() public payable {\n        _mint(msg.sender, msg.value);\n        emit EventSwapEthToWeth(msg.sender, msg.value);\n    }\n\n    function swapWethToEth(uint256 wad) external lock(msg.sender) {\n        require(balanceOf[msg.sender] >= wad);\n        _burn(msg.sender, wad);\n\n        //msg.sender.transfer(wad);\n        address payable self = address(uint160(address(this)));\n        uint256 contractBalance  = self.balance;\n        require(contractBalance >= wad);\n\n        (bool success, ) = msg.sender.call{value: wad}(\"\");\n        require(success, \"WETH: swapWethToEth failed.\");\n\n        emit EventSwapWethToEth(msg.sender, wad);\n    }\n\n    function balanceEther() external view returns (uint) {\n        return address(this).balance;\n    }\n\n    function _mint(address to, uint256 value) internal {\n        totalSupply += value;\n        balanceOf[to] += value;\n        emit Transfer(address(0), to, value);\n    }\n\n    function _burn(address from, uint256 value) internal {\n        balanceOf[from] -= value;\n        totalSupply -= value;\n        emit Transfer(from, address(0), value);\n    }\n\n    function _approve(address owner, address spender, uint256 value) private {\n        allowance[owner][spender] = value;\n        emit Approval(owner, spender, value);\n    }\n\n    function mint(address to, uint256 amount) external returns (bool) {\n        require(hasRole(MINTER_ROLE, msg.sender), \"FLD: Caller is not a minter\");\n        _mint(to, amount);\n        return true;\n    }\n\n    function burn(address from, uint256 amount) external returns (bool) {\n        require(hasRole(BURNER_ROLE, msg.sender), \"FLD: Caller is not a burner\");\n        _burn(from, amount);\n        return true;\n    }\n\n    function approve(address guy, uint wad) external returns (bool) {\n        _approve(msg.sender, guy, wad) ;\n        return true;\n    }\n\n    function transfer(address dst, uint wad) external returns (bool) {\n        return transferFrom(msg.sender, dst, wad);\n    }\n\n    function transferFrom(address src, address dst, uint wad)\n        public\n        returns (bool)\n    {\n        require(balanceOf[src] >= wad);\n\n        if (src != msg.sender && allowance[src][msg.sender] != uint(-1)) {\n            require(allowance[src][msg.sender] >= wad);\n            allowance[src][msg.sender] -= wad;\n        }\n\n        balanceOf[src] -= wad;\n        balanceOf[dst] += wad;\n\n        emit Transfer(src, dst, wad);\n\n        return true;\n    }\n\n    function permit(\n        address owner,\n        address spender,\n        uint256 value,\n        uint256 deadline,\n        bytes memory signature\n    )\n        external\n    {\n        require(deadline >= block.timestamp, 'WETH: EXPIRED');\n        bytes32 messageHash = getPermitMessageHash(owner, spender, value, deadline);\n        bytes32 ethSignedMessageHash = getEthSignedMessageHash(messageHash);\n        address recoveredAddress = recoverSigner(ethSignedMessageHash, signature);\n        require(recoveredAddress != address(0) && recoveredAddress == owner, 'WETH: INVALID_SIGNATURE');\n        _approve(owner, spender, value);\n    }\n\n    function permitVerify(\n        address _signer,\n        address _to, uint256 _amount,  uint256 _period,\n        bytes memory signature\n    )\n        public pure returns (bool)\n    {\n        bytes32 messageHash = getPermitMessageHash(_signer, _to, _amount,  _period);\n\n        bytes32 ethSignedMessageHash = getEthSignedMessageHash(messageHash);\n\n        address _addr = recoverSigner(ethSignedMessageHash, signature);\n\n        return (_addr == _signer);\n    }\n\n}\n\n",
  "sourcePath": "/Users/zena/ico2.0/ico20-contracts/contracts/tokens/WETH.sol",
  "compiler": {
    "name": "solc",
    "version": "0.7.6+commit.7338295f.Emscripten.clang"
  },
  "schemaVersion": "3.3.4",
  "updatedAt": "2021-04-22T07:25:09.084Z",
  "devdoc": {
    "kind": "dev",
    "methods": {
      "getRoleAdmin(bytes32)": {
        "details": "Returns the admin role that controls `role`. See {grantRole} and {revokeRole}. To change a role's admin, use {_setRoleAdmin}."
      },
      "getRoleMember(bytes32,uint256)": {
        "details": "Returns one of the accounts that have `role`. `index` must be a value between 0 and {getRoleMemberCount}, non-inclusive. Role bearers are not sorted in any particular way, and their ordering may change at any point. WARNING: When using {getRoleMember} and {getRoleMemberCount}, make sure you perform all queries on the same block. See the following https://forum.openzeppelin.com/t/iterating-over-elements-on-enumerableset-in-openzeppelin-contracts/2296[forum post] for more information."
      },
      "getRoleMemberCount(bytes32)": {
        "details": "Returns the number of accounts that have `role`. Can be used together with {getRoleMember} to enumerate all bearers of a role."
      },
      "grantRole(bytes32,address)": {
        "details": "Grants `role` to `account`. If `account` had not been already granted `role`, emits a {RoleGranted} event. Requirements: - the caller must have ``role``'s admin role."
      },
      "hasRole(bytes32,address)": {
        "details": "Returns `true` if `account` has been granted `role`."
      },
      "renounceRole(bytes32,address)": {
        "details": "Revokes `role` from the calling account. Roles are often managed via {grantRole} and {revokeRole}: this function's purpose is to provide a mechanism for accounts to lose their privileges if they are compromised (such as when a trusted device is misplaced). If the calling account had been granted `role`, emits a {RoleRevoked} event. Requirements: - the caller must be `account`."
      },
      "revokeRole(bytes32,address)": {
        "details": "Revokes `role` from `account`. If `account` had been granted `role`, emits a {RoleRevoked} event. Requirements: - the caller must have ``role``'s admin role."
      }
    },
    "version": 1
  },
  "userdoc": {
    "kind": "user",
    "methods": {},
    "version": 1
  }
}