{
  "contractName": "YearnV2Staker",
  "abi": [
    {
      "anonymous": false,
      "inputs": [
        {
          "indexed": true,
          "internalType": "bytes32",
          "name": "role",
          "type": "bytes32"
        },
        {
          "indexed": true,
          "internalType": "bytes32",
          "name": "previousAdminRole",
          "type": "bytes32"
        },
        {
          "indexed": true,
          "internalType": "bytes32",
          "name": "newAdminRole",
          "type": "bytes32"
        }
      ],
      "name": "RoleAdminChanged",
      "type": "event"
    },
    {
      "anonymous": false,
      "inputs": [
        {
          "indexed": true,
          "internalType": "bytes32",
          "name": "role",
          "type": "bytes32"
        },
        {
          "indexed": true,
          "internalType": "address",
          "name": "account",
          "type": "address"
        },
        {
          "indexed": true,
          "internalType": "address",
          "name": "sender",
          "type": "address"
        }
      ],
      "name": "RoleGranted",
      "type": "event"
    },
    {
      "anonymous": false,
      "inputs": [
        {
          "indexed": true,
          "internalType": "bytes32",
          "name": "role",
          "type": "bytes32"
        },
        {
          "indexed": true,
          "internalType": "address",
          "name": "account",
          "type": "address"
        },
        {
          "indexed": true,
          "internalType": "address",
          "name": "sender",
          "type": "address"
        }
      ],
      "name": "RoleRevoked",
      "type": "event"
    },
    {
      "inputs": [],
      "name": "ADMIN_ROLE",
      "outputs": [
        {
          "internalType": "bytes32",
          "name": "",
          "type": "bytes32"
        }
      ],
      "stateMutability": "view",
      "type": "function"
    },
    {
      "inputs": [],
      "name": "DEFAULT_ADMIN_ROLE",
      "outputs": [
        {
          "internalType": "bytes32",
          "name": "",
          "type": "bytes32"
        }
      ],
      "stateMutability": "view",
      "type": "function"
    },
    {
      "inputs": [],
      "name": "endBlock",
      "outputs": [
        {
          "internalType": "uint256",
          "name": "",
          "type": "uint256"
        }
      ],
      "stateMutability": "view",
      "type": "function"
    },
    {
      "inputs": [
        {
          "internalType": "bytes32",
          "name": "role",
          "type": "bytes32"
        }
      ],
      "name": "getRoleAdmin",
      "outputs": [
        {
          "internalType": "bytes32",
          "name": "",
          "type": "bytes32"
        }
      ],
      "stateMutability": "view",
      "type": "function"
    },
    {
      "inputs": [
        {
          "internalType": "bytes32",
          "name": "role",
          "type": "bytes32"
        },
        {
          "internalType": "uint256",
          "name": "index",
          "type": "uint256"
        }
      ],
      "name": "getRoleMember",
      "outputs": [
        {
          "internalType": "address",
          "name": "",
          "type": "address"
        }
      ],
      "stateMutability": "view",
      "type": "function"
    },
    {
      "inputs": [
        {
          "internalType": "bytes32",
          "name": "role",
          "type": "bytes32"
        }
      ],
      "name": "getRoleMemberCount",
      "outputs": [
        {
          "internalType": "uint256",
          "name": "",
          "type": "uint256"
        }
      ],
      "stateMutability": "view",
      "type": "function"
    },
    {
      "inputs": [
        {
          "internalType": "bytes32",
          "name": "role",
          "type": "bytes32"
        },
        {
          "internalType": "address",
          "name": "account",
          "type": "address"
        }
      ],
      "name": "grantRole",
      "outputs": [],
      "stateMutability": "nonpayable",
      "type": "function"
    },
    {
      "inputs": [
        {
          "internalType": "bytes32",
          "name": "role",
          "type": "bytes32"
        },
        {
          "internalType": "address",
          "name": "account",
          "type": "address"
        }
      ],
      "name": "hasRole",
      "outputs": [
        {
          "internalType": "bool",
          "name": "",
          "type": "bool"
        }
      ],
      "stateMutability": "view",
      "type": "function"
    },
    {
      "inputs": [],
      "name": "paytoken",
      "outputs": [
        {
          "internalType": "address",
          "name": "",
          "type": "address"
        }
      ],
      "stateMutability": "view",
      "type": "function"
    },
    {
      "inputs": [
        {
          "internalType": "bytes32",
          "name": "role",
          "type": "bytes32"
        },
        {
          "internalType": "address",
          "name": "account",
          "type": "address"
        }
      ],
      "name": "renounceRole",
      "outputs": [],
      "stateMutability": "nonpayable",
      "type": "function"
    },
    {
      "inputs": [
        {
          "internalType": "bytes32",
          "name": "role",
          "type": "bytes32"
        },
        {
          "internalType": "address",
          "name": "account",
          "type": "address"
        }
      ],
      "name": "revokeRole",
      "outputs": [],
      "stateMutability": "nonpayable",
      "type": "function"
    },
    {
      "inputs": [],
      "name": "rewardClaimedTotal",
      "outputs": [
        {
          "internalType": "uint256",
          "name": "",
          "type": "uint256"
        }
      ],
      "stateMutability": "view",
      "type": "function"
    },
    {
      "inputs": [],
      "name": "saleStartBlock",
      "outputs": [
        {
          "internalType": "uint256",
          "name": "",
          "type": "uint256"
        }
      ],
      "stateMutability": "view",
      "type": "function"
    },
    {
      "inputs": [],
      "name": "stakeRegistry",
      "outputs": [
        {
          "internalType": "address",
          "name": "",
          "type": "address"
        }
      ],
      "stateMutability": "view",
      "type": "function"
    },
    {
      "inputs": [],
      "name": "startBlock",
      "outputs": [
        {
          "internalType": "uint256",
          "name": "",
          "type": "uint256"
        }
      ],
      "stateMutability": "view",
      "type": "function"
    },
    {
      "inputs": [],
      "name": "token",
      "outputs": [
        {
          "internalType": "address",
          "name": "",
          "type": "address"
        }
      ],
      "stateMutability": "view",
      "type": "function"
    },
    {
      "inputs": [],
      "name": "totalStakedAmount",
      "outputs": [
        {
          "internalType": "uint256",
          "name": "",
          "type": "uint256"
        }
      ],
      "stateMutability": "view",
      "type": "function"
    },
    {
      "inputs": [],
      "name": "totalStakers",
      "outputs": [
        {
          "internalType": "uint256",
          "name": "",
          "type": "uint256"
        }
      ],
      "stateMutability": "view",
      "type": "function"
    },
    {
      "inputs": [
        {
          "internalType": "address",
          "name": "",
          "type": "address"
        }
      ],
      "name": "userStaked",
      "outputs": [
        {
          "internalType": "uint256",
          "name": "amount",
          "type": "uint256"
        },
        {
          "internalType": "uint256",
          "name": "claimedBlock",
          "type": "uint256"
        },
        {
          "internalType": "uint256",
          "name": "claimedAmount",
          "type": "uint256"
        },
        {
          "internalType": "uint256",
          "name": "releasedBlock",
          "type": "uint256"
        },
        {
          "internalType": "uint256",
          "name": "releasedAmount",
          "type": "uint256"
        },
        {
          "internalType": "uint256",
          "name": "releasedFLDAmount",
          "type": "uint256"
        },
        {
          "internalType": "bool",
          "name": "released",
          "type": "bool"
        }
      ],
      "stateMutability": "view",
      "type": "function"
    },
    {
      "inputs": [],
      "name": "vault",
      "outputs": [
        {
          "internalType": "address",
          "name": "",
          "type": "address"
        }
      ],
      "stateMutability": "view",
      "type": "function"
    },
    {
      "inputs": [],
      "name": "yearnV2Vault",
      "outputs": [
        {
          "internalType": "address",
          "name": "",
          "type": "address"
        }
      ],
      "stateMutability": "view",
      "type": "function"
    },
    {
      "inputs": [
        {
          "internalType": "address",
          "name": "newOwner",
          "type": "address"
        }
      ],
      "name": "transferOwnership",
      "outputs": [],
      "stateMutability": "nonpayable",
      "type": "function"
    },
    {
      "inputs": [
        {
          "internalType": "address",
          "name": "_vault",
          "type": "address"
        }
      ],
      "name": "setYearnV2",
      "outputs": [],
      "stateMutability": "nonpayable",
      "type": "function"
    },
    {
      "inputs": [
        {
          "internalType": "uint256",
          "name": "amount",
          "type": "uint256"
        }
      ],
      "name": "approveYearnV2Vault",
      "outputs": [],
      "stateMutability": "nonpayable",
      "type": "function"
    },
    {
      "inputs": [],
      "name": "yearnV2_calcTotalValue",
      "outputs": [
        {
          "internalType": "uint256",
          "name": "underlyingAmount",
          "type": "uint256"
        }
      ],
      "stateMutability": "nonpayable",
      "type": "function"
    },
    {
      "inputs": [
        {
          "internalType": "uint256",
          "name": "amount",
          "type": "uint256"
        }
      ],
      "name": "yearnV2_deposit",
      "outputs": [],
      "stateMutability": "nonpayable",
      "type": "function"
    },
    {
      "inputs": [
        {
          "internalType": "uint256",
          "name": "amount",
          "type": "uint256"
        }
      ],
      "name": "yearnV2_withdraw",
      "outputs": [],
      "stateMutability": "nonpayable",
      "type": "function"
    },
    {
      "inputs": [],
      "name": "yearnV2_underlyingYield",
      "outputs": [
        {
          "internalType": "uint256",
          "name": "",
          "type": "uint256"
        }
      ],
      "stateMutability": "nonpayable",
      "type": "function"
    },
    {
      "inputs": [
        {
          "internalType": "address",
          "name": "user",
          "type": "address"
        }
      ],
      "name": "yearnV2_unclaimedProfit",
      "outputs": [
        {
          "internalType": "uint256",
          "name": "",
          "type": "uint256"
        }
      ],
      "stateMutability": "view",
      "type": "function"
    },
    {
      "inputs": [],
      "name": "yearnV2_claim",
      "outputs": [],
      "stateMutability": "nonpayable",
      "type": "function"
    }
  ],
  "bytecode": "0x608060405234801561001057600080fd5b50611432806100206000396000f3fe608060405234801561001057600080fd5b50600436106101da5760003560e01c80638698903811610104578063c7f0b455116100a2578063f17f327511610071578063f17f327514610486578063f2fde38b146104a3578063fbfa77cf146104c9578063fc0c546a146104d1576101da565b8063c7f0b45514610418578063ca15c87314610420578063d547741f1461043d578063e6d3bc6e14610469576101da565b8063a2095f29116100de578063a2095f29146103a0578063a217fddf146103a8578063acc3a939146103b0578063b2d4d6a314610410576101da565b806386989038146103355780639010d07c1461033d57806391d1485414610360576101da565b806343b0934a1161017c5780635c826abb1161014b5780635c826abb146102e257806368304835146102ff57806375b238fc1461030757806385fb34ce1461030f576101da565b806343b0934a1461028857806348cd4cb1146102ac578063501afa75146102b4578063567e98f9146102da576101da565b80632bf82903116101b85780632bf829031461021e5780632f2ff15d1461022657806336568abe146102545780633aadeaf814610280576101da565b8063083c6323146101df57806320027275146101f9578063248a9ca314610201575b600080fd5b6101e76104d9565b60408051918252519081900360200190f35b6101e76104df565b6101e76004803603602081101561021757600080fd5b50356104e5565b6101e76104fa565b6102526004803603604081101561023c57600080fd5b50803590602001356001600160a01b031661061d565b005b6102526004803603604081101561026a57600080fd5b50803590602001356001600160a01b0316610689565b6102526106ea565b6102906107f4565b604080516001600160a01b039092168252519081900360200190f35b6101e7610803565b6101e7600480360360208110156102ca57600080fd5b50356001600160a01b0316610809565b6101e761092a565b610252600480360360208110156102f857600080fd5b5035610930565b610290610a38565b6101e7610a47565b6102526004803603602081101561032557600080fd5b50356001600160a01b0316610a59565b6101e7610b6d565b6102906004803603604081101561035357600080fd5b5080359060200135610b73565b61038c6004803603604081101561037657600080fd5b50803590602001356001600160a01b0316610b94565b604080519115158252519081900360200190f35b610290610bac565b6101e7610bbb565b6103d6600480360360208110156103c657600080fd5b50356001600160a01b0316610bc0565b604080519788526020880196909652868601949094526060860192909252608085015260a0840152151560c0830152519081900360e00190f35b6101e7610c00565b6101e7610c06565b6101e76004803603602081101561043657600080fd5b5035610cf7565b6102526004803603604081101561045357600080fd5b50803590602001356001600160a01b0316610d0e565b6102526004803603602081101561047f57600080fd5b5035610d67565b6102526004803603602081101561049c57600080fd5b5035610e53565b610252600480360360208110156104b957600080fd5b50356001600160a01b0316610f2c565b61029061100d565b61029061101c565b60065481565b60045481565b6000908152600d602052604090206002015490565b600061051460008051602061138983398151915233610b94565b61054f5760405162461bcd60e51b81526004018080602001828103825260258152602001806113a96025913960400191505060405180910390fd5b600c546001600160a01b03168061059b576040805162461bcd60e51b815260206004820152601b6024820152600080516020611369833981519152604482015290519081900360640190fd5b600c60009054906101000a90046001600160a01b03166001600160a01b0316633d8bb5176040518163ffffffff1660e01b8152600401602060405180830381600087803b1580156105eb57600080fd5b505af11580156105ff573d6000803e3d6000fd5b505050506040513d602081101561061557600080fd5b505191505090565b6000828152600d60205260409020600201546106409061063b61102b565b610b94565b61067b5760405162461bcd60e51b815260040180806020018281038252602f81526020018061130a602f913960400191505060405180910390fd5b610685828261102f565b5050565b61069161102b565b6001600160a01b0316816001600160a01b0316146106e05760405162461bcd60e51b815260040180806020018281038252602f8152602001806113ce602f913960400191505060405180910390fd5b6106858282611098565b61070260008051602061138983398151915233610b94565b61073d5760405162461bcd60e51b81526004018080602001828103825260258152602001806113a96025913960400191505060405180910390fd5b600c546001600160a01b031680610789576040805162461bcd60e51b815260206004820152601b6024820152600080516020611369833981519152604482015290519081900360640190fd5b600c60009054906101000a90046001600160a01b03166001600160a01b0316634e71d92d6040518163ffffffff1660e01b8152600401600060405180830381600087803b1580156107d957600080fd5b505af11580156107ed573d6000803e3d6000fd5b5050505050565b6002546001600160a01b031681565b60055481565b600061082360008051602061138983398151915233610b94565b61085e5760405162461bcd60e51b81526004018080602001828103825260258152602001806113a96025913960400191505060405180910390fd5b600c546001600160a01b0316806108aa576040805162461bcd60e51b815260206004820152601b6024820152600080516020611369833981519152604482015290519081900360640190fd5b600c54604080516301678afb60e31b81526001600160a01b03868116600483015291519190921691630b3c57d8916024808301926020929190829003018186803b1580156108f757600080fd5b505afa15801561090b573d6000803e3d6000fd5b505050506040513d602081101561092157600080fd5b50519392505050565b60085481565b61094860008051602061138983398151915233610b94565b6109835760405162461bcd60e51b81526004018080602001828103825260258152602001806113a96025913960400191505060405180910390fd5b600c546001600160a01b0316806109cf576040805162461bcd60e51b815260206004820152601b6024820152600080516020611369833981519152604482015290519081900360640190fd5b600c5460408051632e1a7d4d60e01b81526004810185905290516001600160a01b0390921691632e1a7d4d9160248082019260009290919082900301818387803b158015610a1c57600080fd5b505af1158015610a30573d6000803e3d6000fd5b505050505050565b6001546001600160a01b031681565b60008051602061138983398151915281565b610a7160008051602061138983398151915233610b94565b610aac5760405162461bcd60e51b81526004018080602001828103825260258152602001806113a96025913960400191505060405180910390fd5b6004544310610b02576040805162461bcd60e51b815260206004820152601e60248201527f546f6b616d616b5374616b65723a20416c726561647920737461727465640000604482015290519081900360640190fd5b6001600160a01b038116610b4b576040805162461bcd60e51b815260206004820152601b6024820152600080516020611369833981519152604482015290519081900360640190fd5b600c80546001600160a01b0319166001600160a01b0392909216919091179055565b600a5481565b6000828152600d60205260408120610b8b9083611101565b90505b92915050565b6000828152600d60205260408120610b8b908361110d565b600c546001600160a01b031681565b600081565b6009602052600090815260409020805460018201546002830154600384015460048501546005860154600690960154949593949293919290919060ff1687565b60075481565b6000610c2060008051602061138983398151915233610b94565b610c5b5760405162461bcd60e51b81526004018080602001828103825260258152602001806113a96025913960400191505060405180910390fd5b600c546001600160a01b031680610ca7576040805162461bcd60e51b815260206004820152601b6024820152600080516020611369833981519152604482015290519081900360640190fd5b600c60009054906101000a90046001600160a01b03166001600160a01b031663a00251c66040518163ffffffff1660e01b8152600401602060405180830381600087803b1580156105eb57600080fd5b6000818152600d60205260408120610b8e90611122565b6000828152600d6020526040902060020154610d2c9061063b61102b565b6106e05760405162461bcd60e51b81526004018080602001828103825260308152602001806113396030913960400191505060405180910390fd5b610d7f60008051602061138983398151915233610b94565b610dba5760405162461bcd60e51b81526004018080602001828103825260258152602001806113a96025913960400191505060405180910390fd5b600c546001600160a01b031680610e06576040805162461bcd60e51b815260206004820152601b6024820152600080516020611369833981519152604482015290519081900360640190fd5b600c546040805163b6b55f2560e01b81526004810185905290516001600160a01b039092169163b6b55f259160248082019260009290919082900301818387803b158015610a1c57600080fd5b600254600c546040805163095ea7b360e01b81526001600160a01b039283166004820152602481018590529051919092169163095ea7b39160448083019260209291908290030181600087803b158015610eac57600080fd5b505af1158015610ec0573d6000803e3d6000fd5b505050506040513d6020811015610ed657600080fd5b5051610f29576040805162461bcd60e51b815260206004820152601b60248201527f596561726e56325374616b65723a20617070726f7665206661696c0000000000604482015290519081900360640190fd5b50565b610f4460008051602061138983398151915233610b94565b610f7f5760405162461bcd60e51b81526004018080602001828103825260258152602001806113a96025913960400191505060405180910390fd5b336001600160a01b0382161415610fdd576040805162461bcd60e51b815260206004820152601860248201527f596561726e56325374616b65723a73616d65206f776e65720000000000000000604482015290519081900360640190fd5b610ff56000805160206113898339815191528261061d565b610f2960008051602061138983398151915233610d0e565b6003546001600160a01b031681565b6000546001600160a01b031681565b3390565b6000828152600d60205260409020611047908261112d565b156106855761105461102b565b6001600160a01b0316816001600160a01b0316837f2f8788117e7eff1d82e926ec794901d17c78024a50270940304540a733656f0d60405160405180910390a45050565b6000828152600d602052604090206110b09082611142565b15610685576110bd61102b565b6001600160a01b0316816001600160a01b0316837ff6391f5c32d9c69d2a47ea670b442974b53935d1edc7fd64eb21e047a839171b60405160405180910390a45050565b6000610b8b8383611157565b6000610b8b836001600160a01b0384166111bb565b6000610b8e826111d3565b6000610b8b836001600160a01b0384166111d7565b6000610b8b836001600160a01b038416611221565b815460009082106111995760405162461bcd60e51b81526004018080602001828103825260228152602001806112e86022913960400191505060405180910390fd5b8260000182815481106111a857fe5b9060005260206000200154905092915050565b60009081526001919091016020526040902054151590565b5490565b60006111e383836111bb565b61121957508154600181810184556000848152602080822090930184905584548482528286019093526040902091909155610b8e565b506000610b8e565b600081815260018301602052604081205480156112dd578354600019808301919081019060009087908390811061125457fe5b906000526020600020015490508087600001848154811061127157fe5b6000918252602080832090910192909255828152600189810190925260409020908401905586548790806112a157fe5b60019003818190600052602060002001600090559055866001016000878152602001908152602001600020600090556001945050505050610b8e565b6000915050610b8e56fe456e756d657261626c655365743a20696e646578206f7574206f6620626f756e6473416363657373436f6e74726f6c3a2073656e646572206d75737420626520616e2061646d696e20746f206772616e74416363657373436f6e74726f6c3a2073656e646572206d75737420626520616e2061646d696e20746f207265766f6b65596561726e56325374616b65723a207a65726f20616464726573730000000000df8b4c520ffe197c5343c6f5aec59570151ef9a492f2c624fd45ddde6135ec42596561726e56325374616b65723a2043616c6c6572206973206e6f7420616e2061646d696e416363657373436f6e74726f6c3a2063616e206f6e6c792072656e6f756e636520726f6c657320666f722073656c66a264697066735822122089edb4b7ac63a063ea227d3e43f79a8b8ba87dcd1e90adbe18aaa966add9c48a64736f6c63430007060033",
  "immutableReferences": {},
  "source": "// SPDX-License-Identifier: MIT\npragma solidity ^0.7.6;\nimport {IERC20} from \"@openzeppelin/contracts/token/ERC20/IERC20.sol\";\nimport {IYearnV2Vault} from \"../interfaces/IYearnV2Vault.sol\";\n\nimport \"@openzeppelin/contracts/access/AccessControl.sol\";\n//import { ERC165 } from \"@openzeppelin/contracts/introspection/ERC165.sol\";\nimport \"../stake/StakeYearnStorage.sol\";\n\n/// @title The connector that integrates tokamak\ncontract YearnV2Staker is StakeYearnStorage, AccessControl {\n    bytes32 public constant ADMIN_ROLE = keccak256(\"ADMIN\");\n\n    modifier nonZero(address _addr) {\n        require(_addr != address(0), \"YearnV2Staker: zero address\");\n        _;\n    }\n\n    modifier onlyOwner() {\n        require(\n            hasRole(ADMIN_ROLE, msg.sender),\n            \"YearnV2Staker: Caller is not an admin\"\n        );\n        _;\n    }\n\n    function transferOwnership(address newOwner) external onlyOwner {\n        require(msg.sender != newOwner, \"YearnV2Staker:same owner\");\n        grantRole(ADMIN_ROLE, newOwner);\n        revokeRole(ADMIN_ROLE, msg.sender);\n    }\n\n    function setYearnV2(address _vault) external onlyOwner {\n        require(\n            block.number < saleStartBlock,\n            \"TokamakStaker: Already started\"\n        );\n        require(_vault != address(0), \"YearnV2Staker: zero address\");\n        yearnV2Vault = _vault;\n    }\n\n    function approveYearnV2Vault(uint256 amount) external {\n        require(\n            IERC20(paytoken).approve(yearnV2Vault, amount),\n            \"YearnV2Staker: approve fail\"\n        );\n    }\n\n    function yearnV2_calcTotalValue()\n        external\n        onlyOwner\n        nonZero(yearnV2Vault)\n        returns (uint256 underlyingAmount)\n    {\n        return IYearnV2Vault(yearnV2Vault).calcTotalValue();\n    }\n\n    function yearnV2_deposit(uint256 amount)\n        external\n        onlyOwner\n        nonZero(yearnV2Vault)\n    {\n        IYearnV2Vault(yearnV2Vault).deposit(amount);\n    }\n\n    function yearnV2_withdraw(uint256 amount)\n        external\n        onlyOwner\n        nonZero(yearnV2Vault)\n    {\n        IYearnV2Vault(yearnV2Vault).withdraw(amount);\n    }\n\n    function yearnV2_underlyingYield()\n        external\n        onlyOwner\n        nonZero(yearnV2Vault)\n        returns (uint256)\n    {\n        return IYearnV2Vault(yearnV2Vault).underlyingYield();\n    }\n\n    function yearnV2_unclaimedProfit(address user)\n        external\n        view\n        onlyOwner\n        nonZero(yearnV2Vault)\n        returns (uint256)\n    {\n        return IYearnV2Vault(yearnV2Vault).unclaimedProfit(user);\n    }\n\n    function yearnV2_claim() external onlyOwner nonZero(yearnV2Vault) {\n        IYearnV2Vault(yearnV2Vault).claim();\n    }\n}\n",
  "sourcePath": "/Users/zena/ico2.0/ico20-contracts/contracts/connection/YearnV2Staker.sol",
  "compiler": {
    "name": "solc",
    "version": "0.7.6+commit.7338295f.Emscripten.clang"
  },
  "schemaVersion": "3.3.4",
  "updatedAt": "2021-06-01T01:21:23.495Z",
  "devdoc": {
    "kind": "dev",
    "methods": {
      "getRoleAdmin(bytes32)": {
        "details": "Returns the admin role that controls `role`. See {grantRole} and {revokeRole}. To change a role's admin, use {_setRoleAdmin}."
      },
      "getRoleMember(bytes32,uint256)": {
        "details": "Returns one of the accounts that have `role`. `index` must be a value between 0 and {getRoleMemberCount}, non-inclusive. Role bearers are not sorted in any particular way, and their ordering may change at any point. WARNING: When using {getRoleMember} and {getRoleMemberCount}, make sure you perform all queries on the same block. See the following https://forum.openzeppelin.com/t/iterating-over-elements-on-enumerableset-in-openzeppelin-contracts/2296[forum post] for more information."
      },
      "getRoleMemberCount(bytes32)": {
        "details": "Returns the number of accounts that have `role`. Can be used together with {getRoleMember} to enumerate all bearers of a role."
      },
      "grantRole(bytes32,address)": {
        "details": "Grants `role` to `account`. If `account` had not been already granted `role`, emits a {RoleGranted} event. Requirements: - the caller must have ``role``'s admin role."
      },
      "hasRole(bytes32,address)": {
        "details": "Returns `true` if `account` has been granted `role`."
      },
      "renounceRole(bytes32,address)": {
        "details": "Revokes `role` from the calling account. Roles are often managed via {grantRole} and {revokeRole}: this function's purpose is to provide a mechanism for accounts to lose their privileges if they are compromised (such as when a trusted device is misplaced). If the calling account had been granted `role`, emits a {RoleRevoked} event. Requirements: - the caller must be `account`."
      },
      "revokeRole(bytes32,address)": {
        "details": "Revokes `role` from `account`. If `account` had been granted `role`, emits a {RoleRevoked} event. Requirements: - the caller must have ``role``'s admin role."
      }
    },
    "title": "The connector that integrates tokamak",
    "version": 1
  },
  "userdoc": {
    "kind": "user",
    "methods": {
      "endBlock()": {
        "notice": "the staking end block."
      },
      "paytoken()": {
        "notice": "paytoken is the token that the user stakes. ( if paytoken is ether, paytoken is address(0) )"
      },
      "rewardClaimedTotal()": {
        "notice": "the total amount claimed"
      },
      "saleStartBlock()": {
        "notice": "the start block for sale."
      },
      "stakeRegistry()": {
        "notice": "registry"
      },
      "startBlock()": {
        "notice": "the staking start block, once staking starts, users can no longer apply for staking."
      },
      "token()": {
        "notice": "reward token : FLD"
      },
      "totalStakedAmount()": {
        "notice": "the total staked amount"
      },
      "totalStakers()": {
        "notice": "total stakers"
      },
      "userStaked(address)": {
        "notice": "information staked by user"
      },
      "vault()": {
        "notice": "A vault that holds fld rewards."
      }
    },
    "version": 1
  }
}