{
  "contractName": "YearnV2Staker",
  "abi": [
    {
      "anonymous": false,
      "inputs": [
        {
          "indexed": true,
          "internalType": "bytes32",
          "name": "role",
          "type": "bytes32"
        },
        {
          "indexed": true,
          "internalType": "bytes32",
          "name": "previousAdminRole",
          "type": "bytes32"
        },
        {
          "indexed": true,
          "internalType": "bytes32",
          "name": "newAdminRole",
          "type": "bytes32"
        }
      ],
      "name": "RoleAdminChanged",
      "type": "event"
    },
    {
      "anonymous": false,
      "inputs": [
        {
          "indexed": true,
          "internalType": "bytes32",
          "name": "role",
          "type": "bytes32"
        },
        {
          "indexed": true,
          "internalType": "address",
          "name": "account",
          "type": "address"
        },
        {
          "indexed": true,
          "internalType": "address",
          "name": "sender",
          "type": "address"
        }
      ],
      "name": "RoleGranted",
      "type": "event"
    },
    {
      "anonymous": false,
      "inputs": [
        {
          "indexed": true,
          "internalType": "bytes32",
          "name": "role",
          "type": "bytes32"
        },
        {
          "indexed": true,
          "internalType": "address",
          "name": "account",
          "type": "address"
        },
        {
          "indexed": true,
          "internalType": "address",
          "name": "sender",
          "type": "address"
        }
      ],
      "name": "RoleRevoked",
      "type": "event"
    },
    {
      "inputs": [],
      "name": "ADMIN_ROLE",
      "outputs": [
        {
          "internalType": "bytes32",
          "name": "",
          "type": "bytes32"
        }
      ],
      "stateMutability": "view",
      "type": "function"
    },
    {
      "inputs": [],
      "name": "DEFAULT_ADMIN_ROLE",
      "outputs": [
        {
          "internalType": "bytes32",
          "name": "",
          "type": "bytes32"
        }
      ],
      "stateMutability": "view",
      "type": "function"
    },
    {
      "inputs": [],
      "name": "endBlock",
      "outputs": [
        {
          "internalType": "uint256",
          "name": "",
          "type": "uint256"
        }
      ],
      "stateMutability": "view",
      "type": "function"
    },
    {
      "inputs": [
        {
          "internalType": "bytes32",
          "name": "role",
          "type": "bytes32"
        }
      ],
      "name": "getRoleAdmin",
      "outputs": [
        {
          "internalType": "bytes32",
          "name": "",
          "type": "bytes32"
        }
      ],
      "stateMutability": "view",
      "type": "function"
    },
    {
      "inputs": [
        {
          "internalType": "bytes32",
          "name": "role",
          "type": "bytes32"
        },
        {
          "internalType": "uint256",
          "name": "index",
          "type": "uint256"
        }
      ],
      "name": "getRoleMember",
      "outputs": [
        {
          "internalType": "address",
          "name": "",
          "type": "address"
        }
      ],
      "stateMutability": "view",
      "type": "function"
    },
    {
      "inputs": [
        {
          "internalType": "bytes32",
          "name": "role",
          "type": "bytes32"
        }
      ],
      "name": "getRoleMemberCount",
      "outputs": [
        {
          "internalType": "uint256",
          "name": "",
          "type": "uint256"
        }
      ],
      "stateMutability": "view",
      "type": "function"
    },
    {
      "inputs": [
        {
          "internalType": "bytes32",
          "name": "role",
          "type": "bytes32"
        },
        {
          "internalType": "address",
          "name": "account",
          "type": "address"
        }
      ],
      "name": "grantRole",
      "outputs": [],
      "stateMutability": "nonpayable",
      "type": "function"
    },
    {
      "inputs": [
        {
          "internalType": "bytes32",
          "name": "role",
          "type": "bytes32"
        },
        {
          "internalType": "address",
          "name": "account",
          "type": "address"
        }
      ],
      "name": "hasRole",
      "outputs": [
        {
          "internalType": "bool",
          "name": "",
          "type": "bool"
        }
      ],
      "stateMutability": "view",
      "type": "function"
    },
    {
      "inputs": [],
      "name": "paytoken",
      "outputs": [
        {
          "internalType": "address",
          "name": "",
          "type": "address"
        }
      ],
      "stateMutability": "view",
      "type": "function"
    },
    {
      "inputs": [
        {
          "internalType": "bytes32",
          "name": "role",
          "type": "bytes32"
        },
        {
          "internalType": "address",
          "name": "account",
          "type": "address"
        }
      ],
      "name": "renounceRole",
      "outputs": [],
      "stateMutability": "nonpayable",
      "type": "function"
    },
    {
      "inputs": [
        {
          "internalType": "bytes32",
          "name": "role",
          "type": "bytes32"
        },
        {
          "internalType": "address",
          "name": "account",
          "type": "address"
        }
      ],
      "name": "revokeRole",
      "outputs": [],
      "stateMutability": "nonpayable",
      "type": "function"
    },
    {
      "inputs": [],
      "name": "rewardClaimedTotal",
      "outputs": [
        {
          "internalType": "uint256",
          "name": "",
          "type": "uint256"
        }
      ],
      "stateMutability": "view",
      "type": "function"
    },
    {
      "inputs": [],
      "name": "saleStartBlock",
      "outputs": [
        {
          "internalType": "uint256",
          "name": "",
          "type": "uint256"
        }
      ],
      "stateMutability": "view",
      "type": "function"
    },
    {
      "inputs": [],
      "name": "startBlock",
      "outputs": [
        {
          "internalType": "uint256",
          "name": "",
          "type": "uint256"
        }
      ],
      "stateMutability": "view",
      "type": "function"
    },
    {
      "inputs": [],
      "name": "token",
      "outputs": [
        {
          "internalType": "address",
          "name": "",
          "type": "address"
        }
      ],
      "stateMutability": "view",
      "type": "function"
    },
    {
      "inputs": [],
      "name": "totalStakedAmount",
      "outputs": [
        {
          "internalType": "uint256",
          "name": "",
          "type": "uint256"
        }
      ],
      "stateMutability": "view",
      "type": "function"
    },
    {
      "inputs": [
        {
          "internalType": "address",
          "name": "",
          "type": "address"
        }
      ],
      "name": "userStaked",
      "outputs": [
        {
          "internalType": "uint256",
          "name": "amount",
          "type": "uint256"
        },
        {
          "internalType": "uint256",
          "name": "claimedBlock",
          "type": "uint256"
        },
        {
          "internalType": "uint256",
          "name": "claimedAmount",
          "type": "uint256"
        },
        {
          "internalType": "uint256",
          "name": "releasedBlock",
          "type": "uint256"
        },
        {
          "internalType": "uint256",
          "name": "releasedAmount",
          "type": "uint256"
        },
        {
          "internalType": "bool",
          "name": "released",
          "type": "bool"
        }
      ],
      "stateMutability": "view",
      "type": "function"
    },
    {
      "inputs": [],
      "name": "vault",
      "outputs": [
        {
          "internalType": "address",
          "name": "",
          "type": "address"
        }
      ],
      "stateMutability": "view",
      "type": "function"
    },
    {
      "inputs": [
        {
          "internalType": "address",
          "name": "_vault",
          "type": "address"
        }
      ],
      "name": "setYearnV2",
      "outputs": [],
      "stateMutability": "nonpayable",
      "type": "function"
    },
    {
      "inputs": [
        {
          "internalType": "uint256",
          "name": "amount",
          "type": "uint256"
        }
      ],
      "name": "approveYearnV2Vault",
      "outputs": [],
      "stateMutability": "nonpayable",
      "type": "function"
    },
    {
      "inputs": [],
      "name": "yearnV2Vault",
      "outputs": [
        {
          "internalType": "address",
          "name": "",
          "type": "address"
        }
      ],
      "stateMutability": "view",
      "type": "function"
    }
  ],
  "bytecode": "0x608060405234801561001057600080fd5b50610ba1806100206000396000f3fe608060405234801561001057600080fd5b50600436106101375760003560e01c80639010d07c116100b8578063b2d4d6a31161007c578063b2d4d6a314610305578063ca15c8731461030d578063d547741f1461032a578063f17f327514610356578063fbfa77cf14610373578063fc0c546a1461037b57610137565b80639010d07c1461023757806391d148541461025a578063a2095f291461029a578063a217fddf146102a2578063acc3a939146102aa57610137565b806343b0934a116100ff57806343b0934a146101d557806348cd4cb1146101f9578063567e98f91461020157806375b238fc1461020957806385fb34ce1461021157610137565b8063083c63231461013c5780632002727514610156578063248a9ca31461015e5780632f2ff15d1461017b57806336568abe146101a9575b600080fd5b610144610383565b60408051918252519081900360200190f35b610144610389565b6101446004803603602081101561017457600080fd5b503561038f565b6101a76004803603604081101561019157600080fd5b50803590602001356001600160a01b03166103a4565b005b6101a7600480360360408110156101bf57600080fd5b50803590602001356001600160a01b0316610410565b6101dd610471565b604080516001600160a01b039092168252519081900360200190f35b610144610480565b610144610486565b61014461048c565b6101a76004803603602081101561022757600080fd5b50356001600160a01b03166104b0565b6101dd6004803603604081101561024d57600080fd5b50803590602001356105e8565b6102866004803603604081101561027057600080fd5b50803590602001356001600160a01b0316610609565b604080519115158252519081900360200190f35b6101dd610621565b610144610630565b6102d0600480360360208110156102c057600080fd5b50356001600160a01b0316610635565b6040805196875260208701959095528585019390935260608501919091526080840152151560a0830152519081900360c00190f35b61014461066d565b6101446004803603602081101561032357600080fd5b5035610673565b6101a76004803603604081101561034057600080fd5b50803590602001356001600160a01b031661068a565b6101a76004803603602081101561036c57600080fd5b50356106e3565b6101dd6107bc565b6101dd6107cb565b60055481565b60035481565b6000908152600a602052604090206002015490565b6000828152600a60205260409020600201546103c7906103c26107da565b610609565b6104025760405162461bcd60e51b815260040180806020018281038252602f815260200180610ab9602f913960400191505060405180910390fd5b61040c82826107de565b5050565b6104186107da565b6001600160a01b0316816001600160a01b0316146104675760405162461bcd60e51b815260040180806020018281038252602f815260200180610b3d602f913960400191505060405180910390fd5b61040c8282610847565b6001546001600160a01b031681565b60045481565b60075481565b7fdf8b4c520ffe197c5343c6f5aec59570151ef9a492f2c624fd45ddde6135ec4281565b6104da7fdf8b4c520ffe197c5343c6f5aec59570151ef9a492f2c624fd45ddde6135ec4233610609565b6105155760405162461bcd60e51b8152600401808060200182810382526025815260200180610b186025913960400191505060405180910390fd5b600354431061056b576040805162461bcd60e51b815260206004820152601e60248201527f546f6b616d616b5374616b65723a20416c726561647920737461727465640000604482015290519081900360640190fd5b6001600160a01b0381166105c6576040805162461bcd60e51b815260206004820152601b60248201527f596561726e56325374616b65723a207a65726f20616464726573730000000000604482015290519081900360640190fd5b600b80546001600160a01b0319166001600160a01b0392909216919091179055565b6000828152600a6020526040812061060090836108b0565b90505b92915050565b6000828152600a6020526040812061060090836108bc565b600b546001600160a01b031690565b600081565b600860205260009081526040902080546001820154600283015460038401546004850154600590950154939492939192909160ff1686565b60065481565b6000818152600a60205260408120610603906108d1565b6000828152600a60205260409020600201546106a8906103c26107da565b6104675760405162461bcd60e51b8152600401808060200182810382526030815260200180610ae86030913960400191505060405180910390fd5b600154600b546040805163095ea7b360e01b81526001600160a01b039283166004820152602481018590529051919092169163095ea7b39160448083019260209291908290030181600087803b15801561073c57600080fd5b505af1158015610750573d6000803e3d6000fd5b505050506040513d602081101561076657600080fd5b50516107b9576040805162461bcd60e51b815260206004820152601b60248201527f596561726e56325374616b65723a20617070726f7665206661696c0000000000604482015290519081900360640190fd5b50565b6002546001600160a01b031681565b6000546001600160a01b031681565b3390565b6000828152600a602052604090206107f690826108dc565b1561040c576108036107da565b6001600160a01b0316816001600160a01b0316837f2f8788117e7eff1d82e926ec794901d17c78024a50270940304540a733656f0d60405160405180910390a45050565b6000828152600a6020526040902061085f90826108f1565b1561040c5761086c6107da565b6001600160a01b0316816001600160a01b0316837ff6391f5c32d9c69d2a47ea670b442974b53935d1edc7fd64eb21e047a839171b60405160405180910390a45050565b60006106008383610906565b6000610600836001600160a01b03841661096a565b600061060382610982565b6000610600836001600160a01b038416610986565b6000610600836001600160a01b0384166109d0565b815460009082106109485760405162461bcd60e51b8152600401808060200182810382526022815260200180610a976022913960400191505060405180910390fd5b82600001828154811061095757fe5b9060005260206000200154905092915050565b60009081526001919091016020526040902054151590565b5490565b6000610992838361096a565b6109c857508154600181810184556000848152602080822090930184905584548482528286019093526040902091909155610603565b506000610603565b60008181526001830160205260408120548015610a8c5783546000198083019190810190600090879083908110610a0357fe5b9060005260206000200154905080876000018481548110610a2057fe5b600091825260208083209091019290925582815260018981019092526040902090840190558654879080610a5057fe5b60019003818190600052602060002001600090559055866001016000878152602001908152602001600020600090556001945050505050610603565b600091505061060356fe456e756d657261626c655365743a20696e646578206f7574206f6620626f756e6473416363657373436f6e74726f6c3a2073656e646572206d75737420626520616e2061646d696e20746f206772616e74416363657373436f6e74726f6c3a2073656e646572206d75737420626520616e2061646d696e20746f207265766f6b65596561726e56325374616b65723a2043616c6c6572206973206e6f7420616e2061646d696e416363657373436f6e74726f6c3a2063616e206f6e6c792072656e6f756e636520726f6c657320666f722073656c66a26469706673582212203712f3e3fc5fcfdd30398926a81dcdccba27657e5ada1724387e874fdb2e782c64736f6c63430007060033",
  "immutableReferences": {},
  "source": "// SPDX-License-Identifier: MIT\npragma solidity ^0.7.6;\nimport {IERC20} from \"@openzeppelin/contracts/token/ERC20/IERC20.sol\";\n// import {IYearnV2Vault} from \"../interfaces/IYearnV2Vault.sol\";\n\nimport \"@openzeppelin/contracts/access/AccessControl.sol\";\n//import { ERC165 } from \"@openzeppelin/contracts/introspection/ERC165.sol\";\nimport \"../stake/Stake1Storage.sol\";\n\n/// @title The connector that integrates zkopru and tokamak\ncontract YearnV2Staker is Stake1Storage, AccessControl {\n    address internal _yearnV2Vault;\n\n    bytes32 public constant ADMIN_ROLE = keccak256(\"ADMIN\");\n\n    modifier nonZero(address _addr) {\n        require(_addr != address(0), \"YearnV2Staker: zero address\");\n        _;\n    }\n\n    modifier onlyOwner() {\n        require(\n            hasRole(ADMIN_ROLE, msg.sender),\n            \"YearnV2Staker: Caller is not an admin\"\n        );\n        _;\n    }\n\n    function setYearnV2(address _vault) external onlyOwner {\n        require(block.number < saleStartBlock, \"TokamakStaker: Already started\");\n        require(_vault != address(0), \"YearnV2Staker: zero address\");\n        _yearnV2Vault = _vault;\n    }\n\n    function approveYearnV2Vault\n    (\n        uint256 amount\n    ) external {\n        require(IERC20(paytoken).approve(_yearnV2Vault, amount), \"YearnV2Staker: approve fail\");\n    }\n\n    function yearnV2Vault() public view returns (address) {\n        return _yearnV2Vault;\n    }\n\n    /*\n    function yearnV2_calcTotalValue()\n        external\n        onlyOwner\n        nonZero(yearnV2Vault)\n        returns (uint256 underlyingAmount)\n    {\n        return IYearnV2Vault(yearnV2Vault).calcTotalValue();\n    }\n\n    function yearnV2_deposit(uint256 amount)\n        external\n        onlyOwner\n        nonZero(yearnV2Vault)\n    {\n        IYearnV2Vault(yearnV2Vault).deposit(amount);\n    }\n\n    function yearnV2_withdraw(uint256 amount)\n        external\n        onlyOwner\n        nonZero(yearnV2Vault)\n    {\n        IYearnV2Vault(yearnV2Vault).withdraw(amount);\n    }\n\n    function yearnV2_underlyingYield()\n        external\n        onlyOwner\n        nonZero(yearnV2Vault)\n        returns (uint256)\n    {\n        return IYearnV2Vault(yearnV2Vault).underlyingYield();\n    }\n\n    function yearnV2_unclaimedProfit(address user)\n        external\n        view\n        onlyOwner\n        nonZero(yearnV2Vault)\n        returns (uint256)\n    {\n        return IYearnV2Vault(yearnV2Vault).unclaimedProfit(user);\n    }\n\n    function yearnV2_claim() external onlyOwner nonZero(yearnV2Vault) {\n        IYearnV2Vault(yearnV2Vault).claim();\n    }\n    */\n}\n",
  "sourcePath": "/Users/kadyrbeknarmamatov/code/ico20-contracts/contracts/connection/YearnV2Staker.sol",
  "compiler": {
    "name": "solc",
    "version": "0.7.6+commit.7338295f.Emscripten.clang"
  },
  "schemaVersion": "3.4.0",
  "updatedAt": "2021-05-11T06:57:40.482Z",
  "devdoc": {
    "kind": "dev",
    "methods": {
      "getRoleAdmin(bytes32)": {
        "details": "Returns the admin role that controls `role`. See {grantRole} and {revokeRole}. To change a role's admin, use {_setRoleAdmin}."
      },
      "getRoleMember(bytes32,uint256)": {
        "details": "Returns one of the accounts that have `role`. `index` must be a value between 0 and {getRoleMemberCount}, non-inclusive. Role bearers are not sorted in any particular way, and their ordering may change at any point. WARNING: When using {getRoleMember} and {getRoleMemberCount}, make sure you perform all queries on the same block. See the following https://forum.openzeppelin.com/t/iterating-over-elements-on-enumerableset-in-openzeppelin-contracts/2296[forum post] for more information."
      },
      "getRoleMemberCount(bytes32)": {
        "details": "Returns the number of accounts that have `role`. Can be used together with {getRoleMember} to enumerate all bearers of a role."
      },
      "grantRole(bytes32,address)": {
        "details": "Grants `role` to `account`. If `account` had not been already granted `role`, emits a {RoleGranted} event. Requirements: - the caller must have ``role``'s admin role."
      },
      "hasRole(bytes32,address)": {
        "details": "Returns `true` if `account` has been granted `role`."
      },
      "renounceRole(bytes32,address)": {
        "details": "Revokes `role` from the calling account. Roles are often managed via {grantRole} and {revokeRole}: this function's purpose is to provide a mechanism for accounts to lose their privileges if they are compromised (such as when a trusted device is misplaced). If the calling account had been granted `role`, emits a {RoleRevoked} event. Requirements: - the caller must be `account`."
      },
      "revokeRole(bytes32,address)": {
        "details": "Revokes `role` from `account`. If `account` had been granted `role`, emits a {RoleRevoked} event. Requirements: - the caller must have ``role``'s admin role."
      }
    },
    "title": "The connector that integrates zkopru and tokamak",
    "version": 1
  },
  "userdoc": {
    "kind": "user",
    "methods": {},
    "version": 1
  }
}