{
  "contractName": "YearnV2Staker",
  "abi": [
    {
      "anonymous": false,
      "inputs": [
        {
          "indexed": true,
          "internalType": "bytes32",
          "name": "role",
          "type": "bytes32"
        },
        {
          "indexed": true,
          "internalType": "bytes32",
          "name": "previousAdminRole",
          "type": "bytes32"
        },
        {
          "indexed": true,
          "internalType": "bytes32",
          "name": "newAdminRole",
          "type": "bytes32"
        }
      ],
      "name": "RoleAdminChanged",
      "type": "event"
    },
    {
      "anonymous": false,
      "inputs": [
        {
          "indexed": true,
          "internalType": "bytes32",
          "name": "role",
          "type": "bytes32"
        },
        {
          "indexed": true,
          "internalType": "address",
          "name": "account",
          "type": "address"
        },
        {
          "indexed": true,
          "internalType": "address",
          "name": "sender",
          "type": "address"
        }
      ],
      "name": "RoleGranted",
      "type": "event"
    },
    {
      "anonymous": false,
      "inputs": [
        {
          "indexed": true,
          "internalType": "bytes32",
          "name": "role",
          "type": "bytes32"
        },
        {
          "indexed": true,
          "internalType": "address",
          "name": "account",
          "type": "address"
        },
        {
          "indexed": true,
          "internalType": "address",
          "name": "sender",
          "type": "address"
        }
      ],
      "name": "RoleRevoked",
      "type": "event"
    },
    {
      "inputs": [],
      "name": "ADMIN_ROLE",
      "outputs": [
        {
          "internalType": "bytes32",
          "name": "",
          "type": "bytes32"
        }
      ],
      "stateMutability": "view",
      "type": "function"
    },
    {
      "inputs": [],
      "name": "DEFAULT_ADMIN_ROLE",
      "outputs": [
        {
          "internalType": "bytes32",
          "name": "",
          "type": "bytes32"
        }
      ],
      "stateMutability": "view",
      "type": "function"
    },
    {
      "inputs": [],
      "name": "endBlock",
      "outputs": [
        {
          "internalType": "uint256",
          "name": "",
          "type": "uint256"
        }
      ],
      "stateMutability": "view",
      "type": "function"
    },
    {
      "inputs": [
        {
          "internalType": "bytes32",
          "name": "role",
          "type": "bytes32"
        }
      ],
      "name": "getRoleAdmin",
      "outputs": [
        {
          "internalType": "bytes32",
          "name": "",
          "type": "bytes32"
        }
      ],
      "stateMutability": "view",
      "type": "function"
    },
    {
      "inputs": [
        {
          "internalType": "bytes32",
          "name": "role",
          "type": "bytes32"
        },
        {
          "internalType": "uint256",
          "name": "index",
          "type": "uint256"
        }
      ],
      "name": "getRoleMember",
      "outputs": [
        {
          "internalType": "address",
          "name": "",
          "type": "address"
        }
      ],
      "stateMutability": "view",
      "type": "function"
    },
    {
      "inputs": [
        {
          "internalType": "bytes32",
          "name": "role",
          "type": "bytes32"
        }
      ],
      "name": "getRoleMemberCount",
      "outputs": [
        {
          "internalType": "uint256",
          "name": "",
          "type": "uint256"
        }
      ],
      "stateMutability": "view",
      "type": "function"
    },
    {
      "inputs": [
        {
          "internalType": "bytes32",
          "name": "role",
          "type": "bytes32"
        },
        {
          "internalType": "address",
          "name": "account",
          "type": "address"
        }
      ],
      "name": "grantRole",
      "outputs": [],
      "stateMutability": "nonpayable",
      "type": "function"
    },
    {
      "inputs": [
        {
          "internalType": "bytes32",
          "name": "role",
          "type": "bytes32"
        },
        {
          "internalType": "address",
          "name": "account",
          "type": "address"
        }
      ],
      "name": "hasRole",
      "outputs": [
        {
          "internalType": "bool",
          "name": "",
          "type": "bool"
        }
      ],
      "stateMutability": "view",
      "type": "function"
    },
    {
      "inputs": [],
      "name": "paytoken",
      "outputs": [
        {
          "internalType": "address",
          "name": "",
          "type": "address"
        }
      ],
      "stateMutability": "view",
      "type": "function"
    },
    {
      "inputs": [
        {
          "internalType": "bytes32",
          "name": "role",
          "type": "bytes32"
        },
        {
          "internalType": "address",
          "name": "account",
          "type": "address"
        }
      ],
      "name": "renounceRole",
      "outputs": [],
      "stateMutability": "nonpayable",
      "type": "function"
    },
    {
      "inputs": [
        {
          "internalType": "bytes32",
          "name": "role",
          "type": "bytes32"
        },
        {
          "internalType": "address",
          "name": "account",
          "type": "address"
        }
      ],
      "name": "revokeRole",
      "outputs": [],
      "stateMutability": "nonpayable",
      "type": "function"
    },
    {
      "inputs": [],
      "name": "rewardClaimedTotal",
      "outputs": [
        {
          "internalType": "uint256",
          "name": "",
          "type": "uint256"
        }
      ],
      "stateMutability": "view",
      "type": "function"
    },
    {
      "inputs": [],
      "name": "saleStartBlock",
      "outputs": [
        {
          "internalType": "uint256",
          "name": "",
          "type": "uint256"
        }
      ],
      "stateMutability": "view",
      "type": "function"
    },
    {
      "inputs": [],
      "name": "startBlock",
      "outputs": [
        {
          "internalType": "uint256",
          "name": "",
          "type": "uint256"
        }
      ],
      "stateMutability": "view",
      "type": "function"
    },
    {
      "inputs": [],
      "name": "token",
      "outputs": [
        {
          "internalType": "address",
          "name": "",
          "type": "address"
        }
      ],
      "stateMutability": "view",
      "type": "function"
    },
    {
      "inputs": [],
      "name": "totalStakedAmount",
      "outputs": [
        {
          "internalType": "uint256",
          "name": "",
          "type": "uint256"
        }
      ],
      "stateMutability": "view",
      "type": "function"
    },
    {
      "inputs": [
        {
          "internalType": "address",
          "name": "",
          "type": "address"
        },
        {
          "internalType": "address",
          "name": "",
          "type": "address"
        }
      ],
      "name": "userProfitWithdrawalAmount",
      "outputs": [
        {
          "internalType": "uint256",
          "name": "",
          "type": "uint256"
        }
      ],
      "stateMutability": "view",
      "type": "function"
    },
    {
      "inputs": [
        {
          "internalType": "address",
          "name": "",
          "type": "address"
        },
        {
          "internalType": "address",
          "name": "",
          "type": "address"
        }
      ],
      "name": "userProfitWithdrawalIndex",
      "outputs": [
        {
          "internalType": "uint256",
          "name": "",
          "type": "uint256"
        }
      ],
      "stateMutability": "view",
      "type": "function"
    },
    {
      "inputs": [
        {
          "internalType": "address",
          "name": "",
          "type": "address"
        }
      ],
      "name": "userStaked",
      "outputs": [
        {
          "internalType": "uint256",
          "name": "amount",
          "type": "uint256"
        },
        {
          "internalType": "uint256",
          "name": "claimedBlock",
          "type": "uint256"
        },
        {
          "internalType": "uint256",
          "name": "claimedAmount",
          "type": "uint256"
        },
        {
          "internalType": "uint256",
          "name": "releasedBlock",
          "type": "uint256"
        },
        {
          "internalType": "uint256",
          "name": "releasedAmount",
          "type": "uint256"
        },
        {
          "internalType": "bool",
          "name": "released",
          "type": "bool"
        }
      ],
      "stateMutability": "view",
      "type": "function"
    },
    {
      "inputs": [],
      "name": "vault",
      "outputs": [
        {
          "internalType": "address",
          "name": "",
          "type": "address"
        }
      ],
      "stateMutability": "view",
      "type": "function"
    },
    {
      "inputs": [],
      "name": "yearnV2Vault",
      "outputs": [
        {
          "internalType": "address",
          "name": "",
          "type": "address"
        }
      ],
      "stateMutability": "view",
      "type": "function"
    },
    {
      "inputs": [
        {
          "internalType": "address",
          "name": "_vault",
          "type": "address"
        }
      ],
      "name": "setYearnV2",
      "outputs": [],
      "stateMutability": "nonpayable",
      "type": "function"
    },
    {
      "inputs": [
        {
          "internalType": "uint256",
          "name": "amount",
          "type": "uint256"
        }
      ],
      "name": "approveYearnV2Vault",
      "outputs": [],
      "stateMutability": "nonpayable",
      "type": "function"
    },
    {
      "inputs": [],
      "name": "yearnV2_calcTotalValue",
      "outputs": [
        {
          "internalType": "uint256",
          "name": "underlyingAmount",
          "type": "uint256"
        }
      ],
      "stateMutability": "nonpayable",
      "type": "function"
    },
    {
      "inputs": [
        {
          "internalType": "uint256",
          "name": "amount",
          "type": "uint256"
        }
      ],
      "name": "yearnV2_deposit",
      "outputs": [],
      "stateMutability": "nonpayable",
      "type": "function"
    },
    {
      "inputs": [
        {
          "internalType": "uint256",
          "name": "amount",
          "type": "uint256"
        }
      ],
      "name": "yearnV2_withdraw",
      "outputs": [],
      "stateMutability": "nonpayable",
      "type": "function"
    },
    {
      "inputs": [],
      "name": "yearnV2_underlyingYield",
      "outputs": [
        {
          "internalType": "uint256",
          "name": "",
          "type": "uint256"
        }
      ],
      "stateMutability": "nonpayable",
      "type": "function"
    },
    {
      "inputs": [
        {
          "internalType": "address",
          "name": "user",
          "type": "address"
        }
      ],
      "name": "yearnV2_unclaimedProfit",
      "outputs": [
        {
          "internalType": "uint256",
          "name": "",
          "type": "uint256"
        }
      ],
      "stateMutability": "view",
      "type": "function"
    },
    {
      "inputs": [],
      "name": "yearnV2_claim",
      "outputs": [],
      "stateMutability": "nonpayable",
      "type": "function"
    }
  ],
  "bytecode": "0x608060405234801561001057600080fd5b50611384806100206000396000f3fe608060405234801561001057600080fd5b50600436106101cf5760003560e01c80639010d07c11610104578063c7f0b455116100a2578063e6d3bc6e11610071578063e6d3bc6e146104a5578063f17f3275146104c2578063fbfa77cf146104df578063fc0c546a146104e7576101cf565b8063c7f0b45514610426578063ca15c8731461042e578063cdb25fe31461044b578063d547741f14610479576101cf565b8063a217fddf116100de578063a217fddf1461038d578063acc3a93914610395578063b2d4d6a3146103f0578063bab4b20f146103f8576101cf565b80639010d07c1461032257806391d1485414610345578063a2095f2914610385576101cf565b806343b0934a11610171578063567e98f91161014b578063567e98f9146102cf5780635c826abb146102d757806375b238fc146102f457806385fb34ce146102fc576101cf565b806343b0934a1461027d57806348cd4cb1146102a1578063501afa75146102a9576101cf565b80632bf82903116101ad5780632bf82903146102135780632f2ff15d1461021b57806336568abe146102495780633aadeaf814610275576101cf565b8063083c6323146101d457806320027275146101ee578063248a9ca3146101f6575b600080fd5b6101dc6104ef565b60408051918252519081900360200190f35b6101dc6104f5565b6101dc6004803603602081101561020c57600080fd5b50356104fb565b6101dc610510565b6102476004803603604081101561023157600080fd5b50803590602001356001600160a01b0316610633565b005b6102476004803603604081101561025f57600080fd5b50803590602001356001600160a01b031661069f565b610247610700565b61028561080a565b604080516001600160a01b039092168252519081900360200190f35b6101dc610819565b6101dc600480360360208110156102bf57600080fd5b50356001600160a01b031661081f565b6101dc610940565b610247600480360360208110156102ed57600080fd5b5035610946565b6101dc610a4e565b6102476004803603602081101561031257600080fd5b50356001600160a01b0316610a60565b6102856004803603604081101561033857600080fd5b5080359060200135610b74565b6103716004803603604081101561035b57600080fd5b50803590602001356001600160a01b0316610b95565b604080519115158252519081900360200190f35b610285610bad565b6101dc610bbc565b6103bb600480360360208110156103ab57600080fd5b50356001600160a01b0316610bc1565b6040805196875260208701959095528585019390935260608501919091526080840152151560a0830152519081900360c00190f35b6101dc610bf9565b6101dc6004803603604081101561040e57600080fd5b506001600160a01b0381358116916020013516610bff565b6101dc610c1c565b6101dc6004803603602081101561044457600080fd5b5035610d0d565b6101dc6004803603604081101561046157600080fd5b506001600160a01b0381358116916020013516610d24565b6102476004803603604081101561048f57600080fd5b50803590602001356001600160a01b0316610d41565b610247600480360360208110156104bb57600080fd5b5035610d9a565b610247600480360360208110156104d857600080fd5b5035610e86565b610285610f5f565b610285610f6e565b60055481565b60035481565b6000908152600f602052604090206002015490565b600061052a6000805160206112db83398151915233610b95565b6105655760405162461bcd60e51b81526004018080602001828103825260258152602001806112fb6025913960400191505060405180910390fd5b600e546001600160a01b0316806105b1576040805162461bcd60e51b815260206004820152601b60248201526000805160206112bb833981519152604482015290519081900360640190fd5b600e60009054906101000a90046001600160a01b03166001600160a01b0316633d8bb5176040518163ffffffff1660e01b8152600401602060405180830381600087803b15801561060157600080fd5b505af1158015610615573d6000803e3d6000fd5b505050506040513d602081101561062b57600080fd5b505191505090565b6000828152600f602052604090206002015461065690610651610f7d565b610b95565b6106915760405162461bcd60e51b815260040180806020018281038252602f81526020018061125c602f913960400191505060405180910390fd5b61069b8282610f81565b5050565b6106a7610f7d565b6001600160a01b0316816001600160a01b0316146106f65760405162461bcd60e51b815260040180806020018281038252602f815260200180611320602f913960400191505060405180910390fd5b61069b8282610fea565b6107186000805160206112db83398151915233610b95565b6107535760405162461bcd60e51b81526004018080602001828103825260258152602001806112fb6025913960400191505060405180910390fd5b600e546001600160a01b03168061079f576040805162461bcd60e51b815260206004820152601b60248201526000805160206112bb833981519152604482015290519081900360640190fd5b600e60009054906101000a90046001600160a01b03166001600160a01b0316634e71d92d6040518163ffffffff1660e01b8152600401600060405180830381600087803b1580156107ef57600080fd5b505af1158015610803573d6000803e3d6000fd5b5050505050565b6001546001600160a01b031681565b60045481565b60006108396000805160206112db83398151915233610b95565b6108745760405162461bcd60e51b81526004018080602001828103825260258152602001806112fb6025913960400191505060405180910390fd5b600e546001600160a01b0316806108c0576040805162461bcd60e51b815260206004820152601b60248201526000805160206112bb833981519152604482015290519081900360640190fd5b600e54604080516301678afb60e31b81526001600160a01b03868116600483015291519190921691630b3c57d8916024808301926020929190829003018186803b15801561090d57600080fd5b505afa158015610921573d6000803e3d6000fd5b505050506040513d602081101561093757600080fd5b50519392505050565b60075481565b61095e6000805160206112db83398151915233610b95565b6109995760405162461bcd60e51b81526004018080602001828103825260258152602001806112fb6025913960400191505060405180910390fd5b600e546001600160a01b0316806109e5576040805162461bcd60e51b815260206004820152601b60248201526000805160206112bb833981519152604482015290519081900360640190fd5b600e5460408051632e1a7d4d60e01b81526004810185905290516001600160a01b0390921691632e1a7d4d9160248082019260009290919082900301818387803b158015610a3257600080fd5b505af1158015610a46573d6000803e3d6000fd5b505050505050565b6000805160206112db83398151915281565b610a786000805160206112db83398151915233610b95565b610ab35760405162461bcd60e51b81526004018080602001828103825260258152602001806112fb6025913960400191505060405180910390fd5b6003544310610b09576040805162461bcd60e51b815260206004820152601e60248201527f546f6b616d616b5374616b65723a20416c726561647920737461727465640000604482015290519081900360640190fd5b6001600160a01b038116610b52576040805162461bcd60e51b815260206004820152601b60248201526000805160206112bb833981519152604482015290519081900360640190fd5b600e80546001600160a01b0319166001600160a01b0392909216919091179055565b6000828152600f60205260408120610b8c9083611053565b90505b92915050565b6000828152600f60205260408120610b8c908361105f565b600e546001600160a01b031681565b600081565b600860205260009081526040902080546001820154600283015460038401546004850154600590950154939492939192909160ff1686565b60065481565b600b60209081526000928352604080842090915290825290205481565b6000610c366000805160206112db83398151915233610b95565b610c715760405162461bcd60e51b81526004018080602001828103825260258152602001806112fb6025913960400191505060405180910390fd5b600e546001600160a01b031680610cbd576040805162461bcd60e51b815260206004820152601b60248201526000805160206112bb833981519152604482015290519081900360640190fd5b600e60009054906101000a90046001600160a01b03166001600160a01b031663a00251c66040518163ffffffff1660e01b8152600401602060405180830381600087803b15801561060157600080fd5b6000818152600f60205260408120610b8f90611074565b600c60209081526000928352604080842090915290825290205481565b6000828152600f6020526040902060020154610d5f90610651610f7d565b6106f65760405162461bcd60e51b815260040180806020018281038252603081526020018061128b6030913960400191505060405180910390fd5b610db26000805160206112db83398151915233610b95565b610ded5760405162461bcd60e51b81526004018080602001828103825260258152602001806112fb6025913960400191505060405180910390fd5b600e546001600160a01b031680610e39576040805162461bcd60e51b815260206004820152601b60248201526000805160206112bb833981519152604482015290519081900360640190fd5b600e546040805163b6b55f2560e01b81526004810185905290516001600160a01b039092169163b6b55f259160248082019260009290919082900301818387803b158015610a3257600080fd5b600154600e546040805163095ea7b360e01b81526001600160a01b039283166004820152602481018590529051919092169163095ea7b39160448083019260209291908290030181600087803b158015610edf57600080fd5b505af1158015610ef3573d6000803e3d6000fd5b505050506040513d6020811015610f0957600080fd5b5051610f5c576040805162461bcd60e51b815260206004820152601b60248201527f596561726e56325374616b65723a20617070726f7665206661696c0000000000604482015290519081900360640190fd5b50565b6002546001600160a01b031681565b6000546001600160a01b031681565b3390565b6000828152600f60205260409020610f99908261107f565b1561069b57610fa6610f7d565b6001600160a01b0316816001600160a01b0316837f2f8788117e7eff1d82e926ec794901d17c78024a50270940304540a733656f0d60405160405180910390a45050565b6000828152600f602052604090206110029082611094565b1561069b5761100f610f7d565b6001600160a01b0316816001600160a01b0316837ff6391f5c32d9c69d2a47ea670b442974b53935d1edc7fd64eb21e047a839171b60405160405180910390a45050565b6000610b8c83836110a9565b6000610b8c836001600160a01b03841661110d565b6000610b8f82611125565b6000610b8c836001600160a01b038416611129565b6000610b8c836001600160a01b038416611173565b815460009082106110eb5760405162461bcd60e51b815260040180806020018281038252602281526020018061123a6022913960400191505060405180910390fd5b8260000182815481106110fa57fe5b9060005260206000200154905092915050565b60009081526001919091016020526040902054151590565b5490565b6000611135838361110d565b61116b57508154600181810184556000848152602080822090930184905584548482528286019093526040902091909155610b8f565b506000610b8f565b6000818152600183016020526040812054801561122f57835460001980830191908101906000908790839081106111a657fe5b90600052602060002001549050808760000184815481106111c357fe5b6000918252602080832090910192909255828152600189810190925260409020908401905586548790806111f357fe5b60019003818190600052602060002001600090559055866001016000878152602001908152602001600020600090556001945050505050610b8f565b6000915050610b8f56fe456e756d657261626c655365743a20696e646578206f7574206f6620626f756e6473416363657373436f6e74726f6c3a2073656e646572206d75737420626520616e2061646d696e20746f206772616e74416363657373436f6e74726f6c3a2073656e646572206d75737420626520616e2061646d696e20746f207265766f6b65596561726e56325374616b65723a207a65726f20616464726573730000000000df8b4c520ffe197c5343c6f5aec59570151ef9a492f2c624fd45ddde6135ec42596561726e56325374616b65723a2043616c6c6572206973206e6f7420616e2061646d696e416363657373436f6e74726f6c3a2063616e206f6e6c792072656e6f756e636520726f6c657320666f722073656c66a2646970667358221220e2e7ca30af81f81be90c7de241a0a6599ba4ffd25449dfa19a97f2b716464d5764736f6c63430007060033",
  "immutableReferences": {},
  "source": "// SPDX-License-Identifier: MIT\npragma solidity ^0.7.6;\nimport {IERC20} from \"@openzeppelin/contracts/token/ERC20/IERC20.sol\";\nimport {IYearnV2Vault} from \"../interfaces/IYearnV2Vault.sol\";\n\nimport \"@openzeppelin/contracts/access/AccessControl.sol\";\n//import { ERC165 } from \"@openzeppelin/contracts/introspection/ERC165.sol\";\nimport \"../stake/StakeYearnStorage.sol\";\n\n/// @title The connector that integrates zkopru and tokamak\ncontract YearnV2Staker is StakeYearnStorage, AccessControl {\n\n    bytes32 public constant ADMIN_ROLE = keccak256(\"ADMIN\");\n\n    modifier nonZero(address _addr) {\n        require(_addr != address(0), \"YearnV2Staker: zero address\");\n        _;\n    }\n\n    modifier onlyOwner() {\n        require(\n            hasRole(ADMIN_ROLE, msg.sender),\n            \"YearnV2Staker: Caller is not an admin\"\n        );\n        _;\n    }\n\n    function setYearnV2(address _vault) external onlyOwner {\n        require(\n            block.number < saleStartBlock,\n            \"TokamakStaker: Already started\"\n        );\n        require(_vault != address(0), \"YearnV2Staker: zero address\");\n        yearnV2Vault = _vault;\n    }\n\n    function approveYearnV2Vault(uint256 amount) external {\n        require(\n            IERC20(paytoken).approve(yearnV2Vault, amount),\n            \"YearnV2Staker: approve fail\"\n        );\n    }\n\n    function yearnV2_calcTotalValue()\n        external\n        onlyOwner\n        nonZero(yearnV2Vault)\n        returns (uint256 underlyingAmount)\n    {\n        return IYearnV2Vault(yearnV2Vault).calcTotalValue();\n    }\n\n    function yearnV2_deposit(uint256 amount)\n        external\n        onlyOwner\n        nonZero(yearnV2Vault)\n    {\n        IYearnV2Vault(yearnV2Vault).deposit(amount);\n    }\n\n    function yearnV2_withdraw(uint256 amount)\n        external\n        onlyOwner\n        nonZero(yearnV2Vault)\n    {\n        IYearnV2Vault(yearnV2Vault).withdraw(amount);\n    }\n\n    function yearnV2_underlyingYield()\n        external\n        onlyOwner\n        nonZero(yearnV2Vault)\n        returns (uint256)\n    {\n        return IYearnV2Vault(yearnV2Vault).underlyingYield();\n    }\n\n    function yearnV2_unclaimedProfit(address user)\n        external\n        view\n        onlyOwner\n        nonZero(yearnV2Vault)\n        returns (uint256)\n    {\n        return IYearnV2Vault(yearnV2Vault).unclaimedProfit(user);\n    }\n\n    function yearnV2_claim() external onlyOwner nonZero(yearnV2Vault) {\n        IYearnV2Vault(yearnV2Vault).claim();\n    }\n}\n",
  "sourcePath": "/Users/kadyrbeknarmamatov/code/ico20-contracts/contracts/connection/YearnV2Staker.sol",
  "compiler": {
    "name": "solc",
    "version": "0.7.6+commit.7338295f.Emscripten.clang"
  },
  "schemaVersion": "3.4.0",
  "updatedAt": "2021-05-18T08:30:59.892Z",
  "devdoc": {
    "kind": "dev",
    "methods": {
      "getRoleAdmin(bytes32)": {
        "details": "Returns the admin role that controls `role`. See {grantRole} and {revokeRole}. To change a role's admin, use {_setRoleAdmin}."
      },
      "getRoleMember(bytes32,uint256)": {
        "details": "Returns one of the accounts that have `role`. `index` must be a value between 0 and {getRoleMemberCount}, non-inclusive. Role bearers are not sorted in any particular way, and their ordering may change at any point. WARNING: When using {getRoleMember} and {getRoleMemberCount}, make sure you perform all queries on the same block. See the following https://forum.openzeppelin.com/t/iterating-over-elements-on-enumerableset-in-openzeppelin-contracts/2296[forum post] for more information."
      },
      "getRoleMemberCount(bytes32)": {
        "details": "Returns the number of accounts that have `role`. Can be used together with {getRoleMember} to enumerate all bearers of a role."
      },
      "grantRole(bytes32,address)": {
        "details": "Grants `role` to `account`. If `account` had not been already granted `role`, emits a {RoleGranted} event. Requirements: - the caller must have ``role``'s admin role."
      },
      "hasRole(bytes32,address)": {
        "details": "Returns `true` if `account` has been granted `role`."
      },
      "renounceRole(bytes32,address)": {
        "details": "Revokes `role` from the calling account. Roles are often managed via {grantRole} and {revokeRole}: this function's purpose is to provide a mechanism for accounts to lose their privileges if they are compromised (such as when a trusted device is misplaced). If the calling account had been granted `role`, emits a {RoleRevoked} event. Requirements: - the caller must be `account`."
      },
      "revokeRole(bytes32,address)": {
        "details": "Revokes `role` from `account`. If `account` had been granted `role`, emits a {RoleRevoked} event. Requirements: - the caller must have ``role``'s admin role."
      }
    },
    "title": "The connector that integrates zkopru and tokamak",
    "version": 1
  },
  "userdoc": {
    "kind": "user",
    "methods": {},
    "version": 1
  }
}