{
  "contractName": "StakeTONProxy2",
  "abi": [
    {
      "inputs": [],
      "stateMutability": "nonpayable",
      "type": "constructor"
    },
    {
      "anonymous": false,
      "inputs": [
        {
          "indexed": true,
          "internalType": "bytes32",
          "name": "role",
          "type": "bytes32"
        },
        {
          "indexed": true,
          "internalType": "bytes32",
          "name": "previousAdminRole",
          "type": "bytes32"
        },
        {
          "indexed": true,
          "internalType": "bytes32",
          "name": "newAdminRole",
          "type": "bytes32"
        }
      ],
      "name": "RoleAdminChanged",
      "type": "event"
    },
    {
      "anonymous": false,
      "inputs": [
        {
          "indexed": true,
          "internalType": "bytes32",
          "name": "role",
          "type": "bytes32"
        },
        {
          "indexed": true,
          "internalType": "address",
          "name": "account",
          "type": "address"
        },
        {
          "indexed": true,
          "internalType": "address",
          "name": "sender",
          "type": "address"
        }
      ],
      "name": "RoleGranted",
      "type": "event"
    },
    {
      "anonymous": false,
      "inputs": [
        {
          "indexed": true,
          "internalType": "bytes32",
          "name": "role",
          "type": "bytes32"
        },
        {
          "indexed": true,
          "internalType": "address",
          "name": "account",
          "type": "address"
        },
        {
          "indexed": true,
          "internalType": "address",
          "name": "sender",
          "type": "address"
        }
      ],
      "name": "RoleRevoked",
      "type": "event"
    },
    {
      "stateMutability": "payable",
      "type": "fallback"
    },
    {
      "inputs": [],
      "name": "ADMIN_ROLE",
      "outputs": [
        {
          "internalType": "bytes32",
          "name": "",
          "type": "bytes32"
        }
      ],
      "stateMutability": "view",
      "type": "function"
    },
    {
      "inputs": [],
      "name": "BURNER_ROLE",
      "outputs": [
        {
          "internalType": "bytes32",
          "name": "",
          "type": "bytes32"
        }
      ],
      "stateMutability": "view",
      "type": "function"
    },
    {
      "inputs": [],
      "name": "DEFAULT_ADMIN_ROLE",
      "outputs": [
        {
          "internalType": "bytes32",
          "name": "",
          "type": "bytes32"
        }
      ],
      "stateMutability": "view",
      "type": "function"
    },
    {
      "inputs": [],
      "name": "MINTER_ROLE",
      "outputs": [
        {
          "internalType": "bytes32",
          "name": "",
          "type": "bytes32"
        }
      ],
      "stateMutability": "view",
      "type": "function"
    },
    {
      "inputs": [
        {
          "internalType": "address",
          "name": "account",
          "type": "address"
        }
      ],
      "name": "addAdmin",
      "outputs": [],
      "stateMutability": "nonpayable",
      "type": "function"
    },
    {
      "inputs": [
        {
          "internalType": "address",
          "name": "",
          "type": "address"
        }
      ],
      "name": "aliveImplementation",
      "outputs": [
        {
          "internalType": "bool",
          "name": "",
          "type": "bool"
        }
      ],
      "stateMutability": "view",
      "type": "function"
    },
    {
      "inputs": [],
      "name": "defiAddr",
      "outputs": [
        {
          "internalType": "address",
          "name": "",
          "type": "address"
        }
      ],
      "stateMutability": "view",
      "type": "function"
    },
    {
      "inputs": [],
      "name": "defiStatus",
      "outputs": [
        {
          "internalType": "uint256",
          "name": "",
          "type": "uint256"
        }
      ],
      "stateMutability": "view",
      "type": "function"
    },
    {
      "inputs": [],
      "name": "depositManager",
      "outputs": [
        {
          "internalType": "address",
          "name": "",
          "type": "address"
        }
      ],
      "stateMutability": "view",
      "type": "function"
    },
    {
      "inputs": [],
      "name": "endBlock",
      "outputs": [
        {
          "internalType": "uint256",
          "name": "",
          "type": "uint256"
        }
      ],
      "stateMutability": "view",
      "type": "function"
    },
    {
      "inputs": [],
      "name": "finalBalanceTON",
      "outputs": [
        {
          "internalType": "uint256",
          "name": "",
          "type": "uint256"
        }
      ],
      "stateMutability": "view",
      "type": "function"
    },
    {
      "inputs": [],
      "name": "finalBalanceWTON",
      "outputs": [
        {
          "internalType": "uint256",
          "name": "",
          "type": "uint256"
        }
      ],
      "stateMutability": "view",
      "type": "function"
    },
    {
      "inputs": [],
      "name": "fromTokamak",
      "outputs": [
        {
          "internalType": "uint256",
          "name": "",
          "type": "uint256"
        }
      ],
      "stateMutability": "view",
      "type": "function"
    },
    {
      "inputs": [
        {
          "internalType": "bytes32",
          "name": "role",
          "type": "bytes32"
        }
      ],
      "name": "getRoleAdmin",
      "outputs": [
        {
          "internalType": "bytes32",
          "name": "",
          "type": "bytes32"
        }
      ],
      "stateMutability": "view",
      "type": "function"
    },
    {
      "inputs": [
        {
          "internalType": "bytes32",
          "name": "role",
          "type": "bytes32"
        },
        {
          "internalType": "uint256",
          "name": "index",
          "type": "uint256"
        }
      ],
      "name": "getRoleMember",
      "outputs": [
        {
          "internalType": "address",
          "name": "",
          "type": "address"
        }
      ],
      "stateMutability": "view",
      "type": "function"
    },
    {
      "inputs": [
        {
          "internalType": "bytes32",
          "name": "role",
          "type": "bytes32"
        }
      ],
      "name": "getRoleMemberCount",
      "outputs": [
        {
          "internalType": "uint256",
          "name": "",
          "type": "uint256"
        }
      ],
      "stateMutability": "view",
      "type": "function"
    },
    {
      "inputs": [
        {
          "internalType": "address",
          "name": "user",
          "type": "address"
        }
      ],
      "name": "getUserStaked",
      "outputs": [
        {
          "internalType": "uint256",
          "name": "amount",
          "type": "uint256"
        },
        {
          "internalType": "uint256",
          "name": "claimedBlock",
          "type": "uint256"
        },
        {
          "internalType": "uint256",
          "name": "claimedAmount",
          "type": "uint256"
        },
        {
          "internalType": "uint256",
          "name": "releasedBlock",
          "type": "uint256"
        },
        {
          "internalType": "uint256",
          "name": "releasedAmount",
          "type": "uint256"
        },
        {
          "internalType": "uint256",
          "name": "releasedTOSAmount",
          "type": "uint256"
        },
        {
          "internalType": "bool",
          "name": "released",
          "type": "bool"
        }
      ],
      "stateMutability": "view",
      "type": "function"
    },
    {
      "inputs": [
        {
          "internalType": "bytes32",
          "name": "role",
          "type": "bytes32"
        },
        {
          "internalType": "address",
          "name": "account",
          "type": "address"
        }
      ],
      "name": "grantRole",
      "outputs": [],
      "stateMutability": "nonpayable",
      "type": "function"
    },
    {
      "inputs": [
        {
          "internalType": "bytes32",
          "name": "role",
          "type": "bytes32"
        },
        {
          "internalType": "address",
          "name": "account",
          "type": "address"
        }
      ],
      "name": "hasRole",
      "outputs": [
        {
          "internalType": "bool",
          "name": "",
          "type": "bool"
        }
      ],
      "stateMutability": "view",
      "type": "function"
    },
    {
      "inputs": [],
      "name": "infos",
      "outputs": [
        {
          "internalType": "address",
          "name": "",
          "type": "address"
        },
        {
          "internalType": "address",
          "name": "",
          "type": "address"
        },
        {
          "internalType": "uint256[3]",
          "name": "",
          "type": "uint256[3]"
        },
        {
          "internalType": "uint256",
          "name": "",
          "type": "uint256"
        },
        {
          "internalType": "uint256",
          "name": "",
          "type": "uint256"
        },
        {
          "internalType": "uint256",
          "name": "",
          "type": "uint256"
        }
      ],
      "stateMutability": "view",
      "type": "function"
    },
    {
      "inputs": [
        {
          "internalType": "address",
          "name": "account",
          "type": "address"
        }
      ],
      "name": "isAdmin",
      "outputs": [
        {
          "internalType": "bool",
          "name": "",
          "type": "bool"
        }
      ],
      "stateMutability": "view",
      "type": "function"
    },
    {
      "inputs": [],
      "name": "migratedL2",
      "outputs": [
        {
          "internalType": "bool",
          "name": "",
          "type": "bool"
        }
      ],
      "stateMutability": "view",
      "type": "function"
    },
    {
      "inputs": [],
      "name": "pauseProxy",
      "outputs": [
        {
          "internalType": "bool",
          "name": "",
          "type": "bool"
        }
      ],
      "stateMutability": "view",
      "type": "function"
    },
    {
      "inputs": [],
      "name": "paytoken",
      "outputs": [
        {
          "internalType": "address",
          "name": "",
          "type": "address"
        }
      ],
      "stateMutability": "view",
      "type": "function"
    },
    {
      "inputs": [
        {
          "internalType": "uint256",
          "name": "",
          "type": "uint256"
        }
      ],
      "name": "proxyImplementation",
      "outputs": [
        {
          "internalType": "address",
          "name": "",
          "type": "address"
        }
      ],
      "stateMutability": "view",
      "type": "function"
    },
    {
      "inputs": [
        {
          "internalType": "address",
          "name": "account",
          "type": "address"
        }
      ],
      "name": "removeAdmin",
      "outputs": [],
      "stateMutability": "nonpayable",
      "type": "function"
    },
    {
      "inputs": [
        {
          "internalType": "bytes32",
          "name": "role",
          "type": "bytes32"
        },
        {
          "internalType": "address",
          "name": "account",
          "type": "address"
        }
      ],
      "name": "renounceRole",
      "outputs": [],
      "stateMutability": "nonpayable",
      "type": "function"
    },
    {
      "inputs": [],
      "name": "requestNum",
      "outputs": [
        {
          "internalType": "uint256",
          "name": "",
          "type": "uint256"
        }
      ],
      "stateMutability": "view",
      "type": "function"
    },
    {
      "inputs": [
        {
          "internalType": "bytes32",
          "name": "role",
          "type": "bytes32"
        },
        {
          "internalType": "address",
          "name": "account",
          "type": "address"
        }
      ],
      "name": "revokeRole",
      "outputs": [],
      "stateMutability": "nonpayable",
      "type": "function"
    },
    {
      "inputs": [],
      "name": "rewardClaimedTotal",
      "outputs": [
        {
          "internalType": "uint256",
          "name": "",
          "type": "uint256"
        }
      ],
      "stateMutability": "view",
      "type": "function"
    },
    {
      "inputs": [],
      "name": "saleStartBlock",
      "outputs": [
        {
          "internalType": "uint256",
          "name": "",
          "type": "uint256"
        }
      ],
      "stateMutability": "view",
      "type": "function"
    },
    {
      "inputs": [],
      "name": "seigManager",
      "outputs": [
        {
          "internalType": "address",
          "name": "",
          "type": "address"
        }
      ],
      "stateMutability": "view",
      "type": "function"
    },
    {
      "inputs": [
        {
          "internalType": "bytes4",
          "name": "",
          "type": "bytes4"
        }
      ],
      "name": "selectorImplementation",
      "outputs": [
        {
          "internalType": "address",
          "name": "",
          "type": "address"
        }
      ],
      "stateMutability": "view",
      "type": "function"
    },
    {
      "inputs": [],
      "name": "stakeRegistry",
      "outputs": [
        {
          "internalType": "address",
          "name": "",
          "type": "address"
        }
      ],
      "stateMutability": "view",
      "type": "function"
    },
    {
      "inputs": [],
      "name": "startBlock",
      "outputs": [
        {
          "internalType": "uint256",
          "name": "",
          "type": "uint256"
        }
      ],
      "stateMutability": "view",
      "type": "function"
    },
    {
      "inputs": [],
      "name": "swapProxy",
      "outputs": [
        {
          "internalType": "address",
          "name": "",
          "type": "address"
        }
      ],
      "stateMutability": "view",
      "type": "function"
    },
    {
      "inputs": [],
      "name": "swappedAmountTOS",
      "outputs": [
        {
          "internalType": "uint256",
          "name": "",
          "type": "uint256"
        }
      ],
      "stateMutability": "view",
      "type": "function"
    },
    {
      "inputs": [],
      "name": "toTokamak",
      "outputs": [
        {
          "internalType": "uint256",
          "name": "",
          "type": "uint256"
        }
      ],
      "stateMutability": "view",
      "type": "function"
    },
    {
      "inputs": [],
      "name": "toUniswapWTON",
      "outputs": [
        {
          "internalType": "uint256",
          "name": "",
          "type": "uint256"
        }
      ],
      "stateMutability": "view",
      "type": "function"
    },
    {
      "inputs": [],
      "name": "tokamakLayer2",
      "outputs": [
        {
          "internalType": "address",
          "name": "",
          "type": "address"
        }
      ],
      "stateMutability": "view",
      "type": "function"
    },
    {
      "inputs": [],
      "name": "token",
      "outputs": [
        {
          "internalType": "address",
          "name": "",
          "type": "address"
        }
      ],
      "stateMutability": "view",
      "type": "function"
    },
    {
      "inputs": [],
      "name": "ton",
      "outputs": [
        {
          "internalType": "address",
          "name": "",
          "type": "address"
        }
      ],
      "stateMutability": "view",
      "type": "function"
    },
    {
      "inputs": [],
      "name": "totalStakedAmount",
      "outputs": [
        {
          "internalType": "uint256",
          "name": "",
          "type": "uint256"
        }
      ],
      "stateMutability": "view",
      "type": "function"
    },
    {
      "inputs": [],
      "name": "totalStakers",
      "outputs": [
        {
          "internalType": "uint256",
          "name": "",
          "type": "uint256"
        }
      ],
      "stateMutability": "view",
      "type": "function"
    },
    {
      "inputs": [
        {
          "internalType": "address",
          "name": "newAdmin",
          "type": "address"
        }
      ],
      "name": "transferAdmin",
      "outputs": [],
      "stateMutability": "nonpayable",
      "type": "function"
    },
    {
      "inputs": [
        {
          "internalType": "address",
          "name": "",
          "type": "address"
        }
      ],
      "name": "userStaked",
      "outputs": [
        {
          "internalType": "uint256",
          "name": "amount",
          "type": "uint256"
        },
        {
          "internalType": "uint256",
          "name": "claimedBlock",
          "type": "uint256"
        },
        {
          "internalType": "uint256",
          "name": "claimedAmount",
          "type": "uint256"
        },
        {
          "internalType": "uint256",
          "name": "releasedBlock",
          "type": "uint256"
        },
        {
          "internalType": "uint256",
          "name": "releasedAmount",
          "type": "uint256"
        },
        {
          "internalType": "uint256",
          "name": "releasedTOSAmount",
          "type": "uint256"
        },
        {
          "internalType": "bool",
          "name": "released",
          "type": "bool"
        }
      ],
      "stateMutability": "view",
      "type": "function"
    },
    {
      "inputs": [],
      "name": "vault",
      "outputs": [
        {
          "internalType": "address",
          "name": "",
          "type": "address"
        }
      ],
      "stateMutability": "view",
      "type": "function"
    },
    {
      "inputs": [],
      "name": "withdrawFlag",
      "outputs": [
        {
          "internalType": "bool",
          "name": "",
          "type": "bool"
        }
      ],
      "stateMutability": "view",
      "type": "function"
    },
    {
      "inputs": [],
      "name": "wton",
      "outputs": [
        {
          "internalType": "address",
          "name": "",
          "type": "address"
        }
      ],
      "stateMutability": "view",
      "type": "function"
    },
    {
      "stateMutability": "payable",
      "type": "receive"
    },
    {
      "inputs": [
        {
          "internalType": "uint256",
          "name": "_index",
          "type": "uint256"
        }
      ],
      "name": "implementation2",
      "outputs": [
        {
          "internalType": "address",
          "name": "",
          "type": "address"
        }
      ],
      "stateMutability": "view",
      "type": "function"
    },
    {
      "inputs": [
        {
          "internalType": "address",
          "name": "newImplementation",
          "type": "address"
        },
        {
          "internalType": "uint256",
          "name": "_index",
          "type": "uint256"
        },
        {
          "internalType": "bool",
          "name": "_alive",
          "type": "bool"
        }
      ],
      "name": "setImplementation2",
      "outputs": [],
      "stateMutability": "nonpayable",
      "type": "function"
    },
    {
      "inputs": [
        {
          "internalType": "address",
          "name": "newImplementation",
          "type": "address"
        },
        {
          "internalType": "bool",
          "name": "_alive",
          "type": "bool"
        }
      ],
      "name": "setAliveImplementation2",
      "outputs": [],
      "stateMutability": "nonpayable",
      "type": "function"
    },
    {
      "inputs": [
        {
          "internalType": "bytes4[]",
          "name": "_selectors",
          "type": "bytes4[]"
        },
        {
          "internalType": "address",
          "name": "_imp",
          "type": "address"
        }
      ],
      "name": "setSelectorImplementations2",
      "outputs": [],
      "stateMutability": "nonpayable",
      "type": "function"
    },
    {
      "inputs": [
        {
          "internalType": "bytes4",
          "name": "_selector",
          "type": "bytes4"
        }
      ],
      "name": "getSelectorImplementation2",
      "outputs": [
        {
          "internalType": "address",
          "name": "impl",
          "type": "address"
        }
      ],
      "stateMutability": "view",
      "type": "function"
    }
  ],
  "bytecode": "0x608060405234801561001057600080fd5b50611af0806100206000396000f3fe6080604052600436106102d95760003560e01c806375b238fc1161017b578063acc3a939116100d7578063dac3fc3f11610085578063dac3fc3f146107fc578063e09974b91461081c578063e58e274714610831578063e6a7bc8714610846578063fbfa77cf1461085b578063fc0c546a14610870578063fd7fa46014610885576102e8565b8063acc3a9391461072a578063b2d4d6a31461075d578063b911135f14610772578063ca15c87314610792578063cc48b947146107b2578063d5391393146107c7578063d547741f146107dc576102e8565b80639010d07c116101345780639010d07c1461066f57806391d148541461068f57806392ea3b4c146106af5780639a88be2f146106c45780639d84ca35146106eb578063a1f5f50e14610700578063a217fddf14610715576102e8565b806375b238fc146105d05780637cd5f663146105e557806386989038146106055780638b8f4a651461061a5780638d4fdb401461063a5780638d62d9491461065a576102e8565b80634a5df50f116102355780636c7ac9d8116101e35780636c7ac9d8146105275780636e7cf5341461053c5780636ec4be90146105515780636fb7f55814610566578063704802751461057b578063722853261461059b57806375829def146105b0576102e8565b80634a5df50f1461046857806350d2a27614610488578063550d01a3146104a8578063567e98f9146104c85780635cc797d8146104dd57806363a8fd89146104fd5780636830483514610512576102e8565b8063248a9ca311610292578063248a9ca31461038f57806324d7806c146103af578063282c51f3146103dc5780632f2ff15d146103f157806336568abe1461041157806343b0934a1461043157806348cd4cb114610453576102e8565b806305871b78146102f0578063083c63231461031b5780630ac8e0f3146103305780630ea3d9c9146103455780631785f53c1461035a578063200272751461037a576102e8565b366102e8576102e661089a565b005b6102e661089a565b3480156102fc57600080fd5b5061030561091c565b604051610312919061181a565b60405180910390f35b34801561032757600080fd5b50610305610922565b34801561033c57600080fd5b50610305610928565b34801561035157600080fd5b5061030561092e565b34801561036657600080fd5b506102e6610375366004611617565b610934565b34801561038657600080fd5b50610305610993565b34801561039b57600080fd5b506103056103aa366004611713565b610999565b3480156103bb57600080fd5b506103cf6103ca366004611617565b6109b1565b604051610312919061180f565b3480156103e857600080fd5b506103056109d1565b3480156103fd57600080fd5b506102e661040c36600461172b565b6109f5565b34801561041d57600080fd5b506102e661042c36600461172b565b610a5c565b34801561043d57600080fd5b50610446610abd565b6040516103129190611796565b34801561045f57600080fd5b50610305610acc565b34801561047457600080fd5b506102e661048336600461169e565b610ad2565b34801561049457600080fd5b506104466104a336600461176e565b610c53565b3480156104b457600080fd5b506103cf6104c3366004611617565b610c6e565b3480156104d457600080fd5b50610305610c83565b3480156104e957600080fd5b506102e66104f8366004611631565b610c89565b34801561050957600080fd5b506103cf610cd7565b34801561051e57600080fd5b50610446610ce0565b34801561053357600080fd5b50610446610cef565b34801561054857600080fd5b506103cf610cfe565b34801561055d57600080fd5b50610446610d07565b34801561057257600080fd5b50610446610d16565b34801561058757600080fd5b506102e6610596366004611617565b610d25565b3480156105a757600080fd5b50610305610d81565b3480156105bc57600080fd5b506102e66105cb366004611617565b610d87565b3480156105dc57600080fd5b50610305610ea8565b3480156105f157600080fd5b506102e6610600366004611663565b610eba565b34801561061157600080fd5b50610305610f09565b34801561062657600080fd5b50610446610635366004611713565b610f0f565b34801561064657600080fd5b5061044661065536600461176e565b610f1a565b34801561066657600080fd5b50610446611016565b34801561067b57600080fd5b5061044661068a36600461174d565b611025565b34801561069b57600080fd5b506103cf6106aa36600461172b565b611044565b3480156106bb57600080fd5b5061044661105c565b3480156106d057600080fd5b506106d961106b565b604051610312969594939291906117aa565b3480156106f757600080fd5b506104466110c1565b34801561070c57600080fd5b506103cf6110d5565b34801561072157600080fd5b506103056110e5565b34801561073657600080fd5b5061074a610745366004611617565b6110ea565b6040516103129796959493929190611996565b34801561076957600080fd5b5061030561112a565b34801561077e57600080fd5b5061044661078d366004611713565b611130565b34801561079e57600080fd5b506103056107ad366004611713565b61114b565b3480156107be57600080fd5b50610446611162565b3480156107d357600080fd5b50610305611171565b3480156107e857600080fd5b506102e66107f736600461172b565b611195565b34801561080857600080fd5b5061074a610817366004611617565b6111ee565b34801561082857600080fd5b50610305611237565b34801561083d57600080fd5b5061030561123d565b34801561085257600080fd5b50610305611243565b34801561086757600080fd5b50610446611249565b34801561087c57600080fd5b50610446611258565b34801561089157600080fd5b50610305611267565b60006108b16000356001600160e01b031916610f1a565b90506001600160a01b038116158015906108ce5750600c5460ff16155b6108f35760405162461bcd60e51b81526004016108ea90611950565b60405180910390fd5b3660008037600080366000845af43d6000803e808015610912573d6000f35b3d6000fd5b505050565b60155481565b60065481565b60145481565b60165481565b61093d336109b1565b6109785760405162461bcd60e51b8152600401808060200182810382526022815260200180611a1a6022913960400191505060405180910390fd5b610990600080516020611a6c83398151915282610a5c565b50565b60045481565b6000818152601c60205260409020600201545b919050565b60006109cb600080516020611a6c83398151915283611044565b92915050565b7f9667e80708b6eeeb0053fa0cca44e028ff548e2a9f029edfeac87c118b08b7c881565b6000828152601c6020526040902060020154610a13906106aa61126d565b610a4e5760405162461bcd60e51b815260040180806020018281038252602f8152602001806119eb602f913960400191505060405180910390fd5b610a588282611271565b5050565b610a6461126d565b6001600160a01b0316816001600160a01b031614610ab35760405162461bcd60e51b815260040180806020018281038252602f815260200180611a8c602f913960400191505060405180910390fd5b610a5882826112da565b6002546001600160a01b031681565b60055481565b610adb336109b1565b610b165760405162461bcd60e51b8152600401808060200182810382526022815260200180611a1a6022913960400191505060405180910390fd5b81610b335760405162461bcd60e51b81526004016108ea90611907565b6001600160a01b0381166000908152601e602052604090205460ff16610b6b5760405162461bcd60e51b81526004016108ea90611894565b60005b82811015610c4d57816001600160a01b0316601f6000868685818110610b9057fe5b9050602002016020810190610ba5919061176e565b6001600160e01b03191681526020810191909152604001600020546001600160a01b03161415610be75760405162461bcd60e51b81526004016108ea906118d5565b81601f6000868685818110610bf857fe5b9050602002016020810190610c0d919061176e565b6001600160e01b0319168152602081019190915260400160002080546001600160a01b0319166001600160a01b0392909216919091179055600101610b6e565b50505050565b601f602052600090815260409020546001600160a01b031681565b601e6020526000908152604090205460ff1681565b60085481565b610c92336109b1565b610ccd5760405162461bcd60e51b8152600401808060200182810382526022815260200180611a1a6022913960400191505060405180910390fd5b610a588282611343565b600c5460ff1681565b6001546001600160a01b031681565b6010546001600160a01b031681565b601b5460ff1681565b6011546001600160a01b031681565b600f546001600160a01b031681565b610d2e336109b1565b610d695760405162461bcd60e51b8152600401808060200182810382526022815260200180611a1a6022913960400191505060405180910390fd5b610990600080516020611a6c833981519152826109f5565b60195481565b610d90336109b1565b610dcb5760405162461bcd60e51b8152600401808060200182810382526022815260200180611a1a6022913960400191505060405180910390fd5b6001600160a01b038116610e21576040805162461bcd60e51b815260206004820152601860248201527741636365737369626c653a207a65726f206164647265737360401b604482015290519081900360640190fd5b336001600160a01b0382161415610e78576040805162461bcd60e51b815260206004820152601660248201527520b1b1b2b9b9b4b136329d1039b0b6b29030b236b4b760511b604482015290519081900360640190fd5b610e90600080516020611a6c833981519152826109f5565b610990600080516020611a6c83398151915233610a5c565b600080516020611a6c83398151915281565b610ec3336109b1565b610efe5760405162461bcd60e51b8152600401808060200182810382526022815260200180611a1a6022913960400191505060405180910390fd5b61091783838361136e565b600a5481565b60006109cb826113cb565b6001600160e01b031981166000908152601f60205260408120546001600160a01b0316610f7b575060008052601d6020527f0a51588b1664495f089dd83d2d26f247920f94a57a4a09f20cf068efc8f82bd4546001600160a01b03166109ac565b6001600160e01b031982166000908152601f60209081526040808320546001600160a01b03168352601e90915290205460ff1615610fdc57506001600160e01b031981166000908152601f60205260409020546001600160a01b03166109ac565b5060008052601d6020527f0a51588b1664495f089dd83d2d26f247920f94a57a4a09f20cf068efc8f82bd4546001600160a01b03166109ac565b600e546001600160a01b031681565b6000828152601c6020526040812061103d90836113e6565b9392505050565b6000828152601c6020526040812061103d90836113f2565b6012546001600160a01b031681565b6000806110766115d2565b5050600254600354604080516060810182526004548152600554602082015260065491810191909152600754600854600a546001600160a01b03958616979590941695509193909290565b600c5461010090046001600160a01b031681565b600c54600160a81b900460ff1681565b600081565b6009602052600090815260409020805460018201546002830154600384015460048501546005860154600690960154949593949293919290919060ff1687565b60075481565b601d602052600090815260409020546001600160a01b031681565b6000818152601c602052604081206109cb90611407565b600d546001600160a01b031681565b7ff0887ba65ee2024ea881d91b74c2450ef19e1557f03bed3ea9f16b037cbe2dc981565b6000828152601c60205260409020600201546111b3906106aa61126d565b610ab35760405162461bcd60e51b8152600401808060200182810382526030815260200180611a3c6030913960400191505060405180910390fd5b6001600160a01b03166000908152600960205260409020805460018201546002830154600384015460048501546005860154600690960154949693959294919390929160ff1690565b601a5481565b60175481565b60185481565b6003546001600160a01b031681565b6000546001600160a01b031681565b60135481565b3390565b6000828152601c602052604090206112899082611412565b15610a585761129661126d565b6001600160a01b0316816001600160a01b0316837f2f8788117e7eff1d82e926ec794901d17c78024a50270940304540a733656f0d60405160405180910390a45050565b6000828152601c602052604090206112f29082611427565b15610a58576112ff61126d565b6001600160a01b0316816001600160a01b0316837ff6391f5c32d9c69d2a47ea670b442974b53935d1edc7fd64eb21e047a839171b60405160405180910390a45050565b6001600160a01b03919091166000908152601e60205260409020805460ff1916911515919091179055565b6113778361143c565b6113935760405162461bcd60e51b81526004016108ea90611823565b80156113c1576000828152601d6020526040902080546001600160a01b0319166001600160a01b0385161790555b6109178382611343565b6000908152601d60205260409020546001600160a01b031690565b600061103d8383611442565b600061103d836001600160a01b0384166114a6565b60006109cb826114be565b600061103d836001600160a01b0384166114c2565b600061103d836001600160a01b03841661150c565b3b151590565b815460009082106114845760405162461bcd60e51b81526004018080602001828103825260228152602001806119c96022913960400191505060405180910390fd5b82600001828154811061149357fe5b9060005260206000200154905092915050565b60009081526001919091016020526040902054151590565b5490565b60006114ce83836114a6565b611504575081546001818101845560008481526020808220909301849055845484825282860190935260409020919091556109cb565b5060006109cb565b600081815260018301602052604081205480156115c8578354600019808301919081019060009087908390811061153f57fe5b906000526020600020015490508087600001848154811061155c57fe5b60009182526020808320909101929092558281526001898101909252604090209084019055865487908061158c57fe5b600190038181906000526020600020016000905590558660010160008781526020019081526020016000206000905560019450505050506109cb565b60009150506109cb565b60405180606001604052806003906020820280368337509192915050565b80356001600160a01b03811681146109ac57600080fd5b803580151581146109ac57600080fd5b600060208284031215611628578081fd5b61103d826115f0565b60008060408385031215611643578081fd5b61164c836115f0565b915061165a60208401611607565b90509250929050565b600080600060608486031215611677578081fd5b611680846115f0565b92506020840135915061169560408501611607565b90509250925092565b6000806000604084860312156116b2578283fd5b833567ffffffffffffffff808211156116c9578485fd5b818601915086601f8301126116dc578485fd5b8135818111156116ea578586fd5b87602080830285010111156116fd578586fd5b60209283019550935061169591860190506115f0565b600060208284031215611724578081fd5b5035919050565b6000806040838503121561173d578182fd5b8235915061165a602084016115f0565b6000806040838503121561175f578182fd5b50508035926020909101359150565b60006020828403121561177f578081fd5b81356001600160e01b03198116811461103d578182fd5b6001600160a01b0391909116815260200190565b6001600160a01b038781168252861660208083019190915261010082019060408301908760005b60038110156117ee578151845292820192908201906001016117d1565b505050508460a08301528360c08301528260e0830152979650505050505050565b901515815260200190565b90815260200190565b6020808252604b908201527f5374616b65544f4e50726f7879323a2043616e6e6f742073657420612070726f60408201527f787920696d706c656d656e746174696f6e20746f2061206e6f6e2d636f6e747260608201526a616374206164647265737360a81b608082015260a00190565b60208082526021908201527f5374616b65544f4e50726f7879323a205f696d70206973206e6f7420616c69766040820152606560f81b606082015260800190565b60208082526018908201527705374616b65544f4e50726f7879323a2073616d6520696d760441b604082015260600190565b60208082526029908201527f5374616b65544f4e50726f7879323a205f73656c6563746f727327732073697a60408201526865206973207a65726f60b81b606082015260800190565b60208082526026908201527f5374616b65544f4e50726f7879323a20696d706c204f522070726f78792069736040820152652066616c736560d01b606082015260800190565b968752602087019590955260408601939093526060850191909152608084015260a0830152151560c082015260e0019056fe456e756d657261626c655365743a20696e646578206f7574206f6620626f756e6473416363657373436f6e74726f6c3a2073656e646572206d75737420626520616e2061646d696e20746f206772616e7441636365737369626c653a2043616c6c6572206973206e6f7420616e2061646d696e416363657373436f6e74726f6c3a2073656e646572206d75737420626520616e2061646d696e20746f207265766f6b65df8b4c520ffe197c5343c6f5aec59570151ef9a492f2c624fd45ddde6135ec42416363657373436f6e74726f6c3a2063616e206f6e6c792072656e6f756e636520726f6c657320666f722073656c66a2646970667358221220557dff37ee72a3a303b631099fc85673d924b67987865bdf5fc197d9c0cb947564736f6c63430007060033",
  "immutableReferences": {},
  "source": "// SPDX-License-Identifier: MIT\npragma solidity ^0.7.6;\npragma abicoder v2;\n\nimport {IStakeVaultStorage} from \"../interfaces/IStakeVaultStorage.sol\";\nimport {IIERC20} from \"../interfaces/IIERC20.sol\";\nimport \"@openzeppelin/contracts/math/SafeMath.sol\";\nimport \"./StakeTONStorage.sol\";\nimport \"../common/AccessibleCommon.sol\";\nimport {OnApprove} from \"../tokens/OnApprove.sol\";\nimport \"./ProxyBase.sol\";\n\n/// @title Proxy for Stake contracts in Phase 1\ncontract StakeTONProxy2 is\n    StakeTONStorage,\n    AccessibleCommon,\n    ProxyBase\n{\n    mapping(uint256 => address) public proxyImplementation;\n    mapping(address => bool) public aliveImplementation;\n    mapping(bytes4 => address) public selectorImplementation;\n\n    modifier lock() {\n        require(_lock == 0, \"StakeTONProxy2: LOCKED\");\n        _lock = 1;\n        _;\n        _lock = 0;\n    }\n\n    // constructor(address _logic) {\n\n    //     require(_logic != address(0), \"StakeTONProxy2: logic is zero\");\n\n    //     _setImplementation2(_logic, 0, true);\n    //     _setRoleAdmin(ADMIN_ROLE, ADMIN_ROLE);\n    //     _setupRole(ADMIN_ROLE, msg.sender);\n    // }\n\n    constructor() {\n    }\n    /// @dev view implementation address of the proxy[index]\n    /// @param _index index of proxy\n    /// @return address of the implementation\n    function implementation2(uint256 _index)\n        external\n        view\n        returns (address)\n    {\n        return _implementation2(_index);\n    }\n\n    /// @dev set the implementation address and status of the proxy[index]\n    /// @param newImplementation Address of the new implementation.\n    /// @param _index index\n    /// @param _alive _alive\n    function setImplementation2(\n        address newImplementation,\n        uint256 _index,\n        bool _alive\n    ) external onlyOwner {\n        _setImplementation2(newImplementation, _index, _alive);\n    }\n\n    /// @dev set alive status of implementation\n    /// @param newImplementation Address of the new implementation.\n    /// @param _alive alive status\n    function setAliveImplementation2(address newImplementation, bool _alive)\n        public\n        onlyOwner\n    {\n        _setAliveImplementation2(newImplementation, _alive);\n    }\n\n    /// @dev set selectors of Implementation\n    /// @param _selectors being added selectors\n    /// @param _imp implementation address\n    function setSelectorImplementations2(\n        bytes4[] calldata _selectors,\n        address _imp\n    ) public onlyOwner {\n        require(\n            _selectors.length > 0,\n            \"StakeTONProxy2: _selectors's size is zero\"\n        );\n        require(aliveImplementation[_imp], \"StakeTONProxy2: _imp is not alive\");\n\n        for (uint256 i = 0; i < _selectors.length; i++) {\n            require(\n                selectorImplementation[_selectors[i]] != _imp,\n                \"StakeTONProxy2: same imp\"\n            );\n            selectorImplementation[_selectors[i]] = _imp;\n        }\n    }\n\n    /// @dev set the implementation address and status of the proxy[index]\n    /// @param newImplementation Address of the new implementation.\n    /// @param _index index of proxy\n    /// @param _alive alive status\n    function _setImplementation2(\n        address newImplementation,\n        uint256 _index,\n        bool _alive\n    ) internal {\n        require(\n            Address.isContract(newImplementation),\n            \"StakeTONProxy2: Cannot set a proxy implementation to a non-contract address\"\n        );\n        if (_alive) proxyImplementation[_index] = newImplementation;\n        _setAliveImplementation2(newImplementation, _alive);\n    }\n\n    /// @dev set alive status of implementation\n    /// @param newImplementation Address of the new implementation.\n    /// @param _alive alive status\n    function _setAliveImplementation2(address newImplementation, bool _alive)\n        internal\n    {\n        aliveImplementation[newImplementation] = _alive;\n    }\n\n    /// @dev view implementation address of the proxy[index]\n    /// @param _index index of proxy\n    /// @return impl address of the implementation\n    function _implementation2(uint256 _index)\n        internal\n        view\n        returns (address impl)\n    {\n        return proxyImplementation[_index];\n    }\n\n    /// @dev view implementation address of selector of function\n    /// @param _selector selector of function\n    /// @return impl address of the implementation\n    function getSelectorImplementation2(bytes4 _selector)\n        public\n        view\n        returns (address impl)\n    {\n        if (selectorImplementation[_selector] == address(0))\n            return proxyImplementation[0];\n        else if (aliveImplementation[selectorImplementation[_selector]])\n            return selectorImplementation[_selector];\n        else return proxyImplementation[0];\n    }\n\n    /// @dev receive ether\n    receive() external payable {\n        _fallback();\n    }\n\n    /// @dev fallback function , execute on undefined function call\n    fallback() external payable {\n        _fallback();\n    }\n\n    /// @dev fallback function , execute on undefined function call\n    function _fallback() internal {\n        address _impl = getSelectorImplementation2(msg.sig);\n        require(_impl != address(0) && !pauseProxy, \"StakeTONProxy2: impl OR proxy is false\");\n\n        assembly {\n            // Copy msg.data. We take full control of memory in this inline assembly\n            // block because it will not return to Solidity code. We overwrite the\n            // Solidity scratch pad at memory position 0.\n            calldatacopy(0, 0, calldatasize())\n\n            // Call the implementation.\n            // out and outsize are 0 because we don't know the size yet.\n            let result := delegatecall(gas(), _impl, 0, calldatasize(), 0, 0)\n\n            // Copy the returned data.\n            returndatacopy(0, 0, returndatasize())\n\n            switch result\n                // delegatecall returns 0 on error.\n                case 0 {\n                    revert(0, returndatasize())\n                }\n                default {\n                    return(0, returndatasize())\n                }\n        }\n    }\n}\n",
  "sourcePath": "/Users/zena/ico2.0/ico20-contracts/contracts/stake/StakeTONProxy2.sol",
  "compiler": {
    "name": "solc",
    "version": "0.7.6+commit.7338295f.Emscripten.clang"
  },
  "schemaVersion": "3.3.4",
  "updatedAt": "2021-08-31T00:22:40.655Z",
  "devdoc": {
    "kind": "dev",
    "methods": {
      "addAdmin(address)": {
        "details": "add admin",
        "params": {
          "account": "address to add"
        }
      },
      "getRoleAdmin(bytes32)": {
        "details": "Returns the admin role that controls `role`. See {grantRole} and {revokeRole}. To change a role's admin, use {_setRoleAdmin}."
      },
      "getRoleMember(bytes32,uint256)": {
        "details": "Returns one of the accounts that have `role`. `index` must be a value between 0 and {getRoleMemberCount}, non-inclusive. Role bearers are not sorted in any particular way, and their ordering may change at any point. WARNING: When using {getRoleMember} and {getRoleMemberCount}, make sure you perform all queries on the same block. See the following https://forum.openzeppelin.com/t/iterating-over-elements-on-enumerableset-in-openzeppelin-contracts/2296[forum post] for more information."
      },
      "getRoleMemberCount(bytes32)": {
        "details": "Returns the number of accounts that have `role`. Can be used together with {getRoleMember} to enumerate all bearers of a role."
      },
      "getSelectorImplementation2(bytes4)": {
        "details": "view implementation address of selector of function",
        "params": {
          "_selector": "selector of function"
        },
        "returns": {
          "impl": "address of the implementation"
        }
      },
      "getUserStaked(address)": {
        "details": "user's staked information"
      },
      "grantRole(bytes32,address)": {
        "details": "Grants `role` to `account`. If `account` had not been already granted `role`, emits a {RoleGranted} event. Requirements: - the caller must have ``role``'s admin role."
      },
      "hasRole(bytes32,address)": {
        "details": "Returns `true` if `account` has been granted `role`."
      },
      "implementation2(uint256)": {
        "details": "view implementation address of the proxy[index]",
        "params": {
          "_index": "index of proxy"
        },
        "returns": {
          "_0": "address of the implementation"
        }
      },
      "infos()": {
        "details": "Give the infomation of this stakeContracts",
        "returns": {
          "_0": "paytoken, vault, [saleStartBlock, startBlock, endBlock], rewardClaimedTotal, totalStakedAmount, totalStakers"
        }
      },
      "isAdmin(address)": {
        "details": "whether admin",
        "params": {
          "account": "address to check"
        }
      },
      "removeAdmin(address)": {
        "details": "remove admin",
        "params": {
          "account": "address to remove"
        }
      },
      "renounceRole(bytes32,address)": {
        "details": "Revokes `role` from the calling account. Roles are often managed via {grantRole} and {revokeRole}: this function's purpose is to provide a mechanism for accounts to lose their privileges if they are compromised (such as when a trusted device is misplaced). If the calling account had been granted `role`, emits a {RoleRevoked} event. Requirements: - the caller must be `account`."
      },
      "revokeRole(bytes32,address)": {
        "details": "Revokes `role` from `account`. If `account` had been granted `role`, emits a {RoleRevoked} event. Requirements: - the caller must have ``role``'s admin role."
      },
      "setAliveImplementation2(address,bool)": {
        "details": "set alive status of implementation",
        "params": {
          "_alive": "alive status",
          "newImplementation": "Address of the new implementation."
        }
      },
      "setImplementation2(address,uint256,bool)": {
        "details": "set the implementation address and status of the proxy[index]",
        "params": {
          "_alive": "_alive",
          "_index": "index",
          "newImplementation": "Address of the new implementation."
        }
      },
      "setSelectorImplementations2(bytes4[],address)": {
        "details": "set selectors of Implementation",
        "params": {
          "_imp": "implementation address",
          "_selectors": "being added selectors"
        }
      },
      "transferAdmin(address)": {
        "details": "transfer admin",
        "params": {
          "newAdmin": "new admin address"
        }
      }
    },
    "title": "Proxy for Stake contracts in Phase 1",
    "version": 1
  },
  "userdoc": {
    "kind": "user",
    "methods": {},
    "version": 1
  }
}