{
  "_format": "hh-sol-artifact-1",
  "contractName": "BMTMock",
  "sourceName": "contracts/mock/BMTMock.sol",
  "abi": [
    {
      "constant": true,
      "inputs": [],
      "name": "MAX_LEAVES",
      "outputs": [
        {
          "internalType": "uint256",
          "name": "",
          "type": "uint256"
        }
      ],
      "payable": false,
      "stateMutability": "view",
      "type": "function"
    },
    {
      "constant": false,
      "inputs": [
        {
          "internalType": "bytes32",
          "name": "_leaf",
          "type": "bytes32"
        }
      ],
      "name": "addLeaf",
      "outputs": [],
      "payable": false,
      "stateMutability": "nonpayable",
      "type": "function"
    },
    {
      "constant": false,
      "inputs": [
        {
          "internalType": "bytes32[]",
          "name": "_leaves",
          "type": "bytes32[]"
        }
      ],
      "name": "addLeaves",
      "outputs": [],
      "payable": false,
      "stateMutability": "nonpayable",
      "type": "function"
    },
    {
      "constant": true,
      "inputs": [
        {
          "internalType": "bytes32",
          "name": "_root",
          "type": "bytes32"
        }
      ],
      "name": "checkRoot",
      "outputs": [
        {
          "internalType": "bool",
          "name": "",
          "type": "bool"
        }
      ],
      "payable": false,
      "stateMutability": "view",
      "type": "function"
    },
    {
      "constant": true,
      "inputs": [],
      "name": "getLeavesCount",
      "outputs": [
        {
          "internalType": "uint256",
          "name": "",
          "type": "uint256"
        }
      ],
      "payable": false,
      "stateMutability": "view",
      "type": "function"
    },
    {
      "constant": true,
      "inputs": [],
      "name": "getRoot",
      "outputs": [
        {
          "internalType": "bytes32",
          "name": "",
          "type": "bytes32"
        }
      ],
      "payable": false,
      "stateMutability": "view",
      "type": "function"
    },
    {
      "constant": true,
      "inputs": [
        {
          "internalType": "uint256",
          "name": "",
          "type": "uint256"
        }
      ],
      "name": "leaves",
      "outputs": [
        {
          "internalType": "bytes32",
          "name": "",
          "type": "bytes32"
        }
      ],
      "payable": false,
      "stateMutability": "view",
      "type": "function"
    },
    {
      "constant": true,
      "inputs": [],
      "name": "root",
      "outputs": [
        {
          "internalType": "bytes32",
          "name": "",
          "type": "bytes32"
        }
      ],
      "payable": false,
      "stateMutability": "view",
      "type": "function"
    },
    {
      "constant": false,
      "inputs": [],
      "name": "setRoot",
      "outputs": [],
      "payable": false,
      "stateMutability": "nonpayable",
      "type": "function"
    }
  ],
  "bytecode": "0x608060405234801561001057600080fd5b506104fc806100206000396000f3fe608060405234801561001057600080fd5b50600436106100a35760003560e01c80638584f55f11610076578063ea9493461161005b578063ea9493461461012a578063ebf0c71714610147578063f320e8d61461014f576100a3565b80638584f55f14610105578063d455a79d1461010d576100a3565b806306c8442b146100a8578063082febf0146100d95780633edbff79146100f35780635ca1e165146100fd575b600080fd5b6100c5600480360360208110156100be57600080fd5b50356101f2565b604080519115158252519081900360200190f35b6100e1610206565b60408051918252519081900360200190f35b6100fb61020d565b005b6100e161021a565b6100e161027a565b6100e16004803603602081101561012357600080fd5b5035610280565b6100fb6004803603602081101561014057600080fd5b503561029e565b6100e16102d0565b6100fb6004803603602081101561016557600080fd5b81019060208101813564010000000081111561018057600080fd5b82018360208201111561019257600080fd5b803590602001918460208302840111640100000000831117156101b457600080fd5b9190808060200260200160405190810160405280939291908181526020018383602002808284376000920191909152509295506102d6945050505050565b6000816101fd61021a565b1490505b919050565b6201000081565b61021561021a565b600155565b6000610275600080548060200260200160405190810160405280929190818152602001828054801561026b57602002820191906000526020600020905b815481526020019060010190808311610257575b505050505061032d565b905090565b60005490565b6000818154811061028d57fe5b600091825260209091200154905081565b600080546001810182559080527f290decd9548b62a8d60345a988386fc84ba6bc95484008f6362f93160ef3e5630155565b60015481565b60008151116102e457600080fd5b60005b81518110156103295760008282815181106102fe57fe5b60209081029190910181015182546001818101855560009485529290932090920191909155016102e7565b5050565b6000815160011415610355578160008151811061034657fe5b60200260200101519050610201565b6060600283516001018161036557fe5b0460405190808252806020026020018201604052801561038f578160200160208202803883390190505b50905060005b8351816001011015610422578381815181106103ad57fe5b60200260200101518482600101815181106103c457fe5b6020026020010151604051602001808381526020018281526020019250505060405160208183030381529060405280519060200120826002838161040457fe5b048151811061040f57fe5b6020908102919091010152600201610395565b600284518161042d57fe5b06600114156104b6578360018551038151811061044657fe5b60200260200101518460018651038151811061045e57fe5b6020026020010151604051602001808381526020018281526020019250505060405160208183030381529060405280519060200120826002838161049e57fe5b04815181106104a957fe5b6020026020010181815250505b6104bf8261032d565b94935050505056fea265627a7a72315820b647306b255c9bdb767c434a28726f011d5f9906711ac8b4eb45960bb055a16b64736f6c634300050c0032",
  "linkReferences": {},
  "deployedLinkReferences": {}
}