{
  "_format": "hh-sol-artifact-1",
  "contractName": "ERC20MultiTransfer",
  "sourceName": "contracts/stake/tokens/ERC20MultiTransfer.sol",
  "abi": [
    {
      "constant": false,
      "inputs": [
        {
          "internalType": "contract IERC20",
          "name": "token",
          "type": "address"
        },
        {
          "internalType": "address[]",
          "name": "targets",
          "type": "address[]"
        },
        {
          "internalType": "uint256",
          "name": "amount",
          "type": "uint256"
        }
      ],
      "name": "transferFixedAmount",
      "outputs": [],
      "payable": false,
      "stateMutability": "nonpayable",
      "type": "function"
    }
  ],
  "bytecode": "0x608060405234801561001057600080fd5b5061048e806100206000396000f3fe608060405234801561001057600080fd5b506004361061002b5760003560e01c8063326916e314610030575b600080fd5b6100b06004803603606081101561004657600080fd5b6001600160a01b03823516919081019060408101602082013564010000000081111561007157600080fd5b82018360208201111561008357600080fd5b803590602001918460208302840111640100000000831117156100a557600080fd5b9193509150356100b2565b005b6100cf6001600160a01b038516333084860263ffffffff61012816565b60005b828110156101215760008484838181106100e857fe5b905060200201356001600160a01b031690506101188184886001600160a01b03166101b69092919063ffffffff16565b506001016100d2565b5050505050565b604080516001600160a01b0385811660248301528416604482015260648082018490528251808303909101815260849091019091526020810180517bffffffffffffffffffffffffffffffffffffffffffffffffffffffff167f23b872dd000000000000000000000000000000000000000000000000000000001790526101b090859061023b565b50505050565b604080516001600160a01b038416602482015260448082018490528251808303909101815260649091019091526020810180517bffffffffffffffffffffffffffffffffffffffffffffffffffffffff167fa9059cbb0000000000000000000000000000000000000000000000000000000017905261023690849061023b565b505050565b61024d826001600160a01b03166103f3565b61029e576040805162461bcd60e51b815260206004820152601f60248201527f5361666545524332303a2063616c6c20746f206e6f6e2d636f6e747261637400604482015290519081900360640190fd5b60006060836001600160a01b0316836040518082805190602001908083835b602083106102dc5780518252601f1990920191602091820191016102bd565b6001836020036101000a0380198251168184511680821785525050505050509050019150506000604051808303816000865af19150503d806000811461033e576040519150601f19603f3d011682016040523d82523d6000602084013e610343565b606091505b50915091508161039a576040805162461bcd60e51b815260206004820181905260248201527f5361666545524332303a206c6f772d6c6576656c2063616c6c206661696c6564604482015290519081900360640190fd5b8051156101b0578080602001905160208110156103b657600080fd5b50516101b05760405162461bcd60e51b815260040180806020018281038252602a815260200180610430602a913960400191505060405180910390fd5b6000813f7fc5d2460186f7233c927e7db2dcc703c0e500b653ca82273b7bfad8045d85a47081811480159061042757508115155b94935050505056fe5361666545524332303a204552433230206f7065726174696f6e20646964206e6f742073756363656564a265627a7a72315820aa2aab9662ceb830ebd6bdeb63430d456aae0ce03e35bc64240c70a63339d9ff64736f6c634300050c0032",
  "linkReferences": {},
  "deployedLinkReferences": {}
}